DFKAA PDP-10 KL10 BASIC INSTRUCTION DIAGNOSTIC (1) VER 0,2	MACRO %52(537) 09:34 31-JAN-77 PAGE 25-10
DFKAA2	MAC	25-AUG-75 13:56		TEST OF COMPARE (CAMX) INSTRUCTIONS                                                SEQ 0363

 16947	040411	254 04 0 00 040412 		HALT	.+1		;TEST FAILED IF PROGRAM HALTS HERE
 16948	040412	324 00 0 00 040413 		JUMPA	.+1		;IF TEST FAILS, CHANGE THIS INSTRUCTION (JUMPA .+1) TO
 16949									;JUMPA X (X IS THE ADDRESS OF THE FIRST INSTRUCTION
 16950									;IN THE SUBTEST) TO LOOP ON ERROR^
 16951
 16952					;**********
 16953
 16954
 16955					;THIS TEST VERIFIES THAT CAMN SKIPS THE NEXT SEQUENTIAL INSTRUCTION WHEN AND
 16956					;ONLY WHEN C(AC) IS NOT EQUAL TO C(E).  HENCE,
 16957					;CAMN SHOULD SKIP;  OTHERWISE THE PROGRAM HALTS.
 16958					;THIS TEST IS REPEATED 36 TIMES TO FLOAT A 1 THRU ALL 36 BITS OF THE AC
 16959			002037		SN=SN+1
 16960		010000	000000			ZZ=ZZ+ZZ
 16961						IFE	ZZ,<ZZ=1>
 16962	040413	200 00 0 00 070322 		MOVE	[ZZ]		;PRELOAD AC WITH A FLOATING 1
 16963	040414	316 00 0 00 070253 		CAMN	[0]		;*CAMN SHOULD SKIP BECAUSE C(AC) IS NOT EQUAL TO C(E)
 16964						STOP^
 16965	040415	254 04 0 00 040416 		HALT	.+1		;TEST FAILED IF PROGRAM HALTS HERE
 16966	040416	324 00 0 00 040417 		JUMPA	.+1		;IF TEST FAILS, CHANGE THIS INSTRUCTION (JUMPA .+1) TO
 16967									;JUMPA X (X IS THE ADDRESS OF THE FIRST INSTRUCTION
 16968									;IN THE SUBTEST) TO LOOP ON ERROR^
 16969
 16970					;**********
 16971
 16972
 16973					;THIS TEST VERIFIES THAT CAMN SKIPS THE NEXT SEQUENTIAL INSTRUCTION WHEN AND
 16974					;ONLY WHEN C(AC) IS NOT EQUAL TO C(E).  HENCE,
 16975					;CAMN SHOULD SKIP;  OTHERWISE THE PROGRAM HALTS.
 16976					;THIS TEST IS REPEATED 36 TIMES TO FLOAT A 1 THRU ALL 36 BITS OF THE AC
 16977			002040		SN=SN+1
 16978		020000	000000			ZZ=ZZ+ZZ
 16979						IFE	ZZ,<ZZ=1>
 16980	040417	200 00 0 00 070323 		MOVE	[ZZ]		;PRELOAD AC WITH A FLOATING 1
 16981	040420	316 00 0 00 070253 		CAMN	[0]		;*CAMN SHOULD SKIP BECAUSE C(AC) IS NOT EQUAL TO C(E)
 16982						STOP^
 16983	040421	254 04 0 00 040422 		HALT	.+1		;TEST FAILED IF PROGRAM HALTS HERE
 16984	040422	324 00 0 00 040423 		JUMPA	.+1		;IF TEST FAILS, CHANGE THIS INSTRUCTION (JUMPA .+1) TO
 16985									;JUMPA X (X IS THE ADDRESS OF THE FIRST INSTRUCTION
 16986									;IN THE SUBTEST) TO LOOP ON ERROR^
 16987
 16988					;**********
 16989
 16990
 16991					;THIS TEST VERIFIES THAT CAMN SKIPS THE NEXT SEQUENTIAL INSTRUCTION WHEN AND
 16992					;ONLY WHEN C(AC) IS NOT EQUAL TO C(E).  HENCE,
 16993					;CAMN SHOULD SKIP;  OTHERWISE THE PROGRAM HALTS.
 16994					;THIS TEST IS REPEATED 36 TIMES TO FLOAT A 1 THRU ALL 36 BITS OF THE AC
 16995			002041		SN=SN+1
 16996		040000	000000			ZZ=ZZ+ZZ
 16997						IFE	ZZ,<ZZ=1>
 16998	040423	200 00 0 00 070324 		MOVE	[ZZ]		;PRELOAD AC WITH A FLOATING 1
 16999	040424	316 00 0 00 070253 		CAMN	[0]		;*CAMN SHOULD SKIP BECAUSE C(AC) IS NOT EQUAL TO C(E)
 17000						STOP^
 17001	040425	254 04 0 00 040426 		HALT	.+1		;TEST FAILED IF PROGRAM HALTS HERE
DFKAA PDP-10 KL10 BASIC INSTRUCTION DIAGNOSTIC (1) VER 0,2	MACRO %52(537) 09:34 31-JAN-77 PAGE 25-11
DFKAA2	MAC	25-AUG-75 13:56		TEST OF COMPARE (CAMX) INSTRUCTIONS                                                SEQ 0364

 17002	040426	324 00 0 00 040427 		JUMPA	.+1		;IF TEST FAILS, CHANGE THIS INSTRUCTION (JUMPA .+1) TO
 17003									;JUMPA X (X IS THE ADDRESS OF THE FIRST INSTRUCTION
 17004									;IN THE SUBTEST) TO LOOP ON ERROR^
 17005
 17006					;**********
 17007
 17008
 17009					;THIS TEST VERIFIES THAT CAMN SKIPS THE NEXT SEQUENTIAL INSTRUCTION WHEN AND
 17010					;ONLY WHEN C(AC) IS NOT EQUAL TO C(E).  HENCE,
 17011					;CAMN SHOULD SKIP;  OTHERWISE THE PROGRAM HALTS.
 17012					;THIS TEST IS REPEATED 36 TIMES TO FLOAT A 1 THRU ALL 36 BITS OF THE AC
 17013			002042		SN=SN+1
 17014		100000	000000			ZZ=ZZ+ZZ
 17015						IFE	ZZ,<ZZ=1>
 17016	040427	200 00 0 00 070325 		MOVE	[ZZ]		;PRELOAD AC WITH A FLOATING 1
 17017	040430	316 00 0 00 070253 		CAMN	[0]		;*CAMN SHOULD SKIP BECAUSE C(AC) IS NOT EQUAL TO C(E)
 17018						STOP^
 17019	040431	254 04 0 00 040432 		HALT	.+1		;TEST FAILED IF PROGRAM HALTS HERE
 17020	040432	324 00 0 00 040433 		JUMPA	.+1		;IF TEST FAILS, CHANGE THIS INSTRUCTION (JUMPA .+1) TO
 17021									;JUMPA X (X IS THE ADDRESS OF THE FIRST INSTRUCTION
 17022									;IN THE SUBTEST) TO LOOP ON ERROR^
 17023
 17024					;**********
 17025
 17026
 17027					;THIS TEST VERIFIES THAT CAMN SKIPS THE NEXT SEQUENTIAL INSTRUCTION WHEN AND
 17028					;ONLY WHEN C(AC) IS NOT EQUAL TO C(E).  HENCE,
 17029					;CAMN SHOULD SKIP;  OTHERWISE THE PROGRAM HALTS.
 17030					;THIS TEST IS REPEATED 36 TIMES TO FLOAT A 1 THRU ALL 36 BITS OF THE AC
 17031			002043		SN=SN+1
 17032		200000	000000			ZZ=ZZ+ZZ
 17033						IFE	ZZ,<ZZ=1>
 17034	040433	200 00 0 00 070326 		MOVE	[ZZ]		;PRELOAD AC WITH A FLOATING 1
 17035	040434	316 00 0 00 070253 		CAMN	[0]		;*CAMN SHOULD SKIP BECAUSE C(AC) IS NOT EQUAL TO C(E)
 17036						STOP^
 17037	040435	254 04 0 00 040436 		HALT	.+1		;TEST FAILED IF PROGRAM HALTS HERE
 17038	040436	324 00 0 00 040437 		JUMPA	.+1		;IF TEST FAILS, CHANGE THIS INSTRUCTION (JUMPA .+1) TO
 17039									;JUMPA X (X IS THE ADDRESS OF THE FIRST INSTRUCTION
 17040									;IN THE SUBTEST) TO LOOP ON ERROR^
 17041
 17042					;**********
 17043
 17044
 17045					;THIS TEST VERIFIES THAT CAMN SKIPS THE NEXT SEQUENTIAL INSTRUCTION WHEN AND
 17046					;ONLY WHEN C(AC) IS NOT EQUAL TO C(E).  HENCE,
 17047					;CAMN SHOULD SKIP;  OTHERWISE THE PROGRAM HALTS.
 17048					;THIS TEST IS REPEATED 36 TIMES TO FLOAT A 1 THRU ALL 36 BITS OF THE AC
 17049			002044		SN=SN+1
 17050		400000	000000			ZZ=ZZ+ZZ
 17051						IFE	ZZ,<ZZ=1>
 17052	040437	200 00 0 00 070256 		MOVE	[ZZ]		;PRELOAD AC WITH A FLOATING 1
 17053	040440	316 00 0 00 070253 		CAMN	[0]		;*CAMN SHOULD SKIP BECAUSE C(AC) IS NOT EQUAL TO C(E)
 17054						STOP^
 17055	040441	254 04 0 00 040442 		HALT	.+1		;TEST FAILED IF PROGRAM HALTS HERE
 17056	040442	324 00 0 00 040443 		JUMPA	.+1		;IF TEST FAILS, CHANGE THIS INSTRUCTION (JUMPA .+1) TO
DFKAA PDP-10 KL10 BASIC INSTRUCTION DIAGNOSTIC (1) VER 0,2	MACRO %52(537) 09:34 31-JAN-77 PAGE 25-12
DFKAA2	MAC	25-AUG-75 13:56		TEST OF COMPARE (CAMX) INSTRUCTIONS                                                SEQ 0365

 17057									;JUMPA X (X IS THE ADDRESS OF THE FIRST INSTRUCTION
 17058									;IN THE SUBTEST) TO LOOP ON ERROR^
 17059
 17060					;**********
 17061
DFKAA PDP-10 KL10 BASIC INSTRUCTION DIAGNOSTIC (1) VER 0,2	MACRO %52(537) 09:34 31-JAN-77 PAGE 26
DFKAA2	MAC	25-AUG-75 13:56		TEST OF MOVS INSTRUCTION                                                           SEQ 0366

 17062					SUBTTL	TEST OF MOVS INSTRUCTION
 17063
 17064					;**********
 17065
 17066			002100		SN=2100
 17067			000000			ZZ=0
 17068
 17069					B2100:	REPEAT	^D18,<
 17070					;THIS TEST VERIFIES THAT MOVS SWAPS LEFT AND RIGHT HALVES OF E AND
 17071					;MOVES IT INTO AC.  IN THIS CASE, A 1 IS RIPPLED THRU BOTH HALVES
 17072					;OF E [C(E)=ZZ,,ZZ WHERE ZZ IS A FLOATING 1].  THEN, C(AC) IS CHECKED.
 17073					;THIS TEST IS REPEATED 18 TIMES TO FLOAT A 1 THRU ALL 18 BITS OF EACH HALF
 17074
 17075					SN=SN+1
 17076						ZZ=ZZ+ZZ
 17077						IFE	ZZ,<ZZ=1>
 17078						MOVS	[XWD ZZ,ZZ]	;*MOVS SHOULD SWAP HALVES OF C(E)
 17079									;AND MOVE RESULT INTO AC
 17080						CAME	[XWD ZZ,ZZ]	;PASS TEST IF C(AC) CONTAINS ZZ,,ZZ
 17081						STOP
 17082
 17083					;**********
 17084					>
 17085
 17086					;THIS TEST VERIFIES THAT MOVS SWAPS LEFT AND RIGHT HALVES OF E AND
 17087					;MOVES IT INTO AC.  IN THIS CASE, A 1 IS RIPPLED THRU BOTH HALVES
 17088					;OF E [C(E)=ZZ,,ZZ WHERE ZZ IS A FLOATING 1].  THEN, C(AC) IS CHECKED.
 17089					;THIS TEST IS REPEATED 18 TIMES TO FLOAT A 1 THRU ALL 18 BITS OF EACH HALF
 17090
 17091			002101		SN=SN+1
 17092			000000			ZZ=ZZ+ZZ
 17093			000001			IFE	ZZ,<ZZ=1>
 17094	040443	204 00 0 00 070251 		MOVS	[XWD ZZ,ZZ]	;*MOVS SHOULD SWAP HALVES OF C(E)
 17095									;AND MOVE RESULT INTO AC
 17096	040444	312 00 0 00 070251 		CAME	[XWD ZZ,ZZ]	;PASS TEST IF C(AC) CONTAINS ZZ,,ZZ
 17097						STOP		^
 17098	040445	254 04 0 00 040446 		HALT	.+1		;TEST FAILED IF PROGRAM HALTS HERE
 17099	040446	324 00 0 00 040447 		JUMPA	.+1		;IF TEST FAILS, CHANGE THIS INSTRUCTION (JUMPA .+1) TO
 17100									;JUMPA X (X IS THE ADDRESS OF THE FIRST INSTRUCTION
 17101									;IN THE SUBTEST) TO LOOP ON ERROR^
 17102
 17103					;**********
 17104
 17105
 17106					;THIS TEST VERIFIES THAT MOVS SWAPS LEFT AND RIGHT HALVES OF E AND
 17107					;MOVES IT INTO AC.  IN THIS CASE, A 1 IS RIPPLED THRU BOTH HALVES
 17108					;OF E [C(E)=ZZ,,ZZ WHERE ZZ IS A FLOATING 1].  THEN, C(AC) IS CHECKED.
 17109					;THIS TEST IS REPEATED 18 TIMES TO FLOAT A 1 THRU ALL 18 BITS OF EACH HALF
 17110
 17111			002102		SN=SN+1
 17112			000002			ZZ=ZZ+ZZ
 17113						IFE	ZZ,<ZZ=1>
 17114	040447	204 00 0 00 070440 		MOVS	[XWD ZZ,ZZ]	;*MOVS SHOULD SWAP HALVES OF C(E)
 17115									;AND MOVE RESULT INTO AC
 17116	040450	312 00 0 00 070440 		CAME	[XWD ZZ,ZZ]	;PASS TEST IF C(AC) CONTAINS ZZ,,ZZ
DFKAA PDP-10 KL10 BASIC INSTRUCTION DIAGNOSTIC (1) VER 0,2	MACRO %52(537) 09:34 31-JAN-77 PAGE 26-1
DFKAA2	MAC	25-AUG-75 13:56		TEST OF MOVS INSTRUCTION                                                           SEQ 0367

 17117						STOP		^
 17118	040451	254 04 0 00 040452 		HALT	.+1		;TEST FAILED IF PROGRAM HALTS HERE
 17119	040452	324 00 0 00 040453 		JUMPA	.+1		;IF TEST FAILS, CHANGE THIS INSTRUCTION (JUMPA .+1) TO
 17120									;JUMPA X (X IS THE ADDRESS OF THE FIRST INSTRUCTION
 17121									;IN THE SUBTEST) TO LOOP ON ERROR^
 17122
 17123					;**********
 17124
 17125
 17126					;THIS TEST VERIFIES THAT MOVS SWAPS LEFT AND RIGHT HALVES OF E AND
 17127					;MOVES IT INTO AC.  IN THIS CASE, A 1 IS RIPPLED THRU BOTH HALVES
 17128					;OF E [C(E)=ZZ,,ZZ WHERE ZZ IS A FLOATING 1].  THEN, C(AC) IS CHECKED.
 17129					;THIS TEST IS REPEATED 18 TIMES TO FLOAT A 1 THRU ALL 18 BITS OF EACH HALF
 17130
 17131			002103		SN=SN+1
 17132			000004			ZZ=ZZ+ZZ
 17133						IFE	ZZ,<ZZ=1>
 17134	040453	204 00 0 00 070441 		MOVS	[XWD ZZ,ZZ]	;*MOVS SHOULD SWAP HALVES OF C(E)
 17135									;AND MOVE RESULT INTO AC
 17136	040454	312 00 0 00 070441 		CAME	[XWD ZZ,ZZ]	;PASS TEST IF C(AC) CONTAINS ZZ,,ZZ
 17137						STOP		^
 17138	040455	254 04 0 00 040456 		HALT	.+1		;TEST FAILED IF PROGRAM HALTS HERE
 17139	040456	324 00 0 00 040457 		JUMPA	.+1		;IF TEST FAILS, CHANGE THIS INSTRUCTION (JUMPA .+1) TO
 17140									;JUMPA X (X IS THE ADDRESS OF THE FIRST INSTRUCTION
 17141									;IN THE SUBTEST) TO LOOP ON ERROR^
 17142
 17143					;**********
 17144
 17145
 17146					;THIS TEST VERIFIES THAT MOVS SWAPS LEFT AND RIGHT HALVES OF E AND
 17147					;MOVES IT INTO AC.  IN THIS CASE, A 1 IS RIPPLED THRU BOTH HALVES
 17148					;OF E [C(E)=ZZ,,ZZ WHERE ZZ IS A FLOATING 1].  THEN, C(AC) IS CHECKED.
 17149					;THIS TEST IS REPEATED 18 TIMES TO FLOAT A 1 THRU ALL 18 BITS OF EACH HALF
 17150
 17151			002104		SN=SN+1
 17152			000010			ZZ=ZZ+ZZ
 17153						IFE	ZZ,<ZZ=1>
 17154	040457	204 00 0 00 070442 		MOVS	[XWD ZZ,ZZ]	;*MOVS SHOULD SWAP HALVES OF C(E)
 17155									;AND MOVE RESULT INTO AC
 17156	040460	312 00 0 00 070442 		CAME	[XWD ZZ,ZZ]	;PASS TEST IF C(AC) CONTAINS ZZ,,ZZ
 17157						STOP		^
 17158	040461	254 04 0 00 040462 		HALT	.+1		;TEST FAILED IF PROGRAM HALTS HERE
 17159	040462	324 00 0 00 040463 		JUMPA	.+1		;IF TEST FAILS, CHANGE THIS INSTRUCTION (JUMPA .+1) TO
 17160									;JUMPA X (X IS THE ADDRESS OF THE FIRST INSTRUCTION
 17161									;IN THE SUBTEST) TO LOOP ON ERROR^
 17162
 17163					;**********
 17164
 17165
 17166					;THIS TEST VERIFIES THAT MOVS SWAPS LEFT AND RIGHT HALVES OF E AND
 17167					;MOVES IT INTO AC.  IN THIS CASE, A 1 IS RIPPLED THRU BOTH HALVES
 17168					;OF E [C(E)=ZZ,,ZZ WHERE ZZ IS A FLOATING 1].  THEN, C(AC) IS CHECKED.
 17169					;THIS TEST IS REPEATED 18 TIMES TO FLOAT A 1 THRU ALL 18 BITS OF EACH HALF
 17170
 17171			002105		SN=SN+1
DFKAA PDP-10 KL10 BASIC INSTRUCTION DIAGNOSTIC (1) VER 0,2	MACRO %52(537) 09:34 31-JAN-77 PAGE 26-2
DFKAA2	MAC	25-AUG-75 13:56		TEST OF MOVS INSTRUCTION                                                           SEQ 0368

 17172			000020			ZZ=ZZ+ZZ
 17173						IFE	ZZ,<ZZ=1>
 17174	040463	204 00 0 00 070443 		MOVS	[XWD ZZ,ZZ]	;*MOVS SHOULD SWAP HALVES OF C(E)
 17175									;AND MOVE RESULT INTO AC
 17176	040464	312 00 0 00 070443 		CAME	[XWD ZZ,ZZ]	;PASS TEST IF C(AC) CONTAINS ZZ,,ZZ
 17177						STOP		^
 17178	040465	254 04 0 00 040466 		HALT	.+1		;TEST FAILED IF PROGRAM HALTS HERE
 17179	040466	324 00 0 00 040467 		JUMPA	.+1		;IF TEST FAILS, CHANGE THIS INSTRUCTION (JUMPA .+1) TO
 17180									;JUMPA X (X IS THE ADDRESS OF THE FIRST INSTRUCTION
 17181									;IN THE SUBTEST) TO LOOP ON ERROR^
 17182
 17183					;**********
 17184
 17185
 17186					;THIS TEST VERIFIES THAT MOVS SWAPS LEFT AND RIGHT HALVES OF E AND
 17187					;MOVES IT INTO AC.  IN THIS CASE, A 1 IS RIPPLED THRU BOTH HALVES
 17188					;OF E [C(E)=ZZ,,ZZ WHERE ZZ IS A FLOATING 1].  THEN, C(AC) IS CHECKED.
 17189					;THIS TEST IS REPEATED 18 TIMES TO FLOAT A 1 THRU ALL 18 BITS OF EACH HALF
 17190
 17191			002106		SN=SN+1
 17192			000040			ZZ=ZZ+ZZ
 17193						IFE	ZZ,<ZZ=1>
 17194	040467	204 00 0 00 070444 		MOVS	[XWD ZZ,ZZ]	;*MOVS SHOULD SWAP HALVES OF C(E)
 17195									;AND MOVE RESULT INTO AC
 17196	040470	312 00 0 00 070444 		CAME	[XWD ZZ,ZZ]	;PASS TEST IF C(AC) CONTAINS ZZ,,ZZ
 17197						STOP		^
 17198	040471	254 04 0 00 040472 		HALT	.+1		;TEST FAILED IF PROGRAM HALTS HERE
 17199	040472	324 00 0 00 040473 		JUMPA	.+1		;IF TEST FAILS, CHANGE THIS INSTRUCTION (JUMPA .+1) TO
 17200									;JUMPA X (X IS THE ADDRESS OF THE FIRST INSTRUCTION
 17201									;IN THE SUBTEST) TO LOOP ON ERROR^
 17202
 17203					;**********
 17204
 17205
 17206					;THIS TEST VERIFIES THAT MOVS SWAPS LEFT AND RIGHT HALVES OF E AND
 17207					;MOVES IT INTO AC.  IN THIS CASE, A 1 IS RIPPLED THRU BOTH HALVES
 17208					;OF E [C(E)=ZZ,,ZZ WHERE ZZ IS A FLOATING 1].  THEN, C(AC) IS CHECKED.
 17209					;THIS TEST IS REPEATED 18 TIMES TO FLOAT A 1 THRU ALL 18 BITS OF EACH HALF
 17210
 17211			002107		SN=SN+1
 17212			000100			ZZ=ZZ+ZZ
 17213						IFE	ZZ,<ZZ=1>
 17214	040473	204 00 0 00 070445 		MOVS	[XWD ZZ,ZZ]	;*MOVS SHOULD SWAP HALVES OF C(E)
 17215									;AND MOVE RESULT INTO AC
 17216	040474	312 00 0 00 070445 		CAME	[XWD ZZ,ZZ]	;PASS TEST IF C(AC) CONTAINS ZZ,,ZZ
 17217						STOP		^
 17218	040475	254 04 0 00 040476 		HALT	.+1		;TEST FAILED IF PROGRAM HALTS HERE
 17219	040476	324 00 0 00 040477 		JUMPA	.+1		;IF TEST FAILS, CHANGE THIS INSTRUCTION (JUMPA .+1) TO
 17220									;JUMPA X (X IS THE ADDRESS OF THE FIRST INSTRUCTION
 17221									;IN THE SUBTEST) TO LOOP ON ERROR^
 17222
 17223					;**********
 17224
 17225
 17226					;THIS TEST VERIFIES THAT MOVS SWAPS LEFT AND RIGHT HALVES OF E AND
DFKAA PDP-10 KL10 BASIC INSTRUCTION DIAGNOSTIC (1) VER 0,2	MACRO %52(537) 09:34 31-JAN-77 PAGE 26-3
DFKAA2	MAC	25-AUG-75 13:56		TEST OF MOVS INSTRUCTION                                                           SEQ 0369

 17227					;MOVES IT INTO AC.  IN THIS CASE, A 1 IS RIPPLED THRU BOTH HALVES
 17228					;OF E [C(E)=ZZ,,ZZ WHERE ZZ IS A FLOATING 1].  THEN, C(AC) IS CHECKED.
 17229					;THIS TEST IS REPEATED 18 TIMES TO FLOAT A 1 THRU ALL 18 BITS OF EACH HALF
 17230
 17231			002110		SN=SN+1
 17232			000200			ZZ=ZZ+ZZ
 17233						IFE	ZZ,<ZZ=1>
 17234	040477	204 00 0 00 070446 		MOVS	[XWD ZZ,ZZ]	;*MOVS SHOULD SWAP HALVES OF C(E)
 17235									;AND MOVE RESULT INTO AC
 17236	040500	312 00 0 00 070446 		CAME	[XWD ZZ,ZZ]	;PASS TEST IF C(AC) CONTAINS ZZ,,ZZ
 17237						STOP		^
 17238	040501	254 04 0 00 040502 		HALT	.+1		;TEST FAILED IF PROGRAM HALTS HERE
 17239	040502	324 00 0 00 040503 		JUMPA	.+1		;IF TEST FAILS, CHANGE THIS INSTRUCTION (JUMPA .+1) TO
 17240									;JUMPA X (X IS THE ADDRESS OF THE FIRST INSTRUCTION
 17241									;IN THE SUBTEST) TO LOOP ON ERROR^
 17242
 17243					;**********
 17244
 17245
 17246					;THIS TEST VERIFIES THAT MOVS SWAPS LEFT AND RIGHT HALVES OF E AND
 17247					;MOVES IT INTO AC.  IN THIS CASE, A 1 IS RIPPLED THRU BOTH HALVES
 17248					;OF E [C(E)=ZZ,,ZZ WHERE ZZ IS A FLOATING 1].  THEN, C(AC) IS CHECKED.
 17249					;THIS TEST IS REPEATED 18 TIMES TO FLOAT A 1 THRU ALL 18 BITS OF EACH HALF
 17250
 17251			002111		SN=SN+1
 17252			000400			ZZ=ZZ+ZZ
 17253						IFE	ZZ,<ZZ=1>
 17254	040503	204 00 0 00 070447 		MOVS	[XWD ZZ,ZZ]	;*MOVS SHOULD SWAP HALVES OF C(E)
 17255									;AND MOVE RESULT INTO AC
 17256	040504	312 00 0 00 070447 		CAME	[XWD ZZ,ZZ]	;PASS TEST IF C(AC) CONTAINS ZZ,,ZZ
 17257						STOP		^
 17258	040505	254 04 0 00 040506 		HALT	.+1		;TEST FAILED IF PROGRAM HALTS HERE
 17259	040506	324 00 0 00 040507 		JUMPA	.+1		;IF TEST FAILS, CHANGE THIS INSTRUCTION (JUMPA .+1) TO
 17260									;JUMPA X (X IS THE ADDRESS OF THE FIRST INSTRUCTION
 17261									;IN THE SUBTEST) TO LOOP ON ERROR^
 17262
 17263					;**********
 17264
 17265
 17266					;THIS TEST VERIFIES THAT MOVS SWAPS LEFT AND RIGHT HALVES OF E AND
 17267					;MOVES IT INTO AC.  IN THIS CASE, A 1 IS RIPPLED THRU BOTH HALVES
 17268					;OF E [C(E)=ZZ,,ZZ WHERE ZZ IS A FLOATING 1].  THEN, C(AC) IS CHECKED.
 17269					;THIS TEST IS REPEATED 18 TIMES TO FLOAT A 1 THRU ALL 18 BITS OF EACH HALF
 17270
 17271			002112		SN=SN+1
 17272			001000			ZZ=ZZ+ZZ
 17273						IFE	ZZ,<ZZ=1>
 17274	040507	204 00 0 00 070450 		MOVS	[XWD ZZ,ZZ]	;*MOVS SHOULD SWAP HALVES OF C(E)
 17275									;AND MOVE RESULT INTO AC
 17276	040510	312 00 0 00 070450 		CAME	[XWD ZZ,ZZ]	;PASS TEST IF C(AC) CONTAINS ZZ,,ZZ
 17277						STOP		^
 17278	040511	254 04 0 00 040512 		HALT	.+1		;TEST FAILED IF PROGRAM HALTS HERE
 17279	040512	324 00 0 00 040513 		JUMPA	.+1		;IF TEST FAILS, CHANGE THIS INSTRUCTION (JUMPA .+1) TO
 17280									;JUMPA X (X IS THE ADDRESS OF THE FIRST INSTRUCTION
 17281									;IN THE SUBTEST) TO LOOP ON ERROR^
DFKAA PDP-10 KL10 BASIC INSTRUCTION DIAGNOSTIC (1) VER 0,2	MACRO %52(537) 09:34 31-JAN-77 PAGE 26-4
DFKAA2	MAC	25-AUG-75 13:56		TEST OF MOVS INSTRUCTION                                                           SEQ 0370

 17282
 17283					;**********
 17284
 17285
 17286					;THIS TEST VERIFIES THAT MOVS SWAPS LEFT AND RIGHT HALVES OF E AND
 17287					;MOVES IT INTO AC.  IN THIS CASE, A 1 IS RIPPLED THRU BOTH HALVES
 17288					;OF E [C(E)=ZZ,,ZZ WHERE ZZ IS A FLOATING 1].  THEN, C(AC) IS CHECKED.
 17289					;THIS TEST IS REPEATED 18 TIMES TO FLOAT A 1 THRU ALL 18 BITS OF EACH HALF
 17290
 17291			002113		SN=SN+1
 17292			002000			ZZ=ZZ+ZZ
 17293						IFE	ZZ,<ZZ=1>
 17294	040513	204 00 0 00 070451 		MOVS	[XWD ZZ,ZZ]	;*MOVS SHOULD SWAP HALVES OF C(E)
 17295									;AND MOVE RESULT INTO AC
 17296	040514	312 00 0 00 070451 		CAME	[XWD ZZ,ZZ]	;PASS TEST IF C(AC) CONTAINS ZZ,,ZZ
 17297						STOP		^
 17298	040515	254 04 0 00 040516 		HALT	.+1		;TEST FAILED IF PROGRAM HALTS HERE
 17299	040516	324 00 0 00 040517 		JUMPA	.+1		;IF TEST FAILS, CHANGE THIS INSTRUCTION (JUMPA .+1) TO
 17300									;JUMPA X (X IS THE ADDRESS OF THE FIRST INSTRUCTION
 17301									;IN THE SUBTEST) TO LOOP ON ERROR^
 17302
 17303					;**********
 17304
 17305
 17306					;THIS TEST VERIFIES THAT MOVS SWAPS LEFT AND RIGHT HALVES OF E AND
 17307					;MOVES IT INTO AC.  IN THIS CASE, A 1 IS RIPPLED THRU BOTH HALVES
 17308					;OF E [C(E)=ZZ,,ZZ WHERE ZZ IS A FLOATING 1].  THEN, C(AC) IS CHECKED.
 17309					;THIS TEST IS REPEATED 18 TIMES TO FLOAT A 1 THRU ALL 18 BITS OF EACH HALF
 17310
 17311			002114		SN=SN+1
 17312			004000			ZZ=ZZ+ZZ
 17313						IFE	ZZ,<ZZ=1>
 17314	040517	204 00 0 00 070452 		MOVS	[XWD ZZ,ZZ]	;*MOVS SHOULD SWAP HALVES OF C(E)
 17315									;AND MOVE RESULT INTO AC
 17316	040520	312 00 0 00 070452 		CAME	[XWD ZZ,ZZ]	;PASS TEST IF C(AC) CONTAINS ZZ,,ZZ
 17317						STOP		^
 17318	040521	254 04 0 00 040522 		HALT	.+1		;TEST FAILED IF PROGRAM HALTS HERE
 17319	040522	324 00 0 00 040523 		JUMPA	.+1		;IF TEST FAILS, CHANGE THIS INSTRUCTION (JUMPA .+1) TO
 17320									;JUMPA X (X IS THE ADDRESS OF THE FIRST INSTRUCTION
 17321									;IN THE SUBTEST) TO LOOP ON ERROR^
 17322
 17323					;**********
 17324
 17325
 17326					;THIS TEST VERIFIES THAT MOVS SWAPS LEFT AND RIGHT HALVES OF E AND
 17327					;MOVES IT INTO AC.  IN THIS CASE, A 1 IS RIPPLED THRU BOTH HALVES
 17328					;OF E [C(E)=ZZ,,ZZ WHERE ZZ IS A FLOATING 1].  THEN, C(AC) IS CHECKED.
 17329					;THIS TEST IS REPEATED 18 TIMES TO FLOAT A 1 THRU ALL 18 BITS OF EACH HALF
 17330
 17331			002115		SN=SN+1
 17332			010000			ZZ=ZZ+ZZ
 17333						IFE	ZZ,<ZZ=1>
 17334	040523	204 00 0 00 070453 		MOVS	[XWD ZZ,ZZ]	;*MOVS SHOULD SWAP HALVES OF C(E)
 17335									;AND MOVE RESULT INTO AC
 17336	040524	312 00 0 00 070453 		CAME	[XWD ZZ,ZZ]	;PASS TEST IF C(AC) CONTAINS ZZ,,ZZ
DFKAA PDP-10 KL10 BASIC INSTRUCTION DIAGNOSTIC (1) VER 0,2	MACRO %52(537) 09:34 31-JAN-77 PAGE 26-5
DFKAA2	MAC	25-AUG-75 13:56		TEST OF MOVS INSTRUCTION                                                           SEQ 0371

 17337						STOP		^
 17338	040525	254 04 0 00 040526 		HALT	.+1		;TEST FAILED IF PROGRAM HALTS HERE
 17339	040526	324 00 0 00 040527 		JUMPA	.+1		;IF TEST FAILS, CHANGE THIS INSTRUCTION (JUMPA .+1) TO
 17340									;JUMPA X (X IS THE ADDRESS OF THE FIRST INSTRUCTION
 17341									;IN THE SUBTEST) TO LOOP ON ERROR^
 17342
 17343					;**********
 17344
 17345
 17346					;THIS TEST VERIFIES THAT MOVS SWAPS LEFT AND RIGHT HALVES OF E AND
 17347					;MOVES IT INTO AC.  IN THIS CASE, A 1 IS RIPPLED THRU BOTH HALVES
 17348					;OF E [C(E)=ZZ,,ZZ WHERE ZZ IS A FLOATING 1].  THEN, C(AC) IS CHECKED.
 17349					;THIS TEST IS REPEATED 18 TIMES TO FLOAT A 1 THRU ALL 18 BITS OF EACH HALF
 17350
 17351			002116		SN=SN+1
 17352			020000			ZZ=ZZ+ZZ
 17353						IFE	ZZ,<ZZ=1>
 17354	040527	204 00 0 00 070454 		MOVS	[XWD ZZ,ZZ]	;*MOVS SHOULD SWAP HALVES OF C(E)
 17355									;AND MOVE RESULT INTO AC
 17356	040530	312 00 0 00 070454 		CAME	[XWD ZZ,ZZ]	;PASS TEST IF C(AC) CONTAINS ZZ,,ZZ
 17357						STOP		^
 17358	040531	254 04 0 00 040532 		HALT	.+1		;TEST FAILED IF PROGRAM HALTS HERE
 17359	040532	324 00 0 00 040533 		JUMPA	.+1		;IF TEST FAILS, CHANGE THIS INSTRUCTION (JUMPA .+1) TO
 17360									;JUMPA X (X IS THE ADDRESS OF THE FIRST INSTRUCTION
 17361									;IN THE SUBTEST) TO LOOP ON ERROR^
 17362
 17363					;**********
 17364
 17365
 17366					;THIS TEST VERIFIES THAT MOVS SWAPS LEFT AND RIGHT HALVES OF E AND
 17367					;MOVES IT INTO AC.  IN THIS CASE, A 1 IS RIPPLED THRU BOTH HALVES
 17368					;OF E [C(E)=ZZ,,ZZ WHERE ZZ IS A FLOATING 1].  THEN, C(AC) IS CHECKED.
 17369					;THIS TEST IS REPEATED 18 TIMES TO FLOAT A 1 THRU ALL 18 BITS OF EACH HALF
 17370
 17371			002117		SN=SN+1
 17372			040000			ZZ=ZZ+ZZ
 17373						IFE	ZZ,<ZZ=1>
 17374	040533	204 00 0 00 070455 		MOVS	[XWD ZZ,ZZ]	;*MOVS SHOULD SWAP HALVES OF C(E)
 17375									;AND MOVE RESULT INTO AC
 17376	040534	312 00 0 00 070455 		CAME	[XWD ZZ,ZZ]	;PASS TEST IF C(AC) CONTAINS ZZ,,ZZ
 17377						STOP		^
 17378	040535	254 04 0 00 040536 		HALT	.+1		;TEST FAILED IF PROGRAM HALTS HERE
 17379	040536	324 00 0 00 040537 		JUMPA	.+1		;IF TEST FAILS, CHANGE THIS INSTRUCTION (JUMPA .+1) TO
 17380									;JUMPA X (X IS THE ADDRESS OF THE FIRST INSTRUCTION
 17381									;IN THE SUBTEST) TO LOOP ON ERROR^
 17382
 17383					;**********
 17384
 17385
 17386					;THIS TEST VERIFIES THAT MOVS SWAPS LEFT AND RIGHT HALVES OF E AND
 17387					;MOVES IT INTO AC.  IN THIS CASE, A 1 IS RIPPLED THRU BOTH HALVES
 17388					;OF E [C(E)=ZZ,,ZZ WHERE ZZ IS A FLOATING 1].  THEN, C(AC) IS CHECKED.
 17389					;THIS TEST IS REPEATED 18 TIMES TO FLOAT A 1 THRU ALL 18 BITS OF EACH HALF
 17390
 17391			002120		SN=SN+1
DFKAA PDP-10 KL10 BASIC INSTRUCTION DIAGNOSTIC (1) VER 0,2	MACRO %52(537) 09:34 31-JAN-77 PAGE 26-6
DFKAA2	MAC	25-AUG-75 13:56		TEST OF MOVS INSTRUCTION                                                           SEQ 0372

 17392			100000			ZZ=ZZ+ZZ
 17393						IFE	ZZ,<ZZ=1>
 17394	040537	204 00 0 00 070456 		MOVS	[XWD ZZ,ZZ]	;*MOVS SHOULD SWAP HALVES OF C(E)
 17395									;AND MOVE RESULT INTO AC
 17396	040540	312 00 0 00 070456 		CAME	[XWD ZZ,ZZ]	;PASS TEST IF C(AC) CONTAINS ZZ,,ZZ
 17397						STOP		^
 17398	040541	254 04 0 00 040542 		HALT	.+1		;TEST FAILED IF PROGRAM HALTS HERE
 17399	040542	324 00 0 00 040543 		JUMPA	.+1		;IF TEST FAILS, CHANGE THIS INSTRUCTION (JUMPA .+1) TO
 17400									;JUMPA X (X IS THE ADDRESS OF THE FIRST INSTRUCTION
 17401									;IN THE SUBTEST) TO LOOP ON ERROR^
 17402
 17403					;**********
 17404
 17405
 17406					;THIS TEST VERIFIES THAT MOVS SWAPS LEFT AND RIGHT HALVES OF E AND
 17407					;MOVES IT INTO AC.  IN THIS CASE, A 1 IS RIPPLED THRU BOTH HALVES
 17408					;OF E [C(E)=ZZ,,ZZ WHERE ZZ IS A FLOATING 1].  THEN, C(AC) IS CHECKED.
 17409					;THIS TEST IS REPEATED 18 TIMES TO FLOAT A 1 THRU ALL 18 BITS OF EACH HALF
 17410
 17411			002121		SN=SN+1
 17412			200000			ZZ=ZZ+ZZ
 17413						IFE	ZZ,<ZZ=1>
 17414	040543	204 00 0 00 070457 		MOVS	[XWD ZZ,ZZ]	;*MOVS SHOULD SWAP HALVES OF C(E)
 17415									;AND MOVE RESULT INTO AC
 17416	040544	312 00 0 00 070457 		CAME	[XWD ZZ,ZZ]	;PASS TEST IF C(AC) CONTAINS ZZ,,ZZ
 17417						STOP		^
 17418	040545	254 04 0 00 040546 		HALT	.+1		;TEST FAILED IF PROGRAM HALTS HERE
 17419	040546	324 00 0 00 040547 		JUMPA	.+1		;IF TEST FAILS, CHANGE THIS INSTRUCTION (JUMPA .+1) TO
 17420									;JUMPA X (X IS THE ADDRESS OF THE FIRST INSTRUCTION
 17421									;IN THE SUBTEST) TO LOOP ON ERROR^
 17422
 17423					;**********
 17424
 17425
 17426					;THIS TEST VERIFIES THAT MOVS SWAPS LEFT AND RIGHT HALVES OF E AND
 17427					;MOVES IT INTO AC.  IN THIS CASE, A 1 IS RIPPLED THRU BOTH HALVES
 17428					;OF E [C(E)=ZZ,,ZZ WHERE ZZ IS A FLOATING 1].  THEN, C(AC) IS CHECKED.
 17429					;THIS TEST IS REPEATED 18 TIMES TO FLOAT A 1 THRU ALL 18 BITS OF EACH HALF
 17430
 17431			002122		SN=SN+1
 17432			400000			ZZ=ZZ+ZZ
 17433						IFE	ZZ,<ZZ=1>
 17434	040547	204 00 0 00 070460 		MOVS	[XWD ZZ,ZZ]	;*MOVS SHOULD SWAP HALVES OF C(E)
 17435									;AND MOVE RESULT INTO AC
 17436	040550	312 00 0 00 070460 		CAME	[XWD ZZ,ZZ]	;PASS TEST IF C(AC) CONTAINS ZZ,,ZZ
 17437						STOP		^
 17438	040551	254 04 0 00 040552 		HALT	.+1		;TEST FAILED IF PROGRAM HALTS HERE
 17439	040552	324 00 0 00 040553 		JUMPA	.+1		;IF TEST FAILS, CHANGE THIS INSTRUCTION (JUMPA .+1) TO
 17440									;JUMPA X (X IS THE ADDRESS OF THE FIRST INSTRUCTION
 17441									;IN THE SUBTEST) TO LOOP ON ERROR^
 17442
 17443					;**********
 17444
DFKAA PDP-10 KL10 BASIC INSTRUCTION DIAGNOSTIC (1) VER 0,2	MACRO %52(537) 09:34 31-JAN-77 PAGE 27
DFKAA2	MAC	25-AUG-75 13:56		TEST OF MOVS INSTRUCTION                                                           SEQ 0373

 17445			002200		SN=2200
 17446			000000			ZZ=0
 17447
 17448					B2200:	REPEAT	^D18,<
 17449					;THIS TEST VERIFIES THAT MOVS SWAPS LEFT AND RIGHT HALVES OF E AND
 17450					;MOVES IT INTO AC.  IN THIS CASE, A 0 IS RIPPLED THRU BOTH HALVES
 17451					;OF E [C(E)=ZZ,,ZZ, WHERE ZZ IS A FLOATING 0].  THEN, C(AC) IS CHECKED.
 17452					;THIS TEST IS REPEATED 18 TIMES TO FLOAT A 0 THRU ALL 18 BITS OF EACH HALF
 17453
 17454					SN=SN+1
 17455						ZZ=ZZ+ZZ+1
 17456						IFE	<ZZ-1>,<ZZ=-2>
 17457						MOVS	[XWD ZZ,ZZ]	;*MOVS SHOULD SWAP HALVES OF C(E)
 17458									;AND MOVE RESULT INTO AC
 17459						CAME	[XWD ZZ,ZZ]	;PASS TEST IF AC CONTAINS ZZ,,ZZ
 17460						STOP
 17461
 17462					;**********
 17463					>
 17464
 17465					;THIS TEST VERIFIES THAT MOVS SWAPS LEFT AND RIGHT HALVES OF E AND
 17466					;MOVES IT INTO AC.  IN THIS CASE, A 0 IS RIPPLED THRU BOTH HALVES
 17467					;OF E [C(E)=ZZ,,ZZ, WHERE ZZ IS A FLOATING 0].  THEN, C(AC) IS CHECKED.
 17468					;THIS TEST IS REPEATED 18 TIMES TO FLOAT A 0 THRU ALL 18 BITS OF EACH HALF
 17469
 17470			002201		SN=SN+1
 17471			000001			ZZ=ZZ+ZZ+1
 17472		777777	777776			IFE	<ZZ-1>,<ZZ=-2>
 17473	040553	204 00 0 00 070461 		MOVS	[XWD ZZ,ZZ]	;*MOVS SHOULD SWAP HALVES OF C(E)
 17474									;AND MOVE RESULT INTO AC
 17475	040554	312 00 0 00 070461 		CAME	[XWD ZZ,ZZ]	;PASS TEST IF AC CONTAINS ZZ,,ZZ
 17476						STOP		^
 17477	040555	254 04 0 00 040556 		HALT	.+1		;TEST FAILED IF PROGRAM HALTS HERE
 17478	040556	324 00 0 00 040557 		JUMPA	.+1		;IF TEST FAILS, CHANGE THIS INSTRUCTION (JUMPA .+1) TO
 17479									;JUMPA X (X IS THE ADDRESS OF THE FIRST INSTRUCTION
 17480									;IN THE SUBTEST) TO LOOP ON ERROR^
 17481
 17482					;**********
 17483
 17484
 17485					;THIS TEST VERIFIES THAT MOVS SWAPS LEFT AND RIGHT HALVES OF E AND
 17486					;MOVES IT INTO AC.  IN THIS CASE, A 0 IS RIPPLED THRU BOTH HALVES
 17487					;OF E [C(E)=ZZ,,ZZ, WHERE ZZ IS A FLOATING 0].  THEN, C(AC) IS CHECKED.
 17488					;THIS TEST IS REPEATED 18 TIMES TO FLOAT A 0 THRU ALL 18 BITS OF EACH HALF
 17489
 17490			002202		SN=SN+1
 17491		777777	777775			ZZ=ZZ+ZZ+1
 17492						IFE	<ZZ-1>,<ZZ=-2>
 17493	040557	204 00 0 00 070462 		MOVS	[XWD ZZ,ZZ]	;*MOVS SHOULD SWAP HALVES OF C(E)
 17494									;AND MOVE RESULT INTO AC
 17495	040560	312 00 0 00 070462 		CAME	[XWD ZZ,ZZ]	;PASS TEST IF AC CONTAINS ZZ,,ZZ
 17496						STOP		^
 17497	040561	254 04 0 00 040562 		HALT	.+1		;TEST FAILED IF PROGRAM HALTS HERE
 17498	040562	324 00 0 00 040563 		JUMPA	.+1		;IF TEST FAILS, CHANGE THIS INSTRUCTION (JUMPA .+1) TO
 17499									;JUMPA X (X IS THE ADDRESS OF THE FIRST INSTRUCTION
DFKAA PDP-10 KL10 BASIC INSTRUCTION DIAGNOSTIC (1) VER 0,2	MACRO %52(537) 09:34 31-JAN-77 PAGE 27-1
DFKAA2	MAC	25-AUG-75 13:56		TEST OF MOVS INSTRUCTION                                                           SEQ 0374

 17500									;IN THE SUBTEST) TO LOOP ON ERROR^
 17501
 17502					;**********
 17503
 17504
 17505					;THIS TEST VERIFIES THAT MOVS SWAPS LEFT AND RIGHT HALVES OF E AND
 17506					;MOVES IT INTO AC.  IN THIS CASE, A 0 IS RIPPLED THRU BOTH HALVES
 17507					;OF E [C(E)=ZZ,,ZZ, WHERE ZZ IS A FLOATING 0].  THEN, C(AC) IS CHECKED.
 17508					;THIS TEST IS REPEATED 18 TIMES TO FLOAT A 0 THRU ALL 18 BITS OF EACH HALF
 17509
 17510			002203		SN=SN+1
 17511		777777	777773			ZZ=ZZ+ZZ+1
 17512						IFE	<ZZ-1>,<ZZ=-2>
 17513	040563	204 00 0 00 070463 		MOVS	[XWD ZZ,ZZ]	;*MOVS SHOULD SWAP HALVES OF C(E)
 17514									;AND MOVE RESULT INTO AC
 17515	040564	312 00 0 00 070463 		CAME	[XWD ZZ,ZZ]	;PASS TEST IF AC CONTAINS ZZ,,ZZ
 17516						STOP		^
 17517	040565	254 04 0 00 040566 		HALT	.+1		;TEST FAILED IF PROGRAM HALTS HERE
 17518	040566	324 00 0 00 040567 		JUMPA	.+1		;IF TEST FAILS, CHANGE THIS INSTRUCTION (JUMPA .+1) TO
 17519									;JUMPA X (X IS THE ADDRESS OF THE FIRST INSTRUCTION
 17520									;IN THE SUBTEST) TO LOOP ON ERROR^
 17521
 17522					;**********
 17523
 17524
 17525					;THIS TEST VERIFIES THAT MOVS SWAPS LEFT AND RIGHT HALVES OF E AND
 17526					;MOVES IT INTO AC.  IN THIS CASE, A 0 IS RIPPLED THRU BOTH HALVES
 17527					;OF E [C(E)=ZZ,,ZZ, WHERE ZZ IS A FLOATING 0].  THEN, C(AC) IS CHECKED.
 17528					;THIS TEST IS REPEATED 18 TIMES TO FLOAT A 0 THRU ALL 18 BITS OF EACH HALF
 17529
 17530			002204		SN=SN+1
 17531		777777	777767			ZZ=ZZ+ZZ+1
 17532						IFE	<ZZ-1>,<ZZ=-2>
 17533	040567	204 00 0 00 070464 		MOVS	[XWD ZZ,ZZ]	;*MOVS SHOULD SWAP HALVES OF C(E)
 17534									;AND MOVE RESULT INTO AC
 17535	040570	312 00 0 00 070464 		CAME	[XWD ZZ,ZZ]	;PASS TEST IF AC CONTAINS ZZ,,ZZ
 17536						STOP		^
 17537	040571	254 04 0 00 040572 		HALT	.+1		;TEST FAILED IF PROGRAM HALTS HERE
 17538	040572	324 00 0 00 040573 		JUMPA	.+1		;IF TEST FAILS, CHANGE THIS INSTRUCTION (JUMPA .+1) TO
 17539									;JUMPA X (X IS THE ADDRESS OF THE FIRST INSTRUCTION
 17540									;IN THE SUBTEST) TO LOOP ON ERROR^
 17541
 17542					;**********
 17543
 17544
 17545					;THIS TEST VERIFIES THAT MOVS SWAPS LEFT AND RIGHT HALVES OF E AND
 17546					;MOVES IT INTO AC.  IN THIS CASE, A 0 IS RIPPLED THRU BOTH HALVES
 17547					;OF E [C(E)=ZZ,,ZZ, WHERE ZZ IS A FLOATING 0].  THEN, C(AC) IS CHECKED.
 17548					;THIS TEST IS REPEATED 18 TIMES TO FLOAT A 0 THRU ALL 18 BITS OF EACH HALF
 17549
 17550			002205		SN=SN+1
 17551		777777	777757			ZZ=ZZ+ZZ+1
 17552						IFE	<ZZ-1>,<ZZ=-2>
 17553	040573	204 00 0 00 070465 		MOVS	[XWD ZZ,ZZ]	;*MOVS SHOULD SWAP HALVES OF C(E)
 17554									;AND MOVE RESULT INTO AC
DFKAA PDP-10 KL10 BASIC INSTRUCTION DIAGNOSTIC (1) VER 0,2	MACRO %52(537) 09:34 31-JAN-77 PAGE 27-2
DFKAA2	MAC	25-AUG-75 13:56		TEST OF MOVS INSTRUCTION                                                           SEQ 0375

 17555	040574	312 00 0 00 070465 		CAME	[XWD ZZ,ZZ]	;PASS TEST IF AC CONTAINS ZZ,,ZZ
 17556						STOP		^
 17557	040575	254 04 0 00 040576 		HALT	.+1		;TEST FAILED IF PROGRAM HALTS HERE
 17558	040576	324 00 0 00 040577 		JUMPA	.+1		;IF TEST FAILS, CHANGE THIS INSTRUCTION (JUMPA .+1) TO
 17559									;JUMPA X (X IS THE ADDRESS OF THE FIRST INSTRUCTION
 17560									;IN THE SUBTEST) TO LOOP ON ERROR^
 17561
 17562					;**********
 17563
 17564
 17565					;THIS TEST VERIFIES THAT MOVS SWAPS LEFT AND RIGHT HALVES OF E AND
 17566					;MOVES IT INTO AC.  IN THIS CASE, A 0 IS RIPPLED THRU BOTH HALVES
 17567					;OF E [C(E)=ZZ,,ZZ, WHERE ZZ IS A FLOATING 0].  THEN, C(AC) IS CHECKED.
 17568					;THIS TEST IS REPEATED 18 TIMES TO FLOAT A 0 THRU ALL 18 BITS OF EACH HALF
 17569
 17570			002206		SN=SN+1
 17571		777777	777737			ZZ=ZZ+ZZ+1
 17572						IFE	<ZZ-1>,<ZZ=-2>
 17573	040577	204 00 0 00 070466 		MOVS	[XWD ZZ,ZZ]	;*MOVS SHOULD SWAP HALVES OF C(E)
 17574									;AND MOVE RESULT INTO AC
 17575	040600	312 00 0 00 070466 		CAME	[XWD ZZ,ZZ]	;PASS TEST IF AC CONTAINS ZZ,,ZZ
 17576						STOP		^
 17577	040601	254 04 0 00 040602 		HALT	.+1		;TEST FAILED IF PROGRAM HALTS HERE
 17578	040602	324 00 0 00 040603 		JUMPA	.+1		;IF TEST FAILS, CHANGE THIS INSTRUCTION (JUMPA .+1) TO
 17579									;JUMPA X (X IS THE ADDRESS OF THE FIRST INSTRUCTION
 17580									;IN THE SUBTEST) TO LOOP ON ERROR^
 17581
 17582					;**********
 17583
 17584
 17585					;THIS TEST VERIFIES THAT MOVS SWAPS LEFT AND RIGHT HALVES OF E AND
 17586					;MOVES IT INTO AC.  IN THIS CASE, A 0 IS RIPPLED THRU BOTH HALVES
 17587					;OF E [C(E)=ZZ,,ZZ, WHERE ZZ IS A FLOATING 0].  THEN, C(AC) IS CHECKED.
 17588					;THIS TEST IS REPEATED 18 TIMES TO FLOAT A 0 THRU ALL 18 BITS OF EACH HALF
 17589
 17590			002207		SN=SN+1
 17591		777777	777677			ZZ=ZZ+ZZ+1
 17592						IFE	<ZZ-1>,<ZZ=-2>
 17593	040603	204 00 0 00 070467 		MOVS	[XWD ZZ,ZZ]	;*MOVS SHOULD SWAP HALVES OF C(E)
 17594									;AND MOVE RESULT INTO AC
 17595	040604	312 00 0 00 070467 		CAME	[XWD ZZ,ZZ]	;PASS TEST IF AC CONTAINS ZZ,,ZZ
 17596						STOP		^
 17597	040605	254 04 0 00 040606 		HALT	.+1		;TEST FAILED IF PROGRAM HALTS HERE
 17598	040606	324 00 0 00 040607 		JUMPA	.+1		;IF TEST FAILS, CHANGE THIS INSTRUCTION (JUMPA .+1) TO
 17599									;JUMPA X (X IS THE ADDRESS OF THE FIRST INSTRUCTION
 17600									;IN THE SUBTEST) TO LOOP ON ERROR^
 17601
 17602					;**********
 17603
 17604
 17605					;THIS TEST VERIFIES THAT MOVS SWAPS LEFT AND RIGHT HALVES OF E AND
 17606					;MOVES IT INTO AC.  IN THIS CASE, A 0 IS RIPPLED THRU BOTH HALVES
 17607					;OF E [C(E)=ZZ,,ZZ, WHERE ZZ IS A FLOATING 0].  THEN, C(AC) IS CHECKED.
 17608					;THIS TEST IS REPEATED 18 TIMES TO FLOAT A 0 THRU ALL 18 BITS OF EACH HALF
 17609
DFKAA PDP-10 KL10 BASIC INSTRUCTION DIAGNOSTIC (1) VER 0,2	MACRO %52(537) 09:34 31-JAN-77 PAGE 27-3
DFKAA2	MAC	25-AUG-75 13:56		TEST OF MOVS INSTRUCTION                                                           SEQ 0376

 17610			002210		SN=SN+1
 17611		777777	777577			ZZ=ZZ+ZZ+1
 17612						IFE	<ZZ-1>,<ZZ=-2>
 17613	040607	204 00 0 00 070470 		MOVS	[XWD ZZ,ZZ]	;*MOVS SHOULD SWAP HALVES OF C(E)
 17614									;AND MOVE RESULT INTO AC
 17615	040610	312 00 0 00 070470 		CAME	[XWD ZZ,ZZ]	;PASS TEST IF AC CONTAINS ZZ,,ZZ
 17616						STOP		^
 17617	040611	254 04 0 00 040612 		HALT	.+1		;TEST FAILED IF PROGRAM HALTS HERE
 17618	040612	324 00 0 00 040613 		JUMPA	.+1		;IF TEST FAILS, CHANGE THIS INSTRUCTION (JUMPA .+1) TO
 17619									;JUMPA X (X IS THE ADDRESS OF THE FIRST INSTRUCTION
 17620									;IN THE SUBTEST) TO LOOP ON ERROR^
 17621
 17622					;**********
 17623
 17624
 17625					;THIS TEST VERIFIES THAT MOVS SWAPS LEFT AND RIGHT HALVES OF E AND
 17626					;MOVES IT INTO AC.  IN THIS CASE, A 0 IS RIPPLED THRU BOTH HALVES
 17627					;OF E [C(E)=ZZ,,ZZ, WHERE ZZ IS A FLOATING 0].  THEN, C(AC) IS CHECKED.
 17628					;THIS TEST IS REPEATED 18 TIMES TO FLOAT A 0 THRU ALL 18 BITS OF EACH HALF
 17629
 17630			002211		SN=SN+1
 17631		777777	777377			ZZ=ZZ+ZZ+1
 17632						IFE	<ZZ-1>,<ZZ=-2>
 17633	040613	204 00 0 00 070471 		MOVS	[XWD ZZ,ZZ]	;*MOVS SHOULD SWAP HALVES OF C(E)
 17634									;AND MOVE RESULT INTO AC
 17635	040614	312 00 0 00 070471 		CAME	[XWD ZZ,ZZ]	;PASS TEST IF AC CONTAINS ZZ,,ZZ
 17636						STOP		^
 17637	040615	254 04 0 00 040616 		HALT	.+1		;TEST FAILED IF PROGRAM HALTS HERE
 17638	040616	324 00 0 00 040617 		JUMPA	.+1		;IF TEST FAILS, CHANGE THIS INSTRUCTION (JUMPA .+1) TO
 17639									;JUMPA X (X IS THE ADDRESS OF THE FIRST INSTRUCTION
 17640									;IN THE SUBTEST) TO LOOP ON ERROR^
 17641
 17642					;**********
 17643
 17644
 17645					;THIS TEST VERIFIES THAT MOVS SWAPS LEFT AND RIGHT HALVES OF E AND
 17646					;MOVES IT INTO AC.  IN THIS CASE, A 0 IS RIPPLED THRU BOTH HALVES
 17647					;OF E [C(E)=ZZ,,ZZ, WHERE ZZ IS A FLOATING 0].  THEN, C(AC) IS CHECKED.
 17648					;THIS TEST IS REPEATED 18 TIMES TO FLOAT A 0 THRU ALL 18 BITS OF EACH HALF
 17649
 17650			002212		SN=SN+1
 17651		777777	776777			ZZ=ZZ+ZZ+1
 17652						IFE	<ZZ-1>,<ZZ=-2>
 17653	040617	204 00 0 00 070472 		MOVS	[XWD ZZ,ZZ]	;*MOVS SHOULD SWAP HALVES OF C(E)
 17654									;AND MOVE RESULT INTO AC
 17655	040620	312 00 0 00 070472 		CAME	[XWD ZZ,ZZ]	;PASS TEST IF AC CONTAINS ZZ,,ZZ
 17656						STOP		^
 17657	040621	254 04 0 00 040622 		HALT	.+1		;TEST FAILED IF PROGRAM HALTS HERE
 17658	040622	324 00 0 00 040623 		JUMPA	.+1		;IF TEST FAILS, CHANGE THIS INSTRUCTION (JUMPA .+1) TO
 17659									;JUMPA X (X IS THE ADDRESS OF THE FIRST INSTRUCTION
 17660									;IN THE SUBTEST) TO LOOP ON ERROR^
 17661
 17662					;**********
 17663
 17664
DFKAA PDP-10 KL10 BASIC INSTRUCTION DIAGNOSTIC (1) VER 0,2	MACRO %52(537) 09:34 31-JAN-77 PAGE 27-4
DFKAA2	MAC	25-AUG-75 13:56		TEST OF MOVS INSTRUCTION                                                           SEQ 0377

 17665					;THIS TEST VERIFIES THAT MOVS SWAPS LEFT AND RIGHT HALVES OF E AND
 17666					;MOVES IT INTO AC.  IN THIS CASE, A 0 IS RIPPLED THRU BOTH HALVES
 17667					;OF E [C(E)=ZZ,,ZZ, WHERE ZZ IS A FLOATING 0].  THEN, C(AC) IS CHECKED.
 17668					;THIS TEST IS REPEATED 18 TIMES TO FLOAT A 0 THRU ALL 18 BITS OF EACH HALF
 17669
 17670			002213		SN=SN+1
 17671		777777	775777			ZZ=ZZ+ZZ+1
 17672						IFE	<ZZ-1>,<ZZ=-2>
 17673	040623	204 00 0 00 070473 		MOVS	[XWD ZZ,ZZ]	;*MOVS SHOULD SWAP HALVES OF C(E)
 17674									;AND MOVE RESULT INTO AC
 17675	040624	312 00 0 00 070473 		CAME	[XWD ZZ,ZZ]	;PASS TEST IF AC CONTAINS ZZ,,ZZ
 17676						STOP		^
 17677	040625	254 04 0 00 040626 		HALT	.+1		;TEST FAILED IF PROGRAM HALTS HERE
 17678	040626	324 00 0 00 040627 		JUMPA	.+1		;IF TEST FAILS, CHANGE THIS INSTRUCTION (JUMPA .+1) TO
 17679									;JUMPA X (X IS THE ADDRESS OF THE FIRST INSTRUCTION
 17680									;IN THE SUBTEST) TO LOOP ON ERROR^
 17681
 17682					;**********
 17683
 17684
 17685					;THIS TEST VERIFIES THAT MOVS SWAPS LEFT AND RIGHT HALVES OF E AND
 17686					;MOVES IT INTO AC.  IN THIS CASE, A 0 IS RIPPLED THRU BOTH HALVES
 17687					;OF E [C(E)=ZZ,,ZZ, WHERE ZZ IS A FLOATING 0].  THEN, C(AC) IS CHECKED.
 17688					;THIS TEST IS REPEATED 18 TIMES TO FLOAT A 0 THRU ALL 18 BITS OF EACH HALF
 17689
 17690			002214		SN=SN+1
 17691		777777	773777			ZZ=ZZ+ZZ+1
 17692						IFE	<ZZ-1>,<ZZ=-2>
 17693	040627	204 00 0 00 070474 		MOVS	[XWD ZZ,ZZ]	;*MOVS SHOULD SWAP HALVES OF C(E)
 17694									;AND MOVE RESULT INTO AC
 17695	040630	312 00 0 00 070474 		CAME	[XWD ZZ,ZZ]	;PASS TEST IF AC CONTAINS ZZ,,ZZ
 17696						STOP		^
 17697	040631	254 04 0 00 040632 		HALT	.+1		;TEST FAILED IF PROGRAM HALTS HERE
 17698	040632	324 00 0 00 040633 		JUMPA	.+1		;IF TEST FAILS, CHANGE THIS INSTRUCTION (JUMPA .+1) TO
 17699									;JUMPA X (X IS THE ADDRESS OF THE FIRST INSTRUCTION
 17700									;IN THE SUBTEST) TO LOOP ON ERROR^
 17701
 17702					;**********
 17703
 17704
 17705					;THIS TEST VERIFIES THAT MOVS SWAPS LEFT AND RIGHT HALVES OF E AND
 17706					;MOVES IT INTO AC.  IN THIS CASE, A 0 IS RIPPLED THRU BOTH HALVES
 17707					;OF E [C(E)=ZZ,,ZZ, WHERE ZZ IS A FLOATING 0].  THEN, C(AC) IS CHECKED.
 17708					;THIS TEST IS REPEATED 18 TIMES TO FLOAT A 0 THRU ALL 18 BITS OF EACH HALF
 17709
 17710			002215		SN=SN+1
 17711		777777	767777			ZZ=ZZ+ZZ+1
 17712						IFE	<ZZ-1>,<ZZ=-2>
 17713	040633	204 00 0 00 070475 		MOVS	[XWD ZZ,ZZ]	;*MOVS SHOULD SWAP HALVES OF C(E)
 17714									;AND MOVE RESULT INTO AC
 17715	040634	312 00 0 00 070475 		CAME	[XWD ZZ,ZZ]	;PASS TEST IF AC CONTAINS ZZ,,ZZ
 17716						STOP		^
 17717	040635	254 04 0 00 040636 		HALT	.+1		;TEST FAILED IF PROGRAM HALTS HERE
 17718	040636	324 00 0 00 040637 		JUMPA	.+1		;IF TEST FAILS, CHANGE THIS INSTRUCTION (JUMPA .+1) TO
 17719									;JUMPA X (X IS THE ADDRESS OF THE FIRST INSTRUCTION
DFKAA PDP-10 KL10 BASIC INSTRUCTION DIAGNOSTIC (1) VER 0,2	MACRO %52(537) 09:34 31-JAN-77 PAGE 27-5
DFKAA2	MAC	25-AUG-75 13:56		TEST OF MOVS INSTRUCTION                                                           SEQ 0378

 17720									;IN THE SUBTEST) TO LOOP ON ERROR^
 17721
 17722					;**********
 17723
 17724
 17725					;THIS TEST VERIFIES THAT MOVS SWAPS LEFT AND RIGHT HALVES OF E AND
 17726					;MOVES IT INTO AC.  IN THIS CASE, A 0 IS RIPPLED THRU BOTH HALVES
 17727					;OF E [C(E)=ZZ,,ZZ, WHERE ZZ IS A FLOATING 0].  THEN, C(AC) IS CHECKED.
 17728					;THIS TEST IS REPEATED 18 TIMES TO FLOAT A 0 THRU ALL 18 BITS OF EACH HALF
 17729
 17730			002216		SN=SN+1
 17731		777777	757777			ZZ=ZZ+ZZ+1
 17732						IFE	<ZZ-1>,<ZZ=-2>
 17733	040637	204 00 0 00 070476 		MOVS	[XWD ZZ,ZZ]	;*MOVS SHOULD SWAP HALVES OF C(E)
 17734									;AND MOVE RESULT INTO AC
 17735	040640	312 00 0 00 070476 		CAME	[XWD ZZ,ZZ]	;PASS TEST IF AC CONTAINS ZZ,,ZZ
 17736						STOP		^
 17737	040641	254 04 0 00 040642 		HALT	.+1		;TEST FAILED IF PROGRAM HALTS HERE
 17738	040642	324 00 0 00 040643 		JUMPA	.+1		;IF TEST FAILS, CHANGE THIS INSTRUCTION (JUMPA .+1) TO
 17739									;JUMPA X (X IS THE ADDRESS OF THE FIRST INSTRUCTION
 17740									;IN THE SUBTEST) TO LOOP ON ERROR^
 17741
 17742					;**********
 17743
 17744
 17745					;THIS TEST VERIFIES THAT MOVS SWAPS LEFT AND RIGHT HALVES OF E AND
 17746					;MOVES IT INTO AC.  IN THIS CASE, A 0 IS RIPPLED THRU BOTH HALVES
 17747					;OF E [C(E)=ZZ,,ZZ, WHERE ZZ IS A FLOATING 0].  THEN, C(AC) IS CHECKED.
 17748					;THIS TEST IS REPEATED 18 TIMES TO FLOAT A 0 THRU ALL 18 BITS OF EACH HALF
 17749
 17750			002217		SN=SN+1
 17751		777777	737777			ZZ=ZZ+ZZ+1
 17752						IFE	<ZZ-1>,<ZZ=-2>
 17753	040643	204 00 0 00 070477 		MOVS	[XWD ZZ,ZZ]	;*MOVS SHOULD SWAP HALVES OF C(E)
 17754									;AND MOVE RESULT INTO AC
 17755	040644	312 00 0 00 070477 		CAME	[XWD ZZ,ZZ]	;PASS TEST IF AC CONTAINS ZZ,,ZZ
 17756						STOP		^
 17757	040645	254 04 0 00 040646 		HALT	.+1		;TEST FAILED IF PROGRAM HALTS HERE
 17758	040646	324 00 0 00 040647 		JUMPA	.+1		;IF TEST FAILS, CHANGE THIS INSTRUCTION (JUMPA .+1) TO
 17759									;JUMPA X (X IS THE ADDRESS OF THE FIRST INSTRUCTION
 17760									;IN THE SUBTEST) TO LOOP ON ERROR^
 17761
 17762					;**********
 17763
 17764
 17765					;THIS TEST VERIFIES THAT MOVS SWAPS LEFT AND RIGHT HALVES OF E AND
 17766					;MOVES IT INTO AC.  IN THIS CASE, A 0 IS RIPPLED THRU BOTH HALVES
 17767					;OF E [C(E)=ZZ,,ZZ, WHERE ZZ IS A FLOATING 0].  THEN, C(AC) IS CHECKED.
 17768					;THIS TEST IS REPEATED 18 TIMES TO FLOAT A 0 THRU ALL 18 BITS OF EACH HALF
 17769
 17770			002220		SN=SN+1
 17771		777777	677777			ZZ=ZZ+ZZ+1
 17772						IFE	<ZZ-1>,<ZZ=-2>
 17773	040647	204 00 0 00 070500 		MOVS	[XWD ZZ,ZZ]	;*MOVS SHOULD SWAP HALVES OF C(E)
 17774									;AND MOVE RESULT INTO AC
DFKAA PDP-10 KL10 BASIC INSTRUCTION DIAGNOSTIC (1) VER 0,2	MACRO %52(537) 09:34 31-JAN-77 PAGE 27-6
DFKAA2	MAC	25-AUG-75 13:56		TEST OF MOVS INSTRUCTION                                                           SEQ 0379

 17775	040650	312 00 0 00 070500 		CAME	[XWD ZZ,ZZ]	;PASS TEST IF AC CONTAINS ZZ,,ZZ
 17776						STOP		^
 17777	040651	254 04 0 00 040652 		HALT	.+1		;TEST FAILED IF PROGRAM HALTS HERE
 17778	040652	324 00 0 00 040653 		JUMPA	.+1		;IF TEST FAILS, CHANGE THIS INSTRUCTION (JUMPA .+1) TO
 17779									;JUMPA X (X IS THE ADDRESS OF THE FIRST INSTRUCTION
 17780									;IN THE SUBTEST) TO LOOP ON ERROR^
 17781
 17782					;**********
 17783
 17784
 17785					;THIS TEST VERIFIES THAT MOVS SWAPS LEFT AND RIGHT HALVES OF E AND
 17786					;MOVES IT INTO AC.  IN THIS CASE, A 0 IS RIPPLED THRU BOTH HALVES
 17787					;OF E [C(E)=ZZ,,ZZ, WHERE ZZ IS A FLOATING 0].  THEN, C(AC) IS CHECKED.
 17788					;THIS TEST IS REPEATED 18 TIMES TO FLOAT A 0 THRU ALL 18 BITS OF EACH HALF
 17789
 17790			002221		SN=SN+1
 17791		777777	577777			ZZ=ZZ+ZZ+1
 17792						IFE	<ZZ-1>,<ZZ=-2>
 17793	040653	204 00 0 00 070501 		MOVS	[XWD ZZ,ZZ]	;*MOVS SHOULD SWAP HALVES OF C(E)
 17794									;AND MOVE RESULT INTO AC
 17795	040654	312 00 0 00 070501 		CAME	[XWD ZZ,ZZ]	;PASS TEST IF AC CONTAINS ZZ,,ZZ
 17796						STOP		^
 17797	040655	254 04 0 00 040656 		HALT	.+1		;TEST FAILED IF PROGRAM HALTS HERE
 17798	040656	324 00 0 00 040657 		JUMPA	.+1		;IF TEST FAILS, CHANGE THIS INSTRUCTION (JUMPA .+1) TO
 17799									;JUMPA X (X IS THE ADDRESS OF THE FIRST INSTRUCTION
 17800									;IN THE SUBTEST) TO LOOP ON ERROR^
 17801
 17802					;**********
 17803
 17804
 17805					;THIS TEST VERIFIES THAT MOVS SWAPS LEFT AND RIGHT HALVES OF E AND
 17806					;MOVES IT INTO AC.  IN THIS CASE, A 0 IS RIPPLED THRU BOTH HALVES
 17807					;OF E [C(E)=ZZ,,ZZ, WHERE ZZ IS A FLOATING 0].  THEN, C(AC) IS CHECKED.
 17808					;THIS TEST IS REPEATED 18 TIMES TO FLOAT A 0 THRU ALL 18 BITS OF EACH HALF
 17809
 17810			002222		SN=SN+1
 17811		777777	377777			ZZ=ZZ+ZZ+1
 17812						IFE	<ZZ-1>,<ZZ=-2>
 17813	040657	204 00 0 00 070502 		MOVS	[XWD ZZ,ZZ]	;*MOVS SHOULD SWAP HALVES OF C(E)
 17814									;AND MOVE RESULT INTO AC
 17815	040660	312 00 0 00 070502 		CAME	[XWD ZZ,ZZ]	;PASS TEST IF AC CONTAINS ZZ,,ZZ
 17816						STOP		^
 17817	040661	254 04 0 00 040662 		HALT	.+1		;TEST FAILED IF PROGRAM HALTS HERE
 17818	040662	324 00 0 00 040663 		JUMPA	.+1		;IF TEST FAILS, CHANGE THIS INSTRUCTION (JUMPA .+1) TO
 17819									;JUMPA X (X IS THE ADDRESS OF THE FIRST INSTRUCTION
 17820									;IN THE SUBTEST) TO LOOP ON ERROR^
 17821
 17822					;**********
 17823
DFKAA PDP-10 KL10 BASIC INSTRUCTION DIAGNOSTIC (1) VER 0,2	MACRO %52(537) 09:34 31-JAN-77 PAGE 28
DFKAA2	MAC	25-AUG-75 13:56		TEST OF MOVS INSTRUCTION                                                           SEQ 0380

 17824			002300		SN=2300
 17825			000000			ZZ=0
 17826			000000			YY=0
 17827
 17828					B2300:	REPEAT	^D18,<
 17829					;THIS TEST VERIFIES THAT MOVS SWAPS LEFT AND RIGHT HALVES OF E AND
 17830					;MOVES IT INTO AC.  IN THIS CASE, A 1 IS RIPPLED THRU THE LEFT HALF OF E
 17831					;AND A 0 IS RIPPLED THRU THE RIGHT HALF
 17832					;OF E [C(E)=ZZ,,YY, WHERE ZZ IS A FLOATING 1 AND YY IS A FLOATING 0].
 17833					;THEN, C(AC) IS CHECKED.
 17834					;THIS TEST IS REPEATED 18 TIMES TO FLOAT A 1 THRU ALL 18 BITS OF
 17835					;THE LEFT HALF AND A 0 THRU ALL 18 BITS OF THE RIGHT HALF OF E
 17836
 17837					SN=SN+1
 17838						ZZ=ZZ+ZZ
 17839						YY=YY+YY+1
 17840						IFE	ZZ,<ZZ=1>
 17841						IFE	<YY-1>,<YY=-2>
 17842						MOVS	[XWD ZZ,YY]	;*MOVS SHOULD SWAP HALVES OF C(E)
 17843									;AND MOVE RESULT INTO AC
 17844						CAME	[XWD YY,ZZ]	;PASS TEST IF AC CONTAINS YY,,ZZ
 17845						STOP
 17846
 17847					;**********
 17848					>
 17849
 17850					;THIS TEST VERIFIES THAT MOVS SWAPS LEFT AND RIGHT HALVES OF E AND
 17851					;MOVES IT INTO AC.  IN THIS CASE, A 1 IS RIPPLED THRU THE LEFT HALF OF E
 17852					;AND A 0 IS RIPPLED THRU THE RIGHT HALF
 17853					;OF E [C(E)=ZZ,,YY, WHERE ZZ IS A FLOATING 1 AND YY IS A FLOATING 0].
 17854					;THEN, C(AC) IS CHECKED.
 17855					;THIS TEST IS REPEATED 18 TIMES TO FLOAT A 1 THRU ALL 18 BITS OF
 17856					;THE LEFT HALF AND A 0 THRU ALL 18 BITS OF THE RIGHT HALF OF E
 17857
 17858			002301		SN=SN+1
 17859			000000			ZZ=ZZ+ZZ
 17860			000001			YY=YY+YY+1
 17861			000001			IFE	ZZ,<ZZ=1>
 17862		777777	777776			IFE	<YY-1>,<YY=-2>
 17863	040663	204 00 0 00 070503 		MOVS	[XWD ZZ,YY]	;*MOVS SHOULD SWAP HALVES OF C(E)
 17864									;AND MOVE RESULT INTO AC
 17865	040664	312 00 0 00 070504 		CAME	[XWD YY,ZZ]	;PASS TEST IF AC CONTAINS YY,,ZZ
 17866						STOP		^
 17867	040665	254 04 0 00 040666 		HALT	.+1		;TEST FAILED IF PROGRAM HALTS HERE
 17868	040666	324 00 0 00 040667 		JUMPA	.+1		;IF TEST FAILS, CHANGE THIS INSTRUCTION (JUMPA .+1) TO
 17869									;JUMPA X (X IS THE ADDRESS OF THE FIRST INSTRUCTION
 17870									;IN THE SUBTEST) TO LOOP ON ERROR^
 17871
 17872					;**********
 17873
 17874
 17875					;THIS TEST VERIFIES THAT MOVS SWAPS LEFT AND RIGHT HALVES OF E AND
 17876					;MOVES IT INTO AC.  IN THIS CASE, A 1 IS RIPPLED THRU THE LEFT HALF OF E
 17877					;AND A 0 IS RIPPLED THRU THE RIGHT HALF
 17878					;OF E [C(E)=ZZ,,YY, WHERE ZZ IS A FLOATING 1 AND YY IS A FLOATING 0].
DFKAA PDP-10 KL10 BASIC INSTRUCTION DIAGNOSTIC (1) VER 0,2	MACRO %52(537) 09:34 31-JAN-77 PAGE 28-1
DFKAA2	MAC	25-AUG-75 13:56		TEST OF MOVS INSTRUCTION                                                           SEQ 0381

 17879					;THEN, C(AC) IS CHECKED.
 17880					;THIS TEST IS REPEATED 18 TIMES TO FLOAT A 1 THRU ALL 18 BITS OF
 17881					;THE LEFT HALF AND A 0 THRU ALL 18 BITS OF THE RIGHT HALF OF E
 17882
 17883			002302		SN=SN+1
 17884			000002			ZZ=ZZ+ZZ
 17885		777777	777775			YY=YY+YY+1
 17886						IFE	ZZ,<ZZ=1>
 17887						IFE	<YY-1>,<YY=-2>
 17888	040667	204 00 0 00 070505 		MOVS	[XWD ZZ,YY]	;*MOVS SHOULD SWAP HALVES OF C(E)
 17889									;AND MOVE RESULT INTO AC
 17890	040670	312 00 0 00 070506 		CAME	[XWD YY,ZZ]	;PASS TEST IF AC CONTAINS YY,,ZZ
 17891						STOP		^
 17892	040671	254 04 0 00 040672 		HALT	.+1		;TEST FAILED IF PROGRAM HALTS HERE
 17893	040672	324 00 0 00 040673 		JUMPA	.+1		;IF TEST FAILS, CHANGE THIS INSTRUCTION (JUMPA .+1) TO
 17894									;JUMPA X (X IS THE ADDRESS OF THE FIRST INSTRUCTION
 17895									;IN THE SUBTEST) TO LOOP ON ERROR^
 17896
 17897					;**********
 17898
 17899
 17900					;THIS TEST VERIFIES THAT MOVS SWAPS LEFT AND RIGHT HALVES OF E AND
 17901					;MOVES IT INTO AC.  IN THIS CASE, A 1 IS RIPPLED THRU THE LEFT HALF OF E
 17902					;AND A 0 IS RIPPLED THRU THE RIGHT HALF
 17903					;OF E [C(E)=ZZ,,YY, WHERE ZZ IS A FLOATING 1 AND YY IS A FLOATING 0].
 17904					;THEN, C(AC) IS CHECKED.
 17905					;THIS TEST IS REPEATED 18 TIMES TO FLOAT A 1 THRU ALL 18 BITS OF
 17906					;THE LEFT HALF AND A 0 THRU ALL 18 BITS OF THE RIGHT HALF OF E
 17907
 17908			002303		SN=SN+1
 17909			000004			ZZ=ZZ+ZZ
 17910		777777	777773			YY=YY+YY+1
 17911						IFE	ZZ,<ZZ=1>
 17912						IFE	<YY-1>,<YY=-2>
 17913	040673	204 00 0 00 070507 		MOVS	[XWD ZZ,YY]	;*MOVS SHOULD SWAP HALVES OF C(E)
 17914									;AND MOVE RESULT INTO AC
 17915	040674	312 00 0 00 070510 		CAME	[XWD YY,ZZ]	;PASS TEST IF AC CONTAINS YY,,ZZ
 17916						STOP		^
 17917	040675	254 04 0 00 040676 		HALT	.+1		;TEST FAILED IF PROGRAM HALTS HERE
 17918	040676	324 00 0 00 040677 		JUMPA	.+1		;IF TEST FAILS, CHANGE THIS INSTRUCTION (JUMPA .+1) TO
 17919									;JUMPA X (X IS THE ADDRESS OF THE FIRST INSTRUCTION
 17920									;IN THE SUBTEST) TO LOOP ON ERROR^
 17921
 17922					;**********
 17923
 17924
 17925					;THIS TEST VERIFIES THAT MOVS SWAPS LEFT AND RIGHT HALVES OF E AND
 17926					;MOVES IT INTO AC.  IN THIS CASE, A 1 IS RIPPLED THRU THE LEFT HALF OF E
 17927					;AND A 0 IS RIPPLED THRU THE RIGHT HALF
 17928					;OF E [C(E)=ZZ,,YY, WHERE ZZ IS A FLOATING 1 AND YY IS A FLOATING 0].
 17929					;THEN, C(AC) IS CHECKED.
 17930					;THIS TEST IS REPEATED 18 TIMES TO FLOAT A 1 THRU ALL 18 BITS OF
 17931					;THE LEFT HALF AND A 0 THRU ALL 18 BITS OF THE RIGHT HALF OF E
 17932
 17933			002304		SN=SN+1
DFKAA PDP-10 KL10 BASIC INSTRUCTION DIAGNOSTIC (1) VER 0,2	MACRO %52(537) 09:34 31-JAN-77 PAGE 28-2
DFKAA2	MAC	25-AUG-75 13:56		TEST OF MOVS INSTRUCTION                                                           SEQ 0382

 17934			000010			ZZ=ZZ+ZZ
 17935		777777	777767			YY=YY+YY+1
 17936						IFE	ZZ,<ZZ=1>
 17937						IFE	<YY-1>,<YY=-2>
 17938	040677	204 00 0 00 070511 		MOVS	[XWD ZZ,YY]	;*MOVS SHOULD SWAP HALVES OF C(E)
 17939									;AND MOVE RESULT INTO AC
 17940	040700	312 00 0 00 070512 		CAME	[XWD YY,ZZ]	;PASS TEST IF AC CONTAINS YY,,ZZ
 17941						STOP		^
 17942	040701	254 04 0 00 040702 		HALT	.+1		;TEST FAILED IF PROGRAM HALTS HERE
 17943	040702	324 00 0 00 040703 		JUMPA	.+1		;IF TEST FAILS, CHANGE THIS INSTRUCTION (JUMPA .+1) TO
 17944									;JUMPA X (X IS THE ADDRESS OF THE FIRST INSTRUCTION
 17945									;IN THE SUBTEST) TO LOOP ON ERROR^
 17946
 17947					;**********
 17948
 17949
 17950					;THIS TEST VERIFIES THAT MOVS SWAPS LEFT AND RIGHT HALVES OF E AND
 17951					;MOVES IT INTO AC.  IN THIS CASE, A 1 IS RIPPLED THRU THE LEFT HALF OF E
 17952					;AND A 0 IS RIPPLED THRU THE RIGHT HALF
 17953					;OF E [C(E)=ZZ,,YY, WHERE ZZ IS A FLOATING 1 AND YY IS A FLOATING 0].
 17954					;THEN, C(AC) IS CHECKED.
 17955					;THIS TEST IS REPEATED 18 TIMES TO FLOAT A 1 THRU ALL 18 BITS OF
 17956					;THE LEFT HALF AND A 0 THRU ALL 18 BITS OF THE RIGHT HALF OF E
 17957
 17958			002305		SN=SN+1
 17959			000020			ZZ=ZZ+ZZ
 17960		777777	777757			YY=YY+YY+1
 17961						IFE	ZZ,<ZZ=1>
 17962						IFE	<YY-1>,<YY=-2>
 17963	040703	204 00 0 00 070513 		MOVS	[XWD ZZ,YY]	;*MOVS SHOULD SWAP HALVES OF C(E)
 17964									;AND MOVE RESULT INTO AC
 17965	040704	312 00 0 00 070514 		CAME	[XWD YY,ZZ]	;PASS TEST IF AC CONTAINS YY,,ZZ
 17966						STOP		^
 17967	040705	254 04 0 00 040706 		HALT	.+1		;TEST FAILED IF PROGRAM HALTS HERE
 17968	040706	324 00 0 00 040707 		JUMPA	.+1		;IF TEST FAILS, CHANGE THIS INSTRUCTION (JUMPA .+1) TO
 17969									;JUMPA X (X IS THE ADDRESS OF THE FIRST INSTRUCTION
 17970									;IN THE SUBTEST) TO LOOP ON ERROR^
 17971
 17972					;**********
 17973
 17974
 17975					;THIS TEST VERIFIES THAT MOVS SWAPS LEFT AND RIGHT HALVES OF E AND
 17976					;MOVES IT INTO AC.  IN THIS CASE, A 1 IS RIPPLED THRU THE LEFT HALF OF E
 17977					;AND A 0 IS RIPPLED THRU THE RIGHT HALF
 17978					;OF E [C(E)=ZZ,,YY, WHERE ZZ IS A FLOATING 1 AND YY IS A FLOATING 0].
 17979					;THEN, C(AC) IS CHECKED.
 17980					;THIS TEST IS REPEATED 18 TIMES TO FLOAT A 1 THRU ALL 18 BITS OF
 17981					;THE LEFT HALF AND A 0 THRU ALL 18 BITS OF THE RIGHT HALF OF E
 17982
 17983			002306		SN=SN+1
 17984			000040			ZZ=ZZ+ZZ
 17985		777777	777737			YY=YY+YY+1
 17986						IFE	ZZ,<ZZ=1>
 17987						IFE	<YY-1>,<YY=-2>
 17988	040707	204 00 0 00 070515 		MOVS	[XWD ZZ,YY]	;*MOVS SHOULD SWAP HALVES OF C(E)
DFKAA PDP-10 KL10 BASIC INSTRUCTION DIAGNOSTIC (1) VER 0,2	MACRO %52(537) 09:34 31-JAN-77 PAGE 28-3
DFKAA2	MAC	25-AUG-75 13:56		TEST OF MOVS INSTRUCTION                                                           SEQ 0383

 17989									;AND MOVE RESULT INTO AC
 17990	040710	312 00 0 00 070516 		CAME	[XWD YY,ZZ]	;PASS TEST IF AC CONTAINS YY,,ZZ
 17991						STOP		^
 17992	040711	254 04 0 00 040712 		HALT	.+1		;TEST FAILED IF PROGRAM HALTS HERE
 17993	040712	324 00 0 00 040713 		JUMPA	.+1		;IF TEST FAILS, CHANGE THIS INSTRUCTION (JUMPA .+1) TO
 17994									;JUMPA X (X IS THE ADDRESS OF THE FIRST INSTRUCTION
 17995									;IN THE SUBTEST) TO LOOP ON ERROR^
 17996
 17997					;**********
 17998
 17999
 18000					;THIS TEST VERIFIES THAT MOVS SWAPS LEFT AND RIGHT HALVES OF E AND
 18001					;MOVES IT INTO AC.  IN THIS CASE, A 1 IS RIPPLED THRU THE LEFT HALF OF E
 18002					;AND A 0 IS RIPPLED THRU THE RIGHT HALF
 18003					;OF E [C(E)=ZZ,,YY, WHERE ZZ IS A FLOATING 1 AND YY IS A FLOATING 0].
 18004					;THEN, C(AC) IS CHECKED.
 18005					;THIS TEST IS REPEATED 18 TIMES TO FLOAT A 1 THRU ALL 18 BITS OF
 18006					;THE LEFT HALF AND A 0 THRU ALL 18 BITS OF THE RIGHT HALF OF E
 18007
 18008			002307		SN=SN+1
 18009			000100			ZZ=ZZ+ZZ
 18010		777777	777677			YY=YY+YY+1
 18011						IFE	ZZ,<ZZ=1>
 18012						IFE	<YY-1>,<YY=-2>
 18013	040713	204 00 0 00 070517 		MOVS	[XWD ZZ,YY]	;*MOVS SHOULD SWAP HALVES OF C(E)
 18014									;AND MOVE RESULT INTO AC
 18015	040714	312 00 0 00 070520 		CAME	[XWD YY,ZZ]	;PASS TEST IF AC CONTAINS YY,,ZZ
 18016						STOP		^
 18017	040715	254 04 0 00 040716 		HALT	.+1		;TEST FAILED IF PROGRAM HALTS HERE
 18018	040716	324 00 0 00 040717 		JUMPA	.+1		;IF TEST FAILS, CHANGE THIS INSTRUCTION (JUMPA .+1) TO
 18019									;JUMPA X (X IS THE ADDRESS OF THE FIRST INSTRUCTION
 18020									;IN THE SUBTEST) TO LOOP ON ERROR^
 18021
 18022					;**********
 18023
 18024
 18025					;THIS TEST VERIFIES THAT MOVS SWAPS LEFT AND RIGHT HALVES OF E AND
 18026					;MOVES IT INTO AC.  IN THIS CASE, A 1 IS RIPPLED THRU THE LEFT HALF OF E
 18027					;AND A 0 IS RIPPLED THRU THE RIGHT HALF
 18028					;OF E [C(E)=ZZ,,YY, WHERE ZZ IS A FLOATING 1 AND YY IS A FLOATING 0].
 18029					;THEN, C(AC) IS CHECKED.
 18030					;THIS TEST IS REPEATED 18 TIMES TO FLOAT A 1 THRU ALL 18 BITS OF
 18031					;THE LEFT HALF AND A 0 THRU ALL 18 BITS OF THE RIGHT HALF OF E
 18032
 18033			002310		SN=SN+1
 18034			000200			ZZ=ZZ+ZZ
 18035		777777	777577			YY=YY+YY+1
 18036						IFE	ZZ,<ZZ=1>
 18037						IFE	<YY-1>,<YY=-2>
 18038	040717	204 00 0 00 070521 		MOVS	[XWD ZZ,YY]	;*MOVS SHOULD SWAP HALVES OF C(E)
 18039									;AND MOVE RESULT INTO AC
 18040	040720	312 00 0 00 070522 		CAME	[XWD YY,ZZ]	;PASS TEST IF AC CONTAINS YY,,ZZ
 18041						STOP		^
 18042	040721	254 04 0 00 040722 		HALT	.+1		;TEST FAILED IF PROGRAM HALTS HERE
 18043	040722	324 00 0 00 040723 		JUMPA	.+1		;IF TEST FAILS, CHANGE THIS INSTRUCTION (JUMPA .+1) TO
DFKAA PDP-10 KL10 BASIC INSTRUCTION DIAGNOSTIC (1) VER 0,2	MACRO %52(537) 09:34 31-JAN-77 PAGE 28-4
DFKAA2	MAC	25-AUG-75 13:56		TEST OF MOVS INSTRUCTION                                                           SEQ 0384

 18044									;JUMPA X (X IS THE ADDRESS OF THE FIRST INSTRUCTION
 18045									;IN THE SUBTEST) TO LOOP ON ERROR^
 18046
 18047					;**********
 18048
 18049
 18050					;THIS TEST VERIFIES THAT MOVS SWAPS LEFT AND RIGHT HALVES OF E AND
 18051					;MOVES IT INTO AC.  IN THIS CASE, A 1 IS RIPPLED THRU THE LEFT HALF OF E
 18052					;AND A 0 IS RIPPLED THRU THE RIGHT HALF
 18053					;OF E [C(E)=ZZ,,YY, WHERE ZZ IS A FLOATING 1 AND YY IS A FLOATING 0].
 18054					;THEN, C(AC) IS CHECKED.
 18055					;THIS TEST IS REPEATED 18 TIMES TO FLOAT A 1 THRU ALL 18 BITS OF
 18056					;THE LEFT HALF AND A 0 THRU ALL 18 BITS OF THE RIGHT HALF OF E
 18057
 18058			002311		SN=SN+1
 18059			000400			ZZ=ZZ+ZZ
 18060		777777	777377			YY=YY+YY+1
 18061						IFE	ZZ,<ZZ=1>
 18062						IFE	<YY-1>,<YY=-2>
 18063	040723	204 00 0 00 070523 		MOVS	[XWD ZZ,YY]	;*MOVS SHOULD SWAP HALVES OF C(E)
 18064									;AND MOVE RESULT INTO AC
 18065	040724	312 00 0 00 070524 		CAME	[XWD YY,ZZ]	;PASS TEST IF AC CONTAINS YY,,ZZ
 18066						STOP		^
 18067	040725	254 04 0 00 040726 		HALT	.+1		;TEST FAILED IF PROGRAM HALTS HERE
 18068	040726	324 00 0 00 040727 		JUMPA	.+1		;IF TEST FAILS, CHANGE THIS INSTRUCTION (JUMPA .+1) TO
 18069									;JUMPA X (X IS THE ADDRESS OF THE FIRST INSTRUCTION
 18070									;IN THE SUBTEST) TO LOOP ON ERROR^
 18071
 18072					;**********
 18073
 18074
 18075					;THIS TEST VERIFIES THAT MOVS SWAPS LEFT AND RIGHT HALVES OF E AND
 18076					;MOVES IT INTO AC.  IN THIS CASE, A 1 IS RIPPLED THRU THE LEFT HALF OF E
 18077					;AND A 0 IS RIPPLED THRU THE RIGHT HALF
 18078					;OF E [C(E)=ZZ,,YY, WHERE ZZ IS A FLOATING 1 AND YY IS A FLOATING 0].
 18079					;THEN, C(AC) IS CHECKED.
 18080					;THIS TEST IS REPEATED 18 TIMES TO FLOAT A 1 THRU ALL 18 BITS OF
 18081					;THE LEFT HALF AND A 0 THRU ALL 18 BITS OF THE RIGHT HALF OF E
 18082
 18083			002312		SN=SN+1
 18084			001000			ZZ=ZZ+ZZ
 18085		777777	776777			YY=YY+YY+1
 18086						IFE	ZZ,<ZZ=1>
 18087						IFE	<YY-1>,<YY=-2>
 18088	040727	204 00 0 00 070525 		MOVS	[XWD ZZ,YY]	;*MOVS SHOULD SWAP HALVES OF C(E)
 18089									;AND MOVE RESULT INTO AC
 18090	040730	312 00 0 00 070526 		CAME	[XWD YY,ZZ]	;PASS TEST IF AC CONTAINS YY,,ZZ
 18091						STOP		^
 18092	040731	254 04 0 00 040732 		HALT	.+1		;TEST FAILED IF PROGRAM HALTS HERE
 18093	040732	324 00 0 00 040733 		JUMPA	.+1		;IF TEST FAILS, CHANGE THIS INSTRUCTION (JUMPA .+1) TO
 18094									;JUMPA X (X IS THE ADDRESS OF THE FIRST INSTRUCTION
 18095									;IN THE SUBTEST) TO LOOP ON ERROR^
 18096
 18097					;**********
 18098
DFKAA PDP-10 KL10 BASIC INSTRUCTION DIAGNOSTIC (1) VER 0,2	MACRO %52(537) 09:34 31-JAN-77 PAGE 28-5
DFKAA2	MAC	25-AUG-75 13:56		TEST OF MOVS INSTRUCTION                                                           SEQ 0385

 18099
 18100					;THIS TEST VERIFIES THAT MOVS SWAPS LEFT AND RIGHT HALVES OF E AND
 18101					;MOVES IT INTO AC.  IN THIS CASE, A 1 IS RIPPLED THRU THE LEFT HALF OF E
 18102					;AND A 0 IS RIPPLED THRU THE RIGHT HALF
 18103					;OF E [C(E)=ZZ,,YY, WHERE ZZ IS A FLOATING 1 AND YY IS A FLOATING 0].
 18104					;THEN, C(AC) IS CHECKED.
 18105					;THIS TEST IS REPEATED 18 TIMES TO FLOAT A 1 THRU ALL 18 BITS OF
 18106					;THE LEFT HALF AND A 0 THRU ALL 18 BITS OF THE RIGHT HALF OF E
 18107
 18108			002313		SN=SN+1
 18109			002000			ZZ=ZZ+ZZ
 18110		777777	775777			YY=YY+YY+1
 18111						IFE	ZZ,<ZZ=1>
 18112						IFE	<YY-1>,<YY=-2>
 18113	040733	204 00 0 00 070527 		MOVS	[XWD ZZ,YY]	;*MOVS SHOULD SWAP HALVES OF C(E)
 18114									;AND MOVE RESULT INTO AC
 18115	040734	312 00 0 00 070530 		CAME	[XWD YY,ZZ]	;PASS TEST IF AC CONTAINS YY,,ZZ
 18116						STOP		^
 18117	040735	254 04 0 00 040736 		HALT	.+1		;TEST FAILED IF PROGRAM HALTS HERE
 18118	040736	324 00 0 00 040737 		JUMPA	.+1		;IF TEST FAILS, CHANGE THIS INSTRUCTION (JUMPA .+1) TO
 18119									;JUMPA X (X IS THE ADDRESS OF THE FIRST INSTRUCTION
 18120									;IN THE SUBTEST) TO LOOP ON ERROR^
 18121
 18122					;**********
 18123
 18124
 18125					;THIS TEST VERIFIES THAT MOVS SWAPS LEFT AND RIGHT HALVES OF E AND
 18126					;MOVES IT INTO AC.  IN THIS CASE, A 1 IS RIPPLED THRU THE LEFT HALF OF E
 18127					;AND A 0 IS RIPPLED THRU THE RIGHT HALF
 18128					;OF E [C(E)=ZZ,,YY, WHERE ZZ IS A FLOATING 1 AND YY IS A FLOATING 0].
 18129					;THEN, C(AC) IS CHECKED.
 18130					;THIS TEST IS REPEATED 18 TIMES TO FLOAT A 1 THRU ALL 18 BITS OF
 18131					;THE LEFT HALF AND A 0 THRU ALL 18 BITS OF THE RIGHT HALF OF E
 18132
 18133			002314		SN=SN+1
 18134			004000			ZZ=ZZ+ZZ
 18135		777777	773777			YY=YY+YY+1
 18136						IFE	ZZ,<ZZ=1>
 18137						IFE	<YY-1>,<YY=-2>
 18138	040737	204 00 0 00 070531 		MOVS	[XWD ZZ,YY]	;*MOVS SHOULD SWAP HALVES OF C(E)
 18139									;AND MOVE RESULT INTO AC
 18140	040740	312 00 0 00 070532 		CAME	[XWD YY,ZZ]	;PASS TEST IF AC CONTAINS YY,,ZZ
 18141						STOP		^
 18142	040741	254 04 0 00 040742 		HALT	.+1		;TEST FAILED IF PROGRAM HALTS HERE
 18143	040742	324 00 0 00 040743 		JUMPA	.+1		;IF TEST FAILS, CHANGE THIS INSTRUCTION (JUMPA .+1) TO
 18144									;JUMPA X (X IS THE ADDRESS OF THE FIRST INSTRUCTION
 18145									;IN THE SUBTEST) TO LOOP ON ERROR^
 18146
 18147					;**********
 18148
 18149
 18150					;THIS TEST VERIFIES THAT MOVS SWAPS LEFT AND RIGHT HALVES OF E AND
 18151					;MOVES IT INTO AC.  IN THIS CASE, A 1 IS RIPPLED THRU THE LEFT HALF OF E
 18152					;AND A 0 IS RIPPLED THRU THE RIGHT HALF
 18153					;OF E [C(E)=ZZ,,YY, WHERE ZZ IS A FLOATING 1 AND YY IS A FLOATING 0].
DFKAA PDP-10 KL10 BASIC INSTRUCTION DIAGNOSTIC (1) VER 0,2	MACRO %52(537) 09:34 31-JAN-77 PAGE 28-6
DFKAA2	MAC	25-AUG-75 13:56		TEST OF MOVS INSTRUCTION                                                           SEQ 0386

 18154					;THEN, C(AC) IS CHECKED.
 18155					;THIS TEST IS REPEATED 18 TIMES TO FLOAT A 1 THRU ALL 18 BITS OF
 18156					;THE LEFT HALF AND A 0 THRU ALL 18 BITS OF THE RIGHT HALF OF E
 18157
 18158			002315		SN=SN+1
 18159			010000			ZZ=ZZ+ZZ
 18160		777777	767777			YY=YY+YY+1
 18161						IFE	ZZ,<ZZ=1>
 18162						IFE	<YY-1>,<YY=-2>
 18163	040743	204 00 0 00 070533 		MOVS	[XWD ZZ,YY]	;*MOVS SHOULD SWAP HALVES OF C(E)
 18164									;AND MOVE RESULT INTO AC
 18165	040744	312 00 0 00 070534 		CAME	[XWD YY,ZZ]	;PASS TEST IF AC CONTAINS YY,,ZZ
 18166						STOP		^
 18167	040745	254 04 0 00 040746 		HALT	.+1		;TEST FAILED IF PROGRAM HALTS HERE
 18168	040746	324 00 0 00 040747 		JUMPA	.+1		;IF TEST FAILS, CHANGE THIS INSTRUCTION (JUMPA .+1) TO
 18169									;JUMPA X (X IS THE ADDRESS OF THE FIRST INSTRUCTION
 18170									;IN THE SUBTEST) TO LOOP ON ERROR^
 18171
 18172					;**********
 18173
 18174
 18175					;THIS TEST VERIFIES THAT MOVS SWAPS LEFT AND RIGHT HALVES OF E AND
 18176					;MOVES IT INTO AC.  IN THIS CASE, A 1 IS RIPPLED THRU THE LEFT HALF OF E
 18177					;AND A 0 IS RIPPLED THRU THE RIGHT HALF
 18178					;OF E [C(E)=ZZ,,YY, WHERE ZZ IS A FLOATING 1 AND YY IS A FLOATING 0].
 18179					;THEN, C(AC) IS CHECKED.
 18180					;THIS TEST IS REPEATED 18 TIMES TO FLOAT A 1 THRU ALL 18 BITS OF
 18181					;THE LEFT HALF AND A 0 THRU ALL 18 BITS OF THE RIGHT HALF OF E
 18182
 18183			002316		SN=SN+1
 18184			020000			ZZ=ZZ+ZZ
 18185		777777	757777			YY=YY+YY+1
 18186						IFE	ZZ,<ZZ=1>
 18187						IFE	<YY-1>,<YY=-2>
 18188	040747	204 00 0 00 070535 		MOVS	[XWD ZZ,YY]	;*MOVS SHOULD SWAP HALVES OF C(E)
 18189									;AND MOVE RESULT INTO AC
 18190	040750	312 00 0 00 070536 		CAME	[XWD YY,ZZ]	;PASS TEST IF AC CONTAINS YY,,ZZ
 18191						STOP		^
 18192	040751	254 04 0 00 040752 		HALT	.+1		;TEST FAILED IF PROGRAM HALTS HERE
 18193	040752	324 00 0 00 040753 		JUMPA	.+1		;IF TEST FAILS, CHANGE THIS INSTRUCTION (JUMPA .+1) TO
 18194									;JUMPA X (X IS THE ADDRESS OF THE FIRST INSTRUCTION
 18195									;IN THE SUBTEST) TO LOOP ON ERROR^
 18196
 18197					;**********
 18198
 18199
 18200					;THIS TEST VERIFIES THAT MOVS SWAPS LEFT AND RIGHT HALVES OF E AND
 18201					;MOVES IT INTO AC.  IN THIS CASE, A 1 IS RIPPLED THRU THE LEFT HALF OF E
 18202					;AND A 0 IS RIPPLED THRU THE RIGHT HALF
 18203					;OF E [C(E)=ZZ,,YY, WHERE ZZ IS A FLOATING 1 AND YY IS A FLOATING 0].
 18204					;THEN, C(AC) IS CHECKED.
 18205					;THIS TEST IS REPEATED 18 TIMES TO FLOAT A 1 THRU ALL 18 BITS OF
 18206					;THE LEFT HALF AND A 0 THRU ALL 18 BITS OF THE RIGHT HALF OF E
 18207
 18208			002317		SN=SN+1
DFKAA PDP-10 KL10 BASIC INSTRUCTION DIAGNOSTIC (1) VER 0,2	MACRO %52(537) 09:34 31-JAN-77 PAGE 28-7
DFKAA2	MAC	25-AUG-75 13:56		TEST OF MOVS INSTRUCTION                                                           SEQ 0387

 18209			040000			ZZ=ZZ+ZZ
 18210		777777	737777			YY=YY+YY+1
 18211						IFE	ZZ,<ZZ=1>
 18212						IFE	<YY-1>,<YY=-2>
 18213	040753	204 00 0 00 070537 		MOVS	[XWD ZZ,YY]	;*MOVS SHOULD SWAP HALVES OF C(E)
 18214									;AND MOVE RESULT INTO AC
 18215	040754	312 00 0 00 070540 		CAME	[XWD YY,ZZ]	;PASS TEST IF AC CONTAINS YY,,ZZ
 18216						STOP		^
 18217	040755	254 04 0 00 040756 		HALT	.+1		;TEST FAILED IF PROGRAM HALTS HERE
 18218	040756	324 00 0 00 040757 		JUMPA	.+1		;IF TEST FAILS, CHANGE THIS INSTRUCTION (JUMPA .+1) TO
 18219									;JUMPA X (X IS THE ADDRESS OF THE FIRST INSTRUCTION
 18220									;IN THE SUBTEST) TO LOOP ON ERROR^
 18221
 18222					;**********
 18223
 18224
 18225					;THIS TEST VERIFIES THAT MOVS SWAPS LEFT AND RIGHT HALVES OF E AND
 18226					;MOVES IT INTO AC.  IN THIS CASE, A 1 IS RIPPLED THRU THE LEFT HALF OF E
 18227					;AND A 0 IS RIPPLED THRU THE RIGHT HALF
 18228					;OF E [C(E)=ZZ,,YY, WHERE ZZ IS A FLOATING 1 AND YY IS A FLOATING 0].
 18229					;THEN, C(AC) IS CHECKED.
 18230					;THIS TEST IS REPEATED 18 TIMES TO FLOAT A 1 THRU ALL 18 BITS OF
 18231					;THE LEFT HALF AND A 0 THRU ALL 18 BITS OF THE RIGHT HALF OF E
 18232
 18233			002320		SN=SN+1
 18234			100000			ZZ=ZZ+ZZ
 18235		777777	677777			YY=YY+YY+1
 18236						IFE	ZZ,<ZZ=1>
 18237						IFE	<YY-1>,<YY=-2>
 18238	040757	204 00 0 00 070541 		MOVS	[XWD ZZ,YY]	;*MOVS SHOULD SWAP HALVES OF C(E)
 18239									;AND MOVE RESULT INTO AC
 18240	040760	312 00 0 00 070542 		CAME	[XWD YY,ZZ]	;PASS TEST IF AC CONTAINS YY,,ZZ
 18241						STOP		^
 18242	040761	254 04 0 00 040762 		HALT	.+1		;TEST FAILED IF PROGRAM HALTS HERE
 18243	040762	324 00 0 00 040763 		JUMPA	.+1		;IF TEST FAILS, CHANGE THIS INSTRUCTION (JUMPA .+1) TO
 18244									;JUMPA X (X IS THE ADDRESS OF THE FIRST INSTRUCTION
 18245									;IN THE SUBTEST) TO LOOP ON ERROR^
 18246
 18247					;**********
 18248
 18249
 18250					;THIS TEST VERIFIES THAT MOVS SWAPS LEFT AND RIGHT HALVES OF E AND
 18251					;MOVES IT INTO AC.  IN THIS CASE, A 1 IS RIPPLED THRU THE LEFT HALF OF E
 18252					;AND A 0 IS RIPPLED THRU THE RIGHT HALF
 18253					;OF E [C(E)=ZZ,,YY, WHERE ZZ IS A FLOATING 1 AND YY IS A FLOATING 0].
 18254					;THEN, C(AC) IS CHECKED.
 18255					;THIS TEST IS REPEATED 18 TIMES TO FLOAT A 1 THRU ALL 18 BITS OF
 18256					;THE LEFT HALF AND A 0 THRU ALL 18 BITS OF THE RIGHT HALF OF E
 18257
 18258			002321		SN=SN+1
 18259			200000			ZZ=ZZ+ZZ
 18260		777777	577777			YY=YY+YY+1
 18261						IFE	ZZ,<ZZ=1>
 18262						IFE	<YY-1>,<YY=-2>
 18263	040763	204 00 0 00 070543 		MOVS	[XWD ZZ,YY]	;*MOVS SHOULD SWAP HALVES OF C(E)
DFKAA PDP-10 KL10 BASIC INSTRUCTION DIAGNOSTIC (1) VER 0,2	MACRO %52(537) 09:34 31-JAN-77 PAGE 28-8
DFKAA2	MAC	25-AUG-75 13:56		TEST OF MOVS INSTRUCTION                                                           SEQ 0388

 18264									;AND MOVE RESULT INTO AC
 18265	040764	312 00 0 00 070544 		CAME	[XWD YY,ZZ]	;PASS TEST IF AC CONTAINS YY,,ZZ
 18266						STOP		^
 18267	040765	254 04 0 00 040766 		HALT	.+1		;TEST FAILED IF PROGRAM HALTS HERE
 18268	040766	324 00 0 00 040767 		JUMPA	.+1		;IF TEST FAILS, CHANGE THIS INSTRUCTION (JUMPA .+1) TO
 18269									;JUMPA X (X IS THE ADDRESS OF THE FIRST INSTRUCTION
 18270									;IN THE SUBTEST) TO LOOP ON ERROR^
 18271
 18272					;**********
 18273
 18274
 18275					;THIS TEST VERIFIES THAT MOVS SWAPS LEFT AND RIGHT HALVES OF E AND
 18276					;MOVES IT INTO AC.  IN THIS CASE, A 1 IS RIPPLED THRU THE LEFT HALF OF E
 18277					;AND A 0 IS RIPPLED THRU THE RIGHT HALF
 18278					;OF E [C(E)=ZZ,,YY, WHERE ZZ IS A FLOATING 1 AND YY IS A FLOATING 0].
 18279					;THEN, C(AC) IS CHECKED.
 18280					;THIS TEST IS REPEATED 18 TIMES TO FLOAT A 1 THRU ALL 18 BITS OF
 18281					;THE LEFT HALF AND A 0 THRU ALL 18 BITS OF THE RIGHT HALF OF E
 18282
 18283			002322		SN=SN+1
 18284			400000			ZZ=ZZ+ZZ
 18285		777777	377777			YY=YY+YY+1
 18286						IFE	ZZ,<ZZ=1>
 18287						IFE	<YY-1>,<YY=-2>
 18288	040767	204 00 0 00 070545 		MOVS	[XWD ZZ,YY]	;*MOVS SHOULD SWAP HALVES OF C(E)
 18289									;AND MOVE RESULT INTO AC
 18290	040770	312 00 0 00 070546 		CAME	[XWD YY,ZZ]	;PASS TEST IF AC CONTAINS YY,,ZZ
 18291						STOP		^
 18292	040771	254 04 0 00 040772 		HALT	.+1		;TEST FAILED IF PROGRAM HALTS HERE
 18293	040772	324 00 0 00 040773 		JUMPA	.+1		;IF TEST FAILS, CHANGE THIS INSTRUCTION (JUMPA .+1) TO
 18294									;JUMPA X (X IS THE ADDRESS OF THE FIRST INSTRUCTION
 18295									;IN THE SUBTEST) TO LOOP ON ERROR^
 18296
 18297					;**********
 18298
DFKAA PDP-10 KL10 BASIC INSTRUCTION DIAGNOSTIC (1) VER 0,2	MACRO %52(537) 09:34 31-JAN-77 PAGE 29
DFKAA2	MAC	25-AUG-75 13:56		TEST OF MOVS INSTRUCTION                                                           SEQ 0389

 18299			002400		SN=2400
 18300			000000			ZZ=0
 18301			000000			YY=0
 18302
 18303					B2400:	REPEAT	 ^D18,<
 18304					;THIS TEST VERIFIES THAT MOVS SWAPS LEFT AND RIGHT HALVES OF E AND
 18305					;MOVES IT INTO AC.  IN THIS CASE, A 0 IS RIPPLED THRU THE LEFT HALF OF E
 18306					;AND A 1 IS RIPPLED THRU THE RIGHT HALF
 18307					;OF E [C(E)=YY,,ZZ, WHERE ZZ IS A FLOATING 1 AND YY IS A FLOATING 0].
 18308					;THEN, C(AC) IS CHECKED.
 18309					;THIS TEST IS REPEATED 18 TIMES TO FLOAT A 1 THRU ALL 18 BITS OF
 18310					;THE RIGHT HALF AND A 0 THRU ALL 18 BITS OF THE RIGHT HALF OF E
 18311
 18312					SN=SN+1
 18313						ZZ=ZZ+ZZ
 18314						YY=YY+YY+1
 18315						IFE	ZZ,<ZZ=1>
 18316						IFE	<YY-1>,<YY=-2>
 18317						MOVS	[XWD YY,ZZ]	;*MOVS SHOULD SWAP HALVES OF C(E)
 18318									;AND MOVE RESULT INTO AC
 18319						CAME	[XWD ZZ,YY]	;PASS TEST IF C(AC)=ZZ,,YY
 18320						STOP
 18321
 18322					;**********
 18323					>
 18324
 18325					;THIS TEST VERIFIES THAT MOVS SWAPS LEFT AND RIGHT HALVES OF E AND
 18326					;MOVES IT INTO AC.  IN THIS CASE, A 0 IS RIPPLED THRU THE LEFT HALF OF E
 18327					;AND A 1 IS RIPPLED THRU THE RIGHT HALF
 18328					;OF E [C(E)=YY,,ZZ, WHERE ZZ IS A FLOATING 1 AND YY IS A FLOATING 0].
 18329					;THEN, C(AC) IS CHECKED.
 18330					;THIS TEST IS REPEATED 18 TIMES TO FLOAT A 1 THRU ALL 18 BITS OF
 18331					;THE RIGHT HALF AND A 0 THRU ALL 18 BITS OF THE RIGHT HALF OF E
 18332
 18333			002401		SN=SN+1
 18334			000000			ZZ=ZZ+ZZ
 18335			000001			YY=YY+YY+1
 18336			000001			IFE	ZZ,<ZZ=1>
 18337		777777	777776			IFE	<YY-1>,<YY=-2>
 18338	040773	204 00 0 00 070504 		MOVS	[XWD YY,ZZ]	;*MOVS SHOULD SWAP HALVES OF C(E)
 18339									;AND MOVE RESULT INTO AC
 18340	040774	312 00 0 00 070503 		CAME	[XWD ZZ,YY]	;PASS TEST IF C(AC)=ZZ,,YY
 18341						STOP		^
 18342	040775	254 04 0 00 040776 		HALT	.+1		;TEST FAILED IF PROGRAM HALTS HERE
 18343	040776	324 00 0 00 040777 		JUMPA	.+1		;IF TEST FAILS, CHANGE THIS INSTRUCTION (JUMPA .+1) TO
 18344									;JUMPA X (X IS THE ADDRESS OF THE FIRST INSTRUCTION
 18345									;IN THE SUBTEST) TO LOOP ON ERROR^
 18346
 18347					;**********
 18348
 18349
 18350					;THIS TEST VERIFIES THAT MOVS SWAPS LEFT AND RIGHT HALVES OF E AND
 18351					;MOVES IT INTO AC.  IN THIS CASE, A 0 IS RIPPLED THRU THE LEFT HALF OF E
 18352					;AND A 1 IS RIPPLED THRU THE RIGHT HALF
 18353					;OF E [C(E)=YY,,ZZ, WHERE ZZ IS A FLOATING 1 AND YY IS A FLOATING 0].
DFKAA PDP-10 KL10 BASIC INSTRUCTION DIAGNOSTIC (1) VER 0,2	MACRO %52(537) 09:34 31-JAN-77 PAGE 29-1
DFKAA2	MAC	25-AUG-75 13:56		TEST OF MOVS INSTRUCTION                                                           SEQ 0390

 18354					;THEN, C(AC) IS CHECKED.
 18355					;THIS TEST IS REPEATED 18 TIMES TO FLOAT A 1 THRU ALL 18 BITS OF
 18356					;THE RIGHT HALF AND A 0 THRU ALL 18 BITS OF THE RIGHT HALF OF E
 18357
 18358			002402		SN=SN+1
 18359			000002			ZZ=ZZ+ZZ
 18360		777777	777775			YY=YY+YY+1
 18361						IFE	ZZ,<ZZ=1>
 18362						IFE	<YY-1>,<YY=-2>
 18363	040777	204 00 0 00 070506 		MOVS	[XWD YY,ZZ]	;*MOVS SHOULD SWAP HALVES OF C(E)
 18364									;AND MOVE RESULT INTO AC
 18365	041000	312 00 0 00 070505 		CAME	[XWD ZZ,YY]	;PASS TEST IF C(AC)=ZZ,,YY
 18366						STOP		^
 18367	041001	254 04 0 00 041002 		HALT	.+1		;TEST FAILED IF PROGRAM HALTS HERE
 18368	041002	324 00 0 00 041003 		JUMPA	.+1		;IF TEST FAILS, CHANGE THIS INSTRUCTION (JUMPA .+1) TO
 18369									;JUMPA X (X IS THE ADDRESS OF THE FIRST INSTRUCTION
 18370									;IN THE SUBTEST) TO LOOP ON ERROR^
 18371
 18372					;**********
 18373
 18374
 18375					;THIS TEST VERIFIES THAT MOVS SWAPS LEFT AND RIGHT HALVES OF E AND
 18376					;MOVES IT INTO AC.  IN THIS CASE, A 0 IS RIPPLED THRU THE LEFT HALF OF E
 18377					;AND A 1 IS RIPPLED THRU THE RIGHT HALF
 18378					;OF E [C(E)=YY,,ZZ, WHERE ZZ IS A FLOATING 1 AND YY IS A FLOATING 0].
 18379					;THEN, C(AC) IS CHECKED.
 18380					;THIS TEST IS REPEATED 18 TIMES TO FLOAT A 1 THRU ALL 18 BITS OF
 18381					;THE RIGHT HALF AND A 0 THRU ALL 18 BITS OF THE RIGHT HALF OF E
 18382
 18383			002403		SN=SN+1
 18384			000004			ZZ=ZZ+ZZ
 18385		777777	777773			YY=YY+YY+1
 18386						IFE	ZZ,<ZZ=1>
 18387						IFE	<YY-1>,<YY=-2>
 18388	041003	204 00 0 00 070510 		MOVS	[XWD YY,ZZ]	;*MOVS SHOULD SWAP HALVES OF C(E)
 18389									;AND MOVE RESULT INTO AC
 18390	041004	312 00 0 00 070507 		CAME	[XWD ZZ,YY]	;PASS TEST IF C(AC)=ZZ,,YY
 18391						STOP		^
 18392	041005	254 04 0 00 041006 		HALT	.+1		;TEST FAILED IF PROGRAM HALTS HERE
 18393	041006	324 00 0 00 041007 		JUMPA	.+1		;IF TEST FAILS, CHANGE THIS INSTRUCTION (JUMPA .+1) TO
 18394									;JUMPA X (X IS THE ADDRESS OF THE FIRST INSTRUCTION
 18395									;IN THE SUBTEST) TO LOOP ON ERROR^
 18396
 18397					;**********
 18398
 18399
 18400					;THIS TEST VERIFIES THAT MOVS SWAPS LEFT AND RIGHT HALVES OF E AND
 18401					;MOVES IT INTO AC.  IN THIS CASE, A 0 IS RIPPLED THRU THE LEFT HALF OF E
 18402					;AND A 1 IS RIPPLED THRU THE RIGHT HALF
 18403					;OF E [C(E)=YY,,ZZ, WHERE ZZ IS A FLOATING 1 AND YY IS A FLOATING 0].
 18404					;THEN, C(AC) IS CHECKED.
 18405					;THIS TEST IS REPEATED 18 TIMES TO FLOAT A 1 THRU ALL 18 BITS OF
 18406					;THE RIGHT HALF AND A 0 THRU ALL 18 BITS OF THE RIGHT HALF OF E
 18407
 18408			002404		SN=SN+1
DFKAA PDP-10 KL10 BASIC INSTRUCTION DIAGNOSTIC (1) VER 0,2	MACRO %52(537) 09:34 31-JAN-77 PAGE 29-2
DFKAA2	MAC	25-AUG-75 13:56		TEST OF MOVS INSTRUCTION                                                           SEQ 0391

 18409			000010			ZZ=ZZ+ZZ
 18410		777777	777767			YY=YY+YY+1
 18411						IFE	ZZ,<ZZ=1>
 18412						IFE	<YY-1>,<YY=-2>
 18413	041007	204 00 0 00 070512 		MOVS	[XWD YY,ZZ]	;*MOVS SHOULD SWAP HALVES OF C(E)
 18414									;AND MOVE RESULT INTO AC
 18415	041010	312 00 0 00 070511 		CAME	[XWD ZZ,YY]	;PASS TEST IF C(AC)=ZZ,,YY
 18416						STOP		^
 18417	041011	254 04 0 00 041012 		HALT	.+1		;TEST FAILED IF PROGRAM HALTS HERE
 18418	041012	324 00 0 00 041013 		JUMPA	.+1		;IF TEST FAILS, CHANGE THIS INSTRUCTION (JUMPA .+1) TO
 18419									;JUMPA X (X IS THE ADDRESS OF THE FIRST INSTRUCTION
 18420									;IN THE SUBTEST) TO LOOP ON ERROR^
 18421
 18422					;**********
 18423
 18424
 18425					;THIS TEST VERIFIES THAT MOVS SWAPS LEFT AND RIGHT HALVES OF E AND
 18426					;MOVES IT INTO AC.  IN THIS CASE, A 0 IS RIPPLED THRU THE LEFT HALF OF E
 18427					;AND A 1 IS RIPPLED THRU THE RIGHT HALF
 18428					;OF E [C(E)=YY,,ZZ, WHERE ZZ IS A FLOATING 1 AND YY IS A FLOATING 0].
 18429					;THEN, C(AC) IS CHECKED.
 18430					;THIS TEST IS REPEATED 18 TIMES TO FLOAT A 1 THRU ALL 18 BITS OF
 18431					;THE RIGHT HALF AND A 0 THRU ALL 18 BITS OF THE RIGHT HALF OF E
 18432
 18433			002405		SN=SN+1
 18434			000020			ZZ=ZZ+ZZ
 18435		777777	777757			YY=YY+YY+1
 18436						IFE	ZZ,<ZZ=1>
 18437						IFE	<YY-1>,<YY=-2>
 18438	041013	204 00 0 00 070514 		MOVS	[XWD YY,ZZ]	;*MOVS SHOULD SWAP HALVES OF C(E)
 18439									;AND MOVE RESULT INTO AC
 18440	041014	312 00 0 00 070513 		CAME	[XWD ZZ,YY]	;PASS TEST IF C(AC)=ZZ,,YY
 18441						STOP		^
 18442	041015	254 04 0 00 041016 		HALT	.+1		;TEST FAILED IF PROGRAM HALTS HERE
 18443	041016	324 00 0 00 041017 		JUMPA	.+1		;IF TEST FAILS, CHANGE THIS INSTRUCTION (JUMPA .+1) TO
 18444									;JUMPA X (X IS THE ADDRESS OF THE FIRST INSTRUCTION
 18445									;IN THE SUBTEST) TO LOOP ON ERROR^
 18446
 18447					;**********
 18448
 18449
 18450					;THIS TEST VERIFIES THAT MOVS SWAPS LEFT AND RIGHT HALVES OF E AND
 18451					;MOVES IT INTO AC.  IN THIS CASE, A 0 IS RIPPLED THRU THE LEFT HALF OF E
 18452					;AND A 1 IS RIPPLED THRU THE RIGHT HALF
 18453					;OF E [C(E)=YY,,ZZ, WHERE ZZ IS A FLOATING 1 AND YY IS A FLOATING 0].
 18454					;THEN, C(AC) IS CHECKED.
 18455					;THIS TEST IS REPEATED 18 TIMES TO FLOAT A 1 THRU ALL 18 BITS OF
 18456					;THE RIGHT HALF AND A 0 THRU ALL 18 BITS OF THE RIGHT HALF OF E
 18457
 18458			002406		SN=SN+1
 18459			000040			ZZ=ZZ+ZZ
 18460		777777	777737			YY=YY+YY+1
 18461						IFE	ZZ,<ZZ=1>
 18462						IFE	<YY-1>,<YY=-2>
 18463	041017	204 00 0 00 070516 		MOVS	[XWD YY,ZZ]	;*MOVS SHOULD SWAP HALVES OF C(E)
DFKAA PDP-10 KL10 BASIC INSTRUCTION DIAGNOSTIC (1) VER 0,2	MACRO %52(537) 09:34 31-JAN-77 PAGE 29-3
DFKAA2	MAC	25-AUG-75 13:56		TEST OF MOVS INSTRUCTION                                                           SEQ 0392

 18464									;AND MOVE RESULT INTO AC
 18465	041020	312 00 0 00 070515 		CAME	[XWD ZZ,YY]	;PASS TEST IF C(AC)=ZZ,,YY
 18466						STOP		^
 18467	041021	254 04 0 00 041022 		HALT	.+1		;TEST FAILED IF PROGRAM HALTS HERE
 18468	041022	324 00 0 00 041023 		JUMPA	.+1		;IF TEST FAILS, CHANGE THIS INSTRUCTION (JUMPA .+1) TO
 18469									;JUMPA X (X IS THE ADDRESS OF THE FIRST INSTRUCTION
 18470									;IN THE SUBTEST) TO LOOP ON ERROR^
 18471
 18472					;**********
 18473
 18474
 18475					;THIS TEST VERIFIES THAT MOVS SWAPS LEFT AND RIGHT HALVES OF E AND
 18476					;MOVES IT INTO AC.  IN THIS CASE, A 0 IS RIPPLED THRU THE LEFT HALF OF E
 18477					;AND A 1 IS RIPPLED THRU THE RIGHT HALF
 18478					;OF E [C(E)=YY,,ZZ, WHERE ZZ IS A FLOATING 1 AND YY IS A FLOATING 0].
 18479					;THEN, C(AC) IS CHECKED.
 18480					;THIS TEST IS REPEATED 18 TIMES TO FLOAT A 1 THRU ALL 18 BITS OF
 18481					;THE RIGHT HALF AND A 0 THRU ALL 18 BITS OF THE RIGHT HALF OF E
 18482
 18483			002407		SN=SN+1
 18484			000100			ZZ=ZZ+ZZ
 18485		777777	777677			YY=YY+YY+1
 18486						IFE	ZZ,<ZZ=1>
 18487						IFE	<YY-1>,<YY=-2>
 18488	041023	204 00 0 00 070520 		MOVS	[XWD YY,ZZ]	;*MOVS SHOULD SWAP HALVES OF C(E)
 18489									;AND MOVE RESULT INTO AC
 18490	041024	312 00 0 00 070517 		CAME	[XWD ZZ,YY]	;PASS TEST IF C(AC)=ZZ,,YY
 18491						STOP		^
 18492	041025	254 04 0 00 041026 		HALT	.+1		;TEST FAILED IF PROGRAM HALTS HERE
 18493	041026	324 00 0 00 041027 		JUMPA	.+1		;IF TEST FAILS, CHANGE THIS INSTRUCTION (JUMPA .+1) TO
 18494									;JUMPA X (X IS THE ADDRESS OF THE FIRST INSTRUCTION
 18495									;IN THE SUBTEST) TO LOOP ON ERROR^
 18496
 18497					;**********
 18498
 18499
 18500					;THIS TEST VERIFIES THAT MOVS SWAPS LEFT AND RIGHT HALVES OF E AND
 18501					;MOVES IT INTO AC.  IN THIS CASE, A 0 IS RIPPLED THRU THE LEFT HALF OF E
 18502					;AND A 1 IS RIPPLED THRU THE RIGHT HALF
 18503					;OF E [C(E)=YY,,ZZ, WHERE ZZ IS A FLOATING 1 AND YY IS A FLOATING 0].
 18504					;THEN, C(AC) IS CHECKED.
 18505					;THIS TEST IS REPEATED 18 TIMES TO FLOAT A 1 THRU ALL 18 BITS OF
 18506					;THE RIGHT HALF AND A 0 THRU ALL 18 BITS OF THE RIGHT HALF OF E
 18507
 18508			002410		SN=SN+1
 18509			000200			ZZ=ZZ+ZZ
 18510		777777	777577			YY=YY+YY+1
 18511						IFE	ZZ,<ZZ=1>
 18512						IFE	<YY-1>,<YY=-2>
 18513	041027	204 00 0 00 070522 		MOVS	[XWD YY,ZZ]	;*MOVS SHOULD SWAP HALVES OF C(E)
 18514									;AND MOVE RESULT INTO AC
 18515	041030	312 00 0 00 070521 		CAME	[XWD ZZ,YY]	;PASS TEST IF C(AC)=ZZ,,YY
 18516						STOP		^
 18517	041031	254 04 0 00 041032 		HALT	.+1		;TEST FAILED IF PROGRAM HALTS HERE
 18518	041032	324 00 0 00 041033 		JUMPA	.+1		;IF TEST FAILS, CHANGE THIS INSTRUCTION (JUMPA .+1) TO
DFKAA PDP-10 KL10 BASIC INSTRUCTION DIAGNOSTIC (1) VER 0,2	MACRO %52(537) 09:34 31-JAN-77 PAGE 29-4
DFKAA2	MAC	25-AUG-75 13:56		TEST OF MOVS INSTRUCTION                                                           SEQ 0393

 18519									;JUMPA X (X IS THE ADDRESS OF THE FIRST INSTRUCTION
 18520									;IN THE SUBTEST) TO LOOP ON ERROR^
 18521
 18522					;**********
 18523
 18524
 18525					;THIS TEST VERIFIES THAT MOVS SWAPS LEFT AND RIGHT HALVES OF E AND
 18526					;MOVES IT INTO AC.  IN THIS CASE, A 0 IS RIPPLED THRU THE LEFT HALF OF E
 18527					;AND A 1 IS RIPPLED THRU THE RIGHT HALF
 18528					;OF E [C(E)=YY,,ZZ, WHERE ZZ IS A FLOATING 1 AND YY IS A FLOATING 0].
 18529					;THEN, C(AC) IS CHECKED.
 18530					;THIS TEST IS REPEATED 18 TIMES TO FLOAT A 1 THRU ALL 18 BITS OF
 18531					;THE RIGHT HALF AND A 0 THRU ALL 18 BITS OF THE RIGHT HALF OF E
 18532
 18533			002411		SN=SN+1
 18534			000400			ZZ=ZZ+ZZ
 18535		777777	777377			YY=YY+YY+1
 18536						IFE	ZZ,<ZZ=1>
 18537						IFE	<YY-1>,<YY=-2>
 18538	041033	204 00 0 00 070524 		MOVS	[XWD YY,ZZ]	;*MOVS SHOULD SWAP HALVES OF C(E)
 18539									;AND MOVE RESULT INTO AC
 18540	041034	312 00 0 00 070523 		CAME	[XWD ZZ,YY]	;PASS TEST IF C(AC)=ZZ,,YY
 18541						STOP		^
 18542	041035	254 04 0 00 041036 		HALT	.+1		;TEST FAILED IF PROGRAM HALTS HERE
 18543	041036	324 00 0 00 041037 		JUMPA	.+1		;IF TEST FAILS, CHANGE THIS INSTRUCTION (JUMPA .+1) TO
 18544									;JUMPA X (X IS THE ADDRESS OF THE FIRST INSTRUCTION
 18545									;IN THE SUBTEST) TO LOOP ON ERROR^
 18546
 18547					;**********
 18548
 18549
 18550					;THIS TEST VERIFIES THAT MOVS SWAPS LEFT AND RIGHT HALVES OF E AND
 18551					;MOVES IT INTO AC.  IN THIS CASE, A 0 IS RIPPLED THRU THE LEFT HALF OF E
 18552					;AND A 1 IS RIPPLED THRU THE RIGHT HALF
 18553					;OF E [C(E)=YY,,ZZ, WHERE ZZ IS A FLOATING 1 AND YY IS A FLOATING 0].
 18554					;THEN, C(AC) IS CHECKED.
 18555					;THIS TEST IS REPEATED 18 TIMES TO FLOAT A 1 THRU ALL 18 BITS OF
 18556					;THE RIGHT HALF AND A 0 THRU ALL 18 BITS OF THE RIGHT HALF OF E
 18557
 18558			002412		SN=SN+1
 18559			001000			ZZ=ZZ+ZZ
 18560		777777	776777			YY=YY+YY+1
 18561						IFE	ZZ,<ZZ=1>
 18562						IFE	<YY-1>,<YY=-2>
 18563	041037	204 00 0 00 070526 		MOVS	[XWD YY,ZZ]	;*MOVS SHOULD SWAP HALVES OF C(E)
 18564									;AND MOVE RESULT INTO AC
 18565	041040	312 00 0 00 070525 		CAME	[XWD ZZ,YY]	;PASS TEST IF C(AC)=ZZ,,YY
 18566						STOP		^
 18567	041041	254 04 0 00 041042 		HALT	.+1		;TEST FAILED IF PROGRAM HALTS HERE
 18568	041042	324 00 0 00 041043 		JUMPA	.+1		;IF TEST FAILS, CHANGE THIS INSTRUCTION (JUMPA .+1) TO
 18569									;JUMPA X (X IS THE ADDRESS OF THE FIRST INSTRUCTION
 18570									;IN THE SUBTEST) TO LOOP ON ERROR^
 18571
 18572					;**********
 18573
DFKAA PDP-10 KL10 BASIC INSTRUCTION DIAGNOSTIC (1) VER 0,2	MACRO %52(537) 09:34 31-JAN-77 PAGE 29-5
DFKAA2	MAC	25-AUG-75 13:56		TEST OF MOVS INSTRUCTION                                                           SEQ 0394

 18574
 18575					;THIS TEST VERIFIES THAT MOVS SWAPS LEFT AND RIGHT HALVES OF E AND
 18576					;MOVES IT INTO AC.  IN THIS CASE, A 0 IS RIPPLED THRU THE LEFT HALF OF E
 18577					;AND A 1 IS RIPPLED THRU THE RIGHT HALF
 18578					;OF E [C(E)=YY,,ZZ, WHERE ZZ IS A FLOATING 1 AND YY IS A FLOATING 0].
 18579					;THEN, C(AC) IS CHECKED.
 18580					;THIS TEST IS REPEATED 18 TIMES TO FLOAT A 1 THRU ALL 18 BITS OF
 18581					;THE RIGHT HALF AND A 0 THRU ALL 18 BITS OF THE RIGHT HALF OF E
 18582
 18583			002413		SN=SN+1
 18584			002000			ZZ=ZZ+ZZ
 18585		777777	775777			YY=YY+YY+1
 18586						IFE	ZZ,<ZZ=1>
 18587						IFE	<YY-1>,<YY=-2>
 18588	041043	204 00 0 00 070530 		MOVS	[XWD YY,ZZ]	;*MOVS SHOULD SWAP HALVES OF C(E)
 18589									;AND MOVE RESULT INTO AC
 18590	041044	312 00 0 00 070527 		CAME	[XWD ZZ,YY]	;PASS TEST IF C(AC)=ZZ,,YY
 18591						STOP		^
 18592	041045	254 04 0 00 041046 		HALT	.+1		;TEST FAILED IF PROGRAM HALTS HERE
 18593	041046	324 00 0 00 041047 		JUMPA	.+1		;IF TEST FAILS, CHANGE THIS INSTRUCTION (JUMPA .+1) TO
 18594									;JUMPA X (X IS THE ADDRESS OF THE FIRST INSTRUCTION
 18595									;IN THE SUBTEST) TO LOOP ON ERROR^
 18596
 18597					;**********
 18598
 18599
 18600					;THIS TEST VERIFIES THAT MOVS SWAPS LEFT AND RIGHT HALVES OF E AND
 18601					;MOVES IT INTO AC.  IN THIS CASE, A 0 IS RIPPLED THRU THE LEFT HALF OF E
 18602					;AND A 1 IS RIPPLED THRU THE RIGHT HALF
 18603					;OF E [C(E)=YY,,ZZ, WHERE ZZ IS A FLOATING 1 AND YY IS A FLOATING 0].
 18604					;THEN, C(AC) IS CHECKED.
 18605					;THIS TEST IS REPEATED 18 TIMES TO FLOAT A 1 THRU ALL 18 BITS OF
 18606					;THE RIGHT HALF AND A 0 THRU ALL 18 BITS OF THE RIGHT HALF OF E
 18607
 18608			002414		SN=SN+1
 18609			004000			ZZ=ZZ+ZZ
 18610		777777	773777			YY=YY+YY+1
 18611						IFE	ZZ,<ZZ=1>
 18612						IFE	<YY-1>,<YY=-2>
 18613	041047	204 00 0 00 070532 		MOVS	[XWD YY,ZZ]	;*MOVS SHOULD SWAP HALVES OF C(E)
 18614									;AND MOVE RESULT INTO AC
 18615	041050	312 00 0 00 070531 		CAME	[XWD ZZ,YY]	;PASS TEST IF C(AC)=ZZ,,YY
 18616						STOP		^
 18617	041051	254 04 0 00 041052 		HALT	.+1		;TEST FAILED IF PROGRAM HALTS HERE
 18618	041052	324 00 0 00 041053 		JUMPA	.+1		;IF TEST FAILS, CHANGE THIS INSTRUCTION (JUMPA .+1) TO
 18619									;JUMPA X (X IS THE ADDRESS OF THE FIRST INSTRUCTION
 18620									;IN THE SUBTEST) TO LOOP ON ERROR^
 18621
 18622					;**********
 18623
 18624
 18625					;THIS TEST VERIFIES THAT MOVS SWAPS LEFT AND RIGHT HALVES OF E AND
 18626					;MOVES IT INTO AC.  IN THIS CASE, A 0 IS RIPPLED THRU THE LEFT HALF OF E
 18627					;AND A 1 IS RIPPLED THRU THE RIGHT HALF
 18628					;OF E [C(E)=YY,,ZZ, WHERE ZZ IS A FLOATING 1 AND YY IS A FLOATING 0].
DFKAA PDP-10 KL10 BASIC INSTRUCTION DIAGNOSTIC (1) VER 0,2	MACRO %52(537) 09:34 31-JAN-77 PAGE 29-6
DFKAA2	MAC	25-AUG-75 13:56		TEST OF MOVS INSTRUCTION                                                           SEQ 0395

 18629					;THEN, C(AC) IS CHECKED.
 18630					;THIS TEST IS REPEATED 18 TIMES TO FLOAT A 1 THRU ALL 18 BITS OF
 18631					;THE RIGHT HALF AND A 0 THRU ALL 18 BITS OF THE RIGHT HALF OF E
 18632
 18633			002415		SN=SN+1
 18634			010000			ZZ=ZZ+ZZ
 18635		777777	767777			YY=YY+YY+1
 18636						IFE	ZZ,<ZZ=1>
 18637						IFE	<YY-1>,<YY=-2>
 18638	041053	204 00 0 00 070534 		MOVS	[XWD YY,ZZ]	;*MOVS SHOULD SWAP HALVES OF C(E)
 18639									;AND MOVE RESULT INTO AC
 18640	041054	312 00 0 00 070533 		CAME	[XWD ZZ,YY]	;PASS TEST IF C(AC)=ZZ,,YY
 18641						STOP		^
 18642	041055	254 04 0 00 041056 		HALT	.+1		;TEST FAILED IF PROGRAM HALTS HERE
 18643	041056	324 00 0 00 041057 		JUMPA	.+1		;IF TEST FAILS, CHANGE THIS INSTRUCTION (JUMPA .+1) TO
 18644									;JUMPA X (X IS THE ADDRESS OF THE FIRST INSTRUCTION
 18645									;IN THE SUBTEST) TO LOOP ON ERROR^
 18646
 18647					;**********
 18648
 18649
 18650					;THIS TEST VERIFIES THAT MOVS SWAPS LEFT AND RIGHT HALVES OF E AND
 18651					;MOVES IT INTO AC.  IN THIS CASE, A 0 IS RIPPLED THRU THE LEFT HALF OF E
 18652					;AND A 1 IS RIPPLED THRU THE RIGHT HALF
 18653					;OF E [C(E)=YY,,ZZ, WHERE ZZ IS A FLOATING 1 AND YY IS A FLOATING 0].
 18654					;THEN, C(AC) IS CHECKED.
 18655					;THIS TEST IS REPEATED 18 TIMES TO FLOAT A 1 THRU ALL 18 BITS OF
 18656					;THE RIGHT HALF AND A 0 THRU ALL 18 BITS OF THE RIGHT HALF OF E
 18657
 18658			002416		SN=SN+1
 18659			020000			ZZ=ZZ+ZZ
 18660		777777	757777			YY=YY+YY+1
 18661						IFE	ZZ,<ZZ=1>
 18662						IFE	<YY-1>,<YY=-2>
 18663	041057	204 00 0 00 070536 		MOVS	[XWD YY,ZZ]	;*MOVS SHOULD SWAP HALVES OF C(E)
 18664									;AND MOVE RESULT INTO AC
 18665	041060	312 00 0 00 070535 		CAME	[XWD ZZ,YY]	;PASS TEST IF C(AC)=ZZ,,YY
 18666						STOP		^
 18667	041061	254 04 0 00 041062 		HALT	.+1		;TEST FAILED IF PROGRAM HALTS HERE
 18668	041062	324 00 0 00 041063 		JUMPA	.+1		;IF TEST FAILS, CHANGE THIS INSTRUCTION (JUMPA .+1) TO
 18669									;JUMPA X (X IS THE ADDRESS OF THE FIRST INSTRUCTION
 18670									;IN THE SUBTEST) TO LOOP ON ERROR^
 18671
 18672					;**********
 18673
 18674
 18675					;THIS TEST VERIFIES THAT MOVS SWAPS LEFT AND RIGHT HALVES OF E AND
 18676					;MOVES IT INTO AC.  IN THIS CASE, A 0 IS RIPPLED THRU THE LEFT HALF OF E
 18677					;AND A 1 IS RIPPLED THRU THE RIGHT HALF
 18678					;OF E [C(E)=YY,,ZZ, WHERE ZZ IS A FLOATING 1 AND YY IS A FLOATING 0].
 18679					;THEN, C(AC) IS CHECKED.
 18680					;THIS TEST IS REPEATED 18 TIMES TO FLOAT A 1 THRU ALL 18 BITS OF
 18681					;THE RIGHT HALF AND A 0 THRU ALL 18 BITS OF THE RIGHT HALF OF E
 18682
 18683			002417		SN=SN+1
DFKAA PDP-10 KL10 BASIC INSTRUCTION DIAGNOSTIC (1) VER 0,2	MACRO %52(537) 09:34 31-JAN-77 PAGE 29-7
DFKAA2	MAC	25-AUG-75 13:56		TEST OF MOVS INSTRUCTION                                                           SEQ 0396

 18684			040000			ZZ=ZZ+ZZ
 18685		777777	737777			YY=YY+YY+1
 18686						IFE	ZZ,<ZZ=1>
 18687						IFE	<YY-1>,<YY=-2>
 18688	041063	204 00 0 00 070540 		MOVS	[XWD YY,ZZ]	;*MOVS SHOULD SWAP HALVES OF C(E)
 18689									;AND MOVE RESULT INTO AC
 18690	041064	312 00 0 00 070537 		CAME	[XWD ZZ,YY]	;PASS TEST IF C(AC)=ZZ,,YY
 18691						STOP		^
 18692	041065	254 04 0 00 041066 		HALT	.+1		;TEST FAILED IF PROGRAM HALTS HERE
 18693	041066	324 00 0 00 041067 		JUMPA	.+1		;IF TEST FAILS, CHANGE THIS INSTRUCTION (JUMPA .+1) TO
 18694									;JUMPA X (X IS THE ADDRESS OF THE FIRST INSTRUCTION
 18695									;IN THE SUBTEST) TO LOOP ON ERROR^
 18696
 18697					;**********
 18698
 18699
 18700					;THIS TEST VERIFIES THAT MOVS SWAPS LEFT AND RIGHT HALVES OF E AND
 18701					;MOVES IT INTO AC.  IN THIS CASE, A 0 IS RIPPLED THRU THE LEFT HALF OF E
 18702					;AND A 1 IS RIPPLED THRU THE RIGHT HALF
 18703					;OF E [C(E)=YY,,ZZ, WHERE ZZ IS A FLOATING 1 AND YY IS A FLOATING 0].
 18704					;THEN, C(AC) IS CHECKED.
 18705					;THIS TEST IS REPEATED 18 TIMES TO FLOAT A 1 THRU ALL 18 BITS OF
 18706					;THE RIGHT HALF AND A 0 THRU ALL 18 BITS OF THE RIGHT HALF OF E
 18707
 18708			002420		SN=SN+1
 18709			100000			ZZ=ZZ+ZZ
 18710		777777	677777			YY=YY+YY+1
 18711						IFE	ZZ,<ZZ=1>
 18712						IFE	<YY-1>,<YY=-2>
 18713	041067	204 00 0 00 070542 		MOVS	[XWD YY,ZZ]	;*MOVS SHOULD SWAP HALVES OF C(E)
 18714									;AND MOVE RESULT INTO AC
 18715	041070	312 00 0 00 070541 		CAME	[XWD ZZ,YY]	;PASS TEST IF C(AC)=ZZ,,YY
 18716						STOP		^
 18717	041071	254 04 0 00 041072 		HALT	.+1		;TEST FAILED IF PROGRAM HALTS HERE
 18718	041072	324 00 0 00 041073 		JUMPA	.+1		;IF TEST FAILS, CHANGE THIS INSTRUCTION (JUMPA .+1) TO
 18719									;JUMPA X (X IS THE ADDRESS OF THE FIRST INSTRUCTION
 18720									;IN THE SUBTEST) TO LOOP ON ERROR^
 18721
 18722					;**********
 18723
 18724
 18725					;THIS TEST VERIFIES THAT MOVS SWAPS LEFT AND RIGHT HALVES OF E AND
 18726					;MOVES IT INTO AC.  IN THIS CASE, A 0 IS RIPPLED THRU THE LEFT HALF OF E
 18727					;AND A 1 IS RIPPLED THRU THE RIGHT HALF
 18728					;OF E [C(E)=YY,,ZZ, WHERE ZZ IS A FLOATING 1 AND YY IS A FLOATING 0].
 18729					;THEN, C(AC) IS CHECKED.
 18730					;THIS TEST IS REPEATED 18 TIMES TO FLOAT A 1 THRU ALL 18 BITS OF
 18731					;THE RIGHT HALF AND A 0 THRU ALL 18 BITS OF THE RIGHT HALF OF E
 18732
 18733			002421		SN=SN+1
 18734			200000			ZZ=ZZ+ZZ
 18735		777777	577777			YY=YY+YY+1
 18736						IFE	ZZ,<ZZ=1>
 18737						IFE	<YY-1>,<YY=-2>
 18738	041073	204 00 0 00 070544 		MOVS	[XWD YY,ZZ]	;*MOVS SHOULD SWAP HALVES OF C(E)
DFKAA PDP-10 KL10 BASIC INSTRUCTION DIAGNOSTIC (1) VER 0,2	MACRO %52(537) 09:34 31-JAN-77 PAGE 29-8
DFKAA2	MAC	25-AUG-75 13:56		TEST OF MOVS INSTRUCTION                                                           SEQ 0397

 18739									;AND MOVE RESULT INTO AC
 18740	041074	312 00 0 00 070543 		CAME	[XWD ZZ,YY]	;PASS TEST IF C(AC)=ZZ,,YY
 18741						STOP		^
 18742	041075	254 04 0 00 041076 		HALT	.+1		;TEST FAILED IF PROGRAM HALTS HERE
 18743	041076	324 00 0 00 041077 		JUMPA	.+1		;IF TEST FAILS, CHANGE THIS INSTRUCTION (JUMPA .+1) TO
 18744									;JUMPA X (X IS THE ADDRESS OF THE FIRST INSTRUCTION
 18745									;IN THE SUBTEST) TO LOOP ON ERROR^
 18746
 18747					;**********
 18748
 18749
 18750					;THIS TEST VERIFIES THAT MOVS SWAPS LEFT AND RIGHT HALVES OF E AND
 18751					;MOVES IT INTO AC.  IN THIS CASE, A 0 IS RIPPLED THRU THE LEFT HALF OF E
 18752					;AND A 1 IS RIPPLED THRU THE RIGHT HALF
 18753					;OF E [C(E)=YY,,ZZ, WHERE ZZ IS A FLOATING 1 AND YY IS A FLOATING 0].
 18754					;THEN, C(AC) IS CHECKED.
 18755					;THIS TEST IS REPEATED 18 TIMES TO FLOAT A 1 THRU ALL 18 BITS OF
 18756					;THE RIGHT HALF AND A 0 THRU ALL 18 BITS OF THE RIGHT HALF OF E
 18757
 18758			002422		SN=SN+1
 18759			400000			ZZ=ZZ+ZZ
 18760		777777	377777			YY=YY+YY+1
 18761						IFE	ZZ,<ZZ=1>
 18762						IFE	<YY-1>,<YY=-2>
 18763	041077	204 00 0 00 070546 		MOVS	[XWD YY,ZZ]	;*MOVS SHOULD SWAP HALVES OF C(E)
 18764									;AND MOVE RESULT INTO AC
 18765	041100	312 00 0 00 070545 		CAME	[XWD ZZ,YY]	;PASS TEST IF C(AC)=ZZ,,YY
 18766						STOP		^
 18767	041101	254 04 0 00 041102 		HALT	.+1		;TEST FAILED IF PROGRAM HALTS HERE
 18768	041102	324 00 0 00 041103 		JUMPA	.+1		;IF TEST FAILS, CHANGE THIS INSTRUCTION (JUMPA .+1) TO
 18769									;JUMPA X (X IS THE ADDRESS OF THE FIRST INSTRUCTION
 18770									;IN THE SUBTEST) TO LOOP ON ERROR^
 18771
 18772					;**********
 18773
DFKAA PDP-10 KL10 BASIC INSTRUCTION DIAGNOSTIC (1) VER 0,2	MACRO %52(537) 09:34 31-JAN-77 PAGE 30
DFKAA2	MAC	25-AUG-75 13:56		TEST OF COMPARE (CAXX) INSTRUCTIONS                                                SEQ 0398

 18774					SUBTTL	TEST OF COMPARE (CAXX) INSTRUCTIONS
 18775
 18776					;**********
 18777
 18778					;THIS TEST VERIFIES THAT CAIE SKIPS THE NEXT SEQUENTIAL INSTRUCTION WHEN
 18779					;AND ONLY WHEN C(AC)=E
 18780					;IN THIS CASE C(AC)=E=0;  HENCE, CAIE SHOULD SKIP
 18781					;OTHERWISE THE PROGRAM HALTS
 18782
 18783	041103	400 00 0 00 000000 	B2500:	SETZ			;PRELOAD AC TO 0
 18784	041104	302 00 0 00 000000 		CAIE			;*CAIE SHOULD SKIP BECAUSE C(AC)=E
 18785						STOP^
 18786	041105	254 04 0 00 041106 		HALT	.+1		;TEST FAILED IF PROGRAM HALTS HERE
 18787	041106	324 00 0 00 041107 		JUMPA	.+1		;IF TEST FAILS, CHANGE THIS INSTRUCTION (JUMPA .+1) TO
 18788									;JUMPA X (X IS THE ADDRESS OF THE FIRST INSTRUCTION
 18789									;IN THE SUBTEST) TO LOOP ON ERROR^
 18790
 18791					;*****     FAILURE ANALYSIS     *****
 18792					;C(AC0)		C(AC1)		FAILING SIGNAL
 18793
 18794					;				SW: PC CHANGE
 18795					;				FC: AD FM ; EN
 18796					;				FC: AD CRY 36
 18797					;				FC: AB PC EN
 18798					;				ET0: COND P: PC CLK EN
 18799
 18800					;**********
 18801
 18802					;THIS TEST VERIFIES THAT CAIE SKIPS THE NEXT SEQUENTIAL INSTRUCTION WHEN
 18803					;AND ONLY WHEN C(AC)=E
 18804					;IN THIS CASE C(AC)=E=1.  HENCE, CAIE SHOULD SKIP
 18805					;OTHERWISE THE PROGRAM HALTS
 18806
 18807	041107	200 00 0 00 070265 	B2600:	MOVE	[1]		;PRELOAD AC TO 1
 18808	041110	302 00 0 00 000001 		CAIE	1		;*CAIE SHOULD SKIP BECAUSE C(AC)=E
 18809						STOP^
 18810	041111	254 04 0 00 041112 		HALT	.+1		;TEST FAILED IF PROGRAM HALTS HERE
 18811	041112	324 00 0 00 041113 		JUMPA	.+1		;IF TEST FAILS, CHANGE THIS INSTRUCTION (JUMPA .+1) TO
 18812									;JUMPA X (X IS THE ADDRESS OF THE FIRST INSTRUCTION
 18813									;IN THE SUBTEST) TO LOOP ON ERROR^
 18814
 18815					;*****     FAILURE ANALYSIS     *****
 18816					;C(AC0)		C(AC1)		FAILING SIGNAL
 18817
 18818					;				FC: AD AR - EN
 18819
 18820					;**********
 18821
 18822					;THIS TEST VERIFIES THAT CAME SKIPS THE NEXT SEQUENTIAL INSTRUCTION WHEN
 18823					;AND ONLY WHEN C(AC)=C(E)
 18824					;IN THIS CASE C(AC)=C(E)=1;  HENCE, CAME SHOULD SKIP
 18825					;OTHERWISE THE PROGRAM HALTS
 18826
 18827	041113	201 00 0 00 000001 	B2700:	MOVEI	1		;PRELOAD AC TO 1
 18828	041114	312 00 0 00 070265 		CAME	[1]		;*CAME SHOULD SKIP BECAUSE C(AC)=C(E)
DFKAA PDP-10 KL10 BASIC INSTRUCTION DIAGNOSTIC (1) VER 0,2	MACRO %52(537) 09:34 31-JAN-77 PAGE 30-1
DFKAA2	MAC	25-AUG-75 13:56		TEST OF COMPARE (CAXX) INSTRUCTIONS                                                SEQ 0399

 18829						STOP^
 18830	041115	254 04 0 00 041116 		HALT	.+1		;TEST FAILED IF PROGRAM HALTS HERE
 18831	041116	324 00 0 00 041117 		JUMPA	.+1		;IF TEST FAILS, CHANGE THIS INSTRUCTION (JUMPA .+1) TO
 18832									;JUMPA X (X IS THE ADDRESS OF THE FIRST INSTRUCTION
 18833									;IN THE SUBTEST) TO LOOP ON ERROR^
 18834
 18835					;**********
DFKAA PDP-10 KL10 BASIC INSTRUCTION DIAGNOSTIC (1) VER 0,2	MACRO %52(537) 09:34 31-JAN-77 PAGE 31
DFKAA2	MAC	25-AUG-75 13:56		TEST OF BOOLEAN INSTRUCTIONS                                                       SEQ 0400

 18836					SUBTTL	TEST OF BOOLEAN INSTRUCTIONS
 18837
 18838					;**********
 18839
 18840					;THIS TEST VERIFIES THAT SETCA IGNORES THE ADDRESS FIELD OF THE INSTUCTION WORD.
 18841					;IN THIS CASE C(AC)=0,,-1;  HENCE, THE RESULT IN THE AC SHOULD BE -1,,0
 18842					;IF THE RESULT IN THE AC IS -1,,0, THE TEST PASSES.
 18843
 18844	041117	201 00 0 00 777777 	B3000:	MOVEI	-1		;PRELOAD AC TO 0,,-1
 18845	041120	450 00 0 00 070254 		SETCA	[-1]		;*SETCA SHOULD PUT -1,,0 INTO THE AC
 18846	041121	312 00 0 00 070331 		CAME	[-1,,0]		;PASS TEST IF C(AC)=-1,,0
 18847						STOP^
 18848	041122	254 04 0 00 041123 		HALT	.+1		;TEST FAILED IF PROGRAM HALTS HERE
 18849	041123	324 00 0 00 041124 		JUMPA	.+1		;IF TEST FAILS, CHANGE THIS INSTRUCTION (JUMPA .+1) TO
 18850									;JUMPA X (X IS THE ADDRESS OF THE FIRST INSTRUCTION
 18851									;IN THE SUBTEST) TO LOOP ON ERROR^
 18852
 18853					;**********
 18854
 18855					;THIS TEST VERIFIES THAT SETCA COMPLEMENTS C(AC), THEN PLACES THE
 18856					;RESULT IN THE AC.
 18857					;IN THIS CASE C(AC)=0,,-1;  HENCE, THE RESULT IN THE AC SHOULD BE -1,,0
 18858					;IF THE RESULT IN THE AC IS -1,,0, THE TEST PASSES
 18859
 18860	041124	201 00 0 00 777777 	B3100:	MOVEI	-1		;PRELOAD AC TO 0,,-1
 18861	041125	450 00 0 00 000000 		SETCA			;*SETCA SHOULD PUT -1,,0 INTO THE AC
 18862	041126	312 00 0 00 070331 		CAME	[-1,,0]		;PASS TEST IF C(AC) =-1,,0
 18863						STOP^
 18864	041127	254 04 0 00 041130 		HALT	.+1		;TEST FAILED IF PROGRAM HALTS HERE
 18865	041130	324 00 0 00 041131 		JUMPA	.+1		;IF TEST FAILS, CHANGE THIS INSTRUCTION (JUMPA .+1) TO
 18866									;JUMPA X (X IS THE ADDRESS OF THE FIRST INSTRUCTION
 18867									;IN THE SUBTEST) TO LOOP ON ERROR^
 18868
 18869					;**********
DFKAA PDP-10 KL10 BASIC INSTRUCTION DIAGNOSTIC (1) VER 0,2	MACRO %52(537) 09:34 31-JAN-77 PAGE 32
DFKAA2	MAC	25-AUG-75 13:56		TEST OF BOOLEAN INSTRUCTIONS                                                       SEQ 0401

 18870					;THIS TEST VERIFIES THAT SETCA COMPLEMENTS C(AC), THEN PLACES THE
 18871					;RESULT IN THE AC,
 18872					;IN THIS CASE C(AC)=0,,0  HENCE, THE RESULT IN THE AC SHOULD BE,-1
 18873					;IF THE RESULT IN THE AC IS -1,,-1, THE TEST PASSES
 18874
 18875	041131	201 00 0 00 000000 	B3200:	MOVEI	0		;PRELOAD AC TO 0,,0
 18876	041132	450 00 0 00 000000 		SETCA			;*SETCA SHOULD PUT -1,,-1 INTO THE AC
 18877	041133	312 00 0 00 070254 		CAME	[-1]		;PASS TEST IF C(AC) =-1,,-1
 18878						STOP^
 18879	041134	254 04 0 00 041135 		HALT	.+1		;TEST FAILED IF PROGRAM HALTS HERE
 18880	041135	324 00 0 00 041136 		JUMPA	.+1		;IF TEST FAILS, CHANGE THIS INSTRUCTION (JUMPA .+1) TO
 18881									;JUMPA X (X IS THE ADDRESS OF THE FIRST INSTRUCTION
 18882									;IN THE SUBTEST) TO LOOP ON ERROR^
 18883
 18884					;*****     FAILURE ANALYSIS     *****
 18885					;C(AC0)		C(AC1)		FAILING SIGNAL
 18886
 18887					;0				ET2: AR AD EN
 18888
 18889					;**********
 18890
 18891					;THIS TEST VERIFIES THAT SETCA COMPLEMENTS C(AC), THEN PLACES THE
 18892					;RESULT IN THE AC,
 18893					;IN THIS CASE C(AC)=-1,,-1;  HENCE, THE RESULT IN THE AC SHOULD BE 0,,0
 18894					;IF THE RESULT IN THE AC IS ZERO, THE TEST PASSES
 18895
 18896	041136	200 00 0 00 070254 	B3300:	MOVE	[-1]		;PRELOAD AC TO -1,,-1
 18897	041137	450 00 0 00 000000 		SETCA			;*SETCA SHOULD PUT 0,,0 INTO THE AC
 18898	041140	312 00 0 00 070253 		CAME	[0]		;PASS TEST IF C(AC) IS ZERO
 18899						STOP^
 18900	041141	254 04 0 00 041142 		HALT	.+1		;TEST FAILED IF PROGRAM HALTS HERE
 18901	041142	324 00 0 00 041143 		JUMPA	.+1		;IF TEST FAILS, CHANGE THIS INSTRUCTION (JUMPA .+1) TO
 18902									;JUMPA X (X IS THE ADDRESS OF THE FIRST INSTRUCTION
 18903									;IN THE SUBTEST) TO LOOP ON ERROR^
 18904
 18905					;*****     FAILURE ANALYSIS     *****
 18906					;C(AC0)		C(AC1)		FAILING SIGNAL
 18907
 18908					;-1,,-1				FC: AD FM - EN
 18909
 18910					;**********
DFKAA PDP-10 KL10 BASIC INSTRUCTION DIAGNOSTIC (1) VER 0,2	MACRO %52(537) 09:34 31-JAN-77 PAGE 33
DFKAA2	MAC	25-AUG-75 13:56		TEST OF BOOLEAN INSTRUCTIONS                                                       SEQ 0402

 18911					;THIS TEST VERIFIES THAT SETCM COMPLEMENTS C(E), THEN PLACES THE
 18912					;RESULT IN THE AC.
 18913					;IN THIS CASE AC=E AND C(E)=C(AC)=0,,-1;  HENCE, THE RESULT IN THE AC SHOULD BE -1,,0
 18914					;IF THE RESULT IN THE AC IS -1,,0, THE TEST PASSES
 18915
 18916	041143	201 00 0 00 777777 	B3500:	MOVEI	-1		;PRELOAD AC TO 0,,-1
 18917	041144	460 00 0 00 000000 		SETCM			;*SETCM SHOULD PUT -1,,0 INTO THE AC
 18918	041145	312 00 0 00 070331 		CAME	[-1,,0]		;PASS TEST IF C(AC) =-1,,0
 18919						STOP^
 18920	041146	254 04 0 00 041147 		HALT	.+1		;TEST FAILED IF PROGRAM HALTS HERE
 18921	041147	324 00 0 00 041150 		JUMPA	.+1		;IF TEST FAILS, CHANGE THIS INSTRUCTION (JUMPA .+1) TO
 18922									;JUMPA X (X IS THE ADDRESS OF THE FIRST INSTRUCTION
 18923									;IN THE SUBTEST) TO LOOP ON ERROR^
 18924
 18925					;*****     FAILURE ANALYSIS     *****
 18926					;C(AC0)		C(AC1)		FAILING SIGNAL
 18927
 18928					;-1,,-1				SW: FCE
 18929					;-1,,-1				FC: AD AR - EN
 18930					;0,,-1				ET2: AR AD EN
 18931
 18932					;**********
 18933
 18934					;THIS TEST VERIFIES THAT SETCM COMPLEMENTS C(E), THEN PLACES THE
 18935					;RESULT IN THE AC.
 18936					;IN THIS CASE C(E)=-1,,-1;  HENCE, THE RESULT IN THE AC SHOULD BE 0,,0
 18937					;IF THE RESULT IN THE AC IS ZERO,THE TEST PASSES
 18938
 18939	041150	460 00 0 00 070254 	B3600:	SETCM	[-1]		;*SETCM SHOULD PUT 0 INTO THE AC
 18940	041151	332 00 0 00 000000 		SKIPE			;PASS TEST IF C(AC0)=0
 18941						STOP^
 18942	041152	254 04 0 00 041153 		HALT	.+1		;TEST FAILED IF PROGRAM HALTS HERE
 18943	041153	324 00 0 00 041154 		JUMPA	.+1		;IF TEST FAILS, CHANGE THIS INSTRUCTION (JUMPA .+1) TO
 18944									;JUMPA X (X IS THE ADDRESS OF THE FIRST INSTRUCTION
 18945									;IN THE SUBTEST) TO LOOP ON ERROR^
 18946
 18947					;**********
DFKAA PDP-10 KL10 BASIC INSTRUCTION DIAGNOSTIC (1) VER 0,2	MACRO %52(537) 09:34 31-JAN-77 PAGE 34
DFKAA2	MAC	25-AUG-75 13:56		TEST OF BOOLEAN INSTRUCTIONS                                                       SEQ 0403

 18948					;THIS TEST VERIFIES THAT SETCM COMPLEMENTS C(E), THEN PLACES THE
 18949					;RESULT IN THE AC.
 18950					;IN THIS CASE C(E)=0,,0;  HENCE, THE RESULT IN THE AC SHOULD BE -1,,-1
 18951					;IF THE RESULT IN THE AC IS -1,,-1,THE TEST PASSES
 18952
 18953	041154	460 00 0 00 070253 	B3700:	SETCM	[0]		;*SETCM SHOULD PUT -1,,-1 INTO THE AC
 18954	041155	312 00 0 00 070254 		CAME	[-1]		;PASS TEST IF C(AC)=-1,,-1
 18955						STOP^
 18956	041156	254 04 0 00 041157 		HALT	.+1		;TEST FAILED IF PROGRAM HALTS HERE
 18957	041157	324 00 0 00 041160 		JUMPA	.+1		;IF TEST FAILS, CHANGE THIS INSTRUCTION (JUMPA .+1) TO
 18958									;JUMPA X (X IS THE ADDRESS OF THE FIRST INSTRUCTION
 18959									;IN THE SUBTEST) TO LOOP ON ERROR^
 18960
 18961					;**********
DFKAA PDP-10 KL10 BASIC INSTRUCTION DIAGNOSTIC (1) VER 0,2	MACRO %52(537) 09:34 31-JAN-77 PAGE 35
DFKAA2	MAC	25-AUG-75 13:56		TEST OF BOOLEAN INSTRUCTIONS                                                       SEQ 0404

 18962					;THIS TEST VERIFIES THAT SETO SETS C(AC) TO -1,,-1.  SETO IGNORES
 18963					;THE ADDRESS FIELD OF THE INSTRUCTION WORD.
 18964					;FIRST C(AC) IS SET TO 0,,0; THEN SETO IS EXECUTED.
 18965					;THE AC IS THEN CHECKED FOR ALL ONES.  IF C(AC) IS ALL ONES,
 18966					;THE TEST PASSES
 18967
 18968	041160	201 00 0 00 000000 	B4300:	MOVEI	0		;PRELOAD AC WITH 0,,0
 18969	041161	474 00 0 00 000000 		SETO			;*SETO SHOULD LOAD THE AC WITH -1,,-1
 18970	041162	312 00 0 00 070254 		CAME	[-1]		;PASS TEST IF C(AC)=-1,,-1
 18971						STOP^
 18972	041163	254 04 0 00 041164 		HALT	.+1		;TEST FAILED IF PROGRAM HALTS HERE
 18973	041164	324 00 0 00 041165 		JUMPA	.+1		;IF TEST FAILS, CHANGE THIS INSTRUCTION (JUMPA .+1) TO
 18974									;JUMPA X (X IS THE ADDRESS OF THE FIRST INSTRUCTION
 18975									;IN THE SUBTEST) TO LOOP ON ERROR^
 18976
 18977					;*****     FAILURE ANALYSIS     *****
 18978					;C(AC0)		C(AC1)		FAILING SIGNAL
 18979
 18980					;0				ET2: AR AD EN
 18981
 18982					;**********
DFKAA PDP-10 KL10 BASIC INSTRUCTION DIAGNOSTIC (1) VER 0,2	MACRO %52(537) 09:34 31-JAN-77 PAGE 36
DFKAA2	MAC	25-AUG-75 13:56		TEST OF BOOLEAN INSTRUCTIONS                                                       SEQ 0405

 18983					;THIS TEST VERIFIES THAT ORCM CHANGES C(AC) TO THE LOGICAL
 18984					;INCLUSIVE OR OF C(AC) WITH THE COMPLEMENT OF C(MEMORY).
 18985					;IN THIS CASE AC=MEMORY=AC0 AND C(AC)=C(E)=0.
 18986					;HENCE THE RESULT IN THE AC SHOULD BE ALL ONES.
 18987					;THE AC IS CHECKED FOR ITS FINAL CONTENTS NON-ZERO.
 18988					;IF C(AC) IS NOT=0, THE TEST PASSES
 18989
 18990	041165	201 00 0 00 000000 	B4400:	MOVEI	0		;PRELOAD AC,E WITH 0
 18991	041166	464 00 0 00 000000 		ORCM			;*ORCM SHOULD PUT ALL ONES INTO AC0
 18992	041167	336 00 0 00 000000 		SKIPN			;PASS IF C(AC) IS NON-ZERO
 18993						STOP^
 18994	041170	254 04 0 00 041171 		HALT	.+1		;TEST FAILED IF PROGRAM HALTS HERE
 18995	041171	324 00 0 00 041172 		JUMPA	.+1		;IF TEST FAILS, CHANGE THIS INSTRUCTION (JUMPA .+1) TO
 18996									;JUMPA X (X IS THE ADDRESS OF THE FIRST INSTRUCTION
 18997									;IN THE SUBTEST) TO LOOP ON ERROR^
 18998
 18999					;**********
 19000
 19001					;THIS TEST VERIFIES THAT ORCM CHANGES C(AC) TO THE LOGICAL
 19002					;INCLUSIVE OR OF C(AC) WITH COMPLEMENT OF C(MEMORY).
 19003					;IN THIS CASE AC=MEMORY=AC0 AND C(AC)=C(E)=0
 19004					;HENCE THE RESULT IN THE AC SHOULD BE ALL ONES.
 19005					;THE AC IS CHECKED FOR ITS FINAL CONTENTS EQUAL TO -1,,-1
 19006					;IF C(AC0)=-1,,-1, THE TEST PASSES
 19007
 19008	041172	201 00 0 00 000000 	B4500:	MOVEI	0		;PRELOAD AC,E WITH 0
 19009	041173	464 00 0 00 000000 		ORCM			;*ORCM SHOULD PUT ALL ONES INTO AC0
 19010	041174	312 00 0 00 070254 		CAME	[-1]		;PASS IF C(AC)=-1,,-1
 19011						STOP^
 19012	041175	254 04 0 00 041176 		HALT	.+1		;TEST FAILED IF PROGRAM HALTS HERE
 19013	041176	324 00 0 00 041177 		JUMPA	.+1		;IF TEST FAILS, CHANGE THIS INSTRUCTION (JUMPA .+1) TO
 19014									;JUMPA X (X IS THE ADDRESS OF THE FIRST INSTRUCTION
 19015									;IN THE SUBTEST) TO LOOP ON ERROR^
 19016
 19017					;*****     FAILURE ANALYSIS     *****
 19018					;C(AC0)		C(AC1)		FAILING SIGNAL
 19019
 19020					;0				SW: ET0
 19021					;0				FC: AD AR + EN
 19022					;0				ET2: AR AD EN
 19023
 19024					;**********
DFKAA PDP-10 KL10 BASIC INSTRUCTION DIAGNOSTIC (1) VER 0,2	MACRO %52(537) 09:34 31-JAN-77 PAGE 37
DFKAA2	MAC	25-AUG-75 13:56		TEST OF BOOLEAN INSTRUCTIONS                                                       SEQ 0406

 19025					;THIS TEST VERIFIES THAT ORCM CHANGES C(AC) TO THE LOGICAL
 19026					;INCLUSIVE OR OF C(AC) WITH COMPLEMENT OF C(MEMORY).
 19027					;IN THIS CASE AC=MEMORY=AC0 AND C(AC)=C(E)=-1,,-1
 19028					;HENCE THE RESULT IN THE AC SHOULD BE ALL ONES.
 19029					;THE AC IS CHECKED FOR ITS FINAL CONTENTS EQUAL TO -1,,-1
 19030					;IF C(AC0)=-1,,-1, THE TEST PASSES
 19031
 19032	041177	200 00 0 00 070254 	B4600:	MOVE	[-1]		;PRELOAD AC,E WITH -1,,-1
 19033	041200	464 00 0 00 000000 		ORCM			;*ORCM SHOULD PUT ALL ONES INTO AC0
 19034	041201	312 00 0 00 070254 		CAME	[-1]		;PASS IF C(AC)=-1,,-1
 19035						STOP^
 19036	041202	254 04 0 00 041203 		HALT	.+1		;TEST FAILED IF PROGRAM HALTS HERE
 19037	041203	324 00 0 00 041204 		JUMPA	.+1		;IF TEST FAILS, CHANGE THIS INSTRUCTION (JUMPA .+1) TO
 19038									;JUMPA X (X IS THE ADDRESS OF THE FIRST INSTRUCTION
 19039									;IN THE SUBTEST) TO LOOP ON ERROR^
 19040
 19041					;*****     FAILURE ANALYSIS     *****
 19042					;C(AC0)		C(AC1)		FAILING SIGNAL
 19043
 19044					;0				FC: AD FM - EN
 19045					;0				ET0: AR AD EN
 19046
 19047					;**********
 19048
 19049					;THIS TEST VERIFIES THAT ORCM CHANGES C(AC) TO THE LOGICAL
 19050					;INCLUSIVE OR OF C(AC) WITH COMPLEMENT OF C(MEMORY).
 19051					;IN THIS CASE C(AC)=0 AND C(E)=-1,,-1; HENCE, THE RESULT
 19052					;IN THE AC SHOULD BE 0.  THE AC IS CHECKED FOR ITS INAL CONTENTS=0.
 19053					;IF C(AC)=0, THE TEST PASSES
 19054
 19055	041204	201 00 0 00 000000 	B4700:	MOVEI	0		;PRELOAD AC WITH 0
 19056	041205	464 00 0 00 070254 		ORCM	[-1]		;*ORCM SHOULD PLACE ALL ZEROS INTO THE AC
 19057	041206	332 00 0 00 000000 		SKIPE			;PASS IF C(AC)=0,,0
 19058						STOP^
 19059	041207	254 04 0 00 041210 		HALT	.+1		;TEST FAILED IF PROGRAM HALTS HERE
 19060	041210	324 00 0 00 041211 		JUMPA	.+1		;IF TEST FAILS, CHANGE THIS INSTRUCTION (JUMPA .+1) TO
 19061									;JUMPA X (X IS THE ADDRESS OF THE FIRST INSTRUCTION
 19062									;IN THE SUBTEST) TO LOOP ON ERROR^
 19063
 19064					;*****     FAILURE ANALYSIS     *****
 19065					;C(AC0)		C(AC1)		FAILING SIGNAL
 19066
 19067					;-E				SW: FCE
 19068
 19069					;**********
DFKAA PDP-10 KL10 BASIC INSTRUCTION DIAGNOSTIC (1) VER 0,2	MACRO %52(537) 09:34 31-JAN-77 PAGE 38
DFKAA2	MAC	25-AUG-75 13:56		TEST OF BOOLEAN INSTRUCTIONS                                                       SEQ 0407

 19070					;THIS TEST VERIFIES THAT IOR CHANGES C(AC) TO THE LOGICAL
 19071					;INCLUSIVE OR OF C(AC) WITH C(E).
 19072					;IN THIS CASE AC=E AND C(AC)=C(E)=0,,0.  HENCE THE
 19073					;RESULT IN THE AC SHOULD BE 0,,0.
 19074					;THE AC IS CHECKED FOR 0,,0.  IF C(AC)=0,,0, THIS TEST PASSES
 19075
 19076	041211	201 00 0 00 000000 	B5000:	MOVEI	0		;PRELOAD AC,E WITH 0,,0
 19077	041212	434 00 0 00 000000 		IOR			;*IOR SHOULD PUT 0 INTO AC
 19078	041213	332 00 0 00 000000 		SKIPE			;PASS TEST IF C(AC)=0,,0
 19079						STOP^
 19080	041214	254 04 0 00 041215 		HALT	.+1		;TEST FAILED IF PROGRAM HALTS HERE
 19081	041215	324 00 0 00 041216 		JUMPA	.+1		;IF TEST FAILS, CHANGE THIS INSTRUCTION (JUMPA .+1) TO
 19082									;JUMPA X (X IS THE ADDRESS OF THE FIRST INSTRUCTION
 19083									;IN THE SUBTEST) TO LOOP ON ERROR^
 19084
 19085					;*****     FAILURE ANALYSIS     *****
 19086					;C(AC0)		C(AC1)		FAILING SIGNAL
 19087
 19088					;-1,,-1				SW: ET0
 19089					;-1,,-1				ET0: AR AD EN
 19090					;-1,,-1				ET0: AD AR - EN
 19091					;-1,,-1				ET2: AR AD EN
 19092
 19093					;**********
 19094
 19095					;THIS TEST VERIFIES THAT IOR CHANGES C(AC) TO THE LOGICAL
 19096					;INCLUSIVE OR OF C(AC) WITH C(E).
 19097					;IN THIS CASE C(AC)=0 AND C(E)=-1,,-1.  HENCE, THE
 19098					;RESULT IN THE AC SHOULD BE -1,,-1.
 19099					;THE AC IS CHECKED FOR -1,,-1
 19100					;IF C(AC) =-1,,-1 THE TEST PASSES.
 19101
 19102	041216	201 00 0 00 000000 	B5100:	MOVEI	0		;PRELOAD AC WITH 0
 19103	041217	434 00 0 00 070254 		IOR	[-1]		;*IOR SHOULD PUT -1,,-1 INTO AC
 19104	041220	312 00 0 00 070254 		CAME	[-1]		;PASS TEST IF C(AC)  =-1,,-1
 19105						STOP^
 19106	041221	254 04 0 00 041222 		HALT	.+1		;TEST FAILED IF PROGRAM HALTS HERE
 19107	041222	324 00 0 00 041223 		JUMPA	.+1		;IF TEST FAILS, CHANGE THIS INSTRUCTION (JUMPA .+1) TO
 19108									;JUMPA X (X IS THE ADDRESS OF THE FIRST INSTRUCTION
 19109									;IN THE SUBTEST) TO LOOP ON ERROR^
 19110
 19111					;*****     FAILURE ANALYSIS     *****
 19112					;C(AC0)		C(AC1)		FAILING SIGNAL
 19113
 19114					;E				SW: FCE
 19115					;0				FC: AD AR - EN
 19116
 19117					;*****     FAILURE ANALYSIS     *****
 19118					;C(AC0)		C(AC1)		FAILING SIGNAL
 19119
 19120					;0				FC: AD FM - EN
 19121
 19122	041223				NB5300:;**********
DFKAA PDP-10 KL10 BASIC INSTRUCTION DIAGNOSTIC (1) VER 0,2	MACRO %52(537) 09:34 31-JAN-77 PAGE 39
DFKAA2	MAC	25-AUG-75 13:56		TEST OF BOOLEAN INSTRUCTIONS                                                       SEQ 0408

 19123					;THIS TEST VERIFIES THAT IOR CHANGES C(AC) TO THE LOGICAL
 19124					;INCLUSIVE OR OF C(AC) WITH C(E).
 19125					;IN THIS CASE C(AC)=0 AND C(E)=-1,,-1.  HENCE, THE
 19126					;RESULT IN THE AC SHOULD BE -1,,-1
 19127					;THE AC IS CHECKED FOR ITS CONTENTS = ALL ONES
 19128					;IF C(AC)=-1, THE TEST PASSES
 19129
 19130	041223	474 00 0 00 000000 	B5200:	SETO			;PRELOAD AC WITH -1,,-1
 19131	041224	434 00 0 00 070254 		IOR	[-1]		;*IOR SHOULD PUT -1,,-1 INTO AC
 19132	041225	312 00 0 00 070254 		CAME	[-1]		;PASS TEST IF C(AC)=-1,,-1
 19133						STOP^
 19134	041226	254 04 0 00 041227 		HALT	.+1		;TEST FAILED IF PROGRAM HALTS HERE
 19135	041227	324 00 0 00 041230 		JUMPA	.+1		;IF TEST FAILS, CHANGE THIS INSTRUCTION (JUMPA .+1) TO
 19136									;JUMPA X (X IS THE ADDRESS OF THE FIRST INSTRUCTION
 19137									;IN THE SUBTEST) TO LOOP ON ERROR^
 19138
 19139					;**********
 19140
 19141					;THIS TEST VERIFIES THAT IOR CHANGES C(AC) TO THE LOGICAL
 19142					;INCLUSIVE OR OF C(AC) WITH C(E).
 19143					;IN THIS CASE C(AC)=0 AND C(E)=-1,,-1.  HENCE, THE
 19144					;RESULT IN THE AC SHOULD BE -1,,-1
 19145					;THE AC IS CHECKED FOR ITS CONTENTS = ALL ONES
 19146					;IF C(AC)=-1,,-1, THE TEST PASSES
 19147
 19148	041230	474 00 0 00 000000 	B5300:	SETO			;PRELOAD AC WITH -1,,-1
 19149	041231	434 00 0 00 070253 		IOR	[0]		;*IOR SHOULD PUT -1,,-1 INTO AC
 19150	041232	312 00 0 00 070254 		CAME	[-1]		;PASS TEST IF C(AC)=-1,,-1
 19151						STOP^
 19152	041233	254 04 0 00 041234 		HALT	.+1		;TEST FAILED IF PROGRAM HALTS HERE
 19153	041234	324 00 0 00 041235 		JUMPA	.+1		;IF TEST FAILS, CHANGE THIS INSTRUCTION (JUMPA .+1) TO
 19154									;JUMPA X (X IS THE ADDRESS OF THE FIRST INSTRUCTION
 19155									;IN THE SUBTEST) TO LOOP ON ERROR^
 19156
 19157					;**********
DFKAA PDP-10 KL10 BASIC INSTRUCTION DIAGNOSTIC (1) VER 0,2	MACRO %52(537) 09:34 31-JAN-77 PAGE 40
DFKAA2	MAC	25-AUG-75 13:56		TEST OF BOOLEAN INSTRUCTIONS                                                       SEQ 0409

 19158					;THIS TEST VERIFIES THAT ANDCM CHANGES C(AC) TO THE LOGICAL AND
 19159					;OF C(AC) AND THE COMPLEMENT OF C(MEMORY).
 19160					;IN THIS CASE C(AC)=-1,,-1 AND C(E)=-1,,0.  HENCE, THE RESULT
 19161					;IN THE AC SHOULD BE 0,,-1
 19162					;THE AC IS CHECKED FOR 0,,-1.  IF C(AC)=0,,-1, THE TEST PASSES
 19163
 19164	041235	474 00 0 00 000000 	B5500:	SETO			;PRELOAD AC WITH ALL ONES
 19165	041236	420 00 0 00 070331 		ANDCM	[XWD -1,0]	;*ANDCM SHOULD PLACE 0,,-1 IN THE AC
 19166	041237	312 00 0 00 070330 		CAME	[0,,-1]		;IF C(AC)=0,,-1, THE TEST PASSES
 19167						STOP^
 19168	041240	254 04 0 00 041241 		HALT	.+1		;TEST FAILED IF PROGRAM HALTS HERE
 19169	041241	324 00 0 00 041242 		JUMPA	.+1		;IF TEST FAILS, CHANGE THIS INSTRUCTION (JUMPA .+1) TO
 19170									;JUMPA X (X IS THE ADDRESS OF THE FIRST INSTRUCTION
 19171									;IN THE SUBTEST) TO LOOP ON ERROR^
 19172
 19173					;*****     FAILURE ANALYSIS     *****
 19174					;C(AC0)		C(AC1)		FAILING SIGNAL
 19175
 19176					;-E				SW: FCE
 19177					;-1,,-1				FC: AD AR - EN
 19178					;-1,,0				ET2: AR AD EN
 19179
 19180					;**********
 19181
 19182					;THIS TEST VERIFIES THAT ANDCM CHANGES C(AC) TO THE LOGICAL AND
 19183					;OF C(AC) AND THE COMPLEMENT OF C(MEMORY).
 19184					;IN THIS CASE AC=E=AC0 AND C(AC)=C(E)=0.  HENCE,
 19185					;THE RESULT IN THE AC SHOULD BE 0.  THE AC IS CHECKED FOR 0.
 19186					;IF C(AC)=0, THE TEST PASSES.
 19187
 19188	041242	474 00 0 00 000000 	B5600:	SETO			;PRELOAD AC WITH ALL ONES
 19189	041243	420 00 0 00 000000 		ANDCM			;*ANDCM SHOULD PLACE 0 IN THE AC
 19190	041244	332 00 0 00 000000 		SKIPE			;IF C(AC)=0, THE TEST PASSES.
 19191						STOP^
 19192	041245	254 04 0 00 041246 		HALT	.+1		;TEST FAILED IF PROGRAM HALTS HERE
 19193	041246	324 00 0 00 041247 		JUMPA	.+1		;IF TEST FAILS, CHANGE THIS INSTRUCTION (JUMPA .+1) TO
 19194									;JUMPA X (X IS THE ADDRESS OF THE FIRST INSTRUCTION
 19195									;IN THE SUBTEST) TO LOOP ON ERROR^
 19196
 19197					;**********
DFKAA PDP-10 KL10 BASIC INSTRUCTION DIAGNOSTIC (1) VER 0,2	MACRO %52(537) 09:34 31-JAN-77 PAGE 41
DFKAA2	MAC	25-AUG-75 13:56		TEST OF BOOLEAN INSTRUCTIONS                                                       SEQ 0410

 19198					;THIS TEST VERIFIES THAT ANDCM CHANGES C(AC) TO THE LOGICAL AND
 19199					;OF C(AC) AND THE COMPLEMENT OF C(MEMORY).
 19200					;IN THIS CASE C(AC)=-1,,-1, AND C(E)=0.  HENCE, THE RESULT IN THE AC
 19201					;SHOULD BE ALL ONES.  THE AC IS CHECKED FOR -1,,-1.
 19202					;IF C(AC)=-1,,-1, THE TEST PASSES
 19203
 19204	041247	474 00 0 00 000000 	B5700:	SETO			;PRELOAD AC WITH 0
 19205	041250	420 00 0 00 070253 		ANDCM	[0]		;*ANDCM SHOULD PLACE -1,,-1 IN THE AC
 19206	041251	312 00 0 00 070254 		CAME	[-1]		;IF C(AC)=-1,,-1, THE TEST PASSES
 19207						STOP^
 19208	041252	254 04 0 00 041253 		HALT	.+1		;TEST FAILED IF PROGRAM HALTS HERE
 19209	041253	324 00 0 00 041254 		JUMPA	.+1		;IF TEST FAILS, CHANGE THIS INSTRUCTION (JUMPA .+1) TO
 19210									;JUMPA X (X IS THE ADDRESS OF THE FIRST INSTRUCTION
 19211									;IN THE SUBTEST) TO LOOP ON ERROR^
 19212
 19213					;**********
 19214
 19215					;THIS TEST VERIFIES THAT ANDCM CHANGES C(AC) TO THE LOGICAL AND
 19216					;OF C(AC) AND THE COMPLEMENT OF C(MEMORY).
 19217					;IN THIS CASE, AC=E AND C(AC)=C(E)=0.  HENCE, THE RESULT IN THE AC
 19218					;SHOULD BE 0.  THE AC IS CHECKED FOR 0.
 19219					;IF C(AC)=0, THE TEST PASSES
 19220
 19221	041254	201 00 0 00 000000 	B6000:	MOVEI	0		;PRELOAD AC WITH 0
 19222	041255	420 00 0 00 000000 		ANDCM			;*ANDCM SHOULD PLACE 0 IN THE AC
 19223	041256	332 00 0 00 000000 		SKIPE			;IF C(AC)=0, THE TEST PASSES.
 19224						STOP^
 19225	041257	254 04 0 00 041260 		HALT	.+1		;TEST FAILED IF PROGRAM HALTS HERE
 19226	041260	324 00 0 00 041261 		JUMPA	.+1		;IF TEST FAILS, CHANGE THIS INSTRUCTION (JUMPA .+1) TO
 19227									;JUMPA X (X IS THE ADDRESS OF THE FIRST INSTRUCTION
 19228									;IN THE SUBTEST) TO LOOP ON ERROR^
 19229
 19230					;*****     FAILURE ANALYSIS     *****
 19231					;C(AC0)		C(AC1)		FAILING SIGNAL
 19232
 19233					;-1,,-1				FC: AD FM + EN
 19234
 19235					;**********
DFKAA PDP-10 KL10 BASIC INSTRUCTION DIAGNOSTIC (1) VER 0,2	MACRO %52(537) 09:34 31-JAN-77 PAGE 42
DFKAA2	MAC	25-AUG-75 13:56		TEST OF BOOLEAN INSTRUCTIONS                                                       SEQ 0411

 19236					;THIS TEST VERIFIES THAT ANDCM CHANGES C(AC) TO THE LOGICAL AND
 19237					;OF C(AC) AND THE COMPLEMENT OF C(MEMORY).
 19238					;IN THIS CASE C(AC)=0 AND C(E)=-1,,-1. HENCE, THE RESULT IN THE AC
 19239					;SHOULD BE 0.  THE AC IS CHECKED FOR 0.
 19240					;IF C(AC)=0, THE TEST PASSES
 19241
 19242	041261	400 00 0 00 000000 	B6100:	SETZ			;PRELOAD AC WITH 0
 19243	041262	420 00 0 00 070254 		ANDCM	[-1]		;*ANDCM SHOULD PLACE 0 IN THE AC
 19244	041263	332 00 0 00 000000 		SKIPE			;IF C(AC)=0, THE TEST PASSES
 19245						STOP^
 19246	041264	254 04 0 00 041265 		HALT	.+1		;TEST FAILED IF PROGRAM HALTS HERE
 19247	041265	324 00 0 00 041266 		JUMPA	.+1		;IF TEST FAILS, CHANGE THIS INSTRUCTION (JUMPA .+1) TO
 19248									;JUMPA X (X IS THE ADDRESS OF THE FIRST INSTRUCTION
 19249									;IN THE SUBTEST) TO LOOP ON ERROR^
 19250
 19251					;**********
DFKAA PDP-10 KL10 BASIC INSTRUCTION DIAGNOSTIC (1) VER 0,2	MACRO %52(537) 09:34 31-JAN-77 PAGE 43
DFKAA2	MAC	25-AUG-75 13:56		TEST OF BOOLEAN INSTRUCTIONS                                                       SEQ 0412

 19252					;THIS TEST VERIFIES THAT ANDCA CHANGES C(AC) TO THE LOGICAL AND FUNCTION
 19253					;OF THE COMPLEMENT OF C(AC) AND C(E).
 19254					;IN THIS CASE, C(AC)=-1,,0 AND C(E)=0.  HENCE, THE RESULT IN THE AC
 19255					;SHOULD BE 0.  THE AC IS CHECKED FOR ZERO.  IF C(AC) IS
 19256					;EQUAL TO ZERO, THE TEST PASSES.
 19257
 19258	041266	200 00 0 00 070331 	B6200:	MOVE	[XWD -1,0]	;PRELOAD AC WITH -1,,0
 19259	041267	410 00 0 00 070253 		ANDCA	[0]		;*ANDCA SHOULD PLACE 0 IN THE AC
 19260	041270	332 00 0 00 000000 		SKIPE			;IF C(AC)=0, THE TEST PASSES.
 19261						STOP^
 19262	041271	254 04 0 00 041272 		HALT	.+1		;TEST FAILED IF PROGRAM HALTS HERE
 19263	041272	324 00 0 00 041273 		JUMPA	.+1		;IF TEST FAILS, CHANGE THIS INSTRUCTION (JUMPA .+1) TO
 19264									;JUMPA X (X IS THE ADDRESS OF THE FIRST INSTRUCTION
 19265									;IN THE SUBTEST) TO LOOP ON ERROR^
 19266
 19267					;*****     FAILURE ANALYSIS     *****
 19268					;C(AC0)		C(AC1)		FAILING SIGNAL
 19269
 19270					;E				SW: FCE
 19271					;0,,-1				FC: AD AR + EN
 19272
 19273					;**********
 19274
 19275					;THIS TEST VERIFIES THAT ANDCA CHANGES C(AC) TO THE LOGICAL AND FUNCTION
 19276					;OF THE COMPLEMENT OF C(AC) AND C(E).
 19277					;IN THIS CASE, C(AC)=-1,,0 AND C(E)=707070,,707070.  HENCE, THE
 19278					;RESULT IN THE AC SHOULD BE 0,,707070.  THE AC IS CHECKED
 19279					;FOR 0,,707070.  IF C(AC)=0,,707070, THE TEST PASSES.
 19280
 19281	041273	200 00 0 00 070331 	B6300:	MOVE	[XWD -1,0]	;PRELOAD AC WITH -1,,0
 19282	041274	410 00 0 00 070332 		ANDCA	[707070707070]	;*ANDCA SHOULD PLACE 0,,707070 IN THE AC
 19283	041275	312 00 0 00 070547 		CAME	[XWD 0,707070]	;IF C(AC)=0,,707070, THE TEST PASSES
 19284						STOP^
 19285	041276	254 04 0 00 041277 		HALT	.+1		;TEST FAILED IF PROGRAM HALTS HERE
 19286	041277	324 00 0 00 041300 		JUMPA	.+1		;IF TEST FAILS, CHANGE THIS INSTRUCTION (JUMPA .+1) TO
 19287									;JUMPA X (X IS THE ADDRESS OF THE FIRST INSTRUCTION
 19288									;IN THE SUBTEST) TO LOOP ON ERROR^
 19289
 19290					;*****     FAILURE ANALYSIS     *****
 19291					;C(AC0)		C(AC1)		FAILING SIGNAL
 19292
 19293					;707070,,707070			FC: AD FM - EN
 19294					;707070,,707070			ET2: AR AD EN
 19295
 19296					;**********
DFKAA PDP-10 KL10 BASIC INSTRUCTION DIAGNOSTIC (1) VER 0,2	MACRO %52(537) 09:34 31-JAN-77 PAGE 44
DFKAA2	MAC	25-AUG-75 13:56		TEST OF BOOLEAN INSTRUCTIONS                                                       SEQ 0413

 19297					;THIS TEST VERIFIES THAT ANDCA CHANGES C(AC) TO THE LOGICAL AND FUNCTION
 19298					;OF THE COMPLEMENT OF C(AC) AND C(E).
 19299					;IN THIS CASE AC=E=AC0 AND C(AC)=C(E)=0. HENCE, THE RESULT
 19300					;IN THE AC SHOULD BE 0.  THE AC IS CHECKED FOR 0.  IF C(AC=0,
 19301					;THE TEST PASSES.
 19302
 19303	041300	400 00 0 00 000000 	B6400:	SETZ			;CLEAR THE AC AND E
 19304	041301	410 00 0 00 000000 		ANDCA			;*ANDCA SHOULD PLACE 0 IN THE AC
 19305	041302	332 00 0 00 000000 		SKIPE			;IF C(AC)=0, THE TEST PASSES
 19306						STOP^
 19307	041303	254 04 0 00 041304 		HALT	.+1		;TEST FAILED IF PROGRAM HALTS HERE
 19308	041304	324 00 0 00 041305 		JUMPA	.+1		;IF TEST FAILS, CHANGE THIS INSTRUCTION (JUMPA .+1) TO
 19309									;JUMPA X (X IS THE ADDRESS OF THE FIRST INSTRUCTION
 19310									;IN THE SUBTEST) TO LOOP ON ERROR^
 19311
 19312					;**********
 19313
 19314					;THIS TEST VERIFIES THAT ANDCA CHANGES C(AC) TO THE LOGICAL AND FUNCTION
 19315					;OF THE COMPLEMENT OF C(AC) AND C(E).
 19316					;IN THIS CASE C(AC)=0 AND C(E)=-1,,-1.  HENCE, THE RESULT IN THE AC
 19317					;SHOULD BE -1,,-1.  THE AC IS CHECKED FOR ALL ONES.
 19318					;IF C(AC)=-1,,-1, THE TEST PASSES.
 19319
 19320	041305	400 00 0 00 000000 	B6500:	SETZ			;CLEAR THE AC
 19321	041306	410 00 0 00 070254 		ANDCA	[-1]		;*ANDCA SHOULD PLACE ALL ONES IN THE AC
 19322	041307	312 00 0 00 070254 		CAME	[-1]		;IF C(AC)=ALL ONES, THE TEST PASSES.
 19323						STOP^
 19324	041310	254 04 0 00 041311 		HALT	.+1		;TEST FAILED IF PROGRAM HALTS HERE
 19325	041311	324 00 0 00 041312 		JUMPA	.+1		;IF TEST FAILS, CHANGE THIS INSTRUCTION (JUMPA .+1) TO
 19326									;JUMPA X (X IS THE ADDRESS OF THE FIRST INSTRUCTION
 19327									;IN THE SUBTEST) TO LOOP ON ERROR^
 19328
 19329					;**********
DFKAA PDP-10 KL10 BASIC INSTRUCTION DIAGNOSTIC (1) VER 0,2	MACRO %52(537) 09:34 31-JAN-77 PAGE 45
DFKAA2	MAC	25-AUG-75 13:56		TEST OF BOOLEAN INSTRUCTIONS                                                       SEQ 0414

 19330					;THIS TEST VERIFIES THAT ANDCA CHANGES C(AC) TO THE LOGICAL AND FUNCTION
 19331					;OF THE COMPLEMENT OF C(AC) AND C(E).
 19332					;IN THIS CASE AC=E=AC0 AND C(AC)=C(E)=-1,,-1. HENCE, THE RESULT
 19333					;IN THE AC SHOULD BE 0.  THE AC IS CHECKED FOR 0.  IF C(AC)=0,
 19334					;THE TEST PASSES.
 19335
 19336	041312	474 00 0 00 000000 	B6600:	SETO			;PRESET AC TO ALL ONES
 19337	041313	410 00 0 00 000000 		ANDCA			;*ANDCA SHOULD PLACE 0 IN THE AC
 19338	041314	332 00 0 00 000000 		SKIPE			;IF C(AC)=0, THE TEST PASSES
 19339						STOP^
 19340	041315	254 04 0 00 041316 		HALT	.+1		;TEST FAILED IF PROGRAM HALTS HERE
 19341	041316	324 00 0 00 041317 		JUMPA	.+1		;IF TEST FAILS, CHANGE THIS INSTRUCTION (JUMPA .+1) TO
 19342									;JUMPA X (X IS THE ADDRESS OF THE FIRST INSTRUCTION
 19343									;IN THE SUBTEST) TO LOOP ON ERROR^
 19344
 19345					;**********
 19346
 19347					;THIS TEST VERIFIES THAT ANDCA CHANGES C(AC) TO THE LOGICAL AND FUNCTION
 19348					;OF THE COMPLEMENT OF C(AC) AND C(E).
 19349					;IN THIS CASE C(AC)=-1,,-1 AND C(E)=0.  HENCE, THE RESULT IN THE AC
 19350					;SHOULD BE 0.  THE AC IS CHECKED FOR 0.  IF C(AC)=0,
 19351					;THE TEST PASSES.
 19352
 19353	041317	474 00 0 00 000000 	B6700:	SETO			;PRESET AC TO ALL ONES
 19354	041320	410 00 0 00 070253 		ANDCA	[0]		;*ANDCA SHOULD PLACE 0 IN THE AC
 19355	041321	332 00 0 00 000000 		SKIPE			;IF C(AC)=0, THE TEST PASSES.
 19356						STOP^
 19357	041322	254 04 0 00 041323 		HALT	.+1		;TEST FAILED IF PROGRAM HALTS HERE
 19358	041323	324 00 0 00 041324 		JUMPA	.+1		;IF TEST FAILS, CHANGE THIS INSTRUCTION (JUMPA .+1) TO
 19359									;JUMPA X (X IS THE ADDRESS OF THE FIRST INSTRUCTION
 19360									;IN THE SUBTEST) TO LOOP ON ERROR^
 19361
 19362					;**********
DFKAA PDP-10 KL10 BASIC INSTRUCTION DIAGNOSTIC (1) VER 0,2	MACRO %52(537) 09:34 31-JAN-77 PAGE 46
DFKAA2	MAC	25-AUG-75 13:56		TEST OF BOOLEAN INSTRUCTIONS                                                       SEQ 0415

 19363					;THIS TEST VERIFIES THAT ANDCB CHANGES C(AC) TO THE LOGICAL AND FUNCTION
 19364					;OF THE COMPLEMENT OF C(AC) AND THE COMPLEMENT OF C(E).
 19365					;IN THIS CASE C(AC)=-1,,0 AND C(E)=0; HENCE, THE RESULT IN THE AC
 19366					;SHOULD BE 0,,-1.  THE AC IS CHECKED FOR 0,,-1.  IF C(AC)=0,,-1,
 19367					;THIS TEST PASSES.
 19368
 19369	041324	200 00 0 00 070331 	B7000:	MOVE	[XWD -1,0]	;PRELOAD AC WITH -1,,0
 19370	041325	440 00 0 00 070253 		ANDCB	[0]		;*ANDCB SHOULD PLACE 0,,-1 IN THE AC
 19371	041326	312 00 0 00 070330 		CAME	[XWD 0,-1]	;PASS IF C(AC)=0,,-1
 19372						STOP^
 19373	041327	254 04 0 00 041330 		HALT	.+1		;TEST FAILED IF PROGRAM HALTS HERE
 19374	041330	324 00 0 00 041331 		JUMPA	.+1		;IF TEST FAILS, CHANGE THIS INSTRUCTION (JUMPA .+1) TO
 19375									;JUMPA X (X IS THE ADDRESS OF THE FIRST INSTRUCTION
 19376									;IN THE SUBTEST) TO LOOP ON ERROR^
 19377
 19378					;*****     FAILURE ANALYSIS     *****
 19379					;C(AC0)		C(AC1)		FAILING SIGNAL
 19380
 19381					;0,,-E				SW: FCE
 19382					;-1,,-1				FC: AD FM - EN
 19383					;0				ET2: AR AD EN
 19384
 19385					;**********
 19386
 19387					;THIS TEST VERIFIES THAT ANDCB CHANGES C(AC) TO THE LOGICAL AND FUNCTION
 19388					;OF THE COMPLEMENT OF C(AC) AND THE COMPLEMENT OF C(E).
 19389					;IN THIS CASE C(AC)=-1,,0 AND C(E)=-1,,-1; HENCE, THE RESULT IN THE AC
 19390					;SHOULD BE 0.  THE AC IS CHECKED FOR 0.  IF C(AC)=0,
 19391					;THIS TEST PASSES.
 19392
 19393	041331	200 00 0 00 070331 	B7100:	MOVE	[XWD -1,0]	;PRELOAD AC WITH -1,,0
 19394	041332	440 00 0 00 070254 		ANDCB	[-1]		;*ANDCB SHOULD PLACE 0 IN AC
 19395	041333	332 00 0 00 000000 		SKIPE			;PASS IF C(AC)=0
 19396						STOP^
 19397	041334	254 04 0 00 041335 		HALT	.+1		;TEST FAILED IF PROGRAM HALTS HERE
 19398	041335	324 00 0 00 041336 		JUMPA	.+1		;IF TEST FAILS, CHANGE THIS INSTRUCTION (JUMPA .+1) TO
 19399									;JUMPA X (X IS THE ADDRESS OF THE FIRST INSTRUCTION
 19400									;IN THE SUBTEST) TO LOOP ON ERROR^
 19401
 19402					;*****     FAILURE ANALYSIS     *****
 19403					;C(AC0)		C(AC1)		FAILING SIGNAL
 19404
 19405					;0,,-1				FC: AD AR - EN
 19406
 19407					;**********
DFKAA PDP-10 KL10 BASIC INSTRUCTION DIAGNOSTIC (1) VER 0,2	MACRO %52(537) 09:34 31-JAN-77 PAGE 47
DFKAA2	MAC	25-AUG-75 13:56		TEST OF BOOLEAN INSTRUCTIONS                                                       SEQ 0416

 19408
 19409					;THIS TEST VERIFIES THAT ANDCB CHANGES C(AC) TO THE LOGICAL AND FUNCTION OF
 19410					;THE COMPLEMENT OF C(AC) AND THE COMPLEMENT OF C(E).
 19411					;IN THIS CASE AC=E AND C(AC)=C(E)=0.  HENCE, THE RESULT IN THE AC
 19412					;SHOULD BE ALL ONES.  THE AC IS CHECKED FOR ALL ONES.  IF C(AC)=-1,,-1,
 19413					;THE TEST PASSES.
 19414
 19415	041336	400 00 0 00 000000 	B7200:	SETZ			;PRELOAD AC,E WITH ZEROES
 19416	041337	440 00 0 00 000000 		ANDCB			;*ANDCB SHOULD PLACE ALL ONES IN THE AC
 19417	041340	312 00 0 00 070254 		CAME	[-1]		;PASS IF C(AC) IS ALL ONES
 19418						STOP^
 19419	041341	254 04 0 00 041342 		HALT	.+1		;TEST FAILED IF PROGRAM HALTS HERE
 19420	041342	324 00 0 00 041343 		JUMPA	.+1		;IF TEST FAILS, CHANGE THIS INSTRUCTION (JUMPA .+1) TO
 19421									;JUMPA X (X IS THE ADDRESS OF THE FIRST INSTRUCTION
 19422									;IN THE SUBTEST) TO LOOP ON ERROR^
 19423
 19424					;**********
 19425
 19426					;THIS TEST VERIFIES THAT ANDCB CHANGES C(AC) TO THE LOGICAL AND FUNCTION OF
 19427					;THE COMPLEMENT OF C(AC) AND THE COMPLEMENT OF C(E).
 19428					;IN THIS CASE AC=E AND C(AC)=C(E)=-1,,-1.  HENCE THE RESULT IN THE AC
 19429					;SHOULD BE 0.  THE AC IS CHECKED FOR 0.  IF C(AC)=0, THE TEST PASSES.
 19430
 19431	041343	474 00 0 00 000000 	B7300:	SETO			;PRELOAD AC,E WITH ONES
 19432	041344	440 00 0 00 000000 		ANDCB			;*ANDCB SHOULD PLACE ALL ZEROS IN THE AC
 19433	041345	332 00 0 00 000000 		SKIPE			;PASS IF C(AC)=0
 19434						STOP^
 19435	041346	254 04 0 00 041347 		HALT	.+1		;TEST FAILED IF PROGRAM HALTS HERE
 19436	041347	324 00 0 00 041350 		JUMPA	.+1		;IF TEST FAILS, CHANGE THIS INSTRUCTION (JUMPA .+1) TO
 19437									;JUMPA X (X IS THE ADDRESS OF THE FIRST INSTRUCTION
 19438									;IN THE SUBTEST) TO LOOP ON ERROR^
 19439
 19440					;**********
DFKAA PDP-10 KL10 BASIC INSTRUCTION DIAGNOSTIC (1) VER 0,2	MACRO %52(537) 09:34 31-JAN-77 PAGE 48
DFKAA2	MAC	25-AUG-75 13:56		TEST OF BOOLEAN INSTRUCTIONS                                                       SEQ 0417

 19441					;THIS TEST VERIFIES THAT ANDCB CHANGES C(AC) TO THE LOGICAL AND FUNCTION OF
 19442					;THE COMPLEMENT OF C(AC) AND THE COMPLEMENT OF C(E).
 19443					;IN THIS CASE, C(AC)=0 AND C(E)=-1,,-1.  HENCE, THE RESULT IN THE AC
 19444					;SHOULD BE 0.  THE AC IS CHECKED FOR 0.  IF C(AC)=0, THE TEST PASSES.
 19445
 19446	041350	400 00 0 00 000000 	B7400:	SETZ			;PRELOAD AC WITH 0
 19447	041351	440 00 0 00 070254 		ANDCB	[-1]		;*ANDCB SHOULD PLACE 0 IN THE AC
 19448	041352	302 00 0 00 000000 		CAIE			;PASS IF C(AC)=0
 19449						STOP^
 19450	041353	254 04 0 00 041354 		HALT	.+1		;TEST FAILED IF PROGRAM HALTS HERE
 19451	041354	324 00 0 00 041355 		JUMPA	.+1		;IF TEST FAILS, CHANGE THIS INSTRUCTION (JUMPA .+1) TO
 19452									;JUMPA X (X IS THE ADDRESS OF THE FIRST INSTRUCTION
 19453									;IN THE SUBTEST) TO LOOP ON ERROR^
 19454
 19455					;**********
 19456
 19457					;THIS TEST VERIFIES THAT ANDCB CHANGES C(AC) TO THE LOGICAL AND FUNCTION OF
 19458					;THE COMPLEMENT OF C(AC) AND THE COMPLEMENT OF C(E).
 19459					;IN THIS CASE, C(AC)=-1,,-1 AND C(E)=-1,,-1.  HENCE, THE RESULT IN THE AC
 19460					;SHOULD BE 0.  THE AC IS CHECKED FOR 0.  IF C(AC)=0, THE TEST PASSES.
 19461
 19462	041355	474 00 0 00 000000 	B7500:	SETO			;PRELOAD AC WITH -1,,-1
 19463	041356	440 00 0 00 070253 		ANDCB	[0]		;*ANDCB SHOULD PLACE 0 IN THE AC
 19464	041357	302 00 0 00 000000 		CAIE			;PASS IF C(AC)=0
 19465						STOP^
 19466	041360	254 04 0 00 041361 		HALT	.+1		;TEST FAILED IF PROGRAM HALTS HERE
 19467	041361	324 00 0 00 041362 		JUMPA	.+1		;IF TEST FAILS, CHANGE THIS INSTRUCTION (JUMPA .+1) TO
 19468									;JUMPA X (X IS THE ADDRESS OF THE FIRST INSTRUCTION
 19469									;IN THE SUBTEST) TO LOOP ON ERROR^
 19470
 19471					;**********
DFKAA PDP-10 KL10 BASIC INSTRUCTION DIAGNOSTIC (1) VER 0,2	MACRO %52(537) 09:34 31-JAN-77 PAGE 49
DFKAA2	MAC	25-AUG-75 13:56		TEST OF BOOLEAN INSTRUCTIONS                                                       SEQ 0418

 19472					;THIS TEST VERIFIES THAT ORCA CHANGES C(AC) TO THE LOGICAL OR FUNCTION OF
 19473					;THE COMPLEMENT OF C(AC) AND C(E).
 19474					;IN THIS CASE C(AC)=-1,,0 AND C(E)=0.  HENCE, THE RESULT IN THE AC
 19475					;SHOULD BE 0,,-1.  THE AC IS CHECKED FOR 0,,-1.  IF C(AC)=0,,-1,
 19476					;THIS TEST FAILS.
 19477
 19478	041362	200 00 0 00 070331 	B7600:	MOVE	[XWD -1,0]	;PRELOAD AC WITH -1,,0
 19479	041363	454 00 0 00 070253 		ORCA	[0]		;*ORCA SHOULD PLACE 0,,-1 IN THE AC
 19480	041364	312 00 0 00 070330 		CAME	[XWD 0,-1]	;PASS IF C(AC)=0,,-1
 19481						STOP^
 19482	041365	254 04 0 00 041366 		HALT	.+1		;TEST FAILED IF PROGRAM HALTS HERE
 19483	041366	324 00 0 00 041367 		JUMPA	.+1		;IF TEST FAILS, CHANGE THIS INSTRUCTION (JUMPA .+1) TO
 19484									;JUMPA X (X IS THE ADDRESS OF THE FIRST INSTRUCTION
 19485									;IN THE SUBTEST) TO LOOP ON ERROR^
 19486
 19487					;*****     FAILURE ANALYSIS     *****
 19488					;C(AC0)		C(AC1)		FAILING SIGNAL
 19489
 19490					;-1,,0				SW: ET0
 19491					;-1,,0				FC: AD AR - EN
 19492					;0				FC: AD FM + EN
 19493					;-1,,-1				ET0: AR AD EN
 19494					;-1,,-1				ET0: AD AR - EN
 19495					;-1,,0				ET2: AR AD EN
 19496
 19497					;**********
 19498
 19499					;THIS TEST VERIFIES THAT ORCA CHANGES C(AC) TO THE LOGICAL OR FUNCTION OF
 19500					;THE COMPLEMENT OF C(AC) AND C(E).
 19501					;IN THIS CASE C(AC)=-1,,0 AND C(E)=707070,,707070.  HENCE, THE RESULT IN THE AC
 19502					;SHOULD BE 707070,,-1.  THE AC IS CHECKED FOR -1,,0.  IF C(AC)=-1,,0,
 19503					;THIS TEST FAILS.
 19504
 19505	041367	200 00 0 00 070331 	B10000:	MOVE	[XWD -1,0]	;PRELOAD AC WITH -1,,0
 19506	041370	454 00 0 00 070332 		ORCA	[707070707070]	;*ORCA SHOULD PLACE 707070,,-1 IN THE AC
 19507	041371	312 00 0 00 070550 		CAME	[XWD 707070,-1]	;PASS IF C(AC)=707070,,-1
 19508						STOP^
 19509	041372	254 04 0 00 041373 		HALT	.+1		;TEST FAILED IF PROGRAM HALTS HERE
 19510	041373	324 00 0 00 041374 		JUMPA	.+1		;IF TEST FAILS, CHANGE THIS INSTRUCTION (JUMPA .+1) TO
 19511									;JUMPA X (X IS THE ADDRESS OF THE FIRST INSTRUCTION
 19512									;IN THE SUBTEST) TO LOOP ON ERROR^
 19513
 19514					;*****     FAILURE ANALYSIS     *****
 19515					;C(AC0)		C(AC1)		FAILING SIGNAL
 19516
 19517					;0,,-1				SW: FCE
 19518
 19519					;**********
DFKAA PDP-10 KL10 BASIC INSTRUCTION DIAGNOSTIC (1) VER 0,2	MACRO %52(537) 09:34 31-JAN-77 PAGE 50
DFKAA2	MAC	25-AUG-75 13:56		TEST OF BOOLEAN INSTRUCTIONS                                                       SEQ 0419

 19520					;THIS TEST VERIFIES THAT ORCA CHANGES C(AC) TO THE LOGICAL OR FUNCTION OF
 19521					;THE COMPLEMENT OF C(AC) AND C(E).
 19522					;IN THIS CASE, AC=E AND C(AC)=C(E)=0.  HENCE, THE RESULT IN THE AC
 19523					;SHOULD BE -1,,-1.  THE AC IS CHECKED FOR -1,,-1.  IF C(AC)=-1,,-1, THE TEST PASSES.
 19524
 19525	041374	400 00 0 00 000000 	B10100:	SETZ			;PRELOAD AC,E WITH 0
 19526	041375	454 00 0 00 000000 		ORCA			;*ORCA SHOULD PLACE -1,,-1 IN THE AC
 19527	041376	312 00 0 00 070254 		CAME	[-1]		;PASS IF C(AC)=-1,,-1
 19528						STOP^
 19529	041377	254 04 0 00 041400 		HALT	.+1		;TEST FAILED IF PROGRAM HALTS HERE
 19530	041400	324 00 0 00 041401 		JUMPA	.+1		;IF TEST FAILS, CHANGE THIS INSTRUCTION (JUMPA .+1) TO
 19531									;JUMPA X (X IS THE ADDRESS OF THE FIRST INSTRUCTION
 19532									;IN THE SUBTEST) TO LOOP ON ERROR^
 19533
 19534					;**********
 19535
 19536					;THIS TEST VERIFIES THAT ORCA CHANGES C(AC) TO THE LOGICAL OF FUNCTION OF
 19537					;THE COMPLEMENT OF C(AC) AND C(E).
 19538					;IN THIS CASE, AC=E AND C(AC)=C(E)=-1,,-1.  HENCE, THE RESULT IN THE AC
 19539					;SHOULD BE -1,,-1.  THE AC IS CHECKED FOR -1,,-1.  IF C(AC)=-1,,-1, THE TEST PASSES.
 19540
 19541	041401	474 00 0 00 000000 	B10200:	SETO			;PRELOAD AC,E WITH 0
 19542	041402	454 00 0 00 000000 		ORCA			;*ORCA SHOULD PLACE -1,,-1 IN THE AC
 19543	041403	312 00 0 00 070254 		CAME	[-1]		;PASS IF C(AC)=-1,,-1
 19544						STOP^
 19545	041404	254 04 0 00 041405 		HALT	.+1		;TEST FAILED IF PROGRAM HALTS HERE
 19546	041405	324 00 0 00 041406 		JUMPA	.+1		;IF TEST FAILS, CHANGE THIS INSTRUCTION (JUMPA .+1) TO
 19547									;JUMPA X (X IS THE ADDRESS OF THE FIRST INSTRUCTION
 19548									;IN THE SUBTEST) TO LOOP ON ERROR^
 19549
 19550					;**********
DFKAA PDP-10 KL10 BASIC INSTRUCTION DIAGNOSTIC (1) VER 0,2	MACRO %52(537) 09:34 31-JAN-77 PAGE 51
DFKAA2	MAC	25-AUG-75 13:56		TEST OF BOOLEAN INSTRUCTIONS                                                       SEQ 0420

 19551					;THIS TEST VERIFIES THAT ORCA CHANGES C(AC) TO THE LOGICAL OR FUNCTION OF
 19552					;THE COMPLEMENT OF C(AC) AND C(E).
 19553					;IN THIS CASE C(AC)=0 AND C(E)=-1,,-1.  HENCE, THE RESUTL IN THE AC
 19554					;SHOULD BE -1,,-1.  THE AC IS CHECKED FOR -1,,-1.  IF C(AC)=-1,,-1, THE TEST PASSES.
 19555
 19556	041406	400 00 0 00 000000 	B10300:	SETZ			;PRELOAD AC WITH 0
 19557	041407	454 00 0 00 070254 		ORCA	[-1]		;*ORCA SHOULD PLACE -1,,-1 IN THE AC
 19558	041410	312 00 0 00 070254 		CAME	[-1]		;PASS IF C(AC)=-1,,-1
 19559						STOP^
 19560	041411	254 04 0 00 041412 		HALT	.+1		;TEST FAILED IF PROGRAM HALTS HERE
 19561	041412	324 00 0 00 041413 		JUMPA	.+1		;IF TEST FAILS, CHANGE THIS INSTRUCTION (JUMPA .+1) TO
 19562									;JUMPA X (X IS THE ADDRESS OF THE FIRST INSTRUCTION
 19563									;IN THE SUBTEST) TO LOOP ON ERROR^
 19564
 19565					;**********
 19566
 19567					;THIS TEST VERIFIES THAT ORCA CHANGES C(AC) TO THE LOGICAL OR FUNCTION OF
 19568					;THE COMPLEMENT OF C(AC) AND C(E).
 19569					;IN THIS CASE C(AC)=-1,,-1 AND C(E)=0.  HENCE, THE RESULT IN THE AC
 19570					;SHOULD BE 0.  THE AC IS CHECKED FOR 0.  IF C(AC)=0, THE TEST PASSES.
 19571
 19572	041413	474 00 0 00 000000 	B10400:	SETO			;PRELOAD AC WITH -1,,-1
 19573	041414	454 00 0 00 070253 		ORCA	[0]		;*ORCA SHOULD PLACE 0 IN THE AC
 19574	041415	302 00 0 00 000000 		CAIE			;PASS IF C(AC)=0
 19575						STOP^
 19576	041416	254 04 0 00 041417 		HALT	.+1		;TEST FAILED IF PROGRAM HALTS HERE
 19577	041417	324 00 0 00 041420 		JUMPA	.+1		;IF TEST FAILS, CHANGE THIS INSTRUCTION (JUMPA .+1) TO
 19578									;JUMPA X (X IS THE ADDRESS OF THE FIRST INSTRUCTION
 19579									;IN THE SUBTEST) TO LOOP ON ERROR^
 19580
 19581					;**********
DFKAA PDP-10 KL10 BASIC INSTRUCTION DIAGNOSTIC (1) VER 0,2	MACRO %52(537) 09:34 31-JAN-77 PAGE 52
DFKAA2	MAC	25-AUG-75 13:56		TEST OF BOOLEAN INSTRUCTIONS                                                       SEQ 0421

 19582					;THIS TEST VERIFIES THAT ORCB CHANGES C(AC) TO THE LOGICAL OR FUNCTION OF
 19583					;THE COMPLEMENT OF C(AC) AND THE COMPLEMENT OF C(E)
 19584					;IN THIS CASE, C(AC)=-1,,0 AND C(E)=707070,,707070.  HENCE THE RESULT
 19585					;IN THE AC 070707,,-1.  THE AC IS CHECKED FOR 070707,,-1.  IF C(AC)=070707,,-1,
 19586					;THIS TEST PASSES
 19587
 19588	041420	200 00 0 00 070331 	B10500:	MOVE	[XWD -1,0]	;PRELOAD THE AC WITH -1,,0
 19589	041421	470 00 0 00 070332 		ORCB	[707070707070]	;*ORCB SHOULD PLACE 070707,,-1 IN THE AC
 19590	041422	312 00 0 00 070551 		CAME	[XWD 070707,-1]	;PASS IF C(AC)=070707,,-1
 19591						STOP^
 19592	041423	254 04 0 00 041424 		HALT	.+1		;TEST FAILED IF PROGRAM HALTS HERE
 19593	041424	324 00 0 00 041425 		JUMPA	.+1		;IF TEST FAILS, CHANGE THIS INSTRUCTION (JUMPA .+1) TO
 19594									;JUMPA X (X IS THE ADDRESS OF THE FIRST INSTRUCTION
 19595									;IN THE SUBTEST) TO LOOP ON ERROR^
 19596
 19597					;*****     FAILURE ANALYSIS     *****
 19598					;C(AC0)		C(AC1)		FAILING SIGNAL
 19599
 19600					;-1,,-1				SW: FCE
 19601					;707070,,0			SW: ET0
 19602					;0,,-1				FC: AD AR + EN
 19603					;070707,,070707			FC: AD FM + EN
 19604					;070707,,070707			ET0: AR AD EN
 19605					;-1,,-1				ET0: AD AR - EN
 19606					;707070,,0			ET2: AR AD EN
 19607
 19608					;**********
 19609
 19610					;THIS TEST VERIFIES THAT ORCB CHANGES C(AC) TO THE LOGICAL OR FUNCTION OF
 19611					;THE COMPLEMENT OF C(AC) AND THE COMPLEMENT OF C(E)
 19612					;IN THIS CASE, C(AC)=0,,-1 AND C(E)=-1,,-1.  HENCE THE RESULT
 19613					;IN THE AC -1,,0.  THE AC IS CHECKED FOR -1,,0.  IF C(AC)=-1,,0,
 19614					;THIS TEST PASSES
 19615
 19616	041425	200 00 0 00 070330 	B10700:	MOVE	[XWD 0,-1]	;PRELOAD THE AC WITH 0,,-1
 19617	041426	470 00 0 00 070254 		ORCB	[-1]		;*ORCB SHOULD PLACE -1,,0 IN THE AC
 19618	041427	312 00 0 00 070331 		CAME	[XWD -1,0]	;PASS IF C(AC)=-1,,0
 19619						STOP^
 19620	041430	254 04 0 00 041431 		HALT	.+1		;TEST FAILED IF PROGRAM HALTS HERE
 19621	041431	324 00 0 00 041432 		JUMPA	.+1		;IF TEST FAILS, CHANGE THIS INSTRUCTION (JUMPA .+1) TO
 19622									;JUMPA X (X IS THE ADDRESS OF THE FIRST INSTRUCTION
 19623									;IN THE SUBTEST) TO LOOP ON ERROR^
 19624
 19625					;**********
DFKAA PDP-10 KL10 BASIC INSTRUCTION DIAGNOSTIC (1) VER 0,2	MACRO %52(537) 09:34 31-JAN-77 PAGE 53
DFKAA2	MAC	25-AUG-75 13:56		TEST OF BOOLEAN INSTRUCTIONS                                                       SEQ 0422

 19626					;THIS TEST VERIFIES THAT ORCB CHANGES C(AC) TO THE LOGICAL OR FUNCTION OF
 19627					;THE COMPLEMENT OF C(AC) AND THE COMPLEMENT OF C(E).
 19628					;IN THIS CASE, C(AC)=0 AND C(E)=0.  HENCE, THE RESULT IN THE AC
 19629					;SHOULD BE -1,,-1.  THE AC IS CHECKED FOR -1,,-1.  IF C(AC)-1,,-1, THE TEST PASSES
 19630
 19631	041432	400 00 0 00 000000 	B11000:	SETZ			;PRELOAD AC WITH 0
 19632	041433	470 00 0 00 070253 		ORCB	[0]		;*ORCB SHOULD PLACE -1,,-1 IN THE AC
 19633	041434	312 00 0 00 070254 		CAME	[-1]		;PASS IF C(AC)=-1,,-1
 19634						STOP^
 19635	041435	254 04 0 00 041436 		HALT	.+1		;TEST FAILED IF PROGRAM HALTS HERE
 19636	041436	324 00 0 00 041437 		JUMPA	.+1		;IF TEST FAILS, CHANGE THIS INSTRUCTION (JUMPA .+1) TO
 19637									;JUMPA X (X IS THE ADDRESS OF THE FIRST INSTRUCTION
 19638									;IN THE SUBTEST) TO LOOP ON ERROR^
 19639
 19640					;**********
 19641
 19642					;THIS TEST VERIFIES THAT ORCB CHANGES C(AC) TO THE LOGICAL OR FUNCTION OF
 19643					;THE COMPLEMENT OF C(AC) AND THE COMPLEMENT OF C(E).
 19644					;IN THIS CASE, C(AC)=-1,,-1 AND C(E)=-1,,-1.  HENCE, THE RESULT IN THE AC
 19645					;SHOULD BE 0.  THE AC IS CHECKED FOR 0.  IF C(AC)=0, THE TEST PASSES
 19646
 19647	041437	474 00 0 00 000000 	B11100:	SETO			;PRELOAD AC WITH -1,,-1
 19648	041440	470 00 0 00 070254 		ORCB	[-1]		;*ORCB SHOULD PLACE 0 IN THE AC
 19649	041441	302 00 0 00 000000 		CAIE			;PASS IF C(AC)=0
 19650						STOP^
 19651	041442	254 04 0 00 041443 		HALT	.+1		;TEST FAILED IF PROGRAM HALTS HERE
 19652	041443	324 00 0 00 041444 		JUMPA	.+1		;IF TEST FAILS, CHANGE THIS INSTRUCTION (JUMPA .+1) TO
 19653									;JUMPA X (X IS THE ADDRESS OF THE FIRST INSTRUCTION
 19654									;IN THE SUBTEST) TO LOOP ON ERROR^
 19655
 19656					;**********
DFKAA PDP-10 KL10 BASIC INSTRUCTION DIAGNOSTIC (1) VER 0,2	MACRO %52(537) 09:34 31-JAN-77 PAGE 54
DFKAA2	MAC	25-AUG-75 13:56		TEST OF BOOLEAN INSTRUCTIONS                                                       SEQ 0423

 19657					;THIS TEST VERIFIES THAT ORCB CHANGES C(AC) TO THE LOGICAL OR FUNCTION OF
 19658					;THE COMPLEMENT OF C(AC) AND THE COMPLEMENT OF C(E)
 19659					;IN THIS CASE, C(AC)=0 AND C(E)=-1,,-1.  HENCE, THE RESULT IN THE AC
 19660					;SHOULD BE -1,,-1.  THE AC IS CHECKED FOR -1,,-1.  IF C(AC)=-1,,-1, THE TEST PASSES
 19661
 19662	041444	400 00 0 00 000000 	B11200:	SETZ			;PRELOAD AC WITH 0
 19663	041445	470 00 0 00 070254 		ORCB	[-1]		;*ORCB SHOULD PLACE -1,,-1 IN THE AC
 19664	041446	312 00 0 00 070254 		CAME	[-1]		;PASS IF C(AC)=-1,,-1
 19665						STOP^
 19666	041447	254 04 0 00 041450 		HALT	.+1		;TEST FAILED IF PROGRAM HALTS HERE
 19667	041450	324 00 0 00 041451 		JUMPA	.+1		;IF TEST FAILS, CHANGE THIS INSTRUCTION (JUMPA .+1) TO
 19668									;JUMPA X (X IS THE ADDRESS OF THE FIRST INSTRUCTION
 19669									;IN THE SUBTEST) TO LOOP ON ERROR^
 19670
 19671					;**********
 19672
 19673					;THIS TEST VERIFIES THAT ORCB CHANGES C(AC) TO THE LOGICAL OR FUNCTION OF
 19674					;THE COMPLEMENT OF C(AC) AND THE COMPLEMENT OF C(E).
 19675					;IN THIS CASE, C(AC)=-1,,-1 AND C(E)=0.  HENCE, THE RESULT IN THE AC
 19676					;SHOULD BE -1,,-1.  THE AC IS CHECKED FOR -1,,-1.  IF C(AC)=-1,,-1, THE TEST PASSES
 19677
 19678	041451	474 00 0 00 000000 	B11300:	SETO			;PRELOAD AC WITH -1,,-1
 19679	041452	470 00 0 00 070253 		ORCB	[0]		;*ORCB SHOULD PLACE -1,,-1 IN THE AC
 19680	041453	312 00 0 00 070254 		CAME	[-1]		;PASS IF C(AC)=-1,,-1
 19681						STOP^
 19682	041454	254 04 0 00 041455 		HALT	.+1		;TEST FAILED IF PROGRAM HALTS HERE
 19683	041455	324 00 0 00 041456 		JUMPA	.+1		;IF TEST FAILS, CHANGE THIS INSTRUCTION (JUMPA .+1) TO
 19684									;JUMPA X (X IS THE ADDRESS OF THE FIRST INSTRUCTION
 19685									;IN THE SUBTEST) TO LOOP ON ERROR^
 19686
 19687					;**********
DFKAA PDP-10 KL10 BASIC INSTRUCTION DIAGNOSTIC (1) VER 0,2	MACRO %52(537) 09:34 31-JAN-77 PAGE 55
DFKAA2	MAC	25-AUG-75 13:56		TEST OF MOVN INSTRUCTION                                                           SEQ 0424

 19688					SUBTTL	TEST OF MOVN INSTRUCTION
 19689
 19690					;**********
 19691
 19692					;THIS TEST VERIFIES THAT MOVN PLACES THE NEGATIVE OF C(E) INTO THE AC
 19693					;IN THIS CASE C(E)=0.  HENCE, THE RESULT IN THE AC SHOULD BE 0.
 19694					;THE AC IS CHECKED FOR 0, THE NEGATIVE OF 0.  IF C(AC)=0, THIS TEST PASSES
 19695
 19696	041456	474 00 0 00 000000 	B11500:	SETO			;PRELOAD AC WITH -1,,-1
 19697	041457	210 00 0 00 070253 		MOVN	[0]		;*MOVN SHOULD PLACE 0 INTO THE AC
 19698	041460	332 00 0 00 000000 		SKIPE			;PASS IF C(AC)=0
 19699						STOP^
 19700	041461	254 04 0 00 041462 		HALT	.+1		;TEST FAILED IF PROGRAM HALTS HERE
 19701	041462	324 00 0 00 041463 		JUMPA	.+1		;IF TEST FAILS, CHANGE THIS INSTRUCTION (JUMPA .+1) TO
 19702									;JUMPA X (X IS THE ADDRESS OF THE FIRST INSTRUCTION
 19703									;IN THE SUBTEST) TO LOOP ON ERROR^
 19704
 19705					;*****     FAILURE ANALYSIS     *****
 19706					;C(AC0)		C(AC1)		FAILING SIGNAL
 19707
 19708					;E				SW: FCE
 19709					;-1,,-1				FC: AD FM + EN
 19710					;-1,,-1				FC: AD CRY 36
 19711
 19712					;**********
 19713
 19714					;THIS TEST VERIFIES THAT MOVN PLACES THE NEGATIVE OF C(E) INTO THE AC.
 19715					;IN THIS CASE C(E)=-1,,0.  HENCE, THE RESULT IN THE AC SHOULD BE 1,,0
 19716					;THE AC IS CHECKED FOR 1,,0.  IF C(AC)=1,,0, THE TEST PASSES
 19717
 19718	041463	200 00 0 00 070331 	B11600:	MOVE	[XWD -1,0]	;PRELOAD AC,E WITH -1,,0
 19719	041464	210 00 0 00 000000 		MOVN			;*MOVN SHOULD PLACE 1,,0 INTO THE AC
 19720	041465	312 00 0 00 070307 		CAME	[XWD 1,0]	;PASS IF C(AC)=1,,0
 19721						STOP^
 19722	041466	254 04 0 00 041467 		HALT	.+1		;TEST FAILED IF PROGRAM HALTS HERE
 19723	041467	324 00 0 00 041470 		JUMPA	.+1		;IF TEST FAILS, CHANGE THIS INSTRUCTION (JUMPA .+1) TO
 19724									;JUMPA X (X IS THE ADDRESS OF THE FIRST INSTRUCTION
 19725									;IN THE SUBTEST) TO LOOP ON ERROR^
 19726
 19727					;*****     FAILURE ANALYSIS     *****
 19728					;C(AC0)		C(AC1)		FAILING SIGNAL
 19729
 19730					;0				FC: AD ADD
 19731					;0				FC: AD FM - EN
 19732					;0				FC: AD AR - EN
 19733					;-1,,0				ET2: AR AD EN
 19734
 19735					;**********
DFKAA PDP-10 KL10 BASIC INSTRUCTION DIAGNOSTIC (1) VER 0,2	MACRO %52(537) 09:34 31-JAN-77 PAGE 56
DFKAA2	MAC	25-AUG-75 13:56		TEST OF MOVN INSTRUCTION                                                           SEQ 0425

 19736					;THIS TEST VERIFIES THAT MOVN PLACES THE NEGATIVE OF C(E) INTO THE AC.
 19737					;IN THIS CASE C(E) =707070,,707070.  HENCE, THE RESULT IN THE AC SHOULD BE
 19738					;070707,,070710.  THE AC IS CHECKED FOR 070707,,070710.  IF C(AC)=
 19739					;070707,,070710, THE TEST PASSES
 19740
 19741	041470	400 00 0 00 000000 	B11700:	SETZ			;PRELOAD AC WITH 0
 19742	041471	210 00 0 00 070332 		MOVN	[707070707070]	;*MOVN SHOULD PLACE 070707,,070710 INTO THE AC
 19743	041472	312 00 0 00 070552 		CAME	[070707070710]	;PASS IF C(AC) 070707,,070710
 19744						STOP^
 19745	041473	254 04 0 00 041474 		HALT	.+1		;TEST FAILED IF PROGRAM HALTS HERE
 19746	041474	324 00 0 00 041475 		JUMPA	.+1		;IF TEST FAILS, CHANGE THIS INSTRUCTION (JUMPA .+1) TO
 19747									;JUMPA X (X IS THE ADDRESS OF THE FIRST INSTRUCTION
 19748									;IN THE SUBTEST) TO LOOP ON ERROR^
 19749
 19750					;**********
 19751
 19752					;THIS TEST VERIFIES THAT MOVN PLACES THE NEGATIVE OF C(E) INTO THE AC
 19753					;IN THIS CASE C(E)=-1,,-1.  HENCE, THE RESULT IN THE AC SHOULD BE 0,,1.
 19754					;THE AC IS CHECKED FOR 0,,1, THE NEGATIVE OF -1,,-1.  IF C(AC)=1, THIS TEST PASSES
 19755
 19756	041475	210 00 0 00 070254 	B12100:	MOVN	[-1]		;*MOVN SHOULD PLACE 0,,1 INTO THE AC
 19757	041476	302 00 0 00 000001 		CAIE	1		;PASS OF C(AC)=0,,1
 19758						STOP^
 19759	041477	254 04 0 00 041500 		HALT	.+1		;TEST FAILED IF PROGRAM HALTS HERE
 19760	041500	324 00 0 00 041501 		JUMPA	.+1		;IF TEST FAILS, CHANGE THIS INSTRUCTION (JUMPA .+1) TO
 19761									;JUMPA X (X IS THE ADDRESS OF THE FIRST INSTRUCTION
 19762									;IN THE SUBTEST) TO LOOP ON ERROR^
 19763
 19764					;**********
DFKAA PDP-10 KL10 BASIC INSTRUCTION DIAGNOSTIC (1) VER 0,2	MACRO %52(537) 09:34 31-JAN-77 PAGE 57
DFKAA2	MAC	25-AUG-75 13:56		TEST OF MOVM INSTRUCTION                                                           SEQ 0426

 19765					SUBTTL	TEST OF MOVM INSTRUCTION
 19766
 19767					;**********
 19768
 19769					;THIS TEST VERIFIES THAT MOVM PLACES THE MAGNITUDE OF C(E) INTO THE AC.
 19770					;IN THIS CASE, C(E)=0.  HENCE, THE RESULT IN THE AC SHOULD BE 0.
 19771					;THE AC IS CHECKED FOR 0.  IF C(AC)=0, THIS TEST PASSES
 19772
 19773	041501	474 00 0 00 000000 	B12200:	SETO			;PRELOAD AC WITH -1,,-1
 19774	041502	214 00 0 00 070253 		MOVM	[0]		;*MOVM SHOULD PLACE 0 INTO THE AC
 19775	041503	332 00 0 00 000000 		SKIPE			;PASS IF C(AC)=0
 19776						STOP^
 19777	041504	254 04 0 00 041505 		HALT	.+1		;TEST FAILED IF PROGRAM HALTS HERE
 19778	041505	324 00 0 00 041506 		JUMPA	.+1		;IF TEST FAILS, CHANGE THIS INSTRUCTION (JUMPA .+1) TO
 19779									;JUMPA X (X IS THE ADDRESS OF THE FIRST INSTRUCTION
 19780									;IN THE SUBTEST) TO LOOP ON ERROR^
 19781
 19782					;*****     FAILURE ANALYSIS     *****
 19783					;C(AC0)		C(AC1)		FAILING SIGNAL
 19784
 19785					;E				SW: FCE
 19786
 19787					;**********
 19788
 19789					;THIS TEST VERIFIES THAT MOVM PLACES THE MAGNITUDE OF C(E) INTO THE AC
 19790					;IN THIS CASE, C(E)=-1,,-1.  HENCE, THE RESULT IN THE AC SHOULD BE 0,,1.
 19791					;THE AC IS CHECKED FOR 0,,1.  IF C(AC)=0,,1, THIS TEST PASSES
 19792
 19793	041506	400 00 0 00 000000 	B12300:	SETZ			;PRELOAD AC WITH 0
 19794	041507	214 00 0 00 070254 		MOVM	[-1]		;*MOVM SHOULD PLACE 0,,1 INTO THE AC
 19795	041510	302 00 0 00 000001 		CAIE	1		;PASS IF C(AC)=0,,1
 19796						STOP^
 19797	041511	254 04 0 00 041512 		HALT	.+1		;TEST FAILED IF PROGRAM HALTS HERE
 19798	041512	324 00 0 00 041513 		JUMPA	.+1		;IF TEST FAILS, CHANGE THIS INSTRUCTION (JUMPA .+1) TO
 19799									;JUMPA X (X IS THE ADDRESS OF THE FIRST INSTRUCTION
 19800									;IN THE SUBTEST) TO LOOP ON ERROR^
 19801
 19802					;*****     FAILURE ANALYSIS     *****
 19803					;C(AC0)		C(AC1)		FAILING SIGNAL
 19804
 19805					;0				FC: AD FM + EN
 19806					;0				FC: AD ADD
 19807					;0				FC: AD CRY 36
 19808					;0				FC: AD AR - EN
 19809					;-1,,-1				ET2: AR AD EN
 19810
 19811					;**********
DFKAA PDP-10 KL10 BASIC INSTRUCTION DIAGNOSTIC (1) VER 0,2	MACRO %52(537) 09:34 31-JAN-77 PAGE 58
DFKAA2	MAC	25-AUG-75 13:56		TEST OF MOVM INSTRUCTION                                                           SEQ 0427

 19812					;THIS TEST VERIFIES THAT MOVM PLACES THE MAGNITUDE OF C(E) INTO THE AC
 19813					;IN THIS CASE, C(E)=400000,,0.  HENCE, THE RESULT IN THE AC SHOULD BE
 19814					;400000,,0.  THE AC IS CHECKED FOR 400000,,0.
 19815					;IF C(AC)=400000,,0, THIS TEST PASSES.
 19816
 19817	041513	400 00 0 00 000000 	B12400:	SETZ
 19818	041514	214 00 0 00 070256 		MOVM	[XWD 400000,0]	;*MOVM SHOULD PLACE 400000,,0 INTO THE AC
 19819	041515	312 00 0 00 070256 		CAME	[XWD 400000,0]	;PASS IF C(AC)=400000,,0
 19820						STOP^
 19821	041516	254 04 0 00 041517 		HALT	.+1		;TEST FAILED IF PROGRAM HALTS HERE
 19822	041517	324 00 0 00 041520 		JUMPA	.+1		;IF TEST FAILS, CHANGE THIS INSTRUCTION (JUMPA .+1) TO
 19823									;JUMPA X (X IS THE ADDRESS OF THE FIRST INSTRUCTION
 19824									;IN THE SUBTEST) TO LOOP ON ERROR^
 19825
 19826					;**********
 19827
 19828					;THIS TEST VERIFIES THAT MOVM PLACES THE MAGNITUDE OF C(E) INTO THE AC
 19829					;IN THIS CASE, C(E)=377777,,-1.  HENCE, THE RESULT IN THE AC SHOULD BE
 19830					;377777,,-1.  THE AC IS CHECKED FOR 377777,,-1.
 19831					;IF C(AC)=377777,,-1, THIS TEST PASSES.
 19832
 19833	041520	400 00 0 00 000000 	B12500:	SETZ			;PRELOAD AC WITH 0
 19834	041521	214 00 0 00 070255 		MOVM	[XWD 377777,-1]	;*MOVM SHOULD PLACE 377777,,-1 INTO THE AC
 19835	041522	312 00 0 00 070255 		CAME	[XWD 377777,-1]	;PASS IF C(AC)=377777,,-1
 19836						STOP^
 19837	041523	254 04 0 00 041524 		HALT	.+1		;TEST FAILED IF PROGRAM HALTS HERE
 19838	041524	324 00 0 00 041525 		JUMPA	.+1		;IF TEST FAILS, CHANGE THIS INSTRUCTION (JUMPA .+1) TO
 19839									;JUMPA X (X IS THE ADDRESS OF THE FIRST INSTRUCTION
 19840									;IN THE SUBTEST) TO LOOP ON ERROR^
 19841
 19842					;**********
DFKAA PDP-10 KL10 BASIC INSTRUCTION DIAGNOSTIC (1) VER 0,2	MACRO %52(537) 09:34 31-JAN-77 PAGE 1
DFKAA3	MAC	25-AUG-75 13:57		TEST OF LOGICAL TEST INSTRUCTIONS                                                  SEQ 0428

 19843					SUBTTL	TEST OF LOGICAL TEST INSTRUCTIONS
 19844
 19845					;**********
 19846
 19847					;THIS TEST VERIFIES THAT TDN DOES NOT MODIFY THE AC BECAUSE
 19848					;TDN IS A NO-OP
 19849					;FIRST, THE AC IS PRELOADED WITH 0.  THEN,
 19850					;TDN IS EXECUTED.  THE AC IS THEN CHECKED FOR
 19851					;NO MODIFICATION.  IF C(AC) IS UNALTERED, THE TEST PASSES
 19852	041525	400 00 0 00 000000 	B12600:	SETZ			;PRELOAD AC WITH 0
 19853	041526	610 00 0 00 070254 		TDN	[-1]		;*TDN IS A NO-OP
 19854	041527	310 00 0 00 000000 		CAM			;CAM IS A NO-OP.  IT IS HERE IN CASE TDN SKIPS
 19855	041530	302 00 0 00 000000 		CAIE			;PASS TEST IF C(AC) IS UNMODIFIED BY TDN
 19856						STOP^
 19857	041531	254 04 0 00 041532 		HALT	.+1		;TEST FAILED IF PROGRAM HALTS HERE
 19858	041532	324 00 0 00 041533 		JUMPA	.+1		;IF TEST FAILS, CHANGE THIS INSTRUCTION (JUMPA .+1) TO
 19859									;JUMPA X (X IS THE ADDRESS OF THE FIRST INSTRUCTION
 19860									;IN THE SUBTEST) TO LOOP ON ERROR^
 19861
 19862					;*****     FAILURE ANALYSIS     *****
 19863					;C(AC0)		C(AC1)		FAILING SIGNAL
 19864
 19865					;-1,,-1				FC: AD FM + EN
 19866
 19867					;**********
 19868
 19869					;THIS TEST VERIFIES THAT TSN DOES NOT MODIFY THE AC BECAUSE
 19870					;TSN IS A NO-OP
 19871					;FIRST, THE AC IS PRELOADED WITH -1.  THEN,
 19872					;TSN IS EXECUTED.  THE AC IS THEN CHECKED FOR
 19873					;NO MODIFICATION.  IF C(AC) IS UNALTERED, THIS TEST PASSES
 19874
 19875	041533	474 00 0 00 000000 	B12700:	SETO			;PRELOAD AC WITH -1,,-1
 19876	041534	611 00 0 00 070331 		TSN	[XWD -1,0]	;*TSN IS A NO-OP
 19877	041535	310 00 0 00 000000 		CAM			;CAM IS A NO-OP.  IT IS HERE IN CASE TSN SKIPS
 19878	041536	312 00 0 00 070254 		CAME	[-1]		;PASS TEST IF C(AC) IS UNMODIFIED BY TSN
 19879						STOP^
 19880	041537	254 04 0 00 041540 		HALT	.+1		;TEST FAILED IF PROGRAM HALTS HERE
 19881	041540	324 00 0 00 041541 		JUMPA	.+1		;IF TEST FAILS, CHANGE THIS INSTRUCTION (JUMPA .+1) TO
 19882									;JUMPA X (X IS THE ADDRESS OF THE FIRST INSTRUCTION
 19883									;IN THE SUBTEST) TO LOOP ON ERROR^
 19884
 19885					;**********
DFKAA PDP-10 KL10 BASIC INSTRUCTION DIAGNOSTIC (1) VER 0,2	MACRO %52(537) 09:34 31-JAN-77 PAGE 2
DFKAA3	MAC	25-AUG-75 13:57		TEST OF LOGICAL TEST INSTRUCTIONS                                                  SEQ 0429

 19886					;THIS TEST VERIFIES THAT TRN DOE NOT MODIFY THE AC BECAUSE
 19887					;TRN IS A NO-OP.
 19888					;FIRST, THE AC IS PRELOADED WITH 0.  THEN,
 19889					;TRN IS EXECUTED.  THE AC IS THEN CHECKED FOR
 19890					;NO MODIFICATION.  IF C(AC) IS UNALTERED, THIS TEST PASSES
 19891
 19892	041541	400 00 0 00 000000 	B13000:	SETZ			;PRELOAD AC WITH 0
 19893	041542	600 00 0 00 123456 		TRN	123456		;*TRN IS A NO-OP
 19894	041543	310 00 0 00 000000 		CAM			;CAM IS A NO-OP.  IT IS HERE IN CASE TRN SKIPS
 19895	041544	302 00 0 00 000000 		CAIE			;PASS TEST IF C(AC) IS UNMODIFIED BY TRN
 19896						STOP^
 19897	041545	254 04 0 00 041546 		HALT	.+1		;TEST FAILED IF PROGRAM HALTS HERE
 19898	041546	324 00 0 00 041547 		JUMPA	.+1		;IF TEST FAILS, CHANGE THIS INSTRUCTION (JUMPA .+1) TO
 19899									;JUMPA X (X IS THE ADDRESS OF THE FIRST INSTRUCTION
 19900									;IN THE SUBTEST) TO LOOP ON ERROR^
 19901
 19902					;**********
 19903
 19904					;THIS TEST VERIFIES THAT TLN DOES NOT MODIFY THE AC BECAUSE
 19905					;TLN IS A NO-OP.
 19906					;FIRST,THE AC IS PRELOADED WITH -1,,-1.  THEN,
 19907					;TRN IS EXECUTED.  THE AC IS THEN CHECKED FOR
 19908					;NO MODIFICATION.  IF C(AC) IS UNALTERED, THIS TEST PASSES
 19909
 19910	041547	474 00 0 00 000000 	B13100:	SETO			;PRELOAD AC WITH -1,,-1
 19911	041550	601 00 0 00 123456 		TLN	123456		;*TRN IS A NO-OP
 19912	041551	310 00 0 00 000000 		CAM			;CAM IS A NO-OP.  IT IS HERE IN CASE TRN SKIPS
 19913	041552	312 00 0 00 000000 		CAME			;PASS TEST IF C(AC) IS UNMODIFIED BY TRN
 19914						STOP^
 19915	041553	254 04 0 00 041554 		HALT	.+1		;TEST FAILED IF PROGRAM HALTS HERE
 19916	041554	324 00 0 00 041555 		JUMPA	.+1		;IF TEST FAILS, CHANGE THIS INSTRUCTION (JUMPA .+1) TO
 19917									;JUMPA X (X IS THE ADDRESS OF THE FIRST INSTRUCTION
 19918									;IN THE SUBTEST) TO LOOP ON ERROR^
 19919
 19920					;**********
DFKAA PDP-10 KL10 BASIC INSTRUCTION DIAGNOSTIC (1) VER 0,2	MACRO %52(537) 09:34 31-JAN-77 PAGE 3
DFKAA3	MAC	25-AUG-75 13:57		TEST OF LOGICAL TEST INSTRUCTIONS                                                  SEQ 0430

 19921					;THIS TEST VERIFIES THAT TDO PLACES ONES IN THE BITS OF THE AC
 19922					;WHICH ARE MASKED BY C(E) AND DOES NOT AFFECT THE UNMASKED BITS OF THE AC.
 19923					;IN THIS CASE, C(AC)=0 AND C(E)=-1,,-1.  HENCE, THE RESULT IN THE AC SHOULD BE -1,,-1.
 19924					;THE AC IS CHECKED FOR -1,,-1.  IF C(AC) -1,,-1, THE TEST PASSES.
 19925
 19926	041555	400 00 0 00 000000 	B13200:	SETZ			;PRELOAD AC WITH 0
 19927	041556	670 00 0 00 070254 		TDO	[-1]		;*TDO SHOULD PLACE ALL ONES IN THE AC
 19928	041557	300 00 0 00 000000 		CAI			;CAI IS A NO-OP.  IT IS HERE IN CASE TDO SKIPS
 19929	041560	312 00 0 00 070254 		CAME	[-1]		;PASS TEST IF C(AC)=-1,,-1
 19930						STOP^
 19931	041561	254 04 0 00 041562 		HALT	.+1		;TEST FAILED IF PROGRAM HALTS HERE
 19932	041562	324 00 0 00 041563 		JUMPA	.+1		;IF TEST FAILS, CHANGE THIS INSTRUCTION (JUMPA .+1) TO
 19933									;JUMPA X (X IS THE ADDRESS OF THE FIRST INSTRUCTION
 19934									;IN THE SUBTEST) TO LOOP ON ERROR^
 19935
 19936					;*****     FAILURE ANALYSIS     *****
 19937					;C(AC0)		C(AC1)		FAILING SIGNAL
 19938
 19939					;E				SW: FCE
 19940					;0				SW: ET1
 19941					;0				ET1: BR AR EN
 19942					;0				ET1: AD BR - EN
 19943					;0				ET1: AD EQV
 19944
 19945					;**********
 19946
 19947					;THIS TEST VERIFIES THAT TDO PLACES ONES IN THE BITS OF THE AC
 19948					;WHICH ARE MASKED BY C(E) AND DOES NOT AFFECT THE UNMASKED BITS OF THE AC.
 19949					;IN THIS CASE, AC=E AND C(AC)= C(E)=0.  HENCE, THE RESULT IN THE AC SHOULD BE 0.
 19950					;THIS AC IS CHECKED FOR ZERO.  IF C(AC) IS ZERO, THE TEST PASSES.
 19951
 19952	041563	400 00 0 00 000000 	B13300:	SETZ			;PRELOAD AC WITH 0
 19953	041564	670 00 0 00 000000 		TDO			;*TDO SHOULD PLACE ALL ZERO IN THE AC
 19954	041565	300 00 0 00 000000 		CAI			;CAI IS A NO-OP.  IT IS HERE IN CASE TDO SKIPS
 19955	041566	332 00 0 00 000000 		SKIPE			;PASS TEST IF C(AC) ZERO
 19956						STOP^
 19957	041567	254 04 0 00 041570 		HALT	.+1		;TEST FAILED IF PROGRAM HALTS HERE
 19958	041570	324 00 0 00 041571 		JUMPA	.+1		;IF TEST FAILS, CHANGE THIS INSTRUCTION (JUMPA .+1) TO
 19959									;JUMPA X (X IS THE ADDRESS OF THE FIRST INSTRUCTION
 19960									;IN THE SUBTEST) TO LOOP ON ERROR^
 19961
 19962					;*****     FAILURE ANALYSIS     *****
 19963					;C(AC0)		C(AC1)		FAILING SIGNAL
 19964
 19965					;-1,,-1				ET1: AD AR + EN
 19966
 19967					;**********
DFKAA PDP-10 KL10 BASIC INSTRUCTION DIAGNOSTIC (1) VER 0,2	MACRO %52(537) 09:34 31-JAN-77 PAGE 4
DFKAA3	MAC	25-AUG-75 13:57		TEST OF LOGICAL TEST INSTRUCTIONS                                                  SEQ 0431

 19968					;THIS TEST VERIFIES THAT TDO PLACES ONES IN THE BITS OF THE AC,
 19969					;WHICH ARE MASKED BY C(E) AND DOES NOT AFFECT THE UNMASKED BITS OF THE AC.
 19970					;IN THIS CASE, C(AC)=0 AND C(E)=0.  HENCE, THE RESULT IN THE AC SHOULD BE 0.
 19971					;THE AC IS CHECKED FOR ITS CONTENTS ZERO.  IF C(AC) IS ZERO, THE TEST PASSES.
 19972
 19973	041571	400 00 0 00 000000 	B13400:	SETZ			;PRELOAD AC WITH 0
 19974	041572	670 00 0 00 070253 		TDO	[0]		;*TDO SHOULD PLACE ALL ZERO IN THE AC
 19975	041573	300 00 0 00 000000 		CAI			;CAI IS A NO-OP.  IT IS HERE IN CASE TDO SKIPS
 19976	041574	332 00 0 00 000000 		SKIPE			;PASS TEST IF C(AC) IS ZERO
 19977						STOP^
 19978	041575	254 04 0 00 041576 		HALT	.+1		;TEST FAILED IF PROGRAM HALTS HERE
 19979	041576	324 00 0 00 041577 		JUMPA	.+1		;IF TEST FAILS, CHANGE THIS INSTRUCTION (JUMPA .+1) TO
 19980									;JUMPA X (X IS THE ADDRESS OF THE FIRST INSTRUCTION
 19981									;IN THE SUBTEST) TO LOOP ON ERROR^
 19982
 19983					;**********
 19984
 19985					;THIS TEST VERIFIES THAT TDO PLACES ONES IN THE BITS OF THE AC
 19986					;WHICH ARE MASKED BY C(E) AND DOES NOT AFFECT THE UNMASKED BITS OF THE AC.
 19987					;IN THIS CASE, AC=E AND C(AC)= C(E)=-1,,-1.
 19988					;HENCE, THE RESULT IN THE AC SHOULD BE -1,,-1.
 19989					;THE AC IS CHECKED FOR -1,,-1.  IF C(AC)=-1,,-1, THE TEST PASSES.
 19990
 19991	041577	474 00 0 00 000000 	B13600:	SETO			;PRELOAD AC WITH -1,,-1
 19992	041600	670 00 0 00 000000 		TDO			;*TDO SHOULD PLACE ALL ONES IN THE AC
 19993	041601	300 00 0 00 000000 		CAI			;CAI IS A NO-OP.  IT IS HERE IN CASE TDO SKIPS
 19994	041602	312 00 0 00 070254 		CAME	[-1]		;PASS TEST IF C(AC) -1,,-1
 19995						STOP^
 19996	041603	254 04 0 00 041604 		HALT	.+1		;TEST FAILED IF PROGRAM HALTS HERE
 19997	041604	324 00 0 00 041605 		JUMPA	.+1		;IF TEST FAILS, CHANGE THIS INSTRUCTION (JUMPA .+1) TO
 19998									;JUMPA X (X IS THE ADDRESS OF THE FIRST INSTRUCTION
 19999									;IN THE SUBTEST) TO LOOP ON ERROR^
 20000
 20001					;**********
DFKAA PDP-10 KL10 BASIC INSTRUCTION DIAGNOSTIC (1) VER 0,2	MACRO %52(537) 09:34 31-JAN-77 PAGE 5
DFKAA3	MAC	25-AUG-75 13:57		TEST OF LOGICAL TEST INSTRUCTIONS                                                  SEQ 0432

 20002					;THIS TEST VERIFIES THAT TDO PLACES ONES IN THE BITS OF THE AC
 20003					;WHICH ARE MASKED BY C(E) AND DOES NOT AFFECT THE UNMASKED BITS OF THE AC.
 20004					;IN THIS CASE, C(AC)=-1,,-1 AND C(E)=0.  HENCE, THE RESULT IN THE AC SHOULD BE -1,,-1.
 20005					;THE AC IS CHECKED FOR -1,,-1.  IF C(AC)=-1,,-1, THE TEST PASSES.
 20006
 20007	041605	474 00 0 00 000000 	B14000:	SETO			;PRELOAD AC WITH -1,,-1
 20008	041606	670 00 0 00 070253 		TDO	[0]		;*TDO SHOULD PLACE ALL ONES IN THE AC
 20009	041607	300 00 0 00 000000 		CAI			;CAI IS A NO-OP.  IT IS HERE IN CASE TDO SKIPS
 20010	041610	312 00 0 00 070254 		CAME	[-1]		;PASS TEST IF C(AC)=-1,,-1
 20011						STOP^
 20012	041611	254 04 0 00 041612 		HALT	.+1		;TEST FAILED IF PROGRAM HALTS HERE
 20013	041612	324 00 0 00 041613 		JUMPA	.+1		;IF TEST FAILS, CHANGE THIS INSTRUCTION (JUMPA .+1) TO
 20014									;JUMPA X (X IS THE ADDRESS OF THE FIRST INSTRUCTION
 20015									;IN THE SUBTEST) TO LOOP ON ERROR^
 20016
 20017					;*****     FAILURE ANALYSIS     *****
 20018					;C(AC0)		C(AC1)		FAILING SIGNAL
 20019
 20020					;0				ET1: AD FM - EN
 20021					;0				ET2: AR AD EN
 20022
 20023					;**********
 20024
 20025					;THIS TEST VERIFIES THAT TDZ PLACES ZERO IN THE BITS OF THE AC
 20026					;WHICH ARE MASKED BY C(E) AND DOES NOT AFFECT THE UNMASKED BITS OF THE AC.
 20027					;IN THIS CASE, AC=E AND C(AC)= C(E)=0.  HENCE, THE RESULT IN THE AC SHOULD BE 0.
 20028					;THE AC IS CHECKED FOR 0.  IF C(AC) 0, THE TEST PASSES.
 20029
 20030	041613	400 00 0 00 000000 	B14100:	SETZ			;PRELOAD AC WITH 0
 20031	041614	630 00 0 00 000000 		TDZ			;*TDZ SHOULD PLACE ALL ZERO IN THE AC
 20032	041615	300 00 0 00 000000 		CAI			;CAI IS A NO-OP.  IT IS HERE IN CASE TDO
 20033	041616	332 00 0 00 000000 		SKIPE			;PASS TEST IF C(AC)=0
 20034						STOP^
 20035	041617	254 04 0 00 041620 		HALT	.+1		;TEST FAILED IF PROGRAM HALTS HERE
 20036	041620	324 00 0 00 041621 		JUMPA	.+1		;IF TEST FAILS, CHANGE THIS INSTRUCTION (JUMPA .+1) TO
 20037									;JUMPA X (X IS THE ADDRESS OF THE FIRST INSTRUCTION
 20038									;IN THE SUBTEST) TO LOOP ON ERROR^
 20039
 20040					;*****     FAILURE ANALYSIS     *****
 20041					;C(AC0)		C(AC1)		FAILING SIGNAL
 20042
 20043					;-1,,-1				FC: AD FM + EN
 20044
 20045					;**********
DFKAA PDP-10 KL10 BASIC INSTRUCTION DIAGNOSTIC (1) VER 0,2	MACRO %52(537) 09:34 31-JAN-77 PAGE 6
DFKAA3	MAC	25-AUG-75 13:57		TEST OF LOGICAL TEST INSTRUCTIONS                                                  SEQ 0433

 20046					;THIS TEST VERIFIES THAT TDZ PLACES ZERO IN THE BITS OF THE AC
 20047					;WHICH ARE MASKED BY C(E) AND DOES NOT AFFECT THE UNMASKED BITS OF THE AC.
 20048					;IN THIS CASE, C(AC)=-1,,-1,,-1 AND C(E)=-1,,0.
 20049					;HENCE, THE RESULT IN THE AC SHOULD BE 0,,-1.
 20050					;THE AC IS CHECKED FOR 0,,-1.  IF C(AC)= 0,,-1, THE TEST PASSES.
 20051
 20052	041621	474 00 0 00 000000 	B14200:	SETO			;PRELOAD AC WITH -1,,-1
 20053	041622	630 00 0 00 070331 		TDZ	[XWD -1,0]	;*TDZ SHOULD PLACE 0,,-1 IN THE AC
 20054	041623	300 00 0 00 000000 		CAI			;CAI IS A NO-OP.  IT IS HERE IN CASE TDO
 20055	041624	312 00 0 00 070330 		CAME	[0,-1]		;PASS TEST IF C(AC)=0,,-1
 20056						STOP^
 20057	041625	254 04 0 00 041626 		HALT	.+1		;TEST FAILED IF PROGRAM HALTS HERE
 20058	041626	324 00 0 00 041627 		JUMPA	.+1		;IF TEST FAILS, CHANGE THIS INSTRUCTION (JUMPA .+1) TO
 20059									;JUMPA X (X IS THE ADDRESS OF THE FIRST INSTRUCTION
 20060									;IN THE SUBTEST) TO LOOP ON ERROR^
 20061
 20062					;*****     FAILURE ANALYSIS     *****
 20063					;C(AC0)		C(AC1)		FAILING SIGNAL
 20064
 20065					;-E				SW: FCE
 20066					;-1,,-1				FC: AD AR -EN
 20067					;-1,,0				ET2: AR AD EN
 20068
 20069					;**********
 20070
 20071					;THIS TEST VERIFIES THAT TDZ PLACES ZEROS IN THE BITS OF THE AC
 20072					;WHICH ARE MASKED BY C(E) AND DOES NOT AFFECT THE UNMASKED BITS OF THE AC.
 20073					;IN THIS CASE, AC=E AND C(AC)= C(E)=-1,,-1.  HENCE, THE RESULT IN THE AC SHOULD BE 0.
 20074					;THE AC IS CHECKED FOR 0.  IF C(AC)=0, THE TEST PASSES.
 20075
 20076	041627	474 00 0 00 000000 	B14400:	SETO			;PRELOAD AC WITH -1,,-1
 20077	041630	630 00 0 00 000000 		TDZ			;*TDZ SHOULD PLACE ALL ZERO IN THE AC
 20078	041631	300 00 0 00 000000 		CAI			;CAI IS A NO-OP.  IT IS HERE IN CASE TDO
 20079	041632	332 00 0 00 000000 		SKIPE			;PASS TEST IF C(AC)=0
 20080						STOP^
 20081	041633	254 04 0 00 041634 		HALT	.+1		;TEST FAILED IF PROGRAM HALTS HERE
 20082	041634	324 00 0 00 041635 		JUMPA	.+1		;IF TEST FAILS, CHANGE THIS INSTRUCTION (JUMPA .+1) TO
 20083									;JUMPA X (X IS THE ADDRESS OF THE FIRST INSTRUCTION
 20084									;IN THE SUBTEST) TO LOOP ON ERROR^
 20085
 20086					;**********
DFKAA PDP-10 KL10 BASIC INSTRUCTION DIAGNOSTIC (1) VER 0,2	MACRO %52(537) 09:34 31-JAN-77 PAGE 7
DFKAA3	MAC	25-AUG-75 13:57		TEST OF LOGICAL TEST INSTRUCTIONS                                                  SEQ 0434

 20087					;THIS TEST VERIFIES THAT TDZ PLACES ZEROS IN THE BITS OF THE AC
 20088					;WHICH ARE MASKED BY C(E) AND DOES NOT AFFECT THE UNMASKED BITS OF THE AC.
 20089					;IN THIS CASE, C(AC)=0 AND C(E)=-1,,-1.  HENCE, THE RESULT IN THE AC SHOULD BE 0.
 20090					;THE AC IS CHECKED FOR 0.  IF C(AC)=0, THE TEST PASSES.
 20091
 20092	041635	400 00 0 00 000000 	B14500:	SETZ			;PRELOAD AC WITH 0
 20093	041636	630 00 0 00 070254 		TDZ	[-1]		;*TDZ SHOULD PLACE ALL ZEROS IN THE AC
 20094	041637	300 00 0 00 000000 		CAI			;CAI IS A NO-OP.  IT IS HERE IN CASE TDO
 20095	041640	332 00 0 00 000000 		SKIPE			;PASS TEST IS C(AC)=0
 20096						STOP^
 20097	041641	254 04 0 00 041642 		HALT	.+1		;TEST FAILED IF PROGRAM HALTS HERE
 20098	041642	324 00 0 00 041643 		JUMPA	.+1		;IF TEST FAILS, CHANGE THIS INSTRUCTION (JUMPA .+1) TO
 20099									;JUMPA X (X IS THE ADDRESS OF THE FIRST INSTRUCTION
 20100									;IN THE SUBTEST) TO LOOP ON ERROR^
 20101
 20102					;**********
 20103
 20104					;THIS TEST VERIFIES THAT TDZ PLACES ZEROS IN THE BITS OF THE AC
 20105					;WHICH ARE MASKED BY C(E) AND DOES NOT AFFECT THE UNMASKED BITS OF THE AC.
 20106					;IN THIS CASE, AC=E AND C(AC)= C(E)=-1,,-1.
 20107					;HENCE, THE RESULT IN THE AC SHOULD BE -1,,-1.
 20108					;THE AC IS CHECKED -1,,-1.  IF C(AC)=-1,,-1, THE TEST PASSES.
 20109
 20110	041643	474 00 0 00 000000 	B14600:	SETO			;PRELOAD AC WITH -1,,-1
 20111	041644	630 00 0 00 070253 		TDZ	[0]		;*TDZ SHOULD PLACE ALL ONES IN THE AC
 20112	041645	300 00 0 00 000000 		CAI			;CAI IS A NO-OP.  IT IS HERE IN CASE TDO
 20113	041646	312 00 0 00 070254 		CAME	[-1]		;PASS TEST IF C(AC)=-1,,-1
 20114						STOP^
 20115	041647	254 04 0 00 041650 		HALT	.+1		;TEST FAILED IF PROGRAM HALTS HERE
 20116	041650	324 00 0 00 041651 		JUMPA	.+1		;IF TEST FAILS, CHANGE THIS INSTRUCTION (JUMPA .+1) TO
 20117									;JUMPA X (X IS THE ADDRESS OF THE FIRST INSTRUCTION
 20118									;IN THE SUBTEST) TO LOOP ON ERROR^
 20119					;**********
DFKAA PDP-10 KL10 BASIC INSTRUCTION DIAGNOSTIC (1) VER 0,2	MACRO %52(537) 09:34 31-JAN-77 PAGE 8
DFKAA3	MAC	25-AUG-75 13:57		TEST OF LOGICAL TEST INSTRUCTIONS                                                  SEQ 0435

 20120					;THIS TEST VERIFIES THAT TDC COMPLEMENTS THE BITS OF THE AC
 20121					;WHICH ARE MASKED BY C(E) AND DOES NOT AFFECT THE UNMASKED BITS OF THE AC.
 20122					;IN THIS CASE, C(AC)=-1 AND C(E)=0,,-1.  HENCE, THE RESULT IN THE AC SHOULD BE -1,,0.
 20123					;THE AC IS CHECKED FOR -1,,0.  IF C(AC)=-1,,0, THIS TEST PASSES
 20124
 20125	041651	474 00 0 00 000000 	B14700:	SETO			;PRELOAD AC WITH -1,,-1
 20126	041652	650 00 0 00 070330 		TDC	[XWD 0,-1]	;*TDC SHOULD PLACE -1,,0 INTO THE AC
 20127	041653	300 00 0 00 000000 		CAI			;CAI IS A NO-OP.  IT IS HERE IN CASE TDC SKIPS
 20128	041654	312 00 0 00 070331 		CAME	[-1,,0]		;PASS TEST IF C(AC)=-1,,0
 20129						STOP^
 20130	041655	254 04 0 00 041656 		HALT	.+1		;TEST FAILED IF PROGRAM HALTS HERE
 20131	041656	324 00 0 00 041657 		JUMPA	.+1		;IF TEST FAILS, CHANGE THIS INSTRUCTION (JUMPA .+1) TO
 20132									;JUMPA X (X IS THE ADDRESS OF THE FIRST INSTRUCTION
 20133									;IN THE SUBTEST) TO LOOP ON ERROR^
 20134
 20135					;*****     FAILURE ANALYSIS     *****
 20136					;C(AC0)		C(AC1)		FAILING SIGNAL
 20137
 20138					;-E				SW: FCE
 20139					;0				FC: AD AR - EN
 20140					;0,,-1				ET2: AR AD EN
 20141
 20142					;**********
 20143
 20144					;THIS TEST VERIFIES THAT TDC COMPLEMENTS THE BITS OF THE AC
 20145					;WHICH ARE MASKED BY C(E) AND DOES NOT AFFECT THE UNMASKED BITS OF THE AC.
 20146					;IN THIS CASE, AC=E AND C(AC)= C(E)=0.  HENCE, THE RESULT IN THE AC SHOULD BE 0.
 20147					;THE AC IS CHECKED FOR 0.  IF C(AC)=0, THIS TEST PASSES
 20148
 20149	041657	400 00 0 00 000000 	B15000:	SETZ			;PRELOAD AC, E WITH 0
 20150	041660	650 00 0 00 000000 		TDC			;*TDC SHOULD PLACE 0 INTO THE AC
 20151	041661	300 00 0 00 000000 		CAI			;CAI IS A NO-OP.  IT IS HERE IN CASE TDC SKIPS
 20152	041662	332 00 0 00 000000 		SKIPE			;PASS TEST IF C(AC)=0
 20153						STOP^
 20154	041663	254 04 0 00 041664 		HALT	.+1		;TEST FAILED IF PROGRAM HALTS HERE
 20155	041664	324 00 0 00 041665 		JUMPA	.+1		;IF TEST FAILS, CHANGE THIS INSTRUCTION (JUMPA .+1) TO
 20156									;JUMPA X (X IS THE ADDRESS OF THE FIRST INSTRUCTION
 20157									;IN THE SUBTEST) TO LOOP ON ERROR^
 20158
 20159					;*****     FAILURE ANALYSIS     *****
 20160					;C(AC0)		C(AC1)		FAILING SIGNAL
 20161
 20162					;-1,,-1				FC:AD FM + EN
 20163
 20164					;**********
DFKAA PDP-10 KL10 BASIC INSTRUCTION DIAGNOSTIC (1) VER 0,2	MACRO %52(537) 09:34 31-JAN-77 PAGE 9
DFKAA3	MAC	25-AUG-75 13:57		TEST OF LOGICAL TEST INSTRUCTIONS                                                  SEQ 0436

 20165					;THIS TEST VERIFIES THAT TDC COMPLEMENTS THE BITS OF THE AC
 20166					;WHICH ARE MASKED BY C(E) AND DOES NOT AFFECT THE UNMASKED BITS OF THE AC.
 20167					;IN THIS CASE, AC=E AND C(AC)= C(E)=-1,,-1.  HENCE, THE RESULT IN THE AC SHOULD BE 0.
 20168					;THE AC IS CHECKED FOR 0.  IF C(AC)=0, THIS TEST FAILS
 20169
 20170	041665	474 00 0 00 000000 	B15400:	SETO			;PRELOAD AC WITH -1,,-1
 20171	041666	650 00 0 00 000000 		TDC			;*TDC SHOULD PLACE 0 INTO THE AC
 20172	041667	300 00 0 00 000000 		CAI			;CAI IS A NO-OP.  IT IS HERE IN CASE TDC SKIPS
 20173	041670	332 00 0 00 000000 		SKIPE			;PASS TEST IF C(AC)=0
 20174						STOP^
 20175	041671	254 04 0 00 041672 		HALT	.+1		;TEST FAILED IF PROGRAM HALTS HERE
 20176	041672	324 00 0 00 041673 		JUMPA	.+1		;IF TEST FAILS, CHANGE THIS INSTRUCTION (JUMPA .+1) TO
 20177									;JUMPA X (X IS THE ADDRESS OF THE FIRST INSTRUCTION
 20178									;IN THE SUBTEST) TO LOOP ON ERROR^
 20179
 20180					;**********
 20181
 20182					;THIS TEST VERIFIES THAT TDC COMPLEMENTS THE BITS OF THE AC
 20183					;WHICH ARE MASKED BY C(E) AND DOES NOT AFFECT THE UNMASKED BITS OF THE AC.
 20184					;IN THIS CASE, C(AC)=0 AND C(E)=-1,,-1.  HENCE, THE RESULT IN THE AC SHOULD BE -1,,-1.
 20185					;THE AC IS CHECKED FOR -1,,-1.  IF C(AC)=-1,,-1, THIS TEST PASSES
 20186
 20187	041673	400 00 0 00 000000 	B15500:	SETZ			;PRELOAD AC WITH 0
 20188	041674	650 00 0 00 070254 		TDC	[-1]		;*TDC SHOULD PLACE -1,,-1 INTO THE AC
 20189	041675	300 00 0 00 000000 		CAI			;CAI IS A NO-OP.  IT IS HERE IN CASE TDC SKIPS
 20190	041676	312 00 0 00 070254 		CAME	[-1]		;PASS TEST IF C(AC)=-1,,-1
 20191						STOP^
 20192	041677	254 04 0 00 041700 		HALT	.+1		;TEST FAILED IF PROGRAM HALTS HERE
 20193	041700	324 00 0 00 041701 		JUMPA	.+1		;IF TEST FAILS, CHANGE THIS INSTRUCTION (JUMPA .+1) TO
 20194									;JUMPA X (X IS THE ADDRESS OF THE FIRST INSTRUCTION
 20195									;IN THE SUBTEST) TO LOOP ON ERROR^
 20196
 20197					;*****     FAILURE ANALYSIS     *****
 20198					;C(AC0)		C(AC1)		FAILING SIGNAL
 20199
 20200					;0				FC: AD EQV
 20201
 20202					;**********
DFKAA PDP-10 KL10 BASIC INSTRUCTION DIAGNOSTIC (1) VER 0,2	MACRO %52(537) 09:34 31-JAN-77 PAGE 10
DFKAA3	MAC	25-AUG-75 13:57		TEST OF LOGICAL TEST INSTRUCTIONS                                                  SEQ 0437

 20203					;THIS TEST VERIFIES THAT TDC COMPLEMENTS THE BITS OF THE AC
 20204					;WHICH ARE MASKED BY C(E) AND DOES NOT AFFECT THE UNMASKED BITS OF THE AC.
 20205					;IN THIS CASE, C(AC)=-1 AND C(E)=0.  HENCE, THE RESULT IN THE AC SHOULD BE -1,,-1.
 20206					;THE AC IS CHECKED FOR -1,,-1.  IF C(AC)=-1,,-1, THIS TEST PASSES
 20207
 20208	041701	474 00 0 00 000000 	B15600:	SETO			;PRELOAD AC WITH -1,,-1
 20209	041702	650 00 0 00 070253 		TDC	[0]		;*TDC SHOULD PLACE -1,,-1 INTO THE AC
 20210	041703	300 00 0 00 000000 		CAI			;CAI IS A NO-OP.  IT IS HERE IN CASE TDC SKIPS
 20211	041704	312 00 0 00 070254 		CAME	[-1]		;PASS TEST IF C(AC)=-1,,-1
 20212						STOP^
 20213	041705	254 04 0 00 041706 		HALT	.+1		;TEST FAILED IF PROGRAM HALTS HERE
 20214	041706	324 00 0 00 041707 		JUMPA	.+1		;IF TEST FAILS, CHANGE THIS INSTRUCTION (JUMPA .+1) TO
 20215									;JUMPA X (X IS THE ADDRESS OF THE FIRST INSTRUCTION
 20216									;IN THE SUBTEST) TO LOOP ON ERROR^
 20217
 20218					;**********
 20219
 20220					;THIS TEST VERIFIES THAT TDNA ALWAYS SKIPS THE NEXT
 20221					;SEQUENTIAL INSTRUCTION.  IF TDNA DOES NOT
 20222					;SKIP, THIS TEST FAILS.
 20223
 20224	041707	400 00 0 00 000000 	B15700:	SETZ			;PRESET AC, E TO 0
 20225	041710	614 00 0 00 000000 		TDNA			;*TDNA SHOULD SKIP THE NEXT INSTRUCTION
 20226						STOP^
 20227	041711	254 04 0 00 041712 		HALT	.+1		;TEST FAILED IF PROGRAM HALTS HERE
 20228	041712	324 00 0 00 041713 		JUMPA	.+1		;IF TEST FAILS, CHANGE THIS INSTRUCTION (JUMPA .+1) TO
 20229									;JUMPA X (X IS THE ADDRESS OF THE FIRST INSTRUCTION
 20230									;IN THE SUBTEST) TO LOOP ON ERROR^
 20231
 20232					;*****     FAILURE ANALYSIS     *****
 20233					;C(AC0)		C(AC1)		FAILING SIGNAL
 20234
 20235					;0				SW: ET1
 20236					;0				FC: AB PC EN
 20237					;0				ET1: BR AR EN
 20238					;0				ET1: PC CLOCK
 20239					;0				ET2: MC INST FETCH EN
 20240
 20241					;**********
DFKAA PDP-10 KL10 BASIC INSTRUCTION DIAGNOSTIC (1) VER 0,2	MACRO %52(537) 09:34 31-JAN-77 PAGE 11
DFKAA3	MAC	25-AUG-75 13:57		TEST OF LOGICAL TEST INSTRUCTIONS                                                  SEQ 0438

 20242					;THIS TEST VERIFIES THAT TDN NEVER SKIPS
 20243					;NEXT SEQUENTIAL INSTRUCTION.
 20244					;THIS TEST FAILS IF TDN SKIPS.
 20245
 20246	041713	474 00 0 00 000000 	B16000:	SETO			;PRESET AC, E TO -1,,-1
 20247	041714	610 00 0 00 000000 		TDN			;*TDN SHOULD NOT SKIP
 20248	041715	334 00 0 00 000000 		SKIPA			;SKIP HALT IF TDN PASSES
 20249						STOP^
 20250	041716	254 04 0 00 041717 		HALT	.+1		;TEST FAILED IF PROGRAM HALTS HERE
 20251	041717	324 00 0 00 041720 		JUMPA	.+1		;IF TEST FAILS, CHANGE THIS INSTRUCTION (JUMPA .+1) TO
 20252									;JUMPA X (X IS THE ADDRESS OF THE FIRST INSTRUCTION
 20253									;IN THE SUBTEST) TO LOOP ON ERROR^
 20254
 20255					;**********
 20256
 20257					;THIS TEST VERIFIES THAT TDN NEVER SKIPS THE
 20258					;NEXT SEQUENTIAL INSTRUCTION.
 20259					;THIS TEST FAILS IF TDN SKIPS.
 20260
 20261	041720	400 00 0 00 000000 	B16100:	SETZ			;PRESET AC, E TO 0
 20262	041721	610 00 0 00 000000 		TDN			;*TDN SHOULD NOT SKIP
 20263	041722	334 00 0 00 000000 		SKIPA			;SKIP HALT IF TDN PASSES
 20264						STOP^
 20265	041723	254 04 0 00 041724 		HALT	.+1		;TEST FAILED IF PROGRAM HALTS HERE
 20266	041724	324 00 0 00 041725 		JUMPA	.+1		;IF TEST FAILS, CHANGE THIS INSTRUCTION (JUMPA .+1) TO
 20267									;JUMPA X (X IS THE ADDRESS OF THE FIRST INSTRUCTION
 20268									;IN THE SUBTEST) TO LOOP ON ERROR^
 20269
 20270					;**********
DFKAA PDP-10 KL10 BASIC INSTRUCTION DIAGNOSTIC (1) VER 0,2	MACRO %52(537) 09:34 31-JAN-77 PAGE 12
DFKAA3	MAC	25-AUG-75 13:57		TEST OF LOGICAL TEST INSTRUCTIONS                                                  SEQ 0439

 20271					;THIS TEST VERIFIES THAT TDNE SKIPS THE NEXT SEQUENTIAL INSTRUCTION WHEN
 20272					;AND ONLY WHEN ALL OF THE BITS OF THE AC, WHICH ARE MASKED
 20273					;BY C(E), ARE ZERO.
 20274					;IN THIS TEST C(AC) = -1..0 AND C(E) = 707070..707070.
 20275					;HENCE, TDNE SHOULD NOT SKIP THE NEXT SEQUENTIAL INSTRUCTION.
 20276					;IF TDNE SKIPS, THIS TEST FAILS
 20277
 20278	041725	200 00 0 00 070331 	B16200:	MOVE	[XWD -1,0]	;PRELOAD AC WITH -1..0
 20279	041726	612 00 0 00 070332 		TDNE	[707070707070]	;*TDNE SHOULD NOT SKIP
 20280	041727	334 00 0 00 000000 		SKIPA			;SKIP HALT IF TDNE PASSES
 20281						STOP^
 20282	041730	254 04 0 00 041731 		HALT	.+1		;TEST FAILED IF PROGRAM HALTS HERE
 20283	041731	324 00 0 00 041732 		JUMPA	.+1		;IF TEST FAILS, CHANGE THIS INSTRUCTION (JUMPA .+1) TO
 20284									;JUMPA X (X IS THE ADDRESS OF THE FIRST INSTRUCTION
 20285									;IN THE SUBTEST) TO LOOP ON ERROR^
 20286
 20287					;*****     FAILURE ANALYSIS     *****
 20288					;C(AC0)		C(AC1)		FAILING SIGNAL
 20289
 20290					;-1,,0				SW:FCE
 20291					;-1,,0				SW: PC CHANGE
 20292					;-1,,-1				FC: AD AR + EN
 20293					;E				ET2: MC INST FETCH EN
 20294
 20295					;**********
 20296
 20297					;THIS TEST VERIFIES THAT TDNE SKIPS THE NEXT SEQUENTIAL INSTRUCTION WHEN
 20298					;AND ONLY WHEN ALL OF THE BITS OF THE AC, WHICH ARE MASKED
 20299					;BY C(E), ARE ZERO.
 20300					;IN THIS CASE, AC=E AND C(AC)=0.
 20301					;HENCE, TDNE SHOULD SKIP THE NEXT SEQUENTIAL INSTRUCTION
 20302					;IF TDNE DOES NOT SKIP, THIS TEST FAILS.
 20303
 20304	041732	400 00 0 00 000000 	B16300:	SETZ			;PRELOAD AC, E WITH 0
 20305	041733	612 00 0 00 000000 		TDNE			;*TDNE SHOULD SKIP THE NEXT INSTRUCTION
 20306						STOP^
 20307	041734	254 04 0 00 041735 		HALT	.+1		;TEST FAILED IF PROGRAM HALTS HERE
 20308	041735	324 00 0 00 041736 		JUMPA	.+1		;IF TEST FAILS, CHANGE THIS INSTRUCTION (JUMPA .+1) TO
 20309									;JUMPA X (X IS THE ADDRESS OF THE FIRST INSTRUCTION
 20310									;IN THE SUBTEST) TO LOOP ON ERROR^
 20311
 20312					;*****     FAILURE ANALYSIS     *****
 20313					;C(AC0)		C(AC1)		FAILING SIGNAL
 20314
 20315					;0				SW: ET1
 20316					;0				ET1: PC CLOCK
 20317
 20318					;**********
DFKAA PDP-10 KL10 BASIC INSTRUCTION DIAGNOSTIC (1) VER 0,2	MACRO %52(537) 09:34 31-JAN-77 PAGE 13
DFKAA3	MAC	25-AUG-75 13:57		TEST OF LOGICAL TEST INSTRUCTIONS                                                  SEQ 0440

 20319					;THIS TEST VERIFIES THAT TDNN SKIPS THE NEXT SEQUENTIAL INSTRUCTION WHEN
 20320					;AND ONLY WHEN NOT ALL OF THE BITS OF THE AC, WHICH ARE MASKED
 20321					;BY C(E) ARE ZERO.
 20322					;IN THIS TEST AC=E AND C(AC)=C(E)=0.  HENCE TDNN
 20323					;SHOULD NOT SKIP THE NEXT SEQUENTIAL INSTRUCTION
 20324					;IF TDNN SKIPS, THE TEST FAILS.
 20325
 20326	041736	400 00 0 00 000000 	B16400:	SETZ			;PRELOAD AC,E WITH 0
 20327	041737	616 00 0 00 000000 		TDNN			;*TDNN SHOULD NOT SKIP THE NEXT INSTRUCTION
 20328	041740	334 00 0 00 000000 		SKIPA			;SKIP HALT IF TDNE PASSES
 20329						STOP^
 20330	041741	254 04 0 00 041742 		HALT	.+1		;TEST FAILED IF PROGRAM HALTS HERE
 20331	041742	324 00 0 00 041743 		JUMPA	.+1		;IF TEST FAILS, CHANGE THIS INSTRUCTION (JUMPA .+1) TO
 20332									;JUMPA X (X IS THE ADDRESS OF THE FIRST INSTRUCTION
 20333									;IN THE SUBTEST) TO LOOP ON ERROR^
 20334
 20335					;*****     FAILURE ANALYSIS     *****
 20336					;C(AC0)		C(AC1)		FAILING SIGNAL
 20337
 20338					;0				SW: PC CHANGE
 20339					;0				FC: AB PC EN
 20340					;0				ET2: MC INST FETCH EN
 20341
 20342					;**********
 20343
 20344					;THIS TEST VERIFIES THAT TDNA ALWAYS SKIPS THE NEXT
 20345					;SEQUENTIAL INSTRUCTION.  IF TDNA DOES NOT
 20346					;SKIP, THIS TEST FAILS.
 20347
 20348	041743	474 00 0 00 000000 	B16500:	SETO			;PRESET AC, E TO 0
 20349	041744	614 00 0 00 000000 		TDNA			;*TDNA SHOULD SKIP THE NEXT INSTRUCTION
 20350						STOP^
 20351	041745	254 04 0 00 041746 		HALT	.+1		;TEST FAILED IF PROGRAM HALTS HERE
 20352	041746	324 00 0 00 041747 		JUMPA	.+1		;IF TEST FAILS, CHANGE THIS INSTRUCTION (JUMPA .+1) TO
 20353									;JUMPA X (X IS THE ADDRESS OF THE FIRST INSTRUCTION
 20354									;IN THE SUBTEST) TO LOOP ON ERROR^
 20355
 20356					;**********
DFKAA PDP-10 KL10 BASIC INSTRUCTION DIAGNOSTIC (1) VER 0,2	MACRO %52(537) 09:34 31-JAN-77 PAGE 14
DFKAA3	MAC	25-AUG-75 13:57		TEST OF LOGICAL TEST INSTRUCTIONS                                                  SEQ 0441

 20357					;THIS TEST VERIFIES THAT TDNN SKIPS THE NEXT SEQUENTIAL INSTRUCTION WHEN
 20358					;AND ONLY WHEN NOT ALL OF THE BITS OF THE AC, WHICH ARE MASKED BY C(E),
 20359					;ARE ZERO
 20360					;IN THIS TEST C(AC)=-1,,0 AND C(E)=707070,,707070.  HENCE, TDNN
 20361					;SHOULD SKIP THE NEXT INSTRUCTION.  IF IT DOES NOT SKIP, THIS TEST FAILS.
 20362
 20363	041747	200 00 0 00 070331 	B16600:	MOVE	[XWD -1,0]	;PRESET AC TO -1,,0
 20364	041750	616 00 0 00 070332 		TDNN	[707070707070]	;*TDNN SHOULD SKIP THE NEXT INSTRUCTION
 20365						STOP^
 20366	041751	254 04 0 00 041752 		HALT	.+1		;TEST FAILED IF PROGRAM HALTS HERE
 20367	041752	324 00 0 00 041753 		JUMPA	.+1		;IF TEST FAILS, CHANGE THIS INSTRUCTION (JUMPA .+1) TO
 20368									;JUMPA X (X IS THE ADDRESS OF THE FIRST INSTRUCTION
 20369									;IN THE SUBTEST) TO LOOP ON ERROR^
 20370
 20371					;*****     FAILURE ANALYSIS     *****
 20372					;C(AC0)		C(AC1)		FAILING SIGNAL
 20373
 20374					;-1,,0				SW: FCE
 20375					;-1,,0				SW: ET1
 20376					;-1,,0				ET1: PC CLOCK
 20377
 20378					;**********
 20379
 20380					;THIS TEST VERIFIES THAT TDNE SKIPS THE NEXT SEQUENTIAL INSTRUCTION WHEN
 20381					;AND ONLY WHEN ALL OF THE BITS OF THE AC, WHICH ARE MASKED
 20382					;BY C(E), ARE ZERO.
 20383					;IN THIS TEST, C(AC)=-1,,-1 AND C(E)=0.  HENCE, TDNE SHOULD SKIP
 20384					;THE NEXT SEQUENTIAL INSTRUCTION.
 20385					;IF TDNE DOES NOT SKIP, THIS TEST FAILS
 20386
 20387	041753	474 00 0 00 000000 	B16700:	SETO			;PRESET AC TO ALL ONES
 20388	041754	612 00 0 00 070253 		TDNE	[0]		;*TDNE SHOULD SKIP THE NEXT INSTRUCTION
 20389						STOP^
 20390	041755	254 04 0 00 041756 		HALT	.+1		;TEST FAILED IF PROGRAM HALTS HERE
 20391	041756	324 00 0 00 041757 		JUMPA	.+1		;IF TEST FAILS, CHANGE THIS INSTRUCTION (JUMPA .+1) TO
 20392									;JUMPA X (X IS THE ADDRESS OF THE FIRST INSTRUCTION
 20393									;IN THE SUBTEST) TO LOOP ON ERROR^
 20394
 20395					;**********
DFKAA PDP-10 KL10 BASIC INSTRUCTION DIAGNOSTIC (1) VER 0,2	MACRO %52(537) 09:34 31-JAN-77 PAGE 15
DFKAA3	MAC	25-AUG-75 13:57		TEST OF LOGICAL TEST INSTRUCTIONS                                                  SEQ 0442

 20396					;THIS TEST VERIFIES THAT TDNE SKIPS THE NEXT SEQUENTIAL INSTRUCTION WHEN
 20397					;AND ONLY WHEN ALL OF THE BITS OF THE AC, WHICH ARE MASKED
 20398					;BY C(E), ARE ZERO.
 20399					;IN THIS TEST C(AC)=0 AND C(E)=-1,,-1, HENCE, TDNE SHOULD SKIP
 20400					;THE NEXT SEQUENTIAL INSTRUCTION.
 20401					;IF TDNE DOES NOT SKIP, THIS TEST FAILS
 20402
 20403	041757	400 00 0 00 000000 	B17000:	SETZ			;PRESET AC TO 0
 20404	041760	612 00 0 00 070254 		TDNE	[-1]		;*TDNE SHOULD SKIP THE NEXT INSTRUCTION
 20405						STOP^
 20406	041761	254 04 0 00 041762 		HALT	.+1		;TEST FAILED IF PROGRAM HALTS HERE
 20407	041762	324 00 0 00 041763 		JUMPA	.+1		;IF TEST FAILS, CHANGE THIS INSTRUCTION (JUMPA .+1) TO
 20408									;JUMPA X (X IS THE ADDRESS OF THE FIRST INSTRUCTION
 20409									;IN THE SUBTEST) TO LOOP ON ERROR^
 20410
 20411					;*****     FAILURE ANALYSIS     *****
 20412					;C(AC0)		C(AC1)		FAILING SIGNAL
 20413
 20414					;0				FC: AD FM + EN
 20415
 20416					;**********
 20417
 20418					;THIS TEST VERIFIES THAT TDN NEVER SKIPS THE NEXT SEQUENTIAL INSTRUCTION.
 20419					;THIS TEST FAILS IF TDN SKIPS
 20420
 20421	041763	474 00 0 00 000000 	B17300:	SETO			;PRESET AC TO -1,,-1
 20422	041764	610 00 0 00 070253 		TDN	[0]		;*TDN SHOULD NOT SKIP
 20423	041765	334 00 0 00 000000 		SKIPA			;SKIP HALT IF TDN PASSES
 20424						STOP^
 20425	041766	254 04 0 00 041767 		HALT	.+1		;TEST FAILED IF PROGRAM HALTS HERE
 20426	041767	324 00 0 00 041770 		JUMPA	.+1		;IF TEST FAILS, CHANGE THIS INSTRUCTION (JUMPA .+1) TO
 20427									;JUMPA X (X IS THE ADDRESS OF THE FIRST INSTRUCTION
 20428									;IN THE SUBTEST) TO LOOP ON ERROR^
 20429
 20430					;**********
DFKAA PDP-10 KL10 BASIC INSTRUCTION DIAGNOSTIC (1) VER 0,2	MACRO %52(537) 09:34 31-JAN-77 PAGE 16
DFKAA3	MAC	25-AUG-75 13:57		TEST OF LOGICAL TEST INSTRUCTIONS                                                  SEQ 0443

 20431					;THIS TEST VERIFIES THAT TDN NEVER SKIPS THE NEXT SEQUENTIAL INSTRUCTION.
 20432					;THIS TEST FAILS IF TDN SKIPS
 20433
 20434	041770	400 00 0 00 000000 	B17400:	SETZ			;PRESET AC TO 0
 20435	041771	610 00 0 00 070254 		TDN	[-1]		;*TDN SHOULD NOT SKIP
 20436	041772	334 00 0 00 000000 		SKIPA			;SKIP HALT IF TDN PASSES
 20437						STOP^
 20438	041773	254 04 0 00 041774 		HALT	.+1		;TEST FAILED IF PROGRAM HALTS HERE
 20439	041774	324 00 0 00 041775 		JUMPA	.+1		;IF TEST FAILS, CHANGE THIS INSTRUCTION (JUMPA .+1) TO
 20440									;JUMPA X (X IS THE ADDRESS OF THE FIRST INSTRUCTION
 20441									;IN THE SUBTEST) TO LOOP ON ERROR^
 20442
 20443					;**********
 20444
 20445					;THIS TEST VERIFIES THAT TDNA ALWAYS SKIPS THE NEXT SEQUENTIAL INSTRUCTION
 20446					;THIS TEST FAILS IF TDNA DOES NOT SKIP
 20447
 20448	041775	474 00 0 00 000000 	B17700:	SETO			;PRESET AC TO -1,,-1
 20449	041776	614 00 0 00 070253 		TDNA	[0]		;*TDNA SHOULD SKIP
 20450						STOP^
 20451	041777	254 04 0 00 042000 		HALT	.+1		;TEST FAILED IF PROGRAM HALTS HERE
 20452	042000	324 00 0 00 042001 		JUMPA	.+1		;IF TEST FAILS, CHANGE THIS INSTRUCTION (JUMPA .+1) TO
 20453									;JUMPA X (X IS THE ADDRESS OF THE FIRST INSTRUCTION
 20454									;IN THE SUBTEST) TO LOOP ON ERROR^
 20455
 20456					;**********
DFKAA PDP-10 KL10 BASIC INSTRUCTION DIAGNOSTIC (1) VER 0,2	MACRO %52(537) 09:34 31-JAN-77 PAGE 17
DFKAA3	MAC	25-AUG-75 13:57		TEST OF LOGICAL TEST INSTRUCTIONS                                                  SEQ 0444

 20457					;THIS TEST VERIFIES THAT TDNA ALWAYS SKIPS THE NEXT SEQUENTIAL INSTRUCTION
 20458					;THIS TEST FAILS IF TDNA DOES NOT SKIP
 20459
 20460	042001	400 00 0 00 000000 	B20000:	SETZ			;PRESET AC TO 0
 20461	042002	614 00 0 00 070254 		TDNA	[-1]		;*TDNA SHOULD SKIP
 20462						STOP^
 20463	042003	254 04 0 00 042004 		HALT	.+1		;TEST FAILED IF PROGRAM HALTS HERE
 20464	042004	324 00 0 00 042005 		JUMPA	.+1		;IF TEST FAILS, CHANGE THIS INSTRUCTION (JUMPA .+1) TO
 20465									;JUMPA X (X IS THE ADDRESS OF THE FIRST INSTRUCTION
 20466									;IN THE SUBTEST) TO LOOP ON ERROR^
 20467
 20468					;**********
 20469
 20470					;THIS TEST VERIFIES THAT TDNE SKIPS THE NEXT SEQUENTIAL INSTRUCTION WHEN
 20471					;AND ONLY WHEN ALL OF THE BITS OF THE AC, WHICH ARE MASKED BY C(E), ARE ZERO.
 20472					;IN THIS TEST AC=E AND C(AC)=C(E)=-1,,-1.  HENCE TDNE SHOULD NOT SKIP.
 20473					;IF TDNE SKIPS, THIS TEST FAILS.
 20474
 20475	042005	474 00 0 00 000000 	B20400:	SETO			;PRESET AC,E TO -1,,-1
 20476	042006	612 00 0 00 000000 		TDNE			;*TDNE SHOULD NOT SKIP
 20477	042007	334 00 0 00 000000 		SKIPA			;SKIP HALT IF TDNE PASSES
 20478						STOP^
 20479	042010	254 04 0 00 042011 		HALT	.+1		;TEST FAILED IF PROGRAM HALTS HERE
 20480	042011	324 00 0 00 042012 		JUMPA	.+1		;IF TEST FAILS, CHANGE THIS INSTRUCTION (JUMPA .+1) TO
 20481									;JUMPA X (X IS THE ADDRESS OF THE FIRST INSTRUCTION
 20482									;IN THE SUBTEST) TO LOOP ON ERROR^
 20483
 20484					;**********
DFKAA PDP-10 KL10 BASIC INSTRUCTION DIAGNOSTIC (1) VER 0,2	MACRO %52(537) 09:34 31-JAN-77 PAGE 18
DFKAA3	MAC	25-AUG-75 13:57		TEST OF LOGICAL TEST INSTRUCTIONS                                                  SEQ 0445

 20485					;THIS TEST VERIFIES THAT TDNN SKIPS THE NEXT SEQUENTIAL INSTRUCTION WHEN
 20486					;AND ONLY WHEN NOT ALL OF THE BITS OF THE AC, WHICH ARE MASKED BY C(E), ARE ZERO.
 20487					;IN THIS TEST, AC=E AND C(AC)=C(E)=-1,,-1.  HENCE TDNN SHOULD SKIP
 20488					;IF TDNN DOES NOT SKIP, THIS TEST FAILS
 20489
 20490	042012	474 00 0 00 000000 	B20600:	SETO			;PRESET AC,E TO -1,,-1
 20491	042013	616 00 0 00 000000 		TDNN			;*TDNN SHOULD SKIP THE NEXT SEQUENTIAL INSTRUCTION
 20492						STOP^
 20493	042014	254 04 0 00 042015 		HALT	.+1		;TEST FAILED IF PROGRAM HALTS HERE
 20494	042015	324 00 0 00 042016 		JUMPA	.+1		;IF TEST FAILS, CHANGE THIS INSTRUCTION (JUMPA .+1) TO
 20495									;JUMPA X (X IS THE ADDRESS OF THE FIRST INSTRUCTION
 20496									;IN THE SUBTEST) TO LOOP ON ERROR^
 20497
 20498					;**********
 20499
 20500					;THIS TEST VERIFIES THAT TDNN SKIPS THE NEXT SEQUENTIAL INSTRUCTION WHEN
 20501					;AND ONLY WHEN NOT ALL OF THE BITS OF THE AC, WHICH ARE MASKED BY C(E), ARE ZERO.
 20502					;IN THIS TEST, C(AC)=0 AND C(E)=-1,,-1.  HENCE TDNN SHOULD NOT SKIP
 20503					;IF TDNN SKIPS, THIS TEST FAILS
 20504
 20505	042016	400 00 0 00 000000 	B20700:	SETZ			;PRESET AC TO 0
 20506	042017	616 00 0 00 070254 		TDNN	[-1]		;*TDNN SHOULD NOT SKIP THE NEXT SEQUENTIAL INSTRUCTION
 20507	042020	334 00 0 00 000000 		SKIPA			;SKIP HALT IF TDNN PASSES
 20508						STOP^
 20509	042021	254 04 0 00 042022 		HALT	.+1		;TEST FAILED IF PROGRAM HALTS HERE
 20510	042022	324 00 0 00 042023 		JUMPA	.+1		;IF TEST FAILS, CHANGE THIS INSTRUCTION (JUMPA .+1) TO
 20511									;JUMPA X (X IS THE ADDRESS OF THE FIRST INSTRUCTION
 20512									;IN THE SUBTEST) TO LOOP ON ERROR^
 20513
 20514					;*****     FAILURE ANALYSIS     *****
 20515					;C(AC0)		C(AC1)		FAILING SIGNAL
 20516
 20517					;0				FC: AD FM + EN
 20518
 20519					;**********
DFKAA PDP-10 KL10 BASIC INSTRUCTION DIAGNOSTIC (1) VER 0,2	MACRO %52(537) 09:34 31-JAN-77 PAGE 19
DFKAA3	MAC	25-AUG-75 13:57		TEST OF LOGICAL TEST INSTRUCTIONS                                                  SEQ 0446

 20520					;THIS TEST VERIFIES THAT TDNN SKIPS THE NEXT SEQUENTIAL INSTRUCTION WHEN
 20521					;AND ONLY WHEN NOT ALL OF THE BITS OF THE AC, WHICH ARE MASKED BY C(E), ARE ZERO.
 20522					;IN THIS TEST, C(AC)=-1,,-1 AND C(E)=0.  HENCE TDNN SHOULD NOT SKIP
 20523					;IF TDNN SKIPS, THIS TEST FAILS
 20524
 20525	042023	474 00 0 00 000000 	B21000:	SETO			;PRESET AC TO -1,,-1
 20526	042024	616 00 0 00 070253 		TDNN	[0]		;*TDNN SHOULD NOT SKIP THE NEXT SEQUENTIAL INSTRUCTION
 20527	042025	334 00 0 00 000000 		SKIPA			;SKIP HALT IF TDNN PASSES
 20528						STOP^
 20529	042026	254 04 0 00 042027 		HALT	.+1		;TEST FAILED IF PROGRAM HALTS HERE
 20530	042027	324 00 0 00 042030 		JUMPA	.+1		;IF TEST FAILS, CHANGE THIS INSTRUCTION (JUMPA .+1) TO
 20531									;JUMPA X (X IS THE ADDRESS OF THE FIRST INSTRUCTION
 20532									;IN THE SUBTEST) TO LOOP ON ERROR^
 20533
 20534					;*****     FAILURE ANALYSIS     *****
 20535					;C(AC0)		C(AC1)		FAILING SIGNAL
 20536
 20537					;-1,,-1				FC: AD AR + EN
 20538
 20539					;**********
 20540
 20541					;THIS TEST VERIFIES THAT TDO PLACES ONES IN THE BITS OF THE AC
 20542					;WHICH ARE MASKED BY C(E) AND DOES NOT EFFECT THE UNMASKED BITS OF THE AC.
 20543					;IN THIS CASE C(AC)=0 AND C(E)=-1,,0.  HENCE, THE RESULT IN THE AC SHOULD BE -1,,0
 20544					;THE AC IS CHECKED FOR -1,,0.  IF C(AC)=-1,,0, THIS TEST PASSES
 20545
 20546	042030	400 00 0 00 000000 	B21100:	SETZ			;PRELOAD AC WITH 0
 20547	042031	670 00 0 00 070331 		TDO	[XWD -1,0]	;*TDO SHOULD PLACE -1,,0 INTO THE AC
 20548	042032	312 00 0 00 070331 		CAME	[XWD -1,0]	;PASS IF C(AC)=-1,,0
 20549						STOP^
 20550	042033	254 04 0 00 042034 		HALT	.+1		;TEST FAILED IF PROGRAM HALTS HERE
 20551	042034	324 00 0 00 042035 		JUMPA	.+1		;IF TEST FAILS, CHANGE THIS INSTRUCTION (JUMPA .+1) TO
 20552									;JUMPA X (X IS THE ADDRESS OF THE FIRST INSTRUCTION
 20553									;IN THE SUBTEST) TO LOOP ON ERROR^
 20554
 20555					;**********
DFKAA PDP-10 KL10 BASIC INSTRUCTION DIAGNOSTIC (1) VER 0,2	MACRO %52(537) 09:34 31-JAN-77 PAGE 20
DFKAA3	MAC	25-AUG-75 13:57		TEST OF LOGICAL TEST INSTRUCTIONS                                                  SEQ 0447

 20556					;THIS TEST VERIFIES THAT TSO PLACES ONES IN THE BITS OF THE AC
 20557					;WHICH ARE MASKED BY BOTH HALVES OF C(E) SWAPPED.
 20558					;THE UNMASKED BITS OF THE AC ARE NOT AFFECTED
 20559					;IN THIS CASE, C(AC)=0 AND C(E)=-1,,0.  HENCE,
 20560					;THE RESULT IN THE AC SHOULD BE 0,,-1.  THE AC IS
 20561					;CHECKED FOR 0,,-1.  THIS TEST PASSES IF C(AC)=0,,-1
 20562
 20563	042035	400 00 0 00 000000 	B21400:	SETZ			;PRESET AC WITH 0
 20564	042036	671 00 0 00 070331 		TSO	[XWD -1,0]	;*TSO SHOULD PLACE 0,,-1 INTO THE AC
 20565	042037	312 00 0 00 070330 		CAME	[XWD 0,-1]	;PASS IF C(AC)=0,,-1
 20566						STOP^
 20567	042040	254 04 0 00 042041 		HALT	.+1		;TEST FAILED IF PROGRAM HALTS HERE
 20568	042041	324 00 0 00 042042 		JUMPA	.+1		;IF TEST FAILS, CHANGE THIS INSTRUCTION (JUMPA .+1) TO
 20569									;JUMPA X (X IS THE ADDRESS OF THE FIRST INSTRUCTION
 20570									;IN THE SUBTEST) TO LOOP ON ERROR^
 20571
 20572					;*****     FAILURE ANALYSIS     *****
 20573					;C(AC0)		C(AC1)		FAILING SIGNAL
 20574
 20575					;0				SW: FCE
 20576					;0				SW: ET0
 20577					;0				SW: ET1
 20578					;0				FC: AD FM + EN
 20579					;0				FC: AD AR + EN
 20580					;0				ET0: AR SWAP
 20581					;0				ET0: AD FM + EN
 20582					;0				ET0: AD AR + EN
 20583					;0				ET1: BR AR EN
 20584					;0				ET1: AD BR - EN
 20585					;-1,,-1				ET1: AD AR + EN
 20586					;0				ET1: AD EQV
 20587
 20588					;**********
 20589
 20590					;THIS TEST VERIFIES THAT TSO PLACES ONES IN THE BITS OF THE AC
 20591					;WHICH ARE MASKED BY BOTH HALVES OF C(E) SWAPPED.
 20592					;THE UNMASKED BITS OF THE AC ARE NOT AFFECTED
 20593					;IN THIS CASE, C(AC)=0 AND C(E)=0,,-1.  HENCE,
 20594					;THE RESULT IN THE AC SHOULD BE -1,,0.  THE AC IS
 20595					;CHECKED FOR -1,,0.  THIS TEST PASSES IF C(AC)=-1,,0
 20596
 20597	042042	400 00 0 00 000000 	B21500:	SETZ			;PRESET AC WITH 0
 20598	042043	671 00 0 00 070330 		TSO	[XWD 0,-1]	;*TSO SHOULD PLACE -1,,0 INTO THE AC
 20599	042044	312 00 0 00 070331 		CAME	[XWD -1,0]	;PASS IF C(AC)=-1,,0
 20600						STOP^
 20601	042045	254 04 0 00 042046 		HALT	.+1		;TEST FAILED IF PROGRAM HALTS HERE
 20602	042046	324 00 0 00 042047 		JUMPA	.+1		;IF TEST FAILS, CHANGE THIS INSTRUCTION (JUMPA .+1) TO
 20603									;JUMPA X (X IS THE ADDRESS OF THE FIRST INSTRUCTION
 20604									;IN THE SUBTEST) TO LOOP ON ERROR^
 20605
 20606					;**********
DFKAA PDP-10 KL10 BASIC INSTRUCTION DIAGNOSTIC (1) VER 0,2	MACRO %52(537) 09:34 31-JAN-77 PAGE 21
DFKAA3	MAC	25-AUG-75 13:57		TEST OF LOGICAL TEST INSTRUCTIONS                                                  SEQ 0448

 20607					;THIS TEST VERIFIES THAT TSO PLACES ONES IN THE BITS OF THE AC
 20608					;WHICH ARE MASKED BY BOTH HALVES OF C(E) SWAPPED.
 20609					;THE UNMASKED BITS OF THE AC ARE NOT AFFECTED
 20610					;IN THIS CASE, C(AC)=0 AND C(E)=0,,-1.  HENCE,
 20611					;THE RESULT IN THE AC SHOULD BE -1,,0.  THE AC IS
 20612					;CHECKED FOR ITS CONTENTS NON-ZERO.  THIS TEST PASSES IF C(AC) IS NON-ZERO
 20613
 20614	042047	400 00 0 00 000000 	B21600:	SETZ			;PRELOAD AC,E WITH 0
 20615	042050	671 00 0 00 000000 		TSO			;*TSO SHOULD PLACE 0 INTO THE AC
 20616	042051	332 00 0 00 000000 		SKIPE			;PASS IF C(AC)=0
 20617						STOP^
 20618	042052	254 04 0 00 042053 		HALT	.+1		;TEST FAILED IF PROGRAM HALTS HERE
 20619	042053	324 00 0 00 042054 		JUMPA	.+1		;IF TEST FAILS, CHANGE THIS INSTRUCTION (JUMPA .+1) TO
 20620									;JUMPA X (X IS THE ADDRESS OF THE FIRST INSTRUCTION
 20621									;IN THE SUBTEST) TO LOOP ON ERROR^
 20622
 20623					;**********
 20624
 20625					;THIS TEST VERIFIES THAT TSO PLACES ONES IN THE BITS OF THE AC
 20626					;WHICH ARE MASKED BY BOTH HALVES OF C(E) SWAPPED.
 20627					;THE UNMASKED BITS OF THE AC ARE NOT AFFECTED
 20628					;IN THIS CASE, AC=E AND C(AC)=C(E)=-1,,-1.  HENCE,
 20629					;THE RESULT IN THE AC SHOULD BE -1,,-1.  THE AC IS
 20630					;CHECKED FOR -1,,-1.  THIS TEST PASSES IF C(AC) -1,,-1
 20631
 20632	042054	474 00 0 00 000000 	B21700:	SETO			;PRELOAD AC,E WITH -1,,-1
 20633	042055	671 00 0 00 000000 		TSO			;*TSO SHOULD PLACE -1,,-1 INTO THE AC
 20634	042056	312 00 0 00 070254 		CAME	[-1]		;PASS IF C(AC)=-1,,-1
 20635						STOP^
 20636	042057	254 04 0 00 042060 		HALT	.+1		;TEST FAILED IF PROGRAM HALTS HERE
 20637	042060	324 00 0 00 042061 		JUMPA	.+1		;IF TEST FAILS, CHANGE THIS INSTRUCTION (JUMPA .+1) TO
 20638									;JUMPA X (X IS THE ADDRESS OF THE FIRST INSTRUCTION
 20639									;IN THE SUBTEST) TO LOOP ON ERROR^
 20640
 20641					;**********
DFKAA PDP-10 KL10 BASIC INSTRUCTION DIAGNOSTIC (1) VER 0,2	MACRO %52(537) 09:34 31-JAN-77 PAGE 22
DFKAA3	MAC	25-AUG-75 13:57		TEST OF LOGICAL TEST INSTRUCTIONS                                                  SEQ 0449

 20642					;THIS TEST VERIFIES THAT TSO PLACES ONES IN THE BITS OF THE AC
 20643					;WHICH ARE MASKED BY BOTH HALVES OF C(E) SWAPPED.
 20644					;THE UNMASKED BITS OF THE AC ARE NOT AFFECTED
 20645					;IN THIS CASE, C(AC)=-1,,0 AND C(E)=0,,-1.  HENCE,
 20646					;THE RESULT IN THE AC SHOULD BE -1,,0.  THE AC IS
 20647					;CHECKED FOR -1,,0.  THIS TEST PASSES IF C(AC)=-1,,0
 20648
 20649	042061	200 00 0 00 070331 	B22200:	MOVE	[XWD -1,0]	;PRELOAD AC WITH -1,,0
 20650	042062	671 00 0 00 070330 		TSO	[XWD 0,-1]	;*TSO SHOULD PLACE -1,,0 INTO THE AC
 20651	042063	312 00 0 00 070331 		CAME	[-1,,0]		;PASS IF C(AC)=-1,,0
 20652						STOP^
 20653	042064	254 04 0 00 042065 		HALT	.+1		;TEST FAILED IF PROGRAM HALTS HERE
 20654	042065	324 00 0 00 042066 		JUMPA	.+1		;IF TEST FAILS, CHANGE THIS INSTRUCTION (JUMPA .+1) TO
 20655									;JUMPA X (X IS THE ADDRESS OF THE FIRST INSTRUCTION
 20656									;IN THE SUBTEST) TO LOOP ON ERROR^
 20657
 20658					;**********
 20659
 20660					;THIS TEST VERIFIES THAT TSO PLACES ONES IN THE BITS OF THE AC
 20661					;WHICH ARE MASKED BY BOTH HALVES OF C(E) SWAPPED.
 20662					;THE UNMASKED BITS OF THE AC ARE NOT AFFECTED
 20663					;IN THIS CASE, C(AC)=0,,-1 AND C(E)=0.  HENCE,
 20664					;THE RESULT IN THE AC SHOULD BE 0,,-1.  THE AC IS
 20665					;CHECKED FOR 0,,-1.  THIS TEST PASSES IF C(AC)=0,,-1
 20666
 20667	042066	201 00 0 00 777777 	B22300:	MOVEI	-1		;PRELOAD AC WITH 0,,-1
 20668	042067	671 00 0 00 070253 		TSO	[0]		;*TSO SHOULD PLACE 0,,-1 INTO THE AC
 20669	042070	312 00 0 00 070330 		CAME	[XWD 0,-1]	;PASS IF C(AC)=0,,-1
 20670						STOP^
 20671	042071	254 04 0 00 042072 		HALT	.+1		;TEST FAILED IF PROGRAM HALTS HERE
 20672	042072	324 00 0 00 042073 		JUMPA	.+1		;IF TEST FAILS, CHANGE THIS INSTRUCTION (JUMPA .+1) TO
 20673									;JUMPA X (X IS THE ADDRESS OF THE FIRST INSTRUCTION
 20674									;IN THE SUBTEST) TO LOOP ON ERROR^
 20675
 20676					;*****     FAILURE ANALYSIS     *****
 20677					;C(AC0)		C(AC1)		FAILING SIGNAL
 20678
 20679					;0				ET1: AD FM - EN
 20680					;0				ET2: AR AD EN
 20681
 20682					;**********
DFKAA PDP-10 KL10 BASIC INSTRUCTION DIAGNOSTIC (1) VER 0,2	MACRO %52(537) 09:34 31-JAN-77 PAGE 23
DFKAA3	MAC	25-AUG-75 13:57		TEST OF LOGICAL TEST INSTRUCTIONS                                                  SEQ 0450

 20683					;THIS TEST VERIFIES THAT TSO PLACES ONES IN THE BITS OF THE AC
 20684					;WHICH ARE MASKED BY BOTH HALVES OF C(E) SWAPPED.
 20685					;THE UNMASKED BITS OF THE AC ARE NOT AFFECTED
 20686					;IN THIS CASE, C(AC)=-1,,0 AND C(E)=0.  HENCE,
 20687					;THE RESULT IN THE AC SHOULD BE -1,,0.  THE AC IS
 20688					;CHECKED FOR -1,,0.  THIS TEST PASSES IF C(AC)=-1,,0
 20689
 20690	042073	200 00 0 00 070331 	B22400:	MOVE	[XWD -1,0]	;PRELOAD AC WITH -1,,0
 20691	042074	671 00 0 00 070253 		TSO	[0]		;*TSO SHOULD PLACE -1,,0 INTO THE AC
 20692	042075	312 00 0 00 070331 		CAME	[XWD -1,0]	;PASS IF C(AC)=-1,,0
 20693						STOP^
 20694	042076	254 04 0 00 042077 		HALT	.+1		;TEST FAILED IF PROGRAM HALTS HERE
 20695	042077	324 00 0 00 042100 		JUMPA	.+1		;IF TEST FAILS, CHANGE THIS INSTRUCTION (JUMPA .+1) TO
 20696									;JUMPA X (X IS THE ADDRESS OF THE FIRST INSTRUCTION
 20697									;IN THE SUBTEST) TO LOOP ON ERROR^
 20698
 20699					;**********
 20700
 20701					;THIS TEST VERIFIES THAT TSO PLACES ONES IN THE BITS OF THE AC
 20702					;WHICH ARE MARKED BY BOTH HALVES OF C(E) SWAPPED.
 20703					;THE UNMASKED BITS OF THE AC ARE NOT AFFECTED
 20704					;IN THIS CASE, C(AC)=0,,-1 AND C(E)=-1,,-1.  HENCE,
 20705					;THE RESULT IN THE AC SHOULD BE -1,,-1.  THE AC IS
 20706					;CHECKED FOR -1,,-1.  THIS TEST PASSES IF C(AC)=-1,,-1
 20707
 20708	042100	201 00 0 00 777777 	B22500:	MOVEI	-1		;PRELOAD AC WITH 0,,-1
 20709	042101	671 00 0 00 070254 		TSO	[-1]		;*TSO SHOULD PLACE -1,,-1 INTO THE AC
 20710	042102	312 00 0 00 070254 		CAME	[-1]		;PASS IF C(AC)=-1,,-1
 20711						STOP^
 20712	042103	254 04 0 00 042104 		HALT	.+1		;TEST FAILED IF PROGRAM HALTS HERE
 20713	042104	324 00 0 00 042105 		JUMPA	.+1		;IF TEST FAILS, CHANGE THIS INSTRUCTION (JUMPA .+1) TO
 20714									;JUMPA X (X IS THE ADDRESS OF THE FIRST INSTRUCTION
 20715									;IN THE SUBTEST) TO LOOP ON ERROR^
 20716
 20717					;**********
DFKAA PDP-10 KL10 BASIC INSTRUCTION DIAGNOSTIC (1) VER 0,2	MACRO %52(537) 09:34 31-JAN-77 PAGE 24
DFKAA3	MAC	25-AUG-75 13:57		TEST OF LOGICAL TEST INSTRUCTIONS                                                  SEQ 0451

 20718					;THIS TEST VERIFIES THAT TSO PLACES ONES IN THE BITS OF THE AC
 20719					;WHICH ARE MARKED BY BOTH HALVES OF C(E) SWAPPED.
 20720					;THE UNMASKED BITS OF THE AC ARE NOT AFFECTED
 20721					;IN THIS CASE, C(AC)=-1,,0 AND C(E)=-1,,-1.  HENCE,
 20722					;THE RESULT IN THE AC SHOULD BE -1,,-1.  THE AC IS
 20723					;CHECKED FOR -1,,-1.  THIS TEST PASSES IF C(AC)=-1,,-1
 20724
 20725	042105	200 00 0 00 070331 	B22600:	MOVE	[XWD -1,0]	;PRELOAD AC WITH -1,,0
 20726	042106	671 00 0 00 070254 		TSO	[-1]		;*TSO SHOULD PLACE -1,,-1 INTO THE AC
 20727	042107	312 00 0 00 070254 		CAME	[-1]		;PASS IF C(AC)=-1,,-1
 20728						STOP^
 20729	042110	254 04 0 00 042111 		HALT	.+1		;TEST FAILED IF PROGRAM HALTS HERE
 20730	042111	324 00 0 00 042112 		JUMPA	.+1		;IF TEST FAILS, CHANGE THIS INSTRUCTION (JUMPA .+1) TO
 20731									;JUMPA X (X IS THE ADDRESS OF THE FIRST INSTRUCTION
 20732									;IN THE SUBTEST) TO LOOP ON ERROR^
 20733
 20734					;**********
DFKAA PDP-10 KL10 BASIC INSTRUCTION DIAGNOSTIC (1) VER 0,2	MACRO %52(537) 09:34 31-JAN-77 PAGE 25
DFKAA3	MAC	25-AUG-75 13:57		TEST OF HWT INSTRUCTIONS                                                           SEQ 0452

 20735					SUBTTL	TEST OF HWT INSTRUCTIONS
 20736
 20737					;**********
 20738
 20739					;THIS TEST VERIFIES THAT HLL PLACES THE LEFT HALF OF C(E) INTO
 20740					;THE LEFT HALF OF THE AC.  THE RIGHT HALF OF THE AC IS UNAFFECTED.
 20741					;IN THIS CASE AC=E AND C(AC)=C(E)=0.  HENCE, THE RESULT IN THE AC
 20742					;SHOULD BE 0.  THE AC IS CHECKED FOR 0.  IF C(AC)=0, THIS TEST PASSES
 20743
 20744	042112	400 00 0 00 000000 	B22700:	SETZ			;PRELOAD AC,E WITH 0
 20745	042113	500 00 0 00 000000 		HLL			;*HLL SHOULD PLACE 0 INTO THE AC
 20746	042114	332 00 0 00 000000 		SKIPE			;PASS IF C(AC)=0
 20747						STOP^
 20748	042115	254 04 0 00 042116 		HALT	.+1		;TEST FAILED IF PROGRAM HALTS HERE
 20749	042116	324 00 0 00 042117 		JUMPA	.+1		;IF TEST FAILS, CHANGE THIS INSTRUCTION (JUMPA .+1) TO
 20750									;JUMPA X (X IS THE ADDRESS OF THE FIRST INSTRUCTION
 20751									;IN THE SUBTEST) TO LOOP ON ERROR^
 20752
 20753					;*****     FAILURE ANALYSIS     *****
 20754					;C(AC0)		C(AC1)		FAILING SIGNAL
 20755
 20756					;-1,,0				FC: AD AR + EN
 20757					;0,,-1				FC: AD RT FM + EN
 20758
 20759					;**********
 20760
 20761					;THIS TEST VERIFIES THAT HLL PLACES THE LEFT HALF OF C(E) INTO
 20762					;THE LEFT HALF OF THE AC.  THE RIGHT HALF OF THE AC IS UNAFFECTED.
 20763					;IN THIS CASE, C(AC)=-1,,-1 AND C(E)=0.  HENCE, THE RESULT IN THE AC
 20764					;SHOULD BE 0,,-1.  THE AC IS CHECKED FOR 0,,-1.  IF C(AC)=0,,-1,
 20765					;THIS TEST PASSES.
 20766
 20767	042117	474 00 0 00 000000 	B23000:	SETO			;PRELOAD AC WITH -1,,-1
 20768	042120	500 00 0 00 070253 		HLL	[0]		;*HLL SHOULD PLACE 0,,-1 INTO THE AC
 20769	042121	302 00 0 00 777777 		CAIE	-1		;PASS IF C(AC)=0,,-1
 20770						STOP^
 20771	042122	254 04 0 00 042123 		HALT	.+1		;TEST FAILED IF PROGRAM HALTS HERE
 20772	042123	324 00 0 00 042124 		JUMPA	.+1		;IF TEST FAILS, CHANGE THIS INSTRUCTION (JUMPA .+1) TO
 20773									;JUMPA X (X IS THE ADDRESS OF THE FIRST INSTRUCTION
 20774									;IN THE SUBTEST) TO LOOP ON ERROR^
 20775
 20776					;*****     FAILURE ANALYSIS     *****
 20777					;C(AC0)		C(AC1)		FAILING SIGNAL
 20778
 20779					;0,,-1				SW: FCE
 20780					;0				ET2: AR AD EN
 20781
 20782					;**********
DFKAA PDP-10 KL10 BASIC INSTRUCTION DIAGNOSTIC (1) VER 0,2	MACRO %52(537) 09:34 31-JAN-77 PAGE 26
DFKAA3	MAC	25-AUG-75 13:57		TEST OF HWT INSTRUCTIONS                                                           SEQ 0453

 20783					;THIS TEST VERIFIES THAT HLL PLACES THE LEFT HALF OF C(E) INTO
 20784					;THE LEFT HALF OF THE AC.  THE RIGHT HALF OF THE AC IS UNAFFECTED.
 20785					;IN THIS CASE AC=E AND C(AC)=C(E)=-1,,-1.  HENCE, THE RESULT IN THE AC
 20786					;SHOULD BE -1,,-1.  THE AC IS CHECKED FOR -1,,-1.  IF C(AC)=-1,,-1, THIS TEST PASSES.
 20787
 20788	042124	474 00 0 00 000000 	B23200:	SETO			;PRELOAD AC,E WITH -1,,-1
 20789	042125	500 00 0 00 000000 		HLL			;*HLL SHOULD PLACE -1,,-1 INTO THE AC
 20790	042126	312 00 0 00 070254 		CAME	[-1]		;PASS IF C(AC)=-1,,-1
 20791						STOP^
 20792	042127	254 04 0 00 042130 		HALT	.+1		;TEST FAILED IF PROGRAM HALTS HERE
 20793	042130	324 00 0 00 042131 		JUMPA	.+1		;IF TEST FAILS, CHANGE THIS INSTRUCTION (JUMPA .+1) TO
 20794									;JUMPA X (X IS THE ADDRESS OF THE FIRST INSTRUCTION
 20795									;IN THE SUBTEST) TO LOOP ON ERROR^
 20796
 20797					;**********
 20798
 20799					;THIS TEST VERIFIES THAT HLL PLACES THE LEFT HALF OF C(E) INTO
 20800					;THE LEFT HALF OF THE AC.  THE RIGHT HALF OF THE AC IS UNAFFECTED.
 20801					;IN THIS CASE C(AC)=0 AND C(E)=-1,,-1.  HENCE, THE RESULT IN THE AC
 20802					;SHOULD BE -1,,0.  THE AC IS CHECKED FOR -1,,0.  IF C(AC)=-1,,0,
 20803					;THIS TEST PASSES
 20804
 20805	042131	400 00 0 00 000000 	B23400:	SETZ			;PRELOAD AC WITH 0
 20806	042132	500 00 0 00 070254 		HLL	[-1]		;*HLL SHOULD PLACE -1,,0 INTO THE AC
 20807	042133	312 00 0 00 070331 		CAME	[XWD -1,0]	;PASS IF C(AC)=-1,,0
 20808						STOP^
 20809	042134	254 04 0 00 042135 		HALT	.+1		;TEST FAILED IF PROGRAM HALTS HERE
 20810	042135	324 00 0 00 042136 		JUMPA	.+1		;IF TEST FAILS, CHANGE THIS INSTRUCTION (JUMPA .+1) TO
 20811									;JUMPA X (X IS THE ADDRESS OF THE FIRST INSTRUCTION
 20812									;IN THE SUBTEST) TO LOOP ON ERROR^
 20813
 20814					;**********
DFKAA PDP-10 KL10 BASIC INSTRUCTION DIAGNOSTIC (1) VER 0,2	MACRO %52(537) 09:34 31-JAN-77 PAGE 27
DFKAA3	MAC	25-AUG-75 13:57		TEST OF HWT INSTRUCTIONS                                                           SEQ 0454

 20815					;THIS TEST VERIFIES THAT HLL PLACES THE LEFT HALF OF C(E) INTO
 20816					;THE LEFT HALF OF THE AC.  THE RIGHT HALF OF THE AC IS UNAFFECTED.
 20817					;IN THIS CASE, C(AC)=0 AND C(E)=-1,,0.  HENCE, THE RESULT IN THE AC
 20818					;SHOULD BE -1,,0.  THE AC IS CHECKED FOR -1,,0.  IF C(AC)=-1,,0,
 20819					;THIS TEST PASSES.
 20820
 20821	042136	400 00 0 00 000000 	B23600:	SETZ			;PRELOAD AC WITH 0
 20822	042137	500 00 0 00 070331 		HLL	[XWD -1,0]	;*HLL SHOULD PLACE -1,,0 INTO THE AC
 20823	042140	312 00 0 00 070331 		CAME	[XWD -1,0]	;PASS IF C(AC)=-1,,0
 20824						STOP^
 20825	042141	254 04 0 00 042142 		HALT	.+1		;TEST FAILED IF PROGRAM HALTS HERE
 20826	042142	324 00 0 00 042143 		JUMPA	.+1		;IF TEST FAILS, CHANGE THIS INSTRUCTION (JUMPA .+1) TO
 20827									;JUMPA X (X IS THE ADDRESS OF THE FIRST INSTRUCTION
 20828									;IN THE SUBTEST) TO LOOP ON ERROR^
 20829
 20830					;**********
 20831
 20832					;THIS TEST VERIFIES THAT HLL PLACES THE LEFT HALF OF C(E) INTO
 20833					;THE LEFT HALF OF THE AC.  THE RIGHT HALF OF THE AC IS UNAFFECTED.
 20834					;IN THIS CASE, C(AC)=-1,,-1 AND C(E)=0,,-1.  HENCE, THE RESULT IN THE AC
 20835					;SHOULD BE 0,,-1.  THE AC IS CHECKED FOR 0,,-1.  IF C(AC)=0,,-1,
 20836					;THIS TEST PASSES.
 20837
 20838	042143	474 00 0 00 000000 	B23700:	SETO			;PRELOAD AC WITH -1,,-1
 20839	042144	500 00 0 00 070330 		HLL	[XWD 0,-1]	;*HLL SHOULD PLACE 0,,-1 INTO THE AC
 20840	042145	302 00 0 00 777777 		CAIE	-1		;PASS IF C(AC)=0,,-1
 20841						STOP^
 20842	042146	254 04 0 00 042147 		HALT	.+1		;TEST FAILED IF PROGRAM HALTS HERE
 20843	042147	324 00 0 00 042150 		JUMPA	.+1		;IF TEST FAILS, CHANGE THIS INSTRUCTION (JUMPA .+1) TO
 20844									;JUMPA X (X IS THE ADDRESS OF THE FIRST INSTRUCTION
 20845									;IN THE SUBTEST) TO LOOP ON ERROR^
 20846
 20847					;**********
DFKAA PDP-10 KL10 BASIC INSTRUCTION DIAGNOSTIC (1) VER 0,2	MACRO %52(537) 09:34 31-JAN-77 PAGE 28
DFKAA3	MAC	25-AUG-75 13:57		TEST OF HWT INSTRUCTIONS                                                           SEQ 0455

 20848					;THIS TEST VERIFIES THAT HLLZ PLACES THE LEFT HALF OF C(E) INTO
 20849					;THE LEFT HALF OF THE AC AND PLACES ZEROS INTO THE RIGHT HALF OF THE AC.
 20850					;IN THIS CASE, AC=E AND C(AC)=C(E)=0.  HENCE, THE RESULT IN THE AC
 20851					;SHOULD BE 0.  THE AC IS CHECKED FOR 0.  IF C(AC)=0, THIS TEST PASSES
 20852
 20853	042150	400 00 0 00 000000 	B24000:	SETZ			;PRELOAD AC,E WITH 0
 20854	042151	510 00 0 00 000000 		HLLZ			;*HLLZ SHOULD PLACE 0 INTO THE AC
 20855	042152	332 00 0 00 000000 		SKIPE			;PASS IF C(AC)=0
 20856						STOP^
 20857	042153	254 04 0 00 042154 		HALT	.+1		;TEST FAILED IF PROGRAM HALTS HERE
 20858	042154	324 00 0 00 042155 		JUMPA	.+1		;IF TEST FAILS, CHANGE THIS INSTRUCTION (JUMPA .+1) TO
 20859									;JUMPA X (X IS THE ADDRESS OF THE FIRST INSTRUCTION
 20860									;IN THE SUBTEST) TO LOOP ON ERROR^
 20861
 20862					;*****     FAILURE ANALYSIS     *****
 20863					;C(AC0)		C(AC1)		FAILING SIGNAL
 20864
 20865					;-1,,0				FC: AD LT AR + EN
 20866
 20867					;**********
 20868
 20869					;THIS TEST VERIFIES THAT HLLZ PLACES THE LEFT HALF OF C(E) INTO
 20870					;THE LEFT HALF OF THE AC AND PLACES ZEROS INTO THE RIGHT HALF OF THE AC.
 20871					;IN THIS CASE, C(AC)=-1,,-1 AND C(E)=-1,,-1.  HENCE, THE RESULT IN THE AC
 20872					;SHOULD BE -1,,0.  THE AC IS CHECKED FOR -1,,0.
 20873					;IF C(AC)=-1,,0, THIS TEST PASSES.
 20874
 20875	042155	474 00 0 00 000000 	B24300:	SETO			;PRELOAD AC WITH -1,,-1
 20876	042156	510 00 0 00 070254 		HLLZ	[-1]		;*HLLZ SHOULD PLACE -1,,0 INTO THE AC
 20877	042157	312 00 0 00 070331 		CAME	[XWD -1,0]	;PASS IF C(AC)=-1,,0
 20878						STOP^
 20879	042160	254 04 0 00 042161 		HALT	.+1		;TEST FAILED IF PROGRAM HALTS HERE
 20880	042161	324 00 0 00 042162 		JUMPA	.+1		;IF TEST FAILS, CHANGE THIS INSTRUCTION (JUMPA .+1) TO
 20881									;JUMPA X (X IS THE ADDRESS OF THE FIRST INSTRUCTION
 20882									;IN THE SUBTEST) TO LOOP ON ERROR^
 20883
 20884					;*****     FAILURE ANALYSIS     *****
 20885					;C(AC0)		C(AC1)		FAILING SIGNAL
 20886
 20887					;0				SW: FCE
 20888					;-1,,-1				ET2: AR LT AD EN
 20889
 20890					;**********
DFKAA PDP-10 KL10 BASIC INSTRUCTION DIAGNOSTIC (1) VER 0,2	MACRO %52(537) 09:34 31-JAN-77 PAGE 29
DFKAA3	MAC	25-AUG-75 13:57		TEST OF HWT INSTRUCTIONS                                                           SEQ 0456

 20891					;THIS TEST VERIFIES THAT HLLZ PLACES THE LEFT HALF OF C(E) INTO
 20892					;THE LEFT HALF OF THE AC AND PLACES ZEROS INTO THE RIGHT HALF OF THE AC.
 20893					;IN THIS CASE, C(AC)=0 AND C(E)=-1,,-1.  HENCE, THE RESULT IN THE AC
 20894					;SHOULD BE -1,,0.  THE AC IS CHECKED FOR ITS CONTENTS NON-ZERO
 20895					;IF C(AC) IS NON-ZERO, THIS TEST PASSES.
 20896
 20897	042162	400 00 0 00 000000 	B24400:	SETZ			;PRELOAD AC WITH -1,,-1
 20898	042163	510 00 0 00 070254 		HLLZ	[-1]		;*HLLZ SHOULD PLACE -1,,0 INTO THE AC
 20899	042164	312 00 0 00 070331 		CAME	[XWD -1,0]	;PASS IF C(AC)=-1,,0
 20900						STOP^
 20901	042165	254 04 0 00 042166 		HALT	.+1		;TEST FAILED IF PROGRAM HALTS HERE
 20902	042166	324 00 0 00 042167 		JUMPA	.+1		;IF TEST FAILS, CHANGE THIS INSTRUCTION (JUMPA .+1) TO
 20903									;JUMPA X (X IS THE ADDRESS OF THE FIRST INSTRUCTION
 20904									;IN THE SUBTEST) TO LOOP ON ERROR^
 20905
 20906					;**********
 20907
 20908					;THIS TEST VERIFIES THAT HLLZ PLACES THE LEFT HALF OF C(E) INTO
 20909					;THE LEFT HALF OF THE AC AND PLACES ZEROS INTO THE RIGHT HALF OF THE AC.
 20910					;IN THIS CASE, C(AC)=-1,,-1 AND C(E)=0.  HENCE, THE RESULT IN THE AC
 20911					;SHOULD BE 0.  THE AC IS CHECKED FOR ZERO
 20912					;IF C(AC) IS ZERO, THIS TEST PASSES.
 20913
 20914	042167	474 00 0 00 000000 	B24500:	SETO			;PRELOAD AC WITH -1,,-1
 20915	042170	510 00 0 00 070253 		HLLZ	[0]		;*HLLZ SHOULD PLACE -1,,0 INTO THE AC
 20916	042171	332 00 0 00 000000 		SKIPE			;PASS IF C(AC) IS ZERO.
 20917						STOP^
 20918	042172	254 04 0 00 042173 		HALT	.+1		;TEST FAILED IF PROGRAM HALTS HERE
 20919	042173	324 00 0 00 042174 		JUMPA	.+1		;IF TEST FAILS, CHANGE THIS INSTRUCTION (JUMPA .+1) TO
 20920									;JUMPA X (X IS THE ADDRESS OF THE FIRST INSTRUCTION
 20921									;IN THE SUBTEST) TO LOOP ON ERROR^
 20922
 20923					;**********
DFKAA PDP-10 KL10 BASIC INSTRUCTION DIAGNOSTIC (1) VER 0,2	MACRO %52(537) 09:34 31-JAN-77 PAGE 30
DFKAA3	MAC	25-AUG-75 13:57		TEST OF HWT INSTRUCTIONS                                                           SEQ 0457

 20924					;THIS TEST VERIFIES THAT HLLZ PLACES THE LEFT HALF OF C(E) INTO
 20925					;THE LEFT HALF OF THE AC AND PLACES ZEROS INTO THE RIGHT HALF OF THE AC.
 20926					;IN THIS CASE, C(AC)=0 AND C(E)=0.  HENCE, THE RESULT IN THE AC
 20927					;SHOULD BE 0.  THE AC IS CHECKED FOR ZERO
 20928					;IF C(AC) IS ZERO, THIS TEST PASSES.
 20929
 20930	042174	400 00 0 00 000000 	B24600:	SETZ			;PRELOAD AC WITH 0
 20931	042175	510 00 0 00 070253 		HLLZ	[0]		;*HLLZ SHOULD PLACE 0 INTO THE AC
 20932	042176	332 00 0 00 000000 		SKIPE			;PASS IF C(AC) IS ZERO.
 20933						STOP^
 20934	042177	254 04 0 00 042200 		HALT	.+1		;TEST FAILED IF PROGRAM HALTS HERE
 20935	042200	324 00 0 00 042201 		JUMPA	.+1		;IF TEST FAILS, CHANGE THIS INSTRUCTION (JUMPA .+1) TO
 20936									;JUMPA X (X IS THE ADDRESS OF THE FIRST INSTRUCTION
 20937									;IN THE SUBTEST) TO LOOP ON ERROR^
 20938
 20939					;**********
 20940
 20941					;THIS TEST VERIFIES THAT HLLZI ALWAYS CLEARS THE AC.
 20942					;IN THIS CASE C(AC)=-1,,-1 AND E=0,,-1.
 20943					;THE RESULT IN THE AC SHOULD BE 0
 20944					;THE AC IS CHECKED FOR 0.  IF C(AC)=0, THIS TEST PASSES
 20945
 20946	042201	474 00 0 00 000000 	B24700:	SETO			;PRELOAD AC WITH -1,,-1
 20947	042202	511 00 0 00 777777 		HLLZI	-1		;*HLLZI SHOULD CLEAR THE AC
 20948	042203	332 00 0 00 000000 		SKIPE			;PASS IF C(AC)=0
 20949						STOP^
 20950	042204	254 04 0 00 042205 		HALT	.+1		;TEST FAILED IF PROGRAM HALTS HERE
 20951	042205	324 00 0 00 042206 		JUMPA	.+1		;IF TEST FAILS, CHANGE THIS INSTRUCTION (JUMPA .+1) TO
 20952									;JUMPA X (X IS THE ADDRESS OF THE FIRST INSTRUCTION
 20953									;IN THE SUBTEST) TO LOOP ON ERROR^
 20954
 20955					;*****     FAILURE ANALYSIS     *****
 20956					;C(AC0)		C(AC1)		FAILING SIGNAL
 20957
 20958					;-1,,0				FC: AD LT AR + EN
 20959					;0,,-1				ET2: AR LT AD EN
 20960
 20961					;**********
DFKAA PDP-10 KL10 BASIC INSTRUCTION DIAGNOSTIC (1) VER 0,2	MACRO %52(537) 09:34 31-JAN-77 PAGE 31
DFKAA3	MAC	25-AUG-75 13:57		TEST OF HWT INSTRUCTIONS                                                           SEQ 0458

 20962					;THIS TEST VERIFIES THAT HLLZI ALWAYS CLEARS THE AC.
 20963					;IN THIS CASE C(AC)=0 AND E=0,,-1.
 20964					;THE RESULT IN THE AC SHOULD BE 0
 20965					;THE AC IS CHECKED FOR 0.  IF C(AC)=0, THIS TEST PASSES
 20966
 20967	042206	400 00 0 00 000000 	B25000:	SETZ			;PRELOAD AC WITH 0
 20968	042207	511 00 0 00 777777 		HLLZI	-1		;*HLLZI SHOULD CLEAR THE AC
 20969	042210	332 00 0 00 000000 		SKIPE			;PASS IF C(AC)=0
 20970						STOP^
 20971	042211	254 04 0 00 042212 		HALT	.+1		;TEST FAILED IF PROGRAM HALTS HERE
 20972	042212	324 00 0 00 042213 		JUMPA	.+1		;IF TEST FAILS, CHANGE THIS INSTRUCTION (JUMPA .+1) TO
 20973									;JUMPA X (X IS THE ADDRESS OF THE FIRST INSTRUCTION
 20974									;IN THE SUBTEST) TO LOOP ON ERROR^
 20975
 20976					;**********
 20977
 20978					;THIS TEST VERIFIES THAT HLLZ PLACES THE LEFT HALF OF C(E) INTO
 20979					;THE LEFT HALF OF THE AC AND PLACES ZEROS INTO THE RIGHT HALF OF THE AC.
 20980					;IN THIS CASE, C(AC)=-1,,-1 AND C(E)=-1,,0.  HENCE, THE RESULT IN THE AC
 20981					;SHOULD BE -1,,0.  THE AC IS CHECKED FOR -1,,0.
 20982					;IF C(AC)=-1,,0, THIS TEST PASSES.
 20983
 20984	042213	474 00 0 00 000000 	B25100:	SETO			;PRELOAD AC WITH -1,,-1
 20985	042214	510 00 0 00 070331 		HLLZ	[XWD -1,0]	;*HLLZ SHOULD PLACE -1,,0 INTO THE AC
 20986	042215	312 00 0 00 070331 		CAME	[XWD -1,0]	;PASS IF C(AC)=-1,,0.
 20987						STOP^
 20988	042216	254 04 0 00 042217 		HALT	.+1		;TEST FAILED IF PROGRAM HALTS HERE
 20989	042217	324 00 0 00 042220 		JUMPA	.+1		;IF TEST FAILS, CHANGE THIS INSTRUCTION (JUMPA .+1) TO
 20990									;JUMPA X (X IS THE ADDRESS OF THE FIRST INSTRUCTION
 20991									;IN THE SUBTEST) TO LOOP ON ERROR^
 20992
 20993					;**********
DFKAA PDP-10 KL10 BASIC INSTRUCTION DIAGNOSTIC (1) VER 0,2	MACRO %52(537) 09:34 31-JAN-77 PAGE 32
DFKAA3	MAC	25-AUG-75 13:57		TEST OF HWT INSTRUCTIONS                                                           SEQ 0459

 20994					;THIS TEST VERIFIES THAT HLLZ PLACES THE LEFT HALF OF C(E) INTO
 20995					;THE LEFT HALF OF THE AC AND PLACES ZEROS INTO THE RIGHT HALF OF THE AC.
 20996					;IN THIS CASE, C(AC)=0 AND C(E)=-1,,0.  HENCE, THE RESULT IN THE AC
 20997					;SHOULD BE -1,,0.  THE AC IS CHECKED FOR -1,,0.
 20998					;IF C(AC)=-1,,0 THIS TEST PASSES.
 20999
 21000	042220	400 00 0 00 000000 	B25200:	SETZ			;PRELOAD AC WITH 0
 21001	042221	510 00 0 00 070331 		HLLZ	[XWD -1,0]	;*HLLZ SHOULD PLACE -1,,0 INTO THE AC
 21002	042222	312 00 0 00 070331 		CAME	[XWD -1,0]	;PASS IF C(AC)=-1,,0
 21003						STOP^
 21004	042223	254 04 0 00 042224 		HALT	.+1		;TEST FAILED IF PROGRAM HALTS HERE
 21005	042224	324 00 0 00 042225 		JUMPA	.+1		;IF TEST FAILS, CHANGE THIS INSTRUCTION (JUMPA .+1) TO
 21006									;JUMPA X (X IS THE ADDRESS OF THE FIRST INSTRUCTION
 21007									;IN THE SUBTEST) TO LOOP ON ERROR^
 21008
 21009					;**********
 21010
 21011					;THIS TEST VERIFIES THAT HLLZ PLACES THE LEFT HALF OF C(E) INTO
 21012					;THE LEFT HALF OF THE AC AND PLACES ZEROS INTO THE RIGHT HALF OF THE AC.
 21013					;IN THIS CASE, C(AC)=0,,-1 AND C(E)=-1,,-1.  HENCE, THE RESULT IN THE AC
 21014					;SHOULD BE -1,,0.  THE AC IS CHECKED FOR -1,,0.
 21015					;IF C(AC)=-1,,0, THIS TEST PASSES.
 21016
 21017	042225	201 00 0 00 777777 	B25300:	MOVEI	-1		;PRELOAD AC WITH -1,,-1
 21018	042226	510 00 0 00 070254 		HLLZ	[-1]		;*HLLZ SHOULD PLACE -1,,0 INTO THE AC
 21019	042227	312 00 0 00 070331 		CAME	[XWD -1,0]	;PASS IF C(AC)=-1,,0
 21020						STOP^
 21021	042230	254 04 0 00 042231 		HALT	.+1		;TEST FAILED IF PROGRAM HALTS HERE
 21022	042231	324 00 0 00 042232 		JUMPA	.+1		;IF TEST FAILS, CHANGE THIS INSTRUCTION (JUMPA .+1) TO
 21023									;JUMPA X (X IS THE ADDRESS OF THE FIRST INSTRUCTION
 21024									;IN THE SUBTEST) TO LOOP ON ERROR^
 21025
 21026					;**********
DFKAA PDP-10 KL10 BASIC INSTRUCTION DIAGNOSTIC (1) VER 0,2	MACRO %52(537) 09:34 31-JAN-77 PAGE 33
DFKAA3	MAC	25-AUG-75 13:57		TEST OF HWT INSTRUCTIONS                                                           SEQ 0460

 21027					;THIS TEST VERIFIES THAT HLLZ PLACES THE LEFT HALF OF C(E) INTO
 21028					;THE LEFT HALF OF THE AC AND PLACES ZEROS INTO THE RIGHT HALF OF THE AC.
 21029					;IN THIS CASE, C(AC)=-1,,0 AND C(E)=-1,,-1.  HENCE, THE RESULT IN THE AC
 21030					;SHOULD BE -1,,0.  THE AC IS CHECKED FOR -1,,0.
 21031					;IF C(AC)=-1,,0 THIS TEST PASSES.
 21032
 21033	042232	205 00 0 00 777777 	B25400:	MOVSI	-1		;PRELOAD AC WITH -1,,0
 21034	042233	510 00 0 00 070254 		HLLZ	[-1]		;*HLLZ SHOULD PLACE -1,,0 INTO THE AC
 21035	042234	312 00 0 00 070331 		CAME	[XWD -1,0]	;PASS IF C(AC)=-1,,0.
 21036						STOP^
 21037	042235	254 04 0 00 042236 		HALT	.+1		;TEST FAILED IF PROGRAM HALTS HERE
 21038	042236	324 00 0 00 042237 		JUMPA	.+1		;IF TEST FAILS, CHANGE THIS INSTRUCTION (JUMPA .+1) TO
 21039									;JUMPA X (X IS THE ADDRESS OF THE FIRST INSTRUCTION
 21040									;IN THE SUBTEST) TO LOOP ON ERROR^
 21041
 21042					;**********
 21043
 21044					;THIS TEST VERIFIES THAT HLLZ PLACES THE LEFT HALF OF C(E) INTO
 21045					;THE LEFT HALF OF THE AC AND PLACES ZEROS INTO THE RIGHT HALF OF THE AC.
 21046					;IN THIS CASE, C(AC)=0,,-1 AND C(E)=0.  HENCE, THE RESULT IN THE AC
 21047					;SHOULD BE 0.  THE AC IS CHECKED FOR ZERO.
 21048					;IF C(AC) IS ZERO, THIS TEST PASSES.
 21049
 21050	042237	201 00 0 00 777777 	B25500:	MOVEI	-1		;PRELOAD AC WITH 0,,-1
 21051	042240	510 00 0 00 070253 		HLLZ	[0]		;*HLLZ SHOULD PLACE 0 INTO THE AC
 21052	042241	332 00 0 00 000000 		SKIPE			;PASS IF C(AC) IS ZERO.
 21053						STOP^
 21054	042242	254 04 0 00 042243 		HALT	.+1		;TEST FAILED IF PROGRAM HALTS HERE
 21055	042243	324 00 0 00 042244 		JUMPA	.+1		;IF TEST FAILS, CHANGE THIS INSTRUCTION (JUMPA .+1) TO
 21056									;JUMPA X (X IS THE ADDRESS OF THE FIRST INSTRUCTION
 21057									;IN THE SUBTEST) TO LOOP ON ERROR^
 21058
 21059					;**********
DFKAA PDP-10 KL10 BASIC INSTRUCTION DIAGNOSTIC (1) VER 0,2	MACRO %52(537) 09:34 31-JAN-77 PAGE 34
DFKAA3	MAC	25-AUG-75 13:57		TEST OF HWT INSTRUCTIONS                                                           SEQ 0461

 21060					;THIS TEST VERIFIES THAT HLLZ PLACES THE LEFT HALF OF C(E) INTO
 21061					;THE LEFT HALF OF THE AC AND PLACES ZEROS INTO THE RIGHT HALF OF THE AC.
 21062					;IN THIS CASE, C(AC)=-1,,0 AND C(E)=0.  HENCE, THE RESULT IN THE AC
 21063					;SHOULD BE 0.  THE AC IS CHECKED FOR ZERO.
 21064					;IF C(AC) IS ZERO, THIS TEST PASSES.
 21065
 21066	042244	205 00 0 00 777777 	B25600:	MOVSI	-1		;PRELOAD AC WITH -1,,0
 21067	042245	510 00 0 00 070253 		HLLZ	[0]		;*HLLZ SHOULD PLACE -1,,0 INTO THE AC
 21068	042246	332 00 0 00 000000 		SKIPE			;PASS IF C(AC) IS ZERO.
 21069						STOP^
 21070	042247	254 04 0 00 042250 		HALT	.+1		;TEST FAILED IF PROGRAM HALTS HERE
 21071	042250	324 00 0 00 042251 		JUMPA	.+1		;IF TEST FAILS, CHANGE THIS INSTRUCTION (JUMPA .+1) TO
 21072									;JUMPA X (X IS THE ADDRESS OF THE FIRST INSTRUCTION
 21073									;IN THE SUBTEST) TO LOOP ON ERROR^
 21074
 21075					;**********
 21076
 21077					;THIS TEST VERIFIES THAT HLLZ PLACES THE LEFT HALF OF C(E) INTO
 21078					;THE LEFT HALF OF THE AC AND PLACES ZEROS INTO THE RIGHT HALF OF THE AC.
 21079					;IN THIS CASE, C(AC)=0,,-1 AND C(E)=-1,,0.  HENCE, THE RESULT IN THE AC
 21080					;SHOULD BE -1,,0.  THE AC IS CHECKED FOR -1,,0.
 21081					;IF C(AC)=-1,,0, THIS TEST PASSES.
 21082
 21083	042251	201 00 0 00 777777 	B25700:	MOVEI	-1		;PRELOAD AC WITH 0,,-1
 21084	042252	510 00 0 00 070331 		HLLZ	[XWD -1,0]	;*HLLZ SHOULD PLACE -1,,0 INTO THE AC
 21085	042253	312 00 0 00 070331 		CAME	[XWD -1,0]	;PASS IF C(AC)=-1,,0
 21086						STOP^
 21087	042254	254 04 0 00 042255 		HALT	.+1		;TEST FAILED IF PROGRAM HALTS HERE
 21088	042255	324 00 0 00 042256 		JUMPA	.+1		;IF TEST FAILS, CHANGE THIS INSTRUCTION (JUMPA .+1) TO
 21089									;JUMPA X (X IS THE ADDRESS OF THE FIRST INSTRUCTION
 21090									;IN THE SUBTEST) TO LOOP ON ERROR^
 21091
 21092					;**********
DFKAA PDP-10 KL10 BASIC INSTRUCTION DIAGNOSTIC (1) VER 0,2	MACRO %52(537) 09:34 31-JAN-77 PAGE 35
DFKAA3	MAC	25-AUG-75 13:57		TEST OF HWT INSTRUCTIONS                                                           SEQ 0462

 21093					;THIS TEST VERIFIES THAT HLLZI ALWAYS CLEARS THE AC.
 21094					;IN THIS CASE C(AC)=0,,-1 AND E=0,,-1.
 21095					;THE RESULT IN THE AC SHOULD BE 0
 21096					;THE AC IS CHECKED FOR 0.  IF C(AC)=0, THIS TEST PASSES
 21097
 21098	042256	201 00 0 00 777777 	B26000:	MOVEI	-1		;PRELOAD AC WITH 0,,-1
 21099	042257	511 00 0 00 777777 		HLLZI	-1		;*HLLZI SHOULD CLEAR THE AC
 21100	042260	332 00 0 00 000000 		SKIPE			;PASS IF C(AC)=0
 21101						STOP^
 21102	042261	254 04 0 00 042262 		HALT	.+1		;TEST FAILED IF PROGRAM HALTS HERE
 21103	042262	324 00 0 00 042263 		JUMPA	.+1		;IF TEST FAILS, CHANGE THIS INSTRUCTION (JUMPA .+1) TO
 21104									;JUMPA X (X IS THE ADDRESS OF THE FIRST INSTRUCTION
 21105									;IN THE SUBTEST) TO LOOP ON ERROR^
 21106
 21107					;**********
 21108
 21109					;THIS TEST VERIFIES THAT HLLZ PLACES THE LEFT HALF OF C(E) INTO
 21110					;THE LEFT HALF OF THE AC AND PLACES ZEROS INTO THE RIGHT HALF OF THE AC.
 21111					;IN THIS CASE, C(AC)=-1,,0 AND C(E)=-1,,0.  HENCE, THE RESULT IN THE AC
 21112					;SHOULD BE -1,,0.  THE AC IS CHECKED FOR -1,,0.
 21113					;IF C(AC)=-1,,0, THIS TEST PASSES.
 21114
 21115	042263	205 00 0 00 777777 	B26100:	MOVSI	-1		;PRELOAD AC WITH -1,,0
 21116	042264	510 00 0 00 070331 		HLLZ	[XWD -1,0]	;*HLLZ SHOULD PLACE -1,,0 INTO THE AC
 21117	042265	312 00 0 00 070331 		CAME	[XWD -1,0]	;PASS IF C(AC)=-1,,0
 21118						STOP^
 21119	042266	254 04 0 00 042267 		HALT	.+1		;TEST FAILED IF PROGRAM HALTS HERE
 21120	042267	324 00 0 00 042270 		JUMPA	.+1		;IF TEST FAILS, CHANGE THIS INSTRUCTION (JUMPA .+1) TO
 21121									;JUMPA X (X IS THE ADDRESS OF THE FIRST INSTRUCTION
 21122									;IN THE SUBTEST) TO LOOP ON ERROR^
 21123
 21124					;**********
DFKAA PDP-10 KL10 BASIC INSTRUCTION DIAGNOSTIC (1) VER 0,2	MACRO %52(537) 09:34 31-JAN-77 PAGE 36
DFKAA3	MAC	25-AUG-75 13:57		TEST OF HWT INSTRUCTIONS                                                           SEQ 0463

 21125					;THIS TEST VERIFIES THAT HLLZI ALWAYS CLEARS THE AC.
 21126					;IN THIS CASE C(AC)=-1,,0 AND E=0,,-1.
 21127					;THE RESULT IN THE AC SHOULD BE 0
 21128					;THE AC IS CHECKED FOR 0.  IF C(AC)=0, THIS TEST PASSES
 21129
 21130	042270	205 00 0 00 777777 	B26200:	MOVSI	-1		;PRELOAD AC WITH -1,,0
 21131	042271	511 00 0 00 777777 		HLLZI	-1		;*HLLZI SHOULD CLEAR THE AC
 21132	042272	332 00 0 00 000000 		SKIPE			;PASS IF C(AC)=0
 21133						STOP^
 21134	042273	254 04 0 00 042274 		HALT	.+1		;TEST FAILED IF PROGRAM HALTS HERE
 21135	042274	324 00 0 00 042275 		JUMPA	.+1		;IF TEST FAILS, CHANGE THIS INSTRUCTION (JUMPA .+1) TO
 21136									;JUMPA X (X IS THE ADDRESS OF THE FIRST INSTRUCTION
 21137									;IN THE SUBTEST) TO LOOP ON ERROR^
 21138
 21139					;**********
 21140
 21141					;THIS TEST VERIFIES THAT HRR PLACES THE RIGHT HALF OF C(E) INTO
 21142					;THE RIGHT HALF OF THE AC.  THE LEFT HALF OF THE AC IS UNAFFECTED.
 21143					;IN THIS CASE AC=E AND C(AC)=C(E)=0.  HENCE, THE RESULT IN THE AC
 21144					;SHOULD BE 0.  THE AC IS CHECKED FOR 0.  IF C(AC)=0, THIS TEST PASSES.
 21145
 21146	042275	400 00 0 00 000000 	B26300:	SETZ			;PRELOAD AC WITH 0
 21147	042276	540 00 0 00 000000 		HRR			;*HRR SHOULD PLACE 0 INTO THE AC
 21148	042277	332 00 0 00 000000 		SKIPE			;PASS IF C(AC)=0
 21149						STOP^
 21150	042300	254 04 0 00 042301 		HALT	.+1		;TEST FAILED IF PROGRAM HALTS HERE
 21151	042301	324 00 0 00 042302 		JUMPA	.+1		;IF TEST FAILS, CHANGE THIS INSTRUCTION (JUMPA .+1) TO
 21152									;JUMPA X (X IS THE ADDRESS OF THE FIRST INSTRUCTION
 21153									;IN THE SUBTEST) TO LOOP ON ERROR^
 21154
 21155					;*****     FAILURE ANALYSIS     *****
 21156					;C(AC0)		C(AC1)		FAILING SIGNAL
 21157
 21158					;0,,-1				FC: AD RT AR + EN
 21159					;-1,,0				FC: AD LT FM + EN
 21160
 21161					;**********
DFKAA PDP-10 KL10 BASIC INSTRUCTION DIAGNOSTIC (1) VER 0,2	MACRO %52(537) 09:34 31-JAN-77 PAGE 37
DFKAA3	MAC	25-AUG-75 13:57		TEST OF HWT INSTRUCTIONS                                                           SEQ 0464

 21162					;THIS TEST VERIFIES THAT HRR PLACES THE RIGHT HALF OF C(E) INTO
 21163					;THE RIGHT HALF OF THE AC.  THE LEFT HALF OF THE AC IS UNAFFECTED.
 21164					;IN THIS CASE AC=E AND C(AC)=C(E)=-1,,-1.  HENCE, THE RESULT IN THE AC
 21165					;SHOULD BE -1,,-1.  THE AC IS CHECKED FOR -1,,-1.  IF C(AC)=-1,,-1, THIS TEST PASSES.
 21166
 21167	042302	474 00 0 00 000000 	B26500:	SETO			;PRELOAD AC WITH -1,,-1
 21168	042303	540 00 0 00 000000 		HRR			;*HRR SHOULD PLACE -1,,-1 INTO THE AC
 21169	042304	312 00 0 00 070254 		CAME	[-1]		;PASS IF C(AC)=-1,,-1
 21170						STOP^
 21171	042305	254 04 0 00 042306 		HALT	.+1		;TEST FAILED IF PROGRAM HALTS HERE
 21172	042306	324 00 0 00 042307 		JUMPA	.+1		;IF TEST FAILS, CHANGE THIS INSTRUCTION (JUMPA .+1) TO
 21173									;JUMPA X (X IS THE ADDRESS OF THE FIRST INSTRUCTION
 21174									;IN THE SUBTEST) TO LOOP ON ERROR^
 21175
 21176					;*****     FAILURE ANALYSIS     *****
 21177					;C(AC0)		C(AC1)		FAILING SIGNAL
 21178
 21179					;-1,,0				SW: FCE
 21180
 21181					;**********
 21182
 21183					;THIS TEST VERIFIES THAT HRR PLACES THE RIGHT HALF OF C(E) INTO
 21184					;THE RIGHT HALF OF THE AC.  THE LEFT HALF OF THE AC IS UNAFFECTED.
 21185					;IN THIS CASE C(AC)=0 AND C(E)=-1,,0.  HENCE, THE RESULT IN THE AC
 21186					;SHOULD BE -1,,0.  THE AC IS CHECKED FOR -1,,0.  IF C(AC)=-1,,0, THIS TEST PASSES.
 21187
 21188	042307	474 00 0 00 000000 	B26600:	SETO			;PRELOAD AC WITH -1,,-1
 21189	042310	540 00 0 00 070331 		HRR	[XWD -1,0]	;*HRR SHOULD PLACE -1,,0 INTO THE AC
 21190	042311	312 00 0 00 070331 		CAME	[XWD -1,0]	;PASS IF C(AC)=-1,,0
 21191						STOP^
 21192	042312	254 04 0 00 042313 		HALT	.+1		;TEST FAILED IF PROGRAM HALTS HERE
 21193	042313	324 00 0 00 042314 		JUMPA	.+1		;IF TEST FAILS, CHANGE THIS INSTRUCTION (JUMPA .+1) TO
 21194									;JUMPA X (X IS THE ADDRESS OF THE FIRST INSTRUCTION
 21195									;IN THE SUBTEST) TO LOOP ON ERROR^
 21196
 21197					;**********
DFKAA PDP-10 KL10 BASIC INSTRUCTION DIAGNOSTIC (1) VER 0,2	MACRO %52(537) 09:34 31-JAN-77 PAGE 38
DFKAA3	MAC	25-AUG-75 13:57		TEST OF HWT INSTRUCTIONS                                                           SEQ 0465

 21198					;THIS TEST VERIFIES THAT HRRI PLACES E INTO
 21199					;THE RIGHT HALF OF THE AC.  THE LEFT HALF OF THE AC IS UNAFFECTED
 21200					;IN THIS CASE C(AC)=-1,,-1 AND E=0,,-1.  HENCE, THE RESULT IN THE AC
 21201					;SHOULD BE -1,,-1.  THE AC IS CHECKED FOR -1,,-1.  IF C(AC)=-1,,-1, THIS TEST PASSES.
 21202
 21203	042314	474 00 0 00 000000 	B26700:	SETO			;PRELOAD AC WITH -1,,-1
 21204	042315	541 00 0 00 777777 		HRRI	-1		;*HRRI SHOULD PLACE -1,,-1 INTO THE AC
 21205	042316	312 00 0 00 070254 		CAME	[-1]		;PASS IF C(AC)=-1,,-1
 21206						STOP^
 21207	042317	254 04 0 00 042320 		HALT	.+1		;TEST FAILED IF PROGRAM HALTS HERE
 21208	042320	324 00 0 00 042321 		JUMPA	.+1		;IF TEST FAILS, CHANGE THIS INSTRUCTION (JUMPA .+1) TO
 21209									;JUMPA X (X IS THE ADDRESS OF THE FIRST INSTRUCTION
 21210									;IN THE SUBTEST) TO LOOP ON ERROR^
 21211
 21212					;*****     FAILURE ANALYSIS     *****
 21213					;C(AC0)		C(AC1)		FAILING SIGNAL
 21214
 21215					;0,,-1				ET2: AR AD EN
 21216
 21217					;**********
 21218
 21219					;THIS TEST VERIFIES THAT HRR PLACES THE RIGHT HALF OF C(E) INTO
 21220					;THE RIGHT HALF OF THE AC.  THE LEFT HALF OF THE AC IS UNAFFECTED.
 21221					;IN THIS CASE C(AC)=-1,,-1 AND C(E)=0.  HENCE, THE RESULT IN THE AC
 21222					;SHOULD BE -1,,0.  THE AC IS CHECKED FOR -1,,0.  IF C(AC)=-1,,0, THIS TEST PASSES.
 21223
 21224	042321	474 00 0 00 000000 	B27000:	SETO			;PRELOAD AC WITH -1,,-1
 21225	042322	540 00 0 00 070253 		HRR	[0]		;*HRR SHOULD PLACE -1,,0 INTO THE AC
 21226	042323	312 00 0 00 070331 		CAME	[XWD -1,0]	;PASS IF C(AC)=0
 21227						STOP^
 21228	042324	254 04 0 00 042325 		HALT	.+1		;TEST FAILED IF PROGRAM HALTS HERE
 21229	042325	324 00 0 00 042326 		JUMPA	.+1		;IF TEST FAILS, CHANGE THIS INSTRUCTION (JUMPA .+1) TO
 21230									;JUMPA X (X IS THE ADDRESS OF THE FIRST INSTRUCTION
 21231									;IN THE SUBTEST) TO LOOP ON ERROR^
 21232
 21233					;*****     FAILURE ANALYSIS     *****
 21234					;C(AC0)		C(AC1)		FAILING SIGNAL
 21235
 21236					;0				ET2: AR AD EN
 21237
 21238					;**********
DFKAA PDP-10 KL10 BASIC INSTRUCTION DIAGNOSTIC (1) VER 0,2	MACRO %52(537) 09:34 31-JAN-77 PAGE 39
DFKAA3	MAC	25-AUG-75 13:57		TEST OF HWT INSTRUCTIONS                                                           SEQ 0466

 21239					;THIS TEST VERIFIES THAT HRR PLACES THE RIGHT HALF OF C(E) INTO
 21240					;THE RIGHT HALF OF THE AC.  THE LEFT HALF OF THE AC IS UNAFFECTED.
 21241					;IN THIS CASE C(AC)=0 AND C(E)=0.  HENCE, THE RESULT IN THE AC
 21242					;SHOULD BE 0.  THE AC IS CHECKED FOR 0.  IF C(AC)=0, THIS TEST PASSES.
 21243
 21244	042326	400 00 0 00 000000 	B27100:	SETZ			;PRELOAD AC WITH 0
 21245	042327	540 00 0 00 070253 		HRR	[0]		;*HRR SHOULD PLACE 0 INTO THE AC
 21246	042330	332 00 0 00 000000 		SKIPE			;PASS IF C(AC)=0
 21247						STOP^
 21248	042331	254 04 0 00 042332 		HALT	.+1		;TEST FAILED IF PROGRAM HALTS HERE
 21249	042332	324 00 0 00 042333 		JUMPA	.+1		;IF TEST FAILS, CHANGE THIS INSTRUCTION (JUMPA .+1) TO
 21250									;JUMPA X (X IS THE ADDRESS OF THE FIRST INSTRUCTION
 21251									;IN THE SUBTEST) TO LOOP ON ERROR^
 21252
 21253					;**********
 21254
 21255					;THIS TEST VERIFIES THAT HRR PLACES THE RIGHT HALF OF C(E) INTO
 21256					;THE RIGHT HALF OF THE AC.  THE LEFT HALF OF THE AC IS UNAFFECTED.
 21257					;IN THIS CASE C(AC)=0 AND C(E)=-1,,-1.  HENCE, THE RESULT IN THE AC
 21258					;SHOULD BE 0,,-1.  THE AC IS CHECKED FOR 0,,-1.  IF C(AC)=0,,-1, THIS TEST PASSES.
 21259
 21260	042333	400 00 0 00 000000 	B27200:	SETZ			;PRELOAD AC WITH 0
 21261	042334	540 00 0 00 070254 		HRR	[-1]		;*HRR SHOULD PLACE 0,,-1 INTO THE AC
 21262	042335	302 00 0 00 777777 		CAIE	-1		;PASS IF C(AC)=0,,-1
 21263						STOP^
 21264	042336	254 04 0 00 042337 		HALT	.+1		;TEST FAILED IF PROGRAM HALTS HERE
 21265	042337	324 00 0 00 042340 		JUMPA	.+1		;IF TEST FAILS, CHANGE THIS INSTRUCTION (JUMPA .+1) TO
 21266									;JUMPA X (X IS THE ADDRESS OF THE FIRST INSTRUCTION
 21267									;IN THE SUBTEST) TO LOOP ON ERROR^
 21268
 21269					;**********
DFKAA PDP-10 KL10 BASIC INSTRUCTION DIAGNOSTIC (1) VER 0,2	MACRO %52(537) 09:34 31-JAN-77 PAGE 40
DFKAA3	MAC	25-AUG-75 13:57		TEST OF HWT INSTRUCTIONS                                                           SEQ 0467

 21270					;THIS TEST VERIFIES THAT HRRI PLACES E INTO
 21271					;THE RIGHT HALF OF THE AC.  THE LEFT HALF OF THE AC IS UNAFFECTED
 21272					;IN THIS CASE C(AC)=0 AND E=0,,-1.  HENCE, THE RESULT IN THE AC
 21273					;SHOULD BE 0,,-1.  THE AC IS CHECKED FOR 0,,-1.  IF C(AC)=0,,-1, THIS TEST PASSES.
 21274
 21275	042340	400 00 0 00 000000 	B27300:	SETZ			;PRELOAD AC WITH 0
 21276	042341	541 00 0 00 777777 		HRRI	-1		;*HRRI SHOULD PLACE 0,,-1 INTO THE AC
 21277	042342	302 00 0 00 777777 		CAIE	-1		;PASS IF C(AC)=0,,-1
 21278						STOP^
 21279	042343	254 04 0 00 042344 		HALT	.+1		;TEST FAILED IF PROGRAM HALTS HERE
 21280	042344	324 00 0 00 042345 		JUMPA	.+1		;IF TEST FAILS, CHANGE THIS INSTRUCTION (JUMPA .+1) TO
 21281									;JUMPA X (X IS THE ADDRESS OF THE FIRST INSTRUCTION
 21282									;IN THE SUBTEST) TO LOOP ON ERROR^
 21283
 21284					;*****     FAILURE ANALYSIS     *****
 21285					;C(AC0)		C(AC1)		FAILING SIGNAL
 21286
 21287					;-1,,-1				FC: AD LT FM + EN
 21288
 21289					;**********
 21290
 21291					;THIS TEST VERIFIES THAT HRR PLACES THE RIGHT HALF OF C(E) INTO
 21292					;THE RIGHT HALF OF THE AC.  THE LEFT HALF OF THE AC IS UNAFFECTED.
 21293					;IN THIS CASE C(AC)=0 AND C(E)=-1,,0.  HENCE, THE RESULT IN THE AC
 21294					;SHOULD BE 0.  THE AC IS CHECKED FOR 0.  IF C(AC)=0, THIS TEST PASSES.
 21295
 21296	042345	400 00 0 00 000000 	B27400:	SETZ			;PRELOAD AC WITH 0
 21297	042346	540 00 0 00 070331 		HRR	[XWD -1,0]	;*HRR SHOULD PLACE 0 INTO THE AC
 21298	042347	332 00 0 00 000000 		SKIPE			;PASS IF C(AC)=0
 21299						STOP^
 21300	042350	254 04 0 00 042351 		HALT	.+1		;TEST FAILED IF PROGRAM HALTS HERE
 21301	042351	324 00 0 00 042352 		JUMPA	.+1		;IF TEST FAILS, CHANGE THIS INSTRUCTION (JUMPA .+1) TO
 21302									;JUMPA X (X IS THE ADDRESS OF THE FIRST INSTRUCTION
 21303									;IN THE SUBTEST) TO LOOP ON ERROR^
 21304
 21305					;**********
DFKAA PDP-10 KL10 BASIC INSTRUCTION DIAGNOSTIC (1) VER 0,2	MACRO %52(537) 09:34 31-JAN-77 PAGE 41
DFKAA3	MAC	25-AUG-75 13:57		TEST OF HWT INSTRUCTIONS                                                           SEQ 0468

 21306					;THIS TEST VERIFIES THAT HRR PLACES THE RIGHT HALF OF C(E) INTO
 21307					;THE RIGHT HALF OF THE AC.  THE LEFT HALF OF THE AC IS UNAFFECTED.
 21308					;IN THIS CASE C(AC)=0,,-1 AND C(E)=-1,,0.  HENCE, THE RESULT IN THE AC
 21309					;SHOULD BE 0.  THE AC IS CHECKED FOR 0.  IF C(AC)=0, THIS TEST PASSES.
 21310
 21311	042352	201 00 0 00 777777 	B27500:	MOVEI	-1		;PRELOAD AC WITH 0,,-1
 21312	042353	540 00 0 00 070331 		HRR	[XWD -1,0]	;*HRR SHOULD PLACE 0 INTO THE AC
 21313	042354	332 00 0 00 000000 		SKIPE			;PASS IF C(AC)=0
 21314						STOP^
 21315	042355	254 04 0 00 042356 		HALT	.+1		;TEST FAILED IF PROGRAM HALTS HERE
 21316	042356	324 00 0 00 042357 		JUMPA	.+1		;IF TEST FAILS, CHANGE THIS INSTRUCTION (JUMPA .+1) TO
 21317									;JUMPA X (X IS THE ADDRESS OF THE FIRST INSTRUCTION
 21318									;IN THE SUBTEST) TO LOOP ON ERROR^
 21319
 21320					;**********
 21321
 21322					;THIS TEST VERIFIES THAT HRRI PLACES E INTO
 21323					;THE RIGHT HALF OF THE AC.  THE LEFT HALF OF THE AC IS UNAFFECTED
 21324					;IN THIS CASE C(AC)=-1,,0 AND E=0,,-1.  HENCE, THE RESULT IN THE AC
 21325					;SHOULD BE -1,,-1.  THE AC IS CHECKED FOR -1,,-1.  IF C(AC)=-1,,-1, THIS TEST PASSES.
 21326
 21327	042357	205 00 0 00 777777 	B27600:	MOVSI	-1		;PRELOAD AC WITH -1,,0
 21328	042360	541 00 0 00 777777 		HRRI	-1		;*HRRI SHOULD PLACE -1,,-1 INTO THE AC
 21329	042361	312 00 0 00 070254 		CAME	[-1]		;PASS IF C(AC)=-1,,-1
 21330						STOP^
 21331	042362	254 04 0 00 042363 		HALT	.+1		;TEST FAILED IF PROGRAM HALTS HERE
 21332	042363	324 00 0 00 042364 		JUMPA	.+1		;IF TEST FAILS, CHANGE THIS INSTRUCTION (JUMPA .+1) TO
 21333									;JUMPA X (X IS THE ADDRESS OF THE FIRST INSTRUCTION
 21334									;IN THE SUBTEST) TO LOOP ON ERROR^
 21335
 21336					;**********
DFKAA PDP-10 KL10 BASIC INSTRUCTION DIAGNOSTIC (1) VER 0,2	MACRO %52(537) 09:34 31-JAN-77 PAGE 42
DFKAA3	MAC	25-AUG-75 13:57		TEST OF HWT INSTRUCTIONS                                                           SEQ 0469

 21337					;THIS TEST VERIFIES THAT HRRI PLACES E INTO
 21338					;THE RIGHT HALF OF THE AC.  THE LEFT HALF OF THE AC IS UNAFFECTED
 21339					;IN THIS CASE C(AC)=0,,-1 AND E=0,,-1.  HENCE, THE RESULT IN THE AC
 21340					;SHOULD BE 0,,-1.  THE AC IS CHECKED FOR 0,,-1.  IF C(AC)=0,,-1, THIS TEST PASSES.
 21341
 21342	042364	201 00 0 00 777777 	B27700:	MOVEI	-1		;PRELOAD AC WITH 0,,-1
 21343	042365	541 00 0 00 777777 		HRRI	-1		;*HRRI SHOULD PLACE 0,,-1 INTO THE AC
 21344	042366	302 00 0 00 777777 		CAIE	-1		;PASS IF C(AC)=0,,-1
 21345						STOP^
 21346	042367	254 04 0 00 042370 		HALT	.+1		;TEST FAILED IF PROGRAM HALTS HERE
 21347	042370	324 00 0 00 042371 		JUMPA	.+1		;IF TEST FAILS, CHANGE THIS INSTRUCTION (JUMPA .+1) TO
 21348									;JUMPA X (X IS THE ADDRESS OF THE FIRST INSTRUCTION
 21349									;IN THE SUBTEST) TO LOOP ON ERROR^
 21350
 21351					;**********
 21352
 21353					;THIS TEST VERIFIES THAT HRR PLACES THE RIGHT HALF OF C(E) INTO
 21354					;THE RIGHT HALF OF THE AC.  THE LEFT HALF OF THE AC IS UNAFFECTED.
 21355					;IN THIS CASE C(AC)=-1,,0 AND C(E)=-1,,0.  HENCE, THE RESULT IN THE AC
 21356					;SHOULD BE -1,,0.  THE AC IS CHECKED FOR -1,,0.  IF C(AC)=-1,,0, THIS TEST PASSES.
 21357
 21358	042371	205 00 0 00 777777 	B30000:	MOVSI	-1		;PRELOAD AC WITH -1,,0
 21359	042372	540 00 0 00 070331 		HRR	[XWD -1,0]	;*HRR SHOULD PLACE -1,,0 INTO THE AC
 21360	042373	312 00 0 00 070331 		CAME	[XWD -1,0]	;PASS IF C(AC)=-1,,0
 21361						STOP^
 21362	042374	254 04 0 00 042375 		HALT	.+1		;TEST FAILED IF PROGRAM HALTS HERE
 21363	042375	324 00 0 00 042376 		JUMPA	.+1		;IF TEST FAILS, CHANGE THIS INSTRUCTION (JUMPA .+1) TO
 21364									;JUMPA X (X IS THE ADDRESS OF THE FIRST INSTRUCTION
 21365									;IN THE SUBTEST) TO LOOP ON ERROR^
 21366
 21367					;**********
DFKAA PDP-10 KL10 BASIC INSTRUCTION DIAGNOSTIC (1) VER 0,2	MACRO %52(537) 09:34 31-JAN-77 PAGE 43
DFKAA3	MAC	25-AUG-75 13:57		TEST OF HWT INSTRUCTIONS                                                           SEQ 0470

 21368					;THIS TEST VERIFIES THAT HRRZ PLACES THE RIGHT HALF OF C(E) INTO
 21369					;RIGHT HALF OF THE AC AND PLACES ZEROS INTO THE LEFT HALF OF THE AC
 21370					;IN THIS CASE, AC=E AND C(AC)=C(E)=0.  HENCE, THE RESULT IN THE AC
 21371					;SHOULD BE 0.  THE AC IS CHECKED FOR 0.  IF C(AC)=0, THIS TEST PASSES.
 21372
 21373	042376	400 00 0 00 000000 	B30100:	SETZ			;PRELOAD AC,E WITH 0
 21374	042377	550 00 0 00 000000 		HRRZ			;*HRRZ SHOULD PLACE 0 INTO THE AC
 21375	042400	332 00 0 00 000000 		SKIPE			;PASS IF C(AC)=0
 21376						STOP^
 21377	042401	254 04 0 00 042402 		HALT	.+1		;TEST FAILED IF PROGRAM HALTS HERE
 21378	042402	324 00 0 00 042403 		JUMPA	.+1		;IF TEST FAILS, CHANGE THIS INSTRUCTION (JUMPA .+1) TO
 21379									;JUMPA X (X IS THE ADDRESS OF THE FIRST INSTRUCTION
 21380									;IN THE SUBTEST) TO LOOP ON ERROR^
 21381
 21382					;*****     FAILURE ANALYSIS     *****
 21383					;C(AC0)		C(AC1)		FAILING SIGNAL
 21384
 21385					;0,,-1				FC: AD RT AR + EN
 21386
 21387					;**********
 21388
 21389					;THIS TEST VERIFIES THAT HRRZI PLACES E INTO
 21390					;THE RIGHT HALF OF THE AC AND CLEARS THE LEFT HALF OF THE AC
 21391					;IN THIS CASE C(AC)=-1,,-1.  HENCE, THE RESULT IN THE AC
 21392					;SHOULD BE 0,,-1.  THE AC IS CHECKED FOR 0,,-1.  IF C(AC)=0,,-1, THIS TEST PASSES
 21393
 21394	042403	474 00 0 00 000000 	B30400:	SETO			;PRELOAD AC WITH -1,,-1
 21395	042404	551 00 0 00 777777 		HRRZI	-1		;*HRRZI SHOULD PLACE 0,,-1 INTO THE AC
 21396	042405	302 00 0 00 777777 		CAIE	-1		;PASS IF C(AC)=0,,-1
 21397						STOP^
 21398	042406	254 04 0 00 042407 		HALT	.+1		;TEST FAILED IF PROGRAM HALTS HERE
 21399	042407	324 00 0 00 042410 		JUMPA	.+1		;IF TEST FAILS, CHANGE THIS INSTRUCTION (JUMPA .+1) TO
 21400									;JUMPA X (X IS THE ADDRESS OF THE FIRST INSTRUCTION
 21401									;IN THE SUBTEST) TO LOOP ON ERROR^
 21402
 21403					;**********
DFKAA PDP-10 KL10 BASIC INSTRUCTION DIAGNOSTIC (1) VER 0,2	MACRO %52(537) 09:34 31-JAN-77 PAGE 44
DFKAA3	MAC	25-AUG-75 13:57		TEST OF HWT INSTRUCTIONS                                                           SEQ 0471

 21404					;THIS TEST VERIFIES THAT HRRZI PLACES E INTO
 21405					;THE RIGHT HALF OF THE AC AND CLEARS THE LEFT HALF OF THE AC
 21406					;IN THIS CASE C(AC)=-1,,-1.  HENCE, THE RESULT IN THE AC
 21407					;SHOULD BE 0.  THE AC IS CHECKED FOR 0.  IF C(AC)=0, THIS TEST PASSES
 21408
 21409	042410	474 00 0 00 000000 	B30500:	SETO			;PRELOAD AC WITH -1,,-1
 21410	042411	551 00 0 00 000000 		HRRZI	0		;*HRRZI SHOULD PLACE 0 INTO THE AC
 21411	042412	332 00 0 00 000000 		SKIPE			;PASS IF C(AC)=0
 21412						STOP^
 21413	042413	254 04 0 00 042414 		HALT	.+1		;TEST FAILED IF PROGRAM HALTS HERE
 21414	042414	324 00 0 00 042415 		JUMPA	.+1		;IF TEST FAILS, CHANGE THIS INSTRUCTION (JUMPA .+1) TO
 21415									;JUMPA X (X IS THE ADDRESS OF THE FIRST INSTRUCTION
 21416									;IN THE SUBTEST) TO LOOP ON ERROR^
 21417
 21418					;*****     FAILURE ANALYSIS     *****
 21419					;C(AC0)		C(AC1)		FAILING SIGNAL
 21420
 21421					;0,,-1				FC: AD RT AR + EN
 21422
 21423					;**********
 21424
 21425					;THIS TEST VERIFIES THAT HRRZ PLACES THE RIGHT HALF OF C(E) INTO
 21426					;RIGHT HALF OF THE AC AND PLACES ZEROS INTO THE LEFT HALF OF THE AC
 21427					;IN THIS CASE C(AC)=-1,,-1 AND C(E)=-1,,-1.  HENCE, THE RESULT IN THE AC
 21428					;SHOULD BE 0.  THE AC IS CHECKED FOR 0.  IF C(AC)=0, THIS TEST PASSES.
 21429
 21430	042415	474 00 0 00 000000 	B30600:	SETO			;PRELOAD AC WITH -1,,-1
 21431	042416	550 00 0 00 070331 		HRRZ	[XWD -1,0]	;*HRRZ SHOULD PLACE 0 INTO THE AC
 21432	042417	332 00 0 00 000000 		SKIPE			;PASS IF C(AC)=0
 21433						STOP^
 21434	042420	254 04 0 00 042421 		HALT	.+1		;TEST FAILED IF PROGRAM HALTS HERE
 21435	042421	324 00 0 00 042422 		JUMPA	.+1		;IF TEST FAILS, CHANGE THIS INSTRUCTION (JUMPA .+1) TO
 21436									;JUMPA X (X IS THE ADDRESS OF THE FIRST INSTRUCTION
 21437									;IN THE SUBTEST) TO LOOP ON ERROR^
 21438
 21439					;*****     FAILURE ANALYSIS     *****
 21440					;C(AC0)		C(AC1)		FAILING SIGNAL
 21441
 21442					;E				SW: FCE
 21443					;-1,,0				ET2: AR RT AD EN
 21444
 21445					;**********
DFKAA PDP-10 KL10 BASIC INSTRUCTION DIAGNOSTIC (1) VER 0,2	MACRO %52(537) 09:34 31-JAN-77 PAGE 45
DFKAA3	MAC	25-AUG-75 13:57		TEST OF HWT INSTRUCTIONS                                                           SEQ 0472

 21446					;THIS TEST VERIFIES THAT HRRZ PLACES THE RIGHT HALF OF C(E) INTO
 21447					;RIGHT HALF OF THE AC AND PLACES ZEROS INTO THE LEFT HALF OF THE AC
 21448					;IN THIS CASE C(AC)=-1,,-1 AND C(E)=-1,,-1.  HENCE, THE RESULT IN THE AC
 21449					;SHOULD BE 0,,-1.  THE AC IS CHECKED FOR 0,,-1.  IF C(AC)=0,,-1, THIS TEST PASSES.
 21450
 21451	042422	474 00 0 00 000000 	B30700:	SETO			;PRELOAD AC WITH -1,,-1
 21452	042423	550 00 0 00 070254 		HRRZ	[-1]		;*HRRZ SHOULD PLACE 0,,-1 INTO THE AC
 21453	042424	302 00 0 00 777777 		CAIE	-1		;PASS IF C(AC)=0,,-1
 21454						STOP^
 21455	042425	254 04 0 00 042426 		HALT	.+1		;TEST FAILED IF PROGRAM HALTS HERE
 21456	042426	324 00 0 00 042427 		JUMPA	.+1		;IF TEST FAILS, CHANGE THIS INSTRUCTION (JUMPA .+1) TO
 21457									;JUMPA X (X IS THE ADDRESS OF THE FIRST INSTRUCTION
 21458									;IN THE SUBTEST) TO LOOP ON ERROR^
 21459
 21460					;**********
 21461
 21462					;THIS TEST VERIFIES THAT HRRZ PLACES THE RIGHT HALF OF C(E) INTO
 21463					;RIGHT HALF OF THE AC AND PLACES ZEROS INTO THE LEFT HALF OF THE AC
 21464					;IN THIS CASE C(AC)=0,,-1 AND C(E)=-1,,-1.  HENCE, THE RESULT IN THE AC
 21465					;SHOULD BE 0,,-1.  THE AC IS CHECKED FOR 0,,-1.  IF C(AC)=0,,-1, THIS TEST PASSES.
 21466
 21467	042427	201 00 0 00 777777 	B31000:	MOVEI	-1		;PRELOAD AC WITH 0,,-1
 21468	042430	550 00 0 00 070254 		HRRZ	[-1]		;*HRRZ SHOULD PLACE 0,,-1 INTO THE AC
 21469	042431	302 00 0 00 777777 		CAIE	-1		;PASS IF C(AC)=0,,-1
 21470						STOP^
 21471	042432	254 04 0 00 042433 		HALT	.+1		;TEST FAILED IF PROGRAM HALTS HERE
 21472	042433	324 00 0 00 042434 		JUMPA	.+1		;IF TEST FAILS, CHANGE THIS INSTRUCTION (JUMPA .+1) TO
 21473									;JUMPA X (X IS THE ADDRESS OF THE FIRST INSTRUCTION
 21474									;IN THE SUBTEST) TO LOOP ON ERROR^
 21475
 21476					;**********
DFKAA PDP-10 KL10 BASIC INSTRUCTION DIAGNOSTIC (1) VER 0,2	MACRO %52(537) 09:34 31-JAN-77 PAGE 46
DFKAA3	MAC	25-AUG-75 13:57		TEST OF HWT INSTRUCTIONS                                                           SEQ 0473

 21477					;THIS TEST VERIFIES THAT HRRZ PLACES THE RIGHT HALF OF C(E) INTO
 21478					;RIGHT HALF OF THE AC AND PLACES ZEROS INTO THE LEFT HALF OF THE AC
 21479					;IN THIS CASE C(AC)=0,,-1 AND C(E)=0.  HENCE, THE RESULT IN THE AC
 21480					;SHOULD BE 0.  THE AC IS CHECKED FOR 0.  IF C(AC)=0, THIS TEST PASSES.
 21481
 21482	042434	201 00 0 00 777777 	B31100:	MOVEI	-1		;PRELOAD AC WITH 0,,-1
 21483	042435	550 00 0 00 070253 		HRRZ	[0]		;*HRRZ SHOULD PLACE 0 INTO THE AC
 21484	042436	302 00 0 00 000000 		CAIE	0		;PASS IF C(AC)=0
 21485						STOP^
 21486	042437	254 04 0 00 042440 		HALT	.+1		;TEST FAILED IF PROGRAM HALTS HERE
 21487	042440	324 00 0 00 042441 		JUMPA	.+1		;IF TEST FAILS, CHANGE THIS INSTRUCTION (JUMPA .+1) TO
 21488									;JUMPA X (X IS THE ADDRESS OF THE FIRST INSTRUCTION
 21489									;IN THE SUBTEST) TO LOOP ON ERROR^
 21490
 21491					;**********
 21492
 21493					;THIS TEST VERIFIES THAT HRRZ PLACES THE RIGHT HALF OF C(E) INTO
 21494					;RIGHT HALF OF THE AC AND PLACES ZEROS INTO THE LEFT HALF OF THE AC
 21495					;IN THIS CASE C(AC)=-1,,0 AND C(E)=-1,,-1.  HENCE, THE RESULT IN THE AC
 21496					;SHOULD BE 0,,-1.  THE AC IS CHECKED FOR 0,,-1.  IF C(AC)=0,,-1, THIS TEST PASSES.
 21497
 21498	042441	205 00 0 00 777777 	B31200:	MOVSI	-1		;PRELOAD AC WITH -1,,0
 21499	042442	550 00 0 00 070254 		HRRZ	[-1]		;*HRRZ SHOULD PLACE 0,,-1 INTO THE AC
 21500	042443	302 00 0 00 777777 		CAIE	-1		;PASS IF C(AC)=0,,-1
 21501						STOP^
 21502	042444	254 04 0 00 042445 		HALT	.+1		;TEST FAILED IF PROGRAM HALTS HERE
 21503	042445	324 00 0 00 042446 		JUMPA	.+1		;IF TEST FAILS, CHANGE THIS INSTRUCTION (JUMPA .+1) TO
 21504									;JUMPA X (X IS THE ADDRESS OF THE FIRST INSTRUCTION
 21505									;IN THE SUBTEST) TO LOOP ON ERROR^
 21506
 21507					;**********
DFKAA PDP-10 KL10 BASIC INSTRUCTION DIAGNOSTIC (1) VER 0,2	MACRO %52(537) 09:34 31-JAN-77 PAGE 47
DFKAA3	MAC	25-AUG-75 13:57		TEST OF HWT INSTRUCTIONS                                                           SEQ 0474

 21508					;THIS TEST VERIFIES THAT HRRZ PLACES THE RIGHT HALF OF C(E) INTO
 21509					;RIGHT HALF OF THE AC AND PLACES ZEROS INTO THE LEFT HALF OF THE AC
 21510					;IN THIS CASE C(AC)=-1,,0 AND C(E)=0.  HENCE, THE RESULT IN THE AC
 21511					;SHOULD BE 0.  THE AC IS CHECKED FOR 0.  IF C(AC)=0, THIS TEST PASSES.
 21512
 21513	042446	205 00 0 00 777777 	B31300:	MOVSI	-1		;PRELOAD AC WITH -1,,0
 21514	042447	550 00 0 00 070253 		HRRZ	[0]		;*HRRZ SHOULD PLACE 0 INTO THE AC
 21515	042450	302 00 0 00 000000 		CAIE	0		;PASS IF C(AC)=0
 21516						STOP^
 21517	042451	254 04 0 00 042452 		HALT	.+1		;TEST FAILED IF PROGRAM HALTS HERE
 21518	042452	324 00 0 00 042453 		JUMPA	.+1		;IF TEST FAILS, CHANGE THIS INSTRUCTION (JUMPA .+1) TO
 21519									;JUMPA X (X IS THE ADDRESS OF THE FIRST INSTRUCTION
 21520									;IN THE SUBTEST) TO LOOP ON ERROR^
 21521
 21522					;**********
 21523
 21524					;THIS TEST VERIFIES THAT HRRZ PLACES THE RIGHT HALF OF C(E) INTO
 21525					;RIGHT HALF OF THE AC AND PLACES ZEROS INTO THE LEFT HALF OF THE AC
 21526					;IN THIS CASE C(AC)=0,,-1 AND C(E)=-1,,0.  HENCE, THE RESULT IN THE AC
 21527					;SHOULD BE 0.  THE AC IS CHECKED FOR 0.  IF C(AC)=0, THIS TEST PASSES.
 21528
 21529	042453	201 00 0 00 777777 	B31400:	MOVEI	-1		;PRELOAD AC WITH 0,,-1
 21530	042454	550 00 0 00 070331 		HRRZ	[XWD -1,0]	;*HRRZ SHOULD PLACE 0 INTO THE AC
 21531	042455	332 00 0 00 000000 		SKIPE			;PASS IF C(AC)=0
 21532						STOP^
 21533	042456	254 04 0 00 042457 		HALT	.+1		;TEST FAILED IF PROGRAM HALTS HERE
 21534	042457	324 00 0 00 042460 		JUMPA	.+1		;IF TEST FAILS, CHANGE THIS INSTRUCTION (JUMPA .+1) TO
 21535									;JUMPA X (X IS THE ADDRESS OF THE FIRST INSTRUCTION
 21536									;IN THE SUBTEST) TO LOOP ON ERROR^
 21537
 21538					;**********
DFKAA PDP-10 KL10 BASIC INSTRUCTION DIAGNOSTIC (1) VER 0,2	MACRO %52(537) 09:34 31-JAN-77 PAGE 48
DFKAA3	MAC	25-AUG-75 13:57		TEST OF HWT INSTRUCTIONS                                                           SEQ 0475

 21539					;THIS TEST VERIFIES THAT HRRZ PLACES THE RIGHT HALF OF C(E) INTO
 21540					;RIGHT HALF OF THE AC AND PLACES ZEROS INTO THE LEFT HALF OF THE AC
 21541					;IN THIS CASE C(AC)=-1,,0 AND C(E)=0,,-1.  HENCE, THE RESULT IN THE AC
 21542					;SHOULD BE 0,,-1.  THE AC IS CHECKED FOR 0,,-1.  IF C(AC)=0,,-1, THIS TEST PASSES.
 21543
 21544	042460	205 00 0 00 777777 	B31500:	MOVSI	-1		;PRELOAD AC WITH -1,,0
 21545	042461	550 00 0 00 070330 		HRRZ	[XWD 0,-1]	;*HRRZ SHOULD PLACE 0,,-1 INTO THE AC
 21546	042462	302 00 0 00 777777 		CAIE	-1		;PASS IF C(AC)=0,,-1
 21547						STOP^
 21548	042463	254 04 0 00 042464 		HALT	.+1		;TEST FAILED IF PROGRAM HALTS HERE
 21549	042464	324 00 0 00 042465 		JUMPA	.+1		;IF TEST FAILS, CHANGE THIS INSTRUCTION (JUMPA .+1) TO
 21550									;JUMPA X (X IS THE ADDRESS OF THE FIRST INSTRUCTION
 21551									;IN THE SUBTEST) TO LOOP ON ERROR^
 21552
 21553					;**********
 21554
 21555					;THIS TEST VERIFIES THAT HRRZI PLACES E INTO
 21556					;THE RIGHT HALF OF THE AC AND CLEARS THE LEFT HALF OF THE AC
 21557					;IN THIS CASE C(AC)=0,,-1 AND E=0,,-1.  HENCE, THE RESULT IN THE AC
 21558					;SHOULD BE 0,,-1.  THE AC IS CHECKED FOR 0,,-1.  IF C(AC)=0,,-1, THIS TEST PASSES
 21559
 21560	042465	201 00 0 00 777777 	B31600:	MOVEI	-1		;PRELOAD AC WITH 0,,-1
 21561	042466	551 00 0 00 777777 		HRRZI	-1		;*HRRZI SHOULD PLACE 0,,-1 INTO THE AC
 21562	042467	302 00 0 00 777777 		CAIE	-1		;PASS IF C(AC)=0,,1
 21563						STOP^
 21564	042470	254 04 0 00 042471 		HALT	.+1		;TEST FAILED IF PROGRAM HALTS HERE
 21565	042471	324 00 0 00 042472 		JUMPA	.+1		;IF TEST FAILS, CHANGE THIS INSTRUCTION (JUMPA .+1) TO
 21566									;JUMPA X (X IS THE ADDRESS OF THE FIRST INSTRUCTION
 21567									;IN THE SUBTEST) TO LOOP ON ERROR^
 21568
 21569					;**********
DFKAA PDP-10 KL10 BASIC INSTRUCTION DIAGNOSTIC (1) VER 0,2	MACRO %52(537) 09:34 31-JAN-77 PAGE 49
DFKAA3	MAC	25-AUG-75 13:57		TEST OF HWT INSTRUCTIONS                                                           SEQ 0476

 21570					;THIS TEST VERIFIES THAT HRRZ PLACES THE RIGHT HALF OF C(E) INTO
 21571					;RIGHT HALF OF THE AC AND PLACES ZEROS INTO THE LEFT HALF OF THE AC
 21572					;IN THIS CASE C(AC)=-1,,0 AND C(E)=-1,,0.  HENCE, THE RESULT IN THE AC
 21573					;SHOULD BE 0.  THE AC IS CHECKED FOR 0.  IF C(AC)=0, THIS TEST PASSES.
 21574
 21575	042472	205 00 0 00 777777 	B31700:	MOVSI	-1		;PRELOAD AC WITH -1,,0
 21576	042473	550 00 0 00 070331 		HRRZ	[XWD -1,0]	;*HRRZ SHOULD PLACE 0 INTO THE AC,0]
 21577	042474	302 00 0 00 000000 		CAIE	0		;PASS IF C(AC)=0
 21578						STOP^
 21579	042475	254 04 0 00 042476 		HALT	.+1		;TEST FAILED IF PROGRAM HALTS HERE
 21580	042476	324 00 0 00 042477 		JUMPA	.+1		;IF TEST FAILS, CHANGE THIS INSTRUCTION (JUMPA .+1) TO
 21581									;JUMPA X (X IS THE ADDRESS OF THE FIRST INSTRUCTION
 21582									;IN THE SUBTEST) TO LOOP ON ERROR^
 21583
 21584					;**********
 21585
 21586					;THIS TEST VERIFIES THAT HRL PLACES THE RIGHT HALF OF C(E) INTO
 21587					;THE LEFT HALF OF THE AC.  THE RIGHT HALF OF THE AC IS UNAFFECTED
 21588					;IN THIS CASE, AC=E AND C(AC)=C(E)=0.  HENCE, THE RESULT IN THE AC
 21589					;SHOULD BE 0.  THE AC IS CHECKED FOR 0.  IF C(AC)=0, THIS TEST PASSES.
 21590
 21591	042477	400 00 0 00 000000 	B32000:	SETZ			;PRELOAD AC WITH 0
 21592	042500	504 00 0 00 000000 		HRL			;*HRL SHOULD PLACE 0 INTO THE AC
 21593	042501	332 00 0 00 000000 		SKIPE			;PASS IF C(AC)=0
 21594						STOP^
 21595	042502	254 04 0 00 042503 		HALT	.+1		;TEST FAILED IF PROGRAM HALTS HERE
 21596	042503	324 00 0 00 042504 		JUMPA	.+1		;IF TEST FAILS, CHANGE THIS INSTRUCTION (JUMPA .+1) TO
 21597									;JUMPA X (X IS THE ADDRESS OF THE FIRST INSTRUCTION
 21598									;IN THE SUBTEST) TO LOOP ON ERROR^
 21599
 21600					;**********
DFKAA PDP-10 KL10 BASIC INSTRUCTION DIAGNOSTIC (1) VER 0,2	MACRO %52(537) 09:34 31-JAN-77 PAGE 50
DFKAA3	MAC	25-AUG-75 13:57		TEST OF HWT INSTRUCTIONS                                                           SEQ 0477

 21601					;THIS TEST VERIFIES THAT HRL PLACES THE RIGHT HALF OF C(E) INTO
 21602					;THE LEFT HALF OF THE AC.  THE RIGHT HALF OF THE AC IS UNAFFECTED
 21603					;IN THIS CASE, C(AC)=-1,,-1 AND C(E)=-1,,-1.  HENCE, THE RESULT IN THE AC
 21604					;SHOULD BE -1,,-1.  THE AC IS CHECKED FOR -1,,-1.  IF C(AC)=-1,,-1, THIS TEST PASSES.
 21605
 21606	042504	474 00 0 00 000000 	B32100:	SETO			;PRELOAD AC WITH -1,,-1
 21607	042505	504 00 0 00 070254 		HRL	[-1]		;*HRL SHOULD PLACE -1,,-1 INTO THE AC
 21608	042506	312 00 0 00 070254 		CAME	[-1]		;PASS IF C(AC)=-1,,-1
 21609						STOP^
 21610	042507	254 04 0 00 042510 		HALT	.+1		;TEST FAILED IF PROGRAM HALTS HERE
 21611	042510	324 00 0 00 042511 		JUMPA	.+1		;IF TEST FAILS, CHANGE THIS INSTRUCTION (JUMPA .+1) TO
 21612									;JUMPA X (X IS THE ADDRESS OF THE FIRST INSTRUCTION
 21613									;IN THE SUBTEST) TO LOOP ON ERROR^
 21614
 21615					;*****     FAILURE ANALYSIS     *****
 21616					;C(AC0)		C(AC1)		FAILING SIGNAL
 21617
 21618					;E,,-1				SW: FCE
 21619					;0,,-1				FC: AD RT FM + EN
 21620					;0,,-1				ET2: AR LT AR RT EN
 21621					;-1,,0				ET2: AR RT AD EN
 21622
 21623					;**********
 21624
 21625					;THIS TEST VERIFIES THAT HRL PLACES THE RIGHT HALF OF C(E) INTO
 21626					;THE LEFT HALF OF THE AC.  THE RIGHT HALF OF THE AC IS UNAFFECTED
 21627					;IN THIS CASE, C(AC)=-1,,-1 AND C(E)=0.  HENCE, THE RESULT IN THE AC
 21628					;SHOULD BE 0,,-1.  THE AC IS CHECKED FOR 0,,-1.  IF C(AC)=0,,-1, THIS TEST PASSES.
 21629
 21630	042511	474 00 0 00 000000 	B32200:	SETO			;PRELOAD AC WITH -1,,-1
 21631	042512	504 00 0 00 070253 		HRL	[0]		;*HRL SHOULD PLACE 0,,-1 INTO THE AC
 21632	042513	302 00 0 00 777777 		CAIE	-1		;PASS IF C(AC)=0,,-1
 21633						STOP^
 21634	042514	254 04 0 00 042515 		HALT	.+1		;TEST FAILED IF PROGRAM HALTS HERE
 21635	042515	324 00 0 00 042516 		JUMPA	.+1		;IF TEST FAILS, CHANGE THIS INSTRUCTION (JUMPA .+1) TO
 21636									;JUMPA X (X IS THE ADDRESS OF THE FIRST INSTRUCTION
 21637									;IN THE SUBTEST) TO LOOP ON ERROR^
 21638
 21639					;**********
DFKAA PDP-10 KL10 BASIC INSTRUCTION DIAGNOSTIC (1) VER 0,2	MACRO %52(537) 09:34 31-JAN-77 PAGE 51
DFKAA3	MAC	25-AUG-75 13:57		TEST OF HWT INSTRUCTIONS                                                           SEQ 0478

 21640					;THIS TEST VERIFIES THAT HLR PLACES THE LEFT HALF OF C(E) INTO
 21641					;THE RIGHT HALF OF THE AC.  THE LEFT HALF OF THE AC IS UNAFFECTED.
 21642					;IN THIS CASE, C(AC)=-1,,-1 AND C(E)=0.  HENCE, THE RESULT IN THE AC
 21643					;SHOULD BE -1,,0.  THE AC IS CHECKED FOR -1,,0.  IF C(AC)=-1,,0, THIS TEST PASSES.
 21644
 21645	042516	474 00 0 00 000000 	B32300:	SETO			;PRELOAD AC WITH -1,,-1
 21646	042517	544 00 0 00 070253 		HLR	[0]		;*HLR SHOULD PLACE -1,,0 INTO THE AC
 21647	042520	312 00 0 00 070331 		CAME	[-1,,0]		;PASS IF C(AC)=-1,,0
 21648						STOP^
 21649	042521	254 04 0 00 042522 		HALT	.+1		;TEST FAILED IF PROGRAM HALTS HERE
 21650	042522	324 00 0 00 042523 		JUMPA	.+1		;IF TEST FAILS, CHANGE THIS INSTRUCTION (JUMPA .+1) TO
 21651									;JUMPA X (X IS THE ADDRESS OF THE FIRST INSTRUCTION
 21652									;IN THE SUBTEST) TO LOOP ON ERROR^
 21653
 21654					;*****     FAILURE ANALYSIS     *****
 21655					;C(AC0)		C(AC1)		FAILING SIGNAL
 21656
 21657					;0				ET2: AR LT AD EN
 21658
 21659					;**********
 21660
 21661					;THIS TEST VERIFIES THAT HRL PLACES THE RIGHT HALF OF C(E) INTO
 21662					;THE LEFT HALF OF THE AC.  THE RIGHT HALF OF THE AC IS UNAFFECTED
 21663					;IN THIS CASE, C(AC)=-1,,-1 AND C(E)=0.  HENCE, THE RESULT IN THE AC
 21664					;SHOULD BE -1,,0.  THE AC IS CHECKED FOR -1,,0.  IF C(AC)=-1,,0, THIS TEST PASSES.
 21665
 21666	042523	400 00 0 00 000000 	B32600:	SETZ			;PRELOAD AC WITH 0
 21667	042524	504 00 0 00 070254 		HRL	[-1]		;*HRL SHOULD PLACE -1,,0 INTO THE AC
 21668	042525	312 00 0 00 070331 		CAME	[-1,,0]		;PASS IF C(AC)=-1,,0
 21669						STOP^
 21670	042526	254 04 0 00 042527 		HALT	.+1		;TEST FAILED IF PROGRAM HALTS HERE
 21671	042527	324 00 0 00 042530 		JUMPA	.+1		;IF TEST FAILS, CHANGE THIS INSTRUCTION (JUMPA .+1) TO
 21672									;JUMPA X (X IS THE ADDRESS OF THE FIRST INSTRUCTION
 21673									;IN THE SUBTEST) TO LOOP ON ERROR^
 21674
 21675					;**********
DFKAA PDP-10 KL10 BASIC INSTRUCTION DIAGNOSTIC (1) VER 0,2	MACRO %52(537) 09:34 31-JAN-77 PAGE 52
DFKAA3	MAC	25-AUG-75 13:57		TEST OF HWT INSTRUCTIONS                                                           SEQ 0479

 21676					;THIS TEST VERIFIES THAT HLR PLACES THE LEFT HALF OF C(E) INTO
 21677					;THE RIGHT HALF OF THE AC.  THE LEFT HALF OF THE AC IS UNAFFECTED.
 21678					;IN THIS CASE, C(AC)=0 AND C(E)=-1,,-1.  HENCE, THE RESULT IN THE AC
 21679					;SHOULD BE 0,,-1.  THE AC IS CHECKED FOR 0,,-1.  IF C(AC)=0,,-1, THIS TEST PASSES.
 21680
 21681	042530	400 00 0 00 000000 	B32700:	SETZ			;PRELOAD AC WITH 0
 21682	042531	544 00 0 00 070254 		HLR	[-1]		;*HLR SHOULD PLACE 0,,-1 INTO THE AC
 21683	042532	302 00 0 00 777777 		CAIE	-1		;PASS IF C(AC)=0,,-1
 21684						STOP^
 21685	042533	254 04 0 00 042534 		HALT	.+1		;TEST FAILED IF PROGRAM HALTS HERE
 21686	042534	324 00 0 00 042535 		JUMPA	.+1		;IF TEST FAILS, CHANGE THIS INSTRUCTION (JUMPA .+1) TO
 21687									;JUMPA X (X IS THE ADDRESS OF THE FIRST INSTRUCTION
 21688									;IN THE SUBTEST) TO LOOP ON ERROR^
 21689
 21690					;*****     FAILURE ANALYSIS     *****
 21691					;C(AC0)		C(AC1)		FAILING SIGNAL
 21692
 21693					;0				SW: FCE
 21694					;-1,,-1				FC: AD LT FM + EN
 21695					;0				ET2: AR RT AR LT EN
 21696
 21697					;**********
 21698
 21699					;THIS TEST VERIFIES THAT HRLI PLACES E INTO
 21700					;THE LEFT HALF OF THE AC.  THE RIGHT HALF OF THE AC IS UNAFFECTED.
 21701					;IN THIS CASE C(AC)=-1,,-1 AND E=0,,-1.  HENCE, THE RESULT IN THE AC
 21702					;SHOULD BE -1,,-1.  THE AC IS CHECKED FOR -1,,-1.  IF C(AC)=-1,,-1, THIS TEST PASSES
 21703
 21704	042535	400 00 0 00 000000 	B33000:	SETZ			;PRELOAD AC WITH -1,,-1
 21705	042536	505 00 0 00 777777 		HRLI	-1		;*HRLI SHOULD PLACE -1,,-1 INTO THE AC
 21706	042537	312 00 0 00 070331 		CAME	[XWD -1,0]	;PASS IF C(AC)=-1,,-1
 21707						STOP^
 21708	042540	254 04 0 00 042541 		HALT	.+1		;TEST FAILED IF PROGRAM HALTS HERE
 21709	042541	324 00 0 00 042542 		JUMPA	.+1		;IF TEST FAILS, CHANGE THIS INSTRUCTION (JUMPA .+1) TO
 21710									;JUMPA X (X IS THE ADDRESS OF THE FIRST INSTRUCTION
 21711									;IN THE SUBTEST) TO LOOP ON ERROR^
 21712
 21713					;*****     FAILURE ANALYSIS     *****
 21714					;C(AC0)		C(AC1)		FAILING SIGNAL
 21715
 21716					;-1,,-1				FC: AD RT FM + EN
 21717					;0				ET2: AR LT AR RT EN
 21718
 21719					;**********
DFKAA PDP-10 KL10 BASIC INSTRUCTION DIAGNOSTIC (1) VER 0,2	MACRO %52(537) 09:34 31-JAN-77 PAGE 53
DFKAA3	MAC	25-AUG-75 13:57		TEST OF HWT INSTRUCTIONS                                                           SEQ 0480

 21720					;THIS TEST VERIFIES THAT HLR PLACES THE LEFT HALF OF C(E) INTO
 21721					;THE RIGHT HALF OF THE AC.  THE LEFT HALF OF THE AC IS UNAFFECTED.
 21722					;IN THIS CASE, C(AC)=-1,,-1 AND C(E)=-1,,0.  HENCE, THE RESULT IN THE AC
 21723					;SHOULD BE 0,,-1.  THE AC IS CHECKED FOR 0,,-1.  IF C(AC)=0,,-1, THIS TEST PASSES.
 21724
 21725	042542	400 00 0 00 000000 	B33100:	SETZ			;PRELOAD AC WITH -1,,-1
 21726	042543	544 00 0 00 070331 		HLR	[XWD -1,0]	;*HLR SHOULD PLACE -1,,-1 INTO THE AC
 21727	042544	302 00 0 00 777777 		CAIE	-1		;PASS IF C(AC)=0,,-1
 21728						STOP^
 21729	042545	254 04 0 00 042546 		HALT	.+1		;TEST FAILED IF PROGRAM HALTS HERE
 21730	042546	324 00 0 00 042547 		JUMPA	.+1		;IF TEST FAILS, CHANGE THIS INSTRUCTION (JUMPA .+1) TO
 21731									;JUMPA X (X IS THE ADDRESS OF THE FIRST INSTRUCTION
 21732									;IN THE SUBTEST) TO LOOP ON ERROR^
 21733
 21734					;**********
 21735
 21736					;THIS TEST VERIFIES THAT HRL PLACES THE RIGHT HALF OF C(E) INTO
 21737					;THE LEFT HALF OF THE AC.  THE RIGHT HALF OF THE AC IS UNAFFECTED
 21738					;IN THIS CASE, C(AC)=0 AND C(E)=-1,,0.  HENCE, THE RESULT IN THE AC
 21739					;SHOULD BE 0.  THE AC IS CHECKED FOR 0.  IF C(AC)=0, THIS TEST PASSES.
 21740
 21741	042547	400 00 0 00 000000 	B33200:	SETZ			;PRELOAD AC WITH 0
 21742	042550	504 00 0 00 070331 		HRL	[XWD -1,0]	;*HRL SHOULD PLACE 0 INTO THE AC
 21743	042551	332 00 0 00 000000 		SKIPE			;PASS IF C(AC)=0
 21744						STOP^
 21745	042552	254 04 0 00 042553 		HALT	.+1		;TEST FAILED IF PROGRAM HALTS HERE
 21746	042553	324 00 0 00 042554 		JUMPA	.+1		;IF TEST FAILS, CHANGE THIS INSTRUCTION (JUMPA .+1) TO
 21747									;JUMPA X (X IS THE ADDRESS OF THE FIRST INSTRUCTION
 21748									;IN THE SUBTEST) TO LOOP ON ERROR^
 21749
 21750					;**********
DFKAA PDP-10 KL10 BASIC INSTRUCTION DIAGNOSTIC (1) VER 0,2	MACRO %52(537) 09:34 31-JAN-77 PAGE 54
DFKAA3	MAC	25-AUG-75 13:57		TEST OF HWT INSTRUCTIONS                                                           SEQ 0481

 21751					;THIS TEST VERIFIES THAT HLRI ALWAYS CLEARS THE RIGHT HALF
 21752					;OF THE AC.  THE LEFT HALF OF THE AC IS UNAFFECTED.
 21753					;IN THIS CASE, C(AC)=0 AND E=0,,-1.  HENCE, THE RESULT IN THE AC
 21754					;SHOULD BE 0.  THE AC IS CHECKED FOR 0
 21755					;IF C(AC)=0, THIS TEST PASSES.
 21756
 21757	042554	400 00 0 00 000000 	B33300:	SETZ			;PRELOAD AC WITH 0
 21758	042555	545 00 0 00 777777 		HLRI	-1		;*HLRI SHOULD PLACE 0 INTO THE AC
 21759	042556	332 00 0 00 000000 		SKIPE			;PASS IF C(AC)=0
 21760						STOP^
 21761	042557	254 04 0 00 042560 		HALT	.+1		;TEST FAILED IF PROGRAM HALTS HERE
 21762	042560	324 00 0 00 042561 		JUMPA	.+1		;IF TEST FAILS, CHANGE THIS INSTRUCTION (JUMPA .+1) TO
 21763									;JUMPA X (X IS THE ADDRESS OF THE FIRST INSTRUCTION
 21764									;IN THE SUBTEST) TO LOOP ON ERROR^
 21765
 21766					;*****     FAILURE ANALYSIS     *****
 21767					;C(AC0)		C(AC1)		FAILING SIGNAL
 21768
 21769					;-1,,0				FC:AD LT FM + EN
 21770
 21771					;**********
 21772
 21773					;THIS TEST VERIFIES THAT HRLI PLACES E INTO
 21774					;THE LEFT HALF OF THE AC.  THE RIGHT HALF OF THE AC IS UNAFFECTED.
 21775					;IN THIS CASE C(AC)=-1,,-1 AND E=-1,,-1.  HENCE, THE RESULT IN THE AC
 21776					;SHOULD BE -1,,-1.  THE AC IS CHECKED FOR -1,,-1.  IF C(AC)=-1,,-1, THIS TEST PASSES
 21777
 21778	042561	474 00 0 00 000000 	B33400:	SETO			;PRELOAD AC WITH -1,,-1
 21779	042562	505 00 0 00 777777 		HRLI	-1		;*HRLI SHOULD PLACE -1,,-1 INTO THE AC
 21780	042563	312 00 0 00 070254 		CAME	[-1]		;PASS IF C(AC)=-1,,-1
 21781						STOP^
 21782	042564	254 04 0 00 042565 		HALT	.+1		;TEST FAILED IF PROGRAM HALTS HERE
 21783	042565	324 00 0 00 042566 		JUMPA	.+1		;IF TEST FAILS, CHANGE THIS INSTRUCTION (JUMPA .+1) TO
 21784									;JUMPA X (X IS THE ADDRESS OF THE FIRST INSTRUCTION
 21785									;IN THE SUBTEST) TO LOOP ON ERROR^
 21786
 21787					;*****     FAILURE ANALYSIS     *****
 21788					;C(AC0)		C(AC1)		FAILING SIGNAL
 21789
 21790					;-1,,0				ET2: AR RT AD EN
 21791
 21792
 21793					;**********
DFKAA PDP-10 KL10 BASIC INSTRUCTION DIAGNOSTIC (1) VER 0,2	MACRO %52(537) 09:34 31-JAN-77 PAGE 55
DFKAA3	MAC	25-AUG-75 13:57		TEST OF HWT INSTRUCTIONS                                                           SEQ 0482

 21794					;THIS TEST VERIFIES THAT HLR PLACES THE LEFT HALF OF C(E) INTO
 21795					;THE RIGHT HALF OF THE AC.  THE LEFT HALF OF THE AC IS UNAFFECTED.
 21796					;IN THIS CASE, C(AC)=-1,,-1 AND C(E)=-1,,0.  HENCE, THE RESULT IN THE AC
 21797					;SHOULD BE -1,,-1.  THE AC IS CHECKED FOR -1,,-1.  IF C(AC)=-1,,-1, THIS TEST PASSES.
 21798
 21799	042566	474 00 0 00 000000 	B33500:	SETO			;PRELOAD AC WITH -1,,-1
 21800	042567	544 00 0 00 070331 		HLR	[XWD -1,0]	;*HLR SHOULD PLACE -1,,-1 INTO THE AC
 21801	042570	312 00 0 00 070254 		CAME	[-1]		;PASS IF C(AC)=-1,,-1
 21802						STOP^
 21803	042571	254 04 0 00 042572 		HALT	.+1		;TEST FAILED IF PROGRAM HALTS HERE
 21804	042572	324 00 0 00 042573 		JUMPA	.+1		;IF TEST FAILS, CHANGE THIS INSTRUCTION (JUMPA .+1) TO
 21805									;JUMPA X (X IS THE ADDRESS OF THE FIRST INSTRUCTION
 21806									;IN THE SUBTEST) TO LOOP ON ERROR^
 21807
 21808					;**********
 21809
 21810					;THIS TEST VERIFIES THAT HRL PLACES THE RIGHT HALF OF C(E) INTO
 21811					;THE LEFT HALF OF THE AC.  THE RIGHT HALF OF THE AC IS UNAFFECTED
 21812					;IN THIS CASE, C(AC)=-1,,-1 AND C(E)=-1,,0.  HENCE, THE RESULT IN THE AC
 21813					;SHOULD BE 0,,-1.  THE AC IS CHECKED FOR 0,,-1.  IF C(AC)=0,,-1, THIS TEST PASSES.
 21814
 21815	042573	474 00 0 00 000000 	B33600:	SETO			;PRELOAD AC WITH -1,,-1
 21816	042574	504 00 0 00 070331 		HRL	[XWD -1,0]	;*HRL SHOULD PLACE 0,,-1 INTO THE AC
 21817	042575	312 00 0 00 070330 		CAME	[XWD 0,-1]	;PASS IF C(AC)=0,,-1
 21818						STOP^
 21819	042576	254 04 0 00 042577 		HALT	.+1		;TEST FAILED IF PROGRAM HALTS HERE
 21820	042577	324 00 0 00 042600 		JUMPA	.+1		;IF TEST FAILS, CHANGE THIS INSTRUCTION (JUMPA .+1) TO
 21821									;JUMPA X (X IS THE ADDRESS OF THE FIRST INSTRUCTION
 21822									;IN THE SUBTEST) TO LOOP ON ERROR^
 21823
 21824					;**********
DFKAA PDP-10 KL10 BASIC INSTRUCTION DIAGNOSTIC (1) VER 0,2	MACRO %52(537) 09:34 31-JAN-77 PAGE 56
DFKAA3	MAC	25-AUG-75 13:57		TEST OF HWT INSTRUCTIONS                                                           SEQ 0483

 21825					;THIS TEST VERIFIES THAT HLRI ALWAYS CLEARS THE RIGHT HALF
 21826					;OF THE AC.  THE LEFT HALF OF THE AC IS UNAFFECTED.
 21827					;IN THIS CASE, C(AC)=-1,,-1 AND E=0,,-1.  HENCE, THE RESULT IN THE AC
 21828					;SHOULD BE -1,,0.  THE AC IS CHECKED FOR -1,,0
 21829					;IF C(AC)=-1,,0, THIS TEST PASSES.
 21830
 21831	042600	474 00 0 00 000000 	B33700:	SETO			;PRELOAD AC WITH -1,,-1
 21832	042601	545 00 0 00 777777 		HLRI	-1		;*HLRI SHOULD PLACE -1,,0 INTO THE AC
 21833	042602	312 00 0 00 070331 		CAME	[XWD -1,0]	;PASS IF C(AC)=-1,,0
 21834						STOP^
 21835	042603	254 04 0 00 042604 		HALT	.+1		;TEST FAILED IF PROGRAM HALTS HERE
 21836	042604	324 00 0 00 042605 		JUMPA	.+1		;IF TEST FAILS, CHANGE THIS INSTRUCTION (JUMPA .+1) TO
 21837									;JUMPA X (X IS THE ADDRESS OF THE FIRST INSTRUCTION
 21838									;IN THE SUBTEST) TO LOOP ON ERROR^
 21839
 21840					;*****     FAILURE ANALYSIS     *****
 21841					;C(AC0)		C(AC1)		FAILING SIGNAL
 21842
 21843					;0				ET2: AR LT AD EN
 21844
 21845					;**********
 21846
 21847					;THIS TEST VERIFIES THAT HRL PLACES THE RIGHT HALF OF C(E) INTO
 21848					;THE LEFT HALF OF THE AC.  THE RIGHT HALF OF THE AC IS UNAFFECTED
 21849					;IN THIS CASE, C(AC)=0,,-1 AND C(E)=0.  HENCE, THE RESULT IN THE AC
 21850					;SHOULD BE 0,,-1.  THE AC IS CHECKED FOR 0,,-1.  IF C(AC)=0,,-1, THIS TEST PASSES.
 21851
 21852	042605	201 00 0 00 777777 	B34000:	MOVEI	-1		;PRELOAD AC WITH 0,,-1
 21853	042606	504 00 0 00 070253 		HRL	[0]		;*HRL SHOULD PLACE 0,,-1 INTO THE AC
 21854	042607	302 00 0 00 777777 		CAIE	-1		;PASS IF C(AC)=0,,-1
 21855						STOP^
 21856	042610	254 04 0 00 042611 		HALT	.+1		;TEST FAILED IF PROGRAM HALTS HERE
 21857	042611	324 00 0 00 042612 		JUMPA	.+1		;IF TEST FAILS, CHANGE THIS INSTRUCTION (JUMPA .+1) TO
 21858									;JUMPA X (X IS THE ADDRESS OF THE FIRST INSTRUCTION
 21859									;IN THE SUBTEST) TO LOOP ON ERROR^
 21860
 21861					;**********
DFKAA PDP-10 KL10 BASIC INSTRUCTION DIAGNOSTIC (1) VER 0,2	MACRO %52(537) 09:34 31-JAN-77 PAGE 57
DFKAA3	MAC	25-AUG-75 13:57		TEST OF HWT INSTRUCTIONS                                                           SEQ 0484

 21862					;THIS TEST VERIFIES THAT HLRI ALWAYS CLEARS THE RIGHT HALF
 21863					;OF THE AC.  THE LEFT HALF OF THE AC IS UNAFFECTED.
 21864					;IN THIS CASE, C(AC)=0,,-1 AND E=0.  HENCE, THE RESULT IN THE AC
 21865					;SHOULD BE 0.  THE AC IS CHECKED FOR 0
 21866					;IF C(AC)=0, THIS TEST PASSES.
 21867
 21868	042612	201 00 0 00 777777 	B34100:	MOVEI	-1		;PRELOAD AC WITH 0,,-1
 21869	042613	545 00 0 00 000000 		HLRI			;*HLRI SHOULD PLACE 0 INTO THE AC
 21870	042614	332 00 0 00 000000 		SKIPE			;PASS IF C(AC)=0
 21871						STOP^
 21872	042615	254 04 0 00 042616 		HALT	.+1		;TEST FAILED IF PROGRAM HALTS HERE
 21873	042616	324 00 0 00 042617 		JUMPA	.+1		;IF TEST FAILS, CHANGE THIS INSTRUCTION (JUMPA .+1) TO
 21874									;JUMPA X (X IS THE ADDRESS OF THE FIRST INSTRUCTION
 21875									;IN THE SUBTEST) TO LOOP ON ERROR^
 21876
 21877					;**********
 21878
 21879					;THIS TEST VERIFIES THAT HRL PLACES THE RIGHT HALF OF C(E) INTO
 21880					;THE LEFT HALF OF THE AC.  THE RIGHT HALF OF THE AC IS UNAFFECTED
 21881					;IN THIS CASE, C(AC)=0,,-1 AND C(E)=-1,,-1.  HENCE, THE RESULT IN THE AC
 21882					;SHOULD BE -1,,-1.  THE AC IS CHECKED FOR -1,,-1.  IF C(AC)=-1,,-1, THIS TEST PASSES.
 21883
 21884	042617	201 00 0 00 777777 	B34200:	MOVEI	-1		;PRELOAD AC WITH 0,,-1
 21885	042620	504 00 0 00 070254 		HRL	[-1]		;*HRL SHOULD PLACE -1,,-1 INTO THE AC
 21886	042621	312 00 0 00 070254 		CAME	[-1]		;PASS IF C(AC)=-1,,-1
 21887						STOP^
 21888	042622	254 04 0 00 042623 		HALT	.+1		;TEST FAILED IF PROGRAM HALTS HERE
 21889	042623	324 00 0 00 042624 		JUMPA	.+1		;IF TEST FAILS, CHANGE THIS INSTRUCTION (JUMPA .+1) TO
 21890									;JUMPA X (X IS THE ADDRESS OF THE FIRST INSTRUCTION
 21891									;IN THE SUBTEST) TO LOOP ON ERROR^
 21892
 21893					;**********
DFKAA PDP-10 KL10 BASIC INSTRUCTION DIAGNOSTIC (1) VER 0,2	MACRO %52(537) 09:34 31-JAN-77 PAGE 58
DFKAA3	MAC	25-AUG-75 13:57		TEST OF HWT INSTRUCTIONS                                                           SEQ 0485

 21894					;THIS TEST VERIFIES THAT HLR PLACES THE LEFT HALF OF C(E) INTO
 21895					;THE RIGHT HALF OF THE AC.  THE LEFT HALF OF THE AC IS UNAFFECTED.
 21896					;IN THIS CASE, C(AC)=0,,-1 AND C(E)=-1,,-1.  HENCE, THE RESULT IN THE AC
 21897					;SHOULD BE 0,,-1.  THE AC IS CHECKED FOR 0,,-1.  IF C(AC)=0,,-1, THIS TEST PASSES.
 21898
 21899	042624	201 00 0 00 777777 	B34300:	MOVEI	-1		;PRELOAD AC WITH 0,,-1
 21900	042625	544 00 0 00 070254 		HLR	[-1]		;*HLR SHOULD PLACE 0,,-1 INTO THE AC
 21901	042626	302 00 0 00 777777 		CAIE	-1		;PASS IF C(AC)=0,,-1
 21902						STOP^
 21903	042627	254 04 0 00 042630 		HALT	.+1		;TEST FAILED IF PROGRAM HALTS HERE
 21904	042630	324 00 0 00 042631 		JUMPA	.+1		;IF TEST FAILS, CHANGE THIS INSTRUCTION (JUMPA .+1) TO
 21905									;JUMPA X (X IS THE ADDRESS OF THE FIRST INSTRUCTION
 21906									;IN THE SUBTEST) TO LOOP ON ERROR^
 21907
 21908					;**********
 21909
 21910					;THIS TEST VERIFIES THAT HRL PLACES THE RIGHT HALF OF C(E) INTO
 21911					;THE LEFT HALF OF THE AC.  THE RIGHT HALF OF THE AC IS UNAFFECTED
 21912					;IN THIS CASE, C(AC)=-1,,0 AND C(E)=0.  HENCE, THE RESULT IN THE AC
 21913					;SHOULD BE 0.  THE AC IS CHECKED FOR 0.  IF C(AC)=0, THIS TEST PASSES.
 21914
 21915	042631	205 00 0 00 777777 	B34400:	MOVSI	-1		;PRELOAD AC WITH -1,,0
 21916	042632	504 00 0 00 070253 		HRL	[0]		;*HRL SHOULD PLACE 0 INTO THE AC
 21917	042633	302 00 0 00 000000 		CAIE	0		;PASS IF C(AC)=0
 21918						STOP^
 21919	042634	254 04 0 00 042635 		HALT	.+1		;TEST FAILED IF PROGRAM HALTS HERE
 21920	042635	324 00 0 00 042636 		JUMPA	.+1		;IF TEST FAILS, CHANGE THIS INSTRUCTION (JUMPA .+1) TO
 21921									;JUMPA X (X IS THE ADDRESS OF THE FIRST INSTRUCTION
 21922									;IN THE SUBTEST) TO LOOP ON ERROR^
 21923
 21924					;**********
DFKAA PDP-10 KL10 BASIC INSTRUCTION DIAGNOSTIC (1) VER 0,2	MACRO %52(537) 09:34 31-JAN-77 PAGE 59
DFKAA3	MAC	25-AUG-75 13:57		TEST OF HWT INSTRUCTIONS                                                           SEQ 0486

 21925					;THIS TEST VERIFIES THAT HLR PLACES THE LEFT HALF OF C(E) INTO
 21926					;THE RIGHT HALF OF THE AC.  THE LEFT HALF OF THE AC IS UNAFFECTED.
 21927					;IN THIS CASE, C(AC)=-1,,0 AND C(E)=0.  HENCE, THE RESULT IN THE AC
 21928					;SHOULD BE -1,,0.  THE AC IS CHECKED FOR -1,,0.  IF C(AC)=-1,,0, THIS TEST PASSES.
 21929
 21930	042636	205 00 0 00 777777 	B34500:	MOVSI	-1		;PRELOAD AC WITH -1,,0
 21931	042637	544 00 0 00 070253 		HLR	[0]		;*HLR SHOULD PLACE -1,,0 INTO THE AC
 21932	042640	312 00 0 00 070331 		CAME	[XWD -1,0]	;PASS IF C(AC)=-1,,0
 21933						STOP^
 21934	042641	254 04 0 00 042642 		HALT	.+1		;TEST FAILED IF PROGRAM HALTS HERE
 21935	042642	324 00 0 00 042643 		JUMPA	.+1		;IF TEST FAILS, CHANGE THIS INSTRUCTION (JUMPA .+1) TO
 21936									;JUMPA X (X IS THE ADDRESS OF THE FIRST INSTRUCTION
 21937									;IN THE SUBTEST) TO LOOP ON ERROR^
 21938
 21939					;**********
 21940
 21941					;THIS TEST VERIFIES THAT HRL PLACES THE RIGHT HALF OF C(E) INTO
 21942					;THE LEFT HALF OF THE AC.  THE RIGHT HALF OF THE AC IS UNAFFECTED
 21943					;IN THIS CASE, C(AC)=-1,,0 AND C(E)=-1,,-1.  HENCE, THE RESULT IN THE AC
 21944					;SHOULD BE -1,,0.  THE AC IS CHECKED FOR -1,,0.  IF C(AC)=-1,,0, THIS TEST PASSES.
 21945
 21946	042643	205 00 0 00 777777 	B34600:	MOVSI	-1		;PRELOAD AC WITH -1,,0
 21947	042644	504 00 0 00 070254 		HRL	[-1]		;*HRL SHOULD PLACE -1,,0 INTO THE AC
 21948	042645	312 00 0 00 070331 		CAME	[XWD -1,0]	;PASS IF C(AC)=-1,,0
 21949						STOP^
 21950	042646	254 04 0 00 042647 		HALT	.+1		;TEST FAILED IF PROGRAM HALTS HERE
 21951	042647	324 00 0 00 042650 		JUMPA	.+1		;IF TEST FAILS, CHANGE THIS INSTRUCTION (JUMPA .+1) TO
 21952									;JUMPA X (X IS THE ADDRESS OF THE FIRST INSTRUCTION
 21953									;IN THE SUBTEST) TO LOOP ON ERROR^
 21954
 21955					;**********
DFKAA PDP-10 KL10 BASIC INSTRUCTION DIAGNOSTIC (1) VER 0,2	MACRO %52(537) 09:34 31-JAN-77 PAGE 60
DFKAA3	MAC	25-AUG-75 13:57		TEST OF HWT INSTRUCTIONS                                                           SEQ 0487

 21956					;THIS TEST VERIFIES THAT HLR PLACES THE LEFT HALF OF C(E) INTO
 21957					;THE RIGHT HALF OF THE AC.  THE LEFT HALF OF THE AC IS UNAFFECTED.
 21958					;IN THIS CASE, C(AC)=-1,,0 AND C(E)=-1,,-1  HENCE, THE RESULT IN THE AC
 21959					;SHOULD BE -1,,-1.  THE AC IS CHECKED FOR -1,,-1.  IF C(AC)=-1,,-1, THIS TEST PASSES.
 21960
 21961	042650	205 00 0 00 777777 	B34700:	MOVSI	-1		;PRELOAD AC WITH -1,,0
 21962	042651	544 00 0 00 070254 		HLR	[-1]		;*HLR SHOULD PLACE -1,,-1 INTO THE AC
 21963	042652	312 00 0 00 070254 		CAME	[-1]		;PASS IF C(AC)=-1,,-1
 21964						STOP^
 21965	042653	254 04 0 00 042654 		HALT	.+1		;TEST FAILED IF PROGRAM HALTS HERE
 21966	042654	324 00 0 00 042655 		JUMPA	.+1		;IF TEST FAILS, CHANGE THIS INSTRUCTION (JUMPA .+1) TO
 21967									;JUMPA X (X IS THE ADDRESS OF THE FIRST INSTRUCTION
 21968									;IN THE SUBTEST) TO LOOP ON ERROR^
 21969
 21970					;**********
 21971
 21972					;THIS TEST VERIFIES THAT HLLM PLACES THE LEFT HALF OF C(AC) INTO
 21973					;THE LEFT HALF OF E.  THE RIGHT HALF OF E IS UNAFFECTED.
 21974					;IN THIS CASE, AC=E AND C(AC)= C(E)=0.  HENCE, THE RESULT IN E
 21975					;SHOULD BE 0.  E IS CHECKED FOR 0.  IF C(E)=0, THIS TEXT PASSES.
 21976
 21977	042655	400 00 0 00 000000 	B35000:	SETZ			;PRELOAD AC,E WITH 0
 21978	042656	502 00 0 00 000000 		HLLM			;*HLLM SHOULD PLACE 0 INTO E
 21979	042657	332 00 0 00 000000 		SKIPE			;PASS IF C(E)=0
 21980						STOP^
 21981	042660	254 04 0 00 042661 		HALT	.+1		;TEST FAILED IF PROGRAM HALTS HERE
 21982	042661	324 00 0 00 042662 		JUMPA	.+1		;IF TEST FAILS, CHANGE THIS INSTRUCTION (JUMPA .+1) TO
 21983									;JUMPA X (X IS THE ADDRESS OF THE FIRST INSTRUCTION
 21984									;IN THE SUBTEST) TO LOOP ON ERROR^
 21985
 21986					;*****     FAILURE ANALYSIS     *****
 21987					;C(AC0)		C(AC1)		FAILING SIGNAL
 21988
 21989					;-1,,0		0		FC: AD FM + EN
 21990					;0,,-1		0,,-1		ET0: AD RT BR + EN
 21991					;B35000		0,,-1		ET0: BR AR EN
 21992					;-1,,0		0,,-1		ET0: AD LT AR + EN
 21993
 21994					;**********
DFKAA PDP-10 KL10 BASIC INSTRUCTION DIAGNOSTIC (1) VER 0,2	MACRO %52(537) 09:34 31-JAN-77 PAGE 61
DFKAA3	MAC	25-AUG-75 13:57		TEST OF HWT INSTRUCTIONS                                                           SEQ 0488

 21995					;THIS TEST VERIFIES THAT HLLM PLACES THE LEFT HALF OF C(AC) INTO
 21996					;THE LEFT HALF OF E.  THE RIGHT HALF OF E IS UNAFFECTED.
 21997					;IN THIS CASE, C(AC)=0 AND C(E)=-1,,-1.  HENCE, THE RESULT IN E
 21998					;SHOULD BE 0,,-1.  E IS CHECKED FOR 0,,-1. IF C(E)=0,,-1, THIS TEST PASSES.
 21999
 22000	042662	400 00 0 00 000000 	B35500:	SETZ			;PRELOAD AC WITH 0
 22001	042663	474 01 0 00 000000 		SETO	1,		;PRELOAD E WITH -1,,-1
 22002	042664	502 00 0 00 000001 		HLLM	1		;*HLLM SHOULD PLACE 0,,-1 INTO E
 22003	042665	302 01 0 00 777777 		CAIE	1,- 1		;PASS IF C(E) =0,,-1
 22004						STOP^
 22005	042666	254 04 0 00 042667 		HALT	.+1		;TEST FAILED IF PROGRAM HALTS HERE
 22006	042667	324 00 0 00 042670 		JUMPA	.+1		;IF TEST FAILS, CHANGE THIS INSTRUCTION (JUMPA .+1) TO
 22007									;JUMPA X (X IS THE ADDRESS OF THE FIRST INSTRUCTION
 22008									;IN THE SUBTEST) TO LOOP ON ERROR^
 22009
 22010					;*****     FAILURE ANALYSIS     *****
 22011					;C(AC0)		C(AC1)		FAILING SIGNAL
 22012
 22013					;0		-1,,-1		SW: FCE PSE
 22014					;0		0		SW: ET0
 22015					;0		-1,,-1		ET0: AR AD EN
 22016					;0		0		ET2: AR LT AD EN
 22017
 22018					;**********
 22019
 22020					;THIS TEST VERIFIES THAT HLLM PLACES THE LEFT HALF OF C(AC) INTO
 22021					;THE LEFT HALF OF E.  THE RIGHT HALF OF E IS UNAFFECTED.
 22022					;IN THIS CASE, C(AC)=-1,,-1 AND C(E)=0.  HENCE, THE RESULT IN E
 22023					;SHOULD BE -1,,0.  E IS CHECKED FOR -1,,0. IF C(E)=-1,,0, THIS TEST PASSES
 22024
 22025	042670	474 00 0 00 000000 	B35600:	SETO			;PRELOAD AC WITH -1,,-1
 22026	042671	400 01 0 00 000000 		SETZ	1,		;PRELOAD E WITH 0
 22027	042672	502 00 0 00 000001 		HLLM	1		;*HLLM SHOULD PLACE -1,,0 INTO E
 22028	042673	312 01 0 00 070331 		CAME	1,[XWD -1,0]	;PASS IF C(E) = -1,,0
 22029						STOP^
 22030	042674	254 04 0 00 042675 		HALT	.+1		;TEST FAILED IF PROGRAM HALTS HERE
 22031	042675	324 00 0 00 042676 		JUMPA	.+1		;IF TEST FAILS, CHANGE THIS INSTRUCTION (JUMPA .+1) TO
 22032									;JUMPA X (X IS THE ADDRESS OF THE FIRST INSTRUCTION
 22033									;IN THE SUBTEST) TO LOOP ON ERROR^
 22034
 22035					;**********
DFKAA PDP-10 KL10 BASIC INSTRUCTION DIAGNOSTIC (1) VER 0,2	MACRO %52(537) 09:34 31-JAN-77 PAGE 62
DFKAA3	MAC	25-AUG-75 13:57		TEST OF HWT INSTRUCTIONS                                                           SEQ 0489

 22036					;THIS TEST VERIFIES THAT HRRM PLACES THE RIGHT HALF OF C(AC) INTO
 22037					;THE RIGHT HALF OF E.  THE LEFT HALF OF E IS UNAFFECTED.
 22038					;IN THIS CASE, C(AC)=0 AND C(E)=-1,,-1.  HENCE, THE RESULT IN E
 22039					;SHOULD BE -1,,0.  E IS CHECKED FOR -1,,0
 22040					;IF C(E) = -1,,0, THIS TEST PASSES.
 22041
 22042	042676	400 00 0 00 000000 	B35700:	SETZ			;PRELOAD AC WITH 0
 22043	042677	474 01 0 00 000000 		SETO	1,		;PRELOAD E WITH -1,,-1
 22044	042700	542 00 0 00 000001 		HRRM	1		;*HRRM SHOULD PLACE -1,,0 INTO E
 22045	042701	312 01 0 00 070331 		CAME	1,[XWD -1,0]	;PASS IF C(E) = -1,,0
 22046						STOP^
 22047	042702	254 04 0 00 042703 		HALT	.+1		;TEST FAILED IF PROGRAM HALTS HERE
 22048	042703	324 00 0 00 042704 		JUMPA	.+1		;IF TEST FAILS, CHANGE THIS INSTRUCTION (JUMPA .+1) TO
 22049									;JUMPA X (X IS THE ADDRESS OF THE FIRST INSTRUCTION
 22050									;IN THE SUBTEST) TO LOOP ON ERROR^
 22051
 22052					;*****     FAILURE ANALYSIS     *****
 22053					;C(AC0)		C(AC1)		FAILING SIGNAL
 22054
 22055					;0		-1,,-1		SW: FCE PSE
 22056					;0		0		SW: ET0
 22057					;0		-1,,-1		FC: AD FM + EN
 22058					;-1,,-1		-1,,-1		ET0: AD LT BR + EN
 22059					;0		-1,,-1		ET0: AD RT AR + EN
 22060					;0		0		ET0: BR AR EN
 22061					;0		-1,,-1		ET0: AR AD EN
 22062					;0		0		ET2: AR AD EN
 22063
 22064					;**********
 22065
 22066					;THIS TEST VERIFIES THAT HRRM PLACES THE RIGHT HALF OF C(AC) INTO
 22067					;THE RIGHT HALF OF E.  THE LEFT HALF OF E IS UNAFFECTED.
 22068					;IN THIS CASE, C(AC)=-1,,-1 AND C(E)=0.  HENCE, THE RESULT IN E
 22069					;SHOULD BE 0,,-1.  E IS CHECKED FOR = 0,,-1
 22070					;IF C(E) = 0,,-1, THIS TEST PASSES.
 22071
 22072	042704	474 00 0 00 000000 	B36000:	SETO			;PRELOAD AC WITH -1,,-1
 22073	042705	400 01 0 00 000000 		SETZ	1,		;PRELOAD E WITH 0
 22074	042706	542 00 0 00 000001 		HRRM	1		;*HRRM SHOULD PLACE 0,,-1 INTO E
 22075	042707	302 01 0 00 777777 		CAIE	1,-1		;PASS IF C(E) = 0,,-1
 22076						STOP^
 22077	042710	254 04 0 00 042711 		HALT	.+1		;TEST FAILED IF PROGRAM HALTS HERE
 22078	042711	324 00 0 00 042712 		JUMPA	.+1		;IF TEST FAILS, CHANGE THIS INSTRUCTION (JUMPA .+1) TO
 22079									;JUMPA X (X IS THE ADDRESS OF THE FIRST INSTRUCTION
 22080									;IN THE SUBTEST) TO LOOP ON ERROR^
 22081
 22082					;**********
DFKAA PDP-10 KL10 BASIC INSTRUCTION DIAGNOSTIC (1) VER 0,2	MACRO %52(537) 09:34 31-JAN-77 PAGE 63
DFKAA3	MAC	25-AUG-75 13:57		TEST OF HWT INSTRUCTIONS                                                           SEQ 0490

 22083					;THIS TEST VERIFIES THAT HLLO PLACES THE LEFT HALF OF C(E) INTO
 22084					;THE LEFT HALF OF THE AC AND PLACES ONES INTO THE RIGHT HALF OF THE AC.
 22085					;IN THIS CASE, AC=E AND C(AC)=C(E)=-1,,-1.  HENCE THE RESULT IN THE AC
 22086					;SHOULD BE -1,,-1.  THE AC IS CHECKED FOR -1,,-1.  IF C(AC)=-1,,-1, THIS TEST PASSES.
 22087
 22088	042712	474 00 0 00 000000 	B36100:	SETO			;PRELOAD AC WITH -1,,-1
 22089	042713	520 00 0 00 000000 		HLLO			;*HLLO SHOULD PLACE -1,,-1 INTO THE AC
 22090	042714	312 00 0 00 070254 		CAME	[-1]		;PASS OF C(AC)=-1,,-1
 22091						STOP^
 22092	042715	254 04 0 00 042716 		HALT	.+1		;TEST FAILED IF PROGRAM HALTS HERE
 22093	042716	324 00 0 00 042717 		JUMPA	.+1		;IF TEST FAILS, CHANGE THIS INSTRUCTION (JUMPA .+1) TO
 22094									;JUMPA X (X IS THE ADDRESS OF THE FIRST INSTRUCTION
 22095									;IN THE SUBTEST) TO LOOP ON ERROR^
 22096
 22097					;*****     FAILURE ANALYSIS     *****
 22098					;C(AC0)		C(AC1)		FAILING SIGNAL
 22099
 22100					;0,,-1				SW: FCE
 22101
 22102					;**********
 22103
 22104					;THIS TEST VERIFIES THAT HLLO PLACES THE LEFT HALF OF C(E) INTO
 22105					;THE LEFT HALF OF THE AC AND PLACES ONES INTO THE RIGHT HALF OF THE AC.
 22106					;IN THIS CASE, C(AC)=0 AND C(E)=0,,-1.  HENCE THE RESULT IN THE AC
 22107					;SHOULD BE 0,,-1.  THE AC IS CHECKED FOR 0,,-1.  IF C(AC)=0,,-1, THIS TEST PASSES.
 22108
 22109	042717	400 00 0 00 000000 	B36200:	SETZ			;PRELOAD AC WITH 0
 22110	042720	520 00 0 00 070330 		HLLO	[XWD 0,-1]	;*HLLO SHOULD PLACE 0,,-1 INTO THE AC
 22111	042721	302 00 0 00 777777 		CAIE	-1		;PASS IF C(AC)=0,,-1
 22112						STOP^
 22113	042722	254 04 0 00 042723 		HALT	.+1		;TEST FAILED IF PROGRAM HALTS HERE
 22114	042723	324 00 0 00 042724 		JUMPA	.+1		;IF TEST FAILS, CHANGE THIS INSTRUCTION (JUMPA .+1) TO
 22115									;JUMPA X (X IS THE ADDRESS OF THE FIRST INSTRUCTION
 22116									;IN THE SUBTEST) TO LOOP ON ERROR^
 22117
 22118					;*****     FAILURE ANALYSIS     *****
 22119					;C(AC0)		C(AC1)		FAILING SIGNAL
 22120
 22121					;-1,,-1				FC: AD LT AR + EN
 22122
 22123					;**********
DFKAA PDP-10 KL10 BASIC INSTRUCTION DIAGNOSTIC (1) VER 0,2	MACRO %52(537) 09:34 31-JAN-77 PAGE 64
DFKAA3	MAC	25-AUG-75 13:57		TEST OF HWT INSTRUCTIONS                                                           SEQ 0491

 22124					;THIS TEST VERIFIES THAT HRRO PLACES THE RIGHT HALF OF C(E) INTO
 22125					;THE RIGHT HALF OF THE AC AND PLACES ONES INTO THE LEFT HALF OF THE AC.
 22126					;IN THIS CASE, AC=E AND C(AC)=C(E)=-1,,-1.  HENCE, THE RESULT IN THE AC
 22127					;SHOULD BE -1,,-1.  THE AC IS CHECKED FOR -1,,-1.  IF C(AC)=-1,,-1, THIS TEST PASSES.
 22128
 22129	042724	474 00 0 00 000000 	B36300:	SETO			;PRELOAD AC,E WITH -1,,-1
 22130	042725	560 00 0 00 000000 		HRRO			;*HRRO SHOULD PLACE -1,,-1 INTO THE AC
 22131	042726	312 00 0 00 070254 		CAME	[-1]		;PASS IF C(AC)=-1,,-1
 22132						STOP^
 22133	042727	254 04 0 00 042730 		HALT	.+1		;TEST FAILED IF PROGRAM HALTS HERE
 22134	042730	324 00 0 00 042731 		JUMPA	.+1		;IF TEST FAILS, CHANGE THIS INSTRUCTION (JUMPA .+1) TO
 22135									;JUMPA X (X IS THE ADDRESS OF THE FIRST INSTRUCTION
 22136									;IN THE SUBTEST) TO LOOP ON ERROR^
 22137
 22138					;*****     FAILURE ANALYSIS     *****
 22139					;C(AC0)		C(AC1)		FAILING SIGNAL
 22140
 22141					;-1,,0				SW: FCE
 22142
 22143					;**********
 22144
 22145					;THIS TEST VERIFIES THAT HRRO PLACES THE RIGHT HALF OF C(E) INTO
 22146					;THE RIGHT HALF OF THE AC AND PLACES ONES INTO THE LEFT HALF OF THE AC.
 22147					;IN THIS CASE, C(AC)=0 AND C(E)=-1,,0.  HENCE, THE RESULT IN THE AC
 22148					;SHOULD BE -1,,0.  THE AC IS CHECKED FOR -1,,0.  IF C(AC)=-1,,0, THIS TEST PASSES.
 22149
 22150	042731	400 00 0 00 000000 	B36400:	SETZ			;PRELOAD AC WITH 0
 22151	042732	560 00 0 00 070331 		HRRO	[XWD -1,0]	;*HRRO SHOULD PLACE -1,,0 INTO THE AC
 22152	042733	312 00 0 00 070331 		CAME	[-1,,0]		;PASS IF C(AC)=-1,,0
 22153						STOP^
 22154	042734	254 04 0 00 042735 		HALT	.+1		;TEST FAILED IF PROGRAM HALTS HERE
 22155	042735	324 00 0 00 042736 		JUMPA	.+1		;IF TEST FAILS, CHANGE THIS INSTRUCTION (JUMPA .+1) TO
 22156									;JUMPA X (X IS THE ADDRESS OF THE FIRST INSTRUCTION
 22157									;IN THE SUBTEST) TO LOOP ON ERROR^
 22158
 22159					;*****     FAILURE ANALYSIS     *****
 22160					;C(AC0)		C(AC1)		FAILING SIGNAL
 22161
 22162					;-1,,-1				FC: AD RT AR + EN
 22163
 22164					;**********
DFKAA PDP-10 KL10 BASIC INSTRUCTION DIAGNOSTIC (1) VER 0,2	MACRO %52(537) 09:34 31-JAN-77 PAGE 65
DFKAA3	MAC	25-AUG-75 13:57		TEST OF HWT INSTRUCTIONS                                                           SEQ 0492

 22165					;THIS TEST VERIFIES THAT HLLO PLACES THE LEFT HALF OF C(E) INTO
 22166					;THE LEFT HALF OF THE AC AND PLACES ONES INTO THE RIGHT HALF OF THE AC.
 22167					;IN THIS CASE, C(AC)=0 AND C(E)=0.  HENCE THE RESULT IN THE AC
 22168					;SHOULD BE 0,,-1.  THE AC IS CHECKED FOR 0,,-1.  IF C(AC)=0,,-1, THIS TEST PASSES.
 22169
 22170	042736	400 00 0 00 000000 	B36500:	SETZ			;PRELOAD AC WITH 0
 22171	042737	520 00 0 00 070253 		HLLO	[0]		;*HLLO SHOULD PLACE 0,,-1 INTO THE AC
 22172	042740	302 00 0 00 777777 		CAIE	-1		;PASS IF C(AC)=0,,-1
 22173						STOP^
 22174	042741	254 04 0 00 042742 		HALT	.+1		;TEST FAILED IF PROGRAM HALTS HERE
 22175	042742	324 00 0 00 042743 		JUMPA	.+1		;IF TEST FAILS, CHANGE THIS INSTRUCTION (JUMPA .+1) TO
 22176									;JUMPA X (X IS THE ADDRESS OF THE FIRST INSTRUCTION
 22177									;IN THE SUBTEST) TO LOOP ON ERROR^
 22178
 22179					;*****     FAILURE ANALYSIS     *****
 22180					;C(AC0)		C(AC1)		FAILING SIGNAL
 22181
 22182					;0				ET2: AR LT AD EN
 22183
 22184					;**********
 22185
 22186					;THIS TEST VERIFIES THAT HRRO PLACES THE RIGHT HALF OF C(E) INTO
 22187					;THE RIGHT HALF OF THE AC AND PLACES ONES INTO THE LEFT HALF OF THE AC.
 22188					;IN THIS CASE, C(AC)=0 AND C(E)=0.  HENCE, THE RESULT IN THE AC
 22189					;SHOULD BE -1,,0.  THE AC IS CHECKED FOR -1,,0.  IF C(AC)=-1,,0, THIS TEST PASSES.
 22190
 22191	042743	400 00 0 00 000000 	B36600:	SETZ			;PRELOAD AC WITH 0
 22192	042744	560 00 0 00 070253 		HRRO	[0]		;*HRRO SHOULD PLACE -1,,0 INTO THE AC
 22193	042745	312 00 0 00 070331 		CAME	[-1,,0]		;PASS IF C(AC)=-1,,0
 22194						STOP^
 22195	042746	254 04 0 00 042747 		HALT	.+1		;TEST FAILED IF PROGRAM HALTS HERE
 22196	042747	324 00 0 00 042750 		JUMPA	.+1		;IF TEST FAILS, CHANGE THIS INSTRUCTION (JUMPA .+1) TO
 22197									;JUMPA X (X IS THE ADDRESS OF THE FIRST INSTRUCTION
 22198									;IN THE SUBTEST) TO LOOP ON ERROR^
 22199
 22200					;*****     FAILURE ANALYSIS     *****
 22201					;C(AC0)		C(AC1)		FAILING SIGNAL
 22202
 22203					;0				ET2: AR AD EN
 22204
 22205					;**********
DFKAA PDP-10 KL10 BASIC INSTRUCTION DIAGNOSTIC (1) VER 0,2	MACRO %52(537) 09:34 31-JAN-77 PAGE 66
DFKAA3	MAC	25-AUG-75 13:57		TEST OF HWT INSTRUCTIONS                                                           SEQ 0493

 22206					;THIS TEST VERIFIES THAT HLLOI ALWAYS PLACES 0,,-1 INTO THE AC.
 22207					;IN THIS CASE, C(AC)=0 AND E=0.
 22208					;THE RESULT IN THE AC SHOULD BE 0,,-1.
 22209					;THE AC IS CHECKED FOR 0,,-1.  IF C(AC)=0,,-1, THIS TEST PASSES
 22210
 22211	042750	400 00 0 00 000000 	B37100:	SETZ			;PRELOAD AC WITH 0
 22212	042751	521 00 0 00 000000 		HLLOI			;*HLLOI SHOULD PLACE 0,,-1 INTO THE AC
 22213	042752	302 00 0 00 777777 		CAIE	-1		;PASS IF C(AC)=0,,-1
 22214						STOP^
 22215	042753	254 04 0 00 042754 		HALT	.+1		;TEST FAILED IF PROGRAM HALTS HERE
 22216	042754	324 00 0 00 042755 		JUMPA	.+1		;IF TEST FAILS, CHANGE THIS INSTRUCTION (JUMPA .+1) TO
 22217									;JUMPA X (X IS THE ADDRESS OF THE FIRST INSTRUCTION
 22218									;IN THE SUBTEST) TO LOOP ON ERROR^
 22219
 22220					;*****     FAILURE ANALYSIS     *****
 22221					;C(AC0)		C(AC1)		FAILING SIGNAL
 22222
 22223					;-1,,-1				FC: AD LT AR + EN
 22224					;0				ET2: AR AD EN
 22225
 22226					;**********
 22227
 22228					;THIS TEST VERIFIES THAT HRROI PLACES E INTO THE RIGHT HALF OF THE AC
 22229					;AND PLACES ONES INTO THE LEFT HALF OF THE AC.
 22230					;IN THIS CASE, C(AC)=0 AND E=0.  HENCE, THE RESULT IN THE AC
 22231					;SHOULD BE -1,,0.  THE AC IS CHECKED FOR -1,,0.  IF C(AC)=-1, THIS TEST PASSES
 22232
 22233	042755	400 00 0 00 000000 	B37200:	SETZ			;PRELOAD AC WITH 0
 22234	042756	561 00 0 00 000000 		HRROI			;*HRROI SHOULD PLACE -1,,0 INTO THE AC
 22235	042757	312 00 0 00 070331 		CAME	[XWD -1,0]	;PASS IF C(AC)=-1,,0
 22236						STOP^
 22237	042760	254 04 0 00 042761 		HALT	.+1		;TEST FAILED IF PROGRAM HALTS HERE
 22238	042761	324 00 0 00 042762 		JUMPA	.+1		;IF TEST FAILS, CHANGE THIS INSTRUCTION (JUMPA .+1) TO
 22239									;JUMPA X (X IS THE ADDRESS OF THE FIRST INSTRUCTION
 22240									;IN THE SUBTEST) TO LOOP ON ERROR^
 22241
 22242					;*****     FAILURE ANALYSIS     *****
 22243					;C(AC0)		C(AC1)		FAILING SIGNAL
 22244
 22245					;-1,,-1				FC: AD RT AR + EN
 22246					;0				ET2: AR AD EN
 22247
 22248					;**********
DFKAA PDP-10 KL10 BASIC INSTRUCTION DIAGNOSTIC (1) VER 0,2	MACRO %52(537) 09:34 31-JAN-77 PAGE 67
DFKAA3	MAC	25-AUG-75 13:57		TEST OF HWT INSTRUCTIONS                                                           SEQ 0494

 22249					;THIS TEST VERIFIES THAT HLLO PLACES THE LEFT HALF OF C(E) INTO
 22250					;THE LEFT HALF OF THE AC AND PLACES ONES INTO THE RIGHT HALF OF THE AC.
 22251					;IN THIS CASE, C(AC)=0 AND C(E)=-1,,0.  HENCE THE RESULT IN THE AC
 22252					;SHOULD BE -1,,-1.  THE AC IS CHECKED FOR -1,,-1.  IF C(AC)=-1,,-1, THIS TEST PASSES.
 22253
 22254	042762	400 00 0 00 000000 	B37300:	SETZ			;PRELOAD AC WITH 0
 22255	042763	520 00 0 00 070331 		HLLO	[XWD -1,0]	;*HLLO SHOULD PLACE -1,,-1 INTO THE AC
 22256	042764	312 00 0 00 070254 		CAME	[-1]		;PASS IF C(AC)=-1,,-1
 22257						STOP^
 22258	042765	254 04 0 00 042766 		HALT	.+1		;TEST FAILED IF PROGRAM HALTS HERE
 22259	042766	324 00 0 00 042767 		JUMPA	.+1		;IF TEST FAILS, CHANGE THIS INSTRUCTION (JUMPA .+1) TO
 22260									;JUMPA X (X IS THE ADDRESS OF THE FIRST INSTRUCTION
 22261									;IN THE SUBTEST) TO LOOP ON ERROR^
 22262
 22263					;**********
 22264
 22265					;THIS TEST VERIFIES THAT HRROI PLACES E INTO THE RIGHT HALF OF THE AC
 22266					;AND PLACES ONES INTO THE LEFT HALF OF THE AC.
 22267					;IN THIS CASE, C(AC)=0 AND E=0,,-1.  HENCE, THE RESULT IN THE AC
 22268					;SHOULD BE -1,,-1.  THE AC IS CHECKED FOR -1,,-1.  IF C(AC)=-1,,-1, THIS TEST PASSES
 22269
 22270	042767	400 00 0 00 000000 	B37400:	SETZ			;PRELOAD AC WITH 0
 22271	042770	561 00 0 00 777777 		HRROI	-1		;*HRRIO SHOULD PLACE -1,,-1 INTO THE AC
 22272	042771	312 00 0 00 070254 		CAME	[-1]		;PASS IF C(AC)=-1,,-1
 22273						STOP^
 22274	042772	254 04 0 00 042773 		HALT	.+1		;TEST FAILED IF PROGRAM HALTS HERE
 22275	042773	324 00 0 00 042774 		JUMPA	.+1		;IF TEST FAILS, CHANGE THIS INSTRUCTION (JUMPA .+1) TO
 22276									;JUMPA X (X IS THE ADDRESS OF THE FIRST INSTRUCTION
 22277									;IN THE SUBTEST) TO LOOP ON ERROR^
 22278
 22279					;**********
DFKAA PDP-10 KL10 BASIC INSTRUCTION DIAGNOSTIC (1) VER 0,2	MACRO %52(537) 09:34 31-JAN-77 PAGE 68
DFKAA3	MAC	25-AUG-75 13:57		TEST OF HWT INSTRUCTIONS                                                           SEQ 0495

 22280					;THIS TEST VERIFIES THAT HLLOI ALWAYS PLACES 0,,-1 INTO THE AC.
 22281					;IN THIS CASE, C(AC)=0 AND E=0.
 22282					;THE RESULT IN THE AC SHOULD BE 0,,-1.
 22283					;THE AC IS CHECKED FOR 0,,-1.  IF C(AC)=0,,-1, THIS TEST PASSES
 22284
 22285	042774	474 00 0 00 000000 	B37500:	SETO			;PRELOAD AC WITH -1,,-1
 22286	042775	521 00 0 00 000000 		HLLOI			;*HLLOI SHOULD PLACE 0,,-1 INTO THE AC
 22287	042776	302 00 0 00 777777 		CAIE	-1		;PASS IF C(AC)=0,,-1
 22288						STOP^
 22289	042777	254 04 0 00 043000 		HALT	.+1		;TEST FAILED IF PROGRAM HALTS HERE
 22290	043000	324 00 0 00 043001 		JUMPA	.+1		;IF TEST FAILS, CHANGE THIS INSTRUCTION (JUMPA .+1) TO
 22291									;JUMPA X (X IS THE ADDRESS OF THE FIRST INSTRUCTION
 22292									;IN THE SUBTEST) TO LOOP ON ERROR^
 22293
 22294					;**********
 22295
 22296					;THIS TEST VERIFIES THAT HRROI PLACES E INTO THE RIGHT HALF OF THE AC
 22297					;AND PLACES ONES INTO THE LEFT HALF OF THE AC.
 22298					;IN THIS CASE, C(AC)=0 AND E=0.  HENCE, THE RESULT IN THE AC
 22299					;SHOULD BE -1,,0.  THE AC IS CHECKED FOR -1,,0.  IF C(AC)=-1,,0, THIS TEST PASSES
 22300
 22301	043001	474 00 0 00 000000 	B37600:	SETO			;PRELOAD AC WITH -1,,-1
 22302	043002	561 00 0 00 000000 		HRROI			;*HRRIO SHOULD PLACE -1,,0 INTO THE AC
 22303	043003	312 00 0 00 070331 		CAME	[XWD -1,0]	;PASS IF C(AC)=-1,,0
 22304						STOP^
 22305	043004	254 04 0 00 043005 		HALT	.+1		;TEST FAILED IF PROGRAM HALTS HERE
 22306	043005	324 00 0 00 043006 		JUMPA	.+1		;IF TEST FAILS, CHANGE THIS INSTRUCTION (JUMPA .+1) TO
 22307									;JUMPA X (X IS THE ADDRESS OF THE FIRST INSTRUCTION
 22308									;IN THE SUBTEST) TO LOOP ON ERROR^
 22309
 22310					;**********
DFKAA PDP-10 KL10 BASIC INSTRUCTION DIAGNOSTIC (1) VER 0,2	MACRO %52(537) 09:34 31-JAN-77 PAGE 69
DFKAA3	MAC	25-AUG-75 13:57		TEST OF HWT INSTRUCTIONS                                                           SEQ 0496

 22311					;THIS TEST VERIFIES THAT HLLO PLACES THE LEFT HALF OF C(E) INTO
 22312					;THE LEFT HALF OF THE AC AND PLACES ONES INTO THE RIGHT HALF OF THE AC.
 22313					;IN THIS CASE, C(AC)=-1,,-1 AND C(E)=-1,,0.  HENCE THE RESULT IN THE AC
 22314					;SHOULD BE -1,,-1.  THE AC IS CHECKED FOR -1,,-1.  IF C(AC)=-1,,-1, THIS TEST PASSES.
 22315
 22316	043006	474 00 0 00 000000 	B37700:	SETO			;PRELOAD AC WITH -1,,-1
 22317	043007	520 00 0 00 070331 		HLLO	[XWD -1,0]	;*HLLO SHOULD PLACE -1,,-1 INTO THE AC
 22318	043010	312 00 0 00 070254 		CAME	[-1]		;PASS IF C(AC)=-1,,-1
 22319						STOP^
 22320	043011	254 04 0 00 043012 		HALT	.+1		;TEST FAILED IF PROGRAM HALTS HERE
 22321	043012	324 00 0 00 043013 		JUMPA	.+1		;IF TEST FAILS, CHANGE THIS INSTRUCTION (JUMPA .+1) TO
 22322									;JUMPA X (X IS THE ADDRESS OF THE FIRST INSTRUCTION
 22323									;IN THE SUBTEST) TO LOOP ON ERROR^
 22324
 22325					;**********
 22326
 22327					;THIS TEST VERIFIES THAT HRROI PLACES E INTO THE RIGHT HALF OF THE AC
 22328					;AND PLACES ONES INTO THE LEFT HALF OF THE AC.
 22329					;IN THIS CASE, C(AC)=-1,,-1 AND E=0,,-1.  HENCE, THE RESULT IN THE AC
 22330					;SHOULD BE -1,,-1.  THE AC IS CHECKED FOR -1,,-1.  IF C(AC)=-1,,-1, THIS TEST PASSES
 22331
 22332	043013	474 00 0 00 000000 	B40000:	SETO			;PRELOAD AC WITH -1,,-1
 22333	043014	561 00 0 00 777777 		HRROI	-1		;*HRRIO SHOULD PLACE -1,,-1 INTO THE AC
 22334	043015	312 00 0 00 070254 		CAME	[-1]		;PASS IF C(AC)=-1,,-1
 22335						STOP^
 22336	043016	254 04 0 00 043017 		HALT	.+1		;TEST FAILED IF PROGRAM HALTS HERE
 22337	043017	324 00 0 00 043020 		JUMPA	.+1		;IF TEST FAILS, CHANGE THIS INSTRUCTION (JUMPA .+1) TO
 22338									;JUMPA X (X IS THE ADDRESS OF THE FIRST INSTRUCTION
 22339									;IN THE SUBTEST) TO LOOP ON ERROR^
 22340
 22341					;**********
DFKAA PDP-10 KL10 BASIC INSTRUCTION DIAGNOSTIC (1) VER 0,2	MACRO %52(537) 09:34 31-JAN-77 PAGE 70
DFKAA3	MAC	25-AUG-75 13:57		TEST OF HWT INSTRUCTIONS                                                           SEQ 0497

 22342					;THIS TEST VERIFIES THAT HRROI PLACES E INTO THE RIGHT HALF OF THE AC
 22343					;AND PLACES ONES INTO THE LEFT HALF OF THE AC.
 22344					;IN THIS CASE, C(AC)=0,,-1 AND E=0.  HENCE, THE RESULT IN THE AC
 22345					;SHOULD BE -1,,0.  THE AC IS CHECKED FOR -1,,0.  IF C(AC)=-1,,0, THIS TEST PASSES
 22346
 22347	043020	201 00 0 00 777777 	B40100:	MOVEI	-1		;PRELOAD AC WITH 0,,-1
 22348	043021	561 00 0 00 000000 		HRROI			;*HRRIO SHOULD PLACE -1,,0 INTO THE AC
 22349	043022	312 00 0 00 070331 		CAME	[XWD -1,0]	;PASS IF C(AC)=-1,,0
 22350						STOP^
 22351	043023	254 04 0 00 043024 		HALT	.+1		;TEST FAILED IF PROGRAM HALTS HERE
 22352	043024	324 00 0 00 043025 		JUMPA	.+1		;IF TEST FAILS, CHANGE THIS INSTRUCTION (JUMPA .+1) TO
 22353									;JUMPA X (X IS THE ADDRESS OF THE FIRST INSTRUCTION
 22354									;IN THE SUBTEST) TO LOOP ON ERROR^
 22355
 22356					;**********
 22357
 22358					;THIS TEST VERIFIES THAT HLLO PLACES THE LEFT HALF OF C(E) INTO
 22359					;THE LEFT HALF OF THE AC AND PLACES ONES INTO THE RIGHT HALF OF THE AC.
 22360					;IN THIS CASE, C(AC)=-1,,0 AND C(E)=0,,-1.  HENCE THE RESULT IN THE AC
 22361					;SHOULD BE 0,,-1.  THE AC IS CHECKED FOR 0,,-1.  IF C(AC)=0,,-1, THIS TEST PASSES.
 22362
 22363	043025	205 00 0 00 777777 	B40200:	MOVSI	-1		;PRELOAD AC WITH -1,,0
 22364	043026	520 00 0 00 070330 		HLLO	[XWD 0,-1]	;*HLLO SHOULD PLACE 0,,-1 INTO THE AC
 22365	043027	302 00 0 00 777777 		CAIE	-1		;PASS IF C(AC)=0,,-1
 22366						STOP^
 22367	043030	254 04 0 00 043031 		HALT	.+1		;TEST FAILED IF PROGRAM HALTS HERE
 22368	043031	324 00 0 00 043032 		JUMPA	.+1		;IF TEST FAILS, CHANGE THIS INSTRUCTION (JUMPA .+1) TO
 22369									;JUMPA X (X IS THE ADDRESS OF THE FIRST INSTRUCTION
 22370									;IN THE SUBTEST) TO LOOP ON ERROR^
 22371
 22372					;**********
DFKAA PDP-10 KL10 BASIC INSTRUCTION DIAGNOSTIC (1) VER 0,2	MACRO %52(537) 09:34 31-JAN-77 PAGE 71
DFKAA3	MAC	25-AUG-75 13:57		TEST OF HWT INSTRUCTIONS                                                           SEQ 0498

 22373					;THIS TEST VERIFIES THAT HRLZ PLACES THE RIGHT HALF OF C(E)
 22374					;INTO THE LEFT HALF OF THE AC.
 22375					;AND PLACES ZEROS INTO THE RIGHT HALF OF THE AC.
 22376					;IN THIS CASE, AC=E AND C(AC)=C(E)=0. HENCE, THE FINAL RESULT IN THE AC
 22377					;SHOULD BE 0.  THE AC IS CHECKED FOR 0.  IF C(AC)=0, THIS TEST PASSES.
 22378
 22379	043032	400 00 0 00 000000 	B40300:	SETZ			;PRELOAD AC WITH 0
 22380	043033	514 00 0 00 000000 		HRLZ			;*HRLZ SHOULD PLACE 0 INTO THE AC
 22381	043034	332 00 0 00 000000 		SKIPE			;PASS IF C(AC)=0
 22382						STOP^
 22383	043035	254 04 0 00 043036 		HALT	.+1		;TEST FAILED IF PROGRAM HALTS HERE
 22384	043036	324 00 0 00 043037 		JUMPA	.+1		;IF TEST FAILS, CHANGE THIS INSTRUCTION (JUMPA .+1) TO
 22385									;JUMPA X (X IS THE ADDRESS OF THE FIRST INSTRUCTION
 22386									;IN THE SUBTEST) TO LOOP ON ERROR^
 22387
 22388					;**********
 22389
 22390					;THIS TEST VERIFIES THAT HLRZ PLACES THE LEFT HALF OF C(E)
 22391					;INTO THE RIGHT HALF OF THE AC
 22392					;AND PLACES ZEROS INTO THE LEFT HALF OF THE AC.
 22393					;IN THIS CASE, AC=E AND C(AC)=C(E)=0.  HENCE, THE RESULT IN THE AC
 22394					;SHOULD BE 0.  THE AC IS CHECKED FOR 0.  IF C(AC)=0, THIS TEST PASSES.
 22395
 22396	043037	400 00 0 00 000000 	B40400:	SETZ			;PRELOAD AC WITH 0
 22397	043040	554 00 0 00 000000 		HLRZ			;*HLRZ SHOULD PLACE 0 INTO THE AC
 22398	043041	332 00 0 00 000000 		SKIPE			;PASS IF C(AC)=0
 22399						STOP^
 22400	043042	254 04 0 00 043043 		HALT	.+1		;TEST FAILED IF PROGRAM HALTS HERE
 22401	043043	324 00 0 00 043044 		JUMPA	.+1		;IF TEST FAILS, CHANGE THIS INSTRUCTION (JUMPA .+1) TO
 22402									;JUMPA X (X IS THE ADDRESS OF THE FIRST INSTRUCTION
 22403									;IN THE SUBTEST) TO LOOP ON ERROR^
 22404
 22405					;**********
DFKAA PDP-10 KL10 BASIC INSTRUCTION DIAGNOSTIC (1) VER 0,2	MACRO %52(537) 09:34 31-JAN-77 PAGE 72
DFKAA3	MAC	25-AUG-75 13:57		TEST OF HWT INSTRUCTIONS                                                           SEQ 0499

 22406					;THIS TEST VERIFIES THAT HRLZI PLACES E INTO THE LEFT HALF OF THE AC
 22407					;AND PLACES ZEROS INTO THE RIGHT HALF OF THE AC.
 22408					;IN THIS CASE, C(AC)=0 AND E=0,,-1.  HENCE THE RESULT IN THE AC
 22409					;SHOULD BE -1,,0.  THE AC IS CHECKED FOR -1,,0
 22410					;IF C(AC)=-1,,0, THIS TEST PASSES.
 22411
 22412	043044	400 00 0 00 000000 	B40700:	SETZ			;PRELOAD AC WITH 0
 22413	043045	515 00 0 00 777777 		HRLZI	-1		;*HRLZI SHOULD PLACE -1,,0 INTO THE AC
 22414	043046	312 00 0 00 070331 		CAME	[XWD -1,0]	;PASS IF C(AC)=-1,,0.
 22415						STOP^
 22416	043047	254 04 0 00 043050 		HALT	.+1		;TEST FAILED IF PROGRAM HALTS HERE
 22417	043050	324 00 0 00 043051 		JUMPA	.+1		;IF TEST FAILS, CHANGE THIS INSTRUCTION (JUMPA .+1) TO
 22418									;JUMPA X (X IS THE ADDRESS OF THE FIRST INSTRUCTION
 22419									;IN THE SUBTEST) TO LOOP ON ERROR^
 22420
 22421					;*****     FAILURE ANALYSIS     *****
 22422					;C(AC0)		C(AC1)		FAILING SIGNAL
 22423
 22424					;0				ET2: AR LT AR RT EN
 22425
 22426					;**********
 22427
 22428					;THIS TEST VERIFIES THAT HLRZ PLACES THE LEFT HALF OF C(E)
 22429					;INTO THE RIGHT HALF OF THE AC
 22430					;AND PLACES ZEROS INTO THE LEFT HALF OF THE AC.
 22431					;IN THIS CASE, C(AC)=0 AND C(E)=-1,,0.  HENCE, THE RESULT IN THE AC
 22432					;SHOULD BE 0,,-1.  THE AC IS CHECKED FOR 0,,-1.  IF C(AC)=0,,-1, THIS TEST PASSES.
 22433
 22434	043051	400 00 0 00 000000 	B41000:	SETZ			;PRELOAD AC WITH 0
 22435	043052	554 00 0 00 070331 		HLRZ	[XWD -1,0]	;*HLRZ SHOULD PLACE 0,,-1 INTO THE AC
 22436	043053	302 00 0 00 777777 		CAIE	-1		;PASS IF C(AC)=0,,-1
 22437						STOP^
 22438	043054	254 04 0 00 043055 		HALT	.+1		;TEST FAILED IF PROGRAM HALTS HERE
 22439	043055	324 00 0 00 043056 		JUMPA	.+1		;IF TEST FAILS, CHANGE THIS INSTRUCTION (JUMPA .+1) TO
 22440									;JUMPA X (X IS THE ADDRESS OF THE FIRST INSTRUCTION
 22441									;IN THE SUBTEST) TO LOOP ON ERROR^
 22442
 22443					;*****     FAILURE ANALYSIS     *****
 22444					;C(AC0)		C(AC1)		FAILING SIGNAL
 22445
 22446					;0				SW: FCE
 22447					;-1,,0				ET2: AR RT AR LT EN
 22448
 22449					;**********
DFKAA PDP-10 KL10 BASIC INSTRUCTION DIAGNOSTIC (1) VER 0,2	MACRO %52(537) 09:34 31-JAN-77 PAGE 73
DFKAA3	MAC	25-AUG-75 13:57		TEST OF HWT INSTRUCTIONS                                                           SEQ 0500

 22450					;THIS TEST VERIFIES THAT HRLZI PLACES E INTO THE LEFT HALF OF THE AC
 22451					;AND PLACES ZEROS INTO THE RIGHT HALF OF THE AC.
 22452					;IN THIS CASE, C(AC)=-1,,-1 AND E=0,,-1.  HENCE THE RESULT IN THE AC
 22453					;SHOULD BE -1,,0.  THE AC IS CHECKED FOR -1,,0.
 22454					;IF C(AC)=-1,,0, THIS TEST PASSES.
 22455
 22456	043056	474 00 0 00 000000 	B41100:	SETO			;PRELOAD AC WITH -1,,-1
 22457	043057	515 00 0 00 777777 		HRLZI	-1		;*HRLZI SHOULD PLACE -1,,0 INTO THE AC
 22458	043060	312 00 0 00 070331 		CAME	[XWD -1,0]	;PASS IF C(AC)=-1,,0.
 22459						STOP^
 22460	043061	254 04 0 00 043062 		HALT	.+1		;TEST FAILED IF PROGRAM HALTS HERE
 22461	043062	324 00 0 00 043063 		JUMPA	.+1		;IF TEST FAILS, CHANGE THIS INSTRUCTION (JUMPA .+1) TO
 22462									;JUMPA X (X IS THE ADDRESS OF THE FIRST INSTRUCTION
 22463									;IN THE SUBTEST) TO LOOP ON ERROR^
 22464
 22465					;**********
 22466
 22467					;THIS TEST VERIFIES THAT HLRZ PLACES THE LEFT HALF OF C(E)
 22468					;INTO THE RIGHT HALF OF THE AC
 22469					;AND PLACES ZEROS INTO THE LEFT HALF OF THE AC.
 22470					;IN THIS CASE, C(AC)=-1,,-1 AND C(E)=-1,,0.  HENCE, THE RESULT IN THE AC
 22471					;SHOULD BE 0,,-1.  THE AC IS CHECKED FOR 0,,-1.  IF C(AC)=0,,-1, THIS TEST PASSES.
 22472
 22473	043063	474 00 0 00 000000 	B41200:	SETO			;PRELOAD AC WITH -1,,-1
 22474	043064	554 00 0 00 070331 		HLRZ	[XWD -1,0]	;*HLRZ SHOULD PLACE 0,,-1 INTO THE AC
 22475	043065	302 00 0 00 777777 		CAIE	-1		;PASS IF C(AC)=0,,-1
 22476						STOP^
 22477	043066	254 04 0 00 043067 		HALT	.+1		;TEST FAILED IF PROGRAM HALTS HERE
 22478	043067	324 00 0 00 043070 		JUMPA	.+1		;IF TEST FAILS, CHANGE THIS INSTRUCTION (JUMPA .+1) TO
 22479									;JUMPA X (X IS THE ADDRESS OF THE FIRST INSTRUCTION
 22480									;IN THE SUBTEST) TO LOOP ON ERROR^
 22481
 22482					;**********
DFKAA PDP-10 KL10 BASIC INSTRUCTION DIAGNOSTIC (1) VER 0,2	MACRO %52(537) 09:34 31-JAN-77 PAGE 74
DFKAA3	MAC	25-AUG-75 13:57		TEST OF HWT INSTRUCTIONS                                                           SEQ 0501

 22483					;THIS TEST VERIFIES THAT HLLE PLACES THE LEFT HALF OF C(E)
 22484					;INTO THE LEFT HALF OF THE AC
 22485					;AND PLACES BIT 0 OF C(E) INTO ALL BITS OF THE RIGHT HALF OF THE AC.
 22486					;IN THIS CASE, AC=E AND C(AC)=C(E)=0.  HENCE, THE RESULT IN THE AC SHOULD BE 0
 22487					;THE AC IS CHECKED FOR 0.  IF C(AC)=0, THIS TEST PASSES
 22488
 22489	043070	400 00 0 00 000000 	B41500:	SETZ			;PRELOAD AC WITH 0
 22490	043071	530 00 0 00 000000 		HLLE			;*HLLE SHOULD PLACE 0 INTO THE AC
 22491	043072	332 00 0 00 000000 		SKIPE			;PASS IF C(AC)=0
 22492						STOP^
 22493	043073	254 04 0 00 043074 		HALT	.+1		;TEST FAILED IF PROGRAM HALTS HERE
 22494	043074	324 00 0 00 043075 		JUMPA	.+1		;IF TEST FAILS, CHANGE THIS INSTRUCTION (JUMPA .+1) TO
 22495									;JUMPA X (X IS THE ADDRESS OF THE FIRST INSTRUCTION
 22496									;IN THE SUBTEST) TO LOOP ON ERROR^
 22497
 22498					;*****     FAILURE ANALYSIS     *****
 22499					;C(AC0)		C(AC1)		FAILING SIGNAL
 22500
 22501					;-1,,0				FC: AD LT AR + EN
 22502
 22503					;**********
 22504
 22505					;THIS TEST VERIFIES THAT HLLE PLACES THE LEFT HALF OF C(E)
 22506					;INTO THE LEFT HALF OF THE AC
 22507					;AND PLACES BIT 0 OF C(E) INTO ALL BITS OF THE RIGHT HALF OF THE AC.
 22508					;IN THIS CASE C(AC)=0 AND C(E)=-1,,-1.  HENCE, THE RESULT IN THE AC SHOULD BE -1,,-1
 22509					;THE AC IS CHECKED FOR -1,,-1.  IF C(AC)=-1,,-1, THIS TEST PASSES
 22510
 22511	043075	400 00 0 00 000000 	B41600:	SETZ			;PRELOAD AC WITH 0
 22512	043076	530 00 0 00 070254 		HLLE	[-1]		;*HLLE SHOULD PLACE -1,,-1 INTO THE AC
 22513	043077	312 00 0 00 070254 		CAME	[XWD -1,-1]	;PASS IF C(AC)=-1,,-1
 22514						STOP^
 22515	043100	254 04 0 00 043101 		HALT	.+1		;TEST FAILED IF PROGRAM HALTS HERE
 22516	043101	324 00 0 00 043102 		JUMPA	.+1		;IF TEST FAILS, CHANGE THIS INSTRUCTION (JUMPA .+1) TO
 22517									;JUMPA X (X IS THE ADDRESS OF THE FIRST INSTRUCTION
 22518									;IN THE SUBTEST) TO LOOP ON ERROR^
 22519
 22520					;*****     FAILURE ANALYSIS     *****
 22521					;C(AC0)		C(AC1)		FAILING SIGNAL
 22522
 22523					;0				SW: FCE
 22524					;-1,,-1				ET2: AR LT AD EN
 22525					;-1,,0				ET2: AR0(1): AR RT AD EN
 22526
 22527					;**********
DFKAA PDP-10 KL10 BASIC INSTRUCTION DIAGNOSTIC (1) VER 0,2	MACRO %52(537) 09:34 31-JAN-77 PAGE 75
DFKAA3	MAC	25-AUG-75 13:57		TEST OF HWT INSTRUCTIONS                                                           SEQ 0502

 22528					;THIS TEST VERIFIES THAT HRRE PLACES THE RIGHT HALF OF C(E)
 22529					;INTO THE RIGHT HALF OF THE AC.
 22530					;AND PLACES BIT 18 OF C(E) INTO ALL BITS OF THE LEFT HALF OF THE AC.
 22531					;IN THIS CASE C(AC)=0 AND C(E)=-1,,-1.  HENCE, THE RESULT IN THE AC SHOULD BE -1,,-1.
 22532					;THE AC IS CHECKED FOR -1,,-1.  IF C(AC)=-1,,-1, THIS TEST PASSES.
 22533
 22534	043102	400 00 0 00 000000 	B42000:	SETZ			;PRELOAD AC WITH 0
 22535	043103	570 00 0 00 070254 		HRRE	[-1]		;*HRRE SHOULD PLACE -1,,-1 INTO THE AC
 22536	043104	312 00 0 00 070254 		CAME	[-1,,-1]	;PASS IF C(AC)=-1,,-1
 22537						STOP^
 22538	043105	254 04 0 00 043106 		HALT	.+1		;TEST FAILED IF PROGRAM HALTS HERE
 22539	043106	324 00 0 00 043107 		JUMPA	.+1		;IF TEST FAILS, CHANGE THIS INSTRUCTION (JUMPA .+1) TO
 22540									;JUMPA X (X IS THE ADDRESS OF THE FIRST INSTRUCTION
 22541									;IN THE SUBTEST) TO LOOP ON ERROR^
 22542
 22543					;**********
 22544
 22545					;THIS TEST VERIFIES THAT HLLE PLACES THE LEFT HALF OF C(E)
 22546					;INTO THE LEFT HALF OF THE AC
 22547					;AND PLACES BIT 0 OF C(E) INTO ALL BITS OF THE RIGHT HALF OF THE AC.
 22548					;IN THIS CASE C(AC)=0 AND C(E)=-1,,0.  HENCE, THE RESULT IN THE AC SHOULD BE -1,,-1
 22549					;THE AC IS CHECKED FOR -1,,-1.  IF C(AC)=-1,,-1, THIS TEST PASSES
 22550
 22551	043107	400 00 0 00 000000 	B42200:	SETZ			;PRELOAD AC WITH 0
 22552	043110	530 00 0 00 070331 		HLLE	[XWD -1,0]	;*HLLE SHOULD PLACE -1,,-1 INTO THE AC
 22553	043111	312 00 0 00 070254 		CAME	[-1]		;PASS IF C(AC)=-1,,-1
 22554						STOP^
 22555	043112	254 04 0 00 043113 		HALT	.+1		;TEST FAILED IF PROGRAM HALTS HERE
 22556	043113	324 00 0 00 043114 		JUMPA	.+1		;IF TEST FAILS, CHANGE THIS INSTRUCTION (JUMPA .+1) TO
 22557									;JUMPA X (X IS THE ADDRESS OF THE FIRST INSTRUCTION
 22558									;IN THE SUBTEST) TO LOOP ON ERROR^
 22559
 22560					;**********
DFKAA PDP-10 KL10 BASIC INSTRUCTION DIAGNOSTIC (1) VER 0,2	MACRO %52(537) 09:34 31-JAN-77 PAGE 76
DFKAA3	MAC	25-AUG-75 13:57		TEST OF HWT INSTRUCTIONS                                                           SEQ 0503

 22561					;THIS TEST VERIFIES THAT HRRE PLACES THE RIGHT HALF OF C(E)
 22562					;INTO THE RIGHT HALF OF THE AC.
 22563					;AND PLACES BIT 18 OF C(E) INTO ALL BITS OF THE LEFT HALF OF THE AC.
 22564					;IN THIS CASE, AC=E AND C(AC)=C(E)=0.  HENCE, THE RESULT IN THE AC SHOULD BE 0.
 22565					;THE AC IS CHECKED FOR 0.  IF C(AC)=0, THIS TEST PASSES.
 22566
 22567	043114	400 00 0 00 000000 	B42300:	SETZ			;PRELOAD AC,E WITH 0
 22568	043115	570 00 0 00 000000 		HRRE			;*HRRE SHOULD PLACE 0 INTO THE AC
 22569	043116	332 00 0 00 000000 		SKIPE			;PASS IF C(AC)=0
 22570						STOP^
 22571	043117	254 04 0 00 043120 		HALT	.+1		;TEST FAILED IF PROGRAM HALTS HERE
 22572	043120	324 00 0 00 043121 		JUMPA	.+1		;IF TEST FAILS, CHANGE THIS INSTRUCTION (JUMPA .+1) TO
 22573									;JUMPA X (X IS THE ADDRESS OF THE FIRST INSTRUCTION
 22574									;IN THE SUBTEST) TO LOOP ON ERROR^
 22575
 22576					;*****     FAILURE ANALYSIS     *****
 22577					;C(AC0)		C(AC1)		FAILING SIGNAL
 22578
 22579					;E				SW: FCE
 22580					;-1,,0				ET2: AR RT AD EN
 22581					;0,,-1				ET2: AR18(1): AR LT AD EN
 22582					;0,,-1				FC: AR RT AR + EN
 22583
 22584					;**********
 22585
 22586					;THIS TEST VERIFIES THAT HRRE PLACES THE RIGHT HALF OF C(E)
 22587					;INTO THE RIGHT HALF OF THE AC.
 22588					;AND PLACES BIT 18 OF C(E) INTO ALL BITS OF THE LEFT HALF OF THE AC.
 22589					;IN THIS CASE C(AC)=0 AND C(E)=-1,,0.  HENCE, THE RESULT IN THE AC SHOULD BE 0.
 22590					;THE AC IS CHECKED FOR 0.  IF C(AC)=0, THIS TEST PASSES.
 22591
 22592	043121	400 00 0 00 000000 	B42500:	SETZ			;PRELOAD AC WITH 0
 22593	043122	570 00 0 00 070331 		HRRE	[XWD -1,0]	;*HRRE SHOULD PLACE 0 INTO THE AC
 22594	043123	332 00 0 00 000000 		SKIPE			;PASS IF C(AC)=0
 22595						STOP^
 22596	043124	254 04 0 00 043125 		HALT	.+1		;TEST FAILED IF PROGRAM HALTS HERE
 22597	043125	324 00 0 00 043126 		JUMPA	.+1		;IF TEST FAILS, CHANGE THIS INSTRUCTION (JUMPA .+1) TO
 22598									;JUMPA X (X IS THE ADDRESS OF THE FIRST INSTRUCTION
 22599									;IN THE SUBTEST) TO LOOP ON ERROR^
 22600
 22601					;**********
DFKAA PDP-10 KL10 BASIC INSTRUCTION DIAGNOSTIC (1) VER 0,2	MACRO %52(537) 09:34 31-JAN-77 PAGE 77
DFKAA3	MAC	25-AUG-75 13:57		TEST OF HWT INSTRUCTIONS                                                           SEQ 0504

 22602					;THIS TEST VERIFIES THAT HRREI PLACES E INTO THE RIGHT HALF OF THE AC
 22603					;AND PLACES THE LEFTMOST BIT OF E INTO ALL BITS OF THE LEFT HALF OF THE AC
 22604					;IN THIS CASE, C(AC)=0 AND E=0,,-1.  HENCE, THE RESULT IN THE AC SHOULD BE -1,,-1.
 22605					;THE AC IS CHECKED FOR -1,,-1.  IF C(AC)=-1,,-1, THIS TEST PASSES.
 22606
 22607	043126	400 00 0 00 000000 	B42700:	SETZ			;PRELOAD AC WITH 0
 22608	043127	571 00 0 00 777777 		HRREI	-1		;*HRREI SHOULD PLACE -1,,-1 INTO THE AC
 22609	043130	312 00 0 00 070254 		CAME	[-1]		;PASS IF C(AC)=-1,,-1
 22610						STOP^
 22611	043131	254 04 0 00 043132 		HALT	.+1		;TEST FAILED IF PROGRAM HALTS HERE
 22612	043132	324 00 0 00 043133 		JUMPA	.+1		;IF TEST FAILS, CHANGE THIS INSTRUCTION (JUMPA .+1) TO
 22613									;JUMPA X (X IS THE ADDRESS OF THE FIRST INSTRUCTION
 22614									;IN THE SUBTEST) TO LOOP ON ERROR^
 22615
 22616					;*****     FAILURE ANALYSIS     *****
 22617					;C(AC0)		C(AC1)		FAILING SIGNAL
 22618
 22619					;-1,,0				ET2: AR RT AD EN
 22620					;0,,-1				ET2: AR18(1): AR LT AD EN
 22621
 22622					;**********
 22623
 22624					;THIS TEST VERIFIES THAT HLLEI ALWAYS CLEARS THE AC.
 22625					;IN THIS CASE, C(AC)=-1,,-1 AND E=0,,-1.
 22626					;THE RESULT IN THE AC SHOULD BE 0
 22627					;THE AC IS CHECKED FOR 0.
 22628					;IF C(AC)=0, THIS TEST PASSES.
 22629
 22630	043133	474 00 0 00 000000 	B43000:	SETO			;PRELOAD AC WITH -1,,-1
 22631	043134	531 00 0 00 777777 		HLLEI	-1		;*HLLEI SHOULD CLEAR THE AC
 22632	043135	332 00 0 00 000000 		SKIPE			;PASS IF C(AC)=0
 22633						STOP^
 22634	043136	254 04 0 00 043137 		HALT	.+1		;TEST FAILED IF PROGRAM HALTS HERE
 22635	043137	324 00 0 00 043140 		JUMPA	.+1		;IF TEST FAILS, CHANGE THIS INSTRUCTION (JUMPA .+1) TO
 22636									;JUMPA X (X IS THE ADDRESS OF THE FIRST INSTRUCTION
 22637									;IN THE SUBTEST) TO LOOP ON ERROR^
 22638
 22639					;*****     FAILURE ANALYSIS     *****
 22640					;C(AC0)		C(AC1)		FAILING SIGNAL
 22641
 22642					;-1,,0				FC: AD LT AR + EN
 22643					;0,,-1				ET2: AR LT AD EN
 22644
 22645					;**********
DFKAA PDP-10 KL10 BASIC INSTRUCTION DIAGNOSTIC (1) VER 0,2	MACRO %52(537) 09:34 31-JAN-77 PAGE 78
DFKAA3	MAC	25-AUG-75 13:57		TEST OF HWT INSTRUCTIONS                                                           SEQ 0505

 22646					;THIS TEST VERIFIES THAT HLLEI ALWAYS CLEARS THE AC.
 22647					;IN THIS CASE, C(AC)=-1,,-1 AND E=0,,400000.
 22648					;THE RESULT IN THE AC SHOULD BE 0
 22649					;THE AC IS CHECKED FOR 0.
 22650					;IF C(AC) = ZERO, THIS TEST PASSES.
 22651
 22652	043140	474 00 0 00 000000 	B43100:	SETO			;PRELOAD AC WITH -1,,-1
 22653	043141	531 00 0 00 400000 		HLLEI	400000		;*HLLEI SHOULD CLEAR THE AC
 22654	043142	332 00 0 00 000000 		SKIPE			;PASS IF C(AC)=0.
 22655						STOP^
 22656	043143	254 04 0 00 043144 		HALT	.+1		;TEST FAILED IF PROGRAM HALTS HERE
 22657	043144	324 00 0 00 043145 		JUMPA	.+1		;IF TEST FAILS, CHANGE THIS INSTRUCTION (JUMPA .+1) TO
 22658									;JUMPA X (X IS THE ADDRESS OF THE FIRST INSTRUCTION
 22659									;IN THE SUBTEST) TO LOOP ON ERROR^
 22660
 22661					;**********
 22662
 22663					;THIS TEST VERIFIES THAT HRLE PLACES THE RIGHT HALF OF C(E)
 22664					;INTO THE LEFT HALF OF THE AC
 22665					;AND PLACES BIT 18 OF C(E) INTO ALL BITS OF THE RIGHT HALF OF THE AC.
 22666					;IN THIS CASE, C(AC)=0 AND C(E)=0.  HENCE, THE RESULT IN THE AC SHOULD BE 0.
 22667					;THE AC IS CHECKED FOR 0,,-1.  IF C(AC)=0,,-1, THIS TEST FAILS
 22668
 22669	043145	400 00 0 00 000000 	B43400:	SETZ			;PRELOAD AC WITH 0
 22670	043146	534 00 0 00 000000 		HRLE			;*HRLE SHOULD PLACE 0 INTO THE AC
 22671	043147	332 00 0 00 000000 		SKIPE			;FAIL IF C(AC)=0,,-1
 22672						STOP^
 22673	043150	254 04 0 00 043151 		HALT	.+1		;TEST FAILED IF PROGRAM HALTS HERE
 22674	043151	324 00 0 00 043152 		JUMPA	.+1		;IF TEST FAILS, CHANGE THIS INSTRUCTION (JUMPA .+1) TO
 22675									;JUMPA X (X IS THE ADDRESS OF THE FIRST INSTRUCTION
 22676									;IN THE SUBTEST) TO LOOP ON ERROR^
 22677
 22678					;**********
DFKAA PDP-10 KL10 BASIC INSTRUCTION DIAGNOSTIC (1) VER 0,2	MACRO %52(537) 09:34 31-JAN-77 PAGE 79
DFKAA3	MAC	25-AUG-75 13:57		TEST OF HWT INSTRUCTIONS                                                           SEQ 0506

 22679					;THIS TEST VERIFIES THAT HRLEI PLACES E INTO THE LEFT HALF OF THE AC
 22680					;AND PLACES THE LEFTMOST BIT OF E INTO ALL BITS OF THE RIGHT HALF OF THE AC
 22681					;IN THIS CASE, C(AC)=0 AND E=0,,-1.  HENCE, THE RESULT IN THE AC SHOULD -1,,-1
 22682					;THE AC IS CHECKED FOR -1,,-1.  IF C(AC)=1,,-1, THIS TEST PASSES.
 22683
 22684	043152	400 00 0 00 000000 	B43500:	SETZ			;PRELOAD AC WITH 0
 22685	043153	535 00 0 00 777777 		HRLEI	-1		;*HRLEI SHOULD PLACE -1,,-1 INTO THE AC
 22686	043154	312 00 0 00 070254 		CAME	[XWD -1,-1]	;PASS IF C(AC)=-1,,-1
 22687						STOP^
 22688	043155	254 04 0 00 043156 		HALT	.+1		;TEST FAILED IF PROGRAM HALTS HERE
 22689	043156	324 00 0 00 043157 		JUMPA	.+1		;IF TEST FAILS, CHANGE THIS INSTRUCTION (JUMPA .+1) TO
 22690									;JUMPA X (X IS THE ADDRESS OF THE FIRST INSTRUCTION
 22691									;IN THE SUBTEST) TO LOOP ON ERROR^
 22692
 22693					;*****     FAILURE ANALYSIS     *****
 22694					;C(AC0)		C(AC1)		FAILING SIGNAL
 22695
 22696					;-1,,0				ET2: AR LT AR RT EN
 22697					;-1,,0				ET2: AR 18(1): AR RT AD EN
 22698
 22699					;**********
 22700
 22701					;THIS TEST VERIFIES THAT HRLE PLACES THE RIGHT HALF OF C(E)
 22702					;INTO THE LEFT HALF OF THE AC
 22703					;AND PLACES BIT 18 OF C(E) INTO ALL BITS OF THE RIGHT HALF OF THE AC.
 22704					;IN THIS CASE, C(AC)=0 AND C(E)=0.  HENCE, THE RESULT IN THE AC SHOULD BE 0.
 22705					;THE AC IS CHECKED FOR 0,,-1.  IF C(AC)=0,,-1, THIS TEST FAILS
 22706
 22707	043157	534 00 0 00 070253 	B43600:	HRLE	[0]		;*HRLE SHOULD PLACE 0 INTO THE AC
 22708	043160	332 00 0 00 000000 		SKIPE			;FAIL IF C(AC)=0,,-1
 22709						STOP^
 22710	043161	254 04 0 00 043162 		HALT	.+1		;TEST FAILED IF PROGRAM HALTS HERE
 22711	043162	324 00 0 00 043163 		JUMPA	.+1		;IF TEST FAILS, CHANGE THIS INSTRUCTION (JUMPA .+1) TO
 22712									;JUMPA X (X IS THE ADDRESS OF THE FIRST INSTRUCTION
 22713									;IN THE SUBTEST) TO LOOP ON ERROR^
 22714
 22715					;*****     FAILURE ANALYSIS     *****
 22716					;C(AC0)		C(AC1)		FAILING SIGNAL
 22717
 22718					;E,,0				SW: FCE
 22719
 22720					;**********
DFKAA PDP-10 KL10 BASIC INSTRUCTION DIAGNOSTIC (1) VER 0,2	MACRO %52(537) 09:34 31-JAN-77 PAGE 80
DFKAA3	MAC	25-AUG-75 13:57		TEST OF HWT INSTRUCTIONS                                                           SEQ 0507

 22721					;THIS TEST VERIFIES THAT HRLE PLACES THE RIGHT HALF OF C(E)
 22722					;INTO THE LEFT HALF OF THE AC
 22723					;AND PLACES BIT 18 OF C(E) INTO ALL BITS OF THE RIGHT HALF OF THE AC.
 22724					;IN THIS CASE, C(AC)=0 AND C(E)=0.  HENCE, THE RESULT IN THE AC SHOULD BE 0.
 22725					;THE AC IS CHECKED FOR 0,,-1.  IF C(AC)=0,,-1, THIS TEST FAILS
 22726
 22727	043163	534 00 0 00 070254 	B43700:	HRLE	[-1]		;PRELOAD AC WITH 0
 22728	043164	312 00 0 00 070254 		CAME	[-1]		;*HRLE SHOULD PLACE 0 INTO THE AC
 22729						STOP			^;FAIL IF C(AC)=0,,-1
 22730
 22731	043165	254 04 0 00 043166 		HALT	.+1		;TEST FAILED IF PROGRAM HALTS HERE
 22732	043166	324 00 0 00 043167 		JUMPA	.+1		;IF TEST FAILS, CHANGE THIS INSTRUCTION (JUMPA .+1) TO
 22733									;JUMPA X (X IS THE ADDRESS OF THE FIRST INSTRUCTION
 22734									;IN THE SUBTEST) TO LOOP ON ERROR
 22735
 22736					;*****     FAILURE ANALYSIS     *****
 22737					;C(AC0)		C(AC1)		FAILING SIGNAL
 22738
 22739					;-1,,0				ET2: AR LT AR RT EN
 22740					;-1,,0				ET2: AR18(1): AR RT AD EN
 22741
 22742					;**********
 22743
 22744					;THIS TEST VERIFIES THAT HRLE PLACES THE RIGHT HALF OF C(E)
 22745					;INTO THE LEFT HALF OF THE AC
 22746					;AND PLACES BIT 18 OF C(E) INTO ALL BITS OF THE RIGHT HALF OF THE AC.
 22747					;IN THIS CASE, C(AC)=0 AND C(E)=0.  HENCE, THE RESULT IN THE AC SHOULD BE 0.
 22748					;THE AC IS CHECKED FOR 0,,-1.  IF C(AC)=0,,-1, THIS TEST FAILS
 22749
 22750	043167	534 00 0 00 070331 	B44000:	HRLE	[XWD -1,0]	;PRELOAD AC WITH 0
 22751	043170	332 00 0 00 000000 		SKIPE			;*HRLE SHOULD PLACE 0 INTO THE AC
 22752						STOP			^;FAIL IF C(AC)=0,,-1
 22753
 22754	043171	254 04 0 00 043172 		HALT	.+1		;TEST FAILED IF PROGRAM HALTS HERE
 22755	043172	324 00 0 00 043173 		JUMPA	.+1		;IF TEST FAILS, CHANGE THIS INSTRUCTION (JUMPA .+1) TO
 22756									;JUMPA X (X IS THE ADDRESS OF THE FIRST INSTRUCTION
 22757									;IN THE SUBTEST) TO LOOP ON ERROR
 22758
 22759					;**********
DFKAA PDP-10 KL10 BASIC INSTRUCTION DIAGNOSTIC (1) VER 0,2	MACRO %52(537) 09:34 31-JAN-77 PAGE 81
DFKAA3	MAC	25-AUG-75 13:57		TEST OF HWT INSTRUCTIONS                                                           SEQ 0508

 22760					;THIS TEST VERIFIES THAT HRLE PLACES THE RIGHT HALF OF C(E)
 22761					;INTO THE LEFT HALF OF THE AC
 22762					;AND PLACES BIT 18 OF C(E) INTO ALL BITS OF THE RIGHT HALF OF THE AC.
 22763					;IN THIS CASE, C(AC)=0 AND C(E)=0.  HENCE, THE RESULT IN THE AC SHOULD BE 0.
 22764					;THE AC IS CHECKED FOR 0,,-1.  IF C(AC)=0,,-1, THIS TEST FAILS
 22765
 22766	043173	534 00 0 00 070330 	B44100:	HRLE	[XWD 0,-1]	;PRELOAD AC WITH 0
 22767	043174	312 00 0 00 070254 		CAME	[-1]		;*HRLE SHOULD PLACE 0 INTO THE AC
 22768						STOP			^;FAIL IF C(AC)=0,,-1
 22769
 22770	043175	254 04 0 00 043176 		HALT	.+1		;TEST FAILED IF PROGRAM HALTS HERE
 22771	043176	324 00 0 00 043177 		JUMPA	.+1		;IF TEST FAILS, CHANGE THIS INSTRUCTION (JUMPA .+1) TO
 22772									;JUMPA X (X IS THE ADDRESS OF THE FIRST INSTRUCTION
 22773									;IN THE SUBTEST) TO LOOP ON ERROR
 22774
 22775					;**********
 22776
 22777					;THIS TEST VERIFIES THAT HLRE PLACES THE LEFT HALF OF C(E)
 22778					;INTO THE RIGHT HALF OF THE AC
 22779					;AND PLACES BIT 0 OF C(E) INTO ALL BITS OF THE LEFT HALF OF THE AC
 22780					;IN THIS CASE, C(AC=0 AND C(E)=0.  HENCE, THE RESULT IN THE AC SHOULD BE 0.
 22781					;THE AC IS CHECKED FOR 0.  IF C(AC)=0, THIS TEST PASSES
 22782
 22783
 22784	043177	400 00 0 00 000000 	B44200:	SETZ			;PRELOAD AC WITH 0
 22785	043200	574 00 0 00 000000 		HLRE			;*HLRE SHOULD PLACE 0 INTO THE AC
 22786	043201	332 00 0 00 000000 		SKIPE			;PASS IF C(AC)=0
 22787						STOP^
 22788	043202	254 04 0 00 043203 		HALT	.+1		;TEST FAILED IF PROGRAM HALTS HERE
 22789	043203	324 00 0 00 043204 		JUMPA	.+1		;IF TEST FAILS, CHANGE THIS INSTRUCTION (JUMPA .+1) TO
 22790									;JUMPA X (X IS THE ADDRESS OF THE FIRST INSTRUCTION
 22791									;IN THE SUBTEST) TO LOOP ON ERROR^
 22792
 22793					;**********
DFKAA PDP-10 KL10 BASIC INSTRUCTION DIAGNOSTIC (1) VER 0,2	MACRO %52(537) 09:34 31-JAN-77 PAGE 82
DFKAA3	MAC	25-AUG-75 13:57		TEST OF HWT INSTRUCTIONS                                                           SEQ 0509

 22794					;THIS TEST VERIFIES THAT HLRE PLACES THE LEFT HALF OF C(E)
 22795					;INTO THE RIGHT HALF OF THE AC
 22796					;AND PLACES BIT 0 OF C(E) INTO ALL BITS OF THE LEFT HALF OF THE AC
 22797					;IN THIS CASE, C(AC=0 AND C(E)=0.  HENCE, THE RESULT IN THE AC SHOULD BE 0.
 22798					;THE AC IS CHECKED FOR 0.  IF C(AC)=0, THIS TEST PASSES
 22799
 22800
 22801	043204	400 00 0 00 000000 	B44300:	SETZ			;PRELOAD AC WITH 0
 22802	043205	574 00 0 00 070254 		HLRE	[-1]		;*HLRE SHOULD PLACE -1,,-1 INTO THE AC
 22803	043206	312 00 0 00 070254 		CAME	[-1]		;PASS IF C(AC)=-1,,-1
 22804						STOP^
 22805	043207	254 04 0 00 043210 		HALT	.+1		;TEST FAILED IF PROGRAM HALTS HERE
 22806	043210	324 00 0 00 043211 		JUMPA	.+1		;IF TEST FAILS, CHANGE THIS INSTRUCTION (JUMPA .+1) TO
 22807									;JUMPA X (X IS THE ADDRESS OF THE FIRST INSTRUCTION
 22808									;IN THE SUBTEST) TO LOOP ON ERROR^
 22809
 22810					;*****     FAILURE ANALYSIS     *****
 22811					;C(AC0)		C(AC1)		FAILING SIGNAL
 22812
 22813					;0				SW: FCE
 22814					;-1,,0				ET2: AR RT AR LT EN
 22815					;0,,-1				ET2: AR0(1): AR LT AD EN
 22816
 22817					;**********
 22818
 22819					;THIS TEST VERIFIES THAT HLREI CLEARS THE AC
 22820					;IN THIS CASE C(AC)=-1,,-1 AND E=0,,-1
 22821					;THE RESULT IN THE AC SHOULD BE 0
 22822					;THE AC IS CHECKED FOR 0.  IF C(AC)=0, THEN TEST PASSES
 22823
 22824	043211	474 00 0 00 000000 	B44500:	SETO			;PRELOAD AC WITH -1,,-1
 22825	043212	575 00 0 00 777777 		HLREI	-1		;*HLREI SHOULD CLEAR THE AC
 22826	043213	332 00 0 00 000000 		SKIPE			;PASS IF C(AC)=0
 22827						STOP^
 22828	043214	254 04 0 00 043215 		HALT	.+1		;TEST FAILED IF PROGRAM HALTS HERE
 22829	043215	324 00 0 00 043216 		JUMPA	.+1		;IF TEST FAILS, CHANGE THIS INSTRUCTION (JUMPA .+1) TO
 22830									;JUMPA X (X IS THE ADDRESS OF THE FIRST INSTRUCTION
 22831									;IN THE SUBTEST) TO LOOP ON ERROR^
 22832
 22833					;*****     FAILURE ANALYSIS     *****
 22834					;C(AC0)		C(AC1)		FAILING SIGNAL
 22835
 22836					;0,,1				ET2: AR RT AR LT EN
 22837
 22838					;**********
DFKAA PDP-10 KL10 BASIC INSTRUCTION DIAGNOSTIC (1) VER 0,2	MACRO %52(537) 09:34 31-JAN-77 PAGE 83
DFKAA3	MAC	25-AUG-75 13:57		TEST OF HWT INSTRUCTIONS                                                           SEQ 0510

 22839					;THIS TEST VERIFIES THAT HLREI CLEARS THE AC
 22840					;IN THIS CASE C(AC)=0 AND E=0
 22841					;THE RESULT IN THE AC SHOULD BE 0
 22842					;THE AC IS CHECKED FOR 0.  IF C(AC)=0, THE TEST PASSES
 22843
 22844	043216	575 00 0 00 000000 	B44600:	HLREI			;*HLREI SHOULD CLEAR THE AC
 22845	043217	332 00 0 00 000000 		SKIPE			;PASS IF C(AC)=0
 22846						STOP^
 22847	043220	254 04 0 00 043221 		HALT	.+1		;TEST FAILED IF PROGRAM HALTS HERE
 22848	043221	324 00 0 00 043222 		JUMPA	.+1		;IF TEST FAILS, CHANGE THIS INSTRUCTION (JUMPA .+1) TO
 22849									;JUMPA X (X IS THE ADDRESS OF THE FIRST INSTRUCTION
 22850									;IN THE SUBTEST) TO LOOP ON ERROR^
 22851
 22852					;**********
 22853
 22854					;THIS TEST VERIFIES THAT HLRE PLACES THE LEFT HALF OF C(E)
 22855					;INTO THE RIGHT HALF OF THE AC
 22856					;AND PLACES BIT 0 OF C(E) INTO ALL BITS OF THE LEFT HALF OF THE AC
 22857					;IN THIS CASE, C(E)=-1,,0.  HENCE, THE RESULT IN THE AC SHOULD BE -1,,-1.
 22858					;THE AC IS CHECKED FOR -1,,-1.  IF C(AC)=-1,,-1, THIS TEST PASSES
 22859
 22860
 22861	043222	574 00 0 00 070331 	B44700:	HLRE	[XWD -1,0]	;*HLRE SHOULD PLACE -1,,0 INTO THE AC
 22862	043223	312 00 0 00 070254 		CAME	[-1]		;PASS IF C(AC)=-1,,-1
 22863						STOP^
 22864	043224	254 04 0 00 043225 		HALT	.+1		;TEST FAILED IF PROGRAM HALTS HERE
 22865	043225	324 00 0 00 043226 		JUMPA	.+1		;IF TEST FAILS, CHANGE THIS INSTRUCTION (JUMPA .+1) TO
 22866									;JUMPA X (X IS THE ADDRESS OF THE FIRST INSTRUCTION
 22867									;IN THE SUBTEST) TO LOOP ON ERROR^
 22868
 22869					;**********
DFKAA PDP-10 KL10 BASIC INSTRUCTION DIAGNOSTIC (1) VER 0,2	MACRO %52(537) 09:34 31-JAN-77 PAGE 84
DFKAA3	MAC	25-AUG-75 13:57		TEST OF HWT INSTRUCTIONS                                                           SEQ 0511

 22870					;THIS TEST VERIFIES THAT HLRE PLACES THE LEFT HALF OF C(E)
 22871					;INTO THE RIGHT HALF OF THE AC
 22872					;AND PLACES BIT 0 OF C(E) INTO ALL BITS OF THE LEFT HALF OF THE AC
 22873					;IN THIS CASE, C(E)=0,,-1.  HENCE, THE RESULT IN THE AC SHOULD BE 0.
 22874					;THE AC IS CHECKED FOR 0.  IF C(AC)=0, THIS TEST PASSES
 22875
 22876	043226	574 00 0 00 070330 	B45000:	HLRE	[XWD 0,-1]	;*HLRE SHOULD PLACE 0,,-1 INTO THE AC
 22877	043227	332 00 0 00 000000 		SKIPE			;PASS IF C(AC)=0
 22878						STOP^
 22879	043230	254 04 0 00 043231 		HALT	.+1		;TEST FAILED IF PROGRAM HALTS HERE
 22880	043231	324 00 0 00 043232 		JUMPA	.+1		;IF TEST FAILS, CHANGE THIS INSTRUCTION (JUMPA .+1) TO
 22881									;JUMPA X (X IS THE ADDRESS OF THE FIRST INSTRUCTION
 22882									;IN THE SUBTEST) TO LOOP ON ERROR^
 22883
 22884					;**********
 22885
 22886					;THIS TEST VERIFIES THAT HLRE PLACES THE LEFT HALF OF C(E)
 22887					;INTO THE RIGHT HALF OF THE AC
 22888					;AND PLACES BIT 0 OF C(E) INTO ALL BITS OF THE LEFT HALF OF THE AC
 22889					;IN THIS CASE, C(E)=-1,,-1.  HENCE, THE RESULT IN THE AC SHOULD BE -1,,-1.
 22890					;THE AC IS CHECKED FOR -1,,-1.  IF C(AC)=-1,,-1, THIS TEST PASSES
 22891
 22892	043232	574 00 0 00 070254 	B45100:	HLRE	[-1]		;*HLRE SHOULD PLACE -1,,-1 INTO THE AC
 22893	043233	312 00 0 00 070254 		CAME	[-1]		;PASS IF C(AC)=-1,,-1
 22894						STOP^
 22895	043234	254 04 0 00 043235 		HALT	.+1		;TEST FAILED IF PROGRAM HALTS HERE
 22896	043235	324 00 0 00 043236 		JUMPA	.+1		;IF TEST FAILS, CHANGE THIS INSTRUCTION (JUMPA .+1) TO
 22897									;JUMPA X (X IS THE ADDRESS OF THE FIRST INSTRUCTION
 22898									;IN THE SUBTEST) TO LOOP ON ERROR^
 22899
 22900					;**********
DFKAA PDP-10 KL10 BASIC INSTRUCTION DIAGNOSTIC (1) VER 0,2	MACRO %52(537) 09:34 31-JAN-77 PAGE 85
DFKAA3	MAC	25-AUG-75 13:57		TEST OF HWT INSTRUCTIONS                                                           SEQ 0512

 22901					;THIS TEST VERIFIES THAT HLREM PLACES THE LEFT HALF OF C(AC)
 22902					;INTO THE RIGHT HALF OF E
 22903					;AND PLACES BIT 0 OF C(AC) INTO ALL BITS OF THE LEFT HALF OF E.
 22904					;IN THIS CASE, C(AC)=1,,0 AND C(E)=0.  HENCE, THE RESULT IN E SHOULD BE -1,,-1.
 22905					;E IS CHECKED FOR -1,,-1.  IF C(E)=-1,,-1, THIS TEST PASSES
 22906
 22907	043236	400 00 0 00 000000 	B45200:	SETZ			;PRELOAD E WITH 0
 22908	043237	200 01 0 00 070331 		MOVE	1,[XWD -1,0]	;PRELOAD AC WITH -1,,0
 22909	043240	576 01 0 00 000000 		HLREM	1,		;*HLREM SHOULD PLACE -1,,-1 INTO E
 22910	043241	312 00 0 00 070254 		CAME	[-1]		;PASS IF C(E)=-1,,-1
 22911						STOP^
 22912	043242	254 04 0 00 043243 		HALT	.+1		;TEST FAILED IF PROGRAM HALTS HERE
 22913	043243	324 00 0 00 043244 		JUMPA	.+1		;IF TEST FAILS, CHANGE THIS INSTRUCTION (JUMPA .+1) TO
 22914									;JUMPA X (X IS THE ADDRESS OF THE FIRST INSTRUCTION
 22915									;IN THE SUBTEST) TO LOOP ON ERROR^
 22916
 22917					;*****     FAILURE ANALYSIS     *****
 22918					;C(AC0)		C(AC1)		FAILING SIGNAL
 22919
 22920					;0		-1,,0		SW: SCE
 22921					;0		-1,,0		SW: ET0
 22922					;0		-1,,0		ET0: AR AD EN
 22923					;-1,,0		-1,,0		ET2: AR RT AR + EN
 22924					;0,,-1		-1,,0		ET2: AR0(1): AR LT AD EN
 22925
 22926					;**********
 22927
 22928					;THIS TEST VERIFIES THAT HRLM PLACES THE RIGHT HALF OF C(AC) INTO THE LEFT HALF OF E.
 22929					;THE RIGHT HALF OF E IS UNAFFECTED
 22930					;IN THIS CASE, C(AC)=0,,-1 AND C(E)=0.  HENCE, THE RESULT IN E SHOULD BE -1,,0.
 22931					;E IS CHECKED FOR -1,,0.  IF C(E)=-1,,0, THIS  TEST PASSES.
 22932
 22933	043244	400 00 0 00 000000 	B45400:	SETZ			;PRELOAD E WITH 0
 22934	043245	201 01 0 00 777777 		MOVEI	1,-1		;PRELOAD AC WITH 0,,-1
 22935	043246	506 01 0 00 000000 		HRLM	1,		;*HRLM SHOULD PLACE -1,,0 INTO E
 22936	043247	312 00 0 00 070331 		CAME	[XWD -1,0]	;PASS IF C(E)=-1,,0
 22937						STOP^
 22938	043250	254 04 0 00 043251 		HALT	.+1		;TEST FAILED IF PROGRAM HALTS HERE
 22939	043251	324 00 0 00 043252 		JUMPA	.+1		;IF TEST FAILS, CHANGE THIS INSTRUCTION (JUMPA .+1) TO
 22940									;JUMPA X (X IS THE ADDRESS OF THE FIRST INSTRUCTION
 22941									;IN THE SUBTEST) TO LOOP ON ERROR^
 22942
 22943					;*****     FAILURE ANALYSIS     *****
 22944					;C(AC0)		C(AC1)		FAILING SIGNAL
 22945
 22946					;0		0,,-1		SW: FCE PSE
 22947					;0,,-1		0,,-1		SW: ET0
 22948					;-1,,-1		0,,-1		ET0: AD RT BR + EN
 22949					;-1,,B45400	0,,-1		ET0: BR AR EN
 22950					;0		0,,-1		ET0: AR AD EN
 22951					;0		0,,-1		ET2: AR LT AR RT EN
 22952
 22953					;**********
DFKAA PDP-10 KL10 BASIC INSTRUCTION DIAGNOSTIC (1) VER 0,2	MACRO %52(537) 09:34 31-JAN-77 PAGE 86
DFKAA3	MAC	25-AUG-75 13:57		SUPPLEMENTARY ADDER TESTS - FLT 1 + 0                                              SEQ 0513

 22954					SUBTTL	SUPPLEMENTARY ADDER TESTS - FLT 1 + 0
 22955
 22956					;**********
 22957
 22958			045500		SN=45500
 22959			000000			XX=0
 22960
 22961					B45500:	REPEAT	^D18,<
 22962					;THIS TEST VERIFIES THAT THE RESULT OF A ZERO ADDED TO A FLOATING ONE
 22963					;IS THE FLOATING ONE.
 22964					;THIS TEST IS REPEATED 36 TIMES TO FLOAT A ONE THRU ALL 36 BITS OF THE ADDER.
 22965					;THIS TEST IS DESIGNED TO TEST THE ADDER AND RELATED DATA PATHS ONLY.
 22966
 22967					SN=SN+1
 22968						XX=XX+XX
 22969						IFE	XX,<XX=1>
 22970						HRRZI	XX		;PRELOAD AC WITH FLOATING ONE
 22971						ADD	[0]		;ADD ZERO TO A FLOATING ONE
 22972						CAME	[XX]		;CHECK ADDER UPON FAILURE
 22973						STOP
 22974
 22975					;**********
 22976					>
 22977
 22978					;THIS TEST VERIFIES THAT THE RESULT OF A ZERO ADDED TO A FLOATING ONE
 22979					;IS THE FLOATING ONE.
 22980					;THIS TEST IS REPEATED 36 TIMES TO FLOAT A ONE THRU ALL 36 BITS OF THE ADDER.
 22981					;THIS TEST IS DESIGNED TO TEST THE ADDER AND RELATED DATA PATHS ONLY.
 22982
 22983			045501		SN=SN+1
 22984			000000			XX=XX+XX
 22985			000001			IFE	XX,<XX=1>
 22986	043252	551 00 0 00 000001 		HRRZI	XX		;PRELOAD AC WITH FLOATING ONE
 22987	043253	270 00 0 00 070253 		ADD	[0]		;ADD ZERO TO A FLOATING ONE
 22988	043254	312 00 0 00 070265 		CAME	[XX]		;CHECK ADDER UPON FAILURE
 22989						STOP^
 22990	043255	254 04 0 00 043256 		HALT	.+1		;TEST FAILED IF PROGRAM HALTS HERE
 22991	043256	324 00 0 00 043257 		JUMPA	.+1		;IF TEST FAILS, CHANGE THIS INSTRUCTION (JUMPA .+1) TO
 22992									;JUMPA X (X IS THE ADDRESS OF THE FIRST INSTRUCTION
 22993									;IN THE SUBTEST) TO LOOP ON ERROR^
 22994
 22995					;**********
 22996
 22997
 22998					;THIS TEST VERIFIES THAT THE RESULT OF A ZERO ADDED TO A FLOATING ONE
 22999					;IS THE FLOATING ONE.
 23000					;THIS TEST IS REPEATED 36 TIMES TO FLOAT A ONE THRU ALL 36 BITS OF THE ADDER.
 23001					;THIS TEST IS DESIGNED TO TEST THE ADDER AND RELATED DATA PATHS ONLY.
 23002
 23003			045502		SN=SN+1
 23004			000002			XX=XX+XX
 23005						IFE	XX,<XX=1>
 23006	043257	551 00 0 00 000002 		HRRZI	XX		;PRELOAD AC WITH FLOATING ONE
 23007	043260	270 00 0 00 070253 		ADD	[0]		;ADD ZERO TO A FLOATING ONE
 23008	043261	312 00 0 00 070266 		CAME	[XX]		;CHECK ADDER UPON FAILURE
DFKAA PDP-10 KL10 BASIC INSTRUCTION DIAGNOSTIC (1) VER 0,2	MACRO %52(537) 09:34 31-JAN-77 PAGE 86-1
DFKAA3	MAC	25-AUG-75 13:57		SUPPLEMENTARY ADDER TESTS - FLT 1 + 0                                              SEQ 0514

 23009						STOP^
 23010	043262	254 04 0 00 043263 		HALT	.+1		;TEST FAILED IF PROGRAM HALTS HERE
 23011	043263	324 00 0 00 043264 		JUMPA	.+1		;IF TEST FAILS, CHANGE THIS INSTRUCTION (JUMPA .+1) TO
 23012									;JUMPA X (X IS THE ADDRESS OF THE FIRST INSTRUCTION
 23013									;IN THE SUBTEST) TO LOOP ON ERROR^
 23014
 23015					;**********
 23016
 23017
 23018					;THIS TEST VERIFIES THAT THE RESULT OF A ZERO ADDED TO A FLOATING ONE
 23019					;IS THE FLOATING ONE.
 23020					;THIS TEST IS REPEATED 36 TIMES TO FLOAT A ONE THRU ALL 36 BITS OF THE ADDER.
 23021					;THIS TEST IS DESIGNED TO TEST THE ADDER AND RELATED DATA PATHS ONLY.
 23022
 23023			045503		SN=SN+1
 23024			000004			XX=XX+XX
 23025						IFE	XX,<XX=1>
 23026	043264	551 00 0 00 000004 		HRRZI	XX		;PRELOAD AC WITH FLOATING ONE
 23027	043265	270 00 0 00 070253 		ADD	[0]		;ADD ZERO TO A FLOATING ONE
 23028	043266	312 00 0 00 070267 		CAME	[XX]		;CHECK ADDER UPON FAILURE
 23029						STOP^
 23030	043267	254 04 0 00 043270 		HALT	.+1		;TEST FAILED IF PROGRAM HALTS HERE
 23031	043270	324 00 0 00 043271 		JUMPA	.+1		;IF TEST FAILS, CHANGE THIS INSTRUCTION (JUMPA .+1) TO
 23032									;JUMPA X (X IS THE ADDRESS OF THE FIRST INSTRUCTION
 23033									;IN THE SUBTEST) TO LOOP ON ERROR^
 23034
 23035					;**********
 23036
 23037
 23038					;THIS TEST VERIFIES THAT THE RESULT OF A ZERO ADDED TO A FLOATING ONE
 23039					;IS THE FLOATING ONE.
 23040					;THIS TEST IS REPEATED 36 TIMES TO FLOAT A ONE THRU ALL 36 BITS OF THE ADDER.
 23041					;THIS TEST IS DESIGNED TO TEST THE ADDER AND RELATED DATA PATHS ONLY.
 23042
 23043			045504		SN=SN+1
 23044			000010			XX=XX+XX
 23045						IFE	XX,<XX=1>
 23046	043271	551 00 0 00 000010 		HRRZI	XX		;PRELOAD AC WITH FLOATING ONE
 23047	043272	270 00 0 00 070253 		ADD	[0]		;ADD ZERO TO A FLOATING ONE
 23048	043273	312 00 0 00 070270 		CAME	[XX]		;CHECK ADDER UPON FAILURE
 23049						STOP^
 23050	043274	254 04 0 00 043275 		HALT	.+1		;TEST FAILED IF PROGRAM HALTS HERE
 23051	043275	324 00 0 00 043276 		JUMPA	.+1		;IF TEST FAILS, CHANGE THIS INSTRUCTION (JUMPA .+1) TO
 23052									;JUMPA X (X IS THE ADDRESS OF THE FIRST INSTRUCTION
 23053									;IN THE SUBTEST) TO LOOP ON ERROR^
 23054
 23055					;**********
 23056
 23057
 23058					;THIS TEST VERIFIES THAT THE RESULT OF A ZERO ADDED TO A FLOATING ONE
 23059					;IS THE FLOATING ONE.
 23060					;THIS TEST IS REPEATED 36 TIMES TO FLOAT A ONE THRU ALL 36 BITS OF THE ADDER.
 23061					;THIS TEST IS DESIGNED TO TEST THE ADDER AND RELATED DATA PATHS ONLY.
 23062
 23063			045505		SN=SN+1
DFKAA PDP-10 KL10 BASIC INSTRUCTION DIAGNOSTIC (1) VER 0,2	MACRO %52(537) 09:34 31-JAN-77 PAGE 86-2
DFKAA3	MAC	25-AUG-75 13:57		SUPPLEMENTARY ADDER TESTS - FLT 1 + 0                                              SEQ 0515

 23064			000020			XX=XX+XX
 23065						IFE	XX,<XX=1>
 23066	043276	551 00 0 00 000020 		HRRZI	XX		;PRELOAD AC WITH FLOATING ONE
 23067	043277	270 00 0 00 070253 		ADD	[0]		;ADD ZERO TO A FLOATING ONE
 23068	043300	312 00 0 00 070271 		CAME	[XX]		;CHECK ADDER UPON FAILURE
 23069						STOP^
 23070	043301	254 04 0 00 043302 		HALT	.+1		;TEST FAILED IF PROGRAM HALTS HERE
 23071	043302	324 00 0 00 043303 		JUMPA	.+1		;IF TEST FAILS, CHANGE THIS INSTRUCTION (JUMPA .+1) TO
 23072									;JUMPA X (X IS THE ADDRESS OF THE FIRST INSTRUCTION
 23073									;IN THE SUBTEST) TO LOOP ON ERROR^
 23074
 23075					;**********
 23076
 23077
 23078					;THIS TEST VERIFIES THAT THE RESULT OF A ZERO ADDED TO A FLOATING ONE
 23079					;IS THE FLOATING ONE.
 23080					;THIS TEST IS REPEATED 36 TIMES TO FLOAT A ONE THRU ALL 36 BITS OF THE ADDER.
 23081					;THIS TEST IS DESIGNED TO TEST THE ADDER AND RELATED DATA PATHS ONLY.
 23082
 23083			045506		SN=SN+1
 23084			000040			XX=XX+XX
 23085						IFE	XX,<XX=1>
 23086	043303	551 00 0 00 000040 		HRRZI	XX		;PRELOAD AC WITH FLOATING ONE
 23087	043304	270 00 0 00 070253 		ADD	[0]		;ADD ZERO TO A FLOATING ONE
 23088	043305	312 00 0 00 070272 		CAME	[XX]		;CHECK ADDER UPON FAILURE
 23089						STOP^
 23090	043306	254 04 0 00 043307 		HALT	.+1		;TEST FAILED IF PROGRAM HALTS HERE
 23091	043307	324 00 0 00 043310 		JUMPA	.+1		;IF TEST FAILS, CHANGE THIS INSTRUCTION (JUMPA .+1) TO
 23092									;JUMPA X (X IS THE ADDRESS OF THE FIRST INSTRUCTION
 23093									;IN THE SUBTEST) TO LOOP ON ERROR^
 23094
 23095					;**********
 23096
 23097
 23098					;THIS TEST VERIFIES THAT THE RESULT OF A ZERO ADDED TO A FLOATING ONE
 23099					;IS THE FLOATING ONE.
 23100					;THIS TEST IS REPEATED 36 TIMES TO FLOAT A ONE THRU ALL 36 BITS OF THE ADDER.
 23101					;THIS TEST IS DESIGNED TO TEST THE ADDER AND RELATED DATA PATHS ONLY.
 23102
 23103			045507		SN=SN+1
 23104			000100			XX=XX+XX
 23105						IFE	XX,<XX=1>
 23106	043310	551 00 0 00 000100 		HRRZI	XX		;PRELOAD AC WITH FLOATING ONE
 23107	043311	270 00 0 00 070253 		ADD	[0]		;ADD ZERO TO A FLOATING ONE
 23108	043312	312 00 0 00 070273 		CAME	[XX]		;CHECK ADDER UPON FAILURE
 23109						STOP^
 23110	043313	254 04 0 00 043314 		HALT	.+1		;TEST FAILED IF PROGRAM HALTS HERE
 23111	043314	324 00 0 00 043315 		JUMPA	.+1		;IF TEST FAILS, CHANGE THIS INSTRUCTION (JUMPA .+1) TO
 23112									;JUMPA X (X IS THE ADDRESS OF THE FIRST INSTRUCTION
 23113									;IN THE SUBTEST) TO LOOP ON ERROR^
 23114
 23115					;**********
 23116
 23117
 23118					;THIS TEST VERIFIES THAT THE RESULT OF A ZERO ADDED TO A FLOATING ONE
DFKAA PDP-10 KL10 BASIC INSTRUCTION DIAGNOSTIC (1) VER 0,2	MACRO %52(537) 09:34 31-JAN-77 PAGE 86-3
DFKAA3	MAC	25-AUG-75 13:57		SUPPLEMENTARY ADDER TESTS - FLT 1 + 0                                              SEQ 0516

 23119					;IS THE FLOATING ONE.
 23120					;THIS TEST IS REPEATED 36 TIMES TO FLOAT A ONE THRU ALL 36 BITS OF THE ADDER.
 23121					;THIS TEST IS DESIGNED TO TEST THE ADDER AND RELATED DATA PATHS ONLY.
 23122
 23123			045510		SN=SN+1
 23124			000200			XX=XX+XX
 23125						IFE	XX,<XX=1>
 23126	043315	551 00 0 00 000200 		HRRZI	XX		;PRELOAD AC WITH FLOATING ONE
 23127	043316	270 00 0 00 070253 		ADD	[0]		;ADD ZERO TO A FLOATING ONE
 23128	043317	312 00 0 00 070274 		CAME	[XX]		;CHECK ADDER UPON FAILURE
 23129						STOP^
 23130	043320	254 04 0 00 043321 		HALT	.+1		;TEST FAILED IF PROGRAM HALTS HERE
 23131	043321	324 00 0 00 043322 		JUMPA	.+1		;IF TEST FAILS, CHANGE THIS INSTRUCTION (JUMPA .+1) TO
 23132									;JUMPA X (X IS THE ADDRESS OF THE FIRST INSTRUCTION
 23133									;IN THE SUBTEST) TO LOOP ON ERROR^
 23134
 23135					;**********
 23136
 23137
 23138					;THIS TEST VERIFIES THAT THE RESULT OF A ZERO ADDED TO A FLOATING ONE
 23139					;IS THE FLOATING ONE.
 23140					;THIS TEST IS REPEATED 36 TIMES TO FLOAT A ONE THRU ALL 36 BITS OF THE ADDER.
 23141					;THIS TEST IS DESIGNED TO TEST THE ADDER AND RELATED DATA PATHS ONLY.
 23142
 23143			045511		SN=SN+1
 23144			000400			XX=XX+XX
 23145						IFE	XX,<XX=1>
 23146	043322	551 00 0 00 000400 		HRRZI	XX		;PRELOAD AC WITH FLOATING ONE
 23147	043323	270 00 0 00 070253 		ADD	[0]		;ADD ZERO TO A FLOATING ONE
 23148	043324	312 00 0 00 070275 		CAME	[XX]		;CHECK ADDER UPON FAILURE
 23149						STOP^
 23150	043325	254 04 0 00 043326 		HALT	.+1		;TEST FAILED IF PROGRAM HALTS HERE
 23151	043326	324 00 0 00 043327 		JUMPA	.+1		;IF TEST FAILS, CHANGE THIS INSTRUCTION (JUMPA .+1) TO
 23152									;JUMPA X (X IS THE ADDRESS OF THE FIRST INSTRUCTION
 23153									;IN THE SUBTEST) TO LOOP ON ERROR^
 23154
 23155					;**********
 23156
 23157
 23158					;THIS TEST VERIFIES THAT THE RESULT OF A ZERO ADDED TO A FLOATING ONE
 23159					;IS THE FLOATING ONE.
 23160					;THIS TEST IS REPEATED 36 TIMES TO FLOAT A ONE THRU ALL 36 BITS OF THE ADDER.
 23161					;THIS TEST IS DESIGNED TO TEST THE ADDER AND RELATED DATA PATHS ONLY.
 23162
 23163			045512		SN=SN+1
 23164			001000			XX=XX+XX
 23165						IFE	XX,<XX=1>
 23166	043327	551 00 0 00 001000 		HRRZI	XX		;PRELOAD AC WITH FLOATING ONE
 23167	043330	270 00 0 00 070253 		ADD	[0]		;ADD ZERO TO A FLOATING ONE
 23168	043331	312 00 0 00 070276 		CAME	[XX]		;CHECK ADDER UPON FAILURE
 23169						STOP^
 23170	043332	254 04 0 00 043333 		HALT	.+1		;TEST FAILED IF PROGRAM HALTS HERE
 23171	043333	324 00 0 00 043334 		JUMPA	.+1		;IF TEST FAILS, CHANGE THIS INSTRUCTION (JUMPA .+1) TO
 23172									;JUMPA X (X IS THE ADDRESS OF THE FIRST INSTRUCTION
 23173									;IN THE SUBTEST) TO LOOP ON ERROR^
DFKAA PDP-10 KL10 BASIC INSTRUCTION DIAGNOSTIC (1) VER 0,2	MACRO %52(537) 09:34 31-JAN-77 PAGE 86-4
DFKAA3	MAC	25-AUG-75 13:57		SUPPLEMENTARY ADDER TESTS - FLT 1 + 0                                              SEQ 0517

 23174
 23175					;**********
 23176
 23177
 23178					;THIS TEST VERIFIES THAT THE RESULT OF A ZERO ADDED TO A FLOATING ONE
 23179					;IS THE FLOATING ONE.
 23180					;THIS TEST IS REPEATED 36 TIMES TO FLOAT A ONE THRU ALL 36 BITS OF THE ADDER.
 23181					;THIS TEST IS DESIGNED TO TEST THE ADDER AND RELATED DATA PATHS ONLY.
 23182
 23183			045513		SN=SN+1
 23184			002000			XX=XX+XX
 23185						IFE	XX,<XX=1>
 23186	043334	551 00 0 00 002000 		HRRZI	XX		;PRELOAD AC WITH FLOATING ONE
 23187	043335	270 00 0 00 070253 		ADD	[0]		;ADD ZERO TO A FLOATING ONE
 23188	043336	312 00 0 00 070277 		CAME	[XX]		;CHECK ADDER UPON FAILURE
 23189						STOP^
 23190	043337	254 04 0 00 043340 		HALT	.+1		;TEST FAILED IF PROGRAM HALTS HERE
 23191	043340	324 00 0 00 043341 		JUMPA	.+1		;IF TEST FAILS, CHANGE THIS INSTRUCTION (JUMPA .+1) TO
 23192									;JUMPA X (X IS THE ADDRESS OF THE FIRST INSTRUCTION
 23193									;IN THE SUBTEST) TO LOOP ON ERROR^
 23194
 23195					;**********
 23196
 23197
 23198					;THIS TEST VERIFIES THAT THE RESULT OF A ZERO ADDED TO A FLOATING ONE
 23199					;IS THE FLOATING ONE.
 23200					;THIS TEST IS REPEATED 36 TIMES TO FLOAT A ONE THRU ALL 36 BITS OF THE ADDER.
 23201					;THIS TEST IS DESIGNED TO TEST THE ADDER AND RELATED DATA PATHS ONLY.
 23202
 23203			045514		SN=SN+1
 23204			004000			XX=XX+XX
 23205						IFE	XX,<XX=1>
 23206	043341	551 00 0 00 004000 		HRRZI	XX		;PRELOAD AC WITH FLOATING ONE
 23207	043342	270 00 0 00 070253 		ADD	[0]		;ADD ZERO TO A FLOATING ONE
 23208	043343	312 00 0 00 070300 		CAME	[XX]		;CHECK ADDER UPON FAILURE
 23209						STOP^
 23210	043344	254 04 0 00 043345 		HALT	.+1		;TEST FAILED IF PROGRAM HALTS HERE
 23211	043345	324 00 0 00 043346 		JUMPA	.+1		;IF TEST FAILS, CHANGE THIS INSTRUCTION (JUMPA .+1) TO
 23212									;JUMPA X (X IS THE ADDRESS OF THE FIRST INSTRUCTION
 23213									;IN THE SUBTEST) TO LOOP ON ERROR^
 23214
 23215					;**********
 23216
 23217
 23218					;THIS TEST VERIFIES THAT THE RESULT OF A ZERO ADDED TO A FLOATING ONE
 23219					;IS THE FLOATING ONE.
 23220					;THIS TEST IS REPEATED 36 TIMES TO FLOAT A ONE THRU ALL 36 BITS OF THE ADDER.
 23221					;THIS TEST IS DESIGNED TO TEST THE ADDER AND RELATED DATA PATHS ONLY.
 23222
 23223			045515		SN=SN+1
 23224			010000			XX=XX+XX
 23225						IFE	XX,<XX=1>
 23226	043346	551 00 0 00 010000 		HRRZI	XX		;PRELOAD AC WITH FLOATING ONE
 23227	043347	270 00 0 00 070253 		ADD	[0]		;ADD ZERO TO A FLOATING ONE
 23228	043350	312 00 0 00 070301 		CAME	[XX]		;CHECK ADDER UPON FAILURE
DFKAA PDP-10 KL10 BASIC INSTRUCTION DIAGNOSTIC (1) VER 0,2	MACRO %52(537) 09:34 31-JAN-77 PAGE 86-5
DFKAA3	MAC	25-AUG-75 13:57		SUPPLEMENTARY ADDER TESTS - FLT 1 + 0                                              SEQ 0518

 23229						STOP^
 23230	043351	254 04 0 00 043352 		HALT	.+1		;TEST FAILED IF PROGRAM HALTS HERE
 23231	043352	324 00 0 00 043353 		JUMPA	.+1		;IF TEST FAILS, CHANGE THIS INSTRUCTION (JUMPA .+1) TO
 23232									;JUMPA X (X IS THE ADDRESS OF THE FIRST INSTRUCTION
 23233									;IN THE SUBTEST) TO LOOP ON ERROR^
 23234
 23235					;**********
 23236
 23237
 23238					;THIS TEST VERIFIES THAT THE RESULT OF A ZERO ADDED TO A FLOATING ONE
 23239					;IS THE FLOATING ONE.
 23240					;THIS TEST IS REPEATED 36 TIMES TO FLOAT A ONE THRU ALL 36 BITS OF THE ADDER.
 23241					;THIS TEST IS DESIGNED TO TEST THE ADDER AND RELATED DATA PATHS ONLY.
 23242
 23243			045516		SN=SN+1
 23244			020000			XX=XX+XX
 23245						IFE	XX,<XX=1>
 23246	043353	551 00 0 00 020000 		HRRZI	XX		;PRELOAD AC WITH FLOATING ONE
 23247	043354	270 00 0 00 070253 		ADD	[0]		;ADD ZERO TO A FLOATING ONE
 23248	043355	312 00 0 00 070302 		CAME	[XX]		;CHECK ADDER UPON FAILURE
 23249						STOP^
 23250	043356	254 04 0 00 043357 		HALT	.+1		;TEST FAILED IF PROGRAM HALTS HERE
 23251	043357	324 00 0 00 043360 		JUMPA	.+1		;IF TEST FAILS, CHANGE THIS INSTRUCTION (JUMPA .+1) TO
 23252									;JUMPA X (X IS THE ADDRESS OF THE FIRST INSTRUCTION
 23253									;IN THE SUBTEST) TO LOOP ON ERROR^
 23254
 23255					;**********
 23256
 23257
 23258					;THIS TEST VERIFIES THAT THE RESULT OF A ZERO ADDED TO A FLOATING ONE
 23259					;IS THE FLOATING ONE.
 23260					;THIS TEST IS REPEATED 36 TIMES TO FLOAT A ONE THRU ALL 36 BITS OF THE ADDER.
 23261					;THIS TEST IS DESIGNED TO TEST THE ADDER AND RELATED DATA PATHS ONLY.
 23262
 23263			045517		SN=SN+1
 23264			040000			XX=XX+XX
 23265						IFE	XX,<XX=1>
 23266	043360	551 00 0 00 040000 		HRRZI	XX		;PRELOAD AC WITH FLOATING ONE
 23267	043361	270 00 0 00 070253 		ADD	[0]		;ADD ZERO TO A FLOATING ONE
 23268	043362	312 00 0 00 070303 		CAME	[XX]		;CHECK ADDER UPON FAILURE
 23269						STOP^
 23270	043363	254 04 0 00 043364 		HALT	.+1		;TEST FAILED IF PROGRAM HALTS HERE
 23271	043364	324 00 0 00 043365 		JUMPA	.+1		;IF TEST FAILS, CHANGE THIS INSTRUCTION (JUMPA .+1) TO
 23272									;JUMPA X (X IS THE ADDRESS OF THE FIRST INSTRUCTION
 23273									;IN THE SUBTEST) TO LOOP ON ERROR^
 23274
 23275					;**********
 23276
 23277
 23278					;THIS TEST VERIFIES THAT THE RESULT OF A ZERO ADDED TO A FLOATING ONE
 23279					;IS THE FLOATING ONE.
 23280					;THIS TEST IS REPEATED 36 TIMES TO FLOAT A ONE THRU ALL 36 BITS OF THE ADDER.
 23281					;THIS TEST IS DESIGNED TO TEST THE ADDER AND RELATED DATA PATHS ONLY.
 23282
 23283			045520		SN=SN+1
DFKAA PDP-10 KL10 BASIC INSTRUCTION DIAGNOSTIC (1) VER 0,2	MACRO %52(537) 09:34 31-JAN-77 PAGE 86-6
DFKAA3	MAC	25-AUG-75 13:57		SUPPLEMENTARY ADDER TESTS - FLT 1 + 0                                              SEQ 0519

 23284			100000			XX=XX+XX
 23285						IFE	XX,<XX=1>
 23286	043365	551 00 0 00 100000 		HRRZI	XX		;PRELOAD AC WITH FLOATING ONE
 23287	043366	270 00 0 00 070253 		ADD	[0]		;ADD ZERO TO A FLOATING ONE
 23288	043367	312 00 0 00 070304 		CAME	[XX]		;CHECK ADDER UPON FAILURE
 23289						STOP^
 23290	043370	254 04 0 00 043371 		HALT	.+1		;TEST FAILED IF PROGRAM HALTS HERE
 23291	043371	324 00 0 00 043372 		JUMPA	.+1		;IF TEST FAILS, CHANGE THIS INSTRUCTION (JUMPA .+1) TO
 23292									;JUMPA X (X IS THE ADDRESS OF THE FIRST INSTRUCTION
 23293									;IN THE SUBTEST) TO LOOP ON ERROR^
 23294
 23295					;**********
 23296
 23297
 23298					;THIS TEST VERIFIES THAT THE RESULT OF A ZERO ADDED TO A FLOATING ONE
 23299					;IS THE FLOATING ONE.
 23300					;THIS TEST IS REPEATED 36 TIMES TO FLOAT A ONE THRU ALL 36 BITS OF THE ADDER.
 23301					;THIS TEST IS DESIGNED TO TEST THE ADDER AND RELATED DATA PATHS ONLY.
 23302
 23303			045521		SN=SN+1
 23304			200000			XX=XX+XX
 23305						IFE	XX,<XX=1>
 23306	043372	551 00 0 00 200000 		HRRZI	XX		;PRELOAD AC WITH FLOATING ONE
 23307	043373	270 00 0 00 070253 		ADD	[0]		;ADD ZERO TO A FLOATING ONE
 23308	043374	312 00 0 00 070305 		CAME	[XX]		;CHECK ADDER UPON FAILURE
 23309						STOP^
 23310	043375	254 04 0 00 043376 		HALT	.+1		;TEST FAILED IF PROGRAM HALTS HERE
 23311	043376	324 00 0 00 043377 		JUMPA	.+1		;IF TEST FAILS, CHANGE THIS INSTRUCTION (JUMPA .+1) TO
 23312									;JUMPA X (X IS THE ADDRESS OF THE FIRST INSTRUCTION
 23313									;IN THE SUBTEST) TO LOOP ON ERROR^
 23314
 23315					;**********
 23316
 23317
 23318					;THIS TEST VERIFIES THAT THE RESULT OF A ZERO ADDED TO A FLOATING ONE
 23319					;IS THE FLOATING ONE.
 23320					;THIS TEST IS REPEATED 36 TIMES TO FLOAT A ONE THRU ALL 36 BITS OF THE ADDER.
 23321					;THIS TEST IS DESIGNED TO TEST THE ADDER AND RELATED DATA PATHS ONLY.
 23322
 23323			045522		SN=SN+1
 23324			400000			XX=XX+XX
 23325						IFE	XX,<XX=1>
 23326	043377	551 00 0 00 400000 		HRRZI	XX		;PRELOAD AC WITH FLOATING ONE
 23327	043400	270 00 0 00 070253 		ADD	[0]		;ADD ZERO TO A FLOATING ONE
 23328	043401	312 00 0 00 070306 		CAME	[XX]		;CHECK ADDER UPON FAILURE
 23329						STOP^
 23330	043402	254 04 0 00 043403 		HALT	.+1		;TEST FAILED IF PROGRAM HALTS HERE
 23331	043403	324 00 0 00 043404 		JUMPA	.+1		;IF TEST FAILS, CHANGE THIS INSTRUCTION (JUMPA .+1) TO
 23332									;JUMPA X (X IS THE ADDRESS OF THE FIRST INSTRUCTION
 23333									;IN THE SUBTEST) TO LOOP ON ERROR^
 23334
 23335					;**********
 23336
 23337					PAGE
DFKAA PDP-10 KL10 BASIC INSTRUCTION DIAGNOSTIC (1) VER 0,2	MACRO %52(537) 09:34 31-JAN-77 PAGE 86-7
DFKAA3	MAC	25-AUG-75 13:57		SUPPLEMENTARY ADDER TESTS - FLT 1 + 0                                              SEQ 0520

 23338			000000			XX=0
 23339
 23340						REPEAT	^D18,<
 23341					;THIS TEST VERIFIES THAT THE RESULT OF A ZERO ADDED TO A FLOATING ONE
 23342					;IS THE FLOATING ONE.
 23343					;THIS TEST IS REPEATED 36 TIMES TO FLOAT A ONE THRU ALL 36 BITS OF THE ADDER.
 23344					;THIS TEST IS DESIGNED TO TEST THE ADDER AND RELATED DATA PATHS ONLY.
 23345
 23346					SN=SN+1
 23347						XX=XX+XX
 23348						IFE	XX,<XX=1>
 23349						HRLZI	XX		;PRELOAD AC WITH FLOATING ONE
 23350						ADD	[0]		;ADD ZERO TO A FLOATING ONE
 23351						CAME	[XX,,0]		;CHECK ADDER UPON FALIRE
 23352						STOP
 23353
 23354					;**********
 23355					>
 23356
 23357					;THIS TEST VERIFIES THAT THE RESULT OF A ZERO ADDED TO A FLOATING ONE
 23358					;IS THE FLOATING ONE.
 23359					;THIS TEST IS REPEATED 36 TIMES TO FLOAT A ONE THRU ALL 36 BITS OF THE ADDER.
 23360					;THIS TEST IS DESIGNED TO TEST THE ADDER AND RELATED DATA PATHS ONLY.
 23361
 23362			045523		SN=SN+1
 23363			000000			XX=XX+XX
 23364			000001			IFE	XX,<XX=1>
 23365	043404	515 00 0 00 000001 		HRLZI	XX		;PRELOAD AC WITH FLOATING ONE
 23366	043405	270 00 0 00 070253 		ADD	[0]		;ADD ZERO TO A FLOATING ONE
 23367	043406	312 00 0 00 070307 		CAME	[XX,,0]		;CHECK ADDER UPON FALIRE
 23368						STOP		^
 23369	043407	254 04 0 00 043410 		HALT	.+1		;TEST FAILED IF PROGRAM HALTS HERE
 23370	043410	324 00 0 00 043411 		JUMPA	.+1		;IF TEST FAILS, CHANGE THIS INSTRUCTION (JUMPA .+1) TO
 23371									;JUMPA X (X IS THE ADDRESS OF THE FIRST INSTRUCTION
 23372									;IN THE SUBTEST) TO LOOP ON ERROR^
 23373
 23374					;**********
 23375
 23376
 23377					;THIS TEST VERIFIES THAT THE RESULT OF A ZERO ADDED TO A FLOATING ONE
 23378					;IS THE FLOATING ONE.
 23379					;THIS TEST IS REPEATED 36 TIMES TO FLOAT A ONE THRU ALL 36 BITS OF THE ADDER.
 23380					;THIS TEST IS DESIGNED TO TEST THE ADDER AND RELATED DATA PATHS ONLY.
 23381
 23382			045524		SN=SN+1
 23383			000002			XX=XX+XX
 23384						IFE	XX,<XX=1>
 23385	043411	515 00 0 00 000002 		HRLZI	XX		;PRELOAD AC WITH FLOATING ONE
 23386	043412	270 00 0 00 070253 		ADD	[0]		;ADD ZERO TO A FLOATING ONE
 23387	043413	312 00 0 00 070310 		CAME	[XX,,0]		;CHECK ADDER UPON FALIRE
 23388						STOP		^
 23389	043414	254 04 0 00 043415 		HALT	.+1		;TEST FAILED IF PROGRAM HALTS HERE
 23390	043415	324 00 0 00 043416 		JUMPA	.+1		;IF TEST FAILS, CHANGE THIS INSTRUCTION (JUMPA .+1) TO
 23391									;JUMPA X (X IS THE ADDRESS OF THE FIRST INSTRUCTION
 23392									;IN THE SUBTEST) TO LOOP ON ERROR^
DFKAA PDP-10 KL10 BASIC INSTRUCTION DIAGNOSTIC (1) VER 0,2	MACRO %52(537) 09:34 31-JAN-77 PAGE 86-8
DFKAA3	MAC	25-AUG-75 13:57		SUPPLEMENTARY ADDER TESTS - FLT 1 + 0                                              SEQ 0521

 23393
 23394					;**********
 23395
 23396
 23397					;THIS TEST VERIFIES THAT THE RESULT OF A ZERO ADDED TO A FLOATING ONE
 23398					;IS THE FLOATING ONE.
 23399					;THIS TEST IS REPEATED 36 TIMES TO FLOAT A ONE THRU ALL 36 BITS OF THE ADDER.
 23400					;THIS TEST IS DESIGNED TO TEST THE ADDER AND RELATED DATA PATHS ONLY.
 23401
 23402			045525		SN=SN+1
 23403			000004			XX=XX+XX
 23404						IFE	XX,<XX=1>
 23405	043416	515 00 0 00 000004 		HRLZI	XX		;PRELOAD AC WITH FLOATING ONE
 23406	043417	270 00 0 00 070253 		ADD	[0]		;ADD ZERO TO A FLOATING ONE
 23407	043420	312 00 0 00 070311 		CAME	[XX,,0]		;CHECK ADDER UPON FALIRE
 23408						STOP		^
 23409	043421	254 04 0 00 043422 		HALT	.+1		;TEST FAILED IF PROGRAM HALTS HERE
 23410	043422	324 00 0 00 043423 		JUMPA	.+1		;IF TEST FAILS, CHANGE THIS INSTRUCTION (JUMPA .+1) TO
 23411									;JUMPA X (X IS THE ADDRESS OF THE FIRST INSTRUCTION
 23412									;IN THE SUBTEST) TO LOOP ON ERROR^
 23413
 23414					;**********
 23415
 23416
 23417					;THIS TEST VERIFIES THAT THE RESULT OF A ZERO ADDED TO A FLOATING ONE
 23418					;IS THE FLOATING ONE.
 23419					;THIS TEST IS REPEATED 36 TIMES TO FLOAT A ONE THRU ALL 36 BITS OF THE ADDER.
 23420					;THIS TEST IS DESIGNED TO TEST THE ADDER AND RELATED DATA PATHS ONLY.
 23421
 23422			045526		SN=SN+1
 23423			000010			XX=XX+XX
 23424						IFE	XX,<XX=1>
 23425	043423	515 00 0 00 000010 		HRLZI	XX		;PRELOAD AC WITH FLOATING ONE
 23426	043424	270 00 0 00 070253 		ADD	[0]		;ADD ZERO TO A FLOATING ONE
 23427	043425	312 00 0 00 070312 		CAME	[XX,,0]		;CHECK ADDER UPON FALIRE
 23428						STOP		^
 23429	043426	254 04 0 00 043427 		HALT	.+1		;TEST FAILED IF PROGRAM HALTS HERE
 23430	043427	324 00 0 00 043430 		JUMPA	.+1		;IF TEST FAILS, CHANGE THIS INSTRUCTION (JUMPA .+1) TO
 23431									;JUMPA X (X IS THE ADDRESS OF THE FIRST INSTRUCTION
 23432									;IN THE SUBTEST) TO LOOP ON ERROR^
 23433
 23434					;**********
 23435
 23436
 23437					;THIS TEST VERIFIES THAT THE RESULT OF A ZERO ADDED TO A FLOATING ONE
 23438					;IS THE FLOATING ONE.
 23439					;THIS TEST IS REPEATED 36 TIMES TO FLOAT A ONE THRU ALL 36 BITS OF THE ADDER.
 23440					;THIS TEST IS DESIGNED TO TEST THE ADDER AND RELATED DATA PATHS ONLY.
 23441
 23442			045527		SN=SN+1
 23443			000020			XX=XX+XX
 23444						IFE	XX,<XX=1>
 23445	043430	515 00 0 00 000020 		HRLZI	XX		;PRELOAD AC WITH FLOATING ONE
 23446	043431	270 00 0 00 070253 		ADD	[0]		;ADD ZERO TO A FLOATING ONE
 23447	043432	312 00 0 00 070313 		CAME	[XX,,0]		;CHECK ADDER UPON FALIRE
DFKAA PDP-10 KL10 BASIC INSTRUCTION DIAGNOSTIC (1) VER 0,2	MACRO %52(537) 09:34 31-JAN-77 PAGE 86-9
DFKAA3	MAC	25-AUG-75 13:57		SUPPLEMENTARY ADDER TESTS - FLT 1 + 0                                              SEQ 0522

 23448						STOP		^
 23449	043433	254 04 0 00 043434 		HALT	.+1		;TEST FAILED IF PROGRAM HALTS HERE
 23450	043434	324 00 0 00 043435 		JUMPA	.+1		;IF TEST FAILS, CHANGE THIS INSTRUCTION (JUMPA .+1) TO
 23451									;JUMPA X (X IS THE ADDRESS OF THE FIRST INSTRUCTION
 23452									;IN THE SUBTEST) TO LOOP ON ERROR^
 23453
 23454					;**********
 23455
 23456
 23457					;THIS TEST VERIFIES THAT THE RESULT OF A ZERO ADDED TO A FLOATING ONE
 23458					;IS THE FLOATING ONE.
 23459					;THIS TEST IS REPEATED 36 TIMES TO FLOAT A ONE THRU ALL 36 BITS OF THE ADDER.
 23460					;THIS TEST IS DESIGNED TO TEST THE ADDER AND RELATED DATA PATHS ONLY.
 23461
 23462			045530		SN=SN+1
 23463			000040			XX=XX+XX
 23464						IFE	XX,<XX=1>
 23465	043435	515 00 0 00 000040 		HRLZI	XX		;PRELOAD AC WITH FLOATING ONE
 23466	043436	270 00 0 00 070253 		ADD	[0]		;ADD ZERO TO A FLOATING ONE
 23467	043437	312 00 0 00 070314 		CAME	[XX,,0]		;CHECK ADDER UPON FALIRE
 23468						STOP		^
 23469	043440	254 04 0 00 043441 		HALT	.+1		;TEST FAILED IF PROGRAM HALTS HERE
 23470	043441	324 00 0 00 043442 		JUMPA	.+1		;IF TEST FAILS, CHANGE THIS INSTRUCTION (JUMPA .+1) TO
 23471									;JUMPA X (X IS THE ADDRESS OF THE FIRST INSTRUCTION
 23472									;IN THE SUBTEST) TO LOOP ON ERROR^
 23473
 23474					;**********
 23475
 23476
 23477					;THIS TEST VERIFIES THAT THE RESULT OF A ZERO ADDED TO A FLOATING ONE
 23478					;IS THE FLOATING ONE.
 23479					;THIS TEST IS REPEATED 36 TIMES TO FLOAT A ONE THRU ALL 36 BITS OF THE ADDER.
 23480					;THIS TEST IS DESIGNED TO TEST THE ADDER AND RELATED DATA PATHS ONLY.
 23481
 23482			045531		SN=SN+1
 23483			000100			XX=XX+XX
 23484						IFE	XX,<XX=1>
 23485	043442	515 00 0 00 000100 		HRLZI	XX		;PRELOAD AC WITH FLOATING ONE
 23486	043443	270 00 0 00 070253 		ADD	[0]		;ADD ZERO TO A FLOATING ONE
 23487	043444	312 00 0 00 070315 		CAME	[XX,,0]		;CHECK ADDER UPON FALIRE
 23488						STOP		^
 23489	043445	254 04 0 00 043446 		HALT	.+1		;TEST FAILED IF PROGRAM HALTS HERE
 23490	043446	324 00 0 00 043447 		JUMPA	.+1		;IF TEST FAILS, CHANGE THIS INSTRUCTION (JUMPA .+1) TO
 23491									;JUMPA X (X IS THE ADDRESS OF THE FIRST INSTRUCTION
 23492									;IN THE SUBTEST) TO LOOP ON ERROR^
 23493
 23494					;**********
 23495
 23496
 23497					;THIS TEST VERIFIES THAT THE RESULT OF A ZERO ADDED TO A FLOATING ONE
 23498					;IS THE FLOATING ONE.
 23499					;THIS TEST IS REPEATED 36 TIMES TO FLOAT A ONE THRU ALL 36 BITS OF THE ADDER.
 23500					;THIS TEST IS DESIGNED TO TEST THE ADDER AND RELATED DATA PATHS ONLY.
 23501
 23502			045532		SN=SN+1
DFKAA PDP-10 KL10 BASIC INSTRUCTION DIAGNOSTIC (1) VER 0,2	MACRO %52(537) 09:34 31-JAN-77 PAGE 86-10
DFKAA3	MAC	25-AUG-75 13:57		SUPPLEMENTARY ADDER TESTS - FLT 1 + 0                                              SEQ 0523

 23503			000200			XX=XX+XX
 23504						IFE	XX,<XX=1>
 23505	043447	515 00 0 00 000200 		HRLZI	XX		;PRELOAD AC WITH FLOATING ONE
 23506	043450	270 00 0 00 070253 		ADD	[0]		;ADD ZERO TO A FLOATING ONE
 23507	043451	312 00 0 00 070316 		CAME	[XX,,0]		;CHECK ADDER UPON FALIRE
 23508						STOP		^
 23509	043452	254 04 0 00 043453 		HALT	.+1		;TEST FAILED IF PROGRAM HALTS HERE
 23510	043453	324 00 0 00 043454 		JUMPA	.+1		;IF TEST FAILS, CHANGE THIS INSTRUCTION (JUMPA .+1) TO
 23511									;JUMPA X (X IS THE ADDRESS OF THE FIRST INSTRUCTION
 23512									;IN THE SUBTEST) TO LOOP ON ERROR^
 23513
 23514					;**********
 23515
 23516
 23517					;THIS TEST VERIFIES THAT THE RESULT OF A ZERO ADDED TO A FLOATING ONE
 23518					;IS THE FLOATING ONE.
 23519					;THIS TEST IS REPEATED 36 TIMES TO FLOAT A ONE THRU ALL 36 BITS OF THE ADDER.
 23520					;THIS TEST IS DESIGNED TO TEST THE ADDER AND RELATED DATA PATHS ONLY.
 23521
 23522			045533		SN=SN+1
 23523			000400			XX=XX+XX
 23524						IFE	XX,<XX=1>
 23525	043454	515 00 0 00 000400 		HRLZI	XX		;PRELOAD AC WITH FLOATING ONE
 23526	043455	270 00 0 00 070253 		ADD	[0]		;ADD ZERO TO A FLOATING ONE
 23527	043456	312 00 0 00 070264 		CAME	[XX,,0]		;CHECK ADDER UPON FALIRE
 23528						STOP		^
 23529	043457	254 04 0 00 043460 		HALT	.+1		;TEST FAILED IF PROGRAM HALTS HERE
 23530	043460	324 00 0 00 043461 		JUMPA	.+1		;IF TEST FAILS, CHANGE THIS INSTRUCTION (JUMPA .+1) TO
 23531									;JUMPA X (X IS THE ADDRESS OF THE FIRST INSTRUCTION
 23532									;IN THE SUBTEST) TO LOOP ON ERROR^
 23533
 23534					;**********
 23535
 23536
 23537					;THIS TEST VERIFIES THAT THE RESULT OF A ZERO ADDED TO A FLOATING ONE
 23538					;IS THE FLOATING ONE.
 23539					;THIS TEST IS REPEATED 36 TIMES TO FLOAT A ONE THRU ALL 36 BITS OF THE ADDER.
 23540					;THIS TEST IS DESIGNED TO TEST THE ADDER AND RELATED DATA PATHS ONLY.
 23541
 23542			045534		SN=SN+1
 23543			001000			XX=XX+XX
 23544						IFE	XX,<XX=1>
 23545	043461	515 00 0 00 001000 		HRLZI	XX		;PRELOAD AC WITH FLOATING ONE
 23546	043462	270 00 0 00 070253 		ADD	[0]		;ADD ZERO TO A FLOATING ONE
 23547	043463	312 00 0 00 070317 		CAME	[XX,,0]		;CHECK ADDER UPON FALIRE
 23548						STOP		^
 23549	043464	254 04 0 00 043465 		HALT	.+1		;TEST FAILED IF PROGRAM HALTS HERE
 23550	043465	324 00 0 00 043466 		JUMPA	.+1		;IF TEST FAILS, CHANGE THIS INSTRUCTION (JUMPA .+1) TO
 23551									;JUMPA X (X IS THE ADDRESS OF THE FIRST INSTRUCTION
 23552									;IN THE SUBTEST) TO LOOP ON ERROR^
 23553
 23554					;**********
 23555
 23556
 23557					;THIS TEST VERIFIES THAT THE RESULT OF A ZERO ADDED TO A FLOATING ONE
DFKAA PDP-10 KL10 BASIC INSTRUCTION DIAGNOSTIC (1) VER 0,2	MACRO %52(537) 09:34 31-JAN-77 PAGE 86-11
DFKAA3	MAC	25-AUG-75 13:57		SUPPLEMENTARY ADDER TESTS - FLT 1 + 0                                              SEQ 0524

 23558					;IS THE FLOATING ONE.
 23559					;THIS TEST IS REPEATED 36 TIMES TO FLOAT A ONE THRU ALL 36 BITS OF THE ADDER.
 23560					;THIS TEST IS DESIGNED TO TEST THE ADDER AND RELATED DATA PATHS ONLY.
 23561
 23562			045535		SN=SN+1
 23563			002000			XX=XX+XX
 23564						IFE	XX,<XX=1>
 23565	043466	515 00 0 00 002000 		HRLZI	XX		;PRELOAD AC WITH FLOATING ONE
 23566	043467	270 00 0 00 070253 		ADD	[0]		;ADD ZERO TO A FLOATING ONE
 23567	043470	312 00 0 00 070320 		CAME	[XX,,0]		;CHECK ADDER UPON FALIRE
 23568						STOP		^
 23569	043471	254 04 0 00 043472 		HALT	.+1		;TEST FAILED IF PROGRAM HALTS HERE
 23570	043472	324 00 0 00 043473 		JUMPA	.+1		;IF TEST FAILS, CHANGE THIS INSTRUCTION (JUMPA .+1) TO
 23571									;JUMPA X (X IS THE ADDRESS OF THE FIRST INSTRUCTION
 23572									;IN THE SUBTEST) TO LOOP ON ERROR^
 23573
 23574					;**********
 23575
 23576
 23577					;THIS TEST VERIFIES THAT THE RESULT OF A ZERO ADDED TO A FLOATING ONE
 23578					;IS THE FLOATING ONE.
 23579					;THIS TEST IS REPEATED 36 TIMES TO FLOAT A ONE THRU ALL 36 BITS OF THE ADDER.
 23580					;THIS TEST IS DESIGNED TO TEST THE ADDER AND RELATED DATA PATHS ONLY.
 23581
 23582			045536		SN=SN+1
 23583			004000			XX=XX+XX
 23584						IFE	XX,<XX=1>
 23585	043473	515 00 0 00 004000 		HRLZI	XX		;PRELOAD AC WITH FLOATING ONE
 23586	043474	270 00 0 00 070253 		ADD	[0]		;ADD ZERO TO A FLOATING ONE
 23587	043475	312 00 0 00 070321 		CAME	[XX,,0]		;CHECK ADDER UPON FALIRE
 23588						STOP		^
 23589	043476	254 04 0 00 043477 		HALT	.+1		;TEST FAILED IF PROGRAM HALTS HERE
 23590	043477	324 00 0 00 043500 		JUMPA	.+1		;IF TEST FAILS, CHANGE THIS INSTRUCTION (JUMPA .+1) TO
 23591									;JUMPA X (X IS THE ADDRESS OF THE FIRST INSTRUCTION
 23592									;IN THE SUBTEST) TO LOOP ON ERROR^
 23593
 23594					;**********
 23595
 23596
 23597					;THIS TEST VERIFIES THAT THE RESULT OF A ZERO ADDED TO A FLOATING ONE
 23598					;IS THE FLOATING ONE.
 23599					;THIS TEST IS REPEATED 36 TIMES TO FLOAT A ONE THRU ALL 36 BITS OF THE ADDER.
 23600					;THIS TEST IS DESIGNED TO TEST THE ADDER AND RELATED DATA PATHS ONLY.
 23601
 23602			045537		SN=SN+1
 23603			010000			XX=XX+XX
 23604						IFE	XX,<XX=1>
 23605	043500	515 00 0 00 010000 		HRLZI	XX		;PRELOAD AC WITH FLOATING ONE
 23606	043501	270 00 0 00 070253 		ADD	[0]		;ADD ZERO TO A FLOATING ONE
 23607	043502	312 00 0 00 070322 		CAME	[XX,,0]		;CHECK ADDER UPON FALIRE
 23608						STOP		^
 23609	043503	254 04 0 00 043504 		HALT	.+1		;TEST FAILED IF PROGRAM HALTS HERE
 23610	043504	324 00 0 00 043505 		JUMPA	.+1		;IF TEST FAILS, CHANGE THIS INSTRUCTION (JUMPA .+1) TO
 23611									;JUMPA X (X IS THE ADDRESS OF THE FIRST INSTRUCTION
 23612									;IN THE SUBTEST) TO LOOP ON ERROR^
DFKAA PDP-10 KL10 BASIC INSTRUCTION DIAGNOSTIC (1) VER 0,2	MACRO %52(537) 09:34 31-JAN-77 PAGE 86-12
DFKAA3	MAC	25-AUG-75 13:57		SUPPLEMENTARY ADDER TESTS - FLT 1 + 0                                              SEQ 0525

 23613
 23614					;**********
 23615
 23616
 23617					;THIS TEST VERIFIES THAT THE RESULT OF A ZERO ADDED TO A FLOATING ONE
 23618					;IS THE FLOATING ONE.
 23619					;THIS TEST IS REPEATED 36 TIMES TO FLOAT A ONE THRU ALL 36 BITS OF THE ADDER.
 23620					;THIS TEST IS DESIGNED TO TEST THE ADDER AND RELATED DATA PATHS ONLY.
 23621
 23622			045540		SN=SN+1
 23623			020000			XX=XX+XX
 23624						IFE	XX,<XX=1>
 23625	043505	515 00 0 00 020000 		HRLZI	XX		;PRELOAD AC WITH FLOATING ONE
 23626	043506	270 00 0 00 070253 		ADD	[0]		;ADD ZERO TO A FLOATING ONE
 23627	043507	312 00 0 00 070323 		CAME	[XX,,0]		;CHECK ADDER UPON FALIRE
 23628						STOP		^
 23629	043510	254 04 0 00 043511 		HALT	.+1		;TEST FAILED IF PROGRAM HALTS HERE
 23630	043511	324 00 0 00 043512 		JUMPA	.+1		;IF TEST FAILS, CHANGE THIS INSTRUCTION (JUMPA .+1) TO
 23631									;JUMPA X (X IS THE ADDRESS OF THE FIRST INSTRUCTION
 23632									;IN THE SUBTEST) TO LOOP ON ERROR^
 23633
 23634					;**********
 23635
 23636
 23637					;THIS TEST VERIFIES THAT THE RESULT OF A ZERO ADDED TO A FLOATING ONE
 23638					;IS THE FLOATING ONE.
 23639					;THIS TEST IS REPEATED 36 TIMES TO FLOAT A ONE THRU ALL 36 BITS OF THE ADDER.
 23640					;THIS TEST IS DESIGNED TO TEST THE ADDER AND RELATED DATA PATHS ONLY.
 23641
 23642			045541		SN=SN+1
 23643			040000			XX=XX+XX
 23644						IFE	XX,<XX=1>
 23645	043512	515 00 0 00 040000 		HRLZI	XX		;PRELOAD AC WITH FLOATING ONE
 23646	043513	270 00 0 00 070253 		ADD	[0]		;ADD ZERO TO A FLOATING ONE
 23647	043514	312 00 0 00 070324 		CAME	[XX,,0]		;CHECK ADDER UPON FALIRE
 23648						STOP		^
 23649	043515	254 04 0 00 043516 		HALT	.+1		;TEST FAILED IF PROGRAM HALTS HERE
 23650	043516	324 00 0 00 043517 		JUMPA	.+1		;IF TEST FAILS, CHANGE THIS INSTRUCTION (JUMPA .+1) TO
 23651									;JUMPA X (X IS THE ADDRESS OF THE FIRST INSTRUCTION
 23652									;IN THE SUBTEST) TO LOOP ON ERROR^
 23653
 23654					;**********
 23655
 23656
 23657					;THIS TEST VERIFIES THAT THE RESULT OF A ZERO ADDED TO A FLOATING ONE
 23658					;IS THE FLOATING ONE.
 23659					;THIS TEST IS REPEATED 36 TIMES TO FLOAT A ONE THRU ALL 36 BITS OF THE ADDER.
 23660					;THIS TEST IS DESIGNED TO TEST THE ADDER AND RELATED DATA PATHS ONLY.
 23661
 23662			045542		SN=SN+1
 23663			100000			XX=XX+XX
 23664						IFE	XX,<XX=1>
 23665	043517	515 00 0 00 100000 		HRLZI	XX		;PRELOAD AC WITH FLOATING ONE
 23666	043520	270 00 0 00 070253 		ADD	[0]		;ADD ZERO TO A FLOATING ONE
 23667	043521	312 00 0 00 070325 		CAME	[XX,,0]		;CHECK ADDER UPON FALIRE
DFKAA PDP-10 KL10 BASIC INSTRUCTION DIAGNOSTIC (1) VER 0,2	MACRO %52(537) 09:34 31-JAN-77 PAGE 86-13
DFKAA3	MAC	25-AUG-75 13:57		SUPPLEMENTARY ADDER TESTS - FLT 1 + 0                                              SEQ 0526

 23668						STOP		^
 23669	043522	254 04 0 00 043523 		HALT	.+1		;TEST FAILED IF PROGRAM HALTS HERE
 23670	043523	324 00 0 00 043524 		JUMPA	.+1		;IF TEST FAILS, CHANGE THIS INSTRUCTION (JUMPA .+1) TO
 23671									;JUMPA X (X IS THE ADDRESS OF THE FIRST INSTRUCTION
 23672									;IN THE SUBTEST) TO LOOP ON ERROR^
 23673
 23674					;**********
 23675
 23676
 23677					;THIS TEST VERIFIES THAT THE RESULT OF A ZERO ADDED TO A FLOATING ONE
 23678					;IS THE FLOATING ONE.
 23679					;THIS TEST IS REPEATED 36 TIMES TO FLOAT A ONE THRU ALL 36 BITS OF THE ADDER.
 23680					;THIS TEST IS DESIGNED TO TEST THE ADDER AND RELATED DATA PATHS ONLY.
 23681
 23682			045543		SN=SN+1
 23683			200000			XX=XX+XX
 23684						IFE	XX,<XX=1>
 23685	043524	515 00 0 00 200000 		HRLZI	XX		;PRELOAD AC WITH FLOATING ONE
 23686	043525	270 00 0 00 070253 		ADD	[0]		;ADD ZERO TO A FLOATING ONE
 23687	043526	312 00 0 00 070326 		CAME	[XX,,0]		;CHECK ADDER UPON FALIRE
 23688						STOP		^
 23689	043527	254 04 0 00 043530 		HALT	.+1		;TEST FAILED IF PROGRAM HALTS HERE
 23690	043530	324 00 0 00 043531 		JUMPA	.+1		;IF TEST FAILS, CHANGE THIS INSTRUCTION (JUMPA .+1) TO
 23691									;JUMPA X (X IS THE ADDRESS OF THE FIRST INSTRUCTION
 23692									;IN THE SUBTEST) TO LOOP ON ERROR^
 23693
 23694					;**********
 23695
 23696
 23697					;THIS TEST VERIFIES THAT THE RESULT OF A ZERO ADDED TO A FLOATING ONE
 23698					;IS THE FLOATING ONE.
 23699					;THIS TEST IS REPEATED 36 TIMES TO FLOAT A ONE THRU ALL 36 BITS OF THE ADDER.
 23700					;THIS TEST IS DESIGNED TO TEST THE ADDER AND RELATED DATA PATHS ONLY.
 23701
 23702			045544		SN=SN+1
 23703			400000			XX=XX+XX
 23704						IFE	XX,<XX=1>
 23705	043531	515 00 0 00 400000 		HRLZI	XX		;PRELOAD AC WITH FLOATING ONE
 23706	043532	270 00 0 00 070253 		ADD	[0]		;ADD ZERO TO A FLOATING ONE
 23707	043533	312 00 0 00 070256 		CAME	[XX,,0]		;CHECK ADDER UPON FALIRE
 23708						STOP		^
 23709	043534	254 04 0 00 043535 		HALT	.+1		;TEST FAILED IF PROGRAM HALTS HERE
 23710	043535	324 00 0 00 043536 		JUMPA	.+1		;IF TEST FAILS, CHANGE THIS INSTRUCTION (JUMPA .+1) TO
 23711									;JUMPA X (X IS THE ADDRESS OF THE FIRST INSTRUCTION
 23712									;IN THE SUBTEST) TO LOOP ON ERROR^
 23713
 23714					;**********
 23715
DFKAA PDP-10 KL10 BASIC INSTRUCTION DIAGNOSTIC (1) VER 0,2	MACRO %52(537) 09:34 31-JAN-77 PAGE 87
DFKAA3	MAC	25-AUG-75 13:57		SUPPLEMENTARY ADDER TESTS - O + FLT 0                                              SEQ 0527

 23716					SUBTTL	SUPPLEMENTARY ADDER TESTS - O + FLT 0
 23717
 23718					;**********
 23719
 23720			045600		SN=45600
 23721					B45600:	REPEAT	^D18,<
 23722					;THIS TEST VERIFIES THAT THE RESULT OF A FLOATING ZERO ADDED TO A ZERO
 23723					;IS THE FLOATING ZERO.
 23724					;THIS TEST IS REPEATED 36 TIMES TO FLOAT A ZERO THRU ALL 36 BITS OF THE ADDER.
 23725					;THIS TEST IS DESIGNED TO TEST THE ADDER AND RELATED DATA PATHS ONLY.
 23726
 23727					SN=SN+1
 23728						XX=<XX+XX+1>&777777
 23729						IFE	<XX-1>,<XX=777776>
 23730						SETZ			;PRELOAD AC WITH 0
 23731						ADD	[-1,,XX]	;ADD A FLOATING ZERO TO ZERO
 23732						CAME	[-1,,XX]	;CHECK ADDER UPON FAILURE
 23733						STOP
 23734
 23735					;**********
 23736					>
 23737
 23738					;THIS TEST VERIFIES THAT THE RESULT OF A FLOATING ZERO ADDED TO A ZERO
 23739					;IS THE FLOATING ZERO.
 23740					;THIS TEST IS REPEATED 36 TIMES TO FLOAT A ZERO THRU ALL 36 BITS OF THE ADDER.
 23741					;THIS TEST IS DESIGNED TO TEST THE ADDER AND RELATED DATA PATHS ONLY.
 23742
 23743			045601		SN=SN+1
 23744			000001			XX=<XX+XX+1>&777777
 23745			777776			IFE	<XX-1>,<XX=777776>
 23746	043536	400 00 0 00 000000 		SETZ			;PRELOAD AC WITH 0
 23747	043537	270 00 0 00 070333 		ADD	[-1,,XX]	;ADD A FLOATING ZERO TO ZERO
 23748	043540	312 00 0 00 070333 		CAME	[-1,,XX]	;CHECK ADDER UPON FAILURE
 23749						STOP		^
 23750	043541	254 04 0 00 043542 		HALT	.+1		;TEST FAILED IF PROGRAM HALTS HERE
 23751	043542	324 00 0 00 043543 		JUMPA	.+1		;IF TEST FAILS, CHANGE THIS INSTRUCTION (JUMPA .+1) TO
 23752									;JUMPA X (X IS THE ADDRESS OF THE FIRST INSTRUCTION
 23753									;IN THE SUBTEST) TO LOOP ON ERROR^
 23754
 23755					;**********
 23756
 23757
 23758					;THIS TEST VERIFIES THAT THE RESULT OF A FLOATING ZERO ADDED TO A ZERO
 23759					;IS THE FLOATING ZERO.
 23760					;THIS TEST IS REPEATED 36 TIMES TO FLOAT A ZERO THRU ALL 36 BITS OF THE ADDER.
 23761					;THIS TEST IS DESIGNED TO TEST THE ADDER AND RELATED DATA PATHS ONLY.
 23762
 23763			045602		SN=SN+1
 23764			777775			XX=<XX+XX+1>&777777
 23765						IFE	<XX-1>,<XX=777776>
 23766	043543	400 00 0 00 000000 		SETZ			;PRELOAD AC WITH 0
 23767	043544	270 00 0 00 070334 		ADD	[-1,,XX]	;ADD A FLOATING ZERO TO ZERO
 23768	043545	312 00 0 00 070334 		CAME	[-1,,XX]	;CHECK ADDER UPON FAILURE
 23769						STOP		^
 23770	043546	254 04 0 00 043547 		HALT	.+1		;TEST FAILED IF PROGRAM HALTS HERE
DFKAA PDP-10 KL10 BASIC INSTRUCTION DIAGNOSTIC (1) VER 0,2	MACRO %52(537) 09:34 31-JAN-77 PAGE 87-1
DFKAA3	MAC	25-AUG-75 13:57		SUPPLEMENTARY ADDER TESTS - O + FLT 0                                              SEQ 0528

 23771	043547	324 00 0 00 043550 		JUMPA	.+1		;IF TEST FAILS, CHANGE THIS INSTRUCTION (JUMPA .+1) TO
 23772									;JUMPA X (X IS THE ADDRESS OF THE FIRST INSTRUCTION
 23773									;IN THE SUBTEST) TO LOOP ON ERROR^
 23774
 23775					;**********
 23776
 23777
 23778					;THIS TEST VERIFIES THAT THE RESULT OF A FLOATING ZERO ADDED TO A ZERO
 23779					;IS THE FLOATING ZERO.
 23780					;THIS TEST IS REPEATED 36 TIMES TO FLOAT A ZERO THRU ALL 36 BITS OF THE ADDER.
 23781					;THIS TEST IS DESIGNED TO TEST THE ADDER AND RELATED DATA PATHS ONLY.
 23782
 23783			045603		SN=SN+1
 23784			777773			XX=<XX+XX+1>&777777
 23785						IFE	<XX-1>,<XX=777776>
 23786	043550	400 00 0 00 000000 		SETZ			;PRELOAD AC WITH 0
 23787	043551	270 00 0 00 070335 		ADD	[-1,,XX]	;ADD A FLOATING ZERO TO ZERO
 23788	043552	312 00 0 00 070335 		CAME	[-1,,XX]	;CHECK ADDER UPON FAILURE
 23789						STOP		^
 23790	043553	254 04 0 00 043554 		HALT	.+1		;TEST FAILED IF PROGRAM HALTS HERE
 23791	043554	324 00 0 00 043555 		JUMPA	.+1		;IF TEST FAILS, CHANGE THIS INSTRUCTION (JUMPA .+1) TO
 23792									;JUMPA X (X IS THE ADDRESS OF THE FIRST INSTRUCTION
 23793									;IN THE SUBTEST) TO LOOP ON ERROR^
 23794
 23795					;**********
 23796
 23797
 23798					;THIS TEST VERIFIES THAT THE RESULT OF A FLOATING ZERO ADDED TO A ZERO
 23799					;IS THE FLOATING ZERO.
 23800					;THIS TEST IS REPEATED 36 TIMES TO FLOAT A ZERO THRU ALL 36 BITS OF THE ADDER.
 23801					;THIS TEST IS DESIGNED TO TEST THE ADDER AND RELATED DATA PATHS ONLY.
 23802
 23803			045604		SN=SN+1
 23804			777767			XX=<XX+XX+1>&777777
 23805						IFE	<XX-1>,<XX=777776>
 23806	043555	400 00 0 00 000000 		SETZ			;PRELOAD AC WITH 0
 23807	043556	270 00 0 00 070336 		ADD	[-1,,XX]	;ADD A FLOATING ZERO TO ZERO
 23808	043557	312 00 0 00 070336 		CAME	[-1,,XX]	;CHECK ADDER UPON FAILURE
 23809						STOP		^
 23810	043560	254 04 0 00 043561 		HALT	.+1		;TEST FAILED IF PROGRAM HALTS HERE
 23811	043561	324 00 0 00 043562 		JUMPA	.+1		;IF TEST FAILS, CHANGE THIS INSTRUCTION (JUMPA .+1) TO
 23812									;JUMPA X (X IS THE ADDRESS OF THE FIRST INSTRUCTION
 23813									;IN THE SUBTEST) TO LOOP ON ERROR^
 23814
 23815					;**********
 23816
 23817
 23818					;THIS TEST VERIFIES THAT THE RESULT OF A FLOATING ZERO ADDED TO A ZERO
 23819					;IS THE FLOATING ZERO.
 23820					;THIS TEST IS REPEATED 36 TIMES TO FLOAT A ZERO THRU ALL 36 BITS OF THE ADDER.
 23821					;THIS TEST IS DESIGNED TO TEST THE ADDER AND RELATED DATA PATHS ONLY.
 23822
 23823			045605		SN=SN+1
 23824			777757			XX=<XX+XX+1>&777777
 23825						IFE	<XX-1>,<XX=777776>
DFKAA PDP-10 KL10 BASIC INSTRUCTION DIAGNOSTIC (1) VER 0,2	MACRO %52(537) 09:34 31-JAN-77 PAGE 87-2
DFKAA3	MAC	25-AUG-75 13:57		SUPPLEMENTARY ADDER TESTS - O + FLT 0                                              SEQ 0529

 23826	043562	400 00 0 00 000000 		SETZ			;PRELOAD AC WITH 0
 23827	043563	270 00 0 00 070337 		ADD	[-1,,XX]	;ADD A FLOATING ZERO TO ZERO
 23828	043564	312 00 0 00 070337 		CAME	[-1,,XX]	;CHECK ADDER UPON FAILURE
 23829						STOP		^
 23830	043565	254 04 0 00 043566 		HALT	.+1		;TEST FAILED IF PROGRAM HALTS HERE
 23831	043566	324 00 0 00 043567 		JUMPA	.+1		;IF TEST FAILS, CHANGE THIS INSTRUCTION (JUMPA .+1) TO
 23832									;JUMPA X (X IS THE ADDRESS OF THE FIRST INSTRUCTION
 23833									;IN THE SUBTEST) TO LOOP ON ERROR^
 23834
 23835					;**********
 23836
 23837
 23838					;THIS TEST VERIFIES THAT THE RESULT OF A FLOATING ZERO ADDED TO A ZERO
 23839					;IS THE FLOATING ZERO.
 23840					;THIS TEST IS REPEATED 36 TIMES TO FLOAT A ZERO THRU ALL 36 BITS OF THE ADDER.
 23841					;THIS TEST IS DESIGNED TO TEST THE ADDER AND RELATED DATA PATHS ONLY.
 23842
 23843			045606		SN=SN+1
 23844			777737			XX=<XX+XX+1>&777777
 23845						IFE	<XX-1>,<XX=777776>
 23846	043567	400 00 0 00 000000 		SETZ			;PRELOAD AC WITH 0
 23847	043570	270 00 0 00 070340 		ADD	[-1,,XX]	;ADD A FLOATING ZERO TO ZERO
 23848	043571	312 00 0 00 070340 		CAME	[-1,,XX]	;CHECK ADDER UPON FAILURE
 23849						STOP		^
 23850	043572	254 04 0 00 043573 		HALT	.+1		;TEST FAILED IF PROGRAM HALTS HERE
 23851	043573	324 00 0 00 043574 		JUMPA	.+1		;IF TEST FAILS, CHANGE THIS INSTRUCTION (JUMPA .+1) TO
 23852									;JUMPA X (X IS THE ADDRESS OF THE FIRST INSTRUCTION
 23853									;IN THE SUBTEST) TO LOOP ON ERROR^
 23854
 23855					;**********
 23856
 23857
 23858					;THIS TEST VERIFIES THAT THE RESULT OF A FLOATING ZERO ADDED TO A ZERO
 23859					;IS THE FLOATING ZERO.
 23860					;THIS TEST IS REPEATED 36 TIMES TO FLOAT A ZERO THRU ALL 36 BITS OF THE ADDER.
 23861					;THIS TEST IS DESIGNED TO TEST THE ADDER AND RELATED DATA PATHS ONLY.
 23862
 23863			045607		SN=SN+1
 23864			777677			XX=<XX+XX+1>&777777
 23865						IFE	<XX-1>,<XX=777776>
 23866	043574	400 00 0 00 000000 		SETZ			;PRELOAD AC WITH 0
 23867	043575	270 00 0 00 070341 		ADD	[-1,,XX]	;ADD A FLOATING ZERO TO ZERO
 23868	043576	312 00 0 00 070341 		CAME	[-1,,XX]	;CHECK ADDER UPON FAILURE
 23869						STOP		^
 23870	043577	254 04 0 00 043600 		HALT	.+1		;TEST FAILED IF PROGRAM HALTS HERE
 23871	043600	324 00 0 00 043601 		JUMPA	.+1		;IF TEST FAILS, CHANGE THIS INSTRUCTION (JUMPA .+1) TO
 23872									;JUMPA X (X IS THE ADDRESS OF THE FIRST INSTRUCTION
 23873									;IN THE SUBTEST) TO LOOP ON ERROR^
 23874
 23875					;**********
 23876
 23877
 23878					;THIS TEST VERIFIES THAT THE RESULT OF A FLOATING ZERO ADDED TO A ZERO
 23879					;IS THE FLOATING ZERO.
 23880					;THIS TEST IS REPEATED 36 TIMES TO FLOAT A ZERO THRU ALL 36 BITS OF THE ADDER.
DFKAA PDP-10 KL10 BASIC INSTRUCTION DIAGNOSTIC (1) VER 0,2	MACRO %52(537) 09:34 31-JAN-77 PAGE 87-3
DFKAA3	MAC	25-AUG-75 13:57		SUPPLEMENTARY ADDER TESTS - O + FLT 0                                              SEQ 0530

 23881					;THIS TEST IS DESIGNED TO TEST THE ADDER AND RELATED DATA PATHS ONLY.
 23882
 23883			045610		SN=SN+1
 23884			777577			XX=<XX+XX+1>&777777
 23885						IFE	<XX-1>,<XX=777776>
 23886	043601	400 00 0 00 000000 		SETZ			;PRELOAD AC WITH 0
 23887	043602	270 00 0 00 070342 		ADD	[-1,,XX]	;ADD A FLOATING ZERO TO ZERO
 23888	043603	312 00 0 00 070342 		CAME	[-1,,XX]	;CHECK ADDER UPON FAILURE
 23889						STOP		^
 23890	043604	254 04 0 00 043605 		HALT	.+1		;TEST FAILED IF PROGRAM HALTS HERE
 23891	043605	324 00 0 00 043606 		JUMPA	.+1		;IF TEST FAILS, CHANGE THIS INSTRUCTION (JUMPA .+1) TO
 23892									;JUMPA X (X IS THE ADDRESS OF THE FIRST INSTRUCTION
 23893									;IN THE SUBTEST) TO LOOP ON ERROR^
 23894
 23895					;**********
 23896
 23897
 23898					;THIS TEST VERIFIES THAT THE RESULT OF A FLOATING ZERO ADDED TO A ZERO
 23899					;IS THE FLOATING ZERO.
 23900					;THIS TEST IS REPEATED 36 TIMES TO FLOAT A ZERO THRU ALL 36 BITS OF THE ADDER.
 23901					;THIS TEST IS DESIGNED TO TEST THE ADDER AND RELATED DATA PATHS ONLY.
 23902
 23903			045611		SN=SN+1
 23904			777377			XX=<XX+XX+1>&777777
 23905						IFE	<XX-1>,<XX=777776>
 23906	043606	400 00 0 00 000000 		SETZ			;PRELOAD AC WITH 0
 23907	043607	270 00 0 00 070343 		ADD	[-1,,XX]	;ADD A FLOATING ZERO TO ZERO
 23908	043610	312 00 0 00 070343 		CAME	[-1,,XX]	;CHECK ADDER UPON FAILURE
 23909						STOP		^
 23910	043611	254 04 0 00 043612 		HALT	.+1		;TEST FAILED IF PROGRAM HALTS HERE
 23911	043612	324 00 0 00 043613 		JUMPA	.+1		;IF TEST FAILS, CHANGE THIS INSTRUCTION (JUMPA .+1) TO
 23912									;JUMPA X (X IS THE ADDRESS OF THE FIRST INSTRUCTION
 23913									;IN THE SUBTEST) TO LOOP ON ERROR^
 23914
 23915					;**********
 23916
 23917
 23918					;THIS TEST VERIFIES THAT THE RESULT OF A FLOATING ZERO ADDED TO A ZERO
 23919					;IS THE FLOATING ZERO.
 23920					;THIS TEST IS REPEATED 36 TIMES TO FLOAT A ZERO THRU ALL 36 BITS OF THE ADDER.
 23921					;THIS TEST IS DESIGNED TO TEST THE ADDER AND RELATED DATA PATHS ONLY.
 23922
 23923			045612		SN=SN+1
 23924			776777			XX=<XX+XX+1>&777777
 23925						IFE	<XX-1>,<XX=777776>
 23926	043613	400 00 0 00 000000 		SETZ			;PRELOAD AC WITH 0
 23927	043614	270 00 0 00 070344 		ADD	[-1,,XX]	;ADD A FLOATING ZERO TO ZERO
 23928	043615	312 00 0 00 070344 		CAME	[-1,,XX]	;CHECK ADDER UPON FAILURE
 23929						STOP		^
 23930	043616	254 04 0 00 043617 		HALT	.+1		;TEST FAILED IF PROGRAM HALTS HERE
 23931	043617	324 00 0 00 043620 		JUMPA	.+1		;IF TEST FAILS, CHANGE THIS INSTRUCTION (JUMPA .+1) TO
 23932									;JUMPA X (X IS THE ADDRESS OF THE FIRST INSTRUCTION
 23933									;IN THE SUBTEST) TO LOOP ON ERROR^
 23934
 23935					;**********
DFKAA PDP-10 KL10 BASIC INSTRUCTION DIAGNOSTIC (1) VER 0,2	MACRO %52(537) 09:34 31-JAN-77 PAGE 87-4
DFKAA3	MAC	25-AUG-75 13:57		SUPPLEMENTARY ADDER TESTS - O + FLT 0                                              SEQ 0531

 23936
 23937
 23938					;THIS TEST VERIFIES THAT THE RESULT OF A FLOATING ZERO ADDED TO A ZERO
 23939					;IS THE FLOATING ZERO.
 23940					;THIS TEST IS REPEATED 36 TIMES TO FLOAT A ZERO THRU ALL 36 BITS OF THE ADDER.
 23941					;THIS TEST IS DESIGNED TO TEST THE ADDER AND RELATED DATA PATHS ONLY.
 23942
 23943			045613		SN=SN+1
 23944			775777			XX=<XX+XX+1>&777777
 23945						IFE	<XX-1>,<XX=777776>
 23946	043620	400 00 0 00 000000 		SETZ			;PRELOAD AC WITH 0
 23947	043621	270 00 0 00 070345 		ADD	[-1,,XX]	;ADD A FLOATING ZERO TO ZERO
 23948	043622	312 00 0 00 070345 		CAME	[-1,,XX]	;CHECK ADDER UPON FAILURE
 23949						STOP		^
 23950	043623	254 04 0 00 043624 		HALT	.+1		;TEST FAILED IF PROGRAM HALTS HERE
 23951	043624	324 00 0 00 043625 		JUMPA	.+1		;IF TEST FAILS, CHANGE THIS INSTRUCTION (JUMPA .+1) TO
 23952									;JUMPA X (X IS THE ADDRESS OF THE FIRST INSTRUCTION
 23953									;IN THE SUBTEST) TO LOOP ON ERROR^
 23954
 23955					;**********
 23956
 23957
 23958					;THIS TEST VERIFIES THAT THE RESULT OF A FLOATING ZERO ADDED TO A ZERO
 23959					;IS THE FLOATING ZERO.
 23960					;THIS TEST IS REPEATED 36 TIMES TO FLOAT A ZERO THRU ALL 36 BITS OF THE ADDER.
 23961					;THIS TEST IS DESIGNED TO TEST THE ADDER AND RELATED DATA PATHS ONLY.
 23962
 23963			045614		SN=SN+1
 23964			773777			XX=<XX+XX+1>&777777
 23965						IFE	<XX-1>,<XX=777776>
 23966	043625	400 00 0 00 000000 		SETZ			;PRELOAD AC WITH 0
 23967	043626	270 00 0 00 070346 		ADD	[-1,,XX]	;ADD A FLOATING ZERO TO ZERO
 23968	043627	312 00 0 00 070346 		CAME	[-1,,XX]	;CHECK ADDER UPON FAILURE
 23969						STOP		^
 23970	043630	254 04 0 00 043631 		HALT	.+1		;TEST FAILED IF PROGRAM HALTS HERE
 23971	043631	324 00 0 00 043632 		JUMPA	.+1		;IF TEST FAILS, CHANGE THIS INSTRUCTION (JUMPA .+1) TO
 23972									;JUMPA X (X IS THE ADDRESS OF THE FIRST INSTRUCTION
 23973									;IN THE SUBTEST) TO LOOP ON ERROR^
 23974
 23975					;**********
 23976
 23977
 23978					;THIS TEST VERIFIES THAT THE RESULT OF A FLOATING ZERO ADDED TO A ZERO
 23979					;IS THE FLOATING ZERO.
 23980					;THIS TEST IS REPEATED 36 TIMES TO FLOAT A ZERO THRU ALL 36 BITS OF THE ADDER.
 23981					;THIS TEST IS DESIGNED TO TEST THE ADDER AND RELATED DATA PATHS ONLY.
 23982
 23983			045615		SN=SN+1
 23984			767777			XX=<XX+XX+1>&777777
 23985						IFE	<XX-1>,<XX=777776>
 23986	043632	400 00 0 00 000000 		SETZ			;PRELOAD AC WITH 0
 23987	043633	270 00 0 00 070347 		ADD	[-1,,XX]	;ADD A FLOATING ZERO TO ZERO
 23988	043634	312 00 0 00 070347 		CAME	[-1,,XX]	;CHECK ADDER UPON FAILURE
 23989						STOP		^
 23990	043635	254 04 0 00 043636 		HALT	.+1		;TEST FAILED IF PROGRAM HALTS HERE
DFKAA PDP-10 KL10 BASIC INSTRUCTION DIAGNOSTIC (1) VER 0,2	MACRO %52(537) 09:34 31-JAN-77 PAGE 87-5
DFKAA3	MAC	25-AUG-75 13:57		SUPPLEMENTARY ADDER TESTS - O + FLT 0                                              SEQ 0532

 23991	043636	324 00 0 00 043637 		JUMPA	.+1		;IF TEST FAILS, CHANGE THIS INSTRUCTION (JUMPA .+1) TO
 23992									;JUMPA X (X IS THE ADDRESS OF THE FIRST INSTRUCTION
 23993									;IN THE SUBTEST) TO LOOP ON ERROR^
 23994
 23995					;**********
 23996
 23997
 23998					;THIS TEST VERIFIES THAT THE RESULT OF A FLOATING ZERO ADDED TO A ZERO
 23999					;IS THE FLOATING ZERO.
 24000					;THIS TEST IS REPEATED 36 TIMES TO FLOAT A ZERO THRU ALL 36 BITS OF THE ADDER.
 24001					;THIS TEST IS DESIGNED TO TEST THE ADDER AND RELATED DATA PATHS ONLY.
 24002
 24003			045616		SN=SN+1
 24004			757777			XX=<XX+XX+1>&777777
 24005						IFE	<XX-1>,<XX=777776>
 24006	043637	400 00 0 00 000000 		SETZ			;PRELOAD AC WITH 0
 24007	043640	270 00 0 00 070350 		ADD	[-1,,XX]	;ADD A FLOATING ZERO TO ZERO
 24008	043641	312 00 0 00 070350 		CAME	[-1,,XX]	;CHECK ADDER UPON FAILURE
 24009						STOP		^
 24010	043642	254 04 0 00 043643 		HALT	.+1		;TEST FAILED IF PROGRAM HALTS HERE
 24011	043643	324 00 0 00 043644 		JUMPA	.+1		;IF TEST FAILS, CHANGE THIS INSTRUCTION (JUMPA .+1) TO
 24012									;JUMPA X (X IS THE ADDRESS OF THE FIRST INSTRUCTION
 24013									;IN THE SUBTEST) TO LOOP ON ERROR^
 24014
 24015					;**********
 24016
 24017
 24018					;THIS TEST VERIFIES THAT THE RESULT OF A FLOATING ZERO ADDED TO A ZERO
 24019					;IS THE FLOATING ZERO.
 24020					;THIS TEST IS REPEATED 36 TIMES TO FLOAT A ZERO THRU ALL 36 BITS OF THE ADDER.
 24021					;THIS TEST IS DESIGNED TO TEST THE ADDER AND RELATED DATA PATHS ONLY.
 24022
 24023			045617		SN=SN+1
 24024			737777			XX=<XX+XX+1>&777777
 24025						IFE	<XX-1>,<XX=777776>
 24026	043644	400 00 0 00 000000 		SETZ			;PRELOAD AC WITH 0
 24027	043645	270 00 0 00 070351 		ADD	[-1,,XX]	;ADD A FLOATING ZERO TO ZERO
 24028	043646	312 00 0 00 070351 		CAME	[-1,,XX]	;CHECK ADDER UPON FAILURE
 24029						STOP		^
 24030	043647	254 04 0 00 043650 		HALT	.+1		;TEST FAILED IF PROGRAM HALTS HERE
 24031	043650	324 00 0 00 043651 		JUMPA	.+1		;IF TEST FAILS, CHANGE THIS INSTRUCTION (JUMPA .+1) TO
 24032									;JUMPA X (X IS THE ADDRESS OF THE FIRST INSTRUCTION
 24033									;IN THE SUBTEST) TO LOOP ON ERROR^
 24034
 24035					;**********
 24036
 24037
 24038					;THIS TEST VERIFIES THAT THE RESULT OF A FLOATING ZERO ADDED TO A ZERO
 24039					;IS THE FLOATING ZERO.
 24040					;THIS TEST IS REPEATED 36 TIMES TO FLOAT A ZERO THRU ALL 36 BITS OF THE ADDER.
 24041					;THIS TEST IS DESIGNED TO TEST THE ADDER AND RELATED DATA PATHS ONLY.
 24042
 24043			045620		SN=SN+1
 24044			677777			XX=<XX+XX+1>&777777
 24045						IFE	<XX-1>,<XX=777776>
DFKAA PDP-10 KL10 BASIC INSTRUCTION DIAGNOSTIC (1) VER 0,2	MACRO %52(537) 09:34 31-JAN-77 PAGE 87-6
DFKAA3	MAC	25-AUG-75 13:57		SUPPLEMENTARY ADDER TESTS - O + FLT 0                                              SEQ 0533

 24046	043651	400 00 0 00 000000 		SETZ			;PRELOAD AC WITH 0
 24047	043652	270 00 0 00 070352 		ADD	[-1,,XX]	;ADD A FLOATING ZERO TO ZERO
 24048	043653	312 00 0 00 070352 		CAME	[-1,,XX]	;CHECK ADDER UPON FAILURE
 24049						STOP		^
 24050	043654	254 04 0 00 043655 		HALT	.+1		;TEST FAILED IF PROGRAM HALTS HERE
 24051	043655	324 00 0 00 043656 		JUMPA	.+1		;IF TEST FAILS, CHANGE THIS INSTRUCTION (JUMPA .+1) TO
 24052									;JUMPA X (X IS THE ADDRESS OF THE FIRST INSTRUCTION
 24053									;IN THE SUBTEST) TO LOOP ON ERROR^
 24054
 24055					;**********
 24056
 24057
 24058					;THIS TEST VERIFIES THAT THE RESULT OF A FLOATING ZERO ADDED TO A ZERO
 24059					;IS THE FLOATING ZERO.
 24060					;THIS TEST IS REPEATED 36 TIMES TO FLOAT A ZERO THRU ALL 36 BITS OF THE ADDER.
 24061					;THIS TEST IS DESIGNED TO TEST THE ADDER AND RELATED DATA PATHS ONLY.
 24062
 24063			045621		SN=SN+1
 24064			577777			XX=<XX+XX+1>&777777
 24065						IFE	<XX-1>,<XX=777776>
 24066	043656	400 00 0 00 000000 		SETZ			;PRELOAD AC WITH 0
 24067	043657	270 00 0 00 070353 		ADD	[-1,,XX]	;ADD A FLOATING ZERO TO ZERO
 24068	043660	312 00 0 00 070353 		CAME	[-1,,XX]	;CHECK ADDER UPON FAILURE
 24069						STOP		^
 24070	043661	254 04 0 00 043662 		HALT	.+1		;TEST FAILED IF PROGRAM HALTS HERE
 24071	043662	324 00 0 00 043663 		JUMPA	.+1		;IF TEST FAILS, CHANGE THIS INSTRUCTION (JUMPA .+1) TO
 24072									;JUMPA X (X IS THE ADDRESS OF THE FIRST INSTRUCTION
 24073									;IN THE SUBTEST) TO LOOP ON ERROR^
 24074
 24075					;**********
 24076
 24077
 24078					;THIS TEST VERIFIES THAT THE RESULT OF A FLOATING ZERO ADDED TO A ZERO
 24079					;IS THE FLOATING ZERO.
 24080					;THIS TEST IS REPEATED 36 TIMES TO FLOAT A ZERO THRU ALL 36 BITS OF THE ADDER.
 24081					;THIS TEST IS DESIGNED TO TEST THE ADDER AND RELATED DATA PATHS ONLY.
 24082
 24083			045622		SN=SN+1
 24084			377777			XX=<XX+XX+1>&777777
 24085						IFE	<XX-1>,<XX=777776>
 24086	043663	400 00 0 00 000000 		SETZ			;PRELOAD AC WITH 0
 24087	043664	270 00 0 00 070354 		ADD	[-1,,XX]	;ADD A FLOATING ZERO TO ZERO
 24088	043665	312 00 0 00 070354 		CAME	[-1,,XX]	;CHECK ADDER UPON FAILURE
 24089						STOP		^
 24090	043666	254 04 0 00 043667 		HALT	.+1		;TEST FAILED IF PROGRAM HALTS HERE
 24091	043667	324 00 0 00 043670 		JUMPA	.+1		;IF TEST FAILS, CHANGE THIS INSTRUCTION (JUMPA .+1) TO
 24092									;JUMPA X (X IS THE ADDRESS OF THE FIRST INSTRUCTION
 24093									;IN THE SUBTEST) TO LOOP ON ERROR^
 24094
 24095					;**********
 24096
 24097					PAGE
DFKAA PDP-10 KL10 BASIC INSTRUCTION DIAGNOSTIC (1) VER 0,2	MACRO %52(537) 09:34 31-JAN-77 PAGE 87-7
DFKAA3	MAC	25-AUG-75 13:57		SUPPLEMENTARY ADDER TESTS - O + FLT 0                                              SEQ 0534

 24098			000000			XX=0
 24099
 24100						REPEAT	^D18,<
 24101					;THIS TEST VERIFIES THAT THE RESULT OF A FLOATING ZERO ADDED TO A ZERO
 24102					;IS THE FLOATING ZERO.
 24103					;THIS TEST IS REPEATED 36 TIMES TO FLOAT A ONE THRU ALL 36 BITS OF THE ADDER.
 24104					;THIS TEST IS DESIGNED TO TEST THE ADDER AND RELATED DATA PATHS ONLY.
 24105
 24106					SN=SN+1
 24107						XX=<XX+XX+1>&777777
 24108						IFE	<XX-1>,<XX=777776>
 24109						SETZ			;PRELOAD AC WITH 0
 24110						ADD	[XX,,-1]	;ADD A FLOATING ZERO TO ZERO
 24111						CAME	[XX,,-1]	;CHECK ADDER UPON FAILURE
 24112						STOP
 24113
 24114					;**********
 24115					>
 24116
 24117					;THIS TEST VERIFIES THAT THE RESULT OF A FLOATING ZERO ADDED TO A ZERO
 24118					;IS THE FLOATING ZERO.
 24119					;THIS TEST IS REPEATED 36 TIMES TO FLOAT A ONE THRU ALL 36 BITS OF THE ADDER.
 24120					;THIS TEST IS DESIGNED TO TEST THE ADDER AND RELATED DATA PATHS ONLY.
 24121
 24122			045623		SN=SN+1
 24123			000001			XX=<XX+XX+1>&777777
 24124			777776			IFE	<XX-1>,<XX=777776>
 24125	043670	400 00 0 00 000000 		SETZ			;PRELOAD AC WITH 0
 24126	043671	270 00 0 00 070355 		ADD	[XX,,-1]	;ADD A FLOATING ZERO TO ZERO
 24127	043672	312 00 0 00 070355 		CAME	[XX,,-1]	;CHECK ADDER UPON FAILURE
 24128						STOP		^
 24129	043673	254 04 0 00 043674 		HALT	.+1		;TEST FAILED IF PROGRAM HALTS HERE
 24130	043674	324 00 0 00 043675 		JUMPA	.+1		;IF TEST FAILS, CHANGE THIS INSTRUCTION (JUMPA .+1) TO
 24131									;JUMPA X (X IS THE ADDRESS OF THE FIRST INSTRUCTION
 24132									;IN THE SUBTEST) TO LOOP ON ERROR^
 24133
 24134					;**********
 24135
 24136
 24137					;THIS TEST VERIFIES THAT THE RESULT OF A FLOATING ZERO ADDED TO A ZERO
 24138					;IS THE FLOATING ZERO.
 24139					;THIS TEST IS REPEATED 36 TIMES TO FLOAT A ONE THRU ALL 36 BITS OF THE ADDER.
 24140					;THIS TEST IS DESIGNED TO TEST THE ADDER AND RELATED DATA PATHS ONLY.
 24141
 24142			045624		SN=SN+1
 24143			777775			XX=<XX+XX+1>&777777
 24144						IFE	<XX-1>,<XX=777776>
 24145	043675	400 00 0 00 000000 		SETZ			;PRELOAD AC WITH 0
 24146	043676	270 00 0 00 070356 		ADD	[XX,,-1]	;ADD A FLOATING ZERO TO ZERO
 24147	043677	312 00 0 00 070356 		CAME	[XX,,-1]	;CHECK ADDER UPON FAILURE
 24148						STOP		^
 24149	043700	254 04 0 00 043701 		HALT	.+1		;TEST FAILED IF PROGRAM HALTS HERE
 24150	043701	324 00 0 00 043702 		JUMPA	.+1		;IF TEST FAILS, CHANGE THIS INSTRUCTION (JUMPA .+1) TO
 24151									;JUMPA X (X IS THE ADDRESS OF THE FIRST INSTRUCTION
 24152									;IN THE SUBTEST) TO LOOP ON ERROR^
DFKAA PDP-10 KL10 BASIC INSTRUCTION DIAGNOSTIC (1) VER 0,2	MACRO %52(537) 09:34 31-JAN-77 PAGE 87-8
DFKAA3	MAC	25-AUG-75 13:57		SUPPLEMENTARY ADDER TESTS - O + FLT 0                                              SEQ 0535

 24153
 24154					;**********
 24155
 24156
 24157					;THIS TEST VERIFIES THAT THE RESULT OF A FLOATING ZERO ADDED TO A ZERO
 24158					;IS THE FLOATING ZERO.
 24159					;THIS TEST IS REPEATED 36 TIMES TO FLOAT A ONE THRU ALL 36 BITS OF THE ADDER.
 24160					;THIS TEST IS DESIGNED TO TEST THE ADDER AND RELATED DATA PATHS ONLY.
 24161
 24162			045625		SN=SN+1
 24163			777773			XX=<XX+XX+1>&777777
 24164						IFE	<XX-1>,<XX=777776>
 24165	043702	400 00 0 00 000000 		SETZ			;PRELOAD AC WITH 0
 24166	043703	270 00 0 00 070357 		ADD	[XX,,-1]	;ADD A FLOATING ZERO TO ZERO
 24167	043704	312 00 0 00 070357 		CAME	[XX,,-1]	;CHECK ADDER UPON FAILURE
 24168						STOP		^
 24169	043705	254 04 0 00 043706 		HALT	.+1		;TEST FAILED IF PROGRAM HALTS HERE
 24170	043706	324 00 0 00 043707 		JUMPA	.+1		;IF TEST FAILS, CHANGE THIS INSTRUCTION (JUMPA .+1) TO
 24171									;JUMPA X (X IS THE ADDRESS OF THE FIRST INSTRUCTION
 24172									;IN THE SUBTEST) TO LOOP ON ERROR^
 24173
 24174					;**********
 24175
 24176
 24177					;THIS TEST VERIFIES THAT THE RESULT OF A FLOATING ZERO ADDED TO A ZERO
 24178					;IS THE FLOATING ZERO.
 24179					;THIS TEST IS REPEATED 36 TIMES TO FLOAT A ONE THRU ALL 36 BITS OF THE ADDER.
 24180					;THIS TEST IS DESIGNED TO TEST THE ADDER AND RELATED DATA PATHS ONLY.
 24181
 24182			045626		SN=SN+1
 24183			777767			XX=<XX+XX+1>&777777
 24184						IFE	<XX-1>,<XX=777776>
 24185	043707	400 00 0 00 000000 		SETZ			;PRELOAD AC WITH 0
 24186	043710	270 00 0 00 070360 		ADD	[XX,,-1]	;ADD A FLOATING ZERO TO ZERO
 24187	043711	312 00 0 00 070360 		CAME	[XX,,-1]	;CHECK ADDER UPON FAILURE
 24188						STOP		^
 24189	043712	254 04 0 00 043713 		HALT	.+1		;TEST FAILED IF PROGRAM HALTS HERE
 24190	043713	324 00 0 00 043714 		JUMPA	.+1		;IF TEST FAILS, CHANGE THIS INSTRUCTION (JUMPA .+1) TO
 24191									;JUMPA X (X IS THE ADDRESS OF THE FIRST INSTRUCTION
 24192									;IN THE SUBTEST) TO LOOP ON ERROR^
 24193
 24194					;**********
 24195
 24196
 24197					;THIS TEST VERIFIES THAT THE RESULT OF A FLOATING ZERO ADDED TO A ZERO
 24198					;IS THE FLOATING ZERO.
 24199					;THIS TEST IS REPEATED 36 TIMES TO FLOAT A ONE THRU ALL 36 BITS OF THE ADDER.
 24200					;THIS TEST IS DESIGNED TO TEST THE ADDER AND RELATED DATA PATHS ONLY.
 24201
 24202			045627		SN=SN+1
 24203			777757			XX=<XX+XX+1>&777777
 24204						IFE	<XX-1>,<XX=777776>
 24205	043714	400 00 0 00 000000 		SETZ			;PRELOAD AC WITH 0
 24206	043715	270 00 0 00 070361 		ADD	[XX,,-1]	;ADD A FLOATING ZERO TO ZERO
 24207	043716	312 00 0 00 070361 		CAME	[XX,,-1]	;CHECK ADDER UPON FAILURE
DFKAA PDP-10 KL10 BASIC INSTRUCTION DIAGNOSTIC (1) VER 0,2	MACRO %52(537) 09:34 31-JAN-77 PAGE 87-9
DFKAA3	MAC	25-AUG-75 13:57		SUPPLEMENTARY ADDER TESTS - O + FLT 0                                              SEQ 0536

 24208						STOP		^
 24209	043717	254 04 0 00 043720 		HALT	.+1		;TEST FAILED IF PROGRAM HALTS HERE
 24210	043720	324 00 0 00 043721 		JUMPA	.+1		;IF TEST FAILS, CHANGE THIS INSTRUCTION (JUMPA .+1) TO
 24211									;JUMPA X (X IS THE ADDRESS OF THE FIRST INSTRUCTION
 24212									;IN THE SUBTEST) TO LOOP ON ERROR^
 24213
 24214					;**********
 24215
 24216
 24217					;THIS TEST VERIFIES THAT THE RESULT OF A FLOATING ZERO ADDED TO A ZERO
 24218					;IS THE FLOATING ZERO.
 24219					;THIS TEST IS REPEATED 36 TIMES TO FLOAT A ONE THRU ALL 36 BITS OF THE ADDER.
 24220					;THIS TEST IS DESIGNED TO TEST THE ADDER AND RELATED DATA PATHS ONLY.
 24221
 24222			045630		SN=SN+1
 24223			777737			XX=<XX+XX+1>&777777
 24224						IFE	<XX-1>,<XX=777776>
 24225	043721	400 00 0 00 000000 		SETZ			;PRELOAD AC WITH 0
 24226	043722	270 00 0 00 070362 		ADD	[XX,,-1]	;ADD A FLOATING ZERO TO ZERO
 24227	043723	312 00 0 00 070362 		CAME	[XX,,-1]	;CHECK ADDER UPON FAILURE
 24228						STOP		^
 24229	043724	254 04 0 00 043725 		HALT	.+1		;TEST FAILED IF PROGRAM HALTS HERE
 24230	043725	324 00 0 00 043726 		JUMPA	.+1		;IF TEST FAILS, CHANGE THIS INSTRUCTION (JUMPA .+1) TO
 24231									;JUMPA X (X IS THE ADDRESS OF THE FIRST INSTRUCTION
 24232									;IN THE SUBTEST) TO LOOP ON ERROR^
 24233
 24234					;**********
 24235
 24236
 24237					;THIS TEST VERIFIES THAT THE RESULT OF A FLOATING ZERO ADDED TO A ZERO
 24238					;IS THE FLOATING ZERO.
 24239					;THIS TEST IS REPEATED 36 TIMES TO FLOAT A ONE THRU ALL 36 BITS OF THE ADDER.
 24240					;THIS TEST IS DESIGNED TO TEST THE ADDER AND RELATED DATA PATHS ONLY.
 24241
 24242			045631		SN=SN+1
 24243			777677			XX=<XX+XX+1>&777777
 24244						IFE	<XX-1>,<XX=777776>
 24245	043726	400 00 0 00 000000 		SETZ			;PRELOAD AC WITH 0
 24246	043727	270 00 0 00 070363 		ADD	[XX,,-1]	;ADD A FLOATING ZERO TO ZERO
 24247	043730	312 00 0 00 070363 		CAME	[XX,,-1]	;CHECK ADDER UPON FAILURE
 24248						STOP		^
 24249	043731	254 04 0 00 043732 		HALT	.+1		;TEST FAILED IF PROGRAM HALTS HERE
 24250	043732	324 00 0 00 043733 		JUMPA	.+1		;IF TEST FAILS, CHANGE THIS INSTRUCTION (JUMPA .+1) TO
 24251									;JUMPA X (X IS THE ADDRESS OF THE FIRST INSTRUCTION
 24252									;IN THE SUBTEST) TO LOOP ON ERROR^
 24253
 24254					;**********
 24255
 24256
 24257					;THIS TEST VERIFIES THAT THE RESULT OF A FLOATING ZERO ADDED TO A ZERO
 24258					;IS THE FLOATING ZERO.
 24259					;THIS TEST IS REPEATED 36 TIMES TO FLOAT A ONE THRU ALL 36 BITS OF THE ADDER.
 24260					;THIS TEST IS DESIGNED TO TEST THE ADDER AND RELATED DATA PATHS ONLY.
 24261
 24262			045632		SN=SN+1
DFKAA PDP-10 KL10 BASIC INSTRUCTION DIAGNOSTIC (1) VER 0,2	MACRO %52(537) 09:34 31-JAN-77 PAGE 87-10
DFKAA3	MAC	25-AUG-75 13:57		SUPPLEMENTARY ADDER TESTS - O + FLT 0                                              SEQ 0537

 24263			777577			XX=<XX+XX+1>&777777
 24264						IFE	<XX-1>,<XX=777776>
 24265	043733	400 00 0 00 000000 		SETZ			;PRELOAD AC WITH 0
 24266	043734	270 00 0 00 070364 		ADD	[XX,,-1]	;ADD A FLOATING ZERO TO ZERO
 24267	043735	312 00 0 00 070364 		CAME	[XX,,-1]	;CHECK ADDER UPON FAILURE
 24268						STOP		^
 24269	043736	254 04 0 00 043737 		HALT	.+1		;TEST FAILED IF PROGRAM HALTS HERE
 24270	043737	324 00 0 00 043740 		JUMPA	.+1		;IF TEST FAILS, CHANGE THIS INSTRUCTION (JUMPA .+1) TO
 24271									;JUMPA X (X IS THE ADDRESS OF THE FIRST INSTRUCTION
 24272									;IN THE SUBTEST) TO LOOP ON ERROR^
 24273
 24274					;**********
 24275
 24276
 24277					;THIS TEST VERIFIES THAT THE RESULT OF A FLOATING ZERO ADDED TO A ZERO
 24278					;IS THE FLOATING ZERO.
 24279					;THIS TEST IS REPEATED 36 TIMES TO FLOAT A ONE THRU ALL 36 BITS OF THE ADDER.
 24280					;THIS TEST IS DESIGNED TO TEST THE ADDER AND RELATED DATA PATHS ONLY.
 24281
 24282			045633		SN=SN+1
 24283			777377			XX=<XX+XX+1>&777777
 24284						IFE	<XX-1>,<XX=777776>
 24285	043740	400 00 0 00 000000 		SETZ			;PRELOAD AC WITH 0
 24286	043741	270 00 0 00 070365 		ADD	[XX,,-1]	;ADD A FLOATING ZERO TO ZERO
 24287	043742	312 00 0 00 070365 		CAME	[XX,,-1]	;CHECK ADDER UPON FAILURE
 24288						STOP		^
 24289	043743	254 04 0 00 043744 		HALT	.+1		;TEST FAILED IF PROGRAM HALTS HERE
 24290	043744	324 00 0 00 043745 		JUMPA	.+1		;IF TEST FAILS, CHANGE THIS INSTRUCTION (JUMPA .+1) TO
 24291									;JUMPA X (X IS THE ADDRESS OF THE FIRST INSTRUCTION
 24292									;IN THE SUBTEST) TO LOOP ON ERROR^
 24293
 24294					;**********
 24295
 24296
 24297					;THIS TEST VERIFIES THAT THE RESULT OF A FLOATING ZERO ADDED TO A ZERO
 24298					;IS THE FLOATING ZERO.
 24299					;THIS TEST IS REPEATED 36 TIMES TO FLOAT A ONE THRU ALL 36 BITS OF THE ADDER.
 24300					;THIS TEST IS DESIGNED TO TEST THE ADDER AND RELATED DATA PATHS ONLY.
 24301
 24302			045634		SN=SN+1
 24303			776777			XX=<XX+XX+1>&777777
 24304						IFE	<XX-1>,<XX=777776>
 24305	043745	400 00 0 00 000000 		SETZ			;PRELOAD AC WITH 0
 24306	043746	270 00 0 00 070366 		ADD	[XX,,-1]	;ADD A FLOATING ZERO TO ZERO
 24307	043747	312 00 0 00 070366 		CAME	[XX,,-1]	;CHECK ADDER UPON FAILURE
 24308						STOP		^
 24309	043750	254 04 0 00 043751 		HALT	.+1		;TEST FAILED IF PROGRAM HALTS HERE
 24310	043751	324 00 0 00 043752 		JUMPA	.+1		;IF TEST FAILS, CHANGE THIS INSTRUCTION (JUMPA .+1) TO
 24311									;JUMPA X (X IS THE ADDRESS OF THE FIRST INSTRUCTION
 24312									;IN THE SUBTEST) TO LOOP ON ERROR^
 24313
 24314					;**********
 24315
 24316
 24317					;THIS TEST VERIFIES THAT THE RESULT OF A FLOATING ZERO ADDED TO A ZERO
DFKAA PDP-10 KL10 BASIC INSTRUCTION DIAGNOSTIC (1) VER 0,2	MACRO %52(537) 09:34 31-JAN-77 PAGE 87-11
DFKAA3	MAC	25-AUG-75 13:57		SUPPLEMENTARY ADDER TESTS - O + FLT 0                                              SEQ 0538

 24318					;IS THE FLOATING ZERO.
 24319					;THIS TEST IS REPEATED 36 TIMES TO FLOAT A ONE THRU ALL 36 BITS OF THE ADDER.
 24320					;THIS TEST IS DESIGNED TO TEST THE ADDER AND RELATED DATA PATHS ONLY.
 24321
 24322			045635		SN=SN+1
 24323			775777			XX=<XX+XX+1>&777777
 24324						IFE	<XX-1>,<XX=777776>
 24325	043752	400 00 0 00 000000 		SETZ			;PRELOAD AC WITH 0
 24326	043753	270 00 0 00 070367 		ADD	[XX,,-1]	;ADD A FLOATING ZERO TO ZERO
 24327	043754	312 00 0 00 070367 		CAME	[XX,,-1]	;CHECK ADDER UPON FAILURE
 24328						STOP		^
 24329	043755	254 04 0 00 043756 		HALT	.+1		;TEST FAILED IF PROGRAM HALTS HERE
 24330	043756	324 00 0 00 043757 		JUMPA	.+1		;IF TEST FAILS, CHANGE THIS INSTRUCTION (JUMPA .+1) TO
 24331									;JUMPA X (X IS THE ADDRESS OF THE FIRST INSTRUCTION
 24332									;IN THE SUBTEST) TO LOOP ON ERROR^
 24333
 24334					;**********
 24335
 24336
 24337					;THIS TEST VERIFIES THAT THE RESULT OF A FLOATING ZERO ADDED TO A ZERO
 24338					;IS THE FLOATING ZERO.
 24339					;THIS TEST IS REPEATED 36 TIMES TO FLOAT A ONE THRU ALL 36 BITS OF THE ADDER.
 24340					;THIS TEST IS DESIGNED TO TEST THE ADDER AND RELATED DATA PATHS ONLY.
 24341
 24342			045636		SN=SN+1
 24343			773777			XX=<XX+XX+1>&777777
 24344						IFE	<XX-1>,<XX=777776>
 24345	043757	400 00 0 00 000000 		SETZ			;PRELOAD AC WITH 0
 24346	043760	270 00 0 00 070370 		ADD	[XX,,-1]	;ADD A FLOATING ZERO TO ZERO
 24347	043761	312 00 0 00 070370 		CAME	[XX,,-1]	;CHECK ADDER UPON FAILURE
 24348						STOP		^
 24349	043762	254 04 0 00 043763 		HALT	.+1		;TEST FAILED IF PROGRAM HALTS HERE
 24350	043763	324 00 0 00 043764 		JUMPA	.+1		;IF TEST FAILS, CHANGE THIS INSTRUCTION (JUMPA .+1) TO
 24351									;JUMPA X (X IS THE ADDRESS OF THE FIRST INSTRUCTION
 24352									;IN THE SUBTEST) TO LOOP ON ERROR^
 24353
 24354					;**********
 24355
 24356
 24357					;THIS TEST VERIFIES THAT THE RESULT OF A FLOATING ZERO ADDED TO A ZERO
 24358					;IS THE FLOATING ZERO.
 24359					;THIS TEST IS REPEATED 36 TIMES TO FLOAT A ONE THRU ALL 36 BITS OF THE ADDER.
 24360					;THIS TEST IS DESIGNED TO TEST THE ADDER AND RELATED DATA PATHS ONLY.
 24361
 24362			045637		SN=SN+1
 24363			767777			XX=<XX+XX+1>&777777
 24364						IFE	<XX-1>,<XX=777776>
 24365	043764	400 00 0 00 000000 		SETZ			;PRELOAD AC WITH 0
 24366	043765	270 00 0 00 070371 		ADD	[XX,,-1]	;ADD A FLOATING ZERO TO ZERO
 24367	043766	312 00 0 00 070371 		CAME	[XX,,-1]	;CHECK ADDER UPON FAILURE
 24368						STOP		^
 24369	043767	254 04 0 00 043770 		HALT	.+1		;TEST FAILED IF PROGRAM HALTS HERE
 24370	043770	324 00 0 00 043771 		JUMPA	.+1		;IF TEST FAILS, CHANGE THIS INSTRUCTION (JUMPA .+1) TO
 24371									;JUMPA X (X IS THE ADDRESS OF THE FIRST INSTRUCTION
 24372									;IN THE SUBTEST) TO LOOP ON ERROR^
DFKAA PDP-10 KL10 BASIC INSTRUCTION DIAGNOSTIC (1) VER 0,2	MACRO %52(537) 09:34 31-JAN-77 PAGE 87-12
DFKAA3	MAC	25-AUG-75 13:57		SUPPLEMENTARY ADDER TESTS - O + FLT 0                                              SEQ 0539

 24373
 24374					;**********
 24375
 24376
 24377					;THIS TEST VERIFIES THAT THE RESULT OF A FLOATING ZERO ADDED TO A ZERO
 24378					;IS THE FLOATING ZERO.
 24379					;THIS TEST IS REPEATED 36 TIMES TO FLOAT A ONE THRU ALL 36 BITS OF THE ADDER.
 24380					;THIS TEST IS DESIGNED TO TEST THE ADDER AND RELATED DATA PATHS ONLY.
 24381
 24382			045640		SN=SN+1
 24383			757777			XX=<XX+XX+1>&777777
 24384						IFE	<XX-1>,<XX=777776>
 24385	043771	400 00 0 00 000000 		SETZ			;PRELOAD AC WITH 0
 24386	043772	270 00 0 00 070372 		ADD	[XX,,-1]	;ADD A FLOATING ZERO TO ZERO
 24387	043773	312 00 0 00 070372 		CAME	[XX,,-1]	;CHECK ADDER UPON FAILURE
 24388						STOP		^
 24389	043774	254 04 0 00 043775 		HALT	.+1		;TEST FAILED IF PROGRAM HALTS HERE
 24390	043775	324 00 0 00 043776 		JUMPA	.+1		;IF TEST FAILS, CHANGE THIS INSTRUCTION (JUMPA .+1) TO
 24391									;JUMPA X (X IS THE ADDRESS OF THE FIRST INSTRUCTION
 24392									;IN THE SUBTEST) TO LOOP ON ERROR^
 24393
 24394					;**********
 24395
 24396
 24397					;THIS TEST VERIFIES THAT THE RESULT OF A FLOATING ZERO ADDED TO A ZERO
 24398					;IS THE FLOATING ZERO.
 24399					;THIS TEST IS REPEATED 36 TIMES TO FLOAT A ONE THRU ALL 36 BITS OF THE ADDER.
 24400					;THIS TEST IS DESIGNED TO TEST THE ADDER AND RELATED DATA PATHS ONLY.
 24401
 24402			045641		SN=SN+1
 24403			737777			XX=<XX+XX+1>&777777
 24404						IFE	<XX-1>,<XX=777776>
 24405	043776	400 00 0 00 000000 		SETZ			;PRELOAD AC WITH 0
 24406	043777	270 00 0 00 070373 		ADD	[XX,,-1]	;ADD A FLOATING ZERO TO ZERO
 24407	044000	312 00 0 00 070373 		CAME	[XX,,-1]	;CHECK ADDER UPON FAILURE
 24408						STOP		^
 24409	044001	254 04 0 00 044002 		HALT	.+1		;TEST FAILED IF PROGRAM HALTS HERE
 24410	044002	324 00 0 00 044003 		JUMPA	.+1		;IF TEST FAILS, CHANGE THIS INSTRUCTION (JUMPA .+1) TO
 24411									;JUMPA X (X IS THE ADDRESS OF THE FIRST INSTRUCTION
 24412									;IN THE SUBTEST) TO LOOP ON ERROR^
 24413
 24414					;**********
 24415
 24416
 24417					;THIS TEST VERIFIES THAT THE RESULT OF A FLOATING ZERO ADDED TO A ZERO
 24418					;IS THE FLOATING ZERO.
 24419					;THIS TEST IS REPEATED 36 TIMES TO FLOAT A ONE THRU ALL 36 BITS OF THE ADDER.
 24420					;THIS TEST IS DESIGNED TO TEST THE ADDER AND RELATED DATA PATHS ONLY.
 24421
 24422			045642		SN=SN+1
 24423			677777			XX=<XX+XX+1>&777777
 24424						IFE	<XX-1>,<XX=777776>
 24425	044003	400 00 0 00 000000 		SETZ			;PRELOAD AC WITH 0
 24426	044004	270 00 0 00 070374 		ADD	[XX,,-1]	;ADD A FLOATING ZERO TO ZERO
 24427	044005	312 00 0 00 070374 		CAME	[XX,,-1]	;CHECK ADDER UPON FAILURE
DFKAA PDP-10 KL10 BASIC INSTRUCTION DIAGNOSTIC (1) VER 0,2	MACRO %52(537) 09:34 31-JAN-77 PAGE 87-13
DFKAA3	MAC	25-AUG-75 13:57		SUPPLEMENTARY ADDER TESTS - O + FLT 0                                              SEQ 0540

 24428						STOP		^
 24429	044006	254 04 0 00 044007 		HALT	.+1		;TEST FAILED IF PROGRAM HALTS HERE
 24430	044007	324 00 0 00 044010 		JUMPA	.+1		;IF TEST FAILS, CHANGE THIS INSTRUCTION (JUMPA .+1) TO
 24431									;JUMPA X (X IS THE ADDRESS OF THE FIRST INSTRUCTION
 24432									;IN THE SUBTEST) TO LOOP ON ERROR^
 24433
 24434					;**********
 24435
 24436
 24437					;THIS TEST VERIFIES THAT THE RESULT OF A FLOATING ZERO ADDED TO A ZERO
 24438					;IS THE FLOATING ZERO.
 24439					;THIS TEST IS REPEATED 36 TIMES TO FLOAT A ONE THRU ALL 36 BITS OF THE ADDER.
 24440					;THIS TEST IS DESIGNED TO TEST THE ADDER AND RELATED DATA PATHS ONLY.
 24441
 24442			045643		SN=SN+1
 24443			577777			XX=<XX+XX+1>&777777
 24444						IFE	<XX-1>,<XX=777776>
 24445	044010	400 00 0 00 000000 		SETZ			;PRELOAD AC WITH 0
 24446	044011	270 00 0 00 070375 		ADD	[XX,,-1]	;ADD A FLOATING ZERO TO ZERO
 24447	044012	312 00 0 00 070375 		CAME	[XX,,-1]	;CHECK ADDER UPON FAILURE
 24448						STOP		^
 24449	044013	254 04 0 00 044014 		HALT	.+1		;TEST FAILED IF PROGRAM HALTS HERE
 24450	044014	324 00 0 00 044015 		JUMPA	.+1		;IF TEST FAILS, CHANGE THIS INSTRUCTION (JUMPA .+1) TO
 24451									;JUMPA X (X IS THE ADDRESS OF THE FIRST INSTRUCTION
 24452									;IN THE SUBTEST) TO LOOP ON ERROR^
 24453
 24454					;**********
 24455
 24456
 24457					;THIS TEST VERIFIES THAT THE RESULT OF A FLOATING ZERO ADDED TO A ZERO
 24458					;IS THE FLOATING ZERO.
 24459					;THIS TEST IS REPEATED 36 TIMES TO FLOAT A ONE THRU ALL 36 BITS OF THE ADDER.
 24460					;THIS TEST IS DESIGNED TO TEST THE ADDER AND RELATED DATA PATHS ONLY.
 24461
 24462			045644		SN=SN+1
 24463			377777			XX=<XX+XX+1>&777777
 24464						IFE	<XX-1>,<XX=777776>
 24465	044015	400 00 0 00 000000 		SETZ			;PRELOAD AC WITH 0
 24466	044016	270 00 0 00 070255 		ADD	[XX,,-1]	;ADD A FLOATING ZERO TO ZERO
 24467	044017	312 00 0 00 070255 		CAME	[XX,,-1]	;CHECK ADDER UPON FAILURE
 24468						STOP		^
 24469	044020	254 04 0 00 044021 		HALT	.+1		;TEST FAILED IF PROGRAM HALTS HERE
 24470	044021	324 00 0 00 044022 		JUMPA	.+1		;IF TEST FAILS, CHANGE THIS INSTRUCTION (JUMPA .+1) TO
 24471									;JUMPA X (X IS THE ADDRESS OF THE FIRST INSTRUCTION
 24472									;IN THE SUBTEST) TO LOOP ON ERROR^
 24473
 24474					;**********
 24475
DFKAA PDP-10 KL10 BASIC INSTRUCTION DIAGNOSTIC (1) VER 0,2	MACRO %52(537) 09:34 31-JAN-77 PAGE 88
DFKAA3	MAC	25-AUG-75 13:57		SUPPLEMENTARY ADDER TESTS - FLT 1 + FLT 1                                          SEQ 0541

 24476					SUBTTL	SUPPLEMENTARY ADDER TESTS - FLT 1 + FLT 1
 24477
 24478					;**********
 24479
 24480			045700		SN=45700
 24481			000000			XX=0
 24482
 24483					B45700:	REPEAT	^D17,<
 24484					;THIS TEST VERIFIES THAT THE RESULT OF A FLOATING ONE
 24485					;ADDED TO A FLOATING ONE IS A FLOATING ONE
 24486					;PLACED ONE BIT POSITION LEFT OF THE ORIGINAL FLOATING ONE.
 24487					;THIS TEST IS REPEATED 36 TIMES TO FLOAT A ONE THRU ALL 36 BITS OF THE ADDER.
 24488					;THIS TEST IS DESIGNED TO TEST THE ADDER AND RELATED DATA PATHS ONLY.
 24489
 24490					SN=SN+1
 24491						XX=XX+XX
 24492						IFE	XX,<XX=1>
 24493						HRRZI	XX		;PRELOAD AC WITH A FLOATING ONE
 24494						ADD	[XX]		;ADD A FLOATING ONE TO ITSELF
 24495						CAME	[XX+XX]		;CHECK ADDER UPON FAILURE
 24496						STOP
 24497
 24498					;**********
 24499					>
 24500
 24501					;THIS TEST VERIFIES THAT THE RESULT OF A FLOATING ONE
 24502					;ADDED TO A FLOATING ONE IS A FLOATING ONE
 24503					;PLACED ONE BIT POSITION LEFT OF THE ORIGINAL FLOATING ONE.
 24504					;THIS TEST IS REPEATED 36 TIMES TO FLOAT A ONE THRU ALL 36 BITS OF THE ADDER.
 24505					;THIS TEST IS DESIGNED TO TEST THE ADDER AND RELATED DATA PATHS ONLY.
 24506
 24507			045701		SN=SN+1
 24508			000000			XX=XX+XX
 24509			000001			IFE	XX,<XX=1>
 24510	044022	551 00 0 00 000001 		HRRZI	XX		;PRELOAD AC WITH A FLOATING ONE
 24511	044023	270 00 0 00 070265 		ADD	[XX]		;ADD A FLOATING ONE TO ITSELF
 24512	044024	312 00 0 00 070266 		CAME	[XX+XX]		;CHECK ADDER UPON FAILURE
 24513						STOP		^
 24514	044025	254 04 0 00 044026 		HALT	.+1		;TEST FAILED IF PROGRAM HALTS HERE
 24515	044026	324 00 0 00 044027 		JUMPA	.+1		;IF TEST FAILS, CHANGE THIS INSTRUCTION (JUMPA .+1) TO
 24516									;JUMPA X (X IS THE ADDRESS OF THE FIRST INSTRUCTION
 24517									;IN THE SUBTEST) TO LOOP ON ERROR^
 24518
 24519					;**********
 24520
 24521
 24522					;THIS TEST VERIFIES THAT THE RESULT OF A FLOATING ONE
 24523					;ADDED TO A FLOATING ONE IS A FLOATING ONE
 24524					;PLACED ONE BIT POSITION LEFT OF THE ORIGINAL FLOATING ONE.
 24525					;THIS TEST IS REPEATED 36 TIMES TO FLOAT A ONE THRU ALL 36 BITS OF THE ADDER.
 24526					;THIS TEST IS DESIGNED TO TEST THE ADDER AND RELATED DATA PATHS ONLY.
 24527
 24528			045702		SN=SN+1
 24529			000002			XX=XX+XX
 24530						IFE	XX,<XX=1>
DFKAA PDP-10 KL10 BASIC INSTRUCTION DIAGNOSTIC (1) VER 0,2	MACRO %52(537) 09:34 31-JAN-77 PAGE 88-1
DFKAA3	MAC	25-AUG-75 13:57		SUPPLEMENTARY ADDER TESTS - FLT 1 + FLT 1                                          SEQ 0542

 24531	044027	551 00 0 00 000002 		HRRZI	XX		;PRELOAD AC WITH A FLOATING ONE
 24532	044030	270 00 0 00 070266 		ADD	[XX]		;ADD A FLOATING ONE TO ITSELF
 24533	044031	312 00 0 00 070267 		CAME	[XX+XX]		;CHECK ADDER UPON FAILURE
 24534						STOP		^
 24535	044032	254 04 0 00 044033 		HALT	.+1		;TEST FAILED IF PROGRAM HALTS HERE
 24536	044033	324 00 0 00 044034 		JUMPA	.+1		;IF TEST FAILS, CHANGE THIS INSTRUCTION (JUMPA .+1) TO
 24537									;JUMPA X (X IS THE ADDRESS OF THE FIRST INSTRUCTION
 24538									;IN THE SUBTEST) TO LOOP ON ERROR^
 24539
 24540					;**********
 24541
 24542
 24543					;THIS TEST VERIFIES THAT THE RESULT OF A FLOATING ONE
 24544					;ADDED TO A FLOATING ONE IS A FLOATING ONE
 24545					;PLACED ONE BIT POSITION LEFT OF THE ORIGINAL FLOATING ONE.
 24546					;THIS TEST IS REPEATED 36 TIMES TO FLOAT A ONE THRU ALL 36 BITS OF THE ADDER.
 24547					;THIS TEST IS DESIGNED TO TEST THE ADDER AND RELATED DATA PATHS ONLY.
 24548
 24549			045703		SN=SN+1
 24550			000004			XX=XX+XX
 24551						IFE	XX,<XX=1>
 24552	044034	551 00 0 00 000004 		HRRZI	XX		;PRELOAD AC WITH A FLOATING ONE
 24553	044035	270 00 0 00 070267 		ADD	[XX]		;ADD A FLOATING ONE TO ITSELF
 24554	044036	312 00 0 00 070270 		CAME	[XX+XX]		;CHECK ADDER UPON FAILURE
 24555						STOP		^
 24556	044037	254 04 0 00 044040 		HALT	.+1		;TEST FAILED IF PROGRAM HALTS HERE
 24557	044040	324 00 0 00 044041 		JUMPA	.+1		;IF TEST FAILS, CHANGE THIS INSTRUCTION (JUMPA .+1) TO
 24558									;JUMPA X (X IS THE ADDRESS OF THE FIRST INSTRUCTION
 24559									;IN THE SUBTEST) TO LOOP ON ERROR^
 24560
 24561					;**********
 24562
 24563
 24564					;THIS TEST VERIFIES THAT THE RESULT OF A FLOATING ONE
 24565					;ADDED TO A FLOATING ONE IS A FLOATING ONE
 24566					;PLACED ONE BIT POSITION LEFT OF THE ORIGINAL FLOATING ONE.
 24567					;THIS TEST IS REPEATED 36 TIMES TO FLOAT A ONE THRU ALL 36 BITS OF THE ADDER.
 24568					;THIS TEST IS DESIGNED TO TEST THE ADDER AND RELATED DATA PATHS ONLY.
 24569
 24570			045704		SN=SN+1
 24571			000010			XX=XX+XX
 24572						IFE	XX,<XX=1>
 24573	044041	551 00 0 00 000010 		HRRZI	XX		;PRELOAD AC WITH A FLOATING ONE
 24574	044042	270 00 0 00 070270 		ADD	[XX]		;ADD A FLOATING ONE TO ITSELF
 24575	044043	312 00 0 00 070271 		CAME	[XX+XX]		;CHECK ADDER UPON FAILURE
 24576						STOP		^
 24577	044044	254 04 0 00 044045 		HALT	.+1		;TEST FAILED IF PROGRAM HALTS HERE
 24578	044045	324 00 0 00 044046 		JUMPA	.+1		;IF TEST FAILS, CHANGE THIS INSTRUCTION (JUMPA .+1) TO
 24579									;JUMPA X (X IS THE ADDRESS OF THE FIRST INSTRUCTION
 24580									;IN THE SUBTEST) TO LOOP ON ERROR^
 24581
 24582					;**********
 24583
 24584
 24585					;THIS TEST VERIFIES THAT THE RESULT OF A FLOATING ONE
DFKAA PDP-10 KL10 BASIC INSTRUCTION DIAGNOSTIC (1) VER 0,2	MACRO %52(537) 09:34 31-JAN-77 PAGE 88-2
DFKAA3	MAC	25-AUG-75 13:57		SUPPLEMENTARY ADDER TESTS - FLT 1 + FLT 1                                          SEQ 0543

 24586					;ADDED TO A FLOATING ONE IS A FLOATING ONE
 24587					;PLACED ONE BIT POSITION LEFT OF THE ORIGINAL FLOATING ONE.
 24588					;THIS TEST IS REPEATED 36 TIMES TO FLOAT A ONE THRU ALL 36 BITS OF THE ADDER.
 24589					;THIS TEST IS DESIGNED TO TEST THE ADDER AND RELATED DATA PATHS ONLY.
 24590
 24591			045705		SN=SN+1
 24592			000020			XX=XX+XX
 24593						IFE	XX,<XX=1>
 24594	044046	551 00 0 00 000020 		HRRZI	XX		;PRELOAD AC WITH A FLOATING ONE
 24595	044047	270 00 0 00 070271 		ADD	[XX]		;ADD A FLOATING ONE TO ITSELF
 24596	044050	312 00 0 00 070272 		CAME	[XX+XX]		;CHECK ADDER UPON FAILURE
 24597						STOP		^
 24598	044051	254 04 0 00 044052 		HALT	.+1		;TEST FAILED IF PROGRAM HALTS HERE
 24599	044052	324 00 0 00 044053 		JUMPA	.+1		;IF TEST FAILS, CHANGE THIS INSTRUCTION (JUMPA .+1) TO
 24600									;JUMPA X (X IS THE ADDRESS OF THE FIRST INSTRUCTION
 24601									;IN THE SUBTEST) TO LOOP ON ERROR^
 24602
 24603					;**********
 24604
 24605
 24606					;THIS TEST VERIFIES THAT THE RESULT OF A FLOATING ONE
 24607					;ADDED TO A FLOATING ONE IS A FLOATING ONE
 24608					;PLACED ONE BIT POSITION LEFT OF THE ORIGINAL FLOATING ONE.
 24609					;THIS TEST IS REPEATED 36 TIMES TO FLOAT A ONE THRU ALL 36 BITS OF THE ADDER.
 24610					;THIS TEST IS DESIGNED TO TEST THE ADDER AND RELATED DATA PATHS ONLY.
 24611
 24612			045706		SN=SN+1
 24613			000040			XX=XX+XX
 24614						IFE	XX,<XX=1>
 24615	044053	551 00 0 00 000040 		HRRZI	XX		;PRELOAD AC WITH A FLOATING ONE
 24616	044054	270 00 0 00 070272 		ADD	[XX]		;ADD A FLOATING ONE TO ITSELF
 24617	044055	312 00 0 00 070273 		CAME	[XX+XX]		;CHECK ADDER UPON FAILURE
 24618						STOP		^
 24619	044056	254 04 0 00 044057 		HALT	.+1		;TEST FAILED IF PROGRAM HALTS HERE
 24620	044057	324 00 0 00 044060 		JUMPA	.+1		;IF TEST FAILS, CHANGE THIS INSTRUCTION (JUMPA .+1) TO
 24621									;JUMPA X (X IS THE ADDRESS OF THE FIRST INSTRUCTION
 24622									;IN THE SUBTEST) TO LOOP ON ERROR^
 24623
 24624					;**********
 24625
 24626
 24627					;THIS TEST VERIFIES THAT THE RESULT OF A FLOATING ONE
 24628					;ADDED TO A FLOATING ONE IS A FLOATING ONE
 24629					;PLACED ONE BIT POSITION LEFT OF THE ORIGINAL FLOATING ONE.
 24630					;THIS TEST IS REPEATED 36 TIMES TO FLOAT A ONE THRU ALL 36 BITS OF THE ADDER.
 24631					;THIS TEST IS DESIGNED TO TEST THE ADDER AND RELATED DATA PATHS ONLY.
 24632
 24633			045707		SN=SN+1
 24634			000100			XX=XX+XX
 24635						IFE	XX,<XX=1>
 24636	044060	551 00 0 00 000100 		HRRZI	XX		;PRELOAD AC WITH A FLOATING ONE
 24637	044061	270 00 0 00 070273 		ADD	[XX]		;ADD A FLOATING ONE TO ITSELF
 24638	044062	312 00 0 00 070274 		CAME	[XX+XX]		;CHECK ADDER UPON FAILURE
 24639						STOP		^
 24640	044063	254 04 0 00 044064 		HALT	.+1		;TEST FAILED IF PROGRAM HALTS HERE
DFKAA PDP-10 KL10 BASIC INSTRUCTION DIAGNOSTIC (1) VER 0,2	MACRO %52(537) 09:34 31-JAN-77 PAGE 88-3
DFKAA3	MAC	25-AUG-75 13:57		SUPPLEMENTARY ADDER TESTS - FLT 1 + FLT 1                                          SEQ 0544

 24641	044064	324 00 0 00 044065 		JUMPA	.+1		;IF TEST FAILS, CHANGE THIS INSTRUCTION (JUMPA .+1) TO
 24642									;JUMPA X (X IS THE ADDRESS OF THE FIRST INSTRUCTION
 24643									;IN THE SUBTEST) TO LOOP ON ERROR^
 24644
 24645					;**********
 24646
 24647
 24648					;THIS TEST VERIFIES THAT THE RESULT OF A FLOATING ONE
 24649					;ADDED TO A FLOATING ONE IS A FLOATING ONE
 24650					;PLACED ONE BIT POSITION LEFT OF THE ORIGINAL FLOATING ONE.
 24651					;THIS TEST IS REPEATED 36 TIMES TO FLOAT A ONE THRU ALL 36 BITS OF THE ADDER.
 24652					;THIS TEST IS DESIGNED TO TEST THE ADDER AND RELATED DATA PATHS ONLY.
 24653
 24654			045710		SN=SN+1
 24655			000200			XX=XX+XX
 24656						IFE	XX,<XX=1>
 24657	044065	551 00 0 00 000200 		HRRZI	XX		;PRELOAD AC WITH A FLOATING ONE
 24658	044066	270 00 0 00 070274 		ADD	[XX]		;ADD A FLOATING ONE TO ITSELF
 24659	044067	312 00 0 00 070275 		CAME	[XX+XX]		;CHECK ADDER UPON FAILURE
 24660						STOP		^
 24661	044070	254 04 0 00 044071 		HALT	.+1		;TEST FAILED IF PROGRAM HALTS HERE
 24662	044071	324 00 0 00 044072 		JUMPA	.+1		;IF TEST FAILS, CHANGE THIS INSTRUCTION (JUMPA .+1) TO
 24663									;JUMPA X (X IS THE ADDRESS OF THE FIRST INSTRUCTION
 24664									;IN THE SUBTEST) TO LOOP ON ERROR^
 24665
 24666					;**********
 24667
 24668
 24669					;THIS TEST VERIFIES THAT THE RESULT OF A FLOATING ONE
 24670					;ADDED TO A FLOATING ONE IS A FLOATING ONE
 24671					;PLACED ONE BIT POSITION LEFT OF THE ORIGINAL FLOATING ONE.
 24672					;THIS TEST IS REPEATED 36 TIMES TO FLOAT A ONE THRU ALL 36 BITS OF THE ADDER.
 24673					;THIS TEST IS DESIGNED TO TEST THE ADDER AND RELATED DATA PATHS ONLY.
 24674
 24675			045711		SN=SN+1
 24676			000400			XX=XX+XX
 24677						IFE	XX,<XX=1>
 24678	044072	551 00 0 00 000400 		HRRZI	XX		;PRELOAD AC WITH A FLOATING ONE
 24679	044073	270 00 0 00 070275 		ADD	[XX]		;ADD A FLOATING ONE TO ITSELF
 24680	044074	312 00 0 00 070276 		CAME	[XX+XX]		;CHECK ADDER UPON FAILURE
 24681						STOP		^
 24682	044075	254 04 0 00 044076 		HALT	.+1		;TEST FAILED IF PROGRAM HALTS HERE
 24683	044076	324 00 0 00 044077 		JUMPA	.+1		;IF TEST FAILS, CHANGE THIS INSTRUCTION (JUMPA .+1) TO
 24684									;JUMPA X (X IS THE ADDRESS OF THE FIRST INSTRUCTION
 24685									;IN THE SUBTEST) TO LOOP ON ERROR^
 24686
 24687					;**********
 24688
 24689
 24690					;THIS TEST VERIFIES THAT THE RESULT OF A FLOATING ONE
 24691					;ADDED TO A FLOATING ONE IS A FLOATING ONE
 24692					;PLACED ONE BIT POSITION LEFT OF THE ORIGINAL FLOATING ONE.
 24693					;THIS TEST IS REPEATED 36 TIMES TO FLOAT A ONE THRU ALL 36 BITS OF THE ADDER.
 24694					;THIS TEST IS DESIGNED TO TEST THE ADDER AND RELATED DATA PATHS ONLY.
 24695
DFKAA PDP-10 KL10 BASIC INSTRUCTION DIAGNOSTIC (1) VER 0,2	MACRO %52(537) 09:34 31-JAN-77 PAGE 88-4
DFKAA3	MAC	25-AUG-75 13:57		SUPPLEMENTARY ADDER TESTS - FLT 1 + FLT 1                                          SEQ 0545

 24696			045712		SN=SN+1
 24697			001000			XX=XX+XX
 24698						IFE	XX,<XX=1>
 24699	044077	551 00 0 00 001000 		HRRZI	XX		;PRELOAD AC WITH A FLOATING ONE
 24700	044100	270 00 0 00 070276 		ADD	[XX]		;ADD A FLOATING ONE TO ITSELF
 24701	044101	312 00 0 00 070277 		CAME	[XX+XX]		;CHECK ADDER UPON FAILURE
 24702						STOP		^
 24703	044102	254 04 0 00 044103 		HALT	.+1		;TEST FAILED IF PROGRAM HALTS HERE
 24704	044103	324 00 0 00 044104 		JUMPA	.+1		;IF TEST FAILS, CHANGE THIS INSTRUCTION (JUMPA .+1) TO
 24705									;JUMPA X (X IS THE ADDRESS OF THE FIRST INSTRUCTION
 24706									;IN THE SUBTEST) TO LOOP ON ERROR^
 24707
 24708					;**********
 24709
 24710
 24711					;THIS TEST VERIFIES THAT THE RESULT OF A FLOATING ONE
 24712					;ADDED TO A FLOATING ONE IS A FLOATING ONE
 24713					;PLACED ONE BIT POSITION LEFT OF THE ORIGINAL FLOATING ONE.
 24714					;THIS TEST IS REPEATED 36 TIMES TO FLOAT A ONE THRU ALL 36 BITS OF THE ADDER.
 24715					;THIS TEST IS DESIGNED TO TEST THE ADDER AND RELATED DATA PATHS ONLY.
 24716
 24717			045713		SN=SN+1
 24718			002000			XX=XX+XX
 24719						IFE	XX,<XX=1>
 24720	044104	551 00 0 00 002000 		HRRZI	XX		;PRELOAD AC WITH A FLOATING ONE
 24721	044105	270 00 0 00 070277 		ADD	[XX]		;ADD A FLOATING ONE TO ITSELF
 24722	044106	312 00 0 00 070300 		CAME	[XX+XX]		;CHECK ADDER UPON FAILURE
 24723						STOP		^
 24724	044107	254 04 0 00 044110 		HALT	.+1		;TEST FAILED IF PROGRAM HALTS HERE
 24725	044110	324 00 0 00 044111 		JUMPA	.+1		;IF TEST FAILS, CHANGE THIS INSTRUCTION (JUMPA .+1) TO
 24726									;JUMPA X (X IS THE ADDRESS OF THE FIRST INSTRUCTION
 24727									;IN THE SUBTEST) TO LOOP ON ERROR^
 24728
 24729					;**********
 24730
 24731
 24732					;THIS TEST VERIFIES THAT THE RESULT OF A FLOATING ONE
 24733					;ADDED TO A FLOATING ONE IS A FLOATING ONE
 24734					;PLACED ONE BIT POSITION LEFT OF THE ORIGINAL FLOATING ONE.
 24735					;THIS TEST IS REPEATED 36 TIMES TO FLOAT A ONE THRU ALL 36 BITS OF THE ADDER.
 24736					;THIS TEST IS DESIGNED TO TEST THE ADDER AND RELATED DATA PATHS ONLY.
 24737
 24738			045714		SN=SN+1
 24739			004000			XX=XX+XX
 24740						IFE	XX,<XX=1>
 24741	044111	551 00 0 00 004000 		HRRZI	XX		;PRELOAD AC WITH A FLOATING ONE
 24742	044112	270 00 0 00 070300 		ADD	[XX]		;ADD A FLOATING ONE TO ITSELF
 24743	044113	312 00 0 00 070301 		CAME	[XX+XX]		;CHECK ADDER UPON FAILURE
 24744						STOP		^
 24745	044114	254 04 0 00 044115 		HALT	.+1		;TEST FAILED IF PROGRAM HALTS HERE
 24746	044115	324 00 0 00 044116 		JUMPA	.+1		;IF TEST FAILS, CHANGE THIS INSTRUCTION (JUMPA .+1) TO
 24747									;JUMPA X (X IS THE ADDRESS OF THE FIRST INSTRUCTION
 24748									;IN THE SUBTEST) TO LOOP ON ERROR^
 24749
 24750					;**********
DFKAA PDP-10 KL10 BASIC INSTRUCTION DIAGNOSTIC (1) VER 0,2	MACRO %52(537) 09:34 31-JAN-77 PAGE 88-5
DFKAA3	MAC	25-AUG-75 13:57		SUPPLEMENTARY ADDER TESTS - FLT 1 + FLT 1                                          SEQ 0546

 24751
 24752
 24753					;THIS TEST VERIFIES THAT THE RESULT OF A FLOATING ONE
 24754					;ADDED TO A FLOATING ONE IS A FLOATING ONE
 24755					;PLACED ONE BIT POSITION LEFT OF THE ORIGINAL FLOATING ONE.
 24756					;THIS TEST IS REPEATED 36 TIMES TO FLOAT A ONE THRU ALL 36 BITS OF THE ADDER.
 24757					;THIS TEST IS DESIGNED TO TEST THE ADDER AND RELATED DATA PATHS ONLY.
 24758
 24759			045715		SN=SN+1
 24760			010000			XX=XX+XX
 24761						IFE	XX,<XX=1>
 24762	044116	551 00 0 00 010000 		HRRZI	XX		;PRELOAD AC WITH A FLOATING ONE
 24763	044117	270 00 0 00 070301 		ADD	[XX]		;ADD A FLOATING ONE TO ITSELF
 24764	044120	312 00 0 00 070302 		CAME	[XX+XX]		;CHECK ADDER UPON FAILURE
 24765						STOP		^
 24766	044121	254 04 0 00 044122 		HALT	.+1		;TEST FAILED IF PROGRAM HALTS HERE
 24767	044122	324 00 0 00 044123 		JUMPA	.+1		;IF TEST FAILS, CHANGE THIS INSTRUCTION (JUMPA .+1) TO
 24768									;JUMPA X (X IS THE ADDRESS OF THE FIRST INSTRUCTION
 24769									;IN THE SUBTEST) TO LOOP ON ERROR^
 24770
 24771					;**********
 24772
 24773
 24774					;THIS TEST VERIFIES THAT THE RESULT OF A FLOATING ONE
 24775					;ADDED TO A FLOATING ONE IS A FLOATING ONE
 24776					;PLACED ONE BIT POSITION LEFT OF THE ORIGINAL FLOATING ONE.
 24777					;THIS TEST IS REPEATED 36 TIMES TO FLOAT A ONE THRU ALL 36 BITS OF THE ADDER.
 24778					;THIS TEST IS DESIGNED TO TEST THE ADDER AND RELATED DATA PATHS ONLY.
 24779
 24780			045716		SN=SN+1
 24781			020000			XX=XX+XX
 24782						IFE	XX,<XX=1>
 24783	044123	551 00 0 00 020000 		HRRZI	XX		;PRELOAD AC WITH A FLOATING ONE
 24784	044124	270 00 0 00 070302 		ADD	[XX]		;ADD A FLOATING ONE TO ITSELF
 24785	044125	312 00 0 00 070303 		CAME	[XX+XX]		;CHECK ADDER UPON FAILURE
 24786						STOP		^
 24787	044126	254 04 0 00 044127 		HALT	.+1		;TEST FAILED IF PROGRAM HALTS HERE
 24788	044127	324 00 0 00 044130 		JUMPA	.+1		;IF TEST FAILS, CHANGE THIS INSTRUCTION (JUMPA .+1) TO
 24789									;JUMPA X (X IS THE ADDRESS OF THE FIRST INSTRUCTION
 24790									;IN THE SUBTEST) TO LOOP ON ERROR^
 24791
 24792					;**********
 24793
 24794
 24795					;THIS TEST VERIFIES THAT THE RESULT OF A FLOATING ONE
 24796					;ADDED TO A FLOATING ONE IS A FLOATING ONE
 24797					;PLACED ONE BIT POSITION LEFT OF THE ORIGINAL FLOATING ONE.
 24798					;THIS TEST IS REPEATED 36 TIMES TO FLOAT A ONE THRU ALL 36 BITS OF THE ADDER.
 24799					;THIS TEST IS DESIGNED TO TEST THE ADDER AND RELATED DATA PATHS ONLY.
 24800
 24801			045717		SN=SN+1
 24802			040000			XX=XX+XX
 24803						IFE	XX,<XX=1>
 24804	044130	551 00 0 00 040000 		HRRZI	XX		;PRELOAD AC WITH A FLOATING ONE
 24805	044131	270 00 0 00 070303 		ADD	[XX]		;ADD A FLOATING ONE TO ITSELF
DFKAA PDP-10 KL10 BASIC INSTRUCTION DIAGNOSTIC (1) VER 0,2	MACRO %52(537) 09:34 31-JAN-77 PAGE 88-6
DFKAA3	MAC	25-AUG-75 13:57		SUPPLEMENTARY ADDER TESTS - FLT 1 + FLT 1                                          SEQ 0547

 24806	044132	312 00 0 00 070304 		CAME	[XX+XX]		;CHECK ADDER UPON FAILURE
 24807						STOP		^
 24808	044133	254 04 0 00 044134 		HALT	.+1		;TEST FAILED IF PROGRAM HALTS HERE
 24809	044134	324 00 0 00 044135 		JUMPA	.+1		;IF TEST FAILS, CHANGE THIS INSTRUCTION (JUMPA .+1) TO
 24810									;JUMPA X (X IS THE ADDRESS OF THE FIRST INSTRUCTION
 24811									;IN THE SUBTEST) TO LOOP ON ERROR^
 24812
 24813					;**********
 24814
 24815
 24816					;THIS TEST VERIFIES THAT THE RESULT OF A FLOATING ONE
 24817					;ADDED TO A FLOATING ONE IS A FLOATING ONE
 24818					;PLACED ONE BIT POSITION LEFT OF THE ORIGINAL FLOATING ONE.
 24819					;THIS TEST IS REPEATED 36 TIMES TO FLOAT A ONE THRU ALL 36 BITS OF THE ADDER.
 24820					;THIS TEST IS DESIGNED TO TEST THE ADDER AND RELATED DATA PATHS ONLY.
 24821
 24822			045720		SN=SN+1
 24823			100000			XX=XX+XX
 24824						IFE	XX,<XX=1>
 24825	044135	551 00 0 00 100000 		HRRZI	XX		;PRELOAD AC WITH A FLOATING ONE
 24826	044136	270 00 0 00 070304 		ADD	[XX]		;ADD A FLOATING ONE TO ITSELF
 24827	044137	312 00 0 00 070305 		CAME	[XX+XX]		;CHECK ADDER UPON FAILURE
 24828						STOP		^
 24829	044140	254 04 0 00 044141 		HALT	.+1		;TEST FAILED IF PROGRAM HALTS HERE
 24830	044141	324 00 0 00 044142 		JUMPA	.+1		;IF TEST FAILS, CHANGE THIS INSTRUCTION (JUMPA .+1) TO
 24831									;JUMPA X (X IS THE ADDRESS OF THE FIRST INSTRUCTION
 24832									;IN THE SUBTEST) TO LOOP ON ERROR^
 24833
 24834					;**********
 24835
 24836
 24837					;THIS TEST VERIFIES THAT THE RESULT OF A FLOATING ONE
 24838					;ADDED TO A FLOATING ONE IS A FLOATING ONE
 24839					;PLACED ONE BIT POSITION LEFT OF THE ORIGINAL FLOATING ONE.
 24840					;THIS TEST IS REPEATED 36 TIMES TO FLOAT A ONE THRU ALL 36 BITS OF THE ADDER.
 24841					;THIS TEST IS DESIGNED TO TEST THE ADDER AND RELATED DATA PATHS ONLY.
 24842
 24843			045721		SN=SN+1
 24844			200000			XX=XX+XX
 24845						IFE	XX,<XX=1>
 24846	044142	551 00 0 00 200000 		HRRZI	XX		;PRELOAD AC WITH A FLOATING ONE
 24847	044143	270 00 0 00 070305 		ADD	[XX]		;ADD A FLOATING ONE TO ITSELF
 24848	044144	312 00 0 00 070306 		CAME	[XX+XX]		;CHECK ADDER UPON FAILURE
 24849						STOP		^
 24850	044145	254 04 0 00 044146 		HALT	.+1		;TEST FAILED IF PROGRAM HALTS HERE
 24851	044146	324 00 0 00 044147 		JUMPA	.+1		;IF TEST FAILS, CHANGE THIS INSTRUCTION (JUMPA .+1) TO
 24852									;JUMPA X (X IS THE ADDRESS OF THE FIRST INSTRUCTION
 24853									;IN THE SUBTEST) TO LOOP ON ERROR^
 24854
 24855					;**********
 24856
 24857					PAGE
DFKAA PDP-10 KL10 BASIC INSTRUCTION DIAGNOSTIC (1) VER 0,2	MACRO %52(537) 09:34 31-JAN-77 PAGE 88-7
DFKAA3	MAC	25-AUG-75 13:57		SUPPLEMENTARY ADDER TESTS - FLT 1 + FLT 1                                          SEQ 0548

 24858					;THIS TEST VERIFIES THAT THE RESULT OF A FLOATING ONE
 24859					;ADDED TO A FLOATING ONE IS A FLOATING ONE
 24860					;PLACED ONE BIT POSITION LEFT OF THE ORIGINAL FLOATING ONE.
 24861					;THIS TEST IS REPEATED 36 TIMES TO FLOAT A ONE THRU ALL 36 BITS OF THE ADDER.
 24862					;THIS TEST IS DESIGNED TO TEST THE ADDER AND RELATED DATA PATHS ONLY.
 24863			045722		SN=SN+1
 24864			400000			XX=XX+XX
 24865	044147	551 00 0 00 400000 		HRRZI	XX		;PRELOAD AC WITH A FLOATING ONE
 24866	044150	270 00 0 00 070306 		ADD	[XX]		;ADD A FLOATING ONE TO ITSELF
 24867	044151	312 00 0 00 070307 		CAME	[1,,0]		;CHECK ADDRESS UPON FAILURE
 24868						STOP		^
 24869	044152	254 04 0 00 044153 		HALT	.+1		;TEST FAILED IF PROGRAM HALTS HERE
 24870	044153	324 00 0 00 044154 		JUMPA	.+1		;IF TEST FAILS, CHANGE THIS INSTRUCTION (JUMPA .+1) TO
 24871									;JUMPA X (X IS THE ADDRESS OF THE FIRST INSTRUCTION
 24872									;IN THE SUBTEST) TO LOOP ON ERROR^
 24873
 24874					;**********
 24875
 24876			000000			XX=0
 24877
 24878						REPEAT	^D17,<
 24879					;THIS TEST VERIFIES THAT THE RESULT OF A FLOATING ONE
 24880					;ADDED TO A FLOATING ONE IS A FLOATING ONE
 24881					;PLACED ONE BIT POSITION LEFT OF THE ORIGINAL FLOATING ONE.
 24882					;THIS TEST IS REPEATED 36 TIMES TO FLOAT A ONE THRU ALL 36 BITS OF THE ADDER.
 24883					;THIS TEST IS DESIGNED TO TEST THE ADDER AND RELATED DATA PATHS ONLY.
 24884
 24885					SN=SN+1
 24886						XX=XX+XX
 24887						IFE	XX,<XX=1>
 24888						HRLZI	XX		;PRELOAD AC WITH A FLOATING ONE
 24889						ADD	[XX,,0]		;ADD A FLOATING ONE TO ITSELF
 24890						CAME	[XX+XX,,0]	;CHECK ADDER UPON FAILURE
 24891						STOP
 24892
 24893					;**********
 24894					>
 24895
 24896					;THIS TEST VERIFIES THAT THE RESULT OF A FLOATING ONE
 24897					;ADDED TO A FLOATING ONE IS A FLOATING ONE
 24898					;PLACED ONE BIT POSITION LEFT OF THE ORIGINAL FLOATING ONE.
 24899					;THIS TEST IS REPEATED 36 TIMES TO FLOAT A ONE THRU ALL 36 BITS OF THE ADDER.
 24900					;THIS TEST IS DESIGNED TO TEST THE ADDER AND RELATED DATA PATHS ONLY.
 24901
 24902			045723		SN=SN+1
 24903			000000			XX=XX+XX
 24904			000001			IFE	XX,<XX=1>
 24905	044154	515 00 0 00 000001 		HRLZI	XX		;PRELOAD AC WITH A FLOATING ONE
 24906	044155	270 00 0 00 070307 		ADD	[XX,,0]		;ADD A FLOATING ONE TO ITSELF
 24907	044156	312 00 0 00 070310 		CAME	[XX+XX,,0]	;CHECK ADDER UPON FAILURE
 24908						STOP		^
 24909	044157	254 04 0 00 044160 		HALT	.+1		;TEST FAILED IF PROGRAM HALTS HERE
 24910	044160	324 00 0 00 044161 		JUMPA	.+1		;IF TEST FAILS, CHANGE THIS INSTRUCTION (JUMPA .+1) TO
 24911									;JUMPA X (X IS THE ADDRESS OF THE FIRST INSTRUCTION
 24912									;IN THE SUBTEST) TO LOOP ON ERROR^
DFKAA PDP-10 KL10 BASIC INSTRUCTION DIAGNOSTIC (1) VER 0,2	MACRO %52(537) 09:34 31-JAN-77 PAGE 88-8
DFKAA3	MAC	25-AUG-75 13:57		SUPPLEMENTARY ADDER TESTS - FLT 1 + FLT 1                                          SEQ 0549

 24913
 24914					;**********
 24915
 24916
 24917					;THIS TEST VERIFIES THAT THE RESULT OF A FLOATING ONE
 24918					;ADDED TO A FLOATING ONE IS A FLOATING ONE
 24919					;PLACED ONE BIT POSITION LEFT OF THE ORIGINAL FLOATING ONE.
 24920					;THIS TEST IS REPEATED 36 TIMES TO FLOAT A ONE THRU ALL 36 BITS OF THE ADDER.
 24921					;THIS TEST IS DESIGNED TO TEST THE ADDER AND RELATED DATA PATHS ONLY.
 24922
 24923			045724		SN=SN+1
 24924			000002			XX=XX+XX
 24925						IFE	XX,<XX=1>
 24926	044161	515 00 0 00 000002 		HRLZI	XX		;PRELOAD AC WITH A FLOATING ONE
 24927	044162	270 00 0 00 070310 		ADD	[XX,,0]		;ADD A FLOATING ONE TO ITSELF
 24928	044163	312 00 0 00 070311 		CAME	[XX+XX,,0]	;CHECK ADDER UPON FAILURE
 24929						STOP		^
 24930	044164	254 04 0 00 044165 		HALT	.+1		;TEST FAILED IF PROGRAM HALTS HERE
 24931	044165	324 00 0 00 044166 		JUMPA	.+1		;IF TEST FAILS, CHANGE THIS INSTRUCTION (JUMPA .+1) TO
 24932									;JUMPA X (X IS THE ADDRESS OF THE FIRST INSTRUCTION
 24933									;IN THE SUBTEST) TO LOOP ON ERROR^
 24934
 24935					;**********
 24936
 24937
 24938					;THIS TEST VERIFIES THAT THE RESULT OF A FLOATING ONE
 24939					;ADDED TO A FLOATING ONE IS A FLOATING ONE
 24940					;PLACED ONE BIT POSITION LEFT OF THE ORIGINAL FLOATING ONE.
 24941					;THIS TEST IS REPEATED 36 TIMES TO FLOAT A ONE THRU ALL 36 BITS OF THE ADDER.
 24942					;THIS TEST IS DESIGNED TO TEST THE ADDER AND RELATED DATA PATHS ONLY.
 24943
 24944			045725		SN=SN+1
 24945			000004			XX=XX+XX
 24946						IFE	XX,<XX=1>
 24947	044166	515 00 0 00 000004 		HRLZI	XX		;PRELOAD AC WITH A FLOATING ONE
 24948	044167	270 00 0 00 070311 		ADD	[XX,,0]		;ADD A FLOATING ONE TO ITSELF
 24949	044170	312 00 0 00 070312 		CAME	[XX+XX,,0]	;CHECK ADDER UPON FAILURE
 24950						STOP		^
 24951	044171	254 04 0 00 044172 		HALT	.+1		;TEST FAILED IF PROGRAM HALTS HERE
 24952	044172	324 00 0 00 044173 		JUMPA	.+1		;IF TEST FAILS, CHANGE THIS INSTRUCTION (JUMPA .+1) TO
 24953									;JUMPA X (X IS THE ADDRESS OF THE FIRST INSTRUCTION
 24954									;IN THE SUBTEST) TO LOOP ON ERROR^
 24955
 24956					;**********
 24957
 24958
 24959					;THIS TEST VERIFIES THAT THE RESULT OF A FLOATING ONE
 24960					;ADDED TO A FLOATING ONE IS A FLOATING ONE
 24961					;PLACED ONE BIT POSITION LEFT OF THE ORIGINAL FLOATING ONE.
 24962					;THIS TEST IS REPEATED 36 TIMES TO FLOAT A ONE THRU ALL 36 BITS OF THE ADDER.
 24963					;THIS TEST IS DESIGNED TO TEST THE ADDER AND RELATED DATA PATHS ONLY.
 24964
 24965			045726		SN=SN+1
 24966			000010			XX=XX+XX
 24967						IFE	XX,<XX=1>
DFKAA PDP-10 KL10 BASIC INSTRUCTION DIAGNOSTIC (1) VER 0,2	MACRO %52(537) 09:34 31-JAN-77 PAGE 88-9
DFKAA3	MAC	25-AUG-75 13:57		SUPPLEMENTARY ADDER TESTS - FLT 1 + FLT 1                                          SEQ 0550

 24968	044173	515 00 0 00 000010 		HRLZI	XX		;PRELOAD AC WITH A FLOATING ONE
 24969	044174	270 00 0 00 070312 		ADD	[XX,,0]		;ADD A FLOATING ONE TO ITSELF
 24970	044175	312 00 0 00 070313 		CAME	[XX+XX,,0]	;CHECK ADDER UPON FAILURE
 24971						STOP		^
 24972	044176	254 04 0 00 044177 		HALT	.+1		;TEST FAILED IF PROGRAM HALTS HERE
 24973	044177	324 00 0 00 044200 		JUMPA	.+1		;IF TEST FAILS, CHANGE THIS INSTRUCTION (JUMPA .+1) TO
 24974									;JUMPA X (X IS THE ADDRESS OF THE FIRST INSTRUCTION
 24975									;IN THE SUBTEST) TO LOOP ON ERROR^
 24976
 24977					;**********
 24978
 24979
 24980					;THIS TEST VERIFIES THAT THE RESULT OF A FLOATING ONE
 24981					;ADDED TO A FLOATING ONE IS A FLOATING ONE
 24982					;PLACED ONE BIT POSITION LEFT OF THE ORIGINAL FLOATING ONE.
 24983					;THIS TEST IS REPEATED 36 TIMES TO FLOAT A ONE THRU ALL 36 BITS OF THE ADDER.
 24984					;THIS TEST IS DESIGNED TO TEST THE ADDER AND RELATED DATA PATHS ONLY.
 24985
 24986			045727		SN=SN+1
 24987			000020			XX=XX+XX
 24988						IFE	XX,<XX=1>
 24989	044200	515 00 0 00 000020 		HRLZI	XX		;PRELOAD AC WITH A FLOATING ONE
 24990	044201	270 00 0 00 070313 		ADD	[XX,,0]		;ADD A FLOATING ONE TO ITSELF
 24991	044202	312 00 0 00 070314 		CAME	[XX+XX,,0]	;CHECK ADDER UPON FAILURE
 24992						STOP		^
 24993	044203	254 04 0 00 044204 		HALT	.+1		;TEST FAILED IF PROGRAM HALTS HERE
 24994	044204	324 00 0 00 044205 		JUMPA	.+1		;IF TEST FAILS, CHANGE THIS INSTRUCTION (JUMPA .+1) TO
 24995									;JUMPA X (X IS THE ADDRESS OF THE FIRST INSTRUCTION
 24996									;IN THE SUBTEST) TO LOOP ON ERROR^
 24997
 24998					;**********
 24999
 25000
 25001					;THIS TEST VERIFIES THAT THE RESULT OF A FLOATING ONE
 25002					;ADDED TO A FLOATING ONE IS A FLOATING ONE
 25003					;PLACED ONE BIT POSITION LEFT OF THE ORIGINAL FLOATING ONE.
 25004					;THIS TEST IS REPEATED 36 TIMES TO FLOAT A ONE THRU ALL 36 BITS OF THE ADDER.
 25005					;THIS TEST IS DESIGNED TO TEST THE ADDER AND RELATED DATA PATHS ONLY.
 25006
 25007			045730		SN=SN+1
 25008			000040			XX=XX+XX
 25009						IFE	XX,<XX=1>
 25010	044205	515 00 0 00 000040 		HRLZI	XX		;PRELOAD AC WITH A FLOATING ONE
 25011	044206	270 00 0 00 070314 		ADD	[XX,,0]		;ADD A FLOATING ONE TO ITSELF
 25012	044207	312 00 0 00 070315 		CAME	[XX+XX,,0]	;CHECK ADDER UPON FAILURE
 25013						STOP		^
 25014	044210	254 04 0 00 044211 		HALT	.+1		;TEST FAILED IF PROGRAM HALTS HERE
 25015	044211	324 00 0 00 044212 		JUMPA	.+1		;IF TEST FAILS, CHANGE THIS INSTRUCTION (JUMPA .+1) TO
 25016									;JUMPA X (X IS THE ADDRESS OF THE FIRST INSTRUCTION
 25017									;IN THE SUBTEST) TO LOOP ON ERROR^
 25018
 25019					;**********
 25020
 25021
 25022					;THIS TEST VERIFIES THAT THE RESULT OF A FLOATING ONE
DFKAA PDP-10 KL10 BASIC INSTRUCTION DIAGNOSTIC (1) VER 0,2	MACRO %52(537) 09:34 31-JAN-77 PAGE 88-10
DFKAA3	MAC	25-AUG-75 13:57		SUPPLEMENTARY ADDER TESTS - FLT 1 + FLT 1                                          SEQ 0551

 25023					;ADDED TO A FLOATING ONE IS A FLOATING ONE
 25024					;PLACED ONE BIT POSITION LEFT OF THE ORIGINAL FLOATING ONE.
 25025					;THIS TEST IS REPEATED 36 TIMES TO FLOAT A ONE THRU ALL 36 BITS OF THE ADDER.
 25026					;THIS TEST IS DESIGNED TO TEST THE ADDER AND RELATED DATA PATHS ONLY.
 25027
 25028			045731		SN=SN+1
 25029			000100			XX=XX+XX
 25030						IFE	XX,<XX=1>
 25031	044212	515 00 0 00 000100 		HRLZI	XX		;PRELOAD AC WITH A FLOATING ONE
 25032	044213	270 00 0 00 070315 		ADD	[XX,,0]		;ADD A FLOATING ONE TO ITSELF
 25033	044214	312 00 0 00 070316 		CAME	[XX+XX,,0]	;CHECK ADDER UPON FAILURE
 25034						STOP		^
 25035	044215	254 04 0 00 044216 		HALT	.+1		;TEST FAILED IF PROGRAM HALTS HERE
 25036	044216	324 00 0 00 044217 		JUMPA	.+1		;IF TEST FAILS, CHANGE THIS INSTRUCTION (JUMPA .+1) TO
 25037									;JUMPA X (X IS THE ADDRESS OF THE FIRST INSTRUCTION
 25038									;IN THE SUBTEST) TO LOOP ON ERROR^
 25039
 25040					;**********
 25041
 25042
 25043					;THIS TEST VERIFIES THAT THE RESULT OF A FLOATING ONE
 25044					;ADDED TO A FLOATING ONE IS A FLOATING ONE
 25045					;PLACED ONE BIT POSITION LEFT OF THE ORIGINAL FLOATING ONE.
 25046					;THIS TEST IS REPEATED 36 TIMES TO FLOAT A ONE THRU ALL 36 BITS OF THE ADDER.
 25047					;THIS TEST IS DESIGNED TO TEST THE ADDER AND RELATED DATA PATHS ONLY.
 25048
 25049			045732		SN=SN+1
 25050			000200			XX=XX+XX
 25051						IFE	XX,<XX=1>
 25052	044217	515 00 0 00 000200 		HRLZI	XX		;PRELOAD AC WITH A FLOATING ONE
 25053	044220	270 00 0 00 070316 		ADD	[XX,,0]		;ADD A FLOATING ONE TO ITSELF
 25054	044221	312 00 0 00 070264 		CAME	[XX+XX,,0]	;CHECK ADDER UPON FAILURE
 25055						STOP		^
 25056	044222	254 04 0 00 044223 		HALT	.+1		;TEST FAILED IF PROGRAM HALTS HERE
 25057	044223	324 00 0 00 044224 		JUMPA	.+1		;IF TEST FAILS, CHANGE THIS INSTRUCTION (JUMPA .+1) TO
 25058									;JUMPA X (X IS THE ADDRESS OF THE FIRST INSTRUCTION
 25059									;IN THE SUBTEST) TO LOOP ON ERROR^
 25060
 25061					;**********
 25062
 25063
 25064					;THIS TEST VERIFIES THAT THE RESULT OF A FLOATING ONE
 25065					;ADDED TO A FLOATING ONE IS A FLOATING ONE
 25066					;PLACED ONE BIT POSITION LEFT OF THE ORIGINAL FLOATING ONE.
 25067					;THIS TEST IS REPEATED 36 TIMES TO FLOAT A ONE THRU ALL 36 BITS OF THE ADDER.
 25068					;THIS TEST IS DESIGNED TO TEST THE ADDER AND RELATED DATA PATHS ONLY.
 25069
 25070			045733		SN=SN+1
 25071			000400			XX=XX+XX
 25072						IFE	XX,<XX=1>
 25073	044224	515 00 0 00 000400 		HRLZI	XX		;PRELOAD AC WITH A FLOATING ONE
 25074	044225	270 00 0 00 070264 		ADD	[XX,,0]		;ADD A FLOATING ONE TO ITSELF
 25075	044226	312 00 0 00 070317 		CAME	[XX+XX,,0]	;CHECK ADDER UPON FAILURE
 25076						STOP		^
 25077	044227	254 04 0 00 044230 		HALT	.+1		;TEST FAILED IF PROGRAM HALTS HERE
DFKAA PDP-10 KL10 BASIC INSTRUCTION DIAGNOSTIC (1) VER 0,2	MACRO %52(537) 09:34 31-JAN-77 PAGE 88-11
DFKAA3	MAC	25-AUG-75 13:57		SUPPLEMENTARY ADDER TESTS - FLT 1 + FLT 1                                          SEQ 0552

 25078	044230	324 00 0 00 044231 		JUMPA	.+1		;IF TEST FAILS, CHANGE THIS INSTRUCTION (JUMPA .+1) TO
 25079									;JUMPA X (X IS THE ADDRESS OF THE FIRST INSTRUCTION
 25080									;IN THE SUBTEST) TO LOOP ON ERROR^
 25081
 25082					;**********
 25083
 25084
 25085					;THIS TEST VERIFIES THAT THE RESULT OF A FLOATING ONE
 25086					;ADDED TO A FLOATING ONE IS A FLOATING ONE
 25087					;PLACED ONE BIT POSITION LEFT OF THE ORIGINAL FLOATING ONE.
 25088					;THIS TEST IS REPEATED 36 TIMES TO FLOAT A ONE THRU ALL 36 BITS OF THE ADDER.
 25089					;THIS TEST IS DESIGNED TO TEST THE ADDER AND RELATED DATA PATHS ONLY.
 25090
 25091			045734		SN=SN+1
 25092			001000			XX=XX+XX
 25093						IFE	XX,<XX=1>
 25094	044231	515 00 0 00 001000 		HRLZI	XX		;PRELOAD AC WITH A FLOATING ONE
 25095	044232	270 00 0 00 070317 		ADD	[XX,,0]		;ADD A FLOATING ONE TO ITSELF
 25096	044233	312 00 0 00 070320 		CAME	[XX+XX,,0]	;CHECK ADDER UPON FAILURE
 25097						STOP		^
 25098	044234	254 04 0 00 044235 		HALT	.+1		;TEST FAILED IF PROGRAM HALTS HERE
 25099	044235	324 00 0 00 044236 		JUMPA	.+1		;IF TEST FAILS, CHANGE THIS INSTRUCTION (JUMPA .+1) TO
 25100									;JUMPA X (X IS THE ADDRESS OF THE FIRST INSTRUCTION
 25101									;IN THE SUBTEST) TO LOOP ON ERROR^
 25102
 25103					;**********
 25104
 25105
 25106					;THIS TEST VERIFIES THAT THE RESULT OF A FLOATING ONE
 25107					;ADDED TO A FLOATING ONE IS A FLOATING ONE
 25108					;PLACED ONE BIT POSITION LEFT OF THE ORIGINAL FLOATING ONE.
 25109					;THIS TEST IS REPEATED 36 TIMES TO FLOAT A ONE THRU ALL 36 BITS OF THE ADDER.
 25110					;THIS TEST IS DESIGNED TO TEST THE ADDER AND RELATED DATA PATHS ONLY.
 25111
 25112			045735		SN=SN+1
 25113			002000			XX=XX+XX
 25114						IFE	XX,<XX=1>
 25115	044236	515 00 0 00 002000 		HRLZI	XX		;PRELOAD AC WITH A FLOATING ONE
 25116	044237	270 00 0 00 070320 		ADD	[XX,,0]		;ADD A FLOATING ONE TO ITSELF
 25117	044240	312 00 0 00 070321 		CAME	[XX+XX,,0]	;CHECK ADDER UPON FAILURE
 25118						STOP		^
 25119	044241	254 04 0 00 044242 		HALT	.+1		;TEST FAILED IF PROGRAM HALTS HERE
 25120	044242	324 00 0 00 044243 		JUMPA	.+1		;IF TEST FAILS, CHANGE THIS INSTRUCTION (JUMPA .+1) TO
 25121									;JUMPA X (X IS THE ADDRESS OF THE FIRST INSTRUCTION
 25122									;IN THE SUBTEST) TO LOOP ON ERROR^
 25123
 25124					;**********
 25125
 25126
 25127					;THIS TEST VERIFIES THAT THE RESULT OF A FLOATING ONE
 25128					;ADDED TO A FLOATING ONE IS A FLOATING ONE
 25129					;PLACED ONE BIT POSITION LEFT OF THE ORIGINAL FLOATING ONE.
 25130					;THIS TEST IS REPEATED 36 TIMES TO FLOAT A ONE THRU ALL 36 BITS OF THE ADDER.
 25131					;THIS TEST IS DESIGNED TO TEST THE ADDER AND RELATED DATA PATHS ONLY.
 25132
DFKAA PDP-10 KL10 BASIC INSTRUCTION DIAGNOSTIC (1) VER 0,2	MACRO %52(537) 09:34 31-JAN-77 PAGE 88-12
DFKAA3	MAC	25-AUG-75 13:57		SUPPLEMENTARY ADDER TESTS - FLT 1 + FLT 1                                          SEQ 0553

 25133			045736		SN=SN+1
 25134			004000			XX=XX+XX
 25135						IFE	XX,<XX=1>
 25136	044243	515 00 0 00 004000 		HRLZI	XX		;PRELOAD AC WITH A FLOATING ONE
 25137	044244	270 00 0 00 070321 		ADD	[XX,,0]		;ADD A FLOATING ONE TO ITSELF
 25138	044245	312 00 0 00 070322 		CAME	[XX+XX,,0]	;CHECK ADDER UPON FAILURE
 25139						STOP		^
 25140	044246	254 04 0 00 044247 		HALT	.+1		;TEST FAILED IF PROGRAM HALTS HERE
 25141	044247	324 00 0 00 044250 		JUMPA	.+1		;IF TEST FAILS, CHANGE THIS INSTRUCTION (JUMPA .+1) TO
 25142									;JUMPA X (X IS THE ADDRESS OF THE FIRST INSTRUCTION
 25143									;IN THE SUBTEST) TO LOOP ON ERROR^
 25144
 25145					;**********
 25146
 25147
 25148					;THIS TEST VERIFIES THAT THE RESULT OF A FLOATING ONE
 25149					;ADDED TO A FLOATING ONE IS A FLOATING ONE
 25150					;PLACED ONE BIT POSITION LEFT OF THE ORIGINAL FLOATING ONE.
 25151					;THIS TEST IS REPEATED 36 TIMES TO FLOAT A ONE THRU ALL 36 BITS OF THE ADDER.
 25152					;THIS TEST IS DESIGNED TO TEST THE ADDER AND RELATED DATA PATHS ONLY.
 25153
 25154			045737		SN=SN+1
 25155			010000			XX=XX+XX
 25156						IFE	XX,<XX=1>
 25157	044250	515 00 0 00 010000 		HRLZI	XX		;PRELOAD AC WITH A FLOATING ONE
 25158	044251	270 00 0 00 070322 		ADD	[XX,,0]		;ADD A FLOATING ONE TO ITSELF
 25159	044252	312 00 0 00 070323 		CAME	[XX+XX,,0]	;CHECK ADDER UPON FAILURE
 25160						STOP		^
 25161	044253	254 04 0 00 044254 		HALT	.+1		;TEST FAILED IF PROGRAM HALTS HERE
 25162	044254	324 00 0 00 044255 		JUMPA	.+1		;IF TEST FAILS, CHANGE THIS INSTRUCTION (JUMPA .+1) TO
 25163									;JUMPA X (X IS THE ADDRESS OF THE FIRST INSTRUCTION
 25164									;IN THE SUBTEST) TO LOOP ON ERROR^
 25165
 25166					;**********
 25167
 25168
 25169					;THIS TEST VERIFIES THAT THE RESULT OF A FLOATING ONE
 25170					;ADDED TO A FLOATING ONE IS A FLOATING ONE
 25171					;PLACED ONE BIT POSITION LEFT OF THE ORIGINAL FLOATING ONE.
 25172					;THIS TEST IS REPEATED 36 TIMES TO FLOAT A ONE THRU ALL 36 BITS OF THE ADDER.
 25173					;THIS TEST IS DESIGNED TO TEST THE ADDER AND RELATED DATA PATHS ONLY.
 25174
 25175			045740		SN=SN+1
 25176			020000			XX=XX+XX
 25177						IFE	XX,<XX=1>
 25178	044255	515 00 0 00 020000 		HRLZI	XX		;PRELOAD AC WITH A FLOATING ONE
 25179	044256	270 00 0 00 070323 		ADD	[XX,,0]		;ADD A FLOATING ONE TO ITSELF
 25180	044257	312 00 0 00 070324 		CAME	[XX+XX,,0]	;CHECK ADDER UPON FAILURE
 25181						STOP		^
 25182	044260	254 04 0 00 044261 		HALT	.+1		;TEST FAILED IF PROGRAM HALTS HERE
 25183	044261	324 00 0 00 044262 		JUMPA	.+1		;IF TEST FAILS, CHANGE THIS INSTRUCTION (JUMPA .+1) TO
 25184									;JUMPA X (X IS THE ADDRESS OF THE FIRST INSTRUCTION
 25185									;IN THE SUBTEST) TO LOOP ON ERROR^
 25186
 25187					;**********
DFKAA PDP-10 KL10 BASIC INSTRUCTION DIAGNOSTIC (1) VER 0,2	MACRO %52(537) 09:34 31-JAN-77 PAGE 88-13
DFKAA3	MAC	25-AUG-75 13:57		SUPPLEMENTARY ADDER TESTS - FLT 1 + FLT 1                                          SEQ 0554

 25188
 25189
 25190					;THIS TEST VERIFIES THAT THE RESULT OF A FLOATING ONE
 25191					;ADDED TO A FLOATING ONE IS A FLOATING ONE
 25192					;PLACED ONE BIT POSITION LEFT OF THE ORIGINAL FLOATING ONE.
 25193					;THIS TEST IS REPEATED 36 TIMES TO FLOAT A ONE THRU ALL 36 BITS OF THE ADDER.
 25194					;THIS TEST IS DESIGNED TO TEST THE ADDER AND RELATED DATA PATHS ONLY.
 25195
 25196			045741		SN=SN+1
 25197			040000			XX=XX+XX
 25198						IFE	XX,<XX=1>
 25199	044262	515 00 0 00 040000 		HRLZI	XX		;PRELOAD AC WITH A FLOATING ONE
 25200	044263	270 00 0 00 070324 		ADD	[XX,,0]		;ADD A FLOATING ONE TO ITSELF
 25201	044264	312 00 0 00 070325 		CAME	[XX+XX,,0]	;CHECK ADDER UPON FAILURE
 25202						STOP		^
 25203	044265	254 04 0 00 044266 		HALT	.+1		;TEST FAILED IF PROGRAM HALTS HERE
 25204	044266	324 00 0 00 044267 		JUMPA	.+1		;IF TEST FAILS, CHANGE THIS INSTRUCTION (JUMPA .+1) TO
 25205									;JUMPA X (X IS THE ADDRESS OF THE FIRST INSTRUCTION
 25206									;IN THE SUBTEST) TO LOOP ON ERROR^
 25207
 25208					;**********
 25209
 25210
 25211					;THIS TEST VERIFIES THAT THE RESULT OF A FLOATING ONE
 25212					;ADDED TO A FLOATING ONE IS A FLOATING ONE
 25213					;PLACED ONE BIT POSITION LEFT OF THE ORIGINAL FLOATING ONE.
 25214					;THIS TEST IS REPEATED 36 TIMES TO FLOAT A ONE THRU ALL 36 BITS OF THE ADDER.
 25215					;THIS TEST IS DESIGNED TO TEST THE ADDER AND RELATED DATA PATHS ONLY.
 25216
 25217			045742		SN=SN+1
 25218			100000			XX=XX+XX
 25219						IFE	XX,<XX=1>
 25220	044267	515 00 0 00 100000 		HRLZI	XX		;PRELOAD AC WITH A FLOATING ONE
 25221	044270	270 00 0 00 070325 		ADD	[XX,,0]		;ADD A FLOATING ONE TO ITSELF
 25222	044271	312 00 0 00 070326 		CAME	[XX+XX,,0]	;CHECK ADDER UPON FAILURE
 25223						STOP		^
 25224	044272	254 04 0 00 044273 		HALT	.+1		;TEST FAILED IF PROGRAM HALTS HERE
 25225	044273	324 00 0 00 044274 		JUMPA	.+1		;IF TEST FAILS, CHANGE THIS INSTRUCTION (JUMPA .+1) TO
 25226									;JUMPA X (X IS THE ADDRESS OF THE FIRST INSTRUCTION
 25227									;IN THE SUBTEST) TO LOOP ON ERROR^
 25228
 25229					;**********
 25230
 25231
 25232					;THIS TEST VERIFIES THAT THE RESULT OF A FLOATING ONE
 25233					;ADDED TO A FLOATING ONE IS A FLOATING ONE
 25234					;PLACED ONE BIT POSITION LEFT OF THE ORIGINAL FLOATING ONE.
 25235					;THIS TEST IS REPEATED 36 TIMES TO FLOAT A ONE THRU ALL 36 BITS OF THE ADDER.
 25236					;THIS TEST IS DESIGNED TO TEST THE ADDER AND RELATED DATA PATHS ONLY.
 25237
 25238			045743		SN=SN+1
 25239			200000			XX=XX+XX
 25240						IFE	XX,<XX=1>
 25241	044274	515 00 0 00 200000 		HRLZI	XX		;PRELOAD AC WITH A FLOATING ONE
 25242	044275	270 00 0 00 070326 		ADD	[XX,,0]		;ADD A FLOATING ONE TO ITSELF
DFKAA PDP-10 KL10 BASIC INSTRUCTION DIAGNOSTIC (1) VER 0,2	MACRO %52(537) 09:34 31-JAN-77 PAGE 88-14
DFKAA3	MAC	25-AUG-75 13:57		SUPPLEMENTARY ADDER TESTS - FLT 1 + FLT 1                                          SEQ 0555

 25243	044276	312 00 0 00 070256 		CAME	[XX+XX,,0]	;CHECK ADDER UPON FAILURE
 25244						STOP		^
 25245	044277	254 04 0 00 044300 		HALT	.+1		;TEST FAILED IF PROGRAM HALTS HERE
 25246	044300	324 00 0 00 044301 		JUMPA	.+1		;IF TEST FAILS, CHANGE THIS INSTRUCTION (JUMPA .+1) TO
 25247									;JUMPA X (X IS THE ADDRESS OF THE FIRST INSTRUCTION
 25248									;IN THE SUBTEST) TO LOOP ON ERROR^
 25249
 25250					;**********
 25251
 25252					;THIS TEST VERIFIES THAT THE RESULT OF A FLOATING ONE
 25253					;ADDED TO A FLOATING ONE IS A FLOATING ONE
 25254					;PLACED ONE BIT POSITION LEFT OF THE ORIGINAL FLOATING ONE.
 25255					;THIS TEST IS REPEATED 36 TIMES TO FLOAT A ONE THRU ALL 36 BITS OF THE ADDER.
 25256					;THIS TEST IS DESIGNED TO TEST THE ADDER AND RELATED DATA PATHS ONLY.
 25257
 25258			045744		SN=SN+1
 25259			400000			XX=XX+XX
 25260						IFE	XX,<XX=1>
 25261	044301	515 00 0 00 400000 		HRLZI	XX		;PRELOAD AC WITH A FLOATING ONE
 25262	044302	270 00 0 00 070256 		ADD	[XX,,0]		;ADD A FLOATING ONE TO ITSELF
 25263	044303	312 00 0 00 070253 		CAME	[0,,0]		;CHECK ADDER UPON FAILURE
 25264						STOP		^
 25265	044304	254 04 0 00 044305 		HALT	.+1		;TEST FAILED IF PROGRAM HALTS HERE
 25266	044305	324 00 0 00 044306 		JUMPA	.+1		;IF TEST FAILS, CHANGE THIS INSTRUCTION (JUMPA .+1) TO
 25267									;JUMPA X (X IS THE ADDRESS OF THE FIRST INSTRUCTION
 25268									;IN THE SUBTEST) TO LOOP ON ERROR^
 25269
 25270					;**********
DFKAA PDP-10 KL10 BASIC INSTRUCTION DIAGNOSTIC (1) VER 0,2	MACRO %52(537) 09:34 31-JAN-77 PAGE 89
DFKAA3	MAC	25-AUG-75 13:57		SUPPLEMENTARY ADDER TESTS - FLT 0 + 0FLT                                           SEQ 0556

 25271					SUBTTL	SUPPLEMENTARY ADDER TESTS - FLT 0 + 0FLT
 25272
 25273					;**********
 25274
 25275			046000		SN=46000
 25276			000000			XX=0
 25277
 25278					B46000:	REPEAT	^D17,<
 25279					;THIS TEST VERIFIES THAT THE RESULT OF A FLOATING ZERO
 25280					;ADDED TO A FLOATING ZERO IS A FLOATING ZERO
 25281					;PLACED ONE BIT POSITION LEFT OF THE ORIGINAL FLOATING ZERO.
 25282					;THIS TEST IS REPEATED 36 TIMES TO FLOAT A ZERO THRU ALL 36 BITS OF THE ADDER.
 25283					;THIS TEST IS DESIGNED TO TEST THE ADDER AND RELATED DATA PATHS ONLY.
 25284
 25285					SN=SN+1
 25286						XX=<XX+XX+1>&777777
 25287						IFE	<XX-1>,<XX=777776>
 25288						HRROI	XX		;PRELOAD AC WITH A FLOATING ZERO
 25289						ADD	[-1,,XX]	;ADD A FLOATING ZERO TO ITSELF
 25290						CAME	[-1,,<XX+XX>&777777]	;CHECK ADDER UPON FAILURE
 25291						STOP
 25292
 25293					;**********
 25294					>
 25295
 25296					;THIS TEST VERIFIES THAT THE RESULT OF A FLOATING ZERO
 25297					;ADDED TO A FLOATING ZERO IS A FLOATING ZERO
 25298					;PLACED ONE BIT POSITION LEFT OF THE ORIGINAL FLOATING ZERO.
 25299					;THIS TEST IS REPEATED 36 TIMES TO FLOAT A ZERO THRU ALL 36 BITS OF THE ADDER.
 25300					;THIS TEST IS DESIGNED TO TEST THE ADDER AND RELATED DATA PATHS ONLY.
 25301
 25302			046001		SN=SN+1
 25303			000001			XX=<XX+XX+1>&777777
 25304			777776			IFE	<XX-1>,<XX=777776>
 25305	044306	561 00 0 00 777776 		HRROI	XX		;PRELOAD AC WITH A FLOATING ZERO
 25306	044307	270 00 0 00 070333 		ADD	[-1,,XX]	;ADD A FLOATING ZERO TO ITSELF
 25307	044310	312 00 0 00 070437 		CAME	[-1,,<XX+XX>&777777]	;CHECK ADDER UPON FAILURE
 25308						STOP		^
 25309	044311	254 04 0 00 044312 		HALT	.+1		;TEST FAILED IF PROGRAM HALTS HERE
 25310	044312	324 00 0 00 044313 		JUMPA	.+1		;IF TEST FAILS, CHANGE THIS INSTRUCTION (JUMPA .+1) TO
 25311									;JUMPA X (X IS THE ADDRESS OF THE FIRST INSTRUCTION
 25312									;IN THE SUBTEST) TO LOOP ON ERROR^
 25313
 25314					;**********
 25315
 25316
 25317					;THIS TEST VERIFIES THAT THE RESULT OF A FLOATING ZERO
 25318					;ADDED TO A FLOATING ZERO IS A FLOATING ZERO
 25319					;PLACED ONE BIT POSITION LEFT OF THE ORIGINAL FLOATING ZERO.
 25320					;THIS TEST IS REPEATED 36 TIMES TO FLOAT A ZERO THRU ALL 36 BITS OF THE ADDER.
 25321					;THIS TEST IS DESIGNED TO TEST THE ADDER AND RELATED DATA PATHS ONLY.
 25322
 25323			046002		SN=SN+1
 25324			777775			XX=<XX+XX+1>&777777
 25325						IFE	<XX-1>,<XX=777776>
DFKAA PDP-10 KL10 BASIC INSTRUCTION DIAGNOSTIC (1) VER 0,2	MACRO %52(537) 09:34 31-JAN-77 PAGE 89-1
DFKAA3	MAC	25-AUG-75 13:57		SUPPLEMENTARY ADDER TESTS - FLT 0 + 0FLT                                           SEQ 0557

 25326	044313	561 00 0 00 777775 		HRROI	XX		;PRELOAD AC WITH A FLOATING ZERO
 25327	044314	270 00 0 00 070334 		ADD	[-1,,XX]	;ADD A FLOATING ZERO TO ITSELF
 25328	044315	312 00 0 00 070553 		CAME	[-1,,<XX+XX>&777777]	;CHECK ADDER UPON FAILURE
 25329						STOP		^
 25330	044316	254 04 0 00 044317 		HALT	.+1		;TEST FAILED IF PROGRAM HALTS HERE
 25331	044317	324 00 0 00 044320 		JUMPA	.+1		;IF TEST FAILS, CHANGE THIS INSTRUCTION (JUMPA .+1) TO
 25332									;JUMPA X (X IS THE ADDRESS OF THE FIRST INSTRUCTION
 25333									;IN THE SUBTEST) TO LOOP ON ERROR^
 25334
 25335					;**********
 25336
 25337
 25338					;THIS TEST VERIFIES THAT THE RESULT OF A FLOATING ZERO
 25339					;ADDED TO A FLOATING ZERO IS A FLOATING ZERO
 25340					;PLACED ONE BIT POSITION LEFT OF THE ORIGINAL FLOATING ZERO.
 25341					;THIS TEST IS REPEATED 36 TIMES TO FLOAT A ZERO THRU ALL 36 BITS OF THE ADDER.
 25342					;THIS TEST IS DESIGNED TO TEST THE ADDER AND RELATED DATA PATHS ONLY.
 25343
 25344			046003		SN=SN+1
 25345			777773			XX=<XX+XX+1>&777777
 25346						IFE	<XX-1>,<XX=777776>
 25347	044320	561 00 0 00 777773 		HRROI	XX		;PRELOAD AC WITH A FLOATING ZERO
 25348	044321	270 00 0 00 070335 		ADD	[-1,,XX]	;ADD A FLOATING ZERO TO ITSELF
 25349	044322	312 00 0 00 070554 		CAME	[-1,,<XX+XX>&777777]	;CHECK ADDER UPON FAILURE
 25350						STOP		^
 25351	044323	254 04 0 00 044324 		HALT	.+1		;TEST FAILED IF PROGRAM HALTS HERE
 25352	044324	324 00 0 00 044325 		JUMPA	.+1		;IF TEST FAILS, CHANGE THIS INSTRUCTION (JUMPA .+1) TO
 25353									;JUMPA X (X IS THE ADDRESS OF THE FIRST INSTRUCTION
 25354									;IN THE SUBTEST) TO LOOP ON ERROR^
 25355
 25356					;**********
 25357
 25358
 25359					;THIS TEST VERIFIES THAT THE RESULT OF A FLOATING ZERO
 25360					;ADDED TO A FLOATING ZERO IS A FLOATING ZERO
 25361					;PLACED ONE BIT POSITION LEFT OF THE ORIGINAL FLOATING ZERO.
 25362					;THIS TEST IS REPEATED 36 TIMES TO FLOAT A ZERO THRU ALL 36 BITS OF THE ADDER.
 25363					;THIS TEST IS DESIGNED TO TEST THE ADDER AND RELATED DATA PATHS ONLY.
 25364
 25365			046004		SN=SN+1
 25366			777767			XX=<XX+XX+1>&777777
 25367						IFE	<XX-1>,<XX=777776>
 25368	044325	561 00 0 00 777767 		HRROI	XX		;PRELOAD AC WITH A FLOATING ZERO
 25369	044326	270 00 0 00 070336 		ADD	[-1,,XX]	;ADD A FLOATING ZERO TO ITSELF
 25370	044327	312 00 0 00 070555 		CAME	[-1,,<XX+XX>&777777]	;CHECK ADDER UPON FAILURE
 25371						STOP		^
 25372	044330	254 04 0 00 044331 		HALT	.+1		;TEST FAILED IF PROGRAM HALTS HERE
 25373	044331	324 00 0 00 044332 		JUMPA	.+1		;IF TEST FAILS, CHANGE THIS INSTRUCTION (JUMPA .+1) TO
 25374									;JUMPA X (X IS THE ADDRESS OF THE FIRST INSTRUCTION
 25375									;IN THE SUBTEST) TO LOOP ON ERROR^
 25376
 25377					;**********
 25378
 25379
 25380					;THIS TEST VERIFIES THAT THE RESULT OF A FLOATING ZERO
DFKAA PDP-10 KL10 BASIC INSTRUCTION DIAGNOSTIC (1) VER 0,2	MACRO %52(537) 09:34 31-JAN-77 PAGE 89-2
DFKAA3	MAC	25-AUG-75 13:57		SUPPLEMENTARY ADDER TESTS - FLT 0 + 0FLT                                           SEQ 0558

 25381					;ADDED TO A FLOATING ZERO IS A FLOATING ZERO
 25382					;PLACED ONE BIT POSITION LEFT OF THE ORIGINAL FLOATING ZERO.
 25383					;THIS TEST IS REPEATED 36 TIMES TO FLOAT A ZERO THRU ALL 36 BITS OF THE ADDER.
 25384					;THIS TEST IS DESIGNED TO TEST THE ADDER AND RELATED DATA PATHS ONLY.
 25385
 25386			046005		SN=SN+1
 25387			777757			XX=<XX+XX+1>&777777
 25388						IFE	<XX-1>,<XX=777776>
 25389	044332	561 00 0 00 777757 		HRROI	XX		;PRELOAD AC WITH A FLOATING ZERO
 25390	044333	270 00 0 00 070337 		ADD	[-1,,XX]	;ADD A FLOATING ZERO TO ITSELF
 25391	044334	312 00 0 00 070556 		CAME	[-1,,<XX+XX>&777777]	;CHECK ADDER UPON FAILURE
 25392						STOP		^
 25393	044335	254 04 0 00 044336 		HALT	.+1		;TEST FAILED IF PROGRAM HALTS HERE
 25394	044336	324 00 0 00 044337 		JUMPA	.+1		;IF TEST FAILS, CHANGE THIS INSTRUCTION (JUMPA .+1) TO
 25395									;JUMPA X (X IS THE ADDRESS OF THE FIRST INSTRUCTION
 25396									;IN THE SUBTEST) TO LOOP ON ERROR^
 25397
 25398					;**********
 25399
 25400
 25401					;THIS TEST VERIFIES THAT THE RESULT OF A FLOATING ZERO
 25402					;ADDED TO A FLOATING ZERO IS A FLOATING ZERO
 25403					;PLACED ONE BIT POSITION LEFT OF THE ORIGINAL FLOATING ZERO.
 25404					;THIS TEST IS REPEATED 36 TIMES TO FLOAT A ZERO THRU ALL 36 BITS OF THE ADDER.
 25405					;THIS TEST IS DESIGNED TO TEST THE ADDER AND RELATED DATA PATHS ONLY.
 25406
 25407			046006		SN=SN+1
 25408			777737			XX=<XX+XX+1>&777777
 25409						IFE	<XX-1>,<XX=777776>
 25410	044337	561 00 0 00 777737 		HRROI	XX		;PRELOAD AC WITH A FLOATING ZERO
 25411	044340	270 00 0 00 070340 		ADD	[-1,,XX]	;ADD A FLOATING ZERO TO ITSELF
 25412	044341	312 00 0 00 070557 		CAME	[-1,,<XX+XX>&777777]	;CHECK ADDER UPON FAILURE
 25413						STOP		^
 25414	044342	254 04 0 00 044343 		HALT	.+1		;TEST FAILED IF PROGRAM HALTS HERE
 25415	044343	324 00 0 00 044344 		JUMPA	.+1		;IF TEST FAILS, CHANGE THIS INSTRUCTION (JUMPA .+1) TO
 25416									;JUMPA X (X IS THE ADDRESS OF THE FIRST INSTRUCTION
 25417									;IN THE SUBTEST) TO LOOP ON ERROR^
 25418
 25419					;**********
 25420
 25421
 25422					;THIS TEST VERIFIES THAT THE RESULT OF A FLOATING ZERO
 25423					;ADDED TO A FLOATING ZERO IS A FLOATING ZERO
 25424					;PLACED ONE BIT POSITION LEFT OF THE ORIGINAL FLOATING ZERO.
 25425					;THIS TEST IS REPEATED 36 TIMES TO FLOAT A ZERO THRU ALL 36 BITS OF THE ADDER.
 25426					;THIS TEST IS DESIGNED TO TEST THE ADDER AND RELATED DATA PATHS ONLY.
 25427
 25428			046007		SN=SN+1
 25429			777677			XX=<XX+XX+1>&777777
 25430						IFE	<XX-1>,<XX=777776>
 25431	044344	561 00 0 00 777677 		HRROI	XX		;PRELOAD AC WITH A FLOATING ZERO
 25432	044345	270 00 0 00 070341 		ADD	[-1,,XX]	;ADD A FLOATING ZERO TO ITSELF
 25433	044346	312 00 0 00 070560 		CAME	[-1,,<XX+XX>&777777]	;CHECK ADDER UPON FAILURE
 25434						STOP		^
 25435	044347	254 04 0 00 044350 		HALT	.+1		;TEST FAILED IF PROGRAM HALTS HERE
DFKAA PDP-10 KL10 BASIC INSTRUCTION DIAGNOSTIC (1) VER 0,2	MACRO %52(537) 09:34 31-JAN-77 PAGE 89-3
DFKAA3	MAC	25-AUG-75 13:57		SUPPLEMENTARY ADDER TESTS - FLT 0 + 0FLT                                           SEQ 0559

 25436	044350	324 00 0 00 044351 		JUMPA	.+1		;IF TEST FAILS, CHANGE THIS INSTRUCTION (JUMPA .+1) TO
 25437									;JUMPA X (X IS THE ADDRESS OF THE FIRST INSTRUCTION
 25438									;IN THE SUBTEST) TO LOOP ON ERROR^
 25439
 25440					;**********
 25441
 25442
 25443					;THIS TEST VERIFIES THAT THE RESULT OF A FLOATING ZERO
 25444					;ADDED TO A FLOATING ZERO IS A FLOATING ZERO
 25445					;PLACED ONE BIT POSITION LEFT OF THE ORIGINAL FLOATING ZERO.
 25446					;THIS TEST IS REPEATED 36 TIMES TO FLOAT A ZERO THRU ALL 36 BITS OF THE ADDER.
 25447					;THIS TEST IS DESIGNED TO TEST THE ADDER AND RELATED DATA PATHS ONLY.
 25448
 25449			046010		SN=SN+1
 25450			777577			XX=<XX+XX+1>&777777
 25451						IFE	<XX-1>,<XX=777776>
 25452	044351	561 00 0 00 777577 		HRROI	XX		;PRELOAD AC WITH A FLOATING ZERO
 25453	044352	270 00 0 00 070342 		ADD	[-1,,XX]	;ADD A FLOATING ZERO TO ITSELF
 25454	044353	312 00 0 00 070561 		CAME	[-1,,<XX+XX>&777777]	;CHECK ADDER UPON FAILURE
 25455						STOP		^
 25456	044354	254 04 0 00 044355 		HALT	.+1		;TEST FAILED IF PROGRAM HALTS HERE
 25457	044355	324 00 0 00 044356 		JUMPA	.+1		;IF TEST FAILS, CHANGE THIS INSTRUCTION (JUMPA .+1) TO
 25458									;JUMPA X (X IS THE ADDRESS OF THE FIRST INSTRUCTION
 25459									;IN THE SUBTEST) TO LOOP ON ERROR^
 25460
 25461					;**********
 25462
 25463
 25464					;THIS TEST VERIFIES THAT THE RESULT OF A FLOATING ZERO
 25465					;ADDED TO A FLOATING ZERO IS A FLOATING ZERO
 25466					;PLACED ONE BIT POSITION LEFT OF THE ORIGINAL FLOATING ZERO.
 25467					;THIS TEST IS REPEATED 36 TIMES TO FLOAT A ZERO THRU ALL 36 BITS OF THE ADDER.
 25468					;THIS TEST IS DESIGNED TO TEST THE ADDER AND RELATED DATA PATHS ONLY.
 25469
 25470			046011		SN=SN+1
 25471			777377			XX=<XX+XX+1>&777777
 25472						IFE	<XX-1>,<XX=777776>
 25473	044356	561 00 0 00 777377 		HRROI	XX		;PRELOAD AC WITH A FLOATING ZERO
 25474	044357	270 00 0 00 070343 		ADD	[-1,,XX]	;ADD A FLOATING ZERO TO ITSELF
 25475	044360	312 00 0 00 070562 		CAME	[-1,,<XX+XX>&777777]	;CHECK ADDER UPON FAILURE
 25476						STOP		^
 25477	044361	254 04 0 00 044362 		HALT	.+1		;TEST FAILED IF PROGRAM HALTS HERE
 25478	044362	324 00 0 00 044363 		JUMPA	.+1		;IF TEST FAILS, CHANGE THIS INSTRUCTION (JUMPA .+1) TO
 25479									;JUMPA X (X IS THE ADDRESS OF THE FIRST INSTRUCTION
 25480									;IN THE SUBTEST) TO LOOP ON ERROR^
 25481
 25482					;**********
 25483
 25484
 25485					;THIS TEST VERIFIES THAT THE RESULT OF A FLOATING ZERO
 25486					;ADDED TO A FLOATING ZERO IS A FLOATING ZERO
 25487					;PLACED ONE BIT POSITION LEFT OF THE ORIGINAL FLOATING ZERO.
 25488					;THIS TEST IS REPEATED 36 TIMES TO FLOAT A ZERO THRU ALL 36 BITS OF THE ADDER.
 25489					;THIS TEST IS DESIGNED TO TEST THE ADDER AND RELATED DATA PATHS ONLY.
 25490
DFKAA PDP-10 KL10 BASIC INSTRUCTION DIAGNOSTIC (1) VER 0,2	MACRO %52(537) 09:34 31-JAN-77 PAGE 89-4
DFKAA3	MAC	25-AUG-75 13:57		SUPPLEMENTARY ADDER TESTS - FLT 0 + 0FLT                                           SEQ 0560

 25491			046012		SN=SN+1
 25492			776777			XX=<XX+XX+1>&777777
 25493						IFE	<XX-1>,<XX=777776>
 25494	044363	561 00 0 00 776777 		HRROI	XX		;PRELOAD AC WITH A FLOATING ZERO
 25495	044364	270 00 0 00 070344 		ADD	[-1,,XX]	;ADD A FLOATING ZERO TO ITSELF
 25496	044365	312 00 0 00 070563 		CAME	[-1,,<XX+XX>&777777]	;CHECK ADDER UPON FAILURE
 25497						STOP		^
 25498	044366	254 04 0 00 044367 		HALT	.+1		;TEST FAILED IF PROGRAM HALTS HERE
 25499	044367	324 00 0 00 044370 		JUMPA	.+1		;IF TEST FAILS, CHANGE THIS INSTRUCTION (JUMPA .+1) TO
 25500									;JUMPA X (X IS THE ADDRESS OF THE FIRST INSTRUCTION
 25501									;IN THE SUBTEST) TO LOOP ON ERROR^
 25502
 25503					;**********
 25504
 25505
 25506					;THIS TEST VERIFIES THAT THE RESULT OF A FLOATING ZERO
 25507					;ADDED TO A FLOATING ZERO IS A FLOATING ZERO
 25508					;PLACED ONE BIT POSITION LEFT OF THE ORIGINAL FLOATING ZERO.
 25509					;THIS TEST IS REPEATED 36 TIMES TO FLOAT A ZERO THRU ALL 36 BITS OF THE ADDER.
 25510					;THIS TEST IS DESIGNED TO TEST THE ADDER AND RELATED DATA PATHS ONLY.
 25511
 25512			046013		SN=SN+1
 25513			775777			XX=<XX+XX+1>&777777
 25514						IFE	<XX-1>,<XX=777776>
 25515	044370	561 00 0 00 775777 		HRROI	XX		;PRELOAD AC WITH A FLOATING ZERO
 25516	044371	270 00 0 00 070345 		ADD	[-1,,XX]	;ADD A FLOATING ZERO TO ITSELF
 25517	044372	312 00 0 00 070564 		CAME	[-1,,<XX+XX>&777777]	;CHECK ADDER UPON FAILURE
 25518						STOP		^
 25519	044373	254 04 0 00 044374 		HALT	.+1		;TEST FAILED IF PROGRAM HALTS HERE
 25520	044374	324 00 0 00 044375 		JUMPA	.+1		;IF TEST FAILS, CHANGE THIS INSTRUCTION (JUMPA .+1) TO
 25521									;JUMPA X (X IS THE ADDRESS OF THE FIRST INSTRUCTION
 25522									;IN THE SUBTEST) TO LOOP ON ERROR^
 25523
 25524					;**********
 25525
 25526
 25527					;THIS TEST VERIFIES THAT THE RESULT OF A FLOATING ZERO
 25528					;ADDED TO A FLOATING ZERO IS A FLOATING ZERO
 25529					;PLACED ONE BIT POSITION LEFT OF THE ORIGINAL FLOATING ZERO.
 25530					;THIS TEST IS REPEATED 36 TIMES TO FLOAT A ZERO THRU ALL 36 BITS OF THE ADDER.
 25531					;THIS TEST IS DESIGNED TO TEST THE ADDER AND RELATED DATA PATHS ONLY.
 25532
 25533			046014		SN=SN+1
 25534			773777			XX=<XX+XX+1>&777777
 25535						IFE	<XX-1>,<XX=777776>
 25536	044375	561 00 0 00 773777 		HRROI	XX		;PRELOAD AC WITH A FLOATING ZERO
 25537	044376	270 00 0 00 070346 		ADD	[-1,,XX]	;ADD A FLOATING ZERO TO ITSELF
 25538	044377	312 00 0 00 070565 		CAME	[-1,,<XX+XX>&777777]	;CHECK ADDER UPON FAILURE
 25539						STOP		^
 25540	044400	254 04 0 00 044401 		HALT	.+1		;TEST FAILED IF PROGRAM HALTS HERE
 25541	044401	324 00 0 00 044402 		JUMPA	.+1		;IF TEST FAILS, CHANGE THIS INSTRUCTION (JUMPA .+1) TO
 25542									;JUMPA X (X IS THE ADDRESS OF THE FIRST INSTRUCTION
 25543									;IN THE SUBTEST) TO LOOP ON ERROR^
 25544
 25545					;**********
DFKAA PDP-10 KL10 BASIC INSTRUCTION DIAGNOSTIC (1) VER 0,2	MACRO %52(537) 09:34 31-JAN-77 PAGE 89-5
DFKAA3	MAC	25-AUG-75 13:57		SUPPLEMENTARY ADDER TESTS - FLT 0 + 0FLT                                           SEQ 0561

 25546
 25547
 25548					;THIS TEST VERIFIES THAT THE RESULT OF A FLOATING ZERO
 25549					;ADDED TO A FLOATING ZERO IS A FLOATING ZERO
 25550					;PLACED ONE BIT POSITION LEFT OF THE ORIGINAL FLOATING ZERO.
 25551					;THIS TEST IS REPEATED 36 TIMES TO FLOAT A ZERO THRU ALL 36 BITS OF THE ADDER.
 25552					;THIS TEST IS DESIGNED TO TEST THE ADDER AND RELATED DATA PATHS ONLY.
 25553
 25554			046015		SN=SN+1
 25555			767777			XX=<XX+XX+1>&777777
 25556						IFE	<XX-1>,<XX=777776>
 25557	044402	561 00 0 00 767777 		HRROI	XX		;PRELOAD AC WITH A FLOATING ZERO
 25558	044403	270 00 0 00 070347 		ADD	[-1,,XX]	;ADD A FLOATING ZERO TO ITSELF
 25559	044404	312 00 0 00 070566 		CAME	[-1,,<XX+XX>&777777]	;CHECK ADDER UPON FAILURE
 25560						STOP		^
 25561	044405	254 04 0 00 044406 		HALT	.+1		;TEST FAILED IF PROGRAM HALTS HERE
 25562	044406	324 00 0 00 044407 		JUMPA	.+1		;IF TEST FAILS, CHANGE THIS INSTRUCTION (JUMPA .+1) TO
 25563									;JUMPA X (X IS THE ADDRESS OF THE FIRST INSTRUCTION
 25564									;IN THE SUBTEST) TO LOOP ON ERROR^
 25565
 25566					;**********
 25567
 25568
 25569					;THIS TEST VERIFIES THAT THE RESULT OF A FLOATING ZERO
 25570					;ADDED TO A FLOATING ZERO IS A FLOATING ZERO
 25571					;PLACED ONE BIT POSITION LEFT OF THE ORIGINAL FLOATING ZERO.
 25572					;THIS TEST IS REPEATED 36 TIMES TO FLOAT A ZERO THRU ALL 36 BITS OF THE ADDER.
 25573					;THIS TEST IS DESIGNED TO TEST THE ADDER AND RELATED DATA PATHS ONLY.
 25574
 25575			046016		SN=SN+1
 25576			757777			XX=<XX+XX+1>&777777
 25577						IFE	<XX-1>,<XX=777776>
 25578	044407	561 00 0 00 757777 		HRROI	XX		;PRELOAD AC WITH A FLOATING ZERO
 25579	044410	270 00 0 00 070350 		ADD	[-1,,XX]	;ADD A FLOATING ZERO TO ITSELF
 25580	044411	312 00 0 00 070567 		CAME	[-1,,<XX+XX>&777777]	;CHECK ADDER UPON FAILURE
 25581						STOP		^
 25582	044412	254 04 0 00 044413 		HALT	.+1		;TEST FAILED IF PROGRAM HALTS HERE
 25583	044413	324 00 0 00 044414 		JUMPA	.+1		;IF TEST FAILS, CHANGE THIS INSTRUCTION (JUMPA .+1) TO
 25584									;JUMPA X (X IS THE ADDRESS OF THE FIRST INSTRUCTION
 25585									;IN THE SUBTEST) TO LOOP ON ERROR^
 25586
 25587					;**********
 25588
 25589
 25590					;THIS TEST VERIFIES THAT THE RESULT OF A FLOATING ZERO
 25591					;ADDED TO A FLOATING ZERO IS A FLOATING ZERO
 25592					;PLACED ONE BIT POSITION LEFT OF THE ORIGINAL FLOATING ZERO.
 25593					;THIS TEST IS REPEATED 36 TIMES TO FLOAT A ZERO THRU ALL 36 BITS OF THE ADDER.
 25594					;THIS TEST IS DESIGNED TO TEST THE ADDER AND RELATED DATA PATHS ONLY.
 25595
 25596			046017		SN=SN+1
 25597			737777			XX=<XX+XX+1>&777777
 25598						IFE	<XX-1>,<XX=777776>
 25599	044414	561 00 0 00 737777 		HRROI	XX		;PRELOAD AC WITH A FLOATING ZERO
 25600	044415	270 00 0 00 070351 		ADD	[-1,,XX]	;ADD A FLOATING ZERO TO ITSELF
DFKAA PDP-10 KL10 BASIC INSTRUCTION DIAGNOSTIC (1) VER 0,2	MACRO %52(537) 09:34 31-JAN-77 PAGE 89-6
DFKAA3	MAC	25-AUG-75 13:57		SUPPLEMENTARY ADDER TESTS - FLT 0 + 0FLT                                           SEQ 0562

 25601	044416	312 00 0 00 070570 		CAME	[-1,,<XX+XX>&777777]	;CHECK ADDER UPON FAILURE
 25602						STOP		^
 25603	044417	254 04 0 00 044420 		HALT	.+1		;TEST FAILED IF PROGRAM HALTS HERE
 25604	044420	324 00 0 00 044421 		JUMPA	.+1		;IF TEST FAILS, CHANGE THIS INSTRUCTION (JUMPA .+1) TO
 25605									;JUMPA X (X IS THE ADDRESS OF THE FIRST INSTRUCTION
 25606									;IN THE SUBTEST) TO LOOP ON ERROR^
 25607
 25608					;**********
 25609
 25610
 25611					;THIS TEST VERIFIES THAT THE RESULT OF A FLOATING ZERO
 25612					;ADDED TO A FLOATING ZERO IS A FLOATING ZERO
 25613					;PLACED ONE BIT POSITION LEFT OF THE ORIGINAL FLOATING ZERO.
 25614					;THIS TEST IS REPEATED 36 TIMES TO FLOAT A ZERO THRU ALL 36 BITS OF THE ADDER.
 25615					;THIS TEST IS DESIGNED TO TEST THE ADDER AND RELATED DATA PATHS ONLY.
 25616
 25617			046020		SN=SN+1
 25618			677777			XX=<XX+XX+1>&777777
 25619						IFE	<XX-1>,<XX=777776>
 25620	044421	561 00 0 00 677777 		HRROI	XX		;PRELOAD AC WITH A FLOATING ZERO
 25621	044422	270 00 0 00 070352 		ADD	[-1,,XX]	;ADD A FLOATING ZERO TO ITSELF
 25622	044423	312 00 0 00 070571 		CAME	[-1,,<XX+XX>&777777]	;CHECK ADDER UPON FAILURE
 25623						STOP		^
 25624	044424	254 04 0 00 044425 		HALT	.+1		;TEST FAILED IF PROGRAM HALTS HERE
 25625	044425	324 00 0 00 044426 		JUMPA	.+1		;IF TEST FAILS, CHANGE THIS INSTRUCTION (JUMPA .+1) TO
 25626									;JUMPA X (X IS THE ADDRESS OF THE FIRST INSTRUCTION
 25627									;IN THE SUBTEST) TO LOOP ON ERROR^
 25628
 25629					;**********
 25630
 25631
 25632					;THIS TEST VERIFIES THAT THE RESULT OF A FLOATING ZERO
 25633					;ADDED TO A FLOATING ZERO IS A FLOATING ZERO
 25634					;PLACED ONE BIT POSITION LEFT OF THE ORIGINAL FLOATING ZERO.
 25635					;THIS TEST IS REPEATED 36 TIMES TO FLOAT A ZERO THRU ALL 36 BITS OF THE ADDER.
 25636					;THIS TEST IS DESIGNED TO TEST THE ADDER AND RELATED DATA PATHS ONLY.
 25637
 25638			046021		SN=SN+1
 25639			577777			XX=<XX+XX+1>&777777
 25640						IFE	<XX-1>,<XX=777776>
 25641	044426	561 00 0 00 577777 		HRROI	XX		;PRELOAD AC WITH A FLOATING ZERO
 25642	044427	270 00 0 00 070353 		ADD	[-1,,XX]	;ADD A FLOATING ZERO TO ITSELF
 25643	044430	312 00 0 00 070572 		CAME	[-1,,<XX+XX>&777777]	;CHECK ADDER UPON FAILURE
 25644						STOP		^
 25645	044431	254 04 0 00 044432 		HALT	.+1		;TEST FAILED IF PROGRAM HALTS HERE
 25646	044432	324 00 0 00 044433 		JUMPA	.+1		;IF TEST FAILS, CHANGE THIS INSTRUCTION (JUMPA .+1) TO
 25647									;JUMPA X (X IS THE ADDRESS OF THE FIRST INSTRUCTION
 25648									;IN THE SUBTEST) TO LOOP ON ERROR^
 25649
 25650					;**********
 25651
 25652					PAGE
DFKAA PDP-10 KL10 BASIC INSTRUCTION DIAGNOSTIC (1) VER 0,2	MACRO %52(537) 09:34 31-JAN-77 PAGE 89-7
DFKAA3	MAC	25-AUG-75 13:57		SUPPLEMENTARY ADDER TESTS - FLT 0 + 0FLT                                           SEQ 0563

 25653					;THIS TEST VERIFIES THAT THE RESULT OF A FLOATING ZERO
 25654					;ADDED TO A FLOATING ZERO IS A FLOATING ZERO
 25655					;PLACED ONE BIT POSITION LEFT OF THE ORIGINAL FLOATING ZERO.
 25656					;THIS TEST IS REPEATED 36 TIMES TO FLOAT A ZERO THRU ALL 36 BITS OF THE ADDER.
 25657					;THIS TEST IS DESIGNED TO TEST THE ADDER AND RELATED DATA PATHS ONLY.
 25658
 25659			046022		SN=SN+1
 25660			377777			XX=<XX+XX+1>&777777
 25661	044433	561 00 0 00 377777 		HRROI	XX		;PRELOAD AC WITH A FLOATING ZERO
 25662	044434	270 00 0 00 070354 		ADD	[-1,,XX]	;ADD A FLOATING ZERO TO ITSELF
 25663	044435	312 00 0 00 070461 		CAME	[-2,,-2]	;CHECK ADDER UPON FAILURE
 25664						STOP		^
 25665	044436	254 04 0 00 044437 		HALT	.+1		;TEST FAILED IF PROGRAM HALTS HERE
 25666	044437	324 00 0 00 044440 		JUMPA	.+1		;IF TEST FAILS, CHANGE THIS INSTRUCTION (JUMPA .+1) TO
 25667									;JUMPA X (X IS THE ADDRESS OF THE FIRST INSTRUCTION
 25668									;IN THE SUBTEST) TO LOOP ON ERROR^
 25669
 25670					;**********
 25671
 25672			000000			XX=0
 25673
 25674						REPEAT	^D18,<
 25675					;THIS TEST VERIFIES THAT THE RESULT OF A FLOATING ZERO
 25676					;ADDED TO A FLOATING ZERO IS A FLOATING ZERO
 25677					;PLACED ONE BIT POSITION LEFT OF THE ORIGINAL FLOATING ZERO.
 25678					;THIS TEST IS REPEATED 36 TIMES TO FLOAT A ZERO THRU ALL 36 BITS OF THE ADDER.
 25679					;THIS TEST IS DESIGNED TO TEST THE ADDER AND RELATED DATA PATHS ONLY.
 25680
 25681					SN=SN+1
 25682						XX=<XX+XX+1>&777777
 25683						IFE	<XX-1>,<XX=777776>
 25684						HRLOI	XX		;PRELOAD AC WITH A FLOATING ZERO
 25685						ADD	[XX,,-1]	;ADD A FLOATING ZERO TO ITSELF
 25686						CAME	[<XX+XX+1>&777777,,-2]	;CHECK ADDER UPON FAILURE
 25687						STOP
 25688
 25689					;**********
 25690					>
 25691
 25692					;THIS TEST VERIFIES THAT THE RESULT OF A FLOATING ZERO
 25693					;ADDED TO A FLOATING ZERO IS A FLOATING ZERO
 25694					;PLACED ONE BIT POSITION LEFT OF THE ORIGINAL FLOATING ZERO.
 25695					;THIS TEST IS REPEATED 36 TIMES TO FLOAT A ZERO THRU ALL 36 BITS OF THE ADDER.
 25696					;THIS TEST IS DESIGNED TO TEST THE ADDER AND RELATED DATA PATHS ONLY.
 25697
 25698			046023		SN=SN+1
 25699			000001			XX=<XX+XX+1>&777777
 25700			777776			IFE	<XX-1>,<XX=777776>
 25701	044440	525 00 0 00 777776 		HRLOI	XX		;PRELOAD AC WITH A FLOATING ZERO
 25702	044441	270 00 0 00 070355 		ADD	[XX,,-1]	;ADD A FLOATING ZERO TO ITSELF
 25703	044442	312 00 0 00 070573 		CAME	[<XX+XX+1>&777777,,-2]	;CHECK ADDER UPON FAILURE
 25704						STOP		^
 25705	044443	254 04 0 00 044444 		HALT	.+1		;TEST FAILED IF PROGRAM HALTS HERE
 25706	044444	324 00 0 00 044445 		JUMPA	.+1		;IF TEST FAILS, CHANGE THIS INSTRUCTION (JUMPA .+1) TO
 25707									;JUMPA X (X IS THE ADDRESS OF THE FIRST INSTRUCTION
DFKAA PDP-10 KL10 BASIC INSTRUCTION DIAGNOSTIC (1) VER 0,2	MACRO %52(537) 09:34 31-JAN-77 PAGE 89-8
DFKAA3	MAC	25-AUG-75 13:57		SUPPLEMENTARY ADDER TESTS - FLT 0 + 0FLT                                           SEQ 0564

 25708									;IN THE SUBTEST) TO LOOP ON ERROR^
 25709
 25710					;**********
 25711
 25712
 25713					;THIS TEST VERIFIES THAT THE RESULT OF A FLOATING ZERO
 25714					;ADDED TO A FLOATING ZERO IS A FLOATING ZERO
 25715					;PLACED ONE BIT POSITION LEFT OF THE ORIGINAL FLOATING ZERO.
 25716					;THIS TEST IS REPEATED 36 TIMES TO FLOAT A ZERO THRU ALL 36 BITS OF THE ADDER.
 25717					;THIS TEST IS DESIGNED TO TEST THE ADDER AND RELATED DATA PATHS ONLY.
 25718
 25719			046024		SN=SN+1
 25720			777775			XX=<XX+XX+1>&777777
 25721						IFE	<XX-1>,<XX=777776>
 25722	044445	525 00 0 00 777775 		HRLOI	XX		;PRELOAD AC WITH A FLOATING ZERO
 25723	044446	270 00 0 00 070356 		ADD	[XX,,-1]	;ADD A FLOATING ZERO TO ITSELF
 25724	044447	312 00 0 00 070574 		CAME	[<XX+XX+1>&777777,,-2]	;CHECK ADDER UPON FAILURE
 25725						STOP		^
 25726	044450	254 04 0 00 044451 		HALT	.+1		;TEST FAILED IF PROGRAM HALTS HERE
 25727	044451	324 00 0 00 044452 		JUMPA	.+1		;IF TEST FAILS, CHANGE THIS INSTRUCTION (JUMPA .+1) TO
 25728									;JUMPA X (X IS THE ADDRESS OF THE FIRST INSTRUCTION
 25729									;IN THE SUBTEST) TO LOOP ON ERROR^
 25730
 25731					;**********
 25732
 25733
 25734					;THIS TEST VERIFIES THAT THE RESULT OF A FLOATING ZERO
 25735					;ADDED TO A FLOATING ZERO IS A FLOATING ZERO
 25736					;PLACED ONE BIT POSITION LEFT OF THE ORIGINAL FLOATING ZERO.
 25737					;THIS TEST IS REPEATED 36 TIMES TO FLOAT A ZERO THRU ALL 36 BITS OF THE ADDER.
 25738					;THIS TEST IS DESIGNED TO TEST THE ADDER AND RELATED DATA PATHS ONLY.
 25739
 25740			046025		SN=SN+1
 25741			777773			XX=<XX+XX+1>&777777
 25742						IFE	<XX-1>,<XX=777776>
 25743	044452	525 00 0 00 777773 		HRLOI	XX		;PRELOAD AC WITH A FLOATING ZERO
 25744	044453	270 00 0 00 070357 		ADD	[XX,,-1]	;ADD A FLOATING ZERO TO ITSELF
 25745	044454	312 00 0 00 070575 		CAME	[<XX+XX+1>&777777,,-2]	;CHECK ADDER UPON FAILURE
 25746						STOP		^
 25747	044455	254 04 0 00 044456 		HALT	.+1		;TEST FAILED IF PROGRAM HALTS HERE
 25748	044456	324 00 0 00 044457 		JUMPA	.+1		;IF TEST FAILS, CHANGE THIS INSTRUCTION (JUMPA .+1) TO
 25749									;JUMPA X (X IS THE ADDRESS OF THE FIRST INSTRUCTION
 25750									;IN THE SUBTEST) TO LOOP ON ERROR^
 25751
 25752					;**********
 25753
 25754
 25755					;THIS TEST VERIFIES THAT THE RESULT OF A FLOATING ZERO
 25756					;ADDED TO A FLOATING ZERO IS A FLOATING ZERO
 25757					;PLACED ONE BIT POSITION LEFT OF THE ORIGINAL FLOATING ZERO.
 25758					;THIS TEST IS REPEATED 36 TIMES TO FLOAT A ZERO THRU ALL 36 BITS OF THE ADDER.
 25759					;THIS TEST IS DESIGNED TO TEST THE ADDER AND RELATED DATA PATHS ONLY.
 25760
 25761			046026		SN=SN+1
 25762			777767			XX=<XX+XX+1>&777777
DFKAA PDP-10 KL10 BASIC INSTRUCTION DIAGNOSTIC (1) VER 0,2	MACRO %52(537) 09:34 31-JAN-77 PAGE 89-9
DFKAA3	MAC	25-AUG-75 13:57		SUPPLEMENTARY ADDER TESTS - FLT 0 + 0FLT                                           SEQ 0565

 25763						IFE	<XX-1>,<XX=777776>
 25764	044457	525 00 0 00 777767 		HRLOI	XX		;PRELOAD AC WITH A FLOATING ZERO
 25765	044460	270 00 0 00 070360 		ADD	[XX,,-1]	;ADD A FLOATING ZERO TO ITSELF
 25766	044461	312 00 0 00 070576 		CAME	[<XX+XX+1>&777777,,-2]	;CHECK ADDER UPON FAILURE
 25767						STOP		^
 25768	044462	254 04 0 00 044463 		HALT	.+1		;TEST FAILED IF PROGRAM HALTS HERE
 25769	044463	324 00 0 00 044464 		JUMPA	.+1		;IF TEST FAILS, CHANGE THIS INSTRUCTION (JUMPA .+1) TO
 25770									;JUMPA X (X IS THE ADDRESS OF THE FIRST INSTRUCTION
 25771									;IN THE SUBTEST) TO LOOP ON ERROR^
 25772
 25773					;**********
 25774
 25775
 25776					;THIS TEST VERIFIES THAT THE RESULT OF A FLOATING ZERO
 25777					;ADDED TO A FLOATING ZERO IS A FLOATING ZERO
 25778					;PLACED ONE BIT POSITION LEFT OF THE ORIGINAL FLOATING ZERO.
 25779					;THIS TEST IS REPEATED 36 TIMES TO FLOAT A ZERO THRU ALL 36 BITS OF THE ADDER.
 25780					;THIS TEST IS DESIGNED TO TEST THE ADDER AND RELATED DATA PATHS ONLY.
 25781
 25782			046027		SN=SN+1
 25783			777757			XX=<XX+XX+1>&777777
 25784						IFE	<XX-1>,<XX=777776>
 25785	044464	525 00 0 00 777757 		HRLOI	XX		;PRELOAD AC WITH A FLOATING ZERO
 25786	044465	270 00 0 00 070361 		ADD	[XX,,-1]	;ADD A FLOATING ZERO TO ITSELF
 25787	044466	312 00 0 00 070577 		CAME	[<XX+XX+1>&777777,,-2]	;CHECK ADDER UPON FAILURE
 25788						STOP		^
 25789	044467	254 04 0 00 044470 		HALT	.+1		;TEST FAILED IF PROGRAM HALTS HERE
 25790	044470	324 00 0 00 044471 		JUMPA	.+1		;IF TEST FAILS, CHANGE THIS INSTRUCTION (JUMPA .+1) TO
 25791									;JUMPA X (X IS THE ADDRESS OF THE FIRST INSTRUCTION
 25792									;IN THE SUBTEST) TO LOOP ON ERROR^
 25793
 25794					;**********
 25795
 25796
 25797					;THIS TEST VERIFIES THAT THE RESULT OF A FLOATING ZERO
 25798					;ADDED TO A FLOATING ZERO IS A FLOATING ZERO
 25799					;PLACED ONE BIT POSITION LEFT OF THE ORIGINAL FLOATING ZERO.
 25800					;THIS TEST IS REPEATED 36 TIMES TO FLOAT A ZERO THRU ALL 36 BITS OF THE ADDER.
 25801					;THIS TEST IS DESIGNED TO TEST THE ADDER AND RELATED DATA PATHS ONLY.
 25802
 25803			046030		SN=SN+1
 25804			777737			XX=<XX+XX+1>&777777
 25805						IFE	<XX-1>,<XX=777776>
 25806	044471	525 00 0 00 777737 		HRLOI	XX		;PRELOAD AC WITH A FLOATING ZERO
 25807	044472	270 00 0 00 070362 		ADD	[XX,,-1]	;ADD A FLOATING ZERO TO ITSELF
 25808	044473	312 00 0 00 070600 		CAME	[<XX+XX+1>&777777,,-2]	;CHECK ADDER UPON FAILURE
 25809						STOP		^
 25810	044474	254 04 0 00 044475 		HALT	.+1		;TEST FAILED IF PROGRAM HALTS HERE
 25811	044475	324 00 0 00 044476 		JUMPA	.+1		;IF TEST FAILS, CHANGE THIS INSTRUCTION (JUMPA .+1) TO
 25812									;JUMPA X (X IS THE ADDRESS OF THE FIRST INSTRUCTION
 25813									;IN THE SUBTEST) TO LOOP ON ERROR^
 25814
 25815					;**********
 25816
 25817
DFKAA PDP-10 KL10 BASIC INSTRUCTION DIAGNOSTIC (1) VER 0,2	MACRO %52(537) 09:34 31-JAN-77 PAGE 89-10
DFKAA3	MAC	25-AUG-75 13:57		SUPPLEMENTARY ADDER TESTS - FLT 0 + 0FLT                                           SEQ 0566

 25818					;THIS TEST VERIFIES THAT THE RESULT OF A FLOATING ZERO
 25819					;ADDED TO A FLOATING ZERO IS A FLOATING ZERO
 25820					;PLACED ONE BIT POSITION LEFT OF THE ORIGINAL FLOATING ZERO.
 25821					;THIS TEST IS REPEATED 36 TIMES TO FLOAT A ZERO THRU ALL 36 BITS OF THE ADDER.
 25822					;THIS TEST IS DESIGNED TO TEST THE ADDER AND RELATED DATA PATHS ONLY.
 25823
 25824			046031		SN=SN+1
 25825			777677			XX=<XX+XX+1>&777777
 25826						IFE	<XX-1>,<XX=777776>
 25827	044476	525 00 0 00 777677 		HRLOI	XX		;PRELOAD AC WITH A FLOATING ZERO
 25828	044477	270 00 0 00 070363 		ADD	[XX,,-1]	;ADD A FLOATING ZERO TO ITSELF
 25829	044500	312 00 0 00 070601 		CAME	[<XX+XX+1>&777777,,-2]	;CHECK ADDER UPON FAILURE
 25830						STOP		^
 25831	044501	254 04 0 00 044502 		HALT	.+1		;TEST FAILED IF PROGRAM HALTS HERE
 25832	044502	324 00 0 00 044503 		JUMPA	.+1		;IF TEST FAILS, CHANGE THIS INSTRUCTION (JUMPA .+1) TO
 25833									;JUMPA X (X IS THE ADDRESS OF THE FIRST INSTRUCTION
 25834									;IN THE SUBTEST) TO LOOP ON ERROR^
 25835
 25836					;**********
 25837
 25838
 25839					;THIS TEST VERIFIES THAT THE RESULT OF A FLOATING ZERO
 25840					;ADDED TO A FLOATING ZERO IS A FLOATING ZERO
 25841					;PLACED ONE BIT POSITION LEFT OF THE ORIGINAL FLOATING ZERO.
 25842					;THIS TEST IS REPEATED 36 TIMES TO FLOAT A ZERO THRU ALL 36 BITS OF THE ADDER.
 25843					;THIS TEST IS DESIGNED TO TEST THE ADDER AND RELATED DATA PATHS ONLY.
 25844
 25845			046032		SN=SN+1
 25846			777577			XX=<XX+XX+1>&777777
 25847						IFE	<XX-1>,<XX=777776>
 25848	044503	525 00 0 00 777577 		HRLOI	XX		;PRELOAD AC WITH A FLOATING ZERO
 25849	044504	270 00 0 00 070364 		ADD	[XX,,-1]	;ADD A FLOATING ZERO TO ITSELF
 25850	044505	312 00 0 00 070602 		CAME	[<XX+XX+1>&777777,,-2]	;CHECK ADDER UPON FAILURE
 25851						STOP		^
 25852	044506	254 04 0 00 044507 		HALT	.+1		;TEST FAILED IF PROGRAM HALTS HERE
 25853	044507	324 00 0 00 044510 		JUMPA	.+1		;IF TEST FAILS, CHANGE THIS INSTRUCTION (JUMPA .+1) TO
 25854									;JUMPA X (X IS THE ADDRESS OF THE FIRST INSTRUCTION
 25855									;IN THE SUBTEST) TO LOOP ON ERROR^
 25856
 25857					;**********
 25858
 25859
 25860					;THIS TEST VERIFIES THAT THE RESULT OF A FLOATING ZERO
 25861					;ADDED TO A FLOATING ZERO IS A FLOATING ZERO
 25862					;PLACED ONE BIT POSITION LEFT OF THE ORIGINAL FLOATING ZERO.
 25863					;THIS TEST IS REPEATED 36 TIMES TO FLOAT A ZERO THRU ALL 36 BITS OF THE ADDER.
 25864					;THIS TEST IS DESIGNED TO TEST THE ADDER AND RELATED DATA PATHS ONLY.
 25865
 25866			046033		SN=SN+1
 25867			777377			XX=<XX+XX+1>&777777
 25868						IFE	<XX-1>,<XX=777776>
 25869	044510	525 00 0 00 777377 		HRLOI	XX		;PRELOAD AC WITH A FLOATING ZERO
 25870	044511	270 00 0 00 070365 		ADD	[XX,,-1]	;ADD A FLOATING ZERO TO ITSELF
 25871	044512	312 00 0 00 070603 		CAME	[<XX+XX+1>&777777,,-2]	;CHECK ADDER UPON FAILURE
 25872						STOP		^
DFKAA PDP-10 KL10 BASIC INSTRUCTION DIAGNOSTIC (1) VER 0,2	MACRO %52(537) 09:34 31-JAN-77 PAGE 89-11
DFKAA3	MAC	25-AUG-75 13:57		SUPPLEMENTARY ADDER TESTS - FLT 0 + 0FLT                                           SEQ 0567

 25873	044513	254 04 0 00 044514 		HALT	.+1		;TEST FAILED IF PROGRAM HALTS HERE
 25874	044514	324 00 0 00 044515 		JUMPA	.+1		;IF TEST FAILS, CHANGE THIS INSTRUCTION (JUMPA .+1) TO
 25875									;JUMPA X (X IS THE ADDRESS OF THE FIRST INSTRUCTION
 25876									;IN THE SUBTEST) TO LOOP ON ERROR^
 25877
 25878					;**********
 25879
 25880
 25881					;THIS TEST VERIFIES THAT THE RESULT OF A FLOATING ZERO
 25882					;ADDED TO A FLOATING ZERO IS A FLOATING ZERO
 25883					;PLACED ONE BIT POSITION LEFT OF THE ORIGINAL FLOATING ZERO.
 25884					;THIS TEST IS REPEATED 36 TIMES TO FLOAT A ZERO THRU ALL 36 BITS OF THE ADDER.
 25885					;THIS TEST IS DESIGNED TO TEST THE ADDER AND RELATED DATA PATHS ONLY.
 25886
 25887			046034		SN=SN+1
 25888			776777			XX=<XX+XX+1>&777777
 25889						IFE	<XX-1>,<XX=777776>
 25890	044515	525 00 0 00 776777 		HRLOI	XX		;PRELOAD AC WITH A FLOATING ZERO
 25891	044516	270 00 0 00 070366 		ADD	[XX,,-1]	;ADD A FLOATING ZERO TO ITSELF
 25892	044517	312 00 0 00 070604 		CAME	[<XX+XX+1>&777777,,-2]	;CHECK ADDER UPON FAILURE
 25893						STOP		^
 25894	044520	254 04 0 00 044521 		HALT	.+1		;TEST FAILED IF PROGRAM HALTS HERE
 25895	044521	324 00 0 00 044522 		JUMPA	.+1		;IF TEST FAILS, CHANGE THIS INSTRUCTION (JUMPA .+1) TO
 25896									;JUMPA X (X IS THE ADDRESS OF THE FIRST INSTRUCTION
 25897									;IN THE SUBTEST) TO LOOP ON ERROR^
 25898
 25899					;**********
 25900
 25901
 25902					;THIS TEST VERIFIES THAT THE RESULT OF A FLOATING ZERO
 25903					;ADDED TO A FLOATING ZERO IS A FLOATING ZERO
 25904					;PLACED ONE BIT POSITION LEFT OF THE ORIGINAL FLOATING ZERO.
 25905					;THIS TEST IS REPEATED 36 TIMES TO FLOAT A ZERO THRU ALL 36 BITS OF THE ADDER.
 25906					;THIS TEST IS DESIGNED TO TEST THE ADDER AND RELATED DATA PATHS ONLY.
 25907
 25908			046035		SN=SN+1
 25909			775777			XX=<XX+XX+1>&777777
 25910						IFE	<XX-1>,<XX=777776>
 25911	044522	525 00 0 00 775777 		HRLOI	XX		;PRELOAD AC WITH A FLOATING ZERO
 25912	044523	270 00 0 00 070367 		ADD	[XX,,-1]	;ADD A FLOATING ZERO TO ITSELF
 25913	044524	312 00 0 00 070605 		CAME	[<XX+XX+1>&777777,,-2]	;CHECK ADDER UPON FAILURE
 25914						STOP		^
 25915	044525	254 04 0 00 044526 		HALT	.+1		;TEST FAILED IF PROGRAM HALTS HERE
 25916	044526	324 00 0 00 044527 		JUMPA	.+1		;IF TEST FAILS, CHANGE THIS INSTRUCTION (JUMPA .+1) TO
 25917									;JUMPA X (X IS THE ADDRESS OF THE FIRST INSTRUCTION
 25918									;IN THE SUBTEST) TO LOOP ON ERROR^
 25919
 25920					;**********
 25921
 25922
 25923					;THIS TEST VERIFIES THAT THE RESULT OF A FLOATING ZERO
 25924					;ADDED TO A FLOATING ZERO IS A FLOATING ZERO
 25925					;PLACED ONE BIT POSITION LEFT OF THE ORIGINAL FLOATING ZERO.
 25926					;THIS TEST IS REPEATED 36 TIMES TO FLOAT A ZERO THRU ALL 36 BITS OF THE ADDER.
 25927					;THIS TEST IS DESIGNED TO TEST THE ADDER AND RELATED DATA PATHS ONLY.
DFKAA PDP-10 KL10 BASIC INSTRUCTION DIAGNOSTIC (1) VER 0,2	MACRO %52(537) 09:34 31-JAN-77 PAGE 89-12
DFKAA3	MAC	25-AUG-75 13:57		SUPPLEMENTARY ADDER TESTS - FLT 0 + 0FLT                                           SEQ 0568

 25928
 25929			046036		SN=SN+1
 25930			773777			XX=<XX+XX+1>&777777
 25931						IFE	<XX-1>,<XX=777776>
 25932	044527	525 00 0 00 773777 		HRLOI	XX		;PRELOAD AC WITH A FLOATING ZERO
 25933	044530	270 00 0 00 070370 		ADD	[XX,,-1]	;ADD A FLOATING ZERO TO ITSELF
 25934	044531	312 00 0 00 070606 		CAME	[<XX+XX+1>&777777,,-2]	;CHECK ADDER UPON FAILURE
 25935						STOP		^
 25936	044532	254 04 0 00 044533 		HALT	.+1		;TEST FAILED IF PROGRAM HALTS HERE
 25937	044533	324 00 0 00 044534 		JUMPA	.+1		;IF TEST FAILS, CHANGE THIS INSTRUCTION (JUMPA .+1) TO
 25938									;JUMPA X (X IS THE ADDRESS OF THE FIRST INSTRUCTION
 25939									;IN THE SUBTEST) TO LOOP ON ERROR^
 25940
 25941					;**********
 25942
 25943
 25944					;THIS TEST VERIFIES THAT THE RESULT OF A FLOATING ZERO
 25945					;ADDED TO A FLOATING ZERO IS A FLOATING ZERO
 25946					;PLACED ONE BIT POSITION LEFT OF THE ORIGINAL FLOATING ZERO.
 25947					;THIS TEST IS REPEATED 36 TIMES TO FLOAT A ZERO THRU ALL 36 BITS OF THE ADDER.
 25948					;THIS TEST IS DESIGNED TO TEST THE ADDER AND RELATED DATA PATHS ONLY.
 25949
 25950			046037		SN=SN+1
 25951			767777			XX=<XX+XX+1>&777777
 25952						IFE	<XX-1>,<XX=777776>
 25953	044534	525 00 0 00 767777 		HRLOI	XX		;PRELOAD AC WITH A FLOATING ZERO
 25954	044535	270 00 0 00 070371 		ADD	[XX,,-1]	;ADD A FLOATING ZERO TO ITSELF
 25955	044536	312 00 0 00 070607 		CAME	[<XX+XX+1>&777777,,-2]	;CHECK ADDER UPON FAILURE
 25956						STOP		^
 25957	044537	254 04 0 00 044540 		HALT	.+1		;TEST FAILED IF PROGRAM HALTS HERE
 25958	044540	324 00 0 00 044541 		JUMPA	.+1		;IF TEST FAILS, CHANGE THIS INSTRUCTION (JUMPA .+1) TO
 25959									;JUMPA X (X IS THE ADDRESS OF THE FIRST INSTRUCTION
 25960									;IN THE SUBTEST) TO LOOP ON ERROR^
 25961
 25962					;**********
 25963
 25964
 25965					;THIS TEST VERIFIES THAT THE RESULT OF A FLOATING ZERO
 25966					;ADDED TO A FLOATING ZERO IS A FLOATING ZERO
 25967					;PLACED ONE BIT POSITION LEFT OF THE ORIGINAL FLOATING ZERO.
 25968					;THIS TEST IS REPEATED 36 TIMES TO FLOAT A ZERO THRU ALL 36 BITS OF THE ADDER.
 25969					;THIS TEST IS DESIGNED TO TEST THE ADDER AND RELATED DATA PATHS ONLY.
 25970
 25971			046040		SN=SN+1
 25972			757777			XX=<XX+XX+1>&777777
 25973						IFE	<XX-1>,<XX=777776>
 25974	044541	525 00 0 00 757777 		HRLOI	XX		;PRELOAD AC WITH A FLOATING ZERO
 25975	044542	270 00 0 00 070372 		ADD	[XX,,-1]	;ADD A FLOATING ZERO TO ITSELF
 25976	044543	312 00 0 00 070610 		CAME	[<XX+XX+1>&777777,,-2]	;CHECK ADDER UPON FAILURE
 25977						STOP		^
 25978	044544	254 04 0 00 044545 		HALT	.+1		;TEST FAILED IF PROGRAM HALTS HERE
 25979	044545	324 00 0 00 044546 		JUMPA	.+1		;IF TEST FAILS, CHANGE THIS INSTRUCTION (JUMPA .+1) TO
 25980									;JUMPA X (X IS THE ADDRESS OF THE FIRST INSTRUCTION
 25981									;IN THE SUBTEST) TO LOOP ON ERROR^
 25982
DFKAA PDP-10 KL10 BASIC INSTRUCTION DIAGNOSTIC (1) VER 0,2	MACRO %52(537) 09:34 31-JAN-77 PAGE 89-13
DFKAA3	MAC	25-AUG-75 13:57		SUPPLEMENTARY ADDER TESTS - FLT 0 + 0FLT                                           SEQ 0569

 25983					;**********
 25984
 25985
 25986					;THIS TEST VERIFIES THAT THE RESULT OF A FLOATING ZERO
 25987					;ADDED TO A FLOATING ZERO IS A FLOATING ZERO
 25988					;PLACED ONE BIT POSITION LEFT OF THE ORIGINAL FLOATING ZERO.
 25989					;THIS TEST IS REPEATED 36 TIMES TO FLOAT A ZERO THRU ALL 36 BITS OF THE ADDER.
 25990					;THIS TEST IS DESIGNED TO TEST THE ADDER AND RELATED DATA PATHS ONLY.
 25991
 25992			046041		SN=SN+1
 25993			737777			XX=<XX+XX+1>&777777
 25994						IFE	<XX-1>,<XX=777776>
 25995	044546	525 00 0 00 737777 		HRLOI	XX		;PRELOAD AC WITH A FLOATING ZERO
 25996	044547	270 00 0 00 070373 		ADD	[XX,,-1]	;ADD A FLOATING ZERO TO ITSELF
 25997	044550	312 00 0 00 070611 		CAME	[<XX+XX+1>&777777,,-2]	;CHECK ADDER UPON FAILURE
 25998						STOP		^
 25999	044551	254 04 0 00 044552 		HALT	.+1		;TEST FAILED IF PROGRAM HALTS HERE
 26000	044552	324 00 0 00 044553 		JUMPA	.+1		;IF TEST FAILS, CHANGE THIS INSTRUCTION (JUMPA .+1) TO
 26001									;JUMPA X (X IS THE ADDRESS OF THE FIRST INSTRUCTION
 26002									;IN THE SUBTEST) TO LOOP ON ERROR^
 26003
 26004					;**********
 26005
 26006
 26007					;THIS TEST VERIFIES THAT THE RESULT OF A FLOATING ZERO
 26008					;ADDED TO A FLOATING ZERO IS A FLOATING ZERO
 26009					;PLACED ONE BIT POSITION LEFT OF THE ORIGINAL FLOATING ZERO.
 26010					;THIS TEST IS REPEATED 36 TIMES TO FLOAT A ZERO THRU ALL 36 BITS OF THE ADDER.
 26011					;THIS TEST IS DESIGNED TO TEST THE ADDER AND RELATED DATA PATHS ONLY.
 26012
 26013			046042		SN=SN+1
 26014			677777			XX=<XX+XX+1>&777777
 26015						IFE	<XX-1>,<XX=777776>
 26016	044553	525 00 0 00 677777 		HRLOI	XX		;PRELOAD AC WITH A FLOATING ZERO
 26017	044554	270 00 0 00 070374 		ADD	[XX,,-1]	;ADD A FLOATING ZERO TO ITSELF
 26018	044555	312 00 0 00 070612 		CAME	[<XX+XX+1>&777777,,-2]	;CHECK ADDER UPON FAILURE
 26019						STOP		^
 26020	044556	254 04 0 00 044557 		HALT	.+1		;TEST FAILED IF PROGRAM HALTS HERE
 26021	044557	324 00 0 00 044560 		JUMPA	.+1		;IF TEST FAILS, CHANGE THIS INSTRUCTION (JUMPA .+1) TO
 26022									;JUMPA X (X IS THE ADDRESS OF THE FIRST INSTRUCTION
 26023									;IN THE SUBTEST) TO LOOP ON ERROR^
 26024
 26025					;**********
 26026
 26027
 26028					;THIS TEST VERIFIES THAT THE RESULT OF A FLOATING ZERO
 26029					;ADDED TO A FLOATING ZERO IS A FLOATING ZERO
 26030					;PLACED ONE BIT POSITION LEFT OF THE ORIGINAL FLOATING ZERO.
 26031					;THIS TEST IS REPEATED 36 TIMES TO FLOAT A ZERO THRU ALL 36 BITS OF THE ADDER.
 26032					;THIS TEST IS DESIGNED TO TEST THE ADDER AND RELATED DATA PATHS ONLY.
 26033
 26034			046043		SN=SN+1
 26035			577777			XX=<XX+XX+1>&777777
 26036						IFE	<XX-1>,<XX=777776>
 26037	044560	525 00 0 00 577777 		HRLOI	XX		;PRELOAD AC WITH A FLOATING ZERO
DFKAA PDP-10 KL10 BASIC INSTRUCTION DIAGNOSTIC (1) VER 0,2	MACRO %52(537) 09:34 31-JAN-77 PAGE 89-14
DFKAA3	MAC	25-AUG-75 13:57		SUPPLEMENTARY ADDER TESTS - FLT 0 + 0FLT                                           SEQ 0570

 26038	044561	270 00 0 00 070375 		ADD	[XX,,-1]	;ADD A FLOATING ZERO TO ITSELF
 26039	044562	312 00 0 00 070613 		CAME	[<XX+XX+1>&777777,,-2]	;CHECK ADDER UPON FAILURE
 26040						STOP		^
 26041	044563	254 04 0 00 044564 		HALT	.+1		;TEST FAILED IF PROGRAM HALTS HERE
 26042	044564	324 00 0 00 044565 		JUMPA	.+1		;IF TEST FAILS, CHANGE THIS INSTRUCTION (JUMPA .+1) TO
 26043									;JUMPA X (X IS THE ADDRESS OF THE FIRST INSTRUCTION
 26044									;IN THE SUBTEST) TO LOOP ON ERROR^
 26045
 26046					;**********
 26047
 26048
 26049					;THIS TEST VERIFIES THAT THE RESULT OF A FLOATING ZERO
 26050					;ADDED TO A FLOATING ZERO IS A FLOATING ZERO
 26051					;PLACED ONE BIT POSITION LEFT OF THE ORIGINAL FLOATING ZERO.
 26052					;THIS TEST IS REPEATED 36 TIMES TO FLOAT A ZERO THRU ALL 36 BITS OF THE ADDER.
 26053					;THIS TEST IS DESIGNED TO TEST THE ADDER AND RELATED DATA PATHS ONLY.
 26054
 26055			046044		SN=SN+1
 26056			377777			XX=<XX+XX+1>&777777
 26057						IFE	<XX-1>,<XX=777776>
 26058	044565	525 00 0 00 377777 		HRLOI	XX		;PRELOAD AC WITH A FLOATING ZERO
 26059	044566	270 00 0 00 070255 		ADD	[XX,,-1]	;ADD A FLOATING ZERO TO ITSELF
 26060	044567	312 00 0 00 070333 		CAME	[<XX+XX+1>&777777,,-2]	;CHECK ADDER UPON FAILURE
 26061						STOP		^
 26062	044570	254 04 0 00 044571 		HALT	.+1		;TEST FAILED IF PROGRAM HALTS HERE
 26063	044571	324 00 0 00 044572 		JUMPA	.+1		;IF TEST FAILS, CHANGE THIS INSTRUCTION (JUMPA .+1) TO
 26064									;JUMPA X (X IS THE ADDRESS OF THE FIRST INSTRUCTION
 26065									;IN THE SUBTEST) TO LOOP ON ERROR^
 26066
 26067					;**********
 26068
DFKAA PDP-10 KL10 BASIC INSTRUCTION DIAGNOSTIC (1) VER 0,2	MACRO %52(537) 09:34 31-JAN-77 PAGE 1
DFKAA4	MAC	25-AUG-75 13:58		TEST OF AC HARDWARE AND INDEX REGISTERS                                            SEQ 0571

 26069					SUBTTL	TEST OF AC HARDWARE AND INDEX REGISTERS
 26070
 26071					;NOTE:	AN "*" IN THE COMMENT FIELD OF AN INSTRUCTION INDICATES THAT
 26072					;	IT IS THE TESTED INSTRUCTION.
 26073
 26074
 26075					;**********
 26076
 26077					;THIS TEST VERIFIES THAT AC1 IS ACCESSABLE
 26078					;IN THIS CASE, AC1 IS PRELOADED WITH 1.
 26079					;C(AC1) IS THEN CHECKED FOR A1.  THIS TEST PASSES IF C(AC1)=1.
 26080					;IF THIS TEST FAILS, THE AC HARDWARE IS PROBABLY FAULTY
 26081
 26082	044572	400 00 0 00 000000 	C100:	SETZ			;CLEAR AC0
 26083	044573	201 01 0 00 000001 		MOVEI	1,1		;PRELOAD AC1 UMTH 1
 26084	044574	302 01 0 00 000001 		CAIE	1,1		;PASS IF C(AC1)=1
 26085						STOP^
 26086	044575	254 04 0 00 044576 		HALT	.+1		;TEST FAILED IF PROGRAM HALTS HERE
 26087	044576	324 00 0 00 044577 		JUMPA	.+1		;IF TEST FAILS, CHANGE THIS INSTRUCTION (JUMPA .+1) TO
 26088									;JUMPA X (X IS THE ADDRESS OF THE FIRST INSTRUCTION
 26089									;IN THE SUBTEST) TO LOOP ON ERROR^
 26090
 26091					;**********
 26092
 26093					;THIS TEST VERIFIES THAT AC2 IS ACCESSABLE.
 26094					;IN THIS CASE, AC2 IS PRELOADED WITH 2.
 26095					;C(AC2) IS THEN CHECKED FOR 2.  THIS TEST PASSES IF C(AC2)=2.
 26096					;IF THIS TEST FAILS, THE AC HARDWARE IS PROBABLY FAULTY
 26097
 26098	044577	201 02 0 00 000002 	C200:	MOVEI	2,2		;PRELOAD AC2 WITH 2
 26099	044600	302 02 0 00 000002 		CAIE	2,2		;PASS IF C(AC2)=2
 26100						STOP^
 26101	044601	254 04 0 00 044602 		HALT	.+1		;TEST FAILED IF PROGRAM HALTS HERE
 26102	044602	324 00 0 00 044603 		JUMPA	.+1		;IF TEST FAILS, CHANGE THIS INSTRUCTION (JUMPA .+1) TO
 26103									;JUMPA X (X IS THE ADDRESS OF THE FIRST INSTRUCTION
 26104									;IN THE SUBTEST) TO LOOP ON ERROR^
 26105
 26106					;**********
DFKAA PDP-10 KL10 BASIC INSTRUCTION DIAGNOSTIC (1) VER 0,2	MACRO %52(537) 09:34 31-JAN-77 PAGE 2
DFKAA4	MAC	25-AUG-75 13:58		TEST OF AC HARDWARE AND INDEX REGISTERS                                            SEQ 0572

 26107					;THIS TEST VERIFIES THAT AC4 IS ACCESSABLE.
 26108					;IN THIS CASE, AC4 IS PRELOADED WITH 4.
 26109					;C(AC4) IS THEN CHECKED FOR 4.  THIS TEST PASSES IF C(AC4)=4.
 26110					;IF THIS TEST FAILS, THE AC HARDWARE IS PROBABLY FAULTY
 26111
 26112	044603	201 04 0 00 000004 	C300:	MOVEI	4,4		;PRELOAD AC4 WITH 4
 26113	044604	302 04 0 00 000004 		CAIE	4,4		;PASS IF C(AC4)=4
 26114						STOP^
 26115	044605	254 04 0 00 044606 		HALT	.+1		;TEST FAILED IF PROGRAM HALTS HERE
 26116	044606	324 00 0 00 044607 		JUMPA	.+1		;IF TEST FAILS, CHANGE THIS INSTRUCTION (JUMPA .+1) TO
 26117									;JUMPA X (X IS THE ADDRESS OF THE FIRST INSTRUCTION
 26118									;IN THE SUBTEST) TO LOOP ON ERROR^
 26119
 26120					;**********
 26121
 26122					;THIS TEST VERIFIES THAT AC10 IS ACCESSABLE.
 26123					;IN THIS CASE, AC10 IS PRELOADED WITH 10.
 26124					;C(AC10) IS THEN CHECKED FOR 10.  THIS TEST PASSES IF C(AC10)=10.
 26125					;IF THIS TEST FAILS, THE AC HARDWARE IS PROBABLY FAULTY
 26126
 26127	044607	201 10 0 00 000010 	C400:	MOVEI	10,10		;PRELOAD AC10 WITH 10
 26128	044610	302 10 0 00 000010 		CAIE	10,10		;PASS IF C(AC10)=10
 26129						STOP^
 26130	044611	254 04 0 00 044612 		HALT	.+1		;TEST FAILED IF PROGRAM HALTS HERE
 26131	044612	324 00 0 00 044613 		JUMPA	.+1		;IF TEST FAILS, CHANGE THIS INSTRUCTION (JUMPA .+1) TO
 26132									;JUMPA X (X IS THE ADDRESS OF THE FIRST INSTRUCTION
 26133									;IN THE SUBTEST) TO LOOP ON ERROR^
 26134
 26135					;**********
DFKAA PDP-10 KL10 BASIC INSTRUCTION DIAGNOSTIC (1) VER 0,2	MACRO %52(537) 09:34 31-JAN-77 PAGE 3
DFKAA4	MAC	25-AUG-75 13:58		TEST OF AC HARDWARE AND INDEX REGISTERS                                            SEQ 0573

 26136			000500		SN=500
 26137		777777	777777			ZZ=-1
 26138
 26139					;THIS TEST VERIFIES THAT ALL ACS EXIST
 26140					;FIRST, EACH AC IS PRELOADED WITH ITS OWN ADDRESS;
 26141					;THEN, THE CONTENTS OF EACH AC IS CHECKED FOR ITS ADDRESS.
 26142					;IF ANY AC DOES NOT CONTAIN ITS ADDRESS, THIS TEST FAILS
 26143
 26144					C500:	REPEAT	^D16,
 26145					<	ZZ=ZZ+1
 26146						MOVEI	ZZ,ZZ		;PRELOAD EACH AC WITH ITS ADDR>
 26147			000000			ZZ=ZZ+1
 26148	044613	201 00 0 00 000000 		MOVEI	ZZ,ZZ		;PRELOAD EACH AC WITH ITS ADDR
 26149			000001			ZZ=ZZ+1
 26150	044614	201 01 0 00 000001 		MOVEI	ZZ,ZZ		;PRELOAD EACH AC WITH ITS ADDR
 26151			000002			ZZ=ZZ+1
 26152	044615	201 02 0 00 000002 		MOVEI	ZZ,ZZ		;PRELOAD EACH AC WITH ITS ADDR
 26153			000003			ZZ=ZZ+1
 26154	044616	201 03 0 00 000003 		MOVEI	ZZ,ZZ		;PRELOAD EACH AC WITH ITS ADDR
 26155			000004			ZZ=ZZ+1
 26156	044617	201 04 0 00 000004 		MOVEI	ZZ,ZZ		;PRELOAD EACH AC WITH ITS ADDR
 26157			000005			ZZ=ZZ+1
 26158	044620	201 05 0 00 000005 		MOVEI	ZZ,ZZ		;PRELOAD EACH AC WITH ITS ADDR
 26159			000006			ZZ=ZZ+1
 26160	044621	201 06 0 00 000006 		MOVEI	ZZ,ZZ		;PRELOAD EACH AC WITH ITS ADDR
 26161			000007			ZZ=ZZ+1
 26162	044622	201 07 0 00 000007 		MOVEI	ZZ,ZZ		;PRELOAD EACH AC WITH ITS ADDR
 26163			000010			ZZ=ZZ+1
 26164	044623	201 10 0 00 000010 		MOVEI	ZZ,ZZ		;PRELOAD EACH AC WITH ITS ADDR
 26165			000011			ZZ=ZZ+1
 26166	044624	201 11 0 00 000011 		MOVEI	ZZ,ZZ		;PRELOAD EACH AC WITH ITS ADDR
 26167			000012			ZZ=ZZ+1
 26168	044625	201 12 0 00 000012 		MOVEI	ZZ,ZZ		;PRELOAD EACH AC WITH ITS ADDR
 26169			000013			ZZ=ZZ+1
 26170	044626	201 13 0 00 000013 		MOVEI	ZZ,ZZ		;PRELOAD EACH AC WITH ITS ADDR
 26171			000014			ZZ=ZZ+1
 26172	044627	201 14 0 00 000014 		MOVEI	ZZ,ZZ		;PRELOAD EACH AC WITH ITS ADDR
 26173			000015			ZZ=ZZ+1
 26174	044630	201 15 0 00 000015 		MOVEI	ZZ,ZZ		;PRELOAD EACH AC WITH ITS ADDR
 26175			000016			ZZ=ZZ+1
 26176	044631	201 16 0 00 000016 		MOVEI	ZZ,ZZ		;PRELOAD EACH AC WITH ITS ADDR
 26177			000017			ZZ=ZZ+1
 26178	044632	201 17 0 00 000017 		MOVEI	ZZ,ZZ		;PRELOAD EACH AC WITH ITS ADDR
 26179					PAGE
DFKAA PDP-10 KL10 BASIC INSTRUCTION DIAGNOSTIC (1) VER 0,2	MACRO %52(537) 09:34 31-JAN-77 PAGE 3-1
DFKAA4	MAC	25-AUG-75 13:58		TEST OF AC HARDWARE AND INDEX REGISTERS                                            SEQ 0574

 26180			000020			ZZ=20
 26181
 26182						REPEAT	^D16,<
 26183					;THIS TEST VERIFIES THAT ALL ACS EXIST.
 26184					;FIRST, EACH AC IS PRELOADED WITH ITS OWN ADDRESS;
 26185					;THEN, THE CONTENTS OF EACH AC IS CHECKED FOR ITS ADDRESS.
 26186					;IF ANY AC DOES NOT CONTAIN ITS ADDRESS, THIS TEST FAILS
 26187
 26188					SN=SN+1
 26189						ZZ=ZZ-1
 26190						CAIE	ZZ,ZZ		;CHECK THAT EACH AC CONTAINS ITS OWN ADDRESS
 26191						STOP
 26192									;IN CASE OF FAILURE, LOOP TO C500 ADDRESS
 26193
 26194					;**********
 26195					>
 26196
 26197					;THIS TEST VERIFIES THAT ALL ACS EXIST.
 26198					;FIRST, EACH AC IS PRELOADED WITH ITS OWN ADDRESS;
 26199					;THEN, THE CONTENTS OF EACH AC IS CHECKED FOR ITS ADDRESS.
 26200					;IF ANY AC DOES NOT CONTAIN ITS ADDRESS, THIS TEST FAILS
 26201
 26202			000501		SN=SN+1
 26203			000017			ZZ=ZZ-1
 26204	044633	302 17 0 00 000017 		CAIE	ZZ,ZZ		;CHECK THAT EACH AC CONTAINS ITS OWN ADDRESS
 26205						STOP^
 26206	044634	254 04 0 00 044635 		HALT	.+1		;TEST FAILED IF PROGRAM HALTS HERE
 26207	044635	324 00 0 00 044636 		JUMPA	.+1		;IF TEST FAILS, CHANGE THIS INSTRUCTION (JUMPA .+1) TO
 26208									;JUMPA X (X IS THE ADDRESS OF THE FIRST INSTRUCTION
 26209									;IN THE SUBTEST) TO LOOP ON ERROR^
 26210									;IN CASE OF FAILURE, LOOP TO C500 ADDRESS
 26211
 26212					;**********
 26213
 26214
 26215					;THIS TEST VERIFIES THAT ALL ACS EXIST.
 26216					;FIRST, EACH AC IS PRELOADED WITH ITS OWN ADDRESS;
 26217					;THEN, THE CONTENTS OF EACH AC IS CHECKED FOR ITS ADDRESS.
 26218					;IF ANY AC DOES NOT CONTAIN ITS ADDRESS, THIS TEST FAILS
 26219
 26220			000502		SN=SN+1
 26221			000016			ZZ=ZZ-1
 26222	044636	302 16 0 00 000016 		CAIE	ZZ,ZZ		;CHECK THAT EACH AC CONTAINS ITS OWN ADDRESS
 26223						STOP^
 26224	044637	254 04 0 00 044640 		HALT	.+1		;TEST FAILED IF PROGRAM HALTS HERE
 26225	044640	324 00 0 00 044641 		JUMPA	.+1		;IF TEST FAILS, CHANGE THIS INSTRUCTION (JUMPA .+1) TO
 26226									;JUMPA X (X IS THE ADDRESS OF THE FIRST INSTRUCTION
 26227									;IN THE SUBTEST) TO LOOP ON ERROR^
 26228									;IN CASE OF FAILURE, LOOP TO C500 ADDRESS
 26229
 26230					;**********
 26231
 26232
 26233					;THIS TEST VERIFIES THAT ALL ACS EXIST.
 26234					;FIRST, EACH AC IS PRELOADED WITH ITS OWN ADDRESS;
DFKAA PDP-10 KL10 BASIC INSTRUCTION DIAGNOSTIC (1) VER 0,2	MACRO %52(537) 09:34 31-JAN-77 PAGE 3-2
DFKAA4	MAC	25-AUG-75 13:58		TEST OF AC HARDWARE AND INDEX REGISTERS                                            SEQ 0575

 26235					;THEN, THE CONTENTS OF EACH AC IS CHECKED FOR ITS ADDRESS.
 26236					;IF ANY AC DOES NOT CONTAIN ITS ADDRESS, THIS TEST FAILS
 26237
 26238			000503		SN=SN+1
 26239			000015			ZZ=ZZ-1
 26240	044641	302 15 0 00 000015 		CAIE	ZZ,ZZ		;CHECK THAT EACH AC CONTAINS ITS OWN ADDRESS
 26241						STOP^
 26242	044642	254 04 0 00 044643 		HALT	.+1		;TEST FAILED IF PROGRAM HALTS HERE
 26243	044643	324 00 0 00 044644 		JUMPA	.+1		;IF TEST FAILS, CHANGE THIS INSTRUCTION (JUMPA .+1) TO
 26244									;JUMPA X (X IS THE ADDRESS OF THE FIRST INSTRUCTION
 26245									;IN THE SUBTEST) TO LOOP ON ERROR^
 26246									;IN CASE OF FAILURE, LOOP TO C500 ADDRESS
 26247
 26248					;**********
 26249
 26250
 26251					;THIS TEST VERIFIES THAT ALL ACS EXIST.
 26252					;FIRST, EACH AC IS PRELOADED WITH ITS OWN ADDRESS;
 26253					;THEN, THE CONTENTS OF EACH AC IS CHECKED FOR ITS ADDRESS.
 26254					;IF ANY AC DOES NOT CONTAIN ITS ADDRESS, THIS TEST FAILS
 26255
 26256			000504		SN=SN+1
 26257			000014			ZZ=ZZ-1
 26258	044644	302 14 0 00 000014 		CAIE	ZZ,ZZ		;CHECK THAT EACH AC CONTAINS ITS OWN ADDRESS
 26259						STOP^
 26260	044645	254 04 0 00 044646 		HALT	.+1		;TEST FAILED IF PROGRAM HALTS HERE
 26261	044646	324 00 0 00 044647 		JUMPA	.+1		;IF TEST FAILS, CHANGE THIS INSTRUCTION (JUMPA .+1) TO
 26262									;JUMPA X (X IS THE ADDRESS OF THE FIRST INSTRUCTION
 26263									;IN THE SUBTEST) TO LOOP ON ERROR^
 26264									;IN CASE OF FAILURE, LOOP TO C500 ADDRESS
 26265
 26266					;**********
 26267
 26268
 26269					;THIS TEST VERIFIES THAT ALL ACS EXIST.
 26270					;FIRST, EACH AC IS PRELOADED WITH ITS OWN ADDRESS;
 26271					;THEN, THE CONTENTS OF EACH AC IS CHECKED FOR ITS ADDRESS.
 26272					;IF ANY AC DOES NOT CONTAIN ITS ADDRESS, THIS TEST FAILS
 26273
 26274			000505		SN=SN+1
 26275			000013			ZZ=ZZ-1
 26276	044647	302 13 0 00 000013 		CAIE	ZZ,ZZ		;CHECK THAT EACH AC CONTAINS ITS OWN ADDRESS
 26277						STOP^
 26278	044650	254 04 0 00 044651 		HALT	.+1		;TEST FAILED IF PROGRAM HALTS HERE
 26279	044651	324 00 0 00 044652 		JUMPA	.+1		;IF TEST FAILS, CHANGE THIS INSTRUCTION (JUMPA .+1) TO
 26280									;JUMPA X (X IS THE ADDRESS OF THE FIRST INSTRUCTION
 26281									;IN THE SUBTEST) TO LOOP ON ERROR^
 26282									;IN CASE OF FAILURE, LOOP TO C500 ADDRESS
 26283
 26284					;**********
 26285
 26286
 26287					;THIS TEST VERIFIES THAT ALL ACS EXIST.
 26288					;FIRST, EACH AC IS PRELOADED WITH ITS OWN ADDRESS;
 26289					;THEN, THE CONTENTS OF EACH AC IS CHECKED FOR ITS ADDRESS.
DFKAA PDP-10 KL10 BASIC INSTRUCTION DIAGNOSTIC (1) VER 0,2	MACRO %52(537) 09:34 31-JAN-77 PAGE 3-3
DFKAA4	MAC	25-AUG-75 13:58		TEST OF AC HARDWARE AND INDEX REGISTERS                                            SEQ 0576

 26290					;IF ANY AC DOES NOT CONTAIN ITS ADDRESS, THIS TEST FAILS
 26291
 26292			000506		SN=SN+1
 26293			000012			ZZ=ZZ-1
 26294	044652	302 12 0 00 000012 		CAIE	ZZ,ZZ		;CHECK THAT EACH AC CONTAINS ITS OWN ADDRESS
 26295						STOP^
 26296	044653	254 04 0 00 044654 		HALT	.+1		;TEST FAILED IF PROGRAM HALTS HERE
 26297	044654	324 00 0 00 044655 		JUMPA	.+1		;IF TEST FAILS, CHANGE THIS INSTRUCTION (JUMPA .+1) TO
 26298									;JUMPA X (X IS THE ADDRESS OF THE FIRST INSTRUCTION
 26299									;IN THE SUBTEST) TO LOOP ON ERROR^
 26300									;IN CASE OF FAILURE, LOOP TO C500 ADDRESS
 26301
 26302					;**********
 26303
 26304
 26305					;THIS TEST VERIFIES THAT ALL ACS EXIST.
 26306					;FIRST, EACH AC IS PRELOADED WITH ITS OWN ADDRESS;
 26307					;THEN, THE CONTENTS OF EACH AC IS CHECKED FOR ITS ADDRESS.
 26308					;IF ANY AC DOES NOT CONTAIN ITS ADDRESS, THIS TEST FAILS
 26309
 26310			000507		SN=SN+1
 26311			000011			ZZ=ZZ-1
 26312	044655	302 11 0 00 000011 		CAIE	ZZ,ZZ		;CHECK THAT EACH AC CONTAINS ITS OWN ADDRESS
 26313						STOP^
 26314	044656	254 04 0 00 044657 		HALT	.+1		;TEST FAILED IF PROGRAM HALTS HERE
 26315	044657	324 00 0 00 044660 		JUMPA	.+1		;IF TEST FAILS, CHANGE THIS INSTRUCTION (JUMPA .+1) TO
 26316									;JUMPA X (X IS THE ADDRESS OF THE FIRST INSTRUCTION
 26317									;IN THE SUBTEST) TO LOOP ON ERROR^
 26318									;IN CASE OF FAILURE, LOOP TO C500 ADDRESS
 26319
 26320					;**********
 26321
 26322
 26323					;THIS TEST VERIFIES THAT ALL ACS EXIST.
 26324					;FIRST, EACH AC IS PRELOADED WITH ITS OWN ADDRESS;
 26325					;THEN, THE CONTENTS OF EACH AC IS CHECKED FOR ITS ADDRESS.
 26326					;IF ANY AC DOES NOT CONTAIN ITS ADDRESS, THIS TEST FAILS
 26327
 26328			000510		SN=SN+1
 26329			000010			ZZ=ZZ-1
 26330	044660	302 10 0 00 000010 		CAIE	ZZ,ZZ		;CHECK THAT EACH AC CONTAINS ITS OWN ADDRESS
 26331						STOP^
 26332	044661	254 04 0 00 044662 		HALT	.+1		;TEST FAILED IF PROGRAM HALTS HERE
 26333	044662	324 00 0 00 044663 		JUMPA	.+1		;IF TEST FAILS, CHANGE THIS INSTRUCTION (JUMPA .+1) TO
 26334									;JUMPA X (X IS THE ADDRESS OF THE FIRST INSTRUCTION
 26335									;IN THE SUBTEST) TO LOOP ON ERROR^
 26336									;IN CASE OF FAILURE, LOOP TO C500 ADDRESS
 26337
 26338					;**********
 26339
 26340
 26341					;THIS TEST VERIFIES THAT ALL ACS EXIST.
 26342					;FIRST, EACH AC IS PRELOADED WITH ITS OWN ADDRESS;
 26343					;THEN, THE CONTENTS OF EACH AC IS CHECKED FOR ITS ADDRESS.
 26344					;IF ANY AC DOES NOT CONTAIN ITS ADDRESS, THIS TEST FAILS
DFKAA PDP-10 KL10 BASIC INSTRUCTION DIAGNOSTIC (1) VER 0,2	MACRO %52(537) 09:34 31-JAN-77 PAGE 3-4
DFKAA4	MAC	25-AUG-75 13:58		TEST OF AC HARDWARE AND INDEX REGISTERS                                            SEQ 0577

 26345
 26346			000511		SN=SN+1
 26347			000007			ZZ=ZZ-1
 26348	044663	302 07 0 00 000007 		CAIE	ZZ,ZZ		;CHECK THAT EACH AC CONTAINS ITS OWN ADDRESS
 26349						STOP^
 26350	044664	254 04 0 00 044665 		HALT	.+1		;TEST FAILED IF PROGRAM HALTS HERE
 26351	044665	324 00 0 00 044666 		JUMPA	.+1		;IF TEST FAILS, CHANGE THIS INSTRUCTION (JUMPA .+1) TO
 26352									;JUMPA X (X IS THE ADDRESS OF THE FIRST INSTRUCTION
 26353									;IN THE SUBTEST) TO LOOP ON ERROR^
 26354									;IN CASE OF FAILURE, LOOP TO C500 ADDRESS
 26355
 26356					;**********
 26357
 26358
 26359					;THIS TEST VERIFIES THAT ALL ACS EXIST.
 26360					;FIRST, EACH AC IS PRELOADED WITH ITS OWN ADDRESS;
 26361					;THEN, THE CONTENTS OF EACH AC IS CHECKED FOR ITS ADDRESS.
 26362					;IF ANY AC DOES NOT CONTAIN ITS ADDRESS, THIS TEST FAILS
 26363
 26364			000512		SN=SN+1
 26365			000006			ZZ=ZZ-1
 26366	044666	302 06 0 00 000006 		CAIE	ZZ,ZZ		;CHECK THAT EACH AC CONTAINS ITS OWN ADDRESS
 26367						STOP^
 26368	044667	254 04 0 00 044670 		HALT	.+1		;TEST FAILED IF PROGRAM HALTS HERE
 26369	044670	324 00 0 00 044671 		JUMPA	.+1		;IF TEST FAILS, CHANGE THIS INSTRUCTION (JUMPA .+1) TO
 26370									;JUMPA X (X IS THE ADDRESS OF THE FIRST INSTRUCTION
 26371									;IN THE SUBTEST) TO LOOP ON ERROR^
 26372									;IN CASE OF FAILURE, LOOP TO C500 ADDRESS
 26373
 26374					;**********
 26375
 26376
 26377					;THIS TEST VERIFIES THAT ALL ACS EXIST.
 26378					;FIRST, EACH AC IS PRELOADED WITH ITS OWN ADDRESS;
 26379					;THEN, THE CONTENTS OF EACH AC IS CHECKED FOR ITS ADDRESS.
 26380					;IF ANY AC DOES NOT CONTAIN ITS ADDRESS, THIS TEST FAILS
 26381
 26382			000513		SN=SN+1
 26383			000005			ZZ=ZZ-1
 26384	044671	302 05 0 00 000005 		CAIE	ZZ,ZZ		;CHECK THAT EACH AC CONTAINS ITS OWN ADDRESS
 26385						STOP^
 26386	044672	254 04 0 00 044673 		HALT	.+1		;TEST FAILED IF PROGRAM HALTS HERE
 26387	044673	324 00 0 00 044674 		JUMPA	.+1		;IF TEST FAILS, CHANGE THIS INSTRUCTION (JUMPA .+1) TO
 26388									;JUMPA X (X IS THE ADDRESS OF THE FIRST INSTRUCTION
 26389									;IN THE SUBTEST) TO LOOP ON ERROR^
 26390									;IN CASE OF FAILURE, LOOP TO C500 ADDRESS
 26391
 26392					;**********
 26393
 26394
 26395					;THIS TEST VERIFIES THAT ALL ACS EXIST.
 26396					;FIRST, EACH AC IS PRELOADED WITH ITS OWN ADDRESS;
 26397					;THEN, THE CONTENTS OF EACH AC IS CHECKED FOR ITS ADDRESS.
 26398					;IF ANY AC DOES NOT CONTAIN ITS ADDRESS, THIS TEST FAILS
 26399
DFKAA PDP-10 KL10 BASIC INSTRUCTION DIAGNOSTIC (1) VER 0,2	MACRO %52(537) 09:34 31-JAN-77 PAGE 3-5
DFKAA4	MAC	25-AUG-75 13:58		TEST OF AC HARDWARE AND INDEX REGISTERS                                            SEQ 0578

 26400			000514		SN=SN+1
 26401			000004			ZZ=ZZ-1
 26402	044674	302 04 0 00 000004 		CAIE	ZZ,ZZ		;CHECK THAT EACH AC CONTAINS ITS OWN ADDRESS
 26403						STOP^
 26404	044675	254 04 0 00 044676 		HALT	.+1		;TEST FAILED IF PROGRAM HALTS HERE
 26405	044676	324 00 0 00 044677 		JUMPA	.+1		;IF TEST FAILS, CHANGE THIS INSTRUCTION (JUMPA .+1) TO
 26406									;JUMPA X (X IS THE ADDRESS OF THE FIRST INSTRUCTION
 26407									;IN THE SUBTEST) TO LOOP ON ERROR^
 26408									;IN CASE OF FAILURE, LOOP TO C500 ADDRESS
 26409
 26410					;**********
 26411
 26412
 26413					;THIS TEST VERIFIES THAT ALL ACS EXIST.
 26414					;FIRST, EACH AC IS PRELOADED WITH ITS OWN ADDRESS;
 26415					;THEN, THE CONTENTS OF EACH AC IS CHECKED FOR ITS ADDRESS.
 26416					;IF ANY AC DOES NOT CONTAIN ITS ADDRESS, THIS TEST FAILS
 26417
 26418			000515		SN=SN+1
 26419			000003			ZZ=ZZ-1
 26420	044677	302 03 0 00 000003 		CAIE	ZZ,ZZ		;CHECK THAT EACH AC CONTAINS ITS OWN ADDRESS
 26421						STOP^
 26422	044700	254 04 0 00 044701 		HALT	.+1		;TEST FAILED IF PROGRAM HALTS HERE
 26423	044701	324 00 0 00 044702 		JUMPA	.+1		;IF TEST FAILS, CHANGE THIS INSTRUCTION (JUMPA .+1) TO
 26424									;JUMPA X (X IS THE ADDRESS OF THE FIRST INSTRUCTION
 26425									;IN THE SUBTEST) TO LOOP ON ERROR^
 26426									;IN CASE OF FAILURE, LOOP TO C500 ADDRESS
 26427
 26428					;**********
 26429
 26430
 26431					;THIS TEST VERIFIES THAT ALL ACS EXIST.
 26432					;FIRST, EACH AC IS PRELOADED WITH ITS OWN ADDRESS;
 26433					;THEN, THE CONTENTS OF EACH AC IS CHECKED FOR ITS ADDRESS.
 26434					;IF ANY AC DOES NOT CONTAIN ITS ADDRESS, THIS TEST FAILS
 26435
 26436			000516		SN=SN+1
 26437			000002			ZZ=ZZ-1
 26438	044702	302 02 0 00 000002 		CAIE	ZZ,ZZ		;CHECK THAT EACH AC CONTAINS ITS OWN ADDRESS
 26439						STOP^
 26440	044703	254 04 0 00 044704 		HALT	.+1		;TEST FAILED IF PROGRAM HALTS HERE
 26441	044704	324 00 0 00 044705 		JUMPA	.+1		;IF TEST FAILS, CHANGE THIS INSTRUCTION (JUMPA .+1) TO
 26442									;JUMPA X (X IS THE ADDRESS OF THE FIRST INSTRUCTION
 26443									;IN THE SUBTEST) TO LOOP ON ERROR^
 26444									;IN CASE OF FAILURE, LOOP TO C500 ADDRESS
 26445
 26446					;**********
 26447
 26448
 26449					;THIS TEST VERIFIES THAT ALL ACS EXIST.
 26450					;FIRST, EACH AC IS PRELOADED WITH ITS OWN ADDRESS;
 26451					;THEN, THE CONTENTS OF EACH AC IS CHECKED FOR ITS ADDRESS.
 26452					;IF ANY AC DOES NOT CONTAIN ITS ADDRESS, THIS TEST FAILS
 26453
 26454			000517		SN=SN+1
DFKAA PDP-10 KL10 BASIC INSTRUCTION DIAGNOSTIC (1) VER 0,2	MACRO %52(537) 09:34 31-JAN-77 PAGE 3-6
DFKAA4	MAC	25-AUG-75 13:58		TEST OF AC HARDWARE AND INDEX REGISTERS                                            SEQ 0579

 26455			000001			ZZ=ZZ-1
 26456	044705	302 01 0 00 000001 		CAIE	ZZ,ZZ		;CHECK THAT EACH AC CONTAINS ITS OWN ADDRESS
 26457						STOP^
 26458	044706	254 04 0 00 044707 		HALT	.+1		;TEST FAILED IF PROGRAM HALTS HERE
 26459	044707	324 00 0 00 044710 		JUMPA	.+1		;IF TEST FAILS, CHANGE THIS INSTRUCTION (JUMPA .+1) TO
 26460									;JUMPA X (X IS THE ADDRESS OF THE FIRST INSTRUCTION
 26461									;IN THE SUBTEST) TO LOOP ON ERROR^
 26462									;IN CASE OF FAILURE, LOOP TO C500 ADDRESS
 26463
 26464					;**********
 26465
 26466
 26467					;THIS TEST VERIFIES THAT ALL ACS EXIST.
 26468					;FIRST, EACH AC IS PRELOADED WITH ITS OWN ADDRESS;
 26469					;THEN, THE CONTENTS OF EACH AC IS CHECKED FOR ITS ADDRESS.
 26470					;IF ANY AC DOES NOT CONTAIN ITS ADDRESS, THIS TEST FAILS
 26471
 26472			000520		SN=SN+1
 26473			000000			ZZ=ZZ-1
 26474	044710	302 00 0 00 000000 		CAIE	ZZ,ZZ		;CHECK THAT EACH AC CONTAINS ITS OWN ADDRESS
 26475						STOP^
 26476	044711	254 04 0 00 044712 		HALT	.+1		;TEST FAILED IF PROGRAM HALTS HERE
 26477	044712	324 00 0 00 044713 		JUMPA	.+1		;IF TEST FAILS, CHANGE THIS INSTRUCTION (JUMPA .+1) TO
 26478									;JUMPA X (X IS THE ADDRESS OF THE FIRST INSTRUCTION
 26479									;IN THE SUBTEST) TO LOOP ON ERROR^
 26480									;IN CASE OF FAILURE, LOOP TO C500 ADDRESS
 26481
 26482					;**********
 26483
DFKAA PDP-10 KL10 BASIC INSTRUCTION DIAGNOSTIC (1) VER 0,2	MACRO %52(537) 09:34 31-JAN-77 PAGE 4
DFKAA4	MAC	25-AUG-75 13:58		TEST OF AC HARDWARE AND INDEX REGISTERS                                            SEQ 0580

 26484			000600		SN=600
 26485			000000			ZZ=0
 26486
 26487					;THIS TEST VERIFIES THAT AN ADDRESS WITHIN THE AC RANGE MAY BE ACCESSED AS
 26488					;EITHER AN AC OR A MEMORY LOCATION AND THAT EITHER REFERENCE REFERS TO THE
 26489					;SAME HARDWARE.  EACH AC IS PRELOADED WITH ITS ADDRESS; THEN THE CONTENTS OF EACH
 26490					;AC IS CHECKED FOR ITS ADDRESS.  IF ANY AC DOES NOT CONTAIN ITS ADDRESS, THIS TEST FAILS.
 26491
 26492					C600:	REPEAT	^D15,
 26493					<	ZZ=ZZ+1
 26494						MOVEI	ZZ		;PRELOAD EACH AC WITH ITS ADDRESS
 26495						MOVEM	ZZ		;BY REFERENCING EACH AC AS MEMORY.>
 26496			000001			ZZ=ZZ+1
 26497	044713	201 00 0 00 000001 		MOVEI	ZZ		;PRELOAD EACH AC WITH ITS ADDRESS
 26498	044714	202 00 0 00 000001 		MOVEM	ZZ		;BY REFERENCING EACH AC AS MEMORY.
 26499			000002			ZZ=ZZ+1
 26500	044715	201 00 0 00 000002 		MOVEI	ZZ		;PRELOAD EACH AC WITH ITS ADDRESS
 26501	044716	202 00 0 00 000002 		MOVEM	ZZ		;BY REFERENCING EACH AC AS MEMORY.
 26502			000003			ZZ=ZZ+1
 26503	044717	201 00 0 00 000003 		MOVEI	ZZ		;PRELOAD EACH AC WITH ITS ADDRESS
 26504	044720	202 00 0 00 000003 		MOVEM	ZZ		;BY REFERENCING EACH AC AS MEMORY.
 26505			000004			ZZ=ZZ+1
 26506	044721	201 00 0 00 000004 		MOVEI	ZZ		;PRELOAD EACH AC WITH ITS ADDRESS
 26507	044722	202 00 0 00 000004 		MOVEM	ZZ		;BY REFERENCING EACH AC AS MEMORY.
 26508			000005			ZZ=ZZ+1
 26509	044723	201 00 0 00 000005 		MOVEI	ZZ		;PRELOAD EACH AC WITH ITS ADDRESS
 26510	044724	202 00 0 00 000005 		MOVEM	ZZ		;BY REFERENCING EACH AC AS MEMORY.
 26511			000006			ZZ=ZZ+1
 26512	044725	201 00 0 00 000006 		MOVEI	ZZ		;PRELOAD EACH AC WITH ITS ADDRESS
 26513	044726	202 00 0 00 000006 		MOVEM	ZZ		;BY REFERENCING EACH AC AS MEMORY.
 26514			000007			ZZ=ZZ+1
 26515	044727	201 00 0 00 000007 		MOVEI	ZZ		;PRELOAD EACH AC WITH ITS ADDRESS
 26516	044730	202 00 0 00 000007 		MOVEM	ZZ		;BY REFERENCING EACH AC AS MEMORY.
 26517			000010			ZZ=ZZ+1
 26518	044731	201 00 0 00 000010 		MOVEI	ZZ		;PRELOAD EACH AC WITH ITS ADDRESS
 26519	044732	202 00 0 00 000010 		MOVEM	ZZ		;BY REFERENCING EACH AC AS MEMORY.
 26520			000011			ZZ=ZZ+1
 26521	044733	201 00 0 00 000011 		MOVEI	ZZ		;PRELOAD EACH AC WITH ITS ADDRESS
 26522	044734	202 00 0 00 000011 		MOVEM	ZZ		;BY REFERENCING EACH AC AS MEMORY.
 26523			000012			ZZ=ZZ+1
 26524	044735	201 00 0 00 000012 		MOVEI	ZZ		;PRELOAD EACH AC WITH ITS ADDRESS
 26525	044736	202 00 0 00 000012 		MOVEM	ZZ		;BY REFERENCING EACH AC AS MEMORY.
 26526			000013			ZZ=ZZ+1
 26527	044737	201 00 0 00 000013 		MOVEI	ZZ		;PRELOAD EACH AC WITH ITS ADDRESS
 26528	044740	202 00 0 00 000013 		MOVEM	ZZ		;BY REFERENCING EACH AC AS MEMORY.
 26529			000014			ZZ=ZZ+1
 26530	044741	201 00 0 00 000014 		MOVEI	ZZ		;PRELOAD EACH AC WITH ITS ADDRESS
 26531	044742	202 00 0 00 000014 		MOVEM	ZZ		;BY REFERENCING EACH AC AS MEMORY.
 26532			000015			ZZ=ZZ+1
 26533	044743	201 00 0 00 000015 		MOVEI	ZZ		;PRELOAD EACH AC WITH ITS ADDRESS
 26534	044744	202 00 0 00 000015 		MOVEM	ZZ		;BY REFERENCING EACH AC AS MEMORY.
 26535			000016			ZZ=ZZ+1
 26536	044745	201 00 0 00 000016 		MOVEI	ZZ		;PRELOAD EACH AC WITH ITS ADDRESS
 26537	044746	202 00 0 00 000016 		MOVEM	ZZ		;BY REFERENCING EACH AC AS MEMORY.
 26538			000017			ZZ=ZZ+1
DFKAA PDP-10 KL10 BASIC INSTRUCTION DIAGNOSTIC (1) VER 0,2	MACRO %52(537) 09:34 31-JAN-77 PAGE 4-1
DFKAA4	MAC	25-AUG-75 13:58		TEST OF AC HARDWARE AND INDEX REGISTERS                                            SEQ 0581

 26539	044747	201 00 0 00 000017 		MOVEI	ZZ		;PRELOAD EACH AC WITH ITS ADDRESS
 26540	044750	202 00 0 00 000017 		MOVEM	ZZ		;BY REFERENCING EACH AC AS MEMORY.
 26541
 26542			000020			ZZ=20
 26543
 26544						REPEAT	^D15,<
 26545					;THIS TEST VERIFIES THAT AN ADDRESS WITHIN THE AC RANGE MAY BE ACCESSED AS
 26546					;EITHER AN AC OR A MEMORY LOCATION AND THAT EITHER REFERENCE REFERS TO THE
 26547					;SAME HARDWARE.  EACH AC IS PRELOADED WITH ITS ADDRESS
 26548					;THEN THE CONTENTS OF EACH AC IS CHECKED FOR ITS ADDRESS.
 26549					;IF ANY AC DOES NOT CONTAIN ITS ADDRESS, THIS TEST FAILS.
 26550
 26551					SN=SN+1
 26552						ZZ=ZZ-1
 26553						CAIE	ZZ,ZZ		;CHECK THAT EACH AC CONTAINS ITS OWN ADDRESS
 26554						STOP
 26555									;IN CASE OF FAILURE, LOOP TO C600 ADDRESS
 26556
 26557					;**********
 26558					>
 26559
 26560					;THIS TEST VERIFIES THAT AN ADDRESS WITHIN THE AC RANGE MAY BE ACCESSED AS
 26561					;EITHER AN AC OR A MEMORY LOCATION AND THAT EITHER REFERENCE REFERS TO THE
 26562					;SAME HARDWARE.  EACH AC IS PRELOADED WITH ITS ADDRESS
 26563					;THEN THE CONTENTS OF EACH AC IS CHECKED FOR ITS ADDRESS.
 26564					;IF ANY AC DOES NOT CONTAIN ITS ADDRESS, THIS TEST FAILS.
 26565
 26566			000601		SN=SN+1
 26567			000017			ZZ=ZZ-1
 26568	044751	302 17 0 00 000017 		CAIE	ZZ,ZZ		;CHECK THAT EACH AC CONTAINS ITS OWN ADDRESS
 26569						STOP^
 26570	044752	254 04 0 00 044753 		HALT	.+1		;TEST FAILED IF PROGRAM HALTS HERE
 26571	044753	324 00 0 00 044754 		JUMPA	.+1		;IF TEST FAILS, CHANGE THIS INSTRUCTION (JUMPA .+1) TO
 26572									;JUMPA X (X IS THE ADDRESS OF THE FIRST INSTRUCTION
 26573									;IN THE SUBTEST) TO LOOP ON ERROR^
 26574									;IN CASE OF FAILURE, LOOP TO C600 ADDRESS
 26575
 26576					;**********
 26577
 26578
 26579					;THIS TEST VERIFIES THAT AN ADDRESS WITHIN THE AC RANGE MAY BE ACCESSED AS
 26580					;EITHER AN AC OR A MEMORY LOCATION AND THAT EITHER REFERENCE REFERS TO THE
 26581					;SAME HARDWARE.  EACH AC IS PRELOADED WITH ITS ADDRESS
 26582					;THEN THE CONTENTS OF EACH AC IS CHECKED FOR ITS ADDRESS.
 26583					;IF ANY AC DOES NOT CONTAIN ITS ADDRESS, THIS TEST FAILS.
 26584
 26585			000602		SN=SN+1
 26586			000016			ZZ=ZZ-1
 26587	044754	302 16 0 00 000016 		CAIE	ZZ,ZZ		;CHECK THAT EACH AC CONTAINS ITS OWN ADDRESS
 26588						STOP^
 26589	044755	254 04 0 00 044756 		HALT	.+1		;TEST FAILED IF PROGRAM HALTS HERE
 26590	044756	324 00 0 00 044757 		JUMPA	.+1		;IF TEST FAILS, CHANGE THIS INSTRUCTION (JUMPA .+1) TO
 26591									;JUMPA X (X IS THE ADDRESS OF THE FIRST INSTRUCTION
 26592									;IN THE SUBTEST) TO LOOP ON ERROR^
 26593									;IN CASE OF FAILURE, LOOP TO C600 ADDRESS
DFKAA PDP-10 KL10 BASIC INSTRUCTION DIAGNOSTIC (1) VER 0,2	MACRO %52(537) 09:34 31-JAN-77 PAGE 4-2
DFKAA4	MAC	25-AUG-75 13:58		TEST OF AC HARDWARE AND INDEX REGISTERS                                            SEQ 0582

 26594
 26595					;**********
 26596
 26597
 26598					;THIS TEST VERIFIES THAT AN ADDRESS WITHIN THE AC RANGE MAY BE ACCESSED AS
 26599					;EITHER AN AC OR A MEMORY LOCATION AND THAT EITHER REFERENCE REFERS TO THE
 26600					;SAME HARDWARE.  EACH AC IS PRELOADED WITH ITS ADDRESS
 26601					;THEN THE CONTENTS OF EACH AC IS CHECKED FOR ITS ADDRESS.
 26602					;IF ANY AC DOES NOT CONTAIN ITS ADDRESS, THIS TEST FAILS.
 26603
 26604			000603		SN=SN+1
 26605			000015			ZZ=ZZ-1
 26606	044757	302 15 0 00 000015 		CAIE	ZZ,ZZ		;CHECK THAT EACH AC CONTAINS ITS OWN ADDRESS
 26607						STOP^
 26608	044760	254 04 0 00 044761 		HALT	.+1		;TEST FAILED IF PROGRAM HALTS HERE
 26609	044761	324 00 0 00 044762 		JUMPA	.+1		;IF TEST FAILS, CHANGE THIS INSTRUCTION (JUMPA .+1) TO
 26610									;JUMPA X (X IS THE ADDRESS OF THE FIRST INSTRUCTION
 26611									;IN THE SUBTEST) TO LOOP ON ERROR^
 26612									;IN CASE OF FAILURE, LOOP TO C600 ADDRESS
 26613
 26614					;**********
 26615
 26616
 26617					;THIS TEST VERIFIES THAT AN ADDRESS WITHIN THE AC RANGE MAY BE ACCESSED AS
 26618					;EITHER AN AC OR A MEMORY LOCATION AND THAT EITHER REFERENCE REFERS TO THE
 26619					;SAME HARDWARE.  EACH AC IS PRELOADED WITH ITS ADDRESS
 26620					;THEN THE CONTENTS OF EACH AC IS CHECKED FOR ITS ADDRESS.
 26621					;IF ANY AC DOES NOT CONTAIN ITS ADDRESS, THIS TEST FAILS.
 26622
 26623			000604		SN=SN+1
 26624			000014			ZZ=ZZ-1
 26625	044762	302 14 0 00 000014 		CAIE	ZZ,ZZ		;CHECK THAT EACH AC CONTAINS ITS OWN ADDRESS
 26626						STOP^
 26627	044763	254 04 0 00 044764 		HALT	.+1		;TEST FAILED IF PROGRAM HALTS HERE
 26628	044764	324 00 0 00 044765 		JUMPA	.+1		;IF TEST FAILS, CHANGE THIS INSTRUCTION (JUMPA .+1) TO
 26629									;JUMPA X (X IS THE ADDRESS OF THE FIRST INSTRUCTION
 26630									;IN THE SUBTEST) TO LOOP ON ERROR^
 26631									;IN CASE OF FAILURE, LOOP TO C600 ADDRESS
 26632
 26633					;**********
 26634
 26635
 26636					;THIS TEST VERIFIES THAT AN ADDRESS WITHIN THE AC RANGE MAY BE ACCESSED AS
 26637					;EITHER AN AC OR A MEMORY LOCATION AND THAT EITHER REFERENCE REFERS TO THE
 26638					;SAME HARDWARE.  EACH AC IS PRELOADED WITH ITS ADDRESS
 26639					;THEN THE CONTENTS OF EACH AC IS CHECKED FOR ITS ADDRESS.
 26640					;IF ANY AC DOES NOT CONTAIN ITS ADDRESS, THIS TEST FAILS.
 26641
 26642			000605		SN=SN+1
 26643			000013			ZZ=ZZ-1
 26644	044765	302 13 0 00 000013 		CAIE	ZZ,ZZ		;CHECK THAT EACH AC CONTAINS ITS OWN ADDRESS
 26645						STOP^
 26646	044766	254 04 0 00 044767 		HALT	.+1		;TEST FAILED IF PROGRAM HALTS HERE
 26647	044767	324 00 0 00 044770 		JUMPA	.+1		;IF TEST FAILS, CHANGE THIS INSTRUCTION (JUMPA .+1) TO
 26648									;JUMPA X (X IS THE ADDRESS OF THE FIRST INSTRUCTION
DFKAA PDP-10 KL10 BASIC INSTRUCTION DIAGNOSTIC (1) VER 0,2	MACRO %52(537) 09:34 31-JAN-77 PAGE 4-3
DFKAA4	MAC	25-AUG-75 13:58		TEST OF AC HARDWARE AND INDEX REGISTERS                                            SEQ 0583

 26649									;IN THE SUBTEST) TO LOOP ON ERROR^
 26650									;IN CASE OF FAILURE, LOOP TO C600 ADDRESS
 26651
 26652					;**********
 26653
 26654
 26655					;THIS TEST VERIFIES THAT AN ADDRESS WITHIN THE AC RANGE MAY BE ACCESSED AS
 26656					;EITHER AN AC OR A MEMORY LOCATION AND THAT EITHER REFERENCE REFERS TO THE
 26657					;SAME HARDWARE.  EACH AC IS PRELOADED WITH ITS ADDRESS
 26658					;THEN THE CONTENTS OF EACH AC IS CHECKED FOR ITS ADDRESS.
 26659					;IF ANY AC DOES NOT CONTAIN ITS ADDRESS, THIS TEST FAILS.
 26660
 26661			000606		SN=SN+1
 26662			000012			ZZ=ZZ-1
 26663	044770	302 12 0 00 000012 		CAIE	ZZ,ZZ		;CHECK THAT EACH AC CONTAINS ITS OWN ADDRESS
 26664						STOP^
 26665	044771	254 04 0 00 044772 		HALT	.+1		;TEST FAILED IF PROGRAM HALTS HERE
 26666	044772	324 00 0 00 044773 		JUMPA	.+1		;IF TEST FAILS, CHANGE THIS INSTRUCTION (JUMPA .+1) TO
 26667									;JUMPA X (X IS THE ADDRESS OF THE FIRST INSTRUCTION
 26668									;IN THE SUBTEST) TO LOOP ON ERROR^
 26669									;IN CASE OF FAILURE, LOOP TO C600 ADDRESS
 26670
 26671					;**********
 26672
 26673
 26674					;THIS TEST VERIFIES THAT AN ADDRESS WITHIN THE AC RANGE MAY BE ACCESSED AS
 26675					;EITHER AN AC OR A MEMORY LOCATION AND THAT EITHER REFERENCE REFERS TO THE
 26676					;SAME HARDWARE.  EACH AC IS PRELOADED WITH ITS ADDRESS
 26677					;THEN THE CONTENTS OF EACH AC IS CHECKED FOR ITS ADDRESS.
 26678					;IF ANY AC DOES NOT CONTAIN ITS ADDRESS, THIS TEST FAILS.
 26679
 26680			000607		SN=SN+1
 26681			000011			ZZ=ZZ-1
 26682	044773	302 11 0 00 000011 		CAIE	ZZ,ZZ		;CHECK THAT EACH AC CONTAINS ITS OWN ADDRESS
 26683						STOP^
 26684	044774	254 04 0 00 044775 		HALT	.+1		;TEST FAILED IF PROGRAM HALTS HERE
 26685	044775	324 00 0 00 044776 		JUMPA	.+1		;IF TEST FAILS, CHANGE THIS INSTRUCTION (JUMPA .+1) TO
 26686									;JUMPA X (X IS THE ADDRESS OF THE FIRST INSTRUCTION
 26687									;IN THE SUBTEST) TO LOOP ON ERROR^
 26688									;IN CASE OF FAILURE, LOOP TO C600 ADDRESS
 26689
 26690					;**********
 26691
 26692
 26693					;THIS TEST VERIFIES THAT AN ADDRESS WITHIN THE AC RANGE MAY BE ACCESSED AS
 26694					;EITHER AN AC OR A MEMORY LOCATION AND THAT EITHER REFERENCE REFERS TO THE
 26695					;SAME HARDWARE.  EACH AC IS PRELOADED WITH ITS ADDRESS
 26696					;THEN THE CONTENTS OF EACH AC IS CHECKED FOR ITS ADDRESS.
 26697					;IF ANY AC DOES NOT CONTAIN ITS ADDRESS, THIS TEST FAILS.
 26698
 26699			000610		SN=SN+1
 26700			000010			ZZ=ZZ-1
 26701	044776	302 10 0 00 000010 		CAIE	ZZ,ZZ		;CHECK THAT EACH AC CONTAINS ITS OWN ADDRESS
 26702						STOP^
 26703	044777	254 04 0 00 045000 		HALT	.+1		;TEST FAILED IF PROGRAM HALTS HERE
DFKAA PDP-10 KL10 BASIC INSTRUCTION DIAGNOSTIC (1) VER 0,2	MACRO %52(537) 09:34 31-JAN-77 PAGE 4-4
DFKAA4	MAC	25-AUG-75 13:58		TEST OF AC HARDWARE AND INDEX REGISTERS                                            SEQ 0584

 26704	045000	324 00 0 00 045001 		JUMPA	.+1		;IF TEST FAILS, CHANGE THIS INSTRUCTION (JUMPA .+1) TO
 26705									;JUMPA X (X IS THE ADDRESS OF THE FIRST INSTRUCTION
 26706									;IN THE SUBTEST) TO LOOP ON ERROR^
 26707									;IN CASE OF FAILURE, LOOP TO C600 ADDRESS
 26708
 26709					;**********
 26710
 26711
 26712					;THIS TEST VERIFIES THAT AN ADDRESS WITHIN THE AC RANGE MAY BE ACCESSED AS
 26713					;EITHER AN AC OR A MEMORY LOCATION AND THAT EITHER REFERENCE REFERS TO THE
 26714					;SAME HARDWARE.  EACH AC IS PRELOADED WITH ITS ADDRESS
 26715					;THEN THE CONTENTS OF EACH AC IS CHECKED FOR ITS ADDRESS.
 26716					;IF ANY AC DOES NOT CONTAIN ITS ADDRESS, THIS TEST FAILS.
 26717
 26718			000611		SN=SN+1
 26719			000007			ZZ=ZZ-1
 26720	045001	302 07 0 00 000007 		CAIE	ZZ,ZZ		;CHECK THAT EACH AC CONTAINS ITS OWN ADDRESS
 26721						STOP^
 26722	045002	254 04 0 00 045003 		HALT	.+1		;TEST FAILED IF PROGRAM HALTS HERE
 26723	045003	324 00 0 00 045004 		JUMPA	.+1		;IF TEST FAILS, CHANGE THIS INSTRUCTION (JUMPA .+1) TO
 26724									;JUMPA X (X IS THE ADDRESS OF THE FIRST INSTRUCTION
 26725									;IN THE SUBTEST) TO LOOP ON ERROR^
 26726									;IN CASE OF FAILURE, LOOP TO C600 ADDRESS
 26727
 26728					;**********
 26729
 26730
 26731					;THIS TEST VERIFIES THAT AN ADDRESS WITHIN THE AC RANGE MAY BE ACCESSED AS
 26732					;EITHER AN AC OR A MEMORY LOCATION AND THAT EITHER REFERENCE REFERS TO THE
 26733					;SAME HARDWARE.  EACH AC IS PRELOADED WITH ITS ADDRESS
 26734					;THEN THE CONTENTS OF EACH AC IS CHECKED FOR ITS ADDRESS.
 26735					;IF ANY AC DOES NOT CONTAIN ITS ADDRESS, THIS TEST FAILS.
 26736
 26737			000612		SN=SN+1
 26738			000006			ZZ=ZZ-1
 26739	045004	302 06 0 00 000006 		CAIE	ZZ,ZZ		;CHECK THAT EACH AC CONTAINS ITS OWN ADDRESS
 26740						STOP^
 26741	045005	254 04 0 00 045006 		HALT	.+1		;TEST FAILED IF PROGRAM HALTS HERE
 26742	045006	324 00 0 00 045007 		JUMPA	.+1		;IF TEST FAILS, CHANGE THIS INSTRUCTION (JUMPA .+1) TO
 26743									;JUMPA X (X IS THE ADDRESS OF THE FIRST INSTRUCTION
 26744									;IN THE SUBTEST) TO LOOP ON ERROR^
 26745									;IN CASE OF FAILURE, LOOP TO C600 ADDRESS
 26746
 26747					;**********
 26748
 26749
 26750					;THIS TEST VERIFIES THAT AN ADDRESS WITHIN THE AC RANGE MAY BE ACCESSED AS
 26751					;EITHER AN AC OR A MEMORY LOCATION AND THAT EITHER REFERENCE REFERS TO THE
 26752					;SAME HARDWARE.  EACH AC IS PRELOADED WITH ITS ADDRESS
 26753					;THEN THE CONTENTS OF EACH AC IS CHECKED FOR ITS ADDRESS.
 26754					;IF ANY AC DOES NOT CONTAIN ITS ADDRESS, THIS TEST FAILS.
 26755
 26756			000613		SN=SN+1
 26757			000005			ZZ=ZZ-1
 26758	045007	302 05 0 00 000005 		CAIE	ZZ,ZZ		;CHECK THAT EACH AC CONTAINS ITS OWN ADDRESS
DFKAA PDP-10 KL10 BASIC INSTRUCTION DIAGNOSTIC (1) VER 0,2	MACRO %52(537) 09:34 31-JAN-77 PAGE 4-5
DFKAA4	MAC	25-AUG-75 13:58		TEST OF AC HARDWARE AND INDEX REGISTERS                                            SEQ 0585

 26759						STOP^
 26760	045010	254 04 0 00 045011 		HALT	.+1		;TEST FAILED IF PROGRAM HALTS HERE
 26761	045011	324 00 0 00 045012 		JUMPA	.+1		;IF TEST FAILS, CHANGE THIS INSTRUCTION (JUMPA .+1) TO
 26762									;JUMPA X (X IS THE ADDRESS OF THE FIRST INSTRUCTION
 26763									;IN THE SUBTEST) TO LOOP ON ERROR^
 26764									;IN CASE OF FAILURE, LOOP TO C600 ADDRESS
 26765
 26766					;**********
 26767
 26768
 26769					;THIS TEST VERIFIES THAT AN ADDRESS WITHIN THE AC RANGE MAY BE ACCESSED AS
 26770					;EITHER AN AC OR A MEMORY LOCATION AND THAT EITHER REFERENCE REFERS TO THE
 26771					;SAME HARDWARE.  EACH AC IS PRELOADED WITH ITS ADDRESS
 26772					;THEN THE CONTENTS OF EACH AC IS CHECKED FOR ITS ADDRESS.
 26773					;IF ANY AC DOES NOT CONTAIN ITS ADDRESS, THIS TEST FAILS.
 26774
 26775			000614		SN=SN+1
 26776			000004			ZZ=ZZ-1
 26777	045012	302 04 0 00 000004 		CAIE	ZZ,ZZ		;CHECK THAT EACH AC CONTAINS ITS OWN ADDRESS
 26778						STOP^
 26779	045013	254 04 0 00 045014 		HALT	.+1		;TEST FAILED IF PROGRAM HALTS HERE
 26780	045014	324 00 0 00 045015 		JUMPA	.+1		;IF TEST FAILS, CHANGE THIS INSTRUCTION (JUMPA .+1) TO
 26781									;JUMPA X (X IS THE ADDRESS OF THE FIRST INSTRUCTION
 26782									;IN THE SUBTEST) TO LOOP ON ERROR^
 26783									;IN CASE OF FAILURE, LOOP TO C600 ADDRESS
 26784
 26785					;**********
 26786
 26787
 26788					;THIS TEST VERIFIES THAT AN ADDRESS WITHIN THE AC RANGE MAY BE ACCESSED AS
 26789					;EITHER AN AC OR A MEMORY LOCATION AND THAT EITHER REFERENCE REFERS TO THE
 26790					;SAME HARDWARE.  EACH AC IS PRELOADED WITH ITS ADDRESS
 26791					;THEN THE CONTENTS OF EACH AC IS CHECKED FOR ITS ADDRESS.
 26792					;IF ANY AC DOES NOT CONTAIN ITS ADDRESS, THIS TEST FAILS.
 26793
 26794			000615		SN=SN+1
 26795			000003			ZZ=ZZ-1
 26796	045015	302 03 0 00 000003 		CAIE	ZZ,ZZ		;CHECK THAT EACH AC CONTAINS ITS OWN ADDRESS
 26797						STOP^
 26798	045016	254 04 0 00 045017 		HALT	.+1		;TEST FAILED IF PROGRAM HALTS HERE
 26799	045017	324 00 0 00 045020 		JUMPA	.+1		;IF TEST FAILS, CHANGE THIS INSTRUCTION (JUMPA .+1) TO
 26800									;JUMPA X (X IS THE ADDRESS OF THE FIRST INSTRUCTION
 26801									;IN THE SUBTEST) TO LOOP ON ERROR^
 26802									;IN CASE OF FAILURE, LOOP TO C600 ADDRESS
 26803
 26804					;**********
 26805
 26806
 26807					;THIS TEST VERIFIES THAT AN ADDRESS WITHIN THE AC RANGE MAY BE ACCESSED AS
 26808					;EITHER AN AC OR A MEMORY LOCATION AND THAT EITHER REFERENCE REFERS TO THE
 26809					;SAME HARDWARE.  EACH AC IS PRELOADED WITH ITS ADDRESS
 26810					;THEN THE CONTENTS OF EACH AC IS CHECKED FOR ITS ADDRESS.
 26811					;IF ANY AC DOES NOT CONTAIN ITS ADDRESS, THIS TEST FAILS.
 26812
 26813			000616		SN=SN+1
DFKAA PDP-10 KL10 BASIC INSTRUCTION DIAGNOSTIC (1) VER 0,2	MACRO %52(537) 09:34 31-JAN-77 PAGE 4-6
DFKAA4	MAC	25-AUG-75 13:58		TEST OF AC HARDWARE AND INDEX REGISTERS                                            SEQ 0586

 26814			000002			ZZ=ZZ-1
 26815	045020	302 02 0 00 000002 		CAIE	ZZ,ZZ		;CHECK THAT EACH AC CONTAINS ITS OWN ADDRESS
 26816						STOP^
 26817	045021	254 04 0 00 045022 		HALT	.+1		;TEST FAILED IF PROGRAM HALTS HERE
 26818	045022	324 00 0 00 045023 		JUMPA	.+1		;IF TEST FAILS, CHANGE THIS INSTRUCTION (JUMPA .+1) TO
 26819									;JUMPA X (X IS THE ADDRESS OF THE FIRST INSTRUCTION
 26820									;IN THE SUBTEST) TO LOOP ON ERROR^
 26821									;IN CASE OF FAILURE, LOOP TO C600 ADDRESS
 26822
 26823					;**********
 26824
 26825
 26826					;THIS TEST VERIFIES THAT AN ADDRESS WITHIN THE AC RANGE MAY BE ACCESSED AS
 26827					;EITHER AN AC OR A MEMORY LOCATION AND THAT EITHER REFERENCE REFERS TO THE
 26828					;SAME HARDWARE.  EACH AC IS PRELOADED WITH ITS ADDRESS
 26829					;THEN THE CONTENTS OF EACH AC IS CHECKED FOR ITS ADDRESS.
 26830					;IF ANY AC DOES NOT CONTAIN ITS ADDRESS, THIS TEST FAILS.
 26831
 26832			000617		SN=SN+1
 26833			000001			ZZ=ZZ-1
 26834	045023	302 01 0 00 000001 		CAIE	ZZ,ZZ		;CHECK THAT EACH AC CONTAINS ITS OWN ADDRESS
 26835						STOP^
 26836	045024	254 04 0 00 045025 		HALT	.+1		;TEST FAILED IF PROGRAM HALTS HERE
 26837	045025	324 00 0 00 045026 		JUMPA	.+1		;IF TEST FAILS, CHANGE THIS INSTRUCTION (JUMPA .+1) TO
 26838									;JUMPA X (X IS THE ADDRESS OF THE FIRST INSTRUCTION
 26839									;IN THE SUBTEST) TO LOOP ON ERROR^
 26840									;IN CASE OF FAILURE, LOOP TO C600 ADDRESS
 26841
 26842					;**********
 26843
DFKAA PDP-10 KL10 BASIC INSTRUCTION DIAGNOSTIC (1) VER 0,2	MACRO %52(537) 09:34 31-JAN-77 PAGE 5
DFKAA4	MAC	25-AUG-75 13:58		TEST OF AC HARDWARE AND INDEX REGISTERS                                            SEQ 0587

 26844			000700		SN=700
 26845			000000			ZZ=0
 26846
 26847					C700:	REPEAT	^D15,<
 26848					;THIS TEST VERIFIES THAT THE INDEX REGISTERS ARE ACCESSABLE.
 26849					;FIRST, AN INDEX REGISTER IS PRELOADED WITH ITS ADDRESS; THEN,
 26850					;IT IS REFERENCED AS AN INDEX REGISTER.  IF IT CONTAINS ITS ADDRESS, THIS TEST PASSES.
 26851					;THIS TEST IS REPEATED 15 TIMES IN ORDER TO TEST EACH INDEX REGISTER.
 26852
 26853					SN=SN+1
 26854						ZZ=ZZ+1
 26855						MOVEI	ZZ,ZZ		;PRELOAD INDEX REGISTER WITH ITS ADDRESS
 26856						CAIE	ZZ,(ZZ)		;PASS IF INDEX REGISTER CONTAINS ITS ADDRESS
 26857						STOP
 26858
 26859					;**********
 26860					>
 26861
 26862					;THIS TEST VERIFIES THAT THE INDEX REGISTERS ARE ACCESSABLE.
 26863					;FIRST, AN INDEX REGISTER IS PRELOADED WITH ITS ADDRESS; THEN,
 26864					;IT IS REFERENCED AS AN INDEX REGISTER.  IF IT CONTAINS ITS ADDRESS, THIS TEST PASSES.
 26865					;THIS TEST IS REPEATED 15 TIMES IN ORDER TO TEST EACH INDEX REGISTER.
 26866
 26867			000701		SN=SN+1
 26868			000001			ZZ=ZZ+1
 26869	045026	201 01 0 00 000001 		MOVEI	ZZ,ZZ		;PRELOAD INDEX REGISTER WITH ITS ADDRESS
 26870	045027	302 01 0 01 000000 		CAIE	ZZ,(ZZ)		;PASS IF INDEX REGISTER CONTAINS ITS ADDRESS
 26871						STOP^
 26872	045030	254 04 0 00 045031 		HALT	.+1		;TEST FAILED IF PROGRAM HALTS HERE
 26873	045031	324 00 0 00 045032 		JUMPA	.+1		;IF TEST FAILS, CHANGE THIS INSTRUCTION (JUMPA .+1) TO
 26874									;JUMPA X (X IS THE ADDRESS OF THE FIRST INSTRUCTION
 26875									;IN THE SUBTEST) TO LOOP ON ERROR^
 26876
 26877					;**********
 26878
 26879
 26880					;THIS TEST VERIFIES THAT THE INDEX REGISTERS ARE ACCESSABLE.
 26881					;FIRST, AN INDEX REGISTER IS PRELOADED WITH ITS ADDRESS; THEN,
 26882					;IT IS REFERENCED AS AN INDEX REGISTER.  IF IT CONTAINS ITS ADDRESS, THIS TEST PASSES.
 26883					;THIS TEST IS REPEATED 15 TIMES IN ORDER TO TEST EACH INDEX REGISTER.
 26884
 26885			000702		SN=SN+1
 26886			000002			ZZ=ZZ+1
 26887	045032	201 02 0 00 000002 		MOVEI	ZZ,ZZ		;PRELOAD INDEX REGISTER WITH ITS ADDRESS
 26888	045033	302 02 0 02 000000 		CAIE	ZZ,(ZZ)		;PASS IF INDEX REGISTER CONTAINS ITS ADDRESS
 26889						STOP^
 26890	045034	254 04 0 00 045035 		HALT	.+1		;TEST FAILED IF PROGRAM HALTS HERE
 26891	045035	324 00 0 00 045036 		JUMPA	.+1		;IF TEST FAILS, CHANGE THIS INSTRUCTION (JUMPA .+1) TO
 26892									;JUMPA X (X IS THE ADDRESS OF THE FIRST INSTRUCTION
 26893									;IN THE SUBTEST) TO LOOP ON ERROR^
 26894
 26895					;**********
 26896
 26897
 26898					;THIS TEST VERIFIES THAT THE INDEX REGISTERS ARE ACCESSABLE.
DFKAA PDP-10 KL10 BASIC INSTRUCTION DIAGNOSTIC (1) VER 0,2	MACRO %52(537) 09:34 31-JAN-77 PAGE 5-1
DFKAA4	MAC	25-AUG-75 13:58		TEST OF AC HARDWARE AND INDEX REGISTERS                                            SEQ 0588

 26899					;FIRST, AN INDEX REGISTER IS PRELOADED WITH ITS ADDRESS; THEN,
 26900					;IT IS REFERENCED AS AN INDEX REGISTER.  IF IT CONTAINS ITS ADDRESS, THIS TEST PASSES.
 26901					;THIS TEST IS REPEATED 15 TIMES IN ORDER TO TEST EACH INDEX REGISTER.
 26902
 26903			000703		SN=SN+1
 26904			000003			ZZ=ZZ+1
 26905	045036	201 03 0 00 000003 		MOVEI	ZZ,ZZ		;PRELOAD INDEX REGISTER WITH ITS ADDRESS
 26906	045037	302 03 0 03 000000 		CAIE	ZZ,(ZZ)		;PASS IF INDEX REGISTER CONTAINS ITS ADDRESS
 26907						STOP^
 26908	045040	254 04 0 00 045041 		HALT	.+1		;TEST FAILED IF PROGRAM HALTS HERE
 26909	045041	324 00 0 00 045042 		JUMPA	.+1		;IF TEST FAILS, CHANGE THIS INSTRUCTION (JUMPA .+1) TO
 26910									;JUMPA X (X IS THE ADDRESS OF THE FIRST INSTRUCTION
 26911									;IN THE SUBTEST) TO LOOP ON ERROR^
 26912
 26913					;**********
 26914
 26915
 26916					;THIS TEST VERIFIES THAT THE INDEX REGISTERS ARE ACCESSABLE.
 26917					;FIRST, AN INDEX REGISTER IS PRELOADED WITH ITS ADDRESS; THEN,
 26918					;IT IS REFERENCED AS AN INDEX REGISTER.  IF IT CONTAINS ITS ADDRESS, THIS TEST PASSES.
 26919					;THIS TEST IS REPEATED 15 TIMES IN ORDER TO TEST EACH INDEX REGISTER.
 26920
 26921			000704		SN=SN+1
 26922			000004			ZZ=ZZ+1
 26923	045042	201 04 0 00 000004 		MOVEI	ZZ,ZZ		;PRELOAD INDEX REGISTER WITH ITS ADDRESS
 26924	045043	302 04 0 04 000000 		CAIE	ZZ,(ZZ)		;PASS IF INDEX REGISTER CONTAINS ITS ADDRESS
 26925						STOP^
 26926	045044	254 04 0 00 045045 		HALT	.+1		;TEST FAILED IF PROGRAM HALTS HERE
 26927	045045	324 00 0 00 045046 		JUMPA	.+1		;IF TEST FAILS, CHANGE THIS INSTRUCTION (JUMPA .+1) TO
 26928									;JUMPA X (X IS THE ADDRESS OF THE FIRST INSTRUCTION
 26929									;IN THE SUBTEST) TO LOOP ON ERROR^
 26930
 26931					;**********
 26932
 26933
 26934					;THIS TEST VERIFIES THAT THE INDEX REGISTERS ARE ACCESSABLE.
 26935					;FIRST, AN INDEX REGISTER IS PRELOADED WITH ITS ADDRESS; THEN,
 26936					;IT IS REFERENCED AS AN INDEX REGISTER.  IF IT CONTAINS ITS ADDRESS, THIS TEST PASSES.
 26937					;THIS TEST IS REPEATED 15 TIMES IN ORDER TO TEST EACH INDEX REGISTER.
 26938
 26939			000705		SN=SN+1
 26940			000005			ZZ=ZZ+1
 26941	045046	201 05 0 00 000005 		MOVEI	ZZ,ZZ		;PRELOAD INDEX REGISTER WITH ITS ADDRESS
 26942	045047	302 05 0 05 000000 		CAIE	ZZ,(ZZ)		;PASS IF INDEX REGISTER CONTAINS ITS ADDRESS
 26943						STOP^
 26944	045050	254 04 0 00 045051 		HALT	.+1		;TEST FAILED IF PROGRAM HALTS HERE
 26945	045051	324 00 0 00 045052 		JUMPA	.+1		;IF TEST FAILS, CHANGE THIS INSTRUCTION (JUMPA .+1) TO
 26946									;JUMPA X (X IS THE ADDRESS OF THE FIRST INSTRUCTION
 26947									;IN THE SUBTEST) TO LOOP ON ERROR^
 26948
 26949					;**********
 26950
 26951
 26952					;THIS TEST VERIFIES THAT THE INDEX REGISTERS ARE ACCESSABLE.
 26953					;FIRST, AN INDEX REGISTER IS PRELOADED WITH ITS ADDRESS; THEN,
DFKAA PDP-10 KL10 BASIC INSTRUCTION DIAGNOSTIC (1) VER 0,2	MACRO %52(537) 09:34 31-JAN-77 PAGE 5-2
DFKAA4	MAC	25-AUG-75 13:58		TEST OF AC HARDWARE AND INDEX REGISTERS                                            SEQ 0589

 26954					;IT IS REFERENCED AS AN INDEX REGISTER.  IF IT CONTAINS ITS ADDRESS, THIS TEST PASSES.
 26955					;THIS TEST IS REPEATED 15 TIMES IN ORDER TO TEST EACH INDEX REGISTER.
 26956
 26957			000706		SN=SN+1
 26958			000006			ZZ=ZZ+1
 26959	045052	201 06 0 00 000006 		MOVEI	ZZ,ZZ		;PRELOAD INDEX REGISTER WITH ITS ADDRESS
 26960	045053	302 06 0 06 000000 		CAIE	ZZ,(ZZ)		;PASS IF INDEX REGISTER CONTAINS ITS ADDRESS
 26961						STOP^
 26962	045054	254 04 0 00 045055 		HALT	.+1		;TEST FAILED IF PROGRAM HALTS HERE
 26963	045055	324 00 0 00 045056 		JUMPA	.+1		;IF TEST FAILS, CHANGE THIS INSTRUCTION (JUMPA .+1) TO
 26964									;JUMPA X (X IS THE ADDRESS OF THE FIRST INSTRUCTION
 26965									;IN THE SUBTEST) TO LOOP ON ERROR^
 26966
 26967					;**********
 26968
 26969
 26970					;THIS TEST VERIFIES THAT THE INDEX REGISTERS ARE ACCESSABLE.
 26971					;FIRST, AN INDEX REGISTER IS PRELOADED WITH ITS ADDRESS; THEN,
 26972					;IT IS REFERENCED AS AN INDEX REGISTER.  IF IT CONTAINS ITS ADDRESS, THIS TEST PASSES.
 26973					;THIS TEST IS REPEATED 15 TIMES IN ORDER TO TEST EACH INDEX REGISTER.
 26974
 26975			000707		SN=SN+1
 26976			000007			ZZ=ZZ+1
 26977	045056	201 07 0 00 000007 		MOVEI	ZZ,ZZ		;PRELOAD INDEX REGISTER WITH ITS ADDRESS
 26978	045057	302 07 0 07 000000 		CAIE	ZZ,(ZZ)		;PASS IF INDEX REGISTER CONTAINS ITS ADDRESS
 26979						STOP^
 26980	045060	254 04 0 00 045061 		HALT	.+1		;TEST FAILED IF PROGRAM HALTS HERE
 26981	045061	324 00 0 00 045062 		JUMPA	.+1		;IF TEST FAILS, CHANGE THIS INSTRUCTION (JUMPA .+1) TO
 26982									;JUMPA X (X IS THE ADDRESS OF THE FIRST INSTRUCTION
 26983									;IN THE SUBTEST) TO LOOP ON ERROR^
 26984
 26985					;**********
 26986
 26987
 26988					;THIS TEST VERIFIES THAT THE INDEX REGISTERS ARE ACCESSABLE.
 26989					;FIRST, AN INDEX REGISTER IS PRELOADED WITH ITS ADDRESS; THEN,
 26990					;IT IS REFERENCED AS AN INDEX REGISTER.  IF IT CONTAINS ITS ADDRESS, THIS TEST PASSES.
 26991					;THIS TEST IS REPEATED 15 TIMES IN ORDER TO TEST EACH INDEX REGISTER.
 26992
 26993			000710		SN=SN+1
 26994			000010			ZZ=ZZ+1
 26995	045062	201 10 0 00 000010 		MOVEI	ZZ,ZZ		;PRELOAD INDEX REGISTER WITH ITS ADDRESS
 26996	045063	302 10 0 10 000000 		CAIE	ZZ,(ZZ)		;PASS IF INDEX REGISTER CONTAINS ITS ADDRESS
 26997						STOP^
 26998	045064	254 04 0 00 045065 		HALT	.+1		;TEST FAILED IF PROGRAM HALTS HERE
 26999	045065	324 00 0 00 045066 		JUMPA	.+1		;IF TEST FAILS, CHANGE THIS INSTRUCTION (JUMPA .+1) TO
 27000									;JUMPA X (X IS THE ADDRESS OF THE FIRST INSTRUCTION
 27001									;IN THE SUBTEST) TO LOOP ON ERROR^
 27002
 27003					;**********
 27004
 27005
 27006					;THIS TEST VERIFIES THAT THE INDEX REGISTERS ARE ACCESSABLE.
 27007					;FIRST, AN INDEX REGISTER IS PRELOADED WITH ITS ADDRESS; THEN,
 27008					;IT IS REFERENCED AS AN INDEX REGISTER.  IF IT CONTAINS ITS ADDRESS, THIS TEST PASSES.
DFKAA PDP-10 KL10 BASIC INSTRUCTION DIAGNOSTIC (1) VER 0,2	MACRO %52(537) 09:34 31-JAN-77 PAGE 5-3
DFKAA4	MAC	25-AUG-75 13:58		TEST OF AC HARDWARE AND INDEX REGISTERS                                            SEQ 0590

 27009					;THIS TEST IS REPEATED 15 TIMES IN ORDER TO TEST EACH INDEX REGISTER.
 27010
 27011			000711		SN=SN+1
 27012			000011			ZZ=ZZ+1
 27013	045066	201 11 0 00 000011 		MOVEI	ZZ,ZZ		;PRELOAD INDEX REGISTER WITH ITS ADDRESS
 27014	045067	302 11 0 11 000000 		CAIE	ZZ,(ZZ)		;PASS IF INDEX REGISTER CONTAINS ITS ADDRESS
 27015						STOP^
 27016	045070	254 04 0 00 045071 		HALT	.+1		;TEST FAILED IF PROGRAM HALTS HERE
 27017	045071	324 00 0 00 045072 		JUMPA	.+1		;IF TEST FAILS, CHANGE THIS INSTRUCTION (JUMPA .+1) TO
 27018									;JUMPA X (X IS THE ADDRESS OF THE FIRST INSTRUCTION
 27019									;IN THE SUBTEST) TO LOOP ON ERROR^
 27020
 27021					;**********
 27022
 27023
 27024					;THIS TEST VERIFIES THAT THE INDEX REGISTERS ARE ACCESSABLE.
 27025					;FIRST, AN INDEX REGISTER IS PRELOADED WITH ITS ADDRESS; THEN,
 27026					;IT IS REFERENCED AS AN INDEX REGISTER.  IF IT CONTAINS ITS ADDRESS, THIS TEST PASSES.
 27027					;THIS TEST IS REPEATED 15 TIMES IN ORDER TO TEST EACH INDEX REGISTER.
 27028
 27029			000712		SN=SN+1
 27030			000012			ZZ=ZZ+1
 27031	045072	201 12 0 00 000012 		MOVEI	ZZ,ZZ		;PRELOAD INDEX REGISTER WITH ITS ADDRESS
 27032	045073	302 12 0 12 000000 		CAIE	ZZ,(ZZ)		;PASS IF INDEX REGISTER CONTAINS ITS ADDRESS
 27033						STOP^
 27034	045074	254 04 0 00 045075 		HALT	.+1		;TEST FAILED IF PROGRAM HALTS HERE
 27035	045075	324 00 0 00 045076 		JUMPA	.+1		;IF TEST FAILS, CHANGE THIS INSTRUCTION (JUMPA .+1) TO
 27036									;JUMPA X (X IS THE ADDRESS OF THE FIRST INSTRUCTION
 27037									;IN THE SUBTEST) TO LOOP ON ERROR^
 27038
 27039					;**********
 27040
 27041
 27042					;THIS TEST VERIFIES THAT THE INDEX REGISTERS ARE ACCESSABLE.
 27043					;FIRST, AN INDEX REGISTER IS PRELOADED WITH ITS ADDRESS; THEN,
 27044					;IT IS REFERENCED AS AN INDEX REGISTER.  IF IT CONTAINS ITS ADDRESS, THIS TEST PASSES.
 27045					;THIS TEST IS REPEATED 15 TIMES IN ORDER TO TEST EACH INDEX REGISTER.
 27046
 27047			000713		SN=SN+1
 27048			000013			ZZ=ZZ+1
 27049	045076	201 13 0 00 000013 		MOVEI	ZZ,ZZ		;PRELOAD INDEX REGISTER WITH ITS ADDRESS
 27050	045077	302 13 0 13 000000 		CAIE	ZZ,(ZZ)		;PASS IF INDEX REGISTER CONTAINS ITS ADDRESS
 27051						STOP^
 27052	045100	254 04 0 00 045101 		HALT	.+1		;TEST FAILED IF PROGRAM HALTS HERE
 27053	045101	324 00 0 00 045102 		JUMPA	.+1		;IF TEST FAILS, CHANGE THIS INSTRUCTION (JUMPA .+1) TO
 27054									;JUMPA X (X IS THE ADDRESS OF THE FIRST INSTRUCTION
 27055									;IN THE SUBTEST) TO LOOP ON ERROR^
 27056
 27057					;**********
 27058
 27059
 27060					;THIS TEST VERIFIES THAT THE INDEX REGISTERS ARE ACCESSABLE.
 27061					;FIRST, AN INDEX REGISTER IS PRELOADED WITH ITS ADDRESS; THEN,
 27062					;IT IS REFERENCED AS AN INDEX REGISTER.  IF IT CONTAINS ITS ADDRESS, THIS TEST PASSES.
 27063					;THIS TEST IS REPEATED 15 TIMES IN ORDER TO TEST EACH INDEX REGISTER.
DFKAA PDP-10 KL10 BASIC INSTRUCTION DIAGNOSTIC (1) VER 0,2	MACRO %52(537) 09:34 31-JAN-77 PAGE 5-4
DFKAA4	MAC	25-AUG-75 13:58		TEST OF AC HARDWARE AND INDEX REGISTERS                                            SEQ 0591

 27064
 27065			000714		SN=SN+1
 27066			000014			ZZ=ZZ+1
 27067	045102	201 14 0 00 000014 		MOVEI	ZZ,ZZ		;PRELOAD INDEX REGISTER WITH ITS ADDRESS
 27068	045103	302 14 0 14 000000 		CAIE	ZZ,(ZZ)		;PASS IF INDEX REGISTER CONTAINS ITS ADDRESS
 27069						STOP^
 27070	045104	254 04 0 00 045105 		HALT	.+1		;TEST FAILED IF PROGRAM HALTS HERE
 27071	045105	324 00 0 00 045106 		JUMPA	.+1		;IF TEST FAILS, CHANGE THIS INSTRUCTION (JUMPA .+1) TO
 27072									;JUMPA X (X IS THE ADDRESS OF THE FIRST INSTRUCTION
 27073									;IN THE SUBTEST) TO LOOP ON ERROR^
 27074
 27075					;**********
 27076
 27077
 27078					;THIS TEST VERIFIES THAT THE INDEX REGISTERS ARE ACCESSABLE.
 27079					;FIRST, AN INDEX REGISTER IS PRELOADED WITH ITS ADDRESS; THEN,
 27080					;IT IS REFERENCED AS AN INDEX REGISTER.  IF IT CONTAINS ITS ADDRESS, THIS TEST PASSES.
 27081					;THIS TEST IS REPEATED 15 TIMES IN ORDER TO TEST EACH INDEX REGISTER.
 27082
 27083			000715		SN=SN+1
 27084			000015			ZZ=ZZ+1
 27085	045106	201 15 0 00 000015 		MOVEI	ZZ,ZZ		;PRELOAD INDEX REGISTER WITH ITS ADDRESS
 27086	045107	302 15 0 15 000000 		CAIE	ZZ,(ZZ)		;PASS IF INDEX REGISTER CONTAINS ITS ADDRESS
 27087						STOP^
 27088	045110	254 04 0 00 045111 		HALT	.+1		;TEST FAILED IF PROGRAM HALTS HERE
 27089	045111	324 00 0 00 045112 		JUMPA	.+1		;IF TEST FAILS, CHANGE THIS INSTRUCTION (JUMPA .+1) TO
 27090									;JUMPA X (X IS THE ADDRESS OF THE FIRST INSTRUCTION
 27091									;IN THE SUBTEST) TO LOOP ON ERROR^
 27092
 27093					;**********
 27094
 27095
 27096					;THIS TEST VERIFIES THAT THE INDEX REGISTERS ARE ACCESSABLE.
 27097					;FIRST, AN INDEX REGISTER IS PRELOADED WITH ITS ADDRESS; THEN,
 27098					;IT IS REFERENCED AS AN INDEX REGISTER.  IF IT CONTAINS ITS ADDRESS, THIS TEST PASSES.
 27099					;THIS TEST IS REPEATED 15 TIMES IN ORDER TO TEST EACH INDEX REGISTER.
 27100
 27101			000716		SN=SN+1
 27102			000016			ZZ=ZZ+1
 27103	045112	201 16 0 00 000016 		MOVEI	ZZ,ZZ		;PRELOAD INDEX REGISTER WITH ITS ADDRESS
 27104	045113	302 16 0 16 000000 		CAIE	ZZ,(ZZ)		;PASS IF INDEX REGISTER CONTAINS ITS ADDRESS
 27105						STOP^
 27106	045114	254 04 0 00 045115 		HALT	.+1		;TEST FAILED IF PROGRAM HALTS HERE
 27107	045115	324 00 0 00 045116 		JUMPA	.+1		;IF TEST FAILS, CHANGE THIS INSTRUCTION (JUMPA .+1) TO
 27108									;JUMPA X (X IS THE ADDRESS OF THE FIRST INSTRUCTION
 27109									;IN THE SUBTEST) TO LOOP ON ERROR^
 27110
 27111					;**********
 27112
 27113
 27114					;THIS TEST VERIFIES THAT THE INDEX REGISTERS ARE ACCESSABLE.
 27115					;FIRST, AN INDEX REGISTER IS PRELOADED WITH ITS ADDRESS; THEN,
 27116					;IT IS REFERENCED AS AN INDEX REGISTER.  IF IT CONTAINS ITS ADDRESS, THIS TEST PASSES.
 27117					;THIS TEST IS REPEATED 15 TIMES IN ORDER TO TEST EACH INDEX REGISTER.
 27118
DFKAA PDP-10 KL10 BASIC INSTRUCTION DIAGNOSTIC (1) VER 0,2	MACRO %52(537) 09:34 31-JAN-77 PAGE 5-5
DFKAA4	MAC	25-AUG-75 13:58		TEST OF AC HARDWARE AND INDEX REGISTERS                                            SEQ 0592

 27119			000717		SN=SN+1
 27120			000017			ZZ=ZZ+1
 27121	045116	201 17 0 00 000017 		MOVEI	ZZ,ZZ		;PRELOAD INDEX REGISTER WITH ITS ADDRESS
 27122	045117	302 17 0 17 000000 		CAIE	ZZ,(ZZ)		;PASS IF INDEX REGISTER CONTAINS ITS ADDRESS
 27123						STOP^
 27124	045120	254 04 0 00 045121 		HALT	.+1		;TEST FAILED IF PROGRAM HALTS HERE
 27125	045121	324 00 0 00 045122 		JUMPA	.+1		;IF TEST FAILS, CHANGE THIS INSTRUCTION (JUMPA .+1) TO
 27126									;JUMPA X (X IS THE ADDRESS OF THE FIRST INSTRUCTION
 27127									;IN THE SUBTEST) TO LOOP ON ERROR^
 27128
 27129					;**********
 27130
DFKAA PDP-10 KL10 BASIC INSTRUCTION DIAGNOSTIC (1) VER 0,2	MACRO %52(537) 09:34 31-JAN-77 PAGE 6
DFKAA4	MAC	25-AUG-75 13:58		TEST OF AC HARDWARE AND INDEX REGISTERS                                            SEQ 0593

 27131			001000		SN=1000
 27132			000000			ZZ=0
 27133
 27134					C1000:	REPEAT	^D15,<
 27135					;THIS TEST VERIFIES THAT ALL INDEX REGISTERS INDEX CORRECTLY.
 27136					;FIRST, BOTH HALVES OF THE INDEX REGISTER ARE PRELOADED WITH ITS ADDRESS.
 27137					;THEN, THE INDEX REGISTER IS REFERENCED.  IT IS THEN CHECKED FOR ITS ADDRESS IN BOTH HALVES
 27138					.
 27139					;IF IT CONTAINS ITS ADDRESS IN BOTH HALVES THIS TEST PASSES.
 27140					;THIS TEST IS REPEATED 15 TIMES IN ORDER TO TEST EACH INDEX REGISTER
 27141
 27142					SN=SN+1
 27143						ZZ=ZZ+1
 27144						MOVEI	ZZ,ZZ		;PRELOAD BOTH HALVES OF INDEX REG WITH ITS ADDRESS
 27145						HRLI	ZZ,ZZ		;PASS IF INDEX REGISTER CONTAINS ITS ADDRESS
 27146						CAME	ZZ,(ZZ)		;IN BOTH HALVES
 27147						STOP
 27148
 27149					;**********
 27150					>
 27151
 27152					;THIS TEST VERIFIES THAT ALL INDEX REGISTERS INDEX CORRECTLY.
 27153					;FIRST, BOTH HALVES OF THE INDEX REGISTER ARE PRELOADED WITH ITS ADDRESS.
 27154					;THEN, THE INDEX REGISTER IS REFERENCED.  IT IS THEN CHECKED FOR ITS ADDRESS IN BOTH HALVES
 27155					.
 27156					;IF IT CONTAINS ITS ADDRESS IN BOTH HALVES THIS TEST PASSES.
 27157					;THIS TEST IS REPEATED 15 TIMES IN ORDER TO TEST EACH INDEX REGISTER
 27158
 27159			001001		SN=SN+1
 27160			000001			ZZ=ZZ+1
 27161	045122	201 01 0 00 000001 		MOVEI	ZZ,ZZ		;PRELOAD BOTH HALVES OF INDEX REG WITH ITS ADDRESS
 27162	045123	505 01 0 00 000001 		HRLI	ZZ,ZZ		;PASS IF INDEX REGISTER CONTAINS ITS ADDRESS
 27163	045124	312 01 0 01 000000 		CAME	ZZ,(ZZ)		;IN BOTH HALVES
 27164						STOP^
 27165	045125	254 04 0 00 045126 		HALT	.+1		;TEST FAILED IF PROGRAM HALTS HERE
 27166	045126	324 00 0 00 045127 		JUMPA	.+1		;IF TEST FAILS, CHANGE THIS INSTRUCTION (JUMPA .+1) TO
 27167									;JUMPA X (X IS THE ADDRESS OF THE FIRST INSTRUCTION
 27168									;IN THE SUBTEST) TO LOOP ON ERROR^
 27169
 27170					;**********
 27171
 27172
 27173					;THIS TEST VERIFIES THAT ALL INDEX REGISTERS INDEX CORRECTLY.
 27174					;FIRST, BOTH HALVES OF THE INDEX REGISTER ARE PRELOADED WITH ITS ADDRESS.
 27175					;THEN, THE INDEX REGISTER IS REFERENCED.  IT IS THEN CHECKED FOR ITS ADDRESS IN BOTH HALVES
 27176					.
 27177					;IF IT CONTAINS ITS ADDRESS IN BOTH HALVES THIS TEST PASSES.
 27178					;THIS TEST IS REPEATED 15 TIMES IN ORDER TO TEST EACH INDEX REGISTER
 27179
 27180			001002		SN=SN+1
 27181			000002			ZZ=ZZ+1
 27182	045127	201 02 0 00 000002 		MOVEI	ZZ,ZZ		;PRELOAD BOTH HALVES OF INDEX REG WITH ITS ADDRESS
 27183	045130	505 02 0 00 000002 		HRLI	ZZ,ZZ		;PASS IF INDEX REGISTER CONTAINS ITS ADDRESS
 27184	045131	312 02 0 02 000000 		CAME	ZZ,(ZZ)		;IN BOTH HALVES
 27185						STOP^
DFKAA PDP-10 KL10 BASIC INSTRUCTION DIAGNOSTIC (1) VER 0,2	MACRO %52(537) 09:34 31-JAN-77 PAGE 6-1
DFKAA4	MAC	25-AUG-75 13:58		TEST OF AC HARDWARE AND INDEX REGISTERS                                            SEQ 0594

 27186	045132	254 04 0 00 045133 		HALT	.+1		;TEST FAILED IF PROGRAM HALTS HERE
 27187	045133	324 00 0 00 045134 		JUMPA	.+1		;IF TEST FAILS, CHANGE THIS INSTRUCTION (JUMPA .+1) TO
 27188									;JUMPA X (X IS THE ADDRESS OF THE FIRST INSTRUCTION
 27189									;IN THE SUBTEST) TO LOOP ON ERROR^
 27190
 27191					;**********
 27192
 27193
 27194					;THIS TEST VERIFIES THAT ALL INDEX REGISTERS INDEX CORRECTLY.
 27195					;FIRST, BOTH HALVES OF THE INDEX REGISTER ARE PRELOADED WITH ITS ADDRESS.
 27196					;THEN, THE INDEX REGISTER IS REFERENCED.  IT IS THEN CHECKED FOR ITS ADDRESS IN BOTH HALVES
 27197					.
 27198					;IF IT CONTAINS ITS ADDRESS IN BOTH HALVES THIS TEST PASSES.
 27199					;THIS TEST IS REPEATED 15 TIMES IN ORDER TO TEST EACH INDEX REGISTER
 27200
 27201			001003		SN=SN+1
 27202			000003			ZZ=ZZ+1
 27203	045134	201 03 0 00 000003 		MOVEI	ZZ,ZZ		;PRELOAD BOTH HALVES OF INDEX REG WITH ITS ADDRESS
 27204	045135	505 03 0 00 000003 		HRLI	ZZ,ZZ		;PASS IF INDEX REGISTER CONTAINS ITS ADDRESS
 27205	045136	312 03 0 03 000000 		CAME	ZZ,(ZZ)		;IN BOTH HALVES
 27206						STOP^
 27207	045137	254 04 0 00 045140 		HALT	.+1		;TEST FAILED IF PROGRAM HALTS HERE
 27208	045140	324 00 0 00 045141 		JUMPA	.+1		;IF TEST FAILS, CHANGE THIS INSTRUCTION (JUMPA .+1) TO
 27209									;JUMPA X (X IS THE ADDRESS OF THE FIRST INSTRUCTION
 27210									;IN THE SUBTEST) TO LOOP ON ERROR^
 27211
 27212					;**********
 27213
 27214
 27215					;THIS TEST VERIFIES THAT ALL INDEX REGISTERS INDEX CORRECTLY.
 27216					;FIRST, BOTH HALVES OF THE INDEX REGISTER ARE PRELOADED WITH ITS ADDRESS.
 27217					;THEN, THE INDEX REGISTER IS REFERENCED.  IT IS THEN CHECKED FOR ITS ADDRESS IN BOTH HALVES
 27218					.
 27219					;IF IT CONTAINS ITS ADDRESS IN BOTH HALVES THIS TEST PASSES.
 27220					;THIS TEST IS REPEATED 15 TIMES IN ORDER TO TEST EACH INDEX REGISTER
 27221
 27222			001004		SN=SN+1
 27223			000004			ZZ=ZZ+1
 27224	045141	201 04 0 00 000004 		MOVEI	ZZ,ZZ		;PRELOAD BOTH HALVES OF INDEX REG WITH ITS ADDRESS
 27225	045142	505 04 0 00 000004 		HRLI	ZZ,ZZ		;PASS IF INDEX REGISTER CONTAINS ITS ADDRESS
 27226	045143	312 04 0 04 000000 		CAME	ZZ,(ZZ)		;IN BOTH HALVES
 27227						STOP^
 27228	045144	254 04 0 00 045145 		HALT	.+1		;TEST FAILED IF PROGRAM HALTS HERE
 27229	045145	324 00 0 00 045146 		JUMPA	.+1		;IF TEST FAILS, CHANGE THIS INSTRUCTION (JUMPA .+1) TO
 27230									;JUMPA X (X IS THE ADDRESS OF THE FIRST INSTRUCTION
 27231									;IN THE SUBTEST) TO LOOP ON ERROR^
 27232
 27233					;**********
 27234
 27235
 27236					;THIS TEST VERIFIES THAT ALL INDEX REGISTERS INDEX CORRECTLY.
 27237					;FIRST, BOTH HALVES OF THE INDEX REGISTER ARE PRELOADED WITH ITS ADDRESS.
 27238					;THEN, THE INDEX REGISTER IS REFERENCED.  IT IS THEN CHECKED FOR ITS ADDRESS IN BOTH HALVES
 27239					.
 27240					;IF IT CONTAINS ITS ADDRESS IN BOTH HALVES THIS TEST PASSES.
DFKAA PDP-10 KL10 BASIC INSTRUCTION DIAGNOSTIC (1) VER 0,2	MACRO %52(537) 09:34 31-JAN-77 PAGE 6-2
DFKAA4	MAC	25-AUG-75 13:58		TEST OF AC HARDWARE AND INDEX REGISTERS                                            SEQ 0595

 27241					;THIS TEST IS REPEATED 15 TIMES IN ORDER TO TEST EACH INDEX REGISTER
 27242
 27243			001005		SN=SN+1
 27244			000005			ZZ=ZZ+1
 27245	045146	201 05 0 00 000005 		MOVEI	ZZ,ZZ		;PRELOAD BOTH HALVES OF INDEX REG WITH ITS ADDRESS
 27246	045147	505 05 0 00 000005 		HRLI	ZZ,ZZ		;PASS IF INDEX REGISTER CONTAINS ITS ADDRESS
 27247	045150	312 05 0 05 000000 		CAME	ZZ,(ZZ)		;IN BOTH HALVES
 27248						STOP^
 27249	045151	254 04 0 00 045152 		HALT	.+1		;TEST FAILED IF PROGRAM HALTS HERE
 27250	045152	324 00 0 00 045153 		JUMPA	.+1		;IF TEST FAILS, CHANGE THIS INSTRUCTION (JUMPA .+1) TO
 27251									;JUMPA X (X IS THE ADDRESS OF THE FIRST INSTRUCTION
 27252									;IN THE SUBTEST) TO LOOP ON ERROR^
 27253
 27254					;**********
 27255
 27256
 27257					;THIS TEST VERIFIES THAT ALL INDEX REGISTERS INDEX CORRECTLY.
 27258					;FIRST, BOTH HALVES OF THE INDEX REGISTER ARE PRELOADED WITH ITS ADDRESS.
 27259					;THEN, THE INDEX REGISTER IS REFERENCED.  IT IS THEN CHECKED FOR ITS ADDRESS IN BOTH HALVES
 27260					.
 27261					;IF IT CONTAINS ITS ADDRESS IN BOTH HALVES THIS TEST PASSES.
 27262					;THIS TEST IS REPEATED 15 TIMES IN ORDER TO TEST EACH INDEX REGISTER
 27263
 27264			001006		SN=SN+1
 27265			000006			ZZ=ZZ+1
 27266	045153	201 06 0 00 000006 		MOVEI	ZZ,ZZ		;PRELOAD BOTH HALVES OF INDEX REG WITH ITS ADDRESS
 27267	045154	505 06 0 00 000006 		HRLI	ZZ,ZZ		;PASS IF INDEX REGISTER CONTAINS ITS ADDRESS
 27268	045155	312 06 0 06 000000 		CAME	ZZ,(ZZ)		;IN BOTH HALVES
 27269						STOP^
 27270	045156	254 04 0 00 045157 		HALT	.+1		;TEST FAILED IF PROGRAM HALTS HERE
 27271	045157	324 00 0 00 045160 		JUMPA	.+1		;IF TEST FAILS, CHANGE THIS INSTRUCTION (JUMPA .+1) TO
 27272									;JUMPA X (X IS THE ADDRESS OF THE FIRST INSTRUCTION
 27273									;IN THE SUBTEST) TO LOOP ON ERROR^
 27274
 27275					;**********
 27276
 27277
 27278					;THIS TEST VERIFIES THAT ALL INDEX REGISTERS INDEX CORRECTLY.
 27279					;FIRST, BOTH HALVES OF THE INDEX REGISTER ARE PRELOADED WITH ITS ADDRESS.
 27280					;THEN, THE INDEX REGISTER IS REFERENCED.  IT IS THEN CHECKED FOR ITS ADDRESS IN BOTH HALVES
 27281					.
 27282					;IF IT CONTAINS ITS ADDRESS IN BOTH HALVES THIS TEST PASSES.
 27283					;THIS TEST IS REPEATED 15 TIMES IN ORDER TO TEST EACH INDEX REGISTER
 27284
 27285			001007		SN=SN+1
 27286			000007			ZZ=ZZ+1
 27287	045160	201 07 0 00 000007 		MOVEI	ZZ,ZZ		;PRELOAD BOTH HALVES OF INDEX REG WITH ITS ADDRESS
 27288	045161	505 07 0 00 000007 		HRLI	ZZ,ZZ		;PASS IF INDEX REGISTER CONTAINS ITS ADDRESS
 27289	045162	312 07 0 07 000000 		CAME	ZZ,(ZZ)		;IN BOTH HALVES
 27290						STOP^
 27291	045163	254 04 0 00 045164 		HALT	.+1		;TEST FAILED IF PROGRAM HALTS HERE
 27292	045164	324 00 0 00 045165 		JUMPA	.+1		;IF TEST FAILS, CHANGE THIS INSTRUCTION (JUMPA .+1) TO
 27293									;JUMPA X (X IS THE ADDRESS OF THE FIRST INSTRUCTION
 27294									;IN THE SUBTEST) TO LOOP ON ERROR^
 27295
DFKAA PDP-10 KL10 BASIC INSTRUCTION DIAGNOSTIC (1) VER 0,2	MACRO %52(537) 09:34 31-JAN-77 PAGE 6-3
DFKAA4	MAC	25-AUG-75 13:58		TEST OF AC HARDWARE AND INDEX REGISTERS                                            SEQ 0596

 27296					;**********
 27297
 27298
 27299					;THIS TEST VERIFIES THAT ALL INDEX REGISTERS INDEX CORRECTLY.
 27300					;FIRST, BOTH HALVES OF THE INDEX REGISTER ARE PRELOADED WITH ITS ADDRESS.
 27301					;THEN, THE INDEX REGISTER IS REFERENCED.  IT IS THEN CHECKED FOR ITS ADDRESS IN BOTH HALVES
 27302					.
 27303					;IF IT CONTAINS ITS ADDRESS IN BOTH HALVES THIS TEST PASSES.
 27304					;THIS TEST IS REPEATED 15 TIMES IN ORDER TO TEST EACH INDEX REGISTER
 27305
 27306			001010		SN=SN+1
 27307			000010			ZZ=ZZ+1
 27308	045165	201 10 0 00 000010 		MOVEI	ZZ,ZZ		;PRELOAD BOTH HALVES OF INDEX REG WITH ITS ADDRESS
 27309	045166	505 10 0 00 000010 		HRLI	ZZ,ZZ		;PASS IF INDEX REGISTER CONTAINS ITS ADDRESS
 27310	045167	312 10 0 10 000000 		CAME	ZZ,(ZZ)		;IN BOTH HALVES
 27311						STOP^
 27312	045170	254 04 0 00 045171 		HALT	.+1		;TEST FAILED IF PROGRAM HALTS HERE
 27313	045171	324 00 0 00 045172 		JUMPA	.+1		;IF TEST FAILS, CHANGE THIS INSTRUCTION (JUMPA .+1) TO
 27314									;JUMPA X (X IS THE ADDRESS OF THE FIRST INSTRUCTION
 27315									;IN THE SUBTEST) TO LOOP ON ERROR^
 27316
 27317					;**********
 27318
 27319
 27320					;THIS TEST VERIFIES THAT ALL INDEX REGISTERS INDEX CORRECTLY.
 27321					;FIRST, BOTH HALVES OF THE INDEX REGISTER ARE PRELOADED WITH ITS ADDRESS.
 27322					;THEN, THE INDEX REGISTER IS REFERENCED.  IT IS THEN CHECKED FOR ITS ADDRESS IN BOTH HALVES
 27323					.
 27324					;IF IT CONTAINS ITS ADDRESS IN BOTH HALVES THIS TEST PASSES.
 27325					;THIS TEST IS REPEATED 15 TIMES IN ORDER TO TEST EACH INDEX REGISTER
 27326
 27327			001011		SN=SN+1
 27328			000011			ZZ=ZZ+1
 27329	045172	201 11 0 00 000011 		MOVEI	ZZ,ZZ		;PRELOAD BOTH HALVES OF INDEX REG WITH ITS ADDRESS
 27330	045173	505 11 0 00 000011 		HRLI	ZZ,ZZ		;PASS IF INDEX REGISTER CONTAINS ITS ADDRESS
 27331	045174	312 11 0 11 000000 		CAME	ZZ,(ZZ)		;IN BOTH HALVES
 27332						STOP^
 27333	045175	254 04 0 00 045176 		HALT	.+1		;TEST FAILED IF PROGRAM HALTS HERE
 27334	045176	324 00 0 00 045177 		JUMPA	.+1		;IF TEST FAILS, CHANGE THIS INSTRUCTION (JUMPA .+1) TO
 27335									;JUMPA X (X IS THE ADDRESS OF THE FIRST INSTRUCTION
 27336									;IN THE SUBTEST) TO LOOP ON ERROR^
 27337
 27338					;**********
 27339
 27340
 27341					;THIS TEST VERIFIES THAT ALL INDEX REGISTERS INDEX CORRECTLY.
 27342					;FIRST, BOTH HALVES OF THE INDEX REGISTER ARE PRELOADED WITH ITS ADDRESS.
 27343					;THEN, THE INDEX REGISTER IS REFERENCED.  IT IS THEN CHECKED FOR ITS ADDRESS IN BOTH HALVES
 27344					.
 27345					;IF IT CONTAINS ITS ADDRESS IN BOTH HALVES THIS TEST PASSES.
 27346					;THIS TEST IS REPEATED 15 TIMES IN ORDER TO TEST EACH INDEX REGISTER
 27347
 27348			001012		SN=SN+1
 27349			000012			ZZ=ZZ+1
 27350	045177	201 12 0 00 000012 		MOVEI	ZZ,ZZ		;PRELOAD BOTH HALVES OF INDEX REG WITH ITS ADDRESS
DFKAA PDP-10 KL10 BASIC INSTRUCTION DIAGNOSTIC (1) VER 0,2	MACRO %52(537) 09:34 31-JAN-77 PAGE 6-4
DFKAA4	MAC	25-AUG-75 13:58		TEST OF AC HARDWARE AND INDEX REGISTERS                                            SEQ 0597

 27351	045200	505 12 0 00 000012 		HRLI	ZZ,ZZ		;PASS IF INDEX REGISTER CONTAINS ITS ADDRESS
 27352	045201	312 12 0 12 000000 		CAME	ZZ,(ZZ)		;IN BOTH HALVES
 27353						STOP^
 27354	045202	254 04 0 00 045203 		HALT	.+1		;TEST FAILED IF PROGRAM HALTS HERE
 27355	045203	324 00 0 00 045204 		JUMPA	.+1		;IF TEST FAILS, CHANGE THIS INSTRUCTION (JUMPA .+1) TO
 27356									;JUMPA X (X IS THE ADDRESS OF THE FIRST INSTRUCTION
 27357									;IN THE SUBTEST) TO LOOP ON ERROR^
 27358
 27359					;**********
 27360
 27361
 27362					;THIS TEST VERIFIES THAT ALL INDEX REGISTERS INDEX CORRECTLY.
 27363					;FIRST, BOTH HALVES OF THE INDEX REGISTER ARE PRELOADED WITH ITS ADDRESS.
 27364					;THEN, THE INDEX REGISTER IS REFERENCED.  IT IS THEN CHECKED FOR ITS ADDRESS IN BOTH HALVES
 27365					.
 27366					;IF IT CONTAINS ITS ADDRESS IN BOTH HALVES THIS TEST PASSES.
 27367					;THIS TEST IS REPEATED 15 TIMES IN ORDER TO TEST EACH INDEX REGISTER
 27368
 27369			001013		SN=SN+1
 27370			000013			ZZ=ZZ+1
 27371	045204	201 13 0 00 000013 		MOVEI	ZZ,ZZ		;PRELOAD BOTH HALVES OF INDEX REG WITH ITS ADDRESS
 27372	045205	505 13 0 00 000013 		HRLI	ZZ,ZZ		;PASS IF INDEX REGISTER CONTAINS ITS ADDRESS
 27373	045206	312 13 0 13 000000 		CAME	ZZ,(ZZ)		;IN BOTH HALVES
 27374						STOP^
 27375	045207	254 04 0 00 045210 		HALT	.+1		;TEST FAILED IF PROGRAM HALTS HERE
 27376	045210	324 00 0 00 045211 		JUMPA	.+1		;IF TEST FAILS, CHANGE THIS INSTRUCTION (JUMPA .+1) TO
 27377									;JUMPA X (X IS THE ADDRESS OF THE FIRST INSTRUCTION
 27378									;IN THE SUBTEST) TO LOOP ON ERROR^
 27379
 27380					;**********
 27381
 27382
 27383					;THIS TEST VERIFIES THAT ALL INDEX REGISTERS INDEX CORRECTLY.
 27384					;FIRST, BOTH HALVES OF THE INDEX REGISTER ARE PRELOADED WITH ITS ADDRESS.
 27385					;THEN, THE INDEX REGISTER IS REFERENCED.  IT IS THEN CHECKED FOR ITS ADDRESS IN BOTH HALVES
 27386					.
 27387					;IF IT CONTAINS ITS ADDRESS IN BOTH HALVES THIS TEST PASSES.
 27388					;THIS TEST IS REPEATED 15 TIMES IN ORDER TO TEST EACH INDEX REGISTER
 27389
 27390			001014		SN=SN+1
 27391			000014			ZZ=ZZ+1
 27392	045211	201 14 0 00 000014 		MOVEI	ZZ,ZZ		;PRELOAD BOTH HALVES OF INDEX REG WITH ITS ADDRESS
 27393	045212	505 14 0 00 000014 		HRLI	ZZ,ZZ		;PASS IF INDEX REGISTER CONTAINS ITS ADDRESS
 27394	045213	312 14 0 14 000000 		CAME	ZZ,(ZZ)		;IN BOTH HALVES
 27395						STOP^
 27396	045214	254 04 0 00 045215 		HALT	.+1		;TEST FAILED IF PROGRAM HALTS HERE
 27397	045215	324 00 0 00 045216 		JUMPA	.+1		;IF TEST FAILS, CHANGE THIS INSTRUCTION (JUMPA .+1) TO
 27398									;JUMPA X (X IS THE ADDRESS OF THE FIRST INSTRUCTION
 27399									;IN THE SUBTEST) TO LOOP ON ERROR^
 27400
 27401					;**********
 27402
 27403
 27404					;THIS TEST VERIFIES THAT ALL INDEX REGISTERS INDEX CORRECTLY.
 27405					;FIRST, BOTH HALVES OF THE INDEX REGISTER ARE PRELOADED WITH ITS ADDRESS.
DFKAA PDP-10 KL10 BASIC INSTRUCTION DIAGNOSTIC (1) VER 0,2	MACRO %52(537) 09:34 31-JAN-77 PAGE 6-5
DFKAA4	MAC	25-AUG-75 13:58		TEST OF AC HARDWARE AND INDEX REGISTERS                                            SEQ 0598

 27406					;THEN, THE INDEX REGISTER IS REFERENCED.  IT IS THEN CHECKED FOR ITS ADDRESS IN BOTH HALVES
 27407					.
 27408					;IF IT CONTAINS ITS ADDRESS IN BOTH HALVES THIS TEST PASSES.
 27409					;THIS TEST IS REPEATED 15 TIMES IN ORDER TO TEST EACH INDEX REGISTER
 27410
 27411			001015		SN=SN+1
 27412			000015			ZZ=ZZ+1
 27413	045216	201 15 0 00 000015 		MOVEI	ZZ,ZZ		;PRELOAD BOTH HALVES OF INDEX REG WITH ITS ADDRESS
 27414	045217	505 15 0 00 000015 		HRLI	ZZ,ZZ		;PASS IF INDEX REGISTER CONTAINS ITS ADDRESS
 27415	045220	312 15 0 15 000000 		CAME	ZZ,(ZZ)		;IN BOTH HALVES
 27416						STOP^
 27417	045221	254 04 0 00 045222 		HALT	.+1		;TEST FAILED IF PROGRAM HALTS HERE
 27418	045222	324 00 0 00 045223 		JUMPA	.+1		;IF TEST FAILS, CHANGE THIS INSTRUCTION (JUMPA .+1) TO
 27419									;JUMPA X (X IS THE ADDRESS OF THE FIRST INSTRUCTION
 27420									;IN THE SUBTEST) TO LOOP ON ERROR^
 27421
 27422					;**********
 27423
 27424
 27425					;THIS TEST VERIFIES THAT ALL INDEX REGISTERS INDEX CORRECTLY.
 27426					;FIRST, BOTH HALVES OF THE INDEX REGISTER ARE PRELOADED WITH ITS ADDRESS.
 27427					;THEN, THE INDEX REGISTER IS REFERENCED.  IT IS THEN CHECKED FOR ITS ADDRESS IN BOTH HALVES
 27428					.
 27429					;IF IT CONTAINS ITS ADDRESS IN BOTH HALVES THIS TEST PASSES.
 27430					;THIS TEST IS REPEATED 15 TIMES IN ORDER TO TEST EACH INDEX REGISTER
 27431
 27432			001016		SN=SN+1
 27433			000016			ZZ=ZZ+1
 27434	045223	201 16 0 00 000016 		MOVEI	ZZ,ZZ		;PRELOAD BOTH HALVES OF INDEX REG WITH ITS ADDRESS
 27435	045224	505 16 0 00 000016 		HRLI	ZZ,ZZ		;PASS IF INDEX REGISTER CONTAINS ITS ADDRESS
 27436	045225	312 16 0 16 000000 		CAME	ZZ,(ZZ)		;IN BOTH HALVES
 27437						STOP^
 27438	045226	254 04 0 00 045227 		HALT	.+1		;TEST FAILED IF PROGRAM HALTS HERE
 27439	045227	324 00 0 00 045230 		JUMPA	.+1		;IF TEST FAILS, CHANGE THIS INSTRUCTION (JUMPA .+1) TO
 27440									;JUMPA X (X IS THE ADDRESS OF THE FIRST INSTRUCTION
 27441									;IN THE SUBTEST) TO LOOP ON ERROR^
 27442
 27443					;**********
 27444
 27445
 27446					;THIS TEST VERIFIES THAT ALL INDEX REGISTERS INDEX CORRECTLY.
 27447					;FIRST, BOTH HALVES OF THE INDEX REGISTER ARE PRELOADED WITH ITS ADDRESS.
 27448					;THEN, THE INDEX REGISTER IS REFERENCED.  IT IS THEN CHECKED FOR ITS ADDRESS IN BOTH HALVES
 27449					.
 27450					;IF IT CONTAINS ITS ADDRESS IN BOTH HALVES THIS TEST PASSES.
 27451					;THIS TEST IS REPEATED 15 TIMES IN ORDER TO TEST EACH INDEX REGISTER
 27452
 27453			001017		SN=SN+1
 27454			000017			ZZ=ZZ+1
 27455	045230	201 17 0 00 000017 		MOVEI	ZZ,ZZ		;PRELOAD BOTH HALVES OF INDEX REG WITH ITS ADDRESS
 27456	045231	505 17 0 00 000017 		HRLI	ZZ,ZZ		;PASS IF INDEX REGISTER CONTAINS ITS ADDRESS
 27457	045232	312 17 0 17 000000 		CAME	ZZ,(ZZ)		;IN BOTH HALVES
 27458						STOP^
 27459	045233	254 04 0 00 045234 		HALT	.+1		;TEST FAILED IF PROGRAM HALTS HERE
 27460	045234	324 00 0 00 045235 		JUMPA	.+1		;IF TEST FAILS, CHANGE THIS INSTRUCTION (JUMPA .+1) TO
DFKAA PDP-10 KL10 BASIC INSTRUCTION DIAGNOSTIC (1) VER 0,2	MACRO %52(537) 09:34 31-JAN-77 PAGE 6-6
DFKAA4	MAC	25-AUG-75 13:58		TEST OF AC HARDWARE AND INDEX REGISTERS                                            SEQ 0599

 27461									;JUMPA X (X IS THE ADDRESS OF THE FIRST INSTRUCTION
 27462									;IN THE SUBTEST) TO LOOP ON ERROR^
 27463
 27464					;**********
 27465
DFKAA PDP-10 KL10 BASIC INSTRUCTION DIAGNOSTIC (1) VER 0,2	MACRO %52(537) 09:34 31-JAN-77 PAGE 7
DFKAA4	MAC	25-AUG-75 13:58		TEST OF INDEX REGISTER ADDRESSING                                                  SEQ 0600

 27466					SUBTTL	TEST OF INDEX REGISTER ADDRESSING
 27467
 27468					;**********
 27469
 27470					;THIS TEST VERIFIES THAT INDEX REGISTER ADDRESSING FUNCTIONS CORRECTLY.
 27471					;IN THIS TEST, A MOVE INSTRUCTION USING INDEXING IS EXECUTED.  THE MOVE INSTRUCTION
 27472					;SHOULD PLACE THE CONTENTS OF THE LOCATION SPECIFIED BY INDEX REGISTER 2 INTO AC3.
 27473					;SINCE INDEX REGISTER 2 WAS PRELOADED WITH A 1 AND AC1 WAS PRELOADED WITH A 0,
 27474					;THE FINAL RESULT IN AC3 SHOULD BE 0.  IF C(AC3)=0, THIS TEST PASSES.
 27475
 27476	045235	476 00 0 00 000003 	C1100:	SETOM	3		;PRELOAD AC3 WITH -1,,1
 27477	045236	402 00 0 00 000001 		SETZM	1		;PRELOAD AC1 WITH 0
 27478	045237	201 02 0 00 000001 		MOVEI	2,1		;SETUP INDEX REGISTER 2 WITH 1
 27479	045240	200 03 0 02 000000 		MOVE	3,(2)		;*FWT FROM INDEXED LOCATION
 27480	045241	332 00 0 00 000003 		SKIPE	3		;TEST INDEXING
 27481						STOP^
 27482	045242	254 04 0 00 045243 		HALT	.+1		;TEST FAILED IF PROGRAM HALTS HERE
 27483	045243	324 00 0 00 045244 		JUMPA	.+1		;IF TEST FAILS, CHANGE THIS INSTRUCTION (JUMPA .+1) TO
 27484									;JUMPA X (X IS THE ADDRESS OF THE FIRST INSTRUCTION
 27485									;IN THE SUBTEST) TO LOOP ON ERROR^
 27486
 27487					;**********
 27488
 27489			001200		SN=1200
 27490			000000			ZZ=0
 27491
 27492					C1200:	REPEAT	^D18,<
 27493					;THIS TEST VERIFIES THAT INDEX REGISTER ADDRESSING FUNCTIONS CORRECTLY.
 27494					;IN THIS TEST, A MOVE INSTRUCTION USING INDEXING IS EXECUTED.  THE MOVE INSTRUCTION
 27495					;SHOULD PLACE THE CONTENTS OF THE LOCATION SPECIFIED BY INDEX REGISTER 2 INTO AC3.
 27496					;SINCE INDEX REGISTER 2 WAS PRELOADED WITH A 1 AND AC1 WAS PRELOADED WITH A
 27497					;FLOATING 1.  THE FINAL RESULT IN AC3 SHOULD BE A FLOATING 1.
 27498					;IF C(AC3)=A FLOATING 1, THIS TEST PASSES.
 27499
 27500					SN=SN+1
 27501						ZZ=ZZ+ZZ
 27502						IFE	ZZ,<ZZ=1>
 27503						SETOM	3		;PRELOAD AC3 WITH -1,,-1
 27504						MOVEI	1,ZZ		;PRELOAD AC1 WITH FLOATING 1
 27505						MOVEI	2,1		;SETUP INDEX REGISTER
 27506						MOVE	3,(2)		;*FWT FROM INDEXED LOCATION
 27507						CAIE	3,ZZ		;TEST INDEXING
 27508						STOP
 27509
 27510					;**********
 27511					>
 27512
 27513					;THIS TEST VERIFIES THAT INDEX REGISTER ADDRESSING FUNCTIONS CORRECTLY.
 27514					;IN THIS TEST, A MOVE INSTRUCTION USING INDEXING IS EXECUTED.  THE MOVE INSTRUCTION
 27515					;SHOULD PLACE THE CONTENTS OF THE LOCATION SPECIFIED BY INDEX REGISTER 2 INTO AC3.
 27516					;SINCE INDEX REGISTER 2 WAS PRELOADED WITH A 1 AND AC1 WAS PRELOADED WITH A
 27517					;FLOATING 1.  THE FINAL RESULT IN AC3 SHOULD BE A FLOATING 1.
 27518					;IF C(AC3)=A FLOATING 1, THIS TEST PASSES.
 27519
 27520			001201		SN=SN+1
DFKAA PDP-10 KL10 BASIC INSTRUCTION DIAGNOSTIC (1) VER 0,2	MACRO %52(537) 09:34 31-JAN-77 PAGE 7-1
DFKAA4	MAC	25-AUG-75 13:58		TEST OF INDEX REGISTER ADDRESSING                                                  SEQ 0601

 27521			000000			ZZ=ZZ+ZZ
 27522			000001			IFE	ZZ,<ZZ=1>
 27523	045244	476 00 0 00 000003 		SETOM	3		;PRELOAD AC3 WITH -1,,-1
 27524	045245	201 01 0 00 000001 		MOVEI	1,ZZ		;PRELOAD AC1 WITH FLOATING 1
 27525	045246	201 02 0 00 000001 		MOVEI	2,1		;SETUP INDEX REGISTER
 27526	045247	200 03 0 02 000000 		MOVE	3,(2)		;*FWT FROM INDEXED LOCATION
 27527	045250	302 03 0 00 000001 		CAIE	3,ZZ		;TEST INDEXING
 27528						STOP^
 27529	045251	254 04 0 00 045252 		HALT	.+1		;TEST FAILED IF PROGRAM HALTS HERE
 27530	045252	324 00 0 00 045253 		JUMPA	.+1		;IF TEST FAILS, CHANGE THIS INSTRUCTION (JUMPA .+1) TO
 27531									;JUMPA X (X IS THE ADDRESS OF THE FIRST INSTRUCTION
 27532									;IN THE SUBTEST) TO LOOP ON ERROR^
 27533
 27534					;**********
 27535
 27536
 27537					;THIS TEST VERIFIES THAT INDEX REGISTER ADDRESSING FUNCTIONS CORRECTLY.
 27538					;IN THIS TEST, A MOVE INSTRUCTION USING INDEXING IS EXECUTED.  THE MOVE INSTRUCTION
 27539					;SHOULD PLACE THE CONTENTS OF THE LOCATION SPECIFIED BY INDEX REGISTER 2 INTO AC3.
 27540					;SINCE INDEX REGISTER 2 WAS PRELOADED WITH A 1 AND AC1 WAS PRELOADED WITH A
 27541					;FLOATING 1.  THE FINAL RESULT IN AC3 SHOULD BE A FLOATING 1.
 27542					;IF C(AC3)=A FLOATING 1, THIS TEST PASSES.
 27543
 27544			001202		SN=SN+1
 27545			000002			ZZ=ZZ+ZZ
 27546						IFE	ZZ,<ZZ=1>
 27547	045253	476 00 0 00 000003 		SETOM	3		;PRELOAD AC3 WITH -1,,-1
 27548	045254	201 01 0 00 000002 		MOVEI	1,ZZ		;PRELOAD AC1 WITH FLOATING 1
 27549	045255	201 02 0 00 000001 		MOVEI	2,1		;SETUP INDEX REGISTER
 27550	045256	200 03 0 02 000000 		MOVE	3,(2)		;*FWT FROM INDEXED LOCATION
 27551	045257	302 03 0 00 000002 		CAIE	3,ZZ		;TEST INDEXING
 27552						STOP^
 27553	045260	254 04 0 00 045261 		HALT	.+1		;TEST FAILED IF PROGRAM HALTS HERE
 27554	045261	324 00 0 00 045262 		JUMPA	.+1		;IF TEST FAILS, CHANGE THIS INSTRUCTION (JUMPA .+1) TO
 27555									;JUMPA X (X IS THE ADDRESS OF THE FIRST INSTRUCTION
 27556									;IN THE SUBTEST) TO LOOP ON ERROR^
 27557
 27558					;**********
 27559
 27560
 27561					;THIS TEST VERIFIES THAT INDEX REGISTER ADDRESSING FUNCTIONS CORRECTLY.
 27562					;IN THIS TEST, A MOVE INSTRUCTION USING INDEXING IS EXECUTED.  THE MOVE INSTRUCTION
 27563					;SHOULD PLACE THE CONTENTS OF THE LOCATION SPECIFIED BY INDEX REGISTER 2 INTO AC3.
 27564					;SINCE INDEX REGISTER 2 WAS PRELOADED WITH A 1 AND AC1 WAS PRELOADED WITH A
 27565					;FLOATING 1.  THE FINAL RESULT IN AC3 SHOULD BE A FLOATING 1.
 27566					;IF C(AC3)=A FLOATING 1, THIS TEST PASSES.
 27567
 27568			001203		SN=SN+1
 27569			000004			ZZ=ZZ+ZZ
 27570						IFE	ZZ,<ZZ=1>
 27571	045262	476 00 0 00 000003 		SETOM	3		;PRELOAD AC3 WITH -1,,-1
 27572	045263	201 01 0 00 000004 		MOVEI	1,ZZ		;PRELOAD AC1 WITH FLOATING 1
 27573	045264	201 02 0 00 000001 		MOVEI	2,1		;SETUP INDEX REGISTER
 27574	045265	200 03 0 02 000000 		MOVE	3,(2)		;*FWT FROM INDEXED LOCATION
 27575	045266	302 03 0 00 000004 		CAIE	3,ZZ		;TEST INDEXING
DFKAA PDP-10 KL10 BASIC INSTRUCTION DIAGNOSTIC (1) VER 0,2	MACRO %52(537) 09:34 31-JAN-77 PAGE 7-2
DFKAA4	MAC	25-AUG-75 13:58		TEST OF INDEX REGISTER ADDRESSING                                                  SEQ 0602

 27576						STOP^
 27577	045267	254 04 0 00 045270 		HALT	.+1		;TEST FAILED IF PROGRAM HALTS HERE
 27578	045270	324 00 0 00 045271 		JUMPA	.+1		;IF TEST FAILS, CHANGE THIS INSTRUCTION (JUMPA .+1) TO
 27579									;JUMPA X (X IS THE ADDRESS OF THE FIRST INSTRUCTION
 27580									;IN THE SUBTEST) TO LOOP ON ERROR^
 27581
 27582					;**********
 27583
 27584
 27585					;THIS TEST VERIFIES THAT INDEX REGISTER ADDRESSING FUNCTIONS CORRECTLY.
 27586					;IN THIS TEST, A MOVE INSTRUCTION USING INDEXING IS EXECUTED.  THE MOVE INSTRUCTION
 27587					;SHOULD PLACE THE CONTENTS OF THE LOCATION SPECIFIED BY INDEX REGISTER 2 INTO AC3.
 27588					;SINCE INDEX REGISTER 2 WAS PRELOADED WITH A 1 AND AC1 WAS PRELOADED WITH A
 27589					;FLOATING 1.  THE FINAL RESULT IN AC3 SHOULD BE A FLOATING 1.
 27590					;IF C(AC3)=A FLOATING 1, THIS TEST PASSES.
 27591
 27592			001204		SN=SN+1
 27593			000010			ZZ=ZZ+ZZ
 27594						IFE	ZZ,<ZZ=1>
 27595	045271	476 00 0 00 000003 		SETOM	3		;PRELOAD AC3 WITH -1,,-1
 27596	045272	201 01 0 00 000010 		MOVEI	1,ZZ		;PRELOAD AC1 WITH FLOATING 1
 27597	045273	201 02 0 00 000001 		MOVEI	2,1		;SETUP INDEX REGISTER
 27598	045274	200 03 0 02 000000 		MOVE	3,(2)		;*FWT FROM INDEXED LOCATION
 27599	045275	302 03 0 00 000010 		CAIE	3,ZZ		;TEST INDEXING
 27600						STOP^
 27601	045276	254 04 0 00 045277 		HALT	.+1		;TEST FAILED IF PROGRAM HALTS HERE
 27602	045277	324 00 0 00 045300 		JUMPA	.+1		;IF TEST FAILS, CHANGE THIS INSTRUCTION (JUMPA .+1) TO
 27603									;JUMPA X (X IS THE ADDRESS OF THE FIRST INSTRUCTION
 27604									;IN THE SUBTEST) TO LOOP ON ERROR^
 27605
 27606					;**********
 27607
 27608
 27609					;THIS TEST VERIFIES THAT INDEX REGISTER ADDRESSING FUNCTIONS CORRECTLY.
 27610					;IN THIS TEST, A MOVE INSTRUCTION USING INDEXING IS EXECUTED.  THE MOVE INSTRUCTION
 27611					;SHOULD PLACE THE CONTENTS OF THE LOCATION SPECIFIED BY INDEX REGISTER 2 INTO AC3.
 27612					;SINCE INDEX REGISTER 2 WAS PRELOADED WITH A 1 AND AC1 WAS PRELOADED WITH A
 27613					;FLOATING 1.  THE FINAL RESULT IN AC3 SHOULD BE A FLOATING 1.
 27614					;IF C(AC3)=A FLOATING 1, THIS TEST PASSES.
 27615
 27616			001205		SN=SN+1
 27617			000020			ZZ=ZZ+ZZ
 27618						IFE	ZZ,<ZZ=1>
 27619	045300	476 00 0 00 000003 		SETOM	3		;PRELOAD AC3 WITH -1,,-1
 27620	045301	201 01 0 00 000020 		MOVEI	1,ZZ		;PRELOAD AC1 WITH FLOATING 1
 27621	045302	201 02 0 00 000001 		MOVEI	2,1		;SETUP INDEX REGISTER
 27622	045303	200 03 0 02 000000 		MOVE	3,(2)		;*FWT FROM INDEXED LOCATION
 27623	045304	302 03 0 00 000020 		CAIE	3,ZZ		;TEST INDEXING
 27624						STOP^
 27625	045305	254 04 0 00 045306 		HALT	.+1		;TEST FAILED IF PROGRAM HALTS HERE
 27626	045306	324 00 0 00 045307 		JUMPA	.+1		;IF TEST FAILS, CHANGE THIS INSTRUCTION (JUMPA .+1) TO
 27627									;JUMPA X (X IS THE ADDRESS OF THE FIRST INSTRUCTION
 27628									;IN THE SUBTEST) TO LOOP ON ERROR^
 27629
 27630					;**********
DFKAA PDP-10 KL10 BASIC INSTRUCTION DIAGNOSTIC (1) VER 0,2	MACRO %52(537) 09:34 31-JAN-77 PAGE 7-3
DFKAA4	MAC	25-AUG-75 13:58		TEST OF INDEX REGISTER ADDRESSING                                                  SEQ 0603

 27631
 27632
 27633					;THIS TEST VERIFIES THAT INDEX REGISTER ADDRESSING FUNCTIONS CORRECTLY.
 27634					;IN THIS TEST, A MOVE INSTRUCTION USING INDEXING IS EXECUTED.  THE MOVE INSTRUCTION
 27635					;SHOULD PLACE THE CONTENTS OF THE LOCATION SPECIFIED BY INDEX REGISTER 2 INTO AC3.
 27636					;SINCE INDEX REGISTER 2 WAS PRELOADED WITH A 1 AND AC1 WAS PRELOADED WITH A
 27637					;FLOATING 1.  THE FINAL RESULT IN AC3 SHOULD BE A FLOATING 1.
 27638					;IF C(AC3)=A FLOATING 1, THIS TEST PASSES.
 27639
 27640			001206		SN=SN+1
 27641			000040			ZZ=ZZ+ZZ
 27642						IFE	ZZ,<ZZ=1>
 27643	045307	476 00 0 00 000003 		SETOM	3		;PRELOAD AC3 WITH -1,,-1
 27644	045310	201 01 0 00 000040 		MOVEI	1,ZZ		;PRELOAD AC1 WITH FLOATING 1
 27645	045311	201 02 0 00 000001 		MOVEI	2,1		;SETUP INDEX REGISTER
 27646	045312	200 03 0 02 000000 		MOVE	3,(2)		;*FWT FROM INDEXED LOCATION
 27647	045313	302 03 0 00 000040 		CAIE	3,ZZ		;TEST INDEXING
 27648						STOP^
 27649	045314	254 04 0 00 045315 		HALT	.+1		;TEST FAILED IF PROGRAM HALTS HERE
 27650	045315	324 00 0 00 045316 		JUMPA	.+1		;IF TEST FAILS, CHANGE THIS INSTRUCTION (JUMPA .+1) TO
 27651									;JUMPA X (X IS THE ADDRESS OF THE FIRST INSTRUCTION
 27652									;IN THE SUBTEST) TO LOOP ON ERROR^
 27653
 27654					;**********
 27655
 27656
 27657					;THIS TEST VERIFIES THAT INDEX REGISTER ADDRESSING FUNCTIONS CORRECTLY.
 27658					;IN THIS TEST, A MOVE INSTRUCTION USING INDEXING IS EXECUTED.  THE MOVE INSTRUCTION
 27659					;SHOULD PLACE THE CONTENTS OF THE LOCATION SPECIFIED BY INDEX REGISTER 2 INTO AC3.
 27660					;SINCE INDEX REGISTER 2 WAS PRELOADED WITH A 1 AND AC1 WAS PRELOADED WITH A
 27661					;FLOATING 1.  THE FINAL RESULT IN AC3 SHOULD BE A FLOATING 1.
 27662					;IF C(AC3)=A FLOATING 1, THIS TEST PASSES.
 27663
 27664			001207		SN=SN+1
 27665			000100			ZZ=ZZ+ZZ
 27666						IFE	ZZ,<ZZ=1>
 27667	045316	476 00 0 00 000003 		SETOM	3		;PRELOAD AC3 WITH -1,,-1
 27668	045317	201 01 0 00 000100 		MOVEI	1,ZZ		;PRELOAD AC1 WITH FLOATING 1
 27669	045320	201 02 0 00 000001 		MOVEI	2,1		;SETUP INDEX REGISTER
 27670	045321	200 03 0 02 000000 		MOVE	3,(2)		;*FWT FROM INDEXED LOCATION
 27671	045322	302 03 0 00 000100 		CAIE	3,ZZ		;TEST INDEXING
 27672						STOP^
 27673	045323	254 04 0 00 045324 		HALT	.+1		;TEST FAILED IF PROGRAM HALTS HERE
 27674	045324	324 00 0 00 045325 		JUMPA	.+1		;IF TEST FAILS, CHANGE THIS INSTRUCTION (JUMPA .+1) TO
 27675									;JUMPA X (X IS THE ADDRESS OF THE FIRST INSTRUCTION
 27676									;IN THE SUBTEST) TO LOOP ON ERROR^
 27677
 27678					;**********
 27679
 27680
 27681					;THIS TEST VERIFIES THAT INDEX REGISTER ADDRESSING FUNCTIONS CORRECTLY.
 27682					;IN THIS TEST, A MOVE INSTRUCTION USING INDEXING IS EXECUTED.  THE MOVE INSTRUCTION
 27683					;SHOULD PLACE THE CONTENTS OF THE LOCATION SPECIFIED BY INDEX REGISTER 2 INTO AC3.
 27684					;SINCE INDEX REGISTER 2 WAS PRELOADED WITH A 1 AND AC1 WAS PRELOADED WITH A
 27685					;FLOATING 1.  THE FINAL RESULT IN AC3 SHOULD BE A FLOATING 1.
DFKAA PDP-10 KL10 BASIC INSTRUCTION DIAGNOSTIC (1) VER 0,2	MACRO %52(537) 09:34 31-JAN-77 PAGE 7-4
DFKAA4	MAC	25-AUG-75 13:58		TEST OF INDEX REGISTER ADDRESSING                                                  SEQ 0604

 27686					;IF C(AC3)=A FLOATING 1, THIS TEST PASSES.
 27687
 27688			001210		SN=SN+1
 27689			000200			ZZ=ZZ+ZZ
 27690						IFE	ZZ,<ZZ=1>
 27691	045325	476 00 0 00 000003 		SETOM	3		;PRELOAD AC3 WITH -1,,-1
 27692	045326	201 01 0 00 000200 		MOVEI	1,ZZ		;PRELOAD AC1 WITH FLOATING 1
 27693	045327	201 02 0 00 000001 		MOVEI	2,1		;SETUP INDEX REGISTER
 27694	045330	200 03 0 02 000000 		MOVE	3,(2)		;*FWT FROM INDEXED LOCATION
 27695	045331	302 03 0 00 000200 		CAIE	3,ZZ		;TEST INDEXING
 27696						STOP^
 27697	045332	254 04 0 00 045333 		HALT	.+1		;TEST FAILED IF PROGRAM HALTS HERE
 27698	045333	324 00 0 00 045334 		JUMPA	.+1		;IF TEST FAILS, CHANGE THIS INSTRUCTION (JUMPA .+1) TO
 27699									;JUMPA X (X IS THE ADDRESS OF THE FIRST INSTRUCTION
 27700									;IN THE SUBTEST) TO LOOP ON ERROR^
 27701
 27702					;**********
 27703
 27704
 27705					;THIS TEST VERIFIES THAT INDEX REGISTER ADDRESSING FUNCTIONS CORRECTLY.
 27706					;IN THIS TEST, A MOVE INSTRUCTION USING INDEXING IS EXECUTED.  THE MOVE INSTRUCTION
 27707					;SHOULD PLACE THE CONTENTS OF THE LOCATION SPECIFIED BY INDEX REGISTER 2 INTO AC3.
 27708					;SINCE INDEX REGISTER 2 WAS PRELOADED WITH A 1 AND AC1 WAS PRELOADED WITH A
 27709					;FLOATING 1.  THE FINAL RESULT IN AC3 SHOULD BE A FLOATING 1.
 27710					;IF C(AC3)=A FLOATING 1, THIS TEST PASSES.
 27711
 27712			001211		SN=SN+1
 27713			000400			ZZ=ZZ+ZZ
 27714						IFE	ZZ,<ZZ=1>
 27715	045334	476 00 0 00 000003 		SETOM	3		;PRELOAD AC3 WITH -1,,-1
 27716	045335	201 01 0 00 000400 		MOVEI	1,ZZ		;PRELOAD AC1 WITH FLOATING 1
 27717	045336	201 02 0 00 000001 		MOVEI	2,1		;SETUP INDEX REGISTER
 27718	045337	200 03 0 02 000000 		MOVE	3,(2)		;*FWT FROM INDEXED LOCATION
 27719	045340	302 03 0 00 000400 		CAIE	3,ZZ		;TEST INDEXING
 27720						STOP^
 27721	045341	254 04 0 00 045342 		HALT	.+1		;TEST FAILED IF PROGRAM HALTS HERE
 27722	045342	324 00 0 00 045343 		JUMPA	.+1		;IF TEST FAILS, CHANGE THIS INSTRUCTION (JUMPA .+1) TO
 27723									;JUMPA X (X IS THE ADDRESS OF THE FIRST INSTRUCTION
 27724									;IN THE SUBTEST) TO LOOP ON ERROR^
 27725
 27726					;**********
 27727
 27728
 27729					;THIS TEST VERIFIES THAT INDEX REGISTER ADDRESSING FUNCTIONS CORRECTLY.
 27730					;IN THIS TEST, A MOVE INSTRUCTION USING INDEXING IS EXECUTED.  THE MOVE INSTRUCTION
 27731					;SHOULD PLACE THE CONTENTS OF THE LOCATION SPECIFIED BY INDEX REGISTER 2 INTO AC3.
 27732					;SINCE INDEX REGISTER 2 WAS PRELOADED WITH A 1 AND AC1 WAS PRELOADED WITH A
 27733					;FLOATING 1.  THE FINAL RESULT IN AC3 SHOULD BE A FLOATING 1.
 27734					;IF C(AC3)=A FLOATING 1, THIS TEST PASSES.
 27735
 27736			001212		SN=SN+1
 27737			001000			ZZ=ZZ+ZZ
 27738						IFE	ZZ,<ZZ=1>
 27739	045343	476 00 0 00 000003 		SETOM	3		;PRELOAD AC3 WITH -1,,-1
 27740	045344	201 01 0 00 001000 		MOVEI	1,ZZ		;PRELOAD AC1 WITH FLOATING 1
DFKAA PDP-10 KL10 BASIC INSTRUCTION DIAGNOSTIC (1) VER 0,2	MACRO %52(537) 09:34 31-JAN-77 PAGE 7-5
DFKAA4	MAC	25-AUG-75 13:58		TEST OF INDEX REGISTER ADDRESSING                                                  SEQ 0605

 27741	045345	201 02 0 00 000001 		MOVEI	2,1		;SETUP INDEX REGISTER
 27742	045346	200 03 0 02 000000 		MOVE	3,(2)		;*FWT FROM INDEXED LOCATION
 27743	045347	302 03 0 00 001000 		CAIE	3,ZZ		;TEST INDEXING
 27744						STOP^
 27745	045350	254 04 0 00 045351 		HALT	.+1		;TEST FAILED IF PROGRAM HALTS HERE
 27746	045351	324 00 0 00 045352 		JUMPA	.+1		;IF TEST FAILS, CHANGE THIS INSTRUCTION (JUMPA .+1) TO
 27747									;JUMPA X (X IS THE ADDRESS OF THE FIRST INSTRUCTION
 27748									;IN THE SUBTEST) TO LOOP ON ERROR^
 27749
 27750					;**********
 27751
 27752
 27753					;THIS TEST VERIFIES THAT INDEX REGISTER ADDRESSING FUNCTIONS CORRECTLY.
 27754					;IN THIS TEST, A MOVE INSTRUCTION USING INDEXING IS EXECUTED.  THE MOVE INSTRUCTION
 27755					;SHOULD PLACE THE CONTENTS OF THE LOCATION SPECIFIED BY INDEX REGISTER 2 INTO AC3.
 27756					;SINCE INDEX REGISTER 2 WAS PRELOADED WITH A 1 AND AC1 WAS PRELOADED WITH A
 27757					;FLOATING 1.  THE FINAL RESULT IN AC3 SHOULD BE A FLOATING 1.
 27758					;IF C(AC3)=A FLOATING 1, THIS TEST PASSES.
 27759
 27760			001213		SN=SN+1
 27761			002000			ZZ=ZZ+ZZ
 27762						IFE	ZZ,<ZZ=1>
 27763	045352	476 00 0 00 000003 		SETOM	3		;PRELOAD AC3 WITH -1,,-1
 27764	045353	201 01 0 00 002000 		MOVEI	1,ZZ		;PRELOAD AC1 WITH FLOATING 1
 27765	045354	201 02 0 00 000001 		MOVEI	2,1		;SETUP INDEX REGISTER
 27766	045355	200 03 0 02 000000 		MOVE	3,(2)		;*FWT FROM INDEXED LOCATION
 27767	045356	302 03 0 00 002000 		CAIE	3,ZZ		;TEST INDEXING
 27768						STOP^
 27769	045357	254 04 0 00 045360 		HALT	.+1		;TEST FAILED IF PROGRAM HALTS HERE
 27770	045360	324 00 0 00 045361 		JUMPA	.+1		;IF TEST FAILS, CHANGE THIS INSTRUCTION (JUMPA .+1) TO
 27771									;JUMPA X (X IS THE ADDRESS OF THE FIRST INSTRUCTION
 27772									;IN THE SUBTEST) TO LOOP ON ERROR^
 27773
 27774					;**********
 27775
 27776
 27777					;THIS TEST VERIFIES THAT INDEX REGISTER ADDRESSING FUNCTIONS CORRECTLY.
 27778					;IN THIS TEST, A MOVE INSTRUCTION USING INDEXING IS EXECUTED.  THE MOVE INSTRUCTION
 27779					;SHOULD PLACE THE CONTENTS OF THE LOCATION SPECIFIED BY INDEX REGISTER 2 INTO AC3.
 27780					;SINCE INDEX REGISTER 2 WAS PRELOADED WITH A 1 AND AC1 WAS PRELOADED WITH A
 27781					;FLOATING 1.  THE FINAL RESULT IN AC3 SHOULD BE A FLOATING 1.
 27782					;IF C(AC3)=A FLOATING 1, THIS TEST PASSES.
 27783
 27784			001214		SN=SN+1
 27785			004000			ZZ=ZZ+ZZ
 27786						IFE	ZZ,<ZZ=1>
 27787	045361	476 00 0 00 000003 		SETOM	3		;PRELOAD AC3 WITH -1,,-1
 27788	045362	201 01 0 00 004000 		MOVEI	1,ZZ		;PRELOAD AC1 WITH FLOATING 1
 27789	045363	201 02 0 00 000001 		MOVEI	2,1		;SETUP INDEX REGISTER
 27790	045364	200 03 0 02 000000 		MOVE	3,(2)		;*FWT FROM INDEXED LOCATION
 27791	045365	302 03 0 00 004000 		CAIE	3,ZZ		;TEST INDEXING
 27792						STOP^
 27793	045366	254 04 0 00 045367 		HALT	.+1		;TEST FAILED IF PROGRAM HALTS HERE
 27794	045367	324 00 0 00 045370 		JUMPA	.+1		;IF TEST FAILS, CHANGE THIS INSTRUCTION (JUMPA .+1) TO
 27795									;JUMPA X (X IS THE ADDRESS OF THE FIRST INSTRUCTION
DFKAA PDP-10 KL10 BASIC INSTRUCTION DIAGNOSTIC (1) VER 0,2	MACRO %52(537) 09:34 31-JAN-77 PAGE 7-6
DFKAA4	MAC	25-AUG-75 13:58		TEST OF INDEX REGISTER ADDRESSING                                                  SEQ 0606

 27796									;IN THE SUBTEST) TO LOOP ON ERROR^
 27797
 27798					;**********
 27799
 27800
 27801					;THIS TEST VERIFIES THAT INDEX REGISTER ADDRESSING FUNCTIONS CORRECTLY.
 27802					;IN THIS TEST, A MOVE INSTRUCTION USING INDEXING IS EXECUTED.  THE MOVE INSTRUCTION
 27803					;SHOULD PLACE THE CONTENTS OF THE LOCATION SPECIFIED BY INDEX REGISTER 2 INTO AC3.
 27804					;SINCE INDEX REGISTER 2 WAS PRELOADED WITH A 1 AND AC1 WAS PRELOADED WITH A
 27805					;FLOATING 1.  THE FINAL RESULT IN AC3 SHOULD BE A FLOATING 1.
 27806					;IF C(AC3)=A FLOATING 1, THIS TEST PASSES.
 27807
 27808			001215		SN=SN+1
 27809			010000			ZZ=ZZ+ZZ
 27810						IFE	ZZ,<ZZ=1>
 27811	045370	476 00 0 00 000003 		SETOM	3		;PRELOAD AC3 WITH -1,,-1
 27812	045371	201 01 0 00 010000 		MOVEI	1,ZZ		;PRELOAD AC1 WITH FLOATING 1
 27813	045372	201 02 0 00 000001 		MOVEI	2,1		;SETUP INDEX REGISTER
 27814	045373	200 03 0 02 000000 		MOVE	3,(2)		;*FWT FROM INDEXED LOCATION
 27815	045374	302 03 0 00 010000 		CAIE	3,ZZ		;TEST INDEXING
 27816						STOP^
 27817	045375	254 04 0 00 045376 		HALT	.+1		;TEST FAILED IF PROGRAM HALTS HERE
 27818	045376	324 00 0 00 045377 		JUMPA	.+1		;IF TEST FAILS, CHANGE THIS INSTRUCTION (JUMPA .+1) TO
 27819									;JUMPA X (X IS THE ADDRESS OF THE FIRST INSTRUCTION
 27820									;IN THE SUBTEST) TO LOOP ON ERROR^
 27821
 27822					;**********
 27823
 27824
 27825					;THIS TEST VERIFIES THAT INDEX REGISTER ADDRESSING FUNCTIONS CORRECTLY.
 27826					;IN THIS TEST, A MOVE INSTRUCTION USING INDEXING IS EXECUTED.  THE MOVE INSTRUCTION
 27827					;SHOULD PLACE THE CONTENTS OF THE LOCATION SPECIFIED BY INDEX REGISTER 2 INTO AC3.
 27828					;SINCE INDEX REGISTER 2 WAS PRELOADED WITH A 1 AND AC1 WAS PRELOADED WITH A
 27829					;FLOATING 1.  THE FINAL RESULT IN AC3 SHOULD BE A FLOATING 1.
 27830					;IF C(AC3)=A FLOATING 1, THIS TEST PASSES.
 27831
 27832			001216		SN=SN+1
 27833			020000			ZZ=ZZ+ZZ
 27834						IFE	ZZ,<ZZ=1>
 27835	045377	476 00 0 00 000003 		SETOM	3		;PRELOAD AC3 WITH -1,,-1
 27836	045400	201 01 0 00 020000 		MOVEI	1,ZZ		;PRELOAD AC1 WITH FLOATING 1
 27837	045401	201 02 0 00 000001 		MOVEI	2,1		;SETUP INDEX REGISTER
 27838	045402	200 03 0 02 000000 		MOVE	3,(2)		;*FWT FROM INDEXED LOCATION
 27839	045403	302 03 0 00 020000 		CAIE	3,ZZ		;TEST INDEXING
 27840						STOP^
 27841	045404	254 04 0 00 045405 		HALT	.+1		;TEST FAILED IF PROGRAM HALTS HERE
 27842	045405	324 00 0 00 045406 		JUMPA	.+1		;IF TEST FAILS, CHANGE THIS INSTRUCTION (JUMPA .+1) TO
 27843									;JUMPA X (X IS THE ADDRESS OF THE FIRST INSTRUCTION
 27844									;IN THE SUBTEST) TO LOOP ON ERROR^
 27845
 27846					;**********
 27847
 27848
 27849					;THIS TEST VERIFIES THAT INDEX REGISTER ADDRESSING FUNCTIONS CORRECTLY.
 27850					;IN THIS TEST, A MOVE INSTRUCTION USING INDEXING IS EXECUTED.  THE MOVE INSTRUCTION
DFKAA PDP-10 KL10 BASIC INSTRUCTION DIAGNOSTIC (1) VER 0,2	MACRO %52(537) 09:34 31-JAN-77 PAGE 7-7
DFKAA4	MAC	25-AUG-75 13:58		TEST OF INDEX REGISTER ADDRESSING                                                  SEQ 0607

 27851					;SHOULD PLACE THE CONTENTS OF THE LOCATION SPECIFIED BY INDEX REGISTER 2 INTO AC3.
 27852					;SINCE INDEX REGISTER 2 WAS PRELOADED WITH A 1 AND AC1 WAS PRELOADED WITH A
 27853					;FLOATING 1.  THE FINAL RESULT IN AC3 SHOULD BE A FLOATING 1.
 27854					;IF C(AC3)=A FLOATING 1, THIS TEST PASSES.
 27855
 27856			001217		SN=SN+1
 27857			040000			ZZ=ZZ+ZZ
 27858						IFE	ZZ,<ZZ=1>
 27859	045406	476 00 0 00 000003 		SETOM	3		;PRELOAD AC3 WITH -1,,-1
 27860	045407	201 01 0 00 040000 		MOVEI	1,ZZ		;PRELOAD AC1 WITH FLOATING 1
 27861	045410	201 02 0 00 000001 		MOVEI	2,1		;SETUP INDEX REGISTER
 27862	045411	200 03 0 02 000000 		MOVE	3,(2)		;*FWT FROM INDEXED LOCATION
 27863	045412	302 03 0 00 040000 		CAIE	3,ZZ		;TEST INDEXING
 27864						STOP^
 27865	045413	254 04 0 00 045414 		HALT	.+1		;TEST FAILED IF PROGRAM HALTS HERE
 27866	045414	324 00 0 00 045415 		JUMPA	.+1		;IF TEST FAILS, CHANGE THIS INSTRUCTION (JUMPA .+1) TO
 27867									;JUMPA X (X IS THE ADDRESS OF THE FIRST INSTRUCTION
 27868									;IN THE SUBTEST) TO LOOP ON ERROR^
 27869
 27870					;**********
 27871
 27872
 27873					;THIS TEST VERIFIES THAT INDEX REGISTER ADDRESSING FUNCTIONS CORRECTLY.
 27874					;IN THIS TEST, A MOVE INSTRUCTION USING INDEXING IS EXECUTED.  THE MOVE INSTRUCTION
 27875					;SHOULD PLACE THE CONTENTS OF THE LOCATION SPECIFIED BY INDEX REGISTER 2 INTO AC3.
 27876					;SINCE INDEX REGISTER 2 WAS PRELOADED WITH A 1 AND AC1 WAS PRELOADED WITH A
 27877					;FLOATING 1.  THE FINAL RESULT IN AC3 SHOULD BE A FLOATING 1.
 27878					;IF C(AC3)=A FLOATING 1, THIS TEST PASSES.
 27879
 27880			001220		SN=SN+1
 27881			100000			ZZ=ZZ+ZZ
 27882						IFE	ZZ,<ZZ=1>
 27883	045415	476 00 0 00 000003 		SETOM	3		;PRELOAD AC3 WITH -1,,-1
 27884	045416	201 01 0 00 100000 		MOVEI	1,ZZ		;PRELOAD AC1 WITH FLOATING 1
 27885	045417	201 02 0 00 000001 		MOVEI	2,1		;SETUP INDEX REGISTER
 27886	045420	200 03 0 02 000000 		MOVE	3,(2)		;*FWT FROM INDEXED LOCATION
 27887	045421	302 03 0 00 100000 		CAIE	3,ZZ		;TEST INDEXING
 27888						STOP^
 27889	045422	254 04 0 00 045423 		HALT	.+1		;TEST FAILED IF PROGRAM HALTS HERE
 27890	045423	324 00 0 00 045424 		JUMPA	.+1		;IF TEST FAILS, CHANGE THIS INSTRUCTION (JUMPA .+1) TO
 27891									;JUMPA X (X IS THE ADDRESS OF THE FIRST INSTRUCTION
 27892									;IN THE SUBTEST) TO LOOP ON ERROR^
 27893
 27894					;**********
 27895
 27896
 27897					;THIS TEST VERIFIES THAT INDEX REGISTER ADDRESSING FUNCTIONS CORRECTLY.
 27898					;IN THIS TEST, A MOVE INSTRUCTION USING INDEXING IS EXECUTED.  THE MOVE INSTRUCTION
 27899					;SHOULD PLACE THE CONTENTS OF THE LOCATION SPECIFIED BY INDEX REGISTER 2 INTO AC3.
 27900					;SINCE INDEX REGISTER 2 WAS PRELOADED WITH A 1 AND AC1 WAS PRELOADED WITH A
 27901					;FLOATING 1.  THE FINAL RESULT IN AC3 SHOULD BE A FLOATING 1.
 27902					;IF C(AC3)=A FLOATING 1, THIS TEST PASSES.
 27903
 27904			001221		SN=SN+1
 27905			200000			ZZ=ZZ+ZZ
DFKAA PDP-10 KL10 BASIC INSTRUCTION DIAGNOSTIC (1) VER 0,2	MACRO %52(537) 09:34 31-JAN-77 PAGE 7-8
DFKAA4	MAC	25-AUG-75 13:58		TEST OF INDEX REGISTER ADDRESSING                                                  SEQ 0608

 27906						IFE	ZZ,<ZZ=1>
 27907	045424	476 00 0 00 000003 		SETOM	3		;PRELOAD AC3 WITH -1,,-1
 27908	045425	201 01 0 00 200000 		MOVEI	1,ZZ		;PRELOAD AC1 WITH FLOATING 1
 27909	045426	201 02 0 00 000001 		MOVEI	2,1		;SETUP INDEX REGISTER
 27910	045427	200 03 0 02 000000 		MOVE	3,(2)		;*FWT FROM INDEXED LOCATION
 27911	045430	302 03 0 00 200000 		CAIE	3,ZZ		;TEST INDEXING
 27912						STOP^
 27913	045431	254 04 0 00 045432 		HALT	.+1		;TEST FAILED IF PROGRAM HALTS HERE
 27914	045432	324 00 0 00 045433 		JUMPA	.+1		;IF TEST FAILS, CHANGE THIS INSTRUCTION (JUMPA .+1) TO
 27915									;JUMPA X (X IS THE ADDRESS OF THE FIRST INSTRUCTION
 27916									;IN THE SUBTEST) TO LOOP ON ERROR^
 27917
 27918					;**********
 27919
 27920
 27921					;THIS TEST VERIFIES THAT INDEX REGISTER ADDRESSING FUNCTIONS CORRECTLY.
 27922					;IN THIS TEST, A MOVE INSTRUCTION USING INDEXING IS EXECUTED.  THE MOVE INSTRUCTION
 27923					;SHOULD PLACE THE CONTENTS OF THE LOCATION SPECIFIED BY INDEX REGISTER 2 INTO AC3.
 27924					;SINCE INDEX REGISTER 2 WAS PRELOADED WITH A 1 AND AC1 WAS PRELOADED WITH A
 27925					;FLOATING 1.  THE FINAL RESULT IN AC3 SHOULD BE A FLOATING 1.
 27926					;IF C(AC3)=A FLOATING 1, THIS TEST PASSES.
 27927
 27928			001222		SN=SN+1
 27929			400000			ZZ=ZZ+ZZ
 27930						IFE	ZZ,<ZZ=1>
 27931	045433	476 00 0 00 000003 		SETOM	3		;PRELOAD AC3 WITH -1,,-1
 27932	045434	201 01 0 00 400000 		MOVEI	1,ZZ		;PRELOAD AC1 WITH FLOATING 1
 27933	045435	201 02 0 00 000001 		MOVEI	2,1		;SETUP INDEX REGISTER
 27934	045436	200 03 0 02 000000 		MOVE	3,(2)		;*FWT FROM INDEXED LOCATION
 27935	045437	302 03 0 00 400000 		CAIE	3,ZZ		;TEST INDEXING
 27936						STOP^
 27937	045440	254 04 0 00 045441 		HALT	.+1		;TEST FAILED IF PROGRAM HALTS HERE
 27938	045441	324 00 0 00 045442 		JUMPA	.+1		;IF TEST FAILS, CHANGE THIS INSTRUCTION (JUMPA .+1) TO
 27939									;JUMPA X (X IS THE ADDRESS OF THE FIRST INSTRUCTION
 27940									;IN THE SUBTEST) TO LOOP ON ERROR^
 27941
 27942					;**********
 27943
DFKAA PDP-10 KL10 BASIC INSTRUCTION DIAGNOSTIC (1) VER 0,2	MACRO %52(537) 09:34 31-JAN-77 PAGE 8
DFKAA4	MAC	25-AUG-75 13:58		TEST OF INDEX REGISTER ADDRESSING                                                  SEQ 0609

 27944			001300		SN=1300
 27945			000000			ZZ=0
 27946
 27947					C1300:	REPEAT	^D18,<
 27948					;THIS TEST VERIFIES THAT INDEX REGISTER ADDRESSING FUNCTIONS CORRECTLY.
 27949					;IN THIS TEST, A MOVE INSTRUCTION USING INDEXING IS EXECUTED.  THE MOVE INSTRUCTION
 27950					;SHOULD PLACE THE CONTENTS OF THE LOCATION SPECIFIED BY INDEX REGISTER 2 INTO AC3.
 27951					;SINCE INDEX REGISTER 2 WAS PRELOADED WITH A 1 AND AC1 WAS PRELOADED WITH A
 27952					;FLOATING 1, THE FINAL RESULT IN AC3 SHOULD BE A FLOATING 1.
 27953					;IF C(AC3)=A FLOATING 1, THIS TEST PASSES.
 27954
 27955					SN=SN+1
 27956						ZZ=ZZ+ZZ
 27957						IFE	ZZ,<ZZ=1>
 27958						SETOM	3		;PRELOAD AC3 WITH -1,,-1
 27959						MOVSI	1,ZZ		;PRELOAD AC1 WITH FLOATING 1
 27960						MOVEI	2,1		;SETUP INDEX REGISTER
 27961						MOVE	3,(2)		;*FWT FROM INDEXED LOCATION
 27962						CAME	3,[ZZ,,0]	;TEST INDEXING
 27963						STOP
 27964
 27965					;**********
 27966					>
 27967
 27968					;THIS TEST VERIFIES THAT INDEX REGISTER ADDRESSING FUNCTIONS CORRECTLY.
 27969					;IN THIS TEST, A MOVE INSTRUCTION USING INDEXING IS EXECUTED.  THE MOVE INSTRUCTION
 27970					;SHOULD PLACE THE CONTENTS OF THE LOCATION SPECIFIED BY INDEX REGISTER 2 INTO AC3.
 27971					;SINCE INDEX REGISTER 2 WAS PRELOADED WITH A 1 AND AC1 WAS PRELOADED WITH A
 27972					;FLOATING 1, THE FINAL RESULT IN AC3 SHOULD BE A FLOATING 1.
 27973					;IF C(AC3)=A FLOATING 1, THIS TEST PASSES.
 27974
 27975			001301		SN=SN+1
 27976			000000			ZZ=ZZ+ZZ
 27977			000001			IFE	ZZ,<ZZ=1>
 27978	045442	476 00 0 00 000003 		SETOM	3		;PRELOAD AC3 WITH -1,,-1
 27979	045443	205 01 0 00 000001 		MOVSI	1,ZZ		;PRELOAD AC1 WITH FLOATING 1
 27980	045444	201 02 0 00 000001 		MOVEI	2,1		;SETUP INDEX REGISTER
 27981	045445	200 03 0 02 000000 		MOVE	3,(2)		;*FWT FROM INDEXED LOCATION
 27982	045446	312 03 0 00 070307 		CAME	3,[ZZ,,0]	;TEST INDEXING
 27983						STOP^
 27984	045447	254 04 0 00 045450 		HALT	.+1		;TEST FAILED IF PROGRAM HALTS HERE
 27985	045450	324 00 0 00 045451 		JUMPA	.+1		;IF TEST FAILS, CHANGE THIS INSTRUCTION (JUMPA .+1) TO
 27986									;JUMPA X (X IS THE ADDRESS OF THE FIRST INSTRUCTION
 27987									;IN THE SUBTEST) TO LOOP ON ERROR^
 27988
 27989					;**********
 27990
 27991
 27992					;THIS TEST VERIFIES THAT INDEX REGISTER ADDRESSING FUNCTIONS CORRECTLY.
 27993					;IN THIS TEST, A MOVE INSTRUCTION USING INDEXING IS EXECUTED.  THE MOVE INSTRUCTION
 27994					;SHOULD PLACE THE CONTENTS OF THE LOCATION SPECIFIED BY INDEX REGISTER 2 INTO AC3.
 27995					;SINCE INDEX REGISTER 2 WAS PRELOADED WITH A 1 AND AC1 WAS PRELOADED WITH A
 27996					;FLOATING 1, THE FINAL RESULT IN AC3 SHOULD BE A FLOATING 1.
 27997					;IF C(AC3)=A FLOATING 1, THIS TEST PASSES.
 27998
DFKAA PDP-10 KL10 BASIC INSTRUCTION DIAGNOSTIC (1) VER 0,2	MACRO %52(537) 09:34 31-JAN-77 PAGE 8-1
DFKAA4	MAC	25-AUG-75 13:58		TEST OF INDEX REGISTER ADDRESSING                                                  SEQ 0610

 27999			001302		SN=SN+1
 28000			000002			ZZ=ZZ+ZZ
 28001						IFE	ZZ,<ZZ=1>
 28002	045451	476 00 0 00 000003 		SETOM	3		;PRELOAD AC3 WITH -1,,-1
 28003	045452	205 01 0 00 000002 		MOVSI	1,ZZ		;PRELOAD AC1 WITH FLOATING 1
 28004	045453	201 02 0 00 000001 		MOVEI	2,1		;SETUP INDEX REGISTER
 28005	045454	200 03 0 02 000000 		MOVE	3,(2)		;*FWT FROM INDEXED LOCATION
 28006	045455	312 03 0 00 070310 		CAME	3,[ZZ,,0]	;TEST INDEXING
 28007						STOP^
 28008	045456	254 04 0 00 045457 		HALT	.+1		;TEST FAILED IF PROGRAM HALTS HERE
 28009	045457	324 00 0 00 045460 		JUMPA	.+1		;IF TEST FAILS, CHANGE THIS INSTRUCTION (JUMPA .+1) TO
 28010									;JUMPA X (X IS THE ADDRESS OF THE FIRST INSTRUCTION
 28011									;IN THE SUBTEST) TO LOOP ON ERROR^
 28012
 28013					;**********
 28014
 28015
 28016					;THIS TEST VERIFIES THAT INDEX REGISTER ADDRESSING FUNCTIONS CORRECTLY.
 28017					;IN THIS TEST, A MOVE INSTRUCTION USING INDEXING IS EXECUTED.  THE MOVE INSTRUCTION
 28018					;SHOULD PLACE THE CONTENTS OF THE LOCATION SPECIFIED BY INDEX REGISTER 2 INTO AC3.
 28019					;SINCE INDEX REGISTER 2 WAS PRELOADED WITH A 1 AND AC1 WAS PRELOADED WITH A
 28020					;FLOATING 1, THE FINAL RESULT IN AC3 SHOULD BE A FLOATING 1.
 28021					;IF C(AC3)=A FLOATING 1, THIS TEST PASSES.
 28022
 28023			001303		SN=SN+1
 28024			000004			ZZ=ZZ+ZZ
 28025						IFE	ZZ,<ZZ=1>
 28026	045460	476 00 0 00 000003 		SETOM	3		;PRELOAD AC3 WITH -1,,-1
 28027	045461	205 01 0 00 000004 		MOVSI	1,ZZ		;PRELOAD AC1 WITH FLOATING 1
 28028	045462	201 02 0 00 000001 		MOVEI	2,1		;SETUP INDEX REGISTER
 28029	045463	200 03 0 02 000000 		MOVE	3,(2)		;*FWT FROM INDEXED LOCATION
 28030	045464	312 03 0 00 070311 		CAME	3,[ZZ,,0]	;TEST INDEXING
 28031						STOP^
 28032	045465	254 04 0 00 045466 		HALT	.+1		;TEST FAILED IF PROGRAM HALTS HERE
 28033	045466	324 00 0 00 045467 		JUMPA	.+1		;IF TEST FAILS, CHANGE THIS INSTRUCTION (JUMPA .+1) TO
 28034									;JUMPA X (X IS THE ADDRESS OF THE FIRST INSTRUCTION
 28035									;IN THE SUBTEST) TO LOOP ON ERROR^
 28036
 28037					;**********
 28038
 28039
 28040					;THIS TEST VERIFIES THAT INDEX REGISTER ADDRESSING FUNCTIONS CORRECTLY.
 28041					;IN THIS TEST, A MOVE INSTRUCTION USING INDEXING IS EXECUTED.  THE MOVE INSTRUCTION
 28042					;SHOULD PLACE THE CONTENTS OF THE LOCATION SPECIFIED BY INDEX REGISTER 2 INTO AC3.
 28043					;SINCE INDEX REGISTER 2 WAS PRELOADED WITH A 1 AND AC1 WAS PRELOADED WITH A
 28044					;FLOATING 1, THE FINAL RESULT IN AC3 SHOULD BE A FLOATING 1.
 28045					;IF C(AC3)=A FLOATING 1, THIS TEST PASSES.
 28046
 28047			001304		SN=SN+1
 28048			000010			ZZ=ZZ+ZZ
 28049						IFE	ZZ,<ZZ=1>
 28050	045467	476 00 0 00 000003 		SETOM	3		;PRELOAD AC3 WITH -1,,-1
 28051	045470	205 01 0 00 000010 		MOVSI	1,ZZ		;PRELOAD AC1 WITH FLOATING 1
 28052	045471	201 02 0 00 000001 		MOVEI	2,1		;SETUP INDEX REGISTER
 28053	045472	200 03 0 02 000000 		MOVE	3,(2)		;*FWT FROM INDEXED LOCATION
DFKAA PDP-10 KL10 BASIC INSTRUCTION DIAGNOSTIC (1) VER 0,2	MACRO %52(537) 09:34 31-JAN-77 PAGE 8-2
DFKAA4	MAC	25-AUG-75 13:58		TEST OF INDEX REGISTER ADDRESSING                                                  SEQ 0611

 28054	045473	312 03 0 00 070312 		CAME	3,[ZZ,,0]	;TEST INDEXING
 28055						STOP^
 28056	045474	254 04 0 00 045475 		HALT	.+1		;TEST FAILED IF PROGRAM HALTS HERE
 28057	045475	324 00 0 00 045476 		JUMPA	.+1		;IF TEST FAILS, CHANGE THIS INSTRUCTION (JUMPA .+1) TO
 28058									;JUMPA X (X IS THE ADDRESS OF THE FIRST INSTRUCTION
 28059									;IN THE SUBTEST) TO LOOP ON ERROR^
 28060
 28061					;**********
 28062
 28063
 28064					;THIS TEST VERIFIES THAT INDEX REGISTER ADDRESSING FUNCTIONS CORRECTLY.
 28065					;IN THIS TEST, A MOVE INSTRUCTION USING INDEXING IS EXECUTED.  THE MOVE INSTRUCTION
 28066					;SHOULD PLACE THE CONTENTS OF THE LOCATION SPECIFIED BY INDEX REGISTER 2 INTO AC3.
 28067					;SINCE INDEX REGISTER 2 WAS PRELOADED WITH A 1 AND AC1 WAS PRELOADED WITH A
 28068					;FLOATING 1, THE FINAL RESULT IN AC3 SHOULD BE A FLOATING 1.
 28069					;IF C(AC3)=A FLOATING 1, THIS TEST PASSES.
 28070
 28071			001305		SN=SN+1
 28072			000020			ZZ=ZZ+ZZ
 28073						IFE	ZZ,<ZZ=1>
 28074	045476	476 00 0 00 000003 		SETOM	3		;PRELOAD AC3 WITH -1,,-1
 28075	045477	205 01 0 00 000020 		MOVSI	1,ZZ		;PRELOAD AC1 WITH FLOATING 1
 28076	045500	201 02 0 00 000001 		MOVEI	2,1		;SETUP INDEX REGISTER
 28077	045501	200 03 0 02 000000 		MOVE	3,(2)		;*FWT FROM INDEXED LOCATION
 28078	045502	312 03 0 00 070313 		CAME	3,[ZZ,,0]	;TEST INDEXING
 28079						STOP^
 28080	045503	254 04 0 00 045504 		HALT	.+1		;TEST FAILED IF PROGRAM HALTS HERE
 28081	045504	324 00 0 00 045505 		JUMPA	.+1		;IF TEST FAILS, CHANGE THIS INSTRUCTION (JUMPA .+1) TO
 28082									;JUMPA X (X IS THE ADDRESS OF THE FIRST INSTRUCTION
 28083									;IN THE SUBTEST) TO LOOP ON ERROR^
 28084
 28085					;**********
 28086
 28087
 28088					;THIS TEST VERIFIES THAT INDEX REGISTER ADDRESSING FUNCTIONS CORRECTLY.
 28089					;IN THIS TEST, A MOVE INSTRUCTION USING INDEXING IS EXECUTED.  THE MOVE INSTRUCTION
 28090					;SHOULD PLACE THE CONTENTS OF THE LOCATION SPECIFIED BY INDEX REGISTER 2 INTO AC3.
 28091					;SINCE INDEX REGISTER 2 WAS PRELOADED WITH A 1 AND AC1 WAS PRELOADED WITH A
 28092					;FLOATING 1, THE FINAL RESULT IN AC3 SHOULD BE A FLOATING 1.
 28093					;IF C(AC3)=A FLOATING 1, THIS TEST PASSES.
 28094
 28095			001306		SN=SN+1
 28096			000040			ZZ=ZZ+ZZ
 28097						IFE	ZZ,<ZZ=1>
 28098	045505	476 00 0 00 000003 		SETOM	3		;PRELOAD AC3 WITH -1,,-1
 28099	045506	205 01 0 00 000040 		MOVSI	1,ZZ		;PRELOAD AC1 WITH FLOATING 1
 28100	045507	201 02 0 00 000001 		MOVEI	2,1		;SETUP INDEX REGISTER
 28101	045510	200 03 0 02 000000 		MOVE	3,(2)		;*FWT FROM INDEXED LOCATION
 28102	045511	312 03 0 00 070314 		CAME	3,[ZZ,,0]	;TEST INDEXING
 28103						STOP^
 28104	045512	254 04 0 00 045513 		HALT	.+1		;TEST FAILED IF PROGRAM HALTS HERE
 28105	045513	324 00 0 00 045514 		JUMPA	.+1		;IF TEST FAILS, CHANGE THIS INSTRUCTION (JUMPA .+1) TO
 28106									;JUMPA X (X IS THE ADDRESS OF THE FIRST INSTRUCTION
 28107									;IN THE SUBTEST) TO LOOP ON ERROR^
 28108
DFKAA PDP-10 KL10 BASIC INSTRUCTION DIAGNOSTIC (1) VER 0,2	MACRO %52(537) 09:34 31-JAN-77 PAGE 8-3
DFKAA4	MAC	25-AUG-75 13:58		TEST OF INDEX REGISTER ADDRESSING                                                  SEQ 0612

 28109					;**********
 28110
 28111
 28112					;THIS TEST VERIFIES THAT INDEX REGISTER ADDRESSING FUNCTIONS CORRECTLY.
 28113					;IN THIS TEST, A MOVE INSTRUCTION USING INDEXING IS EXECUTED.  THE MOVE INSTRUCTION
 28114					;SHOULD PLACE THE CONTENTS OF THE LOCATION SPECIFIED BY INDEX REGISTER 2 INTO AC3.
 28115					;SINCE INDEX REGISTER 2 WAS PRELOADED WITH A 1 AND AC1 WAS PRELOADED WITH A
 28116					;FLOATING 1, THE FINAL RESULT IN AC3 SHOULD BE A FLOATING 1.
 28117					;IF C(AC3)=A FLOATING 1, THIS TEST PASSES.
 28118
 28119			001307		SN=SN+1
 28120			000100			ZZ=ZZ+ZZ
 28121						IFE	ZZ,<ZZ=1>
 28122	045514	476 00 0 00 000003 		SETOM	3		;PRELOAD AC3 WITH -1,,-1
 28123	045515	205 01 0 00 000100 		MOVSI	1,ZZ		;PRELOAD AC1 WITH FLOATING 1
 28124	045516	201 02 0 00 000001 		MOVEI	2,1		;SETUP INDEX REGISTER
 28125	045517	200 03 0 02 000000 		MOVE	3,(2)		;*FWT FROM INDEXED LOCATION
 28126	045520	312 03 0 00 070315 		CAME	3,[ZZ,,0]	;TEST INDEXING
 28127						STOP^
 28128	045521	254 04 0 00 045522 		HALT	.+1		;TEST FAILED IF PROGRAM HALTS HERE
 28129	045522	324 00 0 00 045523 		JUMPA	.+1		;IF TEST FAILS, CHANGE THIS INSTRUCTION (JUMPA .+1) TO
 28130									;JUMPA X (X IS THE ADDRESS OF THE FIRST INSTRUCTION
 28131									;IN THE SUBTEST) TO LOOP ON ERROR^
 28132
 28133					;**********
 28134
 28135
 28136					;THIS TEST VERIFIES THAT INDEX REGISTER ADDRESSING FUNCTIONS CORRECTLY.
 28137					;IN THIS TEST, A MOVE INSTRUCTION USING INDEXING IS EXECUTED.  THE MOVE INSTRUCTION
 28138					;SHOULD PLACE THE CONTENTS OF THE LOCATION SPECIFIED BY INDEX REGISTER 2 INTO AC3.
 28139					;SINCE INDEX REGISTER 2 WAS PRELOADED WITH A 1 AND AC1 WAS PRELOADED WITH A
 28140					;FLOATING 1, THE FINAL RESULT IN AC3 SHOULD BE A FLOATING 1.
 28141					;IF C(AC3)=A FLOATING 1, THIS TEST PASSES.
 28142
 28143			001310		SN=SN+1
 28144			000200			ZZ=ZZ+ZZ
 28145						IFE	ZZ,<ZZ=1>
 28146	045523	476 00 0 00 000003 		SETOM	3		;PRELOAD AC3 WITH -1,,-1
 28147	045524	205 01 0 00 000200 		MOVSI	1,ZZ		;PRELOAD AC1 WITH FLOATING 1
 28148	045525	201 02 0 00 000001 		MOVEI	2,1		;SETUP INDEX REGISTER
 28149	045526	200 03 0 02 000000 		MOVE	3,(2)		;*FWT FROM INDEXED LOCATION
 28150	045527	312 03 0 00 070316 		CAME	3,[ZZ,,0]	;TEST INDEXING
 28151						STOP^
 28152	045530	254 04 0 00 045531 		HALT	.+1		;TEST FAILED IF PROGRAM HALTS HERE
 28153	045531	324 00 0 00 045532 		JUMPA	.+1		;IF TEST FAILS, CHANGE THIS INSTRUCTION (JUMPA .+1) TO
 28154									;JUMPA X (X IS THE ADDRESS OF THE FIRST INSTRUCTION
 28155									;IN THE SUBTEST) TO LOOP ON ERROR^
 28156
 28157					;**********
 28158
 28159
 28160					;THIS TEST VERIFIES THAT INDEX REGISTER ADDRESSING FUNCTIONS CORRECTLY.
 28161					;IN THIS TEST, A MOVE INSTRUCTION USING INDEXING IS EXECUTED.  THE MOVE INSTRUCTION
 28162					;SHOULD PLACE THE CONTENTS OF THE LOCATION SPECIFIED BY INDEX REGISTER 2 INTO AC3.
 28163					;SINCE INDEX REGISTER 2 WAS PRELOADED WITH A 1 AND AC1 WAS PRELOADED WITH A
DFKAA PDP-10 KL10 BASIC INSTRUCTION DIAGNOSTIC (1) VER 0,2	MACRO %52(537) 09:34 31-JAN-77 PAGE 8-4
DFKAA4	MAC	25-AUG-75 13:58		TEST OF INDEX REGISTER ADDRESSING                                                  SEQ 0613

 28164					;FLOATING 1, THE FINAL RESULT IN AC3 SHOULD BE A FLOATING 1.
 28165					;IF C(AC3)=A FLOATING 1, THIS TEST PASSES.
 28166
 28167			001311		SN=SN+1
 28168			000400			ZZ=ZZ+ZZ
 28169						IFE	ZZ,<ZZ=1>
 28170	045532	476 00 0 00 000003 		SETOM	3		;PRELOAD AC3 WITH -1,,-1
 28171	045533	205 01 0 00 000400 		MOVSI	1,ZZ		;PRELOAD AC1 WITH FLOATING 1
 28172	045534	201 02 0 00 000001 		MOVEI	2,1		;SETUP INDEX REGISTER
 28173	045535	200 03 0 02 000000 		MOVE	3,(2)		;*FWT FROM INDEXED LOCATION
 28174	045536	312 03 0 00 070264 		CAME	3,[ZZ,,0]	;TEST INDEXING
 28175						STOP^
 28176	045537	254 04 0 00 045540 		HALT	.+1		;TEST FAILED IF PROGRAM HALTS HERE
 28177	045540	324 00 0 00 045541 		JUMPA	.+1		;IF TEST FAILS, CHANGE THIS INSTRUCTION (JUMPA .+1) TO
 28178									;JUMPA X (X IS THE ADDRESS OF THE FIRST INSTRUCTION
 28179									;IN THE SUBTEST) TO LOOP ON ERROR^
 28180
 28181					;**********
 28182
 28183
 28184					;THIS TEST VERIFIES THAT INDEX REGISTER ADDRESSING FUNCTIONS CORRECTLY.
 28185					;IN THIS TEST, A MOVE INSTRUCTION USING INDEXING IS EXECUTED.  THE MOVE INSTRUCTION
 28186					;SHOULD PLACE THE CONTENTS OF THE LOCATION SPECIFIED BY INDEX REGISTER 2 INTO AC3.
 28187					;SINCE INDEX REGISTER 2 WAS PRELOADED WITH A 1 AND AC1 WAS PRELOADED WITH A
 28188					;FLOATING 1, THE FINAL RESULT IN AC3 SHOULD BE A FLOATING 1.
 28189					;IF C(AC3)=A FLOATING 1, THIS TEST PASSES.
 28190
 28191			001312		SN=SN+1
 28192			001000			ZZ=ZZ+ZZ
 28193						IFE	ZZ,<ZZ=1>
 28194	045541	476 00 0 00 000003 		SETOM	3		;PRELOAD AC3 WITH -1,,-1
 28195	045542	205 01 0 00 001000 		MOVSI	1,ZZ		;PRELOAD AC1 WITH FLOATING 1
 28196	045543	201 02 0 00 000001 		MOVEI	2,1		;SETUP INDEX REGISTER
 28197	045544	200 03 0 02 000000 		MOVE	3,(2)		;*FWT FROM INDEXED LOCATION
 28198	045545	312 03 0 00 070317 		CAME	3,[ZZ,,0]	;TEST INDEXING
 28199						STOP^
 28200	045546	254 04 0 00 045547 		HALT	.+1		;TEST FAILED IF PROGRAM HALTS HERE
 28201	045547	324 00 0 00 045550 		JUMPA	.+1		;IF TEST FAILS, CHANGE THIS INSTRUCTION (JUMPA .+1) TO
 28202									;JUMPA X (X IS THE ADDRESS OF THE FIRST INSTRUCTION
 28203									;IN THE SUBTEST) TO LOOP ON ERROR^
 28204
 28205					;**********
 28206
 28207
 28208					;THIS TEST VERIFIES THAT INDEX REGISTER ADDRESSING FUNCTIONS CORRECTLY.
 28209					;IN THIS TEST, A MOVE INSTRUCTION USING INDEXING IS EXECUTED.  THE MOVE INSTRUCTION
 28210					;SHOULD PLACE THE CONTENTS OF THE LOCATION SPECIFIED BY INDEX REGISTER 2 INTO AC3.
 28211					;SINCE INDEX REGISTER 2 WAS PRELOADED WITH A 1 AND AC1 WAS PRELOADED WITH A
 28212					;FLOATING 1, THE FINAL RESULT IN AC3 SHOULD BE A FLOATING 1.
 28213					;IF C(AC3)=A FLOATING 1, THIS TEST PASSES.
 28214
 28215			001313		SN=SN+1
 28216			002000			ZZ=ZZ+ZZ
 28217						IFE	ZZ,<ZZ=1>
 28218	045550	476 00 0 00 000003 		SETOM	3		;PRELOAD AC3 WITH -1,,-1
DFKAA PDP-10 KL10 BASIC INSTRUCTION DIAGNOSTIC (1) VER 0,2	MACRO %52(537) 09:34 31-JAN-77 PAGE 8-5
DFKAA4	MAC	25-AUG-75 13:58		TEST OF INDEX REGISTER ADDRESSING                                                  SEQ 0614

 28219	045551	205 01 0 00 002000 		MOVSI	1,ZZ		;PRELOAD AC1 WITH FLOATING 1
 28220	045552	201 02 0 00 000001 		MOVEI	2,1		;SETUP INDEX REGISTER
 28221	045553	200 03 0 02 000000 		MOVE	3,(2)		;*FWT FROM INDEXED LOCATION
 28222	045554	312 03 0 00 070320 		CAME	3,[ZZ,,0]	;TEST INDEXING
 28223						STOP^
 28224	045555	254 04 0 00 045556 		HALT	.+1		;TEST FAILED IF PROGRAM HALTS HERE
 28225	045556	324 00 0 00 045557 		JUMPA	.+1		;IF TEST FAILS, CHANGE THIS INSTRUCTION (JUMPA .+1) TO
 28226									;JUMPA X (X IS THE ADDRESS OF THE FIRST INSTRUCTION
 28227									;IN THE SUBTEST) TO LOOP ON ERROR^
 28228
 28229					;**********
 28230
 28231
 28232					;THIS TEST VERIFIES THAT INDEX REGISTER ADDRESSING FUNCTIONS CORRECTLY.
 28233					;IN THIS TEST, A MOVE INSTRUCTION USING INDEXING IS EXECUTED.  THE MOVE INSTRUCTION
 28234					;SHOULD PLACE THE CONTENTS OF THE LOCATION SPECIFIED BY INDEX REGISTER 2 INTO AC3.
 28235					;SINCE INDEX REGISTER 2 WAS PRELOADED WITH A 1 AND AC1 WAS PRELOADED WITH A
 28236					;FLOATING 1, THE FINAL RESULT IN AC3 SHOULD BE A FLOATING 1.
 28237					;IF C(AC3)=A FLOATING 1, THIS TEST PASSES.
 28238
 28239			001314		SN=SN+1
 28240			004000			ZZ=ZZ+ZZ
 28241						IFE	ZZ,<ZZ=1>
 28242	045557	476 00 0 00 000003 		SETOM	3		;PRELOAD AC3 WITH -1,,-1
 28243	045560	205 01 0 00 004000 		MOVSI	1,ZZ		;PRELOAD AC1 WITH FLOATING 1
 28244	045561	201 02 0 00 000001 		MOVEI	2,1		;SETUP INDEX REGISTER
 28245	045562	200 03 0 02 000000 		MOVE	3,(2)		;*FWT FROM INDEXED LOCATION
 28246	045563	312 03 0 00 070321 		CAME	3,[ZZ,,0]	;TEST INDEXING
 28247						STOP^
 28248	045564	254 04 0 00 045565 		HALT	.+1		;TEST FAILED IF PROGRAM HALTS HERE
 28249	045565	324 00 0 00 045566 		JUMPA	.+1		;IF TEST FAILS, CHANGE THIS INSTRUCTION (JUMPA .+1) TO
 28250									;JUMPA X (X IS THE ADDRESS OF THE FIRST INSTRUCTION
 28251									;IN THE SUBTEST) TO LOOP ON ERROR^
 28252
 28253					;**********
 28254
 28255
 28256					;THIS TEST VERIFIES THAT INDEX REGISTER ADDRESSING FUNCTIONS CORRECTLY.
 28257					;IN THIS TEST, A MOVE INSTRUCTION USING INDEXING IS EXECUTED.  THE MOVE INSTRUCTION
 28258					;SHOULD PLACE THE CONTENTS OF THE LOCATION SPECIFIED BY INDEX REGISTER 2 INTO AC3.
 28259					;SINCE INDEX REGISTER 2 WAS PRELOADED WITH A 1 AND AC1 WAS PRELOADED WITH A
 28260					;FLOATING 1, THE FINAL RESULT IN AC3 SHOULD BE A FLOATING 1.
 28261					;IF C(AC3)=A FLOATING 1, THIS TEST PASSES.
 28262
 28263			001315		SN=SN+1
 28264			010000			ZZ=ZZ+ZZ
 28265						IFE	ZZ,<ZZ=1>
 28266	045566	476 00 0 00 000003 		SETOM	3		;PRELOAD AC3 WITH -1,,-1
 28267	045567	205 01 0 00 010000 		MOVSI	1,ZZ		;PRELOAD AC1 WITH FLOATING 1
 28268	045570	201 02 0 00 000001 		MOVEI	2,1		;SETUP INDEX REGISTER
 28269	045571	200 03 0 02 000000 		MOVE	3,(2)		;*FWT FROM INDEXED LOCATION
 28270	045572	312 03 0 00 070322 		CAME	3,[ZZ,,0]	;TEST INDEXING
 28271						STOP^
 28272	045573	254 04 0 00 045574 		HALT	.+1		;TEST FAILED IF PROGRAM HALTS HERE
 28273	045574	324 00 0 00 045575 		JUMPA	.+1		;IF TEST FAILS, CHANGE THIS INSTRUCTION (JUMPA .+1) TO
DFKAA PDP-10 KL10 BASIC INSTRUCTION DIAGNOSTIC (1) VER 0,2	MACRO %52(537) 09:34 31-JAN-77 PAGE 8-6
DFKAA4	MAC	25-AUG-75 13:58		TEST OF INDEX REGISTER ADDRESSING                                                  SEQ 0615

 28274									;JUMPA X (X IS THE ADDRESS OF THE FIRST INSTRUCTION
 28275									;IN THE SUBTEST) TO LOOP ON ERROR^
 28276
 28277					;**********
 28278
 28279
 28280					;THIS TEST VERIFIES THAT INDEX REGISTER ADDRESSING FUNCTIONS CORRECTLY.
 28281					;IN THIS TEST, A MOVE INSTRUCTION USING INDEXING IS EXECUTED.  THE MOVE INSTRUCTION
 28282					;SHOULD PLACE THE CONTENTS OF THE LOCATION SPECIFIED BY INDEX REGISTER 2 INTO AC3.
 28283					;SINCE INDEX REGISTER 2 WAS PRELOADED WITH A 1 AND AC1 WAS PRELOADED WITH A
 28284					;FLOATING 1, THE FINAL RESULT IN AC3 SHOULD BE A FLOATING 1.
 28285					;IF C(AC3)=A FLOATING 1, THIS TEST PASSES.
 28286
 28287			001316		SN=SN+1
 28288			020000			ZZ=ZZ+ZZ
 28289						IFE	ZZ,<ZZ=1>
 28290	045575	476 00 0 00 000003 		SETOM	3		;PRELOAD AC3 WITH -1,,-1
 28291	045576	205 01 0 00 020000 		MOVSI	1,ZZ		;PRELOAD AC1 WITH FLOATING 1
 28292	045577	201 02 0 00 000001 		MOVEI	2,1		;SETUP INDEX REGISTER
 28293	045600	200 03 0 02 000000 		MOVE	3,(2)		;*FWT FROM INDEXED LOCATION
 28294	045601	312 03 0 00 070323 		CAME	3,[ZZ,,0]	;TEST INDEXING
 28295						STOP^
 28296	045602	254 04 0 00 045603 		HALT	.+1		;TEST FAILED IF PROGRAM HALTS HERE
 28297	045603	324 00 0 00 045604 		JUMPA	.+1		;IF TEST FAILS, CHANGE THIS INSTRUCTION (JUMPA .+1) TO
 28298									;JUMPA X (X IS THE ADDRESS OF THE FIRST INSTRUCTION
 28299									;IN THE SUBTEST) TO LOOP ON ERROR^
 28300
 28301					;**********
 28302
 28303
 28304					;THIS TEST VERIFIES THAT INDEX REGISTER ADDRESSING FUNCTIONS CORRECTLY.
 28305					;IN THIS TEST, A MOVE INSTRUCTION USING INDEXING IS EXECUTED.  THE MOVE INSTRUCTION
 28306					;SHOULD PLACE THE CONTENTS OF THE LOCATION SPECIFIED BY INDEX REGISTER 2 INTO AC3.
 28307					;SINCE INDEX REGISTER 2 WAS PRELOADED WITH A 1 AND AC1 WAS PRELOADED WITH A
 28308					;FLOATING 1, THE FINAL RESULT IN AC3 SHOULD BE A FLOATING 1.
 28309					;IF C(AC3)=A FLOATING 1, THIS TEST PASSES.
 28310
 28311			001317		SN=SN+1
 28312			040000			ZZ=ZZ+ZZ
 28313						IFE	ZZ,<ZZ=1>
 28314	045604	476 00 0 00 000003 		SETOM	3		;PRELOAD AC3 WITH -1,,-1
 28315	045605	205 01 0 00 040000 		MOVSI	1,ZZ		;PRELOAD AC1 WITH FLOATING 1
 28316	045606	201 02 0 00 000001 		MOVEI	2,1		;SETUP INDEX REGISTER
 28317	045607	200 03 0 02 000000 		MOVE	3,(2)		;*FWT FROM INDEXED LOCATION
 28318	045610	312 03 0 00 070324 		CAME	3,[ZZ,,0]	;TEST INDEXING
 28319						STOP^
 28320	045611	254 04 0 00 045612 		HALT	.+1		;TEST FAILED IF PROGRAM HALTS HERE
 28321	045612	324 00 0 00 045613 		JUMPA	.+1		;IF TEST FAILS, CHANGE THIS INSTRUCTION (JUMPA .+1) TO
 28322									;JUMPA X (X IS THE ADDRESS OF THE FIRST INSTRUCTION
 28323									;IN THE SUBTEST) TO LOOP ON ERROR^
 28324
 28325					;**********
 28326
 28327
 28328					;THIS TEST VERIFIES THAT INDEX REGISTER ADDRESSING FUNCTIONS CORRECTLY.
DFKAA PDP-10 KL10 BASIC INSTRUCTION DIAGNOSTIC (1) VER 0,2	MACRO %52(537) 09:34 31-JAN-77 PAGE 8-7
DFKAA4	MAC	25-AUG-75 13:58		TEST OF INDEX REGISTER ADDRESSING                                                  SEQ 0616

 28329					;IN THIS TEST, A MOVE INSTRUCTION USING INDEXING IS EXECUTED.  THE MOVE INSTRUCTION
 28330					;SHOULD PLACE THE CONTENTS OF THE LOCATION SPECIFIED BY INDEX REGISTER 2 INTO AC3.
 28331					;SINCE INDEX REGISTER 2 WAS PRELOADED WITH A 1 AND AC1 WAS PRELOADED WITH A
 28332					;FLOATING 1, THE FINAL RESULT IN AC3 SHOULD BE A FLOATING 1.
 28333					;IF C(AC3)=A FLOATING 1, THIS TEST PASSES.
 28334
 28335			001320		SN=SN+1
 28336			100000			ZZ=ZZ+ZZ
 28337						IFE	ZZ,<ZZ=1>
 28338	045613	476 00 0 00 000003 		SETOM	3		;PRELOAD AC3 WITH -1,,-1
 28339	045614	205 01 0 00 100000 		MOVSI	1,ZZ		;PRELOAD AC1 WITH FLOATING 1
 28340	045615	201 02 0 00 000001 		MOVEI	2,1		;SETUP INDEX REGISTER
 28341	045616	200 03 0 02 000000 		MOVE	3,(2)		;*FWT FROM INDEXED LOCATION
 28342	045617	312 03 0 00 070325 		CAME	3,[ZZ,,0]	;TEST INDEXING
 28343						STOP^
 28344	045620	254 04 0 00 045621 		HALT	.+1		;TEST FAILED IF PROGRAM HALTS HERE
 28345	045621	324 00 0 00 045622 		JUMPA	.+1		;IF TEST FAILS, CHANGE THIS INSTRUCTION (JUMPA .+1) TO
 28346									;JUMPA X (X IS THE ADDRESS OF THE FIRST INSTRUCTION
 28347									;IN THE SUBTEST) TO LOOP ON ERROR^
 28348
 28349					;**********
 28350
 28351
 28352					;THIS TEST VERIFIES THAT INDEX REGISTER ADDRESSING FUNCTIONS CORRECTLY.
 28353					;IN THIS TEST, A MOVE INSTRUCTION USING INDEXING IS EXECUTED.  THE MOVE INSTRUCTION
 28354					;SHOULD PLACE THE CONTENTS OF THE LOCATION SPECIFIED BY INDEX REGISTER 2 INTO AC3.
 28355					;SINCE INDEX REGISTER 2 WAS PRELOADED WITH A 1 AND AC1 WAS PRELOADED WITH A
 28356					;FLOATING 1, THE FINAL RESULT IN AC3 SHOULD BE A FLOATING 1.
 28357					;IF C(AC3)=A FLOATING 1, THIS TEST PASSES.
 28358
 28359			001321		SN=SN+1
 28360			200000			ZZ=ZZ+ZZ
 28361						IFE	ZZ,<ZZ=1>
 28362	045622	476 00 0 00 000003 		SETOM	3		;PRELOAD AC3 WITH -1,,-1
 28363	045623	205 01 0 00 200000 		MOVSI	1,ZZ		;PRELOAD AC1 WITH FLOATING 1
 28364	045624	201 02 0 00 000001 		MOVEI	2,1		;SETUP INDEX REGISTER
 28365	045625	200 03 0 02 000000 		MOVE	3,(2)		;*FWT FROM INDEXED LOCATION
 28366	045626	312 03 0 00 070326 		CAME	3,[ZZ,,0]	;TEST INDEXING
 28367						STOP^
 28368	045627	254 04 0 00 045630 		HALT	.+1		;TEST FAILED IF PROGRAM HALTS HERE
 28369	045630	324 00 0 00 045631 		JUMPA	.+1		;IF TEST FAILS, CHANGE THIS INSTRUCTION (JUMPA .+1) TO
 28370									;JUMPA X (X IS THE ADDRESS OF THE FIRST INSTRUCTION
 28371									;IN THE SUBTEST) TO LOOP ON ERROR^
 28372
 28373					;**********
 28374
 28375
 28376					;THIS TEST VERIFIES THAT INDEX REGISTER ADDRESSING FUNCTIONS CORRECTLY.
 28377					;IN THIS TEST, A MOVE INSTRUCTION USING INDEXING IS EXECUTED.  THE MOVE INSTRUCTION
 28378					;SHOULD PLACE THE CONTENTS OF THE LOCATION SPECIFIED BY INDEX REGISTER 2 INTO AC3.
 28379					;SINCE INDEX REGISTER 2 WAS PRELOADED WITH A 1 AND AC1 WAS PRELOADED WITH A
 28380					;FLOATING 1, THE FINAL RESULT IN AC3 SHOULD BE A FLOATING 1.
 28381					;IF C(AC3)=A FLOATING 1, THIS TEST PASSES.
 28382
 28383			001322		SN=SN+1
DFKAA PDP-10 KL10 BASIC INSTRUCTION DIAGNOSTIC (1) VER 0,2	MACRO %52(537) 09:34 31-JAN-77 PAGE 8-8
DFKAA4	MAC	25-AUG-75 13:58		TEST OF INDEX REGISTER ADDRESSING                                                  SEQ 0617

 28384			400000			ZZ=ZZ+ZZ
 28385						IFE	ZZ,<ZZ=1>
 28386	045631	476 00 0 00 000003 		SETOM	3		;PRELOAD AC3 WITH -1,,-1
 28387	045632	205 01 0 00 400000 		MOVSI	1,ZZ		;PRELOAD AC1 WITH FLOATING 1
 28388	045633	201 02 0 00 000001 		MOVEI	2,1		;SETUP INDEX REGISTER
 28389	045634	200 03 0 02 000000 		MOVE	3,(2)		;*FWT FROM INDEXED LOCATION
 28390	045635	312 03 0 00 070256 		CAME	3,[ZZ,,0]	;TEST INDEXING
 28391						STOP^
 28392	045636	254 04 0 00 045637 		HALT	.+1		;TEST FAILED IF PROGRAM HALTS HERE
 28393	045637	324 00 0 00 045640 		JUMPA	.+1		;IF TEST FAILS, CHANGE THIS INSTRUCTION (JUMPA .+1) TO
 28394									;JUMPA X (X IS THE ADDRESS OF THE FIRST INSTRUCTION
 28395									;IN THE SUBTEST) TO LOOP ON ERROR^
 28396
 28397					;**********
 28398
DFKAA PDP-10 KL10 BASIC INSTRUCTION DIAGNOSTIC (1) VER 0,2	MACRO %52(537) 09:34 31-JAN-77 PAGE 9
DFKAA4	MAC	25-AUG-75 13:58		TEST OF INDEX REGISTER ADDRESSING                                                  SEQ 0618

 28399					;THIS TEST VERIFIES THAT INDEX REGISTER ADDRESSING FUNCTIONS CORRECTLY.
 28400					;IN THIS TEST, A MOVE INSTRUCTION USING INDEXING IS EXECUTED.  THE MOVE INSTRUCTION
 28401					;SHOULD PLACE THE CONTENTS OF THE LOCATION SPECIFIED BY INDEX REGISTER 2 INTO AC3.
 28402					;SINCE INDEX REGISTER 2 WAS PRELOADED WITH A 1 AND AC1 WAS PRELOADED WITH -1,,-1,
 28403					;THE FINAL RESULT IN AC3 SHOULD BE -1,,-1.  IF C(AC3)=-1,,-1, THIS TEST PASSES.
 28404
 28405	045640	402 00 0 00 000003 	C1400:	SETZM	3		;PRELOAD AC3 WITH 0
 28406	045641	476 00 0 00 000001 		SETOM	1		;PRELOAD AC1 WITH -1,,-1
 28407	045642	201 02 0 00 000001 		MOVEI	2,1		;SETUP INDEX REGISTER
 28408	045643	200 03 0 02 000000 		MOVE	3,(2)		;*FWT FROM INDEXED LOCATION
 28409	045644	312 03 0 00 070254 		CAME	3,[-1,,-1]	;TEST INDEXING
 28410						STOP^
 28411	045645	254 04 0 00 045646 		HALT	.+1		;TEST FAILED IF PROGRAM HALTS HERE
 28412	045646	324 00 0 00 045647 		JUMPA	.+1		;IF TEST FAILS, CHANGE THIS INSTRUCTION (JUMPA .+1) TO
 28413									;JUMPA X (X IS THE ADDRESS OF THE FIRST INSTRUCTION
 28414									;IN THE SUBTEST) TO LOOP ON ERROR^
 28415
 28416					;**********
 28417
 28418			001500		SN=1500
 28419			000000			ZZ=0
 28420
 28421					C1500:	REPEAT	^D18,<
 28422					;THIS TEST VERIFIES THAT INDEX REGISTER ADDRESSING FUNCTIONS CORRECTLY.
 28423					;IN THIS TEST, A MOVE INSTRUCTION USING INDEXING IS EXECUTED.  THE MOVE INSTRUCTION
 28424					;SHOULD PLACE THE CONTENTS OF THE LOCATION SPECIFIED BY INDEX REGISTER 2 INTO AC3.
 28425					;SINCE INDEX REGISTER 2 WAS PRELOADED WITH A 1 AND AC1 WAS PRELOADED WITH A
 28426					;FLOATING 0, THE FINAL RESULT IN AC3 SHOULD BE A FLOATING 0.
 28427					;IF C(AC3)=A FLOATING 0, THIS TEST PASSES.
 28428
 28429					SN=SN+1
 28430						ZZ=<ZZ+ZZ+1>&777777
 28431						IFE	<ZZ-1>,<ZZ=777776>
 28432						SETZM	3		;PRELOAD AC3 WITH 0
 28433						HRROI	1,ZZ		;PRELOAD AC1 WITH FLOATING 0
 28434						MOVEI	2,1		;SETUP INDEX REGISTER
 28435						MOVE	3,(2)		;*FWT FROM INDEXED LOCATION
 28436						CAME	3,[-1,,ZZ]	;TEST INDEXING
 28437						STOP
 28438
 28439					;**********
 28440					>
 28441
 28442					;THIS TEST VERIFIES THAT INDEX REGISTER ADDRESSING FUNCTIONS CORRECTLY.
 28443					;IN THIS TEST, A MOVE INSTRUCTION USING INDEXING IS EXECUTED.  THE MOVE INSTRUCTION
 28444					;SHOULD PLACE THE CONTENTS OF THE LOCATION SPECIFIED BY INDEX REGISTER 2 INTO AC3.
 28445					;SINCE INDEX REGISTER 2 WAS PRELOADED WITH A 1 AND AC1 WAS PRELOADED WITH A
 28446					;FLOATING 0, THE FINAL RESULT IN AC3 SHOULD BE A FLOATING 0.
 28447					;IF C(AC3)=A FLOATING 0, THIS TEST PASSES.
 28448
 28449			001501		SN=SN+1
 28450			000001			ZZ=<ZZ+ZZ+1>&777777
 28451			777776			IFE	<ZZ-1>,<ZZ=777776>
 28452	045647	402 00 0 00 000003 		SETZM	3		;PRELOAD AC3 WITH 0
 28453	045650	561 01 0 00 777776 		HRROI	1,ZZ		;PRELOAD AC1 WITH FLOATING 0
DFKAA PDP-10 KL10 BASIC INSTRUCTION DIAGNOSTIC (1) VER 0,2	MACRO %52(537) 09:34 31-JAN-77 PAGE 9-1
DFKAA4	MAC	25-AUG-75 13:58		TEST OF INDEX REGISTER ADDRESSING                                                  SEQ 0619

 28454	045651	201 02 0 00 000001 		MOVEI	2,1		;SETUP INDEX REGISTER
 28455	045652	200 03 0 02 000000 		MOVE	3,(2)		;*FWT FROM INDEXED LOCATION
 28456	045653	312 03 0 00 070333 		CAME	3,[-1,,ZZ]	;TEST INDEXING
 28457						STOP^
 28458	045654	254 04 0 00 045655 		HALT	.+1		;TEST FAILED IF PROGRAM HALTS HERE
 28459	045655	324 00 0 00 045656 		JUMPA	.+1		;IF TEST FAILS, CHANGE THIS INSTRUCTION (JUMPA .+1) TO
 28460									;JUMPA X (X IS THE ADDRESS OF THE FIRST INSTRUCTION
 28461									;IN THE SUBTEST) TO LOOP ON ERROR^
 28462
 28463					;**********
 28464
 28465
 28466					;THIS TEST VERIFIES THAT INDEX REGISTER ADDRESSING FUNCTIONS CORRECTLY.
 28467					;IN THIS TEST, A MOVE INSTRUCTION USING INDEXING IS EXECUTED.  THE MOVE INSTRUCTION
 28468					;SHOULD PLACE THE CONTENTS OF THE LOCATION SPECIFIED BY INDEX REGISTER 2 INTO AC3.
 28469					;SINCE INDEX REGISTER 2 WAS PRELOADED WITH A 1 AND AC1 WAS PRELOADED WITH A
 28470					;FLOATING 0, THE FINAL RESULT IN AC3 SHOULD BE A FLOATING 0.
 28471					;IF C(AC3)=A FLOATING 0, THIS TEST PASSES.
 28472
 28473			001502		SN=SN+1
 28474			777775			ZZ=<ZZ+ZZ+1>&777777
 28475						IFE	<ZZ-1>,<ZZ=777776>
 28476	045656	402 00 0 00 000003 		SETZM	3		;PRELOAD AC3 WITH 0
 28477	045657	561 01 0 00 777775 		HRROI	1,ZZ		;PRELOAD AC1 WITH FLOATING 0
 28478	045660	201 02 0 00 000001 		MOVEI	2,1		;SETUP INDEX REGISTER
 28479	045661	200 03 0 02 000000 		MOVE	3,(2)		;*FWT FROM INDEXED LOCATION
 28480	045662	312 03 0 00 070334 		CAME	3,[-1,,ZZ]	;TEST INDEXING
 28481						STOP^
 28482	045663	254 04 0 00 045664 		HALT	.+1		;TEST FAILED IF PROGRAM HALTS HERE
 28483	045664	324 00 0 00 045665 		JUMPA	.+1		;IF TEST FAILS, CHANGE THIS INSTRUCTION (JUMPA .+1) TO
 28484									;JUMPA X (X IS THE ADDRESS OF THE FIRST INSTRUCTION
 28485									;IN THE SUBTEST) TO LOOP ON ERROR^
 28486
 28487					;**********
 28488
 28489
 28490					;THIS TEST VERIFIES THAT INDEX REGISTER ADDRESSING FUNCTIONS CORRECTLY.
 28491					;IN THIS TEST, A MOVE INSTRUCTION USING INDEXING IS EXECUTED.  THE MOVE INSTRUCTION
 28492					;SHOULD PLACE THE CONTENTS OF THE LOCATION SPECIFIED BY INDEX REGISTER 2 INTO AC3.
 28493					;SINCE INDEX REGISTER 2 WAS PRELOADED WITH A 1 AND AC1 WAS PRELOADED WITH A
 28494					;FLOATING 0, THE FINAL RESULT IN AC3 SHOULD BE A FLOATING 0.
 28495					;IF C(AC3)=A FLOATING 0, THIS TEST PASSES.
 28496
 28497			001503		SN=SN+1
 28498			777773			ZZ=<ZZ+ZZ+1>&777777
 28499						IFE	<ZZ-1>,<ZZ=777776>
 28500	045665	402 00 0 00 000003 		SETZM	3		;PRELOAD AC3 WITH 0
 28501	045666	561 01 0 00 777773 		HRROI	1,ZZ		;PRELOAD AC1 WITH FLOATING 0
 28502	045667	201 02 0 00 000001 		MOVEI	2,1		;SETUP INDEX REGISTER
 28503	045670	200 03 0 02 000000 		MOVE	3,(2)		;*FWT FROM INDEXED LOCATION
 28504	045671	312 03 0 00 070335 		CAME	3,[-1,,ZZ]	;TEST INDEXING
 28505						STOP^
 28506	045672	254 04 0 00 045673 		HALT	.+1		;TEST FAILED IF PROGRAM HALTS HERE
 28507	045673	324 00 0 00 045674 		JUMPA	.+1		;IF TEST FAILS, CHANGE THIS INSTRUCTION (JUMPA .+1) TO
 28508									;JUMPA X (X IS THE ADDRESS OF THE FIRST INSTRUCTION
DFKAA PDP-10 KL10 BASIC INSTRUCTION DIAGNOSTIC (1) VER 0,2	MACRO %52(537) 09:34 31-JAN-77 PAGE 9-2
DFKAA4	MAC	25-AUG-75 13:58		TEST OF INDEX REGISTER ADDRESSING                                                  SEQ 0620

 28509									;IN THE SUBTEST) TO LOOP ON ERROR^
 28510
 28511					;**********
 28512
 28513
 28514					;THIS TEST VERIFIES THAT INDEX REGISTER ADDRESSING FUNCTIONS CORRECTLY.
 28515					;IN THIS TEST, A MOVE INSTRUCTION USING INDEXING IS EXECUTED.  THE MOVE INSTRUCTION
 28516					;SHOULD PLACE THE CONTENTS OF THE LOCATION SPECIFIED BY INDEX REGISTER 2 INTO AC3.
 28517					;SINCE INDEX REGISTER 2 WAS PRELOADED WITH A 1 AND AC1 WAS PRELOADED WITH A
 28518					;FLOATING 0, THE FINAL RESULT IN AC3 SHOULD BE A FLOATING 0.
 28519					;IF C(AC3)=A FLOATING 0, THIS TEST PASSES.
 28520
 28521			001504		SN=SN+1
 28522			777767			ZZ=<ZZ+ZZ+1>&777777
 28523						IFE	<ZZ-1>,<ZZ=777776>
 28524	045674	402 00 0 00 000003 		SETZM	3		;PRELOAD AC3 WITH 0
 28525	045675	561 01 0 00 777767 		HRROI	1,ZZ		;PRELOAD AC1 WITH FLOATING 0
 28526	045676	201 02 0 00 000001 		MOVEI	2,1		;SETUP INDEX REGISTER
 28527	045677	200 03 0 02 000000 		MOVE	3,(2)		;*FWT FROM INDEXED LOCATION
 28528	045700	312 03 0 00 070336 		CAME	3,[-1,,ZZ]	;TEST INDEXING
 28529						STOP^
 28530	045701	254 04 0 00 045702 		HALT	.+1		;TEST FAILED IF PROGRAM HALTS HERE
 28531	045702	324 00 0 00 045703 		JUMPA	.+1		;IF TEST FAILS, CHANGE THIS INSTRUCTION (JUMPA .+1) TO
 28532									;JUMPA X (X IS THE ADDRESS OF THE FIRST INSTRUCTION
 28533									;IN THE SUBTEST) TO LOOP ON ERROR^
 28534
 28535					;**********
 28536
 28537
 28538					;THIS TEST VERIFIES THAT INDEX REGISTER ADDRESSING FUNCTIONS CORRECTLY.
 28539					;IN THIS TEST, A MOVE INSTRUCTION USING INDEXING IS EXECUTED.  THE MOVE INSTRUCTION
 28540					;SHOULD PLACE THE CONTENTS OF THE LOCATION SPECIFIED BY INDEX REGISTER 2 INTO AC3.
 28541					;SINCE INDEX REGISTER 2 WAS PRELOADED WITH A 1 AND AC1 WAS PRELOADED WITH A
 28542					;FLOATING 0, THE FINAL RESULT IN AC3 SHOULD BE A FLOATING 0.
 28543					;IF C(AC3)=A FLOATING 0, THIS TEST PASSES.
 28544
 28545			001505		SN=SN+1
 28546			777757			ZZ=<ZZ+ZZ+1>&777777
 28547						IFE	<ZZ-1>,<ZZ=777776>
 28548	045703	402 00 0 00 000003 		SETZM	3		;PRELOAD AC3 WITH 0
 28549	045704	561 01 0 00 777757 		HRROI	1,ZZ		;PRELOAD AC1 WITH FLOATING 0
 28550	045705	201 02 0 00 000001 		MOVEI	2,1		;SETUP INDEX REGISTER
 28551	045706	200 03 0 02 000000 		MOVE	3,(2)		;*FWT FROM INDEXED LOCATION
 28552	045707	312 03 0 00 070337 		CAME	3,[-1,,ZZ]	;TEST INDEXING
 28553						STOP^
 28554	045710	254 04 0 00 045711 		HALT	.+1		;TEST FAILED IF PROGRAM HALTS HERE
 28555	045711	324 00 0 00 045712 		JUMPA	.+1		;IF TEST FAILS, CHANGE THIS INSTRUCTION (JUMPA .+1) TO
 28556									;JUMPA X (X IS THE ADDRESS OF THE FIRST INSTRUCTION
 28557									;IN THE SUBTEST) TO LOOP ON ERROR^
 28558
 28559					;**********
 28560
 28561
 28562					;THIS TEST VERIFIES THAT INDEX REGISTER ADDRESSING FUNCTIONS CORRECTLY.
 28563					;IN THIS TEST, A MOVE INSTRUCTION USING INDEXING IS EXECUTED.  THE MOVE INSTRUCTION
DFKAA PDP-10 KL10 BASIC INSTRUCTION DIAGNOSTIC (1) VER 0,2	MACRO %52(537) 09:34 31-JAN-77 PAGE 9-3
DFKAA4	MAC	25-AUG-75 13:58		TEST OF INDEX REGISTER ADDRESSING                                                  SEQ 0621

 28564					;SHOULD PLACE THE CONTENTS OF THE LOCATION SPECIFIED BY INDEX REGISTER 2 INTO AC3.
 28565					;SINCE INDEX REGISTER 2 WAS PRELOADED WITH A 1 AND AC1 WAS PRELOADED WITH A
 28566					;FLOATING 0, THE FINAL RESULT IN AC3 SHOULD BE A FLOATING 0.
 28567					;IF C(AC3)=A FLOATING 0, THIS TEST PASSES.
 28568
 28569			001506		SN=SN+1
 28570			777737			ZZ=<ZZ+ZZ+1>&777777
 28571						IFE	<ZZ-1>,<ZZ=777776>
 28572	045712	402 00 0 00 000003 		SETZM	3		;PRELOAD AC3 WITH 0
 28573	045713	561 01 0 00 777737 		HRROI	1,ZZ		;PRELOAD AC1 WITH FLOATING 0
 28574	045714	201 02 0 00 000001 		MOVEI	2,1		;SETUP INDEX REGISTER
 28575	045715	200 03 0 02 000000 		MOVE	3,(2)		;*FWT FROM INDEXED LOCATION
 28576	045716	312 03 0 00 070340 		CAME	3,[-1,,ZZ]	;TEST INDEXING
 28577						STOP^
 28578	045717	254 04 0 00 045720 		HALT	.+1		;TEST FAILED IF PROGRAM HALTS HERE
 28579	045720	324 00 0 00 045721 		JUMPA	.+1		;IF TEST FAILS, CHANGE THIS INSTRUCTION (JUMPA .+1) TO
 28580									;JUMPA X (X IS THE ADDRESS OF THE FIRST INSTRUCTION
 28581									;IN THE SUBTEST) TO LOOP ON ERROR^
 28582
 28583					;**********
 28584
 28585
 28586					;THIS TEST VERIFIES THAT INDEX REGISTER ADDRESSING FUNCTIONS CORRECTLY.
 28587					;IN THIS TEST, A MOVE INSTRUCTION USING INDEXING IS EXECUTED.  THE MOVE INSTRUCTION
 28588					;SHOULD PLACE THE CONTENTS OF THE LOCATION SPECIFIED BY INDEX REGISTER 2 INTO AC3.
 28589					;SINCE INDEX REGISTER 2 WAS PRELOADED WITH A 1 AND AC1 WAS PRELOADED WITH A
 28590					;FLOATING 0, THE FINAL RESULT IN AC3 SHOULD BE A FLOATING 0.
 28591					;IF C(AC3)=A FLOATING 0, THIS TEST PASSES.
 28592
 28593			001507		SN=SN+1
 28594			777677			ZZ=<ZZ+ZZ+1>&777777
 28595						IFE	<ZZ-1>,<ZZ=777776>
 28596	045721	402 00 0 00 000003 		SETZM	3		;PRELOAD AC3 WITH 0
 28597	045722	561 01 0 00 777677 		HRROI	1,ZZ		;PRELOAD AC1 WITH FLOATING 0
 28598	045723	201 02 0 00 000001 		MOVEI	2,1		;SETUP INDEX REGISTER
 28599	045724	200 03 0 02 000000 		MOVE	3,(2)		;*FWT FROM INDEXED LOCATION
 28600	045725	312 03 0 00 070341 		CAME	3,[-1,,ZZ]	;TEST INDEXING
 28601						STOP^
 28602	045726	254 04 0 00 045727 		HALT	.+1		;TEST FAILED IF PROGRAM HALTS HERE
 28603	045727	324 00 0 00 045730 		JUMPA	.+1		;IF TEST FAILS, CHANGE THIS INSTRUCTION (JUMPA .+1) TO
 28604									;JUMPA X (X IS THE ADDRESS OF THE FIRST INSTRUCTION
 28605									;IN THE SUBTEST) TO LOOP ON ERROR^
 28606
 28607					;**********
 28608
 28609
 28610					;THIS TEST VERIFIES THAT INDEX REGISTER ADDRESSING FUNCTIONS CORRECTLY.
 28611					;IN THIS TEST, A MOVE INSTRUCTION USING INDEXING IS EXECUTED.  THE MOVE INSTRUCTION
 28612					;SHOULD PLACE THE CONTENTS OF THE LOCATION SPECIFIED BY INDEX REGISTER 2 INTO AC3.
 28613					;SINCE INDEX REGISTER 2 WAS PRELOADED WITH A 1 AND AC1 WAS PRELOADED WITH A
 28614					;FLOATING 0, THE FINAL RESULT IN AC3 SHOULD BE A FLOATING 0.
 28615					;IF C(AC3)=A FLOATING 0, THIS TEST PASSES.
 28616
 28617			001510		SN=SN+1
 28618			777577			ZZ=<ZZ+ZZ+1>&777777
DFKAA PDP-10 KL10 BASIC INSTRUCTION DIAGNOSTIC (1) VER 0,2	MACRO %52(537) 09:34 31-JAN-77 PAGE 9-4
DFKAA4	MAC	25-AUG-75 13:58		TEST OF INDEX REGISTER ADDRESSING                                                  SEQ 0622

 28619						IFE	<ZZ-1>,<ZZ=777776>
 28620	045730	402 00 0 00 000003 		SETZM	3		;PRELOAD AC3 WITH 0
 28621	045731	561 01 0 00 777577 		HRROI	1,ZZ		;PRELOAD AC1 WITH FLOATING 0
 28622	045732	201 02 0 00 000001 		MOVEI	2,1		;SETUP INDEX REGISTER
 28623	045733	200 03 0 02 000000 		MOVE	3,(2)		;*FWT FROM INDEXED LOCATION
 28624	045734	312 03 0 00 070342 		CAME	3,[-1,,ZZ]	;TEST INDEXING
 28625						STOP^
 28626	045735	254 04 0 00 045736 		HALT	.+1		;TEST FAILED IF PROGRAM HALTS HERE
 28627	045736	324 00 0 00 045737 		JUMPA	.+1		;IF TEST FAILS, CHANGE THIS INSTRUCTION (JUMPA .+1) TO
 28628									;JUMPA X (X IS THE ADDRESS OF THE FIRST INSTRUCTION
 28629									;IN THE SUBTEST) TO LOOP ON ERROR^
 28630
 28631					;**********
 28632
 28633
 28634					;THIS TEST VERIFIES THAT INDEX REGISTER ADDRESSING FUNCTIONS CORRECTLY.
 28635					;IN THIS TEST, A MOVE INSTRUCTION USING INDEXING IS EXECUTED.  THE MOVE INSTRUCTION
 28636					;SHOULD PLACE THE CONTENTS OF THE LOCATION SPECIFIED BY INDEX REGISTER 2 INTO AC3.
 28637					;SINCE INDEX REGISTER 2 WAS PRELOADED WITH A 1 AND AC1 WAS PRELOADED WITH A
 28638					;FLOATING 0, THE FINAL RESULT IN AC3 SHOULD BE A FLOATING 0.
 28639					;IF C(AC3)=A FLOATING 0, THIS TEST PASSES.
 28640
 28641			001511		SN=SN+1
 28642			777377			ZZ=<ZZ+ZZ+1>&777777
 28643						IFE	<ZZ-1>,<ZZ=777776>
 28644	045737	402 00 0 00 000003 		SETZM	3		;PRELOAD AC3 WITH 0
 28645	045740	561 01 0 00 777377 		HRROI	1,ZZ		;PRELOAD AC1 WITH FLOATING 0
 28646	045741	201 02 0 00 000001 		MOVEI	2,1		;SETUP INDEX REGISTER
 28647	045742	200 03 0 02 000000 		MOVE	3,(2)		;*FWT FROM INDEXED LOCATION
 28648	045743	312 03 0 00 070343 		CAME	3,[-1,,ZZ]	;TEST INDEXING
 28649						STOP^
 28650	045744	254 04 0 00 045745 		HALT	.+1		;TEST FAILED IF PROGRAM HALTS HERE
 28651	045745	324 00 0 00 045746 		JUMPA	.+1		;IF TEST FAILS, CHANGE THIS INSTRUCTION (JUMPA .+1) TO
 28652									;JUMPA X (X IS THE ADDRESS OF THE FIRST INSTRUCTION
 28653									;IN THE SUBTEST) TO LOOP ON ERROR^
 28654
 28655					;**********
 28656
 28657
 28658					;THIS TEST VERIFIES THAT INDEX REGISTER ADDRESSING FUNCTIONS CORRECTLY.
 28659					;IN THIS TEST, A MOVE INSTRUCTION USING INDEXING IS EXECUTED.  THE MOVE INSTRUCTION
 28660					;SHOULD PLACE THE CONTENTS OF THE LOCATION SPECIFIED BY INDEX REGISTER 2 INTO AC3.
 28661					;SINCE INDEX REGISTER 2 WAS PRELOADED WITH A 1 AND AC1 WAS PRELOADED WITH A
 28662					;FLOATING 0, THE FINAL RESULT IN AC3 SHOULD BE A FLOATING 0.
 28663					;IF C(AC3)=A FLOATING 0, THIS TEST PASSES.
 28664
 28665			001512		SN=SN+1
 28666			776777			ZZ=<ZZ+ZZ+1>&777777
 28667						IFE	<ZZ-1>,<ZZ=777776>
 28668	045746	402 00 0 00 000003 		SETZM	3		;PRELOAD AC3 WITH 0
 28669	045747	561 01 0 00 776777 		HRROI	1,ZZ		;PRELOAD AC1 WITH FLOATING 0
 28670	045750	201 02 0 00 000001 		MOVEI	2,1		;SETUP INDEX REGISTER
 28671	045751	200 03 0 02 000000 		MOVE	3,(2)		;*FWT FROM INDEXED LOCATION
 28672	045752	312 03 0 00 070344 		CAME	3,[-1,,ZZ]	;TEST INDEXING
 28673						STOP^
DFKAA PDP-10 KL10 BASIC INSTRUCTION DIAGNOSTIC (1) VER 0,2	MACRO %52(537) 09:34 31-JAN-77 PAGE 9-5
DFKAA4	MAC	25-AUG-75 13:58		TEST OF INDEX REGISTER ADDRESSING                                                  SEQ 0623

 28674	045753	254 04 0 00 045754 		HALT	.+1		;TEST FAILED IF PROGRAM HALTS HERE
 28675	045754	324 00 0 00 045755 		JUMPA	.+1		;IF TEST FAILS, CHANGE THIS INSTRUCTION (JUMPA .+1) TO
 28676									;JUMPA X (X IS THE ADDRESS OF THE FIRST INSTRUCTION
 28677									;IN THE SUBTEST) TO LOOP ON ERROR^
 28678
 28679					;**********
 28680
 28681
 28682					;THIS TEST VERIFIES THAT INDEX REGISTER ADDRESSING FUNCTIONS CORRECTLY.
 28683					;IN THIS TEST, A MOVE INSTRUCTION USING INDEXING IS EXECUTED.  THE MOVE INSTRUCTION
 28684					;SHOULD PLACE THE CONTENTS OF THE LOCATION SPECIFIED BY INDEX REGISTER 2 INTO AC3.
 28685					;SINCE INDEX REGISTER 2 WAS PRELOADED WITH A 1 AND AC1 WAS PRELOADED WITH A
 28686					;FLOATING 0, THE FINAL RESULT IN AC3 SHOULD BE A FLOATING 0.
 28687					;IF C(AC3)=A FLOATING 0, THIS TEST PASSES.
 28688
 28689			001513		SN=SN+1
 28690			775777			ZZ=<ZZ+ZZ+1>&777777
 28691						IFE	<ZZ-1>,<ZZ=777776>
 28692	045755	402 00 0 00 000003 		SETZM	3		;PRELOAD AC3 WITH 0
 28693	045756	561 01 0 00 775777 		HRROI	1,ZZ		;PRELOAD AC1 WITH FLOATING 0
 28694	045757	201 02 0 00 000001 		MOVEI	2,1		;SETUP INDEX REGISTER
 28695	045760	200 03 0 02 000000 		MOVE	3,(2)		;*FWT FROM INDEXED LOCATION
 28696	045761	312 03 0 00 070345 		CAME	3,[-1,,ZZ]	;TEST INDEXING
 28697						STOP^
 28698	045762	254 04 0 00 045763 		HALT	.+1		;TEST FAILED IF PROGRAM HALTS HERE
 28699	045763	324 00 0 00 045764 		JUMPA	.+1		;IF TEST FAILS, CHANGE THIS INSTRUCTION (JUMPA .+1) TO
 28700									;JUMPA X (X IS THE ADDRESS OF THE FIRST INSTRUCTION
 28701									;IN THE SUBTEST) TO LOOP ON ERROR^
 28702
 28703					;**********
 28704
 28705
 28706					;THIS TEST VERIFIES THAT INDEX REGISTER ADDRESSING FUNCTIONS CORRECTLY.
 28707					;IN THIS TEST, A MOVE INSTRUCTION USING INDEXING IS EXECUTED.  THE MOVE INSTRUCTION
 28708					;SHOULD PLACE THE CONTENTS OF THE LOCATION SPECIFIED BY INDEX REGISTER 2 INTO AC3.
 28709					;SINCE INDEX REGISTER 2 WAS PRELOADED WITH A 1 AND AC1 WAS PRELOADED WITH A
 28710					;FLOATING 0, THE FINAL RESULT IN AC3 SHOULD BE A FLOATING 0.
 28711					;IF C(AC3)=A FLOATING 0, THIS TEST PASSES.
 28712
 28713			001514		SN=SN+1
 28714			773777			ZZ=<ZZ+ZZ+1>&777777
 28715						IFE	<ZZ-1>,<ZZ=777776>
 28716	045764	402 00 0 00 000003 		SETZM	3		;PRELOAD AC3 WITH 0
 28717	045765	561 01 0 00 773777 		HRROI	1,ZZ		;PRELOAD AC1 WITH FLOATING 0
 28718	045766	201 02 0 00 000001 		MOVEI	2,1		;SETUP INDEX REGISTER
 28719	045767	200 03 0 02 000000 		MOVE	3,(2)		;*FWT FROM INDEXED LOCATION
 28720	045770	312 03 0 00 070346 		CAME	3,[-1,,ZZ]	;TEST INDEXING
 28721						STOP^
 28722	045771	254 04 0 00 045772 		HALT	.+1		;TEST FAILED IF PROGRAM HALTS HERE
 28723	045772	324 00 0 00 045773 		JUMPA	.+1		;IF TEST FAILS, CHANGE THIS INSTRUCTION (JUMPA .+1) TO
 28724									;JUMPA X (X IS THE ADDRESS OF THE FIRST INSTRUCTION
 28725									;IN THE SUBTEST) TO LOOP ON ERROR^
 28726
 28727					;**********
 28728
DFKAA PDP-10 KL10 BASIC INSTRUCTION DIAGNOSTIC (1) VER 0,2	MACRO %52(537) 09:34 31-JAN-77 PAGE 9-6
DFKAA4	MAC	25-AUG-75 13:58		TEST OF INDEX REGISTER ADDRESSING                                                  SEQ 0624

 28729
 28730					;THIS TEST VERIFIES THAT INDEX REGISTER ADDRESSING FUNCTIONS CORRECTLY.
 28731					;IN THIS TEST, A MOVE INSTRUCTION USING INDEXING IS EXECUTED.  THE MOVE INSTRUCTION
 28732					;SHOULD PLACE THE CONTENTS OF THE LOCATION SPECIFIED BY INDEX REGISTER 2 INTO AC3.
 28733					;SINCE INDEX REGISTER 2 WAS PRELOADED WITH A 1 AND AC1 WAS PRELOADED WITH A
 28734					;FLOATING 0, THE FINAL RESULT IN AC3 SHOULD BE A FLOATING 0.
 28735					;IF C(AC3)=A FLOATING 0, THIS TEST PASSES.
 28736
 28737			001515		SN=SN+1
 28738			767777			ZZ=<ZZ+ZZ+1>&777777
 28739						IFE	<ZZ-1>,<ZZ=777776>
 28740	045773	402 00 0 00 000003 		SETZM	3		;PRELOAD AC3 WITH 0
 28741	045774	561 01 0 00 767777 		HRROI	1,ZZ		;PRELOAD AC1 WITH FLOATING 0
 28742	045775	201 02 0 00 000001 		MOVEI	2,1		;SETUP INDEX REGISTER
 28743	045776	200 03 0 02 000000 		MOVE	3,(2)		;*FWT FROM INDEXED LOCATION
 28744	045777	312 03 0 00 070347 		CAME	3,[-1,,ZZ]	;TEST INDEXING
 28745						STOP^
 28746	046000	254 04 0 00 046001 		HALT	.+1		;TEST FAILED IF PROGRAM HALTS HERE
 28747	046001	324 00 0 00 046002 		JUMPA	.+1		;IF TEST FAILS, CHANGE THIS INSTRUCTION (JUMPA .+1) TO
 28748									;JUMPA X (X IS THE ADDRESS OF THE FIRST INSTRUCTION
 28749									;IN THE SUBTEST) TO LOOP ON ERROR^
 28750
 28751					;**********
 28752
 28753
 28754					;THIS TEST VERIFIES THAT INDEX REGISTER ADDRESSING FUNCTIONS CORRECTLY.
 28755					;IN THIS TEST, A MOVE INSTRUCTION USING INDEXING IS EXECUTED.  THE MOVE INSTRUCTION
 28756					;SHOULD PLACE THE CONTENTS OF THE LOCATION SPECIFIED BY INDEX REGISTER 2 INTO AC3.
 28757					;SINCE INDEX REGISTER 2 WAS PRELOADED WITH A 1 AND AC1 WAS PRELOADED WITH A
 28758					;FLOATING 0, THE FINAL RESULT IN AC3 SHOULD BE A FLOATING 0.
 28759					;IF C(AC3)=A FLOATING 0, THIS TEST PASSES.
 28760
 28761			001516		SN=SN+1
 28762			757777			ZZ=<ZZ+ZZ+1>&777777
 28763						IFE	<ZZ-1>,<ZZ=777776>
 28764	046002	402 00 0 00 000003 		SETZM	3		;PRELOAD AC3 WITH 0
 28765	046003	561 01 0 00 757777 		HRROI	1,ZZ		;PRELOAD AC1 WITH FLOATING 0
 28766	046004	201 02 0 00 000001 		MOVEI	2,1		;SETUP INDEX REGISTER
 28767	046005	200 03 0 02 000000 		MOVE	3,(2)		;*FWT FROM INDEXED LOCATION
 28768	046006	312 03 0 00 070350 		CAME	3,[-1,,ZZ]	;TEST INDEXING
 28769						STOP^
 28770	046007	254 04 0 00 046010 		HALT	.+1		;TEST FAILED IF PROGRAM HALTS HERE
 28771	046010	324 00 0 00 046011 		JUMPA	.+1		;IF TEST FAILS, CHANGE THIS INSTRUCTION (JUMPA .+1) TO
 28772									;JUMPA X (X IS THE ADDRESS OF THE FIRST INSTRUCTION
 28773									;IN THE SUBTEST) TO LOOP ON ERROR^
 28774
 28775					;**********
 28776
 28777
 28778					;THIS TEST VERIFIES THAT INDEX REGISTER ADDRESSING FUNCTIONS CORRECTLY.
 28779					;IN THIS TEST, A MOVE INSTRUCTION USING INDEXING IS EXECUTED.  THE MOVE INSTRUCTION
 28780					;SHOULD PLACE THE CONTENTS OF THE LOCATION SPECIFIED BY INDEX REGISTER 2 INTO AC3.
 28781					;SINCE INDEX REGISTER 2 WAS PRELOADED WITH A 1 AND AC1 WAS PRELOADED WITH A
 28782					;FLOATING 0, THE FINAL RESULT IN AC3 SHOULD BE A FLOATING 0.
 28783					;IF C(AC3)=A FLOATING 0, THIS TEST PASSES.
DFKAA PDP-10 KL10 BASIC INSTRUCTION DIAGNOSTIC (1) VER 0,2	MACRO %52(537) 09:34 31-JAN-77 PAGE 9-7
DFKAA4	MAC	25-AUG-75 13:58		TEST OF INDEX REGISTER ADDRESSING                                                  SEQ 0625

 28784
 28785			001517		SN=SN+1
 28786			737777			ZZ=<ZZ+ZZ+1>&777777
 28787						IFE	<ZZ-1>,<ZZ=777776>
 28788	046011	402 00 0 00 000003 		SETZM	3		;PRELOAD AC3 WITH 0
 28789	046012	561 01 0 00 737777 		HRROI	1,ZZ		;PRELOAD AC1 WITH FLOATING 0
 28790	046013	201 02 0 00 000001 		MOVEI	2,1		;SETUP INDEX REGISTER
 28791	046014	200 03 0 02 000000 		MOVE	3,(2)		;*FWT FROM INDEXED LOCATION
 28792	046015	312 03 0 00 070351 		CAME	3,[-1,,ZZ]	;TEST INDEXING
 28793						STOP^
 28794	046016	254 04 0 00 046017 		HALT	.+1		;TEST FAILED IF PROGRAM HALTS HERE
 28795	046017	324 00 0 00 046020 		JUMPA	.+1		;IF TEST FAILS, CHANGE THIS INSTRUCTION (JUMPA .+1) TO
 28796									;JUMPA X (X IS THE ADDRESS OF THE FIRST INSTRUCTION
 28797									;IN THE SUBTEST) TO LOOP ON ERROR^
 28798
 28799					;**********
 28800
 28801
 28802					;THIS TEST VERIFIES THAT INDEX REGISTER ADDRESSING FUNCTIONS CORRECTLY.
 28803					;IN THIS TEST, A MOVE INSTRUCTION USING INDEXING IS EXECUTED.  THE MOVE INSTRUCTION
 28804					;SHOULD PLACE THE CONTENTS OF THE LOCATION SPECIFIED BY INDEX REGISTER 2 INTO AC3.
 28805					;SINCE INDEX REGISTER 2 WAS PRELOADED WITH A 1 AND AC1 WAS PRELOADED WITH A
 28806					;FLOATING 0, THE FINAL RESULT IN AC3 SHOULD BE A FLOATING 0.
 28807					;IF C(AC3)=A FLOATING 0, THIS TEST PASSES.
 28808
 28809			001520		SN=SN+1
 28810			677777			ZZ=<ZZ+ZZ+1>&777777
 28811						IFE	<ZZ-1>,<ZZ=777776>
 28812	046020	402 00 0 00 000003 		SETZM	3		;PRELOAD AC3 WITH 0
 28813	046021	561 01 0 00 677777 		HRROI	1,ZZ		;PRELOAD AC1 WITH FLOATING 0
 28814	046022	201 02 0 00 000001 		MOVEI	2,1		;SETUP INDEX REGISTER
 28815	046023	200 03 0 02 000000 		MOVE	3,(2)		;*FWT FROM INDEXED LOCATION
 28816	046024	312 03 0 00 070352 		CAME	3,[-1,,ZZ]	;TEST INDEXING
 28817						STOP^
 28818	046025	254 04 0 00 046026 		HALT	.+1		;TEST FAILED IF PROGRAM HALTS HERE
 28819	046026	324 00 0 00 046027 		JUMPA	.+1		;IF TEST FAILS, CHANGE THIS INSTRUCTION (JUMPA .+1) TO
 28820									;JUMPA X (X IS THE ADDRESS OF THE FIRST INSTRUCTION
 28821									;IN THE SUBTEST) TO LOOP ON ERROR^
 28822
 28823					;**********
 28824
 28825
 28826					;THIS TEST VERIFIES THAT INDEX REGISTER ADDRESSING FUNCTIONS CORRECTLY.
 28827					;IN THIS TEST, A MOVE INSTRUCTION USING INDEXING IS EXECUTED.  THE MOVE INSTRUCTION
 28828					;SHOULD PLACE THE CONTENTS OF THE LOCATION SPECIFIED BY INDEX REGISTER 2 INTO AC3.
 28829					;SINCE INDEX REGISTER 2 WAS PRELOADED WITH A 1 AND AC1 WAS PRELOADED WITH A
 28830					;FLOATING 0, THE FINAL RESULT IN AC3 SHOULD BE A FLOATING 0.
 28831					;IF C(AC3)=A FLOATING 0, THIS TEST PASSES.
 28832
 28833			001521		SN=SN+1
 28834			577777			ZZ=<ZZ+ZZ+1>&777777
 28835						IFE	<ZZ-1>,<ZZ=777776>
 28836	046027	402 00 0 00 000003 		SETZM	3		;PRELOAD AC3 WITH 0
 28837	046030	561 01 0 00 577777 		HRROI	1,ZZ		;PRELOAD AC1 WITH FLOATING 0
 28838	046031	201 02 0 00 000001 		MOVEI	2,1		;SETUP INDEX REGISTER
DFKAA PDP-10 KL10 BASIC INSTRUCTION DIAGNOSTIC (1) VER 0,2	MACRO %52(537) 09:34 31-JAN-77 PAGE 9-8
DFKAA4	MAC	25-AUG-75 13:58		TEST OF INDEX REGISTER ADDRESSING                                                  SEQ 0626

 28839	046032	200 03 0 02 000000 		MOVE	3,(2)		;*FWT FROM INDEXED LOCATION
 28840	046033	312 03 0 00 070353 		CAME	3,[-1,,ZZ]	;TEST INDEXING
 28841						STOP^
 28842	046034	254 04 0 00 046035 		HALT	.+1		;TEST FAILED IF PROGRAM HALTS HERE
 28843	046035	324 00 0 00 046036 		JUMPA	.+1		;IF TEST FAILS, CHANGE THIS INSTRUCTION (JUMPA .+1) TO
 28844									;JUMPA X (X IS THE ADDRESS OF THE FIRST INSTRUCTION
 28845									;IN THE SUBTEST) TO LOOP ON ERROR^
 28846
 28847					;**********
 28848
 28849
 28850					;THIS TEST VERIFIES THAT INDEX REGISTER ADDRESSING FUNCTIONS CORRECTLY.
 28851					;IN THIS TEST, A MOVE INSTRUCTION USING INDEXING IS EXECUTED.  THE MOVE INSTRUCTION
 28852					;SHOULD PLACE THE CONTENTS OF THE LOCATION SPECIFIED BY INDEX REGISTER 2 INTO AC3.
 28853					;SINCE INDEX REGISTER 2 WAS PRELOADED WITH A 1 AND AC1 WAS PRELOADED WITH A
 28854					;FLOATING 0, THE FINAL RESULT IN AC3 SHOULD BE A FLOATING 0.
 28855					;IF C(AC3)=A FLOATING 0, THIS TEST PASSES.
 28856
 28857			001522		SN=SN+1
 28858			377777			ZZ=<ZZ+ZZ+1>&777777
 28859						IFE	<ZZ-1>,<ZZ=777776>
 28860	046036	402 00 0 00 000003 		SETZM	3		;PRELOAD AC3 WITH 0
 28861	046037	561 01 0 00 377777 		HRROI	1,ZZ		;PRELOAD AC1 WITH FLOATING 0
 28862	046040	201 02 0 00 000001 		MOVEI	2,1		;SETUP INDEX REGISTER
 28863	046041	200 03 0 02 000000 		MOVE	3,(2)		;*FWT FROM INDEXED LOCATION
 28864	046042	312 03 0 00 070354 		CAME	3,[-1,,ZZ]	;TEST INDEXING
 28865						STOP^
 28866	046043	254 04 0 00 046044 		HALT	.+1		;TEST FAILED IF PROGRAM HALTS HERE
 28867	046044	324 00 0 00 046045 		JUMPA	.+1		;IF TEST FAILS, CHANGE THIS INSTRUCTION (JUMPA .+1) TO
 28868									;JUMPA X (X IS THE ADDRESS OF THE FIRST INSTRUCTION
 28869									;IN THE SUBTEST) TO LOOP ON ERROR^
 28870
 28871					;**********
 28872
DFKAA PDP-10 KL10 BASIC INSTRUCTION DIAGNOSTIC (1) VER 0,2	MACRO %52(537) 09:34 31-JAN-77 PAGE 10
DFKAA4	MAC	25-AUG-75 13:58		TEST OF INDEX REGISTER ADDRESSING                                                  SEQ 0627

 28873			001600		SN=1600
 28874			000000			ZZ=0
 28875
 28876					C1600:	REPEAT	^D18,<
 28877					;THIS TEST VERIFIES THAT INDEX REGISTER ADDRESSING FUNCTIONS CORRECTLY.
 28878					;IN THIS TEST, A MOVE INSTRUCTION USING INDEXING IS EXECUTED.  THE MOVE INSTRUCTION
 28879					;SHOULD PLACE THE CONTENTS OF THE LOCATION SPECIFIED BY INDEX REGISTER 2 INTO AC3.
 28880					;SINCE INDEX REGISTER 2 WAS PRELOADED WITH A 1 AND AC1 WAS PRELOADED WITH A
 28881					;FLOATING 0, THE FINAL RESULT IN AC3 SHOULD BE A FLOATING 0.
 28882					;IF C(AC3)=A FLOATING 0, THIS TEST PASSES.
 28883
 28884					SN=SN+1
 28885						ZZ=<ZZ+ZZ+1>&777777
 28886						IFE	<ZZ-1>,<ZZ=777776>
 28887						SETZM	3		;PRELOAD AC3 WITH 0
 28888						HRLOI	1,ZZ		;PRELOAD AC1 WITH FLOATING 0
 28889						MOVEI	2,1		;SETUP INDEX REGISTER
 28890						MOVE	3,(2)		;*FWT FROM INDEXED LOCATION
 28891						CAME	3,[ZZ,,-1]	;TEST INDEXING
 28892						STOP
 28893
 28894					;**********
 28895					>
 28896
 28897					;THIS TEST VERIFIES THAT INDEX REGISTER ADDRESSING FUNCTIONS CORRECTLY.
 28898					;IN THIS TEST, A MOVE INSTRUCTION USING INDEXING IS EXECUTED.  THE MOVE INSTRUCTION
 28899					;SHOULD PLACE THE CONTENTS OF THE LOCATION SPECIFIED BY INDEX REGISTER 2 INTO AC3.
 28900					;SINCE INDEX REGISTER 2 WAS PRELOADED WITH A 1 AND AC1 WAS PRELOADED WITH A
 28901					;FLOATING 0, THE FINAL RESULT IN AC3 SHOULD BE A FLOATING 0.
 28902					;IF C(AC3)=A FLOATING 0, THIS TEST PASSES.
 28903
 28904			001601		SN=SN+1
 28905			000001			ZZ=<ZZ+ZZ+1>&777777
 28906			777776			IFE	<ZZ-1>,<ZZ=777776>
 28907	046045	402 00 0 00 000003 		SETZM	3		;PRELOAD AC3 WITH 0
 28908	046046	525 01 0 00 777776 		HRLOI	1,ZZ		;PRELOAD AC1 WITH FLOATING 0
 28909	046047	201 02 0 00 000001 		MOVEI	2,1		;SETUP INDEX REGISTER
 28910	046050	200 03 0 02 000000 		MOVE	3,(2)		;*FWT FROM INDEXED LOCATION
 28911	046051	312 03 0 00 070355 		CAME	3,[ZZ,,-1]	;TEST INDEXING
 28912						STOP^
 28913	046052	254 04 0 00 046053 		HALT	.+1		;TEST FAILED IF PROGRAM HALTS HERE
 28914	046053	324 00 0 00 046054 		JUMPA	.+1		;IF TEST FAILS, CHANGE THIS INSTRUCTION (JUMPA .+1) TO
 28915									;JUMPA X (X IS THE ADDRESS OF THE FIRST INSTRUCTION
 28916									;IN THE SUBTEST) TO LOOP ON ERROR^
 28917
 28918					;**********
 28919
 28920
 28921					;THIS TEST VERIFIES THAT INDEX REGISTER ADDRESSING FUNCTIONS CORRECTLY.
 28922					;IN THIS TEST, A MOVE INSTRUCTION USING INDEXING IS EXECUTED.  THE MOVE INSTRUCTION
 28923					;SHOULD PLACE THE CONTENTS OF THE LOCATION SPECIFIED BY INDEX REGISTER 2 INTO AC3.
 28924					;SINCE INDEX REGISTER 2 WAS PRELOADED WITH A 1 AND AC1 WAS PRELOADED WITH A
 28925					;FLOATING 0, THE FINAL RESULT IN AC3 SHOULD BE A FLOATING 0.
 28926					;IF C(AC3)=A FLOATING 0, THIS TEST PASSES.
 28927
DFKAA PDP-10 KL10 BASIC INSTRUCTION DIAGNOSTIC (1) VER 0,2	MACRO %52(537) 09:34 31-JAN-77 PAGE 10-1
DFKAA4	MAC	25-AUG-75 13:58		TEST OF INDEX REGISTER ADDRESSING                                                  SEQ 0628

 28928			001602		SN=SN+1
 28929			777775			ZZ=<ZZ+ZZ+1>&777777
 28930						IFE	<ZZ-1>,<ZZ=777776>
 28931	046054	402 00 0 00 000003 		SETZM	3		;PRELOAD AC3 WITH 0
 28932	046055	525 01 0 00 777775 		HRLOI	1,ZZ		;PRELOAD AC1 WITH FLOATING 0
 28933	046056	201 02 0 00 000001 		MOVEI	2,1		;SETUP INDEX REGISTER
 28934	046057	200 03 0 02 000000 		MOVE	3,(2)		;*FWT FROM INDEXED LOCATION
 28935	046060	312 03 0 00 070356 		CAME	3,[ZZ,,-1]	;TEST INDEXING
 28936						STOP^
 28937	046061	254 04 0 00 046062 		HALT	.+1		;TEST FAILED IF PROGRAM HALTS HERE
 28938	046062	324 00 0 00 046063 		JUMPA	.+1		;IF TEST FAILS, CHANGE THIS INSTRUCTION (JUMPA .+1) TO
 28939									;JUMPA X (X IS THE ADDRESS OF THE FIRST INSTRUCTION
 28940									;IN THE SUBTEST) TO LOOP ON ERROR^
 28941
 28942					;**********
 28943
 28944
 28945					;THIS TEST VERIFIES THAT INDEX REGISTER ADDRESSING FUNCTIONS CORRECTLY.
 28946					;IN THIS TEST, A MOVE INSTRUCTION USING INDEXING IS EXECUTED.  THE MOVE INSTRUCTION
 28947					;SHOULD PLACE THE CONTENTS OF THE LOCATION SPECIFIED BY INDEX REGISTER 2 INTO AC3.
 28948					;SINCE INDEX REGISTER 2 WAS PRELOADED WITH A 1 AND AC1 WAS PRELOADED WITH A
 28949					;FLOATING 0, THE FINAL RESULT IN AC3 SHOULD BE A FLOATING 0.
 28950					;IF C(AC3)=A FLOATING 0, THIS TEST PASSES.
 28951
 28952			001603		SN=SN+1
 28953			777773			ZZ=<ZZ+ZZ+1>&777777
 28954						IFE	<ZZ-1>,<ZZ=777776>
 28955	046063	402 00 0 00 000003 		SETZM	3		;PRELOAD AC3 WITH 0
 28956	046064	525 01 0 00 777773 		HRLOI	1,ZZ		;PRELOAD AC1 WITH FLOATING 0
 28957	046065	201 02 0 00 000001 		MOVEI	2,1		;SETUP INDEX REGISTER
 28958	046066	200 03 0 02 000000 		MOVE	3,(2)		;*FWT FROM INDEXED LOCATION
 28959	046067	312 03 0 00 070357 		CAME	3,[ZZ,,-1]	;TEST INDEXING
 28960						STOP^
 28961	046070	254 04 0 00 046071 		HALT	.+1		;TEST FAILED IF PROGRAM HALTS HERE
 28962	046071	324 00 0 00 046072 		JUMPA	.+1		;IF TEST FAILS, CHANGE THIS INSTRUCTION (JUMPA .+1) TO
 28963									;JUMPA X (X IS THE ADDRESS OF THE FIRST INSTRUCTION
 28964									;IN THE SUBTEST) TO LOOP ON ERROR^
 28965
 28966					;**********
 28967
 28968
 28969					;THIS TEST VERIFIES THAT INDEX REGISTER ADDRESSING FUNCTIONS CORRECTLY.
 28970					;IN THIS TEST, A MOVE INSTRUCTION USING INDEXING IS EXECUTED.  THE MOVE INSTRUCTION
 28971					;SHOULD PLACE THE CONTENTS OF THE LOCATION SPECIFIED BY INDEX REGISTER 2 INTO AC3.
 28972					;SINCE INDEX REGISTER 2 WAS PRELOADED WITH A 1 AND AC1 WAS PRELOADED WITH A
 28973					;FLOATING 0, THE FINAL RESULT IN AC3 SHOULD BE A FLOATING 0.
 28974					;IF C(AC3)=A FLOATING 0, THIS TEST PASSES.
 28975
 28976			001604		SN=SN+1
 28977			777767			ZZ=<ZZ+ZZ+1>&777777
 28978						IFE	<ZZ-1>,<ZZ=777776>
 28979	046072	402 00 0 00 000003 		SETZM	3		;PRELOAD AC3 WITH 0
 28980	046073	525 01 0 00 777767 		HRLOI	1,ZZ		;PRELOAD AC1 WITH FLOATING 0
 28981	046074	201 02 0 00 000001 		MOVEI	2,1		;SETUP INDEX REGISTER
 28982	046075	200 03 0 02 000000 		MOVE	3,(2)		;*FWT FROM INDEXED LOCATION
DFKAA PDP-10 KL10 BASIC INSTRUCTION DIAGNOSTIC (1) VER 0,2	MACRO %52(537) 09:34 31-JAN-77 PAGE 10-2
DFKAA4	MAC	25-AUG-75 13:58		TEST OF INDEX REGISTER ADDRESSING                                                  SEQ 0629

 28983	046076	312 03 0 00 070360 		CAME	3,[ZZ,,-1]	;TEST INDEXING
 28984						STOP^
 28985	046077	254 04 0 00 046100 		HALT	.+1		;TEST FAILED IF PROGRAM HALTS HERE
 28986	046100	324 00 0 00 046101 		JUMPA	.+1		;IF TEST FAILS, CHANGE THIS INSTRUCTION (JUMPA .+1) TO
 28987									;JUMPA X (X IS THE ADDRESS OF THE FIRST INSTRUCTION
 28988									;IN THE SUBTEST) TO LOOP ON ERROR^
 28989
 28990					;**********
 28991
 28992
 28993					;THIS TEST VERIFIES THAT INDEX REGISTER ADDRESSING FUNCTIONS CORRECTLY.
 28994					;IN THIS TEST, A MOVE INSTRUCTION USING INDEXING IS EXECUTED.  THE MOVE INSTRUCTION
 28995					;SHOULD PLACE THE CONTENTS OF THE LOCATION SPECIFIED BY INDEX REGISTER 2 INTO AC3.
 28996					;SINCE INDEX REGISTER 2 WAS PRELOADED WITH A 1 AND AC1 WAS PRELOADED WITH A
 28997					;FLOATING 0, THE FINAL RESULT IN AC3 SHOULD BE A FLOATING 0.
 28998					;IF C(AC3)=A FLOATING 0, THIS TEST PASSES.
 28999
 29000			001605		SN=SN+1
 29001			777757			ZZ=<ZZ+ZZ+1>&777777
 29002						IFE	<ZZ-1>,<ZZ=777776>
 29003	046101	402 00 0 00 000003 		SETZM	3		;PRELOAD AC3 WITH 0
 29004	046102	525 01 0 00 777757 		HRLOI	1,ZZ		;PRELOAD AC1 WITH FLOATING 0
 29005	046103	201 02 0 00 000001 		MOVEI	2,1		;SETUP INDEX REGISTER
 29006	046104	200 03 0 02 000000 		MOVE	3,(2)		;*FWT FROM INDEXED LOCATION
 29007	046105	312 03 0 00 070361 		CAME	3,[ZZ,,-1]	;TEST INDEXING
 29008						STOP^
 29009	046106	254 04 0 00 046107 		HALT	.+1		;TEST FAILED IF PROGRAM HALTS HERE
 29010	046107	324 00 0 00 046110 		JUMPA	.+1		;IF TEST FAILS, CHANGE THIS INSTRUCTION (JUMPA .+1) TO
 29011									;JUMPA X (X IS THE ADDRESS OF THE FIRST INSTRUCTION
 29012									;IN THE SUBTEST) TO LOOP ON ERROR^
 29013
 29014					;**********
 29015
 29016
 29017					;THIS TEST VERIFIES THAT INDEX REGISTER ADDRESSING FUNCTIONS CORRECTLY.
 29018					;IN THIS TEST, A MOVE INSTRUCTION USING INDEXING IS EXECUTED.  THE MOVE INSTRUCTION
 29019					;SHOULD PLACE THE CONTENTS OF THE LOCATION SPECIFIED BY INDEX REGISTER 2 INTO AC3.
 29020					;SINCE INDEX REGISTER 2 WAS PRELOADED WITH A 1 AND AC1 WAS PRELOADED WITH A
 29021					;FLOATING 0, THE FINAL RESULT IN AC3 SHOULD BE A FLOATING 0.
 29022					;IF C(AC3)=A FLOATING 0, THIS TEST PASSES.
 29023
 29024			001606		SN=SN+1
 29025			777737			ZZ=<ZZ+ZZ+1>&777777
 29026						IFE	<ZZ-1>,<ZZ=777776>
 29027	046110	402 00 0 00 000003 		SETZM	3		;PRELOAD AC3 WITH 0
 29028	046111	525 01 0 00 777737 		HRLOI	1,ZZ		;PRELOAD AC1 WITH FLOATING 0
 29029	046112	201 02 0 00 000001 		MOVEI	2,1		;SETUP INDEX REGISTER
 29030	046113	200 03 0 02 000000 		MOVE	3,(2)		;*FWT FROM INDEXED LOCATION
 29031	046114	312 03 0 00 070362 		CAME	3,[ZZ,,-1]	;TEST INDEXING
 29032						STOP^
 29033	046115	254 04 0 00 046116 		HALT	.+1		;TEST FAILED IF PROGRAM HALTS HERE
 29034	046116	324 00 0 00 046117 		JUMPA	.+1		;IF TEST FAILS, CHANGE THIS INSTRUCTION (JUMPA .+1) TO
 29035									;JUMPA X (X IS THE ADDRESS OF THE FIRST INSTRUCTION
 29036									;IN THE SUBTEST) TO LOOP ON ERROR^
 29037
DFKAA PDP-10 KL10 BASIC INSTRUCTION DIAGNOSTIC (1) VER 0,2	MACRO %52(537) 09:34 31-JAN-77 PAGE 10-3
DFKAA4	MAC	25-AUG-75 13:58		TEST OF INDEX REGISTER ADDRESSING                                                  SEQ 0630

 29038					;**********
 29039
 29040
 29041					;THIS TEST VERIFIES THAT INDEX REGISTER ADDRESSING FUNCTIONS CORRECTLY.
 29042					;IN THIS TEST, A MOVE INSTRUCTION USING INDEXING IS EXECUTED.  THE MOVE INSTRUCTION
 29043					;SHOULD PLACE THE CONTENTS OF THE LOCATION SPECIFIED BY INDEX REGISTER 2 INTO AC3.
 29044					;SINCE INDEX REGISTER 2 WAS PRELOADED WITH A 1 AND AC1 WAS PRELOADED WITH A
 29045					;FLOATING 0, THE FINAL RESULT IN AC3 SHOULD BE A FLOATING 0.
 29046					;IF C(AC3)=A FLOATING 0, THIS TEST PASSES.
 29047
 29048			001607		SN=SN+1
 29049			777677			ZZ=<ZZ+ZZ+1>&777777
 29050						IFE	<ZZ-1>,<ZZ=777776>
 29051	046117	402 00 0 00 000003 		SETZM	3		;PRELOAD AC3 WITH 0
 29052	046120	525 01 0 00 777677 		HRLOI	1,ZZ		;PRELOAD AC1 WITH FLOATING 0
 29053	046121	201 02 0 00 000001 		MOVEI	2,1		;SETUP INDEX REGISTER
 29054	046122	200 03 0 02 000000 		MOVE	3,(2)		;*FWT FROM INDEXED LOCATION
 29055	046123	312 03 0 00 070363 		CAME	3,[ZZ,,-1]	;TEST INDEXING
 29056						STOP^
 29057	046124	254 04 0 00 046125 		HALT	.+1		;TEST FAILED IF PROGRAM HALTS HERE
 29058	046125	324 00 0 00 046126 		JUMPA	.+1		;IF TEST FAILS, CHANGE THIS INSTRUCTION (JUMPA .+1) TO
 29059									;JUMPA X (X IS THE ADDRESS OF THE FIRST INSTRUCTION
 29060									;IN THE SUBTEST) TO LOOP ON ERROR^
 29061
 29062					;**********
 29063
 29064
 29065					;THIS TEST VERIFIES THAT INDEX REGISTER ADDRESSING FUNCTIONS CORRECTLY.
 29066					;IN THIS TEST, A MOVE INSTRUCTION USING INDEXING IS EXECUTED.  THE MOVE INSTRUCTION
 29067					;SHOULD PLACE THE CONTENTS OF THE LOCATION SPECIFIED BY INDEX REGISTER 2 INTO AC3.
 29068					;SINCE INDEX REGISTER 2 WAS PRELOADED WITH A 1 AND AC1 WAS PRELOADED WITH A
 29069					;FLOATING 0, THE FINAL RESULT IN AC3 SHOULD BE A FLOATING 0.
 29070					;IF C(AC3)=A FLOATING 0, THIS TEST PASSES.
 29071
 29072			001610		SN=SN+1
 29073			777577			ZZ=<ZZ+ZZ+1>&777777
 29074						IFE	<ZZ-1>,<ZZ=777776>
 29075	046126	402 00 0 00 000003 		SETZM	3		;PRELOAD AC3 WITH 0
 29076	046127	525 01 0 00 777577 		HRLOI	1,ZZ		;PRELOAD AC1 WITH FLOATING 0
 29077	046130	201 02 0 00 000001 		MOVEI	2,1		;SETUP INDEX REGISTER
 29078	046131	200 03 0 02 000000 		MOVE	3,(2)		;*FWT FROM INDEXED LOCATION
 29079	046132	312 03 0 00 070364 		CAME	3,[ZZ,,-1]	;TEST INDEXING
 29080						STOP^
 29081	046133	254 04 0 00 046134 		HALT	.+1		;TEST FAILED IF PROGRAM HALTS HERE
 29082	046134	324 00 0 00 046135 		JUMPA	.+1		;IF TEST FAILS, CHANGE THIS INSTRUCTION (JUMPA .+1) TO
 29083									;JUMPA X (X IS THE ADDRESS OF THE FIRST INSTRUCTION
 29084									;IN THE SUBTEST) TO LOOP ON ERROR^
 29085
 29086					;**********
 29087
 29088
 29089					;THIS TEST VERIFIES THAT INDEX REGISTER ADDRESSING FUNCTIONS CORRECTLY.
 29090					;IN THIS TEST, A MOVE INSTRUCTION USING INDEXING IS EXECUTED.  THE MOVE INSTRUCTION
 29091					;SHOULD PLACE THE CONTENTS OF THE LOCATION SPECIFIED BY INDEX REGISTER 2 INTO AC3.
 29092					;SINCE INDEX REGISTER 2 WAS PRELOADED WITH A 1 AND AC1 WAS PRELOADED WITH A
DFKAA PDP-10 KL10 BASIC INSTRUCTION DIAGNOSTIC (1) VER 0,2	MACRO %52(537) 09:34 31-JAN-77 PAGE 10-4
DFKAA4	MAC	25-AUG-75 13:58		TEST OF INDEX REGISTER ADDRESSING                                                  SEQ 0631

 29093					;FLOATING 0, THE FINAL RESULT IN AC3 SHOULD BE A FLOATING 0.
 29094					;IF C(AC3)=A FLOATING 0, THIS TEST PASSES.
 29095
 29096			001611		SN=SN+1
 29097			777377			ZZ=<ZZ+ZZ+1>&777777
 29098						IFE	<ZZ-1>,<ZZ=777776>
 29099	046135	402 00 0 00 000003 		SETZM	3		;PRELOAD AC3 WITH 0
 29100	046136	525 01 0 00 777377 		HRLOI	1,ZZ		;PRELOAD AC1 WITH FLOATING 0
 29101	046137	201 02 0 00 000001 		MOVEI	2,1		;SETUP INDEX REGISTER
 29102	046140	200 03 0 02 000000 		MOVE	3,(2)		;*FWT FROM INDEXED LOCATION
 29103	046141	312 03 0 00 070365 		CAME	3,[ZZ,,-1]	;TEST INDEXING
 29104						STOP^
 29105	046142	254 04 0 00 046143 		HALT	.+1		;TEST FAILED IF PROGRAM HALTS HERE
 29106	046143	324 00 0 00 046144 		JUMPA	.+1		;IF TEST FAILS, CHANGE THIS INSTRUCTION (JUMPA .+1) TO
 29107									;JUMPA X (X IS THE ADDRESS OF THE FIRST INSTRUCTION
 29108									;IN THE SUBTEST) TO LOOP ON ERROR^
 29109
 29110					;**********
 29111
 29112
 29113					;THIS TEST VERIFIES THAT INDEX REGISTER ADDRESSING FUNCTIONS CORRECTLY.
 29114					;IN THIS TEST, A MOVE INSTRUCTION USING INDEXING IS EXECUTED.  THE MOVE INSTRUCTION
 29115					;SHOULD PLACE THE CONTENTS OF THE LOCATION SPECIFIED BY INDEX REGISTER 2 INTO AC3.
 29116					;SINCE INDEX REGISTER 2 WAS PRELOADED WITH A 1 AND AC1 WAS PRELOADED WITH A
 29117					;FLOATING 0, THE FINAL RESULT IN AC3 SHOULD BE A FLOATING 0.
 29118					;IF C(AC3)=A FLOATING 0, THIS TEST PASSES.
 29119
 29120			001612		SN=SN+1
 29121			776777			ZZ=<ZZ+ZZ+1>&777777
 29122						IFE	<ZZ-1>,<ZZ=777776>
 29123	046144	402 00 0 00 000003 		SETZM	3		;PRELOAD AC3 WITH 0
 29124	046145	525 01 0 00 776777 		HRLOI	1,ZZ		;PRELOAD AC1 WITH FLOATING 0
 29125	046146	201 02 0 00 000001 		MOVEI	2,1		;SETUP INDEX REGISTER
 29126	046147	200 03 0 02 000000 		MOVE	3,(2)		;*FWT FROM INDEXED LOCATION
 29127	046150	312 03 0 00 070366 		CAME	3,[ZZ,,-1]	;TEST INDEXING
 29128						STOP^
 29129	046151	254 04 0 00 046152 		HALT	.+1		;TEST FAILED IF PROGRAM HALTS HERE
 29130	046152	324 00 0 00 046153 		JUMPA	.+1		;IF TEST FAILS, CHANGE THIS INSTRUCTION (JUMPA .+1) TO
 29131									;JUMPA X (X IS THE ADDRESS OF THE FIRST INSTRUCTION
 29132									;IN THE SUBTEST) TO LOOP ON ERROR^
 29133
 29134					;**********
 29135
 29136
 29137					;THIS TEST VERIFIES THAT INDEX REGISTER ADDRESSING FUNCTIONS CORRECTLY.
 29138					;IN THIS TEST, A MOVE INSTRUCTION USING INDEXING IS EXECUTED.  THE MOVE INSTRUCTION
 29139					;SHOULD PLACE THE CONTENTS OF THE LOCATION SPECIFIED BY INDEX REGISTER 2 INTO AC3.
 29140					;SINCE INDEX REGISTER 2 WAS PRELOADED WITH A 1 AND AC1 WAS PRELOADED WITH A
 29141					;FLOATING 0, THE FINAL RESULT IN AC3 SHOULD BE A FLOATING 0.
 29142					;IF C(AC3)=A FLOATING 0, THIS TEST PASSES.
 29143
 29144			001613		SN=SN+1
 29145			775777			ZZ=<ZZ+ZZ+1>&777777
 29146						IFE	<ZZ-1>,<ZZ=777776>
 29147	046153	402 00 0 00 000003 		SETZM	3		;PRELOAD AC3 WITH 0
DFKAA PDP-10 KL10 BASIC INSTRUCTION DIAGNOSTIC (1) VER 0,2	MACRO %52(537) 09:34 31-JAN-77 PAGE 10-5
DFKAA4	MAC	25-AUG-75 13:58		TEST OF INDEX REGISTER ADDRESSING                                                  SEQ 0632

 29148	046154	525 01 0 00 775777 		HRLOI	1,ZZ		;PRELOAD AC1 WITH FLOATING 0
 29149	046155	201 02 0 00 000001 		MOVEI	2,1		;SETUP INDEX REGISTER
 29150	046156	200 03 0 02 000000 		MOVE	3,(2)		;*FWT FROM INDEXED LOCATION
 29151	046157	312 03 0 00 070367 		CAME	3,[ZZ,,-1]	;TEST INDEXING
 29152						STOP^
 29153	046160	254 04 0 00 046161 		HALT	.+1		;TEST FAILED IF PROGRAM HALTS HERE
 29154	046161	324 00 0 00 046162 		JUMPA	.+1		;IF TEST FAILS, CHANGE THIS INSTRUCTION (JUMPA .+1) TO
 29155									;JUMPA X (X IS THE ADDRESS OF THE FIRST INSTRUCTION
 29156									;IN THE SUBTEST) TO LOOP ON ERROR^
 29157
 29158					;**********
 29159
 29160
 29161					;THIS TEST VERIFIES THAT INDEX REGISTER ADDRESSING FUNCTIONS CORRECTLY.
 29162					;IN THIS TEST, A MOVE INSTRUCTION USING INDEXING IS EXECUTED.  THE MOVE INSTRUCTION
 29163					;SHOULD PLACE THE CONTENTS OF THE LOCATION SPECIFIED BY INDEX REGISTER 2 INTO AC3.
 29164					;SINCE INDEX REGISTER 2 WAS PRELOADED WITH A 1 AND AC1 WAS PRELOADED WITH A
 29165					;FLOATING 0, THE FINAL RESULT IN AC3 SHOULD BE A FLOATING 0.
 29166					;IF C(AC3)=A FLOATING 0, THIS TEST PASSES.
 29167
 29168			001614		SN=SN+1
 29169			773777			ZZ=<ZZ+ZZ+1>&777777
 29170						IFE	<ZZ-1>,<ZZ=777776>
 29171	046162	402 00 0 00 000003 		SETZM	3		;PRELOAD AC3 WITH 0
 29172	046163	525 01 0 00 773777 		HRLOI	1,ZZ		;PRELOAD AC1 WITH FLOATING 0
 29173	046164	201 02 0 00 000001 		MOVEI	2,1		;SETUP INDEX REGISTER
 29174	046165	200 03 0 02 000000 		MOVE	3,(2)		;*FWT FROM INDEXED LOCATION
 29175	046166	312 03 0 00 070370 		CAME	3,[ZZ,,-1]	;TEST INDEXING
 29176						STOP^
 29177	046167	254 04 0 00 046170 		HALT	.+1		;TEST FAILED IF PROGRAM HALTS HERE
 29178	046170	324 00 0 00 046171 		JUMPA	.+1		;IF TEST FAILS, CHANGE THIS INSTRUCTION (JUMPA .+1) TO
 29179									;JUMPA X (X IS THE ADDRESS OF THE FIRST INSTRUCTION
 29180									;IN THE SUBTEST) TO LOOP ON ERROR^
 29181
 29182					;**********
 29183
 29184
 29185					;THIS TEST VERIFIES THAT INDEX REGISTER ADDRESSING FUNCTIONS CORRECTLY.
 29186					;IN THIS TEST, A MOVE INSTRUCTION USING INDEXING IS EXECUTED.  THE MOVE INSTRUCTION
 29187					;SHOULD PLACE THE CONTENTS OF THE LOCATION SPECIFIED BY INDEX REGISTER 2 INTO AC3.
 29188					;SINCE INDEX REGISTER 2 WAS PRELOADED WITH A 1 AND AC1 WAS PRELOADED WITH A
 29189					;FLOATING 0, THE FINAL RESULT IN AC3 SHOULD BE A FLOATING 0.
 29190					;IF C(AC3)=A FLOATING 0, THIS TEST PASSES.
 29191
 29192			001615		SN=SN+1
 29193			767777			ZZ=<ZZ+ZZ+1>&777777
 29194						IFE	<ZZ-1>,<ZZ=777776>
 29195	046171	402 00 0 00 000003 		SETZM	3		;PRELOAD AC3 WITH 0
 29196	046172	525 01 0 00 767777 		HRLOI	1,ZZ		;PRELOAD AC1 WITH FLOATING 0
 29197	046173	201 02 0 00 000001 		MOVEI	2,1		;SETUP INDEX REGISTER
 29198	046174	200 03 0 02 000000 		MOVE	3,(2)		;*FWT FROM INDEXED LOCATION
 29199	046175	312 03 0 00 070371 		CAME	3,[ZZ,,-1]	;TEST INDEXING
 29200						STOP^
 29201	046176	254 04 0 00 046177 		HALT	.+1		;TEST FAILED IF PROGRAM HALTS HERE
 29202	046177	324 00 0 00 046200 		JUMPA	.+1		;IF TEST FAILS, CHANGE THIS INSTRUCTION (JUMPA .+1) TO
DFKAA PDP-10 KL10 BASIC INSTRUCTION DIAGNOSTIC (1) VER 0,2	MACRO %52(537) 09:34 31-JAN-77 PAGE 10-6
DFKAA4	MAC	25-AUG-75 13:58		TEST OF INDEX REGISTER ADDRESSING                                                  SEQ 0633

 29203									;JUMPA X (X IS THE ADDRESS OF THE FIRST INSTRUCTION
 29204									;IN THE SUBTEST) TO LOOP ON ERROR^
 29205
 29206					;**********
 29207
 29208
 29209					;THIS TEST VERIFIES THAT INDEX REGISTER ADDRESSING FUNCTIONS CORRECTLY.
 29210					;IN THIS TEST, A MOVE INSTRUCTION USING INDEXING IS EXECUTED.  THE MOVE INSTRUCTION
 29211					;SHOULD PLACE THE CONTENTS OF THE LOCATION SPECIFIED BY INDEX REGISTER 2 INTO AC3.
 29212					;SINCE INDEX REGISTER 2 WAS PRELOADED WITH A 1 AND AC1 WAS PRELOADED WITH A
 29213					;FLOATING 0, THE FINAL RESULT IN AC3 SHOULD BE A FLOATING 0.
 29214					;IF C(AC3)=A FLOATING 0, THIS TEST PASSES.
 29215
 29216			001616		SN=SN+1
 29217			757777			ZZ=<ZZ+ZZ+1>&777777
 29218						IFE	<ZZ-1>,<ZZ=777776>
 29219	046200	402 00 0 00 000003 		SETZM	3		;PRELOAD AC3 WITH 0
 29220	046201	525 01 0 00 757777 		HRLOI	1,ZZ		;PRELOAD AC1 WITH FLOATING 0
 29221	046202	201 02 0 00 000001 		MOVEI	2,1		;SETUP INDEX REGISTER
 29222	046203	200 03 0 02 000000 		MOVE	3,(2)		;*FWT FROM INDEXED LOCATION
 29223	046204	312 03 0 00 070372 		CAME	3,[ZZ,,-1]	;TEST INDEXING
 29224						STOP^
 29225	046205	254 04 0 00 046206 		HALT	.+1		;TEST FAILED IF PROGRAM HALTS HERE
 29226	046206	324 00 0 00 046207 		JUMPA	.+1		;IF TEST FAILS, CHANGE THIS INSTRUCTION (JUMPA .+1) TO
 29227									;JUMPA X (X IS THE ADDRESS OF THE FIRST INSTRUCTION
 29228									;IN THE SUBTEST) TO LOOP ON ERROR^
 29229
 29230					;**********
 29231
 29232
 29233					;THIS TEST VERIFIES THAT INDEX REGISTER ADDRESSING FUNCTIONS CORRECTLY.
 29234					;IN THIS TEST, A MOVE INSTRUCTION USING INDEXING IS EXECUTED.  THE MOVE INSTRUCTION
 29235					;SHOULD PLACE THE CONTENTS OF THE LOCATION SPECIFIED BY INDEX REGISTER 2 INTO AC3.
 29236					;SINCE INDEX REGISTER 2 WAS PRELOADED WITH A 1 AND AC1 WAS PRELOADED WITH A
 29237					;FLOATING 0, THE FINAL RESULT IN AC3 SHOULD BE A FLOATING 0.
 29238					;IF C(AC3)=A FLOATING 0, THIS TEST PASSES.
 29239
 29240			001617		SN=SN+1
 29241			737777			ZZ=<ZZ+ZZ+1>&777777
 29242						IFE	<ZZ-1>,<ZZ=777776>
 29243	046207	402 00 0 00 000003 		SETZM	3		;PRELOAD AC3 WITH 0
 29244	046210	525 01 0 00 737777 		HRLOI	1,ZZ		;PRELOAD AC1 WITH FLOATING 0
 29245	046211	201 02 0 00 000001 		MOVEI	2,1		;SETUP INDEX REGISTER
 29246	046212	200 03 0 02 000000 		MOVE	3,(2)		;*FWT FROM INDEXED LOCATION
 29247	046213	312 03 0 00 070373 		CAME	3,[ZZ,,-1]	;TEST INDEXING
 29248						STOP^
 29249	046214	254 04 0 00 046215 		HALT	.+1		;TEST FAILED IF PROGRAM HALTS HERE
 29250	046215	324 00 0 00 046216 		JUMPA	.+1		;IF TEST FAILS, CHANGE THIS INSTRUCTION (JUMPA .+1) TO
 29251									;JUMPA X (X IS THE ADDRESS OF THE FIRST INSTRUCTION
 29252									;IN THE SUBTEST) TO LOOP ON ERROR^
 29253
 29254					;**********
 29255
 29256
 29257					;THIS TEST VERIFIES THAT INDEX REGISTER ADDRESSING FUNCTIONS CORRECTLY.
DFKAA PDP-10 KL10 BASIC INSTRUCTION DIAGNOSTIC (1) VER 0,2	MACRO %52(537) 09:34 31-JAN-77 PAGE 10-7
DFKAA4	MAC	25-AUG-75 13:58		TEST OF INDEX REGISTER ADDRESSING                                                  SEQ 0634

 29258					;IN THIS TEST, A MOVE INSTRUCTION USING INDEXING IS EXECUTED.  THE MOVE INSTRUCTION
 29259					;SHOULD PLACE THE CONTENTS OF THE LOCATION SPECIFIED BY INDEX REGISTER 2 INTO AC3.
 29260					;SINCE INDEX REGISTER 2 WAS PRELOADED WITH A 1 AND AC1 WAS PRELOADED WITH A
 29261					;FLOATING 0, THE FINAL RESULT IN AC3 SHOULD BE A FLOATING 0.
 29262					;IF C(AC3)=A FLOATING 0, THIS TEST PASSES.
 29263
 29264			001620		SN=SN+1
 29265			677777			ZZ=<ZZ+ZZ+1>&777777
 29266						IFE	<ZZ-1>,<ZZ=777776>
 29267	046216	402 00 0 00 000003 		SETZM	3		;PRELOAD AC3 WITH 0
 29268	046217	525 01 0 00 677777 		HRLOI	1,ZZ		;PRELOAD AC1 WITH FLOATING 0
 29269	046220	201 02 0 00 000001 		MOVEI	2,1		;SETUP INDEX REGISTER
 29270	046221	200 03 0 02 000000 		MOVE	3,(2)		;*FWT FROM INDEXED LOCATION
 29271	046222	312 03 0 00 070374 		CAME	3,[ZZ,,-1]	;TEST INDEXING
 29272						STOP^
 29273	046223	254 04 0 00 046224 		HALT	.+1		;TEST FAILED IF PROGRAM HALTS HERE
 29274	046224	324 00 0 00 046225 		JUMPA	.+1		;IF TEST FAILS, CHANGE THIS INSTRUCTION (JUMPA .+1) TO
 29275									;JUMPA X (X IS THE ADDRESS OF THE FIRST INSTRUCTION
 29276									;IN THE SUBTEST) TO LOOP ON ERROR^
 29277
 29278					;**********
 29279
 29280
 29281					;THIS TEST VERIFIES THAT INDEX REGISTER ADDRESSING FUNCTIONS CORRECTLY.
 29282					;IN THIS TEST, A MOVE INSTRUCTION USING INDEXING IS EXECUTED.  THE MOVE INSTRUCTION
 29283					;SHOULD PLACE THE CONTENTS OF THE LOCATION SPECIFIED BY INDEX REGISTER 2 INTO AC3.
 29284					;SINCE INDEX REGISTER 2 WAS PRELOADED WITH A 1 AND AC1 WAS PRELOADED WITH A
 29285					;FLOATING 0, THE FINAL RESULT IN AC3 SHOULD BE A FLOATING 0.
 29286					;IF C(AC3)=A FLOATING 0, THIS TEST PASSES.
 29287
 29288			001621		SN=SN+1
 29289			577777			ZZ=<ZZ+ZZ+1>&777777
 29290						IFE	<ZZ-1>,<ZZ=777776>
 29291	046225	402 00 0 00 000003 		SETZM	3		;PRELOAD AC3 WITH 0
 29292	046226	525 01 0 00 577777 		HRLOI	1,ZZ		;PRELOAD AC1 WITH FLOATING 0
 29293	046227	201 02 0 00 000001 		MOVEI	2,1		;SETUP INDEX REGISTER
 29294	046230	200 03 0 02 000000 		MOVE	3,(2)		;*FWT FROM INDEXED LOCATION
 29295	046231	312 03 0 00 070375 		CAME	3,[ZZ,,-1]	;TEST INDEXING
 29296						STOP^
 29297	046232	254 04 0 00 046233 		HALT	.+1		;TEST FAILED IF PROGRAM HALTS HERE
 29298	046233	324 00 0 00 046234 		JUMPA	.+1		;IF TEST FAILS, CHANGE THIS INSTRUCTION (JUMPA .+1) TO
 29299									;JUMPA X (X IS THE ADDRESS OF THE FIRST INSTRUCTION
 29300									;IN THE SUBTEST) TO LOOP ON ERROR^
 29301
 29302					;**********
 29303
 29304
 29305					;THIS TEST VERIFIES THAT INDEX REGISTER ADDRESSING FUNCTIONS CORRECTLY.
 29306					;IN THIS TEST, A MOVE INSTRUCTION USING INDEXING IS EXECUTED.  THE MOVE INSTRUCTION
 29307					;SHOULD PLACE THE CONTENTS OF THE LOCATION SPECIFIED BY INDEX REGISTER 2 INTO AC3.
 29308					;SINCE INDEX REGISTER 2 WAS PRELOADED WITH A 1 AND AC1 WAS PRELOADED WITH A
 29309					;FLOATING 0, THE FINAL RESULT IN AC3 SHOULD BE A FLOATING 0.
 29310					;IF C(AC3)=A FLOATING 0, THIS TEST PASSES.
 29311
 29312			001622		SN=SN+1
DFKAA PDP-10 KL10 BASIC INSTRUCTION DIAGNOSTIC (1) VER 0,2	MACRO %52(537) 09:34 31-JAN-77 PAGE 10-8
DFKAA4	MAC	25-AUG-75 13:58		TEST OF INDEX REGISTER ADDRESSING                                                  SEQ 0635

 29313			377777			ZZ=<ZZ+ZZ+1>&777777
 29314						IFE	<ZZ-1>,<ZZ=777776>
 29315	046234	402 00 0 00 000003 		SETZM	3		;PRELOAD AC3 WITH 0
 29316	046235	525 01 0 00 377777 		HRLOI	1,ZZ		;PRELOAD AC1 WITH FLOATING 0
 29317	046236	201 02 0 00 000001 		MOVEI	2,1		;SETUP INDEX REGISTER
 29318	046237	200 03 0 02 000000 		MOVE	3,(2)		;*FWT FROM INDEXED LOCATION
 29319	046240	312 03 0 00 070255 		CAME	3,[ZZ,,-1]	;TEST INDEXING
 29320						STOP^
 29321	046241	254 04 0 00 046242 		HALT	.+1		;TEST FAILED IF PROGRAM HALTS HERE
 29322	046242	324 00 0 00 046243 		JUMPA	.+1		;IF TEST FAILS, CHANGE THIS INSTRUCTION (JUMPA .+1) TO
 29323									;JUMPA X (X IS THE ADDRESS OF THE FIRST INSTRUCTION
 29324									;IN THE SUBTEST) TO LOOP ON ERROR^
 29325
 29326					;**********
 29327
DFKAA PDP-10 KL10 BASIC INSTRUCTION DIAGNOSTIC (1) VER 0,2	MACRO %52(537) 09:34 31-JAN-77 PAGE 11
DFKAA4	MAC	25-AUG-75 13:58		TEST OF INDEX REGISTER ADDRESSING                                                  SEQ 0636

 29328					;VERIFY INDEXING WHERE 'E' IS NON-ZERO
 29329
 29330			001700		SN=1700
 29331		777777	777777			ZZ=-1
 29332		777777	777770			XX=-10
 29333
 29334					;THIS TEST VERIFIES THAT INDEX REGISTER ADDRESSING FUNCTIONS CORRECTLY.
 29335					;IN THIS TEST, THE INDEX REG IS SET-UP WITH MOVEI ZZ+1,ZZ-XX,
 29336					;WHERE ZZ+1 IS THE INDEX REG.  THE AC IS PRELOADED WITH ITS OWN ADDRESS, 0,,ZZ.
 29337					;CAIE IS USED TO TEST THE INDEXING OPERATION.
 29338					;IF THE RESULT IN C(AC)=XX+C(ZZ+1 - RIGHT), THIS TEST PASSES.
 29339					;XX+C(ZZ+1 - RIGHT) SHOULD = ZZ.
 29340
 29341					C1700:	REPEAT	^D15,
 29342					<SN=SN+1
 29343						ZZ=ZZ+1
 29344						XX=XX+3
 29345						MOVEI	ZZ+1,ZZ-XX	;SETUP INDEX REGISTER
 29346						MOVEI	ZZ,ZZ		;PRELOAD AC WITH 0,,ZZ
 29347						CAIE	ZZ,XX(ZZ+1)	;*TEST INDEXING
 29348						STOP
 29349
 29350					;**********
 29351					>
 29352			001701		SN=SN+1
 29353			000000			ZZ=ZZ+1
 29354		777777	777773			XX=XX+3
 29355	046243	201 01 0 00 000005 		MOVEI	ZZ+1,ZZ-XX	;SETUP INDEX REGISTER
 29356	046244	201 00 0 00 000000 		MOVEI	ZZ,ZZ		;PRELOAD AC WITH 0,,ZZ
 29357	046245	302 00 0 01 777773 		CAIE	ZZ,XX(ZZ+1)	;*TEST INDEXING
 29358						STOP^
 29359	046246	254 04 0 00 046247 		HALT	.+1		;TEST FAILED IF PROGRAM HALTS HERE
 29360	046247	324 00 0 00 046250 		JUMPA	.+1		;IF TEST FAILS, CHANGE THIS INSTRUCTION (JUMPA .+1) TO
 29361									;JUMPA X (X IS THE ADDRESS OF THE FIRST INSTRUCTION
 29362									;IN THE SUBTEST) TO LOOP ON ERROR^
 29363
 29364					;**********
 29365
 29366			001702		SN=SN+1
 29367			000001			ZZ=ZZ+1
 29368		777777	777776			XX=XX+3
 29369	046250	201 02 0 00 000003 		MOVEI	ZZ+1,ZZ-XX	;SETUP INDEX REGISTER
 29370	046251	201 01 0 00 000001 		MOVEI	ZZ,ZZ		;PRELOAD AC WITH 0,,ZZ
 29371	046252	302 01 0 02 777776 		CAIE	ZZ,XX(ZZ+1)	;*TEST INDEXING
 29372						STOP^
 29373	046253	254 04 0 00 046254 		HALT	.+1		;TEST FAILED IF PROGRAM HALTS HERE
 29374	046254	324 00 0 00 046255 		JUMPA	.+1		;IF TEST FAILS, CHANGE THIS INSTRUCTION (JUMPA .+1) TO
 29375									;JUMPA X (X IS THE ADDRESS OF THE FIRST INSTRUCTION
 29376									;IN THE SUBTEST) TO LOOP ON ERROR^
 29377
 29378					;**********
 29379
 29380			001703		SN=SN+1
 29381			000002			ZZ=ZZ+1
 29382			000001			XX=XX+3
DFKAA PDP-10 KL10 BASIC INSTRUCTION DIAGNOSTIC (1) VER 0,2	MACRO %52(537) 09:34 31-JAN-77 PAGE 11-1
DFKAA4	MAC	25-AUG-75 13:58		TEST OF INDEX REGISTER ADDRESSING                                                  SEQ 0637

 29383	046255	201 03 0 00 000001 		MOVEI	ZZ+1,ZZ-XX	;SETUP INDEX REGISTER
 29384	046256	201 02 0 00 000002 		MOVEI	ZZ,ZZ		;PRELOAD AC WITH 0,,ZZ
 29385	046257	302 02 0 03 000001 		CAIE	ZZ,XX(ZZ+1)	;*TEST INDEXING
 29386						STOP^
 29387	046260	254 04 0 00 046261 		HALT	.+1		;TEST FAILED IF PROGRAM HALTS HERE
 29388	046261	324 00 0 00 046262 		JUMPA	.+1		;IF TEST FAILS, CHANGE THIS INSTRUCTION (JUMPA .+1) TO
 29389									;JUMPA X (X IS THE ADDRESS OF THE FIRST INSTRUCTION
 29390									;IN THE SUBTEST) TO LOOP ON ERROR^
 29391
 29392					;**********
 29393
 29394			001704		SN=SN+1
 29395			000003			ZZ=ZZ+1
 29396			000004			XX=XX+3
 29397	046262	201 04 0 00 777777 		MOVEI	ZZ+1,ZZ-XX	;SETUP INDEX REGISTER
 29398	046263	201 03 0 00 000003 		MOVEI	ZZ,ZZ		;PRELOAD AC WITH 0,,ZZ
 29399	046264	302 03 0 04 000004 		CAIE	ZZ,XX(ZZ+1)	;*TEST INDEXING
 29400						STOP^
 29401	046265	254 04 0 00 046266 		HALT	.+1		;TEST FAILED IF PROGRAM HALTS HERE
 29402	046266	324 00 0 00 046267 		JUMPA	.+1		;IF TEST FAILS, CHANGE THIS INSTRUCTION (JUMPA .+1) TO
 29403									;JUMPA X (X IS THE ADDRESS OF THE FIRST INSTRUCTION
 29404									;IN THE SUBTEST) TO LOOP ON ERROR^
 29405
 29406					;**********
 29407
 29408			001705		SN=SN+1
 29409			000004			ZZ=ZZ+1
 29410			000007			XX=XX+3
 29411	046267	201 05 0 00 777775 		MOVEI	ZZ+1,ZZ-XX	;SETUP INDEX REGISTER
 29412	046270	201 04 0 00 000004 		MOVEI	ZZ,ZZ		;PRELOAD AC WITH 0,,ZZ
 29413	046271	302 04 0 05 000007 		CAIE	ZZ,XX(ZZ+1)	;*TEST INDEXING
 29414						STOP^
 29415	046272	254 04 0 00 046273 		HALT	.+1		;TEST FAILED IF PROGRAM HALTS HERE
 29416	046273	324 00 0 00 046274 		JUMPA	.+1		;IF TEST FAILS, CHANGE THIS INSTRUCTION (JUMPA .+1) TO
 29417									;JUMPA X (X IS THE ADDRESS OF THE FIRST INSTRUCTION
 29418									;IN THE SUBTEST) TO LOOP ON ERROR^
 29419
 29420					;**********
 29421
 29422			001706		SN=SN+1
 29423			000005			ZZ=ZZ+1
 29424			000012			XX=XX+3
 29425	046274	201 06 0 00 777773 		MOVEI	ZZ+1,ZZ-XX	;SETUP INDEX REGISTER
 29426	046275	201 05 0 00 000005 		MOVEI	ZZ,ZZ		;PRELOAD AC WITH 0,,ZZ
 29427	046276	302 05 0 06 000012 		CAIE	ZZ,XX(ZZ+1)	;*TEST INDEXING
 29428						STOP^
 29429	046277	254 04 0 00 046300 		HALT	.+1		;TEST FAILED IF PROGRAM HALTS HERE
 29430	046300	324 00 0 00 046301 		JUMPA	.+1		;IF TEST FAILS, CHANGE THIS INSTRUCTION (JUMPA .+1) TO
 29431									;JUMPA X (X IS THE ADDRESS OF THE FIRST INSTRUCTION
 29432									;IN THE SUBTEST) TO LOOP ON ERROR^
 29433
 29434					;**********
 29435
 29436			001707		SN=SN+1
 29437			000006			ZZ=ZZ+1
DFKAA PDP-10 KL10 BASIC INSTRUCTION DIAGNOSTIC (1) VER 0,2	MACRO %52(537) 09:34 31-JAN-77 PAGE 11-2
DFKAA4	MAC	25-AUG-75 13:58		TEST OF INDEX REGISTER ADDRESSING                                                  SEQ 0638

 29438			000015			XX=XX+3
 29439	046301	201 07 0 00 777771 		MOVEI	ZZ+1,ZZ-XX	;SETUP INDEX REGISTER
 29440	046302	201 06 0 00 000006 		MOVEI	ZZ,ZZ		;PRELOAD AC WITH 0,,ZZ
 29441	046303	302 06 0 07 000015 		CAIE	ZZ,XX(ZZ+1)	;*TEST INDEXING
 29442						STOP^
 29443	046304	254 04 0 00 046305 		HALT	.+1		;TEST FAILED IF PROGRAM HALTS HERE
 29444	046305	324 00 0 00 046306 		JUMPA	.+1		;IF TEST FAILS, CHANGE THIS INSTRUCTION (JUMPA .+1) TO
 29445									;JUMPA X (X IS THE ADDRESS OF THE FIRST INSTRUCTION
 29446									;IN THE SUBTEST) TO LOOP ON ERROR^
 29447
 29448					;**********
 29449
 29450			001710		SN=SN+1
 29451			000007			ZZ=ZZ+1
 29452			000020			XX=XX+3
 29453	046306	201 10 0 00 777767 		MOVEI	ZZ+1,ZZ-XX	;SETUP INDEX REGISTER
 29454	046307	201 07 0 00 000007 		MOVEI	ZZ,ZZ		;PRELOAD AC WITH 0,,ZZ
 29455	046310	302 07 0 10 000020 		CAIE	ZZ,XX(ZZ+1)	;*TEST INDEXING
 29456						STOP^
 29457	046311	254 04 0 00 046312 		HALT	.+1		;TEST FAILED IF PROGRAM HALTS HERE
 29458	046312	324 00 0 00 046313 		JUMPA	.+1		;IF TEST FAILS, CHANGE THIS INSTRUCTION (JUMPA .+1) TO
 29459									;JUMPA X (X IS THE ADDRESS OF THE FIRST INSTRUCTION
 29460									;IN THE SUBTEST) TO LOOP ON ERROR^
 29461
 29462					;**********
 29463
 29464			001711		SN=SN+1
 29465			000010			ZZ=ZZ+1
 29466			000023			XX=XX+3
 29467	046313	201 11 0 00 777765 		MOVEI	ZZ+1,ZZ-XX	;SETUP INDEX REGISTER
 29468	046314	201 10 0 00 000010 		MOVEI	ZZ,ZZ		;PRELOAD AC WITH 0,,ZZ
 29469	046315	302 10 0 11 000023 		CAIE	ZZ,XX(ZZ+1)	;*TEST INDEXING
 29470						STOP^
 29471	046316	254 04 0 00 046317 		HALT	.+1		;TEST FAILED IF PROGRAM HALTS HERE
 29472	046317	324 00 0 00 046320 		JUMPA	.+1		;IF TEST FAILS, CHANGE THIS INSTRUCTION (JUMPA .+1) TO
 29473									;JUMPA X (X IS THE ADDRESS OF THE FIRST INSTRUCTION
 29474									;IN THE SUBTEST) TO LOOP ON ERROR^
 29475
 29476					;**********
 29477
 29478			001712		SN=SN+1
 29479			000011			ZZ=ZZ+1
 29480			000026			XX=XX+3
 29481	046320	201 12 0 00 777763 		MOVEI	ZZ+1,ZZ-XX	;SETUP INDEX REGISTER
 29482	046321	201 11 0 00 000011 		MOVEI	ZZ,ZZ		;PRELOAD AC WITH 0,,ZZ
 29483	046322	302 11 0 12 000026 		CAIE	ZZ,XX(ZZ+1)	;*TEST INDEXING
 29484						STOP^
 29485	046323	254 04 0 00 046324 		HALT	.+1		;TEST FAILED IF PROGRAM HALTS HERE
 29486	046324	324 00 0 00 046325 		JUMPA	.+1		;IF TEST FAILS, CHANGE THIS INSTRUCTION (JUMPA .+1) TO
 29487									;JUMPA X (X IS THE ADDRESS OF THE FIRST INSTRUCTION
 29488									;IN THE SUBTEST) TO LOOP ON ERROR^
 29489
 29490					;**********
 29491
 29492			001713		SN=SN+1
DFKAA PDP-10 KL10 BASIC INSTRUCTION DIAGNOSTIC (1) VER 0,2	MACRO %52(537) 09:34 31-JAN-77 PAGE 11-3
DFKAA4	MAC	25-AUG-75 13:58		TEST OF INDEX REGISTER ADDRESSING                                                  SEQ 0639

 29493			000012			ZZ=ZZ+1
 29494			000031			XX=XX+3
 29495	046325	201 13 0 00 777761 		MOVEI	ZZ+1,ZZ-XX	;SETUP INDEX REGISTER
 29496	046326	201 12 0 00 000012 		MOVEI	ZZ,ZZ		;PRELOAD AC WITH 0,,ZZ
 29497	046327	302 12 0 13 000031 		CAIE	ZZ,XX(ZZ+1)	;*TEST INDEXING
 29498						STOP^
 29499	046330	254 04 0 00 046331 		HALT	.+1		;TEST FAILED IF PROGRAM HALTS HERE
 29500	046331	324 00 0 00 046332 		JUMPA	.+1		;IF TEST FAILS, CHANGE THIS INSTRUCTION (JUMPA .+1) TO
 29501									;JUMPA X (X IS THE ADDRESS OF THE FIRST INSTRUCTION
 29502									;IN THE SUBTEST) TO LOOP ON ERROR^
 29503
 29504					;**********
 29505
 29506			001714		SN=SN+1
 29507			000013			ZZ=ZZ+1
 29508			000034			XX=XX+3
 29509	046332	201 14 0 00 777757 		MOVEI	ZZ+1,ZZ-XX	;SETUP INDEX REGISTER
 29510	046333	201 13 0 00 000013 		MOVEI	ZZ,ZZ		;PRELOAD AC WITH 0,,ZZ
 29511	046334	302 13 0 14 000034 		CAIE	ZZ,XX(ZZ+1)	;*TEST INDEXING
 29512						STOP^
 29513	046335	254 04 0 00 046336 		HALT	.+1		;TEST FAILED IF PROGRAM HALTS HERE
 29514	046336	324 00 0 00 046337 		JUMPA	.+1		;IF TEST FAILS, CHANGE THIS INSTRUCTION (JUMPA .+1) TO
 29515									;JUMPA X (X IS THE ADDRESS OF THE FIRST INSTRUCTION
 29516									;IN THE SUBTEST) TO LOOP ON ERROR^
 29517
 29518					;**********
 29519
 29520			001715		SN=SN+1
 29521			000014			ZZ=ZZ+1
 29522			000037			XX=XX+3
 29523	046337	201 15 0 00 777755 		MOVEI	ZZ+1,ZZ-XX	;SETUP INDEX REGISTER
 29524	046340	201 14 0 00 000014 		MOVEI	ZZ,ZZ		;PRELOAD AC WITH 0,,ZZ
 29525	046341	302 14 0 15 000037 		CAIE	ZZ,XX(ZZ+1)	;*TEST INDEXING
 29526						STOP^
 29527	046342	254 04 0 00 046343 		HALT	.+1		;TEST FAILED IF PROGRAM HALTS HERE
 29528	046343	324 00 0 00 046344 		JUMPA	.+1		;IF TEST FAILS, CHANGE THIS INSTRUCTION (JUMPA .+1) TO
 29529									;JUMPA X (X IS THE ADDRESS OF THE FIRST INSTRUCTION
 29530									;IN THE SUBTEST) TO LOOP ON ERROR^
 29531
 29532					;**********
 29533
 29534			001716		SN=SN+1
 29535			000015			ZZ=ZZ+1
 29536			000042			XX=XX+3
 29537	046344	201 16 0 00 777753 		MOVEI	ZZ+1,ZZ-XX	;SETUP INDEX REGISTER
 29538	046345	201 15 0 00 000015 		MOVEI	ZZ,ZZ		;PRELOAD AC WITH 0,,ZZ
 29539	046346	302 15 0 16 000042 		CAIE	ZZ,XX(ZZ+1)	;*TEST INDEXING
 29540						STOP^
 29541	046347	254 04 0 00 046350 		HALT	.+1		;TEST FAILED IF PROGRAM HALTS HERE
 29542	046350	324 00 0 00 046351 		JUMPA	.+1		;IF TEST FAILS, CHANGE THIS INSTRUCTION (JUMPA .+1) TO
 29543									;JUMPA X (X IS THE ADDRESS OF THE FIRST INSTRUCTION
 29544									;IN THE SUBTEST) TO LOOP ON ERROR^
 29545
 29546					;**********
 29547
DFKAA PDP-10 KL10 BASIC INSTRUCTION DIAGNOSTIC (1) VER 0,2	MACRO %52(537) 09:34 31-JAN-77 PAGE 11-4
DFKAA4	MAC	25-AUG-75 13:58		TEST OF INDEX REGISTER ADDRESSING                                                  SEQ 0640

 29548			001717		SN=SN+1
 29549			000016			ZZ=ZZ+1
 29550			000045			XX=XX+3
 29551	046351	201 17 0 00 777751 		MOVEI	ZZ+1,ZZ-XX	;SETUP INDEX REGISTER
 29552	046352	201 16 0 00 000016 		MOVEI	ZZ,ZZ		;PRELOAD AC WITH 0,,ZZ
 29553	046353	302 16 0 17 000045 		CAIE	ZZ,XX(ZZ+1)	;*TEST INDEXING
 29554						STOP^
 29555	046354	254 04 0 00 046355 		HALT	.+1		;TEST FAILED IF PROGRAM HALTS HERE
 29556	046355	324 00 0 00 046356 		JUMPA	.+1		;IF TEST FAILS, CHANGE THIS INSTRUCTION (JUMPA .+1) TO
 29557									;JUMPA X (X IS THE ADDRESS OF THE FIRST INSTRUCTION
 29558									;IN THE SUBTEST) TO LOOP ON ERROR^
 29559
 29560					;**********
 29561
 29562					PAGE
DFKAA PDP-10 KL10 BASIC INSTRUCTION DIAGNOSTIC (1) VER 0,2	MACRO %52(537) 09:34 31-JAN-77 PAGE 11-5
DFKAA4	MAC	25-AUG-75 13:58		TEST OF INDEX REGISTER ADDRESSING                                                  SEQ 0641

 29563			002000		SN=2000
 29564		777777	777777			ZZ=-1
 29565		777777	777760			XX=-20
 29566
 29567					;THIS TEST VERIFIES THAT INDEX REGISTER ADDRESSING FUNCTIONS CORRECTLY.
 29568					;IN THIS TEST, THE INDEX REG IS SET-UP WITH MOVEI ZZ+1,ZZ-XX,
 29569					;WHERE ZZ+1 IS THE INDEX REG.  INDEXING IS TESTED BY LOADING
 29570					;THE AC VIA MOVEI ZZ,XX(ZZ+1), WHERE XX+C(ZZ+1)=ZZ.
 29571					;IF THE RESULT IN THE AC EQUALS 0,,ZZ, THIS TEST PASSES.
 29572
 29573					C2000:	REPEAT	^D15,
 29574					<SN=SN+1
 29575						ZZ=ZZ+1
 29576						XX=XX+5
 29577						MOVEI	ZZ+1,ZZ-XX	;SETUP INDEX REGISTER
 29578						MOVEI	ZZ,XX(ZZ+1)	;*TEST INDEXING
 29579						CAIE	ZZ,ZZ		;PASS IF C(AC)=0,,ADDRESS OF AC
 29580						STOP
 29581
 29582					;**********
 29583					>
 29584			002001		SN=SN+1
 29585			000000			ZZ=ZZ+1
 29586		777777	777765			XX=XX+5
 29587	046356	201 01 0 00 000013 		MOVEI	ZZ+1,ZZ-XX	;SETUP INDEX REGISTER
 29588	046357	201 00 0 01 777765 		MOVEI	ZZ,XX(ZZ+1)	;*TEST INDEXING
 29589	046360	302 00 0 00 000000 		CAIE	ZZ,ZZ		;PASS IF C(AC)=0,,ADDRESS OF AC
 29590						STOP^
 29591	046361	254 04 0 00 046362 		HALT	.+1		;TEST FAILED IF PROGRAM HALTS HERE
 29592	046362	324 00 0 00 046363 		JUMPA	.+1		;IF TEST FAILS, CHANGE THIS INSTRUCTION (JUMPA .+1) TO
 29593									;JUMPA X (X IS THE ADDRESS OF THE FIRST INSTRUCTION
 29594									;IN THE SUBTEST) TO LOOP ON ERROR^
 29595
 29596					;**********
 29597
 29598			002002		SN=SN+1
 29599			000001			ZZ=ZZ+1
 29600		777777	777772			XX=XX+5
 29601	046363	201 02 0 00 000007 		MOVEI	ZZ+1,ZZ-XX	;SETUP INDEX REGISTER
 29602	046364	201 01 0 02 777772 		MOVEI	ZZ,XX(ZZ+1)	;*TEST INDEXING
 29603	046365	302 01 0 00 000001 		CAIE	ZZ,ZZ		;PASS IF C(AC)=0,,ADDRESS OF AC
 29604						STOP^
 29605	046366	254 04 0 00 046367 		HALT	.+1		;TEST FAILED IF PROGRAM HALTS HERE
 29606	046367	324 00 0 00 046370 		JUMPA	.+1		;IF TEST FAILS, CHANGE THIS INSTRUCTION (JUMPA .+1) TO
 29607									;JUMPA X (X IS THE ADDRESS OF THE FIRST INSTRUCTION
 29608									;IN THE SUBTEST) TO LOOP ON ERROR^
 29609
 29610					;**********
 29611
 29612			002003		SN=SN+1
 29613			000002			ZZ=ZZ+1
 29614		777777	777777			XX=XX+5
 29615	046370	201 03 0 00 000003 		MOVEI	ZZ+1,ZZ-XX	;SETUP INDEX REGISTER
 29616	046371	201 02 0 03 777777 		MOVEI	ZZ,XX(ZZ+1)	;*TEST INDEXING
 29617	046372	302 02 0 00 000002 		CAIE	ZZ,ZZ		;PASS IF C(AC)=0,,ADDRESS OF AC
DFKAA PDP-10 KL10 BASIC INSTRUCTION DIAGNOSTIC (1) VER 0,2	MACRO %52(537) 09:34 31-JAN-77 PAGE 11-6
DFKAA4	MAC	25-AUG-75 13:58		TEST OF INDEX REGISTER ADDRESSING                                                  SEQ 0642

 29618						STOP^
 29619	046373	254 04 0 00 046374 		HALT	.+1		;TEST FAILED IF PROGRAM HALTS HERE
 29620	046374	324 00 0 00 046375 		JUMPA	.+1		;IF TEST FAILS, CHANGE THIS INSTRUCTION (JUMPA .+1) TO
 29621									;JUMPA X (X IS THE ADDRESS OF THE FIRST INSTRUCTION
 29622									;IN THE SUBTEST) TO LOOP ON ERROR^
 29623
 29624					;**********
 29625
 29626			002004		SN=SN+1
 29627			000003			ZZ=ZZ+1
 29628			000004			XX=XX+5
 29629	046375	201 04 0 00 777777 		MOVEI	ZZ+1,ZZ-XX	;SETUP INDEX REGISTER
 29630	046376	201 03 0 04 000004 		MOVEI	ZZ,XX(ZZ+1)	;*TEST INDEXING
 29631	046377	302 03 0 00 000003 		CAIE	ZZ,ZZ		;PASS IF C(AC)=0,,ADDRESS OF AC
 29632						STOP^
 29633	046400	254 04 0 00 046401 		HALT	.+1		;TEST FAILED IF PROGRAM HALTS HERE
 29634	046401	324 00 0 00 046402 		JUMPA	.+1		;IF TEST FAILS, CHANGE THIS INSTRUCTION (JUMPA .+1) TO
 29635									;JUMPA X (X IS THE ADDRESS OF THE FIRST INSTRUCTION
 29636									;IN THE SUBTEST) TO LOOP ON ERROR^
 29637
 29638					;**********
 29639
 29640			002005		SN=SN+1
 29641			000004			ZZ=ZZ+1
 29642			000011			XX=XX+5
 29643	046402	201 05 0 00 777773 		MOVEI	ZZ+1,ZZ-XX	;SETUP INDEX REGISTER
 29644	046403	201 04 0 05 000011 		MOVEI	ZZ,XX(ZZ+1)	;*TEST INDEXING
 29645	046404	302 04 0 00 000004 		CAIE	ZZ,ZZ		;PASS IF C(AC)=0,,ADDRESS OF AC
 29646						STOP^
 29647	046405	254 04 0 00 046406 		HALT	.+1		;TEST FAILED IF PROGRAM HALTS HERE
 29648	046406	324 00 0 00 046407 		JUMPA	.+1		;IF TEST FAILS, CHANGE THIS INSTRUCTION (JUMPA .+1) TO
 29649									;JUMPA X (X IS THE ADDRESS OF THE FIRST INSTRUCTION
 29650									;IN THE SUBTEST) TO LOOP ON ERROR^
 29651
 29652					;**********
 29653
 29654			002006		SN=SN+1
 29655			000005			ZZ=ZZ+1
 29656			000016			XX=XX+5
 29657	046407	201 06 0 00 777767 		MOVEI	ZZ+1,ZZ-XX	;SETUP INDEX REGISTER
 29658	046410	201 05 0 06 000016 		MOVEI	ZZ,XX(ZZ+1)	;*TEST INDEXING
 29659	046411	302 05 0 00 000005 		CAIE	ZZ,ZZ		;PASS IF C(AC)=0,,ADDRESS OF AC
 29660						STOP^
 29661	046412	254 04 0 00 046413 		HALT	.+1		;TEST FAILED IF PROGRAM HALTS HERE
 29662	046413	324 00 0 00 046414 		JUMPA	.+1		;IF TEST FAILS, CHANGE THIS INSTRUCTION (JUMPA .+1) TO
 29663									;JUMPA X (X IS THE ADDRESS OF THE FIRST INSTRUCTION
 29664									;IN THE SUBTEST) TO LOOP ON ERROR^
 29665
 29666					;**********
 29667
 29668			002007		SN=SN+1
 29669			000006			ZZ=ZZ+1
 29670			000023			XX=XX+5
 29671	046414	201 07 0 00 777763 		MOVEI	ZZ+1,ZZ-XX	;SETUP INDEX REGISTER
 29672	046415	201 06 0 07 000023 		MOVEI	ZZ,XX(ZZ+1)	;*TEST INDEXING
DFKAA PDP-10 KL10 BASIC INSTRUCTION DIAGNOSTIC (1) VER 0,2	MACRO %52(537) 09:34 31-JAN-77 PAGE 11-7
DFKAA4	MAC	25-AUG-75 13:58		TEST OF INDEX REGISTER ADDRESSING                                                  SEQ 0643

 29673	046416	302 06 0 00 000006 		CAIE	ZZ,ZZ		;PASS IF C(AC)=0,,ADDRESS OF AC
 29674						STOP^
 29675	046417	254 04 0 00 046420 		HALT	.+1		;TEST FAILED IF PROGRAM HALTS HERE
 29676	046420	324 00 0 00 046421 		JUMPA	.+1		;IF TEST FAILS, CHANGE THIS INSTRUCTION (JUMPA .+1) TO
 29677									;JUMPA X (X IS THE ADDRESS OF THE FIRST INSTRUCTION
 29678									;IN THE SUBTEST) TO LOOP ON ERROR^
 29679
 29680					;**********
 29681
 29682			002010		SN=SN+1
 29683			000007			ZZ=ZZ+1
 29684			000030			XX=XX+5
 29685	046421	201 10 0 00 777757 		MOVEI	ZZ+1,ZZ-XX	;SETUP INDEX REGISTER
 29686	046422	201 07 0 10 000030 		MOVEI	ZZ,XX(ZZ+1)	;*TEST INDEXING
 29687	046423	302 07 0 00 000007 		CAIE	ZZ,ZZ		;PASS IF C(AC)=0,,ADDRESS OF AC
 29688						STOP^
 29689	046424	254 04 0 00 046425 		HALT	.+1		;TEST FAILED IF PROGRAM HALTS HERE
 29690	046425	324 00 0 00 046426 		JUMPA	.+1		;IF TEST FAILS, CHANGE THIS INSTRUCTION (JUMPA .+1) TO
 29691									;JUMPA X (X IS THE ADDRESS OF THE FIRST INSTRUCTION
 29692									;IN THE SUBTEST) TO LOOP ON ERROR^
 29693
 29694					;**********
 29695
 29696			002011		SN=SN+1
 29697			000010			ZZ=ZZ+1
 29698			000035			XX=XX+5
 29699	046426	201 11 0 00 777753 		MOVEI	ZZ+1,ZZ-XX	;SETUP INDEX REGISTER
 29700	046427	201 10 0 11 000035 		MOVEI	ZZ,XX(ZZ+1)	;*TEST INDEXING
 29701	046430	302 10 0 00 000010 		CAIE	ZZ,ZZ		;PASS IF C(AC)=0,,ADDRESS OF AC
 29702						STOP^
 29703	046431	254 04 0 00 046432 		HALT	.+1		;TEST FAILED IF PROGRAM HALTS HERE
 29704	046432	324 00 0 00 046433 		JUMPA	.+1		;IF TEST FAILS, CHANGE THIS INSTRUCTION (JUMPA .+1) TO
 29705									;JUMPA X (X IS THE ADDRESS OF THE FIRST INSTRUCTION
 29706									;IN THE SUBTEST) TO LOOP ON ERROR^
 29707
 29708					;**********
 29709
 29710			002012		SN=SN+1
 29711			000011			ZZ=ZZ+1
 29712			000042			XX=XX+5
 29713	046433	201 12 0 00 777747 		MOVEI	ZZ+1,ZZ-XX	;SETUP INDEX REGISTER
 29714	046434	201 11 0 12 000042 		MOVEI	ZZ,XX(ZZ+1)	;*TEST INDEXING
 29715	046435	302 11 0 00 000011 		CAIE	ZZ,ZZ		;PASS IF C(AC)=0,,ADDRESS OF AC
 29716						STOP^
 29717	046436	254 04 0 00 046437 		HALT	.+1		;TEST FAILED IF PROGRAM HALTS HERE
 29718	046437	324 00 0 00 046440 		JUMPA	.+1		;IF TEST FAILS, CHANGE THIS INSTRUCTION (JUMPA .+1) TO
 29719									;JUMPA X (X IS THE ADDRESS OF THE FIRST INSTRUCTION
 29720									;IN THE SUBTEST) TO LOOP ON ERROR^
 29721
 29722					;**********
 29723
 29724			002013		SN=SN+1
 29725			000012			ZZ=ZZ+1
 29726			000047			XX=XX+5
 29727	046440	201 13 0 00 777743 		MOVEI	ZZ+1,ZZ-XX	;SETUP INDEX REGISTER
DFKAA PDP-10 KL10 BASIC INSTRUCTION DIAGNOSTIC (1) VER 0,2	MACRO %52(537) 09:34 31-JAN-77 PAGE 11-8
DFKAA4	MAC	25-AUG-75 13:58		TEST OF INDEX REGISTER ADDRESSING                                                  SEQ 0644

 29728	046441	201 12 0 13 000047 		MOVEI	ZZ,XX(ZZ+1)	;*TEST INDEXING
 29729	046442	302 12 0 00 000012 		CAIE	ZZ,ZZ		;PASS IF C(AC)=0,,ADDRESS OF AC
 29730						STOP^
 29731	046443	254 04 0 00 046444 		HALT	.+1		;TEST FAILED IF PROGRAM HALTS HERE
 29732	046444	324 00 0 00 046445 		JUMPA	.+1		;IF TEST FAILS, CHANGE THIS INSTRUCTION (JUMPA .+1) TO
 29733									;JUMPA X (X IS THE ADDRESS OF THE FIRST INSTRUCTION
 29734									;IN THE SUBTEST) TO LOOP ON ERROR^
 29735
 29736					;**********
 29737
 29738			002014		SN=SN+1
 29739			000013			ZZ=ZZ+1
 29740			000054			XX=XX+5
 29741	046445	201 14 0 00 777737 		MOVEI	ZZ+1,ZZ-XX	;SETUP INDEX REGISTER
 29742	046446	201 13 0 14 000054 		MOVEI	ZZ,XX(ZZ+1)	;*TEST INDEXING
 29743	046447	302 13 0 00 000013 		CAIE	ZZ,ZZ		;PASS IF C(AC)=0,,ADDRESS OF AC
 29744						STOP^
 29745	046450	254 04 0 00 046451 		HALT	.+1		;TEST FAILED IF PROGRAM HALTS HERE
 29746	046451	324 00 0 00 046452 		JUMPA	.+1		;IF TEST FAILS, CHANGE THIS INSTRUCTION (JUMPA .+1) TO
 29747									;JUMPA X (X IS THE ADDRESS OF THE FIRST INSTRUCTION
 29748									;IN THE SUBTEST) TO LOOP ON ERROR^
 29749
 29750					;**********
 29751
 29752			002015		SN=SN+1
 29753			000014			ZZ=ZZ+1
 29754			000061			XX=XX+5
 29755	046452	201 15 0 00 777733 		MOVEI	ZZ+1,ZZ-XX	;SETUP INDEX REGISTER
 29756	046453	201 14 0 15 000061 		MOVEI	ZZ,XX(ZZ+1)	;*TEST INDEXING
 29757	046454	302 14 0 00 000014 		CAIE	ZZ,ZZ		;PASS IF C(AC)=0,,ADDRESS OF AC
 29758						STOP^
 29759	046455	254 04 0 00 046456 		HALT	.+1		;TEST FAILED IF PROGRAM HALTS HERE
 29760	046456	324 00 0 00 046457 		JUMPA	.+1		;IF TEST FAILS, CHANGE THIS INSTRUCTION (JUMPA .+1) TO
 29761									;JUMPA X (X IS THE ADDRESS OF THE FIRST INSTRUCTION
 29762									;IN THE SUBTEST) TO LOOP ON ERROR^
 29763
 29764					;**********
 29765
 29766			002016		SN=SN+1
 29767			000015			ZZ=ZZ+1
 29768			000066			XX=XX+5
 29769	046457	201 16 0 00 777727 		MOVEI	ZZ+1,ZZ-XX	;SETUP INDEX REGISTER
 29770	046460	201 15 0 16 000066 		MOVEI	ZZ,XX(ZZ+1)	;*TEST INDEXING
 29771	046461	302 15 0 00 000015 		CAIE	ZZ,ZZ		;PASS IF C(AC)=0,,ADDRESS OF AC
 29772						STOP^
 29773	046462	254 04 0 00 046463 		HALT	.+1		;TEST FAILED IF PROGRAM HALTS HERE
 29774	046463	324 00 0 00 046464 		JUMPA	.+1		;IF TEST FAILS, CHANGE THIS INSTRUCTION (JUMPA .+1) TO
 29775									;JUMPA X (X IS THE ADDRESS OF THE FIRST INSTRUCTION
 29776									;IN THE SUBTEST) TO LOOP ON ERROR^
 29777
 29778					;**********
 29779
 29780			002017		SN=SN+1
 29781			000016			ZZ=ZZ+1
 29782			000073			XX=XX+5
DFKAA PDP-10 KL10 BASIC INSTRUCTION DIAGNOSTIC (1) VER 0,2	MACRO %52(537) 09:34 31-JAN-77 PAGE 11-9
DFKAA4	MAC	25-AUG-75 13:58		TEST OF INDEX REGISTER ADDRESSING                                                  SEQ 0645

 29783	046464	201 17 0 00 777723 		MOVEI	ZZ+1,ZZ-XX	;SETUP INDEX REGISTER
 29784	046465	201 16 0 17 000073 		MOVEI	ZZ,XX(ZZ+1)	;*TEST INDEXING
 29785	046466	302 16 0 00 000016 		CAIE	ZZ,ZZ		;PASS IF C(AC)=0,,ADDRESS OF AC
 29786						STOP^
 29787	046467	254 04 0 00 046470 		HALT	.+1		;TEST FAILED IF PROGRAM HALTS HERE
 29788	046470	324 00 0 00 046471 		JUMPA	.+1		;IF TEST FAILS, CHANGE THIS INSTRUCTION (JUMPA .+1) TO
 29789									;JUMPA X (X IS THE ADDRESS OF THE FIRST INSTRUCTION
 29790									;IN THE SUBTEST) TO LOOP ON ERROR^
 29791
 29792					;**********
 29793
DFKAA PDP-10 KL10 BASIC INSTRUCTION DIAGNOSTIC (1) VER 0,2	MACRO %52(537) 09:34 31-JAN-77 PAGE 12
DFKAA4	MAC	25-AUG-75 13:58		TEST OF EXCH INSTRUCTION                                                           SEQ 0646

 29794					SUBTTL	TEST OF EXCH INSTRUCTION
 29795
 29796					;**********
 29797
 29798					;THIS TEST VERIFIES THAT EXCH MOVES C(E) INTO AC AND
 29799					;MOVES C(AC) INTO E.
 29800					;IN THIS CASE, AC=E=0 AND C(AC)=C(E).  HENCE, THE FINAL RESULT
 29801					;IN AC0 SHOULD BE 0.  IF C(AC)=0, THE TEST PASSES.
 29802
 29803	046471	400 00 0 00 000000 	C2100:	SETZ			;PRELOAD AC,E WITH 0
 29804	046472	250 00 0 00 000000 		EXCH			;*EXCH SHOULD PLACE 0 INTO AC0
 29805	046473	332 00 0 00 000000 		SKIPE			;PASS IF C(AC0)=0
 29806						STOP^
 29807	046474	254 04 0 00 046475 		HALT	.+1		;TEST FAILED IF PROGRAM HALTS HERE
 29808	046475	324 00 0 00 046476 		JUMPA	.+1		;IF TEST FAILS, CHANGE THIS INSTRUCTION (JUMPA .+1) TO
 29809									;JUMPA X (X IS THE ADDRESS OF THE FIRST INSTRUCTION
 29810									;IN THE SUBTEST) TO LOOP ON ERROR^
 29811
 29812					;**********
 29813
 29814					;THIS TEST VERIFIES THAT EXCH MOVES C(E) INTO AC AND
 29815					;MOVES C(AC) INTO E.
 29816					;IN THIS CASE, AC=E=-1,,-1 AND C(AC)=C(E).  HENCE, THE FINAL RESULT
 29817					;IN AC0 SHOULD BE -1,,-1.  IF C(AC)=-1,,-1, THE TEST PASSES.
 29818
 29819	046476	474 00 0 00 000000 	C2200:	SETO			;PRELOAD AC,E WITH -1,,-1
 29820	046477	250 00 0 00 000000 		EXCH			;*EXCH SHOULD PLACE -1,,-1 INTO AC0
 29821	046500	312 00 0 00 070254 		CAME	[-1]		;PASS IF C(AC0)=-1,,-1
 29822						STOP^
 29823	046501	254 04 0 00 046502 		HALT	.+1		;TEST FAILED IF PROGRAM HALTS HERE
 29824	046502	324 00 0 00 046503 		JUMPA	.+1		;IF TEST FAILS, CHANGE THIS INSTRUCTION (JUMPA .+1) TO
 29825									;JUMPA X (X IS THE ADDRESS OF THE FIRST INSTRUCTION
 29826									;IN THE SUBTEST) TO LOOP ON ERROR^
 29827
 29828					;**********
DFKAA PDP-10 KL10 BASIC INSTRUCTION DIAGNOSTIC (1) VER 0,2	MACRO %52(537) 09:34 31-JAN-77 PAGE 13
DFKAA4	MAC	25-AUG-75 13:58		TEST OF EXCH INSTRUCTION                                                           SEQ 0647

 29829					;THIS TEST VERIFIES THAT EXCH MOVES C(E) INTO AC AND
 29830					;MOVES C(AC) INTO E.
 29831					;IN THIS CASE, C(AC)=-1,,0 AND C(E)=0,,-1.  HENCE, THE FINAL RESULT
 29832					;IN THE AC SHOULD BE 0,,-1 AND THE RESULT IN E SHOULD BE -1,,0,
 29833					;IF THESE RESULTS OCCUR, THE TEST PASSES.
 29834
 29835	046503	205 00 0 00 777777 	C2400:	MOVSI	-1		;PRELOAD AC WITH -1,,0
 29836	046504	201 01 0 00 777777 		MOVEI	1,-1		;PRELOAD E WITH 0,,-1
 29837	046505	250 00 0 00 000001 		EXCH	1		;*EXCH SHOULD PLACE 0,,-1 INTO THE AC AND -1,,0 INTO E
 29838	046506	312 01 0 00 070331 		CAME	1,[-1,,0]	;PASS IF C(E)=-1,,0
 29839						STOP^
 29840	046507	254 04 0 00 046510 		HALT	.+1		;TEST FAILED IF PROGRAM HALTS HERE
 29841	046510	324 00 0 00 046511 		JUMPA	.+1		;IF TEST FAILS, CHANGE THIS INSTRUCTION (JUMPA .+1) TO
 29842									;JUMPA X (X IS THE ADDRESS OF THE FIRST INSTRUCTION
 29843									;IN THE SUBTEST) TO LOOP ON ERROR^
 29844	046511	312 00 0 00 070330 	C2410:	CAME	0,[0,,-1]	;PASS IF C(AC)=0,,-1
 29845						STOP^
 29846	046512	254 04 0 00 046513 		HALT	.+1		;TEST FAILED IF PROGRAM HALTS HERE
 29847	046513	324 00 0 00 046514 		JUMPA	.+1		;IF TEST FAILS, CHANGE THIS INSTRUCTION (JUMPA .+1) TO
 29848									;JUMPA X (X IS THE ADDRESS OF THE FIRST INSTRUCTION
 29849									;IN THE SUBTEST) TO LOOP ON ERROR^
 29850
 29851					;**********
 29852
 29853					;THIS TEST VERIFIES THAT EXCH MOVES C(E) INTO AC AND
 29854					;MOVES C(AC) INTO E.
 29855					;IN THIS CASE, C(AC)=0,,-1 AND C(E)=-1,,0.  HENCE, THE FINAL RESULT
 29856					;IN THE AC SHOULD BE -1,,0 AND THE RESULT IN E SHOULD BE 0,,-1.
 29857					;IF THESE RESULTS OCCUR, THE TEST PASSES.
 29858
 29859	046514	201 00 0 00 777777 	C2700:	MOVEI	-1		;PRELOAD AC WITH 0,,-1
 29860	046515	205 01 0 00 777777 		MOVSI	1,-1		;PRELOAD E WITH -1,,0
 29861	046516	250 00 0 00 000001 		EXCH	1		;*EXCH SHOULD PLACE -1,,0 INTO THE AC AND 0,,-1 INTO E
 29862	046517	302 01 0 00 777777 		CAIE	1,-1		;PASS IF C(E)=0,,-1
 29863						STOP^
 29864	046520	254 04 0 00 046521 		HALT	.+1		;TEST FAILED IF PROGRAM HALTS HERE
 29865	046521	324 00 0 00 046522 		JUMPA	.+1		;IF TEST FAILS, CHANGE THIS INSTRUCTION (JUMPA .+1) TO
 29866									;JUMPA X (X IS THE ADDRESS OF THE FIRST INSTRUCTION
 29867									;IN THE SUBTEST) TO LOOP ON ERROR^
 29868	046522	312 00 0 00 070331 	C2710:	CAME	,[XWD -1,0]	;PASS IF C(AC)=-1,,0
 29869						STOP^
 29870	046523	254 04 0 00 046524 		HALT	.+1		;TEST FAILED IF PROGRAM HALTS HERE
 29871	046524	324 00 0 00 046525 		JUMPA	.+1		;IF TEST FAILS, CHANGE THIS INSTRUCTION (JUMPA .+1) TO
 29872									;JUMPA X (X IS THE ADDRESS OF THE FIRST INSTRUCTION
 29873									;IN THE SUBTEST) TO LOOP ON ERROR^
 29874
 29875					;**********
DFKAA PDP-10 KL10 BASIC INSTRUCTION DIAGNOSTIC (1) VER 0,2	MACRO %52(537) 09:34 31-JAN-77 PAGE 14
DFKAA4	MAC	25-AUG-75 13:58		TEST OF EXCH INSTRUCTION                                                           SEQ 0648

 29876					;THIS TEST IS A RELIABILITY CHECK OF EXCH.
 29877					;FIRST, AC, E ARE PRELOADED WITH 252525,,252525.  THERE, EXCH IS
 29878					;EXECUTED 7 TIMES.  THE AC IS THEN CHECKED FOR 252525,,252525.
 29879					;IF C(AC)=C(E)=252525,,252525, THIS TEST PASSES.
 29880					;IN THIS TEST AC=E=AC0
 29881
 29882	046525	200 00 0 00 070614 	C3000:	MOVE	[252525252525]	;PRELOAD AC,E WITH 252525,,252525
 29883						REPEAT	7,
 29884					<	EXCH			;*EXCH SHOULD PLACE 252525,,252525 INTO AC0>
 29885	046526	250 00 0 00 000000 		EXCH			;*EXCH SHOULD PLACE 252525,,252525 INTO AC0
 29886	046527	250 00 0 00 000000 		EXCH			;*EXCH SHOULD PLACE 252525,,252525 INTO AC0
 29887	046530	250 00 0 00 000000 		EXCH			;*EXCH SHOULD PLACE 252525,,252525 INTO AC0
 29888	046531	250 00 0 00 000000 		EXCH			;*EXCH SHOULD PLACE 252525,,252525 INTO AC0
 29889	046532	250 00 0 00 000000 		EXCH			;*EXCH SHOULD PLACE 252525,,252525 INTO AC0
 29890	046533	250 00 0 00 000000 		EXCH			;*EXCH SHOULD PLACE 252525,,252525 INTO AC0
 29891	046534	250 00 0 00 000000 		EXCH			;*EXCH SHOULD PLACE 252525,,252525 INTO AC0
 29892	046535	312 00 0 00 070614 		CAME	[252525252525]	;PASS IF C(AC0)=252525,,252525
 29893						STOP^
 29894	046536	254 04 0 00 046537 		HALT	.+1		;TEST FAILED IF PROGRAM HALTS HERE
 29895	046537	324 00 0 00 046540 		JUMPA	.+1		;IF TEST FAILS, CHANGE THIS INSTRUCTION (JUMPA .+1) TO
 29896									;JUMPA X (X IS THE ADDRESS OF THE FIRST INSTRUCTION
 29897									;IN THE SUBTEST) TO LOOP ON ERROR^
 29898
 29899					;**********
 29900					PAGE
DFKAA PDP-10 KL10 BASIC INSTRUCTION DIAGNOSTIC (1) VER 0,2	MACRO %52(537) 09:34 31-JAN-77 PAGE 14-1
DFKAA4	MAC	25-AUG-75 13:58		TEST OF EXCH INSTRUCTION                                                           SEQ 0649

 29901					;THIS TEST VERIFIES THAT EXCH MOVES C(AC) INTO E AND C(E) INTO THE AC.
 29902					;IN THIS CASE, C(AC)=0 AND C(E)=-1,,-1.  EXCH IS EXECUTED 7 TIMES; THEN,
 29903					;THE AC IS CHECKED FOR -1,,-1 AND E IS CHECKED FOR 0.  IF EITHER OF THESE
 29904					;RESULTS ARE NOT FOUND, THIS TEST FAILS.
 29905
 29906	046540	400 00 0 00 000000 	C3100:	SETZ			;PRELOAD AC WITH 0
 29907	046541	474 01 0 00 000000 		SETO	1,0		;PRELOAD E WITH -1,,-1
 29908						REPEAT	7,
 29909					<	EXCH	1		;*EXCH SHOULD EXCHANGE C(AC) AND C(E)>
 29910	046542	250 00 0 00 000001 		EXCH	1		;*EXCH SHOULD EXCHANGE C(AC) AND C(E)
 29911	046543	250 00 0 00 000001 		EXCH	1		;*EXCH SHOULD EXCHANGE C(AC) AND C(E)
 29912	046544	250 00 0 00 000001 		EXCH	1		;*EXCH SHOULD EXCHANGE C(AC) AND C(E)
 29913	046545	250 00 0 00 000001 		EXCH	1		;*EXCH SHOULD EXCHANGE C(AC) AND C(E)
 29914	046546	250 00 0 00 000001 		EXCH	1		;*EXCH SHOULD EXCHANGE C(AC) AND C(E)
 29915	046547	250 00 0 00 000001 		EXCH	1		;*EXCH SHOULD EXCHANGE C(AC) AND C(E)
 29916	046550	250 00 0 00 000001 		EXCH	1		;*EXCH SHOULD EXCHANGE C(AC) AND C(E)
 29917	046551	312 00 0 00 070254 		CAME	[-1]		;PASS IF C(AC)=-1,,-1
 29918						STOP^
 29919	046552	254 04 0 00 046553 		HALT	.+1		;TEST FAILED IF PROGRAM HALTS HERE
 29920	046553	324 00 0 00 046554 		JUMPA	.+1		;IF TEST FAILS, CHANGE THIS INSTRUCTION (JUMPA .+1) TO
 29921									;JUMPA X (X IS THE ADDRESS OF THE FIRST INSTRUCTION
 29922									;IN THE SUBTEST) TO LOOP ON ERROR^
 29923	046554	312 01 0 00 070253 	C3110:	CAME	1,[0]		;PASS IF C(E)=0
 29924						STOP^
 29925	046555	254 04 0 00 046556 		HALT	.+1		;TEST FAILED IF PROGRAM HALTS HERE
 29926	046556	324 00 0 00 046557 		JUMPA	.+1		;IF TEST FAILS, CHANGE THIS INSTRUCTION (JUMPA .+1) TO
 29927									;JUMPA X (X IS THE ADDRESS OF THE FIRST INSTRUCTION
 29928									;IN THE SUBTEST) TO LOOP ON ERROR^
 29929
 29930					;**********
DFKAA PDP-10 KL10 BASIC INSTRUCTION DIAGNOSTIC (1) VER 0,2	MACRO %52(537) 09:34 31-JAN-77 PAGE 15
DFKAA4	MAC	25-AUG-75 13:58		TEST OF MOVEM INSTRUCTION                                                          SEQ 0650

 29931					SUBTTL	TEST OF MOVEM INSTRUCTION
 29932
 29933					;THIS TEST VERIFIES THAT MOVEM PLACES C(AC) INTO E AND DOES NOT MODIFY C(AC)
 29934					;IN THIS CASE, C(AC)=-1,,-1 AND C(E)=0.  HENCE, THE RESULT IN AC AND E SHOULD
 29935					;BE -1,,-1.  IF C(AC) AND C(E)=-1,,-1, THIS TEST PASSES
 29936
 29937	046557	474 00 0 00 000000 	C3200:	SETO			;PRELOAD AC WITH -1,,-1
 29938	046560	400 01 0 00 000000 		SETZ	1,0		;PRELOAD E WITH 0
 29939	046561	202 00 0 00 000001 		MOVEM	1		;*MOVEM SHOULD PLACE -1,,-1 INTO E
 29940	046562	312 01 0 00 070254 		CAME	1,[-1]		;PASS IF C(E)=-1,,-1
 29941						STOP^
 29942	046563	254 04 0 00 046564 		HALT	.+1		;TEST FAILED IF PROGRAM HALTS HERE
 29943	046564	324 00 0 00 046565 		JUMPA	.+1		;IF TEST FAILS, CHANGE THIS INSTRUCTION (JUMPA .+1) TO
 29944									;JUMPA X (X IS THE ADDRESS OF THE FIRST INSTRUCTION
 29945									;IN THE SUBTEST) TO LOOP ON ERROR^
 29946	046565	312 00 0 00 070254 	C3210:	CAME	0,[-1]		;PASS IF C(AC)=-1,,-1
 29947						STOP^
 29948	046566	254 04 0 00 046567 		HALT	.+1		;TEST FAILED IF PROGRAM HALTS HERE
 29949	046567	324 00 0 00 046570 		JUMPA	.+1		;IF TEST FAILS, CHANGE THIS INSTRUCTION (JUMPA .+1) TO
 29950									;JUMPA X (X IS THE ADDRESS OF THE FIRST INSTRUCTION
 29951									;IN THE SUBTEST) TO LOOP ON ERROR^
 29952
 29953					;**********
DFKAA PDP-10 KL10 BASIC INSTRUCTION DIAGNOSTIC (1) VER 0,2	MACRO %52(537) 09:34 31-JAN-77 PAGE 16
DFKAA4	MAC	25-AUG-75 13:58		TEST OF JFCL INSTRUCTION AND ARITHMETIC FLAGS                                      SEQ 0651

 29954					SUBTTL	TEST OF JFCL INSTRUCTION AND ARITHMETIC FLAGS
 29955
 29956					;**********
 29957
 29958					;THIS TEST VERIFIES THAT JFCL 17,.+1 ALWAYS RETURNS TO THE NEXT SEQUENTIAL INSTRUCTION
 29959					;IF JFCL SKIPS THE NEXT INSTRUCTION, THIS TEST FAILS
 29960
 29961	046570	200 00 0 00 070615 	C3300:	MOVE	[HALT .+3]	;THIS INSTRUCTION SHOULD NOT AFFECT THE TEST
 29962	046571	255 17 0 00 046572 		JFCL	17,.+1		;*JFCL SHOULD RETURN TO NEXT SEQUENTIAL INSTRUCTION
 29963	046572	304 00 0 00 000000 		CAIA			;SKIP HALT INSTRUCTION IF JFCL PASSES
 29964						STOP^
 29965	046573	254 04 0 00 046574 		HALT	.+1		;TEST FAILED IF PROGRAM HALTS HERE
 29966	046574	324 00 0 00 046575 		JUMPA	.+1		;IF TEST FAILS, CHANGE THIS INSTRUCTION (JUMPA .+1) TO
 29967									;JUMPA X (X IS THE ADDRESS OF THE FIRST INSTRUCTION
 29968									;IN THE SUBTEST) TO LOOP ON ERROR^
 29969
 29970					;**********
 29971
 29972					;THIS TEST VERIFIES THAT JFCL 17,.+1 ALWAYS CLEARS THE CRY0 FLAG.
 29973					;ADDI IS USED TO SET CRY0.  THEN, JFCL 17,.+1 IS EXECUTED TO CLEAR CRY0.
 29974					;JFCL 4,.+2 IS EXECUTED TO DETERMINE WHETHER CRY0 WAS RESET BY THE PREVIOUS JFCL.
 29975					;THIS TEST FAILS IF JFCL 17,.+1 DID NOT CLEAR CRY0
 29976
 29977	046575	200 00 0 00 070254 	C3400:	MOVE	[-1]		;PRELOAD AC WITH -1,,-1
 29978	046576	271 00 0 00 000001 		ADDI	1		;SET CRY0 FLAG
 29979	046577	255 17 0 00 046600 		JFCL	17,.+1		;*CLEAR ARITHMETIC FLAGS
 29980	046600	255 04 0 00 046602 		JFCL	4,.+2		;PASS IF CRY0 WAS RESET BY PREVIOUS INSTRUCTION
 29981	046601	334 00 0 00 000000 		SKIPA			;SKIP HALT IF CRY0 WAS CLEARED
 29982						STOP^
 29983	046602	254 04 0 00 046603 		HALT	.+1		;TEST FAILED IF PROGRAM HALTS HERE
 29984	046603	324 00 0 00 046604 		JUMPA	.+1		;IF TEST FAILS, CHANGE THIS INSTRUCTION (JUMPA .+1) TO
 29985									;JUMPA X (X IS THE ADDRESS OF THE FIRST INSTRUCTION
 29986									;IN THE SUBTEST) TO LOOP ON ERROR^
 29987
 29988					;**********
DFKAA PDP-10 KL10 BASIC INSTRUCTION DIAGNOSTIC (1) VER 0,2	MACRO %52(537) 09:34 31-JAN-77 PAGE 17
DFKAA4	MAC	25-AUG-75 13:58		TEST OF JFCL INSTRUCTION AND ARITHMETIC FLAGS                                      SEQ 0652

 29989					;THIS TEST VERIFIES THAT JFCL 17,.+1 ALWAYS CLEARS THE CRY1 FLAG.
 29990					;ADDI IS USED TO SET CRY1.  THEN, JFCL 17,.+1 IS EXECUTED TO CLEAR CRY1.
 29991					;JFCL 4,.+2 IS EXECUTED TO DETERMINE WHETHER CRY1 WAS RESET BY THE PREVIOUS JFCL.
 29992					;THIS TEST FAILS IF JFCL 17,.+1 DID NOT CLEAR CRY1
 29993
 29994	046604	200 00 0 00 070254 	C3500:	MOVE	[-1]		;PRELOAD AC WITH -1,,-1
 29995	046605	271 00 0 00 000001 		ADDI	1		;SET CRY1 FLAG
 29996	046606	255 17 0 00 046607 		JFCL	17,.+1		;*CLEAR ARITHMETIC FLAGS
 29997	046607	255 02 0 00 046611 		JFCL	2,.+2		;PASS IF CRY1 WAS RESET BY PREVIOUS INSTRUCTION
 29998	046610	334 00 0 00 000000 		SKIPA			;SKIP HALT IF CRY1 WAS CLEARED
 29999						STOP^
 30000	046611	254 04 0 00 046612 		HALT	.+1		;TEST FAILED IF PROGRAM HALTS HERE
 30001	046612	324 00 0 00 046613 		JUMPA	.+1		;IF TEST FAILS, CHANGE THIS INSTRUCTION (JUMPA .+1) TO
 30002									;JUMPA X (X IS THE ADDRESS OF THE FIRST INSTRUCTION
 30003									;IN THE SUBTEST) TO LOOP ON ERROR^
 30004
 30005					;**********
 30006
 30007					;THIS TEST VERIFIES THAT JFCL 17,.+1 ALWAYS CLEARS THE AROV FLAG.
 30008					;ADDI IS USED TO SET AROV.  THEN, JFCL 17,.+1 IS EXECUTED TO CLEAR AROV.
 30009					;JFCL 4,.+2 IS EXECUTED TO DETERMINE WHETHER AROV WAS RESET BY THE PREVIOUS JFCL.
 30010					;THIS TEST FAILS IF JFCL 17,.+1 DID NOT CLEAR AROV
 30011
 30012	046613	205 00 0 00 400000 	C3600:	MOVSI	400000		;PRELOAD AC WITH -1,,-1
 30013	046614	270 00 0 00 070256 		ADD	[XWD 400000,0]	;SET AROV FLAG
 30014	046615	255 17 0 00 046616 		JFCL	17,.+1		;*CLEAR ARITHMETIC FLAGS
 30015	046616	255 10 0 00 046620 		JFCL	10,.+2		;PASS IF AROV WAS RESET BY PREVIOUS INSTRUCTION
 30016	046617	334 00 0 00 000000 		SKIPA			;SKIP HALT IF AROV WAS CLEARED
 30017						STOP^
 30018	046620	254 04 0 00 046621 		HALT	.+1		;TEST FAILED IF PROGRAM HALTS HERE
 30019	046621	324 00 0 00 046622 		JUMPA	.+1		;IF TEST FAILS, CHANGE THIS INSTRUCTION (JUMPA .+1) TO
 30020									;JUMPA X (X IS THE ADDRESS OF THE FIRST INSTRUCTION
 30021									;IN THE SUBTEST) TO LOOP ON ERROR^
 30022
 30023					;**********
DFKAA PDP-10 KL10 BASIC INSTRUCTION DIAGNOSTIC (1) VER 0,2	MACRO %52(537) 09:34 31-JAN-77 PAGE 18
DFKAA4	MAC	25-AUG-75 13:58		TEST OF JFCL INSTRUCTION AND ARITHMETIC FLAGS                                      SEQ 0653

 30024					;THIS TEST VERIFIES THAT JFCL 0, IS A NO-OP.
 30025					;IN THIS TEST, ADD IS USED TO SET CRY0.  THEN JFCL 0,.+2 IS EXECUTED.
 30026					;IF JFCL 0,.+2 DOES NOT SKIP THE NEXT INSTRUCTION, THIS TEST PASSES
 30027
 30028	046622	205 00 0 00 400000 	C3700:	MOVSI	400000		;PRELOAD AC WITH MOST NEGATIVE NUMBER
 30029	046623	270 00 0 00 070254 		ADD	[-1]		;SET CRY0 FLAG
 30030	046624	255 00 0 00 046626 		JFCL	.+2		;*JFCL SHOULD RETURN TO NEXT SEQUENTIAL INSTRUCTION
 30031	046625	334 00 0 00 000000 		SKIPA			;PASS IF JFCL DID NOT SKIP
 30032						STOP^
 30033	046626	254 04 0 00 046627 		HALT	.+1		;TEST FAILED IF PROGRAM HALTS HERE
 30034	046627	324 00 0 00 046630 		JUMPA	.+1		;IF TEST FAILS, CHANGE THIS INSTRUCTION (JUMPA .+1) TO
 30035									;JUMPA X (X IS THE ADDRESS OF THE FIRST INSTRUCTION
 30036									;IN THE SUBTEST) TO LOOP ON ERROR^
 30037
 30038					;**********
 30039
 30040					;THIS TEST VERIFIES THAT JFCL 0, IS A NO-OP.
 30041					;IN THIS TEST, ADD IS USED TO SET CRY1.  THEN JFCL 0,.+2 IS EXECUTED.
 30042					;IF JFCL 0,.+2 DOES NOT SKIP THE NEXT INSTRUCTION, THIS TEST PASSES
 30043
 30044	046630	205 00 0 00 200000 	C4000:	MOVSI	200000		;PRELOAD AC WITH MOST NEGATIVE NUMBER
 30045	046631	270 00 0 00 070326 		ADD	[XWD 200000,0]	;SET CRY1 FLAG
 30046	046632	255 00 0 00 046634 		JFCL	.+2		;*JFCL SHOULD RETURN TO NEXT SEQUENTIAL INSTRUCTION
 30047	046633	334 00 0 00 000000 		SKIPA			;PASS IF JFCL DID NOT SKIP
 30048						STOP^
 30049	046634	254 04 0 00 046635 		HALT	.+1		;TEST FAILED IF PROGRAM HALTS HERE
 30050	046635	324 00 0 00 046636 		JUMPA	.+1		;IF TEST FAILS, CHANGE THIS INSTRUCTION (JUMPA .+1) TO
 30051									;JUMPA X (X IS THE ADDRESS OF THE FIRST INSTRUCTION
 30052									;IN THE SUBTEST) TO LOOP ON ERROR^
 30053
 30054					;**********
DFKAA PDP-10 KL10 BASIC INSTRUCTION DIAGNOSTIC (1) VER 0,2	MACRO %52(537) 09:34 31-JAN-77 PAGE 19
DFKAA4	MAC	25-AUG-75 13:58		TEST OF JFCL INSTRUCTION AND ARITHMETIC FLAGS                                      SEQ 0654

 30055					;THIS TEST VERIFIES THAT ADDI HAS THE ABILITY TO SET AN ARITHMETIC FLAG AND
 30056					;THAT 'JFCL 17,.+2' JUMPS WHENEVER ANY ARITHMETIC FLAG IS SET.
 30057					;IN THIS TEST, ADDI SHOULD SET CRY0 AND CRY1.  THEN, JFCL SHOULD SKIP
 30058					;BECAUSE A FLAG WAS SET BY ADDI
 30059					;IF THIS TEST FAILS, ADDI COULD HAVE FAILED TO SET A FLAG OR
 30060					;JFCL COULD HAVE FAILED TO JUMP WHEN A FLAG WAS SET
 30061
 30062	046636	200 00 0 00 070254 	C4100:	MOVE	[-1]		;PRELOAD AC WITH ALL ONES
 30063	046637	271 00 0 00 000001 		ADDI	1		;*ADDI SHOULD SET CRY0/1 FLAGS
 30064	046640	255 17 0 00 046642 		JFCL	17,.+2		;*JFCL SHOULD JUMP BECAUSE FLAGS ARE SET
 30065						STOP^
 30066	046641	254 04 0 00 046642 		HALT	.+1		;TEST FAILED IF PROGRAM HALTS HERE
 30067	046642	324 00 0 00 046643 		JUMPA	.+1		;IF TEST FAILS, CHANGE THIS INSTRUCTION (JUMPA .+1) TO
 30068									;JUMPA X (X IS THE ADDRESS OF THE FIRST INSTRUCTION
 30069									;IN THE SUBTEST) TO LOOP ON ERROR^
 30070
 30071					;**********
 30072
 30073					;THIS TEST VERIFIES THAT CAI DOES NOT CLEAR ANY ARITHMETIC FLAGS.
 30074					;FIRST, CRY0 AND CRY1 ARE SET BY ADDI; THEN CAI IS EXECUTED.
 30075					;JFCL SHOULD JUMP BECAUSE FLAGS ARE SET.  IF JFCL DOES NOT JUMP,
 30076					;THE FLAGS WERE CLEARED BY CAI.  HENCE, CAI FAILED
 30077
 30078	046643	200 00 0 00 070254 	C4200:	MOVE	[-1]		;PRELOAD AC WITH -1,,-1
 30079	046644	271 00 0 00 000001 		ADDI	1		;SET CYR0/1 FLAGS
 30080	046645	300 17 0 00 000017 		CAI	17,17		;*CAI SHOULD NOT CLEAR FLAGS
 30081	046646	255 17 0 00 046650 		JFCL	17,.+2		;PASS IF CAI CLEARED FLAGS
 30082						STOP^
 30083	046647	254 04 0 00 046650 		HALT	.+1		;TEST FAILED IF PROGRAM HALTS HERE
 30084	046650	324 00 0 00 046651 		JUMPA	.+1		;IF TEST FAILS, CHANGE THIS INSTRUCTION (JUMPA .+1) TO
 30085									;JUMPA X (X IS THE ADDRESS OF THE FIRST INSTRUCTION
 30086									;IN THE SUBTEST) TO LOOP ON ERROR^
 30087
 30088					;**********
DFKAA PDP-10 KL10 BASIC INSTRUCTION DIAGNOSTIC (1) VER 0,2	MACRO %52(537) 09:34 31-JAN-77 PAGE 20
DFKAA4	MAC	25-AUG-75 13:58		TEST OF JFCL INSTRUCTION AND ARITHMETIC FLAGS                                      SEQ 0655

 30089					;THIS TEST VERIFIES THAT ADDI HAS THE ABILITY TO SET AN ARITHMETIC FLAG AND
 30090					;THAT 'JFCL 17,.+2' JUMPS WHENEVER ANY ARITHMETIC FLAG IS SET.
 30091					;IN THIS TEST, ADDI SHOULD SET CRY0 AND CRY1.  THEN JFCL SHOULD SKIP
 30092					;BECAUSE A FLAG WAS SET BY ADDI
 30093					;IF THIS TEST FAILS, ADDI COULD HAVE FAILED TO SET A FLAG OR
 30094					;JFCL COULD HAVE FAILED TO JUMP WHEN A FLAG WAS SET
 30095
 30096	046651	200 00 0 00 070254 	C4300:	MOVE	[-1]		;PRELOAD AC WITH ALL ONES
 30097	046652	271 00 0 00 000001 		ADDI	1		;*ADDI SHOULD SET CRY1 FLAGS
 30098	046653	255 02 0 00 046655 		JFCL	2,.+2		;*JFCL SHOULD JUMP BECAUSE CRY1 FLAG IS SET
 30099						STOP^
 30100	046654	254 04 0 00 046655 		HALT	.+1		;TEST FAILED IF PROGRAM HALTS HERE
 30101	046655	324 00 0 00 046656 		JUMPA	.+1		;IF TEST FAILS, CHANGE THIS INSTRUCTION (JUMPA .+1) TO
 30102									;JUMPA X (X IS THE ADDRESS OF THE FIRST INSTRUCTION
 30103									;IN THE SUBTEST) TO LOOP ON ERROR^
 30104
 30105					;**********
 30106
 30107					;THIS TEST VERIFIES THAT ADDI HAS THE ABILITY TO SET AN ARITHMETIC FLAG AND
 30108					;THAT 'JFCL 17,.+2' JUMPS WHENEVER ANY ARITHMETIC FLAG IS SET.
 30109					;IN THIS TEST, ADDI SHOULD SET CRY0 AND CRY1.  THEN, JFCL SHOULD SKIP
 30110					;BECAUSE A FLAG WAS SET BY ADDI
 30111					;IF THIS TEST FAILS, ADDI COULD HAVE FAILED TO SET A FLAG OR
 30112					;JFCL COULD HAVE FAILED TO JUMP WHEN A FLAG WAS SET
 30113
 30114	046656	200 00 0 00 070254 	C4400:	MOVE	[-1]		;PRELOAD AC WITH ALL ONES
 30115	046657	271 00 0 00 000001 		ADDI	1		;*ADDI SHOULD SET CRY0 FLAG
 30116	046660	255 04 0 00 046662 		JFCL	4,.+2		;*JFCL SHOULD JUMP BECAUSE CRY0 FLAG IS SET
 30117						STOP^
 30118	046661	254 04 0 00 046662 		HALT	.+1		;TEST FAILED IF PROGRAM HALTS HERE
 30119	046662	324 00 0 00 046663 		JUMPA	.+1		;IF TEST FAILS, CHANGE THIS INSTRUCTION (JUMPA .+1) TO
 30120									;JUMPA X (X IS THE ADDRESS OF THE FIRST INSTRUCTION
 30121									;IN THE SUBTEST) TO LOOP ON ERROR^
 30122
 30123					;**********
DFKAA PDP-10 KL10 BASIC INSTRUCTION DIAGNOSTIC (1) VER 0,2	MACRO %52(537) 09:34 31-JAN-77 PAGE 21
DFKAA4	MAC	25-AUG-75 13:58		TEST OF JFCL INSTRUCTION AND ARITHMETIC FLAGS                                      SEQ 0656

 30124					;THIS TEST VERIFIES THAT ADDI HAS THE ABILITY TO SET AN ARITHMETIC FLAG AND
 30125					;THAT 'JFCL 17,.+2' JUMPS WHENEVER ANY ARITHMETIC FLAG IS SET.
 30126					;BECAUSE A FLAG WAS SET BY ADD
 30127					;IF THIS TEST FAILS, ADDI COULD HAVE FAILED TO SET A FLAG OR
 30128					;JFCL COULD HAVE FAILED TO JUMP WHEN A FLAG WAS SET
 30129
 30130	046663	205 00 0 00 400000 	C4500:	MOVSI	400000		;PRELOAD AC WITH ALL ONES
 30131	046664	270 00 0 00 070256 		ADD	[XWD 400000,0]	;*ADD SHOULD SET AROV FLAG
 30132	046665	255 10 0 00 046667 		JFCL	10,.+2		;*JFCL SHOULD JUMP BECAUSE AROV FLAG IS SET
 30133						STOP^
 30134	046666	254 04 0 00 046667 		HALT	.+1		;TEST FAILED IF PROGRAM HALTS HERE
 30135	046667	324 00 0 00 046670 		JUMPA	.+1		;IF TEST FAILS, CHANGE THIS INSTRUCTION (JUMPA .+1) TO
 30136									;JUMPA X (X IS THE ADDRESS OF THE FIRST INSTRUCTION
 30137									;IN THE SUBTEST) TO LOOP ON ERROR^
 30138
 30139					;**********
 30140
 30141					;THIS TEST VERIFIES THAT JFCL 17,.+1 ALWAYS CLEARS THE FLOATING OVERFLOW FLAG (FOV).
 30142					;FIRST JFCL 17,.+1 IS EXECUTED TO CLEAR FOV.  THEN, JFCL 1,.+2 IS EXECUTED TO DETERMINE
 30143					;WHETHER FOV WAS CLEARED.  IF FOV WAS CLEAR, THIS TEST PASSES
 30144
 30145	046670	255 17 0 00 046671 	C4600:	JFCL	17,.+1		;*CLEAR ARITHMETIC FLAGS
 30146	046671	255 01 0 00 046673 		JFCL	1,.+2		;PASS IF FOV WAS CLEARED
 30147	046672	334 00 0 00 000000 		SKIPA			;SKIP HALT IF TEST PASSED
 30148						STOP^
 30149	046673	254 04 0 00 046674 		HALT	.+1		;TEST FAILED IF PROGRAM HALTS HERE
 30150	046674	324 00 0 00 046675 		JUMPA	.+1		;IF TEST FAILS, CHANGE THIS INSTRUCTION (JUMPA .+1) TO
 30151									;JUMPA X (X IS THE ADDRESS OF THE FIRST INSTRUCTION
 30152									;IN THE SUBTEST) TO LOOP ON ERROR^
 30153
 30154					;**********
DFKAA PDP-10 KL10 BASIC INSTRUCTION DIAGNOSTIC (1) VER 0,2	MACRO %52(537) 09:34 31-JAN-77 PAGE 22
DFKAA4	MAC	25-AUG-75 13:58		TEST OF JFCL INSTRUCTION AND ARITHMETIC FLAGS                                      SEQ 0657

 30155					;THIS TEST VERIFIES THAT JFCL 13, DOES NOT RESET CRY0.
 30156					;FIRST CRY0 AND CRY1 ARE SET BY ADDI; THEN, JFCL 13,.+2 IS EXECUTED
 30157					;TO CLEAR ALL ARITHMETIC FLAGS EXCEPT CRY0.
 30158					;THIS TEST PASSES IF JFCL 13,.+1 DID NOT RESET CRY0.
 30159
 30160	046675	200 00 0 00 070254 	C4700:	MOVE	[-1]		;RELOAD AC WITH -1,,-1
 30161	046676	271 00 0 00 000001 		ADDI	1		;SET CRY0/1
 30162	046677	255 13 0 00 046700 		JFCL	13,.+1		;*JFCL 13, SHOULD NOT RESET CRY0
 30163	046700	255 04 0 00 046702 		JFCL	4,.+2		;FAIL IF CRY 0 WAS RESET
 30164						STOP^
 30165	046701	254 04 0 00 046702 		HALT	.+1		;TEST FAILED IF PROGRAM HALTS HERE
 30166	046702	324 00 0 00 046703 		JUMPA	.+1		;IF TEST FAILS, CHANGE THIS INSTRUCTION (JUMPA .+1) TO
 30167									;JUMPA X (X IS THE ADDRESS OF THE FIRST INSTRUCTION
 30168									;IN THE SUBTEST) TO LOOP ON ERROR^
 30169
 30170					;**********
 30171
 30172					;THIS TEST VERIFIES THAT JFCL 15, DOES NOT RESET CRY1.
 30173					;FIRST CRY0 AND CRY1 ARE SET BY ADDI; THEN, JFCL15,.+2 IS EXECUTED
 30174					;TO CLEAR ALL ARITHMETIC FLAGS EXCEPT CRY1.
 30175					;THIS TEST PASSES IF JFCL 15,.+1 DID NOT RESET CRY1.
 30176
 30177	046703	200 00 0 00 070254 	C5000:	MOVE	[-1]		;PRELOAD AC WITH -1,,-1
 30178	046704	271 00 0 00 000001 		ADDI	1		;SET CRY0/1
 30179	046705	255 15 0 00 046706 		JFCL	15,.+1		;*JFCL15, SHOULD NOT RESET CRY0
 30180	046706	255 02 0 00 046710 		JFCL	2,.+2		;FAIL IF CRY1 WAS RESET
 30181						STOP^
 30182	046707	254 04 0 00 046710 		HALT	.+1		;TEST FAILED IF PROGRAM HALTS HERE
 30183	046710	324 00 0 00 046711 		JUMPA	.+1		;IF TEST FAILS, CHANGE THIS INSTRUCTION (JUMPA .+1) TO
 30184									;JUMPA X (X IS THE ADDRESS OF THE FIRST INSTRUCTION
 30185									;IN THE SUBTEST) TO LOOP ON ERROR^
 30186
 30187					;**********
DFKAA PDP-10 KL10 BASIC INSTRUCTION DIAGNOSTIC (1) VER 0,2	MACRO %52(537) 09:34 31-JAN-77 PAGE 23
DFKAA4	MAC	25-AUG-75 13:58		TEST OF JFCL INSTRUCTION AND ARITHMETIC FLAGS                                      SEQ 0658

 30188					;THIS TEST VERIFIES THAT JFCL 17, DOES NOT RESET AROV.
 30189					;FIRST AROV IS SET BY ADD; THEN, JFCL 17,.+2 IS EXECUTED
 30190					;TO CLEAR ALL ARITHMETIC FLAGS EXCEPT AROV.
 30191					;THIS TEST PASSES IF JFCL 17,.+1 DID NOT RESET AROV.
 30192
 30193	046711	205 00 0 00 400000 	C5100:	MOVSI	400000		;PRELOAD AC WITH -1,,-1
 30194	046712	270 00 0 00 070256 		ADD	[XWD 400000,0]	;SET AROV
 30195	046713	255 07 0 00 046714 		JFCL	7,.+1		;*JFCL 17, SHOULD NOT RESET AROV
 30196	046714	255 10 0 00 046716 		JFCL	10,.+2		;FAIL IF AROV WAS RESET
 30197						STOP^
 30198	046715	254 04 0 00 046716 		HALT	.+1		;TEST FAILED IF PROGRAM HALTS HERE
 30199	046716	324 00 0 00 046717 		JUMPA	.+1		;IF TEST FAILS, CHANGE THIS INSTRUCTION (JUMPA .+1) TO
 30200									;JUMPA X (X IS THE ADDRESS OF THE FIRST INSTRUCTION
 30201									;IN THE SUBTEST) TO LOOP ON ERROR^
 30202
 30203					;**********
 30204
 30205					;THIS TEST VERIFIES THAT ADD OF 0 TO 0 WILL NOT SET AROV.
 30206					;FIRST, ALL FLAGS ARE RESET, THEN 0 IS ADDED TO 0 VIA ADD.
 30207					;AROV IS THEN CHECKED.  IF AROV IS SET, THIS TEST FAILS.
 30208
 30209	046717	255 17 0 00 046720 	C5200:	JFCL	17,.+1		;RESET ARITHMETIC FLAGS
 30210	046720	400 00 0 00 000000 		SETZ			;PRELOAD AC,E WITH 0
 30211	046721	270 00 0 00 000000 		ADD			;*ADD SHOULD NOT SET AROV
 30212	046722	255 10 0 00 046724 		JFCL	10,.+2		;PASS IF AROV WAS RESET
 30213	046723	334 00 0 00 000000 		SKIPA			;SKIP HALT IF ADD PASSED
 30214						STOP^
 30215	046724	254 04 0 00 046725 		HALT	.+1		;TEST FAILED IF PROGRAM HALTS HERE
 30216	046725	324 00 0 00 046726 		JUMPA	.+1		;IF TEST FAILS, CHANGE THIS INSTRUCTION (JUMPA .+1) TO
 30217									;JUMPA X (X IS THE ADDRESS OF THE FIRST INSTRUCTION
 30218									;IN THE SUBTEST) TO LOOP ON ERROR^
 30219
 30220					;**********
DFKAA PDP-10 KL10 BASIC INSTRUCTION DIAGNOSTIC (1) VER 0,2	MACRO %52(537) 09:34 31-JAN-77 PAGE 24
DFKAA4	MAC	25-AUG-75 13:58		TEST OF JFCL INSTRUCTION AND ARITHMETIC FLAGS                                      SEQ 0659

 30221					;THIS TEST VERIFIES THAT ADD OF 0 TO 0 WILL NOT SET CRY0.
 30222					;FIRST, ALL FLAGS ARE RESET, THEN 0 IS ADDED TO 0 VIA ADD.
 30223					;CRY0 IS THEN CHECKED.  IF CRY0 IS SET, THIS TEST FAILS.
 30224
 30225
 30226	046726	400 00 0 00 000000 	C5300:	SETZ			;RESET ARITHMETIC FLAGS
 30227	046727	255 17 0 00 046730 		JFCL	17,.+1		;PRELOAD AC,E WITH 0
 30228	046730	270 00 0 00 000000 		ADD			;*ADD SHOULD NOT SET CRY0
 30229	046731	255 04 0 00 046733 		JFCL	4,.+2		;PASS IF CRY0 WAS RESET
 30230	046732	334 00 0 00 000000 		SKIPA			;SKIP HALT IF ADD PASSED
 30231						STOP^
 30232	046733	254 04 0 00 046734 		HALT	.+1		;TEST FAILED IF PROGRAM HALTS HERE
 30233	046734	324 00 0 00 046735 		JUMPA	.+1		;IF TEST FAILS, CHANGE THIS INSTRUCTION (JUMPA .+1) TO
 30234									;JUMPA X (X IS THE ADDRESS OF THE FIRST INSTRUCTION
 30235									;IN THE SUBTEST) TO LOOP ON ERROR^
 30236
 30237					;**********
 30238
 30239					;THIS TEST VERIFIES THAT ADD OF 0 TO 0 WILL NOT SET CRY1.
 30240					;FIRST, ALL FLAGS ARE RESET, THEN 0 IS ADDED TO 0 VIA ADD.
 30241					;CRY1 IS THEN CHECKED.  IF CRY1 IS SET, THIS TEST FAILS.
 30242
 30243	046735	400 00 0 00 000000 	C5400:	SETZ			;RESET ARITHMETIC FLAGS
 30244	046736	255 17 0 00 046737 		JFCL	17,.+1		;PRELOAD AC,E WITH 0
 30245	046737	270 00 0 00 000000 		ADD			;*ADD SHOULD NOT SET CRY1
 30246	046740	255 02 0 00 046742 		JFCL	2,.+2		;PASS IF CRY1 WAS RESET
 30247	046741	334 00 0 00 000000 		SKIPA			;SKIP HALT IF ADD PASSED
 30248						STOP^
 30249	046742	254 04 0 00 046743 		HALT	.+1		;TEST FAILED IF PROGRAM HALTS HERE
 30250	046743	324 00 0 00 046744 		JUMPA	.+1		;IF TEST FAILS, CHANGE THIS INSTRUCTION (JUMPA .+1) TO
 30251									;JUMPA X (X IS THE ADDRESS OF THE FIRST INSTRUCTION
 30252									;IN THE SUBTEST) TO LOOP ON ERROR^
 30253
 30254					;**********
DFKAA PDP-10 KL10 BASIC INSTRUCTION DIAGNOSTIC (1) VER 0,2	MACRO %52(537) 09:34 31-JAN-77 PAGE 25
DFKAA4	MAC	25-AUG-75 13:58		TEST OF JFCL INSTRUCTION AND ARITHMETIC FLAGS                                      SEQ 0660

 30255					;THIS TEST VERIFIES THAT THE 30X AND THE 31X INSTRUCTION GROUPS DO NOT AFFECT
 30256					;THE ARITHMETIC FLAGS.  FIRST, THE FLAGS ARE CLEARED AND AC0 IS CLEARED; THEN, CAI
 30257					;AND CAM ARE EXECUTED.  THE FLAGS ARE THEN CHECKED.  IF ANY OF THE FLAGS ARE SET,
 30258					;THIS TEST FAILS AND CAI OR CAM IS CONSIDERED TO HAVE ERRONEOUSLY SET THE FLAGS
 30259
 30260	046744	255 17 0 00 046745 	C5500:	JFCL	17,.+1		;CLEAR ALL FLAGS
 30261	046745	400 00 0 00 000000 		SETZ			;CLEAR AC,0
 30262	046746	300 00 0 00 000000 		CAI			;*CAI SHOULD NOT SET ANY ARITHMETIC FLAG
 30263	046747	310 00 0 00 070254 		CAM	[-1]		;*CAM SHOULD NOT SET ANY ARITHMETIC FLAG
 30264	046750	255 17 0 00 046752 		JFCL	17,.+2		;FAIL IF ANY FLAG WAS SET
 30265	046751	334 00 0 00 000000 		SKIPA			;SKIP HALT IF TEST PASSED
 30266						STOP^
 30267	046752	254 04 0 00 046753 		HALT	.+1		;TEST FAILED IF PROGRAM HALTS HERE
 30268	046753	324 00 0 00 046754 		JUMPA	.+1		;IF TEST FAILS, CHANGE THIS INSTRUCTION (JUMPA .+1) TO
 30269									;JUMPA X (X IS THE ADDRESS OF THE FIRST INSTRUCTION
 30270									;IN THE SUBTEST) TO LOOP ON ERROR^
 30271
 30272					;**********
 30273
 30274					;THIS TEST VERIFIES THAT THE BOOLEAN INSTRUCTION GROUPS DO NOT AFFECT
 30275					;THE ARITHMETIC FLAGS.  FIRST THE FLAGS ARE CLEARED AND AC0 IS CLEARED; THEN, XOR [0]
 30276					;AND XOR [-1] ARE EXECUTED.  THE FLAGS ARE THEN CHECKED.  IF ANY OF THE FLAGS ARE SET,
 30277					;THIS TEST FAILS AND XOR IS CONSIDERED TO HAVE ERRONEOUSLY SET THE FLAGS
 30278
 30279	046754	255 17 0 00 046755 	C5600:	JFCL	17,.+1		;CLEAR ALL FLAGS
 30280	046755	474 00 0 00 000000 		SETO			;CLEAR AC,0
 30281	046756	430 00 0 00 070253 		XOR	[0]		;*XOR SHOULD NOT SET ANY ARITHMETIC FLAG
 30282	046757	430 00 0 00 070254 		XOR	[-1]		;*XOR SHOULD NOT SET ANY ARITHMETIC FLAG
 30283	046760	255 17 0 00 046762 		JFCL	17,.+2		;FAIL IF ANY FLAG WAS SET
 30284	046761	334 00 0 00 000000 		SKIPA			;SKIP HALT IF TEST PASSED
 30285						STOP^
 30286	046762	254 04 0 00 046763 		HALT	.+1		;TEST FAILED IF PROGRAM HALTS HERE
 30287	046763	324 00 0 00 046764 		JUMPA	.+1		;IF TEST FAILS, CHANGE THIS INSTRUCTION (JUMPA .+1) TO
 30288									;JUMPA X (X IS THE ADDRESS OF THE FIRST INSTRUCTION
 30289									;IN THE SUBTEST) TO LOOP ON ERROR^
 30290
 30291					;**********
DFKAA PDP-10 KL10 BASIC INSTRUCTION DIAGNOSTIC (1) VER 0,2	MACRO %52(537) 09:34 31-JAN-77 PAGE 26
DFKAA4	MAC	25-AUG-75 13:58		TEST OF JFCL INSTRUCTION AND ARITHMETIC FLAGS                                      SEQ 0661

 30292					;THIS TEST VERIFIES THAT THE AOBJX INSTRUCTION GROUP DOES DO NOT AFFECT
 30293					;THE ARITHMETIC FLAGS.  FIRST THE FLAGS ARE CLEARED AND AC0 IS CLEARED; THEN, AOBJN
 30294					;AND AOBJP ARE EXECUTED.  THE FLAGS ARE THEN CHECKED.  IF ANY OF THE FLAGS ARE SET,
 30295					;THIS TEST FAILS AND AOBJN OR AOBJP IS CONSIDERED TO HAVE ERRONEOUSLY SET THE FLAGS
 30296
 30297	046764	474 00 0 00 000000 	C5700:	SETO			;CLEAR ALL FLAGS
 30298	046765	255 17 0 00 046766 		JFCL	17,.+1		;CLEAR AC,0
 30299	046766	253 00 0 00 046767 		AOBJN	.+1		;*AOBJN SHOULD NOT SET ANY ARITHMETIC ARITHMETIC
 30300	046767	252 00 0 00 046770 		AOBJP	.+1		;*AOBJP SHOULD NOT SET ANY ARITHMETIC FLAG
 30301	046770	255 17 0 00 046772 		JFCL	17,.+2		;FAIL IF ANY FLAG WAS SET
 30302	046771	334 00 0 00 000000 		SKIPA			;SKIP HALT IF TST PASSED
 30303						STOP^
 30304	046772	254 04 0 00 046773 		HALT	.+1		;TEST FAILED IF PROGRAM HALTS HERE
 30305	046773	324 00 0 00 046774 		JUMPA	.+1		;IF TEST FAILS, CHANGE THIS INSTRUCTION (JUMPA .+1) TO
 30306									;JUMPA X (X IS THE ADDRESS OF THE FIRST INSTRUCTION
 30307									;IN THE SUBTEST) TO LOOP ON ERROR^
 30308
 30309					;**********
DFKAA PDP-10 KL10 BASIC INSTRUCTION DIAGNOSTIC (1) VER 0,2	MACRO %52(537) 09:34 31-JAN-77 PAGE 27
DFKAA4	MAC	25-AUG-75 13:58		TEST OF JFCL INSTRUCTION AND ARITHMETIC FLAGS                                      SEQ 0662

 30310					;THIS TEST VERIFIES THAT SKIP DOES NOT AFFECT THE FLAGS.
 30311					;FIRST, THE ARITHMETIC FLAGS ARE CLEARED; THEN, SKIP IS EXECUTED.
 30312					;IF SKIP SETS AROV, CRYO, CRY1 OR FOV, THIS TEST FAILS.
 30313
 30314	046774	255 17 0 00 046775 	C5701:	JFCL	17,.+1		;CLEAR ALL FLAGS
 30315	046775	330 00 0 00 070254 		SKIP	0,[-1]		;*SKIP SHOULD NOT SET ANY FLAGS
 30316	046776	255 17 0 00 047000 		JFCL	17,.+2		;FAIL IF ANY FLAG IS SET
 30317	046777	334 00 0 00 000000 		SKIPA			;PASS IF NO FLAG IS SET
 30318						STOP^
 30319	047000	254 04 0 00 047001 		HALT	.+1		;TEST FAILED IF PROGRAM HALTS HERE
 30320	047001	324 00 0 00 047002 		JUMPA	.+1		;IF TEST FAILS, CHANGE THIS INSTRUCTION (JUMPA .+1) TO
 30321									;JUMPA X (X IS THE ADDRESS OF THE FIRST INSTRUCTION
 30322									;IN THE SUBTEST) TO LOOP ON ERROR^
 30323
 30324					;**********
 30325
 30326					;THIS TEST VERIFIES THAT JUMP DOES NOT AFFECT THE FLAGS.
 30327					;FIRST, THE ARITHMETIC FLAGS ARE CLEARED; THEN, JUMP IS EXECUTED.
 30328					;IF JUMP SETS AROV, CRYO, CRY1 OR FOV, THIS TEST FAILS.
 30329
 30330	047002	255 17 0 00 047003 	C5702:	JFCL	17,.+1		;CLEAR ALL FLAGS
 30331	047003	320 00 0 00 070254 		JUMP	0,[-1]		;*JUMP SHOULD NOT SET ANY FLAGS
 30332	047004	255 17 0 00 047006 		JFCL	17,.+2		;FAIL IF ANY FLAG IS SET
 30333	047005	334 00 0 00 000000 		SKIPA			;PASS IF NO FLAG IS SET
 30334						STOP^
 30335	047006	254 04 0 00 047007 		HALT	.+1		;TEST FAILED IF PROGRAM HALTS HERE
 30336	047007	324 00 0 00 047010 		JUMPA	.+1		;IF TEST FAILS, CHANGE THIS INSTRUCTION (JUMPA .+1) TO
 30337									;JUMPA X (X IS THE ADDRESS OF THE FIRST INSTRUCTION
 30338									;IN THE SUBTEST) TO LOOP ON ERROR^
 30339
 30340					;**********
DFKAA PDP-10 KL10 BASIC INSTRUCTION DIAGNOSTIC (1) VER 0,2	MACRO %52(537) 09:34 31-JAN-77 PAGE 28
DFKAA4	MAC	25-AUG-75 13:58		TEST OF JRST INSTRUCTION AND ARITHMETIC FLAGS                                      SEQ 0663

 30341					SUBTTL	TEST OF JRST INSTRUCTION AND ARITHMETIC FLAGS
 30342
 30343					;**********
 30344
 30345					;THIS TEST VERIFIES THAT 'JRST, 0' DOES NOT SET ANY FLAGS.
 30346					;FIRST THE ARITHMETIC FLAGS ARE RESET; THEN, 'JRST 0,.+1' IS EXECUTED
 30347					;THE AROV,CRY0 AND CRY1 FLAGS ARE THEN CHECKED. IF ANY
 30348					;OF THESE FLAGS ARE SET, THIS TEST FAILS
 30349
 30350	047010	255 17 0 00 047011 	C6000:	JFCL	17,.+1		;RESET ALL FLAGS
 30351	047011	254 00 0 00 047012 		JRST	.+1		;*JRST SHOULD NOT SET ANY FLAGS
 30352	047012	255 16 0 00 047014 		JFCL	16,.+2		;PASS IF NO FLAGS ARE SET
 30353	047013	334 00 0 00 000000 		SKIPA			;SKIP HALT IF JRST PASSES
 30354						STOP^
 30355	047014	254 04 0 00 047015 		HALT	.+1		;TEST FAILED IF PROGRAM HALTS HERE
 30356	047015	324 00 0 00 047016 		JUMPA	.+1		;IF TEST FAILS, CHANGE THIS INSTRUCTION (JUMPA .+1) TO
 30357									;JUMPA X (X IS THE ADDRESS OF THE FIRST INSTRUCTION
 30358									;IN THE SUBTEST) TO LOOP ON ERROR^
 30359
 30360					;**********
 30361
 30362					;THIS TEST VERIFIES THAT 'MOVE 2,2' DOES NOT SET ANY FLAGS.
 30363					;FIRST, THE ARITHMETIC FLAGS ARE RESET; THEN, 'MOVE 2,2' IS EXECUTED.
 30364					;THE FOV,AROV,CRY0 AND CRY1 FLAGS ARE THEN CHECKED.  IF ANY
 30365					;OF THESE FLAGS ARE SET, THIS TEST FAILS
 30366
 30367	047016	255 17 0 00 047017 	C6100:	JFCL	17,.+1		;RESET ALL FLAGS
 30368	047017	200 02 0 00 000002 		MOVE	2,2		;*MOVE SHOULD NOT SET ANY FLAGS
 30369	047020	255 17 0 00 047022 		JFCL	17,.+2		;PASS IF NO FLAGS ARE SET
 30370	047021	334 00 0 00 000000 		SKIPA			;SKIP HALT IF MOVE PASSED
 30371						STOP^
 30372	047022	254 04 0 00 047023 		HALT	.+1		;TEST FAILED IF PROGRAM HALTS HERE
 30373	047023	324 00 0 00 047024 		JUMPA	.+1		;IF TEST FAILS, CHANGE THIS INSTRUCTION (JUMPA .+1) TO
 30374									;JUMPA X (X IS THE ADDRESS OF THE FIRST INSTRUCTION
 30375									;IN THE SUBTEST) TO LOOP ON ERROR^
 30376
 30377					;**********
DFKAA PDP-10 KL10 BASIC INSTRUCTION DIAGNOSTIC (1) VER 0,2	MACRO %52(537) 09:34 31-JAN-77 PAGE 29
DFKAA4	MAC	25-AUG-75 13:58		TEST OF JRST INSTRUCTION AND ARITHMETIC FLAGS                                      SEQ 0664

 30378					;THIS TEST VERIFIES THAT JRST 2,.+1(1) WILL SET THE ARITHMETIC FLAG
 30379					;SPECIFIED IN AC1.  IN THIS CASE, AC1 SPECIFIES THE CRY0 FLAG.
 30380					;FIRST, ALL FLAGS ARE RESET; THEN AC1 IS SET TO SPECIFY CRY0.
 30381					;NEXT, JRST 2,.+1(1) IS EXECUTED TO SET CRY0.  CRY0 IS THEN CHECKED.  IF
 30382					;CRY0 IS SET, THIS TEST PASSES.  OTHERWISE, JRST 2,.+1 IS FAULTY
 30383
 30384	047024	255 17 0 00 047025 	C6200:	JFCL	17,.+1		;CLEAR ALL FLAGS
 30385						SFLAG	CRY0		^;SET CRY0 FLAG
 30386
 30387	047025	205 01 0 00 200000 		MOVSI	1,CRY0
 30388	047026	255 17 0 00 047027 		JFCL	17,.+1	;RESET ALL FLAGS
 30389	047027	254 02 0 01 047030 		JRST	2,.+1(1)		;SET CRY0 FLAG
 30390	047030	255 04 0 00 047032 		JFCL	4,.+2		;PASS IF CRY0 IS SET
 30391						STOP^
 30392	047031	254 04 0 00 047032 		HALT	.+1		;TEST FAILED IF PROGRAM HALTS HERE
 30393	047032	324 00 0 00 047033 		JUMPA	.+1		;IF TEST FAILS, CHANGE THIS INSTRUCTION (JUMPA .+1) TO
 30394									;JUMPA X (X IS THE ADDRESS OF THE FIRST INSTRUCTION
 30395									;IN THE SUBTEST) TO LOOP ON ERROR^
 30396
 30397					;**********
 30398
 30399					;THIS TEST VERIFIES THAT JRST 2,.+(1) WILL SET THE ARITHMETIC FLAG
 30400					;SPECIFIED IN AC1.  IN THIS CASE, AC1 CONTAIN 0.  HENCE, JRST 2,.+1(1)
 30401					;SHOULD RESET THE ARITHMETIC FLAGS.  FIRST, THE CRY0/1, FLAGS ARE SET BY ADDI;
 30402					;THEN THE FLAGS SHOULD BE CLEARED BY JRST 2,.+1.  IF CRY1 WAS CLEARED, THE
 30403					;TEST PASSES.  OTHERWISE, JRST 2,.+1 IS FAULTY
 30404
 30405	047033	200 00 0 00 070254 	C6300:	MOVE	[-1]		;PRELOAD AC0 WITH -1,,-1
 30406	047034	271 00 0 00 000001 		ADDI	1		;SET CRY0/1 FLAGS
 30407						SFLAG	0		^;RESET ALL ARITHMETIC FLAGS
 30408
 30409	047035	205 01 0 00 000000 		MOVSI	1,0
 30410	047036	255 17 0 00 047037 		JFCL	17,.+1	;RESET ALL FLAGS
 30411	047037	254 02 0 01 047040 		JRST	2,.+1(1)		;SET 0 FLAG
 30412	047040	255 02 0 00 047042 		JFCL	2,.+2		;PASS IF CRY1 IS RESET
 30413	047041	334 00 0 00 000000 		SKIPA			;SKIP HALT INSTRUCTION IF TEST PASSED
 30414						STOP^
 30415	047042	254 04 0 00 047043 		HALT	.+1		;TEST FAILED IF PROGRAM HALTS HERE
 30416	047043	324 00 0 00 047044 		JUMPA	.+1		;IF TEST FAILS, CHANGE THIS INSTRUCTION (JUMPA .+1) TO
 30417									;JUMPA X (X IS THE ADDRESS OF THE FIRST INSTRUCTION
 30418									;IN THE SUBTEST) TO LOOP ON ERROR^
 30419
 30420					;**********
DFKAA PDP-10 KL10 BASIC INSTRUCTION DIAGNOSTIC (1) VER 0,2	MACRO %52(537) 09:34 31-JAN-77 PAGE 30
DFKAA4	MAC	25-AUG-75 13:58		TEST OF JRST INSTRUCTION AND ARITHMETIC FLAGS                                      SEQ 0665

 30421
 30422					;THIS TEST VERIFIES THAT JRST 2,.+(1) WILL SET THE ARITHMETIC FLAG
 30423					;SPECIFIED IN AC1.  IN THIS CASE, AC1 CONTAIN 0.  HENCE, JRST 2,.+1(1)
 30424					;SHOULD RESET THE ARITHMETIC FLAGS.  FIRST, THE CRY0/1, FLAGS ARE SET BY ADD
 30425					;THEN THE FLAGS SHOULD BE CLEARED BY JRST 2,.+1.  IF AROV WAS CLEARED, THE
 30426					;TEST PASSES.  OTHERWISE, JRST 2,.+1 IS FAULTY
 30427
 30428	047044	205 00 0 00 400000 	C6400:	MOVSI	400000		;PRELOAD AC0 WITH -1,,-1
 30429	047045	270 00 0 00 070254 		ADD	[-1]		;SET CRY0 AND AROV FLAGS
 30430						SFLAG	0		^;RESET ALL ARITHMETIC FLAGS
 30431
 30432	047046	205 01 0 00 000000 		MOVSI	1,0
 30433	047047	255 17 0 00 047050 		JFCL	17,.+1	;RESET ALL FLAGS
 30434	047050	254 02 0 01 047051 		JRST	2,.+1(1)		;SET 0 FLAG
 30435	047051	255 10 0 00 047053 		JFCL	10,.+2		;PASS IF AROV IS RESET
 30436	047052	334 00 0 00 000000 		SKIPA			;SKIP HALT INSTRUCTION IF TEST PASSED
 30437						STOP^
 30438	047053	254 04 0 00 047054 		HALT	.+1		;TEST FAILED IF PROGRAM HALTS HERE
 30439	047054	324 00 0 00 047055 		JUMPA	.+1		;IF TEST FAILS, CHANGE THIS INSTRUCTION (JUMPA .+1) TO
 30440									;JUMPA X (X IS THE ADDRESS OF THE FIRST INSTRUCTION
 30441									;IN THE SUBTEST) TO LOOP ON ERROR^
 30442
 30443					;**********
 30444
 30445					;THIS TEST VERIFIES THAT JRST 2,.+1(1) WILL SET THE ARITHMETIC FLAG
 30446					;SPECIFIED IN AC1.  IN THIS CASE, AC1 SPECIFIES THE AROV FLAG.
 30447					;FIRST, ALL FLAGS ARE RESET; THEN AC1 SET TO SPECIFY AROV.
 30448					;NEXT, JRST 2,.+1(1) IS EXECUTED TO SET AROV.  AROV IS THEN CHECKED.  IF
 30449					;AROV IS SET, THIS TEST PASSES.  OTHERWISE, JRST 2,.+1 IS FAULTY
 30450
 30451	047055				C6500:	SFLAG	AROV		^;SET AROV FLAG
 30452
 30453	047055	205 01 0 00 400000 		MOVSI	1,AROV
 30454	047056	255 17 0 00 047057 		JFCL	17,.+1	;RESET ALL FLAGS
 30455	047057	254 02 0 01 047060 		JRST	2,.+1(1)		;SET AROV FLAG
 30456	047060	255 10 0 00 047062 		JFCL	10,.+2		;PASS IF AROV WAS SET
 30457						STOP^
 30458	047061	254 04 0 00 047062 		HALT	.+1		;TEST FAILED IF PROGRAM HALTS HERE
 30459	047062	324 00 0 00 047063 		JUMPA	.+1		;IF TEST FAILS, CHANGE THIS INSTRUCTION (JUMPA .+1) TO
 30460									;JUMPA X (X IS THE ADDRESS OF THE FIRST INSTRUCTION
 30461									;IN THE SUBTEST) TO LOOP ON ERROR^
 30462
 30463					;**********
DFKAA PDP-10 KL10 BASIC INSTRUCTION DIAGNOSTIC (1) VER 0,2	MACRO %52(537) 09:34 31-JAN-77 PAGE 31
DFKAA4	MAC	25-AUG-75 13:58		TEST OF JRST INSTRUCTION AND ARITHMETIC FLAGS                                      SEQ 0666

 30464					;THIS TEST VERIFIES THAT JRST 2,.+1(1) WILL SET THE ARITHMETIC FLAG
 30465					;SPECIFIED IN AC1.  IN THIS CASE, AC1 SPECIFIES THE CRY1 FLAG.
 30466					;FIRST, ALL FLAGS ARE RESET; THEN AC1 SET TO SPECIFY CRY1.
 30467					;NEXT, JRST 2,.+1(1) IS EXECUTED TO SET CRY1.  CRY1 IS THEN CHECKED.  IF
 30468					;CRY1 IS SET, THIS TEST PASSES.  OTHERWISE, JRST 2,.+1 IS FAULTY
 30469
 30470	047063				C6600:	SFLAG	CRY1		^;SET CRY1 FLAG
 30471
 30472	047063	205 01 0 00 100000 		MOVSI	1,CRY1
 30473	047064	255 17 0 00 047065 		JFCL	17,.+1	;RESET ALL FLAGS
 30474	047065	254 02 0 01 047066 		JRST	2,.+1(1)		;SET CRY1 FLAG
 30475	047066	255 02 0 00 047070 		JFCL	2,.+2		;PASS IF CRY1 WAS SET
 30476						STOP^
 30477	047067	254 04 0 00 047070 		HALT	.+1		;TEST FAILED IF PROGRAM HALTS HERE
 30478	047070	324 00 0 00 047071 		JUMPA	.+1		;IF TEST FAILS, CHANGE THIS INSTRUCTION (JUMPA .+1) TO
 30479									;JUMPA X (X IS THE ADDRESS OF THE FIRST INSTRUCTION
 30480									;IN THE SUBTEST) TO LOOP ON ERROR^
 30481
 30482					;**********
 30483
 30484					;THIS TEST VERIFIES THAT JRST 2,.+1(1) WILL SET THE ARITHMETIC FLAG
 30485					;SPECIFIED IN AC1.  IN THIS CASE, AC1 SPECIFIES THE FOV FLAG.
 30486					;FIRST, ALL FLAGS ARE RESET; THEN AC1 SET TO SPECIFY FOV.
 30487					;NEXT, JRST 2,.+1(1) IS EXECUTED TO SET FOV.  FOV IS THEN CHECKED.  IF
 30488					;FOV IS SET, THIS TEST PASSES.  OTHERWISE, JRST 2,.+1 IS FAULTY
 30489
 30490	047071				C6700:	SFLAG	FOV		^;SET FOV FLAG
 30491
 30492	047071	205 01 0 00 040000 		MOVSI	1,FOV
 30493	047072	255 17 0 00 047073 		JFCL	17,.+1	;RESET ALL FLAGS
 30494	047073	254 02 0 01 047074 		JRST	2,.+1(1)		;SET FOV FLAG
 30495	047074	255 01 0 00 047076 		JFCL	1,.+2		;PASS IF FOV WAS SET
 30496						STOP^
 30497	047075	254 04 0 00 047076 		HALT	.+1		;TEST FAILED IF PROGRAM HALTS HERE
 30498	047076	324 00 0 00 047077 		JUMPA	.+1		;IF TEST FAILS, CHANGE THIS INSTRUCTION (JUMPA .+1) TO
 30499									;JUMPA X (X IS THE ADDRESS OF THE FIRST INSTRUCTION
 30500									;IN THE SUBTEST) TO LOOP ON ERROR^
 30501
 30502					;**********
DFKAA PDP-10 KL10 BASIC INSTRUCTION DIAGNOSTIC (1) VER 0,2	MACRO %52(537) 09:34 31-JAN-77 PAGE 32
DFKAA4	MAC	25-AUG-75 13:58		TEST OF JRST INSTRUCTION AND ARITHMETIC FLAGS                                      SEQ 0667

 30503					;THIS TEST VERIFIES THAT JFCL 0, SHOULD NEVER JUMP.
 30504					;FIRST, FOV IS SET VIA JRST2, ;THEN JFCL 0,
 30505					;IS EXECUTED.  IF JFCL 0, DOES NOT SKIP, THIS TEST PASSES
 30506
 30507	047077				C7000:	SFLAG	FOV		^;SET FOV FLAG
 30508
 30509	047077	205 01 0 00 040000 		MOVSI	1,FOV
 30510	047100	255 17 0 00 047101 		JFCL	17,.+1	;RESET ALL FLAGS
 30511	047101	254 02 0 01 047102 		JRST	2,.+1(1)		;SET FOV FLAG
 30512	047102	255 00 0 00 047104 		JFCL	,.+2		;*JFCL SHOULD NOT JUMP
 30513	047103	334 00 0 00 000000 		SKIPA			;PASS IF JFCL DID NOT JUMP
 30514						STOP^
 30515	047104	254 04 0 00 047105 		HALT	.+1		;TEST FAILED IF PROGRAM HALTS HERE
 30516	047105	324 00 0 00 047106 		JUMPA	.+1		;IF TEST FAILS, CHANGE THIS INSTRUCTION (JUMPA .+1) TO
 30517									;JUMPA X (X IS THE ADDRESS OF THE FIRST INSTRUCTION
 30518									;IN THE SUBTEST) TO LOOP ON ERROR^
 30519
 30520					;**********
 30521
 30522					;THIS TEST VERIFIES THAT JRST 2,.+1(1) WILL SET THE ARITHMETIC FLAG
 30523					;SPECIFIED IN AC1.  IN THIS CASE, AC1 CONTAINS 0.  HENCE, JRST 2,.+1(1)
 30524					;SHOULD RESET THE ARITHMETIC FLAGS.  FIRST, THE CRY0, FLAG IS SET BY JRST 2,.+1(1)
 30525					;WITH C(AC1)=CRY0.  THEN, THE FLAGS SHOULD BE CLEARED BY JRST 2,.+1 WITH C(AC1)=0.
 30526					;IF CRY0 WAS CLEARED, THE TEST PASSES.  OTHERWISE, JRST 2,.+1 IS FAULTY
 30527
 30528	047106				C7100:	SFLAG	CRY0		^;SET CRY0 FLAGS
 30529
 30530	047106	205 01 0 00 200000 		MOVSI	1,CRY0
 30531	047107	255 17 0 00 047110 		JFCL	17,.+1	;RESET ALL FLAGS
 30532	047110	254 02 0 01 047111 		JRST	2,.+1(1)		;SET CRY0 FLAG
 30533	047111	400 01 0 00 000000 		SETZ	1,		;SETUP MASK TO CLEAR ARITHMETIC FLAGS
 30534	047112	254 02 0 01 047113 		JRST	2,.+1(1)	;*RESET ARITHMETIC FLAGS
 30535	047113	255 04 0 00 047115 		JFCL	4,.+2		;PASS IF CRY0 FLAG WAS RESET
 30536	047114	334 00 0 00 000000 		SKIPA			;SKIP HALT INSTRUCTION IF TEST PSSED
 30537						STOP^
 30538	047115	254 04 0 00 047116 		HALT	.+1		;TEST FAILED IF PROGRAM HALTS HERE
 30539	047116	324 00 0 00 047117 		JUMPA	.+1		;IF TEST FAILS, CHANGE THIS INSTRUCTION (JUMPA .+1) TO
 30540									;JUMPA X (X IS THE ADDRESS OF THE FIRST INSTRUCTION
 30541									;IN THE SUBTEST) TO LOOP ON ERROR^
 30542
 30543					;**********
DFKAA PDP-10 KL10 BASIC INSTRUCTION DIAGNOSTIC (1) VER 0,2	MACRO %52(537) 09:34 31-JAN-77 PAGE 33
DFKAA4	MAC	25-AUG-75 13:58		TEST OF JRST INSTRUCTION AND ARITHMETIC FLAGS                                      SEQ 0668

 30544					;THIS TEST VERIFIES THAT JRST 2,.+1(1) WILL SET THE ARITHMETIC FLAG
 30545					;SPECIFIED IN AC1.  IN THIS CASE, AC1 CONTAINS 0.  HENCE, JRST 2,.+1(1)
 30546					;SHOULD RESET THE ARITHMETIC FLAGS.  FIRST, THE FOV, FLAG IS SET BY JRST 2,.+1(1)
 30547					;WITH C(AC1)=FOV.  THEN, THE FLAGS SHOULD BE CLEARED BY JRST 2,.+1 WITH C(AC1)=0.
 30548					;IF FOV WAS CLEARED, THE TEST PASSES.  OTHERWISE, JRST 2,.+1 IS FAULTY
 30549
 30550	047117				C7200:	SFLAG	FOV		^;SET FOV FLAG
 30551
 30552	047117	205 01 0 00 040000 		MOVSI	1,FOV
 30553	047120	255 17 0 00 047121 		JFCL	17,.+1	;RESET ALL FLAGS
 30554	047121	254 02 0 01 047122 		JRST	2,.+1(1)		;SET FOV FLAG
 30555	047122	400 01 0 00 000000 		SETZ	1,		;SETUP MASK TO CLEAR ARITHMETIC FLAGS,
 30556	047123	254 02 0 01 047124 		JRST	2,.+1(1)	;*RESET ARITHMETIC FLAGS
 30557	047124	255 01 0 00 047126 		JFCL	1,.+2		;PASS IF FOV FLAG WAS RESET
 30558	047125	334 00 0 00 000000 		SKIPA			;SKIP HALT INSTRUCTION IF TEST PSSED
 30559						STOP^
 30560	047126	254 04 0 00 047127 		HALT	.+1		;TEST FAILED IF PROGRAM HALTS HERE
 30561	047127	324 00 0 00 047130 		JUMPA	.+1		;IF TEST FAILS, CHANGE THIS INSTRUCTION (JUMPA .+1) TO
 30562									;JUMPA X (X IS THE ADDRESS OF THE FIRST INSTRUCTION
 30563									;IN THE SUBTEST) TO LOOP ON ERROR^
 30564
 30565					;**********
 30566
 30567					;THIS TEST VERIFIES THAT JRST 2,.+1(1) WILL SET THE ARITHMETIC FLAG
 30568					;SPECIFIED IN AC1.  IN THIS CASE, AC1 CONTAINS 0.  HENCE, JRST 2,.+1(1)
 30569					;SHOULD RESET THE ARITHMETIC FLAGS.  FIRST, THE ARITHMETIC FLAGS ARE RESET BY
 30570					;JFCL 17,.+1.  THEN, THE FLAGS SHOULD BE CLEARED BY JRST 2,.+1.
 30571					;IF ALL THE ARITHMETIC FLAGS WERE CLEARED,
 30572					;THE TEST PASSES.  OTHERWISE, JRST 2,.+1 IS FAULTY
 30573
 30574	047130	255 17 0 00 047131 	C7300:	JFCL	17,.+1		;CLEAR FLAGS
 30575	047131	400 01 0 00 000000 		SETZ	1,		;SETUP MASK TO CLEAR ARITMETIC FLAGS
 30576	047132	254 02 0 01 047133 		JRST	2,.+1(1)	;*RESET ARITHMETIC FLAGS
 30577	047133	255 17 0 00 047135 		JFCL	17,.+2		;PASS IF ALL FLAGS ARE RESET
 30578	047134	334 00 0 00 000000 		SKIPA			;SKIP HALT INSTRUCTION IF TEST PASSED
 30579						STOP^
 30580	047135	254 04 0 00 047136 		HALT	.+1		;TEST FAILED IF PROGRAM HALTS HERE
 30581	047136	324 00 0 00 047137 		JUMPA	.+1		;IF TEST FAILS, CHANGE THIS INSTRUCTION (JUMPA .+1) TO
 30582									;JUMPA X (X IS THE ADDRESS OF THE FIRST INSTRUCTION
 30583									;IN THE SUBTEST) TO LOOP ON ERROR^
 30584
 30585					;**********
DFKAA PDP-10 KL10 BASIC INSTRUCTION DIAGNOSTIC (1) VER 0,2	MACRO %52(537) 09:34 31-JAN-77 PAGE 34
DFKAA4	MAC	25-AUG-75 13:58		TEST OF JSP INSTRUCTION                                                            SEQ 0669

 30586					SUBTTL	TEST OF JSP INSTRUCTION
 30587
 30588					;**********
 30589
 30590					;THIS TEST VERIFIES THAT JSP ALWAYS STORES THE FLAGS AND PC IN THE AC.
 30591					;IN THIS CASE, THE FLAGS ARE RESET; THEN, JSP IS EXECUTED.  THE AC IS THEN
 30592					;CHECKED FOR ITS CONTENTS NON-ZERO.  IF C(AC)=0, IT INDICATES
 30593					;THAT NEITHER THE FLAGS NOR THE PC WAS SAVED.  HENCE, THIS TEST FAILS.
 30594
 30595	047137	403 00 0 00 000001 	C7400:	SETZB	1		;CLEAR AC AND SETUP MASK TO RESET FLAGS
 30596	047140	254 02 0 01 047141 		JRST	2,.+1(1)	;RESET FLAGS
 30597	047141	265 00 0 00 047142 		JSP	.+1		;*JSP SHOULD STORE FLAGS AND PC IN THE AC
 30598	047142	336 00 0 00 000000 		SKIPN			;PASS IF C(AC) IS NON-ZERO
 30599						STOP			^;IT DID NOT STORE ANY FLAGS OR PC
 30600
 30601	047143	254 04 0 00 047144 		HALT	.+1		;TEST FAILED IF PROGRAM HALTS HERE
 30602	047144	324 00 0 00 047145 		JUMPA	.+1		;IF TEST FAILS, CHANGE THIS INSTRUCTION (JUMPA .+1) TO
 30603									;JUMPA X (X IS THE ADDRESS OF THE FIRST INSTRUCTION
 30604									;IN THE SUBTEST) TO LOOP ON ERROR
 30605
 30606					;**********
 30607
 30608					;THIS TEST VERIFIES THAT JSP ALWAYS STORES THE PC IN THE RIGHT HALF OF THE AC.
 30609					;IN THIS CASE, THE AC IS CLEARED, THEN, JSP IS EXECUTED.  THE RIGHT HALF OF
 30610					;THE AC IS THEN CHECKED FOR ITS CONTENTS NON-ZERO.  IF C(AC RIGHT HALF)
 30611					;IS NON-ZERO, IT INDICATED THAT THE PC WAS SAVED; AND THIS TEST PASSES.
 30612
 30613	047145	400 00 0 00 000000 	C7500:	SETZ			;CLEAN AC
 30614	047146	265 00 0 00 047147 		JSP	.+1		;*JSP SHOULD STORE THE PC IN THE AC
 30615	047147	606 00 0 00 777777 		TRNN	-1		;PASS IF C(AC) IN NON-ZERO
 30616						STOP^
 30617	047150	254 04 0 00 047151 		HALT	.+1		;TEST FAILED IF PROGRAM HALTS HERE
 30618	047151	324 00 0 00 047152 		JUMPA	.+1		;IF TEST FAILS, CHANGE THIS INSTRUCTION (JUMPA .+1) TO
 30619									;JUMPA X (X IS THE ADDRESS OF THE FIRST INSTRUCTION
 30620									;IN THE SUBTEST) TO LOOP ON ERROR^
 30621
 30622					;**********
DFKAA PDP-10 KL10 BASIC INSTRUCTION DIAGNOSTIC (1) VER 0,2	MACRO %52(537) 09:34 31-JAN-77 PAGE 35
DFKAA4	MAC	25-AUG-75 13:58		TEST OF JSP INSTRUCTION                                                            SEQ 0670

 30623					;THIS TEST VERIFIES THAT JSP ALWAYS STORES THE FLAGS IN THE LEFT HALF OF THE AC.
 30624					;FIST, THE AC IS CLEARED; THEN, SOME FLAGS ARE SET AND JSP IS EXECUTED.
 30625					;THE LEFT HALF OF THE AC IS CHECKED FOR ITS CONTENTS NON-ZERO TO DETERMINE
 30626					;WHETHER THE FLAGS WERE SAVED.  IF C(AC-LEFT) IS NON-ZERO, THIS TEST PASSES
 30627
 30628	047152	402 00 0 00 000000 	C7600:	SETZM	0		;CLEAR AC
 30629	047153	205 01 0 00 740000 		MOVSI	1,740000	;SET UP MASK TO SET FLAGS
 30630	047154	254 02 0 01 047155 		JRST	2,.+1(1)	;SET SOME ARITHMETIC FLAGS
 30631	047155	265 00 0 00 047156 		JSP	.+1		;*JSP SHOULD STORE FLAGS IN THE AC
 30632	047156	607 00 0 00 777777 		TLNN	-1		;PASS IF C(AC) IS NON-ZERO
 30633						STOP^
 30634	047157	254 04 0 00 047160 		HALT	.+1		;TEST FAILED IF PROGRAM HALTS HERE
 30635	047160	324 00 0 00 047161 		JUMPA	.+1		;IF TEST FAILS, CHANGE THIS INSTRUCTION (JUMPA .+1) TO
 30636									;JUMPA X (X IS THE ADDRESS OF THE FIRST INSTRUCTION
 30637									;IN THE SUBTEST) TO LOOP ON ERROR^
 30638
 30639					;**********
 30640
 30641					;THIS TEST VERIFIES THAT JSP ALWAYS STORES THE FLAGS IN THE LEFT HALF OF THE AC.
 30642					;FIRST, THE AC IS CLEARED; THEN, THE AROV FLAG IS SET AND JSP IS EXECUTED.
 30643					;THEN, THE AROV FLAG BIT OF
 30644					;THE LEFT HALF OF THE AC IS CHECKED FOR ITS CONTENTS NON-ZERO TO DETERMINE
 30645					;WHETHER THE AROV FLAG WAS SAVED.  IF THE AROV FLAG BIT OF THE AC IS SET, THIS TEST PASSES
 30646
 30647	047161	402 00 0 00 000000 	C7700:	SETZM	0		;CLEAR THE AC
 30648						SFLAG	AROV		^;SET AROV FLAG
 30649
 30650	047162	205 01 0 00 400000 		MOVSI	1,AROV
 30651	047163	255 17 0 00 047164 		JFCL	17,.+1	;RESET ALL FLAGS
 30652	047164	254 02 0 01 047165 		JRST	2,.+1(1)		;SET AROV FLAG
 30653	047165	265 00 0 00 047166 		JSP	.+1		;*JSP SHOULD SAVE THE FLAGS IN THE AC-LEFT
 30654	047166	607 00 0 00 400000 		TLNN	AROV		;PASS IF AROV WAS SAVED
 30655						STOP^
 30656	047167	254 04 0 00 047170 		HALT	.+1		;TEST FAILED IF PROGRAM HALTS HERE
 30657	047170	324 00 0 00 047171 		JUMPA	.+1		;IF TEST FAILS, CHANGE THIS INSTRUCTION (JUMPA .+1) TO
 30658									;JUMPA X (X IS THE ADDRESS OF THE FIRST INSTRUCTION
 30659									;IN THE SUBTEST) TO LOOP ON ERROR^
 30660
 30661					;**********
DFKAA PDP-10 KL10 BASIC INSTRUCTION DIAGNOSTIC (1) VER 0,2	MACRO %52(537) 09:34 31-JAN-77 PAGE 36
DFKAA4	MAC	25-AUG-75 13:58		TEST OF JSP INSTRUCTION                                                            SEQ 0671

 30662					;THIS TEST VERIFIES THAT JSP ALWAYS STORES THE FLAGS IN THE LEFT HALF OF THE AC.
 30663					;FIRST, THE AC IS CLEARED; THEN, THE CRY0 FLAG IS SET AND JSP IS EXECUTED.
 30664					;THEN, THE CRY0 FLAG BIT OF
 30665					;THE LEFT HALF OF THE AC IS CHECKED FOR ITS CONTENTS NON-ZERO TO DETERMINE
 30666					;WHETHER THE CRY0 FLAG WAS SAVED.  IF THE CRY0 FLAG BIT OF THE AC IS SET, THIS TEST PASSES
 30667
 30668	047171	402 00 0 00 000000 	C10000:	SETZM	0		;CLEAR THE AC
 30669						SFLAG	CRY0		^;SET CRY0 FLAG
 30670
 30671	047172	205 01 0 00 200000 		MOVSI	1,CRY0
 30672	047173	255 17 0 00 047174 		JFCL	17,.+1	;RESET ALL FLAGS
 30673	047174	254 02 0 01 047175 		JRST	2,.+1(1)		;SET CRY0 FLAG
 30674	047175	265 00 0 00 047176 		JSP	.+1		;*JSP SHOULD SAVE THE FLAGS IN THE AC-LEFT
 30675	047176	607 00 0 00 200000 		TLNN	CRY0		;PASS IF CRY0 WAS SAVED
 30676						STOP^
 30677	047177	254 04 0 00 047200 		HALT	.+1		;TEST FAILED IF PROGRAM HALTS HERE
 30678	047200	324 00 0 00 047201 		JUMPA	.+1		;IF TEST FAILS, CHANGE THIS INSTRUCTION (JUMPA .+1) TO
 30679									;JUMPA X (X IS THE ADDRESS OF THE FIRST INSTRUCTION
 30680									;IN THE SUBTEST) TO LOOP ON ERROR^
 30681
 30682					;**********
 30683
 30684					;THIS TEST VERIFIES THAT JSP ALWAYS STORES THE FLAGS IN THE LEFT HALF OF THE AC.
 30685					;FIRST, THE AC IS CLEARED; THEN, THE CRY1 FLAG IS SET AND JSP IS EXECUTED.
 30686					;THEN, THE CRY1 FLAG BIT OF
 30687					;THE LEFT HALF OF THE AC IS CHECKED FOR ITS CONTENTS NON-ZERO TO DETERMINE
 30688					;WHETHER THE FLAG WAS SAVED.  IF THE CRY1 FLAG BIT OF THE AC IS SET, THIS TEST PASSES
 30689
 30690	047201	400 00 0 00 000000 	C10100:	SETZ			;CLEAR AC
 30691						SFLAG	CRY1		^;SET CRY1 FLAG
 30692
 30693	047202	205 01 0 00 100000 		MOVSI	1,CRY1
 30694	047203	255 17 0 00 047204 		JFCL	17,.+1	;RESET ALL FLAGS
 30695	047204	254 02 0 01 047205 		JRST	2,.+1(1)		;SET CRY1 FLAG
 30696	047205	265 00 0 00 047206 		JSP	.+1		;*JSP SHOULD SAVE THE FLAGS IN THE AC-LEFT
 30697	047206	607 00 0 00 100000 		TLNN	CRY1		;PASS IF AROV WAS SAVED
 30698						STOP^
 30699	047207	254 04 0 00 047210 		HALT	.+1		;TEST FAILED IF PROGRAM HALTS HERE
 30700	047210	324 00 0 00 047211 		JUMPA	.+1		;IF TEST FAILS, CHANGE THIS INSTRUCTION (JUMPA .+1) TO
 30701									;JUMPA X (X IS THE ADDRESS OF THE FIRST INSTRUCTION
 30702									;IN THE SUBTEST) TO LOOP ON ERROR^
 30703
 30704					;**********
DFKAA PDP-10 KL10 BASIC INSTRUCTION DIAGNOSTIC (1) VER 0,2	MACRO %52(537) 09:34 31-JAN-77 PAGE 37
DFKAA4	MAC	25-AUG-75 13:58		TEST OF JSP INSTRUCTION                                                            SEQ 0672

 30705					;THIS TEST VERIFIES THAT JSP ALWAYS STORES THE FLAGS IN THE LEFT HALF OF THE AC.
 30706					;FRIST, THE AC IS CLEARED; THEN, THE FOV FLAG IS SET AND JSP IS EXECUTED.
 30707					;THEN, THE FOV FLAG BIT OF THE LEFT HALF OF THE AC IS CHECKED FOR
 30708					;ITS CONTENTS NON-ZERO TO DETERMINE WHETHER THE FOV FLAG WAS SAVED.
 30709					;IF THE FOV FLAG BIT OF THE AC IS SET, THIS TEST PASSES
 30710
 30711	047211	400 00 0 00 000000 	C10200:	SETZ			;CLEAR THE AC
 30712						SFLAG	FOV		^;SET FOV FLAG
 30713
 30714	047212	205 01 0 00 040000 		MOVSI	1,FOV
 30715	047213	255 17 0 00 047214 		JFCL	17,.+1	;RESET ALL FLAGS
 30716	047214	254 02 0 01 047215 		JRST	2,.+1(1)		;SET FOV FLAG
 30717	047215	265 00 0 00 047216 		JSP	.+1		;*JSP SHOULD SAVE THE FLAGS IN THE AC-LEFT
 30718	047216	607 00 0 00 040000 		TLNN	FOV		;PASS IF FOV WAS SAVED
 30719						STOP^
 30720	047217	254 04 0 00 047220 		HALT	.+1		;TEST FAILED IF PROGRAM HALTS HERE
 30721	047220	324 00 0 00 047221 		JUMPA	.+1		;IF TEST FAILS, CHANGE THIS INSTRUCTION (JUMPA .+1) TO
 30722									;JUMPA X (X IS THE ADDRESS OF THE FIRST INSTRUCTION
 30723									;IN THE SUBTEST) TO LOOP ON ERROR^
 30724
 30725					;**********
 30726
 30727					;THIS TEST VERIFIES THAT JSP WILL STORE ONLY FLAGS THAT EXIST.
 30728					;I.E. RESET FLAGS WILL NOT BE SET IN THE AC.  ONLY FLAGS THAT ARE
 30729					;CLEARABLE BY JRSTF WILL BE CHECKED HERE.  FIRST ALL CLEARABLE
 30730					;FLAGS ARE RESET BY JRSTF;  THEN JSP IS EXECUTED.  THE AC IS THEN CHECKED.
 30731					;IF ANY CLEARABLE FLAGS ARE SET IN THE AC, THIS TEST FAILS.
 30732
 30733	047221				C10300:	SFLAG	0		^;CLEAR ALL CLEARABLE FLAGS
 30734
 30735	047221	205 01 0 00 000000 		MOVSI	1,0
 30736	047222	255 17 0 00 047223 		JFCL	17,.+1	;RESET ALL FLAGS
 30737	047223	254 02 0 01 047224 		JRST	2,.+1(1)		;SET 0 FLAG
 30738	047224	265 00 0 00 047225 		JSP	.+1		;*JSP SHOULD NOT STORE CLEARABLE FALGS
 30739	047225	603 00 0 00 761777 		TLNE	761777		;FAIL IF ANY CLEARABLE FLAG IS SET
 30740						STOP^
 30741	047226	254 04 0 00 047227 		HALT	.+1		;TEST FAILED IF PROGRAM HALTS HERE
 30742	047227	324 00 0 00 047230 		JUMPA	.+1		;IF TEST FAILS, CHANGE THIS INSTRUCTION (JUMPA .+1) TO
 30743									;JUMPA X (X IS THE ADDRESS OF THE FIRST INSTRUCTION
 30744									;IN THE SUBTEST) TO LOOP ON ERROR^
 30745
 30746					;**********
DFKAA PDP-10 KL10 BASIC INSTRUCTION DIAGNOSTIC (1) VER 0,2	MACRO %52(537) 09:34 31-JAN-77 PAGE 38
DFKAA4	MAC	25-AUG-75 13:58		TEST OF JSP INSTRUCTION                                                            SEQ 0673

 30747					;THIS TEST VERIFIES THAT JSP ALWAYS JUMPS.
 30748					;IN THIS TEST, JSP .+2 IS EXECUTED.  IF JSP JUMPS, THE TEST PASSES;
 30749					;OTHERWISE, THIS TEST HALTS
 30750
 30751	047230	265 00 0 00 047232 	C10400:	JSP	.+2		;*JSP SHOULD ALWAYS JUMP
 30752						STOP^
 30753	047231	254 04 0 00 047232 		HALT	.+1		;TEST FAILED IF PROGRAM HALTS HERE
 30754	047232	324 00 0 00 047233 		JUMPA	.+1		;IF TEST FAILS, CHANGE THIS INSTRUCTION (JUMPA .+1) TO
 30755									;JUMPA X (X IS THE ADDRESS OF THE FIRST INSTRUCTION
 30756									;IN THE SUBTEST) TO LOOP ON ERROR^
 30757
 30758					;**********
DFKAA PDP-10 KL10 BASIC INSTRUCTION DIAGNOSTIC (1) VER 0,2	MACRO %52(537) 09:34 31-JAN-77 PAGE 39
DFKAA4	MAC	25-AUG-75 13:58		TEST JRST INSTRUCTION                                                              SEQ 0674

 30759					SUBTTL	TEST JRST INSTRUCTION
 30760
 30761					;**********
 30762
 30763					;THIS TEST VERIFIES THAT JRST ALWAYS JUMPS.
 30764					;IN THIS TEST, JRST .+2 IS EXECUTED.  IF JRST JUMPS, THE TEST PASSES;
 30765					;OTHERWISE, THIS TEST HALTS
 30766
 30767	047233	254 00 0 00 047235 	C10500:	JRST	.+2		;*JRST 0, SHOULD ALWAYS JUMP
 30768						STOP^
 30769	047234	254 04 0 00 047235 		HALT	.+1		;TEST FAILED IF PROGRAM HALTS HERE
 30770	047235	324 00 0 00 047236 		JUMPA	.+1		;IF TEST FAILS, CHANGE THIS INSTRUCTION (JUMPA .+1) TO
 30771									;JUMPA X (X IS THE ADDRESS OF THE FIRST INSTRUCTION
 30772									;IN THE SUBTEST) TO LOOP ON ERROR^
 30773
 30774					;**********
DFKAA PDP-10 KL10 BASIC INSTRUCTION DIAGNOSTIC (1) VER 0,2	MACRO %52(537) 09:34 31-JAN-77 PAGE 40
DFKAA4	MAC	25-AUG-75 13:58		TEST OF AOBJX INSTRUCTIONS                                                         SEQ 0675

 30775					SUBTTL	TEST OF AOBJX INSTRUCTIONS
 30776
 30777					;**********
 30778
 30779					;THIS TEST VERIFIES THAT AOBJN ALWAYS ADDS 1 TO BOTH HALVES OF THE AC.
 30780					;FIRST, THE AC IS CLEARED; THEN, AOBJN IS EXECUTED AND THE AC IS CHECKED
 30781					;FOR 1,,1.  IF C(AC)=1,,1, THIS TEST PASSES.
 30782
 30783	047236	400 00 0 00 000000 	C11200:	SETZ			;CLEAR THE AC
 30784	047237	253 00 0 00 047240 		AOBJN	.+1		;*AOBJN SHOULD ADD 1 TO BOTH HALVES OF THE AC
 30785	047240	312 00 0 00 070251 		CAME	[XWD 1,1]	;PASS IF C(AC)=1,,1
 30786						STOP^
 30787	047241	254 04 0 00 047242 		HALT	.+1		;TEST FAILED IF PROGRAM HALTS HERE
 30788	047242	324 00 0 00 047243 		JUMPA	.+1		;IF TEST FAILS, CHANGE THIS INSTRUCTION (JUMPA .+1) TO
 30789									;JUMPA X (X IS THE ADDRESS OF THE FIRST INSTRUCTION
 30790									;IN THE SUBTEST) TO LOOP ON ERROR^
 30791
 30792					;**********
 30793
 30794					;THIS TEST VERIFIES THAT AOBJP ALWAYS ADDS 1 TO BOTH HALVES OF THE AC.
 30795					;FIRST, THE AC IS CLEARED; THEN AOBJP IS EXECUTED AND THE AC IS CHECKED
 30796					;FOR 1,,1.  IF C(AC)=1,,1, THIS TEST PASSES.
 30797
 30798	047243	200 00 0 00 070502 	C11300:	MOVE	[XWD 377777,377777]	;PRELOAD AC WITH 377777,,377777
 30799	047244	252 00 0 00 047245 		AOBJP	.+1			;*AOBJP SHOULD ADD, TO BOTH HALVES OF THE AC
 30800	047245	312 00 0 00 070460 		CAME	[XWD 400000,400000]	;PASS IF C(AC)=400000,400000
 30801						STOP^
 30802	047246	254 04 0 00 047247 		HALT	.+1		;TEST FAILED IF PROGRAM HALTS HERE
 30803	047247	324 00 0 00 047250 		JUMPA	.+1		;IF TEST FAILS, CHANGE THIS INSTRUCTION (JUMPA .+1) TO
 30804									;JUMPA X (X IS THE ADDRESS OF THE FIRST INSTRUCTION
 30805									;IN THE SUBTEST) TO LOOP ON ERROR^
 30806
 30807					;**********
DFKAA PDP-10 KL10 BASIC INSTRUCTION DIAGNOSTIC (1) VER 0,2	MACRO %52(537) 09:34 31-JAN-77 PAGE 41
DFKAA4	MAC	25-AUG-75 13:58		TEST OF AOBJX INSTRUCTIONS                                                         SEQ 0676

 30808					;THIS TEST VERIFIES THAT AOBJN WILL NOT JUMP WHEN C(AC) IS POSITIVE
 30809					;FIRST, THE AC IS CLEARED; AND AOBJN IS EXECUTED.  AOBJN SHOULD NOT JUMP
 30810					;BECAUSE C(AC) IS POSITIVE.  IF AOBJN JUMPS, THIS TEST FAILS
 30811
 30812	047250	400 00 0 00 000000 	C11400:	SETZ			;CLEAR THE AC
 30813	047251	253 00 0 00 047253 		AOBJN	.+2		;*AOBJN SHOULD NOT JUMP WHEN C(AC) IS POSITIVE
 30814	047252	334 00 0 00 000000 		SKIPA			;PASS IF AOBJN DOES NOT JUMP
 30815						STOP^
 30816	047253	254 04 0 00 047254 		HALT	.+1		;TEST FAILED IF PROGRAM HALTS HERE
 30817	047254	324 00 0 00 047255 		JUMPA	.+1		;IF TEST FAILS, CHANGE THIS INSTRUCTION (JUMPA .+1) TO
 30818									;JUMPA X (X IS THE ADDRESS OF THE FIRST INSTRUCTION
 30819									;IN THE SUBTEST) TO LOOP ON ERROR^
 30820
 30821					;**********
 30822
 30823					;THIS TEST VERIFIES THAT AOBJP WILL JUMP WHEN C(AC) IS POSITIVE
 30824					;FIRST, THE AC IS CLEARED; AND AOBJP IS EXECUTED.  AOBJP SHOULD JUMP
 30825					;BECAUSE C(AC) IS POSITIVE.  IF AOBJP DOES NOT JUMP, THIS TEST FAILS
 30826
 30827	047255	400 00 0 00 000000 	C11500:	SETZ			;CLEAR THE AC
 30828	047256	252 00 0 00 047260 		AOBJP 	.+2		;*AOBJP SHOULD JUMP BECAUSE C(AC) IS POSITIVE
 30829						STOP^
 30830	047257	254 04 0 00 047260 		HALT	.+1		;TEST FAILED IF PROGRAM HALTS HERE
 30831	047260	324 00 0 00 047261 		JUMPA	.+1		;IF TEST FAILS, CHANGE THIS INSTRUCTION (JUMPA .+1) TO
 30832									;JUMPA X (X IS THE ADDRESS OF THE FIRST INSTRUCTION
 30833									;IN THE SUBTEST) TO LOOP ON ERROR^
 30834
 30835					;**********
DFKAA PDP-10 KL10 BASIC INSTRUCTION DIAGNOSTIC (1) VER 0,2	MACRO %52(537) 09:34 31-JAN-77 PAGE 42
DFKAA4	MAC	25-AUG-75 13:58		TEST OF AOBJX INSTRUCTIONS                                                         SEQ 0677

 30836					;THIS TEST VERIFIES THAT AOBJN WILL JUMP WHEN C(AC) IS NEGATIVE
 30837					;FIRST, THE AC IS PRELOADED WITH 400000,,0; AND AOBJN IS EXECUTED.  AOBJN SHOULD JUMP
 30838					;BECAUSE C(AC) IS NEGATIVE.  IF AOBJN DOES NOT JUMP, THIS TEST FAILS
 30839
 30840	047261	200 00 0 00 070460 	C11600:	MOVE	[XWD 400000,400000]	;PRELOAD AC WITH 400000,,400000
 30841	047262	253 00 0 00 047264 		AOBJN	.+2		;*AOBJN SHOULD JUMP BECAUSE C(AC) IS NEGATIVE
 30842						STOP^
 30843	047263	254 04 0 00 047264 		HALT	.+1		;TEST FAILED IF PROGRAM HALTS HERE
 30844	047264	324 00 0 00 047265 		JUMPA	.+1		;IF TEST FAILS, CHANGE THIS INSTRUCTION (JUMPA .+1) TO
 30845									;JUMPA X (X IS THE ADDRESS OF THE FIRST INSTRUCTION
 30846									;IN THE SUBTEST) TO LOOP ON ERROR^
 30847
 30848					;**********
 30849
 30850					;THIS TEST VERIFIES THAT AOBJP WILL NOT JUMP WHEN C(AC) IS NEGATIVE.  FIRST,
 30851					;THE AC IS PRELOADED WITH 400000,,0; AND AOBJP IS EXECUTED.  AOBJP SHOULD NOT JUMP
 30852					;BECAUSE C(AC) IS NEGATIVE.  IF AOBJP JUMPS, THIS TEST FAILS
 30853
 30854	047265	200 00 0 00 070460 	C11700:	MOVE	[XWD 400000,400000]	;PRELOAD AC WITH 400000,,400000
 30855	047266	252 00 0 00 047270 		AOBJP	.+2		;*AOBJP SHOULD NOT JUMP BECAUSE C(AC) IS NEGATIVE
 30856	047267	334 00 0 00 000000 		SKIPA			;PASS IF AOBJP DOES NOT JUMP
 30857						STOP^
 30858	047270	254 04 0 00 047271 		HALT	.+1		;TEST FAILED IF PROGRAM HALTS HERE
 30859	047271	324 00 0 00 047272 		JUMPA	.+1		;IF TEST FAILS, CHANGE THIS INSTRUCTION (JUMPA .+1) TO
 30860									;JUMPA X (X IS THE ADDRESS OF THE FIRST INSTRUCTION
 30861									;IN THE SUBTEST) TO LOOP ON ERROR^
 30862
 30863					;**********
DFKAA PDP-10 KL10 BASIC INSTRUCTION DIAGNOSTIC (1) VER 0,2	MACRO %52(537) 09:34 31-JAN-77 PAGE 43
DFKAA4	MAC	25-AUG-75 13:58		TEST OF AOBJX INSTRUCTIONS                                                         SEQ 0678

 30864					;THIS TEST VERIFIES THAT THERE IS NO CARRY FROM BIT 18 TO BIT 17 OF THE AC ON AOBJN.
 30865					;THE AC IS PRELOADED WITH -1,,-1; THEN AOBJN IS EXECUTED. AOBJN SHOULD ADD ONE
 30866					;TO BOTH HALVES OF THE AC WITHOUT GENERATING A CARRY FROM BIT 18 TO BIT 17. IF NO
 30867					;CARRY WAS GENERATED, THIS TEST PASSES
 30868
 30869	047272	474 00 0 00 000000 	C12000:	SETO			;PRELOAD AC WITH -1,, -1
 30870	047273	253 00 0 00 047274 		AOBJN	.+1		;*AOBJN SHOULD NOT GENERATE A CARRY FROM BIT 18 TO 17
 30871	047274	332 00 0 00 000000 		SKIPE			;PASS IF C(AC)=0 (NO CARRY WAS GENERATED)
 30872						STOP^
 30873	047275	254 04 0 00 047276 		HALT	.+1		;TEST FAILED IF PROGRAM HALTS HERE
 30874	047276	324 00 0 00 047277 		JUMPA	.+1		;IF TEST FAILS, CHANGE THIS INSTRUCTION (JUMPA .+1) TO
 30875									;JUMPA X (X IS THE ADDRESS OF THE FIRST INSTRUCTION
 30876									;IN THE SUBTEST) TO LOOP ON ERROR^
 30877
 30878					;**********
DFKAA PDP-10 KL10 BASIC INSTRUCTION DIAGNOSTIC (1) VER 0,2	MACRO %52(537) 09:34 31-JAN-77 PAGE 44
DFKAA4	MAC	25-AUG-75 13:58		TEST SETTING OF ARITHMETIC FLAGS VIA MOVNX AND MOVMX                               SEQ 0679

 30879					SUBTTL	TEST SETTING OF ARITHMETIC FLAGS VIA MOVNX AND MOVMX
 30880
 30881					;THIS TEST VERIFIES THAT MOVNI SETS CRY0 AND CRY1 FLAGS ONLY WHEN THE DATA IS 0.
 30882					;FIRST, THE ARITHMETIC FLAGS ARE RESET; THEN, MOVNI IS EXECUTED WITH DATA OF ZEROS.
 30883					;THE ARITHMETIC FLAGS ARE CHECKED.
 30884					; CRY0/1 ARE SET AND AROV AND FOV RESET, THIS TEST PASSES.
 30885
 30886	047277	255 17 0 00 047300 	C12100:	JFCL	17,.+1		;CLEAR FLAGS
 30887	047300	211 00 0 00 000000 		MOVNI	0		;* MOVNI 0 SHOULD SET CRY0/1
 30888	047301	255 04 0 00 047303 		JCRY0	.+2		;PASS IF CRY0 IS SET
 30889						STOP^
 30890	047302	254 04 0 00 047303 		HALT	.+1		;TEST FAILED IF PROGRAM HALTS HERE
 30891	047303	324 00 0 00 047304 		JUMPA	.+1		;IF TEST FAILS, CHANGE THIS INSTRUCTION (JUMPA .+1) TO
 30892									;JUMPA X (X IS THE ADDRESS OF THE FIRST INSTRUCTION
 30893									;IN THE SUBTEST) TO LOOP ON ERROR^
 30894	047304	255 02 0 00 047306 		JCRY1	.+2		;PASS IF CRY1 IS SET
 30895						STOP^
 30896	047305	254 04 0 00 047306 		HALT	.+1		;TEST FAILED IF PROGRAM HALTS HERE
 30897	047306	324 00 0 00 047307 		JUMPA	.+1		;IF TEST FAILS, CHANGE THIS INSTRUCTION (JUMPA .+1) TO
 30898									;JUMPA X (X IS THE ADDRESS OF THE FIRST INSTRUCTION
 30899									;IN THE SUBTEST) TO LOOP ON ERROR^
 30900	047307	255 10 0 00 047311 		JOV	.+2		;PASS IF AROV RESET
 30901	047310	334 00 0 00 000000 		SKIPA
 30902						STOP^
 30903	047311	254 04 0 00 047312 		HALT	.+1		;TEST FAILED IF PROGRAM HALTS HERE
 30904	047312	324 00 0 00 047313 		JUMPA	.+1		;IF TEST FAILS, CHANGE THIS INSTRUCTION (JUMPA .+1) TO
 30905									;JUMPA X (X IS THE ADDRESS OF THE FIRST INSTRUCTION
 30906									;IN THE SUBTEST) TO LOOP ON ERROR^
 30907	047313	255 01 0 00 047315 		JFOV	.+2		;PASS IF FOV RESET
 30908	047314	334 00 0 00 000000 		SKIPA
 30909						STOP^
 30910	047315	254 04 0 00 047316 		HALT	.+1		;TEST FAILED IF PROGRAM HALTS HERE
 30911	047316	324 00 0 00 047317 		JUMPA	.+1		;IF TEST FAILS, CHANGE THIS INSTRUCTION (JUMPA .+1) TO
 30912									;JUMPA X (X IS THE ADDRESS OF THE FIRST INSTRUCTION
 30913									;IN THE SUBTEST) TO LOOP ON ERROR^
 30914
 30915					;**********
 30916
 30917					;THIS TEST VERIFIES THAT MOVN WILL NOT SET ARITHMETIC FLAGS WHEN THE DATA IS -1,,-1.
 30918					;FIRST, THE FLAGS ARE RESET; THEN, MOVN [-1,,-1] IS EXECUTED.
 30919					;THE ARITHMETIC FLAGS ARE CHECKED.
 30920					;IF ANY ARITHMETIC FLAG IS SET, THIS TEST FAILS.
 30921
 30922	047317	255 17 0 00 047320 	C12200:	JFCL	17,.+1		;CLEAR FLAGS
 30923	047320	210 00 0 00 070254 		MOVN	[-1]		;*MOVN [-1,,-1] SHOULD SET ARITHMETIC FLAGS
 30924	047321	255 17 0 00 047323 		JFCL	17,.+2		;FAIL IF AN ARITHMETIC FLAG IS SET
 30925	047322	334 00 0 00 000000 		SKIPA			;SKIP HALT INSTRUCTION IF MOVN PASSED.
 30926						STOP^
 30927	047323	254 04 0 00 047324 		HALT	.+1		;TEST FAILED IF PROGRAM HALTS HERE
 30928	047324	324 00 0 00 047325 		JUMPA	.+1		;IF TEST FAILS, CHANGE THIS INSTRUCTION (JUMPA .+1) TO
 30929									;JUMPA X (X IS THE ADDRESS OF THE FIRST INSTRUCTION
 30930									;IN THE SUBTEST) TO LOOP ON ERROR^
 30931
 30932					;**********
DFKAA PDP-10 KL10 BASIC INSTRUCTION DIAGNOSTIC (1) VER 0,2	MACRO %52(537) 09:34 31-JAN-77 PAGE 45
DFKAA4	MAC	25-AUG-75 13:58		TEST SETTING OF ARITHMETIC FLAGS VIA MOVNX AND MOVMX                               SEQ 0680

 30933					;THIS TEST VERIFIES THAT MOVN WILL SET THE AROV AND
 30934					;CRY1 FLAGS ONLY WHEN THE DATA IS 400000,,0
 30935					;FIRST, THE FLAGS ARE RESET; THEN, MOVN [400000,,0] IS EXECUTED.
 30936					;THE ARITHMETIC FLAGS ARE CHECKED.
 30937					;IF AROV AND CRY1 ARE SET AND CRY0 AND FOV ARE RESET, THIS TEST PASSES.
 30938
 30939	047325	255 17 0 00 047326 	C12300:	JFCL	17,.+1		;CLEAR ARITHMETIC FLAGS
 30940	047326	210 00 0 00 070256 		MOVN	[XWD 400000,0]	;*MOVN [400000,,0] SHOULD SET AROV AND CRY1 ONLY
 30941	047327	255 10 0 00 047331 		JOV	.+2		;PASS IF AROV IS SET
 30942						STOP^
 30943	047330	254 04 0 00 047331 		HALT	.+1		;TEST FAILED IF PROGRAM HALTS HERE
 30944	047331	324 00 0 00 047332 		JUMPA	.+1		;IF TEST FAILS, CHANGE THIS INSTRUCTION (JUMPA .+1) TO
 30945									;JUMPA X (X IS THE ADDRESS OF THE FIRST INSTRUCTION
 30946									;IN THE SUBTEST) TO LOOP ON ERROR^
 30947	047332	255 02 0 00 047334 		JCRY1	.+2		;PASS IF CRY0 IS SET
 30948						STOP^
 30949	047333	254 04 0 00 047334 		HALT	.+1		;TEST FAILED IF PROGRAM HALTS HERE
 30950	047334	324 00 0 00 047335 		JUMPA	.+1		;IF TEST FAILS, CHANGE THIS INSTRUCTION (JUMPA .+1) TO
 30951									;JUMPA X (X IS THE ADDRESS OF THE FIRST INSTRUCTION
 30952									;IN THE SUBTEST) TO LOOP ON ERROR^
 30953	047335	255 04 0 00 047337 		JCRY0	.+2		;PASS IF CRY0 IS RESET
 30954	047336	334 00 0 00 000000 		SKIPA
 30955						STOP^
 30956	047337	254 04 0 00 047340 		HALT	.+1		;TEST FAILED IF PROGRAM HALTS HERE
 30957	047340	324 00 0 00 047341 		JUMPA	.+1		;IF TEST FAILS, CHANGE THIS INSTRUCTION (JUMPA .+1) TO
 30958									;JUMPA X (X IS THE ADDRESS OF THE FIRST INSTRUCTION
 30959									;IN THE SUBTEST) TO LOOP ON ERROR^
 30960	047341	255 01 0 00 047343 		JFOV	.+2		;PASS IF FOV IS RESET
 30961	047342	334 00 0 00 000000 		SKIPA
 30962						STOP^
 30963	047343	254 04 0 00 047344 		HALT	.+1		;TEST FAILED IF PROGRAM HALTS HERE
 30964	047344	324 00 0 00 047345 		JUMPA	.+1		;IF TEST FAILS, CHANGE THIS INSTRUCTION (JUMPA .+1) TO
 30965									;JUMPA X (X IS THE ADDRESS OF THE FIRST INSTRUCTION
 30966									;IN THE SUBTEST) TO LOOP ON ERROR^
 30967
 30968					;**********
 30969
 30970					;THIS TEST VERIFIES THAT MOVM WILL SET THE AROV AND
 30971					;CRY1 FLAGS ONLY WHEN THE DATA IS 400000,,0
 30972					;FIRST, THE FLAGS ARE RESET; THEN, MOVM [400000,,0] IS EXECUTED.
 30973					;THE ARITHMETIC FLAGS ARE CHECKED.
 30974					;IF AROV AND CRY1 ARE SET AND CRY0 AND FOV ARE RESET, THIS TEST PASSES.
 30975
 30976	047345	255 17 0 00 047346 	C12301:	JFCL	17,.+1		;CLEAR ARITHMETIC FLAGS
 30977	047346	214 00 0 00 070256 		MOVM	[XWD 400000,0]	;*MOVM [400000,,0] SHOULD SET AROV AND CRY1 ONLY
 30978	047347	255 10 0 00 047351 		JOV	.+2		;PASS IF AROV IS SET
 30979						STOP^
 30980	047350	254 04 0 00 047351 		HALT	.+1		;TEST FAILED IF PROGRAM HALTS HERE
 30981	047351	324 00 0 00 047352 		JUMPA	.+1		;IF TEST FAILS, CHANGE THIS INSTRUCTION (JUMPA .+1) TO
 30982									;JUMPA X (X IS THE ADDRESS OF THE FIRST INSTRUCTION
 30983									;IN THE SUBTEST) TO LOOP ON ERROR^
 30984	047352	255 02 0 00 047354 		JCRY1	.+2		;PASS IF CRY0 IS SET
 30985						STOP^
 30986	047353	254 04 0 00 047354 		HALT	.+1		;TEST FAILED IF PROGRAM HALTS HERE
 30987	047354	324 00 0 00 047355 		JUMPA	.+1		;IF TEST FAILS, CHANGE THIS INSTRUCTION (JUMPA .+1) TO
DFKAA PDP-10 KL10 BASIC INSTRUCTION DIAGNOSTIC (1) VER 0,2	MACRO %52(537) 09:34 31-JAN-77 PAGE 45-1
DFKAA4	MAC	25-AUG-75 13:58		TEST SETTING OF ARITHMETIC FLAGS VIA MOVNX AND MOVMX                               SEQ 0681

 30988									;JUMPA X (X IS THE ADDRESS OF THE FIRST INSTRUCTION
 30989									;IN THE SUBTEST) TO LOOP ON ERROR^
 30990	047355	255 04 0 00 047357 		JCRY0	.+2		;PASS IF CRY0 IS RESET
 30991	047356	334 00 0 00 000000 		SKIPA
 30992						STOP^
 30993	047357	254 04 0 00 047360 		HALT	.+1		;TEST FAILED IF PROGRAM HALTS HERE
 30994	047360	324 00 0 00 047361 		JUMPA	.+1		;IF TEST FAILS, CHANGE THIS INSTRUCTION (JUMPA .+1) TO
 30995									;JUMPA X (X IS THE ADDRESS OF THE FIRST INSTRUCTION
 30996									;IN THE SUBTEST) TO LOOP ON ERROR^
 30997	047361	255 01 0 00 047363 		JFOV	.+2		;PASS IF FOV IS RESET
 30998	047362	334 00 0 00 000000 		SKIPA
 30999						STOP^
 31000	047363	254 04 0 00 047364 		HALT	.+1		;TEST FAILED IF PROGRAM HALTS HERE
 31001	047364	324 00 0 00 047365 		JUMPA	.+1		;IF TEST FAILS, CHANGE THIS INSTRUCTION (JUMPA .+1) TO
 31002									;JUMPA X (X IS THE ADDRESS OF THE FIRST INSTRUCTION
 31003									;IN THE SUBTEST) TO LOOP ON ERROR^
 31004
 31005					;**********
DFKAA PDP-10 KL10 BASIC INSTRUCTION DIAGNOSTIC (1) VER 0,2	MACRO %52(537) 09:34 31-JAN-77 PAGE 46
DFKAA4	MAC	25-AUG-75 13:58		TEST OF AOS AND SOS INSTRUCTIONS                                                   SEQ 0682

 31006					SUBTTL	TEST OF AOS AND SOS INSTRUCTIONS
 31007
 31008					;**********
 31009
 31010					;THIS TEST VERIFIES THAT AOS ADDS 1 TO MEMORY AND DOES NOT SKIP.
 31011					;FIRST, E IS CLEARED; THEN, AOS IS EXECUTED. NEXT E IS CHECKED FOR 1.
 31012					;IF C(E) IS NOT 1 OR AOS SKIPPED, THIS TEST FAILS
 31013
 31014	047365	400 00 0 00 000000 	C12600:	SETZ			;CLEAR E
 31015	047366	350 00 0 00 000000 		AOS			;*AOS SHOULD ADD 1 TO C(E) AND NOT SKIP
 31016	047367	302 00 0 00 000001 		CAIE	1		;PASS IF C(E)=0,,1 ANDAOS DID NOT SKIP
 31017						STOP^
 31018	047370	254 04 0 00 047371 		HALT	.+1		;TEST FAILED IF PROGRAM HALTS HERE
 31019	047371	324 00 0 00 047372 		JUMPA	.+1		;IF TEST FAILS, CHANGE THIS INSTRUCTION (JUMPA .+1) TO
 31020									;JUMPA X (X IS THE ADDRESS OF THE FIRST INSTRUCTION
 31021									;IN THE SUBTEST) TO LOOP ON ERROR^
 31022
 31023					;**********
 31024
 31025					;THIS TEST VERIFIES THAT AOS ADDS 1 TO MEMORY AND DOES NOT SKIP.
 31026					;FIRST, E IS PRELOADED WITH -1,,-1; THEN, AOS IS EXECUTED. NEXT E IS CHECKED FOR 0.
 31027					;IF C(E) IS NOT 0 OR AOS SKIPPED, THIS TEST FAILS
 31028
 31029	047372	474 00 0 00 000000 	C12700:	SETO			;PRELOAD E WITH -1,,-1
 31030	047373	350 00 0 00 000000 		AOS			;*AOS SHOULD ADD 1 TO C(E) AND NOT SKIP
 31031	047374	302 00 0 00 000000 		CAIE			;PASS IF C(E)=0,,0 AND AOS DID NOT SKIP
 31032						STOP^
 31033	047375	254 04 0 00 047376 		HALT	.+1		;TEST FAILED IF PROGRAM HALTS HERE
 31034	047376	324 00 0 00 047377 		JUMPA	.+1		;IF TEST FAILS, CHANGE THIS INSTRUCTION (JUMPA .+1) TO
 31035									;JUMPA X (X IS THE ADDRESS OF THE FIRST INSTRUCTION
 31036									;IN THE SUBTEST) TO LOOP ON ERROR^
 31037
 31038					;**********
DFKAA PDP-10 KL10 BASIC INSTRUCTION DIAGNOSTIC (1) VER 0,2	MACRO %52(537) 09:34 31-JAN-77 PAGE 47
DFKAA4	MAC	25-AUG-75 13:58		TEST OF AOS AND SOS INSTRUCTIONS                                                   SEQ 0683

 31039					;THIS TEST VERIFIES THAT SOS SUBTRACTS 1 FROM MEMORY AND DOES NOT SKIP.
 31040					;FIRST, E IS CLEARED; THEN, SOS IS EXECUTED. NEXT E IS CHECKED FOR -1,,-1.
 31041					;IF C(E) IS NOT -1,,-1 OR SOS SKIPPED, THIS TEST FAILS
 31042
 31043	047377	400 00 0 00 000000 	C13100:	SETZ			;CLEAR E
 31044	047400	370 00 0 00 000000 		SOS			;*SOS SHOULD SUBTRACT 1 FROM C(E) AND NOT SKIP
 31045	047401	312 00 0 00 070254 		CAME	[-1]		;PASS IF C(E)=-1,,-1 AND SOS DID NOT SKIP
 31046						STOP^
 31047	047402	254 04 0 00 047403 		HALT	.+1		;TEST FAILED IF PROGRAM HALTS HERE
 31048	047403	324 00 0 00 047404 		JUMPA	.+1		;IF TEST FAILS, CHANGE THIS INSTRUCTION (JUMPA .+1) TO
 31049									;JUMPA X (X IS THE ADDRESS OF THE FIRST INSTRUCTION
 31050									;IN THE SUBTEST) TO LOOP ON ERROR^
 31051
 31052					;**********
 31053
 31054					;THIS TEST VERIFIES THAT SOS SUBTRACTS 1 FROM MEMORY AND DOES NOT SKIP.
 31055					;FIRST, E IS PRELOADED WITH A; THEN, SOS IS EXECUTED. NEXT E IS CHECKED FOR 0.
 31056					;IF C(E) IS NOT 0 OR SOS SKIPPED, THIS TEST FAILS
 31057
 31058	047404	201 00 0 00 000001 	C13200:	MOVEI	1		;PRELOAD E WITH 1
 31059	047405	370 00 0 00 000000 		SOS			;*SOS SHOULD SUBTRACT 1 FROM C(E) AND DID NOT SKIP
 31060	047406	302 00 0 00 000000 		CAIE	0		;PASS IF C(E)=0 AND SOS DID NOT SKIP
 31061						STOP^
 31062	047407	254 04 0 00 047410 		HALT	.+1		;TEST FAILED IF PROGRAM HALTS HERE
 31063	047410	324 00 0 00 047411 		JUMPA	.+1		;IF TEST FAILS, CHANGE THIS INSTRUCTION (JUMPA .+1) TO
 31064									;JUMPA X (X IS THE ADDRESS OF THE FIRST INSTRUCTION
 31065									;IN THE SUBTEST) TO LOOP ON ERROR^
 31066
 31067					;**********
DFKAA PDP-10 KL10 BASIC INSTRUCTION DIAGNOSTIC (1) VER 0,2	MACRO %52(537) 09:34 31-JAN-77 PAGE 48
DFKAA4	MAC	25-AUG-75 13:58		TEST OF AOS AND SOS INSTRUCTIONS                                                   SEQ 0684

 31068					;THIS TEST VERIFIES THAT SOS SETS CRY0/1 FLAGS IF C(E) IS A NON-ZERO NUMBER OTHER
 31069					;THAN 400000,,0.  IN THIS CASE, C(E)=1.  FIRST THE FLAGS ARE RESET; THEN
 31070					;SOS IS EXECUTED.  THE  FLAGS ARE CHECKED.  IF CRY0 AND CRY1 ARE SET
 31071					;AND AROV AND FOV ARE RESET, THIS TEST PASSES.
 31072
 31073	047411	255 17 0 00 047412 	C13300:	JFCL	17,.+1		;RESET ARITHMETIC FLAGS
 31074	047412	201 00 0 00 000001 		MOVEI	1		;PRELOAD E WITH 1
 31075	047413	370 00 0 00 000000 		SOS			;*SOS SHOULD SET CRY0/1
 31076	047414	255 04 0 00 047416 		JCRY0	.+2		;PASS IF CRY0 IS SET
 31077						STOP^
 31078	047415	254 04 0 00 047416 		HALT	.+1		;TEST FAILED IF PROGRAM HALTS HERE
 31079	047416	324 00 0 00 047417 		JUMPA	.+1		;IF TEST FAILS, CHANGE THIS INSTRUCTION (JUMPA .+1) TO
 31080									;JUMPA X (X IS THE ADDRESS OF THE FIRST INSTRUCTION
 31081									;IN THE SUBTEST) TO LOOP ON ERROR^
 31082	047417	255 02 0 00 047421 		JCRY1	.+2		;PASS IF CRY1 IS SET
 31083						STOP^
 31084	047420	254 04 0 00 047421 		HALT	.+1		;TEST FAILED IF PROGRAM HALTS HERE
 31085	047421	324 00 0 00 047422 		JUMPA	.+1		;IF TEST FAILS, CHANGE THIS INSTRUCTION (JUMPA .+1) TO
 31086									;JUMPA X (X IS THE ADDRESS OF THE FIRST INSTRUCTION
 31087									;IN THE SUBTEST) TO LOOP ON ERROR^
 31088	047422	255 10 0 00 047424 		JOV	.+2		;PASS IF AROV IS RESET
 31089	047423	334 00 0 00 000000 		SKIPA
 31090						STOP^
 31091	047424	254 04 0 00 047425 		HALT	.+1		;TEST FAILED IF PROGRAM HALTS HERE
 31092	047425	324 00 0 00 047426 		JUMPA	.+1		;IF TEST FAILS, CHANGE THIS INSTRUCTION (JUMPA .+1) TO
 31093									;JUMPA X (X IS THE ADDRESS OF THE FIRST INSTRUCTION
 31094									;IN THE SUBTEST) TO LOOP ON ERROR^
 31095	047426	255 01 0 00 047430 		JFOV	.+2		;PASS IF FOV IS RESET
 31096	047427	334 00 0 00 000000 		SKIPA
 31097						STOP^
 31098	047430	254 04 0 00 047431 		HALT	.+1		;TEST FAILED IF PROGRAM HALTS HERE
 31099	047431	324 00 0 00 047432 		JUMPA	.+1		;IF TEST FAILS, CHANGE THIS INSTRUCTION (JUMPA .+1) TO
 31100									;JUMPA X (X IS THE ADDRESS OF THE FIRST INSTRUCTION
 31101									;IN THE SUBTEST) TO LOOP ON ERROR^
 31102
 31103					;**********
 31104
 31105					;THIS TEST VERIFIES THAT AOS SETS CRY0 AND CRY1 FLAG IF C(E) IS -1,,-1
 31106					;FIRST THE FLAGS ARE RESET; THEN
 31107					;AOS IS EXECUTED.  THE FLAGS ARE CHECKED.
 31108					;IF CRY0 AND CRY1 ARE SET AND AROV AND FOV ARE RESET, THIS TEST PASSES.
 31109
 31110	047432	255 17 0 00 047433 	C13400:	JFCL	17,.+1		;RESET ARITHMETIC FLAGS
 31111	047433	474 00 0 00 000000 		SETO			;PRELOAD E WITH 1
 31112	047434	350 00 0 00 000000 		AOS			;*AOS SHOULD SET CRY0 AND CRY1
 31113	047435	255 04 0 00 047437 		JCRY0	.+2		;PASS IF CRY0 IS SET
 31114						STOP^
 31115	047436	254 04 0 00 047437 		HALT	.+1		;TEST FAILED IF PROGRAM HALTS HERE
 31116	047437	324 00 0 00 047440 		JUMPA	.+1		;IF TEST FAILS, CHANGE THIS INSTRUCTION (JUMPA .+1) TO
 31117									;JUMPA X (X IS THE ADDRESS OF THE FIRST INSTRUCTION
 31118									;IN THE SUBTEST) TO LOOP ON ERROR^
 31119	047440	255 02 0 00 047442 		JCRY1	.+2		;PASS IF CRY1 IS SET
 31120						STOP^
 31121	047441	254 04 0 00 047442 		HALT	.+1		;TEST FAILED IF PROGRAM HALTS HERE
 31122	047442	324 00 0 00 047443 		JUMPA	.+1		;IF TEST FAILS, CHANGE THIS INSTRUCTION (JUMPA .+1) TO
DFKAA PDP-10 KL10 BASIC INSTRUCTION DIAGNOSTIC (1) VER 0,2	MACRO %52(537) 09:34 31-JAN-77 PAGE 48-1
DFKAA4	MAC	25-AUG-75 13:58		TEST OF AOS AND SOS INSTRUCTIONS                                                   SEQ 0685

 31123									;JUMPA X (X IS THE ADDRESS OF THE FIRST INSTRUCTION
 31124									;IN THE SUBTEST) TO LOOP ON ERROR^
 31125	047443	255 10 0 00 047445 		JOV	.+2		;PASS IF AROV IS RESET
 31126	047444	334 00 0 00 000000 		SKIPA
 31127						STOP^
 31128	047445	254 04 0 00 047446 		HALT	.+1		;TEST FAILED IF PROGRAM HALTS HERE
 31129	047446	324 00 0 00 047447 		JUMPA	.+1		;IF TEST FAILS, CHANGE THIS INSTRUCTION (JUMPA .+1) TO
 31130									;JUMPA X (X IS THE ADDRESS OF THE FIRST INSTRUCTION
 31131									;IN THE SUBTEST) TO LOOP ON ERROR^
 31132	047447	255 01 0 00 047451 		JFOV	.+2		;PASS IF FOV IS RESET
 31133	047450	334 00 0 00 000000 		SKIPA
 31134						STOP^
 31135	047451	254 04 0 00 047452 		HALT	.+1		;TEST FAILED IF PROGRAM HALTS HERE
 31136	047452	324 00 0 00 047453 		JUMPA	.+1		;IF TEST FAILS, CHANGE THIS INSTRUCTION (JUMPA .+1) TO
 31137									;JUMPA X (X IS THE ADDRESS OF THE FIRST INSTRUCTION
 31138									;IN THE SUBTEST) TO LOOP ON ERROR^
 31139
 31140					;**********
DFKAA PDP-10 KL10 BASIC INSTRUCTION DIAGNOSTIC (1) VER 0,2	MACRO %52(537) 09:34 31-JAN-77 PAGE 49
DFKAA4	MAC	25-AUG-75 13:58		TEST OF INTERACTION OF JFCL, JRST, AND JSP WITH ARITHMETIC FLAGS                   SEQ 0686

 31141					SUBTTL	TEST OF INTERACTION OF JFCL, JRST, AND JSP WITH ARITHMETIC FLAGS
 31142
 31143					;**********
 31144
 31145					;THIS TEST VERIFIES THAT JFCL 1, WILL ALWAYS CLEAR FOV FLAG.
 31146					;FIRST, FOV IS SET VIA JRST 2, ;THEN JFCL 1,.+1 IS EXECUTED TO CLEAR FOV.
 31147					;IF FOV WAS CLEARED, THIS TEST PASSES.
 31148
 31149	047453				C13600:	SFLAG	FOV		^;SET FOV FLAG
 31150
 31151	047453	205 01 0 00 040000 		MOVSI	1,FOV
 31152	047454	255 17 0 00 047455 		JFCL	17,.+1	;RESET ALL FLAGS
 31153	047455	254 02 0 01 047456 		JRST	2,.+1(1)		;SET FOV FLAG
 31154	047456	255 01 0 00 047457 		JFCL	1,.+1		;*JFCL SHOULD RESET FOV
 31155	047457	255 01 0 00 047461 		JFCL	1,.+2		;PASS IF FOV IS RESET
 31156	047460	334 00 0 00 000000 		SKIPA			;SKIP HALT IF JFCL 1,.+1 PASSED
 31157						STOP^
 31158	047461	254 04 0 00 047462 		HALT	.+1		;TEST FAILED IF PROGRAM HALTS HERE
 31159	047462	324 00 0 00 047463 		JUMPA	.+1		;IF TEST FAILS, CHANGE THIS INSTRUCTION (JUMPA .+1) TO
 31160									;JUMPA X (X IS THE ADDRESS OF THE FIRST INSTRUCTION
 31161									;IN THE SUBTEST) TO LOOP ON ERROR^
 31162
 31163					;**********
 31164
 31165					;THIS TEST VERIFIES THAT JRST 2, CAN SET FXU AND JSP CAN SAVE FXU IN THE AC.
 31166					;FIRST, FXU IS SET VIA JRST 2, ;THEN, JSP IS EXECUTED. THE AC IS CHECKED
 31167					;FOR FXU.  IF FXU IS SET, THIS TEST PASSES; OTHERWISE, EITHER JRST 2, OR JSP FAILED.
 31168
 31169	047463				C13700:	SFLAG	FXU		^;*SET FXU FLAG
 31170
 31171	047463	205 01 0 00 000100 		MOVSI	1,FXU
 31172	047464	255 17 0 00 047465 		JFCL	17,.+1	;RESET ALL FLAGS
 31173	047465	254 02 0 01 047466 		JRST	2,.+1(1)		;SET FXU FLAG
 31174	047466	265 00 0 00 047467 		JSP	.+1		;*STORE FXU FLAG IN AC
 31175	047467	607 00 0 00 000100 		TLNN	FXU		;PASS IF FXU IS SET IN THE AC
 31176						STOP^
 31177	047470	254 04 0 00 047471 		HALT	.+1		;TEST FAILED IF PROGRAM HALTS HERE
 31178	047471	324 00 0 00 047472 		JUMPA	.+1		;IF TEST FAILS, CHANGE THIS INSTRUCTION (JUMPA .+1) TO
 31179									;JUMPA X (X IS THE ADDRESS OF THE FIRST INSTRUCTION
 31180									;IN THE SUBTEST) TO LOOP ON ERROR^
 31181
 31182					;**********
DFKAA PDP-10 KL10 BASIC INSTRUCTION DIAGNOSTIC (1) VER 0,2	MACRO %52(537) 09:34 31-JAN-77 PAGE 50
DFKAA4	MAC	25-AUG-75 13:58		TEST OF INTERACTION OF JFCL, JRST, AND JSP WITH ARITHMETIC FLAGS                   SEQ 0687

 31183					;THIS TEST VERIFIES THAT JRST 2, CAN RESET FXU AND JSP CAN SAVE FXU IN THE AC.
 31184					;FIRST, FXU IS SET; THEN, FXU IS RESET VIA JRST 2,.  NEXT, JSP IS EXECUTED; AND
 31185					;THE AC IS CHECKED FOR FXU RESET.  IF FXU IS RESET IN THE AC, THIS TEST PASSES;
 31186					;OTHERWISE, JRST 2, FAILED TO CLEAR FXU OR JSP STORED FXU INCORECTLY.
 31187
 31188	047472				C14000:	SFLAG	FXU		^;SET FXU FLAG
 31189
 31190	047472	205 01 0 00 000100 		MOVSI	1,FXU
 31191	047473	255 17 0 00 047474 		JFCL	17,.+1	;RESET ALL FLAGS
 31192	047474	254 02 0 01 047475 		JRST	2,.+1(1)		;SET FXU FLAG
 31193						SFLAG			^;*RESET FXU FLAG
 31194
 31195	047475	205 01 0 00 000000 		MOVSI	1,
 31196	047476	255 17 0 00 047477 		JFCL	17,.+1	;RESET ALL FLAGS
 31197	047477	254 02 0 01 047500 		JRST	2,.+1(1)		;SET  FLAG
 31198	047500	265 00 0 00 047501 		JSP	.+1		;*STORE FXU FLAG IN THE AC
 31199	047501	603 00 0 00 000100 		TLNE	FXU		;PASS IF FXU IS RESET IN THE AC
 31200						STOP^
 31201	047502	254 04 0 00 047503 		HALT	.+1		;TEST FAILED IF PROGRAM HALTS HERE
 31202	047503	324 00 0 00 047504 		JUMPA	.+1		;IF TEST FAILS, CHANGE THIS INSTRUCTION (JUMPA .+1) TO
 31203									;JUMPA X (X IS THE ADDRESS OF THE FIRST INSTRUCTION
 31204									;IN THE SUBTEST) TO LOOP ON ERROR^
 31205
 31206					;**********
 31207
 31208					;THIS TEST VERIFIES THAT JRST 2, CAN SET DCK AND JSP CAN SAVE DCK IN THE AC.
 31209					;FIRST, DCK IS SET VIA JRST 2, ;THEN JSP IS EXECUTED.  THE AC IS CHECKED
 31210					;FOR DCK.  IF DCK IS SET, THIS TEST PASSES, OTHERWISE JRST 2, OR JSP FAILED.
 31211
 31212	047504				C14100:	SFLAG	DCK		^;*SET DCK FLAG
 31213
 31214	047504	205 01 0 00 000040 		MOVSI	1,DCK
 31215	047505	255 17 0 00 047506 		JFCL	17,.+1	;RESET ALL FLAGS
 31216	047506	254 02 0 01 047507 		JRST	2,.+1(1)		;SET DCK FLAG
 31217	047507	265 00 0 00 047510 		JSP	.+1		;*STORE FXU FLAG IN AC
 31218	047510	607 00 0 00 000040 		TLNN	DCK		;PASS IF FXU IS SET IN THE AC
 31219						STOP^
 31220	047511	254 04 0 00 047512 		HALT	.+1		;TEST FAILED IF PROGRAM HALTS HERE
 31221	047512	324 00 0 00 047513 		JUMPA	.+1		;IF TEST FAILS, CHANGE THIS INSTRUCTION (JUMPA .+1) TO
 31222									;JUMPA X (X IS THE ADDRESS OF THE FIRST INSTRUCTION
 31223									;IN THE SUBTEST) TO LOOP ON ERROR^
 31224
 31225					;**********
DFKAA PDP-10 KL10 BASIC INSTRUCTION DIAGNOSTIC (1) VER 0,2	MACRO %52(537) 09:34 31-JAN-77 PAGE 51
DFKAA4	MAC	25-AUG-75 13:58		TEST OF INTERACTION OF JFCL, JRST, AND JSP WITH ARITHMETIC FLAGS                   SEQ 0688

 31226					;THIS TEST VERIFIES THAT JRST 2, CAN RESET DCK AND JSP CAN SAVE DCK IN THE AC.
 31227					;FIRST, FXU IS SET; THEN, DCK IS RESET VIA JRST 2,.  NEXT, JSP IS EXPECTED; AND
 31228					;THE AC IS CHECKED FOR DCK RESET.  IF DCK IS RESET IN THE AC, THIS TEST PASSES;
 31229					;OTHERWISE, JRST 2, FAILED TO CLEAR DCK OR JSP STORED DCK INCORRECTLY.
 31230
 31231	047513				C14200:	SFLAG	DCK		^;SET DCK FLAG
 31232
 31233	047513	205 01 0 00 000040 		MOVSI	1,DCK
 31234	047514	255 17 0 00 047515 		JFCL	17,.+1	;RESET ALL FLAGS
 31235	047515	254 02 0 01 047516 		JRST	2,.+1(1)		;SET DCK FLAG
 31236						SFLAG			^;*RESET DCK FLAG
 31237
 31238	047516	205 01 0 00 000000 		MOVSI	1,
 31239	047517	255 17 0 00 047520 		JFCL	17,.+1	;RESET ALL FLAGS
 31240	047520	254 02 0 01 047521 		JRST	2,.+1(1)		;SET  FLAG
 31241	047521	265 00 0 00 047522 		JSP	.+1		;*STORE DCK FLAG IN THE AC
 31242	047522	603 00 0 00 000040 		TLNE	DCK		;PASS IF DCK IS RESET IN THE AC
 31243						STOP^
 31244	047523	254 04 0 00 047524 		HALT	.+1		;TEST FAILED IF PROGRAM HALTS HERE
 31245	047524	324 00 0 00 047525 		JUMPA	.+1		;IF TEST FAILS, CHANGE THIS INSTRUCTION (JUMPA .+1) TO
 31246									;JUMPA X (X IS THE ADDRESS OF THE FIRST INSTRUCTION
 31247									;IN THE SUBTEST) TO LOOP ON ERROR^
 31248
 31249					;**********
DFKAA PDP-10 KL10 BASIC INSTRUCTION DIAGNOSTIC (1) VER 0,2	MACRO %52(537) 09:34 31-JAN-77 PAGE 52
DFKAA4	MAC	25-AUG-75 13:58		TEST OF JUMPX INSTRUCTIONS                                                         SEQ 0689

 31250					SUBTTL	TEST OF JUMPX INSTRUCTIONS
 31251
 31252					;**********
 31253
 31254					;THIS TEST VERIFIES THAT JUMPL IS DATA DEPENDENT.  IT WILL JUMP IF AND ONLY IF
 31255					;C(AC) IS NEGATIVE.  IN THIS TEST, THE AC CONTAINS -1,,-1.  HENCE,
 31256					;JUMPL SHOULD JUMP.  IF JUMPL JUMPS, THIS TEST PASSES.
 31257
 31258	047525	474 00 0 00 000000 	C14500:	SETO			;PRELOAD AC WITH -1,,-1
 31259	047526	321 00 0 00 047530 		JUMPL	.+2		;*JUMPL SHOULD JUMP BECAUSE C(AC) IS NEGATIVE
 31260						STOP^
 31261	047527	254 04 0 00 047530 		HALT	.+1		;TEST FAILED IF PROGRAM HALTS HERE
 31262	047530	324 00 0 00 047531 		JUMPA	.+1		;IF TEST FAILS, CHANGE THIS INSTRUCTION (JUMPA .+1) TO
 31263									;JUMPA X (X IS THE ADDRESS OF THE FIRST INSTRUCTION
 31264									;IN THE SUBTEST) TO LOOP ON ERROR^
 31265
 31266					;**********
 31267
 31268					;THIS TEST VERIFIES THAT JUMPL IS DATA DEPENDENT.  IT WILL JUMP IF AND ONLY IF
 31269					;C(AC) IS NEGATIVE.  IN THIS TEST, THE AC CONTAINS 0.  HENCE,
 31270					;JUMPL SHOULD NOT JUMP.  IF JUMPL DOES NOT JUMP, THIS TEST PASSES.
 31271
 31272	047531	400 00 0 00 000000 	C14600:	SETZ			;PRELOAD AC WITH 0
 31273	047532	321 00 0 00 047534 		JUMPL	.+2		;*JUMPL SHOULD NOT JUMP
 31274	047533	334 00 0 00 000000 		SKIPA			;PASS IF JUMPL DOES NOT JUMP
 31275						STOP^
 31276	047534	254 04 0 00 047535 		HALT	.+1		;TEST FAILED IF PROGRAM HALTS HERE
 31277	047535	324 00 0 00 047536 		JUMPA	.+1		;IF TEST FAILS, CHANGE THIS INSTRUCTION (JUMPA .+1) TO
 31278									;JUMPA X (X IS THE ADDRESS OF THE FIRST INSTRUCTION
 31279									;IN THE SUBTEST) TO LOOP ON ERROR^
 31280
 31281					;**********
 31282
 31283					;THIS TEST VERIFIES THAT JUMPE IS DATA DEPENDENT.  IT WILL JUMP IF AND ONLY IF
 31284					;C(AC)=0.  IN THIS TEST, THE AC CONTAINS 0.  HENCE,
 31285					;JUMPE SHOULD JUMP.  IF JUMPE JUMPS, THIS TEST PASSES.
 31286
 31287	047536	400 00 0 00 000000 	C14700:	SETZ			;PRELOAD AC WITH 0
 31288	047537	322 00 0 00 047541 		JUMPE	.+2		;*JUMPE SHOULD JUMP
 31289						STOP^
 31290	047540	254 04 0 00 047541 		HALT	.+1		;TEST FAILED IF PROGRAM HALTS HERE
 31291	047541	324 00 0 00 047542 		JUMPA	.+1		;IF TEST FAILS, CHANGE THIS INSTRUCTION (JUMPA .+1) TO
 31292									;JUMPA X (X IS THE ADDRESS OF THE FIRST INSTRUCTION
 31293									;IN THE SUBTEST) TO LOOP ON ERROR^
 31294
 31295					;**********
DFKAA PDP-10 KL10 BASIC INSTRUCTION DIAGNOSTIC (1) VER 0,2	MACRO %52(537) 09:34 31-JAN-77 PAGE 53
DFKAA4	MAC	25-AUG-75 13:58		TEST OF JUMPX INSTRUCTIONS                                                         SEQ 0690

 31296					;THIS TEST VERIFIES THAT JUMPN IS DATA DEPENDENT.  IT WILL JUMP IF AND ONLY IF
 31297					;C(AC) IS NON-ZERO.  IN THIS TEST, THE AC CONTAINS 1.  HENCE,
 31298					;JUMPN SHOULD JUMP.  IF JUMPN JUMPS, THIS TEST PASSES.
 31299
 31300	047542	201 00 0 00 000001 	C15000:	MOVEI	1		;PRELOAD AC WITH 1
 31301	047543	326 00 0 00 047545 		JUMPN	.+2		;*JUMPN SHOULD JUMP
 31302						STOP^
 31303	047544	254 04 0 00 047545 		HALT	.+1		;TEST FAILED IF PROGRAM HALTS HERE
 31304	047545	324 00 0 00 047546 		JUMPA	.+1		;IF TEST FAILS, CHANGE THIS INSTRUCTION (JUMPA .+1) TO
 31305									;JUMPA X (X IS THE ADDRESS OF THE FIRST INSTRUCTION
 31306									;IN THE SUBTEST) TO LOOP ON ERROR^
 31307
 31308					;**********
 31309
 31310					;THIS TEST VERIFIES THAT JUMPE IS DATA DEPENDENT.  IT WILL JUMP IF AND ONLY IF
 31311					;C(AC)=0.  IN THIS TEST, THE AC CONTAINS 2.  HENCE,
 31312					;JUMPL SHOULD NOT JUMP.  IF JUMPE DOES NOT JUMP, THIS TEST PASSES.
 31313
 31314	047546	201 00 0 00 000002 	C15100:	MOVEI	2		;PRELOAD AC WITH 2
 31315	047547	322 00 0 00 047551 		JUMPE	.+2		;*JUMPE SHOULD NOT JUMP
 31316	047550	334 00 0 00 000000 		SKIPA			;PASS IF JUMPE DID NOT JUMP
 31317						STOP^
 31318	047551	254 04 0 00 047552 		HALT	.+1		;TEST FAILED IF PROGRAM HALTS HERE
 31319	047552	324 00 0 00 047553 		JUMPA	.+1		;IF TEST FAILS, CHANGE THIS INSTRUCTION (JUMPA .+1) TO
 31320									;JUMPA X (X IS THE ADDRESS OF THE FIRST INSTRUCTION
 31321									;IN THE SUBTEST) TO LOOP ON ERROR^
 31322
 31323					;**********
 31324
 31325					;THIS TEST VERIFIES THAT JUMPN IS DATA DEPENDENT.  IT WILL JUMP IF AND ONLY IF
 31326					;C(AC) IS NON-ZERO.  IN THIS TEST, THE AC CONTAINS 0.  HENCE,
 31327					;JUMPN SHOULD NOT JUMP.  IF JUMPN DOES NOT JUMP, THIS TEST PASSES.
 31328
 31329	047553	400 00 0 00 000000 	C15200:	SETZ			;PRELOAD AC WITH 0
 31330	047554	326 00 0 00 047556 		JUMPN	.+2		;*JUMPN SHOULD NOT JUMP
 31331	047555	334 00 0 00 000000 		SKIPA			;PASS IF JUMPN DID NOT JUMP
 31332						STOP^
 31333	047556	254 04 0 00 047557 		HALT	.+1		;TEST FAILED IF PROGRAM HALTS HERE
 31334	047557	324 00 0 00 047560 		JUMPA	.+1		;IF TEST FAILS, CHANGE THIS INSTRUCTION (JUMPA .+1) TO
 31335									;JUMPA X (X IS THE ADDRESS OF THE FIRST INSTRUCTION
 31336									;IN THE SUBTEST) TO LOOP ON ERROR^
 31337
 31338					;**********
DFKAA PDP-10 KL10 BASIC INSTRUCTION DIAGNOSTIC (1) VER 0,2	MACRO %52(537) 09:34 31-JAN-77 PAGE 54
DFKAA4	MAC	25-AUG-75 13:58		TEST OF JUMPX INSTRUCTIONS                                                         SEQ 0691

 31339					;THIS TEST VERIFIES THAT JUMPG IS DATA DEPENDENT.  IT WILL JUMP IF AND ONLY IF
 31340					;C(AC) IS GREATER THAN 0.  IN THIS TEST, THE AC CONTAINS 1.  HENCE,
 31341					;JUMPG SHOULD JUMP.  IF JUMPG JUMPS, THIS TEST PASSES.
 31342
 31343	047560	201 00 0 00 000001 	C15300:	MOVEI	1		;PRELOAD  AC WITH 1
 31344	047561	327 00 0 00 047563 		JUMPG	.+2		;*JUMPG SHOULD JUMP
 31345						STOP^
 31346	047562	254 04 0 00 047563 		HALT	.+1		;TEST FAILED IF PROGRAM HALTS HERE
 31347	047563	324 00 0 00 047564 		JUMPA	.+1		;IF TEST FAILS, CHANGE THIS INSTRUCTION (JUMPA .+1) TO
 31348									;JUMPA X (X IS THE ADDRESS OF THE FIRST INSTRUCTION
 31349									;IN THE SUBTEST) TO LOOP ON ERROR^
 31350
 31351					;**********
 31352
 31353					;THIS TEST VERIFIES THAT JUMPG IS DATA DEPENDENT.  IT WILL JUMP IF AND ONLY IF
 31354					;C(AC) IS GREATER THAN 0.  IN THIS TEST, THE AC CONTAINS -1,,0.  HENCE,
 31355					;JUMPG SHOULD NOT JUMP.  IF JUMPG DOES NOT JUMP, THIS TEST PASSES.
 31356
 31357	047564	205 00 0 00 777777 	C15400:	MOVSI	-1		;PRELOAD AC WITH -1,,0
 31358	047565	327 00 0 00 047567 		JUMPG	.+2		;*JUMPG SHOULD NOT JUMP
 31359	047566	334 00 0 00 000000 		SKIPA			;PASS IF JUMPG DID NOT JUMP
 31360						STOP^
 31361	047567	254 04 0 00 047570 		HALT	.+1		;TEST FAILED IF PROGRAM HALTS HERE
 31362	047570	324 00 0 00 047571 		JUMPA	.+1		;IF TEST FAILS, CHANGE THIS INSTRUCTION (JUMPA .+1) TO
 31363									;JUMPA X (X IS THE ADDRESS OF THE FIRST INSTRUCTION
 31364									;IN THE SUBTEST) TO LOOP ON ERROR^
 31365
 31366					;**********
DFKAA PDP-10 KL10 BASIC INSTRUCTION DIAGNOSTIC (1) VER 0,2	MACRO %52(537) 09:34 31-JAN-77 PAGE 55
DFKAA4	MAC	25-AUG-75 13:58		TEST OF AOJ AND SOJ INSTRUCTIONS                                                   SEQ 0692

 31367					SUBTTL	TEST OF AOJ AND SOJ INSTRUCTIONS
 31368
 31369					;**********
 31370
 31371					;THIS TEST VERIFIES THAT AOJ ADDS 1 TO THE AC AND DOES NOT JUMP.
 31372					;FIRST, THE AC IS PRELOADED WITH 0; THEN, AOJ IS EXECUTED.  NEXT, THE
 31373					;AC IS CHECKED FOR 1.  IF C(AC) IS NOT 1 OR AOJ SKIPPED, THIS TEST FAILS.
 31374
 31375	047571	400 00 0 00 000000 	C15500:	SETZ			;PRELOAD AC WITH 0
 31376	047572	340 00 0 00 047574 		AOJ	.+2		;*AOJ SHOULD ADD 1 TO THE AC AND NOT JUMP
 31377	047573	302 00 0 00 000001 		CAIE	1		;PASS IF C(AC)=1 AND AOJ DID NOT JUMP
 31378						STOP^
 31379	047574	254 04 0 00 047575 		HALT	.+1		;TEST FAILED IF PROGRAM HALTS HERE
 31380	047575	324 00 0 00 047576 		JUMPA	.+1		;IF TEST FAILS, CHANGE THIS INSTRUCTION (JUMPA .+1) TO
 31381									;JUMPA X (X IS THE ADDRESS OF THE FIRST INSTRUCTION
 31382									;IN THE SUBTEST) TO LOOP ON ERROR^
 31383
 31384					;**********
 31385
 31386					;THIS TEST VERIFIES THAT AOJ ADDS 1 TO THE AC AND DOES NOT JUMP.
 31387					;FIRST, THE AC IS PRELOADED WITH -1,,-1; THEN, AOJ IS EXECUTED.  NEXT, THE
 31388					;AC IS CHECKED FOR 0.  IF C(AC) IS NOT 0 OR AOJ SKIPPED, THIS TEST FAILS.
 31389
 31390	047576	474 00 0 00 000000 	C15600:	SETO			;PRELOAD AC WITH 0
 31391	047577	340 00 0 00 047601 		AOJ	.+2		;*AOJ SHOULD ADD 1 TO THE AC AND NOT JUMP
 31392	047600	302 00 0 00 000000 		CAIE	0		;PASS IF C(AC)=1 AND AOJ DID NOT JUMP
 31393						STOP^
 31394	047601	254 04 0 00 047602 		HALT	.+1		;TEST FAILED IF PROGRAM HALTS HERE
 31395	047602	324 00 0 00 047603 		JUMPA	.+1		;IF TEST FAILS, CHANGE THIS INSTRUCTION (JUMPA .+1) TO
 31396									;JUMPA X (X IS THE ADDRESS OF THE FIRST INSTRUCTION
 31397									;IN THE SUBTEST) TO LOOP ON ERROR^
 31398
 31399					;**********
 31400
 31401					;THIS TEST VERIFIES THAT SOJ SUBTRACTS 1 FROM THE AC AND DOES NOT JUMP.
 31402					;FIRST, THE AC IS PRELOADED WITH 0; THEN, SOJ IS EXECUTED.  NEXT, THE
 31403					;AC IS CHECKED FOR -1,,-1.  IF C(AC) IS NOT -1,,-1 OR SOJ SKIPPED, THIS TEST FAILS.
 31404
 31405	047603	400 00 0 00 000000 	C15700:	SETZ			;PRELOAD AC WITH 0
 31406	047604	360 00 0 00 047606 		SOJ	.+2		;*SOJ SHOULD SUBTRACT 1 FROM THE AC AND NOT JUMP
 31407	047605	312 00 0 00 070254 		CAME	[-1]		;PASS IF C(AC)=-1,,-1 AND SOJ DID NOT JUMP
 31408						STOP^
 31409	047606	254 04 0 00 047607 		HALT	.+1		;TEST FAILED IF PROGRAM HALTS HERE
 31410	047607	324 00 0 00 047610 		JUMPA	.+1		;IF TEST FAILS, CHANGE THIS INSTRUCTION (JUMPA .+1) TO
 31411									;JUMPA X (X IS THE ADDRESS OF THE FIRST INSTRUCTION
 31412									;IN THE SUBTEST) TO LOOP ON ERROR^
 31413
 31414					;**********
DFKAA PDP-10 KL10 BASIC INSTRUCTION DIAGNOSTIC (1) VER 0,2	MACRO %52(537) 09:34 31-JAN-77 PAGE 56
DFKAA4	MAC	25-AUG-75 13:58		TEST OF AOJ AND SOJ INSTRUCTIONS                                                   SEQ 0693

 31415					;THIS TEST VERIFIES THAT SOJ SUBTRACTS 1 FROM THE AC AND DOES NOT JUMP.
 31416					;FIRST, THE AC IS PRELOADED WITH -1,,-1; THEN, SOJ IS EXECUTED.  NEXT, THE
 31417					;AC IS CHECKED FOR -1,,-2.  IF C(AC) IS NOT -1,,-2 OR SOJ SKIPPED, THIS TEST FAILS.
 31418
 31419	047610	474 00 0 00 000000 	C16000:	SETO			;PRELOAD AC WITH -1,,-1
 31420	047611	360 00 0 00 047613 		SOJ	.+2		;*SOJ SHOULD SUBTRACT 1 FROM THE AC AND NOT JUMP
 31421	047612	312 00 0 00 070333 		CAME	[-2]		;PASS IF C(AC)=-1,,-2 AND SOJ DID NOT JUMP
 31422						STOP^
 31423	047613	254 04 0 00 047614 		HALT	.+1		;TEST FAILED IF PROGRAM HALTS HERE
 31424	047614	324 00 0 00 047615 		JUMPA	.+1		;IF TEST FAILS, CHANGE THIS INSTRUCTION (JUMPA .+1) TO
 31425									;JUMPA X (X IS THE ADDRESS OF THE FIRST INSTRUCTION
 31426									;IN THE SUBTEST) TO LOOP ON ERROR^
 31427
 31428					;**********
 31429
 31430					;THIS TEST VERIFIES THAT SOJ SUBTRACTS 1 FROM THE AC AND DOES NOT JUMP.
 31431					;FIRST, THE AC IS PRELOADED WITH 0,,1; THEN, SOJ IS EXECUTED.  NEXT, THE
 31432					;AC IS CHECKED FOR 0.  IF C(AC) IS NOT 0 OR SOJ SKIPPED, THIS TEST FAILS.
 31433
 31434	047615	201 00 0 00 000001 	C16100:	MOVEI	1		;PRELOAD AC WITH 1
 31435	047616	360 00 0 00 047620 		SOJ	.+2		;*SOJ SHOULD SUBTRACT 1 FROM THE AC AND NOT JUMP
 31436	047617	302 00 0 00 000000 		CAIE	0		;PASS IF C(AC)=0 AND SOJ DID NOT JUMP
 31437						STOP^
 31438	047620	254 04 0 00 047621 		HALT	.+1		;TEST FAILED IF PROGRAM HALTS HERE
 31439	047621	324 00 0 00 047622 		JUMPA	.+1		;IF TEST FAILS, CHANGE THIS INSTRUCTION (JUMPA .+1) TO
 31440									;JUMPA X (X IS THE ADDRESS OF THE FIRST INSTRUCTION
 31441									;IN THE SUBTEST) TO LOOP ON ERROR^
 31442
 31443					;**********
DFKAA PDP-10 KL10 BASIC INSTRUCTION DIAGNOSTIC (1) VER 0,2	MACRO %52(537) 09:34 31-JAN-77 PAGE 57
DFKAA4	MAC	25-AUG-75 13:58		TEST OF AOJ AND SOJ INSTRUCTIONS                                                   SEQ 0694

 31444					;THIS TEST VERIFIES THAT SOJ AC, FOLLOWED BY AOJ AC, HAS NO NET EFFECT ON C(AC).
 31445					;IN THIS CASE, THE AC IS PRELOADED WITH 0; THEN, SOJ AC, FOLLOWED BY AOJ.
 31446					;AC, IS REPEATED 7 TIMES.  THE AC IS THEN CHECKED FOR ITS ORIGINAL CONTENTS, 0.
 31447					;IF C(AC)=0, THIS TEST PASSES; OTHERWISE AOJ OR SOJ FAILED.
 31448
 31449			000017		C16200:	AC=17
 31450	047622	400 17 0 00 000000 		SETZ	AC,		;PRELOAD AC WITH 0
 31451						REPEAT	^D10,<
 31452						SOJ	AC,.		;*SOJ SHOULD SUBTRACT 1 FROM THE AC
 31453						AOJ	AC,.		;*AOJ SHOULD ADD 1 TO THE AC>
 31454
 31455	047623	360 17 0 00 047623 		SOJ	AC,.		;*SOJ SHOULD SUBTRACT 1 FROM THE AC
 31456	047624	340 17 0 00 047624 		AOJ	AC,.		;*AOJ SHOULD ADD 1 TO THE AC
 31457
 31458	047625	360 17 0 00 047625 		SOJ	AC,.		;*SOJ SHOULD SUBTRACT 1 FROM THE AC
 31459	047626	340 17 0 00 047626 		AOJ	AC,.		;*AOJ SHOULD ADD 1 TO THE AC
 31460
 31461	047627	360 17 0 00 047627 		SOJ	AC,.		;*SOJ SHOULD SUBTRACT 1 FROM THE AC
 31462	047630	340 17 0 00 047630 		AOJ	AC,.		;*AOJ SHOULD ADD 1 TO THE AC
 31463
 31464	047631	360 17 0 00 047631 		SOJ	AC,.		;*SOJ SHOULD SUBTRACT 1 FROM THE AC
 31465	047632	340 17 0 00 047632 		AOJ	AC,.		;*AOJ SHOULD ADD 1 TO THE AC
 31466
 31467	047633	360 17 0 00 047633 		SOJ	AC,.		;*SOJ SHOULD SUBTRACT 1 FROM THE AC
 31468	047634	340 17 0 00 047634 		AOJ	AC,.		;*AOJ SHOULD ADD 1 TO THE AC
 31469
 31470	047635	360 17 0 00 047635 		SOJ	AC,.		;*SOJ SHOULD SUBTRACT 1 FROM THE AC
 31471	047636	340 17 0 00 047636 		AOJ	AC,.		;*AOJ SHOULD ADD 1 TO THE AC
 31472
 31473	047637	360 17 0 00 047637 		SOJ	AC,.		;*SOJ SHOULD SUBTRACT 1 FROM THE AC
 31474	047640	340 17 0 00 047640 		AOJ	AC,.		;*AOJ SHOULD ADD 1 TO THE AC
 31475
 31476	047641	360 17 0 00 047641 		SOJ	AC,.		;*SOJ SHOULD SUBTRACT 1 FROM THE AC
 31477	047642	340 17 0 00 047642 		AOJ	AC,.		;*AOJ SHOULD ADD 1 TO THE AC
 31478
 31479	047643	360 17 0 00 047643 		SOJ	AC,.		;*SOJ SHOULD SUBTRACT 1 FROM THE AC
 31480	047644	340 17 0 00 047644 		AOJ	AC,.		;*AOJ SHOULD ADD 1 TO THE AC
 31481
 31482	047645	360 17 0 00 047645 		SOJ	AC,.		;*SOJ SHOULD SUBTRACT 1 FROM THE AC
 31483	047646	340 17 0 00 047646 		AOJ	AC,.		;*AOJ SHOULD ADD 1 TO THE AC
 31484	047647	332 00 0 00 000017 		SKIPE	AC		;PASS IF C(AC) IS UNCHANGED. I.E. C(AC)=0
 31485						STOP^
 31486	047650	254 04 0 00 047651 		HALT	.+1		;TEST FAILED IF PROGRAM HALTS HERE
 31487	047651	324 00 0 00 047652 		JUMPA	.+1		;IF TEST FAILS, CHANGE THIS INSTRUCTION (JUMPA .+1) TO
 31488									;JUMPA X (X IS THE ADDRESS OF THE FIRST INSTRUCTION
 31489									;IN THE SUBTEST) TO LOOP ON ERROR^
 31490
 31491					;**********
DFKAA PDP-10 KL10 BASIC INSTRUCTION DIAGNOSTIC (1) VER 0,2	MACRO %52(537) 09:34 31-JAN-77 PAGE 58
DFKAA4	MAC	25-AUG-75 13:58		TEST OF AOJ AND SOJ INSTRUCTIONS                                                   SEQ 0695

 31492					;THIS TEST VERIFIES THAT SOJ SETS CRY0/1 FLAGS IF C(E) IS A NON-ZERO NUMBER OTHER
 31493					;THAN 400000,,0.  IN THIS CASE, C(E)=1.  FIRST THE FLAGS ARE RESET; THEN
 31494					;SOJ IS EXECUTED.  THE  FLAGS ARE CHECKED.  IF CRY0 AND CRY1 ARE SET
 31495					;AND AROV AND FOV ARE RESET, THIS TEST PASSES.
 31496
 31497	047652	255 17 0 00 047653 	C16201:	JFCL	17,.+1		;RESET ARITHMETIC FLAGS
 31498	047653	201 00 0 00 000001 		MOVEI	1		;PRELOAD E WITH 1
 31499	047654	360 00 0 00 000000 		SOJ			;*SOJ SHOULD SET CRY0/1
 31500	047655	255 04 0 00 047657 		JCRY0	.+2		;PASS IF CRY0 IS SET
 31501						STOP^
 31502	047656	254 04 0 00 047657 		HALT	.+1		;TEST FAILED IF PROGRAM HALTS HERE
 31503	047657	324 00 0 00 047660 		JUMPA	.+1		;IF TEST FAILS, CHANGE THIS INSTRUCTION (JUMPA .+1) TO
 31504									;JUMPA X (X IS THE ADDRESS OF THE FIRST INSTRUCTION
 31505									;IN THE SUBTEST) TO LOOP ON ERROR^
 31506	047660	255 02 0 00 047662 		JCRY1	.+2		;PASS IF CRY1 IS SET
 31507						STOP^
 31508	047661	254 04 0 00 047662 		HALT	.+1		;TEST FAILED IF PROGRAM HALTS HERE
 31509	047662	324 00 0 00 047663 		JUMPA	.+1		;IF TEST FAILS, CHANGE THIS INSTRUCTION (JUMPA .+1) TO
 31510									;JUMPA X (X IS THE ADDRESS OF THE FIRST INSTRUCTION
 31511									;IN THE SUBTEST) TO LOOP ON ERROR^
 31512	047663	255 10 0 00 047665 		JOV	.+2		;PASS IF AROV IS RESET
 31513	047664	334 00 0 00 000000 		SKIPA
 31514						STOP^
 31515	047665	254 04 0 00 047666 		HALT	.+1		;TEST FAILED IF PROGRAM HALTS HERE
 31516	047666	324 00 0 00 047667 		JUMPA	.+1		;IF TEST FAILS, CHANGE THIS INSTRUCTION (JUMPA .+1) TO
 31517									;JUMPA X (X IS THE ADDRESS OF THE FIRST INSTRUCTION
 31518									;IN THE SUBTEST) TO LOOP ON ERROR^
 31519	047667	255 01 0 00 047671 		JFOV	.+2		;PASS IF FOV IS RESET
 31520	047670	334 00 0 00 000000 		SKIPA
 31521						STOP^
 31522	047671	254 04 0 00 047672 		HALT	.+1		;TEST FAILED IF PROGRAM HALTS HERE
 31523	047672	324 00 0 00 047673 		JUMPA	.+1		;IF TEST FAILS, CHANGE THIS INSTRUCTION (JUMPA .+1) TO
 31524									;JUMPA X (X IS THE ADDRESS OF THE FIRST INSTRUCTION
 31525									;IN THE SUBTEST) TO LOOP ON ERROR^
 31526
 31527					;**********
 31528
 31529					;THIS TEST VERIFIES THAT AOJ SETS CRY0 AND CRY1 FLAG IF C(E) IS -1,,-1
 31530					;FIRST THE FLAGS ARE RESET; THEN
 31531					;AOJ IS EXECUTED.  THE FLAGS ARE CHECKED.
 31532					;IF CRY0 AND CRY1 ARE SET AND AROV AND FOV ARE RESET, THIS TEST PASSES.
 31533
 31534	047673	255 17 0 00 047674 	C16202:	JFCL	17,.+1		;RESET ARITHMETIC FLAGS
 31535	047674	474 00 0 00 000000 		SETO			;PRELOAD E WITH 1
 31536	047675	340 00 0 00 000000 		AOJ			;*AOJ SHOULD SET CRY0 AND CRY1
 31537	047676	255 04 0 00 047700 		JCRY0	.+2		;PASS IF CRY0 IS SET
 31538						STOP^
 31539	047677	254 04 0 00 047700 		HALT	.+1		;TEST FAILED IF PROGRAM HALTS HERE
 31540	047700	324 00 0 00 047701 		JUMPA	.+1		;IF TEST FAILS, CHANGE THIS INSTRUCTION (JUMPA .+1) TO
 31541									;JUMPA X (X IS THE ADDRESS OF THE FIRST INSTRUCTION
 31542									;IN THE SUBTEST) TO LOOP ON ERROR^
 31543	047701	255 02 0 00 047703 		JCRY1	.+2		;PASS IF CRY1 IS SET
 31544						STOP^
 31545	047702	254 04 0 00 047703 		HALT	.+1		;TEST FAILED IF PROGRAM HALTS HERE
 31546	047703	324 00 0 00 047704 		JUMPA	.+1		;IF TEST FAILS, CHANGE THIS INSTRUCTION (JUMPA .+1) TO
DFKAA PDP-10 KL10 BASIC INSTRUCTION DIAGNOSTIC (1) VER 0,2	MACRO %52(537) 09:34 31-JAN-77 PAGE 58-1
DFKAA4	MAC	25-AUG-75 13:58		TEST OF AOJ AND SOJ INSTRUCTIONS                                                   SEQ 0696

 31547									;JUMPA X (X IS THE ADDRESS OF THE FIRST INSTRUCTION
 31548									;IN THE SUBTEST) TO LOOP ON ERROR^
 31549	047704	255 10 0 00 047706 		JOV	.+2		;PASS IF AROV IS RESET
 31550	047705	334 00 0 00 000000 		SKIPA
 31551						STOP^
 31552	047706	254 04 0 00 047707 		HALT	.+1		;TEST FAILED IF PROGRAM HALTS HERE
 31553	047707	324 00 0 00 047710 		JUMPA	.+1		;IF TEST FAILS, CHANGE THIS INSTRUCTION (JUMPA .+1) TO
 31554									;JUMPA X (X IS THE ADDRESS OF THE FIRST INSTRUCTION
 31555									;IN THE SUBTEST) TO LOOP ON ERROR^
 31556	047710	255 01 0 00 047712 		JFOV	.+2		;PASS IF FOV IS RESET
 31557	047711	334 00 0 00 000000 		SKIPA
 31558						STOP^
 31559	047712	254 04 0 00 047713 		HALT	.+1		;TEST FAILED IF PROGRAM HALTS HERE
 31560	047713	324 00 0 00 047714 		JUMPA	.+1		;IF TEST FAILS, CHANGE THIS INSTRUCTION (JUMPA .+1) TO
 31561									;JUMPA X (X IS THE ADDRESS OF THE FIRST INSTRUCTION
 31562									;IN THE SUBTEST) TO LOOP ON ERROR^
 31563
 31564					;**********
DFKAA PDP-10 KL10 BASIC INSTRUCTION DIAGNOSTIC (1) VER 0,2	MACRO %52(537) 09:34 31-JAN-77 PAGE 59
DFKAA4	MAC	25-AUG-75 13:58		TEST OF MEMORY, BOTH AND SELF MODE INSTRUCTIONS                                    SEQ 0697

 31565					SUBTTL	TEST OF MEMORY, BOTH AND SELF MODE INSTRUCTIONS
 31566
 31567					;**********
 31568
 31569					;THIS TEST VERIFIES THAT ADDM DOES NOT MODIFY C(AC)
 31570					;BOTH AC AND E ARE PRELOADED WITH -1,,-1.  THEN ADDM IS EXECUTED.
 31571					;THIS TEST PASSES IF C(AC) ARE UNCHANGED
 31572
 31573	047714	477 00 0 00 000001 	C16400:	SETOB	1		;PRELOAD AC, E WITH -1,,-1
 31574	047715	272 00 0 00 000001 		ADDM	1		;*ADDM SHOULD NOT AFFECT C(AC)
 31575	047716	312 00 0 00 070254 		CAME	[-1]		;PASS IF C(AC) IS UNMODIFIED BY ADDM
 31576						STOP^
 31577	047717	254 04 0 00 047720 		HALT	.+1		;TEST FAILED IF PROGRAM HALTS HERE
 31578	047720	324 00 0 00 047721 		JUMPA	.+1		;IF TEST FAILS, CHANGE THIS INSTRUCTION (JUMPA .+1) TO
 31579									;JUMPA X (X IS THE ADDRESS OF THE FIRST INSTRUCTION
 31580									;IN THE SUBTEST) TO LOOP ON ERROR^
 31581
 31582					;**********
 31583
 31584					;THIS TEST VERIFIES THAT HRREM DOES NOT MODIFY C(AC)
 31585					;THE AC IS PRELOADED WITH 0,,-1.  THEN HRRM IS EXECUTED.
 31586					;THIS TEST PASSES IF C(AC) ARE UNCHANGED
 31587
 31588	047721	201 00 0 00 777777 	C16500:	MOVEI	-1		;PRELOAD AC WITH 0,,-1
 31589	047722	572 00 0 00 000001 		HRREM	1		;*HRRM SHOULD NOT AFFECT C(AC)
 31590	047723	302 00 0 00 777777 		CAIE	-1		;PASS IF C(AC) IS UNMODIFIED BY HRRM
 31591						STOP^
 31592	047724	254 04 0 00 047725 		HALT	.+1		;TEST FAILED IF PROGRAM HALTS HERE
 31593	047725	324 00 0 00 047726 		JUMPA	.+1		;IF TEST FAILS, CHANGE THIS INSTRUCTION (JUMPA .+1) TO
 31594									;JUMPA X (X IS THE ADDRESS OF THE FIRST INSTRUCTION
 31595									;IN THE SUBTEST) TO LOOP ON ERROR^
 31596
 31597					;**********
DFKAA PDP-10 KL10 BASIC INSTRUCTION DIAGNOSTIC (1) VER 0,2	MACRO %52(537) 09:34 31-JAN-77 PAGE 60
DFKAA4	MAC	25-AUG-75 13:58		TEST OF MEMORY, BOTH AND SELF MODE INSTRUCTIONS                                    SEQ 0698

 31598					;THIS TEST VERIFIES THAT MOVSM DOES NOT MODIFY C(AC)
 31599					;THE AC IS PRELOADED WITH 0,,-1.  THEN MOVSM IS EXECUTED.
 31600					;THIS TEST PASSES IF C(AC) ARE UNCHANGED
 31601
 31602	047726	201 00 0 00 777777 	C16600:	MOVEI	-1		;PRELOAD AC WITH 0,,-1
 31603	047727	206 00 0 00 000001 		MOVSM	1		;*MOVSM SHOULD NOT AFFECT C(AC)
 31604	047730	302 00 0 00 777777 		CAIE	-1		;PASS IF C(AC) IS UNMODIFIED BY MOVSM
 31605						STOP^
 31606	047731	254 04 0 00 047732 		HALT	.+1		;TEST FAILED IF PROGRAM HALTS HERE
 31607	047732	324 00 0 00 047733 		JUMPA	.+1		;IF TEST FAILS, CHANGE THIS INSTRUCTION (JUMPA .+1) TO
 31608									;JUMPA X (X IS THE ADDRESS OF THE FIRST INSTRUCTION
 31609									;IN THE SUBTEST) TO LOOP ON ERROR^
 31610
 31611					;**********
 31612
 31613					;THIS TEST VERIFIES THAT XORM DOES NOT MODIFY C(AC)
 31614					;BOTH AC AND E ARE PRELOADED WITH -1,,-1.  THEN XORM IS EXECUTED.
 31615					;THIS TEST PASSES IF C(AC) ARE UNCHANGED
 31616
 31617	047733	477 00 0 00 000001 	C16700:	SETOB	1		;PRELOAD AC, E WITH -1,,-1
 31618	047734	432 00 0 00 000001 		XORM	1		;*XORM SHOULD NOT AFFECT C(AC)
 31619	047735	312 00 0 00 070254 		CAME	[-1]		;PASS IF C(AC) IS UNMODIFIED BY XORM
 31620						STOP^
 31621	047736	254 04 0 00 047737 		HALT	.+1		;TEST FAILED IF PROGRAM HALTS HERE
 31622	047737	324 00 0 00 047740 		JUMPA	.+1		;IF TEST FAILS, CHANGE THIS INSTRUCTION (JUMPA .+1) TO
 31623									;JUMPA X (X IS THE ADDRESS OF THE FIRST INSTRUCTION
 31624									;IN THE SUBTEST) TO LOOP ON ERROR^
 31625
 31626					;**********
DFKAA PDP-10 KL10 BASIC INSTRUCTION DIAGNOSTIC (1) VER 0,2	MACRO %52(537) 09:34 31-JAN-77 PAGE 61
DFKAA4	MAC	25-AUG-75 13:58		TEST OF MEMORY, BOTH AND SELF MODE INSTRUCTIONS                                    SEQ 0699

 31627					;THIS TEST VERIFIES THAT ADDB ADDS C(AC) TO C(E) AND PLACES THE
 31628					;RESULT IN BOTH AC AND E.  IN THIS TEST, BOTH AC AND E ARE PRELOADED
 31629					;WITH -1,,-1, THEN, ADDB IS EXECUTED.  C(AC) IS THEN COMPARED TO C(E);
 31630					;AND C(AC) IS THEN COMPARED TO -2.  IF BOTH OF THESE COMPARISONS SUCCEED, THIS
 31631					;TEST PASSES; OTHERWISE, ADDB FAILED
 31632
 31633	047740	477 00 0 00 000001 	C17000:	SETOB	1		;PRELOAD AC, E WITH -1,,-1
 31634	047741	273 00 0 00 000001 		ADDB	1		;*ADDB SHOULD ADD C(AC) TO C(E) AND PLACE RESULT
 31635									;INTO BOTH AC AND E
 31636	047742	312 00 0 00 000001 		CAME	1		;PASS IF C(AC)=C(E)
 31637						STOP^
 31638	047743	254 04 0 00 047744 		HALT	.+1		;TEST FAILED IF PROGRAM HALTS HERE
 31639	047744	324 00 0 00 047745 		JUMPA	.+1		;IF TEST FAILS, CHANGE THIS INSTRUCTION (JUMPA .+1) TO
 31640									;JUMPA X (X IS THE ADDRESS OF THE FIRST INSTRUCTION
 31641									;IN THE SUBTEST) TO LOOP ON ERROR^
 31642	047745	312 00 0 00 070333 		CAME	[-2]		;PASS IF C(AC)=-2
 31643						STOP^
 31644	047746	254 04 0 00 047747 		HALT	.+1		;TEST FAILED IF PROGRAM HALTS HERE
 31645	047747	324 00 0 00 047750 		JUMPA	.+1		;IF TEST FAILS, CHANGE THIS INSTRUCTION (JUMPA .+1) TO
 31646									;JUMPA X (X IS THE ADDRESS OF THE FIRST INSTRUCTION
 31647									;IN THE SUBTEST) TO LOOP ON ERROR^
 31648
 31649					;**********
 31650
 31651					;THIS TEST VERIFIES THAT ADDM ADDS C(AC) TO C(E) AND PLACES THE RESULT IN E
 31652					;IN THIS CASE, AC, E ARE BOTH PRELOADED WITH -1; THEN, ADDM IS EXECUTED.
 31653					;E IS THEN CHECKED FOR -2.  IF C(E)=-2, THIS TEST PASSES; OTHERWISE, ADDM FAILED
 31654
 31655	047750	477 00 0 00 000001 	C17100:	SETOB	1		;PRELOAD AC, E WITH -1,,-1
 31656	047751	272 00 0 00 000001 		ADDM	1		;*ADDM SHOULD ADD C(AC) TO C(E)
 31657	047752	312 01 0 00 070333 		CAME	1,[-2]		;PASS IF C(E)=-2
 31658						STOP^
 31659	047753	254 04 0 00 047754 		HALT	.+1		;TEST FAILED IF PROGRAM HALTS HERE
 31660	047754	324 00 0 00 047755 		JUMPA	.+1		;IF TEST FAILS, CHANGE THIS INSTRUCTION (JUMPA .+1) TO
 31661									;JUMPA X (X IS THE ADDRESS OF THE FIRST INSTRUCTION
 31662									;IN THE SUBTEST) TO LOOP ON ERROR^
 31663
 31664					;**********
DFKAA PDP-10 KL10 BASIC INSTRUCTION DIAGNOSTIC (1) VER 0,2	MACRO %52(537) 09:34 31-JAN-77 PAGE 62
DFKAA4	MAC	25-AUG-75 13:58		TEST OF MEMORY, BOTH AND SELF MODE INSTRUCTIONS                                    SEQ 0700

 31665					;THIS TEST VERIFIES THAT HLLOS PLACES ONES ON THE RIGHT HALF OF E
 31666					;BUT DOES NOT AFFECT THE LEFT HALF OF E.  IN THIS CASE,
 31667					;E IS PRELOADED WITH 0; THE, HLLOS IS EXECUTED.  THE RESULT
 31668					;IN E SHOULD BE 0,,-1.  IF C(E)=0,,-1, THIS TEST PASSES
 31669
 31670	047755	402 00 0 00 000001 	C17200:	SETZM	1		;PRELOAD E WITH 0
 31671	047756	523 00 0 00 000001 		HLLOS	1		;*HLLOS SHOULD PLACE 0,,-1 INTO E
 31672	047757	302 01 0 00 777777 		CAIE	1,-1		;PASS IF C(E)=0,,-1
 31673						STOP^
 31674	047760	254 04 0 00 047761 		HALT	.+1		;TEST FAILED IF PROGRAM HALTS HERE
 31675	047761	324 00 0 00 047762 		JUMPA	.+1		;IF TEST FAILS, CHANGE THIS INSTRUCTION (JUMPA .+1) TO
 31676									;JUMPA X (X IS THE ADDRESS OF THE FIRST INSTRUCTION
 31677									;IN THE SUBTEST) TO LOOP ON ERROR^
 31678
 31679					;**********
 31680
 31681					;THIS TEST VERIFIES THAT MOVSS SWAPS BOTHS HALVES OF E AND
 31682					;PLACES THE RESULT IN E.  IN THIS CASE, E IS PRELOADED WITH
 31683					;-1,,0; THEN, MOVSS IS EXECUTED.  THE RESULT IN E SHOULD BE 0,,-1.
 31684					;IF C(E)=0,,-1, THIS TEST PASSES
 31685
 31686	047762	205 01 0 00 777777 	C17300:	MOVSI	1,-1		;PRELOAD E WITH -1,,0
 31687	047763	207 00 0 00 000001 		MOVSS	1		;*MOVSS SHOULD PLACE 0,,-1 INTO E
 31688	047764	302 01 0 00 777777 		CAIE	1,-1		;PASS IF C(E)=0,,-1
 31689						STOP^
 31690	047765	254 04 0 00 047766 		HALT	.+1		;TEST FAILED IF PROGRAM HALTS HERE
 31691	047766	324 00 0 00 047767 		JUMPA	.+1		;IF TEST FAILS, CHANGE THIS INSTRUCTION (JUMPA .+1) TO
 31692									;JUMPA X (X IS THE ADDRESS OF THE FIRST INSTRUCTION
 31693									;IN THE SUBTEST) TO LOOP ON ERROR^
 31694
 31695					;**********
DFKAA PDP-10 KL10 BASIC INSTRUCTION DIAGNOSTIC (1) VER 0,2	MACRO %52(537) 09:34 31-JAN-77 PAGE 63
DFKAA4	MAC	25-AUG-75 13:58		TEST OF MEMORY, BOTH AND SELF MODE INSTRUCTIONS                                    SEQ 0701

 31696					;THIS TEST VERIFIES THAT AOS ADDS ONE TO MEMORY BUT DOES NOT SKIP
 31697					;FIRST, E IS PRELOADED WITH -1,-1; THEN, AOS IS EXECUTED.  NEXT, E IS CHECKED FOR 0.
 31698					;IF C(E) IS NOT 0 OR AOS SKIPPED, THIS TEST FAILS
 31699
 31700	047767	477 00 0 00 000001 	C17400:	SETOB	1		;PRELOAD E WITH -1,,-1
 31701	047770	350 00 0 00 000001 		AOS	1		;*AOS SHOULD ADD TO C(E) AND NOT SKIP
 31702	047771	302 01 0 00 000000 		CAIE	1,0		;PASS IF C(E)=0,,0 AND AOS DID NOT SKIP
 31703						STOP^
 31704	047772	254 04 0 00 047773 		HALT	.+1		;TEST FAILED IF PROGRAM HALTS HERE
 31705	047773	324 00 0 00 047774 		JUMPA	.+1		;IF TEST FAILS, CHANGE THIS INSTRUCTION (JUMPA .+1) TO
 31706									;JUMPA X (X IS THE ADDRESS OF THE FIRST INSTRUCTION
 31707									;IN THE SUBTEST) TO LOOP ON ERROR^
 31708
 31709					;**********
 31710
 31711					;THIS TEST VERIFIES THAT HRLM PLACES C(AC-RIGHT) INTO E-LEFT AND DOES
 31712					;NOT MODIFY E-RIGHT.  IN THIS CASE, AC IS PRELOADED WITH 0 AND E IS PRELOADED
 31713					;WITH -1,,-1.  THEN, HRLM IS EXECUTED.  E IS THEN CHECKED FOR 0,,-1.  IF
 31714					;C(E)=0,,-1, THIS TEST PASSES
 31715
 31716	047774	400 00 0 00 000000 	C17500:	SETZ			;PRELOAD AC WITH 0
 31717	047775	474 01 0 00 000000 		SETO	1,		;PRELOAD E WITH -1,,-1
 31718	047776	506 00 0 00 000001 		HRLM	1		;*HRLM SHOULD PLACE 0,,-1 INTO E
 31719	047777	302 01 0 00 777777 		CAIE	1,-1		;PASS IF C(E)=0,,-1
 31720						STOP^
 31721	050000	254 04 0 00 050001 		HALT	.+1		;TEST FAILED IF PROGRAM HALTS HERE
 31722	050001	324 00 0 00 050002 		JUMPA	.+1		;IF TEST FAILS, CHANGE THIS INSTRUCTION (JUMPA .+1) TO
 31723									;JUMPA X (X IS THE ADDRESS OF THE FIRST INSTRUCTION
 31724									;IN THE SUBTEST) TO LOOP ON ERROR^
 31725
 31726					;**********
DFKAA PDP-10 KL10 BASIC INSTRUCTION DIAGNOSTIC (1) VER 0,2	MACRO %52(537) 09:34 31-JAN-77 PAGE 64
DFKAA4	MAC	25-AUG-75 13:58		TEST OF MEMORY, BOTH AND SELF MODE INSTRUCTIONS                                    SEQ 0702

 31727					;THIS TEST VERIFIES THAT HRRS DOES NOT MODIFY E
 31728					;E IS PRELOADED WITH 0 AND AC IS PRELOADED WITH -1,,-1.
 31729					;HRRS IS EXECUTED; THEN E IS CHECKED.  IF C(E) DOES
 31730					;NOT CHANGE, THIS TEST PASSES
 31731
 31732	050002	474 00 0 00 000000 	C17600:	SETO			;PRELOAD AC WITH -1,,-1
 31733	050003	400 01 0 00 000000 		SETZ	1,		;PRELOAD E WITH 0,,0
 31734	050004	543 00 0 00 000001 		HRRS	1		;*HRRS SHOULD PLACE 0,,0 INTO E
 31735	050005	332 00 0 00 000001 		SKIPE	1
 31736						STOP^
 31737	050006	254 04 0 00 050007 		HALT	.+1		;TEST FAILED IF PROGRAM HALTS HERE
 31738	050007	324 00 0 00 050010 		JUMPA	.+1		;IF TEST FAILS, CHANGE THIS INSTRUCTION (JUMPA .+1) TO
 31739									;JUMPA X (X IS THE ADDRESS OF THE FIRST INSTRUCTION
 31740									;IN THE SUBTEST) TO LOOP ON ERROR^
 31741
 31742					;**********
 31743
 31744					;THIS TEST VERIFIES THAT HRRZM PLACES C(AC-RIGHT) INTO E-RIGHT AND PLACES
 31745					;ZEROS INTO E-LEFT.  IN THIS CASE, AC=E=AC1 AND C(AC)=C(E)=-1,,0.  HRRZM
 31746					;IS EXECUTED AND AC1 IS CHECKED FOR 0.  IF AC1=0, THIS TEST PASSES.
 31747
 31748	050010	474 00 0 00 000000 	C17700:	SETO			;PRELOAD AC0 WITH -1,,-1
 31749	050011	205 01 0 00 777777 		MOVSI	1,-1		;PRELOAD AC1 WITH -1,,0
 31750	050012	552 01 0 00 000001 		HRRZM	1,1		;*HRRZM SHOULD PLACE 0 INTO AC1
 31751	050013	332 00 0 00 000001 		SKIPE	1		;PASS IF C(AC1)=0
 31752						STOP^
 31753	050014	254 04 0 00 050015 		HALT	.+1		;TEST FAILED IF PROGRAM HALTS HERE
 31754	050015	324 00 0 00 050016 		JUMPA	.+1		;IF TEST FAILS, CHANGE THIS INSTRUCTION (JUMPA .+1) TO
 31755									;JUMPA X (X IS THE ADDRESS OF THE FIRST INSTRUCTION
 31756									;IN THE SUBTEST) TO LOOP ON ERROR^
 31757
 31758					;**********
DFKAA PDP-10 KL10 BASIC INSTRUCTION DIAGNOSTIC (1) VER 0,2	MACRO %52(537) 09:34 31-JAN-77 PAGE 65
DFKAA4	MAC	25-AUG-75 13:58		TEST OF MEMORY, BOTH AND SELF MODE INSTRUCTIONS                                    SEQ 0703

 31759					;THIS TEST VERIFIES THAT JFCL 17,.+1 NEVER JUMPS AND DOES NOT MODIFY C(AC0).
 31760					;FIRST, AC0 IS PRELOADED; THEN, JFCL IS EXECUTED.  IF AC0 IS MODIFIED
 31761					;OR JFCL SKIPS, THIS TEST FAILS
 31762
 31763	050016	400 00 0 00 000000 	C20000:	SETZ			;CLEAR AC0
 31764	050017	255 17 0 00 050020 		JFCL	17,.+1		;*JFCL SHOULD NOT JUMP OR MODIFY C(AC0).
 31765	050020	332 00 0 00 000000 		SKIPE			;PASS IF C(AC0)=0 AND JFCL DID NOT JUMP
 31766						STOP^
 31767	050021	254 04 0 00 050022 		HALT	.+1		;TEST FAILED IF PROGRAM HALTS HERE
 31768	050022	324 00 0 00 050023 		JUMPA	.+1		;IF TEST FAILS, CHANGE THIS INSTRUCTION (JUMPA .+1) TO
 31769									;JUMPA X (X IS THE ADDRESS OF THE FIRST INSTRUCTION
 31770									;IN THE SUBTEST) TO LOOP ON ERROR^
 31771
 31772					;**********
 31773
 31774					;THIS TEST VERIFIES THAT XORM PERFORMS THE LOGICAL EXCLUSIVE OR FUNCTION
 31775					;BETWEEN C(AC) AND C(E) AND PLACES THE RESULT INTO E
 31776					;IN THIS CASE, AC AND E ARE PRELOADED WITH -1,,-1; THEN, XORM IS
 31777					;EXECUTED.  IF THE RESULT IN E IS 0, THE TEST PASSES
 31778
 31779	050023	477 00 0 00 000001 	C20100:	SETOB	1		;PRELOAD AC,E WITH -1,,-1
 31780	050024	432 00 0 00 000001 		XORM	1		;*XORM SHOULD PLACE 0 INTO E
 31781	050025	302 01 0 00 000000 		CAIE	1,0		;PASS IF C(E)=0
 31782						STOP^
 31783	050026	254 04 0 00 050027 		HALT	.+1		;TEST FAILED IF PROGRAM HALTS HERE
 31784	050027	324 00 0 00 050030 		JUMPA	.+1		;IF TEST FAILS, CHANGE THIS INSTRUCTION (JUMPA .+1) TO
 31785									;JUMPA X (X IS THE ADDRESS OF THE FIRST INSTRUCTION
 31786									;IN THE SUBTEST) TO LOOP ON ERROR^
 31787
 31788					;**********
DFKAA PDP-10 KL10 BASIC INSTRUCTION DIAGNOSTIC (1) VER 0,2	MACRO %52(537) 09:34 31-JAN-77 PAGE 66
DFKAA4	MAC	25-AUG-75 13:58		TEST OF MEMORY, BOTH AND SELF MODE INSTRUCTIONS                                    SEQ 0704

 31789					;THIS TEST VERIFIES THAT SETZB PLACES ZEROS INTO BOTH AC AND E.
 31790					;AFTER SETZB IS EXECUTED, BOTH AC AND E ARE CHECKED
 31791					;FOR 0.  IF EITHER AC OR E CONTAINS ANY ONES, THIS TEST FAILS
 31792
 31793	050030	403 00 0 00 000001 	C20200:	SETZB	1		;*SETZB SHOULD PLACE ZEROES IN BOTH AC AND E
 31794	050031	316 00 0 00 070253 		CAMN	[0]		;FAIL IF C(AC) IS NON-ZERO
 31795	050032	312 00 0 00 000001 		CAME	1		;FAIL IF C(E) IS NON-ZERO
 31796						STOP^
 31797	050033	254 04 0 00 050034 		HALT	.+1		;TEST FAILED IF PROGRAM HALTS HERE
 31798	050034	324 00 0 00 050035 		JUMPA	.+1		;IF TEST FAILS, CHANGE THIS INSTRUCTION (JUMPA .+1) TO
 31799									;JUMPA X (X IS THE ADDRESS OF THE FIRST INSTRUCTION
 31800									;IN THE SUBTEST) TO LOOP ON ERROR^
 31801
 31802					;**********
 31803
 31804					;THIS TEST VERIFIES THAT SETAB PLACES C(AC) INTO BOTH AC AND E.
 31805					;FIRST, AC IS PRELOADED WITH -1,,-1 AND E IS PRELOADED WITH 0;
 31806					;THEN, SETAB IS EXECUTED.  BOTH AC AND E ARE CHECKED FOR -1,,-1
 31807					;IF EITHER AC OR E CONTAIN ANY ZEROS, THIS TEST FAILS.
 31808
 31809	050035	400 01 0 00 000000 	C20300:	SETZ	1,		;PRELOAD E WITH 0
 31810	050036	474 00 0 00 000000 		SETO			;PRELOAD AC WITH -1,,-1
 31811	050037	427 00 0 00 000001 		SETAB	1		;*SETAB SHOULD PLACE -1,,-1 INTO BOTH AC AND E
 31812	050040	316 00 0 00 070254 		CAMN	[-1]		;FAIL IF C(AC) IS NOT -1,-1
 31813	050041	312 00 0 00 000001 		CAME	1		;FAIL IF C(E) IS NOT -1,,-1
 31814						STOP^
 31815	050042	254 04 0 00 050043 		HALT	.+1		;TEST FAILED IF PROGRAM HALTS HERE
 31816	050043	324 00 0 00 050044 		JUMPA	.+1		;IF TEST FAILS, CHANGE THIS INSTRUCTION (JUMPA .+1) TO
 31817									;JUMPA X (X IS THE ADDRESS OF THE FIRST INSTRUCTION
 31818									;IN THE SUBTEST) TO LOOP ON ERROR^
 31819
 31820					;**********
DFKAA PDP-10 KL10 BASIC INSTRUCTION DIAGNOSTIC (1) VER 0,2	MACRO %52(537) 09:34 31-JAN-77 PAGE 67
DFKAA4	MAC	25-AUG-75 13:58		XCT INSTRUCTION - BASIC TESTS                                                      SEQ 0705

 31821					SUBTTL	XCT INSTRUCTION - BASIC TESTS
 31822
 31823					;**********
 31824
 31825					;THIS TEST VERIFIES THAT XCT WILL EXECUTE THE INSTRUCTION SPECIFIED BY C(E)
 31826					;IN THIS CASE, C(E) SPECIFIES A MOVEI INSTRUCTION
 31827					;AFTER EXECUTING MOVEI, CONTROL SHOULD RETURN TO
 31828					;THE NEXT SEQUENTIAL INSTRUCTION FOLLOWING XCT.
 31829					;THIS TEST PASSES IF CONTROL RETURNS TO THE NEXT SEQUENTIAL INSTRUCTION FOLLOWING XCT
 31830
 31831	050044	403 00 0 00 000001 	C20400:	SETZB	1		;CLEAR AC0 AND AC1
 31832	050045	256 00 0 00 070616 		XCT	[MOVEI 1,.+2]	;*XCT SHOULD RETURN CONTROL TO NEXT INSTRUCTION
 31833	050046	334 00 0 00 000000 		SKIPA
 31834						STOP^
 31835	050047	254 04 0 00 050050 		HALT	.+1		;TEST FAILED IF PROGRAM HALTS HERE
 31836	050050	324 00 0 00 050051 		JUMPA	.+1		;IF TEST FAILS, CHANGE THIS INSTRUCTION (JUMPA .+1) TO
 31837									;JUMPA X (X IS THE ADDRESS OF THE FIRST INSTRUCTION
 31838									;IN THE SUBTEST) TO LOOP ON ERROR^
 31839
 31840					;**********
 31841
 31842					;THIS TEST VERIFIES THAT XCT WILL EXECUTE THE INSTRUCTION SPECIFIED BY C(E)
 31843					;IN THIS CASE, C(E) SPECIFIES A MOVEI INSTRUCTION.
 31844					;AFTER EXECUTING MOVEI, THE AC SPECIFIED BY MOVEI IS CHECKED FOR
 31845					;0,,1 (THE EXPECTED RESULT).  IF C(AC)=0,,1, THIS TEST PASSES
 31846
 31847	050051	403 00 0 00 000001 	C20500:	SETZB	1		;CLEAR AC
 31848	050052	256 00 0 00 070617 		XCT	[MOVEI 1,1]	;*XCT OF MOVEI SHOULD PLACE 1 IN THE AC
 31849	050053	302 01 0 00 000001 		CAIE	1,1		;PASS IF C(AC)=1
 31850						STOP^
 31851	050054	254 04 0 00 050055 		HALT	.+1		;TEST FAILED IF PROGRAM HALTS HERE
 31852	050055	324 00 0 00 050056 		JUMPA	.+1		;IF TEST FAILS, CHANGE THIS INSTRUCTION (JUMPA .+1) TO
 31853									;JUMPA X (X IS THE ADDRESS OF THE FIRST INSTRUCTION
 31854									;IN THE SUBTEST) TO LOOP ON ERROR^
 31855
 31856					;**********
DFKAA PDP-10 KL10 BASIC INSTRUCTION DIAGNOSTIC (1) VER 0,2	MACRO %52(537) 09:34 31-JAN-77 PAGE 68
DFKAA4	MAC	25-AUG-75 13:58		XCT INSTRUCTION - BASIC TESTS                                                      SEQ 0706

 31857					;THIS TEST VERIFIES THAT A NEST OF XCT INSTRUCTIONS WILL EXECUTE
 31858					;THE INSTRUCTION SPECIFIED BY THE MOST NESTED XCT AND RETURN CONTROL TO
 31859					;THE NEXT SEQUENTIAL INSTRUCTION FOLLOWING THE FIRST XCT.
 31860					;IN THIS CASE, THE EXECUTED INSTRUCTION IS MOVEI.  AFTER EXECUTING THE MOVEI,
 31861					;C(AC) IS CHECKED FOR 0,,-1 (THE EXPECTED RESULT).  IF C(AC)=0,,-1, THIS TEST PASSES
 31862
 31863	050056	403 00 0 00 000001 	C20600:	SETZB	1		;CLEAR AC
 31864	050057	256 00 0 00 070624 		XCT	[XCT[XCT[XCT[XCT[MOVEI 1,-1]]]]] ;*NESTED XCT OF MOVEI
 31865									;SHOULD PLACE 0,,-1 INTO AC
 31866	050060	302 01 0 00 777777 		CAIE	1,-1		;PASS IF C(AC)=0,,-1
 31867						STOP^
 31868	050061	254 04 0 00 050062 		HALT	.+1		;TEST FAILED IF PROGRAM HALTS HERE
 31869	050062	324 00 0 00 050063 		JUMPA	.+1		;IF TEST FAILS, CHANGE THIS INSTRUCTION (JUMPA .+1) TO
 31870									;JUMPA X (X IS THE ADDRESS OF THE FIRST INSTRUCTION
 31871									;IN THE SUBTEST) TO LOOP ON ERROR^
 31872
 31873					;**********
 31874
 31875					;THIS TEST VERIFIES THAT XCT WILL NOT MODIFY AN AC WHICH IS NOT SPECIFIED BY THE
 31876					;EXECUTED INSTRUCTION.  IN THIS CASE, AC0 IS CLEARED AND THEN CHECKED FOR ZERO AFTER
 31877					;THE XCT INSTRUCTION IS EXECUTED.  AC0 SHOULD NOT BE MODIFIED.
 31878
 31879	050063	403 00 0 00 000001 	C20700:	SETZB	1		;CLEAR AC0,AC1
 31880	050064	256 00 0 00 070625 		XCT	[MOVE 1,[-1]]	;*XCT SHOULD NOT MODIFY AC0
 31881	050065	332 00 0 00 000000 		SKIPE			;PASS IF AC0 WAS NOT MODIFIED
 31882						STOP^
 31883	050066	254 04 0 00 050067 		HALT	.+1		;TEST FAILED IF PROGRAM HALTS HERE
 31884	050067	324 00 0 00 050070 		JUMPA	.+1		;IF TEST FAILS, CHANGE THIS INSTRUCTION (JUMPA .+1) TO
 31885									;JUMPA X (X IS THE ADDRESS OF THE FIRST INSTRUCTION
 31886									;IN THE SUBTEST) TO LOOP ON ERROR^
 31887
 31888					;**********
DFKAA PDP-10 KL10 BASIC INSTRUCTION DIAGNOSTIC (1) VER 0,2	MACRO %52(537) 09:34 31-JAN-77 PAGE 69
DFKAA4	MAC	25-AUG-75 13:58		XCT INSTRUCTION - BASIC TESTS                                                      SEQ 0707

 31889					;THIS TEST VERIFIES THAT XCT OF SKIPA SHOULD RETURN CONTROL TO THE
 31890					;SECOND SEQUENTIAL INSTRUCTION FOLLOWING XCT
 31891
 31892	050070	256 00 0 00 070626 	C21000:	XCT	[SKIPA]		;XCT OF SKIPA SHOULD RETURN CONTROL TO .+2
 31893						STOP^
 31894	050071	254 04 0 00 050072 		HALT	.+1		;TEST FAILED IF PROGRAM HALTS HERE
 31895	050072	324 00 0 00 050073 		JUMPA	.+1		;IF TEST FAILS, CHANGE THIS INSTRUCTION (JUMPA .+1) TO
 31896									;JUMPA X (X IS THE ADDRESS OF THE FIRST INSTRUCTION
 31897									;IN THE SUBTEST) TO LOOP ON ERROR^
 31898
 31899					;**********
DFKAA PDP-10 KL10 BASIC INSTRUCTION DIAGNOSTIC (1) VER 0,2	MACRO %52(537) 09:34 31-JAN-77 PAGE 70
DFKAA4	MAC	25-AUG-75 13:58		INDIRECT ADDRESSING - BASIC TESTS                                                  SEQ 0708

 31900					SUBTTL	INDIRECT ADDRESSING - BASIC TESTS
 31901
 31902					;**********
 31903
 31904					;THIS TEST VERIFIES THAT INDIRECT ADDRESSING WORKS WHEN BOTH E AND @E
 31905					;ARE WITHIN THE AC RANGE.
 31906					;THE INSTRUCTION SPECIFYING INDIRECT ADDRESSING IS A MOVE.
 31907					;AFTER MOVE IS EXECUTED, C(AC) IS CHECKED FOR 0,
 31908					;THE INITIAL CONTENTS OF THE INDIRECT ADDRESS
 31909
 31910	050073	476 00 0 00 000001 	C21100:	SETOM	1		;PRELOAD AC WITH -1,,-1
 31911	050074	201 07 0 00 000003 		MOVEI	7,3		;SETUP DIRECT ADDRESS WITH INDIRECT ADDRESS
 31912	050075	402 00 0 00 000003 		SETZM	3		;PRELOAD INDIRECT ADDRESS WITH 0
 31913	050076	200 01 1 00 000007 		MOVE	1,@7		;*FWT FROM INDIRECT ADDRESSS SHOULD
 31914									;PLACE 0 INTO THE AC
 31915	050077	332 00 0 00 000001 		SKIPE	1		;PASS IF C(AC)=0
 31916						STOP^
 31917	050100	254 04 0 00 050101 		HALT	.+1		;TEST FAILED IF PROGRAM HALTS HERE
 31918	050101	324 00 0 00 050102 		JUMPA	.+1		;IF TEST FAILS, CHANGE THIS INSTRUCTION (JUMPA .+1) TO
 31919									;JUMPA X (X IS THE ADDRESS OF THE FIRST INSTRUCTION
 31920									;IN THE SUBTEST) TO LOOP ON ERROR^
 31921
 31922					;**********
 31923
 31924					;THIS TEST VERIFIES THAT INDIRECT ADDRESSING WORKS WHEN BOTH E AND @E
 31925					;ARE WITHIN THE AC RANGE.
 31926					;THE INSTRUCTION SPECIFYING INDIRECT ADDRESSING IS A MOVE.
 31927					;AFTER MOVE IS EXECUTED, C(AC) IS CHECKED FOR -1,,-1,
 31928					;THE INITIAL CONTENTS OF THE INDIRECT ADDRESS
 31929
 31930	050102	402 00 0 00 000001 	C21200:	SETZM	1		;PRELOAD AC WITH -1,,-1
 31931	050103	201 07 0 00 000003 		MOVEI	7,3		;SETUP DIRECT ADDRESS WITH INDIRECT ADDRESS
 31932	050104	476 00 0 00 000003 		SETOM	3		;PRELOAD INDIRECT ADDRESS WITH -1,,-1
 31933	050105	200 01 1 00 000007 		MOVE	1,@7		;*FWT FROM INDIRECT ADDRESS SHOULD
 31934									;PLACE -1,,-1 INTO THE AC
 31935	050106	312 01 0 00 070254 		CAME	1,[-1,,-1]	;PASS IF C(AC)=-1,,-1
 31936						STOP^
 31937	050107	254 04 0 00 050110 		HALT	.+1		;TEST FAILED IF PROGRAM HALTS HERE
 31938	050110	324 00 0 00 050111 		JUMPA	.+1		;IF TEST FAILS, CHANGE THIS INSTRUCTION (JUMPA .+1) TO
 31939									;JUMPA X (X IS THE ADDRESS OF THE FIRST INSTRUCTION
 31940									;IN THE SUBTEST) TO LOOP ON ERROR^
 31941
 31942					;**********
DFKAA PDP-10 KL10 BASIC INSTRUCTION DIAGNOSTIC (1) VER 0,2	MACRO %52(537) 09:34 31-JAN-77 PAGE 71
DFKAA4	MAC	25-AUG-75 13:58		INDIRECT ADDRESSING - BASIC TESTS                                                  SEQ 0709

 31943					;THIS TEST VERIFIES THAT INDIRECT ADDRESSING WORKS WHEN BOTH E AND @E
 31944					;ARE WITHIN THE AC RANGE.
 31945					;THE INSTRUCTION SPECIFYING INDIRECT ADDRESSING IS A MOVE.
 31946					;AFTER MOVE IS EXECUTED, C(AC) IS CHECKED FOR 707070,,707070,
 31947					;THE INITIAL CONTENTS OF THE INDIRECT ADDRESS
 31948
 31949	050111	402 00 0 00 000001 	C21300:	SETZM	1		;PRELOAD AC WITH 0
 31950	050112	201 07 0 00 000003 		MOVEI	7,3		;SETUP DIRECT ADDRESS WITH INDIRECT ADDRESS
 31951	050113	200 03 0 00 070332 		MOVE	3,[707070,,707070] ;PRELOAD INDIRECT ADDRESS WITH 707070,,707070
 31952	050114	200 01 1 00 000007 		MOVE	1,@7		;*FWT FROM INDIRECT ADDRESS SHOULD
 31953									;PLACE 707070,,707070 INTO THE AC
 31954	050115	312 01 0 00 070332 		CAME	1,[707070,,707070]	;PASS IF C(AC)=707070,,707070
 31955						STOP^
 31956	050116	254 04 0 00 050117 		HALT	.+1		;TEST FAILED IF PROGRAM HALTS HERE
 31957	050117	324 00 0 00 050120 		JUMPA	.+1		;IF TEST FAILS, CHANGE THIS INSTRUCTION (JUMPA .+1) TO
 31958									;JUMPA X (X IS THE ADDRESS OF THE FIRST INSTRUCTION
 31959									;IN THE SUBTEST) TO LOOP ON ERROR^
 31960
 31961					;**********
 31962
 31963					;THIS TEST VERIFIES THAT INDIRECT ADDRESSING WORKS WHEN E IS WITHIN THE AC RANGE
 31964					;AND @E IS BEYOND THE AC RANGE.
 31965					;THE INSTRUCTION SPECIFYING INDIRECT ADDRESSING IS A MOVE.
 31966					;AFTER MOVE IS EXECUTED, C(AC) IS CHECKED FOR 707070,,707070,
 31967					;THE INITIAL CONTENTS OF THE INDIRECT ADDRESS
 31968
 31969	050120	254 00 0 00 050122 	C21400:	JRST	.+2
 31970	050121	707070	707070			XWD	707070,707070	;INDIRECT ADDRESS AND ITS DATA
 31971	050122	402 00 0 00 000001 		SETZM	1		;PRELOAD AC WITH 0
 31972	050123	201 07 0 00 050121 		MOVEI	7,C21400+1	;SETUP DIRECT ADDRESS WITH INDIRECT ADDRESS
 31973	050124	200 01 1 00 000007 		MOVE	1,@7		;*FWT FROM INDIRECT ADDRESS SHOULD
 31974									;PLACE 707070,,707070 INTO AC
 31975	050125	312 01 0 00 050121 		CAME	1,C21400+1	;PASS IF C(AC)=707070,,707070
 31976						STOP^
 31977	050126	254 04 0 00 050127 		HALT	.+1		;TEST FAILED IF PROGRAM HALTS HERE
 31978	050127	324 00 0 00 050130 		JUMPA	.+1		;IF TEST FAILS, CHANGE THIS INSTRUCTION (JUMPA .+1) TO
 31979									;JUMPA X (X IS THE ADDRESS OF THE FIRST INSTRUCTION
 31980									;IN THE SUBTEST) TO LOOP ON ERROR^
 31981
 31982					;**********
DFKAA PDP-10 KL10 BASIC INSTRUCTION DIAGNOSTIC (1) VER 0,2	MACRO %52(537) 09:34 31-JAN-77 PAGE 72
DFKAA4	MAC	25-AUG-75 13:58		INDIRECT ADDRESSING - BASIC TESTS                                                  SEQ 0710

 31983					;THIS TEST VERIFIES THAT INDIRECT ADDRESSING WORKS WHEN BOTH E AND @E
 31984					;ARE BEYOND THE AC RANGE.
 31985					;THE INSTRUCTION SPECIFYING INDIRECT ADDRESSING IS A MOVE.
 31986					;AFTER MOVE IS EXECUTED, C(AC) IS CHECKED FOR 202020,,202020,
 31987					;THE INITIAL CONTENTS OF THE INDIRECT ADDRESS
 31988
 31989	050130	254 00 0 00 050133 	C21500:	JRST	.+3
 31990	050131	000000	050132				.+1		;DIRECT ADDRESS AND ITS DATA
 31991	050132	202020	202020			XWD	202020,202020	;INDIRECT ADDRESS AND ITS DATA
 31992	050133	402 00 0 00 000001 		SETZM	1		;PRELOAD AC WITH 0
 31993	050134	200 01 1 00 050131 		MOVE	1,@C21500+1	;*FWT FROM INDIRECT ADDRESS SHOULD
 31994									;PLACE 202020,,202020 INTO AC
 31995	050135	312 01 0 00 050132 		CAME	1,C21500+2	;PASS IF C(AC)=202020,,202020
 31996						STOP^
 31997	050136	254 04 0 00 050137 		HALT	.+1		;TEST FAILED IF PROGRAM HALTS HERE
 31998	050137	324 00 0 00 050140 		JUMPA	.+1		;IF TEST FAILS, CHANGE THIS INSTRUCTION (JUMPA .+1) TO
 31999									;JUMPA X (X IS THE ADDRESS OF THE FIRST INSTRUCTION
 32000									;IN THE SUBTEST) TO LOOP ON ERROR^
 32001
 32002					;**********
 32003
 32004					;THIS TEST VERIFIES THAT INDIRECT ADDRESSING WORKS WHEN BOTH E AND @E
 32005					;ARE BEYOND THE AC RANGE.
 32006					;THE INSTRUCTION SPECIFYING INDIRECT ADDRESSING IS A CAME.
 32007
 32008	050140	254 00 0 00 050143 	C21600:	JRST	.+3
 32009	050141	000000	050142				.+1		;DIRECT ADDRESS AND ITS DATA
 32010	050142	272727	272727			XWD	272727,272727	;INDIRECT ADDRESS AND ITS DATA
 32011	050143	200 01 0 00 050142 		MOVE	1,C21600+2	;PRELOAD AC
 32012	050144	312 01 1 00 050141 		CAME	1,@C21600+1	;*CAME OF DATA FROM INDIRECT ADDRESS - NON-AC RANGE
 32013						STOP^
 32014	050145	254 04 0 00 050146 		HALT	.+1		;TEST FAILED IF PROGRAM HALTS HERE
 32015	050146	324 00 0 00 050147 		JUMPA	.+1		;IF TEST FAILS, CHANGE THIS INSTRUCTION (JUMPA .+1) TO
 32016									;JUMPA X (X IS THE ADDRESS OF THE FIRST INSTRUCTION
 32017									;IN THE SUBTEST) TO LOOP ON ERROR^
 32018
 32019					;**********
DFKAA PDP-10 KL10 BASIC INSTRUCTION DIAGNOSTIC (1) VER 0,2	MACRO %52(537) 09:34 31-JAN-77 PAGE 73
DFKAA4	MAC	25-AUG-75 13:58		INDIRECT ADDRESSING - BASIC TESTS                                                  SEQ 0711

 32020					;THIS TEST VERIFIES THAT INDIRECT ADDRESSING WORKS WHEN E IS WITHIN THE AC RANGE
 32021					;AND @E IS BEYOND THE AC RANGE.
 32022					;THE INSTRUCTION SPECIFYING INDIRECT ADDRESSING IS A CAME.
 32023
 32024	050147	254 00 0 00 050151 	C21700:	JRST	.+2
 32025	050150	252525	252525			XWD	252525,252525	;INDIRECT ADDRESS AND ITS DATA
 32026	050151	201 07 0 00 050150 		MOVEI	7,C21700+1	;SETUP DIRECT ADDRESS WITH INDIRECT ADDRESS
 32027	050152	200 01 0 00 050150 		MOVE	1,C21700+1	;SETUP AC
 32028	050153	312 01 1 00 000007 		CAME	1,@7		;*CAME IF DATA FROM INDIRECT ADDRESS - AC RANGE
 32029						STOP^
 32030	050154	254 04 0 00 050155 		HALT	.+1		;TEST FAILED IF PROGRAM HALTS HERE
 32031	050155	324 00 0 00 050156 		JUMPA	.+1		;IF TEST FAILS, CHANGE THIS INSTRUCTION (JUMPA .+1) TO
 32032									;JUMPA X (X IS THE ADDRESS OF THE FIRST INSTRUCTION
 32033									;IN THE SUBTEST) TO LOOP ON ERROR^
 32034
 32035					;**********
DFKAA PDP-10 KL10 BASIC INSTRUCTION DIAGNOSTIC (1) VER 0,2	MACRO %52(537) 09:34 31-JAN-77 PAGE 74
DFKAA4	MAC	25-AUG-75 13:58		TEST INDIRECT ADDRESSING WITH INDEXING                                             SEQ 0712

 32036					SUBTTL	TEST INDIRECT ADDRESSING WITH INDEXING
 32037
 32038					;SETUP INDEX REGISTERS
 32039
 32040	050156	201 01 0 00 777774 		MOVEI	1,-4
 32041	050157	201 03 0 00 000002 		MOVEI	3,2
 32042	050160	201 04 0 00 000010 		MOVEI	4,10
 32043	050161	201 05 0 00 000001 		MOVEI	5,1
 32044	050162	201 06 0 00 000005 		MOVEI	6,5
 32045	050163	201 07 0 00 000007 		MOVEI	7,7
 32046	050164	201 10 0 00 000004 		MOVEI	10,4
 32047	050165	201 11 0 00 777772 		MOVEI	11,-6
 32048	050166	201 12 0 00 000005 		MOVEI	12,5
 32049	050167	201 13 0 00 000002 		MOVEI	13,2
 32050
 32051	050170	254 00 0 00 050221 		JRST	C22000		;RESUME TEST
 32052
 32053					;INDIRECT ADDRESSING/INDEXING TEST TABLE
 32054
 32055					;;;;;;;;;;;          ;;;;;;;;;;          ;;;;;;;;;;
 32056
 32057					;DO NOT MODIFY THIS TABLE OR TESTS C21700 THRU C22600 INDEPENDENTLY !
 32058
 32059					;;;;;;;;;;          ;;;;;;;;;;          ;;;;;;;;;;
 32060
 32061	050171	000003	050174		E217:		E217A(3)
 32062	050172	000020	050177		E220:		@E220A
 32063	050173	220220	220220		E220B:	220220,,220220
 32064	050174	000020	050201		E217A:		@E221A		;E221-4
 32065	050175	221221	221221		E221B:	221221,,221221
 32066	050176	217217	217217		E222A:	217217,,217217		;E217A+2
 32067	050177	000000	050173		E220A:		E220B
 32068	050200	000000	050200		E221:		E221
 32069	050201	000000	050175		E221A:		E221B
 32070	050202	000000	050200		E222:		E221
 32071	050203	223223	223223		E223A:	223223,,223223
 32072	050204	000004	050204		E224A:		E224A(4)	;E223-6
 32073	050205	222222	222222			222222,,222222		;E222A+7
 32074	050206	000000	050206		E225:		E225
 32075	050207	000007	050176				E222A(7)	;E222+5
 32076	050210	000020	050213				@E225A		;E225+2
 32077	050211	225225	225225		E225B:	225225,,225225
 32078	050212	000000	050212		E223:		E223
 32079	050213	000000	050211		E225A:		E225B
 32080	050214	224224	224224			224224,,224224		;E224A+10
 32081	050215	226226	226226		E226B:	226226,,226226
 32082	050216	000000	050203				E223A		;E223+4
 32083	050217	000025	050217		E226A:		@E226A(5)	;E223+5
 32084	050220	000000	050215				E226B		;E226A+1
DFKAA PDP-10 KL10 BASIC INSTRUCTION DIAGNOSTIC (1) VER 0,2	MACRO %52(537) 09:34 31-JAN-77 PAGE 75
DFKAA4	MAC	25-AUG-75 13:58		TEST INDIRECT ADDRESSING WITH INDEXING                                             SEQ 0713

 32085					;THIS TEST VERIFIES THAT INDIRECT ADDRESSING IN COMBINATION WITH INDEXING FUNCTIONS CORRECT
 32086					LY.
 32087					;IN THIS CASE, MOVE 2,@E217 IS TESTED WHERE C(E217)=E217A(3) AND C(3)=0,,2.
 32088					;HENCE, THE RESULT IN THE AC SHOULD BE C(E217A+2)=217217,,217217
 32089
 32090	050221	476 00 0 00 000002 	C22000:	SETOM	2		;INITIALIZE AC
 32091	050222	200 02 1 00 050171 		MOVE	2,@E217		;TEST INDIRECT ADDRESSING WITH INDEXING
 32092	050223	312 02 0 00 050176 		CAME	2,E217A+2	;PASS IF C(AC)=217217,,217217
 32093						STOP^
 32094	050224	254 04 0 00 050225 		HALT	.+1		;TEST FAILED IF PROGRAM HALTS HERE
 32095	050225	324 00 0 00 050226 		JUMPA	.+1		;IF TEST FAILS, CHANGE THIS INSTRUCTION (JUMPA .+1) TO
 32096									;JUMPA X (X IS THE ADDRESS OF THE FIRST INSTRUCTION
 32097									;IN THE SUBTEST) TO LOOP ON ERROR^
 32098
 32099					;**********
 32100
 32101					;THIS TEST VERIFIES THAT INDIRECT ADDRESSING IN COMBINATION WITH INDEXING FUNCTIONS CORRECT
 32102					LY.
 32103					;IN THIS CASE, MOVE 2,@E220 IS TESTED WHERE C(E220)=@E220A AND C(E220A)=E220B.
 32104					;HENCE, THE RESULT IN THE AC SHOULD BE C(E220B)=220220,,220220
 32105
 32106	050226	402 00 0 00 000002 	C22100:	SETZM	2		;INITIALIZE AC
 32107	050227	200 02 1 00 050172 		MOVE	2,@E220		;TEST INDIRECT ADDRESSING WITH INDEXING
 32108	050230	312 02 0 00 050173 		CAME	2,E220B		;PASS IF C(AC)=220220,,220220
 32109						STOP^
 32110	050231	254 04 0 00 050232 		HALT	.+1		;TEST FAILED IF PROGRAM HALTS HERE
 32111	050232	324 00 0 00 050233 		JUMPA	.+1		;IF TEST FAILS, CHANGE THIS INSTRUCTION (JUMPA .+1) TO
 32112									;JUMPA X (X IS THE ADDRESS OF THE FIRST INSTRUCTION
 32113									;IN THE SUBTEST) TO LOOP ON ERROR^
 32114
 32115					;**********
DFKAA PDP-10 KL10 BASIC INSTRUCTION DIAGNOSTIC (1) VER 0,2	MACRO %52(537) 09:34 31-JAN-77 PAGE 76
DFKAA4	MAC	25-AUG-75 13:58		TEST INDIRECT ADDRESSING WITH INDEXING                                             SEQ 0714

 32116					;THIS TEST VERIFIES THAT INDIRECT ADDRESSING IN COMBINATION WITH INDEXING FUNCTIONS CORRECT
 32117					LY.
 32118					;IN THIS CASE,E221(1) 2,@E217 IS TESTED WHERE C(1)=-4 AND E221-4=E217A
 32119					;HENCE, THE RESULT IN THE AC SHOULD BE C(E217A)=@E221A=20,,E221A
 32120
 32121	050233	476 00 0 00 000002 	C22200:	SETOM	2		;INITIALIZE AC
 32122	050234	200 02 0 01 050200 		MOVE	2,E221(1)	;TEST INDIRECT ADDRESSING WITH INDEXING
 32123	050235	312 02 0 00 050174 		CAME	2,E217A		;PASS IF C(AC)=@E221A=20,,E221A
 32124						STOP^
 32125	050236	254 04 0 00 050237 		HALT	.+1		;TEST FAILED IF PROGRAM HALTS HERE
 32126	050237	324 00 0 00 050240 		JUMPA	.+1		;IF TEST FAILS, CHANGE THIS INSTRUCTION (JUMPA .+1) TO
 32127									;JUMPA X (X IS THE ADDRESS OF THE FIRST INSTRUCTION
 32128									;IN THE SUBTEST) TO LOOP ON ERROR^
 32129
 32130					;**********
 32131
 32132					;THIS TEST VERIFIES THAT INDIRECT ADDRESSING IN COMBINATION WITH INDEXING FUNCTIONS CORRECT
 32133					LY.
 32134					;IN THIS CASE, MOVE 2,E222(6) IS TESTED WHERE C(6)=5
 32135					;HENCE, THE RESULT IN THE AC SHOULD BE C(E222+5)=E222A(7)=7,,E222A
 32136
 32137	050240	402 00 0 00 000002 	C22300:	SETZM	2		;INITIALIZE AC
 32138	050241	200 02 0 06 050202 		MOVE	2,E222(6)	;TEST INDIRECT ADDRESSING WITH INDEXING
 32139	050242	312 02 0 00 050207 		CAME	2,E222+5	;PASS IF C(AC)=E222A(7)=7,,E222A
 32140						STOP^
 32141	050243	254 04 0 00 050244 		HALT	.+1		;TEST FAILED IF PROGRAM HALTS HERE
 32142	050244	324 00 0 00 050245 		JUMPA	.+1		;IF TEST FAILS, CHANGE THIS INSTRUCTION (JUMPA .+1) TO
 32143									;JUMPA X (X IS THE ADDRESS OF THE FIRST INSTRUCTION
 32144									;IN THE SUBTEST) TO LOOP ON ERROR^
 32145
 32146					;**********
DFKAA PDP-10 KL10 BASIC INSTRUCTION DIAGNOSTIC (1) VER 0,2	MACRO %52(537) 09:34 31-JAN-77 PAGE 77
DFKAA4	MAC	25-AUG-75 13:58		TEST INDIRECT ADDRESSING WITH INDEXING                                             SEQ 0715

 32147					;THIS TEST VERIFIES THAT INDIRECT ADDRESSING IN COMBINATION WITH INDEXING FUNCTIONS CORRECT
 32148					LY.
 32149					;IN THIS CASE, MOVE 2,@E223(10) IS TESTED WHERE C(10)=4 AND C(E223+4)=E223A
 32150					;HENCE, THE RESULT IN THE AC SHOULD BE C(E223A)=223223,,223223
 32151
 32152	050245	476 00 0 00 000002 	C22400:	SETOM	2		;INITIALIZE AC
 32153	050246	200 02 1 10 050212 		MOVE	2,@E223(10)	;TEST INDIRECT ADDRESSING WITH INDEXING
 32154	050247	312 02 0 00 050203 		CAME	2,E223A		;PASS IF C(AC)=223223,,223223
 32155						STOP^
 32156	050250	254 04 0 00 050251 		HALT	.+1		;TEST FAILED IF PROGRAM HALTS HERE
 32157	050251	324 00 0 00 050252 		JUMPA	.+1		;IF TEST FAILS, CHANGE THIS INSTRUCTION (JUMPA .+1) TO
 32158									;JUMPA X (X IS THE ADDRESS OF THE FIRST INSTRUCTION
 32159									;IN THE SUBTEST) TO LOOP ON ERROR^
 32160
 32161					;**********
 32162
 32163					;THIS TEST VERIFIES THAT INDIRECT ADDRESSING IN COMBINATION WITH INDEXING FUNCTIONS CORRECT
 32164					LY.
 32165					;IN THIS CASE, MOVE 2,@E223(11) IS TESTED WHERE C(11)=-6, C(E223-6)=E224A(4) AND C(4)=10
 32166					;HENCE, THE RESULT IN THE AC SHOULD BE C(E224A+10)=224224,,224224
 32167
 32168	050252	402 00 0 00 000002 	C22500:	SETZM	2		;INITIALIZE AC
 32169	050253	200 02 1 11 050212 		MOVE	2,@E223(11)	;TEST INDIRECT ADDRESSING WITH INDEXING
 32170	050254	312 02 0 00 050214 		CAME	2,E224A+10	;PASS IF C(AC)=224224,,224224
 32171						STOP^
 32172	050255	254 04 0 00 050256 		HALT	.+1		;TEST FAILED IF PROGRAM HALTS HERE
 32173	050256	324 00 0 00 050257 		JUMPA	.+1		;IF TEST FAILS, CHANGE THIS INSTRUCTION (JUMPA .+1) TO
 32174									;JUMPA X (X IS THE ADDRESS OF THE FIRST INSTRUCTION
 32175									;IN THE SUBTEST) TO LOOP ON ERROR^
 32176
 32177					;**********
DFKAA PDP-10 KL10 BASIC INSTRUCTION DIAGNOSTIC (1) VER 0,2	MACRO %52(537) 09:34 31-JAN-77 PAGE 78
DFKAA4	MAC	25-AUG-75 13:58		TEST INDIRECT ADDRESSING WITH INDEXING                                             SEQ 0716

 32178					;THIS TEST VERIFIES THAT INDIRECT ADDRESSING IN COMBINATION WITH INDEXING FUNCTIONS CORRECT
 32179					LY.
 32180					;IN THIS CASE, MOVE 2,@E225(13) IS TESTED WHERE C(13)=2, C(E225+2)=@E225A
 32181					;AND C(E225A)=E225B
 32182					;HENCE, THE RESULT IN THE AC SHOULD BE C(E225B)=225225,,225225
 32183
 32184	050257	476 00 0 00 000002 	C22600:	SETOM	2		;INITIALIZE AC
 32185	050260	200 02 1 13 050206 		MOVE	2,@E225(13)	;TEST INDIRECT ADDRESSING WITH INDEXING
 32186	050261	312 02 0 00 050211 		CAME	2,E225B		;PASS IF C(AC)=225225,,225225
 32187						STOP^
 32188	050262	254 04 0 00 050263 		HALT	.+1		;TEST FAILED IF PROGRAM HALTS HERE
 32189	050263	324 00 0 00 050264 		JUMPA	.+1		;IF TEST FAILS, CHANGE THIS INSTRUCTION (JUMPA .+1) TO
 32190									;JUMPA X (X IS THE ADDRESS OF THE FIRST INSTRUCTION
 32191									;IN THE SUBTEST) TO LOOP ON ERROR^
 32192
 32193					;**********
 32194
 32195					;THIS TEST VERIFIES THAT INDIRECT ADDRESSING IN COMBINATION WITH INDEXING FUNCTIONS CORRECT
 32196					LY.
 32197					;IN THIS CASE, MOVE 2,@E223(12) IS TESTED WHERE C(12)=5, C(E223+5)=@E226A(5),
 32198					;C(5)=1 AND C(E226A+1)=E226B
 32199					;HENCE, THE RESULT IN THE AC SHOULD BE C(E226B)=226226,,226226
 32200
 32201	050264	402 00 0 00 000002 	C22700:	SETZM	2		;INITIALIZE AC
 32202	050265	200 02 1 12 050212 		MOVE	2,@E223(12)	;TEST INDIRECT ADDRESSING WITH INDEXING
 32203	050266	312 02 0 00 050215 		CAME	2,E226B		;PASS IF C(AC)=226226,,226226
 32204						STOP^
 32205	050267	254 04 0 00 050270 		HALT	.+1		;TEST FAILED IF PROGRAM HALTS HERE
 32206	050270	324 00 0 00 050271 		JUMPA	.+1		;IF TEST FAILS, CHANGE THIS INSTRUCTION (JUMPA .+1) TO
 32207									;JUMPA X (X IS THE ADDRESS OF THE FIRST INSTRUCTION
 32208									;IN THE SUBTEST) TO LOOP ON ERROR^
 32209
 32210					;**********
DFKAA PDP-10 KL10 BASIC INSTRUCTION DIAGNOSTIC (1) VER 0,2	MACRO %52(537) 09:34 31-JAN-77 PAGE 1
DFKAA5	MAC	25-AUG-75 14:00		TEST OF JSR INSTRUCTION                                                            SEQ 0717

 32211					SUBTTL	TEST OF JSR INSTRUCTION
 32212
 32213					;**********
 32214
 32215					;THIS TEST VERIFIES THAT JSR STORES THE FLAGS AND PC IN LOCATION E.
 32216					;IN THIS CASE, E IS CLEARED, CRY0 IS SET AND JSR IS EXECUTED.
 32217					;NEXT, E IS CHECKED FOR ITS CONTENTS NON-ZERO.  IF C(E) IS NON-ZERO,
 32218					;THIS TEST PASSES.
 32219
 32220	050271				C23000:	SFLAG	CRY0		^;SET CRY0 FLAG
 32221
 32222	050271	205 01 0 00 200000 		MOVSI	1,CRY0
 32223	050272	255 17 0 00 050273 		JFCL	17,.+1	;RESET ALL FLAGS
 32224	050273	254 02 0 01 050274 		JRST	2,.+1(1)		;SET CRY0 FLAG
 32225	050274	402 00 0 00 050276 		SETZM	.+2		;PRELOAD E WITH 0
 32226	050275	264 00 0 00 050276 		JSR	.+1		;*JSR SHOULD PLACE FLAGS AND PC INTO AC
 32227	050276	000000	000000			0			;E: PRESET TO 0, SHOULD RECEIVE FLAGS AND PC FROM JSR
 32228	050277	336 00 0 00 050276 		SKIPN	.-1		;PASS IF C(E) IS NON-ZERO.
 32229						STOP^
 32230	050300	254 04 0 00 050301 		HALT	.+1		;TEST FAILED IF PROGRAM HALTS HERE
 32231	050301	324 00 0 00 050302 		JUMPA	.+1		;IF TEST FAILS, CHANGE THIS INSTRUCTION (JUMPA .+1) TO
 32232									;JUMPA X (X IS THE ADDRESS OF THE FIRST INSTRUCTION
 32233									;IN THE SUBTEST) TO LOOP ON ERROR^
 32234
 32235					;**********
 32236
 32237					;THIS TEST VERIFIES THAT JSR IGNORES THE AC FIELD;
 32238					;HENCE, IT DOES NOT MODIFY THE SPECIFIED AC.
 32239					;IN THIS CASE, CRY0 IS SET.  THE AC IS PRELOADED WITH -1,,-1 AND JSR IS EXECUTED.
 32240					;THE AC IS THEN CHECKED.  IF C(AC)=-1,,-1, THIS TEST PASSES.
 32241
 32242	050302				C23100:	SFLAG	CRY0		^;SET CRY0
 32243
 32244	050302	205 01 0 00 200000 		MOVSI	1,CRY0
 32245	050303	255 17 0 00 050304 		JFCL	17,.+1	;RESET ALL FLAGS
 32246	050304	254 02 0 01 050305 		JRST	2,.+1(1)		;SET CRY0 FLAG
 32247	050305	474 01 0 00 000000 		SETO	1,		;PRELOAD AC WITH -1,,-1
 32248	050306	264 01 0 00 050307 		JSR	1,.+1		;*JSR SHOULD NOT MODIFY THE AC
 32249	050307	000000	000000			0			;STORE PC + FLAGS HERE
 32250	050310	312 01 0 00 070254 		CAME	1,[-1]		;PASS IF C(AC)=-1,,-1
 32251						STOP^
 32252	050311	254 04 0 00 050312 		HALT	.+1		;TEST FAILED IF PROGRAM HALTS HERE
 32253	050312	324 00 0 00 050313 		JUMPA	.+1		;IF TEST FAILS, CHANGE THIS INSTRUCTION (JUMPA .+1) TO
 32254									;JUMPA X (X IS THE ADDRESS OF THE FIRST INSTRUCTION
 32255									;IN THE SUBTEST) TO LOOP ON ERROR^
 32256
 32257					;**********
DFKAA PDP-10 KL10 BASIC INSTRUCTION DIAGNOSTIC (1) VER 0,2	MACRO %52(537) 09:34 31-JAN-77 PAGE 2
DFKAA5	MAC	25-AUG-75 14:00		TEST OF JSR INSTRUCTION                                                            SEQ 0718

 32258					;THIS TEST VERIFIES THAT JSR STORES THE FLAGS IN E-LEFT HALF.
 32259					;IN THIS TEST, CRY0 IS SET, E IS CLEARED AND JSR IS EXECUTED.
 32260					;NEXT, C(E-LEFT) ARE PLACED INTO AC0 AND AC0 IS CHECKED FOR ITS CONTENTS NON-ZERO.
 32261					;IF C(AC0) ARE NON-ZERO, THIS TEST PASSES.
 32262
 32263	050313				C23200:	SFLAG	CRY0		^;SET CRY0
 32264
 32265	050313	205 01 0 00 200000 		MOVSI	1,CRY0
 32266	050314	255 17 0 00 050315 		JFCL	17,.+1	;RESET ALL FLAGS
 32267	050315	254 02 0 01 050316 		JRST	2,.+1(1)		;SET CRY0 FLAG
 32268	050316	402 00 0 00 050320 		SETZM	.+2		;CLEAR E
 32269	050317	264 00 0 00 050320 		JSR	.+1		;*JSR SHOULD STORE FLAGS IN E
 32270	050320	000000	000000			0			;STORE FLAGS HERE (CRY0 MAKES THIS A MOVE INST)
 32271	050321	510 00 0 00 050320 		HLLZ	.-1		;PUT FLAGS INTO AC0
 32272	050322	336 00 0 00 000000 		SKIPN			;PASS IF C(AC0) NON-ZERO
 32273						STOP^
 32274	050323	254 04 0 00 050324 		HALT	.+1		;TEST FAILED IF PROGRAM HALTS HERE
 32275	050324	324 00 0 00 050325 		JUMPA	.+1		;IF TEST FAILS, CHANGE THIS INSTRUCTION (JUMPA .+1) TO
 32276									;JUMPA X (X IS THE ADDRESS OF THE FIRST INSTRUCTION
 32277									;IN THE SUBTEST) TO LOOP ON ERROR^
 32278
 32279					;**********
 32280
 32281					;THIS TEST VERIFIES THAT JSR TRANSFERS CONTROL TO E+1.
 32282					;IN THIS CASE, CRY0 IS SET AND E  AND AC0 CLEARED; THEN, JSR IS EXECUTED.
 32283					;IF JSR RESUMES CONTROL AT E INSTEAD OF E+1, AC0 WILL BE MODIFIED;
 32284					;HENCE, THE TEST WILL FAIL WHEN AC0 IS CHECKED FOR 0 BECAUSE
 32285					;C(E) IS DECODED AS A MOVE INSTRUCTION.
 32286
 32287	050325				C23300:	SFLAG	CRY0		^;SET CRY0
 32288
 32289	050325	205 01 0 00 200000 		MOVSI	1,CRY0
 32290	050326	255 17 0 00 050327 		JFCL	17,.+1	;RESET ALL FLAGS
 32291	050327	254 02 0 01 050330 		JRST	2,.+1(1)		;SET CRY0 FLAG
 32292	050330	403 00 0 00 050332 		SETZB	.+2		;CLEAR AC0 AND E
 32293	050331	264 00 0 00 050332 		JSR	.+1		;*JSR SHOULD RESUME CONTROL AT E+1
 32294	050332	000000	000000			0			;STORE FLAGS HERE (CRY0 MAKES THIS A MOVE INST)
 32295	050333	332 00 0 00 000000 		SKIPE	0		;PASS IF C(AC0)=0
 32296						STOP^
 32297	050334	254 04 0 00 050335 		HALT	.+1		;TEST FAILED IF PROGRAM HALTS HERE
 32298	050335	324 00 0 00 050336 		JUMPA	.+1		;IF TEST FAILS, CHANGE THIS INSTRUCTION (JUMPA .+1) TO
 32299									;JUMPA X (X IS THE ADDRESS OF THE FIRST INSTRUCTION
 32300									;IN THE SUBTEST) TO LOOP ON ERROR^
 32301
 32302					;**********
DFKAA PDP-10 KL10 BASIC INSTRUCTION DIAGNOSTIC (1) VER 0,2	MACRO %52(537) 09:34 31-JAN-77 PAGE 3
DFKAA5	MAC	25-AUG-75 14:00		TEST OF JSR INSTRUCTION                                                            SEQ 0719

 32303					;THIS TEST VERIFIES THAT JSR JUMPS TO E+1
 32304					;IN THIS CASE, AC0 IS CLEARED AND CRY0 IS SET; THEN, JSR .+2 IS EXECUTED.
 32305					;IF JSR DID NOT JUMP, ONES ARE LOADED WITH AC0; AND THE TEST FAILS.
 32306					;OTHERWISE, AC0 REMAINS CLEAR AND THE TEST PASSES
 32307
 32308	050336				C23400:	SFLAG	CRY0		^;SET CRY0
 32309
 32310	050336	205 01 0 00 200000 		MOVSI	1,CRY0
 32311	050337	255 17 0 00 050340 		JFCL	17,.+1	;RESET ALL FLAGS
 32312	050340	254 02 0 01 050341 		JRST	2,.+1(1)		;SET CRY0 FLAG
 32313	050341	400 00 0 00 000000 		SETZ			;CLEAR AC0
 32314	050342	264 00 0 00 050344 		JSR	.+2		;*JSR SHOULD JUMP
 32315	050343	474 00 0 00 000000 		SETO			;LOAD AC0 WITH ONES IF JSR FAILED TO JUMP
 32316	050344	000000	000000			0			;STORE FLAGS HERE
 32317	050345	332 00 0 00 000000 		SKIPE			;PASS  IF JSR JUMPED CORRECTLY
 32318						STOP^
 32319	050346	254 04 0 00 050347 		HALT	.+1		;TEST FAILED IF PROGRAM HALTS HERE
 32320	050347	324 00 0 00 050350 		JUMPA	.+1		;IF TEST FAILS, CHANGE THIS INSTRUCTION (JUMPA .+1) TO
 32321									;JUMPA X (X IS THE ADDRESS OF THE FIRST INSTRUCTION
 32322									;IN THE SUBTEST) TO LOOP ON ERROR^
 32323
 32324					;**********
 32325
 32326					;THIS TEST VERIFIES THAT JSR STORES THE PC IN E - RIGHT HALF.  THE PC
 32327					;IS ONE GREATER THAN THE LOCATION OF THE JSR INSTRUCTION.
 32328					;THIS TEST WILL FAIL IF JSR STORES E INSTEAD OF PC IN E - RIGHT HALF.
 32329					;IN CASE OF FAILURE, AR PC EN AT ET2 WAS FAULTY.
 32330
 32331	050350				C23500:	SFLAG	0		^;CLEAR ALL FLAGS
 32332
 32333	050350	205 01 0 00 000000 		MOVSI	1,0
 32334	050351	255 17 0 00 050352 		JFCL	17,.+1	;RESET ALL FLAGS
 32335	050352	254 02 0 01 050353 		JRST	2,.+1(1)		;SET 0 FLAG
 32336	050353	264 00 0 00 050355 		JSR	.+2		;*JSR SHOULD STORE PC+1 IN E - RIGHT
 32337	050354	254 04 0 00 050354 		HALT	.		;JSR SHOULD SKIP OVER THIS HALT
 32338	050355	000000	000000			0			;STORE FLAGS AND PC HERE
 32339	050356	550 00 0 00 050355 		HRRZ	.-1		;PUT STORED CONTENTS OF E - RIGHT INTO AC0
 32340	050357	306 00 0 00 050355 		CAIN	.-2		;FAIL IF C(AC0)=E
 32341						STOP^
 32342	050360	254 04 0 00 050361 		HALT	.+1		;TEST FAILED IF PROGRAM HALTS HERE
 32343	050361	324 00 0 00 050362 		JUMPA	.+1		;IF TEST FAILS, CHANGE THIS INSTRUCTION (JUMPA .+1) TO
 32344									;JUMPA X (X IS THE ADDRESS OF THE FIRST INSTRUCTION
 32345									;IN THE SUBTEST) TO LOOP ON ERROR^
 32346
 32347					;**********
DFKAA PDP-10 KL10 BASIC INSTRUCTION DIAGNOSTIC (1) VER 0,2	MACRO %52(537) 09:34 31-JAN-77 PAGE 4
DFKAA5	MAC	25-AUG-75 14:00		TEST OF JSR INSTRUCTION                                                            SEQ 0720

 32348					;THIS TEST VERIFIES THAT JSR STORES THE PC IN E - RIGHT HALF.  THE PC
 32349					;IS ONE GREATER THAN THE LOCATION OF THE JSR INSTRUCTION.
 32350					;THIS TEST WILL PASS IF JSR STORES PC IN E - RIGHT HALF.
 32351
 32352	050362	264 00 0 00 050364 	C23600:	JSR	.+2		;*JSR SHOULD STORE PC+1 IN E - RIGHT
 32353	050363	254 04 0 00 050363 		HALT	.		;JSR SHOULD SKIP OVER THIS HALT
 32354	050364	000000	000000			0			;STORE FLAGS AND PC HERE
 32355	050365	550 00 0 00 050364 		HRRZ	.-1		;PUT STORED CONTENTS OF E - RIGHT INTO AC0
 32356	050366	302 00 0 00 050363 		CAIE	C23600+1	;PASS IF C(AC0)=C23600+1 [PC]
 32357						STOP^
 32358	050367	254 04 0 00 050370 		HALT	.+1		;TEST FAILED IF PROGRAM HALTS HERE
 32359	050370	324 00 0 00 050371 		JUMPA	.+1		;IF TEST FAILS, CHANGE THIS INSTRUCTION (JUMPA .+1) TO
 32360									;JUMPA X (X IS THE ADDRESS OF THE FIRST INSTRUCTION
 32361									;IN THE SUBTEST) TO LOOP ON ERROR^
 32362
 32363					;**********
DFKAA PDP-10 KL10 BASIC INSTRUCTION DIAGNOSTIC (1) VER 0,2	MACRO %52(537) 09:34 31-JAN-77 PAGE 5
DFKAA5	MAC	25-AUG-75 14:00		TEST OF JSA INSTRUCTION                                                            SEQ 0721

 32364					SUBTTL	TEST OF JSA INSTRUCTION
 32365
 32366					;**********
 32367
 32368					;THIS TEST VERIFIES THAT JSA JUMPS TO LOCATION E+1.
 32369					;IN THIS TEST, AC1 IS CLEARED AND A CAM 0,0 IS LOADED
 32370					;INTO THE AC OF THE JSA INSTRUCTION.
 32371					;IF JSA DOES NOT JUMP, AC1 WILL BE LOADED WITH ONES.  AC1 IS CHECKED FOR ZEROS.
 32372					;IF C(AC1)=0, THE TEST PASSES; OTHERWISE, THIS TEST FAILS BECAUSE JSA DID NOT JUMP.
 32373
 32374	050371	400 01 0 00 000000 	C23700:	SETZ	1,		;CLEAR AC1
 32375	050372	200 00 0 00 070627 		MOVE	[CAM]		;LOAD CAM INTO AC0
 32376	050373	266 00 0 00 050375 		JSA	.+2		;*JSA SHOULD JUMP TO E+1
 32377	050374	474 00 0 00 000001 		SETO	1		;JSA SHOULD JUMP OVER THIS INSTRUCTION
 32378	050375	000000	000000			0			;PASS IF JSA JUMPED
 32379	050376	332 00 0 00 000001 		SKIPE	1
 32380						STOP^
 32381	050377	254 04 0 00 050400 		HALT	.+1		;TEST FAILED IF PROGRAM HALTS HERE
 32382	050400	324 00 0 00 050401 		JUMPA	.+1		;IF TEST FAILS, CHANGE THIS INSTRUCTION (JUMPA .+1) TO
 32383									;JUMPA X (X IS THE ADDRESS OF THE FIRST INSTRUCTION
 32384									;IN THE SUBTEST) TO LOOP ON ERROR^
 32385
 32386					;**********
 32387
 32388					;THIS TEST VERIFIES THAT JSA JUMPS TO LOCATION E+1.
 32389					;IN THIS TEST, AC1 IS CLEARED AND A MOVEI 1,1234 IS LOADED
 32390					;INTO THE AC OF THE JSA INSTRUCTION.
 32391					;IF JSA DOES NOT JUMP, AC1 WILL BE LOADED WITH 0,,1234.  AC1 IS CHECKED FOR ZEROS.
 32392					;IF C(AC1)=0, THE TEST PASSES; OTHERWISE, THIS TEST FAILS BECAUSE JSA DID NOT JUMP.
 32393
 32394	050401	400 01 0 00 000000 	C24000:	SETZ	1,		;CLEAR AC1
 32395	050402	200 00 0 00 070630 		MOVE	[MOVEI 1,1234]	;LOAD MOVEI 1,1234 INTO AC
 32396	050403	266 00 0 00 050404 		JSA	.+1		;*JSA SHOULD JUMP TO E+1
 32397	050404	000000	000000			0			;JSA SHOULD JUMP OVER THIS LOCATION
 32398	050405	306 01 0 00 001234 		CAIN	1,1234		;FAIL IF JSA DID NOT JUMP OVER PREVIOUS INSTRUCTION
 32399						STOP^
 32400	050406	254 04 0 00 050407 		HALT	.+1		;TEST FAILED IF PROGRAM HALTS HERE
 32401	050407	324 00 0 00 050410 		JUMPA	.+1		;IF TEST FAILS, CHANGE THIS INSTRUCTION (JUMPA .+1) TO
 32402									;JUMPA X (X IS THE ADDRESS OF THE FIRST INSTRUCTION
 32403									;IN THE SUBTEST) TO LOOP ON ERROR^
 32404
 32405					;**********
DFKAA PDP-10 KL10 BASIC INSTRUCTION DIAGNOSTIC (1) VER 0,2	MACRO %52(537) 09:34 31-JAN-77 PAGE 6
DFKAA5	MAC	25-AUG-75 14:00		TEST OF JSA INSTRUCTION                                                            SEQ 0722

 32406					;THIS TEST VERIFIES THAT JSA LOADS PC OF LOC OF JSA+1 INTO AC RIGHT.
 32407					;THIS TEST WILL FAIL IF JSA LOADS E INTO AC RIGHT INSTEAD OF PC.
 32408
 32409	050410	266 00 0 00 050412 	C24100:	JSA	.+2		;*JSA SHOULD LOAD PC INTO AC RIGHT
 32410	050411	254 04 0 00 050411 		HALT	.		;JSA SHOULD JUMP OVER THIS LOCATION
 32411	050412	000000	000000			0			;JSA SHOULD JUMP OVER THIS LOCATION
 32412	050413	552 00 0 00 000001 		HRRZM	1		;PUT C(AC-RIGHT) INTO AC1
 32413	050414	306 01 0 00 050412 		CAIN	1,.-2		;FAIL IF E WAS LOADED INTO AC-RIGHT INSTEAD OF PC
 32414						STOP^
 32415	050415	254 04 0 00 050416 		HALT	.+1		;TEST FAILED IF PROGRAM HALTS HERE
 32416	050416	324 00 0 00 050417 		JUMPA	.+1		;IF TEST FAILS, CHANGE THIS INSTRUCTION (JUMPA .+1) TO
 32417									;JUMPA X (X IS THE ADDRESS OF THE FIRST INSTRUCTION
 32418									;IN THE SUBTEST) TO LOOP ON ERROR^
 32419
 32420					;**********
 32421
 32422					;THIS TEST VERIFIES THAT JSA PLACES C(AC) INTO E
 32423					;THIS TEST WILL FAIL IF EITHER 0,,E OR 0,,PC IS LOADED
 32424					;INTO E INSTEAD OF C(AC)
 32425
 32426	050417	403 00 0 00 050421 	C24200:	SETZB	.+2		;CLEAR AC,E
 32427	050420	266 00 0 00 050421 		JSA	.+1		;*JSA SHOULD LOAD C(AC) [ZEROS] INTO E
 32428	050421	000000	000000			0			;JSA SHOULD PLACE ZEROS HERE
 32429	050422	200 01 0 00 050421 		MOVE	1,.-1		;SAVE C(AC)
 32430	050423	306 01 0 00 050421 		CAIN	1,.-2		;FAIL IF JSA LOADED 0,,E OR 0,,PC INTO E
 32431						STOP^
 32432	050424	254 04 0 00 050425 		HALT	.+1		;TEST FAILED IF PROGRAM HALTS HERE
 32433	050425	324 00 0 00 050426 		JUMPA	.+1		;IF TEST FAILS, CHANGE THIS INSTRUCTION (JUMPA .+1) TO
 32434									;JUMPA X (X IS THE ADDRESS OF THE FIRST INSTRUCTION
 32435									;IN THE SUBTEST) TO LOOP ON ERROR^
 32436
 32437					;**********
DFKAA PDP-10 KL10 BASIC INSTRUCTION DIAGNOSTIC (1) VER 0,2	MACRO %52(537) 09:34 31-JAN-77 PAGE 7
DFKAA5	MAC	25-AUG-75 14:00		TEST OF JSA INSTRUCTION                                                            SEQ 0723

 32438					;THIS TEST VERIFIES THAT JSA PLACES PC INTO AC-RIGHT
 32439					;THIS TEST WILL FAIL IF PC IS NOT LOADED INTO AC-RIGHT
 32440
 32441	050426	201 00 0 00 777777 	C24300:	MOVEI	-1		;PRELOAD AC WITH 0,,-1
 32442	050427	266 00 0 00 050430 		JSA	.+1		;*JSA SHOULD PLACE E,,PC INTO THE AC
 32443	050430	000000	000000			0			;JSA SHOULD PLACE C(AC) HERE
 32444	050431	606 00 0 00 777777 		TRNN	-1		;FAIL IF AR LT AR RT EN FAILED
 32445						STOP^
 32446	050432	254 04 0 00 050433 		HALT	.+1		;TEST FAILED IF PROGRAM HALTS HERE
 32447	050433	324 00 0 00 050434 		JUMPA	.+1		;IF TEST FAILS, CHANGE THIS INSTRUCTION (JUMPA .+1) TO
 32448									;JUMPA X (X IS THE ADDRESS OF THE FIRST INSTRUCTION
 32449									;IN THE SUBTEST) TO LOOP ON ERROR^
 32450
 32451					;**********
 32452
 32453					;THIS TEST VERIFIES THAT JSA PLACES THE PC OF THE LOCATION OF JSA+1 IN AC-RIGHT
 32454					;THIS TEST FAILS IF A PC WAS NOT LOADED INTO AC RIGHT
 32455
 32456	050434	400 00 0 00 000000 	C24400:	SETZ			;CLEAR AC
 32457	050435	266 00 0 00 050436 		JSA	.+1		;*JSA SHOULD LOAD PC INTO AC - RIGHT
 32458	050436	000000	000000			0			;JSA SHOULD PLACE C(AC) HERE
 32459	050437	606 00 0 00 777777 		TRNN	-1		;PASS IF AC - RIGHT IS NON-ZERO
 32460						STOP^
 32461	050440	254 04 0 00 050441 		HALT	.+1		;TEST FAILED IF PROGRAM HALTS HERE
 32462	050441	324 00 0 00 050442 		JUMPA	.+1		;IF TEST FAILS, CHANGE THIS INSTRUCTION (JUMPA .+1) TO
 32463									;JUMPA X (X IS THE ADDRESS OF THE FIRST INSTRUCTION
 32464									;IN THE SUBTEST) TO LOOP ON ERROR^
 32465
 32466					;**********
DFKAA PDP-10 KL10 BASIC INSTRUCTION DIAGNOSTIC (1) VER 0,2	MACRO %52(537) 09:34 31-JAN-77 PAGE 8
DFKAA5	MAC	25-AUG-75 14:00		TEST OF JSA INSTRUCTION                                                            SEQ 0724

 32467					;THIS TEST VERIFIES THAT JSA PLACES IN AC-LEFT
 32468					;THIS TEST FAILS IF JSA LOADS PC INSTEAD OF E INTO AC-LEFT
 32469
 32470	050442	266 00 0 00 050444 	C24500:	JSA	.+2		;*JSA SHOULD LOAD E INTO AC-LEFT
 32471	050443	254 04 0 00 050443 		HALT	.		;JSA SHOULD JUMP OVER THIS INSTRUCTION
 32472	050444	000000	000000			0			;E:
 32473	050445	556 00 0 00 000001 		HLRZM	1		;SAVE C(AC - LEFT)
 32474	050446	306 01 0 00 050443 		CAIN	1,.-3		;FAIL IF JSA LOADED PC INSTEAD OF E INTO AC-LEFT
 32475						STOP^
 32476	050447	254 04 0 00 050450 		HALT	.+1		;TEST FAILED IF PROGRAM HALTS HERE
 32477	050450	324 00 0 00 050451 		JUMPA	.+1		;IF TEST FAILS, CHANGE THIS INSTRUCTION (JUMPA .+1) TO
 32478									;JUMPA X (X IS THE ADDRESS OF THE FIRST INSTRUCTION
 32479									;IN THE SUBTEST) TO LOOP ON ERROR^
 32480
 32481					;**********
 32482
 32483					;THIS TEST VERIFIES THAT JSA LOADS E,,PC INTO THE AC
 32484					;FIRST, THE AC IS PRELOADED WITH -1,,-1; THEN, JSA IS EXECUTED.
 32485					;THE AC IS CHECKED FOR E,,PC.  IF C(AC)=E,,PC, THIS TEST PASSES
 32486
 32487	050451	474 00 0 00 000000 	C24600:	SETO			;PRELOAD AC WITH -1,,-1
 32488	050452	266 00 0 00 050454 		JSA	.+2		;*JSA SHOULD PLACE E,,PC INTO THE AC
 32489	050453	254 04 0 00 050453 		HALT	.		;JSA SHOULD JUMP OVER HERE, PC:
 32490	050454	000000	000000			0			;JSA SHOULD STORE C(AC) HERE, E:
 32491	050455	312 00 0 00 070631 		CAME	[XWD .-1,.-2]	;PASS IF C(AC)=E,,PC
 32492						STOP^
 32493	050456	254 04 0 00 050457 		HALT	.+1		;TEST FAILED IF PROGRAM HALTS HERE
 32494	050457	324 00 0 00 050460 		JUMPA	.+1		;IF TEST FAILS, CHANGE THIS INSTRUCTION (JUMPA .+1) TO
 32495									;JUMPA X (X IS THE ADDRESS OF THE FIRST INSTRUCTION
 32496									;IN THE SUBTEST) TO LOOP ON ERROR^
 32497
 32498					;**********
DFKAA PDP-10 KL10 BASIC INSTRUCTION DIAGNOSTIC (1) VER 0,2	MACRO %52(537) 09:34 31-JAN-77 PAGE 9
DFKAA5	MAC	25-AUG-75 14:00		TEST OF JSA INSTRUCTION                                                            SEQ 0725

 32499					;THIS TEST VERIFIES THAT JSA LOADS E,,PC INTO THE AC
 32500					;FIRST, THE AC IS PRELOADED WITH 0 JSA IS EXECUTED.
 32501					;THE AC IS CHECKED FOR E,,PC.  IF C(AC)=E,,PC, THIS TEST PASSES
 32502
 32503	050460	400 00 0 00 000000 	C24700:	SETZ			;PRELOAD AC WITH 0
 32504	050461	266 00 0 00 050463 		JSA	.+2		;*JSA SHOULD PLACE E,,PC INTO THE AC
 32505	050462	254 04 0 00 050462 		HALT	.		;JSA SHOULD JUMP OVER HERE, PC:
 32506	050463	000000	000000			0			;JSA SHOULD STORE C(AC) HERE, E:
 32507	050464	312 00 0 00 070632 		CAME	[XWD .-1,.-2]	;PASS IF C(AC)=E,,PC
 32508						STOP^
 32509	050465	254 04 0 00 050466 		HALT	.+1		;TEST FAILED IF PROGRAM HALTS HERE
 32510	050466	324 00 0 00 050467 		JUMPA	.+1		;IF TEST FAILS, CHANGE THIS INSTRUCTION (JUMPA .+1) TO
 32511									;JUMPA X (X IS THE ADDRESS OF THE FIRST INSTRUCTION
 32512									;IN THE SUBTEST) TO LOOP ON ERROR^
 32513
 32514					;**********
 32515
 32516					;THIS TEST VERIFIES THAT JSA LOADS C(AC) INTO E.
 32517					;AC IS FIRST CLEARED AND E IS PRELOADED WITH ONES;
 32518					;THEN JSA IS EXECUTED.  E IS CHECKED FOR ZEROS.  IF C(E)=0,
 32519					;THIS TEST PASSES.
 32520
 32521	050467	400 00 0 00 000000 	C25000:	SETZ			;CLEAR AC
 32522	050470	476 00 0 00 050472 		SETOM	.+2		;PRELOAD E WITH -1,,-1
 32523	050471	266 00 0 00 050472 		JSA	.+1		;*JSA SHOULD PLACE C(AC) INTO E
 32524	050472	000000	000000			0			;E: SHOULD GET C(AC) FROM JSA
 32525	050473	332 00 0 00 050472 		SKIPE	.-1		;PASS IF C(E)=0
 32526						STOP^
 32527	050474	254 04 0 00 050475 		HALT	.+1		;TEST FAILED IF PROGRAM HALTS HERE
 32528	050475	324 00 0 00 050476 		JUMPA	.+1		;IF TEST FAILS, CHANGE THIS INSTRUCTION (JUMPA .+1) TO
 32529									;JUMPA X (X IS THE ADDRESS OF THE FIRST INSTRUCTION
 32530									;IN THE SUBTEST) TO LOOP ON ERROR^
 32531
 32532					;**********
DFKAA PDP-10 KL10 BASIC INSTRUCTION DIAGNOSTIC (1) VER 0,2	MACRO %52(537) 09:34 31-JAN-77 PAGE 10
DFKAA5	MAC	25-AUG-75 14:00		TEST OF JSA INSTRUCTION                                                            SEQ 0726

 32533					;THIS TEST VERIFIES THAT JSA LOADS C(AC) INTO E.
 32534					;AC IS FIRST PRELOADED WITH -1,,-1 AND E IS CLEARED;
 32535					;THEN, JSA IS EXECUTED.  E IS CHECKED FOR -1,,-1.  IF C(E)=-1,,-1,
 32536					;THIS TEST PASSES.
 32537
 32538	050476	477 00 0 00 000001 	C25100:	SETOB	1		;PRELOAD AC -1,,-1
 32539	050477	402 00 0 00 050501 		SETZM	.+2		;PRELOAD E WITH 0
 32540	050500	266 00 0 00 050501 		JSA	.+1		;*JSA SHOULD PLACE C(AC) INTO E
 32541	050501	000000	000000			0			;E: SHOULD GET C(AC) FROM JSA
 32542	050502	312 01 0 00 050501 		CAME	1,.-1		;PASS IF C(E)=-1,,-1
 32543						STOP^
 32544	050503	254 04 0 00 050504 		HALT	.+1		;TEST FAILED IF PROGRAM HALTS HERE
 32545	050504	324 00 0 00 050505 		JUMPA	.+1		;IF TEST FAILS, CHANGE THIS INSTRUCTION (JUMPA .+1) TO
 32546									;JUMPA X (X IS THE ADDRESS OF THE FIRST INSTRUCTION
 32547									;IN THE SUBTEST) TO LOOP ON ERROR^
 32548
 32549					;**********
 32550
 32551					;THIS TEST VERIFIES THAT JSA LOADS C(AC) INTO E.
 32552					;AC IS FIRST CLEARED AND E IS PRELOADED WITH ONES;
 32553					;THEN JSA IS EXECUTED.  E IS CHECKED FOR ZEROS.  IF C(E)=0,
 32554					;THIS TEST PASSES.
 32555
 32556	050505	201 00 0 00 777777 	C25200:	MOVEI	-1		;PRELOAD AC WITH 0,,-1
 32557	050506	266 00 0 00 050507 		JSA	.+1		;*JSA SHOULD PLACE C(AC) INTO E
 32558	050507	000000	000000			0			;E: SHOULD GET C(AC) FROM JSA
 32559	050510	200 01 0 00 050507 		MOVE	1,.-1		;PASS IF C(E)=0,,-1
 32560	050511	302 01 0 00 777777 		CAIE	1,-1
 32561						STOP^
 32562	050512	254 04 0 00 050513 		HALT	.+1		;TEST FAILED IF PROGRAM HALTS HERE
 32563	050513	324 00 0 00 050514 		JUMPA	.+1		;IF TEST FAILS, CHANGE THIS INSTRUCTION (JUMPA .+1) TO
 32564									;JUMPA X (X IS THE ADDRESS OF THE FIRST INSTRUCTION
 32565									;IN THE SUBTEST) TO LOOP ON ERROR^
 32566
 32567					;**********
DFKAA PDP-10 KL10 BASIC INSTRUCTION DIAGNOSTIC (1) VER 0,2	MACRO %52(537) 09:34 31-JAN-77 PAGE 11
DFKAA5	MAC	25-AUG-75 14:00		TEST OF JSA INSTRUCTION                                                            SEQ 0727

 32568					;THIS TEST VERIFIES THAT JSA DOES NOT MODIFY AC+1
 32569					;IN THIS TEST, AC+1 IS PRELOADED WITH -1,,-1; THEN JSA IS EXECUTED
 32570					;AC+1 IS THEN CHECKED FOR ITS ORIGINAL CONTENTS, -1,,-1.
 32571					;IF C(AC+1)=-1,,-1, THIS TEST PASSES
 32572
 32573	050514	476 00 0 00 000001 	C25300:	SETOM	1		;PRELOAD AC+1 WITH -1,,-1
 32574	050515	266 00 0 00 050516 		JSA	.+1		;*JSA SHOULD NOT MODIFY AC+1
 32575	050516	310 00 0 00 000000 		CAM			;JSA SHOULD JUMP OVER THIS, E:PC:
 32576	050517	312 01 0 00 070254 		CAME	1,[-1]		;PASS IF AC+1 WAS NOT MODIFIED BY JSA
 32577						STOP^
 32578	050520	254 04 0 00 050521 		HALT	.+1		;TEST FAILED IF PROGRAM HALTS HERE
 32579	050521	324 00 0 00 050522 		JUMPA	.+1		;IF TEST FAILS, CHANGE THIS INSTRUCTION (JUMPA .+1) TO
 32580									;JUMPA X (X IS THE ADDRESS OF THE FIRST INSTRUCTION
 32581									;IN THE SUBTEST) TO LOOP ON ERROR^
 32582
 32583					;**********
DFKAA PDP-10 KL10 BASIC INSTRUCTION DIAGNOSTIC (1) VER 0,2	MACRO %52(537) 09:34 31-JAN-77 PAGE 12
DFKAA5	MAC	25-AUG-75 14:00		TEST OF JRA INSTRUCTION                                                            SEQ 0728

 32584					SUBTTL	TEST OF JRA INSTRUCTION
 32585
 32586					;**********
 32587
 32588					;THIS TEST VERIFIES THAT JRA TRANSFERS CONTROL TO LOCATION E
 32589					;THIS TEST FAILS IF JRA DOES NOT JUMP TO E.
 32590
 32591	050522	200 00 0 00 070633 	C25400:	MOVE	[JRST .+4]	;PRELOAD AC0 WITH JRST .+4
 32592	050523	205 01 0 00 050525 		MOVSI	1,.+2		;PRELOAD AC WITH E,,0
 32593	050524	267 01 0 00 050525 		JRA	1,.+1		;*JRA SHOULD JUMP TO NEXT INSTRUCTION
 32594	050525	334 00 0 00 000000 		SKIPA			;PASS IF JRA JUMPS TO E
 32595						STOP^
 32596	050526	254 04 0 00 050527 		HALT	.+1		;TEST FAILED IF PROGRAM HALTS HERE
 32597	050527	324 00 0 00 050530 		JUMPA	.+1		;IF TEST FAILS, CHANGE THIS INSTRUCTION (JUMPA .+1) TO
 32598									;JUMPA X (X IS THE ADDRESS OF THE FIRST INSTRUCTION
 32599									;IN THE SUBTEST) TO LOOP ON ERROR^
 32600
 32601					;**********
 32602
 32603					;THIS TEST VERIFIES THAT JRA TRANSFERS CONTROL TO LOCATION E
 32604					;THIS TEST FAILS IF JRA DOES NOT JUMP TO E.
 32605
 32606	050530	205 00 0 00 050533 	C25500:	MOVSI	.+3		;PRELOAD AC WITH E+1
 32607	050531	267 00 0 00 050532 		JRA	.+1		;*JRA SHOULD JUMP TO NEXT SEQUENTIAL INSTRUCTION
 32608	050532	334 00 0 00 000000 		SKIPA			;PASS IF JRA JUMPS TO E
 32609						STOP^
 32610	050533	254 04 0 00 050534 		HALT	.+1		;TEST FAILED IF PROGRAM HALTS HERE
 32611	050534	324 00 0 00 050535 		JUMPA	.+1		;IF TEST FAILS, CHANGE THIS INSTRUCTION (JUMPA .+1) TO
 32612									;JUMPA X (X IS THE ADDRESS OF THE FIRST INSTRUCTION
 32613									;IN THE SUBTEST) TO LOOP ON ERROR^
 32614
 32615					;**********
DFKAA PDP-10 KL10 BASIC INSTRUCTION DIAGNOSTIC (1) VER 0,2	MACRO %52(537) 09:34 31-JAN-77 PAGE 13
DFKAA5	MAC	25-AUG-75 14:00		TEST OF JRA INSTRUCTION                                                            SEQ 0729

 32616					;THIS TEST VERIFIES THAT JRA TRANSFERS CONTROL TO LOCATION E
 32617					;THIS TEST FAILS IF JRA DOES NOT JUMP TO E.
 32618
 32619	050535	403 00 0 00 000001 	C25600:	SETZB	1		;PRELOAD AC0, AC1 WITH ZEROS
 32620	050536	267 00 0 00 050540 		JRA	.+2		;*JRA SHOULD JUMP OVER NEXT SEQUENTIAL INSTRUCTION
 32621	050537	474 01 0 00 000000 		SETO	1,		;LOAD AC1 WITH ONES IF JRA DOES NOT JUMP
 32622	050540	332 00 0 00 000001 		SKIPE	1		;PASS IF JRA JUMPED
 32623						STOP^
 32624	050541	254 04 0 00 050542 		HALT	.+1		;TEST FAILED IF PROGRAM HALTS HERE
 32625	050542	324 00 0 00 050543 		JUMPA	.+1		;IF TEST FAILS, CHANGE THIS INSTRUCTION (JUMPA .+1) TO
 32626									;JUMPA X (X IS THE ADDRESS OF THE FIRST INSTRUCTION
 32627									;IN THE SUBTEST) TO LOOP ON ERROR^
 32628
 32629					;**********
 32630
 32631					;THIS TEST VERIFIES THAT JRA PLACES C(C(AC-LEFT)) INTO THE AC AND JUMPS TO E
 32632					;THIS TEST FAILS IF JRA JUMPS TO E+1 OR DOES NOT LOAD THE AC CORRECTLY.
 32633
 32634	050543	400 00 0 00 000000 	C25700:	SETZ			;CLEAR AC
 32635	050544	267 00 0 00 050545 		JRA	.+1		;*JRA SHOULD PLACE 0 INTO THE AC AND JUMP .+1
 32636	050545	332 00 0 00 000000 		SKIPE			;PASS IF AC WAS LOADED CORRECTLY
 32637									;AND JRA JUMPED CORRECTLY.
 32638						STOP^
 32639	050546	254 04 0 00 050547 		HALT	.+1		;TEST FAILED IF PROGRAM HALTS HERE
 32640	050547	324 00 0 00 050550 		JUMPA	.+1		;IF TEST FAILS, CHANGE THIS INSTRUCTION (JUMPA .+1) TO
 32641									;JUMPA X (X IS THE ADDRESS OF THE FIRST INSTRUCTION
 32642									;IN THE SUBTEST) TO LOOP ON ERROR^
 32643
 32644					;**********
DFKAA PDP-10 KL10 BASIC INSTRUCTION DIAGNOSTIC (1) VER 0,2	MACRO %52(537) 09:34 31-JAN-77 PAGE 14
DFKAA5	MAC	25-AUG-75 14:00		TEST OF JRA INSTRUCTION                                                            SEQ 0730

 32645					;THIS TEST VERIFIES THAT JRA PLACES C(C(AC-LEFT)) INTO THE AC
 32646					;FIRST, THE AC IS PRELOADED WITH 1,,2 AND AC1 AND AC2 ARE
 32647					;INITIALIZED WITH THEIR RESPECTIVE ADDRESSES; JRA IS EXECUTED, AND
 32648					;THE AC IS CHECKED FOR 0,,1, THE ORIGINAL C(C(AC-LEFT)). IF C(AC)=0,,1,
 32649					;THIS TEST PASSES
 32650
 32651	050550	200 00 0 00 070634 	C26200:	MOVE	[XWD 1,2]	;PRELOAD AC WITH 1,,2
 32652	050551	201 01 0 00 000001 		MOVEI	1,1		;INITIALIZE AC1 WITH 0,,1
 32653	050552	201 02 0 00 000002 		MOVEI	2,2		;INITIALIZE AC2 WITH 0,,2
 32654	050553	267 00 0 00 050554 		JRA	.+1		;*JRA SHOULD PLACE 0,,1 INTO THE AC
 32655	050554	302 00 0 00 000001 		CAIE	1		;PASS IF C(AC)=0,,1
 32656						STOP^
 32657	050555	254 04 0 00 050556 		HALT	.+1		;TEST FAILED IF PROGRAM HALTS HERE
 32658	050556	324 00 0 00 050557 		JUMPA	.+1		;IF TEST FAILS, CHANGE THIS INSTRUCTION (JUMPA .+1) TO
 32659									;JUMPA X (X IS THE ADDRESS OF THE FIRST INSTRUCTION
 32660									;IN THE SUBTEST) TO LOOP ON ERROR^
 32661
 32662					;**********
 32663
 32664					;THIS TEST VERIFIES THAT JRA CAN RESTORE AC0 FROM AC0 WHEN AC0 IS THE
 32665					;SPECIFIED AC AND C(AC0-LEFT)=0.
 32666					;FIRST, AC0 IS PRELOADED AND JRA IS EXECUTED.  THEN, AC0 IS CHECKED FOR
 32667					;ITS INITIAL CONTENTS.  IF THE RESULT IN AC0, IS CORRECT, THIS TEST PASSES.
 32668
 32669	050557	551 00 0 00 070635 	C26300:	HRRZI	[135531,,246642]	;PRELOAD AC0 WITH 0,, LITERAL ADDRESS
 32670	050560	267 00 0 00 050561 		JRA	.+1		;*JRA SHOULD PLACE C(AC0) INTO AC0
 32671	050561	302 00 0 00 070635 		CAIE	[135531,,246642] ;PASS IF JRA PLACED C(AC0) INTO AC0
 32672						STOP^
 32673	050562	254 04 0 00 050563 		HALT	.+1		;TEST FAILED IF PROGRAM HALTS HERE
 32674	050563	324 00 0 00 050564 		JUMPA	.+1		;IF TEST FAILS, CHANGE THIS INSTRUCTION (JUMPA .+1) TO
 32675									;JUMPA X (X IS THE ADDRESS OF THE FIRST INSTRUCTION
 32676									;IN THE SUBTEST) TO LOOP ON ERROR^
 32677
 32678					;**********
DFKAA PDP-10 KL10 BASIC INSTRUCTION DIAGNOSTIC (1) VER 0,2	MACRO %52(537) 09:34 31-JAN-77 PAGE 15
DFKAA5	MAC	25-AUG-75 14:00		TEST OF JRA INSTRUCTION                                                            SEQ 0731

 32679					;THIS TEST VERIFIES THAT JRA CAN RESOTRE AC0 FROM MEMORY WHEN AC0 IS THE
 32680					;SPECIFIED AC.
 32681					;FIRST, AC0 IS PRELOADED WITH [LITERAL ADDRESS ,,0] AND JRA IS EXECUTED.  THEN,
 32682					;AC0 IS CHECKED FOR THE SPECIFIED LITERAL, 135246,,246135.  IF
 32683					;C(AC0)=135246,,246135, THE TEST PASSES.
 32684
 32685	050564	515 00 0 00 070636 	C26400:	HRLZI	[135246,,246135] ;PRELOAD AC0 WITH [LITERAL ADDRESS ,,0]
 32686	050565	267 00 0 00 050566 		JRA	.+1		;*JRA SHOULD PLACE 135246,,246135 INTO AC0
 32687	050566	312 00 0 00 070636 		CAME	[135246,,246135];PASS IF C(AC0)=135246,,246135
 32688						STOP^
 32689	050567	254 04 0 00 050570 		HALT	.+1		;TEST FAILED IF PROGRAM HALTS HERE
 32690	050570	324 00 0 00 050571 		JUMPA	.+1		;IF TEST FAILS, CHANGE THIS INSTRUCTION (JUMPA .+1) TO
 32691									;JUMPA X (X IS THE ADDRESS OF THE FIRST INSTRUCTION
 32692									;IN THE SUBTEST) TO LOOP ON ERROR^
 32693
 32694					;**********
 32695
 32696					;THIS TEST VERIFIES THAT JRA CAN RESOTRE AC0 FROM MEMORY WHEN AC0 IS THE
 32697					;SPECIFIED AC.
 32698					;FIRST, AC0 IS PRELOADED WITH [-1,, ADDRESS OF JCA INSTRUCTION] AND JRA IS EXECUTED.
 32699					;THEN, AC0 IS CHECKED FOR THE JRA INSTRUCTION.  IF
 32700					;C(AC0)= THE JRA INSTRUCTION, THE TEST PASSES.
 32701
 32702	050571	525 00 0 00 050572 	C26500:	HRLOI	.+1		;PRELOAD AC WITH -1,, ADDRESS OF JRA INSTRUCTION
 32703	050572	267 00 0 00 050573 		JRA	.+1		;*JRA SHOULD PLACE ITSELF INTO AC0
 32704	050573	312 00 0 00 050572 		CAME	.-1		;PASS IF AC CONTAINS JRA INSTRUCTION
 32705						STOP^
 32706	050574	254 04 0 00 050575 		HALT	.+1		;TEST FAILED IF PROGRAM HALTS HERE
 32707	050575	324 00 0 00 050576 		JUMPA	.+1		;IF TEST FAILS, CHANGE THIS INSTRUCTION (JUMPA .+1) TO
 32708									;JUMPA X (X IS THE ADDRESS OF THE FIRST INSTRUCTION
 32709									;IN THE SUBTEST) TO LOOP ON ERROR^
 32710
 32711					;**********
DFKAA PDP-10 KL10 BASIC INSTRUCTION DIAGNOSTIC (1) VER 0,2	MACRO %52(537) 09:34 31-JAN-77 PAGE 16
DFKAA5	MAC	25-AUG-75 14:00		TESTS OF BIS FLAG                                                                  SEQ 0732

 32712					SUBTTL	TESTS OF BIS FLAG
 32713
 32714					;**********
 32715
 32716					;THIS TEST VERIFIES THAT JRST 2, CAN CLEAR BIS
 32717					;FIRST, BIS IS SET VIA JRST 2, ;THEN, BIS IS CLEARED VIA JRST 2,.
 32718					;THE FLAGS ARE SAVED AND BIS IS CHECKED.  THIS TEST PASSES IF BIS IS RESET;
 32719					;OTHERWISE JRST 2, FAILED TO RESET BIS.
 32720
 32721	050576				C26600:	SFLAG	BIS		^;SET BIS FLAG
 32722
 32723	050576	205 01 0 00 020000 		MOVSI	1,BIS
 32724	050577	255 17 0 00 050600 		JFCL	17,.+1	;RESET ALL FLAGS
 32725	050600	254 02 0 01 050601 		JRST	2,.+1(1)		;SET BIS FLAG
 32726						SFLAG			^;*RESET BIS FLAG
 32727
 32728	050601	205 01 0 00 000000 		MOVSI	1,
 32729	050602	255 17 0 00 050603 		JFCL	17,.+1	;RESET ALL FLAGS
 32730	050603	254 02 0 01 050604 		JRST	2,.+1(1)		;SET  FLAG
 32731	050604	265 00 0 00 050605 		JSP	.+1		;SAVE FLAGS
 32732	050605	603 00 0 00 020037 		TLNE	BIS+37		;PASS IF BIS FLAG IS RESET
 32733						STOP^
 32734	050606	254 04 0 00 050607 		HALT	.+1		;TEST FAILED IF PROGRAM HALTS HERE
 32735	050607	324 00 0 00 050610 		JUMPA	.+1		;IF TEST FAILS, CHANGE THIS INSTRUCTION (JUMPA .+1) TO
 32736									;JUMPA X (X IS THE ADDRESS OF THE FIRST INSTRUCTION
 32737									;IN THE SUBTEST) TO LOOP ON ERROR^
 32738
 32739					;**********
 32740
 32741					;THIS TEST VERIFIES THAT JRST 2, CAN SET BIS.
 32742					;FIRST, BIS IS SET VIA JRST 2, AND THE FLAGS ARE SAVED.
 32743					;BIS IS THEN CHECKED.  IF BIS IS SET, THIS TEST PASSES.
 32744
 32745	050610				C26700:	SFLAG	BIS		^;*SET BIS FLAG VIA JRST
 32746
 32747	050610	205 01 0 00 020000 		MOVSI	1,BIS
 32748	050611	255 17 0 00 050612 		JFCL	17,.+1	;RESET ALL FLAGS
 32749	050612	254 02 0 01 050613 		JRST	2,.+1(1)		;SET BIS FLAG
 32750	050613	265 00 0 00 050614 		JSP	.+1		;SAVE FLAGS
 32751	050614	607 00 0 00 020000 		TLNN	BIS		;PASS IF BIS FLAG IS SET
 32752						STOP^
 32753	050615	254 04 0 00 050616 		HALT	.+1		;TEST FAILED IF PROGRAM HALTS HERE
 32754	050616	324 00 0 00 050617 		JUMPA	.+1		;IF TEST FAILS, CHANGE THIS INSTRUCTION (JUMPA .+1) TO
 32755									;JUMPA X (X IS THE ADDRESS OF THE FIRST INSTRUCTION
 32756									;IN THE SUBTEST) TO LOOP ON ERROR^
 32757
 32758					;**********
DFKAA PDP-10 KL10 BASIC INSTRUCTION DIAGNOSTIC (1) VER 0,2	MACRO %52(537) 09:34 31-JAN-77 PAGE 17
DFKAA5	MAC	25-AUG-75 14:00		TESTS OF BIS FLAG                                                                  SEQ 0733

 32759					;THIS TEST VERIFIES THAT JSR ALWAYS RESETS BIS.
 32760					;FIRST BIS IS SET; THEN JSR IS EXECUTED.  THE FLAGS ARE
 32761					;THEN SAVED AND CHECKED.  IF BIS WAS RESET VIA JSR, THIS TEST PASSES.
 32762
 32763	050617				C27000:	SFLAG	BIS		^;SET BIS
 32764
 32765	050617	205 01 0 00 020000 		MOVSI	1,BIS
 32766	050620	255 17 0 00 050621 		JFCL	17,.+1	;RESET ALL FLAGS
 32767	050621	254 02 0 01 050622 		JRST	2,.+1(1)		;SET BIS FLAG
 32768	050622	264 00 0 00 050623 		JSR	.+1		;*JSR SHOULD RESET BIS
 32769	050623	000000	000000			0			;JSR SAVES FLAGS HERE
 32770	050624	265 00 0 00 050625 		JSP	.+1		;SAVE FLAGS
 32771	050625	603 00 0 00 020000 		TLNE	BIS		;PASS IF BIS FLAG IS RESET
 32772						STOP^
 32773	050626	254 04 0 00 050627 		HALT	.+1		;TEST FAILED IF PROGRAM HALTS HERE
 32774	050627	324 00 0 00 050630 		JUMPA	.+1		;IF TEST FAILS, CHANGE THIS INSTRUCTION (JUMPA .+1) TO
 32775									;JUMPA X (X IS THE ADDRESS OF THE FIRST INSTRUCTION
 32776									;IN THE SUBTEST) TO LOOP ON ERROR^
 32777
 32778					;**********
 32779
 32780					;THIS TEST VERIFIES THAT JSP ALWAYS RESETS BIS.
 32781					;FIRST BIS IS SET; THEN JSP IS EXECUTED.  THE FLAGS ARE
 32782					;THEN SAVED AND CHECKED.  IF BIS WAS RESET VIA JSP, THIS TEST PASSES.
 32783
 32784	050630				C27001:	SFLAG	BIS		^;SET BIS
 32785
 32786	050630	205 01 0 00 020000 		MOVSI	1,BIS
 32787	050631	255 17 0 00 050632 		JFCL	17,.+1	;RESET ALL FLAGS
 32788	050632	254 02 0 01 050633 		JRST	2,.+1(1)		;SET BIS FLAG
 32789	050633	265 00 0 00 050634 		JSP	.+1		;*JSP SHOULD RESET BIS
 32790	050634	265 00 0 00 050635 		JSP	.+1		;SAVE FLAGS
 32791	050635	603 00 0 00 020000 		TLNE	BIS		;PASS IF BIS FLAG IS RESET
 32792						STOP^
 32793	050636	254 04 0 00 050637 		HALT	.+1		;TEST FAILED IF PROGRAM HALTS HERE
 32794	050637	324 00 0 00 050640 		JUMPA	.+1		;IF TEST FAILS, CHANGE THIS INSTRUCTION (JUMPA .+1) TO
 32795									;JUMPA X (X IS THE ADDRESS OF THE FIRST INSTRUCTION
 32796									;IN THE SUBTEST) TO LOOP ON ERROR^
 32797
 32798					;**********
DFKAA PDP-10 KL10 BASIC INSTRUCTION DIAGNOSTIC (1) VER 0,2	MACRO %52(537) 09:34 31-JAN-77 PAGE 18
DFKAA5	MAC	25-AUG-75 14:00		TESTS OF BIS FLAG                                                                  SEQ 0734

 32799					;THIS TEST VERIFIES THAT THE BITS IN POSITIONS 8, 9 AND 10 ARE CLEARABLE.
 32800					;FIRST, THE ARITHMETIC FLAGS ARE CLEARED;
 32801					;THEN, BITS 8, 9 AND 10 OF THE PC-WORD IS EXAMINED.
 32802					;IF ANY OF THESE BITS ARE SET, THIS TEST FAILS BECAUSE THEY SHOULD BE CLEAR.
 32803
 32804	050640				C27100:	SFLAG			^;CLEAR ARITHMETIC FLAGS
 32805
 32806	050640	205 01 0 00 000000 		MOVSI	1,
 32807	050641	255 17 0 00 050642 		JFCL	17,.+1	;RESET ALL FLAGS
 32808	050642	254 02 0 01 050643 		JRST	2,.+1(1)		;SET  FLAG
 32809	050643	265 00 0 00 050644 		JSP	.+1		;SAVE FLAGS
 32810	050644	603 00 0 00 001600 		TLNE	1600		;PASS IF THESE BITS ARE CLEAR
 32811						STOP^
 32812	050645	254 04 0 00 050646 		HALT	.+1		;TEST FAILED IF PROGRAM HALTS HERE
 32813	050646	324 00 0 00 050647 		JUMPA	.+1		;IF TEST FAILS, CHANGE THIS INSTRUCTION (JUMPA .+1) TO
 32814									;JUMPA X (X IS THE ADDRESS OF THE FIRST INSTRUCTION
 32815									;IN THE SUBTEST) TO LOOP ON ERROR^
 32816
 32817					;**********
DFKAA PDP-10 KL10 BASIC INSTRUCTION DIAGNOSTIC (1) VER 0,2	MACRO %52(537) 09:34 31-JAN-77 PAGE 19
DFKAA5	MAC	25-AUG-75 14:00		TEST OF MSCL FWT INSTRUCTIONS                                                      SEQ 0735

 32818					SUBTTL	TEST OF MSCL FWT INSTRUCTIONS
 32819
 32820					;**********
 32821
 32822					;THIS TEST VERIFIES THAT MOVEM PLACES C(AC) INTO E AND DOES
 32823					;NOT MODIFY C(AC).
 32824					;IN THIS CASE, C(AC)=252525,,252525 ANS C(E)=707070,,707070.
 32825					;HENCE, THE RESULT IN E SHOULD BE 252525,,252525.
 32826					;THE AC IS CHECKED FOR 252525,,252525.  IF ANY OTHER NUMBER IS
 32827					;FOUND IN THE AC, IT WAS CLOBBERED BY MOVEM, AND THIS TEST FAILS.
 32828					;E IS CHECKED FOR 252525,,252525.  IF ANY OTHER NUMBER IS FOUND
 32829					;IN E, IT WAS UPDATED INCORRECTLY BY MOVEM.
 32830
 32831	050647	200 00 0 00 070614 	C50000:	MOVE	[252525,,252525]	;PRELOAD AC WITH 252525,,252525
 32832	050650	200 01 0 00 070332 		MOVE	1,[707070,,707070]	;PRELOAD E WITH 707070,,707070
 32833	050651	202 00 0 00 000001 		MOVEM	0,1			;*MOVEM SHOULD PLACE 252525,,252525
 32834										;INTO E AND NOT AFFECT THE AC
 32835	050652	312 00 0 00 070614 		CAME	0,[252525,,252525]	;PASS IF C(AC) IS NOT CLOBBERED
 32836						STOP^
 32837	050653	254 04 0 00 050654 		HALT	.+1		;TEST FAILED IF PROGRAM HALTS HERE
 32838	050654	324 00 0 00 050655 		JUMPA	.+1		;IF TEST FAILS, CHANGE THIS INSTRUCTION (JUMPA .+1) TO
 32839									;JUMPA X (X IS THE ADDRESS OF THE FIRST INSTRUCTION
 32840									;IN THE SUBTEST) TO LOOP ON ERROR^
 32841	050655	312 01 0 00 070614 		CAME	1,[252525,,252525]	;PASS IF E WAS UPDATED CORRECTLY
 32842						STOP^
 32843	050656	254 04 0 00 050657 		HALT	.+1		;TEST FAILED IF PROGRAM HALTS HERE
 32844	050657	324 00 0 00 050660 		JUMPA	.+1		;IF TEST FAILS, CHANGE THIS INSTRUCTION (JUMPA .+1) TO
 32845									;JUMPA X (X IS THE ADDRESS OF THE FIRST INSTRUCTION
 32846									;IN THE SUBTEST) TO LOOP ON ERROR^
 32847
 32848					;**********
 32849
 32850					;THIS TEST VERIFIES THAT MOVES PLACES C(E) INTO THE AC IF AC IS NON-ZERO.
 32851					;IN THIS CASE, C(AC)=707070,,707070 AND C(E)=123456,,123456.  HENCE, BOTH
 32852					;THE AC AND E SHOULD CONTAIN 123456,,123456 AFTER MOVES IS EXECUTED.
 32853					;BOTH AC AND E ARE CHECKED FOR 123456,,123456.  IF EITHER AC OR E
 32854					;CONTAIN A DIFFERENT RESULT, THIS TEST FAILS
 32855
 32856	050660	200 02 0 00 070332 	C50100:	MOVE	2,[707070,,707070]	;PRELOAD AC WITH 707070,,707070
 32857	050661	200 01 0 00 070637 		MOVE	1,[123456,,123456]	;PRELOAD E WITH 123456,,123456
 32858	050662	203 02 0 00 000001 		MOVES	2,1			;*MOVES SHOULD PLACE 123456,,123456
 32859										;INTO BOTH AC AND E
 32860	050663	312 02 0 00 070637 		CAME	2,[123456,,123456]	;PASS IF C(AC)=123456,,123456
 32861						STOP^
 32862	050664	254 04 0 00 050665 		HALT	.+1		;TEST FAILED IF PROGRAM HALTS HERE
 32863	050665	324 00 0 00 050666 		JUMPA	.+1		;IF TEST FAILS, CHANGE THIS INSTRUCTION (JUMPA .+1) TO
 32864									;JUMPA X (X IS THE ADDRESS OF THE FIRST INSTRUCTION
 32865									;IN THE SUBTEST) TO LOOP ON ERROR^
 32866	050666	312 01 0 00 070637 		CAME	1,[123456,,123456]	;PASS IF C(E)=123456,,123456
 32867						STOP^
 32868	050667	254 04 0 00 050670 		HALT	.+1		;TEST FAILED IF PROGRAM HALTS HERE
 32869	050670	324 00 0 00 050671 		JUMPA	.+1		;IF TEST FAILS, CHANGE THIS INSTRUCTION (JUMPA .+1) TO
 32870									;JUMPA X (X IS THE ADDRESS OF THE FIRST INSTRUCTION
 32871									;IN THE SUBTEST) TO LOOP ON ERROR^
 32872
DFKAA PDP-10 KL10 BASIC INSTRUCTION DIAGNOSTIC (1) VER 0,2	MACRO %52(537) 09:34 31-JAN-77 PAGE 19-1
DFKAA5	MAC	25-AUG-75 14:00		TEST OF MSCL FWT INSTRUCTIONS                                                      SEQ 0736

 32873					;**********
DFKAA PDP-10 KL10 BASIC INSTRUCTION DIAGNOSTIC (1) VER 0,2	MACRO %52(537) 09:34 31-JAN-77 PAGE 20
DFKAA5	MAC	25-AUG-75 14:00		TEST OF MSCL FWT INSTRUCTIONS                                                      SEQ 0737

 32874					;THIS TEST VERIFIES THAT MOVES IS A NO-OP IF AC=0
 32875					;IN THIS CASE, C(AC)=-1,,-1 AND C(E)=707070,,707070
 32876					;AFTER MOVES IS EXECUTED, AC AND E ARE CHECKED FOR THEIR ORIGINAL DATA.
 32877					;IF EITHER C(AC) OR C(E) CHANGED AS A RESULT OF MOVES, THIS TEST FAILS.
 32878
 32879	050671	200 01 0 00 070332 	C50110:	MOVE	1,[707070,,707070]	;PRELOAD E WITH 707070,,707070
 32880	050672	474 00 0 00 000000 		SETO				;PRELOAD AC WITH -1,,-1
 32881	050673	203 00 0 00 000001 		MOVES	0,1			;*MOVES SHOULD FUNCTION AS A NO-OP
 32882	050674	312 00 0 00 070254 		CAME	0,[-1,,-1]		;PASS IF C(AC) WAS NOT MODIFIED
 32883						STOP^
 32884	050675	254 04 0 00 050676 		HALT	.+1		;TEST FAILED IF PROGRAM HALTS HERE
 32885	050676	324 00 0 00 050677 		JUMPA	.+1		;IF TEST FAILS, CHANGE THIS INSTRUCTION (JUMPA .+1) TO
 32886									;JUMPA X (X IS THE ADDRESS OF THE FIRST INSTRUCTION
 32887									;IN THE SUBTEST) TO LOOP ON ERROR^
 32888	050677	312 01 0 00 070332 		CAME	1,[707070,,707070]	;PASS IF C(E) WAS NOT MODIFIED
 32889						STOP^
 32890	050700	254 04 0 00 050701 		HALT	.+1		;TEST FAILED IF PROGRAM HALTS HERE
 32891	050701	324 00 0 00 050702 		JUMPA	.+1		;IF TEST FAILS, CHANGE THIS INSTRUCTION (JUMPA .+1) TO
 32892									;JUMPA X (X IS THE ADDRESS OF THE FIRST INSTRUCTION
 32893									;IN THE SUBTEST) TO LOOP ON ERROR^
 32894
 32895					;**********
 32896
 32897					;THIS TEST VERIFIES THAT MOVSI LOADS THE WORD E,0 INTO THE AC.
 32898					;IN THIS CASE, C(AC)=707070,,707070 AND E=0,,-1.
 32899					;HENCE, THE RESULT IN THE AC SHOULD BE -1,,0.
 32900					;THE AC IS CHECKED FOR -1,,0.  IF C(AC)=-1,,0, THIS TEST PASSES.
 32901
 32902	050702	200 01 0 00 070332 	C50200:	MOVE	1,[707070,,707070]	;PRELOAD AC WITH 707070,,707070
 32903	050703	205 01 0 00 777777 		MOVSI	1,-1			;*MOVSI SHOULD PLACE -1,,0 INTO THE AC
 32904	050704	312 01 0 00 070331 		CAME	1,[-1,,0]		;PASS IF C(AC)=1,,0
 32905						STOP^
 32906	050705	254 04 0 00 050706 		HALT	.+1		;TEST FAILED IF PROGRAM HALTS HERE
 32907	050706	324 00 0 00 050707 		JUMPA	.+1		;IF TEST FAILS, CHANGE THIS INSTRUCTION (JUMPA .+1) TO
 32908									;JUMPA X (X IS THE ADDRESS OF THE FIRST INSTRUCTION
 32909									;IN THE SUBTEST) TO LOOP ON ERROR^
 32910
 32911					;**********
DFKAA PDP-10 KL10 BASIC INSTRUCTION DIAGNOSTIC (1) VER 0,2	MACRO %52(537) 09:34 31-JAN-77 PAGE 21
DFKAA5	MAC	25-AUG-75 14:00		TEST OF MSCL FWT INSTRUCTIONS                                                      SEQ 0738

 32912					;THIS TEST VERIFIES THAT MOVNM PLACES THE NEGATIVE OF C(AC)
 32913					;INTO E.  IN THIS CASE, C(AC)=-1,,-1 AND C(E)=-1,,-3.
 32914					;HENCE, THE RESULT IN THE AC SHOULD BE -1,,-1 AND THE RESULT
 32915					;IN E SHOULD BE 0,,1
 32916
 32917	050707	474 01 0 00 000000 	C50300:	SETO	1,			;PRELOAD AC WITH -1,,-1
 32918	050710	200 02 0 00 070334 		MOVE	2,[-1,,-3]		;PRELOAD E WITH -1,,-3
 32919	050711	212 01 0 00 000002 		MOVNM	1,2			;*MOVNM SHOULD PLACE 0,,1 INTO E
 32920										;AND NOT AFFTECT C(AC)
 32921	050712	312 01 0 00 070254 		CAME	1,[-1]			;PASS IF C(AC)=-1,,-1
 32922						STOP^
 32923	050713	254 04 0 00 050714 		HALT	.+1		;TEST FAILED IF PROGRAM HALTS HERE
 32924	050714	324 00 0 00 050715 		JUMPA	.+1		;IF TEST FAILS, CHANGE THIS INSTRUCTION (JUMPA .+1) TO
 32925									;JUMPA X (X IS THE ADDRESS OF THE FIRST INSTRUCTION
 32926									;IN THE SUBTEST) TO LOOP ON ERROR^
 32927	050715	302 02 0 00 000001 		CAIE	2,1			;PASS IF C(E)=0,,1
 32928						STOP^
 32929	050716	254 04 0 00 050717 		HALT	.+1		;TEST FAILED IF PROGRAM HALTS HERE
 32930	050717	324 00 0 00 050720 		JUMPA	.+1		;IF TEST FAILS, CHANGE THIS INSTRUCTION (JUMPA .+1) TO
 32931									;JUMPA X (X IS THE ADDRESS OF THE FIRST INSTRUCTION
 32932									;IN THE SUBTEST) TO LOOP ON ERROR^
 32933
 32934					;**********
 32935
 32936					;THIS TEST VERIFIES THAT MOVNM PLACES THE NEGATIVE OF C(AC)
 32937					;INTO E.  IN THIS CASE, C(AC)=-1,,-1 AND C(E)=-1,,-3.
 32938					;HENCE, THE RESULT IN THE AC SHOULD BE -1,,-1 AND THE RESULT
 32939					;IN E SHOULD BE 0,,1
 32940
 32941	050720	474 01 0 00 000000 	C50301:	SETO	1,			;PRELOAD AC WITH -1,,-1
 32942	050721	200 02 0 00 070334 		MOVE	2,[-1,,-3]		;PRELOAD E WITH -1,,-3
 32943	050722	202 02 0 00 050734 		MOVEM	2,E50301
 32944	050723	212 01 0 00 050734 		MOVNM	1,E50301		;*MOVNM SHOULD PLACE 0,,1 INTO E
 32945										;AND NOT AFFTECT C(AC)
 32946	050724	312 01 0 00 070254 		CAME	1,[-1]			;PASS IF C(AC)=-1,,-1
 32947						STOP^
 32948	050725	254 04 0 00 050726 		HALT	.+1		;TEST FAILED IF PROGRAM HALTS HERE
 32949	050726	324 00 0 00 050727 		JUMPA	.+1		;IF TEST FAILS, CHANGE THIS INSTRUCTION (JUMPA .+1) TO
 32950									;JUMPA X (X IS THE ADDRESS OF THE FIRST INSTRUCTION
 32951									;IN THE SUBTEST) TO LOOP ON ERROR^
 32952	050727	200 02 0 00 050734 		MOVE	2,E50301
 32953	050730	302 02 0 00 000001 		CAIE	2,1			;PASS IF C(E)=0,,1
 32954						STOP^
 32955	050731	254 04 0 00 050732 		HALT	.+1		;TEST FAILED IF PROGRAM HALTS HERE
 32956	050732	324 00 0 00 050733 		JUMPA	.+1		;IF TEST FAILS, CHANGE THIS INSTRUCTION (JUMPA .+1) TO
 32957									;JUMPA X (X IS THE ADDRESS OF THE FIRST INSTRUCTION
 32958									;IN THE SUBTEST) TO LOOP ON ERROR^
 32959
 32960	050733	334 00 0 00 000000 		SKIPA				;GO TO NEXT TEST
 32961	050734	000000	000000		E50301:	0				;TESTED MEMORY LOCATION
 32962
 32963					;**********
DFKAA PDP-10 KL10 BASIC INSTRUCTION DIAGNOSTIC (1) VER 0,2	MACRO %52(537) 09:34 31-JAN-77 PAGE 22
DFKAA5	MAC	25-AUG-75 14:00		TEST OF MSCL FWT INSTRUCTIONS                                                      SEQ 0739

 32964					;THIS TEST VERIFIES THAT MOVNS PLACES THE NEGATIVE OF C(E) INTO E
 32965					;AND INTO THE AC IF THE AC IS NON-ZERO.  IN THIS CASE, AC=0,
 32966					;C(AC)=0 AND C(E)=0,,1
 32967					;HENCE, THE RESULT IN THE AC SHOULD BE 0
 32968					;AND THE RESULT IN E SHOULD BE -1,,-1
 32969
 32970	050735	400 00 0 00 000000 	C50400:	SETZ				;CLEAR AC
 32971	050736	201 02 0 00 000001 		MOVEI	2,1			;PRELOAD E WITH 0,,1
 32972	050737	213 00 0 00 000002 		MOVNS	0,2			;*MOVNS SHOULD PLACE -1,,-1 INTO E
 32973										;AND SHOULD NOT AFFECT THE AC
 32974	050740	332 00 0 00 000000 		SKIPE				;PASS IF THE AC IS UNALTERED
 32975						STOP^
 32976	050741	254 04 0 00 050742 		HALT	.+1		;TEST FAILED IF PROGRAM HALTS HERE
 32977	050742	324 00 0 00 050743 		JUMPA	.+1		;IF TEST FAILS, CHANGE THIS INSTRUCTION (JUMPA .+1) TO
 32978									;JUMPA X (X IS THE ADDRESS OF THE FIRST INSTRUCTION
 32979									;IN THE SUBTEST) TO LOOP ON ERROR^
 32980	050743	312 02 0 00 070254 		CAME	2,[-1]			;PASS IF C(E)=-1,,-1
 32981						STOP^
 32982	050744	254 04 0 00 050745 		HALT	.+1		;TEST FAILED IF PROGRAM HALTS HERE
 32983	050745	324 00 0 00 050746 		JUMPA	.+1		;IF TEST FAILS, CHANGE THIS INSTRUCTION (JUMPA .+1) TO
 32984									;JUMPA X (X IS THE ADDRESS OF THE FIRST INSTRUCTION
 32985									;IN THE SUBTEST) TO LOOP ON ERROR^
 32986
 32987					;**********
DFKAA PDP-10 KL10 BASIC INSTRUCTION DIAGNOSTIC (1) VER 0,2	MACRO %52(537) 09:34 31-JAN-77 PAGE 23
DFKAA5	MAC	25-AUG-75 14:00		TEST OF MSCL FWT INSTRUCTIONS                                                      SEQ 0740

 32988					;THIS TEST VERIFIES THAT MOVNS PLACES THE NEGATIVE OF C(E) INTO E
 32989					;AND INTO THE AC IF THE AC IS NON-ZO.  IN THIS CASE, AC=0,
 32990					;C(AC)=0 AND C(E)=0,,1
 32991					;HENCE, THE RESULT IN THE AC SHOULD BE 0
 32992					;AND THE RESULT IN E SHOULD BE -1,,-1
 32993
 32994	050746	400 00 0 00 000000 	C50401:	SETZ				;CLEAR AC
 32995	050747	201 02 0 00 000001 		MOVEI	2,1			;PRELOAD E WITH 0,,1
 32996	050750	202 02 0 00 050762 		MOVEM	2,E50401
 32997	050751	213 00 0 00 050762 		MOVNS	0,E50401		;*MOVNS SHOULD PLACE -1,,-1 INTO E
 32998										;AND SHOULD NOT AFFECT THE AC
 32999	050752	332 00 0 00 000000 		SKIPE				;PASS IF THE AC IS UNALTERED
 33000						STOP^
 33001	050753	254 04 0 00 050754 		HALT	.+1		;TEST FAILED IF PROGRAM HALTS HERE
 33002	050754	324 00 0 00 050755 		JUMPA	.+1		;IF TEST FAILS, CHANGE THIS INSTRUCTION (JUMPA .+1) TO
 33003									;JUMPA X (X IS THE ADDRESS OF THE FIRST INSTRUCTION
 33004									;IN THE SUBTEST) TO LOOP ON ERROR^
 33005	050755	200 02 0 00 050762 		MOVE	2,E50401
 33006	050756	312 02 0 00 070254 		CAME	2,[-1]			;PASS IF C(E)=-1,,-1
 33007						STOP^
 33008	050757	254 04 0 00 050760 		HALT	.+1		;TEST FAILED IF PROGRAM HALTS HERE
 33009	050760	324 00 0 00 050761 		JUMPA	.+1		;IF TEST FAILS, CHANGE THIS INSTRUCTION (JUMPA .+1) TO
 33010									;JUMPA X (X IS THE ADDRESS OF THE FIRST INSTRUCTION
 33011									;IN THE SUBTEST) TO LOOP ON ERROR^
 33012
 33013	050761	334 00 0 00 000000 		SKIPA				;GO TO NEXT TEST
 33014	050762	000000	000000		E50401:	0				;TESTED MEMORY LOCATION
 33015
 33016					;**********
DFKAA PDP-10 KL10 BASIC INSTRUCTION DIAGNOSTIC (1) VER 0,2	MACRO %52(537) 09:34 31-JAN-77 PAGE 24
DFKAA5	MAC	25-AUG-75 14:00		TEST OF MSCL FWT INSTRUCTIONS                                                      SEQ 0741

 33017					;THIS TEST VERIFIES THAT MOVNS PLACES THE NEGATIVE OF C(E) INTO E
 33018					;AND INTO THE AC IF THE AC IS NON-ZERO.  IN THIS CASE, AC=1,
 33019					;C(AC=0 AND C(E)=3
 33020					;HENCE, THE RESULT IN THE AC SHOULD BE -1,,3
 33021					;AND THE RESULT IN E SHOULD BE -1,,3.
 33022
 33023	050763	400 01 0 00 000000 	C50410:	SETZ	1,			;CLEAR AC
 33024	050764	201 02 0 00 000003 		MOVEI	2,3			;PRELOAD WITH 0,,3
 33025	050765	213 01 0 00 000002 		MOVNS	1,2			;*MOVNS SHOULD PLACE -1,,-3 INTO E
 33026										;AND -1,,-3 INTO THE AC
 33027	050766	312 01 0 00 070334 		CAME	1,[-1,,-3]		;PASS IF C(AC)=-1,,-3
 33028						STOP^
 33029	050767	254 04 0 00 050770 		HALT	.+1		;TEST FAILED IF PROGRAM HALTS HERE
 33030	050770	324 00 0 00 050771 		JUMPA	.+1		;IF TEST FAILS, CHANGE THIS INSTRUCTION (JUMPA .+1) TO
 33031									;JUMPA X (X IS THE ADDRESS OF THE FIRST INSTRUCTION
 33032									;IN THE SUBTEST) TO LOOP ON ERROR^
 33033	050771	312 02 0 00 070334 		CAME	2,[-1,,-3]		;PASS IF C(E)=-1,,-3
 33034						STOP^
 33035	050772	254 04 0 00 050773 		HALT	.+1		;TEST FAILED IF PROGRAM HALTS HERE
 33036	050773	324 00 0 00 050774 		JUMPA	.+1		;IF TEST FAILS, CHANGE THIS INSTRUCTION (JUMPA .+1) TO
 33037									;JUMPA X (X IS THE ADDRESS OF THE FIRST INSTRUCTION
 33038									;IN THE SUBTEST) TO LOOP ON ERROR^
 33039
 33040					;**********
 33041
 33042					;THIS TEST VERIFIES THAT MOVMI MOVES THE WORD 0,,E INTO THE AC.
 33043					;IN THIS CASE, C(AC)=0 AND E=0,,-2.  HENCE, THE RESULT IN THE AC
 33044					;SHOULD BE 0,,-2.
 33045
 33046	050774	400 01 0 00 000000 	C50500:	SETZ	1,			;CLEAR AC
 33047	050775	215 01 0 00 777776 		MOVMI	1,-2			;*MOVMI SHOULD PLACE 0,,-2 INTO AC
 33048	050776	302 01 0 00 777776 		CAIE	1,-2			;PASS IF C(AC)=0,,-2
 33049						STOP^
 33050	050777	254 04 0 00 051000 		HALT	.+1		;TEST FAILED IF PROGRAM HALTS HERE
 33051	051000	324 00 0 00 051001 		JUMPA	.+1		;IF TEST FAILS, CHANGE THIS INSTRUCTION (JUMPA .+1) TO
 33052									;JUMPA X (X IS THE ADDRESS OF THE FIRST INSTRUCTION
 33053									;IN THE SUBTEST) TO LOOP ON ERROR^
 33054
 33055					;**********
DFKAA PDP-10 KL10 BASIC INSTRUCTION DIAGNOSTIC (1) VER 0,2	MACRO %52(537) 09:34 31-JAN-77 PAGE 25
DFKAA5	MAC	25-AUG-75 14:00		TEST OF MSCL FWT INSTRUCTIONS                                                      SEQ 0742

 33056					;THIS TEST VERIFIES THAT MOVM MOVES THE MAGNITUDE OF C(E) NTO THE AC.
 33057					;IN THIS CASE, C(AC)=0 AND C(E)=-1,,-2.  HENCE, THE RESULT IN THE AC
 33058					;SHOULD BE 0,,2.
 33059
 33060	051001	400 01 0 00 000000 	C50501:	SETZ	1,			;CLEAR AC
 33061	051002	200 03 0 00 070333 		MOVE	3,[-2]			;PRELOAD E WITH -1,,-2
 33062	051003	214 01 0 00 000003 		MOVM	1,3			;*MOVM SHOULD PLACE 0,,2 INTO AC
 33063	051004	302 01 0 00 000002 		CAIE	1,2			;PASS IF C(AC)=0,,2
 33064						STOP^
 33065	051005	254 04 0 00 051006 		HALT	.+1		;TEST FAILED IF PROGRAM HALTS HERE
 33066	051006	324 00 0 00 051007 		JUMPA	.+1		;IF TEST FAILS, CHANGE THIS INSTRUCTION (JUMPA .+1) TO
 33067									;JUMPA X (X IS THE ADDRESS OF THE FIRST INSTRUCTION
 33068									;IN THE SUBTEST) TO LOOP ON ERROR^
 33069
 33070					;**********
DFKAA PDP-10 KL10 BASIC INSTRUCTION DIAGNOSTIC (1) VER 0,2	MACRO %52(537) 09:34 31-JAN-77 PAGE 26
DFKAA5	MAC	25-AUG-75 14:00		TEST OF MSCL FWT INSTRUCTIONS                                                      SEQ 0743

 33071					;THIS TEST VERIFIES THAT MOVMM PLACES THE MAGNITUDE OF C(AC)
 33072					;INTO E.  IN THIS CASE, C(AC)=-1,,-2 AND C(E)=0.  HENCE, THE
 33073					;RESULT IN E SHOULD BE 0,,2 AND C(AC) SHOULD REMAIN UNCHANGED.
 33074
 33075	051007	200 01 0 00 070333 	C50600:	MOVE	1,[-1,,-2]		;PRELOAD AC WITH -1,,-2
 33076	051010	400 02 0 00 000000 		SETZ	2,			;CLEAR E
 33077	051011	216 01 0 00 000002 		MOVMM	1,2			;*MOVMM SHOULD PLACE 0,,2 INTO E
 33078										;AND SHOULD NOT CHANGE C(AC)
 33079	051012	312 01 0 00 070333 		CAME	1,[-1,,-2]		;PASS IF C(AC) IS NOT ALTERED
 33080						STOP^
 33081	051013	254 04 0 00 051014 		HALT	.+1		;TEST FAILED IF PROGRAM HALTS HERE
 33082	051014	324 00 0 00 051015 		JUMPA	.+1		;IF TEST FAILS, CHANGE THIS INSTRUCTION (JUMPA .+1) TO
 33083									;JUMPA X (X IS THE ADDRESS OF THE FIRST INSTRUCTION
 33084									;IN THE SUBTEST) TO LOOP ON ERROR^
 33085	051015	302 02 0 00 000002 		CAIE	2,2			;PASS IF C(E)=0,,2
 33086						STOP^
 33087	051016	254 04 0 00 051017 		HALT	.+1		;TEST FAILED IF PROGRAM HALTS HERE
 33088	051017	324 00 0 00 051020 		JUMPA	.+1		;IF TEST FAILS, CHANGE THIS INSTRUCTION (JUMPA .+1) TO
 33089									;JUMPA X (X IS THE ADDRESS OF THE FIRST INSTRUCTION
 33090									;IN THE SUBTEST) TO LOOP ON ERROR^
 33091
 33092					;**********
 33093
 33094					;THIS TEST VERIFIES THAT MONMS PLACES THE MAGNITUDE OF C(E) INTO E
 33095					;AND INTO THE AC IF THE AC IS NON-ZERO.  IN THIS CASE, AC=0, C(AC)=0
 33096					;AND C(E)=-1,,-2.
 33097					;HENCE, THE RESULT IN THE AC SHOULD BE 0 AND THE RESULT IN
 33098					;E SHOULD BE 0,,2.
 33099
 33100	051020	400 00 0 00 000000 	C50700:	SETZ			;CLEAR AC
 33101	051021	200 02 0 00 070333 		MOVE	2,[-1,,-2]		;PRELOAD E WITH -1,,-1
 33102	051022	217 00 0 00 000002 		MOVMS	0,2			;*MOVMS	SHOULD PLACE 0,,1 INTO E
 33103										;AND SHOULD NOT CHANGE C(AC)
 33104	051023	332 00 0 00 000000 		SKIPE				;PASS IF C(AC) IS UNALTERED
 33105						STOP^
 33106	051024	254 04 0 00 051025 		HALT	.+1		;TEST FAILED IF PROGRAM HALTS HERE
 33107	051025	324 00 0 00 051026 		JUMPA	.+1		;IF TEST FAILS, CHANGE THIS INSTRUCTION (JUMPA .+1) TO
 33108									;JUMPA X (X IS THE ADDRESS OF THE FIRST INSTRUCTION
 33109									;IN THE SUBTEST) TO LOOP ON ERROR^
 33110	051026	302 02 0 00 000002 		CAIE	2,2			;PASS IF C(E)=0,,2
 33111						STOP^
 33112	051027	254 04 0 00 051030 		HALT	.+1		;TEST FAILED IF PROGRAM HALTS HERE
 33113	051030	324 00 0 00 051031 		JUMPA	.+1		;IF TEST FAILS, CHANGE THIS INSTRUCTION (JUMPA .+1) TO
 33114									;JUMPA X (X IS THE ADDRESS OF THE FIRST INSTRUCTION
 33115									;IN THE SUBTEST) TO LOOP ON ERROR^
 33116
 33117					;**********
DFKAA PDP-10 KL10 BASIC INSTRUCTION DIAGNOSTIC (1) VER 0,2	MACRO %52(537) 09:34 31-JAN-77 PAGE 27
DFKAA5	MAC	25-AUG-75 14:00		TEST OF MSCL FWT INSTRUCTIONS                                                      SEQ 0744

 33118					;THIS TEST VERIFIES THAT MOVMS PLACES THE MAGNITUDE OF C(E) INTO E
 33119					;AND INTO THE AC IF THE AC IS NON-ZERO.  IN THIS CASE, AC=1, C(AC)=-1,,-1
 33120					;AND C(E)=-1,,-2.
 33121					;HENCE, THE RESULT IN THE AC SHOULD BE 0,,2 AND THE RESULT
 33122					;IN E SHOULD BE 0,,2.
 33123
 33124	051031	474 01 0 00 000000 	C50710:	SETO	1,			;PRELOAD AC WITH -1,,-1
 33125	051032	200 02 0 00 070333 		MOVE	2,[-1,,-2]		;PRELOAD E WITH -1,,-2
 33126	051033	217 01 0 00 000002 		MOVMS	1,2			;*MOVMS SHOULD PLACE 0,,2 INTO E
 33127										;AND SHOULD PLACE 0,,2 INTO THE AC
 33128	051034	302 01 0 00 000002 		CAIE	1,2			;PASS IF C(AC)=0,,2
 33129						STOP^
 33130	051035	254 04 0 00 051036 		HALT	.+1		;TEST FAILED IF PROGRAM HALTS HERE
 33131	051036	324 00 0 00 051037 		JUMPA	.+1		;IF TEST FAILS, CHANGE THIS INSTRUCTION (JUMPA .+1) TO
 33132									;JUMPA X (X IS THE ADDRESS OF THE FIRST INSTRUCTION
 33133									;IN THE SUBTEST) TO LOOP ON ERROR^
 33134	051037	302 02 0 00 000002 		CAIE	2,2			;PASS IF C(E)=0,,2
 33135						STOP^
 33136	051040	254 04 0 00 051041 		HALT	.+1		;TEST FAILED IF PROGRAM HALTS HERE
 33137	051041	324 00 0 00 051042 		JUMPA	.+1		;IF TEST FAILS, CHANGE THIS INSTRUCTION (JUMPA .+1) TO
 33138									;JUMPA X (X IS THE ADDRESS OF THE FIRST INSTRUCTION
 33139									;IN THE SUBTEST) TO LOOP ON ERROR^
 33140
 33141					;**********
DFKAA PDP-10 KL10 BASIC INSTRUCTION DIAGNOSTIC (1) VER 0,2	MACRO %52(537) 09:34 31-JAN-77 PAGE 28
DFKAA5	MAC	25-AUG-75 14:00		TEST OF MSCL ADD/SUB INSTRUCTIONS                                                  SEQ 0745

 33142					SUBTTL	TEST OF MSCL ADD/SUB INSTRUCTIONS
 33143
 33144					;**********
 33145
 33146					;THIS TEST VERIFIES THAT SUBI SUBTRACTS THE WORD 0,,E FROM C(AC)
 33147					;AND PLACES THE RESULT INTO THE AC.  IN THIS CASE, C(AC)=70 AND
 33148					;E=0,,2.  HENCE, THE RESULT IN THE AC SHOULD BE 66.
 33149
 33150	051042	201 01 0 00 000070 	C51000:	MOVEI	1,70			;PRELOAD AC WITH 70
 33151	051043	275 01 0 00 000002 		SUBI	1,2			;*SUBI SHOULD PLACE 66 INTO AC
 33152	051044	302 01 0 00 000066 		CAIE	1,66			;PASS IF C(AC)=66
 33153						STOP^
 33154	051045	254 04 0 00 051046 		HALT	.+1		;TEST FAILED IF PROGRAM HALTS HERE
 33155	051046	324 00 0 00 051047 		JUMPA	.+1		;IF TEST FAILS, CHANGE THIS INSTRUCTION (JUMPA .+1) TO
 33156									;JUMPA X (X IS THE ADDRESS OF THE FIRST INSTRUCTION
 33157									;IN THE SUBTEST) TO LOOP ON ERROR^
 33158
 33159					;**********
 33160
 33161					;THIS TEST VERIFIES THAT SUBM SUBTRACTS C(E) FROM C(AC) AND
 33162					;PLACES THE RESULT INTO E.  THE AC IS UNAFFECTED.  IN THIS CASE,
 33163					;C(AC)=100 AND C(E)=37.  HENCE, THE RESULTS IN AC AND
 33164					;E SHOULD BE 0,,100 AND 0,,41 RESPECTIVELY.
 33165
 33166	051047	201 01 0 00 000100 	C51100:	MOVEI	1,100			;PRELOAD AC WITH 0,,100
 33167	051050	201 02 0 00 000037 		MOVEI	2,37			;PRELOAD E WITH 0,,37
 33168	051051	276 01 0 00 000002 		SUBM	1,2			;*SUBM SHOULD PLACE
 33169										;0,,41 INTO E AND NOT CHANGE C(AC)
 33170	051052	302 01 0 00 000100 		CAIE	1,100			;PASS IF C(AC) IS UNCHANGED
 33171						STOP^
 33172	051053	254 04 0 00 051054 		HALT	.+1		;TEST FAILED IF PROGRAM HALTS HERE
 33173	051054	324 00 0 00 051055 		JUMPA	.+1		;IF TEST FAILS, CHANGE THIS INSTRUCTION (JUMPA .+1) TO
 33174									;JUMPA X (X IS THE ADDRESS OF THE FIRST INSTRUCTION
 33175									;IN THE SUBTEST) TO LOOP ON ERROR^
 33176	051055	302 02 0 00 000041 		CAIE	2,41			;PASS IF C(E)=0,,41
 33177						STOP^
 33178	051056	254 04 0 00 051057 		HALT	.+1		;TEST FAILED IF PROGRAM HALTS HERE
 33179	051057	324 00 0 00 051060 		JUMPA	.+1		;IF TEST FAILS, CHANGE THIS INSTRUCTION (JUMPA .+1) TO
 33180									;JUMPA X (X IS THE ADDRESS OF THE FIRST INSTRUCTION
 33181									;IN THE SUBTEST) TO LOOP ON ERROR^
 33182
 33183					;**********
DFKAA PDP-10 KL10 BASIC INSTRUCTION DIAGNOSTIC (1) VER 0,2	MACRO %52(537) 09:34 31-JAN-77 PAGE 29
DFKAA5	MAC	25-AUG-75 14:00		TEST OF MSCL ADD/SUB INSTRUCTIONS                                                  SEQ 0746

 33184					;THIS TEST VERIFIES THAT SUBM SUBTRACTS C(E) FROM C(AC) AND
 33185					;PLACES THE RESULT INTO E.  THE AC IS UNAFFECTED.  IN THIS CASE,
 33186					;C(AC)=100 AND C(E)=37.  HENCE, THE RESULTS IN AC AND
 33187					;E SHOULD BE 0,,100 AND 0,,41 RESPECTIVELY.
 33188
 33189	051060	201 01 0 00 000100 	C51101:	MOVEI	1,100			;PRELOAD AC WITH 0,,100
 33190	051061	201 02 0 00 000037 		MOVEI	2,37			;PRELOAD E WITH 0,,37
 33191	051062	202 02 0 00 051074 		MOVEM	2,E51101
 33192	051063	276 01 0 00 051074 		SUBM	1,E51101		;*SUBM SHOULD PLACE
 33193										;0,,41 INTO E AND NOT CHANGE C(AC)
 33194	051064	302 01 0 00 000100 		CAIE	1,100			;PASS IF C(AC) IS UNCHANGED
 33195						STOP^
 33196	051065	254 04 0 00 051066 		HALT	.+1		;TEST FAILED IF PROGRAM HALTS HERE
 33197	051066	324 00 0 00 051067 		JUMPA	.+1		;IF TEST FAILS, CHANGE THIS INSTRUCTION (JUMPA .+1) TO
 33198									;JUMPA X (X IS THE ADDRESS OF THE FIRST INSTRUCTION
 33199									;IN THE SUBTEST) TO LOOP ON ERROR^
 33200	051067	200 02 0 00 051074 		MOVE	2,E51101
 33201	051070	302 02 0 00 000041 		CAIE	2,41			;PASS IF C(E)=0,,41
 33202						STOP^
 33203	051071	254 04 0 00 051072 		HALT	.+1		;TEST FAILED IF PROGRAM HALTS HERE
 33204	051072	324 00 0 00 051073 		JUMPA	.+1		;IF TEST FAILS, CHANGE THIS INSTRUCTION (JUMPA .+1) TO
 33205									;JUMPA X (X IS THE ADDRESS OF THE FIRST INSTRUCTION
 33206									;IN THE SUBTEST) TO LOOP ON ERROR^
 33207
 33208	051073	334 00 0 00 000000 		SKIPA				;GO TO NEXT TEST
 33209	051074	000000	000000		E51101:	0				;TEST WORD MEMORY
 33210
 33211					;**********
DFKAA PDP-10 KL10 BASIC INSTRUCTION DIAGNOSTIC (1) VER 0,2	MACRO %52(537) 09:34 31-JAN-77 PAGE 30
DFKAA5	MAC	25-AUG-75 14:00		TEST OF MSCL ADD/SUB INSTRUCTIONS                                                  SEQ 0747

 33212					;THIS TEST VERIFIES THAT SUBB SUBTRACTS C(E) FROM C(AC) AND
 33213					;PLACES THE RESULT INTO BOTH AC AND E.  IN THIS CASE,
 33214					;C(AC)=0,,100 AND C(E)=0,,37.  HENCE, THE RESULT IN BOTH
 33215					;AC AND E SHOULD BE 0,,41.
 33216
 33217	051075	201 01 0 00 000100 	C51200:	MOVEI	1,100			;PRELOAD AC WITH 0,,100
 33218	051076	201 02 0 00 000037 		MOVEI	2,37			;PRELOAD E WITH O,,37
 33219	051077	277 01 0 00 000002 		SUBB	1,2			;*SUBB SHOULD PLACE 0,,41 INTO BOTH AC  AND E
 33220	051100	302 01 0 00 000041 		CAIE	1,41			;PASS IF C(AC)=0,,41
 33221						STOP^
 33222	051101	254 04 0 00 051102 		HALT	.+1		;TEST FAILED IF PROGRAM HALTS HERE
 33223	051102	324 00 0 00 051103 		JUMPA	.+1		;IF TEST FAILS, CHANGE THIS INSTRUCTION (JUMPA .+1) TO
 33224									;JUMPA X (X IS THE ADDRESS OF THE FIRST INSTRUCTION
 33225									;IN THE SUBTEST) TO LOOP ON ERROR^
 33226	051103	302 02 0 00 000041 		CAIE	2,41			;PASS IF C(E)=0,,41
 33227						STOP^
 33228	051104	254 04 0 00 051105 		HALT	.+1		;TEST FAILED IF PROGRAM HALTS HERE
 33229	051105	324 00 0 00 051106 		JUMPA	.+1		;IF TEST FAILS, CHANGE THIS INSTRUCTION (JUMPA .+1) TO
 33230									;JUMPA X (X IS THE ADDRESS OF THE FIRST INSTRUCTION
 33231									;IN THE SUBTEST) TO LOOP ON ERROR^
 33232
 33233					;**********
 33234
 33235					;THIS TEST VERIFIES THAT SUBB SUBTRACTS C(E) FROM C(AC) AND
 33236					;PLACES THE RESULT INTO BOTH AC AND E.  IN THIS CASE,
 33237					;C(AC)=0,,100 AND C(E)=0,,37.  HENCE, THE RESULT IN BOTH
 33238					;AC AND E SHOULD BE 0,,41.
 33239
 33240	051106	201 01 0 00 000100 	C51201:	MOVEI	1,100			;PRELOAD AC WITH 0,,100
 33241	051107	201 02 0 00 000037 		MOVEI	2,37			;PRELOAD E WITH O,,37
 33242	051110	202 02 0 00 051122 		MOVEM	2,E51201
 33243	051111	277 01 0 00 051122 		SUBB	1,E51201		;*SUBB SHOULD PLACE 0,,41 INTO BOTH AC  AND E
 33244	051112	302 01 0 00 000041 		CAIE	1,41			;PASS IF C(AC)=0,,41
 33245						STOP^
 33246	051113	254 04 0 00 051114 		HALT	.+1		;TEST FAILED IF PROGRAM HALTS HERE
 33247	051114	324 00 0 00 051115 		JUMPA	.+1		;IF TEST FAILS, CHANGE THIS INSTRUCTION (JUMPA .+1) TO
 33248									;JUMPA X (X IS THE ADDRESS OF THE FIRST INSTRUCTION
 33249									;IN THE SUBTEST) TO LOOP ON ERROR^
 33250	051115	200 02 0 00 051122 		MOVE	2,E51201
 33251	051116	302 02 0 00 000041 		CAIE	2,41			;PASS IF C(E)=0,,41
 33252						STOP^
 33253	051117	254 04 0 00 051120 		HALT	.+1		;TEST FAILED IF PROGRAM HALTS HERE
 33254	051120	324 00 0 00 051121 		JUMPA	.+1		;IF TEST FAILS, CHANGE THIS INSTRUCTION (JUMPA .+1) TO
 33255									;JUMPA X (X IS THE ADDRESS OF THE FIRST INSTRUCTION
 33256									;IN THE SUBTEST) TO LOOP ON ERROR^
 33257
 33258	051121	334 00 0 00 000000 		SKIPA				;GO TO NEXT TEST
 33259	051122	000000	000000		E51201:	0				;TEST WORD MEMORY
 33260
 33261					;**********
DFKAA PDP-10 KL10 BASIC INSTRUCTION DIAGNOSTIC (1) VER 0,2	MACRO %52(537) 09:34 31-JAN-77 PAGE 31
DFKAA5	MAC	25-AUG-75 14:00		TEST OF MSCL CAIX INSTRUCTIONS                                                     SEQ 0748

 33262					SUBTTL	TEST OF MSCL CAIX INSTRUCTIONS
 33263
 33264					;**********
 33265
 33266					;THIS TEST VERIFIES THAT CAIL COMPARES C(AC) WITH E AND
 33267					;SKIPS THE NEXT INSTRUCTION IF C(AC) IS LESS THAN E.
 33268					;IN THIS CASE, C(AC)=0,,1 AND E=0,,2
 33269					;HENCE, CAIL SHOULD SKIP THE NEXT INSTRUCTION.
 33270					;IF CAIL SKIPS THE NEXT INSTRUCTION, THIS TEST PASSES
 33271
 33272	051123	201 01 0 00 000001 	C51300:	MOVEI	1,1			;PRELOAD AC WITH 0,,1
 33273	051124	301 01 0 00 000002 		CAIL	1,2			;*CAIL SHOULD SKIP THE NEXT INSTRUCTION
 33274						STOP^
 33275	051125	254 04 0 00 051126 		HALT	.+1		;TEST FAILED IF PROGRAM HALTS HERE
 33276	051126	324 00 0 00 051127 		JUMPA	.+1		;IF TEST FAILS, CHANGE THIS INSTRUCTION (JUMPA .+1) TO
 33277									;JUMPA X (X IS THE ADDRESS OF THE FIRST INSTRUCTION
 33278									;IN THE SUBTEST) TO LOOP ON ERROR^
 33279
 33280					;**********
 33281
 33282					;THIS TEST VERIFIES THAT CAIL COMPARES C(AC) WITH E AND
 33283					;SKIPS THE NEXT INSTRUCTION IF C(AC) IS LESS THAN E.
 33284					;IN THIS CASE, C(AC)=0,,2 AND E=0,,2.
 33285					;HENCE, CAIL SHOULD NOT SKIP THE NEXT INSTRUCTION.
 33286					;IF CAIL DOES NOT SKIP THE NEXT INSTRUCTION, THIS TEST PASSES.
 33287
 33288	051127	201 01 0 00 000002 	C51310:	MOVEI	1,2			;PRELOAD AC WITH 0,,2
 33289	051130	301 01 0 00 000002 		CAIL	1,2			;*CAIL SHOULD NOT SKIP THE NEXT INSTRUCTION
 33290	051131	334 00 0 00 000000 		SKIPA				;PASS IF CAIL DOES NOT SKIP
 33291						STOP^
 33292	051132	254 04 0 00 051133 		HALT	.+1		;TEST FAILED IF PROGRAM HALTS HERE
 33293	051133	324 00 0 00 051134 		JUMPA	.+1		;IF TEST FAILS, CHANGE THIS INSTRUCTION (JUMPA .+1) TO
 33294									;JUMPA X (X IS THE ADDRESS OF THE FIRST INSTRUCTION
 33295									;IN THE SUBTEST) TO LOOP ON ERROR^
 33296
 33297					;**********
DFKAA PDP-10 KL10 BASIC INSTRUCTION DIAGNOSTIC (1) VER 0,2	MACRO %52(537) 09:34 31-JAN-77 PAGE 32
DFKAA5	MAC	25-AUG-75 14:00		TEST OF MSCL CAIX INSTRUCTIONS                                                     SEQ 0749

 33298					;THIS TEST VERIFIES THAT CAIL COMPARES C(AC) WITH E AND
 33299					;SKIPS THE NEXT INSTRUCTION IF C(AC) IS LESS THAN E
 33300					;IN THIS CASE, C(AC)=0,,3 AND E=0,,2
 33301					;HENCE, CAIL SHOULD NOT SKIP THE NEXT INSTRUCTION.
 33302					;IF CAIL DOES NOT SKIP THE NEXT INSTRUCTION, THIS TEST PASSES.
 33303
 33304	051134	201 01 0 00 000003 	C51320:	MOVEI	1,3			;PRELOAD AC WITH 0,,3
 33305	051135	301 01 0 00 000002 		CAIL	1,2			;*CAIL SHOULD SKIP THE NEXT INSTRUCTION
 33306	051136	334 00 0 00 000000 		SKIPA				;PASS IF CAIL DOES NOT SKIP
 33307						STOP^
 33308	051137	254 04 0 00 051140 		HALT	.+1		;TEST FAILED IF PROGRAM HALTS HERE
 33309	051140	324 00 0 00 051141 		JUMPA	.+1		;IF TEST FAILS, CHANGE THIS INSTRUCTION (JUMPA .+1) TO
 33310									;JUMPA X (X IS THE ADDRESS OF THE FIRST INSTRUCTION
 33311									;IN THE SUBTEST) TO LOOP ON ERROR^
 33312
 33313					;**********
 33314
 33315					;THIS TEST VERIFIES THAT CAILE COMPARES C(AC) WITH E AND
 33316					;SKIPS THE NEXT INSTRUCTION IF C(AC) IS LESS THAN OR EQUAL TO E
 33317					;IN THIS CASE, C(AC)=-1,,-1 AND E=0
 33318					;HENCE, CAILE SHOULD SKIP THE NEXT INSTRUCTION
 33319					;IF CAILE SKIPS THE NEXT INSTRUCTION, THE TEST PASSES
 33320
 33321	051141	474 01 0 00 000000 	C51400:	SETO	1,			;PRELOAD AC WITH -1,,-1
 33322	051142	303 01 0 00 000000 		CAILE	1,0			;*CAILE SHOULD SKIP THE NEXT INSTRUCTION
 33323						STOP^
 33324	051143	254 04 0 00 051144 		HALT	.+1		;TEST FAILED IF PROGRAM HALTS HERE
 33325	051144	324 00 0 00 051145 		JUMPA	.+1		;IF TEST FAILS, CHANGE THIS INSTRUCTION (JUMPA .+1) TO
 33326									;JUMPA X (X IS THE ADDRESS OF THE FIRST INSTRUCTION
 33327									;IN THE SUBTEST) TO LOOP ON ERROR^
 33328
 33329					;**********
DFKAA PDP-10 KL10 BASIC INSTRUCTION DIAGNOSTIC (1) VER 0,2	MACRO %52(537) 09:34 31-JAN-77 PAGE 33
DFKAA5	MAC	25-AUG-75 14:00		TEST OF MSCL CAIX INSTRUCTIONS                                                     SEQ 0750

 33330					;THIS TEST VERIFIES THAT CAILE COMPARES C(AC) WITH E AND
 33331					;SKIPS THE NEXT INSTRUCTION IF C(AC) IS LESS THAN OR EQUAL TO E
 33332					;IN THIS CASE, C(AC)=0	AND E=0
 33333					;HENCE, CAILE SHOULD SKIP THE NEXT INSTRUCTION.
 33334					;IF CAILE SKIPS THE NEXT INSTRUCTION, THIS TEST PASSES.
 33335
 33336	051145	400 01 0 00 000000 	C51410:	SETZ	1,			;PRELOAD AC WITH 0
 33337	051146	303 01 0 00 000000 		CAILE	1,0			;*CAILE SHOULD SKIP THE NEXT INSTRUCTION.
 33338						STOP^
 33339	051147	254 04 0 00 051150 		HALT	.+1		;TEST FAILED IF PROGRAM HALTS HERE
 33340	051150	324 00 0 00 051151 		JUMPA	.+1		;IF TEST FAILS, CHANGE THIS INSTRUCTION (JUMPA .+1) TO
 33341									;JUMPA X (X IS THE ADDRESS OF THE FIRST INSTRUCTION
 33342									;IN THE SUBTEST) TO LOOP ON ERROR^
 33343
 33344					;**********
 33345
 33346					;THIS TEST VERIFIES THAT CAILE COMPARES C(AC) WITH E AND
 33347					;SKIPS THE NEXT INSTRUCTION IF C(AC) IS LESS THAN OR EQUAL TO E
 33348					;IN THIS CASE, C(AC)=0,,1 AND E=0
 33349					;HENCE, CAILE SHOULD NOT SKIP THE NEXT INSTRUCTION.
 33350					;IF CAILE DOES NOT SKIP THE NEXT INSTRUCTION, THE TEST PASSES
 33351
 33352	051151	201 01 0 00 000001 	C51420:	MOVEI	1,1			;PRELOAD AC WITH 0,,1
 33353	051152	303 01 0 00 000000 		CAILE	1,0			;*CAILE SHOULD NOT SKIP THE NEXT INSTRUCTION
 33354	051153	334 00 0 00 000000 		SKIPA				;PASS IF CAILE DOES NOT SKIP
 33355						STOP^
 33356	051154	254 04 0 00 051155 		HALT	.+1		;TEST FAILED IF PROGRAM HALTS HERE
 33357	051155	324 00 0 00 051156 		JUMPA	.+1		;IF TEST FAILS, CHANGE THIS INSTRUCTION (JUMPA .+1) TO
 33358									;JUMPA X (X IS THE ADDRESS OF THE FIRST INSTRUCTION
 33359									;IN THE SUBTEST) TO LOOP ON ERROR^
 33360
 33361					;**********
DFKAA PDP-10 KL10 BASIC INSTRUCTION DIAGNOSTIC (1) VER 0,2	MACRO %52(537) 09:34 31-JAN-77 PAGE 34
DFKAA5	MAC	25-AUG-75 14:00		TEST OF MSCL CAIX INSTRUCTIONS                                                     SEQ 0751

 33362					;THIS TEST VERIFIES THAT CAIA COMPARES C(AC) WITH E AND ALWAYS
 33363					;SKIPS THE NEXT INSTRUCTION
 33364					;IN THIS CASE, C(AC)=-1,,-1 AND E=0
 33365					;HENCE, CAIA SHOULD SKIP THE NEXT INSTRUCTION
 33366					;IF CAIA SKIPS THE NEXT INSTRUCTION, THIS TEST PASSES
 33367
 33368	051156	474 01 0 00 000000 	C51500:	SETO	1,			;PRELOAD AC WITH -1,,-1
 33369	051157	304 01 0 00 000000 		CAIA	1,0			;*CAIA SHOULD SKIP THE NEXT INSTRUCTION
 33370						STOP^
 33371	051160	254 04 0 00 051161 		HALT	.+1		;TEST FAILED IF PROGRAM HALTS HERE
 33372	051161	324 00 0 00 051162 		JUMPA	.+1		;IF TEST FAILS, CHANGE THIS INSTRUCTION (JUMPA .+1) TO
 33373									;JUMPA X (X IS THE ADDRESS OF THE FIRST INSTRUCTION
 33374									;IN THE SUBTEST) TO LOOP ON ERROR^
 33375
 33376					;**********
 33377
 33378					;THIS TEST VERIFIES THAT CAIA COMPARES C(AC) WITH E AND ALWAYS
 33379					;SKIPS THE NEXT INSTRUCTION
 33380					;IN THIS CASE, C(AC)=0 AND E=0
 33381					;HENCE, CAIA SHOULD SKIP THE NEXT INSTRUCTION.
 33382					;IF CAIA SKIPS THE NEXT INSTRUCTION, THIS TEST PASSES
 33383
 33384	051162	400 01 0 00 000000 	C51510:	SETZ	1,			;PRELOAD AC WITH 0
 33385	051163	304 01 0 00 000000 		CAIA	1,0			;*CAIA SHOULD SKIP THE NEXT INSTRUCTION
 33386						STOP^
 33387	051164	254 04 0 00 051165 		HALT	.+1		;TEST FAILED IF PROGRAM HALTS HERE
 33388	051165	324 00 0 00 051166 		JUMPA	.+1		;IF TEST FAILS, CHANGE THIS INSTRUCTION (JUMPA .+1) TO
 33389									;JUMPA X (X IS THE ADDRESS OF THE FIRST INSTRUCTION
 33390									;IN THE SUBTEST) TO LOOP ON ERROR^
 33391
 33392					;**********
DFKAA PDP-10 KL10 BASIC INSTRUCTION DIAGNOSTIC (1) VER 0,2	MACRO %52(537) 09:34 31-JAN-77 PAGE 35
DFKAA5	MAC	25-AUG-75 14:00		TEST OF MSCL CAIX INSTRUCTIONS                                                     SEQ 0752

 33393					;THIS TEST VERIFIES THAT CAIA COMPARES C(AC) WITH E AND ALWAYS
 33394					;SKIPS THE NEXT INSTRUCTION
 33395					;IN THIS CASE, C(AC)=0,,1 AND E=0
 33396					;HENCE, CAIA SHOULD SKIP THE NEXT INSTRUCTION.
 33397					;IF CAIA SKIPS THE NEXT INSTRUCTION, THIS TEST PASSES.
 33398
 33399	051166	201 01 0 00 000001 	C51520:	MOVEI	1,1			;PRELOAD AC WITH 0,,1
 33400	051167	304 01 0 00 000000 		CAIA	1,0			;*CAIA SHOULD SKIP THE NEXT INSTRUCTION
 33401						STOP^
 33402	051170	254 04 0 00 051171 		HALT	.+1		;TEST FAILED IF PROGRAM HALTS HERE
 33403	051171	324 00 0 00 051172 		JUMPA	.+1		;IF TEST FAILS, CHANGE THIS INSTRUCTION (JUMPA .+1) TO
 33404									;JUMPA X (X IS THE ADDRESS OF THE FIRST INSTRUCTION
 33405									;IN THE SUBTEST) TO LOOP ON ERROR^
 33406
 33407					;**********
 33408
 33409					;THIS TEST VERIFIES THAT CAIGE COMPARES C(AC) WITH E AND
 33410					;SKIPS THE NEXT INSTRUCTION IF C(AC) IS GREATER THAN OR EQUAL TO E.
 33411					;IN THIS CASE, C(AC)=0,,5 AND E=0,,6
 33412					;HENCE, CAIGE SHOULD NOT SKIP THE NEXT INSTRUCTION.
 33413					;IF CAIGE DOES NOT SKIP THE NEXT INSTRUCTION, THIS TEST PASSES
 33414
 33415	051172	201 02 0 00 000005 	C51600:	MOVEI	2,5			;PRELOAD AC WITH 0,,5
 33416	051173	305 02 0 00 000006 		CAIGE	2,6			;*CAIGE SHOULD NOT SKIP THE NEXT INSTRUCTION
 33417	051174	334 00 0 00 000000 		SKIPA				;PASS IF CAIGE DOES NOT SKIP
 33418						STOP^
 33419	051175	254 04 0 00 051176 		HALT	.+1		;TEST FAILED IF PROGRAM HALTS HERE
 33420	051176	324 00 0 00 051177 		JUMPA	.+1		;IF TEST FAILS, CHANGE THIS INSTRUCTION (JUMPA .+1) TO
 33421									;JUMPA X (X IS THE ADDRESS OF THE FIRST INSTRUCTION
 33422									;IN THE SUBTEST) TO LOOP ON ERROR^
 33423
 33424					;**********
DFKAA PDP-10 KL10 BASIC INSTRUCTION DIAGNOSTIC (1) VER 0,2	MACRO %52(537) 09:34 31-JAN-77 PAGE 36
DFKAA5	MAC	25-AUG-75 14:00		TEST OF MSCL CAIX INSTRUCTIONS                                                     SEQ 0753

 33425					;THIS TEST VERIFIES THAT CAIGE COMPARES C(AC) WITH E AND
 33426					;SKIPS THE NEXT INSTRUCTION IF C(AC) IS GREATER THAN OR EQUAL TO E
 33427					;IN THIS CASE, C(AC)=0,,6 AND E=0,,6
 33428					;HENCE, CAIGE SHOULD SKIP THE NEXT INSTRUCTION.
 33429					;IF CAIGE SKIPS THE NEXT INSTRUCTION, THIS TEST PASSES.
 33430
 33431	051177	201 02 0 00 000006 	C51610:	MOVEI	2,6			;PRELOAD AC WITH 0,,6
 33432	051200	305 00 0 00 000000 		CAIGE				;*CAIGE SHOULD SKIP THE NEXT INSTRUCTION
 33433						STOP^
 33434	051201	254 04 0 00 051202 		HALT	.+1		;TEST FAILED IF PROGRAM HALTS HERE
 33435	051202	324 00 0 00 051203 		JUMPA	.+1		;IF TEST FAILS, CHANGE THIS INSTRUCTION (JUMPA .+1) TO
 33436									;JUMPA X (X IS THE ADDRESS OF THE FIRST INSTRUCTION
 33437									;IN THE SUBTEST) TO LOOP ON ERROR^
 33438
 33439					;**********
 33440
 33441					;THIS TEST VERIFIES THAT CAIGE COMPARES C(AC) WITH E AND
 33442					;SKIPS THE NEXT INSTRUCTION IF C(AC) IS GREATER THAN OR EQUAL TO E.
 33443					;IN THIS CASE, C(AC)=0,,7 AND E=0,,6
 33444					;HENCE, CAIGE SHOULD SKIP THE NEXT INSTRUCTION.
 33445					;IF CAIGE SKIPS THE NEXT INSTRUCTION, THIS TEST PASSES
 33446
 33447	051203	201 02 0 00 000007 	C51620:	MOVEI	2,7		;PRELOAD AC WITH 0,,7
 33448	051204	305 02 0 00 000006 		CAIGE	2,6		;*CAIGE SHOULD SKIP THE NEXT INSTRUCTION
 33449						STOP^
 33450	051205	254 04 0 00 051206 		HALT	.+1		;TEST FAILED IF PROGRAM HALTS HERE
 33451	051206	324 00 0 00 051207 		JUMPA	.+1		;IF TEST FAILS, CHANGE THIS INSTRUCTION (JUMPA .+1) TO
 33452									;JUMPA X (X IS THE ADDRESS OF THE FIRST INSTRUCTION
 33453									;IN THE SUBTEST) TO LOOP ON ERROR^
 33454
 33455					;**********
DFKAA PDP-10 KL10 BASIC INSTRUCTION DIAGNOSTIC (1) VER 0,2	MACRO %52(537) 09:34 31-JAN-77 PAGE 37
DFKAA5	MAC	25-AUG-75 14:00		TEST OF MSCL CAIX INSTRUCTIONS                                                     SEQ 0754

 33456					;THIS TEST VERIRIES THAT CAIN COMPARES C(AC) WITH E AND
 33457					;SKIPS THE NEXT INSTRUCTION IF C(AC) IS NOT EQUAL TO E.
 33458					;IN THIS CASE, C(AC)=0 AND E=0,,1
 33459					;HENCE, CAIN SHOULD SKIP THE NEXT INSTRUCTION.
 33460					;IF CAIN SKIPS THE NEXT INSTRUCTION, THIS TEST PASSES.
 33461
 33462	051207	400 06 0 00 000000 	C51700:	SETZ	6,		;PRELOAD AC WITH 0
 33463	051210	306 06 0 00 000001 		CAIN	6,1		;*CAIN SHOULD SKIP THE NEXT INSTRUCTION
 33464						STOP^
 33465	051211	254 04 0 00 051212 		HALT	.+1		;TEST FAILED IF PROGRAM HALTS HERE
 33466	051212	324 00 0 00 051213 		JUMPA	.+1		;IF TEST FAILS, CHANGE THIS INSTRUCTION (JUMPA .+1) TO
 33467									;JUMPA X (X IS THE ADDRESS OF THE FIRST INSTRUCTION
 33468									;IN THE SUBTEST) TO LOOP ON ERROR^
 33469
 33470					;**********
 33471
 33472					;THIS TEST VERIFIES THAT CAIN COMPARES C(AC) WITH E AND
 33473					;SKIPS THE NEXT INSTRUCTION IF C(AC) IS NOT EQUAL TO E.
 33474					;IN THIS CASE, C(AC)=0,,1 AND E=0,,1
 33475					;HENCE, CAIN SHOULD NOT SKIP THE NEXT INSTRUCTION.
 33476					;IF CAIN DOES NOT SKIP THE NEXT INSTRUCTION, THIS TEST PASSES
 33477
 33478	051213	200 06 0 00 000001 	C51710:	MOVE	6,1		;PRELOAD AC WITH 0,,1
 33479	051214	306 06 0 00 000001 		CAIN	6,1		;*CAIN SHOULD NOT SKIP THE NEXT INSTRUCTION
 33480	051215	334 00 0 00 000000 		SKIPA			;PASS IF CAIN SKIPS
 33481						STOP^
 33482	051216	254 04 0 00 051217 		HALT	.+1		;TEST FAILED IF PROGRAM HALTS HERE
 33483	051217	324 00 0 00 051220 		JUMPA	.+1		;IF TEST FAILS, CHANGE THIS INSTRUCTION (JUMPA .+1) TO
 33484									;JUMPA X (X IS THE ADDRESS OF THE FIRST INSTRUCTION
 33485									;IN THE SUBTEST) TO LOOP ON ERROR^
 33486
 33487					;**********
DFKAA PDP-10 KL10 BASIC INSTRUCTION DIAGNOSTIC (1) VER 0,2	MACRO %52(537) 09:34 31-JAN-77 PAGE 38
DFKAA5	MAC	25-AUG-75 14:00		TEST OF MSCL CAIX INSTRUCTIONS                                                     SEQ 0755

 33488					;THIS TEST VERIFIES THAT CAIN COMPARES C(AC) WITH E AND
 33489					;SKIPS THE NEXT INSTRUCTION IF C(AC) IS NOT EQUAL TO E.
 33490					;IN THIS CASE, C(AC)=0,,2 AND E=0,,1
 33491					;HENCE, CAIN SHOULD SKIP THE NEXT INSTRUCTION.
 33492					;IF CAIN SKIPS THE NEXT INSTRUCTION, THIS TEST PASSES
 33493
 33494	051220	201 06 0 00 000002 	C51720:	MOVEI	6,2		;PRELOAD AC WITH
 33495	051221	306 06 0 00 000001 		CAIN	6,1		;*CAIN SHOULD SKIP THE NEXT INSTRUCTION
 33496						STOP^
 33497	051222	254 04 0 00 051223 		HALT	.+1		;TEST FAILED IF PROGRAM HALTS HERE
 33498	051223	324 00 0 00 051224 		JUMPA	.+1		;IF TEST FAILS, CHANGE THIS INSTRUCTION (JUMPA .+1) TO
 33499									;JUMPA X (X IS THE ADDRESS OF THE FIRST INSTRUCTION
 33500									;IN THE SUBTEST) TO LOOP ON ERROR^
 33501
 33502					;**********
 33503
 33504					;THIS TEST VERIFIES THAT CAIG COMPARES C(AC) WITH E AND
 33505					;SKIPS THE NEXT INSTRUCTION IF C(AC) IS GREATER THAN E.
 33506					;IN THIS CASE, C(AC)=0,,2 AND E=0,,3.
 33507					;HENCE, CAIG SHOULD NOT SKIP THE NEXT INSTRUCTION.
 33508					;IF CAIG DOES NOT SKIP THE NEXT INSTRUCTION, THIS TEST PASSES
 33509
 33510	051224	201 11 0 00 000002 	C52000:	MOVEI	11,2		;PRELOAD AC WITH 0,,2
 33511	051225	307 11 0 00 000003 		CAIG	11,3		;*CAIG SHOULD NOT SKIP THE NEXT INSTRUCTION
 33512	051226	334 00 0 00 000000 		SKIPA			;PASS IF CAIG DID NOT SKIP
 33513						STOP^
 33514	051227	254 04 0 00 051230 		HALT	.+1		;TEST FAILED IF PROGRAM HALTS HERE
 33515	051230	324 00 0 00 051231 		JUMPA	.+1		;IF TEST FAILS, CHANGE THIS INSTRUCTION (JUMPA .+1) TO
 33516									;JUMPA X (X IS THE ADDRESS OF THE FIRST INSTRUCTION
 33517									;IN THE SUBTEST) TO LOOP ON ERROR^
 33518
 33519					;**********
DFKAA PDP-10 KL10 BASIC INSTRUCTION DIAGNOSTIC (1) VER 0,2	MACRO %52(537) 09:34 31-JAN-77 PAGE 39
DFKAA5	MAC	25-AUG-75 14:00		TEST OF MSCL CAIX INSTRUCTIONS                                                     SEQ 0756

 33520					;THIS TEST VERIFIES THAT CAIG COMPARES C(AC) WITH E AND
 33521					;SKIPS THE NEXT INSTRUCTION IF C(AC) IS GREATER THAN E.
 33522					;IN THIS CASE, C(AC)=0,,3 AND E=0,,3.
 33523					;HENCE, CAIG SHOULD NOT SKIP THE NEXT INSTRUCTION.
 33524					;IF CAIG DOES NOT SKIP THE NEXT INSTRUCTION, THE TEST PASSES.
 33525
 33526	051231	201 11 0 00 000003 	C52010:	MOVEI	11,3		;PRELOAD AC WITH 0,,3
 33527	051232	307 11 0 00 000003 		CAIG	11,3		;*CAIG SHOULD NOT SKIP THE NEXT INSTRUCTION
 33528	051233	334 00 0 00 000000 		SKIPA			;PASS IF CAIG DID NOT SKIP
 33529						STOP^
 33530	051234	254 04 0 00 051235 		HALT	.+1		;TEST FAILED IF PROGRAM HALTS HERE
 33531	051235	324 00 0 00 051236 		JUMPA	.+1		;IF TEST FAILS, CHANGE THIS INSTRUCTION (JUMPA .+1) TO
 33532									;JUMPA X (X IS THE ADDRESS OF THE FIRST INSTRUCTION
 33533									;IN THE SUBTEST) TO LOOP ON ERROR^
 33534
 33535					;**********
 33536
 33537					;THIS TEST VERIFIES THAT CAIG COMPARES C(AC) WITH E AND
 33538					;SKIPS THE NEXT INSTRUCTION IF C(AC) IS GREATER THAN E.
 33539					;IN THIS CASE, C(AC)=0,,4 AND E=0,,3.
 33540					;HENCE, CAIG SHOULD SKIP THE NEXT INSTRUCTION.
 33541					;IF CAIG SKIPS THE NEXT INSTRUCTION, THIS TEST PASSES.
 33542
 33543	051236	201 11 0 00 000004 	C52020:	MOVEI	11,4		;PRELOAD AC WITH 0,,4
 33544	051237	307 11 0 00 000003 		CAIG	11,3		;*CAIG SHOULD SKIP THE NEXT INSTRUCTION
 33545						STOP^
 33546	051240	254 04 0 00 051241 		HALT	.+1		;TEST FAILED IF PROGRAM HALTS HERE
 33547	051241	324 00 0 00 051242 		JUMPA	.+1		;IF TEST FAILS, CHANGE THIS INSTRUCTION (JUMPA .+1) TO
 33548									;JUMPA X (X IS THE ADDRESS OF THE FIRST INSTRUCTION
 33549									;IN THE SUBTEST) TO LOOP ON ERROR^
 33550
 33551					;**********
DFKAA PDP-10 KL10 BASIC INSTRUCTION DIAGNOSTIC (1) VER 0,2	MACRO %52(537) 09:34 31-JAN-77 PAGE 40
DFKAA5	MAC	25-AUG-75 14:00		TEST OF MSCL CAMX INSTRUCTIONS                                                     SEQ 0757

 33552					SUBTTL	TEST OF MSCL CAMX INSTRUCTIONS
 33553
 33554					;**********
 33555
 33556					;THIS TEST VERIFIES THAT CAMLE COMPARES C(AC) WITH C(E) AND
 33557					;SKIPS THE NEXT INSTRUCTION IF C(AC) IS LESS THAT OR EQUAL TO C(E).
 33558					;IN THIS CASE, C(AC)=-1,,-1 AND C(E)=0
 33559					;HENCE, CAMLE SHOULD SKIP THE NEXT INSTRUCTION.
 33560					;IF CAMLE SKIPS THE NEXT INSTRUCTION, THIS TEST PASSES.
 33561
 33562	051242	474 01 0 00 000000 	C52100:	SETO	1,		;PRELOAD AC WITH -1,,-1
 33563	051243	400 02 0 00 000000 		SETZ	2,		;PRELOAD E WITH 0
 33564	051244	313 01 0 00 000002 		CAMLE	1,2		;*CAMLE SHOULD SKIP THE NEXT INSTRUCTION
 33565						STOP^
 33566	051245	254 04 0 00 051246 		HALT	.+1		;TEST FAILED IF PROGRAM HALTS HERE
 33567	051246	324 00 0 00 051247 		JUMPA	.+1		;IF TEST FAILS, CHANGE THIS INSTRUCTION (JUMPA .+1) TO
 33568									;JUMPA X (X IS THE ADDRESS OF THE FIRST INSTRUCTION
 33569									;IN THE SUBTEST) TO LOOP ON ERROR^
 33570
 33571					;**********
 33572
 33573					;THIS TEST VERIFIES THAT CAMLE COMPARES C(AC) WITH C(E) AND
 33574					;SKIPS THE NEXT INSTRUCTION IF C(AC) IS LESS THAN OR EQUAL TO C(E).
 33575					;IN THIS CASE, C(AC)=0 AND C(E)=0
 33576					;HENCE, CAMLE SHOULD SKIP THE NEXT INSTRUCTION.
 33577					;IF CAMLE SKIPS THE NEXT INSTRUCTION, THIS TEST PASSES
 33578
 33579	051247	400 01 0 00 000000 	C52110:	SETZ	1,		;CLEAR AC
 33580	051250	313 01 0 00 070253 		CAMLE	1,[0]		;*CAMLE SHOULD SKIP THE NEXT INSTRUCTION
 33581						STOP^
 33582	051251	254 04 0 00 051252 		HALT	.+1		;TEST FAILED IF PROGRAM HALTS HERE
 33583	051252	324 00 0 00 051253 		JUMPA	.+1		;IF TEST FAILS, CHANGE THIS INSTRUCTION (JUMPA .+1) TO
 33584									;JUMPA X (X IS THE ADDRESS OF THE FIRST INSTRUCTION
 33585									;IN THE SUBTEST) TO LOOP ON ERROR^
 33586
 33587					;**********
DFKAA PDP-10 KL10 BASIC INSTRUCTION DIAGNOSTIC (1) VER 0,2	MACRO %52(537) 09:34 31-JAN-77 PAGE 41
DFKAA5	MAC	25-AUG-75 14:00		TEST OF MSCL CAMX INSTRUCTIONS                                                     SEQ 0758

 33588					;THIS TEST VERIFIES THAT CAMLE COMPARES C(AC) WITH C(E) AND
 33589					;SKIPS THE NEXT INSTRUCTION IF C(AC) IS LESS THAN OR EQUAL TO C(E).
 33590					;IN THIS CASE, C(AC)=0,,1 AND C(E)=0
 33591					;HENCE, CAMLE SHOULD NOT SKIP THE NEXT INSTRUCTION.
 33592					;IF CAMLE DOES NOT SKIP THE NEXT INSTRUCTION, THIS TEST PASSES.
 33593
 33594	051253	201 01 0 00 000001 	C52120:	MOVEI	1,1		;PRELOAD AC WITH 0,,1
 33595	051254	400 02 0 00 000000 		SETZ	2,		;PRELOAD E WITH 0
 33596	051255	313 01 0 00 000002 		CAMLE	1,2		;*CAMLE SHOULD NOT SKIP THE NEXT INSTRUCTION
 33597	051256	334 00 0 00 000000 		SKIPA			;PASS IF CAMLE DOES NOT SKIP
 33598						STOP^
 33599	051257	254 04 0 00 051260 		HALT	.+1		;TEST FAILED IF PROGRAM HALTS HERE
 33600	051260	324 00 0 00 051261 		JUMPA	.+1		;IF TEST FAILS, CHANGE THIS INSTRUCTION (JUMPA .+1) TO
 33601									;JUMPA X (X IS THE ADDRESS OF THE FIRST INSTRUCTION
 33602									;IN THE SUBTEST) TO LOOP ON ERROR^
 33603
 33604					;**********
 33605
 33606					;THIS TEST VERIFIES THAT CAMG COMPARES C(AC) WITH C(E) AND
 33607					;SKIPS THE NEXT INSTRUCTION IF C(AC) IS GREATER THAN C(E).
 33608					;IN THIS CASE, C(AC)=-1,,-2 AND C(E)=-1,,-2.
 33609					;HENCE, CAMG SHOULD NOT SKIP THE NEXT INSTRUCTION.
 33610					;IF CAMG DOES NOT SKIP THE NEXT INSTRUCTION, THIS TEST PASSES.
 33611
 33612	051261	561 10 0 00 777776 	C52200:	HRROI	10,-2		;PRELOAD AC WITH -1,,-2
 33613	051262	317 10 0 00 070254 		CAMG	10,[-1,,-1]	;*CAMG SHOULD NOT SKIP THE NEXT INSTRUCTION.
 33614	051263	334 00 0 00 000000 		SKIPA			;PASS IF CAMG DOES NOT SKIP
 33615						STOP^
 33616	051264	254 04 0 00 051265 		HALT	.+1		;TEST FAILED IF PROGRAM HALTS HERE
 33617	051265	324 00 0 00 051266 		JUMPA	.+1		;IF TEST FAILS, CHANGE THIS INSTRUCTION (JUMPA .+1) TO
 33618									;JUMPA X (X IS THE ADDRESS OF THE FIRST INSTRUCTION
 33619									;IN THE SUBTEST) TO LOOP ON ERROR^
 33620
 33621					;**********
DFKAA PDP-10 KL10 BASIC INSTRUCTION DIAGNOSTIC (1) VER 0,2	MACRO %52(537) 09:34 31-JAN-77 PAGE 42
DFKAA5	MAC	25-AUG-75 14:00		TEST OF MSCL CAMX INSTRUCTIONS                                                     SEQ 0759

 33622					;THIS TEST VERIFIES THAT CAMG COMPARES C(AC) WITH C(E) AND
 33623					;SKIPS THE NEXT INSTRUCTION IF C(AC) IS GREATER THAN C(E).
 33624					;IN THIS CASE, C(AC)=-1,,-1 AND C(E)=-1,,-1.
 33625					;HENCE, CAMG SHOULD NOT SKIP THE NEXT INSTRUCTION.
 33626					;IF CAMG DOES NOT SKIP THE NEXT INSTRUCTION, THIS TEST PASSES.
 33627	051266	474 10 0 00 000000 	C52210:	SETO	10,		;PRELOAD AC WITH -1,,-1.
 33628	051267	317 10 0 00 070254 		CAMG	10,[-1,,-1]	;*CAMG SHOULD NOT SKIP THE NEXT INSTRUCTION
 33629	051270	334 00 0 00 000000 		SKIPA			;PASS IF CAMG DOES NOT SKIP
 33630						STOP^
 33631	051271	254 04 0 00 051272 		HALT	.+1		;TEST FAILED IF PROGRAM HALTS HERE
 33632	051272	324 00 0 00 051273 		JUMPA	.+1		;IF TEST FAILS, CHANGE THIS INSTRUCTION (JUMPA .+1) TO
 33633									;JUMPA X (X IS THE ADDRESS OF THE FIRST INSTRUCTION
 33634									;IN THE SUBTEST) TO LOOP ON ERROR^
 33635
 33636					;**********
 33637
 33638					;THIS TEST VERIFIES THAT CAMG COMPARES C(AC) WITH C(E) AND
 33639					;SKIPS THE NEXT INSTRUCTION IF C(AC) IS GREATER THAN C(E).
 33640					;IN THIS CASE, C(AC)=0 AND C(E)=-1,,-1.
 33641					;HENCE, CAMG SHOULD SKIP THE NEXT INSTRUCTION.
 33642					;IF CAMG SKIPS THE NEXT INSTRUCTION, THIS TEST PASSES.
 33643
 33644	051273	400 10 0 00 000000 	C52220:	SETZ	10,		;PRELOAD AC WITH 0
 33645	051274	317 10 0 00 070254 		CAMG	10,[-1,,-1]	;*CAMG SHOULD SKIP THE NEXT INSTRUCTION
 33646						STOP^
 33647	051275	254 04 0 00 051276 		HALT	.+1		;TEST FAILED IF PROGRAM HALTS HERE
 33648	051276	324 00 0 00 051277 		JUMPA	.+1		;IF TEST FAILS, CHANGE THIS INSTRUCTION (JUMPA .+1) TO
 33649									;JUMPA X (X IS THE ADDRESS OF THE FIRST INSTRUCTION
 33650									;IN THE SUBTEST) TO LOOP ON ERROR^
 33651
 33652					;**********
DFKAA PDP-10 KL10 BASIC INSTRUCTION DIAGNOSTIC (1) VER 0,2	MACRO %52(537) 09:34 31-JAN-77 PAGE 43
DFKAA5	MAC	25-AUG-75 14:00		TEST OF MSCL JUMPX INSTRUCTIONS                                                    SEQ 0760

 33653					SUBTTL	TEST OF MSCL JUMPX INSTRUCTIONS
 33654
 33655					;**********
 33656
 33657					;THIS TEST VERIFIES THAT JUMPLE COMPARES C(AC) WITH 0 AND
 33658					;JUMPS TO THE LOCATION SPECIFIED BY E IF C(AC) IS LESS THAN OR
 33659					;EQUAL TO 0.  IN THIS CASE, C(AC)=-1,,-1.  HENCE, JUMPLE SHOULD JUMP.
 33660
 33661	051277	474 17 0 00 000000 	C52300:	SETO	17,		;PRELOAD AC WITH -1,,-1
 33662	051300	323 17 0 00 051302 		JUMPLE	17,.+2		;*JUMPLE SHOULD JUMP
 33663						STOP^
 33664	051301	254 04 0 00 051302 		HALT	.+1		;TEST FAILED IF PROGRAM HALTS HERE
 33665	051302	324 00 0 00 051303 		JUMPA	.+1		;IF TEST FAILS, CHANGE THIS INSTRUCTION (JUMPA .+1) TO
 33666									;JUMPA X (X IS THE ADDRESS OF THE FIRST INSTRUCTION
 33667									;IN THE SUBTEST) TO LOOP ON ERROR^
 33668
 33669					;**********
 33670
 33671					;THIS TEST VERIFIES THAT JUMPLE COMPARES C(AC) WITH 0 AND
 33672					;JUMPS TO THE LOCATION SPECIFIED BY E IF C(AC) IS LESS THAN OR
 33673					;EQUAL TO 0.  IN THIS CASE, C(AC)=0.  HENCE, JUMPLE SHOULD JUMP.
 33674
 33675	051303	400 17 0 00 000000 	C52310:	SETZ	17,		;PRELOAD AC WITH 0
 33676	051304	323 17 0 00 051306 		JUMPLE	17,.+2		;*JUMPLE SHOULD JUMP
 33677						STOP^
 33678	051305	254 04 0 00 051306 		HALT	.+1		;TEST FAILED IF PROGRAM HALTS HERE
 33679	051306	324 00 0 00 051307 		JUMPA	.+1		;IF TEST FAILS, CHANGE THIS INSTRUCTION (JUMPA .+1) TO
 33680									;JUMPA X (X IS THE ADDRESS OF THE FIRST INSTRUCTION
 33681									;IN THE SUBTEST) TO LOOP ON ERROR^
 33682
 33683					;**********
DFKAA PDP-10 KL10 BASIC INSTRUCTION DIAGNOSTIC (1) VER 0,2	MACRO %52(537) 09:34 31-JAN-77 PAGE 44
DFKAA5	MAC	25-AUG-75 14:00		TEST OF MSCL JUMPX INSTRUCTIONS                                                    SEQ 0761

 33684					;THIS TEST VERIFIES THAT JUMPLE COMPARES C(AC) WITH 0 AND JUMPS
 33685					;TO THE LOCATION SPECIFIED BY E IF C(AC) IS LESS THAN OR EQUAL TO
 33686					;0.  IN THIS CASE, C(AC)=0,,1.  HENCE, JUMPLE SHOULD NOT JUMP.
 33687
 33688	051307	201 17 0 00 000001 	C52320:	MOVEI	17,1		;PRELOAD AC WITH 0,,1
 33689	051310	320 17 0 00 051312 		JUMP	17,.+2		;*JUMPLE SHOULD NOT JUMP
 33690	051311	334 00 0 00 000000 		SKIPA			;PASS IF JUMPLE DOES NOT JUMP
 33691						STOP^
 33692	051312	254 04 0 00 051313 		HALT	.+1		;TEST FAILED IF PROGRAM HALTS HERE
 33693	051313	324 00 0 00 051314 		JUMPA	.+1		;IF TEST FAILS, CHANGE THIS INSTRUCTION (JUMPA .+1) TO
 33694									;JUMPA X (X IS THE ADDRESS OF THE FIRST INSTRUCTION
 33695									;IN THE SUBTEST) TO LOOP ON ERROR^
 33696
 33697					;**********
 33698
 33699					;THIS TEST VERIFIES THAT JUMPGE COMPARES C(AC) WITH 0 AND JUMPS TO
 33700					;THE LOCATION SPECIFIED BY E IF C(AC) IS GREATER THAN OR EQUAL TO 0.
 33701					;IN THIS CASE, C(AC)=-1,,-1.  HENCE, JUMPGE SHOULD NOT JUMP.
 33702
 33703	051314	474 16 0 00 000000 	C52400:	SETO	16,		;PRELOAD AC WITH -1,,-1
 33704	051315	325 16 0 00 051317 		JUMPGE	16,.+2		;*JUMPGE SHOULD NOT JUMP
 33705	051316	334 00 0 00 000000 		SKIPA			;PASS IF JUMPGE DOES NOT JUMP
 33706						STOP^
 33707	051317	254 04 0 00 051320 		HALT	.+1		;TEST FAILED IF PROGRAM HALTS HERE
 33708	051320	324 00 0 00 051321 		JUMPA	.+1		;IF TEST FAILS, CHANGE THIS INSTRUCTION (JUMPA .+1) TO
 33709									;JUMPA X (X IS THE ADDRESS OF THE FIRST INSTRUCTION
 33710									;IN THE SUBTEST) TO LOOP ON ERROR^
 33711
 33712					;**********
DFKAA PDP-10 KL10 BASIC INSTRUCTION DIAGNOSTIC (1) VER 0,2	MACRO %52(537) 09:34 31-JAN-77 PAGE 45
DFKAA5	MAC	25-AUG-75 14:00		TEST OF MSCL JUMPX INSTRUCTIONS                                                    SEQ 0762

 33713					;THIS TEST VERIFIES THAT JUMPGE COMPARES C(AC) WITH O AND JUMPS TO
 33714					;THE LOCATION SPECIFIED BY E IF C(AC) IS GREATER THAN OR EQUAL TO 0.
 33715					;IN THIS CASE, C(AC)=0.  HENCE, JUMPGE SHOULD JUMP.
 33716
 33717	051321	400 16 0 00 000000 	C52410:	SETZ	16,		;PRELOAD AC WITH 0
 33718	051322	325 16 0 00 051324 		JUMPGE	16,.+2		;*JUMPGE SHOULD JUMP
 33719						STOP^
 33720	051323	254 04 0 00 051324 		HALT	.+1		;TEST FAILED IF PROGRAM HALTS HERE
 33721	051324	324 00 0 00 051325 		JUMPA	.+1		;IF TEST FAILS, CHANGE THIS INSTRUCTION (JUMPA .+1) TO
 33722									;JUMPA X (X IS THE ADDRESS OF THE FIRST INSTRUCTION
 33723									;IN THE SUBTEST) TO LOOP ON ERROR^
 33724
 33725					;**********
 33726
 33727					;THIS TEST VERIFIES THAT JUMPGE COMPARES C(AC) WITH 0 AND JUMPS TO
 33728					;THE LOCATION SPECIFIED BY E IF C(AC) IS GREATER THAN OR EQUAL TO 0.
 33729					;IN THIS CASE, C(AC)=0,,1.  HENCE, JUMPGE SHOULD JUMP.
 33730
 33731	051325	201 16 0 00 000001 	C52420:	MOVEI	16,1		;PRELOAD AC WITH 0,,1
 33732	051326	325 16 0 00 051330 		JUMPGE	16,.+2		;*JUMPGE SHOULD JUMP
 33733						STOP^
 33734	051327	254 04 0 00 051330 		HALT	.+1		;TEST FAILED IF PROGRAM HALTS HERE
 33735	051330	324 00 0 00 051331 		JUMPA	.+1		;IF TEST FAILS, CHANGE THIS INSTRUCTION (JUMPA .+1) TO
 33736									;JUMPA X (X IS THE ADDRESS OF THE FIRST INSTRUCTION
 33737									;IN THE SUBTEST) TO LOOP ON ERROR^
 33738
 33739					;**********
DFKAA PDP-10 KL10 BASIC INSTRUCTION DIAGNOSTIC (1) VER 0,2	MACRO %52(537) 09:34 31-JAN-77 PAGE 46
DFKAA5	MAC	25-AUG-75 14:00		TEST OF MSCL AOJX INSTRUCTIONS                                                     SEQ 0763

 33740					SUBTTL	TEST OF MSCL AOJX INSTRUCTIONS
 33741
 33742					;**********
 33743
 33744					;THIS TEST VERIFIES THAT AOJL INCREMENTS C(AC) BY 0,,1 AND PLACES
 33745					;THE RESULT BACK INTO THE AC.  THE RESULT IN THE AC IS COMPARED
 33746					;TO 0 AND THE PROGRAM JUMPS TO THE LOCATION SPECIFIED BY E IF C(AC)
 33747					;IS LESS THAN 0.  IN THIS CASE, C(AC)=-1,,-2 BEFORE INCREMENTING.
 33748					;HENCE, AOJL SHOULD JUMP.
 33749
 33750	051331	561 15 0 00 777776 	C52500:	HRROI	15,-2		;PRELOAD AC WITH -1,,-2
 33751	051332	341 15 0 00 051334 		AOJL	15,.+2		;*AOJL SHOULD ADD 0,,1 TO C(AC) AND JUMP
 33752						STOP^
 33753	051333	254 04 0 00 051334 		HALT	.+1		;TEST FAILED IF PROGRAM HALTS HERE
 33754	051334	324 00 0 00 051335 		JUMPA	.+1		;IF TEST FAILS, CHANGE THIS INSTRUCTION (JUMPA .+1) TO
 33755									;JUMPA X (X IS THE ADDRESS OF THE FIRST INSTRUCTION
 33756									;IN THE SUBTEST) TO LOOP ON ERROR^
 33757	051335	312 15 0 00 070254 		CAME	15,[-1]		;PASS IF C(AC) INCREMENTED CORRECTLY
 33758						STOP^
 33759	051336	254 04 0 00 051337 		HALT	.+1		;TEST FAILED IF PROGRAM HALTS HERE
 33760	051337	324 00 0 00 051340 		JUMPA	.+1		;IF TEST FAILS, CHANGE THIS INSTRUCTION (JUMPA .+1) TO
 33761									;JUMPA X (X IS THE ADDRESS OF THE FIRST INSTRUCTION
 33762									;IN THE SUBTEST) TO LOOP ON ERROR^
 33763
 33764					;**********
 33765
 33766					;THIS TEST VERIFIES THAT AOJL INCREMENTS C(AC) BY 0,,1 AND
 33767					;PLACES THE RESULT BACK INTO THE AC.  THE RESULT IN THE AC IS
 33768					;COMPARED TO 0 AND THE PROGRAM JUMPS TO THE LOCATION
 33769					;SPECIFIED BY E IF C(AC) IS LESS THAN 0.
 33770					;IN THIS CASE, C(AC) IS -1,,-1 BEFORE INCREMENTING
 33771					;HENCE, AOJ SHOULD NOT JUMP
 33772
 33773	051340	474 15 0 00 000000 	C52510:	SETO	15,		;PRELOAD AC WITH
 33774	051341	341 15 0 00 051343 		AOJL	15,.+2		;*AOJL SHOULD ADD 0,,1 TO C(AC)
 33775									;AND NOT JUMP
 33776	051342	334 00 0 00 000000 		SKIPA			;PASS IF AOJL DID NOT JUMP
 33777						STOP^
 33778	051343	254 04 0 00 051344 		HALT	.+1		;TEST FAILED IF PROGRAM HALTS HERE
 33779	051344	324 00 0 00 051345 		JUMPA	.+1		;IF TEST FAILS, CHANGE THIS INSTRUCTION (JUMPA .+1) TO
 33780									;JUMPA X (X IS THE ADDRESS OF THE FIRST INSTRUCTION
 33781									;IN THE SUBTEST) TO LOOP ON ERROR^
 33782	051345	302 15 0 00 000000 		CAIE	15,0		;PASS IF C(AC) INCREMENTED CORRECTLY
 33783						STOP^
 33784	051346	254 04 0 00 051347 		HALT	.+1		;TEST FAILED IF PROGRAM HALTS HERE
 33785	051347	324 00 0 00 051350 		JUMPA	.+1		;IF TEST FAILS, CHANGE THIS INSTRUCTION (JUMPA .+1) TO
 33786									;JUMPA X (X IS THE ADDRESS OF THE FIRST INSTRUCTION
 33787									;IN THE SUBTEST) TO LOOP ON ERROR^
 33788
 33789					;**********
DFKAA PDP-10 KL10 BASIC INSTRUCTION DIAGNOSTIC (1) VER 0,2	MACRO %52(537) 09:34 31-JAN-77 PAGE 47
DFKAA5	MAC	25-AUG-75 14:00		TEST OF MSCL AOJX INSTRUCTIONS                                                     SEQ 0764

 33790					;THIS TEST VERIFIES THAT AOJL INCREMENTS C(AC) BY 0,,1 AND
 33791					;PLACES THE RESULT BACK INTO THE AC.  THE RESULT IN THE AC IS
 33792					;COMPARED TO 0 AND THE PROGRAM JUMPS TO THE LOCATION
 33793					;SPECIFIED BY E IF C(AC) IS 0 BEFORE INCREMENTING
 33794					;HENCE, AOJL SHOULD NOT JUMP
 33795
 33796	051350	400 15 0 00 000000 	C52520:	SETZ	15,		;PRELOAD AC WITH 0
 33797	051351	341 15 0 00 051353 		AOJL	15,.+2		;*AOJL SHOULD ADD 0,,1 TO C(AC)
 33798									;AND NOT JUMP
 33799	051352	334 00 0 00 000000 		SKIPA			;PASS IF AOJL DID NOT JUMP
 33800						STOP^
 33801	051353	254 04 0 00 051354 		HALT	.+1		;TEST FAILED IF PROGRAM HALTS HERE
 33802	051354	324 00 0 00 051355 		JUMPA	.+1		;IF TEST FAILS, CHANGE THIS INSTRUCTION (JUMPA .+1) TO
 33803									;JUMPA X (X IS THE ADDRESS OF THE FIRST INSTRUCTION
 33804									;IN THE SUBTEST) TO LOOP ON ERROR^
 33805	051355	302 15 0 00 000001 		CAIE	15,1		;PASS IF C(AC) INCREMENTED CORRECTLY
 33806						STOP^
 33807	051356	254 04 0 00 051357 		HALT	.+1		;TEST FAILED IF PROGRAM HALTS HERE
 33808	051357	324 00 0 00 051360 		JUMPA	.+1		;IF TEST FAILS, CHANGE THIS INSTRUCTION (JUMPA .+1) TO
 33809									;JUMPA X (X IS THE ADDRESS OF THE FIRST INSTRUCTION
 33810									;IN THE SUBTEST) TO LOOP ON ERROR^
 33811
 33812					;**********
 33813
 33814					;THIS TEST VERIFIES THAT AOJE INCREMENTS C(AC) BY 0,,1 AND
 33815					;PLACES THE RESULT BACK INTO THE AC.  THE RESULT IN THE AC IS
 33816					;COMPARED TO 0 AND THE PROGRAM JUMPS TO THE LOCATION
 33817					;SPECIFIED BY E IF C(AC) IS EQUAL TO 0
 33818					;IN THIS CASE, C(AC) IS -1,,-2 BEFORE INCREMENTING
 33819					;HENCE, AOJE SHOULD NOT JUMP
 33820
 33821	051360	561 14 0 00 777776 	C52600:	HRROI	14,-2		;PRELOAD AC WITH -1,,-2
 33822	051361	342 14 0 00 051363 		AOJE	14,.+2		;*AOJE SHOULD ADD 0,,1 TO C(AC)
 33823									;AND NOT JUMP
 33824	051362	334 00 0 00 000000 		SKIPA			;PASS IF AOJE DID NOT JUMP
 33825						STOP^
 33826	051363	254 04 0 00 051364 		HALT	.+1		;TEST FAILED IF PROGRAM HALTS HERE
 33827	051364	324 00 0 00 051365 		JUMPA	.+1		;IF TEST FAILS, CHANGE THIS INSTRUCTION (JUMPA .+1) TO
 33828									;JUMPA X (X IS THE ADDRESS OF THE FIRST INSTRUCTION
 33829									;IN THE SUBTEST) TO LOOP ON ERROR^
 33830	051365	312 14 0 00 070254 		CAME	14,[-1]		;PASS IF C(AC) INCREMENTED CORRECTLY
 33831						STOP^
 33832	051366	254 04 0 00 051367 		HALT	.+1		;TEST FAILED IF PROGRAM HALTS HERE
 33833	051367	324 00 0 00 051370 		JUMPA	.+1		;IF TEST FAILS, CHANGE THIS INSTRUCTION (JUMPA .+1) TO
 33834									;JUMPA X (X IS THE ADDRESS OF THE FIRST INSTRUCTION
 33835									;IN THE SUBTEST) TO LOOP ON ERROR^
 33836
 33837					;**********
DFKAA PDP-10 KL10 BASIC INSTRUCTION DIAGNOSTIC (1) VER 0,2	MACRO %52(537) 09:34 31-JAN-77 PAGE 48
DFKAA5	MAC	25-AUG-75 14:00		TEST OF MSCL AOJX INSTRUCTIONS                                                     SEQ 0765

 33838					;THIS TEST VERIFIES THAT AOJE INCREMENTS C(AC) BY 0,,1 AND
 33839					;PLACES THE RESULT BACK INTO THE AC.  THE RESULT IN THE AC IS
 33840					;COMPARED TO 0 AND THE PROGRAM JUMPS TO THE LOCATION
 33841					;SPECIFIED BY E IF C(AC) IS EQUAL TO 0.
 33842					;IN THIS CASE, C(AC) IS -1,,-1 BEFORE INCREMENTING.
 33843					;HENCE, AOJE SHOULD JUMP
 33844
 33845	051370	474 14 0 00 000000 	C52610:	SETO	14,		;PRELOAD AC WITH -1,,-1
 33846	051371	342 14 0 00 051373 		AOJE	14,.+2		;*AOJ SHOULD ADD 0,,1 TO C(AC)
 33847									;AND JUMP
 33848						STOP^
 33849	051372	254 04 0 00 051373 		HALT	.+1		;TEST FAILED IF PROGRAM HALTS HERE
 33850	051373	324 00 0 00 051374 		JUMPA	.+1		;IF TEST FAILS, CHANGE THIS INSTRUCTION (JUMPA .+1) TO
 33851									;JUMPA X (X IS THE ADDRESS OF THE FIRST INSTRUCTION
 33852									;IN THE SUBTEST) TO LOOP ON ERROR^
 33853	051374	302 14 0 00 000000 		CAIE	14,0		;PASS IF C(AC) INCREMENTED CORRECTLY
 33854						STOP^
 33855	051375	254 04 0 00 051376 		HALT	.+1		;TEST FAILED IF PROGRAM HALTS HERE
 33856	051376	324 00 0 00 051377 		JUMPA	.+1		;IF TEST FAILS, CHANGE THIS INSTRUCTION (JUMPA .+1) TO
 33857									;JUMPA X (X IS THE ADDRESS OF THE FIRST INSTRUCTION
 33858									;IN THE SUBTEST) TO LOOP ON ERROR^
 33859
 33860					;**********
 33861
 33862					;THIS TEST VERIFIES THAT AOJE INCREMENTS C(AC) BY 0,,1 AND
 33863					;PLACES THE RESULT BACK INTO THE AC.  THE RESULT IN THE AC IS
 33864					;COMPARED TO 0 AND THE PROGRAM JUMPS TO THE LOCATION
 33865					;SPECIFIED BY E IF C(AC) IS EQUAL TO 0.
 33866					;IN THIS CASE, C(AC) IS 0 BEFORE INCREMENTING
 33867					;HENCE, AOJE SHOULD NOT JUMP
 33868
 33869	051377	400 14 0 00 000000 	C52620:	SETZ	14,		;PRELOAD AC WITH 0
 33870	051400	342 14 0 00 051402 		AOJE	14,.+2		;*AOJE SHOULD ADD 0,11 TO C(AC)
 33871									;AND NOT JUMP
 33872	051401	334 00 0 00 000000 		SKIPA			;PASS IF AOJE DID NOT JUMP
 33873						STOP^
 33874	051402	254 04 0 00 051403 		HALT	.+1		;TEST FAILED IF PROGRAM HALTS HERE
 33875	051403	324 00 0 00 051404 		JUMPA	.+1		;IF TEST FAILS, CHANGE THIS INSTRUCTION (JUMPA .+1) TO
 33876									;JUMPA X (X IS THE ADDRESS OF THE FIRST INSTRUCTION
 33877									;IN THE SUBTEST) TO LOOP ON ERROR^
 33878	051404	302 14 0 00 000001 		CAIE	14,1		;PASS IF C(AC) INCREMENTED CORRECTLY
 33879						STOP^
 33880	051405	254 04 0 00 051406 		HALT	.+1		;TEST FAILED IF PROGRAM HALTS HERE
 33881	051406	324 00 0 00 051407 		JUMPA	.+1		;IF TEST FAILS, CHANGE THIS INSTRUCTION (JUMPA .+1) TO
 33882									;JUMPA X (X IS THE ADDRESS OF THE FIRST INSTRUCTION
 33883									;IN THE SUBTEST) TO LOOP ON ERROR^
 33884
 33885					;**********
DFKAA PDP-10 KL10 BASIC INSTRUCTION DIAGNOSTIC (1) VER 0,2	MACRO %52(537) 09:34 31-JAN-77 PAGE 49
DFKAA5	MAC	25-AUG-75 14:00		TEST OF MSCL AOJX INSTRUCTIONS                                                     SEQ 0766

 33886					;THIS TEST VERIFIES THAT AOJLE INCREMENTS C(AC) BY 0,,1 AND
 33887					;PLACES THE RESULT BACK INTO TLE$EC.  THE RESULT IN THE AC IS
 33888					;COMPARED TO 0 AND THE PROGRAM JUMPS TO THE LOCATION
 33889					;SPECIFIED BY E IF C(AC) IS LESS THAN OR EQUAL TO 0.
 33890					;IN THIS CASE, C(AC) IS -1,,-1 BEFORE INCREMENTING
 33891					;HENCE, AOJLE SHOULD
 33892
 33893	051407	561 13 0 00 777776 	C52700:	HRROI	13,-2		;PRELOAD AC WITH -1,,-2
 33894	051410	343 13 0 00 051412 		AOJLE	13,.+2		;*AOJLE SHOULD ADD 0,,1 TO C(AC)
 33895									;AND JUMP
 33896						STOP^
 33897	051411	254 04 0 00 051412 		HALT	.+1		;TEST FAILED IF PROGRAM HALTS HERE
 33898	051412	324 00 0 00 051413 		JUMPA	.+1		;IF TEST FAILS, CHANGE THIS INSTRUCTION (JUMPA .+1) TO
 33899									;JUMPA X (X IS THE ADDRESS OF THE FIRST INSTRUCTION
 33900									;IN THE SUBTEST) TO LOOP ON ERROR^
 33901	051413	312 13 0 00 070254 		CAME	13,[-1]		;PASS IF C(AC) INCREMENTED CORRECTLY
 33902						STOP^
 33903	051414	254 04 0 00 051415 		HALT	.+1		;TEST FAILED IF PROGRAM HALTS HERE
 33904	051415	324 00 0 00 051416 		JUMPA	.+1		;IF TEST FAILS, CHANGE THIS INSTRUCTION (JUMPA .+1) TO
 33905									;JUMPA X (X IS THE ADDRESS OF THE FIRST INSTRUCTION
 33906									;IN THE SUBTEST) TO LOOP ON ERROR^
 33907
 33908					;**********
 33909
 33910					;THIS TEST VERIFIES THAT AOJLE INCREMENTS C(AC) BY 0,,1 AND
 33911					;PLACES THE RESULT BACK INTO THE AC.  THE RESULT IN THE AC IS
 33912					;COMPARED TO 0 AND THE PROGRAM JUMPS TO THE LOCATION
 33913					;SPECIFIED BY E IF C(AC) IS LESS THAN OR EQUAL TO 0
 33914					;IN THIS CASE, C(AC) IS -1,,-1 BEFORE INCREMENTING
 33915					;HENCE, AOJLE SHOULD JUMP.
 33916
 33917	051416	474 13 0 00 000000 	C52710:	SETO	13,		;PRELOAD AC WITH -1,,-1
 33918	051417	343 13 0 00 051421 		AOJLE	13,.+2		;*AOJLE SHOULD ADD 0,,1 TO C(AC)
 33919									;AND JUMP
 33920						STOP^
 33921	051420	254 04 0 00 051421 		HALT	.+1		;TEST FAILED IF PROGRAM HALTS HERE
 33922	051421	324 00 0 00 051422 		JUMPA	.+1		;IF TEST FAILS, CHANGE THIS INSTRUCTION (JUMPA .+1) TO
 33923									;JUMPA X (X IS THE ADDRESS OF THE FIRST INSTRUCTION
 33924									;IN THE SUBTEST) TO LOOP ON ERROR^
 33925	051422	302 13 0 00 000000 		CAIE	13,0		;PASS IF C(AC) INCREMENTED CORRECTLY
 33926						STOP^
 33927	051423	254 04 0 00 051424 		HALT	.+1		;TEST FAILED IF PROGRAM HALTS HERE
 33928	051424	324 00 0 00 051425 		JUMPA	.+1		;IF TEST FAILS, CHANGE THIS INSTRUCTION (JUMPA .+1) TO
 33929									;JUMPA X (X IS THE ADDRESS OF THE FIRST INSTRUCTION
 33930									;IN THE SUBTEST) TO LOOP ON ERROR^
 33931
 33932					;**********
DFKAA PDP-10 KL10 BASIC INSTRUCTION DIAGNOSTIC (1) VER 0,2	MACRO %52(537) 09:34 31-JAN-77 PAGE 50
DFKAA5	MAC	25-AUG-75 14:00		TEST OF MSCL AOJX INSTRUCTIONS                                                     SEQ 0767

 33933					;THIS TEST VERIFIES THAT AOJLE INCREMENTS C(AC) BY 0,,1 AND
 33934					;PLACES THE RESULT BACK INTO THE AC.  THE RESULT IN THE AC IS
 33935					;COMPARED TO 0 AND THE PROGRAM JUMPS TO THE LOCATION
 33936					;SPECIFIED BY E IF C(AC) IS LESS THAN OR EQUAL TO 0.
 33937					;IN THIS CASE, C(AC) IS 0
 33938					;HENCE, AOJLE SHOULD NOT JUMP.
 33939
 33940	051425	400 13 0 00 000000 	C52720:	SETZ	13,		;PRELOAD AC WITH 0
 33941	051426	343 13 0 00 051430 		AOJLE	13,.+2		;*AOJLE SHOULD ADD 0,,1 TO C(AC)
 33942									;AND NOT JUMP
 33943	051427	334 00 0 00 000000 		SKIPA			;PASS IF AOJLE DID NOT JUMP
 33944						STOP^
 33945	051430	254 04 0 00 051431 		HALT	.+1		;TEST FAILED IF PROGRAM HALTS HERE
 33946	051431	324 00 0 00 051432 		JUMPA	.+1		;IF TEST FAILS, CHANGE THIS INSTRUCTION (JUMPA .+1) TO
 33947									;JUMPA X (X IS THE ADDRESS OF THE FIRST INSTRUCTION
 33948									;IN THE SUBTEST) TO LOOP ON ERROR^
 33949	051432	302 13 0 00 000001 		CAIE	13,1		;PASS IF C(AC) INCREMENTED CORRECTLY
 33950						STOP^
 33951	051433	254 04 0 00 051434 		HALT	.+1		;TEST FAILED IF PROGRAM HALTS HERE
 33952	051434	324 00 0 00 051435 		JUMPA	.+1		;IF TEST FAILS, CHANGE THIS INSTRUCTION (JUMPA .+1) TO
 33953									;JUMPA X (X IS THE ADDRESS OF THE FIRST INSTRUCTION
 33954									;IN THE SUBTEST) TO LOOP ON ERROR^
 33955
 33956					;**********
 33957
 33958					;THIS TEST VERIFIES THAT AOJA INCREMENTS C(AC) BY 0,,1 AND
 33959					;PLACES THE RESULT BACK INTO THE AC.  THE RESULT IN THE AC IS
 33960					;COMPARED TO 0 AND THE PROGRAM ALWAYS JUMPS TO THE LOCATION
 33961					;SPECIFIED BY E.
 33962					;IN THIS CASE, C(AC) IS -1,,-2 BEFORE INCREMENTING
 33963					;HENCE, AOJA SHOULD JUMP
 33964
 33965	051435	561 12 0 00 777776 	C53000:	HRROI	12,-2		;PRELOAD AC WITH -1,,-2
 33966	051436	344 12 0 00 051440 		AOJA	12,.+2		;*AOJA SHOULD ADD 0,,1 TO C(AC)
 33967									;AND JUMP
 33968						STOP^
 33969	051437	254 04 0 00 051440 		HALT	.+1		;TEST FAILED IF PROGRAM HALTS HERE
 33970	051440	324 00 0 00 051441 		JUMPA	.+1		;IF TEST FAILS, CHANGE THIS INSTRUCTION (JUMPA .+1) TO
 33971									;JUMPA X (X IS THE ADDRESS OF THE FIRST INSTRUCTION
 33972									;IN THE SUBTEST) TO LOOP ON ERROR^
 33973	051441	312 12 0 00 070254 		CAME	12,[-1]		;PASS IF C(AC) INCREMENTED CORRECTLY
 33974						STOP^
 33975	051442	254 04 0 00 051443 		HALT	.+1		;TEST FAILED IF PROGRAM HALTS HERE
 33976	051443	324 00 0 00 051444 		JUMPA	.+1		;IF TEST FAILS, CHANGE THIS INSTRUCTION (JUMPA .+1) TO
 33977									;JUMPA X (X IS THE ADDRESS OF THE FIRST INSTRUCTION
 33978									;IN THE SUBTEST) TO LOOP ON ERROR^
 33979
 33980					;**********
DFKAA PDP-10 KL10 BASIC INSTRUCTION DIAGNOSTIC (1) VER 0,2	MACRO %52(537) 09:34 31-JAN-77 PAGE 51
DFKAA5	MAC	25-AUG-75 14:00		TEST OF MSCL AOJX INSTRUCTIONS                                                     SEQ 0768

 33981					;THIS TEST VERIFIES THAT AOJA INCREMENTS C(AC) BY 0,,1 AND
 33982					;PLACES THE RESULT BACK INTO AC.  THE RESULT IN THE AC IS
 33983					;COMPARED TO 0 AND THE PROGRAM ALWAYS JUMPS TO THE LOCATION
 33984					;SPECIFIED BY E.
 33985					;IN THIS CASE, C(AC) IS -1,,-1 BEFORE INCREMENTING
 33986					;HENCE, AOJA SHOULD JUMP
 33987
 33988	051444	474 12 0 00 000000 	C53010:	SETO	12,		;PRELOAD AC WITH -1,,-1
 33989	051445	344 12 0 00 051447 		AOJA	12,.+2		;*AOJA SHOULD ADD 0,,1 TO C(AC)
 33990									;AND JUMP
 33991						STOP^
 33992	051446	254 04 0 00 051447 		HALT	.+1		;TEST FAILED IF PROGRAM HALTS HERE
 33993	051447	324 00 0 00 051450 		JUMPA	.+1		;IF TEST FAILS, CHANGE THIS INSTRUCTION (JUMPA .+1) TO
 33994									;JUMPA X (X IS THE ADDRESS OF THE FIRST INSTRUCTION
 33995									;IN THE SUBTEST) TO LOOP ON ERROR^
 33996	051450	302 12 0 00 000000 		CAIE	12,0		;PASS IF C(AC) INCREMENTED CORRECTLY
 33997						STOP^
 33998	051451	254 04 0 00 051452 		HALT	.+1		;TEST FAILED IF PROGRAM HALTS HERE
 33999	051452	324 00 0 00 051453 		JUMPA	.+1		;IF TEST FAILS, CHANGE THIS INSTRUCTION (JUMPA .+1) TO
 34000									;JUMPA X (X IS THE ADDRESS OF THE FIRST INSTRUCTION
 34001									;IN THE SUBTEST) TO LOOP ON ERROR^
 34002
 34003					;**********
 34004
 34005					;THIS TEST VERIFIES THAT AOJA INCREMENTS C(AC) BY 0,,1 AND
 34006					;PLACES THE RESULT BACK INTO THE AC.  THE RESULT IN THE AC IS
 34007					;COMPARED TO 0 AND THE PROGRAM ALWAYS JUMPS TO THE LOCATION
 34008					;SPECIFIED BY E.
 34009					;IN THIS CASE, C(AC) IS 0 BEFORE INCREMENTING
 34010					;HENCE, AOJA SHOULD JUMP
 34011
 34012	051453	400 12 0 00 000000 	C53020:	SETZ	12,		;PRELOAD AC WITH 0
 34013	051454	344 12 0 00 051456 		AOJA	12,.+2		;*AOJA SHOULD ADD 0,,1 TO C(AC)
 34014									;AND JUMP
 34015						STOP^
 34016	051455	254 04 0 00 051456 		HALT	.+1		;TEST FAILED IF PROGRAM HALTS HERE
 34017	051456	324 00 0 00 051457 		JUMPA	.+1		;IF TEST FAILS, CHANGE THIS INSTRUCTION (JUMPA .+1) TO
 34018									;JUMPA X (X IS THE ADDRESS OF THE FIRST INSTRUCTION
 34019									;IN THE SUBTEST) TO LOOP ON ERROR^
 34020	051457	302 12 0 00 000001 		CAIE	12,1		;PASS IF C(AC) INCREMENTED CORRECTLY
 34021						STOP^
 34022	051460	254 04 0 00 051461 		HALT	.+1		;TEST FAILED IF PROGRAM HALTS HERE
 34023	051461	324 00 0 00 051462 		JUMPA	.+1		;IF TEST FAILS, CHANGE THIS INSTRUCTION (JUMPA .+1) TO
 34024									;JUMPA X (X IS THE ADDRESS OF THE FIRST INSTRUCTION
 34025									;IN THE SUBTEST) TO LOOP ON ERROR^
 34026
 34027					;**********
DFKAA PDP-10 KL10 BASIC INSTRUCTION DIAGNOSTIC (1) VER 0,2	MACRO %52(537) 09:34 31-JAN-77 PAGE 52
DFKAA5	MAC	25-AUG-75 14:00		TEST OF MSCL AOJX INSTRUCTIONS                                                     SEQ 0769

 34028					;THIS TEST VERIFIES THAT AOJGE INCREMENTS C(AC) BY 0,,1 AND
 34029					;PLACES THE RESULT BACK INTO THE AC.  THE RESULT IN THE AC IS
 34030					;COMPARED TO 0 AND THE PROGRAM JUMPS TO THE LOCATION
 34031					;SPECIFIED BY E IF C(AC) IS GREATER THAN OR EQUAL TO 0
 34032					;IN THIS CASE, C(AC) IS -1,,-2 BEFORE INCREMENTING
 34033					;HENCE, AOJGE SHOULD NOT JUMP
 34034
 34035	051462	561 11 0 00 777776 	C53100:	HRROI	11,-2		;PRELOAD AC WITH -1,,-2
 34036	051463	345 11 0 00 051465 		AOJGE	11,.+2		;*AOJGE SHOULD ADD 0,,1 TO C(AC)
 34037									;AND NOT JUMP
 34038	051464	334 00 0 00 000000 		SKIPA			;PASS IF AOJGE DID NOT JUMP
 34039						STOP^
 34040	051465	254 04 0 00 051466 		HALT	.+1		;TEST FAILED IF PROGRAM HALTS HERE
 34041	051466	324 00 0 00 051467 		JUMPA	.+1		;IF TEST FAILS, CHANGE THIS INSTRUCTION (JUMPA .+1) TO
 34042									;JUMPA X (X IS THE ADDRESS OF THE FIRST INSTRUCTION
 34043									;IN THE SUBTEST) TO LOOP ON ERROR^
 34044	051467	312 11 0 00 070254 		CAME	11,[-1]		;PASS IF C(AC) INCREMENTED CORRECTLY
 34045						STOP^
 34046	051470	254 04 0 00 051471 		HALT	.+1		;TEST FAILED IF PROGRAM HALTS HERE
 34047	051471	324 00 0 00 051472 		JUMPA	.+1		;IF TEST FAILS, CHANGE THIS INSTRUCTION (JUMPA .+1) TO
 34048									;JUMPA X (X IS THE ADDRESS OF THE FIRST INSTRUCTION
 34049									;IN THE SUBTEST) TO LOOP ON ERROR^
 34050
 34051					;**********
 34052
 34053					;THIS TEST VERIFIES THAT AOJGE INCREMENTS C(AC) BY 0,,1 AND
 34054					;PLACES THE RESULT BACK INTO THE AC.  THE RESULT IN THE AC IS
 34055					;COMPARED TO 0 AND THE PROGRAM JUMPS TO THE LOCATION
 34056					;SPECIFIED BY E IF C(AC) IS GREATER THAN OR EQUAL TO 0.
 34057					;IN THIS CASE, C(AC) IS -1,,-1 BEFORE INCREMENTING
 34058					;HENCE, AOJ SHOULD JUMP
 34059
 34060	051472	474 11 0 00 000000 	C53110:	SETO	11,		;PRELOAD AC WITH -1,,-1
 34061	051473	345 11 0 00 051475 		AOJGE	11,.+2		;*AOJGE SHOULD ADD 0,,1 TO C(AC)
 34062									;AND JUMP
 34063						STOP^
 34064	051474	254 04 0 00 051475 		HALT	.+1		;TEST FAILED IF PROGRAM HALTS HERE
 34065	051475	324 00 0 00 051476 		JUMPA	.+1		;IF TEST FAILS, CHANGE THIS INSTRUCTION (JUMPA .+1) TO
 34066									;JUMPA X (X IS THE ADDRESS OF THE FIRST INSTRUCTION
 34067									;IN THE SUBTEST) TO LOOP ON ERROR^
 34068	051476	302 11 0 00 000000 		CAIE	11,0		;PASS IF C(AC) INCREMENTED CORRECTLY
 34069						STOP^
 34070	051477	254 04 0 00 051500 		HALT	.+1		;TEST FAILED IF PROGRAM HALTS HERE
 34071	051500	324 00 0 00 051501 		JUMPA	.+1		;IF TEST FAILS, CHANGE THIS INSTRUCTION (JUMPA .+1) TO
 34072									;JUMPA X (X IS THE ADDRESS OF THE FIRST INSTRUCTION
 34073									;IN THE SUBTEST) TO LOOP ON ERROR^
 34074
 34075					;**********
DFKAA PDP-10 KL10 BASIC INSTRUCTION DIAGNOSTIC (1) VER 0,2	MACRO %52(537) 09:34 31-JAN-77 PAGE 53
DFKAA5	MAC	25-AUG-75 14:00		TEST OF MSCL AOJX INSTRUCTIONS                                                     SEQ 0770

 34076					;THIS TEST VERIFIES THAT AOJGE INCREMENTS C(AC) BY 0,,1 AND
 34077					;PLACES THE RESULT BACK INTO AC.  THE RESULT IN THE AC IS
 34078					;COMPARED TO 0 AND THE PROGRAM JUMPS TO THE LOCATION
 34079					;SPECIFIED BY E IF C(AC) IS GREATER THAN OR EQUAL TO 0
 34080					;IN THIS CASE, C(AC) IS 0 BEFORE INCREMENTING
 34081					;HENCE, AOJGE SHOULD JUMP
 34082
 34083	051501	400 11 0 00 000000 	C53120:	SETZ	11,		;PRELOAD AC WITH 0
 34084	051502	345 11 0 00 051504 		AOJGE	11,.+2		;*AOJGE SHOULD ADD 0,,1 TO C(AC)
 34085									;AND JUMP
 34086						STOP^
 34087	051503	254 04 0 00 051504 		HALT	.+1		;TEST FAILED IF PROGRAM HALTS HERE
 34088	051504	324 00 0 00 051505 		JUMPA	.+1		;IF TEST FAILS, CHANGE THIS INSTRUCTION (JUMPA .+1) TO
 34089									;JUMPA X (X IS THE ADDRESS OF THE FIRST INSTRUCTION
 34090									;IN THE SUBTEST) TO LOOP ON ERROR^
 34091	051505	302 11 0 00 000001 		CAIE	11,1		;PASS IF C(AC) INCREMENTED CORRECTLY
 34092						STOP^
 34093	051506	254 04 0 00 051507 		HALT	.+1		;TEST FAILED IF PROGRAM HALTS HERE
 34094	051507	324 00 0 00 051510 		JUMPA	.+1		;IF TEST FAILS, CHANGE THIS INSTRUCTION (JUMPA .+1) TO
 34095									;JUMPA X (X IS THE ADDRESS OF THE FIRST INSTRUCTION
 34096									;IN THE SUBTEST) TO LOOP ON ERROR^
 34097
 34098					;**********
 34099
 34100					;THIS TEST VERIFIES THAT AOJN INCREMENTS C(AC) BY 0,,1 AND
 34101					;PLACES THE RESULT BACK INTO THE AC.  THE RESULT IN THE AC IS
 34102					;COMPARED TO 0 AND THE PROGRAM JUMPS TO THE LOCATION
 34103					;SPECIFIED BY E IF C(AC) IS NOT EQUAL TO 0.
 34104					;IN THIS CASE, C(AC) IS -1,,-2 BEFORE INCREMENTING
 34105					;HENCE, AOJN SHOULD JUMP
 34106
 34107	051510	561 10 0 00 777776 	C53200:	HRROI	10,-2		;PRELOAD AC WITH -1,,-2
 34108	051511	346 10 0 00 051513 		AOJN	10,.+2		;*AOJN SHOULD ADD 0,,1 TO C(AC)
 34109									;AND JUMP
 34110						STOP^
 34111	051512	254 04 0 00 051513 		HALT	.+1		;TEST FAILED IF PROGRAM HALTS HERE
 34112	051513	324 00 0 00 051514 		JUMPA	.+1		;IF TEST FAILS, CHANGE THIS INSTRUCTION (JUMPA .+1) TO
 34113									;JUMPA X (X IS THE ADDRESS OF THE FIRST INSTRUCTION
 34114									;IN THE SUBTEST) TO LOOP ON ERROR^
 34115	051514	312 10 0 00 070254 		CAME	10,[-1]		;PASS IF C(AC) INCREMENTED CORRECTLY
 34116						STOP^
 34117	051515	254 04 0 00 051516 		HALT	.+1		;TEST FAILED IF PROGRAM HALTS HERE
 34118	051516	324 00 0 00 051517 		JUMPA	.+1		;IF TEST FAILS, CHANGE THIS INSTRUCTION (JUMPA .+1) TO
 34119									;JUMPA X (X IS THE ADDRESS OF THE FIRST INSTRUCTION
 34120									;IN THE SUBTEST) TO LOOP ON ERROR^
 34121
 34122					;**********
DFKAA PDP-10 KL10 BASIC INSTRUCTION DIAGNOSTIC (1) VER 0,2	MACRO %52(537) 09:34 31-JAN-77 PAGE 54
DFKAA5	MAC	25-AUG-75 14:00		TEST OF MSCL AOJX INSTRUCTIONS                                                     SEQ 0771

 34123					;THIS TEST VERIFIES THAT AOJN INCREMENTS C(AC) BY 0,,1 AND
 34124					;PLACES THE RESULT BACK INTO THE AC.  THE RESULT IN THE AC IS
 34125					;COMPARED TO 0 AND THE PROGRAM JUMPS TO THE LOCATION
 34126					;SPECIFIED BY E IF C(AC) IS NOT EQUAL TO 0.
 34127					;IN THIS CASE, C(AC) IS -1,,-1 BEFORE INCREMENTING
 34128					;HENCE, AOJ SHOULD NOT JUMP.
 34129
 34130	051517	474 10 0 00 000000 	C53210:	SETO	10,		;PRELOAD AC WITH -1,,-1
 34131	051520	346 10 0 00 051522 		AOJN	10,.+2		;*AOJN SHOULD ADD 0,,1 TO C(AC)
 34132									;AND NOT JUMP
 34133	051521	334 00 0 00 000000 		SKIPA			;PASS IF AOJN DID NOT JUMP
 34134						STOP^
 34135	051522	254 04 0 00 051523 		HALT	.+1		;TEST FAILED IF PROGRAM HALTS HERE
 34136	051523	324 00 0 00 051524 		JUMPA	.+1		;IF TEST FAILS, CHANGE THIS INSTRUCTION (JUMPA .+1) TO
 34137									;JUMPA X (X IS THE ADDRESS OF THE FIRST INSTRUCTION
 34138									;IN THE SUBTEST) TO LOOP ON ERROR^
 34139	051524	302 10 0 00 000000 		CAIE	10,0		;PASS IF C(AC) INCREMENTED CORRRECTLY
 34140						STOP^
 34141	051525	254 04 0 00 051526 		HALT	.+1		;TEST FAILED IF PROGRAM HALTS HERE
 34142	051526	324 00 0 00 051527 		JUMPA	.+1		;IF TEST FAILS, CHANGE THIS INSTRUCTION (JUMPA .+1) TO
 34143									;JUMPA X (X IS THE ADDRESS OF THE FIRST INSTRUCTION
 34144									;IN THE SUBTEST) TO LOOP ON ERROR^
 34145
 34146					;**********
 34147
 34148					;THIS TEST VERIFIES THAT AOJN INCREMENTS C(AC) BY 0,,1 AND
 34149					;PLACES THE RESULT BACK INTO THE AC.  THE RESULT IN THE AC IS
 34150					;COMPARED TO 0 AND THE PROGRAM JUMPS TO THE LOCATION
 34151					;SPECIFIED BY E IF C(AC) IS NOT EQUAL TO 0.
 34152					;IN THIS CASE, C(AC) IS 0 BEFORE INCREMENTING
 34153					;HENCE, AOJN SHOULD JUMP.
 34154
 34155	051527	400 10 0 00 000000 	C53220:	SETZ	10,		;PRELOAD AC WITH 0
 34156	051530	346 10 0 00 051532 		AOJN	10,.+2		;*AOJN SHOULD ADD 0,,1 TO C(AC)
 34157									;AND JUMP
 34158						STOP^
 34159	051531	254 04 0 00 051532 		HALT	.+1		;TEST FAILED IF PROGRAM HALTS HERE
 34160	051532	324 00 0 00 051533 		JUMPA	.+1		;IF TEST FAILS, CHANGE THIS INSTRUCTION (JUMPA .+1) TO
 34161									;JUMPA X (X IS THE ADDRESS OF THE FIRST INSTRUCTION
 34162									;IN THE SUBTEST) TO LOOP ON ERROR^
 34163	051533	302 10 0 00 000001 		CAIE	10,1		;PASS IF C(AC) INCREMENTED CORRECTLY
 34164						STOP^
 34165	051534	254 04 0 00 051535 		HALT	.+1		;TEST FAILED IF PROGRAM HALTS HERE
 34166	051535	324 00 0 00 051536 		JUMPA	.+1		;IF TEST FAILS, CHANGE THIS INSTRUCTION (JUMPA .+1) TO
 34167									;JUMPA X (X IS THE ADDRESS OF THE FIRST INSTRUCTION
 34168									;IN THE SUBTEST) TO LOOP ON ERROR^
 34169
 34170					;**********
DFKAA PDP-10 KL10 BASIC INSTRUCTION DIAGNOSTIC (1) VER 0,2	MACRO %52(537) 09:34 31-JAN-77 PAGE 55
DFKAA5	MAC	25-AUG-75 14:00		TEST OF MSCL AOJX INSTRUCTIONS                                                     SEQ 0772

 34171					;THIS TEST VERIFIES THAT AOJG INCREMENTS C(AC) BY 0,,1 AND
 34172					;PLACES THE RESULT BACK INTO THE AC.  THE REAULT IN THE AC IS
 34173					;COMPARED TO 0 AND THE PROGRAM JUMPS TO THE LOCATION
 34174					;SPECIFIED BY E IF C(AC) IS GREATER THAN 0
 34175					;IN THIS CASE, C(AC) IS -1,,-2 BEFORE INC
 34176					;HENCE, AOJG SHOULD NOT JUMP
 34177
 34178	051536	561 07 0 00 777776 	C53300:	HRROI	7,-2		;PRELOAD AC WITH -1,,-2
 34179	051537	347 07 0 00 051541 		AOJG	7,.+2		;*AOJG SHOULD ADD 0,11 TO C(AC)
 34180									;AND NOT JUMP
 34181	051540	334 00 0 00 000000 		SKIPA			;PASS IF AOJG DID NOT JUMP
 34182						STOP^
 34183	051541	254 04 0 00 051542 		HALT	.+1		;TEST FAILED IF PROGRAM HALTS HERE
 34184	051542	324 00 0 00 051543 		JUMPA	.+1		;IF TEST FAILS, CHANGE THIS INSTRUCTION (JUMPA .+1) TO
 34185									;JUMPA X (X IS THE ADDRESS OF THE FIRST INSTRUCTION
 34186									;IN THE SUBTEST) TO LOOP ON ERROR^
 34187	051543	312 07 0 00 070254 		CAME	7,[-1]		;PASS IF C(AC) INCREMENTED CORRECTLY
 34188						STOP^
 34189	051544	254 04 0 00 051545 		HALT	.+1		;TEST FAILED IF PROGRAM HALTS HERE
 34190	051545	324 00 0 00 051546 		JUMPA	.+1		;IF TEST FAILS, CHANGE THIS INSTRUCTION (JUMPA .+1) TO
 34191									;JUMPA X (X IS THE ADDRESS OF THE FIRST INSTRUCTION
 34192									;IN THE SUBTEST) TO LOOP ON ERROR^
 34193
 34194					;**********
 34195
 34196					;THIS TEST VERIFIES THAT AOJG INCREMENTS C(AC) BY 0,,1 AND
 34197					;PLACES THE RESULT BACK INTO THE AC.  THE RESULT IN THE AC IS
 34198					;COMPARED TO 0 AND THE PROGRAM JUMPS TO THE LOCATION
 34199					;SPECIFIED BY E IF C(AC) IS GREATER THAN 0.
 34200					;IN THIS CASE, C(AC) IS -1,,-1 BEFORE INCREMENTING
 34201					;HENCE, AOJG SHOULD NOT JUMP.
 34202
 34203	051546	474 07 0 00 000000 	C53310:	SETO	7,		;PRELOAD AC WITH -1,,-1
 34204	051547	347 07 0 00 051551 		AOJG	7,.+2		;*AOJG SHOULD ADD 0,,1 TO C(AC)
 34205									;AND NOT JUMP
 34206	051550	334 00 0 00 000000 		SKIPA			;PASS IF AOJG DID NOT JUMP
 34207						STOP^
 34208	051551	254 04 0 00 051552 		HALT	.+1		;TEST FAILED IF PROGRAM HALTS HERE
 34209	051552	324 00 0 00 051553 		JUMPA	.+1		;IF TEST FAILS, CHANGE THIS INSTRUCTION (JUMPA .+1) TO
 34210									;JUMPA X (X IS THE ADDRESS OF THE FIRST INSTRUCTION
 34211									;IN THE SUBTEST) TO LOOP ON ERROR^
 34212	051553	302 07 0 00 000000 		CAIE	7,0		;PASS IF C(AC) INCREMENTED CORRECTLY
 34213						STOP^
 34214	051554	254 04 0 00 051555 		HALT	.+1		;TEST FAILED IF PROGRAM HALTS HERE
 34215	051555	324 00 0 00 051556 		JUMPA	.+1		;IF TEST FAILS, CHANGE THIS INSTRUCTION (JUMPA .+1) TO
 34216									;JUMPA X (X IS THE ADDRESS OF THE FIRST INSTRUCTION
 34217									;IN THE SUBTEST) TO LOOP ON ERROR^
 34218
 34219					;**********
DFKAA PDP-10 KL10 BASIC INSTRUCTION DIAGNOSTIC (1) VER 0,2	MACRO %52(537) 09:34 31-JAN-77 PAGE 56
DFKAA5	MAC	25-AUG-75 14:00		TEST OF MSCL AOJX INSTRUCTIONS                                                     SEQ 0773

 34220					;THIS TEST VERIFIES THAT AOJG INCREMENTS C(AC) BY 0,,1 AND
 34221					;PLACES THE RESULT BACK INTO THE AC.  THE RESULT IN THE AC IS
 34222					;COMPARED TO 0 AND THE PROGRAM JUMPS TO THE LOCATION
 34223					;SPECIFIED BY E IF C(AC) IS GREATER THAN 0.
 34224					;IN THIS CASE, C(AC) IS 0 BEFORE INCREMENTING
 34225					;HENCE, AOJG SHOULD JUMP
 34226
 34227	051556	400 07 0 00 000000 	C53320:	SETZ	7,		;PRELOAD AC WITH 0
 34228	051557	347 07 0 00 051561 		AOJG	7,.+2		;*AOJG SHOULD ADD 0,,1 TO C(AC)
 34229									;AND JUMP
 34230						STOP^
 34231	051560	254 04 0 00 051561 		HALT	.+1		;TEST FAILED IF PROGRAM HALTS HERE
 34232	051561	324 00 0 00 051562 		JUMPA	.+1		;IF TEST FAILS, CHANGE THIS INSTRUCTION (JUMPA .+1) TO
 34233									;JUMPA X (X IS THE ADDRESS OF THE FIRST INSTRUCTION
 34234									;IN THE SUBTEST) TO LOOP ON ERROR^
 34235	051562	302 07 0 00 000001 		CAIE	7,1		;PASS IF C(AC) INCREMENTED CORRECTLY
 34236						STOP^
 34237	051563	254 04 0 00 051564 		HALT	.+1		;TEST FAILED IF PROGRAM HALTS HERE
 34238	051564	324 00 0 00 051565 		JUMPA	.+1		;IF TEST FAILS, CHANGE THIS INSTRUCTION (JUMPA .+1) TO
 34239									;JUMPA X (X IS THE ADDRESS OF THE FIRST INSTRUCTION
 34240									;IN THE SUBTEST) TO LOOP ON ERROR^
 34241
 34242					;**********
DFKAA PDP-10 KL10 BASIC INSTRUCTION DIAGNOSTIC (1) VER 0,2	MACRO %52(537) 09:34 31-JAN-77 PAGE 57
DFKAA5	MAC	25-AUG-75 14:00		TEST OF MSCL AOSX INSTRUCTIONS                                                     SEQ 0774

 34243					SUBTTL	TEST OF MSCL AOSX INSTRUCTIONS
 34244
 34245					;**********
 34246
 34247					;THIS TEST VERIFIES THAT AOSL INCREMENTS C(E) BY 0,,1 AND PLACES
 34248					;THE RESULT INTO E.  THE RESULT IN E IS COMPARED TO 0 AND SKIPS
 34249					;THE NEXT INSTRUCTION IF C(E) IS LESS THAN 0
 34250					;IF THE AC IS NON-ZERO, THE RESULT IS ALSO PLACED INTO THE AC.
 34251					;IN THIS CASE, AC=6, C(AC)=707070,,707070 AND C(E)=-1,,-2
 34252					;BEFORE INCREMENTING.  HENCE, AOSL SHOULD SKIP ; AND THE
 34253					;FINAL RESULTS IN AC AND E SHOULD BE -1,,-1 AND -1,,-1
 34254					;RESPECTIVELY.
 34255
 34256	051565	200 06 0 00 070332 	C53400:	MOVE	6,[707070,,707070] ;PRELOAD AC WITH 707070,,707070
 34257	051566	561 07 0 00 777776 		HRROI	7,-2		;PRELOAD E WITH -1,,-2
 34258	051567	351 06 0 00 000007 		AOSL	6,7		;*AOSL SHOULD ADD 0,,1 TO C(E),
 34259									;UPDATE AC AND SKIP
 34260						STOP^
 34261	051570	254 04 0 00 051571 		HALT	.+1		;TEST FAILED IF PROGRAM HALTS HERE
 34262	051571	324 00 0 00 051572 		JUMPA	.+1		;IF TEST FAILS, CHANGE THIS INSTRUCTION (JUMPA .+1) TO
 34263									;JUMPA X (X IS THE ADDRESS OF THE FIRST INSTRUCTION
 34264									;IN THE SUBTEST) TO LOOP ON ERROR^
 34265	051572	312 07 0 00 070254 		CAME	7,[-1]		;PASS IF E INCREMENTED CORRECTLY
 34266						STOP^
 34267	051573	254 04 0 00 051574 		HALT	.+1		;TEST FAILED IF PROGRAM HALTS HERE
 34268	051574	324 00 0 00 051575 		JUMPA	.+1		;IF TEST FAILS, CHANGE THIS INSTRUCTION (JUMPA .+1) TO
 34269									;JUMPA X (X IS THE ADDRESS OF THE FIRST INSTRUCTION
 34270									;IN THE SUBTEST) TO LOOP ON ERROR^
 34271	051575	312 06 0 00 070254 		CAME	6,[-1]		;PASS IF AC WAS UPDATED IF AC NON-ZERO
 34272						STOP^
 34273	051576	254 04 0 00 051577 		HALT	.+1		;TEST FAILED IF PROGRAM HALTS HERE
 34274	051577	324 00 0 00 051600 		JUMPA	.+1		;IF TEST FAILS, CHANGE THIS INSTRUCTION (JUMPA .+1) TO
 34275									;JUMPA X (X IS THE ADDRESS OF THE FIRST INSTRUCTION
 34276									;IN THE SUBTEST) TO LOOP ON ERROR^
 34277
 34278					;**********
 34279
 34280					;THIS TEST VERIFIES THAT AOSL INCREMENTS C(E) BY 0,,1 AND PLACES
 34281					;THE RESULT INTO E.  THE RESULT IN E IS COMPARED TO 0 AND SKIPS
 34282					;THE NEXT INSTRUCTION IF C(E) IS LESS THAN 0
 34283					;IF THE AC IS NON-ZERO, THE RESULT IS ALSO PLACED INTO THE AC.
 34284					;IN THIS CASE, AC=6, C(AC)=707070,,707070 AND C(E)=-1,,-2
 34285					;BEFORE INCREMENTING.  HENCE, AOSL SHOULD SKIP ; AND THE
 34286					;FINAL RESULTS IN AC AND E SHOULD BE -1,,-1 AND -1,,-1
 34287					;RESPECTIVELY.
 34288
 34289	051600	200 06 0 00 070332 	C53401:	MOVE	6,[707070,,707070] ;PRELOAD AC WITH 707070,,707070
 34290	051601	561 07 0 00 777776 		HRROI	7,-2		;PRELOAD E WITH -1,,-2
 34291	051602	202 07 0 00 051616 		MOVEM	7,E53401
 34292	051603	351 06 0 00 051616 		AOSL	6,E53401	;*AOSL SHOULD ADD 0,,1 TO C(E),
 34293									;UPDATE AC AND SKIP
 34294						STOP^
 34295	051604	254 04 0 00 051605 		HALT	.+1		;TEST FAILED IF PROGRAM HALTS HERE
 34296	051605	324 00 0 00 051606 		JUMPA	.+1		;IF TEST FAILS, CHANGE THIS INSTRUCTION (JUMPA .+1) TO
 34297									;JUMPA X (X IS THE ADDRESS OF THE FIRST INSTRUCTION
DFKAA PDP-10 KL10 BASIC INSTRUCTION DIAGNOSTIC (1) VER 0,2	MACRO %52(537) 09:34 31-JAN-77 PAGE 57-1
DFKAA5	MAC	25-AUG-75 14:00		TEST OF MSCL AOSX INSTRUCTIONS                                                     SEQ 0775

 34298									;IN THE SUBTEST) TO LOOP ON ERROR^
 34299	051606	200 07 0 00 051616 		MOVE	7,E53401
 34300	051607	312 07 0 00 070254 		CAME	7,[-1]		;PASS IF E INCREMENTED CORRECTLY
 34301						STOP^
 34302	051610	254 04 0 00 051611 		HALT	.+1		;TEST FAILED IF PROGRAM HALTS HERE
 34303	051611	324 00 0 00 051612 		JUMPA	.+1		;IF TEST FAILS, CHANGE THIS INSTRUCTION (JUMPA .+1) TO
 34304									;JUMPA X (X IS THE ADDRESS OF THE FIRST INSTRUCTION
 34305									;IN THE SUBTEST) TO LOOP ON ERROR^
 34306	051612	312 06 0 00 070254 		CAME	6,[-1]		;PASS IF AC WAS UPDATED IF AC NON-ZERO
 34307						STOP^
 34308	051613	254 04 0 00 051614 		HALT	.+1		;TEST FAILED IF PROGRAM HALTS HERE
 34309	051614	324 00 0 00 051615 		JUMPA	.+1		;IF TEST FAILS, CHANGE THIS INSTRUCTION (JUMPA .+1) TO
 34310									;JUMPA X (X IS THE ADDRESS OF THE FIRST INSTRUCTION
 34311									;IN THE SUBTEST) TO LOOP ON ERROR^
 34312
 34313	051615	334 00 0 00 000000 		SKIPA			;GO TO NEXT TEST
 34314	051616	000000	000000		E53401:	0			;TEST WORD MEMORY
 34315
 34316					;**********
DFKAA PDP-10 KL10 BASIC INSTRUCTION DIAGNOSTIC (1) VER 0,2	MACRO %52(537) 09:34 31-JAN-77 PAGE 58
DFKAA5	MAC	25-AUG-75 14:00		TEST OF MSCL AOSX INSTRUCTIONS                                                     SEQ 0776

 34317					;THIS TEST VERIFIES THAT AOSL INCREMENTS C(E) BY 0,,1 AND PLACES
 34318					;THE RESULT INTO E.  THE RESULT IN E IS COMPARED TO 0 AND SKIPS
 34319					;THE NEXT INSTRUCTION IF C(E) ISLESS THAN 0
 34320					;IF THE AC IS NON-ZERO, THE RESULT IS ALSO PLACED INTO THE AC.
 34321					;IN THIS CASE, AC=6, C(AC)=707070,,707070 AND C(E)=-1,,-1
 34322					;BEFORE INCREMENTING.  HENCE, AOSL SHOULD NOT SKIP; AND THE
 34323					;FINAL RESULTS IN AC AND E SHOULD BE 0 AND 0
 34324					;RESPECTIVELY.
 34325
 34326	051617	200 06 0 00 070332 	C53410:	MOVE	6,[707070,,707070]	;PRELOAD AC WITH 707070,,707070
 34327	051620	474 07 0 00 000000 		SETO	7,		;PRELOAD E WITH -1,,-1
 34328	051621	351 06 0 00 000007 		AOSL	6,7		;*AOSL SHOULD ADD 00,1 TO C(E)
 34329									;UPDATE AC AND NOT SKIP
 34330	051622	334 00 0 00 000000 		SKIPA			;PASS IF AOSL DID NOT SKIP
 34331						STOP^
 34332	051623	254 04 0 00 051624 		HALT	.+1		;TEST FAILED IF PROGRAM HALTS HERE
 34333	051624	324 00 0 00 051625 		JUMPA	.+1		;IF TEST FAILS, CHANGE THIS INSTRUCTION (JUMPA .+1) TO
 34334									;JUMPA X (X IS THE ADDRESS OF THE FIRST INSTRUCTION
 34335									;IN THE SUBTEST) TO LOOP ON ERROR^
 34336	051625	312 07 0 00 070253 		CAME	7,[0]		;PASS IF E INCREMENTED CORRECTLY
 34337						STOP^
 34338	051626	254 04 0 00 051627 		HALT	.+1		;TEST FAILED IF PROGRAM HALTS HERE
 34339	051627	324 00 0 00 051630 		JUMPA	.+1		;IF TEST FAILS, CHANGE THIS INSTRUCTION (JUMPA .+1) TO
 34340									;JUMPA X (X IS THE ADDRESS OF THE FIRST INSTRUCTION
 34341									;IN THE SUBTEST) TO LOOP ON ERROR^
 34342	051630	312 06 0 00 070253 		CAME	6,[0]		;PASS IF AC WAS UPDATED IF AC NON-ZERO
 34343						STOP^
 34344	051631	254 04 0 00 051632 		HALT	.+1		;TEST FAILED IF PROGRAM HALTS HERE
 34345	051632	324 00 0 00 051633 		JUMPA	.+1		;IF TEST FAILS, CHANGE THIS INSTRUCTION (JUMPA .+1) TO
 34346									;JUMPA X (X IS THE ADDRESS OF THE FIRST INSTRUCTION
 34347									;IN THE SUBTEST) TO LOOP ON ERROR^
 34348
 34349					;**********
DFKAA PDP-10 KL10 BASIC INSTRUCTION DIAGNOSTIC (1) VER 0,2	MACRO %52(537) 09:34 31-JAN-77 PAGE 59
DFKAA5	MAC	25-AUG-75 14:00		TEST OF MSCL AOSX INSTRUCTIONS                                                     SEQ 0777

 34350					;THIS TEST VERIFIES THAT AOSL INCREMENTS C(E) BY 0,,1 AND PLACES
 34351					;THE RESULT INTO E.  THE RESULT IN E IS COMPARED TO 0 AND SKIPS
 34352					;THE NEXT INSTRUCTION IF C(E) IS LESS THAN 0.
 34353					;IF THE AC IS NON-ZERO, THE RESULT IS ALSO PLACED INTO THE AC.
 34354					;IN THIS CASE, AC=6, C(AC)=707070,,707070 AND C(E)=0
 34355					;BEFORE INCREMENTING.  HENCE, AOSL SHOULD NOT SKIP; AND THE
 34356					;FINAL RESULTS IN AC AND E SHOULD BE 0,,1 AND 0,,1
 34357					;RESPECTIVELY
 34358
 34359	051633	200 06 0 00 070332 	C53420:	MOVE	6,[707070,,707070]	;PRELOAD AC WITH 707070,,707070
 34360	051634	400 07 0 00 000000 		SETZ	7,		;PRELOAD E WITH 0
 34361	051635	351 06 0 00 000007 		AOSL	6,7		;*AOSL SHOULD ADD 0,,1 TO C(E).
 34362									;UPDATE AC AND NOT SKIP
 34363	051636	334 00 0 00 000000 		SKIPA			;PASS IF AOSL DID NOT SKIP
 34364						STOP^
 34365	051637	254 04 0 00 051640 		HALT	.+1		;TEST FAILED IF PROGRAM HALTS HERE
 34366	051640	324 00 0 00 051641 		JUMPA	.+1		;IF TEST FAILS, CHANGE THIS INSTRUCTION (JUMPA .+1) TO
 34367									;JUMPA X (X IS THE ADDRESS OF THE FIRST INSTRUCTION
 34368									;IN THE SUBTEST) TO LOOP ON ERROR^
 34369	051641	312 07 0 00 070265 		CAME	7,[1]		;PASS IF E INCREMENTED CORRECTLY
 34370						STOP^
 34371	051642	254 04 0 00 051643 		HALT	.+1		;TEST FAILED IF PROGRAM HALTS HERE
 34372	051643	324 00 0 00 051644 		JUMPA	.+1		;IF TEST FAILS, CHANGE THIS INSTRUCTION (JUMPA .+1) TO
 34373									;JUMPA X (X IS THE ADDRESS OF THE FIRST INSTRUCTION
 34374									;IN THE SUBTEST) TO LOOP ON ERROR^
 34375	051644	312 06 0 00 070265 		CAME	6,[1]		;PASS IF AC WAS UPDATED IF AC NON-ZERO
 34376						STOP^
 34377	051645	254 04 0 00 051646 		HALT	.+1		;TEST FAILED IF PROGRAM HALTS HERE
 34378	051646	324 00 0 00 051647 		JUMPA	.+1		;IF TEST FAILS, CHANGE THIS INSTRUCTION (JUMPA .+1) TO
 34379									;JUMPA X (X IS THE ADDRESS OF THE FIRST INSTRUCTION
 34380									;IN THE SUBTEST) TO LOOP ON ERROR^
 34381
 34382					;**********
 34383
 34384					;THIS TEST VERIFIES THAT AOSE INCREMENTS C(E) BY 0,,1 AND PLACES
 34385					;THE RESULT INTO E.  THE RESULT IN E IS COMPARED TO 0 AND SKIPS
 34386					;THE NEXT INSTRUCTION IF C(E) IS EQUAL TO 0.
 34387					;IF THE AC IS NON-ZERO, THE RESULT IS ALSO PLACED INTO THE AC.
 34388					;IN THIS CASE, AC=5, C(AC)=707070,,707070AND C(E)=-1,,-2
 34389					;BEFORE INCREMENTING.  HENCE, AOSE SHOULD NOT SKIP; AND THE
 34390					;FINAL RESULTS IN AC AND E SHOULD BE -1,,-1 AND -1,,-1
 34391					;RESPECTIVELY.
 34392
 34393	051647	200 05 0 00 070332 	C53500:	MOVE	5,[707070,,707070]	;PRELOAD AC WITH 707070,,707070
 34394	051650	561 06 0 00 777776 		HRROI	6,-2		;PRELOAD E WITH -1,,-2
 34395	051651	352 05 0 00 000006 		AOSE	5,6		;*AOSE SHOULD ADD 0,,1 TO C(E),
 34396									;UPDATE AC AND NOT SKIP
 34397	051652	334 00 0 00 000000 		SKIPA			;PASS IF AOSE DID NOT SKIP
 34398						STOP^
 34399	051653	254 04 0 00 051654 		HALT	.+1		;TEST FAILED IF PROGRAM HALTS HERE
 34400	051654	324 00 0 00 051655 		JUMPA	.+1		;IF TEST FAILS, CHANGE THIS INSTRUCTION (JUMPA .+1) TO
 34401									;JUMPA X (X IS THE ADDRESS OF THE FIRST INSTRUCTION
 34402									;IN THE SUBTEST) TO LOOP ON ERROR^
 34403	051655	312 06 0 00 070254 		CAME	6,[-1]		;PASS IF E INCREMENTED CORRECTLY
 34404						STOP^
DFKAA PDP-10 KL10 BASIC INSTRUCTION DIAGNOSTIC (1) VER 0,2	MACRO %52(537) 09:34 31-JAN-77 PAGE 59-1
DFKAA5	MAC	25-AUG-75 14:00		TEST OF MSCL AOSX INSTRUCTIONS                                                     SEQ 0778

 34405	051656	254 04 0 00 051657 		HALT	.+1		;TEST FAILED IF PROGRAM HALTS HERE
 34406	051657	324 00 0 00 051660 		JUMPA	.+1		;IF TEST FAILS, CHANGE THIS INSTRUCTION (JUMPA .+1) TO
 34407									;JUMPA X (X IS THE ADDRESS OF THE FIRST INSTRUCTION
 34408									;IN THE SUBTEST) TO LOOP ON ERROR^
 34409	051660	312 05 0 00 070254 		CAME	5,[-1]		;PASS IF AC WAS UPDATED IF AC NON-ZERO
 34410						STOP^
 34411	051661	254 04 0 00 051662 		HALT	.+1		;TEST FAILED IF PROGRAM HALTS HERE
 34412	051662	324 00 0 00 051663 		JUMPA	.+1		;IF TEST FAILS, CHANGE THIS INSTRUCTION (JUMPA .+1) TO
 34413									;JUMPA X (X IS THE ADDRESS OF THE FIRST INSTRUCTION
 34414									;IN THE SUBTEST) TO LOOP ON ERROR^
 34415
 34416					;**********
DFKAA PDP-10 KL10 BASIC INSTRUCTION DIAGNOSTIC (1) VER 0,2	MACRO %52(537) 09:34 31-JAN-77 PAGE 60
DFKAA5	MAC	25-AUG-75 14:00		TEST OF MSCL AOSX INSTRUCTIONS                                                     SEQ 0779

 34417					;THIS TEST VERIFIES THAT AOSE INCREMENTS C(E) BY 0,,1 AND PLACES
 34418					;THE RESULT INTO E.  THE RESULT IN E IS COMPARED TO 0 AND SKIPS
 34419					;THE NEXT INSTRUCTION IF C(E) IS EQUAL TO 0
 34420					;IF THE AC IS NON-ZERO, THE RESULT IS ALSO PLACED INTO THE AC.
 34421					;IN THIS CASE, AC=5, C(AC)=707070,,707070 AND C(E)=-1,,-1
 34422					;BEFORE INCREMENTING.  HENCE, AOSE SHOULD SKIP; AND THE
 34423					;FINAL RESULTS IN AC AND E SHOULD BE 0 AND 0
 34424					;RESPECTIVELY.
 34425
 34426	051663	200 05 0 00 070332 	C53510:	MOVE	5,[707070,,707070]	;PRELOAD AC WITH 707070,,707070
 34427	051664	474 06 0 00 000000 		SETO	6,		;PRELOAD E WITH -1,,-1
 34428	051665	352 05 0 00 000006 		AOSE	5,6		;*AOSE SHOULD ADD 0,,1 TO C(E),
 34429									;UPDATE AC AND SKIP
 34430						STOP^
 34431	051666	254 04 0 00 051667 		HALT	.+1		;TEST FAILED IF PROGRAM HALTS HERE
 34432	051667	324 00 0 00 051670 		JUMPA	.+1		;IF TEST FAILS, CHANGE THIS INSTRUCTION (JUMPA .+1) TO
 34433									;JUMPA X (X IS THE ADDRESS OF THE FIRST INSTRUCTION
 34434									;IN THE SUBTEST) TO LOOP ON ERROR^
 34435	051670	312 06 0 00 070253 		CAME	6,[0]		;PASS IF E INCREMENTED CORRECTLY
 34436						STOP^
 34437	051671	254 04 0 00 051672 		HALT	.+1		;TEST FAILED IF PROGRAM HALTS HERE
 34438	051672	324 00 0 00 051673 		JUMPA	.+1		;IF TEST FAILS, CHANGE THIS INSTRUCTION (JUMPA .+1) TO
 34439									;JUMPA X (X IS THE ADDRESS OF THE FIRST INSTRUCTION
 34440									;IN THE SUBTEST) TO LOOP ON ERROR^
 34441	051673	312 05 0 00 070253 		CAME	5,[0]		;PASS IF AC WAS UPDATED IF AC NON-ZERO
 34442						STOP^
 34443	051674	254 04 0 00 051675 		HALT	.+1		;TEST FAILED IF PROGRAM HALTS HERE
 34444	051675	324 00 0 00 051676 		JUMPA	.+1		;IF TEST FAILS, CHANGE THIS INSTRUCTION (JUMPA .+1) TO
 34445									;JUMPA X (X IS THE ADDRESS OF THE FIRST INSTRUCTION
 34446									;IN THE SUBTEST) TO LOOP ON ERROR^
 34447
 34448					;**********
 34449
 34450					;THIS TEST VERIFIES THAT AOSE INCREMENTS C(E) BY 0,,1 AND PLACES
 34451					;THE RESULT INTO E.  THE RESULT IN E IS COMPARED TO 0 AND SKIPS
 34452					;THE NEXT INSTRUCTION IF C(E) IS EQUAL TO 0
 34453					;IF THE AC IS NON-ZERO, THE RESULT IS ALSO PLACED INTO THE AC.
 34454					;IN THIS CASE, AC=5, C(AC)=707070,,707070 AND C(AC)=0
 34455					;BEFORE INCREMENTING.  HENCE, AOSE SHOULD NOT SKIP; AND THE
 34456					;FINAL RESULTS IN AC AND E SHOULD BE 0,,1 AND 0,,1
 34457					;RESPECTIVELY.
 34458
 34459	051676	200 05 0 00 070332 	C53520:	MOVE	5,[707070,,707070]	;PRELOAD AC WITH 707070,,707070
 34460	051677	400 06 0 00 000000 		SETZ	6,		;PRELOAD E WITH 0
 34461	051700	352 05 0 00 000006 		AOSE	5,6		;*AOSE SHOULD ADD 0,,1 TO C(E),
 34462									;UPDATE AC AND NOT SKIP
 34463	051701	334 00 0 00 000000 		SKIPA			;PASS IF AOSE DID NOT SKIP
 34464						STOP^
 34465	051702	254 04 0 00 051703 		HALT	.+1		;TEST FAILED IF PROGRAM HALTS HERE
 34466	051703	324 00 0 00 051704 		JUMPA	.+1		;IF TEST FAILS, CHANGE THIS INSTRUCTION (JUMPA .+1) TO
 34467									;JUMPA X (X IS THE ADDRESS OF THE FIRST INSTRUCTION
 34468									;IN THE SUBTEST) TO LOOP ON ERROR^
 34469	051704	312 06 0 00 070265 		CAME	6,[1]		;PASS IF E INCREMENTED CORRECTLY
 34470						STOP^
 34471	051705	254 04 0 00 051706 		HALT	.+1		;TEST FAILED IF PROGRAM HALTS HERE
DFKAA PDP-10 KL10 BASIC INSTRUCTION DIAGNOSTIC (1) VER 0,2	MACRO %52(537) 09:34 31-JAN-77 PAGE 60-1
DFKAA5	MAC	25-AUG-75 14:00		TEST OF MSCL AOSX INSTRUCTIONS                                                     SEQ 0780

 34472	051706	324 00 0 00 051707 		JUMPA	.+1		;IF TEST FAILS, CHANGE THIS INSTRUCTION (JUMPA .+1) TO
 34473									;JUMPA X (X IS THE ADDRESS OF THE FIRST INSTRUCTION
 34474									;IN THE SUBTEST) TO LOOP ON ERROR^
 34475	051707	312 05 0 00 070265 		CAME	5,[1]		;PASS IF AC WAS UPDATED IF AC NON-ZERO
 34476						STOP^
 34477	051710	254 04 0 00 051711 		HALT	.+1		;TEST FAILED IF PROGRAM HALTS HERE
 34478	051711	324 00 0 00 051712 		JUMPA	.+1		;IF TEST FAILS, CHANGE THIS INSTRUCTION (JUMPA .+1) TO
 34479									;JUMPA X (X IS THE ADDRESS OF THE FIRST INSTRUCTION
 34480									;IN THE SUBTEST) TO LOOP ON ERROR^
 34481
 34482					;**********
