DFKAA PDP-10 KL10 BASIC INSTRUCTION DIAGNOSTIC (1) VER 0,2	MACRO %52(537) 09:34 31-JAN-77 PAGE 61
DFKAA5	MAC	25-AUG-75 14:00		TEST OF MSCL AOSX INSTRUCTIONS                                                     SEQ 0781

 34483					;THIS TEST VERIFIES THAT AOSLE INCREMENTS C(E) BY 0,,1 AND PLACES
 34484					;THE RESULT INTO E.  THE RESULT IN E IS COMPARED TO 0 AND SKIPS
 34485					;THE NEXT INSTRUCTION IF C(E) IS LESS THAN OR EQUAL TO0
 34486					;IF THE AC IS NON-ZERO, THE RESULT IS ALSO PLACED INTO THE AC.
 34487					;IN THIS CASE, AC=4, C(AC)=707070,,707070 AND C(E)=-1,,-2
 34488					;BEFORE INCREMENTING.  HENCE, AOSLE SHOULD SKIP; AND THE
 34489					;FINAL RESULTS IN AC AND E SHOULD BE -1,,-1 AND -1,,-1
 34490					;RESPECTIVELY.
 34491
 34492	051712	200 04 0 00 070332 	C53600:	MOVE	4,[707070,,707070]	;PRELOAD AC WITH 707070,,707070
 34493	051713	561 05 0 00 777776 		HRROI	5,-2		;PRELOAD E WITH -1,,-2
 34494	051714	353 04 0 00 000005 		AOSLE	4,5		;*AOSLE SHOULD ADD 0,,1 TO C(E),
 34495									;UPDATE AC AND SKIP ZERO
 34496						STOP^
 34497	051715	254 04 0 00 051716 		HALT	.+1		;TEST FAILED IF PROGRAM HALTS HERE
 34498	051716	324 00 0 00 051717 		JUMPA	.+1		;IF TEST FAILS, CHANGE THIS INSTRUCTION (JUMPA .+1) TO
 34499									;JUMPA X (X IS THE ADDRESS OF THE FIRST INSTRUCTION
 34500									;IN THE SUBTEST) TO LOOP ON ERROR^
 34501	051717	312 05 0 00 070254 		CAME	5,[-1]		;PASS IF E INCREMENTED CORRECTLY
 34502						STOP^
 34503	051720	254 04 0 00 051721 		HALT	.+1		;TEST FAILED IF PROGRAM HALTS HERE
 34504	051721	324 00 0 00 051722 		JUMPA	.+1		;IF TEST FAILS, CHANGE THIS INSTRUCTION (JUMPA .+1) TO
 34505									;JUMPA X (X IS THE ADDRESS OF THE FIRST INSTRUCTION
 34506									;IN THE SUBTEST) TO LOOP ON ERROR^
 34507	051722	312 04 0 00 070254 		CAME	4,[-1]		;PASS IF AC WAS UPDATED IF AC NON-ZERO
 34508						STOP^
 34509	051723	254 04 0 00 051724 		HALT	.+1		;TEST FAILED IF PROGRAM HALTS HERE
 34510	051724	324 00 0 00 051725 		JUMPA	.+1		;IF TEST FAILS, CHANGE THIS INSTRUCTION (JUMPA .+1) TO
 34511									;JUMPA X (X IS THE ADDRESS OF THE FIRST INSTRUCTION
 34512									;IN THE SUBTEST) TO LOOP ON ERROR^
 34513
 34514					;**********
 34515
 34516					;THIS TEST VERIFIES THAT AOSLE INCREMENTS C(E) BY 0,,1 AND PLACES
 34517					;THE RESULT INTO E.  THE RESULT IN E IS COMPARED TO 0 AND SKIPS
 34518					;THE NEXT INSTRUCTION IF C(E) IS LESS THAN OR EQUAL TO 0.
 34519					;IF THE AC IS NON-ZERO, THE RESULT IS ALSO PLACED INTO THE AC.
 34520					;IN THIS CASE, AC=4, C(AC)=707070,,707070 AND C(E)=-1,,-1
 34521					;BEFORE INCREMENTING.  HENCE, AOSLE SHOULD SKIP; AND THE
 34522					;FINAL RESULTS IN AC AND E SHOULD BE 0 AND 0
 34523					;RESPECTIVELY.
 34524
 34525	051725	200 04 0 00 070332 	C53610:	MOVE	4,[707070,,707070]	;PRELOAD AC WITH 707070,,707070
 34526	051726	476 05 0 00 000000 		SETOM	5,		;PRELOAD E WITH -1,,-1
 34527	051727	353 04 0 00 000005 		AOSLE	4,5		;*AOSLE SHOULD ADD 0,,1 TO C(E)
 34528									;UPDATE AC AND SKIP
 34529						STOP^
 34530	051730	254 04 0 00 051731 		HALT	.+1		;TEST FAILED IF PROGRAM HALTS HERE
 34531	051731	324 00 0 00 051732 		JUMPA	.+1		;IF TEST FAILS, CHANGE THIS INSTRUCTION (JUMPA .+1) TO
 34532									;JUMPA X (X IS THE ADDRESS OF THE FIRST INSTRUCTION
 34533									;IN THE SUBTEST) TO LOOP ON ERROR^
 34534	051732	312 05 0 00 070253 		CAME	5,[0]		;PASS IF E INCREMENTED CORRECTLY
 34535						STOP^
 34536	051733	254 04 0 00 051734 		HALT	.+1		;TEST FAILED IF PROGRAM HALTS HERE
 34537	051734	324 00 0 00 051735 		JUMPA	.+1		;IF TEST FAILS, CHANGE THIS INSTRUCTION (JUMPA .+1) TO
DFKAA PDP-10 KL10 BASIC INSTRUCTION DIAGNOSTIC (1) VER 0,2	MACRO %52(537) 09:34 31-JAN-77 PAGE 61-1
DFKAA5	MAC	25-AUG-75 14:00		TEST OF MSCL AOSX INSTRUCTIONS                                                     SEQ 0782

 34538									;JUMPA X (X IS THE ADDRESS OF THE FIRST INSTRUCTION
 34539									;IN THE SUBTEST) TO LOOP ON ERROR^
 34540	051735	312 04 0 00 070253 		CAME	4,[0]		;PASS IF AC WAS UPDATED IF AC NON-ZERO
 34541						STOP^
 34542	051736	254 04 0 00 051737 		HALT	.+1		;TEST FAILED IF PROGRAM HALTS HERE
 34543	051737	324 00 0 00 051740 		JUMPA	.+1		;IF TEST FAILS, CHANGE THIS INSTRUCTION (JUMPA .+1) TO
 34544									;JUMPA X (X IS THE ADDRESS OF THE FIRST INSTRUCTION
 34545									;IN THE SUBTEST) TO LOOP ON ERROR^
 34546
 34547					;**********
DFKAA PDP-10 KL10 BASIC INSTRUCTION DIAGNOSTIC (1) VER 0,2	MACRO %52(537) 09:34 31-JAN-77 PAGE 62
DFKAA5	MAC	25-AUG-75 14:00		TEST OF MSCL AOSX INSTRUCTIONS                                                     SEQ 0783

 34548					;THIS TEST VERIFIES THAT AOSLE INCREMENTS C(E) BY 0,,1 AND PLACES
 34549					;THE RESULT INTO E.  THE RESULT IN E IS COMPARED TO 0 AND SKIPS
 34550					;THE NEXT INSTRUCTION IF C(E) IS LESS THAN OR EQUAL TO 0
 34551					;IF THE AC IS NON-ZERO, THE RESULT IS ALSO PLACED INTO THE AC.
 34552					;IN THIS CASE, AC=4, C(AC)=707070,,707070 AND C(E)=0
 34553					;BEFORE INCREMENTING.  HENCE, AOSLE SHOULD NOT SKIP ; AND THE
 34554					;FINAL RESULTS IN AC AND E SHOULD BE 0,,1 AND 0,,1
 34555					;RESPECTIVELY.
 34556
 34557	051740	200 04 0 00 070332 	C53620:	MOVE	4,[707070,,707070]	;PRELOAD AC WITH 707070,,707070
 34558	051741	400 00 0 00 000005 		SETZ	5		;PRELOAD E WITH 0
 34559	051742	353 04 0 00 000005 		AOSLE	4,5		;*AOSLE SHOULD ADD 0,,1 TO C(E)
 34560									;UPDATE AC AND NOT SKIP
 34561	051743	334 00 0 00 000000 		SKIPA			;PASS IF AOSLE DID NOT SKIP
 34562						STOP^
 34563	051744	254 04 0 00 051745 		HALT	.+1		;TEST FAILED IF PROGRAM HALTS HERE
 34564	051745	324 00 0 00 051746 		JUMPA	.+1		;IF TEST FAILS, CHANGE THIS INSTRUCTION (JUMPA .+1) TO
 34565									;JUMPA X (X IS THE ADDRESS OF THE FIRST INSTRUCTION
 34566									;IN THE SUBTEST) TO LOOP ON ERROR^
 34567	051746	312 05 0 00 070265 		CAME	5,[1]		;PASS IF E INCREMENTED CORRECTLY
 34568						STOP^
 34569	051747	254 04 0 00 051750 		HALT	.+1		;TEST FAILED IF PROGRAM HALTS HERE
 34570	051750	324 00 0 00 051751 		JUMPA	.+1		;IF TEST FAILS, CHANGE THIS INSTRUCTION (JUMPA .+1) TO
 34571									;JUMPA X (X IS THE ADDRESS OF THE FIRST INSTRUCTION
 34572									;IN THE SUBTEST) TO LOOP ON ERROR^
 34573	051751	312 04 0 00 070265 		CAME	4,[1]		;PASS IF AC WAS UPDATED IF AC NON-ZERO
 34574						STOP^
 34575	051752	254 04 0 00 051753 		HALT	.+1		;TEST FAILED IF PROGRAM HALTS HERE
 34576	051753	324 00 0 00 051754 		JUMPA	.+1		;IF TEST FAILS, CHANGE THIS INSTRUCTION (JUMPA .+1) TO
 34577									;JUMPA X (X IS THE ADDRESS OF THE FIRST INSTRUCTION
 34578									;IN THE SUBTEST) TO LOOP ON ERROR^
 34579
 34580					;**********
 34581
 34582					;THIS TEST VERIFIES THAT AOSA INCREMENTS C(E) BY 0,,1 AND PLACES
 34583					;THE RESULT INTO E.  THE RESULT IN E IS COMPARED TO 0 AND ALWAYS SKIPS
 34584					;THE NEXT INSTRUCTION.
 34585					;IF THE AC IS NON-ZERO, THE RESULT IS ALSO PLACED INTO THE AC.
 34586					;IN THIS CASE, AC=3, C(AC)=707070,,707070 AND C(E)=-1,,-2
 34587					;BEFORE INCREMENTING.  HENCE, AOSA SHOULD SKIP ; AND THE
 34588					;FINAL RESULTS IN AC AND E SHOULD BE -1,,-1 AND -1,,-1
 34589					;RESPECTIVELY.
 34590
 34591	051754	200 03 0 00 070332 	C53700:	MOVE	3,[707070,,707070] ;PRELOAD AC WITH 707070,,707070
 34592	051755	561 04 0 00 777776 		HRROI	4,-2		;PRELOAD E WITH -1,,-2
 34593	051756	354 03 0 00 000004 		AOSA	3,4		;*AOSA SHOULD ADD 0,,1 TO C(E),
 34594									;UPDATE AC AND SKIP
 34595						STOP^
 34596	051757	254 04 0 00 051760 		HALT	.+1		;TEST FAILED IF PROGRAM HALTS HERE
 34597	051760	324 00 0 00 051761 		JUMPA	.+1		;IF TEST FAILS, CHANGE THIS INSTRUCTION (JUMPA .+1) TO
 34598									;JUMPA X (X IS THE ADDRESS OF THE FIRST INSTRUCTION
 34599									;IN THE SUBTEST) TO LOOP ON ERROR^
 34600	051761	312 04 0 00 070254 		CAME	4,[-1]		;PASS IF E INCREMENTED CORRECTLY
 34601						STOP^
 34602	051762	254 04 0 00 051763 		HALT	.+1		;TEST FAILED IF PROGRAM HALTS HERE
DFKAA PDP-10 KL10 BASIC INSTRUCTION DIAGNOSTIC (1) VER 0,2	MACRO %52(537) 09:34 31-JAN-77 PAGE 62-1
DFKAA5	MAC	25-AUG-75 14:00		TEST OF MSCL AOSX INSTRUCTIONS                                                     SEQ 0784

 34603	051763	324 00 0 00 051764 		JUMPA	.+1		;IF TEST FAILS, CHANGE THIS INSTRUCTION (JUMPA .+1) TO
 34604									;JUMPA X (X IS THE ADDRESS OF THE FIRST INSTRUCTION
 34605									;IN THE SUBTEST) TO LOOP ON ERROR^
 34606	051764	312 03 0 00 070254 		CAME	3,[-1]		;PASS IF AC WAS UPDATED IF AC NON-ZERO
 34607						STOP^
 34608	051765	254 04 0 00 051766 		HALT	.+1		;TEST FAILED IF PROGRAM HALTS HERE
 34609	051766	324 00 0 00 051767 		JUMPA	.+1		;IF TEST FAILS, CHANGE THIS INSTRUCTION (JUMPA .+1) TO
 34610									;JUMPA X (X IS THE ADDRESS OF THE FIRST INSTRUCTION
 34611									;IN THE SUBTEST) TO LOOP ON ERROR^
 34612
 34613					;**********
DFKAA PDP-10 KL10 BASIC INSTRUCTION DIAGNOSTIC (1) VER 0,2	MACRO %52(537) 09:34 31-JAN-77 PAGE 63
DFKAA5	MAC	25-AUG-75 14:00		TEST OF MSCL AOSX INSTRUCTIONS                                                     SEQ 0785

 34614					;THIS TEST VERIFIES THAT AOSA INCREMENTS C(E) BY 0,,1 AND PLACES
 34615					;THE RESULT INTO E.  THE RESULT IN E IS COMPARED TO 0 AND ALWAYS SKIPS
 34616					;THE NEXT INSTRUCTION.
 34617					;IF THE AC IS NON-ZERO, THE RESULT IS ALSO PLACED INTO THE AC.
 34618					;;IN THIS CASE, AC=3, C(AC)=707070,,707070 AND C(E)=-1,,-1
 34619					;BEFORE INCREMENTING.  HENCE, AOSA SHOULD SKIP AND THE
 34620					;FINAL RESULTS IN AC AND E SHOULD BE 0 AND 0
 34621					;RESPECTIVELY
 34622
 34623	051767	200 03 0 00 070332 	C53710:	MOVE	3,[707070,,707070] ;PRELOAD AC WITH 707070,,707070
 34624	051770	474 04 0 00 000000 		SETO	4,		;PRELOAD E WITH -1,,-1
 34625	051771	354 03 0 00 000004 		AOSA	3,4		;*AOSA SHOULD ADD 0,,1 TO C(E),
 34626									;UPDATE AC AND SKIP
 34627						STOP^
 34628	051772	254 04 0 00 051773 		HALT	.+1		;TEST FAILED IF PROGRAM HALTS HERE
 34629	051773	324 00 0 00 051774 		JUMPA	.+1		;IF TEST FAILS, CHANGE THIS INSTRUCTION (JUMPA .+1) TO
 34630									;JUMPA X (X IS THE ADDRESS OF THE FIRST INSTRUCTION
 34631									;IN THE SUBTEST) TO LOOP ON ERROR^
 34632	051774	312 04 0 00 070253 		CAME	4,[0]		;PASS IF E INCREMENTED CORRECTLY
 34633						STOP^
 34634	051775	254 04 0 00 051776 		HALT	.+1		;TEST FAILED IF PROGRAM HALTS HERE
 34635	051776	324 00 0 00 051777 		JUMPA	.+1		;IF TEST FAILS, CHANGE THIS INSTRUCTION (JUMPA .+1) TO
 34636									;JUMPA X (X IS THE ADDRESS OF THE FIRST INSTRUCTION
 34637									;IN THE SUBTEST) TO LOOP ON ERROR^
 34638	051777	312 03 0 00 070253 		CAME	3,[0]		;PASS IF AC WAS UPDATED IF AC NON-ZERO
 34639						STOP^
 34640	052000	254 04 0 00 052001 		HALT	.+1		;TEST FAILED IF PROGRAM HALTS HERE
 34641	052001	324 00 0 00 052002 		JUMPA	.+1		;IF TEST FAILS, CHANGE THIS INSTRUCTION (JUMPA .+1) TO
 34642									;JUMPA X (X IS THE ADDRESS OF THE FIRST INSTRUCTION
 34643									;IN THE SUBTEST) TO LOOP ON ERROR^
 34644
 34645					;**********
 34646
 34647					;THIS TEST VERIFIES THAT AOS INCREMENTS C(E) BY 0,,1 AND PLACES
 34648					;THE RESULT INTO E.  THE RESULT IN E IS COMPARED TO 0 AND ALWAYS SKIPS
 34649					;THE NEXT INSTRUCTION.
 34650					;IF THE AC IS NON-ZERO, THE RESULT IS ALSO PLACED INTO THE AC.
 34651					;IN THIS CASE, AC=3, C(AC)=707070,,707070 AND C(E)=0
 34652					;BEFORE INCREMENTING.  HENCE, AOSA SHOULD SKIP ; AND THE
 34653					;FINAL RESULTS IN AC AND E SHOULD BE 0,,1 AND 0,,1
 34654					;RESPECTIVELY
 34655
 34656	052002	200 03 0 00 070332 	C53720:	MOVE	3,[707070,,707070] ;PRELOAD AC WITH 707070,,707070
 34657	052003	400 04 0 00 000000 		SETZ	4,		;PRELOAD E WITH 0
 34658	052004	354 03 0 00 000004 		AOSA	3,4		;*AOSA SHOULD ADD 0,,1 TO C(E),
 34659									;UPDATE AC AND SKIP
 34660						STOP^
 34661	052005	254 04 0 00 052006 		HALT	.+1		;TEST FAILED IF PROGRAM HALTS HERE
 34662	052006	324 00 0 00 052007 		JUMPA	.+1		;IF TEST FAILS, CHANGE THIS INSTRUCTION (JUMPA .+1) TO
 34663									;JUMPA X (X IS THE ADDRESS OF THE FIRST INSTRUCTION
 34664									;IN THE SUBTEST) TO LOOP ON ERROR^
 34665	052007	312 04 0 00 070265 		CAME	4,[1]		;PASS IF E INCREMENTED CORRECTLY
 34666						STOP^
 34667	052010	254 04 0 00 052011 		HALT	.+1		;TEST FAILED IF PROGRAM HALTS HERE
 34668	052011	324 00 0 00 052012 		JUMPA	.+1		;IF TEST FAILS, CHANGE THIS INSTRUCTION (JUMPA .+1) TO
DFKAA PDP-10 KL10 BASIC INSTRUCTION DIAGNOSTIC (1) VER 0,2	MACRO %52(537) 09:34 31-JAN-77 PAGE 63-1
DFKAA5	MAC	25-AUG-75 14:00		TEST OF MSCL AOSX INSTRUCTIONS                                                     SEQ 0786

 34669									;JUMPA X (X IS THE ADDRESS OF THE FIRST INSTRUCTION
 34670									;IN THE SUBTEST) TO LOOP ON ERROR^
 34671	052012	312 03 0 00 070265 		CAME	3,[1]		;PASS IF AC WAS UPDATED IF AC NON-ZERO
 34672						STOP^
 34673	052013	254 04 0 00 052014 		HALT	.+1		;TEST FAILED IF PROGRAM HALTS HERE
 34674	052014	324 00 0 00 052015 		JUMPA	.+1		;IF TEST FAILS, CHANGE THIS INSTRUCTION (JUMPA .+1) TO
 34675									;JUMPA X (X IS THE ADDRESS OF THE FIRST INSTRUCTION
 34676									;IN THE SUBTEST) TO LOOP ON ERROR^
 34677
 34678					;**********
DFKAA PDP-10 KL10 BASIC INSTRUCTION DIAGNOSTIC (1) VER 0,2	MACRO %52(537) 09:34 31-JAN-77 PAGE 64
DFKAA5	MAC	25-AUG-75 14:00		TEST OF MSCL AOSX INSTRUCTIONS                                                     SEQ 0787

 34679					;THIS TEST VERIFIES THAT AOSGE INCREMENTS C(E) BY 0,,1 AND PLACES
 34680					;THE RESULT INTO E.  THE RESULT IN E IS COMPARED TO 0 AND SKIPS
 34681					;THE NEXT INSTRUCTION IF C(E) IS GREATER THAN OR EQUAL TO 0
 34682					;IF THE AC IS NON-ZERO, THE RESULT IS ALSO PLACED INTO THE AC.
 34683					;IN THIS CASE, AC=2, C(AC)=707070,,707070 AND C(E)=-1,,-2
 34684					;BEFORE INCREMENTING.  HENCE, AOSGE SHOULD NOT SKIP; AND THE
 34685					;FINAL RESULTS IN AC AND E SHOULD BE -1,,-1 AND -1,,-1
 34686					;RESPECTIVELY
 34687
 34688	052015	200 02 0 00 070332 	C54000:	MOVE	2,[707070,,707070] ;PRELOAD AC WITH 707070,,707070
 34689	052016	561 03 0 00 777776 		HRROI	3,-2		;PRELOAD E WITH -1,,-2
 34690	052017	355 02 0 00 000003 		AOSGE	2,3		;*AOSGE SHOULD ADD 0,,1 TO C(E),
 34691									;UPDATE AC AND NOT SKIP
 34692	052020	334 00 0 00 000000 		SKIPA			;PASS IF AOSGE DID NOT SKIP
 34693						STOP^
 34694	052021	254 04 0 00 052022 		HALT	.+1		;TEST FAILED IF PROGRAM HALTS HERE
 34695	052022	324 00 0 00 052023 		JUMPA	.+1		;IF TEST FAILS, CHANGE THIS INSTRUCTION (JUMPA .+1) TO
 34696									;JUMPA X (X IS THE ADDRESS OF THE FIRST INSTRUCTION
 34697									;IN THE SUBTEST) TO LOOP ON ERROR^
 34698	052023	312 03 0 00 070254 		CAME	3,[-1]		;PASS IF E INCREMENTED CORRECTLY
 34699						STOP^
 34700	052024	254 04 0 00 052025 		HALT	.+1		;TEST FAILED IF PROGRAM HALTS HERE
 34701	052025	324 00 0 00 052026 		JUMPA	.+1		;IF TEST FAILS, CHANGE THIS INSTRUCTION (JUMPA .+1) TO
 34702									;JUMPA X (X IS THE ADDRESS OF THE FIRST INSTRUCTION
 34703									;IN THE SUBTEST) TO LOOP ON ERROR^
 34704	052026	312 02 0 00 070254 		CAME	2,[-1]		;PASS IF AC WAS UPDATED IF AC NON-ZERO
 34705						STOP^
 34706	052027	254 04 0 00 052030 		HALT	.+1		;TEST FAILED IF PROGRAM HALTS HERE
 34707	052030	324 00 0 00 052031 		JUMPA	.+1		;IF TEST FAILS, CHANGE THIS INSTRUCTION (JUMPA .+1) TO
 34708									;JUMPA X (X IS THE ADDRESS OF THE FIRST INSTRUCTION
 34709									;IN THE SUBTEST) TO LOOP ON ERROR^
 34710
 34711					;**********
 34712
 34713					;THIS TEST VERIFIES THAT AOSGE INCREMENTS C(E) BY 0,,1 AND PLACES
 34714					;THE RESULT INTO E.  THE RESULT IN E IS COMPARED TO 0 AND SKIPS
 34715					;THE NEXT INSTRUCTION IF C(E) IS GREATER THAN OR EQUAL TO 0
 34716					;IF THE AC IS NON-ZERO, THE RESULT IS ALSO PLACED INTO THE AC.
 34717					;IN THIS CASE, AC=2, C(AC)=707070,,707070 AND C(E)=-1,,-1
 34718					;BEFORE INCREMENTING.  HENCE, AOSGE SHOULD SKIP; AND THE
 34719					;FINAL RESULTS IN AC AND E SHOULD BE 0 AND 0
 34720					;RESPECTIVELY
 34721
 34722	052031	200 02 0 00 070332 	C54010:	MOVE	2,[707070,,707070] ;PRELOAD AC WITH 707070,,707070
 34723	052032	474 03 0 00 000000 		SETO	3,		;PRELOAD E WITH 0
 34724	052033	355 02 0 00 000003 		AOSGE	2,3		;*AOSGE SHOULD ADD 0,,1 TO C(E),
 34725									;UPDATE AC AND SKIP
 34726						STOP^
 34727	052034	254 04 0 00 052035 		HALT	.+1		;TEST FAILED IF PROGRAM HALTS HERE
 34728	052035	324 00 0 00 052036 		JUMPA	.+1		;IF TEST FAILS, CHANGE THIS INSTRUCTION (JUMPA .+1) TO
 34729									;JUMPA X (X IS THE ADDRESS OF THE FIRST INSTRUCTION
 34730									;IN THE SUBTEST) TO LOOP ON ERROR^
 34731	052036	312 03 0 00 070253 		CAME	3,[0]		;PASS IF E INCREMENTED CORRECTLY
 34732						STOP^
 34733	052037	254 04 0 00 052040 		HALT	.+1		;TEST FAILED IF PROGRAM HALTS HERE
DFKAA PDP-10 KL10 BASIC INSTRUCTION DIAGNOSTIC (1) VER 0,2	MACRO %52(537) 09:34 31-JAN-77 PAGE 64-1
DFKAA5	MAC	25-AUG-75 14:00		TEST OF MSCL AOSX INSTRUCTIONS                                                     SEQ 0788

 34734	052040	324 00 0 00 052041 		JUMPA	.+1		;IF TEST FAILS, CHANGE THIS INSTRUCTION (JUMPA .+1) TO
 34735									;JUMPA X (X IS THE ADDRESS OF THE FIRST INSTRUCTION
 34736									;IN THE SUBTEST) TO LOOP ON ERROR^
 34737	052041	312 02 0 00 070253 		CAME	2,[0]		;PASS IF AC WAS UPDATED IF AC NON-ZERO
 34738						STOP^
 34739	052042	254 04 0 00 052043 		HALT	.+1		;TEST FAILED IF PROGRAM HALTS HERE
 34740	052043	324 00 0 00 052044 		JUMPA	.+1		;IF TEST FAILS, CHANGE THIS INSTRUCTION (JUMPA .+1) TO
 34741									;JUMPA X (X IS THE ADDRESS OF THE FIRST INSTRUCTION
 34742									;IN THE SUBTEST) TO LOOP ON ERROR^
 34743
 34744					;**********
DFKAA PDP-10 KL10 BASIC INSTRUCTION DIAGNOSTIC (1) VER 0,2	MACRO %52(537) 09:34 31-JAN-77 PAGE 65
DFKAA5	MAC	25-AUG-75 14:00		TEST OF MSCL AOSX INSTRUCTIONS                                                     SEQ 0789

 34745					;THIS TEST VERIFIES THAT AOSGE INCREMENTS C(E) BY 0,,1 AND PLACES
 34746					;THE RESULT INTO E.  THE RESULT IN E IS COMPARED TO 0 AND SKIPS
 34747					;THE NEXT INSTRUCTION IF C(E) IS GREATER THAN OR EQUAL TO 0
 34748					;IF THE AC IS NON-ZERO, THE RESULT IS ALSO PLACED INTO THE AC.
 34749					;IN THIS CASE, AC=2, C(AC)=707070,,707070 AND C(E)=0
 34750					;BEFORE INCREMENTING.  HENCE, AOSGE SHOULD SKIP; AND THE
 34751					;FINAL RESULTS IN AC AND E SHOULD BE 0,,1 AND 0,,1
 34752					;RESPECTIVELY
 34753
 34754	052044	200 02 0 00 070332 	C54020:	MOVE	2,[707070,,707070] ;PRELOAD AC WITH 707070,,707070
 34755	052045	400 03 0 00 000000 		SETZ	3,		;PRELOAD E WITH 0
 34756	052046	355 02 0 00 000003 		AOSGE	2,3		;*AOSGE SHOULD ADD 0,,1 TO C(E),
 34757									;UPDATE AC AND SKIP
 34758						STOP^
 34759	052047	254 04 0 00 052050 		HALT	.+1		;TEST FAILED IF PROGRAM HALTS HERE
 34760	052050	324 00 0 00 052051 		JUMPA	.+1		;IF TEST FAILS, CHANGE THIS INSTRUCTION (JUMPA .+1) TO
 34761									;JUMPA X (X IS THE ADDRESS OF THE FIRST INSTRUCTION
 34762									;IN THE SUBTEST) TO LOOP ON ERROR^
 34763	052051	312 03 0 00 070265 		CAME	3,[1]		;PASS IF E INCREMENTED CORRECTLY
 34764						STOP^
 34765	052052	254 04 0 00 052053 		HALT	.+1		;TEST FAILED IF PROGRAM HALTS HERE
 34766	052053	324 00 0 00 052054 		JUMPA	.+1		;IF TEST FAILS, CHANGE THIS INSTRUCTION (JUMPA .+1) TO
 34767									;JUMPA X (X IS THE ADDRESS OF THE FIRST INSTRUCTION
 34768									;IN THE SUBTEST) TO LOOP ON ERROR^
 34769	052054	312 02 0 00 070265 		CAME	2,[1]		;PASS IF AC WAS UPDATED IF AC NON-ZERO
 34770						STOP^
 34771	052055	254 04 0 00 052056 		HALT	.+1		;TEST FAILED IF PROGRAM HALTS HERE
 34772	052056	324 00 0 00 052057 		JUMPA	.+1		;IF TEST FAILS, CHANGE THIS INSTRUCTION (JUMPA .+1) TO
 34773									;JUMPA X (X IS THE ADDRESS OF THE FIRST INSTRUCTION
 34774									;IN THE SUBTEST) TO LOOP ON ERROR^
 34775
 34776					;**********
 34777
 34778					;THIS TEST VERIFIES THAT AOSN INCREMENTS C(E) BY 0,,1 AND PLACES
 34779					;THE RESULT INTO E.  THE RESULT IN E IS COMPARED TO 0 AND SKIPS
 34780					;THE NEXT INSTRUCTION IF C(E) IS NON-ZERO.
 34781					;IF THE AC IS NON-ZERO, THE RESULT IS ALSO PLACED INTO THE AC.
 34782					;IN THIS CASE, AC=1, C(AC)=707070,,707070 AND C(E)=-1,,-2
 34783					;BEFORE INCREMENTING.  HENCE, AOSN SHOULD NOT SKIP; AND THE
 34784					;FINAL RESULTS IN AC AND E SHOULD BE -1,,-1 AND -1,,-1
 34785					;RESPECTIVELY
 34786
 34787	052057	200 01 0 00 070332 	C54100:	MOVE	1,[707070,,707070] ;PRELOAD AC WITH 707070,,707070
 34788	052060	561 02 0 00 777776 		HRROI	2,-2		;PRELOAD E WITH -1,,-2
 34789	052061	356 01 0 00 000002 		AOSN	1,2		;*AOSN SHOULD ADD 0,,1 TO C(E),
 34790									;UPDATE AC AND SKIP
 34791						STOP^
 34792	052062	254 04 0 00 052063 		HALT	.+1		;TEST FAILED IF PROGRAM HALTS HERE
 34793	052063	324 00 0 00 052064 		JUMPA	.+1		;IF TEST FAILS, CHANGE THIS INSTRUCTION (JUMPA .+1) TO
 34794									;JUMPA X (X IS THE ADDRESS OF THE FIRST INSTRUCTION
 34795									;IN THE SUBTEST) TO LOOP ON ERROR^
 34796	052064	312 02 0 00 070254 		CAME	2,[-1]		;PASS IF E INCREMENTED CORRECTLY
 34797						STOP^
 34798	052065	254 04 0 00 052066 		HALT	.+1		;TEST FAILED IF PROGRAM HALTS HERE
 34799	052066	324 00 0 00 052067 		JUMPA	.+1		;IF TEST FAILS, CHANGE THIS INSTRUCTION (JUMPA .+1) TO
DFKAA PDP-10 KL10 BASIC INSTRUCTION DIAGNOSTIC (1) VER 0,2	MACRO %52(537) 09:34 31-JAN-77 PAGE 65-1
DFKAA5	MAC	25-AUG-75 14:00		TEST OF MSCL AOSX INSTRUCTIONS                                                     SEQ 0790

 34800									;JUMPA X (X IS THE ADDRESS OF THE FIRST INSTRUCTION
 34801									;IN THE SUBTEST) TO LOOP ON ERROR^
 34802	052067	312 01 0 00 070254 		CAME	1,[-1]		;PASS IF AC WAS UPDATED IF AC NON-ZERO
 34803						STOP^
 34804	052070	254 04 0 00 052071 		HALT	.+1		;TEST FAILED IF PROGRAM HALTS HERE
 34805	052071	324 00 0 00 052072 		JUMPA	.+1		;IF TEST FAILS, CHANGE THIS INSTRUCTION (JUMPA .+1) TO
 34806									;JUMPA X (X IS THE ADDRESS OF THE FIRST INSTRUCTION
 34807									;IN THE SUBTEST) TO LOOP ON ERROR^
 34808
 34809					;**********
DFKAA PDP-10 KL10 BASIC INSTRUCTION DIAGNOSTIC (1) VER 0,2	MACRO %52(537) 09:34 31-JAN-77 PAGE 66
DFKAA5	MAC	25-AUG-75 14:00		TEST OF MSCL AOSX INSTRUCTIONS                                                     SEQ 0791

 34810					;THIS TEST VERIFIES THAT AOSN INCREMENTS C(E) BY 0,,1 AND PLACES
 34811					;THE RESULT INTO E.  THE RESULT IN E IS COMPARED TO 0 AND SKIPS
 34812					;THE NEXT INSTRUCTION IF C(E) IS NON-ZERO
 34813					;IF THE AC IS NON-ZERO, THE RESULT IS ALSO PLACED INTO THE AC.
 34814					;IN THIS CASE, AC=1, C(AC)=707070,,707070 AND C(E)=-1,,-1
 34815					;BEFORE INCREMENTING.  HENCE, AOSN SHOULD NOT SKIP; AND THE
 34816					;FINAL RESULTS IN AC AND E SHOULD BE 0 AND 0
 34817					;RESPECTIVELY
 34818
 34819	052072	200 01 0 00 070332 	C54110:	MOVE	1,[707070,,707070] ;PRELOAD AC WITH 707070,,707070
 34820	052073	474 02 0 00 000000 		SETO	2,		;PRELOAD E WITH -1,,-1
 34821	052074	356 01 0 00 000002 		AOSN	1,2		;*AOSN SHOULD ADD 0,,1 TO C(E),
 34822									;UPDATE AC AND NOT SKIP
 34823	052075	334 00 0 00 000000 		SKIPA			;PASS IF AOSN DID NOT SKIP
 34824						STOP^
 34825	052076	254 04 0 00 052077 		HALT	.+1		;TEST FAILED IF PROGRAM HALTS HERE
 34826	052077	324 00 0 00 052100 		JUMPA	.+1		;IF TEST FAILS, CHANGE THIS INSTRUCTION (JUMPA .+1) TO
 34827									;JUMPA X (X IS THE ADDRESS OF THE FIRST INSTRUCTION
 34828									;IN THE SUBTEST) TO LOOP ON ERROR^
 34829	052100	312 02 0 00 070253 		CAME	2,[0]		;PASS IF E INCREMENTED CORRECTLY
 34830						STOP^
 34831	052101	254 04 0 00 052102 		HALT	.+1		;TEST FAILED IF PROGRAM HALTS HERE
 34832	052102	324 00 0 00 052103 		JUMPA	.+1		;IF TEST FAILS, CHANGE THIS INSTRUCTION (JUMPA .+1) TO
 34833									;JUMPA X (X IS THE ADDRESS OF THE FIRST INSTRUCTION
 34834									;IN THE SUBTEST) TO LOOP ON ERROR^
 34835	052103	312 01 0 00 070253 		CAME	1,[0]		;PASS IF AC WAS UPDATED IF AC NON-ZERO
 34836						STOP^
 34837	052104	254 04 0 00 052105 		HALT	.+1		;TEST FAILED IF PROGRAM HALTS HERE
 34838	052105	324 00 0 00 052106 		JUMPA	.+1		;IF TEST FAILS, CHANGE THIS INSTRUCTION (JUMPA .+1) TO
 34839									;JUMPA X (X IS THE ADDRESS OF THE FIRST INSTRUCTION
 34840									;IN THE SUBTEST) TO LOOP ON ERROR^
 34841
 34842					;**********
 34843
 34844					;THIS TEST VERIFIES THAT AOSN INCREMENTS C(E) BY 0,,1 AND PLACES
 34845					;THE RESULT INTO E.  THE RESULT IN E IS COMPARED TO 0 AND SKIPS
 34846					;THE NEXT INSTRUCTION IF C(E) IS NON-ZERO
 34847					;IF THE AC IS NON-ZERO, THE RESULT IS ALSO PLACED INTO THE AC.
 34848					;IN THIS CASE, AC=1, C(AC)=707070,,707070 AND C(E)=0
 34849					;BEFORE INCREMENTING.  HENCE, AOSN SHOULD SKIP; AND THE
 34850					;FINAL RESULTS IN AC AND E SHOULD BE 0,,1 AND 0,,1
 34851					;RESPECTIVELY
 34852
 34853	052106	200 01 0 00 070332 	C54120:	MOVE	1,[707070,,707070] ;PRELOAD AC WITH 707070,,707070
 34854	052107	400 02 0 00 000000 		SETZ	2,		;PRELOAD E WITH 0
 34855	052110	356 01 0 00 000002 		AOSN	1,2		;*AOSN SHOULD ADD 0,,1 TO C(E),
 34856									;UPDATE AC AND SKIP
 34857						STOP^
 34858	052111	254 04 0 00 052112 		HALT	.+1		;TEST FAILED IF PROGRAM HALTS HERE
 34859	052112	324 00 0 00 052113 		JUMPA	.+1		;IF TEST FAILS, CHANGE THIS INSTRUCTION (JUMPA .+1) TO
 34860									;JUMPA X (X IS THE ADDRESS OF THE FIRST INSTRUCTION
 34861									;IN THE SUBTEST) TO LOOP ON ERROR^
 34862	052113	312 02 0 00 070265 		CAME	2,[1]		;PASS IF E INCREMENTED CORRECTLY
 34863						STOP^
 34864	052114	254 04 0 00 052115 		HALT	.+1		;TEST FAILED IF PROGRAM HALTS HERE
DFKAA PDP-10 KL10 BASIC INSTRUCTION DIAGNOSTIC (1) VER 0,2	MACRO %52(537) 09:34 31-JAN-77 PAGE 66-1
DFKAA5	MAC	25-AUG-75 14:00		TEST OF MSCL AOSX INSTRUCTIONS                                                     SEQ 0792

 34865	052115	324 00 0 00 052116 		JUMPA	.+1		;IF TEST FAILS, CHANGE THIS INSTRUCTION (JUMPA .+1) TO
 34866									;JUMPA X (X IS THE ADDRESS OF THE FIRST INSTRUCTION
 34867									;IN THE SUBTEST) TO LOOP ON ERROR^
 34868	052116	312 01 0 00 070265 		CAME	1,[1]		;PASS IF AC WAS UPDATED IF AC NON-ZERO
 34869						STOP^
 34870	052117	254 04 0 00 052120 		HALT	.+1		;TEST FAILED IF PROGRAM HALTS HERE
 34871	052120	324 00 0 00 052121 		JUMPA	.+1		;IF TEST FAILS, CHANGE THIS INSTRUCTION (JUMPA .+1) TO
 34872									;JUMPA X (X IS THE ADDRESS OF THE FIRST INSTRUCTION
 34873									;IN THE SUBTEST) TO LOOP ON ERROR^
 34874
 34875					;**********
DFKAA PDP-10 KL10 BASIC INSTRUCTION DIAGNOSTIC (1) VER 0,2	MACRO %52(537) 09:34 31-JAN-77 PAGE 67
DFKAA5	MAC	25-AUG-75 14:00		TEST OF MSCL AOSX INSTRUCTIONS                                                     SEQ 0793

 34876					;THIS TEST VERIFIES THAT AOSG INCREMENTS C(E) BY 0,,1 AND PLACES
 34877					;THE RESULT INTO E.  THE RESULT IN E IS COMPARED TO 0 AND SKIPS
 34878					;THE NEST INSTRUCTION IF C(E) IS GREATER THAN 0
 34879					;IF THE AC IS NON-ZERO, THE RESULT IS ALSO PLACED INTO THE AC.
 34880					;IN THIS CASE, AC=0, C(AC)=707070,,707070 AND C(E)=-1,,-2
 34881					;BEFORE INCREMENTING.  HENCE, AOSG SHOULD NOT SKIP; AND THE
 34882					;FINAL RESULTS IN AC AND E SHOULD BE 707070,,707070 AND -1,,-1
 34883					;RESPECTIVELY
 34884
 34885	052121	200 00 0 00 070332 	C54200:	MOVE	0,[707070,,707070] ;PRELOAD AC WITH 707070,,707070
 34886	052122	561 01 0 00 777776 		HRROI	1,-2		;PRELOAD E WITH -1,,-2
 34887	052123	357 00 0 00 000001 		AOSG	0,1		;*AOSG SHOULD ADD 0,,1 TO C(E),
 34888									;AND NOT SKIP
 34889	052124	334 00 0 00 000000 		SKIPA			;PASS IF AOSG DID NOT SKIP
 34890						STOP^
 34891	052125	254 04 0 00 052126 		HALT	.+1		;TEST FAILED IF PROGRAM HALTS HERE
 34892	052126	324 00 0 00 052127 		JUMPA	.+1		;IF TEST FAILS, CHANGE THIS INSTRUCTION (JUMPA .+1) TO
 34893									;JUMPA X (X IS THE ADDRESS OF THE FIRST INSTRUCTION
 34894									;IN THE SUBTEST) TO LOOP ON ERROR^
 34895	052127	312 01 0 00 070254 		CAME	1,[-1]		;PASS IF E INCREMENTED CORRECTLY
 34896						STOP^
 34897	052130	254 04 0 00 052131 		HALT	.+1		;TEST FAILED IF PROGRAM HALTS HERE
 34898	052131	324 00 0 00 052132 		JUMPA	.+1		;IF TEST FAILS, CHANGE THIS INSTRUCTION (JUMPA .+1) TO
 34899									;JUMPA X (X IS THE ADDRESS OF THE FIRST INSTRUCTION
 34900									;IN THE SUBTEST) TO LOOP ON ERROR^
 34901	052132	312 00 0 00 070332 		CAME	0,[707070,,707070] ;PASS IF C(AC) WAS NOT MODIFIED
 34902						STOP^
 34903	052133	254 04 0 00 052134 		HALT	.+1		;TEST FAILED IF PROGRAM HALTS HERE
 34904	052134	324 00 0 00 052135 		JUMPA	.+1		;IF TEST FAILS, CHANGE THIS INSTRUCTION (JUMPA .+1) TO
 34905									;JUMPA X (X IS THE ADDRESS OF THE FIRST INSTRUCTION
 34906									;IN THE SUBTEST) TO LOOP ON ERROR^
 34907
 34908					;**********
 34909
 34910					;THIS TEST VERIFIES THAT AOSG INCREMENTS C(E) BY 0,,1 AND PLACES
 34911					;THE RESULT INTO E.  THE RESULT IN E IS COMPARED TO 0 AND SKIPS
 34912					;THE NEXT INSTRUCTION IF C(E) IS GREATER THAN 0
 34913					;IF THE AC IS NON-ZERO, THE RESULT IS ALSO PLACED INTO THE AC.
 34914					;IN THIS CASE, AC=0, C(AC)=707070,,707070 AND C(E)=-1,,-1
 34915					;BEFORE INCREMENTING.  HENCE, AOSG SHOULD NOT SKIP; AND THE
 34916					;FINAL RESULTS IN AC AND E SHOULD BE 707070,,707070 AND 0
 34917					;RESPECTIVELY
 34918
 34919	052135	200 00 0 00 070332 	C54210:	MOVE	0,[707070,,707070] ;PRELOAD AC WITH 707070,,707070
 34920	052136	474 01 0 00 000000 		SETO	1,		;PRELOAD E WITH -1,,-1
 34921	052137	357 00 0 00 000001 		AOSG	0,1		;*AOSG SHOULD ADD 0,,1 TO C(E),
 34922									;AND NOT SKIP
 34923	052140	334 00 0 00 000000 		SKIPA			;PASS IF AOSG DID NOT SKIP
 34924						STOP^
 34925	052141	254 04 0 00 052142 		HALT	.+1		;TEST FAILED IF PROGRAM HALTS HERE
 34926	052142	324 00 0 00 052143 		JUMPA	.+1		;IF TEST FAILS, CHANGE THIS INSTRUCTION (JUMPA .+1) TO
 34927									;JUMPA X (X IS THE ADDRESS OF THE FIRST INSTRUCTION
 34928									;IN THE SUBTEST) TO LOOP ON ERROR^
 34929	052143	312 01 0 00 070253 		CAME	1,[0]		;PASS IF E INCREMENTED CORRECTLY
 34930						STOP^
DFKAA PDP-10 KL10 BASIC INSTRUCTION DIAGNOSTIC (1) VER 0,2	MACRO %52(537) 09:34 31-JAN-77 PAGE 67-1
DFKAA5	MAC	25-AUG-75 14:00		TEST OF MSCL AOSX INSTRUCTIONS                                                     SEQ 0794

 34931	052144	254 04 0 00 052145 		HALT	.+1		;TEST FAILED IF PROGRAM HALTS HERE
 34932	052145	324 00 0 00 052146 		JUMPA	.+1		;IF TEST FAILS, CHANGE THIS INSTRUCTION (JUMPA .+1) TO
 34933									;JUMPA X (X IS THE ADDRESS OF THE FIRST INSTRUCTION
 34934									;IN THE SUBTEST) TO LOOP ON ERROR^
 34935	052146	312 00 0 00 070332 		CAME	0,[707070,,707070] ;PASS IF C(AC) WAS NOT MODIFIED
 34936						STOP^
 34937	052147	254 04 0 00 052150 		HALT	.+1		;TEST FAILED IF PROGRAM HALTS HERE
 34938	052150	324 00 0 00 052151 		JUMPA	.+1		;IF TEST FAILS, CHANGE THIS INSTRUCTION (JUMPA .+1) TO
 34939									;JUMPA X (X IS THE ADDRESS OF THE FIRST INSTRUCTION
 34940									;IN THE SUBTEST) TO LOOP ON ERROR^
 34941
 34942					;***********
DFKAA PDP-10 KL10 BASIC INSTRUCTION DIAGNOSTIC (1) VER 0,2	MACRO %52(537) 09:34 31-JAN-77 PAGE 68
DFKAA5	MAC	25-AUG-75 14:00		TEST OF MSCL AOSX INSTRUCTIONS                                                     SEQ 0795

 34943					;THIS TEST VERIFIES THAT AOSG INCREMENTS C(E) BY 0,,1 AND PLACES
 34944					;THE RESULT INTO E.  THE RESULT IN E IS COMPARED TO 0 AND SKIPS
 34945					;THE NEXT INSTRUCTION IF C(E) IS GREATER THAN 0
 34946					;IF THE AC IS NON-ZERO, THE RESULT IS ALSO PLACED INTO THE AC.
 34947					;IN THIS CASE, AC=0, C(AC)=707070,,707070 AND C(E)=0
 34948					;BEFORE INCREMENTING.  HENCE, AOSG SHOULD SKIP; AND THE
 34949					;FINAL RESULTS IN AC AND E SHOULD BE 707070,,707070 AND 0,,1
 34950					;RESPECTIVELY
 34951
 34952	052151	200 00 0 00 070332 	C54220:	MOVE	0,[707070,,707070] ;PRELOAD AC WITH 707070,,707070
 34953	052152	400 01 0 00 000000 		SETZ	1,		;PRELOAD E WITH 0
 34954	052153	357 00 0 00 000001 		AOSG	0,1		;*AOSG SHOULD ADD 0,,1 TO C(E),
 34955									;AND SKIP
 34956						STOP^
 34957	052154	254 04 0 00 052155 		HALT	.+1		;TEST FAILED IF PROGRAM HALTS HERE
 34958	052155	324 00 0 00 052156 		JUMPA	.+1		;IF TEST FAILS, CHANGE THIS INSTRUCTION (JUMPA .+1) TO
 34959									;JUMPA X (X IS THE ADDRESS OF THE FIRST INSTRUCTION
 34960									;IN THE SUBTEST) TO LOOP ON ERROR^
 34961	052156	312 01 0 00 070265 		CAME	1,[1]		;PASS IF E INCREMENTED CORRECTLY
 34962						STOP^
 34963	052157	254 04 0 00 052160 		HALT	.+1		;TEST FAILED IF PROGRAM HALTS HERE
 34964	052160	324 00 0 00 052161 		JUMPA	.+1		;IF TEST FAILS, CHANGE THIS INSTRUCTION (JUMPA .+1) TO
 34965									;JUMPA X (X IS THE ADDRESS OF THE FIRST INSTRUCTION
 34966									;IN THE SUBTEST) TO LOOP ON ERROR^
 34967	052161	312 00 0 00 070332 		CAME	0,[707070,,707070] ;PASS IF C(AC) WAS NOT MODIFIED
 34968						STOP^
 34969	052162	254 04 0 00 052163 		HALT	.+1		;TEST FAILED IF PROGRAM HALTS HERE
 34970	052163	324 00 0 00 052164 		JUMPA	.+1		;IF TEST FAILS, CHANGE THIS INSTRUCTION (JUMPA .+1) TO
 34971									;JUMPA X (X IS THE ADDRESS OF THE FIRST INSTRUCTION
 34972									;IN THE SUBTEST) TO LOOP ON ERROR^
 34973
 34974					;**********
DFKAA PDP-10 KL10 BASIC INSTRUCTION DIAGNOSTIC (1) VER 0,2	MACRO %52(537) 09:34 31-JAN-77 PAGE 69
DFKAA5	MAC	25-AUG-75 14:00		TEST OF MSCL SOJX INSTRUCTIONS                                                     SEQ 0796

 34975					SUBTTL	TEST OF MSCL SOJX INSTRUCTIONS
 34976
 34977					;**********
 34978
 34979					;THIS TEST VERIFIES THAT SOJL DECREMENTS C(AC) BY 0,,1 AND
 34980					;PLACES THE RESTULT BACK INTO THE AC.  THE RESULT IN THE AC IS
 34981					;COMPARED TO 0 AND THE PROGRAM JUMPS TO THE LOCATION
 34982					;SPECIFIED BY E IF C(AC) IS LESS THAN 0.
 34983					;IN THIS CASE, C(AC)=0 BEFORE DECREMENTING.  HENCE, SOJL
 34984					;SHOULD JUMP AND THE RESULT IN THE AC SHOULD BE -1,,-1
 34985
 34986	052164	201 17 0 00 000000 	C54300:	MOVEI	17,0		;PRELOAD AC WITH 0
 34987	052165	361 17 0 00 052167 		SOJL	17,.+2		;*SOJL SHOULD SUBTRACT 0,,1 FROM C(AC)
 34988									;AND JUMP
 34989						STOP^
 34990	052166	254 04 0 00 052167 		HALT	.+1		;TEST FAILED IF PROGRAM HALTS HERE
 34991	052167	324 00 0 00 052170 		JUMPA	.+1		;IF TEST FAILS, CHANGE THIS INSTRUCTION (JUMPA .+1) TO
 34992									;JUMPA X (X IS THE ADDRESS OF THE FIRST INSTRUCTION
 34993									;IN THE SUBTEST) TO LOOP ON ERROR^
 34994	052170	312 17 0 00 070254 		CAME	17,[-1]		;PASS IF C(AC) DECREMENTED CORRECTLY
 34995						STOP^
 34996	052171	254 04 0 00 052172 		HALT	.+1		;TEST FAILED IF PROGRAM HALTS HERE
 34997	052172	324 00 0 00 052173 		JUMPA	.+1		;IF TEST FAILS, CHANGE THIS INSTRUCTION (JUMPA .+1) TO
 34998									;JUMPA X (X IS THE ADDRESS OF THE FIRST INSTRUCTION
 34999									;IN THE SUBTEST) TO LOOP ON ERROR^
 35000
 35001					;***********
 35002
 35003					;THIS TEST VERIFIES THAT SOJL DECREMENTS C(AC) BY 0,,1 AND
 35004					;PLACES THE RESULT BACK INTO THE AC.  THE RESULT IN THE AC IS
 35005					;COMPARED TO 0 AND THE PROGRAM JUMPS TO THE LOCATION
 35006					;SPECIFIED BY E IF C(AC) IS LESS THAN 0.
 35007					;IN THIS CASE, C(AC)=0,,1 BEFORE DECREMENTING.  HENCE, SOJL
 35008					;SHOULD NOT JUMP AND THE RESULT IN THE AC SHOULD BE 0.
 35009
 35010	052173	201 17 0 00 000001 	C54310:	MOVEI	17,1		;PRELOAD AC WITH 0,,1
 35011	052174	361 17 0 00 052176 		SOJL	17,.+2			;*SOJL SHOULD SUBTRACT 0,,1 FROM C(AC)
 35012	052175	334 00 0 00 000000 		SKIPA			;PASS IF SOJL DID NOT JUMP
 35013						STOP^
 35014	052176	254 04 0 00 052177 		HALT	.+1		;TEST FAILED IF PROGRAM HALTS HERE
 35015	052177	324 00 0 00 052200 		JUMPA	.+1		;IF TEST FAILS, CHANGE THIS INSTRUCTION (JUMPA .+1) TO
 35016									;JUMPA X (X IS THE ADDRESS OF THE FIRST INSTRUCTION
 35017									;IN THE SUBTEST) TO LOOP ON ERROR^
 35018	052200	312 17 0 00 070253 		CAME	17,[0]		;PASS IF C(AC) DECREMENTED CORRECTLY
 35019						STOP^
 35020	052201	254 04 0 00 052202 		HALT	.+1		;TEST FAILED IF PROGRAM HALTS HERE
 35021	052202	324 00 0 00 052203 		JUMPA	.+1		;IF TEST FAILS, CHANGE THIS INSTRUCTION (JUMPA .+1) TO
 35022									;JUMPA X (X IS THE ADDRESS OF THE FIRST INSTRUCTION
 35023									;IN THE SUBTEST) TO LOOP ON ERROR^
 35024
 35025					;**********
DFKAA PDP-10 KL10 BASIC INSTRUCTION DIAGNOSTIC (1) VER 0,2	MACRO %52(537) 09:34 31-JAN-77 PAGE 70
DFKAA5	MAC	25-AUG-75 14:00		TEST OF MSCL SOJX INSTRUCTIONS                                                     SEQ 0797

 35026					;THIS TEST VERIFIES THAT SOJL DECREMENTS C(AC) BY 0,,1 AND
 35027					;PLACES THE RESULT BACK INTO THE AC.  THE RESULT IN THE AC IS
 35028					;COMPARED TO 0 AND THE PROGRAM JUMPS TO THE LOCATION
 35029					;SPECIFIED BY E IF C(AC) IS LESS THAN 0
 35030					;IN THIS CASE, C(AC)=0,,2 BEFORE DECREMENTING.  HENCE, SOJ
 35031					;SHOULD JUMP AND THE RESULT IN THE AC SHOULD BE 0,,1
 35032
 35033	052203	201 17 0 00 000002 	C54320:	MOVEI	17,2		;PRELOAD AC WITH 0,,2
 35034	052204	361 17 0 00 052206 		SOJL	17,.+2		;*SOJ SHOULD SUBTRACT 0,,1 FROM C(AC)
 35035									;AND NOT JUMP.
 35036	052205	334 00 0 00 000000 		SKIPA			;PASS IF SOJL DID NOT JUMP
 35037						STOP^
 35038	052206	254 04 0 00 052207 		HALT	.+1		;TEST FAILED IF PROGRAM HALTS HERE
 35039	052207	324 00 0 00 052210 		JUMPA	.+1		;IF TEST FAILS, CHANGE THIS INSTRUCTION (JUMPA .+1) TO
 35040									;JUMPA X (X IS THE ADDRESS OF THE FIRST INSTRUCTION
 35041									;IN THE SUBTEST) TO LOOP ON ERROR^
 35042	052210	312 17 0 00 070265 		CAME	17,[1]		;PASS IF C(AC) DECREMENTED CORRECTLY
 35043						STOP^
 35044	052211	254 04 0 00 052212 		HALT	.+1		;TEST FAILED IF PROGRAM HALTS HERE
 35045	052212	324 00 0 00 052213 		JUMPA	.+1		;IF TEST FAILS, CHANGE THIS INSTRUCTION (JUMPA .+1) TO
 35046									;JUMPA X (X IS THE ADDRESS OF THE FIRST INSTRUCTION
 35047									;IN THE SUBTEST) TO LOOP ON ERROR^
 35048
 35049					;**********
 35050
 35051					;THIS TEST VERIFIES THAT SOJE DECREMENTS C(AC) BY 0,,1 AND
 35052					;PLACES THE RESULT BACK INTO THE AC.  THE RESULT IN THE AC IS
 35053					;COMPARED TO 0 AND THE PROGRAM JUMPS TO THE LOCATION
 35054					;SPECIFIED BY E IF C(AC) IS EQUAL TO 0.
 35055					;IN THIS CASE, C(AC)=0 BEFORE DECREMENTING.  HENCE, SOJE
 35056					;SHOULD NOT JUMP AND THE RESULT IN THE AC SHOULD BE -1,,-1
 35057
 35058	052213	201 16 0 00 000000 	C54400:	MOVEI	16,0		;PRELOAD AC WITH 0
 35059	052214	362 16 0 00 052216 		SOJE	16,.+2		;*SOJE SHOULD SUBTRACT 0,,1 FROM C(AC)
 35060									;AND NOT JUMP.
 35061	052215	334 00 0 00 000000 		SKIPA			;PASS IF SOJE DID NOT JUMP
 35062						STOP^
 35063	052216	254 04 0 00 052217 		HALT	.+1		;TEST FAILED IF PROGRAM HALTS HERE
 35064	052217	324 00 0 00 052220 		JUMPA	.+1		;IF TEST FAILS, CHANGE THIS INSTRUCTION (JUMPA .+1) TO
 35065									;JUMPA X (X IS THE ADDRESS OF THE FIRST INSTRUCTION
 35066									;IN THE SUBTEST) TO LOOP ON ERROR^
 35067	052220	312 16 0 00 070254 		CAME	16,[-1]		;PASS IF C(AC) DECREMENTED CORRECTLY
 35068						STOP^
 35069	052221	254 04 0 00 052222 		HALT	.+1		;TEST FAILED IF PROGRAM HALTS HERE
 35070	052222	324 00 0 00 052223 		JUMPA	.+1		;IF TEST FAILS, CHANGE THIS INSTRUCTION (JUMPA .+1) TO
 35071									;JUMPA X (X IS THE ADDRESS OF THE FIRST INSTRUCTION
 35072									;IN THE SUBTEST) TO LOOP ON ERROR^
 35073
 35074					;**********
DFKAA PDP-10 KL10 BASIC INSTRUCTION DIAGNOSTIC (1) VER 0,2	MACRO %52(537) 09:34 31-JAN-77 PAGE 71
DFKAA5	MAC	25-AUG-75 14:00		TEST OF MSCL SOJX INSTRUCTIONS                                                     SEQ 0798

 35075					;THIS TEST VERIFIES THAT SOJE DECREMENTS C(AC) BY 0,,1 AND
 35076					;PLACES THE RESULT BACK INTO THE AC.  THE RESULT IN THE AC IS
 35077					;COMPARED TO 0 AND THE PROGRAM JUMPS TO THE LOCATION
 35078					;SPECIFIED BY E IF C(AC) IS EQUAL TO 0
 35079					;IN THIS CASE, C(AC)=0,,1 BEFORE DECREMENTING.  HENCE, SOJ
 35080					;SHOULD JUMP AND THE RESULT IN THE AC SHOULD BE 0
 35081
 35082	052223	201 16 0 00 000001 	C54410:	MOVEI	16,1		;PRELOAD AC WITH 0,,1
 35083	052224	362 16 0 00 052226 		SOJE	16,.+2		;*SOJE SHOULD SUBTRACT 0,,1 FROM C(AC)
 35084									;AND JUMP
 35085						STOP^
 35086	052225	254 04 0 00 052226 		HALT	.+1		;TEST FAILED IF PROGRAM HALTS HERE
 35087	052226	324 00 0 00 052227 		JUMPA	.+1		;IF TEST FAILS, CHANGE THIS INSTRUCTION (JUMPA .+1) TO
 35088									;JUMPA X (X IS THE ADDRESS OF THE FIRST INSTRUCTION
 35089									;IN THE SUBTEST) TO LOOP ON ERROR^
 35090	052227	312 16 0 00 070253 		CAME	16,[0]		;PASS IF C(AC) DECREMENTED CORRECTLY
 35091						STOP^
 35092	052230	254 04 0 00 052231 		HALT	.+1		;TEST FAILED IF PROGRAM HALTS HERE
 35093	052231	324 00 0 00 052232 		JUMPA	.+1		;IF TEST FAILS, CHANGE THIS INSTRUCTION (JUMPA .+1) TO
 35094									;JUMPA X (X IS THE ADDRESS OF THE FIRST INSTRUCTION
 35095									;IN THE SUBTEST) TO LOOP ON ERROR^
 35096
 35097					;**********
 35098
 35099					;THIS TEST VERIFIES THAT SOJE DECREMENTS C(AC) BY 0,,1 AND
 35100					;PLACES THE RESULT BACK INTO THE AC.  THE RESULT IN THE AC IS
 35101					;COMPARED TO 0 AND THE PROGRAM JUMPS TO THE LOCATION
 35102					;SPECIFIED BY E IF C(AC) IS EQUAL TO 0.
 35103					;IN THIS CASE, C(AC)=0,,2 BEFORE DECREMENTING.  HENCE, SOJE
 35104					;SHOULD NOT JUMP AND THE RESULT IN THE AC SHOULD BE 0,,1
 35105
 35106	052232	201 16 0 00 000002 	C54420:	MOVEI	16,2		;PRELOAD AC WITH 0,,2
 35107	052233	362 16 0 00 052235 		SOJE	16,.+2		;*SOJ SHOULD SUBTRACT 0,,1 FROM C(AC)
 35108									;AND NOT JUMP.
 35109	052234	334 00 0 00 000000 		SKIPA			;PASS IF SOJE DID NOT JUMP
 35110						STOP^
 35111	052235	254 04 0 00 052236 		HALT	.+1		;TEST FAILED IF PROGRAM HALTS HERE
 35112	052236	324 00 0 00 052237 		JUMPA	.+1		;IF TEST FAILS, CHANGE THIS INSTRUCTION (JUMPA .+1) TO
 35113									;JUMPA X (X IS THE ADDRESS OF THE FIRST INSTRUCTION
 35114									;IN THE SUBTEST) TO LOOP ON ERROR^
 35115	052237	312 16 0 00 070265 		CAME	16,[1]		;PASS IF C(AC) DECREMENTED CORRECTLY
 35116						STOP^
 35117	052240	254 04 0 00 052241 		HALT	.+1		;TEST FAILED IF PROGRAM HALTS HERE
 35118	052241	324 00 0 00 052242 		JUMPA	.+1		;IF TEST FAILS, CHANGE THIS INSTRUCTION (JUMPA .+1) TO
 35119									;JUMPA X (X IS THE ADDRESS OF THE FIRST INSTRUCTION
 35120									;IN THE SUBTEST) TO LOOP ON ERROR^
 35121
 35122					;**********
DFKAA PDP-10 KL10 BASIC INSTRUCTION DIAGNOSTIC (1) VER 0,2	MACRO %52(537) 09:34 31-JAN-77 PAGE 72
DFKAA5	MAC	25-AUG-75 14:00		TEST OF MSCL SOJX INSTRUCTIONS                                                     SEQ 0799

 35123					;THIS TEST VERIFIES THAT SOJLE DECREMENTS C(AC) BY 0,,1 AND
 35124					;PLACES THE RESULT BACK INTO THE AC.  THE RESULT IN THE AC IS
 35125					;COMPARED TO 0 AND THE PROGRAM JUMPS TO THE LOCATION
 35126					;SPECIFIED BY E IF C(AC) IS LESS THAN OR EQUAL TO 0
 35127					;IN THIS CASE, C(AC)=0 BEFORE DECREMENTING.  HENCE, SOJLE
 35128					;SHOULD JUMP AND THE RESULT IN THE AC SHOULD BE -1,,-1
 35129
 35130	052242	201 15 0 00 000000 	C54500:	MOVEI	15,0		;PRELOAD AC WITH 0
 35131	052243	363 15 0 00 052245 		SOJLE	15,.+2		;*SOJLE SHOULD SUBTRACT 0,,1 FROM C(AC)
 35132									;AND JUMP
 35133						STOP^
 35134	052244	254 04 0 00 052245 		HALT	.+1		;TEST FAILED IF PROGRAM HALTS HERE
 35135	052245	324 00 0 00 052246 		JUMPA	.+1		;IF TEST FAILS, CHANGE THIS INSTRUCTION (JUMPA .+1) TO
 35136									;JUMPA X (X IS THE ADDRESS OF THE FIRST INSTRUCTION
 35137									;IN THE SUBTEST) TO LOOP ON ERROR^
 35138	052246	312 15 0 00 070254 		CAME	15,[-1]		;PASS IF C(AC) DECREMENTED CORRECTLY
 35139						STOP^
 35140	052247	254 04 0 00 052250 		HALT	.+1		;TEST FAILED IF PROGRAM HALTS HERE
 35141	052250	324 00 0 00 052251 		JUMPA	.+1		;IF TEST FAILS, CHANGE THIS INSTRUCTION (JUMPA .+1) TO
 35142									;JUMPA X (X IS THE ADDRESS OF THE FIRST INSTRUCTION
 35143									;IN THE SUBTEST) TO LOOP ON ERROR^
 35144
 35145					;**********
 35146
 35147					;THIS TEST VERIFIES THAT SOJLE DECREMENTS C(AC) BY 0,,1 AND
 35148					;PLACES THE RESULT BACK INTO THE AC.  THE RESULT IN THE AC IS
 35149					;COMPARED TO 0 AND THE PROGRAM JUMPS TO THE LOCATION
 35150					;SPECIFIED BY E IF C(AC) IS LESS THAN OR EQUALTO 0.
 35151					;IN THIS CASE, C(AC)=0,,1 BEFORE DECREMENTING.  HENCE, SOJLE
 35152					;SHOULD JUMP AND THE RESULT IN THE AC SHOULD BE 0
 35153
 35154	052251	201 15 0 00 000001 	C54510:	MOVEI	15,1		;PRELOAD AC WITH 0,,1
 35155	052252	363 15 0 00 052254 		SOJLE	15,.+2		;*SOJLE SHOULD SUBTRACT 0,,1 FROM C(AC)
 35156									;AND JUMP
 35157						STOP^
 35158	052253	254 04 0 00 052254 		HALT	.+1		;TEST FAILED IF PROGRAM HALTS HERE
 35159	052254	324 00 0 00 052255 		JUMPA	.+1		;IF TEST FAILS, CHANGE THIS INSTRUCTION (JUMPA .+1) TO
 35160									;JUMPA X (X IS THE ADDRESS OF THE FIRST INSTRUCTION
 35161									;IN THE SUBTEST) TO LOOP ON ERROR^
 35162	052255	312 15 0 00 070253 		CAME	15,[0]		;PASS IF C(AC) DECREMENTED CORRECTLY
 35163						STOP^
 35164	052256	254 04 0 00 052257 		HALT	.+1		;TEST FAILED IF PROGRAM HALTS HERE
 35165	052257	324 00 0 00 052260 		JUMPA	.+1		;IF TEST FAILS, CHANGE THIS INSTRUCTION (JUMPA .+1) TO
 35166									;JUMPA X (X IS THE ADDRESS OF THE FIRST INSTRUCTION
 35167									;IN THE SUBTEST) TO LOOP ON ERROR^
 35168
 35169					;**********
DFKAA PDP-10 KL10 BASIC INSTRUCTION DIAGNOSTIC (1) VER 0,2	MACRO %52(537) 09:34 31-JAN-77 PAGE 73
DFKAA5	MAC	25-AUG-75 14:00		TEST OF MSCL SOJX INSTRUCTIONS                                                     SEQ 0800

 35170					;THIS TEST VERIFIES THAT SOJLE DECREMENTS C(AC) BY 0,,1 AND
 35171					;PLACES THE RESULT BACK INTO THE AC.  THE RESULT IN THE AC IS
 35172					;COMPARED TO 0 AND THE PROGRAM JUMPS TO THE LOCATION
 35173					;SPECIFIED BY E IF C(AC) IS LESS THAN OR EQUAL TO 0.
 35174					;IN THIS CASE, C(AC)=0,,2 BEFORE DECREMENTING.  HENCE, SOJLE
 35175					;SHOULD NOT JUMP AND THE RESULT IN THE AC SHOULD BE 0,,1
 35176
 35177	052260	201 15 0 00 000002 	C54520:	MOVEI	15,2		;PRELOAD AC WITH 0,,2
 35178	052261	363 15 0 00 052263 		SOJLE	15,.+2		;*SOJLE SHOULD SUBTRACT 0,,1 FROM C(AC)
 35179									;AND NOT JUMP
 35180	052262	334 00 0 00 000000 		SKIPA			;PASS IF SOJLE DID NOT JUMP
 35181						STOP^
 35182	052263	254 04 0 00 052264 		HALT	.+1		;TEST FAILED IF PROGRAM HALTS HERE
 35183	052264	324 00 0 00 052265 		JUMPA	.+1		;IF TEST FAILS, CHANGE THIS INSTRUCTION (JUMPA .+1) TO
 35184									;JUMPA X (X IS THE ADDRESS OF THE FIRST INSTRUCTION
 35185									;IN THE SUBTEST) TO LOOP ON ERROR^
 35186	052265	312 15 0 00 070265 		CAME	15,[1]		;PASS IF C(AC) DECREMENTED CORRECTLY
 35187						STOP^
 35188	052266	254 04 0 00 052267 		HALT	.+1		;TEST FAILED IF PROGRAM HALTS HERE
 35189	052267	324 00 0 00 052270 		JUMPA	.+1		;IF TEST FAILS, CHANGE THIS INSTRUCTION (JUMPA .+1) TO
 35190									;JUMPA X (X IS THE ADDRESS OF THE FIRST INSTRUCTION
 35191									;IN THE SUBTEST) TO LOOP ON ERROR^
 35192
 35193					;**********
 35194
 35195					;THIS TEST VERIFIES THAT SOJA DECREMENTS C(AC) BY 0,,1 AND
 35196					;PLACES THE RESULT INTO THE AC.  THE RESULT IN THE AC IS
 35197					;COMPARED TO 0 AND THE PROGRAM ALWAYS JUMPS TO THE LOCATION
 35198					;SPECIFIED BY E
 35199					;IN THIS CASE, C(AC)=0 BEFORE DECREMENTING.  HENCE, SOJA
 35200					;SHOULD JUMP AND THE RESULT IN THE AC SHOULD BE -1,,-1
 35201
 35202	052270	201 14 0 00 000000 	C54600:	MOVEI	14,0		;PRELOAD AC WITH 0
 35203	052271	364 14 0 00 052273 		SOJA	14,.+2		;*SOJ SHOULD SUBTRACT 0,,1 FROM C(AC)
 35204									;AND JUMP
 35205						STOP^
 35206	052272	254 04 0 00 052273 		HALT	.+1		;TEST FAILED IF PROGRAM HALTS HERE
 35207	052273	324 00 0 00 052274 		JUMPA	.+1		;IF TEST FAILS, CHANGE THIS INSTRUCTION (JUMPA .+1) TO
 35208									;JUMPA X (X IS THE ADDRESS OF THE FIRST INSTRUCTION
 35209									;IN THE SUBTEST) TO LOOP ON ERROR^
 35210	052274	312 14 0 00 070254 		CAME	14,[-1]		;PASS IF C(AC) DECREMENTED CORRECTLY
 35211						STOP^
 35212	052275	254 04 0 00 052276 		HALT	.+1		;TEST FAILED IF PROGRAM HALTS HERE
 35213	052276	324 00 0 00 052277 		JUMPA	.+1		;IF TEST FAILS, CHANGE THIS INSTRUCTION (JUMPA .+1) TO
 35214									;JUMPA X (X IS THE ADDRESS OF THE FIRST INSTRUCTION
 35215									;IN THE SUBTEST) TO LOOP ON ERROR^
 35216
 35217					;**********
DFKAA PDP-10 KL10 BASIC INSTRUCTION DIAGNOSTIC (1) VER 0,2	MACRO %52(537) 09:34 31-JAN-77 PAGE 74
DFKAA5	MAC	25-AUG-75 14:00		TEST OF MSCL SOJX INSTRUCTIONS                                                     SEQ 0801

 35218					;THIS TEST VERIFIES THAT SOJA DECREMENTS C(AC) BY 0,,1 AND
 35219					;PLACES THE RESULT BACK INTO THE AC.  THE RESULT IN THE AC IS
 35220					;COMPARED TO 0 AND THE PROGRAM ALWAYS JUMPS TO THE LOCATION
 35221					;SPECIFIED BY E
 35222					;IN THIS CASE, C(AC)=0,,1 BEFORE DECREMENTING.  HENCE, SOJA
 35223					;SHOULD JUMP AND THE RESULT IN THE AC SHOULD BE 0
 35224
 35225	052277	201 14 0 00 000001 	C54610:	MOVEI	14,1		;PRELOAD AC WITH 0,,1
 35226	052300	364 14 0 00 052302 		SOJA	14,.+2		;*SOJA SHOULD SUBTRACT 0,,1 FROM C(AC)
 35227									;AND JUMP
 35228						STOP^
 35229	052301	254 04 0 00 052302 		HALT	.+1		;TEST FAILED IF PROGRAM HALTS HERE
 35230	052302	324 00 0 00 052303 		JUMPA	.+1		;IF TEST FAILS, CHANGE THIS INSTRUCTION (JUMPA .+1) TO
 35231									;JUMPA X (X IS THE ADDRESS OF THE FIRST INSTRUCTION
 35232									;IN THE SUBTEST) TO LOOP ON ERROR^
 35233	052303	312 14 0 00 070253 		CAME	14,[0]		;PASS IF C(AC) DECREMENTED CORRECTLY
 35234						STOP^
 35235	052304	254 04 0 00 052305 		HALT	.+1		;TEST FAILED IF PROGRAM HALTS HERE
 35236	052305	324 00 0 00 052306 		JUMPA	.+1		;IF TEST FAILS, CHANGE THIS INSTRUCTION (JUMPA .+1) TO
 35237									;JUMPA X (X IS THE ADDRESS OF THE FIRST INSTRUCTION
 35238									;IN THE SUBTEST) TO LOOP ON ERROR^
 35239
 35240					;**********
 35241
 35242					;THIS TEST VERIFIES THAT SOJA DECREMENTS C(AC) BY 0,,1 AND
 35243					;PLACES THE RESULT BACK INTO THE AC.  THE RESULT IN THE AC IS
 35244					;COMPARED TO 0 AND THE PROGRAM ALWAYS JUMPS TO THE LOCATION
 35245					;SPECIFIED BY E
 35246					;IN THIS CASE, C(AC)=0,,2 BEFORE DECREMENTING.  HENCE, SOJA
 35247					;SHOULD JUMP AND THE RESULT IN THE AC SHOULD BE 0,,1
 35248
 35249	052306	201 14 0 00 000002 	C54620:	MOVEI	14,2		;PRELOAD AC WITH 0,,2
 35250	052307	364 14 0 00 052311 		SOJA	14,.+2		;*SOJA SHOULD SUBTRACT 0,,1 FROM C(AC)
 35251									;AND JUMP
 35252						STOP^
 35253	052310	254 04 0 00 052311 		HALT	.+1		;TEST FAILED IF PROGRAM HALTS HERE
 35254	052311	324 00 0 00 052312 		JUMPA	.+1		;IF TEST FAILS, CHANGE THIS INSTRUCTION (JUMPA .+1) TO
 35255									;JUMPA X (X IS THE ADDRESS OF THE FIRST INSTRUCTION
 35256									;IN THE SUBTEST) TO LOOP ON ERROR^
 35257	052312	312 14 0 00 070265 		CAME	14,[1]		;PASS IF C(AC) DECREMENTED CORRECTLY
 35258						STOP^
 35259	052313	254 04 0 00 052314 		HALT	.+1		;TEST FAILED IF PROGRAM HALTS HERE
 35260	052314	324 00 0 00 052315 		JUMPA	.+1		;IF TEST FAILS, CHANGE THIS INSTRUCTION (JUMPA .+1) TO
 35261									;JUMPA X (X IS THE ADDRESS OF THE FIRST INSTRUCTION
 35262									;IN THE SUBTEST) TO LOOP ON ERROR^
 35263
 35264					;**********
DFKAA PDP-10 KL10 BASIC INSTRUCTION DIAGNOSTIC (1) VER 0,2	MACRO %52(537) 09:34 31-JAN-77 PAGE 75
DFKAA5	MAC	25-AUG-75 14:00		TEST OF MSCL SOJX INSTRUCTIONS                                                     SEQ 0802

 35265					;THIS TEST VERIFIES THAT SOJGE DECREMENTS C(AC) BY 0,,1 AND
 35266					;PLACES THE RESULT BACK INTO THE AC.  THE  RESULT IN THE AC IS
 35267					;COMPARED TO 0 AND THE PROGRAM JUMPS TO THE LOCATION
 35268					;SPECIFIED BY E IF C(AC) IS GREATER THAN OR EQUAL TO 0
 35269					;IN THIS CASE, C(AC)=0 BEFORE DECREMENTING.  HENCE, SOJGE
 35270					;SHOULD NOT JUMP AND THE RESULT IN THE AC SHOULD BE -1,,-1
 35271
 35272	052315	201 13 0 00 000000 	C54700:	MOVEI	13,0		;PRELOAD A C WITH 0
 35273	052316	365 13 0 00 052320 		SOJGE	13,.+2		;*SOJGE SHOULD SUBTRACT 0,,1 FROM C(AC)
 35274									;AND NOT JUMP
 35275	052317	334 00 0 00 000000 		SKIPA			;PASS IF SOJGE DID NOT JUMP
 35276						STOP^
 35277	052320	254 04 0 00 052321 		HALT	.+1		;TEST FAILED IF PROGRAM HALTS HERE
 35278	052321	324 00 0 00 052322 		JUMPA	.+1		;IF TEST FAILS, CHANGE THIS INSTRUCTION (JUMPA .+1) TO
 35279									;JUMPA X (X IS THE ADDRESS OF THE FIRST INSTRUCTION
 35280									;IN THE SUBTEST) TO LOOP ON ERROR^
 35281	052322	312 13 0 00 070254 		CAME	13,[-1]	;PASS IF C(AC) DECREMENTED CORRECTLY
 35282						STOP^
 35283	052323	254 04 0 00 052324 		HALT	.+1		;TEST FAILED IF PROGRAM HALTS HERE
 35284	052324	324 00 0 00 052325 		JUMPA	.+1		;IF TEST FAILS, CHANGE THIS INSTRUCTION (JUMPA .+1) TO
 35285									;JUMPA X (X IS THE ADDRESS OF THE FIRST INSTRUCTION
 35286									;IN THE SUBTEST) TO LOOP ON ERROR^
 35287
 35288					;**********
 35289
 35290					;THIS TEST VERIFIES THAT SOJGE DECREMENTS C(AC) BY 0,,1 AND
 35291					;PLACES THE RESULT BACK INTO THE AC.  THE RESULT IN THE AC IS
 35292					;COMPARED TO 0 AND THE PROGRAM JUMPS TO THE LOCATION
 35293					;SPECIFIED BY E IF C(AC) IS GREATER THAN OR EQUAL TO 0
 35294					;IN THIS CASE, C(AC)=0,,1 BEFORE DECREMENTING.  HENCE, SOJGE
 35295					;SHOULD JUMP AND THE RESULT IN THE AC SHOULD BE 0
 35296
 35297	052325	201 13 0 00 000001 	C54710:	MOVEI	13,1		;PRELOAD AC WITH 0,,1
 35298	052326	365 13 0 00 052330 		SOJGE	13,.+2		;*SOJ SHOULD SUBTRACT 0,,1 FROM C(AC)
 35299									;AND JUMP
 35300						STOP^
 35301	052327	254 04 0 00 052330 		HALT	.+1		;TEST FAILED IF PROGRAM HALTS HERE
 35302	052330	324 00 0 00 052331 		JUMPA	.+1		;IF TEST FAILS, CHANGE THIS INSTRUCTION (JUMPA .+1) TO
 35303									;JUMPA X (X IS THE ADDRESS OF THE FIRST INSTRUCTION
 35304									;IN THE SUBTEST) TO LOOP ON ERROR^
 35305	052331	312 13 0 00 070253 		CAME	13,[0]		;PASS IF C(AC) DECREMENTED CORRECTLY
 35306						STOP^
 35307	052332	254 04 0 00 052333 		HALT	.+1		;TEST FAILED IF PROGRAM HALTS HERE
 35308	052333	324 00 0 00 052334 		JUMPA	.+1		;IF TEST FAILS, CHANGE THIS INSTRUCTION (JUMPA .+1) TO
 35309									;JUMPA X (X IS THE ADDRESS OF THE FIRST INSTRUCTION
 35310									;IN THE SUBTEST) TO LOOP ON ERROR^
 35311
 35312					;**********
DFKAA PDP-10 KL10 BASIC INSTRUCTION DIAGNOSTIC (1) VER 0,2	MACRO %52(537) 09:34 31-JAN-77 PAGE 76
DFKAA5	MAC	25-AUG-75 14:00		TEST OF MSCL SOJX INSTRUCTIONS                                                     SEQ 0803

 35313					;THIS TEST VERIRIES THAT SOJGE DECREMENTS C(AC) BY 0,,1 AND PLACES THE
 35314					;PLACES THE RESULT BACK INTO THE AC.  THE RESULT IN THE AC IS COMPARED
 35315					;TO 0 AND THE PROGRAM JUMPS TO THE LOCATION SPECIFIED BY E IF C(AC IS
 35316					;GREATER THAN OR EQUAL TO 0.  IN THIS CASE, C(AC = 0,,2 BEFORE
 35317					;DECREMENTING.  HENCE, SOJGE SHOULD JUMP AND THE RESULT IN THE AC SHOULD
 35318					;BE 0,,1.
 35319
 35320	052334	201 13 0 00 000002 	C54720:	MOVEI	13,2		;PRELOAD AC WITH 0,,2
 35321	052335	365 13 0 00 052337 		SOJGE	13,.+2		;*SOJGE SHOULD SUBTRACT0,,1 FROM C(AC)
 35322									;AND JUMP.
 35323						STOP^
 35324	052336	254 04 0 00 052337 		HALT	.+1		;TEST FAILED IF PROGRAM HALTS HERE
 35325	052337	324 00 0 00 052340 		JUMPA	.+1		;IF TEST FAILS, CHANGE THIS INSTRUCTION (JUMPA .+1) TO
 35326									;JUMPA X (X IS THE ADDRESS OF THE FIRST INSTRUCTION
 35327									;IN THE SUBTEST) TO LOOP ON ERROR^
 35328	052340	312 13 0 00 070265 		CAME	13,[1]		;PASS IF C(AC) DECREMENTED CORRECTLY
 35329						STOP^
 35330	052341	254 04 0 00 052342 		HALT	.+1		;TEST FAILED IF PROGRAM HALTS HERE
 35331	052342	324 00 0 00 052343 		JUMPA	.+1		;IF TEST FAILS, CHANGE THIS INSTRUCTION (JUMPA .+1) TO
 35332									;JUMPA X (X IS THE ADDRESS OF THE FIRST INSTRUCTION
 35333									;IN THE SUBTEST) TO LOOP ON ERROR^
 35334
 35335					;**********
 35336
 35337					;THIS TEST VERIFIES THAT SOJN DECREMENTS C(AC) BY 0,,1 AND
 35338					;PLACES THE RESULT BACK INTO THE AC.  THE RESULT IN THE AC IS
 35339					;COMPARED TO 0 AND THE PROGRAM JUMPS TO THE LOCATION
 35340					;SPECIFIED BY E IF C(AC) IS NON-ZERO.
 35341					;IN THIS CASE, C(AC)=0 BEFORE DECREMENTING.  HENCE,SOJN
 35342					;SHOULD JUMP AND THE RESULT IN THE AC SHOULD BE -1,,-1.
 35343
 35344	052343	201 12 0 00 000000 	C55000:	MOVEI	12,0		;PRELOAD AC WITH 0
 35345	052344	366 12 0 00 052346 		SOJN	12,.+2		;*SOJN SHOULD SUBTRACT 0,,1 FROM C(AC)
 35346									;AND JUMP.
 35347						STOP^
 35348	052345	254 04 0 00 052346 		HALT	.+1		;TEST FAILED IF PROGRAM HALTS HERE
 35349	052346	324 00 0 00 052347 		JUMPA	.+1		;IF TEST FAILS, CHANGE THIS INSTRUCTION (JUMPA .+1) TO
 35350									;JUMPA X (X IS THE ADDRESS OF THE FIRST INSTRUCTION
 35351									;IN THE SUBTEST) TO LOOP ON ERROR^
 35352	052347	312 12 0 00 070254 		CAME	12,[-1]		;PASS IF C(AC) DECREMENTED CORRECTLY
 35353						STOP^
 35354	052350	254 04 0 00 052351 		HALT	.+1		;TEST FAILED IF PROGRAM HALTS HERE
 35355	052351	324 00 0 00 052352 		JUMPA	.+1		;IF TEST FAILS, CHANGE THIS INSTRUCTION (JUMPA .+1) TO
 35356									;JUMPA X (X IS THE ADDRESS OF THE FIRST INSTRUCTION
 35357									;IN THE SUBTEST) TO LOOP ON ERROR^
 35358
 35359					;**********
DFKAA PDP-10 KL10 BASIC INSTRUCTION DIAGNOSTIC (1) VER 0,2	MACRO %52(537) 09:34 31-JAN-77 PAGE 77
DFKAA5	MAC	25-AUG-75 14:00		TEST OF MSCL SOJX INSTRUCTIONS                                                     SEQ 0804

 35360					;THIS TEST VERIRIES THAT SOJN DECREMENTS C(AC) BY 0,,1 AND
 35361					;PLACES THE RESULT BACK INTO THE AC.  THE RESULT IN THE AC IS
 35362					;COMPARED TO 0 AND THE PROGRAM JUMPS TO THE LOCATION SPECIFIED
 35363					;BY E IF C(AC) IS NON-ZERO.
 35364					;IN THIS CASE, C(AC) = 0,,1 BEFORE DECREMENTING.  HENCE, SOJN
 35365					;SHOULD NOT JUMP AND THE RESULT IN THE AC SHOULD BE 0.
 35366
 35367	052352	201 12 0 00 000001 	C55010:	MOVEI	12,1		;PRELOAD AC WITH 0,,1
 35368	052353	366 12 0 00 052355 		SOJN	12,.+2		;*SOJN SHOULD SUBTRACT 0,,1 FROM C(AC)
 35369									;AND NOT JUMP.
 35370	052354	334 00 0 00 000000 		SKIPA			;PASS IF SOJN DID NOT JUMP
 35371						STOP^
 35372	052355	254 04 0 00 052356 		HALT	.+1		;TEST FAILED IF PROGRAM HALTS HERE
 35373	052356	324 00 0 00 052357 		JUMPA	.+1		;IF TEST FAILS, CHANGE THIS INSTRUCTION (JUMPA .+1) TO
 35374									;JUMPA X (X IS THE ADDRESS OF THE FIRST INSTRUCTION
 35375									;IN THE SUBTEST) TO LOOP ON ERROR^
 35376	052357	312 12 0 00 070253 		CAME	12,[0]		;PASS IF C(AC) DECREMENTED CORRECTLY
 35377						STOP^
 35378	052360	254 04 0 00 052361 		HALT	.+1		;TEST FAILED IF PROGRAM HALTS HERE
 35379	052361	324 00 0 00 052362 		JUMPA	.+1		;IF TEST FAILS, CHANGE THIS INSTRUCTION (JUMPA .+1) TO
 35380									;JUMPA X (X IS THE ADDRESS OF THE FIRST INSTRUCTION
 35381									;IN THE SUBTEST) TO LOOP ON ERROR^
 35382
 35383					;**********
DFKAA PDP-10 KL10 BASIC INSTRUCTION DIAGNOSTIC (1) VER 0,2	MACRO %52(537) 09:34 31-JAN-77 PAGE 78
DFKAA5	MAC	25-AUG-75 14:00		TEST OF MSCL SOJX INSTRUCTIONS                                                     SEQ 0805

 35384					;THIS TEST VERIFIES THAT SOJN DECREMENTS C(AC) BY 0,,1 AND
 35385					;PLACES THE RESULT BACK INTO THE AC.  THE RESULT IN THE AC IS
 35386					;COMPARED TO 0 AND THE PROGRAM JUMPS TO THE LOCATION
 35387					;SPECIFIED BY E IF C(AC) IS NON-ZERO.
 35388					;IN THIS CASE, C(AC)=0,,2 BEFORE DECREMENTING.  HENCE, SOJN
 35389					;SHOULD JUMP AND THE RESULT IN THE AC SHOULD BE 0,,1.
 35390
 35391	052362	201 12 0 00 000002 	C55020:	MOVEI	12,2		;PRELOAD AC WITH 0,,2
 35392	052363	366 12 0 00 052365 		SOJN	12,.+2		;*SOJN SHOULD SUBTRACT 0,,1 FROM C(AC)
 35393									;AND JUMP.
 35394						STOP^
 35395	052364	254 04 0 00 052365 		HALT	.+1		;TEST FAILED IF PROGRAM HALTS HERE
 35396	052365	324 00 0 00 052366 		JUMPA	.+1		;IF TEST FAILS, CHANGE THIS INSTRUCTION (JUMPA .+1) TO
 35397									;JUMPA X (X IS THE ADDRESS OF THE FIRST INSTRUCTION
 35398									;IN THE SUBTEST) TO LOOP ON ERROR^
 35399	052366	312 12 0 00 070265 		CAME	12,[1]		;PASS IF C(AC) DECREMENTED CORRECTLY
 35400						STOP^
 35401	052367	254 04 0 00 052370 		HALT	.+1		;TEST FAILED IF PROGRAM HALTS HERE
 35402	052370	324 00 0 00 052371 		JUMPA	.+1		;IF TEST FAILS, CHANGE THIS INSTRUCTION (JUMPA .+1) TO
 35403									;JUMPA X (X IS THE ADDRESS OF THE FIRST INSTRUCTION
 35404									;IN THE SUBTEST) TO LOOP ON ERROR^
 35405
 35406					;**********
 35407
 35408					;THIS TEST VERIFIES THAT SOJG DECREMENTS C(AC) BY 0,,1 AND
 35409					;PLACES THE RESULT BACK INTO THE AC.  THE RESULT IN THE AC IS
 35410					;COMPARED TO 0 AND THE PROGRAM JUMPS TO THE LOCATION
 35411					;SPECIFIED BY E IF C(AC) IS GREATER THAN 0.
 35412					;IN THIS CASE, C(AC) = 0 BEFORE DECREMENTING.  HENCE, SOJG
 35413					;SHOULD NOT JUMP AND THE RESULT IN THE AC SHOULD BE -1,,-1.
 35414
 35415	052371	201 11 0 00 000000 	C55100:	MOVEI	11,0		;PRELOAD AC WITH 0
 35416	052372	367 11 0 00 052374 		SOJG	11,.+2		;*SOJG SHOULD SUBTRACT 0,,1 FROM C(AC)
 35417									;AND NOT JUMP.
 35418	052373	334 00 0 00 000000 		SKIPA			;PASS IF SOJG DID NOT JUMP
 35419						STOP^
 35420	052374	254 04 0 00 052375 		HALT	.+1		;TEST FAILED IF PROGRAM HALTS HERE
 35421	052375	324 00 0 00 052376 		JUMPA	.+1		;IF TEST FAILS, CHANGE THIS INSTRUCTION (JUMPA .+1) TO
 35422									;JUMPA X (X IS THE ADDRESS OF THE FIRST INSTRUCTION
 35423									;IN THE SUBTEST) TO LOOP ON ERROR^
 35424	052376	312 11 0 00 070254 		CAME	11,[-1]		;PASS IF C(AC) DECREMENTED CORRECTLY
 35425						STOP^
 35426	052377	254 04 0 00 052400 		HALT	.+1		;TEST FAILED IF PROGRAM HALTS HERE
 35427	052400	324 00 0 00 052401 		JUMPA	.+1		;IF TEST FAILS, CHANGE THIS INSTRUCTION (JUMPA .+1) TO
 35428									;JUMPA X (X IS THE ADDRESS OF THE FIRST INSTRUCTION
 35429									;IN THE SUBTEST) TO LOOP ON ERROR^
 35430
 35431					;**********
DFKAA PDP-10 KL10 BASIC INSTRUCTION DIAGNOSTIC (1) VER 0,2	MACRO %52(537) 09:34 31-JAN-77 PAGE 79
DFKAA5	MAC	25-AUG-75 14:00		TEST OF MSCL SOJX INSTRUCTIONS                                                     SEQ 0806

 35432					;THIS TEST VERIRIES THAT SOJG DECREMENTS C(AC) BY 0,,1 AND
 35433					;PLACES THE RESULT BACK INTO THE AC.  THE RESULT IN THE AC IS
 35434					;COMPARED TO 0 AND THE PROGRAM JUMPS TO THE LOCATION
 35435					;SPECIFIED BY E IF C(AC) IS GREATER THAN 0.
 35436					;IN THIS CASE, C(AC)=0,,1 BEFORE DECREMENTING.  HENCE, SOJG
 35437					;SHOULD NOT JUMP AND THE RESULT IN THE AC SHOULD BE 0.
 35438
 35439	052401	201 11 0 00 000001 	C55110:	MOVEI	11,1		;PRELOAD AC WITH 0,,1
 35440	052402	367 11 0 00 052404 		SOJG	11,.+2		;*SOJG SHOULD SUBTRACT 0,,1 FROM C(AC)
 35441									;AND NOT JUMP.
 35442	052403	334 00 0 00 000000 		SKIPA			;PASS IF SOJG DID NOT JUMP
 35443						STOP^
 35444	052404	254 04 0 00 052405 		HALT	.+1		;TEST FAILED IF PROGRAM HALTS HERE
 35445	052405	324 00 0 00 052406 		JUMPA	.+1		;IF TEST FAILS, CHANGE THIS INSTRUCTION (JUMPA .+1) TO
 35446									;JUMPA X (X IS THE ADDRESS OF THE FIRST INSTRUCTION
 35447									;IN THE SUBTEST) TO LOOP ON ERROR^
 35448	052406	312 11 0 00 070253 		CAME	11,[0]		;PASS IF C(AC) DECREMENTED CORRECTLY
 35449						STOP^
 35450	052407	254 04 0 00 052410 		HALT	.+1		;TEST FAILED IF PROGRAM HALTS HERE
 35451	052410	324 00 0 00 052411 		JUMPA	.+1		;IF TEST FAILS, CHANGE THIS INSTRUCTION (JUMPA .+1) TO
 35452									;JUMPA X (X IS THE ADDRESS OF THE FIRST INSTRUCTION
 35453									;IN THE SUBTEST) TO LOOP ON ERROR^
 35454
 35455					;**********
 35456
 35457					;THIS TEST VERIFIES THAT SOJG DECREMENTS C(AC) BY 0,,1 AND
 35458					;PLACES THE RESULT BACK INTO THE AC.  THE RESULT IN THE AC IS
 35459					;COMPARED TO 0 AND THE PROGRAM JUMPS TO THE LOCATION
 35460					;SPECIFIED BY E IF C(AC) IS GREATER THAN 0.
 35461					;IN THIS CASE, C(AC)=0,,2 BEFORE DECREMENTING.  HENCE, SOJG
 35462					;SHOULD JUMP AND THE RESULT IN THE AC SHOULD BE 0,,1.
 35463
 35464	052411	201 11 0 00 000002 	C55120:	MOVEI	11,2		;PRELOAD AC WITH 0,,2
 35465	052412	367 11 0 00 052414 		SOJG	11,.+2		;*SOJG SHOULD SUBTRACT O,,1 FROM C(AC)
 35466									;AND JUMP.
 35467						STOP^
 35468	052413	254 04 0 00 052414 		HALT	.+1		;TEST FAILED IF PROGRAM HALTS HERE
 35469	052414	324 00 0 00 052415 		JUMPA	.+1		;IF TEST FAILS, CHANGE THIS INSTRUCTION (JUMPA .+1) TO
 35470									;JUMPA X (X IS THE ADDRESS OF THE FIRST INSTRUCTION
 35471									;IN THE SUBTEST) TO LOOP ON ERROR^
 35472	052415	312 11 0 00 070265 		CAME	11,[1]		;PASS IF C(AC) DECREMENTED CORRECTLY
 35473						STOP^
 35474	052416	254 04 0 00 052417 		HALT	.+1		;TEST FAILED IF PROGRAM HALTS HERE
 35475	052417	324 00 0 00 052420 		JUMPA	.+1		;IF TEST FAILS, CHANGE THIS INSTRUCTION (JUMPA .+1) TO
 35476									;JUMPA X (X IS THE ADDRESS OF THE FIRST INSTRUCTION
 35477									;IN THE SUBTEST) TO LOOP ON ERROR^
 35478
 35479					;**********
DFKAA PDP-10 KL10 BASIC INSTRUCTION DIAGNOSTIC (1) VER 0,2	MACRO %52(537) 09:34 31-JAN-77 PAGE 80
DFKAA5	MAC	25-AUG-75 14:00		TEST OF MSCL SOSX INSTRUCTIONS                                                     SEQ 0807

 35480					SUBTTL	TEST OF MSCL SOSX INSTRUCTIONS
 35481
 35482					;**********
 35483
 35484					;THIS TEST VERIFIES THAT SOSL DECREMENTS C(E) BY 0,,1 AND PLACES
 35485					;THE RESULT INTO E.  THE RESULT IN E IS COMPARED TO 0 AND SKIPS
 35486					;THE NEXT INSTRUCTION IF C(E) IS LESS THAN 0.
 35487					;IF THE AC IS NON-ZERO, THE RESULT IS ALSO PLACED INTO THE AC.
 35488					;IN THIS CASE, AC=0, C(AC)=707070,,707070 AND C(E)=0
 35489					;BEFORE INCREMENTING.  HENCE, SOSL SHOULD SKIP; AND THE
 35490					;FINAL RESULTS IN AC AND E SHOULD BE 707070,,707070 AND -1,,-1
 35491					;RESPECTIVELY.
 35492
 35493	052420	200 00 0 00 070332 	C55200:	MOVE	0,[707070,,707070]  ;PRELOAD AC WITH 707070,,707070
 35494	052421	201 01 0 00 000000 		MOVEI	1,0		;PRELOAD E WITH 0
 35495	052422	371 00 0 00 000001 		SOSL	0,1		;*SOSL SHOULD SUBTRACT 0,,1 FROM C(E)
 35496									;AND SKIP
 35497						STOP^
 35498	052423	254 04 0 00 052424 		HALT	.+1		;TEST FAILED IF PROGRAM HALTS HERE
 35499	052424	324 00 0 00 052425 		JUMPA	.+1		;IF TEST FAILS, CHANGE THIS INSTRUCTION (JUMPA .+1) TO
 35500									;JUMPA X (X IS THE ADDRESS OF THE FIRST INSTRUCTION
 35501									;IN THE SUBTEST) TO LOOP ON ERROR^
 35502	052425	312 01 0 00 070254 		CAME	1,[-1]		;PASS IF E DECREMENTED CORRECTLY
 35503						STOP^
 35504	052426	254 04 0 00 052427 		HALT	.+1		;TEST FAILED IF PROGRAM HALTS HERE
 35505	052427	324 00 0 00 052430 		JUMPA	.+1		;IF TEST FAILS, CHANGE THIS INSTRUCTION (JUMPA .+1) TO
 35506									;JUMPA X (X IS THE ADDRESS OF THE FIRST INSTRUCTION
 35507									;IN THE SUBTEST) TO LOOP ON ERROR^
 35508	052430	312 00 0 00 070332 		CAME	0,[707070,,707070]  ;PASS IF C(AC) WAS NOT MODIFIED
 35509						STOP^
 35510	052431	254 04 0 00 052432 		HALT	.+1		;TEST FAILED IF PROGRAM HALTS HERE
 35511	052432	324 00 0 00 052433 		JUMPA	.+1		;IF TEST FAILS, CHANGE THIS INSTRUCTION (JUMPA .+1) TO
 35512									;JUMPA X (X IS THE ADDRESS OF THE FIRST INSTRUCTION
 35513									;IN THE SUBTEST) TO LOOP ON ERROR^
 35514
 35515					;**********
 35516
 35517					;THIS TEST VERIFIES THAT SOSL DECREMENTS C(E) BY 0,,1 AND PLACES
 35518					;THE RESULT INTO E.  THE RESULT IN E IS COMPARED TO 0 AND SKIPS
 35519					;THE NEXT INSTRUCTION IF C(E) IS LESS THAN 0.
 35520					;IF THE AC IS NON-ZERO, THE RESULT IS ALSO PLACED INTO THE AC.
 35521					;IN THIS CASE, AC=0, C(AC)=707070,,707070 AND C(E)=0,,1
 35522					;BEFORE INCREMENTING.  HENCE, SOSL SHOULD NOT SKIP; AND THE
 35523					;FINAL RESULTS IN AC AND E SHOULD BE 707070,,707070 AND 0
 35524					;RESPECTIVELY.
 35525
 35526	052433	200 00 0 00 070332 	C55210:	MOVE	0,[707070,,707070]  ;PRELOAD AC WITH 707070,,707070
 35527	052434	201 01 0 00 000001 		MOVEI	1,1		;PRELOAD E WITH 0,,1
 35528	052435	371 00 0 00 000001 		SOSL	0,1		;*SOSL SHOULD SUBTRACT 0,,1 FROM C(E),
 35529									;AND NOT SKIP.
 35530	052436	334 00 0 00 000000 		SKIPA			;PASS IF SOSL DID NOT SKIP
 35531						STOP^
 35532	052437	254 04 0 00 052440 		HALT	.+1		;TEST FAILED IF PROGRAM HALTS HERE
 35533	052440	324 00 0 00 052441 		JUMPA	.+1		;IF TEST FAILS, CHANGE THIS INSTRUCTION (JUMPA .+1) TO
 35534									;JUMPA X (X IS THE ADDRESS OF THE FIRST INSTRUCTION
DFKAA PDP-10 KL10 BASIC INSTRUCTION DIAGNOSTIC (1) VER 0,2	MACRO %52(537) 09:34 31-JAN-77 PAGE 80-1
DFKAA5	MAC	25-AUG-75 14:00		TEST OF MSCL SOSX INSTRUCTIONS                                                     SEQ 0808

 35535									;IN THE SUBTEST) TO LOOP ON ERROR^
 35536	052441	312 01 0 00 070253 		CAME	1,[0]		;PASS IF E DECREMENTED CORRECTLY
 35537						STOP^
 35538	052442	254 04 0 00 052443 		HALT	.+1		;TEST FAILED IF PROGRAM HALTS HERE
 35539	052443	324 00 0 00 052444 		JUMPA	.+1		;IF TEST FAILS, CHANGE THIS INSTRUCTION (JUMPA .+1) TO
 35540									;JUMPA X (X IS THE ADDRESS OF THE FIRST INSTRUCTION
 35541									;IN THE SUBTEST) TO LOOP ON ERROR^
 35542	052444	312 00 0 00 070332 		CAME	0,[707070,,707070]  ;PASS IF C(AC) WAS NOT MODIFIED
 35543						STOP^
 35544	052445	254 04 0 00 052446 		HALT	.+1		;TEST FAILED IF PROGRAM HALTS HERE
 35545	052446	324 00 0 00 052447 		JUMPA	.+1		;IF TEST FAILS, CHANGE THIS INSTRUCTION (JUMPA .+1) TO
 35546									;JUMPA X (X IS THE ADDRESS OF THE FIRST INSTRUCTION
 35547									;IN THE SUBTEST) TO LOOP ON ERROR^
 35548
 35549					;**********
DFKAA PDP-10 KL10 BASIC INSTRUCTION DIAGNOSTIC (1) VER 0,2	MACRO %52(537) 09:34 31-JAN-77 PAGE 81
DFKAA5	MAC	25-AUG-75 14:00		TEST OF MSCL SOSX INSTRUCTIONS                                                     SEQ 0809

 35550					;THIS TEST VERIFIES THAT SOSL DECREMENTS C(E) BY 0,,1 AND PLACES
 35551					;THE RESULT INTO E.  THE RESULT IN E IS COMPARED TO 0 AND SKIPS
 35552					;THE NEXT INSTRUCTION IF C(E) IS LESS THAN 0.
 35553					;IF THE AC IS NON-ZERO, THE RESULT IS ALSO PLACED INTO THE AC.
 35554					;IN THIS CASE, AC=0, C(AC)=707070,,707070 AND C(E)=0,,1
 35555					;BEFORE INCREMENTING.  HENCE, SOSL SHOULD NOT SKIP; AND THE
 35556					;FINAL RESULTS IN AC AND E SHOULD BE 707070,,707070 AND 0
 35557					;RESPECTIVELY.
 35558
 35559	052447	200 00 0 00 070332 	C55211:	MOVE	0,[707070,,707070]  ;PRELOAD AC WITH 707070,,707070
 35560	052450	201 01 0 00 000001 		MOVEI	1,1		;PRELOAD E WITH 0,,1
 35561	052451	202 01 0 00 052466 		MOVEM	1,E55211
 35562	052452	371 00 0 00 052466 		SOSL	0,E55211	;*SOSL SHOULD SUBTRACT 0,,1 FROM C(E),
 35563									;AND NOT SKIP.
 35564	052453	334 00 0 00 000000 		SKIPA			;PASS IF SOSL DID NOT SKIP
 35565						STOP^
 35566	052454	254 04 0 00 052455 		HALT	.+1		;TEST FAILED IF PROGRAM HALTS HERE
 35567	052455	324 00 0 00 052456 		JUMPA	.+1		;IF TEST FAILS, CHANGE THIS INSTRUCTION (JUMPA .+1) TO
 35568									;JUMPA X (X IS THE ADDRESS OF THE FIRST INSTRUCTION
 35569									;IN THE SUBTEST) TO LOOP ON ERROR^
 35570	052456	200 01 0 00 052466 		MOVE	1,E55211
 35571	052457	312 01 0 00 070253 		CAME	1,[0]		;PASS IF E DECREMENTED CORRECTLY
 35572						STOP^
 35573	052460	254 04 0 00 052461 		HALT	.+1		;TEST FAILED IF PROGRAM HALTS HERE
 35574	052461	324 00 0 00 052462 		JUMPA	.+1		;IF TEST FAILS, CHANGE THIS INSTRUCTION (JUMPA .+1) TO
 35575									;JUMPA X (X IS THE ADDRESS OF THE FIRST INSTRUCTION
 35576									;IN THE SUBTEST) TO LOOP ON ERROR^
 35577	052462	312 00 0 00 070332 		CAME	0,[707070,,707070]  ;PASS IF C(AC) WAS NOT MODIFIED
 35578						STOP^
 35579	052463	254 04 0 00 052464 		HALT	.+1		;TEST FAILED IF PROGRAM HALTS HERE
 35580	052464	324 00 0 00 052465 		JUMPA	.+1		;IF TEST FAILS, CHANGE THIS INSTRUCTION (JUMPA .+1) TO
 35581									;JUMPA X (X IS THE ADDRESS OF THE FIRST INSTRUCTION
 35582									;IN THE SUBTEST) TO LOOP ON ERROR^
 35583
 35584	052465	334 00 0 00 000000 		SKIPA			;GO TO NEXT TEST
 35585	052466	000000	000000		E55211:	0			;TEST WORD MEMORY
 35586
 35587					;**********
DFKAA PDP-10 KL10 BASIC INSTRUCTION DIAGNOSTIC (1) VER 0,2	MACRO %52(537) 09:34 31-JAN-77 PAGE 82
DFKAA5	MAC	25-AUG-75 14:00		TEST OF MSCL SOSX INSTRUCTIONS                                                     SEQ 0810

 35588					;THIS TEST VERIFIES THAT SOS DECREMENTS C(E) BY 0,,1 AND PLACES
 35589					;THE RESULT INTO E.  THE RESULT IN E IS COMPARED TO 0 AND SKIPS
 35590					;THE NEXT INSTRUCTION IF C(E) IS LESS THAN 0.
 35591					;IF THE AC IS NON-ZERO, THE RESULT IS ALSO PLACED INTO THE AC.
 35592					;IN THIS CASE, AC=0, C(AC)=707070,,707070 AND C(E) 0,,2
 35593					;BEFORE INCREMENTING.  HENCE, SOSL SHOULD NOT SKIP; AND THE
 35594					;FINAL RESULTS IN AC AND E SHOULD BE 707070,,707070 AND 0,,1
 35595					;RESPECTIVELY.
 35596
 35597	052467	200 00 0 00 070332 	C55220:	MOVE	0,[707070,,707070]  ;PRELOAD AC WITH 707070,,707070
 35598	052470	201 01 0 00 000002 		MOVEI	1,2		;PRELOAD E WITH 0,,2
 35599	052471	371 00 0 00 000001 		SOSL	0,1		;*SOSL SHOULD SUBTRACT 0,,1 FROM C(E),
 35600									;AND NOT SKIP
 35601
 35602	052472	334 00 0 00 000000 		SKIPA			;PASS IF SOSL DID NOT SKIP
 35603						STOP^
 35604	052473	254 04 0 00 052474 		HALT	.+1		;TEST FAILED IF PROGRAM HALTS HERE
 35605	052474	324 00 0 00 052475 		JUMPA	.+1		;IF TEST FAILS, CHANGE THIS INSTRUCTION (JUMPA .+1) TO
 35606									;JUMPA X (X IS THE ADDRESS OF THE FIRST INSTRUCTION
 35607									;IN THE SUBTEST) TO LOOP ON ERROR^
 35608	052475	312 01 0 00 070265 		CAME	1,[1]		;PASS IF E DECREMENTED CORRECTLY
 35609						STOP^
 35610	052476	254 04 0 00 052477 		HALT	.+1		;TEST FAILED IF PROGRAM HALTS HERE
 35611	052477	324 00 0 00 052500 		JUMPA	.+1		;IF TEST FAILS, CHANGE THIS INSTRUCTION (JUMPA .+1) TO
 35612									;JUMPA X (X IS THE ADDRESS OF THE FIRST INSTRUCTION
 35613									;IN THE SUBTEST) TO LOOP ON ERROR^
 35614	052500	312 00 0 00 070332 		CAME	0,[707070,,707070]  ;PASS IF AC WAS UPDATED IF AC NON-ZERO
 35615						STOP^
 35616	052501	254 04 0 00 052502 		HALT	.+1		;TEST FAILED IF PROGRAM HALTS HERE
 35617	052502	324 00 0 00 052503 		JUMPA	.+1		;IF TEST FAILS, CHANGE THIS INSTRUCTION (JUMPA .+1) TO
 35618									;JUMPA X (X IS THE ADDRESS OF THE FIRST INSTRUCTION
 35619									;IN THE SUBTEST) TO LOOP ON ERROR^
 35620
 35621					;**********
 35622
 35623					;THIS TEST VERIFIES THAT SOSE DECREMENTS C(E) BY 0,,1 AND PLACES
 35624					;THE RESULT INTO E.  THE RESULT IN E IS COMPARED TO 0 AND SKIPS
 35625					;THE NEXT INSTRUCTION IF C(E) IS EQUAL TO 0
 35626					;IF THE AC IS NON-ZERO, THE RESULT IS ALSO PLACED INTO THE AC.
 35627					;IN THIS CASE, AC=10, C(AC)=707070,,707070 AND C(E)=0
 35628					;BEFORE INCREMENTING.  HENCE, SOSE SHOULD NOT SKIP ; AND THE
 35629					;FINAL RESULTS IN AC AND E SHOULD BE -1,,-1 AND -1,,-1
 35630					;RESPECTIVELY.
 35631
 35632	052503	200 10 0 00 070332 	C55300:	MOVE	10,[707070,,707070]  ;PRELOAD AC WITH 707070,,707070
 35633	052504	201 11 0 00 000000 		MOVEI	11,0		;PRELOAD E WITH 0
 35634	052505	372 10 0 00 000011 		SOSE	10,11		;*SOSE SHOULD SUBTRACT 0,,1 FROM C(E),
 35635									;UPDATE AC AND NOT SKIP
 35636
 35637	052506	334 00 0 00 000000 		SKIPA			;PASS IF SOSE DID NOT SKIP
 35638						STOP^
 35639	052507	254 04 0 00 052510 		HALT	.+1		;TEST FAILED IF PROGRAM HALTS HERE
 35640	052510	324 00 0 00 052511 		JUMPA	.+1		;IF TEST FAILS, CHANGE THIS INSTRUCTION (JUMPA .+1) TO
 35641									;JUMPA X (X IS THE ADDRESS OF THE FIRST INSTRUCTION
 35642									;IN THE SUBTEST) TO LOOP ON ERROR^
DFKAA PDP-10 KL10 BASIC INSTRUCTION DIAGNOSTIC (1) VER 0,2	MACRO %52(537) 09:34 31-JAN-77 PAGE 82-1
DFKAA5	MAC	25-AUG-75 14:00		TEST OF MSCL SOSX INSTRUCTIONS                                                     SEQ 0811

 35643	052511	312 11 0 00 070254 		CAME	11,[-1]		;PASS IF E DECREMENTED CORRECTLY
 35644						STOP^
 35645	052512	254 04 0 00 052513 		HALT	.+1		;TEST FAILED IF PROGRAM HALTS HERE
 35646	052513	324 00 0 00 052514 		JUMPA	.+1		;IF TEST FAILS, CHANGE THIS INSTRUCTION (JUMPA .+1) TO
 35647									;JUMPA X (X IS THE ADDRESS OF THE FIRST INSTRUCTION
 35648									;IN THE SUBTEST) TO LOOP ON ERROR^
 35649	052514	312 10 0 00 070254 		CAME	10,[-1]		;PASS IF AC WAS UPDATED IF AC NON-ZERO
 35650						STOP^
 35651	052515	254 04 0 00 052516 		HALT	.+1		;TEST FAILED IF PROGRAM HALTS HERE
 35652	052516	324 00 0 00 052517 		JUMPA	.+1		;IF TEST FAILS, CHANGE THIS INSTRUCTION (JUMPA .+1) TO
 35653									;JUMPA X (X IS THE ADDRESS OF THE FIRST INSTRUCTION
 35654									;IN THE SUBTEST) TO LOOP ON ERROR^
 35655
 35656					;**********
DFKAA PDP-10 KL10 BASIC INSTRUCTION DIAGNOSTIC (1) VER 0,2	MACRO %52(537) 09:34 31-JAN-77 PAGE 83
DFKAA5	MAC	25-AUG-75 14:00		TEST OF MSCL SOSX INSTRUCTIONS                                                     SEQ 0812

 35657					;THIS TEST VERIFIES THAT SOSE DECREMENTS C(E) BY 0,,1 AND PLACES
 35658					;THE RESULT INTO E.  THE RESULT IN E IS COMPARED TO 0 AND SKIPS
 35659					;THE NEXT INSTRUCTION IF C(E) IS EQUAL TO 0
 35660					;IF THE AC IS NON-ZERO, THE RESULT IS ALSO PLACED INTO THE AC.
 35661					;IN THIS CASE, AC=10, C(AC)=707070,,707070 AND C(E)=0,,1
 35662					;BEFORE INCREMENTING.  HENCE, SOSE SHOULD SKIP ; AND THE
 35663					;FINAL RESULTS IN AC AND E SHOULD BE 707070,,707070 AND 0
 35664					;RESPECTIVELY.
 35665
 35666	052517	200 10 0 00 070332 	C55310:	MOVE	10,[707070,,707070]  ;PRELOAD AC WITH 707070,,707070
 35667	052520	201 11 0 00 000001 		MOVEI	11,1		;PRELOAD E WITH 0,,1
 35668	052521	372 10 0 00 000011 		SOSE	10,11		;*SOS SHOULD SUBTRACT 0,,1 FROM C(E)
 35669									;UPDATE AC AND SKIP
 35670						STOP^
 35671	052522	254 04 0 00 052523 		HALT	.+1		;TEST FAILED IF PROGRAM HALTS HERE
 35672	052523	324 00 0 00 052524 		JUMPA	.+1		;IF TEST FAILS, CHANGE THIS INSTRUCTION (JUMPA .+1) TO
 35673									;JUMPA X (X IS THE ADDRESS OF THE FIRST INSTRUCTION
 35674									;IN THE SUBTEST) TO LOOP ON ERROR^
 35675	052524	312 11 0 00 070253 		CAME	11,[0]		;PASS IF E DECREMENTED CORRECTLY
 35676						STOP^
 35677	052525	254 04 0 00 052526 		HALT	.+1		;TEST FAILED IF PROGRAM HALTS HERE
 35678	052526	324 00 0 00 052527 		JUMPA	.+1		;IF TEST FAILS, CHANGE THIS INSTRUCTION (JUMPA .+1) TO
 35679									;JUMPA X (X IS THE ADDRESS OF THE FIRST INSTRUCTION
 35680									;IN THE SUBTEST) TO LOOP ON ERROR^
 35681	052527	312 10 0 00 070253 		CAME	10,[0]		;PASS IF AC WAS UPDATED IF AC NON-ZERO
 35682						STOP^
 35683	052530	254 04 0 00 052531 		HALT	.+1		;TEST FAILED IF PROGRAM HALTS HERE
 35684	052531	324 00 0 00 052532 		JUMPA	.+1		;IF TEST FAILS, CHANGE THIS INSTRUCTION (JUMPA .+1) TO
 35685									;JUMPA X (X IS THE ADDRESS OF THE FIRST INSTRUCTION
 35686									;IN THE SUBTEST) TO LOOP ON ERROR^
 35687
 35688					;**********
 35689
 35690					;THIS TEST VERIFIES THAT SOSE DECREMENTS C(E) BY 0,11 AND PLACES
 35691					;THE RESULT INTO E.  THE RESULT IN E IS COMPARED TO 0 AND SKIPS
 35692					;THE NEXT INSTRUCTION IF C(E) IS EQUAL TO 0.
 35693					;IF THE AC IS NON-ZERO, THE RESULT IS ALSO PLACED INTO THE AC.
 35694					;IN THIS CASE, AC=10, C(AC)=707070,,707070 AND C(E)=0,,2
 35695					;BEFORE INCREMENTING. HENCE, SOSE SHOULD NOT SKIP ; AND THE
 35696					;FINAL RESULTS IN AC AND E SHOULD BE 0,,1 AND 0,,1
 35697					;RESPECTIVELY.
 35698
 35699	052532	200 10 0 00 070332 	C55320:	MOVE	10,[707070,,707070] ;PRELOAD AC WITH 707070,,707070
 35700	052533	201 11 0 00 000002 		MOVEI	11,2		;PRELOAD E WITH 0,,2
 35701	052534	372 10 0 00 000011 		SOSE	10,11		;*SOSE SHOULD SUBTRACT 0,,1 FROM C(E),
 35702									;UPDATE AC AND NOT SKIP
 35703
 35704	052535	334 00 0 00 000000 		SKIPA			;PASS IF SOSE DID NOT SKIP
 35705						STOP^
 35706	052536	254 04 0 00 052537 		HALT	.+1		;TEST FAILED IF PROGRAM HALTS HERE
 35707	052537	324 00 0 00 052540 		JUMPA	.+1		;IF TEST FAILS, CHANGE THIS INSTRUCTION (JUMPA .+1) TO
 35708									;JUMPA X (X IS THE ADDRESS OF THE FIRST INSTRUCTION
 35709									;IN THE SUBTEST) TO LOOP ON ERROR^
 35710	052540	312 11 0 00 070265 		CAME	11,[1]		;PASS IF E DECREMENTED CORRECTLY
 35711						STOP^
DFKAA PDP-10 KL10 BASIC INSTRUCTION DIAGNOSTIC (1) VER 0,2	MACRO %52(537) 09:34 31-JAN-77 PAGE 83-1
DFKAA5	MAC	25-AUG-75 14:00		TEST OF MSCL SOSX INSTRUCTIONS                                                     SEQ 0813

 35712	052541	254 04 0 00 052542 		HALT	.+1		;TEST FAILED IF PROGRAM HALTS HERE
 35713	052542	324 00 0 00 052543 		JUMPA	.+1		;IF TEST FAILS, CHANGE THIS INSTRUCTION (JUMPA .+1) TO
 35714									;JUMPA X (X IS THE ADDRESS OF THE FIRST INSTRUCTION
 35715									;IN THE SUBTEST) TO LOOP ON ERROR^
 35716	052543	312 10 0 00 070265 		CAME	10,[1]		;PASS IF AC WAS UPDATED IF AC NON-ZERO
 35717						STOP^
 35718	052544	254 04 0 00 052545 		HALT	.+1		;TEST FAILED IF PROGRAM HALTS HERE
 35719	052545	324 00 0 00 052546 		JUMPA	.+1		;IF TEST FAILS, CHANGE THIS INSTRUCTION (JUMPA .+1) TO
 35720									;JUMPA X (X IS THE ADDRESS OF THE FIRST INSTRUCTION
 35721									;IN THE SUBTEST) TO LOOP ON ERROR^
 35722
 35723					;**********
DFKAA PDP-10 KL10 BASIC INSTRUCTION DIAGNOSTIC (1) VER 0,2	MACRO %52(537) 09:34 31-JAN-77 PAGE 84
DFKAA5	MAC	25-AUG-75 14:00		TEST OF MSCL SOSX INSTRUCTIONS                                                     SEQ 0814

 35724					;THIS TEST VERIFIES THAT SOSLE DECREMENTS C(E) BY 0,,1 AND PLACES
 35725					;THE RESULT INTO E.  THE RESULT IN E IS COMPARED TO 0 AND SKIPS
 35726					;THE NEXT INSTRUCTION IF C(E) IS LESS THAN OR EQUAL TO 0.
 35727					;IF THE AC IS NON-ZERO, THE RESULT IS ALSO PLACED INTO THE AC.
 35728					;IN THIS CASE, AC=7, C(AC)=707070,,707070 AND C(E)=0
 35729					;BEFORE INCREMENTING.  HENCE, SOSLE SHOULD SKIP ; AND THE
 35730					;FINAL RESULTS IN AC AND E SHOULD BE -1,,-1 AND -1,,-1
 35731					;RESPECTIVELY.
 35732
 35733	052546	200 07 0 00 070332 	C55400:	MOVE	7,[707070,,707070]  ;PRELOAD AC WITH 707070,,707070
 35734	052547	201 10 0 00 000000 		MOVEI	10,0		;PRELOAD E WITH 0
 35735	052550	373 07 0 00 000010 		SOSLE	7,10		;*SOSLE SHOULD SUBTRACT 0,,1 FROM C(E),
 35736									;UPDATE AC AND SKIP
 35737						STOP^
 35738	052551	254 04 0 00 052552 		HALT	.+1		;TEST FAILED IF PROGRAM HALTS HERE
 35739	052552	324 00 0 00 052553 		JUMPA	.+1		;IF TEST FAILS, CHANGE THIS INSTRUCTION (JUMPA .+1) TO
 35740									;JUMPA X (X IS THE ADDRESS OF THE FIRST INSTRUCTION
 35741									;IN THE SUBTEST) TO LOOP ON ERROR^
 35742	052553	312 10 0 00 070254 		CAME	10,[-1]		;PASS IF E DECREMENTED CORRECTLY
 35743						STOP^
 35744	052554	254 04 0 00 052555 		HALT	.+1		;TEST FAILED IF PROGRAM HALTS HERE
 35745	052555	324 00 0 00 052556 		JUMPA	.+1		;IF TEST FAILS, CHANGE THIS INSTRUCTION (JUMPA .+1) TO
 35746									;JUMPA X (X IS THE ADDRESS OF THE FIRST INSTRUCTION
 35747									;IN THE SUBTEST) TO LOOP ON ERROR^
 35748	052556	312 07 0 00 070254 		CAME	7,[-1]		;PASS IF AC WAS UPDATED IF AC NON-ZERO
 35749						STOP^
 35750	052557	254 04 0 00 052560 		HALT	.+1		;TEST FAILED IF PROGRAM HALTS HERE
 35751	052560	324 00 0 00 052561 		JUMPA	.+1		;IF TEST FAILS, CHANGE THIS INSTRUCTION (JUMPA .+1) TO
 35752									;JUMPA X (X IS THE ADDRESS OF THE FIRST INSTRUCTION
 35753									;IN THE SUBTEST) TO LOOP ON ERROR^
 35754
 35755					;**********
 35756
 35757					;THIS TEST VERIFIES THAT SOSLE DECREMENTS C(E) BY 0,,1 AND PLACES
 35758					;THE RESULT INTO E. THE RESULT IN E IS COMPARED TO 0 AND SKIPS
 35759					;THE NEXT INSTRUCTION IF C(E) IS LESS THAN OR EQUAL TO 0.
 35760					;IF THE AC IS NON-ZERO, THE RESULT IS ALSO PLACED INTO THE AC.
 35761					;IN THIS CASE, AC=7, C(AC)=070707,,070707 AND C(E)=0,,1
 35762					;BEFORE INCREMENTING.  HENCE, SOSLE SHOULD SKIP ; AND THE
 35763					;FINAL RESULTS IN AC AND E SHOULD BE 0 AND 0
 35764					;RESPECTIVELY.
 35765
 35766	052561	200 07 0 00 070332 	C55410:	MOVE	7,[707070,,707070] ;PRELOAD AC WITH 707070,,707070
 35767	052562	201 10 0 00 000001 		MOVEI	10,1		;PRELOAD E WITH 0,,1
 35768	052563	373 07 0 00 000010 		SOSLE	7,10		;*SOSLE SHOULD SUBTRACT 0,,1 FROM C(E),
 35769									;UPDATE AC AND SKIP
 35770						STOP^
 35771	052564	254 04 0 00 052565 		HALT	.+1		;TEST FAILED IF PROGRAM HALTS HERE
 35772	052565	324 00 0 00 052566 		JUMPA	.+1		;IF TEST FAILS, CHANGE THIS INSTRUCTION (JUMPA .+1) TO
 35773									;JUMPA X (X IS THE ADDRESS OF THE FIRST INSTRUCTION
 35774									;IN THE SUBTEST) TO LOOP ON ERROR^
 35775	052566	312 10 0 00 070253 		CAME	10,[0]		;PASS IF E DECREMENTED CORRECTLY
 35776						STOP^
 35777	052567	254 04 0 00 052570 		HALT	.+1		;TEST FAILED IF PROGRAM HALTS HERE
 35778	052570	324 00 0 00 052571 		JUMPA	.+1		;IF TEST FAILS, CHANGE THIS INSTRUCTION (JUMPA .+1) TO
DFKAA PDP-10 KL10 BASIC INSTRUCTION DIAGNOSTIC (1) VER 0,2	MACRO %52(537) 09:34 31-JAN-77 PAGE 84-1
DFKAA5	MAC	25-AUG-75 14:00		TEST OF MSCL SOSX INSTRUCTIONS                                                     SEQ 0815

 35779									;JUMPA X (X IS THE ADDRESS OF THE FIRST INSTRUCTION
 35780									;IN THE SUBTEST) TO LOOP ON ERROR^
 35781	052571	312 07 0 00 070253 		CAME	7,[0]		;PASS IF AC WAS UPDATED IF AC NON-ZERO
 35782						STOP^
 35783	052572	254 04 0 00 052573 		HALT	.+1		;TEST FAILED IF PROGRAM HALTS HERE
 35784	052573	324 00 0 00 052574 		JUMPA	.+1		;IF TEST FAILS, CHANGE THIS INSTRUCTION (JUMPA .+1) TO
 35785									;JUMPA X (X IS THE ADDRESS OF THE FIRST INSTRUCTION
 35786									;IN THE SUBTEST) TO LOOP ON ERROR^
 35787
 35788					;**********
DFKAA PDP-10 KL10 BASIC INSTRUCTION DIAGNOSTIC (1) VER 0,2	MACRO %52(537) 09:34 31-JAN-77 PAGE 85
DFKAA5	MAC	25-AUG-75 14:00		TEST OF MSCL SOSX INSTRUCTIONS                                                     SEQ 0816

 35789					;THIS TEST VERIFIES THAT SOSLE DECREMENTS C(E) BY 0,,1 AND PLACES
 35790					;THE RESULT INTO E.  THE RESULT IN E IS COMPARED TO 0 AND SKIPS
 35791					;THE NEXT INSTRUCTION IF C(E) IS LESS THAN OR EQUAL TO 0.
 35792					;IF THE AC IS NON-ZERO, THE RESULT IS ALSO PLACED INTO THE AC.
 35793					;IN THIS CASE, AC=7, C(AC)=707070,,707070 AND C(E)=0,,2
 35794					;BEFORE INCREMENTING.  HENCE, SOSLE SHOULD NOT SKIP; AND THE
 35795					;FINAL RESULTS IN AC AND E SHOULD BE 0,,1 AND 0,,1
 35796					;RESPECTIVELY.
 35797
 35798	052574	200 07 0 00 070332 	C55420:	MOVE	7,[707070,,707070]  ;PRELOAD AC WITH 707070,,707070
 35799	052575	201 10 0 00 000002 		MOVEI	10,2		;PRELOAD E WITH 0,,2
 35800	052576	373 07 0 00 000010 		SOSLE	7,10		;*SOSLE SHOULD SUBTRACT 0,,1 FROM C(E),
 35801									;UPDATE AC AND NOT SKIP
 35802	052577	334 00 0 00 000000 		SKIPA			;PASS IF SOSLE DID NOT SKIP
 35803						STOP^
 35804	052600	254 04 0 00 052601 		HALT	.+1		;TEST FAILED IF PROGRAM HALTS HERE
 35805	052601	324 00 0 00 052602 		JUMPA	.+1		;IF TEST FAILS, CHANGE THIS INSTRUCTION (JUMPA .+1) TO
 35806									;JUMPA X (X IS THE ADDRESS OF THE FIRST INSTRUCTION
 35807									;IN THE SUBTEST) TO LOOP ON ERROR^
 35808	052602	312 10 0 00 070265 		CAME	10,[1]		;PASS IF E DECREMENTED CORRECTLY
 35809						STOP^
 35810	052603	254 04 0 00 052604 		HALT	.+1		;TEST FAILED IF PROGRAM HALTS HERE
 35811	052604	324 00 0 00 052605 		JUMPA	.+1		;IF TEST FAILS, CHANGE THIS INSTRUCTION (JUMPA .+1) TO
 35812									;JUMPA X (X IS THE ADDRESS OF THE FIRST INSTRUCTION
 35813									;IN THE SUBTEST) TO LOOP ON ERROR^
 35814	052605	312 07 0 00 070265 		CAME	7,[1]		;PASS IF AC WAS UPDATED IF AC NON-ZERO
 35815						STOP^
 35816	052606	254 04 0 00 052607 		HALT	.+1		;TEST FAILED IF PROGRAM HALTS HERE
 35817	052607	324 00 0 00 052610 		JUMPA	.+1		;IF TEST FAILS, CHANGE THIS INSTRUCTION (JUMPA .+1) TO
 35818									;JUMPA X (X IS THE ADDRESS OF THE FIRST INSTRUCTION
 35819									;IN THE SUBTEST) TO LOOP ON ERROR^
 35820
 35821					;**********
 35822
 35823					;THIS TEST VERIFIES THAT SOSA DECREMENTS C(E) BY 0,,1 AND PLACES
 35824					;THE RESULT INTO E.  THE RESULT IN E IS COMPARED TO 0 AND ALWAYS SKIPS
 35825					;THE NEXT INSTRUCTION.
 35826					;IF THE AC IS NON-ZERO, THE RESULT IS ALSO PLACED INTO THE AC.
 35827					;IN THIS CASE, AC=6, C(AC)=707070,,707070 AND C(E)=0
 35828					;BEFORE INCREMENTING. HENCE, SOSA SHOULD SKIP ; AND THE
 35829					;FINAL RESULTS IN AC AND E SHOULD BE -1,,-1 AND -1,,-1
 35830					;RESPECTIVELY.
 35831
 35832	052610	200 06 0 00 070332 	C55500:	MOVE	6,[707070,,707070]  ;PRELOAD AC WITH 707070,,707070
 35833	052611	201 07 0 00 000000 		MOVEI	7,0		;PRELOAD E WITH 0
 35834	052612	374 06 0 00 000007 		SOSA	6,7		;*SOSA SHOULD SUBTRACT 0,,1 FROM C(E),
 35835									;UPDATE AC AND SKIP
 35836						STOP^
 35837	052613	254 04 0 00 052614 		HALT	.+1		;TEST FAILED IF PROGRAM HALTS HERE
 35838	052614	324 00 0 00 052615 		JUMPA	.+1		;IF TEST FAILS, CHANGE THIS INSTRUCTION (JUMPA .+1) TO
 35839									;JUMPA X (X IS THE ADDRESS OF THE FIRST INSTRUCTION
 35840									;IN THE SUBTEST) TO LOOP ON ERROR^
 35841	052615	312 07 0 00 070254 		CAME	7,[-1]		;PASS IF E DECREMENTED CORRECTLY
 35842						STOP^
 35843	052616	254 04 0 00 052617 		HALT	.+1		;TEST FAILED IF PROGRAM HALTS HERE
DFKAA PDP-10 KL10 BASIC INSTRUCTION DIAGNOSTIC (1) VER 0,2	MACRO %52(537) 09:34 31-JAN-77 PAGE 85-1
DFKAA5	MAC	25-AUG-75 14:00		TEST OF MSCL SOSX INSTRUCTIONS                                                     SEQ 0817

 35844	052617	324 00 0 00 052620 		JUMPA	.+1		;IF TEST FAILS, CHANGE THIS INSTRUCTION (JUMPA .+1) TO
 35845									;JUMPA X (X IS THE ADDRESS OF THE FIRST INSTRUCTION
 35846									;IN THE SUBTEST) TO LOOP ON ERROR^
 35847	052620	312 06 0 00 070254 		CAME	6,[-1]		;PASS IF AC WAS UPDATED IF AC NON-ZERO
 35848						STOP^
 35849	052621	254 04 0 00 052622 		HALT	.+1		;TEST FAILED IF PROGRAM HALTS HERE
 35850	052622	324 00 0 00 052623 		JUMPA	.+1		;IF TEST FAILS, CHANGE THIS INSTRUCTION (JUMPA .+1) TO
 35851									;JUMPA X (X IS THE ADDRESS OF THE FIRST INSTRUCTION
 35852									;IN THE SUBTEST) TO LOOP ON ERROR^
 35853
 35854					;**********
DFKAA PDP-10 KL10 BASIC INSTRUCTION DIAGNOSTIC (1) VER 0,2	MACRO %52(537) 09:34 31-JAN-77 PAGE 86
DFKAA5	MAC	25-AUG-75 14:00		TEST OF MSCL SOSX INSTRUCTIONS                                                     SEQ 0818

 35855					;THIS TEST VERIFIES THAT SOSA DECREMENTS C(E) BY 0,,1 AND PLACES
 35856					;THE RESULT INTO E.  THE RESULT IN E IS COMPARED TO 0 AND ALWAYS SKIPS
 35857					;THE NEXT INSTRUCTION.
 35858					;IF THE AC IS NON-ZERO, THE RESULT IS ALSO PLACED INTO THEAC.
 35859					;IN THIS CASE, AC=6, C(AC)=707070,,707070 AND C(E)=0,,1
 35860					;BEFORE INCREMENTING.  HENCE, SOSA SHOULD BE 0 AND 0
 35861					;RESPECTIVELY.
 35862
 35863	052623	200 06 0 00 070332 	C55510:	MOVE	6,[707070,,707070]  ;PRELOAD AC WITH 707070,,707070
 35864	052624	201 07 0 00 000001 		MOVEI	7,1		;PRELOAD E WITH 0,,1
 35865	052625	374 06 0 00 000007 		SOSA	6,7		;*SOSA SHOULD SUBTRACT 0,,1 FROM C(E),
 35866									;UPDATE AC AND SKIP
 35867						STOP^
 35868	052626	254 04 0 00 052627 		HALT	.+1		;TEST FAILED IF PROGRAM HALTS HERE
 35869	052627	324 00 0 00 052630 		JUMPA	.+1		;IF TEST FAILS, CHANGE THIS INSTRUCTION (JUMPA .+1) TO
 35870									;JUMPA X (X IS THE ADDRESS OF THE FIRST INSTRUCTION
 35871									;IN THE SUBTEST) TO LOOP ON ERROR^
 35872	052630	312 07 0 00 070253 		CAME	7,[0]		;PASS IF E DECREMENTED CORRECTLY
 35873						STOP^
 35874	052631	254 04 0 00 052632 		HALT	.+1		;TEST FAILED IF PROGRAM HALTS HERE
 35875	052632	324 00 0 00 052633 		JUMPA	.+1		;IF TEST FAILS, CHANGE THIS INSTRUCTION (JUMPA .+1) TO
 35876									;JUMPA X (X IS THE ADDRESS OF THE FIRST INSTRUCTION
 35877									;IN THE SUBTEST) TO LOOP ON ERROR^
 35878	052633	312 06 0 00 070253 		CAME	6,[0]		;PASS IF AC WAS UPDATED IF AC NON-ZERO
 35879						STOP^
 35880	052634	254 04 0 00 052635 		HALT	.+1		;TEST FAILED IF PROGRAM HALTS HERE
 35881	052635	324 00 0 00 052636 		JUMPA	.+1		;IF TEST FAILS, CHANGE THIS INSTRUCTION (JUMPA .+1) TO
 35882									;JUMPA X (X IS THE ADDRESS OF THE FIRST INSTRUCTION
 35883									;IN THE SUBTEST) TO LOOP ON ERROR^
 35884
 35885					;**********
 35886
 35887					;THIS TEST VERIFIES THAT SOSA DECREMENTS C(E) BY 0,,1 AND PLACES
 35888					;THE RESULT INTO E.  THE RESULT IN E IS COMPARED TO 0 AND ALWAYS SKIPS
 35889					;THE NEXT INSTRUCTION.
 35890					;IF THE AC IS NON-ZERO, THE RESULT IS ALSO PLACED INTO THE AC.
 35891					;IN THIS CASE, AC=6, C(AC)=707070,,707070 AND C(E)=0,,2
 35892					;BEFORE INCREMENTING.  HENCE, SOSA SHOULD SKIP ; AND THE
 35893					;FINAL RESULTS IN AC AND E SHOULD BE 0,,1 AND 0,,1
 35894					;RESPECTIVELY.
 35895
 35896	052636	200 06 0 00 070332 	C55520:	MOVE	6,[707070,,707070] ;PRELOAD AC WITH 707070,,707070
 35897	052637	201 07 0 00 000002 		MOVEI	7,2		;PRELOAD E WITH 0,,2
 35898	052640	374 06 0 00 000007 		SOSA	6,7		;*SOSA SHOULD SUBTRACT 0,,1 FROM C(E),
 35899									;UPDATE AC AND SKIP
 35900						STOP^
 35901	052641	254 04 0 00 052642 		HALT	.+1		;TEST FAILED IF PROGRAM HALTS HERE
 35902	052642	324 00 0 00 052643 		JUMPA	.+1		;IF TEST FAILS, CHANGE THIS INSTRUCTION (JUMPA .+1) TO
 35903									;JUMPA X (X IS THE ADDRESS OF THE FIRST INSTRUCTION
 35904									;IN THE SUBTEST) TO LOOP ON ERROR^
 35905	052643	312 07 0 00 070265 		CAME	7,[1]		;PASS IF E DECREMENTED CORRECTLY
 35906						STOP^
 35907	052644	254 04 0 00 052645 		HALT	.+1		;TEST FAILED IF PROGRAM HALTS HERE
 35908	052645	324 00 0 00 052646 		JUMPA	.+1		;IF TEST FAILS, CHANGE THIS INSTRUCTION (JUMPA .+1) TO
 35909									;JUMPA X (X IS THE ADDRESS OF THE FIRST INSTRUCTION
DFKAA PDP-10 KL10 BASIC INSTRUCTION DIAGNOSTIC (1) VER 0,2	MACRO %52(537) 09:34 31-JAN-77 PAGE 86-1
DFKAA5	MAC	25-AUG-75 14:00		TEST OF MSCL SOSX INSTRUCTIONS                                                     SEQ 0819

 35910									;IN THE SUBTEST) TO LOOP ON ERROR^
 35911	052646	312 06 0 00 070265 		CAME	6,[1]		;PASS IF AC WAS UPDATED IF AC NON-ZERO
 35912						STOP^
 35913	052647	254 04 0 00 052650 		HALT	.+1		;TEST FAILED IF PROGRAM HALTS HERE
 35914	052650	324 00 0 00 052651 		JUMPA	.+1		;IF TEST FAILS, CHANGE THIS INSTRUCTION (JUMPA .+1) TO
 35915									;JUMPA X (X IS THE ADDRESS OF THE FIRST INSTRUCTION
 35916									;IN THE SUBTEST) TO LOOP ON ERROR^
 35917
 35918					;**********
DFKAA PDP-10 KL10 BASIC INSTRUCTION DIAGNOSTIC (1) VER 0,2	MACRO %52(537) 09:34 31-JAN-77 PAGE 87
DFKAA5	MAC	25-AUG-75 14:00		TEST OF MSCL SOSX INSTRUCTIONS                                                     SEQ 0820

 35919					;THIS TEST VERIFIES THAT SOSGE DECREMENTS C(E) BY 0,,1 AND PLACES
 35920					;THE RESULT INTO E.  THE RESULT IN E IS COMPARED TO 0 AND SKIPS
 35921					;THE NEXT INSTRUCTION IF C(E) IS GREATER THAN OR EQUAL TO 0.
 35922					;IF THE AC IS NON-ZERO, THE RESULT IS ALSO PLACED INTO THE AC.
 35923					;IN THIS CASE, AC=5, C(AC)=707070,,707070 AND C(E)=0
 35924					;BEFORE INCREMENTING.  HENCE, SOSGE SHOULD NOT SKIP ; AND THE
 35925					;FINAL RESULTS IN AC AND E SHOULD BE -1,,-1 AND -1,,-1
 35926					;RESPECTIVELY.
 35927
 35928	052651	200 05 0 00 070332 	C55600:	MOVE	5,[707070,,707070]  ;PRELOAD AC WITH 707070,,707070
 35929	052652	201 06 0 00 000000 		MOVEI	6,0		;PRELOAD E WITH 0
 35930	052653	375 05 0 00 000006 		SOSGE	5,6		;*SOSGE SHOULD SUBTRACT 0,,1 FROM C(E),
 35931									;UPDATE AC AND NOT SKIP
 35932	052654	334 00 0 00 000000 		SKIPA			;PASS IF SOSGE DID NOT SKIP
 35933						STOP^
 35934	052655	254 04 0 00 052656 		HALT	.+1		;TEST FAILED IF PROGRAM HALTS HERE
 35935	052656	324 00 0 00 052657 		JUMPA	.+1		;IF TEST FAILS, CHANGE THIS INSTRUCTION (JUMPA .+1) TO
 35936									;JUMPA X (X IS THE ADDRESS OF THE FIRST INSTRUCTION
 35937									;IN THE SUBTEST) TO LOOP ON ERROR^
 35938	052657	312 06 0 00 070254 		CAME	6,[-1]		;PASS IF E DECREMENTED CORRECTLY
 35939						STOP^
 35940	052660	254 04 0 00 052661 		HALT	.+1		;TEST FAILED IF PROGRAM HALTS HERE
 35941	052661	324 00 0 00 052662 		JUMPA	.+1		;IF TEST FAILS, CHANGE THIS INSTRUCTION (JUMPA .+1) TO
 35942									;JUMPA X (X IS THE ADDRESS OF THE FIRST INSTRUCTION
 35943									;IN THE SUBTEST) TO LOOP ON ERROR^
 35944	052662	312 05 0 00 070254 		CAME	5,[-1]		;PASS IF AC WAS UPDATED IF AC NON-ZERO
 35945						STOP^
 35946	052663	254 04 0 00 052664 		HALT	.+1		;TEST FAILED IF PROGRAM HALTS HERE
 35947	052664	324 00 0 00 052665 		JUMPA	.+1		;IF TEST FAILS, CHANGE THIS INSTRUCTION (JUMPA .+1) TO
 35948									;JUMPA X (X IS THE ADDRESS OF THE FIRST INSTRUCTION
 35949									;IN THE SUBTEST) TO LOOP ON ERROR^
 35950
 35951					;**********
 35952
 35953					;THIS TEST VERIFIES THAT SOSGE DECREMENTS C(E) BY 0,,1 AND PLACES
 35954					;THE RESULT INTO E.  THE RESULT IN E IS COMPARED TO 0 AND SKIPS
 35955					;THE NEXT INSTRUCTION IF C(E) IS GREATER THAN OR EQUAL TO 0.
 35956					;IF THE AC IS NON-ZERO, THE RESULT IS ALSO PLACED INTO THE AC.
 35957					;IN THIS CASE, AC=5, C(AC)=707070,,707070 AND C(E)=0,,1
 35958					;BEFORE INCREMENTING.  HENCE, SOSGE SHOULD SKIP ; AND THE
 35959					;FINAL RESULTS IN ACAND E SHOULD BE 0 AND 0
 35960					;RESPECTIVELY.
 35961
 35962	052665	200 05 0 00 070332 	C55610:	MOVE	5,[707070,,707070]  ;PRELOAD AC WITH 707070,,707070
 35963	052666	201 06 0 00 000001 		MOVEI	6,1		;PRELOAD E WITH 0,,1
 35964	052667	375 05 0 00 000006 		SOSGE	5,6		;*SOSGE SHOULD SUBTRACT 0,,1 FROM C(E),
 35965									;UPDATE AC AND SKIP
 35966						STOP^
 35967	052670	254 04 0 00 052671 		HALT	.+1		;TEST FAILED IF PROGRAM HALTS HERE
 35968	052671	324 00 0 00 052672 		JUMPA	.+1		;IF TEST FAILS, CHANGE THIS INSTRUCTION (JUMPA .+1) TO
 35969									;JUMPA X (X IS THE ADDRESS OF THE FIRST INSTRUCTION
 35970									;IN THE SUBTEST) TO LOOP ON ERROR^
 35971	052672	312 06 0 00 070253 		CAME	6,[0]		;PASS IF E DECREMENTED CORRECTLY
 35972						STOP^
 35973	052673	254 04 0 00 052674 		HALT	.+1		;TEST FAILED IF PROGRAM HALTS HERE
DFKAA PDP-10 KL10 BASIC INSTRUCTION DIAGNOSTIC (1) VER 0,2	MACRO %52(537) 09:34 31-JAN-77 PAGE 87-1
DFKAA5	MAC	25-AUG-75 14:00		TEST OF MSCL SOSX INSTRUCTIONS                                                     SEQ 0821

 35974	052674	324 00 0 00 052675 		JUMPA	.+1		;IF TEST FAILS, CHANGE THIS INSTRUCTION (JUMPA .+1) TO
 35975									;JUMPA X (X IS THE ADDRESS OF THE FIRST INSTRUCTION
 35976									;IN THE SUBTEST) TO LOOP ON ERROR^
 35977	052675	312 05 0 00 070253 		CAME	5,[0]		;PASS IF AC WAS UPDATED IF AC NON-ZERO
 35978						STOP^
 35979	052676	254 04 0 00 052677 		HALT	.+1		;TEST FAILED IF PROGRAM HALTS HERE
 35980	052677	324 00 0 00 052700 		JUMPA	.+1		;IF TEST FAILS, CHANGE THIS INSTRUCTION (JUMPA .+1) TO
 35981									;JUMPA X (X IS THE ADDRESS OF THE FIRST INSTRUCTION
 35982									;IN THE SUBTEST) TO LOOP ON ERROR^
 35983
 35984					;**********
DFKAA PDP-10 KL10 BASIC INSTRUCTION DIAGNOSTIC (1) VER 0,2	MACRO %52(537) 09:34 31-JAN-77 PAGE 88
DFKAA5	MAC	25-AUG-75 14:00		TEST OF MSCL SOSX INSTRUCTIONS                                                     SEQ 0822

 35985					;THIS TEST VERIFIES THAT SOSGE DECREMENTS C(E) BY 0,,1 AND PLACES
 35986					;THE RESULT INTO E.  THE RESULT IN E IS COMPARED TO 0 AND SKIPS
 35987					;THE NEXT INSTRUCTION IF C(E) IS GREATER THAN OR EQUAL TO 0
 35988					;IF THE AC IS NON-ZERO, THE RESULT IS ALSO PLACED INTO THE AC.
 35989					;IN THIS CASE, AC=5, C(AC)=707070,,707070 AND C(E)=0,,2
 35990					;BEFORE INCREMENTING.  HENCE, SOSGE SHOULD SKIP ; AND THE
 35991					;FINAL RESULTS IN AC AND E SHOULD BE 0,,1 AND 0,,1
 35992					;RESPECTIVELY.
 35993
 35994	052700	200 05 0 00 070332 	C55620:	MOVE	5,[707070,,707070] ;PRELOAD AC WITH 707070,,707070
 35995	052701	201 06 0 00 000002 		MOVEI	6,2		;PRELOAD E WITH 0,,2
 35996	052702	375 05 0 00 000006 		SOSGE	5,6		;*SOSGE SHOULD SUBTRACT 0,,1 FROM C(E),
 35997									;UPDATE AC AND SKIP
 35998						STOP^
 35999	052703	254 04 0 00 052704 		HALT	.+1		;TEST FAILED IF PROGRAM HALTS HERE
 36000	052704	324 00 0 00 052705 		JUMPA	.+1		;IF TEST FAILS, CHANGE THIS INSTRUCTION (JUMPA .+1) TO
 36001									;JUMPA X (X IS THE ADDRESS OF THE FIRST INSTRUCTION
 36002									;IN THE SUBTEST) TO LOOP ON ERROR^
 36003	052705	312 06 0 00 070265 		CAME	6,[1]		;PASS IF E DECREMENTED CORRECTLY
 36004						STOP^
 36005	052706	254 04 0 00 052707 		HALT	.+1		;TEST FAILED IF PROGRAM HALTS HERE
 36006	052707	324 00 0 00 052710 		JUMPA	.+1		;IF TEST FAILS, CHANGE THIS INSTRUCTION (JUMPA .+1) TO
 36007									;JUMPA X (X IS THE ADDRESS OF THE FIRST INSTRUCTION
 36008									;IN THE SUBTEST) TO LOOP ON ERROR^
 36009	052710	312 05 0 00 070265 		CAME	5,[1]		;PASS IF AC WAS UPDATED IF AC NON-ZERO
 36010						STOP^
 36011	052711	254 04 0 00 052712 		HALT	.+1		;TEST FAILED IF PROGRAM HALTS HERE
 36012	052712	324 00 0 00 052713 		JUMPA	.+1		;IF TEST FAILS, CHANGE THIS INSTRUCTION (JUMPA .+1) TO
 36013									;JUMPA X (X IS THE ADDRESS OF THE FIRST INSTRUCTION
 36014									;IN THE SUBTEST) TO LOOP ON ERROR^
 36015
 36016					;**********
 36017
 36018					;THIS TEST VERIFIES SOSN DECREMENTS C(E) BY 0,,1 AND PLACES
 36019					;THE RESULT INTO E.  THE RESULT IN E IS COMPARED TO 0 AND SKIPS
 36020					;THE NEXT INSTRUCTION IF C(E) IS NON-ZERO
 36021					;IF THE AC IS NON-ZERO, THE RESULT IS ALSO PLACED INTO THE AC.
 36022					;IN THIS CASE, AC=4, C(AC)=707070,,707070 AND C(E)=0
 36023					;BEFORE INCREMENTING.  HENCE, SOSN SHOULD SKIP ; AND THE
 36024					;FINAL RESULTS IN AC AND E SHOULD BE -1,,-1 AND -1,,-1
 36025					;RESPECTIVELY.
 36026
 36027	052713	200 04 0 00 070332 	C55700:	MOVE	4,[707070,,707070]  ;PRELOAD AC WITH 707070,,707070
 36028	052714	201 05 0 00 000000 		MOVEI	5,0		;PRELOAD E WITH 0
 36029	052715	376 04 0 00 000005 		SOSN	4,5		;*SOSN SHOULD SUBTRACT 0,,1 FROM C(E),
 36030									;UPDATE AC AND SKIP
 36031						STOP^
 36032	052716	254 04 0 00 052717 		HALT	.+1		;TEST FAILED IF PROGRAM HALTS HERE
 36033	052717	324 00 0 00 052720 		JUMPA	.+1		;IF TEST FAILS, CHANGE THIS INSTRUCTION (JUMPA .+1) TO
 36034									;JUMPA X (X IS THE ADDRESS OF THE FIRST INSTRUCTION
 36035									;IN THE SUBTEST) TO LOOP ON ERROR^
 36036	052720	312 05 0 00 070254 		CAME	5,[-1]		;PASS IF E DECREMENTED CORRECTLY
 36037						STOP^
 36038	052721	254 04 0 00 052722 		HALT	.+1		;TEST FAILED IF PROGRAM HALTS HERE
 36039	052722	324 00 0 00 052723 		JUMPA	.+1		;IF TEST FAILS, CHANGE THIS INSTRUCTION (JUMPA .+1) TO
DFKAA PDP-10 KL10 BASIC INSTRUCTION DIAGNOSTIC (1) VER 0,2	MACRO %52(537) 09:34 31-JAN-77 PAGE 88-1
DFKAA5	MAC	25-AUG-75 14:00		TEST OF MSCL SOSX INSTRUCTIONS                                                     SEQ 0823

 36040									;JUMPA X (X IS THE ADDRESS OF THE FIRST INSTRUCTION
 36041									;IN THE SUBTEST) TO LOOP ON ERROR^
 36042	052723	312 04 0 00 070254 		CAME	4,[-1]		;PASS IF AC WAS UPDATED IF AC NON-ZERO
 36043						STOP^
 36044	052724	254 04 0 00 052725 		HALT	.+1		;TEST FAILED IF PROGRAM HALTS HERE
 36045	052725	324 00 0 00 052726 		JUMPA	.+1		;IF TEST FAILS, CHANGE THIS INSTRUCTION (JUMPA .+1) TO
 36046									;JUMPA X (X IS THE ADDRESS OF THE FIRST INSTRUCTION
 36047									;IN THE SUBTEST) TO LOOP ON ERROR^
 36048
 36049					;**********
DFKAA PDP-10 KL10 BASIC INSTRUCTION DIAGNOSTIC (1) VER 0,2	MACRO %52(537) 09:34 31-JAN-77 PAGE 89
DFKAA5	MAC	25-AUG-75 14:00		TEST OF MSCL SOSX INSTRUCTIONS                                                     SEQ 0824

 36050					;THIS TEST VERIFIES THAT SOSN DECREMENTS C(E) BY 0,,1 AND PLACES
 36051					;THE RESULT INTO E.  THE RESULT IN E IS COMPARED TO 0 AND SKIPS
 36052					;THE NEXT INSTRUCTION IF C(E) IS NON-ZERO
 36053					;IF THE AC IS NON-ZERO, THE RESULT IS ALSO PLACED INTO THE AC
 36054					;IN THIS CASE, AC=4, C(AC)=707070,,707070 AND C(E)=0,,1
 36055					;BEFORE INCREMENTING.  HENCE, SOSN SHOULD NOT SKIP ; AND THE
 36056					;FINAL RESULTS IN AC AND E SHOULD BE 0 AND 0
 36057					;RESPECTIVELY.
 36058
 36059	052726	200 04 0 00 070332 	C55710:	MOVE	4,[707070,,707070]  ;PRELOAD AC WITH 707070,,707070
 36060	052727	201 05 0 00 000001 		MOVEI	5,1		;PRELOAD E WITH 0,,1
 36061	052730	376 04 0 00 000005 		SOSN	4,5		;*SOSN SHOULD SUBTRACT 0,,1 FROM C(E),
 36062									;UPDATE AC AND NOT SKIP
 36063	052731	334 00 0 00 000000 		SKIPA			;PASS IF SOSN DID NOT SKIP
 36064						STOP^
 36065	052732	254 04 0 00 052733 		HALT	.+1		;TEST FAILED IF PROGRAM HALTS HERE
 36066	052733	324 00 0 00 052734 		JUMPA	.+1		;IF TEST FAILS, CHANGE THIS INSTRUCTION (JUMPA .+1) TO
 36067									;JUMPA X (X IS THE ADDRESS OF THE FIRST INSTRUCTION
 36068									;IN THE SUBTEST) TO LOOP ON ERROR^
 36069	052734	312 05 0 00 070253 		CAME	5,[0]		;PASS IF E DECREMENTED CORRECTLY
 36070						STOP^
 36071	052735	254 04 0 00 052736 		HALT	.+1		;TEST FAILED IF PROGRAM HALTS HERE
 36072	052736	324 00 0 00 052737 		JUMPA	.+1		;IF TEST FAILS, CHANGE THIS INSTRUCTION (JUMPA .+1) TO
 36073									;JUMPA X (X IS THE ADDRESS OF THE FIRST INSTRUCTION
 36074									;IN THE SUBTEST) TO LOOP ON ERROR^
 36075	052737	312 04 0 00 070253 		CAME	4,[0]		;PASS IF AC WAS UPDATED IF AC NON-ZERO
 36076						STOP^
 36077	052740	254 04 0 00 052741 		HALT	.+1		;TEST FAILED IF PROGRAM HALTS HERE
 36078	052741	324 00 0 00 052742 		JUMPA	.+1		;IF TEST FAILS, CHANGE THIS INSTRUCTION (JUMPA .+1) TO
 36079									;JUMPA X (X IS THE ADDRESS OF THE FIRST INSTRUCTION
 36080									;IN THE SUBTEST) TO LOOP ON ERROR^
 36081
 36082					;**********
 36083
 36084					;THIS TEST VERIFIES THAT SOSN DECREMENTS C(E) BY 0,,1 AND PLACES
 36085					;THE RESULT INTO E.  THE RESULT IN E IS COMPARED TO 0 AND SKIPS
 36086					;THE NEXT INSTRUCTION IF C(E) IS NON-ZERO
 36087					;IF THE AC IS NON-ZERO, THE RESULT IS ALSO PLACED INTO THE AC.
 36088					;INtTHIS CASE, AC=4, C(AC)=707070,,707070 AND C(E)=0,,2
 36089					;BEFORE INCREMENTING.  HENCE, SOSN SHOULD SKIP ; AND THE
 36090					;FINAL RESULTS IN AC AND E SHOULD BE 0,,1 AND 0,,1
 36091					;RESPECTIVELY
 36092
 36093	052742	200 04 0 00 070332 	C55720:	MOVE	4,[707070,,707070]  ;PRELOAD AC WITH 707070,,707070
 36094	052743	201 05 0 00 000002 		MOVEI	5,2		;PRELOAD E WITH 0,,2
 36095	052744	376 04 0 00 000005 		SOSN	4,5		;*SOSN SHOULD SUBTRACT 0,,1 FROM C(E),
 36096									;UPDATE AC AND SKIP
 36097						STOP^
 36098	052745	254 04 0 00 052746 		HALT	.+1		;TEST FAILED IF PROGRAM HALTS HERE
 36099	052746	324 00 0 00 052747 		JUMPA	.+1		;IF TEST FAILS, CHANGE THIS INSTRUCTION (JUMPA .+1) TO
 36100									;JUMPA X (X IS THE ADDRESS OF THE FIRST INSTRUCTION
 36101									;IN THE SUBTEST) TO LOOP ON ERROR^
 36102	052747	312 05 0 00 070265 		CAME	5,[1]		;PASS IF E DECREMENTED CORRECTLY
 36103						STOP^
 36104	052750	254 04 0 00 052751 		HALT	.+1		;TEST FAILED IF PROGRAM HALTS HERE
DFKAA PDP-10 KL10 BASIC INSTRUCTION DIAGNOSTIC (1) VER 0,2	MACRO %52(537) 09:34 31-JAN-77 PAGE 89-1
DFKAA5	MAC	25-AUG-75 14:00		TEST OF MSCL SOSX INSTRUCTIONS                                                     SEQ 0825

 36105	052751	324 00 0 00 052752 		JUMPA	.+1		;IF TEST FAILS, CHANGE THIS INSTRUCTION (JUMPA .+1) TO
 36106									;JUMPA X (X IS THE ADDRESS OF THE FIRST INSTRUCTION
 36107									;IN THE SUBTEST) TO LOOP ON ERROR^
 36108	052752	312 04 0 00 070265 		CAME	4,[1]		;PASS IF ACWAS UPDATED IF AC NON-ZERO
 36109						STOP^
 36110	052753	254 04 0 00 052754 		HALT	.+1		;TEST FAILED IF PROGRAM HALTS HERE
 36111	052754	324 00 0 00 052755 		JUMPA	.+1		;IF TEST FAILS, CHANGE THIS INSTRUCTION (JUMPA .+1) TO
 36112									;JUMPA X (X IS THE ADDRESS OF THE FIRST INSTRUCTION
 36113									;IN THE SUBTEST) TO LOOP ON ERROR^
 36114
 36115					;**********
DFKAA PDP-10 KL10 BASIC INSTRUCTION DIAGNOSTIC (1) VER 0,2	MACRO %52(537) 09:34 31-JAN-77 PAGE 90
DFKAA5	MAC	25-AUG-75 14:00		TEST OF MSCL SOSX INSTRUCTIONS                                                     SEQ 0826

 36116					;THIS TEST VERIFIESTHAT SOSG DECREMENTS C(E) BY 0,,1 AND PLACES
 36117					;THE RESULT INTO E.  THE RESULT IN E IS COMPARED TO 0 AND SKIPS
 36118					;THE NEXT INSTRUCTION IF C(E) IS GREATER THAN 0
 36119					;IF THE AC IS NON-ZERO, THE RESULT IS ALSO PLACED INTO THE AC.
 36120					;IN THIS CASE, AC=3, C(AC)=707070,,707070 AND C(E)=0
 36121					;BEFORE INCREMENTING.  HENCE, SOSG SHOULD NOT SKIP ; AND THE
 36122					;FINAL RESULTS IN AC AND E SHOULD BE -1,,-1 AND -1,,-1
 36123					;RESPECTIVELY.
 36124
 36125	052755	200 03 0 00 070332 	C56000:	MOVE	3,[707070,,707070]  ;PRELOAD AC WITH 707070,,707070
 36126	052756	201 04 0 00 000000 		MOVEI	4,0		;PRELOAD E WITH 0
 36127	052757	377 03 0 00 000004 		SOSG	3,4		;*SOSG SHOULD SUBTRACT 0,,1 FROM C(E),
 36128									;UPDATE AC AND NOT SKIP
 36129	052760	334 00 0 00 000000 		SKIPA			;PASS IF SOSG DID NOT SKIP
 36130						STOP^
 36131	052761	254 04 0 00 052762 		HALT	.+1		;TEST FAILED IF PROGRAM HALTS HERE
 36132	052762	324 00 0 00 052763 		JUMPA	.+1		;IF TEST FAILS, CHANGE THIS INSTRUCTION (JUMPA .+1) TO
 36133									;JUMPA X (X IS THE ADDRESS OF THE FIRST INSTRUCTION
 36134									;IN THE SUBTEST) TO LOOP ON ERROR^
 36135	052763	312 04 0 00 070254 		CAME	4,[-1]		;PASS IF E DECREMENTED CORRECTLY
 36136						STOP^
 36137	052764	254 04 0 00 052765 		HALT	.+1		;TEST FAILED IF PROGRAM HALTS HERE
 36138	052765	324 00 0 00 052766 		JUMPA	.+1		;IF TEST FAILS, CHANGE THIS INSTRUCTION (JUMPA .+1) TO
 36139									;JUMPA X (X IS THE ADDRESS OF THE FIRST INSTRUCTION
 36140									;IN THE SUBTEST) TO LOOP ON ERROR^
 36141	052766	312 03 0 00 070254 		CAME	3,[-1]		;PASS IF AC WAS UPDATED IF AC NON-ZERO
 36142						STOP^
 36143	052767	254 04 0 00 052770 		HALT	.+1		;TEST FAILED IF PROGRAM HALTS HERE
 36144	052770	324 00 0 00 052771 		JUMPA	.+1		;IF TEST FAILS, CHANGE THIS INSTRUCTION (JUMPA .+1) TO
 36145									;JUMPA X (X IS THE ADDRESS OF THE FIRST INSTRUCTION
 36146									;IN THE SUBTEST) TO LOOP ON ERROR^
 36147
 36148					;**********
 36149
 36150					;THIS TEST VERIFIES THAT SOSG DECREMENTS C(E) BY 0,,1 AND PLACES
 36151					;THE RESULT INTO E.  THE RESULT IN E IS COMPARED TO 0 AND SKIPS
 36152					;THE NEXT INSTRUCTION IF C(E) IS GREATER THAN 0.
 36153					;IF THE AC IS NON-ZERO, THE RESULT IS ALSO PLACED INTO THE AC.
 36154					;IN THIS CASE, AC=3, C(AC)=707070,,707070 AND C(E)=0,,1
 36155					;BEFORE INCREMENTING.  HENCE, SOSG SHOULD NOT SKIP ; AND THE
 36156					;FINAL RESULTS IN AC AND E SHOULD BE 0 AND 0
 36157					;RESPECTIVELY.
 36158
 36159	052771	200 03 0 00 070332 	C56010:	MOVE	3,[707070,,707070]  ;PRELOAD AC WITH 707070,,707070
 36160	052772	201 04 0 00 000001 		MOVEI	4,1		;PRELOAD E WITH 0,,1
 36161	052773	377 03 0 00 000004 		SOSG	3,4		;*SOSG SHOULD SUBTRACT 0,,1 FROM C(E),
 36162									;UPDATE AC AND NOT SKIP
 36163	052774	334 00 0 00 000000 		SKIPA			;PASS IF SOSG DID NOT SKIP
 36164						STOP^
 36165	052775	254 04 0 00 052776 		HALT	.+1		;TEST FAILED IF PROGRAM HALTS HERE
 36166	052776	324 00 0 00 052777 		JUMPA	.+1		;IF TEST FAILS, CHANGE THIS INSTRUCTION (JUMPA .+1) TO
 36167									;JUMPA X (X IS THE ADDRESS OF THE FIRST INSTRUCTION
 36168									;IN THE SUBTEST) TO LOOP ON ERROR^
 36169	052777	312 04 0 00 070253 		CAME	4,[0]		;PASS IF E DECREMENTED CORRECTLY
 36170						STOP^
DFKAA PDP-10 KL10 BASIC INSTRUCTION DIAGNOSTIC (1) VER 0,2	MACRO %52(537) 09:34 31-JAN-77 PAGE 90-1
DFKAA5	MAC	25-AUG-75 14:00		TEST OF MSCL SOSX INSTRUCTIONS                                                     SEQ 0827

 36171	053000	254 04 0 00 053001 		HALT	.+1		;TEST FAILED IF PROGRAM HALTS HERE
 36172	053001	324 00 0 00 053002 		JUMPA	.+1		;IF TEST FAILS, CHANGE THIS INSTRUCTION (JUMPA .+1) TO
 36173									;JUMPA X (X IS THE ADDRESS OF THE FIRST INSTRUCTION
 36174									;IN THE SUBTEST) TO LOOP ON ERROR^
 36175	053002	312 03 0 00 070253 		CAME	3,[0]		;PASS IF AC WAS UPDATED IS AC NON-ZERO
 36176						STOP^
 36177	053003	254 04 0 00 053004 		HALT	.+1		;TEST FAILED IF PROGRAM HALTS HERE
 36178	053004	324 00 0 00 053005 		JUMPA	.+1		;IF TEST FAILS, CHANGE THIS INSTRUCTION (JUMPA .+1) TO
 36179									;JUMPA X (X IS THE ADDRESS OF THE FIRST INSTRUCTION
 36180									;IN THE SUBTEST) TO LOOP ON ERROR^
 36181
 36182					;**********
DFKAA PDP-10 KL10 BASIC INSTRUCTION DIAGNOSTIC (1) VER 0,2	MACRO %52(537) 09:34 31-JAN-77 PAGE 91
DFKAA5	MAC	25-AUG-75 14:00		TEST OF MSCL SOSX INSTRUCTIONS                                                     SEQ 0828

 36183					;THIS TEST VERIFIES THAT SOSG DECREMENTS C(E) BY 0,,1 AND PLACES
 36184					;THE RESULT INTO E.  THE RESULT IN E IS COMPARED TO 0 AND SKIPS
 36185					;THE NEXT INSTRUCTION IF C(E) IS GREATER THAN 0
 36186					;IF THE AC IS NON-ZERO, THE RESULT IS ALSO PLACED INTO THE AC.
 36187					;IN THIS CASE, AC=3, C(AC)=707070,,707070 AND C(E)=0,,2
 36188					;BEFORE INCREMENTING.  HENCE, SOSG SHOULD SKIP ; AND THE
 36189					;FINAL RESULTS IN AC AND E SHOULD BE 0,,1 AND 011,
 36190					;RESPECTIVELY.
 36191
 36192	053005	200 03 0 00 070332 	C56020:	MOVE	3,[707070,,707070]  ;PRELOAD AC WITH 707070,,707070
 36193	053006	201 04 0 00 000002 		MOVEI	4,2		;PRELOAD E WITH 0,,2
 36194	053007	377 03 0 00 000004 		SOSG	3,4		;*SOSG SHOULD SUBTRACT 0,,1 FROM C(E),
 36195									;UPDATE AC AND SKIP
 36196						STOP^
 36197	053010	254 04 0 00 053011 		HALT	.+1		;TEST FAILED IF PROGRAM HALTS HERE
 36198	053011	324 00 0 00 053012 		JUMPA	.+1		;IF TEST FAILS, CHANGE THIS INSTRUCTION (JUMPA .+1) TO
 36199									;JUMPA X (X IS THE ADDRESS OF THE FIRST INSTRUCTION
 36200									;IN THE SUBTEST) TO LOOP ON ERROR^
 36201	053012	312 04 0 00 070265 		CAME	4,[1]		;PASS IF E DECREMENTED CORRECTLY
 36202						STOP^
 36203	053013	254 04 0 00 053014 		HALT	.+1		;TEST FAILED IF PROGRAM HALTS HERE
 36204	053014	324 00 0 00 053015 		JUMPA	.+1		;IF TEST FAILS, CHANGE THIS INSTRUCTION (JUMPA .+1) TO
 36205									;JUMPA X (X IS THE ADDRESS OF THE FIRST INSTRUCTION
 36206									;IN THE SUBTEST) TO LOOP ON ERROR^
 36207	053015	312 03 0 00 070265 		CAME	3,[1]		;PASS IF AC WAS UPDATED IF AC NON-ZERO
 36208						STOP^
 36209	053016	254 04 0 00 053017 		HALT	.+1		;TEST FAILED IF PROGRAM HALTS HERE
 36210	053017	324 00 0 00 053020 		JUMPA	.+1		;IF TEST FAILS, CHANGE THIS INSTRUCTION (JUMPA .+1) TO
 36211									;JUMPA X (X IS THE ADDRESS OF THE FIRST INSTRUCTION
 36212									;IN THE SUBTEST) TO LOOP ON ERROR^
 36213
 36214					;**********
DFKAA PDP-10 KL10 BASIC INSTRUCTION DIAGNOSTIC (1) VER 0,2	MACRO %52(537) 09:34 31-JAN-77 PAGE 1
DFKAA6	MAC	25-AUG-75 14:01		TEST OF MSCL BOOLEAN INSTRUCTIONS                                                  SEQ 0829

 36215					SUBTTL	TEST OF MSCL BOOLEAN INSTRUCTIONS
 36216
 36217					;**********
 36218
 36219					;THIS TEST VERIFIES THAT SETZI CLEARS THE AC AND DOES NOT AFFECT E.
 36220					;FIRST, AC AND E ARE PRELOADED WITH -1,,-1, THEN, SETZI IS EXECUTED.
 36221					;AC IS THEN CHECKED FOR 0 AND E IS CHECKED FOR -1,,-1
 36222
 36223	053020	474 01 0 00 000000 	C56100:	SETO	1,		;PRELOAD AC WITH -1,,-1
 36224	053021	474 02 0 00 000000 		SETO	2,		;PRELOAD E WITH -1,,-1
 36225	053022	401 01 0 00 000002 		SETZI	1,2		;*SETZI SHOULD CLEAR THE AC
 36226	053023	332 00 0 00 000001 		SKIPE	1		;PASS IF C(AC)=0
 36227						STOP^
 36228	053024	254 04 0 00 053025 		HALT	.+1		;TEST FAILED IF PROGRAM HALTS HERE
 36229	053025	324 00 0 00 053026 		JUMPA	.+1		;IF TEST FAILS, CHANGE THIS INSTRUCTION (JUMPA .+1) TO
 36230									;JUMPA X (X IS THE ADDRESS OF THE FIRST INSTRUCTION
 36231									;IN THE SUBTEST) TO LOOP ON ERROR^
 36232	053026	312 02 0 00 070254 		CAME	2,[-1]		;PASS IF C(E)=-1,,-1
 36233						STOP^
 36234	053027	254 04 0 00 053030 		HALT	.+1		;TEST FAILED IF PROGRAM HALTS HERE
 36235	053030	324 00 0 00 053031 		JUMPA	.+1		;IF TEST FAILS, CHANGE THIS INSTRUCTION (JUMPA .+1) TO
 36236									;JUMPA X (X IS THE ADDRESS OF THE FIRST INSTRUCTION
 36237									;IN THE SUBTEST) TO LOOP ON ERROR^
 36238
 36239					;**********
 36240
 36241					;THIS TEST VERIFIES THAT SETZM CLEARS C(E) AND DOES NOT AFFECT C(AC)
 36242					;FIRST, AC AND E ARE PRELOADED WITH -1,,-1; THEN SETZM IS EXECUTED.
 36243					;AC IS THEN CHECKED FOR -1,,-1 AND E IS CHECKED FOR 0.
 36244
 36245	053031	474 01 0 00 000000 	C56200:	SETO	1,		;PRELOAD AC WITH -1,,-1
 36246	053032	474 02 0 00 000000 		SETO	2,		;PRELOAD E WITH -1,,-1
 36247	053033	402 01 0 00 000002 		SETZM	1,2		;*SETZM SHOULD CLEAR E
 36248	053034	312 01 0 00 070254 		CAME	1,[-1]		;PASS IF C(AC)=-1,,-1
 36249						STOP^
 36250	053035	254 04 0 00 053036 		HALT	.+1		;TEST FAILED IF PROGRAM HALTS HERE
 36251	053036	324 00 0 00 053037 		JUMPA	.+1		;IF TEST FAILS, CHANGE THIS INSTRUCTION (JUMPA .+1) TO
 36252									;JUMPA X (X IS THE ADDRESS OF THE FIRST INSTRUCTION
 36253									;IN THE SUBTEST) TO LOOP ON ERROR^
 36254	053037	332 00 0 00 000002 		SKIPE	2		;PASS IF C(E)=0
 36255						STOP^
 36256	053040	254 04 0 00 053041 		HALT	.+1		;TEST FAILED IF PROGRAM HALTS HERE
 36257	053041	324 00 0 00 053042 		JUMPA	.+1		;IF TEST FAILS, CHANGE THIS INSTRUCTION (JUMPA .+1) TO
 36258									;JUMPA X (X IS THE ADDRESS OF THE FIRST INSTRUCTION
 36259									;IN THE SUBTEST) TO LOOP ON ERROR^
 36260
 36261					;**********
DFKAA PDP-10 KL10 BASIC INSTRUCTION DIAGNOSTIC (1) VER 0,2	MACRO %52(537) 09:34 31-JAN-77 PAGE 2
DFKAA6	MAC	25-AUG-75 14:01		TEST OF MSCL BOOLEAN INSTRUCTIONS                                                  SEQ 0830

 36262					;THIS TEST VERIFIES THAT SETOI PLACES ALL ONES INTO THE AC.
 36263					;FIRST, THE AC AND E ARE CLEARED; THEN, SETOI IS EXECUTED.
 36264					;AC AND E ARE CHECKED FOR -1,,-1 AND 0 RESPECTIVELY
 36265
 36266	053042	403 01 0 00 000002 	C56300:	SETZB	1,2		;CLEAR AC,E
 36267	053043	475 01 0 00 000002 		SETOI	1,2		;*SETOI SHOULD PLACE -1,,-1 INTO THE AC
 36268	053044	312 01 0 00 070254 		CAME	1,[-1]		;PASS IF C(AC)=-1,,-1
 36269						STOP^
 36270	053045	254 04 0 00 053046 		HALT	.+1		;TEST FAILED IF PROGRAM HALTS HERE
 36271	053046	324 00 0 00 053047 		JUMPA	.+1		;IF TEST FAILS, CHANGE THIS INSTRUCTION (JUMPA .+1) TO
 36272									;JUMPA X (X IS THE ADDRESS OF THE FIRST INSTRUCTION
 36273									;IN THE SUBTEST) TO LOOP ON ERROR^
 36274	053047	332 00 0 00 000002 		SKIPE	2		;PASS IF C(E)=0
 36275						STOP^
 36276	053050	254 04 0 00 053051 		HALT	.+1		;TEST FAILED IF PROGRAM HALTS HERE
 36277	053051	324 00 0 00 053052 		JUMPA	.+1		;IF TEST FAILS, CHANGE THIS INSTRUCTION (JUMPA .+1) TO
 36278									;JUMPA X (X IS THE ADDRESS OF THE FIRST INSTRUCTION
 36279									;IN THE SUBTEST) TO LOOP ON ERROR^
 36280
 36281					;**********
 36282
 36283					;THIS TEST VERIFIES THAT SETOM PLACES ALL ONES INTO E
 36284					;FIRST, THE AC AND E ARE CLEARED, THEN SETOM IS EXECUTED.
 36285					;AC AND E ARE THEN CHECKED FOR 0 AND -1,,-1 RESPECTIVELY.
 36286
 36287	053052	403 01 0 00 000002 	C56400:	SETZB	1,2		;CLEAR AC,E
 36288	053053	476 01 0 00 000002 		SETOM	1,2		;*SETOM SHOULD PLACE -1,,-1 INTO E
 36289	053054	332 00 0 00 000001 		SKIPE	1		;PASS IF C(AC)=0
 36290						STOP^
 36291	053055	254 04 0 00 053056 		HALT	.+1		;TEST FAILED IF PROGRAM HALTS HERE
 36292	053056	324 00 0 00 053057 		JUMPA	.+1		;IF TEST FAILS, CHANGE THIS INSTRUCTION (JUMPA .+1) TO
 36293									;JUMPA X (X IS THE ADDRESS OF THE FIRST INSTRUCTION
 36294									;IN THE SUBTEST) TO LOOP ON ERROR^
 36295	053057	312 02 0 00 070254 		CAME	2,[-1]		;PASS IF C(E)=-1,,-1
 36296						STOP^
 36297	053060	254 04 0 00 053061 		HALT	.+1		;TEST FAILED IF PROGRAM HALTS HERE
 36298	053061	324 00 0 00 053062 		JUMPA	.+1		;IF TEST FAILS, CHANGE THIS INSTRUCTION (JUMPA .+1) TO
 36299									;JUMPA X (X IS THE ADDRESS OF THE FIRST INSTRUCTION
 36300									;IN THE SUBTEST) TO LOOP ON ERROR^
 36301
 36302					;**********
DFKAA PDP-10 KL10 BASIC INSTRUCTION DIAGNOSTIC (1) VER 0,2	MACRO %52(537) 09:34 31-JAN-77 PAGE 3
DFKAA6	MAC	25-AUG-75 14:01		TEST OF MSCL BOOLEAN INSTRUCTIONS                                                  SEQ 0831

 36303					;THIS TEST VERIFIES THAT SETOB PLACES ALL ONES INTO BOTH AC AND E.
 36304					;FIRST, BOTH AC AND E ARE CLEARED; THEN, SETOB IS EXECUTED.
 36305					;AC AND E ARE BOTH CHECKED FOR -1,,-1
 36306
 36307	053062	403 01 0 00 000002 	C56500:	SETZB	1,2		;CLEAR AC,E
 36308	053063	477 01 0 00 000002 		SETOB	1,2		;*SETOB SHOULD PUT -1,,-1 INTO BOTH AC AND E
 36309	053064	312 01 0 00 070254 		CAME	1,[-1]		;PASS IF C(AC)=-1,,-1
 36310						STOP^
 36311	053065	254 04 0 00 053066 		HALT	.+1		;TEST FAILED IF PROGRAM HALTS HERE
 36312	053066	324 00 0 00 053067 		JUMPA	.+1		;IF TEST FAILS, CHANGE THIS INSTRUCTION (JUMPA .+1) TO
 36313									;JUMPA X (X IS THE ADDRESS OF THE FIRST INSTRUCTION
 36314									;IN THE SUBTEST) TO LOOP ON ERROR^
 36315	053067	312 02 0 00 070254 		CAME	2,[-1]		;PASS IF C(E)=-1,,-1
 36316						STOP^
 36317	053070	254 04 0 00 053071 		HALT	.+1		;TEST FAILED IF PROGRAM HALTS HERE
 36318	053071	324 00 0 00 053072 		JUMPA	.+1		;IF TEST FAILS, CHANGE THIS INSTRUCTION (JUMPA .+1) TO
 36319									;JUMPA X (X IS THE ADDRESS OF THE FIRST INSTRUCTION
 36320									;IN THE SUBTEST) TO LOOP ON ERROR^
 36321
 36322					;**********
 36323
 36324					;THIS TEST VERIFIES THAT ANDI PLACES THE LOGICAL AND FUNCTION
 36325					;OF C(AC) AND 0,,E INTO THE AC.
 36326					;IN THIS CASE, C(AC)=777000,,707070 AND E=0,,123123.
 36327					;HENCE, THE RESULT IN THE AC SHOULD BE 0,,103103
 36328
 36329	053072	200 01 0 00 070640 	C56600:	MOVE	1,[777000,,707070]	;PRELOAD AC WITH 777000,,707070
 36330	053073	405 01 0 00 123123 		ANDI	1,123123	;*ANDI SHOULD PLACE 0,,103103 INTO THE AC
 36331	053074	302 01 0 00 103020 		CAIE	1,103020	;PASS IF C(AC)=103103
 36332						STOP^
 36333	053075	254 04 0 00 053076 		HALT	.+1		;TEST FAILED IF PROGRAM HALTS HERE
 36334	053076	324 00 0 00 053077 		JUMPA	.+1		;IF TEST FAILS, CHANGE THIS INSTRUCTION (JUMPA .+1) TO
 36335									;JUMPA X (X IS THE ADDRESS OF THE FIRST INSTRUCTION
 36336									;IN THE SUBTEST) TO LOOP ON ERROR^
 36337
 36338					;**********
DFKAA PDP-10 KL10 BASIC INSTRUCTION DIAGNOSTIC (1) VER 0,2	MACRO %52(537) 09:34 31-JAN-77 PAGE 4
DFKAA6	MAC	25-AUG-75 14:01		TEST OF MSCL BOOLEAN INSTRUCTIONS                                                  SEQ 0832

 36339					;THIS TEST VERIFIES THAT ANDM PLACES THE LOGICAL AND FUNCTION OF
 36340					;C(AC) AND C(E) INTO E.
 36341					;IN THIS CASE, C(AC)=777000,,000777 AND C(E)=123456,,123456.
 36342					;HENCE, THE RESULTS IN AC AND E SHOULD BE 777000,,000777 AND
 36343					;123000,,00456 RESPECTIVELY
 36344
 36345	053077	200 01 0 00 070641 	C56700:	MOVE	1,[777000,,777]	;PRELOAD E WITH 777000,,000777
 36346	053100	200 02 0 00 070637 		MOVE	2,[123456,,123456]	;PRELOAD AC WITH 123456,,123456
 36347	053101	406 02 0 00 000001 		ANDM	2,1		;*ANDM SHOULD PLACE 123000,,000456 INTO E
 36348	053102	312 02 0 00 070637 		CAME	2,[123456,,123456]	;PASS IF C(AC) NOT MODIFIED
 36349						STOP^
 36350	053103	254 04 0 00 053104 		HALT	.+1		;TEST FAILED IF PROGRAM HALTS HERE
 36351	053104	324 00 0 00 053105 		JUMPA	.+1		;IF TEST FAILS, CHANGE THIS INSTRUCTION (JUMPA .+1) TO
 36352									;JUMPA X (X IS THE ADDRESS OF THE FIRST INSTRUCTION
 36353									;IN THE SUBTEST) TO LOOP ON ERROR^
 36354	053105	312 01 0 00 070642 		CAME	1,[123000,,000456]	;PASS IF C(E)=123000,,000456
 36355						STOP^
 36356	053106	254 04 0 00 053107 		HALT	.+1		;TEST FAILED IF PROGRAM HALTS HERE
 36357	053107	324 00 0 00 053110 		JUMPA	.+1		;IF TEST FAILS, CHANGE THIS INSTRUCTION (JUMPA .+1) TO
 36358									;JUMPA X (X IS THE ADDRESS OF THE FIRST INSTRUCTION
 36359									;IN THE SUBTEST) TO LOOP ON ERROR^
 36360
 36361					;**********
 36362
 36363					;THIS TEST VERIFIES THAT ANDM PLACES THE LOGICAL AND FUNCTION OF
 36364					;C(AC) AND C(E) INTO E.
 36365					;IN THIS CASE, C(AC)=777000,,000777 AND C(E)=123456,,123456.
 36366					;HENCE, THE RESULTS IN AC AND E SHOULD BE 777000,,000777 AND
 36367					;123000,,00456 RESPECTIVELY
 36368
 36369	053110	200 01 0 00 070641 	C56701:	MOVE	1,[777000,,777]	;PRELOAD E WITH 777000,,000777
 36370	053111	202 01 0 00 053124 		MOVEM	1,E56701
 36371	053112	200 02 0 00 070637 		MOVE	2,[123456,,123456]	;PRELOAD AC WITH 123456,,123456
 36372	053113	406 02 0 00 053124 		ANDM	2,E56701	;*ANDM SHOULD PLACE 123000,,000456 INTO E
 36373	053114	312 02 0 00 070637 		CAME	2,[123456,,123456]	;PASS IF C(AC) NOT MODIFIED
 36374						STOP^
 36375	053115	254 04 0 00 053116 		HALT	.+1		;TEST FAILED IF PROGRAM HALTS HERE
 36376	053116	324 00 0 00 053117 		JUMPA	.+1		;IF TEST FAILS, CHANGE THIS INSTRUCTION (JUMPA .+1) TO
 36377									;JUMPA X (X IS THE ADDRESS OF THE FIRST INSTRUCTION
 36378									;IN THE SUBTEST) TO LOOP ON ERROR^
 36379	053117	200 01 0 00 053124 		MOVE	1,E56701
 36380	053120	312 01 0 00 070642 		CAME	1,[123000,,000456]	;PASS IF C(E)=123000,,000456
 36381						STOP^
 36382	053121	254 04 0 00 053122 		HALT	.+1		;TEST FAILED IF PROGRAM HALTS HERE
 36383	053122	324 00 0 00 053123 		JUMPA	.+1		;IF TEST FAILS, CHANGE THIS INSTRUCTION (JUMPA .+1) TO
 36384									;JUMPA X (X IS THE ADDRESS OF THE FIRST INSTRUCTION
 36385									;IN THE SUBTEST) TO LOOP ON ERROR^
 36386
 36387	053123	334 00 0 00 000000 		SKIPA				;GO TO NEXT TEST
 36388	053124	000000	000000		E56701:	0				;TEST WORD MEMORY
 36389
 36390					;**********
DFKAA PDP-10 KL10 BASIC INSTRUCTION DIAGNOSTIC (1) VER 0,2	MACRO %52(537) 09:34 31-JAN-77 PAGE 5
DFKAA6	MAC	25-AUG-75 14:01		TEST OF MSCL BOOLEAN INSTRUCTIONS                                                  SEQ 0833

 36391					;THIS TEST VERIFIES THAT ANDCB PLACES THE LOGICAL AND FUNCTION OF
 36392					;C(AC) AND C(E) INTO BOTH AC AND E
 36393					;IN THIS CASE, C(AC)=-1,,0 AND C(E)=121212,,-1
 36394					;HENCE, THE RESULT IN BOTH AC AND E SHOULD BE 121212,,0,
 36395
 36396	053125	561 03 0 00 000000 	C57000:	HRROI	3,0		;PRELOAD AC WITH -1,,0
 36397	053126	525 06 0 00 121212 		HRLOI	6,121212	;PRELOAD E WITH 121212,,-1
 36398	053127	407 03 0 00 000006 		ANDB	3,6		;*ANDB SHOULD PLACE 121212,,0 INTO BOTH AC AND E
 36399	053130	312 03 0 00 070643 		CAME	3,[121212,,0]	;PASS IF C(AC)=121212,,0
 36400						STOP^
 36401	053131	254 04 0 00 053132 		HALT	.+1		;TEST FAILED IF PROGRAM HALTS HERE
 36402	053132	324 00 0 00 053133 		JUMPA	.+1		;IF TEST FAILS, CHANGE THIS INSTRUCTION (JUMPA .+1) TO
 36403									;JUMPA X (X IS THE ADDRESS OF THE FIRST INSTRUCTION
 36404									;IN THE SUBTEST) TO LOOP ON ERROR^
 36405	053133	312 06 0 00 070643 		CAME	6,[121212,,0]	;PASS IF C(E)=121212,,0
 36406						STOP^
 36407	053134	254 04 0 00 053135 		HALT	.+1		;TEST FAILED IF PROGRAM HALTS HERE
 36408	053135	324 00 0 00 053136 		JUMPA	.+1		;IF TEST FAILS, CHANGE THIS INSTRUCTION (JUMPA .+1) TO
 36409									;JUMPA X (X IS THE ADDRESS OF THE FIRST INSTRUCTION
 36410									;IN THE SUBTEST) TO LOOP ON ERROR^
 36411
 36412					;**********
 36413
 36414					;THIS TEST VERIFIES THAT ANDCB PLACES THE LOGICAL AND FUNCTION OF
 36415					;C(AC) AND C(E) INTO BOTH AC AND E
 36416					;IN THIS CASE, C(AC)=-1,,0 AND C(E)=121212,,-1
 36417					;HENCE, THE RESULT IN BOTH AC AND E SHOULD BE 121212,,0,
 36418
 36419	053136	561 03 0 00 000000 	C57001:	HRROI	3,0		;PRELOAD AC WITH -1,,0
 36420	053137	525 06 0 00 121212 		HRLOI	6,121212	;PRELOAD E WITH 121212,,-1
 36421	053140	202 06 0 00 053152 		MOVEM	6,E57001
 36422	053141	407 03 0 00 053152 		ANDB	3,E57001	;*ANDB SHOULD PLACE 121212,,0 INTO BOTH AC AND E
 36423	053142	312 03 0 00 070643 		CAME	3,[121212,,0]	;PASS IF C(AC)=121212,,0
 36424						STOP^
 36425	053143	254 04 0 00 053144 		HALT	.+1		;TEST FAILED IF PROGRAM HALTS HERE
 36426	053144	324 00 0 00 053145 		JUMPA	.+1		;IF TEST FAILS, CHANGE THIS INSTRUCTION (JUMPA .+1) TO
 36427									;JUMPA X (X IS THE ADDRESS OF THE FIRST INSTRUCTION
 36428									;IN THE SUBTEST) TO LOOP ON ERROR^
 36429	053145	200 06 0 00 053152 		MOVE	6,E57001
 36430	053146	312 06 0 00 070643 		CAME	6,[121212,,0]	;PASS IF C(E)=121212,,0
 36431						STOP^
 36432	053147	254 04 0 00 053150 		HALT	.+1		;TEST FAILED IF PROGRAM HALTS HERE
 36433	053150	324 00 0 00 053151 		JUMPA	.+1		;IF TEST FAILS, CHANGE THIS INSTRUCTION (JUMPA .+1) TO
 36434									;JUMPA X (X IS THE ADDRESS OF THE FIRST INSTRUCTION
 36435									;IN THE SUBTEST) TO LOOP ON ERROR^
 36436
 36437	053151	334 00 0 00 000000 		SKIPA			;GO TO NEXT TEST
 36438	053152	000000	000000		E57001:	0			;TEST WORD MEMORY
 36439
 36440					;**********
DFKAA PDP-10 KL10 BASIC INSTRUCTION DIAGNOSTIC (1) VER 0,2	MACRO %52(537) 09:34 31-JAN-77 PAGE 6
DFKAA6	MAC	25-AUG-75 14:01		TEST OF MSCL BOOLEAN INSTRUCTIONS                                                  SEQ 0834

 36441					;THIS TEST VERIFIES THAT ANDCAI PLACES THE LOGICAL AND FUNCTION
 36442					;OF THE WORD 0,E AND THE COMPLEMENT OF C(AC) INTO THE AC
 36443					;IN THIS CASE, C(AC)=777,000,,707070 AND E=0,135246
 36444					;HENCE, THE RESULT IN THE AC SHOULD BE 0,,030206
 36445
 36446	053153	200 05 0 00 070640 	C57100:	MOVE	5,[777000,,707070]	;PRELOAD AC WITH 777000,,707070
 36447	053154	411 05 0 00 135246 		ANDCAI	5,135246	;*ANDCAI SHOULD PLACE 0,,30206 INTO THE AC
 36448	053155	302 05 0 00 030206 		CAIE	5,030206	;PASS IF C(AC)=030206
 36449						STOP^
 36450	053156	254 04 0 00 053157 		HALT	.+1		;TEST FAILED IF PROGRAM HALTS HERE
 36451	053157	324 00 0 00 053160 		JUMPA	.+1		;IF TEST FAILS, CHANGE THIS INSTRUCTION (JUMPA .+1) TO
 36452									;JUMPA X (X IS THE ADDRESS OF THE FIRST INSTRUCTION
 36453									;IN THE SUBTEST) TO LOOP ON ERROR^
 36454
 36455					;**********
 36456
 36457					;THIS TEST VERIFIES THAT ANDCAM PLACES THE LOGICAL AND FUNCTION OF
 36458					;C(E) AND THE COMPLEMENT OF C(AC) INTO E.
 36459					;IN THIS CASE, C(AC)=000767,,-1 AND C(E)=777350,,-2
 36460					;HENCE, THE RESULTS IN AC AND E SHOULD BE 000767,,-1 AND
 36461					;777010,,0 RESPECTIVELY.
 36462
 36463	053160	525 04 0 00 000767 	C57200:	HRLOI	4,767		;PRELOAD AC WITH 000767,,-1
 36464	053161	200 06 0 00 070644 		MOVE	6,[777350,,-2]	;PRELOAD E WITH 777350,,-2
 36465	053162	412 04 0 00 000006 		ANDCAM	4,6		;*ANDCAM SHOULD PLACE 777010,,0
 36466									;INTO E
 36467	053163	312 04 0 00 070645 		CAME	4,[767,,-1]	;PASS IF C(AC) IS UNCHANGED
 36468						STOP^
 36469	053164	254 04 0 00 053165 		HALT	.+1		;TEST FAILED IF PROGRAM HALTS HERE
 36470	053165	324 00 0 00 053166 		JUMPA	.+1		;IF TEST FAILS, CHANGE THIS INSTRUCTION (JUMPA .+1) TO
 36471									;JUMPA X (X IS THE ADDRESS OF THE FIRST INSTRUCTION
 36472									;IN THE SUBTEST) TO LOOP ON ERROR^
 36473	053166	312 06 0 00 070646 		CAME	6,[777010,,0]	;PASS IF C(E)=777010,,0
 36474						STOP^
 36475	053167	254 04 0 00 053170 		HALT	.+1		;TEST FAILED IF PROGRAM HALTS HERE
 36476	053170	324 00 0 00 053171 		JUMPA	.+1		;IF TEST FAILS, CHANGE THIS INSTRUCTION (JUMPA .+1) TO
 36477									;JUMPA X (X IS THE ADDRESS OF THE FIRST INSTRUCTION
 36478									;IN THE SUBTEST) TO LOOP ON ERROR^
 36479
 36480					;**********
DFKAA PDP-10 KL10 BASIC INSTRUCTION DIAGNOSTIC (1) VER 0,2	MACRO %52(537) 09:34 31-JAN-77 PAGE 7
DFKAA6	MAC	25-AUG-75 14:01		TEST OF MSCL BOOLEAN INSTRUCTIONS                                                  SEQ 0835

 36481					;THIS TEST VERIFIES THAT ANDCAB PLACES THE LOGICAN AND FUNCTION OF
 36482					;C(E) AND THE COMPLEMENT OF C(AC) INTO BOTH AC AND E.
 36483					;IN THIS CASE, C(AC)=000777,,770077 AND C(E)=123456,246123
 36484					;HENCE, THE RESULT IN BOTH AC AND E SHOULD BE 123000,,006100
 36485
 36486	053171	200 01 0 00 070647 	C57300:	MOVE	1,[000777,,770077]	;PRELOAD AC WITH 000777,770077
 36487	053172	200 02 0 00 070650 		MOVE	2,[123456,,246123]	;PRELOAD E WITH 123456,246123
 36488	053173	413 01 0 00 000002 		ANDCAB	1,2		;*ANDCAB SHOULD PLACE 123000,006100
 36489									;INTO BOTH AC AND E
 36490	053174	312 01 0 00 070651 		CAME	1,[123000,,006100]	;PASS IF C(AC)=123000,006100
 36491						STOP^
 36492	053175	254 04 0 00 053176 		HALT	.+1		;TEST FAILED IF PROGRAM HALTS HERE
 36493	053176	324 00 0 00 053177 		JUMPA	.+1		;IF TEST FAILS, CHANGE THIS INSTRUCTION (JUMPA .+1) TO
 36494									;JUMPA X (X IS THE ADDRESS OF THE FIRST INSTRUCTION
 36495									;IN THE SUBTEST) TO LOOP ON ERROR^
 36496	053177	312 02 0 00 070651 		CAME	2,[123000,,006100]	;PASS IF C(E)=123000,006100
 36497						STOP^
 36498	053200	254 04 0 00 053201 		HALT	.+1		;TEST FAILED IF PROGRAM HALTS HERE
 36499	053201	324 00 0 00 053202 		JUMPA	.+1		;IF TEST FAILS, CHANGE THIS INSTRUCTION (JUMPA .+1) TO
 36500									;JUMPA X (X IS THE ADDRESS OF THE FIRST INSTRUCTION
 36501									;IN THE SUBTEST) TO LOOP ON ERROR^
 36502
 36503					;**********
 36504
 36505					;THIS TEST VERIFIES THAT SETMI MOVES THE WORD 0,,E INTO THE AC
 36506					;IN THIS CASE, C(AC)=-1,,-1 AND E=0,,123456.  HENCE, THE RESULT
 36507					;IN THE AC SHOULD BE 0,,123456
 36508
 36509	053202	474 05 0 00 000000 	C57400:	SETO	5,		;PRELOAD AC WITH -1,,-1
 36510	053203	415 05 0 00 123456 		SETMI	5,123456	;*SETMI SHOULD PLACE 0,,123456 INTO THE AC
 36511	053204	302 05 0 00 123456 		CAIE	5,123456	;PASS IF C(AC)=0,123456
 36512						STOP^
 36513	053205	254 04 0 00 053206 		HALT	.+1		;TEST FAILED IF PROGRAM HALTS HERE
 36514	053206	324 00 0 00 053207 		JUMPA	.+1		;IF TEST FAILS, CHANGE THIS INSTRUCTION (JUMPA .+1) TO
 36515									;JUMPA X (X IS THE ADDRESS OF THE FIRST INSTRUCTION
 36516									;IN THE SUBTEST) TO LOOP ON ERROR^
 36517
 36518					;**********
DFKAA PDP-10 KL10 BASIC INSTRUCTION DIAGNOSTIC (1) VER 0,2	MACRO %52(537) 09:34 31-JAN-77 PAGE 8
DFKAA6	MAC	25-AUG-75 14:01		TEST OF MSCL BOOLEAN INSTRUCTIONS                                                  SEQ 0836

 36519					;THIS TEST VERIFIES THAT SETMM IS A NO-OP.  HENCE, IT SHOULD
 36520					;NOT MODIFY AC OR E.
 36521					;IN THIS CASE, C(AC)=0 AND C(E)=-1,,-1; AND NEITHER SHOULD NOT BE CHANGED
 36522
 36523	053207	400 16 0 00 000000 	C57500:	SETZ	16,		;CLEAR C(AC)
 36524	053210	474 17 0 00 000000 		SETO	17,		;PRELOAD E WITH -1,,-1
 36525	053211	416 16 0 00 000017 		SETMM	16,17		;*SETMM IS A NO-OP
 36526	053212	332 00 0 00 000016 		SKIPE	16		;PASS IF C(AC) UNCHANGED
 36527						STOP^
 36528	053213	254 04 0 00 053214 		HALT	.+1		;TEST FAILED IF PROGRAM HALTS HERE
 36529	053214	324 00 0 00 053215 		JUMPA	.+1		;IF TEST FAILS, CHANGE THIS INSTRUCTION (JUMPA .+1) TO
 36530									;JUMPA X (X IS THE ADDRESS OF THE FIRST INSTRUCTION
 36531									;IN THE SUBTEST) TO LOOP ON ERROR^
 36532	053215	312 17 0 00 070254 		CAME	17,[-1]		;PASS IF C(E) UNCHANGED
 36533						STOP^
 36534	053216	254 04 0 00 053217 		HALT	.+1		;TEST FAILED IF PROGRAM HALTS HERE
 36535	053217	324 00 0 00 053220 		JUMPA	.+1		;IF TEST FAILS, CHANGE THIS INSTRUCTION (JUMPA .+1) TO
 36536									;JUMPA X (X IS THE ADDRESS OF THE FIRST INSTRUCTION
 36537									;IN THE SUBTEST) TO LOOP ON ERROR^
 36538
 36539					;**********
 36540
 36541					;THIS TEST VERIFIES THAT SETMB PLACES C(E) INTO THE AC
 36542					;IN THIS CASE, C(AC)=-1,,-1 AND C(E)=100,,-200  HENCE, THE RESULT
 36543					;IN BOTH AC AND E SHOULD BE 000100,,-200.
 36544
 36545	053220	474 00 0 00 000000 	C57600:	SETO	0,		;CLEAR AC
 36546	053221	200 01 0 00 070652 		MOVE	1,[100,,-200]	;PRELOAD E WITH 100,,-200
 36547	053222	417 00 0 00 000001 		SETMB	0,1		;*SETMB SHOULD PLACE 100,,-200 INTO THE AC
 36548	053223	312 00 0 00 070652 		CAME	0,[100,,-200]	;PASS IF C(AC)=100,,-200
 36549						STOP^
 36550	053224	254 04 0 00 053225 		HALT	.+1		;TEST FAILED IF PROGRAM HALTS HERE
 36551	053225	324 00 0 00 053226 		JUMPA	.+1		;IF TEST FAILS, CHANGE THIS INSTRUCTION (JUMPA .+1) TO
 36552									;JUMPA X (X IS THE ADDRESS OF THE FIRST INSTRUCTION
 36553									;IN THE SUBTEST) TO LOOP ON ERROR^
 36554	053226	312 01 0 00 070652 		CAME	1,[100,,-200]	;PASS IF C(E)=100,,-200
 36555						STOP^
 36556	053227	254 04 0 00 053230 		HALT	.+1		;TEST FAILED IF PROGRAM HALTS HERE
 36557	053230	324 00 0 00 053231 		JUMPA	.+1		;IF TEST FAILS, CHANGE THIS INSTRUCTION (JUMPA .+1) TO
 36558									;JUMPA X (X IS THE ADDRESS OF THE FIRST INSTRUCTION
 36559									;IN THE SUBTEST) TO LOOP ON ERROR^
 36560
 36561					;**********
DFKAA PDP-10 KL10 BASIC INSTRUCTION DIAGNOSTIC (1) VER 0,2	MACRO %52(537) 09:34 31-JAN-77 PAGE 9
DFKAA6	MAC	25-AUG-75 14:01		TEST OF MSCL BOOLEAN INSTRUCTIONS                                                  SEQ 0837

 36562					;THIS TEST VERIFIES THAT ANDCMI PLACES THE LOGICAL AND FUNCTION
 36563					;OF C(AC) AND THE COMPLEMENT OF THE WORD 0,,E INTO THE AC.
 36564					;IN THIS CASE, C(AC)=123456,,246135 AND E=0,,717273.
 36565					;HENCE, THE RESULT IN THE AC SHOULD BE 123456,,040104.
 36566
 36567	053231	200 15 0 00 070653 	C57700:	MOVE	15,[123456,,246135]	;PRELOAD AC WITH 123456,,246135
 36568	053232	421 15 0 00 717273 		ANDCMI	15,717273	;*ANDCMI SHOULD PLACE 123456,,040104
 36569									;INTO THE AC
 36570	053233	312 15 0 00 070654 		CAME	15,[123456,,040104]	;PASS IF C(AC)=123456,,040104
 36571						STOP^
 36572	053234	254 04 0 00 053235 		HALT	.+1		;TEST FAILED IF PROGRAM HALTS HERE
 36573	053235	324 00 0 00 053236 		JUMPA	.+1		;IF TEST FAILS, CHANGE THIS INSTRUCTION (JUMPA .+1) TO
 36574									;JUMPA X (X IS THE ADDRESS OF THE FIRST INSTRUCTION
 36575									;IN THE SUBTEST) TO LOOP ON ERROR^
 36576
 36577					;**********
 36578
 36579					;THIS TEST VERIFIES THAT ANDCMM PLACES THE LOGICAL AND FUNCTION OF
 36580					;C(AC) AND THE COMPLEMENT OF C(E) INTO E.
 36581					;IN THIS CASE,C(AC)=12321,,456654 AND C(E)= 770077,,007770
 36582					;HENCE, THE RESULT IN E SHOULD BE 003300,,450004
 36583
 36584	053236	200 14 0 00 070655 	C60000:	MOVE	14,[123321,,456654]	;PRELOAD AC WITH 123321,,456654
 36585	053237	200 15 0 00 070656 		MOVE	15,[770077,,007770]	;PRELOAD E WITH 77007770
 36586	053240	422 14 0 00 000015 		ANDCMM	14,15			;*ANDCMM SHOULD PLACE 003300,,450004 INTO THE AC
 36587	053241	312 14 0 00 070655 		CAME	14,[123321,,456654]	;PASS IF C(AC) UNCHANGED
 36588						STOP^
 36589	053242	254 04 0 00 053243 		HALT	.+1		;TEST FAILED IF PROGRAM HALTS HERE
 36590	053243	324 00 0 00 053244 		JUMPA	.+1		;IF TEST FAILS, CHANGE THIS INSTRUCTION (JUMPA .+1) TO
 36591									;JUMPA X (X IS THE ADDRESS OF THE FIRST INSTRUCTION
 36592									;IN THE SUBTEST) TO LOOP ON ERROR^
 36593	053244	312 15 0 00 070657 		CAME	15,[3300,,450004]	;PASS IF C(E) = 003300,,450004
 36594						STOP^
 36595	053245	254 04 0 00 053246 		HALT	.+1		;TEST FAILED IF PROGRAM HALTS HERE
 36596	053246	324 00 0 00 053247 		JUMPA	.+1		;IF TEST FAILS, CHANGE THIS INSTRUCTION (JUMPA .+1) TO
 36597									;JUMPA X (X IS THE ADDRESS OF THE FIRST INSTRUCTION
 36598									;IN THE SUBTEST) TO LOOP ON ERROR^
 36599
 36600					;**********
DFKAA PDP-10 KL10 BASIC INSTRUCTION DIAGNOSTIC (1) VER 0,2	MACRO %52(537) 09:34 31-JAN-77 PAGE 10
DFKAA6	MAC	25-AUG-75 14:01		TEST OF MSCL BOOLEAN INSTRUCTIONS                                                  SEQ 0838

 36601					;THIS TEST VERIFIES THAT ANDCMB PLACES THE LOGICAL AND FUNCTION OF
 36602					;C(AC) AND THE COMPLEMENT OF C(E) INTO BOTH AC AND E.
 36603					;IN THIS CASE, C(AC)123456,,663322 AND C(E) = 777000,,700770
 36604					;HENCE, THE RESULT IN BOTH AC AND E SHOULD BE 000456,,063002
 36605
 36606	053247	200 13 0 00 070660 	C60100:	MOVE	13,[123456,,663322]	;PRELOAD AC WITH 123456,,663322
 36607	053250	200 14 0 00 070661 		MOVE	14,[777000,,700770]	;PRELOAD E WITH 777000,,700770
 36608	053251	423 13 0 00 000014 		ANDCMB	13,14			;*ANDCMB SHOULD PLACE 000456,,063002
 36609										;INTO BOTH AC AND E
 36610	053252	312 13 0 00 070662 		CAME	13,[456,,63002]		;PASS IF C(AC)=000456,,063002
 36611						STOP^
 36612	053253	254 04 0 00 053254 		HALT	.+1		;TEST FAILED IF PROGRAM HALTS HERE
 36613	053254	324 00 0 00 053255 		JUMPA	.+1		;IF TEST FAILS, CHANGE THIS INSTRUCTION (JUMPA .+1) TO
 36614									;JUMPA X (X IS THE ADDRESS OF THE FIRST INSTRUCTION
 36615									;IN THE SUBTEST) TO LOOP ON ERROR^
 36616	053255	312 14 0 00 070662 		CAME	14,[456,,63002]		;PASS IF C(E)=000456,,063002
 36617						STOP^
 36618	053256	254 04 0 00 053257 		HALT	.+1		;TEST FAILED IF PROGRAM HALTS HERE
 36619	053257	324 00 0 00 053260 		JUMPA	.+1		;IF TEST FAILS, CHANGE THIS INSTRUCTION (JUMPA .+1) TO
 36620									;JUMPA X (X IS THE ADDRESS OF THE FIRST INSTRUCTION
 36621									;IN THE SUBTEST) TO LOOP ON ERROR^
 36622
 36623					;**********
 36624
 36625
 36626					;THIS TEST VERIFIES THAT SETA IS A NO-OP. IT AFFECTS NEITHER
 36627					;AC OR E. IN THIS CASE, C(AC)=123456,,777776 AND C(E)=010203,,123450.
 36628					;SETA SHOULD NOT MODIFY C(AC) OR C(E)
 36629
 36630	053260	200 12 0 00 070663 	C60200:	MOVE	12,[123456,,777776]	;PRELOAD AC WITH 123456,,-2
 36631	053261	200 13 0 00 070664 		MOVE	13,[010203,,123450]	;PRELOAD E WITH 010203,,123450
 36632	053262	424 12 0 00 000013 		SETA	12,13			;*SETA IS A NO-OP
 36633	053263	312 12 0 00 070663 		CAME	12,[123456,,-2]		;PASS IF C(AC) UNCHANGED
 36634						STOP^
 36635	053264	254 04 0 00 053265 		HALT	.+1		;TEST FAILED IF PROGRAM HALTS HERE
 36636	053265	324 00 0 00 053266 		JUMPA	.+1		;IF TEST FAILS, CHANGE THIS INSTRUCTION (JUMPA .+1) TO
 36637									;JUMPA X (X IS THE ADDRESS OF THE FIRST INSTRUCTION
 36638									;IN THE SUBTEST) TO LOOP ON ERROR^
 36639	053266	312 13 0 00 070664 		CAME	13,[010203,,123450]	;PASS IF C(E) UNCHANGED
 36640						STOP^
 36641	053267	254 04 0 00 053270 		HALT	.+1		;TEST FAILED IF PROGRAM HALTS HERE
 36642	053270	324 00 0 00 053271 		JUMPA	.+1		;IF TEST FAILS, CHANGE THIS INSTRUCTION (JUMPA .+1) TO
 36643									;JUMPA X (X IS THE ADDRESS OF THE FIRST INSTRUCTION
 36644									;IN THE SUBTEST) TO LOOP ON ERROR^
 36645
 36646					;**********
DFKAA PDP-10 KL10 BASIC INSTRUCTION DIAGNOSTIC (1) VER 0,2	MACRO %52(537) 09:34 31-JAN-77 PAGE 11
DFKAA6	MAC	25-AUG-75 14:01		TEST OF MSCL BOOLEAN INSTRUCTIONS                                                  SEQ 0839

 36647					;THIS TEST VERIFIES THAT SETAI IS A NO-OP. IT DOES NOT AFFECT THE AC.
 36648					;IN THIS CASE, C(AC)=123456,,777776 AND E=0,,123450
 36649					;SETA SHOULD NOT MODIFY C(AC)
 36650
 36651	053271	200 12 0 00 070663 	C60300:	MOVE 12,[123456,,777776]	;PRELOAD AC WITH 123456,,-2
 36652	053272	425 12 0 00 123450 		SETAI	12,123450		;*SETAI IS A NO-OP
 36653	053273	312 12 0 00 070663 		CAME	12,[123456,,-2]		;PASS IF C(AC) UNCHANGED
 36654						STOP^
 36655	053274	254 04 0 00 053275 		HALT	.+1		;TEST FAILED IF PROGRAM HALTS HERE
 36656	053275	324 00 0 00 053276 		JUMPA	.+1		;IF TEST FAILS, CHANGE THIS INSTRUCTION (JUMPA .+1) TO
 36657									;JUMPA X (X IS THE ADDRESS OF THE FIRST INSTRUCTION
 36658									;IN THE SUBTEST) TO LOOP ON ERROR^
 36659
 36660					;**********
 36661
 36662					;THIS TEST VERIFIES THAT SETAM PLACES C(AC) INTO E.
 36663					;IN THIS CASE, C(AC)=123456,,0 AND C(E)=-1,,-1.  HENCE, THE
 36664					;RESULT IN E SHOULD BE 123456,,0
 36665
 36666	053276	515 11 0 00 123456 	C60400:	HRLZI	11,123456		;PRELOAD AC WITH 123456,,0
 36667	053277	474 12 0 00 000000 		SETO	12,			;PRELOAD E WITH -1,,-1
 36668	053300	426 11 0 00 000012 		SETAM	11,12			;SETAM SHOULD PLACE 123456,,0 INTO E
 36669	053301	312 11 0 00 070377 		CAME	11,[123456,,0]		;PASS IF C(AC) UNCHANGED
 36670						STOP^
 36671	053302	254 04 0 00 053303 		HALT	.+1		;TEST FAILED IF PROGRAM HALTS HERE
 36672	053303	324 00 0 00 053304 		JUMPA	.+1		;IF TEST FAILS, CHANGE THIS INSTRUCTION (JUMPA .+1) TO
 36673									;JUMPA X (X IS THE ADDRESS OF THE FIRST INSTRUCTION
 36674									;IN THE SUBTEST) TO LOOP ON ERROR^
 36675	053304	312 12 0 00 070377 		CAME	12,[123456,,0]		;PASS IF C(E)=123456,,0
 36676						STOP^
 36677	053305	254 04 0 00 053306 		HALT	.+1		;TEST FAILED IF PROGRAM HALTS HERE
 36678	053306	324 00 0 00 053307 		JUMPA	.+1		;IF TEST FAILS, CHANGE THIS INSTRUCTION (JUMPA .+1) TO
 36679									;JUMPA X (X IS THE ADDRESS OF THE FIRST INSTRUCTION
 36680									;IN THE SUBTEST) TO LOOP ON ERROR^
 36681
 36682					;**********
DFKAA PDP-10 KL10 BASIC INSTRUCTION DIAGNOSTIC (1) VER 0,2	MACRO %52(537) 09:34 31-JAN-77 PAGE 12
DFKAA6	MAC	25-AUG-75 14:01		TEST OF MSCL BOOLEAN INSTRUCTIONS                                                  SEQ 0840

 36683					;THIS TEST VERIFIES THAT XORI PLACES THE LOGICAL EXCLUSIVE OR FUNCTION
 36684					;OF C(AC) AND THE WORD 0,,E INTO THE AC.
 36685					;IN THIS CASE, C(AC)=000777,,123456 AND E=0,,434431
 36686					;HENCE, THE RESULT IN THE AC SHOULD BE 000777,,517067.
 36687
 36688	053307	200 10 0 00 070665 	C60500:	MOVE	10,[777,,123456]	;PRELOAD AC WITH 000777,,123456
 36689	053310	431 10 0 00 434431 		XORI	10,434431		;*XORI SHOULD PLACE 000777,,517067 INTO THE AC
 36690	053311	312 10 0 00 070666 		CAME	10,[777,,517067]	;PASS IF C(AC)=000777,,517067
 36691						STOP^
 36692	053312	254 04 0 00 053313 		HALT	.+1		;TEST FAILED IF PROGRAM HALTS HERE
 36693	053313	324 00 0 00 053314 		JUMPA	.+1		;IF TEST FAILS, CHANGE THIS INSTRUCTION (JUMPA .+1) TO
 36694									;JUMPA X (X IS THE ADDRESS OF THE FIRST INSTRUCTION
 36695									;IN THE SUBTEST) TO LOOP ON ERROR^
 36696
 36697					;**********
 36698
 36699					;THIS TEST VERIFIES THAT XORB PLACES THE LOGICAL EXCLUSIVE OR FUNCTION
 36700					;OF C(AC) AND C(E) INTO BOTH AC AND E.
 36701					;IN THIS CASE, C(AC)=707077,,555666 AND C(E)=123456,,765432
 36702					;HENCE, THE RESULT IN BOTH AC AND E SHOULD BE 624421,,230254
 36703
 36704	053314	200 07 0 00 070667 	C60600:	MOVE	7,[707077,,555666]	;PRELOAD AC WITH 707077,,555666
 36705	053315	200 10 0 00 070376 		MOVE	10,[123456,,765432]	;PRELOAD E WITH 123456,,765432
 36706	053316	433 07 0 00 000010 		XORB	7,10			;*XORB SHOULD PLACE 624421,,230254
 36707										;INTO BOTH AC AND E
 36708	053317	312 07 0 00 070670 		CAME	7,[624421,,230254]	;PASS IF C(AC)=624421,,230254
 36709						STOP^
 36710	053320	254 04 0 00 053321 		HALT	.+1		;TEST FAILED IF PROGRAM HALTS HERE
 36711	053321	324 00 0 00 053322 		JUMPA	.+1		;IF TEST FAILS, CHANGE THIS INSTRUCTION (JUMPA .+1) TO
 36712									;JUMPA X (X IS THE ADDRESS OF THE FIRST INSTRUCTION
 36713									;IN THE SUBTEST) TO LOOP ON ERROR^
 36714	053322	312 10 0 00 070670 		CAME	10,[624421,,230254]	;PASS IF C(E)=624421,,230254
 36715						STOP^
 36716	053323	254 04 0 00 053324 		HALT	.+1		;TEST FAILED IF PROGRAM HALTS HERE
 36717	053324	324 00 0 00 053325 		JUMPA	.+1		;IF TEST FAILS, CHANGE THIS INSTRUCTION (JUMPA .+1) TO
 36718									;JUMPA X (X IS THE ADDRESS OF THE FIRST INSTRUCTION
 36719									;IN THE SUBTEST) TO LOOP ON ERROR^
 36720
 36721					;**********
DFKAA PDP-10 KL10 BASIC INSTRUCTION DIAGNOSTIC (1) VER 0,2	MACRO %52(537) 09:34 31-JAN-77 PAGE 13
DFKAA6	MAC	25-AUG-75 14:01		TEST OF MSCL BOOLEAN INSTRUCTIONS                                                  SEQ 0841

 36722					;THIS TEST VERIFIES THAT IORI PLACES THE INCLUSIVE OR FUNCTION
 36723					;OF C(AC) AND THE WORD 0,,E INTO THE AC.
 36724					;IN THIS CASE, C(AC)=707070,,123456 AND E=0,,765567
 36725					;HENCE, THE RESULT IN THE AC SHOULD BE 707070,,767577
 36726
 36727	053325	200 06 0 00 070671 	C60700:	MOVE	6,[707070,,123456]  ;PRELOAD AC WITH 707070,,123456
 36728	053326	435 06 0 00 765567 		IORI	6,765567	;*IORI SHOULD PLACE 707070,,767577 INTO THE AC
 36729	053327	312 06 0 00 070672 		CAME	6,[707070,,767577]  ;PASS IF C(AC)=707070,,767577
 36730						STOP^
 36731	053330	254 04 0 00 053331 		HALT	.+1		;TEST FAILED IF PROGRAM HALTS HERE
 36732	053331	324 00 0 00 053332 		JUMPA	.+1		;IF TEST FAILS, CHANGE THIS INSTRUCTION (JUMPA .+1) TO
 36733									;JUMPA X (X IS THE ADDRESS OF THE FIRST INSTRUCTION
 36734									;IN THE SUBTEST) TO LOOP ON ERROR^
 36735
 36736					;**********
 36737
 36738					;THIS TEST VERIFIES THAT IORM PLACES THE INCLUSIVE OR FUNCTION
 36739					;OF C(AC) AND C(E) INTO E.
 36740					;IN THIS CASE, C(AC)=123456,,777666 AND C(E)=777001,,123470
 36741					;HENCE, THE RESULT IN E SHOULD BE 777457,,777676
 36742
 36743	053332	200 05 0 00 070673 	C61000:	MOVE	5,[123456,,777666]  ;PRELOAD AC WITH 123456,777666
 36744	053333	200 06 0 00 070674 		MOVE	6,[777001,,123470]  ;PRELOAD E WITH 777001,,123470
 36745	053334	436 05 0 00 000006 		IORM	5,6		;*IORM SHOULD PLACE
 36746									;777457,777676 INTO E
 36747	053335	312 05 0 00 070673 		CAME	5,[123456,,777666]  ;PASS IF C(AC) UNMODIFIED
 36748						STOP^
 36749	053336	254 04 0 00 053337 		HALT	.+1		;TEST FAILED IF PROGRAM HALTS HERE
 36750	053337	324 00 0 00 053340 		JUMPA	.+1		;IF TEST FAILS, CHANGE THIS INSTRUCTION (JUMPA .+1) TO
 36751									;JUMPA X (X IS THE ADDRESS OF THE FIRST INSTRUCTION
 36752									;IN THE SUBTEST) TO LOOP ON ERROR^
 36753	053340	312 06 0 00 070675 		CAME	6,[777457,,777676] ;PASS IF C(E)=777457,777676
 36754						STOP^
 36755	053341	254 04 0 00 053342 		HALT	.+1		;TEST FAILED IF PROGRAM HALTS HERE
 36756	053342	324 00 0 00 053343 		JUMPA	.+1		;IF TEST FAILS, CHANGE THIS INSTRUCTION (JUMPA .+1) TO
 36757									;JUMPA X (X IS THE ADDRESS OF THE FIRST INSTRUCTION
 36758									;IN THE SUBTEST) TO LOOP ON ERROR^
 36759
 36760					;**********
DFKAA PDP-10 KL10 BASIC INSTRUCTION DIAGNOSTIC (1) VER 0,2	MACRO %52(537) 09:34 31-JAN-77 PAGE 14
DFKAA6	MAC	25-AUG-75 14:01		TEST OF MSCL BOOLEAN INSTRUCTIONS                                                  SEQ 0842

 36761					;THIS TEST VERIFIES THAT IORB PLACES THE INCLUSIVE OR FUNCTION
 36762					;OF C(AC) AND C(E) INTO E.
 36763					;IN THIS CASE, C(AC)=123456,,777666 AND C(E)=777001,,123470
 36764					;HENCE, THE RESULT IN BOTH AC AND E SHOULD BE 777457,,777676
 36765
 36766	053343	200 05 0 00 070673 	C61100:	MOVE	5,[123456,,777666]  ;PRELOAD AC WITH 123456,777666
 36767	053344	200 06 0 00 070674 		MOVE	6,[777001,,123470]  ;PRELOAD E WITH 777001,,123470
 36768	053345	437 05 0 00 000006 		IORB	5,6		;*IORB SHOULD PLACE
 36769									;777457,,777676 INTO
 36770	053346	312 05 0 00 070675 		CAME	5,[777457,,777676]  ;PASS IF C(AC)=777457,,777676
 36771						STOP^
 36772	053347	254 04 0 00 053350 		HALT	.+1		;TEST FAILED IF PROGRAM HALTS HERE
 36773	053350	324 00 0 00 053351 		JUMPA	.+1		;IF TEST FAILS, CHANGE THIS INSTRUCTION (JUMPA .+1) TO
 36774									;JUMPA X (X IS THE ADDRESS OF THE FIRST INSTRUCTION
 36775									;IN THE SUBTEST) TO LOOP ON ERROR^
 36776	053351	312 06 0 00 070675 		CAME	6,[777457,,777676]  ;PASS IF C(E)=777457,,777676
 36777						STOP^
 36778	053352	254 04 0 00 053353 		HALT	.+1		;TEST FAILED IF PROGRAM HALTS HERE
 36779	053353	324 00 0 00 053354 		JUMPA	.+1		;IF TEST FAILS, CHANGE THIS INSTRUCTION (JUMPA .+1) TO
 36780									;JUMPA X (X IS THE ADDRESS OF THE FIRST INSTRUCTION
 36781									;IN THE SUBTEST) TO LOOP ON ERROR^
 36782
 36783					;**********
 36784
 36785					;THIS TEST VERIFIES THAT ANDCBI PLACES THE LOGICAL AND FUNCTION
 36786					;OF THE COMPLEMENTS OF BOTH C(AC) AND THE WORD 0,,E INTO THE AC
 36787					;IN THIS CASE, C(AC)=777000,,123456 AND E=0,,706050.
 36788					;HENCE, THE RESULT IN THE AC SHOULD BE 000777,,050321.
 36789
 36790	053354	200 04 0 00 070676 	C61200:	MOVE	4,[777000,,123456]  ;PRELOAD AC WITH 777000,,123456
 36791	053355	441 04 0 00 706050 		ANDCBI	4,706050	;*ANDCBI SHOULD PLACE 000777,,050321
 36792									;INTO THE AC
 36793	053356	312 04 0 00 070677 		CAME	4,[777,,50321]	;PASS IF C(AC)=000777,,050321
 36794						STOP^
 36795	053357	254 04 0 00 053360 		HALT	.+1		;TEST FAILED IF PROGRAM HALTS HERE
 36796	053360	324 00 0 00 053361 		JUMPA	.+1		;IF TEST FAILS, CHANGE THIS INSTRUCTION (JUMPA .+1) TO
 36797									;JUMPA X (X IS THE ADDRESS OF THE FIRST INSTRUCTION
 36798									;IN THE SUBTEST) TO LOOP ON ERROR^
 36799
 36800					;**********
DFKAA PDP-10 KL10 BASIC INSTRUCTION DIAGNOSTIC (1) VER 0,2	MACRO %52(537) 09:34 31-JAN-77 PAGE 15
DFKAA6	MAC	25-AUG-75 14:01		TEST OF MSCL BOOLEAN INSTRUCTIONS                                                  SEQ 0843

 36801					;THIS TEST VERIFIES THAT ANDCBM PLACES THE LOGICAL AND FUNCTION
 36802					;OF THE COMPLEMENTS OF BOTH C(AC) AND C(E) INTO
 36803					;IN THE CASE, C(AC)=777007,,771100 AND C(E)=063202,,123477
 36804					;HENCE, THE RESULT IN E SHOULD BE 000570,,004200
 36805
 36806	053361	200 03 0 00 070700 	C61300:	MOVE	3,[777007,,771100]  ;PRELOAD AC WITH 777007,,771100
 36807	053362	200 04 0 00 070701 		MOVE	4,[63202,,123477]   ;PRELOAD E WITH 063202,,123477
 36808	053363	442 03 0 00 000004 		ANDCBM	3,4		;*ANDCBM SHOULD PLACE
 36809									;000570,,004200 INTO E.
 36810	053364	312 03 0 00 070700 		CAME	3,[777007,,771100] ;PASS IF C(AC) IS UNCHANGED
 36811						STOP^
 36812	053365	254 04 0 00 053366 		HALT	.+1		;TEST FAILED IF PROGRAM HALTS HERE
 36813	053366	324 00 0 00 053367 		JUMPA	.+1		;IF TEST FAILS, CHANGE THIS INSTRUCTION (JUMPA .+1) TO
 36814									;JUMPA X (X IS THE ADDRESS OF THE FIRST INSTRUCTION
 36815									;IN THE SUBTEST) TO LOOP ON ERROR^
 36816	053367	312 04 0 00 070702 		CAME	4,[570,,4200]	;PASS IF C(E)=000570,,004200
 36817						STOP^
 36818	053370	254 04 0 00 053371 		HALT	.+1		;TEST FAILED IF PROGRAM HALTS HERE
 36819	053371	324 00 0 00 053372 		JUMPA	.+1		;IF TEST FAILS, CHANGE THIS INSTRUCTION (JUMPA .+1) TO
 36820									;JUMPA X (X IS THE ADDRESS OF THE FIRST INSTRUCTION
 36821									;IN THE SUBTEST) TO LOOP ON ERROR^
 36822
 36823					;**********
 36824
 36825					;THIS TEST VERIFIES THAT ANDCBB PLACES THE LOGICAL AND FUNCTION
 36826					;OF THE COMPLEMENTS OF BOTH C(AC) AND C(E) INTO BOTH AC AND E
 36827					;IN THIS CASE, C(AC)=777007,,771100 AND C(E)=063202,,123477
 36828					;HENCE, THE RESULT IN BOTH AC AND E SHOULD BE 000570,,004200
 36829
 36830	053372	200 03 0 00 070700 	C61400:	MOVE	3,[777007,,771100]  ;PRELOAD WITH 777007,,771100
 36831	053373	200 04 0 00 070701 		MOVE	4,[63202,,123477]   ;PRELOAD E WITH 063202,,123477
 36832	053374	443 03 0 00 000004 		ANDCBB	3,4		;*ANDCBB SHOULD PLACE
 36833									;000570,,004200 INTO BOTH AC AND E
 36834	053375	312 03 0 00 070702 		CAME	3,[570,,4200]	;PASS IF C(AC)=000570,,004200
 36835						STOP^
 36836	053376	254 04 0 00 053377 		HALT	.+1		;TEST FAILED IF PROGRAM HALTS HERE
 36837	053377	324 00 0 00 053400 		JUMPA	.+1		;IF TEST FAILS, CHANGE THIS INSTRUCTION (JUMPA .+1) TO
 36838									;JUMPA X (X IS THE ADDRESS OF THE FIRST INSTRUCTION
 36839									;IN THE SUBTEST) TO LOOP ON ERROR^
 36840	053400	312 04 0 00 070702 		CAME	4,[570,,4200]	;PASS IF C(E)=000570,,004200
 36841						STOP^
 36842	053401	254 04 0 00 053402 		HALT	.+1		;TEST FAILED IF PROGRAM HALTS HERE
 36843	053402	324 00 0 00 053403 		JUMPA	.+1		;IF TEST FAILS, CHANGE THIS INSTRUCTION (JUMPA .+1) TO
 36844									;JUMPA X (X IS THE ADDRESS OF THE FIRST INSTRUCTION
 36845									;IN THE SUBTEST) TO LOOP ON ERROR^
 36846
 36847					;**********
DFKAA PDP-10 KL10 BASIC INSTRUCTION DIAGNOSTIC (1) VER 0,2	MACRO %52(537) 09:34 31-JAN-77 PAGE 16
DFKAA6	MAC	25-AUG-75 14:01		TEST OF MSCL BOOLEAN INSTRUCTIONS                                                  SEQ 0844

 36848					;THIS TEST VERIFIES THAT EQVI PLACES THE LOGICAL EQUIVALENCE FUNCTION
 36849					;OF C(AC) AND THE WORD 0,,E INTO THE AC
 36850					;IN THIS CASE, C(AC)=707070,,123426 AND E=0,,123363
 36851					;HENCE, THE RESULT IN THE AC SHOULD BE 070707,,777032
 36852
 36853	053403	200 02 0 00 070703 	C61500:	MOVE	2,[707070,,123426]  ;PRELOAD AC WITH 707070,,123426
 36854	053404	445 02 0 00 123363 		EQVI	2,123363	;*EQVI SHOULD PLACE
 36855									;070707,,777032 INTO THE AC
 36856	053405	312 02 0 00 070704 		CAME	2,[70707,,777032]  ;PASS IF C(AC)=070707,,777032
 36857						STOP^
 36858	053406	254 04 0 00 053407 		HALT	.+1		;TEST FAILED IF PROGRAM HALTS HERE
 36859	053407	324 00 0 00 053410 		JUMPA	.+1		;IF TEST FAILS, CHANGE THIS INSTRUCTION (JUMPA .+1) TO
 36860									;JUMPA X (X IS THE ADDRESS OF THE FIRST INSTRUCTION
 36861									;IN THE SUBTEST) TO LOOP ON ERROR^
 36862
 36863					;**********
 36864
 36865					;THIS TEST VERIFIES THAT EQVM PLACES THE LOGICAL EQUIVALENCE FUNCTION
 36866					;OF C(AC) AND C(E) INTO E.
 36867					;IN THIS CASE, C(AC)= 123456,,123457 AND C(E) = 707633,,121212
 36868					;HENCE, THE RESULT IN E SHOULD BE 153512,,775132
 36869
 36870	053410	200 01 0 00 070705 	C61600:	MOVE	1,[123456,,123457] ;PRELOAD AC WITH 123456,,123457
 36871	053411	200 02 0 00 070706 		MOVE	2,[707633,,121212] ;PRELOAD AC WITH 707633,,121212
 36872	053412	446 01 0 00 000002 		EQVM	1,2		;*EQVM SHOULD PLACE 153512,,775132 INTO	E.
 36873	053413	312 01 0 00 070705 		CAME	1,[123456,,123457] ;PASS IF C(AC) UNCHANGED
 36874						STOP^
 36875	053414	254 04 0 00 053415 		HALT	.+1		;TEST FAILED IF PROGRAM HALTS HERE
 36876	053415	324 00 0 00 053416 		JUMPA	.+1		;IF TEST FAILS, CHANGE THIS INSTRUCTION (JUMPA .+1) TO
 36877									;JUMPA X (X IS THE ADDRESS OF THE FIRST INSTRUCTION
 36878									;IN THE SUBTEST) TO LOOP ON ERROR^
 36879	053416	312 02 0 00 070707 		CAME	2,[153512,,775132];PASS IF C(E) = 153512,,775132
 36880						STOP^
 36881	053417	254 04 0 00 053420 		HALT	.+1		;TEST FAILED IF PROGRAM HALTS HERE
 36882	053420	324 00 0 00 053421 		JUMPA	.+1		;IF TEST FAILS, CHANGE THIS INSTRUCTION (JUMPA .+1) TO
 36883									;JUMPA X (X IS THE ADDRESS OF THE FIRST INSTRUCTION
 36884									;IN THE SUBTEST) TO LOOP ON ERROR^
 36885
 36886					;**********
DFKAA PDP-10 KL10 BASIC INSTRUCTION DIAGNOSTIC (1) VER 0,2	MACRO %52(537) 09:34 31-JAN-77 PAGE 17
DFKAA6	MAC	25-AUG-75 14:01		TEST OF MSCL BOOLEAN INSTRUCTIONS                                                  SEQ 0845

 36887					;THIS TEST VERIFIES THAT EQVB PLACES THE LOGICAL EQUIVALENCE FUNCTION
 36888					;OF C(AC)AND C(E) INTO BOTH AC AND  E.
 36889					;IN THIS CASE, C(AC) = 123456,,123457 AND C(E) = 707633,,121212
 36890					;HENSE, THE RSULT IN BOTH AC AND 	E SHOULD BE 153512,,775132
 36891
 36892	053421	200 01 0 00 070705 	C61700:	MOVE	1,[123456,,123457]	;PRELOAD AC WITH 123456,,12345
 36893	053422	200 02 0 00 070706 		MOVE	2,[707633,,121212]	;PRELOAD AC WITH 707633,,121212
 36894	053423	447 01 0 00 000002 		EQVB	1,2			;*EQVB SHOULD PLACE 153512,,775132
 36895										;INTO BOTHE AC AND E.
 36896	053424	312 01 0 00 070707 		CAME	1,[153512,,775132]	;PASS IC C(AC)=153512,,775132
 36897						STOP^
 36898	053425	254 04 0 00 053426 		HALT	.+1		;TEST FAILED IF PROGRAM HALTS HERE
 36899	053426	324 00 0 00 053427 		JUMPA	.+1		;IF TEST FAILS, CHANGE THIS INSTRUCTION (JUMPA .+1) TO
 36900									;JUMPA X (X IS THE ADDRESS OF THE FIRST INSTRUCTION
 36901									;IN THE SUBTEST) TO LOOP ON ERROR^
 36902	053427	312 02 0 00 070707 		CAME	2,[153512,,775132]	;PASS IF C(E)=153512,,775132
 36903						STOP^
 36904	053430	254 04 0 00 053431 		HALT	.+1		;TEST FAILED IF PROGRAM HALTS HERE
 36905	053431	324 00 0 00 053432 		JUMPA	.+1		;IF TEST FAILS, CHANGE THIS INSTRUCTION (JUMPA .+1) TO
 36906									;JUMPA X (X IS THE ADDRESS OF THE FIRST INSTRUCTION
 36907									;IN THE SUBTEST) TO LOOP ON ERROR^
 36908
 36909					;**********
 36910
 36911					;THIS TEST VERIFIES THAT SETCAI PLACES THE COMPLEMENT OF C(AC)
 36912					;INTO THE AC.
 36913					;IN THIS CASE, C(AC)=777000,,123456 AND E=0,,707070
 36914					;HENCE, THE RESULT IN THE AC SHOULD BE 000777,,654321
 36915
 36916	053432	200 00 0 00 070676 	C62000:	MOVE	0,[777000,,123456]	;PRELOAD AC WITH 777000,,123456
 36917	053433	451 00 0 00 707070 		SETCAI	0,707070		;*SETCAI SHOULD PLACE 000777,,654321
 36918										;INTO THE AC
 36919	053434	312 00 0 00 070710 		CAME	0,[777,,654321]	;PASS IF C(AC)=000777,,654321
 36920						STOP^
 36921	053435	254 04 0 00 053436 		HALT	.+1		;TEST FAILED IF PROGRAM HALTS HERE
 36922	053436	324 00 0 00 053437 		JUMPA	.+1		;IF TEST FAILS, CHANGE THIS INSTRUCTION (JUMPA .+1) TO
 36923									;JUMPA X (X IS THE ADDRESS OF THE FIRST INSTRUCTION
 36924									;IN THE SUBTEST) TO LOOP ON ERROR^
 36925
 36926					;**********
DFKAA PDP-10 KL10 BASIC INSTRUCTION DIAGNOSTIC (1) VER 0,2	MACRO %52(537) 09:34 31-JAN-77 PAGE 18
DFKAA6	MAC	25-AUG-75 14:01		TEST OF MSCL BOOLEAN INSTRUCTIONS                                                  SEQ 0846

 36927					;THIS TEST VERIFIES THAT SETCAM PLACES THE COMPLEMENT OF C(AC)
 36928					;INTO E.
 36929					;IN THIS CASE, C(AC)=123456,,765432 AND C(E)=-1,,-1.
 36930					;HENCE, THE RESULT IN E SHOULD BE 654321,,012345
 36931
 36932	053437	200 17 0 00 070376 	C62100:	MOVE	17,[123456,,765432]	;PRELOAD AC WITH 123456,,765432
 36933	053440	474 00 0 00 000000 		SETO	0,			;PRELOAD E WITH -1,,-1
 36934	053441	452 17 0 00 000000 		SETCAM	17,0			;*SETCAM SHOULD PLACE
 36935										;654321,,012345 INTO E
 36936	053442	312 17 0 00 070376 		CAME	17,[123456,,765432]	;PASS IF C(AC) IS UNCHANGED
 36937						STOP^
 36938	053443	254 04 0 00 053444 		HALT	.+1		;TEST FAILED IF PROGRAM HALTS HERE
 36939	053444	324 00 0 00 053445 		JUMPA	.+1		;IF TEST FAILS, CHANGE THIS INSTRUCTION (JUMPA .+1) TO
 36940									;JUMPA X (X IS THE ADDRESS OF THE FIRST INSTRUCTION
 36941									;IN THE SUBTEST) TO LOOP ON ERROR^
 36942	053445	312 00 0 00 070711 		CAME	0,[654321,,12345]	;PASS IF C(E)=654321,,012345
 36943						STOP^
 36944	053446	254 04 0 00 053447 		HALT	.+1		;TEST FAILED IF PROGRAM HALTS HERE
 36945	053447	324 00 0 00 053450 		JUMPA	.+1		;IF TEST FAILS, CHANGE THIS INSTRUCTION (JUMPA .+1) TO
 36946									;JUMPA X (X IS THE ADDRESS OF THE FIRST INSTRUCTION
 36947									;IN THE SUBTEST) TO LOOP ON ERROR^
 36948
 36949					;**********
 36950
 36951					;THIS TEST VERIFIES THAT SETCAB PLACES THE COMPLEMENT OF C(AC)
 36952					;INTO BOTH AC AND E.
 36953					;IN THIS CASE, C(AC)=123456,,765432 AND C(E)=-1,,-1.
 36954					;HENCE, THE RESULT IN BOTH AC AND E SHOULD BE 654321,,012345
 36955
 36956	053450	200 17 0 00 070376 	C62200:	MOVE	17,[123456,,765432]	;PRELOAD AC WITH 123456,,76543
 36957	053451	474 00 0 00 000000 		SETO	0,			;PRELOAD E WITH -1,,-1
 36958	053452	453 17 0 00 000000 		SETCAB	17,0			;*SETCAB SHOULD PLACE
 36959										;654321,,012345 INTO BOTH AC AND E
 36960	053453	312 17 0 00 070711 		CAME	17,[654321,,12345]	;PASS IF C(AC)=654321,,012345
 36961						STOP^
 36962	053454	254 04 0 00 053455 		HALT	.+1		;TEST FAILED IF PROGRAM HALTS HERE
 36963	053455	324 00 0 00 053456 		JUMPA	.+1		;IF TEST FAILS, CHANGE THIS INSTRUCTION (JUMPA .+1) TO
 36964									;JUMPA X (X IS THE ADDRESS OF THE FIRST INSTRUCTION
 36965									;IN THE SUBTEST) TO LOOP ON ERROR^
 36966	053456	312 00 0 00 070711 		CAME	0,[654321,,12345]	;PASS IF C(E)=654321,,012345
 36967						STOP^
 36968	053457	254 04 0 00 053460 		HALT	.+1		;TEST FAILED IF PROGRAM HALTS HERE
 36969	053460	324 00 0 00 053461 		JUMPA	.+1		;IF TEST FAILS, CHANGE THIS INSTRUCTION (JUMPA .+1) TO
 36970									;JUMPA X (X IS THE ADDRESS OF THE FIRST INSTRUCTION
 36971									;IN THE SUBTEST) TO LOOP ON ERROR^
 36972
 36973					;**********
DFKAA PDP-10 KL10 BASIC INSTRUCTION DIAGNOSTIC (1) VER 0,2	MACRO %52(537) 09:34 31-JAN-77 PAGE 19
DFKAA6	MAC	25-AUG-75 14:01		TEST OF MSCL BOOLEAN INSTRUCTIONS                                                  SEQ 0847

 36974					;THIS TEST VERIFIES THAT ORCAI PLACES THE INCLUSIVE OR FUNCTION
 36975					;OF THE WORD 0,,E AND THE COMPLEMENT OF C(AC) INTO THE AC.
 36976					;IN THIS CASE, C(AC)=777000,,123477 AND E=0,,765401
 36977					;HENCE, THE RESULT IN THE AC SHOULD BE 000777,,775701
 36978
 36979	053461	200 16 0 00 070712 	C62300:	MOVE	16,[777000,,123477]	;PRELOAD AC WITH 777000,,123477
 36980	053462	455 16 0 00 765401 		ORCAI	16,765401		;*ORCAI SHOULD PLACE 000777,,767477
 36981										;INTO THE AC
 36982	053463	312 16 0 00 070713 		CAME	16,[777,,775701]	;PASS IF C(AC)=000777,,775701
 36983						STOP^
 36984	053464	254 04 0 00 053465 		HALT	.+1		;TEST FAILED IF PROGRAM HALTS HERE
 36985	053465	324 00 0 00 053466 		JUMPA	.+1		;IF TEST FAILS, CHANGE THIS INSTRUCTION (JUMPA .+1) TO
 36986									;JUMPA X (X IS THE ADDRESS OF THE FIRST INSTRUCTION
 36987									;IN THE SUBTEST) TO LOOP ON ERROR^
 36988
 36989					;**********
 36990
 36991					;THIS TEST VERIFIES THAT ORCAM PLACES THE INCLUSIVE OR FUNCTION
 36992					;OF C(E) AND THE COMPLEMENT OF C(AC) INTO
 36993					;IN THIS CASE, C(AC)=777000,,123477 AND C(E)=707070,,707072
 36994					;HENCE, THE RESULT IN E SHOULD BE 707777,,757372
 36995
 36996	053466	200 15 0 00 070712 	C62400:	MOVE	15,[777000,,123477]	;PRELOAD AC WITH 777000,,123477
 36997	053467	200 16 0 00 070714 		MOVE	16,[707070,,707072]	;PRELOAD E WITH 707070,,707072
 36998	053470	456 15 0 00 000016 		ORCAM	15,16			;*ORCAM SHOULD PLACE 707777,,757372
 36999										;INTO E
 37000	053471	312 15 0 00 070712 		CAME	15,[777000,,123477]	;PASS IF C(AC) IS UNCHANGED
 37001						STOP^
 37002	053472	254 04 0 00 053473 		HALT	.+1		;TEST FAILED IF PROGRAM HALTS HERE
 37003	053473	324 00 0 00 053474 		JUMPA	.+1		;IF TEST FAILS, CHANGE THIS INSTRUCTION (JUMPA .+1) TO
 37004									;JUMPA X (X IS THE ADDRESS OF THE FIRST INSTRUCTION
 37005									;IN THE SUBTEST) TO LOOP ON ERROR^
 37006	053474	312 16 0 00 070715 		CAME	16,[707777,,757372]	;PASS IF C(E)=707777,,757372
 37007						STOP^
 37008	053475	254 04 0 00 053476 		HALT	.+1		;TEST FAILED IF PROGRAM HALTS HERE
 37009	053476	324 00 0 00 053477 		JUMPA	.+1		;IF TEST FAILS, CHANGE THIS INSTRUCTION (JUMPA .+1) TO
 37010									;JUMPA X (X IS THE ADDRESS OF THE FIRST INSTRUCTION
 37011									;IN THE SUBTEST) TO LOOP ON ERROR^
 37012
DFKAA PDP-10 KL10 BASIC INSTRUCTION DIAGNOSTIC (1) VER 0,2	MACRO %52(537) 09:34 31-JAN-77 PAGE 20
DFKAA6	MAC	25-AUG-75 14:01		TEST OF MSCL BOOLEAN INSTRUCTIONS                                                  SEQ 0848

 37013					;**********
 37014					;THIS TEST VERIFIES THAT ORCAB PLACES THE INCLUSIVE OR FUNCTION
 37015					;OF C(E) AND THE COMPLEMENT OF C(AC) INTO BOTH AC AND E.
 37016					;IN THIS CASE, C(AC)=777000,,123477 AND C(E)=707070,,707072
 37017					;HENCE, THE RESULT IN BOTH AC AND E SHOULD BE 707777,,757372
 37018
 37019	053477	200 15 0 00 070712 	C62500:	MOVE	15,[777000,,123477]	;PRELOAD AC WITH 777000,,123477
 37020	053500	200 16 0 00 070714 		MOVE	16,[707070,,707072]	;PRELOAD E WITH 707070,,707072
 37021	053501	457 15 0 00 000016 		ORCAB	15,16			;*ORCAB SHOULD PLACE 707777,,757372
 37022										;INTO BOTHE AC AND E
 37023	053502	312 15 0 00 070715 		CAME	15,[707777,,757372]	;PASS IF C(AC)=707777,,757372
 37024						STOP^
 37025	053503	254 04 0 00 053504 		HALT	.+1		;TEST FAILED IF PROGRAM HALTS HERE
 37026	053504	324 00 0 00 053505 		JUMPA	.+1		;IF TEST FAILS, CHANGE THIS INSTRUCTION (JUMPA .+1) TO
 37027									;JUMPA X (X IS THE ADDRESS OF THE FIRST INSTRUCTION
 37028									;IN THE SUBTEST) TO LOOP ON ERROR^
 37029	053505	312 16 0 00 070715 		CAME	16,[707777,,757372]	;PASS IF C(E)=707777,,757372
 37030						STOP^
 37031	053506	254 04 0 00 053507 		HALT	.+1		;TEST FAILED IF PROGRAM HALTS HERE
 37032	053507	324 00 0 00 053510 		JUMPA	.+1		;IF TEST FAILS, CHANGE THIS INSTRUCTION (JUMPA .+1) TO
 37033									;JUMPA X (X IS THE ADDRESS OF THE FIRST INSTRUCTION
 37034									;IN THE SUBTEST) TO LOOP ON ERROR^
 37035
 37036					;**********
 37037
 37038					;THIS TEST VERIFIES THAT SETCMI PLACES THE COMPLEMENT OF THE
 37039					;WORD 0,,E INTO THE AC
 37040					;IN THIS CASE, C(AC)=777000,,123456 AND E=0,,707070
 37041					;HENCE, THE RESULT IN THE AC SHOULD BE -1,,070707
 37042
 37043	053510	200 00 0 00 070676 	C62600:	MOVE	0,[777000,,123456]	;PRELOAD AC WITH 777000,,123456
 37044	053511	461 00 0 00 707070 		SETCMI	0,707070		;*SETCMI SHOULD PLACE -1,,070707
 37045										;INTO THE AC
 37046	053512	312 00 0 00 070716 		CAME	0,[-1,,070707]		;PASS IF C(AC)=-1,,070707
 37047						STOP^
 37048	053513	254 04 0 00 053514 		HALT	.+1		;TEST FAILED IF PROGRAM HALTS HERE
 37049	053514	324 00 0 00 053515 		JUMPA	.+1		;IF TEST FAILS, CHANGE THIS INSTRUCTION (JUMPA .+1) TO
 37050									;JUMPA X (X IS THE ADDRESS OF THE FIRST INSTRUCTION
 37051									;IN THE SUBTEST) TO LOOP ON ERROR^
 37052
 37053					;**********
DFKAA PDP-10 KL10 BASIC INSTRUCTION DIAGNOSTIC (1) VER 0,2	MACRO %52(537) 09:34 31-JAN-77 PAGE 21
DFKAA6	MAC	25-AUG-75 14:01		TEST OF MSCL BOOLEAN INSTRUCTIONS                                                  SEQ 0849

 37054					;THIS TEST VERIFIES THAT SETCMM PLACES THE COMPLEMENT OF C(E)
 37055					;INTO E.
 37056					;IN THIS CASE, C(E)=123456,,765432 AND C(AC)=-1,,-1.
 37057					;HENCE, THE RESULT IN E SHOULD BE 654321,,012345
 37058
 37059	053515	200 17 0 00 070376 	C62700:	MOVE	17,[123456,,765432]	;PRELOAD E WITH 123456,,76543
 37060	053516	474 00 0 00 000000 		SETO	0,			;PRELOAD AC WITH -1,,-1
 37061	053517	462 00 0 00 000017 		SETCMM	0,17			;*SETCMM SHOULD PLACE
 37062										;654321,012345 INTO E
 37063	053520	312 00 0 00 070254 		CAME	0,[-1]			;PASS IF C(AC) UNCHANGED
 37064						STOP^
 37065	053521	254 04 0 00 053522 		HALT	.+1		;TEST FAILED IF PROGRAM HALTS HERE
 37066	053522	324 00 0 00 053523 		JUMPA	.+1		;IF TEST FAILS, CHANGE THIS INSTRUCTION (JUMPA .+1) TO
 37067									;JUMPA X (X IS THE ADDRESS OF THE FIRST INSTRUCTION
 37068									;IN THE SUBTEST) TO LOOP ON ERROR^
 37069	053523	312 17 0 00 070711 		CAME	17,[654321,,12345]	;PASS IF C(E)=654321,,012345
 37070						STOP^
 37071	053524	254 04 0 00 053525 		HALT	.+1		;TEST FAILED IF PROGRAM HALTS HERE
 37072	053525	324 00 0 00 053526 		JUMPA	.+1		;IF TEST FAILS, CHANGE THIS INSTRUCTION (JUMPA .+1) TO
 37073									;JUMPA X (X IS THE ADDRESS OF THE FIRST INSTRUCTION
 37074									;IN THE SUBTEST) TO LOOP ON ERROR^
 37075
 37076					;**********
 37077
 37078					;THIS TEST VERIFIES THAT SETCMB PLACES THE COMPLEMENT OF C(E)
 37079					;INTO BOTH AC AND E.
 37080					;IN THIS CASE, C(E)=123456,,765432 AND C(AC)=-1,,-1.
 37081					;HENCE, THE RESULT IN BOTH AC AND E SHOULD BE 654321,,012345
 37082
 37083	053526	200 17 0 00 070376 	C63000:	MOVE	17,[123456,,765432]	;PRELOAD E WITH 123456,,76543
 37084	053527	474 00 0 00 000000 		SETO	0,			;PRELOAD AC WITH -1,,-1
 37085	053530	463 00 0 00 000017 		SETCMB	0,17			;*SETCMB SHOULD PLACE
 37086										;654321,,012345 INTO BOTH AC AND E
 37087	053531	312 00 0 00 070711 		CAME	0,[654321,,12345]	;PASS IF C(AC)=654321,,012345
 37088						STOP^
 37089	053532	254 04 0 00 053533 		HALT	.+1		;TEST FAILED IF PROGRAM HALTS HERE
 37090	053533	324 00 0 00 053534 		JUMPA	.+1		;IF TEST FAILS, CHANGE THIS INSTRUCTION (JUMPA .+1) TO
 37091									;JUMPA X (X IS THE ADDRESS OF THE FIRST INSTRUCTION
 37092									;IN THE SUBTEST) TO LOOP ON ERROR^
 37093	053534	312 17 0 00 070711 		CAME	17,[654321,,12345]	;PASS IF C(E)=654321,,012345
 37094						STOP^
 37095	053535	254 04 0 00 053536 		HALT	.+1		;TEST FAILED IF PROGRAM HALTS HERE
 37096	053536	324 00 0 00 053537 		JUMPA	.+1		;IF TEST FAILS, CHANGE THIS INSTRUCTION (JUMPA .+1) TO
 37097									;JUMPA X (X IS THE ADDRESS OF THE FIRST INSTRUCTION
 37098									;IN THE SUBTEST) TO LOOP ON ERROR^
 37099
 37100					;**********
DFKAA PDP-10 KL10 BASIC INSTRUCTION DIAGNOSTIC (1) VER 0,2	MACRO %52(537) 09:34 31-JAN-77 PAGE 22
DFKAA6	MAC	25-AUG-75 14:01		TEST OF MSCL BOOLEAN INSTRUCTIONS                                                  SEQ 0850

 37101					;THIS TEST VERIFIES THAT ORCMI PLACES THE INCLUSIVE OR FUNCTION
 37102					;OF C(AC) AND THE COMPLEMENT OF THE WORD 0,,E INTO THE AC.
 37103					;IN THIS CASE, C(AC)=777000,,123477 AND E=0,,765401
 37104					;HENCE, THE RESULT IN THE AC SHOULD BE -1,,133777
 37105
 37106	053537	200 16 0 00 070712 	C63100:	MOVE	16,[777000,,123477]	;PRELOAD AC WITH 777000,,123477
 37107	053540	465 16 0 00 765401 		ORCMI	16,765401		;*ORCMI SHOULD PLACE -1,,133777
 37108										;INTO THE AC
 37109	053541	312 16 0 00 070717 		CAME	16,[-1,,133777]		;PASS IF C(AC)=-1,,133777
 37110						STOP^
 37111	053542	254 04 0 00 053543 		HALT	.+1		;TEST FAILED IF PROGRAM HALTS HERE
 37112	053543	324 00 0 00 053544 		JUMPA	.+1		;IF TEST FAILS, CHANGE THIS INSTRUCTION (JUMPA .+1) TO
 37113									;JUMPA X (X IS THE ADDRESS OF THE FIRST INSTRUCTION
 37114									;IN THE SUBTEST) TO LOOP ON ERROR^
 37115
 37116					;**********
 37117
 37118					;THIS TEST VERIFIES THAT ORCMM PLACES THE INCLUSIVE OR FUNCTION
 37119					;OF C(AC) AND THE COMPLEMENT OC C(E) INTO
 37120					;IN THIS CASE, C(E)=777000,,123477 AND C (AC)=707070,,707072
 37121					;HENCE, THE RESULT IN E SHOULD BE 707777,,757372
 37122
 37123	053544	200 15 0 00 070712 	C63200:	MOVE	15,[777000,,123477]	;PRELOAD E WITH 777000,,123477
 37124	053545	200 16 0 00 070714 		MOVE	16,[707070,,707072]	;PRELOAD AC WITH 707070,,707072
 37125	053546	466 16 0 00 000015 		ORCMM	16,15			;*ORCMM SHOULD PLACE 707777,,757372
 37126										;INTO E
 37127	053547	312 16 0 00 070714 		CAME	16,[707070,,707072]	;PASS IF C(AC) IS UNCHANGED
 37128						STOP^
 37129	053550	254 04 0 00 053551 		HALT	.+1		;TEST FAILED IF PROGRAM HALTS HERE
 37130	053551	324 00 0 00 053552 		JUMPA	.+1		;IF TEST FAILS, CHANGE THIS INSTRUCTION (JUMPA .+1) TO
 37131									;JUMPA X (X IS THE ADDRESS OF THE FIRST INSTRUCTION
 37132									;IN THE SUBTEST) TO LOOP ON ERROR^
 37133	053552	312 15 0 00 070715 		CAME	15,[707777,,757372]	;PASS IF C(E)=707777,,757372
 37134						STOP^
 37135	053553	254 04 0 00 053554 		HALT	.+1		;TEST FAILED IF PROGRAM HALTS HERE
 37136	053554	324 00 0 00 053555 		JUMPA	.+1		;IF TEST FAILS, CHANGE THIS INSTRUCTION (JUMPA .+1) TO
 37137									;JUMPA X (X IS THE ADDRESS OF THE FIRST INSTRUCTION
 37138									;IN THE SUBTEST) TO LOOP ON ERROR^
 37139
 37140					;**********
DFKAA PDP-10 KL10 BASIC INSTRUCTION DIAGNOSTIC (1) VER 0,2	MACRO %52(537) 09:34 31-JAN-77 PAGE 23
DFKAA6	MAC	25-AUG-75 14:01		TEST OF MSCL BOOLEAN INSTRUCTIONS                                                  SEQ 0851

 37141					;THIS TEST VERIFIES THAT ORCMB PLACES THE INCLUSIVE OR FUNCTION
 37142					;OF C(AC) AND THE COMPLEMENT OF C(E) INTO BOTH AC AND E.
 37143					;IN THIS CASE, C(E)=777000,,123477 AND C(AC)=707070,,707072
 37144					;HENCE, THE RESULT IN BOTH AC AND E SHOULD BE 707777,,757372
 37145
 37146	053555	200 15 0 00 070712 	C63300:	MOVE	15,[777000,,123477]  ;PRELOAD E WITH 777000,,123477
 37147	053556	200 16 0 00 070714 		MOVE	16,[707070,,707072]  ;PRELOAD AC WITH 707070,,707072
 37148	053557	467 16 0 00 000015 		ORCMB	16,15		;*ORCMB SHOULD PLACE 707777,,757372
 37149									;INTO BOTH AC AND E
 37150	053560	312 16 0 00 070715 		CAME	16,[707777,,757372]  ;PASS IF C(AC)=707777,,757372
 37151						STOP^
 37152	053561	254 04 0 00 053562 		HALT	.+1		;TEST FAILED IF PROGRAM HALTS HERE
 37153	053562	324 00 0 00 053563 		JUMPA	.+1		;IF TEST FAILS, CHANGE THIS INSTRUCTION (JUMPA .+1) TO
 37154									;JUMPA X (X IS THE ADDRESS OF THE FIRST INSTRUCTION
 37155									;IN THE SUBTEST) TO LOOP ON ERROR^
 37156	053563	312 15 0 00 070715 		CAME	15,[707777,,757372]  ;PASS OF C(E)=707777,,757372
 37157						STOP^
 37158	053564	254 04 0 00 053565 		HALT	.+1		;TEST FAILED IF PROGRAM HALTS HERE
 37159	053565	324 00 0 00 053566 		JUMPA	.+1		;IF TEST FAILS, CHANGE THIS INSTRUCTION (JUMPA .+1) TO
 37160									;JUMPA X (X IS THE ADDRESS OF THE FIRST INSTRUCTION
 37161									;IN THE SUBTEST) TO LOOP ON ERROR^
 37162
 37163					;**********
 37164
 37165					;THIS TEST VERIFIES THAT ORCBI PLACES THE LOGICAL INCLUSIVE OR
 37166					;FUNCTION OF THE COMPLEMENTS OF BOTH C(AC) AND THE WORD 0,,E INTO THE AC.
 37167					;IN THIS CASE, C(AC)=707070,,070706 AND E=0,,770011.
 37168					;HENCE, THE RESULT IN THE AC SHOULD BE -1,,707777
 37169
 37170	053566	200 15 0 00 070720 	C63400:	MOVE	15,[707070,,070706]  ;PRELOAD AC WITH 707070,,070706
 37171	053567	471 15 0 00 770011 		ORCBI	15,770011	;*ORCBI SHOULD PLACE -1,,707777 INTO THE AC
 37172	053570	312 15 0 00 070721 		CAME	15,[-1,,707777]	;PASS IF C(AC)=-1,707777
 37173						STOP^
 37174	053571	254 04 0 00 053572 		HALT	.+1		;TEST FAILED IF PROGRAM HALTS HERE
 37175	053572	324 00 0 00 053573 		JUMPA	.+1		;IF TEST FAILS, CHANGE THIS INSTRUCTION (JUMPA .+1) TO
 37176									;JUMPA X (X IS THE ADDRESS OF THE FIRST INSTRUCTION
 37177									;IN THE SUBTEST) TO LOOP ON ERROR^
 37178
 37179					;**********
DFKAA PDP-10 KL10 BASIC INSTRUCTION DIAGNOSTIC (1) VER 0,2	MACRO %52(537) 09:34 31-JAN-77 PAGE 24
DFKAA6	MAC	25-AUG-75 14:01		TEST OF MSCL BOOLEAN INSTRUCTIONS                                                  SEQ 0852

 37180					;THIS TEST VERIFIES THAT ORCBM PLACES THE LOGICAL INCLUSIVE OR
 37181					;FUNCTION OF THE COMPLEMENTS OF BOTH C(AC) AND C(E) INTO
 37182					;IN THIS CASE, C(AC)=123456,,770077 AND C(E)=777001,,123324
 37183					;HENCE, THE RESULT IN E SHOULD BE 654777,,657753
 37184
 37185	053573	200 14 0 00 070722 	C63500:	MOVE	14,[123456,,770077]  ;PRELOAD AC WITH 123456,,770077
 37186	053574	200 15 0 00 070723 		MOVE	15,[777001,,123324]  ;PRELOAD E WITH 777001,,123324
 37187	053575	472 14 0 00 000015 		ORCBM	14,15		;*ORCBM SHOULD PLACE 654777,,657753
 37188									;INTO E
 37189	053576	312 14 0 00 070722 		CAME	14,[123456,,770077]  ;PASS IF C(AC) IS UNCHANGED
 37190						STOP^
 37191	053577	254 04 0 00 053600 		HALT	.+1		;TEST FAILED IF PROGRAM HALTS HERE
 37192	053600	324 00 0 00 053601 		JUMPA	.+1		;IF TEST FAILS, CHANGE THIS INSTRUCTION (JUMPA .+1) TO
 37193									;JUMPA X (X IS THE ADDRESS OF THE FIRST INSTRUCTION
 37194									;IN THE SUBTEST) TO LOOP ON ERROR^
 37195	053601	312 15 0 00 070724 		CAME	15,[654777,,657753]   ;PASS IF C(E)=654777,,657753
 37196						STOP^
 37197	053602	254 04 0 00 053603 		HALT	.+1		;TEST FAILED IF PROGRAM HALTS HERE
 37198	053603	324 00 0 00 053604 		JUMPA	.+1		;IF TEST FAILS, CHANGE THIS INSTRUCTION (JUMPA .+1) TO
 37199									;JUMPA X (X IS THE ADDRESS OF THE FIRST INSTRUCTION
 37200									;IN THE SUBTEST) TO LOOP ON ERROR^
 37201
 37202					;**********
 37203
 37204					;THIS TEST VERIFIES THAT ORCBB PLACES THE LOGICAL INCLUSIVE OR
 37205					;FUNCTIONOF THE COMPLEMENTS OF BOTH C(AC) AND C(E) INTO BOTH AC AND E
 37206					;IN THIS CASE, C(AC)=123456,,770077 AND C(E)=777001,,657753
 37207
 37208	053604	200 14 0 00 070722 	C63600:	MOVE	14,[123456,,770077]  ;PRELOAD AC WITH 123456,,770077
 37209	053605	200 15 0 00 070723 		MOVE	15,[777001,,123324]  ;PRELOAD E WITH 777001,,123324
 37210	053606	473 14 0 00 000015 		ORCBB	14,15		;*ORCBB SHOULD PLACE 654777,,657753
 37211									;INTO BOTH AC AND E
 37212	053607	312 14 0 00 070724 		CAME	14,[654777,,657753]  ;PASS IF C(AC)=654777,,657753
 37213						STOP^
 37214	053610	254 04 0 00 053611 		HALT	.+1		;TEST FAILED IF PROGRAM HALTS HERE
 37215	053611	324 00 0 00 053612 		JUMPA	.+1		;IF TEST FAILS, CHANGE THIS INSTRUCTION (JUMPA .+1) TO
 37216									;JUMPA X (X IS THE ADDRESS OF THE FIRST INSTRUCTION
 37217									;IN THE SUBTEST) TO LOOP ON ERROR^
 37218	053612	312 15 0 00 070724 		CAME	15,[654777,,657753]  ;PASS IF C(E)=654777,,657753
 37219						STOP^
 37220	053613	254 04 0 00 053614 		HALT	.+1		;TEST FAILED IF PROGRAM HALTS HERE
 37221	053614	324 00 0 00 053615 		JUMPA	.+1		;IF TEST FAILS, CHANGE THIS INSTRUCTION (JUMPA .+1) TO
 37222									;JUMPA X (X IS THE ADDRESS OF THE FIRST INSTRUCTION
 37223									;IN THE SUBTEST) TO LOOP ON ERROR^
 37224
 37225					;**********
DFKAA PDP-10 KL10 BASIC INSTRUCTION DIAGNOSTIC (1) VER 0,2	MACRO %52(537) 09:34 31-JAN-77 PAGE 25
DFKAA6	MAC	25-AUG-75 14:01		TEST OF MSCL HWT INSTRUCTIONS                                                      SEQ 0853

 37226					SUBTTL	TEST OF MSCL HWT INSTRUCTIONS
 37227
 37228					;**********
 37229
 37230					;THIS TEST VERIFIES THAT HLLI CLEARS AC LEFT
 37231					;IN THIS CASE, C(AC)=707070,,123456 AND E=777000
 37232					;HENCE, THE RESULT IN THE AC SHOULD BE 0,,123456
 37233
 37234	053615	200 17 0 00 070671 	C63700:	MOVE	17,[707070,,123456]	;PRELOAD AC WITH 707070,,123456
 37235	053616	501 17 0 00 777000 		HLLI	17,777000	;*HLLI SHOULD PLACE 0,,123456 INTO THHE AC
 37236	053617	302 17 0 00 123456 		CAIE	17,123456	;PASS IF C(AC)=0,,123456
 37237						STOP^
 37238	053620	254 04 0 00 053621 		HALT	.+1		;TEST FAILED IF PROGRAM HALTS HERE
 37239	053621	324 00 0 00 053622 		JUMPA	.+1		;IF TEST FAILS, CHANGE THIS INSTRUCTION (JUMPA .+1) TO
 37240									;JUMPA X (X IS THE ADDRESS OF THE FIRST INSTRUCTION
 37241									;IN THE SUBTEST) TO LOOP ON ERROR^
 37242
 37243					;**********
 37244
 37245					;THIS TEST VERIFIES THAT HLLS PLACES C(E) INTO THE AC IF AC IS NON-ZERO
 37246					;AND IS A NO-OP IF AC=0
 37247					;IN THIS CASE, AC=0, C(AC)=-1,,-1 AND C(E)=123456,,765432
 37248					;HENCE, THE RESULTS IN AC AND E SHOULD BE -1,,-1
 37249					;AND 123456,,765432 RESPECTIVELY
 37250
 37251	053622	474 00 0 00 000000 	C64000:	SETO	0		;PRELOAD AC WITH -1,,-1
 37252	053623	200 02 0 00 070376 		MOVE	2,[123456,,765432]	;PRELOAD E WITH 123456,,765432
 37253	053624	503 00 0 00 000002 		HLLS	0,2		;*HLLS SHOULD NOT AFFECT AC OR E
 37254	053625	312 00 0 00 070254 		CAME	0,[-1]		;PASS IF C(AC) UNCHANGED
 37255						STOP^
 37256	053626	254 04 0 00 053627 		HALT	.+1		;TEST FAILED IF PROGRAM HALTS HERE
 37257	053627	324 00 0 00 053630 		JUMPA	.+1		;IF TEST FAILS, CHANGE THIS INSTRUCTION (JUMPA .+1) TO
 37258									;JUMPA X (X IS THE ADDRESS OF THE FIRST INSTRUCTION
 37259									;IN THE SUBTEST) TO LOOP ON ERROR^
 37260	053630	312 02 0 00 070376 		CAME	2,[123456,,765432]	;PASS IF C(C) IS UNCHANGED
 37261						STOP^
 37262	053631	254 04 0 00 053632 		HALT	.+1		;TEST FAILED IF PROGRAM HALTS HERE
 37263	053632	324 00 0 00 053633 		JUMPA	.+1		;IF TEST FAILS, CHANGE THIS INSTRUCTION (JUMPA .+1) TO
 37264									;JUMPA X (X IS THE ADDRESS OF THE FIRST INSTRUCTION
 37265									;IN THE SUBTEST) TO LOOP ON ERROR^
 37266
 37267					;**********
DFKAA PDP-10 KL10 BASIC INSTRUCTION DIAGNOSTIC (1) VER 0,2	MACRO %52(537) 09:34 31-JAN-77 PAGE 26
DFKAA6	MAC	25-AUG-75 14:01		TEST OF MSCL HWT INSTRUCTIONS                                                      SEQ 0854

 37268					;THIS TEST VERIFIES THAT HLLS PLACES C(E) INTO THE AC IF AC IS NON-ZERO?
 37269					;AND IS A NO-OP IF AC=0
 37270					;IN THIS CASE, AC=1, C(AC)=1,,-1 AND C(E)=123456,,765432
 37271					;HENCE, THE RESULTS IN AC AND E WHOULD BE 123456,,765432
 37272					;AND 123456,,765432 RESPECTVIELY
 37273
 37274	053633	474 01 0 00 000000 	C64010:	SETO	1,		;PRELOAD AC WITH -1,,-1
 37275	053634	200 02 0 00 070376 		MOVE	2,[123456,,765432]	;PRELOAD E WITH 123456,,765432
 37276	053635	503 01 0 00 000002 		HLLS	1,2		;*HLLS SHOULD PLACE 123456,,765432 INTO THE AC
 37277	053636	312 01 0 00 070376 		CAME	1,[123456,,765432]	;PASS IF C(AC)=123456,,765432
 37278						STOP^
 37279	053637	254 04 0 00 053640 		HALT	.+1		;TEST FAILED IF PROGRAM HALTS HERE
 37280	053640	324 00 0 00 053641 		JUMPA	.+1		;IF TEST FAILS, CHANGE THIS INSTRUCTION (JUMPA .+1) TO
 37281									;JUMPA X (X IS THE ADDRESS OF THE FIRST INSTRUCTION
 37282									;IN THE SUBTEST) TO LOOP ON ERROR^
 37283	053641	312 02 0 00 070376 		CAME	2,[123456,,765432]	;PASS IF C(C) IS UNCHANGED
 37284						STOP^
 37285	053642	254 04 0 00 053643 		HALT	.+1		;TEST FAILED IF PROGRAM HALTS HERE
 37286	053643	324 00 0 00 053644 		JUMPA	.+1		;IF TEST FAILS, CHANGE THIS INSTRUCTION (JUMPA .+1) TO
 37287									;JUMPA X (X IS THE ADDRESS OF THE FIRST INSTRUCTION
 37288									;IN THE SUBTEST) TO LOOP ON ERROR^
 37289
 37290					;**********
 37291
 37292					;THIS TEST VERIFIES THAT HRLS PLACES C(E-RIGHT) INTO E-LEFT, BUT
 37293					;DOES NOT AFFECT E-RIGHT.  IF AC IS NON-ZERO, THE RESULT IN E
 37294					;IS ALSO PLACED INTO THE AC.
 37295					;IN THIS CASE, AC=0, C(AC)=1,,-1 AND C(E)=123456,707070
 37296					;HENCE, THE RESULTS IN AC AND E RESPECTIVELY SHOULD BE -1,,-1
 37297					;AND 707070,,707070.
 37298
 37299	053644	474 00 0 00 000000 	C64100:	SETO	0,		;PRELOAD AC WITH -1,,-1
 37300	053645	200 03 0 00 070725 		MOVE	3,[123456,,707070]	;PRELOAD E WITH 123456,,707070
 37301	053646	507 00 0 00 000003 		HRLS	0,3		;*HRLS SHOULD PLACE 707070,,707070
 37302									;INTO E.
 37303	053647	312 00 0 00 070254 		CAME	0,[-1]		;PASS IF C(AC) UNCHANGED
 37304						STOP^
 37305	053650	254 04 0 00 053651 		HALT	.+1		;TEST FAILED IF PROGRAM HALTS HERE
 37306	053651	324 00 0 00 053652 		JUMPA	.+1		;IF TEST FAILS, CHANGE THIS INSTRUCTION (JUMPA .+1) TO
 37307									;JUMPA X (X IS THE ADDRESS OF THE FIRST INSTRUCTION
 37308									;IN THE SUBTEST) TO LOOP ON ERROR^
 37309	053652	312 03 0 00 070332 		CAME	3,[707070,,707070]	;PASS IF C(E)=707070,,707070
 37310						STOP^
 37311	053653	254 04 0 00 053654 		HALT	.+1		;TEST FAILED IF PROGRAM HALTS HERE
 37312	053654	324 00 0 00 053655 		JUMPA	.+1		;IF TEST FAILS, CHANGE THIS INSTRUCTION (JUMPA .+1) TO
 37313									;JUMPA X (X IS THE ADDRESS OF THE FIRST INSTRUCTION
 37314									;IN THE SUBTEST) TO LOOP ON ERROR^
 37315
 37316					;**********
DFKAA PDP-10 KL10 BASIC INSTRUCTION DIAGNOSTIC (1) VER 0,2	MACRO %52(537) 09:34 31-JAN-77 PAGE 27
DFKAA6	MAC	25-AUG-75 14:01		TEST OF MSCL HWT INSTRUCTIONS                                                      SEQ 0855

 37317					;THIS TEST VERIFIES THAT HRLS PLACES C(E-RIGHT) INTO E-LEFT, BUT
 37318					;DOES NOT AFFECT E-RIGHT.  IF AC IS NON-ZERO, THE RESULT IN E
 37319					;IS ALSO PLACED INTO THE AC.
 37320					;IN THIS CASE, AC=1, C(AC)=-1,,-1 AND C(E)=123456,,707070
 37321					;HENCE, THE RESULTS IN AC AND E RESPECTIVELY SHOULD BE 707070,,707070
 37322					;AND 707070,,707070.
 37323
 37324	053655	474 01 0 00 000000 	C64110:	SETO	1,		;PRELOAD AC WITH -1,,-1
 37325	053656	200 03 0 00 070725 		MOVE	3,[123456,,707070]	;PRELOAD E WITH 123456,,707070
 37326	053657	507 01 0 00 000003 		HRLS	1,3		;*HRLS SHOULD PLACE 707070,,707070
 37327									;INTO BOTH AC AND E.
 37328	053660	312 01 0 00 070332 		CAME	1,[707070,,707070]	;PASS IF C(AC)=707070,,707070
 37329						STOP^
 37330	053661	254 04 0 00 053662 		HALT	.+1		;TEST FAILED IF PROGRAM HALTS HERE
 37331	053662	324 00 0 00 053663 		JUMPA	.+1		;IF TEST FAILS, CHANGE THIS INSTRUCTION (JUMPA .+1) TO
 37332									;JUMPA X (X IS THE ADDRESS OF THE FIRST INSTRUCTION
 37333									;IN THE SUBTEST) TO LOOP ON ERROR^
 37334	053663	312 03 0 00 070332 		CAME	3,[707070,,707070]	;PASS IF C(E)=707070,,707070
 37335						STOP^
 37336	053664	254 04 0 00 053665 		HALT	.+1		;TEST FAILED IF PROGRAM HALTS HERE
 37337	053665	324 00 0 00 053666 		JUMPA	.+1		;IF TEST FAILS, CHANGE THIS INSTRUCTION (JUMPA .+1) TO
 37338									;JUMPA X (X IS THE ADDRESS OF THE FIRST INSTRUCTION
 37339									;IN THE SUBTEST) TO LOOP ON ERROR^
 37340
 37341					;**********
 37342
 37343					;THIS TEST VERIFIES THAN HLLZM PLACES C(AC-LEFT) INTO E-LEFT AND
 37344					;PLACES 0 INTO E-RIGHT
 37345					;IN THIS CASE, C(AC)=123456,,123422 AND C(E)=707070,717171
 37346					;HENCE, THE RESULT IN E SHOULD BE 123456,,0
 37347
 37348	053666	200 01 0 00 070726 	C64200:	MOVE	1,[123456,,123422]	;PRELOAD AC WITH 123456,,123422
 37349	053667	200 02 0 00 070727 		MOVE	2,[707070,,717171]	;PRELOAD AC WITH 707070,,717171
 37350	053670	512 01 0 00 000002 		HLLZM	1,2		;*HLLZM SHOULD PLACE 123456,,0 INTO E
 37351	053671	312 01 0 00 070726 		CAME	1,[123456,,123422]	;PASS IF C(AC) UNCHANGED
 37352						STOP^
 37353	053672	254 04 0 00 053673 		HALT	.+1		;TEST FAILED IF PROGRAM HALTS HERE
 37354	053673	324 00 0 00 053674 		JUMPA	.+1		;IF TEST FAILS, CHANGE THIS INSTRUCTION (JUMPA .+1) TO
 37355									;JUMPA X (X IS THE ADDRESS OF THE FIRST INSTRUCTION
 37356									;IN THE SUBTEST) TO LOOP ON ERROR^
 37357	053674	312 02 0 00 070377 		CAME	2,[123456,,0]	;PASS IF C(E)=123456,,0
 37358						STOP^
 37359	053675	254 04 0 00 053676 		HALT	.+1		;TEST FAILED IF PROGRAM HALTS HERE
 37360	053676	324 00 0 00 053677 		JUMPA	.+1		;IF TEST FAILS, CHANGE THIS INSTRUCTION (JUMPA .+1) TO
 37361									;JUMPA X (X IS THE ADDRESS OF THE FIRST INSTRUCTION
 37362									;IN THE SUBTEST) TO LOOP ON ERROR^
 37363
 37364					;**********
DFKAA PDP-10 KL10 BASIC INSTRUCTION DIAGNOSTIC (1) VER 0,2	MACRO %52(537) 09:34 31-JAN-77 PAGE 28
DFKAA6	MAC	25-AUG-75 14:01		TEST OF MSCL HWT INSTRUCTIONS                                                      SEQ 0856

 37365					;THIS TEST VERIFIES THAT HLLZS CLEARS THE RIGHT HALF OF E, BUT DOESN'T
 37366					;AFFECT THE LEFT HALF OF E.  IF AC IS NON-ZERO, THE RESULT IN E IS
 37367					;ALSO PLACED INTO THE AC.
 37368					;IN THIS CASE, AC=0, C(AC)=-1,,-1 AND C(E)=123456,,707070
 37369					;HENCE, THE RESULTS IN AC AND E SHOULD BE -1,,-1
 37370					;AND 123456,,0 RESPECTIVELY
 37371
 37372	053677	474 00 0 00 000000 	C64300:	SETO	0,		;PRELOAD AC WITH -1,,-1
 37373	053700	200 17 0 00 070725 		MOVE	17,[123456,,707070]	;PRELOAD E WITH 123456,,707070
 37374	053701	513 00 0 00 000017 		HLLZS	0,17		;*HLLZS SHOULD PLACE 123456,,0 INTO E.
 37375	053702	312 00 0 00 070254 		CAME	0,[-1]		;PASS IF C(AC) UNCHANGED
 37376						STOP^
 37377	053703	254 04 0 00 053704 		HALT	.+1		;TEST FAILED IF PROGRAM HALTS HERE
 37378	053704	324 00 0 00 053705 		JUMPA	.+1		;IF TEST FAILS, CHANGE THIS INSTRUCTION (JUMPA .+1) TO
 37379									;JUMPA X (X IS THE ADDRESS OF THE FIRST INSTRUCTION
 37380									;IN THE SUBTEST) TO LOOP ON ERROR^
 37381	053705	312 17 0 00 070377 		CAME	17,[123456,,0]	;PASS IF C(E)=123456,,0
 37382						STOP^
 37383	053706	254 04 0 00 053707 		HALT	.+1		;TEST FAILED IF PROGRAM HALTS HERE
 37384	053707	324 00 0 00 053710 		JUMPA	.+1		;IF TEST FAILS, CHANGE THIS INSTRUCTION (JUMPA .+1) TO
 37385									;JUMPA X (X IS THE ADDRESS OF THE FIRST INSTRUCTION
 37386									;IN THE SUBTEST) TO LOOP ON ERROR^
 37387
 37388
 37389					;**********
 37390
 37391					;THIS TEST VERIFIES THAT HLLZS CLEARS THE RIGHT HALF OF E, BUT DOESN'T
 37392					;AFFECT THE LEFT HALF OF E.  IF AC IS NON-ZERO, THE RESULT IN E IS
 37393					;ALSO PLACED INTO THE AC.
 37394					;IN THIS CASE, AC=1, C(AC)=-1,,-1 AND C(E)=123456,,707070
 37395					;HENCE, THE RESULTS IN AC AND E SHOULD BE 123456,,0
 37396					;AND 123456,,0 RESPECTIVELY.
 37397
 37398	053710	474 01 0 00 000000 	C64310:	SETO	1,		;PRELOAD AC WITH -1,,-1
 37399	053711	200 17 0 00 070725 		MOVE	17,[123456,,707070]	;PRELOAD E WITH 123456,,707070
 37400	053712	513 01 0 00 000017 		HLLZS	1,17		;*HLLZS SHOULD PLACE 123456,,0 INTO
 37401									;BOTH AC AND E
 37402	053713	312 01 0 00 070377 		CAME	1,[123456,,0]	;PASS IF C(AC)=123456,,0
 37403						STOP^
 37404	053714	254 04 0 00 053715 		HALT	.+1		;TEST FAILED IF PROGRAM HALTS HERE
 37405	053715	324 00 0 00 053716 		JUMPA	.+1		;IF TEST FAILS, CHANGE THIS INSTRUCTION (JUMPA .+1) TO
 37406									;JUMPA X (X IS THE ADDRESS OF THE FIRST INSTRUCTION
 37407									;IN THE SUBTEST) TO LOOP ON ERROR^
 37408	053716	312 17 0 00 070377 		CAME	17,[123456,,0]	;PASS IF C(E)=123456,,0
 37409						STOP^
 37410	053717	254 04 0 00 053720 		HALT	.+1		;TEST FAILED IF PROGRAM HALTS HERE
 37411	053720	324 00 0 00 053721 		JUMPA	.+1		;IF TEST FAILS, CHANGE THIS INSTRUCTION (JUMPA .+1) TO
 37412									;JUMPA X (X IS THE ADDRESS OF THE FIRST INSTRUCTION
 37413									;IN THE SUBTEST) TO LOOP ON ERROR^
 37414
 37415					;**********
DFKAA PDP-10 KL10 BASIC INSTRUCTION DIAGNOSTIC (1) VER 0,2	MACRO %52(537) 09:34 31-JAN-77 PAGE 29
DFKAA6	MAC	25-AUG-75 14:01		TEST OF MSCL HWT INSTRUCTIONS                                                      SEQ 0857

 37416					;THIS TEST VERIFIES THAT HRLZM PLACES C(AC-RIGHT) INTO E-LEFT AND
 37417					;PLACES O INTO E-RIGHT.
 37418					;IN THIS CASE, C(AC)=123456,,123422 AND C(E)=707070,,717171
 37419					;HENCE, THE RESULT IN E SHOULD BE 123422,,0
 37420
 37421	053721	200 01 0 00 070726 	C64400:	MOVE	1,[123456,,123422]	;PRELOAD AC WITH 123456,,123422
 37422	053722	200 02 0 00 070727 		MOVE	2,[707070,,717171]	;PRELOAD AC WITH 707070,,717171
 37423	053723	516 01 0 00 000002 		HRLZM	1,2		;*HRLZM SHOULD PLACE 123422,,0 INTO E
 37424	053724	312 01 0 00 070726 		CAME	1,[123456,,123422]	;PASS IF C(AC) UNCHANGED
 37425						STOP^
 37426	053725	254 04 0 00 053726 		HALT	.+1		;TEST FAILED IF PROGRAM HALTS HERE
 37427	053726	324 00 0 00 053727 		JUMPA	.+1		;IF TEST FAILS, CHANGE THIS INSTRUCTION (JUMPA .+1) TO
 37428									;JUMPA X (X IS THE ADDRESS OF THE FIRST INSTRUCTION
 37429									;IN THE SUBTEST) TO LOOP ON ERROR^
 37430	053727	312 02 0 00 070730 		CAME	2,[123422,,0]	;PASS IF C(E)=123422,,0
 37431						STOP^
 37432	053730	254 04 0 00 053731 		HALT	.+1		;TEST FAILED IF PROGRAM HALTS HERE
 37433	053731	324 00 0 00 053732 		JUMPA	.+1		;IF TEST FAILS, CHANGE THIS INSTRUCTION (JUMPA .+1) TO
 37434									;JUMPA X (X IS THE ADDRESS OF THE FIRST INSTRUCTION
 37435									;IN THE SUBTEST) TO LOOP ON ERROR^
 37436
 37437					;**********
 37438
 37439					;THIS TEST VERIFIES THAT HRLZS PLACES C(E-RIGHT) INTO E-LEFT AND
 37440					;CLEARS E-RIGHT. IF AC IS NON-ZERO, THE RESULT IN E IS ALSO
 37441					;PLACED INTO THE AC.
 37442					;IN THIS CASE, AC=0, C(AC)=-1,,-1 AND C(E)=123456,,707076
 37443					;HENCE, THE RESULTS IN AC AND E RESPECTIVELY SHOULD BE -1,,-1
 37444					;AND 707076,,0
 37445
 37446	053732	474 00 0 00 000000 	C64500:	SETO	0,		;PRELOAD AC WITH -1,,-1
 37447	053733	200 16 0 00 070731 		MOVE	16,[123456,,707076]	;PRELOAD E WITH 123456,,707076
 37448	053734	517 00 0 00 000016 		HRLZS	0,16		;*HRLZS SHOULD PLACE 707076,,0
 37449									;INTO E.
 37450	053735	312 00 0 00 070254 		CAME	0,[-1]		;PASS IF C(AC) UNCHANGED
 37451						STOP^
 37452	053736	254 04 0 00 053737 		HALT	.+1		;TEST FAILED IF PROGRAM HALTS HERE
 37453	053737	324 00 0 00 053740 		JUMPA	.+1		;IF TEST FAILS, CHANGE THIS INSTRUCTION (JUMPA .+1) TO
 37454									;JUMPA X (X IS THE ADDRESS OF THE FIRST INSTRUCTION
 37455									;IN THE SUBTEST) TO LOOP ON ERROR^
 37456	053740	312 16 0 00 070732 		CAME	16,[707076,,0]	;PASS IF C(AC)=707076,,0
 37457						STOP^
 37458	053741	254 04 0 00 053742 		HALT	.+1		;TEST FAILED IF PROGRAM HALTS HERE
 37459	053742	324 00 0 00 053743 		JUMPA	.+1		;IF TEST FAILS, CHANGE THIS INSTRUCTION (JUMPA .+1) TO
 37460									;JUMPA X (X IS THE ADDRESS OF THE FIRST INSTRUCTION
 37461									;IN THE SUBTEST) TO LOOP ON ERROR^
 37462
 37463					;**********
DFKAA PDP-10 KL10 BASIC INSTRUCTION DIAGNOSTIC (1) VER 0,2	MACRO %52(537) 09:34 31-JAN-77 PAGE 30
DFKAA6	MAC	25-AUG-75 14:01		TEST OF MSCL HWT INSTRUCTIONS                                                      SEQ 0858

 37464					;THIS TEST VERIFIES THAT HRLZS PLACES C(E-RIGHT) INTO E-LEFT AND
 37465					;CLEARS E-RIGHT.  IF AC IS NON-ZERO, THE RESULT IN E IS ALSO
 37466					;PLACED INTO THE AC.
 37467					;IN THIS CASE, AC=1, C(AC)=-1,,-1 AND C(E)=123456,,707076
 37468					;HENCE, THE RESULTS IN AC AND E RESPECTIVELY SHOULD BE 707076,,0
 37469					;AND 707076,,0
 37470
 37471	053743	474 01 0 00 000000 	C64510:	SETO	1,		;PRELOAD AC WITH -1,,-1
 37472	053744	200 16 0 00 070731 		MOVE	16,[123456,,707076]	;PRELOAD E WITH 123456,,707076
 37473	053745	517 01 0 00 000016 		HRLZS	1,16		;*HRLZS SHOULD PLACE 707076,,0
 37474									;INTO BOTH AC AND E.
 37475	053746	312 01 0 00 070732 		CAME	1,[707076,,0]	;PASS IF C(AC)=707076,,0
 37476						STOP^
 37477	053747	254 04 0 00 053750 		HALT	.+1		;TEST FAILED IF PROGRAM HALTS HERE
 37478	053750	324 00 0 00 053751 		JUMPA	.+1		;IF TEST FAILS, CHANGE THIS INSTRUCTION (JUMPA .+1) TO
 37479									;JUMPA X (X IS THE ADDRESS OF THE FIRST INSTRUCTION
 37480									;IN THE SUBTEST) TO LOOP ON ERROR^
 37481	053751	312 16 0 00 070732 		CAME	16,[707076,,0]	;PASS IF C(AC)=707076,,0
 37482						STOP^
 37483	053752	254 04 0 00 053753 		HALT	.+1		;TEST FAILED IF PROGRAM HALTS HERE
 37484	053753	324 00 0 00 053754 		JUMPA	.+1		;IF TEST FAILS, CHANGE THIS INSTRUCTION (JUMPA .+1) TO
 37485									;JUMPA X (X IS THE ADDRESS OF THE FIRST INSTRUCTION
 37486									;IN THE SUBTEST) TO LOOP ON ERROR^
 37487
 37488					;**********
 37489
 37490					;THIS TEST VERIFIES THAT HLLOM PLACES C(AC-LEFT) INTO E-LEFT AND
 37491					;PLACES -1 INTO E-RIGHT.
 37492					;IN THIS CASE, C(AC)=123456,,123422 AND C(E)=707070,,717171
 37493					;HENCE, THE RESULT IN E SHOULD BE 123456,,-1.
 37494
 37495	053754	200 01 0 00 070726 	C64600:	MOVE	1,[123456,,123422]	;PRELOAD AC WITH 123456,,123422
 37496	053755	200 02 0 00 070727 		MOVE	2,[707070,,717171]	;PRELOAD AC WITH 707070,,717171
 37497	053756	522 01 0 00 000002 		HLLOM	1,2		;*HLLOM SHOULD PLACE 123456,,-1 INTO E
 37498	053757	312 01 0 00 070726 		CAME	1,[123456,,123422]	;PASS IF C(AC) UNCHANGED
 37499						STOP^
 37500	053760	254 04 0 00 053761 		HALT	.+1		;TEST FAILED IF PROGRAM HALTS HERE
 37501	053761	324 00 0 00 053762 		JUMPA	.+1		;IF TEST FAILS, CHANGE THIS INSTRUCTION (JUMPA .+1) TO
 37502									;JUMPA X (X IS THE ADDRESS OF THE FIRST INSTRUCTION
 37503									;IN THE SUBTEST) TO LOOP ON ERROR^
 37504	053762	312 02 0 00 070733 		CAME	2,[123456,,-1]	;PASS IF C(E)=123456,,-1
 37505						STOP^
 37506	053763	254 04 0 00 053764 		HALT	.+1		;TEST FAILED IF PROGRAM HALTS HERE
 37507	053764	324 00 0 00 053765 		JUMPA	.+1		;IF TEST FAILS, CHANGE THIS INSTRUCTION (JUMPA .+1) TO
 37508									;JUMPA X (X IS THE ADDRESS OF THE FIRST INSTRUCTION
 37509									;IN THE SUBTEST) TO LOOP ON ERROR^
 37510
 37511					;**********
DFKAA PDP-10 KL10 BASIC INSTRUCTION DIAGNOSTIC (1) VER 0,2	MACRO %52(537) 09:34 31-JAN-77 PAGE 31
DFKAA6	MAC	25-AUG-75 14:01		TEST OF MSCL HWT INSTRUCTIONS                                                      SEQ 0859

 37512					;THIS TEST VERIFIES THAT HRLO, C(E-RIGHT) INTO AC=LEFT AND
 37513					;PLACES -1 INTO AC-RIGHT.  IN THIS CASE, C(AC)=123456,,135724 AND
 37514					;C(E)=765432,,246135.  HENCE, THE RESULT IN THE AC SHOULD BE 246135,,-1
 37515
 37516	053765	200 15 0 00 070734 	C64700:	MOVE	15,[123456,,135724]	;PRELOAD AC WITH 123456,,135724
 37517	053766	200 16 0 00 070735 		MOVE	16,[765432,,246135]	;PRELOAD E WITH 765432,,246135
 37518	053767	524 15 0 00 000016 		HRLO	15,16		;*HRLO SHOULD PLACE 246135,,-1 INTO AC
 37519	053770	312 15 0 00 070736 		CAME	15,[246135,,-1]	;PASS IF C(AC)=246135,,-1
 37520						STOP^
 37521	053771	254 04 0 00 053772 		HALT	.+1		;TEST FAILED IF PROGRAM HALTS HERE
 37522	053772	324 00 0 00 053773 		JUMPA	.+1		;IF TEST FAILS, CHANGE THIS INSTRUCTION (JUMPA .+1) TO
 37523									;JUMPA X (X IS THE ADDRESS OF THE FIRST INSTRUCTION
 37524									;IN THE SUBTEST) TO LOOP ON ERROR^
 37525	053773	312 16 0 00 070735 		CAME	16,[765432,,246135]	;PASS IF C(E) UNCHANGED
 37526						STOP^
 37527	053774	254 04 0 00 053775 		HALT	.+1		;TEST FAILED IF PROGRAM HALTS HERE
 37528	053775	324 00 0 00 053776 		JUMPA	.+1		;IF TEST FAILS, CHANGE THIS INSTRUCTION (JUMPA .+1) TO
 37529									;JUMPA X (X IS THE ADDRESS OF THE FIRST INSTRUCTION
 37530									;IN THE SUBTEST) TO LOOP ON ERROR^
 37531
 37532					;**********
 37533
 37534					;THIS TEST VERIFIES THAT HRLOI PLACES 0,,E INTO AC-LEFT AND
 37535					;PLACES ONES INTO AC-RIGHT.  IN THIS CASE, C(AC)=0 AND E=0,,123456.
 37536					;HENCE, THE RESULT IN THE AC SHOULD BE 123456,,-1
 37537
 37538	053776	400 14 0 00 000000 	C65000:	SETZ	14,		;CLEAR AC
 37539	053777	525 14 0 00 123456 		HRLOI	14,123456	;*HRLOI SHOULD PLACE 123456,,-1 INTO THE AC
 37540	054000	312 14 0 00 070733 		CAME	14,[123456,,-1]	;PASS IF C(AC)=123456,,-1
 37541						STOP^
 37542	054001	254 04 0 00 054002 		HALT	.+1		;TEST FAILED IF PROGRAM HALTS HERE
 37543	054002	324 00 0 00 054003 		JUMPA	.+1		;IF TEST FAILS, CHANGE THIS INSTRUCTION (JUMPA .+1) TO
 37544									;JUMPA X (X IS THE ADDRESS OF THE FIRST INSTRUCTION
 37545									;IN THE SUBTEST) TO LOOP ON ERROR^
 37546
 37547					;**********
DFKAA PDP-10 KL10 BASIC INSTRUCTION DIAGNOSTIC (1) VER 0,2	MACRO %52(537) 09:34 31-JAN-77 PAGE 32
DFKAA6	MAC	25-AUG-75 14:01		TEST OF MSCL HWT INSTRUCTIONS                                                      SEQ 0860

 37548					;THIS TEST VERIFIES THAT HRLOM PLACES C(AC-RIGHT) INTO E-LEFT
 37549					;AND PLACES -1 INTO E-RIGHT. IN THIS CASE, C(E)=0 AND C(AC)=123123,,456765
 37550					;HENCE, THE RESULT IN E SHOULD BE 456765,,-1.
 37551
 37552	054003	402 00 0 00 000014 	C65100:	SETZM	14		;CLEAR E
 37553	054004	200 13 0 00 070737 		MOVE	13,[123123,,456765]	;PRELOAD AC WITH 123123,,456765
 37554	054005	526 13 0 00 000014 		HRLOM	13,14		;*HRLOM SHOULD PLACE 456765,,-1 INTO E
 37555	054006	312 13 0 00 070737 		CAME	13,[123123,,456765]	;PASS IF C(AC) UNCHANGED
 37556
 37557						STOP^
 37558	054007	254 04 0 00 054010 		HALT	.+1		;TEST FAILED IF PROGRAM HALTS HERE
 37559	054010	324 00 0 00 054011 		JUMPA	.+1		;IF TEST FAILS, CHANGE THIS INSTRUCTION (JUMPA .+1) TO
 37560									;JUMPA X (X IS THE ADDRESS OF THE FIRST INSTRUCTION
 37561									;IN THE SUBTEST) TO LOOP ON ERROR^
 37562	054011	312 14 0 00 070740 		CAME	14,[456765,,-1]	;PASS IF C(E)=456765,,-1
 37563						STOP^
 37564	054012	254 04 0 00 054013 		HALT	.+1		;TEST FAILED IF PROGRAM HALTS HERE
 37565	054013	324 00 0 00 054014 		JUMPA	.+1		;IF TEST FAILS, CHANGE THIS INSTRUCTION (JUMPA .+1) TO
 37566									;JUMPA X (X IS THE ADDRESS OF THE FIRST INSTRUCTION
 37567									;IN THE SUBTEST) TO LOOP ON ERROR^
 37568
 37569					;**********
 37570
 37571
 37572					;THIS TEST VERIFIES THAT HRLOS PLACES C(E-RIGHT) INTO E-LEFT AND
 37573					;PLACES -1 INTO E-RIGHT. IF AC IS NON-ZERO, THE RESULT IN E IS ALOS
 37574					;PLACED INTO THE AC.
 37575					;IN THIS CASE, AC=0, C(AC)=0 AND C(E)=123456,,707076
 37576					;HENCE, THE RESULTS IN AC AND E RESPECTIVELY SHOULD BE 0
 37577					;AND 707076,,0
 37578
 37579	054014	400 00 0 00 000000 	C65200:	SETZ	0,		;PRELOAD AC WITH 0
 37580	054015	200 16 0 00 070731 		MOVE	16,[123456,,707076]	;PRELOAD E WITH 123456,,707076
 37581	054016	527 00 0 00 000016 		HRLOS	0,16		;*HRLZS SHOULD PLACE 707076,,-1
 37582									;INTO E.
 37583	054017	312 00 0 00 070253 		CAME	0,[0]		;PASS IF C(AC) UNCHANGED
 37584						STOP^
 37585	054020	254 04 0 00 054021 		HALT	.+1		;TEST FAILED IF PROGRAM HALTS HERE
 37586	054021	324 00 0 00 054022 		JUMPA	.+1		;IF TEST FAILS, CHANGE THIS INSTRUCTION (JUMPA .+1) TO
 37587									;JUMPA X (X IS THE ADDRESS OF THE FIRST INSTRUCTION
 37588									;IN THE SUBTEST) TO LOOP ON ERROR^
 37589	054022	312 16 0 00 070741 		CAME	16,[707076,,-1]	;PASS IF C(AC)=707076,,-1
 37590						STOP^
 37591	054023	254 04 0 00 054024 		HALT	.+1		;TEST FAILED IF PROGRAM HALTS HERE
 37592	054024	324 00 0 00 054025 		JUMPA	.+1		;IF TEST FAILS, CHANGE THIS INSTRUCTION (JUMPA .+1) TO
 37593									;JUMPA X (X IS THE ADDRESS OF THE FIRST INSTRUCTION
 37594									;IN THE SUBTEST) TO LOOP ON ERROR^
 37595
 37596					;**********
DFKAA PDP-10 KL10 BASIC INSTRUCTION DIAGNOSTIC (1) VER 0,2	MACRO %52(537) 09:34 31-JAN-77 PAGE 33
DFKAA6	MAC	25-AUG-75 14:01		TEST OF MSCL HWT INSTRUCTIONS                                                      SEQ 0861

 37597					;THIS TEST VERIFIES THAT HRLOS PLACES C(E-RIGHT) INTO E-LEFT AND
 37598					;PLACES -1 INTO E-RIGHT. IF AC IS NON-ZERO, THE RESULT IN E IS ALSO
 37599					;PLACED INTO THE AC.
 37600					;IN THIS CASE, AC=1, C(AC)=0 AND C(E)=123456,,707076
 37601					;HENCE, THE RESULTS IN AC AND E RESPECTIVELY SHOULD BE 707076,,-1
 37602					;AND 707076,,-1
 37603
 37604	054025	400 01 0 00 000000 	C65210:	SETZ	1,		;PRELOAD AC WITH 0
 37605	054026	200 16 0 00 070731 		MOVE	16,[123456,,707076]	;PRELOAD E WITH 123456,,707076
 37606	054027	527 01 0 00 000016 		HRLOS	1,16		;*HRLZS SHOULD PLACE 707076,,-1
 37607									;INTO BOTH AC AND E
 37608	054030	312 01 0 00 070741 		CAME	1,[707076,,-1]	;PASS IF C(AC)=707076,,-1
 37609						STOP^
 37610	054031	254 04 0 00 054032 		HALT	.+1		;TEST FAILED IF PROGRAM HALTS HERE
 37611	054032	324 00 0 00 054033 		JUMPA	.+1		;IF TEST FAILS, CHANGE THIS INSTRUCTION (JUMPA .+1) TO
 37612									;JUMPA X (X IS THE ADDRESS OF THE FIRST INSTRUCTION
 37613									;IN THE SUBTEST) TO LOOP ON ERROR^
 37614	054033	312 16 0 00 070741 		CAME	16,[707076,,-1]	;PASS IF C(AC)=707076,,-1
 37615						STOP^
 37616	054034	254 04 0 00 054035 		HALT	.+1		;TEST FAILED IF PROGRAM HALTS HERE
 37617	054035	324 00 0 00 054036 		JUMPA	.+1		;IF TEST FAILS, CHANGE THIS INSTRUCTION (JUMPA .+1) TO
 37618									;JUMPA X (X IS THE ADDRESS OF THE FIRST INSTRUCTION
 37619									;IN THE SUBTEST) TO LOOP ON ERROR^
 37620
 37621					;**********
 37622
 37623					;THIS TEST VERIFIES THAT HLLEM PLACES C(AC-LEFT) INTO E-LEFT
 37624					;AND PLACES BIT 0 OF THE AC INTO BITS 18 THRU 35 OF E.  IN THIS CASE,
 37625					;C(AC)=123456,,707076 AND C(E)=-1,,-1.  HENCE, THE RESULT IN E
 37626					;SHOULD BE 123456,,0.
 37627
 37628	054036	200 12 0 00 070731 	C65300:	MOVE	12,[123456,,707076]	;PRELOAD AC WITH 123456,,707076
 37629	054037	476 00 0 00 000013 		SETOM	13		;PRELOAD E WITH -1,,-1
 37630	054040	532 12 0 00 000013 		HLLEM	12,13		;*HLLEM SHOULD PLACE 123456,,0 INTO E
 37631	054041	312 12 0 00 070731 		CAME	12,[123456,,707076]	;PASS IF C(AC) UNCHANGED
 37632						STOP^
 37633	054042	254 04 0 00 054043 		HALT	.+1		;TEST FAILED IF PROGRAM HALTS HERE
 37634	054043	324 00 0 00 054044 		JUMPA	.+1		;IF TEST FAILS, CHANGE THIS INSTRUCTION (JUMPA .+1) TO
 37635									;JUMPA X (X IS THE ADDRESS OF THE FIRST INSTRUCTION
 37636									;IN THE SUBTEST) TO LOOP ON ERROR^
 37637	054044	312 13 0 00 070377 		CAME	13,[123456,,0]	;PASS IF C(E)=123456,,0
 37638						STOP^
 37639	054045	254 04 0 00 054046 		HALT	.+1		;TEST FAILED IF PROGRAM HALTS HERE
 37640	054046	324 00 0 00 054047 		JUMPA	.+1		;IF TEST FAILS, CHANGE THIS INSTRUCTION (JUMPA .+1) TO
 37641									;JUMPA X (X IS THE ADDRESS OF THE FIRST INSTRUCTION
 37642									;IN THE SUBTEST) TO LOOP ON ERROR^
 37643
 37644					;**********
DFKAA PDP-10 KL10 BASIC INSTRUCTION DIAGNOSTIC (1) VER 0,2	MACRO %52(537) 09:34 31-JAN-77 PAGE 34
DFKAA6	MAC	25-AUG-75 14:01		TEST OF MSCL HWT INSTRUCTIONS                                                      SEQ 0862

 37645					;THIS TEST VERIFIES THAT HLLES PLACES C(E-LEFT) INTO E-LEFT AND
 37646					;PLACES BIT 0 OF E INTO BITS 18 THRU 35 OF E.  IF AC IS NON-ZERO
 37647					;THE RESULT IN E IS ALSO PLACED INTO THE AC.
 37648					;IN THIS CASE, AC=0, C(AC)=0 AND C(E)=765432,,0.
 37649					;HENCE, THE RESULTS IN AC AND E SHOULD BE 0
 37650					;AND 765432,,-1 RESPECTIVELY.
 37651
 37652	054047	400 00 0 00 000000 	C65400:	SETZ	0,		;CLEAR AC
 37653	054050	515 02 0 00 765432 		HRLZI	2,765432	;PRELOAD E WITH 765432,,0
 37654	054051	533 00 0 00 000002 		HLLES	0,2		;*HLLES SHOULD PLACE 765432,,-1
 37655									;INTO E
 37656	054052	312 00 0 00 070253 		CAME	0,[0]		;PASS IF C(AC) UNCHANGED
 37657						STOP^
 37658	054053	254 04 0 00 054054 		HALT	.+1		;TEST FAILED IF PROGRAM HALTS HERE
 37659	054054	324 00 0 00 054055 		JUMPA	.+1		;IF TEST FAILS, CHANGE THIS INSTRUCTION (JUMPA .+1) TO
 37660									;JUMPA X (X IS THE ADDRESS OF THE FIRST INSTRUCTION
 37661									;IN THE SUBTEST) TO LOOP ON ERROR^
 37662	054055	312 02 0 00 070742 		CAME	2,[765432,,-1]	;PASS IF C(E)=765432,,-1
 37663						STOP^
 37664	054056	254 04 0 00 054057 		HALT	.+1		;TEST FAILED IF PROGRAM HALTS HERE
 37665	054057	324 00 0 00 054060 		JUMPA	.+1		;IF TEST FAILS, CHANGE THIS INSTRUCTION (JUMPA .+1) TO
 37666									;JUMPA X (X IS THE ADDRESS OF THE FIRST INSTRUCTION
 37667									;IN THE SUBTEST) TO LOOP ON ERROR^
 37668
 37669					;**********
 37670
 37671					;THIS TEST VERIFIES THAT HLLES PLACES C(E-LEFT) INTO E-LEFT AND
 37672					;PLACES BIT 0 OF E INTO BITS 18 THRU 35 OF E.  IF AC IS NON-ZERO,
 37673					;THE RESULT IN E IS ALSO PLACED INTO THE AC.
 37674					;IN THIS CASE, AC=1, C(AC)=0 AND C(E)=765432,,0
 37675					;HENCE, THE RESULTS IN AC AND E SHOULD BE 765432,,-1
 37676					;AND 765432,,-1 RESPECTIVELY
 37677
 37678	054060	400 01 0 00 000000 	C65410:	SETZ	1,		;CLEAR AC
 37679	054061	515 02 0 00 765432 		HRLZI	2,765432	;PRELOAD E WITH 765432,,0
 37680	054062	533 01 0 00 000002 		HLLES	1,2		;*HLLES SHOULD PLACE 765432,,-1
 37681									;INTO BOTH AC AND E
 37682	054063	312 01 0 00 070742 		CAME	1,[765432,,-1]	;PASS IF C(AC)=765432,,-1
 37683						STOP^
 37684	054064	254 04 0 00 054065 		HALT	.+1		;TEST FAILED IF PROGRAM HALTS HERE
 37685	054065	324 00 0 00 054066 		JUMPA	.+1		;IF TEST FAILS, CHANGE THIS INSTRUCTION (JUMPA .+1) TO
 37686									;JUMPA X (X IS THE ADDRESS OF THE FIRST INSTRUCTION
 37687									;IN THE SUBTEST) TO LOOP ON ERROR^
 37688	054066	312 02 0 00 070742 		CAME	2,[765432,,-1]	;PASS IF C(E)=765432,,-1
 37689						STOP^
 37690	054067	254 04 0 00 054070 		HALT	.+1		;TEST FAILED IF PROGRAM HALTS HERE
 37691	054070	324 00 0 00 054071 		JUMPA	.+1		;IF TEST FAILS, CHANGE THIS INSTRUCTION (JUMPA .+1) TO
 37692									;JUMPA X (X IS THE ADDRESS OF THE FIRST INSTRUCTION
 37693									;IN THE SUBTEST) TO LOOP ON ERROR^
 37694
 37695					;**********
DFKAA PDP-10 KL10 BASIC INSTRUCTION DIAGNOSTIC (1) VER 0,2	MACRO %52(537) 09:34 31-JAN-77 PAGE 35
DFKAA6	MAC	25-AUG-75 14:01		TEST OF MSCL HWT INSTRUCTIONS                                                      SEQ 0863

 37696					;THIS TEST VERIFIES THAT HLLEM PLACES C(AC-RIGHT) INTO E-LEFT
 37697					;AND PLACES BIT 18 OF THE AC INTO BITS 18 THRU 35 OF E.  IN THIS CASE,
 37698					;C(AC)=365432,123456 AND C(E)=-1,,-1.  HENCE, THE RESULT IN E
 37699					;SHOULD BE 365432,,0.
 37700
 37701	054071	200 12 0 00 070743 	C65500:	MOVE	12,[365432,,123456]	;PRELOAD AC WITH 365432,,123456
 37702	054072	476 00 0 00 000013 		SETOM	13		;PRELOAD E WITH -1,,-1
 37703	054073	532 12 0 00 000013 		HLLEM	12,13		;*HLLEM SHOULD PLACE 365432,,0 INTO E
 37704	054074	312 12 0 00 070743 		CAME	12,[365432,,123456]	;PASS IF C(AC) UNCHANGED
 37705						STOP^
 37706	054075	254 04 0 00 054076 		HALT	.+1		;TEST FAILED IF PROGRAM HALTS HERE
 37707	054076	324 00 0 00 054077 		JUMPA	.+1		;IF TEST FAILS, CHANGE THIS INSTRUCTION (JUMPA .+1) TO
 37708									;JUMPA X (X IS THE ADDRESS OF THE FIRST INSTRUCTION
 37709									;IN THE SUBTEST) TO LOOP ON ERROR^
 37710	054077	312 13 0 00 070744 		CAME	13,[365432,,0]	;PASS IF C(E)=365432,,0
 37711						STOP^
 37712	054100	254 04 0 00 054101 		HALT	.+1		;TEST FAILED IF PROGRAM HALTS HERE
 37713	054101	324 00 0 00 054102 		JUMPA	.+1		;IF TEST FAILS, CHANGE THIS INSTRUCTION (JUMPA .+1) TO
 37714									;JUMPA X (X IS THE ADDRESS OF THE FIRST INSTRUCTION
 37715									;IN THE SUBTEST) TO LOOP ON ERROR^
 37716
 37717					;**********
 37718
 37719					;THIS TEST VERIFIES THAT HRLES PLACES C(E-RIGHT) INTO E-LEFT AND
 37720					;PLACES BIT 18 OF E INTO BITS 18 THRU 35 OF E.  IF AC IS NON-ZERO,
 37721					;THE RESULT IN E IS ALSO PLACED INTO THE AC.
 37722					;IN THIS CASE, AC=0, C(AC)=0 AND C(E)=0,,765432
 37723					;HENCE, THE RESULTS IN AC AND E SHOULD BE 0
 37724					;AND 765432,,-1 RESPECTIVELY
 37725
 37726	054102	400 00 0 00 000000 	C65600:	SETZ	0,		;CLEAR AC
 37727	054103	551 02 0 00 765432 		HRRZI	2,765432	;PRELOAD E WITH 0,,765432
 37728	054104	537 00 0 00 000002 		HRLES	0,2		;*HLLES SHOULD PLACE 765432,,-1
 37729									;INTO
 37730	054105	312 00 0 00 070253 		CAME	0,[0]		;PASS IF C(AC) UNCHANGED
 37731						STOP^
 37732	054106	254 04 0 00 054107 		HALT	.+1		;TEST FAILED IF PROGRAM HALTS HERE
 37733	054107	324 00 0 00 054110 		JUMPA	.+1		;IF TEST FAILS, CHANGE THIS INSTRUCTION (JUMPA .+1) TO
 37734									;JUMPA X (X IS THE ADDRESS OF THE FIRST INSTRUCTION
 37735									;IN THE SUBTEST) TO LOOP ON ERROR^
 37736	054110	312 02 0 00 070742 		CAME	2,[765432,,-1]	;PASS IF C(E)=765432,,-1
 37737						STOP^
 37738	054111	254 04 0 00 054112 		HALT	.+1		;TEST FAILED IF PROGRAM HALTS HERE
 37739	054112	324 00 0 00 054113 		JUMPA	.+1		;IF TEST FAILS, CHANGE THIS INSTRUCTION (JUMPA .+1) TO
 37740									;JUMPA X (X IS THE ADDRESS OF THE FIRST INSTRUCTION
 37741									;IN THE SUBTEST) TO LOOP ON ERROR^
 37742
 37743					;**********
DFKAA PDP-10 KL10 BASIC INSTRUCTION DIAGNOSTIC (1) VER 0,2	MACRO %52(537) 09:34 31-JAN-77 PAGE 36
DFKAA6	MAC	25-AUG-75 14:01		TEST OF MSCL HWT INSTRUCTIONS                                                      SEQ 0864

 37744					;THIS TEST VERIFIES THAT HRLES PLACES C(E-RIGHT) INTO E-LEFT AND
 37745					;PLACES BIT 18 OF E INTO BITS 18 THRU 35 OF E.  IF AC IS NON-ZERO,
 37746					;THE RESULT IN E IS ALSO PLACED INTO THE AC.
 37747					;IN THIS CASE, AC=1, C(AC)=0 AND C(E)=0,,765432
 37748					;HENCE, THE RESULTS IN AC AND E SHOULD BE 765432,,-1
 37749					;AND 765432,,-1 RESPECTIVELY.
 37750
 37751	054113	400 01 0 00 000000 	C65610:	SETZ	1,		;CLEAR AC
 37752	054114	551 02 0 00 765432 		HRRZI	2,765432	;PRELOAD E WITH 0,765432
 37753	054115	537 01 0 00 000002 		HRLES	1,2		;*HLLES SHOULD PLACE 765432,,-1
 37754									;INTO BOTH AC AND E
 37755	054116	312 01 0 00 070742 		CAME	1,[765432,,-1]	;PASS IF C(AC)=765442,,-1
 37756						STOP^
 37757	054117	254 04 0 00 054120 		HALT	.+1		;TEST FAILED IF PROGRAM HALTS HERE
 37758	054120	324 00 0 00 054121 		JUMPA	.+1		;IF TEST FAILS, CHANGE THIS INSTRUCTION (JUMPA .+1) TO
 37759									;JUMPA X (X IS THE ADDRESS OF THE FIRST INSTRUCTION
 37760									;IN THE SUBTEST) TO LOOP ON ERROR^
 37761	054121	312 02 0 00 070742 		CAME	2,[765432,,-1]	;PASS IF C(E)=765432,,-1
 37762						STOP^
 37763	054122	254 04 0 00 054123 		HALT	.+1		;TEST FAILED IF PROGRAM HALTS HERE
 37764	054123	324 00 0 00 054124 		JUMPA	.+1		;IF TEST FAILS, CHANGE THIS INSTRUCTION (JUMPA .+1) TO
 37765									;JUMPA X (X IS THE ADDRESS OF THE FIRST INSTRUCTION
 37766									;IN THE SUBTEST) TO LOOP ON ERROR^
 37767
 37768
 37769					;**********
 37770
 37771					;THIS TEST VERIFIES THAT HLRM SHOULD PLACE C(AC-LEFT) INTO E-RIGHT
 37772					;AND NOT AFFECT E-LEFT.  IN THIS CASE, C(AC)=123456,,701234
 37773					;AND C(E)=0.  HENCE, THE RESULT IN E SHOULD BE 0,,123456
 37774
 37775	054124	200 11 0 00 070745 	C65700:	MOVE	11,[123456,,701234]	;PRELOAD AC WITH 123456,,701234
 37776	054125	402 00 0 00 000012 		SETZM	12		;CLEAR E
 37777	054126	546 11 0 00 000012 		HLRM	11,12		;*HLRM SHOULD PLACE 0,,123456 INTO E
 37778	054127	312 11 0 00 070745 		CAME	11,[123456,,701234]	;PASS IF C(AC) UNCHANGE
 37779						STOP^
 37780	054130	254 04 0 00 054131 		HALT	.+1		;TEST FAILED IF PROGRAM HALTS HERE
 37781	054131	324 00 0 00 054132 		JUMPA	.+1		;IF TEST FAILS, CHANGE THIS INSTRUCTION (JUMPA .+1) TO
 37782									;JUMPA X (X IS THE ADDRESS OF THE FIRST INSTRUCTION
 37783									;IN THE SUBTEST) TO LOOP ON ERROR^
 37784	054132	302 12 0 00 123456 		CAIE	12,123456	;PASS IF C(E)=0,,123456
 37785						STOP^
 37786	054133	254 04 0 00 054134 		HALT	.+1		;TEST FAILED IF PROGRAM HALTS HERE
 37787	054134	324 00 0 00 054135 		JUMPA	.+1		;IF TEST FAILS, CHANGE THIS INSTRUCTION (JUMPA .+1) TO
 37788									;JUMPA X (X IS THE ADDRESS OF THE FIRST INSTRUCTION
 37789									;IN THE SUBTEST) TO LOOP ON ERROR^
 37790
 37791					;**********
DFKAA PDP-10 KL10 BASIC INSTRUCTION DIAGNOSTIC (1) VER 0,2	MACRO %52(537) 09:34 31-JAN-77 PAGE 37
DFKAA6	MAC	25-AUG-75 14:01		TEST OF MSCL HWT INSTRUCTIONS                                                      SEQ 0865

 37792					;THIS TEST VERIFIES THAT HLRS PLACES C(E-LEFT) INTO E-RIGHT AND
 37793					;DOES NOT AFFECT E-LEFT.  IF AC IS NON-ZERO, THE RESULT IN E
 37794					;IS ALSO PLACED INTO THE AC.
 37795					;IN THIS CASE, AC=0, C(AC)=0 AND C(E)=123123,,246135
 37796					;HENCE, THE RESULTS IN AC AND E SHOULD BE 0
 37797					;AND 123123,,123123 RESPECTIVELY.
 37798
 37799	054135	400 00 0 00 000000 	C66000:	SETZ	0,		;CLEAR AC
 37800	054136	200 12 0 00 070746 		MOVE	12,[123123,,246135]	;PRELOAD E WITH 123123,,246135
 37801	054137	547 00 0 00 000012 		HLRS	0,12		;*HLRS SHOULD PLACE 123123,,123123
 37802									;INTO E.
 37803	054140	312 00 0 00 070253 		CAME	0,[0]		;PASS IF C(AC) UNCHANGED
 37804						STOP^
 37805	054141	254 04 0 00 054142 		HALT	.+1		;TEST FAILED IF PROGRAM HALTS HERE
 37806	054142	324 00 0 00 054143 		JUMPA	.+1		;IF TEST FAILS, CHANGE THIS INSTRUCTION (JUMPA .+1) TO
 37807									;JUMPA X (X IS THE ADDRESS OF THE FIRST INSTRUCTION
 37808									;IN THE SUBTEST) TO LOOP ON ERROR^
 37809	054143	312 12 0 00 070747 		CAME	12,[123123,,123123]	;PASS IF C(E)=123123,,123123
 37810						STOP^
 37811	054144	254 04 0 00 054145 		HALT	.+1		;TEST FAILED IF PROGRAM HALTS HERE
 37812	054145	324 00 0 00 054146 		JUMPA	.+1		;IF TEST FAILS, CHANGE THIS INSTRUCTION (JUMPA .+1) TO
 37813									;JUMPA X (X IS THE ADDRESS OF THE FIRST INSTRUCTION
 37814									;IN THE SUBTEST) TO LOOP ON ERROR^
 37815
 37816
 37817					;**********
 37818
 37819					;THIS TEST VERIFIES THAT HLRS PLACES C(E-LEFT) INTO E-RIGHT AND
 37820					;DOES NOT AFFECT E-LEFT.  IF AC IS NON-ZERO, THE RESULT IN E
 37821					;IS ALSO PLACED INTO THE AC.
 37822					;IN THIS CASE, AC=1, C(AC)=0 AND C(E)=123123,,246135
 37823					;HENCE, THE RESULTS IN AC AND E SHOULD BE 123123,,123123
 37824					;AND 123123,,123123 RESPECTIVELY.
 37825
 37826	054146	400 01 0 00 000000 	C66010:	SETZ	1,		;CLEAR AC
 37827	054147	200 12 0 00 070746 		MOVE	12,[123123,,246135]	;PRELOAD E WITH 123123,,246135
 37828	054150	547 01 0 00 000012 		HLRS	1,12		;*HLRS SHOULD PLACE 123123,,123123
 37829									;INTO BOTH AC AND E.
 37830	054151	312 01 0 00 070747 		CAME	1,[123123,,123123]	;PASS IF C(AC)=123123,,123123
 37831						STOP^
 37832	054152	254 04 0 00 054153 		HALT	.+1		;TEST FAILED IF PROGRAM HALTS HERE
 37833	054153	324 00 0 00 054154 		JUMPA	.+1		;IF TEST FAILS, CHANGE THIS INSTRUCTION (JUMPA .+1) TO
 37834									;JUMPA X (X IS THE ADDRESS OF THE FIRST INSTRUCTION
 37835									;IN THE SUBTEST) TO LOOP ON ERROR^
 37836	054154	312 12 0 00 070747 		CAME	12,[123123,,123123]	;PASS IF C(E)=123123,,123123
 37837						STOP^
 37838	054155	254 04 0 00 054156 		HALT	.+1		;TEST FAILED IF PROGRAM HALTS HERE
 37839	054156	324 00 0 00 054157 		JUMPA	.+1		;IF TEST FAILS, CHANGE THIS INSTRUCTION (JUMPA .+1) TO
 37840									;JUMPA X (X IS THE ADDRESS OF THE FIRST INSTRUCTION
 37841									;IN THE SUBTEST) TO LOOP ON ERROR^
 37842
 37843					;**********
DFKAA PDP-10 KL10 BASIC INSTRUCTION DIAGNOSTIC (1) VER 0,2	MACRO %52(537) 09:34 31-JAN-77 PAGE 38
DFKAA6	MAC	25-AUG-75 14:01		TEST OF MSCL HWT INSTRUCTIONS                                                      SEQ 0866

 37844					;THIS TEST VERIFIES THAT HRRZS CLEARS THE LEFT HALF OF E, BUT DOES NOT
 37845					;AFFECT THE RIGHT HALF OF E.  IF AC IS NON-ZERO, THE RESULT IN E IS
 37846					;ALSO PLACED INTO THE AC.
 37847					;IN THIS CASE, AC = 0, C(AC) = -1,,-1 AND C(E) = 123456,,701234
 37848					;HENCE, THE RESULTS IN AC AND E SHOULD BE -1,,-1 AND 0,,701234
 37849					;RESPECTIVELY.
 37850
 37851	054157	474 00 0 00 000000 	C66100:	SETO	0		;PRELOAD AC WITH -1,,-1
 37852	054160	200 17 0 00 070745 		MOVE	17,[123456,,701234]  ;PRELOAD E WITH 123456,,701234
 37853	054161	553 00 0 00 000017 		HRRZS	0,17		;HRRZS SHOULD PLACE 0,,701234 INTO E
 37854	054162	312 00 0 00 070254 		CAME	0,[-1]		;PASS IF C(AC) UNCHANGED
 37855						STOP^
 37856	054163	254 04 0 00 054164 		HALT	.+1		;TEST FAILED IF PROGRAM HALTS HERE
 37857	054164	324 00 0 00 054165 		JUMPA	.+1		;IF TEST FAILS, CHANGE THIS INSTRUCTION (JUMPA .+1) TO
 37858									;JUMPA X (X IS THE ADDRESS OF THE FIRST INSTRUCTION
 37859									;IN THE SUBTEST) TO LOOP ON ERROR^
 37860	054165	302 17 0 00 701234 		CAIE	17,701234	;PASS IF C(E) = 0,,701234
 37861						STOP^
 37862	054166	254 04 0 00 054167 		HALT	.+1		;TEST FAILED IF PROGRAM HALTS HERE
 37863	054167	324 00 0 00 054170 		JUMPA	.+1		;IF TEST FAILS, CHANGE THIS INSTRUCTION (JUMPA .+1) TO
 37864									;JUMPA X (X IS THE ADDRESS OF THE FIRST INSTRUCTION
 37865									;IN THE SUBTEST) TO LOOP ON ERROR^
 37866
 37867					;**********
 37868
 37869					;THIS TEST VERIFIES THAT HRRZS CLEARS THE LEFT HALF OF E, BUT DOES NOT
 37870					;AFFECT THE RIGHT HALF OF E.  IF AC IS NON-ZERO, THE RESULT IN E IS
 37871					;ALSO PLACED INTO THE AC.
 37872					;IN THIS CASE, AC = 1, C(AC) = -1,,-1 AND C(E) = 123456,,701234
 37873					;HENCE, THE RESULTS IN AC AND E SHOULD BE 0,,701234 AND 0,,701234
 37874					;RESPECTIVELY.
 37875
 37876	054170	474 01 0 00 000000 	C66110:	SETO	1,		;PRELOAD AC WITH -1,,-1
 37877	054171	200 17 0 00 070745 		MOVE	17,[123456,,701234]  ;PRELOAD E WITH 123456,,701234
 37878	054172	553 01 0 00 000017 		HRRZS	1,17		;HRRZS SHOULD PLACE 0,,701234 INTO
 37879									;BOTH AC AND E
 37880	054173	302 01 0 00 701234 		CAIE	1,701234	;PASS IF C(AC) = 0,,701234
 37881						STOP^
 37882	054174	254 04 0 00 054175 		HALT	.+1		;TEST FAILED IF PROGRAM HALTS HERE
 37883	054175	324 00 0 00 054176 		JUMPA	.+1		;IF TEST FAILS, CHANGE THIS INSTRUCTION (JUMPA .+1) TO
 37884									;JUMPA X (X IS THE ADDRESS OF THE FIRST INSTRUCTION
 37885									;IN THE SUBTEST) TO LOOP ON ERROR^
 37886	054176	302 17 0 00 701234 		CAIE	17,701234	;PASS IF C(E) = 0,,701234
 37887						STOP^
 37888	054177	254 04 0 00 054200 		HALT	.+1		;TEST FAILED IF PROGRAM HALTS HERE
 37889	054200	324 00 0 00 054201 		JUMPA	.+1		;IF TEST FAILS, CHANGE THIS INSTRUCTION (JUMPA .+1) TO
 37890									;JUMPA X (X IS THE ADDRESS OF THE FIRST INSTRUCTION
 37891									;IN THE SUBTEST) TO LOOP ON ERROR^
 37892
 37893					;**********
DFKAA PDP-10 KL10 BASIC INSTRUCTION DIAGNOSTIC (1) VER 0,2	MACRO %52(537) 09:34 31-JAN-77 PAGE 39
DFKAA6	MAC	25-AUG-75 14:01		TEST OF MSCL HWT INSTRUCTIONS                                                      SEQ 0867

 37894					;THIS TEST VERIFIES THAT HLRZI CLEARS THE AC
 37895					;IN THIS CASE, C(AC) = -1,,-1 AND E = 0,,-1.  HENCE, THE
 37896					;RESULT IN THE AC SHOULD BE 0.
 37897
 37898	054201	474 00 0 00 000007 	C66200:	SETO	7		;PRELOAD AC WITH -1,,-1
 37899	054202	555 07 0 00 777777 		HLRZI	7,-1		;*HLRZI SHOULD CLEAR THE AC
 37900	054203	332 00 0 00 000007 		SKIPE	7		;PASS IF C(AC) = 0
 37901						STOP^
 37902	054204	254 04 0 00 054205 		HALT	.+1		;TEST FAILED IF PROGRAM HALTS HERE
 37903	054205	324 00 0 00 054206 		JUMPA	.+1		;IF TEST FAILS, CHANGE THIS INSTRUCTION (JUMPA .+1) TO
 37904									;JUMPA X (X IS THE ADDRESS OF THE FIRST INSTRUCTION
 37905									;IN THE SUBTEST) TO LOOP ON ERROR^
 37906
 37907					;**********
 37908
 37909					;THIS TEST VERIFIES THAT HLRZM PLACES C(AC-LEFT) INTO E-RIGHT AND
 37910					;PLACES 0 INTO E-LEFT.
 37911					;IN THIS CASE, C(AC) = 123456,,123422 AND C(E) = 707070,,717171
 37912					;HENCE, THE RESULT IN E SHOULD BE 0,,123456.
 37913
 37914	054206	200 01 0 00 070726 	C66300:	MOVE	1,[123456,,123422]  ;PRELOAD AC WITH 123456,,123422
 37915	054207	200 02 0 00 070727 		MOVE	2,[707070,,717171]  ;PRELOAD AC WITH 707070,,717171
 37916	054210	556 01 0 00 000002 		HLRZM	1,2		;*HLRZM SHOULD PLACE 0,,123456 INTO E.
 37917	054211	312 01 0 00 070726 		CAME	1,[123456,,123422]  ;PASS IF C(AC) UNCHANGED
 37918						STOP^
 37919	054212	254 04 0 00 054213 		HALT	.+1		;TEST FAILED IF PROGRAM HALTS HERE
 37920	054213	324 00 0 00 054214 		JUMPA	.+1		;IF TEST FAILS, CHANGE THIS INSTRUCTION (JUMPA .+1) TO
 37921									;JUMPA X (X IS THE ADDRESS OF THE FIRST INSTRUCTION
 37922									;IN THE SUBTEST) TO LOOP ON ERROR^
 37923	054214	302 02 0 00 123456 		CAIE	2,123456	;PASS IF C(E) = 0,,123456
 37924						STOP^
 37925	054215	254 04 0 00 054216 		HALT	.+1		;TEST FAILED IF PROGRAM HALTS HERE
 37926	054216	324 00 0 00 054217 		JUMPA	.+1		;IF TEST FAILS, CHANGE THIS INSTRUCTION (JUMPA .+1) TO
 37927									;JUMPA X (X IS THE ADDRESS OF THE FIRST INSTRUCTION
 37928									;IN THE SUBTEST) TO LOOP ON ERROR^
 37929
 37930					;**********
DFKAA PDP-10 KL10 BASIC INSTRUCTION DIAGNOSTIC (1) VER 0,2	MACRO %52(537) 09:34 31-JAN-77 PAGE 40
DFKAA6	MAC	25-AUG-75 14:01		TEST OF MSCL HWT INSTRUCTIONS                                                      SEQ 0868

 37931					;THIS TEST VERIFIES THAT HLRZM PLACES C(AC-LEFT) INTO E-RIGHT AND
 37932					;PLACES 0 INTO E-LEFT.
 37933					;IN THIS CASE, C(AC) = 123456,,123422 AND C(E) = 707070,,717171
 37934					;HENCE, THE RESULT IN E SHOULD BE 0,,123456.
 37935
 37936	054217	200 01 0 00 070726 	C66301:	MOVE	1,[123456,,123422]  ;PRELOAD AC WITH 123456,,123422
 37937	054220	200 02 0 00 070727 		MOVE	2,[707070,,717171]  ;PRELOAD AC WITH 707070,,717171
 37938	054221	202 02 0 00 054233 		MOVEM	2,E66301
 37939	054222	556 01 0 00 054233 		HLRZM	1,E66301	;*HLRZM SHOULD PLACE 0,,123456 INTO E.
 37940	054223	312 01 0 00 070726 		CAME	1,[123456,,123422]  ;PASS IF C(AC) UNCHANGED
 37941						STOP^
 37942	054224	254 04 0 00 054225 		HALT	.+1		;TEST FAILED IF PROGRAM HALTS HERE
 37943	054225	324 00 0 00 054226 		JUMPA	.+1		;IF TEST FAILS, CHANGE THIS INSTRUCTION (JUMPA .+1) TO
 37944									;JUMPA X (X IS THE ADDRESS OF THE FIRST INSTRUCTION
 37945									;IN THE SUBTEST) TO LOOP ON ERROR^
 37946	054226	200 02 0 00 054233 		MOVE	2,E66301
 37947	054227	302 02 0 00 123456 		CAIE	2,123456	;PASS IF C(E) = 0,,123456
 37948						STOP^
 37949	054230	254 04 0 00 054231 		HALT	.+1		;TEST FAILED IF PROGRAM HALTS HERE
 37950	054231	324 00 0 00 054232 		JUMPA	.+1		;IF TEST FAILS, CHANGE THIS INSTRUCTION (JUMPA .+1) TO
 37951									;JUMPA X (X IS THE ADDRESS OF THE FIRST INSTRUCTION
 37952									;IN THE SUBTEST) TO LOOP ON ERROR^
 37953
 37954	054232	334 00 0 00 000000 		SKIPA			;GO TO NEXT TEST
 37955	054233	000000	000000		E66301:	0			;TEST WORD MEMORY
 37956
 37957					;**********
DFKAA PDP-10 KL10 BASIC INSTRUCTION DIAGNOSTIC (1) VER 0,2	MACRO %52(537) 09:34 31-JAN-77 PAGE 41
DFKAA6	MAC	25-AUG-75 14:01		TEST OF MSCL HWT INSTRUCTIONS                                                      SEQ 0869

 37958					;THIS TEST VERIFIES THAT HLRZS PLACES C(E-LEFT) INTO E-RIGHT AND
 37959					;PLACES 0 INTO E-LEFT.  IF AC IS NON-ZERO, THE RESULT IN E IS
 37960					;ALSO PLACED INTO THE AC.
 37961					;IN THIS CASE, AC = 0, C(AC) = -1,,-1 AND C(E) = 123456,,701234.
 37962					;HENCE, THE RESULTS IN AC AND E SHOULD BE -1,,-1 AND 0,,123456
 37963					;RESPECTIVELY.
 37964
 37965	054234	474 00 0 00 000000 	C66400:	SETO	0,		;PRELOAD AC WITH -1,,-1
 37966	054235	200 07 0 00 070745 		MOVE	7,[123456,,701234]  ;PRELOAD E WITH 123456,,701234
 37967	054236	557 00 0 00 000007 		HLRZS	0,7		;*HLRZS SHOULD PLACE 0,,123456 INTO E
 37968	054237	312 00 0 00 070254 		CAME	0,[-1]		;PASS IF C(AC) IS UNCHANGED
 37969						STOP^
 37970	054240	254 04 0 00 054241 		HALT	.+1		;TEST FAILED IF PROGRAM HALTS HERE
 37971	054241	324 00 0 00 054242 		JUMPA	.+1		;IF TEST FAILS, CHANGE THIS INSTRUCTION (JUMPA .+1) TO
 37972									;JUMPA X (X IS THE ADDRESS OF THE FIRST INSTRUCTION
 37973									;IN THE SUBTEST) TO LOOP ON ERROR^
 37974	054242	302 07 0 00 123456 		CAIE	7,123456	;PASS IF C(E) = 0,,123456
 37975						STOP^
 37976	054243	254 04 0 00 054244 		HALT	.+1		;TEST FAILED IF PROGRAM HALTS HERE
 37977	054244	324 00 0 00 054245 		JUMPA	.+1		;IF TEST FAILS, CHANGE THIS INSTRUCTION (JUMPA .+1) TO
 37978									;JUMPA X (X IS THE ADDRESS OF THE FIRST INSTRUCTION
 37979									;IN THE SUBTEST) TO LOOP ON ERROR^
 37980
 37981					;**********
 37982
 37983					;THIS TEST VERIFIES THAT HLRZS PLACES C(E-LEFT) INTO E-RIGHT AND
 37984					;PLACES 0 INTO E-LEFT.  IF AC IS NON-ZERO, THE RESULT IN E
 37985					;IS ALSO PLACED INTO THE AC.
 37986					;IN THIS CASE, AC = 6, C(AC) = -1,,-1 AND C(E) = 123456,,701234.
 37987					;HENCE, THE RESULTS IN AC AND E SHOULD BE 0,,123456 AND 0123456
 37988					;RESPECTIVELY.
 37989
 37990	054245	474 06 0 00 000000 	C66410:	SETO	6,		;PRELOAD AC WITH -1,,-1
 37991	054246	200 07 0 00 070745 		MOVE	7,[123456,,701234]  ;PRELOAD E WITH 123456,,701234
 37992	054247	557 06 0 00 000007 		HLRZS	6,7		;*HLRZS SHOULD PLACE 0,,123456 INTO
 37993									;BOTH AC AND E
 37994	054250	302 06 0 00 123456 		CAIE	6,123456	;PASS IF C(AC) = 0,,123456
 37995						STOP^
 37996	054251	254 04 0 00 054252 		HALT	.+1		;TEST FAILED IF PROGRAM HALTS HERE
 37997	054252	324 00 0 00 054253 		JUMPA	.+1		;IF TEST FAILS, CHANGE THIS INSTRUCTION (JUMPA .+1) TO
 37998									;JUMPA X (X IS THE ADDRESS OF THE FIRST INSTRUCTION
 37999									;IN THE SUBTEST) TO LOOP ON ERROR^
 38000	054253	302 07 0 00 123456 		CAIE	7,123456	;PASS IF C(E) = 0,,123456
 38001						STOP^
 38002	054254	254 04 0 00 054255 		HALT	.+1		;TEST FAILED IF PROGRAM HALTS HERE
 38003	054255	324 00 0 00 054256 		JUMPA	.+1		;IF TEST FAILS, CHANGE THIS INSTRUCTION (JUMPA .+1) TO
 38004									;JUMPA X (X IS THE ADDRESS OF THE FIRST INSTRUCTION
 38005									;IN THE SUBTEST) TO LOOP ON ERROR^
 38006
 38007					;**********
DFKAA PDP-10 KL10 BASIC INSTRUCTION DIAGNOSTIC (1) VER 0,2	MACRO %52(537) 09:34 31-JAN-77 PAGE 42
DFKAA6	MAC	25-AUG-75 14:01		TEST OF MSCL HWT INSTRUCTIONS                                                      SEQ 0870

 38008					;THIS TEST VERIFIES THAT HLRZS PLACES C(E-LEFT) INTO E-RIGHT AND
 38009					;PLACES 0 INTO E-LEFT.  IF AC IS NON-ZERO, THE RESULT IN E
 38010					;IS ALSO PLACED INTO THE AC.
 38011					;IN THIS CASE, AC = 6, C(AC) = -1,,-1 AND C(E) = 123456,,701234.
 38012					;HENCE, THE RESULTS IN AC AND E SHOULD BE 0,,123456 AND 0123456
 38013					;RESPECTIVELY.
 38014
 38015	054256	474 06 0 00 000000 	C66411:	SETO	6,		;PRELOAD AC WITH -1,,-1
 38016	054257	200 07 0 00 070745 		MOVE	7,[123456,,701234]  ;PRELOAD E WITH 123456,,701234
 38017	054260	202 07 0 00 054272 		MOVEM	7,E66411
 38018	054261	557 06 0 00 054272 		HLRZS	6,E66411	;*HLRZS SHOULD PLACE 0,,123456 INTO
 38019									;BOTH AC AND E
 38020	054262	302 06 0 00 123456 		CAIE	6,123456	;PASS IF C(AC) = 0,,123456
 38021						STOP^
 38022	054263	254 04 0 00 054264 		HALT	.+1		;TEST FAILED IF PROGRAM HALTS HERE
 38023	054264	324 00 0 00 054265 		JUMPA	.+1		;IF TEST FAILS, CHANGE THIS INSTRUCTION (JUMPA .+1) TO
 38024									;JUMPA X (X IS THE ADDRESS OF THE FIRST INSTRUCTION
 38025									;IN THE SUBTEST) TO LOOP ON ERROR^
 38026	054265	200 07 0 00 054272 		MOVE	7,E66411
 38027	054266	302 07 0 00 123456 		CAIE	7,123456	;PASS IF C(E) = 0,,123456
 38028						STOP^
 38029	054267	254 04 0 00 054270 		HALT	.+1		;TEST FAILED IF PROGRAM HALTS HERE
 38030	054270	324 00 0 00 054271 		JUMPA	.+1		;IF TEST FAILS, CHANGE THIS INSTRUCTION (JUMPA .+1) TO
 38031									;JUMPA X (X IS THE ADDRESS OF THE FIRST INSTRUCTION
 38032									;IN THE SUBTEST) TO LOOP ON ERROR^
 38033
 38034	054271	334 00 0 00 000000 		SKIPA			;GO TO NEXT TEST
 38035	054272	000000	000000		E66411:	0			;TEST WORD MEMORY
 38036
 38037					;**********
DFKAA PDP-10 KL10 BASIC INSTRUCTION DIAGNOSTIC (1) VER 0,2	MACRO %52(537) 09:34 31-JAN-77 PAGE 43
DFKAA6	MAC	25-AUG-75 14:01		TEST OF MSCL HWT INSTRUCTIONS                                                      SEQ 0871

 38038					;THIS TEST VERIFIES THAT HRROM PLACES C(AC-RIGHT) INTO E-RIGHT AND
 38039					;PLACES -1 INTO E-LEFT.  IN THIS CASE, C(AC) = 123456,,701234 AND
 38040					;C(E) = 0.  HENCE, THE RESULT IN E SHOULD BE -1,,601234.
 38041
 38042	054273	200 05 0 00 070745 	C66500:	MOVE	5,[123456,,701234]  ;PRELOAD AC WITH 123456,,701234
 38043	054274	402 00 0 00 000006 		SETZM	6		;CLEAR E
 38044	054275	562 05 0 00 000006 		HRROM	5,6		;*HRROM SHOULD PLACE -1,,701234 INTO E
 38045	054276	312 05 0 00 070745 		CAME	5,[123456,,701234]  ;PASS IF C(AC) UNCHANGED
 38046						STOP^
 38047	054277	254 04 0 00 054300 		HALT	.+1		;TEST FAILED IF PROGRAM HALTS HERE
 38048	054300	324 00 0 00 054301 		JUMPA	.+1		;IF TEST FAILS, CHANGE THIS INSTRUCTION (JUMPA .+1) TO
 38049									;JUMPA X (X IS THE ADDRESS OF THE FIRST INSTRUCTION
 38050									;IN THE SUBTEST) TO LOOP ON ERROR^
 38051	054301	312 06 0 00 070750 		CAME	6,[-1,,701234]	;PASS IF C(E) = -1,,701234
 38052						STOP^
 38053	054302	254 04 0 00 054303 		HALT	.+1		;TEST FAILED IF PROGRAM HALTS HERE
 38054	054303	324 00 0 00 054304 		JUMPA	.+1		;IF TEST FAILS, CHANGE THIS INSTRUCTION (JUMPA .+1) TO
 38055									;JUMPA X (X IS THE ADDRESS OF THE FIRST INSTRUCTION
 38056									;IN THE SUBTEST) TO LOOP ON ERROR^
 38057
 38058
 38059					;**********
 38060
 38061					;THIS TEST VERIFIES THAT HRROS PLACES -1 INTO THE LEFT HALF OF E, BUT DOES NOT
 38062					;AFFECT THE RIGHT HALF OF E.  IF AC IS NON-ZERO THE RESULT IN E IS
 38063					;ALSO PLACED INTO THE AC.
 38064					;IN THIS CASE, AC=0, C(AC)=0 AND C(E)=123456,,701234
 38065					;HENCE, THE RESULTS IN AC AND E SHOULD BE 0
 38066					;AND -1,,701234 RESPECTIVELY.
 38067
 38068	054304	400 00 0 00 000000 	C66600:	SETZ	0		;PRELOAD AC WITH 0
 38069	054305	200 17 0 00 070745 		MOVE	17,[123456,,701234]  ;PRELOAD E WITH 123456,,701234
 38070	054306	563 00 0 00 000017 		HRROS	0,17		;HRROS SHOULD PLACE -1,,701234 INTO E
 38071	054307	312 00 0 00 070253 		CAME	0,[0]		;PASS IF C(AC) IS UNCHANGED
 38072						STOP^
 38073	054310	254 04 0 00 054311 		HALT	.+1		;TEST FAILED IF PROGRAM HALTS HERE
 38074	054311	324 00 0 00 054312 		JUMPA	.+1		;IF TEST FAILS, CHANGE THIS INSTRUCTION (JUMPA .+1) TO
 38075									;JUMPA X (X IS THE ADDRESS OF THE FIRST INSTRUCTION
 38076									;IN THE SUBTEST) TO LOOP ON ERROR^
 38077	054312	312 17 0 00 070750 		CAME	17,[-1,,701234]	;PASS IF C(E)=-1,,701234
 38078						STOP^
 38079	054313	254 04 0 00 054314 		HALT	.+1		;TEST FAILED IF PROGRAM HALTS HERE
 38080	054314	324 00 0 00 054315 		JUMPA	.+1		;IF TEST FAILS, CHANGE THIS INSTRUCTION (JUMPA .+1) TO
 38081									;JUMPA X (X IS THE ADDRESS OF THE FIRST INSTRUCTION
 38082									;IN THE SUBTEST) TO LOOP ON ERROR^
 38083
 38084					;**********
DFKAA PDP-10 KL10 BASIC INSTRUCTION DIAGNOSTIC (1) VER 0,2	MACRO %52(537) 09:34 31-JAN-77 PAGE 44
DFKAA6	MAC	25-AUG-75 14:01		TEST OF MSCL HWT INSTRUCTIONS                                                      SEQ 0872

 38085					;THIS TEST VERIFIES THAT HRROS PLACES -1 INTO THE LEFT HALF OF E, BUT DOES NOT
 38086					;AFFECT THE RIGHT HALF OF E.  IF AC IS NON-ZERO THE RESULT IN E IS
 38087					;ALSO PLACED INTO THE AC.
 38088					;IN THIS CASE, AC=16, C(AC)=0 AND C(E)=123456,,701234
 38089					;HENCE, THE RESULTS IN AC AND E SHOULD BE -1,,701234
 38090					;AND -1,,701234 RESPECTIVELY.
 38091
 38092	054315	400 16 0 00 000000 	C66610:	SETZ	16,		;PRELOAD AC WITH 0
 38093	054316	200 17 0 00 070745 		MOVE	17,[123456,,701234]  ;PRELOAD E WITH 123456,,701234
 38094	054317	563 16 0 00 000017 		HRROS	16,17		;*HRROS SHOULD PLACE -1,,701234 INTO
 38095									;BOTH AC AND E
 38096	054320	312 16 0 00 070750 		CAME	16,[-1,,701234]	;PASS IF C(AC)=-1,,701234
 38097						STOP^
 38098	054321	254 04 0 00 054322 		HALT	.+1		;TEST FAILED IF PROGRAM HALTS HERE
 38099	054322	324 00 0 00 054323 		JUMPA	.+1		;IF TEST FAILS, CHANGE THIS INSTRUCTION (JUMPA .+1) TO
 38100									;JUMPA X (X IS THE ADDRESS OF THE FIRST INSTRUCTION
 38101									;IN THE SUBTEST) TO LOOP ON ERROR^
 38102	054323	312 17 0 00 070750 		CAME	17,[-1,,701234]	;PASS IF C(E)=-1,,701234
 38103						STOP^
 38104	054324	254 04 0 00 054325 		HALT	.+1		;TEST FAILED IF PROGRAM HALTS HERE
 38105	054325	324 00 0 00 054326 		JUMPA	.+1		;IF TEST FAILS, CHANGE THIS INSTRUCTION (JUMPA .+1) TO
 38106									;JUMPA X (X IS THE ADDRESS OF THE FIRST INSTRUCTION
 38107									;IN THE SUBTEST) TO LOOP ON ERROR^
 38108
 38109					;**********
 38110
 38111					;THIS TEST VERIFIES THAT HLRO PLACES C(E-LEFT) INTO AC-RIGHT AND
 38112					;PLACES -1 INTO AC-LEFT.  IN THIS CASE, C(AC)=0
 38113					;C(E)=765432,,107654.  HENCE, THE RESULT IN THE AC SHOULD BE -1,,765432.
 38114
 38115	054326	400 04 0 00 000000 	C66700:	SETZ	4,		;CLEAR AC
 38116	054327	200 05 0 00 070751 		MOVE	5,[765432,,107654]  ;PRELOAD E WITH 765432,,107654
 38117	054330	564 04 0 00 000005 		HLRO	4,5		;*HLRO SHOULD PLACE -1,,765432 INTO THE AC
 38118	054331	312 04 0 00 070752 		CAME	4,[-1,,765432]	;PASS IF C(AC)=-1,,765432
 38119						STOP^
 38120	054332	254 04 0 00 054333 		HALT	.+1		;TEST FAILED IF PROGRAM HALTS HERE
 38121	054333	324 00 0 00 054334 		JUMPA	.+1		;IF TEST FAILS, CHANGE THIS INSTRUCTION (JUMPA .+1) TO
 38122									;JUMPA X (X IS THE ADDRESS OF THE FIRST INSTRUCTION
 38123									;IN THE SUBTEST) TO LOOP ON ERROR^
 38124	054334	312 05 0 00 070751 		CAME	5,[765432,,107654]  ;PASS IF C(E) IS UNCHANGED
 38125						STOP^
 38126	054335	254 04 0 00 054336 		HALT	.+1		;TEST FAILED IF PROGRAM HALTS HERE
 38127	054336	324 00 0 00 054337 		JUMPA	.+1		;IF TEST FAILS, CHANGE THIS INSTRUCTION (JUMPA .+1) TO
 38128									;JUMPA X (X IS THE ADDRESS OF THE FIRST INSTRUCTION
 38129									;IN THE SUBTEST) TO LOOP ON ERROR^
 38130
 38131					;**********
DFKAA PDP-10 KL10 BASIC INSTRUCTION DIAGNOSTIC (1) VER 0,2	MACRO %52(537) 09:34 31-JAN-77 PAGE 45
DFKAA6	MAC	25-AUG-75 14:01		TEST OF MSCL HWT INSTRUCTIONS                                                      SEQ 0873

 38132					;THIS TEST VERIFIES THAT HLROI PLACES -1,,0 INTO THE AC.
 38133					;IN THIS CASE, C(AC)=123456,,765432 AND E=070707.  HENCE, THE
 38134					;RESULT IN THE AC SHOULD BE -1,,0
 38135
 38136	054337	200 03 0 00 070376 	C67000:	MOVE	3,[123456,,765432]  ;PRELOAD AC WITH 123456,,765432
 38137	054340	565 03 0 00 070707 		HLROI	3,070707	;*HLROI SHOULD PLACE -1,,0 INTO THE AC
 38138	054341	312 03 0 00 070331 		CAME	3,[-1,,0]	;PASS IF C(AC)=-1,,0
 38139						STOP^
 38140	054342	254 04 0 00 054343 		HALT	.+1		;TEST FAILED IF PROGRAM HALTS HERE
 38141	054343	324 00 0 00 054344 		JUMPA	.+1		;IF TEST FAILS, CHANGE THIS INSTRUCTION (JUMPA .+1) TO
 38142									;JUMPA X (X IS THE ADDRESS OF THE FIRST INSTRUCTION
 38143									;IN THE SUBTEST) TO LOOP ON ERROR^
 38144
 38145					;**********
 38146
 38147					;THIS TEST VERIFIES THAT HLROM PLACES C(AC-LEFT) INTO E RIGHT AND
 38148					;PLACES -1 INTO E-LEFT
 38149					;IN THIS CASE, C(AC)=123456,,123422 AND C(E)=707070,,717171
 38150					;HENCE, THE RESULT IN E SHOULD BE -1,,123456
 38151
 38152	054344	200 01 0 00 070726 	C67100:	MOVE	1,[123456,,123422]  ;PRELOAD AC WITH 123456,,123422
 38153	054345	200 02 0 00 070727 		MOVE	2,[707070,,717171]  ;PRELOAD AC WITH 707070,,717171
 38154	054346	566 01 0 00 000002 		HLROM	1,2		;*HLROM SHOULD PLACE -1,,123456 INTO E
 38155	054347	312 01 0 00 070726 		CAME	1,[123456,,123422]  ;PASS IF C(AC) UNCHANGED
 38156						STOP^
 38157	054350	254 04 0 00 054351 		HALT	.+1		;TEST FAILED IF PROGRAM HALTS HERE
 38158	054351	324 00 0 00 054352 		JUMPA	.+1		;IF TEST FAILS, CHANGE THIS INSTRUCTION (JUMPA .+1) TO
 38159									;JUMPA X (X IS THE ADDRESS OF THE FIRST INSTRUCTION
 38160									;IN THE SUBTEST) TO LOOP ON ERROR^
 38161	054352	312 02 0 00 070753 		CAME	2,[-1,,123456]	;PASS IF C(E)=-1,,123456
 38162						STOP^
 38163	054353	254 04 0 00 054354 		HALT	.+1		;TEST FAILED IF PROGRAM HALTS HERE
 38164	054354	324 00 0 00 054355 		JUMPA	.+1		;IF TEST FAILS, CHANGE THIS INSTRUCTION (JUMPA .+1) TO
 38165									;JUMPA X (X IS THE ADDRESS OF THE FIRST INSTRUCTION
 38166									;IN THE SUBTEST) TO LOOP ON ERROR^
 38167
 38168					;**********
DFKAA PDP-10 KL10 BASIC INSTRUCTION DIAGNOSTIC (1) VER 0,2	MACRO %52(537) 09:34 31-JAN-77 PAGE 46
DFKAA6	MAC	25-AUG-75 14:01		TEST OF MSCL HWT INSTRUCTIONS                                                      SEQ 0874

 38169					;THIS TEST VERIFIES THAT HLROS PLACES C(E-LEFT) INTO E-RIGHT AND
 38170					;PLACES -1 INTO E-LEFT.  IF AC IS NON-ZERO, THE RESULT IN E
 38171					;IS ALSO PLACED INTO THE AC.
 38172					;IN THIS CASE, AC=0, C(AC)=0 AND C(E)=123456,,701234.
 38173					;HENCE, THE RESULTS IN AC AND E SHOULD BE 0
 38174					;AND -1,,123456 RESPECTIVELY
 38175
 38176	054355	400 00 0 00 000000 	C67200:	SETZ	0		;PRELOAD AC WITH 0
 38177	054356	200 07 0 00 070745 		MOVE	7,[123456,,701234]  ;PRELOAD E WITH 123456,,701234
 38178	054357	567 00 0 00 000007 		HLROS	0,7		;*HLROS SHOULD PLACE -1,,123456 INTO E
 38179									;
 38180	054360	302 00 0 00 000000 		CAIE	0,0		;PASS IF C(AC) IS UNCHANGED
 38181						STOP^
 38182	054361	254 04 0 00 054362 		HALT	.+1		;TEST FAILED IF PROGRAM HALTS HERE
 38183	054362	324 00 0 00 054363 		JUMPA	.+1		;IF TEST FAILS, CHANGE THIS INSTRUCTION (JUMPA .+1) TO
 38184									;JUMPA X (X IS THE ADDRESS OF THE FIRST INSTRUCTION
 38185									;IN THE SUBTEST) TO LOOP ON ERROR^
 38186	054363	312 07 0 00 070753 		CAME	7,[-1,,123456]	;PASS IF C(E)=-1,,123456
 38187						STOP^
 38188	054364	254 04 0 00 054365 		HALT	.+1		;TEST FAILED IF PROGRAM HALTS HERE
 38189	054365	324 00 0 00 054366 		JUMPA	.+1		;IF TEST FAILS, CHANGE THIS INSTRUCTION (JUMPA .+1) TO
 38190									;JUMPA X (X IS THE ADDRESS OF THE FIRST INSTRUCTION
 38191									;IN THE SUBTEST) TO LOOP ON ERROR^
 38192
 38193					;**********
 38194
 38195					;THIS TEST VERIFIES THAT HLROS PLACES C(E-LEFT) INTO E-RIGHT AND
 38196					;PLACES -1 INTO E-LEFT.  IF AC IS NON-ZERO, THE RESULT IN E
 38197					;IS ALSO PLACED INTO THE AC.
 38198					;IN THIS CASE, AC=1, C(AC)=0 AND C(E)=123456,,701234.
 38199					;HENCE, THE RESULT IN AC AND E SHOULD BE -1,,123456
 38200					;AND -1,,123456 RESPECTIVELY.
 38201
 38202	054366	400 01 0 00 000000 	C67210:	SETZ	1,		;PRELOAD AC WITH 0
 38203	054367	200 07 0 00 070745 		MOVE	7,[123456,,701234]  ;PRELOAD E WITH 123456,,701234
 38204	054370	567 01 0 00 000007 		HLROS	1,7		;*HLROS SHOULD PLACE -1,,123456 INTO
 38205									;BOTH AC AND E
 38206	054371	312 01 0 00 070753 		CAME	1,[-1,,123456]	;PASS IF C(AC)=-1,,123456
 38207						STOP^
 38208	054372	254 04 0 00 054373 		HALT	.+1		;TEST FAILED IF PROGRAM HALTS HERE
 38209	054373	324 00 0 00 054374 		JUMPA	.+1		;IF TEST FAILS, CHANGE THIS INSTRUCTION (JUMPA .+1) TO
 38210									;JUMPA X (X IS THE ADDRESS OF THE FIRST INSTRUCTION
 38211									;IN THE SUBTEST) TO LOOP ON ERROR^
 38212	054374	312 07 0 00 070753 		CAME	7,[-1,,123456]	;PASS IF C(E)=-1,,123456
 38213						STOP^
 38214	054375	254 04 0 00 054376 		HALT	.+1		;TEST FAILED IF PROGRAM HALTS HERE
 38215	054376	324 00 0 00 054377 		JUMPA	.+1		;IF TEST FAILS, CHANGE THIS INSTRUCTION (JUMPA .+1) TO
 38216									;JUMPA X (X IS THE ADDRESS OF THE FIRST INSTRUCTION
 38217									;IN THE SUBTEST) TO LOOP ON ERROR^
 38218
 38219					;**********
DFKAA PDP-10 KL10 BASIC INSTRUCTION DIAGNOSTIC (1) VER 0,2	MACRO %52(537) 09:34 31-JAN-77 PAGE 47
DFKAA6	MAC	25-AUG-75 14:01		TEST OF MSCL HWT INSTRUCTIONS                                                      SEQ 0875

 38220					;THIS TEST VERIFIES THAT HRRES PLACES C(E-RIGHT) INTO E-RIGHT
 38221					;AND PLACES BIT 18 OF E INTO BITS 0 THRU 17 OF E.  IF AC IS NON-ZERO,
 38222					;THE RESULT IN E IS ALSO PLACED INTO THE AC.
 38223					;IN THIS CASE, AC=0, C(AC)=0 AND C(E)=123456,,701234
 38224					;HENCE, THE RESULT IN AC AND E SHOULD BE 0
 38225					;AND -1,,701234 RESPECTIVELY.
 38226
 38227	054377	400 00 0 00 000000 	C67300:	SETZ	0,		;PRELOAD AC WITH 0
 38228	054400	200 03 0 00 070745 		MOVE	3,[123456,,701234]  ;PRELOAD WITH 123456,,701234
 38229	054401	573 00 0 00 000003 		HRRES	0,3		;HRRES SHOULD PLACE -1,,701234 INTO E
 38230
 38231	054402	332 00 0 00 000000 		SKIPE			;PASS IF C(AC) IS UNCHANGED
 38232						STOP^
 38233	054403	254 04 0 00 054404 		HALT	.+1		;TEST FAILED IF PROGRAM HALTS HERE
 38234	054404	324 00 0 00 054405 		JUMPA	.+1		;IF TEST FAILS, CHANGE THIS INSTRUCTION (JUMPA .+1) TO
 38235									;JUMPA X (X IS THE ADDRESS OF THE FIRST INSTRUCTION
 38236									;IN THE SUBTEST) TO LOOP ON ERROR^
 38237	054405	312 03 0 00 070750 		CAME	3,[-1,,701234]	;PASS IF C(E)=-1,,701234
 38238						STOP^
 38239	054406	254 04 0 00 054407 		HALT	.+1		;TEST FAILED IF PROGRAM HALTS HERE
 38240	054407	324 00 0 00 054410 		JUMPA	.+1		;IF TEST FAILS, CHANGE THIS INSTRUCTION (JUMPA .+1) TO
 38241									;JUMPA X (X IS THE ADDRESS OF THE FIRST INSTRUCTION
 38242									;IN THE SUBTEST) TO LOOP ON ERROR^
 38243
 38244					;**********
 38245
 38246					;THIS TEST VERIFIES THAT HRRES, PLACES C(E-RIGHT) INTO E-RIGHT
 38247					;AND PLACES BIT 18 OF E INTO BITS 0 THRU 17 OF E.  IF AC IS NON-ZERO,
 38248					;THE RESULT IN E IS ALSO PLACED INTO THE AC.
 38249					;IN THIS CASE, AC=1, C(AC)=0 AND C(E)=123456,,701234.
 38250					;HENCE, THE RESULTS IN AC AND E SHOULD BE -1,,701234
 38251					;AND -1,,701234 RESPECTIVELY.
 38252
 38253	054410	400 01 0 00 000000 	C67310:	SETZ	1,		;PRELOAD AC WITH 0
 38254	054411	200 03 0 00 070745 		MOVE	3,[123456,,701234]  ;PRELOAD WITH 123456,,701234
 38255	054412	573 01 0 00 000003 		HRRES	1,3		;HRRES SHOULD PLACE -1,,701234 INTO
 38256									;BOTH AC AND E
 38257	054413	312 01 0 00 070750 		CAME	1,[-1,,701234]	;PASS IF C(AC)=-1,,701234
 38258						STOP^
 38259	054414	254 04 0 00 054415 		HALT	.+1		;TEST FAILED IF PROGRAM HALTS HERE
 38260	054415	324 00 0 00 054416 		JUMPA	.+1		;IF TEST FAILS, CHANGE THIS INSTRUCTION (JUMPA .+1) TO
 38261									;JUMPA X (X IS THE ADDRESS OF THE FIRST INSTRUCTION
 38262									;IN THE SUBTEST) TO LOOP ON ERROR^
 38263	054416	312 03 0 00 070750 		CAME	3,[-1,,701234]	;PASS IF C(E)=-1,,701234
 38264						STOP^
 38265	054417	254 04 0 00 054420 		HALT	.+1		;TEST FAILED IF PROGRAM HALTS HERE
 38266	054420	324 00 0 00 054421 		JUMPA	.+1		;IF TEST FAILS, CHANGE THIS INSTRUCTION (JUMPA .+1) TO
 38267									;JUMPA X (X IS THE ADDRESS OF THE FIRST INSTRUCTION
 38268									;IN THE SUBTEST) TO LOOP ON ERROR^
 38269
 38270					;**********
DFKAA PDP-10 KL10 BASIC INSTRUCTION DIAGNOSTIC (1) VER 0,2	MACRO %52(537) 09:34 31-JAN-77 PAGE 48
DFKAA6	MAC	25-AUG-75 14:01		TEST OF MSCL HWT INSTRUCTIONS                                                      SEQ 0876

 38271					;THIS TEST VERIFIES THAT HLRES PLACES C(E-LEFT) INTO E-RIGHT
 38272					;AND PLACES BIT 0 OF E INTO BITS 0 THRU 17 OF E.  IF AC IS
 38273					;NON-ZERO, THE RESULT IN E IS ALSO PLACED INTO THE AC.
 38274					;IN THIS CASE, AC=0, C(AC)=-1,,-1 AND C(E) 123456,,701234
 38275					;HENCE, THE RESULTS IN AC AND E SHOULD BE -1,,-1
 38276					;AND 0,,123456 RESPECTIVELY.
 38277
 38278	054421	474 00 0 00 000000 	C67400:	SETO	0,		;PRELOAD AC WITH -1,,-1
 38279	054422	200 07 0 00 070745 		MOVE	7,[123456,,701234]  ;PRELOAD E WITH 123456,,701234
 38280	054423	577 00 0 00 000007 		HLRES	0,7		;*HLRES SHOULD PLACE 0,,123456 INTO E
 38281
 38282	054424	312 00 0 00 070254 		CAME	0,[-1]		;PASS IF C(AC) IS UNCHANGED
 38283						STOP^
 38284	054425	254 04 0 00 054426 		HALT	.+1		;TEST FAILED IF PROGRAM HALTS HERE
 38285	054426	324 00 0 00 054427 		JUMPA	.+1		;IF TEST FAILS, CHANGE THIS INSTRUCTION (JUMPA .+1) TO
 38286									;JUMPA X (X IS THE ADDRESS OF THE FIRST INSTRUCTION
 38287									;IN THE SUBTEST) TO LOOP ON ERROR^
 38288	054427	302 07 0 00 123456 		CAIE	7,123456	;PASS IF C(E)=0,,123456
 38289						STOP^
 38290	054430	254 04 0 00 054431 		HALT	.+1		;TEST FAILED IF PROGRAM HALTS HERE
 38291	054431	324 00 0 00 054432 		JUMPA	.+1		;IF TEST FAILS, CHANGE THIS INSTRUCTION (JUMPA .+1) TO
 38292									;JUMPA X (X IS THE ADDRESS OF THE FIRST INSTRUCTION
 38293									;IN THE SUBTEST) TO LOOP ON ERROR^
 38294
 38295					;**********
 38296
 38297					;THIS TEST VERIFIES THAT HLRES PLACES C(E-LEFT) INTO E-RIGHT
 38298					;AND PLACES BIT 0 OF E INTO BITS 0 THRU 17 OF E.  IF AC IS
 38299					;NON-ZERO, THE RESULT IN E IS ALSO PLACED INTO THE AC.
 38300					;IN THIS CASE, AC=1, C(AC)=-1,,-1 AND C(E) 123456,,701234.
 38301					;HENCE, THE RESULTS IN AC AND E SHOULD BE 0,,123456
 38302					;AND 0,,123456 RESPECTIVELY.
 38303
 38304	054432	474 01 0 00 000000 	C67410:	SETO	1,		;PRELOAD AC WITH -1,,-1
 38305	054433	200 07 0 00 070745 		MOVE	7,[123456,,701234]  ;PRELOAD E WITH 123456,,701234
 38306	054434	577 01 0 00 000007 		HLRES	1,7		;*HLRES SHOULD PLACE 0,,123456 INTO
 38307									;BOTH AC AND E
 38308	054435	302 01 0 00 123456 		CAIE	1,123456	;PASS IF C(AC)=0,,123456
 38309						STOP^
 38310	054436	254 04 0 00 054437 		HALT	.+1		;TEST FAILED IF PROGRAM HALTS HERE
 38311	054437	324 00 0 00 054440 		JUMPA	.+1		;IF TEST FAILS, CHANGE THIS INSTRUCTION (JUMPA .+1) TO
 38312									;JUMPA X (X IS THE ADDRESS OF THE FIRST INSTRUCTION
 38313									;IN THE SUBTEST) TO LOOP ON ERROR^
 38314	054440	302 07 0 00 123456 		CAIE	7,123456	;PASS IF C(E)=0,,123456
 38315						STOP^
 38316	054441	254 04 0 00 054442 		HALT	.+1		;TEST FAILED IF PROGRAM HALTS HERE
 38317	054442	324 00 0 00 054443 		JUMPA	.+1		;IF TEST FAILS, CHANGE THIS INSTRUCTION (JUMPA .+1) TO
 38318									;JUMPA X (X IS THE ADDRESS OF THE FIRST INSTRUCTION
 38319									;IN THE SUBTEST) TO LOOP ON ERROR^
 38320
 38321					;**********
DFKAA PDP-10 KL10 BASIC INSTRUCTION DIAGNOSTIC (1) VER 0,2	MACRO %52(537) 09:34 31-JAN-77 PAGE 49
DFKAA6	MAC	25-AUG-75 14:01		TEST OF MSCL LOGICAL TEST INSTRUCTIONS                                             SEQ 0877

 38322					SUBTTL	TEST OF MSCL LOGICAL TEST INSTRUCTIONS
 38323
 38324					;**********
 38325
 38326					;THIS TEST VERIFIES THAT TRNE SKIPS THE NEXT SEQUENTIAL INSTRUCTION
 38327					;IF AND ONLY IF ALL BITS IN AC-RIGHT CORRESPONDING TO 1'S IN E ARE ZERO.
 38328					;IN THIS CASE, C(AC)=123456,,701234 AND E=3
 38329					;HENCE, TRNE SHOULD SKIP THE NEXT INSTRUCTION.  THE AC IS ALSO
 38330					;CHECKED FOR NO MODIFICATION.
 38331
 38332	054443	200 17 0 00 070745 	C67500:	MOVE	17,[123456,,701234]	;PRELOAD AC WITH 123456,,701234
 38333	054444	602 17 0 00 000003 		TRNE	17,3			;*TRNE SHOULD SKIP THE NEXT INSTRUCTION
 38334						STOP^
 38335	054445	254 04 0 00 054446 		HALT	.+1		;TEST FAILED IF PROGRAM HALTS HERE
 38336	054446	324 00 0 00 054447 		JUMPA	.+1		;IF TEST FAILS, CHANGE THIS INSTRUCTION (JUMPA .+1) TO
 38337									;JUMPA X (X IS THE ADDRESS OF THE FIRST INSTRUCTION
 38338									;IN THE SUBTEST) TO LOOP ON ERROR^
 38339	054447	312 17 0 00 070745 		CAME	17,[123456,,701234]	;PASS IF C AC) UNCHANGED
 38340						STOP^
 38341	054450	254 04 0 00 054451 		HALT	.+1		;TEST FAILED IF PROGRAM HALTS HERE
 38342	054451	324 00 0 00 054452 		JUMPA	.+1		;IF TEST FAILS, CHANGE THIS INSTRUCTION (JUMPA .+1) TO
 38343									;JUMPA X (X IS THE ADDRESS OF THE FIRST INSTRUCTION
 38344									;IN THE SUBTEST) TO LOOP ON ERROR^
 38345
 38346					;**********
 38347
 38348					;THIS TEST VERIFIES THAT TRNE SKIPS THE NEXT SEQUENTIAL INSTRUCTION
 38349					;IF AND ONLY IF ALL BITS IN AC-RIGHT CORRESPONDING TO 1'S IN E ARE ZERO.
 38350					;IN THIS CASE, C(AC)=123456,,701234 AND E=300
 38351					;HENCE, TRNE SHOULD NOT SKIP THE NEXT INSTRUCTION.  THE AC IS ALSO
 38352					;CHECKED FOR NO MODIFICATION.
 38353
 38354	054452	200 16 0 00 070745 	C67510:	MOVE	16,[123456,,701234]	;PRELOAD AC WITH 123456,,701234
 38355	054453	602 16 0 00 000300 		TRNE	16,300			;*TRNE SHOULD NOT SKIP THE NEXT INSTRUCTION
 38356	054454	334 00 0 00 000000 		SKIPA				;PASS IF TRNE DID NOT SKIP
 38357						STOP^
 38358	054455	254 04 0 00 054456 		HALT	.+1		;TEST FAILED IF PROGRAM HALTS HERE
 38359	054456	324 00 0 00 054457 		JUMPA	.+1		;IF TEST FAILS, CHANGE THIS INSTRUCTION (JUMPA .+1) TO
 38360									;JUMPA X (X IS THE ADDRESS OF THE FIRST INSTRUCTION
 38361									;IN THE SUBTEST) TO LOOP ON ERROR^
 38362	054457	312 16 0 00 070745 		CAME	16,[123456,,701234]	;PASS IF C(AC) UNCHANGED
 38363						STOP^
 38364	054460	254 04 0 00 054461 		HALT	.+1		;TEST FAILED IF PROGRAM HALTS HERE
 38365	054461	324 00 0 00 054462 		JUMPA	.+1		;IF TEST FAILS, CHANGE THIS INSTRUCTION (JUMPA .+1) TO
 38366									;JUMPA X (X IS THE ADDRESS OF THE FIRST INSTRUCTION
 38367									;IN THE SUBTEST) TO LOOP ON ERROR^
 38368
 38369					;**********
DFKAA PDP-10 KL10 BASIC INSTRUCTION DIAGNOSTIC (1) VER 0,2	MACRO %52(537) 09:34 31-JAN-77 PAGE 50
DFKAA6	MAC	25-AUG-75 14:01		TEST OF MSCL LOGICAL TEST INSTRUCTIONS                                             SEQ 0878

 38370					;THIS TEST VERIFIES THAT TLNE SKIPS THE NEXT SEQUENTIAL INSTRUCTION
 38371					;IF AND ONLY IF ALL BITS IN AC-LEFT CORRESPONDING TO 1'S IN E ARE ZERO.
 38372					;IN THIS CASE, C(AC)=123456,,701234 AND E=300
 38373					;HENCE, TLNE SHOULD SKIP THE NEXT INSTRUCTION, THE AC IS ALSO
 38374					;CHECKED FOR NO MODIFICATION.
 38375
 38376	054462	200 15 0 00 070745 	C67600:	MOVE	15,[123456,,701234]	;PRELOAD AC WITH 123456,,701234
 38377	054463	603 15 0 00 000300 		TLNE	15,300			;*TLNE CHOULD SKIP
 38378						STOP^
 38379	054464	254 04 0 00 054465 		HALT	.+1		;TEST FAILED IF PROGRAM HALTS HERE
 38380	054465	324 00 0 00 054466 		JUMPA	.+1		;IF TEST FAILS, CHANGE THIS INSTRUCTION (JUMPA .+1) TO
 38381									;JUMPA X (X IS THE ADDRESS OF THE FIRST INSTRUCTION
 38382									;IN THE SUBTEST) TO LOOP ON ERROR^
 38383	054466	312 15 0 00 070745 		CAME	15,[123456,,701234]	;PASS IF C(AC) IS UNCHANGED
 38384						STOP^
 38385	054467	254 04 0 00 054470 		HALT	.+1		;TEST FAILED IF PROGRAM HALTS HERE
 38386	054470	324 00 0 00 054471 		JUMPA	.+1		;IF TEST FAILS, CHANGE THIS INSTRUCTION (JUMPA .+1) TO
 38387									;JUMPA X (X IS THE ADDRESS OF THE FIRST INSTRUCTION
 38388									;IN THE SUBTEST) TO LOOP ON ERROR^
 38389
 38390					;**********
 38391
 38392					;THIS TEST VERIFIES THAT TLNE SKIPS THE NEXT SEQUENTIAL INSTRUCTION
 38393					;IF AND ONLY IF ALL BITS IN AC-LEFT CORRESPONDING TO 1'S IN E ARE ZERO
 38394					;IN THIS CASE, C(AC)=123456,,701234 AND E=3.
 38395					;HENCE, TLNE SHOULD NOT SKIP THE NEXT INSTRUCTION, THE AC IS ALSO
 38396					;CHECKED FOR NO MODIFICATION
 38397
 38398	054471	200 14 0 00 070745 	C67610:	MOVE	14,[123456,,701234]	;PRELOAD AC WITH 123456,,701234
 38399	054472	603 14 0 00 000003 		TLNE	14,3			;*TLNE SHOULD NOT SKIP
 38400	054473	334 00 0 00 000000 		SKIPA				;PASS IF TLNE DID NOT SKIP
 38401						STOP^
 38402	054474	254 04 0 00 054475 		HALT	.+1		;TEST FAILED IF PROGRAM HALTS HERE
 38403	054475	324 00 0 00 054476 		JUMPA	.+1		;IF TEST FAILS, CHANGE THIS INSTRUCTION (JUMPA .+1) TO
 38404									;JUMPA X (X IS THE ADDRESS OF THE FIRST INSTRUCTION
 38405									;IN THE SUBTEST) TO LOOP ON ERROR^
 38406	054476	312 14 0 00 070745 		CAME	14,[123456,,701234]	;PASS IF C(AC) UNCHANGED
 38407						STOP^
 38408	054477	254 04 0 00 054500 		HALT	.+1		;TEST FAILED IF PROGRAM HALTS HERE
 38409	054500	324 00 0 00 054501 		JUMPA	.+1		;IF TEST FAILS, CHANGE THIS INSTRUCTION (JUMPA .+1) TO
 38410									;JUMPA X (X IS THE ADDRESS OF THE FIRST INSTRUCTION
 38411									;IN THE SUBTEST) TO LOOP ON ERROR^
 38412
 38413					;**********
DFKAA PDP-10 KL10 BASIC INSTRUCTION DIAGNOSTIC (1) VER 0,2	MACRO %52(537) 09:34 31-JAN-77 PAGE 51
DFKAA6	MAC	25-AUG-75 14:01		TEST OF MSCL LOGICAL TEST INSTRUCTIONS                                             SEQ 0879

 38414					;THIS TEST VERIFIES THAT TRNA ALWAYS SKIPS THE NEXT SEQUENTIAL
 38415					;INSTRUCTION.  HENCE, TRNA IS INDEPENDENT OF BOTH C(A) AND E
 38416					;IN THIS CASE, C(AC)=123456,,701234 AND E=3.
 38417					;HENCE, TRNA SHOULD SKIP THENEXT INSTRUCTION AND NOT ALTER C(AC).
 38418
 38419	054501	200 13 0 00 070745 	C67700:	MOVE	13,[123456,,701234]	;PRELOAD AC WITH 123456,,701234
 38420	054502	604 13 0 00 000003 		TRNA	13,3			;*TRNA SHOULD ALWAYS SKIP
 38421						STOP^
 38422	054503	254 04 0 00 054504 		HALT	.+1		;TEST FAILED IF PROGRAM HALTS HERE
 38423	054504	324 00 0 00 054505 		JUMPA	.+1		;IF TEST FAILS, CHANGE THIS INSTRUCTION (JUMPA .+1) TO
 38424									;JUMPA X (X IS THE ADDRESS OF THE FIRST INSTRUCTION
 38425									;IN THE SUBTEST) TO LOOP ON ERROR^
 38426	054505	312 13 0 00 070745 		CAME	13,[123456,,701234]	;PASS IFC(AC) UNCHANGED
 38427						STOP^
 38428	054506	254 04 0 00 054507 		HALT	.+1		;TEST FAILED IF PROGRAM HALTS HERE
 38429	054507	324 00 0 00 054510 		JUMPA	.+1		;IF TEST FAILS, CHANGE THIS INSTRUCTION (JUMPA .+1) TO
 38430									;JUMPA X (X IS THE ADDRESS OF THE FIRST INSTRUCTION
 38431									;IN THE SUBTEST) TO LOOP ON ERROR^
 38432
 38433					;**********
 38434
 38435					;THIS TEST VERIFhES THAT TRNA ALWAYS SKIPS THE NEXT SEQUENTIAL
 38436					;INSTRUCTION.  HENCE, TRNA IS INDEPENDENT OF BOTH C(A) AND E.
 38437					;IN THIS CASE, C(AC)=123456,,701234 AND E=300
 38438					;HENCE, TRNA SHOULD SKIP THE NEXT INSTRUCTION AND NOT ALTER C(AC).
 38439
 38440	054510	200 12 0 00 070745 	C67710:	MOVE	12,[123456,,701234]	;PRELOAD AC WITH 123456,,701234
 38441	054511	604 12 0 00 000300 		TRNA	12,300			;*TRNA SHOQLD ALWAYS SKIP
 38442						STOP^
 38443	054512	254 04 0 00 054513 		HALT	.+1		;TEST FAILED IF PROGRAM HALTS HERE
 38444	054513	324 00 0 00 054514 		JUMPA	.+1		;IF TEST FAILS, CHANGE THIS INSTRUCTION (JUMPA .+1) TO
 38445									;JUMPA X (X IS THE ADDRESS OF THE FIRST INSTRUCTION
 38446									;IN THE SUBTEST) TO LOOP ON ERROR^
 38447	054514	312 12 0 00 070745 		CAME	12,[123456,,701234]	;PASS IF C(AC) UNCHANGED
 38448						STOP^
 38449	054515	254 04 0 00 054516 		HALT	.+1		;TEST FAILED IF PROGRAM HALTS HERE
 38450	054516	324 00 0 00 054517 		JUMPA	.+1		;IF TEST FAILS, CHANGE THIS INSTRUCTION (JUMPA .+1) TO
 38451									;JUMPA X (X IS THE ADDRESS OF THE FIRST INSTRUCTION
 38452									;IN THE SUBTEST) TO LOOP ON ERROR^
 38453
 38454					;**********
DFKAA PDP-10 KL10 BASIC INSTRUCTION DIAGNOSTIC (1) VER 0,2	MACRO %52(537) 09:34 31-JAN-77 PAGE 52
DFKAA6	MAC	25-AUG-75 14:01		TEST OF MSCL LOGICAL TEST INSTRUCTIONS                                             SEQ 0880

 38455					;THIS TEST VERIFIaS THAT TLNA ALWAYS SKIPS THE NEXT SEQUENTIAL
 38456					;INSTRUCTION.  HENCE, TLNA IS INDEPENDENt OF BOTH C(AC) AND E.
 38457					;IN THIS CASE, C(AC)=123456,,701234 AND E=3.
 38458					;HENCE, TLNA SHOULD SKIP THE NEXT INSTRUCTION AND NOT ALTER C(AC).
 38459
 38460	054517	200 11 0 00 070745 	C70000:	MOVE	11,[123456,,701234]	;PRELOAD AC WITH 123456,,701234
 38461	054520	605 11 0 00 000003 		TLNA	11,3			;*TLNA SHOULD ALWAYS SKIP
 38462						STOP^
 38463	054521	254 04 0 00 054522 		HALT	.+1		;TEST FAILED IF PROGRAM HALTS HERE
 38464	054522	324 00 0 00 054523 		JUMPA	.+1		;IF TEST FAILS, CHANGE THIS INSTRUCTION (JUMPA .+1) TO
 38465									;JUMPA X (X IS THE ADDRESS OF THE FIRST INSTRUCTION
 38466									;IN THE SUBTEST) TO LOOP ON ERROR^
 38467	054523	312 11 0 00 070745 		CAME	11,[123456,,701234]	;PASS IF C(AC) UNCHANGED
 38468						STOP^
 38469	054524	254 04 0 00 054525 		HALT	.+1		;TEST FAILED IF PROGRAM HALTS HERE
 38470	054525	324 00 0 00 054526 		JUMPA	.+1		;IF TEST FAILS, CHANGE THIS INSTRUCTION (JUMPA .+1) TO
 38471									;JUMPA X (X IS THE ADDRESS OF THE FIRST INSTRUCTION
 38472									;IN THE SUBTEST) TO LOOP ON ERROR^
 38473
 38474					;**********
 38475
 38476					;THIS TEST VERIFIES THAT TLNA ALWAYS SKIPS THE NEXT SEQUENTIAL
 38477					;INSTRUCTION.  HENCE, TLNA IS INDEPENDENT OF BOTH C(AC) AND E.
 38478					;IN THIS CASE, C(AC)=123456,,701234 AND E=300.
 38479					;HENCE, TLNA SHOULD SKIP THE NEXT INSTRUCTION AND NOT ALTER C(AC).
 38480
 38481	054526	200 10 0 00 070745 	C70010:	MOVE	10,[123456,,701234]	;PRELOAD AC WITH 123456,,701234
 38482	054527	605 10 0 00 000300 		TLNA	10,300			;*TLNA SHOULD ALWAYS SKIP
 38483						STOP^
 38484	054530	254 04 0 00 054531 		HALT	.+1		;TEST FAILED IF PROGRAM HALTS HERE
 38485	054531	324 00 0 00 054532 		JUMPA	.+1		;IF TEST FAILS, CHANGE THIS INSTRUCTION (JUMPA .+1) TO
 38486									;JUMPA X (X IS THE ADDRESS OF THE FIRST INSTRUCTION
 38487									;IN THE SUBTEST) TO LOOP ON ERROR^
 38488	054532	312 10 0 00 070745 		CAME	10,[123456,,701234]	;PASS IF C(AC) UNCHANGED
 38489						STOP^
 38490	054533	254 04 0 00 054534 		HALT	.+1		;TEST FAILED IF PROGRAM HALTS HERE
 38491	054534	324 00 0 00 054535 		JUMPA	.+1		;IF TEST FAILS, CHANGE THIS INSTRUCTION (JUMPA .+1) TO
 38492									;JUMPA X (X IS THE ADDRESS OF THE FIRST INSTRUCTION
 38493									;IN THE SUBTEST) TO LOOP ON ERROR^
 38494
 38495					;**********
DFKAA PDP-10 KL10 BASIC INSTRUCTION DIAGNOSTIC (1) VER 0,2	MACRO %52(537) 09:34 31-JAN-77 PAGE 53
DFKAA6	MAC	25-AUG-75 14:01		TEST OF MSCL LOGICAL TEST INSTRUCTIONS                                             SEQ 0881

 38496					;THIS TEST VERIFIES THAT TRNN SKIPS THE NEXT SEQUENTIAL INSTRUCTION
 38497					;IF AND ONLY IF NOT ALL BITS IN AC-RIGHT CORRESPONDING TO 1'S IN
 38498					;E ARE ZERO.  IN THIS CASE, C(AC)=123456,,701234 AND E=300.
 38499					;HENCE, TRNN SHOULD SKIP THE NEXT INSTRUCTION AND NOT ALTER C(AC).
 38500
 38501	054535	200 07 0 00 070745 	C70100:	MOVE	7,[123456,,701234]	;PRELOAD AC WITH 123456,,701234
 38502	054536	606 07 0 00 000300 		TRNN	7,300			;*TRNN SHOULD SKIP
 38503						SToP^
 38504	054537	254 04 0 00 054540 		HALT	.+1		;TEST FAILED IF PROGRAM HALTS HERE
 38505	054540	324 00 0 00 054541 		JUMPA	.+1		;IF TEST FAILS, CHANGE THIS INSTRUCTION (JUMPA .+1) TO
 38506									;JUMPA X (X IS THE ADDRESS OF THE FIRST INSTRUCTION
 38507									;IN THE SUBTEST) TO LOOP ON ERROR^
 38508	054541	312 07 0 00 070745 		CAME	7,[123456,,701234]	;PASS IF C(AC) UNCHANGED
 38509						STOP^
 38510	054542	254 04 0 00 054543 		HALT	.+1		;TEST FAILED IF PROGRAM HALTS HERE
 38511	054543	324 00 0 00 054544 		JUMPA	.+1		;IF TEST FAILS, CHANGE THIS INSTRUCTION (JUMPA .+1) TO
 38512									;JUMPA X (X IS THE ADDRESS OF THE FIRST INSTRUCTION
 38513									;IN THE SUBTEST) TO LOOP ON ERROR^
 38514
 38515					;**********
 38516
 38517					;THIS TEST VERIFIES THAT TRNN SKIPS THE NEXT SEQUENTIAL INSTRUCTION
 38518					;IF AND ONLY IF NOT ALL BITS IN AC-RIGHT CORRESPONDING TO 1'S IN
 38519					;E ARE ZERO.  IN THIS CASE, C(AC)=123456,,701234 AND E=3.
 38520					;HENCE, TRNN SHoULD NOT SKIP THE NEXT INSTRUCTION AND NOT ALTER C(AC).
 38521
 38522	054544	200 06 0 00 070745 	C70110:	MOVE	6,[123456,,701234]	;PRELOAD AC WITH 123456,,701234
 38523	054545	606 06 0 00 000003 		TRNN	6,3			;*TRNN SHOULD NOT SKIP
 38524	054546	334 00 0 00 000000 		SKIPA				;PASS IF TRNN DID NOT SKIP
 38525						STOP^
 38526	054547	254 04 0 00 054550 		HALT	.+1		;TEST FAILED IF PROGRAM HALTS HERE
 38527	054550	324 00 0 00 054551 		JUMPA	.+1		;IF TEST FAILS, CHANGE THIS INSTRUCTION (JUMPA .+1) TO
 38528									;JUMPA X (X IS THE ADDRESS OF THE FIRST INSTRUCTION
 38529									;IN THE SUBTEST) TO LOOP ON ERROR^
 38530	054551	312 06 0 00 070745 		CAME	6,[123456,,701234]	;PASS IF C(AC) UNCHANGED
 38531						STOP^
 38532	054552	254 04 0 00 054553 		HALT	.+1		;TEST FAILED IF PROGRAM HALTS HERE
 38533	054553	324 00 0 00 054554 		JUMPA	.+1		;IF TEST FAILS, CHANGE THIS INSTRUCTION (JUMPA .+1) TO
 38534									;JUMPA X (X IS THE ADDRESS OF THE FIRST INSTRUCTION
 38535									;IN THE SUBTEST) TO LOOP ON ERROR^
 38536
 38537					;**********
DFKAA PDP-10 KL10 BASIC INSTRUCTION DIAGNOSTIC (1) VER 0,2	MACRO %52(537) 09:34 31-JAN-77 PAGE 54
DFKAA6	MAC	25-AUG-75 14:01		TEST OF MSCL LOGICAL TEST INSTRUCTIONS                                             SEQ 0882

 38538					;THIS TEST VERIFIES THAT TLNN SKIPS THE NEXT SEQUENTIAL INSTRUCTION
 38539					;IF AND ONLY IF NOT ALL BITS IN AC-LEFT CORRESPONDING TO 1'S IN E ARE ZERO.
 38540					;IN THIS CASE, C(AC)=123456,,701234 AND E=3.
 38541					;HENCE, TLNN SHOULD SKIP THE NEXT INSTRUCTION AND NOT ALTER C(AC).
 38542
 38543	054554	200 05 0 00 070745 	C70200:	MOVE	5,[123456,,701234]	;PRELOAD AC WITH 123456,,701234
 38544	054555	607 05 0 00 000003 		TLNN	5,3			;*TLNN SHOULD SKIP
 38545						STOP^
 38546	054556	254 04 0 00 054557 		HALT	.+1		;TEST FAILED IF PROGRAM HALTS HERE
 38547	054557	324 00 0 00 054560 		JUMPA	.+1		;IF TEST FAILS, CHANGE THIS INSTRUCTION (JUMPA .+1) TO
 38548									;JUMPA X (X IS THE ADDRESS OF THE FIRST INSTRUCTION
 38549									;IN THE SUBTEST) TO LOOP ON ERROR^
 38550	054560	312 05 0 00 070745 		CAME	5,[123456,,701234]	;PASS IF C(AC) UNCHANGED
 38551						STOP^
 38552	054561	254 04 0 00 054562 		HALT	.+1		;TEST FAILED IF PROGRAM HALTS HERE
 38553	054562	324 00 0 00 054563 		JUMPA	.+1		;IF TEST FAILS, CHANGE THIS INSTRUCTION (JUMPA .+1) TO
 38554									;JUMPA X (X IS THE ADDRESS OF THE FIRST INSTRUCTION
 38555									;IN THE SUBTEST) TO LOOP ON ERROR^
 38556
 38557					;**********
 38558
 38559					;THIS TEST VERIFIES thAT TLNN SkIPS THE NEXT SEQUENTIAL INSTRUcTION
 38560					;IF AND ONLY IF NOT ALL BITS IN AC-LEFT CORRESPONDING TO 1'S IN E ARE ZERO.
 38561					;IN THIS CASE, C(AC)=123456,,701234 AND E=300.
 38562					;HENCE, TLNN SHOULD NOT SKIP THE NEXT INSTRUCTION AND NOT ALTER C(AC).
 38563
 38564	054563	200 04 0 00 070745 	C70210:	MOVE	4,[123456,,701234]	;PRELOAD AC WITH 123456,,701234
 38565	054564	607 04 0 00 000300 		TLNN	4,300			;*TLNN SHOULD NOT SKIP
 38566	054565	334 00 0 00 000000 		SKIPA				;PASS IF TLNN DOES NOT SKIP
 38567						STOP^
 38568	054566	254 04 0 00 054567 		HALT	.+1		;TEST FAILED IF PROGRAM HALTS HERE
 38569	054567	324 00 0 00 054570 		JUMPA	.+1		;IF TEST FAILS, CHANGE THIS INSTRUCTION (JUMPA .+1) TO
 38570									;JUMPA X (X IS THE ADDRESS OF THE FIRST INSTRUCTION
 38571									;IN THE SUBTEST) TO LOOP ON ERROR^
 38572	054570	312 04 0 00 070745 		CAME	4,[123456,,701234]	;PASS IF C(AC) UNCHANGED
 38573						STOP^
 38574	054571	254 04 0 00 054572 		HALT	.+1		;TEST FAILED IF PROGRAM HALTS HERE
 38575	054572	324 00 0 00 054573 		JUMPA	.+1		;IF TEST FAILS, CHANGE THIS INSTRUCTION (JUMPA .+1) TO
 38576									;JUMPA X (X IS THE ADDRESS OF THE FIRST INSTRUCTION
 38577									;IN THE SUBTEST) TO LOOP ON ERROR^
 38578
 38579					;**********
DFKAA PDP-10 KL10 BASIC INSTRUCTION DIAGNOSTIC (1) VER 0,2	MACRO %52(537) 09:34 31-JAN-77 PAGE 55
DFKAA6	MAC	25-AUG-75 14:01		TEST OF MSCL LOGICAL TEST INSTRUCTIONS                                             SEQ 0883

 38580					;THIS TEST VERIFIES THAT TSNE SKIPS THE NEXT SEQUENTIAL INSTRUCTION
 38581					;IF AND ONLY IF ALL BITS IN THE AC CORRESPONDING TO 1'S IN C(E) WITH
 38582					;BOTH HALVES SNAPPED ARE ZERO.  NEITHER AC NOR E ARE AFFECTED.
 38583					;IN THIS CASE, C(AC)=123456,,701234 AND C(E)=076543,,654321
 38584					;HENCE, TSNE SHOULD SKIP THE NEXT INSTRUCtION AND
 38585					;BOTH C(AC) AND C(E) SHOULD BE UNMODIFIED.
 38586
 38587	054573	200 03 0 00 070745 	C70300:	MOVE	3,[123456,,701234]	;PRELOAD AC WITH 123456,,701234
 38588	054574	200 04 0 00 070754 		MOVE	4,[76543,,654321]	;PRELOAD E WITH 076543,,654321
 38589	054575	613 03 0 00 000004 		TSNE	3,4			;*TSNE SHOULD SKIP
 38590						STOP^
 38591	054576	254 04 0 00 054577 		HALT	.+1		;TEST FAILED IF PROGRAM HALTS HERE
 38592	054577	324 00 0 00 054600 		JUMPA	.+1		;IF TEST FAILS, CHANGE THIS INSTRUCTION (JUMPA .+1) TO
 38593									;JUMPA X (X IS THE ADDRESS OF THE FIRST INSTRUCTION
 38594									;IN THE SUBTEST) TO LOOP ON ERROR^
 38595	054600	312 03 0 00 070745 		CAME	3,[123456,,701234]	;PASS IF C(AC) UNCHANGED
 38596						STOP^
 38597	054601	254 04 0 00 054602 		HALT	.+1		;TEST FAILED IF PROGRAM HALTS HERE
 38598	054602	324 00 0 00 054603 		JUMPA	.+1		;IF TEST FAILS, CHANGE THIS INSTRUCTION (JUMPA .+1) TO
 38599									;JUMPA X (X IS THE ADDRESS OF THE FIRST INSTRUCTION
 38600									;IN THE SUBTEST) TO LOOP ON ERROR^
 38601	054603	312 04 0 00 070754 		CAME	4,[76543,,654321]	;PASS IF C(E) UNCHANGED
 38602						STOP^
 38603	054604	254 04 0 00 054605 		HALT	.+1		;TEST FAILED IF PROGRAM HALTS HERE
 38604	054605	324 00 0 00 054606 		JUMPA	.+1		;IF TEST FAILS, CHANGE THIS INSTRUCTION (JUMPA .+1) TO
 38605									;JUMPA X (X IS THE ADDRESS OF THE FIRST INSTRUCTION
 38606									;IN THE SUBTEST) TO LOOP ON ERROR^
 38607
 38608					;**********
 38609
 38610					;THIS TEST VERIFIES THAT TSNE SKIPS THE NEXT SEQUENTIAL INSTRUCTION
 38611					;IF AND ONLY IF ALL BITS IN THE AC CORRESPONDING TO 1'S IN C(E) WITH
 38612					;BOTH HALVES SNAPPED ARE ZERO.  NEITHER AC NOR E ARE AFFECTED.
 38613					;IN THIS CASE, C(AC)=123456,,701234 AND C(E)=076543,,654323
 38614					;HENCE, TSNE SHOULD NOT SKIP THE NEXT INSTRUCTION AND
 38615					;BOTH C(AC) AND C(E) SHOULD BE UNMODIFIED.
 38616
 38617	054606	200 02 0 00 070745 	C70310:	MOVE	2,[123456,,701234]	;PRELOAD AC WITH 123456,,701234
 38618	054607	200 03 0 00 070755 		MOVE	3,[76543,,654323]	;PRELOAD E WITH 076543,,654323
 38619	054610	613 02 0 00 000003 		TSNE	2,3			;*TSNE SHOULD NOT SKIP
 38620	054611	334 00 0 00 000000 		SKIPA				;PASS IF TSOE DId NOT SKIP
 38621						STOP^
 38622	054612	254 04 0 00 054613 		HALT	.+1		;TEST FAILED IF PROGRAM HALTS HERE
 38623	054613	324 00 0 00 054614 		JUMPA	.+1		;IF TEST FAILS, CHANGE THIS INSTRUCTION (JUMPA .+1) TO
 38624									;JUMPA X (X IS THE ADDRESS OF THE FIRST INSTRUCTION
 38625									;IN THE SUBTEST) TO LOOP ON ERROR^
 38626	054614	312 02 0 00 070745 		CAME	2,[123456,,701234]	;PASS IF C(AC) UNCHANGED
 38627						STOP^
 38628	054615	254 04 0 00 054616 		HALT	.+1		;TEST FAILED IF PROGRAM HALTS HERE
 38629	054616	324 00 0 00 054617 		JUMPA	.+1		;IF TEST FAILS, CHANGE THIS INSTRUCTION (JUMPA .+1) TO
 38630									;JUMPA X (X IS THE ADDRESS OF THE FIRST INSTRUCTION
 38631									;IN THE SUBTEST) TO LOOP ON ERROR^
 38632	054617	312 03 0 00 070755 		CAME	3,[76543,,654323]	;PASS IF C(E) UNCHANGED
 38633						STOP^
 38634	054620	254 04 0 00 054621 		HALT	.+1		;TEST FAILED IF PROGRAM HALTS HERE
DFKAA PDP-10 KL10 BASIC INSTRUCTION DIAGNOSTIC (1) VER 0,2	MACRO %52(537) 09:34 31-JAN-77 PAGE 55-1
DFKAA6	MAC	25-AUG-75 14:01		TEST OF MSCL LOGICAL TEST INSTRUCTIONS                                             SEQ 0884

 38635	054621	324 00 0 00 054622 		JUMPA	.+1		;IF TEST FAILS, CHANGE THIS INSTRUCTION (JUMPA .+1) TO
 38636									;JUMPA X (X IS THE ADDRESS OF THE FIRST INSTRUCTION
 38637									;IN THE SUBTEST) TO LOOP ON ERROR^
 38638
 38639					;**********
DFKAA PDP-10 KL10 BASIC INSTRUCTION DIAGNOSTIC (1) VER 0,2	MACRO %52(537) 09:34 31-JAN-77 PAGE 56
DFKAA6	MAC	25-AUG-75 14:01		TEST OF MSCL LOGICAL TEST INSTRUCTIONS                                             SEQ 0885

 38640					;THIS TEST VERIFIES THAT TSNA ALWAYS SKIPS THE NEXT SEQUENTIAL INSTRUCTION
 38641					;NEITHER AC NOR E ARE AFFECTED.
 38642					;IN THIS CASE, C(AC)=123456,,701234 AND C(E)=076543,,654321
 38643					;HENCE, TSNA SHOULD SKIP THE NEXT INSTRUCTION AND
 38644					;BOTH C(AC) AND C(E) SHOULD BE UNMODIFIED
 38645
 38646	054622	200 01 0 00 070745 	C70400:	MOVE	1,[123456,,701234]	;PRELOAD AC WITH 123456,,701234
 38647	054623	200 02 0 00 070754 		MOVE	2,[76543,,654321]	;PRELOAD E WITH 076543,,654321
 38648	054624	615 01 0 00 000002 		TSNA	1,2			;*TSNA SHOULD SKIP
 38649						STOP^
 38650	054625	254 04 0 00 054626 		HALT	.+1		;TEST FAILED IF PROGRAM HALTS HERE
 38651	054626	324 00 0 00 054627 		JUMPA	.+1		;IF TEST FAILS, CHANGE THIS INSTRUCTION (JUMPA .+1) TO
 38652									;JUMPA X (X IS THE ADDRESS OF THE FIRST INSTRUCTION
 38653									;IN THE SUBTEST) TO LOOP ON ERROR^
 38654	054627	312 01 0 00 070745 		CAME	1,[123456,,701234]	;PASS IF C(AC) UNCHANGED
 38655						STOP^
 38656	054630	254 04 0 00 054631 		HALT	.+1		;TEST FAILED IF PROGRAM HALTS HERE
 38657	054631	324 00 0 00 054632 		JUMPA	.+1		;IF TEST FAILS, CHANGE THIS INSTRUCTION (JUMPA .+1) TO
 38658									;JUMPA X (X IS THE ADDRESS OF THE FIRST INSTRUCTION
 38659									;IN THE SUBTEST) TO LOOP ON ERROR^
 38660	054632	312 02 0 00 070754 		CAME	2,[76543,,654321]	;PASS IF C(E) UNCHANGED
 38661						STOP^
 38662	054633	254 04 0 00 054634 		HALT	.+1		;TEST FAILED IF PROGRAM HALTS HERE
 38663	054634	324 00 0 00 054635 		JUMPA	.+1		;IF TEST FAILS, CHANGE THIS INSTRUCTION (JUMPA .+1) TO
 38664									;JUMPA X (X IS THE ADDRESS OF THE FIRST INSTRUCTION
 38665									;IN THE SUBTEST) TO LOOP ON ERROR^
 38666
 38667					;**********
 38668
 38669					;THIS TEST VERIFIES THAT TSNA ALWAYS SKIPS THE NEXT SEQUENTIAL INSTRUCTION
 38670					;NEITHER AC NOR E ARE EFFECTED.
 38671					;IN THIS CASE, C(AC)=123456,,701234 AND C(E)=076543,,654323
 38672					;HENCE, TSNA SHOULD SKIP THE NEXT INSTRUCTION AND
 38673					;BOTH C(AC) AND C(E) SHOULD BE UNMODIFIED
 38674
 38675	054635	200 00 0 00 070745 	C70410:	MOVE	0,[123456,,701234]	;PRELOAD AC WITH 123456,,701234
 38676	054636	200 01 0 00 070755 		MOVE	1,[76543,,654323]	;PRELOAD E WITH 076543,,654323
 38677	054637	615 00 0 00 000001 		TSNA	0,1			;*TSNA SHOULD SKIP
 38678						STOP^
 38679	054640	254 04 0 00 054641 		HALT	.+1		;TEST FAILED IF PROGRAM HALTS HERE
 38680	054641	324 00 0 00 054642 		JUMPA	.+1		;IF TEST FAILS, CHANGE THIS INSTRUCTION (JUMPA .+1) TO
 38681									;JUMPA X (X IS THE ADDRESS OF THE FIRST INSTRUCTION
 38682									;IN THE SUBTEST) TO LOOP ON ERROR^
 38683	054642	312 01 0 00 070755 		CAME	1,[76543,,654323]	;PASS IF C(E) UNCHANGED
 38684						STOP^
 38685	054643	254 04 0 00 054644 		HALT	.+1		;TEST FAILED IF PROGRAM HALTS HERE
 38686	054644	324 00 0 00 054645 		JUMPA	.+1		;IF TEST FAILS, CHANGE THIS INSTRUCTION (JUMPA .+1) TO
 38687									;JUMPA X (X IS THE ADDRESS OF THE FIRST INSTRUCTION
 38688									;IN THE SUBTEST) TO LOOP ON ERROR^
 38689
 38690					;**********
DFKAA PDP-10 KL10 BASIC INSTRUCTION DIAGNOSTIC (1) VER 0,2	MACRO %52(537) 09:34 31-JAN-77 PAGE 57
DFKAA6	MAC	25-AUG-75 14:01		TEST OF MSCL LOGICAL TEST INSTRUCTIONS                                             SEQ 0886

 38691					;THIS TEST VERIFIES THAT TSNN SKIPS THE NEXT SEQUENTIAL INSTRUCTION
 38692					;IF AND ONLY IF NOT ALL HITS IN THE AC CORRESPONDING TO 1'S IN C(E) WITH
 38693					;BOTH HALVES SWAPPED ARE ZERO.  NEITHER AC NOR E ARE AFFECTED.
 38694					;IN THIS CASE, C(AC)=123456,,701234 AND C(E)=076547,,654321
 38695					;HENCE, TSNN SHOULD SKIP THE NEXT INSTRUCTION AND
 38696					;BOTH C(AC) AND C(E) SHOULD BE UNMODIFIED
 38697
 38698	054645	200 17 0 00 070745 	C70500:	MOVE	17,[123456,,701234]	;PRELOAD AC WITH 123456,,701234
 38699	054646	200 00 0 00 070756 		MOVE	0,[76547,,654321]	;PRELOAD E WITH 076547,,654321
 38700	054647	617 17 0 00 000000 		TSNN	17,0			;*TSNN SHOULD SKIP
 38701						STOP^
 38702	054650	254 04 0 00 054651 		HALT	.+1		;TEST FAILED IF PROGRAM HALTS HERE
 38703	054651	324 00 0 00 054652 		JUMPA	.+1		;IF TEST FAILS, CHANGE THIS INSTRUCTION (JUMPA .+1) TO
 38704									;JUMPA X (X IS THE ADDRESS OF THE FIRST INSTRUCTION
 38705									;IN THE SUBTEST) TO LOOP ON ERROR^
 38706	054652	312 17 0 00 070745 		CAME	17,[123456,,701234]	;PASS IF C(AC) UNCHANGED
 38707						STOP^
 38708	054653	254 04 0 00 054654 		HALT	.+1		;TEST FAILED IF PROGRAM HALTS HERE
 38709	054654	324 00 0 00 054655 		JUMPA	.+1		;IF TEST FAILS, CHANGE THIS INSTRUCTION (JUMPA .+1) TO
 38710									;JUMPA X (X IS THE ADDRESS OF THE FIRST INSTRUCTION
 38711									;IN THE SUBTEST) TO LOOP ON ERROR^
 38712	054655	312 00 0 00 070756 		CAME	0,[76547,,654321]	;PASS IF C(E) UNCHANGED
 38713						STOP^
 38714	054656	254 04 0 00 054657 		HALT	.+1		;TEST FAILED IF PROGRAM HALTS HERE
 38715	054657	324 00 0 00 054660 		JUMPA	.+1		;IF TEST FAILS, CHANGE THIS INSTRUCTION (JUMPA .+1) TO
 38716									;JUMPA X (X IS THE ADDRESS OF THE FIRST INSTRUCTION
 38717									;IN THE SUBTEST) TO LOOP ON ERROR^
 38718
 38719					;**********
 38720
 38721					;THIS TEST VERIFIES THAT TSNN SKIPS THE NEXT SEQUENTIAL INSTRUCTION
 38722					;IF AND ONLY IF NOT ALL BITS IN THE AC CORRESPONDING TO 1'S IN C(E) WITH
 38723					;BOTH HALVES SWAPPED ARE ZERO.  NEITHER AC NOR E ARE AFFECTED.
 38724					;IN THIS CASE, C(AC)=123456,,701234 AND C(E)=076543,,654321
 38725					;HENCE, TSNN SHOULD NOT SKIP THE NEXT INSTRUCTION AND
 38726					;BOTH C(AC) AND C(E) SHOULD BE UNMODIFIED
 38727
 38728	054660	200 16 0 00 070745 	C70510:	MOVE	16,[123456,,701234]	;PRELOAD AC WITH 123456,,701234
 38729	054661	200 17 0 00 070754 		MOVE	17,[76543,,654321]	;PRELOAD E WITH 076543,,654321
 38730	054662	617 16 0 00 000017 		TSNN	16,17			;*TSNN SHOULD NOT SKIP
 38731	054663	334 00 0 00 000000 		SKIPA				;PASS IF TSNN DID NOT SKIP
 38732						STOP^
 38733	054664	254 04 0 00 054665 		HALT	.+1		;TEST FAILED IF PROGRAM HALTS HERE
 38734	054665	324 00 0 00 054666 		JUMPA	.+1		;IF TEST FAILS, CHANGE THIS INSTRUCTION (JUMPA .+1) TO
 38735									;JUMPA X (X IS THE ADDRESS OF THE FIRST INSTRUCTION
 38736									;IN THE SUBTEST) TO LOOP ON ERROR^
 38737	054666	312 16 0 00 070745 		CAME	16,[123456,,701234]	;PASS IF C(AC) UNCHANGED
 38738						STOP^
 38739	054667	254 04 0 00 054670 		HALT	.+1		;TEST FAILED IF PROGRAM HALTS HERE
 38740	054670	324 00 0 00 054671 		JUMPA	.+1		;IF TEST FAILS, CHANGE THIS INSTRUCTION (JUMPA .+1) TO
 38741									;JUMPA X (X IS THE ADDRESS OF THE FIRST INSTRUCTION
 38742									;IN THE SUBTEST) TO LOOP ON ERROR^
 38743	054671	312 17 0 00 070754 		CAME	17,[76543,,654321]	;PASS IF C(E) UNCHANGED
 38744						STOP^
 38745	054672	254 04 0 00 054673 		HALT	.+1		;TEST FAILED IF PROGRAM HALTS HERE
DFKAA PDP-10 KL10 BASIC INSTRUCTION DIAGNOSTIC (1) VER 0,2	MACRO %52(537) 09:34 31-JAN-77 PAGE 57-1
DFKAA6	MAC	25-AUG-75 14:01		TEST OF MSCL LOGICAL TEST INSTRUCTIONS                                             SEQ 0887

 38746	054673	324 00 0 00 054674 		JUMPA	.+1		;IF TEST FAILS, CHANGE THIS INSTRUCTION (JUMPA .+1) TO
 38747									;JUMPA X (X IS THE ADDRESS OF THE FIRST INSTRUCTION
 38748									;IN THE SUBTEST) TO LOOP ON ERROR^
 38749
 38750					;**********
DFKAA PDP-10 KL10 BASIC INSTRUCTION DIAGNOSTIC (1) VER 0,2	MACRO %52(537) 09:34 31-JAN-77 PAGE 58
DFKAA6	MAC	25-AUG-75 14:01		TEST OF MSCL LOGICAL TEST INSTRUCTIONS                                             SEQ 0888

 38751					;THIS TEST VERIFIES THAT TRZ CHANGES ALL BITS IN THE AC-RIGHT WHICH
 38752					;CORRESPOND TO 1'S IN E TO ZERO AND DOES NOT SKIP.
 38753					;IN THIS CASE, C(AC)=123456,,701234 AND E=3
 38754					;HENCE, THE RESULT IN THE AC SHOULD BE 123456,,701234
 38755
 38756	054674	200 15 0 00 070745 	C70600:	MOVE	15,[123456,,701234]	;PRELOAD AC WITH 123456,,701234]
 38757	054675	620 12 0 00 000003 		TRZ	12,3			;*TRZ SHOULD PLACE 123456,,701234 INTO
 38758										;THE AC AND NOT SKIP
 38759	054676	334 00 0 00 000000 		SKIPA				;PASS IF TRZ DOES NOT SKIP
 38760						STOP^
 38761	054677	254 04 0 00 054700 		HALT	.+1		;TEST FAILED IF PROGRAM HALTS HERE
 38762	054700	324 00 0 00 054701 		JUMPA	.+1		;IF TEST FAILS, CHANGE THIS INSTRUCTION (JUMPA .+1) TO
 38763									;JUMPA X (X IS THE ADDRESS OF THE FIRST INSTRUCTION
 38764									;IN THE SUBTEST) TO LOOP ON ERROR^
 38765	054701	312 15 0 00 070745 		CAME	15,[123456,,701234]	;PASS IF C(AC)=123456,,701234
 38766						STOP^
 38767	054702	254 04 0 00 054703 		HALT	.+1		;TEST FAILED IF PROGRAM HALTS HERE
 38768	054703	324 00 0 00 054704 		JUMPA	.+1		;IF TEST FAILS, CHANGE THIS INSTRUCTION (JUMPA .+1) TO
 38769									;JUMPA X (X IS THE ADDRESS OF THE FIRST INSTRUCTION
 38770									;IN THE SUBTEST) TO LOOP ON ERROR^
 38771
 38772					;**********
 38773
 38774					;THIS TEST VERIFIES THAT TRZ CHANGES ALL BITS IN THE AC-RIGHT WHICH
 38775					;CORRESPOND TO 1'S IN E TO ZERO AND DOES NOT SKIP.
 38776					;IN THIS CASE, C(AC)=123456,,701234 AND E=300
 38777					;HENCE, THE RESULT IN THE AC SHOULD BE 123456,,701034
 38778
 38779	054704	200 14 0 00 070745 	C70610:	MOVE	14,[123456,,701234]	;PRELOAD AC WITH 123456,,701234
 38780	054705	620 14 0 00 000300 		TRZ	14,300			;*TRZ SHOULD PLACE 123456,,701234 INTO
 38781										;THE ACAND NOT SKIP
 38782	054706	334 00 0 00 000000 		SKIPA				;PASS IF TRX DOES NOT SKIP
 38783						STOP^
 38784	054707	254 04 0 00 054710 		HALT	.+1		;TEST FAILED IF PROGRAM HALTS HERE
 38785	054710	324 00 0 00 054711 		JUMPA	.+1		;IF TEST FAILS, CHANGE THIS INSTRUCTION (JUMPA .+1) TO
 38786									;JUMPA X (X IS THE ADDRESS OF THE FIRST INSTRUCTION
 38787									;IN THE SUBTEST) TO LOOP ON ERROR^
 38788	054711	312 14 0 00 070757 		CAME	14,[123456,,701034]	;PASS IF C(AC)=123456,,701034
 38789						STOP^
 38790	054712	254 04 0 00 054713 		HALT	.+1		;TEST FAILED IF PROGRAM HALTS HERE
 38791	054713	324 00 0 00 054714 		JUMPA	.+1		;IF TEST FAILS, CHANGE THIS INSTRUCTION (JUMPA .+1) TO
 38792									;JUMPA X (X IS THE ADDRESS OF THE FIRST INSTRUCTION
 38793									;IN THE SUBTEST) TO LOOP ON ERROR^
 38794
 38795					;**********
DFKAA PDP-10 KL10 BASIC INSTRUCTION DIAGNOSTIC (1) VER 0,2	MACRO %52(537) 09:34 31-JAN-77 PAGE 59
DFKAA6	MAC	25-AUG-75 14:01		TEST OF MSCL LOGICAL TEST INSTRUCTIONS                                             SEQ 0889

 38796					;THIS TEST VERIFIES THAT TLZ CHANGES ALL BITS IN THE AC-LEFT WHICH
 38797					;CORRESPOND TO 1'S IN E TO ZERO AND DOES NOT SKIP.
 38798					;IN THIS CACE, C(AC)=123456,,701234 AND E=300
 38799					;HENCE, THE RESULT IN THE AC SHOUL BE 123456,,701234
 38800
 38801	054714	200 13 0 00 070745 	C70700:	MOVE	13,[123456,,701234]	;PRELOAD AC WITH 123456,,701234
 38802	054715	621 13 0 00 000300 		TLZ	13,300			;*TLZ SHOULD PLACE 123456,,701234 INTO
 38803										;THE AC AND NOT SKIP
 38804	054716	334 00 0 00 000000 		SKIPA				;PASS IF TLZ DOES NOT SKIP
 38805						STOP^
 38806	054717	254 04 0 00 054720 		HALT	.+1		;TEST FAILED IF PROGRAM HALTS HERE
 38807	054720	324 00 0 00 054721 		JUMPA	.+1		;IF TEST FAILS, CHANGE THIS INSTRUCTION (JUMPA .+1) TO
 38808									;JUMPA X (X IS THE ADDRESS OF THE FIRST INSTRUCTION
 38809									;IN THE SUBTEST) TO LOOP ON ERROR^
 38810	054721	312 13 0 00 070745 		CAME	13,[123456,,701234]	;PASS IF C(AC)=123456,,701234
 38811						STOP^
 38812	054722	254 04 0 00 054723 		HALT	.+1		;TEST FAILED IF PROGRAM HALTS HERE
 38813	054723	324 00 0 00 054724 		JUMPA	.+1		;IF TEST FAILS, CHANGE THIS INSTRUCTION (JUMPA .+1) TO
 38814									;JUMPA X (X IS THE ADDRESS OF THE FIRST INSTRUCTION
 38815									;IN THE SUBTEST) TO LOOP ON ERROR^
 38816
 38817					;**********
 38818
 38819					;THIS TEST VERIFIES THAT TLZ CHANGES ALL BITS IN THE AC-LEFT WHICH
 38820					;CORRSPOND TO 1'S IN E TO ZERO AND DOES NOT SKIP.
 38821					;IN THIS CASE, C(AC)=123456,,701234 AND E=3
 38822					;HENCE, THE RESULT IN THE AC SHOULD BE 123454,,701234
 38823
 38824	054724	200 12 0 00 070745 	C70710:	MOVE	12,[123456,,701234]	;PRELOAD AC WITH 123456,,701234
 38825	054725	621 12 0 00 000003 		TLZ	12,3			;*TLZ SHOULD PLACE 123454,,701234 INTO
 38826										;THE AC AND NOT SKIP
 38827	054726	334 00 0 00 000000 		SKIPA				;PASS IF TLZ DOES NOT SKIP
 38828						STOP^
 38829	054727	254 04 0 00 054730 		HALT	.+1		;TEST FAILED IF PROGRAM HALTS HERE
 38830	054730	324 00 0 00 054731 		JUMPA	.+1		;IF TEST FAILS, CHANGE THIS INSTRUCTION (JUMPA .+1) TO
 38831									;JUMPA X (X IS THE ADDRESS OF THE FIRST INSTRUCTION
 38832									;IN THE SUBTEST) TO LOOP ON ERROR^
 38833	054731	312 12 0 00 070760 		CAME	12,[123454,,701234]	;PASS IF C(AC)=123454,701234
 38834						STOP^
 38835	054732	254 04 0 00 054733 		HALT	.+1		;TEST FAILED IF PROGRAM HALTS HERE
 38836	054733	324 00 0 00 054734 		JUMPA	.+1		;IF TEST FAILS, CHANGE THIS INSTRUCTION (JUMPA .+1) TO
 38837									;JUMPA X (X IS THE ADDRESS OF THE FIRST INSTRUCTION
 38838									;IN THE SUBTEST) TO LOOP ON ERROR^
 38839
 38840					;**********
DFKAA PDP-10 KL10 BASIC INSTRUCTION DIAGNOSTIC (1) VER 0,2	MACRO %52(537) 09:34 31-JAN-77 PAGE 60
DFKAA6	MAC	25-AUG-75 14:01		TEST OF MSCL LOGICAL TEST INSTRUCTIONS                                             SEQ 0890

 38841					;THIS TEST VERIFIES THAT TRZE SKIPS THE NEXT SEQUENTIAL INSTRUCTION
 38842					;IF AND ONLY IF ALL BITS IN AC-RIGHT CORRESPONDING TO 1'S IN E ARE ZERO.
 38843					;THESE MASKED AC BITS ARE THEN CHANGED TO ZEROS.
 38844					;IN THIS CASE, C(AC)=123456,,701234 AND E=3
 38845					;HENCE, TRZE SHOULD SKIP THE NEXT SEQUENTIAL INSTRUCTION
 38846					;AND THE RESULT IN THE AC SHOULD BE 123456,,701234
 38847
 38848	054734	200 11 0 00 070745 	C71000:	MOVE	11,[123456,,701234]	;PRELOAD AC WITH 123456,,701234
 38849	054735	622 11 0 00 000003 		TRZE	11,3			;*TRZE SHOULD SKIP AND
 38850										;PLACE 123456,,701234 INTO THE AC
 38851						STOP^
 38852	054736	254 04 0 00 054737 		HALT	.+1		;TEST FAILED IF PROGRAM HALTS HERE
 38853	054737	324 00 0 00 054740 		JUMPA	.+1		;IF TEST FAILS, CHANGE THIS INSTRUCTION (JUMPA .+1) TO
 38854									;JUMPA X (X IS THE ADDRESS OF THE FIRST INSTRUCTION
 38855									;IN THE SUBTEST) TO LOOP ON ERROR^
 38856	054740	312 11 0 00 070745 		CAME	11,[123456,,701234]	;PASS IF C(AC)=123456,,701234
 38857						STOP^
 38858	054741	254 04 0 00 054742 		HALT	.+1		;TEST FAILED IF PROGRAM HALTS HERE
 38859	054742	324 00 0 00 054743 		JUMPA	.+1		;IF TEST FAILS, CHANGE THIS INSTRUCTION (JUMPA .+1) TO
 38860									;JUMPA X (X IS THE ADDRESS OF THE FIRST INSTRUCTION
 38861									;IN THE SUBTEST) TO LOOP ON ERROR^
 38862
 38863					;**********
 38864
 38865					;THIS TEST VERIFIES THAT TRZE SKIPS THE NEXT SEQUENTIAL INSTRUCTION
 38866					;IF AND ONLY IF ALL BITS IN AC-RIGHT CORRSPONDING TO 1'S IN E ARE ZERO.
 38867					;THESE MASKED AC BITS ARE THEN CHANGED TO ZEROS.
 38868					;IN THIS CASE, C(AC)=123456,,701234 AND E=300
 38869					;HENCE, TRZE SHOULD NOT SKIP THE NEXT SEQUENTIAL INSTRUCTION
 38870					;AND THE RESULT IN THE AC SHOUDL BE 123456,,701034
 38871
 38872	054743	200 10 0 00 070745 	C71010:	MOVE	10,[123456,,701234]	;PRELOAD AC WIT@ 123456,,701234
 38873	054744	622 10 0 00 000300 		TRZE	10,300			;*TRZE SHOULD PLACE 123456,,701034 INTO
 38874										;THE AC AND NOT SKIP
 38875	054745	334 00 0 00 000000 		SKIPA				;PASS IF TRZE DOES NOT SKIP
 38876						STOP^
 38877	054746	254 04 0 00 054747 		HALT	.+1		;TEST FAILED IF PROGRAM HALTS HERE
 38878	054747	324 00 0 00 054750 		JUMPA	.+1		;IF TEST FAILS, CHANGE THIS INSTRUCTION (JUMPA .+1) TO
 38879									;JUMPA X (X IS THE ADDRESS OF THE FIRST INSTRUCTION
 38880									;IN THE SUBTEST) TO LOOP ON ERROR^
 38881	054750	312 10 0 00 070757 		CAME	10,[123456,,701034]	;PASS IF C(AC)=123456,,701034
 38882						STOP^
 38883	054751	254 04 0 00 054752 		HALT	.+1		;TEST FAILED IF PROGRAM HALTS HERE
 38884	054752	324 00 0 00 054753 		JUMPA	.+1		;IF TEST FAILS, CHANGE THIS INSTRUCTION (JUMPA .+1) TO
 38885									;JUMPA X (X IS THE ADDRESS OF THE FIRST INSTRUCTION
 38886									;IN THE SUBTEST) TO LOOP ON ERROR^
 38887
 38888					;**********
DFKAA PDP-10 KL10 BASIC INSTRUCTION DIAGNOSTIC (1) VER 0,2	MACRO %52(537) 09:34 31-JAN-77 PAGE 61
DFKAA6	MAC	25-AUG-75 14:01		TEST OF MSCL LOGICAL TEST INSTRUCTIONS                                             SEQ 0891

 38889					;THIS TEST VERIFIES THAT TLZE SKIPS THE NEXT SEQUENTIAL INSTRUCTION
 38890					;IF AND ONLY IF ALL BITS IN AC-LEFT CORRESPONDING TO 1'S IN E ARE ZERO.
 38891					;THESE MASKED AC BITS ARE THEN CHANGED TO ZEROS.
 38892					;IN THIS CASE, C(AC)=123456,,701234 AND E=300
 38893					;HENCE, TLZE SHOULD SKIP THE NEXT SEQUENTIAL INSTRUCTION
 38894					;AND THE RESULT IN THE AC SHOULD BE 123456,,701234
 38895
 38896	054753	200 07 0 00 070745 	C71100:	MOVE	7,[123456,,701234]	;PRELOAD AC WITH 123456,,701234
 38897	054754	623 07 0 00 000300 		TLZE	7,300			;*TLZE SHOULD SKIP AND
 38898										;PLACE 123456,,701234 INTO THE AC
 38899						STOP^
 38900	054755	254 04 0 00 054756 		HALT	.+1		;TEST FAILED IF PROGRAM HALTS HERE
 38901	054756	324 00 0 00 054757 		JUMPA	.+1		;IF TEST FAILS, CHANGE THIS INSTRUCTION (JUMPA .+1) TO
 38902									;JUMPA X (X IS THE ADDRESS OF THE FIRST INSTRUCTION
 38903									;IN THE SUBTEST) TO LOOP ON ERROR^
 38904	054757	312 07 0 00 070745 		CAME	7,[123456,,701234]	;PASS IF C(AC)=123456,,701234
 38905						STOP^
 38906	054760	254 04 0 00 054761 		HALT	.+1		;TEST FAILED IF PROGRAM HALTS HERE
 38907	054761	324 00 0 00 054762 		JUMPA	.+1		;IF TEST FAILS, CHANGE THIS INSTRUCTION (JUMPA .+1) TO
 38908									;JUMPA X (X IS THE ADDRESS OF THE FIRST INSTRUCTION
 38909									;IN THE SUBTEST) TO LOOP ON ERROR^
 38910
 38911					;**********
 38912
 38913					;THIS TEST VERIFIES THAT TLZE SKIPS THE NEXT SEQUENTIAL INSTRUCTION
 38914					;IF AND ONLY IF ALL BITS IN AC-LEFT CORRESPONDING TO 1'S IN E ARE ZERO.
 38915					;THESE MASKED AC BITS ARE THEN CHANGED TO ZEROS.
 38916					;IN THIS CASE, C(AC)=123456,,701234 AND E=3
 38917					;HENCE, TLZE SHOULD NOT SKIP THE NEXT SEQUENTIAL INSTRUCTION
 38918					;AND THE RESULT IN THE AC SHOULD BE 123454,,701234
 38919
 38920	054762	200 06 0 00 070745 	C71110:	MOVE	6,[123456,,701234]	;PRELOAD AC WITH 123456,,701234
 38921	054763	623 06 0 00 000003 		TLZE	6,3			;*TLZE SHOULD PLACE 123454,,701234 INTO
 38922										;THE AC AND NOT SKIP
 38923	054764	334 00 0 00 000000 		SKIPA				;PASS IF TLZE DOES NOT SKIP
 38924						STOP^
 38925	054765	254 04 0 00 054766 		HALT	.+1		;TEST FAILED IF PROGRAM HALTS HERE
 38926	054766	324 00 0 00 054767 		JUMPA	.+1		;IF TEST FAILS, CHANGE THIS INSTRUCTION (JUMPA .+1) TO
 38927									;JUMPA X (X IS THE ADDRESS OF THE FIRST INSTRUCTION
 38928									;IN THE SUBTEST) TO LOOP ON ERROR^
 38929	054767	312 06 0 00 070760 		CAME	6,[123454,,701234]	;PASS IF C(AC)=123454,,701234
 38930						STOP^
 38931	054770	254 04 0 00 054771 		HALT	.+1		;TEST FAILED IF PROGRAM HALTS HERE
 38932	054771	324 00 0 00 054772 		JUMPA	.+1		;IF TEST FAILS, CHANGE THIS INSTRUCTION (JUMPA .+1) TO
 38933									;JUMPA X (X IS THE ADDRESS OF THE FIRST INSTRUCTION
 38934									;IN THE SUBTEST) TO LOOP ON ERROR^
 38935
 38936					;**********
DFKAA PDP-10 KL10 BASIC INSTRUCTION DIAGNOSTIC (1) VER 0,2	MACRO %52(537) 09:34 31-JAN-77 PAGE 62
DFKAA6	MAC	25-AUG-75 14:01		TEST OF MSCL LOGICAL TEST INSTRUCTIONS                                             SEQ 0892

 38937					;THIS TEST VERIFIES THAT TRZA ALWAYS SKIPS THE NEXT SEQUENTIAL INSTRUCTION
 38938					;AND CHANGES ALL BITS IN AC-RIGHT WHICH CORRESPOND TO 1'S IN E TO ZERO.
 38939					;IN THIS CASE, C(AC)=123456,,701234 AND E=3.
 38940					;HENCE, TRZA SHOULD SKIP THE NEXT INSTRUCTION AND THE RESULT IN
 38941					;THE AC SHOULD BE 123456,,701234
 38942
 38943	054772	200 05 0 00 070745 	C71200:	MOVE	5,[123456,,701234]	;PRELOAD AC WITH 123456,,701234
 38944	054773	624 05 0 00 000003 		TRZA	5,3			;*TRZA SHOULD SKIP AND
 38945										;PLACE 123456,,701234 INTO THE AC
 38946						STOP^
 38947	054774	254 04 0 00 054775 		HALT	.+1		;TEST FAILED IF PROGRAM HALTS HERE
 38948	054775	324 00 0 00 054776 		JUMPA	.+1		;IF TEST FAILS, CHANGE THIS INSTRUCTION (JUMPA .+1) TO
 38949									;JUMPA X (X IS THE ADDRESS OF THE FIRST INSTRUCTION
 38950									;IN THE SUBTEST) TO LOOP ON ERROR^
 38951	054776	312 05 0 00 070745 		CAME	5,[123456,,701234]	;PASS IF C(AC)=123456,,701234
 38952						STOP^
 38953	054777	254 04 0 00 055000 		HALT	.+1		;TEST FAILED IF PROGRAM HALTS HERE
 38954	055000	324 00 0 00 055001 		JUMPA	.+1		;IF TEST FAILS, CHANGE THIS INSTRUCTION (JUMPA .+1) TO
 38955									;JUMPA X (X IS THE ADDRESS OF THE FIRST INSTRUCTION
 38956									;IN THE SUBTEST) TO LOOP ON ERROR^
 38957
 38958					;**********
 38959
 38960					;THIS TEST VERIFIES THAT TRZA ALWAYS SKIPS THE NEXT SEQUENTIAL INSTRUCTION
 38961					;AND CHANGES ALL BITS IN AC-RIGHT WHICH CORRESPOND TO 1'S IN E TO ZERO.
 38962					;IN THIS CASE, C(AC)=123456,,701234 AND E=300.
 38963					;HENCE, TRZA SHOULD SKIP THE NEXT INSTRUCTION AND THE RESULT IN
 38964					;THE AC SHOULD BE 123456,,701234.
 38965
 38966	055001	200 04 0 00 070745 	C71210:	MOVE	4,[123456,,701234]	;PRELOAD AC WITH 123456,,701234
 38967	055002	624 04 0 00 000300 		TRZA	4,300			;*TRZA SHOULD SKIP AND
 38968										;PLACE 123456,,701034 INTO THE AC
 38969						STOP^
 38970	055003	254 04 0 00 055004 		HALT	.+1		;TEST FAILED IF PROGRAM HALTS HERE
 38971	055004	324 00 0 00 055005 		JUMPA	.+1		;IF TEST FAILS, CHANGE THIS INSTRUCTION (JUMPA .+1) TO
 38972									;JUMPA X (X IS THE ADDRESS OF THE FIRST INSTRUCTION
 38973									;IN THE SUBTEST) TO LOOP ON ERROR^
 38974	055005	312 04 0 00 070757 		CAME	4,[123456,,701034]	;PASS IF C(AC)=123456,,701034
 38975						STOP^
 38976	055006	254 04 0 00 055007 		HALT	.+1		;TEST FAILED IF PROGRAM HALTS HERE
 38977	055007	324 00 0 00 055010 		JUMPA	.+1		;IF TEST FAILS, CHANGE THIS INSTRUCTION (JUMPA .+1) TO
 38978									;JUMPA X (X IS THE ADDRESS OF THE FIRST INSTRUCTION
 38979									;IN THE SUBTEST) TO LOOP ON ERROR^
 38980
 38981					;**********
DFKAA PDP-10 KL10 BASIC INSTRUCTION DIAGNOSTIC (1) VER 0,2	MACRO %52(537) 09:34 31-JAN-77 PAGE 63
DFKAA6	MAC	25-AUG-75 14:01		TEST OF MSCL LOGICAL TEST INSTRUCTIONS                                             SEQ 0893

 38982					;THIS TEST VERIFIES THAT TLZA ALWAYS SKIPS THE NEXT SEQUENTIAL INSTRQCTION
 38983					;AND CHANGES ALL BITS IN AC-LEFT WHICH CORRESPOND TO 1'S IN E TO ZERO.
 38984					;IN THIS CASE, C(AC)=123456,,701234 AND E=3.
 38985					;HENCE, TLZA SHOULD SKIP THE NEXT INSTRUCTION AND THE RESULT IN
 38986					;THE AC SHOULD BE 123454,,701234.
 38987
 38988	055010	200 03 0 00 070745 	C71300:	MOVE	3,[123456,,701234]	;PRELOAD AC WITH 123456,,701234
 38989	055011	625 03 0 00 000003 		TLZA	3,3			;*TLZA SHOULD SKIP AND
 38990										;PLACE 123454,,701234 INTO THE AC
 38991						STOP^
 38992	055012	254 04 0 00 055013 		HALT	.+1		;TEST FAILED IF PROGRAM HALTS HERE
 38993	055013	324 00 0 00 055014 		JUMPA	.+1		;IF TEST FAILS, CHANGE THIS INSTRUCTION (JUMPA .+1) TO
 38994									;JUMPA X (X IS THE ADDRESS OF THE FIRST INSTRUCTION
 38995									;IN THE SUBTEST) TO LOOP ON ERROR^
 38996	055014	312 03 0 00 070760 		CAME	3,[123454,,701234]	;PASS IF C(AC)=123454,,701234
 38997						STOP^
 38998	055015	254 04 0 00 055016 		HALT	.+1		;TEST FAILED IF PROGRAM HALTS HERE
 38999	055016	324 00 0 00 055017 		JUMPA	.+1		;IF TEST FAILS, CHANGE THIS INSTRUCTION (JUMPA .+1) TO
 39000									;JUMPA X (X IS THE ADDRESS OF THE FIRST INSTRUCTION
 39001									;IN THE SUBTEST) TO LOOP ON ERROR^
 39002
 39003					;**********
 39004
 39005					;THIS TEST VERIFIES THAT TLZA ALWAYS SKIPS THE NEXT SEQUENTIAL INSTRUCTION
 39006					;AND CHANGES ALL BITS IN AC-LEFT WHICH CORRESPOND TO 1'S IN E TO ZERO.
 39007					;IN THIS CASE, C(AC)=123456,,701234 AND E=300.
 39008					;HENCE, TLZA SHOULD SKIP THE NEXT INSTRUCTION AND THE RESULT IN
 39009					;THE AC SHOULD BE 123456,,701234.
 39010
 39011	055017	200 02 0 00 070745 	C71310:	MOVE	2,[123456,,701234]	;PRELOAD AC WITH 123456,,701234
 39012	055020	625 02 0 00 000300 		TLZA	2,300			;*TLZA SHOULD SKIP AND
 39013										;PLACE 123456,,701234 INTO THE AC
 39014						STOP^
 39015	055021	254 04 0 00 055022 		HALT	.+1		;TEST FAILED IF PROGRAM HALTS HERE
 39016	055022	324 00 0 00 055023 		JUMPA	.+1		;IF TEST FAILS, CHANGE THIS INSTRUCTION (JUMPA .+1) TO
 39017									;JUMPA X (X IS THE ADDRESS OF THE FIRST INSTRUCTION
 39018									;IN THE SUBTEST) TO LOOP ON ERROR^
 39019	055023	312 02 0 00 070745 		CAME	2,[123456,,701234]	;PASS IF C(AC)=123456,,701234
 39020						STOP^
 39021	055024	254 04 0 00 055025 		HALT	.+1		;TEST FAILED IF PROGRAM HALTS HERE
 39022	055025	324 00 0 00 055026 		JUMPA	.+1		;IF TEST FAILS, CHANGE THIS INSTRUCTION (JUMPA .+1) TO
 39023									;JUMPA X (X IS THE ADDRESS OF THE FIRST INSTRUCTION
 39024									;IN THE SUBTEST) TO LOOP ON ERROR^
 39025
 39026					;**********
DFKAA PDP-10 KL10 BASIC INSTRUCTION DIAGNOSTIC (1) VER 0,2	MACRO %52(537) 09:34 31-JAN-77 PAGE 64
DFKAA6	MAC	25-AUG-75 14:01		TEST OF MSCL LOGICAL TEST INSTRUCTIONS                                             SEQ 0894

 39027					;THIS TEST VERIFIES THAT TRZN SKIPS THE NEXT SEQUENTIAL INSTRUCTION
 39028					;IF AND ONLY IF NOT ALL BITS IN AC-RIGHT CORRESPONDING TO 1'S IN E ARE ZERO.
 39029					;THESE MASKED AC BITS ARE THEN CHANGED TO ZEROS.
 39030					;IN THIS CASE, C(AC)=123456,,701234 AND E=300.
 39031					;HENCE, TRZN SHOULD SKIP THE NEXT SEQUENTIAL INSTRUCTION
 39032					;AND THE RESULT IN THE AC SHOULD BE 123456,,701034.
 39033
 39034	055026	200 01 0 00 070745 	C71400:	MOVE	1,[123456,,701234]	;PRELOAD AC WITH 123456,,701234
 39035	055027	626 01 0 00 000300 		TRZN	1,300			;*TRZN SHOULD SKIP AND
 39036										;PLACE 123456,,701034 INTO THE AC
 39037						STOP^
 39038	055030	254 04 0 00 055031 		HALT	.+1		;TEST FAILED IF PROGRAM HALTS HERE
 39039	055031	324 00 0 00 055032 		JUMPA	.+1		;IF TEST FAILS, CHANGE THIS INSTRUCTION (JUMPA .+1) TO
 39040									;JUMPA X (X IS THE ADDRESS OF THE FIRST INSTRUCTION
 39041									;IN THE SUBTEST) TO LOOP ON ERROR^
 39042	055032	312 01 0 00 070757 		CAME	1,[123456,,701034]	;PASS IF C(AC)=123456,,701034
 39043						STOP^
 39044	055033	254 04 0 00 055034 		HALT	.+1		;TEST FAILED IF PROGRAM HALTS HERE
 39045	055034	324 00 0 00 055035 		JUMPA	.+1		;IF TEST FAILS, CHANGE THIS INSTRUCTION (JUMPA .+1) TO
 39046									;JUMPA X (X IS THE ADDRESS OF THE FIRST INSTRUCTION
 39047									;IN THE SUBTEST) TO LOOP ON ERROR^
 39048
 39049					;**********
 39050
 39051					;THIS TEST VERIFIES THAT TRZN SKIPS THE NEXT SEQUENTIAL INSTRUCTION
 39052					;IF AND ONLY IF NOT ALL BITS IN AC-RIGHT CORRESPONDING TO 1'S IN E ARE ZERO.
 39053					;THESE MASKED AC BITS ARE THEN CHANGED TO ZEROS.
 39054					;IN THIS CASE, C(AC)=123456,,701234 AND E=3.
 39055					;HENCE, TRZN SHOULD NOT SKIP THE NEXT SEQUENTIAL INSTRUCTION
 39056					;AND THE RESULT IN THE AC SHOULD BE 123456,,701234.
 39057
 39058	055035	200 00 0 00 070745 	C71410:	MOVE	0,[123456,,701234]	;PRELOAD AC WATH 123456,,701234
 39059	055036	626 00 0 00 000003 		TRZN	0,3			;*TRZN SHOULD PLACE 123456,,701234 INTO
 39060										;THE AC AND NOT SKIP
 39061	055037	334 00 0 00 000000 		SKIPA				;PASS IF TRZN DOES NOT SKIP
 39062						STOP^
 39063	055040	254 04 0 00 055041 		HALT	.+1		;TEST FAILED IF PROGRAM HALTS HERE
 39064	055041	324 00 0 00 055042 		JUMPA	.+1		;IF TEST FAILS, CHANGE THIS INSTRUCTION (JUMPA .+1) TO
 39065									;JUMPA X (X IS THE ADDRESS OF THE FIRST INSTRUCTION
 39066									;IN THE SUBTEST) TO LOOP ON ERROR^
 39067	055042	312 00 0 00 070745 		CAME	0,[123456,,701234]	;PASS IF C(AC)=123456,,701234
 39068						STOP^
 39069	055043	254 04 0 00 055044 		HALT	.+1		;TEST FAILED IF PROGRAM HALTS HERE
 39070	055044	324 00 0 00 055045 		JUMPA	.+1		;IF TEST FAILS, CHANGE THIS INSTRUCTION (JUMPA .+1) TO
 39071									;JUMPA X (X IS THE ADDRESS OF THE FIRST INSTRUCTION
 39072									;IN THE SUBTEST) TO LOOP ON ERROR^
 39073
 39074					;**********
DFKAA PDP-10 KL10 BASIC INSTRUCTION DIAGNOSTIC (1) VER 0,2	MACRO %52(537) 09:34 31-JAN-77 PAGE 65
DFKAA6	MAC	25-AUG-75 14:01		TEST OF MSCL LOGICAL TEST INSTRUCTIONS                                             SEQ 0895

 39075					;THIS TEST VERIFIES THAT TLZN SKIPS THE NEXT SEQUENTIAL INSTRUCTION
 39076					;IF AND ONLY IF NOT ALL BITS IN AC-LEFT CORRESPONDING TO 1'S IN E ARE ZERO.
 39077					;THESE MASKED AC BITS ARE THEN CHANGED TO ZEROS.
 39078					;IN THIS CASE, C(AC)=123456,,701234 AND E=3.
 39079					;HENCE, TLZN SHOULD SKIP THE NEXT SEQUENTIAL INSTRUCTION
 39080					;AND THE RESULT IN THE AC SHOULD BE 123454,,701234.
 39081
 39082	055045	200 17 0 00 070745 	C71500:	MOVE	17,[123456,,701234]	;PRELOAD AC WITH 123456,,701234
 39083	055046	627 17 0 00 000003 		TLZN	17,3			;TLZN SHOULD SKIP AND
 39084										;PLACE 123454,,701234 INTO THE AC
 39085						STOP^
 39086	055047	254 04 0 00 055050 		HALT	.+1		;TEST FAILED IF PROGRAM HALTS HERE
 39087	055050	324 00 0 00 055051 		JUMPA	.+1		;IF TEST FAILS, CHANGE THIS INSTRUCTION (JUMPA .+1) TO
 39088									;JUMPA X (X IS THE ADDRESS OF THE FIRST INSTRUCTION
 39089									;IN THE SUBTEST) TO LOOP ON ERROR^
 39090	055051	312 17 0 00 070760 		CAME	17,[123454,,701234]	;PASS IF C(AC)=123454,,701234
 39091						STOP^
 39092	055052	254 04 0 00 055053 		HALT	.+1		;TEST FAILED IF PROGRAM HALTS HERE
 39093	055053	324 00 0 00 055054 		JUMPA	.+1		;IF TEST FAILS, CHANGE THIS INSTRUCTION (JUMPA .+1) TO
 39094									;JUMPA X (X IS THE ADDRESS OF THE FIRST INSTRUCTION
 39095									;IN THE SUBTEST) TO LOOP ON ERROR^
 39096
 39097					;**********
 39098
 39099					;THIS TEST VERIFIES THAT TLZN SKIPS THE NEXT SEQUENTIAL INSTRUCTION
 39100					;IF AND ONLY IF NOT ALL BITS IN AC-LEFT CORRESPONDING TO 1'S IN E ARE ZERO.
 39101					;THESE MASKED AC BIPS ARE THEN CHANGED TO ZEROS.
 39102					;IN THIS CASE, C(AC)=123456,,701234 AND E=300.
 39103					;HENCE, TLZN SHOULD NOT SKIP THE NEXT SEQUENTIAL INSTRUCTION
 39104					;AND THE RESULT IN THE AC SHOULD BE 123456,,701234.
 39105
 39106	055054	200 16 0 00 070745 	C71510:	MOVE	16,[123456,,701234]	;PRELOAD AC WITH 123456,,701234
 39107	055055	627 16 0 00 000300 		TLZN	16,300			;*TLZN SHOULD PLACE 123456,,701234 INTO
 39108										;THE AC AND NOT SKIP
 39109	055056	334 00 0 00 000000 		SKIPA				;PASS IF TLZN DOES NOT SKIP
 39110						STOP^
 39111	055057	254 04 0 00 055060 		HALT	.+1		;TEST FAILED IF PROGRAM HALTS HERE
 39112	055060	324 00 0 00 055061 		JUMPA	.+1		;IF TEST FAILS, CHANGE THIS INSTRUCTION (JUMPA .+1) TO
 39113									;JUMPA X (X IS THE ADDRESS OF THE FIRST INSTRUCTION
 39114									;IN THE SUBTEST) TO LOOP ON ERROR^
 39115	055061	312 16 0 00 070745 		CAME	16,[123456,,701234]	;PASS IF C(AC)=123456,,701234
 39116						STOP^
 39117	055062	254 04 0 00 055063 		HALT	.+1		;TEST FAILED IF PROGRAM HALTS HERE
 39118	055063	324 00 0 00 055064 		JUMPA	.+1		;IF TEST FAILS, CHANGE THIS INSTRUCTION (JUMPA .+1) TO
 39119									;JUMPA X (X IS THE ADDRESS OF THE FIRST INSTRUCTION
 39120									;IN THE SUBTEST) TO LOOP ON ERROR^
 39121
 39122					;**********
DFKAA PDP-10 KL10 BASIC INSTRUCTION DIAGNOSTIC (1) VER 0,2	MACRO %52(537) 09:34 31-JAN-77 PAGE 66
DFKAA6	MAC	25-AUG-75 14:01		TEST OF MSCL LOGICAL TEST INSTRUCTIONS                                             SEQ 0896

 39123					;THIS TEST VERIFIES THAT TSZ CLEARS ALL BITS OF THE AC WHICH
 39124					;CORRESPOND TO 1'S IN C(E) WITH BOTH HALVES SWAPPED AND DOES
 39125					;NOT SKIP THE NEXT INSTRUCTION. C(E) IS NOT AFFECTED.
 39126					;IN THIS CASE, C(AC)=123456,,701234 AND C(E)=076543,,654321.
 39127					;HENCE, TSZ SHOULD NOT SKIP AND C(AC) SHOULD BE 123456,,701234.
 39128
 39129	055064	200 15 0 00 070745 	C71600:	MOVE	15,[123456,,701234]	;PRELOAD AC WITH 123456,,701234
 39130	055065	200 16 0 00 070754 		MOVE	16,[076543,,654321]	;PRELOAD E WITH 076543,,654321
 39131	055066	631 15 0 00 000016 		TSZ	15,16			;*TSZ SHOULD NOT SKIP AND
 39132										;PLACE 123456,,701234 INTO THE AC
 39133	055067	334 00 0 00 000000 		SKIPA				;PASS IF TSZ DID NOT SKIP
 39134						STOP^
 39135	055070	254 04 0 00 055071 		HALT	.+1		;TEST FAILED IF PROGRAM HALTS HERE
 39136	055071	324 00 0 00 055072 		JUMPA	.+1		;IF TEST FAILS, CHANGE THIS INSTRUCTION (JUMPA .+1) TO
 39137									;JUMPA X (X IS THE ADDRESS OF THE FIRST INSTRUCTION
 39138									;IN THE SUBTEST) TO LOOP ON ERROR^
 39139	055072	312 15 0 00 070745 		CAME	15,[123456,,701234]	;PASS IF C(AC)=123456,,701234
 39140						STOP^
 39141	055073	254 04 0 00 055074 		HALT	.+1		;TEST FAILED IF PROGRAM HALTS HERE
 39142	055074	324 00 0 00 055075 		JUMPA	.+1		;IF TEST FAILS, CHANGE THIS INSTRUCTION (JUMPA .+1) TO
 39143									;JUMPA X (X IS THE ADDRESS OF THE FIRST INSTRUCTION
 39144									;IN THE SUBTEST) TO LOOP ON ERROR^
 39145	055075	312 16 0 00 070754 		CAME	16,[76543,,654321]	;PASS IF C(E) UNCHANCED
 39146						STOP^
 39147	055076	254 04 0 00 055077 		HALT	.+1		;TEST FAILED IF PROGRAM HALTS HERE
 39148	055077	324 00 0 00 055100 		JUMPA	.+1		;IF TEST FAILS, CHANGE THIS INSTRUCTION (JUMPA .+1) TO
 39149									;JUMPA X (X IS THE ADDRESS OF THE FIRST INSTRUCTION
 39150									;IN THE SUBTEST) TO LOOP ON ERROR^
 39151
 39152					;**********
 39153
 39154					;THIS TEST VERIFIES THAT TSZ CLEARS ALL BITS OF THE AC WHICH
 39155					;CORRESPOND TO 1'S IN C(E) WITH BOTH HALVES SWAPPED AND DOES
 39156					;NOT SKIP THE NEXT INSTRUCTION.  C(E) IS NOT AFFECTED.
 39157					;IN THIS CASE, C(AC)=123456,,701234 AND C(E)=252525,,707070.
 39158					;HENCE, TSZ SHOULD NOT SKIP AND C(AC) SHOULD BE 020406,,501210.
 39159
 39160	055100	200 14 0 00 070745 	C71610:	MOVE	14,[123456,,701234]	;PRELOAD AC WITH 123456,,701234
 39161	055101	200 15 0 00 070761 		MOVE	15,[252525,,707070]	;PRELOAD E WITH 252525,,707070
 39162	055102	631 14 0 00 000015 		TSZ	14,15			;*TSZ SHOULD NOT SKIP AND
 39163										;PLACE 020406,,501210 INTO THE AC
 39164	055103	334 00 0 00 000000 		SKIPA				;PASS IF TSZ DID NOT SKIP
 39165						STOP^
 39166	055104	254 04 0 00 055105 		HALT	.+1		;TEST FAILED IF PROGRAM HALTS HERE
 39167	055105	324 00 0 00 055106 		JUMPA	.+1		;IF TEST FAILS, CHANGE THIS INSTRUCTION (JUMPA .+1) TO
 39168									;JUMPA X (X IS THE ADDRESS OF THE FIRST INSTRUCTION
 39169									;IN THE SUBTEST) TO LOOP ON ERROR^
 39170	055106	312 14 0 00 070762 		CAME	14,[020406,,501210]	;PASS IF C(AC)=020406,,501210
 39171						STOP^
 39172	055107	254 04 0 00 055110 		HALT	.+1		;TEST FAILED IF PROGRAM HALTS HERE
 39173	055110	324 00 0 00 055111 		JUMPA	.+1		;IF TEST FAILS, CHANGE THIS INSTRUCTION (JUMPA .+1) TO
 39174									;JUMPA X (X IS THE ADDRESS OF THE FIRST INSTRUCTION
 39175									;IN THE SUBTEST) TO LOOP ON ERROR^
 39176	055111	312 15 0 00 070761 		CAME	15,[252525,,707070]	;PASS IF C(E) UNCHANGED
 39177						STOP^
DFKAA PDP-10 KL10 BASIC INSTRUCTION DIAGNOSTIC (1) VER 0,2	MACRO %52(537) 09:34 31-JAN-77 PAGE 66-1
DFKAA6	MAC	25-AUG-75 14:01		TEST OF MSCL LOGICAL TEST INSTRUCTIONS                                             SEQ 0897

 39178	055112	254 04 0 00 055113 		HALT	.+1		;TEST FAILED IF PROGRAM HALTS HERE
 39179	055113	324 00 0 00 055114 		JUMPA	.+1		;IF TEST FAILS, CHANGE THIS INSTRUCTION (JUMPA .+1) TO
 39180									;JUMPA X (X IS THE ADDRESS OF THE FIRST INSTRUCTION
 39181									;IN THE SUBTEST) TO LOOP ON ERROR^
 39182
 39183					;**********
DFKAA PDP-10 KL10 BASIC INSTRUCTION DIAGNOSTIC (1) VER 0,2	MACRO %52(537) 09:34 31-JAN-77 PAGE 67
DFKAA6	MAC	25-AUG-75 14:01		TEST OF MSCL LOGICAL TEST INSTRUCTIONS                                             SEQ 0898

 39184					;THIS TEST VERIFIES THAT TDZE SKIPS THE NEXT SEQUENTIAL INSTRUCTION
 39185					;IF AND ONLY IF ALL BITS IN THE AC CORRESPONDING TO 1'S IN
 39186					;C(E).
 39187					;AC BITS ARE THEN CHANGED TO ZERO.
 39188					;IN THIS CASE, C(AC)=123456,,701234 AND C(E)=654321,,076543.
 39189					;HENCE, TDZE SHOULD SKIP AND THE RESULT IN THE AC
 39190					;SHOULD BE 123456,,701234.  C(E) IS NOT AFFECTED.
 39191
 39192	055114	200 13 0 00 070745 	C71700:	MOVE	13,[123456,,701234]	;PRELOAD AC WITH 123456,,701234
 39193	055115	200 14 0 00 070763 		MOVE	14,[654321,,076543]	;PRELOAD E WITH 654321,,076543
 39194	055116	632 13 0 00 000014 		TDZE	13,14			;*TDZE SHOULD SKIP AND
 39195										;PLACE 123456,,701234 INTO THE AC
 39196						STOP^
 39197	055117	254 04 0 00 055120 		HALT	.+1		;TEST FAILED IF PROGRAM HALTS HERE
 39198	055120	324 00 0 00 055121 		JUMPA	.+1		;IF TEST FAILS, CHANGE THIS INSTRUCTION (JUMPA .+1) TO
 39199									;JUMPA X (X IS THE ADDRESS OF THE FIRST INSTRUCTION
 39200									;IN THE SUBTEST) TO LOOP ON ERROR^
 39201	055121	312 13 0 00 070745 		CAME	13,[123456,,701234]	;PASS IF C(AC)=123456,,701234]
 39202						STOP^
 39203	055122	254 04 0 00 055123 		HALT	.+1		;TEST FAILED IF PROGRAM HALTS HERE
 39204	055123	324 00 0 00 055124 		JUMPA	.+1		;IF TEST FAILS, CHANGE THIS INSTRUCTION (JUMPA .+1) TO
 39205									;JUMPA X (X IS THE ADDRESS OF THE FIRST INSTRUCTION
 39206									;IN THE SUBTEST) TO LOOP ON ERROR^
 39207	055124	312 14 0 00 070763 		CAME	14,[654321,,076543]	;PASS IF C(E) UNCHANGED
 39208						STOP^
 39209	055125	254 04 0 00 055126 		HALT	.+1		;TEST FAILED IF PROGRAM HALTS HERE
 39210	055126	324 00 0 00 055127 		JUMPA	.+1		;IF TEST FAILS, CHANGE THIS INSTRUCTION (JUMPA .+1) TO
 39211									;JUMPA X (X IS THE ADDRESS OF THE FIRST INSTRUCTION
 39212									;IN THE SUBTEST) TO LOOP ON ERROR^
 39213
 39214					;**********
 39215
 39216					;THIS TEST VERIFIES THAT TDZE SKIPS THE NEXT SEQUENTIAL INSTRUCTION
 39217					;IF AND ONLY IF ALL BITS IN THE AC CORRESPONDING TO 1'S IN
 39218					;C(E) ARE ZERO. THESE MASKED
 39219					;AC BITS ARE THEN CHANGED TO ZERO.
 39220					;IN THIS CASE, C(AC)= 123456,,701234 AND C(E)= 754321,,076543
 39221					;HENCE, TDZE SHOULD NOT SKIP AND THE RESULT IN AC
 39222					;SHOULD BE 023456,,701234 C(E) IS NOT AFFECTED
 39223
 39224	055127	200 12 0 00 070745 	C71710:	MOVE	12,[123456,,701234]	;PRELOAD AC WITH 123456,,701234
 39225	055130	200 13 0 00 070764 		MOVE	13,[754321,,076543]	;PRELOAD E WITH 754321,,076543
 39226	055131	632 12 0 00 000013 		TDZE	12,13			;*TDZE SHOULD NOT SKIP AND
 39227										;PLACE 023456,,701234 INTO THE AC
 39228	055132	334 00 0 00 000000 		SKIPA				;PASS IF TDZE DOES NOT SKIP
 39229						STOP^
 39230	055133	254 04 0 00 055134 		HALT	.+1		;TEST FAILED IF PROGRAM HALTS HERE
 39231	055134	324 00 0 00 055135 		JUMPA	.+1		;IF TEST FAILS, CHANGE THIS INSTRUCTION (JUMPA .+1) TO
 39232									;JUMPA X (X IS THE ADDRESS OF THE FIRST INSTRUCTION
 39233									;IN THE SUBTEST) TO LOOP ON ERROR^
 39234	055135	312 12 0 00 070765 		CAME	12,[023456,,701234]	;PASS IF C(AC)= 023456,,701234
 39235						STOP^
 39236	055136	254 04 0 00 055137 		HALT	.+1		;TEST FAILED IF PROGRAM HALTS HERE
 39237	055137	324 00 0 00 055140 		JUMPA	.+1		;IF TEST FAILS, CHANGE THIS INSTRUCTION (JUMPA .+1) TO
 39238									;JUMPA X (X IS THE ADDRESS OF THE FIRST INSTRUCTION
DFKAA PDP-10 KL10 BASIC INSTRUCTION DIAGNOSTIC (1) VER 0,2	MACRO %52(537) 09:34 31-JAN-77 PAGE 67-1
DFKAA6	MAC	25-AUG-75 14:01		TEST OF MSCL LOGICAL TEST INSTRUCTIONS                                             SEQ 0899

 39239									;IN THE SUBTEST) TO LOOP ON ERROR^
 39240	055140	312 13 0 00 070764 		CAME	13,[754321,,076543]	;PASS IF C(E) UNCHANGED
 39241						STOP^
 39242	055141	254 04 0 00 055142 		HALT	.+1		;TEST FAILED IF PROGRAM HALTS HERE
 39243	055142	324 00 0 00 055143 		JUMPA	.+1		;IF TEST FAILS, CHANGE THIS INSTRUCTION (JUMPA .+1) TO
 39244									;JUMPA X (X IS THE ADDRESS OF THE FIRST INSTRUCTION
 39245									;IN THE SUBTEST) TO LOOP ON ERROR^
 39246
 39247					;**********
DFKAA PDP-10 KL10 BASIC INSTRUCTION DIAGNOSTIC (1) VER 0,2	MACRO %52(537) 09:34 31-JAN-77 PAGE 68
DFKAA6	MAC	25-AUG-75 14:01		TEST OF MSCL LOGICAL TEST INSTRUCTIONS                                             SEQ 0900

 39248					;THIS TEST VERIFIES THAT TSZE SKIPS THE NEXT SEQUENTIAL INSTRUCTION
 39249					;IF AND ONLY IF ALL BITS IN THE AC CORRECPONDING TO 1'S IN
 39250					;C(E) WITH BOTH HALVES SWAPPED ARE ZERO.  THESE MASKED
 39251					;AC BITS ARE THEN CHANGED TO ZERO.
 39252					;IN THIS CASE, C(AC)= 123456,,701234 AND C(E)= 076543,,654321
 39253					;HENCE, TSZE SHOULD SKIP AND THE RESULT IN AC
 39254					;SHOULD BE 123456,,701234 C(E) IS NOT AFFECTED
 39255
 39256	055143	200 11 0 00 070745 	C72000:	MOVE	11,[123456,,701234]	;PRELOAD AC WITH 123456,,701234
 39257	055144	200 12 0 00 070754 		MOVE	12,[076543,,654321]	;PRELOAD E WITH 076543,,654321
 39258	055145	633 11 0 00 000012 		TSZE	11,12			;*TSZE SHOULD SKIP AND
 39259										;PLACE 123456,,701234 INTO THE AC
 39260						STOP^
 39261	055146	254 04 0 00 055147 		HALT	.+1		;TEST FAILED IF PROGRAM HALTS HERE
 39262	055147	324 00 0 00 055150 		JUMPA	.+1		;IF TEST FAILS, CHANGE THIS INSTRUCTION (JUMPA .+1) TO
 39263									;JUMPA X (X IS THE ADDRESS OF THE FIRST INSTRUCTION
 39264									;IN THE SUBTEST) TO LOOP ON ERROR^
 39265	055150	312 11 0 00 070745 		CAME	11,[123456,,701234]	;PASS IF C(AC)= 123456,,701234
 39266						STOP^
 39267	055151	254 04 0 00 055152 		HALT	.+1		;TEST FAILED IF PROGRAM HALTS HERE
 39268	055152	324 00 0 00 055153 		JUMPA	.+1		;IF TEST FAILS, CHANGE THIS INSTRUCTION (JUMPA .+1) TO
 39269									;JUMPA X (X IS THE ADDRESS OF THE FIRST INSTRUCTION
 39270									;IN THE SUBTEST) TO LOOP ON ERROR^
 39271	055153	312 12 0 00 070754 		CAME	12,[76543,,654321]	;PASS IF C(E) UNCHANGED
 39272						STOP^
 39273	055154	254 04 0 00 055155 		HALT	.+1		;TEST FAILED IF PROGRAM HALTS HERE
 39274	055155	324 00 0 00 055156 		JUMPA	.+1		;IF TEST FAILS, CHANGE THIS INSTRUCTION (JUMPA .+1) TO
 39275									;JUMPA X (X IS THE ADDRESS OF THE FIRST INSTRUCTION
 39276									;IN THE SUBTEST) TO LOOP ON ERROR^
 39277
 39278					;**********
 39279
 39280					;THIS TEST VERIFIES THAT TSZE SKIPS THE NEXT SEQUENTIAL INSTRUCTION
 39281					;IF AND ONLY IF ALL BITS IN THE AC CORRESPONDING TO 1'S IN
 39282					;C (E) WITH BOTH HALVES SWAPPED ARE ZERO.  THESE MASKED
 39283					;AC BITS ARE THEN CHANGED TO ZERO
 39284					;IN THIS CASE, C(AC)= 123456,,701234 AND C(E)= 076543,,657321
 39285					;HENCE, TSZE SHOULD NOT SKIP AND THE RESULT IN AC
 39286					;SHOULD BE 120456,,701234 C(E) IS NOT AFFECTED
 39287
 39288	055156	200 10 0 00 070745 	C72010:	MOVE	10,[123456,,701234]	;PRELOAD AC WITH 123456,,701234
 39289	055157	200 11 0 00 070766 		MOVE	11,[76543,,657321]	;PRELOAD E WITH 076543,,654321
 39290	055160	633 10 0 00 000011 		TSZE	10,11			;*TSZE SHOULD NOT SKIP AND
 39291										;PLACE 120456,,701234 INTO THE AC
 39292	055161	334 00 0 00 000000 		SKIPA				;PASS IF TSZE DID NOT SKIP
 39293						STOP^
 39294	055162	254 04 0 00 055163 		HALT	.+1		;TEST FAILED IF PROGRAM HALTS HERE
 39295	055163	324 00 0 00 055164 		JUMPA	.+1		;IF TEST FAILS, CHANGE THIS INSTRUCTION (JUMPA .+1) TO
 39296									;JUMPA X (X IS THE ADDRESS OF THE FIRST INSTRUCTION
 39297									;IN THE SUBTEST) TO LOOP ON ERROR^
 39298	055164	312 10 0 00 070767 		CAME	10,[120456,,701234]	;PASS IF C(AC)= 120456,,701234
 39299						STOP^
 39300	055165	254 04 0 00 055166 		HALT	.+1		;TEST FAILED IF PROGRAM HALTS HERE
 39301	055166	324 00 0 00 055167 		JUMPA	.+1		;IF TEST FAILS, CHANGE THIS INSTRUCTION (JUMPA .+1) TO
 39302									;JUMPA X (X IS THE ADDRESS OF THE FIRST INSTRUCTION
DFKAA PDP-10 KL10 BASIC INSTRUCTION DIAGNOSTIC (1) VER 0,2	MACRO %52(537) 09:34 31-JAN-77 PAGE 68-1
DFKAA6	MAC	25-AUG-75 14:01		TEST OF MSCL LOGICAL TEST INSTRUCTIONS                                             SEQ 0901

 39303									;IN THE SUBTEST) TO LOOP ON ERROR^
 39304	055167	312 11 0 00 070766 		CAME	11,[76543,,657321]	;PASS IF C(E) UNCHANGED
 39305						STOP^
 39306	055170	254 04 0 00 055171 		HALT	.+1		;TEST FAILED IF PROGRAM HALTS HERE
 39307	055171	324 00 0 00 055172 		JUMPA	.+1		;IF TEST FAILS, CHANGE THIS INSTRUCTION (JUMPA .+1) TO
 39308									;JUMPA X (X IS THE ADDRESS OF THE FIRST INSTRUCTION
 39309									;IN THE SUBTEST) TO LOOP ON ERROR^
 39310
 39311
 39312					;**********
DFKAA PDP-10 KL10 BASIC INSTRUCTION DIAGNOSTIC (1) VER 0,2	MACRO %52(537) 09:34 31-JAN-77 PAGE 69
DFKAA6	MAC	25-AUG-75 14:01		TEST OF MSCL LOGICAL TEST INSTRUCTIONS                                             SEQ 0902

 39313					;THIS TEST VERIFIES THAT TDZA CLEARS ALL BITS OF THE AC WHICH
 39314					;CORRESPOND TO 1'S IN C(E) AND ALWAYS
 39315					;SKIPS THE NEXT INSTRUCTION C(E) IS NOT AFFECTED
 39316					;IN THIS CASE, C(AC)=123456,,701234 AND C(E)= 654321,,076543
 39317					;HENCE, TD2A SHOULD ALWAYS SKIP AND C(AC) SHOULD BE 123456,,701234
 39318
 39319	055172	200 07 0 00 070745 	C72100:	MOVE	7,[123456,,701234]	;PRELOAD AC WITH 123456,,701234
 39320	055173	200 10 0 00 070763 		MOVE	10,[654321,,076543]	;PRELOAD E WITH 654321,,076543
 39321	055174	634 07 0 00 000010 		TDZA	7,10			;*TDZA SHOULD SKIP AND
 39322										;PLACE 123456,,701234 INTO THE AC
 39323						STOP^
 39324	055175	254 04 0 00 055176 		HALT	.+1		;TEST FAILED IF PROGRAM HALTS HERE
 39325	055176	324 00 0 00 055177 		JUMPA	.+1		;IF TEST FAILS, CHANGE THIS INSTRUCTION (JUMPA .+1) TO
 39326									;JUMPA X (X IS THE ADDRESS OF THE FIRST INSTRUCTION
 39327									;IN THE SUBTEST) TO LOOP ON ERROR^
 39328	055177	312 07 0 00 070745 		CAME	7,[123456,,701234]	;PASS IF C(AC)= 123456,,701234
 39329						STOP^
 39330	055200	254 04 0 00 055201 		HALT	.+1		;TEST FAILED IF PROGRAM HALTS HERE
 39331	055201	324 00 0 00 055202 		JUMPA	.+1		;IF TEST FAILS, CHANGE THIS INSTRUCTION (JUMPA .+1) TO
 39332									;JUMPA X (X IS THE ADDRESS OF THE FIRST INSTRUCTION
 39333									;IN THE SUBTEST) TO LOOP ON ERROR^
 39334	055202	312 10 0 00 070763 		CAME	10,[654321,,076543]	;PASS IF C(AC)=123456,,701234
 39335						STOP^
 39336	055203	254 04 0 00 055204 		HALT	.+1		;TEST FAILED IF PROGRAM HALTS HERE
 39337	055204	324 00 0 00 055205 		JUMPA	.+1		;IF TEST FAILS, CHANGE THIS INSTRUCTION (JUMPA .+1) TO
 39338									;JUMPA X (X IS THE ADDRESS OF THE FIRST INSTRUCTION
 39339									;IN THE SUBTEST) TO LOOP ON ERROR^
 39340	055205	312 10 0 00 070763 		CAME	10,[654321,,076543]	;PASS IF C(E) UNCHANGED
 39341						STOP^
 39342	055206	254 04 0 00 055207 		HALT	.+1		;TEST FAILED IF PROGRAM HALTS HERE
 39343	055207	324 00 0 00 055210 		JUMPA	.+1		;IF TEST FAILS, CHANGE THIS INSTRUCTION (JUMPA .+1) TO
 39344									;JUMPA X (X IS THE ADDRESS OF THE FIRST INSTRUCTION
 39345									;IN THE SUBTEST) TO LOOP ON ERROR^
 39346
 39347					;**********
 39348
 39349					;THIS TEST VERIFIES THAT TDZA CLEARS ALL BITS OF THE AC WHICH
 39350					;CORRESPOND TO 1'S IN C(E) AND ALWAYS
 39351					;SKIPS THE NEXT INSTRUCTION.  C(E) IS NOT AFFECTED
 39352					;IN THIS CASE, C(AC)=123456,,701234 AND C(E)=252525,,707070
 39353					;HENCE, TDZA SHOULD ALWAYS SKIP AND C(AC) SHOULD BE 121052,,000204
 39354
 39355	055210	200 06 0 00 070745 	C72110:	MOVE	6,[123456,,701234]	;PRELOAD AC WITH 123456,,701234
 39356	055211	200 07 0 00 070761 		MOVE	7,[252525,,707070]	;PRELOAD E WITH 252525,,707070
 39357	055212	634 06 0 00 000007 		TDZA	6,7			;*TDZA SHOULD SKIP AND
 39358									;PLACE 121052,,000204 INTO THE AC
 39359						STOP^
 39360	055213	254 04 0 00 055214 		HALT	.+1		;TEST FAILED IF PROGRAM HALTS HERE
 39361	055214	324 00 0 00 055215 		JUMPA	.+1		;IF TEST FAILS, CHANGE THIS INSTRUCTION (JUMPA .+1) TO
 39362									;JUMPA X (X IS THE ADDRESS OF THE FIRST INSTRUCTION
 39363									;IN THE SUBTEST) TO LOOP ON ERROR^
 39364	055215	312 06 0 00 070770 		CAME	6,[121052,,000204]	;PASS IF C(AC)=121052,,000204
 39365						STOP^
 39366	055216	254 04 0 00 055217 		HALT	.+1		;TEST FAILED IF PROGRAM HALTS HERE
 39367	055217	324 00 0 00 055220 		JUMPA	.+1		;IF TEST FAILS, CHANGE THIS INSTRUCTION (JUMPA .+1) TO
DFKAA PDP-10 KL10 BASIC INSTRUCTION DIAGNOSTIC (1) VER 0,2	MACRO %52(537) 09:34 31-JAN-77 PAGE 69-1
DFKAA6	MAC	25-AUG-75 14:01		TEST OF MSCL LOGICAL TEST INSTRUCTIONS                                             SEQ 0903

 39368									;JUMPA X (X IS THE ADDRESS OF THE FIRST INSTRUCTION
 39369									;IN THE SUBTEST) TO LOOP ON ERROR^
 39370	055220	312 07 0 00 070761 		CAME	7,[252525,,707070]	;PASS IF C(E) UNCHANGED
 39371						STOP^
 39372	055221	254 04 0 00 055222 		HALT	.+1		;TEST FAILED IF PROGRAM HALTS HERE
 39373	055222	324 00 0 00 055223 		JUMPA	.+1		;IF TEST FAILS, CHANGE THIS INSTRUCTION (JUMPA .+1) TO
 39374									;JUMPA X (X IS THE ADDRESS OF THE FIRST INSTRUCTION
 39375									;IN THE SUBTEST) TO LOOP ON ERROR^
 39376
 39377					;**********
DFKAA PDP-10 KL10 BASIC INSTRUCTION DIAGNOSTIC (1) VER 0,2	MACRO %52(537) 09:34 31-JAN-77 PAGE 70
DFKAA6	MAC	25-AUG-75 14:01		TEST OF MSCL LOGICAL TEST INSTRUCTIONS                                             SEQ 0904

 39378					;THIS TEST VERIFIES TH`T TSZA CLEARS AHL BITS OF THE AC WHICH
 39379					;CORRESPOND TO 1'S IN C(E) WITH BOTH HALVES SWAPPED AND ALWAYS
 39380					;SKIPS THE NEXT INSTRUCTION. C(E) IS NOT AFFECTED.
 39381					;IN THIS CASE, C(AC)=123456,,701234 AND C(E)=076543,,654321
 39382					;HENCE, TSZA SHOULD ALWAYS SKIP AND C(AC) SHOULD BE 123456,,701234
 39383
 39384	055223	200 05 0 00 070745 	C72200:	MOVE	5,[123456,,701234]	;PRELOAD AC WITH 123456,,701234
 39385	055224	200 06 0 00 070754 		MOVE	6,[076543,,654321]	;PRELOAD E WITH 076543,,654321
 39386	055225	635 05 0 00 000006 		TSZA	5,6			;*TSZA SHOULD SKIP AND
 39387										;PLACE 123456,,701234 INTO THE AC
 39388						STOP^
 39389	055226	254 04 0 00 055227 		HALT	.+1		;TEST FAILED IF PROGRAM HALTS HERE
 39390	055227	324 00 0 00 055230 		JUMPA	.+1		;IF TEST FAILS, CHANGE THIS INSTRUCTION (JUMPA .+1) TO
 39391									;JUMPA X (X IS THE ADDRESS OF THE FIRST INSTRUCTION
 39392									;IN THE SUBTEST) TO LOOP ON ERROR^
 39393	055230	312 05 0 00 070745 		CAME	5,[123456,,701234]	;PASS IF C(AC)=123456,,701234
 39394						STOP^
 39395	055231	254 04 0 00 055232 		HALT	.+1		;TEST FAILED IF PROGRAM HALTS HERE
 39396	055232	324 00 0 00 055233 		JUMPA	.+1		;IF TEST FAILS, CHANGE THIS INSTRUCTION (JUMPA .+1) TO
 39397									;JUMPA X (X IS THE ADDRESS OF THE FIRST INSTRUCTION
 39398									;IN THE SUBTEST) TO LOOP ON ERROR^
 39399	055233	312 06 0 00 070754 		CAME	6,[076543,,654321]	;PASS IF C(E) UNCHANGED
 39400						STOP^
 39401	055234	254 04 0 00 055235 		HALT	.+1		;TEST FAILED IF PROGRAM HALTS HERE
 39402	055235	324 00 0 00 055236 		JUMPA	.+1		;IF TEST FAILS, CHANGE THIS INSTRUCTION (JUMPA .+1) TO
 39403									;JUMPA X (X IS THE ADDRESS OF THE FIRST INSTRUCTION
 39404									;IN THE SUBTEST) TO LOOP ON ERROR^
 39405
 39406					;**********
 39407
 39408					;THIS TEST VERIFIES THAT TSZA CLEARS ALL BITS OF THE AC WHICH
 39409					;CORRESPOND TO 1'S IN C(E) WITH BOTH HALVES SWAPPED AND ALWAYS
 39410					;SKIPS THE NEXT INSTRUCTION.  C(E) IS NOT AFFECTED.
 39411					;IN THIS CASE, C(AC)=123456,,701234 AND C(E)=701234,,123456
 39412					;HENCE, TSZA SHOULD ALWAYS SKIP AND C(AC) SHOULD BE 0
 39413
 39414	055236	200 04 0 00 070745 	C72210:	MOVE	4,[123456,,701234]	;PRELOAD AC WITH 123456,,701234
 39415	055237	200 05 0 00 070771 		MOVE	5,[701234,,123456]	;PRELOAD E WITH 701234,,123456
 39416	055240	635 04 0 00 000005 		TSZA	4,5			;*TSZA SHOULD SKIP AND
 39417										;PLACE 0 INTO THE AC
 39418						STOP^
 39419	055241	254 04 0 00 055242 		HALT	.+1		;TEST FAILED IF PROGRAM HALTS HERE
 39420	055242	324 00 0 00 055243 		JUMPA	.+1		;IF TEST FAILS, CHANGE THIS INSTRUCTION (JUMPA .+1) TO
 39421									;JUMPA X (X IS THE ADDRESS OF THE FIRST INSTRUCTION
 39422									;IN THE SUBTEST) TO LOOP ON ERROR^
 39423	055243	312 04 0 00 070253 		CAME	4,[0]			;PASS IF C(AC)=0
 39424						STOP^
 39425	055244	254 04 0 00 055245 		HALT	.+1		;TEST FAILED IF PROGRAM HALTS HERE
 39426	055245	324 00 0 00 055246 		JUMPA	.+1		;IF TEST FAILS, CHANGE THIS INSTRUCTION (JUMPA .+1) TO
 39427									;JUMPA X (X IS THE ADDRESS OF THE FIRST INSTRUCTION
 39428									;IN THE SUBTEST) TO LOOP ON ERROR^
 39429	055246	312 05 0 00 070771 		CAME	5,[701234,,123456]	;PASS IF C(E) UNCHANGED
 39430						SToP^
 39431	055247	254 04 0 00 055250 		HALT	.+1		;TEST FAILED IF PROGRAM HALTS HERE
 39432	055250	324 00 0 00 055251 		JUMPA	.+1		;IF TEST FAILS, CHANGE THIS INSTRUCTION (JUMPA .+1) TO
DFKAA PDP-10 KL10 BASIC INSTRUCTION DIAGNOSTIC (1) VER 0,2	MACRO %52(537) 09:34 31-JAN-77 PAGE 70-1
DFKAA6	MAC	25-AUG-75 14:01		TEST OF MSCL LOGICAL TEST INSTRUCTIONS                                             SEQ 0905

 39433									;JUMPA X (X IS THE ADDRESS OF THE FIRST INSTRUCTION
 39434									;IN THE SUBTEST) TO LOOP ON ERROR^
 39435
 39436					;**********
DFKAA PDP-10 KL10 BASIC INSTRUCTION DIAGNOSTIC (1) VER 0,2	MACRO %52(537) 09:34 31-JAN-77 PAGE 71
DFKAA6	MAC	25-AUG-75 14:01		TEST OF MSCL LOGICAL TEST INSTRUCTIONS                                             SEQ 0906

 39437					;THIS TEST VERIFIES THAT TDZN SKIPS THE NEXT SEQUENTIAL INSTRUCTION
 39438					;IF AND ONLY IF NOT ALL BITS IN THE AC CORRESPONDING TO 1'S IN
 39439					;C(E) ARE ZERO.  THESE MASKED
 39440					;AC BITS ARE THEN CHANGEDTO ZERO.
 39441					;IN THIS CASE, C(AC)=123456,,701234 AND C(E)=654321,,076547
 39442					;HENCE, TDZN SHOULD SKIP AND THE RESULT IN THE AC
 39443					;SHOULD BE 123456(,701230.  C(E) IS NOT AFFECTED.
 39444
 39445	055251	200 03 0 00 070745 	C72300:	MOVE	3,[123456,,701234]	;PRELOAD AC WITH 123456,,701234
 39446	055252	200 04 0 00 070772 		MOVE	4,[654321,,76547]	;PRELOAD E WITH 654321,,076547
 39447	055253	636 03 0 00 000004 		TDZN	3,4			;*TDZN SHoULD SKIP AND
 39448										;PLACE 123456,,701230 INTO THE AC
 39449						STOP^
 39450	055254	254 04 0 00 055255 		HALT	.+1		;TEST FAILED IF PROGRAM HALTS HERE
 39451	055255	324 00 0 00 055256 		JUMPA	.+1		;IF TEST FAILS, CHANGE THIS INSTRUCTION (JUMPA .+1) TO
 39452									;JUMPA X (X IS THE ADDRESS OF THE FIRST INSTRUCTION
 39453									;IN THE SUBTEST) TO LOOP ON ERROR^
 39454	055256	312 03 0 00 070773 		CAME	3,[123456,,701230]	;PASS IF C(AC)=123456,,701230
 39455						STOP^
 39456	055257	254 04 0 00 055260 		HALT	.+1		;TEST FAILED IF PROGRAM HALTS HERE
 39457	055260	324 00 0 00 055261 		JUMPA	.+1		;IF TEST FAILS, CHANGE THIS INSTRUCTION (JUMPA .+1) TO
 39458									;JUMPA X (X IS THE ADDRESS OF THE FIRST INSTRUCTION
 39459									;IN THE SUBTEST) TO LOOP ON ERROR^
 39460	055261	312 04 0 00 070772 		CAME	4,[654321,,076547]	;PASS IF C(E) UNCHANGED
 39461						STOP^
 39462	055262	254 04 0 00 055263 		HALT	.+1		;TEST FAILED IF PROGRAM HALTS HERE
 39463	055263	324 00 0 00 055264 		JUMPA	.+1		;IF TEST FAILS, CHANGE THIS INSTRUCTION (JUMPA .+1) TO
 39464									;JUMPA X (X IS THE ADDRESS OF THE FIRST INSTRUCTION
 39465									;IN THE SUBTEST) TO LOOP ON ERROR^
 39466
 39467					;**********
 39468
 39469					;THIS TEST VERIFIES THAT TDZN SKIPS THE NEXT SEQUENTIAL INSTRUCTION
 39470					;IF AND ONLY IF NOT ALL BITS IN THE AC CORRESPONDING TO 1'S IN
 39471					;C(E) ARE ZERO.  THESE MASKED
 39472					;AC BITS ARE THEN CHANGED TO ZERO.
 39473					;IN THIS CASE, C(AC)=123456,,701234 AND C(E)=654321,,076543
 39474					;HENCE, TDZN SHOULD NOT SKIP AND THE RESULT IN THE AC
 39475					;SHOULD BE 123456,,701234.  C(E) IS NOT AFFECTED.
 39476
 39477	055264	200 02 0 00 070745 	C72310:	MOVE	2,[123456,,701234]	;PRELOAD AC WITH 123456,,701234
 39478	055265	200 03 0 00 070763 		MOVE	3,[654321,,076543]	;PRELOAD E WITH 654321,,076543
 39479	055266	636 02 0 00 000003 		TDZN	2,3			;*TDZN SHOULD NOT SKIP AND
 39480										;PLACE 123456,,701234 INTO THE AC
 39481	055267	334 00 0 00 000000 		SKIPA				;PASS IF TDZN DOES NOT SKIP
 39482						STOP^
 39483	055270	254 04 0 00 055271 		HALT	.+1		;TEST FAILED IF PROGRAM HALTS HERE
 39484	055271	324 00 0 00 055272 		JUMPA	.+1		;IF TEST FAILS, CHANGE THIS INSTRUCTION (JUMPA .+1) TO
 39485									;JUMPA X (X IS THE ADDRESS OF THE FIRST INSTRUCTION
 39486									;IN THE SUBTEST) TO LOOP ON ERROR^
 39487	055272	312 02 0 00 070745 		CAME	2,[123456,,701234]	;PASS IF C(AC)=123456,,701234
 39488						STOP^
 39489	055273	254 04 0 00 055274 		HALT	.+1		;TEST FAILED IF PROGRAM HALTS HERE
 39490	055274	324 00 0 00 055275 		JUMPA	.+1		;IF TEST FAILS, CHANGE THIS INSTRUCTION (JUMPA .+1) TO
 39491									;JUMPA X (X IS THE ADDRESS OF THE FIRST INSTRUCTION
DFKAA PDP-10 KL10 BASIC INSTRUCTION DIAGNOSTIC (1) VER 0,2	MACRO %52(537) 09:34 31-JAN-77 PAGE 71-1
DFKAA6	MAC	25-AUG-75 14:01		TEST OF MSCL LOGICAL TEST INSTRUCTIONS                                             SEQ 0907

 39492									;IN THE SUBTEST) TO LOOP ON ERROR^
 39493	055275	312 03 0 00 070763 		CAME	3,[654321,,076543]	;PASS IF C(E) UNCHANGED
 39494						STOP^
 39495	055276	254 04 0 00 055277 		HALT	.+1		;TEST FAILED IF PROGRAM HALTS HERE
 39496	055277	324 00 0 00 055300 		JUMPA	.+1		;IF TEST FAILS, CHANGE THIS INSTRUCTION (JUMPA .+1) TO
 39497									;JUMPA X (X IS THE ADDRESS OF THE FIRST INSTRUCTION
 39498									;IN THE SUBTEST) TO LOOP ON ERROR^
 39499
 39500					;**********
DFKAA PDP-10 KL10 BASIC INSTRUCTION DIAGNOSTIC (1) VER 0,2	MACRO %52(537) 09:34 31-JAN-77 PAGE 72
DFKAA6	MAC	25-AUG-75 14:01		TEST OF MSCL LOGICAL TEST INSTRUCTIONS                                             SEQ 0908

 39501					;THIS TEST VERIFIES THaT TSZN SKIPS THE NEXT SEQQENPIAL INSTRUCTION
 39502					;IF AND ONLY IF NOT ALL BITS IN THE AC CORRESPONDING TO 1'S IN
 39503					;C(E) WITH BOTH HALVES SWAPPED ARE ZERO.  THESE MASKED
 39504					;AC BITS ARE THEN CHANGED TO ZERO.
 39505					;IN THIS CASE, C(AC)=123456,,701234 AND C(E)=077543,,654321.
 39506					;HENCE, TSZN SHOULD SKIP AND THE RESULT IN THE AC
 39507					;SHOULD BE 123456,,700234.  C(E) IS NOT AFFECTED.
 39508
 39509	055300	200 01 0 00 070745 	C72400:	MOVE	1,[123456,,701234]	;PRELOAD AC WITH 123456,,701234
 39510	055301	200 02 0 00 070774 		MOVE	2,[077543,,654321]	;PRELOAD E WITH 077543,,654321
 39511	055302	637 01 0 00 000002 		TSZN	1,2			;*TSZN SHOULD SKIP AND
 39512										;PLACE 123456,,700234 INTO THE AC
 39513						STOP^
 39514	055303	254 04 0 00 055304 		HALT	.+1		;TEST FAILED IF PROGRAM HALTS HERE
 39515	055304	324 00 0 00 055305 		JUMPA	.+1		;IF TEST FAILS, CHANGE THIS INSTRUCTION (JUMPA .+1) TO
 39516									;JUMPA X (X IS THE ADDRESS OF THE FIRST INSTRUCTION
 39517									;IN THE SUBTEST) TO LOOP ON ERROR^
 39518	055305	312 01 0 00 070775 		CAME	1,[123456,,700234]	;PASS IF C(AC)=123456,,700234
 39519						STOP^
 39520	055306	254 04 0 00 055307 		HALT	.+1		;TEST FAILED IF PROGRAM HALTS HERE
 39521	055307	324 00 0 00 055310 		JUMPA	.+1		;IF TEST FAILS, CHANGE THIS INSTRUCTION (JUMPA .+1) TO
 39522									;JUMPA X (X IS THE ADDRESS OF THE FIRST INSTRUCTION
 39523									;IN THE SUBTEST) TO LOOP ON ERROR^
 39524	055310	312 02 0 00 070774 		CAME	2,[77543,,654321]	;PASS IF C(E) UNCHANGED
 39525						STOP^
 39526	055311	254 04 0 00 055312 		HALT	.+1		;TEST FAILED IF PROGRAM HALTS HERE
 39527	055312	324 00 0 00 055313 		JUMPA	.+1		;IF TEST FAILS, CHANGE THIS INSTRUCTION (JUMPA .+1) TO
 39528									;JUMPA X (X IS THE ADDRESS OF THE FIRST INSTRUCTION
 39529									;IN THE SUBTEST) TO LOOP ON ERROR^
 39530
 39531					;**********
 39532
 39533					;THIS TEST VERIFIES THAT TSZN SKIPS THE NEXT SEQUENTIAL INSTRUCTION
 39534					;IF AND ONLY IF NOT ALL BITS IN THE AC CORRESPONDING TO 1'S IN
 39535					;C(E) WITH BOTH HALVES SWAPPED ARE ZERO.  THESE MASKED
 39536					;AC BITS ARE THEN CHANGED TO ZERO.
 39537					;IN THIS CASE, C(AC)=123456,,701234 AND C(E)=076543,,654321.-
 39538					;HENCE, TSZN SHOULD NOT SKIP AND THE RESULT IN THE AC
 39539					;SHOULD BE 123456,,701234.  C(E) IS NOT AFFECTED.
 39540
 39541	055313	200 00 0 00 070745 	C72410:	MOVE	0,[123456,,701234]	;PRELOAD AC WITH 123456,,701234
 39542	055314	200 01 0 00 070754 		MOVE	1,[76543,,654321]	;PRElOAD E WITH 076543,,654321
 39543	055315	637 00 0 00 000001 		TSZN	0,1			;*TSZN SHOULD NOT SKIP AND
 39544										;PLACE 123456,,701234 INTO THE AC
 39545	055316	334 00 0 00 000000 		SKIPA				;PASS IF TSZN DOES NOT SKIP
 39546						STOP^
 39547	055317	254 04 0 00 055320 		HALT	.+1		;TEST FAILED IF PROGRAM HALTS HERE
 39548	055320	324 00 0 00 055321 		JUMPA	.+1		;IF TEST FAILS, CHANGE THIS INSTRUCTION (JUMPA .+1) TO
 39549									;JUMPA X (X IS THE ADDRESS OF THE FIRST INSTRUCTION
 39550									;IN THE SUBTEST) TO LOOP ON ERROR^
 39551	055321	312 00 0 00 070745 		CAME	0,[123456,,701234]	;PASS IF C(AC)=123456,,701234]
 39552						STOP^
 39553	055322	254 04 0 00 055323 		HALT	.+1		;TEST FAILED IF PROGRAM HALTS HERE
 39554	055323	324 00 0 00 055324 		JUMPA	.+1		;IF TEST FAILS, CHANGE THIS INSTRUCTION (JUMPA .+1) TO
 39555									;JUMPA X (X IS THE ADDRESS OF THE FIRST INSTRUCTION
DFKAA PDP-10 KL10 BASIC INSTRUCTION DIAGNOSTIC (1) VER 0,2	MACRO %52(537) 09:34 31-JAN-77 PAGE 72-1
DFKAA6	MAC	25-AUG-75 14:01		TEST OF MSCL LOGICAL TEST INSTRUCTIONS                                             SEQ 0909

 39556									;IN THE SUBTEST) TO LOOP ON ERROR^
 39557	055324	312 01 0 00 070754 		CAME	1,[76543,,654321]	;PASS IF C(E) UNCHANGED
 39558						STOP^
 39559	055325	254 04 0 00 055326 		HALT	.+1		;TEST FAILED IF PROGRAM HALTS HERE
 39560	055326	324 00 0 00 055327 		JUMPA	.+1		;IF TEST FAILS, CHANGE THIS INSTRUCTION (JUMPA .+1) TO
 39561									;JUMPA X (X IS THE ADDRESS OF THE FIRST INSTRUCTION
 39562									;IN THE SUBTEST) TO LOOP ON ERROR^
 39563
 39564					;**********
DFKAA PDP-10 KL10 BASIC INSTRUCTION DIAGNOSTIC (1) VER 0,2	MACRO %52(537) 09:34 31-JAN-77 PAGE 73
DFKAA6	MAC	25-AUG-75 14:01		TEST OF MSCL LOGICAL TEST INSTRUCTIONS                                             SEQ 0910

 39565					;THIS TEST VERIFIES THAT TRC COMPLEMENTS ALL BITS IN THE AC-RIGHT WHICH
 39566					;CORRESPOND TO 1'S IN E AND DOES NOT SKIP.
 39567					;IN THIS CASE, C(AC)=123456,,701234 AND E=3.
 39568					;HENCE, THE RESULT IN THE AC SHOUHD BE 123456,,701237
 39569
 39570	055327	200 17 0 00 070745 	C72500:	MOVE	17,[123456,,701234]	;PRELOAD AC WITH 123456,,701234
 39571	055330	640 17 0 00 000003 		TRC	17,3			;*TRC SHOULD NOT SKIP AND
 39572										;PLACE 123456,,701237 INTO THE AC
 39573	055331	334 00 0 00 000000 		SKIPA				;PASS IF TRC DID NOT SKIP
 39574						STOP^
 39575	055332	254 04 0 00 055333 		HALT	.+1		;TEST FAILED IF PROGRAM HALTS HERE
 39576	055333	324 00 0 00 055334 		JUMPA	.+1		;IF TEST FAILS, CHANGE THIS INSTRUCTION (JUMPA .+1) TO
 39577									;JUMPA X (X IS THE ADDRESS OF THE FIRST INSTRUCTION
 39578									;IN THE SUBTEST) TO LOOP ON ERROR^
 39579	055334	312 17 0 00 070776 		CAME	17,[123456,,701237]	;PASS IF C(AC)=123456,,701237
 39580						STOP^
 39581	055335	254 04 0 00 055336 		HALT	.+1		;TEST FAILED IF PROGRAM HALTS HERE
 39582	055336	324 00 0 00 055337 		JUMPA	.+1		;IF TEST FAILS, CHANGE THIS INSTRUCTION (JUMPA .+1) TO
 39583									;JUMPA X (X IS THE ADDRESS OF THE FIRST INSTRUCTION
 39584									;IN THE SUBTEST) TO LOOP ON ERROR^
 39585
 39586					;**********
 39587
 39588					;THIS TEST VERIFIES THAT TRC COMPLEMENTS ALL BITS IN THE AC-RIGHT WHICH
 39589					;CORRESPOND TO 1'S IN E AND DOES NOT SKIP.
 39590					;IN THIS CASE, C(AC)=123456,,701234 AND E=300.
 39591					;HENCE, THE RESULT IN THE AC SHOULD BE 123456,,701134
 39592
 39593	055337	200 16 0 00 070745 	C72510:	MOVE	16,[123456,,701234]	;PRELOAD AC WITH 123456,,701234
 39594	055340	640 16 0 00 000300 		TRC	16,300			;*TRC SHOULD NOT SKIP AND
 39595										;PLACE 123456,,701134 INTO THE AC
 39596	055341	334 00 0 00 000000 		SKIPA				;PASS IF TRC DID NOT SKIP
 39597						STOP^
 39598	055342	254 04 0 00 055343 		HALT	.+1		;TEST FAILED IF PROGRAM HALTS HERE
 39599	055343	324 00 0 00 055344 		JUMPA	.+1		;IF TEST FAILS, CHANGE THIS INSTRUCTION (JUMPA .+1) TO
 39600									;JUMPA X (X IS THE ADDRESS OF THE FIRST INSTRUCTION
 39601									;IN THE SUBTEST) TO LOOP ON ERROR^
 39602	055344	312 16 0 00 070777 		CAME	16,[123456,,701134]	;PASS IF C(AC)=123456,,701134
 39603						STOP^
 39604	055345	254 04 0 00 055346 		HALT	.+1		;TEST FAILED IF PROGRAM HALTS HERE
 39605	055346	324 00 0 00 055347 		JUMPA	.+1		;IF TEST FAILS, CHANGE THIS INSTRUCTION (JUMPA .+1) TO
 39606									;JUMPA X (X IS THE ADDRESS OF THE FIRST INSTRUCTION
 39607									;IN THE SUBTEST) TO LOOP ON ERROR^
 39608
 39609					;**********
DFKAA PDP-10 KL10 BASIC INSTRUCTION DIAGNOSTIC (1) VER 0,2	MACRO %52(537) 09:34 31-JAN-77 PAGE 74
DFKAA6	MAC	25-AUG-75 14:01		TEST OF MSCL LOGICAL TEST INSTRUCTIONS                                             SEQ 0911

 39610					;THIS TEST VERIFIES THAT TLC COMPLEMENTS ALL BITS IN THE AC-LEFT WHICH
 39611					;CORRESPOND TO 1'S IN E AND DOES NOT SKIP.
 39612					;IN THIS CASE, C(AC)=123456,,701234 AND E=300.
 39613					;HENCE, ThE RESULT IN THE AC SHOULD BE 123756,,701234.
 39614
 39615	055347	200 15 0 00 070745 	C72600:	MOVE	15,[123456,,701234]	;PRELOAD AC WITH 123456,,701234
 39616	055350	641 15 0 00 000300 		TLC	15,300			;*TLC SHOULD NOT SKIP AND
 39617										;PLACE 123756,,701234 INTO THE AC
 39618	055351	334 00 0 00 000000 		SKIPA				;PASS IF TLC DID NOT SKIP
 39619						STOP^
 39620	055352	254 04 0 00 055353 		HALT	.+1		;TEST FAILED IF PROGRAM HALTS HERE
 39621	055353	324 00 0 00 055354 		JUMPA	.+1		;IF TEST FAILS, CHANGE THIS INSTRUCTION (JUMPA .+1) TO
 39622									;JUMPA X (X IS THE ADDRESS OF THE FIRST INSTRUCTION
 39623									;IN THE SUBTEST) TO LOOP ON ERROR^
 39624	055354	312 15 0 00 071000 		CAME	15,[123756,,701234]	;PASS IF A(AC)=123756,,701234
 39625						STOP^
 39626	055355	254 04 0 00 055356 		HALT	.+1		;TEST FAILED IF PROGRAM HALTS HERE
 39627	055356	324 00 0 00 055357 		JUMPA	.+1		;IF TEST FAILS, CHANGE THIS INSTRUCTION (JUMPA .+1) TO
 39628									;JUMPA X (X IS THE ADDRESS OF THE FIRST INSTRUCTION
 39629									;IN THE SUBTEST) TO LOOP ON ERROR^
 39630
 39631					;**********
 39632
 39633					;THIS TEST VERIFIES THAT TLC COMPLEMENTS ALL BITS IN THE AC-LEFT WHICH
 39634					;CORRESPOND TO 1'S IN E AND DOES NOT SKIP.
 39635					;IN THIS CASE, C(AC)=123456,,701234 AND E=3.
 39636					;HENCE, THE RESULT IN THE AC SHOULD BE 123455,,701234.
 39637
 39638	055357	200 14 0 00 070745 	C72610:	MOVE	14,[123456,,701234]	;PRELOAD AC WITH 123456,,701234
 39639	055360	641 14 0 00 000003 		TLC	14,3			;*TLC SHOULD NOT SKIP AND
 39640										;PLACE 123455,,701234 INTO THE AC
 39641	055361	334 00 0 00 000000 		SKIPA				;PASS IF TLC DID NOT SKIP
 39642						STOP^
 39643	055362	254 04 0 00 055363 		HALT	.+1		;TEST FAILED IF PROGRAM HALTS HERE
 39644	055363	324 00 0 00 055364 		JUMPA	.+1		;IF TEST FAILS, CHANGE THIS INSTRUCTION (JUMPA .+1) TO
 39645									;JUMPA X (X IS THE ADDRESS OF THE FIRST INSTRUCTION
 39646									;IN THE SUBTEST) TO LOOP ON ERROR^
 39647	055364	312 14 0 00 071001 		CAME	14,[123455,,701234]	;PASS IF C(AC)=123455,,701234
 39648						STOP^
 39649	055365	254 04 0 00 055366 		HALT	.+1		;TEST FAILED IF PROGRAM HALTS HERE
 39650	055366	324 00 0 00 055367 		JUMPA	.+1		;IF TEST FAILS, CHANGE THIS INSTRUCTION (JUMPA .+1) TO
 39651									;JUMPA X (X IS THE ADDRESS OF THE FIRST INSTRUCTION
 39652									;IN THE SUBTEST) TO LOOP ON ERROR^
 39653
 39654					;**********
DFKAA PDP-10 KL10 BASIC INSTRUCTION DIAGNOSTIC (1) VER 0,2	MACRO %52(537) 09:34 31-JAN-77 PAGE 75
DFKAA6	MAC	25-AUG-75 14:01		TEST OF MSCL LOGICAL TEST INSTRUCTIONS                                             SEQ 0912

 39655					;THIS TEST VERIFIES THAT TRCE SKIPS THE NEXT SEQUENTIAL INSTRUCTION
 39656					;IF AND ONLY IF ALL BITS IN AC-RIGHT CORRESPONDING TO 1'S IN E ARE ZERO.
 39657					;THESE MASKED AC BITS ARE THEN COMPLEMENTED.
 39658					;IN THIS CASE, C(AC)=123456,,701234 AND E=3.
 39659					;HENCE, TRCE SHOULD SKIP THE NEXT SEQUENTIAL INSTRUCTION
 39660					;AND THE RESULT IN THE AC SHOULD BE 123456,,701237.
 39661
 39662	055367	200 13 0 00 070745 	C72700:	MOVE	13,[123456,,701234]	;PRELOAD AC WITH 123456,,701234
 39663	055370	642 13 0 00 000003 		TRCE	13,3			;*TRCE SHOULD SKIP AND
 39664										;PLACE 123456,,701237 INTO ThE AC
 39665						STOP^
 39666	055371	254 04 0 00 055372 		HALT	.+1		;TEST FAILED IF PROGRAM HALTS HERE
 39667	055372	324 00 0 00 055373 		JUMPA	.+1		;IF TEST FAILS, CHANGE THIS INSTRUCTION (JUMPA .+1) TO
 39668									;JUMPA X (X IS THE ADDRESS OF THE FIRST INSTRUCTION
 39669									;IN THE SUBTEST) TO LOOP ON ERROR^
 39670	055373	312 13 0 00 070776 		CAME	13,[123456,,701237]	;PASS IF C(AC)=123456,,701237
 39671						STOP^
 39672	055374	254 04 0 00 055375 		HALT	.+1		;TEST FAILED IF PROGRAM HALTS HERE
 39673	055375	324 00 0 00 055376 		JUMPA	.+1		;IF TEST FAILS, CHANGE THIS INSTRUCTION (JUMPA .+1) TO
 39674									;JUMPA X (X IS THE ADDRESS OF THE FIRST INSTRUCTION
 39675									;IN THE SUBTEST) TO LOOP ON ERROR^
 39676
 39677					;**********
 39678
 39679					;THIS TEST VERIFIES THAT TRCE SKIPS THE NEXT SEQUENTIAL INSTRUCTION
 39680					;IF AND ONLY IF ALL BITS IN AC-RIGHT CORRESPONDING TO 1'S IN E ARE ZERO.
 39681					;THESE MASKED AC BITS ARE THEN COMPLEMENTED.
 39682					;IN THIS CASE, C(AC)=123456,,701234 AND E=300.
 39683					;HENCE, TRCE SHOULD NOT SKIP THE NEXT SEQUENTIAL INSTRUCTION
 39684					;AND THE RESULT IN THE AC SHOULD BE 123456,,701134
 39685
 39686	055376	200 12 0 00 070745 	C72710:	MOVE	12,[123456,,701234]	;PRELOAD AC WITH 123456,,701234
 39687	055377	642 12 0 00 000300 		TRCE	12,300			;*TRCE SHOULD NOT SKIP AND
 39688										;PLACE 123456,,701134 INTO THE AC
 39689	055400	334 00 0 00 000000 		SKIPA				;PASS IF TRCE DID NOT SKIP
 39690						STOP^
 39691	055401	254 04 0 00 055402 		HALT	.+1		;TEST FAILED IF PROGRAM HALTS HERE
 39692	055402	324 00 0 00 055403 		JUMPA	.+1		;IF TEST FAILS, CHANGE THIS INSTRUCTION (JUMPA .+1) TO
 39693									;JUMPA X (X IS THE ADDRESS OF THE FIRST INSTRUCTION
 39694									;IN THE SUBTEST) TO LOOP ON ERROR^
 39695	055403	312 12 0 00 070777 		CAME	12,[123456,,701134]	;PASS IF C(AC)=123456,,701134
 39696						STOP^
 39697	055404	254 04 0 00 055405 		HALT	.+1		;TEST FAILED IF PROGRAM HALTS HERE
 39698	055405	324 00 0 00 055406 		JUMPA	.+1		;IF TEST FAILS, CHANGE THIS INSTRUCTION (JUMPA .+1) TO
 39699									;JUMPA X (X IS THE ADDRESS OF THE FIRST INSTRUCTION
 39700									;IN THE SUBTEST) TO LOOP ON ERROR^
 39701
 39702					;**********
DFKAA PDP-10 KL10 BASIC INSTRUCTION DIAGNOSTIC (1) VER 0,2	MACRO %52(537) 09:34 31-JAN-77 PAGE 76
DFKAA6	MAC	25-AUG-75 14:01		TEST OF MSCL LOGICAL TEST INSTRUCTIONS                                             SEQ 0913

 39703					;THIS TEST VERIFIES THAT TLCE SKIPS THE NEXT SEQUENTIAL INSTRUCTION
 39704					;IF AND ONLY IF ALL BITS IN AC-LEFT CORRESPONDING TO 1'S IN E ARE ZERO.
 39705					;THESE MASKED AC BITS ARE THEN COMPLEMENTED.
 39706					;IN THIS CASE, C(AC)=123456,,701234 AND E=300.
 39707					;HENCE, TLCE SHOULD SKIP THE NEXT SEQUENTIAL INSTRUCTION
 39708					;AND THE RESULT IN THE AC SHOULD BE 123756,,701234.
 39709
 39710	055406	200 11 0 00 070745 	C73000:	MOVE	11,[123456,,701234]	;PRELOAD AC WITH 123456,,701234
 39711	055407	643 11 0 00 000300 		TLCE	11,300			;*TLCE SHOULD SKIP AND
 39712										;PLACE 123756,,701234 INTO THE AC
 39713						STOP^
 39714	055410	254 04 0 00 055411 		HALT	.+1		;TEST FAILED IF PROGRAM HALTS HERE
 39715	055411	324 00 0 00 055412 		JUMPA	.+1		;IF TEST FAILS, CHANGE THIS INSTRUCTION (JUMPA .+1) TO
 39716									;JUMPA X (X IS THE ADDRESS OF THE FIRST INSTRUCTION
 39717									;IN THE SUBTEST) TO LOOP ON ERROR^
 39718	055412	312 11 0 00 071000 		CAME	11,[123756,,701234]	;PASS IF C(AC)=123756,,701234
 39719						STOP^
 39720	055413	254 04 0 00 055414 		HALT	.+1		;TEST FAILED IF PROGRAM HALTS HERE
 39721	055414	324 00 0 00 055415 		JUMPA	.+1		;IF TEST FAILS, CHANGE THIS INSTRUCTION (JUMPA .+1) TO
 39722									;JUMPA X (X IS THE ADDRESS OF THE FIRST INSTRUCTION
 39723									;IN THE SUBTEST) TO LOOP ON ERROR^
 39724
 39725					;**********
 39726
 39727					;THIS TEST VERIFIES THAT TLCE SKIPS THE NEXT SEQUENTIAL INSTRUCTION
 39728					;IF AND ONLY IF ALL BITS IN AC-LEFT CORRESPONDING TO 1'S IN E ARE ZERO.
 39729					;THESE MASKED AC BITS ARE THEN COMPLEMENTED.
 39730					;IN THIS CASE, C(AC)=123456,,701234 AND E=3.
 39731					;HENCE, TLCE SHOULD NOT SKIP THE NEXT SEQUENTIAL INSTRUCTION
 39732					;AND THE RESULT IN THE AC SHOULD BE 123455,,701234.
 39733
 39734	055415	200 10 0 00 070745 	C73010:	MOVE	10,[123456,,701234]	;PRELOAD AC WITH 123456,,701234
 39735	055416	643 10 0 00 000003 		TLCE	10,3			;*TLCE SHOULD NOT SKIP AND
 39736										;PLACE 123455,,701234 INTO THE AC
 39737	055417	334 00 0 00 000000 		SKIPA				;PASS IF TLCE DID NOT SKIP
 39738						STOP^
 39739	055420	254 04 0 00 055421 		HALT	.+1		;TEST FAILED IF PROGRAM HALTS HERE
 39740	055421	324 00 0 00 055422 		JUMPA	.+1		;IF TEST FAILS, CHANGE THIS INSTRUCTION (JUMPA .+1) TO
 39741									;JUMPA X (X IS THE ADDRESS OF THE FIRST INSTRUCTION
 39742									;IN THE SUBTEST) TO LOOP ON ERROR^
 39743	055422	312 10 0 00 071001 		CAME	10,[123455,,701234]	;PASS IF C(AC)=123455,,701234]
 39744						STOP^
 39745	055423	254 04 0 00 055424 		HALT	.+1		;TEST FAILED IF PROGRAM HALTS HERE
 39746	055424	324 00 0 00 055425 		JUMPA	.+1		;IF TEST FAILS, CHANGE THIS INSTRUCTION (JUMPA .+1) TO
 39747									;JUMPA X (X IS THE ADDRESS OF THE FIRST INSTRUCTION
 39748									;IN THE SUBTEST) TO LOOP ON ERROR^
 39749
 39750					;**********
DFKAA PDP-10 KL10 BASIC INSTRUCTION DIAGNOSTIC (1) VER 0,2	MACRO %52(537) 09:34 31-JAN-77 PAGE 77
DFKAA6	MAC	25-AUG-75 14:01		TEST OF MSCL LOGICAL TEST INSTRUCTIONS                                             SEQ 0914

 39751					;THIS TEST VERIFIES THAT TRCA ALWAYS SKIPS THE NEXT SEQUENTIAL INSTRUCTION
 39752					;AND COMPLEMENTS ALL BITS IN AC-RIGHT WHICH CORRESPOND TO 1'S IN E.
 39753					;IN THIS CASE, C(AC)=123456,,701234 AND E=3.
 39754					;HENCE, TRCA SHOULD SKIP THE NEXT INSTRUCTION AND THE RESULT IN
 39755					;THE AC SHOULD BE 123456,,701237.
 39756
 39757	055425	200 07 0 00 070745 	C73100:	MOVE	7,[123456,,701234]	;PRELOAD AC WITH 123456,,701234
 39758	055426	644 07 0 00 000003 		TRCA	7,3			;*TRCA SHOULD SKIP AND
 39759										;PLACE 123456,,701237 INTO THE AC
 39760						STOP^
 39761	055427	254 04 0 00 055430 		HALT	.+1		;TEST FAILED IF PROGRAM HALTS HERE
 39762	055430	324 00 0 00 055431 		JUMPA	.+1		;IF TEST FAILS, CHANGE THIS INSTRUCTION (JUMPA .+1) TO
 39763									;JUMPA X (X IS THE ADDRESS OF THE FIRST INSTRUCTION
 39764									;IN THE SUBTEST) TO LOOP ON ERROR^
 39765	055431	312 07 0 00 070776 		CAME	7,[123456,,701237]	;PASS IF C(AC)=123456,,701237
 39766						STOP^
 39767	055432	254 04 0 00 055433 		HALT	.+1		;TEST FAILED IF PROGRAM HALTS HERE
 39768	055433	324 00 0 00 055434 		JUMPA	.+1		;IF TEST FAILS, CHANGE THIS INSTRUCTION (JUMPA .+1) TO
 39769									;JUMPA X (X IS THE ADDRESS OF THE FIRST INSTRUCTION
 39770									;IN THE SUBTEST) TO LOOP ON ERROR^
 39771
 39772					;**********
 39773
 39774					;THIS TEST VERIFIES THAT TRCA ALWAYS SKIPS THE NEXT SEQUENTIAL INSTRUCTION
 39775					;AND COMPLEMENTS ALL BITS IN AC-RIGHT WHICH CORRESPOND TO 1'S IN E
 39776					;IN THIS CASE, C(AC)=123456,,701234 AND E=300
 39777					;HENCE, TRCA SHOULD SKIP THE NEXT INSTRUCTION AND THE RESULT IN
 39778					;THE AC SHOULD BE 123456,,701134
 39779
 39780	055434	200 06 0 00 070745 	C73110:	MOVE	6,[123456,,701234]	;PRELOAD AC WITH 123456,,701234
 39781	055435	644 06 0 00 000300 		TRCA	6,300			;*TRCA SHOULD SKIP AND
 39782										;PLACE 123456,,701134 INTO THE AC
 39783						STOP^
 39784	055436	254 04 0 00 055437 		HALT	.+1		;TEST FAILED IF PROGRAM HALTS HERE
 39785	055437	324 00 0 00 055440 		JUMPA	.+1		;IF TEST FAILS, CHANGE THIS INSTRUCTION (JUMPA .+1) TO
 39786									;JUMPA X (X IS THE ADDRESS OF THE FIRST INSTRUCTION
 39787									;IN THE SUBTEST) TO LOOP ON ERROR^
 39788	055440	312 06 0 00 070777 		CAME	6,[123456,,701134]	;PASS IF C(AC)=123456,,701134
 39789						STOP^
 39790	055441	254 04 0 00 055442 		HALT	.+1		;TEST FAILED IF PROGRAM HALTS HERE
 39791	055442	324 00 0 00 055443 		JUMPA	.+1		;IF TEST FAILS, CHANGE THIS INSTRUCTION (JUMPA .+1) TO
 39792									;JUMPA X (X IS THE ADDRESS OF THE FIRST INSTRUCTION
 39793									;IN THE SUBTEST) TO LOOP ON ERROR^
 39794
 39795					;**********
DFKAA PDP-10 KL10 BASIC INSTRUCTION DIAGNOSTIC (1) VER 0,2	MACRO %52(537) 09:34 31-JAN-77 PAGE 78
DFKAA6	MAC	25-AUG-75 14:01		TEST OF MSCL LOGICAL TEST INSTRUCTIONS                                             SEQ 0915

 39796					;THIS TEST VERIFIES THAT TLCA ALWAYS SKIPS THE NEXT SEQUENTIAL INSTRUCTION
 39797					;AND COMPLEMENTS ALL BITS IN AC-LEFT WHICH CORRESPOND TO 1'S IN E
 39798					;IN THIS CASE, C(AC)=123456,,701234 AND E=3
 39799					;HENCE, TLCA SHOULD SKIP THE NEXT INSTRUCTION AND THE RESULT IN
 39800					;THE AC SHOULD 123456,,701234
 39801
 39802	055443	200 05 0 00 070745 	C73200:	MOVE	5,[123456,,701234]	;PRELOAD AC WITH 123456,,701234
 39803	055444	645 05 0 00 000003 		TLCA	5,3			;*TLCA SHOULD SKIP AND
 39804										;PLACE 12345,,701234 INTO THE AC
 39805						STOP^
 39806	055445	254 04 0 00 055446 		HALT	.+1		;TEST FAILED IF PROGRAM HALTS HERE
 39807	055446	324 00 0 00 055447 		JUMPA	.+1		;IF TEST FAILS, CHANGE THIS INSTRUCTION (JUMPA .+1) TO
 39808									;JUMPA X (X IS THE ADDRESS OF THE FIRST INSTRUCTION
 39809									;IN THE SUBTEST) TO LOOP ON ERROR^
 39810	055447	312 05 0 00 071001 		CAME	5,[123455,,701234]	;PASS IF C(AC)=123455,,701234
 39811						STOP^
 39812	055450	254 04 0 00 055451 		HALT	.+1		;TEST FAILED IF PROGRAM HALTS HERE
 39813	055451	324 00 0 00 055452 		JUMPA	.+1		;IF TEST FAILS, CHANGE THIS INSTRUCTION (JUMPA .+1) TO
 39814									;JUMPA X (X IS THE ADDRESS OF THE FIRST INSTRUCTION
 39815									;IN THE SUBTEST) TO LOOP ON ERROR^
 39816
 39817					;**********
 39818
 39819					;THIS TEST VERIFIES THAT TLCA ALWAYS SKIPS THE NEXT SEQUENTIAL INSTRUCTION
 39820					;AND COMPLEMENTS ALL BITS IN AC-LEFT WHICH CORRESPOND TO 1'S IN E
 39821					;IN THIS CASE, C(AC)=123456,,701234 AND E=300
 39822					;HENCE, TLCA SHOULD SKIP THE NEXT INSTRUCTION AND THE RESULT IN
 39823					;THE AC SHOULD BE 123756,,701234
 39824
 39825	055452	200 04 0 00 070745 	C73210:	MOVE	4,[123456,,701234]	;PRELOAD AC WITH 123456,,701234
 39826	055453	645 04 0 00 000300 		TLCA	4,300			;*TLCA SHOULD SKIP AND
 39827										;PLACE 123756,,701234 INTO THE AC
 39828						STOP^
 39829	055454	254 04 0 00 055455 		HALT	.+1		;TEST FAILED IF PROGRAM HALTS HERE
 39830	055455	324 00 0 00 055456 		JUMPA	.+1		;IF TEST FAILS, CHANGE THIS INSTRUCTION (JUMPA .+1) TO
 39831									;JUMPA X (X IS THE ADDRESS OF THE FIRST INSTRUCTION
 39832									;IN THE SUBTEST) TO LOOP ON ERROR^
 39833	055456	312 04 0 00 071000 		CAME	4,[123756,,701234]	;PASS IF C(AC)=123756,,701234
 39834						STOP^
 39835	055457	254 04 0 00 055460 		HALT	.+1		;TEST FAILED IF PROGRAM HALTS HERE
 39836	055460	324 00 0 00 055461 		JUMPA	.+1		;IF TEST FAILS, CHANGE THIS INSTRUCTION (JUMPA .+1) TO
 39837									;JUMPA X (X IS THE ADDRESS OF THE FIRST INSTRUCTION
 39838									;IN THE SUBTEST) TO LOOP ON ERROR^
 39839
 39840					;**********
DFKAA PDP-10 KL10 BASIC INSTRUCTION DIAGNOSTIC (1) VER 0,2	MACRO %52(537) 09:34 31-JAN-77 PAGE 79
DFKAA6	MAC	25-AUG-75 14:01		TEST OF MSCL LOGICAL TEST INSTRUCTIONS                                             SEQ 0916

 39841					;THIS TEST VERIFIES THAT TRCN SKIPS THE NEXT SEQUENTIAL INSTRUCTION
 39842					;IF AND ONLY IF NOT ALL BITS IN AC-RIGHT CORRESPONDING TO 1'S IN E ARE ZERO.
 39843					;THESE MASKED AC BITS ARE THEN COMPLEMENTED
 39844					;IN THIS CASE, C(AC)=123456,,701234 AND E=300
 39845					;HENCE, TRCN SHOULD SKIP THE NEXT SEQUENTIAL INSTRUCTION
 39846					;AND RESULT IN THE AC SHOULD BE 123456,,701134
 39847
 39848	055461	200 03 0 00 070745 	C73300:	MOVE	3,[123456,,701234]	;PRELOAD AC WITH 123456,,701234
 39849	055462	646 03 0 00 000300 		TRCN	3,300			;*SHOULD SKIP AND
 39850										;PLACE 123456,,701134 INTO THE AC
 39851						STOP^
 39852	055463	254 04 0 00 055464 		HALT	.+1		;TEST FAILED IF PROGRAM HALTS HERE
 39853	055464	324 00 0 00 055465 		JUMPA	.+1		;IF TEST FAILS, CHANGE THIS INSTRUCTION (JUMPA .+1) TO
 39854									;JUMPA X (X IS THE ADDRESS OF THE FIRST INSTRUCTION
 39855									;IN THE SUBTEST) TO LOOP ON ERROR^
 39856	055465	312 03 0 00 070777 		CAME	3,[123456,,701134]	;PASS IF C(AC)=123456,,701134
 39857						STOP^
 39858	055466	254 04 0 00 055467 		HALT	.+1		;TEST FAILED IF PROGRAM HALTS HERE
 39859	055467	324 00 0 00 055470 		JUMPA	.+1		;IF TEST FAILS, CHANGE THIS INSTRUCTION (JUMPA .+1) TO
 39860									;JUMPA X (X IS THE ADDRESS OF THE FIRST INSTRUCTION
 39861									;IN THE SUBTEST) TO LOOP ON ERROR^
 39862
 39863					;**********
 39864
 39865					;THIS TEST VERIFIES THAT TRCN SKIPS THE NEXT SEQUENTIAL INSTRUCTION
 39866					;IF AND ONLY IF NOT ALL BITS IN AC-RIGHT CORRESPONDING TO 1'S IN E ARE ZERO.
 39867					;THESE MASKED AC BITS ARE THEN COMPLEMENTED
 39868					;IN THIS CASE, C(AC)=123456,,701234 AND E=3
 39869					;HENCE, TRCN SHOULD NOT SKIP THE NEXT SEQUENTIAL INSTRUCTION
 39870					;AND THE RESULT IN THE AC SHOULD BE 123456,,701237
 39871
 39872	055470	200 02 0 00 070745 	C73310:	MOVE	2,[123456,,701234]	;PRELOAD AC WITH 123456,,701234
 39873	055471	646 02 0 00 000003 		TRCN	2,3			;*TRCN SHOULD NOT SKIP AND
 39874										;PLACE 123456,,701237 INTO THE AC
 39875	055472	334 00 0 00 000000 		SKIPA				;PASS IF TRCN DID NOT SKIP
 39876						STOP^
 39877	055473	254 04 0 00 055474 		HALT	.+1		;TEST FAILED IF PROGRAM HALTS HERE
 39878	055474	324 00 0 00 055475 		JUMPA	.+1		;IF TEST FAILS, CHANGE THIS INSTRUCTION (JUMPA .+1) TO
 39879									;JUMPA X (X IS THE ADDRESS OF THE FIRST INSTRUCTION
 39880									;IN THE SUBTEST) TO LOOP ON ERROR^
 39881	055475	312 02 0 00 070776 		CAME	2,[123456,,701237]	;PASS IF C(AC)=123456,,701237
 39882						STOP^
 39883	055476	254 04 0 00 055477 		HALT	.+1		;TEST FAILED IF PROGRAM HALTS HERE
 39884	055477	324 00 0 00 055500 		JUMPA	.+1		;IF TEST FAILS, CHANGE THIS INSTRUCTION (JUMPA .+1) TO
 39885									;JUMPA X (X IS THE ADDRESS OF THE FIRST INSTRUCTION
 39886									;IN THE SUBTEST) TO LOOP ON ERROR^
 39887
 39888					;**********
DFKAA PDP-10 KL10 BASIC INSTRUCTION DIAGNOSTIC (1) VER 0,2	MACRO %52(537) 09:34 31-JAN-77 PAGE 80
DFKAA6	MAC	25-AUG-75 14:01		TEST OF MSCL LOGICAL TEST INSTRUCTIONS                                             SEQ 0917

 39889					;THIS TEST VERIFIES THAT TLCN SKIPS THE NEXT SEQUENTIAL INSTRUCTION
 39890					;IF AND ONLY IF NOT ALL BITS IN AC-LEFT CORRESPONDING TO 1'S IN E ARE ZERO.
 39891					;THESE MASKED AC BITS ARE THEN COMPLEMENTED
 39892					;IN THE CASE, C(AC)=123456,,701234 AND E=3
 39893					;HENCE, TLCN SHOULD SKIP THE NEXT SEQUENTIAL INSTRUCTION
 39894					;AND THE RESULT IN THE AC SHOULD BE 123456,,701234
 39895
 39896	055500	200 01 0 00 070745 	C73400:	MOVE	1,[123456,,701234]	;PRELOAD AC WITH 123456,,701234
 39897	055501	647 01 0 00 000003 		TLCN	1,3			;*TLCN SHOULD SKIP AND
 39898										;PLACE 123455,701234 INTO THE AC
 39899						STOP^
 39900	055502	254 04 0 00 055503 		HALT	.+1		;TEST FAILED IF PROGRAM HALTS HERE
 39901	055503	324 00 0 00 055504 		JUMPA	.+1		;IF TEST FAILS, CHANGE THIS INSTRUCTION (JUMPA .+1) TO
 39902									;JUMPA X (X IS THE ADDRESS OF THE FIRST INSTRUCTION
 39903									;IN THE SUBTEST) TO LOOP ON ERROR^
 39904	055504	312 01 0 00 071001 		CAME	1,[123455,,701234]	;PASS IF C(AC)=123455,,701234
 39905						STOP^
 39906	055505	254 04 0 00 055506 		HALT	.+1		;TEST FAILED IF PROGRAM HALTS HERE
 39907	055506	324 00 0 00 055507 		JUMPA	.+1		;IF TEST FAILS, CHANGE THIS INSTRUCTION (JUMPA .+1) TO
 39908									;JUMPA X (X IS THE ADDRESS OF THE FIRST INSTRUCTION
 39909									;IN THE SUBTEST) TO LOOP ON ERROR^
 39910
 39911					;**********
 39912
 39913					;THIS TEST VERIFIES THAT TLCN SKIPS THE NEXT SEQUENTIAL INSTRUCTION
 39914					;IF AND ONLY IF NOT ALL BITS IN AC-LEFT CORRESPONDING TO 1'S IN E ARE ZER.
 39915					;THESE MASKED AC BITS ARE THEN COMPLEMENTED
 39916					;IN THIS CASE, C(AC)=123456,,701234 AND E=300
 39917					;HENCE, TLCN SHOULD NOT SKIP THE NEXT SEQUENTIAL INSTRUCTION
 39918					;AND THE RESULT IN THE AC SHOULD BE 123756,,701234
 39919
 39920	055507	200 00 0 00 070745 	C73410:	MOVE	0,[123456,,701234]	;PRELOAD AC WITH 123456,,701234
 39921	055510	647 00 0 00 000300 		TLCN	0,300			;*TLCN SHOULD NOT SKIP AND
 39922										;PLACE 123756,,701234 INTO THE AC
 39923	055511	334 00 0 00 000000 		SKIPA				;PASS IF TLCN DID NOT SKIP
 39924						STOP^
 39925	055512	254 04 0 00 055513 		HALT	.+1		;TEST FAILED IF PROGRAM HALTS HERE
 39926	055513	324 00 0 00 055514 		JUMPA	.+1		;IF TEST FAILS, CHANGE THIS INSTRUCTION (JUMPA .+1) TO
 39927									;JUMPA X (X IS THE ADDRESS OF THE FIRST INSTRUCTION
 39928									;IN THE SUBTEST) TO LOOP ON ERROR^
 39929	055514	312 00 0 00 071000 		CAME	0,[123756,,701234]	;PASS IF C(AC)=123756,,701234
 39930						STOP^
 39931	055515	254 04 0 00 055516 		HALT	.+1		;TEST FAILED IF PROGRAM HALTS HERE
 39932	055516	324 00 0 00 055517 		JUMPA	.+1		;IF TEST FAILS, CHANGE THIS INSTRUCTION (JUMPA .+1) TO
 39933									;JUMPA X (X IS THE ADDRESS OF THE FIRST INSTRUCTION
 39934									;IN THE SUBTEST) TO LOOP ON ERROR^
 39935
 39936					;**********
DFKAA PDP-10 KL10 BASIC INSTRUCTION DIAGNOSTIC (1) VER 0,2	MACRO %52(537) 09:34 31-JAN-77 PAGE 81
DFKAA6	MAC	25-AUG-75 14:01		TEST OF MSCL LOGICAL TEST INSTRUCTIONS                                             SEQ 0918

 39937					;THIS TEST VERIFIES THAT TSL COMPLEMENTS ALL BITS OF THE AC WHICH
 39938					;CORRESPOND TO 1'S IN C(E) WITH BOTH HALVES SWAPPED AND DOES
 39939					;NOT SKIP THE NEXT INSTRUCTION.  C(E) IS NOT AFFECTED
 39940					;IN THIS CASE, C(AC)=123456,,701234 AND C(E)6543,,654321
 39941					;HENCE, TSC SHOULD NOT SKIP AND C(AC) SHOULD BE -1,,-1
 39942
 39943	055517	200 17 0 00 070745 	C73500:	MOVE	17,[123456,,701234]	;PRELOAD AC WITH 123456,,701234
 39944	055520	200 00 0 00 070754 		MOVE	0,[076543,,654321]	;PRELOAD E WITH 076543,,654321
 39945	055521	651 17 0 00 000000 		TSC	17,0			;*TSC SHOULD NOT SKIP AND
 39946										;PLACE -1,,-1 INTO THE AC
 39947	055522	334 00 0 00 000000 		SKIPA				;PASS IF TSC DOES NOT SKIP
 39948						STOP^
 39949	055523	254 04 0 00 055524 		HALT	.+1		;TEST FAILED IF PROGRAM HALTS HERE
 39950	055524	324 00 0 00 055525 		JUMPA	.+1		;IF TEST FAILS, CHANGE THIS INSTRUCTION (JUMPA .+1) TO
 39951									;JUMPA X (X IS THE ADDRESS OF THE FIRST INSTRUCTION
 39952									;IN THE SUBTEST) TO LOOP ON ERROR^
 39953	055525	312 17 0 00 070254 		CAME	17,[-1]			;PASS IF C(AC)=-1,,-1
 39954						STOP^
 39955	055526	254 04 0 00 055527 		HALT	.+1		;TEST FAILED IF PROGRAM HALTS HERE
 39956	055527	324 00 0 00 055530 		JUMPA	.+1		;IF TEST FAILS, CHANGE THIS INSTRUCTION (JUMPA .+1) TO
 39957									;JUMPA X (X IS THE ADDRESS OF THE FIRST INSTRUCTION
 39958									;IN THE SUBTEST) TO LOOP ON ERROR^
 39959	055530	312 00 0 00 070754 		CAME	0,[076543,,654321]	;PASS IF C(E) UNCHANGED
 39960						STOP^
 39961	055531	254 04 0 00 055532 		HALT	.+1		;TEST FAILED IF PROGRAM HALTS HERE
 39962	055532	324 00 0 00 055533 		JUMPA	.+1		;IF TEST FAILS, CHANGE THIS INSTRUCTION (JUMPA .+1) TO
 39963									;JUMPA X (X IS THE ADDRESS OF THE FIRST INSTRUCTION
 39964									;IN THE SUBTEST) TO LOOP ON ERROR^
 39965
 39966					;**********
 39967
 39968					;THIS TEST VERIFIES THAT TSC COMPLEMENTS ALL BITS OF THE AC WHICH
 39969					;CORRESPOND TO 1'S IN C(E) WITH BOTH HALVES SWAPPED AND DOES
 39970					;NOT SKIP THE NEXT INSTRUCTION.  C(E) IS NOT AFFECTED
 39971					;IN THIS CASE, C(AC)=123456,,701234 AND C(E)=252525,,707070
 39972					;HENCE, TSC SHOULD NOT SKIP AND C(AC) SHOULD BE 624426,,553711
 39973
 39974	055533	200 16 0 00 070745 	C73510:	MOVE	16,[123456,,701234]	;PRELOAD AC WITH 123456,,701234
 39975	055534	200 17 0 00 070761 		MOVE	17,[252525,,707070]	;PRELOAD E WITH 252525,,707070
 39976	055535	651 16 0 00 000017 		TSC	16,17			;*TSC SHOULD NOT SKIP AND
 39977										;PLACE 624426,,553711 INTO THE AC
 39978	055536	334 00 0 00 000000 		SKIPA				;PASS IF TSC DOES NOT SKIP
 39979						STOP^
 39980	055537	254 04 0 00 055540 		HALT	.+1		;TEST FAILED IF PROGRAM HALTS HERE
 39981	055540	324 00 0 00 055541 		JUMPA	.+1		;IF TEST FAILS, CHANGE THIS INSTRUCTION (JUMPA .+1) TO
 39982									;JUMPA X (X IS THE ADDRESS OF THE FIRST INSTRUCTION
 39983									;IN THE SUBTEST) TO LOOP ON ERROR^
 39984	055541	312 16 0 00 071002 		CAME	16,[624426,,553711]	;PASS IF C(AC)=624426,,553711
 39985						STOP^
 39986	055542	254 04 0 00 055543 		HALT	.+1		;TEST FAILED IF PROGRAM HALTS HERE
 39987	055543	324 00 0 00 055544 		JUMPA	.+1		;IF TEST FAILS, CHANGE THIS INSTRUCTION (JUMPA .+1) TO
 39988									;JUMPA X (X IS THE ADDRESS OF THE FIRST INSTRUCTION
 39989									;IN THE SUBTEST) TO LOOP ON ERROR^
 39990	055544	312 17 0 00 070761 		CAME	17,[252525,,707070]	;PASS IF C(E) UNCHANGED
 39991						STOP^
DFKAA PDP-10 KL10 BASIC INSTRUCTION DIAGNOSTIC (1) VER 0,2	MACRO %52(537) 09:34 31-JAN-77 PAGE 81-1
DFKAA6	MAC	25-AUG-75 14:01		TEST OF MSCL LOGICAL TEST INSTRUCTIONS                                             SEQ 0919

 39992	055545	254 04 0 00 055546 		HALT	.+1		;TEST FAILED IF PROGRAM HALTS HERE
 39993	055546	324 00 0 00 055547 		JUMPA	.+1		;IF TEST FAILS, CHANGE THIS INSTRUCTION (JUMPA .+1) TO
 39994									;JUMPA X (X IS THE ADDRESS OF THE FIRST INSTRUCTION
 39995									;IN THE SUBTEST) TO LOOP ON ERROR^
 39996
 39997					;**********
DFKAA PDP-10 KL10 BASIC INSTRUCTION DIAGNOSTIC (1) VER 0,2	MACRO %52(537) 09:34 31-JAN-77 PAGE 82
DFKAA6	MAC	25-AUG-75 14:01		TEST OF MSCL LOGICAL TEST INSTRUCTIONS                                             SEQ 0920

 39998					;THIS TEST VERIFIES THAT TDCE SKIPS THE NEXT SEQUENTIAL INSTRUCTION
 39999					;IF AND ONLY IF ALL BITS IN THE AC CORRESPONDING TO 1'S IN
 40000					;C(E) ARE ZERO.  THESE MASKED
 40001					;AC BITS ARE THEN COMPLEMENTED
 40002					;IN THIS CASE, C(AC)=123456,,701234 AND C(E)=654321,,076543
 40003					;HENCE, TDCE SHOULD SKIP AND THE RESULT IN AC
 40004					;SHOULD BE -1,,-1 C(E) IS NOT AFFECTED
 40005
 40006	055547	200 15 0 00 070745 	C73600:	MOVE	15,[123456,,701234]	;PRELOAD AC WITH 123456,,701234
 40007	055550	200 16 0 00 070763 		MOVE	16,[654321,,076543]	;PRELOAD E WITH 654321,,076543
 40008	055551	652 15 0 00 000016 		TDCE	15,16			;*TDCE SHOULD SKIP AND
 40009										;PLACE -1,,-1 INTO THE AC
 40010						STOP^
 40011	055552	254 04 0 00 055553 		HALT	.+1		;TEST FAILED IF PROGRAM HALTS HERE
 40012	055553	324 00 0 00 055554 		JUMPA	.+1		;IF TEST FAILS, CHANGE THIS INSTRUCTION (JUMPA .+1) TO
 40013									;JUMPA X (X IS THE ADDRESS OF THE FIRST INSTRUCTION
 40014									;IN THE SUBTEST) TO LOOP ON ERROR^
 40015	055554	312 15 0 00 070254 		CAME	15,[-1]			;PASS IF C(AC)=-1,,-1
 40016						STOP^
 40017	055555	254 04 0 00 055556 		HALT	.+1		;TEST FAILED IF PROGRAM HALTS HERE
 40018	055556	324 00 0 00 055557 		JUMPA	.+1		;IF TEST FAILS, CHANGE THIS INSTRUCTION (JUMPA .+1) TO
 40019									;JUMPA X (X IS THE ADDRESS OF THE FIRST INSTRUCTION
 40020									;IN THE SUBTEST) TO LOOP ON ERROR^
 40021	055557	312 16 0 00 070763 		CAME	16,[654321,,076543]	;PASS IF C(E) UNCHANGED
 40022						STOP^
 40023	055560	254 04 0 00 055561 		HALT	.+1		;TEST FAILED IF PROGRAM HALTS HERE
 40024	055561	324 00 0 00 055562 		JUMPA	.+1		;IF TEST FAILS, CHANGE THIS INSTRUCTION (JUMPA .+1) TO
 40025									;JUMPA X (X IS THE ADDRESS OF THE FIRST INSTRUCTION
 40026									;IN THE SUBTEST) TO LOOP ON ERROR^
 40027
 40028					;**********
 40029
 40030					;THIS TEST VERIFIES THAT TDCE SKIPS THE NEXT SEQUENTIAL INSTRUCTION
 40031					;IF AND ONLY IF ALL BITS IN THE AC CORRESPONDING TO 1'S IN
 40032					;C(E) ARE ZERO.  THESE MASKED
 40033					;AC BITS ARE THEN COMPLEMENTED
 40034					;IN THIS CASE, C(AC)=123456,,701234 AND C(E) 754321,,076543
 40035					;HENCE, TDCE SHOULD NOT SKIP AND THE RESULT IN AC
 40036					;SHOULD BE 677777,,-1 C(E) IS NOT AFFECTED.
 40037
 40038	055562	200 14 0 00 070745 	C73610:	MOVE	14,[123456,,701234]	;PRELOAD AC WITH 123456,,701234
 40039	055563	200 15 0 00 070764 		MOVE	15,[754321,,076543]	;PRELOAD E WITH 754321,,076543
 40040	055564	652 14 0 00 000015 		TDCE	14,15			;*TDCE SHOULD NOT SKIP AND
 40041										;PLACE 677777,,-1 INTO THE AC
 40042	055565	334 00 0 00 000000 		SKIPA				;PASS IF TDCE DOES NOT SKIP
 40043						STOP^
 40044	055566	254 04 0 00 055567 		HALT	.+1		;TEST FAILED IF PROGRAM HALTS HERE
 40045	055567	324 00 0 00 055570 		JUMPA	.+1		;IF TEST FAILS, CHANGE THIS INSTRUCTION (JUMPA .+1) TO
 40046									;JUMPA X (X IS THE ADDRESS OF THE FIRST INSTRUCTION
 40047									;IN THE SUBTEST) TO LOOP ON ERROR^
 40048	055570	312 14 0 00 070374 		CAME	14,[677777,,-1]		;PASS IF C(AC)=677777,,-1
 40049						STOP^
 40050	055571	254 04 0 00 055572 		HALT	.+1		;TEST FAILED IF PROGRAM HALTS HERE
 40051	055572	324 00 0 00 055573 		JUMPA	.+1		;IF TEST FAILS, CHANGE THIS INSTRUCTION (JUMPA .+1) TO
 40052									;JUMPA X (X IS THE ADDRESS OF THE FIRST INSTRUCTION
DFKAA PDP-10 KL10 BASIC INSTRUCTION DIAGNOSTIC (1) VER 0,2	MACRO %52(537) 09:34 31-JAN-77 PAGE 82-1
DFKAA6	MAC	25-AUG-75 14:01		TEST OF MSCL LOGICAL TEST INSTRUCTIONS                                             SEQ 0921

 40053									;IN THE SUBTEST) TO LOOP ON ERROR^
 40054	055573	312 15 0 00 070764 		CAME	15,[754321,,076543]	;PASS IF C(E) UNCHANGED
 40055						STOP^
 40056	055574	254 04 0 00 055575 		HALT	.+1		;TEST FAILED IF PROGRAM HALTS HERE
 40057	055575	324 00 0 00 055576 		JUMPA	.+1		;IF TEST FAILS, CHANGE THIS INSTRUCTION (JUMPA .+1) TO
 40058									;JUMPA X (X IS THE ADDRESS OF THE FIRST INSTRUCTION
 40059									;IN THE SUBTEST) TO LOOP ON ERROR^
 40060
 40061					;**********
DFKAA PDP-10 KL10 BASIC INSTRUCTION DIAGNOSTIC (1) VER 0,2	MACRO %52(537) 09:34 31-JAN-77 PAGE 83
DFKAA6	MAC	25-AUG-75 14:01		TEST OF MSCL LOGICAL TEST INSTRUCTIONS                                             SEQ 0922

 40062					;THIS TEST VERIFIES THAT TSCE SKIPS THE NEXT SEQUENTIAL INSTRUCTION
 40063					;IF AND ONLY IF ALL BITS IN THE AC CORRESPONDING TO 1'S IN
 40064					;C(E) WITH BOTH HALVES SWAPPED ARE ZERO.  THESE MASKED
 40065					;AC BITS ARE THEN COMPLEMENTED
 40066					;IN THIS CASE, C(AC)=123456,,701234 AND C(E)=076543,,654321
 40067					;HENCE, TSCE SHOULD SKIP AND THE RESULT IN THE AC
 40068					;SHOULD BE -1,,-1 C(E) IS NOT AFFECTED
 40069
 40070	055576	200 13 0 00 070745 	C73700:	MOVE	13,[123456,,701234]	;PRELOAD AC WITH 123456,,701234
 40071	055577	200 14 0 00 070754 		MOVE	14,[76543,,654321]	;PRELOAD E WITH 076543,,654321
 40072	055600	653 13 0 00 000014 		TSCE	13,14			;*TSCE SHOULD SKIP AND
 40073										;PLACE -1,,-1 INTO THE AC
 40074						STOP^
 40075	055601	254 04 0 00 055602 		HALT	.+1		;TEST FAILED IF PROGRAM HALTS HERE
 40076	055602	324 00 0 00 055603 		JUMPA	.+1		;IF TEST FAILS, CHANGE THIS INSTRUCTION (JUMPA .+1) TO
 40077									;JUMPA X (X IS THE ADDRESS OF THE FIRST INSTRUCTION
 40078									;IN THE SUBTEST) TO LOOP ON ERROR^
 40079	055603	312 13 0 00 070254 		CAME 	13,[-1]			;PASS IF C(E) UNCHANGED
 40080						STOP^
 40081	055604	254 04 0 00 055605 		HALT	.+1		;TEST FAILED IF PROGRAM HALTS HERE
 40082	055605	324 00 0 00 055606 		JUMPA	.+1		;IF TEST FAILS, CHANGE THIS INSTRUCTION (JUMPA .+1) TO
 40083									;JUMPA X (X IS THE ADDRESS OF THE FIRST INSTRUCTION
 40084									;IN THE SUBTEST) TO LOOP ON ERROR^
 40085
 40086					;**********
 40087
 40088					;THIS TEST VERIFIES THAT TSCE SKIPS THE NEXT SEQUENTIAL INSTRUCTION
 40089					;IF AND ONLY IF ALL BITS IN THE AC CORRESPONDING TO 1'S IN
 40090					;C(E) WITH BOTH HALVES SWAPPED ARE ZERO.  THESE MASKED
 40091					;AC BITS ARE THEN COMPLEMENTED
 40092					;IN THIS CASE, C(AC)=123456,701234 AND C(E)=076543,,657321
 40093					;HENCE, TSCE SHOULD NOT SKIP AND THE RESULT IN THE AC
 40094					;SHOULD BE 774777,,-1.  C(E) IS NOT AFFECTED.
 40095
 40096	055606	200 12 0 00 070745 	C73710:	MOVE	12,[123456,,701234]	;PRELOAD AC WITH 123456,,701234
 40097	055607	200 13 0 00 070766 		MOVE	13,[76543,,657321]	;PRELOAD E WITH 076543,,657321
 40098	055610	653 12 0 00 000013 		TSCE	12,13			;*TSCE HOULD NOT SKIP AND
 40099										;PLACE 774777,,-1 INTO THE AC
 40100	055611	334 00 0 00 000000 		SKIPA				;PASS IF TSCE DOES NOT SKIP
 40101						STOP^
 40102	055612	254 04 0 00 055613 		HALT	.+1		;TEST FAILED IF PROGRAM HALTS HERE
 40103	055613	324 00 0 00 055614 		JUMPA	.+1		;IF TEST FAILS, CHANGE THIS INSTRUCTION (JUMPA .+1) TO
 40104									;JUMPA X (X IS THE ADDRESS OF THE FIRST INSTRUCTION
 40105									;IN THE SUBTEST) TO LOOP ON ERROR^
 40106	055614	312 12 0 00 071003 		CAME	12,[774777,,-1]		;PASS IF C(AC)=774777,,-1
 40107						STOP^
 40108	055615	254 04 0 00 055616 		HALT	.+1		;TEST FAILED IF PROGRAM HALTS HERE
 40109	055616	324 00 0 00 055617 		JUMPA	.+1		;IF TEST FAILS, CHANGE THIS INSTRUCTION (JUMPA .+1) TO
 40110									;JUMPA X (X IS THE ADDRESS OF THE FIRST INSTRUCTION
 40111									;IN THE SUBTEST) TO LOOP ON ERROR^
 40112	055617	312 13 0 00 070766 		CAME	13,[76543,,657321]	;PASS IF C(E) UNCHANGED
 40113						STOP^
 40114	055620	254 04 0 00 055621 		HALT	.+1		;TEST FAILED IF PROGRAM HALTS HERE
 40115	055621	324 00 0 00 055622 		JUMPA	.+1		;IF TEST FAILS, CHANGE THIS INSTRUCTION (JUMPA .+1) TO
 40116									;JUMPA X (X IS THE ADDRESS OF THE FIRST INSTRUCTION
DFKAA PDP-10 KL10 BASIC INSTRUCTION DIAGNOSTIC (1) VER 0,2	MACRO %52(537) 09:34 31-JAN-77 PAGE 83-1
DFKAA6	MAC	25-AUG-75 14:01		TEST OF MSCL LOGICAL TEST INSTRUCTIONS                                             SEQ 0923

 40117									;IN THE SUBTEST) TO LOOP ON ERROR^
 40118
 40119					;**********
DFKAA PDP-10 KL10 BASIC INSTRUCTION DIAGNOSTIC (1) VER 0,2	MACRO %52(537) 09:34 31-JAN-77 PAGE 84
DFKAA6	MAC	25-AUG-75 14:01		TEST OF MSCL LOGICAL TEST INSTRUCTIONS                                             SEQ 0924

 40120					;THIS TEST VERIFIES THAT TDCA COMPLEMENTS ALL BITS OF THE AC WHICH
 40121					;CORRESPOND TO 1'S IN C(E) AND ALWAYS
 40122					;SKIPS THE NEXT INSTRUCTION.  C(E) IS NOT AFFECTED
 40123					;IN THIS CASE, C(AC)=123456,,701234 AND C(E)=654321,,076543
 40124					;HENCE, TDCA SHOULD ALWAYS SKIP AND C(AC) SHOULD BE -1,,-1
 40125
 40126	055622	200 11 0 00 070745 	C74000:	MOVE	11,[123456,,701234]	;PRELOAD AC WITH 123456,,701234
 40127	055623	200 12 0 00 070763 		MOVE	12,[654321,,076543]	;PRELOAD E WITH 654321,,076543
 40128	055624	654 11 0 00 000012 		TDCA	11,12			;*TDCA SHOULD SKIP AND
 40129										;PLACE -1,,-1 INTO THE AC
 40130						STOP^
 40131	055625	254 04 0 00 055626 		HALT	.+1		;TEST FAILED IF PROGRAM HALTS HERE
 40132	055626	324 00 0 00 055627 		JUMPA	.+1		;IF TEST FAILS, CHANGE THIS INSTRUCTION (JUMPA .+1) TO
 40133									;JUMPA X (X IS THE ADDRESS OF THE FIRST INSTRUCTION
 40134									;IN THE SUBTEST) TO LOOP ON ERROR^
 40135	055627	312 11 0 00 070254 		CAME	11,[-1]			;PASS IF C(AC)=-1,,-1
 40136						STOP^
 40137	055630	254 04 0 00 055631 		HALT	.+1		;TEST FAILED IF PROGRAM HALTS HERE
 40138	055631	324 00 0 00 055632 		JUMPA	.+1		;IF TEST FAILS, CHANGE THIS INSTRUCTION (JUMPA .+1) TO
 40139									;JUMPA X (X IS THE ADDRESS OF THE FIRST INSTRUCTION
 40140									;IN THE SUBTEST) TO LOOP ON ERROR^
 40141	055632	312 12 0 00 070763 		CAME	12,[654321,,76543]	;PASS IF C(E) UNCHANGED
 40142						STOP^
 40143	055633	254 04 0 00 055634 		HALT	.+1		;TEST FAILED IF PROGRAM HALTS HERE
 40144	055634	324 00 0 00 055635 		JUMPA	.+1		;IF TEST FAILS, CHANGE THIS INSTRUCTION (JUMPA .+1) TO
 40145									;JUMPA X (X IS THE ADDRESS OF THE FIRST INSTRUCTION
 40146									;IN THE SUBTEST) TO LOOP ON ERROR^
 40147
 40148					;**********
 40149
 40150					;THIS TEST VERIFIES THAT TDCA COMPLEMENTS ALL BITS OF THE AC WHICH
 40151					;CORRESPOND TO 1'S IN C(E) AND SLWAYS
 40152					;SKIPS THE NEXT INSTRUCTION C(E) IS NOT AFFECTED
 40153					;IN THIS CASE, C(AC)=123456,,701234 AND C(E)=252525,,707070
 40154					;HENCE, TDCA SHOULD ALWAYS SKIP AND C(AC) SHOULD BE 371173,,006244
 40155
 40156	055635	200 10 0 00 070745 	C74100:	MOVE	10,[123456,,701234]	;PRELOAD AC WITH 123456,,701234
 40157	055636	200 11 0 00 070761 		MOVE	11,[252525,,707070]	;PRELOAD E WITH 252525,,707070
 40158	055637	654 10 0 00 000011 		TDCA	10,11			;*TDCA SHOULD SKP AND
 40159										;PLACE 371173,,006244 INTO THE AC
 40160						STOP^
 40161	055640	254 04 0 00 055641 		HALT	.+1		;TEST FAILED IF PROGRAM HALTS HERE
 40162	055641	324 00 0 00 055642 		JUMPA	.+1		;IF TEST FAILS, CHANGE THIS INSTRUCTION (JUMPA .+1) TO
 40163									;JUMPA X (X IS THE ADDRESS OF THE FIRST INSTRUCTION
 40164									;IN THE SUBTEST) TO LOOP ON ERROR^
 40165	055642	312 10 0 00 071004 		CAME	10,[371173,,6244]	;PASS IF C(AC)=371173,,006244
 40166						STOP^
 40167	055643	254 04 0 00 055644 		HALT	.+1		;TEST FAILED IF PROGRAM HALTS HERE
 40168	055644	324 00 0 00 055645 		JUMPA	.+1		;IF TEST FAILS, CHANGE THIS INSTRUCTION (JUMPA .+1) TO
 40169									;JUMPA X (X IS THE ADDRESS OF THE FIRST INSTRUCTION
 40170									;IN THE SUBTEST) TO LOOP ON ERROR^
 40171	055645	312 11 0 00 070761 		CAME	11,[252525,,707070]	;PASS IF C(E) UNCHANGED
 40172						STOP^
 40173	055646	254 04 0 00 055647 		HALT	.+1		;TEST FAILED IF PROGRAM HALTS HERE
 40174	055647	324 00 0 00 055650 		JUMPA	.+1		;IF TEST FAILS, CHANGE THIS INSTRUCTION (JUMPA .+1) TO
DFKAA PDP-10 KL10 BASIC INSTRUCTION DIAGNOSTIC (1) VER 0,2	MACRO %52(537) 09:34 31-JAN-77 PAGE 84-1
DFKAA6	MAC	25-AUG-75 14:01		TEST OF MSCL LOGICAL TEST INSTRUCTIONS                                             SEQ 0925

 40175									;JUMPA X (X IS THE ADDRESS OF THE FIRST INSTRUCTION
 40176									;IN THE SUBTEST) TO LOOP ON ERROR^
 40177
 40178					;**********
DFKAA PDP-10 KL10 BASIC INSTRUCTION DIAGNOSTIC (1) VER 0,2	MACRO %52(537) 09:34 31-JAN-77 PAGE 85
DFKAA6	MAC	25-AUG-75 14:01		TEST OF MSCL LOGICAL TEST INSTRUCTIONS                                             SEQ 0926

 40179					;THIS TEST VERIFIES THAT TSCA COMPLEMENTS ALL BITS OF THE AC WHICH
 40180					;CORRESPOND TO 1'S IN C(E) WITH BOTH HALVES SWAPPED AND ALWAYS
 40181					;SKIPS THE NEXT INSTRUCTION.  C(E) IS NOT AFFECTED
 40182					;IN THIS CASE, C(AC)=123456,,701234 AND C(E)=076543,,654321
 40183					;HENCE, TSCA SHOULD ALWAYS SKIP AND C(AC) SHOULD BE -1,,-1
 40184
 40185	055650	200 07 0 00 070745 	C74200:	MOVE	7,[123456,,701234]	;PRELOAD AC WITH 123456,,701234
 40186	055651	200 10 0 00 070754 		MOVE	10,[076543,,654321]	;PRELOAD E WITH 076543,,654321
 40187	055652	655 07 0 00 000010 		TSCA	7,10			;*TSCA CHOULD SKIP AND
 40188										;PLACE -1,,-1 INTO THE AC
 40189						STOP^
 40190	055653	254 04 0 00 055654 		HALT	.+1		;TEST FAILED IF PROGRAM HALTS HERE
 40191	055654	324 00 0 00 055655 		JUMPA	.+1		;IF TEST FAILS, CHANGE THIS INSTRUCTION (JUMPA .+1) TO
 40192									;JUMPA X (X IS THE ADDRESS OF THE FIRST INSTRUCTION
 40193									;IN THE SUBTEST) TO LOOP ON ERROR^
 40194	055655	312 07 0 00 070254 		CAME	7,[-1]			;PASS IF C(AC)=-1,,-1
 40195						STOP^
 40196	055656	254 04 0 00 055657 		HALT	.+1		;TEST FAILED IF PROGRAM HALTS HERE
 40197	055657	324 00 0 00 055660 		JUMPA	.+1		;IF TEST FAILS, CHANGE THIS INSTRUCTION (JUMPA .+1) TO
 40198									;JUMPA X (X IS THE ADDRESS OF THE FIRST INSTRUCTION
 40199									;IN THE SUBTEST) TO LOOP ON ERROR^
 40200	055660	312 10 0 00 070754 		CAME	10,[076543,,654321]	;PASS IF C(E) UNCHANGED
 40201						STOP^
 40202	055661	254 04 0 00 055662 		HALT	.+1		;TEST FAILED IF PROGRAM HALTS HERE
 40203	055662	324 00 0 00 055663 		JUMPA	.+1		;IF TEST FAILS, CHANGE THIS INSTRUCTION (JUMPA .+1) TO
 40204									;JUMPA X (X IS THE ADDRESS OF THE FIRST INSTRUCTION
 40205									;IN THE SUBTEST) TO LOOP ON ERROR^
 40206
 40207					;**********
 40208
 40209					;THIS TEST VERIFIES THAT TSCA COMPLEMENTS ALL BITS OF THE AC WHICH
 40210					;CORRESPOND TO 1'S IN C(E) WITH BOTH HALVES SWAPPED AND ALWAYS
 40211					;SKIPS THE NEXT INSTRUCTION.  C(E) IS NOT AFFECTED
 40212					;IN THIS CASE, C(AC)=123456,,701234 AND C(E)=701234,,123456
 40213					;HENCE, TSCA SHOULD ALWAYS SKIP AND C(AC) SHOULD BE 0
 40214
 40215	055663	200 06 0 00 070745 	C74210:	MOVE	6,[123456,,701234]	;PRELOAD AC WITH 123456,,701234
 40216	055664	200 07 0 00 070771 		MOVE	7,[701234,,123456]	;PRELOAD E WITH 701234,,123456
 40217	055665	655 06 0 00 000007 		TSCA	6,7			;*TSCA SHOULD SKIP AND
 40218										;PLACE 0 INTO THE AC
 40219						STOP^
 40220	055666	254 04 0 00 055667 		HALT	.+1		;TEST FAILED IF PROGRAM HALTS HERE
 40221	055667	324 00 0 00 055670 		JUMPA	.+1		;IF TEST FAILS, CHANGE THIS INSTRUCTION (JUMPA .+1) TO
 40222									;JUMPA X (X IS THE ADDRESS OF THE FIRST INSTRUCTION
 40223									;IN THE SUBTEST) TO LOOP ON ERROR^
 40224	055670	312 06 0 00 070253 		CAME	6,[0]			;PASS IF C(AC)=0
 40225						STOP^
 40226	055671	254 04 0 00 055672 		HALT	.+1		;TEST FAILED IF PROGRAM HALTS HERE
 40227	055672	324 00 0 00 055673 		JUMPA	.+1		;IF TEST FAILS, CHANGE THIS INSTRUCTION (JUMPA .+1) TO
 40228									;JUMPA X (X IS THE ADDRESS OF THE FIRST INSTRUCTION
 40229									;IN THE SUBTEST) TO LOOP ON ERROR^
 40230	055673	312 07 0 00 070771 		CAME	7,[701234,,123456]	;PASS IF C(E) UNCHANGED
 40231						STOP^
 40232	055674	254 04 0 00 055675 		HALT	.+1		;TEST FAILED IF PROGRAM HALTS HERE
 40233	055675	324 00 0 00 055676 		JUMPA	.+1		;IF TEST FAILS, CHANGE THIS INSTRUCTION (JUMPA .+1) TO
DFKAA PDP-10 KL10 BASIC INSTRUCTION DIAGNOSTIC (1) VER 0,2	MACRO %52(537) 09:34 31-JAN-77 PAGE 85-1
DFKAA6	MAC	25-AUG-75 14:01		TEST OF MSCL LOGICAL TEST INSTRUCTIONS                                             SEQ 0927

 40234									;JUMPA X (X IS THE ADDRESS OF THE FIRST INSTRUCTION
 40235									;IN THE SUBTEST) TO LOOP ON ERROR^
 40236
 40237					;**********
DFKAA PDP-10 KL10 BASIC INSTRUCTION DIAGNOSTIC (1) VER 0,2	MACRO %52(537) 09:34 31-JAN-77 PAGE 86
DFKAA6	MAC	25-AUG-75 14:01		TEST OF MSCL LOGICAL TEST INSTRUCTIONS                                             SEQ 0928

 40238					;THIS TEST VERIFIES THAT TDCN SKIPS THE NEXT SEQUENTIAL INSTRUCTION
 40239					;IF AND ONLY IF NOT ALL BITS IN THE AC CORRESPONDING TO 1'S IN
 40240					;C(E) ARE ZERO.  THESE MASKED
 40241					;AC BITS ARE THEN COMPLEMENTED
 40242					;IN THE CASE, C(AC)=123456,,701234 AND C(E)=654321,,076547
 40243					;HENCE, TDCN SHOULD SKIP AND THE RESULT IN AC
 40244					;SHOULD BE -1,,777773 C(E) IS NOT AFFECTED
 40245
 40246	055676	200 05 0 00 070745 	C74300:	MOVE	5,[123456,,701234]	;PRELOAD AC WITH 123456,,701234
 40247	055677	200 06 0 00 070772 		MOVE	6,[654321,,76547]	;PRELOAD E WITH 654321,,076547
 40248	055700	656 05 0 00 000006 		TDCN	5,6			;*TDCN SHOULD SKIP AND
 40249										;PLACE -1,,777773 INTO THE AC
 40250						STOP^
 40251	055701	254 04 0 00 055702 		HALT	.+1		;TEST FAILED IF PROGRAM HALTS HERE
 40252	055702	324 00 0 00 055703 		JUMPA	.+1		;IF TEST FAILS, CHANGE THIS INSTRUCTION (JUMPA .+1) TO
 40253									;JUMPA X (X IS THE ADDRESS OF THE FIRST INSTRUCTION
 40254									;IN THE SUBTEST) TO LOOP ON ERROR^
 40255	055703	312 05 0 00 070335 		CAME	5,[-1,,777773]		;PASS IF C(AC)=-1,777773
 40256						STOP^
 40257	055704	254 04 0 00 055705 		HALT	.+1		;TEST FAILED IF PROGRAM HALTS HERE
 40258	055705	324 00 0 00 055706 		JUMPA	.+1		;IF TEST FAILS, CHANGE THIS INSTRUCTION (JUMPA .+1) TO
 40259									;JUMPA X (X IS THE ADDRESS OF THE FIRST INSTRUCTION
 40260									;IN THE SUBTEST) TO LOOP ON ERROR^
 40261	055706	312 06 0 00 070772 		CAME	6,[654321,,76547]	;PASS IF C(E) UNCHANGED
 40262						STOP^
 40263	055707	254 04 0 00 055710 		HALT	.+1		;TEST FAILED IF PROGRAM HALTS HERE
 40264	055710	324 00 0 00 055711 		JUMPA	.+1		;IF TEST FAILS, CHANGE THIS INSTRUCTION (JUMPA .+1) TO
 40265									;JUMPA X (X IS THE ADDRESS OF THE FIRST INSTRUCTION
 40266									;IN THE SUBTEST) TO LOOP ON ERROR^
 40267
 40268					;**********
 40269
 40270					;THIS TEST VERIFIES THAT TDCN SKIPS THE NEXT SEQUENTIAL INSTRUCTION
 40271					;IF AND ONLY IF NOT ALL BITS IN THE AC CORRESPONDING TO 1'S IN
 40272					;C(E) ARE ZERO.  THESE MASKED
 40273					;AC BITS ARE THEN COMPLEMENTED
 40274					;IN THIS CASE, C(AC)=123456,,701234 AND C(E)=654321,,076543
 40275					;HENCE, TDCN SHOULD NOT SKIP AND THE REUSLT IN AC
 40276					;SHOULD BE -1,,-1 C(E) IS NOT AFFECTED
 40277
 40278	055711	200 04 0 00 070745 	C74310:	MOVE	4,[123456,,701234]	;PRELOAD AC WITH 123456,,701234
 40279	055712	200 05 0 00 070763 		MOVE	5,[654321,,76543]	;PRELOAD E WITH 654321,,076543
 40280	055713	656 04 0 00 000005 		TDCN	4,5			;*TDCN SHOULD NOT SKIP AND
 40281										;PLACE -1,,-1 INTO THE AC
 40282	055714	334 00 0 00 000000 		SKIPA				;PASS IF TDCN DOES NOT SKIP
 40283						STOP^
 40284	055715	254 04 0 00 055716 		HALT	.+1		;TEST FAILED IF PROGRAM HALTS HERE
 40285	055716	324 00 0 00 055717 		JUMPA	.+1		;IF TEST FAILS, CHANGE THIS INSTRUCTION (JUMPA .+1) TO
 40286									;JUMPA X (X IS THE ADDRESS OF THE FIRST INSTRUCTION
 40287									;IN THE SUBTEST) TO LOOP ON ERROR^
 40288	055717	312 04 0 00 070254 		CAME	4,[-1]			;PASS IF C(AC)=-1,,-1
 40289						STOP^
 40290	055720	254 04 0 00 055721 		HALT	.+1		;TEST FAILED IF PROGRAM HALTS HERE
 40291	055721	324 00 0 00 055722 		JUMPA	.+1		;IF TEST FAILS, CHANGE THIS INSTRUCTION (JUMPA .+1) TO
 40292									;JUMPA X (X IS THE ADDRESS OF THE FIRST INSTRUCTION
DFKAA PDP-10 KL10 BASIC INSTRUCTION DIAGNOSTIC (1) VER 0,2	MACRO %52(537) 09:34 31-JAN-77 PAGE 86-1
DFKAA6	MAC	25-AUG-75 14:01		TEST OF MSCL LOGICAL TEST INSTRUCTIONS                                             SEQ 0929

 40293									;IN THE SUBTEST) TO LOOP ON ERROR^
 40294	055722	312 05 0 00 070763 		CAME	5,[654321,,76543]	;PASS IF C(E) UNCHANGED
 40295						STOP^
 40296	055723	254 04 0 00 055724 		HALT	.+1		;TEST FAILED IF PROGRAM HALTS HERE
 40297	055724	324 00 0 00 055725 		JUMPA	.+1		;IF TEST FAILS, CHANGE THIS INSTRUCTION (JUMPA .+1) TO
 40298									;JUMPA X (X IS THE ADDRESS OF THE FIRST INSTRUCTION
 40299									;IN THE SUBTEST) TO LOOP ON ERROR^
 40300
 40301					;**********
DFKAA PDP-10 KL10 BASIC INSTRUCTION DIAGNOSTIC (1) VER 0,2	MACRO %52(537) 09:34 31-JAN-77 PAGE 87
DFKAA6	MAC	25-AUG-75 14:01		TEST OF MSCL LOGICAL TEST INSTRUCTIONS                                             SEQ 0930

 40302					;THIS TEST VERIFIES THAT TSCN SKIPS THE NEXT SEQUENTIAL INSTRUCTION
 40303					;IF AND ONLY IF NOT ALL BITS IN THE AC CORRESPONDING TO 1'S IN
 40304					;C(E) WITH BOTH HALVES SWAPPED ARE ZERO.  THESE MASKED
 40305					;AC BITS ARE THEN COMPLEMENTED
 40306					;IN THIS CASE, C(AC)=123456,,701234 AND C(E)=077543,,654321
 40307					;HENCE, TSCN SHOULD SKIP AND THE RESULT IN AC
 40308					;SHOULD BE -1,,776777.  C(E) IS NOT AFFECTED
 40309
 40310	055725	200 03 0 00 070745 	C74400:	MOVE	3,[123456,,701234]	;PRELOAD AC WITH 123456,,701234
 40311	055726	200 04 0 00 070774 		MOVE	4,[77543,,654321]	;PRELOAD E WITH 077543,,654321
 40312	055727	657 03 0 00 000004 		TSCN	3,4			;*TSCN SHOULD SKIP AND
 40313										;PLACE -1,,776777 INTO THE AC
 40314						STOP^
 40315	055730	254 04 0 00 055731 		HALT	.+1		;TEST FAILED IF PROGRAM HALTS HERE
 40316	055731	324 00 0 00 055732 		JUMPA	.+1		;IF TEST FAILS, CHANGE THIS INSTRUCTION (JUMPA .+1) TO
 40317									;JUMPA X (X IS THE ADDRESS OF THE FIRST INSTRUCTION
 40318									;IN THE SUBTEST) TO LOOP ON ERROR^
 40319	055732	312 03 0 00 070344 		CAME	3,[-1,,776777]		;PASS IF C(AC)=-1,776777
 40320						STOP^
 40321	055733	254 04 0 00 055734 		HALT	.+1		;TEST FAILED IF PROGRAM HALTS HERE
 40322	055734	324 00 0 00 055735 		JUMPA	.+1		;IF TEST FAILS, CHANGE THIS INSTRUCTION (JUMPA .+1) TO
 40323									;JUMPA X (X IS THE ADDRESS OF THE FIRST INSTRUCTION
 40324									;IN THE SUBTEST) TO LOOP ON ERROR^
 40325	055735	312 04 0 00 070774 		CAME	4,[77543,,654321]	;PASS IF C(E) UNCHANGED
 40326						STOP^
 40327	055736	254 04 0 00 055737 		HALT	.+1		;TEST FAILED IF PROGRAM HALTS HERE
 40328	055737	324 00 0 00 055740 		JUMPA	.+1		;IF TEST FAILS, CHANGE THIS INSTRUCTION (JUMPA .+1) TO
 40329									;JUMPA X (X IS THE ADDRESS OF THE FIRST INSTRUCTION
 40330									;IN THE SUBTEST) TO LOOP ON ERROR^
 40331
 40332					;**********
 40333
 40334					;THIS TEST VERIFIES THAT TSCN SKIPS THE NEXT SEQUENTIAL INSTRUCTION
 40335					;IF AND ONLY IF NOT ALL BITS IN THE AC CORRESPONDING TO 1'S IN
 40336					;C(E) WITH BOTH HALVES SWAPPED ARE ZERO.  THESE MASKED
 40337					;AC BITS ARE THEN COMPLEMENTD
 40338					;IN THIS CASE, C(AC)=123456,,701234 AND C(E)=076543,,654321
 40339					;HENCE, TSCN SHOULD NOT SKIP AND THE RESULT IN AC
 40340					;SHOULD BE -1,,-1.  C(E) IS NOT AFFECTED.
 40341
 40342	055740	200 02 0 00 070745 	C74410:	MOVE	2,[123456,,701234]	;PRELOAD AC WITH 123456,,701234
 40343	055741	200 03 0 00 070754 		MOVE	3,[76543,,654321]	;PRELOAD E WITH 076543,,654321
 40344	055742	657 02 0 00 000003 		TSCN	2,3			;*TSCN SHOULD NOT SKIP AND
 40345										;PLACE -1,,-1 INTO THE AC
 40346	055743	334 00 0 00 000000 		SKIPA				;PASS IF TSCN DOES NOT SKIP
 40347						STOP^
 40348	055744	254 04 0 00 055745 		HALT	.+1		;TEST FAILED IF PROGRAM HALTS HERE
 40349	055745	324 00 0 00 055746 		JUMPA	.+1		;IF TEST FAILS, CHANGE THIS INSTRUCTION (JUMPA .+1) TO
 40350									;JUMPA X (X IS THE ADDRESS OF THE FIRST INSTRUCTION
 40351									;IN THE SUBTEST) TO LOOP ON ERROR^
 40352	055746	312 02 0 00 070254 		CAME	2,[-1]			;PASS IF C(AC)=-1,,-1
 40353						STOP^
 40354	055747	254 04 0 00 055750 		HALT	.+1		;TEST FAILED IF PROGRAM HALTS HERE
 40355	055750	324 00 0 00 055751 		JUMPA	.+1		;IF TEST FAILS, CHANGE THIS INSTRUCTION (JUMPA .+1) TO
 40356									;JUMPA X (X IS THE ADDRESS OF THE FIRST INSTRUCTION
DFKAA PDP-10 KL10 BASIC INSTRUCTION DIAGNOSTIC (1) VER 0,2	MACRO %52(537) 09:34 31-JAN-77 PAGE 87-1
DFKAA6	MAC	25-AUG-75 14:01		TEST OF MSCL LOGICAL TEST INSTRUCTIONS                                             SEQ 0931

 40357									;IN THE SUBTEST) TO LOOP ON ERROR^
 40358	055751	312 03 0 00 070754 		CAME	3,[76543,,654321]	;PASS IF C(E) UNCHANGED
 40359						STOP^
 40360	055752	254 04 0 00 055753 		HALT	.+1		;TEST FAILED IF PROGRAM HALTS HERE
 40361	055753	324 00 0 00 055754 		JUMPA	.+1		;IF TEST FAILS, CHANGE THIS INSTRUCTION (JUMPA .+1) TO
 40362									;JUMPA X (X IS THE ADDRESS OF THE FIRST INSTRUCTION
 40363									;IN THE SUBTEST) TO LOOP ON ERROR^
 40364
 40365					;**********
DFKAA PDP-10 KL10 BASIC INSTRUCTION DIAGNOSTIC (1) VER 0,2	MACRO %52(537) 09:34 31-JAN-77 PAGE 88
DFKAA6	MAC	25-AUG-75 14:01		TEST OF MSCL LOGICAL TEST INSTRUCTIONS                                             SEQ 0932

 40366					;THIS TEST VERIFIES THAT TRO CHANGES ALL BITS IN THE AC-RIGHT WHICH
 40367					;CORRESPOND TO 1'S IN E TO ONES AND DOES ANT SKIP
 40368					;IN THIS CASE, C(AC)=123456,,701234 AND E=3
 40369					;HENCE, THE RESULT IN THE AC SHOULD BE 123456,,701237
 40370
 40371	055754	200 01 0 00 070745 	C74500:	MOVE	1,[123456,,701234]	;PRELOAD AC WITH 123456,,701234
 40372	055755	660 01 0 00 000003 		TRO	1,3			;*TRO SHOULD NOT SKIP AND
 40373										;PLACE 123456,,701237 INTO THE AC
 40374	055756	334 00 0 00 000000 		SKIPA				;PASS IF TRO DID NOT SKIP
 40375						STOP^
 40376	055757	254 04 0 00 055760 		HALT	.+1		;TEST FAILED IF PROGRAM HALTS HERE
 40377	055760	324 00 0 00 055761 		JUMPA	.+1		;IF TEST FAILS, CHANGE THIS INSTRUCTION (JUMPA .+1) TO
 40378									;JUMPA X (X IS THE ADDRESS OF THE FIRST INSTRUCTION
 40379									;IN THE SUBTEST) TO LOOP ON ERROR^
 40380	055761	312 01 0 00 070776 		CAME	1,[123456,,701237]	;PASS IF C(AC)=123456,,701237
 40381						STOP^
 40382	055762	254 04 0 00 055763 		HALT	.+1		;TEST FAILED IF PROGRAM HALTS HERE
 40383	055763	324 00 0 00 055764 		JUMPA	.+1		;IF TEST FAILS, CHANGE THIS INSTRUCTION (JUMPA .+1) TO
 40384									;JUMPA X (X IS THE ADDRESS OF THE FIRST INSTRUCTION
 40385									;IN THE SUBTEST) TO LOOP ON ERROR^
 40386
 40387					;**********
 40388
 40389					;THIS TEST VERIFIES THAT TRO CHANGES ALL BITS IN THE AC-RIGHT WHICH
 40390					;CORRESPOND TO 1'S IN E TO ONES AND DOES NOT SKIP
 40391					;IN THIS CASE, C(AC)=123456,,701234 AND E=300
 40392					;HENCE, THE RESULT IN THE AC SHOULD BE 123456,,701224
 40393
 40394	055764	200 00 0 00 070745 	C74510:	MOVE	0,[123456,,701234]	;PRELOAD AC WITH 123456,,701234
 40395	055765	660 00 0 00 000300 		TRO	0,300			;*TRO SHOULD NOT SKIP AND
 40396										;PLACE 123456,,701334 INTO THE AC
 40397	055766	334 00 0 00 000000 		SKIPA				;PASS IF TRO DID NOT SKIP
 40398						STOP^
 40399	055767	254 04 0 00 055770 		HALT	.+1		;TEST FAILED IF PROGRAM HALTS HERE
 40400	055770	324 00 0 00 055771 		JUMPA	.+1		;IF TEST FAILS, CHANGE THIS INSTRUCTION (JUMPA .+1) TO
 40401									;JUMPA X (X IS THE ADDRESS OF THE FIRST INSTRUCTION
 40402									;IN THE SUBTEST) TO LOOP ON ERROR^
 40403	055771	312 00 0 00 071005 		CAME	0,[123456,,701334]	;PASS IF C(AC)=123456,,701334
 40404						STOP^
 40405	055772	254 04 0 00 055773 		HALT	.+1		;TEST FAILED IF PROGRAM HALTS HERE
 40406	055773	324 00 0 00 055774 		JUMPA	.+1		;IF TEST FAILS, CHANGE THIS INSTRUCTION (JUMPA .+1) TO
 40407									;JUMPA X (X IS THE ADDRESS OF THE FIRST INSTRUCTION
 40408									;IN THE SUBTEST) TO LOOP ON ERROR^
 40409
 40410					;**********
DFKAA PDP-10 KL10 BASIC INSTRUCTION DIAGNOSTIC (1) VER 0,2	MACRO %52(537) 09:34 31-JAN-77 PAGE 89
DFKAA6	MAC	25-AUG-75 14:01		TEST OF MSCL LOGICAL TEST INSTRUCTIONS                                             SEQ 0933

 40411					;THIS TEST VERIFIES THAT TLO CHANGES ALL BITS IN THE AC-LEFT WHICH
 40412					;CORRESPOND TO 1'S IN E TO ONES AND DOES NOT SKIP
 40413					;IN THIS CASE, C(AC)=123456,,701234 AND E=300
 40414					;HENCE, THE RESULT IN THE AC SHOULD BE 123756,,701234
 40415
 40416	055774	200 17 0 00 070745 	C74600:	MOVE	17,[123456,,701234]	;PRELOAD AC WITH 123456,,701234
 40417	055775	661 17 0 00 000300 		TLO	17,300			;*TLO SHOULD NOT SKIP AND
 40418										;PLACE 123756,,701234 INTO THE AC
 40419	055776	334 00 0 00 000000 		SKIPA				;PASS IF TLO DID NOT SKIP
 40420						STOP^
 40421	055777	254 04 0 00 056000 		HALT	.+1		;TEST FAILED IF PROGRAM HALTS HERE
 40422	056000	324 00 0 00 056001 		JUMPA	.+1		;IF TEST FAILS, CHANGE THIS INSTRUCTION (JUMPA .+1) TO
 40423									;JUMPA X (X IS THE ADDRESS OF THE FIRST INSTRUCTION
 40424									;IN THE SUBTEST) TO LOOP ON ERROR^
 40425	056001	312 17 0 00 071000 		CAME	17,[123756,,701234]	;PASS IF C(AC)=123456,,701234
 40426						STOP^
 40427	056002	254 04 0 00 056003 		HALT	.+1		;TEST FAILED IF PROGRAM HALTS HERE
 40428	056003	324 00 0 00 056004 		JUMPA	.+1		;IF TEST FAILS, CHANGE THIS INSTRUCTION (JUMPA .+1) TO
 40429									;JUMPA X (X IS THE ADDRESS OF THE FIRST INSTRUCTION
 40430									;IN THE SUBTEST) TO LOOP ON ERROR^
 40431
 40432					;**********
 40433
 40434					;THIS TEST VERIFIES THAT TLO CHANGES ALL BITS IN THE AC-LEFT WHICH
 40435					;CORRESPOND TO 1'S IN E TO ONES AND DOES NOT SKIP
 40436					;IN THIS CASE, C(AC)=123456,,701234 AND E=3
 40437					;HENCE, THE RESULT IN THE AC SHOULD BE 123457,,701234
 40438
 40439	056004	200 16 0 00 071006 	C74610:	MOVE	16,[123456,,70234]	;PRELOAD AC WITH 123456,,701234
 40440	056005	661 16 0 00 000003 		TLO	16,3			;*TLO SHOULD NOT SKIP AND
 40441										;PLACE 123457,,701234 INTO THE AC
 40442	056006	334 00 0 00 000000 		SKIPA				;PASS IF DID NOT SKIP
 40443						STOP^
 40444	056007	254 04 0 00 056010 		HALT	.+1		;TEST FAILED IF PROGRAM HALTS HERE
 40445	056010	324 00 0 00 056011 		JUMPA	.+1		;IF TEST FAILS, CHANGE THIS INSTRUCTION (JUMPA .+1) TO
 40446									;JUMPA X (X IS THE ADDRESS OF THE FIRST INSTRUCTION
 40447									;IN THE SUBTEST) TO LOOP ON ERROR^
 40448	056011	312 16 0 00 071007 		CAME	16,[123457,,70234]	;PASS IF C(AC)=123457,,701234
 40449						STOP^
 40450	056012	254 04 0 00 056013 		HALT	.+1		;TEST FAILED IF PROGRAM HALTS HERE
 40451	056013	324 00 0 00 056014 		JUMPA	.+1		;IF TEST FAILS, CHANGE THIS INSTRUCTION (JUMPA .+1) TO
 40452									;JUMPA X (X IS THE ADDRESS OF THE FIRST INSTRUCTION
 40453									;IN THE SUBTEST) TO LOOP ON ERROR^
 40454
 40455					;**********
DFKAA PDP-10 KL10 BASIC INSTRUCTION DIAGNOSTIC (1) VER 0,2	MACRO %52(537) 09:34 31-JAN-77 PAGE 90
DFKAA6	MAC	25-AUG-75 14:01		TEST OF MSCL LOGICAL TEST INSTRUCTIONS                                             SEQ 0934

 40456					;THIS TEST VERIFIES THAT TROE SKIPS THE NEXT SEQUENTIAL INSTRUCTION
 40457					;IF AND ONLY IF ALL BITS IN AC-RIGHT CORRESPONDING TO 1'S IN E ARE ZERO.
 40458					;THESE MASKED AC BITS ARE THEN CHANGED TO ONES
 40459					;IN THIS CASE, C(AC)=123456,,701234 AND E=3
 40460					;HENCE, TROE SHOULD SKIP THE NEXT SEQUENTIAL INSTRUCTION
 40461					;AND RESULT IN THE AC SHOUD BE 123456,,701237
 40462
 40463	056014	200 15 0 00 070745 	C74700:	MOVE	15,[123456,,701234]	;PRELOAD AC WITH 123456,,701234
 40464	056015	662 15 0 00 000003 		TROE	15,3			;TROE SHOULD SKIP AND
 40465										;PLACE 123456,,701237 IN TO THE AC
 40466						STOP^
 40467	056016	254 04 0 00 056017 		HALT	.+1		;TEST FAILED IF PROGRAM HALTS HERE
 40468	056017	324 00 0 00 056020 		JUMPA	.+1		;IF TEST FAILS, CHANGE THIS INSTRUCTION (JUMPA .+1) TO
 40469									;JUMPA X (X IS THE ADDRESS OF THE FIRST INSTRUCTION
 40470									;IN THE SUBTEST) TO LOOP ON ERROR^
 40471	056020	312 15 0 00 070776 		CAME	15,[123456,,701237]	;PASS IF C(AC)=123456,,701237
 40472						STOP^
 40473	056021	254 04 0 00 056022 		HALT	.+1		;TEST FAILED IF PROGRAM HALTS HERE
 40474	056022	324 00 0 00 056023 		JUMPA	.+1		;IF TEST FAILS, CHANGE THIS INSTRUCTION (JUMPA .+1) TO
 40475									;JUMPA X (X IS THE ADDRESS OF THE FIRST INSTRUCTION
 40476									;IN THE SUBTEST) TO LOOP ON ERROR^
 40477
 40478					;**********
 40479
 40480					;THIS TEST VERIFIES THAT TROE SKIPS THE NEXT SEQUENTIAL INSTRUCTION
 40481					;IF AND ONLY IF ALL BITS IN AC-RIGHT CORRESPONDING TO 1'S IN E ARE ZERO.
 40482					;THESE MASKED AC BITS ARE THEN CHANGED TO ONES
 40483					;IN THIS CASE, C(AC)=123456,,701234 AND E=300
 40484					;HENCE, TROE SHOULD NOT SKIP THE NEXT SEQUENTIAL INSTRUCTION
 40485					;AND THE RESULT IN THE AC SHOULD BE 123456,,701334
 40486
 40487	056023	200 14 0 00 070745 	C74710:	MOVE	14,[123456,,701234]	;PRELOAD AC WITH 123456,,701234
 40488	056024	662 14 0 00 000300 		TROE	14,300			;*TROE SHOULD NOT SKIP AND
 40489										;PLACE 123456,,701224 INTO THE AC
 40490	056025	334 00 0 00 000000 		SKIPA				;PASS IF DID NOT SKIP
 40491						STOP^
 40492	056026	254 04 0 00 056027 		HALT	.+1		;TEST FAILED IF PROGRAM HALTS HERE
 40493	056027	324 00 0 00 056030 		JUMPA	.+1		;IF TEST FAILS, CHANGE THIS INSTRUCTION (JUMPA .+1) TO
 40494									;JUMPA X (X IS THE ADDRESS OF THE FIRST INSTRUCTION
 40495									;IN THE SUBTEST) TO LOOP ON ERROR^
 40496	056030	312 14 0 00 071005 		CAME	14,[123456,,701334]	;PASS IF C(AC)=123456,,701334
 40497						STOP^
 40498	056031	254 04 0 00 056032 		HALT	.+1		;TEST FAILED IF PROGRAM HALTS HERE
 40499	056032	324 00 0 00 056033 		JUMPA	.+1		;IF TEST FAILS, CHANGE THIS INSTRUCTION (JUMPA .+1) TO
 40500									;JUMPA X (X IS THE ADDRESS OF THE FIRST INSTRUCTION
 40501									;IN THE SUBTEST) TO LOOP ON ERROR^
 40502
 40503					;**********
DFKAA PDP-10 KL10 BASIC INSTRUCTION DIAGNOSTIC (1) VER 0,2	MACRO %52(537) 09:34 31-JAN-77 PAGE 91
DFKAA6	MAC	25-AUG-75 14:01		TEST OF MSCL LOGICAL TEST INSTRUCTIONS                                             SEQ 0935

 40504					;THIS TEST VERIFIES THAT TLOE SKIPS THE NEXT SEQUENTIAL  INSTRUCTION
 40505					;IF AND ONLY IF ALL BITS IN AC-LEFT CORRESPONDING TO 1'S IN E ARE ZERO.
 40506					;THESE MASKED AC BITS ARE TEN CHANGED TO ONES
 40507					;IN THES CASE, C(AC)=123456,,701234 AND E=300
 40508					;HENCE, TLOE SHOULD SKIP THE NEXT SEQUENTIAL INSTRUCTION
 40509					;AND THE RESULT IN THE AC SHOULD BE 123756,,701234
 40510
 40511	056033	200 13 0 00 070745 	C75000:	MOVE	13,[123456,,701234]	;PRELOAD AC WITH 123456,,701234
 40512	056034	663 13 0 00 000300 		TLOE	13,300			;*TLOE SOULD SKIP AND
 40513										;PLAND 123756,,701234 INTO THE AC
 40514						STOP^
 40515	056035	254 04 0 00 056036 		HALT	.+1		;TEST FAILED IF PROGRAM HALTS HERE
 40516	056036	324 00 0 00 056037 		JUMPA	.+1		;IF TEST FAILS, CHANGE THIS INSTRUCTION (JUMPA .+1) TO
 40517									;JUMPA X (X IS THE ADDRESS OF THE FIRST INSTRUCTION
 40518									;IN THE SUBTEST) TO LOOP ON ERROR^
 40519	056037	312 13 0 00 071000 		CAME	13,[123756,,701234]	;PASS IF C(AC)=123456,,701234
 40520						STOP^
 40521	056040	254 04 0 00 056041 		HALT	.+1		;TEST FAILED IF PROGRAM HALTS HERE
 40522	056041	324 00 0 00 056042 		JUMPA	.+1		;IF TEST FAILS, CHANGE THIS INSTRUCTION (JUMPA .+1) TO
 40523									;JUMPA X (X IS THE ADDRESS OF THE FIRST INSTRUCTION
 40524									;IN THE SUBTEST) TO LOOP ON ERROR^
 40525
 40526					;********
 40527
 40528					;THIS TEST VERIFIES THAT TLOE SKIPS THE NEXT SEQUENTIAL INSTRUCTION
 40529					;IF AND ONLY IF ALL BITS IN AC-LEFT CORRESPONDING  TO 1'S IN E ARE ZERO.
 40530					;THESE MASKED AC BITS ARE THEN CHANGED TO ONES
 40531					;IN THIS CASE, C(AC)=123456,,701234 AND E=3
 40532					;HENCE, TLOE SHOULD NOT SKIP THE NEXT SEQUENTIAL INSTRUCTION
 40533					;AND THE RESULT IN THE AC SHOULD BE 123457,,701234
 40534
 40535	056042	200 12 0 00 070745 	C75010:	MOVE	12,[123456,,701234]	;PRELOAD AC WITH 123456,,701234
 40536	056043	663 12 0 00 000003 		TLOE	12,3			;*TLOE SHOULD NOT SKIP AND
 40537										;PLACE 123457,,701234 INTO THE AC
 40538	056044	334 00 0 00 000000 		SKIPA				;PASS IF TLOE DID NOT SKIP
 40539						STOP^
 40540	056045	254 04 0 00 056046 		HALT	.+1		;TEST FAILED IF PROGRAM HALTS HERE
 40541	056046	324 00 0 00 056047 		JUMPA	.+1		;IF TEST FAILS, CHANGE THIS INSTRUCTION (JUMPA .+1) TO
 40542									;JUMPA X (X IS THE ADDRESS OF THE FIRST INSTRUCTION
 40543									;IN THE SUBTEST) TO LOOP ON ERROR^
 40544	056047	312 12 0 00 071010 		CAME	12,[123457,,701234]	;PASS IF C(AC)=123457,,701234
 40545						STOP^
 40546	056050	254 04 0 00 056051 		HALT	.+1		;TEST FAILED IF PROGRAM HALTS HERE
 40547	056051	324 00 0 00 056052 		JUMPA	.+1		;IF TEST FAILS, CHANGE THIS INSTRUCTION (JUMPA .+1) TO
 40548									;JUMPA X (X IS THE ADDRESS OF THE FIRST INSTRUCTION
 40549									;IN THE SUBTEST) TO LOOP ON ERROR^
 40550
 40551					;*******
DFKAA PDP-10 KL10 BASIC INSTRUCTION DIAGNOSTIC (1) VER 0,2	MACRO %52(537) 09:34 31-JAN-77 PAGE 92
DFKAA6	MAC	25-AUG-75 14:01		TEST OF MSCL LOGICAL TEST INSTRUCTIONS                                             SEQ 0936

 40552					;THIS TEST VERIFIES THAT TROA ALWAYS SKIPS THE NEXT SEQUENTIAL INSTUCTION
 40553					;AND CHANGES ALL BITS IN AC-RIGHT WHICH CORRESPOND TO 1'S IN E TO ONES
 40554					;IN THIS CASE, C(AC)=123456,,701234 AND E=3
 40555					;HENCE, TROA SHOULD SKIP THE NEXT INSTRUCTION AND THE RESULT IN
 40556					;THE AC SHOULD BE 123456,,701237
 40557
 40558	056052	200 11 0 00 070745 	C75100:	MOVE	11,[123456,,701234]	;PRELOAD AC WITH 123456,,701234
 40559	056053	664 11 0 00 000003 		TROA	11,3			;*TROA SHOULD SKIP AND
 40560										;PLACE 123456,,701237
 40561						STOP^
 40562	056054	254 04 0 00 056055 		HALT	.+1		;TEST FAILED IF PROGRAM HALTS HERE
 40563	056055	324 00 0 00 056056 		JUMPA	.+1		;IF TEST FAILS, CHANGE THIS INSTRUCTION (JUMPA .+1) TO
 40564									;JUMPA X (X IS THE ADDRESS OF THE FIRST INSTRUCTION
 40565									;IN THE SUBTEST) TO LOOP ON ERROR^
 40566	056056	312 11 0 00 070776 		CAME	11,[123456,,701237]	;PASS IF C(AC)=123456,,701237
 40567						STOP^
 40568	056057	254 04 0 00 056060 		HALT	.+1		;TEST FAILED IF PROGRAM HALTS HERE
 40569	056060	324 00 0 00 056061 		JUMPA	.+1		;IF TEST FAILS, CHANGE THIS INSTRUCTION (JUMPA .+1) TO
 40570									;JUMPA X (X IS THE ADDRESS OF THE FIRST INSTRUCTION
 40571									;IN THE SUBTEST) TO LOOP ON ERROR^
 40572
 40573					;**********
 40574
 40575					;THIS TEST VERIFIES THAT TROA ALWAYS SKIPS THE NEXT SEQUENTAIL INSTRUCTION
 40576					;AND CHANGES ALL BITS IN AC-RIGHT WHICH CORRESPOND TO 1'S IN E TO ONES
 40577					;IN THIS CASE, C(AC)=123456,,701234 AND E=300
 40578					;HENCE, TROA SHOULD SKIP THE NEXT INSTRUCTION AND THE RESULT IN
 40579					;THE AC SHOULD BE 123456,,701334
 40580
 40581	056061	200 10 0 00 070745 	C75110:	MOVE	10,[123456,,701234]	;PRELOAD AC WITH 123456,,701234
 40582	056062	664 10 0 00 000300 		TROA	10,300			;*TROA SHOULD SKIP AND
 40583										;PLACE 123456,,701334 INTO THE AC
 40584						STOP^
 40585	056063	254 04 0 00 056064 		HALT	.+1		;TEST FAILED IF PROGRAM HALTS HERE
 40586	056064	324 00 0 00 056065 		JUMPA	.+1		;IF TEST FAILS, CHANGE THIS INSTRUCTION (JUMPA .+1) TO
 40587									;JUMPA X (X IS THE ADDRESS OF THE FIRST INSTRUCTION
 40588									;IN THE SUBTEST) TO LOOP ON ERROR^
 40589	056065	312 10 0 00 071005 		CAME	10,[123456,,701334]	;PASS IF C (AC)=123456,,701334
 40590						STOP^
 40591	056066	254 04 0 00 056067 		HALT	.+1		;TEST FAILED IF PROGRAM HALTS HERE
 40592	056067	324 00 0 00 056070 		JUMPA	.+1		;IF TEST FAILS, CHANGE THIS INSTRUCTION (JUMPA .+1) TO
 40593									;JUMPA X (X IS THE ADDRESS OF THE FIRST INSTRUCTION
 40594									;IN THE SUBTEST) TO LOOP ON ERROR^
 40595
 40596					;**********
DFKAA PDP-10 KL10 BASIC INSTRUCTION DIAGNOSTIC (1) VER 0,2	MACRO %52(537) 09:34 31-JAN-77 PAGE 93
DFKAA6	MAC	25-AUG-75 14:01		TEST OF MSCL LOGICAL TEST INSTRUCTIONS                                             SEQ 0937

 40597					;THIS TEST VERIFIES THAT TLOA ALWAYS SKIPS THE NEXT SEQUENTIAL INSTUCTION
 40598					;AND CHANGES ALL BITS IN AC-LEFT WHICH CORRESPOND 1'S IN E TO ONES
 40599					;IN THIS CASE, C(AC)=123456,,701234 AND E=3
 40600					;HENCE, TLOA SHOULD SKIP THE NEXT INSTRUCTION AND RESULT IN
 40601					;THE AC SHOULD BE 123457,,701234
 40602
 40603	056070	200 07 0 00 070745 	C75200:	MOVE	7,[123456,,701234]	;PRELOAD AC WITH 123456,,701234
 40604	056071	665 07 0 00 000003 		TLOA	7,3			;*TLOA SHOULD SKIP AND
 40605										;PLACE 123457,,701234 INTO THE AC
 40606						STOP^
 40607	056072	254 04 0 00 056073 		HALT	.+1		;TEST FAILED IF PROGRAM HALTS HERE
 40608	056073	324 00 0 00 056074 		JUMPA	.+1		;IF TEST FAILS, CHANGE THIS INSTRUCTION (JUMPA .+1) TO
 40609									;JUMPA X (X IS THE ADDRESS OF THE FIRST INSTRUCTION
 40610									;IN THE SUBTEST) TO LOOP ON ERROR^
 40611	056074	312 07 0 00 071010 		CAME	7,[123457,,701234]	;PASS IF C(AC)=123457,,701234]
 40612						STOP^
 40613	056075	254 04 0 00 056076 		HALT	.+1		;TEST FAILED IF PROGRAM HALTS HERE
 40614	056076	324 00 0 00 056077 		JUMPA	.+1		;IF TEST FAILS, CHANGE THIS INSTRUCTION (JUMPA .+1) TO
 40615									;JUMPA X (X IS THE ADDRESS OF THE FIRST INSTRUCTION
 40616									;IN THE SUBTEST) TO LOOP ON ERROR^
 40617
 40618					;**********
 40619
 40620					;THIS TEST VERIFIES THAT TLOA ALWAYS SKIPS THE NEXT SEQUENTIAL INSTRUCTION
 40621					;AND CHANGES ALL BITS IN AC-LEFT WHICH CORRESPOND TO 1'S IN E TO ONES
 40622					;IN THIS CASE, C(AC)=123456,,701234 AND E=300
 40623					;HENCE, TLOA SHOULD SKIP THE NEXT INSTRUCTION AND THE RESULT IN
 40624					;THE AC SHOULD BE 123756,,701234
 40625
 40626	056077	200 06 0 00 070745 	C75210:	MOVE	6,[123456,,701234]	;PRELOAD AC WITH 123456,,701234
 40627	056100	665 06 0 00 000300 		TLOA	6,300			;*TLOA SHOULD SKIP AND
 40628										;PLACE 123756,,701234 INTO THE AC
 40629						STOP^
 40630	056101	254 04 0 00 056102 		HALT	.+1		;TEST FAILED IF PROGRAM HALTS HERE
 40631	056102	324 00 0 00 056103 		JUMPA	.+1		;IF TEST FAILS, CHANGE THIS INSTRUCTION (JUMPA .+1) TO
 40632									;JUMPA X (X IS THE ADDRESS OF THE FIRST INSTRUCTION
 40633									;IN THE SUBTEST) TO LOOP ON ERROR^
 40634	056103	312 06 0 00 071000 		CAME	6,[123756,,701234]	;PASS IF C(AC)=123756,,701234
 40635						STOP^
 40636	056104	254 04 0 00 056105 		HALT	.+1		;TEST FAILED IF PROGRAM HALTS HERE
 40637	056105	324 00 0 00 056106 		JUMPA	.+1		;IF TEST FAILS, CHANGE THIS INSTRUCTION (JUMPA .+1) TO
 40638									;JUMPA X (X IS THE ADDRESS OF THE FIRST INSTRUCTION
 40639									;IN THE SUBTEST) TO LOOP ON ERROR^
 40640
 40641					;**********
DFKAA PDP-10 KL10 BASIC INSTRUCTION DIAGNOSTIC (1) VER 0,2	MACRO %52(537) 09:34 31-JAN-77 PAGE 94
DFKAA6	MAC	25-AUG-75 14:01		TEST OF MSCL LOGICAL TEST INSTRUCTIONS                                             SEQ 0938

 40642					;THIS TEST VERIFIES THAT TRON SKIPS THE NEXT SEQUENTIAL INSTRUCTION
 40643					;IF AND ONLY IF NOT ALL BITS IN AC-RIGHT CORRESPONDING TO 1'S IN E ARE ZERO.
 40644					;THESE MASKED AC BITS ARE THEN CHANGED TO ONES
 40645					;IN THIS CASE, C(AC)=123456,,701234 AND E=300
 40646					;HENCE, TRON SHOULD SKIP THE NEXT SEQUENTIAL INSTRUCTION
 40647					;AND THE RESULT IN THE AC SHOULD BE 123456,,701334
 40648
 40649	056106	200 05 0 00 070745 	C75300:	MOVE	5,[123456,,701234]	;PRELOAD AC WITH 123456,,701234
 40650	056107	666 05 0 00 000300 		TRON	5,300			;*TRON SHOULD SKIP AND
 40651										;PLACE 123456,,701334 INTO THE AC
 40652						STOP^
 40653	056110	254 04 0 00 056111 		HALT	.+1		;TEST FAILED IF PROGRAM HALTS HERE
 40654	056111	324 00 0 00 056112 		JUMPA	.+1		;IF TEST FAILS, CHANGE THIS INSTRUCTION (JUMPA .+1) TO
 40655									;JUMPA X (X IS THE ADDRESS OF THE FIRST INSTRUCTION
 40656									;IN THE SUBTEST) TO LOOP ON ERROR^
 40657	056112	312 05 0 00 071005 		CAME	5,[123456,,701334]	;PASS IF C(AC)=123456,,701334
 40658						STOP^
 40659	056113	254 04 0 00 056114 		HALT	.+1		;TEST FAILED IF PROGRAM HALTS HERE
 40660	056114	324 00 0 00 056115 		JUMPA	.+1		;IF TEST FAILS, CHANGE THIS INSTRUCTION (JUMPA .+1) TO
 40661									;JUMPA X (X IS THE ADDRESS OF THE FIRST INSTRUCTION
 40662									;IN THE SUBTEST) TO LOOP ON ERROR^
 40663
 40664					;**********
 40665
 40666					;THIS TEST VERIFIES THAT TRON SKIPS THE NEXT SEQUENTIAL INSTUCTION
 40667					;IF AND ONLY IF NOT ALL BITS IN AC-RIGHT CORRESPONDING TO 1'S IN E ARE ZERO.
 40668					;THESE MASKED AC BITS ARE THEN CHANGED TO ONES
 40669					;IN THIS CASE, C(AC)=123456,,701234 AND E=3
 40670					;HENCE, TRON SHOULD NOT SKIP THE NEXT SEQUENTIAL INSTRUCTION
 40671					;AND THE RESULT IN THE AC SHOULD BE 123456,,701237
 40672
 40673	056115	200 04 0 00 070745 	C75310:	MOVE	4,[123456,,701234]	;PRELOAD AC WITH 123456,,701234
 40674	056116	666 04 0 00 000003 		TRON	4,3			;*TRON SHOULD NOT  SKIP AND
 40675										;PLACE 123456,,701237 INTO THE AC
 40676	056117	334 00 0 00 000000 		SKIPA				;PASS IF TRON DID NOT SKIP
 40677						STOP^
 40678	056120	254 04 0 00 056121 		HALT	.+1		;TEST FAILED IF PROGRAM HALTS HERE
 40679	056121	324 00 0 00 056122 		JUMPA	.+1		;IF TEST FAILS, CHANGE THIS INSTRUCTION (JUMPA .+1) TO
 40680									;JUMPA X (X IS THE ADDRESS OF THE FIRST INSTRUCTION
 40681									;IN THE SUBTEST) TO LOOP ON ERROR^
 40682	056122	312 04 0 00 070776 		CAME	4,[123456,,701237]	;PASS IF C(AC)=123456,701237
 40683						STOP^
 40684	056123	254 04 0 00 056124 		HALT	.+1		;TEST FAILED IF PROGRAM HALTS HERE
 40685	056124	324 00 0 00 056125 		JUMPA	.+1		;IF TEST FAILS, CHANGE THIS INSTRUCTION (JUMPA .+1) TO
 40686									;JUMPA X (X IS THE ADDRESS OF THE FIRST INSTRUCTION
 40687									;IN THE SUBTEST) TO LOOP ON ERROR^
 40688
 40689					;**********
DFKAA PDP-10 KL10 BASIC INSTRUCTION DIAGNOSTIC (1) VER 0,2	MACRO %52(537) 09:34 31-JAN-77 PAGE 95
DFKAA6	MAC	25-AUG-75 14:01		TEST OF MSCL LOGICAL TEST INSTRUCTIONS                                             SEQ 0939

 40690					;THIS TEST VERIFIES THAT TLON SKIPS THE NEXT SEQUENTIAL INSTRUCTION
 40691					;IF AND ONLY IF NOT ALL BITS IN AC-LEFT CORRESPONDING TO 1'S IN E ARE ZERO.
 40692					;THESE MASKED AC BITS ARE THEN CHANGED TO ONES
 40693					;IN THIS CASE, C(AC)-123456,,701234 AND E=3
 40694					;HENCE, TLON SHOULD SKIP THE NEXT SEQUENTIAL INSTRUCTION
 40695					;AND THE RESULT IN THE AC SHOULD BE 123457,,701234
 40696
 40697	056125	200 03 0 00 070745 	C75400:	MOVE	3,[123456,,701234]	;PRELOAD AC WITH 123456,,701234
 40698	056126	667 03 0 00 000003 		TLON	3,3			;*TLON SHOULD SKIP AND
 40699										;PLACE 123457,,701234 INTO THE AC
 40700						STOP^
 40701	056127	254 04 0 00 056130 		HALT	.+1		;TEST FAILED IF PROGRAM HALTS HERE
 40702	056130	324 00 0 00 056131 		JUMPA	.+1		;IF TEST FAILS, CHANGE THIS INSTRUCTION (JUMPA .+1) TO
 40703									;JUMPA X (X IS THE ADDRESS OF THE FIRST INSTRUCTION
 40704									;IN THE SUBTEST) TO LOOP ON ERROR^
 40705	056131	312 03 0 00 071010 		CAME	3,[123457,,701234]	;PASS IF C(AC)=123457,,701234
 40706						STOP^
 40707	056132	254 04 0 00 056133 		HALT	.+1		;TEST FAILED IF PROGRAM HALTS HERE
 40708	056133	324 00 0 00 056134 		JUMPA	.+1		;IF TEST FAILS, CHANGE THIS INSTRUCTION (JUMPA .+1) TO
 40709									;JUMPA X (X IS THE ADDRESS OF THE FIRST INSTRUCTION
 40710									;IN THE SUBTEST) TO LOOP ON ERROR^
 40711
 40712					;*******
 40713
 40714					;THIS TEST VERIFIES THAT TLON SKIPS THE NEXT SEQUENTIAL INSTRUCTION
 40715					;IF AND ONLY IF NOT ALL BITS IN AC-LEFT CORRESPONDING TO 1'S IN E ARE ZERO.
 40716					;THESE MASKED AC BITS ARE THEN CHANGED TO ONES
 40717					;IN THIS CASE, C(AC)=123456,,701234 AND E=300
 40718					;HENCE, TLON SHOULD NOT SKIP THE NEXT SEQUENTIAL INSTRUCTION
 40719					;AND THE RESULT IN THE AC SHOULD BE 123756,,701234
 40720
 40721	056134	200 02 0 00 070745 	C75410:	MOVE	2,[123456,,701234]	;PRELOAD AC WITH 123456,,701234
 40722	056135	667 02 0 00 000300 		TLON	2,300			;*TLON SHOULD NOT SKIP AND
 40723										;PLACE 123756,,701234 INTO THE AC
 40724	056136	334 00 0 00 000000 		SKIPA				;PASS IF TLON DID NOT SKIP
 40725						STOP^
 40726	056137	254 04 0 00 056140 		HALT	.+1		;TEST FAILED IF PROGRAM HALTS HERE
 40727	056140	324 00 0 00 056141 		JUMPA	.+1		;IF TEST FAILS, CHANGE THIS INSTRUCTION (JUMPA .+1) TO
 40728									;JUMPA X (X IS THE ADDRESS OF THE FIRST INSTRUCTION
 40729									;IN THE SUBTEST) TO LOOP ON ERROR^
 40730	056141	312 02 0 00 071000 		CAME	2,[123756,,701234]	;PASS IF C(AC)=123756,,701234
 40731						STOP^
 40732	056142	254 04 0 00 056143 		HALT	.+1		;TEST FAILED IF PROGRAM HALTS HERE
 40733	056143	324 00 0 00 056144 		JUMPA	.+1		;IF TEST FAILS, CHANGE THIS INSTRUCTION (JUMPA .+1) TO
 40734									;JUMPA X (X IS THE ADDRESS OF THE FIRST INSTRUCTION
 40735									;IN THE SUBTEST) TO LOOP ON ERROR^
 40736
 40737					;**********
DFKAA PDP-10 KL10 BASIC INSTRUCTION DIAGNOSTIC (1) VER 0,2	MACRO %52(537) 09:34 31-JAN-77 PAGE 96
DFKAA6	MAC	25-AUG-75 14:01		TEST OF MSCL LOGICAL TEST INSTRUCTIONS                                             SEQ 0940

 40738					;THIS TEST VERIFIES THAT TDOE SKIPS THE NEXT SEQUENTIAL INSTRUCTION
 40739					;IF AND ONLY IF ALL BITS IN THE AC CORRESPONDING TO 1'S IN
 40740					;C(E)ARE ZERO.  THESE MASKED
 40741					;AC BITS ARE THEN CHANGED TO ONES
 40742					;IN THIS CASE, C(AC)=123456,,701234 AND C(E)=654321,,076543
 40743					;HENCE, TDOE SHOULD SKIP AND THE RESULT IN AC
 40744					;SHOULD BE -1,,-1  C(E) IS NOT AFFECTED
 40745
 40746	056144	200 01 0 00 070745 	C75500:	MOVE	1,[123456,,701234]	;PRELOAD AC WITH 123456,,701234
 40747	056145	200 02 0 00 070763 		MOVE	2,[654321,,076543]	;PRELOAD E WITH 654321,,076543
 40748	056146	672 01 0 00 000002 		TDOE	1,2			;*TDOE SHOULD SKIP AND
 40749										;PLACE -1,,-1 INTO THE AC
 40750						STOP^
 40751	056147	254 04 0 00 056150 		HALT	.+1		;TEST FAILED IF PROGRAM HALTS HERE
 40752	056150	324 00 0 00 056151 		JUMPA	.+1		;IF TEST FAILS, CHANGE THIS INSTRUCTION (JUMPA .+1) TO
 40753									;JUMPA X (X IS THE ADDRESS OF THE FIRST INSTRUCTION
 40754									;IN THE SUBTEST) TO LOOP ON ERROR^
 40755	056151	312 01 0 00 070254 		CAME	1,[-1]			;PASS IF C(AC)=-1,,-1
 40756						STOP^
 40757	056152	254 04 0 00 056153 		HALT	.+1		;TEST FAILED IF PROGRAM HALTS HERE
 40758	056153	324 00 0 00 056154 		JUMPA	.+1		;IF TEST FAILS, CHANGE THIS INSTRUCTION (JUMPA .+1) TO
 40759									;JUMPA X (X IS THE ADDRESS OF THE FIRST INSTRUCTION
 40760									;IN THE SUBTEST) TO LOOP ON ERROR^
 40761	056154	312 02 0 00 070763 		CAME	2,[654321,,76543]	;PASS IF C(E) UNCHANGED
 40762						STOP^
 40763	056155	254 04 0 00 056156 		HALT	.+1		;TEST FAILED IF PROGRAM HALTS HERE
 40764	056156	324 00 0 00 056157 		JUMPA	.+1		;IF TEST FAILS, CHANGE THIS INSTRUCTION (JUMPA .+1) TO
 40765									;JUMPA X (X IS THE ADDRESS OF THE FIRST INSTRUCTION
 40766									;IN THE SUBTEST) TO LOOP ON ERROR^
 40767
 40768					;**********
 40769
 40770					;THIS TEST VERIFIES THAT TDOE SKIPS THE NEXT SEQUENTAIL INSTRUCTION
 40771					;IF AND ONLY IF ALL BITS IN THE AC CORRESPONDING TO 1'S IN
 40772					;C(E) ARE ZERO.  THESE MASKED
 40773					;AC BITS ARE THEN CHANGED TO ONES
 40774					;IN THIS CASE, C(AC)=123456,,701234 AND C(E)=754321,,076543
 40775					;HENCE, TDOE SHOULD NOT SKIP AND THE RESULT IN AC
 40776					;SHOULD BE -1,,-1 C(E) IS NOT AFFECTD
 40777
 40778	056157	200 00 0 00 070745 	C75510:	MOVE	0,[123456,,701234]	;PRELOAD AC WITH 123456,,701234
 40779	056160	200 01 0 00 070764 		MOVE	1,[754321,,76543]	;PRELOAD E WITH 754321,,076543
 40780	056161	672 00 0 00 000001 		TDOE	0,1			;*TDOE SHOULD NOT SKIP AND
 40781										;PLACE -1,,-1 INTO THE AC
 40782	056162	334 00 0 00 000000 		SKIPA				;PASS IF TDOE DOES NOT SKIP
 40783						STOP^
 40784	056163	254 04 0 00 056164 		HALT	.+1		;TEST FAILED IF PROGRAM HALTS HERE
 40785	056164	324 00 0 00 056165 		JUMPA	.+1		;IF TEST FAILS, CHANGE THIS INSTRUCTION (JUMPA .+1) TO
 40786									;JUMPA X (X IS THE ADDRESS OF THE FIRST INSTRUCTION
 40787									;IN THE SUBTEST) TO LOOP ON ERROR^
 40788	056165	312 00 0 00 070254 		CAME	0,[-1]			;PASS IF C(AC)=-1,,-1
 40789						STOP^
 40790	056166	254 04 0 00 056167 		HALT	.+1		;TEST FAILED IF PROGRAM HALTS HERE
 40791	056167	324 00 0 00 056170 		JUMPA	.+1		;IF TEST FAILS, CHANGE THIS INSTRUCTION (JUMPA .+1) TO
 40792									;JUMPA X (X IS THE ADDRESS OF THE FIRST INSTRUCTION
DFKAA PDP-10 KL10 BASIC INSTRUCTION DIAGNOSTIC (1) VER 0,2	MACRO %52(537) 09:34 31-JAN-77 PAGE 96-1
DFKAA6	MAC	25-AUG-75 14:01		TEST OF MSCL LOGICAL TEST INSTRUCTIONS                                             SEQ 0941

 40793									;IN THE SUBTEST) TO LOOP ON ERROR^
 40794	056170	312 01 0 00 070764 		CAME	1,[754321,,76543]	;PASS IF C(E) UNCHANGED
 40795						STOP^
 40796	056171	254 04 0 00 056172 		HALT	.+1		;TEST FAILED IF PROGRAM HALTS HERE
 40797	056172	324 00 0 00 056173 		JUMPA	.+1		;IF TEST FAILS, CHANGE THIS INSTRUCTION (JUMPA .+1) TO
 40798									;JUMPA X (X IS THE ADDRESS OF THE FIRST INSTRUCTION
 40799									;IN THE SUBTEST) TO LOOP ON ERROR^
 40800
 40801					;**********
DFKAA PDP-10 KL10 BASIC INSTRUCTION DIAGNOSTIC (1) VER 0,2	MACRO %52(537) 09:34 31-JAN-77 PAGE 97
DFKAA6	MAC	25-AUG-75 14:01		TEST OF MSCL LOGICAL TEST INSTRUCTIONS                                             SEQ 0942

 40802					;THIS TEST VERIFIES THAT TSOE SKIPS THE NEXT SEQUENTIAL INSTRUCTION
 40803					;IF AND ONLY IF ALL BITS IN THE AC CORRESPONDING TO 1'S IN
 40804					;C(E) WITH BOTH HALVES SWAPPED ARE ZERO.  THESE MASKED
 40805					;AC BITS ARE THEN CHANGED TO ONES.
 40806					;IN THIS CASE, C(AC)=123456,,701234 AND C(E)=076543,,654321
 40807					;HENCE, TSOE SHOULD SKIP AND THE RESULT IN AC
 40808					;SHOULD BE -1,,-1.  C(E) IS NOT AFFECTED
 40809
 40810	056173	200 17 0 00 070745 	C75600:	MOVE	17,[123456,,701234]	;PRELOAD AC WITH 123456,,701234
 40811	056174	200 00 0 00 070754 		MOVE	0,[76543,,654321]	;PRELOAD E WITH 076543,,654321
 40812	056175	673 17 0 00 000000 		TSOE	17,0			;*TSOE SHOULD SKIP AND
 40813										;PLACE -1,,-1 INTO THE AC
 40814						STOP^
 40815	056176	254 04 0 00 056177 		HALT	.+1		;TEST FAILED IF PROGRAM HALTS HERE
 40816	056177	324 00 0 00 056200 		JUMPA	.+1		;IF TEST FAILS, CHANGE THIS INSTRUCTION (JUMPA .+1) TO
 40817									;JUMPA X (X IS THE ADDRESS OF THE FIRST INSTRUCTION
 40818									;IN THE SUBTEST) TO LOOP ON ERROR^
 40819	056200	312 17 0 00 070254 		CAME	17,[-1]			;PASS IF C(AC)=-1,,-1
 40820						STOP^
 40821	056201	254 04 0 00 056202 		HALT	.+1		;TEST FAILED IF PROGRAM HALTS HERE
 40822	056202	324 00 0 00 056203 		JUMPA	.+1		;IF TEST FAILS, CHANGE THIS INSTRUCTION (JUMPA .+1) TO
 40823									;JUMPA X (X IS THE ADDRESS OF THE FIRST INSTRUCTION
 40824									;IN THE SUBTEST) TO LOOP ON ERROR^
 40825	056203	312 00 0 00 070754 		CAME	0,[76543,,654321]	;PASS IF C(E) UNCHANGED
 40826						STOP^
 40827	056204	254 04 0 00 056205 		HALT	.+1		;TEST FAILED IF PROGRAM HALTS HERE
 40828	056205	324 00 0 00 056206 		JUMPA	.+1		;IF TEST FAILS, CHANGE THIS INSTRUCTION (JUMPA .+1) TO
 40829									;JUMPA X (X IS THE ADDRESS OF THE FIRST INSTRUCTION
 40830									;IN THE SUBTEST) TO LOOP ON ERROR^
 40831
 40832					;**********
 40833
 40834					;THIS TEST VERIFIES THAT TSOE SKIPS THE NEXT SEQUENTIAL INSTRUCTION
 40835					;IF AND ONLY IF ALL BITS IN THE AC CORRESPONDING TO 1'S IN
 40836					;C(E) WITH BOTH HALVES SWAPPED ARE ZERO.  THESE MASKED
 40837					;AC BITS ARE THEN  CHANGED TO ONES.
 40838					;IN THIS CASE, C(AC)=123456,,701234 AND C(E)=076543,,657321
 40839					;HENCE, TSOE SHOULD NOT SKIP AND THE RESULT IN THE AC
 40840					;SHOULD BE -1,,-1 C(E) IS NOT AFFECTED.
 40841
 40842	056206	200 16 0 00 070745 	C75610:	MOVE	16,[123456,,701234]	;PRELOAD AC WITH 123456,701234
 40843	056207	200 17 0 00 070766 		MOVE	17,[76543,,657321]	;PRELOAD E WITH 076543,,657321
 40844	056210	673 16 0 00 000017 		TSOE	16,17			;*TSOE SHOULD NOT SKIP AND
 40845										;*TSOE SHOULD NOT SKIP AND
 40846										;PLACE -1,,-1 INTO THE AC
 40847	056211	334 00 0 00 000000 		SKIPA				;PASS IF SKIP
 40848						STOP^
 40849	056212	254 04 0 00 056213 		HALT	.+1		;TEST FAILED IF PROGRAM HALTS HERE
 40850	056213	324 00 0 00 056214 		JUMPA	.+1		;IF TEST FAILS, CHANGE THIS INSTRUCTION (JUMPA .+1) TO
 40851									;JUMPA X (X IS THE ADDRESS OF THE FIRST INSTRUCTION
 40852									;IN THE SUBTEST) TO LOOP ON ERROR^
 40853	056214	312 16 0 00 070254 		CAME	16,[-1]			;PASS IF C(AC)=-1,,-1
 40854						STOP^
 40855	056215	254 04 0 00 056216 		HALT	.+1		;TEST FAILED IF PROGRAM HALTS HERE
 40856	056216	324 00 0 00 056217 		JUMPA	.+1		;IF TEST FAILS, CHANGE THIS INSTRUCTION (JUMPA .+1) TO
DFKAA PDP-10 KL10 BASIC INSTRUCTION DIAGNOSTIC (1) VER 0,2	MACRO %52(537) 09:34 31-JAN-77 PAGE 97-1
DFKAA6	MAC	25-AUG-75 14:01		TEST OF MSCL LOGICAL TEST INSTRUCTIONS                                             SEQ 0943

 40857									;JUMPA X (X IS THE ADDRESS OF THE FIRST INSTRUCTION
 40858									;IN THE SUBTEST) TO LOOP ON ERROR^
 40859	056217	312 17 0 00 070766 		CAME	17,[76543,,657321]	;PASS IF C(E) UNCHANGED
 40860						STOP^
 40861	056220	254 04 0 00 056221 		HALT	.+1		;TEST FAILED IF PROGRAM HALTS HERE
 40862	056221	324 00 0 00 056222 		JUMPA	.+1		;IF TEST FAILS, CHANGE THIS INSTRUCTION (JUMPA .+1) TO
 40863									;JUMPA X (X IS THE ADDRESS OF THE FIRST INSTRUCTION
 40864									;IN THE SUBTEST) TO LOOP ON ERROR^
 40865
 40866					;**********
DFKAA PDP-10 KL10 BASIC INSTRUCTION DIAGNOSTIC (1) VER 0,2	MACRO %52(537) 09:34 31-JAN-77 PAGE 98
DFKAA6	MAC	25-AUG-75 14:01		TEST OF MSCL LOGICAL TEST INSTRUCTIONS                                             SEQ 0944

 40867					;THIS TEST VERIFIES THAT TDOA PLACES ONES INTO ALL BITS OF THE AC WHICH
 40868					;CORRRESPOND TO 1'S IN C(E) AND ALWAYS
 40869					;SKIPS THE NEXT INSTRUCTION C(E) IS NOT AFFECTED
 40870					;IN THIS CASE, C(AC)=123456,,701234 AND C(E)= 654321,,076543
 40871					;HENCE, TDOA SHOULD ALWAYS SKIP AND C(AC) SHOULD BE -1,,-1
 40872
 40873	056222	200 15 0 00 070745 	C75700:	MOVE	15,[123456,,701234]	;PRELOAD AC WITH 123456,,701234
 40874	056223	200 16 0 00 070763 		MOVE	16,[654321,,076543]	;PRELOAD E WITH 654321,,076543
 40875	056224	674 15 0 00 000016 		TDOA	15,16			;*TDOA SHOULD SKIP AND
 40876										;PLACE -1,,-1 INTO THE AC
 40877						STOP^
 40878	056225	254 04 0 00 056226 		HALT	.+1		;TEST FAILED IF PROGRAM HALTS HERE
 40879	056226	324 00 0 00 056227 		JUMPA	.+1		;IF TEST FAILS, CHANGE THIS INSTRUCTION (JUMPA .+1) TO
 40880									;JUMPA X (X IS THE ADDRESS OF THE FIRST INSTRUCTION
 40881									;IN THE SUBTEST) TO LOOP ON ERROR^
 40882	056227	312 15 0 00 070254 		CAME	15,[-1]			;PASS IF C(AC)=-1,,-1
 40883						STOP^
 40884	056230	254 04 0 00 056231 		HALT	.+1		;TEST FAILED IF PROGRAM HALTS HERE
 40885	056231	324 00 0 00 056232 		JUMPA	.+1		;IF TEST FAILS, CHANGE THIS INSTRUCTION (JUMPA .+1) TO
 40886									;JUMPA X (X IS THE ADDRESS OF THE FIRST INSTRUCTION
 40887									;IN THE SUBTEST) TO LOOP ON ERROR^
 40888	056232	312 16 0 00 070763 		CAME	16,[654321,,076543]	;PASS IF C(E) UNCHANGED
 40889						STOP^
 40890	056233	254 04 0 00 056234 		HALT	.+1		;TEST FAILED IF PROGRAM HALTS HERE
 40891	056234	324 00 0 00 056235 		JUMPA	.+1		;IF TEST FAILS, CHANGE THIS INSTRUCTION (JUMPA .+1) TO
 40892									;JUMPA X (X IS THE ADDRESS OF THE FIRST INSTRUCTION
 40893									;IN THE SUBTEST) TO LOOP ON ERROR^
 40894
 40895					;**********
 40896
 40897					;THIS TEST VERIFIES THAT TDOA PLACE ONES ALL BIT OF THE AC WHICH
 40898					;CORRESPOND TO 1'S IN C(E) AND ALWAYS
 40899					;SKIPS THE NEXT INSTRUCTION C(E) IS NOT AFFECTED
 40900					;IN THIS CASE, C(AC)=123456,,701234 AND C(E)=252525,,707070
 40901					;HENCE, TDOA SHOULD ALWAYS SKIP AND C(AC) SHOULD BE 373577,,707274
 40902
 40903	056235	200 14 0 00 070745 	C75710:	MOVE	14,[123456,,701234]	;PRELOAD AC WITH 123456,,701234
 40904	056236	200 15 0 00 070761 		MOVE	15,[252525,,707070]	;PRELOAD E WITH 252525,,707070
 40905	056237	674 14 0 00 000015 		TDOA	14,15			;*TDOA SHOULD SKIP AND
 40906										;PLACE 373577,707274 ONTO THE AC
 40907						STOP^
 40908	056240	254 04 0 00 056241 		HALT	.+1		;TEST FAILED IF PROGRAM HALTS HERE
 40909	056241	324 00 0 00 056242 		JUMPA	.+1		;IF TEST FAILS, CHANGE THIS INSTRUCTION (JUMPA .+1) TO
 40910									;JUMPA X (X IS THE ADDRESS OF THE FIRST INSTRUCTION
 40911									;IN THE SUBTEST) TO LOOP ON ERROR^
 40912	056242	312 14 0 00 071011 		CAME	14,[373577,,707274]	;PASS IF C(AC)=373577,,707274
 40913						STOP^
 40914	056243	254 04 0 00 056244 		HALT	.+1		;TEST FAILED IF PROGRAM HALTS HERE
 40915	056244	324 00 0 00 056245 		JUMPA	.+1		;IF TEST FAILS, CHANGE THIS INSTRUCTION (JUMPA .+1) TO
 40916									;JUMPA X (X IS THE ADDRESS OF THE FIRST INSTRUCTION
 40917									;IN THE SUBTEST) TO LOOP ON ERROR^
 40918	056245	312 15 0 00 070761 		CAME	15,[252525,,707070]	;PASS IF C(E) UNCHANGED
 40919						STOP^
 40920	056246	254 04 0 00 056247 		HALT	.+1		;TEST FAILED IF PROGRAM HALTS HERE
 40921	056247	324 00 0 00 056250 		JUMPA	.+1		;IF TEST FAILS, CHANGE THIS INSTRUCTION (JUMPA .+1) TO
DFKAA PDP-10 KL10 BASIC INSTRUCTION DIAGNOSTIC (1) VER 0,2	MACRO %52(537) 09:34 31-JAN-77 PAGE 98-1
DFKAA6	MAC	25-AUG-75 14:01		TEST OF MSCL LOGICAL TEST INSTRUCTIONS                                             SEQ 0945

 40922									;JUMPA X (X IS THE ADDRESS OF THE FIRST INSTRUCTION
 40923									;IN THE SUBTEST) TO LOOP ON ERROR^
 40924
 40925					;**********
DFKAA PDP-10 KL10 BASIC INSTRUCTION DIAGNOSTIC (1) VER 0,2	MACRO %52(537) 09:34 31-JAN-77 PAGE 99
DFKAA6	MAC	25-AUG-75 14:01		TEST OF MSCL LOGICAL TEST INSTRUCTIONS                                             SEQ 0946

 40926					;THIS TEST VERIFIES THAT TSOA PLACE ONES INTO ALL BITS OF THE AC WHICH
 40927					;CORRESPOND TO 1'S IN C(E) WITH BOTH HALVES SWAPPED AND ALWAYS
 40928					;SKIPS THE NEXT INSTRUCTION.  C(E) IS NOT AFFECTED
 40929					;IN THIS CASE, C(AC)=123456,,701234 AND C(E)=076543,,654321
 40930					;HENCE, TSOA SHOULD SLAWAYS SKIP AND C(AC) SHOULD BE -1,,-1
 40931
 40932	056250	200 13 0 00 070745 	C76000:	MOVE	13,[123456,,701234]	;PRELOAD AC WITH 123456,,701234
 40933	056251	200 14 0 00 071012 		MOVE	14,[176543,,654321]	;PRELOAD E WITH 076543,,654321
 40934	056252	675 13 0 00 000014 		TSOA	13,14			;*TSOA SHOULD SKIP AND
 40935										;PLACE -1,,-1 ONTO THE AC
 40936						STOP^
 40937	056253	254 04 0 00 056254 		HALT	.+1		;TEST FAILED IF PROGRAM HALTS HERE
 40938	056254	324 00 0 00 056255 		JUMPA	.+1		;IF TEST FAILS, CHANGE THIS INSTRUCTION (JUMPA .+1) TO
 40939									;JUMPA X (X IS THE ADDRESS OF THE FIRST INSTRUCTION
 40940									;IN THE SUBTEST) TO LOOP ON ERROR^
 40941	056255	312 13 0 00 070254 		CAME	13,[-1]			;PASS IF C(AC)=-1,,-1
 40942						STOP^
 40943	056256	254 04 0 00 056257 		HALT	.+1		;TEST FAILED IF PROGRAM HALTS HERE
 40944	056257	324 00 0 00 056260 		JUMPA	.+1		;IF TEST FAILS, CHANGE THIS INSTRUCTION (JUMPA .+1) TO
 40945									;JUMPA X (X IS THE ADDRESS OF THE FIRST INSTRUCTION
 40946									;IN THE SUBTEST) TO LOOP ON ERROR^
 40947	056260	312 14 0 00 071012 		CAME	14,[176543,,654321]	;PASS IF C(E) UNCHANGED
 40948						STOP^
 40949	056261	254 04 0 00 056262 		HALT	.+1		;TEST FAILED IF PROGRAM HALTS HERE
 40950	056262	324 00 0 00 056263 		JUMPA	.+1		;IF TEST FAILS, CHANGE THIS INSTRUCTION (JUMPA .+1) TO
 40951									;JUMPA X (X IS THE ADDRESS OF THE FIRST INSTRUCTION
 40952									;IN THE SUBTEST) TO LOOP ON ERROR^
 40953
 40954					;**********
 40955
 40956					;THIS TEST VERIFIES THAT TSOA PLACES ONES INTO ALL BITS OF THE AC WHICH
 40957					;CORRESPOND TO 1'S IN C(E) WITH BOTH HALVES SWAPPED AND ALWAYS
 40958					;SKIPS THE NEXT INSTRUCTION.  C(E) IS NOT AFFECTED
 40959					;IN THIS CASE, C(AC)=123456,,701234 AND C(E)=701234,,123456
 40960					;HENCE, TSOA SHOULD SLWAYS SKIP AND C(AC) SHOULD BE 123456,,701234
 40961
 40962	056263	200 12 0 00 070745 	C76010:	MOVE	12,[123456,,701234]	;PRELOAD AC WITH 123456,,701234
 40963	056264	200 13 0 00 070771 		MOVE	13,[701234,,123456]	;PRELOAD E WITH 701234,123456
 40964	056265	675 12 0 00 000013 		TSOA	12,13			;*TSOA SHOULD SKIP AND
 40965										;PLACE 123456,,701234 INTO THE AC
 40966						STOP^
 40967	056266	254 04 0 00 056267 		HALT	.+1		;TEST FAILED IF PROGRAM HALTS HERE
 40968	056267	324 00 0 00 056270 		JUMPA	.+1		;IF TEST FAILS, CHANGE THIS INSTRUCTION (JUMPA .+1) TO
 40969									;JUMPA X (X IS THE ADDRESS OF THE FIRST INSTRUCTION
 40970									;IN THE SUBTEST) TO LOOP ON ERROR^
 40971	056270	312 12 0 00 070745 		CAME	12,[123456,,701234]	;PASS IF C(AC)=123456,,701234
 40972						STOP^
 40973	056271	254 04 0 00 056272 		HALT	.+1		;TEST FAILED IF PROGRAM HALTS HERE
 40974	056272	324 00 0 00 056273 		JUMPA	.+1		;IF TEST FAILS, CHANGE THIS INSTRUCTION (JUMPA .+1) TO
 40975									;JUMPA X (X IS THE ADDRESS OF THE FIRST INSTRUCTION
 40976									;IN THE SUBTEST) TO LOOP ON ERROR^
 40977	056273	312 13 0 00 070771 		CAME	13,[701234,,123456]	;PASS IF C(E) UNCHANGED
 40978						STOP^
 40979	056274	254 04 0 00 056275 		HALT	.+1		;TEST FAILED IF PROGRAM HALTS HERE
 40980	056275	324 00 0 00 056276 		JUMPA	.+1		;IF TEST FAILS, CHANGE THIS INSTRUCTION (JUMPA .+1) TO
DFKAA PDP-10 KL10 BASIC INSTRUCTION DIAGNOSTIC (1) VER 0,2	MACRO %52(537) 09:34 31-JAN-77 PAGE 99-1
DFKAA6	MAC	25-AUG-75 14:01		TEST OF MSCL LOGICAL TEST INSTRUCTIONS                                             SEQ 0947

 40981									;JUMPA X (X IS THE ADDRESS OF THE FIRST INSTRUCTION
 40982									;IN THE SUBTEST) TO LOOP ON ERROR^
 40983
 40984					;**********
DFKAA PDP-10 KL10 BASIC INSTRUCTION DIAGNOSTIC (1) VER 0,2	MACRO %52(537) 09:34 31-JAN-77 PAGE 100
DFKAA6	MAC	25-AUG-75 14:01		TEST OF MSCL LOGICAL TEST INSTRUCTIONS                                             SEQ 0948

 40985					;THIS TEST VERIFIES THAT TDON SKIPS THE NEXT SEQUENTIAL INSTRUCTION
 40986					;IF AND ONLY IF ALL BITS IN THE AC CORRESPONDING TO 1'S IN
 40987					;C(E) ARE ZERO.  THESE MASKED
 40988					;AC BITS ARE THEN CHANGED TO ONES
 40989					;IN THIS CASE, C(AC)=123456,,701234 AND C(E)=654321,,076547
 40990					;HENCE, TDON SHOULD SKIP AND THE RESULT IN AC
 40991					;SHOULD BE -1,,-1  C(E) IS NOT AFFECTED
 40992
 40993	056276	200 11 0 00 070745 	C76100:	MOVE	11,[123456,,701234]	;PRELOAD AC WITH 123456,,701234
 40994	056277	200 12 0 00 070772 		MOVE	12,[654321,,076547]	;PRELOAD E WITH 654321,,076547
 40995	056300	676 11 0 00 000012 		TDON	11,12			;*TDON SHOULD SKIP AND
 40996										;PLACE -1,,-1 INTO THE AC
 40997						STOP^
 40998	056301	254 04 0 00 056302 		HALT	.+1		;TEST FAILED IF PROGRAM HALTS HERE
 40999	056302	324 00 0 00 056303 		JUMPA	.+1		;IF TEST FAILS, CHANGE THIS INSTRUCTION (JUMPA .+1) TO
 41000									;JUMPA X (X IS THE ADDRESS OF THE FIRST INSTRUCTION
 41001									;IN THE SUBTEST) TO LOOP ON ERROR^
 41002	056303	312 11 0 00 070254 		CAME	11,[-1]			;PASS IF C(AC)=-1,,-1
 41003						STOP^
 41004	056304	254 04 0 00 056305 		HALT	.+1		;TEST FAILED IF PROGRAM HALTS HERE
 41005	056305	324 00 0 00 056306 		JUMPA	.+1		;IF TEST FAILS, CHANGE THIS INSTRUCTION (JUMPA .+1) TO
 41006									;JUMPA X (X IS THE ADDRESS OF THE FIRST INSTRUCTION
 41007									;IN THE SUBTEST) TO LOOP ON ERROR^
 41008	056306	312 12 0 00 070772 		CAME	12,[654321,,076547]	;PASS IF C(E) UNCHANGED
 41009						STOP^
 41010	056307	254 04 0 00 056310 		HALT	.+1		;TEST FAILED IF PROGRAM HALTS HERE
 41011	056310	324 00 0 00 056311 		JUMPA	.+1		;IF TEST FAILS, CHANGE THIS INSTRUCTION (JUMPA .+1) TO
 41012									;JUMPA X (X IS THE ADDRESS OF THE FIRST INSTRUCTION
 41013									;IN THE SUBTEST) TO LOOP ON ERROR^
 41014
 41015					;**********
 41016
 41017					;THIS TEST VERIFIES THAT TDON SKIPS THE NEXT SEQUENTIAL INSTRUCTION
 41018					;IF AND ONLY IF NOT ALL BITS IN THE AC CORRESPONDING TO 1'S IN
 41019					;C(E) ARE ZERO.  THESE MASKED
 41020					;AC BITS ARE THEN CHANGED TO ONES.
 41021					;IN THIS CASE, C(AC)=123456,,701234 AND C(E)=654321,,076543
 41022					;THENC, TDON SHOULD NOT SKIP AND THE RESULT IN TH AC
 41023					;SHOULD BE -1,,-1 C(E) IS NOT AFFECTED
 41024
 41025	056311	200 10 0 00 070745 	C76110:	MOVE	10,[123456,,701234]	;PRELOAD AC WITH 123456,,701234
 41026	056312	200 11 0 00 070763 		MOVE	11,[654321,,076543]	;PRELOAD E WITH 654321,,076543
 41027	056313	676 10 0 00 000011 		TDON	10,11			;*TDON SHOULD NOT SKIP AND
 41028										;PLACE -1,,-1 INTO THE AC
 41029	056314	334 00 0 00 000000 		SKIPA				;PASS IF TDON DOES NOT SKIP
 41030						STOP	^
 41031	056315	254 04 0 00 056316 		HALT	.+1		;TEST FAILED IF PROGRAM HALTS HERE
 41032	056316	324 00 0 00 056317 		JUMPA	.+1		;IF TEST FAILS, CHANGE THIS INSTRUCTION (JUMPA .+1) TO
 41033									;JUMPA X (X IS THE ADDRESS OF THE FIRST INSTRUCTION
 41034									;IN THE SUBTEST) TO LOOP ON ERROR^
 41035	056317	312 10 0 00 070254 		CAME	10,[-1]			;PASS IF C(AC)=-1,,-1
 41036						STOP^
 41037	056320	254 04 0 00 056321 		HALT	.+1		;TEST FAILED IF PROGRAM HALTS HERE
 41038	056321	324 00 0 00 056322 		JUMPA	.+1		;IF TEST FAILS, CHANGE THIS INSTRUCTION (JUMPA .+1) TO
 41039									;JUMPA X (X IS THE ADDRESS OF THE FIRST INSTRUCTION
DFKAA PDP-10 KL10 BASIC INSTRUCTION DIAGNOSTIC (1) VER 0,2	MACRO %52(537) 09:34 31-JAN-77 PAGE 100-1
DFKAA6	MAC	25-AUG-75 14:01		TEST OF MSCL LOGICAL TEST INSTRUCTIONS                                             SEQ 0949

 41040									;IN THE SUBTEST) TO LOOP ON ERROR^
 41041	056322	312 11 0 00 070763 		CAME	11,[654321,,076543]	;PASS IF C(E) UNCHANGED
 41042						STOP^
 41043	056323	254 04 0 00 056324 		HALT	.+1		;TEST FAILED IF PROGRAM HALTS HERE
 41044	056324	324 00 0 00 056325 		JUMPA	.+1		;IF TEST FAILS, CHANGE THIS INSTRUCTION (JUMPA .+1) TO
 41045									;JUMPA X (X IS THE ADDRESS OF THE FIRST INSTRUCTION
 41046									;IN THE SUBTEST) TO LOOP ON ERROR^
 41047
 41048					;**********
DFKAA PDP-10 KL10 BASIC INSTRUCTION DIAGNOSTIC (1) VER 0,2	MACRO %52(537) 09:34 31-JAN-77 PAGE 101
DFKAA6	MAC	25-AUG-75 14:01		TEST OF MSCL LOGICAL TEST INSTRUCTIONS                                             SEQ 0950

 41049					;THIS TEST VERIFIES THAT TSON SKIPS THE NEXT SEQUENTIAL INSTRUCTION
 41050					;IF AND ONLY IF NOT ALL BITS IN THE AC CORRESPONDING TO 1'S IN
 41051					;C(E) WITH BOTH HALVE SWAPPED ARE ZERO.  THESE MASKED
 41052					;AC BITS ARE THEN CHANGED TO ONES
 41053					;IN THIS CASE, C(AC)=123456,,701234 AND C(E)=077543,,654321
 41054					;HENCE, TSON SHOULD SKIP AND THE RESULT IN AC
 41055					;SHOULD BE -1,,-1  C(E) IS NOT AFFECTED
 41056
 41057	056325	200 07 0 00 070745 	C76200:	MOVE	7,[123456,,701234]	;PRELOAD AC WITH 123456,,701234
 41058	056326	200 10 0 00 070774 		MOVE	10,[77543,,654321]	;PRELOAD E WITH 077543,,654321]
 41059	056327	677 07 0 00 000010 		TSON	7,10			;*TSON HOULD SKIP AND
 41060										;PLACE -1,,-1 INTO THE AC
 41061						STOP^
 41062	056330	254 04 0 00 056331 		HALT	.+1		;TEST FAILED IF PROGRAM HALTS HERE
 41063	056331	324 00 0 00 056332 		JUMPA	.+1		;IF TEST FAILS, CHANGE THIS INSTRUCTION (JUMPA .+1) TO
 41064									;JUMPA X (X IS THE ADDRESS OF THE FIRST INSTRUCTION
 41065									;IN THE SUBTEST) TO LOOP ON ERROR^
 41066	056332	312 07 0 00 070254 		CAME	7,[-1]			;PASS IF C(AC)=-1,,-1
 41067						STOP^
 41068	056333	254 04 0 00 056334 		HALT	.+1		;TEST FAILED IF PROGRAM HALTS HERE
 41069	056334	324 00 0 00 056335 		JUMPA	.+1		;IF TEST FAILS, CHANGE THIS INSTRUCTION (JUMPA .+1) TO
 41070									;JUMPA X (X IS THE ADDRESS OF THE FIRST INSTRUCTION
 41071									;IN THE SUBTEST) TO LOOP ON ERROR^
 41072	056335	312 10 0 00 070774 		CAME	10,[77543,,654321]	;PASS IF C(E) UNCHANGED
 41073						STOP^
 41074	056336	254 04 0 00 056337 		HALT	.+1		;TEST FAILED IF PROGRAM HALTS HERE
 41075	056337	324 00 0 00 056340 		JUMPA	.+1		;IF TEST FAILS, CHANGE THIS INSTRUCTION (JUMPA .+1) TO
 41076									;JUMPA X (X IS THE ADDRESS OF THE FIRST INSTRUCTION
 41077									;IN THE SUBTEST) TO LOOP ON ERROR^
 41078
 41079					;**********
 41080
 41081					;THIS TEST VERIFIES THAT TSON SKIPS THE NEXT SEQUENTIAL INSTRUCTION
 41082					;IF AND ONLY IF NOT ALL BITS IN THE AC CORRESPONDING TO 1'S IN
 41083					;C(E) WITH BOTH HALVES SWAPPED ARE ZERO.  THESE MASKED
 41084					;AC BITS ARE THEN CHANGED TO ONES.
 41085					;IN THIS CASE, C(AC)=123456,,701234 AND C(E)=076543,,654321
 41086					;HENCE, TSON SHOULD NOT SKIP AND THE RESULT IN AC
 41087					;SHOULD BE -1,,-1  C(E) IS NOT AFFECTED
 41088
 41089	056340	200 06 0 00 070745 	C76210:	MOVE	6,[123456,,701234]	;PRELOAD AC WITH 123456,,701234
 41090	056341	200 07 0 00 070754 		MOVE	7,[76543,,654321]	;PRELOAD E WITH 076543MM654321
 41091	056342	677 06 0 00 000007 		TSON	6,7			;*TSON SHOULD NOT SKIP AND
 41092										;PLACE -1,,-1 INTO THE AC
 41093	056343	334 00 0 00 000000 		SKIPA				;PASS IF TSON DOES NOT SKIP
 41094						STOP^
 41095	056344	254 04 0 00 056345 		HALT	.+1		;TEST FAILED IF PROGRAM HALTS HERE
 41096	056345	324 00 0 00 056346 		JUMPA	.+1		;IF TEST FAILS, CHANGE THIS INSTRUCTION (JUMPA .+1) TO
 41097									;JUMPA X (X IS THE ADDRESS OF THE FIRST INSTRUCTION
 41098									;IN THE SUBTEST) TO LOOP ON ERROR^
 41099	056346	312 06 0 00 070254 		CAME	6,[-1]			;PASS IF C(AC)-=1,,-1
 41100						STOP^
 41101	056347	254 04 0 00 056350 		HALT	.+1		;TEST FAILED IF PROGRAM HALTS HERE
 41102	056350	324 00 0 00 056351 		JUMPA	.+1		;IF TEST FAILS, CHANGE THIS INSTRUCTION (JUMPA .+1) TO
 41103									;JUMPA X (X IS THE ADDRESS OF THE FIRST INSTRUCTION
DFKAA PDP-10 KL10 BASIC INSTRUCTION DIAGNOSTIC (1) VER 0,2	MACRO %52(537) 09:34 31-JAN-77 PAGE 101-1
DFKAA6	MAC	25-AUG-75 14:01		TEST OF MSCL LOGICAL TEST INSTRUCTIONS                                             SEQ 0951

 41104									;IN THE SUBTEST) TO LOOP ON ERROR^
 41105	056351	312 07 0 00 070754 		CAME	7,[76543,,654321]	;PASS IF C(E) UNCHANGED
 41106						STOP^
 41107	056352	254 04 0 00 056353 		HALT	.+1		;TEST FAILED IF PROGRAM HALTS HERE
 41108	056353	324 00 0 00 056354 		JUMPA	.+1		;IF TEST FAILS, CHANGE THIS INSTRUCTION (JUMPA .+1) TO
 41109									;JUMPA X (X IS THE ADDRESS OF THE FIRST INSTRUCTION
 41110									;IN THE SUBTEST) TO LOOP ON ERROR^
 41111
 41112					;**********
DFKAA PDP-10 KL10 BASIC INSTRUCTION DIAGNOSTIC (1) VER 0,2	MACRO %52(537) 09:34 31-JAN-77 PAGE 1
DFKAA7	MAC	25-AUG-75 14:03		TEST OF PUSH INSTRUCTION                                                           SEQ 0952

 41113					SUBTTL	TEST OF PUSH INSTRUCTION
 41114
 41115					;**********
 41116
 41117					;THIS TEST VERIFIES THAT PUSH DECODES CORRECTLY.
 41118					;IF PUSH DECODES AS PUSHJ, THIS TEST FAILS.
 41119
 41120	056354	400 02 0 00 000000 	C27200:	SETZ	2,		;CLEAR AC
 41121	056355	261 02 0 00 056357 		PUSH	2,.+2		;*PUSH SHOULD NOT JUMP
 41122	056356	334 00 0 00 000000 		SKIPA			;PASS IF PUSH DID NOT JUMP
 41123						STOP^
 41124	056357	254 04 0 00 056360 		HALT	.+1		;TEST FAILED IF PROGRAM HALTS HERE
 41125	056360	324 00 0 00 056361 		JUMPA	.+1		;IF TEST FAILS, CHANGE THIS INSTRUCTION (JUMPA .+1) TO
 41126									;JUMPA X (X IS THE ADDRESS OF THE FIRST INSTRUCTION
 41127									;IN THE SUBTEST) TO LOOP ON ERROR^
 41128
 41129					;**********
 41130
 41131					;THIS TEST VERIFIES THAT PUSH DOES NOT MODIFY C(E).
 41132					;CLEAR E AND AC; THEN, EXECUTE PUSH.
 41133					;CHECK E FOR ORIGINAL CONTENTS ,0.
 41134					;PASS IF C(E)=0.
 41135
 41136	056361	403 00 0 00 000002 	C27300:	SETZB	2		;CLEAR AC,E
 41137	056362	261 02 0 00 000000 		PUSH	2,		;*PUSH SHOULD NOT ALTER C(E)
 41138	056363	332 00 0 00 000000 		SKIPE			;PASS IF C(E)=0,,0
 41139						STOP^
 41140	056364	254 04 0 00 056365 		HALT	.+1		;TEST FAILED IF PROGRAM HALTS HERE
 41141	056365	324 00 0 00 056366 		JUMPA	.+1		;IF TEST FAILS, CHANGE THIS INSTRUCTION (JUMPA .+1) TO
 41142									;JUMPA X (X IS THE ADDRESS OF THE FIRST INSTRUCTION
 41143									;IN THE SUBTEST) TO LOOP ON ERROR^
 41144
 41145					;**********
DFKAA PDP-10 KL10 BASIC INSTRUCTION DIAGNOSTIC (1) VER 0,2	MACRO %52(537) 09:34 31-JAN-77 PAGE 2
DFKAA7	MAC	25-AUG-75 14:03		TEST OF PUSH INSTRUCTION                                                           SEQ 0953

 41146					;THIS TEST VERIFIES THAT PUSH ADDS 1,,1 TO THE AC.
 41147					;FIRST THE AC IS CLEARED; THEN PUSH IS EXECUTED.
 41148					;THE AC IS CHECKED FOR 1,,1.  IF C(AC)=1,,1, THIS TEST PASSES.
 41149
 41150	056366	400 02 0 00 000000 	C27400:	SETZ	2,		;CLEAR AC
 41151	056367	261 02 0 00 056370 		PUSH	2,.+1		;*PUSH SHOULD ADD 1,,1 TO C(AC)
 41152	056370	312 02 0 00 070251 		CAME	2,[XWD 1,1]	;PASS IF C(AC)=1,,1
 41153						STOP^
 41154	056371	254 04 0 00 056372 		HALT	.+1		;TEST FAILED IF PROGRAM HALTS HERE
 41155	056372	324 00 0 00 056373 		JUMPA	.+1		;IF TEST FAILS, CHANGE THIS INSTRUCTION (JUMPA .+1) TO
 41156									;JUMPA X (X IS THE ADDRESS OF THE FIRST INSTRUCTION
 41157									;IN THE SUBTEST) TO LOOP ON ERROR^
 41158
 41159					;**********
 41160
 41161					;THIS TEST VERIFIES THAT PUSH ADDS 1,,1 TO THE AC BEFORE MODIFYING C(C(AC-RIGHT)).
 41162					;FIRST, THE AC AND AC0 ARE ZEROED; THEN PUSH IS EXECUTED.
 41163					;C(C(AC-RIGHT)) [BEFORE AC UPDATING] (AC0) IS CHECKED FOR THE INITIAL VALUE, 0.
 41164					;IF C(AC0)=0, THIS TEST PASSES
 41165
 41166	056373	403 00 0 00 000002 	C27500:	SETZB	2		;CLEAR AC AND AC0
 41167	056374	261 02 0 00 071013 		PUSH	2,[16541320]	;*PUSH SHOULD NOT MODIFY C(AC0)
 41168	056375	332 00 0 00 000000 		SKIPE			;PASS IF C(AC0)=0
 41169						STOP^
 41170	056376	254 04 0 00 056377 		HALT	.+1		;TEST FAILED IF PROGRAM HALTS HERE
 41171	056377	324 00 0 00 056400 		JUMPA	.+1		;IF TEST FAILS, CHANGE THIS INSTRUCTION (JUMPA .+1) TO
 41172									;JUMPA X (X IS THE ADDRESS OF THE FIRST INSTRUCTION
 41173									;IN THE SUBTEST) TO LOOP ON ERROR^
 41174
 41175					;**********
DFKAA PDP-10 KL10 BASIC INSTRUCTION DIAGNOSTIC (1) VER 0,2	MACRO %52(537) 09:34 31-JAN-77 PAGE 3
DFKAA7	MAC	25-AUG-75 14:03		TEST OF PUSH INSTRUCTION                                                           SEQ 0954

 41176					;THIS TEST VERIFIES THAT PUSH ADDS 1,,1 TO THE AC BEFORE MODIFYING C(C(AC-RIGHT)).
 41177					;FIRST, THE AC AND AC0 ARE ZEROED; THEN PUSH IS EXECUTED.
 41178					;C(C(AC-RIGHT)) [BEFORE AC UPDATING] (AC0) IS CHECKED FOR
 41179					;IF C(AC0)IS NOT EQUAL TO E, THIS TEST PASSES
 41180
 41181	056400	403 01 0 00 000002 	C27600:	SETZB	1,2		;CLEAR AC AND AC0
 41182	056401	261 02 0 00 056402 		PUSH	2,.+1		;*PUSH SHOULD NOT MODIFY C(AC0)
 41183	056402	306 00 0 00 056402 		CAIN	.		;FAIL IF C(AC0)=E
 41184						STOP^
 41185	056403	254 04 0 00 056404 		HALT	.+1		;TEST FAILED IF PROGRAM HALTS HERE
 41186	056404	324 00 0 00 056405 		JUMPA	.+1		;IF TEST FAILS, CHANGE THIS INSTRUCTION (JUMPA .+1) TO
 41187									;JUMPA X (X IS THE ADDRESS OF THE FIRST INSTRUCTION
 41188									;IN THE SUBTEST) TO LOOP ON ERROR^
 41189
 41190					;**********
 41191
 41192					;THIS TEST VERIFIES THAT PUSH ADDS 1,,1 TO THE AC; THEN, MOVES C(E) INTO
 41193					;THE LOCATION SPECIFIED BY C(AC-RIGHT).  IN THIS CASE, AC AND THE LOCATION SPECIFIED
 41194					;BY UPDATING C(AC-RIGHT) ARE CLEARED; THEN, PUSH IS EXECUTED WITH C(E)=-1,,-1.
 41195					;THE LOCATION SPECIFIED BY C(AC-RIGHT) IS THEN CHECKED FOR -1,,-1, THE
 41196					;ORIGINAL C(E).  IF C(C(AC-RIGHT))=-1,,-1, THIS TEST PASSES.
 41197
 41198	056405	403 01 0 00 000002 	C27700:	SETZB	1,2		;CLEAR AC, C(AC-RIGHT)
 41199	056406	261 02 0 00 070254 		PUSH	2,[-1]		;*PUSH SHOULD PLACE -1,,-1 INTO AC1
 41200	056407	312 01 0 00 070254 		CAME	1,[-1]		;PASS IF C(1)=-1,,-1
 41201						STOP^
 41202	056410	254 04 0 00 056411 		HALT	.+1		;TEST FAILED IF PROGRAM HALTS HERE
 41203	056411	324 00 0 00 056412 		JUMPA	.+1		;IF TEST FAILS, CHANGE THIS INSTRUCTION (JUMPA .+1) TO
 41204									;JUMPA X (X IS THE ADDRESS OF THE FIRST INSTRUCTION
 41205									;IN THE SUBTEST) TO LOOP ON ERROR^
 41206
 41207					;**********
DFKAA PDP-10 KL10 BASIC INSTRUCTION DIAGNOSTIC (1) VER 0,2	MACRO %52(537) 09:34 31-JAN-77 PAGE 4
DFKAA7	MAC	25-AUG-75 14:03		TEST OF PUSH INSTRUCTION                                                           SEQ 0955

 41208					;THIS TEST VERIFIES THAT PUSH ADDS 1,,1 TO THE AC; THEN, MOVES C(E) INTO
 41209					;THE LOCATION SPECIFIED BY C(AC-RIGHT).  IN THIS CASE, AC
 41210					;IS CLEARED; THEN, PUSH IS EXECUTED WITH C(E)=0.
 41211					;THE LOCATION SPECIFIED BY C(AC-RIGHT) IS THEN CHECKED FOR 0, THE
 41212					;ORIGINAL C(E).  IF C(C(AC-RIGHT))=0, THIS TEST PASSES.
 41213
 41214	056412	402 00 0 00 000002 	C30000:	SETZM	2		;CLEAR AC
 41215	056413	261 02 0 00 070253 		PUSH	2,[0]		;*PUSH SHOULD PLACE 0 INTO AC1
 41216	056414	332 00 0 00 000001 		SKIPE	1		;PASS IF C(1)=0
 41217						STOP^
 41218	056415	254 04 0 00 056416 		HALT	.+1		;TEST FAILED IF PROGRAM HALTS HERE
 41219	056416	324 00 0 00 056417 		JUMPA	.+1		;IF TEST FAILS, CHANGE THIS INSTRUCTION (JUMPA .+1) TO
 41220									;JUMPA X (X IS THE ADDRESS OF THE FIRST INSTRUCTION
 41221									;IN THE SUBTEST) TO LOOP ON ERROR^
 41222
 41223					;**********
 41224
 41225					;THIS TEST VERIFIES THAT PUSH ADDS 1,,1 TO THE AC; THEN, MOVES C(E) INTO
 41226					;THE LOCATION SPECIFIED BY C(AC-RIGHT).  IN THIS CASE,
 41227					;AC IS PRELOADED WITH 0,,-1, AND THE LOCATION SPECIFIED
 41228					;BY UPDATING C(AC-RIGHT) IS CLEARED; THEN, PUSH IS EXECUTED WITH C(E)=-1,,-1.
 41229					;THE LOCATION SPECIFIED BY C(AC-RIGHT) IS THEN CHECKED FOR -1,,-1, THE
 41230					;ORIGINAL C(E).  IF C(C(AC-RIGHT))=-1,,-1, THIS TEST PASSES.
 41231
 41232	056417	201 02 0 00 777777 	C30100:	MOVEI	2,-1		;PRELOAD AC WITH 0,,-1
 41233	056420	400 00 0 00 000000 		SETZ			;CLEAR AC, C(AC-RIGHT)
 41234	056421	261 02 0 00 070254 		PUSH	2,[-1]		;*PUSH SHOULD PLACE -1,,-1 INTO AC0
 41235	056422	312 00 0 00 070254 		CAME	[-1]		;PASS IF C(0)=-1,,-1
 41236						STOP^
 41237	056423	254 04 0 00 056424 		HALT	.+1		;TEST FAILED IF PROGRAM HALTS HERE
 41238	056424	324 00 0 00 056425 		JUMPA	.+1		;IF TEST FAILS, CHANGE THIS INSTRUCTION (JUMPA .+1) TO
 41239									;JUMPA X (X IS THE ADDRESS OF THE FIRST INSTRUCTION
 41240									;IN THE SUBTEST) TO LOOP ON ERROR^
 41241
 41242					;**********
DFKAA PDP-10 KL10 BASIC INSTRUCTION DIAGNOSTIC (1) VER 0,2	MACRO %52(537) 09:34 31-JAN-77 PAGE 5
DFKAA7	MAC	25-AUG-75 14:03		TEST OF PUSH INSTRUCTION                                                           SEQ 0956

 41243					;THIS TEST VERIFIES THAT THERE IS NO CARRY FROM BIT 18 TO BIT 17 OF THE AC ON PUSH.
 41244					;THE AC IS PRELOADED WITH 0,,-1; THEN PUSH IS EXECUTED. PUSH SHOULD ADD ONE
 41245					;TO BOTH HALVES OF THE AC WITHOUT GENERATING A CARRY FROM BIT 18 TO BIT 17. IF NO
 41246					;CARRY WAS GENERATED, THIS TEST PASSES
 41247
 41248	056425	201 02 0 00 777777 	C30101:	MOVEI	2,-1		;PRELOAD AC WITH 0,, -1
 41249	056426	261 02 0 00 000000 		PUSH	2,0		;*PUSH SHOULD NOT GENERATE A CARRY FROM BIT 18 TO 17
 41250	056427	312 02 0 00 070307 		CAME	2,[1,,0]	;PASS IF C(AC)=1,,0 (NO CARRY WAS GENERATED)
 41251						STOP^
 41252	056430	254 04 0 00 056431 		HALT	.+1		;TEST FAILED IF PROGRAM HALTS HERE
 41253	056431	324 00 0 00 056432 		JUMPA	.+1		;IF TEST FAILS, CHANGE THIS INSTRUCTION (JUMPA .+1) TO
 41254									;JUMPA X (X IS THE ADDRESS OF THE FIRST INSTRUCTION
 41255									;IN THE SUBTEST) TO LOOP ON ERROR^
 41256
 41257					;**********
DFKAA PDP-10 KL10 BASIC INSTRUCTION DIAGNOSTIC (1) VER 0,2	MACRO %52(537) 09:34 31-JAN-77 PAGE 6
DFKAA7	MAC	25-AUG-75 14:03		TEST OF PUSHJ INSTRUCTION                                                          SEQ 0957

 41258					SUBTTL	TEST OF PUSHJ INSTRUCTION
 41259
 41260					;**********
 41261
 41262					;THIS TEST VERIFIES THAT PUSHJ TRANSFERS CONTROL TO THE LOCATION ADDRESSED BY E.
 41263					;IF PUSHJ DOES NOT JUMP, THIS TEST FAILS
 41264
 41265	056432				C30200:	SFLAG	CRY0		^;SETS CRY0 FLAG
 41266
 41267	056432	205 01 0 00 200000 		MOVSI	1,CRY0
 41268	056433	255 17 0 00 056434 		JFCL	17,.+1	;RESET ALL FLAGS
 41269	056434	254 02 0 01 056435 		JRST	2,.+1(1)		;SET CRY0 FLAG
 41270	056435	400 00 0 00 000000 		SETZ			;CLEAR AC
 41271	056436	260 00 0 00 056440 		PUSHJ	.+2		;*PUSHJ SHOULD JUMP TO LOCATION E
 41272						STOP^
 41273	056437	254 04 0 00 056440 		HALT	.+1		;TEST FAILED IF PROGRAM HALTS HERE
 41274	056440	324 00 0 00 056441 		JUMPA	.+1		;IF TEST FAILS, CHANGE THIS INSTRUCTION (JUMPA .+1) TO
 41275									;JUMPA X (X IS THE ADDRESS OF THE FIRST INSTRUCTION
 41276									;IN THE SUBTEST) TO LOOP ON ERROR^
 41277
 41278					;**********
 41279
 41280					;THIS TEST VERIFIES THAT PUSHJ DOES NOT MODIFY C(PC) WHERE PC IS ONE GREATER
 41281					;THAN THE LOCATION OF THE PUSHJ INSTRUCTION.
 41282					;IF PUSHJ MODIFIES C(PC), THIS TEST FAILS
 41283
 41284	056441				C30300:	SFLAG	CRY0		^;SET CRY0
 41285
 41286	056441	205 01 0 00 200000 		MOVSI	1,CRY0
 41287	056442	255 17 0 00 056443 		JFCL	17,.+1	;RESET ALL FLAGS
 41288	056443	254 02 0 01 056444 		JRST	2,.+1(1)		;SET CRY0 FLAG
 41289	056444	403 01 0 00 056446 		SETZB	1,.+2		;CLEAR C(AC-RIGHT) AND C(PC)
 41290	056445	260 00 0 00 056450 		PUSHJ	.+3		;*PUSHJ SHOULD NOT MODIFY C(PC)
 41291	056446	000000	000000			0			;THIS LOCATION SHOULD NOT BE MODIFIED BY PUSHJ
 41292	056447	310 00 0 00 000000 		CAM			;PUSHJ SHOULD JUMP OVER THIS LOCATION
 41293	056450	332 00 0 00 056446 		SKIPE	.-2		;PASS IF PUSHJ DID NOT MODIFY C(PC)
 41294						STOP^
 41295	056451	254 04 0 00 056452 		HALT	.+1		;TEST FAILED IF PROGRAM HALTS HERE
 41296	056452	324 00 0 00 056453 		JUMPA	.+1		;IF TEST FAILS, CHANGE THIS INSTRUCTION (JUMPA .+1) TO
 41297									;JUMPA X (X IS THE ADDRESS OF THE FIRST INSTRUCTION
 41298									;IN THE SUBTEST) TO LOOP ON ERROR^
 41299
 41300					;**********
DFKAA PDP-10 KL10 BASIC INSTRUCTION DIAGNOSTIC (1) VER 0,2	MACRO %52(537) 09:34 31-JAN-77 PAGE 7
DFKAA7	MAC	25-AUG-75 14:03		TEST OF PUSHJ INSTRUCTION                                                          SEQ 0958

 41301					;THIS TEST VERIFIES THAT PUSHJ DOES NOT STORE IN E
 41302					;IF PUSHJ STORED IN E, THIS TEST FAILS
 41303
 41304	056453				C30400:	SFLAG	CRY0		^;SET CRY0
 41305
 41306	056453	205 01 0 00 200000 		MOVSI	1,CRY0
 41307	056454	255 17 0 00 056455 		JFCL	17,.+1	;RESET ALL FLAGS
 41308	056455	254 02 0 01 056456 		JRST	2,.+1(1)		;SET CRY0 FLAG
 41309	056456	403 00 0 00 000001 		SETZB	1		;CLEAR AC AND C(AC-RIGHT
 41310	056457	260 00 0 00 056460 		PUSHJ	.+1		;*PUSHJ SHOULD NOT STORE IN E
 41311	056460	200 02 0 00 056460 		MOVE	2,.		;SAVE C(E)
 41312	056461	312 02 0 00 056460 		CAME	2,.-1		;FAIL IF PUSHJ STORED IN E
 41313						STOP^
 41314	056462	254 04 0 00 056463 		HALT	.+1		;TEST FAILED IF PROGRAM HALTS HERE
 41315	056463	324 00 0 00 056464 		JUMPA	.+1		;IF TEST FAILS, CHANGE THIS INSTRUCTION (JUMPA .+1) TO
 41316									;JUMPA X (X IS THE ADDRESS OF THE FIRST INSTRUCTION
 41317									;IN THE SUBTEST) TO LOOP ON ERROR^
 41318
 41319					;**********
 41320
 41321					;THIS TEST VERIFIES THAT PUSHJ DOES NOT STORE IN LOC 0
 41322					;PUSHJ SHOULD STORE PC IN C(AC-RIGHT) - LOCATION 2.
 41323					;IF PUSHJ STORES IN LOCATION 0, THIS TEST FAILS
 41324
 41325	056464	201 02 0 00 000001 	C30500:	MOVEI	2,1		;PRELOAD AC WITH 0,,1
 41326	056465	400 00 0 00 000000 		SETZ	0		;CLEAR 0
 41327	056466	260 02 0 00 056467 		PUSHJ	2,.+1		;*PUSHJ SHOULD NOT STORE IN LOCATION 0
 41328	056467	332 00 0 00 000000 		SKIPE			;FAIL IF PUSHJ STORED IN LOCATION 0
 41329						STOP^
 41330	056470	254 04 0 00 056471 		HALT	.+1		;TEST FAILED IF PROGRAM HALTS HERE
 41331	056471	324 00 0 00 056472 		JUMPA	.+1		;IF TEST FAILS, CHANGE THIS INSTRUCTION (JUMPA .+1) TO
 41332									;JUMPA X (X IS THE ADDRESS OF THE FIRST INSTRUCTION
 41333									;IN THE SUBTEST) TO LOOP ON ERROR^
 41334
 41335					;**********
DFKAA PDP-10 KL10 BASIC INSTRUCTION DIAGNOSTIC (1) VER 0,2	MACRO %52(537) 09:34 31-JAN-77 PAGE 8
DFKAA7	MAC	25-AUG-75 14:03		TEST OF PUSHJ INSTRUCTION                                                          SEQ 0959

 41336					;THIS TEST VERIFIES THAT PUSHJ STORES THE PC IN THE LOCATION SPECIFIED
 41337					;BY C(AC-RIGHT) AFTER INCREMENTING AC.
 41338					;IN THIS TEST, AC AND C(AC-RIGHT) ARE CLEARED; THEN, PUSHJ IS EXECUTED.
 41339					;C(C(AC-RIGHT))IS THEN COMPARED TO ZERO.  IF C(C(AC-RIGHT)) IS NON-ZERO,
 41340					;A PC WAS STORED AND THIS TEST PASSES.
 41341
 41342	056472	403 00 0 00 000001 	C30600:	SETZB	1		;CLEAR AC, C(AC-RIGHT)
 41343	056473	260 00 0 00 056475 		PUSHJ	.+2		;*PUSHJ SHOULD STORE PC IN RIGHT HALF OF C(AC-RIGHT)
 41344	056474	254 04 0 00 056474 		HALT	.		;PUSHJ SHOULD JUMP OVER THIS INSTRUCTION
 41345	056475	405 01 0 00 777777 		ANDI	1,-1		;SAVE C(C(AC-RIGHT))
 41346	056476	306 01 0 00 056475 		CAIN	1,.-1		;FAIL IF PC WAS NOT STORED IN C(AC-RIGHT)
 41347						STOP^
 41348	056477	254 04 0 00 056500 		HALT	.+1		;TEST FAILED IF PROGRAM HALTS HERE
 41349	056500	324 00 0 00 056501 		JUMPA	.+1		;IF TEST FAILS, CHANGE THIS INSTRUCTION (JUMPA .+1) TO
 41350									;JUMPA X (X IS THE ADDRESS OF THE FIRST INSTRUCTION
 41351									;IN THE SUBTEST) TO LOOP ON ERROR^
 41352
 41353					;**********
 41354
 41355					;THIS TEST VERIFIES THAT PUSHJ ADDS 1,,1 TO THE AC
 41356					;THE AC IS CLEARED AND PUSHJ IS EXECUTED
 41357					;AC IS CHECKED FOR 1,,1 IF C(AC)=1,,1, THIS TEST PASSES
 41358
 41359	056501	400 00 0 00 000000 	C31000:	SETZ			;CLEAR AC
 41360	056502	260 00 0 00 056503 		PUSHJ	.+1		;*PUSHJ SHOULD PLACE 1,,1 INTO THE AC
 41361	056503	312 00 0 00 070251 		CAME	[1,,1]		;PASS IF C(AC)=1,,1
 41362						STOP^
 41363	056504	254 04 0 00 056505 		HALT	.+1		;TEST FAILED IF PROGRAM HALTS HERE
 41364	056505	324 00 0 00 056506 		JUMPA	.+1		;IF TEST FAILS, CHANGE THIS INSTRUCTION (JUMPA .+1) TO
 41365									;JUMPA X (X IS THE ADDRESS OF THE FIRST INSTRUCTION
 41366									;IN THE SUBTEST) TO LOOP ON ERROR^
 41367
 41368					;**********
DFKAA PDP-10 KL10 BASIC INSTRUCTION DIAGNOSTIC (1) VER 0,2	MACRO %52(537) 09:34 31-JAN-77 PAGE 9
DFKAA7	MAC	25-AUG-75 14:03		TEST OF PUSHJ INSTRUCTION                                                          SEQ 0960

 41369					;THIS TEST VERIFIES THAT PUSHJ STORES THE FLAGS IN LEFT HALF OF C(AC-RIGHT)
 41370					;FIRST, CRY0 IS SET AND AC AND C(AC-RIGHT) ARE CLEARED; THEN, PUSHJ IS EXECUTED.
 41371					;C(C(AC-RIGHT)) IS THEN CHECKED FOR CRY0.  IF CRY0 IS SET, THIS TEST PASSES.
 41372
 41373	056506				C31100:	SFLAG	CRY0		^;SET CRY0
 41374
 41375	056506	205 01 0 00 200000 		MOVSI	1,CRY0
 41376	056507	255 17 0 00 056510 		JFCL	17,.+1	;RESET ALL FLAGS
 41377	056510	254 02 0 01 056511 		JRST	2,.+1(1)		;SET CRY0 FLAG
 41378	056511	403 00 0 00 000001 		SETZB	1		;CLEAR AC AND C(AC-RIGHT)
 41379	056512	260 00 0 00 056513 		PUSHJ	.+1		;*PUSHJ SHOULD STORE FLAGS IN LEFT HALF OF C(AC-RIGHT)
 41380	056513	607 01 0 00 200000 		TLNN	1,CRY0		;PASS IF CRY0 STORED CORRECTLY
 41381						STOP^
 41382	056514	254 04 0 00 056515 		HALT	.+1		;TEST FAILED IF PROGRAM HALTS HERE
 41383	056515	324 00 0 00 056516 		JUMPA	.+1		;IF TEST FAILS, CHANGE THIS INSTRUCTION (JUMPA .+1) TO
 41384									;JUMPA X (X IS THE ADDRESS OF THE FIRST INSTRUCTION
 41385									;IN THE SUBTEST) TO LOOP ON ERROR^
 41386
 41387					;**********
 41388
 41389					;THIS TEST VERIFIES THAT PUSHJ ADDS 1,,1 TO THE AC
 41390					;THE AC IS PRELOADED WITH 0,,1 AND PUSHJ IS EXECUTED
 41391					;AC IS CHECKED FOR 1,,2 IF C(AC)=1,,2, THIS TEST PASSES
 41392
 41393	056516	201 01 0 00 000001 	C31400:	MOVEI	1,1		;PRELOAD AC WITH 0,,1
 41394	056517	260 01 0 00 056521 		PUSHJ	1,.+2		;*PUSHJ SHOULD PLACE 1,,2 INTO THE AC
 41395	056520	254 04 0 00 000000 		HALT			;PUSHJ SHOULD JUMP OVER THIS INSTRUCTION
 41396	056521	312 01 0 00 070634 		CAME	1,[XWD 1,2]	;PASS IF AC WAS INCREMENTED CORRECTLY
 41397						STOP^
 41398	056522	254 04 0 00 056523 		HALT	.+1		;TEST FAILED IF PROGRAM HALTS HERE
 41399	056523	324 00 0 00 056524 		JUMPA	.+1		;IF TEST FAILS, CHANGE THIS INSTRUCTION (JUMPA .+1) TO
 41400									;JUMPA X (X IS THE ADDRESS OF THE FIRST INSTRUCTION
 41401									;IN THE SUBTEST) TO LOOP ON ERROR^
 41402
 41403					;**********
DFKAA PDP-10 KL10 BASIC INSTRUCTION DIAGNOSTIC (1) VER 0,2	MACRO %52(537) 09:34 31-JAN-77 PAGE 10
DFKAA7	MAC	25-AUG-75 14:03		TEST OF PUSHJ INSTRUCTION                                                          SEQ 0961

 41404					;THIS TEST VERIFIES THAT PUSHJ STORES THE PC IN RIGHT HALF OF C(AC-RIGHT)
 41405					;THIS TEST PASSES IF THE PC WAS STORED CORRECTLY.
 41406
 41407	056524	201 01 0 00 000001 	C31500:	MOVEI	1,1		;PLACE 0,,1 INTO AC
 41408	056525	260 01 0 00 056527 		PUSHJ	1,.+2		;*PUSHJ SHOULD STORE .+1 INTO RIGHT HALF OF C(AC-RIGHT)
 41409	056526	254 04 0 00 000000 		HALT			;PUSHJ SHOULD JUMP OVER THIS PC
 41410	056527	405 02 0 00 777777 		ANDI	2,-1		;SAVE RIGHT HALF OF C(AC-RIGHT)
 41411	056530	302 02 0 00 056526 		CAIE	2,.-2		;PASS IF PC STORED CORRECTLY
 41412						STOP^
 41413	056531	254 04 0 00 056532 		HALT	.+1		;TEST FAILED IF PROGRAM HALTS HERE
 41414	056532	324 00 0 00 056533 		JUMPA	.+1		;IF TEST FAILS, CHANGE THIS INSTRUCTION (JUMPA .+1) TO
 41415									;JUMPA X (X IS THE ADDRESS OF THE FIRST INSTRUCTION
 41416									;IN THE SUBTEST) TO LOOP ON ERROR^
 41417
 41418					;**********
 41419
 41420					;THIS TEST VERIFIES THAT PUSHJ ALWAYS RESETS BIS.
 41421					;FIRST BIS IS SET; THEN PUSHJ IS EXECUTED.  THE FLAGS ARE
 41422					;THEN SAVED AND CHECKED.  IF BIS WAS RESET VIA PUSHJ, THIS TEST PASSES.
 41423
 41424	056533				C31501:	SFLAG	BIS		^;SET BIS
 41425
 41426	056533	205 01 0 00 020000 		MOVSI	1,BIS
 41427	056534	255 17 0 00 056535 		JFCL	17,.+1	;RESET ALL FLAGS
 41428	056535	254 02 0 01 056536 		JRST	2,.+1(1)		;SET BIS FLAG
 41429	056536	400 00 0 00 000000 		SETZ			;CLEAR AC
 41430	056537	260 00 0 00 056540 		PUSHJ	.+1		;*PUSHJ SHOULD RESET BIS
 41431	056540	265 00 0 00 056541 		JSP	.+1		;SAVE FLAGS
 41432	056541	603 00 0 00 020000 		TLNE	BIS		;PASS IF BIS FLAG IS RESET
 41433						STOP^
 41434	056542	254 04 0 00 056543 		HALT	.+1		;TEST FAILED IF PROGRAM HALTS HERE
 41435	056543	324 00 0 00 056544 		JUMPA	.+1		;IF TEST FAILS, CHANGE THIS INSTRUCTION (JUMPA .+1) TO
 41436									;JUMPA X (X IS THE ADDRESS OF THE FIRST INSTRUCTION
 41437									;IN THE SUBTEST) TO LOOP ON ERROR^
 41438
 41439					;**********
DFKAA PDP-10 KL10 BASIC INSTRUCTION DIAGNOSTIC (1) VER 0,2	MACRO %52(537) 09:34 31-JAN-77 PAGE 11
DFKAA7	MAC	25-AUG-75 14:03		TEST OF PUSHJ INSTRUCTION                                                          SEQ 0962

 41440					;THIS TEST VERIFIES THAT THERE IS NO CARRY FROM BIT 18 TO BIT 17 OF THE AC ON PUSHJ.
 41441					;THE AC IS PRELOADED WITH 0,,-1; THEN PUSHJ IS EXECUTED. PUSHJ SHOULD ADD ONE
 41442					;TO BOTH HALVES OF THE AC WITHOUT GENERATING A CARRY FROM BIT 18 TO BIT 17. IF NO
 41443					;CARRY WAS GENERATED, THIS TEST PASSES
 41444
 41445	056544	201 02 0 00 777777 	C31502:	MOVEI	2,-1		;PRELOAD AC WITH 0,,-1
 41446	056545	260 02 0 00 056546 		PUSHJ	2,.+1		;*PUSHJ SHOULD NOT GENERATE A CARRY FROM BIT 18 TO 17
 41447	056546	312 02 0 00 070307 		CAME	2,[1,,0]	;PASS IF C(AC)=1,,0 (NO CARRY WAS GENERATED)
 41448						STOP^
 41449	056547	254 04 0 00 056550 		HALT	.+1		;TEST FAILED IF PROGRAM HALTS HERE
 41450	056550	324 00 0 00 056551 		JUMPA	.+1		;IF TEST FAILS, CHANGE THIS INSTRUCTION (JUMPA .+1) TO
 41451									;JUMPA X (X IS THE ADDRESS OF THE FIRST INSTRUCTION
 41452									;IN THE SUBTEST) TO LOOP ON ERROR^
 41453
 41454					;**********
DFKAA PDP-10 KL10 BASIC INSTRUCTION DIAGNOSTIC (1) VER 0,2	MACRO %52(537) 09:34 31-JAN-77 PAGE 12
DFKAA7	MAC	25-AUG-75 14:03		TEST OF POP INSTRUCTION                                                            SEQ 0963

 41455					SUBTTL	TEST OF POP INSTRUCTION
 41456
 41457					;**********
 41458
 41459					;THIS TEST VERIFIES THAT POP SUBTRACTS 1,,1 FROM THE AC
 41460					;THE AC IS PRELOADED WITH 1,,1; THEN, POP IS EXECUTED.
 41461					;THE AC IS CHECKED FOR 0.  IF C(AC)=0, THIS TEST PASSES.
 41462
 41463	056551	200 00 0 00 070251 	C31600:	MOVE	[XWD 1,1]	;PRELOAD AC WITH 1,,1
 41464	056552	262 00 0 00 000001 		POP	1		;*POP SHOULD SUBTRACT 1,,1 FROM THE AC
 41465	056553	332 00 0 00 000000 		SKIPE			;PASS IF AC WAS DECREMENTED CORRECTLY
 41466						STOP^
 41467	056554	254 04 0 00 056555 		HALT	.+1		;TEST FAILED IF PROGRAM HALTS HERE
 41468	056555	324 00 0 00 056556 		JUMPA	.+1		;IF TEST FAILS, CHANGE THIS INSTRUCTION (JUMPA .+1) TO
 41469									;JUMPA X (X IS THE ADDRESS OF THE FIRST INSTRUCTION
 41470									;IN THE SUBTEST) TO LOOP ON ERROR^
 41471
 41472					;**********
 41473
 41474					;THIS TEST VERIFIES THAT POP SUBTRACTS 1,,1 FROM THE AC
 41475					;THE AC IS PRELOADED WITH 2,,2; THEN, POP IS EXECUTED.
 41476					;THE AC IS CHECKED FOR 1,,1.  IF C(AC)=1,,1, THIS TEST PASSES.
 41477
 41478	056556	200 00 0 00 070440 	C31700:	MOVE	[XWD 2,2]	;PRELOAD AC WITH E,,E WHERE E=2
 41479	056557	201 02 0 00 000005 		MOVEI	2,5		;PRELOAD 2 WITH 0,,5
 41480	056560	262 00 0 00 000002 		POP	2		;*POP SHOULD SUBTRACT 1,,1 FROM THE AC
 41481	056561	312 00 0 00 070251 		CAME	[1,,1]		;PASS IF AC WAS DECREMENTED CORRECTLY
 41482						STOP^
 41483	056562	254 04 0 00 056563 		HALT	.+1		;TEST FAILED IF PROGRAM HALTS HERE
 41484	056563	324 00 0 00 056564 		JUMPA	.+1		;IF TEST FAILS, CHANGE THIS INSTRUCTION (JUMPA .+1) TO
 41485									;JUMPA X (X IS THE ADDRESS OF THE FIRST INSTRUCTION
 41486									;IN THE SUBTEST) TO LOOP ON ERROR^
 41487
 41488					;**********
DFKAA PDP-10 KL10 BASIC INSTRUCTION DIAGNOSTIC (1) VER 0,2	MACRO %52(537) 09:34 31-JAN-77 PAGE 13
DFKAA7	MAC	25-AUG-75 14:03		TEST OF POP INSTRUCTION                                                            SEQ 0964

 41489					;THIS TEST VERIFIES THAT POP STORES C(C(AC-RIGHT)) INTO E
 41490					;IN THIS CASE, AC=0 AND AC IS PRELOADED WITH 2,,2; E=2 AND IS PRELOADED WITH 0.
 41491					;POP IS THEN EXECUTED.  POP SHOULD PLACE 0 INTO E.  IF C(E)=0, THIS TEST PASSES.
 41492
 41493	056564	200 00 0 00 070440 	C32300:	MOVE	[XWD 2,2]	;PRELOAD AC WITH 2,,2
 41494	056565	402 00 0 00 000002 		SETZM	2		;CLEAR E AND C(AC-RIGHT)
 41495	056566	262 00 0 00 000002 		POP	2		;*POP SHOULD PLACE 0 INTO E
 41496	056567	332 00 0 00 000002 		SKIPE	2		;PASS IF C(E)=0
 41497						STOP^
 41498	056570	254 04 0 00 056571 		HALT	.+1		;TEST FAILED IF PROGRAM HALTS HERE
 41499	056571	324 00 0 00 056572 		JUMPA	.+1		;IF TEST FAILS, CHANGE THIS INSTRUCTION (JUMPA .+1) TO
 41500									;JUMPA X (X IS THE ADDRESS OF THE FIRST INSTRUCTION
 41501									;IN THE SUBTEST) TO LOOP ON ERROR^
 41502
 41503					;**********
 41504
 41505					;THIS TEST VERIFIES THAT POP DOES NOT MODIFY C(C(AC-RIGHT)-1).
 41506					;THIS TEST FAILS IF C(C(AC-RIGHT)-1) IS MODIFIED BY POP.
 41507
 41508	056572	200 00 0 00 070440 	C32400:	MOVE	[XWD 2,2]	;PRELOAD AC WITH 2,,2
 41509	056573	201 02 0 00 000017 		MOVEI	2,17		;PRELOAD 2 WITH 0,,17
 41510	056574	402 00 0 00 000001 		SETZM	1		;CLEAR C(C(AC-RIGHT)-1)
 41511	056575	262 00 0 00 000002 		POP	2		;*POP SHOULD NOT MODIFY C(C(AC-RIGHT)-1)
 41512	056576	332 00 0 00 000001 		SKIPE	1		;PASS IF C(C(AC-RIGHT)-1) WAS UNALTERED
 41513						STOP^
 41514	056577	254 04 0 00 056600 		HALT	.+1		;TEST FAILED IF PROGRAM HALTS HERE
 41515	056600	324 00 0 00 056601 		JUMPA	.+1		;IF TEST FAILS, CHANGE THIS INSTRUCTION (JUMPA .+1) TO
 41516									;JUMPA X (X IS THE ADDRESS OF THE FIRST INSTRUCTION
 41517									;IN THE SUBTEST) TO LOOP ON ERROR^
 41518
 41519					;**********
DFKAA PDP-10 KL10 BASIC INSTRUCTION DIAGNOSTIC (1) VER 0,2	MACRO %52(537) 09:34 31-JAN-77 PAGE 14
DFKAA7	MAC	25-AUG-75 14:03		TEST OF POP INSTRUCTION                                                            SEQ 0965

 41520					;THIS TEST VERIFIES THAT POP STORES C(C(AC-RIGHT)) INTO E.
 41521					;IN THIS CASE, AC IS PRELOADED WITH 2,,2 AND AC2 [C(AC-RIGHT)] IS PRELOADED WITH 0,,3.
 41522					;E IS CLEARED AND POP IS EXECUTED.  E IS THEN CHECKED FOR 0,,3 [C(C(AC-RIGHT))] .
 41523					;IF C(E)=0,,3, THIS TEST PASSES.
 41524
 41525	056601	200 00 0 00 070440 	C32500:	MOVE	[XWD 2,2]	;PRELOAD AC WITH 2,,2
 41526	056602	201 02 0 00 000003 		MOVEI	2,3		;PRELOAD C(AC-RIGHT) WITH 0,,3
 41527	056603	402 00 0 00 000003 		SETZM	3		;CLEAR E
 41528	056604	262 00 0 00 000003 		POP	3		;*POP SHOULD PLACE 0,,3 INTO E
 41529	056605	302 03 0 00 000003 		CAIE	3,3		;PASS IF C(E)=0,,3
 41530						STOP^
 41531	056606	254 04 0 00 056607 		HALT	.+1		;TEST FAILED IF PROGRAM HALTS HERE
 41532	056607	324 00 0 00 056610 		JUMPA	.+1		;IF TEST FAILS, CHANGE THIS INSTRUCTION (JUMPA .+1) TO
 41533									;JUMPA X (X IS THE ADDRESS OF THE FIRST INSTRUCTION
 41534									;IN THE SUBTEST) TO LOOP ON ERROR^
 41535
 41536					;**********
 41537
 41538					;THIS TEST VERIFIES THAT POP STORES C(C(AC-RIGHT)) INTO E.  IN THIS CASE,
 41539					;AC IS PRELOADED WITH 2,,2 AND AC2 [C(AC-RIGHT)] IS PRELOADED WITH 0,,17.
 41540					;E IS CLEARED AND POP IS EXECUTED.  E IS THEN CHECKED FOR 0,,17 [C(C(AC-RIGHT))] .
 41541					;IF C(E)=0,,17, THIS TEST PASSES.
 41542
 41543	056610	402 00 0 00 000002 	C32600:	SETZM	2		;CLEAR E
 41544	056611	200 00 0 00 070440 		MOVE	[XWD 2,2]	;PRELOAD AC WITH 2,,2
 41545	056612	201 02 0 00 000017 		MOVEI	2,17		;PRELOAD C(AC-RIGHT) WITH 0,,17
 41546	056613	262 00 0 00 000002 		POP	2		;*POP SHOULD PLACE 0,,17 INTO E
 41547	056614	302 02 0 00 000017 		CAIE	2,17		;PASS IF C(E)=0,,17
 41548						STOP^
 41549	056615	254 04 0 00 056616 		HALT	.+1		;TEST FAILED IF PROGRAM HALTS HERE
 41550	056616	324 00 0 00 056617 		JUMPA	.+1		;IF TEST FAILS, CHANGE THIS INSTRUCTION (JUMPA .+1) TO
 41551									;JUMPA X (X IS THE ADDRESS OF THE FIRST INSTRUCTION
 41552									;IN THE SUBTEST) TO LOOP ON ERROR^
 41553
 41554					;**********
DFKAA PDP-10 KL10 BASIC INSTRUCTION DIAGNOSTIC (1) VER 0,2	MACRO %52(537) 09:34 31-JAN-77 PAGE 15
DFKAA7	MAC	25-AUG-75 14:03		TEST OF POP INSTRUCTION                                                            SEQ 0966

 41555					;THIS TEST VERIFIES THAT POP STORES C(C(AC-RIGHT)) INTO E.  IN THIS CASE,
 41556					;AC IS PRELOADED WITH 2,,2 AND AC2 [C(AC-RIGHT)] IS PRELOADED WITH -1,,-1.
 41557					;E IS CLEARED AND POP IS EXECUTED.  E IS THEN CHECKED FOR -1,,-1 [C(C(AC-RIGHT))] .
 41558					;IF C(E)=0,,3, THIS TEST PASSES.
 41559
 41560	056617	200 00 0 00 070440 	C33100:	MOVE	[XWD 2,2]	;PRELOAD AC WITH 2,,2
 41561	056620	476 00 0 00 000002 		SETOM	2		;PRELOAD C(AC-RIGHT) WITH -1,,-1
 41562	056621	402 00 0 00 000003 		SETZM	3		;CLEAR E
 41563	056622	262 00 0 00 000003 		POP	3		;*POP SHOULD PLACE -1,,-1 INTO E
 41564	056623	312 03 0 00 070254 		CAME	3,[-1]		;PASS IF C(E)=-1,,-1
 41565						STOP^
 41566	056624	254 04 0 00 056625 		HALT	.+1		;TEST FAILED IF PROGRAM HALTS HERE
 41567	056625	324 00 0 00 056626 		JUMPA	.+1		;IF TEST FAILS, CHANGE THIS INSTRUCTION (JUMPA .+1) TO
 41568									;JUMPA X (X IS THE ADDRESS OF THE FIRST INSTRUCTION
 41569									;IN THE SUBTEST) TO LOOP ON ERROR^
 41570
 41571					;**********
 41572
 41573					;THIS TEST VERIFIES THAT POP PLACES C(C(AC-RIGHT)) INTO E AND ADDS 1,,1 TO AC.
 41574					;IN THIS CASE, THE AC IS PRELOADED WITH 1,,17; E=1 AND E IS PRELOADED WITH 0;
 41575					;C(AC-RIGHT) IS PRELOADED WITH -1,,-1; AND POP IS EXECUTED.  POP SHOULD PLACE -1,,-1
 41576					;INTO E AND 0,,16 INTO AC.  IF AC AND E ARE UPDATED CORRECTLY, THIS TEST PASSES.
 41577
 41578	056626	200 00 0 00 071014 	C33300:	MOVE	[XWD 1,17]	;PRELOAD AC WITH 1,,17
 41579	056627	402 00 0 00 000001 		SETZM	1		;PRELOAD E WITH 0
 41580	056630	476 00 0 00 000017 		SETOM	17		;PRELOAD C(AC-RIGHT) WITH 1,,1
 41581	056631	262 00 0 00 000001 		POP	1		;*POP SHOULD PLACE -1,,-1 INTO E AND 0,,16 INTO AC
 41582	056632	312 01 0 00 070254 		CAME	1,[-1]		;PASS IF C(E)=-1,,-1
 41583						STOP^
 41584	056633	254 04 0 00 056634 		HALT	.+1		;TEST FAILED IF PROGRAM HALTS HERE
 41585	056634	324 00 0 00 056635 		JUMPA	.+1		;IF TEST FAILS, CHANGE THIS INSTRUCTION (JUMPA .+1) TO
 41586									;JUMPA X (X IS THE ADDRESS OF THE FIRST INSTRUCTION
 41587									;IN THE SUBTEST) TO LOOP ON ERROR^
 41588	056635	302 00 0 00 000016 	C33310:	CAIE	16		;PASS IF C(AC)=0,,16
 41589						STOP^
 41590	056636	254 04 0 00 056637 		HALT	.+1		;TEST FAILED IF PROGRAM HALTS HERE
 41591	056637	324 00 0 00 056640 		JUMPA	.+1		;IF TEST FAILS, CHANGE THIS INSTRUCTION (JUMPA .+1) TO
 41592									;JUMPA X (X IS THE ADDRESS OF THE FIRST INSTRUCTION
 41593									;IN THE SUBTEST) TO LOOP ON ERROR^
 41594
 41595					;**********
DFKAA PDP-10 KL10 BASIC INSTRUCTION DIAGNOSTIC (1) VER 0,2	MACRO %52(537) 09:34 31-JAN-77 PAGE 16
DFKAA7	MAC	25-AUG-75 14:03		TEST OF POP INSTRUCTION                                                            SEQ 0967

 41596					;THIS TEST VERIFIES THAT POP PLACES C(C(AC-RIGHT)) INTO E AND ADDS 1,,1 TO AC
 41597					;IN THIS CASE, THE AC IS PRELOADED WITH -1,,0; E=17
 41598					;C(AC-RIGHT) IS PRELOADED WITH 0; AND POP IS EXECUTED.  POP SHOULD PLACE 0
 41599					;INTO E.  IF AC IS UPDATED CORRECTLY, THIS TEST PASSES.
 41600
 41601	056640	205 01 0 00 777777 	C33400:	MOVSI	1,-1		;PRELOAD AC WITH -1,,0
 41602	056641	400 00 0 00 000000 		SETZ			;CLEAR C(AC-RIGHT)
 41603	056642	262 01 0 00 000017 		POP	1,17		;*POP SHOULD PLACE 0 INTO E
 41604	056643	332 00 0 00 000017 		SKIPE	17		;PASS IF C(E)=0
 41605						STOP^
 41606	056644	254 04 0 00 056645 		HALT	.+1		;TEST FAILED IF PROGRAM HALTS HERE
 41607	056645	324 00 0 00 056646 		JUMPA	.+1		;IF TEST FAILS, CHANGE THIS INSTRUCTION (JUMPA .+1) TO
 41608									;JUMPA X (X IS THE ADDRESS OF THE FIRST INSTRUCTION
 41609									;IN THE SUBTEST) TO LOOP ON ERROR^
 41610
 41611					;**********
 41612
 41613					;THIS TEST VERIFIES THAT THERE IS NO CARRY FROM BIT 18 TO BIT 17 OF THE AC ON POP.
 41614					;THE AC IS PRELOADED WITH 1,,0; THEN POP IS EXECUTED. POP SHOULD SUBTRACT ONE
 41615					;FROM BOTH HALVES OF THE AC WITHOUT GENERATING A CARRY FROM BIT 18 TO BIT 17. IF NO
 41616					;CARRY WAS GENERATED, THIS TEST PASSES
 41617
 41618	056646	515 02 0 00 000001 	C33401:	HRLZI	2,1		;PRELOAD AC WITH 1,,0
 41619	056647	262 02 0 00 000000 		POP	2,0		;*POP SHOULD NOT GENERATE A CARRY FROM BIT 18 TO 17
 41620	056650	302 02 0 00 777777 		CAIE	2,-1		;PASS IF C(AC)=0,,-1 (NO CARRY WAS GENERATED)
 41621						STOP^
 41622	056651	254 04 0 00 056652 		HALT	.+1		;TEST FAILED IF PROGRAM HALTS HERE
 41623	056652	324 00 0 00 056653 		JUMPA	.+1		;IF TEST FAILS, CHANGE THIS INSTRUCTION (JUMPA .+1) TO
 41624									;JUMPA X (X IS THE ADDRESS OF THE FIRST INSTRUCTION
 41625									;IN THE SUBTEST) TO LOOP ON ERROR^
 41626
 41627					;**********
DFKAA PDP-10 KL10 BASIC INSTRUCTION DIAGNOSTIC (1) VER 0,2	MACRO %52(537) 09:34 31-JAN-77 PAGE 17
DFKAA7	MAC	25-AUG-75 14:03		TEST OF POPJ INSTRUCTION                                                           SEQ 0968

 41628					SUBTTL	TEST OF POPJ INSTRUCTION
 41629
 41630					;**********
 41631
 41632					;THIS TEST VERIFIES THAT POPJ JUMPS TO THE LOCATION ADDRESSED BY RIGHT HALF OF
 41633					;C(C(AC-RIGHT)) BEFORE POPJ DECREMENTED THE AC.
 41634					;THIS TEST PASSES IF POPJ JUMPS CORRECTLY.
 41635
 41636	056653	200 00 0 00 070251 	C33500:	MOVE	[XWD 1,1]	;PRELOAD AC WITH 1,,1
 41637	056654	201 01 0 00 056657 		MOVEI	1,.+3		;PRELOAD C(AC-RIGHT) WITH .+3
 41638	056655	263 00 0 00 056657 		POPJ	.+2		;*POPJ SHOULD JUMP TO LOCATION
 41639									;ADDRESSED BY C(C(AC-RIGHT))
 41640						STOP^
 41641	056656	254 04 0 00 056657 		HALT	.+1		;TEST FAILED IF PROGRAM HALTS HERE
 41642	056657	324 00 0 00 056660 		JUMPA	.+1		;IF TEST FAILS, CHANGE THIS INSTRUCTION (JUMPA .+1) TO
 41643									;JUMPA X (X IS THE ADDRESS OF THE FIRST INSTRUCTION
 41644									;IN THE SUBTEST) TO LOOP ON ERROR^
 41645
 41646					;**********
 41647
 41648					;THIS TEST VERIFIES THAT POPJ SUBTRACTS 1,,1 FROM THE AC
 41649					;THIS AC IS PRELOADED WITH 1,,1; THEN,POPJ IS EXECUTED.
 41650					;THE AC IS CHECKED FOR 0.  IF C(AC)=0, THIS TEST PASSES.
 41651
 41652	056660	200 00 0 00 070251 	C33600:	MOVE	[XWD 1,1]	;PRELOAD AC WITH 1,,1
 41653	056661	201 01 0 00 056663 		MOVEI	1,.+2		;PRELOAD C(AC-NIGHT)WITH .+2
 41654	056662	263 00 0 00 056663 		POPJ	.+1		;*POPJ SHOULD SUBTRACT 1,,1 FROM AC
 41655	056663	312 00 0 00 070253 		CAME	[0]		;PASS IF C(AC)=0
 41656						STOP^
 41657	056664	254 04 0 00 056665 		HALT	.+1		;TEST FAILED IF PROGRAM HALTS HERE
 41658	056665	324 00 0 00 056666 		JUMPA	.+1		;IF TEST FAILS, CHANGE THIS INSTRUCTION (JUMPA .+1) TO
 41659									;JUMPA X (X IS THE ADDRESS OF THE FIRST INSTRUCTION
 41660									;IN THE SUBTEST) TO LOOP ON ERROR^
 41661
 41662					;**********
DFKAA PDP-10 KL10 BASIC INSTRUCTION DIAGNOSTIC (1) VER 0,2	MACRO %52(537) 09:34 31-JAN-77 PAGE 18
DFKAA7	MAC	25-AUG-75 14:03		TEST OF POPJ INSTRUCTION                                                           SEQ 0969

 41663					;THIS TEST VERIFIES THAT POPJ JUMPS TO THE LOCATION ADDRESSED BY RIGHT HALF OF
 41664					;C(C(AC-RIGHT)) BEFORE POPJ DECREMENTED THE AC.
 41665					;THIS TEST PASSES IF POPJ JUMPS CORRECTLY.
 41666
 41667	056666	200 00 0 00 070251 	C33700:	MOVE	[XWD 1,1]	;PRELOAD AC WITH 1,,1
 41668	056667	201 01 0 00 056671 		MOVEI	1,.+2		;PRELOAD C(AC-RIGHT) WITH C33700+3
 41669
 41670	056670	263 00 0 00 056672 		POPJ	.+2		;*POPJ SHOULD JUMP TO C33700+3
 41671	056671	334 00 0 00 000000 		SKIPA			;PASS IF POPJ JUMPED CORRECTLY
 41672						STOP^
 41673	056672	254 04 0 00 056673 		HALT	.+1		;TEST FAILED IF PROGRAM HALTS HERE
 41674	056673	324 00 0 00 056674 		JUMPA	.+1		;IF TEST FAILS, CHANGE THIS INSTRUCTION (JUMPA .+1) TO
 41675									;JUMPA X (X IS THE ADDRESS OF THE FIRST INSTRUCTION
 41676									;IN THE SUBTEST) TO LOOP ON ERROR^
 41677
 41678					;**********
 41679
 41680					;THIS TEST VERIFIES THAT THERE IS NO CARRY FROM BIT 18 TO BIT 17 OF THE AC ON POPJ.
 41681					;THE AC IS PRELOADED WITH 1,,0; THEN POPJ IS EXECUTED. POPJ SHOULD SUBTRACT ONE
 41682					;FROM BOTH HALVES OF THE AC WITHOUT GENERATING A CARRY FROM BIT 18 TO BIT 17. IF NO
 41683					;CARRY WAS GENERATED, THIS TEST PASSES
 41684
 41685	056674	515 02 0 00 000001 	C33701:	HRLZI	2,1		;PRELOAD AC WITH 1,,0
 41686	056675	201 00 0 00 056677 		MOVEI	0,.+2		;PRELOAD C(AC-RIGHT) WITH  C33701+3
 41687	056676	263 02 0 00 000000 		POPJ	2,0		;*POPJ SHOULD NOT GENERATE A CARRY FROM BIT 18 TO 17
 41688	056677	302 02 0 00 777777 		CAIE	2,-1		;PASS IF C(AC)=0,,-1 (NO CARRY WAS GENERATED)
 41689						STOP^
 41690	056700	254 04 0 00 056701 		HALT	.+1		;TEST FAILED IF PROGRAM HALTS HERE
 41691	056701	324 00 0 00 056702 		JUMPA	.+1		;IF TEST FAILS, CHANGE THIS INSTRUCTION (JUMPA .+1) TO
 41692									;JUMPA X (X IS THE ADDRESS OF THE FIRST INSTRUCTION
 41693									;IN THE SUBTEST) TO LOOP ON ERROR^
 41694
 41695					;**********
DFKAA PDP-10 KL10 BASIC INSTRUCTION DIAGNOSTIC (1) VER 0,2	MACRO %52(537) 09:34 31-JAN-77 PAGE 19
DFKAA7	MAC	25-AUG-75 14:03		XCT INSTRUCTION - ADDITIONAL TESTS                                                 SEQ 0970

 41696					SUBTTL	XCT INSTRUCTION - ADDITIONAL TESTS
 41697
 41698					;**********
 41699
 41700					;THIS TEST VERIFIES THAT IF AN XCT EXECUTES A SKIP INSTRUCTION, THE SKIP IS RELATIVE
 41701					;TO THE LOCATION OF THE XCT.
 41702
 41703	056702	477 00 0 00 000001 	C34000:	SETOB	1
 41704	056703	256 00 0 00 071015 		XCT	[CAME 0,1]	;*CAME SHOULD SKIP TO C34000+3
 41705						STOP^
 41706	056704	254 04 0 00 056705 		HALT	.+1		;TEST FAILED IF PROGRAM HALTS HERE
 41707	056705	324 00 0 00 056706 		JUMPA	.+1		;IF TEST FAILS, CHANGE THIS INSTRUCTION (JUMPA .+1) TO
 41708									;JUMPA X (X IS THE ADDRESS OF THE FIRST INSTRUCTION
 41709									;IN THE SUBTEST) TO LOOP ON ERROR^
 41710
 41711					;**********
 41712
 41713					;THIS TEST VERIFIES THAT IF AN XCT EXECUTES A SKIP INSTRUCTION, THE SKIP IS RELATIVE
 41714					;TO THE LOCATION OF THE XCT.
 41715
 41716	056706	477 00 0 00 000001 	C34100:	SETOB	1
 41717	056707	256 00 0 00 071017 		XCT	[XCT[XCT[CAME 0,1]]]	;*CAME SHOULD SKIP TO C34100+3
 41718						STOP^
 41719	056710	254 04 0 00 056711 		HALT	.+1		;TEST FAILED IF PROGRAM HALTS HERE
 41720	056711	324 00 0 00 056712 		JUMPA	.+1		;IF TEST FAILS, CHANGE THIS INSTRUCTION (JUMPA .+1) TO
 41721									;JUMPA X (X IS THE ADDRESS OF THE FIRST INSTRUCTION
 41722									;IN THE SUBTEST) TO LOOP ON ERROR^
 41723
 41724					;**********
DFKAA PDP-10 KL10 BASIC INSTRUCTION DIAGNOSTIC (1) VER 0,2	MACRO %52(537) 09:34 31-JAN-77 PAGE 20
DFKAA7	MAC	25-AUG-75 14:03		XCT INSTRUCTION - ADDITIONAL TESTS                                                 SEQ 0971

 41725					;THIS TEST VERIFIES THAT IF AN XCT EXECUTES A JUMP, PROGRAM FLOW IS ALTERED AS
 41726					;SPECIFIED BY THE JUMP.
 41727
 41728	056712	256 00 0 00 071020 	C34200:	XCT	[JRST .+4]	;*JRST SHOULD JUMP TO C34200+4
 41729
 41730	056713	254 04 0 00 000000 		HALT			;JRST SHOULD JUMP OVER THIS LOCATION
 41731	056714	254 04 0 00 000000 		HALT			;JRST SHOULD JUMP OVER THIS LOCATION
 41732						STOP^
 41733	056715	254 04 0 00 056716 		HALT	.+1		;TEST FAILED IF PROGRAM HALTS HERE
 41734	056716	324 00 0 00 056717 		JUMPA	.+1		;IF TEST FAILS, CHANGE THIS INSTRUCTION (JUMPA .+1) TO
 41735									;JUMPA X (X IS THE ADDRESS OF THE FIRST INSTRUCTION
 41736									;IN THE SUBTEST) TO LOOP ON ERROR^
 41737
 41738					;**********
 41739
 41740					;THIS TEST VERIFIES THAT IF AN XCT EXECUTES A JUMP, PROGRAM FLOW IS ALTERED AS
 41741					;SPECIFIED BY THE JUMP AND THAT WHEN THE PC IS SAVED IT CONTAINS AN
 41742					;ADDRESS ONE GREATER THAN THE LOCATION OF FIRST XCT OF THE CHAIN.
 41743
 41744	056717	402 00 0 00 000003 	C34300:	SETZM	3		;CLEAR AC OF JSP
 41745	056720	256 00 0 00 071023 		XCT	[XCT[XCT[JSP 3,.+3]]] ;*JSP SHOULD JUMP TO C34300+4 AND
 41746	056721	254 04 0 00 000000 		HALT			;THE SAVED PC SHOULD BE C 34300+2
 41747	056722	254 04 0 00 000000 		HALT			;PASS IF JSP JUMPED CORRECTLY
 41748	056723	620 03 0 00 056721 		TRZ	3,.-2		;AND SAVED PC=C34300+2
 41749	056724	602 03 0 00 777777 		TRNE	3,-1
 41750						STOP^
 41751	056725	254 04 0 00 056726 		HALT	.+1		;TEST FAILED IF PROGRAM HALTS HERE
 41752	056726	324 00 0 00 056727 		JUMPA	.+1		;IF TEST FAILS, CHANGE THIS INSTRUCTION (JUMPA .+1) TO
 41753									;JUMPA X (X IS THE ADDRESS OF THE FIRST INSTRUCTION
 41754									;IN THE SUBTEST) TO LOOP ON ERROR^
 41755
 41756					;**********
DFKAA PDP-10 KL10 BASIC INSTRUCTION DIAGNOSTIC (1) VER 0,2	MACRO %52(537) 09:34 31-JAN-77 PAGE 21
DFKAA7	MAC	25-AUG-75 14:03		XCT INSTRUCTION - ADDITIONAL TESTS                                                 SEQ 0972

 41757					;THIS TEST VERIFIES THAT IF AN XCT EXECUTES A SKIP INSTRUCTION, THE SKIP IS RELATIVE
 41758					;TO THE LOCATION OF THE XCT.
 41759					;IN THIS CASE, NO SKIP SHOULD OCCUR  ;HENCE, THE INSTRUCTION
 41760					;FOLLOWING XCT SHOULD BE EXECUTED AFTER 'CAME' IS EXECUTED.
 41761
 41762	056727	403 00 0 00 000000 	C34400:	SETZB	0		;SET-UP AC,E SO THAT
 41763	056730	476 00 0 00 000001 		SETOM	1		;CAME WILL NOT SKIP
 41764	056731	256 00 0 00 071015 		XCT	[CAME 0,1]	;*CAME SHOULD CAUSE EXECUTION
 41765									;OF INSTRUCTION FOLLOWING XCT
 41766	056732	254 00 0 00 056734 		JRST	.+2		;PASS IF THIS INSTRUCTION IS EXECUTED
 41767						STOP^
 41768	056733	254 04 0 00 056734 		HALT	.+1		;TEST FAILED IF PROGRAM HALTS HERE
 41769	056734	324 00 0 00 056735 		JUMPA	.+1		;IF TEST FAILS, CHANGE THIS INSTRUCTION (JUMPA .+1) TO
 41770									;JUMPA X (X IS THE ADDRESS OF THE FIRST INSTRUCTION
 41771									;IN THE SUBTEST) TO LOOP ON ERROR^
 41772
 41773					;**********
 41774
 41775					;THIS TEST VERIFIES INDEXING FOR XCT OF AN ADD INSTRUCTION
 41776					;C(4)=10, AND C(6)=3, SO THE RESULT IN 6 (THE AC) SHOULD BE 16
 41777					;C(11)=13
 41778
 41779	056735	201 04 0 00 000010 	C34500:	MOVEI	4,10		;PRELOAD INDEX REG WITH 10
 41780	056736	201 11 0 00 000013 		MOVEI	11,13		;PRELOAD EFFECTIVE ADDRESS WITH 13
 41781	056737	201 06 0 00 000003 		MOVEI	6,3		;PRELOAD AC WITH 3
 41782	056740	256 00 0 00 071024 		XCT	[ADD 6,1(4)]	;*ADD SHOULD PLACE 16 IN AC
 41783	056741	302 06 0 00 000016 		CAIE	6,16		;PASS IF C(AC)=16
 41784						STOP^
 41785	056742	254 04 0 00 056743 		HALT	.+1		;TEST FAILED IF PROGRAM HALTS HERE
 41786	056743	324 00 0 00 056744 		JUMPA	.+1		;IF TEST FAILS, CHANGE THIS INSTRUCTION (JUMPA .+1) TO
 41787									;JUMPA X (X IS THE ADDRESS OF THE FIRST INSTRUCTION
 41788									;IN THE SUBTEST) TO LOOP ON ERROR^
 41789
 41790					;**********
DFKAA PDP-10 KL10 BASIC INSTRUCTION DIAGNOSTIC (1) VER 0,2	MACRO %52(537) 09:34 31-JAN-77 PAGE 22
DFKAA7	MAC	25-AUG-75 14:03		XCT INSTRUCTION - ADDITIONAL TESTS                                                 SEQ 0973

 41791					;THIS TEST VERIFIES THAT IF AN XCT EXECUTES A SKIP INSTRUCTION, THE SKIP IS RELATIVE
 41792					;TO THE LOCATION OF THE XCT
 41793					;IN THIS CASE, NO SKIP SHOULD OCCUR  ;HENCE, THE INSTRUCTION
 41794					;FOLLOWING XCT SHOULD BE EXECUTED AFTER CAME IS EXECUTED.
 41795
 41796	056744	402 00 0 00 000002 	C34600:	SETZM	2		;SETUP E SO THAT SKIPL WILL NOT SKIP
 41797	056745	256 00 0 00 071025 		XCT	[SKIPL 1,2]	;*SKIPL SHOULD CAUSE INSTRUCTION
 41798									;OF FOLLOWING INSTRUCTION
 41799	056746	254 00 0 00 056750 		JRST	.+2		;PASS IF THIS INSTRUCTION IS EXECUTED.
 41800						STOP^
 41801	056747	254 04 0 00 056750 		HALT	.+1		;TEST FAILED IF PROGRAM HALTS HERE
 41802	056750	324 00 0 00 056751 		JUMPA	.+1		;IF TEST FAILS, CHANGE THIS INSTRUCTION (JUMPA .+1) TO
 41803									;JUMPA X (X IS THE ADDRESS OF THE FIRST INSTRUCTION
 41804									;IN THE SUBTEST) TO LOOP ON ERROR^
 41805	056751	332 00 0 00 000001 	C34610:	SKIPE	1		;*SKIPE SHOULD SKIP BECAUSE XCT OF SKIPL
 41806									;PLACED 0 INTO AC1
 41807						STOP^
 41808	056752	254 04 0 00 056753 		HALT	.+1		;TEST FAILED IF PROGRAM HALTS HERE
 41809	056753	324 00 0 00 056754 		JUMPA	.+1		;IF TEST FAILS, CHANGE THIS INSTRUCTION (JUMPA .+1) TO
 41810									;JUMPA X (X IS THE ADDRESS OF THE FIRST INSTRUCTION
 41811									;IN THE SUBTEST) TO LOOP ON ERROR^
 41812
 41813					;**********
 41814
 41815					;THIS TEST VERIFIES THAT IF AN XCT EXECUTES A SKIP INSTRUCTION, THE SKIP IS RELATIVE
 41816					;TO THE LOCATION OF THE XCT.
 41817
 41818	056754	476 00 0 00 000006 	C34700:	SETOM	6		;SETUP E SO THAT SKIPL WILL SKIP
 41819	056755	256 00 0 00 071026 		XCT	[SKIPL 3,6]	;*SKIPL SHOULD SKIP TO C34700+3
 41820						STOP^
 41821	056756	254 04 0 00 056757 		HALT	.+1		;TEST FAILED IF PROGRAM HALTS HERE
 41822	056757	324 00 0 00 056760 		JUMPA	.+1		;IF TEST FAILS, CHANGE THIS INSTRUCTION (JUMPA .+1) TO
 41823									;JUMPA X (X IS THE ADDRESS OF THE FIRST INSTRUCTION
 41824									;IN THE SUBTEST) TO LOOP ON ERROR^
 41825	056760	331 00 0 00 000003 	C34710:	SKIPL	3		;*SKIPE SHOULD SKIP BECAUSE XCT OF SKIPL
 41826									;PLACED 0 INTO AC1
 41827						STOP^
 41828	056761	254 04 0 00 056762 		HALT	.+1		;TEST FAILED IF PROGRAM HALTS HERE
 41829	056762	324 00 0 00 056763 		JUMPA	.+1		;IF TEST FAILS, CHANGE THIS INSTRUCTION (JUMPA .+1) TO
 41830									;JUMPA X (X IS THE ADDRESS OF THE FIRST INSTRUCTION
 41831									;IN THE SUBTEST) TO LOOP ON ERROR^
 41832
 41833					;**********
DFKAA PDP-10 KL10 BASIC INSTRUCTION DIAGNOSTIC (1) VER 0,2	MACRO %52(537) 09:34 31-JAN-77 PAGE 23
DFKAA7	MAC	25-AUG-75 14:03		XCT INSTRUCTION - ADDITIONAL TESTS                                                 SEQ 0974

 41834					;THIS TEST VERIFIES THAT IF AN XCT EXECUTES A JUMP, PROGRAM FLOW IS ALTERED AS
 41835					;SPECIFIED BY THE JUMP.
 41836					;THIS TEST ALSO VERIFIES CORRECT UPDATING OF THE AC FOR AOBJN
 41837
 41838	056763	200 03 0 00 071027 	C35000:	MOVE	3,[-2,,5]	;SETUP AC SO THAT AOBJN WILL JUMP
 41839	056764	256 00 0 00 071030 		XCT	[AOBJN 3,.+3]	;*JUMP SHOULD BE TO C35000+4
 41840	056765	254 04 0 00 000000 		HALT			;JUMP OVER THIS INSTRUCTION
 41841	056766	254 04 0 00 000000 		HALT			;JUMP OVER THIS INSTRUCTION
 41842	056767	312 03 0 00 071031 		CAME	3,[-1,,6]	;PASS IF C(AC)=-1,,6 AND AOBJN JUMPED
 41843						STOP^
 41844	056770	254 04 0 00 056771 		HALT	.+1		;TEST FAILED IF PROGRAM HALTS HERE
 41845	056771	324 00 0 00 056772 		JUMPA	.+1		;IF TEST FAILS, CHANGE THIS INSTRUCTION (JUMPA .+1) TO
 41846									;JUMPA X (X IS THE ADDRESS OF THE FIRST INSTRUCTION
 41847									;IN THE SUBTEST) TO LOOP ON ERROR^
 41848
 41849					;**********
 41850
 41851					;THIS TEST VERIFIES THAT IF AN XCT EXECUTES A JUMP, PROGRAM FLOW IS ALTERED AS
 41852					;SPECIFIED BY THE JUMP.
 41853					;THIS TEST ALSO VERIFIES CORRECT UPDATING OF THE AC FOR AOBJN
 41854
 41855	056772	200 03 0 00 071031 	C35100:	MOVE	3,[-1,,6]	;SETUP AC SO THAT AOBJN WILL NOT JUMP
 41856	056773	256 00 0 00 071032 		XCT	[AOBJN 3,.+2]	;*AOBJN SHOULD NOT JUMP
 41857	056774	312 03 0 00 071033 		CAME	3,[0,,7]	;PASS IF AOBJN DID NOT JUMP AND C(AC)=0,,7
 41858						STOP^
 41859	056775	254 04 0 00 056776 		HALT	.+1		;TEST FAILED IF PROGRAM HALTS HERE
 41860	056776	324 00 0 00 056777 		JUMPA	.+1		;IF TEST FAILS, CHANGE THIS INSTRUCTION (JUMPA .+1) TO
 41861									;JUMPA X (X IS THE ADDRESS OF THE FIRST INSTRUCTION
 41862									;IN THE SUBTEST) TO LOOP ON ERROR^
 41863
 41864					;**********
DFKAA PDP-10 KL10 BASIC INSTRUCTION DIAGNOSTIC (1) VER 0,2	MACRO %52(537) 09:34 31-JAN-77 PAGE 24
DFKAA7	MAC	25-AUG-75 14:03		TEST XCT INSTRUCTION WITH INDIRECT ADDRESSING AND INDEXING                         SEQ 0975

 41865					SUBTTL	TEST XCT INSTRUCTION WITH INDIRECT ADDRESSING AND INDEXING
 41866
 41867					;**********
 41868
 41869					;THIS TEST VERIFIES THAT XCT WILL EXECUTE AN INSTRUCTION
 41870					;FROM AN INDIRECTLY ADDRESSED LOCATION
 41871
 41872	056777	403 00 0 00 000002 	C35200:	SETZB	2
 41873	057000	254 00 0 00 057003 		JRST	.+3
 41874	057001	000000	057002				.+1
 41875	057002	476 00 0 00 000002 		SETOM	2		;THIS INSTRUCTION SHOULD BE EXECUTED
 41876	057003	256 00 1 00 057001 		XCT	@.-2
 41877	057004	312 02 0 00 070254 		CAME	2,[-1,,-1]	;PASS IF 'SETOM 2' WAS EXECUTED
 41878						STOP^
 41879	057005	254 04 0 00 057006 		HALT	.+1		;TEST FAILED IF PROGRAM HALTS HERE
 41880	057006	324 00 0 00 057007 		JUMPA	.+1		;IF TEST FAILS, CHANGE THIS INSTRUCTION (JUMPA .+1) TO
 41881									;JUMPA X (X IS THE ADDRESS OF THE FIRST INSTRUCTION
 41882									;IN THE SUBTEST) TO LOOP ON ERROR^
 41883
 41884					;**********
 41885
 41886					;THIS TEST VERIFIES THAT XCT WILL EXECUTE AN INSTRUCTION
 41887					;FROM AN INDEXED LOCATION
 41888
 41889	057007	201 04 0 00 057010 	C35300:	MOVEI	4,.+1
 41890	057010	254 00 0 00 057012 		JRST	.+2
 41891	057011	302 04 0 00 057010 		CAIE	4,.-1		;THIS INSTRUCTION SHOULD BE EXECUTED
 41892	057012	256 00 0 04 000001 		XCT	1(4)
 41893						STOP			^;PASS IF 'CAIE 4,,-1' WAS EXECUTED
 41894
 41895	057013	254 04 0 00 057014 		HALT	.+1		;TEST FAILED IF PROGRAM HALTS HERE
 41896	057014	324 00 0 00 057015 		JUMPA	.+1		;IF TEST FAILS, CHANGE THIS INSTRUCTION (JUMPA .+1) TO
 41897									;JUMPA X (X IS THE ADDRESS OF THE FIRST INSTRUCTION
 41898									;IN THE SUBTEST) TO LOOP ON ERROR
 41899
 41900					;**********
DFKAA PDP-10 KL10 BASIC INSTRUCTION DIAGNOSTIC (1) VER 0,2	MACRO %52(537) 09:34 31-JAN-77 PAGE 25
DFKAA7	MAC	25-AUG-75 14:03		TEST XCT INSTRUCTION WITH INDIRECT ADDRESSING AND INDEXING                         SEQ 0976

 41901					;THIS TEST VERIFIES THAT XCT WILL EXECUTE AN INSTRUCTION
 41902					;FROM AN INDIRECTLY ADDRESSED AND INDEXED LOCATION
 41903
 41904	057015	402 00 0 00 000005 	C35400:	SETZM	5
 41905	057016	201 03 0 00 057021 		MOVEI	3,.+3
 41906	057017	254 00 0 00 057021 		JRST	.+2
 41907	057020	201 05 0 00 057023 		MOVEI	5,.+3
 41908	057021	256 00 1 03 777777 		XCT	@-1(3)
 41909	057022	254 00 0 00 057024 		JRST	.+2
 41910	057023	476 00 0 00 000005 		SETOM	5		;THIS INSTRUCTION SHOULD BE EXECUTED
 41911	057024	312 05 0 00 070254 		CAME	5,[-1,,-1]	;PASS IF 'SETOM 5' WAS EXECUTED
 41912						STOP^
 41913	057025	254 04 0 00 057026 		HALT	.+1		;TEST FAILED IF PROGRAM HALTS HERE
 41914	057026	324 00 0 00 057027 		JUMPA	.+1		;IF TEST FAILS, CHANGE THIS INSTRUCTION (JUMPA .+1) TO
 41915									;JUMPA X (X IS THE ADDRESS OF THE FIRST INSTRUCTION
 41916									;IN THE SUBTEST) TO LOOP ON ERROR^
 41917
 41918					;**********
 41919
 41920					;THIS TEST VERIFIES THAT XCT WILL EXECUTE AN INDIRECTLY ADDRESSED
 41921					;AND INDEXED INSTRUCTION
 41922
 41923	057027	402 00 0 00 000003 	C35500:	SETZM	3
 41924	057030	201 10 0 00 000003 		MOVEI	10,3
 41925	057031	254 00 0 00 057036 		JRST	.+5
 41926	057032	254 04 0 00 000000 		HALT
 41927	057033	254 04 0 00 000000 		HALT
 41928	057034	200 03 1 10 057032 		MOVE	3,@.-2(10)	;THIS INSTRUCTION SHOULD BE EXECUTED
 41929	057035	254 04 0 00 070547 		HALT	[0,,707070]
 41930	057036	256 00 0 00 057034 		XCT	.-2
 41931	057037	302 03 0 00 707070 		CAIE	3,707070	;PASS IF 'MOVE 3,@.-2(10)' WAS EXECUTED
 41932						STOP^
 41933	057040	254 04 0 00 057041 		HALT	.+1		;TEST FAILED IF PROGRAM HALTS HERE
 41934	057041	324 00 0 00 057042 		JUMPA	.+1		;IF TEST FAILS, CHANGE THIS INSTRUCTION (JUMPA .+1) TO
 41935									;JUMPA X (X IS THE ADDRESS OF THE FIRST INSTRUCTION
 41936									;IN THE SUBTEST) TO LOOP ON ERROR^
 41937
 41938					;**********
DFKAA PDP-10 KL10 BASIC INSTRUCTION DIAGNOSTIC (1) VER 0,2	MACRO %52(537) 09:34 31-JAN-77 PAGE 26
DFKAA7	MAC	25-AUG-75 14:03		TEST OF SHIFT/ROTATE INSTRUCTIONS USED IN THE ERROR HANDLER                        SEQ 0977

 41939					SUBTTL	TEST OF SHIFT/ROTATE INSTRUCTIONS USED IN THE ERROR HANDLER
 41940
 41941					;**********
 41942
 41943					;THIS TEST VERIFIES THAT A ROT INSTRUCTION FUNCTIONS CORRECTLY.
 41944					;IN THIS CASE, 0,,0 SHOULD BE ROTATED RIGHT 3 BIT POSITIONS
 41945					;SO THAT FINAL C(AC)=0,,0.
 41946					;C(AC+1) SHOULD NOT BE AFFECTED.
 41947
 41948	057042	200 00 0 00 070253 	C35600:	MOVE	0,[0,,0]	;PRELOAD AC WITH 0,,0
 41949	057043	200 01 0 00 071034 		MOVE	1,[172737,,405060] ;PRELOAD AC+1 WITH 172737,,405060
 41950	057044	241 00 0 00 777775 		ROT	0,-3		;*ROT SHOULD ROTATE 0,,0 RIGHT 3 BIT POSITIONS
 41951	057045	312 00 0 00 070253 		CAME	0,[0,,0]	;PASS IF C(AC)=0,,0
 41952						STOP^
 41953	057046	254 04 0 00 057047 		HALT	.+1		;TEST FAILED IF PROGRAM HALTS HERE
 41954	057047	324 00 0 00 057050 		JUMPA	.+1		;IF TEST FAILS, CHANGE THIS INSTRUCTION (JUMPA .+1) TO
 41955									;JUMPA X (X IS THE ADDRESS OF THE FIRST INSTRUCTION
 41956									;IN THE SUBTEST) TO LOOP ON ERROR^
 41957	057050	312 01 0 00 071034 		CAME	1,[172737,,405060] ;PASS IF C(AC+1) NOT AFFECTED
 41958						STOP^
 41959	057051	254 04 0 00 057052 		HALT	.+1		;TEST FAILED IF PROGRAM HALTS HERE
 41960	057052	324 00 0 00 057053 		JUMPA	.+1		;IF TEST FAILS, CHANGE THIS INSTRUCTION (JUMPA .+1) TO
 41961									;JUMPA X (X IS THE ADDRESS OF THE FIRST INSTRUCTION
 41962									;IN THE SUBTEST) TO LOOP ON ERROR^
 41963
 41964					;**********
 41965
 41966					;THIS TEST VERIFIES THAT A ROT INSTRUCTION FUNCTIONS CORRECTLY.
 41967					;IN THIS CASE, -1,,-1 SHOULD BE ROTATED RIGHT 3 BIT POSITIONS
 41968					;SO THAT FINAL C(AC)=-1,,-1.
 41969					;C(AC+1) SHOULD NOT BE AFFECTED.
 41970
 41971	057053	200 00 0 00 070254 	C35700:	MOVE	0,[-1,,-1]	;PRELOAD AC WITH 0,,0
 41972	057054	200 01 0 00 071034 		MOVE	1,[172737,,405060] ;PRELOAD AC+1 WITH 172737,,405060
 41973	057055	241 00 0 00 777775 		ROT	0,-3		;*ROT SHOULD ROTATE -1,,-1 RIGHT 3 BIT POSITIONS
 41974	057056	312 00 0 00 070254 		CAME	0,[-1,,-1]	;PASS IF C(AC)=-1,,-1
 41975						STOP^
 41976	057057	254 04 0 00 057060 		HALT	.+1		;TEST FAILED IF PROGRAM HALTS HERE
 41977	057060	324 00 0 00 057061 		JUMPA	.+1		;IF TEST FAILS, CHANGE THIS INSTRUCTION (JUMPA .+1) TO
 41978									;JUMPA X (X IS THE ADDRESS OF THE FIRST INSTRUCTION
 41979									;IN THE SUBTEST) TO LOOP ON ERROR^
 41980	057061	312 01 0 00 071034 		CAME	1,[172737,,405060] ;PASS IF C(AC+1) NOT AFFECTED
 41981						STOP^
 41982	057062	254 04 0 00 057063 		HALT	.+1		;TEST FAILED IF PROGRAM HALTS HERE
 41983	057063	324 00 0 00 057064 		JUMPA	.+1		;IF TEST FAILS, CHANGE THIS INSTRUCTION (JUMPA .+1) TO
 41984									;JUMPA X (X IS THE ADDRESS OF THE FIRST INSTRUCTION
 41985									;IN THE SUBTEST) TO LOOP ON ERROR^
 41986
 41987					;**********
DFKAA PDP-10 KL10 BASIC INSTRUCTION DIAGNOSTIC (1) VER 0,2	MACRO %52(537) 09:34 31-JAN-77 PAGE 27
DFKAA7	MAC	25-AUG-75 14:03		TEST OF SHIFT/ROTATE INSTRUCTIONS USED IN THE ERROR HANDLER                        SEQ 0978

 41988					;THIS TEST VERIFIES THAT A ROT INSTRUCTION FUNCTIONS CORRECTLY.
 41989					;IN THIS CASE, 252525,,252525 SHOULD BE ROTATED RIGHT 3 BIT POSITIONS
 41990					;SO THAT FINAL C(AC)=525252,,525252.
 41991					;C(AC+1) SHOULD NOT BE AFFECTED.
 41992
 41993	057064	200 00 0 00 070614 	C36000:	MOVE	0,[252525,,252525] ;PRELOAD AC WITH 252525,,252525
 41994	057065	200 01 0 00 071034 		MOVE	1,[172737,,405060] ;PRELOAD AC+1 WITH 172737,,405060
 41995	057066	241 00 0 00 777775 		ROT	0,-3		;*ROT SHOULD ROTATE 252525,,252525
 41996									;RIGHT 3 BIT POSITIONS
 41997	057067	312 00 0 00 071035 		CAME	0,[525252,,525252] ;PASS IF C(AC)=525252,,525252
 41998						STOP^
 41999	057070	254 04 0 00 057071 		HALT	.+1		;TEST FAILED IF PROGRAM HALTS HERE
 42000	057071	324 00 0 00 057072 		JUMPA	.+1		;IF TEST FAILS, CHANGE THIS INSTRUCTION (JUMPA .+1) TO
 42001									;JUMPA X (X IS THE ADDRESS OF THE FIRST INSTRUCTION
 42002									;IN THE SUBTEST) TO LOOP ON ERROR^
 42003	057072	312 01 0 00 071034 		CAME	1,[172737,,405060] ;PASS IF C(AC+1) NOT AFFECTED
 42004						STOP^
 42005	057073	254 04 0 00 057074 		HALT	.+1		;TEST FAILED IF PROGRAM HALTS HERE
 42006	057074	324 00 0 00 057075 		JUMPA	.+1		;IF TEST FAILS, CHANGE THIS INSTRUCTION (JUMPA .+1) TO
 42007									;JUMPA X (X IS THE ADDRESS OF THE FIRST INSTRUCTION
 42008									;IN THE SUBTEST) TO LOOP ON ERROR^
 42009
 42010					;**********
 42011
 42012					;THIS TEST VERIFIES THAT A ROT INSTRUCTION FUNCTIONS CORRECTLY.
 42013					;IN THIS CASE, 525252,,525252 SHOULD BE ROTATED RIGHT 3 BIT POSITIONS
 42014					;SO THAT FINAL C(AC)=252525,,252525.
 42015					;C(AC+1) SHOULD NOT BE AFFECTED.
 42016
 42017	057075	200 00 0 00 071035 	C36100:	MOVE	0,[525252,,525252] ;PRELOAD AC WITH 525252,,525252
 42018	057076	200 01 0 00 071034 		MOVE	1,[172737,,405060] ;PRELOAD AC+1 WITH 172737,,405060
 42019	057077	241 00 0 00 777775 		ROT	0,-3		;*ROT SHOULD ROTATE 525252,,525252
 42020									;RIGHT 3 BIT POSITIONS
 42021	057100	312 00 0 00 070614 		CAME	0,[252525,,252525] ;PASS IF C(AC)=252525,,252525
 42022						STOP^
 42023	057101	254 04 0 00 057102 		HALT	.+1		;TEST FAILED IF PROGRAM HALTS HERE
 42024	057102	324 00 0 00 057103 		JUMPA	.+1		;IF TEST FAILS, CHANGE THIS INSTRUCTION (JUMPA .+1) TO
 42025									;JUMPA X (X IS THE ADDRESS OF THE FIRST INSTRUCTION
 42026									;IN THE SUBTEST) TO LOOP ON ERROR^
 42027	057103	312 01 0 00 071034 		CAME	1,[172737,,405060] ;PASS IF C(AC+1) NOT AFFECTED
 42028						STOP^
 42029	057104	254 04 0 00 057105 		HALT	.+1		;TEST FAILED IF PROGRAM HALTS HERE
 42030	057105	324 00 0 00 057106 		JUMPA	.+1		;IF TEST FAILS, CHANGE THIS INSTRUCTION (JUMPA .+1) TO
 42031									;JUMPA X (X IS THE ADDRESS OF THE FIRST INSTRUCTION
 42032									;IN THE SUBTEST) TO LOOP ON ERROR^
 42033
 42034					;**********
DFKAA PDP-10 KL10 BASIC INSTRUCTION DIAGNOSTIC (1) VER 0,2	MACRO %52(537) 09:34 31-JAN-77 PAGE 28
DFKAA7	MAC	25-AUG-75 14:03		TEST OF SHIFT/ROTATE INSTRUCTIONS USED IN THE ERROR HANDLER                        SEQ 0979

 42035					;THIS TEST VERIFIES THAT A ROT INSTRUCTION FUNCTIONS CORRECTLY.
 42036					;IN THIS CASE, 230703,,603700 SHOULD BE ROTATED RIGHT 3 BIT POSITIONS
 42037					;SO THAT FINAL C(AC)=023070,,360370.
 42038					;C(AC+1) SHOULD NOT BE AFFECTED.
 42039
 42040	057106	200 00 0 00 071036 	C36200:	MOVE	0,[230703,,603700] ;PRELOAD AC WITH 230703,,603700
 42041	057107	200 01 0 00 071034 		MOVE	1,[172737,,405060] ;PRELOAD AC+1 WITH 172737,,405060
 42042	057110	241 00 0 00 777775 		ROT	0,-3		;*ROT SHOULD ROTATE 230703,,603700
 42043									;RIGHT 3 BIT POSITIONS
 42044	057111	312 00 0 00 071037 		CAME	0,[023070,,360370] ;PASS IF C(AC)=023070,,360370
 42045						STOP^
 42046	057112	254 04 0 00 057113 		HALT	.+1		;TEST FAILED IF PROGRAM HALTS HERE
 42047	057113	324 00 0 00 057114 		JUMPA	.+1		;IF TEST FAILS, CHANGE THIS INSTRUCTION (JUMPA .+1) TO
 42048									;JUMPA X (X IS THE ADDRESS OF THE FIRST INSTRUCTION
 42049									;IN THE SUBTEST) TO LOOP ON ERROR^
 42050	057114	312 01 0 00 071034 		CAME	1,[172737,,405060] ;PASS IF C(AC+1) NOT AFFECTED
 42051						STOP^
 42052	057115	254 04 0 00 057116 		HALT	.+1		;TEST FAILED IF PROGRAM HALTS HERE
 42053	057116	324 00 0 00 057117 		JUMPA	.+1		;IF TEST FAILS, CHANGE THIS INSTRUCTION (JUMPA .+1) TO
 42054									;JUMPA X (X IS THE ADDRESS OF THE FIRST INSTRUCTION
 42055									;IN THE SUBTEST) TO LOOP ON ERROR^
 42056
 42057					;**********
 42058
 42059					;THIS TEST VERIFIES THAT A ROT INSTRUCTION FUNCTIONS CORRECTLY.
 42060					;IN THIS CASE, 007603,,607062 SHOULD BE ROTATED RIGHT 3 BIT POSITIONS
 42061					;SO THAT FINAL C(AC)=200760,,360706.
 42062					;C(AC+1) SHOULD NOT BE AFFECTED.
 42063
 42064	057117	200 00 0 00 071040 	C36300:	MOVE	0,[007603,,607062] ;PRELOAD AC WITH 007603,,607062
 42065	057120	200 01 0 00 071034 		MOVE	1,[172737,,405060] ;PRELOAD AC+1 WITH 172737,,405060
 42066	057121	241 00 0 00 777775 		ROT	0,-3		;*ROT SHOULD ROTATE 007603,,607062
 42067									;RIGHT 3 BIT POSITIONS
 42068	057122	312 00 0 00 071041 		CAME	0,[200760,,360706] ;PASS IF C(AC)=200760,,360706
 42069						STOP^
 42070	057123	254 04 0 00 057124 		HALT	.+1		;TEST FAILED IF PROGRAM HALTS HERE
 42071	057124	324 00 0 00 057125 		JUMPA	.+1		;IF TEST FAILS, CHANGE THIS INSTRUCTION (JUMPA .+1) TO
 42072									;JUMPA X (X IS THE ADDRESS OF THE FIRST INSTRUCTION
 42073									;IN THE SUBTEST) TO LOOP ON ERROR^
 42074	057125	312 01 0 00 071034 		CAME	1,[172737,,405060] ;PASS IF C(AC+1) NOT AFFECTED
 42075						STOP^
 42076	057126	254 04 0 00 057127 		HALT	.+1		;TEST FAILED IF PROGRAM HALTS HERE
 42077	057127	324 00 0 00 057130 		JUMPA	.+1		;IF TEST FAILS, CHANGE THIS INSTRUCTION (JUMPA .+1) TO
 42078									;JUMPA X (X IS THE ADDRESS OF THE FIRST INSTRUCTION
 42079									;IN THE SUBTEST) TO LOOP ON ERROR^
 42080
 42081					;**********
DFKAA PDP-10 KL10 BASIC INSTRUCTION DIAGNOSTIC (1) VER 0,2	MACRO %52(537) 09:34 31-JAN-77 PAGE 29
DFKAA7	MAC	25-AUG-75 14:03		TEST OF SHIFT/ROTATE INSTRUCTIONS USED IN THE ERROR HANDLER                        SEQ 0980

 42082					;THIS TEST VERIFIES THAT A ROT INSTRUCTION FUNCTIONS CORRECTLY.
 42083					;IN THIS CASE, 0,,0 SHOULD BE ROTATED LEFT 15 BIT POSITIONS
 42084					;SO THAT FINAL C(AC)=0,,0.
 42085					;C(AC+1) SHOULD NOT BE AFFECTED.
 42086
 42087	057130	200 02 0 00 070253 	C36400:	MOVE	2,[0,,0]	;PRELOAD AC WITH 0,,0
 42088	057131	200 03 0 00 071034 		MOVE	3,[172737,,405060] ;PRELOAD AC+1 WITH 172737,,405060
 42089	057132	241 02 0 00 000015 		ROT	2,15		;*ROT SHOULD ROTATE 0,,0 LEFT 15 BIT POSITIONS
 42090	057133	312 02 0 00 070253 		CAME	2,[0,,0]	;PASS IF C(AC)=0,,0
 42091						STOP^
 42092	057134	254 04 0 00 057135 		HALT	.+1		;TEST FAILED IF PROGRAM HALTS HERE
 42093	057135	324 00 0 00 057136 		JUMPA	.+1		;IF TEST FAILS, CHANGE THIS INSTRUCTION (JUMPA .+1) TO
 42094									;JUMPA X (X IS THE ADDRESS OF THE FIRST INSTRUCTION
 42095									;IN THE SUBTEST) TO LOOP ON ERROR^
 42096	057136	312 03 0 00 071034 		CAME	3,[172737,,405060] ;PASS IF C(AC+1) NOT AFFECTED
 42097						STOP^
 42098	057137	254 04 0 00 057140 		HALT	.+1		;TEST FAILED IF PROGRAM HALTS HERE
 42099	057140	324 00 0 00 057141 		JUMPA	.+1		;IF TEST FAILS, CHANGE THIS INSTRUCTION (JUMPA .+1) TO
 42100									;JUMPA X (X IS THE ADDRESS OF THE FIRST INSTRUCTION
 42101									;IN THE SUBTEST) TO LOOP ON ERROR^
 42102
 42103					;**********
 42104
 42105					;THIS TEST VERIFIES THAT A ROT INSTRUCTION FUNCTIONS CORRECTLY.
 42106					;IN THIS CASE, -1,,-1 SHOULD BE ROTATED LEFT 15 BIT POSITIONS
 42107					;SO THAT FINAL C(AC)=-1,,-1.
 42108					;C(AC+1) SHOULD NOT BE AFFECTED.
 42109
 42110	057141	200 02 0 00 070254 	C36500:	MOVE	2,[-1,,-1]	;PRELOAD AC WITH -1,,-1
 42111	057142	200 03 0 00 071034 		MOVE	3,[172737,,405060] ;PRELOAD AC+1 WITH 172737,,405060
 42112	057143	241 02 0 00 000015 		ROT	2,15		;*ROT SHOULD ROTATE -1,,-1 LEFT 15 BIT POSITIONS
 42113	057144	312 02 0 00 070254 		CAME	2,[-1,,-1]	;PASS IF C(AC)=-1,,-1
 42114						STOP^
 42115	057145	254 04 0 00 057146 		HALT	.+1		;TEST FAILED IF PROGRAM HALTS HERE
 42116	057146	324 00 0 00 057147 		JUMPA	.+1		;IF TEST FAILS, CHANGE THIS INSTRUCTION (JUMPA .+1) TO
 42117									;JUMPA X (X IS THE ADDRESS OF THE FIRST INSTRUCTION
 42118									;IN THE SUBTEST) TO LOOP ON ERROR^
 42119	057147	312 03 0 00 071034 		CAME	3,[172737,,405060] ;PASS IF C(AC+1) NOT AFFECTED
 42120						STOP^
 42121	057150	254 04 0 00 057151 		HALT	.+1		;TEST FAILED IF PROGRAM HALTS HERE
 42122	057151	324 00 0 00 057152 		JUMPA	.+1		;IF TEST FAILS, CHANGE THIS INSTRUCTION (JUMPA .+1) TO
 42123									;JUMPA X (X IS THE ADDRESS OF THE FIRST INSTRUCTION
 42124									;IN THE SUBTEST) TO LOOP ON ERROR^
 42125
 42126					;**********
DFKAA PDP-10 KL10 BASIC INSTRUCTION DIAGNOSTIC (1) VER 0,2	MACRO %52(537) 09:34 31-JAN-77 PAGE 30
DFKAA7	MAC	25-AUG-75 14:03		TEST OF SHIFT/ROTATE INSTRUCTIONS USED IN THE ERROR HANDLER                        SEQ 0981

 42127					;THIS TEST VERIFIES THAT A ROT INSTRUCTION FUNCTIONS CORRECTLY.
 42128					;IN THIS CASE, 252525,,252525 SHOULD BE ROTATED LEFT 15 BIT POSITIONS
 42129					;SO THAT FINAL C(AC)=525252,,525252.
 42130					;C(AC+1) SHOULD NOT BE AFFECTED.
 42131
 42132	057152	200 02 0 00 070614 	C36600:	MOVE	2,[252525,,252525] ;PRELOAD AC WITH 252525,,252525
 42133	057153	200 03 0 00 071034 		MOVE	3,[172737,,405060] ;PRELOAD AC+1 WITH 172737,,405060
 42134	057154	241 02 0 00 000015 		ROT	2,15		;*ROT SHOULD ROTATE 252525,,252525
 42135									;LEFT 15 BIT POSITIONS
 42136	057155	312 02 0 00 071035 		CAME	2,[525252,,525252] ;PASS IF C(AC)=525252,,525252
 42137						STOP^
 42138	057156	254 04 0 00 057157 		HALT	.+1		;TEST FAILED IF PROGRAM HALTS HERE
 42139	057157	324 00 0 00 057160 		JUMPA	.+1		;IF TEST FAILS, CHANGE THIS INSTRUCTION (JUMPA .+1) TO
 42140									;JUMPA X (X IS THE ADDRESS OF THE FIRST INSTRUCTION
 42141									;IN THE SUBTEST) TO LOOP ON ERROR^
 42142	057160	312 03 0 00 071034 		CAME	3,[172737,,405060] ;PASS IF C(AC+1) NOT AFFECTED
 42143						STOP^
 42144	057161	254 04 0 00 057162 		HALT	.+1		;TEST FAILED IF PROGRAM HALTS HERE
 42145	057162	324 00 0 00 057163 		JUMPA	.+1		;IF TEST FAILS, CHANGE THIS INSTRUCTION (JUMPA .+1) TO
 42146									;JUMPA X (X IS THE ADDRESS OF THE FIRST INSTRUCTION
 42147									;IN THE SUBTEST) TO LOOP ON ERROR^
 42148
 42149					;**********
 42150
 42151					;THIS TEST VERIFIES THAT A ROT INSTRUCTION FUNCTIONS CORRECTLY.
 42152					;IN THIS CASE, 525252,,525252 SHOULD BE ROTATED LEFT 15 BIT POSITIONS
 42153					;SO THAT FINAL C(AC)=252525,,252525.
 42154					;C(AC+1) SHOULD NOT BE AFFECTED.
 42155
 42156	057163	200 02 0 00 071035 	C36700:	MOVE	2,[525252,,525252] ;PRELOAD AC WITH 525252,,525252
 42157	057164	200 03 0 00 071034 		MOVE	3,[172737,,405060] ;PRELOAD AC+1 WITH 172737,,405060
 42158	057165	241 02 0 00 000015 		ROT	2,15		;*ROT SHOULD ROTATE 525252,,525252
 42159									;LEFT 15 BIT POSITIONS
 42160	057166	312 02 0 00 070614 		CAME	2,[252525,,252525] ;PASS IF C(AC)=252525,,252525
 42161						STOP^
 42162	057167	254 04 0 00 057170 		HALT	.+1		;TEST FAILED IF PROGRAM HALTS HERE
 42163	057170	324 00 0 00 057171 		JUMPA	.+1		;IF TEST FAILS, CHANGE THIS INSTRUCTION (JUMPA .+1) TO
 42164									;JUMPA X (X IS THE ADDRESS OF THE FIRST INSTRUCTION
 42165									;IN THE SUBTEST) TO LOOP ON ERROR^
 42166	057171	312 03 0 00 071034 		CAME	3,[172737,,405060] ;PASS IF C(AC+1) NOT AFFECTED
 42167						STOP^
 42168	057172	254 04 0 00 057173 		HALT	.+1		;TEST FAILED IF PROGRAM HALTS HERE
 42169	057173	324 00 0 00 057174 		JUMPA	.+1		;IF TEST FAILS, CHANGE THIS INSTRUCTION (JUMPA .+1) TO
 42170									;JUMPA X (X IS THE ADDRESS OF THE FIRST INSTRUCTION
 42171									;IN THE SUBTEST) TO LOOP ON ERROR^
 42172
 42173					;**********
DFKAA PDP-10 KL10 BASIC INSTRUCTION DIAGNOSTIC (1) VER 0,2	MACRO %52(537) 09:34 31-JAN-77 PAGE 31
DFKAA7	MAC	25-AUG-75 14:03		TEST OF SHIFT/ROTATE INSTRUCTIONS USED IN THE ERROR HANDLER                        SEQ 0982

 42174					;THIS TEST VERIFIES THAT A ROT INSTRUCTION FUNCTIONS CORRECTLY.
 42175					;IN THIS CASE, 230703,,603700 SHOULD BE ROTATED LEFT 15 BIT POSITIONS
 42176					;SO THAT FINAL C(AC)074076,,004616.
 42177					;C(AC+1) SHOULD NOT BE AFFECTED.
 42178
 42179	057174	200 02 0 00 071036 	C37000:	MOVE	2,[230703,,603700] ;PRELOAD AC WITH 230703,,603700
 42180	057175	200 03 0 00 071034 		MOVE	3,[172737,,405060] ;PRELOAD AC+1 WITH 172737,,405060
 42181	057176	241 02 0 00 000015 		ROT	2,15		;*ROT SHOULD ROTATE 230703,,603700
 42182									;LEFT 15 BIT POSITIONS
 42183	057177	312 02 0 00 071042 		CAME	2,[074076,,004616] ;PASS IF C(AC)074076,,004616
 42184						STOP^
 42185	057200	254 04 0 00 057201 		HALT	.+1		;TEST FAILED IF PROGRAM HALTS HERE
 42186	057201	324 00 0 00 057202 		JUMPA	.+1		;IF TEST FAILS, CHANGE THIS INSTRUCTION (JUMPA .+1) TO
 42187									;JUMPA X (X IS THE ADDRESS OF THE FIRST INSTRUCTION
 42188									;IN THE SUBTEST) TO LOOP ON ERROR^
 42189	057202	312 03 0 00 071034 		CAME	3,[172737,,405060] ;PASS IF C(AC+1) NOT AFFECTED
 42190						STOP^
 42191	057203	254 04 0 00 057204 		HALT	.+1		;TEST FAILED IF PROGRAM HALTS HERE
 42192	057204	324 00 0 00 057205 		JUMPA	.+1		;IF TEST FAILS, CHANGE THIS INSTRUCTION (JUMPA .+1) TO
 42193									;JUMPA X (X IS THE ADDRESS OF THE FIRST INSTRUCTION
 42194									;IN THE SUBTEST) TO LOOP ON ERROR^
 42195
 42196					;**********
 42197
 42198					;THIS TEST VERIFIES THAT A ROT INSTRUCTION FUNCTIONS CORRECTLY.
 42199					;IN THIS CASE, 007603,,607062 SHOULD BE ROTATED LEFT 15 BIT POSITIONS
 42200					;SO THAT FINAL C(AC)074161,,440174.
 42201					;C(AC+1) SHOULD NOT BE AFFECTED.
 42202
 42203	057205	200 02 0 00 071040 	C37100:	MOVE	2,[007603,,607062] ;PRELOAD AC WITH 007603,,607062
 42204	057206	200 03 0 00 071034 		MOVE	3,[172737,,405060] ;PRELOAD AC+1 WITH 172737,,405060
 42205	057207	241 02 0 00 000015 		ROT	2,15		;*ROT SHOULD ROTATE 007603,,607062
 42206									;LEFT 15 BIT POSITIONS
 42207	057210	312 02 0 00 071043 		CAME	2,[074161,,440174] ;PASS IF C(AC)074161,,440174
 42208						STOP^
 42209	057211	254 04 0 00 057212 		HALT	.+1		;TEST FAILED IF PROGRAM HALTS HERE
 42210	057212	324 00 0 00 057213 		JUMPA	.+1		;IF TEST FAILS, CHANGE THIS INSTRUCTION (JUMPA .+1) TO
 42211									;JUMPA X (X IS THE ADDRESS OF THE FIRST INSTRUCTION
 42212									;IN THE SUBTEST) TO LOOP ON ERROR^
 42213	057213	312 03 0 00 071034 		CAME	3,[172737,,405060] ;PASS IF C(AC+1) NOT AFFECTED
 42214						STOP^
 42215	057214	254 04 0 00 057215 		HALT	.+1		;TEST FAILED IF PROGRAM HALTS HERE
 42216	057215	324 00 0 00 057216 		JUMPA	.+1		;IF TEST FAILS, CHANGE THIS INSTRUCTION (JUMPA .+1) TO
 42217									;JUMPA X (X IS THE ADDRESS OF THE FIRST INSTRUCTION
 42218									;IN THE SUBTEST) TO LOOP ON ERROR^
 42219
 42220					;**********
DFKAA PDP-10 KL10 BASIC INSTRUCTION DIAGNOSTIC (1) VER 0,2	MACRO %52(537) 09:34 31-JAN-77 PAGE 32
DFKAA7	MAC	25-AUG-75 14:03		TEST OF SHIFT/ROTATE INSTRUCTIONS USED IN THE ERROR HANDLER                        SEQ 0983

 42221					;THIS TEST VERIFIES THAT A ROTC INSTRUCTION FUNCTIONS CORRECTLY.
 42222					;IN THIS CASE, 0,,0 0,,0 SHOULD BE ROTATED LEFT 3 BIT POSITIONS
 42223					;SO THAT FINAL C(AC)=0,,0 AND FINAL C(AC+1)=0,,0
 42224
 42225	057216	200 00 0 00 070253 	C37200:	MOVE	0,[0,,0]	;PRELOAD AC WITH 0,,0
 42226	057217	200 01 0 00 070253 		MOVE	1,[0,,0]	;PRELOAD AC+1 WITH 0,,0
 42227	057220	245 00 0 00 000003 		ROTC	0,3		;*ROTC SHOULD ROTATE 0,,0 0,,0 LEFT 3 BIT POSITIONS
 42228	057221	312 00 0 00 070253 		CAME	0,[0,,0]	;PASS IF C(AC)=0,,0
 42229						STOP^
 42230	057222	254 04 0 00 057223 		HALT	.+1		;TEST FAILED IF PROGRAM HALTS HERE
 42231	057223	324 00 0 00 057224 		JUMPA	.+1		;IF TEST FAILS, CHANGE THIS INSTRUCTION (JUMPA .+1) TO
 42232									;JUMPA X (X IS THE ADDRESS OF THE FIRST INSTRUCTION
 42233									;IN THE SUBTEST) TO LOOP ON ERROR^
 42234	057224	312 01 0 00 070253 		CAME	1,[0,,0]	;PASS IF C(AC+1)=0,,0
 42235						STOP^
 42236	057225	254 04 0 00 057226 		HALT	.+1		;TEST FAILED IF PROGRAM HALTS HERE
 42237	057226	324 00 0 00 057227 		JUMPA	.+1		;IF TEST FAILS, CHANGE THIS INSTRUCTION (JUMPA .+1) TO
 42238									;JUMPA X (X IS THE ADDRESS OF THE FIRST INSTRUCTION
 42239									;IN THE SUBTEST) TO LOOP ON ERROR^
 42240
 42241					;**********
 42242
 42243					;THIS TEST VERIFIES THAT A ROTC INSTRUCTION FUNCTIONS CORRECTLY.
 42244					;IN THIS CASE, -1,,-1 -1,,-1 SHOULD BE ROTATED LEFT 3 BIT POSITIONS
 42245					;SO THAT FINAL C(AC)=-1,,-1 AND FINAL C(AC+1)=-1,,-1
 42246
 42247	057227	200 00 0 00 070254 	C37300:	MOVE	0,[-1,,-1]	;PRELOAD AC WITH -1,,-1
 42248	057230	200 01 0 00 070254 		MOVE	1,[-1,,-1]	;PRELOAD AC+1 WITH -1,,-1
 42249	057231	245 00 0 00 000003 		ROTC	0,3		;*ROTC SHOULD ROTATE -1,,-1
 42250									;-1,,-1 LEFT 3 BIT POSITIONS
 42251	057232	312 00 0 00 070254 		CAME	0,[-1,,-1]	;PASS IF C(AC)=-1,,-1
 42252						STOP^
 42253	057233	254 04 0 00 057234 		HALT	.+1		;TEST FAILED IF PROGRAM HALTS HERE
 42254	057234	324 00 0 00 057235 		JUMPA	.+1		;IF TEST FAILS, CHANGE THIS INSTRUCTION (JUMPA .+1) TO
 42255									;JUMPA X (X IS THE ADDRESS OF THE FIRST INSTRUCTION
 42256									;IN THE SUBTEST) TO LOOP ON ERROR^
 42257	057235	312 00 0 00 070254 		CAME	0,[-1,,-1]	;PASS IF C(AC+1)=-1,,-1
 42258						STOP^
 42259	057236	254 04 0 00 057237 		HALT	.+1		;TEST FAILED IF PROGRAM HALTS HERE
 42260	057237	324 00 0 00 057240 		JUMPA	.+1		;IF TEST FAILS, CHANGE THIS INSTRUCTION (JUMPA .+1) TO
 42261									;JUMPA X (X IS THE ADDRESS OF THE FIRST INSTRUCTION
 42262									;IN THE SUBTEST) TO LOOP ON ERROR^
 42263
 42264					;**********
DFKAA PDP-10 KL10 BASIC INSTRUCTION DIAGNOSTIC (1) VER 0,2	MACRO %52(537) 09:34 31-JAN-77 PAGE 33
DFKAA7	MAC	25-AUG-75 14:03		TEST OF SHIFT/ROTATE INSTRUCTIONS USED IN THE ERROR HANDLER                        SEQ 0984

 42265					;THIS TEST VERIFIES THAT A ROTC INSTRUCTION FUNCTIONS CORRECTLY.
 42266					;IN THIS CASE, 252525,,252525 252525,,252525 SHOULD BE ROTATED LEFT 3 BIT POSITIONS
 42267					;SO THAT FINAL C(AC)=525252,,525252 AND FINAL C(AC+1)=525252,,525252
 42268
 42269	057240	200 00 0 00 070614 	C37400:	MOVE	0,[252525,,252525]	;PRELOAD AC WITH 252525,,252525
 42270	057241	200 01 0 00 070614 		MOVE	1,[252525,,252525]	;PRELOAD AC+1 WITH 252525,,252525
 42271	057242	245 00 0 00 000003 		ROTC	0,3			;*ROTC SHOULD ROTATE 252525,,252525
 42272										;252525,,252525 LEFT 3 BIT POSITIONS
 42273	057243	312 00 0 00 071035 		CAME	0,[525252,,525252]	;PASS IF C(AC)=525252,,525252
 42274						STOP^
 42275	057244	254 04 0 00 057245 		HALT	.+1		;TEST FAILED IF PROGRAM HALTS HERE
 42276	057245	324 00 0 00 057246 		JUMPA	.+1		;IF TEST FAILS, CHANGE THIS INSTRUCTION (JUMPA .+1) TO
 42277									;JUMPA X (X IS THE ADDRESS OF THE FIRST INSTRUCTION
 42278									;IN THE SUBTEST) TO LOOP ON ERROR^
 42279	057246	312 01 0 00 071035 		CAME	1,[525252,,525252]	;PASS IF C(AC+1)=525252,,525252
 42280						STOP^
 42281	057247	254 04 0 00 057250 		HALT	.+1		;TEST FAILED IF PROGRAM HALTS HERE
 42282	057250	324 00 0 00 057251 		JUMPA	.+1		;IF TEST FAILS, CHANGE THIS INSTRUCTION (JUMPA .+1) TO
 42283									;JUMPA X (X IS THE ADDRESS OF THE FIRST INSTRUCTION
 42284									;IN THE SUBTEST) TO LOOP ON ERROR^
 42285
 42286					;**********
 42287
 42288					;THIS TEST VERIFIES THAT A ROTC INSTRUCTION FUNCTIONS CORRECTLY.
 42289					;IN THIS CASE, 525252,,525252 525252,,525252 SHOULD BE ROTATED LEFT 3 BIT POSITIONS
 42290					;SO THAT FINAL C(AC)=252525,,252525 AND FINAL C(AC+1)=252525,,252525
 42291
 42292	057251	200 00 0 00 071035 	C37500:	MOVE	0,[525252,,525252]	;PRELOAD AC WITH 525252,,525252
 42293	057252	200 01 0 00 071035 		MOVE	1,[525252,,525252]	;PRELOAD AC+1 WITH 525252,,525252
 42294	057253	245 00 0 00 000003 		ROTC	0,3			;*ROTC SHOULD ROTATE 525252,,525252
 42295										;525252,,525252 LEFT 3 BIT POSITIONS
 42296	057254	312 00 0 00 070614 		CAME	0,[252525,,252525]	;PASS IF C(AC)=252525,,252525
 42297						STOP^
 42298	057255	254 04 0 00 057256 		HALT	.+1		;TEST FAILED IF PROGRAM HALTS HERE
 42299	057256	324 00 0 00 057257 		JUMPA	.+1		;IF TEST FAILS, CHANGE THIS INSTRUCTION (JUMPA .+1) TO
 42300									;JUMPA X (X IS THE ADDRESS OF THE FIRST INSTRUCTION
 42301									;IN THE SUBTEST) TO LOOP ON ERROR^
 42302	057257	312 01 0 00 070614 		CAME	1,[252525,,252525]	;PASS IF C(AC+1)=252525,,252525
 42303						STOP^
 42304	057260	254 04 0 00 057261 		HALT	.+1		;TEST FAILED IF PROGRAM HALTS HERE
 42305	057261	324 00 0 00 057262 		JUMPA	.+1		;IF TEST FAILS, CHANGE THIS INSTRUCTION (JUMPA .+1) TO
 42306									;JUMPA X (X IS THE ADDRESS OF THE FIRST INSTRUCTION
 42307									;IN THE SUBTEST) TO LOOP ON ERROR^
 42308
 42309					;**********
DFKAA PDP-10 KL10 BASIC INSTRUCTION DIAGNOSTIC (1) VER 0,2	MACRO %52(537) 09:34 31-JAN-77 PAGE 34
DFKAA7	MAC	25-AUG-75 14:03		TEST OF SHIFT/ROTATE INSTRUCTIONS USED IN THE ERROR HANDLER                        SEQ 0985

 42310					;THIS TEST VERIFIES THAT A ROTC INSTRUCTION FUNCTIONS CORRECTLY.
 42311					;IN THIS CASE, 230703,,603700 770037,,600377 SHOULD BE ROTATED LEFT 3 BIT POSITIONS
 42312					;SO THAT FINAL C(AC)=307036,,37007 AND FINAL C(AC+1)=700376,,003772
 42313
 42314	057262	200 00 0 00 071036 	C37600:	MOVE	0,[230703,,603700]	;PRELOAD AC WITH 230703,,603700
 42315	057263	200 01 0 00 071044 		MOVE	1,[770037,,600377]	;PRELOAD AC+1 WITH 770037,,600377
 42316	057264	245 00 0 00 000003 		ROTC	0,3			;*ROTC SHOULD ROTATE 230703,,603700
 42317										;770037,,600377 LEFT 3 BIT POSITIONS
 42318	057265	312 00 0 00 071045 		CAME	0,[307036,,037007]	;PASS IF C(AC)=307036,,37007
 42319						STOP^
 42320	057266	254 04 0 00 057267 		HALT	.+1		;TEST FAILED IF PROGRAM HALTS HERE
 42321	057267	324 00 0 00 057270 		JUMPA	.+1		;IF TEST FAILS, CHANGE THIS INSTRUCTION (JUMPA .+1) TO
 42322									;JUMPA X (X IS THE ADDRESS OF THE FIRST INSTRUCTION
 42323									;IN THE SUBTEST) TO LOOP ON ERROR^
 42324	057270	312 01 0 00 071046 		CAME	1,[700376,,003772]	;PASS IF C(AC+1)=700376,,003772
 42325						STOP^
 42326	057271	254 04 0 00 057272 		HALT	.+1		;TEST FAILED IF PROGRAM HALTS HERE
 42327	057272	324 00 0 00 057273 		JUMPA	.+1		;IF TEST FAILS, CHANGE THIS INSTRUCTION (JUMPA .+1) TO
 42328									;JUMPA X (X IS THE ADDRESS OF THE FIRST INSTRUCTION
 42329									;IN THE SUBTEST) TO LOOP ON ERROR^
 42330
 42331					;**********
 42332
 42333					;THIS TEST VERIFIES THAT A ROTC INSTRUCTION FUNCTIONS CORRECTLY.
 42334					;IN THIS CASE, 776003,,760077 007603,,607062 SHOULD BE ROTATED LEFT 3 BIT POSITIONS
 42335					;SO THAT FINAL C(AC)=760037,,600770 AND FINAL C(AC+1)=076036,,070627
 42336
 42337	057273	200 00 0 00 071047 	C37700:	MOVE	0,[776003,,760077]	;PRELOAD AC WITH 776003,,760077
 42338	057274	200 01 0 00 071040 		MOVE	1,[007603,,607062]	;PRELOAD AC+1 WITH 007603,,607062
 42339	057275	245 00 0 00 000003 		ROTC	0,3			;*ROTC SHOULD ROTATE 776003,,760077
 42340										;007603,,607062 LEFT 3 BIT POSITIONS
 42341	057276	312 00 0 00 071050 		CAME	0,[760037,,600770]	;PASS IF C(AC)=076036,,070627
 42342						STOP^
 42343	057277	254 04 0 00 057300 		HALT	.+1		;TEST FAILED IF PROGRAM HALTS HERE
 42344	057300	324 00 0 00 057301 		JUMPA	.+1		;IF TEST FAILS, CHANGE THIS INSTRUCTION (JUMPA .+1) TO
 42345									;JUMPA X (X IS THE ADDRESS OF THE FIRST INSTRUCTION
 42346									;IN THE SUBTEST) TO LOOP ON ERROR^
 42347	057301	312 01 0 00 071051 		CAME	1,[076036,,070627]	;PASS IF C(AC+1)=760037,,600770
 42348						STOP^
 42349	057302	254 04 0 00 057303 		HALT	.+1		;TEST FAILED IF PROGRAM HALTS HERE
 42350	057303	324 00 0 00 057304 		JUMPA	.+1		;IF TEST FAILS, CHANGE THIS INSTRUCTION (JUMPA .+1) TO
 42351									;JUMPA X (X IS THE ADDRESS OF THE FIRST INSTRUCTION
 42352									;IN THE SUBTEST) TO LOOP ON ERROR^
 42353
 42354					;**********
DFKAA PDP-10 KL10 BASIC INSTRUCTION DIAGNOSTIC (1) VER 0,2	MACRO %52(537) 09:34 31-JAN-77 PAGE 35
DFKAA7	MAC	25-AUG-75 14:03		TEST OF SHIFT/ROTATE INSTRUCTIONS USED IN THE ERROR HANDLER                        SEQ 0986

 42355					;THIS TEST VERIFIES THAT A ROTC INSTRUCTION FUNCTIONS CORRECTLY.
 42356					;IN THIS CASE, 0,,0 0,,0 SHOULD BE ROTATED LEFT 7 BIT POSITIONS
 42357					;SO THAT FINAL C(AC)=0,,0 AND FINAL C(AC+1)=0,,0
 42358
 42359	057304	200 00 0 00 070253 	C40000:	MOVE	0,[0,,0]	;PRELOAD AC WITH 0,,0
 42360	057305	200 01 0 00 070253 		MOVE	1,[0,,0]	;PRELOAD AC+1 WITH 0,,0
 42361	057306	245 00 0 00 000007 		ROTC	0,7		;*ROTC SHOULD ROTATE 0,,0 0,,0 LEFT 7 BIT POSITIONS
 42362	057307	312 00 0 00 070253 		CAME	0,[0,,0]	;PASS IF C(AC)=0,,0
 42363						STOP^
 42364	057310	254 04 0 00 057311 		HALT	.+1		;TEST FAILED IF PROGRAM HALTS HERE
 42365	057311	324 00 0 00 057312 		JUMPA	.+1		;IF TEST FAILS, CHANGE THIS INSTRUCTION (JUMPA .+1) TO
 42366									;JUMPA X (X IS THE ADDRESS OF THE FIRST INSTRUCTION
 42367									;IN THE SUBTEST) TO LOOP ON ERROR^
 42368	057312	312 01 0 00 070253 		CAME	1,[0,,0]	;PASS IF C(AC+1)=0,,0
 42369						STOP^
 42370	057313	254 04 0 00 057314 		HALT	.+1		;TEST FAILED IF PROGRAM HALTS HERE
 42371	057314	324 00 0 00 057315 		JUMPA	.+1		;IF TEST FAILS, CHANGE THIS INSTRUCTION (JUMPA .+1) TO
 42372									;JUMPA X (X IS THE ADDRESS OF THE FIRST INSTRUCTION
 42373									;IN THE SUBTEST) TO LOOP ON ERROR^
 42374
 42375					;**********
 42376
 42377					;THIS TEST VERIFIES THAT A ROTC INSTRUCTION FUNCTIONS CORRECTLY.
 42378					;IN THIS CASE, -1,,-1 -1,,-1  SHOULD BE ROTATED LEFT 7 BIT POSITIONS
 42379					;SO THAT FINAL C(AC)=-1,,-1 AND FINAL C(AC+1)=-1,,-1
 42380
 42381	057315	200 00 0 00 070254 	C40100:	MOVE	0,[-1,,-1]	;PRELOAD AC WITH -1,,-1
 42382	057316	200 01 0 00 070254 		MOVE	1,[-1,,-1]	;PRELOAD AC+1 WITH -1,,-1
 42383	057317	245 00 0 00 000007 		ROTC	0,7		;*ROTC SHOULD ROTATE -1,,-1
 42384									;-1,,-1 LEFT 7 BIT POSITIONS
 42385	057320	312 00 0 00 070254 		CAME	0,[-1,,-1]	;PASS IF C(AC)=-1,,-1
 42386						STOP^
 42387	057321	254 04 0 00 057322 		HALT	.+1		;TEST FAILED IF PROGRAM HALTS HERE
 42388	057322	324 00 0 00 057323 		JUMPA	.+1		;IF TEST FAILS, CHANGE THIS INSTRUCTION (JUMPA .+1) TO
 42389									;JUMPA X (X IS THE ADDRESS OF THE FIRST INSTRUCTION
 42390									;IN THE SUBTEST) TO LOOP ON ERROR^
 42391	057323	312 01 0 00 070254 		CAME	1,[-1,,-1]	;PASS IF C(AC+1)=-1,,-1
 42392						STOP^
 42393	057324	254 04 0 00 057325 		HALT	.+1		;TEST FAILED IF PROGRAM HALTS HERE
 42394	057325	324 00 0 00 057326 		JUMPA	.+1		;IF TEST FAILS, CHANGE THIS INSTRUCTION (JUMPA .+1) TO
 42395									;JUMPA X (X IS THE ADDRESS OF THE FIRST INSTRUCTION
 42396									;IN THE SUBTEST) TO LOOP ON ERROR^
 42397
 42398					;**********
DFKAA PDP-10 KL10 BASIC INSTRUCTION DIAGNOSTIC (1) VER 0,2	MACRO %52(537) 09:34 31-JAN-77 PAGE 36
DFKAA7	MAC	25-AUG-75 14:03		TEST OF SHIFT/ROTATE INSTRUCTIONS USED IN THE ERROR HANDLER                        SEQ 0987

 42399					;THIS TEST VERIFIES THAT A ROTC INSTRUCTION FUNCTIONS CORRECTLY.
 42400					;IN THIS CASE, 252525,,252525 252525,,252525 SHOULD BE ROTATED LEFT 7 BIT POSITIONS
 42401					;SO THAT FINAL C(AC)=525252,,525252 AND FINAL C(AC+1)=525252,,525252
 42402
 42403	057326	200 00 0 00 070614 	C40200:	MOVE	0,[252525,,252525]	;PRELOAD AC WITH 252525,,252525
 42404	057327	200 01 0 00 070614 		MOVE	1,[252525,,252525]	;PRELOAD AC+1 WITH 252525,,252525
 42405	057330	245 00 0 00 000007 		ROTC	0,7			;*ROTC SHOULD ROTATE 252525,,252525
 42406										;252525,,252525 LEFT 7 BIT POSITIONS
 42407	057331	312 00 0 00 071035 		CAME	0,[525252,,525252]	;PASS IF C(AC)=525252,,525252
 42408						STOP^
 42409	057332	254 04 0 00 057333 		HALT	.+1		;TEST FAILED IF PROGRAM HALTS HERE
 42410	057333	324 00 0 00 057334 		JUMPA	.+1		;IF TEST FAILS, CHANGE THIS INSTRUCTION (JUMPA .+1) TO
 42411									;JUMPA X (X IS THE ADDRESS OF THE FIRST INSTRUCTION
 42412									;IN THE SUBTEST) TO LOOP ON ERROR^
 42413	057334	312 01 0 00 071035 		CAME	1,[525252,,525252]	;PASS IF C(AC+1)=525252,,525252
 42414						STOP^
 42415	057335	254 04 0 00 057336 		HALT	.+1		;TEST FAILED IF PROGRAM HALTS HERE
 42416	057336	324 00 0 00 057337 		JUMPA	.+1		;IF TEST FAILS, CHANGE THIS INSTRUCTION (JUMPA .+1) TO
 42417									;JUMPA X (X IS THE ADDRESS OF THE FIRST INSTRUCTION
 42418									;IN THE SUBTEST) TO LOOP ON ERROR^
 42419
 42420					;**********
 42421
 42422					;THIS TEST VERIFIES THAT A ROTC INSTRUCTION FUNCTIONS CORRECTLY.
 42423					;IN THIS CASE, 525252,,525252 525252,,525252 SHOULD BE ROTATED LEFT 7 BIT POSITIONS
 42424					;SO THAT FINAL C(AC)=252525,,252525 AND FINAL C(AC+1)=252525,,252525
 42425
 42426	057337	200 00 0 00 071035 	C40300:	MOVE	0,[525252,,525252]	;PRELOAD AC WITH 525252,,525252
 42427	057340	200 01 0 00 071035 		MOVE	1,[525252,,525252]	;PRELOAD AC+1 WITH 525252,,525252
 42428	057341	245 00 0 00 000007 		ROTC	0,7			;*ROTC SHOULD ROTATE 525252,,525252
 42429										;525252,,525252 LEFT 7 BIT POSITIONS
 42430	057342	312 00 0 00 070614 		CAME	0,[252525,,252525]	;PASS IF C(AC)=252525,,252525
 42431						STOP^
 42432	057343	254 04 0 00 057344 		HALT	.+1		;TEST FAILED IF PROGRAM HALTS HERE
 42433	057344	324 00 0 00 057345 		JUMPA	.+1		;IF TEST FAILS, CHANGE THIS INSTRUCTION (JUMPA .+1) TO
 42434									;JUMPA X (X IS THE ADDRESS OF THE FIRST INSTRUCTION
 42435									;IN THE SUBTEST) TO LOOP ON ERROR^
 42436	057345	312 01 0 00 070614 		CAME	1,[252525,,252525]	;PASS IF C(AC+1)=252525,,252525
 42437						STOP^
 42438	057346	254 04 0 00 057347 		HALT	.+1		;TEST FAILED IF PROGRAM HALTS HERE
 42439	057347	324 00 0 00 057350 		JUMPA	.+1		;IF TEST FAILS, CHANGE THIS INSTRUCTION (JUMPA .+1) TO
 42440									;JUMPA X (X IS THE ADDRESS OF THE FIRST INSTRUCTION
 42441									;IN THE SUBTEST) TO LOOP ON ERROR^
 42442
 42443					;**********
DFKAA PDP-10 KL10 BASIC INSTRUCTION DIAGNOSTIC (1) VER 0,2	MACRO %52(537) 09:34 31-JAN-77 PAGE 37
DFKAA7	MAC	25-AUG-75 14:03		TEST OF SHIFT/ROTATE INSTRUCTIONS USED IN THE ERROR HANDLER                        SEQ 0988

 42444					;THIS TEST VERIFIES THAT A ROTC INSTRUCTION FUNCTIONS CORRECTLY.
 42445					;IN THIS CASE, 230703,,603700 770037,,600377 SHOULD BE ROTATED LEFT 7 BIT POSITIONS
 42446					;SO THAT FINAL C(AC)=160740,,760176 AND FINAL C(AC+1)=007740,,077646
 42447
 42448	057350	200 00 0 00 071036 	C40400:	MOVE	0,[230703,,603700]	;PRELOAD AC WITH 230703,,603700
 42449	057351	200 01 0 00 071044 		MOVE	1,[770037,,600377]	;PRELOAD AC+1 WITH 770037,,600377
 42450	057352	245 00 0 00 000007 		ROTC	0,7			;*ROTC SHOULD ROTATE 230703,,603700
 42451										;770037,,600377 LEFT 7 BIT POSITIONS
 42452	057353	312 00 0 00 071052 		CAME	0,[160740,,760176]	;PASS IF C(AC)=160740,,760176
 42453						STOP^
 42454	057354	254 04 0 00 057355 		HALT	.+1		;TEST FAILED IF PROGRAM HALTS HERE
 42455	057355	324 00 0 00 057356 		JUMPA	.+1		;IF TEST FAILS, CHANGE THIS INSTRUCTION (JUMPA .+1) TO
 42456									;JUMPA X (X IS THE ADDRESS OF THE FIRST INSTRUCTION
 42457									;IN THE SUBTEST) TO LOOP ON ERROR^
 42458	057356	312 01 0 00 071053 		CAME	1,[007740,,077646]	;PASS IF C(AC+1)=007740,,077646
 42459						STOP^
 42460	057357	254 04 0 00 057360 		HALT	.+1		;TEST FAILED IF PROGRAM HALTS HERE
 42461	057360	324 00 0 00 057361 		JUMPA	.+1		;IF TEST FAILS, CHANGE THIS INSTRUCTION (JUMPA .+1) TO
 42462									;JUMPA X (X IS THE ADDRESS OF THE FIRST INSTRUCTION
 42463									;IN THE SUBTEST) TO LOOP ON ERROR^
 42464
 42465					;**********
 42466
 42467					;THIS TEST VERIFIES THAT A ROTC INSTRUCTION FUNCTIONS CORRECTLY.
 42468					;IN THIS CASE, 776003,,760077 007603,,607063 SHOULD BE ROTATED LEFT 7 BIT POSITIONS
 42469					;SO THAT FINAL C(AC)=400774,,017610 AND FINAL C(AC+1)=740741,,614577
 42470
 42471	057361	200 00 0 00 071047 	C40500:	MOVE	0,[776003,,760077]	;PRELOAD AC WITH 776003,,760077
 42472	057362	200 01 0 00 071040 		MOVE	1,[007603,,607062]	;PRELOAD AC+1 WITH 007603,,607062
 42473	057363	245 00 0 00 000007 		ROTC	0,7			;*ROTC SHOULD ROTATE 776003,,760077
 42474										;007603,,607062 LEFT 7 BIT POSITIONS
 42475	057364	312 00 0 00 071054 		CAME	0,[400774,,017601]	;PASS IF C(AC)=400774,,017601
 42476						STOP^
 42477	057365	254 04 0 00 057366 		HALT	.+1		;TEST FAILED IF PROGRAM HALTS HERE
 42478	057366	324 00 0 00 057367 		JUMPA	.+1		;IF TEST FAILS, CHANGE THIS INSTRUCTION (JUMPA .+1) TO
 42479									;JUMPA X (X IS THE ADDRESS OF THE FIRST INSTRUCTION
 42480									;IN THE SUBTEST) TO LOOP ON ERROR^
 42481	057367	312 01 0 00 071055 		CAME	1,[740741,,614577]	;PASS IF C(AC+1)=740741,,614577
 42482						STOP^
 42483	057370	254 04 0 00 057371 		HALT	.+1		;TEST FAILED IF PROGRAM HALTS HERE
 42484	057371	324 00 0 00 057372 		JUMPA	.+1		;IF TEST FAILS, CHANGE THIS INSTRUCTION (JUMPA .+1) TO
 42485									;JUMPA X (X IS THE ADDRESS OF THE FIRST INSTRUCTION
 42486									;IN THE SUBTEST) TO LOOP ON ERROR^
 42487
 42488					;**********
DFKAA PDP-10 KL10 BASIC INSTRUCTION DIAGNOSTIC (1) VER 0,2	MACRO %52(537) 09:34 31-JAN-77 PAGE 38
DFKAA7	MAC	25-AUG-75 14:03		TEST OF SHIFT/ROTATE INSTRUCTIONS USED IN THE ERROR HANDLER                        SEQ 0989

 42489					;THIS TEST VERIFIES THAT THE LSH INSTRUCTION FUNCTIONS CORRECTLY
 42490					;IN THIS CASE, 0,,0 SHOULD BE LOGICALLY SHIFTED RIGHT 33 OCTAL BIT POSITIONS
 42491					;SO THAT FINAL C(AC)=0,,0.
 42492					;C(AC+1) SHOULD NOT BE AFFECTED
 42493
 42494	057372	200 00 0 00 070253 	C40600:	MOVE	0,[0,,0]	;PRELOAD AC WITH 0,,0
 42495	057373	200 01 0 00 071034 		MOVE	1,[172737,,405060] ;PRELOAD AC+1 WITH 172737,,405060
 42496	057374	242 00 0 00 777745 		LSH	0,-33		;*LSH SHOULD LOGICALLY SHIFT 0,,0
 42497									;RIGHT 33 OCTAL BIT POSITIONS
 42498	057375	312 00 0 00 070253 		CAME	0,[0,,0]	;PASS IF C(AC)=0,,0
 42499						STOP^
 42500	057376	254 04 0 00 057377 		HALT	.+1		;TEST FAILED IF PROGRAM HALTS HERE
 42501	057377	324 00 0 00 057400 		JUMPA	.+1		;IF TEST FAILS, CHANGE THIS INSTRUCTION (JUMPA .+1) TO
 42502									;JUMPA X (X IS THE ADDRESS OF THE FIRST INSTRUCTION
 42503									;IN THE SUBTEST) TO LOOP ON ERROR^
 42504	057400	312 01 0 00 071034 		CAME	1,[172737,,405060] ;PASS IF C(AC+1) NOT AFFECTED
 42505						STOP^
 42506	057401	254 04 0 00 057402 		HALT	.+1		;TEST FAILED IF PROGRAM HALTS HERE
 42507	057402	324 00 0 00 057403 		JUMPA	.+1		;IF TEST FAILS, CHANGE THIS INSTRUCTION (JUMPA .+1) TO
 42508									;JUMPA X (X IS THE ADDRESS OF THE FIRST INSTRUCTION
 42509									;IN THE SUBTEST) TO LOOP ON ERROR^
 42510
 42511					;**********
 42512
 42513					;THIS TEST VERIFIES THAT THE LSH INSTRUCTION FUNCTIONS CORRECTLY
 42514					;IN -1,,-1 SHOULD BE LOGICALLY SHIFTED RIGHT 33 OCTAL BIT POSITIONS
 42515					;SO THAT FINAL C(AC)=0,,777.
 42516					;C(AC+1) SHOULD NOT BE AFFECTED
 42517
 42518	057403	200 00 0 00 070254 	C40700:	MOVE	0,[-1,,-1]	;PRELOAD AC WITH -1,,-1
 42519	057404	200 01 0 00 071034 		MOVE	1,[172737,,405060] ;PRELOAD AC+1 WITH 172737,,405060
 42520	057405	242 00 0 00 777745 		LSH	0,-33		;*LSH SHOULD LOGICALLY SHIFT -1,,-1
 42521									;RIGHT 33 OCTAL BIT POSITIONS
 42522	057406	312 00 0 00 070262 		CAME	0,[0,777]	;PASS IF C(AC)=0,,777
 42523						STOP^
 42524	057407	254 04 0 00 057410 		HALT	.+1		;TEST FAILED IF PROGRAM HALTS HERE
 42525	057410	324 00 0 00 057411 		JUMPA	.+1		;IF TEST FAILS, CHANGE THIS INSTRUCTION (JUMPA .+1) TO
 42526									;JUMPA X (X IS THE ADDRESS OF THE FIRST INSTRUCTION
 42527									;IN THE SUBTEST) TO LOOP ON ERROR^
 42528	057411	312 01 0 00 071034 		CAME	1,[172737,,405060] ;PASS IF C(AC+1) NOT AFFECTED
 42529						STOP^
 42530	057412	254 04 0 00 057413 		HALT	.+1		;TEST FAILED IF PROGRAM HALTS HERE
 42531	057413	324 00 0 00 057414 		JUMPA	.+1		;IF TEST FAILS, CHANGE THIS INSTRUCTION (JUMPA .+1) TO
 42532									;JUMPA X (X IS THE ADDRESS OF THE FIRST INSTRUCTION
 42533									;IN THE SUBTEST) TO LOOP ON ERROR^
 42534
 42535					;**********
DFKAA PDP-10 KL10 BASIC INSTRUCTION DIAGNOSTIC (1) VER 0,2	MACRO %52(537) 09:34 31-JAN-77 PAGE 39
DFKAA7	MAC	25-AUG-75 14:03		TEST OF SHIFT/ROTATE INSTRUCTIONS USED IN THE ERROR HANDLER                        SEQ 0990

 42536					;THIS TEST VERIFIES THAT THE LSH INSTRUCTION FUNCTIONS CORRECTLY
 42537					;IN 252525,,252525 SHOULD BE LOGICALLY SHIFTED RIGHT 33 OCTAL BIT POSITIONS
 42538					;SO THAT FINAL C(AC)=0,,252.
 42539					;C(AC+1) SHOULD NOT BE AFFECTED
 42540
 42541	057414	200 00 0 00 070614 	C41000:	MOVE	0,[252525,,252525]	;PRELOAD AC WITH 252525,,252525
 42542	057415	200 01 0 00 071034 		MOVE	1,[172737,,405060] 	;PRELOAD AC+1 WITH 172737,,405060
 42543	057416	242 00 0 00 777745 		LSH	0,-33			;*LSH SHOULD LOGICALLY SHIFT 252525,,252525
 42544										;RIGHT 33 OCTAL BIT POSITIONS
 42545	057417	312 00 0 00 071056 		CAME	0,[0,,252]		;PASS IF C(AC)=0,,252
 42546						STOP^
 42547	057420	254 04 0 00 057421 		HALT	.+1		;TEST FAILED IF PROGRAM HALTS HERE
 42548	057421	324 00 0 00 057422 		JUMPA	.+1		;IF TEST FAILS, CHANGE THIS INSTRUCTION (JUMPA .+1) TO
 42549									;JUMPA X (X IS THE ADDRESS OF THE FIRST INSTRUCTION
 42550									;IN THE SUBTEST) TO LOOP ON ERROR^
 42551	057422	312 01 0 00 071034 		CAME	1,[172737,,405060]	;PASS IF C(AC+1) NOT AFFECTED
 42552						STOP^
 42553	057423	254 04 0 00 057424 		HALT	.+1		;TEST FAILED IF PROGRAM HALTS HERE
 42554	057424	324 00 0 00 057425 		JUMPA	.+1		;IF TEST FAILS, CHANGE THIS INSTRUCTION (JUMPA .+1) TO
 42555									;JUMPA X (X IS THE ADDRESS OF THE FIRST INSTRUCTION
 42556									;IN THE SUBTEST) TO LOOP ON ERROR^
 42557
 42558					;**********
 42559
 42560					;THIS TEST VERIFIES THAT THE LSH INSTRUCTION FUNCTIONS CORRECTLY
 42561					;IN THIS CASE, 525252,,525252 SHOULD BE LOGICALLY SHIFTED RIGHT 33 OCTAL BIT POSITIONS
 42562					;SO THAT FINAL C(AC)=0,,525.
 42563					;C(AC+1) SHOULD NOT BE AFFECTED
 42564
 42565	057425	200 00 0 00 071035 	C41100:	MOVE	0,[525252,,525252]	;PRELOAD AC WITH 525252,,525252
 42566	057426	200 01 0 00 071034 		MOVE	1,[172737,,405060]	;PRELOAD AC+1 WITH 172737,,405060
 42567	057427	242 00 0 00 777745 		LSH	0,-33			;*LSH SHOULD LOGICALLY SHIFT 525252,,525252
 42568										;RIGHT 33 OCTAL BIT POSITIONS
 42569	057430	312 00 0 00 071057 		CAME	0,[0,,525]		;PASS IF C(AC)=0,,525
 42570						STOP^
 42571	057431	254 04 0 00 057432 		HALT	.+1		;TEST FAILED IF PROGRAM HALTS HERE
 42572	057432	324 00 0 00 057433 		JUMPA	.+1		;IF TEST FAILS, CHANGE THIS INSTRUCTION (JUMPA .+1) TO
 42573									;JUMPA X (X IS THE ADDRESS OF THE FIRST INSTRUCTION
 42574									;IN THE SUBTEST) TO LOOP ON ERROR^
 42575	057433	312 01 0 00 071034 		CAME	1,[172737,,405060]	;PASS IF C(AC+1) NOT AFFECTED
 42576						STOP^
 42577	057434	254 04 0 00 057435 		HALT	.+1		;TEST FAILED IF PROGRAM HALTS HERE
 42578	057435	324 00 0 00 057436 		JUMPA	.+1		;IF TEST FAILS, CHANGE THIS INSTRUCTION (JUMPA .+1) TO
 42579									;JUMPA X (X IS THE ADDRESS OF THE FIRST INSTRUCTION
 42580									;IN THE SUBTEST) TO LOOP ON ERROR^
 42581
 42582					;**********
DFKAA PDP-10 KL10 BASIC INSTRUCTION DIAGNOSTIC (1) VER 0,2	MACRO %52(537) 09:34 31-JAN-77 PAGE 40
DFKAA7	MAC	25-AUG-75 14:03		TEST OF SHIFT/ROTATE INSTRUCTIONS USED IN THE ERROR HANDLER                        SEQ 0991

 42583					;THIS TEST VERIFIES THAT THE LSH INSTRUCTION FUNCTIONS CORRECTLY
 42584					;IN THIS CASE, 230703,,603700 SHOULD BE LOGICALLY SHIFTED RIGHT 33 OCTAL BIT POSITIONS
 42585					;SO THAT FINAL C(AC)=0,,230.
 42586					;C(AC+1) SHOULD NOT BE AFFECTED
 42587
 42588	057436	200 00 0 00 071036 	C41200:	MOVE	0,[230703,,603700]	;PRELOAD AC WITH 230703,,603700
 42589	057437	200 01 0 00 071034 		MOVE	1,[172737,,405060]	;PRELOAD AC+1 WITH 172737,,405060
 42590	057440	242 00 0 00 777745 		LSH	0,-33			;*LSH SHOULD LOGICALLY SHIFT 230703,,603700
 42591										;RIGHT 33 OCTAL BIT POSITIONS
 42592	057441	312 00 0 00 071060 		CAME	0,[0,,230]		;PASS IF C(AC)=230703,,603700
 42593						STOP^
 42594	057442	254 04 0 00 057443 		HALT	.+1		;TEST FAILED IF PROGRAM HALTS HERE
 42595	057443	324 00 0 00 057444 		JUMPA	.+1		;IF TEST FAILS, CHANGE THIS INSTRUCTION (JUMPA .+1) TO
 42596									;JUMPA X (X IS THE ADDRESS OF THE FIRST INSTRUCTION
 42597									;IN THE SUBTEST) TO LOOP ON ERROR^
 42598	057444	312 01 0 00 071034 		CAME	1,[172737,,405060]	;PASS IF C(AC+1) NOT AFFECTED
 42599						STOP^
 42600	057445	254 04 0 00 057446 		HALT	.+1		;TEST FAILED IF PROGRAM HALTS HERE
 42601	057446	324 00 0 00 057447 		JUMPA	.+1		;IF TEST FAILS, CHANGE THIS INSTRUCTION (JUMPA .+1) TO
 42602									;JUMPA X (X IS THE ADDRESS OF THE FIRST INSTRUCTION
 42603									;IN THE SUBTEST) TO LOOP ON ERROR^
 42604
 42605					;**********
 42606
 42607					;THIS TEST VERIFIES THAT THE LSH INSTRUCTION FUNCTIONS CORRECTLY
 42608					;IN THIS CASE, 007603,,607062 SHOULD BE LOGICALLY SHIFTED RIGHT 33 OCTAL BIT POSITIONS
 42609					;SO THAT FINAL C(AC)=0,,7.
 42610					;C(AC+1) SHOULD NOT BE AFFECTED
 42611
 42612	057447	200 00 0 00 071040 	C41300:	MOVE	0,[007603,,607062]	;PRELOAD AC WITH 007603,,607062
 42613	057450	200 01 0 00 071034 		MOVE	1,[172737,,405060]	;PRELOAD AC+1 WITH 172737,,405060
 42614	057451	242 00 0 00 777745 		LSH	0,-33			;*LSH SHOULD LOGICALLY SHIFT 007603,,6070062
 42615										;RIGHT 33 OCTAL BIT POSITIONS
 42616	057452	312 00 0 00 071033 		CAME	0,[0,,7]		;PASS IF C(AC)=0,,7
 42617						STOP^
 42618	057453	254 04 0 00 057454 		HALT	.+1		;TEST FAILED IF PROGRAM HALTS HERE
 42619	057454	324 00 0 00 057455 		JUMPA	.+1		;IF TEST FAILS, CHANGE THIS INSTRUCTION (JUMPA .+1) TO
 42620									;JUMPA X (X IS THE ADDRESS OF THE FIRST INSTRUCTION
 42621									;IN THE SUBTEST) TO LOOP ON ERROR^
 42622	057455	312 01 0 00 071034 		CAME	1,[172737,,405060]	;PASS IF C(AC+1) NOT AFFECTED
 42623						STOP^
 42624	057456	254 04 0 00 057457 		HALT	.+1		;TEST FAILED IF PROGRAM HALTS HERE
 42625	057457	324 00 0 00 057460 		JUMPA	.+1		;IF TEST FAILS, CHANGE THIS INSTRUCTION (JUMPA .+1) TO
 42626									;JUMPA X (X IS THE ADDRESS OF THE FIRST INSTRUCTION
 42627									;IN THE SUBTEST) TO LOOP ON ERROR^
 42628
 42629					;**********
DFKAA PDP-10 KL10 BASIC INSTRUCTION DIAGNOSTIC (1) VER 0,2	MACRO %52(537) 09:34 31-JAN-77 PAGE 41
DFKAA7	MAC	25-AUG-75 14:03		TEST OF SHIFT/ROTATE INSTRUCTIONS USED IN THE ERROR HANDLER                        SEQ 0992

 42630					;THIS TEST VERIFIES THAT THE LSH INSTRUCTION FUNCTIONS CORRECTLY
 42631					;IN THIS CASE, 0,,0 SHOULD BE LOGICALLY SHIFTED RIGHT 27 OCTAL BIT POSITIONS
 42632					;SO THAT FINAL C(AC)=0,,0.
 42633					;C(AC+1) SHOULD NOT BE AFFECTED
 42634
 42635	057460	200 01 0 00 070253 	C41400:	MOVE	1,[0,,0]	;PRELOAD AC WITH 0,,0
 42636	057461	200 02 0 00 071034 		MOVE	2,[172737,,405060]	;PRELOAD C(AC+1) WITH 172737,,405060
 42637	057462	242 01 0 00 777751 		LSH	1,-27		;*LSH SHOULD LOGICALLY SHIFT 0,,0
 42638									;RIGHT 27 OCTAL BIT POSITIONS
 42639	057463	312 01 0 00 070253 		CAME	1,[0,,0]	;PASS IF C(AC)=0,,0
 42640						STOP^
 42641	057464	254 04 0 00 057465 		HALT	.+1		;TEST FAILED IF PROGRAM HALTS HERE
 42642	057465	324 00 0 00 057466 		JUMPA	.+1		;IF TEST FAILS, CHANGE THIS INSTRUCTION (JUMPA .+1) TO
 42643									;JUMPA X (X IS THE ADDRESS OF THE FIRST INSTRUCTION
 42644									;IN THE SUBTEST) TO LOOP ON ERROR^
 42645	057466	312 02 0 00 071034 		CAME	2,[172737,,405060]	;PASS IF C(AC+1) NOT AFFECTED
 42646						STOP^
 42647	057467	254 04 0 00 057470 		HALT	.+1		;TEST FAILED IF PROGRAM HALTS HERE
 42648	057470	324 00 0 00 057471 		JUMPA	.+1		;IF TEST FAILS, CHANGE THIS INSTRUCTION (JUMPA .+1) TO
 42649									;JUMPA X (X IS THE ADDRESS OF THE FIRST INSTRUCTION
 42650									;IN THE SUBTEST) TO LOOP ON ERROR^
 42651
 42652					;**********
 42653
 42654					;THIS TEST VERIFIES THAT THE LSH INSTRUCTION FUNCTIONS CORRECTLY
 42655					;IN THIS CASE, -1,,-1 SHOULD BE LOGICALLY SHIFTED RIGHT 27 OCTAL BIT POSITIONS
 42656					;SO THAT FINAL C(AC)=0,,17777.
 42657					;C(AC+1) SHOULD NOT BE AFFECTED
 42658
 42659	057471	200 01 0 00 070254 	C41500:	MOVE	1,[-1,,-1]	;PRELOAD AC WITH -1,,-1
 42660	057472	200 02 0 00 071034 		MOVE	2,[172737,,405060]	;PRELOAD C(AC+1) WITH 172737,,405060
 42661	057473	242 01 0 00 777751 		LSH	1,-27		;*LSH SHOULD LOGICALLY SHIFT -1,,-1
 42662									;RIGHT 27 OCTAL BIT POSITIONS
 42663	057474	312 01 0 00 071061 		CAME	1,[0,,17777]	;PASS IF C(AC)=0,17777
 42664						STOP^
 42665	057475	254 04 0 00 057476 		HALT	.+1		;TEST FAILED IF PROGRAM HALTS HERE
 42666	057476	324 00 0 00 057477 		JUMPA	.+1		;IF TEST FAILS, CHANGE THIS INSTRUCTION (JUMPA .+1) TO
 42667									;JUMPA X (X IS THE ADDRESS OF THE FIRST INSTRUCTION
 42668									;IN THE SUBTEST) TO LOOP ON ERROR^
 42669	057477	312 02 0 00 071034 		CAME	2,[172737,,405060]	;PASS IF C(AC+1) NOT AFFECTED
 42670						STOP^
 42671	057500	254 04 0 00 057501 		HALT	.+1		;TEST FAILED IF PROGRAM HALTS HERE
 42672	057501	324 00 0 00 057502 		JUMPA	.+1		;IF TEST FAILS, CHANGE THIS INSTRUCTION (JUMPA .+1) TO
 42673									;JUMPA X (X IS THE ADDRESS OF THE FIRST INSTRUCTION
 42674									;IN THE SUBTEST) TO LOOP ON ERROR^
 42675
 42676					;**********
DFKAA PDP-10 KL10 BASIC INSTRUCTION DIAGNOSTIC (1) VER 0,2	MACRO %52(537) 09:34 31-JAN-77 PAGE 42
DFKAA7	MAC	25-AUG-75 14:03		TEST OF SHIFT/ROTATE INSTRUCTIONS USED IN THE ERROR HANDLER                        SEQ 0993

 42677					;THIS TEST VERIFIES THAT THE LSH INSTRUCTION FUNCTIONS CORRECTLY
 42678					;IN THIS CASE, 252525,,252525 SHOULD BE LOGICALLY SHIFTED RIGHT 27 OCTAL BIT POSITIONS
 42679					;SO THAT FINAL C(AC)=0,,5252.
 42680					;C(AC+1) SHOULD NOT BE AFFECTED
 42681
 42682	057502	200 01 0 00 070614 	C41600:	MOVE	1,[252525,,252525]	;PRELOAD AC WITH 252525,,252525
 42683	057503	200 02 0 00 071034 		MOVE	2,[172737,,405060]	;PRELOAD C(AC+1) WITH 172737,,405060
 42684	057504	242 01 0 00 777751 		LSH	1,-27			;*LSH SHOULD LOGICALLY SHIFT 252525,,252525
 42685										;RIGHT 27 OCTAL BIT POSITIONS
 42686	057505	312 01 0 00 071062 		CAME	1,[0,,5252]		;PASS IF C(AC)=0,,5252
 42687						STOP^
 42688	057506	254 04 0 00 057507 		HALT	.+1		;TEST FAILED IF PROGRAM HALTS HERE
 42689	057507	324 00 0 00 057510 		JUMPA	.+1		;IF TEST FAILS, CHANGE THIS INSTRUCTION (JUMPA .+1) TO
 42690									;JUMPA X (X IS THE ADDRESS OF THE FIRST INSTRUCTION
 42691									;IN THE SUBTEST) TO LOOP ON ERROR^
 42692	057510	312 02 0 00 071034 		CAME	2,[172737,,405060]	;PASS IF C(AC+1) NOT AFFECTED
 42693						STOP^
 42694	057511	254 04 0 00 057512 		HALT	.+1		;TEST FAILED IF PROGRAM HALTS HERE
 42695	057512	324 00 0 00 057513 		JUMPA	.+1		;IF TEST FAILS, CHANGE THIS INSTRUCTION (JUMPA .+1) TO
 42696									;JUMPA X (X IS THE ADDRESS OF THE FIRST INSTRUCTION
 42697									;IN THE SUBTEST) TO LOOP ON ERROR^
 42698
 42699					;**********
 42700
 42701					;THIS TEST VERIFIES THAT THE LSH INSTRUCTION FUNCTIONS CORRECTLY
 42702					;IN THIS CASE, 525252,,525252 SHOULD BE LOGICALLY SHIFTED RIGHT 27 OCTAL BIT POSITIONS
 42703					;SO THAT FINAL C(AC)=0,,12525.
 42704					;C(AC+1) SHOULD NOT BE AFFECTED
 42705
 42706	057513	200 01 0 00 071035 	C41700:	MOVE	1,[525252,,525252]	;PRELOAD AC WITH 525252,,525252
 42707	057514	200 02 0 00 071034 		MOVE	2,[172737,,405060]	;PRELOAD C(AC+1) WITH 172737,,405060
 42708	057515	242 01 0 00 777751 		LSH	1,-27			;*LSH SHOULD LOGICALLY SHIFT 525252,,525252
 42709										;RIGHT 27 OCTAL BIT POSITIONS
 42710	057516	312 01 0 00 071063 		CAME	1,[0,,12525]		;PASS IF C(AC)=0,,12525
 42711						STOP^
 42712	057517	254 04 0 00 057520 		HALT	.+1		;TEST FAILED IF PROGRAM HALTS HERE
 42713	057520	324 00 0 00 057521 		JUMPA	.+1		;IF TEST FAILS, CHANGE THIS INSTRUCTION (JUMPA .+1) TO
 42714									;JUMPA X (X IS THE ADDRESS OF THE FIRST INSTRUCTION
 42715									;IN THE SUBTEST) TO LOOP ON ERROR^
 42716	057521	312 02 0 00 071034 		CAME	2,[172737,,405060]	;PASS IF C(AC+1) NOT AFFECTED
 42717						STOP^
 42718	057522	254 04 0 00 057523 		HALT	.+1		;TEST FAILED IF PROGRAM HALTS HERE
 42719	057523	324 00 0 00 057524 		JUMPA	.+1		;IF TEST FAILS, CHANGE THIS INSTRUCTION (JUMPA .+1) TO
 42720									;JUMPA X (X IS THE ADDRESS OF THE FIRST INSTRUCTION
 42721									;IN THE SUBTEST) TO LOOP ON ERROR^
 42722
 42723					;**********
DFKAA PDP-10 KL10 BASIC INSTRUCTION DIAGNOSTIC (1) VER 0,2	MACRO %52(537) 09:34 31-JAN-77 PAGE 43
DFKAA7	MAC	25-AUG-75 14:03		TEST OF SHIFT/ROTATE INSTRUCTIONS USED IN THE ERROR HANDLER                        SEQ 0994

 42724					;THIS TEST VERIFIES THAT THE LSH INSTRUCTION FUNCTIONS CORRECTLY
 42725					;IN THIS CASE, 230703,602700 SHOULD BE LOGICALLY SHIFTED RIGHT 27 OCTAL BIT POSITIONS
 42726					;SO THAT FINAL C(AC)=0,,4616.
 42727					;C(AC+1) SHOULD NOT BE AFFECTED
 42728
 42729	057524	200 01 0 00 071036 	C42000:	MOVE	1,[230703,,603700]	;PRELOAD AC WITH 230703,603700
 42730	057525	200 02 0 00 071034 		MOVE	2,[172737,,405060]	;PRELOAD C(AC+1) WITH 172737,,405060
 42731	057526	242 01 0 00 777751 		LSH	1,-27			;*LSH SHOULD LOGICALLY SHIFT 230703,,603700
 42732										;RIGHT 27 OCTAL BIT POSITIONS
 42733	057527	312 01 0 00 071064 		CAME	1,[0,,4616]		;PASS IF C(AC)=0,,4616
 42734						STOP^
 42735	057530	254 04 0 00 057531 		HALT	.+1		;TEST FAILED IF PROGRAM HALTS HERE
 42736	057531	324 00 0 00 057532 		JUMPA	.+1		;IF TEST FAILS, CHANGE THIS INSTRUCTION (JUMPA .+1) TO
 42737									;JUMPA X (X IS THE ADDRESS OF THE FIRST INSTRUCTION
 42738									;IN THE SUBTEST) TO LOOP ON ERROR^
 42739	057532	312 02 0 00 071034 		CAME	2,[172737,,405060]	;PASS IF C(AC+1) NOT AFFECTED
 42740						STOP^
 42741	057533	254 04 0 00 057534 		HALT	.+1		;TEST FAILED IF PROGRAM HALTS HERE
 42742	057534	324 00 0 00 057535 		JUMPA	.+1		;IF TEST FAILS, CHANGE THIS INSTRUCTION (JUMPA .+1) TO
 42743									;JUMPA X (X IS THE ADDRESS OF THE FIRST INSTRUCTION
 42744									;IN THE SUBTEST) TO LOOP ON ERROR^
 42745
 42746					;**********
 42747
 42748					;THIS TEST VERIFIES THAT THE LSH INSTRUCTION FUNCTIONS CORRECTLY
 42749					;IN THIS CASE, 007603,,607062 SHOULD BE LOGICALLY SHIFTED RIGHT 27 OCTAL BIT POSITIONS
 42750					;SO THAT FINAL C(AC)=0,,174.
 42751					;C(AC+1) SHOULD NOT BE AFFECTED
 42752
 42753	057535	200 01 0 00 071040 	C42100:	MOVE	1,[007603,,607062]	;PRELOAD AC WITH 007603,,607062
 42754	057536	200 02 0 00 071034 		MOVE	2,[172737,,405060]	;PRELOAD C(AC+1) WITH 172737,,405060
 42755	057537	242 01 0 00 777751 		LSH	1,-27			;*LSH SHOULD LOGICALLY SHIFT 007603,,607062
 42756										;RIGHT 27 OCTAL BIT POSITIONS
 42757	057540	312 01 0 00 071065 		CAME	1,[0,,174]		;PASS IF C(AC)=0,,174
 42758						STOP^
 42759	057541	254 04 0 00 057542 		HALT	.+1		;TEST FAILED IF PROGRAM HALTS HERE
 42760	057542	324 00 0 00 057543 		JUMPA	.+1		;IF TEST FAILS, CHANGE THIS INSTRUCTION (JUMPA .+1) TO
 42761									;JUMPA X (X IS THE ADDRESS OF THE FIRST INSTRUCTION
 42762									;IN THE SUBTEST) TO LOOP ON ERROR^
 42763	057543	312 02 0 00 071034 		CAME	2,[172737,,405060]	;PASS IF C(AC+1) NOT AFFECTED
 42764						STOP^
 42765	057544	254 04 0 00 057545 		HALT	.+1		;TEST FAILED IF PROGRAM HALTS HERE
 42766	057545	324 00 0 00 057546 		JUMPA	.+1		;IF TEST FAILS, CHANGE THIS INSTRUCTION (JUMPA .+1) TO
 42767									;JUMPA X (X IS THE ADDRESS OF THE FIRST INSTRUCTION
 42768									;IN THE SUBTEST) TO LOOP ON ERROR^
 42769
 42770					;**********
DFKAA PDP-10 KL10 BASIC INSTRUCTION DIAGNOSTIC (1) VER 0,2	MACRO %52(537) 09:34 31-JAN-77 PAGE 44
DFKAA7	MAC	25-AUG-75 14:03		TEST OF SHIFT/ROTATE INSTRUCTIONS USED IN THE ERROR HANDLER                        SEQ 0995

 42771					;THIS TEST VERIFIES THAT THE LSH INSTRUCTION FUNCTIONS CORRECTLY
 42772					;IN THIS CASE, 0,,0 SHOULD BE LOGICALLY SHIFTED RIGHT 33 OCTAL BIT POSITIONS
 42773					;SO THAT FINAL C(AC)=0,,0.
 42774					;C(AC+1) SHOULD NOT BE AFFECTED
 42775
 42776	057546	200 01 0 00 070253 	C42200:	MOVE	1,[0,0]		;PRELOAD AC WITH 0,,0
 42777	057547	200 02 0 00 071034 		MOVE	2,[172737,,405060]	;PRELOAD C(AC+1) WITH 172737,,405060
 42778	057550	242 01 0 00 777745 		LSH	1,-33		;*LSH SHOULD LOGICALLY SHIFT 0,,0
 42779									;RIGHT 33 OCTAL BIT POSITIONS
 42780	057551	312 01 0 00 070253 		CAME	1,[0,,0]	;PASS IF C(AC)=0,,0
 42781						STOP^
 42782	057552	254 04 0 00 057553 		HALT	.+1		;TEST FAILED IF PROGRAM HALTS HERE
 42783	057553	324 00 0 00 057554 		JUMPA	.+1		;IF TEST FAILS, CHANGE THIS INSTRUCTION (JUMPA .+1) TO
 42784									;JUMPA X (X IS THE ADDRESS OF THE FIRST INSTRUCTION
 42785									;IN THE SUBTEST) TO LOOP ON ERROR^
 42786	057554	312 02 0 00 071034 		CAME	2,[172737,,405060]	;PASS IF C(AC+1) NOT AFFECTED
 42787						STOP^
 42788	057555	254 04 0 00 057556 		HALT	.+1		;TEST FAILED IF PROGRAM HALTS HERE
 42789	057556	324 00 0 00 057557 		JUMPA	.+1		;IF TEST FAILS, CHANGE THIS INSTRUCTION (JUMPA .+1) TO
 42790									;JUMPA X (X IS THE ADDRESS OF THE FIRST INSTRUCTION
 42791									;IN THE SUBTEST) TO LOOP ON ERROR^
 42792
 42793					;**********
 42794
 42795					;THIS TEST VERIFIES THAT THE LSH INSTRUCTION FUNCTIONS CORRECTLY
 42796					;IN THIS CASE, -1,,-1 SHOULD BE LOGICALLY SHIFTED RIGHT 33 OCTAL BIT POSITIONS
 42797					;SO THAT FINAL C(AC)=0,,777.
 42798					;C(AC+1) SHOULD NOT BE AFFECTED
 42799
 42800	057557	200 01 0 00 070254 	C42300:	MOVE	1,[-1,,-1]	;PRELOAD AC WITH -1,,-1
 42801	057560	200 02 0 00 071034 		MOVE	2,[172737,,405060]	;PRELOAD C(AC+1) WITH 172737,,405060
 42802	057561	242 01 0 00 777745 		LSH	1,-33		;*LSH SHOULD LOGICALLY SHIFT -1,,-1
 42803									;RIGHT 33 OCTAL BIT POSITIONS
 42804	057562	312 01 0 00 070262 		CAME	1,[0,,777]	;PASS IF C(AC)=0,,777
 42805						STOP^
 42806	057563	254 04 0 00 057564 		HALT	.+1		;TEST FAILED IF PROGRAM HALTS HERE
 42807	057564	324 00 0 00 057565 		JUMPA	.+1		;IF TEST FAILS, CHANGE THIS INSTRUCTION (JUMPA .+1) TO
 42808									;JUMPA X (X IS THE ADDRESS OF THE FIRST INSTRUCTION
 42809									;IN THE SUBTEST) TO LOOP ON ERROR^
 42810	057565	312 02 0 00 071034 		CAME	2,[172737,,405060]	;PASS IF C(AC+1) NOT AFFECTED
 42811						STOP^
 42812	057566	254 04 0 00 057567 		HALT	.+1		;TEST FAILED IF PROGRAM HALTS HERE
 42813	057567	324 00 0 00 057570 		JUMPA	.+1		;IF TEST FAILS, CHANGE THIS INSTRUCTION (JUMPA .+1) TO
 42814									;JUMPA X (X IS THE ADDRESS OF THE FIRST INSTRUCTION
 42815									;IN THE SUBTEST) TO LOOP ON ERROR^
 42816
 42817					;**********
DFKAA PDP-10 KL10 BASIC INSTRUCTION DIAGNOSTIC (1) VER 0,2	MACRO %52(537) 09:34 31-JAN-77 PAGE 45
DFKAA7	MAC	25-AUG-75 14:03		TEST OF SHIFT/ROTATE INSTRUCTIONS USED IN THE ERROR HANDLER                        SEQ 0996

 42818					;THIS TEST VERIFIES THAT THE LSH INSTRUCTION FUNCTIONS CORRECTLY
 42819					;IN THIS CASE, 252525,,252525 SHOULD BE LOGICALLY SHIFTED RIGHT 33 OCTAL BIT POSITIONS
 42820					;SO THAT FINAL C(AC)=0,,252.
 42821					;C(AC+1) SHOULD NOT BE AFFECTED
 42822
 42823	057570	200 01 0 00 070614 	C42400:	MOVE	1,[252525,,252525]	;PRELOAD AC WITH 252525,,252525
 42824	057571	200 02 0 00 071034 		MOVE	2,[172737,,405060]	;PRELOAD C(AC+1) WITH 172737,,405060
 42825	057572	242 01 0 00 777745 		LSH	1,-33			;*LSH SHOULD LOGICALLY SHIFT 252525,,252525
 42826										;RIGHT 33 OCTAL BIT POSITIONS
 42827	057573	312 01 0 00 071056 		CAME	1,[0,,252]		;PASS IF C(AC)=0,,252
 42828						STOP^
 42829	057574	254 04 0 00 057575 		HALT	.+1		;TEST FAILED IF PROGRAM HALTS HERE
 42830	057575	324 00 0 00 057576 		JUMPA	.+1		;IF TEST FAILS, CHANGE THIS INSTRUCTION (JUMPA .+1) TO
 42831									;JUMPA X (X IS THE ADDRESS OF THE FIRST INSTRUCTION
 42832									;IN THE SUBTEST) TO LOOP ON ERROR^
 42833	057576	312 02 0 00 071034 		CAME	2,[172737,,405060]	;PASS IF C(AC+1) NOT AFFECTED
 42834						STOP^
 42835	057577	254 04 0 00 057600 		HALT	.+1		;TEST FAILED IF PROGRAM HALTS HERE
 42836	057600	324 00 0 00 057601 		JUMPA	.+1		;IF TEST FAILS, CHANGE THIS INSTRUCTION (JUMPA .+1) TO
 42837									;JUMPA X (X IS THE ADDRESS OF THE FIRST INSTRUCTION
 42838									;IN THE SUBTEST) TO LOOP ON ERROR^
 42839
 42840					;**********
 42841
 42842					;THIS TEST VERIFIES THAT THE LSH INSTRUCTION FUNCTIONS CORRECTLY
 42843					;IN THIS CASE, 525252,,525252 SHOULD BE LOGICALLY SHIFTED RIGHT 33 OCTAL BIT POSITIONS
 42844					;SO THAT FINAL C(AC)=0,,525.
 42845					;C(AC+1) SHOULD NOT BE AFFECTED
 42846
 42847	057601	200 01 0 00 071035 	C42500:	MOVE	1,[525252,,525252]	;PRELOAD AC WITH 525252,,525252
 42848	057602	200 02 0 00 071034 		MOVE	2,[172737,,405060]	;PRELOAD C(AC+1) WITH 172737,,405060
 42849	057603	242 01 0 00 777745 		LSH	1,-33			;*LSH SHOULD LOGICALLY SHIFT 525252,,525252
 42850										;RIGHT 33 OCTAL BIT POSITIONS
 42851	057604	312 01 0 00 071057 		CAME	1,[0,,525]		;PASS IF C(AC)=0,525
 42852						STOP^
 42853	057605	254 04 0 00 057606 		HALT	.+1		;TEST FAILED IF PROGRAM HALTS HERE
 42854	057606	324 00 0 00 057607 		JUMPA	.+1		;IF TEST FAILS, CHANGE THIS INSTRUCTION (JUMPA .+1) TO
 42855									;JUMPA X (X IS THE ADDRESS OF THE FIRST INSTRUCTION
 42856									;IN THE SUBTEST) TO LOOP ON ERROR^
 42857	057607	312 02 0 00 071034 		CAME	2,[172737,,405060]	;PASS IF C(AC+1) NOT AFFECTED
 42858						STOP^
 42859	057610	254 04 0 00 057611 		HALT	.+1		;TEST FAILED IF PROGRAM HALTS HERE
 42860	057611	324 00 0 00 057612 		JUMPA	.+1		;IF TEST FAILS, CHANGE THIS INSTRUCTION (JUMPA .+1) TO
 42861									;JUMPA X (X IS THE ADDRESS OF THE FIRST INSTRUCTION
 42862									;IN THE SUBTEST) TO LOOP ON ERROR^
 42863
 42864					;**********
DFKAA PDP-10 KL10 BASIC INSTRUCTION DIAGNOSTIC (1) VER 0,2	MACRO %52(537) 09:34 31-JAN-77 PAGE 46
DFKAA7	MAC	25-AUG-75 14:03		TEST OF SHIFT/ROTATE INSTRUCTIONS USED IN THE ERROR HANDLER                        SEQ 0997

 42865					;THIS TEST VERIFIES THAT THE LSH INSTRUCTION FUNCTIONS CORRECTLY
 42866					;IN THIS CASE, 230703,,603700 SHOULD BE LOGICALLY SHIFTED RIGHT 33 OCTAL BIT POSITIONS
 42867					;SO THAT FINAL C(AC)=0,,230.
 42868					;C(AC+1) SHOULD NOT BE AFFECTED
 42869
 42870	057612	200 01 0 00 071036 	C42600:	MOVE	1,[230703,,603700]	;PRELOAD AC WITH 230703,,603700
 42871	057613	200 02 0 00 071034 		MOVE	2,[172737,,405060]	;PRELOAD C(AC+1) WITH 172737,,405060
 42872	057614	242 01 0 00 777745 		LSH	1,-33			;*LSH SHOULD LOGICALLY SHIFT 230703,,603700
 42873										;RIGHT 33 OCTAL BIT POSITIONS
 42874	057615	312 01 0 00 071060 		CAME	1,[0,,230]		;PASS IF C(AC)=0,,230
 42875						STOP^
 42876	057616	254 04 0 00 057617 		HALT	.+1		;TEST FAILED IF PROGRAM HALTS HERE
 42877	057617	324 00 0 00 057620 		JUMPA	.+1		;IF TEST FAILS, CHANGE THIS INSTRUCTION (JUMPA .+1) TO
 42878									;JUMPA X (X IS THE ADDRESS OF THE FIRST INSTRUCTION
 42879									;IN THE SUBTEST) TO LOOP ON ERROR^
 42880	057620	312 02 0 00 071034 		CAME	2,[172737,,405060]	;PASS IF C(AC+1) NOT AFFECTED
 42881						STOP^
 42882	057621	254 04 0 00 057622 		HALT	.+1		;TEST FAILED IF PROGRAM HALTS HERE
 42883	057622	324 00 0 00 057623 		JUMPA	.+1		;IF TEST FAILS, CHANGE THIS INSTRUCTION (JUMPA .+1) TO
 42884									;JUMPA X (X IS THE ADDRESS OF THE FIRST INSTRUCTION
 42885									;IN THE SUBTEST) TO LOOP ON ERROR^
 42886
 42887					;**********
 42888
 42889					;THIS TEST VERIFIES THAT THE LSH INSTRUCTION FUNCTIONS CORRECTLY
 42890					;IN THIS CASE, 007603,,607062 SHOULD BE LOGICALLY SHIFTED RIGHT 33 OCTAL BIT POSITIONS
 42891					;SO THAT FINAL C(AC)=0,,7.
 42892					;C(AC+1) SHOULD NOT BE AFFECTED
 42893
 42894	057623	200 01 0 00 071040 	C42700:	MOVE	1,[007603,,607062]	;PRELOAD AC WITH 007603,,607062
 42895	057624	200 02 0 00 071034 		MOVE	2,[172737,,405060]	;PRELOAD C(AC+1) WITH 172737,,405060
 42896	057625	242 01 0 00 777745 		LSH	1,-33			;*LSH SHOULD LOGICALLY SHIFT 007603,,607062
 42897										;RIGHT 33 OCTAL BIT POSITIONS
 42898	057626	312 01 0 00 071033 		CAME	1,[0,,7]		;PASS IF C(AC)=0,,7
 42899						STOP^
 42900	057627	254 04 0 00 057630 		HALT	.+1		;TEST FAILED IF PROGRAM HALTS HERE
 42901	057630	324 00 0 00 057631 		JUMPA	.+1		;IF TEST FAILS, CHANGE THIS INSTRUCTION (JUMPA .+1) TO
 42902									;JUMPA X (X IS THE ADDRESS OF THE FIRST INSTRUCTION
 42903									;IN THE SUBTEST) TO LOOP ON ERROR^
 42904	057631	312 02 0 00 071034 		CAME	2,[172737,,405060]	;PASS IF C(AC+1) NOT AFFECTED
 42905						STOP^
 42906	057632	254 04 0 00 057633 		HALT	.+1		;TEST FAILED IF PROGRAM HALTS HERE
 42907	057633	324 00 0 00 057634 		JUMPA	.+1		;IF TEST FAILS, CHANGE THIS INSTRUCTION (JUMPA .+1) TO
 42908									;JUMPA X (X IS THE ADDRESS OF THE FIRST INSTRUCTION
 42909									;IN THE SUBTEST) TO LOOP ON ERROR^
 42910
 42911					;**********
DFKAA PDP-10 KL10 BASIC INSTRUCTION DIAGNOSTIC (1) VER 0,2	MACRO %52(537) 09:34 31-JAN-77 PAGE 1
DFKAA8	MAC	25-AUG-75 14:17		PI/IOT/APR DIAGNOSTIC SECTION                                                      SEQ 0998

 42912					SUBTTL	PI/IOT/APR DIAGNOSTIC SECTION
 42913
 42914	057634	402 00 0 00 030037 	BEGIOT:	SETZM	USER		;CLEAR USER CONTROL WORD
 42915	057635	265 00 0 00 057636 		JSP	0,.+1		;GET FLAGS
 42916	057636	603 00 0 00 010000 		TLNE	USERF		;IN USER MODE ?
 42917	057637	476 00 0 00 030037 		SETOM	USER		;YES, SET USER CONTROL WORD
 42918	057640	336 00 0 00 030042 		SKIPN	MONFLG		;SPECIAL USER MODE ?
 42919	057641	402 00 0 00 030037 		SETZM	USER		;YES, CLEAR USER CONTROL WORD
 42920	057642	336 00 0 00 030037 		SKIPN	USER
 42921	057643	254 00 0 00 057645 		JRST	IOT0		;RUN IOT TEST ONLY IN EXEC MODE
 42922
 42923	057644	254 00 0 00 030057 		JRST	BEGEND		;OTHERWISE START OVER
DFKAA PDP-10 KL10 BASIC INSTRUCTION DIAGNOSTIC (1) VER 0,2	MACRO %52(537) 09:34 31-JAN-77 PAGE 2
DFKAA8	MAC	25-AUG-75 14:17		MACRO'S OPDEFS AND SPECIAL FLAG DEFINITIONS                                        SEQ 0999

 42924					SUBTTL	MACRO'S OPDEFS AND SPECIAL FLAG DEFINITIONS
 42925
 42926						LALL
 42927			000774			LAST=774		;LAST POSSIBLE DEVICE
 42928
 42929					;OPERATOR DEFINITIONS
 42930
 42931		264000	070120			OPDEF	TRPPI	[JSR	TRAPPI]	;FILL INTERRUPT LOCATIONS
 42932		264000	070103			OPDEF	HALTPI	[JSR	HALTPI]	;FILL INT. LOC. WITH HALTS
 42933		264000	070072			OPDEF	CLRTRP	[JSR	TRPCLR]	;CLEAR TRAPS
 42934
 42935						OPDEF	CLRAPR	[CONO APR,LIOCLR!LCSBER!LCNXER!LCPAER!LCIOPF!LCPWRF!LCCASD!LDSBER!L
 42936		700200	267760		DNXER!LDPAER!LDIOPF!LDPWRF!LDCASD!LCCAER!LDCAER!LCSAER!LDSAER]
 42937		700600	031577			OPDEF	CLRPI	[CONO PI,LRQCLR!PICLR!CHNOFF!PIOFF!177]
 42938
 42939					;MACROS
 42940
 42941						DEFINE	BLURB	<
 42942					;LOCATIONS 40-60 CONTAIN A JSP TO A ROUTINE WHICH STORES
 42943					;THE CHANNEL NUMBER OF THE INTERRUPT INTO 0
 42944					;THEREFORE IF AN INTERRUPT OCCURS THEN LOCATION
 42945					;ZERO WILL CONTAIN THE NUMBER OF THE INTERRUPT CHANNEL TRAP ADRESS
 42946					>
 42947						DEFINE	BLURB1	<
 42948					;LOCATIONS 40-60 CONTAIN A JSP TO A ROUTINE WHICH EXECUTES A HALT
 42949					;POINTING TO THE CHANNEL WHICH CAUSED THE REQUEST.
 42950					;OR THE CHANNEL WHICH CAUSED THE INCORRECT INTERRUPT. THE PARTICULAR
 42951					;INTERRUPT TRAP ADRESS FOR THE INTERRUPT LEVEL BEING TESTED MAY NOT
 42952					;ALWAYS HAVE A JSP TO A HALT IN CASE WE ARE TESTING FOR REAL
 42953					;INTERRUPTS ON THAT CHANNEL. IN THIS CASE ONLY THE TRAP FOR THAT
 42954					;PARTICULAR CHANNEL WILL BE LEGAL. ALL OTHERS WILL HALT.
 42955					>
DFKAA PDP-10 KL10 BASIC INSTRUCTION DIAGNOSTIC (1) VER 0,2	MACRO %52(537) 09:34 31-JAN-77 PAGE 3
DFKAA8	MAC	25-AUG-75 14:17		MACRO'S OPDEFS AND SPECIAL FLAG DEFINITIONS                                        SEQ 1000

 42956						DEFINE	WATINT	<
 42957						MOVEI	13,1000		;SET UP LOOP OF TEN TO WAIT FOR INT.
 42958						SOJG	13,.		;AND WAIT>
 42959
 42960						DEFINE	STOP2<
 42961						HALT	.+1		;HALT IF WE SHOULDN'T BE HERE
 42962						JRST	.+1		;WILD TRANSFER CAUSED THIS HALT.>
 42963
 42964						DEFINE	TSET<
 42965						%X=.			;DEFINE %X TO SAVE
 42966						MOVEI	%X		;SAVE THIS PC IN CASE OF WILD TRANSFER
 42967						MOVEM	TNUMB#		;BECAUSE OF PC MOD OR INTERRUPT>
 42968
 42969						DEFINE	TGET<
 42970						MOVE	TNUMB		;GET LAST PC STORED AND CHECK TO SEE
 42971						CAIE	%X		;IF ITS WHERE WE REALLY SHOULD BE
 42972						STOP2>
 42973
 42974						DEFINE	TBOTH<
 42975						TGET
 42976
 42977						TSET>
 42978
 42979						DEFINE	PINO	(A,%NO)<
 42980
 42981					;ENABLE THE PI SYSTEM. AND EXPECT NO INTERRUPTS. THEN TEST THAT THE
 42982					;HOLD FLOP FOR EACH CHANNEL IS NOT SET.
 42983
 42984						TSET
 42985					%NO:	CLRBTH
 42986						CONO	PI,PION		;ENABLE PI AND ,EXPECT NO INTERRUPTS
 42987						WATINT
 42988						CONSZ	PI,A		;CHECK WHY INT. IN PROGRESS IS SET.
 42989						STOP
 42990						TGET
 42991					>
 42992						DEFINE	PIYES	(A,B,%YES)<
 42993
 42994					;SET REQUESTS FOR EACH CHANNEL BUT DO NOT SET PI ACTIVE.
 42995					;INTERRUPTS SHOULD NOT OCCUR, AND THE INTERRUPT IN PROGRESS
 42996					;FLAG SHOULD NOT BE SET FOR THE CHANNEL BEING TESTED
 42997
 42998						TSET
 42999					%YES:	CLRBTH
 43000						CONO	PI,REQSET+A	;SET CHANNEL REQUEST BUT NOT ACTIVE
 43001						WATINT
 43002						CONSZ	PI,B		;CHECK WHY INT. IN PROGRESS IS SET.
 43003						STOP
 43004						TGET
 43005					>
DFKAA PDP-10 KL10 BASIC INSTRUCTION DIAGNOSTIC (1) VER 0,2	MACRO %52(537) 09:34 31-JAN-77 PAGE 4
DFKAA8	MAC	25-AUG-75 14:17		MACRO'S OPDEFS AND SPECIAL FLAG DEFINITIONS                                        SEQ 1001

 43006						DEFINE	PIHCLR	(A,B,%HCLR)<
 43007
 43008					;CHECK THAT PICLR CLEARS THE HOLD FLOP
 43009
 43010						TSET
 43011					%HCLR:	CLRBTH
 43012						CONO	PI,REQSET+PION+A	;CAUSE INT. TO SET HOLD
 43013						WATINT
 43014						CONO	PI,PICLR	;THEN CLEAR VIA PI RESET
 43015						CONSZ	PI,B		;HOLD FLOP FAILED TO CLEAR.
 43016						STOP
 43017						TGET
 43018					>
 43019						DEFINE	PIONOF	(A,%ONOF)<
 43020
 43021					;CHECK THAT PICLR CLEARS THE REQUEST FLOP
 43022					;AND THAT AN INTERUPT DOES NOT OCCUR
 43023
 43024					BLURB1
 43025
 43026						TSET
 43027					%ONOF:	CLRBTH
 43028						CONO	PI,REQSET+A	;SET REQ. BUT NOT ACTIVE
 43029						SETZ			;THEN CLEAR REQUEST THEN SET ACTIVE
 43030						CONO	PI,PICLR+A	;PI RESET FAILED TO CLEAR PIR FLAG.
 43031						WATINT
 43032						SKIPE			;MOVEI EXEC OUT OF INTERRUPT CH.?
 43033						STOP
 43034						TGET
 43035					>
 43036						DEFINE	PIDIS	(A,B,%PICHK)<
 43037
 43038					;CHECK THAT A JEN WILL DISMISS INTERUPTS ON ALL CHANNELS
 43039
 43040						TSET
 43041					%PICHK:	MOVE	[JSP 1,.+6]	;PUT THE PI TRAP INSTRUCTION
 43042						MOVEM	A		;INTO A
 43043						CONO	PI,CHNON+PION+REQSET+B	;TURN ON PI AND REQEST ON CH B
 43044						WATINT
 43045						JRST	.+3
 43046						CONO	PI,CHNON+PION+LRQCLR+B	;TURN OF INTERRUPT REQUEST
 43047						JEN	@1		;DISMISS THE INTERRUPT
 43048						CONSZ	PI,77400	;NO REQUESTS SHOULD BE SET
 43049						STOP
 43050						TGET
 43051						CLRBTH
 43052					>
DFKAA PDP-10 KL10 BASIC INSTRUCTION DIAGNOSTIC (1) VER 0,2	MACRO %52(537) 09:34 31-JAN-77 PAGE 5
DFKAA8	MAC	25-AUG-75 14:17		MACRO'S OPDEFS AND SPECIAL FLAG DEFINITIONS                                        SEQ 1002

 43053						DEFINE	PITEST	(A,%PITST)<
 43054
 43055					;TEST SETTING OF CHANNEL FLOP
 43056
 43057						TSET
 43058					%PITST:	CLRBTH
 43059						CONO	PI,CHNON+A	;PION FAILED TO SET
 43060						CONSO	PI,A
 43061						STOP
 43062						TBOTH
 43063						CLRBTH
 43064					;TEST CLEARING OF CHANNEL FLOP
 43065						CONO	PI,CHNON+A	;CHECK PIO CLR
 43066						CONO	PI,CHNOFF+A	;TURN OFF CHANNELS
 43067						CONSZ	PI,A		;CHECK WHY FLOP NOT CLEAR
 43068						STOP
 43069						TBOTH
 43070						CLRBTH
 43071					;CHECK RESETING OF PI SYSTEM
 43072						CONO	PI,CHNON+A	;CHECK THAT PI RESET CLEARS
 43073						CONO	PI,PICLR	;PI SYSTEM
 43074						CONSZ	PI,A
 43075						STOP
 43076						TBOTH
 43077						CLRBTH
 43078					;TEST THAT CONO ONLY SETS PION
 43079						CONO	PI,CHNON	;TEST PIO SET
 43080						CONSZ	PI,A		;CHECK WHY CONO SET FLAGS WHITHOUT AN IOB BIT
 43081						STOP
 43082						TBOTH
 43083						CLRBTH
 43084					;CHECK THAT CONO DOES NOT CLEAR ACTIVE
 43085						CONO	PI,CHNON+A	;TEST PIO CLR
 43086						CONO	PI,CHNOFF	;MAYBE RESET OCCURED - BIT SHOULD STILL
 43087						CONSO	PI,A		;BE SET
 43088						STOP
 43089						TGET
 43090					>
DFKAA PDP-10 KL10 BASIC INSTRUCTION DIAGNOSTIC (1) VER 0,2	MACRO %52(537) 09:34 31-JAN-77 PAGE 6
DFKAA8	MAC	25-AUG-75 14:17		MACRO'S OPDEFS AND SPECIAL FLAG DEFINITIONS                                        SEQ 1003

 43091						DEFINE	EXECUT<
 43092					;FILL THE INTERRUPT LOCATIONS WITH "MOVEI'S"
 43093						MOVE	1,[MOVEI 42]	;STORE A MOVEI IN
 43094						MOVEM	1,(1)		;INTO 42-60
 43095						CAME	1,[MOVEI 57]
 43096						AOJA	1,.-2		;LOOP>
 43097
 43098						DEFINE	STOP<
 43099						HALT	.+1		;INSTRUCTION FAILED REPLACE
 43100						JRST	.+1		;WITH JRST BACK>
 43101
 43102						DEFINE	STOP1<
 43103						HALT	.+1		;UUO FAILED TO STORE MA BITS
 43104						JRST	.+1		;INTO RIGHT HALF OF 40>
 43105
 43106						DEFINE	XUUO	(X,Y,%XUO)<
 43107
 43108					;EXECUTE AN LUUO AND CHECK THAT THE UUO AND PC STORED
 43109					;ARE CORRECT.
 43110
 43111						MLUUO==X		;THE UUO TO BE EXECUTED
 43112						TSET
 43113					%XUO:	MOVE	0,[JSP	1,.+4]	;TRAP INSTRUCTION
 43114						MOVEM	0,41		;IN TO 41
 43115						X			;EXECUTE A UUO
 43116						HALT	.+1		;UUO DID NOT TRAP TO FORTY
 43117						MOVEI	2,.-1		;GET UUO PC
 43118						ANDI	1,-1		;MASK FLAGS OUT
 43119						CAME	1,2		;PC CORRECT ?
 43120						HALT	.+1		;PC OF UUO NOT = TO PC STORED
 43121						MOVE	0,40		;GET UUO !
 43122						CAME	0,[X!0]		;CORRECT UUO STORED IN 40?
 43123						SKIPA			;NO
 43124						JRST	Y		;TESTS OK !
 43125						STOP1
 43126						TGET
 43127					>
DFKAA PDP-10 KL10 BASIC INSTRUCTION DIAGNOSTIC (1) VER 0,2	MACRO %52(537) 09:34 31-JAN-77 PAGE 7
DFKAA8	MAC	25-AUG-75 14:17		MACRO'S OPDEFS AND SPECIAL FLAG DEFINITIONS                                        SEQ 1004

 43128						DEFINE	XUUOA	(X,%UUPC,%XUPC0,%XUPC1)<
 43129
 43130					;CHECK THE "E" OF THE UUO STORED IS CORRECT.
 43131
 43132						EFIELD==X		;"E" WE ARE TESTING FOR
 43133						TSET
 43134					%UUPC:	MOVE	[JRST	.+4]	;SET A TRAP INSTRUCTION
 43135						MOVEM	41		;INTO 41
 43136						1B8!X			;EXECUTE A UUO
 43137					%XUPC0:	HALT	.+1		;UUO DIDN'T TRAP TO 40
 43138						MOVE	0,40		;GET UUO
 43139						ANDI	0,-1		;MASK OUT UUO FOR MA BITS
 43140						CAIE	X		;MA BITS CORRECT?
 43141					%XUPC1:	STOP1
 43142						TGET
 43143					>
 43144
 43145						DEFINE	CLRBTH<
 43146						CLRAPR
 43147						CLRPI>
 43148
 43149						DEFINE	CLRBT1<
 43150						CLRAPR
 43151						CLRPI>
 43152
 43153						DEFINE	TRAP	(A,B)<
 43154						MOVE	[A]		;SET TRAP INSTRUCTION
 43155						MOVEM	B		;INTO TRAP LOCATION>
 43156
 43157						DEFINE	STUCK<
 43158						WATINT
 43159						JRST	.		;LOOOP ON SELF>
 43160
 43161						DEFINE	SBWAIT	(A,%CLKUP)<
 43162					%CLKUP:	CONO	APR,LESBER!LSSBER!A
 43163						STUCK>		;WAIT S BUS ERRORS
 43164						DEFINE	TRPCHK	(%TPC)<
 43165					%TPC:	SKIPE	MONFLG		;RESET FLAGS IF IN MONITOR
 43166						JRST	.+3		;DONT IF STAND ALONE
 43167						JRSTF	@.+1		;AND RESTORE THEM
 43168						USERF,.+1		;NEW PC AND FLAGS>
DFKAA PDP-10 KL10 BASIC INSTRUCTION DIAGNOSTIC (1) VER 0,2	MACRO %52(537) 09:34 31-JAN-77 PAGE 8
DFKAA8	MAC	25-AUG-75 14:17		MACRO'S OPDEFS AND SPECIAL FLAG DEFINITIONS                                        SEQ 1005

 43169						DEFINE	XCHN2	(A,B,C)<
 43170
 43171					;REQUEST INTERRUPTS ON 2 CHANNELS AT ONCE TO SEE IF THEY TRAP
 43172					;TO THE CORRECT (I.E. HIGHEST PRIORITY) CHANNEL.
 43173					;IF ERROR OCCURS CHECK "PIN" PRINT
 43174
 43175						TRPCHK
 43176						CLRBTH
 43177						HALTPI			;FILL INTERRUPT LOCATIONS WITH HALTS
 43178						MOVE	[JSP A]		;SET UP FOR CORRECT
 43179						MOVEM	B		;INTERRUPT TRAP
 43180						CONO	PI,CHNON!PION!177	;TURN ON PI SYSTEM
 43181						CONO	PI,REQSET!C	;REQUEST INTERRUPT ON TWO CHANNELS
 43182						STUCK
 43183					>
 43184						DEFINE	PSKPA	(A,B,%X)<
 43185
 43186					;TEST THAT AOSE DOES NOT DISMISS INTERRUPTS, OR SKIP WHEN EXECUTED AS
 43187					;AN INTERRUPT INSTRUCTION.
 43188
 43189						CLRBTH
 43190						HALTPI			;FILL INTERRUPT LOCATIONS WITH HALTS
 43191						MOVE	[AOSE 0]	;PI TRAP INSTRUCTION
 43192						MOVEM	A		;INTO TRAP LOCATION
 43193						MOVE	[JSP 1,%X]	;SECOND TRAP INSTRUCTION
 43194						MOVEM	A+1		;INTO SECOND PI INSTRUCTION
 43195						MOVEI	1		;SET AC TO NON ZERO
 43196						CONO	PI,REQSET!PION!CHNON!B ;REQUEST INTERRUPT ON CH B
 43197
 43198					;IF WE FALL THROUGH THEN THE INTERRUPT WAS DISMISSED WHEN THE AOS FAILED
 43199
 43200						WATINT
 43201						STOP
 43202					%X:	CLRBTH
 43203						CAIE	2		;ONLY ONE AOSE PREFORMED?
 43204						STOP
 43205					>
DFKAA PDP-10 KL10 BASIC INSTRUCTION DIAGNOSTIC (1) VER 0,2	MACRO %52(537) 09:34 31-JAN-77 PAGE 9
DFKAA8	MAC	25-AUG-75 14:17		MACRO'S OPDEFS AND SPECIAL FLAG DEFINITIONS                                        SEQ 1006

 43206						DEFINE	PSKPB	(A,B,%X)<
 43207
 43208					;CHECK THAT SKIPE DOES NOT SKIP, OR MODIFY THE AC, OR DISMISS
 43209					;THE INTERRUPT.
 43210
 43211						CLRBTH
 43212						HALTPI			;FILL INTERRUPT LOCATIONS WITH HALTS
 43213						MOVE	[SKIPE 0,0]	;PI TRAP INSTRUCTION(SHOULD NOT SKIP)
 43214						MOVEM	A		;INTO TRAP LOCATION
 43215						MOVE	[JSP 1,%X]	;SECOND TRAP INSTRUCTION
 43216						MOVEM	A+1		;INTO SECOND PI INSTRUCTION
 43217						MOVEI	1		;SET AC TO NON ZERO
 43218						CONO	PI,REQSET!PION!CHNON!B ;REQUEST INTERRUPT ON CH B
 43219
 43220					;IF WE FALL THROUGH TO HERE, THEN THE INT. WAS DISMISSED AND SHOULDN'T HAVE BEEN
 43221
 43222						WATINT
 43223						STOP
 43224					%X:	CLRBTH
 43225						CAIE	1		;JUMPE SHOULD HAVE NOT MODIFIED THE AC
 43226						STOP
 43227					>
DFKAA PDP-10 KL10 BASIC INSTRUCTION DIAGNOSTIC (1) VER 0,2	MACRO %52(537) 09:34 31-JAN-77 PAGE 10
DFKAA8	MAC	25-AUG-75 14:17		MACRO'S OPDEFS AND SPECIAL FLAG DEFINITIONS                                        SEQ 1007

 43228						DEFINE	FMUUO	(A,%FMTST,%NOFM),<
 43229
 43230					;EXECUTE UUO'S OUT OF FAST MEMORY LOCATIONS 0,1,2,4,5,10,12, AND 17
 43231					;CHECK FIRST THAT THE UUO TRAPPED AND SECONDLY THAT IT STORED THE
 43232					;CORRECT PC.
 43233
 43234						AC=A			;TESTED AC
 43235
 43236						TSET
 43237						MOVE	A,[XWD 1000,0]	;SET UP UUO INTO AC A TO EXECUTE
 43238						MOVE	13,[JSP 11,%FMTST] ;SET UP UUO TRAP INSTRUCTION
 43239						MOVEM	13,41		;INTO LOCATION 41
 43240						MOVE	A+1,[JRST %NOFM] ;SET UP TRAP INSTRUCTION INCASE UUO DOES NOT TRAP
 43241						JRST	A		;GO EXECUTE  UUO
 43242					%NOFM:	HALT	.+1		;UUO DID NOT TRAP FROM FAST MEMORY
 43243						JRST	.+1		;LOOP TO %FMUUO IF ERROR
 43244					%FMTST:	ANDI	11,-1		;MASK FLAGS
 43245						CAIE	11,A+1		;PC STORED SHOULD = A +1
 43246						STOP
 43247						TGET
 43248					>
 43249
 43250						DEFINE	INDPI	(A,B,%XX),<
 43251
 43252					;GET OURSELVES INTO A TIGHT INDIRECT LOOP.
 43253					;AND SEE IF WE ARE ABLE TO INTERRUPT OUT OF IT.
 43254					;THE LOOP IS DONE TEN TIMES. EACH TIME THE INTERRUPT IS DISMISSED AND
 43255					;WE WILL RETURN TO THE "JRST @." INSTRUCTION.
 43256
 43257						TSET
 43258						MOVEI	10,^D10		;TIMES TO DO THIS TEST
 43259						MOVEM	10,COUNTX#	;STORE IT
 43260						MOVE	10,[JSP 1,%XX]	;INTERRUPT TRAP INSTRUCTION
 43261						MOVEM	10,A		;STORE FOR INTERRUPT REQUEST
 43262						CLRBT1
 43263						CONO	PI,2377		;TURN ON PI AND CHANNELS
 43264						CONO	APR,LESBER!LSSBER!B	;ENABLE AND SET S BUS ERRORS,ENABLE CH B
 43265						JRST	@.		;LOOP
 43266						HALT	.+1		;ERROR IF HERE  (GOT OUT OF INDIRECT LOOP)
 43267					%XX:	TGET
 43268						ANDI	1,-1		;MASK PC BITS
 43269						CAIE	1,%XX-2		;WAS CORRECT PC STORED?
 43270						STOP
 43271						SOSE	COUNTX		;LOOP TEST
 43272						JEN	@1		;DISMISS INTERRUPT
 43273						CLRBTH
 43274					>
DFKAA PDP-10 KL10 BASIC INSTRUCTION DIAGNOSTIC (1) VER 0,2	MACRO %52(537) 09:34 31-JAN-77 PAGE 12
DFKAA8	MAC	25-AUG-75 14:17		IOT TESTING                                                                        SEQ 1008

 43275					SUBTTL	IOT TESTING
 43276
 43277					;IF IOT HANGS - CHECK ARRT AND ARLT CLR
 43278					;AND OR AR SIGN SMEAR..
 43279
 43280					;TEST THE IOT'S
 43281	057645				IOTXXX:
 43282
 43283	057645				IOTXX:
 43284	057645	264 00 00 00 070231 	IOT0:	JSR	TRPSET		;FILL THE TRAP LOCATIONS
 43285	057646	474 01 0 00 000000 		SETO	1,		;THE IOTS FAIL
 43286	057647	7 000 04 0 00 000001 		DATAI	1		;TO STORE C(E)
 43287	057650	7 000 24 0 00 000001 		CONI	1		;CHECK IR DECODE
 43288	057651	316 01 0 00 070254 		CAMN	1,[-1]		;IR IOT ,IOT0-T9 ,ET2
 43289						STOP^
 43290	057652	254 04 0 00 057653 		HALT	.+1		;INSTRUCTION FAILED REPLACE
 43291	057653	254 00 0 00 057654 		JRST	.+1		;WITH JRST BACK^
 43292
 43293	057654	200 01 0 00 071066 	IOT1:	MOVE	1,[123456654321]	;CHECK DATAI STORING C(E)
 43294	057655	7 000 04 0 00 000001 		DATAI	1		;CONTENTS OF LOC 1
 43295	057656	316 01 0 00 071066 		CAMN	1,[123456654321]	;NOT MODIFIED
 43296						STOP^
 43297	057657	254 04 0 00 057660 		HALT	.+1		;INSTRUCTION FAILED REPLACE
 43298	057660	254 00 0 00 057661 		JRST	.+1		;WITH JRST BACK^
 43299
 43300	057661	200 01 0 00 071066 	IOT2:	MOVE	1,[123456654321]	;CHECK CONI STOR THE CONTENTS OF "E" NOT SET OR
 43301	057662	7 000 24 0 00 000001 		CONI	1		;SAC INH NOT SET - CONTENTS OF LOC 1
 43302	057663	316 01 0 00 071066 		CAMN	1,[123456654321]	;NOT MODIFIED
 43303						STOP^
 43304	057664	254 04 0 00 057665 		HALT	.+1		;INSTRUCTION FAILED REPLACE
 43305	057665	254 00 0 00 057666 		JRST	.+1		;WITH JRST BACK^
 43306
 43307	057666	474 00 0 00 000000 	IOT3:	SETO			;CHECK SAC INH FOR
 43308	057667	7 000 24 0 00 000001 		CONI	1		;CONI LOC 0
 43309	057670	312 00 0 00 070254 		CAME	[-1]		;MODIFIED
 43310						STOP^
 43311	057671	254 04 0 00 057672 		HALT	.+1		;INSTRUCTION FAILED REPLACE
 43312	057672	254 00 0 00 057673 		JRST	.+1		;WITH JRST BACK^
 43313
 43314	057673	7 774 20 0 00 000000 	IOT4:	CONO	LAST,0		;CLEAR LAST DEV (774)
 43315	057674	7 774 24 0 00 000002 		CONI	LAST,2
 43316	057675	306 02 0 00 000002 		CAIN	2,2		;IOT GOT E OF LAST INST.
 43317						STOP^
 43318	057676	254 04 0 00 057677 		HALT	.+1		;INSTRUCTION FAILED REPLACE
 43319	057677	254 00 0 00 057700 		JRST	.+1		;WITH JRST BACK^
DFKAA PDP-10 KL10 BASIC INSTRUCTION DIAGNOSTIC (1) VER 0,2	MACRO %52(537) 09:34 31-JAN-77 PAGE 13
DFKAA8	MAC	25-AUG-75 14:17		IOT TESTING                                                                        SEQ 1009

 43320	057700	7 774 14 0 00 070253 	IOT5:	DATAO	LAST,[0]	;AR CLR FAILED ON
 43321	057701	7 774 04 0 00 000003 		DATAI	LAST,3		;DATAI
 43322	057702	306 03 0 00 000003 		CAIN	3,3		;GET E AS DATA
 43323						STOP^
 43324	057703	254 04 0 00 057704 		HALT	.+1		;INSTRUCTION FAILED REPLACE
 43325	057704	254 00 0 00 057705 		JRST	.+1		;WITH JRST BACK^
 43326
 43327						TSET^
 43328			057705			%X=.			;DEFINE %X TO SAVE
 43329	057705	201 00 0 00 057705 		MOVEI	%X		;SAVE THIS PC IN CASE OF WILD TRANSFER
 43330	057706	202 00 0 00 071350 		MOVEM	TNUMB#		;BECAUSE OF PC MOD OR INTERRUPT^
 43331	057707	400 00 0 00 000000 	IOT6:	SETZ			;CONSZ FAILED TO SKIP
 43332	057710	7 000 30 0 00 000000 		CONSZ			;CHECK PC CLOCK ENABLE AND AD=0 ON IOT CONSZ
 43333						STOP^
 43334	057711	254 04 0 00 057712 		HALT	.+1		;INSTRUCTION FAILED REPLACE
 43335	057712	254 00 0 00 057713 		JRST	.+1		;WITH JRST BACK^
 43336
 43337						TBOTH^
 43338						TGET^
 43339	057713	200 00 0 00 071350 		MOVE	TNUMB		;GET LAST PC STORED AND CHECK TO SEE
 43340	057714	302 00 0 00 057705 		CAIE	%X		;IF ITS WHERE WE REALLY SHOULD BE
 43341						STOP2^^
 43342	057715	254 04 0 00 057716 		HALT	.+1		;HALT IF WE SHOULDN'T BE HERE
 43343	057716	254 00 0 00 057717 		JRST	.+1		;WILD TRANSFER CAUSED THIS HALT.^
 43344
 43345						TSET^^
 43346			057717			%X=.			;DEFINE %X TO SAVE
 43347	057717	201 00 0 00 057717 		MOVEI	%X		;SAVE THIS PC IN CASE OF WILD TRANSFER
 43348	057720	202 00 0 00 071350 		MOVEM	TNUMB#		;BECAUSE OF PC MOD OR INTERRUPT^
 43349	057721	7 774 20 0 00 000000 	IOT7:	CONO	LAST,0		;CONSZ FAILED TO SKIP
 43350	057722	7 774 30 0 00 700000 		CONSZ	LAST,700000	;CHECK PC CLK EN AT ET2 ON IOT CONSZ
 43351						STOP^
 43352	057723	254 04 0 00 057724 		HALT	.+1		;INSTRUCTION FAILED REPLACE
 43353	057724	254 00 0 00 057725 		JRST	.+1		;WITH JRST BACK^
DFKAA PDP-10 KL10 BASIC INSTRUCTION DIAGNOSTIC (1) VER 0,2	MACRO %52(537) 09:34 31-JAN-77 PAGE 14
DFKAA8	MAC	25-AUG-75 14:17		IOT TESTING                                                                        SEQ 1010

 43354						TBOTH^
 43355						TGET^
 43356	057725	200 00 0 00 071350 		MOVE	TNUMB		;GET LAST PC STORED AND CHECK TO SEE
 43357	057726	302 00 0 00 057717 		CAIE	%X		;IF ITS WHERE WE REALLY SHOULD BE
 43358						STOP2^^
 43359	057727	254 04 0 00 057730 		HALT	.+1		;HALT IF WE SHOULDN'T BE HERE
 43360	057730	254 00 0 00 057731 		JRST	.+1		;WILD TRANSFER CAUSED THIS HALT.^
 43361
 43362						TSET^^
 43363			057731			%X=.			;DEFINE %X TO SAVE
 43364	057731	201 00 0 00 057731 		MOVEI	%X		;SAVE THIS PC IN CASE OF WILD TRANSFER
 43365	057732	202 00 0 00 071350 		MOVEM	TNUMB#		;BECAUSE OF PC MOD OR INTERRUPT^
 43366	057733	7 774 20 0 00 000000 	IOT8:	CONO	LAST,0		;CONSO SKIPPED CHK PC CLK EN(0)
 43367	057734	7 774 34 0 00 000000 		CONSO	LAST,0		;AD=0, IOT CONSO
 43368	057735	334 00 0 00 000000 		SKIPA			;IOT CONSZ
 43369						STOP^
 43370	057736	254 04 0 00 057737 		HALT	.+1		;INSTRUCTION FAILED REPLACE
 43371	057737	254 00 0 00 057740 		JRST	.+1		;WITH JRST BACK^
 43372
 43373						TBOTH^
 43374						TGET^
 43375	057740	200 00 0 00 071350 		MOVE	TNUMB		;GET LAST PC STORED AND CHECK TO SEE
 43376	057741	302 00 0 00 057731 		CAIE	%X		;IF ITS WHERE WE REALLY SHOULD BE
 43377						STOP2^^
 43378	057742	254 04 0 00 057743 		HALT	.+1		;HALT IF WE SHOULDN'T BE HERE
 43379	057743	254 00 0 00 057744 		JRST	.+1		;WILD TRANSFER CAUSED THIS HALT.^
 43380
 43381						TSET^^
 43382			057744			%X=.			;DEFINE %X TO SAVE
 43383	057744	201 00 0 00 057744 		MOVEI	%X		;SAVE THIS PC IN CASE OF WILD TRANSFER
 43384	057745	202 00 0 00 071350 		MOVEM	TNUMB#		;BECAUSE OF PC MOD OR INTERRUPT^
 43385	057746	400 01 0 00 000000 	IOT9:	SETZ	1,		;CHK AD+1 TO BOTH ON IOT
 43386	057747	7 774 10 0 00 000001 		BLKO	LAST,1		;BLK, IF C(E)=0 THEN AD+1
 43387	057750	334 00 0 00 000000 		SKIPA			;BOTH OR ARFMAD(1) FAILED
 43388	057751	255 00 0 00 000000 		JFCL			;IF IR 12 FAILED TO SET
 43389	057752	312 01 0 00 070251 		CAME	1,[XWD 1,1]	;PROGRAM BLOWS MIND
 43390						STOP^
 43391	057753	254 04 0 00 057754 		HALT	.+1		;INSTRUCTION FAILED REPLACE
 43392	057754	254 00 0 00 057755 		JRST	.+1		;WITH JRST BACK^
DFKAA PDP-10 KL10 BASIC INSTRUCTION DIAGNOSTIC (1) VER 0,2	MACRO %52(537) 09:34 31-JAN-77 PAGE 15
DFKAA8	MAC	25-AUG-75 14:17		IOT TESTING                                                                        SEQ 1011

 43393						TBOTH^
 43394						TGET^
 43395	057755	200 00 0 00 071350 		MOVE	TNUMB		;GET LAST PC STORED AND CHECK TO SEE
 43396	057756	302 00 0 00 057744 		CAIE	%X		;IF ITS WHERE WE REALLY SHOULD BE
 43397						STOP2^^
 43398	057757	254 04 0 00 057760 		HALT	.+1		;HALT IF WE SHOULDN'T BE HERE
 43399	057760	254 00 0 00 057761 		JRST	.+1		;WILD TRANSFER CAUSED THIS HALT.^
 43400
 43401						TSET^^
 43402			057761			%X=.			;DEFINE %X TO SAVE
 43403	057761	201 00 0 00 057761 		MOVEI	%X		;SAVE THIS PC IN CASE OF WILD TRANSFER
 43404	057762	202 00 0 00 071350 		MOVEM	TNUMB#		;BECAUSE OF PC MOD OR INTERRUPT^
 43405	057763	255 00 0 00 000000 	IOT10:	JFCL
 43406						TBOTH^
 43407						TGET^
 43408	057764	200 00 0 00 071350 		MOVE	TNUMB		;GET LAST PC STORED AND CHECK TO SEE
 43409	057765	302 00 0 00 057761 		CAIE	%X		;IF ITS WHERE WE REALLY SHOULD BE
 43410						STOP2^^
 43411	057766	254 04 0 00 057767 		HALT	.+1		;HALT IF WE SHOULDN'T BE HERE
 43412	057767	254 00 0 00 057770 		JRST	.+1		;WILD TRANSFER CAUSED THIS HALT.^
 43413
 43414						TSET^^
 43415			057770			%X=.			;DEFINE %X TO SAVE
 43416	057770	201 00 0 00 057770 		MOVEI	%X		;SAVE THIS PC IN CASE OF WILD TRANSFER
 43417	057771	202 00 0 00 071350 		MOVEM	TNUMB#		;BECAUSE OF PC MOD OR INTERRUPT^
 43418	057772	400 01 0 00 000000 	IOT11:	SETZ	1,		;BLKO PC CLK EN AT ET2 FAILED
 43419	057773	7 774 10 0 00 000001 		BLKO	LAST,1		;BLKO SHOULD SKIP
 43420						STOP^
 43421	057774	254 04 0 00 057775 		HALT	.+1		;INSTRUCTION FAILED REPLACE
 43422	057775	254 00 0 00 057776 		JRST	.+1		;WITH JRST BACK^
 43423
 43424						TBOTH^
 43425						TGET^
 43426	057776	200 00 0 00 071350 		MOVE	TNUMB		;GET LAST PC STORED AND CHECK TO SEE
 43427	057777	302 00 0 00 057770 		CAIE	%X		;IF ITS WHERE WE REALLY SHOULD BE
 43428						STOP2^^
 43429	060000	254 04 0 00 060001 		HALT	.+1		;HALT IF WE SHOULDN'T BE HERE
 43430	060001	254 00 0 00 060002 		JRST	.+1		;WILD TRANSFER CAUSED THIS HALT.^
 43431
 43432						TSET^^
 43433			060002			%X=.			;DEFINE %X TO SAVE
 43434	060002	201 00 0 00 060002 		MOVEI	%X		;SAVE THIS PC IN CASE OF WILD TRANSFER
 43435	060003	202 00 0 00 071350 		MOVEM	TNUMB#		;BECAUSE OF PC MOD OR INTERRUPT^
 43436	060004	474 01 0 00 000000 	IOT12:	SETO	1,		;BLKO PREFORMED A SKIP
 43437	060005	7 774 10 0 00 000001 		BLKO	LAST,1		;PC CLK EN ASSERTED?
 43438	060006	334 00 0 00 000000 		SKIPA
 43439						STOP^
 43440	060007	254 04 0 00 060010 		HALT	.+1		;INSTRUCTION FAILED REPLACE
 43441	060010	254 00 0 00 060011 		JRST	.+1		;WITH JRST BACK^
 43442
 43443	060011	320 00 0 00 060012 	IOT13:	JUMP	.+1		;NEVER DO 13
 43444
 43445	060012	7 004 20 0 00 010000 	IOT14:	CONO	PI,10000	;CLR PI SYSTEM
 43446	060013	7 000 20 0 00 000077 		CONO	77		;SET SOME CPA BITS
 43447	060014	7 000 24 0 00 000000 		CONI	0		;IF FAILED EITHER CONO FAILED
DFKAA PDP-10 KL10 BASIC INSTRUCTION DIAGNOSTIC (1) VER 0,2	MACRO %52(537) 09:34 31-JAN-77 PAGE 15-1
DFKAA8	MAC	25-AUG-75 14:17		IOT TESTING                                                                        SEQ 1012

 43448	060015	336 00 0 00 000000 		SKIPN	0		;IO SET OR CONI FAILED READ
 43449						STOP^
 43450	060016	254 04 0 00 060017 		HALT	.+1		;INSTRUCTION FAILED REPLACE
 43451	060017	254 00 0 00 060020 		JRST	.+1		;WITH JRST BACK^
 43452									;OR ARRT OR ARLT EN OR AR SIGN
 43453									;SMEAR OR CPA SELECT NOT ASSERTED
DFKAA PDP-10 KL10 BASIC INSTRUCTION DIAGNOSTIC (1) VER 0,2	MACRO %52(537) 09:34 31-JAN-77 PAGE 16
DFKAA8	MAC	25-AUG-75 14:17		TEST APR FLAGS                                                                     SEQ 1013

 43454					SUBTTL	TEST APR FLAGS
 43455
 43456	060020	7 000 20 0 00 000000 	IOT15:	CONO			;APR CLOCK PIA FAILED EITHER
 43457	060021	7 000 20 0 00 000001 		CONO	1		;TO SET OR BE READ
 43458	060022	7 000 24 0 00 000000 		CONI			;CHECK APR PIA 35 CLOCK
 43459	060023	606 00 0 00 000001 		TRNN	1
 43460						STOP^
 43461	060024	254 04 0 00 060025 		HALT	.+1		;INSTRUCTION FAILED REPLACE
 43462	060025	254 00 0 00 060026 		JRST	.+1		;WITH JRST BACK^
 43463
 43464	060026	7 000 20 0 00 000000 	IOT15A:	CONO			;APR CLOCK PIA FAILED EITHER
 43465	060027	7 000 20 0 00 000002 		CONO	2		;TO SET OR BE READ
 43466	060030	7 000 24 0 00 000000 		CONI			;CHECK APR PIA 34 CLOCK
 43467	060031	606 00 0 00 000002 		TRNN	2
 43468						STOP^
 43469	060032	254 04 0 00 060033 		HALT	.+1		;INSTRUCTION FAILED REPLACE
 43470	060033	254 00 0 00 060034 		JRST	.+1		;WITH JRST BACK^
 43471
 43472	060034	7 000 20 0 00 000000 	IOT16:	CONO			;APR CLOCK PIA FAILED EITHER
 43473	060035	7 000 20 0 00 000004 		CONO	4		;TO SET OR BE READ
 43474	060036	7 000 24 0 00 000000 		CONI			;CHECK APR PIA 33 CLOCK
 43475	060037	606 00 0 00 000004 		TRNN	4		;
 43476						STOP^
 43477	060040	254 04 0 00 060041 		HALT	.+1		;INSTRUCTION FAILED REPLACE
 43478	060041	254 00 0 00 060042 		JRST	.+1		;WITH JRST BACK^
 43479
 43480	060042	700 04 0 00 267760 	IOT16A:	CLRAPR
 43481	060043	7 000 20 0 00 010020 		CONO	APR,LSCASD	;TO SET OR BE READ
 43482	060044	7 000 24 0 00 000000 		CONI			;CHECK APR PIA 32 ERROR
 43483	060045	606 00 0 00 000020 		TRNN	LCASWD
 43484						STOP^
 43485	060046	254 04 0 00 060047 		HALT	.+1		;INSTRUCTION FAILED REPLACE
 43486	060047	254 00 0 00 060050 		JRST	.+1		;WITH JRST BACK^
 43487
 43488	060050	700 04 0 00 267760 	IOT17:	CLRAPR			;APR ERROR PIA FAILED EITHER
 43489	060051	7 000 20 0 00 010040 		CONO	APR,LSPWRF		;TO SET OR BE READ
 43490	060052	7 000 24 0 00 000000 		CONI			;CHECK APR PIA 31 ERROR
 43491	060053	606 00 0 00 000040 		TRNN	LPWRFL
 43492						STOP^
 43493	060054	254 04 0 00 060055 		HALT	.+1		;INSTRUCTION FAILED REPLACE
 43494	060055	254 00 0 00 060056 		JRST	.+1		;WITH JRST BACK^
 43495
 43496	060056	700 04 0 00 267760 	IOT17A:	CLRAPR			;APR ERROR PIA FAILED EITHER
 43497	060057	7 000 20 0 00 011000 		CONO	APR,LSIOPF		;TO SET OR BE READ
 43498	060060	7 000 24 0 00 000000 		CONI			;CHECK APR PIA 30 ERROR
 43499	060061	606 00 0 00 001000 		TRNN	LIOPFE
 43500						STOP^
 43501	060062	254 04 0 00 060063 		HALT	.+1		;INSTRUCTION FAILED REPLACE
 43502	060063	254 00 0 00 060064 		JRST	.+1		;WITH JRST BACK^
DFKAA PDP-10 KL10 BASIC INSTRUCTION DIAGNOSTIC (1) VER 0,2	MACRO %52(537) 09:34 31-JAN-77 PAGE 17
DFKAA8	MAC	25-AUG-75 14:17		TEST APR FLAGS                                                                     SEQ 1014

 43503	060064	700 04 0 00 267760 	IOT18:	CLRAPR
 43504	060065	7 000 20 0 00 010400 		CONO	APR,LSPAER
 43505	060066	7 000 24 0 00 000000 		CONI	APR,
 43506	060067	606 00 0 00 000400 		TRNN	LPARER
 43507						STOP^
 43508	060070	254 04 0 00 060071 		HALT	.+1		;INSTRUCTION FAILED REPLACE
 43509	060071	254 00 0 00 060072 		JRST	.+1		;WITH JRST BACK^
 43510	060072	700 04 0 00 267760 		CLRAPR
 43511	060073	7 000 20 0 00 012000 		CONO	APR,LSNXER
 43512	060074	7 000 24 0 00 000000 		CONI	APR,
 43513	060075	606 00 0 00 002000 		TRNN	LNXMER
 43514						STOP^
 43515	060076	254 04 0 00 060077 		HALT	.+1		;INSTRUCTION FAILED REPLACE
 43516	060077	254 00 0 00 060100 		JRST	.+1		;WITH JRST BACK^
 43517	060100	700 04 0 00 267760 		CLRAPR
 43518	060101	7 000 20 0 00 014000 		CONO	APR,LSSBER
 43519	060102	7 000 24 0 00 000000 		CONI	APR,
 43520	060103	606 00 0 00 004000 		TRNN	LSBUSE
 43521						STOP^
 43522	060104	254 04 0 00 060105 		HALT	.+1		;INSTRUCTION FAILED REPLACE
 43523	060105	254 00 0 00 060106 		JRST	.+1		;WITH JRST BACK^
 43524	060106	700 04 0 00 267760 		CLRAPR
 43525
 43526	060107	7 000 20 0 00 000001 	IOT18A:	CONO	1
 43527	060110	7 000 20 0 00 000000 		CONO
 43528	060111	7 000 24 0 00 000000 		CONI
 43529	060112	602 00 0 00 000001 		TRNE	1
 43530						STOP^
 43531	060113	254 04 0 00 060114 		HALT	.+1		;INSTRUCTION FAILED REPLACE
 43532	060114	254 00 0 00 060115 		JRST	.+1		;WITH JRST BACK^
 43533	060115	7 000 20 0 00 000002 	IOT19:	CONO	2		;APR PIA 34 CLOCK
 43534	060116	7 000 20 0 00 000000 		CONO			;FAILED TO CLEAR
 43535	060117	7 000 24 0 00 000000 		CONI
 43536	060120	602 00 0 00 000002 		TRNE	2
 43537						STOP^
 43538	060121	254 04 0 00 060122 		HALT	.+1		;INSTRUCTION FAILED REPLACE
 43539	060122	254 00 0 00 060123 		JRST	.+1		;WITH JRST BACK^
 43540
 43541	060123	7 000 20 0 00 000004 	IOT20:	CONO	4		;APR PIA 33 CLOCK
 43542	060124	7 000 20 0 00 000000 		CONO			;FAILED TO CLEAR
 43543	060125	7 000 24 0 00 000000 		CONI
 43544	060126	602 00 0 00 000004 		TRNE	4
 43545						STOP^
 43546	060127	254 04 0 00 060130 		HALT	.+1		;INSTRUCTION FAILED REPLACE
 43547	060130	254 00 0 00 060131 		JRST	.+1		;WITH JRST BACK^
 43548
 43549	060131	7 000 20 0 00 010020 	IOT21:	CONO	APR,LSCASD		;APR PIA 32 ERROR
 43550	060132	7 000 20 0 00 020020 		CONO	APR,LCCASD		;FAILED TO CLEAR
 43551	060133	7 000 24 0 00 000000 		CONI
 43552	060134	602 00 0 00 000020 		TRNE	LCASWD
 43553						STOP^
 43554	060135	254 04 0 00 060136 		HALT	.+1		;INSTRUCTION FAILED REPLACE
 43555	060136	254 00 0 00 060137 		JRST	.+1		;WITH JRST BACK^
DFKAA PDP-10 KL10 BASIC INSTRUCTION DIAGNOSTIC (1) VER 0,2	MACRO %52(537) 09:34 31-JAN-77 PAGE 18
DFKAA8	MAC	25-AUG-75 14:17		TEST APR FLAGS                                                                     SEQ 1015

 43556	060137	7 000 20 0 00 010040 	IOT22:	CONO	APR,LSPWRF		;APR PIA 31 ERROR
 43557	060140	7 000 20 0 00 020040 		CONO	APR,LCPWRF		;FAILED TO CLEAR
 43558	060141	7 000 24 0 00 000000 		CONI
 43559	060142	602 00 0 00 000040 		TRNE	LPWRFL
 43560						STOP^
 43561	060143	254 04 0 00 060144 		HALT	.+1		;INSTRUCTION FAILED REPLACE
 43562	060144	254 00 0 00 060145 		JRST	.+1		;WITH JRST BACK^
 43563
 43564	060145	7 000 20 0 00 011000 	IOT23:	CONO	APR,LSIOPF		;APR PIA 30 ERROR
 43565	060146	7 000 20 0 00 021000 		CONO	APR,LCIOPF		;FAILED TO CLEAR
 43566	060147	7 000 24 0 00 000000 		CONI
 43567	060150	602 00 0 00 001000 		TRNE	LIOPFE
 43568						STOP^
 43569	060151	254 04 0 00 060152 		HALT	.+1		;INSTRUCTION FAILED REPLACE
 43570	060152	254 00 0 00 060153 		JRST	.+1		;WITH JRST BACK^
 43571	060153	7 000 20 0 00 010400 		CONO	APR,LSPAER
 43572	060154	7 000 20 0 00 020400 		CONO	APR,LCPAER
 43573	060155	7 000 24 0 00 000000 		CONI
 43574	060156	602 00 0 00 000400 		TRNE	LPARER
 43575	060157	7 000 20 0 00 012000 		CONO	APR,LSNXER
 43576	060160	7 000 20 0 00 022000 		CONO	APR,LCNXER
 43577	060161	7 000 24 0 00 000000 		CONI
 43578	060162	602 00 0 00 002000 		TRNE	LNXMER
 43579	060163	7 000 20 0 00 014000 		CONO	APR,LSSBER
 43580	060164	7 000 20 0 00 024000 		CONO	APR,LCSBER
 43581	060165	7 000 24 0 00 000000 		CONI
 43582	060166	602 00 0 00 004000 		TRNE	LSBUSE
 43583						STOP^
 43584	060167	254 04 0 00 060170 		HALT	.+1		;INSTRUCTION FAILED REPLACE
 43585	060170	254 00 0 00 060171 		JRST	.+1		;WITH JRST BACK^
DFKAA PDP-10 KL10 BASIC INSTRUCTION DIAGNOSTIC (1) VER 0,2	MACRO %52(537) 09:34 31-JAN-77 PAGE 19
DFKAA8	MAC	25-AUG-75 14:17		TEST APR FLAGS                                                                     SEQ 1016

 43586						TBOTH^
 43587						TGET^
 43588	060171	200 00 0 00 071350 		MOVE	TNUMB		;GET LAST PC STORED AND CHECK TO SEE
 43589	060172	302 00 0 00 060002 		CAIE	%X		;IF ITS WHERE WE REALLY SHOULD BE
 43590						STOP2^^
 43591	060173	254 04 0 00 060174 		HALT	.+1		;HALT IF WE SHOULDN'T BE HERE
 43592	060174	254 00 0 00 060175 		JRST	.+1		;WILD TRANSFER CAUSED THIS HALT.^
 43593
 43594						TSET^^
 43595			060175			%X=.			;DEFINE %X TO SAVE
 43596	060175	201 00 0 00 060175 		MOVEI	%X		;SAVE THIS PC IN CASE OF WILD TRANSFER
 43597	060176	202 00 0 00 071350 		MOVEM	TNUMB#		;BECAUSE OF PC MOD OR INTERRUPT^
 43598	060177	7 000 20 0 00 000007 	IOT24:	CONO	7		;SET SOME FLAGS
 43599	060200	7 000 34 0 00 000000 		CONSO			;CONSO FAILED CK PC CLOCK ENABLE
 43600	060201	334 00 0 00 000000 		SKIPA			;INH
 43601						STOP^
 43602	060202	254 04 0 00 060203 		HALT	.+1		;INSTRUCTION FAILED REPLACE
 43603	060203	254 00 0 00 060204 		JRST	.+1		;WITH JRST BACK^
 43604
 43605						TBOTH^
 43606						TGET^
 43607	060204	200 00 0 00 071350 		MOVE	TNUMB		;GET LAST PC STORED AND CHECK TO SEE
 43608	060205	302 00 0 00 060175 		CAIE	%X		;IF ITS WHERE WE REALLY SHOULD BE
 43609						STOP2^^
 43610	060206	254 04 0 00 060207 		HALT	.+1		;HALT IF WE SHOULDN'T BE HERE
 43611	060207	254 00 0 00 060210 		JRST	.+1		;WILD TRANSFER CAUSED THIS HALT.^
 43612
 43613						TSET^^
 43614			060210			%X=.			;DEFINE %X TO SAVE
 43615	060210	201 00 0 00 060210 		MOVEI	%X		;SAVE THIS PC IN CASE OF WILD TRANSFER
 43616	060211	202 00 0 00 071350 		MOVEM	TNUMB#		;BECAUSE OF PC MOD OR INTERRUPT^
 43617	060212	7 000 20 0 00 000007 	IOT25:	CONO	7		;SET SOME FLAGS
 43618	060213	7 000 34 0 00 000007 		CONSO	7		;CONSO FAILED CH PC CLOCK ENABLE
 43619						STOP^
 43620	060214	254 04 0 00 060215 		HALT	.+1		;INSTRUCTION FAILED REPLACE
 43621	060215	254 00 0 00 060216 		JRST	.+1		;WITH JRST BACK^
 43622
 43623						TBOTH^
 43624						TGET^
 43625	060216	200 00 0 00 071350 		MOVE	TNUMB		;GET LAST PC STORED AND CHECK TO SEE
 43626	060217	302 00 0 00 060210 		CAIE	%X		;IF ITS WHERE WE REALLY SHOULD BE
 43627						STOP2^^
 43628	060220	254 04 0 00 060221 		HALT	.+1		;HALT IF WE SHOULDN'T BE HERE
 43629	060221	254 00 0 00 060222 		JRST	.+1		;WILD TRANSFER CAUSED THIS HALT.^
 43630
 43631						TSET^^
 43632			060222			%X=.			;DEFINE %X TO SAVE
 43633	060222	201 00 0 00 060222 		MOVEI	%X		;SAVE THIS PC IN CASE OF WILD TRANSFER
 43634	060223	202 00 0 00 071350 		MOVEM	TNUMB#		;BECAUSE OF PC MOD OR INTERRUPT^
 43635	060224	7 000 20 0 00 000007 	IOT26:	CONO	7		;CONSZ FAILED
 43636	060225	7 000 30 0 00 000007 		CONSZ	7		;CK PC CLOCK ENABLE IF AD=0
 43637	060226	334 00 0 00 000000 		SKIPA			;AND IOT TIME
 43638						STOP^
 43639	060227	254 04 0 00 060230 		HALT	.+1		;INSTRUCTION FAILED REPLACE
 43640	060230	254 00 0 00 060231 		JRST	.+1		;WITH JRST BACK^
DFKAA PDP-10 KL10 BASIC INSTRUCTION DIAGNOSTIC (1) VER 0,2	MACRO %52(537) 09:34 31-JAN-77 PAGE 20
DFKAA8	MAC	25-AUG-75 14:17		TEST APR FLAGS                                                                     SEQ 1017

 43641						TBOTH^
 43642						TGET^
 43643	060231	200 00 0 00 071350 		MOVE	TNUMB		;GET LAST PC STORED AND CHECK TO SEE
 43644	060232	302 00 0 00 060222 		CAIE	%X		;IF ITS WHERE WE REALLY SHOULD BE
 43645						STOP2^^
 43646	060233	254 04 0 00 060234 		HALT	.+1		;HALT IF WE SHOULDN'T BE HERE
 43647	060234	254 00 0 00 060235 		JRST	.+1		;WILD TRANSFER CAUSED THIS HALT.^
 43648
 43649						TSET^^
 43650			060235			%X=.			;DEFINE %X TO SAVE
 43651	060235	201 00 0 00 060235 		MOVEI	%X		;SAVE THIS PC IN CASE OF WILD TRANSFER
 43652	060236	202 00 0 00 071350 		MOVEM	TNUMB#		;BECAUSE OF PC MOD OR INTERRUPT^
 43653	060237	254 00 0 00 060267 		JRST	IOT31A
 43654	060240	7 000 20 0 00 004000 	IOT27:	CONO	CLKDIS		;DISABLE CLOCK THEN ENABLE
 43655	060241	7 000 20 0 00 002000 		CONO	CLKENB		;FAILS IF CLOCK ENABLE NOT SET.
 43656	060242	7 000 34 0 00 002000 		CONSO	2000		;SET
 43657						STOP^
 43658	060243	254 04 0 00 060244 		HALT	.+1		;INSTRUCTION FAILED REPLACE
 43659	060244	254 00 0 00 060245 		JRST	.+1		;WITH JRST BACK^
 43660	060245	254 00 0 00 060246 		JRST	.+1
 43661
 43662	060246	7 000 20 0 00 002000 	IOT28:	CONO	2000		;CK CLK EN FOR NOT
 43663	060247	7 000 20 0 00 004000 		CONO	4000		;CLEARING
 43664	060250	7 000 30 0 00 002000 		CONSZ	2000
 43665						STOP^
 43666	060251	254 04 0 00 060252 		HALT	.+1		;INSTRUCTION FAILED REPLACE
 43667	060252	254 00 0 00 060253 		JRST	.+1		;WITH JRST BACK^
 43668
 43669					;THE NEXT TWO TESTS ARE NOT DONE IF WE ARE DOING
 43670					;MARGINS, BECAUSE THE DATAO IN THE NEXT TEST WILL CLEAR
 43671					;THE MARGIN WORD, AND THE TEST FOLLOWING MAY NOT BE ASSURED
 43672					;THAT THE CONSOLE SWITCHES 30-35 WILL BE = 0
 43673
 43674	060253	332 00 0 00 030055 	IOT29:	SKIPE	MARGIN		;ARE DOING MARGINS?
 43675	060254	254 00 0 00 060267 		JRST	IOT31A		;YEP SKIP THIS
 43676	060255	7 000 20 0 00 000077 		CONO	APR,77		;SET SOME BITS
 43677	060256	7 000 14 0 00 000000 		DATAO	APR,0		;TRY TO CLEAR VIA DATAO
 43678	060257	7 000 34 0 00 000077 		CONSO	APR,77		;BITS SHOULD STILL BE SET
 43679						STOP^
 43680	060260	254 04 0 00 060261 		HALT	.+1		;INSTRUCTION FAILED REPLACE
 43681	060261	254 00 0 00 060262 		JRST	.+1		;WITH JRST BACK^
DFKAA PDP-10 KL10 BASIC INSTRUCTION DIAGNOSTIC (1) VER 0,2	MACRO %52(537) 09:34 31-JAN-77 PAGE 21
DFKAA8	MAC	25-AUG-75 14:17		TEST APR FLAGS                                                                     SEQ 1018

 43682	060262	7 000 20 0 00 000077 	IOT30:	CONO	APR,77		;SET SOME CPA BITS
 43683	060263	7 000 04 0 00 000000 		DATAI	APR,0		;GET DATA SWITCHES
 43684	060264	602 00 0 00 000077 		TRNE	0,77		;DATAI DECODED AS CONI
 43685						STOP^
 43686	060265	254 04 0 00 060266 		HALT	.+1		;INSTRUCTION FAILED REPLACE
 43687	060266	254 00 0 00 060267 		JRST	.+1		;WITH JRST BACK^
 43688
 43689	060267				IOT31A:	TBOTH^
 43690						TGET^
 43691	060267	200 00 0 00 071350 		MOVE	TNUMB		;GET LAST PC STORED AND CHECK TO SEE
 43692	060270	302 00 0 00 060235 		CAIE	%X		;IF ITS WHERE WE REALLY SHOULD BE
 43693						STOP2^^
 43694	060271	254 04 0 00 060272 		HALT	.+1		;HALT IF WE SHOULDN'T BE HERE
 43695	060272	254 00 0 00 060273 		JRST	.+1		;WILD TRANSFER CAUSED THIS HALT.^
 43696
 43697						TSET^^
 43698			060273			%X=.			;DEFINE %X TO SAVE
 43699	060273	201 00 0 00 060273 		MOVEI	%X		;SAVE THIS PC IN CASE OF WILD TRANSFER
 43700	060274	202 00 0 00 071350 		MOVEM	TNUMB#		;BECAUSE OF PC MOD OR INTERRUPT^
 43701	060275	254 02 1 00 060276 	IOT31:	JRSTF	@.+1		;SET BIS FLAG VIA JRSTF
 43702	060276	000000	060277			BIS,.+1			;BYTF6 AND NEW PC
 43703	060277	7 774 14 0 00 000000 		DATAO	LAST,		;TRY TO CLEAR BIS FLAG VIA DATAO
 43704	060300	265 00 0 00 060301 		JSP	.+1		;GET CPU FLAGS(BIS) SHOULD BE CLEAR
 43705	060301	603 00 0 00 020000 		TLNE	BIS		;AT ET2 OF THE IOT
 43706						STOP^
 43707	060302	254 04 0 00 060303 		HALT	.+1		;INSTRUCTION FAILED REPLACE
 43708	060303	254 00 0 00 060304 		JRST	.+1		;WITH JRST BACK^
 43709						TGET^
 43710	060304	200 00 0 00 071350 		MOVE	TNUMB		;GET LAST PC STORED AND CHECK TO SEE
 43711	060305	302 00 0 00 060273 		CAIE	%X		;IF ITS WHERE WE REALLY SHOULD BE
 43712						STOP2^^
 43713	060306	254 04 0 00 060307 		HALT	.+1		;HALT IF WE SHOULDN'T BE HERE
 43714	060307	254 00 0 00 060310 		JRST	.+1		;WILD TRANSFER CAUSED THIS HALT.^
 43715	060310	255 00 0 00 000000 	IOT32:	JFCL
 43716	060311	254 00 0 00 060312 		JRST	IOT33B
DFKAA PDP-10 KL10 BASIC INSTRUCTION DIAGNOSTIC (1) VER 0,2	MACRO %52(537) 09:34 31-JAN-77 PAGE 22
DFKAA8	MAC	25-AUG-75 14:17		TEST PI FLAGS                                                                      SEQ 1019

 43717					SUBTTL	TEST PI FLAGS
 43718
 43719	060312	7 000 20 0 00 000007 	IOT33B:	CONO	7		;CONO PI MODIFIED
 43720	060313	7 004 20 0 00 000000 		CONO	PI,0		;CPU AS A DEVICE
 43721	060314	7 000 34 0 00 000007 		CONSO	7		;CPA SELECT IS CONFUSED
 43722						STOP^
 43723	060315	254 04 0 00 060316 		HALT	.+1		;INSTRUCTION FAILED REPLACE
 43724	060316	254 00 0 00 060317 		JRST	.+1		;WITH JRST BACK^
 43725	060317	7 000 20 0 00 000000 		CONO	0		;RESET BITS
 43726
 43727	060320	7 004 20 0 00 000200 	IOT34:	CONO	PI,200		;CHK WHY PI ON
 43728	060321	7 004 24 0 00 000000 		CONI	PI,		;FLOP NOT SET
 43729	060322	606 00 0 00 000200 		TRNN	200
 43730						STOP^
 43731	060323	254 04 0 00 060324 		HALT	.+1		;INSTRUCTION FAILED REPLACE
 43732	060324	254 00 0 00 060325 		JRST	.+1		;WITH JRST BACK^
 43733
 43734	060325	7 004 20 0 00 000200 	IOT35:	CONO	PI,200		;CHK WHY PI ON
 43735	060326	7 004 20 0 00 000400 		CONO	PI,400		;NOT CLEARED
 43736	060327	7 004 24 0 00 000000 		CONI	PI,		;
 43737	060330	602 00 0 00 000200 		TRNE	200
 43738						STOP^
 43739	060331	254 04 0 00 060332 		HALT	.+1		;INSTRUCTION FAILED REPLACE
 43740	060332	254 00 0 00 060333 		JRST	.+1		;WITH JRST BACK^
 43741
 43742	060333				IOT36:
DFKAA PDP-10 KL10 BASIC INSTRUCTION DIAGNOSTIC (1) VER 0,2	MACRO %52(537) 09:34 31-JAN-77 PAGE 23
DFKAA8	MAC	25-AUG-75 14:17		BASIC PI SYSTEM TESTING                                                            SEQ 1020

 43743					SUBTTL	BASIC PI SYSTEM TESTING
 43744
 43745					;BEGIN TESTING THE PI SYSTEM
 43746						BLURB^
 43747					;LOCATIONS 40-60 CONTAIN A JSP TO A ROUTINE WHICH STORES
 43748					;THE CHANNEL NUMBER OF THE INTERRUPT INTO 0
 43749					;THEREFORE IF AN INTERRUPT OCCURS THEN LOCATION
 43750					;ZERO WILL CONTAIN THE NUMBER OF THE INTERRUPT CHANNEL TRAP ADRESS
 43751					^
 43752					;AND THE PROGRAM WILL HALT POINTING TO THE INTERUPTED ADRESS.
 43753	060333	264 00 0 00 070103 		HALTPI			;FILL INTERRUPT LOCATIONS WITH HALTS
 43754
 43755
 43756	060334	7 004 20 0 00 002001 	IOT38:	CONO	PI,2001		;PI CHANNEL 7
 43757	060335	7 004 24 0 00 000000 		CONI	PI,		;FAILED TO SET
 43758	060336	606 00 0 00 000001 		TRNN	1		;
 43759						STOP^
 43760	060337	254 04 0 00 060340 		HALT	.+1		;INSTRUCTION FAILED REPLACE
 43761	060340	254 00 0 00 060341 		JRST	.+1		;WITH JRST BACK^
 43762
 43763	060341	7 004 20 0 00 002001 	IOT39:	CONO	PI,2001		;PI CHANNEL 7
 43764	060342	7 004 20 0 00 001001 		CONO	PI,1001		;FAILED TO CLEAR
 43765	060343	7 000 24 0 00 000000 		CONI
 43766	060344	602 00 0 00 000001 		TRNE	1
 43767						STOP^
 43768	060345	254 04 0 00 060346 		HALT	.+1		;INSTRUCTION FAILED REPLACE
 43769	060346	254 00 0 00 060347 		JRST	.+1		;WITH JRST BACK^
 43770
 43771	060347	7 004 20 0 00 002002 	IOT40:	CONO	PI,2002		;PI CHANNEL 6
 43772	060350	7 004 24 0 00 000000 		CONI	PI,		;FAILED TO SET
 43773	060351	606 00 0 00 000002 		TRNN	2
 43774						STOP^
 43775	060352	254 04 0 00 060353 		HALT	.+1		;INSTRUCTION FAILED REPLACE
 43776	060353	254 00 0 00 060354 		JRST	.+1		;WITH JRST BACK^
 43777
 43778	060354	7 004 20 0 00 002002 	IOT41:	CONO	PI,2002		;PI CHANNEL 6
 43779	060355	7 004 20 0 00 001002 		CONO	PI,1002		;FAILED TO CLEAR
 43780	060356	7 004 24 0 00 000000 		CONI	PI,
 43781	060357	602 00 0 00 000002 		TRNE	2
 43782						STOP^
 43783	060360	254 04 0 00 060361 		HALT	.+1		;INSTRUCTION FAILED REPLACE
 43784	060361	254 00 0 00 060362 		JRST	.+1		;WITH JRST BACK^
DFKAA PDP-10 KL10 BASIC INSTRUCTION DIAGNOSTIC (1) VER 0,2	MACRO %52(537) 09:34 31-JAN-77 PAGE 24
DFKAA8	MAC	25-AUG-75 14:17		BASIC PI SYSTEM TESTING                                                            SEQ 1021

 43785	060362	7 004 20 0 00 002004 	IOT42:	CONO	PI,2004		;PI CHANNEL 5
 43786	060363	7 004 24 0 00 000000 		CONI	PI,		;FAILED TO SET
 43787	060364	606 00 0 00 000004 		TRNN	4
 43788						STOP^
 43789	060365	254 04 0 00 060366 		HALT	.+1		;INSTRUCTION FAILED REPLACE
 43790	060366	254 00 0 00 060367 		JRST	.+1		;WITH JRST BACK^
 43791
 43792	060367	7 004 20 0 00 002004 	IOT43:	CONO	PI,2004		;PI CHANNEL 5
 43793	060370	7 004 20 0 00 001004 		CONO	PI,1004		;FAILED TO CLEAR
 43794	060371	7 004 24 0 00 000000 		CONI	PI,
 43795	060372	602 00 0 00 000004 		TRNE	4
 43796						STOP^
 43797	060373	254 04 0 00 060374 		HALT	.+1		;INSTRUCTION FAILED REPLACE
 43798	060374	254 00 0 00 060375 		JRST	.+1		;WITH JRST BACK^
 43799
 43800	060375	7 004 20 0 00 002010 	IOT44:	CONO	PI,2010		;PI CHANNEL 4
 43801	060376	7 004 24 0 00 000000 		CONI	PI,		;FAILED TO SET
 43802	060377	606 00 0 00 000010 		TRNN	10
 43803						STOP^
 43804	060400	254 04 0 00 060401 		HALT	.+1		;INSTRUCTION FAILED REPLACE
 43805	060401	254 00 0 00 060402 		JRST	.+1		;WITH JRST BACK^
 43806
 43807	060402	7 004 20 0 00 002010 	IOT45:	CONO	PI,2010		;PI CHAN 4
 43808	060403	7 004 20 0 00 001010 		CONO	PI,1010		;FAILED TO CLEAR
 43809	060404	7 004 24 0 00 000000 		CONI	PI,
 43810	060405	602 00 0 00 000010 		TRNE	10
 43811						STOP^
 43812	060406	254 04 0 00 060407 		HALT	.+1		;INSTRUCTION FAILED REPLACE
 43813	060407	254 00 0 00 060410 		JRST	.+1		;WITH JRST BACK^
 43814
 43815	060410	7 004 20 0 00 002020 	IOT46:	CONO	PI,2020		;PI CHAN 3
 43816	060411	7 004 24 0 00 000000 		CONI	PI,		;FAILED TO SET
 43817	060412	606 00 0 00 000020 		TRNN	20
 43818						STOP^
 43819	060413	254 04 0 00 060414 		HALT	.+1		;INSTRUCTION FAILED REPLACE
 43820	060414	254 00 0 00 060415 		JRST	.+1		;WITH JRST BACK^
 43821
 43822	060415	7 004 20 0 00 002020 	IOT47:	CONO	PI,2020		;PI CHAN 3
 43823	060416	7 004 20 0 00 001020 		CONO	PI,1020		;FAILED TO CLEAR
 43824	060417	7 004 24 0 00 000000 		CONI	PI,
 43825	060420	602 00 0 00 000010 		TRNE	10
 43826						STOP^
 43827	060421	254 04 0 00 060422 		HALT	.+1		;INSTRUCTION FAILED REPLACE
 43828	060422	254 00 0 00 060423 		JRST	.+1		;WITH JRST BACK^
 43829
DFKAA PDP-10 KL10 BASIC INSTRUCTION DIAGNOSTIC (1) VER 0,2	MACRO %52(537) 09:34 31-JAN-77 PAGE 25
DFKAA8	MAC	25-AUG-75 14:17		BASIC PI SYSTEM TESTING                                                            SEQ 1022

 43830	060423	7 004 20 0 00 002040 	IOT48:	CONO	PI,2040		;PI CHAN 2
 43831	060424	7 004 24 0 00 000000 		CONI	PI,		;FAILED TO SET
 43832	060425	606 00 0 00 000040 		TRNN	40
 43833						STOP^
 43834	060426	254 04 0 00 060427 		HALT	.+1		;INSTRUCTION FAILED REPLACE
 43835	060427	254 00 0 00 060430 		JRST	.+1		;WITH JRST BACK^
 43836
 43837	060430	7 004 20 0 00 002040 	IOT49:	CONO	PI,2040		;PI CHAN 2
 43838	060431	7 004 20 0 00 001040 		CONO	PI,1040		;FAILED TO CLR
 43839	060432	7 004 24 0 00 000000 		CONI	PI,
 43840	060433	602 00 0 00 000040 		TRNE	40
 43841						STOP^
 43842	060434	254 04 0 00 060435 		HALT	.+1		;INSTRUCTION FAILED REPLACE
 43843	060435	254 00 0 00 060436 		JRST	.+1		;WITH JRST BACK^
 43844
 43845	060436	7 004 20 0 00 002100 	IOT50:	CONO	PI,2100		;PI CHAN 1
 43846	060437	7 004 24 0 00 000000 		CONI	PI,		;FAILED TO SET
 43847	060440	606 00 0 00 000100 		TRNN	100
 43848						STOP^
 43849	060441	254 04 0 00 060442 		HALT	.+1		;INSTRUCTION FAILED REPLACE
 43850	060442	254 00 0 00 060443 		JRST	.+1		;WITH JRST BACK^
 43851
 43852	060443	7 004 20 0 00 002100 	IOT51:	CONO	PI,2100		;PI CHAN 1
 43853	060444	7 004 20 0 00 001100 		CONO	PI,1100		;FAILED TO CLEAR
 43854	060445	7 004 24 0 00 000000 		CONI	PI,
 43855	060446	602 00 0 00 000100 		TRNE	100
 43856						STOP^
 43857	060447	254 04 0 00 060450 		HALT	.+1		;INSTRUCTION FAILED REPLACE
 43858	060450	254 00 0 00 060451 		JRST	.+1		;WITH JRST BACK^
 43859
 43860	060451	255 00 0 00 000000 	IOTXYZ:	JFCL
DFKAA PDP-10 KL10 BASIC INSTRUCTION DIAGNOSTIC (1) VER 0,2	MACRO %52(537) 09:34 31-JAN-77 PAGE 26
DFKAA8	MAC	25-AUG-75 14:17		BASIC PI SYSTEM TESTING                                                            SEQ 1023

 43861			040000			X=40000
 43862						BLURB^
 43863					;LOCATIONS 40-60 CONTAIN A JSP TO A ROUTINE WHICH STORES
 43864					;THE CHANNEL NUMBER OF THE INTERRUPT INTO 0
 43865					;THEREFORE IF AN INTERRUPT OCCURS THEN LOCATION
 43866					;ZERO WILL CONTAIN THE NUMBER OF THE INTERRUPT CHANNEL TRAP ADRESS
 43867					^
 43868	060452	264 00 0 00 070120 		TRPPI			;FILL INTERRUPT LOCATIONS WITH TRAPS
 43869					PIOT00:	REPEAT	7,
 43870					<	PINO	X
 43871						X=X_-1>
 43872						PINO	X^
 43873
 43874					;ENABLE THE PI SYSTEM. AND EXPECT NO INTERRUPTS. THEN TEST THAT THE
 43875					;HOLD FLOP FOR EACH CHANNEL IS NOT SET.
 43876
 43877						TSET^
 43878			060453			%X=.			;DEFINE %X TO SAVE
 43879	060453	201 00 0 00 060453 		MOVEI	%X		;SAVE THIS PC IN CASE OF WILD TRANSFER
 43880	060454	202 00 0 00 071350 		MOVEM	TNUMB#		;BECAUSE OF PC MOD OR INTERRUPT^
 43881	060455				..0001:	CLRBTH^
 43882	060455	700 04 0 00 267760 		CLRAPR
 43883	060456	700 14 0 00 031577 		CLRPI^
 43884	060457	7 004 20 0 00 000200 		CONO	PI,PION		;ENABLE PI AND ,EXPECT NO INTERRUPTS
 43885						WATINT^
 43886	060460	201 13 0 00 001000 		MOVEI	13,1000		;SET UP LOOP OF TEN TO WAIT FOR INT.
 43887	060461	367 13 0 00 060461 		SOJG	13,.		;AND WAIT^
 43888	060462	7 004 30 0 00 040000 		CONSZ	PI,X		;CHECK WHY INT. IN PROGRESS IS SET.
 43889						STOP^
 43890	060463	254 04 0 00 060464 		HALT	.+1		;INSTRUCTION FAILED REPLACE
 43891	060464	254 00 0 00 060465 		JRST	.+1		;WITH JRST BACK^
 43892						TGET^
 43893	060465	200 00 0 00 071350 		MOVE	TNUMB		;GET LAST PC STORED AND CHECK TO SEE
 43894	060466	302 00 0 00 060453 		CAIE	%X		;IF ITS WHERE WE REALLY SHOULD BE
 43895						STOP2^^
 43896	060467	254 04 0 00 060470 		HALT	.+1		;HALT IF WE SHOULDN'T BE HERE
 43897	060470	254 00 0 00 060471 		JRST	.+1		;WILD TRANSFER CAUSED THIS HALT.^
 43898					^
 43899			020000			X=X_-1
 43900						PINO	X^
 43901
 43902					;ENABLE THE PI SYSTEM. AND EXPECT NO INTERRUPTS. THEN TEST THAT THE
 43903					;HOLD FLOP FOR EACH CHANNEL IS NOT SET.
 43904
 43905						TSET^
 43906			060471			%X=.			;DEFINE %X TO SAVE
 43907	060471	201 00 0 00 060471 		MOVEI	%X		;SAVE THIS PC IN CASE OF WILD TRANSFER
 43908	060472	202 00 0 00 071350 		MOVEM	TNUMB#		;BECAUSE OF PC MOD OR INTERRUPT^
 43909	060473				..0002:	CLRBTH^
 43910	060473	700 04 0 00 267760 		CLRAPR
 43911	060474	700 14 0 00 031577 		CLRPI^
 43912	060475	7 004 20 0 00 000200 		CONO	PI,PION		;ENABLE PI AND ,EXPECT NO INTERRUPTS
 43913						WATINT^
 43914	060476	201 13 0 00 001000 		MOVEI	13,1000		;SET UP LOOP OF TEN TO WAIT FOR INT.
 43915	060477	367 13 0 00 060477 		SOJG	13,.		;AND WAIT^
DFKAA PDP-10 KL10 BASIC INSTRUCTION DIAGNOSTIC (1) VER 0,2	MACRO %52(537) 09:34 31-JAN-77 PAGE 26-1
DFKAA8	MAC	25-AUG-75 14:17		BASIC PI SYSTEM TESTING                                                            SEQ 1024

 43916	060500	7 004 30 0 00 020000 		CONSZ	PI,X		;CHECK WHY INT. IN PROGRESS IS SET.
 43917						STOP^
 43918	060501	254 04 0 00 060502 		HALT	.+1		;INSTRUCTION FAILED REPLACE
 43919	060502	254 00 0 00 060503 		JRST	.+1		;WITH JRST BACK^
 43920						TGET^
 43921	060503	200 00 0 00 071350 		MOVE	TNUMB		;GET LAST PC STORED AND CHECK TO SEE
 43922	060504	302 00 0 00 060471 		CAIE	%X		;IF ITS WHERE WE REALLY SHOULD BE
 43923						STOP2^^
 43924	060505	254 04 0 00 060506 		HALT	.+1		;HALT IF WE SHOULDN'T BE HERE
 43925	060506	254 00 0 00 060507 		JRST	.+1		;WILD TRANSFER CAUSED THIS HALT.^
 43926					^
 43927			010000			X=X_-1
 43928						PINO	X^
 43929
 43930					;ENABLE THE PI SYSTEM. AND EXPECT NO INTERRUPTS. THEN TEST THAT THE
 43931					;HOLD FLOP FOR EACH CHANNEL IS NOT SET.
 43932
 43933						TSET^
 43934			060507			%X=.			;DEFINE %X TO SAVE
 43935	060507	201 00 0 00 060507 		MOVEI	%X		;SAVE THIS PC IN CASE OF WILD TRANSFER
 43936	060510	202 00 0 00 071350 		MOVEM	TNUMB#		;BECAUSE OF PC MOD OR INTERRUPT^
 43937	060511				..0003:	CLRBTH^
 43938	060511	700 04 0 00 267760 		CLRAPR
 43939	060512	700 14 0 00 031577 		CLRPI^
 43940	060513	7 004 20 0 00 000200 		CONO	PI,PION		;ENABLE PI AND ,EXPECT NO INTERRUPTS
 43941						WATINT^
 43942	060514	201 13 0 00 001000 		MOVEI	13,1000		;SET UP LOOP OF TEN TO WAIT FOR INT.
 43943	060515	367 13 0 00 060515 		SOJG	13,.		;AND WAIT^
 43944	060516	7 004 30 0 00 010000 		CONSZ	PI,X		;CHECK WHY INT. IN PROGRESS IS SET.
 43945						STOP^
 43946	060517	254 04 0 00 060520 		HALT	.+1		;INSTRUCTION FAILED REPLACE
 43947	060520	254 00 0 00 060521 		JRST	.+1		;WITH JRST BACK^
 43948						TGET^
 43949	060521	200 00 0 00 071350 		MOVE	TNUMB		;GET LAST PC STORED AND CHECK TO SEE
 43950	060522	302 00 0 00 060507 		CAIE	%X		;IF ITS WHERE WE REALLY SHOULD BE
 43951						STOP2^^
 43952	060523	254 04 0 00 060524 		HALT	.+1		;HALT IF WE SHOULDN'T BE HERE
 43953	060524	254 00 0 00 060525 		JRST	.+1		;WILD TRANSFER CAUSED THIS HALT.^
 43954					^
 43955			004000			X=X_-1
 43956						PINO	X^
 43957
 43958					;ENABLE THE PI SYSTEM. AND EXPECT NO INTERRUPTS. THEN TEST THAT THE
 43959					;HOLD FLOP FOR EACH CHANNEL IS NOT SET.
 43960
 43961						TSET^
 43962			060525			%X=.			;DEFINE %X TO SAVE
 43963	060525	201 00 0 00 060525 		MOVEI	%X		;SAVE THIS PC IN CASE OF WILD TRANSFER
 43964	060526	202 00 0 00 071350 		MOVEM	TNUMB#		;BECAUSE OF PC MOD OR INTERRUPT^
 43965	060527				..0004:	CLRBTH^
 43966	060527	700 04 0 00 267760 		CLRAPR
 43967	060530	700 14 0 00 031577 		CLRPI^
 43968	060531	7 004 20 0 00 000200 		CONO	PI,PION		;ENABLE PI AND ,EXPECT NO INTERRUPTS
 43969						WATINT^
 43970	060532	201 13 0 00 001000 		MOVEI	13,1000		;SET UP LOOP OF TEN TO WAIT FOR INT.
DFKAA PDP-10 KL10 BASIC INSTRUCTION DIAGNOSTIC (1) VER 0,2	MACRO %52(537) 09:34 31-JAN-77 PAGE 26-2
DFKAA8	MAC	25-AUG-75 14:17		BASIC PI SYSTEM TESTING                                                            SEQ 1025

 43971	060533	367 13 0 00 060533 		SOJG	13,.		;AND WAIT^
 43972	060534	7 004 30 0 00 004000 		CONSZ	PI,X		;CHECK WHY INT. IN PROGRESS IS SET.
 43973						STOP^
 43974	060535	254 04 0 00 060536 		HALT	.+1		;INSTRUCTION FAILED REPLACE
 43975	060536	254 00 0 00 060537 		JRST	.+1		;WITH JRST BACK^
 43976						TGET^
 43977	060537	200 00 0 00 071350 		MOVE	TNUMB		;GET LAST PC STORED AND CHECK TO SEE
 43978	060540	302 00 0 00 060525 		CAIE	%X		;IF ITS WHERE WE REALLY SHOULD BE
 43979						STOP2^^
 43980	060541	254 04 0 00 060542 		HALT	.+1		;HALT IF WE SHOULDN'T BE HERE
 43981	060542	254 00 0 00 060543 		JRST	.+1		;WILD TRANSFER CAUSED THIS HALT.^
 43982					^
 43983			002000			X=X_-1
 43984						PINO	X^
 43985
 43986					;ENABLE THE PI SYSTEM. AND EXPECT NO INTERRUPTS. THEN TEST THAT THE
 43987					;HOLD FLOP FOR EACH CHANNEL IS NOT SET.
 43988
 43989						TSET^
 43990			060543			%X=.			;DEFINE %X TO SAVE
 43991	060543	201 00 0 00 060543 		MOVEI	%X		;SAVE THIS PC IN CASE OF WILD TRANSFER
 43992	060544	202 00 0 00 071350 		MOVEM	TNUMB#		;BECAUSE OF PC MOD OR INTERRUPT^
 43993	060545				..0005:	CLRBTH^
 43994	060545	700 04 0 00 267760 		CLRAPR
 43995	060546	700 14 0 00 031577 		CLRPI^
 43996	060547	7 004 20 0 00 000200 		CONO	PI,PION		;ENABLE PI AND ,EXPECT NO INTERRUPTS
 43997						WATINT^
 43998	060550	201 13 0 00 001000 		MOVEI	13,1000		;SET UP LOOP OF TEN TO WAIT FOR INT.
 43999	060551	367 13 0 00 060551 		SOJG	13,.		;AND WAIT^
 44000	060552	7 004 30 0 00 002000 		CONSZ	PI,X		;CHECK WHY INT. IN PROGRESS IS SET.
 44001						STOP^
 44002	060553	254 04 0 00 060554 		HALT	.+1		;INSTRUCTION FAILED REPLACE
 44003	060554	254 00 0 00 060555 		JRST	.+1		;WITH JRST BACK^
 44004						TGET^
 44005	060555	200 00 0 00 071350 		MOVE	TNUMB		;GET LAST PC STORED AND CHECK TO SEE
 44006	060556	302 00 0 00 060543 		CAIE	%X		;IF ITS WHERE WE REALLY SHOULD BE
 44007						STOP2^^
 44008	060557	254 04 0 00 060560 		HALT	.+1		;HALT IF WE SHOULDN'T BE HERE
 44009	060560	254 00 0 00 060561 		JRST	.+1		;WILD TRANSFER CAUSED THIS HALT.^
 44010					^
 44011			001000			X=X_-1
 44012						PINO	X^
 44013
 44014					;ENABLE THE PI SYSTEM. AND EXPECT NO INTERRUPTS. THEN TEST THAT THE
 44015					;HOLD FLOP FOR EACH CHANNEL IS NOT SET.
 44016
 44017						TSET^
 44018			060561			%X=.			;DEFINE %X TO SAVE
 44019	060561	201 00 0 00 060561 		MOVEI	%X		;SAVE THIS PC IN CASE OF WILD TRANSFER
 44020	060562	202 00 0 00 071350 		MOVEM	TNUMB#		;BECAUSE OF PC MOD OR INTERRUPT^
 44021	060563				..0006:	CLRBTH^
 44022	060563	700 04 0 00 267760 		CLRAPR
 44023	060564	700 14 0 00 031577 		CLRPI^
 44024	060565	7 004 20 0 00 000200 		CONO	PI,PION		;ENABLE PI AND ,EXPECT NO INTERRUPTS
 44025						WATINT^
DFKAA PDP-10 KL10 BASIC INSTRUCTION DIAGNOSTIC (1) VER 0,2	MACRO %52(537) 09:34 31-JAN-77 PAGE 26-3
DFKAA8	MAC	25-AUG-75 14:17		BASIC PI SYSTEM TESTING                                                            SEQ 1026

 44026	060566	201 13 0 00 001000 		MOVEI	13,1000		;SET UP LOOP OF TEN TO WAIT FOR INT.
 44027	060567	367 13 0 00 060567 		SOJG	13,.		;AND WAIT^
 44028	060570	7 004 30 0 00 001000 		CONSZ	PI,X		;CHECK WHY INT. IN PROGRESS IS SET.
 44029						STOP^
 44030	060571	254 04 0 00 060572 		HALT	.+1		;INSTRUCTION FAILED REPLACE
 44031	060572	254 00 0 00 060573 		JRST	.+1		;WITH JRST BACK^
 44032						TGET^
 44033	060573	200 00 0 00 071350 		MOVE	TNUMB		;GET LAST PC STORED AND CHECK TO SEE
 44034	060574	302 00 0 00 060561 		CAIE	%X		;IF ITS WHERE WE REALLY SHOULD BE
 44035						STOP2^^
 44036	060575	254 04 0 00 060576 		HALT	.+1		;HALT IF WE SHOULDN'T BE HERE
 44037	060576	254 00 0 00 060577 		JRST	.+1		;WILD TRANSFER CAUSED THIS HALT.^
 44038					^
 44039			000400			X=X_-1
 44040						PINO	X^
 44041
 44042					;ENABLE THE PI SYSTEM. AND EXPECT NO INTERRUPTS. THEN TEST THAT THE
 44043					;HOLD FLOP FOR EACH CHANNEL IS NOT SET.
 44044
 44045						TSET^
 44046			060577			%X=.			;DEFINE %X TO SAVE
 44047	060577	201 00 0 00 060577 		MOVEI	%X		;SAVE THIS PC IN CASE OF WILD TRANSFER
 44048	060600	202 00 0 00 071350 		MOVEM	TNUMB#		;BECAUSE OF PC MOD OR INTERRUPT^
 44049	060601				..0007:	CLRBTH^
 44050	060601	700 04 0 00 267760 		CLRAPR
 44051	060602	700 14 0 00 031577 		CLRPI^
 44052	060603	7 004 20 0 00 000200 		CONO	PI,PION		;ENABLE PI AND ,EXPECT NO INTERRUPTS
 44053						WATINT^
 44054	060604	201 13 0 00 001000 		MOVEI	13,1000		;SET UP LOOP OF TEN TO WAIT FOR INT.
 44055	060605	367 13 0 00 060605 		SOJG	13,.		;AND WAIT^
 44056	060606	7 004 30 0 00 000400 		CONSZ	PI,X		;CHECK WHY INT. IN PROGRESS IS SET.
 44057						STOP^
 44058	060607	254 04 0 00 060610 		HALT	.+1		;INSTRUCTION FAILED REPLACE
 44059	060610	254 00 0 00 060611 		JRST	.+1		;WITH JRST BACK^
 44060						TGET^
 44061	060611	200 00 0 00 071350 		MOVE	TNUMB		;GET LAST PC STORED AND CHECK TO SEE
 44062	060612	302 00 0 00 060577 		CAIE	%X		;IF ITS WHERE WE REALLY SHOULD BE
 44063						STOP2^^
 44064	060613	254 04 0 00 060614 		HALT	.+1		;HALT IF WE SHOULDN'T BE HERE
 44065	060614	254 00 0 00 060615 		JRST	.+1		;WILD TRANSFER CAUSED THIS HALT.^
 44066					^
 44067			000200			X=X_-1
 44068	060615	255 00 0 00 000000 		JFCL
DFKAA PDP-10 KL10 BASIC INSTRUCTION DIAGNOSTIC (1) VER 0,2	MACRO %52(537) 09:34 31-JAN-77 PAGE 27
DFKAA8	MAC	25-AUG-75 14:17		BASIC PI SYSTEM TESTING                                                            SEQ 1027

 44069						BLURB^
 44070					;LOCATIONS 40-60 CONTAIN A JSP TO A ROUTINE WHICH STORES
 44071					;THE CHANNEL NUMBER OF THE INTERRUPT INTO 0
 44072					;THEREFORE IF AN INTERRUPT OCCURS THEN LOCATION
 44073					;ZERO WILL CONTAIN THE NUMBER OF THE INTERRUPT CHANNEL TRAP ADRESS
 44074					^
 44075
 44076	060616	264 00 0 00 070120 		TRPPI			;FILL INTERRUPT LOCATIONS WITH TRAPS
 44077			040000			X=40000
 44078			000100			Y=100
 44079	060617				PIOT01:
 44080						REPEAT	7,<
 44081						PIYES	Y,X
 44082						X=X_-1
 44083						Y=Y_-1
 44084					>
 44085
 44086						PIYES	Y,X^
 44087
 44088					;SET REQUESTS FOR EACH CHANNEL BUT DO NOT SET PI ACTIVE.
 44089					;INTERRUPTS SHOULD NOT OCCUR, AND THE INTERRUPT IN PROGRESS
 44090					;FLAG SHOULD NOT BE SET FOR THE CHANNEL BEING TESTED
 44091
 44092						TSET^
 44093			060617			%X=.			;DEFINE %X TO SAVE
 44094	060617	201 00 0 00 060617 		MOVEI	%X		;SAVE THIS PC IN CASE OF WILD TRANSFER
 44095	060620	202 00 0 00 071350 		MOVEM	TNUMB#		;BECAUSE OF PC MOD OR INTERRUPT^
 44096	060621				..0010:	CLRBTH^
 44097	060621	700 04 0 00 267760 		CLRAPR
 44098	060622	700 14 0 00 031577 		CLRPI^
 44099	060623	7 004 20 0 00 004100 		CONO	PI,REQSET+Y	;SET CHANNEL REQUEST BUT NOT ACTIVE
 44100						WATINT^
 44101	060624	201 13 0 00 001000 		MOVEI	13,1000		;SET UP LOOP OF TEN TO WAIT FOR INT.
 44102	060625	367 13 0 00 060625 		SOJG	13,.		;AND WAIT^
 44103	060626	7 004 30 0 00 040000 		CONSZ	PI,X		;CHECK WHY INT. IN PROGRESS IS SET.
 44104						STOP^
 44105	060627	254 04 0 00 060630 		HALT	.+1		;INSTRUCTION FAILED REPLACE
 44106	060630	254 00 0 00 060631 		JRST	.+1		;WITH JRST BACK^
 44107						TGET^
 44108	060631	200 00 0 00 071350 		MOVE	TNUMB		;GET LAST PC STORED AND CHECK TO SEE
 44109	060632	302 00 0 00 060617 		CAIE	%X		;IF ITS WHERE WE REALLY SHOULD BE
 44110						STOP2^^
 44111	060633	254 04 0 00 060634 		HALT	.+1		;HALT IF WE SHOULDN'T BE HERE
 44112	060634	254 00 0 00 060635 		JRST	.+1		;WILD TRANSFER CAUSED THIS HALT.^
 44113					^
 44114			020000			X=X_-1
 44115			000040			Y=Y_-1
 44116
 44117
 44118						PIYES	Y,X^
 44119
 44120					;SET REQUESTS FOR EACH CHANNEL BUT DO NOT SET PI ACTIVE.
 44121					;INTERRUPTS SHOULD NOT OCCUR, AND THE INTERRUPT IN PROGRESS
 44122					;FLAG SHOULD NOT BE SET FOR THE CHANNEL BEING TESTED
 44123
DFKAA PDP-10 KL10 BASIC INSTRUCTION DIAGNOSTIC (1) VER 0,2	MACRO %52(537) 09:34 31-JAN-77 PAGE 27-1
DFKAA8	MAC	25-AUG-75 14:17		BASIC PI SYSTEM TESTING                                                            SEQ 1028

 44124						TSET^
 44125			060635			%X=.			;DEFINE %X TO SAVE
 44126	060635	201 00 0 00 060635 		MOVEI	%X		;SAVE THIS PC IN CASE OF WILD TRANSFER
 44127	060636	202 00 0 00 071350 		MOVEM	TNUMB#		;BECAUSE OF PC MOD OR INTERRUPT^
 44128	060637				..0011:	CLRBTH^
 44129	060637	700 04 0 00 267760 		CLRAPR
 44130	060640	700 14 0 00 031577 		CLRPI^
 44131	060641	7 004 20 0 00 004040 		CONO	PI,REQSET+Y	;SET CHANNEL REQUEST BUT NOT ACTIVE
 44132						WATINT^
 44133	060642	201 13 0 00 001000 		MOVEI	13,1000		;SET UP LOOP OF TEN TO WAIT FOR INT.
 44134	060643	367 13 0 00 060643 		SOJG	13,.		;AND WAIT^
 44135	060644	7 004 30 0 00 020000 		CONSZ	PI,X		;CHECK WHY INT. IN PROGRESS IS SET.
 44136						STOP^
 44137	060645	254 04 0 00 060646 		HALT	.+1		;INSTRUCTION FAILED REPLACE
 44138	060646	254 00 0 00 060647 		JRST	.+1		;WITH JRST BACK^
 44139						TGET^
 44140	060647	200 00 0 00 071350 		MOVE	TNUMB		;GET LAST PC STORED AND CHECK TO SEE
 44141	060650	302 00 0 00 060635 		CAIE	%X		;IF ITS WHERE WE REALLY SHOULD BE
 44142						STOP2^^
 44143	060651	254 04 0 00 060652 		HALT	.+1		;HALT IF WE SHOULDN'T BE HERE
 44144	060652	254 00 0 00 060653 		JRST	.+1		;WILD TRANSFER CAUSED THIS HALT.^
 44145					^
 44146			010000			X=X_-1
 44147			000020			Y=Y_-1
 44148
 44149
 44150						PIYES	Y,X^
 44151
 44152					;SET REQUESTS FOR EACH CHANNEL BUT DO NOT SET PI ACTIVE.
 44153					;INTERRUPTS SHOULD NOT OCCUR, AND THE INTERRUPT IN PROGRESS
 44154					;FLAG SHOULD NOT BE SET FOR THE CHANNEL BEING TESTED
 44155
 44156						TSET^
 44157			060653			%X=.			;DEFINE %X TO SAVE
 44158	060653	201 00 0 00 060653 		MOVEI	%X		;SAVE THIS PC IN CASE OF WILD TRANSFER
 44159	060654	202 00 0 00 071350 		MOVEM	TNUMB#		;BECAUSE OF PC MOD OR INTERRUPT^
 44160	060655				..0012:	CLRBTH^
 44161	060655	700 04 0 00 267760 		CLRAPR
 44162	060656	700 14 0 00 031577 		CLRPI^
 44163	060657	7 004 20 0 00 004020 		CONO	PI,REQSET+Y	;SET CHANNEL REQUEST BUT NOT ACTIVE
 44164						WATINT^
 44165	060660	201 13 0 00 001000 		MOVEI	13,1000		;SET UP LOOP OF TEN TO WAIT FOR INT.
 44166	060661	367 13 0 00 060661 		SOJG	13,.		;AND WAIT^
 44167	060662	7 004 30 0 00 010000 		CONSZ	PI,X		;CHECK WHY INT. IN PROGRESS IS SET.
 44168						STOP^
 44169	060663	254 04 0 00 060664 		HALT	.+1		;INSTRUCTION FAILED REPLACE
 44170	060664	254 00 0 00 060665 		JRST	.+1		;WITH JRST BACK^
 44171						TGET^
 44172	060665	200 00 0 00 071350 		MOVE	TNUMB		;GET LAST PC STORED AND CHECK TO SEE
 44173	060666	302 00 0 00 060653 		CAIE	%X		;IF ITS WHERE WE REALLY SHOULD BE
 44174						STOP2^^
 44175	060667	254 04 0 00 060670 		HALT	.+1		;HALT IF WE SHOULDN'T BE HERE
 44176	060670	254 00 0 00 060671 		JRST	.+1		;WILD TRANSFER CAUSED THIS HALT.^
 44177					^
 44178			004000			X=X_-1
DFKAA PDP-10 KL10 BASIC INSTRUCTION DIAGNOSTIC (1) VER 0,2	MACRO %52(537) 09:34 31-JAN-77 PAGE 27-2
DFKAA8	MAC	25-AUG-75 14:17		BASIC PI SYSTEM TESTING                                                            SEQ 1029

 44179			000010			Y=Y_-1
 44180
 44181
 44182						PIYES	Y,X^
 44183
 44184					;SET REQUESTS FOR EACH CHANNEL BUT DO NOT SET PI ACTIVE.
 44185					;INTERRUPTS SHOULD NOT OCCUR, AND THE INTERRUPT IN PROGRESS
 44186					;FLAG SHOULD NOT BE SET FOR THE CHANNEL BEING TESTED
 44187
 44188						TSET^
 44189			060671			%X=.			;DEFINE %X TO SAVE
 44190	060671	201 00 0 00 060671 		MOVEI	%X		;SAVE THIS PC IN CASE OF WILD TRANSFER
 44191	060672	202 00 0 00 071350 		MOVEM	TNUMB#		;BECAUSE OF PC MOD OR INTERRUPT^
 44192	060673				..0013:	CLRBTH^
 44193	060673	700 04 0 00 267760 		CLRAPR
 44194	060674	700 14 0 00 031577 		CLRPI^
 44195	060675	7 004 20 0 00 004010 		CONO	PI,REQSET+Y	;SET CHANNEL REQUEST BUT NOT ACTIVE
 44196						WATINT^
 44197	060676	201 13 0 00 001000 		MOVEI	13,1000		;SET UP LOOP OF TEN TO WAIT FOR INT.
 44198	060677	367 13 0 00 060677 		SOJG	13,.		;AND WAIT^
 44199	060700	7 004 30 0 00 004000 		CONSZ	PI,X		;CHECK WHY INT. IN PROGRESS IS SET.
 44200						STOP^
 44201	060701	254 04 0 00 060702 		HALT	.+1		;INSTRUCTION FAILED REPLACE
 44202	060702	254 00 0 00 060703 		JRST	.+1		;WITH JRST BACK^
 44203						TGET^
 44204	060703	200 00 0 00 071350 		MOVE	TNUMB		;GET LAST PC STORED AND CHECK TO SEE
 44205	060704	302 00 0 00 060671 		CAIE	%X		;IF ITS WHERE WE REALLY SHOULD BE
 44206						STOP2^^
 44207	060705	254 04 0 00 060706 		HALT	.+1		;HALT IF WE SHOULDN'T BE HERE
 44208	060706	254 00 0 00 060707 		JRST	.+1		;WILD TRANSFER CAUSED THIS HALT.^
 44209					^
 44210			002000			X=X_-1
 44211			000004			Y=Y_-1
 44212
 44213
 44214						PIYES	Y,X^
 44215
 44216					;SET REQUESTS FOR EACH CHANNEL BUT DO NOT SET PI ACTIVE.
 44217					;INTERRUPTS SHOULD NOT OCCUR, AND THE INTERRUPT IN PROGRESS
 44218					;FLAG SHOULD NOT BE SET FOR THE CHANNEL BEING TESTED
 44219
 44220						TSET^
 44221			060707			%X=.			;DEFINE %X TO SAVE
 44222	060707	201 00 0 00 060707 		MOVEI	%X		;SAVE THIS PC IN CASE OF WILD TRANSFER
 44223	060710	202 00 0 00 071350 		MOVEM	TNUMB#		;BECAUSE OF PC MOD OR INTERRUPT^
 44224	060711				..0014:	CLRBTH^
 44225	060711	700 04 0 00 267760 		CLRAPR
 44226	060712	700 14 0 00 031577 		CLRPI^
 44227	060713	7 004 20 0 00 004004 		CONO	PI,REQSET+Y	;SET CHANNEL REQUEST BUT NOT ACTIVE
 44228						WATINT^
 44229	060714	201 13 0 00 001000 		MOVEI	13,1000		;SET UP LOOP OF TEN TO WAIT FOR INT.
 44230	060715	367 13 0 00 060715 		SOJG	13,.		;AND WAIT^
 44231	060716	7 004 30 0 00 002000 		CONSZ	PI,X		;CHECK WHY INT. IN PROGRESS IS SET.
 44232						STOP^
 44233	060717	254 04 0 00 060720 		HALT	.+1		;INSTRUCTION FAILED REPLACE
DFKAA PDP-10 KL10 BASIC INSTRUCTION DIAGNOSTIC (1) VER 0,2	MACRO %52(537) 09:34 31-JAN-77 PAGE 27-3
DFKAA8	MAC	25-AUG-75 14:17		BASIC PI SYSTEM TESTING                                                            SEQ 1030

 44234	060720	254 00 0 00 060721 		JRST	.+1		;WITH JRST BACK^
 44235						TGET^
 44236	060721	200 00 0 00 071350 		MOVE	TNUMB		;GET LAST PC STORED AND CHECK TO SEE
 44237	060722	302 00 0 00 060707 		CAIE	%X		;IF ITS WHERE WE REALLY SHOULD BE
 44238						STOP2^^
 44239	060723	254 04 0 00 060724 		HALT	.+1		;HALT IF WE SHOULDN'T BE HERE
 44240	060724	254 00 0 00 060725 		JRST	.+1		;WILD TRANSFER CAUSED THIS HALT.^
 44241					^
 44242			001000			X=X_-1
 44243			000002			Y=Y_-1
 44244
 44245
 44246						PIYES	Y,X^
 44247
 44248					;SET REQUESTS FOR EACH CHANNEL BUT DO NOT SET PI ACTIVE.
 44249					;INTERRUPTS SHOULD NOT OCCUR, AND THE INTERRUPT IN PROGRESS
 44250					;FLAG SHOULD NOT BE SET FOR THE CHANNEL BEING TESTED
 44251
 44252						TSET^
 44253			060725			%X=.			;DEFINE %X TO SAVE
 44254	060725	201 00 0 00 060725 		MOVEI	%X		;SAVE THIS PC IN CASE OF WILD TRANSFER
 44255	060726	202 00 0 00 071350 		MOVEM	TNUMB#		;BECAUSE OF PC MOD OR INTERRUPT^
 44256	060727				..0015:	CLRBTH^
 44257	060727	700 04 0 00 267760 		CLRAPR
 44258	060730	700 14 0 00 031577 		CLRPI^
 44259	060731	7 004 20 0 00 004002 		CONO	PI,REQSET+Y	;SET CHANNEL REQUEST BUT NOT ACTIVE
 44260						WATINT^
 44261	060732	201 13 0 00 001000 		MOVEI	13,1000		;SET UP LOOP OF TEN TO WAIT FOR INT.
 44262	060733	367 13 0 00 060733 		SOJG	13,.		;AND WAIT^
 44263	060734	7 004 30 0 00 001000 		CONSZ	PI,X		;CHECK WHY INT. IN PROGRESS IS SET.
 44264						STOP^
 44265	060735	254 04 0 00 060736 		HALT	.+1		;INSTRUCTION FAILED REPLACE
 44266	060736	254 00 0 00 060737 		JRST	.+1		;WITH JRST BACK^
 44267						TGET^
 44268	060737	200 00 0 00 071350 		MOVE	TNUMB		;GET LAST PC STORED AND CHECK TO SEE
 44269	060740	302 00 0 00 060725 		CAIE	%X		;IF ITS WHERE WE REALLY SHOULD BE
 44270						STOP2^^
 44271	060741	254 04 0 00 060742 		HALT	.+1		;HALT IF WE SHOULDN'T BE HERE
 44272	060742	254 00 0 00 060743 		JRST	.+1		;WILD TRANSFER CAUSED THIS HALT.^
 44273					^
 44274			000400			X=X_-1
 44275			000001			Y=Y_-1
 44276
 44277
 44278						PIYES	Y,X^
 44279
 44280					;SET REQUESTS FOR EACH CHANNEL BUT DO NOT SET PI ACTIVE.
 44281					;INTERRUPTS SHOULD NOT OCCUR, AND THE INTERRUPT IN PROGRESS
 44282					;FLAG SHOULD NOT BE SET FOR THE CHANNEL BEING TESTED
 44283
 44284						TSET^
 44285			060743			%X=.			;DEFINE %X TO SAVE
 44286	060743	201 00 0 00 060743 		MOVEI	%X		;SAVE THIS PC IN CASE OF WILD TRANSFER
 44287	060744	202 00 0 00 071350 		MOVEM	TNUMB#		;BECAUSE OF PC MOD OR INTERRUPT^
 44288	060745				..0016:	CLRBTH^
DFKAA PDP-10 KL10 BASIC INSTRUCTION DIAGNOSTIC (1) VER 0,2	MACRO %52(537) 09:34 31-JAN-77 PAGE 27-4
DFKAA8	MAC	25-AUG-75 14:17		BASIC PI SYSTEM TESTING                                                            SEQ 1031

 44289	060745	700 04 0 00 267760 		CLRAPR
 44290	060746	700 14 0 00 031577 		CLRPI^
 44291	060747	7 004 20 0 00 004001 		CONO	PI,REQSET+Y	;SET CHANNEL REQUEST BUT NOT ACTIVE
 44292						WATINT^
 44293	060750	201 13 0 00 001000 		MOVEI	13,1000		;SET UP LOOP OF TEN TO WAIT FOR INT.
 44294	060751	367 13 0 00 060751 		SOJG	13,.		;AND WAIT^
 44295	060752	7 004 30 0 00 000400 		CONSZ	PI,X		;CHECK WHY INT. IN PROGRESS IS SET.
 44296						STOP^
 44297	060753	254 04 0 00 060754 		HALT	.+1		;INSTRUCTION FAILED REPLACE
 44298	060754	254 00 0 00 060755 		JRST	.+1		;WITH JRST BACK^
 44299						TGET^
 44300	060755	200 00 0 00 071350 		MOVE	TNUMB		;GET LAST PC STORED AND CHECK TO SEE
 44301	060756	302 00 0 00 060743 		CAIE	%X		;IF ITS WHERE WE REALLY SHOULD BE
 44302						STOP2^^
 44303	060757	254 04 0 00 060760 		HALT	.+1		;HALT IF WE SHOULDN'T BE HERE
 44304	060760	254 00 0 00 060761 		JRST	.+1		;WILD TRANSFER CAUSED THIS HALT.^
 44305					^
 44306			000200			X=X_-1
 44307			000000			Y=Y_-1
 44308
 44309	060761	255 00 0 00 000000 		JFCL
DFKAA PDP-10 KL10 BASIC INSTRUCTION DIAGNOSTIC (1) VER 0,2	MACRO %52(537) 09:34 31-JAN-77 PAGE 28
DFKAA8	MAC	25-AUG-75 14:17		BASIC PI SYSTEM TESTING                                                            SEQ 1032

 44310						BLURB^
 44311					;LOCATIONS 40-60 CONTAIN A JSP TO A ROUTINE WHICH STORES
 44312					;THE CHANNEL NUMBER OF THE INTERRUPT INTO 0
 44313					;THEREFORE IF AN INTERRUPT OCCURS THEN LOCATION
 44314					;ZERO WILL CONTAIN THE NUMBER OF THE INTERRUPT CHANNEL TRAP ADRESS
 44315					^
 44316
 44317	060762	264 00 0 00 070120 		TRPPI			;FILL INTERRUPT LOCATIONS WITH TRAPS
 44318			000100			X=100
 44319	060763				PIOT02:
 44320						REPEAT	7,<
 44321						PIONOF	X
 44322						X=X_-1
 44323					>
 44324
 44325						PIONOF	X^
 44326
 44327					;CHECK THAT PICLR CLEARS THE REQUEST FLOP
 44328					;AND THAT AN INTERUPT DOES NOT OCCUR
 44329
 44330					BLURB1^
 44331					;LOCATIONS 40-60 CONTAIN A JSP TO A ROUTINE WHICH EXECUTES A HALT
 44332					;POINTING TO THE CHANNEL WHICH CAUSED THE REQUEST.
 44333					;OR THE CHANNEL WHICH CAUSED THE INCORRECT INTERRUPT. THE PARTICULAR
 44334					;INTERRUPT TRAP ADRESS FOR THE INTERRUPT LEVEL BEING TESTED MAY NOT
 44335					;ALWAYS HAVE A JSP TO A HALT IN CASE WE ARE TESTING FOR REAL
 44336					;INTERRUPTS ON THAT CHANNEL. IN THIS CASE ONLY THE TRAP FOR THAT
 44337					;PARTICULAR CHANNEL WILL BE LEGAL. ALL OTHERS WILL HALT.
 44338					^
 44339
 44340						TSET^
 44341			060763			%X=.			;DEFINE %X TO SAVE
 44342	060763	201 00 0 00 060763 		MOVEI	%X		;SAVE THIS PC IN CASE OF WILD TRANSFER
 44343	060764	202 00 0 00 071350 		MOVEM	TNUMB#		;BECAUSE OF PC MOD OR INTERRUPT^
 44344	060765				..0017:	CLRBTH^
 44345	060765	700 04 0 00 267760 		CLRAPR
 44346	060766	700 14 0 00 031577 		CLRPI^
 44347	060767	7 004 20 0 00 004100 		CONO	PI,REQSET+X	;SET REQ. BUT NOT ACTIVE
 44348	060770	400 00 0 00 000000 		SETZ			;THEN CLEAR REQUEST THEN SET ACTIVE
 44349	060771	7 004 20 0 00 010100 		CONO	PI,PICLR+X	;PI RESET FAILED TO CLEAR PIR FLAG.
 44350						WATINT^
 44351	060772	201 13 0 00 001000 		MOVEI	13,1000		;SET UP LOOP OF TEN TO WAIT FOR INT.
 44352	060773	367 13 0 00 060773 		SOJG	13,.		;AND WAIT^
 44353	060774	332 00 0 00 000000 		SKIPE			;MOVEI EXEC OUT OF INTERRUPT CH.?
 44354						STOP^
 44355	060775	254 04 0 00 060776 		HALT	.+1		;INSTRUCTION FAILED REPLACE
 44356	060776	254 00 0 00 060777 		JRST	.+1		;WITH JRST BACK^
 44357						TGET^
 44358	060777	200 00 0 00 071350 		MOVE	TNUMB		;GET LAST PC STORED AND CHECK TO SEE
 44359	061000	302 00 0 00 060763 		CAIE	%X		;IF ITS WHERE WE REALLY SHOULD BE
 44360						STOP2^^
 44361	061001	254 04 0 00 061002 		HALT	.+1		;HALT IF WE SHOULDN'T BE HERE
 44362	061002	254 00 0 00 061003 		JRST	.+1		;WILD TRANSFER CAUSED THIS HALT.^
 44363					^
 44364			000040			X=X_-1
DFKAA PDP-10 KL10 BASIC INSTRUCTION DIAGNOSTIC (1) VER 0,2	MACRO %52(537) 09:34 31-JAN-77 PAGE 28-1
DFKAA8	MAC	25-AUG-75 14:17		BASIC PI SYSTEM TESTING                                                            SEQ 1033

 44365
 44366
 44367						PIONOF	X^
 44368
 44369					;CHECK THAT PICLR CLEARS THE REQUEST FLOP
 44370					;AND THAT AN INTERUPT DOES NOT OCCUR
 44371
 44372					BLURB1^
 44373					;LOCATIONS 40-60 CONTAIN A JSP TO A ROUTINE WHICH EXECUTES A HALT
 44374					;POINTING TO THE CHANNEL WHICH CAUSED THE REQUEST.
 44375					;OR THE CHANNEL WHICH CAUSED THE INCORRECT INTERRUPT. THE PARTICULAR
 44376					;INTERRUPT TRAP ADRESS FOR THE INTERRUPT LEVEL BEING TESTED MAY NOT
 44377					;ALWAYS HAVE A JSP TO A HALT IN CASE WE ARE TESTING FOR REAL
 44378					;INTERRUPTS ON THAT CHANNEL. IN THIS CASE ONLY THE TRAP FOR THAT
 44379					;PARTICULAR CHANNEL WILL BE LEGAL. ALL OTHERS WILL HALT.
 44380					^
 44381
 44382						TSET^
 44383			061003			%X=.			;DEFINE %X TO SAVE
 44384	061003	201 00 0 00 061003 		MOVEI	%X		;SAVE THIS PC IN CASE OF WILD TRANSFER
 44385	061004	202 00 0 00 071350 		MOVEM	TNUMB#		;BECAUSE OF PC MOD OR INTERRUPT^
 44386	061005				..0020:	CLRBTH^
 44387	061005	700 04 0 00 267760 		CLRAPR
 44388	061006	700 14 0 00 031577 		CLRPI^
 44389	061007	7 004 20 0 00 004040 		CONO	PI,REQSET+X	;SET REQ. BUT NOT ACTIVE
 44390	061010	400 00 0 00 000000 		SETZ			;THEN CLEAR REQUEST THEN SET ACTIVE
 44391	061011	7 004 20 0 00 010040 		CONO	PI,PICLR+X	;PI RESET FAILED TO CLEAR PIR FLAG.
 44392						WATINT^
 44393	061012	201 13 0 00 001000 		MOVEI	13,1000		;SET UP LOOP OF TEN TO WAIT FOR INT.
 44394	061013	367 13 0 00 061013 		SOJG	13,.		;AND WAIT^
 44395	061014	332 00 0 00 000000 		SKIPE			;MOVEI EXEC OUT OF INTERRUPT CH.?
 44396						STOP^
 44397	061015	254 04 0 00 061016 		HALT	.+1		;INSTRUCTION FAILED REPLACE
 44398	061016	254 00 0 00 061017 		JRST	.+1		;WITH JRST BACK^
 44399						TGET^
 44400	061017	200 00 0 00 071350 		MOVE	TNUMB		;GET LAST PC STORED AND CHECK TO SEE
 44401	061020	302 00 0 00 061003 		CAIE	%X		;IF ITS WHERE WE REALLY SHOULD BE
 44402						STOP2^^
 44403	061021	254 04 0 00 061022 		HALT	.+1		;HALT IF WE SHOULDN'T BE HERE
 44404	061022	254 00 0 00 061023 		JRST	.+1		;WILD TRANSFER CAUSED THIS HALT.^
 44405					^
 44406			000020			X=X_-1
 44407
 44408
 44409						PIONOF	X^
 44410
 44411					;CHECK THAT PICLR CLEARS THE REQUEST FLOP
 44412					;AND THAT AN INTERUPT DOES NOT OCCUR
 44413
 44414					BLURB1^
 44415					;LOCATIONS 40-60 CONTAIN A JSP TO A ROUTINE WHICH EXECUTES A HALT
 44416					;POINTING TO THE CHANNEL WHICH CAUSED THE REQUEST.
 44417					;OR THE CHANNEL WHICH CAUSED THE INCORRECT INTERRUPT. THE PARTICULAR
 44418					;INTERRUPT TRAP ADRESS FOR THE INTERRUPT LEVEL BEING TESTED MAY NOT
 44419					;ALWAYS HAVE A JSP TO A HALT IN CASE WE ARE TESTING FOR REAL
DFKAA PDP-10 KL10 BASIC INSTRUCTION DIAGNOSTIC (1) VER 0,2	MACRO %52(537) 09:34 31-JAN-77 PAGE 28-2
DFKAA8	MAC	25-AUG-75 14:17		BASIC PI SYSTEM TESTING                                                            SEQ 1034

 44420					;INTERRUPTS ON THAT CHANNEL. IN THIS CASE ONLY THE TRAP FOR THAT
 44421					;PARTICULAR CHANNEL WILL BE LEGAL. ALL OTHERS WILL HALT.
 44422					^
 44423
 44424						TSET^
 44425			061023			%X=.			;DEFINE %X TO SAVE
 44426	061023	201 00 0 00 061023 		MOVEI	%X		;SAVE THIS PC IN CASE OF WILD TRANSFER
 44427	061024	202 00 0 00 071350 		MOVEM	TNUMB#		;BECAUSE OF PC MOD OR INTERRUPT^
 44428	061025				..0021:	CLRBTH^
 44429	061025	700 04 0 00 267760 		CLRAPR
 44430	061026	700 14 0 00 031577 		CLRPI^
 44431	061027	7 004 20 0 00 004020 		CONO	PI,REQSET+X	;SET REQ. BUT NOT ACTIVE
 44432	061030	400 00 0 00 000000 		SETZ			;THEN CLEAR REQUEST THEN SET ACTIVE
 44433	061031	7 004 20 0 00 010020 		CONO	PI,PICLR+X	;PI RESET FAILED TO CLEAR PIR FLAG.
 44434						WATINT^
 44435	061032	201 13 0 00 001000 		MOVEI	13,1000		;SET UP LOOP OF TEN TO WAIT FOR INT.
 44436	061033	367 13 0 00 061033 		SOJG	13,.		;AND WAIT^
 44437	061034	332 00 0 00 000000 		SKIPE			;MOVEI EXEC OUT OF INTERRUPT CH.?
 44438						STOP^
 44439	061035	254 04 0 00 061036 		HALT	.+1		;INSTRUCTION FAILED REPLACE
 44440	061036	254 00 0 00 061037 		JRST	.+1		;WITH JRST BACK^
 44441						TGET^
 44442	061037	200 00 0 00 071350 		MOVE	TNUMB		;GET LAST PC STORED AND CHECK TO SEE
 44443	061040	302 00 0 00 061023 		CAIE	%X		;IF ITS WHERE WE REALLY SHOULD BE
 44444						STOP2^^
 44445	061041	254 04 0 00 061042 		HALT	.+1		;HALT IF WE SHOULDN'T BE HERE
 44446	061042	254 00 0 00 061043 		JRST	.+1		;WILD TRANSFER CAUSED THIS HALT.^
 44447					^
 44448			000010			X=X_-1
 44449
 44450
 44451						PIONOF	X^
 44452
 44453					;CHECK THAT PICLR CLEARS THE REQUEST FLOP
 44454					;AND THAT AN INTERUPT DOES NOT OCCUR
 44455
 44456					BLURB1^
 44457					;LOCATIONS 40-60 CONTAIN A JSP TO A ROUTINE WHICH EXECUTES A HALT
 44458					;POINTING TO THE CHANNEL WHICH CAUSED THE REQUEST.
 44459					;OR THE CHANNEL WHICH CAUSED THE INCORRECT INTERRUPT. THE PARTICULAR
 44460					;INTERRUPT TRAP ADRESS FOR THE INTERRUPT LEVEL BEING TESTED MAY NOT
 44461					;ALWAYS HAVE A JSP TO A HALT IN CASE WE ARE TESTING FOR REAL
 44462					;INTERRUPTS ON THAT CHANNEL. IN THIS CASE ONLY THE TRAP FOR THAT
 44463					;PARTICULAR CHANNEL WILL BE LEGAL. ALL OTHERS WILL HALT.
 44464					^
 44465
 44466						TSET^
 44467			061043			%X=.			;DEFINE %X TO SAVE
 44468	061043	201 00 0 00 061043 		MOVEI	%X		;SAVE THIS PC IN CASE OF WILD TRANSFER
 44469	061044	202 00 0 00 071350 		MOVEM	TNUMB#		;BECAUSE OF PC MOD OR INTERRUPT^
 44470	061045				..0022:	CLRBTH^
 44471	061045	700 04 0 00 267760 		CLRAPR
 44472	061046	700 14 0 00 031577 		CLRPI^
 44473	061047	7 004 20 0 00 004010 		CONO	PI,REQSET+X	;SET REQ. BUT NOT ACTIVE
 44474	061050	400 00 0 00 000000 		SETZ			;THEN CLEAR REQUEST THEN SET ACTIVE
DFKAA PDP-10 KL10 BASIC INSTRUCTION DIAGNOSTIC (1) VER 0,2	MACRO %52(537) 09:34 31-JAN-77 PAGE 28-3
DFKAA8	MAC	25-AUG-75 14:17		BASIC PI SYSTEM TESTING                                                            SEQ 1035

 44475	061051	7 004 20 0 00 010010 		CONO	PI,PICLR+X	;PI RESET FAILED TO CLEAR PIR FLAG.
 44476						WATINT^
 44477	061052	201 13 0 00 001000 		MOVEI	13,1000		;SET UP LOOP OF TEN TO WAIT FOR INT.
 44478	061053	367 13 0 00 061053 		SOJG	13,.		;AND WAIT^
 44479	061054	332 00 0 00 000000 		SKIPE			;MOVEI EXEC OUT OF INTERRUPT CH.?
 44480						STOP^
 44481	061055	254 04 0 00 061056 		HALT	.+1		;INSTRUCTION FAILED REPLACE
 44482	061056	254 00 0 00 061057 		JRST	.+1		;WITH JRST BACK^
 44483						TGET^
 44484	061057	200 00 0 00 071350 		MOVE	TNUMB		;GET LAST PC STORED AND CHECK TO SEE
 44485	061060	302 00 0 00 061043 		CAIE	%X		;IF ITS WHERE WE REALLY SHOULD BE
 44486						STOP2^^
 44487	061061	254 04 0 00 061062 		HALT	.+1		;HALT IF WE SHOULDN'T BE HERE
 44488	061062	254 00 0 00 061063 		JRST	.+1		;WILD TRANSFER CAUSED THIS HALT.^
 44489					^
 44490			000004			X=X_-1
 44491
 44492
 44493						PIONOF	X^
 44494
 44495					;CHECK THAT PICLR CLEARS THE REQUEST FLOP
 44496					;AND THAT AN INTERUPT DOES NOT OCCUR
 44497
 44498					BLURB1^
 44499					;LOCATIONS 40-60 CONTAIN A JSP TO A ROUTINE WHICH EXECUTES A HALT
 44500					;POINTING TO THE CHANNEL WHICH CAUSED THE REQUEST.
 44501					;OR THE CHANNEL WHICH CAUSED THE INCORRECT INTERRUPT. THE PARTICULAR
 44502					;INTERRUPT TRAP ADRESS FOR THE INTERRUPT LEVEL BEING TESTED MAY NOT
 44503					;ALWAYS HAVE A JSP TO A HALT IN CASE WE ARE TESTING FOR REAL
 44504					;INTERRUPTS ON THAT CHANNEL. IN THIS CASE ONLY THE TRAP FOR THAT
 44505					;PARTICULAR CHANNEL WILL BE LEGAL. ALL OTHERS WILL HALT.
 44506					^
 44507
 44508						TSET^
 44509			061063			%X=.			;DEFINE %X TO SAVE
 44510	061063	201 00 0 00 061063 		MOVEI	%X		;SAVE THIS PC IN CASE OF WILD TRANSFER
 44511	061064	202 00 0 00 071350 		MOVEM	TNUMB#		;BECAUSE OF PC MOD OR INTERRUPT^
 44512	061065				..0023:	CLRBTH^
 44513	061065	700 04 0 00 267760 		CLRAPR
 44514	061066	700 14 0 00 031577 		CLRPI^
 44515	061067	7 004 20 0 00 004004 		CONO	PI,REQSET+X	;SET REQ. BUT NOT ACTIVE
 44516	061070	400 00 0 00 000000 		SETZ			;THEN CLEAR REQUEST THEN SET ACTIVE
 44517	061071	7 004 20 0 00 010004 		CONO	PI,PICLR+X	;PI RESET FAILED TO CLEAR PIR FLAG.
 44518						WATINT^
 44519	061072	201 13 0 00 001000 		MOVEI	13,1000		;SET UP LOOP OF TEN TO WAIT FOR INT.
 44520	061073	367 13 0 00 061073 		SOJG	13,.		;AND WAIT^
 44521	061074	332 00 0 00 000000 		SKIPE			;MOVEI EXEC OUT OF INTERRUPT CH.?
 44522						STOP^
 44523	061075	254 04 0 00 061076 		HALT	.+1		;INSTRUCTION FAILED REPLACE
 44524	061076	254 00 0 00 061077 		JRST	.+1		;WITH JRST BACK^
 44525						TGET^
 44526	061077	200 00 0 00 071350 		MOVE	TNUMB		;GET LAST PC STORED AND CHECK TO SEE
 44527	061100	302 00 0 00 061063 		CAIE	%X		;IF ITS WHERE WE REALLY SHOULD BE
 44528						STOP2^^
 44529	061101	254 04 0 00 061102 		HALT	.+1		;HALT IF WE SHOULDN'T BE HERE
DFKAA PDP-10 KL10 BASIC INSTRUCTION DIAGNOSTIC (1) VER 0,2	MACRO %52(537) 09:34 31-JAN-77 PAGE 28-4
DFKAA8	MAC	25-AUG-75 14:17		BASIC PI SYSTEM TESTING                                                            SEQ 1036

 44530	061102	254 00 0 00 061103 		JRST	.+1		;WILD TRANSFER CAUSED THIS HALT.^
 44531					^
 44532			000002			X=X_-1
 44533
 44534
 44535						PIONOF	X^
 44536
 44537					;CHECK THAT PICLR CLEARS THE REQUEST FLOP
 44538					;AND THAT AN INTERUPT DOES NOT OCCUR
 44539
 44540					BLURB1^
 44541					;LOCATIONS 40-60 CONTAIN A JSP TO A ROUTINE WHICH EXECUTES A HALT
 44542					;POINTING TO THE CHANNEL WHICH CAUSED THE REQUEST.
 44543					;OR THE CHANNEL WHICH CAUSED THE INCORRECT INTERRUPT. THE PARTICULAR
 44544					;INTERRUPT TRAP ADRESS FOR THE INTERRUPT LEVEL BEING TESTED MAY NOT
 44545					;ALWAYS HAVE A JSP TO A HALT IN CASE WE ARE TESTING FOR REAL
 44546					;INTERRUPTS ON THAT CHANNEL. IN THIS CASE ONLY THE TRAP FOR THAT
 44547					;PARTICULAR CHANNEL WILL BE LEGAL. ALL OTHERS WILL HALT.
 44548					^
 44549
 44550						TSET^
 44551			061103			%X=.			;DEFINE %X TO SAVE
 44552	061103	201 00 0 00 061103 		MOVEI	%X		;SAVE THIS PC IN CASE OF WILD TRANSFER
 44553	061104	202 00 0 00 071350 		MOVEM	TNUMB#		;BECAUSE OF PC MOD OR INTERRUPT^
 44554	061105				..0024:	CLRBTH^
 44555	061105	700 04 0 00 267760 		CLRAPR
 44556	061106	700 14 0 00 031577 		CLRPI^
 44557	061107	7 004 20 0 00 004002 		CONO	PI,REQSET+X	;SET REQ. BUT NOT ACTIVE
 44558	061110	400 00 0 00 000000 		SETZ			;THEN CLEAR REQUEST THEN SET ACTIVE
 44559	061111	7 004 20 0 00 010002 		CONO	PI,PICLR+X	;PI RESET FAILED TO CLEAR PIR FLAG.
 44560						WATINT^
 44561	061112	201 13 0 00 001000 		MOVEI	13,1000		;SET UP LOOP OF TEN TO WAIT FOR INT.
 44562	061113	367 13 0 00 061113 		SOJG	13,.		;AND WAIT^
 44563	061114	332 00 0 00 000000 		SKIPE			;MOVEI EXEC OUT OF INTERRUPT CH.?
 44564						STOP^
 44565	061115	254 04 0 00 061116 		HALT	.+1		;INSTRUCTION FAILED REPLACE
 44566	061116	254 00 0 00 061117 		JRST	.+1		;WITH JRST BACK^
 44567						TGET^
 44568	061117	200 00 0 00 071350 		MOVE	TNUMB		;GET LAST PC STORED AND CHECK TO SEE
 44569	061120	302 00 0 00 061103 		CAIE	%X		;IF ITS WHERE WE REALLY SHOULD BE
 44570						STOP2^^
 44571	061121	254 04 0 00 061122 		HALT	.+1		;HALT IF WE SHOULDN'T BE HERE
 44572	061122	254 00 0 00 061123 		JRST	.+1		;WILD TRANSFER CAUSED THIS HALT.^
 44573					^
 44574			000001			X=X_-1
 44575
 44576
 44577						PIONOF	X^
 44578
 44579					;CHECK THAT PICLR CLEARS THE REQUEST FLOP
 44580					;AND THAT AN INTERUPT DOES NOT OCCUR
 44581
 44582					BLURB1^
 44583					;LOCATIONS 40-60 CONTAIN A JSP TO A ROUTINE WHICH EXECUTES A HALT
 44584					;POINTING TO THE CHANNEL WHICH CAUSED THE REQUEST.
DFKAA PDP-10 KL10 BASIC INSTRUCTION DIAGNOSTIC (1) VER 0,2	MACRO %52(537) 09:34 31-JAN-77 PAGE 28-5
DFKAA8	MAC	25-AUG-75 14:17		BASIC PI SYSTEM TESTING                                                            SEQ 1037

 44585					;OR THE CHANNEL WHICH CAUSED THE INCORRECT INTERRUPT. THE PARTICULAR
 44586					;INTERRUPT TRAP ADRESS FOR THE INTERRUPT LEVEL BEING TESTED MAY NOT
 44587					;ALWAYS HAVE A JSP TO A HALT IN CASE WE ARE TESTING FOR REAL
 44588					;INTERRUPTS ON THAT CHANNEL. IN THIS CASE ONLY THE TRAP FOR THAT
 44589					;PARTICULAR CHANNEL WILL BE LEGAL. ALL OTHERS WILL HALT.
 44590					^
 44591
 44592						TSET^
 44593			061123			%X=.			;DEFINE %X TO SAVE
 44594	061123	201 00 0 00 061123 		MOVEI	%X		;SAVE THIS PC IN CASE OF WILD TRANSFER
 44595	061124	202 00 0 00 071350 		MOVEM	TNUMB#		;BECAUSE OF PC MOD OR INTERRUPT^
 44596	061125				..0025:	CLRBTH^
 44597	061125	700 04 0 00 267760 		CLRAPR
 44598	061126	700 14 0 00 031577 		CLRPI^
 44599	061127	7 004 20 0 00 004001 		CONO	PI,REQSET+X	;SET REQ. BUT NOT ACTIVE
 44600	061130	400 00 0 00 000000 		SETZ			;THEN CLEAR REQUEST THEN SET ACTIVE
 44601	061131	7 004 20 0 00 010001 		CONO	PI,PICLR+X	;PI RESET FAILED TO CLEAR PIR FLAG.
 44602						WATINT^
 44603	061132	201 13 0 00 001000 		MOVEI	13,1000		;SET UP LOOP OF TEN TO WAIT FOR INT.
 44604	061133	367 13 0 00 061133 		SOJG	13,.		;AND WAIT^
 44605	061134	332 00 0 00 000000 		SKIPE			;MOVEI EXEC OUT OF INTERRUPT CH.?
 44606						STOP^
 44607	061135	254 04 0 00 061136 		HALT	.+1		;INSTRUCTION FAILED REPLACE
 44608	061136	254 00 0 00 061137 		JRST	.+1		;WITH JRST BACK^
 44609						TGET^
 44610	061137	200 00 0 00 071350 		MOVE	TNUMB		;GET LAST PC STORED AND CHECK TO SEE
 44611	061140	302 00 0 00 061123 		CAIE	%X		;IF ITS WHERE WE REALLY SHOULD BE
 44612						STOP2^^
 44613	061141	254 04 0 00 061142 		HALT	.+1		;HALT IF WE SHOULDN'T BE HERE
 44614	061142	254 00 0 00 061143 		JRST	.+1		;WILD TRANSFER CAUSED THIS HALT.^
 44615					^
 44616			000000			X=X_-1
 44617
 44618	061143	255 00 0 00 000000 		JFCL
DFKAA PDP-10 KL10 BASIC INSTRUCTION DIAGNOSTIC (1) VER 0,2	MACRO %52(537) 09:34 31-JAN-77 PAGE 29
DFKAA8	MAC	25-AUG-75 14:17		BASIC PI SYSTEM TESTING                                                            SEQ 1038

 44619						BLURB^
 44620					;LOCATIONS 40-60 CONTAIN A JSP TO A ROUTINE WHICH STORES
 44621					;THE CHANNEL NUMBER OF THE INTERRUPT INTO 0
 44622					;THEREFORE IF AN INTERRUPT OCCURS THEN LOCATION
 44623					;ZERO WILL CONTAIN THE NUMBER OF THE INTERRUPT CHANNEL TRAP ADRESS
 44624					^
 44625					;TEST THE SETTING AND CLEARING OF THE PI FLOPS WITHOUT CREATING INTERRUPTS
 44626					;THE TEST WILL HALT IF AN INTERRUPT OCCURS AND THE CHANNEL NUMBER OF THE
 44627					;INTERRUPT WILL BE STORED IN AC0
 44628
 44629
 44630	061144	264 00 0 00 070103 		HALTPI			;FILL INTERRUPT LOCATIONS WITH HALTS
 44631
 44632	061145				BIGPI1:	PITEST	100^
 44633
 44634					;TEST SETTING OF CHANNEL FLOP
 44635
 44636						TSET^
 44637			061145			%X=.			;DEFINE %X TO SAVE
 44638	061145	201 00 0 00 061145 		MOVEI	%X		;SAVE THIS PC IN CASE OF WILD TRANSFER
 44639	061146	202 00 0 00 071350 		MOVEM	TNUMB#		;BECAUSE OF PC MOD OR INTERRUPT^
 44640	061147				..0026:	CLRBTH^
 44641	061147	700 04 0 00 267760 		CLRAPR
 44642	061150	700 14 0 00 031577 		CLRPI^
 44643	061151	7 004 20 0 00 002100 		CONO	PI,CHNON+100	;PION FAILED TO SET
 44644	061152	7 004 34 0 00 000100 		CONSO	PI,100
 44645						STOP^
 44646	061153	254 04 0 00 061154 		HALT	.+1		;INSTRUCTION FAILED REPLACE
 44647	061154	254 00 0 00 061155 		JRST	.+1		;WITH JRST BACK^
 44648						TBOTH^
 44649						TGET^
 44650	061155	200 00 0 00 071350 		MOVE	TNUMB		;GET LAST PC STORED AND CHECK TO SEE
 44651	061156	302 00 0 00 061145 		CAIE	%X		;IF ITS WHERE WE REALLY SHOULD BE
 44652						STOP2^^
 44653	061157	254 04 0 00 061160 		HALT	.+1		;HALT IF WE SHOULDN'T BE HERE
 44654	061160	254 00 0 00 061161 		JRST	.+1		;WILD TRANSFER CAUSED THIS HALT.^
 44655
 44656						TSET^^
 44657			061161			%X=.			;DEFINE %X TO SAVE
 44658	061161	201 00 0 00 061161 		MOVEI	%X		;SAVE THIS PC IN CASE OF WILD TRANSFER
 44659	061162	202 00 0 00 071350 		MOVEM	TNUMB#		;BECAUSE OF PC MOD OR INTERRUPT^
 44660						CLRBTH^
 44661	061163	700 04 0 00 267760 		CLRAPR
 44662	061164	700 14 0 00 031577 		CLRPI^
 44663					;TEST CLEARING OF CHANNEL FLOP
 44664	061165	7 004 20 0 00 002100 		CONO	PI,CHNON+100	;CHECK PIO CLR
 44665	061166	7 004 20 0 00 001100 		CONO	PI,CHNOFF+100	;TURN OFF CHANNELS
 44666	061167	7 004 30 0 00 000100 		CONSZ	PI,100		;CHECK WHY FLOP NOT CLEAR
 44667						STOP^
 44668	061170	254 04 0 00 061171 		HALT	.+1		;INSTRUCTION FAILED REPLACE
 44669	061171	254 00 0 00 061172 		JRST	.+1		;WITH JRST BACK^
 44670						TBOTH^
 44671						TGET^
 44672	061172	200 00 0 00 071350 		MOVE	TNUMB		;GET LAST PC STORED AND CHECK TO SEE
 44673	061173	302 00 0 00 061161 		CAIE	%X		;IF ITS WHERE WE REALLY SHOULD BE
DFKAA PDP-10 KL10 BASIC INSTRUCTION DIAGNOSTIC (1) VER 0,2	MACRO %52(537) 09:34 31-JAN-77 PAGE 29-1
DFKAA8	MAC	25-AUG-75 14:17		BASIC PI SYSTEM TESTING                                                            SEQ 1039

 44674						STOP2^^
 44675	061174	254 04 0 00 061175 		HALT	.+1		;HALT IF WE SHOULDN'T BE HERE
 44676	061175	254 00 0 00 061176 		JRST	.+1		;WILD TRANSFER CAUSED THIS HALT.^
 44677
 44678						TSET^^
 44679			061176			%X=.			;DEFINE %X TO SAVE
 44680	061176	201 00 0 00 061176 		MOVEI	%X		;SAVE THIS PC IN CASE OF WILD TRANSFER
 44681	061177	202 00 0 00 071350 		MOVEM	TNUMB#		;BECAUSE OF PC MOD OR INTERRUPT^
 44682						CLRBTH^
 44683	061200	700 04 0 00 267760 		CLRAPR
 44684	061201	700 14 0 00 031577 		CLRPI^
 44685					;CHECK RESETING OF PI SYSTEM
 44686	061202	7 004 20 0 00 002100 		CONO	PI,CHNON+100	;CHECK THAT PI RESET CLEARS
 44687	061203	7 004 20 0 00 010000 		CONO	PI,PICLR	;PI SYSTEM
 44688	061204	7 004 30 0 00 000100 		CONSZ	PI,100
 44689						STOP^
 44690	061205	254 04 0 00 061206 		HALT	.+1		;INSTRUCTION FAILED REPLACE
 44691	061206	254 00 0 00 061207 		JRST	.+1		;WITH JRST BACK^
 44692						TBOTH^
 44693						TGET^
 44694	061207	200 00 0 00 071350 		MOVE	TNUMB		;GET LAST PC STORED AND CHECK TO SEE
 44695	061210	302 00 0 00 061176 		CAIE	%X		;IF ITS WHERE WE REALLY SHOULD BE
 44696						STOP2^^
 44697	061211	254 04 0 00 061212 		HALT	.+1		;HALT IF WE SHOULDN'T BE HERE
 44698	061212	254 00 0 00 061213 		JRST	.+1		;WILD TRANSFER CAUSED THIS HALT.^
 44699
 44700						TSET^^
 44701			061213			%X=.			;DEFINE %X TO SAVE
 44702	061213	201 00 0 00 061213 		MOVEI	%X		;SAVE THIS PC IN CASE OF WILD TRANSFER
 44703	061214	202 00 0 00 071350 		MOVEM	TNUMB#		;BECAUSE OF PC MOD OR INTERRUPT^
 44704						CLRBTH^
 44705	061215	700 04 0 00 267760 		CLRAPR
 44706	061216	700 14 0 00 031577 		CLRPI^
 44707					;TEST THAT CONO ONLY SETS PION
 44708	061217	7 004 20 0 00 002000 		CONO	PI,CHNON	;TEST PIO SET
 44709	061220	7 004 30 0 00 000100 		CONSZ	PI,100		;CHECK WHY CONO SET FLAGS WHITHOUT AN IOB BIT
 44710						STOP^
 44711	061221	254 04 0 00 061222 		HALT	.+1		;INSTRUCTION FAILED REPLACE
 44712	061222	254 00 0 00 061223 		JRST	.+1		;WITH JRST BACK^
 44713						TBOTH^
 44714						TGET^
 44715	061223	200 00 0 00 071350 		MOVE	TNUMB		;GET LAST PC STORED AND CHECK TO SEE
 44716	061224	302 00 0 00 061213 		CAIE	%X		;IF ITS WHERE WE REALLY SHOULD BE
 44717						STOP2^^
 44718	061225	254 04 0 00 061226 		HALT	.+1		;HALT IF WE SHOULDN'T BE HERE
 44719	061226	254 00 0 00 061227 		JRST	.+1		;WILD TRANSFER CAUSED THIS HALT.^
 44720
 44721						TSET^^
 44722			061227			%X=.			;DEFINE %X TO SAVE
 44723	061227	201 00 0 00 061227 		MOVEI	%X		;SAVE THIS PC IN CASE OF WILD TRANSFER
 44724	061230	202 00 0 00 071350 		MOVEM	TNUMB#		;BECAUSE OF PC MOD OR INTERRUPT^
 44725						CLRBTH^
 44726	061231	700 04 0 00 267760 		CLRAPR
 44727	061232	700 14 0 00 031577 		CLRPI^
 44728					;CHECK THAT CONO DOES NOT CLEAR ACTIVE
DFKAA PDP-10 KL10 BASIC INSTRUCTION DIAGNOSTIC (1) VER 0,2	MACRO %52(537) 09:34 31-JAN-77 PAGE 29-2
DFKAA8	MAC	25-AUG-75 14:17		BASIC PI SYSTEM TESTING                                                            SEQ 1040

 44729	061233	7 004 20 0 00 002100 		CONO	PI,CHNON+100	;TEST PIO CLR
 44730	061234	7 004 20 0 00 001000 		CONO	PI,CHNOFF	;MAYBE RESET OCCURED - BIT SHOULD STILL
 44731	061235	7 004 34 0 00 000100 		CONSO	PI,100		;BE SET
 44732						STOP^
 44733	061236	254 04 0 00 061237 		HALT	.+1		;INSTRUCTION FAILED REPLACE
 44734	061237	254 00 0 00 061240 		JRST	.+1		;WITH JRST BACK^
 44735						TGET^
 44736	061240	200 00 0 00 071350 		MOVE	TNUMB		;GET LAST PC STORED AND CHECK TO SEE
 44737	061241	302 00 0 00 061227 		CAIE	%X		;IF ITS WHERE WE REALLY SHOULD BE
 44738						STOP2^^
 44739	061242	254 04 0 00 061243 		HALT	.+1		;HALT IF WE SHOULDN'T BE HERE
 44740	061243	254 00 0 00 061244 		JRST	.+1		;WILD TRANSFER CAUSED THIS HALT.^
 44741					^
 44742
 44743	061244				BIGPI2:	PITEST	40^
 44744
 44745					;TEST SETTING OF CHANNEL FLOP
 44746
 44747						TSET^
 44748			061244			%X=.			;DEFINE %X TO SAVE
 44749	061244	201 00 0 00 061244 		MOVEI	%X		;SAVE THIS PC IN CASE OF WILD TRANSFER
 44750	061245	202 00 0 00 071350 		MOVEM	TNUMB#		;BECAUSE OF PC MOD OR INTERRUPT^
 44751	061246				..0027:	CLRBTH^
 44752	061246	700 04 0 00 267760 		CLRAPR
 44753	061247	700 14 0 00 031577 		CLRPI^
 44754	061250	7 004 20 0 00 002040 		CONO	PI,CHNON+40	;PION FAILED TO SET
 44755	061251	7 004 34 0 00 000040 		CONSO	PI,40
 44756						STOP^
 44757	061252	254 04 0 00 061253 		HALT	.+1		;INSTRUCTION FAILED REPLACE
 44758	061253	254 00 0 00 061254 		JRST	.+1		;WITH JRST BACK^
 44759						TBOTH^
 44760						TGET^
 44761	061254	200 00 0 00 071350 		MOVE	TNUMB		;GET LAST PC STORED AND CHECK TO SEE
 44762	061255	302 00 0 00 061244 		CAIE	%X		;IF ITS WHERE WE REALLY SHOULD BE
 44763						STOP2^^
 44764	061256	254 04 0 00 061257 		HALT	.+1		;HALT IF WE SHOULDN'T BE HERE
 44765	061257	254 00 0 00 061260 		JRST	.+1		;WILD TRANSFER CAUSED THIS HALT.^
 44766
 44767						TSET^^
 44768			061260			%X=.			;DEFINE %X TO SAVE
 44769	061260	201 00 0 00 061260 		MOVEI	%X		;SAVE THIS PC IN CASE OF WILD TRANSFER
 44770	061261	202 00 0 00 071350 		MOVEM	TNUMB#		;BECAUSE OF PC MOD OR INTERRUPT^
 44771						CLRBTH^
 44772	061262	700 04 0 00 267760 		CLRAPR
 44773	061263	700 14 0 00 031577 		CLRPI^
 44774					;TEST CLEARING OF CHANNEL FLOP
 44775	061264	7 004 20 0 00 002040 		CONO	PI,CHNON+40	;CHECK PIO CLR
 44776	061265	7 004 20 0 00 001040 		CONO	PI,CHNOFF+40	;TURN OFF CHANNELS
 44777	061266	7 004 30 0 00 000040 		CONSZ	PI,40		;CHECK WHY FLOP NOT CLEAR
 44778						STOP^
 44779	061267	254 04 0 00 061270 		HALT	.+1		;INSTRUCTION FAILED REPLACE
 44780	061270	254 00 0 00 061271 		JRST	.+1		;WITH JRST BACK^
 44781						TBOTH^
 44782						TGET^
 44783	061271	200 00 0 00 071350 		MOVE	TNUMB		;GET LAST PC STORED AND CHECK TO SEE
DFKAA PDP-10 KL10 BASIC INSTRUCTION DIAGNOSTIC (1) VER 0,2	MACRO %52(537) 09:34 31-JAN-77 PAGE 29-3
DFKAA8	MAC	25-AUG-75 14:17		BASIC PI SYSTEM TESTING                                                            SEQ 1041

 44784	061272	302 00 0 00 061260 		CAIE	%X		;IF ITS WHERE WE REALLY SHOULD BE
 44785						STOP2^^
 44786	061273	254 04 0 00 061274 		HALT	.+1		;HALT IF WE SHOULDN'T BE HERE
 44787	061274	254 00 0 00 061275 		JRST	.+1		;WILD TRANSFER CAUSED THIS HALT.^
 44788
 44789						TSET^^
 44790			061275			%X=.			;DEFINE %X TO SAVE
 44791	061275	201 00 0 00 061275 		MOVEI	%X		;SAVE THIS PC IN CASE OF WILD TRANSFER
 44792	061276	202 00 0 00 071350 		MOVEM	TNUMB#		;BECAUSE OF PC MOD OR INTERRUPT^
 44793						CLRBTH^
 44794	061277	700 04 0 00 267760 		CLRAPR
 44795	061300	700 14 0 00 031577 		CLRPI^
 44796					;CHECK RESETING OF PI SYSTEM
 44797	061301	7 004 20 0 00 002040 		CONO	PI,CHNON+40	;CHECK THAT PI RESET CLEARS
 44798	061302	7 004 20 0 00 010000 		CONO	PI,PICLR	;PI SYSTEM
 44799	061303	7 004 30 0 00 000040 		CONSZ	PI,40
 44800						STOP^
 44801	061304	254 04 0 00 061305 		HALT	.+1		;INSTRUCTION FAILED REPLACE
 44802	061305	254 00 0 00 061306 		JRST	.+1		;WITH JRST BACK^
 44803						TBOTH^
 44804						TGET^
 44805	061306	200 00 0 00 071350 		MOVE	TNUMB		;GET LAST PC STORED AND CHECK TO SEE
 44806	061307	302 00 0 00 061275 		CAIE	%X		;IF ITS WHERE WE REALLY SHOULD BE
 44807						STOP2^^
 44808	061310	254 04 0 00 061311 		HALT	.+1		;HALT IF WE SHOULDN'T BE HERE
 44809	061311	254 00 0 00 061312 		JRST	.+1		;WILD TRANSFER CAUSED THIS HALT.^
 44810
 44811						TSET^^
 44812			061312			%X=.			;DEFINE %X TO SAVE
 44813	061312	201 00 0 00 061312 		MOVEI	%X		;SAVE THIS PC IN CASE OF WILD TRANSFER
 44814	061313	202 00 0 00 071350 		MOVEM	TNUMB#		;BECAUSE OF PC MOD OR INTERRUPT^
 44815						CLRBTH^
 44816	061314	700 04 0 00 267760 		CLRAPR
 44817	061315	700 14 0 00 031577 		CLRPI^
 44818					;TEST THAT CONO ONLY SETS PION
 44819	061316	7 004 20 0 00 002000 		CONO	PI,CHNON	;TEST PIO SET
 44820	061317	7 004 30 0 00 000040 		CONSZ	PI,40		;CHECK WHY CONO SET FLAGS WHITHOUT AN IOB BIT
 44821						STOP^
 44822	061320	254 04 0 00 061321 		HALT	.+1		;INSTRUCTION FAILED REPLACE
 44823	061321	254 00 0 00 061322 		JRST	.+1		;WITH JRST BACK^
 44824						TBOTH^
 44825						TGET^
 44826	061322	200 00 0 00 071350 		MOVE	TNUMB		;GET LAST PC STORED AND CHECK TO SEE
 44827	061323	302 00 0 00 061312 		CAIE	%X		;IF ITS WHERE WE REALLY SHOULD BE
 44828						STOP2^^
 44829	061324	254 04 0 00 061325 		HALT	.+1		;HALT IF WE SHOULDN'T BE HERE
 44830	061325	254 00 0 00 061326 		JRST	.+1		;WILD TRANSFER CAUSED THIS HALT.^
 44831
 44832						TSET^^
 44833			061326			%X=.			;DEFINE %X TO SAVE
 44834	061326	201 00 0 00 061326 		MOVEI	%X		;SAVE THIS PC IN CASE OF WILD TRANSFER
 44835	061327	202 00 0 00 071350 		MOVEM	TNUMB#		;BECAUSE OF PC MOD OR INTERRUPT^
 44836						CLRBTH^
 44837	061330	700 04 0 00 267760 		CLRAPR
 44838	061331	700 14 0 00 031577 		CLRPI^
DFKAA PDP-10 KL10 BASIC INSTRUCTION DIAGNOSTIC (1) VER 0,2	MACRO %52(537) 09:34 31-JAN-77 PAGE 29-4
DFKAA8	MAC	25-AUG-75 14:17		BASIC PI SYSTEM TESTING                                                            SEQ 1042

 44839					;CHECK THAT CONO DOES NOT CLEAR ACTIVE
 44840	061332	7 004 20 0 00 002040 		CONO	PI,CHNON+40	;TEST PIO CLR
 44841	061333	7 004 20 0 00 001000 		CONO	PI,CHNOFF	;MAYBE RESET OCCURED - BIT SHOULD STILL
 44842	061334	7 004 34 0 00 000040 		CONSO	PI,40		;BE SET
 44843						STOP^
 44844	061335	254 04 0 00 061336 		HALT	.+1		;INSTRUCTION FAILED REPLACE
 44845	061336	254 00 0 00 061337 		JRST	.+1		;WITH JRST BACK^
 44846						TGET^
 44847	061337	200 00 0 00 071350 		MOVE	TNUMB		;GET LAST PC STORED AND CHECK TO SEE
 44848	061340	302 00 0 00 061326 		CAIE	%X		;IF ITS WHERE WE REALLY SHOULD BE
 44849						STOP2^^
 44850	061341	254 04 0 00 061342 		HALT	.+1		;HALT IF WE SHOULDN'T BE HERE
 44851	061342	254 00 0 00 061343 		JRST	.+1		;WILD TRANSFER CAUSED THIS HALT.^
 44852					^
 44853
 44854	061343				BIGPI3:	PITEST	20^
 44855
 44856					;TEST SETTING OF CHANNEL FLOP
 44857
 44858						TSET^
 44859			061343			%X=.			;DEFINE %X TO SAVE
 44860	061343	201 00 0 00 061343 		MOVEI	%X		;SAVE THIS PC IN CASE OF WILD TRANSFER
 44861	061344	202 00 0 00 071350 		MOVEM	TNUMB#		;BECAUSE OF PC MOD OR INTERRUPT^
 44862	061345				..0030:	CLRBTH^
 44863	061345	700 04 0 00 267760 		CLRAPR
 44864	061346	700 14 0 00 031577 		CLRPI^
 44865	061347	7 004 20 0 00 002020 		CONO	PI,CHNON+20	;PION FAILED TO SET
 44866	061350	7 004 34 0 00 000020 		CONSO	PI,20
 44867						STOP^
 44868	061351	254 04 0 00 061352 		HALT	.+1		;INSTRUCTION FAILED REPLACE
 44869	061352	254 00 0 00 061353 		JRST	.+1		;WITH JRST BACK^
 44870						TBOTH^
 44871						TGET^
 44872	061353	200 00 0 00 071350 		MOVE	TNUMB		;GET LAST PC STORED AND CHECK TO SEE
 44873	061354	302 00 0 00 061343 		CAIE	%X		;IF ITS WHERE WE REALLY SHOULD BE
 44874						STOP2^^
 44875	061355	254 04 0 00 061356 		HALT	.+1		;HALT IF WE SHOULDN'T BE HERE
 44876	061356	254 00 0 00 061357 		JRST	.+1		;WILD TRANSFER CAUSED THIS HALT.^
 44877
 44878						TSET^^
 44879			061357			%X=.			;DEFINE %X TO SAVE
 44880	061357	201 00 0 00 061357 		MOVEI	%X		;SAVE THIS PC IN CASE OF WILD TRANSFER
 44881	061360	202 00 0 00 071350 		MOVEM	TNUMB#		;BECAUSE OF PC MOD OR INTERRUPT^
 44882						CLRBTH^
 44883	061361	700 04 0 00 267760 		CLRAPR
 44884	061362	700 14 0 00 031577 		CLRPI^
 44885					;TEST CLEARING OF CHANNEL FLOP
 44886	061363	7 004 20 0 00 002020 		CONO	PI,CHNON+20	;CHECK PIO CLR
 44887	061364	7 004 20 0 00 001020 		CONO	PI,CHNOFF+20	;TURN OFF CHANNELS
 44888	061365	7 004 30 0 00 000020 		CONSZ	PI,20		;CHECK WHY FLOP NOT CLEAR
 44889						STOP^
 44890	061366	254 04 0 00 061367 		HALT	.+1		;INSTRUCTION FAILED REPLACE
 44891	061367	254 00 0 00 061370 		JRST	.+1		;WITH JRST BACK^
 44892						TBOTH^
 44893						TGET^
DFKAA PDP-10 KL10 BASIC INSTRUCTION DIAGNOSTIC (1) VER 0,2	MACRO %52(537) 09:34 31-JAN-77 PAGE 29-5
DFKAA8	MAC	25-AUG-75 14:17		BASIC PI SYSTEM TESTING                                                            SEQ 1043

 44894	061370	200 00 0 00 071350 		MOVE	TNUMB		;GET LAST PC STORED AND CHECK TO SEE
 44895	061371	302 00 0 00 061357 		CAIE	%X		;IF ITS WHERE WE REALLY SHOULD BE
 44896						STOP2^^
 44897	061372	254 04 0 00 061373 		HALT	.+1		;HALT IF WE SHOULDN'T BE HERE
 44898	061373	254 00 0 00 061374 		JRST	.+1		;WILD TRANSFER CAUSED THIS HALT.^
 44899
 44900						TSET^^
 44901			061374			%X=.			;DEFINE %X TO SAVE
 44902	061374	201 00 0 00 061374 		MOVEI	%X		;SAVE THIS PC IN CASE OF WILD TRANSFER
 44903	061375	202 00 0 00 071350 		MOVEM	TNUMB#		;BECAUSE OF PC MOD OR INTERRUPT^
 44904						CLRBTH^
 44905	061376	700 04 0 00 267760 		CLRAPR
 44906	061377	700 14 0 00 031577 		CLRPI^
 44907					;CHECK RESETING OF PI SYSTEM
 44908	061400	7 004 20 0 00 002020 		CONO	PI,CHNON+20	;CHECK THAT PI RESET CLEARS
 44909	061401	7 004 20 0 00 010000 		CONO	PI,PICLR	;PI SYSTEM
 44910	061402	7 004 30 0 00 000020 		CONSZ	PI,20
 44911						STOP^
 44912	061403	254 04 0 00 061404 		HALT	.+1		;INSTRUCTION FAILED REPLACE
 44913	061404	254 00 0 00 061405 		JRST	.+1		;WITH JRST BACK^
 44914						TBOTH^
 44915						TGET^
 44916	061405	200 00 0 00 071350 		MOVE	TNUMB		;GET LAST PC STORED AND CHECK TO SEE
 44917	061406	302 00 0 00 061374 		CAIE	%X		;IF ITS WHERE WE REALLY SHOULD BE
 44918						STOP2^^
 44919	061407	254 04 0 00 061410 		HALT	.+1		;HALT IF WE SHOULDN'T BE HERE
 44920	061410	254 00 0 00 061411 		JRST	.+1		;WILD TRANSFER CAUSED THIS HALT.^
 44921
 44922						TSET^^
 44923			061411			%X=.			;DEFINE %X TO SAVE
 44924	061411	201 00 0 00 061411 		MOVEI	%X		;SAVE THIS PC IN CASE OF WILD TRANSFER
 44925	061412	202 00 0 00 071350 		MOVEM	TNUMB#		;BECAUSE OF PC MOD OR INTERRUPT^
 44926						CLRBTH^
 44927	061413	700 04 0 00 267760 		CLRAPR
 44928	061414	700 14 0 00 031577 		CLRPI^
 44929					;TEST THAT CONO ONLY SETS PION
 44930	061415	7 004 20 0 00 002000 		CONO	PI,CHNON	;TEST PIO SET
 44931	061416	7 004 30 0 00 000020 		CONSZ	PI,20		;CHECK WHY CONO SET FLAGS WHITHOUT AN IOB BIT
 44932						STOP^
 44933	061417	254 04 0 00 061420 		HALT	.+1		;INSTRUCTION FAILED REPLACE
 44934	061420	254 00 0 00 061421 		JRST	.+1		;WITH JRST BACK^
 44935						TBOTH^
 44936						TGET^
 44937	061421	200 00 0 00 071350 		MOVE	TNUMB		;GET LAST PC STORED AND CHECK TO SEE
 44938	061422	302 00 0 00 061411 		CAIE	%X		;IF ITS WHERE WE REALLY SHOULD BE
 44939						STOP2^^
 44940	061423	254 04 0 00 061424 		HALT	.+1		;HALT IF WE SHOULDN'T BE HERE
 44941	061424	254 00 0 00 061425 		JRST	.+1		;WILD TRANSFER CAUSED THIS HALT.^
 44942
 44943						TSET^^
 44944			061425			%X=.			;DEFINE %X TO SAVE
 44945	061425	201 00 0 00 061425 		MOVEI	%X		;SAVE THIS PC IN CASE OF WILD TRANSFER
 44946	061426	202 00 0 00 071350 		MOVEM	TNUMB#		;BECAUSE OF PC MOD OR INTERRUPT^
 44947						CLRBTH^
 44948	061427	700 04 0 00 267760 		CLRAPR
DFKAA PDP-10 KL10 BASIC INSTRUCTION DIAGNOSTIC (1) VER 0,2	MACRO %52(537) 09:34 31-JAN-77 PAGE 29-6
DFKAA8	MAC	25-AUG-75 14:17		BASIC PI SYSTEM TESTING                                                            SEQ 1044

 44949	061430	700 14 0 00 031577 		CLRPI^
 44950					;CHECK THAT CONO DOES NOT CLEAR ACTIVE
 44951	061431	7 004 20 0 00 002020 		CONO	PI,CHNON+20	;TEST PIO CLR
 44952	061432	7 004 20 0 00 001000 		CONO	PI,CHNOFF	;MAYBE RESET OCCURED - BIT SHOULD STILL
 44953	061433	7 004 34 0 00 000020 		CONSO	PI,20		;BE SET
 44954						STOP^
 44955	061434	254 04 0 00 061435 		HALT	.+1		;INSTRUCTION FAILED REPLACE
 44956	061435	254 00 0 00 061436 		JRST	.+1		;WITH JRST BACK^
 44957						TGET^
 44958	061436	200 00 0 00 071350 		MOVE	TNUMB		;GET LAST PC STORED AND CHECK TO SEE
 44959	061437	302 00 0 00 061425 		CAIE	%X		;IF ITS WHERE WE REALLY SHOULD BE
 44960						STOP2^^
 44961	061440	254 04 0 00 061441 		HALT	.+1		;HALT IF WE SHOULDN'T BE HERE
 44962	061441	254 00 0 00 061442 		JRST	.+1		;WILD TRANSFER CAUSED THIS HALT.^
 44963					^
 44964
 44965	061442				BIGPI4:	PITEST	10^
 44966
 44967					;TEST SETTING OF CHANNEL FLOP
 44968
 44969						TSET^
 44970			061442			%X=.			;DEFINE %X TO SAVE
 44971	061442	201 00 0 00 061442 		MOVEI	%X		;SAVE THIS PC IN CASE OF WILD TRANSFER
 44972	061443	202 00 0 00 071350 		MOVEM	TNUMB#		;BECAUSE OF PC MOD OR INTERRUPT^
 44973	061444				..0031:	CLRBTH^
 44974	061444	700 04 0 00 267760 		CLRAPR
 44975	061445	700 14 0 00 031577 		CLRPI^
 44976	061446	7 004 20 0 00 002010 		CONO	PI,CHNON+10	;PION FAILED TO SET
 44977	061447	7 004 34 0 00 000010 		CONSO	PI,10
 44978						STOP^
 44979	061450	254 04 0 00 061451 		HALT	.+1		;INSTRUCTION FAILED REPLACE
 44980	061451	254 00 0 00 061452 		JRST	.+1		;WITH JRST BACK^
 44981						TBOTH^
 44982						TGET^
 44983	061452	200 00 0 00 071350 		MOVE	TNUMB		;GET LAST PC STORED AND CHECK TO SEE
 44984	061453	302 00 0 00 061442 		CAIE	%X		;IF ITS WHERE WE REALLY SHOULD BE
 44985						STOP2^^
 44986	061454	254 04 0 00 061455 		HALT	.+1		;HALT IF WE SHOULDN'T BE HERE
 44987	061455	254 00 0 00 061456 		JRST	.+1		;WILD TRANSFER CAUSED THIS HALT.^
 44988
 44989						TSET^^
 44990			061456			%X=.			;DEFINE %X TO SAVE
 44991	061456	201 00 0 00 061456 		MOVEI	%X		;SAVE THIS PC IN CASE OF WILD TRANSFER
 44992	061457	202 00 0 00 071350 		MOVEM	TNUMB#		;BECAUSE OF PC MOD OR INTERRUPT^
 44993						CLRBTH^
 44994	061460	700 04 0 00 267760 		CLRAPR
 44995	061461	700 14 0 00 031577 		CLRPI^
 44996					;TEST CLEARING OF CHANNEL FLOP
 44997	061462	7 004 20 0 00 002010 		CONO	PI,CHNON+10	;CHECK PIO CLR
 44998	061463	7 004 20 0 00 001010 		CONO	PI,CHNOFF+10	;TURN OFF CHANNELS
 44999	061464	7 004 30 0 00 000010 		CONSZ	PI,10		;CHECK WHY FLOP NOT CLEAR
 45000						STOP^
 45001	061465	254 04 0 00 061466 		HALT	.+1		;INSTRUCTION FAILED REPLACE
 45002	061466	254 00 0 00 061467 		JRST	.+1		;WITH JRST BACK^
 45003						TBOTH^
DFKAA PDP-10 KL10 BASIC INSTRUCTION DIAGNOSTIC (1) VER 0,2	MACRO %52(537) 09:34 31-JAN-77 PAGE 29-7
DFKAA8	MAC	25-AUG-75 14:17		BASIC PI SYSTEM TESTING                                                            SEQ 1045

 45004						TGET^
 45005	061467	200 00 0 00 071350 		MOVE	TNUMB		;GET LAST PC STORED AND CHECK TO SEE
 45006	061470	302 00 0 00 061456 		CAIE	%X		;IF ITS WHERE WE REALLY SHOULD BE
 45007						STOP2^^
 45008	061471	254 04 0 00 061472 		HALT	.+1		;HALT IF WE SHOULDN'T BE HERE
 45009	061472	254 00 0 00 061473 		JRST	.+1		;WILD TRANSFER CAUSED THIS HALT.^
 45010
 45011						TSET^^
 45012			061473			%X=.			;DEFINE %X TO SAVE
 45013	061473	201 00 0 00 061473 		MOVEI	%X		;SAVE THIS PC IN CASE OF WILD TRANSFER
 45014	061474	202 00 0 00 071350 		MOVEM	TNUMB#		;BECAUSE OF PC MOD OR INTERRUPT^
 45015						CLRBTH^
 45016	061475	700 04 0 00 267760 		CLRAPR
 45017	061476	700 14 0 00 031577 		CLRPI^
 45018					;CHECK RESETING OF PI SYSTEM
 45019	061477	7 004 20 0 00 002010 		CONO	PI,CHNON+10	;CHECK THAT PI RESET CLEARS
 45020	061500	7 004 20 0 00 010000 		CONO	PI,PICLR	;PI SYSTEM
 45021	061501	7 004 30 0 00 000010 		CONSZ	PI,10
 45022						STOP^
 45023	061502	254 04 0 00 061503 		HALT	.+1		;INSTRUCTION FAILED REPLACE
 45024	061503	254 00 0 00 061504 		JRST	.+1		;WITH JRST BACK^
 45025						TBOTH^
 45026						TGET^
 45027	061504	200 00 0 00 071350 		MOVE	TNUMB		;GET LAST PC STORED AND CHECK TO SEE
 45028	061505	302 00 0 00 061473 		CAIE	%X		;IF ITS WHERE WE REALLY SHOULD BE
 45029						STOP2^^
 45030	061506	254 04 0 00 061507 		HALT	.+1		;HALT IF WE SHOULDN'T BE HERE
 45031	061507	254 00 0 00 061510 		JRST	.+1		;WILD TRANSFER CAUSED THIS HALT.^
 45032
 45033						TSET^^
 45034			061510			%X=.			;DEFINE %X TO SAVE
 45035	061510	201 00 0 00 061510 		MOVEI	%X		;SAVE THIS PC IN CASE OF WILD TRANSFER
 45036	061511	202 00 0 00 071350 		MOVEM	TNUMB#		;BECAUSE OF PC MOD OR INTERRUPT^
 45037						CLRBTH^
 45038	061512	700 04 0 00 267760 		CLRAPR
 45039	061513	700 14 0 00 031577 		CLRPI^
 45040					;TEST THAT CONO ONLY SETS PION
 45041	061514	7 004 20 0 00 002000 		CONO	PI,CHNON	;TEST PIO SET
 45042	061515	7 004 30 0 00 000010 		CONSZ	PI,10		;CHECK WHY CONO SET FLAGS WHITHOUT AN IOB BIT
 45043						STOP^
 45044	061516	254 04 0 00 061517 		HALT	.+1		;INSTRUCTION FAILED REPLACE
 45045	061517	254 00 0 00 061520 		JRST	.+1		;WITH JRST BACK^
 45046						TBOTH^
 45047						TGET^
 45048	061520	200 00 0 00 071350 		MOVE	TNUMB		;GET LAST PC STORED AND CHECK TO SEE
 45049	061521	302 00 0 00 061510 		CAIE	%X		;IF ITS WHERE WE REALLY SHOULD BE
 45050						STOP2^^
 45051	061522	254 04 0 00 061523 		HALT	.+1		;HALT IF WE SHOULDN'T BE HERE
 45052	061523	254 00 0 00 061524 		JRST	.+1		;WILD TRANSFER CAUSED THIS HALT.^
 45053
 45054						TSET^^
 45055			061524			%X=.			;DEFINE %X TO SAVE
 45056	061524	201 00 0 00 061524 		MOVEI	%X		;SAVE THIS PC IN CASE OF WILD TRANSFER
 45057	061525	202 00 0 00 071350 		MOVEM	TNUMB#		;BECAUSE OF PC MOD OR INTERRUPT^
 45058						CLRBTH^
DFKAA PDP-10 KL10 BASIC INSTRUCTION DIAGNOSTIC (1) VER 0,2	MACRO %52(537) 09:34 31-JAN-77 PAGE 29-8
DFKAA8	MAC	25-AUG-75 14:17		BASIC PI SYSTEM TESTING                                                            SEQ 1046

 45059	061526	700 04 0 00 267760 		CLRAPR
 45060	061527	700 14 0 00 031577 		CLRPI^
 45061					;CHECK THAT CONO DOES NOT CLEAR ACTIVE
 45062	061530	7 004 20 0 00 002010 		CONO	PI,CHNON+10	;TEST PIO CLR
 45063	061531	7 004 20 0 00 001000 		CONO	PI,CHNOFF	;MAYBE RESET OCCURED - BIT SHOULD STILL
 45064	061532	7 004 34 0 00 000010 		CONSO	PI,10		;BE SET
 45065						STOP^
 45066	061533	254 04 0 00 061534 		HALT	.+1		;INSTRUCTION FAILED REPLACE
 45067	061534	254 00 0 00 061535 		JRST	.+1		;WITH JRST BACK^
 45068						TGET^
 45069	061535	200 00 0 00 071350 		MOVE	TNUMB		;GET LAST PC STORED AND CHECK TO SEE
 45070	061536	302 00 0 00 061524 		CAIE	%X		;IF ITS WHERE WE REALLY SHOULD BE
 45071						STOP2^^
 45072	061537	254 04 0 00 061540 		HALT	.+1		;HALT IF WE SHOULDN'T BE HERE
 45073	061540	254 00 0 00 061541 		JRST	.+1		;WILD TRANSFER CAUSED THIS HALT.^
 45074					^
 45075
 45076	061541				BIGPI5:	PITEST	4^
 45077
 45078					;TEST SETTING OF CHANNEL FLOP
 45079
 45080						TSET^
 45081			061541			%X=.			;DEFINE %X TO SAVE
 45082	061541	201 00 0 00 061541 		MOVEI	%X		;SAVE THIS PC IN CASE OF WILD TRANSFER
 45083	061542	202 00 0 00 071350 		MOVEM	TNUMB#		;BECAUSE OF PC MOD OR INTERRUPT^
 45084	061543				..0032:	CLRBTH^
 45085	061543	700 04 0 00 267760 		CLRAPR
 45086	061544	700 14 0 00 031577 		CLRPI^
 45087	061545	7 004 20 0 00 002004 		CONO	PI,CHNON+4	;PION FAILED TO SET
 45088	061546	7 004 34 0 00 000004 		CONSO	PI,4
 45089						STOP^
 45090	061547	254 04 0 00 061550 		HALT	.+1		;INSTRUCTION FAILED REPLACE
 45091	061550	254 00 0 00 061551 		JRST	.+1		;WITH JRST BACK^
 45092						TBOTH^
 45093						TGET^
 45094	061551	200 00 0 00 071350 		MOVE	TNUMB		;GET LAST PC STORED AND CHECK TO SEE
 45095	061552	302 00 0 00 061541 		CAIE	%X		;IF ITS WHERE WE REALLY SHOULD BE
 45096						STOP2^^
 45097	061553	254 04 0 00 061554 		HALT	.+1		;HALT IF WE SHOULDN'T BE HERE
 45098	061554	254 00 0 00 061555 		JRST	.+1		;WILD TRANSFER CAUSED THIS HALT.^
 45099
 45100						TSET^^
 45101			061555			%X=.			;DEFINE %X TO SAVE
 45102	061555	201 00 0 00 061555 		MOVEI	%X		;SAVE THIS PC IN CASE OF WILD TRANSFER
 45103	061556	202 00 0 00 071350 		MOVEM	TNUMB#		;BECAUSE OF PC MOD OR INTERRUPT^
 45104						CLRBTH^
 45105	061557	700 04 0 00 267760 		CLRAPR
 45106	061560	700 14 0 00 031577 		CLRPI^
 45107					;TEST CLEARING OF CHANNEL FLOP
 45108	061561	7 004 20 0 00 002004 		CONO	PI,CHNON+4	;CHECK PIO CLR
 45109	061562	7 004 20 0 00 001004 		CONO	PI,CHNOFF+4	;TURN OFF CHANNELS
 45110	061563	7 004 30 0 00 000004 		CONSZ	PI,4		;CHECK WHY FLOP NOT CLEAR
 45111						STOP^
 45112	061564	254 04 0 00 061565 		HALT	.+1		;INSTRUCTION FAILED REPLACE
 45113	061565	254 00 0 00 061566 		JRST	.+1		;WITH JRST BACK^
DFKAA PDP-10 KL10 BASIC INSTRUCTION DIAGNOSTIC (1) VER 0,2	MACRO %52(537) 09:34 31-JAN-77 PAGE 29-9
DFKAA8	MAC	25-AUG-75 14:17		BASIC PI SYSTEM TESTING                                                            SEQ 1047

 45114						TBOTH^
 45115						TGET^
 45116	061566	200 00 0 00 071350 		MOVE	TNUMB		;GET LAST PC STORED AND CHECK TO SEE
 45117	061567	302 00 0 00 061555 		CAIE	%X		;IF ITS WHERE WE REALLY SHOULD BE
 45118						STOP2^^
 45119	061570	254 04 0 00 061571 		HALT	.+1		;HALT IF WE SHOULDN'T BE HERE
 45120	061571	254 00 0 00 061572 		JRST	.+1		;WILD TRANSFER CAUSED THIS HALT.^
 45121
 45122						TSET^^
 45123			061572			%X=.			;DEFINE %X TO SAVE
 45124	061572	201 00 0 00 061572 		MOVEI	%X		;SAVE THIS PC IN CASE OF WILD TRANSFER
 45125	061573	202 00 0 00 071350 		MOVEM	TNUMB#		;BECAUSE OF PC MOD OR INTERRUPT^
 45126						CLRBTH^
 45127	061574	700 04 0 00 267760 		CLRAPR
 45128	061575	700 14 0 00 031577 		CLRPI^
 45129					;CHECK RESETING OF PI SYSTEM
 45130	061576	7 004 20 0 00 002004 		CONO	PI,CHNON+4	;CHECK THAT PI RESET CLEARS
 45131	061577	7 004 20 0 00 010000 		CONO	PI,PICLR	;PI SYSTEM
 45132	061600	7 004 30 0 00 000004 		CONSZ	PI,4
 45133						STOP^
 45134	061601	254 04 0 00 061602 		HALT	.+1		;INSTRUCTION FAILED REPLACE
 45135	061602	254 00 0 00 061603 		JRST	.+1		;WITH JRST BACK^
 45136						TBOTH^
 45137						TGET^
 45138	061603	200 00 0 00 071350 		MOVE	TNUMB		;GET LAST PC STORED AND CHECK TO SEE
 45139	061604	302 00 0 00 061572 		CAIE	%X		;IF ITS WHERE WE REALLY SHOULD BE
 45140						STOP2^^
 45141	061605	254 04 0 00 061606 		HALT	.+1		;HALT IF WE SHOULDN'T BE HERE
 45142	061606	254 00 0 00 061607 		JRST	.+1		;WILD TRANSFER CAUSED THIS HALT.^
 45143
 45144						TSET^^
 45145			061607			%X=.			;DEFINE %X TO SAVE
 45146	061607	201 00 0 00 061607 		MOVEI	%X		;SAVE THIS PC IN CASE OF WILD TRANSFER
 45147	061610	202 00 0 00 071350 		MOVEM	TNUMB#		;BECAUSE OF PC MOD OR INTERRUPT^
 45148						CLRBTH^
 45149	061611	700 04 0 00 267760 		CLRAPR
 45150	061612	700 14 0 00 031577 		CLRPI^
 45151					;TEST THAT CONO ONLY SETS PION
 45152	061613	7 004 20 0 00 002000 		CONO	PI,CHNON	;TEST PIO SET
 45153	061614	7 004 30 0 00 000004 		CONSZ	PI,4		;CHECK WHY CONO SET FLAGS WHITHOUT AN IOB BIT
 45154						STOP^
 45155	061615	254 04 0 00 061616 		HALT	.+1		;INSTRUCTION FAILED REPLACE
 45156	061616	254 00 0 00 061617 		JRST	.+1		;WITH JRST BACK^
 45157						TBOTH^
 45158						TGET^
 45159	061617	200 00 0 00 071350 		MOVE	TNUMB		;GET LAST PC STORED AND CHECK TO SEE
 45160	061620	302 00 0 00 061607 		CAIE	%X		;IF ITS WHERE WE REALLY SHOULD BE
 45161						STOP2^^
 45162	061621	254 04 0 00 061622 		HALT	.+1		;HALT IF WE SHOULDN'T BE HERE
 45163	061622	254 00 0 00 061623 		JRST	.+1		;WILD TRANSFER CAUSED THIS HALT.^
 45164
 45165						TSET^^
 45166			061623			%X=.			;DEFINE %X TO SAVE
 45167	061623	201 00 0 00 061623 		MOVEI	%X		;SAVE THIS PC IN CASE OF WILD TRANSFER
 45168	061624	202 00 0 00 071350 		MOVEM	TNUMB#		;BECAUSE OF PC MOD OR INTERRUPT^
DFKAA PDP-10 KL10 BASIC INSTRUCTION DIAGNOSTIC (1) VER 0,2	MACRO %52(537) 09:34 31-JAN-77 PAGE 29-10
DFKAA8	MAC	25-AUG-75 14:17		BASIC PI SYSTEM TESTING                                                            SEQ 1048

 45169						CLRBTH^
 45170	061625	700 04 0 00 267760 		CLRAPR
 45171	061626	700 14 0 00 031577 		CLRPI^
 45172					;CHECK THAT CONO DOES NOT CLEAR ACTIVE
 45173	061627	7 004 20 0 00 002004 		CONO	PI,CHNON+4	;TEST PIO CLR
 45174	061630	7 004 20 0 00 001000 		CONO	PI,CHNOFF	;MAYBE RESET OCCURED - BIT SHOULD STILL
 45175	061631	7 004 34 0 00 000004 		CONSO	PI,4		;BE SET
 45176						STOP^
 45177	061632	254 04 0 00 061633 		HALT	.+1		;INSTRUCTION FAILED REPLACE
 45178	061633	254 00 0 00 061634 		JRST	.+1		;WITH JRST BACK^
 45179						TGET^
 45180	061634	200 00 0 00 071350 		MOVE	TNUMB		;GET LAST PC STORED AND CHECK TO SEE
 45181	061635	302 00 0 00 061623 		CAIE	%X		;IF ITS WHERE WE REALLY SHOULD BE
 45182						STOP2^^
 45183	061636	254 04 0 00 061637 		HALT	.+1		;HALT IF WE SHOULDN'T BE HERE
 45184	061637	254 00 0 00 061640 		JRST	.+1		;WILD TRANSFER CAUSED THIS HALT.^
 45185					^
 45186
 45187	061640				BIGPI6:	PITEST	2^
 45188
 45189					;TEST SETTING OF CHANNEL FLOP
 45190
 45191						TSET^
 45192			061640			%X=.			;DEFINE %X TO SAVE
 45193	061640	201 00 0 00 061640 		MOVEI	%X		;SAVE THIS PC IN CASE OF WILD TRANSFER
 45194	061641	202 00 0 00 071350 		MOVEM	TNUMB#		;BECAUSE OF PC MOD OR INTERRUPT^
 45195	061642				..0033:	CLRBTH^
 45196	061642	700 04 0 00 267760 		CLRAPR
 45197	061643	700 14 0 00 031577 		CLRPI^
 45198	061644	7 004 20 0 00 002002 		CONO	PI,CHNON+2	;PION FAILED TO SET
 45199	061645	7 004 34 0 00 000002 		CONSO	PI,2
 45200						STOP^
 45201	061646	254 04 0 00 061647 		HALT	.+1		;INSTRUCTION FAILED REPLACE
 45202	061647	254 00 0 00 061650 		JRST	.+1		;WITH JRST BACK^
 45203						TBOTH^
 45204						TGET^
 45205	061650	200 00 0 00 071350 		MOVE	TNUMB		;GET LAST PC STORED AND CHECK TO SEE
 45206	061651	302 00 0 00 061640 		CAIE	%X		;IF ITS WHERE WE REALLY SHOULD BE
 45207						STOP2^^
 45208	061652	254 04 0 00 061653 		HALT	.+1		;HALT IF WE SHOULDN'T BE HERE
 45209	061653	254 00 0 00 061654 		JRST	.+1		;WILD TRANSFER CAUSED THIS HALT.^
 45210
 45211						TSET^^
 45212			061654			%X=.			;DEFINE %X TO SAVE
 45213	061654	201 00 0 00 061654 		MOVEI	%X		;SAVE THIS PC IN CASE OF WILD TRANSFER
 45214	061655	202 00 0 00 071350 		MOVEM	TNUMB#		;BECAUSE OF PC MOD OR INTERRUPT^
 45215						CLRBTH^
 45216	061656	700 04 0 00 267760 		CLRAPR
 45217	061657	700 14 0 00 031577 		CLRPI^
 45218					;TEST CLEARING OF CHANNEL FLOP
 45219	061660	7 004 20 0 00 002002 		CONO	PI,CHNON+2	;CHECK PIO CLR
 45220	061661	7 004 20 0 00 001002 		CONO	PI,CHNOFF+2	;TURN OFF CHANNELS
 45221	061662	7 004 30 0 00 000002 		CONSZ	PI,2		;CHECK WHY FLOP NOT CLEAR
 45222						STOP^
 45223	061663	254 04 0 00 061664 		HALT	.+1		;INSTRUCTION FAILED REPLACE
DFKAA PDP-10 KL10 BASIC INSTRUCTION DIAGNOSTIC (1) VER 0,2	MACRO %52(537) 09:34 31-JAN-77 PAGE 29-11
DFKAA8	MAC	25-AUG-75 14:17		BASIC PI SYSTEM TESTING                                                            SEQ 1049

 45224	061664	254 00 0 00 061665 		JRST	.+1		;WITH JRST BACK^
 45225						TBOTH^
 45226						TGET^
 45227	061665	200 00 0 00 071350 		MOVE	TNUMB		;GET LAST PC STORED AND CHECK TO SEE
 45228	061666	302 00 0 00 061654 		CAIE	%X		;IF ITS WHERE WE REALLY SHOULD BE
 45229						STOP2^^
 45230	061667	254 04 0 00 061670 		HALT	.+1		;HALT IF WE SHOULDN'T BE HERE
 45231	061670	254 00 0 00 061671 		JRST	.+1		;WILD TRANSFER CAUSED THIS HALT.^
 45232
 45233						TSET^^
 45234			061671			%X=.			;DEFINE %X TO SAVE
 45235	061671	201 00 0 00 061671 		MOVEI	%X		;SAVE THIS PC IN CASE OF WILD TRANSFER
 45236	061672	202 00 0 00 071350 		MOVEM	TNUMB#		;BECAUSE OF PC MOD OR INTERRUPT^
 45237						CLRBTH^
 45238	061673	700 04 0 00 267760 		CLRAPR
 45239	061674	700 14 0 00 031577 		CLRPI^
 45240					;CHECK RESETING OF PI SYSTEM
 45241	061675	7 004 20 0 00 002002 		CONO	PI,CHNON+2	;CHECK THAT PI RESET CLEARS
 45242	061676	7 004 20 0 00 010000 		CONO	PI,PICLR	;PI SYSTEM
 45243	061677	7 004 30 0 00 000002 		CONSZ	PI,2
 45244						STOP^
 45245	061700	254 04 0 00 061701 		HALT	.+1		;INSTRUCTION FAILED REPLACE
 45246	061701	254 00 0 00 061702 		JRST	.+1		;WITH JRST BACK^
 45247						TBOTH^
 45248						TGET^
 45249	061702	200 00 0 00 071350 		MOVE	TNUMB		;GET LAST PC STORED AND CHECK TO SEE
 45250	061703	302 00 0 00 061671 		CAIE	%X		;IF ITS WHERE WE REALLY SHOULD BE
 45251						STOP2^^
 45252	061704	254 04 0 00 061705 		HALT	.+1		;HALT IF WE SHOULDN'T BE HERE
 45253	061705	254 00 0 00 061706 		JRST	.+1		;WILD TRANSFER CAUSED THIS HALT.^
 45254
 45255						TSET^^
 45256			061706			%X=.			;DEFINE %X TO SAVE
 45257	061706	201 00 0 00 061706 		MOVEI	%X		;SAVE THIS PC IN CASE OF WILD TRANSFER
 45258	061707	202 00 0 00 071350 		MOVEM	TNUMB#		;BECAUSE OF PC MOD OR INTERRUPT^
 45259						CLRBTH^
 45260	061710	700 04 0 00 267760 		CLRAPR
 45261	061711	700 14 0 00 031577 		CLRPI^
 45262					;TEST THAT CONO ONLY SETS PION
 45263	061712	7 004 20 0 00 002000 		CONO	PI,CHNON	;TEST PIO SET
 45264	061713	7 004 30 0 00 000002 		CONSZ	PI,2		;CHECK WHY CONO SET FLAGS WHITHOUT AN IOB BIT
 45265						STOP^
 45266	061714	254 04 0 00 061715 		HALT	.+1		;INSTRUCTION FAILED REPLACE
 45267	061715	254 00 0 00 061716 		JRST	.+1		;WITH JRST BACK^
 45268						TBOTH^
 45269						TGET^
 45270	061716	200 00 0 00 071350 		MOVE	TNUMB		;GET LAST PC STORED AND CHECK TO SEE
 45271	061717	302 00 0 00 061706 		CAIE	%X		;IF ITS WHERE WE REALLY SHOULD BE
 45272						STOP2^^
 45273	061720	254 04 0 00 061721 		HALT	.+1		;HALT IF WE SHOULDN'T BE HERE
 45274	061721	254 00 0 00 061722 		JRST	.+1		;WILD TRANSFER CAUSED THIS HALT.^
 45275
 45276						TSET^^
 45277			061722			%X=.			;DEFINE %X TO SAVE
 45278	061722	201 00 0 00 061722 		MOVEI	%X		;SAVE THIS PC IN CASE OF WILD TRANSFER
DFKAA PDP-10 KL10 BASIC INSTRUCTION DIAGNOSTIC (1) VER 0,2	MACRO %52(537) 09:34 31-JAN-77 PAGE 29-12
DFKAA8	MAC	25-AUG-75 14:17		BASIC PI SYSTEM TESTING                                                            SEQ 1050

 45279	061723	202 00 0 00 071350 		MOVEM	TNUMB#		;BECAUSE OF PC MOD OR INTERRUPT^
 45280						CLRBTH^
 45281	061724	700 04 0 00 267760 		CLRAPR
 45282	061725	700 14 0 00 031577 		CLRPI^
 45283					;CHECK THAT CONO DOES NOT CLEAR ACTIVE
 45284	061726	7 004 20 0 00 002002 		CONO	PI,CHNON+2	;TEST PIO CLR
 45285	061727	7 004 20 0 00 001000 		CONO	PI,CHNOFF	;MAYBE RESET OCCURED - BIT SHOULD STILL
 45286	061730	7 004 34 0 00 000002 		CONSO	PI,2		;BE SET
 45287						STOP^
 45288	061731	254 04 0 00 061732 		HALT	.+1		;INSTRUCTION FAILED REPLACE
 45289	061732	254 00 0 00 061733 		JRST	.+1		;WITH JRST BACK^
 45290						TGET^
 45291	061733	200 00 0 00 071350 		MOVE	TNUMB		;GET LAST PC STORED AND CHECK TO SEE
 45292	061734	302 00 0 00 061722 		CAIE	%X		;IF ITS WHERE WE REALLY SHOULD BE
 45293						STOP2^^
 45294	061735	254 04 0 00 061736 		HALT	.+1		;HALT IF WE SHOULDN'T BE HERE
 45295	061736	254 00 0 00 061737 		JRST	.+1		;WILD TRANSFER CAUSED THIS HALT.^
 45296					^
 45297
 45298	061737				BIGPI7:	PITEST	1^
 45299
 45300					;TEST SETTING OF CHANNEL FLOP
 45301
 45302						TSET^
 45303			061737			%X=.			;DEFINE %X TO SAVE
 45304	061737	201 00 0 00 061737 		MOVEI	%X		;SAVE THIS PC IN CASE OF WILD TRANSFER
 45305	061740	202 00 0 00 071350 		MOVEM	TNUMB#		;BECAUSE OF PC MOD OR INTERRUPT^
 45306	061741				..0034:	CLRBTH^
 45307	061741	700 04 0 00 267760 		CLRAPR
 45308	061742	700 14 0 00 031577 		CLRPI^
 45309	061743	7 004 20 0 00 002001 		CONO	PI,CHNON+1	;PION FAILED TO SET
 45310	061744	7 004 34 0 00 000001 		CONSO	PI,1
 45311						STOP^
 45312	061745	254 04 0 00 061746 		HALT	.+1		;INSTRUCTION FAILED REPLACE
 45313	061746	254 00 0 00 061747 		JRST	.+1		;WITH JRST BACK^
 45314						TBOTH^
 45315						TGET^
 45316	061747	200 00 0 00 071350 		MOVE	TNUMB		;GET LAST PC STORED AND CHECK TO SEE
 45317	061750	302 00 0 00 061737 		CAIE	%X		;IF ITS WHERE WE REALLY SHOULD BE
 45318						STOP2^^
 45319	061751	254 04 0 00 061752 		HALT	.+1		;HALT IF WE SHOULDN'T BE HERE
 45320	061752	254 00 0 00 061753 		JRST	.+1		;WILD TRANSFER CAUSED THIS HALT.^
 45321
 45322						TSET^^
 45323			061753			%X=.			;DEFINE %X TO SAVE
 45324	061753	201 00 0 00 061753 		MOVEI	%X		;SAVE THIS PC IN CASE OF WILD TRANSFER
 45325	061754	202 00 0 00 071350 		MOVEM	TNUMB#		;BECAUSE OF PC MOD OR INTERRUPT^
 45326						CLRBTH^
 45327	061755	700 04 0 00 267760 		CLRAPR
 45328	061756	700 14 0 00 031577 		CLRPI^
 45329					;TEST CLEARING OF CHANNEL FLOP
 45330	061757	7 004 20 0 00 002001 		CONO	PI,CHNON+1	;CHECK PIO CLR
 45331	061760	7 004 20 0 00 001001 		CONO	PI,CHNOFF+1	;TURN OFF CHANNELS
 45332	061761	7 004 30 0 00 000001 		CONSZ	PI,1		;CHECK WHY FLOP NOT CLEAR
 45333						STOP^
DFKAA PDP-10 KL10 BASIC INSTRUCTION DIAGNOSTIC (1) VER 0,2	MACRO %52(537) 09:34 31-JAN-77 PAGE 29-13
DFKAA8	MAC	25-AUG-75 14:17		BASIC PI SYSTEM TESTING                                                            SEQ 1051

 45334	061762	254 04 0 00 061763 		HALT	.+1		;INSTRUCTION FAILED REPLACE
 45335	061763	254 00 0 00 061764 		JRST	.+1		;WITH JRST BACK^
 45336						TBOTH^
 45337						TGET^
 45338	061764	200 00 0 00 071350 		MOVE	TNUMB		;GET LAST PC STORED AND CHECK TO SEE
 45339	061765	302 00 0 00 061753 		CAIE	%X		;IF ITS WHERE WE REALLY SHOULD BE
 45340						STOP2^^
 45341	061766	254 04 0 00 061767 		HALT	.+1		;HALT IF WE SHOULDN'T BE HERE
 45342	061767	254 00 0 00 061770 		JRST	.+1		;WILD TRANSFER CAUSED THIS HALT.^
 45343
 45344						TSET^^
 45345			061770			%X=.			;DEFINE %X TO SAVE
 45346	061770	201 00 0 00 061770 		MOVEI	%X		;SAVE THIS PC IN CASE OF WILD TRANSFER
 45347	061771	202 00 0 00 071350 		MOVEM	TNUMB#		;BECAUSE OF PC MOD OR INTERRUPT^
 45348						CLRBTH^
 45349	061772	700 04 0 00 267760 		CLRAPR
 45350	061773	700 14 0 00 031577 		CLRPI^
 45351					;CHECK RESETING OF PI SYSTEM
 45352	061774	7 004 20 0 00 002001 		CONO	PI,CHNON+1	;CHECK THAT PI RESET CLEARS
 45353	061775	7 004 20 0 00 010000 		CONO	PI,PICLR	;PI SYSTEM
 45354	061776	7 004 30 0 00 000001 		CONSZ	PI,1
 45355						STOP^
 45356	061777	254 04 0 00 062000 		HALT	.+1		;INSTRUCTION FAILED REPLACE
 45357	062000	254 00 0 00 062001 		JRST	.+1		;WITH JRST BACK^
 45358						TBOTH^
 45359						TGET^
 45360	062001	200 00 0 00 071350 		MOVE	TNUMB		;GET LAST PC STORED AND CHECK TO SEE
 45361	062002	302 00 0 00 061770 		CAIE	%X		;IF ITS WHERE WE REALLY SHOULD BE
 45362						STOP2^^
 45363	062003	254 04 0 00 062004 		HALT	.+1		;HALT IF WE SHOULDN'T BE HERE
 45364	062004	254 00 0 00 062005 		JRST	.+1		;WILD TRANSFER CAUSED THIS HALT.^
 45365
 45366						TSET^^
 45367			062005			%X=.			;DEFINE %X TO SAVE
 45368	062005	201 00 0 00 062005 		MOVEI	%X		;SAVE THIS PC IN CASE OF WILD TRANSFER
 45369	062006	202 00 0 00 071350 		MOVEM	TNUMB#		;BECAUSE OF PC MOD OR INTERRUPT^
 45370						CLRBTH^
 45371	062007	700 04 0 00 267760 		CLRAPR
 45372	062010	700 14 0 00 031577 		CLRPI^
 45373					;TEST THAT CONO ONLY SETS PION
 45374	062011	7 004 20 0 00 002000 		CONO	PI,CHNON	;TEST PIO SET
 45375	062012	7 004 30 0 00 000001 		CONSZ	PI,1		;CHECK WHY CONO SET FLAGS WHITHOUT AN IOB BIT
 45376						STOP^
 45377	062013	254 04 0 00 062014 		HALT	.+1		;INSTRUCTION FAILED REPLACE
 45378	062014	254 00 0 00 062015 		JRST	.+1		;WITH JRST BACK^
 45379						TBOTH^
 45380						TGET^
 45381	062015	200 00 0 00 071350 		MOVE	TNUMB		;GET LAST PC STORED AND CHECK TO SEE
 45382	062016	302 00 0 00 062005 		CAIE	%X		;IF ITS WHERE WE REALLY SHOULD BE
 45383						STOP2^^
 45384	062017	254 04 0 00 062020 		HALT	.+1		;HALT IF WE SHOULDN'T BE HERE
 45385	062020	254 00 0 00 062021 		JRST	.+1		;WILD TRANSFER CAUSED THIS HALT.^
 45386
 45387						TSET^^
 45388			062021			%X=.			;DEFINE %X TO SAVE
DFKAA PDP-10 KL10 BASIC INSTRUCTION DIAGNOSTIC (1) VER 0,2	MACRO %52(537) 09:34 31-JAN-77 PAGE 29-14
DFKAA8	MAC	25-AUG-75 14:17		BASIC PI SYSTEM TESTING                                                            SEQ 1052

 45389	062021	201 00 0 00 062021 		MOVEI	%X		;SAVE THIS PC IN CASE OF WILD TRANSFER
 45390	062022	202 00 0 00 071350 		MOVEM	TNUMB#		;BECAUSE OF PC MOD OR INTERRUPT^
 45391						CLRBTH^
 45392	062023	700 04 0 00 267760 		CLRAPR
 45393	062024	700 14 0 00 031577 		CLRPI^
 45394					;CHECK THAT CONO DOES NOT CLEAR ACTIVE
 45395	062025	7 004 20 0 00 002001 		CONO	PI,CHNON+1	;TEST PIO CLR
 45396	062026	7 004 20 0 00 001000 		CONO	PI,CHNOFF	;MAYBE RESET OCCURED - BIT SHOULD STILL
 45397	062027	7 004 34 0 00 000001 		CONSO	PI,1		;BE SET
 45398						STOP^
 45399	062030	254 04 0 00 062031 		HALT	.+1		;INSTRUCTION FAILED REPLACE
 45400	062031	254 00 0 00 062032 		JRST	.+1		;WITH JRST BACK^
 45401						TGET^
 45402	062032	200 00 0 00 071350 		MOVE	TNUMB		;GET LAST PC STORED AND CHECK TO SEE
 45403	062033	302 00 0 00 062021 		CAIE	%X		;IF ITS WHERE WE REALLY SHOULD BE
 45404						STOP2^^
 45405	062034	254 04 0 00 062035 		HALT	.+1		;HALT IF WE SHOULDN'T BE HERE
 45406	062035	254 00 0 00 062036 		JRST	.+1		;WILD TRANSFER CAUSED THIS HALT.^
 45407					^
 45408
 45409	062036				BIGPIX:	PITEST	177^
 45410
 45411					;TEST SETTING OF CHANNEL FLOP
 45412
 45413						TSET^
 45414			062036			%X=.			;DEFINE %X TO SAVE
 45415	062036	201 00 0 00 062036 		MOVEI	%X		;SAVE THIS PC IN CASE OF WILD TRANSFER
 45416	062037	202 00 0 00 071350 		MOVEM	TNUMB#		;BECAUSE OF PC MOD OR INTERRUPT^
 45417	062040				..0035:	CLRBTH^
 45418	062040	700 04 0 00 267760 		CLRAPR
 45419	062041	700 14 0 00 031577 		CLRPI^
 45420	062042	7 004 20 0 00 002177 		CONO	PI,CHNON+177	;PION FAILED TO SET
 45421	062043	7 004 34 0 00 000177 		CONSO	PI,177
 45422						STOP^
 45423	062044	254 04 0 00 062045 		HALT	.+1		;INSTRUCTION FAILED REPLACE
 45424	062045	254 00 0 00 062046 		JRST	.+1		;WITH JRST BACK^
 45425						TBOTH^
 45426						TGET^
 45427	062046	200 00 0 00 071350 		MOVE	TNUMB		;GET LAST PC STORED AND CHECK TO SEE
 45428	062047	302 00 0 00 062036 		CAIE	%X		;IF ITS WHERE WE REALLY SHOULD BE
 45429						STOP2^^
 45430	062050	254 04 0 00 062051 		HALT	.+1		;HALT IF WE SHOULDN'T BE HERE
 45431	062051	254 00 0 00 062052 		JRST	.+1		;WILD TRANSFER CAUSED THIS HALT.^
 45432
 45433						TSET^^
 45434			062052			%X=.			;DEFINE %X TO SAVE
 45435	062052	201 00 0 00 062052 		MOVEI	%X		;SAVE THIS PC IN CASE OF WILD TRANSFER
 45436	062053	202 00 0 00 071350 		MOVEM	TNUMB#		;BECAUSE OF PC MOD OR INTERRUPT^
 45437						CLRBTH^
 45438	062054	700 04 0 00 267760 		CLRAPR
 45439	062055	700 14 0 00 031577 		CLRPI^
 45440					;TEST CLEARING OF CHANNEL FLOP
 45441	062056	7 004 20 0 00 002177 		CONO	PI,CHNON+177	;CHECK PIO CLR
 45442	062057	7 004 20 0 00 001177 		CONO	PI,CHNOFF+177	;TURN OFF CHANNELS
 45443	062060	7 004 30 0 00 000177 		CONSZ	PI,177		;CHECK WHY FLOP NOT CLEAR
DFKAA PDP-10 KL10 BASIC INSTRUCTION DIAGNOSTIC (1) VER 0,2	MACRO %52(537) 09:34 31-JAN-77 PAGE 29-15
DFKAA8	MAC	25-AUG-75 14:17		BASIC PI SYSTEM TESTING                                                            SEQ 1053

 45444						STOP^
 45445	062061	254 04 0 00 062062 		HALT	.+1		;INSTRUCTION FAILED REPLACE
 45446	062062	254 00 0 00 062063 		JRST	.+1		;WITH JRST BACK^
 45447						TBOTH^
 45448						TGET^
 45449	062063	200 00 0 00 071350 		MOVE	TNUMB		;GET LAST PC STORED AND CHECK TO SEE
 45450	062064	302 00 0 00 062052 		CAIE	%X		;IF ITS WHERE WE REALLY SHOULD BE
 45451						STOP2^^
 45452	062065	254 04 0 00 062066 		HALT	.+1		;HALT IF WE SHOULDN'T BE HERE
 45453	062066	254 00 0 00 062067 		JRST	.+1		;WILD TRANSFER CAUSED THIS HALT.^
 45454
 45455						TSET^^
 45456			062067			%X=.			;DEFINE %X TO SAVE
 45457	062067	201 00 0 00 062067 		MOVEI	%X		;SAVE THIS PC IN CASE OF WILD TRANSFER
 45458	062070	202 00 0 00 071350 		MOVEM	TNUMB#		;BECAUSE OF PC MOD OR INTERRUPT^
 45459						CLRBTH^
 45460	062071	700 04 0 00 267760 		CLRAPR
 45461	062072	700 14 0 00 031577 		CLRPI^
 45462					;CHECK RESETING OF PI SYSTEM
 45463	062073	7 004 20 0 00 002177 		CONO	PI,CHNON+177	;CHECK THAT PI RESET CLEARS
 45464	062074	7 004 20 0 00 010000 		CONO	PI,PICLR	;PI SYSTEM
 45465	062075	7 004 30 0 00 000177 		CONSZ	PI,177
 45466						STOP^
 45467	062076	254 04 0 00 062077 		HALT	.+1		;INSTRUCTION FAILED REPLACE
 45468	062077	254 00 0 00 062100 		JRST	.+1		;WITH JRST BACK^
 45469						TBOTH^
 45470						TGET^
 45471	062100	200 00 0 00 071350 		MOVE	TNUMB		;GET LAST PC STORED AND CHECK TO SEE
 45472	062101	302 00 0 00 062067 		CAIE	%X		;IF ITS WHERE WE REALLY SHOULD BE
 45473						STOP2^^
 45474	062102	254 04 0 00 062103 		HALT	.+1		;HALT IF WE SHOULDN'T BE HERE
 45475	062103	254 00 0 00 062104 		JRST	.+1		;WILD TRANSFER CAUSED THIS HALT.^
 45476
 45477						TSET^^
 45478			062104			%X=.			;DEFINE %X TO SAVE
 45479	062104	201 00 0 00 062104 		MOVEI	%X		;SAVE THIS PC IN CASE OF WILD TRANSFER
 45480	062105	202 00 0 00 071350 		MOVEM	TNUMB#		;BECAUSE OF PC MOD OR INTERRUPT^
 45481						CLRBTH^
 45482	062106	700 04 0 00 267760 		CLRAPR
 45483	062107	700 14 0 00 031577 		CLRPI^
 45484					;TEST THAT CONO ONLY SETS PION
 45485	062110	7 004 20 0 00 002000 		CONO	PI,CHNON	;TEST PIO SET
 45486	062111	7 004 30 0 00 000177 		CONSZ	PI,177		;CHECK WHY CONO SET FLAGS WHITHOUT AN IOB BIT
 45487						STOP^
 45488	062112	254 04 0 00 062113 		HALT	.+1		;INSTRUCTION FAILED REPLACE
 45489	062113	254 00 0 00 062114 		JRST	.+1		;WITH JRST BACK^
 45490						TBOTH^
 45491						TGET^
 45492	062114	200 00 0 00 071350 		MOVE	TNUMB		;GET LAST PC STORED AND CHECK TO SEE
 45493	062115	302 00 0 00 062104 		CAIE	%X		;IF ITS WHERE WE REALLY SHOULD BE
 45494						STOP2^^
 45495	062116	254 04 0 00 062117 		HALT	.+1		;HALT IF WE SHOULDN'T BE HERE
 45496	062117	254 00 0 00 062120 		JRST	.+1		;WILD TRANSFER CAUSED THIS HALT.^
 45497
 45498						TSET^^
DFKAA PDP-10 KL10 BASIC INSTRUCTION DIAGNOSTIC (1) VER 0,2	MACRO %52(537) 09:34 31-JAN-77 PAGE 29-16
DFKAA8	MAC	25-AUG-75 14:17		BASIC PI SYSTEM TESTING                                                            SEQ 1054

 45499			062120			%X=.			;DEFINE %X TO SAVE
 45500	062120	201 00 0 00 062120 		MOVEI	%X		;SAVE THIS PC IN CASE OF WILD TRANSFER
 45501	062121	202 00 0 00 071350 		MOVEM	TNUMB#		;BECAUSE OF PC MOD OR INTERRUPT^
 45502						CLRBTH^
 45503	062122	700 04 0 00 267760 		CLRAPR
 45504	062123	700 14 0 00 031577 		CLRPI^
 45505					;CHECK THAT CONO DOES NOT CLEAR ACTIVE
 45506	062124	7 004 20 0 00 002177 		CONO	PI,CHNON+177	;TEST PIO CLR
 45507	062125	7 004 20 0 00 001000 		CONO	PI,CHNOFF	;MAYBE RESET OCCURED - BIT SHOULD STILL
 45508	062126	7 004 34 0 00 000177 		CONSO	PI,177		;BE SET
 45509						STOP^
 45510	062127	254 04 0 00 062130 		HALT	.+1		;INSTRUCTION FAILED REPLACE
 45511	062130	254 00 0 00 062131 		JRST	.+1		;WITH JRST BACK^
 45512						TGET^
 45513	062131	200 00 0 00 071350 		MOVE	TNUMB		;GET LAST PC STORED AND CHECK TO SEE
 45514	062132	302 00 0 00 062120 		CAIE	%X		;IF ITS WHERE WE REALLY SHOULD BE
 45515						STOP2^^
 45516	062133	254 04 0 00 062134 		HALT	.+1		;HALT IF WE SHOULDN'T BE HERE
 45517	062134	254 00 0 00 062135 		JRST	.+1		;WILD TRANSFER CAUSED THIS HALT.^
 45518					^
 45519
 45520	062135				BIGPIY:	PITEST	125^
 45521
 45522					;TEST SETTING OF CHANNEL FLOP
 45523
 45524						TSET^
 45525			062135			%X=.			;DEFINE %X TO SAVE
 45526	062135	201 00 0 00 062135 		MOVEI	%X		;SAVE THIS PC IN CASE OF WILD TRANSFER
 45527	062136	202 00 0 00 071350 		MOVEM	TNUMB#		;BECAUSE OF PC MOD OR INTERRUPT^
 45528	062137				..0036:	CLRBTH^
 45529	062137	700 04 0 00 267760 		CLRAPR
 45530	062140	700 14 0 00 031577 		CLRPI^
 45531	062141	7 004 20 0 00 002125 		CONO	PI,CHNON+125	;PION FAILED TO SET
 45532	062142	7 004 34 0 00 000125 		CONSO	PI,125
 45533						STOP^
 45534	062143	254 04 0 00 062144 		HALT	.+1		;INSTRUCTION FAILED REPLACE
 45535	062144	254 00 0 00 062145 		JRST	.+1		;WITH JRST BACK^
 45536						TBOTH^
 45537						TGET^
 45538	062145	200 00 0 00 071350 		MOVE	TNUMB		;GET LAST PC STORED AND CHECK TO SEE
 45539	062146	302 00 0 00 062135 		CAIE	%X		;IF ITS WHERE WE REALLY SHOULD BE
 45540						STOP2^^
 45541	062147	254 04 0 00 062150 		HALT	.+1		;HALT IF WE SHOULDN'T BE HERE
 45542	062150	254 00 0 00 062151 		JRST	.+1		;WILD TRANSFER CAUSED THIS HALT.^
 45543
 45544						TSET^^
 45545			062151			%X=.			;DEFINE %X TO SAVE
 45546	062151	201 00 0 00 062151 		MOVEI	%X		;SAVE THIS PC IN CASE OF WILD TRANSFER
 45547	062152	202 00 0 00 071350 		MOVEM	TNUMB#		;BECAUSE OF PC MOD OR INTERRUPT^
 45548						CLRBTH^
 45549	062153	700 04 0 00 267760 		CLRAPR
 45550	062154	700 14 0 00 031577 		CLRPI^
 45551					;TEST CLEARING OF CHANNEL FLOP
 45552	062155	7 004 20 0 00 002125 		CONO	PI,CHNON+125	;CHECK PIO CLR
 45553	062156	7 004 20 0 00 001125 		CONO	PI,CHNOFF+125	;TURN OFF CHANNELS
DFKAA PDP-10 KL10 BASIC INSTRUCTION DIAGNOSTIC (1) VER 0,2	MACRO %52(537) 09:34 31-JAN-77 PAGE 29-17
DFKAA8	MAC	25-AUG-75 14:17		BASIC PI SYSTEM TESTING                                                            SEQ 1055

 45554	062157	7 004 30 0 00 000125 		CONSZ	PI,125		;CHECK WHY FLOP NOT CLEAR
 45555						STOP^
 45556	062160	254 04 0 00 062161 		HALT	.+1		;INSTRUCTION FAILED REPLACE
 45557	062161	254 00 0 00 062162 		JRST	.+1		;WITH JRST BACK^
 45558						TBOTH^
 45559						TGET^
 45560	062162	200 00 0 00 071350 		MOVE	TNUMB		;GET LAST PC STORED AND CHECK TO SEE
 45561	062163	302 00 0 00 062151 		CAIE	%X		;IF ITS WHERE WE REALLY SHOULD BE
 45562						STOP2^^
 45563	062164	254 04 0 00 062165 		HALT	.+1		;HALT IF WE SHOULDN'T BE HERE
 45564	062165	254 00 0 00 062166 		JRST	.+1		;WILD TRANSFER CAUSED THIS HALT.^
 45565
 45566						TSET^^
 45567			062166			%X=.			;DEFINE %X TO SAVE
 45568	062166	201 00 0 00 062166 		MOVEI	%X		;SAVE THIS PC IN CASE OF WILD TRANSFER
 45569	062167	202 00 0 00 071350 		MOVEM	TNUMB#		;BECAUSE OF PC MOD OR INTERRUPT^
 45570						CLRBTH^
 45571	062170	700 04 0 00 267760 		CLRAPR
 45572	062171	700 14 0 00 031577 		CLRPI^
 45573					;CHECK RESETING OF PI SYSTEM
 45574	062172	7 004 20 0 00 002125 		CONO	PI,CHNON+125	;CHECK THAT PI RESET CLEARS
 45575	062173	7 004 20 0 00 010000 		CONO	PI,PICLR	;PI SYSTEM
 45576	062174	7 004 30 0 00 000125 		CONSZ	PI,125
 45577						STOP^
 45578	062175	254 04 0 00 062176 		HALT	.+1		;INSTRUCTION FAILED REPLACE
 45579	062176	254 00 0 00 062177 		JRST	.+1		;WITH JRST BACK^
 45580						TBOTH^
 45581						TGET^
 45582	062177	200 00 0 00 071350 		MOVE	TNUMB		;GET LAST PC STORED AND CHECK TO SEE
 45583	062200	302 00 0 00 062166 		CAIE	%X		;IF ITS WHERE WE REALLY SHOULD BE
 45584						STOP2^^
 45585	062201	254 04 0 00 062202 		HALT	.+1		;HALT IF WE SHOULDN'T BE HERE
 45586	062202	254 00 0 00 062203 		JRST	.+1		;WILD TRANSFER CAUSED THIS HALT.^
 45587
 45588						TSET^^
 45589			062203			%X=.			;DEFINE %X TO SAVE
 45590	062203	201 00 0 00 062203 		MOVEI	%X		;SAVE THIS PC IN CASE OF WILD TRANSFER
 45591	062204	202 00 0 00 071350 		MOVEM	TNUMB#		;BECAUSE OF PC MOD OR INTERRUPT^
 45592						CLRBTH^
 45593	062205	700 04 0 00 267760 		CLRAPR
 45594	062206	700 14 0 00 031577 		CLRPI^
 45595					;TEST THAT CONO ONLY SETS PION
 45596	062207	7 004 20 0 00 002000 		CONO	PI,CHNON	;TEST PIO SET
 45597	062210	7 004 30 0 00 000125 		CONSZ	PI,125		;CHECK WHY CONO SET FLAGS WHITHOUT AN IOB BIT
 45598						STOP^
 45599	062211	254 04 0 00 062212 		HALT	.+1		;INSTRUCTION FAILED REPLACE
 45600	062212	254 00 0 00 062213 		JRST	.+1		;WITH JRST BACK^
 45601						TBOTH^
 45602						TGET^
 45603	062213	200 00 0 00 071350 		MOVE	TNUMB		;GET LAST PC STORED AND CHECK TO SEE
 45604	062214	302 00 0 00 062203 		CAIE	%X		;IF ITS WHERE WE REALLY SHOULD BE
 45605						STOP2^^
 45606	062215	254 04 0 00 062216 		HALT	.+1		;HALT IF WE SHOULDN'T BE HERE
 45607	062216	254 00 0 00 062217 		JRST	.+1		;WILD TRANSFER CAUSED THIS HALT.^
 45608
DFKAA PDP-10 KL10 BASIC INSTRUCTION DIAGNOSTIC (1) VER 0,2	MACRO %52(537) 09:34 31-JAN-77 PAGE 29-18
DFKAA8	MAC	25-AUG-75 14:17		BASIC PI SYSTEM TESTING                                                            SEQ 1056

 45609						TSET^^
 45610			062217			%X=.			;DEFINE %X TO SAVE
 45611	062217	201 00 0 00 062217 		MOVEI	%X		;SAVE THIS PC IN CASE OF WILD TRANSFER
 45612	062220	202 00 0 00 071350 		MOVEM	TNUMB#		;BECAUSE OF PC MOD OR INTERRUPT^
 45613						CLRBTH^
 45614	062221	700 04 0 00 267760 		CLRAPR
 45615	062222	700 14 0 00 031577 		CLRPI^
 45616					;CHECK THAT CONO DOES NOT CLEAR ACTIVE
 45617	062223	7 004 20 0 00 002125 		CONO	PI,CHNON+125	;TEST PIO CLR
 45618	062224	7 004 20 0 00 001000 		CONO	PI,CHNOFF	;MAYBE RESET OCCURED - BIT SHOULD STILL
 45619	062225	7 004 34 0 00 000125 		CONSO	PI,125		;BE SET
 45620						STOP^
 45621	062226	254 04 0 00 062227 		HALT	.+1		;INSTRUCTION FAILED REPLACE
 45622	062227	254 00 0 00 062230 		JRST	.+1		;WITH JRST BACK^
 45623						TGET^
 45624	062230	200 00 0 00 071350 		MOVE	TNUMB		;GET LAST PC STORED AND CHECK TO SEE
 45625	062231	302 00 0 00 062217 		CAIE	%X		;IF ITS WHERE WE REALLY SHOULD BE
 45626						STOP2^^
 45627	062232	254 04 0 00 062233 		HALT	.+1		;HALT IF WE SHOULDN'T BE HERE
 45628	062233	254 00 0 00 062234 		JRST	.+1		;WILD TRANSFER CAUSED THIS HALT.^
 45629					^
 45630
 45631	062234				BIGPIZ:	PITEST	52^
 45632
 45633					;TEST SETTING OF CHANNEL FLOP
 45634
 45635						TSET^
 45636			062234			%X=.			;DEFINE %X TO SAVE
 45637	062234	201 00 0 00 062234 		MOVEI	%X		;SAVE THIS PC IN CASE OF WILD TRANSFER
 45638	062235	202 00 0 00 071350 		MOVEM	TNUMB#		;BECAUSE OF PC MOD OR INTERRUPT^
 45639	062236				..0037:	CLRBTH^
 45640	062236	700 04 0 00 267760 		CLRAPR
 45641	062237	700 14 0 00 031577 		CLRPI^
 45642	062240	7 004 20 0 00 002052 		CONO	PI,CHNON+52	;PION FAILED TO SET
 45643	062241	7 004 34 0 00 000052 		CONSO	PI,52
 45644						STOP^
 45645	062242	254 04 0 00 062243 		HALT	.+1		;INSTRUCTION FAILED REPLACE
 45646	062243	254 00 0 00 062244 		JRST	.+1		;WITH JRST BACK^
 45647						TBOTH^
 45648						TGET^
 45649	062244	200 00 0 00 071350 		MOVE	TNUMB		;GET LAST PC STORED AND CHECK TO SEE
 45650	062245	302 00 0 00 062234 		CAIE	%X		;IF ITS WHERE WE REALLY SHOULD BE
 45651						STOP2^^
 45652	062246	254 04 0 00 062247 		HALT	.+1		;HALT IF WE SHOULDN'T BE HERE
 45653	062247	254 00 0 00 062250 		JRST	.+1		;WILD TRANSFER CAUSED THIS HALT.^
 45654
 45655						TSET^^
 45656			062250			%X=.			;DEFINE %X TO SAVE
 45657	062250	201 00 0 00 062250 		MOVEI	%X		;SAVE THIS PC IN CASE OF WILD TRANSFER
 45658	062251	202 00 0 00 071350 		MOVEM	TNUMB#		;BECAUSE OF PC MOD OR INTERRUPT^
 45659						CLRBTH^
 45660	062252	700 04 0 00 267760 		CLRAPR
 45661	062253	700 14 0 00 031577 		CLRPI^
 45662					;TEST CLEARING OF CHANNEL FLOP
 45663	062254	7 004 20 0 00 002052 		CONO	PI,CHNON+52	;CHECK PIO CLR
DFKAA PDP-10 KL10 BASIC INSTRUCTION DIAGNOSTIC (1) VER 0,2	MACRO %52(537) 09:34 31-JAN-77 PAGE 29-19
DFKAA8	MAC	25-AUG-75 14:17		BASIC PI SYSTEM TESTING                                                            SEQ 1057

 45664	062255	7 004 20 0 00 001052 		CONO	PI,CHNOFF+52	;TURN OFF CHANNELS
 45665	062256	7 004 30 0 00 000052 		CONSZ	PI,52		;CHECK WHY FLOP NOT CLEAR
 45666						STOP^
 45667	062257	254 04 0 00 062260 		HALT	.+1		;INSTRUCTION FAILED REPLACE
 45668	062260	254 00 0 00 062261 		JRST	.+1		;WITH JRST BACK^
 45669						TBOTH^
 45670						TGET^
 45671	062261	200 00 0 00 071350 		MOVE	TNUMB		;GET LAST PC STORED AND CHECK TO SEE
 45672	062262	302 00 0 00 062250 		CAIE	%X		;IF ITS WHERE WE REALLY SHOULD BE
 45673						STOP2^^
 45674	062263	254 04 0 00 062264 		HALT	.+1		;HALT IF WE SHOULDN'T BE HERE
 45675	062264	254 00 0 00 062265 		JRST	.+1		;WILD TRANSFER CAUSED THIS HALT.^
 45676
 45677						TSET^^
 45678			062265			%X=.			;DEFINE %X TO SAVE
 45679	062265	201 00 0 00 062265 		MOVEI	%X		;SAVE THIS PC IN CASE OF WILD TRANSFER
 45680	062266	202 00 0 00 071350 		MOVEM	TNUMB#		;BECAUSE OF PC MOD OR INTERRUPT^
 45681						CLRBTH^
 45682	062267	700 04 0 00 267760 		CLRAPR
 45683	062270	700 14 0 00 031577 		CLRPI^
 45684					;CHECK RESETING OF PI SYSTEM
 45685	062271	7 004 20 0 00 002052 		CONO	PI,CHNON+52	;CHECK THAT PI RESET CLEARS
 45686	062272	7 004 20 0 00 010000 		CONO	PI,PICLR	;PI SYSTEM
 45687	062273	7 004 30 0 00 000052 		CONSZ	PI,52
 45688						STOP^
 45689	062274	254 04 0 00 062275 		HALT	.+1		;INSTRUCTION FAILED REPLACE
 45690	062275	254 00 0 00 062276 		JRST	.+1		;WITH JRST BACK^
 45691						TBOTH^
 45692						TGET^
 45693	062276	200 00 0 00 071350 		MOVE	TNUMB		;GET LAST PC STORED AND CHECK TO SEE
 45694	062277	302 00 0 00 062265 		CAIE	%X		;IF ITS WHERE WE REALLY SHOULD BE
 45695						STOP2^^
 45696	062300	254 04 0 00 062301 		HALT	.+1		;HALT IF WE SHOULDN'T BE HERE
 45697	062301	254 00 0 00 062302 		JRST	.+1		;WILD TRANSFER CAUSED THIS HALT.^
 45698
 45699						TSET^^
 45700			062302			%X=.			;DEFINE %X TO SAVE
 45701	062302	201 00 0 00 062302 		MOVEI	%X		;SAVE THIS PC IN CASE OF WILD TRANSFER
 45702	062303	202 00 0 00 071350 		MOVEM	TNUMB#		;BECAUSE OF PC MOD OR INTERRUPT^
 45703						CLRBTH^
 45704	062304	700 04 0 00 267760 		CLRAPR
 45705	062305	700 14 0 00 031577 		CLRPI^
 45706					;TEST THAT CONO ONLY SETS PION
 45707	062306	7 004 20 0 00 002000 		CONO	PI,CHNON	;TEST PIO SET
 45708	062307	7 004 30 0 00 000052 		CONSZ	PI,52		;CHECK WHY CONO SET FLAGS WHITHOUT AN IOB BIT
 45709						STOP^
 45710	062310	254 04 0 00 062311 		HALT	.+1		;INSTRUCTION FAILED REPLACE
 45711	062311	254 00 0 00 062312 		JRST	.+1		;WITH JRST BACK^
 45712						TBOTH^
 45713						TGET^
 45714	062312	200 00 0 00 071350 		MOVE	TNUMB		;GET LAST PC STORED AND CHECK TO SEE
 45715	062313	302 00 0 00 062302 		CAIE	%X		;IF ITS WHERE WE REALLY SHOULD BE
 45716						STOP2^^
 45717	062314	254 04 0 00 062315 		HALT	.+1		;HALT IF WE SHOULDN'T BE HERE
 45718	062315	254 00 0 00 062316 		JRST	.+1		;WILD TRANSFER CAUSED THIS HALT.^
DFKAA PDP-10 KL10 BASIC INSTRUCTION DIAGNOSTIC (1) VER 0,2	MACRO %52(537) 09:34 31-JAN-77 PAGE 29-20
DFKAA8	MAC	25-AUG-75 14:17		BASIC PI SYSTEM TESTING                                                            SEQ 1058

 45719
 45720						TSET^^
 45721			062316			%X=.			;DEFINE %X TO SAVE
 45722	062316	201 00 0 00 062316 		MOVEI	%X		;SAVE THIS PC IN CASE OF WILD TRANSFER
 45723	062317	202 00 0 00 071350 		MOVEM	TNUMB#		;BECAUSE OF PC MOD OR INTERRUPT^
 45724						CLRBTH^
 45725	062320	700 04 0 00 267760 		CLRAPR
 45726	062321	700 14 0 00 031577 		CLRPI^
 45727					;CHECK THAT CONO DOES NOT CLEAR ACTIVE
 45728	062322	7 004 20 0 00 002052 		CONO	PI,CHNON+52	;TEST PIO CLR
 45729	062323	7 004 20 0 00 001000 		CONO	PI,CHNOFF	;MAYBE RESET OCCURED - BIT SHOULD STILL
 45730	062324	7 004 34 0 00 000052 		CONSO	PI,52		;BE SET
 45731						STOP^
 45732	062325	254 04 0 00 062326 		HALT	.+1		;INSTRUCTION FAILED REPLACE
 45733	062326	254 00 0 00 062327 		JRST	.+1		;WITH JRST BACK^
 45734						TGET^
 45735	062327	200 00 0 00 071350 		MOVE	TNUMB		;GET LAST PC STORED AND CHECK TO SEE
 45736	062330	302 00 0 00 062316 		CAIE	%X		;IF ITS WHERE WE REALLY SHOULD BE
 45737						STOP2^^
 45738	062331	254 04 0 00 062332 		HALT	.+1		;HALT IF WE SHOULDN'T BE HERE
 45739	062332	254 00 0 00 062333 		JRST	.+1		;WILD TRANSFER CAUSED THIS HALT.^
 45740					^
 45741
 45742	062333	255 00 0 00 000000 		JFCL
DFKAA PDP-10 KL10 BASIC INSTRUCTION DIAGNOSTIC (1) VER 0,2	MACRO %52(537) 09:34 31-JAN-77 PAGE 30
DFKAA8	MAC	25-AUG-75 14:17		BASIC PI SYSTEM TESTING                                                            SEQ 1059

 45743						BLURB^
 45744					;LOCATIONS 40-60 CONTAIN A JSP TO A ROUTINE WHICH STORES
 45745					;THE CHANNEL NUMBER OF THE INTERRUPT INTO 0
 45746					;THEREFORE IF AN INTERRUPT OCCURS THEN LOCATION
 45747					;ZERO WILL CONTAIN THE NUMBER OF THE INTERRUPT CHANNEL TRAP ADRESS
 45748					^
 45749					;CHECK THE SETTING AND CLEARING OF THE HOLD FLOPS
 45750
 45751
 45752	062334	264 00 0 00 070120 		TRPPI			;FILL INTERRUPT LOCATIONS WITH TRAPS
 45753			040000			X=40000
 45754			000100			Y=100
 45755					PIOT03:	REPEAT	7,<
 45756						PIHCLR	Y,X
 45757						X=X_-1
 45758						Y=Y_-1
 45759					>
 45760
 45761						PIHCLR	Y,X^
 45762
 45763					;CHECK THAT PICLR CLEARS THE HOLD FLOP
 45764
 45765						TSET^
 45766			062335			%X=.			;DEFINE %X TO SAVE
 45767	062335	201 00 0 00 062335 		MOVEI	%X		;SAVE THIS PC IN CASE OF WILD TRANSFER
 45768	062336	202 00 0 00 071350 		MOVEM	TNUMB#		;BECAUSE OF PC MOD OR INTERRUPT^
 45769	062337				..0040:	CLRBTH^
 45770	062337	700 04 0 00 267760 		CLRAPR
 45771	062340	700 14 0 00 031577 		CLRPI^
 45772	062341	7 004 20 0 00 004300 		CONO	PI,REQSET+PION+Y	;CAUSE INT. TO SET HOLD
 45773						WATINT^
 45774	062342	201 13 0 00 001000 		MOVEI	13,1000		;SET UP LOOP OF TEN TO WAIT FOR INT.
 45775	062343	367 13 0 00 062343 		SOJG	13,.		;AND WAIT^
 45776	062344	7 004 20 0 00 010000 		CONO	PI,PICLR	;THEN CLEAR VIA PI RESET
 45777	062345	7 004 30 0 00 040000 		CONSZ	PI,X		;HOLD FLOP FAILED TO CLEAR.
 45778						STOP^
 45779	062346	254 04 0 00 062347 		HALT	.+1		;INSTRUCTION FAILED REPLACE
 45780	062347	254 00 0 00 062350 		JRST	.+1		;WITH JRST BACK^
 45781						TGET^
 45782	062350	200 00 0 00 071350 		MOVE	TNUMB		;GET LAST PC STORED AND CHECK TO SEE
 45783	062351	302 00 0 00 062335 		CAIE	%X		;IF ITS WHERE WE REALLY SHOULD BE
 45784						STOP2^^
 45785	062352	254 04 0 00 062353 		HALT	.+1		;HALT IF WE SHOULDN'T BE HERE
 45786	062353	254 00 0 00 062354 		JRST	.+1		;WILD TRANSFER CAUSED THIS HALT.^
 45787					^
 45788			020000			X=X_-1
 45789			000040			Y=Y_-1
 45790
 45791
 45792						PIHCLR	Y,X^
 45793
 45794					;CHECK THAT PICLR CLEARS THE HOLD FLOP
 45795
 45796						TSET^
 45797			062354			%X=.			;DEFINE %X TO SAVE
DFKAA PDP-10 KL10 BASIC INSTRUCTION DIAGNOSTIC (1) VER 0,2	MACRO %52(537) 09:34 31-JAN-77 PAGE 30-1
DFKAA8	MAC	25-AUG-75 14:17		BASIC PI SYSTEM TESTING                                                            SEQ 1060

 45798	062354	201 00 0 00 062354 		MOVEI	%X		;SAVE THIS PC IN CASE OF WILD TRANSFER
 45799	062355	202 00 0 00 071350 		MOVEM	TNUMB#		;BECAUSE OF PC MOD OR INTERRUPT^
 45800	062356				..0041:	CLRBTH^
 45801	062356	700 04 0 00 267760 		CLRAPR
 45802	062357	700 14 0 00 031577 		CLRPI^
 45803	062360	7 004 20 0 00 004240 		CONO	PI,REQSET+PION+Y	;CAUSE INT. TO SET HOLD
 45804						WATINT^
 45805	062361	201 13 0 00 001000 		MOVEI	13,1000		;SET UP LOOP OF TEN TO WAIT FOR INT.
 45806	062362	367 13 0 00 062362 		SOJG	13,.		;AND WAIT^
 45807	062363	7 004 20 0 00 010000 		CONO	PI,PICLR	;THEN CLEAR VIA PI RESET
 45808	062364	7 004 30 0 00 020000 		CONSZ	PI,X		;HOLD FLOP FAILED TO CLEAR.
 45809						STOP^
 45810	062365	254 04 0 00 062366 		HALT	.+1		;INSTRUCTION FAILED REPLACE
 45811	062366	254 00 0 00 062367 		JRST	.+1		;WITH JRST BACK^
 45812						TGET^
 45813	062367	200 00 0 00 071350 		MOVE	TNUMB		;GET LAST PC STORED AND CHECK TO SEE
 45814	062370	302 00 0 00 062354 		CAIE	%X		;IF ITS WHERE WE REALLY SHOULD BE
 45815						STOP2^^
 45816	062371	254 04 0 00 062372 		HALT	.+1		;HALT IF WE SHOULDN'T BE HERE
 45817	062372	254 00 0 00 062373 		JRST	.+1		;WILD TRANSFER CAUSED THIS HALT.^
 45818					^
 45819			010000			X=X_-1
 45820			000020			Y=Y_-1
 45821
 45822
 45823						PIHCLR	Y,X^
 45824
 45825					;CHECK THAT PICLR CLEARS THE HOLD FLOP
 45826
 45827						TSET^
 45828			062373			%X=.			;DEFINE %X TO SAVE
 45829	062373	201 00 0 00 062373 		MOVEI	%X		;SAVE THIS PC IN CASE OF WILD TRANSFER
 45830	062374	202 00 0 00 071350 		MOVEM	TNUMB#		;BECAUSE OF PC MOD OR INTERRUPT^
 45831	062375				..0042:	CLRBTH^
 45832	062375	700 04 0 00 267760 		CLRAPR
 45833	062376	700 14 0 00 031577 		CLRPI^
 45834	062377	7 004 20 0 00 004220 		CONO	PI,REQSET+PION+Y	;CAUSE INT. TO SET HOLD
 45835						WATINT^
 45836	062400	201 13 0 00 001000 		MOVEI	13,1000		;SET UP LOOP OF TEN TO WAIT FOR INT.
 45837	062401	367 13 0 00 062401 		SOJG	13,.		;AND WAIT^
 45838	062402	7 004 20 0 00 010000 		CONO	PI,PICLR	;THEN CLEAR VIA PI RESET
 45839	062403	7 004 30 0 00 010000 		CONSZ	PI,X		;HOLD FLOP FAILED TO CLEAR.
 45840						STOP^
 45841	062404	254 04 0 00 062405 		HALT	.+1		;INSTRUCTION FAILED REPLACE
 45842	062405	254 00 0 00 062406 		JRST	.+1		;WITH JRST BACK^
 45843						TGET^
 45844	062406	200 00 0 00 071350 		MOVE	TNUMB		;GET LAST PC STORED AND CHECK TO SEE
 45845	062407	302 00 0 00 062373 		CAIE	%X		;IF ITS WHERE WE REALLY SHOULD BE
 45846						STOP2^^
 45847	062410	254 04 0 00 062411 		HALT	.+1		;HALT IF WE SHOULDN'T BE HERE
 45848	062411	254 00 0 00 062412 		JRST	.+1		;WILD TRANSFER CAUSED THIS HALT.^
 45849					^
 45850			004000			X=X_-1
 45851			000010			Y=Y_-1
 45852
DFKAA PDP-10 KL10 BASIC INSTRUCTION DIAGNOSTIC (1) VER 0,2	MACRO %52(537) 09:34 31-JAN-77 PAGE 30-2
DFKAA8	MAC	25-AUG-75 14:17		BASIC PI SYSTEM TESTING                                                            SEQ 1061

 45853
 45854						PIHCLR	Y,X^
 45855
 45856					;CHECK THAT PICLR CLEARS THE HOLD FLOP
 45857
 45858						TSET^
 45859			062412			%X=.			;DEFINE %X TO SAVE
 45860	062412	201 00 0 00 062412 		MOVEI	%X		;SAVE THIS PC IN CASE OF WILD TRANSFER
 45861	062413	202 00 0 00 071350 		MOVEM	TNUMB#		;BECAUSE OF PC MOD OR INTERRUPT^
 45862	062414				..0043:	CLRBTH^
 45863	062414	700 04 0 00 267760 		CLRAPR
 45864	062415	700 14 0 00 031577 		CLRPI^
 45865	062416	7 004 20 0 00 004210 		CONO	PI,REQSET+PION+Y	;CAUSE INT. TO SET HOLD
 45866						WATINT^
 45867	062417	201 13 0 00 001000 		MOVEI	13,1000		;SET UP LOOP OF TEN TO WAIT FOR INT.
 45868	062420	367 13 0 00 062420 		SOJG	13,.		;AND WAIT^
 45869	062421	7 004 20 0 00 010000 		CONO	PI,PICLR	;THEN CLEAR VIA PI RESET
 45870	062422	7 004 30 0 00 004000 		CONSZ	PI,X		;HOLD FLOP FAILED TO CLEAR.
 45871						STOP^
 45872	062423	254 04 0 00 062424 		HALT	.+1		;INSTRUCTION FAILED REPLACE
 45873	062424	254 00 0 00 062425 		JRST	.+1		;WITH JRST BACK^
 45874						TGET^
 45875	062425	200 00 0 00 071350 		MOVE	TNUMB		;GET LAST PC STORED AND CHECK TO SEE
 45876	062426	302 00 0 00 062412 		CAIE	%X		;IF ITS WHERE WE REALLY SHOULD BE
 45877						STOP2^^
 45878	062427	254 04 0 00 062430 		HALT	.+1		;HALT IF WE SHOULDN'T BE HERE
 45879	062430	254 00 0 00 062431 		JRST	.+1		;WILD TRANSFER CAUSED THIS HALT.^
 45880					^
 45881			002000			X=X_-1
 45882			000004			Y=Y_-1
 45883
 45884
 45885						PIHCLR	Y,X^
 45886
 45887					;CHECK THAT PICLR CLEARS THE HOLD FLOP
 45888
 45889						TSET^
 45890			062431			%X=.			;DEFINE %X TO SAVE
 45891	062431	201 00 0 00 062431 		MOVEI	%X		;SAVE THIS PC IN CASE OF WILD TRANSFER
 45892	062432	202 00 0 00 071350 		MOVEM	TNUMB#		;BECAUSE OF PC MOD OR INTERRUPT^
 45893	062433				..0044:	CLRBTH^
 45894	062433	700 04 0 00 267760 		CLRAPR
 45895	062434	700 14 0 00 031577 		CLRPI^
 45896	062435	7 004 20 0 00 004204 		CONO	PI,REQSET+PION+Y	;CAUSE INT. TO SET HOLD
 45897						WATINT^
 45898	062436	201 13 0 00 001000 		MOVEI	13,1000		;SET UP LOOP OF TEN TO WAIT FOR INT.
 45899	062437	367 13 0 00 062437 		SOJG	13,.		;AND WAIT^
 45900	062440	7 004 20 0 00 010000 		CONO	PI,PICLR	;THEN CLEAR VIA PI RESET
 45901	062441	7 004 30 0 00 002000 		CONSZ	PI,X		;HOLD FLOP FAILED TO CLEAR.
 45902						STOP^
 45903	062442	254 04 0 00 062443 		HALT	.+1		;INSTRUCTION FAILED REPLACE
 45904	062443	254 00 0 00 062444 		JRST	.+1		;WITH JRST BACK^
 45905						TGET^
 45906	062444	200 00 0 00 071350 		MOVE	TNUMB		;GET LAST PC STORED AND CHECK TO SEE
 45907	062445	302 00 0 00 062431 		CAIE	%X		;IF ITS WHERE WE REALLY SHOULD BE
DFKAA PDP-10 KL10 BASIC INSTRUCTION DIAGNOSTIC (1) VER 0,2	MACRO %52(537) 09:34 31-JAN-77 PAGE 30-3
DFKAA8	MAC	25-AUG-75 14:17		BASIC PI SYSTEM TESTING                                                            SEQ 1062

 45908						STOP2^^
 45909	062446	254 04 0 00 062447 		HALT	.+1		;HALT IF WE SHOULDN'T BE HERE
 45910	062447	254 00 0 00 062450 		JRST	.+1		;WILD TRANSFER CAUSED THIS HALT.^
 45911					^
 45912			001000			X=X_-1
 45913			000002			Y=Y_-1
 45914
 45915
 45916						PIHCLR	Y,X^
 45917
 45918					;CHECK THAT PICLR CLEARS THE HOLD FLOP
 45919
 45920						TSET^
 45921			062450			%X=.			;DEFINE %X TO SAVE
 45922	062450	201 00 0 00 062450 		MOVEI	%X		;SAVE THIS PC IN CASE OF WILD TRANSFER
 45923	062451	202 00 0 00 071350 		MOVEM	TNUMB#		;BECAUSE OF PC MOD OR INTERRUPT^
 45924	062452				..0045:	CLRBTH^
 45925	062452	700 04 0 00 267760 		CLRAPR
 45926	062453	700 14 0 00 031577 		CLRPI^
 45927	062454	7 004 20 0 00 004202 		CONO	PI,REQSET+PION+Y	;CAUSE INT. TO SET HOLD
 45928						WATINT^
 45929	062455	201 13 0 00 001000 		MOVEI	13,1000		;SET UP LOOP OF TEN TO WAIT FOR INT.
 45930	062456	367 13 0 00 062456 		SOJG	13,.		;AND WAIT^
 45931	062457	7 004 20 0 00 010000 		CONO	PI,PICLR	;THEN CLEAR VIA PI RESET
 45932	062460	7 004 30 0 00 001000 		CONSZ	PI,X		;HOLD FLOP FAILED TO CLEAR.
 45933						STOP^
 45934	062461	254 04 0 00 062462 		HALT	.+1		;INSTRUCTION FAILED REPLACE
 45935	062462	254 00 0 00 062463 		JRST	.+1		;WITH JRST BACK^
 45936						TGET^
 45937	062463	200 00 0 00 071350 		MOVE	TNUMB		;GET LAST PC STORED AND CHECK TO SEE
 45938	062464	302 00 0 00 062450 		CAIE	%X		;IF ITS WHERE WE REALLY SHOULD BE
 45939						STOP2^^
 45940	062465	254 04 0 00 062466 		HALT	.+1		;HALT IF WE SHOULDN'T BE HERE
 45941	062466	254 00 0 00 062467 		JRST	.+1		;WILD TRANSFER CAUSED THIS HALT.^
 45942					^
 45943			000400			X=X_-1
 45944			000001			Y=Y_-1
 45945
 45946
 45947						PIHCLR	Y,X^
 45948
 45949					;CHECK THAT PICLR CLEARS THE HOLD FLOP
 45950
 45951						TSET^
 45952			062467			%X=.			;DEFINE %X TO SAVE
 45953	062467	201 00 0 00 062467 		MOVEI	%X		;SAVE THIS PC IN CASE OF WILD TRANSFER
 45954	062470	202 00 0 00 071350 		MOVEM	TNUMB#		;BECAUSE OF PC MOD OR INTERRUPT^
 45955	062471				..0046:	CLRBTH^
 45956	062471	700 04 0 00 267760 		CLRAPR
 45957	062472	700 14 0 00 031577 		CLRPI^
 45958	062473	7 004 20 0 00 004201 		CONO	PI,REQSET+PION+Y	;CAUSE INT. TO SET HOLD
 45959						WATINT^
 45960	062474	201 13 0 00 001000 		MOVEI	13,1000		;SET UP LOOP OF TEN TO WAIT FOR INT.
 45961	062475	367 13 0 00 062475 		SOJG	13,.		;AND WAIT^
 45962	062476	7 004 20 0 00 010000 		CONO	PI,PICLR	;THEN CLEAR VIA PI RESET
DFKAA PDP-10 KL10 BASIC INSTRUCTION DIAGNOSTIC (1) VER 0,2	MACRO %52(537) 09:34 31-JAN-77 PAGE 30-4
DFKAA8	MAC	25-AUG-75 14:17		BASIC PI SYSTEM TESTING                                                            SEQ 1063

 45963	062477	7 004 30 0 00 000400 		CONSZ	PI,X		;HOLD FLOP FAILED TO CLEAR.
 45964						STOP^
 45965	062500	254 04 0 00 062501 		HALT	.+1		;INSTRUCTION FAILED REPLACE
 45966	062501	254 00 0 00 062502 		JRST	.+1		;WITH JRST BACK^
 45967						TGET^
 45968	062502	200 00 0 00 071350 		MOVE	TNUMB		;GET LAST PC STORED AND CHECK TO SEE
 45969	062503	302 00 0 00 062467 		CAIE	%X		;IF ITS WHERE WE REALLY SHOULD BE
 45970						STOP2^^
 45971	062504	254 04 0 00 062505 		HALT	.+1		;HALT IF WE SHOULDN'T BE HERE
 45972	062505	254 00 0 00 062506 		JRST	.+1		;WILD TRANSFER CAUSED THIS HALT.^
 45973					^
 45974			000200			X=X_-1
 45975			000000			Y=Y_-1
 45976
 45977	062506	255 00 0 00 000000 		JFCL
DFKAA PDP-10 KL10 BASIC INSTRUCTION DIAGNOSTIC (1) VER 0,2	MACRO %52(537) 09:34 31-JAN-77 PAGE 31
DFKAA8	MAC	25-AUG-75 14:17		INTERRUPT TESTING WITH REAL INTERRUPTS                                             SEQ 1064

 45978					SUBTTL	INTERRUPT TESTING WITH REAL INTERRUPTS
 45979
 45980					;TEST PROPER TRAP WHEN INTERRUPTING ON EACH CHANNEL
 45981					;VIA THE CACHE SWEEP DONE FLAG--ILLEGAL TRAPS HALT--NO TRAP LOOPS
 45982					;THE HALT POINTS TO THE CHANNEL THOUGHT TO BE REQUESTED
 45983
 45984					;IF PI HANGS OR BLOWS UP THEN SEE 'PII' PRINT OR 'PIR' PRINT
 45985	062507	264 00 0 00 070103 		HALTPI			;FILL INTERRUPT LOCATIONS WITH HALTS
 45986	062510	700 14 0 00 031577 		CLRPI
 45987	062511	700 04 0 00 267760 		CLRAPR
 45988	062512	200 00 0 00 071067 		MOVE	[JSP UUO]	;SET TRAP TO HALT
 45989	062513	202 00 0 00 000041 		MOVEM	41		;IN THE UUO TRAP LOCATION
 45990	062514	200 00 0 00 071070 		MOVE	[JSP TRP0A]	;SET PROPER RECOVERY INST.
 45991	062515	202 00 0 00 000042 		MOVEM	42		;INTO CH1 TRAP
 45992	062516	7 004 20 0 00 002300 		CONO	PI,2300		;TURN ON CHAN1
 45993	062517	7 000 20 0 00 112001 		CONO	APR,LENXER!LSNXER!LAPRP1	;CAUSE CACHE SWP DONE AND CHAN
 45994						STUCK^
 45995						WATINT^
 45996	062520	201 13 0 00 001000 		MOVEI	13,1000		;SET UP LOOP OF TEN TO WAIT FOR INT.
 45997	062521	367 13 0 00 062521 		SOJG	13,.		;AND WAIT^
 45998	062522	254 00 0 00 062522 		JRST	.		;LOOOP ON SELF^
 45999	062523				TRP0A:	TRPCHK^
 46000	062523	332 00 0 00 030042 	..0047:	SKIPE	MONFLG		;RESET FLAGS IF IN MONITOR
 46001	062524	254 00 0 00 062527 		JRST	.+3		;DONT IF STAND ALONE
 46002	062525	254 02 1 00 062526 		JRSTF	@.+1		;AND RESTORE THEM
 46003	062526	000000	062527			USERF,.+1		;NEW PC AND FLAGS^
 46004	062527	700 14 0 00 031577 		CLRPI
 46005	062530	700 04 0 00 267760 		CLRAPR
 46006					;IF PI HANGS OR BLOWS UP THEN SEE 'PII' PRINT OR 'PIR' PRINT
 46007					;TEST PROPER TRAP WHEN INTERRUPTING ON EACH CHANNEL
 46008					;VIA THE CACHE SWEEP DONE FLAG--ILLEGAL TRAPS HALT--NO TRAP LOOPS
 46009					;THE HALT POINTS TO THE CHANNEL THOUGHT TO BE REQUESTED
 46010	062531	264 00 0 00 070103 		HALTPI			;FILL INTERRUPT LOCATIONS WITH HALTS
 46011	062532	200 00 0 00 071071 		MOVE	[JSP TRP1A]	;RECOVERY INSTRUCTION INTO
 46012	062533	202 00 0 00 000044 		MOVEM	44		;PROPER CHAN TRAP (2)
 46013	062534	7 004 20 0 00 002240 		CONO	PI,2240		;TURN CHAN 2 ON
 46014	062535	7 000 20 0 00 114002 		CONO	APR,LESBER!LSSBER!LAPRP2	;CAUSE CACHE SWP DONE AND CHN ON
 46015						STUCK^
 46016						WATINT^
 46017	062536	201 13 0 00 001000 		MOVEI	13,1000		;SET UP LOOP OF TEN TO WAIT FOR INT.
 46018	062537	367 13 0 00 062537 		SOJG	13,.		;AND WAIT^
 46019	062540	254 00 0 00 062540 		JRST	.		;LOOOP ON SELF^
 46020	062541				TRP1A:	TRPCHK^
 46021	062541	332 00 0 00 030042 	..0050:	SKIPE	MONFLG		;RESET FLAGS IF IN MONITOR
 46022	062542	254 00 0 00 062545 		JRST	.+3		;DONT IF STAND ALONE
 46023	062543	254 02 1 00 062544 		JRSTF	@.+1		;AND RESTORE THEM
 46024	062544	000000	062545			USERF,.+1		;NEW PC AND FLAGS^
 46025	062545	700 14 0 00 031577 		CLRPI
 46026	062546	700 04 0 00 267760 		CLRAPR
 46027					;IF PI HANGS OR BLOWS UP THEN SEE 'PII' PRINT OR 'PIR' PRINT
 46028					;TEST PROPER TRAP WHEN INTERRUPTING ON EACH CHANNEL
 46029					;VIA THE CACHE SWEEP DONE FLAG--ILLEGAL TRAPS HALT--NO TRAP LOOPS
 46030					;THE HALT POINTS TO THE CHANNEL THOUGHT TO BE REQUESTED
 46031	062547	264 00 0 00 070103 		HALTPI			;FILL INTERRUPT LOCATIONS WITH HALTS
 46032	062550	200 00 0 00 071072 		MOVE	[JSP TRP2A]	;RECOVERY INSTRUCTION
DFKAA PDP-10 KL10 BASIC INSTRUCTION DIAGNOSTIC (1) VER 0,2	MACRO %52(537) 09:34 31-JAN-77 PAGE 31-1
DFKAA8	MAC	25-AUG-75 14:17		INTERRUPT TESTING WITH REAL INTERRUPTS                                             SEQ 1065

 46033	062551	202 00 0 00 000046 		MOVEM	46		;INTO PROPER CHAN TRAP (3)
 46034	062552	7 004 20 0 00 002220 		CONO	PI,2220		;TURN CHAN 3 ON
 46035	062553	7 000 20 0 00 110403 		CONO	APR,LEPAER!LSPAER!LAPRP3		;CAUSE CACHE SWP DONE AND CHAN ON
 46036						STUCK^
 46037						WATINT^
 46038	062554	201 13 0 00 001000 		MOVEI	13,1000		;SET UP LOOP OF TEN TO WAIT FOR INT.
 46039	062555	367 13 0 00 062555 		SOJG	13,.		;AND WAIT^
 46040	062556	254 00 0 00 062556 		JRST	.		;LOOOP ON SELF^
DFKAA PDP-10 KL10 BASIC INSTRUCTION DIAGNOSTIC (1) VER 0,2	MACRO %52(537) 09:34 31-JAN-77 PAGE 32
DFKAA8	MAC	25-AUG-75 14:17		INTERRUPT TESTING WITH REAL INTERRUPTS                                             SEQ 1066

 46041	062557				TRP2A:	TRPCHK^
 46042	062557	332 00 0 00 030042 	..0051:	SKIPE	MONFLG		;RESET FLAGS IF IN MONITOR
 46043	062560	254 00 0 00 062563 		JRST	.+3		;DONT IF STAND ALONE
 46044	062561	254 02 1 00 062562 		JRSTF	@.+1		;AND RESTORE THEM
 46045	062562	000000	062563			USERF,.+1		;NEW PC AND FLAGS^
 46046	062563	700 14 0 00 031577 		CLRPI
 46047	062564	700 04 0 00 267760 		CLRAPR
 46048					;IF PI HANGS OR BLOWS UP THEN SEE 'PII' PRINT OR 'PIR' PRINT
 46049					;TEST PROPER TRAP WHEN INTERRUPTING ON EACH CHANNEL
 46050					;VIA THE CACHE SWEEP DONE FLAG--ILLEGAL TRAPS HALT--NO TRAP LOOPS
 46051					;THE HALT POINTS TO THE CHANNEL THOUGHT TO BE REQUESTED
 46052	062565	264 00 0 00 070103 		HALTPI			;FILL INTERRUPT LOCATIONS WITH HALTS
 46053	062566	200 00 0 00 071073 		MOVE	[JSP TRP3A]	;RECOVERY INSTRUCTION
 46054	062567	202 00 0 00 000050 		MOVEM	50		;INTO PROPER CHAN TRAP (4)
 46055	062570	7 004 20 0 00 002210 		CONO	PI,2210		;TURN CHAN 4 ON
 46056	062571	7 000 20 0 00 111004 		CONO	APR,LEIOPF!LSIOPF!LAPRP4		;CAUSE CACHE SWP DONE AND CHAN ON
 46057						STUCK^
 46058						WATINT^
 46059	062572	201 13 0 00 001000 		MOVEI	13,1000		;SET UP LOOP OF TEN TO WAIT FOR INT.
 46060	062573	367 13 0 00 062573 		SOJG	13,.		;AND WAIT^
 46061	062574	254 00 0 00 062574 		JRST	.		;LOOOP ON SELF^
 46062	062575				TRP3A:	TRPCHK^
 46063	062575	332 00 0 00 030042 	..0052:	SKIPE	MONFLG		;RESET FLAGS IF IN MONITOR
 46064	062576	254 00 0 00 062601 		JRST	.+3		;DONT IF STAND ALONE
 46065	062577	254 02 1 00 062600 		JRSTF	@.+1		;AND RESTORE THEM
 46066	062600	000000	062601			USERF,.+1		;NEW PC AND FLAGS^
 46067	062601	700 14 0 00 031577 		CLRPI
 46068	062602	700 04 0 00 267760 		CLRAPR
 46069					;IF PI HANGS OR BLOWS UP THEN SEE 'PII' PRINT OR 'PIR' PRINT
 46070					;TEST PROPER TRAP WHEN INTERRUPTING ON EACH CHANNEL
 46071					;VIA THE CACHE SWEEP DONE FLAG--ILLEGAL TRAPS HALT--NO TRAP LOOPS
 46072					;THE HALT POINTS TO THE CHANNEL THOUGHT TO BE REQUESTED
 46073	062603	264 00 0 00 070103 		HALTPI			;FILL INTERRUPT LOCATIONS WITH HALTS
 46074	062604	200 00 0 00 071074 		MOVE	[JSP TRP4A]	;RECOVERY INSTRUCTION
 46075	062605	202 00 0 00 000052 		MOVEM	52		;INTO PROPER CHAN TRAP (5)
 46076	062606	7 004 20 0 00 002204 		CONO	PI,2204		;TURN CHAN 5 ON
 46077	062607	7 000 20 0 00 110025 		CONO	APR,LECASD!LSCASD!LAPRP5		;CAUSE CACHE SWP DONE AND CHAN ON
 46078						STUCK^
 46079						WATINT^
 46080	062610	201 13 0 00 001000 		MOVEI	13,1000		;SET UP LOOP OF TEN TO WAIT FOR INT.
 46081	062611	367 13 0 00 062611 		SOJG	13,.		;AND WAIT^
 46082	062612	254 00 0 00 062612 		JRST	.		;LOOOP ON SELF^
DFKAA PDP-10 KL10 BASIC INSTRUCTION DIAGNOSTIC (1) VER 0,2	MACRO %52(537) 09:34 31-JAN-77 PAGE 33
DFKAA8	MAC	25-AUG-75 14:17		INTERRUPT TESTING WITH REAL INTERRUPTS                                             SEQ 1067

 46083	062613				TRP4A:	TRPCHK^
 46084	062613	332 00 0 00 030042 	..0053:	SKIPE	MONFLG		;RESET FLAGS IF IN MONITOR
 46085	062614	254 00 0 00 062617 		JRST	.+3		;DONT IF STAND ALONE
 46086	062615	254 02 1 00 062616 		JRSTF	@.+1		;AND RESTORE THEM
 46087	062616	000000	062617			USERF,.+1		;NEW PC AND FLAGS^
 46088	062617	700 14 0 00 031577 		CLRPI
 46089	062620	700 04 0 00 267760 		CLRAPR
 46090
 46091					;IF PI HANGS OR BLOWS UP THEN SEE 'PII' PRINT OR 'PIR' PRINT
 46092					;TEST PROPER TRAP WHEN INTERRUPTING ON EACH CHANNEL
 46093					;VIA THE CACHE SWEEP DONE FLAG--ILLEGAL TRAPS HALT--NO TRAP LOOPS
 46094					;THE HALT POINTS TO THE CHANNEL THOUGHT TO BE REQUESTED
 46095	062621	264 00 0 00 070103 		HALTPI			;FILL INTERRUPT LOCATIONS WITH HALTS
 46096	062622	200 00 0 00 071075 		MOVE	[JSP TRP5A]	;RECOVERY INSTRUCTION
 46097	062623	202 00 0 00 000054 		MOVEM	54		;INTO PROPER CHAN TRAP (6)
 46098	062624	7 004 20 0 00 002202 		CONO	PI,2202		;TURN CHAN 6 ON
 46099	062625	7 000 20 0 00 110046 		CONO	APR,LEPWRF!LSPWRF!LAPRP6	;CAUSE CACHE SWP DONE AND CHAN ON
 46100						STUCK^
 46101						WATINT^
 46102	062626	201 13 0 00 001000 		MOVEI	13,1000		;SET UP LOOP OF TEN TO WAIT FOR INT.
 46103	062627	367 13 0 00 062627 		SOJG	13,.		;AND WAIT^
 46104	062630	254 00 0 00 062630 		JRST	.		;LOOOP ON SELF^
 46105	062631				TRP5A:	TRPCHK^
 46106	062631	332 00 0 00 030042 	..0054:	SKIPE	MONFLG		;RESET FLAGS IF IN MONITOR
 46107	062632	254 00 0 00 062635 		JRST	.+3		;DONT IF STAND ALONE
 46108	062633	254 02 1 00 062634 		JRSTF	@.+1		;AND RESTORE THEM
 46109	062634	000000	062635			USERF,.+1		;NEW PC AND FLAGS^
 46110	062635	700 14 0 00 031577 		CLRPI
 46111	062636	700 04 0 00 267760 		CLRAPR
 46112					;IF PI HANGS OR BLOWS UP THEN SEE 'PII' PRINT OR 'PIR' PRINT
 46113					;TEST PROPER TRAP WHEN INTERRUPTING ON EACH CHANNEL
 46114					;VIA THE CACHE SWEEP DONE FLAG--ILLEGAL TRAPS HALT--NO TRAP LOOPS
 46115					;THE HALT POINTS TO THE CHANNEL THOUGHT TO BE REQUESTED
 46116	062637	264 00 0 00 070103 		HALTPI			;FILL INTERRUPT LOCATIONS WITH HALTS
 46117	062640	200 00 0 00 071076 		MOVE	[JSP TRP6A]	;RECOVERY INSTRUCTION
 46118	062641	202 00 0 00 000056 		MOVEM	56		;INTO PROPER CHAN TRAP (7)
 46119	062642	7 004 20 0 00 002201 		CONO	PI,2201		;TURN CHAN 7 ON
 46120	062643	7 000 20 0 00 110047 		CONO	APR,LEPWRF!LSPWRF!LAPRP7	;CASUE CACHE SWP DONE AND CHAN ON
 46121						STUCK^
 46122						WATINT^
 46123	062644	201 13 0 00 001000 		MOVEI	13,1000		;SET UP LOOP OF TEN TO WAIT FOR INT.
 46124	062645	367 13 0 00 062645 		SOJG	13,.		;AND WAIT^
 46125	062646	254 00 0 00 062646 		JRST	.		;LOOOP ON SELF^
 46126	062647				TRP6A:	TRPCHK^
 46127	062647	332 00 0 00 030042 	..0055:	SKIPE	MONFLG		;RESET FLAGS IF IN MONITOR
 46128	062650	254 00 0 00 062653 		JRST	.+3		;DONT IF STAND ALONE
 46129	062651	254 02 1 00 062652 		JRSTF	@.+1		;AND RESTORE THEM
 46130	062652	000000	062653			USERF,.+1		;NEW PC AND FLAGS^
 46131
 46132	062653	255 00 0 00 000000 		JFCL
DFKAA PDP-10 KL10 BASIC INSTRUCTION DIAGNOSTIC (1) VER 0,2	MACRO %52(537) 09:34 31-JAN-77 PAGE 34
DFKAA8	MAC	25-AUG-75 14:17		INTERNAL INTERRUPT REQUEST TESTING                                                 SEQ 1068

 46133					SUBTTL	INTERNAL INTERRUPT REQUEST TESTING
 46134
 46135					;CHECK THE ABILITY TO GENERATE PI REQUESTS VIA PROGRAM REQEST ON ALL
 46136					;CHANNELS.
 46137	062654	265 00 0 00 062655 		JSP	.+1		;GET FLAGS
 46138	062655	603 00 0 00 010000 		TLNE	USERF		;USER MODE BIT ON
 46139	062656	254 00 0 00 062657 		JRST	.+1		;DONT DO IF USER MODE!
 46140
 46141						CLRBTH^
 46142	062657	700 04 0 00 267760 		CLRAPR
 46143	062660	700 14 0 00 031577 		CLRPI^
 46144					;IF PI HANGS OR BLOWS UP THEN SEE 'PII' PRINT OR 'PIR' PRINT
 46145	062661	264 00 0 00 070103 		HALTPI			;FILL INTERRUPT LOCATIONS WITH HALTS
 46146	062662	700 14 0 00 031577 		CLRPI
 46147	062663	700 04 0 00 267760 		CLRAPR
 46148						TRAP	<JSP CKI01>,42^
 46149	062664	200 00 0 00 071077 		MOVE	[JSP CKI01]		;SET TRAP INSTRUCTION
 46150	062665	202 00 0 00 000042 		MOVEM	42		;INTO TRAP LOCATION^
 46151	062666	7 004 20 0 00 006300 		CONO	PI,6300		;INTERRUPT ON CH1
 46152						STUCK^
 46153						WATINT^
 46154	062667	201 13 0 00 001000 		MOVEI	13,1000		;SET UP LOOP OF TEN TO WAIT FOR INT.
 46155	062670	367 13 0 00 062670 		SOJG	13,.		;AND WAIT^
 46156	062671	254 00 0 00 062671 		JRST	.		;LOOOP ON SELF^
 46157					;IF PI HANGS OR BLOWS UP THEN SEE 'PII' PRINT OR 'PIR' PRINT
 46158	062672				CKI01:	TRPCHK^
 46159	062672	332 00 0 00 030042 	..0056:	SKIPE	MONFLG		;RESET FLAGS IF IN MONITOR
 46160	062673	254 00 0 00 062676 		JRST	.+3		;DONT IF STAND ALONE
 46161	062674	254 02 1 00 062675 		JRSTF	@.+1		;AND RESTORE THEM
 46162	062675	000000	062676			USERF,.+1		;NEW PC AND FLAGS^
 46163	062676	264 00 0 00 070103 		HALTPI			;FILL INTERRUPT LOCATIONS WITH HALTS
 46164	062677	700 14 0 00 031577 		CLRPI
 46165	062700	700 04 0 00 267760 		CLRAPR
 46166						TRAP	<JSP CKI02>,44^
 46167	062701	200 00 0 00 071100 		MOVE	[JSP CKI02]		;SET TRAP INSTRUCTION
 46168	062702	202 00 0 00 000044 		MOVEM	44		;INTO TRAP LOCATION^
 46169	062703	7 004 20 0 00 006240 		CONO	PI,6240		;INTERRUPT ON CH 2
 46170						STUCK^
 46171						WATINT^
 46172	062704	201 13 0 00 001000 		MOVEI	13,1000		;SET UP LOOP OF TEN TO WAIT FOR INT.
 46173	062705	367 13 0 00 062705 		SOJG	13,.		;AND WAIT^
 46174	062706	254 00 0 00 062706 		JRST	.		;LOOOP ON SELF^
 46175					;IF PI HANGS OR BLOWS UP THEN SEE 'PII' PRINT OR 'PIR' PRINT
DFKAA PDP-10 KL10 BASIC INSTRUCTION DIAGNOSTIC (1) VER 0,2	MACRO %52(537) 09:34 31-JAN-77 PAGE 35
DFKAA8	MAC	25-AUG-75 14:17		INTERNAL INTERRUPT REQUEST TESTING                                                 SEQ 1069

 46176	062707				CKI02:	TRPCHK^
 46177	062707	332 00 0 00 030042 	..0057:	SKIPE	MONFLG		;RESET FLAGS IF IN MONITOR
 46178	062710	254 00 0 00 062713 		JRST	.+3		;DONT IF STAND ALONE
 46179	062711	254 02 1 00 062712 		JRSTF	@.+1		;AND RESTORE THEM
 46180	062712	000000	062713			USERF,.+1		;NEW PC AND FLAGS^
 46181	062713	264 00 0 00 070103 		HALTPI			;FILL INTERRUPT LOCATIONS WITH HALTS
 46182	062714	700 14 0 00 031577 		CLRPI
 46183	062715	700 04 0 00 267760 		CLRAPR
 46184						TRAP	<JSP CKI03>,46^
 46185	062716	200 00 0 00 071101 		MOVE	[JSP CKI03]		;SET TRAP INSTRUCTION
 46186	062717	202 00 0 00 000046 		MOVEM	46		;INTO TRAP LOCATION^
 46187	062720	7 004 20 0 00 006220 		CONO	PI,6220		;INTERRUPT ON CH 3
 46188						STUCK^
 46189						WATINT^
 46190	062721	201 13 0 00 001000 		MOVEI	13,1000		;SET UP LOOP OF TEN TO WAIT FOR INT.
 46191	062722	367 13 0 00 062722 		SOJG	13,.		;AND WAIT^
 46192	062723	254 00 0 00 062723 		JRST	.		;LOOOP ON SELF^
 46193					;IF PI HANGS OR BLOWS UP THEN SEE 'PII' PRINT OR 'PIR' PRINT
DFKAA PDP-10 KL10 BASIC INSTRUCTION DIAGNOSTIC (1) VER 0,2	MACRO %52(537) 09:34 31-JAN-77 PAGE 36
DFKAA8	MAC	25-AUG-75 14:17		INTERNAL INTERRUPT REQUEST TESTING                                                 SEQ 1070

 46194	062724				CKI03:	TRPCHK^
 46195	062724	332 00 0 00 030042 	..0060:	SKIPE	MONFLG		;RESET FLAGS IF IN MONITOR
 46196	062725	254 00 0 00 062730 		JRST	.+3		;DONT IF STAND ALONE
 46197	062726	254 02 1 00 062727 		JRSTF	@.+1		;AND RESTORE THEM
 46198	062727	000000	062730			USERF,.+1		;NEW PC AND FLAGS^
 46199	062730	264 00 0 00 070103 		HALTPI			;FILL INTERRUPT LOCATIONS WITH HALTS
 46200	062731	700 14 0 00 031577 		CLRPI
 46201	062732	700 04 0 00 267760 		CLRAPR
 46202						TRAP	<JSP CKI04>,50^
 46203	062733	200 00 0 00 071102 		MOVE	[JSP CKI04]		;SET TRAP INSTRUCTION
 46204	062734	202 00 0 00 000050 		MOVEM	50		;INTO TRAP LOCATION^
 46205	062735	7 004 20 0 00 006210 		CONO	PI,6210		;INTERRUPT ON CH 4
 46206						STUCK^
 46207						WATINT^
 46208	062736	201 13 0 00 001000 		MOVEI	13,1000		;SET UP LOOP OF TEN TO WAIT FOR INT.
 46209	062737	367 13 0 00 062737 		SOJG	13,.		;AND WAIT^
 46210	062740	254 00 0 00 062740 		JRST	.		;LOOOP ON SELF^
 46211					;IF PI HANGS OR BLOWS UP THEN SEE 'PII' PRINT OR 'PIR' PRINT
 46212	062741				CKI04:	TRPCHK^
 46213	062741	332 00 0 00 030042 	..0061:	SKIPE	MONFLG		;RESET FLAGS IF IN MONITOR
 46214	062742	254 00 0 00 062745 		JRST	.+3		;DONT IF STAND ALONE
 46215	062743	254 02 1 00 062744 		JRSTF	@.+1		;AND RESTORE THEM
 46216	062744	000000	062745			USERF,.+1		;NEW PC AND FLAGS^
 46217	062745	264 00 0 00 070103 		HALTPI			;FILL INTERRUPT LOCATIONS WITH HALTS
 46218	062746	700 14 0 00 031577 		CLRPI
 46219	062747	700 04 0 00 267760 		CLRAPR
 46220						TRAP	<JSP CKI05>,52^
 46221	062750	200 00 0 00 071103 		MOVE	[JSP CKI05]		;SET TRAP INSTRUCTION
 46222	062751	202 00 0 00 000052 		MOVEM	52		;INTO TRAP LOCATION^
 46223	062752	7 004 20 0 00 006204 		CONO	PI,6204		;INTERRUPT ON CH 5
 46224						STUCK^
 46225						WATINT^
 46226	062753	201 13 0 00 001000 		MOVEI	13,1000		;SET UP LOOP OF TEN TO WAIT FOR INT.
 46227	062754	367 13 0 00 062754 		SOJG	13,.		;AND WAIT^
 46228	062755	254 00 0 00 062755 		JRST	.		;LOOOP ON SELF^
 46229					;IF PI HANGS OR BLOWS UP THEN SEE 'PII' PRINT OR 'PIR' PRINT
 46230	062756				CKI05:	TRPCHK^
 46231	062756	332 00 0 00 030042 	..0062:	SKIPE	MONFLG		;RESET FLAGS IF IN MONITOR
 46232	062757	254 00 0 00 062762 		JRST	.+3		;DONT IF STAND ALONE
 46233	062760	254 02 1 00 062761 		JRSTF	@.+1		;AND RESTORE THEM
 46234	062761	000000	062762			USERF,.+1		;NEW PC AND FLAGS^
 46235	062762	264 00 0 00 070103 		HALTPI			;FILL INTERRUPT LOCATIONS WITH HALTS
 46236	062763	700 14 0 00 031577 		CLRPI
 46237	062764	700 04 0 00 267760 		CLRAPR
 46238						TRAP	<JSP CKI06>,54^
 46239	062765	200 00 0 00 071104 		MOVE	[JSP CKI06]		;SET TRAP INSTRUCTION
 46240	062766	202 00 0 00 000054 		MOVEM	54		;INTO TRAP LOCATION^
 46241	062767	7 004 20 0 00 006202 		CONO	PI,6202		;INTERRUPT ON CH 6
 46242						STUCK^
 46243						WATINT^
 46244	062770	201 13 0 00 001000 		MOVEI	13,1000		;SET UP LOOP OF TEN TO WAIT FOR INT.
 46245	062771	367 13 0 00 062771 		SOJG	13,.		;AND WAIT^
 46246	062772	254 00 0 00 062772 		JRST	.		;LOOOP ON SELF^
 46247					;IF PI HANGS OR BLOWS UP THEN SEE 'PII' PRINT OR 'PIR' PRINT
DFKAA PDP-10 KL10 BASIC INSTRUCTION DIAGNOSTIC (1) VER 0,2	MACRO %52(537) 09:34 31-JAN-77 PAGE 37
DFKAA8	MAC	25-AUG-75 14:17		INTERNAL INTERRUPT REQUEST TESTING                                                 SEQ 1071

 46248	062773				CKI06:	TRPCHK^
 46249	062773	332 00 0 00 030042 	..0063:	SKIPE	MONFLG		;RESET FLAGS IF IN MONITOR
 46250	062774	254 00 0 00 062777 		JRST	.+3		;DONT IF STAND ALONE
 46251	062775	254 02 1 00 062776 		JRSTF	@.+1		;AND RESTORE THEM
 46252	062776	000000	062777			USERF,.+1		;NEW PC AND FLAGS^
 46253	062777	264 00 0 00 070103 		HALTPI			;FILL INTERRUPT LOCATIONS WITH HALTS
 46254	063000	700 14 0 00 031577 		CLRPI
 46255	063001	700 04 0 00 267760 		CLRAPR
 46256						TRAP	<JSP CKI07>,56^
 46257	063002	200 00 0 00 071105 		MOVE	[JSP CKI07]		;SET TRAP INSTRUCTION
 46258	063003	202 00 0 00 000056 		MOVEM	56		;INTO TRAP LOCATION^
 46259	063004	7 004 20 0 00 006201 		CONO	PI,6201		;INTERRUPT ON CH 7
 46260						STUCK^
 46261						WATINT^
 46262	063005	201 13 0 00 001000 		MOVEI	13,1000		;SET UP LOOP OF TEN TO WAIT FOR INT.
 46263	063006	367 13 0 00 063006 		SOJG	13,.		;AND WAIT^
 46264	063007	254 00 0 00 063007 		JRST	.		;LOOOP ON SELF^
 46265					;IF PI HANGS OR BLOWS UP THEN SEE 'PII' PRINT OR 'PIR' PRINT
 46266	063010				CKI07:	TRPCHK^
 46267	063010	332 00 0 00 030042 	..0064:	SKIPE	MONFLG		;RESET FLAGS IF IN MONITOR
 46268	063011	254 00 0 00 063014 		JRST	.+3		;DONT IF STAND ALONE
 46269	063012	254 02 1 00 063013 		JRSTF	@.+1		;AND RESTORE THEM
 46270	063013	000000	063014			USERF,.+1		;NEW PC AND FLAGS^
 46271	063014	264 00 0 00 070103 		HALTPI			;FILL INTERRUPT LOCATIONS WITH HALTS
 46272	063015	264 00 0 00 070072 		CLRTRP
 46273	063016	700 14 0 00 031577 		CLRPI
 46274	063017	700 04 0 00 267760 		CLRAPR
 46275	063020	255 00 0 00 000000 		JFCL
DFKAA PDP-10 KL10 BASIC INSTRUCTION DIAGNOSTIC (1) VER 0,2	MACRO %52(537) 09:34 31-JAN-77 PAGE 38
DFKAA8	MAC	25-AUG-75 14:17		PRIORITY TESTING                                                                   SEQ 1072

 46276					SUBTTL	PRIORITY TESTING
 46277					;THIS TEST CHECKS TO SEE IF INTERRUPTS RECOGNIZE THE PROPER PRIORITY
 46278					;IMPROPER TRAPS WILL HALT - NO TRAPS WILL CAUSE PROGRAM TO HANG
 46279					;IF PROGRAM STUCK THEN REPLACE "JRST ." WITH JRST BACK TO MULT7
 46280					;IF PROGRAM HALTS THEN REPLACE "JSP" IN INTERRUPT LOCATION
 46281					;TO "JSP" TO ROUTINE WHICH CAUSED THE TRAP +1
 46282					;FOR EXAMPLE IF ROUTINE TRAPPED TO LOCATION '50' IN 50
 46283					;YOU WOULD PUT A JSP 17, TO "MULTX ROUTINE+3
 46284
 46285	063021				MULTI:	CLRBT1^
 46286	063021	700 04 0 00 267760 		CLRAPR
 46287	063022	700 14 0 00 031577 		CLRPI^
 46288	063023	264 00 0 00 070103 		HALTPI			;FILL INTERRUPT LOCATIONS WITH HALTS
 46289						TRAP	<JSP	MULT6>,56^
 46290	063024	200 00 0 00 071106 		MOVE	[JSP	MULT6]		;SET TRAP INSTRUCTION
 46291	063025	202 00 0 00 000056 		MOVEM	56		;INTO TRAP LOCATION^
 46292	063026	7 004 20 0 00 002377 		CONO	PI,CHNON+PION+177	;TURN ON PI SYSTEM
 46293						SBWAIT	7^
 46294	063027	7 000 20 0 00 114007 	..0065:	CONO	APR,LESBER!LSSBER!7
 46295						STUCK^^
 46296						WATINT^
 46297	063030	201 13 0 00 001000 		MOVEI	13,1000		;SET UP LOOP OF TEN TO WAIT FOR INT.
 46298	063031	367 13 0 00 063031 		SOJG	13,.		;AND WAIT^
 46299	063032	254 00 0 00 063032 		JRST	.		;LOOOP ON SELF^
 46300	063033				MULT6:	TRPCHK^
 46301	063033	332 00 0 00 030042 	..0066:	SKIPE	MONFLG		;RESET FLAGS IF IN MONITOR
 46302	063034	254 00 0 00 063037 		JRST	.+3		;DONT IF STAND ALONE
 46303	063035	254 02 1 00 063036 		JRSTF	@.+1		;AND RESTORE THEM
 46304	063036	000000	063037			USERF,.+1		;NEW PC AND FLAGS^
 46305	063037	264 00 0 00 070103 		HALTPI			;FILL INTERRUPT LOCATIONS WITH HALTS
 46306						TRAP	<JSP	MULT5>,54^
 46307	063040	200 00 0 00 071107 		MOVE	[JSP	MULT5]		;SET TRAP INSTRUCTION
 46308	063041	202 00 0 00 000054 		MOVEM	54		;INTO TRAP LOCATION^
 46309	063042	7 004 20 0 00 002377 		CONO	PI,CHNON+PION+177	;TURN ON PI SYSTEM
 46310						SBWAIT	6^
 46311	063043	7 000 20 0 00 114006 	..0067:	CONO	APR,LESBER!LSSBER!6
 46312						STUCK^^
 46313						WATINT^
 46314	063044	201 13 0 00 001000 		MOVEI	13,1000		;SET UP LOOP OF TEN TO WAIT FOR INT.
 46315	063045	367 13 0 00 063045 		SOJG	13,.		;AND WAIT^
 46316	063046	254 00 0 00 063046 		JRST	.		;LOOOP ON SELF^
 46317	063047				MULT5:	TRPCHK^
 46318	063047	332 00 0 00 030042 	..0070:	SKIPE	MONFLG		;RESET FLAGS IF IN MONITOR
 46319	063050	254 00 0 00 063053 		JRST	.+3		;DONT IF STAND ALONE
 46320	063051	254 02 1 00 063052 		JRSTF	@.+1		;AND RESTORE THEM
 46321	063052	000000	063053			USERF,.+1		;NEW PC AND FLAGS^
 46322	063053	264 00 0 00 070103 		HALTPI			;FILL INTERRUPT LOCATIONS WITH HALTS
 46323						TRAP	<JSP	MULT4>,52^
 46324	063054	200 00 0 00 071110 		MOVE	[JSP	MULT4]		;SET TRAP INSTRUCTION
 46325	063055	202 00 0 00 000052 		MOVEM	52		;INTO TRAP LOCATION^
 46326	063056	7 004 20 0 00 002377 		CONO	PI,CHNON+PION+177	;TURN ON PI SYSTEM
 46327						SBWAIT	5^
 46328	063057	7 000 20 0 00 114005 	..0071:	CONO	APR,LESBER!LSSBER!5
 46329						STUCK^^
 46330						WATINT^
DFKAA PDP-10 KL10 BASIC INSTRUCTION DIAGNOSTIC (1) VER 0,2	MACRO %52(537) 09:34 31-JAN-77 PAGE 38-1
DFKAA8	MAC	25-AUG-75 14:17		PRIORITY TESTING                                                                   SEQ 1073

 46331	063060	201 13 0 00 001000 		MOVEI	13,1000		;SET UP LOOP OF TEN TO WAIT FOR INT.
 46332	063061	367 13 0 00 063061 		SOJG	13,.		;AND WAIT^
 46333	063062	254 00 0 00 063062 		JRST	.		;LOOOP ON SELF^
 46334	063063				MULT4:	TRPCHK^
 46335	063063	332 00 0 00 030042 	..0072:	SKIPE	MONFLG		;RESET FLAGS IF IN MONITOR
 46336	063064	254 00 0 00 063067 		JRST	.+3		;DONT IF STAND ALONE
 46337	063065	254 02 1 00 063066 		JRSTF	@.+1		;AND RESTORE THEM
 46338	063066	000000	063067			USERF,.+1		;NEW PC AND FLAGS^
 46339	063067	264 00 0 00 070103 		HALTPI			;FILL INTERRUPT LOCATIONS WITH HALTS
 46340						TRAP	<JSP	MULT3>,50^
 46341	063070	200 00 0 00 071111 		MOVE	[JSP	MULT3]		;SET TRAP INSTRUCTION
 46342	063071	202 00 0 00 000050 		MOVEM	50		;INTO TRAP LOCATION^
 46343	063072	7 004 20 0 00 002377 		CONO	PI,CHNON+PION+177	;TURN ON PI SYSTEM
 46344						SBWAIT	4^
 46345	063073	7 000 20 0 00 114004 	..0073:	CONO	APR,LESBER!LSSBER!4
 46346						STUCK^^
 46347						WATINT^
 46348	063074	201 13 0 00 001000 		MOVEI	13,1000		;SET UP LOOP OF TEN TO WAIT FOR INT.
 46349	063075	367 13 0 00 063075 		SOJG	13,.		;AND WAIT^
 46350	063076	254 00 0 00 063076 		JRST	.		;LOOOP ON SELF^
 46351	063077				MULT3:	TRPCHK^
 46352	063077	332 00 0 00 030042 	..0074:	SKIPE	MONFLG		;RESET FLAGS IF IN MONITOR
 46353	063100	254 00 0 00 063103 		JRST	.+3		;DONT IF STAND ALONE
 46354	063101	254 02 1 00 063102 		JRSTF	@.+1		;AND RESTORE THEM
 46355	063102	000000	063103			USERF,.+1		;NEW PC AND FLAGS^
 46356	063103	264 00 0 00 070103 		HALTPI			;FILL INTERRUPT LOCATIONS WITH HALTS
 46357						TRAP	<JSP	MULT2>,46^
 46358	063104	200 00 0 00 071112 		MOVE	[JSP	MULT2]		;SET TRAP INSTRUCTION
 46359	063105	202 00 0 00 000046 		MOVEM	46		;INTO TRAP LOCATION^
 46360	063106	7 004 20 0 00 002377 		CONO	PI,CHNON+PION+177	;TURN ON PI SYSTEM
 46361						SBWAIT	3^
 46362	063107	7 000 20 0 00 114003 	..0075:	CONO	APR,LESBER!LSSBER!3
 46363						STUCK^^
 46364						WATINT^
 46365	063110	201 13 0 00 001000 		MOVEI	13,1000		;SET UP LOOP OF TEN TO WAIT FOR INT.
 46366	063111	367 13 0 00 063111 		SOJG	13,.		;AND WAIT^
 46367	063112	254 00 0 00 063112 		JRST	.		;LOOOP ON SELF^
 46368	063113				MULT2:	TRPCHK^
 46369	063113	332 00 0 00 030042 	..0076:	SKIPE	MONFLG		;RESET FLAGS IF IN MONITOR
 46370	063114	254 00 0 00 063117 		JRST	.+3		;DONT IF STAND ALONE
 46371	063115	254 02 1 00 063116 		JRSTF	@.+1		;AND RESTORE THEM
 46372	063116	000000	063117			USERF,.+1		;NEW PC AND FLAGS^
 46373	063117	264 00 0 00 070103 		HALTPI			;FILL INTERRUPT LOCATIONS WITH HALTS
 46374						TRAP	<JSP	MULT1>,44^
 46375	063120	200 00 0 00 071113 		MOVE	[JSP	MULT1]		;SET TRAP INSTRUCTION
 46376	063121	202 00 0 00 000044 		MOVEM	44		;INTO TRAP LOCATION^
 46377	063122	7 004 20 0 00 002377 		CONO	PI,CHNON+PION+177	;TURN ON PI SYSTEM
 46378						SBWAIT	2^
 46379	063123	7 000 20 0 00 114002 	..0077:	CONO	APR,LESBER!LSSBER!2
 46380						STUCK^^
 46381						WATINT^
 46382	063124	201 13 0 00 001000 		MOVEI	13,1000		;SET UP LOOP OF TEN TO WAIT FOR INT.
 46383	063125	367 13 0 00 063125 		SOJG	13,.		;AND WAIT^
 46384	063126	254 00 0 00 063126 		JRST	.		;LOOOP ON SELF^
 46385	063127				MULT1:	TRPCHK^
DFKAA PDP-10 KL10 BASIC INSTRUCTION DIAGNOSTIC (1) VER 0,2	MACRO %52(537) 09:34 31-JAN-77 PAGE 38-2
DFKAA8	MAC	25-AUG-75 14:17		PRIORITY TESTING                                                                   SEQ 1074

 46386	063127	332 00 0 00 030042 	..0100:	SKIPE	MONFLG		;RESET FLAGS IF IN MONITOR
 46387	063130	254 00 0 00 063133 		JRST	.+3		;DONT IF STAND ALONE
 46388	063131	254 02 1 00 063132 		JRSTF	@.+1		;AND RESTORE THEM
 46389	063132	000000	063133			USERF,.+1		;NEW PC AND FLAGS^
 46390	063133	264 00 0 00 070103 		HALTPI			;FILL INTERRUPT LOCATIONS WITH HALTS
 46391						TRAP	<JSP	MULT0>,42^
 46392	063134	200 00 0 00 071114 		MOVE	[JSP	MULT0]		;SET TRAP INSTRUCTION
 46393	063135	202 00 0 00 000042 		MOVEM	42		;INTO TRAP LOCATION^
 46394	063136	7 004 20 0 00 002377 		CONO	PI,CHNON+PION+177	;TURN ON PI SYSTEM
 46395						SBWAIT	1^
 46396	063137	7 000 20 0 00 114001 	..0101:	CONO	APR,LESBER!LSSBER!1
 46397						STUCK^^
 46398						WATINT^
 46399	063140	201 13 0 00 001000 		MOVEI	13,1000		;SET UP LOOP OF TEN TO WAIT FOR INT.
 46400	063141	367 13 0 00 063141 		SOJG	13,.		;AND WAIT^
 46401	063142	254 00 0 00 063142 		JRST	.		;LOOOP ON SELF^
 46402	063143				MULT0:	TRPCHK^
 46403	063143	332 00 0 00 030042 	..0102:	SKIPE	MONFLG		;RESET FLAGS IF IN MONITOR
 46404	063144	254 00 0 00 063147 		JRST	.+3		;DONT IF STAND ALONE
 46405	063145	254 02 1 00 063146 		JRSTF	@.+1		;AND RESTORE THEM
 46406	063146	000000	063147			USERF,.+1		;NEW PC AND FLAGS^
 46407	063147	264 00 0 00 070103 		HALTPI			;FILL INTERRUPT LOCATIONS WITH HALTS
 46408						CLRBTH^
 46409	063150	700 04 0 00 267760 		CLRAPR
 46410	063151	700 14 0 00 031577 		CLRPI^
 46411	063152	255 00 0 00 000000 		JFCL
DFKAA PDP-10 KL10 BASIC INSTRUCTION DIAGNOSTIC (1) VER 0,2	MACRO %52(537) 09:34 31-JAN-77 PAGE 39
DFKAA8	MAC	25-AUG-75 14:17		DUAL REQUEST TESTING                                                               SEQ 1075

 46412					SUBTTL	DUAL REQUEST TESTING
 46413					;TEST THAT INTERRUPTING ON 2 CHANNELS AT ONCE TRAPS
 46414					;TO THE CORRECT TRAP. TEST IS DONE ON ALL POSSIBLE CHANNELS I.E.
 46415					;7,1 7,2 7,3 7,4 7,5 7,6 6,1 6,2...ETC
 46416
 46417
 46418	063153				C2A:	TSET^
 46419			063153			%X=.			;DEFINE %X TO SAVE
 46420	063153	201 00 0 00 063153 		MOVEI	%X		;SAVE THIS PC IN CASE OF WILD TRANSFER
 46421	063154	202 00 0 00 071350 		MOVEM	TNUMB#		;BECAUSE OF PC MOD OR INTERRUPT^
 46422						XCHN2	C2B,42,101^
 46423
 46424					;REQUEST INTERRUPTS ON 2 CHANNELS AT ONCE TO SEE IF THEY TRAP
 46425					;TO THE CORRECT (I.E. HIGHEST PRIORITY) CHANNEL.
 46426					;IF ERROR OCCURS CHECK "PIN" PRINT
 46427
 46428						TRPCHK^
 46429	063155	332 00 0 00 030042 	..0103:	SKIPE	MONFLG		;RESET FLAGS IF IN MONITOR
 46430	063156	254 00 0 00 063161 		JRST	.+3		;DONT IF STAND ALONE
 46431	063157	254 02 1 00 063160 		JRSTF	@.+1		;AND RESTORE THEM
 46432	063160	000000	063161			USERF,.+1		;NEW PC AND FLAGS^
 46433						CLRBTH^
 46434	063161	700 04 0 00 267760 		CLRAPR
 46435	063162	700 14 0 00 031577 		CLRPI^
 46436	063163	264 00 0 00 070103 		HALTPI			;FILL INTERRUPT LOCATIONS WITH HALTS
 46437	063164	200 00 0 00 071115 		MOVE	[JSP C2B]		;SET UP FOR CORRECT
 46438	063165	202 00 0 00 000042 		MOVEM	42		;INTERRUPT TRAP
 46439	063166	7 004 20 0 00 002377 		CONO	PI,CHNON!PION!177	;TURN ON PI SYSTEM
 46440	063167	7 004 20 0 00 004101 		CONO	PI,REQSET!101	;REQUEST INTERRUPT ON TWO CHANNELS
 46441						STUCK^
 46442						WATINT^
 46443	063170	201 13 0 00 001000 		MOVEI	13,1000		;SET UP LOOP OF TEN TO WAIT FOR INT.
 46444	063171	367 13 0 00 063171 		SOJG	13,.		;AND WAIT^
 46445	063172	254 00 0 00 063172 		JRST	.		;LOOOP ON SELF^
 46446					^
 46447	063173				C2B:	TBOTH^
 46448						TGET^
 46449	063173	200 00 0 00 071350 		MOVE	TNUMB		;GET LAST PC STORED AND CHECK TO SEE
 46450	063174	302 00 0 00 063153 		CAIE	%X		;IF ITS WHERE WE REALLY SHOULD BE
 46451						STOP2^^
 46452	063175	254 04 0 00 063176 		HALT	.+1		;HALT IF WE SHOULDN'T BE HERE
 46453	063176	254 00 0 00 063177 		JRST	.+1		;WILD TRANSFER CAUSED THIS HALT.^
 46454
 46455						TSET^^
 46456			063177			%X=.			;DEFINE %X TO SAVE
 46457	063177	201 00 0 00 063177 		MOVEI	%X		;SAVE THIS PC IN CASE OF WILD TRANSFER
 46458	063200	202 00 0 00 071350 		MOVEM	TNUMB#		;BECAUSE OF PC MOD OR INTERRUPT^
 46459						XCHN2	C2C,44,41^
 46460
 46461					;REQUEST INTERRUPTS ON 2 CHANNELS AT ONCE TO SEE IF THEY TRAP
 46462					;TO THE CORRECT (I.E. HIGHEST PRIORITY) CHANNEL.
 46463					;IF ERROR OCCURS CHECK "PIN" PRINT
 46464
 46465						TRPCHK^
 46466	063201	332 00 0 00 030042 	..0104:	SKIPE	MONFLG		;RESET FLAGS IF IN MONITOR
DFKAA PDP-10 KL10 BASIC INSTRUCTION DIAGNOSTIC (1) VER 0,2	MACRO %52(537) 09:34 31-JAN-77 PAGE 39-1
DFKAA8	MAC	25-AUG-75 14:17		DUAL REQUEST TESTING                                                               SEQ 1076

 46467	063202	254 00 0 00 063205 		JRST	.+3		;DONT IF STAND ALONE
 46468	063203	254 02 1 00 063204 		JRSTF	@.+1		;AND RESTORE THEM
 46469	063204	000000	063205			USERF,.+1		;NEW PC AND FLAGS^
 46470						CLRBTH^
 46471	063205	700 04 0 00 267760 		CLRAPR
 46472	063206	700 14 0 00 031577 		CLRPI^
 46473	063207	264 00 0 00 070103 		HALTPI			;FILL INTERRUPT LOCATIONS WITH HALTS
 46474	063210	200 00 0 00 071116 		MOVE	[JSP C2C]		;SET UP FOR CORRECT
 46475	063211	202 00 0 00 000044 		MOVEM	44		;INTERRUPT TRAP
 46476	063212	7 004 20 0 00 002377 		CONO	PI,CHNON!PION!177	;TURN ON PI SYSTEM
 46477	063213	7 004 20 0 00 004041 		CONO	PI,REQSET!41	;REQUEST INTERRUPT ON TWO CHANNELS
 46478						STUCK^
 46479						WATINT^
 46480	063214	201 13 0 00 001000 		MOVEI	13,1000		;SET UP LOOP OF TEN TO WAIT FOR INT.
 46481	063215	367 13 0 00 063215 		SOJG	13,.		;AND WAIT^
 46482	063216	254 00 0 00 063216 		JRST	.		;LOOOP ON SELF^
 46483					^
 46484	063217				C2C:	TBOTH^
 46485						TGET^
 46486	063217	200 00 0 00 071350 		MOVE	TNUMB		;GET LAST PC STORED AND CHECK TO SEE
 46487	063220	302 00 0 00 063177 		CAIE	%X		;IF ITS WHERE WE REALLY SHOULD BE
 46488						STOP2^^
 46489	063221	254 04 0 00 063222 		HALT	.+1		;HALT IF WE SHOULDN'T BE HERE
 46490	063222	254 00 0 00 063223 		JRST	.+1		;WILD TRANSFER CAUSED THIS HALT.^
 46491
 46492						TSET^^
 46493			063223			%X=.			;DEFINE %X TO SAVE
 46494	063223	201 00 0 00 063223 		MOVEI	%X		;SAVE THIS PC IN CASE OF WILD TRANSFER
 46495	063224	202 00 0 00 071350 		MOVEM	TNUMB#		;BECAUSE OF PC MOD OR INTERRUPT^
 46496						XCHN2	C2D,46,21^
 46497
 46498					;REQUEST INTERRUPTS ON 2 CHANNELS AT ONCE TO SEE IF THEY TRAP
 46499					;TO THE CORRECT (I.E. HIGHEST PRIORITY) CHANNEL.
 46500					;IF ERROR OCCURS CHECK "PIN" PRINT
 46501
 46502						TRPCHK^
 46503	063225	332 00 0 00 030042 	..0105:	SKIPE	MONFLG		;RESET FLAGS IF IN MONITOR
 46504	063226	254 00 0 00 063231 		JRST	.+3		;DONT IF STAND ALONE
 46505	063227	254 02 1 00 063230 		JRSTF	@.+1		;AND RESTORE THEM
 46506	063230	000000	063231			USERF,.+1		;NEW PC AND FLAGS^
 46507						CLRBTH^
 46508	063231	700 04 0 00 267760 		CLRAPR
 46509	063232	700 14 0 00 031577 		CLRPI^
 46510	063233	264 00 0 00 070103 		HALTPI			;FILL INTERRUPT LOCATIONS WITH HALTS
 46511	063234	200 00 0 00 071117 		MOVE	[JSP C2D]		;SET UP FOR CORRECT
 46512	063235	202 00 0 00 000046 		MOVEM	46		;INTERRUPT TRAP
 46513	063236	7 004 20 0 00 002377 		CONO	PI,CHNON!PION!177	;TURN ON PI SYSTEM
 46514	063237	7 004 20 0 00 004021 		CONO	PI,REQSET!21	;REQUEST INTERRUPT ON TWO CHANNELS
 46515						STUCK^
 46516						WATINT^
 46517	063240	201 13 0 00 001000 		MOVEI	13,1000		;SET UP LOOP OF TEN TO WAIT FOR INT.
 46518	063241	367 13 0 00 063241 		SOJG	13,.		;AND WAIT^
 46519	063242	254 00 0 00 063242 		JRST	.		;LOOOP ON SELF^
 46520					^
 46521	063243				C2D:	TBOTH^
DFKAA PDP-10 KL10 BASIC INSTRUCTION DIAGNOSTIC (1) VER 0,2	MACRO %52(537) 09:34 31-JAN-77 PAGE 39-2
DFKAA8	MAC	25-AUG-75 14:17		DUAL REQUEST TESTING                                                               SEQ 1077

 46522						TGET^
 46523	063243	200 00 0 00 071350 		MOVE	TNUMB		;GET LAST PC STORED AND CHECK TO SEE
 46524	063244	302 00 0 00 063223 		CAIE	%X		;IF ITS WHERE WE REALLY SHOULD BE
 46525						STOP2^^
 46526	063245	254 04 0 00 063246 		HALT	.+1		;HALT IF WE SHOULDN'T BE HERE
 46527	063246	254 00 0 00 063247 		JRST	.+1		;WILD TRANSFER CAUSED THIS HALT.^
 46528
 46529						TSET^^
 46530			063247			%X=.			;DEFINE %X TO SAVE
 46531	063247	201 00 0 00 063247 		MOVEI	%X		;SAVE THIS PC IN CASE OF WILD TRANSFER
 46532	063250	202 00 0 00 071350 		MOVEM	TNUMB#		;BECAUSE OF PC MOD OR INTERRUPT^
 46533						XCHN2	C2E,50,11^
 46534
 46535					;REQUEST INTERRUPTS ON 2 CHANNELS AT ONCE TO SEE IF THEY TRAP
 46536					;TO THE CORRECT (I.E. HIGHEST PRIORITY) CHANNEL.
 46537					;IF ERROR OCCURS CHECK "PIN" PRINT
 46538
 46539						TRPCHK^
 46540	063251	332 00 0 00 030042 	..0106:	SKIPE	MONFLG		;RESET FLAGS IF IN MONITOR
 46541	063252	254 00 0 00 063255 		JRST	.+3		;DONT IF STAND ALONE
 46542	063253	254 02 1 00 063254 		JRSTF	@.+1		;AND RESTORE THEM
 46543	063254	000000	063255			USERF,.+1		;NEW PC AND FLAGS^
 46544						CLRBTH^
 46545	063255	700 04 0 00 267760 		CLRAPR
 46546	063256	700 14 0 00 031577 		CLRPI^
 46547	063257	264 00 0 00 070103 		HALTPI			;FILL INTERRUPT LOCATIONS WITH HALTS
 46548	063260	200 00 0 00 071120 		MOVE	[JSP C2E]		;SET UP FOR CORRECT
 46549	063261	202 00 0 00 000050 		MOVEM	50		;INTERRUPT TRAP
 46550	063262	7 004 20 0 00 002377 		CONO	PI,CHNON!PION!177	;TURN ON PI SYSTEM
 46551	063263	7 004 20 0 00 004011 		CONO	PI,REQSET!11	;REQUEST INTERRUPT ON TWO CHANNELS
 46552						STUCK^
 46553						WATINT^
 46554	063264	201 13 0 00 001000 		MOVEI	13,1000		;SET UP LOOP OF TEN TO WAIT FOR INT.
 46555	063265	367 13 0 00 063265 		SOJG	13,.		;AND WAIT^
 46556	063266	254 00 0 00 063266 		JRST	.		;LOOOP ON SELF^
 46557					^
 46558	063267				C2E:	TBOTH^
 46559						TGET^
 46560	063267	200 00 0 00 071350 		MOVE	TNUMB		;GET LAST PC STORED AND CHECK TO SEE
 46561	063270	302 00 0 00 063247 		CAIE	%X		;IF ITS WHERE WE REALLY SHOULD BE
 46562						STOP2^^
 46563	063271	254 04 0 00 063272 		HALT	.+1		;HALT IF WE SHOULDN'T BE HERE
 46564	063272	254 00 0 00 063273 		JRST	.+1		;WILD TRANSFER CAUSED THIS HALT.^
 46565
 46566						TSET^^
 46567			063273			%X=.			;DEFINE %X TO SAVE
 46568	063273	201 00 0 00 063273 		MOVEI	%X		;SAVE THIS PC IN CASE OF WILD TRANSFER
 46569	063274	202 00 0 00 071350 		MOVEM	TNUMB#		;BECAUSE OF PC MOD OR INTERRUPT^
 46570						XCHN2	C2F,52,5^
 46571
 46572					;REQUEST INTERRUPTS ON 2 CHANNELS AT ONCE TO SEE IF THEY TRAP
 46573					;TO THE CORRECT (I.E. HIGHEST PRIORITY) CHANNEL.
 46574					;IF ERROR OCCURS CHECK "PIN" PRINT
 46575
 46576						TRPCHK^
DFKAA PDP-10 KL10 BASIC INSTRUCTION DIAGNOSTIC (1) VER 0,2	MACRO %52(537) 09:34 31-JAN-77 PAGE 39-3
DFKAA8	MAC	25-AUG-75 14:17		DUAL REQUEST TESTING                                                               SEQ 1078

 46577	063275	332 00 0 00 030042 	..0107:	SKIPE	MONFLG		;RESET FLAGS IF IN MONITOR
 46578	063276	254 00 0 00 063301 		JRST	.+3		;DONT IF STAND ALONE
 46579	063277	254 02 1 00 063300 		JRSTF	@.+1		;AND RESTORE THEM
 46580	063300	000000	063301			USERF,.+1		;NEW PC AND FLAGS^
 46581						CLRBTH^
 46582	063301	700 04 0 00 267760 		CLRAPR
 46583	063302	700 14 0 00 031577 		CLRPI^
 46584	063303	264 00 0 00 070103 		HALTPI			;FILL INTERRUPT LOCATIONS WITH HALTS
 46585	063304	200 00 0 00 071121 		MOVE	[JSP C2F]		;SET UP FOR CORRECT
 46586	063305	202 00 0 00 000052 		MOVEM	52		;INTERRUPT TRAP
 46587	063306	7 004 20 0 00 002377 		CONO	PI,CHNON!PION!177	;TURN ON PI SYSTEM
 46588	063307	7 004 20 0 00 004005 		CONO	PI,REQSET!5	;REQUEST INTERRUPT ON TWO CHANNELS
 46589						STUCK^
 46590						WATINT^
 46591	063310	201 13 0 00 001000 		MOVEI	13,1000		;SET UP LOOP OF TEN TO WAIT FOR INT.
 46592	063311	367 13 0 00 063311 		SOJG	13,.		;AND WAIT^
 46593	063312	254 00 0 00 063312 		JRST	.		;LOOOP ON SELF^
 46594					^
 46595	063313				C2F:	TBOTH^
 46596						TGET^
 46597	063313	200 00 0 00 071350 		MOVE	TNUMB		;GET LAST PC STORED AND CHECK TO SEE
 46598	063314	302 00 0 00 063273 		CAIE	%X		;IF ITS WHERE WE REALLY SHOULD BE
 46599						STOP2^^
 46600	063315	254 04 0 00 063316 		HALT	.+1		;HALT IF WE SHOULDN'T BE HERE
 46601	063316	254 00 0 00 063317 		JRST	.+1		;WILD TRANSFER CAUSED THIS HALT.^
 46602
 46603						TSET^^
 46604			063317			%X=.			;DEFINE %X TO SAVE
 46605	063317	201 00 0 00 063317 		MOVEI	%X		;SAVE THIS PC IN CASE OF WILD TRANSFER
 46606	063320	202 00 0 00 071350 		MOVEM	TNUMB#		;BECAUSE OF PC MOD OR INTERRUPT^
 46607						XCHN2	C2G,54,3^
 46608
 46609					;REQUEST INTERRUPTS ON 2 CHANNELS AT ONCE TO SEE IF THEY TRAP
 46610					;TO THE CORRECT (I.E. HIGHEST PRIORITY) CHANNEL.
 46611					;IF ERROR OCCURS CHECK "PIN" PRINT
 46612
 46613						TRPCHK^
 46614	063321	332 00 0 00 030042 	..0110:	SKIPE	MONFLG		;RESET FLAGS IF IN MONITOR
 46615	063322	254 00 0 00 063325 		JRST	.+3		;DONT IF STAND ALONE
 46616	063323	254 02 1 00 063324 		JRSTF	@.+1		;AND RESTORE THEM
 46617	063324	000000	063325			USERF,.+1		;NEW PC AND FLAGS^
 46618						CLRBTH^
 46619	063325	700 04 0 00 267760 		CLRAPR
 46620	063326	700 14 0 00 031577 		CLRPI^
 46621	063327	264 00 0 00 070103 		HALTPI			;FILL INTERRUPT LOCATIONS WITH HALTS
 46622	063330	200 00 0 00 071122 		MOVE	[JSP C2G]		;SET UP FOR CORRECT
 46623	063331	202 00 0 00 000054 		MOVEM	54		;INTERRUPT TRAP
 46624	063332	7 004 20 0 00 002377 		CONO	PI,CHNON!PION!177	;TURN ON PI SYSTEM
 46625	063333	7 004 20 0 00 004003 		CONO	PI,REQSET!3	;REQUEST INTERRUPT ON TWO CHANNELS
 46626						STUCK^
 46627						WATINT^
 46628	063334	201 13 0 00 001000 		MOVEI	13,1000		;SET UP LOOP OF TEN TO WAIT FOR INT.
 46629	063335	367 13 0 00 063335 		SOJG	13,.		;AND WAIT^
 46630	063336	254 00 0 00 063336 		JRST	.		;LOOOP ON SELF^
 46631					^
DFKAA PDP-10 KL10 BASIC INSTRUCTION DIAGNOSTIC (1) VER 0,2	MACRO %52(537) 09:34 31-JAN-77 PAGE 39-4
DFKAA8	MAC	25-AUG-75 14:17		DUAL REQUEST TESTING                                                               SEQ 1079

 46632	063337				C2G:	TBOTH^
 46633						TGET^
 46634	063337	200 00 0 00 071350 		MOVE	TNUMB		;GET LAST PC STORED AND CHECK TO SEE
 46635	063340	302 00 0 00 063317 		CAIE	%X		;IF ITS WHERE WE REALLY SHOULD BE
 46636						STOP2^^
 46637	063341	254 04 0 00 063342 		HALT	.+1		;HALT IF WE SHOULDN'T BE HERE
 46638	063342	254 00 0 00 063343 		JRST	.+1		;WILD TRANSFER CAUSED THIS HALT.^
 46639
 46640						TSET^^
 46641			063343			%X=.			;DEFINE %X TO SAVE
 46642	063343	201 00 0 00 063343 		MOVEI	%X		;SAVE THIS PC IN CASE OF WILD TRANSFER
 46643	063344	202 00 0 00 071350 		MOVEM	TNUMB#		;BECAUSE OF PC MOD OR INTERRUPT^
 46644						XCHN2	C2H,42,102^
 46645
 46646					;REQUEST INTERRUPTS ON 2 CHANNELS AT ONCE TO SEE IF THEY TRAP
 46647					;TO THE CORRECT (I.E. HIGHEST PRIORITY) CHANNEL.
 46648					;IF ERROR OCCURS CHECK "PIN" PRINT
 46649
 46650						TRPCHK^
 46651	063345	332 00 0 00 030042 	..0111:	SKIPE	MONFLG		;RESET FLAGS IF IN MONITOR
 46652	063346	254 00 0 00 063351 		JRST	.+3		;DONT IF STAND ALONE
 46653	063347	254 02 1 00 063350 		JRSTF	@.+1		;AND RESTORE THEM
 46654	063350	000000	063351			USERF,.+1		;NEW PC AND FLAGS^
 46655						CLRBTH^
 46656	063351	700 04 0 00 267760 		CLRAPR
 46657	063352	700 14 0 00 031577 		CLRPI^
 46658	063353	264 00 0 00 070103 		HALTPI			;FILL INTERRUPT LOCATIONS WITH HALTS
 46659	063354	200 00 0 00 071123 		MOVE	[JSP C2H]		;SET UP FOR CORRECT
 46660	063355	202 00 0 00 000042 		MOVEM	42		;INTERRUPT TRAP
 46661	063356	7 004 20 0 00 002377 		CONO	PI,CHNON!PION!177	;TURN ON PI SYSTEM
 46662	063357	7 004 20 0 00 004102 		CONO	PI,REQSET!102	;REQUEST INTERRUPT ON TWO CHANNELS
 46663						STUCK^
 46664						WATINT^
 46665	063360	201 13 0 00 001000 		MOVEI	13,1000		;SET UP LOOP OF TEN TO WAIT FOR INT.
 46666	063361	367 13 0 00 063361 		SOJG	13,.		;AND WAIT^
 46667	063362	254 00 0 00 063362 		JRST	.		;LOOOP ON SELF^
 46668					^
 46669	063363				C2H:	TBOTH^
 46670						TGET^
 46671	063363	200 00 0 00 071350 		MOVE	TNUMB		;GET LAST PC STORED AND CHECK TO SEE
 46672	063364	302 00 0 00 063343 		CAIE	%X		;IF ITS WHERE WE REALLY SHOULD BE
 46673						STOP2^^
 46674	063365	254 04 0 00 063366 		HALT	.+1		;HALT IF WE SHOULDN'T BE HERE
 46675	063366	254 00 0 00 063367 		JRST	.+1		;WILD TRANSFER CAUSED THIS HALT.^
 46676
 46677						TSET^^
 46678			063367			%X=.			;DEFINE %X TO SAVE
 46679	063367	201 00 0 00 063367 		MOVEI	%X		;SAVE THIS PC IN CASE OF WILD TRANSFER
 46680	063370	202 00 0 00 071350 		MOVEM	TNUMB#		;BECAUSE OF PC MOD OR INTERRUPT^
 46681						XCHN2	C2I,44,42^
 46682
 46683					;REQUEST INTERRUPTS ON 2 CHANNELS AT ONCE TO SEE IF THEY TRAP
 46684					;TO THE CORRECT (I.E. HIGHEST PRIORITY) CHANNEL.
 46685					;IF ERROR OCCURS CHECK "PIN" PRINT
 46686
DFKAA PDP-10 KL10 BASIC INSTRUCTION DIAGNOSTIC (1) VER 0,2	MACRO %52(537) 09:34 31-JAN-77 PAGE 39-5
DFKAA8	MAC	25-AUG-75 14:17		DUAL REQUEST TESTING                                                               SEQ 1080

 46687						TRPCHK^
 46688	063371	332 00 0 00 030042 	..0112:	SKIPE	MONFLG		;RESET FLAGS IF IN MONITOR
 46689	063372	254 00 0 00 063375 		JRST	.+3		;DONT IF STAND ALONE
 46690	063373	254 02 1 00 063374 		JRSTF	@.+1		;AND RESTORE THEM
 46691	063374	000000	063375			USERF,.+1		;NEW PC AND FLAGS^
 46692						CLRBTH^
 46693	063375	700 04 0 00 267760 		CLRAPR
 46694	063376	700 14 0 00 031577 		CLRPI^
 46695	063377	264 00 0 00 070103 		HALTPI			;FILL INTERRUPT LOCATIONS WITH HALTS
 46696	063400	200 00 0 00 071124 		MOVE	[JSP C2I]		;SET UP FOR CORRECT
 46697	063401	202 00 0 00 000044 		MOVEM	44		;INTERRUPT TRAP
 46698	063402	7 004 20 0 00 002377 		CONO	PI,CHNON!PION!177	;TURN ON PI SYSTEM
 46699	063403	7 004 20 0 00 004042 		CONO	PI,REQSET!42	;REQUEST INTERRUPT ON TWO CHANNELS
 46700						STUCK^
 46701						WATINT^
 46702	063404	201 13 0 00 001000 		MOVEI	13,1000		;SET UP LOOP OF TEN TO WAIT FOR INT.
 46703	063405	367 13 0 00 063405 		SOJG	13,.		;AND WAIT^
 46704	063406	254 00 0 00 063406 		JRST	.		;LOOOP ON SELF^
 46705					^
 46706	063407				C2I:	TBOTH^
 46707						TGET^
 46708	063407	200 00 0 00 071350 		MOVE	TNUMB		;GET LAST PC STORED AND CHECK TO SEE
 46709	063410	302 00 0 00 063367 		CAIE	%X		;IF ITS WHERE WE REALLY SHOULD BE
 46710						STOP2^^
 46711	063411	254 04 0 00 063412 		HALT	.+1		;HALT IF WE SHOULDN'T BE HERE
 46712	063412	254 00 0 00 063413 		JRST	.+1		;WILD TRANSFER CAUSED THIS HALT.^
 46713
 46714						TSET^^
 46715			063413			%X=.			;DEFINE %X TO SAVE
 46716	063413	201 00 0 00 063413 		MOVEI	%X		;SAVE THIS PC IN CASE OF WILD TRANSFER
 46717	063414	202 00 0 00 071350 		MOVEM	TNUMB#		;BECAUSE OF PC MOD OR INTERRUPT^
 46718						XCHN2	C2J,46,22^
 46719
 46720					;REQUEST INTERRUPTS ON 2 CHANNELS AT ONCE TO SEE IF THEY TRAP
 46721					;TO THE CORRECT (I.E. HIGHEST PRIORITY) CHANNEL.
 46722					;IF ERROR OCCURS CHECK "PIN" PRINT
 46723
 46724						TRPCHK^
 46725	063415	332 00 0 00 030042 	..0113:	SKIPE	MONFLG		;RESET FLAGS IF IN MONITOR
 46726	063416	254 00 0 00 063421 		JRST	.+3		;DONT IF STAND ALONE
 46727	063417	254 02 1 00 063420 		JRSTF	@.+1		;AND RESTORE THEM
 46728	063420	000000	063421			USERF,.+1		;NEW PC AND FLAGS^
 46729						CLRBTH^
 46730	063421	700 04 0 00 267760 		CLRAPR
 46731	063422	700 14 0 00 031577 		CLRPI^
 46732	063423	264 00 0 00 070103 		HALTPI			;FILL INTERRUPT LOCATIONS WITH HALTS
 46733	063424	200 00 0 00 071125 		MOVE	[JSP C2J]		;SET UP FOR CORRECT
 46734	063425	202 00 0 00 000046 		MOVEM	46		;INTERRUPT TRAP
 46735	063426	7 004 20 0 00 002377 		CONO	PI,CHNON!PION!177	;TURN ON PI SYSTEM
 46736	063427	7 004 20 0 00 004022 		CONO	PI,REQSET!22	;REQUEST INTERRUPT ON TWO CHANNELS
 46737						STUCK^
 46738						WATINT^
 46739	063430	201 13 0 00 001000 		MOVEI	13,1000		;SET UP LOOP OF TEN TO WAIT FOR INT.
 46740	063431	367 13 0 00 063431 		SOJG	13,.		;AND WAIT^
 46741	063432	254 00 0 00 063432 		JRST	.		;LOOOP ON SELF^
DFKAA PDP-10 KL10 BASIC INSTRUCTION DIAGNOSTIC (1) VER 0,2	MACRO %52(537) 09:34 31-JAN-77 PAGE 39-6
DFKAA8	MAC	25-AUG-75 14:17		DUAL REQUEST TESTING                                                               SEQ 1081

 46742					^
 46743	063433				C2J:	TBOTH^
 46744						TGET^
 46745	063433	200 00 0 00 071350 		MOVE	TNUMB		;GET LAST PC STORED AND CHECK TO SEE
 46746	063434	302 00 0 00 063413 		CAIE	%X		;IF ITS WHERE WE REALLY SHOULD BE
 46747						STOP2^^
 46748	063435	254 04 0 00 063436 		HALT	.+1		;HALT IF WE SHOULDN'T BE HERE
 46749	063436	254 00 0 00 063437 		JRST	.+1		;WILD TRANSFER CAUSED THIS HALT.^
 46750
 46751						TSET^^
 46752			063437			%X=.			;DEFINE %X TO SAVE
 46753	063437	201 00 0 00 063437 		MOVEI	%X		;SAVE THIS PC IN CASE OF WILD TRANSFER
 46754	063440	202 00 0 00 071350 		MOVEM	TNUMB#		;BECAUSE OF PC MOD OR INTERRUPT^
 46755						XCHN2	C2K,50,12^
 46756
 46757					;REQUEST INTERRUPTS ON 2 CHANNELS AT ONCE TO SEE IF THEY TRAP
 46758					;TO THE CORRECT (I.E. HIGHEST PRIORITY) CHANNEL.
 46759					;IF ERROR OCCURS CHECK "PIN" PRINT
 46760
 46761						TRPCHK^
 46762	063441	332 00 0 00 030042 	..0114:	SKIPE	MONFLG		;RESET FLAGS IF IN MONITOR
 46763	063442	254 00 0 00 063445 		JRST	.+3		;DONT IF STAND ALONE
 46764	063443	254 02 1 00 063444 		JRSTF	@.+1		;AND RESTORE THEM
 46765	063444	000000	063445			USERF,.+1		;NEW PC AND FLAGS^
 46766						CLRBTH^
 46767	063445	700 04 0 00 267760 		CLRAPR
 46768	063446	700 14 0 00 031577 		CLRPI^
 46769	063447	264 00 0 00 070103 		HALTPI			;FILL INTERRUPT LOCATIONS WITH HALTS
 46770	063450	200 00 0 00 071126 		MOVE	[JSP C2K]		;SET UP FOR CORRECT
 46771	063451	202 00 0 00 000050 		MOVEM	50		;INTERRUPT TRAP
 46772	063452	7 004 20 0 00 002377 		CONO	PI,CHNON!PION!177	;TURN ON PI SYSTEM
 46773	063453	7 004 20 0 00 004012 		CONO	PI,REQSET!12	;REQUEST INTERRUPT ON TWO CHANNELS
 46774						STUCK^
 46775						WATINT^
 46776	063454	201 13 0 00 001000 		MOVEI	13,1000		;SET UP LOOP OF TEN TO WAIT FOR INT.
 46777	063455	367 13 0 00 063455 		SOJG	13,.		;AND WAIT^
 46778	063456	254 00 0 00 063456 		JRST	.		;LOOOP ON SELF^
 46779					^
 46780	063457				C2K:	TBOTH^
 46781						TGET^
 46782	063457	200 00 0 00 071350 		MOVE	TNUMB		;GET LAST PC STORED AND CHECK TO SEE
 46783	063460	302 00 0 00 063437 		CAIE	%X		;IF ITS WHERE WE REALLY SHOULD BE
 46784						STOP2^^
 46785	063461	254 04 0 00 063462 		HALT	.+1		;HALT IF WE SHOULDN'T BE HERE
 46786	063462	254 00 0 00 063463 		JRST	.+1		;WILD TRANSFER CAUSED THIS HALT.^
 46787
 46788						TSET^^
 46789			063463			%X=.			;DEFINE %X TO SAVE
 46790	063463	201 00 0 00 063463 		MOVEI	%X		;SAVE THIS PC IN CASE OF WILD TRANSFER
 46791	063464	202 00 0 00 071350 		MOVEM	TNUMB#		;BECAUSE OF PC MOD OR INTERRUPT^
 46792						XCHN2	C2L,52,6^
 46793
 46794					;REQUEST INTERRUPTS ON 2 CHANNELS AT ONCE TO SEE IF THEY TRAP
 46795					;TO THE CORRECT (I.E. HIGHEST PRIORITY) CHANNEL.
 46796					;IF ERROR OCCURS CHECK "PIN" PRINT
DFKAA PDP-10 KL10 BASIC INSTRUCTION DIAGNOSTIC (1) VER 0,2	MACRO %52(537) 09:34 31-JAN-77 PAGE 39-7
DFKAA8	MAC	25-AUG-75 14:17		DUAL REQUEST TESTING                                                               SEQ 1082

 46797
 46798						TRPCHK^
 46799	063465	332 00 0 00 030042 	..0115:	SKIPE	MONFLG		;RESET FLAGS IF IN MONITOR
 46800	063466	254 00 0 00 063471 		JRST	.+3		;DONT IF STAND ALONE
 46801	063467	254 02 1 00 063470 		JRSTF	@.+1		;AND RESTORE THEM
 46802	063470	000000	063471			USERF,.+1		;NEW PC AND FLAGS^
 46803						CLRBTH^
 46804	063471	700 04 0 00 267760 		CLRAPR
 46805	063472	700 14 0 00 031577 		CLRPI^
 46806	063473	264 00 0 00 070103 		HALTPI			;FILL INTERRUPT LOCATIONS WITH HALTS
 46807	063474	200 00 0 00 071127 		MOVE	[JSP C2L]		;SET UP FOR CORRECT
 46808	063475	202 00 0 00 000052 		MOVEM	52		;INTERRUPT TRAP
 46809	063476	7 004 20 0 00 002377 		CONO	PI,CHNON!PION!177	;TURN ON PI SYSTEM
 46810	063477	7 004 20 0 00 004006 		CONO	PI,REQSET!6	;REQUEST INTERRUPT ON TWO CHANNELS
 46811						STUCK^
 46812						WATINT^
 46813	063500	201 13 0 00 001000 		MOVEI	13,1000		;SET UP LOOP OF TEN TO WAIT FOR INT.
 46814	063501	367 13 0 00 063501 		SOJG	13,.		;AND WAIT^
 46815	063502	254 00 0 00 063502 		JRST	.		;LOOOP ON SELF^
 46816					^
 46817	063503				C2L:	TBOTH^
 46818						TGET^
 46819	063503	200 00 0 00 071350 		MOVE	TNUMB		;GET LAST PC STORED AND CHECK TO SEE
 46820	063504	302 00 0 00 063463 		CAIE	%X		;IF ITS WHERE WE REALLY SHOULD BE
 46821						STOP2^^
 46822	063505	254 04 0 00 063506 		HALT	.+1		;HALT IF WE SHOULDN'T BE HERE
 46823	063506	254 00 0 00 063507 		JRST	.+1		;WILD TRANSFER CAUSED THIS HALT.^
 46824
 46825						TSET^^
 46826			063507			%X=.			;DEFINE %X TO SAVE
 46827	063507	201 00 0 00 063507 		MOVEI	%X		;SAVE THIS PC IN CASE OF WILD TRANSFER
 46828	063510	202 00 0 00 071350 		MOVEM	TNUMB#		;BECAUSE OF PC MOD OR INTERRUPT^
 46829						XCHN2	C2M,42,104^
 46830
 46831					;REQUEST INTERRUPTS ON 2 CHANNELS AT ONCE TO SEE IF THEY TRAP
 46832					;TO THE CORRECT (I.E. HIGHEST PRIORITY) CHANNEL.
 46833					;IF ERROR OCCURS CHECK "PIN" PRINT
 46834
 46835						TRPCHK^
 46836	063511	332 00 0 00 030042 	..0116:	SKIPE	MONFLG		;RESET FLAGS IF IN MONITOR
 46837	063512	254 00 0 00 063515 		JRST	.+3		;DONT IF STAND ALONE
 46838	063513	254 02 1 00 063514 		JRSTF	@.+1		;AND RESTORE THEM
 46839	063514	000000	063515			USERF,.+1		;NEW PC AND FLAGS^
 46840						CLRBTH^
 46841	063515	700 04 0 00 267760 		CLRAPR
 46842	063516	700 14 0 00 031577 		CLRPI^
 46843	063517	264 00 0 00 070103 		HALTPI			;FILL INTERRUPT LOCATIONS WITH HALTS
 46844	063520	200 00 0 00 071130 		MOVE	[JSP C2M]		;SET UP FOR CORRECT
 46845	063521	202 00 0 00 000042 		MOVEM	42		;INTERRUPT TRAP
 46846	063522	7 004 20 0 00 002377 		CONO	PI,CHNON!PION!177	;TURN ON PI SYSTEM
 46847	063523	7 004 20 0 00 004104 		CONO	PI,REQSET!104	;REQUEST INTERRUPT ON TWO CHANNELS
 46848						STUCK^
 46849						WATINT^
 46850	063524	201 13 0 00 001000 		MOVEI	13,1000		;SET UP LOOP OF TEN TO WAIT FOR INT.
 46851	063525	367 13 0 00 063525 		SOJG	13,.		;AND WAIT^
DFKAA PDP-10 KL10 BASIC INSTRUCTION DIAGNOSTIC (1) VER 0,2	MACRO %52(537) 09:34 31-JAN-77 PAGE 39-8
DFKAA8	MAC	25-AUG-75 14:17		DUAL REQUEST TESTING                                                               SEQ 1083

 46852	063526	254 00 0 00 063526 		JRST	.		;LOOOP ON SELF^
 46853					^
 46854	063527				C2M:	TBOTH^
 46855						TGET^
 46856	063527	200 00 0 00 071350 		MOVE	TNUMB		;GET LAST PC STORED AND CHECK TO SEE
 46857	063530	302 00 0 00 063507 		CAIE	%X		;IF ITS WHERE WE REALLY SHOULD BE
 46858						STOP2^^
 46859	063531	254 04 0 00 063532 		HALT	.+1		;HALT IF WE SHOULDN'T BE HERE
 46860	063532	254 00 0 00 063533 		JRST	.+1		;WILD TRANSFER CAUSED THIS HALT.^
 46861
 46862						TSET^^
 46863			063533			%X=.			;DEFINE %X TO SAVE
 46864	063533	201 00 0 00 063533 		MOVEI	%X		;SAVE THIS PC IN CASE OF WILD TRANSFER
 46865	063534	202 00 0 00 071350 		MOVEM	TNUMB#		;BECAUSE OF PC MOD OR INTERRUPT^
 46866						XCHN2	C2N,44,44^
 46867
 46868					;REQUEST INTERRUPTS ON 2 CHANNELS AT ONCE TO SEE IF THEY TRAP
 46869					;TO THE CORRECT (I.E. HIGHEST PRIORITY) CHANNEL.
 46870					;IF ERROR OCCURS CHECK "PIN" PRINT
 46871
 46872						TRPCHK^
 46873	063535	332 00 0 00 030042 	..0117:	SKIPE	MONFLG		;RESET FLAGS IF IN MONITOR
 46874	063536	254 00 0 00 063541 		JRST	.+3		;DONT IF STAND ALONE
 46875	063537	254 02 1 00 063540 		JRSTF	@.+1		;AND RESTORE THEM
 46876	063540	000000	063541			USERF,.+1		;NEW PC AND FLAGS^
 46877						CLRBTH^
 46878	063541	700 04 0 00 267760 		CLRAPR
 46879	063542	700 14 0 00 031577 		CLRPI^
 46880	063543	264 00 0 00 070103 		HALTPI			;FILL INTERRUPT LOCATIONS WITH HALTS
 46881	063544	200 00 0 00 071131 		MOVE	[JSP C2N]		;SET UP FOR CORRECT
 46882	063545	202 00 0 00 000044 		MOVEM	44		;INTERRUPT TRAP
 46883	063546	7 004 20 0 00 002377 		CONO	PI,CHNON!PION!177	;TURN ON PI SYSTEM
 46884	063547	7 004 20 0 00 004044 		CONO	PI,REQSET!44	;REQUEST INTERRUPT ON TWO CHANNELS
 46885						STUCK^
 46886						WATINT^
 46887	063550	201 13 0 00 001000 		MOVEI	13,1000		;SET UP LOOP OF TEN TO WAIT FOR INT.
 46888	063551	367 13 0 00 063551 		SOJG	13,.		;AND WAIT^
 46889	063552	254 00 0 00 063552 		JRST	.		;LOOOP ON SELF^
 46890					^
 46891	063553				C2N:	TBOTH^
 46892						TGET^
 46893	063553	200 00 0 00 071350 		MOVE	TNUMB		;GET LAST PC STORED AND CHECK TO SEE
 46894	063554	302 00 0 00 063533 		CAIE	%X		;IF ITS WHERE WE REALLY SHOULD BE
 46895						STOP2^^
 46896	063555	254 04 0 00 063556 		HALT	.+1		;HALT IF WE SHOULDN'T BE HERE
 46897	063556	254 00 0 00 063557 		JRST	.+1		;WILD TRANSFER CAUSED THIS HALT.^
 46898
 46899						TSET^^
 46900			063557			%X=.			;DEFINE %X TO SAVE
 46901	063557	201 00 0 00 063557 		MOVEI	%X		;SAVE THIS PC IN CASE OF WILD TRANSFER
 46902	063560	202 00 0 00 071350 		MOVEM	TNUMB#		;BECAUSE OF PC MOD OR INTERRUPT^
 46903						XCHN2	C2O,46,24^
 46904
 46905					;REQUEST INTERRUPTS ON 2 CHANNELS AT ONCE TO SEE IF THEY TRAP
 46906					;TO THE CORRECT (I.E. HIGHEST PRIORITY) CHANNEL.
DFKAA PDP-10 KL10 BASIC INSTRUCTION DIAGNOSTIC (1) VER 0,2	MACRO %52(537) 09:34 31-JAN-77 PAGE 39-9
DFKAA8	MAC	25-AUG-75 14:17		DUAL REQUEST TESTING                                                               SEQ 1084

 46907					;IF ERROR OCCURS CHECK "PIN" PRINT
 46908
 46909						TRPCHK^
 46910	063561	332 00 0 00 030042 	..0120:	SKIPE	MONFLG		;RESET FLAGS IF IN MONITOR
 46911	063562	254 00 0 00 063565 		JRST	.+3		;DONT IF STAND ALONE
 46912	063563	254 02 1 00 063564 		JRSTF	@.+1		;AND RESTORE THEM
 46913	063564	000000	063565			USERF,.+1		;NEW PC AND FLAGS^
 46914						CLRBTH^
 46915	063565	700 04 0 00 267760 		CLRAPR
 46916	063566	700 14 0 00 031577 		CLRPI^
 46917	063567	264 00 0 00 070103 		HALTPI			;FILL INTERRUPT LOCATIONS WITH HALTS
 46918	063570	200 00 0 00 071132 		MOVE	[JSP C2O]		;SET UP FOR CORRECT
 46919	063571	202 00 0 00 000046 		MOVEM	46		;INTERRUPT TRAP
 46920	063572	7 004 20 0 00 002377 		CONO	PI,CHNON!PION!177	;TURN ON PI SYSTEM
 46921	063573	7 004 20 0 00 004024 		CONO	PI,REQSET!24	;REQUEST INTERRUPT ON TWO CHANNELS
 46922						STUCK^
 46923						WATINT^
 46924	063574	201 13 0 00 001000 		MOVEI	13,1000		;SET UP LOOP OF TEN TO WAIT FOR INT.
 46925	063575	367 13 0 00 063575 		SOJG	13,.		;AND WAIT^
 46926	063576	254 00 0 00 063576 		JRST	.		;LOOOP ON SELF^
 46927					^
 46928	063577				C2O:	TBOTH^
 46929						TGET^
 46930	063577	200 00 0 00 071350 		MOVE	TNUMB		;GET LAST PC STORED AND CHECK TO SEE
 46931	063600	302 00 0 00 063557 		CAIE	%X		;IF ITS WHERE WE REALLY SHOULD BE
 46932						STOP2^^
 46933	063601	254 04 0 00 063602 		HALT	.+1		;HALT IF WE SHOULDN'T BE HERE
 46934	063602	254 00 0 00 063603 		JRST	.+1		;WILD TRANSFER CAUSED THIS HALT.^
 46935
 46936						TSET^^
 46937			063603			%X=.			;DEFINE %X TO SAVE
 46938	063603	201 00 0 00 063603 		MOVEI	%X		;SAVE THIS PC IN CASE OF WILD TRANSFER
 46939	063604	202 00 0 00 071350 		MOVEM	TNUMB#		;BECAUSE OF PC MOD OR INTERRUPT^
 46940						XCHN2	C2P,50,14^
 46941
 46942					;REQUEST INTERRUPTS ON 2 CHANNELS AT ONCE TO SEE IF THEY TRAP
 46943					;TO THE CORRECT (I.E. HIGHEST PRIORITY) CHANNEL.
 46944					;IF ERROR OCCURS CHECK "PIN" PRINT
 46945
 46946						TRPCHK^
 46947	063605	332 00 0 00 030042 	..0121:	SKIPE	MONFLG		;RESET FLAGS IF IN MONITOR
 46948	063606	254 00 0 00 063611 		JRST	.+3		;DONT IF STAND ALONE
 46949	063607	254 02 1 00 063610 		JRSTF	@.+1		;AND RESTORE THEM
 46950	063610	000000	063611			USERF,.+1		;NEW PC AND FLAGS^
 46951						CLRBTH^
 46952	063611	700 04 0 00 267760 		CLRAPR
 46953	063612	700 14 0 00 031577 		CLRPI^
 46954	063613	264 00 0 00 070103 		HALTPI			;FILL INTERRUPT LOCATIONS WITH HALTS
 46955	063614	200 00 0 00 071133 		MOVE	[JSP C2P]		;SET UP FOR CORRECT
 46956	063615	202 00 0 00 000050 		MOVEM	50		;INTERRUPT TRAP
 46957	063616	7 004 20 0 00 002377 		CONO	PI,CHNON!PION!177	;TURN ON PI SYSTEM
 46958	063617	7 004 20 0 00 004014 		CONO	PI,REQSET!14	;REQUEST INTERRUPT ON TWO CHANNELS
 46959						STUCK^
 46960						WATINT^
 46961	063620	201 13 0 00 001000 		MOVEI	13,1000		;SET UP LOOP OF TEN TO WAIT FOR INT.
DFKAA PDP-10 KL10 BASIC INSTRUCTION DIAGNOSTIC (1) VER 0,2	MACRO %52(537) 09:34 31-JAN-77 PAGE 39-10
DFKAA8	MAC	25-AUG-75 14:17		DUAL REQUEST TESTING                                                               SEQ 1085

 46962	063621	367 13 0 00 063621 		SOJG	13,.		;AND WAIT^
 46963	063622	254 00 0 00 063622 		JRST	.		;LOOOP ON SELF^
 46964					^
 46965	063623				C2P:	TBOTH^
 46966						TGET^
 46967	063623	200 00 0 00 071350 		MOVE	TNUMB		;GET LAST PC STORED AND CHECK TO SEE
 46968	063624	302 00 0 00 063603 		CAIE	%X		;IF ITS WHERE WE REALLY SHOULD BE
 46969						STOP2^^
 46970	063625	254 04 0 00 063626 		HALT	.+1		;HALT IF WE SHOULDN'T BE HERE
 46971	063626	254 00 0 00 063627 		JRST	.+1		;WILD TRANSFER CAUSED THIS HALT.^
 46972
 46973						TSET^^
 46974			063627			%X=.			;DEFINE %X TO SAVE
 46975	063627	201 00 0 00 063627 		MOVEI	%X		;SAVE THIS PC IN CASE OF WILD TRANSFER
 46976	063630	202 00 0 00 071350 		MOVEM	TNUMB#		;BECAUSE OF PC MOD OR INTERRUPT^
 46977						XCHN2	C2Q,42,110^
 46978
 46979					;REQUEST INTERRUPTS ON 2 CHANNELS AT ONCE TO SEE IF THEY TRAP
 46980					;TO THE CORRECT (I.E. HIGHEST PRIORITY) CHANNEL.
 46981					;IF ERROR OCCURS CHECK "PIN" PRINT
 46982
 46983						TRPCHK^
 46984	063631	332 00 0 00 030042 	..0122:	SKIPE	MONFLG		;RESET FLAGS IF IN MONITOR
 46985	063632	254 00 0 00 063635 		JRST	.+3		;DONT IF STAND ALONE
 46986	063633	254 02 1 00 063634 		JRSTF	@.+1		;AND RESTORE THEM
 46987	063634	000000	063635			USERF,.+1		;NEW PC AND FLAGS^
 46988						CLRBTH^
 46989	063635	700 04 0 00 267760 		CLRAPR
 46990	063636	700 14 0 00 031577 		CLRPI^
 46991	063637	264 00 0 00 070103 		HALTPI			;FILL INTERRUPT LOCATIONS WITH HALTS
 46992	063640	200 00 0 00 071134 		MOVE	[JSP C2Q]		;SET UP FOR CORRECT
 46993	063641	202 00 0 00 000042 		MOVEM	42		;INTERRUPT TRAP
 46994	063642	7 004 20 0 00 002377 		CONO	PI,CHNON!PION!177	;TURN ON PI SYSTEM
 46995	063643	7 004 20 0 00 004110 		CONO	PI,REQSET!110	;REQUEST INTERRUPT ON TWO CHANNELS
 46996						STUCK^
 46997						WATINT^
 46998	063644	201 13 0 00 001000 		MOVEI	13,1000		;SET UP LOOP OF TEN TO WAIT FOR INT.
 46999	063645	367 13 0 00 063645 		SOJG	13,.		;AND WAIT^
 47000	063646	254 00 0 00 063646 		JRST	.		;LOOOP ON SELF^
 47001					^
 47002	063647				C2Q:	TBOTH^
 47003						TGET^
 47004	063647	200 00 0 00 071350 		MOVE	TNUMB		;GET LAST PC STORED AND CHECK TO SEE
 47005	063650	302 00 0 00 063627 		CAIE	%X		;IF ITS WHERE WE REALLY SHOULD BE
 47006						STOP2^^
 47007	063651	254 04 0 00 063652 		HALT	.+1		;HALT IF WE SHOULDN'T BE HERE
 47008	063652	254 00 0 00 063653 		JRST	.+1		;WILD TRANSFER CAUSED THIS HALT.^
 47009
 47010						TSET^^
 47011			063653			%X=.			;DEFINE %X TO SAVE
 47012	063653	201 00 0 00 063653 		MOVEI	%X		;SAVE THIS PC IN CASE OF WILD TRANSFER
 47013	063654	202 00 0 00 071350 		MOVEM	TNUMB#		;BECAUSE OF PC MOD OR INTERRUPT^
 47014						XCHN2	C2R,44,50^
 47015
 47016					;REQUEST INTERRUPTS ON 2 CHANNELS AT ONCE TO SEE IF THEY TRAP
DFKAA PDP-10 KL10 BASIC INSTRUCTION DIAGNOSTIC (1) VER 0,2	MACRO %52(537) 09:34 31-JAN-77 PAGE 39-11
DFKAA8	MAC	25-AUG-75 14:17		DUAL REQUEST TESTING                                                               SEQ 1086

 47017					;TO THE CORRECT (I.E. HIGHEST PRIORITY) CHANNEL.
 47018					;IF ERROR OCCURS CHECK "PIN" PRINT
 47019
 47020						TRPCHK^
 47021	063655	332 00 0 00 030042 	..0123:	SKIPE	MONFLG		;RESET FLAGS IF IN MONITOR
 47022	063656	254 00 0 00 063661 		JRST	.+3		;DONT IF STAND ALONE
 47023	063657	254 02 1 00 063660 		JRSTF	@.+1		;AND RESTORE THEM
 47024	063660	000000	063661			USERF,.+1		;NEW PC AND FLAGS^
 47025						CLRBTH^
 47026	063661	700 04 0 00 267760 		CLRAPR
 47027	063662	700 14 0 00 031577 		CLRPI^
 47028	063663	264 00 0 00 070103 		HALTPI			;FILL INTERRUPT LOCATIONS WITH HALTS
 47029	063664	200 00 0 00 071135 		MOVE	[JSP C2R]		;SET UP FOR CORRECT
 47030	063665	202 00 0 00 000044 		MOVEM	44		;INTERRUPT TRAP
 47031	063666	7 004 20 0 00 002377 		CONO	PI,CHNON!PION!177	;TURN ON PI SYSTEM
 47032	063667	7 004 20 0 00 004050 		CONO	PI,REQSET!50	;REQUEST INTERRUPT ON TWO CHANNELS
 47033						STUCK^
 47034						WATINT^
 47035	063670	201 13 0 00 001000 		MOVEI	13,1000		;SET UP LOOP OF TEN TO WAIT FOR INT.
 47036	063671	367 13 0 00 063671 		SOJG	13,.		;AND WAIT^
 47037	063672	254 00 0 00 063672 		JRST	.		;LOOOP ON SELF^
 47038					^
 47039	063673				C2R:	TBOTH^
 47040						TGET^
 47041	063673	200 00 0 00 071350 		MOVE	TNUMB		;GET LAST PC STORED AND CHECK TO SEE
 47042	063674	302 00 0 00 063653 		CAIE	%X		;IF ITS WHERE WE REALLY SHOULD BE
 47043						STOP2^^
 47044	063675	254 04 0 00 063676 		HALT	.+1		;HALT IF WE SHOULDN'T BE HERE
 47045	063676	254 00 0 00 063677 		JRST	.+1		;WILD TRANSFER CAUSED THIS HALT.^
 47046
 47047						TSET^^
 47048			063677			%X=.			;DEFINE %X TO SAVE
 47049	063677	201 00 0 00 063677 		MOVEI	%X		;SAVE THIS PC IN CASE OF WILD TRANSFER
 47050	063700	202 00 0 00 071350 		MOVEM	TNUMB#		;BECAUSE OF PC MOD OR INTERRUPT^
 47051						XCHN2	C2S,46,30^
 47052
 47053					;REQUEST INTERRUPTS ON 2 CHANNELS AT ONCE TO SEE IF THEY TRAP
 47054					;TO THE CORRECT (I.E. HIGHEST PRIORITY) CHANNEL.
 47055					;IF ERROR OCCURS CHECK "PIN" PRINT
 47056
 47057						TRPCHK^
 47058	063701	332 00 0 00 030042 	..0124:	SKIPE	MONFLG		;RESET FLAGS IF IN MONITOR
 47059	063702	254 00 0 00 063705 		JRST	.+3		;DONT IF STAND ALONE
 47060	063703	254 02 1 00 063704 		JRSTF	@.+1		;AND RESTORE THEM
 47061	063704	000000	063705			USERF,.+1		;NEW PC AND FLAGS^
 47062						CLRBTH^
 47063	063705	700 04 0 00 267760 		CLRAPR
 47064	063706	700 14 0 00 031577 		CLRPI^
 47065	063707	264 00 0 00 070103 		HALTPI			;FILL INTERRUPT LOCATIONS WITH HALTS
 47066	063710	200 00 0 00 071136 		MOVE	[JSP C2S]		;SET UP FOR CORRECT
 47067	063711	202 00 0 00 000046 		MOVEM	46		;INTERRUPT TRAP
 47068	063712	7 004 20 0 00 002377 		CONO	PI,CHNON!PION!177	;TURN ON PI SYSTEM
 47069	063713	7 004 20 0 00 004030 		CONO	PI,REQSET!30	;REQUEST INTERRUPT ON TWO CHANNELS
 47070						STUCK^
 47071						WATINT^
DFKAA PDP-10 KL10 BASIC INSTRUCTION DIAGNOSTIC (1) VER 0,2	MACRO %52(537) 09:34 31-JAN-77 PAGE 39-12
DFKAA8	MAC	25-AUG-75 14:17		DUAL REQUEST TESTING                                                               SEQ 1087

 47072	063714	201 13 0 00 001000 		MOVEI	13,1000		;SET UP LOOP OF TEN TO WAIT FOR INT.
 47073	063715	367 13 0 00 063715 		SOJG	13,.		;AND WAIT^
 47074	063716	254 00 0 00 063716 		JRST	.		;LOOOP ON SELF^
 47075					^
 47076	063717				C2S:	TBOTH^
 47077						TGET^
 47078	063717	200 00 0 00 071350 		MOVE	TNUMB		;GET LAST PC STORED AND CHECK TO SEE
 47079	063720	302 00 0 00 063677 		CAIE	%X		;IF ITS WHERE WE REALLY SHOULD BE
 47080						STOP2^^
 47081	063721	254 04 0 00 063722 		HALT	.+1		;HALT IF WE SHOULDN'T BE HERE
 47082	063722	254 00 0 00 063723 		JRST	.+1		;WILD TRANSFER CAUSED THIS HALT.^
 47083
 47084						TSET^^
 47085			063723			%X=.			;DEFINE %X TO SAVE
 47086	063723	201 00 0 00 063723 		MOVEI	%X		;SAVE THIS PC IN CASE OF WILD TRANSFER
 47087	063724	202 00 0 00 071350 		MOVEM	TNUMB#		;BECAUSE OF PC MOD OR INTERRUPT^
 47088						XCHN2	C2T,42,120^
 47089
 47090					;REQUEST INTERRUPTS ON 2 CHANNELS AT ONCE TO SEE IF THEY TRAP
 47091					;TO THE CORRECT (I.E. HIGHEST PRIORITY) CHANNEL.
 47092					;IF ERROR OCCURS CHECK "PIN" PRINT
 47093
 47094						TRPCHK^
 47095	063725	332 00 0 00 030042 	..0125:	SKIPE	MONFLG		;RESET FLAGS IF IN MONITOR
 47096	063726	254 00 0 00 063731 		JRST	.+3		;DONT IF STAND ALONE
 47097	063727	254 02 1 00 063730 		JRSTF	@.+1		;AND RESTORE THEM
 47098	063730	000000	063731			USERF,.+1		;NEW PC AND FLAGS^
 47099						CLRBTH^
 47100	063731	700 04 0 00 267760 		CLRAPR
 47101	063732	700 14 0 00 031577 		CLRPI^
 47102	063733	264 00 0 00 070103 		HALTPI			;FILL INTERRUPT LOCATIONS WITH HALTS
 47103	063734	200 00 0 00 071137 		MOVE	[JSP C2T]		;SET UP FOR CORRECT
 47104	063735	202 00 0 00 000042 		MOVEM	42		;INTERRUPT TRAP
 47105	063736	7 004 20 0 00 002377 		CONO	PI,CHNON!PION!177	;TURN ON PI SYSTEM
 47106	063737	7 004 20 0 00 004120 		CONO	PI,REQSET!120	;REQUEST INTERRUPT ON TWO CHANNELS
 47107						STUCK^
 47108						WATINT^
 47109	063740	201 13 0 00 001000 		MOVEI	13,1000		;SET UP LOOP OF TEN TO WAIT FOR INT.
 47110	063741	367 13 0 00 063741 		SOJG	13,.		;AND WAIT^
 47111	063742	254 00 0 00 063742 		JRST	.		;LOOOP ON SELF^
 47112					^
 47113	063743				C2T:	TBOTH^
 47114						TGET^
 47115	063743	200 00 0 00 071350 		MOVE	TNUMB		;GET LAST PC STORED AND CHECK TO SEE
 47116	063744	302 00 0 00 063723 		CAIE	%X		;IF ITS WHERE WE REALLY SHOULD BE
 47117						STOP2^^
 47118	063745	254 04 0 00 063746 		HALT	.+1		;HALT IF WE SHOULDN'T BE HERE
 47119	063746	254 00 0 00 063747 		JRST	.+1		;WILD TRANSFER CAUSED THIS HALT.^
 47120
 47121						TSET^^
 47122			063747			%X=.			;DEFINE %X TO SAVE
 47123	063747	201 00 0 00 063747 		MOVEI	%X		;SAVE THIS PC IN CASE OF WILD TRANSFER
 47124	063750	202 00 0 00 071350 		MOVEM	TNUMB#		;BECAUSE OF PC MOD OR INTERRUPT^
 47125						XCHN2	C2U,44,60^
 47126
DFKAA PDP-10 KL10 BASIC INSTRUCTION DIAGNOSTIC (1) VER 0,2	MACRO %52(537) 09:34 31-JAN-77 PAGE 39-13
DFKAA8	MAC	25-AUG-75 14:17		DUAL REQUEST TESTING                                                               SEQ 1088

 47127					;REQUEST INTERRUPTS ON 2 CHANNELS AT ONCE TO SEE IF THEY TRAP
 47128					;TO THE CORRECT (I.E. HIGHEST PRIORITY) CHANNEL.
 47129					;IF ERROR OCCURS CHECK "PIN" PRINT
 47130
 47131						TRPCHK^
 47132	063751	332 00 0 00 030042 	..0126:	SKIPE	MONFLG		;RESET FLAGS IF IN MONITOR
 47133	063752	254 00 0 00 063755 		JRST	.+3		;DONT IF STAND ALONE
 47134	063753	254 02 1 00 063754 		JRSTF	@.+1		;AND RESTORE THEM
 47135	063754	000000	063755			USERF,.+1		;NEW PC AND FLAGS^
 47136						CLRBTH^
 47137	063755	700 04 0 00 267760 		CLRAPR
 47138	063756	700 14 0 00 031577 		CLRPI^
 47139	063757	264 00 0 00 070103 		HALTPI			;FILL INTERRUPT LOCATIONS WITH HALTS
 47140	063760	200 00 0 00 071140 		MOVE	[JSP C2U]		;SET UP FOR CORRECT
 47141	063761	202 00 0 00 000044 		MOVEM	44		;INTERRUPT TRAP
 47142	063762	7 004 20 0 00 002377 		CONO	PI,CHNON!PION!177	;TURN ON PI SYSTEM
 47143	063763	7 004 20 0 00 004060 		CONO	PI,REQSET!60	;REQUEST INTERRUPT ON TWO CHANNELS
 47144						STUCK^
 47145						WATINT^
 47146	063764	201 13 0 00 001000 		MOVEI	13,1000		;SET UP LOOP OF TEN TO WAIT FOR INT.
 47147	063765	367 13 0 00 063765 		SOJG	13,.		;AND WAIT^
 47148	063766	254 00 0 00 063766 		JRST	.		;LOOOP ON SELF^
 47149					^
 47150	063767				C2U:	TBOTH^
 47151						TGET^
 47152	063767	200 00 0 00 071350 		MOVE	TNUMB		;GET LAST PC STORED AND CHECK TO SEE
 47153	063770	302 00 0 00 063747 		CAIE	%X		;IF ITS WHERE WE REALLY SHOULD BE
 47154						STOP2^^
 47155	063771	254 04 0 00 063772 		HALT	.+1		;HALT IF WE SHOULDN'T BE HERE
 47156	063772	254 00 0 00 063773 		JRST	.+1		;WILD TRANSFER CAUSED THIS HALT.^
 47157
 47158						TSET^^
 47159			063773			%X=.			;DEFINE %X TO SAVE
 47160	063773	201 00 0 00 063773 		MOVEI	%X		;SAVE THIS PC IN CASE OF WILD TRANSFER
 47161	063774	202 00 0 00 071350 		MOVEM	TNUMB#		;BECAUSE OF PC MOD OR INTERRUPT^
 47162						XCHN2	C2V,42,140^
 47163
 47164					;REQUEST INTERRUPTS ON 2 CHANNELS AT ONCE TO SEE IF THEY TRAP
 47165					;TO THE CORRECT (I.E. HIGHEST PRIORITY) CHANNEL.
 47166					;IF ERROR OCCURS CHECK "PIN" PRINT
 47167
 47168						TRPCHK^
 47169	063775	332 00 0 00 030042 	..0127:	SKIPE	MONFLG		;RESET FLAGS IF IN MONITOR
 47170	063776	254 00 0 00 064001 		JRST	.+3		;DONT IF STAND ALONE
 47171	063777	254 02 1 00 064000 		JRSTF	@.+1		;AND RESTORE THEM
 47172	064000	000000	064001			USERF,.+1		;NEW PC AND FLAGS^
 47173						CLRBTH^
 47174	064001	700 04 0 00 267760 		CLRAPR
 47175	064002	700 14 0 00 031577 		CLRPI^
 47176	064003	264 00 0 00 070103 		HALTPI			;FILL INTERRUPT LOCATIONS WITH HALTS
 47177	064004	200 00 0 00 071141 		MOVE	[JSP C2V]		;SET UP FOR CORRECT
 47178	064005	202 00 0 00 000042 		MOVEM	42		;INTERRUPT TRAP
 47179	064006	7 004 20 0 00 002377 		CONO	PI,CHNON!PION!177	;TURN ON PI SYSTEM
 47180	064007	7 004 20 0 00 004140 		CONO	PI,REQSET!140	;REQUEST INTERRUPT ON TWO CHANNELS
 47181						STUCK^
DFKAA PDP-10 KL10 BASIC INSTRUCTION DIAGNOSTIC (1) VER 0,2	MACRO %52(537) 09:34 31-JAN-77 PAGE 39-14
DFKAA8	MAC	25-AUG-75 14:17		DUAL REQUEST TESTING                                                               SEQ 1089

 47182						WATINT^
 47183	064010	201 13 0 00 001000 		MOVEI	13,1000		;SET UP LOOP OF TEN TO WAIT FOR INT.
 47184	064011	367 13 0 00 064011 		SOJG	13,.		;AND WAIT^
 47185	064012	254 00 0 00 064012 		JRST	.		;LOOOP ON SELF^
 47186					^
 47187	064013	255 00 0 00 000000 		JFCL
 47188	064014				C2V:	TGET^
 47189	064014	200 00 0 00 071350 		MOVE	TNUMB		;GET LAST PC STORED AND CHECK TO SEE
 47190	064015	302 00 0 00 063773 		CAIE	%X		;IF ITS WHERE WE REALLY SHOULD BE
 47191						STOP2^^
 47192	064016	254 04 0 00 064017 		HALT	.+1		;HALT IF WE SHOULDN'T BE HERE
 47193	064017	254 00 0 00 064020 		JRST	.+1		;WILD TRANSFER CAUSED THIS HALT.^
 47194						CLRBTH^
 47195	064020	700 04 0 00 267760 		CLRAPR
 47196	064021	700 14 0 00 031577 		CLRPI^
DFKAA PDP-10 KL10 BASIC INSTRUCTION DIAGNOSTIC (1) VER 0,2	MACRO %52(537) 09:34 31-JAN-77 PAGE 40
DFKAA8	MAC	25-AUG-75 14:17		BASIC NO-SKIP TESTING                                                              SEQ 1090

 47197					SUBTTL	BASIC NO-SKIP TESTING
 47198					;TEST THE PREFORMANCE OF NO SKIPPING INSTRUCTIONS IN THE INTERRUPT LOCATIONS
 47199					;OUT OF EACH POSSIBLE INTERRUPT LOCATION
 47200
 47201			000100			X=100
 47202			000042			Y=42
 47203					SKIPNO:	REPEAT	7,<
 47204						PSKPA	Y,X
 47205						PSKPB	Y,X
 47206						Y=Y+2
 47207						X=X_-1
 47208					>
 47209
 47210						PSKPA	Y,X^
 47211
 47212					;TEST THAT AOSE DOES NOT DISMISS INTERRUPTS, OR SKIP WHEN EXECUTED AS
 47213					;AN INTERRUPT INSTRUCTION.
 47214
 47215						CLRBTH^
 47216	064022	700 04 0 00 267760 		CLRAPR
 47217	064023	700 14 0 00 031577 		CLRPI^
 47218	064024	264 00 0 00 070103 		HALTPI			;FILL INTERRUPT LOCATIONS WITH HALTS
 47219	064025	200 00 0 00 071142 		MOVE	[AOSE 0]	;PI TRAP INSTRUCTION
 47220	064026	202 00 0 00 000042 		MOVEM	Y		;INTO TRAP LOCATION
 47221	064027	200 00 0 00 071143 		MOVE	[JSP 1,..0130]	;SECOND TRAP INSTRUCTION
 47222	064030	202 00 0 00 000043 		MOVEM	Y+1		;INTO SECOND PI INSTRUCTION
 47223	064031	201 00 0 00 000001 		MOVEI	1		;SET AC TO NON ZERO
 47224	064032	7 004 20 0 00 006300 		CONO	PI,REQSET!PION!CHNON!X ;REQUEST INTERRUPT ON CH X
 47225
 47226					;IF WE FALL THROUGH THEN THE INTERRUPT WAS DISMISSED WHEN THE AOS FAILED
 47227
 47228						WATINT^
 47229	064033	201 13 0 00 001000 		MOVEI	13,1000		;SET UP LOOP OF TEN TO WAIT FOR INT.
 47230	064034	367 13 0 00 064034 		SOJG	13,.		;AND WAIT^
 47231						STOP^
 47232	064035	254 04 0 00 064036 		HALT	.+1		;INSTRUCTION FAILED REPLACE
 47233	064036	254 00 0 00 064037 		JRST	.+1		;WITH JRST BACK^
 47234	064037				..0130:	CLRBTH^
 47235	064037	700 04 0 00 267760 		CLRAPR
 47236	064040	700 14 0 00 031577 		CLRPI^
 47237	064041	302 00 0 00 000002 		CAIE	2		;ONLY ONE AOSE PREFORMED?
 47238						STOP^
 47239	064042	254 04 0 00 064043 		HALT	.+1		;INSTRUCTION FAILED REPLACE
 47240	064043	254 00 0 00 064044 		JRST	.+1		;WITH JRST BACK^
 47241					^
 47242						PSKPB	Y,X^
 47243
 47244					;CHECK THAT SKIPE DOES NOT SKIP, OR MODIFY THE AC, OR DISMISS
 47245					;THE INTERRUPT.
 47246
 47247						CLRBTH^
 47248	064044	700 04 0 00 267760 		CLRAPR
 47249	064045	700 14 0 00 031577 		CLRPI^
 47250	064046	264 00 0 00 070103 		HALTPI			;FILL INTERRUPT LOCATIONS WITH HALTS
 47251	064047	200 00 0 00 071144 		MOVE	[SKIPE 0,0]	;PI TRAP INSTRUCTION(SHOULD NOT SKIP)
DFKAA PDP-10 KL10 BASIC INSTRUCTION DIAGNOSTIC (1) VER 0,2	MACRO %52(537) 09:34 31-JAN-77 PAGE 40-1
DFKAA8	MAC	25-AUG-75 14:17		BASIC NO-SKIP TESTING                                                              SEQ 1091

 47252	064050	202 00 0 00 000042 		MOVEM	Y		;INTO TRAP LOCATION
 47253	064051	200 00 0 00 071145 		MOVE	[JSP 1,..0131]	;SECOND TRAP INSTRUCTION
 47254	064052	202 00 0 00 000043 		MOVEM	Y+1		;INTO SECOND PI INSTRUCTION
 47255	064053	201 00 0 00 000001 		MOVEI	1		;SET AC TO NON ZERO
 47256	064054	7 004 20 0 00 006300 		CONO	PI,REQSET!PION!CHNON!X ;REQUEST INTERRUPT ON CH X
 47257
 47258					;IF WE FALL THROUGH TO HERE, THEN THE INT. WAS DISMISSED AND SHOULDN'T HAVE BEEN
 47259
 47260						WATINT^
 47261	064055	201 13 0 00 001000 		MOVEI	13,1000		;SET UP LOOP OF TEN TO WAIT FOR INT.
 47262	064056	367 13 0 00 064056 		SOJG	13,.		;AND WAIT^
 47263						STOP^
 47264	064057	254 04 0 00 064060 		HALT	.+1		;INSTRUCTION FAILED REPLACE
 47265	064060	254 00 0 00 064061 		JRST	.+1		;WITH JRST BACK^
 47266	064061				..0131:	CLRBTH^
 47267	064061	700 04 0 00 267760 		CLRAPR
 47268	064062	700 14 0 00 031577 		CLRPI^
 47269	064063	302 00 0 00 000001 		CAIE	1		;JUMPE SHOULD HAVE NOT MODIFIED THE AC
 47270						STOP^
 47271	064064	254 04 0 00 064065 		HALT	.+1		;INSTRUCTION FAILED REPLACE
 47272	064065	254 00 0 00 064066 		JRST	.+1		;WITH JRST BACK^
 47273					^
 47274			000044			Y=Y+2
 47275			000040			X=X_-1
 47276
 47277
 47278						PSKPA	Y,X^
 47279
 47280					;TEST THAT AOSE DOES NOT DISMISS INTERRUPTS, OR SKIP WHEN EXECUTED AS
 47281					;AN INTERRUPT INSTRUCTION.
 47282
 47283						CLRBTH^
 47284	064066	700 04 0 00 267760 		CLRAPR
 47285	064067	700 14 0 00 031577 		CLRPI^
 47286	064070	264 00 0 00 070103 		HALTPI			;FILL INTERRUPT LOCATIONS WITH HALTS
 47287	064071	200 00 0 00 071142 		MOVE	[AOSE 0]	;PI TRAP INSTRUCTION
 47288	064072	202 00 0 00 000044 		MOVEM	Y		;INTO TRAP LOCATION
 47289	064073	200 00 0 00 071146 		MOVE	[JSP 1,..0132]	;SECOND TRAP INSTRUCTION
 47290	064074	202 00 0 00 000045 		MOVEM	Y+1		;INTO SECOND PI INSTRUCTION
 47291	064075	201 00 0 00 000001 		MOVEI	1		;SET AC TO NON ZERO
 47292	064076	7 004 20 0 00 006240 		CONO	PI,REQSET!PION!CHNON!X ;REQUEST INTERRUPT ON CH X
 47293
 47294					;IF WE FALL THROUGH THEN THE INTERRUPT WAS DISMISSED WHEN THE AOS FAILED
 47295
 47296						WATINT^
 47297	064077	201 13 0 00 001000 		MOVEI	13,1000		;SET UP LOOP OF TEN TO WAIT FOR INT.
 47298	064100	367 13 0 00 064100 		SOJG	13,.		;AND WAIT^
 47299						STOP^
 47300	064101	254 04 0 00 064102 		HALT	.+1		;INSTRUCTION FAILED REPLACE
 47301	064102	254 00 0 00 064103 		JRST	.+1		;WITH JRST BACK^
 47302	064103				..0132:	CLRBTH^
 47303	064103	700 04 0 00 267760 		CLRAPR
 47304	064104	700 14 0 00 031577 		CLRPI^
 47305	064105	302 00 0 00 000002 		CAIE	2		;ONLY ONE AOSE PREFORMED?
 47306						STOP^
DFKAA PDP-10 KL10 BASIC INSTRUCTION DIAGNOSTIC (1) VER 0,2	MACRO %52(537) 09:34 31-JAN-77 PAGE 40-2
DFKAA8	MAC	25-AUG-75 14:17		BASIC NO-SKIP TESTING                                                              SEQ 1092

 47307	064106	254 04 0 00 064107 		HALT	.+1		;INSTRUCTION FAILED REPLACE
 47308	064107	254 00 0 00 064110 		JRST	.+1		;WITH JRST BACK^
 47309					^
 47310						PSKPB	Y,X^
 47311
 47312					;CHECK THAT SKIPE DOES NOT SKIP, OR MODIFY THE AC, OR DISMISS
 47313					;THE INTERRUPT.
 47314
 47315						CLRBTH^
 47316	064110	700 04 0 00 267760 		CLRAPR
 47317	064111	700 14 0 00 031577 		CLRPI^
 47318	064112	264 00 0 00 070103 		HALTPI			;FILL INTERRUPT LOCATIONS WITH HALTS
 47319	064113	200 00 0 00 071144 		MOVE	[SKIPE 0,0]	;PI TRAP INSTRUCTION(SHOULD NOT SKIP)
 47320	064114	202 00 0 00 000044 		MOVEM	Y		;INTO TRAP LOCATION
 47321	064115	200 00 0 00 071147 		MOVE	[JSP 1,..0133]	;SECOND TRAP INSTRUCTION
 47322	064116	202 00 0 00 000045 		MOVEM	Y+1		;INTO SECOND PI INSTRUCTION
 47323	064117	201 00 0 00 000001 		MOVEI	1		;SET AC TO NON ZERO
 47324	064120	7 004 20 0 00 006240 		CONO	PI,REQSET!PION!CHNON!X ;REQUEST INTERRUPT ON CH X
 47325
 47326					;IF WE FALL THROUGH TO HERE, THEN THE INT. WAS DISMISSED AND SHOULDN'T HAVE BEEN
 47327
 47328						WATINT^
 47329	064121	201 13 0 00 001000 		MOVEI	13,1000		;SET UP LOOP OF TEN TO WAIT FOR INT.
 47330	064122	367 13 0 00 064122 		SOJG	13,.		;AND WAIT^
 47331						STOP^
 47332	064123	254 04 0 00 064124 		HALT	.+1		;INSTRUCTION FAILED REPLACE
 47333	064124	254 00 0 00 064125 		JRST	.+1		;WITH JRST BACK^
 47334	064125				..0133:	CLRBTH^
 47335	064125	700 04 0 00 267760 		CLRAPR
 47336	064126	700 14 0 00 031577 		CLRPI^
 47337	064127	302 00 0 00 000001 		CAIE	1		;JUMPE SHOULD HAVE NOT MODIFIED THE AC
 47338						STOP^
 47339	064130	254 04 0 00 064131 		HALT	.+1		;INSTRUCTION FAILED REPLACE
 47340	064131	254 00 0 00 064132 		JRST	.+1		;WITH JRST BACK^
 47341					^
 47342			000046			Y=Y+2
 47343			000020			X=X_-1
 47344
 47345
 47346						PSKPA	Y,X^
 47347
 47348					;TEST THAT AOSE DOES NOT DISMISS INTERRUPTS, OR SKIP WHEN EXECUTED AS
 47349					;AN INTERRUPT INSTRUCTION.
 47350
 47351						CLRBTH^
 47352	064132	700 04 0 00 267760 		CLRAPR
 47353	064133	700 14 0 00 031577 		CLRPI^
 47354	064134	264 00 0 00 070103 		HALTPI			;FILL INTERRUPT LOCATIONS WITH HALTS
 47355	064135	200 00 0 00 071142 		MOVE	[AOSE 0]	;PI TRAP INSTRUCTION
 47356	064136	202 00 0 00 000046 		MOVEM	Y		;INTO TRAP LOCATION
 47357	064137	200 00 0 00 071150 		MOVE	[JSP 1,..0134]	;SECOND TRAP INSTRUCTION
 47358	064140	202 00 0 00 000047 		MOVEM	Y+1		;INTO SECOND PI INSTRUCTION
 47359	064141	201 00 0 00 000001 		MOVEI	1		;SET AC TO NON ZERO
 47360	064142	7 004 20 0 00 006220 		CONO	PI,REQSET!PION!CHNON!X ;REQUEST INTERRUPT ON CH X
 47361
DFKAA PDP-10 KL10 BASIC INSTRUCTION DIAGNOSTIC (1) VER 0,2	MACRO %52(537) 09:34 31-JAN-77 PAGE 40-3
DFKAA8	MAC	25-AUG-75 14:17		BASIC NO-SKIP TESTING                                                              SEQ 1093

 47362					;IF WE FALL THROUGH THEN THE INTERRUPT WAS DISMISSED WHEN THE AOS FAILED
 47363
 47364						WATINT^
 47365	064143	201 13 0 00 001000 		MOVEI	13,1000		;SET UP LOOP OF TEN TO WAIT FOR INT.
 47366	064144	367 13 0 00 064144 		SOJG	13,.		;AND WAIT^
 47367						STOP^
 47368	064145	254 04 0 00 064146 		HALT	.+1		;INSTRUCTION FAILED REPLACE
 47369	064146	254 00 0 00 064147 		JRST	.+1		;WITH JRST BACK^
 47370	064147				..0134:	CLRBTH^
 47371	064147	700 04 0 00 267760 		CLRAPR
 47372	064150	700 14 0 00 031577 		CLRPI^
 47373	064151	302 00 0 00 000002 		CAIE	2		;ONLY ONE AOSE PREFORMED?
 47374						STOP^
 47375	064152	254 04 0 00 064153 		HALT	.+1		;INSTRUCTION FAILED REPLACE
 47376	064153	254 00 0 00 064154 		JRST	.+1		;WITH JRST BACK^
 47377					^
 47378						PSKPB	Y,X^
 47379
 47380					;CHECK THAT SKIPE DOES NOT SKIP, OR MODIFY THE AC, OR DISMISS
 47381					;THE INTERRUPT.
 47382
 47383						CLRBTH^
 47384	064154	700 04 0 00 267760 		CLRAPR
 47385	064155	700 14 0 00 031577 		CLRPI^
 47386	064156	264 00 0 00 070103 		HALTPI			;FILL INTERRUPT LOCATIONS WITH HALTS
 47387	064157	200 00 0 00 071144 		MOVE	[SKIPE 0,0]	;PI TRAP INSTRUCTION(SHOULD NOT SKIP)
 47388	064160	202 00 0 00 000046 		MOVEM	Y		;INTO TRAP LOCATION
 47389	064161	200 00 0 00 071151 		MOVE	[JSP 1,..0135]	;SECOND TRAP INSTRUCTION
 47390	064162	202 00 0 00 000047 		MOVEM	Y+1		;INTO SECOND PI INSTRUCTION
 47391	064163	201 00 0 00 000001 		MOVEI	1		;SET AC TO NON ZERO
 47392	064164	7 004 20 0 00 006220 		CONO	PI,REQSET!PION!CHNON!X ;REQUEST INTERRUPT ON CH X
 47393
 47394					;IF WE FALL THROUGH TO HERE, THEN THE INT. WAS DISMISSED AND SHOULDN'T HAVE BEEN
 47395
 47396						WATINT^
 47397	064165	201 13 0 00 001000 		MOVEI	13,1000		;SET UP LOOP OF TEN TO WAIT FOR INT.
 47398	064166	367 13 0 00 064166 		SOJG	13,.		;AND WAIT^
 47399						STOP^
 47400	064167	254 04 0 00 064170 		HALT	.+1		;INSTRUCTION FAILED REPLACE
 47401	064170	254 00 0 00 064171 		JRST	.+1		;WITH JRST BACK^
 47402	064171				..0135:	CLRBTH^
 47403	064171	700 04 0 00 267760 		CLRAPR
 47404	064172	700 14 0 00 031577 		CLRPI^
 47405	064173	302 00 0 00 000001 		CAIE	1		;JUMPE SHOULD HAVE NOT MODIFIED THE AC
 47406						STOP^
 47407	064174	254 04 0 00 064175 		HALT	.+1		;INSTRUCTION FAILED REPLACE
 47408	064175	254 00 0 00 064176 		JRST	.+1		;WITH JRST BACK^
 47409					^
 47410			000050			Y=Y+2
 47411			000010			X=X_-1
 47412
 47413
 47414						PSKPA	Y,X^
 47415
 47416					;TEST THAT AOSE DOES NOT DISMISS INTERRUPTS, OR SKIP WHEN EXECUTED AS
DFKAA PDP-10 KL10 BASIC INSTRUCTION DIAGNOSTIC (1) VER 0,2	MACRO %52(537) 09:34 31-JAN-77 PAGE 40-4
DFKAA8	MAC	25-AUG-75 14:17		BASIC NO-SKIP TESTING                                                              SEQ 1094

 47417					;AN INTERRUPT INSTRUCTION.
 47418
 47419						CLRBTH^
 47420	064176	700 04 0 00 267760 		CLRAPR
 47421	064177	700 14 0 00 031577 		CLRPI^
 47422	064200	264 00 0 00 070103 		HALTPI			;FILL INTERRUPT LOCATIONS WITH HALTS
 47423	064201	200 00 0 00 071142 		MOVE	[AOSE 0]	;PI TRAP INSTRUCTION
 47424	064202	202 00 0 00 000050 		MOVEM	Y		;INTO TRAP LOCATION
 47425	064203	200 00 0 00 071152 		MOVE	[JSP 1,..0136]	;SECOND TRAP INSTRUCTION
 47426	064204	202 00 0 00 000051 		MOVEM	Y+1		;INTO SECOND PI INSTRUCTION
 47427	064205	201 00 0 00 000001 		MOVEI	1		;SET AC TO NON ZERO
 47428	064206	7 004 20 0 00 006210 		CONO	PI,REQSET!PION!CHNON!X ;REQUEST INTERRUPT ON CH X
 47429
 47430					;IF WE FALL THROUGH THEN THE INTERRUPT WAS DISMISSED WHEN THE AOS FAILED
 47431
 47432						WATINT^
 47433	064207	201 13 0 00 001000 		MOVEI	13,1000		;SET UP LOOP OF TEN TO WAIT FOR INT.
 47434	064210	367 13 0 00 064210 		SOJG	13,.		;AND WAIT^
 47435						STOP^
 47436	064211	254 04 0 00 064212 		HALT	.+1		;INSTRUCTION FAILED REPLACE
 47437	064212	254 00 0 00 064213 		JRST	.+1		;WITH JRST BACK^
 47438	064213				..0136:	CLRBTH^
 47439	064213	700 04 0 00 267760 		CLRAPR
 47440	064214	700 14 0 00 031577 		CLRPI^
 47441	064215	302 00 0 00 000002 		CAIE	2		;ONLY ONE AOSE PREFORMED?
 47442						STOP^
 47443	064216	254 04 0 00 064217 		HALT	.+1		;INSTRUCTION FAILED REPLACE
 47444	064217	254 00 0 00 064220 		JRST	.+1		;WITH JRST BACK^
 47445					^
 47446						PSKPB	Y,X^
 47447
 47448					;CHECK THAT SKIPE DOES NOT SKIP, OR MODIFY THE AC, OR DISMISS
 47449					;THE INTERRUPT.
 47450
 47451						CLRBTH^
 47452	064220	700 04 0 00 267760 		CLRAPR
 47453	064221	700 14 0 00 031577 		CLRPI^
 47454	064222	264 00 0 00 070103 		HALTPI			;FILL INTERRUPT LOCATIONS WITH HALTS
 47455	064223	200 00 0 00 071144 		MOVE	[SKIPE 0,0]	;PI TRAP INSTRUCTION(SHOULD NOT SKIP)
 47456	064224	202 00 0 00 000050 		MOVEM	Y		;INTO TRAP LOCATION
 47457	064225	200 00 0 00 071153 		MOVE	[JSP 1,..0137]	;SECOND TRAP INSTRUCTION
 47458	064226	202 00 0 00 000051 		MOVEM	Y+1		;INTO SECOND PI INSTRUCTION
 47459	064227	201 00 0 00 000001 		MOVEI	1		;SET AC TO NON ZERO
 47460	064230	7 004 20 0 00 006210 		CONO	PI,REQSET!PION!CHNON!X ;REQUEST INTERRUPT ON CH X
 47461
 47462					;IF WE FALL THROUGH TO HERE, THEN THE INT. WAS DISMISSED AND SHOULDN'T HAVE BEEN
 47463
 47464						WATINT^
 47465	064231	201 13 0 00 001000 		MOVEI	13,1000		;SET UP LOOP OF TEN TO WAIT FOR INT.
 47466	064232	367 13 0 00 064232 		SOJG	13,.		;AND WAIT^
 47467						STOP^
 47468	064233	254 04 0 00 064234 		HALT	.+1		;INSTRUCTION FAILED REPLACE
 47469	064234	254 00 0 00 064235 		JRST	.+1		;WITH JRST BACK^
 47470	064235				..0137:	CLRBTH^
 47471	064235	700 04 0 00 267760 		CLRAPR
DFKAA PDP-10 KL10 BASIC INSTRUCTION DIAGNOSTIC (1) VER 0,2	MACRO %52(537) 09:34 31-JAN-77 PAGE 40-5
DFKAA8	MAC	25-AUG-75 14:17		BASIC NO-SKIP TESTING                                                              SEQ 1095

 47472	064236	700 14 0 00 031577 		CLRPI^
 47473	064237	302 00 0 00 000001 		CAIE	1		;JUMPE SHOULD HAVE NOT MODIFIED THE AC
 47474						STOP^
 47475	064240	254 04 0 00 064241 		HALT	.+1		;INSTRUCTION FAILED REPLACE
 47476	064241	254 00 0 00 064242 		JRST	.+1		;WITH JRST BACK^
 47477					^
 47478			000052			Y=Y+2
 47479			000004			X=X_-1
 47480
 47481
 47482						PSKPA	Y,X^
 47483
 47484					;TEST THAT AOSE DOES NOT DISMISS INTERRUPTS, OR SKIP WHEN EXECUTED AS
 47485					;AN INTERRUPT INSTRUCTION.
 47486
 47487						CLRBTH^
 47488	064242	700 04 0 00 267760 		CLRAPR
 47489	064243	700 14 0 00 031577 		CLRPI^
 47490	064244	264 00 0 00 070103 		HALTPI			;FILL INTERRUPT LOCATIONS WITH HALTS
 47491	064245	200 00 0 00 071142 		MOVE	[AOSE 0]	;PI TRAP INSTRUCTION
 47492	064246	202 00 0 00 000052 		MOVEM	Y		;INTO TRAP LOCATION
 47493	064247	200 00 0 00 071154 		MOVE	[JSP 1,..0140]	;SECOND TRAP INSTRUCTION
 47494	064250	202 00 0 00 000053 		MOVEM	Y+1		;INTO SECOND PI INSTRUCTION
 47495	064251	201 00 0 00 000001 		MOVEI	1		;SET AC TO NON ZERO
 47496	064252	7 004 20 0 00 006204 		CONO	PI,REQSET!PION!CHNON!X ;REQUEST INTERRUPT ON CH X
 47497
 47498					;IF WE FALL THROUGH THEN THE INTERRUPT WAS DISMISSED WHEN THE AOS FAILED
 47499
 47500						WATINT^
 47501	064253	201 13 0 00 001000 		MOVEI	13,1000		;SET UP LOOP OF TEN TO WAIT FOR INT.
 47502	064254	367 13 0 00 064254 		SOJG	13,.		;AND WAIT^
 47503						STOP^
 47504	064255	254 04 0 00 064256 		HALT	.+1		;INSTRUCTION FAILED REPLACE
 47505	064256	254 00 0 00 064257 		JRST	.+1		;WITH JRST BACK^
 47506	064257				..0140:	CLRBTH^
 47507	064257	700 04 0 00 267760 		CLRAPR
 47508	064260	700 14 0 00 031577 		CLRPI^
 47509	064261	302 00 0 00 000002 		CAIE	2		;ONLY ONE AOSE PREFORMED?
 47510						STOP^
 47511	064262	254 04 0 00 064263 		HALT	.+1		;INSTRUCTION FAILED REPLACE
 47512	064263	254 00 0 00 064264 		JRST	.+1		;WITH JRST BACK^
 47513					^
 47514						PSKPB	Y,X^
 47515
 47516					;CHECK THAT SKIPE DOES NOT SKIP, OR MODIFY THE AC, OR DISMISS
 47517					;THE INTERRUPT.
 47518
 47519						CLRBTH^
 47520	064264	700 04 0 00 267760 		CLRAPR
 47521	064265	700 14 0 00 031577 		CLRPI^
 47522	064266	264 00 0 00 070103 		HALTPI			;FILL INTERRUPT LOCATIONS WITH HALTS
 47523	064267	200 00 0 00 071144 		MOVE	[SKIPE 0,0]	;PI TRAP INSTRUCTION(SHOULD NOT SKIP)
 47524	064270	202 00 0 00 000052 		MOVEM	Y		;INTO TRAP LOCATION
 47525	064271	200 00 0 00 071155 		MOVE	[JSP 1,..0141]	;SECOND TRAP INSTRUCTION
 47526	064272	202 00 0 00 000053 		MOVEM	Y+1		;INTO SECOND PI INSTRUCTION
DFKAA PDP-10 KL10 BASIC INSTRUCTION DIAGNOSTIC (1) VER 0,2	MACRO %52(537) 09:34 31-JAN-77 PAGE 40-6
DFKAA8	MAC	25-AUG-75 14:17		BASIC NO-SKIP TESTING                                                              SEQ 1096

 47527	064273	201 00 0 00 000001 		MOVEI	1		;SET AC TO NON ZERO
 47528	064274	7 004 20 0 00 006204 		CONO	PI,REQSET!PION!CHNON!X ;REQUEST INTERRUPT ON CH X
 47529
 47530					;IF WE FALL THROUGH TO HERE, THEN THE INT. WAS DISMISSED AND SHOULDN'T HAVE BEEN
 47531
 47532						WATINT^
 47533	064275	201 13 0 00 001000 		MOVEI	13,1000		;SET UP LOOP OF TEN TO WAIT FOR INT.
 47534	064276	367 13 0 00 064276 		SOJG	13,.		;AND WAIT^
 47535						STOP^
 47536	064277	254 04 0 00 064300 		HALT	.+1		;INSTRUCTION FAILED REPLACE
 47537	064300	254 00 0 00 064301 		JRST	.+1		;WITH JRST BACK^
 47538	064301				..0141:	CLRBTH^
 47539	064301	700 04 0 00 267760 		CLRAPR
 47540	064302	700 14 0 00 031577 		CLRPI^
 47541	064303	302 00 0 00 000001 		CAIE	1		;JUMPE SHOULD HAVE NOT MODIFIED THE AC
 47542						STOP^
 47543	064304	254 04 0 00 064305 		HALT	.+1		;INSTRUCTION FAILED REPLACE
 47544	064305	254 00 0 00 064306 		JRST	.+1		;WITH JRST BACK^
 47545					^
 47546			000054			Y=Y+2
 47547			000002			X=X_-1
 47548
 47549
 47550						PSKPA	Y,X^
 47551
 47552					;TEST THAT AOSE DOES NOT DISMISS INTERRUPTS, OR SKIP WHEN EXECUTED AS
 47553					;AN INTERRUPT INSTRUCTION.
 47554
 47555						CLRBTH^
 47556	064306	700 04 0 00 267760 		CLRAPR
 47557	064307	700 14 0 00 031577 		CLRPI^
 47558	064310	264 00 0 00 070103 		HALTPI			;FILL INTERRUPT LOCATIONS WITH HALTS
 47559	064311	200 00 0 00 071142 		MOVE	[AOSE 0]	;PI TRAP INSTRUCTION
 47560	064312	202 00 0 00 000054 		MOVEM	Y		;INTO TRAP LOCATION
 47561	064313	200 00 0 00 071156 		MOVE	[JSP 1,..0142]	;SECOND TRAP INSTRUCTION
 47562	064314	202 00 0 00 000055 		MOVEM	Y+1		;INTO SECOND PI INSTRUCTION
 47563	064315	201 00 0 00 000001 		MOVEI	1		;SET AC TO NON ZERO
 47564	064316	7 004 20 0 00 006202 		CONO	PI,REQSET!PION!CHNON!X ;REQUEST INTERRUPT ON CH X
 47565
 47566					;IF WE FALL THROUGH THEN THE INTERRUPT WAS DISMISSED WHEN THE AOS FAILED
 47567
 47568						WATINT^
 47569	064317	201 13 0 00 001000 		MOVEI	13,1000		;SET UP LOOP OF TEN TO WAIT FOR INT.
 47570	064320	367 13 0 00 064320 		SOJG	13,.		;AND WAIT^
 47571						STOP^
 47572	064321	254 04 0 00 064322 		HALT	.+1		;INSTRUCTION FAILED REPLACE
 47573	064322	254 00 0 00 064323 		JRST	.+1		;WITH JRST BACK^
 47574	064323				..0142:	CLRBTH^
 47575	064323	700 04 0 00 267760 		CLRAPR
 47576	064324	700 14 0 00 031577 		CLRPI^
 47577	064325	302 00 0 00 000002 		CAIE	2		;ONLY ONE AOSE PREFORMED?
 47578						STOP^
 47579	064326	254 04 0 00 064327 		HALT	.+1		;INSTRUCTION FAILED REPLACE
 47580	064327	254 00 0 00 064330 		JRST	.+1		;WITH JRST BACK^
 47581					^
DFKAA PDP-10 KL10 BASIC INSTRUCTION DIAGNOSTIC (1) VER 0,2	MACRO %52(537) 09:34 31-JAN-77 PAGE 40-7
DFKAA8	MAC	25-AUG-75 14:17		BASIC NO-SKIP TESTING                                                              SEQ 1097

 47582						PSKPB	Y,X^
 47583
 47584					;CHECK THAT SKIPE DOES NOT SKIP, OR MODIFY THE AC, OR DISMISS
 47585					;THE INTERRUPT.
 47586
 47587						CLRBTH^
 47588	064330	700 04 0 00 267760 		CLRAPR
 47589	064331	700 14 0 00 031577 		CLRPI^
 47590	064332	264 00 0 00 070103 		HALTPI			;FILL INTERRUPT LOCATIONS WITH HALTS
 47591	064333	200 00 0 00 071144 		MOVE	[SKIPE 0,0]	;PI TRAP INSTRUCTION(SHOULD NOT SKIP)
 47592	064334	202 00 0 00 000054 		MOVEM	Y		;INTO TRAP LOCATION
 47593	064335	200 00 0 00 071157 		MOVE	[JSP 1,..0143]	;SECOND TRAP INSTRUCTION
 47594	064336	202 00 0 00 000055 		MOVEM	Y+1		;INTO SECOND PI INSTRUCTION
 47595	064337	201 00 0 00 000001 		MOVEI	1		;SET AC TO NON ZERO
 47596	064340	7 004 20 0 00 006202 		CONO	PI,REQSET!PION!CHNON!X ;REQUEST INTERRUPT ON CH X
 47597
 47598					;IF WE FALL THROUGH TO HERE, THEN THE INT. WAS DISMISSED AND SHOULDN'T HAVE BEEN
 47599
 47600						WATINT^
 47601	064341	201 13 0 00 001000 		MOVEI	13,1000		;SET UP LOOP OF TEN TO WAIT FOR INT.
 47602	064342	367 13 0 00 064342 		SOJG	13,.		;AND WAIT^
 47603						STOP^
 47604	064343	254 04 0 00 064344 		HALT	.+1		;INSTRUCTION FAILED REPLACE
 47605	064344	254 00 0 00 064345 		JRST	.+1		;WITH JRST BACK^
 47606	064345				..0143:	CLRBTH^
 47607	064345	700 04 0 00 267760 		CLRAPR
 47608	064346	700 14 0 00 031577 		CLRPI^
 47609	064347	302 00 0 00 000001 		CAIE	1		;JUMPE SHOULD HAVE NOT MODIFIED THE AC
 47610						STOP^
 47611	064350	254 04 0 00 064351 		HALT	.+1		;INSTRUCTION FAILED REPLACE
 47612	064351	254 00 0 00 064352 		JRST	.+1		;WITH JRST BACK^
 47613					^
 47614			000056			Y=Y+2
 47615			000001			X=X_-1
 47616
 47617
 47618						PSKPA	Y,X^
 47619
 47620					;TEST THAT AOSE DOES NOT DISMISS INTERRUPTS, OR SKIP WHEN EXECUTED AS
 47621					;AN INTERRUPT INSTRUCTION.
 47622
 47623						CLRBTH^
 47624	064352	700 04 0 00 267760 		CLRAPR
 47625	064353	700 14 0 00 031577 		CLRPI^
 47626	064354	264 00 0 00 070103 		HALTPI			;FILL INTERRUPT LOCATIONS WITH HALTS
 47627	064355	200 00 0 00 071142 		MOVE	[AOSE 0]	;PI TRAP INSTRUCTION
 47628	064356	202 00 0 00 000056 		MOVEM	Y		;INTO TRAP LOCATION
 47629	064357	200 00 0 00 071160 		MOVE	[JSP 1,..0144]	;SECOND TRAP INSTRUCTION
 47630	064360	202 00 0 00 000057 		MOVEM	Y+1		;INTO SECOND PI INSTRUCTION
 47631	064361	201 00 0 00 000001 		MOVEI	1		;SET AC TO NON ZERO
 47632	064362	7 004 20 0 00 006201 		CONO	PI,REQSET!PION!CHNON!X ;REQUEST INTERRUPT ON CH X
 47633
 47634					;IF WE FALL THROUGH THEN THE INTERRUPT WAS DISMISSED WHEN THE AOS FAILED
 47635
 47636						WATINT^
DFKAA PDP-10 KL10 BASIC INSTRUCTION DIAGNOSTIC (1) VER 0,2	MACRO %52(537) 09:34 31-JAN-77 PAGE 40-8
DFKAA8	MAC	25-AUG-75 14:17		BASIC NO-SKIP TESTING                                                              SEQ 1098

 47637	064363	201 13 0 00 001000 		MOVEI	13,1000		;SET UP LOOP OF TEN TO WAIT FOR INT.
 47638	064364	367 13 0 00 064364 		SOJG	13,.		;AND WAIT^
 47639						STOP^
 47640	064365	254 04 0 00 064366 		HALT	.+1		;INSTRUCTION FAILED REPLACE
 47641	064366	254 00 0 00 064367 		JRST	.+1		;WITH JRST BACK^
 47642	064367				..0144:	CLRBTH^
 47643	064367	700 04 0 00 267760 		CLRAPR
 47644	064370	700 14 0 00 031577 		CLRPI^
 47645	064371	302 00 0 00 000002 		CAIE	2		;ONLY ONE AOSE PREFORMED?
 47646						STOP^
 47647	064372	254 04 0 00 064373 		HALT	.+1		;INSTRUCTION FAILED REPLACE
 47648	064373	254 00 0 00 064374 		JRST	.+1		;WITH JRST BACK^
 47649					^
 47650						PSKPB	Y,X^
 47651
 47652					;CHECK THAT SKIPE DOES NOT SKIP, OR MODIFY THE AC, OR DISMISS
 47653					;THE INTERRUPT.
 47654
 47655						CLRBTH^
 47656	064374	700 04 0 00 267760 		CLRAPR
 47657	064375	700 14 0 00 031577 		CLRPI^
 47658	064376	264 00 0 00 070103 		HALTPI			;FILL INTERRUPT LOCATIONS WITH HALTS
 47659	064377	200 00 0 00 071144 		MOVE	[SKIPE 0,0]	;PI TRAP INSTRUCTION(SHOULD NOT SKIP)
 47660	064400	202 00 0 00 000056 		MOVEM	Y		;INTO TRAP LOCATION
 47661	064401	200 00 0 00 071161 		MOVE	[JSP 1,..0145]	;SECOND TRAP INSTRUCTION
 47662	064402	202 00 0 00 000057 		MOVEM	Y+1		;INTO SECOND PI INSTRUCTION
 47663	064403	201 00 0 00 000001 		MOVEI	1		;SET AC TO NON ZERO
 47664	064404	7 004 20 0 00 006201 		CONO	PI,REQSET!PION!CHNON!X ;REQUEST INTERRUPT ON CH X
 47665
 47666					;IF WE FALL THROUGH TO HERE, THEN THE INT. WAS DISMISSED AND SHOULDN'T HAVE BEEN
 47667
 47668						WATINT^
 47669	064405	201 13 0 00 001000 		MOVEI	13,1000		;SET UP LOOP OF TEN TO WAIT FOR INT.
 47670	064406	367 13 0 00 064406 		SOJG	13,.		;AND WAIT^
 47671						STOP^
 47672	064407	254 04 0 00 064410 		HALT	.+1		;INSTRUCTION FAILED REPLACE
 47673	064410	254 00 0 00 064411 		JRST	.+1		;WITH JRST BACK^
 47674	064411				..0145:	CLRBTH^
 47675	064411	700 04 0 00 267760 		CLRAPR
 47676	064412	700 14 0 00 031577 		CLRPI^
 47677	064413	302 00 0 00 000001 		CAIE	1		;JUMPE SHOULD HAVE NOT MODIFIED THE AC
 47678						STOP^
 47679	064414	254 04 0 00 064415 		HALT	.+1		;INSTRUCTION FAILED REPLACE
 47680	064415	254 00 0 00 064416 		JRST	.+1		;WITH JRST BACK^
 47681					^
 47682			000060			Y=Y+2
 47683			000000			X=X_-1
 47684
DFKAA PDP-10 KL10 BASIC INSTRUCTION DIAGNOSTIC (1) VER 0,2	MACRO %52(537) 09:34 31-JAN-77 PAGE 41
DFKAA8	MAC	25-AUG-75 14:17		TEST THE ABILITY TO DISMISS INTERRUPTS                                             SEQ 1099

 47685					SUBTTL	TEST THE ABILITY TO DISMISS INTERRUPTS
 47686					;CHECK THAT "JEN" DISMISSES INTERRUPTS
 47687
 47688
 47689			000042			X=42
 47690			000100			Z1=100
 47691					JENDIS:	REPEAT	7,<
 47692						PIDIS	X,Z1
 47693
 47694						X=X+2
 47695						Z1=Z1_-1
 47696					>
 47697
 47698						PIDIS	X,Z1^
 47699
 47700					;CHECK THAT X JEN WILL DISMISS INTERUPTS ON ALL CHANNELS
 47701
 47702						TSET^
 47703			064416			%X=.			;DEFINE %X TO SAVE
 47704	064416	201 00 0 00 064416 		MOVEI	%X		;SAVE THIS PC IN CASE OF WILD TRANSFER
 47705	064417	202 00 0 00 071350 		MOVEM	TNUMB#		;BECAUSE OF PC MOD OR INTERRUPT^
 47706	064420	200 00 0 00 071162 	..0146:	MOVE	[JSP 1,.+6]	;PUT THE PI TRAP INSTRUCTION
 47707	064421	202 00 0 00 000042 		MOVEM	X		;INTO X
 47708	064422	7 004 20 0 00 006300 		CONO	PI,CHNON+PION+REQSET+Z1	;TURN ON PI AND REQEST ON CH Z1
 47709						WATINT^
 47710	064423	201 13 0 00 001000 		MOVEI	13,1000		;SET UP LOOP OF TEN TO WAIT FOR INT.
 47711	064424	367 13 0 00 064424 		SOJG	13,.		;AND WAIT^
 47712	064425	254 00 0 00 064430 		JRST	.+3
 47713	064426	7 004 20 0 00 022300 		CONO	PI,CHNON+PION+LRQCLR+Z1	;TURN OF INTERRUPT REQUEST
 47714	064427	254 12 1 00 000001 		JEN	@1		;DISMISS THE INTERRUPT
 47715	064430	7 004 30 0 00 077400 		CONSZ	PI,77400	;NO REQUESTS SHOULD BE SET
 47716						STOP^
 47717	064431	254 04 0 00 064432 		HALT	.+1		;INSTRUCTION FAILED REPLACE
 47718	064432	254 00 0 00 064433 		JRST	.+1		;WITH JRST BACK^
 47719						TGET^
 47720	064433	200 00 0 00 071350 		MOVE	TNUMB		;GET LAST PC STORED AND CHECK TO SEE
 47721	064434	302 00 0 00 064416 		CAIE	%X		;IF ITS WHERE WE REALLY SHOULD BE
 47722						STOP2^^
 47723	064435	254 04 0 00 064436 		HALT	.+1		;HALT IF WE SHOULDN'T BE HERE
 47724	064436	254 00 0 00 064437 		JRST	.+1		;WILD TRANSFER CAUSED THIS HALT.^
 47725						CLRBTH^
 47726	064437	700 04 0 00 267760 		CLRAPR
 47727	064440	700 14 0 00 031577 		CLRPI^
 47728					^
 47729
 47730			000044			X=X+2
 47731			000040			Z1=Z1_-1
 47732
 47733
 47734						PIDIS	X,Z1^
 47735
 47736					;CHECK THAT X JEN WILL DISMISS INTERUPTS ON ALL CHANNELS
 47737
 47738						TSET^
 47739			064441			%X=.			;DEFINE %X TO SAVE
DFKAA PDP-10 KL10 BASIC INSTRUCTION DIAGNOSTIC (1) VER 0,2	MACRO %52(537) 09:34 31-JAN-77 PAGE 41-1
DFKAA8	MAC	25-AUG-75 14:17		TEST THE ABILITY TO DISMISS INTERRUPTS                                             SEQ 1100

 47740	064441	201 00 0 00 064441 		MOVEI	%X		;SAVE THIS PC IN CASE OF WILD TRANSFER
 47741	064442	202 00 0 00 071350 		MOVEM	TNUMB#		;BECAUSE OF PC MOD OR INTERRUPT^
 47742	064443	200 00 0 00 071163 	..0147:	MOVE	[JSP 1,.+6]	;PUT THE PI TRAP INSTRUCTION
 47743	064444	202 00 0 00 000044 		MOVEM	X		;INTO X
 47744	064445	7 004 20 0 00 006240 		CONO	PI,CHNON+PION+REQSET+Z1	;TURN ON PI AND REQEST ON CH Z1
 47745						WATINT^
 47746	064446	201 13 0 00 001000 		MOVEI	13,1000		;SET UP LOOP OF TEN TO WAIT FOR INT.
 47747	064447	367 13 0 00 064447 		SOJG	13,.		;AND WAIT^
 47748	064450	254 00 0 00 064453 		JRST	.+3
 47749	064451	7 004 20 0 00 022240 		CONO	PI,CHNON+PION+LRQCLR+Z1	;TURN OF INTERRUPT REQUEST
 47750	064452	254 12 1 00 000001 		JEN	@1		;DISMISS THE INTERRUPT
 47751	064453	7 004 30 0 00 077400 		CONSZ	PI,77400	;NO REQUESTS SHOULD BE SET
 47752						STOP^
 47753	064454	254 04 0 00 064455 		HALT	.+1		;INSTRUCTION FAILED REPLACE
 47754	064455	254 00 0 00 064456 		JRST	.+1		;WITH JRST BACK^
 47755						TGET^
 47756	064456	200 00 0 00 071350 		MOVE	TNUMB		;GET LAST PC STORED AND CHECK TO SEE
 47757	064457	302 00 0 00 064441 		CAIE	%X		;IF ITS WHERE WE REALLY SHOULD BE
 47758						STOP2^^
 47759	064460	254 04 0 00 064461 		HALT	.+1		;HALT IF WE SHOULDN'T BE HERE
 47760	064461	254 00 0 00 064462 		JRST	.+1		;WILD TRANSFER CAUSED THIS HALT.^
 47761						CLRBTH^
 47762	064462	700 04 0 00 267760 		CLRAPR
 47763	064463	700 14 0 00 031577 		CLRPI^
 47764					^
 47765
 47766			000046			X=X+2
 47767			000020			Z1=Z1_-1
 47768
 47769
 47770						PIDIS	X,Z1^
 47771
 47772					;CHECK THAT X JEN WILL DISMISS INTERUPTS ON ALL CHANNELS
 47773
 47774						TSET^
 47775			064464			%X=.			;DEFINE %X TO SAVE
 47776	064464	201 00 0 00 064464 		MOVEI	%X		;SAVE THIS PC IN CASE OF WILD TRANSFER
 47777	064465	202 00 0 00 071350 		MOVEM	TNUMB#		;BECAUSE OF PC MOD OR INTERRUPT^
 47778	064466	200 00 0 00 071164 	..0150:	MOVE	[JSP 1,.+6]	;PUT THE PI TRAP INSTRUCTION
 47779	064467	202 00 0 00 000046 		MOVEM	X		;INTO X
 47780	064470	7 004 20 0 00 006220 		CONO	PI,CHNON+PION+REQSET+Z1	;TURN ON PI AND REQEST ON CH Z1
 47781						WATINT^
 47782	064471	201 13 0 00 001000 		MOVEI	13,1000		;SET UP LOOP OF TEN TO WAIT FOR INT.
 47783	064472	367 13 0 00 064472 		SOJG	13,.		;AND WAIT^
 47784	064473	254 00 0 00 064476 		JRST	.+3
 47785	064474	7 004 20 0 00 022220 		CONO	PI,CHNON+PION+LRQCLR+Z1	;TURN OF INTERRUPT REQUEST
 47786	064475	254 12 1 00 000001 		JEN	@1		;DISMISS THE INTERRUPT
 47787	064476	7 004 30 0 00 077400 		CONSZ	PI,77400	;NO REQUESTS SHOULD BE SET
 47788						STOP^
 47789	064477	254 04 0 00 064500 		HALT	.+1		;INSTRUCTION FAILED REPLACE
 47790	064500	254 00 0 00 064501 		JRST	.+1		;WITH JRST BACK^
 47791						TGET^
 47792	064501	200 00 0 00 071350 		MOVE	TNUMB		;GET LAST PC STORED AND CHECK TO SEE
 47793	064502	302 00 0 00 064464 		CAIE	%X		;IF ITS WHERE WE REALLY SHOULD BE
 47794						STOP2^^
DFKAA PDP-10 KL10 BASIC INSTRUCTION DIAGNOSTIC (1) VER 0,2	MACRO %52(537) 09:34 31-JAN-77 PAGE 41-2
DFKAA8	MAC	25-AUG-75 14:17		TEST THE ABILITY TO DISMISS INTERRUPTS                                             SEQ 1101

 47795	064503	254 04 0 00 064504 		HALT	.+1		;HALT IF WE SHOULDN'T BE HERE
 47796	064504	254 00 0 00 064505 		JRST	.+1		;WILD TRANSFER CAUSED THIS HALT.^
 47797						CLRBTH^
 47798	064505	700 04 0 00 267760 		CLRAPR
 47799	064506	700 14 0 00 031577 		CLRPI^
 47800					^
 47801
 47802			000050			X=X+2
 47803			000010			Z1=Z1_-1
 47804
 47805
 47806						PIDIS	X,Z1^
 47807
 47808					;CHECK THAT X JEN WILL DISMISS INTERUPTS ON ALL CHANNELS
 47809
 47810						TSET^
 47811			064507			%X=.			;DEFINE %X TO SAVE
 47812	064507	201 00 0 00 064507 		MOVEI	%X		;SAVE THIS PC IN CASE OF WILD TRANSFER
 47813	064510	202 00 0 00 071350 		MOVEM	TNUMB#		;BECAUSE OF PC MOD OR INTERRUPT^
 47814	064511	200 00 0 00 071165 	..0151:	MOVE	[JSP 1,.+6]	;PUT THE PI TRAP INSTRUCTION
 47815	064512	202 00 0 00 000050 		MOVEM	X		;INTO X
 47816	064513	7 004 20 0 00 006210 		CONO	PI,CHNON+PION+REQSET+Z1	;TURN ON PI AND REQEST ON CH Z1
 47817						WATINT^
 47818	064514	201 13 0 00 001000 		MOVEI	13,1000		;SET UP LOOP OF TEN TO WAIT FOR INT.
 47819	064515	367 13 0 00 064515 		SOJG	13,.		;AND WAIT^
 47820	064516	254 00 0 00 064521 		JRST	.+3
 47821	064517	7 004 20 0 00 022210 		CONO	PI,CHNON+PION+LRQCLR+Z1	;TURN OF INTERRUPT REQUEST
 47822	064520	254 12 1 00 000001 		JEN	@1		;DISMISS THE INTERRUPT
 47823	064521	7 004 30 0 00 077400 		CONSZ	PI,77400	;NO REQUESTS SHOULD BE SET
 47824						STOP^
 47825	064522	254 04 0 00 064523 		HALT	.+1		;INSTRUCTION FAILED REPLACE
 47826	064523	254 00 0 00 064524 		JRST	.+1		;WITH JRST BACK^
 47827						TGET^
 47828	064524	200 00 0 00 071350 		MOVE	TNUMB		;GET LAST PC STORED AND CHECK TO SEE
 47829	064525	302 00 0 00 064507 		CAIE	%X		;IF ITS WHERE WE REALLY SHOULD BE
 47830						STOP2^^
 47831	064526	254 04 0 00 064527 		HALT	.+1		;HALT IF WE SHOULDN'T BE HERE
 47832	064527	254 00 0 00 064530 		JRST	.+1		;WILD TRANSFER CAUSED THIS HALT.^
 47833						CLRBTH^
 47834	064530	700 04 0 00 267760 		CLRAPR
 47835	064531	700 14 0 00 031577 		CLRPI^
 47836					^
 47837
 47838			000052			X=X+2
 47839			000004			Z1=Z1_-1
 47840
 47841
 47842						PIDIS	X,Z1^
 47843
 47844					;CHECK THAT X JEN WILL DISMISS INTERUPTS ON ALL CHANNELS
 47845
 47846						TSET^
 47847			064532			%X=.			;DEFINE %X TO SAVE
 47848	064532	201 00 0 00 064532 		MOVEI	%X		;SAVE THIS PC IN CASE OF WILD TRANSFER
 47849	064533	202 00 0 00 071350 		MOVEM	TNUMB#		;BECAUSE OF PC MOD OR INTERRUPT^
DFKAA PDP-10 KL10 BASIC INSTRUCTION DIAGNOSTIC (1) VER 0,2	MACRO %52(537) 09:34 31-JAN-77 PAGE 41-3
DFKAA8	MAC	25-AUG-75 14:17		TEST THE ABILITY TO DISMISS INTERRUPTS                                             SEQ 1102

 47850	064534	200 00 0 00 071166 	..0152:	MOVE	[JSP 1,.+6]	;PUT THE PI TRAP INSTRUCTION
 47851	064535	202 00 0 00 000052 		MOVEM	X		;INTO X
 47852	064536	7 004 20 0 00 006204 		CONO	PI,CHNON+PION+REQSET+Z1	;TURN ON PI AND REQEST ON CH Z1
 47853						WATINT^
 47854	064537	201 13 0 00 001000 		MOVEI	13,1000		;SET UP LOOP OF TEN TO WAIT FOR INT.
 47855	064540	367 13 0 00 064540 		SOJG	13,.		;AND WAIT^
 47856	064541	254 00 0 00 064544 		JRST	.+3
 47857	064542	7 004 20 0 00 022204 		CONO	PI,CHNON+PION+LRQCLR+Z1	;TURN OF INTERRUPT REQUEST
 47858	064543	254 12 1 00 000001 		JEN	@1		;DISMISS THE INTERRUPT
 47859	064544	7 004 30 0 00 077400 		CONSZ	PI,77400	;NO REQUESTS SHOULD BE SET
 47860						STOP^
 47861	064545	254 04 0 00 064546 		HALT	.+1		;INSTRUCTION FAILED REPLACE
 47862	064546	254 00 0 00 064547 		JRST	.+1		;WITH JRST BACK^
 47863						TGET^
 47864	064547	200 00 0 00 071350 		MOVE	TNUMB		;GET LAST PC STORED AND CHECK TO SEE
 47865	064550	302 00 0 00 064532 		CAIE	%X		;IF ITS WHERE WE REALLY SHOULD BE
 47866						STOP2^^
 47867	064551	254 04 0 00 064552 		HALT	.+1		;HALT IF WE SHOULDN'T BE HERE
 47868	064552	254 00 0 00 064553 		JRST	.+1		;WILD TRANSFER CAUSED THIS HALT.^
 47869						CLRBTH^
 47870	064553	700 04 0 00 267760 		CLRAPR
 47871	064554	700 14 0 00 031577 		CLRPI^
 47872					^
 47873
 47874			000054			X=X+2
 47875			000002			Z1=Z1_-1
 47876
 47877
 47878						PIDIS	X,Z1^
 47879
 47880					;CHECK THAT X JEN WILL DISMISS INTERUPTS ON ALL CHANNELS
 47881
 47882						TSET^
 47883			064555			%X=.			;DEFINE %X TO SAVE
 47884	064555	201 00 0 00 064555 		MOVEI	%X		;SAVE THIS PC IN CASE OF WILD TRANSFER
 47885	064556	202 00 0 00 071350 		MOVEM	TNUMB#		;BECAUSE OF PC MOD OR INTERRUPT^
 47886	064557	200 00 0 00 071167 	..0153:	MOVE	[JSP 1,.+6]	;PUT THE PI TRAP INSTRUCTION
 47887	064560	202 00 0 00 000054 		MOVEM	X		;INTO X
 47888	064561	7 004 20 0 00 006202 		CONO	PI,CHNON+PION+REQSET+Z1	;TURN ON PI AND REQEST ON CH Z1
 47889						WATINT^
 47890	064562	201 13 0 00 001000 		MOVEI	13,1000		;SET UP LOOP OF TEN TO WAIT FOR INT.
 47891	064563	367 13 0 00 064563 		SOJG	13,.		;AND WAIT^
 47892	064564	254 00 0 00 064567 		JRST	.+3
 47893	064565	7 004 20 0 00 022202 		CONO	PI,CHNON+PION+LRQCLR+Z1	;TURN OF INTERRUPT REQUEST
 47894	064566	254 12 1 00 000001 		JEN	@1		;DISMISS THE INTERRUPT
 47895	064567	7 004 30 0 00 077400 		CONSZ	PI,77400	;NO REQUESTS SHOULD BE SET
 47896						STOP^
 47897	064570	254 04 0 00 064571 		HALT	.+1		;INSTRUCTION FAILED REPLACE
 47898	064571	254 00 0 00 064572 		JRST	.+1		;WITH JRST BACK^
 47899						TGET^
 47900	064572	200 00 0 00 071350 		MOVE	TNUMB		;GET LAST PC STORED AND CHECK TO SEE
 47901	064573	302 00 0 00 064555 		CAIE	%X		;IF ITS WHERE WE REALLY SHOULD BE
 47902						STOP2^^
 47903	064574	254 04 0 00 064575 		HALT	.+1		;HALT IF WE SHOULDN'T BE HERE
 47904	064575	254 00 0 00 064576 		JRST	.+1		;WILD TRANSFER CAUSED THIS HALT.^
DFKAA PDP-10 KL10 BASIC INSTRUCTION DIAGNOSTIC (1) VER 0,2	MACRO %52(537) 09:34 31-JAN-77 PAGE 41-4
DFKAA8	MAC	25-AUG-75 14:17		TEST THE ABILITY TO DISMISS INTERRUPTS                                             SEQ 1103

 47905						CLRBTH^
 47906	064576	700 04 0 00 267760 		CLRAPR
 47907	064577	700 14 0 00 031577 		CLRPI^
 47908					^
 47909
 47910			000056			X=X+2
 47911			000001			Z1=Z1_-1
 47912
 47913
 47914						PIDIS	X,Z1^
 47915
 47916					;CHECK THAT X JEN WILL DISMISS INTERUPTS ON ALL CHANNELS
 47917
 47918						TSET^
 47919			064600			%X=.			;DEFINE %X TO SAVE
 47920	064600	201 00 0 00 064600 		MOVEI	%X		;SAVE THIS PC IN CASE OF WILD TRANSFER
 47921	064601	202 00 0 00 071350 		MOVEM	TNUMB#		;BECAUSE OF PC MOD OR INTERRUPT^
 47922	064602	200 00 0 00 071170 	..0154:	MOVE	[JSP 1,.+6]	;PUT THE PI TRAP INSTRUCTION
 47923	064603	202 00 0 00 000056 		MOVEM	X		;INTO X
 47924	064604	7 004 20 0 00 006201 		CONO	PI,CHNON+PION+REQSET+Z1	;TURN ON PI AND REQEST ON CH Z1
 47925						WATINT^
 47926	064605	201 13 0 00 001000 		MOVEI	13,1000		;SET UP LOOP OF TEN TO WAIT FOR INT.
 47927	064606	367 13 0 00 064606 		SOJG	13,.		;AND WAIT^
 47928	064607	254 00 0 00 064612 		JRST	.+3
 47929	064610	7 004 20 0 00 022201 		CONO	PI,CHNON+PION+LRQCLR+Z1	;TURN OF INTERRUPT REQUEST
 47930	064611	254 12 1 00 000001 		JEN	@1		;DISMISS THE INTERRUPT
 47931	064612	7 004 30 0 00 077400 		CONSZ	PI,77400	;NO REQUESTS SHOULD BE SET
 47932						STOP^
 47933	064613	254 04 0 00 064614 		HALT	.+1		;INSTRUCTION FAILED REPLACE
 47934	064614	254 00 0 00 064615 		JRST	.+1		;WITH JRST BACK^
 47935						TGET^
 47936	064615	200 00 0 00 071350 		MOVE	TNUMB		;GET LAST PC STORED AND CHECK TO SEE
 47937	064616	302 00 0 00 064600 		CAIE	%X		;IF ITS WHERE WE REALLY SHOULD BE
 47938						STOP2^^
 47939	064617	254 04 0 00 064620 		HALT	.+1		;HALT IF WE SHOULDN'T BE HERE
 47940	064620	254 00 0 00 064621 		JRST	.+1		;WILD TRANSFER CAUSED THIS HALT.^
 47941						CLRBTH^
 47942	064621	700 04 0 00 267760 		CLRAPR
 47943	064622	700 14 0 00 031577 		CLRPI^
 47944					^
 47945
 47946			000060			X=X+2
 47947			000000			Z1=Z1_-1
 47948
 47949	064623	255 00 0 00 000000 		JFCL
DFKAA PDP-10 KL10 BASIC INSTRUCTION DIAGNOSTIC (1) VER 0,2	MACRO %52(537) 09:34 31-JAN-77 PAGE 42
DFKAA8	MAC	25-AUG-75 14:17		TICKLE THE INTERRUPT SYSTEM WITH THE CACHE SWEEP DONE FLAG                         SEQ 1104

 47950					SUBTTL	TICKLE THE INTERRUPT SYSTEM WITH THE CACHE SWEEP DONE FLAG
 47951					;TEST THAT THE CACHE SWEEP DONE FLAG WILL NOT CAUSE AN INTERRUPT WHEN ENABLED AND
 47952					;NO APR CACHE SWEEP DONE FLAG CHANNEL IS SET..
 47953						BLURB^
 47954					;LOCATIONS 40-60 CONTAIN A JSP TO A ROUTINE WHICH STORES
 47955					;THE CHANNEL NUMBER OF THE INTERRUPT INTO 0
 47956					;THEREFORE IF AN INTERRUPT OCCURS THEN LOCATION
 47957					;ZERO WILL CONTAIN THE NUMBER OF THE INTERRUPT CHANNEL TRAP ADRESS
 47958					^
 47959	064624				CKCK0:	CLRBTH^
 47960	064624	700 04 0 00 267760 		CLRAPR
 47961	064625	700 14 0 00 031577 		CLRPI^
 47962	064626	264 00 0 00 070120 		TRPPI			;FILL INTERRUPT LOCATIONS WITH TRAPS
 47963	064627	400 00 0 00 000000 		SETZ			;CLEAR 0
 47964	064630	7 004 20 0 00 002377 		CONO	PI,CHNON!PION!177	;TURN ON PI SYSTEM
 47965						CONO	APR,LESBER!LSSBER!LENXER!LSNXER!LEPWRF!LSPWRF!LEIOPF!LSIOPF!LEPAER!LSPAER!L
 47966	064631	7 000 20 0 00 117460 	ECASD!LSCASD	;ENABLE THE CACHE SWEEP DONE FLAG
 47967						WATINT^
 47968	064632	201 13 0 00 001000 		MOVEI	13,1000		;SET UP LOOP OF TEN TO WAIT FOR INT.
 47969	064633	367 13 0 00 064633 		SOJG	13,.		;AND WAIT^
 47970	064634	332 00 0 00 000000 		SKIPE			;AC0=0
 47971						STOP^
 47972	064635	254 04 0 00 064636 		HALT	.+1		;INSTRUCTION FAILED REPLACE
 47973	064636	254 00 0 00 064637 		JRST	.+1		;WITH JRST BACK^
 47974
 47975
 47976					;TEST THAT THE CACHE SWEEP DONE FLAG WILL NOT INTERRUPT WITHOUT CACHE SWEEP DONE FLAG ENABL
 47977					E SET
 47978					;ON ALL CHANNELS
 47979
 47980			000001			X=1
 47981					CKCK1:	REPEAT	7,<
 47982					;THE PROGRAM WILL WAIT FOR THE CACHE SWEEP DONE FLAG TO INTERRUPT ON EACH CHANNEL
 47983					;WITHOUT CACHE SWEEP DONE FLAG ENABLE SET. IF AC0 BECOMES NON-ZERO THE PROGRAM WILL
 47984					;HALT AND AC0 HAS THE NUMBER OF THE CHANNEL THAT THE INTERRUPT OCCURED
 47985					;ON. NO INTERRUPTS SHOULD OCCUR DURING THIS TEST.
 47986						CLRBTH
 47987						TRPPI			;FILL INTERRUPT LOCATIONS WITH TRAPS
 47988						SETZ	0,		;INSURE ZERO AC0.
 47989						CONO	PI,PION!CHNON!177	;ENABLE PI'S
 47990						CONO	APR,LDSBER!LSSBER!LDNXER!LSNXER!LDPWRF!LSPWRF!LDIOPF!LSIOPF!LDPAER!LSPAER!L
 47991					DCASD!LSCASD!X	;DISABLE THE CACHE SWEEP DONE FLAG AN SET CH X
 47992						WATINT
 47993						SKIPE			;AC0=0
 47994						STOP
 47995						X=X+1
 47996					>
 47997
 47998					;THE PROGRAM WILL WAIT FOR THE CACHE SWEEP DONE FLAG TO INTERRUPT ON EACH CHANNEL
 47999					;WITHOUT CACHE SWEEP DONE FLAG ENABLE SET. IF AC0 BECOMES NON-ZERO THE PROGRAM WILL
 48000					;HALT AND AC0 HAS THE NUMBER OF THE CHANNEL THAT THE INTERRUPT OCCURED
 48001					;ON. NO INTERRUPTS SHOULD OCCUR DURING THIS TEST.
 48002						CLRBTH^
 48003	064637	700 04 0 00 267760 		CLRAPR
 48004	064640	700 14 0 00 031577 		CLRPI^
DFKAA PDP-10 KL10 BASIC INSTRUCTION DIAGNOSTIC (1) VER 0,2	MACRO %52(537) 09:34 31-JAN-77 PAGE 42-1
DFKAA8	MAC	25-AUG-75 14:17		TICKLE THE INTERRUPT SYSTEM WITH THE CACHE SWEEP DONE FLAG                         SEQ 1105

 48005	064641	264 00 0 00 070120 		TRPPI			;FILL INTERRUPT LOCATIONS WITH TRAPS
 48006	064642	400 00 0 00 000000 		SETZ	0,		;INSURE ZERO AC0.
 48007	064643	7 004 20 0 00 002377 		CONO	PI,PION!CHNON!177	;ENABLE PI'S
 48008						CONO	APR,LDSBER!LSSBER!LDNXER!LSNXER!LDPWRF!LSPWRF!LDIOPF!LSIOPF!LDPAER!LSPAER!L
 48009	064644	7 000 20 0 00 057461 	DCASD!LSCASD!X	;DISABLE THE CACHE SWEEP DONE FLAG AN SET CH X
 48010						WATINT^
 48011	064645	201 13 0 00 001000 		MOVEI	13,1000		;SET UP LOOP OF TEN TO WAIT FOR INT.
 48012	064646	367 13 0 00 064646 		SOJG	13,.		;AND WAIT^
 48013	064647	332 00 0 00 000000 		SKIPE			;AC0=0
 48014						STOP^
 48015	064650	254 04 0 00 064651 		HALT	.+1		;INSTRUCTION FAILED REPLACE
 48016	064651	254 00 0 00 064652 		JRST	.+1		;WITH JRST BACK^
 48017			000002			X=X+1
 48018
 48019
 48020					;THE PROGRAM WILL WAIT FOR THE CACHE SWEEP DONE FLAG TO INTERRUPT ON EACH CHANNEL
 48021					;WITHOUT CACHE SWEEP DONE FLAG ENABLE SET. IF AC0 BECOMES NON-ZERO THE PROGRAM WILL
 48022					;HALT AND AC0 HAS THE NUMBER OF THE CHANNEL THAT THE INTERRUPT OCCURED
 48023					;ON. NO INTERRUPTS SHOULD OCCUR DURING THIS TEST.
 48024						CLRBTH^
 48025	064652	700 04 0 00 267760 		CLRAPR
 48026	064653	700 14 0 00 031577 		CLRPI^
 48027	064654	264 00 0 00 070120 		TRPPI			;FILL INTERRUPT LOCATIONS WITH TRAPS
 48028	064655	400 00 0 00 000000 		SETZ	0,		;INSURE ZERO AC0.
 48029	064656	7 004 20 0 00 002377 		CONO	PI,PION!CHNON!177	;ENABLE PI'S
 48030						CONO	APR,LDSBER!LSSBER!LDNXER!LSNXER!LDPWRF!LSPWRF!LDIOPF!LSIOPF!LDPAER!LSPAER!L
 48031	064657	7 000 20 0 00 057462 	DCASD!LSCASD!X	;DISABLE THE CACHE SWEEP DONE FLAG AN SET CH X
 48032						WATINT^
 48033	064660	201 13 0 00 001000 		MOVEI	13,1000		;SET UP LOOP OF TEN TO WAIT FOR INT.
 48034	064661	367 13 0 00 064661 		SOJG	13,.		;AND WAIT^
 48035	064662	332 00 0 00 000000 		SKIPE			;AC0=0
 48036						STOP^
 48037	064663	254 04 0 00 064664 		HALT	.+1		;INSTRUCTION FAILED REPLACE
 48038	064664	254 00 0 00 064665 		JRST	.+1		;WITH JRST BACK^
 48039			000003			X=X+1
 48040
 48041
 48042					;THE PROGRAM WILL WAIT FOR THE CACHE SWEEP DONE FLAG TO INTERRUPT ON EACH CHANNEL
 48043					;WITHOUT CACHE SWEEP DONE FLAG ENABLE SET. IF AC0 BECOMES NON-ZERO THE PROGRAM WILL
 48044					;HALT AND AC0 HAS THE NUMBER OF THE CHANNEL THAT THE INTERRUPT OCCURED
 48045					;ON. NO INTERRUPTS SHOULD OCCUR DURING THIS TEST.
 48046						CLRBTH^
 48047	064665	700 04 0 00 267760 		CLRAPR
 48048	064666	700 14 0 00 031577 		CLRPI^
 48049	064667	264 00 0 00 070120 		TRPPI			;FILL INTERRUPT LOCATIONS WITH TRAPS
 48050	064670	400 00 0 00 000000 		SETZ	0,		;INSURE ZERO AC0.
 48051	064671	7 004 20 0 00 002377 		CONO	PI,PION!CHNON!177	;ENABLE PI'S
 48052						CONO	APR,LDSBER!LSSBER!LDNXER!LSNXER!LDPWRF!LSPWRF!LDIOPF!LSIOPF!LDPAER!LSPAER!L
 48053	064672	7 000 20 0 00 057463 	DCASD!LSCASD!X	;DISABLE THE CACHE SWEEP DONE FLAG AN SET CH X
 48054						WATINT^
 48055	064673	201 13 0 00 001000 		MOVEI	13,1000		;SET UP LOOP OF TEN TO WAIT FOR INT.
 48056	064674	367 13 0 00 064674 		SOJG	13,.		;AND WAIT^
 48057	064675	332 00 0 00 000000 		SKIPE			;AC0=0
 48058						STOP^
 48059	064676	254 04 0 00 064677 		HALT	.+1		;INSTRUCTION FAILED REPLACE
DFKAA PDP-10 KL10 BASIC INSTRUCTION DIAGNOSTIC (1) VER 0,2	MACRO %52(537) 09:34 31-JAN-77 PAGE 42-2
DFKAA8	MAC	25-AUG-75 14:17		TICKLE THE INTERRUPT SYSTEM WITH THE CACHE SWEEP DONE FLAG                         SEQ 1106

 48060	064677	254 00 0 00 064700 		JRST	.+1		;WITH JRST BACK^
 48061			000004			X=X+1
 48062
 48063
 48064					;THE PROGRAM WILL WAIT FOR THE CACHE SWEEP DONE FLAG TO INTERRUPT ON EACH CHANNEL
 48065					;WITHOUT CACHE SWEEP DONE FLAG ENABLE SET. IF AC0 BECOMES NON-ZERO THE PROGRAM WILL
 48066					;HALT AND AC0 HAS THE NUMBER OF THE CHANNEL THAT THE INTERRUPT OCCURED
 48067					;ON. NO INTERRUPTS SHOULD OCCUR DURING THIS TEST.
 48068						CLRBTH^
 48069	064700	700 04 0 00 267760 		CLRAPR
 48070	064701	700 14 0 00 031577 		CLRPI^
 48071	064702	264 00 0 00 070120 		TRPPI			;FILL INTERRUPT LOCATIONS WITH TRAPS
 48072	064703	400 00 0 00 000000 		SETZ	0,		;INSURE ZERO AC0.
 48073	064704	7 004 20 0 00 002377 		CONO	PI,PION!CHNON!177	;ENABLE PI'S
 48074						CONO	APR,LDSBER!LSSBER!LDNXER!LSNXER!LDPWRF!LSPWRF!LDIOPF!LSIOPF!LDPAER!LSPAER!L
 48075	064705	7 000 20 0 00 057464 	DCASD!LSCASD!X	;DISABLE THE CACHE SWEEP DONE FLAG AN SET CH X
 48076						WATINT^
 48077	064706	201 13 0 00 001000 		MOVEI	13,1000		;SET UP LOOP OF TEN TO WAIT FOR INT.
 48078	064707	367 13 0 00 064707 		SOJG	13,.		;AND WAIT^
 48079	064710	332 00 0 00 000000 		SKIPE			;AC0=0
 48080						STOP^
 48081	064711	254 04 0 00 064712 		HALT	.+1		;INSTRUCTION FAILED REPLACE
 48082	064712	254 00 0 00 064713 		JRST	.+1		;WITH JRST BACK^
 48083			000005			X=X+1
 48084
 48085
 48086					;THE PROGRAM WILL WAIT FOR THE CACHE SWEEP DONE FLAG TO INTERRUPT ON EACH CHANNEL
 48087					;WITHOUT CACHE SWEEP DONE FLAG ENABLE SET. IF AC0 BECOMES NON-ZERO THE PROGRAM WILL
 48088					;HALT AND AC0 HAS THE NUMBER OF THE CHANNEL THAT THE INTERRUPT OCCURED
 48089					;ON. NO INTERRUPTS SHOULD OCCUR DURING THIS TEST.
 48090						CLRBTH^
 48091	064713	700 04 0 00 267760 		CLRAPR
 48092	064714	700 14 0 00 031577 		CLRPI^
 48093	064715	264 00 0 00 070120 		TRPPI			;FILL INTERRUPT LOCATIONS WITH TRAPS
 48094	064716	400 00 0 00 000000 		SETZ	0,		;INSURE ZERO AC0.
 48095	064717	7 004 20 0 00 002377 		CONO	PI,PION!CHNON!177	;ENABLE PI'S
 48096						CONO	APR,LDSBER!LSSBER!LDNXER!LSNXER!LDPWRF!LSPWRF!LDIOPF!LSIOPF!LDPAER!LSPAER!L
 48097	064720	7 000 20 0 00 057465 	DCASD!LSCASD!X	;DISABLE THE CACHE SWEEP DONE FLAG AN SET CH X
 48098						WATINT^
 48099	064721	201 13 0 00 001000 		MOVEI	13,1000		;SET UP LOOP OF TEN TO WAIT FOR INT.
 48100	064722	367 13 0 00 064722 		SOJG	13,.		;AND WAIT^
 48101	064723	332 00 0 00 000000 		SKIPE			;AC0=0
 48102						STOP^
 48103	064724	254 04 0 00 064725 		HALT	.+1		;INSTRUCTION FAILED REPLACE
 48104	064725	254 00 0 00 064726 		JRST	.+1		;WITH JRST BACK^
 48105			000006			X=X+1
 48106
 48107
 48108					;THE PROGRAM WILL WAIT FOR THE CACHE SWEEP DONE FLAG TO INTERRUPT ON EACH CHANNEL
 48109					;WITHOUT CACHE SWEEP DONE FLAG ENABLE SET. IF AC0 BECOMES NON-ZERO THE PROGRAM WILL
 48110					;HALT AND AC0 HAS THE NUMBER OF THE CHANNEL THAT THE INTERRUPT OCCURED
 48111					;ON. NO INTERRUPTS SHOULD OCCUR DURING THIS TEST.
 48112						CLRBTH^
 48113	064726	700 04 0 00 267760 		CLRAPR
 48114	064727	700 14 0 00 031577 		CLRPI^
DFKAA PDP-10 KL10 BASIC INSTRUCTION DIAGNOSTIC (1) VER 0,2	MACRO %52(537) 09:34 31-JAN-77 PAGE 42-3
DFKAA8	MAC	25-AUG-75 14:17		TICKLE THE INTERRUPT SYSTEM WITH THE CACHE SWEEP DONE FLAG                         SEQ 1107

 48115	064730	264 00 0 00 070120 		TRPPI			;FILL INTERRUPT LOCATIONS WITH TRAPS
 48116	064731	400 00 0 00 000000 		SETZ	0,		;INSURE ZERO AC0.
 48117	064732	7 004 20 0 00 002377 		CONO	PI,PION!CHNON!177	;ENABLE PI'S
 48118						CONO	APR,LDSBER!LSSBER!LDNXER!LSNXER!LDPWRF!LSPWRF!LDIOPF!LSIOPF!LDPAER!LSPAER!L
 48119	064733	7 000 20 0 00 057466 	DCASD!LSCASD!X	;DISABLE THE CACHE SWEEP DONE FLAG AN SET CH X
 48120						WATINT^
 48121	064734	201 13 0 00 001000 		MOVEI	13,1000		;SET UP LOOP OF TEN TO WAIT FOR INT.
 48122	064735	367 13 0 00 064735 		SOJG	13,.		;AND WAIT^
 48123	064736	332 00 0 00 000000 		SKIPE			;AC0=0
 48124						STOP^
 48125	064737	254 04 0 00 064740 		HALT	.+1		;INSTRUCTION FAILED REPLACE
 48126	064740	254 00 0 00 064741 		JRST	.+1		;WITH JRST BACK^
 48127			000007			X=X+1
 48128
 48129
 48130					;THE PROGRAM WILL WAIT FOR THE CACHE SWEEP DONE FLAG TO INTERRUPT ON EACH CHANNEL
 48131					;WITHOUT CACHE SWEEP DONE FLAG ENABLE SET. IF AC0 BECOMES NON-ZERO THE PROGRAM WILL
 48132					;HALT AND AC0 HAS THE NUMBER OF THE CHANNEL THAT THE INTERRUPT OCCURED
 48133					;ON. NO INTERRUPTS SHOULD OCCUR DURING THIS TEST.
 48134						CLRBTH^
 48135	064741	700 04 0 00 267760 		CLRAPR
 48136	064742	700 14 0 00 031577 		CLRPI^
 48137	064743	264 00 0 00 070120 		TRPPI			;FILL INTERRUPT LOCATIONS WITH TRAPS
 48138	064744	400 00 0 00 000000 		SETZ	0,		;INSURE ZERO AC0.
 48139	064745	7 004 20 0 00 002377 		CONO	PI,PION!CHNON!177	;ENABLE PI'S
 48140						CONO	APR,LDSBER!LSSBER!LDNXER!LSNXER!LDPWRF!LSPWRF!LDIOPF!LSIOPF!LDPAER!LSPAER!L
 48141	064746	7 000 20 0 00 057467 	DCASD!LSCASD!X	;DISABLE THE CACHE SWEEP DONE FLAG AN SET CH X
 48142						WATINT^
 48143	064747	201 13 0 00 001000 		MOVEI	13,1000		;SET UP LOOP OF TEN TO WAIT FOR INT.
 48144	064750	367 13 0 00 064750 		SOJG	13,.		;AND WAIT^
 48145	064751	332 00 0 00 000000 		SKIPE			;AC0=0
 48146						STOP^
 48147	064752	254 04 0 00 064753 		HALT	.+1		;INSTRUCTION FAILED REPLACE
 48148	064753	254 00 0 00 064754 		JRST	.+1		;WITH JRST BACK^
 48149			000010			X=X+1
 48150
DFKAA PDP-10 KL10 BASIC INSTRUCTION DIAGNOSTIC (1) VER 0,2	MACRO %52(537) 09:34 31-JAN-77 PAGE 43
DFKAA8	MAC	25-AUG-75 14:17		TEST VARIOUS RESETS                                                                SEQ 1108

 48151					SUBTTL	TEST VARIOUS RESETS
 48152
 48153					;TRY TO RESET THE PI BITS VIA CONO RESET TO THE APR
 48154	064754				RESET1:	CLRBTH^
 48155	064754	700 04 0 00 267760 		CLRAPR
 48156	064755	700 14 0 00 031577 		CLRPI^
 48157	064756	7 004 20 0 00 002377 		CONO	PI,PION!CHNON!177	;TURN ON PI SYSTEM
 48158	064757	7 000 20 0 00 200000 		CONO	APR,IOCLR	;RESET THE I/O BUS
 48159	064760	7 004 34 0 00 000377 		CONSO	PI,PION!177	;ALL PI BITS SHOULD STILL BE SET
 48160						STOP^
 48161	064761	254 04 0 00 064762 		HALT	.+1		;INSTRUCTION FAILED REPLACE
 48162	064762	254 00 0 00 064763 		JRST	.+1		;WITH JRST BACK^
 48163
 48164					;TRY TO RESET THE APR WITH A RESET TO THE PI.
 48165	064763				RESET2:	CLRBTH^
 48166	064763	700 04 0 00 267760 		CLRAPR
 48167	064764	700 14 0 00 031577 		CLRPI^
 48168	064765	7 000 20 0 00 000007 		CONO	APR,7		;SET CLOCK AND ERROR PIA'S
 48169	064766	7 004 20 0 00 010000 		CONO	PI,PICLR	;CLEAR THE PI SYSTEM
 48170	064767	7 000 34 0 00 000007 		CONSO	APR,7		;AND APR BITS SHOULD STILL BE SET
 48171						STOP^
 48172	064770	254 04 0 00 064771 		HALT	.+1		;INSTRUCTION FAILED REPLACE
 48173	064771	254 00 0 00 064772 		JRST	.+1		;WITH JRST BACK^
 48174
 48175			000001			X=1
 48176					RESET3:	REPEAT	^D18,<
 48177					;TRY TO RESET THE PI AND APR VIA A CONO BIT TO DEVICE 774
 48178						CLRBTH
 48179						CONO	PI,PION!CHNON!177
 48180						CONO	APR,7		;TURN ON PI AND APR BITS
 48181						CONO	LAST,X		;SEND AND IOB BIT OUT
 48182						CONI	PI,7		;PI BITS SHOULD STILL BE SET
 48183						CAIE	7,377
 48184						STOP
 48185						CONI	APR,6		;APR BITS SHOULD BE SET
 48186						CAIE	6,7
 48187						STOP
 48188						X=X_1			;NEXT BIT
 48189					>
 48190
 48191					;TRY TO RESET THE PI AND APR VIA A CONO BIT TO DEVICE 774
 48192						CLRBTH^
 48193	064772	700 04 0 00 267760 		CLRAPR
 48194	064773	700 14 0 00 031577 		CLRPI^
 48195	064774	7 004 20 0 00 002377 		CONO	PI,PION!CHNON!177
 48196	064775	7 000 20 0 00 000007 		CONO	APR,7		;TURN ON PI AND APR BITS
 48197	064776	7 774 20 0 00 000001 		CONO	LAST,X		;SEND AND IOB BIT OUT
 48198	064777	7 004 24 0 00 000007 		CONI	PI,7		;PI BITS SHOULD STILL BE SET
 48199	065000	302 07 0 00 000377 		CAIE	7,377
 48200						STOP^
 48201	065001	254 04 0 00 065002 		HALT	.+1		;INSTRUCTION FAILED REPLACE
 48202	065002	254 00 0 00 065003 		JRST	.+1		;WITH JRST BACK^
 48203	065003	7 000 24 0 00 000006 		CONI	APR,6		;APR BITS SHOULD BE SET
 48204	065004	302 06 0 00 000007 		CAIE	6,7
 48205						STOP^
DFKAA PDP-10 KL10 BASIC INSTRUCTION DIAGNOSTIC (1) VER 0,2	MACRO %52(537) 09:34 31-JAN-77 PAGE 43-1
DFKAA8	MAC	25-AUG-75 14:17		TEST VARIOUS RESETS                                                                SEQ 1109

 48206	065005	254 04 0 00 065006 		HALT	.+1		;INSTRUCTION FAILED REPLACE
 48207	065006	254 00 0 00 065007 		JRST	.+1		;WITH JRST BACK^
 48208			000002			X=X_1			;NEXT BIT
 48209
 48210
 48211					;TRY TO RESET THE PI AND APR VIA A CONO BIT TO DEVICE 774
 48212						CLRBTH^
 48213	065007	700 04 0 00 267760 		CLRAPR
 48214	065010	700 14 0 00 031577 		CLRPI^
 48215	065011	7 004 20 0 00 002377 		CONO	PI,PION!CHNON!177
 48216	065012	7 000 20 0 00 000007 		CONO	APR,7		;TURN ON PI AND APR BITS
 48217	065013	7 774 20 0 00 000002 		CONO	LAST,X		;SEND AND IOB BIT OUT
 48218	065014	7 004 24 0 00 000007 		CONI	PI,7		;PI BITS SHOULD STILL BE SET
 48219	065015	302 07 0 00 000377 		CAIE	7,377
 48220						STOP^
 48221	065016	254 04 0 00 065017 		HALT	.+1		;INSTRUCTION FAILED REPLACE
 48222	065017	254 00 0 00 065020 		JRST	.+1		;WITH JRST BACK^
 48223	065020	7 000 24 0 00 000006 		CONI	APR,6		;APR BITS SHOULD BE SET
 48224	065021	302 06 0 00 000007 		CAIE	6,7
 48225						STOP^
 48226	065022	254 04 0 00 065023 		HALT	.+1		;INSTRUCTION FAILED REPLACE
 48227	065023	254 00 0 00 065024 		JRST	.+1		;WITH JRST BACK^
 48228			000004			X=X_1			;NEXT BIT
 48229
 48230
 48231					;TRY TO RESET THE PI AND APR VIA A CONO BIT TO DEVICE 774
 48232						CLRBTH^
 48233	065024	700 04 0 00 267760 		CLRAPR
 48234	065025	700 14 0 00 031577 		CLRPI^
 48235	065026	7 004 20 0 00 002377 		CONO	PI,PION!CHNON!177
 48236	065027	7 000 20 0 00 000007 		CONO	APR,7		;TURN ON PI AND APR BITS
 48237	065030	7 774 20 0 00 000004 		CONO	LAST,X		;SEND AND IOB BIT OUT
 48238	065031	7 004 24 0 00 000007 		CONI	PI,7		;PI BITS SHOULD STILL BE SET
 48239	065032	302 07 0 00 000377 		CAIE	7,377
 48240						STOP^
 48241	065033	254 04 0 00 065034 		HALT	.+1		;INSTRUCTION FAILED REPLACE
 48242	065034	254 00 0 00 065035 		JRST	.+1		;WITH JRST BACK^
 48243	065035	7 000 24 0 00 000006 		CONI	APR,6		;APR BITS SHOULD BE SET
 48244	065036	302 06 0 00 000007 		CAIE	6,7
 48245						STOP^
 48246	065037	254 04 0 00 065040 		HALT	.+1		;INSTRUCTION FAILED REPLACE
 48247	065040	254 00 0 00 065041 		JRST	.+1		;WITH JRST BACK^
 48248			000010			X=X_1			;NEXT BIT
 48249
 48250
 48251					;TRY TO RESET THE PI AND APR VIA A CONO BIT TO DEVICE 774
 48252						CLRBTH^
 48253	065041	700 04 0 00 267760 		CLRAPR
 48254	065042	700 14 0 00 031577 		CLRPI^
 48255	065043	7 004 20 0 00 002377 		CONO	PI,PION!CHNON!177
 48256	065044	7 000 20 0 00 000007 		CONO	APR,7		;TURN ON PI AND APR BITS
 48257	065045	7 774 20 0 00 000010 		CONO	LAST,X		;SEND AND IOB BIT OUT
 48258	065046	7 004 24 0 00 000007 		CONI	PI,7		;PI BITS SHOULD STILL BE SET
 48259	065047	302 07 0 00 000377 		CAIE	7,377
 48260						STOP^
DFKAA PDP-10 KL10 BASIC INSTRUCTION DIAGNOSTIC (1) VER 0,2	MACRO %52(537) 09:34 31-JAN-77 PAGE 43-2
DFKAA8	MAC	25-AUG-75 14:17		TEST VARIOUS RESETS                                                                SEQ 1110

 48261	065050	254 04 0 00 065051 		HALT	.+1		;INSTRUCTION FAILED REPLACE
 48262	065051	254 00 0 00 065052 		JRST	.+1		;WITH JRST BACK^
 48263	065052	7 000 24 0 00 000006 		CONI	APR,6		;APR BITS SHOULD BE SET
 48264	065053	302 06 0 00 000007 		CAIE	6,7
 48265						STOP^
 48266	065054	254 04 0 00 065055 		HALT	.+1		;INSTRUCTION FAILED REPLACE
 48267	065055	254 00 0 00 065056 		JRST	.+1		;WITH JRST BACK^
 48268			000020			X=X_1			;NEXT BIT
 48269
 48270
 48271					;TRY TO RESET THE PI AND APR VIA A CONO BIT TO DEVICE 774
 48272						CLRBTH^
 48273	065056	700 04 0 00 267760 		CLRAPR
 48274	065057	700 14 0 00 031577 		CLRPI^
 48275	065060	7 004 20 0 00 002377 		CONO	PI,PION!CHNON!177
 48276	065061	7 000 20 0 00 000007 		CONO	APR,7		;TURN ON PI AND APR BITS
 48277	065062	7 774 20 0 00 000020 		CONO	LAST,X		;SEND AND IOB BIT OUT
 48278	065063	7 004 24 0 00 000007 		CONI	PI,7		;PI BITS SHOULD STILL BE SET
 48279	065064	302 07 0 00 000377 		CAIE	7,377
 48280						STOP^
 48281	065065	254 04 0 00 065066 		HALT	.+1		;INSTRUCTION FAILED REPLACE
 48282	065066	254 00 0 00 065067 		JRST	.+1		;WITH JRST BACK^
 48283	065067	7 000 24 0 00 000006 		CONI	APR,6		;APR BITS SHOULD BE SET
 48284	065070	302 06 0 00 000007 		CAIE	6,7
 48285						STOP^
 48286	065071	254 04 0 00 065072 		HALT	.+1		;INSTRUCTION FAILED REPLACE
 48287	065072	254 00 0 00 065073 		JRST	.+1		;WITH JRST BACK^
 48288			000040			X=X_1			;NEXT BIT
 48289
 48290
 48291					;TRY TO RESET THE PI AND APR VIA A CONO BIT TO DEVICE 774
 48292						CLRBTH^
 48293	065073	700 04 0 00 267760 		CLRAPR
 48294	065074	700 14 0 00 031577 		CLRPI^
 48295	065075	7 004 20 0 00 002377 		CONO	PI,PION!CHNON!177
 48296	065076	7 000 20 0 00 000007 		CONO	APR,7		;TURN ON PI AND APR BITS
 48297	065077	7 774 20 0 00 000040 		CONO	LAST,X		;SEND AND IOB BIT OUT
 48298	065100	7 004 24 0 00 000007 		CONI	PI,7		;PI BITS SHOULD STILL BE SET
 48299	065101	302 07 0 00 000377 		CAIE	7,377
 48300						STOP^
 48301	065102	254 04 0 00 065103 		HALT	.+1		;INSTRUCTION FAILED REPLACE
 48302	065103	254 00 0 00 065104 		JRST	.+1		;WITH JRST BACK^
 48303	065104	7 000 24 0 00 000006 		CONI	APR,6		;APR BITS SHOULD BE SET
 48304	065105	302 06 0 00 000007 		CAIE	6,7
 48305						STOP^
 48306	065106	254 04 0 00 065107 		HALT	.+1		;INSTRUCTION FAILED REPLACE
 48307	065107	254 00 0 00 065110 		JRST	.+1		;WITH JRST BACK^
 48308			000100			X=X_1			;NEXT BIT
 48309
 48310
 48311					;TRY TO RESET THE PI AND APR VIA A CONO BIT TO DEVICE 774
 48312						CLRBTH^
 48313	065110	700 04 0 00 267760 		CLRAPR
 48314	065111	700 14 0 00 031577 		CLRPI^
 48315	065112	7 004 20 0 00 002377 		CONO	PI,PION!CHNON!177
DFKAA PDP-10 KL10 BASIC INSTRUCTION DIAGNOSTIC (1) VER 0,2	MACRO %52(537) 09:34 31-JAN-77 PAGE 43-3
DFKAA8	MAC	25-AUG-75 14:17		TEST VARIOUS RESETS                                                                SEQ 1111

 48316	065113	7 000 20 0 00 000007 		CONO	APR,7		;TURN ON PI AND APR BITS
 48317	065114	7 774 20 0 00 000100 		CONO	LAST,X		;SEND AND IOB BIT OUT
 48318	065115	7 004 24 0 00 000007 		CONI	PI,7		;PI BITS SHOULD STILL BE SET
 48319	065116	302 07 0 00 000377 		CAIE	7,377
 48320						STOP^
 48321	065117	254 04 0 00 065120 		HALT	.+1		;INSTRUCTION FAILED REPLACE
 48322	065120	254 00 0 00 065121 		JRST	.+1		;WITH JRST BACK^
 48323	065121	7 000 24 0 00 000006 		CONI	APR,6		;APR BITS SHOULD BE SET
 48324	065122	302 06 0 00 000007 		CAIE	6,7
 48325						STOP^
 48326	065123	254 04 0 00 065124 		HALT	.+1		;INSTRUCTION FAILED REPLACE
 48327	065124	254 00 0 00 065125 		JRST	.+1		;WITH JRST BACK^
 48328			000200			X=X_1			;NEXT BIT
 48329
 48330
 48331					;TRY TO RESET THE PI AND APR VIA A CONO BIT TO DEVICE 774
 48332						CLRBTH^
 48333	065125	700 04 0 00 267760 		CLRAPR
 48334	065126	700 14 0 00 031577 		CLRPI^
 48335	065127	7 004 20 0 00 002377 		CONO	PI,PION!CHNON!177
 48336	065130	7 000 20 0 00 000007 		CONO	APR,7		;TURN ON PI AND APR BITS
 48337	065131	7 774 20 0 00 000200 		CONO	LAST,X		;SEND AND IOB BIT OUT
 48338	065132	7 004 24 0 00 000007 		CONI	PI,7		;PI BITS SHOULD STILL BE SET
 48339	065133	302 07 0 00 000377 		CAIE	7,377
 48340						STOP^
 48341	065134	254 04 0 00 065135 		HALT	.+1		;INSTRUCTION FAILED REPLACE
 48342	065135	254 00 0 00 065136 		JRST	.+1		;WITH JRST BACK^
 48343	065136	7 000 24 0 00 000006 		CONI	APR,6		;APR BITS SHOULD BE SET
 48344	065137	302 06 0 00 000007 		CAIE	6,7
 48345						STOP^
 48346	065140	254 04 0 00 065141 		HALT	.+1		;INSTRUCTION FAILED REPLACE
 48347	065141	254 00 0 00 065142 		JRST	.+1		;WITH JRST BACK^
 48348			000400			X=X_1			;NEXT BIT
 48349
 48350
 48351					;TRY TO RESET THE PI AND APR VIA A CONO BIT TO DEVICE 774
 48352						CLRBTH^
 48353	065142	700 04 0 00 267760 		CLRAPR
 48354	065143	700 14 0 00 031577 		CLRPI^
 48355	065144	7 004 20 0 00 002377 		CONO	PI,PION!CHNON!177
 48356	065145	7 000 20 0 00 000007 		CONO	APR,7		;TURN ON PI AND APR BITS
 48357	065146	7 774 20 0 00 000400 		CONO	LAST,X		;SEND AND IOB BIT OUT
 48358	065147	7 004 24 0 00 000007 		CONI	PI,7		;PI BITS SHOULD STILL BE SET
 48359	065150	302 07 0 00 000377 		CAIE	7,377
 48360						STOP^
 48361	065151	254 04 0 00 065152 		HALT	.+1		;INSTRUCTION FAILED REPLACE
 48362	065152	254 00 0 00 065153 		JRST	.+1		;WITH JRST BACK^
 48363	065153	7 000 24 0 00 000006 		CONI	APR,6		;APR BITS SHOULD BE SET
 48364	065154	302 06 0 00 000007 		CAIE	6,7
 48365						STOP^
 48366	065155	254 04 0 00 065156 		HALT	.+1		;INSTRUCTION FAILED REPLACE
 48367	065156	254 00 0 00 065157 		JRST	.+1		;WITH JRST BACK^
 48368			001000			X=X_1			;NEXT BIT
 48369
 48370
DFKAA PDP-10 KL10 BASIC INSTRUCTION DIAGNOSTIC (1) VER 0,2	MACRO %52(537) 09:34 31-JAN-77 PAGE 43-4
DFKAA8	MAC	25-AUG-75 14:17		TEST VARIOUS RESETS                                                                SEQ 1112

 48371					;TRY TO RESET THE PI AND APR VIA A CONO BIT TO DEVICE 774
 48372						CLRBTH^
 48373	065157	700 04 0 00 267760 		CLRAPR
 48374	065160	700 14 0 00 031577 		CLRPI^
 48375	065161	7 004 20 0 00 002377 		CONO	PI,PION!CHNON!177
 48376	065162	7 000 20 0 00 000007 		CONO	APR,7		;TURN ON PI AND APR BITS
 48377	065163	7 774 20 0 00 001000 		CONO	LAST,X		;SEND AND IOB BIT OUT
 48378	065164	7 004 24 0 00 000007 		CONI	PI,7		;PI BITS SHOULD STILL BE SET
 48379	065165	302 07 0 00 000377 		CAIE	7,377
 48380						STOP^
 48381	065166	254 04 0 00 065167 		HALT	.+1		;INSTRUCTION FAILED REPLACE
 48382	065167	254 00 0 00 065170 		JRST	.+1		;WITH JRST BACK^
 48383	065170	7 000 24 0 00 000006 		CONI	APR,6		;APR BITS SHOULD BE SET
 48384	065171	302 06 0 00 000007 		CAIE	6,7
 48385						STOP^
 48386	065172	254 04 0 00 065173 		HALT	.+1		;INSTRUCTION FAILED REPLACE
 48387	065173	254 00 0 00 065174 		JRST	.+1		;WITH JRST BACK^
 48388			002000			X=X_1			;NEXT BIT
 48389
 48390
 48391					;TRY TO RESET THE PI AND APR VIA A CONO BIT TO DEVICE 774
 48392						CLRBTH^
 48393	065174	700 04 0 00 267760 		CLRAPR
 48394	065175	700 14 0 00 031577 		CLRPI^
 48395	065176	7 004 20 0 00 002377 		CONO	PI,PION!CHNON!177
 48396	065177	7 000 20 0 00 000007 		CONO	APR,7		;TURN ON PI AND APR BITS
 48397	065200	7 774 20 0 00 002000 		CONO	LAST,X		;SEND AND IOB BIT OUT
 48398	065201	7 004 24 0 00 000007 		CONI	PI,7		;PI BITS SHOULD STILL BE SET
 48399	065202	302 07 0 00 000377 		CAIE	7,377
 48400						STOP^
 48401	065203	254 04 0 00 065204 		HALT	.+1		;INSTRUCTION FAILED REPLACE
 48402	065204	254 00 0 00 065205 		JRST	.+1		;WITH JRST BACK^
 48403	065205	7 000 24 0 00 000006 		CONI	APR,6		;APR BITS SHOULD BE SET
 48404	065206	302 06 0 00 000007 		CAIE	6,7
 48405						STOP^
 48406	065207	254 04 0 00 065210 		HALT	.+1		;INSTRUCTION FAILED REPLACE
 48407	065210	254 00 0 00 065211 		JRST	.+1		;WITH JRST BACK^
 48408			004000			X=X_1			;NEXT BIT
 48409
 48410
 48411					;TRY TO RESET THE PI AND APR VIA A CONO BIT TO DEVICE 774
 48412						CLRBTH^
 48413	065211	700 04 0 00 267760 		CLRAPR
 48414	065212	700 14 0 00 031577 		CLRPI^
 48415	065213	7 004 20 0 00 002377 		CONO	PI,PION!CHNON!177
 48416	065214	7 000 20 0 00 000007 		CONO	APR,7		;TURN ON PI AND APR BITS
 48417	065215	7 774 20 0 00 004000 		CONO	LAST,X		;SEND AND IOB BIT OUT
 48418	065216	7 004 24 0 00 000007 		CONI	PI,7		;PI BITS SHOULD STILL BE SET
 48419	065217	302 07 0 00 000377 		CAIE	7,377
 48420						STOP^
 48421	065220	254 04 0 00 065221 		HALT	.+1		;INSTRUCTION FAILED REPLACE
 48422	065221	254 00 0 00 065222 		JRST	.+1		;WITH JRST BACK^
 48423	065222	7 000 24 0 00 000006 		CONI	APR,6		;APR BITS SHOULD BE SET
 48424	065223	302 06 0 00 000007 		CAIE	6,7
 48425						STOP^
DFKAA PDP-10 KL10 BASIC INSTRUCTION DIAGNOSTIC (1) VER 0,2	MACRO %52(537) 09:34 31-JAN-77 PAGE 43-5
DFKAA8	MAC	25-AUG-75 14:17		TEST VARIOUS RESETS                                                                SEQ 1113

 48426	065224	254 04 0 00 065225 		HALT	.+1		;INSTRUCTION FAILED REPLACE
 48427	065225	254 00 0 00 065226 		JRST	.+1		;WITH JRST BACK^
 48428			010000			X=X_1			;NEXT BIT
 48429
 48430
 48431					;TRY TO RESET THE PI AND APR VIA A CONO BIT TO DEVICE 774
 48432						CLRBTH^
 48433	065226	700 04 0 00 267760 		CLRAPR
 48434	065227	700 14 0 00 031577 		CLRPI^
 48435	065230	7 004 20 0 00 002377 		CONO	PI,PION!CHNON!177
 48436	065231	7 000 20 0 00 000007 		CONO	APR,7		;TURN ON PI AND APR BITS
 48437	065232	7 774 20 0 00 010000 		CONO	LAST,X		;SEND AND IOB BIT OUT
 48438	065233	7 004 24 0 00 000007 		CONI	PI,7		;PI BITS SHOULD STILL BE SET
 48439	065234	302 07 0 00 000377 		CAIE	7,377
 48440						STOP^
 48441	065235	254 04 0 00 065236 		HALT	.+1		;INSTRUCTION FAILED REPLACE
 48442	065236	254 00 0 00 065237 		JRST	.+1		;WITH JRST BACK^
 48443	065237	7 000 24 0 00 000006 		CONI	APR,6		;APR BITS SHOULD BE SET
 48444	065240	302 06 0 00 000007 		CAIE	6,7
 48445						STOP^
 48446	065241	254 04 0 00 065242 		HALT	.+1		;INSTRUCTION FAILED REPLACE
 48447	065242	254 00 0 00 065243 		JRST	.+1		;WITH JRST BACK^
 48448			020000			X=X_1			;NEXT BIT
 48449
 48450
 48451					;TRY TO RESET THE PI AND APR VIA A CONO BIT TO DEVICE 774
 48452						CLRBTH^
 48453	065243	700 04 0 00 267760 		CLRAPR
 48454	065244	700 14 0 00 031577 		CLRPI^
 48455	065245	7 004 20 0 00 002377 		CONO	PI,PION!CHNON!177
 48456	065246	7 000 20 0 00 000007 		CONO	APR,7		;TURN ON PI AND APR BITS
 48457	065247	7 774 20 0 00 020000 		CONO	LAST,X		;SEND AND IOB BIT OUT
 48458	065250	7 004 24 0 00 000007 		CONI	PI,7		;PI BITS SHOULD STILL BE SET
 48459	065251	302 07 0 00 000377 		CAIE	7,377
 48460						STOP^
 48461	065252	254 04 0 00 065253 		HALT	.+1		;INSTRUCTION FAILED REPLACE
 48462	065253	254 00 0 00 065254 		JRST	.+1		;WITH JRST BACK^
 48463	065254	7 000 24 0 00 000006 		CONI	APR,6		;APR BITS SHOULD BE SET
 48464	065255	302 06 0 00 000007 		CAIE	6,7
 48465						STOP^
 48466	065256	254 04 0 00 065257 		HALT	.+1		;INSTRUCTION FAILED REPLACE
 48467	065257	254 00 0 00 065260 		JRST	.+1		;WITH JRST BACK^
 48468			040000			X=X_1			;NEXT BIT
 48469
 48470
 48471					;TRY TO RESET THE PI AND APR VIA A CONO BIT TO DEVICE 774
 48472						CLRBTH^
 48473	065260	700 04 0 00 267760 		CLRAPR
 48474	065261	700 14 0 00 031577 		CLRPI^
 48475	065262	7 004 20 0 00 002377 		CONO	PI,PION!CHNON!177
 48476	065263	7 000 20 0 00 000007 		CONO	APR,7		;TURN ON PI AND APR BITS
 48477	065264	7 774 20 0 00 040000 		CONO	LAST,X		;SEND AND IOB BIT OUT
 48478	065265	7 004 24 0 00 000007 		CONI	PI,7		;PI BITS SHOULD STILL BE SET
 48479	065266	302 07 0 00 000377 		CAIE	7,377
 48480						STOP^
DFKAA PDP-10 KL10 BASIC INSTRUCTION DIAGNOSTIC (1) VER 0,2	MACRO %52(537) 09:34 31-JAN-77 PAGE 43-6
DFKAA8	MAC	25-AUG-75 14:17		TEST VARIOUS RESETS                                                                SEQ 1114

 48481	065267	254 04 0 00 065270 		HALT	.+1		;INSTRUCTION FAILED REPLACE
 48482	065270	254 00 0 00 065271 		JRST	.+1		;WITH JRST BACK^
 48483	065271	7 000 24 0 00 000006 		CONI	APR,6		;APR BITS SHOULD BE SET
 48484	065272	302 06 0 00 000007 		CAIE	6,7
 48485						STOP^
 48486	065273	254 04 0 00 065274 		HALT	.+1		;INSTRUCTION FAILED REPLACE
 48487	065274	254 00 0 00 065275 		JRST	.+1		;WITH JRST BACK^
 48488			100000			X=X_1			;NEXT BIT
 48489
 48490
 48491					;TRY TO RESET THE PI AND APR VIA A CONO BIT TO DEVICE 774
 48492						CLRBTH^
 48493	065275	700 04 0 00 267760 		CLRAPR
 48494	065276	700 14 0 00 031577 		CLRPI^
 48495	065277	7 004 20 0 00 002377 		CONO	PI,PION!CHNON!177
 48496	065300	7 000 20 0 00 000007 		CONO	APR,7		;TURN ON PI AND APR BITS
 48497	065301	7 774 20 0 00 100000 		CONO	LAST,X		;SEND AND IOB BIT OUT
 48498	065302	7 004 24 0 00 000007 		CONI	PI,7		;PI BITS SHOULD STILL BE SET
 48499	065303	302 07 0 00 000377 		CAIE	7,377
 48500						STOP^
 48501	065304	254 04 0 00 065305 		HALT	.+1		;INSTRUCTION FAILED REPLACE
 48502	065305	254 00 0 00 065306 		JRST	.+1		;WITH JRST BACK^
 48503	065306	7 000 24 0 00 000006 		CONI	APR,6		;APR BITS SHOULD BE SET
 48504	065307	302 06 0 00 000007 		CAIE	6,7
 48505						STOP^
 48506	065310	254 04 0 00 065311 		HALT	.+1		;INSTRUCTION FAILED REPLACE
 48507	065311	254 00 0 00 065312 		JRST	.+1		;WITH JRST BACK^
 48508			200000			X=X_1			;NEXT BIT
 48509
 48510
 48511					;TRY TO RESET THE PI AND APR VIA A CONO BIT TO DEVICE 774
 48512						CLRBTH^
 48513	065312	700 04 0 00 267760 		CLRAPR
 48514	065313	700 14 0 00 031577 		CLRPI^
 48515	065314	7 004 20 0 00 002377 		CONO	PI,PION!CHNON!177
 48516	065315	7 000 20 0 00 000007 		CONO	APR,7		;TURN ON PI AND APR BITS
 48517	065316	7 774 20 0 00 200000 		CONO	LAST,X		;SEND AND IOB BIT OUT
 48518	065317	7 004 24 0 00 000007 		CONI	PI,7		;PI BITS SHOULD STILL BE SET
 48519	065320	302 07 0 00 000377 		CAIE	7,377
 48520						STOP^
 48521	065321	254 04 0 00 065322 		HALT	.+1		;INSTRUCTION FAILED REPLACE
 48522	065322	254 00 0 00 065323 		JRST	.+1		;WITH JRST BACK^
 48523	065323	7 000 24 0 00 000006 		CONI	APR,6		;APR BITS SHOULD BE SET
 48524	065324	302 06 0 00 000007 		CAIE	6,7
 48525						STOP^
 48526	065325	254 04 0 00 065326 		HALT	.+1		;INSTRUCTION FAILED REPLACE
 48527	065326	254 00 0 00 065327 		JRST	.+1		;WITH JRST BACK^
 48528			400000			X=X_1			;NEXT BIT
 48529
 48530
 48531					;TRY TO RESET THE PI AND APR VIA A CONO BIT TO DEVICE 774
 48532						CLRBTH^
 48533	065327	700 04 0 00 267760 		CLRAPR
 48534	065330	700 14 0 00 031577 		CLRPI^
 48535	065331	7 004 20 0 00 002377 		CONO	PI,PION!CHNON!177
DFKAA PDP-10 KL10 BASIC INSTRUCTION DIAGNOSTIC (1) VER 0,2	MACRO %52(537) 09:34 31-JAN-77 PAGE 43-7
DFKAA8	MAC	25-AUG-75 14:17		TEST VARIOUS RESETS                                                                SEQ 1115

 48536	065332	7 000 20 0 00 000007 		CONO	APR,7		;TURN ON PI AND APR BITS
 48537	065333	7 774 20 0 00 400000 		CONO	LAST,X		;SEND AND IOB BIT OUT
 48538	065334	7 004 24 0 00 000007 		CONI	PI,7		;PI BITS SHOULD STILL BE SET
 48539	065335	302 07 0 00 000377 		CAIE	7,377
 48540						STOP^
 48541	065336	254 04 0 00 065337 		HALT	.+1		;INSTRUCTION FAILED REPLACE
 48542	065337	254 00 0 00 065340 		JRST	.+1		;WITH JRST BACK^
 48543	065340	7 000 24 0 00 000006 		CONI	APR,6		;APR BITS SHOULD BE SET
 48544	065341	302 06 0 00 000007 		CAIE	6,7
 48545						STOP^
 48546	065342	254 04 0 00 065343 		HALT	.+1		;INSTRUCTION FAILED REPLACE
 48547	065343	254 00 0 00 065344 		JRST	.+1		;WITH JRST BACK^
 48548		000001	000000			X=X_1			;NEXT BIT
 48549
DFKAA PDP-10 KL10 BASIC INSTRUCTION DIAGNOSTIC (1) VER 0,2	MACRO %52(537) 09:34 31-JAN-77 PAGE 44
DFKAA8	MAC	25-AUG-75 14:17		INTERRUPT OUT OF INDIRECT LOOP                                                     SEQ 1116

 48550					SUBTTL	INTERRUPT OUT OF INDIRECT LOOP
 48551
 48552						INDPI	42,1^
 48553
 48554					;GET OURSELVES INTO 42 TIGHT INDIRECT LOOP.
 48555					;AND SEE IF WE ARE ABLE TO INTERRUPT OUT OF IT.
 48556					;THE LOOP IS DONE TEN TIMES. EACH TIME THE INTERRUPT IS DISMISSED AND
 48557					;WE WILL RETURN TO THE "JRST @." INSTRUCTION.
 48558
 48559						TSET^
 48560			065344			%X=.			;DEFINE %X TO SAVE
 48561	065344	201 00 0 00 065344 		MOVEI	%X		;SAVE THIS PC IN CASE OF WILD TRANSFER
 48562	065345	202 00 0 00 071350 		MOVEM	TNUMB#		;BECAUSE OF PC MOD OR INTERRUPT^
 48563	065346	201 10 0 00 000012 		MOVEI	10,^D10		;TIMES TO DO THIS TEST
 48564	065347	202 10 0 00 071347 		MOVEM	10,COUNTX#	;STORE IT
 48565	065350	200 10 0 00 071171 		MOVE	10,[JSP 1,..0155]	;INTERRUPT TRAP INSTRUCTION
 48566	065351	202 10 0 00 000042 		MOVEM	10,42		;STORE FOR INTERRUPT REQUEST
 48567						CLRBT1^
 48568	065352	700 04 0 00 267760 		CLRAPR
 48569	065353	700 14 0 00 031577 		CLRPI^
 48570	065354	7 004 20 0 00 002377 		CONO	PI,2377		;TURN ON PI AND CHANNELS
 48571	065355	7 000 20 0 00 114001 		CONO	APR,LESBER!LSSBER!1	;ENABLE AND SET S BUS ERRORS,ENABLE CH 1
 48572	065356	254 00 1 00 065356 		JRST	@.		;LOOP
 48573	065357	254 04 0 00 065360 		HALT	.+1		;ERROR IF HERE  (GOT OUT OF INDIRECT LOOP)
 48574	065360				..0155:	TGET^
 48575	065360	200 00 0 00 071350 		MOVE	TNUMB		;GET LAST PC STORED AND CHECK TO SEE
 48576	065361	302 00 0 00 065344 		CAIE	%X		;IF ITS WHERE WE REALLY SHOULD BE
 48577						STOP2^^
 48578	065362	254 04 0 00 065363 		HALT	.+1		;HALT IF WE SHOULDN'T BE HERE
 48579	065363	254 00 0 00 065364 		JRST	.+1		;WILD TRANSFER CAUSED THIS HALT.^
 48580	065364	405 01 0 00 777777 		ANDI	1,-1		;MASK PC BITS
 48581	065365	302 01 0 00 065356 		CAIE	1,..0155-2		;WAS CORRECT PC STORED?
 48582						STOP^
 48583	065366	254 04 0 00 065367 		HALT	.+1		;INSTRUCTION FAILED REPLACE
 48584	065367	254 00 0 00 065370 		JRST	.+1		;WITH JRST BACK^
 48585	065370	372 00 0 00 071347 		SOSE	COUNTX		;LOOP TEST
 48586	065371	254 12 1 00 000001 		JEN	@1		;DISMISS INTERRUPT
 48587						CLRBTH^
 48588	065372	700 04 0 00 267760 		CLRAPR
 48589	065373	700 14 0 00 031577 		CLRPI^
 48590					^
 48591
 48592						INDPI	44,2^
 48593
 48594					;GET OURSELVES INTO 44 TIGHT INDIRECT LOOP.
 48595					;AND SEE IF WE ARE ABLE TO INTERRUPT OUT OF IT.
 48596					;THE LOOP IS DONE TEN TIMES. EACH TIME THE INTERRUPT IS DISMISSED AND
 48597					;WE WILL RETURN TO THE "JRST @." INSTRUCTION.
 48598
 48599						TSET^
 48600			065374			%X=.			;DEFINE %X TO SAVE
 48601	065374	201 00 0 00 065374 		MOVEI	%X		;SAVE THIS PC IN CASE OF WILD TRANSFER
 48602	065375	202 00 0 00 071350 		MOVEM	TNUMB#		;BECAUSE OF PC MOD OR INTERRUPT^
 48603	065376	201 10 0 00 000012 		MOVEI	10,^D10		;TIMES TO DO THIS TEST
 48604	065377	202 10 0 00 071347 		MOVEM	10,COUNTX#	;STORE IT
DFKAA PDP-10 KL10 BASIC INSTRUCTION DIAGNOSTIC (1) VER 0,2	MACRO %52(537) 09:34 31-JAN-77 PAGE 44-1
DFKAA8	MAC	25-AUG-75 14:17		INTERRUPT OUT OF INDIRECT LOOP                                                     SEQ 1117

 48605	065400	200 10 0 00 071172 		MOVE	10,[JSP 1,..0156]	;INTERRUPT TRAP INSTRUCTION
 48606	065401	202 10 0 00 000044 		MOVEM	10,44		;STORE FOR INTERRUPT REQUEST
 48607						CLRBT1^
 48608	065402	700 04 0 00 267760 		CLRAPR
 48609	065403	700 14 0 00 031577 		CLRPI^
 48610	065404	7 004 20 0 00 002377 		CONO	PI,2377		;TURN ON PI AND CHANNELS
 48611	065405	7 000 20 0 00 114002 		CONO	APR,LESBER!LSSBER!2	;ENABLE AND SET S BUS ERRORS,ENABLE CH 2
 48612	065406	254 00 1 00 065406 		JRST	@.		;LOOP
 48613	065407	254 04 0 00 065410 		HALT	.+1		;ERROR IF HERE  (GOT OUT OF INDIRECT LOOP)
 48614	065410				..0156:	TGET^
 48615	065410	200 00 0 00 071350 		MOVE	TNUMB		;GET LAST PC STORED AND CHECK TO SEE
 48616	065411	302 00 0 00 065374 		CAIE	%X		;IF ITS WHERE WE REALLY SHOULD BE
 48617						STOP2^^
 48618	065412	254 04 0 00 065413 		HALT	.+1		;HALT IF WE SHOULDN'T BE HERE
 48619	065413	254 00 0 00 065414 		JRST	.+1		;WILD TRANSFER CAUSED THIS HALT.^
 48620	065414	405 01 0 00 777777 		ANDI	1,-1		;MASK PC BITS
 48621	065415	302 01 0 00 065406 		CAIE	1,..0156-2		;WAS CORRECT PC STORED?
 48622						STOP^
 48623	065416	254 04 0 00 065417 		HALT	.+1		;INSTRUCTION FAILED REPLACE
 48624	065417	254 00 0 00 065420 		JRST	.+1		;WITH JRST BACK^
 48625	065420	372 00 0 00 071347 		SOSE	COUNTX		;LOOP TEST
 48626	065421	254 12 1 00 000001 		JEN	@1		;DISMISS INTERRUPT
 48627						CLRBTH^
 48628	065422	700 04 0 00 267760 		CLRAPR
 48629	065423	700 14 0 00 031577 		CLRPI^
 48630					^
 48631
 48632						INDPI	46,3^
 48633
 48634					;GET OURSELVES INTO 46 TIGHT INDIRECT LOOP.
 48635					;AND SEE IF WE ARE ABLE TO INTERRUPT OUT OF IT.
 48636					;THE LOOP IS DONE TEN TIMES. EACH TIME THE INTERRUPT IS DISMISSED AND
 48637					;WE WILL RETURN TO THE "JRST @." INSTRUCTION.
 48638
 48639						TSET^
 48640			065424			%X=.			;DEFINE %X TO SAVE
 48641	065424	201 00 0 00 065424 		MOVEI	%X		;SAVE THIS PC IN CASE OF WILD TRANSFER
 48642	065425	202 00 0 00 071350 		MOVEM	TNUMB#		;BECAUSE OF PC MOD OR INTERRUPT^
 48643	065426	201 10 0 00 000012 		MOVEI	10,^D10		;TIMES TO DO THIS TEST
 48644	065427	202 10 0 00 071347 		MOVEM	10,COUNTX#	;STORE IT
 48645	065430	200 10 0 00 071173 		MOVE	10,[JSP 1,..0157]	;INTERRUPT TRAP INSTRUCTION
 48646	065431	202 10 0 00 000046 		MOVEM	10,46		;STORE FOR INTERRUPT REQUEST
 48647						CLRBT1^
 48648	065432	700 04 0 00 267760 		CLRAPR
 48649	065433	700 14 0 00 031577 		CLRPI^
 48650	065434	7 004 20 0 00 002377 		CONO	PI,2377		;TURN ON PI AND CHANNELS
 48651	065435	7 000 20 0 00 114003 		CONO	APR,LESBER!LSSBER!3	;ENABLE AND SET S BUS ERRORS,ENABLE CH 3
 48652	065436	254 00 1 00 065436 		JRST	@.		;LOOP
 48653	065437	254 04 0 00 065440 		HALT	.+1		;ERROR IF HERE  (GOT OUT OF INDIRECT LOOP)
 48654	065440				..0157:	TGET^
 48655	065440	200 00 0 00 071350 		MOVE	TNUMB		;GET LAST PC STORED AND CHECK TO SEE
 48656	065441	302 00 0 00 065424 		CAIE	%X		;IF ITS WHERE WE REALLY SHOULD BE
 48657						STOP2^^
 48658	065442	254 04 0 00 065443 		HALT	.+1		;HALT IF WE SHOULDN'T BE HERE
 48659	065443	254 00 0 00 065444 		JRST	.+1		;WILD TRANSFER CAUSED THIS HALT.^
DFKAA PDP-10 KL10 BASIC INSTRUCTION DIAGNOSTIC (1) VER 0,2	MACRO %52(537) 09:34 31-JAN-77 PAGE 44-2
DFKAA8	MAC	25-AUG-75 14:17		INTERRUPT OUT OF INDIRECT LOOP                                                     SEQ 1118

 48660	065444	405 01 0 00 777777 		ANDI	1,-1		;MASK PC BITS
 48661	065445	302 01 0 00 065436 		CAIE	1,..0157-2		;WAS CORRECT PC STORED?
 48662						STOP^
 48663	065446	254 04 0 00 065447 		HALT	.+1		;INSTRUCTION FAILED REPLACE
 48664	065447	254 00 0 00 065450 		JRST	.+1		;WITH JRST BACK^
 48665	065450	372 00 0 00 071347 		SOSE	COUNTX		;LOOP TEST
 48666	065451	254 12 1 00 000001 		JEN	@1		;DISMISS INTERRUPT
 48667						CLRBTH^
 48668	065452	700 04 0 00 267760 		CLRAPR
 48669	065453	700 14 0 00 031577 		CLRPI^
 48670					^
 48671
 48672						INDPI	50,4^
 48673
 48674					;GET OURSELVES INTO 50 TIGHT INDIRECT LOOP.
 48675					;AND SEE IF WE ARE ABLE TO INTERRUPT OUT OF IT.
 48676					;THE LOOP IS DONE TEN TIMES. EACH TIME THE INTERRUPT IS DISMISSED AND
 48677					;WE WILL RETURN TO THE "JRST @." INSTRUCTION.
 48678
 48679						TSET^
 48680			065454			%X=.			;DEFINE %X TO SAVE
 48681	065454	201 00 0 00 065454 		MOVEI	%X		;SAVE THIS PC IN CASE OF WILD TRANSFER
 48682	065455	202 00 0 00 071350 		MOVEM	TNUMB#		;BECAUSE OF PC MOD OR INTERRUPT^
 48683	065456	201 10 0 00 000012 		MOVEI	10,^D10		;TIMES TO DO THIS TEST
 48684	065457	202 10 0 00 071347 		MOVEM	10,COUNTX#	;STORE IT
 48685	065460	200 10 0 00 071174 		MOVE	10,[JSP 1,..0160]	;INTERRUPT TRAP INSTRUCTION
 48686	065461	202 10 0 00 000050 		MOVEM	10,50		;STORE FOR INTERRUPT REQUEST
 48687						CLRBT1^
 48688	065462	700 04 0 00 267760 		CLRAPR
 48689	065463	700 14 0 00 031577 		CLRPI^
 48690	065464	7 004 20 0 00 002377 		CONO	PI,2377		;TURN ON PI AND CHANNELS
 48691	065465	7 000 20 0 00 114004 		CONO	APR,LESBER!LSSBER!4	;ENABLE AND SET S BUS ERRORS,ENABLE CH 4
 48692	065466	254 00 1 00 065466 		JRST	@.		;LOOP
 48693	065467	254 04 0 00 065470 		HALT	.+1		;ERROR IF HERE  (GOT OUT OF INDIRECT LOOP)
 48694	065470				..0160:	TGET^
 48695	065470	200 00 0 00 071350 		MOVE	TNUMB		;GET LAST PC STORED AND CHECK TO SEE
 48696	065471	302 00 0 00 065454 		CAIE	%X		;IF ITS WHERE WE REALLY SHOULD BE
 48697						STOP2^^
 48698	065472	254 04 0 00 065473 		HALT	.+1		;HALT IF WE SHOULDN'T BE HERE
 48699	065473	254 00 0 00 065474 		JRST	.+1		;WILD TRANSFER CAUSED THIS HALT.^
 48700	065474	405 01 0 00 777777 		ANDI	1,-1		;MASK PC BITS
 48701	065475	302 01 0 00 065466 		CAIE	1,..0160-2		;WAS CORRECT PC STORED?
 48702						STOP^
 48703	065476	254 04 0 00 065477 		HALT	.+1		;INSTRUCTION FAILED REPLACE
 48704	065477	254 00 0 00 065500 		JRST	.+1		;WITH JRST BACK^
 48705	065500	372 00 0 00 071347 		SOSE	COUNTX		;LOOP TEST
 48706	065501	254 12 1 00 000001 		JEN	@1		;DISMISS INTERRUPT
 48707						CLRBTH^
 48708	065502	700 04 0 00 267760 		CLRAPR
 48709	065503	700 14 0 00 031577 		CLRPI^
 48710					^
 48711
 48712						INDPI	52,5^
 48713
 48714					;GET OURSELVES INTO 52 TIGHT INDIRECT LOOP.
DFKAA PDP-10 KL10 BASIC INSTRUCTION DIAGNOSTIC (1) VER 0,2	MACRO %52(537) 09:34 31-JAN-77 PAGE 44-3
DFKAA8	MAC	25-AUG-75 14:17		INTERRUPT OUT OF INDIRECT LOOP                                                     SEQ 1119

 48715					;AND SEE IF WE ARE ABLE TO INTERRUPT OUT OF IT.
 48716					;THE LOOP IS DONE TEN TIMES. EACH TIME THE INTERRUPT IS DISMISSED AND
 48717					;WE WILL RETURN TO THE "JRST @." INSTRUCTION.
 48718
 48719						TSET^
 48720			065504			%X=.			;DEFINE %X TO SAVE
 48721	065504	201 00 0 00 065504 		MOVEI	%X		;SAVE THIS PC IN CASE OF WILD TRANSFER
 48722	065505	202 00 0 00 071350 		MOVEM	TNUMB#		;BECAUSE OF PC MOD OR INTERRUPT^
 48723	065506	201 10 0 00 000012 		MOVEI	10,^D10		;TIMES TO DO THIS TEST
 48724	065507	202 10 0 00 071347 		MOVEM	10,COUNTX#	;STORE IT
 48725	065510	200 10 0 00 071175 		MOVE	10,[JSP 1,..0161]	;INTERRUPT TRAP INSTRUCTION
 48726	065511	202 10 0 00 000052 		MOVEM	10,52		;STORE FOR INTERRUPT REQUEST
 48727						CLRBT1^
 48728	065512	700 04 0 00 267760 		CLRAPR
 48729	065513	700 14 0 00 031577 		CLRPI^
 48730	065514	7 004 20 0 00 002377 		CONO	PI,2377		;TURN ON PI AND CHANNELS
 48731	065515	7 000 20 0 00 114005 		CONO	APR,LESBER!LSSBER!5	;ENABLE AND SET S BUS ERRORS,ENABLE CH 5
 48732	065516	254 00 1 00 065516 		JRST	@.		;LOOP
 48733	065517	254 04 0 00 065520 		HALT	.+1		;ERROR IF HERE  (GOT OUT OF INDIRECT LOOP)
 48734	065520				..0161:	TGET^
 48735	065520	200 00 0 00 071350 		MOVE	TNUMB		;GET LAST PC STORED AND CHECK TO SEE
 48736	065521	302 00 0 00 065504 		CAIE	%X		;IF ITS WHERE WE REALLY SHOULD BE
 48737						STOP2^^
 48738	065522	254 04 0 00 065523 		HALT	.+1		;HALT IF WE SHOULDN'T BE HERE
 48739	065523	254 00 0 00 065524 		JRST	.+1		;WILD TRANSFER CAUSED THIS HALT.^
 48740	065524	405 01 0 00 777777 		ANDI	1,-1		;MASK PC BITS
 48741	065525	302 01 0 00 065516 		CAIE	1,..0161-2		;WAS CORRECT PC STORED?
 48742						STOP^
 48743	065526	254 04 0 00 065527 		HALT	.+1		;INSTRUCTION FAILED REPLACE
 48744	065527	254 00 0 00 065530 		JRST	.+1		;WITH JRST BACK^
 48745	065530	372 00 0 00 071347 		SOSE	COUNTX		;LOOP TEST
 48746	065531	254 12 1 00 000001 		JEN	@1		;DISMISS INTERRUPT
 48747						CLRBTH^
 48748	065532	700 04 0 00 267760 		CLRAPR
 48749	065533	700 14 0 00 031577 		CLRPI^
 48750					^
 48751
 48752						INDPI	54,6^
 48753
 48754					;GET OURSELVES INTO 54 TIGHT INDIRECT LOOP.
 48755					;AND SEE IF WE ARE ABLE TO INTERRUPT OUT OF IT.
 48756					;THE LOOP IS DONE TEN TIMES. EACH TIME THE INTERRUPT IS DISMISSED AND
 48757					;WE WILL RETURN TO THE "JRST @." INSTRUCTION.
 48758
 48759						TSET^
 48760			065534			%X=.			;DEFINE %X TO SAVE
 48761	065534	201 00 0 00 065534 		MOVEI	%X		;SAVE THIS PC IN CASE OF WILD TRANSFER
 48762	065535	202 00 0 00 071350 		MOVEM	TNUMB#		;BECAUSE OF PC MOD OR INTERRUPT^
 48763	065536	201 10 0 00 000012 		MOVEI	10,^D10		;TIMES TO DO THIS TEST
 48764	065537	202 10 0 00 071347 		MOVEM	10,COUNTX#	;STORE IT
 48765	065540	200 10 0 00 071176 		MOVE	10,[JSP 1,..0162]	;INTERRUPT TRAP INSTRUCTION
 48766	065541	202 10 0 00 000054 		MOVEM	10,54		;STORE FOR INTERRUPT REQUEST
 48767						CLRBT1^
 48768	065542	700 04 0 00 267760 		CLRAPR
 48769	065543	700 14 0 00 031577 		CLRPI^
DFKAA PDP-10 KL10 BASIC INSTRUCTION DIAGNOSTIC (1) VER 0,2	MACRO %52(537) 09:34 31-JAN-77 PAGE 44-4
DFKAA8	MAC	25-AUG-75 14:17		INTERRUPT OUT OF INDIRECT LOOP                                                     SEQ 1120

 48770	065544	7 004 20 0 00 002377 		CONO	PI,2377		;TURN ON PI AND CHANNELS
 48771	065545	7 000 20 0 00 114006 		CONO	APR,LESBER!LSSBER!6	;ENABLE AND SET S BUS ERRORS,ENABLE CH 6
 48772	065546	254 00 1 00 065546 		JRST	@.		;LOOP
 48773	065547	254 04 0 00 065550 		HALT	.+1		;ERROR IF HERE  (GOT OUT OF INDIRECT LOOP)
 48774	065550				..0162:	TGET^
 48775	065550	200 00 0 00 071350 		MOVE	TNUMB		;GET LAST PC STORED AND CHECK TO SEE
 48776	065551	302 00 0 00 065534 		CAIE	%X		;IF ITS WHERE WE REALLY SHOULD BE
 48777						STOP2^^
 48778	065552	254 04 0 00 065553 		HALT	.+1		;HALT IF WE SHOULDN'T BE HERE
 48779	065553	254 00 0 00 065554 		JRST	.+1		;WILD TRANSFER CAUSED THIS HALT.^
 48780	065554	405 01 0 00 777777 		ANDI	1,-1		;MASK PC BITS
 48781	065555	302 01 0 00 065546 		CAIE	1,..0162-2		;WAS CORRECT PC STORED?
 48782						STOP^
 48783	065556	254 04 0 00 065557 		HALT	.+1		;INSTRUCTION FAILED REPLACE
 48784	065557	254 00 0 00 065560 		JRST	.+1		;WITH JRST BACK^
 48785	065560	372 00 0 00 071347 		SOSE	COUNTX		;LOOP TEST
 48786	065561	254 12 1 00 000001 		JEN	@1		;DISMISS INTERRUPT
 48787						CLRBTH^
 48788	065562	700 04 0 00 267760 		CLRAPR
 48789	065563	700 14 0 00 031577 		CLRPI^
 48790					^
 48791
 48792						INDPI	56,7^
 48793
 48794					;GET OURSELVES INTO 56 TIGHT INDIRECT LOOP.
 48795					;AND SEE IF WE ARE ABLE TO INTERRUPT OUT OF IT.
 48796					;THE LOOP IS DONE TEN TIMES. EACH TIME THE INTERRUPT IS DISMISSED AND
 48797					;WE WILL RETURN TO THE "JRST @." INSTRUCTION.
 48798
 48799						TSET^
 48800			065564			%X=.			;DEFINE %X TO SAVE
 48801	065564	201 00 0 00 065564 		MOVEI	%X		;SAVE THIS PC IN CASE OF WILD TRANSFER
 48802	065565	202 00 0 00 071350 		MOVEM	TNUMB#		;BECAUSE OF PC MOD OR INTERRUPT^
 48803	065566	201 10 0 00 000012 		MOVEI	10,^D10		;TIMES TO DO THIS TEST
 48804	065567	202 10 0 00 071347 		MOVEM	10,COUNTX#	;STORE IT
 48805	065570	200 10 0 00 071177 		MOVE	10,[JSP 1,..0163]	;INTERRUPT TRAP INSTRUCTION
 48806	065571	202 10 0 00 000056 		MOVEM	10,56		;STORE FOR INTERRUPT REQUEST
 48807						CLRBT1^
 48808	065572	700 04 0 00 267760 		CLRAPR
 48809	065573	700 14 0 00 031577 		CLRPI^
 48810	065574	7 004 20 0 00 002377 		CONO	PI,2377		;TURN ON PI AND CHANNELS
 48811	065575	7 000 20 0 00 114007 		CONO	APR,LESBER!LSSBER!7	;ENABLE AND SET S BUS ERRORS,ENABLE CH 7
 48812	065576	254 00 1 00 065576 		JRST	@.		;LOOP
 48813	065577	254 04 0 00 065600 		HALT	.+1		;ERROR IF HERE  (GOT OUT OF INDIRECT LOOP)
 48814	065600				..0163:	TGET^
 48815	065600	200 00 0 00 071350 		MOVE	TNUMB		;GET LAST PC STORED AND CHECK TO SEE
 48816	065601	302 00 0 00 065564 		CAIE	%X		;IF ITS WHERE WE REALLY SHOULD BE
 48817						STOP2^^
 48818	065602	254 04 0 00 065603 		HALT	.+1		;HALT IF WE SHOULDN'T BE HERE
 48819	065603	254 00 0 00 065604 		JRST	.+1		;WILD TRANSFER CAUSED THIS HALT.^
 48820	065604	405 01 0 00 777777 		ANDI	1,-1		;MASK PC BITS
 48821	065605	302 01 0 00 065576 		CAIE	1,..0163-2		;WAS CORRECT PC STORED?
 48822						STOP^
 48823	065606	254 04 0 00 065607 		HALT	.+1		;INSTRUCTION FAILED REPLACE
 48824	065607	254 00 0 00 065610 		JRST	.+1		;WITH JRST BACK^
DFKAA PDP-10 KL10 BASIC INSTRUCTION DIAGNOSTIC (1) VER 0,2	MACRO %52(537) 09:34 31-JAN-77 PAGE 44-5
DFKAA8	MAC	25-AUG-75 14:17		INTERRUPT OUT OF INDIRECT LOOP                                                     SEQ 1121

 48825	065610	372 00 0 00 071347 		SOSE	COUNTX		;LOOP TEST
 48826	065611	254 12 1 00 000001 		JEN	@1		;DISMISS INTERRUPT
 48827						CLRBTH^
 48828	065612	700 04 0 00 267760 		CLRAPR
 48829	065613	700 14 0 00 031577 		CLRPI^
 48830					^
DFKAA PDP-10 KL10 BASIC INSTRUCTION DIAGNOSTIC (1) VER 0,2	MACRO %52(537) 09:34 31-JAN-77 PAGE 45
DFKAA8	MAC	25-AUG-75 14:17		LOCAL UUO TESTING (LUUO)                                                           SEQ 1122

 48831					SUBTTL	LOCAL UUO TESTING (LUUO)
 48832
 48833					;TEST UUO'S IN RANGE 1-37
 48834					;TEST TO SEE THAT UUO TRAPS CORRECTLY AND THAT PC
 48835					;OF UUO IS CORRECT AND THAT UUO STORED IN 40 IS ALSO CORRECT
 48836					;MONITOR UUO'S ARE NOT TESTED.
 48837
 48838					;POSSIBLE CAUSES OF FAILURES IN LUUO FLOW.
 48839					;MA SPECIAL BITS NOT SETTING
 48840					;AD MAGIC # 40 @ET1
 48841					;XCTF SET AT FETCH CYCLE
 48842					;AR IR ENABLE @ET1
 48843					;AR SIGN SMEAR
 48844					;AD MAGIC NUMBER ENABLE
 48845					;AB AD EN @ET1
 48846					;INSTRUCTION FETCH @ET2
 48847
 48848	065614				UUO01:	XUUO	1B8,UUO02^
 48849
 48850					;EXECUTE AN LUUO AND CHECK THAT THE UUO AND PC STORED
 48851					;ARE CORRECT.
 48852
 48853		001000	000000			MLUUO==1B8		;THE UUO TO BE EXECUTED
 48854						TSET^
 48855			065614			%X=.			;DEFINE %X TO SAVE
 48856	065614	201 00 0 00 065614 		MOVEI	%X		;SAVE THIS PC IN CASE OF WILD TRANSFER
 48857	065615	202 00 0 00 071350 		MOVEM	TNUMB#		;BECAUSE OF PC MOD OR INTERRUPT^
 48858	065616	200 00 0 00 071200 	..0164:	MOVE	0,[JSP	1,.+4]	;TRAP INSTRUCTION
 48859	065617	202 00 0 00 000041 		MOVEM	0,41		;IN TO 41
 48860	065620	001000	000000			1B8			;EXECUTE A UUO
 48861	065621	254 04 0 00 065622 		HALT	.+1		;UUO DID NOT TRAP TO FORTY
 48862	065622	201 02 0 00 065621 		MOVEI	2,.-1		;GET UUO PC
 48863	065623	405 01 0 00 777777 		ANDI	1,-1		;MASK FLAGS OUT
 48864	065624	312 01 0 00 000002 		CAME	1,2		;PC CORRECT ?
 48865	065625	254 04 0 00 065626 		HALT	.+1		;PC OF UUO NOT = TO PC STORED
 48866	065626	200 00 0 00 000040 		MOVE	0,40		;GET UUO !
 48867	065627	312 00 0 00 070317 		CAME	0,[1B8!0]		;CORRECT UUO STORED IN 40?
 48868	065630	334 00 0 00 000000 		SKIPA			;NO
 48869	065631	254 00 0 00 065640 		JRST	UUO02		;TESTS OK !
 48870						STOP1^
 48871	065632	254 04 0 00 065633 		HALT	.+1		;UUO FAILED TO STORE MA BITS
 48872	065633	254 00 0 00 065634 		JRST	.+1		;INTO RIGHT HALF OF 40^
 48873						TGET^
 48874	065634	200 00 0 00 071350 		MOVE	TNUMB		;GET LAST PC STORED AND CHECK TO SEE
 48875	065635	302 00 0 00 065614 		CAIE	%X		;IF ITS WHERE WE REALLY SHOULD BE
 48876						STOP2^^
 48877	065636	254 04 0 00 065637 		HALT	.+1		;HALT IF WE SHOULDN'T BE HERE
 48878	065637	254 00 0 00 065640 		JRST	.+1		;WILD TRANSFER CAUSED THIS HALT.^
 48879					^
DFKAA PDP-10 KL10 BASIC INSTRUCTION DIAGNOSTIC (1) VER 0,2	MACRO %52(537) 09:34 31-JAN-77 PAGE 46
DFKAA8	MAC	25-AUG-75 14:17		LOCAL UUO TESTING (LUUO)                                                           SEQ 1123

 48880					;POSSIBLE CAUSES OF FAILURES IN LUUO FLOW.
 48881					;MA SPECIAL BITS NOT SETTING
 48882					;AD MAGIC # 40 @ET1
 48883					;XCTF SET AT FETCH CYCLE
 48884					;AR IR ENABLE @ET1
 48885					;AR SIGN SMEAR
 48886					;AD MAGIC NUMBER ENABLE
 48887					;AB AD EN @ET1
 48888					;INSTRUCTION FETCH @ET2
 48889	065640				UUO02:	XUUO	2B8,UUO03^
 48890
 48891					;EXECUTE AN LUUO AND CHECK THAT THE UUO AND PC STORED
 48892					;ARE CORRECT.
 48893
 48894		002000	000000			MLUUO==2B8		;THE UUO TO BE EXECUTED
 48895						TSET^
 48896			065640			%X=.			;DEFINE %X TO SAVE
 48897	065640	201 00 0 00 065640 		MOVEI	%X		;SAVE THIS PC IN CASE OF WILD TRANSFER
 48898	065641	202 00 0 00 071350 		MOVEM	TNUMB#		;BECAUSE OF PC MOD OR INTERRUPT^
 48899	065642	200 00 0 00 071201 	..0165:	MOVE	0,[JSP	1,.+4]	;TRAP INSTRUCTION
 48900	065643	202 00 0 00 000041 		MOVEM	0,41		;IN TO 41
 48901	065644	002000	000000			2B8			;EXECUTE A UUO
 48902	065645	254 04 0 00 065646 		HALT	.+1		;UUO DID NOT TRAP TO FORTY
 48903	065646	201 02 0 00 065645 		MOVEI	2,.-1		;GET UUO PC
 48904	065647	405 01 0 00 777777 		ANDI	1,-1		;MASK FLAGS OUT
 48905	065650	312 01 0 00 000002 		CAME	1,2		;PC CORRECT ?
 48906	065651	254 04 0 00 065652 		HALT	.+1		;PC OF UUO NOT = TO PC STORED
 48907	065652	200 00 0 00 000040 		MOVE	0,40		;GET UUO !
 48908	065653	312 00 0 00 070320 		CAME	0,[2B8!0]		;CORRECT UUO STORED IN 40?
 48909	065654	334 00 0 00 000000 		SKIPA			;NO
 48910	065655	254 00 0 00 065664 		JRST	UUO03		;TESTS OK !
 48911						STOP1^
 48912	065656	254 04 0 00 065657 		HALT	.+1		;UUO FAILED TO STORE MA BITS
 48913	065657	254 00 0 00 065660 		JRST	.+1		;INTO RIGHT HALF OF 40^
 48914						TGET^
 48915	065660	200 00 0 00 071350 		MOVE	TNUMB		;GET LAST PC STORED AND CHECK TO SEE
 48916	065661	302 00 0 00 065640 		CAIE	%X		;IF ITS WHERE WE REALLY SHOULD BE
 48917						STOP2^^
 48918	065662	254 04 0 00 065663 		HALT	.+1		;HALT IF WE SHOULDN'T BE HERE
 48919	065663	254 00 0 00 065664 		JRST	.+1		;WILD TRANSFER CAUSED THIS HALT.^
 48920					^
 48921					;POSSIBLE CAUSES OF FAILURES IN LUUO FLOW.
 48922					;MA SPECIAL BITS NOT SETTING
 48923					;AD MAGIC # 40 @ET1
 48924					;XCTF SET AT FETCH CYCLE
 48925					;AR IR ENABLE @ET1
 48926					;AR SIGN SMEAR
 48927					;AD MAGIC NUMBER ENABLE
 48928					;AB AD EN @ET1
 48929					;INSTRUCTION FETCH @ET2
DFKAA PDP-10 KL10 BASIC INSTRUCTION DIAGNOSTIC (1) VER 0,2	MACRO %52(537) 09:34 31-JAN-77 PAGE 47
DFKAA8	MAC	25-AUG-75 14:17		LOCAL UUO TESTING (LUUO)                                                           SEQ 1124

 48930	065664				UUO03:	XUUO	3B8,UUO04^
 48931
 48932					;EXECUTE AN LUUO AND CHECK THAT THE UUO AND PC STORED
 48933					;ARE CORRECT.
 48934
 48935		003000	000000			MLUUO==3B8		;THE UUO TO BE EXECUTED
 48936						TSET^
 48937			065664			%X=.			;DEFINE %X TO SAVE
 48938	065664	201 00 0 00 065664 		MOVEI	%X		;SAVE THIS PC IN CASE OF WILD TRANSFER
 48939	065665	202 00 0 00 071350 		MOVEM	TNUMB#		;BECAUSE OF PC MOD OR INTERRUPT^
 48940	065666	200 00 0 00 071202 	..0166:	MOVE	0,[JSP	1,.+4]	;TRAP INSTRUCTION
 48941	065667	202 00 0 00 000041 		MOVEM	0,41		;IN TO 41
 48942	065670	003000	000000			3B8			;EXECUTE A UUO
 48943	065671	254 04 0 00 065672 		HALT	.+1		;UUO DID NOT TRAP TO FORTY
 48944	065672	201 02 0 00 065671 		MOVEI	2,.-1		;GET UUO PC
 48945	065673	405 01 0 00 777777 		ANDI	1,-1		;MASK FLAGS OUT
 48946	065674	312 01 0 00 000002 		CAME	1,2		;PC CORRECT ?
 48947	065675	254 04 0 00 065676 		HALT	.+1		;PC OF UUO NOT = TO PC STORED
 48948	065676	200 00 0 00 000040 		MOVE	0,40		;GET UUO !
 48949	065677	312 00 0 00 071203 		CAME	0,[3B8!0]		;CORRECT UUO STORED IN 40?
 48950	065700	334 00 0 00 000000 		SKIPA			;NO
 48951	065701	254 00 0 00 065710 		JRST	UUO04		;TESTS OK !
 48952						STOP1^
 48953	065702	254 04 0 00 065703 		HALT	.+1		;UUO FAILED TO STORE MA BITS
 48954	065703	254 00 0 00 065704 		JRST	.+1		;INTO RIGHT HALF OF 40^
 48955						TGET^
 48956	065704	200 00 0 00 071350 		MOVE	TNUMB		;GET LAST PC STORED AND CHECK TO SEE
 48957	065705	302 00 0 00 065664 		CAIE	%X		;IF ITS WHERE WE REALLY SHOULD BE
 48958						STOP2^^
 48959	065706	254 04 0 00 065707 		HALT	.+1		;HALT IF WE SHOULDN'T BE HERE
 48960	065707	254 00 0 00 065710 		JRST	.+1		;WILD TRANSFER CAUSED THIS HALT.^
 48961					^
 48962					;POSSIBLE CAUSES OF FAILURES IN LUUO FLOW.
 48963					;MA SPECIAL BITS NOT SETTING
 48964					;AD MAGIC # 40 @ET1
 48965					;XCTF SET AT FETCH CYCLE
 48966					;AR IR ENABLE @ET1
 48967					;AR SIGN SMEAR
 48968					;AD MAGIC NUMBER ENABLE
 48969					;AB AD EN @ET1
 48970					;INSTRUCTION FETCH @ET2
DFKAA PDP-10 KL10 BASIC INSTRUCTION DIAGNOSTIC (1) VER 0,2	MACRO %52(537) 09:34 31-JAN-77 PAGE 48
DFKAA8	MAC	25-AUG-75 14:17		LOCAL UUO TESTING (LUUO)                                                           SEQ 1125

 48971	065710				UUO04:	XUUO	4B8,UUO05^
 48972
 48973					;EXECUTE AN LUUO AND CHECK THAT THE UUO AND PC STORED
 48974					;ARE CORRECT.
 48975
 48976		004000	000000			MLUUO==4B8		;THE UUO TO BE EXECUTED
 48977						TSET^
 48978			065710			%X=.			;DEFINE %X TO SAVE
 48979	065710	201 00 0 00 065710 		MOVEI	%X		;SAVE THIS PC IN CASE OF WILD TRANSFER
 48980	065711	202 00 0 00 071350 		MOVEM	TNUMB#		;BECAUSE OF PC MOD OR INTERRUPT^
 48981	065712	200 00 0 00 071204 	..0167:	MOVE	0,[JSP	1,.+4]	;TRAP INSTRUCTION
 48982	065713	202 00 0 00 000041 		MOVEM	0,41		;IN TO 41
 48983	065714	004000	000000			4B8			;EXECUTE A UUO
 48984	065715	254 04 0 00 065716 		HALT	.+1		;UUO DID NOT TRAP TO FORTY
 48985	065716	201 02 0 00 065715 		MOVEI	2,.-1		;GET UUO PC
 48986	065717	405 01 0 00 777777 		ANDI	1,-1		;MASK FLAGS OUT
 48987	065720	312 01 0 00 000002 		CAME	1,2		;PC CORRECT ?
 48988	065721	254 04 0 00 065722 		HALT	.+1		;PC OF UUO NOT = TO PC STORED
 48989	065722	200 00 0 00 000040 		MOVE	0,40		;GET UUO !
 48990	065723	312 00 0 00 070321 		CAME	0,[4B8!0]		;CORRECT UUO STORED IN 40?
 48991	065724	334 00 0 00 000000 		SKIPA			;NO
 48992	065725	254 00 0 00 065734 		JRST	UUO05		;TESTS OK !
 48993						STOP1^
 48994	065726	254 04 0 00 065727 		HALT	.+1		;UUO FAILED TO STORE MA BITS
 48995	065727	254 00 0 00 065730 		JRST	.+1		;INTO RIGHT HALF OF 40^
 48996						TGET^
 48997	065730	200 00 0 00 071350 		MOVE	TNUMB		;GET LAST PC STORED AND CHECK TO SEE
 48998	065731	302 00 0 00 065710 		CAIE	%X		;IF ITS WHERE WE REALLY SHOULD BE
 48999						STOP2^^
 49000	065732	254 04 0 00 065733 		HALT	.+1		;HALT IF WE SHOULDN'T BE HERE
 49001	065733	254 00 0 00 065734 		JRST	.+1		;WILD TRANSFER CAUSED THIS HALT.^
 49002					^
 49003					;POSSIBLE CAUSES OF FAILURES IN LUUO FLOW.
 49004					;MA SPECIAL BITS NOT SETTING
 49005					;AD MAGIC # 40 @ET1
 49006					;XCTF SET AT FETCH CYCLE
 49007					;AR IR ENABLE @ET1
 49008					;AR SIGN SMEAR
 49009					;AD MAGIC NUMBER ENABLE
 49010					;AB AD EN @ET1
 49011					;INSTRUCTION FETCH @ET2
DFKAA PDP-10 KL10 BASIC INSTRUCTION DIAGNOSTIC (1) VER 0,2	MACRO %52(537) 09:34 31-JAN-77 PAGE 49
DFKAA8	MAC	25-AUG-75 14:17		LOCAL UUO TESTING (LUUO)                                                           SEQ 1126

 49012	065734				UUO05:	XUUO	5B8,UUO06^
 49013
 49014					;EXECUTE AN LUUO AND CHECK THAT THE UUO AND PC STORED
 49015					;ARE CORRECT.
 49016
 49017		005000	000000			MLUUO==5B8		;THE UUO TO BE EXECUTED
 49018						TSET^
 49019			065734			%X=.			;DEFINE %X TO SAVE
 49020	065734	201 00 0 00 065734 		MOVEI	%X		;SAVE THIS PC IN CASE OF WILD TRANSFER
 49021	065735	202 00 0 00 071350 		MOVEM	TNUMB#		;BECAUSE OF PC MOD OR INTERRUPT^
 49022	065736	200 00 0 00 071205 	..0170:	MOVE	0,[JSP	1,.+4]	;TRAP INSTRUCTION
 49023	065737	202 00 0 00 000041 		MOVEM	0,41		;IN TO 41
 49024	065740	005000	000000			5B8			;EXECUTE A UUO
 49025	065741	254 04 0 00 065742 		HALT	.+1		;UUO DID NOT TRAP TO FORTY
 49026	065742	201 02 0 00 065741 		MOVEI	2,.-1		;GET UUO PC
 49027	065743	405 01 0 00 777777 		ANDI	1,-1		;MASK FLAGS OUT
 49028	065744	312 01 0 00 000002 		CAME	1,2		;PC CORRECT ?
 49029	065745	254 04 0 00 065746 		HALT	.+1		;PC OF UUO NOT = TO PC STORED
 49030	065746	200 00 0 00 000040 		MOVE	0,40		;GET UUO !
 49031	065747	312 00 0 00 071206 		CAME	0,[5B8!0]		;CORRECT UUO STORED IN 40?
 49032	065750	334 00 0 00 000000 		SKIPA			;NO
 49033	065751	254 00 0 00 065760 		JRST	UUO06		;TESTS OK !
 49034						STOP1^
 49035	065752	254 04 0 00 065753 		HALT	.+1		;UUO FAILED TO STORE MA BITS
 49036	065753	254 00 0 00 065754 		JRST	.+1		;INTO RIGHT HALF OF 40^
 49037						TGET^
 49038	065754	200 00 0 00 071350 		MOVE	TNUMB		;GET LAST PC STORED AND CHECK TO SEE
 49039	065755	302 00 0 00 065734 		CAIE	%X		;IF ITS WHERE WE REALLY SHOULD BE
 49040						STOP2^^
 49041	065756	254 04 0 00 065757 		HALT	.+1		;HALT IF WE SHOULDN'T BE HERE
 49042	065757	254 00 0 00 065760 		JRST	.+1		;WILD TRANSFER CAUSED THIS HALT.^
 49043					^
 49044					;POSSIBLE CAUSES OF FAILURES IN LUUO FLOW.
 49045					;MA SPECIAL BITS NOT SETTING
 49046					;AD MAGIC # 40 @ET1
 49047					;XCTF SET AT FETCH CYCLE
 49048					;AR IR ENABLE @ET1
 49049					;AR SIGN SMEAR
 49050					;AD MAGIC NUMBER ENABLE
 49051					;AB AD EN @ET1
 49052					;INSTRUCTION FETCH @ET2
DFKAA PDP-10 KL10 BASIC INSTRUCTION DIAGNOSTIC (1) VER 0,2	MACRO %52(537) 09:34 31-JAN-77 PAGE 50
DFKAA8	MAC	25-AUG-75 14:17		LOCAL UUO TESTING (LUUO)                                                           SEQ 1127

 49053	065760				UUO06:	XUUO	6B8,UUO07^
 49054
 49055					;EXECUTE AN LUUO AND CHECK THAT THE UUO AND PC STORED
 49056					;ARE CORRECT.
 49057
 49058		006000	000000			MLUUO==6B8		;THE UUO TO BE EXECUTED
 49059						TSET^
 49060			065760			%X=.			;DEFINE %X TO SAVE
 49061	065760	201 00 0 00 065760 		MOVEI	%X		;SAVE THIS PC IN CASE OF WILD TRANSFER
 49062	065761	202 00 0 00 071350 		MOVEM	TNUMB#		;BECAUSE OF PC MOD OR INTERRUPT^
 49063	065762	200 00 0 00 071207 	..0171:	MOVE	0,[JSP	1,.+4]	;TRAP INSTRUCTION
 49064	065763	202 00 0 00 000041 		MOVEM	0,41		;IN TO 41
 49065	065764	006000	000000			6B8			;EXECUTE A UUO
 49066	065765	254 04 0 00 065766 		HALT	.+1		;UUO DID NOT TRAP TO FORTY
 49067	065766	201 02 0 00 065765 		MOVEI	2,.-1		;GET UUO PC
 49068	065767	405 01 0 00 777777 		ANDI	1,-1		;MASK FLAGS OUT
 49069	065770	312 01 0 00 000002 		CAME	1,2		;PC CORRECT ?
 49070	065771	254 04 0 00 065772 		HALT	.+1		;PC OF UUO NOT = TO PC STORED
 49071	065772	200 00 0 00 000040 		MOVE	0,40		;GET UUO !
 49072	065773	312 00 0 00 071210 		CAME	0,[6B8!0]		;CORRECT UUO STORED IN 40?
 49073	065774	334 00 0 00 000000 		SKIPA			;NO
 49074	065775	254 00 0 00 066004 		JRST	UUO07		;TESTS OK !
 49075						STOP1^
 49076	065776	254 04 0 00 065777 		HALT	.+1		;UUO FAILED TO STORE MA BITS
 49077	065777	254 00 0 00 066000 		JRST	.+1		;INTO RIGHT HALF OF 40^
 49078						TGET^
 49079	066000	200 00 0 00 071350 		MOVE	TNUMB		;GET LAST PC STORED AND CHECK TO SEE
 49080	066001	302 00 0 00 065760 		CAIE	%X		;IF ITS WHERE WE REALLY SHOULD BE
 49081						STOP2^^
 49082	066002	254 04 0 00 066003 		HALT	.+1		;HALT IF WE SHOULDN'T BE HERE
 49083	066003	254 00 0 00 066004 		JRST	.+1		;WILD TRANSFER CAUSED THIS HALT.^
 49084					^
 49085					;POSSIBLE CAUSES OF FAILURES IN LUUO FLOW.
 49086					;MA SPECIAL BITS NOT SETTING
 49087					;AD MAGIC # 40 @ET1
 49088					;XCTF SET AT FETCH CYCLE
 49089					;AR IR ENABLE @ET1
 49090					;AR SIGN SMEAR
 49091					;AD MAGIC NUMBER ENABLE
 49092					;AB AD EN @ET1
 49093					;INSTRUCTION FETCH @ET2
DFKAA PDP-10 KL10 BASIC INSTRUCTION DIAGNOSTIC (1) VER 0,2	MACRO %52(537) 09:34 31-JAN-77 PAGE 51
DFKAA8	MAC	25-AUG-75 14:17		LOCAL UUO TESTING (LUUO)                                                           SEQ 1128

 49094	066004				UUO07:	XUUO	7B8,UUO10^
 49095
 49096					;EXECUTE AN LUUO AND CHECK THAT THE UUO AND PC STORED
 49097					;ARE CORRECT.
 49098
 49099		007000	000000			MLUUO==7B8		;THE UUO TO BE EXECUTED
 49100						TSET^
 49101			066004			%X=.			;DEFINE %X TO SAVE
 49102	066004	201 00 0 00 066004 		MOVEI	%X		;SAVE THIS PC IN CASE OF WILD TRANSFER
 49103	066005	202 00 0 00 071350 		MOVEM	TNUMB#		;BECAUSE OF PC MOD OR INTERRUPT^
 49104	066006	200 00 0 00 071211 	..0172:	MOVE	0,[JSP	1,.+4]	;TRAP INSTRUCTION
 49105	066007	202 00 0 00 000041 		MOVEM	0,41		;IN TO 41
 49106	066010	007000	000000			7B8			;EXECUTE A UUO
 49107	066011	254 04 0 00 066012 		HALT	.+1		;UUO DID NOT TRAP TO FORTY
 49108	066012	201 02 0 00 066011 		MOVEI	2,.-1		;GET UUO PC
 49109	066013	405 01 0 00 777777 		ANDI	1,-1		;MASK FLAGS OUT
 49110	066014	312 01 0 00 000002 		CAME	1,2		;PC CORRECT ?
 49111	066015	254 04 0 00 066016 		HALT	.+1		;PC OF UUO NOT = TO PC STORED
 49112	066016	200 00 0 00 000040 		MOVE	0,40		;GET UUO !
 49113	066017	312 00 0 00 071212 		CAME	0,[7B8!0]		;CORRECT UUO STORED IN 40?
 49114	066020	334 00 0 00 000000 		SKIPA			;NO
 49115	066021	254 00 0 00 066030 		JRST	UUO10		;TESTS OK !
 49116						STOP1^
 49117	066022	254 04 0 00 066023 		HALT	.+1		;UUO FAILED TO STORE MA BITS
 49118	066023	254 00 0 00 066024 		JRST	.+1		;INTO RIGHT HALF OF 40^
 49119						TGET^
 49120	066024	200 00 0 00 071350 		MOVE	TNUMB		;GET LAST PC STORED AND CHECK TO SEE
 49121	066025	302 00 0 00 066004 		CAIE	%X		;IF ITS WHERE WE REALLY SHOULD BE
 49122						STOP2^^
 49123	066026	254 04 0 00 066027 		HALT	.+1		;HALT IF WE SHOULDN'T BE HERE
 49124	066027	254 00 0 00 066030 		JRST	.+1		;WILD TRANSFER CAUSED THIS HALT.^
 49125					^
 49126					;POSSIBLE CAUSES OF FAILURES IN LUUO FLOW.
 49127					;MA SPECIAL BITS NOT SETTING
 49128					;AD MAGIC # 40 @ET1
 49129					;XCTF SET AT FETCH CYCLE
 49130					;AR IR ENABLE @ET1
 49131					;AR SIGN SMEAR
 49132					;AD MAGIC NUMBER ENABLE
 49133					;AB AD EN @ET1
 49134					;INSTRUCTION FETCH @ET2
DFKAA PDP-10 KL10 BASIC INSTRUCTION DIAGNOSTIC (1) VER 0,2	MACRO %52(537) 09:34 31-JAN-77 PAGE 52
DFKAA8	MAC	25-AUG-75 14:17		LOCAL UUO TESTING (LUUO)                                                           SEQ 1129

 49135	066030				UUO10:	XUUO	10B8,UUO11^
 49136
 49137					;EXECUTE AN LUUO AND CHECK THAT THE UUO AND PC STORED
 49138					;ARE CORRECT.
 49139
 49140		010000	000000			MLUUO==10B8		;THE UUO TO BE EXECUTED
 49141						TSET^
 49142			066030			%X=.			;DEFINE %X TO SAVE
 49143	066030	201 00 0 00 066030 		MOVEI	%X		;SAVE THIS PC IN CASE OF WILD TRANSFER
 49144	066031	202 00 0 00 071350 		MOVEM	TNUMB#		;BECAUSE OF PC MOD OR INTERRUPT^
 49145	066032	200 00 0 00 071213 	..0173:	MOVE	0,[JSP	1,.+4]	;TRAP INSTRUCTION
 49146	066033	202 00 0 00 000041 		MOVEM	0,41		;IN TO 41
 49147	066034	010000	000000			10B8			;EXECUTE A UUO
 49148	066035	254 04 0 00 066036 		HALT	.+1		;UUO DID NOT TRAP TO FORTY
 49149	066036	201 02 0 00 066035 		MOVEI	2,.-1		;GET UUO PC
 49150	066037	405 01 0 00 777777 		ANDI	1,-1		;MASK FLAGS OUT
 49151	066040	312 01 0 00 000002 		CAME	1,2		;PC CORRECT ?
 49152	066041	254 04 0 00 066042 		HALT	.+1		;PC OF UUO NOT = TO PC STORED
 49153	066042	200 00 0 00 000040 		MOVE	0,40		;GET UUO !
 49154	066043	312 00 0 00 070322 		CAME	0,[10B8!0]		;CORRECT UUO STORED IN 40?
 49155	066044	334 00 0 00 000000 		SKIPA			;NO
 49156	066045	254 00 0 00 066054 		JRST	UUO11		;TESTS OK !
 49157						STOP1^
 49158	066046	254 04 0 00 066047 		HALT	.+1		;UUO FAILED TO STORE MA BITS
 49159	066047	254 00 0 00 066050 		JRST	.+1		;INTO RIGHT HALF OF 40^
 49160						TGET^
 49161	066050	200 00 0 00 071350 		MOVE	TNUMB		;GET LAST PC STORED AND CHECK TO SEE
 49162	066051	302 00 0 00 066030 		CAIE	%X		;IF ITS WHERE WE REALLY SHOULD BE
 49163						STOP2^^
 49164	066052	254 04 0 00 066053 		HALT	.+1		;HALT IF WE SHOULDN'T BE HERE
 49165	066053	254 00 0 00 066054 		JRST	.+1		;WILD TRANSFER CAUSED THIS HALT.^
 49166					^
 49167					;POSSIBLE CAUSES OF FAILURES IN LUUO FLOW.
 49168					;MA SPECIAL BITS NOT SETTING
 49169					;AD MAGIC # 40 @ET1
 49170					;XCTF SET AT FETCH CYCLE
 49171					;AR IR ENABLE @ET1
 49172					;AR SIGN SMEAR
 49173					;AD MAGIC NUMBER ENABLE
 49174					;AB AD EN @ET1
 49175					;INSTRUCTION FETCH @ET2
DFKAA PDP-10 KL10 BASIC INSTRUCTION DIAGNOSTIC (1) VER 0,2	MACRO %52(537) 09:34 31-JAN-77 PAGE 53
DFKAA8	MAC	25-AUG-75 14:17		LOCAL UUO TESTING (LUUO)                                                           SEQ 1130

 49176	066054				UUO11:	XUUO	11B8,UUO12^
 49177
 49178					;EXECUTE AN LUUO AND CHECK THAT THE UUO AND PC STORED
 49179					;ARE CORRECT.
 49180
 49181		011000	000000			MLUUO==11B8		;THE UUO TO BE EXECUTED
 49182						TSET^
 49183			066054			%X=.			;DEFINE %X TO SAVE
 49184	066054	201 00 0 00 066054 		MOVEI	%X		;SAVE THIS PC IN CASE OF WILD TRANSFER
 49185	066055	202 00 0 00 071350 		MOVEM	TNUMB#		;BECAUSE OF PC MOD OR INTERRUPT^
 49186	066056	200 00 0 00 071214 	..0174:	MOVE	0,[JSP	1,.+4]	;TRAP INSTRUCTION
 49187	066057	202 00 0 00 000041 		MOVEM	0,41		;IN TO 41
 49188	066060	011000	000000			11B8			;EXECUTE A UUO
 49189	066061	254 04 0 00 066062 		HALT	.+1		;UUO DID NOT TRAP TO FORTY
 49190	066062	201 02 0 00 066061 		MOVEI	2,.-1		;GET UUO PC
 49191	066063	405 01 0 00 777777 		ANDI	1,-1		;MASK FLAGS OUT
 49192	066064	312 01 0 00 000002 		CAME	1,2		;PC CORRECT ?
 49193	066065	254 04 0 00 066066 		HALT	.+1		;PC OF UUO NOT = TO PC STORED
 49194	066066	200 00 0 00 000040 		MOVE	0,40		;GET UUO !
 49195	066067	312 00 0 00 071215 		CAME	0,[11B8!0]		;CORRECT UUO STORED IN 40?
 49196	066070	334 00 0 00 000000 		SKIPA			;NO
 49197	066071	254 00 0 00 066100 		JRST	UUO12		;TESTS OK !
 49198						STOP1^
 49199	066072	254 04 0 00 066073 		HALT	.+1		;UUO FAILED TO STORE MA BITS
 49200	066073	254 00 0 00 066074 		JRST	.+1		;INTO RIGHT HALF OF 40^
 49201						TGET^
 49202	066074	200 00 0 00 071350 		MOVE	TNUMB		;GET LAST PC STORED AND CHECK TO SEE
 49203	066075	302 00 0 00 066054 		CAIE	%X		;IF ITS WHERE WE REALLY SHOULD BE
 49204						STOP2^^
 49205	066076	254 04 0 00 066077 		HALT	.+1		;HALT IF WE SHOULDN'T BE HERE
 49206	066077	254 00 0 00 066100 		JRST	.+1		;WILD TRANSFER CAUSED THIS HALT.^
 49207					^
 49208					;POSSIBLE CAUSES OF FAILURES IN LUUO FLOW.
 49209					;MA SPECIAL BITS NOT SETTING
 49210					;AD MAGIC # 40 @ET1
 49211					;XCTF SET AT FETCH CYCLE
 49212					;AR IR ENABLE @ET1
 49213					;AR SIGN SMEAR
 49214					;AD MAGIC NUMBER ENABLE
 49215					;AB AD EN @ET1
 49216					;INSTRUCTION FETCH @ET2
DFKAA PDP-10 KL10 BASIC INSTRUCTION DIAGNOSTIC (1) VER 0,2	MACRO %52(537) 09:34 31-JAN-77 PAGE 54
DFKAA8	MAC	25-AUG-75 14:17		LOCAL UUO TESTING (LUUO)                                                           SEQ 1131

 49217	066100				UUO12:	XUUO	12B8,UUO13^
 49218
 49219					;EXECUTE AN LUUO AND CHECK THAT THE UUO AND PC STORED
 49220					;ARE CORRECT.
 49221
 49222		012000	000000			MLUUO==12B8		;THE UUO TO BE EXECUTED
 49223						TSET^
 49224			066100			%X=.			;DEFINE %X TO SAVE
 49225	066100	201 00 0 00 066100 		MOVEI	%X		;SAVE THIS PC IN CASE OF WILD TRANSFER
 49226	066101	202 00 0 00 071350 		MOVEM	TNUMB#		;BECAUSE OF PC MOD OR INTERRUPT^
 49227	066102	200 00 0 00 071216 	..0175:	MOVE	0,[JSP	1,.+4]	;TRAP INSTRUCTION
 49228	066103	202 00 0 00 000041 		MOVEM	0,41		;IN TO 41
 49229	066104	012000	000000			12B8			;EXECUTE A UUO
 49230	066105	254 04 0 00 066106 		HALT	.+1		;UUO DID NOT TRAP TO FORTY
 49231	066106	201 02 0 00 066105 		MOVEI	2,.-1		;GET UUO PC
 49232	066107	405 01 0 00 777777 		ANDI	1,-1		;MASK FLAGS OUT
 49233	066110	312 01 0 00 000002 		CAME	1,2		;PC CORRECT ?
 49234	066111	254 04 0 00 066112 		HALT	.+1		;PC OF UUO NOT = TO PC STORED
 49235	066112	200 00 0 00 000040 		MOVE	0,40		;GET UUO !
 49236	066113	312 00 0 00 071217 		CAME	0,[12B8!0]		;CORRECT UUO STORED IN 40?
 49237	066114	334 00 0 00 000000 		SKIPA			;NO
 49238	066115	254 00 0 00 066124 		JRST	UUO13		;TESTS OK !
 49239						STOP1^
 49240	066116	254 04 0 00 066117 		HALT	.+1		;UUO FAILED TO STORE MA BITS
 49241	066117	254 00 0 00 066120 		JRST	.+1		;INTO RIGHT HALF OF 40^
 49242						TGET^
 49243	066120	200 00 0 00 071350 		MOVE	TNUMB		;GET LAST PC STORED AND CHECK TO SEE
 49244	066121	302 00 0 00 066100 		CAIE	%X		;IF ITS WHERE WE REALLY SHOULD BE
 49245						STOP2^^
 49246	066122	254 04 0 00 066123 		HALT	.+1		;HALT IF WE SHOULDN'T BE HERE
 49247	066123	254 00 0 00 066124 		JRST	.+1		;WILD TRANSFER CAUSED THIS HALT.^
 49248					^
 49249					;POSSIBLE CAUSES OF FAILURES IN LUUO FLOW.
 49250					;MA SPECIAL BITS NOT SETTING
 49251					;AD MAGIC # 40 @ET1
 49252					;XCTF SET AT FETCH CYCLE
 49253					;AR IR ENABLE @ET1
 49254					;AR SIGN SMEAR
 49255					;AD MAGIC NUMBER ENABLE
 49256					;AB AD EN @ET1
 49257					;INSTRUCTION FETCH @ET2
DFKAA PDP-10 KL10 BASIC INSTRUCTION DIAGNOSTIC (1) VER 0,2	MACRO %52(537) 09:34 31-JAN-77 PAGE 55
DFKAA8	MAC	25-AUG-75 14:17		LOCAL UUO TESTING (LUUO)                                                           SEQ 1132

 49258	066124				UUO13:	XUUO	13B8,UUO14^
 49259
 49260					;EXECUTE AN LUUO AND CHECK THAT THE UUO AND PC STORED
 49261					;ARE CORRECT.
 49262
 49263		013000	000000			MLUUO==13B8		;THE UUO TO BE EXECUTED
 49264						TSET^
 49265			066124			%X=.			;DEFINE %X TO SAVE
 49266	066124	201 00 0 00 066124 		MOVEI	%X		;SAVE THIS PC IN CASE OF WILD TRANSFER
 49267	066125	202 00 0 00 071350 		MOVEM	TNUMB#		;BECAUSE OF PC MOD OR INTERRUPT^
 49268	066126	200 00 0 00 071220 	..0176:	MOVE	0,[JSP	1,.+4]	;TRAP INSTRUCTION
 49269	066127	202 00 0 00 000041 		MOVEM	0,41		;IN TO 41
 49270	066130	013000	000000			13B8			;EXECUTE A UUO
 49271	066131	254 04 0 00 066132 		HALT	.+1		;UUO DID NOT TRAP TO FORTY
 49272	066132	201 02 0 00 066131 		MOVEI	2,.-1		;GET UUO PC
 49273	066133	405 01 0 00 777777 		ANDI	1,-1		;MASK FLAGS OUT
 49274	066134	312 01 0 00 000002 		CAME	1,2		;PC CORRECT ?
 49275	066135	254 04 0 00 066136 		HALT	.+1		;PC OF UUO NOT = TO PC STORED
 49276	066136	200 00 0 00 000040 		MOVE	0,40		;GET UUO !
 49277	066137	312 00 0 00 071221 		CAME	0,[13B8!0]		;CORRECT UUO STORED IN 40?
 49278	066140	334 00 0 00 000000 		SKIPA			;NO
 49279	066141	254 00 0 00 066150 		JRST	UUO14		;TESTS OK !
 49280						STOP1^
 49281	066142	254 04 0 00 066143 		HALT	.+1		;UUO FAILED TO STORE MA BITS
 49282	066143	254 00 0 00 066144 		JRST	.+1		;INTO RIGHT HALF OF 40^
 49283						TGET^
 49284	066144	200 00 0 00 071350 		MOVE	TNUMB		;GET LAST PC STORED AND CHECK TO SEE
 49285	066145	302 00 0 00 066124 		CAIE	%X		;IF ITS WHERE WE REALLY SHOULD BE
 49286						STOP2^^
 49287	066146	254 04 0 00 066147 		HALT	.+1		;HALT IF WE SHOULDN'T BE HERE
 49288	066147	254 00 0 00 066150 		JRST	.+1		;WILD TRANSFER CAUSED THIS HALT.^
 49289					^
 49290					;POSSIBLE CAUSES OF FAILURES IN LUUO FLOW.
 49291					;MA SPECIAL BITS NOT SETTING
 49292					;AD MAGIC # 40 @ET1
 49293					;XCTF SET AT FETCH CYCLE
 49294					;AR IR ENABLE @ET1
 49295					;AR SIGN SMEAR
 49296					;AD MAGIC NUMBER ENABLE
 49297					;AB AD EN @ET1
 49298					;INSTRUCTION FETCH @ET2
DFKAA PDP-10 KL10 BASIC INSTRUCTION DIAGNOSTIC (1) VER 0,2	MACRO %52(537) 09:34 31-JAN-77 PAGE 56
DFKAA8	MAC	25-AUG-75 14:17		LOCAL UUO TESTING (LUUO)                                                           SEQ 1133

 49299	066150				UUO14:	XUUO	14B8,UUO15^
 49300
 49301					;EXECUTE AN LUUO AND CHECK THAT THE UUO AND PC STORED
 49302					;ARE CORRECT.
 49303
 49304		014000	000000			MLUUO==14B8		;THE UUO TO BE EXECUTED
 49305						TSET^
 49306			066150			%X=.			;DEFINE %X TO SAVE
 49307	066150	201 00 0 00 066150 		MOVEI	%X		;SAVE THIS PC IN CASE OF WILD TRANSFER
 49308	066151	202 00 0 00 071350 		MOVEM	TNUMB#		;BECAUSE OF PC MOD OR INTERRUPT^
 49309	066152	200 00 0 00 071222 	..0177:	MOVE	0,[JSP	1,.+4]	;TRAP INSTRUCTION
 49310	066153	202 00 0 00 000041 		MOVEM	0,41		;IN TO 41
 49311	066154	014000	000000			14B8			;EXECUTE A UUO
 49312	066155	254 04 0 00 066156 		HALT	.+1		;UUO DID NOT TRAP TO FORTY
 49313	066156	201 02 0 00 066155 		MOVEI	2,.-1		;GET UUO PC
 49314	066157	405 01 0 00 777777 		ANDI	1,-1		;MASK FLAGS OUT
 49315	066160	312 01 0 00 000002 		CAME	1,2		;PC CORRECT ?
 49316	066161	254 04 0 00 066162 		HALT	.+1		;PC OF UUO NOT = TO PC STORED
 49317	066162	200 00 0 00 000040 		MOVE	0,40		;GET UUO !
 49318	066163	312 00 0 00 071223 		CAME	0,[14B8!0]		;CORRECT UUO STORED IN 40?
 49319	066164	334 00 0 00 000000 		SKIPA			;NO
 49320	066165	254 00 0 00 066174 		JRST	UUO15		;TESTS OK !
 49321						STOP1^
 49322	066166	254 04 0 00 066167 		HALT	.+1		;UUO FAILED TO STORE MA BITS
 49323	066167	254 00 0 00 066170 		JRST	.+1		;INTO RIGHT HALF OF 40^
 49324						TGET^
 49325	066170	200 00 0 00 071350 		MOVE	TNUMB		;GET LAST PC STORED AND CHECK TO SEE
 49326	066171	302 00 0 00 066150 		CAIE	%X		;IF ITS WHERE WE REALLY SHOULD BE
 49327						STOP2^^
 49328	066172	254 04 0 00 066173 		HALT	.+1		;HALT IF WE SHOULDN'T BE HERE
 49329	066173	254 00 0 00 066174 		JRST	.+1		;WILD TRANSFER CAUSED THIS HALT.^
 49330					^
 49331					;POSSIBLE CAUSES OF FAILURES IN LUUO FLOW.
 49332					;MA SPECIAL BITS NOT SETTING
 49333					;AD MAGIC # 40 @ET1
 49334					;XCTF SET AT FETCH CYCLE
 49335					;AR IR ENABLE @ET1
 49336					;AR SIGN SMEAR
 49337					;AD MAGIC NUMBER ENABLE
 49338					;AB AD EN @ET1
 49339					;INSTRUCTION FETCH @ET2
DFKAA PDP-10 KL10 BASIC INSTRUCTION DIAGNOSTIC (1) VER 0,2	MACRO %52(537) 09:34 31-JAN-77 PAGE 57
DFKAA8	MAC	25-AUG-75 14:17		LOCAL UUO TESTING (LUUO)                                                           SEQ 1134

 49340	066174				UUO15:	XUUO	15B8,UUO16^
 49341
 49342					;EXECUTE AN LUUO AND CHECK THAT THE UUO AND PC STORED
 49343					;ARE CORRECT.
 49344
 49345		015000	000000			MLUUO==15B8		;THE UUO TO BE EXECUTED
 49346						TSET^
 49347			066174			%X=.			;DEFINE %X TO SAVE
 49348	066174	201 00 0 00 066174 		MOVEI	%X		;SAVE THIS PC IN CASE OF WILD TRANSFER
 49349	066175	202 00 0 00 071350 		MOVEM	TNUMB#		;BECAUSE OF PC MOD OR INTERRUPT^
 49350	066176	200 00 0 00 071224 	..0200:	MOVE	0,[JSP	1,.+4]	;TRAP INSTRUCTION
 49351	066177	202 00 0 00 000041 		MOVEM	0,41		;IN TO 41
 49352	066200	015000	000000			15B8			;EXECUTE A UUO
 49353	066201	254 04 0 00 066202 		HALT	.+1		;UUO DID NOT TRAP TO FORTY
 49354	066202	201 02 0 00 066201 		MOVEI	2,.-1		;GET UUO PC
 49355	066203	405 01 0 00 777777 		ANDI	1,-1		;MASK FLAGS OUT
 49356	066204	312 01 0 00 000002 		CAME	1,2		;PC CORRECT ?
 49357	066205	254 04 0 00 066206 		HALT	.+1		;PC OF UUO NOT = TO PC STORED
 49358	066206	200 00 0 00 000040 		MOVE	0,40		;GET UUO !
 49359	066207	312 00 0 00 071225 		CAME	0,[15B8!0]		;CORRECT UUO STORED IN 40?
 49360	066210	334 00 0 00 000000 		SKIPA			;NO
 49361	066211	254 00 0 00 066220 		JRST	UUO16		;TESTS OK !
 49362						STOP1^
 49363	066212	254 04 0 00 066213 		HALT	.+1		;UUO FAILED TO STORE MA BITS
 49364	066213	254 00 0 00 066214 		JRST	.+1		;INTO RIGHT HALF OF 40^
 49365						TGET^
 49366	066214	200 00 0 00 071350 		MOVE	TNUMB		;GET LAST PC STORED AND CHECK TO SEE
 49367	066215	302 00 0 00 066174 		CAIE	%X		;IF ITS WHERE WE REALLY SHOULD BE
 49368						STOP2^^
 49369	066216	254 04 0 00 066217 		HALT	.+1		;HALT IF WE SHOULDN'T BE HERE
 49370	066217	254 00 0 00 066220 		JRST	.+1		;WILD TRANSFER CAUSED THIS HALT.^
 49371					^
 49372					;POSSIBLE CAUSES OF FAILURES IN LUUO FLOW.
 49373					;MA SPECIAL BITS NOT SETTING
 49374					;AD MAGIC # 40 @ET1
 49375					;XCTF SET AT FETCH CYCLE
 49376					;AR IR ENABLE @ET1
 49377					;AR SIGN SMEAR
 49378					;AD MAGIC NUMBER ENABLE
 49379					;AB AD EN @ET1
 49380					;INSTRUCTION FETCH @ET2
DFKAA PDP-10 KL10 BASIC INSTRUCTION DIAGNOSTIC (1) VER 0,2	MACRO %52(537) 09:34 31-JAN-77 PAGE 58
DFKAA8	MAC	25-AUG-75 14:17		LOCAL UUO TESTING (LUUO)                                                           SEQ 1135

 49381	066220				UUO16:	XUUO	16B8,UUO17^
 49382
 49383					;EXECUTE AN LUUO AND CHECK THAT THE UUO AND PC STORED
 49384					;ARE CORRECT.
 49385
 49386		016000	000000			MLUUO==16B8		;THE UUO TO BE EXECUTED
 49387						TSET^
 49388			066220			%X=.			;DEFINE %X TO SAVE
 49389	066220	201 00 0 00 066220 		MOVEI	%X		;SAVE THIS PC IN CASE OF WILD TRANSFER
 49390	066221	202 00 0 00 071350 		MOVEM	TNUMB#		;BECAUSE OF PC MOD OR INTERRUPT^
 49391	066222	200 00 0 00 071226 	..0201:	MOVE	0,[JSP	1,.+4]	;TRAP INSTRUCTION
 49392	066223	202 00 0 00 000041 		MOVEM	0,41		;IN TO 41
 49393	066224	016000	000000			16B8			;EXECUTE A UUO
 49394	066225	254 04 0 00 066226 		HALT	.+1		;UUO DID NOT TRAP TO FORTY
 49395	066226	201 02 0 00 066225 		MOVEI	2,.-1		;GET UUO PC
 49396	066227	405 01 0 00 777777 		ANDI	1,-1		;MASK FLAGS OUT
 49397	066230	312 01 0 00 000002 		CAME	1,2		;PC CORRECT ?
 49398	066231	254 04 0 00 066232 		HALT	.+1		;PC OF UUO NOT = TO PC STORED
 49399	066232	200 00 0 00 000040 		MOVE	0,40		;GET UUO !
 49400	066233	312 00 0 00 071227 		CAME	0,[16B8!0]		;CORRECT UUO STORED IN 40?
 49401	066234	334 00 0 00 000000 		SKIPA			;NO
 49402	066235	254 00 0 00 066244 		JRST	UUO17		;TESTS OK !
 49403						STOP1^
 49404	066236	254 04 0 00 066237 		HALT	.+1		;UUO FAILED TO STORE MA BITS
 49405	066237	254 00 0 00 066240 		JRST	.+1		;INTO RIGHT HALF OF 40^
 49406						TGET^
 49407	066240	200 00 0 00 071350 		MOVE	TNUMB		;GET LAST PC STORED AND CHECK TO SEE
 49408	066241	302 00 0 00 066220 		CAIE	%X		;IF ITS WHERE WE REALLY SHOULD BE
 49409						STOP2^^
 49410	066242	254 04 0 00 066243 		HALT	.+1		;HALT IF WE SHOULDN'T BE HERE
 49411	066243	254 00 0 00 066244 		JRST	.+1		;WILD TRANSFER CAUSED THIS HALT.^
 49412					^
 49413					;POSSIBLE CAUSES OF FAILURES IN LUUO FLOW.
 49414					;MA SPECIAL BITS NOT SETTING
 49415					;AD MAGIC # 40 @ET1
 49416					;XCTF SET AT FETCH CYCLE
 49417					;AR IR ENABLE @ET1
 49418					;AR SIGN SMEAR
 49419					;AD MAGIC NUMBER ENABLE
 49420					;AB AD EN @ET1
 49421					;INSTRUCTION FETCH @ET2
DFKAA PDP-10 KL10 BASIC INSTRUCTION DIAGNOSTIC (1) VER 0,2	MACRO %52(537) 09:34 31-JAN-77 PAGE 59
DFKAA8	MAC	25-AUG-75 14:17		LOCAL UUO TESTING (LUUO)                                                           SEQ 1136

 49422	066244				UUO17:	XUUO	17B8,UUO20^
 49423
 49424					;EXECUTE AN LUUO AND CHECK THAT THE UUO AND PC STORED
 49425					;ARE CORRECT.
 49426
 49427		017000	000000			MLUUO==17B8		;THE UUO TO BE EXECUTED
 49428						TSET^
 49429			066244			%X=.			;DEFINE %X TO SAVE
 49430	066244	201 00 0 00 066244 		MOVEI	%X		;SAVE THIS PC IN CASE OF WILD TRANSFER
 49431	066245	202 00 0 00 071350 		MOVEM	TNUMB#		;BECAUSE OF PC MOD OR INTERRUPT^
 49432	066246	200 00 0 00 071230 	..0202:	MOVE	0,[JSP	1,.+4]	;TRAP INSTRUCTION
 49433	066247	202 00 0 00 000041 		MOVEM	0,41		;IN TO 41
 49434	066250	017000	000000			17B8			;EXECUTE A UUO
 49435	066251	254 04 0 00 066252 		HALT	.+1		;UUO DID NOT TRAP TO FORTY
 49436	066252	201 02 0 00 066251 		MOVEI	2,.-1		;GET UUO PC
 49437	066253	405 01 0 00 777777 		ANDI	1,-1		;MASK FLAGS OUT
 49438	066254	312 01 0 00 000002 		CAME	1,2		;PC CORRECT ?
 49439	066255	254 04 0 00 066256 		HALT	.+1		;PC OF UUO NOT = TO PC STORED
 49440	066256	200 00 0 00 000040 		MOVE	0,40		;GET UUO !
 49441	066257	312 00 0 00 071231 		CAME	0,[17B8!0]		;CORRECT UUO STORED IN 40?
 49442	066260	334 00 0 00 000000 		SKIPA			;NO
 49443	066261	254 00 0 00 066270 		JRST	UUO20		;TESTS OK !
 49444						STOP1^
 49445	066262	254 04 0 00 066263 		HALT	.+1		;UUO FAILED TO STORE MA BITS
 49446	066263	254 00 0 00 066264 		JRST	.+1		;INTO RIGHT HALF OF 40^
 49447						TGET^
 49448	066264	200 00 0 00 071350 		MOVE	TNUMB		;GET LAST PC STORED AND CHECK TO SEE
 49449	066265	302 00 0 00 066244 		CAIE	%X		;IF ITS WHERE WE REALLY SHOULD BE
 49450						STOP2^^
 49451	066266	254 04 0 00 066267 		HALT	.+1		;HALT IF WE SHOULDN'T BE HERE
 49452	066267	254 00 0 00 066270 		JRST	.+1		;WILD TRANSFER CAUSED THIS HALT.^
 49453					^
 49454					;POSSIBLE CAUSES OF FAILURES IN LUUO FLOW.
 49455					;MA SPECIAL BITS NOT SETTING
 49456					;AD MAGIC # 40 @ET1
 49457					;XCTF SET AT FETCH CYCLE
 49458					;AR IR ENABLE @ET1
 49459					;AR SIGN SMEAR
 49460					;AD MAGIC NUMBER ENABLE
 49461					;AB AD EN @ET1
 49462					;INSTRUCTION FETCH @ET2
DFKAA PDP-10 KL10 BASIC INSTRUCTION DIAGNOSTIC (1) VER 0,2	MACRO %52(537) 09:34 31-JAN-77 PAGE 60
DFKAA8	MAC	25-AUG-75 14:17		LOCAL UUO TESTING (LUUO)                                                           SEQ 1137

 49463	066270				UUO20:	XUUO	20B8,UUO21^
 49464
 49465					;EXECUTE AN LUUO AND CHECK THAT THE UUO AND PC STORED
 49466					;ARE CORRECT.
 49467
 49468		020000	000000			MLUUO==20B8		;THE UUO TO BE EXECUTED
 49469						TSET^
 49470			066270			%X=.			;DEFINE %X TO SAVE
 49471	066270	201 00 0 00 066270 		MOVEI	%X		;SAVE THIS PC IN CASE OF WILD TRANSFER
 49472	066271	202 00 0 00 071350 		MOVEM	TNUMB#		;BECAUSE OF PC MOD OR INTERRUPT^
 49473	066272	200 00 0 00 071232 	..0203:	MOVE	0,[JSP	1,.+4]	;TRAP INSTRUCTION
 49474	066273	202 00 0 00 000041 		MOVEM	0,41		;IN TO 41
 49475	066274	020000	000000			20B8			;EXECUTE A UUO
 49476	066275	254 04 0 00 066276 		HALT	.+1		;UUO DID NOT TRAP TO FORTY
 49477	066276	201 02 0 00 066275 		MOVEI	2,.-1		;GET UUO PC
 49478	066277	405 01 0 00 777777 		ANDI	1,-1		;MASK FLAGS OUT
 49479	066300	312 01 0 00 000002 		CAME	1,2		;PC CORRECT ?
 49480	066301	254 04 0 00 066302 		HALT	.+1		;PC OF UUO NOT = TO PC STORED
 49481	066302	200 00 0 00 000040 		MOVE	0,40		;GET UUO !
 49482	066303	312 00 0 00 070323 		CAME	0,[20B8!0]		;CORRECT UUO STORED IN 40?
 49483	066304	334 00 0 00 000000 		SKIPA			;NO
 49484	066305	254 00 0 00 066314 		JRST	UUO21		;TESTS OK !
 49485						STOP1^
 49486	066306	254 04 0 00 066307 		HALT	.+1		;UUO FAILED TO STORE MA BITS
 49487	066307	254 00 0 00 066310 		JRST	.+1		;INTO RIGHT HALF OF 40^
 49488						TGET^
 49489	066310	200 00 0 00 071350 		MOVE	TNUMB		;GET LAST PC STORED AND CHECK TO SEE
 49490	066311	302 00 0 00 066270 		CAIE	%X		;IF ITS WHERE WE REALLY SHOULD BE
 49491						STOP2^^
 49492	066312	254 04 0 00 066313 		HALT	.+1		;HALT IF WE SHOULDN'T BE HERE
 49493	066313	254 00 0 00 066314 		JRST	.+1		;WILD TRANSFER CAUSED THIS HALT.^
 49494					^
 49495					;POSSIBLE CAUSES OF FAILURES IN LUUO FLOW.
 49496					;MA SPECIAL BITS NOT SETTING
 49497					;AD MAGIC # 40 @ET1
 49498					;XCTF SET AT FETCH CYCLE
 49499					;AR IR ENABLE @ET1
 49500					;AR SIGN SMEAR
 49501					;AD MAGIC NUMBER ENABLE
 49502					;AB AD EN @ET1
 49503					;INSTRUCTION FETCH @ET2
DFKAA PDP-10 KL10 BASIC INSTRUCTION DIAGNOSTIC (1) VER 0,2	MACRO %52(537) 09:34 31-JAN-77 PAGE 61
DFKAA8	MAC	25-AUG-75 14:17		LOCAL UUO TESTING (LUUO)                                                           SEQ 1138

 49504	066314				UUO21:	XUUO	21B8,UUO22^
 49505
 49506					;EXECUTE AN LUUO AND CHECK THAT THE UUO AND PC STORED
 49507					;ARE CORRECT.
 49508
 49509		021000	000000			MLUUO==21B8		;THE UUO TO BE EXECUTED
 49510						TSET^
 49511			066314			%X=.			;DEFINE %X TO SAVE
 49512	066314	201 00 0 00 066314 		MOVEI	%X		;SAVE THIS PC IN CASE OF WILD TRANSFER
 49513	066315	202 00 0 00 071350 		MOVEM	TNUMB#		;BECAUSE OF PC MOD OR INTERRUPT^
 49514	066316	200 00 0 00 071233 	..0204:	MOVE	0,[JSP	1,.+4]	;TRAP INSTRUCTION
 49515	066317	202 00 0 00 000041 		MOVEM	0,41		;IN TO 41
 49516	066320	021000	000000			21B8			;EXECUTE A UUO
 49517	066321	254 04 0 00 066322 		HALT	.+1		;UUO DID NOT TRAP TO FORTY
 49518	066322	201 02 0 00 066321 		MOVEI	2,.-1		;GET UUO PC
 49519	066323	405 01 0 00 777777 		ANDI	1,-1		;MASK FLAGS OUT
 49520	066324	312 01 0 00 000002 		CAME	1,2		;PC CORRECT ?
 49521	066325	254 04 0 00 066326 		HALT	.+1		;PC OF UUO NOT = TO PC STORED
 49522	066326	200 00 0 00 000040 		MOVE	0,40		;GET UUO !
 49523	066327	312 00 0 00 071234 		CAME	0,[21B8!0]		;CORRECT UUO STORED IN 40?
 49524	066330	334 00 0 00 000000 		SKIPA			;NO
 49525	066331	254 00 0 00 066340 		JRST	UUO22		;TESTS OK !
 49526						STOP1^
 49527	066332	254 04 0 00 066333 		HALT	.+1		;UUO FAILED TO STORE MA BITS
 49528	066333	254 00 0 00 066334 		JRST	.+1		;INTO RIGHT HALF OF 40^
 49529						TGET^
 49530	066334	200 00 0 00 071350 		MOVE	TNUMB		;GET LAST PC STORED AND CHECK TO SEE
 49531	066335	302 00 0 00 066314 		CAIE	%X		;IF ITS WHERE WE REALLY SHOULD BE
 49532						STOP2^^
 49533	066336	254 04 0 00 066337 		HALT	.+1		;HALT IF WE SHOULDN'T BE HERE
 49534	066337	254 00 0 00 066340 		JRST	.+1		;WILD TRANSFER CAUSED THIS HALT.^
 49535					^
 49536					;POSSIBLE CAUSES OF FAILURES IN LUUO FLOW.
 49537					;MA SPECIAL BITS NOT SETTING
 49538					;AD MAGIC # 40 @ET1
 49539					;XCTF SET AT FETCH CYCLE
 49540					;AR IR ENABLE @ET1
 49541					;AR SIGN SMEAR
 49542					;AD MAGIC NUMBER ENABLE
 49543					;AB AD EN @ET1
 49544					;INSTRUCTION FETCH @ET2
DFKAA PDP-10 KL10 BASIC INSTRUCTION DIAGNOSTIC (1) VER 0,2	MACRO %52(537) 09:34 31-JAN-77 PAGE 62
DFKAA8	MAC	25-AUG-75 14:17		LOCAL UUO TESTING (LUUO)                                                           SEQ 1139

 49545	066340				UUO22:	XUUO	22B8,UUO23^
 49546
 49547					;EXECUTE AN LUUO AND CHECK THAT THE UUO AND PC STORED
 49548					;ARE CORRECT.
 49549
 49550		022000	000000			MLUUO==22B8		;THE UUO TO BE EXECUTED
 49551						TSET^
 49552			066340			%X=.			;DEFINE %X TO SAVE
 49553	066340	201 00 0 00 066340 		MOVEI	%X		;SAVE THIS PC IN CASE OF WILD TRANSFER
 49554	066341	202 00 0 00 071350 		MOVEM	TNUMB#		;BECAUSE OF PC MOD OR INTERRUPT^
 49555	066342	200 00 0 00 071235 	..0205:	MOVE	0,[JSP	1,.+4]	;TRAP INSTRUCTION
 49556	066343	202 00 0 00 000041 		MOVEM	0,41		;IN TO 41
 49557	066344	022000	000000			22B8			;EXECUTE A UUO
 49558	066345	254 04 0 00 066346 		HALT	.+1		;UUO DID NOT TRAP TO FORTY
 49559	066346	201 02 0 00 066345 		MOVEI	2,.-1		;GET UUO PC
 49560	066347	405 01 0 00 777777 		ANDI	1,-1		;MASK FLAGS OUT
 49561	066350	312 01 0 00 000002 		CAME	1,2		;PC CORRECT ?
 49562	066351	254 04 0 00 066352 		HALT	.+1		;PC OF UUO NOT = TO PC STORED
 49563	066352	200 00 0 00 000040 		MOVE	0,40		;GET UUO !
 49564	066353	312 00 0 00 071236 		CAME	0,[22B8!0]		;CORRECT UUO STORED IN 40?
 49565	066354	334 00 0 00 000000 		SKIPA			;NO
 49566	066355	254 00 0 00 066364 		JRST	UUO23		;TESTS OK !
 49567						STOP1^
 49568	066356	254 04 0 00 066357 		HALT	.+1		;UUO FAILED TO STORE MA BITS
 49569	066357	254 00 0 00 066360 		JRST	.+1		;INTO RIGHT HALF OF 40^
 49570						TGET^
 49571	066360	200 00 0 00 071350 		MOVE	TNUMB		;GET LAST PC STORED AND CHECK TO SEE
 49572	066361	302 00 0 00 066340 		CAIE	%X		;IF ITS WHERE WE REALLY SHOULD BE
 49573						STOP2^^
 49574	066362	254 04 0 00 066363 		HALT	.+1		;HALT IF WE SHOULDN'T BE HERE
 49575	066363	254 00 0 00 066364 		JRST	.+1		;WILD TRANSFER CAUSED THIS HALT.^
 49576					^
 49577					;POSSIBLE CAUSES OF FAILURES IN LUUO FLOW.
 49578					;MA SPECIAL BITS NOT SETTING
 49579					;AD MAGIC # 40 @ET1
 49580					;XCTF SET AT FETCH CYCLE
 49581					;AR IR ENABLE @ET1
 49582					;AR SIGN SMEAR
 49583					;AD MAGIC NUMBER ENABLE
 49584					;AB AD EN @ET1
 49585					;INSTRUCTION FETCH @ET2
DFKAA PDP-10 KL10 BASIC INSTRUCTION DIAGNOSTIC (1) VER 0,2	MACRO %52(537) 09:34 31-JAN-77 PAGE 63
DFKAA8	MAC	25-AUG-75 14:17		LOCAL UUO TESTING (LUUO)                                                           SEQ 1140

 49586	066364				UUO23:	XUUO	23B8,UUO24^
 49587
 49588					;EXECUTE AN LUUO AND CHECK THAT THE UUO AND PC STORED
 49589					;ARE CORRECT.
 49590
 49591		023000	000000			MLUUO==23B8		;THE UUO TO BE EXECUTED
 49592						TSET^
 49593			066364			%X=.			;DEFINE %X TO SAVE
 49594	066364	201 00 0 00 066364 		MOVEI	%X		;SAVE THIS PC IN CASE OF WILD TRANSFER
 49595	066365	202 00 0 00 071350 		MOVEM	TNUMB#		;BECAUSE OF PC MOD OR INTERRUPT^
 49596	066366	200 00 0 00 071237 	..0206:	MOVE	0,[JSP	1,.+4]	;TRAP INSTRUCTION
 49597	066367	202 00 0 00 000041 		MOVEM	0,41		;IN TO 41
 49598	066370	023000	000000			23B8			;EXECUTE A UUO
 49599	066371	254 04 0 00 066372 		HALT	.+1		;UUO DID NOT TRAP TO FORTY
 49600	066372	201 02 0 00 066371 		MOVEI	2,.-1		;GET UUO PC
 49601	066373	405 01 0 00 777777 		ANDI	1,-1		;MASK FLAGS OUT
 49602	066374	312 01 0 00 000002 		CAME	1,2		;PC CORRECT ?
 49603	066375	254 04 0 00 066376 		HALT	.+1		;PC OF UUO NOT = TO PC STORED
 49604	066376	200 00 0 00 000040 		MOVE	0,40		;GET UUO !
 49605	066377	312 00 0 00 071240 		CAME	0,[23B8!0]		;CORRECT UUO STORED IN 40?
 49606	066400	334 00 0 00 000000 		SKIPA			;NO
 49607	066401	254 00 0 00 066410 		JRST	UUO24		;TESTS OK !
 49608						STOP1^
 49609	066402	254 04 0 00 066403 		HALT	.+1		;UUO FAILED TO STORE MA BITS
 49610	066403	254 00 0 00 066404 		JRST	.+1		;INTO RIGHT HALF OF 40^
 49611						TGET^
 49612	066404	200 00 0 00 071350 		MOVE	TNUMB		;GET LAST PC STORED AND CHECK TO SEE
 49613	066405	302 00 0 00 066364 		CAIE	%X		;IF ITS WHERE WE REALLY SHOULD BE
 49614						STOP2^^
 49615	066406	254 04 0 00 066407 		HALT	.+1		;HALT IF WE SHOULDN'T BE HERE
 49616	066407	254 00 0 00 066410 		JRST	.+1		;WILD TRANSFER CAUSED THIS HALT.^
 49617					^
 49618					;POSSIBLE CAUSES OF FAILURES IN LUUO FLOW.
 49619					;MA SPECIAL BITS NOT SETTING
 49620					;AD MAGIC # 40 @ET1
 49621					;XCTF SET AT FETCH CYCLE
 49622					;AR IR ENABLE @ET1
 49623					;AR SIGN SMEAR
 49624					;AD MAGIC NUMBER ENABLE
 49625					;AB AD EN @ET1
 49626					;INSTRUCTION FETCH @ET2
DFKAA PDP-10 KL10 BASIC INSTRUCTION DIAGNOSTIC (1) VER 0,2	MACRO %52(537) 09:34 31-JAN-77 PAGE 64
DFKAA8	MAC	25-AUG-75 14:17		LOCAL UUO TESTING (LUUO)                                                           SEQ 1141

 49627	066410				UUO24:	XUUO	24B8,UUO25^
 49628
 49629					;EXECUTE AN LUUO AND CHECK THAT THE UUO AND PC STORED
 49630					;ARE CORRECT.
 49631
 49632		024000	000000			MLUUO==24B8		;THE UUO TO BE EXECUTED
 49633						TSET^
 49634			066410			%X=.			;DEFINE %X TO SAVE
 49635	066410	201 00 0 00 066410 		MOVEI	%X		;SAVE THIS PC IN CASE OF WILD TRANSFER
 49636	066411	202 00 0 00 071350 		MOVEM	TNUMB#		;BECAUSE OF PC MOD OR INTERRUPT^
 49637	066412	200 00 0 00 071241 	..0207:	MOVE	0,[JSP	1,.+4]	;TRAP INSTRUCTION
 49638	066413	202 00 0 00 000041 		MOVEM	0,41		;IN TO 41
 49639	066414	024000	000000			24B8			;EXECUTE A UUO
 49640	066415	254 04 0 00 066416 		HALT	.+1		;UUO DID NOT TRAP TO FORTY
 49641	066416	201 02 0 00 066415 		MOVEI	2,.-1		;GET UUO PC
 49642	066417	405 01 0 00 777777 		ANDI	1,-1		;MASK FLAGS OUT
 49643	066420	312 01 0 00 000002 		CAME	1,2		;PC CORRECT ?
 49644	066421	254 04 0 00 066422 		HALT	.+1		;PC OF UUO NOT = TO PC STORED
 49645	066422	200 00 0 00 000040 		MOVE	0,40		;GET UUO !
 49646	066423	312 00 0 00 071242 		CAME	0,[24B8!0]		;CORRECT UUO STORED IN 40?
 49647	066424	334 00 0 00 000000 		SKIPA			;NO
 49648	066425	254 00 0 00 066434 		JRST	UUO25		;TESTS OK !
 49649						STOP1^
 49650	066426	254 04 0 00 066427 		HALT	.+1		;UUO FAILED TO STORE MA BITS
 49651	066427	254 00 0 00 066430 		JRST	.+1		;INTO RIGHT HALF OF 40^
 49652						TGET^
 49653	066430	200 00 0 00 071350 		MOVE	TNUMB		;GET LAST PC STORED AND CHECK TO SEE
 49654	066431	302 00 0 00 066410 		CAIE	%X		;IF ITS WHERE WE REALLY SHOULD BE
 49655						STOP2^^
 49656	066432	254 04 0 00 066433 		HALT	.+1		;HALT IF WE SHOULDN'T BE HERE
 49657	066433	254 00 0 00 066434 		JRST	.+1		;WILD TRANSFER CAUSED THIS HALT.^
 49658					^
 49659					;POSSIBLE CAUSES OF FAILURES IN LUUO FLOW.
 49660					;MA SPECIAL BITS NOT SETTING
 49661					;AD MAGIC # 40 @ET1
 49662					;XCTF SET AT FETCH CYCLE
 49663					;AR IR ENABLE @ET1
 49664					;AR SIGN SMEAR
 49665					;AD MAGIC NUMBER ENABLE
 49666					;AB AD EN @ET1
 49667					;INSTRUCTION FETCH @ET2
DFKAA PDP-10 KL10 BASIC INSTRUCTION DIAGNOSTIC (1) VER 0,2	MACRO %52(537) 09:34 31-JAN-77 PAGE 65
DFKAA8	MAC	25-AUG-75 14:17		LOCAL UUO TESTING (LUUO)                                                           SEQ 1142

 49668	066434				UUO25:	XUUO	25B8,UUO26^
 49669
 49670					;EXECUTE AN LUUO AND CHECK THAT THE UUO AND PC STORED
 49671					;ARE CORRECT.
 49672
 49673		025000	000000			MLUUO==25B8		;THE UUO TO BE EXECUTED
 49674						TSET^
 49675			066434			%X=.			;DEFINE %X TO SAVE
 49676	066434	201 00 0 00 066434 		MOVEI	%X		;SAVE THIS PC IN CASE OF WILD TRANSFER
 49677	066435	202 00 0 00 071350 		MOVEM	TNUMB#		;BECAUSE OF PC MOD OR INTERRUPT^
 49678	066436	200 00 0 00 071243 	..0210:	MOVE	0,[JSP	1,.+4]	;TRAP INSTRUCTION
 49679	066437	202 00 0 00 000041 		MOVEM	0,41		;IN TO 41
 49680	066440	025000	000000			25B8			;EXECUTE A UUO
 49681	066441	254 04 0 00 066442 		HALT	.+1		;UUO DID NOT TRAP TO FORTY
 49682	066442	201 02 0 00 066441 		MOVEI	2,.-1		;GET UUO PC
 49683	066443	405 01 0 00 777777 		ANDI	1,-1		;MASK FLAGS OUT
 49684	066444	312 01 0 00 000002 		CAME	1,2		;PC CORRECT ?
 49685	066445	254 04 0 00 066446 		HALT	.+1		;PC OF UUO NOT = TO PC STORED
 49686	066446	200 00 0 00 000040 		MOVE	0,40		;GET UUO !
 49687	066447	312 00 0 00 071244 		CAME	0,[25B8!0]		;CORRECT UUO STORED IN 40?
 49688	066450	334 00 0 00 000000 		SKIPA			;NO
 49689	066451	254 00 0 00 066460 		JRST	UUO26		;TESTS OK !
 49690						STOP1^
 49691	066452	254 04 0 00 066453 		HALT	.+1		;UUO FAILED TO STORE MA BITS
 49692	066453	254 00 0 00 066454 		JRST	.+1		;INTO RIGHT HALF OF 40^
 49693						TGET^
 49694	066454	200 00 0 00 071350 		MOVE	TNUMB		;GET LAST PC STORED AND CHECK TO SEE
 49695	066455	302 00 0 00 066434 		CAIE	%X		;IF ITS WHERE WE REALLY SHOULD BE
 49696						STOP2^^
 49697	066456	254 04 0 00 066457 		HALT	.+1		;HALT IF WE SHOULDN'T BE HERE
 49698	066457	254 00 0 00 066460 		JRST	.+1		;WILD TRANSFER CAUSED THIS HALT.^
 49699					^
 49700					;POSSIBLE CAUSES OF FAILURES IN LUUO FLOW.
 49701					;MA SPECIAL BITS NOT SETTING
 49702					;AD MAGIC # 40 @ET1
 49703					;XCTF SET AT FETCH CYCLE
 49704					;AR IR ENABLE @ET1
 49705					;AR SIGN SMEAR
 49706					;AD MAGIC NUMBER ENABLE
 49707					;AB AD EN @ET1
 49708					;INSTRUCTION FETCH @ET2
DFKAA PDP-10 KL10 BASIC INSTRUCTION DIAGNOSTIC (1) VER 0,2	MACRO %52(537) 09:34 31-JAN-77 PAGE 66
DFKAA8	MAC	25-AUG-75 14:17		LOCAL UUO TESTING (LUUO)                                                           SEQ 1143

 49709	066460				UUO26:	XUUO	26B8,UUO27^
 49710
 49711					;EXECUTE AN LUUO AND CHECK THAT THE UUO AND PC STORED
 49712					;ARE CORRECT.
 49713
 49714		026000	000000			MLUUO==26B8		;THE UUO TO BE EXECUTED
 49715						TSET^
 49716			066460			%X=.			;DEFINE %X TO SAVE
 49717	066460	201 00 0 00 066460 		MOVEI	%X		;SAVE THIS PC IN CASE OF WILD TRANSFER
 49718	066461	202 00 0 00 071350 		MOVEM	TNUMB#		;BECAUSE OF PC MOD OR INTERRUPT^
 49719	066462	200 00 0 00 071245 	..0211:	MOVE	0,[JSP	1,.+4]	;TRAP INSTRUCTION
 49720	066463	202 00 0 00 000041 		MOVEM	0,41		;IN TO 41
 49721	066464	026000	000000			26B8			;EXECUTE A UUO
 49722	066465	254 04 0 00 066466 		HALT	.+1		;UUO DID NOT TRAP TO FORTY
 49723	066466	201 02 0 00 066465 		MOVEI	2,.-1		;GET UUO PC
 49724	066467	405 01 0 00 777777 		ANDI	1,-1		;MASK FLAGS OUT
 49725	066470	312 01 0 00 000002 		CAME	1,2		;PC CORRECT ?
 49726	066471	254 04 0 00 066472 		HALT	.+1		;PC OF UUO NOT = TO PC STORED
 49727	066472	200 00 0 00 000040 		MOVE	0,40		;GET UUO !
 49728	066473	312 00 0 00 071246 		CAME	0,[26B8!0]		;CORRECT UUO STORED IN 40?
 49729	066474	334 00 0 00 000000 		SKIPA			;NO
 49730	066475	254 00 0 00 066504 		JRST	UUO27		;TESTS OK !
 49731						STOP1^
 49732	066476	254 04 0 00 066477 		HALT	.+1		;UUO FAILED TO STORE MA BITS
 49733	066477	254 00 0 00 066500 		JRST	.+1		;INTO RIGHT HALF OF 40^
 49734						TGET^
 49735	066500	200 00 0 00 071350 		MOVE	TNUMB		;GET LAST PC STORED AND CHECK TO SEE
 49736	066501	302 00 0 00 066460 		CAIE	%X		;IF ITS WHERE WE REALLY SHOULD BE
 49737						STOP2^^
 49738	066502	254 04 0 00 066503 		HALT	.+1		;HALT IF WE SHOULDN'T BE HERE
 49739	066503	254 00 0 00 066504 		JRST	.+1		;WILD TRANSFER CAUSED THIS HALT.^
 49740					^
 49741					;POSSIBLE CAUSES OF FAILURES IN LUUO FLOW.
 49742					;MA SPECIAL BITS NOT SETTING
 49743					;AD MAGIC # 40 @ET1
 49744					;XCTF SET AT FETCH CYCLE
 49745					;AR IR ENABLE @ET1
 49746					;AR SIGN SMEAR
 49747					;AD MAGIC NUMBER ENABLE
 49748					;AB AD EN @ET1
 49749					;INSTRUCTION FETCH @ET2
DFKAA PDP-10 KL10 BASIC INSTRUCTION DIAGNOSTIC (1) VER 0,2	MACRO %52(537) 09:34 31-JAN-77 PAGE 67
DFKAA8	MAC	25-AUG-75 14:17		LOCAL UUO TESTING (LUUO)                                                           SEQ 1144

 49750	066504				UUO27:	XUUO	27B8,UUO30^
 49751
 49752					;EXECUTE AN LUUO AND CHECK THAT THE UUO AND PC STORED
 49753					;ARE CORRECT.
 49754
 49755		027000	000000			MLUUO==27B8		;THE UUO TO BE EXECUTED
 49756						TSET^
 49757			066504			%X=.			;DEFINE %X TO SAVE
 49758	066504	201 00 0 00 066504 		MOVEI	%X		;SAVE THIS PC IN CASE OF WILD TRANSFER
 49759	066505	202 00 0 00 071350 		MOVEM	TNUMB#		;BECAUSE OF PC MOD OR INTERRUPT^
 49760	066506	200 00 0 00 071247 	..0212:	MOVE	0,[JSP	1,.+4]	;TRAP INSTRUCTION
 49761	066507	202 00 0 00 000041 		MOVEM	0,41		;IN TO 41
 49762	066510	027000	000000			27B8			;EXECUTE A UUO
 49763	066511	254 04 0 00 066512 		HALT	.+1		;UUO DID NOT TRAP TO FORTY
 49764	066512	201 02 0 00 066511 		MOVEI	2,.-1		;GET UUO PC
 49765	066513	405 01 0 00 777777 		ANDI	1,-1		;MASK FLAGS OUT
 49766	066514	312 01 0 00 000002 		CAME	1,2		;PC CORRECT ?
 49767	066515	254 04 0 00 066516 		HALT	.+1		;PC OF UUO NOT = TO PC STORED
 49768	066516	200 00 0 00 000040 		MOVE	0,40		;GET UUO !
 49769	066517	312 00 0 00 071250 		CAME	0,[27B8!0]		;CORRECT UUO STORED IN 40?
 49770	066520	334 00 0 00 000000 		SKIPA			;NO
 49771	066521	254 00 0 00 066530 		JRST	UUO30		;TESTS OK !
 49772						STOP1^
 49773	066522	254 04 0 00 066523 		HALT	.+1		;UUO FAILED TO STORE MA BITS
 49774	066523	254 00 0 00 066524 		JRST	.+1		;INTO RIGHT HALF OF 40^
 49775						TGET^
 49776	066524	200 00 0 00 071350 		MOVE	TNUMB		;GET LAST PC STORED AND CHECK TO SEE
 49777	066525	302 00 0 00 066504 		CAIE	%X		;IF ITS WHERE WE REALLY SHOULD BE
 49778						STOP2^^
 49779	066526	254 04 0 00 066527 		HALT	.+1		;HALT IF WE SHOULDN'T BE HERE
 49780	066527	254 00 0 00 066530 		JRST	.+1		;WILD TRANSFER CAUSED THIS HALT.^
 49781					^
 49782					;POSSIBLE CAUSES OF FAILURES IN LUUO FLOW.
 49783					;MA SPECIAL BITS NOT SETTING
 49784					;AD MAGIC # 40 @ET1
 49785					;XCTF SET AT FETCH CYCLE
 49786					;AR IR ENABLE @ET1
 49787					;AR SIGN SMEAR
 49788					;AD MAGIC NUMBER ENABLE
 49789					;AB AD EN @ET1
 49790					;INSTRUCTION FETCH @ET2
DFKAA PDP-10 KL10 BASIC INSTRUCTION DIAGNOSTIC (1) VER 0,2	MACRO %52(537) 09:34 31-JAN-77 PAGE 68
DFKAA8	MAC	25-AUG-75 14:17		LOCAL UUO TESTING (LUUO)                                                           SEQ 1145

 49791	066530				UUO30:	XUUO	30B8,UUO31^
 49792
 49793					;EXECUTE AN LUUO AND CHECK THAT THE UUO AND PC STORED
 49794					;ARE CORRECT.
 49795
 49796		030000	000000			MLUUO==30B8		;THE UUO TO BE EXECUTED
 49797						TSET^
 49798			066530			%X=.			;DEFINE %X TO SAVE
 49799	066530	201 00 0 00 066530 		MOVEI	%X		;SAVE THIS PC IN CASE OF WILD TRANSFER
 49800	066531	202 00 0 00 071350 		MOVEM	TNUMB#		;BECAUSE OF PC MOD OR INTERRUPT^
 49801	066532	200 00 0 00 071251 	..0213:	MOVE	0,[JSP	1,.+4]	;TRAP INSTRUCTION
 49802	066533	202 00 0 00 000041 		MOVEM	0,41		;IN TO 41
 49803	066534	030000	000000			30B8			;EXECUTE A UUO
 49804	066535	254 04 0 00 066536 		HALT	.+1		;UUO DID NOT TRAP TO FORTY
 49805	066536	201 02 0 00 066535 		MOVEI	2,.-1		;GET UUO PC
 49806	066537	405 01 0 00 777777 		ANDI	1,-1		;MASK FLAGS OUT
 49807	066540	312 01 0 00 000002 		CAME	1,2		;PC CORRECT ?
 49808	066541	254 04 0 00 066542 		HALT	.+1		;PC OF UUO NOT = TO PC STORED
 49809	066542	200 00 0 00 000040 		MOVE	0,40		;GET UUO !
 49810	066543	312 00 0 00 071252 		CAME	0,[30B8!0]		;CORRECT UUO STORED IN 40?
 49811	066544	334 00 0 00 000000 		SKIPA			;NO
 49812	066545	254 00 0 00 066554 		JRST	UUO31		;TESTS OK !
 49813						STOP1^
 49814	066546	254 04 0 00 066547 		HALT	.+1		;UUO FAILED TO STORE MA BITS
 49815	066547	254 00 0 00 066550 		JRST	.+1		;INTO RIGHT HALF OF 40^
 49816						TGET^
 49817	066550	200 00 0 00 071350 		MOVE	TNUMB		;GET LAST PC STORED AND CHECK TO SEE
 49818	066551	302 00 0 00 066530 		CAIE	%X		;IF ITS WHERE WE REALLY SHOULD BE
 49819						STOP2^^
 49820	066552	254 04 0 00 066553 		HALT	.+1		;HALT IF WE SHOULDN'T BE HERE
 49821	066553	254 00 0 00 066554 		JRST	.+1		;WILD TRANSFER CAUSED THIS HALT.^
 49822					^
 49823					;POSSIBLE CAUSES OF FAILURES IN LUUO FLOW.
 49824					;MA SPECIAL BITS NOT SETTING
 49825					;AD MAGIC # 40 @ET1
 49826					;XCTF SET AT FETCH CYCLE
 49827					;AR IR ENABLE @ET1
 49828					;AR SIGN SMEAR
 49829					;AD MAGIC NUMBER ENABLE
 49830					;AB AD EN @ET1
 49831					;INSTRUCTION FETCH @ET2
DFKAA PDP-10 KL10 BASIC INSTRUCTION DIAGNOSTIC (1) VER 0,2	MACRO %52(537) 09:34 31-JAN-77 PAGE 69
DFKAA8	MAC	25-AUG-75 14:17		LOCAL UUO TESTING (LUUO)                                                           SEQ 1146

 49832	066554				UUO31:	XUUO	31B8,UUO32^
 49833
 49834					;EXECUTE AN LUUO AND CHECK THAT THE UUO AND PC STORED
 49835					;ARE CORRECT.
 49836
 49837		031000	000000			MLUUO==31B8		;THE UUO TO BE EXECUTED
 49838						TSET^
 49839			066554			%X=.			;DEFINE %X TO SAVE
 49840	066554	201 00 0 00 066554 		MOVEI	%X		;SAVE THIS PC IN CASE OF WILD TRANSFER
 49841	066555	202 00 0 00 071350 		MOVEM	TNUMB#		;BECAUSE OF PC MOD OR INTERRUPT^
 49842	066556	200 00 0 00 071253 	..0214:	MOVE	0,[JSP	1,.+4]	;TRAP INSTRUCTION
 49843	066557	202 00 0 00 000041 		MOVEM	0,41		;IN TO 41
 49844	066560	031000	000000			31B8			;EXECUTE A UUO
 49845	066561	254 04 0 00 066562 		HALT	.+1		;UUO DID NOT TRAP TO FORTY
 49846	066562	201 02 0 00 066561 		MOVEI	2,.-1		;GET UUO PC
 49847	066563	405 01 0 00 777777 		ANDI	1,-1		;MASK FLAGS OUT
 49848	066564	312 01 0 00 000002 		CAME	1,2		;PC CORRECT ?
 49849	066565	254 04 0 00 066566 		HALT	.+1		;PC OF UUO NOT = TO PC STORED
 49850	066566	200 00 0 00 000040 		MOVE	0,40		;GET UUO !
 49851	066567	312 00 0 00 071254 		CAME	0,[31B8!0]		;CORRECT UUO STORED IN 40?
 49852	066570	334 00 0 00 000000 		SKIPA			;NO
 49853	066571	254 00 0 00 066600 		JRST	UUO32		;TESTS OK !
 49854						STOP1^
 49855	066572	254 04 0 00 066573 		HALT	.+1		;UUO FAILED TO STORE MA BITS
 49856	066573	254 00 0 00 066574 		JRST	.+1		;INTO RIGHT HALF OF 40^
 49857						TGET^
 49858	066574	200 00 0 00 071350 		MOVE	TNUMB		;GET LAST PC STORED AND CHECK TO SEE
 49859	066575	302 00 0 00 066554 		CAIE	%X		;IF ITS WHERE WE REALLY SHOULD BE
 49860						STOP2^^
 49861	066576	254 04 0 00 066577 		HALT	.+1		;HALT IF WE SHOULDN'T BE HERE
 49862	066577	254 00 0 00 066600 		JRST	.+1		;WILD TRANSFER CAUSED THIS HALT.^
 49863					^
 49864					;POSSIBLE CAUSES OF FAILURES IN LUUO FLOW.
 49865					;MA SPECIAL BITS NOT SETTING
 49866					;AD MAGIC # 40 @ET1
 49867					;XCTF SET AT FETCH CYCLE
 49868					;AR IR ENABLE @ET1
 49869					;AR SIGN SMEAR
 49870					;AD MAGIC NUMBER ENABLE
 49871					;AB AD EN @ET1
 49872					;INSTRUCTION FETCH @ET2
DFKAA PDP-10 KL10 BASIC INSTRUCTION DIAGNOSTIC (1) VER 0,2	MACRO %52(537) 09:34 31-JAN-77 PAGE 70
DFKAA8	MAC	25-AUG-75 14:17		LOCAL UUO TESTING (LUUO)                                                           SEQ 1147

 49873	066600				UUO32:	XUUO	32B8,UUO33^
 49874
 49875					;EXECUTE AN LUUO AND CHECK THAT THE UUO AND PC STORED
 49876					;ARE CORRECT.
 49877
 49878		032000	000000			MLUUO==32B8		;THE UUO TO BE EXECUTED
 49879						TSET^
 49880			066600			%X=.			;DEFINE %X TO SAVE
 49881	066600	201 00 0 00 066600 		MOVEI	%X		;SAVE THIS PC IN CASE OF WILD TRANSFER
 49882	066601	202 00 0 00 071350 		MOVEM	TNUMB#		;BECAUSE OF PC MOD OR INTERRUPT^
 49883	066602	200 00 0 00 071255 	..0215:	MOVE	0,[JSP	1,.+4]	;TRAP INSTRUCTION
 49884	066603	202 00 0 00 000041 		MOVEM	0,41		;IN TO 41
 49885	066604	032000	000000			32B8			;EXECUTE A UUO
 49886	066605	254 04 0 00 066606 		HALT	.+1		;UUO DID NOT TRAP TO FORTY
 49887	066606	201 02 0 00 066605 		MOVEI	2,.-1		;GET UUO PC
 49888	066607	405 01 0 00 777777 		ANDI	1,-1		;MASK FLAGS OUT
 49889	066610	312 01 0 00 000002 		CAME	1,2		;PC CORRECT ?
 49890	066611	254 04 0 00 066612 		HALT	.+1		;PC OF UUO NOT = TO PC STORED
 49891	066612	200 00 0 00 000040 		MOVE	0,40		;GET UUO !
 49892	066613	312 00 0 00 071256 		CAME	0,[32B8!0]		;CORRECT UUO STORED IN 40?
 49893	066614	334 00 0 00 000000 		SKIPA			;NO
 49894	066615	254 00 0 00 066624 		JRST	UUO33		;TESTS OK !
 49895						STOP1^
 49896	066616	254 04 0 00 066617 		HALT	.+1		;UUO FAILED TO STORE MA BITS
 49897	066617	254 00 0 00 066620 		JRST	.+1		;INTO RIGHT HALF OF 40^
 49898						TGET^
 49899	066620	200 00 0 00 071350 		MOVE	TNUMB		;GET LAST PC STORED AND CHECK TO SEE
 49900	066621	302 00 0 00 066600 		CAIE	%X		;IF ITS WHERE WE REALLY SHOULD BE
 49901						STOP2^^
 49902	066622	254 04 0 00 066623 		HALT	.+1		;HALT IF WE SHOULDN'T BE HERE
 49903	066623	254 00 0 00 066624 		JRST	.+1		;WILD TRANSFER CAUSED THIS HALT.^
 49904					^
 49905					;POSSIBLE CAUSES OF FAILURES IN LUUO FLOW.
 49906					;MA SPECIAL BITS NOT SETTING
 49907					;AD MAGIC # 40 @ET1
 49908					;XCTF SET AT FETCH CYCLE
 49909					;AR IR ENABLE @ET1
 49910					;AR SIGN SMEAR
 49911					;AD MAGIC NUMBER ENABLE
 49912					;AB AD EN @ET1
 49913					;INSTRUCTION FETCH @ET2
DFKAA PDP-10 KL10 BASIC INSTRUCTION DIAGNOSTIC (1) VER 0,2	MACRO %52(537) 09:34 31-JAN-77 PAGE 71
DFKAA8	MAC	25-AUG-75 14:17		LOCAL UUO TESTING (LUUO)                                                           SEQ 1148

 49914	066624				UUO33:	XUUO	33B8,UUO34^
 49915
 49916					;EXECUTE AN LUUO AND CHECK THAT THE UUO AND PC STORED
 49917					;ARE CORRECT.
 49918
 49919		033000	000000			MLUUO==33B8		;THE UUO TO BE EXECUTED
 49920						TSET^
 49921			066624			%X=.			;DEFINE %X TO SAVE
 49922	066624	201 00 0 00 066624 		MOVEI	%X		;SAVE THIS PC IN CASE OF WILD TRANSFER
 49923	066625	202 00 0 00 071350 		MOVEM	TNUMB#		;BECAUSE OF PC MOD OR INTERRUPT^
 49924	066626	200 00 0 00 071257 	..0216:	MOVE	0,[JSP	1,.+4]	;TRAP INSTRUCTION
 49925	066627	202 00 0 00 000041 		MOVEM	0,41		;IN TO 41
 49926	066630	033000	000000			33B8			;EXECUTE A UUO
 49927	066631	254 04 0 00 066632 		HALT	.+1		;UUO DID NOT TRAP TO FORTY
 49928	066632	201 02 0 00 066631 		MOVEI	2,.-1		;GET UUO PC
 49929	066633	405 01 0 00 777777 		ANDI	1,-1		;MASK FLAGS OUT
 49930	066634	312 01 0 00 000002 		CAME	1,2		;PC CORRECT ?
 49931	066635	254 04 0 00 066636 		HALT	.+1		;PC OF UUO NOT = TO PC STORED
 49932	066636	200 00 0 00 000040 		MOVE	0,40		;GET UUO !
 49933	066637	312 00 0 00 071260 		CAME	0,[33B8!0]		;CORRECT UUO STORED IN 40?
 49934	066640	334 00 0 00 000000 		SKIPA			;NO
 49935	066641	254 00 0 00 066650 		JRST	UUO34		;TESTS OK !
 49936						STOP1^
 49937	066642	254 04 0 00 066643 		HALT	.+1		;UUO FAILED TO STORE MA BITS
 49938	066643	254 00 0 00 066644 		JRST	.+1		;INTO RIGHT HALF OF 40^
 49939						TGET^
 49940	066644	200 00 0 00 071350 		MOVE	TNUMB		;GET LAST PC STORED AND CHECK TO SEE
 49941	066645	302 00 0 00 066624 		CAIE	%X		;IF ITS WHERE WE REALLY SHOULD BE
 49942						STOP2^^
 49943	066646	254 04 0 00 066647 		HALT	.+1		;HALT IF WE SHOULDN'T BE HERE
 49944	066647	254 00 0 00 066650 		JRST	.+1		;WILD TRANSFER CAUSED THIS HALT.^
 49945					^
 49946					;POSSIBLE CAUSES OF FAILURES IN LUUO FLOW.
 49947					;MA SPECIAL BITS NOT SETTING
 49948					;AD MAGIC # 40 @ET1
 49949					;XCTF SET AT FETCH CYCLE
 49950					;AR IR ENABLE @ET1
 49951					;AR SIGN SMEAR
 49952					;AD MAGIC NUMBER ENABLE
 49953					;AB AD EN @ET1
 49954					;INSTRUCTION FETCH @ET2
DFKAA PDP-10 KL10 BASIC INSTRUCTION DIAGNOSTIC (1) VER 0,2	MACRO %52(537) 09:34 31-JAN-77 PAGE 72
DFKAA8	MAC	25-AUG-75 14:17		LOCAL UUO TESTING (LUUO)                                                           SEQ 1149

 49955	066650				UUO34:	XUUO	34B8,UUO35^
 49956
 49957					;EXECUTE AN LUUO AND CHECK THAT THE UUO AND PC STORED
 49958					;ARE CORRECT.
 49959
 49960		034000	000000			MLUUO==34B8		;THE UUO TO BE EXECUTED
 49961						TSET^
 49962			066650			%X=.			;DEFINE %X TO SAVE
 49963	066650	201 00 0 00 066650 		MOVEI	%X		;SAVE THIS PC IN CASE OF WILD TRANSFER
 49964	066651	202 00 0 00 071350 		MOVEM	TNUMB#		;BECAUSE OF PC MOD OR INTERRUPT^
 49965	066652	200 00 0 00 071261 	..0217:	MOVE	0,[JSP	1,.+4]	;TRAP INSTRUCTION
 49966	066653	202 00 0 00 000041 		MOVEM	0,41		;IN TO 41
 49967	066654	034000	000000			34B8			;EXECUTE A UUO
 49968	066655	254 04 0 00 066656 		HALT	.+1		;UUO DID NOT TRAP TO FORTY
 49969	066656	201 02 0 00 066655 		MOVEI	2,.-1		;GET UUO PC
 49970	066657	405 01 0 00 777777 		ANDI	1,-1		;MASK FLAGS OUT
 49971	066660	312 01 0 00 000002 		CAME	1,2		;PC CORRECT ?
 49972	066661	254 04 0 00 066662 		HALT	.+1		;PC OF UUO NOT = TO PC STORED
 49973	066662	200 00 0 00 000040 		MOVE	0,40		;GET UUO !
 49974	066663	312 00 0 00 071262 		CAME	0,[34B8!0]		;CORRECT UUO STORED IN 40?
 49975	066664	334 00 0 00 000000 		SKIPA			;NO
 49976	066665	254 00 0 00 066674 		JRST	UUO35		;TESTS OK !
 49977						STOP1^
 49978	066666	254 04 0 00 066667 		HALT	.+1		;UUO FAILED TO STORE MA BITS
 49979	066667	254 00 0 00 066670 		JRST	.+1		;INTO RIGHT HALF OF 40^
 49980						TGET^
 49981	066670	200 00 0 00 071350 		MOVE	TNUMB		;GET LAST PC STORED AND CHECK TO SEE
 49982	066671	302 00 0 00 066650 		CAIE	%X		;IF ITS WHERE WE REALLY SHOULD BE
 49983						STOP2^^
 49984	066672	254 04 0 00 066673 		HALT	.+1		;HALT IF WE SHOULDN'T BE HERE
 49985	066673	254 00 0 00 066674 		JRST	.+1		;WILD TRANSFER CAUSED THIS HALT.^
 49986					^
 49987					;POSSIBLE CAUSES OF FAILURES IN LUUO FLOW.
 49988					;MA SPECIAL BITS NOT SETTING
 49989					;AD MAGIC # 40 @ET1
 49990					;XCTF SET AT FETCH CYCLE
 49991					;AR IR ENABLE @ET1
 49992					;AR SIGN SMEAR
 49993					;AD MAGIC NUMBER ENABLE
 49994					;AB AD EN @ET1
 49995					;INSTRUCTION FETCH @ET2
DFKAA PDP-10 KL10 BASIC INSTRUCTION DIAGNOSTIC (1) VER 0,2	MACRO %52(537) 09:34 31-JAN-77 PAGE 73
DFKAA8	MAC	25-AUG-75 14:17		LOCAL UUO TESTING (LUUO)                                                           SEQ 1150

 49996	066674				UUO35:	XUUO	35B8,UUO36^
 49997
 49998					;EXECUTE AN LUUO AND CHECK THAT THE UUO AND PC STORED
 49999					;ARE CORRECT.
 50000
 50001		035000	000000			MLUUO==35B8		;THE UUO TO BE EXECUTED
 50002						TSET^
 50003			066674			%X=.			;DEFINE %X TO SAVE
 50004	066674	201 00 0 00 066674 		MOVEI	%X		;SAVE THIS PC IN CASE OF WILD TRANSFER
 50005	066675	202 00 0 00 071350 		MOVEM	TNUMB#		;BECAUSE OF PC MOD OR INTERRUPT^
 50006	066676	200 00 0 00 071263 	..0220:	MOVE	0,[JSP	1,.+4]	;TRAP INSTRUCTION
 50007	066677	202 00 0 00 000041 		MOVEM	0,41		;IN TO 41
 50008	066700	035000	000000			35B8			;EXECUTE A UUO
 50009	066701	254 04 0 00 066702 		HALT	.+1		;UUO DID NOT TRAP TO FORTY
 50010	066702	201 02 0 00 066701 		MOVEI	2,.-1		;GET UUO PC
 50011	066703	405 01 0 00 777777 		ANDI	1,-1		;MASK FLAGS OUT
 50012	066704	312 01 0 00 000002 		CAME	1,2		;PC CORRECT ?
 50013	066705	254 04 0 00 066706 		HALT	.+1		;PC OF UUO NOT = TO PC STORED
 50014	066706	200 00 0 00 000040 		MOVE	0,40		;GET UUO !
 50015	066707	312 00 0 00 071264 		CAME	0,[35B8!0]		;CORRECT UUO STORED IN 40?
 50016	066710	334 00 0 00 000000 		SKIPA			;NO
 50017	066711	254 00 0 00 066720 		JRST	UUO36		;TESTS OK !
 50018						STOP1^
 50019	066712	254 04 0 00 066713 		HALT	.+1		;UUO FAILED TO STORE MA BITS
 50020	066713	254 00 0 00 066714 		JRST	.+1		;INTO RIGHT HALF OF 40^
 50021						TGET^
 50022	066714	200 00 0 00 071350 		MOVE	TNUMB		;GET LAST PC STORED AND CHECK TO SEE
 50023	066715	302 00 0 00 066674 		CAIE	%X		;IF ITS WHERE WE REALLY SHOULD BE
 50024						STOP2^^
 50025	066716	254 04 0 00 066717 		HALT	.+1		;HALT IF WE SHOULDN'T BE HERE
 50026	066717	254 00 0 00 066720 		JRST	.+1		;WILD TRANSFER CAUSED THIS HALT.^
 50027					^
 50028					;POSSIBLE CAUSES OF FAILURES IN LUUO FLOW.
 50029					;MA SPECIAL BITS NOT SETTING
 50030					;AD MAGIC # 40 @ET1
 50031					;XCTF SET AT FETCH CYCLE
 50032					;AR IR ENABLE @ET1
 50033					;AR SIGN SMEAR
 50034					;AD MAGIC NUMBER ENABLE
 50035					;AB AD EN @ET1
 50036					;INSTRUCTION FETCH @ET2
DFKAA PDP-10 KL10 BASIC INSTRUCTION DIAGNOSTIC (1) VER 0,2	MACRO %52(537) 09:34 31-JAN-77 PAGE 74
DFKAA8	MAC	25-AUG-75 14:17		LOCAL UUO TESTING (LUUO)                                                           SEQ 1151

 50037	066720				UUO36:	XUUO	36B8,UUO37^
 50038
 50039					;EXECUTE AN LUUO AND CHECK THAT THE UUO AND PC STORED
 50040					;ARE CORRECT.
 50041
 50042		036000	000000			MLUUO==36B8		;THE UUO TO BE EXECUTED
 50043						TSET^
 50044			066720			%X=.			;DEFINE %X TO SAVE
 50045	066720	201 00 0 00 066720 		MOVEI	%X		;SAVE THIS PC IN CASE OF WILD TRANSFER
 50046	066721	202 00 0 00 071350 		MOVEM	TNUMB#		;BECAUSE OF PC MOD OR INTERRUPT^
 50047	066722	200 00 0 00 071265 	..0221:	MOVE	0,[JSP	1,.+4]	;TRAP INSTRUCTION
 50048	066723	202 00 0 00 000041 		MOVEM	0,41		;IN TO 41
 50049	066724	036000	000000			36B8			;EXECUTE A UUO
 50050	066725	254 04 0 00 066726 		HALT	.+1		;UUO DID NOT TRAP TO FORTY
 50051	066726	201 02 0 00 066725 		MOVEI	2,.-1		;GET UUO PC
 50052	066727	405 01 0 00 777777 		ANDI	1,-1		;MASK FLAGS OUT
 50053	066730	312 01 0 00 000002 		CAME	1,2		;PC CORRECT ?
 50054	066731	254 04 0 00 066732 		HALT	.+1		;PC OF UUO NOT = TO PC STORED
 50055	066732	200 00 0 00 000040 		MOVE	0,40		;GET UUO !
 50056	066733	312 00 0 00 071266 		CAME	0,[36B8!0]		;CORRECT UUO STORED IN 40?
 50057	066734	334 00 0 00 000000 		SKIPA			;NO
 50058	066735	254 00 0 00 066744 		JRST	UUO37		;TESTS OK !
 50059						STOP1^
 50060	066736	254 04 0 00 066737 		HALT	.+1		;UUO FAILED TO STORE MA BITS
 50061	066737	254 00 0 00 066740 		JRST	.+1		;INTO RIGHT HALF OF 40^
 50062						TGET^
 50063	066740	200 00 0 00 071350 		MOVE	TNUMB		;GET LAST PC STORED AND CHECK TO SEE
 50064	066741	302 00 0 00 066720 		CAIE	%X		;IF ITS WHERE WE REALLY SHOULD BE
 50065						STOP2^^
 50066	066742	254 04 0 00 066743 		HALT	.+1		;HALT IF WE SHOULDN'T BE HERE
 50067	066743	254 00 0 00 066744 		JRST	.+1		;WILD TRANSFER CAUSED THIS HALT.^
 50068					^
 50069					;POSSIBLE CAUSES OF FAILURES IN LUUO FLOW.
 50070					;MA SPECIAL BITS NOT SETTING
 50071					;AD MAGIC # 40 @ET1
 50072					;XCTF SET AT FETCH CYCLE
 50073					;AR IR ENABLE @ET1
 50074					;AR SIGN SMEAR
 50075					;AD MAGIC NUMBER ENABLE
 50076					;AB AD EN @ET1
 50077					;INSTRUCTION FETCH @ET2
DFKAA PDP-10 KL10 BASIC INSTRUCTION DIAGNOSTIC (1) VER 0,2	MACRO %52(537) 09:34 31-JAN-77 PAGE 75
DFKAA8	MAC	25-AUG-75 14:17		LOCAL UUO TESTING (LUUO)                                                           SEQ 1152

 50078	066744				UUO37:	XUUO	37B8,UUOPC^
 50079
 50080					;EXECUTE AN LUUO AND CHECK THAT THE UUO AND PC STORED
 50081					;ARE CORRECT.
 50082
 50083		037000	000000			MLUUO==37B8		;THE UUO TO BE EXECUTED
 50084						TSET^
 50085			066744			%X=.			;DEFINE %X TO SAVE
 50086	066744	201 00 0 00 066744 		MOVEI	%X		;SAVE THIS PC IN CASE OF WILD TRANSFER
 50087	066745	202 00 0 00 071350 		MOVEM	TNUMB#		;BECAUSE OF PC MOD OR INTERRUPT^
 50088	066746	200 00 0 00 071267 	..0222:	MOVE	0,[JSP	1,.+4]	;TRAP INSTRUCTION
 50089	066747	202 00 0 00 000041 		MOVEM	0,41		;IN TO 41
 50090	066750	037000	000000			37B8			;EXECUTE A UUO
 50091	066751	254 04 0 00 066752 		HALT	.+1		;UUO DID NOT TRAP TO FORTY
 50092	066752	201 02 0 00 066751 		MOVEI	2,.-1		;GET UUO PC
 50093	066753	405 01 0 00 777777 		ANDI	1,-1		;MASK FLAGS OUT
 50094	066754	312 01 0 00 000002 		CAME	1,2		;PC CORRECT ?
 50095	066755	254 04 0 00 066756 		HALT	.+1		;PC OF UUO NOT = TO PC STORED
 50096	066756	200 00 0 00 000040 		MOVE	0,40		;GET UUO !
 50097	066757	312 00 0 00 071270 		CAME	0,[37B8!0]		;CORRECT UUO STORED IN 40?
 50098	066760	334 00 0 00 000000 		SKIPA			;NO
 50099	066761	254 00 0 00 066771 		JRST	UUOPC		;TESTS OK !
 50100						STOP1^
 50101	066762	254 04 0 00 066763 		HALT	.+1		;UUO FAILED TO STORE MA BITS
 50102	066763	254 00 0 00 066764 		JRST	.+1		;INTO RIGHT HALF OF 40^
 50103						TGET^
 50104	066764	200 00 0 00 071350 		MOVE	TNUMB		;GET LAST PC STORED AND CHECK TO SEE
 50105	066765	302 00 0 00 066744 		CAIE	%X		;IF ITS WHERE WE REALLY SHOULD BE
 50106						STOP2^^
 50107	066766	254 04 0 00 066767 		HALT	.+1		;HALT IF WE SHOULDN'T BE HERE
 50108	066767	254 00 0 00 066770 		JRST	.+1		;WILD TRANSFER CAUSED THIS HALT.^
 50109					^
 50110
 50111	066770	255 00 0 00 000000 		JFCL
DFKAA PDP-10 KL10 BASIC INSTRUCTION DIAGNOSTIC (1) VER 0,2	MACRO %52(537) 09:34 31-JAN-77 PAGE 76
DFKAA8	MAC	25-AUG-75 14:17		TEST UUO STORING CORRECTLY                                                         SEQ 1153

 50112					SUBTTL	TEST UUO STORING CORRECTLY
 50113					;TEST THE MA PORTION OF THE UUO TO SEE IF BITS 18-35 ARE STORED CORRECTLY
 50114					;ROUTINE ROTATES A BIT LEFT THROUGH THE MA OF THE UUO
 50115					;THEN DOES ALTERNATING PATTERN, ALL ONES AND ALL ZEROS
 50116
 50117			000001			X=1
 50118	066771				UUOPC:
 50119	066771				UUOPCA:
 50120						REPEAT	^D18,<
 50121						XUUOA	X
 50122						X=X_1
 50123					>
 50124
 50125						XUUOA	X^
 50126
 50127					;CHECK THE "E" OF THE UUO STORED IS CORRECT.
 50128
 50129			000001			EFIELD==X		;"E" WE ARE TESTING FOR
 50130						TSET^
 50131			066771			%X=.			;DEFINE %X TO SAVE
 50132	066771	201 00 0 00 066771 		MOVEI	%X		;SAVE THIS PC IN CASE OF WILD TRANSFER
 50133	066772	202 00 0 00 071350 		MOVEM	TNUMB#		;BECAUSE OF PC MOD OR INTERRUPT^
 50134	066773	200 00 0 00 071271 	..0223:	MOVE	[JRST	.+4]	;SET A TRAP INSTRUCTION
 50135	066774	202 00 0 00 000041 		MOVEM	41		;INTO 41
 50136	066775	001000	000001			1B8!X			;EXECUTE A UUO
 50137	066776	254 04 0 00 066777 	..0224:	HALT	.+1		;UUO DIDN'T TRAP TO 40
 50138	066777	200 00 0 00 000040 		MOVE	0,40		;GET UUO
 50139	067000	405 00 0 00 777777 		ANDI	0,-1		;MASK OUT UUO FOR MA BITS
 50140	067001	302 00 0 00 000001 		CAIE	X		;MA BITS CORRECT?
 50141	067002				..0225:	STOP1^
 50142	067002	254 04 0 00 067003 		HALT	.+1		;UUO FAILED TO STORE MA BITS
 50143	067003	254 00 0 00 067004 		JRST	.+1		;INTO RIGHT HALF OF 40^
 50144						TGET^
 50145	067004	200 00 0 00 071350 		MOVE	TNUMB		;GET LAST PC STORED AND CHECK TO SEE
 50146	067005	302 00 0 00 066771 		CAIE	%X		;IF ITS WHERE WE REALLY SHOULD BE
 50147						STOP2^^
 50148	067006	254 04 0 00 067007 		HALT	.+1		;HALT IF WE SHOULDN'T BE HERE
 50149	067007	254 00 0 00 067010 		JRST	.+1		;WILD TRANSFER CAUSED THIS HALT.^
 50150					^
 50151			000002			X=X_1
 50152
 50153
 50154						XUUOA	X^
 50155
 50156					;CHECK THE "E" OF THE UUO STORED IS CORRECT.
 50157
 50158			000002			EFIELD==X		;"E" WE ARE TESTING FOR
 50159						TSET^
 50160			067010			%X=.			;DEFINE %X TO SAVE
 50161	067010	201 00 0 00 067010 		MOVEI	%X		;SAVE THIS PC IN CASE OF WILD TRANSFER
 50162	067011	202 00 0 00 071350 		MOVEM	TNUMB#		;BECAUSE OF PC MOD OR INTERRUPT^
 50163	067012	200 00 0 00 071272 	..0226:	MOVE	[JRST	.+4]	;SET A TRAP INSTRUCTION
 50164	067013	202 00 0 00 000041 		MOVEM	41		;INTO 41
 50165	067014	001000	000002			1B8!X			;EXECUTE A UUO
 50166	067015	254 04 0 00 067016 	..0227:	HALT	.+1		;UUO DIDN'T TRAP TO 40
DFKAA PDP-10 KL10 BASIC INSTRUCTION DIAGNOSTIC (1) VER 0,2	MACRO %52(537) 09:34 31-JAN-77 PAGE 76-1
DFKAA8	MAC	25-AUG-75 14:17		TEST UUO STORING CORRECTLY                                                         SEQ 1154

 50167	067016	200 00 0 00 000040 		MOVE	0,40		;GET UUO
 50168	067017	405 00 0 00 777777 		ANDI	0,-1		;MASK OUT UUO FOR MA BITS
 50169	067020	302 00 0 00 000002 		CAIE	X		;MA BITS CORRECT?
 50170	067021				..0230:	STOP1^
 50171	067021	254 04 0 00 067022 		HALT	.+1		;UUO FAILED TO STORE MA BITS
 50172	067022	254 00 0 00 067023 		JRST	.+1		;INTO RIGHT HALF OF 40^
 50173						TGET^
 50174	067023	200 00 0 00 071350 		MOVE	TNUMB		;GET LAST PC STORED AND CHECK TO SEE
 50175	067024	302 00 0 00 067010 		CAIE	%X		;IF ITS WHERE WE REALLY SHOULD BE
 50176						STOP2^^
 50177	067025	254 04 0 00 067026 		HALT	.+1		;HALT IF WE SHOULDN'T BE HERE
 50178	067026	254 00 0 00 067027 		JRST	.+1		;WILD TRANSFER CAUSED THIS HALT.^
 50179					^
 50180			000004			X=X_1
 50181
 50182
 50183						XUUOA	X^
 50184
 50185					;CHECK THE "E" OF THE UUO STORED IS CORRECT.
 50186
 50187			000004			EFIELD==X		;"E" WE ARE TESTING FOR
 50188						TSET^
 50189			067027			%X=.			;DEFINE %X TO SAVE
 50190	067027	201 00 0 00 067027 		MOVEI	%X		;SAVE THIS PC IN CASE OF WILD TRANSFER
 50191	067030	202 00 0 00 071350 		MOVEM	TNUMB#		;BECAUSE OF PC MOD OR INTERRUPT^
 50192	067031	200 00 0 00 071273 	..0231:	MOVE	[JRST	.+4]	;SET A TRAP INSTRUCTION
 50193	067032	202 00 0 00 000041 		MOVEM	41		;INTO 41
 50194	067033	001000	000004			1B8!X			;EXECUTE A UUO
 50195	067034	254 04 0 00 067035 	..0232:	HALT	.+1		;UUO DIDN'T TRAP TO 40
 50196	067035	200 00 0 00 000040 		MOVE	0,40		;GET UUO
 50197	067036	405 00 0 00 777777 		ANDI	0,-1		;MASK OUT UUO FOR MA BITS
 50198	067037	302 00 0 00 000004 		CAIE	X		;MA BITS CORRECT?
 50199	067040				..0233:	STOP1^
 50200	067040	254 04 0 00 067041 		HALT	.+1		;UUO FAILED TO STORE MA BITS
 50201	067041	254 00 0 00 067042 		JRST	.+1		;INTO RIGHT HALF OF 40^
 50202						TGET^
 50203	067042	200 00 0 00 071350 		MOVE	TNUMB		;GET LAST PC STORED AND CHECK TO SEE
 50204	067043	302 00 0 00 067027 		CAIE	%X		;IF ITS WHERE WE REALLY SHOULD BE
 50205						STOP2^^
 50206	067044	254 04 0 00 067045 		HALT	.+1		;HALT IF WE SHOULDN'T BE HERE
 50207	067045	254 00 0 00 067046 		JRST	.+1		;WILD TRANSFER CAUSED THIS HALT.^
 50208					^
 50209			000010			X=X_1
 50210
 50211
 50212						XUUOA	X^
 50213
 50214					;CHECK THE "E" OF THE UUO STORED IS CORRECT.
 50215
 50216			000010			EFIELD==X		;"E" WE ARE TESTING FOR
 50217						TSET^
 50218			067046			%X=.			;DEFINE %X TO SAVE
 50219	067046	201 00 0 00 067046 		MOVEI	%X		;SAVE THIS PC IN CASE OF WILD TRANSFER
 50220	067047	202 00 0 00 071350 		MOVEM	TNUMB#		;BECAUSE OF PC MOD OR INTERRUPT^
 50221	067050	200 00 0 00 071274 	..0234:	MOVE	[JRST	.+4]	;SET A TRAP INSTRUCTION
DFKAA PDP-10 KL10 BASIC INSTRUCTION DIAGNOSTIC (1) VER 0,2	MACRO %52(537) 09:34 31-JAN-77 PAGE 76-2
DFKAA8	MAC	25-AUG-75 14:17		TEST UUO STORING CORRECTLY                                                         SEQ 1155

 50222	067051	202 00 0 00 000041 		MOVEM	41		;INTO 41
 50223	067052	001000	000010			1B8!X			;EXECUTE A UUO
 50224	067053	254 04 0 00 067054 	..0235:	HALT	.+1		;UUO DIDN'T TRAP TO 40
 50225	067054	200 00 0 00 000040 		MOVE	0,40		;GET UUO
 50226	067055	405 00 0 00 777777 		ANDI	0,-1		;MASK OUT UUO FOR MA BITS
 50227	067056	302 00 0 00 000010 		CAIE	X		;MA BITS CORRECT?
 50228	067057				..0236:	STOP1^
 50229	067057	254 04 0 00 067060 		HALT	.+1		;UUO FAILED TO STORE MA BITS
 50230	067060	254 00 0 00 067061 		JRST	.+1		;INTO RIGHT HALF OF 40^
 50231						TGET^
 50232	067061	200 00 0 00 071350 		MOVE	TNUMB		;GET LAST PC STORED AND CHECK TO SEE
 50233	067062	302 00 0 00 067046 		CAIE	%X		;IF ITS WHERE WE REALLY SHOULD BE
 50234						STOP2^^
 50235	067063	254 04 0 00 067064 		HALT	.+1		;HALT IF WE SHOULDN'T BE HERE
 50236	067064	254 00 0 00 067065 		JRST	.+1		;WILD TRANSFER CAUSED THIS HALT.^
 50237					^
 50238			000020			X=X_1
 50239
 50240
 50241						XUUOA	X^
 50242
 50243					;CHECK THE "E" OF THE UUO STORED IS CORRECT.
 50244
 50245			000020			EFIELD==X		;"E" WE ARE TESTING FOR
 50246						TSET^
 50247			067065			%X=.			;DEFINE %X TO SAVE
 50248	067065	201 00 0 00 067065 		MOVEI	%X		;SAVE THIS PC IN CASE OF WILD TRANSFER
 50249	067066	202 00 0 00 071350 		MOVEM	TNUMB#		;BECAUSE OF PC MOD OR INTERRUPT^
 50250	067067	200 00 0 00 071275 	..0237:	MOVE	[JRST	.+4]	;SET A TRAP INSTRUCTION
 50251	067070	202 00 0 00 000041 		MOVEM	41		;INTO 41
 50252	067071	001000	000020			1B8!X			;EXECUTE A UUO
 50253	067072	254 04 0 00 067073 	..0240:	HALT	.+1		;UUO DIDN'T TRAP TO 40
 50254	067073	200 00 0 00 000040 		MOVE	0,40		;GET UUO
 50255	067074	405 00 0 00 777777 		ANDI	0,-1		;MASK OUT UUO FOR MA BITS
 50256	067075	302 00 0 00 000020 		CAIE	X		;MA BITS CORRECT?
 50257	067076				..0241:	STOP1^
 50258	067076	254 04 0 00 067077 		HALT	.+1		;UUO FAILED TO STORE MA BITS
 50259	067077	254 00 0 00 067100 		JRST	.+1		;INTO RIGHT HALF OF 40^
 50260						TGET^
 50261	067100	200 00 0 00 071350 		MOVE	TNUMB		;GET LAST PC STORED AND CHECK TO SEE
 50262	067101	302 00 0 00 067065 		CAIE	%X		;IF ITS WHERE WE REALLY SHOULD BE
 50263						STOP2^^
 50264	067102	254 04 0 00 067103 		HALT	.+1		;HALT IF WE SHOULDN'T BE HERE
 50265	067103	254 00 0 00 067104 		JRST	.+1		;WILD TRANSFER CAUSED THIS HALT.^
 50266					^
 50267			000040			X=X_1
 50268
 50269
 50270						XUUOA	X^
 50271
 50272					;CHECK THE "E" OF THE UUO STORED IS CORRECT.
 50273
 50274			000040			EFIELD==X		;"E" WE ARE TESTING FOR
 50275						TSET^
 50276			067104			%X=.			;DEFINE %X TO SAVE
DFKAA PDP-10 KL10 BASIC INSTRUCTION DIAGNOSTIC (1) VER 0,2	MACRO %52(537) 09:34 31-JAN-77 PAGE 76-3
DFKAA8	MAC	25-AUG-75 14:17		TEST UUO STORING CORRECTLY                                                         SEQ 1156

 50277	067104	201 00 0 00 067104 		MOVEI	%X		;SAVE THIS PC IN CASE OF WILD TRANSFER
 50278	067105	202 00 0 00 071350 		MOVEM	TNUMB#		;BECAUSE OF PC MOD OR INTERRUPT^
 50279	067106	200 00 0 00 071276 	..0242:	MOVE	[JRST	.+4]	;SET A TRAP INSTRUCTION
 50280	067107	202 00 0 00 000041 		MOVEM	41		;INTO 41
 50281	067110	001000	000040			1B8!X			;EXECUTE A UUO
 50282	067111	254 04 0 00 067112 	..0243:	HALT	.+1		;UUO DIDN'T TRAP TO 40
 50283	067112	200 00 0 00 000040 		MOVE	0,40		;GET UUO
 50284	067113	405 00 0 00 777777 		ANDI	0,-1		;MASK OUT UUO FOR MA BITS
 50285	067114	302 00 0 00 000040 		CAIE	X		;MA BITS CORRECT?
 50286	067115				..0244:	STOP1^
 50287	067115	254 04 0 00 067116 		HALT	.+1		;UUO FAILED TO STORE MA BITS
 50288	067116	254 00 0 00 067117 		JRST	.+1		;INTO RIGHT HALF OF 40^
 50289						TGET^
 50290	067117	200 00 0 00 071350 		MOVE	TNUMB		;GET LAST PC STORED AND CHECK TO SEE
 50291	067120	302 00 0 00 067104 		CAIE	%X		;IF ITS WHERE WE REALLY SHOULD BE
 50292						STOP2^^
 50293	067121	254 04 0 00 067122 		HALT	.+1		;HALT IF WE SHOULDN'T BE HERE
 50294	067122	254 00 0 00 067123 		JRST	.+1		;WILD TRANSFER CAUSED THIS HALT.^
 50295					^
 50296			000100			X=X_1
 50297
 50298
 50299						XUUOA	X^
 50300
 50301					;CHECK THE "E" OF THE UUO STORED IS CORRECT.
 50302
 50303			000100			EFIELD==X		;"E" WE ARE TESTING FOR
 50304						TSET^
 50305			067123			%X=.			;DEFINE %X TO SAVE
 50306	067123	201 00 0 00 067123 		MOVEI	%X		;SAVE THIS PC IN CASE OF WILD TRANSFER
 50307	067124	202 00 0 00 071350 		MOVEM	TNUMB#		;BECAUSE OF PC MOD OR INTERRUPT^
 50308	067125	200 00 0 00 071277 	..0245:	MOVE	[JRST	.+4]	;SET A TRAP INSTRUCTION
 50309	067126	202 00 0 00 000041 		MOVEM	41		;INTO 41
 50310	067127	001000	000100			1B8!X			;EXECUTE A UUO
 50311	067130	254 04 0 00 067131 	..0246:	HALT	.+1		;UUO DIDN'T TRAP TO 40
 50312	067131	200 00 0 00 000040 		MOVE	0,40		;GET UUO
 50313	067132	405 00 0 00 777777 		ANDI	0,-1		;MASK OUT UUO FOR MA BITS
 50314	067133	302 00 0 00 000100 		CAIE	X		;MA BITS CORRECT?
 50315	067134				..0247:	STOP1^
 50316	067134	254 04 0 00 067135 		HALT	.+1		;UUO FAILED TO STORE MA BITS
 50317	067135	254 00 0 00 067136 		JRST	.+1		;INTO RIGHT HALF OF 40^
 50318						TGET^
 50319	067136	200 00 0 00 071350 		MOVE	TNUMB		;GET LAST PC STORED AND CHECK TO SEE
 50320	067137	302 00 0 00 067123 		CAIE	%X		;IF ITS WHERE WE REALLY SHOULD BE
 50321						STOP2^^
 50322	067140	254 04 0 00 067141 		HALT	.+1		;HALT IF WE SHOULDN'T BE HERE
 50323	067141	254 00 0 00 067142 		JRST	.+1		;WILD TRANSFER CAUSED THIS HALT.^
 50324					^
 50325			000200			X=X_1
 50326
 50327
 50328						XUUOA	X^
 50329
 50330					;CHECK THE "E" OF THE UUO STORED IS CORRECT.
 50331
DFKAA PDP-10 KL10 BASIC INSTRUCTION DIAGNOSTIC (1) VER 0,2	MACRO %52(537) 09:34 31-JAN-77 PAGE 76-4
DFKAA8	MAC	25-AUG-75 14:17		TEST UUO STORING CORRECTLY                                                         SEQ 1157

 50332			000200			EFIELD==X		;"E" WE ARE TESTING FOR
 50333						TSET^
 50334			067142			%X=.			;DEFINE %X TO SAVE
 50335	067142	201 00 0 00 067142 		MOVEI	%X		;SAVE THIS PC IN CASE OF WILD TRANSFER
 50336	067143	202 00 0 00 071350 		MOVEM	TNUMB#		;BECAUSE OF PC MOD OR INTERRUPT^
 50337	067144	200 00 0 00 071300 	..0250:	MOVE	[JRST	.+4]	;SET A TRAP INSTRUCTION
 50338	067145	202 00 0 00 000041 		MOVEM	41		;INTO 41
 50339	067146	001000	000200			1B8!X			;EXECUTE A UUO
 50340	067147	254 04 0 00 067150 	..0251:	HALT	.+1		;UUO DIDN'T TRAP TO 40
 50341	067150	200 00 0 00 000040 		MOVE	0,40		;GET UUO
 50342	067151	405 00 0 00 777777 		ANDI	0,-1		;MASK OUT UUO FOR MA BITS
 50343	067152	302 00 0 00 000200 		CAIE	X		;MA BITS CORRECT?
 50344	067153				..0252:	STOP1^
 50345	067153	254 04 0 00 067154 		HALT	.+1		;UUO FAILED TO STORE MA BITS
 50346	067154	254 00 0 00 067155 		JRST	.+1		;INTO RIGHT HALF OF 40^
 50347						TGET^
 50348	067155	200 00 0 00 071350 		MOVE	TNUMB		;GET LAST PC STORED AND CHECK TO SEE
 50349	067156	302 00 0 00 067142 		CAIE	%X		;IF ITS WHERE WE REALLY SHOULD BE
 50350						STOP2^^
 50351	067157	254 04 0 00 067160 		HALT	.+1		;HALT IF WE SHOULDN'T BE HERE
 50352	067160	254 00 0 00 067161 		JRST	.+1		;WILD TRANSFER CAUSED THIS HALT.^
 50353					^
 50354			000400			X=X_1
 50355
 50356
 50357						XUUOA	X^
 50358
 50359					;CHECK THE "E" OF THE UUO STORED IS CORRECT.
 50360
 50361			000400			EFIELD==X		;"E" WE ARE TESTING FOR
 50362						TSET^
 50363			067161			%X=.			;DEFINE %X TO SAVE
 50364	067161	201 00 0 00 067161 		MOVEI	%X		;SAVE THIS PC IN CASE OF WILD TRANSFER
 50365	067162	202 00 0 00 071350 		MOVEM	TNUMB#		;BECAUSE OF PC MOD OR INTERRUPT^
 50366	067163	200 00 0 00 071301 	..0253:	MOVE	[JRST	.+4]	;SET A TRAP INSTRUCTION
 50367	067164	202 00 0 00 000041 		MOVEM	41		;INTO 41
 50368	067165	001000	000400			1B8!X			;EXECUTE A UUO
 50369	067166	254 04 0 00 067167 	..0254:	HALT	.+1		;UUO DIDN'T TRAP TO 40
 50370	067167	200 00 0 00 000040 		MOVE	0,40		;GET UUO
 50371	067170	405 00 0 00 777777 		ANDI	0,-1		;MASK OUT UUO FOR MA BITS
 50372	067171	302 00 0 00 000400 		CAIE	X		;MA BITS CORRECT?
 50373	067172				..0255:	STOP1^
 50374	067172	254 04 0 00 067173 		HALT	.+1		;UUO FAILED TO STORE MA BITS
 50375	067173	254 00 0 00 067174 		JRST	.+1		;INTO RIGHT HALF OF 40^
 50376						TGET^
 50377	067174	200 00 0 00 071350 		MOVE	TNUMB		;GET LAST PC STORED AND CHECK TO SEE
 50378	067175	302 00 0 00 067161 		CAIE	%X		;IF ITS WHERE WE REALLY SHOULD BE
 50379						STOP2^^
 50380	067176	254 04 0 00 067177 		HALT	.+1		;HALT IF WE SHOULDN'T BE HERE
 50381	067177	254 00 0 00 067200 		JRST	.+1		;WILD TRANSFER CAUSED THIS HALT.^
 50382					^
 50383			001000			X=X_1
 50384
 50385
 50386						XUUOA	X^
DFKAA PDP-10 KL10 BASIC INSTRUCTION DIAGNOSTIC (1) VER 0,2	MACRO %52(537) 09:34 31-JAN-77 PAGE 76-5
DFKAA8	MAC	25-AUG-75 14:17		TEST UUO STORING CORRECTLY                                                         SEQ 1158

 50387
 50388					;CHECK THE "E" OF THE UUO STORED IS CORRECT.
 50389
 50390			001000			EFIELD==X		;"E" WE ARE TESTING FOR
 50391						TSET^
 50392			067200			%X=.			;DEFINE %X TO SAVE
 50393	067200	201 00 0 00 067200 		MOVEI	%X		;SAVE THIS PC IN CASE OF WILD TRANSFER
 50394	067201	202 00 0 00 071350 		MOVEM	TNUMB#		;BECAUSE OF PC MOD OR INTERRUPT^
 50395	067202	200 00 0 00 071302 	..0256:	MOVE	[JRST	.+4]	;SET A TRAP INSTRUCTION
 50396	067203	202 00 0 00 000041 		MOVEM	41		;INTO 41
 50397	067204	001000	001000			1B8!X			;EXECUTE A UUO
 50398	067205	254 04 0 00 067206 	..0257:	HALT	.+1		;UUO DIDN'T TRAP TO 40
 50399	067206	200 00 0 00 000040 		MOVE	0,40		;GET UUO
 50400	067207	405 00 0 00 777777 		ANDI	0,-1		;MASK OUT UUO FOR MA BITS
 50401	067210	302 00 0 00 001000 		CAIE	X		;MA BITS CORRECT?
 50402	067211				..0260:	STOP1^
 50403	067211	254 04 0 00 067212 		HALT	.+1		;UUO FAILED TO STORE MA BITS
 50404	067212	254 00 0 00 067213 		JRST	.+1		;INTO RIGHT HALF OF 40^
 50405						TGET^
 50406	067213	200 00 0 00 071350 		MOVE	TNUMB		;GET LAST PC STORED AND CHECK TO SEE
 50407	067214	302 00 0 00 067200 		CAIE	%X		;IF ITS WHERE WE REALLY SHOULD BE
 50408						STOP2^^
 50409	067215	254 04 0 00 067216 		HALT	.+1		;HALT IF WE SHOULDN'T BE HERE
 50410	067216	254 00 0 00 067217 		JRST	.+1		;WILD TRANSFER CAUSED THIS HALT.^
 50411					^
 50412			002000			X=X_1
 50413
 50414
 50415						XUUOA	X^
 50416
 50417					;CHECK THE "E" OF THE UUO STORED IS CORRECT.
 50418
 50419			002000			EFIELD==X		;"E" WE ARE TESTING FOR
 50420						TSET^
 50421			067217			%X=.			;DEFINE %X TO SAVE
 50422	067217	201 00 0 00 067217 		MOVEI	%X		;SAVE THIS PC IN CASE OF WILD TRANSFER
 50423	067220	202 00 0 00 071350 		MOVEM	TNUMB#		;BECAUSE OF PC MOD OR INTERRUPT^
 50424	067221	200 00 0 00 071303 	..0261:	MOVE	[JRST	.+4]	;SET A TRAP INSTRUCTION
 50425	067222	202 00 0 00 000041 		MOVEM	41		;INTO 41
 50426	067223	001000	002000			1B8!X			;EXECUTE A UUO
 50427	067224	254 04 0 00 067225 	..0262:	HALT	.+1		;UUO DIDN'T TRAP TO 40
 50428	067225	200 00 0 00 000040 		MOVE	0,40		;GET UUO
 50429	067226	405 00 0 00 777777 		ANDI	0,-1		;MASK OUT UUO FOR MA BITS
 50430	067227	302 00 0 00 002000 		CAIE	X		;MA BITS CORRECT?
 50431	067230				..0263:	STOP1^
 50432	067230	254 04 0 00 067231 		HALT	.+1		;UUO FAILED TO STORE MA BITS
 50433	067231	254 00 0 00 067232 		JRST	.+1		;INTO RIGHT HALF OF 40^
 50434						TGET^
 50435	067232	200 00 0 00 071350 		MOVE	TNUMB		;GET LAST PC STORED AND CHECK TO SEE
 50436	067233	302 00 0 00 067217 		CAIE	%X		;IF ITS WHERE WE REALLY SHOULD BE
 50437						STOP2^^
 50438	067234	254 04 0 00 067235 		HALT	.+1		;HALT IF WE SHOULDN'T BE HERE
 50439	067235	254 00 0 00 067236 		JRST	.+1		;WILD TRANSFER CAUSED THIS HALT.^
 50440					^
 50441			004000			X=X_1
DFKAA PDP-10 KL10 BASIC INSTRUCTION DIAGNOSTIC (1) VER 0,2	MACRO %52(537) 09:34 31-JAN-77 PAGE 76-6
DFKAA8	MAC	25-AUG-75 14:17		TEST UUO STORING CORRECTLY                                                         SEQ 1159

 50442
 50443
 50444						XUUOA	X^
 50445
 50446					;CHECK THE "E" OF THE UUO STORED IS CORRECT.
 50447
 50448			004000			EFIELD==X		;"E" WE ARE TESTING FOR
 50449						TSET^
 50450			067236			%X=.			;DEFINE %X TO SAVE
 50451	067236	201 00 0 00 067236 		MOVEI	%X		;SAVE THIS PC IN CASE OF WILD TRANSFER
 50452	067237	202 00 0 00 071350 		MOVEM	TNUMB#		;BECAUSE OF PC MOD OR INTERRUPT^
 50453	067240	200 00 0 00 071304 	..0264:	MOVE	[JRST	.+4]	;SET A TRAP INSTRUCTION
 50454	067241	202 00 0 00 000041 		MOVEM	41		;INTO 41
 50455	067242	001000	004000			1B8!X			;EXECUTE A UUO
 50456	067243	254 04 0 00 067244 	..0265:	HALT	.+1		;UUO DIDN'T TRAP TO 40
 50457	067244	200 00 0 00 000040 		MOVE	0,40		;GET UUO
 50458	067245	405 00 0 00 777777 		ANDI	0,-1		;MASK OUT UUO FOR MA BITS
 50459	067246	302 00 0 00 004000 		CAIE	X		;MA BITS CORRECT?
 50460	067247				..0266:	STOP1^
 50461	067247	254 04 0 00 067250 		HALT	.+1		;UUO FAILED TO STORE MA BITS
 50462	067250	254 00 0 00 067251 		JRST	.+1		;INTO RIGHT HALF OF 40^
 50463						TGET^
 50464	067251	200 00 0 00 071350 		MOVE	TNUMB		;GET LAST PC STORED AND CHECK TO SEE
 50465	067252	302 00 0 00 067236 		CAIE	%X		;IF ITS WHERE WE REALLY SHOULD BE
 50466						STOP2^^
 50467	067253	254 04 0 00 067254 		HALT	.+1		;HALT IF WE SHOULDN'T BE HERE
 50468	067254	254 00 0 00 067255 		JRST	.+1		;WILD TRANSFER CAUSED THIS HALT.^
 50469					^
 50470			010000			X=X_1
 50471
 50472
 50473						XUUOA	X^
 50474
 50475					;CHECK THE "E" OF THE UUO STORED IS CORRECT.
 50476
 50477			010000			EFIELD==X		;"E" WE ARE TESTING FOR
 50478						TSET^
 50479			067255			%X=.			;DEFINE %X TO SAVE
 50480	067255	201 00 0 00 067255 		MOVEI	%X		;SAVE THIS PC IN CASE OF WILD TRANSFER
 50481	067256	202 00 0 00 071350 		MOVEM	TNUMB#		;BECAUSE OF PC MOD OR INTERRUPT^
 50482	067257	200 00 0 00 071305 	..0267:	MOVE	[JRST	.+4]	;SET A TRAP INSTRUCTION
 50483	067260	202 00 0 00 000041 		MOVEM	41		;INTO 41
 50484	067261	001000	010000			1B8!X			;EXECUTE A UUO
 50485	067262	254 04 0 00 067263 	..0270:	HALT	.+1		;UUO DIDN'T TRAP TO 40
 50486	067263	200 00 0 00 000040 		MOVE	0,40		;GET UUO
 50487	067264	405 00 0 00 777777 		ANDI	0,-1		;MASK OUT UUO FOR MA BITS
 50488	067265	302 00 0 00 010000 		CAIE	X		;MA BITS CORRECT?
 50489	067266				..0271:	STOP1^
 50490	067266	254 04 0 00 067267 		HALT	.+1		;UUO FAILED TO STORE MA BITS
 50491	067267	254 00 0 00 067270 		JRST	.+1		;INTO RIGHT HALF OF 40^
 50492						TGET^
 50493	067270	200 00 0 00 071350 		MOVE	TNUMB		;GET LAST PC STORED AND CHECK TO SEE
 50494	067271	302 00 0 00 067255 		CAIE	%X		;IF ITS WHERE WE REALLY SHOULD BE
 50495						STOP2^^
 50496	067272	254 04 0 00 067273 		HALT	.+1		;HALT IF WE SHOULDN'T BE HERE
DFKAA PDP-10 KL10 BASIC INSTRUCTION DIAGNOSTIC (1) VER 0,2	MACRO %52(537) 09:34 31-JAN-77 PAGE 76-7
DFKAA8	MAC	25-AUG-75 14:17		TEST UUO STORING CORRECTLY                                                         SEQ 1160

 50497	067273	254 00 0 00 067274 		JRST	.+1		;WILD TRANSFER CAUSED THIS HALT.^
 50498					^
 50499			020000			X=X_1
 50500
 50501
 50502						XUUOA	X^
 50503
 50504					;CHECK THE "E" OF THE UUO STORED IS CORRECT.
 50505
 50506			020000			EFIELD==X		;"E" WE ARE TESTING FOR
 50507						TSET^
 50508			067274			%X=.			;DEFINE %X TO SAVE
 50509	067274	201 00 0 00 067274 		MOVEI	%X		;SAVE THIS PC IN CASE OF WILD TRANSFER
 50510	067275	202 00 0 00 071350 		MOVEM	TNUMB#		;BECAUSE OF PC MOD OR INTERRUPT^
 50511	067276	200 00 0 00 071306 	..0272:	MOVE	[JRST	.+4]	;SET A TRAP INSTRUCTION
 50512	067277	202 00 0 00 000041 		MOVEM	41		;INTO 41
 50513	067300	001000	020000			1B8!X			;EXECUTE A UUO
 50514	067301	254 04 0 00 067302 	..0273:	HALT	.+1		;UUO DIDN'T TRAP TO 40
 50515	067302	200 00 0 00 000040 		MOVE	0,40		;GET UUO
 50516	067303	405 00 0 00 777777 		ANDI	0,-1		;MASK OUT UUO FOR MA BITS
 50517	067304	302 00 0 00 020000 		CAIE	X		;MA BITS CORRECT?
 50518	067305				..0274:	STOP1^
 50519	067305	254 04 0 00 067306 		HALT	.+1		;UUO FAILED TO STORE MA BITS
 50520	067306	254 00 0 00 067307 		JRST	.+1		;INTO RIGHT HALF OF 40^
 50521						TGET^
 50522	067307	200 00 0 00 071350 		MOVE	TNUMB		;GET LAST PC STORED AND CHECK TO SEE
 50523	067310	302 00 0 00 067274 		CAIE	%X		;IF ITS WHERE WE REALLY SHOULD BE
 50524						STOP2^^
 50525	067311	254 04 0 00 067312 		HALT	.+1		;HALT IF WE SHOULDN'T BE HERE
 50526	067312	254 00 0 00 067313 		JRST	.+1		;WILD TRANSFER CAUSED THIS HALT.^
 50527					^
 50528			040000			X=X_1
 50529
 50530
 50531						XUUOA	X^
 50532
 50533					;CHECK THE "E" OF THE UUO STORED IS CORRECT.
 50534
 50535			040000			EFIELD==X		;"E" WE ARE TESTING FOR
 50536						TSET^
 50537			067313			%X=.			;DEFINE %X TO SAVE
 50538	067313	201 00 0 00 067313 		MOVEI	%X		;SAVE THIS PC IN CASE OF WILD TRANSFER
 50539	067314	202 00 0 00 071350 		MOVEM	TNUMB#		;BECAUSE OF PC MOD OR INTERRUPT^
 50540	067315	200 00 0 00 071307 	..0275:	MOVE	[JRST	.+4]	;SET A TRAP INSTRUCTION
 50541	067316	202 00 0 00 000041 		MOVEM	41		;INTO 41
 50542	067317	001000	040000			1B8!X			;EXECUTE A UUO
 50543	067320	254 04 0 00 067321 	..0276:	HALT	.+1		;UUO DIDN'T TRAP TO 40
 50544	067321	200 00 0 00 000040 		MOVE	0,40		;GET UUO
 50545	067322	405 00 0 00 777777 		ANDI	0,-1		;MASK OUT UUO FOR MA BITS
 50546	067323	302 00 0 00 040000 		CAIE	X		;MA BITS CORRECT?
 50547	067324				..0277:	STOP1^
 50548	067324	254 04 0 00 067325 		HALT	.+1		;UUO FAILED TO STORE MA BITS
 50549	067325	254 00 0 00 067326 		JRST	.+1		;INTO RIGHT HALF OF 40^
 50550						TGET^
 50551	067326	200 00 0 00 071350 		MOVE	TNUMB		;GET LAST PC STORED AND CHECK TO SEE
DFKAA PDP-10 KL10 BASIC INSTRUCTION DIAGNOSTIC (1) VER 0,2	MACRO %52(537) 09:34 31-JAN-77 PAGE 76-8
DFKAA8	MAC	25-AUG-75 14:17		TEST UUO STORING CORRECTLY                                                         SEQ 1161

 50552	067327	302 00 0 00 067313 		CAIE	%X		;IF ITS WHERE WE REALLY SHOULD BE
 50553						STOP2^^
 50554	067330	254 04 0 00 067331 		HALT	.+1		;HALT IF WE SHOULDN'T BE HERE
 50555	067331	254 00 0 00 067332 		JRST	.+1		;WILD TRANSFER CAUSED THIS HALT.^
 50556					^
 50557			100000			X=X_1
 50558
 50559
 50560						XUUOA	X^
 50561
 50562					;CHECK THE "E" OF THE UUO STORED IS CORRECT.
 50563
 50564			100000			EFIELD==X		;"E" WE ARE TESTING FOR
 50565						TSET^
 50566			067332			%X=.			;DEFINE %X TO SAVE
 50567	067332	201 00 0 00 067332 		MOVEI	%X		;SAVE THIS PC IN CASE OF WILD TRANSFER
 50568	067333	202 00 0 00 071350 		MOVEM	TNUMB#		;BECAUSE OF PC MOD OR INTERRUPT^
 50569	067334	200 00 0 00 071310 	..0300:	MOVE	[JRST	.+4]	;SET A TRAP INSTRUCTION
 50570	067335	202 00 0 00 000041 		MOVEM	41		;INTO 41
 50571	067336	001000	100000			1B8!X			;EXECUTE A UUO
 50572	067337	254 04 0 00 067340 	..0301:	HALT	.+1		;UUO DIDN'T TRAP TO 40
 50573	067340	200 00 0 00 000040 		MOVE	0,40		;GET UUO
 50574	067341	405 00 0 00 777777 		ANDI	0,-1		;MASK OUT UUO FOR MA BITS
 50575	067342	302 00 0 00 100000 		CAIE	X		;MA BITS CORRECT?
 50576	067343				..0302:	STOP1^
 50577	067343	254 04 0 00 067344 		HALT	.+1		;UUO FAILED TO STORE MA BITS
 50578	067344	254 00 0 00 067345 		JRST	.+1		;INTO RIGHT HALF OF 40^
 50579						TGET^
 50580	067345	200 00 0 00 071350 		MOVE	TNUMB		;GET LAST PC STORED AND CHECK TO SEE
 50581	067346	302 00 0 00 067332 		CAIE	%X		;IF ITS WHERE WE REALLY SHOULD BE
 50582						STOP2^^
 50583	067347	254 04 0 00 067350 		HALT	.+1		;HALT IF WE SHOULDN'T BE HERE
 50584	067350	254 00 0 00 067351 		JRST	.+1		;WILD TRANSFER CAUSED THIS HALT.^
 50585					^
 50586			200000			X=X_1
 50587
 50588
 50589						XUUOA	X^
 50590
 50591					;CHECK THE "E" OF THE UUO STORED IS CORRECT.
 50592
 50593			200000			EFIELD==X		;"E" WE ARE TESTING FOR
 50594						TSET^
 50595			067351			%X=.			;DEFINE %X TO SAVE
 50596	067351	201 00 0 00 067351 		MOVEI	%X		;SAVE THIS PC IN CASE OF WILD TRANSFER
 50597	067352	202 00 0 00 071350 		MOVEM	TNUMB#		;BECAUSE OF PC MOD OR INTERRUPT^
 50598	067353	200 00 0 00 071311 	..0303:	MOVE	[JRST	.+4]	;SET A TRAP INSTRUCTION
 50599	067354	202 00 0 00 000041 		MOVEM	41		;INTO 41
 50600	067355	001000	200000			1B8!X			;EXECUTE A UUO
 50601	067356	254 04 0 00 067357 	..0304:	HALT	.+1		;UUO DIDN'T TRAP TO 40
 50602	067357	200 00 0 00 000040 		MOVE	0,40		;GET UUO
 50603	067360	405 00 0 00 777777 		ANDI	0,-1		;MASK OUT UUO FOR MA BITS
 50604	067361	302 00 0 00 200000 		CAIE	X		;MA BITS CORRECT?
 50605	067362				..0305:	STOP1^
 50606	067362	254 04 0 00 067363 		HALT	.+1		;UUO FAILED TO STORE MA BITS
DFKAA PDP-10 KL10 BASIC INSTRUCTION DIAGNOSTIC (1) VER 0,2	MACRO %52(537) 09:34 31-JAN-77 PAGE 76-9
DFKAA8	MAC	25-AUG-75 14:17		TEST UUO STORING CORRECTLY                                                         SEQ 1162

 50607	067363	254 00 0 00 067364 		JRST	.+1		;INTO RIGHT HALF OF 40^
 50608						TGET^
 50609	067364	200 00 0 00 071350 		MOVE	TNUMB		;GET LAST PC STORED AND CHECK TO SEE
 50610	067365	302 00 0 00 067351 		CAIE	%X		;IF ITS WHERE WE REALLY SHOULD BE
 50611						STOP2^^
 50612	067366	254 04 0 00 067367 		HALT	.+1		;HALT IF WE SHOULDN'T BE HERE
 50613	067367	254 00 0 00 067370 		JRST	.+1		;WILD TRANSFER CAUSED THIS HALT.^
 50614					^
 50615			400000			X=X_1
 50616
 50617
 50618						XUUOA	X^
 50619
 50620					;CHECK THE "E" OF THE UUO STORED IS CORRECT.
 50621
 50622			400000			EFIELD==X		;"E" WE ARE TESTING FOR
 50623						TSET^
 50624			067370			%X=.			;DEFINE %X TO SAVE
 50625	067370	201 00 0 00 067370 		MOVEI	%X		;SAVE THIS PC IN CASE OF WILD TRANSFER
 50626	067371	202 00 0 00 071350 		MOVEM	TNUMB#		;BECAUSE OF PC MOD OR INTERRUPT^
 50627	067372	200 00 0 00 071312 	..0306:	MOVE	[JRST	.+4]	;SET A TRAP INSTRUCTION
 50628	067373	202 00 0 00 000041 		MOVEM	41		;INTO 41
 50629	067374	001000	400000			1B8!X			;EXECUTE A UUO
 50630	067375	254 04 0 00 067376 	..0307:	HALT	.+1		;UUO DIDN'T TRAP TO 40
 50631	067376	200 00 0 00 000040 		MOVE	0,40		;GET UUO
 50632	067377	405 00 0 00 777777 		ANDI	0,-1		;MASK OUT UUO FOR MA BITS
 50633	067400	302 00 0 00 400000 		CAIE	X		;MA BITS CORRECT?
 50634	067401				..0310:	STOP1^
 50635	067401	254 04 0 00 067402 		HALT	.+1		;UUO FAILED TO STORE MA BITS
 50636	067402	254 00 0 00 067403 		JRST	.+1		;INTO RIGHT HALF OF 40^
 50637						TGET^
 50638	067403	200 00 0 00 071350 		MOVE	TNUMB		;GET LAST PC STORED AND CHECK TO SEE
 50639	067404	302 00 0 00 067370 		CAIE	%X		;IF ITS WHERE WE REALLY SHOULD BE
 50640						STOP2^^
 50641	067405	254 04 0 00 067406 		HALT	.+1		;HALT IF WE SHOULDN'T BE HERE
 50642	067406	254 00 0 00 067407 		JRST	.+1		;WILD TRANSFER CAUSED THIS HALT.^
 50643					^
 50644		000001	000000			X=X_1
 50645
 50646			777777			X=777777
 50647						XUUOA	X^
 50648
 50649					;CHECK THE "E" OF THE UUO STORED IS CORRECT.
 50650
 50651			777777			EFIELD==X		;"E" WE ARE TESTING FOR
 50652						TSET^
 50653			067407			%X=.			;DEFINE %X TO SAVE
 50654	067407	201 00 0 00 067407 		MOVEI	%X		;SAVE THIS PC IN CASE OF WILD TRANSFER
 50655	067410	202 00 0 00 071350 		MOVEM	TNUMB#		;BECAUSE OF PC MOD OR INTERRUPT^
 50656	067411	200 00 0 00 071313 	..0311:	MOVE	[JRST	.+4]	;SET A TRAP INSTRUCTION
 50657	067412	202 00 0 00 000041 		MOVEM	41		;INTO 41
 50658	067413	001000	777777			1B8!X			;EXECUTE A UUO
 50659	067414	254 04 0 00 067415 	..0312:	HALT	.+1		;UUO DIDN'T TRAP TO 40
 50660	067415	200 00 0 00 000040 		MOVE	0,40		;GET UUO
 50661	067416	405 00 0 00 777777 		ANDI	0,-1		;MASK OUT UUO FOR MA BITS
DFKAA PDP-10 KL10 BASIC INSTRUCTION DIAGNOSTIC (1) VER 0,2	MACRO %52(537) 09:34 31-JAN-77 PAGE 76-10
DFKAA8	MAC	25-AUG-75 14:17		TEST UUO STORING CORRECTLY                                                         SEQ 1163

 50662	067417	302 00 0 00 777777 		CAIE	X		;MA BITS CORRECT?
 50663	067420				..0313:	STOP1^
 50664	067420	254 04 0 00 067421 		HALT	.+1		;UUO FAILED TO STORE MA BITS
 50665	067421	254 00 0 00 067422 		JRST	.+1		;INTO RIGHT HALF OF 40^
 50666						TGET^
 50667	067422	200 00 0 00 071350 		MOVE	TNUMB		;GET LAST PC STORED AND CHECK TO SEE
 50668	067423	302 00 0 00 067407 		CAIE	%X		;IF ITS WHERE WE REALLY SHOULD BE
 50669						STOP2^^
 50670	067424	254 04 0 00 067425 		HALT	.+1		;HALT IF WE SHOULDN'T BE HERE
 50671	067425	254 00 0 00 067426 		JRST	.+1		;WILD TRANSFER CAUSED THIS HALT.^
 50672					^
 50673
 50674			000000			X=0
 50675						XUUOA	X^
 50676
 50677					;CHECK THE "E" OF THE UUO STORED IS CORRECT.
 50678
 50679			000000			EFIELD==X		;"E" WE ARE TESTING FOR
 50680						TSET^
 50681			067426			%X=.			;DEFINE %X TO SAVE
 50682	067426	201 00 0 00 067426 		MOVEI	%X		;SAVE THIS PC IN CASE OF WILD TRANSFER
 50683	067427	202 00 0 00 071350 		MOVEM	TNUMB#		;BECAUSE OF PC MOD OR INTERRUPT^
 50684	067430	200 00 0 00 071314 	..0314:	MOVE	[JRST	.+4]	;SET A TRAP INSTRUCTION
 50685	067431	202 00 0 00 000041 		MOVEM	41		;INTO 41
 50686	067432	001000	000000			1B8!X			;EXECUTE A UUO
 50687	067433	254 04 0 00 067434 	..0315:	HALT	.+1		;UUO DIDN'T TRAP TO 40
 50688	067434	200 00 0 00 000040 		MOVE	0,40		;GET UUO
 50689	067435	405 00 0 00 777777 		ANDI	0,-1		;MASK OUT UUO FOR MA BITS
 50690	067436	302 00 0 00 000000 		CAIE	X		;MA BITS CORRECT?
 50691	067437				..0316:	STOP1^
 50692	067437	254 04 0 00 067440 		HALT	.+1		;UUO FAILED TO STORE MA BITS
 50693	067440	254 00 0 00 067441 		JRST	.+1		;INTO RIGHT HALF OF 40^
 50694						TGET^
 50695	067441	200 00 0 00 071350 		MOVE	TNUMB		;GET LAST PC STORED AND CHECK TO SEE
 50696	067442	302 00 0 00 067426 		CAIE	%X		;IF ITS WHERE WE REALLY SHOULD BE
 50697						STOP2^^
 50698	067443	254 04 0 00 067444 		HALT	.+1		;HALT IF WE SHOULDN'T BE HERE
 50699	067444	254 00 0 00 067445 		JRST	.+1		;WILD TRANSFER CAUSED THIS HALT.^
 50700					^
 50701
 50702			252525			X=252525
 50703						XUUOA	X^
 50704
 50705					;CHECK THE "E" OF THE UUO STORED IS CORRECT.
 50706
 50707			252525			EFIELD==X		;"E" WE ARE TESTING FOR
 50708						TSET^
 50709			067445			%X=.			;DEFINE %X TO SAVE
 50710	067445	201 00 0 00 067445 		MOVEI	%X		;SAVE THIS PC IN CASE OF WILD TRANSFER
 50711	067446	202 00 0 00 071350 		MOVEM	TNUMB#		;BECAUSE OF PC MOD OR INTERRUPT^
 50712	067447	200 00 0 00 071315 	..0317:	MOVE	[JRST	.+4]	;SET A TRAP INSTRUCTION
 50713	067450	202 00 0 00 000041 		MOVEM	41		;INTO 41
 50714	067451	001000	252525			1B8!X			;EXECUTE A UUO
 50715	067452	254 04 0 00 067453 	..0320:	HALT	.+1		;UUO DIDN'T TRAP TO 40
 50716	067453	200 00 0 00 000040 		MOVE	0,40		;GET UUO
DFKAA PDP-10 KL10 BASIC INSTRUCTION DIAGNOSTIC (1) VER 0,2	MACRO %52(537) 09:34 31-JAN-77 PAGE 76-11
DFKAA8	MAC	25-AUG-75 14:17		TEST UUO STORING CORRECTLY                                                         SEQ 1164

 50717	067454	405 00 0 00 777777 		ANDI	0,-1		;MASK OUT UUO FOR MA BITS
 50718	067455	302 00 0 00 252525 		CAIE	X		;MA BITS CORRECT?
 50719	067456				..0321:	STOP1^
 50720	067456	254 04 0 00 067457 		HALT	.+1		;UUO FAILED TO STORE MA BITS
 50721	067457	254 00 0 00 067460 		JRST	.+1		;INTO RIGHT HALF OF 40^
 50722						TGET^
 50723	067460	200 00 0 00 071350 		MOVE	TNUMB		;GET LAST PC STORED AND CHECK TO SEE
 50724	067461	302 00 0 00 067445 		CAIE	%X		;IF ITS WHERE WE REALLY SHOULD BE
 50725						STOP2^^
 50726	067462	254 04 0 00 067463 		HALT	.+1		;HALT IF WE SHOULDN'T BE HERE
 50727	067463	254 00 0 00 067464 		JRST	.+1		;WILD TRANSFER CAUSED THIS HALT.^
 50728					^
 50729
 50730			525252			X=525252
 50731						XUUOA	X^
 50732
 50733					;CHECK THE "E" OF THE UUO STORED IS CORRECT.
 50734
 50735			525252			EFIELD==X		;"E" WE ARE TESTING FOR
 50736						TSET^
 50737			067464			%X=.			;DEFINE %X TO SAVE
 50738	067464	201 00 0 00 067464 		MOVEI	%X		;SAVE THIS PC IN CASE OF WILD TRANSFER
 50739	067465	202 00 0 00 071350 		MOVEM	TNUMB#		;BECAUSE OF PC MOD OR INTERRUPT^
 50740	067466	200 00 0 00 071316 	..0322:	MOVE	[JRST	.+4]	;SET A TRAP INSTRUCTION
 50741	067467	202 00 0 00 000041 		MOVEM	41		;INTO 41
 50742	067470	001000	525252			1B8!X			;EXECUTE A UUO
 50743	067471	254 04 0 00 067472 	..0323:	HALT	.+1		;UUO DIDN'T TRAP TO 40
 50744	067472	200 00 0 00 000040 		MOVE	0,40		;GET UUO
 50745	067473	405 00 0 00 777777 		ANDI	0,-1		;MASK OUT UUO FOR MA BITS
 50746	067474	302 00 0 00 525252 		CAIE	X		;MA BITS CORRECT?
 50747	067475				..0324:	STOP1^
 50748	067475	254 04 0 00 067476 		HALT	.+1		;UUO FAILED TO STORE MA BITS
 50749	067476	254 00 0 00 067477 		JRST	.+1		;INTO RIGHT HALF OF 40^
 50750						TGET^
 50751	067477	200 00 0 00 071350 		MOVE	TNUMB		;GET LAST PC STORED AND CHECK TO SEE
 50752	067500	302 00 0 00 067464 		CAIE	%X		;IF ITS WHERE WE REALLY SHOULD BE
 50753						STOP2^^
 50754	067501	254 04 0 00 067502 		HALT	.+1		;HALT IF WE SHOULDN'T BE HERE
 50755	067502	254 00 0 00 067503 		JRST	.+1		;WILD TRANSFER CAUSED THIS HALT.^
 50756					^
 50757			000000			X=0
 50758	067503	255 00 0 00 000000 		JFCL
DFKAA PDP-10 KL10 BASIC INSTRUCTION DIAGNOSTIC (1) VER 0,2	MACRO %52(537) 09:34 31-JAN-77 PAGE 77
DFKAA8	MAC	25-AUG-75 14:17		TEST CLEARING OF INDEX AND INDIRECT BITS ON UUO                                    SEQ 1165

 50759					SUBTTL	TEST CLEARING OF INDEX AND INDIRECT BITS ON UUO
 50760
 50761					;TEST THAT THE INDEX BITS ARE CLEARED WHEN EXECUTING A UUO
 50762
 50763	067504				UUOIND:	CLRBTH^
 50764	067504	700 04 0 00 267760 		CLRAPR
 50765	067505	700 14 0 00 031577 		CLRPI^
 50766	067506	400 17 0 00 000000 		SETZ	17,		;CLEAR INDEX FIELD
 50767	067507	200 00 0 00 071317 		MOVE	[JRST .+4]	;SET UP UUO TRAP INSTR.
 50768	067510	202 00 0 00 000041 		MOVEM	41		;INTO TRAP LOCATION
 50769	067511	001017	000000			1B8!(17)		;EXECUTE A UUO WITH INDEXING
 50770	067512	254 04 0 00 067513 		HALT	.+1		;UUO DID NOT TRAP
 50771	067513	200 00 0 00 000040 		MOVE	0,40		;GET UUO
 50772	067514	603 00 0 00 000017 		TLNE	0,17		;INDEX FIELD CLEAR?
 50773						STOP^
 50774	067515	254 04 0 00 067516 		HALT	.+1		;INSTRUCTION FAILED REPLACE
 50775	067516	254 00 0 00 067517 		JRST	.+1		;WITH JRST BACK^
 50776
 50777					;TEST THAT THE INDIRECT BIT IS CLEARED WHEN EXECUTING A UUO
 50778
 50779	067517				UUOINX:	CLRBTH^
 50780	067517	700 04 0 00 267760 		CLRAPR
 50781	067520	700 14 0 00 031577 		CLRPI^
 50782	067521	403 17 0 00 000000 		SETZB	17,0		;CLEAR INDEX FIELD
 50783	067522	200 00 0 00 071320 		MOVE	[JRST .+4]	;SET UUO TRAP INSTR.
 50784	067523	202 00 0 00 000041 		MOVEM	41		;INTO TRAP LOCATION
 50785	067524	001020	000017			1B8!@17			;EXECUTE A UUO WITH INDIRECTING
 50786	067525	254 04 0 00 067526 		HALT	.+1		;UUO DID NOT TRAP
 50787	067526	200 00 0 00 000040 		MOVE	0,40		;GET UUO
 50788	067527	603 00 0 00 000020 		TLNE	0,20		;INDIRECT BIT CLEAR?
 50789						STOP^
 50790	067530	254 04 0 00 067531 		HALT	.+1		;INSTRUCTION FAILED REPLACE
 50791	067531	254 00 0 00 067532 		JRST	.+1		;WITH JRST BACK^
 50792
 50793					;TEST THAT BOTH INDEX AND INDIRECT BITS CLEAR WHEN EXECUTING A UUO
 50794
 50795	067532				UUOBTH:	CLRBTH^
 50796	067532	700 04 0 00 267760 		CLRAPR
 50797	067533	700 14 0 00 031577 		CLRPI^
 50798	067534	403 17 0 00 000000 		SETZB	17,0		;CLEAR INDEX FIELD
 50799	067535	200 00 0 00 071321 		MOVE	[JRST .+4]	;SET UP TRAP INSTR.
 50800	067536	202 00 0 00 000041 		MOVEM	41		;INTO TRAP LOCATION
 50801	067537	001037	000017			1B8!@17(17)		;EXECUTE WITH INDIRECT AND INDEX
 50802	067540	254 04 0 00 067541 		HALT	.+1		;UUO DID NOT TRAP
 50803	067541	200 00 0 00 000040 		MOVE	0,40		;GET UUO
 50804	067542	603 00 0 00 000037 		TLNE	0,37		;INDIRECT OR INDEX BITS STILL SET?
 50805						STOP^
 50806	067543	254 04 0 00 067544 		HALT	.+1		;INSTRUCTION FAILED REPLACE
 50807	067544	254 00 0 00 067545 		JRST	.+1		;WITH JRST BACK^
 50808
DFKAA PDP-10 KL10 BASIC INSTRUCTION DIAGNOSTIC (1) VER 0,2	MACRO %52(537) 09:34 31-JAN-77 PAGE 78
DFKAA8	MAC	25-AUG-75 14:17		TEST UUOS OUT OF FAST MEMORY                                                       SEQ 1166

 50809					SUBTTL	TEST UUOS OUT OF FAST MEMORY
 50810
 50811						FMUUO	0^
 50812
 50813					;EXECUTE UUO'S OUT OF FAST MEMORY LOCATIONS 0,1,2,4,5,10,12, AND 17
 50814					;CHECK FIRST THAT THE UUO TRAPPED AND SECONDLY THAT IT STORED THE
 50815					;CORRECT PC.
 50816
 50817			000000			AC=0			;TESTED AC
 50818
 50819						TSET^
 50820			067545			%X=.			;DEFINE %X TO SAVE
 50821	067545	201 00 0 00 067545 		MOVEI	%X		;SAVE THIS PC IN CASE OF WILD TRANSFER
 50822	067546	202 00 0 00 071350 		MOVEM	TNUMB#		;BECAUSE OF PC MOD OR INTERRUPT^
 50823	067547	200 00 0 00 070317 		MOVE	0,[XWD 1000,0]	;SET UP UUO INTO AC 0 TO EXECUTE
 50824	067550	200 13 0 00 071322 		MOVE	13,[JSP 11,..0325] ;SET UP UUO TRAP INSTRUCTION
 50825	067551	202 13 0 00 000041 		MOVEM	13,41		;INTO LOCATION 41
 50826	067552	200 01 0 00 071323 		MOVE	0+1,[JRST ..0326] ;SET UP TRAP INSTRUCTION INCASE UUO DOES NOT TRAP
 50827	067553	254 00 0 00 000000 		JRST	0		;GO EXECUTE  UUO
 50828	067554	254 04 0 00 067555 	..0326:	HALT	.+1		;UUO DID NOT TRAP FROM FAST MEMORY
 50829	067555	254 00 0 00 067556 		JRST	.+1		;LOOP TO %FMUUO IF ERROR
 50830	067556	405 11 0 00 777777 	..0325:	ANDI	11,-1		;MASK FLAGS
 50831	067557	302 11 0 00 000001 		CAIE	11,0+1		;PC STORED SHOULD = 0 +1
 50832						STOP^
 50833	067560	254 04 0 00 067561 		HALT	.+1		;INSTRUCTION FAILED REPLACE
 50834	067561	254 00 0 00 067562 		JRST	.+1		;WITH JRST BACK^
 50835						TGET^
 50836	067562	200 00 0 00 071350 		MOVE	TNUMB		;GET LAST PC STORED AND CHECK TO SEE
 50837	067563	302 00 0 00 067545 		CAIE	%X		;IF ITS WHERE WE REALLY SHOULD BE
 50838						STOP2^^
 50839	067564	254 04 0 00 067565 		HALT	.+1		;HALT IF WE SHOULDN'T BE HERE
 50840	067565	254 00 0 00 067566 		JRST	.+1		;WILD TRANSFER CAUSED THIS HALT.^
 50841					^
 50842
 50843						FMUUO	1^
 50844
 50845					;EXECUTE UUO'S OUT OF FAST MEMORY LOCATIONS 0,1,2,4,5,10,12, AND 17
 50846					;CHECK FIRST THAT THE UUO TRAPPED AND SECONDLY THAT IT STORED THE
 50847					;CORRECT PC.
 50848
 50849			000001			AC=1			;TESTED AC
 50850
 50851						TSET^
 50852			067566			%X=.			;DEFINE %X TO SAVE
 50853	067566	201 00 0 00 067566 		MOVEI	%X		;SAVE THIS PC IN CASE OF WILD TRANSFER
 50854	067567	202 00 0 00 071350 		MOVEM	TNUMB#		;BECAUSE OF PC MOD OR INTERRUPT^
 50855	067570	200 01 0 00 070317 		MOVE	1,[XWD 1000,0]	;SET UP UUO INTO AC 1 TO EXECUTE
 50856	067571	200 13 0 00 071324 		MOVE	13,[JSP 11,..0327] ;SET UP UUO TRAP INSTRUCTION
 50857	067572	202 13 0 00 000041 		MOVEM	13,41		;INTO LOCATION 41
 50858	067573	200 02 0 00 071325 		MOVE	1+1,[JRST ..0330] ;SET UP TRAP INSTRUCTION INCASE UUO DOES NOT TRAP
 50859	067574	254 00 0 00 000001 		JRST	1		;GO EXECUTE  UUO
 50860	067575	254 04 0 00 067576 	..0330:	HALT	.+1		;UUO DID NOT TRAP FROM FAST MEMORY
 50861	067576	254 00 0 00 067577 		JRST	.+1		;LOOP TO %FMUUO IF ERROR
 50862	067577	405 11 0 00 777777 	..0327:	ANDI	11,-1		;MASK FLAGS
 50863	067600	302 11 0 00 000002 		CAIE	11,1+1		;PC STORED SHOULD = 1 +1
DFKAA PDP-10 KL10 BASIC INSTRUCTION DIAGNOSTIC (1) VER 0,2	MACRO %52(537) 09:34 31-JAN-77 PAGE 78-1
DFKAA8	MAC	25-AUG-75 14:17		TEST UUOS OUT OF FAST MEMORY                                                       SEQ 1167

 50864						STOP^
 50865	067601	254 04 0 00 067602 		HALT	.+1		;INSTRUCTION FAILED REPLACE
 50866	067602	254 00 0 00 067603 		JRST	.+1		;WITH JRST BACK^
 50867						TGET^
 50868	067603	200 00 0 00 071350 		MOVE	TNUMB		;GET LAST PC STORED AND CHECK TO SEE
 50869	067604	302 00 0 00 067566 		CAIE	%X		;IF ITS WHERE WE REALLY SHOULD BE
 50870						STOP2^^
 50871	067605	254 04 0 00 067606 		HALT	.+1		;HALT IF WE SHOULDN'T BE HERE
 50872	067606	254 00 0 00 067607 		JRST	.+1		;WILD TRANSFER CAUSED THIS HALT.^
 50873					^
 50874
 50875						FMUUO	2^
 50876
 50877					;EXECUTE UUO'S OUT OF FAST MEMORY LOCATIONS 0,1,2,4,5,10,12, AND 17
 50878					;CHECK FIRST THAT THE UUO TRAPPED AND SECONDLY THAT IT STORED THE
 50879					;CORRECT PC.
 50880
 50881			000002			AC=2			;TESTED AC
 50882
 50883						TSET^
 50884			067607			%X=.			;DEFINE %X TO SAVE
 50885	067607	201 00 0 00 067607 		MOVEI	%X		;SAVE THIS PC IN CASE OF WILD TRANSFER
 50886	067610	202 00 0 00 071350 		MOVEM	TNUMB#		;BECAUSE OF PC MOD OR INTERRUPT^
 50887	067611	200 02 0 00 070317 		MOVE	2,[XWD 1000,0]	;SET UP UUO INTO AC 2 TO EXECUTE
 50888	067612	200 13 0 00 071326 		MOVE	13,[JSP 11,..0331] ;SET UP UUO TRAP INSTRUCTION
 50889	067613	202 13 0 00 000041 		MOVEM	13,41		;INTO LOCATION 41
 50890	067614	200 03 0 00 071327 		MOVE	2+1,[JRST ..0332] ;SET UP TRAP INSTRUCTION INCASE UUO DOES NOT TRAP
 50891	067615	254 00 0 00 000002 		JRST	2		;GO EXECUTE  UUO
 50892	067616	254 04 0 00 067617 	..0332:	HALT	.+1		;UUO DID NOT TRAP FROM FAST MEMORY
 50893	067617	254 00 0 00 067620 		JRST	.+1		;LOOP TO %FMUUO IF ERROR
 50894	067620	405 11 0 00 777777 	..0331:	ANDI	11,-1		;MASK FLAGS
 50895	067621	302 11 0 00 000003 		CAIE	11,2+1		;PC STORED SHOULD = 2 +1
 50896						STOP^
 50897	067622	254 04 0 00 067623 		HALT	.+1		;INSTRUCTION FAILED REPLACE
 50898	067623	254 00 0 00 067624 		JRST	.+1		;WITH JRST BACK^
 50899						TGET^
 50900	067624	200 00 0 00 071350 		MOVE	TNUMB		;GET LAST PC STORED AND CHECK TO SEE
 50901	067625	302 00 0 00 067607 		CAIE	%X		;IF ITS WHERE WE REALLY SHOULD BE
 50902						STOP2^^
 50903	067626	254 04 0 00 067627 		HALT	.+1		;HALT IF WE SHOULDN'T BE HERE
 50904	067627	254 00 0 00 067630 		JRST	.+1		;WILD TRANSFER CAUSED THIS HALT.^
 50905					^
 50906
 50907						FMUUO	4^
 50908
 50909					;EXECUTE UUO'S OUT OF FAST MEMORY LOCATIONS 0,1,2,4,5,10,12, AND 17
 50910					;CHECK FIRST THAT THE UUO TRAPPED AND SECONDLY THAT IT STORED THE
 50911					;CORRECT PC.
 50912
 50913			000004			AC=4			;TESTED AC
 50914
 50915						TSET^
 50916			067630			%X=.			;DEFINE %X TO SAVE
 50917	067630	201 00 0 00 067630 		MOVEI	%X		;SAVE THIS PC IN CASE OF WILD TRANSFER
 50918	067631	202 00 0 00 071350 		MOVEM	TNUMB#		;BECAUSE OF PC MOD OR INTERRUPT^
DFKAA PDP-10 KL10 BASIC INSTRUCTION DIAGNOSTIC (1) VER 0,2	MACRO %52(537) 09:34 31-JAN-77 PAGE 78-2
DFKAA8	MAC	25-AUG-75 14:17		TEST UUOS OUT OF FAST MEMORY                                                       SEQ 1168

 50919	067632	200 04 0 00 070317 		MOVE	4,[XWD 1000,0]	;SET UP UUO INTO AC 4 TO EXECUTE
 50920	067633	200 13 0 00 071330 		MOVE	13,[JSP 11,..0333] ;SET UP UUO TRAP INSTRUCTION
 50921	067634	202 13 0 00 000041 		MOVEM	13,41		;INTO LOCATION 41
 50922	067635	200 05 0 00 071331 		MOVE	4+1,[JRST ..0334] ;SET UP TRAP INSTRUCTION INCASE UUO DOES NOT TRAP
 50923	067636	254 00 0 00 000004 		JRST	4		;GO EXECUTE  UUO
 50924	067637	254 04 0 00 067640 	..0334:	HALT	.+1		;UUO DID NOT TRAP FROM FAST MEMORY
 50925	067640	254 00 0 00 067641 		JRST	.+1		;LOOP TO %FMUUO IF ERROR
 50926	067641	405 11 0 00 777777 	..0333:	ANDI	11,-1		;MASK FLAGS
 50927	067642	302 11 0 00 000005 		CAIE	11,4+1		;PC STORED SHOULD = 4 +1
 50928						STOP^
 50929	067643	254 04 0 00 067644 		HALT	.+1		;INSTRUCTION FAILED REPLACE
 50930	067644	254 00 0 00 067645 		JRST	.+1		;WITH JRST BACK^
 50931						TGET^
 50932	067645	200 00 0 00 071350 		MOVE	TNUMB		;GET LAST PC STORED AND CHECK TO SEE
 50933	067646	302 00 0 00 067630 		CAIE	%X		;IF ITS WHERE WE REALLY SHOULD BE
 50934						STOP2^^
 50935	067647	254 04 0 00 067650 		HALT	.+1		;HALT IF WE SHOULDN'T BE HERE
 50936	067650	254 00 0 00 067651 		JRST	.+1		;WILD TRANSFER CAUSED THIS HALT.^
 50937					^
 50938
 50939						FMUUO	5^
 50940
 50941					;EXECUTE UUO'S OUT OF FAST MEMORY LOCATIONS 0,1,2,4,5,10,12, AND 17
 50942					;CHECK FIRST THAT THE UUO TRAPPED AND SECONDLY THAT IT STORED THE
 50943					;CORRECT PC.
 50944
 50945			000005			AC=5			;TESTED AC
 50946
 50947						TSET^
 50948			067651			%X=.			;DEFINE %X TO SAVE
 50949	067651	201 00 0 00 067651 		MOVEI	%X		;SAVE THIS PC IN CASE OF WILD TRANSFER
 50950	067652	202 00 0 00 071350 		MOVEM	TNUMB#		;BECAUSE OF PC MOD OR INTERRUPT^
 50951	067653	200 05 0 00 070317 		MOVE	5,[XWD 1000,0]	;SET UP UUO INTO AC 5 TO EXECUTE
 50952	067654	200 13 0 00 071332 		MOVE	13,[JSP 11,..0335] ;SET UP UUO TRAP INSTRUCTION
 50953	067655	202 13 0 00 000041 		MOVEM	13,41		;INTO LOCATION 41
 50954	067656	200 06 0 00 071333 		MOVE	5+1,[JRST ..0336] ;SET UP TRAP INSTRUCTION INCASE UUO DOES NOT TRAP
 50955	067657	254 00 0 00 000005 		JRST	5		;GO EXECUTE  UUO
 50956	067660	254 04 0 00 067661 	..0336:	HALT	.+1		;UUO DID NOT TRAP FROM FAST MEMORY
 50957	067661	254 00 0 00 067662 		JRST	.+1		;LOOP TO %FMUUO IF ERROR
 50958	067662	405 11 0 00 777777 	..0335:	ANDI	11,-1		;MASK FLAGS
 50959	067663	302 11 0 00 000006 		CAIE	11,5+1		;PC STORED SHOULD = 5 +1
 50960						STOP^
 50961	067664	254 04 0 00 067665 		HALT	.+1		;INSTRUCTION FAILED REPLACE
 50962	067665	254 00 0 00 067666 		JRST	.+1		;WITH JRST BACK^
 50963						TGET^
 50964	067666	200 00 0 00 071350 		MOVE	TNUMB		;GET LAST PC STORED AND CHECK TO SEE
 50965	067667	302 00 0 00 067651 		CAIE	%X		;IF ITS WHERE WE REALLY SHOULD BE
 50966						STOP2^^
 50967	067670	254 04 0 00 067671 		HALT	.+1		;HALT IF WE SHOULDN'T BE HERE
 50968	067671	254 00 0 00 067672 		JRST	.+1		;WILD TRANSFER CAUSED THIS HALT.^
 50969					^
 50970
 50971						FMUUO	10^
 50972
 50973					;EXECUTE UUO'S OUT OF FAST MEMORY LOCATIONS 0,1,2,4,5,10,12, AND 17
DFKAA PDP-10 KL10 BASIC INSTRUCTION DIAGNOSTIC (1) VER 0,2	MACRO %52(537) 09:34 31-JAN-77 PAGE 78-3
DFKAA8	MAC	25-AUG-75 14:17		TEST UUOS OUT OF FAST MEMORY                                                       SEQ 1169

 50974					;CHECK FIRST THAT THE UUO TRAPPED AND SECONDLY THAT IT STORED THE
 50975					;CORRECT PC.
 50976
 50977			000010			AC=10			;TESTED AC
 50978
 50979						TSET^
 50980			067672			%X=.			;DEFINE %X TO SAVE
 50981	067672	201 00 0 00 067672 		MOVEI	%X		;SAVE THIS PC IN CASE OF WILD TRANSFER
 50982	067673	202 00 0 00 071350 		MOVEM	TNUMB#		;BECAUSE OF PC MOD OR INTERRUPT^
 50983	067674	200 10 0 00 070317 		MOVE	10,[XWD 1000,0]	;SET UP UUO INTO AC 10 TO EXECUTE
 50984	067675	200 13 0 00 071334 		MOVE	13,[JSP 11,..0337] ;SET UP UUO TRAP INSTRUCTION
 50985	067676	202 13 0 00 000041 		MOVEM	13,41		;INTO LOCATION 41
 50986	067677	200 11 0 00 071335 		MOVE	10+1,[JRST ..0340] ;SET UP TRAP INSTRUCTION INCASE UUO DOES NOT TRAP
 50987	067700	254 00 0 00 000010 		JRST	10		;GO EXECUTE  UUO
 50988	067701	254 04 0 00 067702 	..0340:	HALT	.+1		;UUO DID NOT TRAP FROM FAST MEMORY
 50989	067702	254 00 0 00 067703 		JRST	.+1		;LOOP TO %FMUUO IF ERROR
 50990	067703	405 11 0 00 777777 	..0337:	ANDI	11,-1		;MASK FLAGS
 50991	067704	302 11 0 00 000011 		CAIE	11,10+1		;PC STORED SHOULD = 10 +1
 50992						STOP^
 50993	067705	254 04 0 00 067706 		HALT	.+1		;INSTRUCTION FAILED REPLACE
 50994	067706	254 00 0 00 067707 		JRST	.+1		;WITH JRST BACK^
 50995						TGET^
 50996	067707	200 00 0 00 071350 		MOVE	TNUMB		;GET LAST PC STORED AND CHECK TO SEE
 50997	067710	302 00 0 00 067672 		CAIE	%X		;IF ITS WHERE WE REALLY SHOULD BE
 50998						STOP2^^
 50999	067711	254 04 0 00 067712 		HALT	.+1		;HALT IF WE SHOULDN'T BE HERE
 51000	067712	254 00 0 00 067713 		JRST	.+1		;WILD TRANSFER CAUSED THIS HALT.^
 51001					^
 51002
 51003						FMUUO	12^
 51004
 51005					;EXECUTE UUO'S OUT OF FAST MEMORY LOCATIONS 0,1,2,4,5,10,12, AND 17
 51006					;CHECK FIRST THAT THE UUO TRAPPED AND SECONDLY THAT IT STORED THE
 51007					;CORRECT PC.
 51008
 51009			000012			AC=12			;TESTED AC
 51010
 51011						TSET^
 51012			067713			%X=.			;DEFINE %X TO SAVE
 51013	067713	201 00 0 00 067713 		MOVEI	%X		;SAVE THIS PC IN CASE OF WILD TRANSFER
 51014	067714	202 00 0 00 071350 		MOVEM	TNUMB#		;BECAUSE OF PC MOD OR INTERRUPT^
 51015	067715	200 12 0 00 070317 		MOVE	12,[XWD 1000,0]	;SET UP UUO INTO AC 12 TO EXECUTE
 51016	067716	200 13 0 00 071336 		MOVE	13,[JSP 11,..0341] ;SET UP UUO TRAP INSTRUCTION
 51017	067717	202 13 0 00 000041 		MOVEM	13,41		;INTO LOCATION 41
 51018	067720	200 13 0 00 071337 		MOVE	12+1,[JRST ..0342] ;SET UP TRAP INSTRUCTION INCASE UUO DOES NOT TRAP
 51019	067721	254 00 0 00 000012 		JRST	12		;GO EXECUTE  UUO
 51020	067722	254 04 0 00 067723 	..0342:	HALT	.+1		;UUO DID NOT TRAP FROM FAST MEMORY
 51021	067723	254 00 0 00 067724 		JRST	.+1		;LOOP TO %FMUUO IF ERROR
 51022	067724	405 11 0 00 777777 	..0341:	ANDI	11,-1		;MASK FLAGS
 51023	067725	302 11 0 00 000013 		CAIE	11,12+1		;PC STORED SHOULD = 12 +1
 51024						STOP^
 51025	067726	254 04 0 00 067727 		HALT	.+1		;INSTRUCTION FAILED REPLACE
 51026	067727	254 00 0 00 067730 		JRST	.+1		;WITH JRST BACK^
 51027						TGET^
 51028	067730	200 00 0 00 071350 		MOVE	TNUMB		;GET LAST PC STORED AND CHECK TO SEE
DFKAA PDP-10 KL10 BASIC INSTRUCTION DIAGNOSTIC (1) VER 0,2	MACRO %52(537) 09:34 31-JAN-77 PAGE 78-4
DFKAA8	MAC	25-AUG-75 14:17		TEST UUOS OUT OF FAST MEMORY                                                       SEQ 1170

 51029	067731	302 00 0 00 067713 		CAIE	%X		;IF ITS WHERE WE REALLY SHOULD BE
 51030						STOP2^^
 51031	067732	254 04 0 00 067733 		HALT	.+1		;HALT IF WE SHOULDN'T BE HERE
 51032	067733	254 00 0 00 067734 		JRST	.+1		;WILD TRANSFER CAUSED THIS HALT.^
 51033					^
 51034
 51035						FMUUO	17^
 51036
 51037					;EXECUTE UUO'S OUT OF FAST MEMORY LOCATIONS 0,1,2,4,5,10,12, AND 17
 51038					;CHECK FIRST THAT THE UUO TRAPPED AND SECONDLY THAT IT STORED THE
 51039					;CORRECT PC.
 51040
 51041			000017			AC=17			;TESTED AC
 51042
 51043						TSET^
 51044			067734			%X=.			;DEFINE %X TO SAVE
 51045	067734	201 00 0 00 067734 		MOVEI	%X		;SAVE THIS PC IN CASE OF WILD TRANSFER
 51046	067735	202 00 0 00 071350 		MOVEM	TNUMB#		;BECAUSE OF PC MOD OR INTERRUPT^
 51047	067736	200 17 0 00 070317 		MOVE	17,[XWD 1000,0]	;SET UP UUO INTO AC 17 TO EXECUTE
 51048	067737	200 13 0 00 071340 		MOVE	13,[JSP 11,..0343] ;SET UP UUO TRAP INSTRUCTION
 51049	067740	202 13 0 00 000041 		MOVEM	13,41		;INTO LOCATION 41
 51050	067741	200 00 0 00 071341 		MOVE	17+1,[JRST ..0344] ;SET UP TRAP INSTRUCTION INCASE UUO DOES NOT TRAP
 51051	067742	254 00 0 00 000017 		JRST	17		;GO EXECUTE  UUO
 51052	067743	254 04 0 00 067744 	..0344:	HALT	.+1		;UUO DID NOT TRAP FROM FAST MEMORY
 51053	067744	254 00 0 00 067745 		JRST	.+1		;LOOP TO %FMUUO IF ERROR
 51054	067745	405 11 0 00 777777 	..0343:	ANDI	11,-1		;MASK FLAGS
 51055	067746	302 11 0 00 000020 		CAIE	11,17+1		;PC STORED SHOULD = 17 +1
 51056						STOP^
 51057	067747	254 04 0 00 067750 		HALT	.+1		;INSTRUCTION FAILED REPLACE
 51058	067750	254 00 0 00 067751 		JRST	.+1		;WITH JRST BACK^
 51059						TGET^
 51060	067751	200 00 0 00 071350 		MOVE	TNUMB		;GET LAST PC STORED AND CHECK TO SEE
 51061	067752	302 00 0 00 067734 		CAIE	%X		;IF ITS WHERE WE REALLY SHOULD BE
 51062						STOP2^^
 51063	067753	254 04 0 00 067754 		HALT	.+1		;HALT IF WE SHOULDN'T BE HERE
 51064	067754	254 00 0 00 067755 		JRST	.+1		;WILD TRANSFER CAUSED THIS HALT.^
 51065					^
DFKAA PDP-10 KL10 BASIC INSTRUCTION DIAGNOSTIC (1) VER 0,2	MACRO %52(537) 09:34 31-JAN-77 PAGE 79
DFKAA8	MAC	25-AUG-75 14:17		SIMPLE MUUO TEST                                                                   SEQ 1171

 51066					SUBTTL	SIMPLE MUUO TEST
 51067					;TEST MONITOR UUO "0" TO SEE IF IT TRAPS AT ALL
 51068					;TRAPPING TO 40 CAUSES IT TO HALT. TRAPPING TO SUPERVISOR KERNAL PUBLIC
 51069					;OR CONCEALED IS ALLOWED AND IS CONSIERED CORRECT.
 51070
 51071						TSET^
 51072			067755			%X=.			;DEFINE %X TO SAVE
 51073	067755	201 00 0 00 067755 		MOVEI	%X		;SAVE THIS PC IN CASE OF WILD TRANSFER
 51074	067756	202 00 0 00 071350 		MOVEM	TNUMB#		;BECAUSE OF PC MOD OR INTERRUPT^
 51075	067757	265 00 0 00 067760 		JSP	.+1		;GET FLAGS
 51076	067760	603 00 0 00 010000 		TLNE	USERF		;IF USER MODE THEN EXIT
 51077	067761	254 00 0 00 070027 		JRST	USRIO0		;SKIP IF USER MODE TO USER IO TEST
 51078
 51079						CLRBTH^
 51080	067762	700 04 0 00 267760 		CLRAPR
 51081	067763	700 14 0 00 031577 		CLRPI^
 51082	067764	201 00 0 00 070007 	XMUUO:	MOVEI	XMUPC		;SET UP A TRAP FOR MONITOR UUO
 51083	067765	202 00 0 00 000430 		MOVEM	LKNTRP		;INTO ALL POSSIBLE TRAP LOCATIONS
 51084	067766	202 00 0 00 000431 		MOVEM	LKTRP
 51085	067767	202 00 0 00 000432 		MOVEM	LSNTRP
 51086	067770	202 00 0 00 000433 		MOVEM	LSTRP
 51087	067771	202 00 0 00 000434 		MOVEM	LCNTRP
 51088	067772	202 00 0 00 000435 		MOVEM	LCTRP
 51089	067773	202 00 0 00 000436 		MOVEM	LPNTRP
 51090	067774	202 00 0 00 000437 		MOVEM	LPTRP
 51091	067775	476 00 0 00 000424 		SETOM	LMUUO		;SET THE TRAP LOCATIONS
 51092	067776	476 00 0 00 000425 		SETOM	LMUUO+1		;TO ENABLE CHECKING
 51093	067777	200 00 0 00 071342 		MOVE	[JRST	MUHLT]	;SET UP A LUUO TRAP HALT
 51094	070000	202 00 0 00 000041 		MOVEM	41
 51095	070001	402 00 0 00 070002 		SETZM	.+1		;MAKE A MUUO IN THE NEXT LOCATION
 51096	070002	000000	000000		XMUUO0:	0			;THIS IS A MONITOR UUO
 51097	070003	254 04 0 00 070004 		HALT	.+1		;THE UUO DIDN'T TRAP
 51098	070004	254 04 0 00 070005 		HALT	.+1		;MUUO SKIPPED?
 51099	070005	254 04 0 00 070006 	MUHLT:	HALT	.+1		;UUO TRAPPED TO 40(DECODE AS LUUO?)
 51100	070006	254 04 0 00 070007 		HALT	.+1		;SPARE HALT
DFKAA PDP-10 KL10 BASIC INSTRUCTION DIAGNOSTIC (1) VER 0,2	MACRO %52(537) 09:34 31-JAN-77 PAGE 80
DFKAA8	MAC	25-AUG-75 14:17		SIMPLE MUUO TEST                                                                   SEQ 1172

 51101	070007				XMUPC:	TGET^
 51102	070007	200 00 0 00 071350 		MOVE	TNUMB		;GET LAST PC STORED AND CHECK TO SEE
 51103	070010	302 00 0 00 067755 		CAIE	%X		;IF ITS WHERE WE REALLY SHOULD BE
 51104						STOP2^^
 51105	070011	254 04 0 00 070012 		HALT	.+1		;HALT IF WE SHOULDN'T BE HERE
 51106	070012	254 00 0 00 070013 		JRST	.+1		;WILD TRANSFER CAUSED THIS HALT.^
 51107	070013	332 00 0 00 000424 		SKIPE	LMUUO		;MON UUO "0" DIDN'T STORE A ZERO
 51108						STOP^
 51109	070014	254 04 0 00 070015 		HALT	.+1		;INSTRUCTION FAILED REPLACE
 51110	070015	254 00 0 00 070016 		JRST	.+1		;WITH JRST BACK^
 51111	070016	550 00 0 00 000425 		HRRZ	LMUUO+1		;GET THE STORED PC
 51112	070017	302 00 0 00 070003 		CAIE	XMUUO0+1	;DID WE STORE THE CORRECT PC?
 51113						STOP^
 51114	070020	254 04 0 00 070021 		HALT	.+1		;INSTRUCTION FAILED REPLACE
 51115	070021	254 00 0 00 070022 		JRST	.+1		;WITH JRST BACK^
 51116	070022	255 00 0 00 000000 		JFCL
 51117						TGET^
 51118	070023	200 00 0 00 071350 		MOVE	TNUMB		;GET LAST PC STORED AND CHECK TO SEE
 51119	070024	302 00 0 00 067755 		CAIE	%X		;IF ITS WHERE WE REALLY SHOULD BE
 51120						STOP2^^
 51121	070025	254 04 0 00 070026 		HALT	.+1		;HALT IF WE SHOULDN'T BE HERE
 51122	070026	254 00 0 00 070027 		JRST	.+1		;WILD TRANSFER CAUSED THIS HALT.^
DFKAA PDP-10 KL10 BASIC INSTRUCTION DIAGNOSTIC (1) VER 0,2	MACRO %52(537) 09:34 31-JAN-77 PAGE 81
DFKAA8	MAC	25-AUG-75 14:17		TEST THE USER IOT BIT                                                              SEQ 1173

 51123					SUBTTL	TEST THE USER IOT BIT
 51124					;CHECK CLEARING AND SETTING OF THE USER IOT BIT
 51125
 51126	070027				USRIO0:	TSET^
 51127			070027			%X=.			;DEFINE %X TO SAVE
 51128	070027	201 00 0 00 070027 		MOVEI	%X		;SAVE THIS PC IN CASE OF WILD TRANSFER
 51129	070030	202 00 0 00 071350 		MOVEM	TNUMB#		;BECAUSE OF PC MOD OR INTERRUPT^
 51130						CLRBTH^
 51131	070031	700 04 0 00 267760 		CLRAPR
 51132	070032	700 14 0 00 031577 		CLRPI^
 51133	070033	336 00 0 00 030042 		SKIPN	MONFLG		;IN SPECIAL USER MODE?
 51134	070034	254 00 0 00 070070 		JRST	ENDIT		;YES LOOP TEST
 51135	070035	254 02 1 00 070036 		JRSTF	@.+1		;CLEAR BITS
 51136	070036	000000	070037			0,,.+1			;PC AND FLAGS
 51137	070037	265 00 0 00 070040 		JSP	.+1		;CHECK WHY USER I/O FLAG IS SET
 51138	070040	603 00 0 00 004000 		TLNE	EXIOT		;SHOULD BE CLEAR VIA JRSTF
 51139						STOP^
 51140	070041	254 04 0 00 070042 		HALT	.+1		;INSTRUCTION FAILED REPLACE
 51141	070042	254 00 0 00 070043 		JRST	.+1		;WITH JRST BACK^
 51142						TGET^
 51143	070043	200 00 0 00 071350 		MOVE	TNUMB		;GET LAST PC STORED AND CHECK TO SEE
 51144	070044	302 00 0 00 070027 		CAIE	%X		;IF ITS WHERE WE REALLY SHOULD BE
 51145						STOP2^^
 51146	070045	254 04 0 00 070046 		HALT	.+1		;HALT IF WE SHOULDN'T BE HERE
 51147	070046	254 00 0 00 070047 		JRST	.+1		;WILD TRANSFER CAUSED THIS HALT.^
 51148	070047	336 00 0 00 030042 		SKIPN	MONFLG		;IN USER MODE?
 51149	070050	254 00 0 00 070070 		JRST	ENDIT		;YES CANNOT SET USER IO FLAG
 51150									;IN USER MODE
 51151
 51152	070051				USRIO1:	TSET^
 51153			070051			%X=.			;DEFINE %X TO SAVE
 51154	070051	201 00 0 00 070051 		MOVEI	%X		;SAVE THIS PC IN CASE OF WILD TRANSFER
 51155	070052	202 00 0 00 071350 		MOVEM	TNUMB#		;BECAUSE OF PC MOD OR INTERRUPT^
 51156						CLRBTH^
 51157	070053	700 04 0 00 267760 		CLRAPR
 51158	070054	700 14 0 00 031577 		CLRPI^
 51159	070055	400 00 0 00 000000 		SETZ	0		;CLEAR 0
 51160	070056	200 01 0 00 071343 		MOVE	1,[1B6!.+2]	;FLAGS AND PC
 51161	070057	254 02 0 01 000000 		JRSTF	(1)		;USER I/O FLAG DID
 51162	070060	265 00 0 00 070061 		JSP	.+1		;NOT SET
 51163	070061	607 00 0 00 004000 		TLNN	EXIOT		;CHECK WHY BIT IS NOT SET
 51164						STOP^
 51165	070062	254 04 0 00 070063 		HALT	.+1		;INSTRUCTION FAILED REPLACE
 51166	070063	254 00 0 00 070064 		JRST	.+1		;WITH JRST BACK^
 51167						TGET^
 51168	070064	200 00 0 00 071350 		MOVE	TNUMB		;GET LAST PC STORED AND CHECK TO SEE
 51169	070065	302 00 0 00 070051 		CAIE	%X		;IF ITS WHERE WE REALLY SHOULD BE
 51170						STOP2^^
 51171	070066	254 04 0 00 070067 		HALT	.+1		;HALT IF WE SHOULDN'T BE HERE
 51172	070067	254 00 0 00 070070 		JRST	.+1		;WILD TRANSFER CAUSED THIS HALT.^
 51173
 51174	070070	402 00 0 00 071350 	ENDIT:	SETZM	TNUMB		;CLEAR TEST NUMBER FLAG
 51175	070071	254 00 0 00 030057 		JRST	BEGEND		;GO TO BEG/END SEQUENCE
DFKAA PDP-10 KL10 BASIC INSTRUCTION DIAGNOSTIC (1) VER 0,2	MACRO %52(537) 09:34 31-JAN-77 PAGE 82
DFKAA8	MAC	25-AUG-75 14:17		IOT/PI/APR SUBROUTINES                                                             SEQ 1174

 51176					SUBTTL	IOT/PI/APR SUBROUTINES
 51177
 51178					;HERE ARE SOME USEFUL SUBROUTINES FOR THE DIAGNOSTIC
 51179
 51180					;THIS ROUTINE CLEARS ALL THE TRAP LOCATIONS(42-56)
 51181
 51182	070072	000000	000000		TRPCLR:	0			;FOR PC RETURN
 51183	070073	202 15 0 00 071353 		MOVEM	15,XAC15#	;SAVE AC15
 51184	070074	201 15 0 00 000042 		MOVEI	15,42
 51185	070075	402 00 1 00 000015 		SETZM	@15		;CLEAR LOCATION
 51186	070076	271 15 0 00 000001 		ADDI	15,1		;BUMP POINTER
 51187	070077	307 15 0 00 000056 		CAIG	15,56		;DONE LAST?
 51188	070100	254 00 0 00 070075 		JRST	.-3		;LOOP
 51189	070101	200 15 0 00 071353 		MOVE	15,XAC15	;RESTORE AC15
 51190	070102	254 00 1 00 070072 		JRST	@TRPCLR
 51191
 51192					;THIS ROUTINE PUTS A JSP TO A HALT INTO EACH TRAP LOCATION (42-57)
 51193
 51194	070103	000000	000000		HALTPI:	0			;FOR RETURN PC
 51195	070104	202 00 0 00 071351 		MOVEM	0,XAC0#		;SAVE AC0
 51196	070105	202 01 0 00 071352 		MOVEM	1,XAC1#		;SAVE AC1
 51197	070106	200 00 0 00 071344 		MOVE	[JSP 1,HLTCK]	;PUT JSP INTO EACH TRAP LOCATION
 51198	070107	201 01 0 00 000042 		MOVEI	1,42		;IN CASE INCORRECT INTERRUPT
 51199	070110	202 00 1 00 000001 		MOVEM	@1		;STORE
 51200	070111	271 00 0 00 000002 		ADDI	2
 51201	070112	271 01 0 00 000002 		ADDI	1,2
 51202	070113	305 01 0 00 000060 		CAIGE	1,60		;DONE?
 51203	070114	254 00 0 00 070110 		JRST	.-4
 51204	070115	200 00 0 00 071351 		MOVE	0,XAC0		;RESTORE AC0
 51205	070116	200 01 0 00 071352 		MOVE	1,XAC1		;AND AC1
 51206	070117	254 00 1 00 070103 		JRST	@HALTPI		;RETURN
DFKAA PDP-10 KL10 BASIC INSTRUCTION DIAGNOSTIC (1) VER 0,2	MACRO %52(537) 09:34 31-JAN-77 PAGE 83
DFKAA8	MAC	25-AUG-75 14:17		IOT/PI/APR SUBROUTINES                                                             SEQ 1175

 51207					;THIS ROUTINE PUTS A JSP INTO EACH INTERRUPT LOCATION WHICH WILL
 51208					;IGNORE INTERRUPTS..
 51209
 51210	070120	000000	000000		TRAPPI:	0			;FOR JSR
 51211	070121	202 00 0 00 071351 		MOVEM	0,XAC0#		;SAVE AC0
 51212	070122	202 01 0 00 071352 		MOVEM	1,XAC1#		;SAVE AC1
 51213	070123	200 00 0 00 071345 		MOVE	[JSP 1,TRPFIL]	;SET UP TRAP INSTRUCTION
 51214	070124	201 01 0 00 000042 		MOVEI	1,42
 51215	070125	202 00 1 00 000001 		MOVEM	@1
 51216	070126	271 01 0 00 000002 		ADDI	1,2
 51217	070127	271 00 0 00 000002 		ADDI	0,2		;STORAGE POINTER
 51218	070130	305 01 0 00 000060 		CAIGE	1,60		;DONE?
 51219	070131	254 00 0 00 070125 		JRST	.-4		;NO LOOP
 51220	070132	200 00 0 00 071351 		MOVE	0,XAC0		;RESTORE AC0
 51221	070133	200 01 0 00 071352 		MOVE	1,XAC1		;AND AC1
 51222	070134	254 00 1 00 070120 		JRST	@TRAPPI		;RETURN
 51223
 51224					;THIS ROUTINE PLACES THE VALUE OF THE CHANNEL WHICH INTERRUPTED INTO
 51225					;AC0. IT DOES NOTHING ELSE (IT EFFECTIVLY IGNORES THE INTERRUPT).
 51226
 51227	070135	201 00 0 00 000001 	TRPFIL:	MOVEI	1		;POINTER
 51228	070136	254 00 0 00 070154 		JRST	TPEND
 51229	070137	201 00 0 00 000002 		MOVEI	2
 51230	070140	254 00 0 00 070154 		JRST	TPEND
 51231	070141	201 00 0 00 000003 		MOVEI	3
 51232	070142	254 00 0 00 070154 		JRST	TPEND
 51233	070143	201 00 0 00 000004 		MOVEI	4
 51234	070144	254 00 0 00 070154 		JRST	TPEND
 51235	070145	201 00 0 00 000005 		MOVEI	5
 51236	070146	254 00 0 00 070154 		JRST	TPEND
 51237	070147	201 00 0 00 000006 		MOVEI	6
 51238	070150	254 00 0 00 070154 		JRST	TPEND
 51239	070151	201 00 0 00 000007 		MOVEI	7
 51240	070152	254 00 0 00 070154 		JRST	TPEND
 51241	070153	254 04 0 00 070154 		HALT	TPEND		;"JRST @" OR "JRSTF @" FAILS
 51242
 51243	070154	332 00 0 00 030042 	TPEND:	SKIPE	MONFLG		;IN USER MODE?
 51244	070155	254 00 1 00 000001 		JRST	@1		;RETURN
 51245	070156	254 02 1 00 000001 		JRSTF	@1		;RESTORE FLAGS
 51246	070157	254 04 0 00 070157 		HALT	.		;JRST @ OR JRSTF FAILS ?
DFKAA PDP-10 KL10 BASIC INSTRUCTION DIAGNOSTIC (1) VER 0,2	MACRO %52(537) 09:34 31-JAN-77 PAGE 84
DFKAA8	MAC	25-AUG-75 14:17		IOT/PI/APR SUBROUTINES                                                             SEQ 1176

 51247					;THIS ROUTINE PLACES THE VALUE OF THE CHANNEL WHICH INTERRUPTED
 51248					;INTO AC0. AFTER WHICH IT WILL HALT. THIS ROUTINE IS CALLED WHENEVER AN
 51249					;INTERRUPT OCCURS ON AN INCORRECT CHANNEL.
 51250	070160	201 00 0 00 000001 	HLTCK:	MOVEI	1
 51251	070161	254 04 1 00 000001 		HALT	@1
 51252	070162	201 00 0 00 000002 		MOVEI	2
 51253	070163	254 04 1 00 000001 		HALT	@1
 51254	070164	201 00 0 00 000003 		MOVEI	3
 51255	070165	254 04 1 00 000001 		HALT	@1
 51256	070166	201 00 0 00 000004 		MOVEI	4
 51257	070167	254 04 1 00 000001 		HALT	@1
 51258	070170	201 00 0 00 000005 		MOVEI	5
 51259	070171	254 04 1 00 000001 		HALT	@1
 51260	070172	201 00 0 00 000006 		MOVEI	6
 51261	070173	254 04 1 00 000001 		HALT	@1
 51262	070174	201 00 0 00 000007 		MOVEI	7
 51263	070175	254 04 1 00 000007 		HALT	@7
 51264	070176	474 00 0 00 000000 		SETO	0
 51265	070177	254 04 0 00 070177 		HALT	.		;SHOULD NEVER GET HERE
DFKAA PDP-10 KL10 BASIC INSTRUCTION DIAGNOSTIC (1) VER 0,2	MACRO %52(537) 09:34 31-JAN-77 PAGE 85
DFKAA8	MAC	25-AUG-75 14:17		IOT/PI/APR TRAP ROUTINES                                                           SEQ 1177

 51266					SUBTTL	IOT/PI/APR TRAP ROUTINES
 51267
 51268					;HERE LIE THE VARIOUS TRAPS  TRAPS HERE REPRESENT ERRORS
 51269					;NOT CHECKED IN THE DIAGNOSTIC. THE LISTING SHOWS THE CAUSE OF THE
 51270					;TRAP.
 51271
 51272	070200	254 04 0 00 070200 	UUO:	HALT	.		;ERROR-UUO (LOC 0 HAS PC OF UUO)
 51273	070201	254 04 1 00 000425 	MACHTP:	HALT	@425		;KERNAL NO TRAP
 51274	070202	254 04 1 00 000425 		HALT	@425		;KERNAL TRAP
 51275	070203	254 04 1 00 000425 		HALT	@425		;SUPERVISOR NO TRAP
 51276	070204	254 04 1 00 000425 		HALT	@425		;SUPERVISOR TRAP
 51277	070205	254 04 1 00 000425 		HALT	@425		;CONCEAL NO TRAP
 51278	070206	254 04 1 00 000425 		HALT	@425		;CONCEAL TRAP
 51279	070207	254 04 1 00 000425 		HALT	@425		;PUBLIC NO TRAP
 51280	070210	254 04 1 00 000425 		HALT	@425		;PUBLIC TRAP
 51281
 51282	070211	254 04 0 00 070211 	TABLE:	HALT	.		;PAGE FAILURE TRAP
 51283	070212	255 00 0 00 000000 		JFCL			;IGNORE ARITHMETIC TRAPS
 51284	070213	254 04 0 00 070213 		HALT	.
 51285	070214	254 04 0 00 070214 		HALT	.
 51286	070215	777777	777777			-1			;IF UUO THEN NOT =O-1
 51287	070216	777777	777777			-1
 51288	070217	000000	000000			0
 51289	070220	000000	000000			0
 51290	070221	000000	070201			MACHTP
 51291	070222	000000	070202			MACHTP+1
 51292	070223	000000	070203			MACHTP+2
 51293	070224	000000	070204			MACHTP+3
 51294	070225	000000	070205			MACHTP+4
 51295	070226	000000	070206			MACHTP+5
 51296	070227	000000	070207			MACHTP+6
 51297	070230	000000	070210			MACHTP+7
 51298
 51299	070231	000000	000000		TRPSET:	0			;FOR JSR
 51300	070232	202 00 0 00 071351 		MOVEM	0,XAC0#		;SAVE AC0
 51301	070233	202 01 0 00 071352 		MOVEM	1,XAC1#		;SAVE AC1
 51302	070234	202 16 0 00 071354 		MOVEM	16,XAC16#	;SAVE AC16
 51303	070235	201 00 0 00 070211 		MOVEI	0,TABLE		;TRAP TABLE POINTER
 51304	070236	201 01 0 00 000420 		MOVEI	1,420		;STORAGE ADRESS
 51305	070237	200 16 1 00 000000 		MOVE	16,@0		;PUT TRAP WORD INTO
 51306	070240	202 16 0 01 000000 		MOVEM	16,(1)		;TRAP LOCATION
 51307	070241	271 00 0 00 000001 		ADDI	0,1		;BUMP
 51308	070242	271 01 0 00 000001 		ADDI	1,1		;POINTERS
 51309	070243	302 01 0 00 000440 		CAIE	1,440		;DONE LAST
 51310	070244	254 00 0 00 070237 		JRST	.-5		;NO KEEP LOOPING
 51311	070245	200 00 0 00 071351 		MOVE	0,XAC0		;RESTORE AC0
 51312	070246	200 01 0 00 071352 		MOVE	1,XAC1		;AND AC1
 51313	070247	200 16 0 00 071354 		MOVE	16,XAC16	;AND AC16
 51314	070250	254 00 1 00 070231 		JRST	@TRPSET		;RETURN TO CALLER
DFKAA PDP-10 KL10 BASIC INSTRUCTION DIAGNOSTIC (1) VER 0,2	MACRO %52(537) 09:34 31-JAN-77 PAGE 1
STOR	KLM	18-JAN-77 11:42		*STOR* RESERVED STORAGE, JAN 18,1977                                               SEQ 1178

 51315					SUBTTL	*STOR* RESERVED STORAGE, JAN 18,1977
 51316
 51317					;PROGRAM LITERALS
 51318
 51319						XLIST
 51320					IFNDEF	$LPAPER,<LIST>
 51321	070251					LIT
 51322	070251	000001	000001
 51323	070252	254 00 0 00 030742
 51324	070253	000000	000000
 51325	070254	777777	777777
 51326	070255	377777	777777
 51327	070256	400000	000000
 51328	070257	777000	000000
 51329	070260	000377	000000
 51330	070261	000000	177000
 51331	070262	000000	000777
 51332	070263	000000	600000
 51333	070264	000400	000000
 51334	070265	000000	000001
 51335	070266	000000	000002
 51336	070267	000000	000004
 51337	070270	000000	000010
 51338	070271	000000	000020
 51339	070272	000000	000040
 51340	070273	000000	000100
 51341	070274	000000	000200
 51342	070275	000000	000400
 51343	070276	000000	001000
 51344	070277	000000	002000
 51345	070300	000000	004000
 51346	070301	000000	010000
 51347	070302	000000	020000
 51348	070303	000000	040000
 51349	070304	000000	100000
 51350	070305	000000	200000
 51351	070306	000000	400000
 51352	070307	000001	000000
 51353	070310	000002	000000
 51354	070311	000004	000000
 51355	070312	000010	000000
 51356	070313	000020	000000
 51357	070314	000040	000000
 51358	070315	000100	000000
 51359	070316	000200	000000
 51360	070317	001000	000000
 51361	070320	002000	000000
 51362	070321	004000	000000
 51363	070322	010000	000000
 51364	070323	020000	000000
 51365	070324	040000	000000
 51366	070325	100000	000000
 51367	070326	200000	000000
 51368	070327	000000	001234
 51369	070330	000000	777777
