DFKAA PDP-10 KL10 BASIC INSTRUCTION DIAGNOSTIC (1) VER 0,2	MACRO %52(537) 09:34 31-JAN-77 PAGE 1-1
STOR	KLM	18-JAN-77 11:42		*STOR* RESERVED STORAGE, JAN 18,1977                                               SEQ 1179

 51370	070331	777777	000000
 51371	070332	707070	707070
 51372	070333	777777	777776
 51373	070334	777777	777775
 51374	070335	777777	777773
 51375	070336	777777	777767
 51376	070337	777777	777757
 51377	070340	777777	777737
 51378	070341	777777	777677
 51379	070342	777777	777577
 51380	070343	777777	777377
 51381	070344	777777	776777
 51382	070345	777777	775777
 51383	070346	777777	773777
 51384	070347	777777	767777
 51385	070350	777777	757777
 51386	070351	777777	737777
 51387	070352	777777	677777
 51388	070353	777777	577777
 51389	070354	777777	377777
 51390	070355	777776	777777
 51391	070356	777775	777777
 51392	070357	777773	777777
 51393	070360	777767	777777
 51394	070361	777757	777777
 51395	070362	777737	777777
 51396	070363	777677	777777
 51397	070364	777577	777777
 51398	070365	777377	777777
 51399	070366	776777	777777
 51400	070367	775777	777777
 51401	070370	773777	777777
 51402	070371	767777	777777
 51403	070372	757777	777777
 51404	070373	737777	777777
 51405	070374	677777	777777
 51406	070375	577777	777777
 51407	070376	123456	765432
 51408	070377	123456	000000
 51409	070400	000000	123456
 51410	070401	600000	000000
 51411	070402	700000	000000
 51412	070403	740000	000000
 51413	070404	760000	000000
 51414	070405	770000	000000
 51415	070406	774000	000000
 51416	070407	776000	000000
 51417	070410	777400	000000
 51418	070411	777600	000000
 51419	070412	777700	000000
 51420	070413	777740	000000
 51421	070414	777760	000000
 51422	070415	777770	000000
 51423	070416	777774	000000
 51424	070417	777776	000000
DFKAA PDP-10 KL10 BASIC INSTRUCTION DIAGNOSTIC (1) VER 0,2	MACRO %52(537) 09:34 31-JAN-77 PAGE 1-2
STOR	KLM	18-JAN-77 11:42		*STOR* RESERVED STORAGE, JAN 18,1977                                               SEQ 1180

 51425	070420	777777	400000
 51426	070421	777777	600000
 51427	070422	777777	700000
 51428	070423	777777	740000
 51429	070424	777777	760000
 51430	070425	777777	770000
 51431	070426	777777	774000
 51432	070427	777777	776000
 51433	070430	777777	777000
 51434	070431	777777	777400
 51435	070432	777777	777600
 51436	070433	777777	777700
 51437	070434	777777	777740
 51438	070435	777777	777760
 51439	070436	777777	777770
 51440	070437	777777	777774
 51441	070440	000002	000002
 51442	070441	000004	000004
 51443	070442	000010	000010
 51444	070443	000020	000020
 51445	070444	000040	000040
 51446	070445	000100	000100
 51447	070446	000200	000200
 51448	070447	000400	000400
 51449	070450	001000	001000
 51450	070451	002000	002000
 51451	070452	004000	004000
 51452	070453	010000	010000
 51453	070454	020000	020000
 51454	070455	040000	040000
 51455	070456	100000	100000
 51456	070457	200000	200000
 51457	070460	400000	400000
 51458	070461	777776	777776
 51459	070462	777775	777775
 51460	070463	777773	777773
 51461	070464	777767	777767
 51462	070465	777757	777757
 51463	070466	777737	777737
 51464	070467	777677	777677
 51465	070470	777577	777577
 51466	070471	777377	777377
 51467	070472	776777	776777
 51468	070473	775777	775777
 51469	070474	773777	773777
 51470	070475	767777	767777
 51471	070476	757777	757777
 51472	070477	737777	737777
 51473	070500	677777	677777
 51474	070501	577777	577777
 51475	070502	377777	377777
 51476	070503	000001	777776
 51477	070504	777776	000001
 51478	070505	000002	777775
 51479	070506	777775	000002
DFKAA PDP-10 KL10 BASIC INSTRUCTION DIAGNOSTIC (1) VER 0,2	MACRO %52(537) 09:34 31-JAN-77 PAGE 1-3
STOR	KLM	18-JAN-77 11:42		*STOR* RESERVED STORAGE, JAN 18,1977                                               SEQ 1181

 51480	070507	000004	777773
 51481	070510	777773	000004
 51482	070511	000010	777767
 51483	070512	777767	000010
 51484	070513	000020	777757
 51485	070514	777757	000020
 51486	070515	000040	777737
 51487	070516	777737	000040
 51488	070517	000100	777677
 51489	070520	777677	000100
 51490	070521	000200	777577
 51491	070522	777577	000200
 51492	070523	000400	777377
 51493	070524	777377	000400
 51494	070525	001000	776777
 51495	070526	776777	001000
 51496	070527	002000	775777
 51497	070530	775777	002000
 51498	070531	004000	773777
 51499	070532	773777	004000
 51500	070533	010000	767777
 51501	070534	767777	010000
 51502	070535	020000	757777
 51503	070536	757777	020000
 51504	070537	040000	737777
 51505	070540	737777	040000
 51506	070541	100000	677777
 51507	070542	677777	100000
 51508	070543	200000	577777
 51509	070544	577777	200000
 51510	070545	400000	377777
 51511	070546	377777	400000
 51512	070547	000000	707070
 51513	070550	707070	777777
 51514	070551	070707	777777
 51515	070552	070707	070710
 51516	070553	777777	777772
 51517	070554	777777	777766
 51518	070555	777777	777756
 51519	070556	777777	777736
 51520	070557	777777	777676
 51521	070560	777777	777576
 51522	070561	777777	777376
 51523	070562	777777	776776
 51524	070563	777777	775776
 51525	070564	777777	773776
 51526	070565	777777	767776
 51527	070566	777777	757776
 51528	070567	777777	737776
 51529	070570	777777	677776
 51530	070571	777777	577776
 51531	070572	777777	377776
 51532	070573	777775	777776
 51533	070574	777773	777776
 51534	070575	777767	777776
DFKAA PDP-10 KL10 BASIC INSTRUCTION DIAGNOSTIC (1) VER 0,2	MACRO %52(537) 09:34 31-JAN-77 PAGE 1-4
STOR	KLM	18-JAN-77 11:42		*STOR* RESERVED STORAGE, JAN 18,1977                                               SEQ 1182

 51535	070576	777757	777776
 51536	070577	777737	777776
 51537	070600	777677	777776
 51538	070601	777577	777776
 51539	070602	777377	777776
 51540	070603	776777	777776
 51541	070604	775777	777776
 51542	070605	773777	777776
 51543	070606	767777	777776
 51544	070607	757777	777776
 51545	070610	737777	777776
 51546	070611	677777	777776
 51547	070612	577777	777776
 51548	070613	377777	777776
 51549	070614	252525	252525
 51550	070615	254 04 0 00 046573
 51551	070616	201 01 0 00 050047
 51552	070617	201 01 0 00 000001
 51553	070620	201 01 0 00 777777
 51554	070621	256 00 0 00 070620
 51555	070622	256 00 0 00 070621
 51556	070623	256 00 0 00 070622
 51557	070624	256 00 0 00 070623
 51558	070625	200 01 0 00 070254
 51559	070626	334 00 0 00 000000
 51560	070627	310 00 0 00 000000
 51561	070630	201 01 0 00 001234
 51562	070631	050454	050453
 51563	070632	050463	050462
 51564	070633	254 00 0 00 050526
 51565	070634	000001	000002
 51566	070635	135531	246642
 51567	070636	135246	246135
 51568	070637	123456	123456
 51569	070640	777000	707070
 51570	070641	777000	000777
 51571	070642	123000	000456
 51572	070643	121212	000000
 51573	070644	777350	777776
 51574	070645	000767	777777
 51575	070646	777010	000000
 51576	070647	000777	770077
 51577	070650	123456	246123
 51578	070651	123000	006100
 51579	070652	000100	777600
 51580	070653	123456	246135
 51581	070654	123456	040104
 51582	070655	123321	456654
 51583	070656	770077	007770
 51584	070657	003300	450004
 51585	070660	123456	663322
 51586	070661	777000	700770
 51587	070662	000456	063002
 51588	070663	123456	777776
 51589	070664	010203	123450
DFKAA PDP-10 KL10 BASIC INSTRUCTION DIAGNOSTIC (1) VER 0,2	MACRO %52(537) 09:34 31-JAN-77 PAGE 1-5
STOR	KLM	18-JAN-77 11:42		*STOR* RESERVED STORAGE, JAN 18,1977                                               SEQ 1183

 51590	070665	000777	123456
 51591	070666	000777	517067
 51592	070667	707077	555666
 51593	070670	624421	230254
 51594	070671	707070	123456
 51595	070672	707070	767577
 51596	070673	123456	777666
 51597	070674	777001	123470
 51598	070675	777457	777676
 51599	070676	777000	123456
 51600	070677	000777	050321
 51601	070700	777007	771100
 51602	070701	063202	123477
 51603	070702	000570	004200
 51604	070703	707070	123426
 51605	070704	070707	777032
 51606	070705	123456	123457
 51607	070706	707633	121212
 51608	070707	153512	775132
 51609	070710	000777	654321
 51610	070711	654321	012345
 51611	070712	777000	123477
 51612	070713	000777	775701
 51613	070714	707070	707072
 51614	070715	707777	757372
 51615	070716	777777	070707
 51616	070717	777777	133777
 51617	070720	707070	070706
 51618	070721	777777	707777
 51619	070722	123456	770077
 51620	070723	777001	123324
 51621	070724	654777	657753
 51622	070725	123456	707070
 51623	070726	123456	123422
 51624	070727	707070	717171
 51625	070730	123422	000000
 51626	070731	123456	707076
 51627	070732	707076	000000
 51628	070733	123456	777777
 51629	070734	123456	135724
 51630	070735	765432	246135
 51631	070736	246135	777777
 51632	070737	123123	456765
 51633	070740	456765	777777
 51634	070741	707076	777777
 51635	070742	765432	777777
 51636	070743	365432	123456
 51637	070744	365432	000000
 51638	070745	123456	701234
 51639	070746	123123	246135
 51640	070747	123123	123123
 51641	070750	777777	701234
 51642	070751	765432	107654
 51643	070752	777777	765432
 51644	070753	777777	123456
DFKAA PDP-10 KL10 BASIC INSTRUCTION DIAGNOSTIC (1) VER 0,2	MACRO %52(537) 09:34 31-JAN-77 PAGE 1-6
STOR	KLM	18-JAN-77 11:42		*STOR* RESERVED STORAGE, JAN 18,1977                                               SEQ 1184

 51645	070754	076543	654321
 51646	070755	076543	654323
 51647	070756	076547	654321
 51648	070757	123456	701034
 51649	070760	123454	701234
 51650	070761	252525	707070
 51651	070762	020406	501210
 51652	070763	654321	076543
 51653	070764	754321	076543
 51654	070765	023456	701234
 51655	070766	076543	657321
 51656	070767	120456	701234
 51657	070770	121052	000204
 51658	070771	701234	123456
 51659	070772	654321	076547
 51660	070773	123456	701230
 51661	070774	077543	654321
 51662	070775	123456	700234
 51663	070776	123456	701237
 51664	070777	123456	701134
 51665	071000	123756	701234
 51666	071001	123455	701234
 51667	071002	624426	553711
 51668	071003	774777	777777
 51669	071004	371173	006244
 51670	071005	123456	701334
 51671	071006	123456	070234
 51672	071007	123457	070234
 51673	071010	123457	701234
 51674	071011	373577	707274
 51675	071012	176543	654321
 51676	071013	000016	541320
 51677	071014	000001	000017
 51678	071015	312 00 0 00 000001
 51679	071016	256 00 0 00 071015
 51680	071017	256 00 0 00 071016
 51681	071020	254 00 0 00 056716
 51682	071021	265 03 0 00 056723
 51683	071022	256 00 0 00 071021
 51684	071023	256 00 0 00 071022
 51685	071024	270 06 0 04 000001
 51686	071025	331 01 0 00 000002
 51687	071026	331 03 0 00 000006
 51688	071027	777776	000005
 51689	071030	253 03 0 00 056767
 51690	071031	777777	000006
 51691	071032	253 03 0 00 056775
 51692	071033	000000	000007
 51693	071034	172737	405060
 51694	071035	525252	525252
 51695	071036	230703	603700
 51696	071037	023070	360370
 51697	071040	007603	607062
 51698	071041	200760	360706
 51699	071042	074076	004616
DFKAA PDP-10 KL10 BASIC INSTRUCTION DIAGNOSTIC (1) VER 0,2	MACRO %52(537) 09:34 31-JAN-77 PAGE 1-7
STOR	KLM	18-JAN-77 11:42		*STOR* RESERVED STORAGE, JAN 18,1977                                               SEQ 1185

 51700	071043	074161	440174
 51701	071044	770037	600377
 51702	071045	307036	037007
 51703	071046	700376	003772
 51704	071047	776003	760077
 51705	071050	760037	600770
 51706	071051	076036	070627
 51707	071052	160740	760176
 51708	071053	007740	077646
 51709	071054	400774	017601
 51710	071055	740741	614577
 51711	071056	000000	000252
 51712	071057	000000	000525
 51713	071060	000000	000230
 51714	071061	000000	017777
 51715	071062	000000	005252
 51716	071063	000000	012525
 51717	071064	000000	004616
 51718	071065	000000	000174
 51719	071066	123456	654321
 51720	071067	265 00 0 00 070200
 51721	071070	265 00 0 00 062523
 51722	071071	265 00 0 00 062541
 51723	071072	265 00 0 00 062557
 51724	071073	265 00 0 00 062575
 51725	071074	265 00 0 00 062613
 51726	071075	265 00 0 00 062631
 51727	071076	265 00 0 00 062647
 51728	071077	265 00 0 00 062672
 51729	071100	265 00 0 00 062707
 51730	071101	265 00 0 00 062724
 51731	071102	265 00 0 00 062741
 51732	071103	265 00 0 00 062756
 51733	071104	265 00 0 00 062773
 51734	071105	265 00 0 00 063010
 51735	071106	265 00 0 00 063033
 51736	071107	265 00 0 00 063047
 51737	071110	265 00 0 00 063063
 51738	071111	265 00 0 00 063077
 51739	071112	265 00 0 00 063113
 51740	071113	265 00 0 00 063127
 51741	071114	265 00 0 00 063143
 51742	071115	265 00 0 00 063173
 51743	071116	265 00 0 00 063217
 51744	071117	265 00 0 00 063243
 51745	071120	265 00 0 00 063267
 51746	071121	265 00 0 00 063313
 51747	071122	265 00 0 00 063337
 51748	071123	265 00 0 00 063363
 51749	071124	265 00 0 00 063407
 51750	071125	265 00 0 00 063433
 51751	071126	265 00 0 00 063457
 51752	071127	265 00 0 00 063503
 51753	071130	265 00 0 00 063527
 51754	071131	265 00 0 00 063553
DFKAA PDP-10 KL10 BASIC INSTRUCTION DIAGNOSTIC (1) VER 0,2	MACRO %52(537) 09:34 31-JAN-77 PAGE 1-8
STOR	KLM	18-JAN-77 11:42		*STOR* RESERVED STORAGE, JAN 18,1977                                               SEQ 1186

 51755	071132	265 00 0 00 063577
 51756	071133	265 00 0 00 063623
 51757	071134	265 00 0 00 063647
 51758	071135	265 00 0 00 063673
 51759	071136	265 00 0 00 063717
 51760	071137	265 00 0 00 063743
 51761	071140	265 00 0 00 063767
 51762	071141	265 00 0 00 064014
 51763	071142	352 00 0 00 000000
 51764	071143	265 01 0 00 064037
 51765	071144	332 00 0 00 000000
 51766	071145	265 01 0 00 064061
 51767	071146	265 01 0 00 064103
 51768	071147	265 01 0 00 064125
 51769	071150	265 01 0 00 064147
 51770	071151	265 01 0 00 064171
 51771	071152	265 01 0 00 064213
 51772	071153	265 01 0 00 064235
 51773	071154	265 01 0 00 064257
 51774	071155	265 01 0 00 064301
 51775	071156	265 01 0 00 064323
 51776	071157	265 01 0 00 064345
 51777	071160	265 01 0 00 064367
 51778	071161	265 01 0 00 064411
 51779	071162	265 01 0 00 064426
 51780	071163	265 01 0 00 064451
 51781	071164	265 01 0 00 064474
 51782	071165	265 01 0 00 064517
 51783	071166	265 01 0 00 064542
 51784	071167	265 01 0 00 064565
 51785	071170	265 01 0 00 064610
 51786	071171	265 01 0 00 065360
 51787	071172	265 01 0 00 065410
 51788	071173	265 01 0 00 065440
 51789	071174	265 01 0 00 065470
 51790	071175	265 01 0 00 065520
 51791	071176	265 01 0 00 065550
 51792	071177	265 01 0 00 065600
 51793	071200	265 01 0 00 065622
 51794	071201	265 01 0 00 065646
 51795	071202	265 01 0 00 065672
 51796	071203	003000	000000
 51797	071204	265 01 0 00 065716
 51798	071205	265 01 0 00 065742
 51799	071206	005000	000000
 51800	071207	265 01 0 00 065766
 51801	071210	006000	000000
 51802	071211	265 01 0 00 066012
 51803	071212	007000	000000
 51804	071213	265 01 0 00 066036
 51805	071214	265 01 0 00 066062
 51806	071215	011000	000000
 51807	071216	265 01 0 00 066106
 51808	071217	012000	000000
 51809	071220	265 01 0 00 066132
DFKAA PDP-10 KL10 BASIC INSTRUCTION DIAGNOSTIC (1) VER 0,2	MACRO %52(537) 09:34 31-JAN-77 PAGE 1-9
STOR	KLM	18-JAN-77 11:42		*STOR* RESERVED STORAGE, JAN 18,1977                                               SEQ 1187

 51810	071221	013000	000000
 51811	071222	265 01 0 00 066156
 51812	071223	014000	000000
 51813	071224	265 01 0 00 066202
 51814	071225	015000	000000
 51815	071226	265 01 0 00 066226
 51816	071227	016000	000000
 51817	071230	265 01 0 00 066252
 51818	071231	017000	000000
 51819	071232	265 01 0 00 066276
 51820	071233	265 01 0 00 066322
 51821	071234	021000	000000
 51822	071235	265 01 0 00 066346
 51823	071236	022000	000000
 51824	071237	265 01 0 00 066372
 51825	071240	023000	000000
 51826	071241	265 01 0 00 066416
 51827	071242	024000	000000
 51828	071243	265 01 0 00 066442
 51829	071244	025000	000000
 51830	071245	265 01 0 00 066466
 51831	071246	026000	000000
 51832	071247	265 01 0 00 066512
 51833	071250	027000	000000
 51834	071251	265 01 0 00 066536
 51835	071252	030000	000000
 51836	071253	265 01 0 00 066562
 51837	071254	031000	000000
 51838	071255	265 01 0 00 066606
 51839	071256	032000	000000
 51840	071257	265 01 0 00 066632
 51841	071260	033000	000000
 51842	071261	265 01 0 00 066656
 51843	071262	034000	000000
 51844	071263	265 01 0 00 066702
 51845	071264	035000	000000
 51846	071265	265 01 0 00 066726
 51847	071266	036000	000000
 51848	071267	265 01 0 00 066752
 51849	071270	037000	000000
 51850	071271	254 00 0 00 066777
 51851	071272	254 00 0 00 067016
 51852	071273	254 00 0 00 067035
 51853	071274	254 00 0 00 067054
 51854	071275	254 00 0 00 067073
 51855	071276	254 00 0 00 067112
 51856	071277	254 00 0 00 067131
 51857	071300	254 00 0 00 067150
 51858	071301	254 00 0 00 067167
 51859	071302	254 00 0 00 067206
 51860	071303	254 00 0 00 067225
 51861	071304	254 00 0 00 067244
 51862	071305	254 00 0 00 067263
 51863	071306	254 00 0 00 067302
 51864	071307	254 00 0 00 067321
DFKAA PDP-10 KL10 BASIC INSTRUCTION DIAGNOSTIC (1) VER 0,2	MACRO %52(537) 09:34 31-JAN-77 PAGE 1-10
STOR	KLM	18-JAN-77 11:42		*STOR* RESERVED STORAGE, JAN 18,1977                                               SEQ 1188

 51865	071310	254 00 0 00 067340
 51866	071311	254 00 0 00 067357
 51867	071312	254 00 0 00 067376
 51868	071313	254 00 0 00 067415
 51869	071314	254 00 0 00 067434
 51870	071315	254 00 0 00 067453
 51871	071316	254 00 0 00 067472
 51872	071317	254 00 0 00 067513
 51873	071320	254 00 0 00 067526
 51874	071321	254 00 0 00 067541
 51875	071322	265 11 0 00 067556
 51876	071323	254 00 0 00 067554
 51877	071324	265 11 0 00 067577
 51878	071325	254 00 0 00 067575
 51879	071326	265 11 0 00 067620
 51880	071327	254 00 0 00 067616
 51881	071330	265 11 0 00 067641
 51882	071331	254 00 0 00 067637
 51883	071332	265 11 0 00 067662
 51884	071333	254 00 0 00 067660
 51885	071334	265 11 0 00 067703
 51886	071335	254 00 0 00 067701
 51887	071336	265 11 0 00 067724
 51888	071337	254 00 0 00 067722
 51889	071340	265 11 0 00 067745
 51890	071341	254 00 0 00 067743
 51891	071342	254 00 0 00 070005
 51892	071343	004000	070060
 51893	071344	265 01 0 00 070160
 51894	071345	265 01 0 00 070135
 51895						LIST
 51896	071346	000000	000000		ENDSLD:	0
 51897
 51898					IFDEF	DEBUG,<
 51899					PATCH:	BLOCK DEBUG		;PATCHING AREA
 51900					>
 51901
 51902					;PROGRAM VARIABLES
 51903	071347					VAR
 51904
 51905					IFDEF	PGMEND,<
 51906	071355	000000	000000		END:	0
 51907			030000			END	BEGIN	>

NO ERRORS DETECTED

PROGRAM BREAK IS 000000
ABSLUTE BREAK IS 071356
CPU TIME USED 03:37.242

18K CORE USED

A00	   902#
A100	   957#                                                                                                            SEQ 1189
A1000	  1062#
A10000	  7692#
A10100	  8110#
A10200	  8533#
A10300	  8553#
A10400	  9460#
A10500	  9483#
A10600	  9504#
A10700	  9526#
A1100	  1077#
A11000	  9578#
A11100	 10691#
A11200	 11675#
A11300	 12576#
A11400	 13072#
A11500	 13752#
A11600	 13771#
A11700	 13786#
A1200	  1090#
A12000	 14454#
A12100	 14468#
A12200	 14491#
A12300	 14509#
A12400	 14527#
A12500	   903#
A12600	   947#
A12700	   939#
A1300	  1104#
A13000	  8567#
A13100	  2034#
A13200	 10710#
A13300	  9544#
A13400	  9562#
A13500	 13569#
A13600	 13586#
A13700	 13603#
A1400	  1118#
A14000	 13619#
A14100	 13636#
A14200	 13653#
A14300	 13669#
A14400	 13686#
A14500	 13703#
A14600	 13719#
A14700	 13736#
A1500	  1132#
A15000	   918#
A15100	   929#
A1600	  1146#
A1700	  1160#
A200	   970#
A2000	  1174#
A2100	  1188#                                                                                                            SEQ 1190
A2200	  1201#
A2300	  1215#
A2400	  1229#
A2500	  1243#
A2600	  1256#
A2700	  1270#
A300	   984#
A3000	  1284#
A3100	  1296#
A3200	  2001#
A3300	  2019#
A3400	  2047#
A3500	  2072#
A3600	  2090#
A3700	  2108#
A400	  1000#
A4000	  2159#
A4100	  2175#
A4200	  2320#
A4300	  2338#
A4400	  2356#
A4500	  2123#
A4600	  2138#
A4700	  2375#
A500	  1015#
A5000	  2391#
A5100	  2407#
A5200	  2422#
A5300	  2439#
A5400	  2459#
A5500	  2472#
A5600	  2832#
A5700	  3196#
A600	  1034#
A6000	  3212#
A6100	  3232#
A6200	  3250#
A6300	  3271#
A6400	  3284#
A6500	  4353#
A6600	  5133#
A6700	  5151#
A700	  1049#
A7000	  5171#
A7100	  5188#
A7200	  5204#
A7300	  5218#
A7400	  5958#
A7500	  6883#
A7600	  7661#
A7700	  7678#
ABORT	    97#
AC	  2173#	  2206	  2206#	  2207	  2207#	  2209	  2210	  2211	  2235	  2235#	  2236	  2238	  2239	  2240     SEQ 1191
	  2264	  2264#	  2265	  2267	  2268	  2269	  2293	  2293#	  2294	  2296	  2297	  2298	 31449#	 31450
	 31455	 31456	 31458	 31459	 31461	 31462	 31464	 31465	 31467	 31468	 31470	 31471	 31473	 31474
	 31476	 31477	 31479	 31480	 31482	 31483	 31484	 50817#	 50849#	 50881#	 50913#	 50945#	 50977#	 51009#
	 51041#
AC0	   692#
ALTMGO	   451#
AMCLRB	   365#
ANXM	   365#
APR	   789	   790	   791	 42935	 43481	 43489	 43497	 43504	 43505	 43511	 43512	 43518	 43519	 43549
	 43550	 43556	 43557	 43564	 43565	 43571	 43572	 43575	 43576	 43579	 43580	 43676	 43677	 43678
	 43682	 43683	 45993	 46014	 46035	 46056	 46077	 46099	 46120	 46294	 46311	 46328	 46345	 46362
	 46379	 46396	 47965	 48008	 48030	 48052	 48074	 48096	 48118	 48140	 48158	 48168	 48170	 48196
	 48203	 48216	 48223	 48236	 48243	 48256	 48263	 48276	 48283	 48296	 48303	 48316	 48323	 48336
	 48343	 48356	 48363	 48376	 48383	 48396	 48403	 48416	 48423	 48436	 48443	 48456	 48463	 48476
	 48483	 48496	 48503	 48516	 48523	 48536	 48543	 48571	 48611	 48651	 48691	 48731	 48771	 48811
AROV	   365#	 30453	 30650	 30654
AROVTP	   365#
AROVU	   365#
AST	   566#
ATSIN	   567#
B100	 14550#
B1000	 14690#
B10000	 19505#
B10100	 19525#
B10200	 19541#
B10300	 19556#
B10400	 19572#
B10500	 19588#
B10700	 19616#
B1100	 14706#
B11000	 19631#
B11100	 19647#
B11200	 19662#
B11300	 19678#
B11500	 19696#
B11600	 19718#
B11700	 19741#
B1200	 14722#
B12100	 19756#
B12200	 19773#
B12300	 19793#
B12400	 19817#
B12500	 19833#
B12600	 19852#
B12700	 19875#
B1300	 14743#
B13000	 19892#
B13100	 19910#
B13200	 19926#
B13300	 19952#
B13400	 19973#
B13600	 19991#
B1400	 14764#                                                                                                            SEQ 1192
B14000	 20007#
B14100	 20030#
B14200	 20052#
B14400	 20076#
B14500	 20092#
B14600	 20110#
B14700	 20125#
B1500	 14788#
B15000	 20149#
B15400	 20170#
B15500	 20187#
B15600	 20208#
B15700	 20224#
B1600	 14807#
B16000	 20246#
B16100	 20261#
B16200	 20278#
B16300	 20304#
B16400	 20326#
B16500	 20348#
B16600	 20363#
B16700	 20387#
B1700	 15735#
B17000	 20403#
B17300	 20421#
B17400	 20434#
B17700	 20448#
B200	 14571#
B2000	 16400#
B20000	 20460#
B20400	 20475#
B20600	 20490#
B20700	 20505#
B2100	 17069#
B21000	 20525#
B21100	 20546#
B21400	 20563#
B21500	 20597#
B21600	 20614#
B21700	 20632#
B2200	 17448#
B22200	 20649#
B22300	 20667#
B22400	 20690#
B22500	 20708#
B22600	 20725#
B22700	 20744#
B2300	 17828#
B23000	 20767#
B23200	 20788#
B23400	 20805#
B23600	 20821#
B23700	 20838#                                                                                                            SEQ 1193
B2400	 18303#
B24000	 20853#
B24300	 20875#
B24400	 20897#
B24500	 20914#
B24600	 20930#
B24700	 20946#
B2500	 18783#
B25000	 20967#
B25100	 20984#
B25200	 21000#
B25300	 21017#
B25400	 21033#
B25500	 21050#
B25600	 21066#
B25700	 21083#
B2600	 18807#
B26000	 21098#
B26100	 21115#
B26200	 21130#
B26300	 21146#
B26500	 21167#
B26600	 21188#
B26700	 21203#
B2700	 18827#
B27000	 21224#
B27100	 21244#
B27200	 21260#
B27300	 21275#
B27400	 21296#
B27500	 21311#
B27600	 21327#
B27700	 21342#
B300	 14596#
B3000	 18844#
B30000	 21358#
B30100	 21373#
B30400	 21394#
B30500	 21409#
B30600	 21430#
B30700	 21451#
B3100	 18860#
B31000	 21467#
B31100	 21482#
B31200	 21498#
B31300	 21513#
B31400	 21529#
B31500	 21544#
B31600	 21560#
B31700	 21575#
B3200	 18875#
B32000	 21591#
B32100	 21606#                                                                                                            SEQ 1194
B32200	 21630#
B32300	 21645#
B32600	 21666#
B32700	 21681#
B3300	 18896#
B33000	 21704#
B33100	 21725#
B33200	 21741#
B33300	 21757#
B33400	 21778#
B33500	 21799#
B33600	 21815#
B33700	 21831#
B34000	 21852#
B34100	 21868#
B34200	 21884#
B34300	 21899#
B34400	 21915#
B34500	 21930#
B34600	 21946#
B34700	 21961#
B3500	 18916#
B35000	 21977#
B35500	 22000#
B35600	 22025#
B35700	 22042#
B3600	 18939#
B36000	 22072#
B36100	 22088#
B36200	 22109#
B36300	 22129#
B36400	 22150#
B36500	 22170#
B36600	 22191#
B3700	 18953#
B37100	 22211#
B37200	 22233#
B37300	 22254#
B37400	 22270#
B37500	 22285#
B37600	 22301#
B37700	 22316#
B400	 14617#
B40000	 22332#
B40100	 22347#
B40200	 22363#
B40300	 22379#
B40400	 22396#
B40700	 22412#
B41000	 22434#
B41100	 22456#
B41200	 22473#
B41500	 22489#                                                                                                            SEQ 1195
B41600	 22511#
B42000	 22534#
B42200	 22551#
B42300	 22567#
B42500	 22592#
B42700	 22607#
B4300	 18968#
B43000	 22630#
B43100	 22652#
B43400	 22669#
B43500	 22684#
B43600	 22707#
B43700	 22727#
B4400	 18990#
B44000	 22750#
B44100	 22766#
B44200	 22784#
B44300	 22801#
B44500	 22824#
B44600	 22844#
B44700	 22861#
B4500	 19008#
B45000	 22876#
B45100	 22892#
B45200	 22907#
B45400	 22933#
B45500	 22961#
B45600	 23721#
B45700	 24483#
B4600	 19032#
B46000	 25278#
B4700	 19055#
B500	 14633#
B5000	 19076#
B5100	 19102#
B5200	 19130#
B5300	 19148#
B5500	 19164#
B5600	 19188#
B5700	 19204#
B600	 14653#
B6000	 19221#
B6100	 19242#
B6200	 19258#
B6300	 19281#
B6400	 19303#
B6500	 19320#
B6600	 19336#
B6700	 19353#
B700	 14669#
B7000	 19369#
B7100	 19393#
B7200	 19415#                                                                                                            SEQ 1196
B7300	 19431#
B7400	 19446#
B7500	 19462#
B7600	 19478#
BEGEND	   447#	 42923	 51175
BEGIN	    40	    41	   378#	   735	   857	 51907
BEGIN1	   394#	   448
BEGIOT	 42914#
BELL	   570#
BIGPI1	 44632#
BIGPI2	 44743#
BIGPI3	 44854#
BIGPI4	 44965#
BIGPI5	 45076#
BIGPI6	 45187#
BIGPI7	 45298#
BIGPIX	 45409#
BIGPIY	 45520#
BIGPIZ	 45631#
BIS	   365#	 32723	 32732	 32747	 32751	 32765	 32771	 32786	 32791	 41426	 41432	 43702	 43705
C100	 26082#
C1000	 27134#
C10000	 30668#
C10100	 30690#
C10200	 30711#
C10300	 30733#
C10400	 30751#
C10500	 30767#
C1100	 27476#
C11200	 30783#
C11300	 30798#
C11400	 30812#
C11500	 30827#
C11600	 30840#
C11700	 30854#
C1200	 27492#
C12000	 30869#
C12100	 30886#
C12200	 30922#
C12300	 30939#
C12301	 30976#
C12600	 31014#
C12700	 31029#
C1300	 27947#
C13100	 31043#
C13200	 31058#
C13300	 31073#
C13400	 31110#
C13600	 31149#
C13700	 31169#
C1400	 28405#
C14000	 31188#
C14100	 31212#                                                                                                            SEQ 1197
C14200	 31231#
C14500	 31258#
C14600	 31272#
C14700	 31287#
C1500	 28421#
C15000	 31300#
C15100	 31314#
C15200	 31329#
C15300	 31343#
C15400	 31357#
C15500	 31375#
C15600	 31390#
C15700	 31405#
C1600	 28876#
C16000	 31419#
C16100	 31434#
C16200	 31449#
C16201	 31497#
C16202	 31534#
C16400	 31573#
C16500	 31588#
C16600	 31602#
C16700	 31617#
C1700	 29341#
C17000	 31633#
C17100	 31655#
C17200	 31670#
C17300	 31686#
C17400	 31700#
C17500	 31716#
C17600	 31732#
C17700	 31748#
C200	 26098#
C2000	 29573#
C20000	 31763#
C20100	 31779#
C20200	 31793#
C20300	 31809#
C20400	 31831#
C20500	 31847#
C20600	 31863#
C20700	 31879#
C2100	 29803#
C21000	 31892#
C21100	 31910#
C21200	 31930#
C21300	 31949#
C21400	 31969#	 31972	 31975
C21500	 31989#	 31993	 31995
C21600	 32008#	 32011	 32012
C21700	 32024#	 32026	 32027
C2200	 29819#
C22000	 32051	 32090#                                                                                                    SEQ 1198
C22100	 32106#
C22200	 32121#
C22300	 32137#
C22400	 32152#
C22500	 32168#
C22600	 32184#
C22700	 32201#
C23000	 32220#
C23100	 32242#
C23200	 32263#
C23300	 32287#
C23400	 32308#
C23500	 32331#
C23600	 32352#	 32356
C23700	 32374#
C2400	 29835#
C24000	 32394#
C2410	 29844#
C24100	 32409#
C24200	 32426#
C24300	 32441#
C24400	 32456#
C24500	 32470#
C24600	 32487#
C24700	 32503#
C25000	 32521#
C25100	 32538#
C25200	 32556#
C25300	 32573#
C25400	 32591#
C25500	 32606#
C25600	 32619#
C25700	 32634#
C26200	 32651#
C26300	 32669#
C26400	 32685#
C26500	 32702#
C26600	 32721#
C26700	 32745#
C2700	 29859#
C27000	 32763#
C27001	 32784#
C2710	 29868#
C27100	 32804#
C27200	 41120#
C27300	 41136#
C27400	 41150#
C27500	 41166#
C27600	 41181#
C27700	 41198#
C2A	 46418#
C2B	 46437	 46447#
C2C	 46474	 46484#                                                                                                    SEQ 1199
C2D	 46511	 46521#
C2E	 46548	 46558#
C2F	 46585	 46595#
C2G	 46622	 46632#
C2H	 46659	 46669#
C2I	 46696	 46706#
C2J	 46733	 46743#
C2K	 46770	 46780#
C2L	 46807	 46817#
C2M	 46844	 46854#
C2N	 46881	 46891#
C2O	 46918	 46928#
C2P	 46955	 46965#
C2Q	 46992	 47002#
C2R	 47029	 47039#
C2S	 47066	 47076#
C2T	 47103	 47113#
C2U	 47140	 47150#
C2V	 47177	 47188#
C300	 26112#
C3000	 29882#
C30000	 41214#
C30100	 41232#
C30101	 41248#
C30200	 41265#
C30300	 41284#
C30400	 41304#
C30500	 41325#
C30600	 41342#
C3100	 29906#
C31000	 41359#
C3110	 29923#
C31100	 41373#
C31400	 41393#
C31500	 41407#
C31501	 41424#
C31502	 41445#
C31600	 41463#
C31700	 41478#
C3200	 29937#
C3210	 29946#
C32300	 41493#
C32400	 41508#
C32500	 41525#
C32600	 41543#
C3300	 29961#
C33100	 41560#
C33300	 41578#
C33310	 41588#
C33400	 41601#
C33401	 41618#
C33500	 41636#
C33600	 41652#                                                                                                            SEQ 1200
C33700	 41667#
C33701	 41685#
C3400	 29977#
C34000	 41703#
C34100	 41716#
C34200	 41728#
C34300	 41744#
C34400	 41762#
C34500	 41779#
C34600	 41796#
C34610	 41805#
C34700	 41818#
C34710	 41825#
C3500	 29994#
C35000	 41838#
C35100	 41855#
C35200	 41872#
C35300	 41889#
C35400	 41904#
C35500	 41923#
C35600	 41948#
C35700	 41971#
C3600	 30012#
C36000	 41993#
C36100	 42017#
C36200	 42040#
C36300	 42064#
C36400	 42087#
C36500	 42110#
C36600	 42132#
C36700	 42156#
C3700	 30028#
C37000	 42179#
C37100	 42203#
C37200	 42225#
C37300	 42247#
C37400	 42269#
C37500	 42292#
C37600	 42314#
C37700	 42337#
C400	 26127#
C4000	 30044#
C40000	 42359#
C40100	 42381#
C40200	 42403#
C40300	 42426#
C40400	 42448#
C40500	 42471#
C40600	 42494#
C40700	 42518#
C4100	 30062#
C41000	 42541#
C41100	 42565#                                                                                                            SEQ 1201
C41200	 42588#
C41300	 42612#
C41400	 42635#
C41500	 42659#
C41600	 42682#
C41700	 42706#
C4200	 30078#
C42000	 42729#
C42100	 42753#
C42200	 42776#
C42300	 42800#
C42400	 42823#
C42500	 42847#
C42600	 42870#
C42700	 42894#
C4300	 30096#
C4400	 30114#
C4500	 30130#
C4600	 30145#
C4700	 30160#
C500	 26144#
C5000	 30177#
C50000	 32831#
C50100	 32856#
C50110	 32879#
C50200	 32902#
C50300	 32917#
C50301	 32941#
C50400	 32970#
C50401	 32994#
C50410	 33023#
C50500	 33046#
C50501	 33060#
C50600	 33075#
C50700	 33100#
C50710	 33124#
C5100	 30193#
C51000	 33150#
C51100	 33166#
C51101	 33189#
C51200	 33217#
C51201	 33240#
C51300	 33272#
C51310	 33288#
C51320	 33304#
C51400	 33321#
C51410	 33336#
C51420	 33352#
C51500	 33368#
C51510	 33384#
C51520	 33399#
C51600	 33415#
C51610	 33431#                                                                                                            SEQ 1202
C51620	 33447#
C51700	 33462#
C51710	 33478#
C51720	 33494#
C5200	 30209#
C52000	 33510#
C52010	 33526#
C52020	 33543#
C52100	 33562#
C52110	 33579#
C52120	 33594#
C52200	 33612#
C52210	 33627#
C52220	 33644#
C52300	 33661#
C52310	 33675#
C52320	 33688#
C52400	 33703#
C52410	 33717#
C52420	 33731#
C52500	 33750#
C52510	 33773#
C52520	 33796#
C52600	 33821#
C52610	 33845#
C52620	 33869#
C52700	 33893#
C52710	 33917#
C52720	 33940#
C5300	 30226#
C53000	 33965#
C53010	 33988#
C53020	 34012#
C53100	 34035#
C53110	 34060#
C53120	 34083#
C53200	 34107#
C53210	 34130#
C53220	 34155#
C53300	 34178#
C53310	 34203#
C53320	 34227#
C53400	 34256#
C53401	 34289#
C53410	 34326#
C53420	 34359#
C53500	 34393#
C53510	 34426#
C53520	 34459#
C53600	 34492#
C53610	 34525#
C53620	 34557#
C53700	 34591#                                                                                                            SEQ 1203
C53710	 34623#
C53720	 34656#
C5400	 30243#
C54000	 34688#
C54010	 34722#
C54020	 34754#
C54100	 34787#
C54110	 34819#
C54120	 34853#
C54200	 34885#
C54210	 34919#
C54220	 34952#
C54300	 34986#
C54310	 35010#
C54320	 35033#
C54400	 35058#
C54410	 35082#
C54420	 35106#
C54500	 35130#
C54510	 35154#
C54520	 35177#
C54600	 35202#
C54610	 35225#
C54620	 35249#
C54700	 35272#
C54710	 35297#
C54720	 35320#
C5500	 30260#
C55000	 35344#
C55010	 35367#
C55020	 35391#
C55100	 35415#
C55110	 35439#
C55120	 35464#
C55200	 35493#
C55210	 35526#
C55211	 35559#
C55220	 35597#
C55300	 35632#
C55310	 35666#
C55320	 35699#
C55400	 35733#
C55410	 35766#
C55420	 35798#
C55500	 35832#
C55510	 35863#
C55520	 35896#
C55600	 35928#
C55610	 35962#
C55620	 35994#
C55700	 36027#
C55710	 36059#
C55720	 36093#                                                                                                            SEQ 1204
C5600	 30279#
C56000	 36125#
C56010	 36159#
C56020	 36192#
C56100	 36223#
C56200	 36245#
C56300	 36266#
C56400	 36287#
C56500	 36307#
C56600	 36329#
C56700	 36345#
C56701	 36369#
C5700	 30297#
C57000	 36396#
C57001	 36419#
C5701	 30314#
C5702	 30330#
C57100	 36446#
C57200	 36463#
C57300	 36486#
C57400	 36509#
C57500	 36523#
C57600	 36545#
C57700	 36567#
C600	 26492#
C6000	 30350#
C60000	 36584#
C60100	 36606#
C60200	 36630#
C60300	 36651#
C60400	 36666#
C60500	 36688#
C60600	 36704#
C60700	 36727#
C6100	 30367#
C61000	 36743#
C61100	 36766#
C61200	 36790#
C61300	 36806#
C61400	 36830#
C61500	 36853#
C61600	 36870#
C61700	 36892#
C6200	 30384#
C62000	 36916#
C62100	 36932#
C62200	 36956#
C62300	 36979#
C62400	 36996#
C62500	 37019#
C62600	 37043#
C62700	 37059#
C6300	 30405#                                                                                                            SEQ 1205
C63000	 37083#
C63100	 37106#
C63200	 37123#
C63300	 37146#
C63400	 37170#
C63500	 37185#
C63600	 37208#
C63700	 37234#
C6400	 30428#
C64000	 37251#
C64010	 37274#
C64100	 37299#
C64110	 37324#
C64200	 37348#
C64300	 37372#
C64310	 37398#
C64400	 37421#
C64500	 37446#
C64510	 37471#
C64600	 37495#
C64700	 37516#
C6500	 30451#
C65000	 37538#
C65100	 37552#
C65200	 37579#
C65210	 37604#
C65300	 37628#
C65400	 37652#
C65410	 37678#
C65500	 37701#
C65600	 37726#
C65610	 37751#
C65700	 37775#
C6600	 30470#
C66000	 37799#
C66010	 37826#
C66100	 37851#
C66110	 37876#
C66200	 37898#
C66300	 37914#
C66301	 37936#
C66400	 37965#
C66410	 37990#
C66411	 38015#
C66500	 38042#
C66600	 38068#
C66610	 38092#
C66700	 38115#
C6700	 30490#
C67000	 38136#
C67100	 38152#
C67200	 38176#
C67210	 38202#                                                                                                            SEQ 1206
C67300	 38227#
C67310	 38253#
C67400	 38278#
C67410	 38304#
C67500	 38332#
C67510	 38354#
C67600	 38376#
C67610	 38398#
C67700	 38419#
C67710	 38440#
C700	 26847#
C7000	 30507#
C70000	 38460#
C70010	 38481#
C70100	 38501#
C70110	 38522#
C70200	 38543#
C70210	 38564#
C70300	 38587#
C70310	 38617#
C70400	 38646#
C70410	 38675#
C70500	 38698#
C70510	 38728#
C70600	 38756#
C70610	 38779#
C70700	 38801#
C70710	 38824#
C7100	 30528#
C71000	 38848#
C71010	 38872#
C71100	 38896#
C71110	 38920#
C71200	 38943#
C71210	 38966#
C71300	 38988#
C71310	 39011#
C71400	 39034#
C71410	 39058#
C71500	 39082#
C71510	 39106#
C71600	 39129#
C71610	 39160#
C71700	 39192#
C71710	 39224#
C7200	 30550#
C72000	 39256#
C72010	 39288#
C72100	 39319#
C72110	 39355#
C72200	 39384#
C72210	 39414#
C72300	 39445#                                                                                                            SEQ 1207
C72310	 39477#
C72400	 39509#
C72410	 39541#
C72500	 39570#
C72510	 39593#
C72600	 39615#
C72610	 39638#
C72700	 39662#
C72710	 39686#
C7300	 30574#
C73000	 39710#
C73010	 39734#
C73100	 39757#
C73110	 39780#
C73200	 39802#
C73210	 39825#
C73300	 39848#
C73310	 39872#
C73400	 39896#
C73410	 39920#
C73500	 39943#
C73510	 39974#
C73600	 40006#
C73610	 40038#
C73700	 40070#
C73710	 40096#
C7400	 30595#
C74000	 40126#
C74100	 40156#
C74200	 40185#
C74210	 40215#
C74300	 40246#
C74310	 40278#
C74400	 40310#
C74410	 40342#
C74500	 40371#
C74510	 40394#
C74600	 40416#
C74610	 40439#
C74700	 40463#
C74710	 40487#
C7500	 30613#
C75000	 40511#
C75010	 40535#
C75100	 40558#
C75110	 40581#
C75200	 40603#
C75210	 40626#
C75300	 40649#
C75310	 40673#
C75400	 40697#
C75410	 40721#
C75500	 40746#                                                                                                            SEQ 1208
C75510	 40778#
C75600	 40810#
C75610	 40842#
C75700	 40873#
C75710	 40903#
C7600	 30628#
C76000	 40932#
C76010	 40962#
C76100	 40993#
C76110	 41025#
C76200	 41057#
C76210	 41089#
C7700	 30647#
CCA	   365#
CHAIN	   117#
CHNOFF	   365#	 42937	 44665	 44730	 44776	 44841	 44887	 44952	 44998	 45063	 45109	 45174	 45220	 45285
	 45331	 45396	 45442	 45507	 45553	 45618	 45664	 45729
CHNON	   365#	 44643	 44664	 44686	 44708	 44729	 44754	 44775	 44797	 44819	 44840	 44865	 44886	 44908
	 44930	 44951	 44976	 44997	 45019	 45041	 45062	 45087	 45108	 45130	 45152	 45173	 45198	 45219
	 45241	 45263	 45284	 45309	 45330	 45352	 45374	 45395	 45420	 45441	 45463	 45485	 45506	 45531
	 45552	 45574	 45596	 45617	 45642	 45663	 45685	 45707	 45728	 46292	 46309	 46326	 46343	 46360
	 46377	 46394	 46439	 46476	 46513	 46550	 46587	 46624	 46661	 46698	 46735	 46772	 46809	 46846
	 46883	 46920	 46957	 46994	 47031	 47068	 47105	 47142	 47179	 47224	 47256	 47292	 47324	 47360
	 47392	 47428	 47460	 47496	 47528	 47564	 47596	 47632	 47664	 47708	 47713	 47744	 47749	 47780
	 47785	 47816	 47821	 47852	 47857	 47888	 47893	 47924	 47929	 47964	 48007	 48029	 48051	 48073
	 48095	 48117	 48139	 48157	 48195	 48215	 48235	 48255	 48275	 48295	 48315	 48335	 48355	 48375
	 48395	 48415	 48435	 48455	 48475	 48495	 48515	 48535
CKCK0	 47959#
CKCK1	 47981#
CKI01	 46149	 46158#
CKI02	 46167	 46176#
CKI03	 46185	 46194#
CKI04	 46203	 46212#
CKI05	 46221	 46230#
CKI06	 46239	 46248#
CKI07	 46257	 46266#
CLK	   365#
CLKCLR	   365#
CLKDIS	   365#	 43654
CLKENB	   365#	 43655
CLKU	   365#
CLOCKF	   433#
CNTLC	   450#
CNTRP	   365#
COMMA	   559#
CONSW	   434#
COUNTX	 48564#	 48564	 48585	 48604#	 48604	 48625	 48644#	 48644	 48665	 48684#	 48684	 48705	 48724#	 48724
	 48745	 48764#	 48764	 48785	 48804#	 48804	 48825
CPOPJ	   454#
CPOPJ1	   452#
CRLF	   246	   247	   554#
CRLF2	   250	   251	   556#
CRY0	   365#	 30387	 30530	 30671	 30675	 32222	 32244	 32265	 32289	 32310	 41267	 41286	 41306	 41375     SEQ 1209
	 41380
CRY1	   365#	 30472	 30693	 30697
CSHFLG	   613#
CSHMEM	   614#
CTRP	   365#
CYCL60	   607#
DCK	   365#	 31214	 31218	 31233	 31242
DDT	   694#
DDTLNK	   131#	   392
DDTSRT	   392#
DEBUG	 51898
DECVER	     5#	    12	    27	   413
DF22F	   518#
DIAGMN	   381#
DIAGNO	   693#
DIAMON	   695#
DING	   103#
DOLLAR	   573#
DONG11	   696#	   836	   852
DSKUPD	   418
DTE	   700#	   836	   838	   852	   854
DTE0	   701#
DTE1	   702#
DTE2	   703#
DTE3	   704#
E217	 32061#	 32091
E217A	 32061	 32064#	 32092	 32123
E220	 32062#	 32107
E220A	 32062	 32067#
E220B	 32063#	 32067	 32108
E221	 32068#	 32068	 32070	 32122
E221A	 32064	 32069#
E221B	 32065#	 32069
E222	 32070#	 32138	 32139
E222A	 32066#	 32075
E223	 32078#	 32078	 32153	 32169	 32202
E223A	 32071#	 32082	 32154
E224A	 32072#	 32072	 32170
E225	 32074#	 32074	 32185
E225A	 32076	 32079#
E225B	 32077#	 32079	 32186
E226A	 32083#	 32083
E226B	 32081#	 32084	 32203
E50301	 32943	 32944	 32952	 32961#
E50401	 32996	 32997	 33005	 33014#
E51101	 33191	 33192	 33200	 33209#
E51201	 33242	 33243	 33250	 33259#
E53401	 34291	 34292	 34299	 34314#
E55211	 35561	 35562	 35570	 35585#
E56701	 36370	 36372	 36379	 36388#
E57001	 36421	 36422	 36429	 36438#
E66301	 37938	 37939	 37946	 37955#
E66411	 38017	 38018	 38026	 38035#                                                                                    SEQ 1210
EFIELD	 50129#	 50158#	 50187#	 50216#	 50245#	 50274#	 50303#	 50332#	 50361#	 50390#	 50419#	 50448#	 50477#	 50506#
	 50535#	 50564#	 50593#	 50622#	 50651#	 50679#	 50707#	 50735#
END	 51906#
ENDFIX	   687#
ENDIT	 51134	 51149	 51174#
ENDSLD	 51896#
ERMORE	   467#
ERRPC	   438#
ERRTLS	   439#
ERSTOP	   106#
EXCASB	    34#	   416
EXCMEM	   365#
EXCPFW	   365#
EXIOT	   365#	 51138	 51163
FOV	   365#	 30492	 30509	 30552	 30714	 30718	 31151
FOVU	   365#
FRDLNK	   129#
FSELNK	   128#
FXU	   365#	 31171	 31175	 31190	 31199
HALTPI	 42932	 51194#	 51206
HLTCK	 51197	 51250#
HYPEN	   564#
IADBRK	   365#
IADEXC	   365#
IADSTP	   365#
IADUSR	   365#
IAPRC1	   365#
IAPRE1	   365#
IASRTC	   365#
IASRTE	   365#
IASRTS	   365#
ICNSLL	   365#
ICNSLR	   365#
IDATAF	   365#
IEVNPR	   365#
IFMMAN	   365#
IINSTF	   365#
IIOPFC	   365#
IIOPFL	   365#
IMAINT	   365#
IMGINM	   365#
IMGNLO	   365#
IMGNOF	   365#
IMGNON	   365#
IMIPGD	   365#
IMLAPD	   365#
INHCSH	   114#
INHPAG	   111#
INXCLR	   365#
INXM	   365#
INXSTP	   365#
IOCLR	   365#	 48158
IOT0	 42921	 43284#                                                                                                    SEQ 1211
IOT1	 43293#
IOT10	 43405#
IOT11	 43418#
IOT12	 43436#
IOT13	 43443#
IOT14	 43445#
IOT15	 43456#
IOT15A	 43464#
IOT16	 43472#
IOT16A	 43480#
IOT17	 43488#
IOT17A	 43496#
IOT18	 43503#
IOT18A	 43526#
IOT19	 43533#
IOT2	 43300#
IOT20	 43541#
IOT21	 43549#
IOT22	 43556#
IOT23	 43564#
IOT24	 43598#
IOT25	 43617#
IOT26	 43635#
IOT27	 43654#
IOT28	 43662#
IOT29	 43674#
IOT3	 43307#
IOT30	 43682#
IOT31	 43701#
IOT31A	 43653	 43675	 43689#
IOT32	 43715#
IOT33B	 43716	 43719#
IOT34	 43727#
IOT35	 43734#
IOT36	 43742#
IOT38	 43756#
IOT39	 43763#
IOT4	 43314#
IOT40	 43771#
IOT41	 43778#
IOT42	 43785#
IOT43	 43792#
IOT44	 43800#
IOT45	 43807#
IOT46	 43815#
IOT47	 43822#
IOT48	 43830#
IOT49	 43837#
IOT5	 43320#
IOT50	 43845#
IOT51	 43852#
IOT6	 43331#
IOT7	 43349#                                                                                                            SEQ 1212
IOT8	 43366#
IOT9	 43385#
IOTXX	 43283#
IOTXXX	 43281#
IOTXYZ	 43860#
IP50HZ	   365#
IPAREN	   365#
IPARER	   365#
IPRSTP	   365#
IPWRFL	   365#
IPWRLO	   365#
IRQCLR	   365#
ISPDOF	   365#
ISPDON	   365#
ITERAT	    86#	   411
ITMDIS	   365#
ITMENB	   365#
ITMOEN	   365#
ITMOUT	   365#
ITMSET	   365#
ITRCH1	   471#
ITRCNT	   411#	   781	   810	   814	   822	   823	   827
IWRITE	   365#
JENDIS	 47691#
JOB41	   365#
JOBAPR	   365#
JOBCNI	   365#
JOBDDT	   365#
JOBFF	   365#
JOBOPC	   365#
JOBREL	   365#
JOBREN	   365#
JOBSA	   365#
JOBSYM	   365#
JOBTPC	   365#
JOBUSY	   365#
JOBUUO	   365#
JOBVER	   365#
KA10	   365
KAHZ50	   119#
KAIFLG	   428#
KI10	    36#	   365
KL10	    37#	   365
KL10P0	    38#	   365
KLFLG	   429#	   783	   801	   820
KLOLD	   326
KLTYP	   645#	   782	   793	   835	   837	   851	   853
KNTRP	   365#
KTRP	   365#
LAPRAL	   365#
LAPRP1	   365#	 45993
LAPRP2	   365#	 46014
LAPRP3	   365#	 46035                                                                                                     SEQ 1213
LAPRP4	   365#	 46056
LAPRP5	   365#	 46077
LAPRP6	   365#	 46099
LAPRP7	   365#	 46120
LAROVT	   365#
LAST	 42927#	 43314	 43315	 43320	 43321	 43349	 43350	 43366	 43367	 43386	 43419	 43437	 43703	 48197
	 48217	 48237	 48257	 48277	 48297	 48317	 48337	 48357	 48377	 48397	 48417	 48437	 48457	 48477
	 48497	 48517	 48537
LCADEN	   365#
LCADRP	   365#
LCASDE	   365#
LCASLD	   365#
LCASLO	   365#
LCASWB	   365#
LCASWD	   365#	 43483	 43552
LCCAER	   365#	 42936
LCCASD	   365#	 42935	 43550
LCHNOF	   365#
LCHNON	   365#
LCIOPF	   365#	 42935	 43565
LCNTRP	   365#	 51087
LCNTXT	   365#
LCNXER	   365#	 42935	 43576
LCPAER	   365#	 42935	 43572
LCPWRF	   365#	 42935	 43557
LCSAER	   365#	 42936
LCSBER	   365#	 42935	 43580
LCSLOA	   365#
LCSLOO	   365#
LCTRP	   365#	 51088
LCWSX	   365#
LDATAF	   365#
LDCAER	   365#	 42936
LDCASD	   365#	 42936	 48009	 48031	 48053	 48075	 48097	 48119	 48141
LDEXCB	   365#
LDIOPF	   365#	 42936	 48008	 48030	 48052	 48074	 48096	 48118	 48140
LDLNK	   130#	   381	   383
LDNXER	   365#	 42936	 48008	 48030	 48052	 48074	 48096	 48118	 48140
LDPAER	   365#	 42936	 48008	 48030	 48052	 48074	 48096	 48118	 48140
LDPWRF	   365#	 42936	 48008	 48030	 48052	 48074	 48096	 48118	 48140
LDSAER	   365#	 42936
LDSBER	   365#	 42935	 48008	 48030	 48052	 48074	 48096	 48118	 48140
LDUSRB	   365#
LEBXMH	   365#
LEBXML	   365#
LECAER	   365#
LECASD	   365#	 46077	 47966
LEIOPF	   365#	 46056	 47965
LENXER	   365#	 45993	 47965
LEPAER	   365#	 46035	 47965
LEPWRF	   365#	 46099	 46120	 47965
LESAER	   365#
LESBER	   365#	 46014	 46294	 46311	 46328	 46345	 46362	 46379	 46396	 47965	 48571	 48611	 48651	 48691     SEQ 1214
	 48731	 48771	 48811
LEUPFW	   365#
LEVNCD	   365#
LEVNPA	   365#
LEVNPD	   365#
LEXCMP	   365#
LFLGCL	   365#
LFLGDS	   365#
LFLGEN	   365#
LFLGST	   365#
LFP	   568#
LINSTF	   365#
LINT	   365#
LIOCLR	   365#	 42935
LIOPFE	   365#	 43499	 43567
LIP	   365#
LKNTRP	   365#	 51083
LKTRP	   365#	 51084
LLACBL	   365#
LLDUSB	   365#
LLPRCN	   365#
LMBXMH	   365#
LMBXML	   365#
LMUUO	   365#	 51091	 51092	 51107	 51111
LMUUOP	   365#
LNXMEN	   365#
LNXMER	   365#	 43513	 43578
LOOPER	   105#
LPAREN	   365#
LPARER	   365#	 43506	 43574
LPDOVT	   365#
LPFWPC	   365#
LPGFTR	   365#
LPICH1	   365#
LPICH2	   365#
LPICH3	   365#
LPICH4	   365#
LPICH5	   365#
LPICH6	   365#
LPICH7	   365#
LPICHA	   365#
LPICLR	   365#
LPIIP1	   365#
LPIIP2	   365#
LPIIP3	   365#
LPIIP4	   365#
LPIIP5	   365#
LPIIP6	   365#
LPIIP7	   365#
LPIOFF	   365#
LPION	   365#
LPNTRP	   365#	 51089
LPRCH1	   365#                                                                                                            SEQ 1215
LPRCH2	   365#
LPRCH3	   365#
LPRCH4	   365#
LPRCH5	   365#
LPRCH6	   365#
LPRCH7	   365#
LPRFMH	   365#
LPRFML	   365#
LPTRP	   365#	 51090
LPWRFE	   365#
LPWRFL	   365#	 43491	 43559
LREQSE	   365#
LRQCLR	   365#	 42937	 47713	 47749	 47785	 47821	 47857	 47893	 47929
LSADEN	   365#
LSADRP	   365#
LSBSEN	   365#
LSBUSE	   365#	 43520	 43582
LSCAER	   365#
LSCASD	   365#	 43481	 43549	 46077	 47966	 48009	 48031	 48053	 48075	 48097	 48119	 48141
LSECMO	   365#
LSIOPF	   365#	 43497	 43564	 46056	 47965	 48008	 48030	 48052	 48074	 48096	 48118	 48140
LSMODE	   365#
LSNTRP	   365#	 51085
LSNXER	   365#	 43511	 43575	 45993	 47965	 48008	 48030	 48052	 48074	 48096	 48118	 48140
LSPAER	   365#	 43504	 43571	 46035	 47965	 48008	 48030	 48052	 48074	 48096	 48118	 48140
LSPWRF	   365#	 43489	 43556	 46099	 46120	 47965	 48008	 48030	 48052	 48074	 48096	 48118	 48140
LSSAER	   365#
LSSBER	   365#	 43518	 43579	 46014	 46294	 46311	 46328	 46345	 46362	 46379	 46396	 47965	 48008	 48030
	 48052	 48074	 48096	 48118	 48140	 48571	 48611	 48651	 48691	 48731	 48771	 48811
LSTRP	   365#	 51086
LTBASH	   365#
LTBASL	   365#
LTRP3T	   365#
LTRPAE	   365#
LTRPEN	   365#
LUSCMP	   365#
LUUO	   365#
LUUO1	   498	   499
LUUO10	   498	   503
LUUO11	   498	   503
LUUO12	   498	   504
LUUO13	   498	   504
LUUO14	   498	   505
LUUO15	   498	   505
LUUO16	   498	   506
LUUO17	   498	   506
LUUO2	   498	   500
LUUO20	   498	   507
LUUO21	   498	   507
LUUO22	   498	   508
LUUO23	   498	   508
LUUO24	   498	   509
LUUO25	   498	   509                                                                                                     SEQ 1216
LUUO26	   498	   510
LUUO27	   498	   510
LUUO3	   498	   500
LUUO30	   498	   511
LUUO31	   498	   511
LUUO32	   498	   512
LUUO33	   498	   512
LUUO4	   498	   501
LUUO5	   498	   501
LUUO6	   498	   502
LUUO7	   498	   502
LUUOI	   365#
LWRITE	   365#
MACHTP	 51273#	 51290	 51291	 51292	 51293	 51294	 51295	 51296	 51297
MAPNEW	   519#
MARGIN	   441#	 43674
MCNVER	     4#	    12	    27	   413
MEMLOW	   521#
MEMMAP	   419
MEMSIZ	   522#
MEMTOT	   520#
MINUS	   563#
MLUUO	 48853#	 48894#	 48935#	 48976#	 49017#	 49058#	 49099#	 49140#	 49181#	 49222#	 49263#	 49304#	 49345#	 49386#
	 49427#	 49468#	 49509#	 49550#	 49591#	 49632#	 49673#	 49714#	 49755#	 49796#	 49837#	 49878#	 49919#	 49960#
	 50001#	 50042#	 50083#
MODDVC	   113#
MODDVL	    40#	   311	   414
MODDVU	    41#	   312	   415
MODLNK	   132#	   378
MONCTL	   431#	   830	   868
MONFLG	   430#	   775	   864	 42918	 46000	 46021	 46042	 46063	 46084	 46106	 46127	 46159	 46177	 46195
	 46213	 46231	 46249	 46267	 46301	 46318	 46335	 46352	 46369	 46386	 46403	 46429	 46466	 46503
	 46540	 46577	 46614	 46651	 46688	 46725	 46762	 46799	 46836	 46873	 46910	 46947	 46984	 47021
	 47058	 47095	 47132	 47169	 51133	 51148	 51243
MONTEN	   432#	   780	   816	   845
MPVU	   365#
MUHLT	 51093	 51099#
MULT0	 46392	 46402#
MULT1	 46375	 46385#
MULT2	 46358	 46368#
MULT3	 46341	 46351#
MULT4	 46324	 46334#
MULT5	 46307	 46317#
MULT6	 46290	 46300#
MULTI	 46285#
MUUO	   365#
MUUOPC	   365#
NB5300	 19122#
NOPNT	   101#
NXMU	   365#
OPRSEL	   115#
OPTIME	   533#
P	   158	   159	   160	   161	   365#	   453                                                                     SEQ 1217
PAG	   365#
PALERS	   107#
PARCLR	   365#
PARDIS	   365#
PAREA0	    79#
PAREA1	    80#	   409
PAREA2	    81#	   410
PAREA3	    82#	   407
PAREA4	    83#	   408
PAREA5	    84#	   420
PAREA6	    85#	   421
PAREA7	   420#
PAREA8	   421#
PARENB	   365#
PARU	   365#
PASCNT	   435#	   809
PDISF	   530#
PDLOVU	   365#
PDOVTP	   365#
PERIOD	   560#
PFSTRT	   387#
PGFTRP	   365#
PGMEND	    39#	 51905
PGMNAM	   412	   869	   872#
PI	   822	 42937	 43445	 43720	 43727	 43728	 43734	 43735	 43736	 43756	 43757	 43763	 43764	 43771
	 43772	 43778	 43779	 43780	 43785	 43786	 43792	 43793	 43794	 43800	 43801	 43807	 43808	 43809
	 43815	 43816	 43822	 43823	 43824	 43830	 43831	 43837	 43838	 43839	 43845	 43846	 43852	 43853
	 43854	 43884	 43888	 43912	 43916	 43940	 43944	 43968	 43972	 43996	 44000	 44024	 44028	 44052
	 44056	 44099	 44103	 44131	 44135	 44163	 44167	 44195	 44199	 44227	 44231	 44259	 44263	 44291
	 44295	 44347	 44349	 44389	 44391	 44431	 44433	 44473	 44475	 44515	 44517	 44557	 44559	 44599
	 44601	 44643	 44644	 44664	 44665	 44666	 44686	 44687	 44688	 44708	 44709	 44729	 44730	 44731
	 44754	 44755	 44775	 44776	 44777	 44797	 44798	 44799	 44819	 44820	 44840	 44841	 44842	 44865
	 44866	 44886	 44887	 44888	 44908	 44909	 44910	 44930	 44931	 44951	 44952	 44953	 44976	 44977
	 44997	 44998	 44999	 45019	 45020	 45021	 45041	 45042	 45062	 45063	 45064	 45087	 45088	 45108
	 45109	 45110	 45130	 45131	 45132	 45152	 45153	 45173	 45174	 45175	 45198	 45199	 45219	 45220
	 45221	 45241	 45242	 45243	 45263	 45264	 45284	 45285	 45286	 45309	 45310	 45330	 45331	 45332
	 45352	 45353	 45354	 45374	 45375	 45395	 45396	 45397	 45420	 45421	 45441	 45442	 45443	 45463
	 45464	 45465	 45485	 45486	 45506	 45507	 45508	 45531	 45532	 45552	 45553	 45554	 45574	 45575
	 45576	 45596	 45597	 45617	 45618	 45619	 45642	 45643	 45663	 45664	 45665	 45685	 45686	 45687
	 45707	 45708	 45728	 45729	 45730	 45772	 45776	 45777	 45803	 45807	 45808	 45834	 45838	 45839
	 45865	 45869	 45870	 45896	 45900	 45901	 45927	 45931	 45932	 45958	 45962	 45963	 45992	 46013
	 46034	 46055	 46076	 46098	 46119	 46151	 46169	 46187	 46205	 46223	 46241	 46259	 46292	 46309
	 46326	 46343	 46360	 46377	 46394	 46439	 46440	 46476	 46477	 46513	 46514	 46550	 46551	 46587
	 46588	 46624	 46625	 46661	 46662	 46698	 46699	 46735	 46736	 46772	 46773	 46809	 46810	 46846
	 46847	 46883	 46884	 46920	 46921	 46957	 46958	 46994	 46995	 47031	 47032	 47068	 47069	 47105
	 47106	 47142	 47143	 47179	 47180	 47224	 47256	 47292	 47324	 47360	 47392	 47428	 47460	 47496
	 47528	 47564	 47596	 47632	 47664	 47708	 47713	 47715	 47744	 47749	 47751	 47780	 47785	 47787
	 47816	 47821	 47823	 47852	 47857	 47859	 47888	 47893	 47895	 47924	 47929	 47931	 47964	 48007
	 48029	 48051	 48073	 48095	 48117	 48139	 48157	 48159	 48169	 48195	 48198	 48215	 48218	 48235
	 48238	 48255	 48258	 48275	 48278	 48295	 48298	 48315	 48318	 48335	 48338	 48355	 48358	 48375
	 48378	 48395	 48398	 48415	 48418	 48435	 48438	 48455	 48458	 48475	 48478	 48495	 48498	 48515
	 48518	 48535	 48538	 48570	 48610	 48650	 48690	 48730	 48770	 48810
PICHN1	   365#                                                                                                            SEQ 1218
PICHN2	   365#
PICHN3	   365#
PICHN4	   365#
PICHN5	   365#
PICHN6	   365#
PICHN7	   365#
PICHNA	   365#
PICLR	   365#	 42937	 44349	 44391	 44433	 44475	 44517	 44559	 44601	 44687	 44798	 44909	 45020	 45131
	 45242	 45353	 45464	 45575	 45686	 45776	 45807	 45838	 45869	 45900	 45931	 45962	 48169
PIOFF	   365#	 42937
PION	   365#	 43884	 43912	 43940	 43968	 43996	 44024	 44052	 45772	 45803	 45834	 45865	 45896	 45927
	 45958	 46292	 46309	 46326	 46343	 46360	 46377	 46394	 46439	 46476	 46513	 46550	 46587	 46624
	 46661	 46698	 46735	 46772	 46809	 46846	 46883	 46920	 46957	 46994	 47031	 47068	 47105	 47142
	 47179	 47224	 47256	 47292	 47324	 47360	 47392	 47428	 47460	 47496	 47528	 47564	 47596	 47632
	 47664	 47708	 47713	 47744	 47749	 47780	 47785	 47816	 47821	 47852	 47857	 47888	 47893	 47924
	 47929	 47964	 48007	 48029	 48051	 48073	 48095	 48117	 48139	 48157	 48159	 48195	 48215	 48235
	 48255	 48275	 48295	 48315	 48335	 48355	 48375	 48395	 48415	 48435	 48455	 48475	 48495	 48515
	 48535
PIOT00	 43869#
PIOT01	 44079#
PIOT02	 44319#
PIOT03	 45755#
PLIST	   599#	   599
PLISTE	   599	   601#	   685
PLISTS	   600#
PLUS	   565#
PNTENB	   529#
PNTEXT	   408#
PNTFLG	   528#
PNTINH	   531#
PNTLPT	   102#
PNTNAM	   407#
PNTRP	   365#
PNTSPC	   532#
PTRP	   365#
PVPAGI	   626#
PWFCLR	   365#
QUEST	   571#
RADIX	   574#
RADLSC	   576#
RADLSP	   575#
RANDBS	   409#
REENTR	   389#
RELIAB	   109#
REPT	   365#
REPT1	   365#
REPTU	   487#
REQSET	   365#	 44099	 44131	 44163	 44195	 44227	 44259	 44291	 44347	 44389	 44431	 44473	 44515	 44557
	 44599	 45772	 45803	 45834	 45865	 45896	 45927	 45958	 46440	 46477	 46514	 46551	 46588	 46625
	 46662	 46699	 46736	 46773	 46810	 46847	 46884	 46921	 46958	 46995	 47032	 47069	 47106	 47143
	 47180	 47224	 47256	 47292	 47324	 47360	 47392	 47428	 47460	 47496	 47528	 47564	 47596	 47632
	 47664	 47708	 47744	 47780	 47816	 47852	 47888	 47924
RESET1	 48154#                                                                                                            SEQ 1219
RESET2	 48165#
RESET3	 48176#
RESRT1	   464#
RESRT2	   465#
RETURN	   396#	   818	   825	   846
RSTART	    98#
RTP	   569#
RUNFLG	   436#
SADR1	    67#	   385
SADR10	    76#	   401
SADR11	    77#	   402
SADR2	    68#	   387
SADR3	    69#	   389
SADR4	    70#
SADR5	    71#	   450
SADR6	    72#	   451
SADR7	    73#	   398
SADR8	    74#	   399
SADR9	    75#	   400
SBINIT	   171	   395#
SCOPE	   488#
SENSE1	   365#
SENSE2	   365#
SENSE3	   365#
SENSE4	   365#
SENSE5	   365#
SENSE6	   365#
SFSTRT	   385#
SKIPNO	 47203#
SLASH	   572#
SMLUSR	   365#
SN	  1293#	  1318	  1318#	  1337	  1337#	  1356	  1356#	  1375	  1375#	  1394	  1394#	  1413	  1413#	  1432
	  1432#	  1451	  1451#	  1470	  1470#	  1489	  1489#	  1508	  1508#	  1527	  1527#	  1546	  1546#	  1565
	  1565#	  1584	  1584#	  1603	  1603#	  1622	  1622#	  1641	  1641#	  1660	  1660#	  1679	  1679#	  1698
	  1698#	  1717	  1717#	  1736	  1736#	  1755	  1755#	  1774	  1774#	  1793	  1793#	  1812	  1812#	  1831
	  1831#	  1850	  1850#	  1869	  1869#	  1888	  1888#	  1907	  1907#	  1926	  1926#	  1945	  1945#	  1964
	  1964#	  1983	  1983#	  2172#	  2205	  2205#	  2234	  2234#	  2263	  2263#	  2292	  2292#	  2469#	  2493
	  2493#	  2512	  2512#	  2531	  2531#	  2550	  2550#	  2569	  2569#	  2588	  2588#	  2607	  2607#	  2626
	  2626#	  2645	  2645#	  2664	  2664#	  2683	  2683#	  2702	  2702#	  2721	  2721#	  2740	  2740#	  2759
	  2759#	  2778	  2778#	  2797	  2797#	  2816	  2816#	  2830#	  2854	  2854#	  2873	  2873#	  2892	  2892#
	  2911	  2911#	  2930	  2930#	  2949	  2949#	  2968	  2968#	  2987	  2987#	  3006	  3006#	  3025	  3025#
	  3044	  3044#	  3063	  3063#	  3082	  3082#	  3101	  3101#	  3120	  3120#	  3139	  3139#	  3158	  3158#
	  3177	  3177#	  3281#	  3314	  3314#	  3343	  3343#	  3372	  3372#	  3401	  3401#	  3430	  3430#	  3459
	  3459#	  3488	  3488#	  3517	  3517#	  3546	  3546#	  3575	  3575#	  3604	  3604#	  3633	  3633#	  3662
	  3662#	  3691	  3691#	  3720	  3720#	  3749	  3749#	  3778	  3778#	  3807	  3807#	  3836	  3836#	  3865
	  3865#	  3894	  3894#	  3923	  3923#	  3952	  3952#	  3981	  3981#	  4010	  4010#	  4039	  4039#	  4068
	  4068#	  4097	  4097#	  4126	  4126#	  4155	  4155#	  4184	  4184#	  4213	  4213#	  4242	  4242#	  4271
	  4271#	  4300	  4300#	  4329	  4329#	  4350#	  4376	  4376#	  4397	  4397#	  4418	  4418#	  4439	  4439#
	  4460	  4460#	  4481	  4481#	  4502	  4502#	  4523	  4523#	  4544	  4544#	  4565	  4565#	  4586	  4586#
	  4607	  4607#	  4628	  4628#	  4649	  4649#	  4670	  4670#	  4691	  4691#	  4712	  4712#	  4733	  4733#
	  4754	  4754#	  4775	  4775#	  4796	  4796#	  4817	  4817#	  4838	  4838#	  4859	  4859#	  4880	  4880#
	  4901	  4901#	  4922	  4922#	  4943	  4943#	  4964	  4964#	  4985	  4985#	  5006	  5006#	  5027	  5027#
	  5048	  5048#	  5069	  5069#	  5090	  5090#	  5111	  5111#	  5215#	  5240	  5240#	  5260	  5260#	  5280     SEQ 1220
	  5280#	  5300	  5300#	  5320	  5320#	  5340	  5340#	  5360	  5360#	  5380	  5380#	  5400	  5400#	  5420
	  5420#	  5440	  5440#	  5460	  5460#	  5480	  5480#	  5500	  5500#	  5520	  5520#	  5540	  5540#	  5560
	  5560#	  5580	  5580#	  5600	  5600#	  5620	  5620#	  5640	  5640#	  5660	  5660#	  5680	  5680#	  5700
	  5700#	  5720	  5720#	  5740	  5740#	  5760	  5760#	  5780	  5780#	  5800	  5800#	  5820	  5820#	  5840
	  5840#	  5860	  5860#	  5880	  5880#	  5900	  5900#	  5920	  5920#	  5940	  5940#	  5955#	  5985	  5985#
	  6010	  6010#	  6035	  6035#	  6060	  6060#	  6085	  6085#	  6110	  6110#	  6135	  6135#	  6160	  6160#
	  6185	  6185#	  6210	  6210#	  6235	  6235#	  6260	  6260#	  6285	  6285#	  6310	  6310#	  6335	  6335#
	  6360	  6360#	  6385	  6385#	  6410	  6410#	  6435	  6435#	  6460	  6460#	  6485	  6485#	  6510	  6510#
	  6535	  6535#	  6560	  6560#	  6585	  6585#	  6610	  6610#	  6635	  6635#	  6660	  6660#	  6685	  6685#
	  6710	  6710#	  6735	  6735#	  6760	  6760#	  6785	  6785#	  6810	  6810#	  6835	  6835#	  6860	  6860#
	  6880#	  6908	  6908#	  6929	  6929#	  6950	  6950#	  6971	  6971#	  6992	  6992#	  7013	  7013#	  7034
	  7034#	  7055	  7055#	  7076	  7076#	  7097	  7097#	  7118	  7118#	  7139	  7139#	  7160	  7160#	  7181
	  7181#	  7202	  7202#	  7223	  7223#	  7244	  7244#	  7265	  7265#	  7286	  7286#	  7307	  7307#	  7328
	  7328#	  7349	  7349#	  7370	  7370#	  7391	  7391#	  7412	  7412#	  7433	  7433#	  7454	  7454#	  7475
	  7475#	  7496	  7496#	  7517	  7517#	  7538	  7538#	  7559	  7559#	  7580	  7580#	  7601	  7601#	  7622
	  7622#	  7643	  7643#	  7689#	  7718	  7718#	  7740	  7740#	  7762	  7762#	  7784	  7784#	  7806	  7806#
	  7828	  7828#	  7850	  7850#	  7872	  7872#	  7894	  7894#	  7916	  7916#	  7938	  7938#	  7960	  7960#
	  7982	  7982#	  8004	  8004#	  8026	  8026#	  8048	  8048#	  8070	  8070#	  8092	  8092#	  8107#	  8136
	  8136#	  8158	  8158#	  8180	  8180#	  8202	  8202#	  8224	  8224#	  8246	  8246#	  8268	  8268#	  8290
	  8290#	  8312	  8312#	  8334	  8334#	  8356	  8356#	  8378	  8378#	  8400	  8400#	  8422	  8422#	  8444
	  8444#	  8466	  8466#	  8488	  8488#	  8510	  8510#	  8564#	  8596	  8596#	  8620	  8620#	  8644	  8644#
	  8668	  8668#	  8692	  8692#	  8716	  8716#	  8740	  8740#	  8764	  8764#	  8788	  8788#	  8812	  8812#
	  8836	  8836#	  8860	  8860#	  8884	  8884#	  8908	  8908#	  8932	  8932#	  8956	  8956#	  8980	  8980#
	  9004	  9004#	  9028	  9028#	  9052	  9052#	  9076	  9076#	  9100	  9100#	  9124	  9124#	  9148	  9148#
	  9172	  9172#	  9196	  9196#	  9220	  9220#	  9244	  9244#	  9268	  9268#	  9292	  9292#	  9316	  9316#
	  9340	  9340#	  9364	  9364#	  9388	  9388#	  9412	  9412#	  9436	  9436#	  9575#	  9615	  9615#	  9645
	  9645#	  9675	  9675#	  9705	  9705#	  9735	  9735#	  9765	  9765#	  9795	  9795#	  9825	  9825#	  9855
	  9855#	  9885	  9885#	  9915	  9915#	  9945	  9945#	  9975	  9975#	 10005	 10005#	 10035	 10035#	 10065
	 10065#	 10095	 10095#	 10125	 10125#	 10155	 10155#	 10185	 10185#	 10215	 10215#	 10245	 10245#	 10275
	 10275#	 10305	 10305#	 10335	 10335#	 10365	 10365#	 10395	 10395#	 10425	 10425#	 10455	 10455#	 10485
	 10485#	 10515	 10515#	 10545	 10545#	 10575	 10575#	 10605	 10605#	 10635	 10635#	 10665	 10665#	 10707#
	 10743	 10743#	 10769	 10769#	 10795	 10795#	 10821	 10821#	 10847	 10847#	 10873	 10873#	 10899	 10899#
	 10925	 10925#	 10951	 10951#	 10977	 10977#	 11003	 11003#	 11029	 11029#	 11055	 11055#	 11081	 11081#
	 11107	 11107#	 11133	 11133#	 11159	 11159#	 11185	 11185#	 11211	 11211#	 11237	 11237#	 11263	 11263#
	 11289	 11289#	 11315	 11315#	 11341	 11341#	 11367	 11367#	 11393	 11393#	 11419	 11419#	 11445	 11445#
	 11471	 11471#	 11497	 11497#	 11523	 11523#	 11549	 11549#	 11575	 11575#	 11601	 11601#	 11627	 11627#
	 11653	 11653#	 11672#	 11706	 11706#	 11731	 11731#	 11756	 11756#	 11781	 11781#	 11806	 11806#	 11831
	 11831#	 11856	 11856#	 11881	 11881#	 11906	 11906#	 11931	 11931#	 11956	 11956#	 11981	 11981#	 12006
	 12006#	 12031	 12031#	 12056	 12056#	 12081	 12081#	 12106	 12106#	 12131	 12131#	 12156	 12156#	 12181
	 12181#	 12206	 12206#	 12231	 12231#	 12256	 12256#	 12281	 12281#	 12306	 12306#	 12331	 12331#	 12356
	 12356#	 12381	 12381#	 12406	 12406#	 12431	 12431#	 12456	 12456#	 12481	 12481#	 12506	 12506#	 12531
	 12531#	 12556	 12556#	 12572#	 12608	 12608#	 12634	 12634#	 12660	 12660#	 12686	 12686#	 12712	 12712#
	 12738	 12738#	 12764	 12764#	 12790	 12790#	 12816	 12816#	 12842	 12842#	 12868	 12868#	 12894	 12894#
	 12920	 12920#	 12946	 12946#	 12972	 12972#	 12998	 12998#	 13024	 13024#	 13050	 13050#	 13068#	 13104
	 13104#	 13130	 13130#	 13156	 13156#	 13182	 13182#	 13208	 13208#	 13234	 13234#	 13260	 13260#	 13286
	 13286#	 13312	 13312#	 13338	 13338#	 13364	 13364#	 13390	 13390#	 13416	 13416#	 13442	 13442#	 13468
	 13468#	 13494	 13494#	 13520	 13520#	 13546	 13546#	 13783#	 13805	 13805#	 13823	 13823#	 13841	 13841#
	 13859	 13859#	 13877	 13877#	 13895	 13895#	 13913	 13913#	 13931	 13931#	 13949	 13949#	 13967	 13967#
	 13985	 13985#	 14003	 14003#	 14021	 14021#	 14039	 14039#	 14057	 14057#	 14075	 14075#	 14093	 14093#
	 14111	 14111#	 14129	 14129#	 14147	 14147#	 14165	 14165#	 14183	 14183#	 14201	 14201#	 14219	 14219#
	 14237	 14237#	 14255	 14255#	 14273	 14273#	 14291	 14291#	 14309	 14309#	 14327	 14327#	 14345	 14345#
	 14363	 14363#	 14381	 14381#	 14399	 14399#	 14417	 14417#	 14435	 14435#	 14804#	 14838	 14838#	 14865
	 14865#	 14892	 14892#	 14919	 14919#	 14946	 14946#	 14973	 14973#	 15000	 15000#	 15027	 15027#	 15054     SEQ 1221
	 15054#	 15081	 15081#	 15108	 15108#	 15135	 15135#	 15162	 15162#	 15189	 15189#	 15216	 15216#	 15243
	 15243#	 15270	 15270#	 15297	 15297#	 15344	 15344#	 15366	 15366#	 15388	 15388#	 15410	 15410#	 15432
	 15432#	 15454	 15454#	 15476	 15476#	 15498	 15498#	 15520	 15520#	 15542	 15542#	 15564	 15564#	 15586
	 15586#	 15608	 15608#	 15630	 15630#	 15652	 15652#	 15674	 15674#	 15696	 15696#	 15718	 15718#	 15732#
	 15754	 15754#	 15772	 15772#	 15790	 15790#	 15808	 15808#	 15826	 15826#	 15844	 15844#	 15862	 15862#
	 15880	 15880#	 15898	 15898#	 15916	 15916#	 15934	 15934#	 15952	 15952#	 15970	 15970#	 15988	 15988#
	 16006	 16006#	 16024	 16024#	 16042	 16042#	 16060	 16060#	 16078	 16078#	 16096	 16096#	 16114	 16114#
	 16132	 16132#	 16150	 16150#	 16168	 16168#	 16186	 16186#	 16204	 16204#	 16222	 16222#	 16240	 16240#
	 16258	 16258#	 16276	 16276#	 16294	 16294#	 16312	 16312#	 16330	 16330#	 16348	 16348#	 16366	 16366#
	 16384	 16384#	 16397#	 16419	 16419#	 16437	 16437#	 16455	 16455#	 16473	 16473#	 16491	 16491#	 16509
	 16509#	 16527	 16527#	 16545	 16545#	 16563	 16563#	 16581	 16581#	 16599	 16599#	 16617	 16617#	 16635
	 16635#	 16653	 16653#	 16671	 16671#	 16689	 16689#	 16707	 16707#	 16725	 16725#	 16743	 16743#	 16761
	 16761#	 16779	 16779#	 16797	 16797#	 16815	 16815#	 16833	 16833#	 16851	 16851#	 16869	 16869#	 16887
	 16887#	 16905	 16905#	 16923	 16923#	 16941	 16941#	 16959	 16959#	 16977	 16977#	 16995	 16995#	 17013
	 17013#	 17031	 17031#	 17049	 17049#	 17066#	 17091	 17091#	 17111	 17111#	 17131	 17131#	 17151	 17151#
	 17171	 17171#	 17191	 17191#	 17211	 17211#	 17231	 17231#	 17251	 17251#	 17271	 17271#	 17291	 17291#
	 17311	 17311#	 17331	 17331#	 17351	 17351#	 17371	 17371#	 17391	 17391#	 17411	 17411#	 17431	 17431#
	 17445#	 17470	 17470#	 17490	 17490#	 17510	 17510#	 17530	 17530#	 17550	 17550#	 17570	 17570#	 17590
	 17590#	 17610	 17610#	 17630	 17630#	 17650	 17650#	 17670	 17670#	 17690	 17690#	 17710	 17710#	 17730
	 17730#	 17750	 17750#	 17770	 17770#	 17790	 17790#	 17810	 17810#	 17824#	 17858	 17858#	 17883	 17883#
	 17908	 17908#	 17933	 17933#	 17958	 17958#	 17983	 17983#	 18008	 18008#	 18033	 18033#	 18058	 18058#
	 18083	 18083#	 18108	 18108#	 18133	 18133#	 18158	 18158#	 18183	 18183#	 18208	 18208#	 18233	 18233#
	 18258	 18258#	 18283	 18283#	 18299#	 18333	 18333#	 18358	 18358#	 18383	 18383#	 18408	 18408#	 18433
	 18433#	 18458	 18458#	 18483	 18483#	 18508	 18508#	 18533	 18533#	 18558	 18558#	 18583	 18583#	 18608
	 18608#	 18633	 18633#	 18658	 18658#	 18683	 18683#	 18708	 18708#	 18733	 18733#	 18758	 18758#	 22958#
	 22983	 22983#	 23003	 23003#	 23023	 23023#	 23043	 23043#	 23063	 23063#	 23083	 23083#	 23103	 23103#
	 23123	 23123#	 23143	 23143#	 23163	 23163#	 23183	 23183#	 23203	 23203#	 23223	 23223#	 23243	 23243#
	 23263	 23263#	 23283	 23283#	 23303	 23303#	 23323	 23323#	 23362	 23362#	 23382	 23382#	 23402	 23402#
	 23422	 23422#	 23442	 23442#	 23462	 23462#	 23482	 23482#	 23502	 23502#	 23522	 23522#	 23542	 23542#
	 23562	 23562#	 23582	 23582#	 23602	 23602#	 23622	 23622#	 23642	 23642#	 23662	 23662#	 23682	 23682#
	 23702	 23702#	 23720#	 23743	 23743#	 23763	 23763#	 23783	 23783#	 23803	 23803#	 23823	 23823#	 23843
	 23843#	 23863	 23863#	 23883	 23883#	 23903	 23903#	 23923	 23923#	 23943	 23943#	 23963	 23963#	 23983
	 23983#	 24003	 24003#	 24023	 24023#	 24043	 24043#	 24063	 24063#	 24083	 24083#	 24122	 24122#	 24142
	 24142#	 24162	 24162#	 24182	 24182#	 24202	 24202#	 24222	 24222#	 24242	 24242#	 24262	 24262#	 24282
	 24282#	 24302	 24302#	 24322	 24322#	 24342	 24342#	 24362	 24362#	 24382	 24382#	 24402	 24402#	 24422
	 24422#	 24442	 24442#	 24462	 24462#	 24480#	 24507	 24507#	 24528	 24528#	 24549	 24549#	 24570	 24570#
	 24591	 24591#	 24612	 24612#	 24633	 24633#	 24654	 24654#	 24675	 24675#	 24696	 24696#	 24717	 24717#
	 24738	 24738#	 24759	 24759#	 24780	 24780#	 24801	 24801#	 24822	 24822#	 24843	 24843#	 24863	 24863#
	 24902	 24902#	 24923	 24923#	 24944	 24944#	 24965	 24965#	 24986	 24986#	 25007	 25007#	 25028	 25028#
	 25049	 25049#	 25070	 25070#	 25091	 25091#	 25112	 25112#	 25133	 25133#	 25154	 25154#	 25175	 25175#
	 25196	 25196#	 25217	 25217#	 25238	 25238#	 25258	 25258#	 25275#	 25302	 25302#	 25323	 25323#	 25344
	 25344#	 25365	 25365#	 25386	 25386#	 25407	 25407#	 25428	 25428#	 25449	 25449#	 25470	 25470#	 25491
	 25491#	 25512	 25512#	 25533	 25533#	 25554	 25554#	 25575	 25575#	 25596	 25596#	 25617	 25617#	 25638
	 25638#	 25659	 25659#	 25698	 25698#	 25719	 25719#	 25740	 25740#	 25761	 25761#	 25782	 25782#	 25803
	 25803#	 25824	 25824#	 25845	 25845#	 25866	 25866#	 25887	 25887#	 25908	 25908#	 25929	 25929#	 25950
	 25950#	 25971	 25971#	 25992	 25992#	 26013	 26013#	 26034	 26034#	 26055	 26055#	 26136#	 26202	 26202#
	 26220	 26220#	 26238	 26238#	 26256	 26256#	 26274	 26274#	 26292	 26292#	 26310	 26310#	 26328	 26328#
	 26346	 26346#	 26364	 26364#	 26382	 26382#	 26400	 26400#	 26418	 26418#	 26436	 26436#	 26454	 26454#
	 26472	 26472#	 26484#	 26566	 26566#	 26585	 26585#	 26604	 26604#	 26623	 26623#	 26642	 26642#	 26661
	 26661#	 26680	 26680#	 26699	 26699#	 26718	 26718#	 26737	 26737#	 26756	 26756#	 26775	 26775#	 26794
	 26794#	 26813	 26813#	 26832	 26832#	 26844#	 26867	 26867#	 26885	 26885#	 26903	 26903#	 26921	 26921#
	 26939	 26939#	 26957	 26957#	 26975	 26975#	 26993	 26993#	 27011	 27011#	 27029	 27029#	 27047	 27047#
	 27065	 27065#	 27083	 27083#	 27101	 27101#	 27119	 27119#	 27131#	 27159	 27159#	 27180	 27180#	 27201     SEQ 1222
	 27201#	 27222	 27222#	 27243	 27243#	 27264	 27264#	 27285	 27285#	 27306	 27306#	 27327	 27327#	 27348
	 27348#	 27369	 27369#	 27390	 27390#	 27411	 27411#	 27432	 27432#	 27453	 27453#	 27489#	 27520	 27520#
	 27544	 27544#	 27568	 27568#	 27592	 27592#	 27616	 27616#	 27640	 27640#	 27664	 27664#	 27688	 27688#
	 27712	 27712#	 27736	 27736#	 27760	 27760#	 27784	 27784#	 27808	 27808#	 27832	 27832#	 27856	 27856#
	 27880	 27880#	 27904	 27904#	 27928	 27928#	 27944#	 27975	 27975#	 27999	 27999#	 28023	 28023#	 28047
	 28047#	 28071	 28071#	 28095	 28095#	 28119	 28119#	 28143	 28143#	 28167	 28167#	 28191	 28191#	 28215
	 28215#	 28239	 28239#	 28263	 28263#	 28287	 28287#	 28311	 28311#	 28335	 28335#	 28359	 28359#	 28383
	 28383#	 28418#	 28449	 28449#	 28473	 28473#	 28497	 28497#	 28521	 28521#	 28545	 28545#	 28569	 28569#
	 28593	 28593#	 28617	 28617#	 28641	 28641#	 28665	 28665#	 28689	 28689#	 28713	 28713#	 28737	 28737#
	 28761	 28761#	 28785	 28785#	 28809	 28809#	 28833	 28833#	 28857	 28857#	 28873#	 28904	 28904#	 28928
	 28928#	 28952	 28952#	 28976	 28976#	 29000	 29000#	 29024	 29024#	 29048	 29048#	 29072	 29072#	 29096
	 29096#	 29120	 29120#	 29144	 29144#	 29168	 29168#	 29192	 29192#	 29216	 29216#	 29240	 29240#	 29264
	 29264#	 29288	 29288#	 29312	 29312#	 29330#	 29352	 29352#	 29366	 29366#	 29380	 29380#	 29394	 29394#
	 29408	 29408#	 29422	 29422#	 29436	 29436#	 29450	 29450#	 29464	 29464#	 29478	 29478#	 29492	 29492#
	 29506	 29506#	 29520	 29520#	 29534	 29534#	 29548	 29548#	 29563#	 29584	 29584#	 29598	 29598#	 29612
	 29612#	 29626	 29626#	 29640	 29640#	 29654	 29654#	 29668	 29668#	 29682	 29682#	 29696	 29696#	 29710
	 29710#	 29724	 29724#	 29738	 29738#	 29752	 29752#	 29766	 29766#	 29780	 29780#
SNTRP	   365#
SPACE	   561#
SRTDDT	   391#
START	   379	   778	   787	   802	   806	   860#
START1	   398#
START2	   399#
START3	   400#
START4	   401#
START5	   402#
STARTA	    67	    68	    69	    70	    71	    72	    73	    74	    75	    76	    77	   394	   804	   815
	   824	   831	   841	   867	   870	   893#
STRP	   365#
SUBLNK	   133#	   395
SWTEXR	   410#
SYSEXR	   383#
TAB	   562#
TABLE	 51282#	 51303
TESTPC	   437#
TICKS	   440#
TN0	   365#
TN1	   365#
TNUMB	 43330#	 43330	 43339	 43348#	 43348	 43356	 43365#	 43365	 43375	 43384#	 43384	 43395	 43404#	 43404
	 43408	 43417#	 43417	 43426	 43435#	 43435	 43588	 43597#	 43597	 43607	 43616#	 43616	 43625	 43634#
	 43634	 43643	 43652#	 43652	 43691	 43700#	 43700	 43710	 43880#	 43880	 43893	 43908#	 43908	 43921
	 43936#	 43936	 43949	 43964#	 43964	 43977	 43992#	 43992	 44005	 44020#	 44020	 44033	 44048#	 44048
	 44061	 44095#	 44095	 44108	 44127#	 44127	 44140	 44159#	 44159	 44172	 44191#	 44191	 44204	 44223#
	 44223	 44236	 44255#	 44255	 44268	 44287#	 44287	 44300	 44343#	 44343	 44358	 44385#	 44385	 44400
	 44427#	 44427	 44442	 44469#	 44469	 44484	 44511#	 44511	 44526	 44553#	 44553	 44568	 44595#	 44595
	 44610	 44639#	 44639	 44650	 44659#	 44659	 44672	 44681#	 44681	 44694	 44703#	 44703	 44715	 44724#
	 44724	 44736	 44750#	 44750	 44761	 44770#	 44770	 44783	 44792#	 44792	 44805	 44814#	 44814	 44826
	 44835#	 44835	 44847	 44861#	 44861	 44872	 44881#	 44881	 44894	 44903#	 44903	 44916	 44925#	 44925
	 44937	 44946#	 44946	 44958	 44972#	 44972	 44983	 44992#	 44992	 45005	 45014#	 45014	 45027	 45036#
	 45036	 45048	 45057#	 45057	 45069	 45083#	 45083	 45094	 45103#	 45103	 45116	 45125#	 45125	 45138
	 45147#	 45147	 45159	 45168#	 45168	 45180	 45194#	 45194	 45205	 45214#	 45214	 45227	 45236#	 45236
	 45249	 45258#	 45258	 45270	 45279#	 45279	 45291	 45305#	 45305	 45316	 45325#	 45325	 45338	 45347#
	 45347	 45360	 45369#	 45369	 45381	 45390#	 45390	 45402	 45416#	 45416	 45427	 45436#	 45436	 45449     SEQ 1223
	 45458#	 45458	 45471	 45480#	 45480	 45492	 45501#	 45501	 45513	 45527#	 45527	 45538	 45547#	 45547
	 45560	 45569#	 45569	 45582	 45591#	 45591	 45603	 45612#	 45612	 45624	 45638#	 45638	 45649	 45658#
	 45658	 45671	 45680#	 45680	 45693	 45702#	 45702	 45714	 45723#	 45723	 45735	 45768#	 45768	 45782
	 45799#	 45799	 45813	 45830#	 45830	 45844	 45861#	 45861	 45875	 45892#	 45892	 45906	 45923#	 45923
	 45937	 45954#	 45954	 45968	 46421#	 46421	 46449	 46458#	 46458	 46486	 46495#	 46495	 46523	 46532#
	 46532	 46560	 46569#	 46569	 46597	 46606#	 46606	 46634	 46643#	 46643	 46671	 46680#	 46680	 46708
	 46717#	 46717	 46745	 46754#	 46754	 46782	 46791#	 46791	 46819	 46828#	 46828	 46856	 46865#	 46865
	 46893	 46902#	 46902	 46930	 46939#	 46939	 46967	 46976#	 46976	 47004	 47013#	 47013	 47041	 47050#
	 47050	 47078	 47087#	 47087	 47115	 47124#	 47124	 47152	 47161#	 47161	 47189	 47705#	 47705	 47720
	 47741#	 47741	 47756	 47777#	 47777	 47792	 47813#	 47813	 47828	 47849#	 47849	 47864	 47885#	 47885
	 47900	 47921#	 47921	 47936	 48562#	 48562	 48575	 48602#	 48602	 48615	 48642#	 48642	 48655	 48682#
	 48682	 48695	 48722#	 48722	 48735	 48762#	 48762	 48775	 48802#	 48802	 48815	 48857#	 48857	 48874
	 48898#	 48898	 48915	 48939#	 48939	 48956	 48980#	 48980	 48997	 49021#	 49021	 49038	 49062#	 49062
	 49079	 49103#	 49103	 49120	 49144#	 49144	 49161	 49185#	 49185	 49202	 49226#	 49226	 49243	 49267#
	 49267	 49284	 49308#	 49308	 49325	 49349#	 49349	 49366	 49390#	 49390	 49407	 49431#	 49431	 49448
	 49472#	 49472	 49489	 49513#	 49513	 49530	 49554#	 49554	 49571	 49595#	 49595	 49612	 49636#	 49636
	 49653	 49677#	 49677	 49694	 49718#	 49718	 49735	 49759#	 49759	 49776	 49800#	 49800	 49817	 49841#
	 49841	 49858	 49882#	 49882	 49899	 49923#	 49923	 49940	 49964#	 49964	 49981	 50005#	 50005	 50022
	 50046#	 50046	 50063	 50087#	 50087	 50104	 50133#	 50133	 50145	 50162#	 50162	 50174	 50191#	 50191
	 50203	 50220#	 50220	 50232	 50249#	 50249	 50261	 50278#	 50278	 50290	 50307#	 50307	 50319	 50336#
	 50336	 50348	 50365#	 50365	 50377	 50394#	 50394	 50406	 50423#	 50423	 50435	 50452#	 50452	 50464
	 50481#	 50481	 50493	 50510#	 50510	 50522	 50539#	 50539	 50551	 50568#	 50568	 50580	 50597#	 50597
	 50609	 50626#	 50626	 50638	 50655#	 50655	 50667	 50683#	 50683	 50695	 50711#	 50711	 50723	 50739#
	 50739	 50751	 50822#	 50822	 50836	 50854#	 50854	 50868	 50886#	 50886	 50900	 50918#	 50918	 50932
	 50950#	 50950	 50964	 50982#	 50982	 50996	 51014#	 51014	 51028	 51046#	 51046	 51060	 51074#	 51074
	 51102	 51118	 51129#	 51129	 51143	 51155#	 51155	 51168	 51174
TOTALS	    99#
TPEND	 51228	 51230	 51232	 51234	 51236	 51238	 51240	 51241	 51243#
TRAPPI	 42931	 51210#	 51222
TRP0A	 45990	 45999#
TRP1A	 46011	 46020#
TRP2A	 46032	 46041#
TRP3A	 46053	 46062#
TRP3TP	   365#
TRP4A	 46074	 46083#
TRP5A	 46096	 46105#
TRP6A	 46117	 46126#
TRPCLR	 42933	 51182#	 51190
TRPENB	   365#
TRPFIL	 51213	 51227#
TRPSET	 43284	 51299#	 51314
TTNBRF	   620#
TTYFIL	   536#
TTYSPD	   537#
TXTINH	   110#
UOLIP	   365#
UOUSR	   365#
USER	   427#	   771	   774	   776	   777	   811	   860#	   860	   863	   865	   866	 42914	 42917	 42919
	 42920
USERF	    45#	   365#	   773	   862	 42916	 46003	 46024	 46045	 46066	 46087	 46109	 46130	 46138	 46162
	 46180	 46198	 46216	 46234	 46252	 46270	 46304	 46321	 46338	 46355	 46372	 46389	 46406	 46432
	 46469	 46506	 46543	 46580	 46617	 46654	 46691	 46728	 46765	 46802	 46839	 46876	 46913	 46950
	 46987	 47024	 47061	 47098	 47135	 47172	 51076                                                             SEQ 1224
USRASB	    35#	   417
USRCMP	   365#
USRCRF	   546#
USRIO0	 51077	 51126#
USRIO1	 51152#
USRLFF	   545#
USRPFW	   365#
UUO	 45988	 51272#
UUO01	 48848#
UUO02	 48869	 48889#
UUO03	 48910	 48930#
UUO04	 48951	 48971#
UUO05	 48992	 49012#
UUO06	 49033	 49053#
UUO07	 49074	 49094#
UUO10	 49115	 49135#
UUO11	 49156	 49176#
UUO12	 49197	 49217#
UUO13	 49238	 49258#
UUO14	 49279	 49299#
UUO15	 49320	 49340#
UUO16	 49361	 49381#
UUO17	 49402	 49422#
UUO20	 49443	 49463#
UUO21	 49484	 49504#
UUO22	 49525	 49545#
UUO23	 49566	 49586#
UUO24	 49607	 49627#
UUO25	 49648	 49668#
UUO26	 49689	 49709#
UUO27	 49730	 49750#
UUO30	 49771	 49791#
UUO31	 49812	 49832#
UUO32	 49853	 49873#
UUO33	 49894	 49914#
UUO34	 49935	 49955#
UUO35	 49976	 49996#
UUO36	 50017	 50037#
UUO37	 50058	 50078#
UUOBTH	 50795#
UUODIS	   499#
UUOEXT	   455#
UUOIND	 50763#
UUOINX	 50779#
UUOPC	 50099	 50118#
UUOPCA	 50119#
UUORTN	   456#
UUOSKP	   453#
X	 43861#	 43888	 43899	 43899#	 43916	 43927	 43927#	 43944	 43955	 43955#	 43972	 43983	 43983#	 44000
	 44011	 44011#	 44028	 44039	 44039#	 44056	 44067	 44067#	 44077#	 44103	 44114	 44114#	 44135	 44146
	 44146#	 44167	 44178	 44178#	 44199	 44210	 44210#	 44231	 44242	 44242#	 44263	 44274	 44274#	 44295
	 44306	 44306#	 44318#	 44347	 44349	 44364	 44364#	 44389	 44391	 44406	 44406#	 44431	 44433	 44448
	 44448#	 44473	 44475	 44490	 44490#	 44515	 44517	 44532	 44532#	 44557	 44559	 44574	 44574#	 44599     SEQ 1225
	 44601	 44616	 44616#	 45753#	 45777	 45788	 45788#	 45808	 45819	 45819#	 45839	 45850	 45850#	 45870
	 45881	 45881#	 45901	 45912	 45912#	 45932	 45943	 45943#	 45963	 45974	 45974#	 47201#	 47224	 47256
	 47275	 47275#	 47292	 47324	 47343	 47343#	 47360	 47392	 47411	 47411#	 47428	 47460	 47479	 47479#
	 47496	 47528	 47547	 47547#	 47564	 47596	 47615	 47615#	 47632	 47664	 47683	 47683#	 47689#	 47707
	 47730	 47730#	 47743	 47766	 47766#	 47779	 47802	 47802#	 47815	 47838	 47838#	 47851	 47874	 47874#
	 47887	 47910	 47910#	 47923	 47946	 47946#	 47980#	 48009	 48017	 48017#	 48031	 48039	 48039#	 48053
	 48061	 48061#	 48075	 48083	 48083#	 48097	 48105	 48105#	 48119	 48127	 48127#	 48141	 48149	 48149#
	 48175#	 48197	 48208	 48208#	 48217	 48228	 48228#	 48237	 48248	 48248#	 48257	 48268	 48268#	 48277
	 48288	 48288#	 48297	 48308	 48308#	 48317	 48328	 48328#	 48337	 48348	 48348#	 48357	 48368	 48368#
	 48377	 48388	 48388#	 48397	 48408	 48408#	 48417	 48428	 48428#	 48437	 48448	 48448#	 48457	 48468
	 48468#	 48477	 48488	 48488#	 48497	 48508	 48508#	 48517	 48528	 48528#	 48537	 48548	 48548#	 50117#
	 50129	 50136	 50140	 50151	 50151#	 50158	 50165	 50169	 50180	 50180#	 50187	 50194	 50198	 50209
	 50209#	 50216	 50223	 50227	 50238	 50238#	 50245	 50252	 50256	 50267	 50267#	 50274	 50281	 50285
	 50296	 50296#	 50303	 50310	 50314	 50325	 50325#	 50332	 50339	 50343	 50354	 50354#	 50361	 50368
	 50372	 50383	 50383#	 50390	 50397	 50401	 50412	 50412#	 50419	 50426	 50430	 50441	 50441#	 50448
	 50455	 50459	 50470	 50470#	 50477	 50484	 50488	 50499	 50499#	 50506	 50513	 50517	 50528	 50528#
	 50535	 50542	 50546	 50557	 50557#	 50564	 50571	 50575	 50586	 50586#	 50593	 50600	 50604	 50615
	 50615#	 50622	 50629	 50633	 50644	 50644#	 50646#	 50651	 50658	 50662	 50674#	 50679	 50686	 50690
	 50702#	 50707	 50714	 50718	 50730#	 50735	 50742	 50746	 50757#
XAC0	 51195#	 51195	 51204	 51211#	 51211	 51220	 51300#	 51300	 51311
XAC1	 51196#	 51196	 51205	 51212#	 51212	 51221	 51301#	 51301	 51312
XAC15	 51183#	 51183	 51189
XAC16	 51302#	 51302	 51313
XMUPC	 51082	 51101#
XMUUO	 51082#
XMUUO0	 51096#	 51112
XX	 22959#	 22984	 22984#	 22985	 22985#	 22986	 22988	 23004	 23004#	 23005	 23006	 23008	 23024	 23024#
	 23025	 23026	 23028	 23044	 23044#	 23045	 23046	 23048	 23064	 23064#	 23065	 23066	 23068	 23084
	 23084#	 23085	 23086	 23088	 23104	 23104#	 23105	 23106	 23108	 23124	 23124#	 23125	 23126	 23128
	 23144	 23144#	 23145	 23146	 23148	 23164	 23164#	 23165	 23166	 23168	 23184	 23184#	 23185	 23186
	 23188	 23204	 23204#	 23205	 23206	 23208	 23224	 23224#	 23225	 23226	 23228	 23244	 23244#	 23245
	 23246	 23248	 23264	 23264#	 23265	 23266	 23268	 23284	 23284#	 23285	 23286	 23288	 23304	 23304#
	 23305	 23306	 23308	 23324	 23324#	 23325	 23326	 23328	 23338#	 23363	 23363#	 23364	 23364#	 23365
	 23367	 23383	 23383#	 23384	 23385	 23387	 23403	 23403#	 23404	 23405	 23407	 23423	 23423#	 23424
	 23425	 23427	 23443	 23443#	 23444	 23445	 23447	 23463	 23463#	 23464	 23465	 23467	 23483	 23483#
	 23484	 23485	 23487	 23503	 23503#	 23504	 23505	 23507	 23523	 23523#	 23524	 23525	 23527	 23543
	 23543#	 23544	 23545	 23547	 23563	 23563#	 23564	 23565	 23567	 23583	 23583#	 23584	 23585	 23587
	 23603	 23603#	 23604	 23605	 23607	 23623	 23623#	 23624	 23625	 23627	 23643	 23643#	 23644	 23645
	 23647	 23663	 23663#	 23664	 23665	 23667	 23683	 23683#	 23684	 23685	 23687	 23703	 23703#	 23704
	 23705	 23707	 23744	 23744#	 23745	 23745#	 23747	 23748	 23764	 23764#	 23765	 23767	 23768	 23784
	 23784#	 23785	 23787	 23788	 23804	 23804#	 23805	 23807	 23808	 23824	 23824#	 23825	 23827	 23828
	 23844	 23844#	 23845	 23847	 23848	 23864	 23864#	 23865	 23867	 23868	 23884	 23884#	 23885	 23887
	 23888	 23904	 23904#	 23905	 23907	 23908	 23924	 23924#	 23925	 23927	 23928	 23944	 23944#	 23945
	 23947	 23948	 23964	 23964#	 23965	 23967	 23968	 23984	 23984#	 23985	 23987	 23988	 24004	 24004#
	 24005	 24007	 24008	 24024	 24024#	 24025	 24027	 24028	 24044	 24044#	 24045	 24047	 24048	 24064
	 24064#	 24065	 24067	 24068	 24084	 24084#	 24085	 24087	 24088	 24098#	 24123	 24123#	 24124	 24124#
	 24126	 24127	 24143	 24143#	 24144	 24146	 24147	 24163	 24163#	 24164	 24166	 24167	 24183	 24183#
	 24184	 24186	 24187	 24203	 24203#	 24204	 24206	 24207	 24223	 24223#	 24224	 24226	 24227	 24243
	 24243#	 24244	 24246	 24247	 24263	 24263#	 24264	 24266	 24267	 24283	 24283#	 24284	 24286	 24287
	 24303	 24303#	 24304	 24306	 24307	 24323	 24323#	 24324	 24326	 24327	 24343	 24343#	 24344	 24346
	 24347	 24363	 24363#	 24364	 24366	 24367	 24383	 24383#	 24384	 24386	 24387	 24403	 24403#	 24404
	 24406	 24407	 24423	 24423#	 24424	 24426	 24427	 24443	 24443#	 24444	 24446	 24447	 24463	 24463#
	 24464	 24466	 24467	 24481#	 24508	 24508#	 24509	 24509#	 24510	 24511	 24512	 24529	 24529#	 24530     SEQ 1226
	 24531	 24532	 24533	 24550	 24550#	 24551	 24552	 24553	 24554	 24571	 24571#	 24572	 24573	 24574
	 24575	 24592	 24592#	 24593	 24594	 24595	 24596	 24613	 24613#	 24614	 24615	 24616	 24617	 24634
	 24634#	 24635	 24636	 24637	 24638	 24655	 24655#	 24656	 24657	 24658	 24659	 24676	 24676#	 24677
	 24678	 24679	 24680	 24697	 24697#	 24698	 24699	 24700	 24701	 24718	 24718#	 24719	 24720	 24721
	 24722	 24739	 24739#	 24740	 24741	 24742	 24743	 24760	 24760#	 24761	 24762	 24763	 24764	 24781
	 24781#	 24782	 24783	 24784	 24785	 24802	 24802#	 24803	 24804	 24805	 24806	 24823	 24823#	 24824
	 24825	 24826	 24827	 24844	 24844#	 24845	 24846	 24847	 24848	 24864	 24864#	 24865	 24866	 24876#
	 24903	 24903#	 24904	 24904#	 24905	 24906	 24907	 24924	 24924#	 24925	 24926	 24927	 24928	 24945
	 24945#	 24946	 24947	 24948	 24949	 24966	 24966#	 24967	 24968	 24969	 24970	 24987	 24987#	 24988
	 24989	 24990	 24991	 25008	 25008#	 25009	 25010	 25011	 25012	 25029	 25029#	 25030	 25031	 25032
	 25033	 25050	 25050#	 25051	 25052	 25053	 25054	 25071	 25071#	 25072	 25073	 25074	 25075	 25092
	 25092#	 25093	 25094	 25095	 25096	 25113	 25113#	 25114	 25115	 25116	 25117	 25134	 25134#	 25135
	 25136	 25137	 25138	 25155	 25155#	 25156	 25157	 25158	 25159	 25176	 25176#	 25177	 25178	 25179
	 25180	 25197	 25197#	 25198	 25199	 25200	 25201	 25218	 25218#	 25219	 25220	 25221	 25222	 25239
	 25239#	 25240	 25241	 25242	 25243	 25259	 25259#	 25260	 25261	 25262	 25276#	 25303	 25303#	 25304
	 25304#	 25305	 25306	 25307	 25324	 25324#	 25325	 25326	 25327	 25328	 25345	 25345#	 25346	 25347
	 25348	 25349	 25366	 25366#	 25367	 25368	 25369	 25370	 25387	 25387#	 25388	 25389	 25390	 25391
	 25408	 25408#	 25409	 25410	 25411	 25412	 25429	 25429#	 25430	 25431	 25432	 25433	 25450	 25450#
	 25451	 25452	 25453	 25454	 25471	 25471#	 25472	 25473	 25474	 25475	 25492	 25492#	 25493	 25494
	 25495	 25496	 25513	 25513#	 25514	 25515	 25516	 25517	 25534	 25534#	 25535	 25536	 25537	 25538
	 25555	 25555#	 25556	 25557	 25558	 25559	 25576	 25576#	 25577	 25578	 25579	 25580	 25597	 25597#
	 25598	 25599	 25600	 25601	 25618	 25618#	 25619	 25620	 25621	 25622	 25639	 25639#	 25640	 25641
	 25642	 25643	 25660	 25660#	 25661	 25662	 25672#	 25699	 25699#	 25700	 25700#	 25701	 25702	 25703
	 25720	 25720#	 25721	 25722	 25723	 25724	 25741	 25741#	 25742	 25743	 25744	 25745	 25762	 25762#
	 25763	 25764	 25765	 25766	 25783	 25783#	 25784	 25785	 25786	 25787	 25804	 25804#	 25805	 25806
	 25807	 25808	 25825	 25825#	 25826	 25827	 25828	 25829	 25846	 25846#	 25847	 25848	 25849	 25850
	 25867	 25867#	 25868	 25869	 25870	 25871	 25888	 25888#	 25889	 25890	 25891	 25892	 25909	 25909#
	 25910	 25911	 25912	 25913	 25930	 25930#	 25931	 25932	 25933	 25934	 25951	 25951#	 25952	 25953
	 25954	 25955	 25972	 25972#	 25973	 25974	 25975	 25976	 25993	 25993#	 25994	 25995	 25996	 25997
	 26014	 26014#	 26015	 26016	 26017	 26018	 26035	 26035#	 26036	 26037	 26038	 26039	 26056	 26056#
	 26057	 26058	 26059	 26060	 29332#	 29354	 29354#	 29355	 29357	 29368	 29368#	 29369	 29371	 29382
	 29382#	 29383	 29385	 29396	 29396#	 29397	 29399	 29410	 29410#	 29411	 29413	 29424	 29424#	 29425
	 29427	 29438	 29438#	 29439	 29441	 29452	 29452#	 29453	 29455	 29466	 29466#	 29467	 29469	 29480
	 29480#	 29481	 29483	 29494	 29494#	 29495	 29497	 29508	 29508#	 29509	 29511	 29522	 29522#	 29523
	 29525	 29536	 29536#	 29537	 29539	 29550	 29550#	 29551	 29553	 29565#	 29586	 29586#	 29587	 29588
	 29600	 29600#	 29601	 29602	 29614	 29614#	 29615	 29616	 29628	 29628#	 29629	 29630	 29642	 29642#
	 29643	 29644	 29656	 29656#	 29657	 29658	 29670	 29670#	 29671	 29672	 29684	 29684#	 29685	 29686
	 29698	 29698#	 29699	 29700	 29712	 29712#	 29713	 29714	 29726	 29726#	 29727	 29728	 29740	 29740#
	 29741	 29742	 29754	 29754#	 29755	 29756	 29768	 29768#	 29769	 29770	 29782	 29782#	 29783	 29784
Y	 44078#	 44099	 44115	 44115#	 44131	 44147	 44147#	 44163	 44179	 44179#	 44195	 44211	 44211#	 44227
	 44243	 44243#	 44259	 44275	 44275#	 44291	 44307	 44307#	 45754#	 45772	 45789	 45789#	 45803	 45820
	 45820#	 45834	 45851	 45851#	 45865	 45882	 45882#	 45896	 45913	 45913#	 45927	 45944	 45944#	 45958
	 45975	 45975#	 47202#	 47220	 47222	 47252	 47254	 47274	 47274#	 47288	 47290	 47320	 47322	 47342
	 47342#	 47356	 47358	 47388	 47390	 47410	 47410#	 47424	 47426	 47456	 47458	 47478	 47478#	 47492
	 47494	 47524	 47526	 47546	 47546#	 47560	 47562	 47592	 47594	 47614	 47614#	 47628	 47630	 47660
	 47662	 47682	 47682#
YY	 12574#	 12609	 12609#	 12610	 12611	 12611#	 12614	 12635	 12635#	 12636	 12637	 12640	 12661	 12661#
	 12662	 12663	 12666	 12687	 12687#	 12688	 12689	 12692	 12713	 12713#	 12714	 12715	 12718	 12739
	 12739#	 12740	 12741	 12744	 12765	 12765#	 12766	 12767	 12770	 12791	 12791#	 12792	 12793	 12796
	 12817	 12817#	 12818	 12819	 12822	 12843	 12843#	 12844	 12845	 12848	 12869	 12869#	 12870	 12871
	 12874	 12895	 12895#	 12896	 12897	 12900	 12921	 12921#	 12922	 12923	 12926	 12947	 12947#	 12948
	 12949	 12952	 12973	 12973#	 12974	 12975	 12978	 12999	 12999#	 13000	 13001	 13004	 13025	 13025#
	 13026	 13027	 13030	 13051	 13051#	 13052	 13053	 13056	 13070#	 13105	 13105#	 13106	 13107	 13107#    SEQ 1227
	 13111	 13131	 13131#	 13132	 13133	 13137	 13157	 13157#	 13158	 13159	 13163	 13183	 13183#	 13184
	 13185	 13189	 13209	 13209#	 13210	 13211	 13215	 13235	 13235#	 13236	 13237	 13241	 13261	 13261#
	 13262	 13263	 13267	 13287	 13287#	 13288	 13289	 13293	 13313	 13313#	 13314	 13315	 13319	 13339
	 13339#	 13340	 13341	 13345	 13365	 13365#	 13366	 13367	 13371	 13391	 13391#	 13392	 13393	 13397
	 13417	 13417#	 13418	 13419	 13423	 13443	 13443#	 13444	 13445	 13449	 13469	 13469#	 13470	 13471
	 13475	 13495	 13495#	 13496	 13497	 13501	 13521	 13521#	 13522	 13523	 13527	 13547	 13547#	 13548
	 13549	 13553	 17826#	 17860	 17860#	 17862	 17862#	 17863	 17865	 17885	 17885#	 17887	 17888	 17890
	 17910	 17910#	 17912	 17913	 17915	 17935	 17935#	 17937	 17938	 17940	 17960	 17960#	 17962	 17963
	 17965	 17985	 17985#	 17987	 17988	 17990	 18010	 18010#	 18012	 18013	 18015	 18035	 18035#	 18037
	 18038	 18040	 18060	 18060#	 18062	 18063	 18065	 18085	 18085#	 18087	 18088	 18090	 18110	 18110#
	 18112	 18113	 18115	 18135	 18135#	 18137	 18138	 18140	 18160	 18160#	 18162	 18163	 18165	 18185
	 18185#	 18187	 18188	 18190	 18210	 18210#	 18212	 18213	 18215	 18235	 18235#	 18237	 18238	 18240
	 18260	 18260#	 18262	 18263	 18265	 18285	 18285#	 18287	 18288	 18290	 18301#	 18335	 18335#	 18337
	 18337#	 18338	 18340	 18360	 18360#	 18362	 18363	 18365	 18385	 18385#	 18387	 18388	 18390	 18410
	 18410#	 18412	 18413	 18415	 18435	 18435#	 18437	 18438	 18440	 18460	 18460#	 18462	 18463	 18465
	 18485	 18485#	 18487	 18488	 18490	 18510	 18510#	 18512	 18513	 18515	 18535	 18535#	 18537	 18538
	 18540	 18560	 18560#	 18562	 18563	 18565	 18585	 18585#	 18587	 18588	 18590	 18610	 18610#	 18612
	 18613	 18615	 18635	 18635#	 18637	 18638	 18640	 18660	 18660#	 18662	 18663	 18665	 18685	 18685#
	 18687	 18688	 18690	 18710	 18710#	 18712	 18713	 18715	 18735	 18735#	 18737	 18738	 18740	 18760
	 18760#	 18762	 18763	 18765
Z1	 47690#	 47708	 47713	 47731	 47731#	 47744	 47749	 47767	 47767#	 47780	 47785	 47803	 47803#	 47816
	 47821	 47839	 47839#	 47852	 47857	 47875	 47875#	 47888	 47893	 47911	 47911#	 47924	 47929	 47947
	 47947#
ZZ	  1294#	  1319	  1319#	  1320	  1320#	  1321	  1338	  1338#	  1339	  1340	  1357	  1357#	  1358	  1359
	  1376	  1376#	  1377	  1378	  1395	  1395#	  1396	  1397	  1414	  1414#	  1415	  1416	  1433	  1433#
	  1434	  1435	  1452	  1452#	  1453	  1454	  1471	  1471#	  1472	  1473	  1490	  1490#	  1491	  1492
	  1509	  1509#	  1510	  1511	  1528	  1528#	  1529	  1530	  1547	  1547#	  1548	  1549	  1566	  1566#
	  1567	  1568	  1585	  1585#	  1586	  1587	  1604	  1604#	  1605	  1606	  1623	  1623#	  1624	  1625
	  1642	  1642#	  1643	  1644	  1661	  1661#	  1662	  1663	  1680	  1680#	  1681	  1682	  1699	  1699#
	  1700	  1701	  1718	  1718#	  1719	  1720	  1737	  1737#	  1738	  1739	  1756	  1756#	  1757	  1758
	  1775	  1775#	  1776	  1777	  1794	  1794#	  1795	  1796	  1813	  1813#	  1814	  1815	  1832	  1832#
	  1833	  1834	  1851	  1851#	  1852	  1853	  1870	  1870#	  1871	  1872	  1889	  1889#	  1890	  1891
	  1908	  1908#	  1909	  1910	  1927	  1927#	  1928	  1929	  1946	  1946#	  1947	  1948	  1965	  1965#
	  1966	  1967	  1984	  1984#	  1985	  1986	  2470#	  2494	  2494#	  2495	  2495#	  2497	  2513	  2513#
	  2514	  2516	  2532	  2532#	  2533	  2535	  2551	  2551#	  2552	  2554	  2570	  2570#	  2571	  2573
	  2589	  2589#	  2590	  2592	  2608	  2608#	  2609	  2611	  2627	  2627#	  2628	  2630	  2646	  2646#
	  2647	  2649	  2665	  2665#	  2666	  2668	  2684	  2684#	  2685	  2687	  2703	  2703#	  2704	  2706
	  2722	  2722#	  2723	  2725	  2741	  2741#	  2742	  2744	  2760	  2760#	  2761	  2763	  2779	  2779#
	  2780	  2782	  2798	  2798#	  2799	  2801	  2817	  2817#	  2818	  2820	  2855	  2855#	  2857	  2874
	  2874#	  2876	  2893	  2893#	  2895	  2912	  2912#	  2914	  2931	  2931#	  2933	  2950	  2950#	  2952
	  2969	  2969#	  2971	  2988	  2988#	  2990	  3007	  3007#	  3009	  3026	  3026#	  3028	  3045	  3045#
	  3047	  3064	  3064#	  3066	  3083	  3083#	  3085	  3102	  3102#	  3104	  3121	  3121#	  3123	  3140
	  3140#	  3142	  3159	  3159#	  3161	  3178	  3178#	  3180	  3282#	  3315	  3315#	  3316	  3316#	  3318
	  3344	  3344#	  3345	  3347	  3373	  3373#	  3374	  3376	  3402	  3402#	  3403	  3405	  3431	  3431#
	  3432	  3434	  3460	  3460#	  3461	  3463	  3489	  3489#	  3490	  3492	  3518	  3518#	  3519	  3521
	  3547	  3547#	  3548	  3550	  3576	  3576#	  3577	  3579	  3605	  3605#	  3606	  3608	  3634	  3634#
	  3635	  3637	  3663	  3663#	  3664	  3666	  3692	  3692#	  3693	  3695	  3721	  3721#	  3722	  3724
	  3750	  3750#	  3751	  3753	  3779	  3779#	  3780	  3782	  3808	  3808#	  3809	  3811	  3837	  3837#
	  3838	  3840	  3866	  3866#	  3867	  3869	  3895	  3895#	  3896	  3898	  3924	  3924#	  3925	  3927
	  3953	  3953#	  3954	  3956	  3982	  3982#	  3983	  3985	  4011	  4011#	  4012	  4014	  4040	  4040#
	  4041	  4043	  4069	  4069#	  4070	  4072	  4098	  4098#	  4099	  4101	  4127	  4127#	  4128	  4130
	  4156	  4156#	  4157	  4159	  4185	  4185#	  4186	  4188	  4214	  4214#	  4215	  4217	  4243	  4243#
	  4244	  4246	  4272	  4272#	  4273	  4275	  4301	  4301#	  4302	  4304	  4330	  4330#	  4331	  4333     SEQ 1228
	  4351#	  4377	  4377#	  4378	  4378#	  4379	  4398	  4398#	  4399	  4400	  4419	  4419#	  4420	  4421
	  4440	  4440#	  4441	  4442	  4461	  4461#	  4462	  4463	  4482	  4482#	  4483	  4484	  4503	  4503#
	  4504	  4505	  4524	  4524#	  4525	  4526	  4545	  4545#	  4546	  4547	  4566	  4566#	  4567	  4568
	  4587	  4587#	  4588	  4589	  4608	  4608#	  4609	  4610	  4629	  4629#	  4630	  4631	  4650	  4650#
	  4651	  4652	  4671	  4671#	  4672	  4673	  4692	  4692#	  4693	  4694	  4713	  4713#	  4714	  4715
	  4734	  4734#	  4735	  4736	  4755	  4755#	  4756	  4757	  4776	  4776#	  4777	  4778	  4797	  4797#
	  4798	  4799	  4818	  4818#	  4819	  4820	  4839	  4839#	  4840	  4841	  4860	  4860#	  4861	  4862
	  4881	  4881#	  4882	  4883	  4902	  4902#	  4903	  4904	  4923	  4923#	  4924	  4925	  4944	  4944#
	  4945	  4946	  4965	  4965#	  4966	  4967	  4986	  4986#	  4987	  4988	  5007	  5007#	  5008	  5009
	  5028	  5028#	  5029	  5030	  5049	  5049#	  5050	  5051	  5070	  5070#	  5071	  5072	  5091	  5091#
	  5092	  5093	  5112	  5112#	  5113	  5114	  5216#	  5241	  5241#	  5242	  5242#	  5244	  5261	  5261#
	  5262	  5264	  5281	  5281#	  5282	  5284	  5301	  5301#	  5302	  5304	  5321	  5321#	  5322	  5324
	  5341	  5341#	  5342	  5344	  5361	  5361#	  5362	  5364	  5381	  5381#	  5382	  5384	  5401	  5401#
	  5402	  5404	  5421	  5421#	  5422	  5424	  5441	  5441#	  5442	  5444	  5461	  5461#	  5462	  5464
	  5481	  5481#	  5482	  5484	  5501	  5501#	  5502	  5504	  5521	  5521#	  5522	  5524	  5541	  5541#
	  5542	  5544	  5561	  5561#	  5562	  5564	  5581	  5581#	  5582	  5584	  5601	  5601#	  5602	  5604
	  5621	  5621#	  5622	  5624	  5641	  5641#	  5642	  5644	  5661	  5661#	  5662	  5664	  5681	  5681#
	  5682	  5684	  5701	  5701#	  5702	  5704	  5721	  5721#	  5722	  5724	  5741	  5741#	  5742	  5744
	  5761	  5761#	  5762	  5764	  5781	  5781#	  5782	  5784	  5801	  5801#	  5802	  5804	  5821	  5821#
	  5822	  5824	  5841	  5841#	  5842	  5844	  5861	  5861#	  5862	  5864	  5881	  5881#	  5882	  5884
	  5901	  5901#	  5902	  5904	  5921	  5921#	  5922	  5924	  5941	  5941#	  5942	  5944	  5956#	  5986
	  5986#	  5987	  5987#	  5988	  6011	  6011#	  6012	  6013	  6036	  6036#	  6037	  6038	  6061	  6061#
	  6062	  6063	  6086	  6086#	  6087	  6088	  6111	  6111#	  6112	  6113	  6136	  6136#	  6137	  6138
	  6161	  6161#	  6162	  6163	  6186	  6186#	  6187	  6188	  6211	  6211#	  6212	  6213	  6236	  6236#
	  6237	  6238	  6261	  6261#	  6262	  6263	  6286	  6286#	  6287	  6288	  6311	  6311#	  6312	  6313
	  6336	  6336#	  6337	  6338	  6361	  6361#	  6362	  6363	  6386	  6386#	  6387	  6388	  6411	  6411#
	  6412	  6413	  6436	  6436#	  6437	  6438	  6461	  6461#	  6462	  6463	  6486	  6486#	  6487	  6488
	  6511	  6511#	  6512	  6513	  6536	  6536#	  6537	  6538	  6561	  6561#	  6562	  6563	  6586	  6586#
	  6587	  6588	  6611	  6611#	  6612	  6613	  6636	  6636#	  6637	  6638	  6661	  6661#	  6662	  6663
	  6686	  6686#	  6687	  6688	  6711	  6711#	  6712	  6713	  6736	  6736#	  6737	  6738	  6761	  6761#
	  6762	  6763	  6786	  6786#	  6787	  6788	  6811	  6811#	  6812	  6813	  6836	  6836#	  6837	  6838
	  6861	  6861#	  6862	  6863	  6881#	  6909	  6909#	  6910	  6910#	  6911	  6912	  6930	  6930#	  6931
	  6932	  6933	  6951	  6951#	  6952	  6953	  6954	  6972	  6972#	  6973	  6974	  6975	  6993	  6993#
	  6994	  6995	  6996	  7014	  7014#	  7015	  7016	  7017	  7035	  7035#	  7036	  7037	  7038	  7056
	  7056#	  7057	  7058	  7059	  7077	  7077#	  7078	  7079	  7080	  7098	  7098#	  7099	  7100	  7101
	  7119	  7119#	  7120	  7121	  7122	  7140	  7140#	  7141	  7142	  7143	  7161	  7161#	  7162	  7163
	  7164	  7182	  7182#	  7183	  7184	  7185	  7203	  7203#	  7204	  7205	  7206	  7224	  7224#	  7225
	  7226	  7227	  7245	  7245#	  7246	  7247	  7248	  7266	  7266#	  7267	  7268	  7269	  7287	  7287#
	  7288	  7289	  7290	  7308	  7308#	  7309	  7310	  7311	  7329	  7329#	  7330	  7331	  7332	  7350
	  7350#	  7351	  7352	  7353	  7371	  7371#	  7372	  7373	  7374	  7392	  7392#	  7393	  7394	  7395
	  7413	  7413#	  7414	  7415	  7416	  7434	  7434#	  7435	  7436	  7437	  7455	  7455#	  7456	  7457
	  7458	  7476	  7476#	  7477	  7478	  7479	  7497	  7497#	  7498	  7499	  7500	  7518	  7518#	  7519
	  7520	  7521	  7539	  7539#	  7540	  7541	  7542	  7560	  7560#	  7561	  7562	  7563	  7581	  7581#
	  7582	  7583	  7584	  7602	  7602#	  7603	  7604	  7605	  7623	  7623#	  7624	  7625	  7626	  7644
	  7644#	  7645	  7646	  7647	  7690#	  7719	  7719#	  7720	  7720#	  7722	  7741	  7741#	  7742	  7744
	  7763	  7763#	  7764	  7766	  7785	  7785#	  7786	  7788	  7807	  7807#	  7808	  7810	  7829	  7829#
	  7830	  7832	  7851	  7851#	  7852	  7854	  7873	  7873#	  7874	  7876	  7895	  7895#	  7896	  7898
	  7917	  7917#	  7918	  7920	  7939	  7939#	  7940	  7942	  7961	  7961#	  7962	  7964	  7983	  7983#
	  7984	  7986	  8005	  8005#	  8006	  8008	  8027	  8027#	  8028	  8030	  8049	  8049#	  8050	  8052
	  8071	  8071#	  8072	  8074	  8093	  8093#	  8094	  8096	  8108#	  8137	  8137#	  8138	  8138#	  8140
	  8159	  8159#	  8160	  8162	  8181	  8181#	  8182	  8184	  8203	  8203#	  8204	  8206	  8225	  8225#
	  8226	  8228	  8247	  8247#	  8248	  8250	  8269	  8269#	  8270	  8272	  8291	  8291#	  8292	  8294
	  8313	  8313#	  8314	  8316	  8335	  8335#	  8336	  8338	  8357	  8357#	  8358	  8360	  8379	  8379#    SEQ 1229
	  8380	  8382	  8401	  8401#	  8402	  8404	  8423	  8423#	  8424	  8426	  8445	  8445#	  8446	  8448
	  8467	  8467#	  8468	  8470	  8489	  8489#	  8490	  8492	  8511	  8511#	  8512	  8514	  8565#	  8597
	  8597#	  8598	  8598#	  8599	  8600	  8601	  8621	  8621#	  8622	  8623	  8624	  8625	  8645	  8645#
	  8646	  8647	  8648	  8649	  8669	  8669#	  8670	  8671	  8672	  8673	  8693	  8693#	  8694	  8695
	  8696	  8697	  8717	  8717#	  8718	  8719	  8720	  8721	  8741	  8741#	  8742	  8743	  8744	  8745
	  8765	  8765#	  8766	  8767	  8768	  8769	  8789	  8789#	  8790	  8791	  8792	  8793	  8813	  8813#
	  8814	  8815	  8816	  8817	  8837	  8837#	  8838	  8839	  8840	  8841	  8861	  8861#	  8862	  8863
	  8864	  8865	  8885	  8885#	  8886	  8887	  8888	  8889	  8909	  8909#	  8910	  8911	  8912	  8913
	  8933	  8933#	  8934	  8935	  8936	  8937	  8957	  8957#	  8958	  8959	  8960	  8961	  8981	  8981#
	  8982	  8983	  8984	  8985	  9005	  9005#	  9006	  9007	  9008	  9009	  9029	  9029#	  9030	  9031
	  9032	  9033	  9053	  9053#	  9054	  9055	  9056	  9057	  9077	  9077#	  9078	  9079	  9080	  9081
	  9101	  9101#	  9102	  9103	  9104	  9105	  9125	  9125#	  9126	  9127	  9128	  9129	  9149	  9149#
	  9150	  9151	  9152	  9153	  9173	  9173#	  9174	  9175	  9176	  9177	  9197	  9197#	  9198	  9199
	  9200	  9201	  9221	  9221#	  9222	  9223	  9224	  9225	  9245	  9245#	  9246	  9247	  9248	  9249
	  9269	  9269#	  9270	  9271	  9272	  9273	  9293	  9293#	  9294	  9295	  9296	  9297	  9317	  9317#
	  9318	  9319	  9320	  9321	  9341	  9341#	  9342	  9343	  9344	  9345	  9365	  9365#	  9366	  9367
	  9368	  9369	  9389	  9389#	  9390	  9391	  9392	  9393	  9413	  9413#	  9414	  9415	  9416	  9417
	  9437	  9437#	  9438	  9439	  9440	  9441	  9576#	  9616	  9616#	  9617	  9617#	  9618	  9620	  9646
	  9646#	  9647	  9648	  9650	  9676	  9676#	  9677	  9678	  9680	  9706	  9706#	  9707	  9708	  9710
	  9736	  9736#	  9737	  9738	  9740	  9766	  9766#	  9767	  9768	  9770	  9796	  9796#	  9797	  9798
	  9800	  9826	  9826#	  9827	  9828	  9830	  9856	  9856#	  9857	  9858	  9860	  9886	  9886#	  9887
	  9888	  9890	  9916	  9916#	  9917	  9918	  9920	  9946	  9946#	  9947	  9948	  9950	  9976	  9976#
	  9977	  9978	  9980	 10006	 10006#	 10007	 10008	 10010	 10036	 10036#	 10037	 10038	 10040	 10066
	 10066#	 10067	 10068	 10070	 10096	 10096#	 10097	 10098	 10100	 10126	 10126#	 10127	 10128	 10130
	 10156	 10156#	 10157	 10158	 10160	 10186	 10186#	 10187	 10188	 10190	 10216	 10216#	 10217	 10218
	 10220	 10246	 10246#	 10247	 10248	 10250	 10276	 10276#	 10277	 10278	 10280	 10306	 10306#	 10307
	 10308	 10310	 10336	 10336#	 10337	 10338	 10340	 10366	 10366#	 10367	 10368	 10370	 10396	 10396#
	 10397	 10398	 10400	 10426	 10426#	 10427	 10428	 10430	 10456	 10456#	 10457	 10458	 10460	 10486
	 10486#	 10487	 10488	 10490	 10516	 10516#	 10517	 10518	 10520	 10546	 10546#	 10547	 10548	 10550
	 10576	 10576#	 10577	 10578	 10580	 10606	 10606#	 10607	 10608	 10610	 10636	 10636#	 10637	 10638
	 10640	 10666	 10666#	 10667	 10668	 10670	 10708#	 10744	 10744#	 10745	 10745#	 10747	 10748	 10770
	 10770#	 10771	 10773	 10774	 10796	 10796#	 10797	 10799	 10800	 10822	 10822#	 10823	 10825	 10826
	 10848	 10848#	 10849	 10851	 10852	 10874	 10874#	 10875	 10877	 10878	 10900	 10900#	 10901	 10903
	 10904	 10926	 10926#	 10927	 10929	 10930	 10952	 10952#	 10953	 10955	 10956	 10978	 10978#	 10979
	 10981	 10982	 11004	 11004#	 11005	 11007	 11008	 11030	 11030#	 11031	 11033	 11034	 11056	 11056#
	 11057	 11059	 11060	 11082	 11082#	 11083	 11085	 11086	 11108	 11108#	 11109	 11111	 11112	 11134
	 11134#	 11135	 11137	 11138	 11160	 11160#	 11161	 11163	 11164	 11186	 11186#	 11187	 11189	 11190
	 11212	 11212#	 11213	 11215	 11216	 11238	 11238#	 11239	 11241	 11242	 11264	 11264#	 11265	 11267
	 11268	 11290	 11290#	 11291	 11293	 11294	 11316	 11316#	 11317	 11319	 11320	 11342	 11342#	 11343
	 11345	 11346	 11368	 11368#	 11369	 11371	 11372	 11394	 11394#	 11395	 11397	 11398	 11420	 11420#
	 11421	 11423	 11424	 11446	 11446#	 11447	 11449	 11450	 11472	 11472#	 11473	 11475	 11476	 11498
	 11498#	 11499	 11501	 11502	 11524	 11524#	 11525	 11527	 11528	 11550	 11550#	 11551	 11553	 11554
	 11576	 11576#	 11577	 11579	 11580	 11602	 11602#	 11603	 11605	 11606	 11628	 11628#	 11629	 11631
	 11632	 11654	 11654#	 11655	 11657	 11658	 11673#	 11707	 11707#	 11708	 11708#	 11709	 11710	 11711
	 11732	 11732#	 11733	 11734	 11735	 11736	 11757	 11757#	 11758	 11759	 11760	 11761	 11782	 11782#
	 11783	 11784	 11785	 11786	 11807	 11807#	 11808	 11809	 11810	 11811	 11832	 11832#	 11833	 11834
	 11835	 11836	 11857	 11857#	 11858	 11859	 11860	 11861	 11882	 11882#	 11883	 11884	 11885	 11886
	 11907	 11907#	 11908	 11909	 11910	 11911	 11932	 11932#	 11933	 11934	 11935	 11936	 11957	 11957#
	 11958	 11959	 11960	 11961	 11982	 11982#	 11983	 11984	 11985	 11986	 12007	 12007#	 12008	 12009
	 12010	 12011	 12032	 12032#	 12033	 12034	 12035	 12036	 12057	 12057#	 12058	 12059	 12060	 12061
	 12082	 12082#	 12083	 12084	 12085	 12086	 12107	 12107#	 12108	 12109	 12110	 12111	 12132	 12132#
	 12133	 12134	 12135	 12136	 12157	 12157#	 12158	 12159	 12160	 12161	 12182	 12182#	 12183	 12184
	 12185	 12186	 12207	 12207#	 12208	 12209	 12210	 12211	 12232	 12232#	 12233	 12234	 12235	 12236     SEQ 1230
	 12257	 12257#	 12258	 12259	 12260	 12261	 12282	 12282#	 12283	 12284	 12285	 12286	 12307	 12307#
	 12308	 12309	 12310	 12311	 12332	 12332#	 12333	 12334	 12335	 12336	 12357	 12357#	 12358	 12359
	 12360	 12361	 12382	 12382#	 12383	 12384	 12385	 12386	 12407	 12407#	 12408	 12409	 12410	 12411
	 12432	 12432#	 12433	 12434	 12435	 12436	 12457	 12457#	 12458	 12459	 12460	 12461	 12482	 12482#
	 12483	 12484	 12485	 12486	 12507	 12507#	 12508	 12509	 12510	 12511	 12532	 12532#	 12533	 12534
	 12535	 12536	 12557	 12557#	 12558	 12559	 12560	 12561	 12573#	 12610	 12610#	 12612	 12612#	 12613
	 12636	 12636#	 12638	 12639	 12662	 12662#	 12664	 12665	 12688	 12688#	 12690	 12691	 12714	 12714#
	 12716	 12717	 12740	 12740#	 12742	 12743	 12766	 12766#	 12768	 12769	 12792	 12792#	 12794	 12795
	 12818	 12818#	 12820	 12821	 12844	 12844#	 12846	 12847	 12870	 12870#	 12872	 12873	 12896	 12896#
	 12898	 12899	 12922	 12922#	 12924	 12925	 12948	 12948#	 12950	 12951	 12974	 12974#	 12976	 12977
	 13000	 13000#	 13002	 13003	 13026	 13026#	 13028	 13029	 13052	 13052#	 13054	 13055	 13069#	 13106
	 13106#	 13108	 13108#	 13109	 13132	 13132#	 13134	 13135	 13158	 13158#	 13160	 13161	 13184	 13184#
	 13186	 13187	 13210	 13210#	 13212	 13213	 13236	 13236#	 13238	 13239	 13262	 13262#	 13264	 13265
	 13288	 13288#	 13290	 13291	 13314	 13314#	 13316	 13317	 13340	 13340#	 13342	 13343	 13366	 13366#
	 13368	 13369	 13392	 13392#	 13394	 13395	 13418	 13418#	 13420	 13421	 13444	 13444#	 13446	 13447
	 13470	 13470#	 13472	 13473	 13496	 13496#	 13498	 13499	 13522	 13522#	 13524	 13525	 13548	 13548#
	 13550	 13551	 13784#	 13806	 13806#	 13807	 13807#	 13808	 13809	 13824	 13824#	 13825	 13826	 13827
	 13842	 13842#	 13843	 13844	 13845	 13860	 13860#	 13861	 13862	 13863	 13878	 13878#	 13879	 13880
	 13881	 13896	 13896#	 13897	 13898	 13899	 13914	 13914#	 13915	 13916	 13917	 13932	 13932#	 13933
	 13934	 13935	 13950	 13950#	 13951	 13952	 13953	 13968	 13968#	 13969	 13970	 13971	 13986	 13986#
	 13987	 13988	 13989	 14004	 14004#	 14005	 14006	 14007	 14022	 14022#	 14023	 14024	 14025	 14040
	 14040#	 14041	 14042	 14043	 14058	 14058#	 14059	 14060	 14061	 14076	 14076#	 14077	 14078	 14079
	 14094	 14094#	 14095	 14096	 14097	 14112	 14112#	 14113	 14114	 14115	 14130	 14130#	 14131	 14132
	 14133	 14148	 14148#	 14149	 14150	 14151	 14166	 14166#	 14167	 14168	 14169	 14184	 14184#	 14185
	 14186	 14187	 14202	 14202#	 14203	 14204	 14205	 14220	 14220#	 14221	 14222	 14223	 14238	 14238#
	 14239	 14240	 14241	 14256	 14256#	 14257	 14258	 14259	 14274	 14274#	 14275	 14276	 14277	 14292
	 14292#	 14293	 14294	 14295	 14310	 14310#	 14311	 14312	 14313	 14328	 14328#	 14329	 14330	 14331
	 14346	 14346#	 14347	 14348	 14349	 14364	 14364#	 14365	 14366	 14367	 14382	 14382#	 14383	 14384
	 14385	 14400	 14400#	 14401	 14402	 14403	 14418	 14418#	 14419	 14420	 14421	 14436	 14436#	 14437
	 14438	 14439	 14805#	 14839	 14839#	 14840	 14840#	 14841	 14866	 14866#	 14867	 14868	 14893	 14893#
	 14894	 14895	 14920	 14920#	 14921	 14922	 14947	 14947#	 14948	 14949	 14974	 14974#	 14975	 14976
	 15001	 15001#	 15002	 15003	 15028	 15028#	 15029	 15030	 15055	 15055#	 15056	 15057	 15082	 15082#
	 15083	 15084	 15109	 15109#	 15110	 15111	 15136	 15136#	 15137	 15138	 15163	 15163#	 15164	 15165
	 15190	 15190#	 15191	 15192	 15217	 15217#	 15218	 15219	 15244	 15244#	 15245	 15246	 15271	 15271#
	 15272	 15273	 15298	 15298#	 15299	 15300	 15316#	 15345	 15345#	 15346	 15346#	 15347	 15367	 15367#
	 15368	 15369	 15389	 15389#	 15390	 15391	 15411	 15411#	 15412	 15413	 15433	 15433#	 15434	 15435
	 15455	 15455#	 15456	 15457	 15477	 15477#	 15478	 15479	 15499	 15499#	 15500	 15501	 15521	 15521#
	 15522	 15523	 15543	 15543#	 15544	 15545	 15565	 15565#	 15566	 15567	 15587	 15587#	 15588	 15589
	 15609	 15609#	 15610	 15611	 15631	 15631#	 15632	 15633	 15653	 15653#	 15654	 15655	 15675	 15675#
	 15676	 15677	 15697	 15697#	 15698	 15699	 15719	 15719#	 15720	 15721	 15733#	 15755	 15755#	 15756
	 15756#	 15758	 15773	 15773#	 15774	 15776	 15791	 15791#	 15792	 15794	 15809	 15809#	 15810	 15812
	 15827	 15827#	 15828	 15830	 15845	 15845#	 15846	 15848	 15863	 15863#	 15864	 15866	 15881	 15881#
	 15882	 15884	 15899	 15899#	 15900	 15902	 15917	 15917#	 15918	 15920	 15935	 15935#	 15936	 15938
	 15953	 15953#	 15954	 15956	 15971	 15971#	 15972	 15974	 15989	 15989#	 15990	 15992	 16007	 16007#
	 16008	 16010	 16025	 16025#	 16026	 16028	 16043	 16043#	 16044	 16046	 16061	 16061#	 16062	 16064
	 16079	 16079#	 16080	 16082	 16097	 16097#	 16098	 16100	 16115	 16115#	 16116	 16118	 16133	 16133#
	 16134	 16136	 16151	 16151#	 16152	 16154	 16169	 16169#	 16170	 16172	 16187	 16187#	 16188	 16190
	 16205	 16205#	 16206	 16208	 16223	 16223#	 16224	 16226	 16241	 16241#	 16242	 16244	 16259	 16259#
	 16260	 16262	 16277	 16277#	 16278	 16280	 16295	 16295#	 16296	 16298	 16313	 16313#	 16314	 16316
	 16331	 16331#	 16332	 16334	 16349	 16349#	 16350	 16352	 16367	 16367#	 16368	 16370	 16385	 16385#
	 16386	 16388	 16398#	 16420	 16420#	 16421	 16421#	 16422	 16438	 16438#	 16439	 16440	 16456	 16456#
	 16457	 16458	 16474	 16474#	 16475	 16476	 16492	 16492#	 16493	 16494	 16510	 16510#	 16511	 16512
	 16528	 16528#	 16529	 16530	 16546	 16546#	 16547	 16548	 16564	 16564#	 16565	 16566	 16582	 16582#    SEQ 1231
	 16583	 16584	 16600	 16600#	 16601	 16602	 16618	 16618#	 16619	 16620	 16636	 16636#	 16637	 16638
	 16654	 16654#	 16655	 16656	 16672	 16672#	 16673	 16674	 16690	 16690#	 16691	 16692	 16708	 16708#
	 16709	 16710	 16726	 16726#	 16727	 16728	 16744	 16744#	 16745	 16746	 16762	 16762#	 16763	 16764
	 16780	 16780#	 16781	 16782	 16798	 16798#	 16799	 16800	 16816	 16816#	 16817	 16818	 16834	 16834#
	 16835	 16836	 16852	 16852#	 16853	 16854	 16870	 16870#	 16871	 16872	 16888	 16888#	 16889	 16890
	 16906	 16906#	 16907	 16908	 16924	 16924#	 16925	 16926	 16942	 16942#	 16943	 16944	 16960	 16960#
	 16961	 16962	 16978	 16978#	 16979	 16980	 16996	 16996#	 16997	 16998	 17014	 17014#	 17015	 17016
	 17032	 17032#	 17033	 17034	 17050	 17050#	 17051	 17052	 17067#	 17092	 17092#	 17093	 17093#	 17094
	 17096	 17112	 17112#	 17113	 17114	 17116	 17132	 17132#	 17133	 17134	 17136	 17152	 17152#	 17153
	 17154	 17156	 17172	 17172#	 17173	 17174	 17176	 17192	 17192#	 17193	 17194	 17196	 17212	 17212#
	 17213	 17214	 17216	 17232	 17232#	 17233	 17234	 17236	 17252	 17252#	 17253	 17254	 17256	 17272
	 17272#	 17273	 17274	 17276	 17292	 17292#	 17293	 17294	 17296	 17312	 17312#	 17313	 17314	 17316
	 17332	 17332#	 17333	 17334	 17336	 17352	 17352#	 17353	 17354	 17356	 17372	 17372#	 17373	 17374
	 17376	 17392	 17392#	 17393	 17394	 17396	 17412	 17412#	 17413	 17414	 17416	 17432	 17432#	 17433
	 17434	 17436	 17446#	 17471	 17471#	 17472	 17472#	 17473	 17475	 17491	 17491#	 17492	 17493	 17495
	 17511	 17511#	 17512	 17513	 17515	 17531	 17531#	 17532	 17533	 17535	 17551	 17551#	 17552	 17553
	 17555	 17571	 17571#	 17572	 17573	 17575	 17591	 17591#	 17592	 17593	 17595	 17611	 17611#	 17612
	 17613	 17615	 17631	 17631#	 17632	 17633	 17635	 17651	 17651#	 17652	 17653	 17655	 17671	 17671#
	 17672	 17673	 17675	 17691	 17691#	 17692	 17693	 17695	 17711	 17711#	 17712	 17713	 17715	 17731
	 17731#	 17732	 17733	 17735	 17751	 17751#	 17752	 17753	 17755	 17771	 17771#	 17772	 17773	 17775
	 17791	 17791#	 17792	 17793	 17795	 17811	 17811#	 17812	 17813	 17815	 17825#	 17859	 17859#	 17861
	 17861#	 17863	 17865	 17884	 17884#	 17886	 17888	 17890	 17909	 17909#	 17911	 17913	 17915	 17934
	 17934#	 17936	 17938	 17940	 17959	 17959#	 17961	 17963	 17965	 17984	 17984#	 17986	 17988	 17990
	 18009	 18009#	 18011	 18013	 18015	 18034	 18034#	 18036	 18038	 18040	 18059	 18059#	 18061	 18063
	 18065	 18084	 18084#	 18086	 18088	 18090	 18109	 18109#	 18111	 18113	 18115	 18134	 18134#	 18136
	 18138	 18140	 18159	 18159#	 18161	 18163	 18165	 18184	 18184#	 18186	 18188	 18190	 18209	 18209#
	 18211	 18213	 18215	 18234	 18234#	 18236	 18238	 18240	 18259	 18259#	 18261	 18263	 18265	 18284
	 18284#	 18286	 18288	 18290	 18300#	 18334	 18334#	 18336	 18336#	 18338	 18340	 18359	 18359#	 18361
	 18363	 18365	 18384	 18384#	 18386	 18388	 18390	 18409	 18409#	 18411	 18413	 18415	 18434	 18434#
	 18436	 18438	 18440	 18459	 18459#	 18461	 18463	 18465	 18484	 18484#	 18486	 18488	 18490	 18509
	 18509#	 18511	 18513	 18515	 18534	 18534#	 18536	 18538	 18540	 18559	 18559#	 18561	 18563	 18565
	 18584	 18584#	 18586	 18588	 18590	 18609	 18609#	 18611	 18613	 18615	 18634	 18634#	 18636	 18638
	 18640	 18659	 18659#	 18661	 18663	 18665	 18684	 18684#	 18686	 18688	 18690	 18709	 18709#	 18711
	 18713	 18715	 18734	 18734#	 18736	 18738	 18740	 18759	 18759#	 18761	 18763	 18765	 26137#	 26147
	 26147#	 26148	 26149	 26149#	 26150	 26151	 26151#	 26152	 26153	 26153#	 26154	 26155	 26155#	 26156
	 26157	 26157#	 26158	 26159	 26159#	 26160	 26161	 26161#	 26162	 26163	 26163#	 26164	 26165	 26165#
	 26166	 26167	 26167#	 26168	 26169	 26169#	 26170	 26171	 26171#	 26172	 26173	 26173#	 26174	 26175
	 26175#	 26176	 26177	 26177#	 26178	 26180#	 26203	 26203#	 26204	 26221	 26221#	 26222	 26239	 26239#
	 26240	 26257	 26257#	 26258	 26275	 26275#	 26276	 26293	 26293#	 26294	 26311	 26311#	 26312	 26329
	 26329#	 26330	 26347	 26347#	 26348	 26365	 26365#	 26366	 26383	 26383#	 26384	 26401	 26401#	 26402
	 26419	 26419#	 26420	 26437	 26437#	 26438	 26455	 26455#	 26456	 26473	 26473#	 26474	 26485#	 26496
	 26496#	 26497	 26498	 26499	 26499#	 26500	 26501	 26502	 26502#	 26503	 26504	 26505	 26505#	 26506
	 26507	 26508	 26508#	 26509	 26510	 26511	 26511#	 26512	 26513	 26514	 26514#	 26515	 26516	 26517
	 26517#	 26518	 26519	 26520	 26520#	 26521	 26522	 26523	 26523#	 26524	 26525	 26526	 26526#	 26527
	 26528	 26529	 26529#	 26530	 26531	 26532	 26532#	 26533	 26534	 26535	 26535#	 26536	 26537	 26538
	 26538#	 26539	 26540	 26542#	 26567	 26567#	 26568	 26586	 26586#	 26587	 26605	 26605#	 26606	 26624
	 26624#	 26625	 26643	 26643#	 26644	 26662	 26662#	 26663	 26681	 26681#	 26682	 26700	 26700#	 26701
	 26719	 26719#	 26720	 26738	 26738#	 26739	 26757	 26757#	 26758	 26776	 26776#	 26777	 26795	 26795#
	 26796	 26814	 26814#	 26815	 26833	 26833#	 26834	 26845#	 26868	 26868#	 26869	 26870	 26886	 26886#
	 26887	 26888	 26904	 26904#	 26905	 26906	 26922	 26922#	 26923	 26924	 26940	 26940#	 26941	 26942
	 26958	 26958#	 26959	 26960	 26976	 26976#	 26977	 26978	 26994	 26994#	 26995	 26996	 27012	 27012#
	 27013	 27014	 27030	 27030#	 27031	 27032	 27048	 27048#	 27049	 27050	 27066	 27066#	 27067	 27068
	 27084	 27084#	 27085	 27086	 27102	 27102#	 27103	 27104	 27120	 27120#	 27121	 27122	 27132#	 27160     SEQ 1232
	 27160#	 27161	 27162	 27163	 27181	 27181#	 27182	 27183	 27184	 27202	 27202#	 27203	 27204	 27205
	 27223	 27223#	 27224	 27225	 27226	 27244	 27244#	 27245	 27246	 27247	 27265	 27265#	 27266	 27267
	 27268	 27286	 27286#	 27287	 27288	 27289	 27307	 27307#	 27308	 27309	 27310	 27328	 27328#	 27329
	 27330	 27331	 27349	 27349#	 27350	 27351	 27352	 27370	 27370#	 27371	 27372	 27373	 27391	 27391#
	 27392	 27393	 27394	 27412	 27412#	 27413	 27414	 27415	 27433	 27433#	 27434	 27435	 27436	 27454
	 27454#	 27455	 27456	 27457	 27490#	 27521	 27521#	 27522	 27522#	 27524	 27527	 27545	 27545#	 27546
	 27548	 27551	 27569	 27569#	 27570	 27572	 27575	 27593	 27593#	 27594	 27596	 27599	 27617	 27617#
	 27618	 27620	 27623	 27641	 27641#	 27642	 27644	 27647	 27665	 27665#	 27666	 27668	 27671	 27689
	 27689#	 27690	 27692	 27695	 27713	 27713#	 27714	 27716	 27719	 27737	 27737#	 27738	 27740	 27743
	 27761	 27761#	 27762	 27764	 27767	 27785	 27785#	 27786	 27788	 27791	 27809	 27809#	 27810	 27812
	 27815	 27833	 27833#	 27834	 27836	 27839	 27857	 27857#	 27858	 27860	 27863	 27881	 27881#	 27882
	 27884	 27887	 27905	 27905#	 27906	 27908	 27911	 27929	 27929#	 27930	 27932	 27935	 27945#	 27976
	 27976#	 27977	 27977#	 27979	 27982	 28000	 28000#	 28001	 28003	 28006	 28024	 28024#	 28025	 28027
	 28030	 28048	 28048#	 28049	 28051	 28054	 28072	 28072#	 28073	 28075	 28078	 28096	 28096#	 28097
	 28099	 28102	 28120	 28120#	 28121	 28123	 28126	 28144	 28144#	 28145	 28147	 28150	 28168	 28168#
	 28169	 28171	 28174	 28192	 28192#	 28193	 28195	 28198	 28216	 28216#	 28217	 28219	 28222	 28240
	 28240#	 28241	 28243	 28246	 28264	 28264#	 28265	 28267	 28270	 28288	 28288#	 28289	 28291	 28294
	 28312	 28312#	 28313	 28315	 28318	 28336	 28336#	 28337	 28339	 28342	 28360	 28360#	 28361	 28363
	 28366	 28384	 28384#	 28385	 28387	 28390	 28419#	 28450	 28450#	 28451	 28451#	 28453	 28456	 28474
	 28474#	 28475	 28477	 28480	 28498	 28498#	 28499	 28501	 28504	 28522	 28522#	 28523	 28525	 28528
	 28546	 28546#	 28547	 28549	 28552	 28570	 28570#	 28571	 28573	 28576	 28594	 28594#	 28595	 28597
	 28600	 28618	 28618#	 28619	 28621	 28624	 28642	 28642#	 28643	 28645	 28648	 28666	 28666#	 28667
	 28669	 28672	 28690	 28690#	 28691	 28693	 28696	 28714	 28714#	 28715	 28717	 28720	 28738	 28738#
	 28739	 28741	 28744	 28762	 28762#	 28763	 28765	 28768	 28786	 28786#	 28787	 28789	 28792	 28810
	 28810#	 28811	 28813	 28816	 28834	 28834#	 28835	 28837	 28840	 28858	 28858#	 28859	 28861	 28864
	 28874#	 28905	 28905#	 28906	 28906#	 28908	 28911	 28929	 28929#	 28930	 28932	 28935	 28953	 28953#
	 28954	 28956	 28959	 28977	 28977#	 28978	 28980	 28983	 29001	 29001#	 29002	 29004	 29007	 29025
	 29025#	 29026	 29028	 29031	 29049	 29049#	 29050	 29052	 29055	 29073	 29073#	 29074	 29076	 29079
	 29097	 29097#	 29098	 29100	 29103	 29121	 29121#	 29122	 29124	 29127	 29145	 29145#	 29146	 29148
	 29151	 29169	 29169#	 29170	 29172	 29175	 29193	 29193#	 29194	 29196	 29199	 29217	 29217#	 29218
	 29220	 29223	 29241	 29241#	 29242	 29244	 29247	 29265	 29265#	 29266	 29268	 29271	 29289	 29289#
	 29290	 29292	 29295	 29313	 29313#	 29314	 29316	 29319	 29331#	 29353	 29353#	 29355	 29356	 29357
	 29367	 29367#	 29369	 29370	 29371	 29381	 29381#	 29383	 29384	 29385	 29395	 29395#	 29397	 29398
	 29399	 29409	 29409#	 29411	 29412	 29413	 29423	 29423#	 29425	 29426	 29427	 29437	 29437#	 29439
	 29440	 29441	 29451	 29451#	 29453	 29454	 29455	 29465	 29465#	 29467	 29468	 29469	 29479	 29479#
	 29481	 29482	 29483	 29493	 29493#	 29495	 29496	 29497	 29507	 29507#	 29509	 29510	 29511	 29521
	 29521#	 29523	 29524	 29525	 29535	 29535#	 29537	 29538	 29539	 29549	 29549#	 29551	 29552	 29553
	 29564#	 29585	 29585#	 29587	 29588	 29589	 29599	 29599#	 29601	 29602	 29603	 29613	 29613#	 29615
	 29616	 29617	 29627	 29627#	 29629	 29630	 29631	 29641	 29641#	 29643	 29644	 29645	 29655	 29655#
	 29657	 29658	 29659	 29669	 29669#	 29671	 29672	 29673	 29683	 29683#	 29685	 29686	 29687	 29697
	 29697#	 29699	 29700	 29701	 29711	 29711#	 29713	 29714	 29715	 29725	 29725#	 29727	 29728	 29729
	 29739	 29739#	 29741	 29742	 29743	 29753	 29753#	 29755	 29756	 29757	 29767	 29767#	 29769	 29770
	 29771	 29781	 29781#	 29783	 29784	 29785
$$420	   745#
$$421	   746#
$$422	   747#
$$423	   748#
$$424	   749#
$$425	   750#
$$426	   751#
$$427	   752#
$$430	   753#
$$431	   754#                                                                                                            SEQ 1233
$$432	   755#
$$433	   756#
$$434	   757#
$$435	   758#
$$436	   759#
$$437	   760#
$$500	   763#
$$501	   764#
$$502	   765#
$$503	   766#
$$BEGI	   731#
$$DTE0	   797	   836#
$$DTE1	   798	   838#
$$DTE2	   799	   852#
$$DTE3	   800	   854#
$$LOC	   728#	   767
$$MUUO	   651#
$$OUTE	   657#
$$STAR	   731	   732	   771#
$$TAX1	   669#
$$TAX2	   670#
$$TOGG	   663#
$$UUO	   640#
$ACC0	   478#
$BEGEN	   740#
$BEND1	   448#
$BEND2	   449#
$CHRIN	   539#
$CRLF	   541#
$DDT	   709#
$DEVCH	   365#
$DSKUP	   418#
$DTCHR	   721#
$DTCI	   715#
$DTCLK	   714#	   795
$DTCMD	   718#	   833	   849
$DTF11	   717#
$DTFLG	   713#	   794	   834	   839	   850	   855
$DTMTD	   722#
$DTMTI	   723#
$DTOPR	   720#	   796
$DTSEQ	   719#
$DTSWR	   725#
$DTT11	   716#
$DVCH1	   365#
$DVOFF	   535#
$EMODE	   416#
$ENDFX	   685#	   686
$FFF	   543#
$IBUF	   591#
$INEXT	   593#
$INNM	   592#
$ITRHL	   459#                                                                                                            SEQ 1234
$ITRX1	   460#
$LPAPE	 51320
$MMAP	   419#
$MODVL	   414#
$MODVU	   415#
$OBUF	   582#
$ONETM	   442#
$OUTEX	   584#
$OUTNM	   583#
$PAPER	   365
$PARER	   466#
$PNAME	   412#
$PSHER	   470#
$PVER	   413#
$RSRTX	   462#
$RSRTY	   463#
$SPAG1	   482#
$SPB1	   805	   811#
$SPBEN	   740	   809#
$SPBEX	   812	   820#
$SPBKL	   821	   827#
$SPBUS	   814#
$SPEC	   737	   804#
$SPKLD	   828	   845#
$START	   379#
$STD	   708#	   735#
$STKIL	   780#
$STKL	   789#
$STL	   710#
$STM	   711#	   737#
$SVAPR	   480#
$SVPAG	   481#
$SVPI	   479#
$SVUPC	   485#
$SVUUO	   484#
$TABF	   542#
$TTCHR	   538#
$TWCNT	   534#
$TYPNB	   540#
$UMODE	   417#
$UORTX	   457#
$USRHL	   461#
$UUOER	   458#	   499
$VTF	   544#
%ACTFL	   491#
%ACTUL	   492#
%COREC	   490#
%CORFL	   489#
%DISCR	   493#
%ERHI1	   632#
%ERHI2	   633#
%ERHI3	   634#
%X	 43328#	 43329	 43340	 43346#	 43347	 43357	 43363#	 43364	 43376	 43382#	 43383	 43396	 43402#	 43403     SEQ 1235
	 43409	 43415#	 43416	 43427	 43433#	 43434	 43589	 43595#	 43596	 43608	 43614#	 43615	 43626	 43632#
	 43633	 43644	 43650#	 43651	 43692	 43698#	 43699	 43711	 43878#	 43879	 43894	 43906#	 43907	 43922
	 43934#	 43935	 43950	 43962#	 43963	 43978	 43990#	 43991	 44006	 44018#	 44019	 44034	 44046#	 44047
	 44062	 44093#	 44094	 44109	 44125#	 44126	 44141	 44157#	 44158	 44173	 44189#	 44190	 44205	 44221#
	 44222	 44237	 44253#	 44254	 44269	 44285#	 44286	 44301	 44341#	 44342	 44359	 44383#	 44384	 44401
	 44425#	 44426	 44443	 44467#	 44468	 44485	 44509#	 44510	 44527	 44551#	 44552	 44569	 44593#	 44594
	 44611	 44637#	 44638	 44651	 44657#	 44658	 44673	 44679#	 44680	 44695	 44701#	 44702	 44716	 44722#
	 44723	 44737	 44748#	 44749	 44762	 44768#	 44769	 44784	 44790#	 44791	 44806	 44812#	 44813	 44827
	 44833#	 44834	 44848	 44859#	 44860	 44873	 44879#	 44880	 44895	 44901#	 44902	 44917	 44923#	 44924
	 44938	 44944#	 44945	 44959	 44970#	 44971	 44984	 44990#	 44991	 45006	 45012#	 45013	 45028	 45034#
	 45035	 45049	 45055#	 45056	 45070	 45081#	 45082	 45095	 45101#	 45102	 45117	 45123#	 45124	 45139
	 45145#	 45146	 45160	 45166#	 45167	 45181	 45192#	 45193	 45206	 45212#	 45213	 45228	 45234#	 45235
	 45250	 45256#	 45257	 45271	 45277#	 45278	 45292	 45303#	 45304	 45317	 45323#	 45324	 45339	 45345#
	 45346	 45361	 45367#	 45368	 45382	 45388#	 45389	 45403	 45414#	 45415	 45428	 45434#	 45435	 45450
	 45456#	 45457	 45472	 45478#	 45479	 45493	 45499#	 45500	 45514	 45525#	 45526	 45539	 45545#	 45546
	 45561	 45567#	 45568	 45583	 45589#	 45590	 45604	 45610#	 45611	 45625	 45636#	 45637	 45650	 45656#
	 45657	 45672	 45678#	 45679	 45694	 45700#	 45701	 45715	 45721#	 45722	 45736	 45766#	 45767	 45783
	 45797#	 45798	 45814	 45828#	 45829	 45845	 45859#	 45860	 45876	 45890#	 45891	 45907	 45921#	 45922
	 45938	 45952#	 45953	 45969	 46419#	 46420	 46450	 46456#	 46457	 46487	 46493#	 46494	 46524	 46530#
	 46531	 46561	 46567#	 46568	 46598	 46604#	 46605	 46635	 46641#	 46642	 46672	 46678#	 46679	 46709
	 46715#	 46716	 46746	 46752#	 46753	 46783	 46789#	 46790	 46820	 46826#	 46827	 46857	 46863#	 46864
	 46894	 46900#	 46901	 46931	 46937#	 46938	 46968	 46974#	 46975	 47005	 47011#	 47012	 47042	 47048#
	 47049	 47079	 47085#	 47086	 47116	 47122#	 47123	 47153	 47159#	 47160	 47190	 47703#	 47704	 47721
	 47739#	 47740	 47757	 47775#	 47776	 47793	 47811#	 47812	 47829	 47847#	 47848	 47865	 47883#	 47884
	 47901	 47919#	 47920	 47937	 48560#	 48561	 48576	 48600#	 48601	 48616	 48640#	 48641	 48656	 48680#
	 48681	 48696	 48720#	 48721	 48736	 48760#	 48761	 48776	 48800#	 48801	 48816	 48855#	 48856	 48875
	 48896#	 48897	 48916	 48937#	 48938	 48957	 48978#	 48979	 48998	 49019#	 49020	 49039	 49060#	 49061
	 49080	 49101#	 49102	 49121	 49142#	 49143	 49162	 49183#	 49184	 49203	 49224#	 49225	 49244	 49265#
	 49266	 49285	 49306#	 49307	 49326	 49347#	 49348	 49367	 49388#	 49389	 49408	 49429#	 49430	 49449
	 49470#	 49471	 49490	 49511#	 49512	 49531	 49552#	 49553	 49572	 49593#	 49594	 49613	 49634#	 49635
	 49654	 49675#	 49676	 49695	 49716#	 49717	 49736	 49757#	 49758	 49777	 49798#	 49799	 49818	 49839#
	 49840	 49859	 49880#	 49881	 49900	 49921#	 49922	 49941	 49962#	 49963	 49982	 50003#	 50004	 50023
	 50044#	 50045	 50064	 50085#	 50086	 50105	 50131#	 50132	 50146	 50160#	 50161	 50175	 50189#	 50190
	 50204	 50218#	 50219	 50233	 50247#	 50248	 50262	 50276#	 50277	 50291	 50305#	 50306	 50320	 50334#
	 50335	 50349	 50363#	 50364	 50378	 50392#	 50393	 50407	 50421#	 50422	 50436	 50450#	 50451	 50465
	 50479#	 50480	 50494	 50508#	 50509	 50523	 50537#	 50538	 50552	 50566#	 50567	 50581	 50595#	 50596
	 50610	 50624#	 50625	 50639	 50653#	 50654	 50668	 50681#	 50682	 50696	 50709#	 50710	 50724	 50737#
	 50738	 50752	 50820#	 50821	 50837	 50852#	 50853	 50869	 50884#	 50885	 50901	 50916#	 50917	 50933
	 50948#	 50949	 50965	 50980#	 50981	 50997	 51012#	 51013	 51029	 51044#	 51045	 51061	 51072#	 51073
	 51103	 51119	 51127#	 51128	 51144	 51153#	 51154	 51169
..0001	 43881#
..0002	 43909#
..0003	 43937#
..0004	 43965#
..0005	 43993#
..0006	 44021#
..0007	 44049#
..0010	 44096#
..0011	 44128#
..0012	 44160#
..0013	 44192#
..0014	 44224#
..0015	 44256#                                                                                                            SEQ 1236
..0016	 44288#
..0017	 44344#
..0020	 44386#
..0021	 44428#
..0022	 44470#
..0023	 44512#
..0024	 44554#
..0025	 44596#
..0026	 44640#
..0027	 44751#
..0030	 44862#
..0031	 44973#
..0032	 45084#
..0033	 45195#
..0034	 45306#
..0035	 45417#
..0036	 45528#
..0037	 45639#
..0040	 45769#
..0041	 45800#
..0042	 45831#
..0043	 45862#
..0044	 45893#
..0045	 45924#
..0046	 45955#
..0047	 46000#
..0050	 46021#
..0051	 46042#
..0052	 46063#
..0053	 46084#
..0054	 46106#
..0055	 46127#
..0056	 46159#
..0057	 46177#
..0060	 46195#
..0061	 46213#
..0062	 46231#
..0063	 46249#
..0064	 46267#
..0065	 46294#
..0066	 46301#
..0067	 46311#
..0070	 46318#
..0071	 46328#
..0072	 46335#
..0073	 46345#
..0074	 46352#
..0075	 46362#
..0076	 46369#
..0077	 46379#
..0100	 46386#
..0101	 46396#
..0102	 46403#                                                                                                            SEQ 1237
..0103	 46429#
..0104	 46466#
..0105	 46503#
..0106	 46540#
..0107	 46577#
..0110	 46614#
..0111	 46651#
..0112	 46688#
..0113	 46725#
..0114	 46762#
..0115	 46799#
..0116	 46836#
..0117	 46873#
..0120	 46910#
..0121	 46947#
..0122	 46984#
..0123	 47021#
..0124	 47058#
..0125	 47095#
..0126	 47132#
..0127	 47169#
..0130	 47221	 47234#
..0131	 47253	 47266#
..0132	 47289	 47302#
..0133	 47321	 47334#
..0134	 47357	 47370#
..0135	 47389	 47402#
..0136	 47425	 47438#
..0137	 47457	 47470#
..0140	 47493	 47506#
..0141	 47525	 47538#
..0142	 47561	 47574#
..0143	 47593	 47606#
..0144	 47629	 47642#
..0145	 47661	 47674#
..0146	 47706#
..0147	 47742#
..0150	 47778#
..0151	 47814#
..0152	 47850#
..0153	 47886#
..0154	 47922#
..0155	 48565	 48574#	 48581
..0156	 48605	 48614#	 48621
..0157	 48645	 48654#	 48661
..0160	 48685	 48694#	 48701
..0161	 48725	 48734#	 48741
..0162	 48765	 48774#	 48781
..0163	 48805	 48814#	 48821
..0164	 48858#
..0165	 48899#
..0166	 48940#
..0167	 48981#                                                                                                            SEQ 1238
..0170	 49022#
..0171	 49063#
..0172	 49104#
..0173	 49145#
..0174	 49186#
..0175	 49227#
..0176	 49268#
..0177	 49309#
..0200	 49350#
..0201	 49391#
..0202	 49432#
..0203	 49473#
..0204	 49514#
..0205	 49555#
..0206	 49596#
..0207	 49637#
..0210	 49678#
..0211	 49719#
..0212	 49760#
..0213	 49801#
..0214	 49842#
..0215	 49883#
..0216	 49924#
..0217	 49965#
..0220	 50006#
..0221	 50047#
..0222	 50088#
..0223	 50134#
..0224	 50137#
..0225	 50141#
..0226	 50163#
..0227	 50166#
..0230	 50170#
..0231	 50192#
..0232	 50195#
..0233	 50199#
..0234	 50221#
..0235	 50224#
..0236	 50228#
..0237	 50250#
..0240	 50253#
..0241	 50257#
..0242	 50279#
..0243	 50282#
..0244	 50286#
..0245	 50308#
..0246	 50311#
..0247	 50315#
..0250	 50337#
..0251	 50340#
..0252	 50344#
..0253	 50366#
..0254	 50369#                                                                                                            SEQ 1239
..0255	 50373#
..0256	 50395#
..0257	 50398#
..0260	 50402#
..0261	 50424#
..0262	 50427#
..0263	 50431#
..0264	 50453#
..0265	 50456#
..0266	 50460#
..0267	 50482#
..0270	 50485#
..0271	 50489#
..0272	 50511#
..0273	 50514#
..0274	 50518#
..0275	 50540#
..0276	 50543#
..0277	 50547#
..0300	 50569#
..0301	 50572#
..0302	 50576#
..0303	 50598#
..0304	 50601#
..0305	 50605#
..0306	 50627#
..0307	 50630#
..0310	 50634#
..0311	 50656#
..0312	 50659#
..0313	 50663#
..0314	 50684#
..0315	 50687#
..0316	 50691#
..0317	 50712#
..0320	 50715#
..0321	 50719#
..0322	 50740#
..0323	 50743#
..0324	 50747#
..0325	 50824	 50830#
..0326	 50826	 50828#
..0327	 50856	 50862#
..0330	 50858	 50860#
..0331	 50888	 50894#
..0332	 50890	 50892#
..0333	 50920	 50926#
..0334	 50922	 50924#
..0335	 50952	 50958#
..0336	 50954	 50956#
..0337	 50984	 50990#
..0340	 50986	 50988#
..0341	 51016	 51022#                                                                                                    SEQ 1240
..0342	 51018	 51020#
..0343	 51048	 51054#
..0344	 51050	 51052#
.JB41	   365#
.JBAPR	   365#
.JBCNI	   365#
.JBDDT	   365#
.JBFF	   365#
.JBOPC	   365#
.JBREL	   365#
.JBREN	   365#
.JBSA	   365#
.JBSYM	   365#
.JBTPC	   365#
.JBUSY	   365#
.JBUUO	   365#
.JBVER	   365#
BLURB	 42941#	 43746	 43862	 44069	 44310	 44619	 45743	 47953
BLURB1	 42947#	 44330	 44372	 44414	 44456	 44498	 44540	 44582                                                     SEQ 1241
CFLUSH	   282#
CINVAL	   281#
CLOKOP	   276#
CLRAPR	 42936#	 43480	 43488	 43496	 43503	 43510	 43517	 43524	 43882	 43910	 43938	 43966	 43994	 44022
	 44050	 44097	 44129	 44161	 44193	 44225	 44257	 44289	 44345	 44387	 44429	 44471	 44513	 44555
	 44597	 44641	 44661	 44683	 44705	 44726	 44752	 44772	 44794	 44816	 44837	 44863	 44883	 44905
	 44927	 44948	 44974	 44994	 45016	 45038	 45059	 45085	 45105	 45127	 45149	 45170	 45196	 45216
	 45238	 45260	 45281	 45307	 45327	 45349	 45371	 45392	 45418	 45438	 45460	 45482	 45503	 45529
	 45549	 45571	 45593	 45614	 45640	 45660	 45682	 45704	 45725	 45770	 45801	 45832	 45863	 45894
	 45925	 45956	 45987	 46005	 46026	 46047	 46068	 46089	 46111	 46142	 46147	 46165	 46183	 46201
	 46219	 46237	 46255	 46274	 46286	 46409	 46434	 46471	 46508	 46545	 46582	 46619	 46656	 46693
	 46730	 46767	 46804	 46841	 46878	 46915	 46952	 46989	 47026	 47063	 47100	 47137	 47174	 47195
	 47216	 47235	 47248	 47267	 47284	 47303	 47316	 47335	 47352	 47371	 47384	 47403	 47420	 47439
	 47452	 47471	 47488	 47507	 47520	 47539	 47556	 47575	 47588	 47607	 47624	 47643	 47656	 47675
	 47726	 47762	 47798	 47834	 47870	 47906	 47942	 47960	 48003	 48025	 48047	 48069	 48091	 48113
	 48135	 48155	 48166	 48193	 48213	 48233	 48253	 48273	 48293	 48313	 48333	 48353	 48373	 48393
	 48413	 48433	 48453	 48473	 48493	 48513	 48533	 48568	 48588	 48608	 48628	 48648	 48668	 48688
	 48708	 48728	 48748	 48768	 48788	 48808	 48828	 50764	 50780	 50796	 51080	 51131	 51157
CLRBT1	 43149#	 46285	 48567	 48607	 48647	 48687	 48727	 48767	 48807
CLRBTH	 43145#	 43881	 43909	 43937	 43965	 43993	 44021	 44049	 44096	 44128	 44160	 44192	 44224	 44256
	 44288	 44344	 44386	 44428	 44470	 44512	 44554	 44596	 44640	 44660	 44682	 44704	 44725	 44751
	 44771	 44793	 44815	 44836	 44862	 44882	 44904	 44926	 44947	 44973	 44993	 45015	 45037	 45058
	 45084	 45104	 45126	 45148	 45169	 45195	 45215	 45237	 45259	 45280	 45306	 45326	 45348	 45370
	 45391	 45417	 45437	 45459	 45481	 45502	 45528	 45548	 45570	 45592	 45613	 45639	 45659	 45681
	 45703	 45724	 45769	 45800	 45831	 45862	 45893	 45924	 45955	 46141	 46408	 46433	 46470	 46507
	 46544	 46581	 46618	 46655	 46692	 46729	 46766	 46803	 46840	 46877	 46914	 46951	 46988	 47025
	 47062	 47099	 47136	 47173	 47194	 47215	 47234	 47247	 47266	 47283	 47302	 47315	 47334	 47351
	 47370	 47383	 47402	 47419	 47438	 47451	 47470	 47487	 47506	 47519	 47538	 47555	 47574	 47587
	 47606	 47623	 47642	 47655	 47674	 47725	 47761	 47797	 47833	 47869	 47905	 47941	 47959	 48002
	 48024	 48046	 48068	 48090	 48112	 48134	 48154	 48165	 48192	 48212	 48232	 48252	 48272	 48292
	 48312	 48332	 48352	 48372	 48392	 48412	 48432	 48452	 48472	 48492	 48512	 48532	 48587	 48627
	 48667	 48707	 48747	 48787	 48827	 50763	 50779	 50795	 51079	 51130	 51156
CLRPI	 42937#	 43883	 43911	 43939	 43967	 43995	 44023	 44051	 44098	 44130	 44162	 44194	 44226	 44258
	 44290	 44346	 44388	 44430	 44472	 44514	 44556	 44598	 44642	 44662	 44684	 44706	 44727	 44753
	 44773	 44795	 44817	 44838	 44864	 44884	 44906	 44928	 44949	 44975	 44995	 45017	 45039	 45060
	 45086	 45106	 45128	 45150	 45171	 45197	 45217	 45239	 45261	 45282	 45308	 45328	 45350	 45372
	 45393	 45419	 45439	 45461	 45483	 45504	 45530	 45550	 45572	 45594	 45615	 45641	 45661	 45683
	 45705	 45726	 45771	 45802	 45833	 45864	 45895	 45926	 45957	 45986	 46004	 46025	 46046	 46067
	 46088	 46110	 46143	 46146	 46164	 46182	 46200	 46218	 46236	 46254	 46273	 46287	 46410	 46435
	 46472	 46509	 46546	 46583	 46620	 46657	 46694	 46731	 46768	 46805	 46842	 46879	 46916	 46953
	 46990	 47027	 47064	 47101	 47138	 47175	 47196	 47217	 47236	 47249	 47268	 47285	 47304	 47317
	 47336	 47353	 47372	 47385	 47404	 47421	 47440	 47453	 47472	 47489	 47508	 47521	 47540	 47557
	 47576	 47589	 47608	 47625	 47644	 47657	 47676	 47727	 47763	 47799	 47835	 47871	 47907	 47943
	 47961	 48004	 48026	 48048	 48070	 48092	 48114	 48136	 48156	 48167	 48194	 48214	 48234	 48254
	 48274	 48294	 48314	 48334	 48354	 48374	 48394	 48414	 48434	 48454	 48474	 48494	 48514	 48534
	 48569	 48589	 48609	 48629	 48649	 48669	 48689	 48709	 48729	 48749	 48769	 48789	 48809	 48829
	 50765	 50781	 50797	 51081	 51132	 51158
CLRTRP	 42933#	 46272
CWRTBI	   283#
DROPDV	   243#
ENDUUO	   289#	   447
EOPUUO	   290#	   449
ERLOOP	   334#                                                                                                            SEQ 1242
ERLP1	   335#
ERLP2	   336#
ERRHLT	   178#
ERROR	   343#
ERROR1	   355#
ERUUO	   333#
EXECUT	 43091#
EXIT	   817
FATAL	   177#
FMUUO	 43228#	 50811	 50843	 50875	 50907	 50939	 50971	 51003	 51035
FRD36	   318#
FRD8	   319#
FREAD	   317#
FSELEC	   316#
GET	   161#
GO	   158#
HALT	   163#	   468	   745	   747	   748	   752	   766	   857	   904	   920	   931	   941	   948	   960
	   973	   987	  1004	  1019	  1038	  1052	  1066	  1080	  1094	  1108	  1121	  1135	  1150	  1164
	  1177	  1191	  1205	  1218	  1232	  1246	  1259	  1273	  1287	  1324	  1343	  1362	  1381	  1400
	  1419	  1438	  1457	  1476	  1495	  1514	  1533	  1552	  1571	  1590	  1609	  1628	  1647	  1666
	  1685	  1704	  1723	  1742	  1761	  1780	  1799	  1818	  1837	  1856	  1875	  1894	  1913	  1932
	  1951	  1970	  1989	  2004	  2022	  2037	  2053	  2078	  2096	  2114	  2127	  2141	  2166	  2213
	  2219	  2242	  2248	  2271	  2277	  2300	  2306	  2324	  2343	  2361	  2379	  2395	  2411	  2426
	  2443	  2463	  2500	  2519	  2538	  2557	  2576	  2595	  2614	  2633	  2652	  2671	  2690	  2709
	  2728	  2747	  2766	  2785	  2804	  2823	  2860	  2879	  2898	  2917	  2936	  2955	  2974	  2993
	  3012	  3031	  3050	  3069	  3088	  3107	  3126	  3145	  3164	  3183	  3200	  3216	  3236	  3254
	  3275	  3323	  3329	  3352	  3358	  3381	  3387	  3410	  3416	  3439	  3445	  3468	  3474	  3497
	  3503	  3526	  3532	  3555	  3561	  3584	  3590	  3613	  3619	  3642	  3648	  3671	  3677	  3700
	  3706	  3729	  3735	  3758	  3764	  3787	  3793	  3816	  3822	  3845	  3851	  3874	  3880	  3903
	  3909	  3932	  3938	  3961	  3967	  3990	  3996	  4019	  4025	  4048	  4054	  4077	  4083	  4106
	  4112	  4135	  4141	  4164	  4170	  4193	  4199	  4222	  4228	  4251	  4257	  4280	  4286	  4309
	  4315	  4338	  4344	  4385	  4406	  4427	  4448	  4469	  4490	  4511	  4532	  4553	  4574	  4595
	  4616	  4637	  4658	  4679	  4700	  4721	  4742	  4763	  4784	  4805	  4826	  4847	  4868	  4889
	  4910	  4931	  4952	  4973	  4994	  5015	  5036	  5057	  5078	  5099	  5120	  5138	  5155	  5175
	  5193	  5209	  5248	  5268	  5288	  5308	  5328	  5348	  5368	  5388	  5408	  5428	  5448	  5468
	  5488	  5508	  5528	  5548	  5568	  5588	  5608	  5628	  5648	  5668	  5688	  5708	  5728	  5748
	  5768	  5788	  5808	  5828	  5848	  5868	  5888	  5908	  5928	  5948	  5993	  6018	  6043	  6068
	  6093	  6118	  6143	  6168	  6193	  6218	  6243	  6268	  6293	  6318	  6343	  6368	  6393	  6418
	  6443	  6468	  6493	  6518	  6543	  6568	  6593	  6618	  6643	  6668	  6693	  6718	  6743	  6768
	  6793	  6818	  6843	  6868	  6915	  6936	  6957	  6978	  6999	  7020	  7041	  7062	  7083	  7104
	  7125	  7146	  7167	  7188	  7209	  7230	  7251	  7272	  7293	  7314	  7335	  7356	  7377	  7398
	  7419	  7440	  7461	  7482	  7503	  7524	  7545	  7566	  7587	  7608	  7629	  7650	  7665	  7683
	  7726	  7748	  7770	  7792	  7814	  7836	  7858	  7880	  7902	  7924	  7946	  7968	  7990	  8012
	  8034	  8056	  8078	  8100	  8144	  8166	  8188	  8210	  8232	  8254	  8276	  8298	  8320	  8342
	  8364	  8386	  8408	  8430	  8452	  8474	  8496	  8518	  8538	  8558	  8605	  8629	  8653	  8677
	  8701	  8725	  8749	  8773	  8797	  8821	  8845	  8869	  8893	  8917	  8941	  8965	  8989	  9013
	  9037	  9061	  9085	  9109	  9133	  9157	  9181	  9205	  9229	  9253	  9277	  9301	  9325	  9349
	  9373	  9397	  9421	  9445	  9466	  9489	  9510	  9532	  9549	  9567	  9624	  9654	  9684	  9714
	  9744	  9774	  9804	  9834	  9864	  9894	  9924	  9954	  9984	 10014	 10044	 10074	 10104	 10134
	 10164	 10194	 10224	 10254	 10284	 10314	 10344	 10374	 10404	 10434	 10464	 10494	 10524	 10554
	 10584	 10614	 10644	 10674	 10695	 10752	 10778	 10804	 10830	 10856	 10882	 10908	 10934	 10960
	 10986	 11012	 11038	 11064	 11090	 11116	 11142	 11168	 11194	 11220	 11246	 11272	 11298	 11324
	 11350	 11376	 11402	 11428	 11454	 11480	 11506	 11532	 11558	 11584	 11610	 11636	 11662	 11715     SEQ 1243
	 11740	 11765	 11790	 11815	 11840	 11865	 11890	 11915	 11940	 11965	 11990	 12015	 12040	 12065
	 12090	 12115	 12140	 12165	 12190	 12215	 12240	 12265	 12290	 12315	 12340	 12365	 12390	 12415
	 12440	 12465	 12490	 12515	 12540	 12565	 12618	 12644	 12670	 12696	 12722	 12748	 12774	 12800
	 12826	 12852	 12878	 12904	 12930	 12956	 12982	 13008	 13034	 13060	 13114	 13140	 13166	 13192
	 13218	 13244	 13270	 13296	 13322	 13348	 13374	 13400	 13426	 13452	 13478	 13504	 13530	 13556
	 13575	 13592	 13609	 13625	 13642	 13659	 13675	 13692	 13709	 13725	 13740	 13757	 13775	 13812
	 13830	 13848	 13866	 13884	 13902	 13920	 13938	 13956	 13974	 13992	 14010	 14028	 14046	 14064
	 14082	 14100	 14118	 14136	 14154	 14172	 14190	 14208	 14226	 14244	 14262	 14280	 14298	 14316
	 14334	 14352	 14370	 14388	 14406	 14424	 14442	 14458	 14472	 14494	 14512	 14531	 14553	 14576
	 14599	 14622	 14636	 14658	 14673	 14695	 14710	 14726	 14746	 14767	 14792	 14845	 14872	 14899
	 14926	 14953	 14980	 15007	 15034	 15061	 15088	 15115	 15142	 15169	 15196	 15223	 15250	 15277
	 15304	 15351	 15373	 15395	 15417	 15439	 15461	 15483	 15505	 15527	 15549	 15571	 15593	 15615
	 15637	 15659	 15681	 15703	 15725	 15760	 15778	 15796	 15814	 15832	 15850	 15868	 15886	 15904
	 15922	 15940	 15958	 15976	 15994	 16012	 16030	 16048	 16066	 16084	 16102	 16120	 16138	 16156
	 16174	 16192	 16210	 16228	 16246	 16264	 16282	 16300	 16318	 16336	 16354	 16372	 16390	 16425
	 16443	 16461	 16479	 16497	 16515	 16533	 16551	 16569	 16587	 16605	 16623	 16641	 16659	 16677
	 16695	 16713	 16731	 16749	 16767	 16785	 16803	 16821	 16839	 16857	 16875	 16893	 16911	 16929
	 16947	 16965	 16983	 17001	 17019	 17037	 17055	 17098	 17118	 17138	 17158	 17178	 17198	 17218
	 17238	 17258	 17278	 17298	 17318	 17338	 17358	 17378	 17398	 17418	 17438	 17477	 17497	 17517
	 17537	 17557	 17577	 17597	 17617	 17637	 17657	 17677	 17697	 17717	 17737	 17757	 17777	 17797
	 17817	 17867	 17892	 17917	 17942	 17967	 17992	 18017	 18042	 18067	 18092	 18117	 18142	 18167
	 18192	 18217	 18242	 18267	 18292	 18342	 18367	 18392	 18417	 18442	 18467	 18492	 18517	 18542
	 18567	 18592	 18617	 18642	 18667	 18692	 18717	 18742	 18767	 18786	 18810	 18830	 18848	 18864
	 18879	 18900	 18920	 18942	 18956	 18972	 18994	 19012	 19036	 19059	 19080	 19106	 19134	 19152
	 19168	 19192	 19208	 19225	 19246	 19262	 19285	 19307	 19324	 19340	 19357	 19373	 19397	 19419
	 19435	 19450	 19466	 19482	 19509	 19529	 19545	 19560	 19576	 19592	 19620	 19635	 19651	 19666
	 19682	 19700	 19722	 19745	 19759	 19777	 19797	 19821	 19837	 19857	 19880	 19897	 19915	 19931
	 19957	 19978	 19996	 20012	 20035	 20057	 20081	 20097	 20115	 20130	 20154	 20175	 20192	 20213
	 20227	 20250	 20265	 20282	 20307	 20330	 20351	 20366	 20390	 20406	 20425	 20438	 20451	 20463
	 20479	 20493	 20509	 20529	 20550	 20567	 20601	 20618	 20636	 20653	 20671	 20694	 20712	 20729
	 20748	 20771	 20792	 20809	 20825	 20842	 20857	 20879	 20901	 20918	 20934	 20950	 20971	 20988
	 21004	 21021	 21037	 21054	 21070	 21087	 21102	 21119	 21134	 21150	 21171	 21192	 21207	 21228
	 21248	 21264	 21279	 21300	 21315	 21331	 21346	 21362	 21377	 21398	 21413	 21434	 21455	 21471
	 21486	 21502	 21517	 21533	 21548	 21564	 21579	 21595	 21610	 21634	 21649	 21670	 21685	 21708
	 21729	 21745	 21761	 21782	 21803	 21819	 21835	 21856	 21872	 21888	 21903	 21919	 21934	 21950
	 21965	 21981	 22005	 22030	 22047	 22077	 22092	 22113	 22133	 22154	 22174	 22195	 22215	 22237
	 22258	 22274	 22289	 22305	 22320	 22336	 22351	 22367	 22383	 22400	 22416	 22438	 22460	 22477
	 22493	 22515	 22538	 22555	 22571	 22596	 22611	 22634	 22656	 22673	 22688	 22710	 22731	 22754
	 22770	 22788	 22805	 22828	 22847	 22864	 22879	 22895	 22912	 22938	 22990	 23010	 23030	 23050
	 23070	 23090	 23110	 23130	 23150	 23170	 23190	 23210	 23230	 23250	 23270	 23290	 23310	 23330
	 23369	 23389	 23409	 23429	 23449	 23469	 23489	 23509	 23529	 23549	 23569	 23589	 23609	 23629
	 23649	 23669	 23689	 23709	 23750	 23770	 23790	 23810	 23830	 23850	 23870	 23890	 23910	 23930
	 23950	 23970	 23990	 24010	 24030	 24050	 24070	 24090	 24129	 24149	 24169	 24189	 24209	 24229
	 24249	 24269	 24289	 24309	 24329	 24349	 24369	 24389	 24409	 24429	 24449	 24469	 24514	 24535
	 24556	 24577	 24598	 24619	 24640	 24661	 24682	 24703	 24724	 24745	 24766	 24787	 24808	 24829
	 24850	 24869	 24909	 24930	 24951	 24972	 24993	 25014	 25035	 25056	 25077	 25098	 25119	 25140
	 25161	 25182	 25203	 25224	 25245	 25265	 25309	 25330	 25351	 25372	 25393	 25414	 25435	 25456
	 25477	 25498	 25519	 25540	 25561	 25582	 25603	 25624	 25645	 25665	 25705	 25726	 25747	 25768
	 25789	 25810	 25831	 25852	 25873	 25894	 25915	 25936	 25957	 25978	 25999	 26020	 26041	 26062
	 26086	 26101	 26115	 26130	 26206	 26224	 26242	 26260	 26278	 26296	 26314	 26332	 26350	 26368
	 26386	 26404	 26422	 26440	 26458	 26476	 26570	 26589	 26608	 26627	 26646	 26665	 26684	 26703
	 26722	 26741	 26760	 26779	 26798	 26817	 26836	 26872	 26890	 26908	 26926	 26944	 26962	 26980
	 26998	 27016	 27034	 27052	 27070	 27088	 27106	 27124	 27165	 27186	 27207	 27228	 27249	 27270     SEQ 1244
	 27291	 27312	 27333	 27354	 27375	 27396	 27417	 27438	 27459	 27482	 27529	 27553	 27577	 27601
	 27625	 27649	 27673	 27697	 27721	 27745	 27769	 27793	 27817	 27841	 27865	 27889	 27913	 27937
	 27984	 28008	 28032	 28056	 28080	 28104	 28128	 28152	 28176	 28200	 28224	 28248	 28272	 28296
	 28320	 28344	 28368	 28392	 28411	 28458	 28482	 28506	 28530	 28554	 28578	 28602	 28626	 28650
	 28674	 28698	 28722	 28746	 28770	 28794	 28818	 28842	 28866	 28913	 28937	 28961	 28985	 29009
	 29033	 29057	 29081	 29105	 29129	 29153	 29177	 29201	 29225	 29249	 29273	 29297	 29321	 29359
	 29373	 29387	 29401	 29415	 29429	 29443	 29457	 29471	 29485	 29499	 29513	 29527	 29541	 29555
	 29591	 29605	 29619	 29633	 29647	 29661	 29675	 29689	 29703	 29717	 29731	 29745	 29759	 29773
	 29787	 29807	 29823	 29840	 29846	 29864	 29870	 29894	 29919	 29925	 29942	 29948	 29961	 29965
	 29983	 30000	 30018	 30033	 30049	 30066	 30083	 30100	 30118	 30134	 30149	 30165	 30182	 30198
	 30215	 30232	 30249	 30267	 30286	 30304	 30319	 30335	 30355	 30372	 30392	 30415	 30438	 30458
	 30477	 30497	 30515	 30538	 30560	 30580	 30601	 30617	 30634	 30656	 30677	 30699	 30720	 30741
	 30753	 30769	 30787	 30802	 30816	 30830	 30843	 30858	 30873	 30890	 30896	 30903	 30910	 30927
	 30943	 30949	 30956	 30963	 30980	 30986	 30993	 31000	 31018	 31033	 31047	 31062	 31078	 31084
	 31091	 31098	 31115	 31121	 31128	 31135	 31158	 31177	 31201	 31220	 31244	 31261	 31276	 31290
	 31303	 31318	 31333	 31346	 31361	 31379	 31394	 31409	 31423	 31438	 31486	 31502	 31508	 31515
	 31522	 31539	 31545	 31552	 31559	 31577	 31592	 31606	 31621	 31638	 31644	 31659	 31674	 31690
	 31704	 31721	 31737	 31753	 31767	 31783	 31797	 31815	 31835	 31851	 31868	 31883	 31894	 31917
	 31937	 31956	 31977	 31997	 32014	 32030	 32094	 32110	 32125	 32141	 32156	 32172	 32188	 32205
	 32230	 32252	 32274	 32297	 32319	 32337	 32342	 32353	 32358	 32381	 32400	 32410	 32415	 32432
	 32446	 32461	 32471	 32476	 32489	 32493	 32505	 32509	 32527	 32544	 32562	 32578	 32596	 32610
	 32624	 32639	 32657	 32673	 32689	 32706	 32734	 32753	 32773	 32793	 32812	 32837	 32843	 32862
	 32868	 32884	 32890	 32906	 32923	 32929	 32948	 32955	 32976	 32982	 33001	 33008	 33029	 33035
	 33050	 33065	 33081	 33087	 33106	 33112	 33130	 33136	 33154	 33172	 33178	 33196	 33203	 33222
	 33228	 33246	 33253	 33275	 33292	 33308	 33324	 33339	 33356	 33371	 33387	 33402	 33419	 33434
	 33450	 33465	 33482	 33497	 33514	 33530	 33546	 33566	 33582	 33599	 33616	 33631	 33647	 33664
	 33678	 33692	 33707	 33720	 33734	 33753	 33759	 33778	 33784	 33801	 33807	 33826	 33832	 33849
	 33855	 33874	 33880	 33897	 33903	 33921	 33927	 33945	 33951	 33969	 33975	 33992	 33998	 34016
	 34022	 34040	 34046	 34064	 34070	 34087	 34093	 34111	 34117	 34135	 34141	 34159	 34165	 34183
	 34189	 34208	 34214	 34231	 34237	 34261	 34267	 34273	 34295	 34302	 34308	 34332	 34338	 34344
	 34365	 34371	 34377	 34399	 34405	 34411	 34431	 34437	 34443	 34465	 34471	 34477	 34497	 34503
	 34509	 34530	 34536	 34542	 34563	 34569	 34575	 34596	 34602	 34608	 34628	 34634	 34640	 34661
	 34667	 34673	 34694	 34700	 34706	 34727	 34733	 34739	 34759	 34765	 34771	 34792	 34798	 34804
	 34825	 34831	 34837	 34858	 34864	 34870	 34891	 34897	 34903	 34925	 34931	 34937	 34957	 34963
	 34969	 34990	 34996	 35014	 35020	 35038	 35044	 35063	 35069	 35086	 35092	 35111	 35117	 35134
	 35140	 35158	 35164	 35182	 35188	 35206	 35212	 35229	 35235	 35253	 35259	 35277	 35283	 35301
	 35307	 35324	 35330	 35348	 35354	 35372	 35378	 35395	 35401	 35420	 35426	 35444	 35450	 35468
	 35474	 35498	 35504	 35510	 35532	 35538	 35544	 35566	 35573	 35579	 35604	 35610	 35616	 35639
	 35645	 35651	 35671	 35677	 35683	 35706	 35712	 35718	 35738	 35744	 35750	 35771	 35777	 35783
	 35804	 35810	 35816	 35837	 35843	 35849	 35868	 35874	 35880	 35901	 35907	 35913	 35934	 35940
	 35946	 35967	 35973	 35979	 35999	 36005	 36011	 36032	 36038	 36044	 36065	 36071	 36077	 36098
	 36104	 36110	 36131	 36137	 36143	 36165	 36171	 36177	 36197	 36203	 36209	 36228	 36234	 36250
	 36256	 36270	 36276	 36291	 36297	 36311	 36317	 36333	 36350	 36356	 36375	 36382	 36401	 36407
	 36425	 36432	 36450	 36469	 36475	 36492	 36498	 36513	 36528	 36534	 36550	 36556	 36572	 36589
	 36595	 36612	 36618	 36635	 36641	 36655	 36671	 36677	 36692	 36710	 36716	 36731	 36749	 36755
	 36772	 36778	 36795	 36812	 36818	 36836	 36842	 36858	 36875	 36881	 36898	 36904	 36921	 36938
	 36944	 36962	 36968	 36984	 37002	 37008	 37025	 37031	 37048	 37065	 37071	 37089	 37095	 37111
	 37129	 37135	 37152	 37158	 37174	 37191	 37197	 37214	 37220	 37238	 37256	 37262	 37279	 37285
	 37305	 37311	 37330	 37336	 37353	 37359	 37377	 37383	 37404	 37410	 37426	 37432	 37452	 37458
	 37477	 37483	 37500	 37506	 37521	 37527	 37542	 37558	 37564	 37585	 37591	 37610	 37616	 37633
	 37639	 37658	 37664	 37684	 37690	 37706	 37712	 37732	 37738	 37757	 37763	 37780	 37786	 37805
	 37811	 37832	 37838	 37856	 37862	 37882	 37888	 37902	 37919	 37925	 37942	 37949	 37970	 37976
	 37996	 38002	 38022	 38029	 38047	 38053	 38073	 38079	 38098	 38104	 38120	 38126	 38140	 38157     SEQ 1245
	 38163	 38182	 38188	 38208	 38214	 38233	 38239	 38259	 38265	 38284	 38290	 38310	 38316	 38335
	 38341	 38358	 38364	 38379	 38385	 38402	 38408	 38422	 38428	 38443	 38449	 38463	 38469	 38484
	 38490	 38504	 38510	 38526	 38532	 38546	 38552	 38568	 38574	 38591	 38597	 38603	 38622	 38628
	 38634	 38650	 38656	 38662	 38679	 38685	 38702	 38708	 38714	 38733	 38739	 38745	 38761	 38767
	 38784	 38790	 38806	 38812	 38829	 38835	 38852	 38858	 38877	 38883	 38900	 38906	 38925	 38931
	 38947	 38953	 38970	 38976	 38992	 38998	 39015	 39021	 39038	 39044	 39063	 39069	 39086	 39092
	 39111	 39117	 39135	 39141	 39147	 39166	 39172	 39178	 39197	 39203	 39209	 39230	 39236	 39242
	 39261	 39267	 39273	 39294	 39300	 39306	 39324	 39330	 39336	 39342	 39360	 39366	 39372	 39389
	 39395	 39401	 39419	 39425	 39431	 39450	 39456	 39462	 39483	 39489	 39495	 39514	 39520	 39526
	 39547	 39553	 39559	 39575	 39581	 39598	 39604	 39620	 39626	 39643	 39649	 39666	 39672	 39691
	 39697	 39714	 39720	 39739	 39745	 39761	 39767	 39784	 39790	 39806	 39812	 39829	 39835	 39852
	 39858	 39877	 39883	 39900	 39906	 39925	 39931	 39949	 39955	 39961	 39980	 39986	 39992	 40011
	 40017	 40023	 40044	 40050	 40056	 40075	 40081	 40102	 40108	 40114	 40131	 40137	 40143	 40161
	 40167	 40173	 40190	 40196	 40202	 40220	 40226	 40232	 40251	 40257	 40263	 40284	 40290	 40296
	 40315	 40321	 40327	 40348	 40354	 40360	 40376	 40382	 40399	 40405	 40421	 40427	 40444	 40450
	 40467	 40473	 40492	 40498	 40515	 40521	 40540	 40546	 40562	 40568	 40585	 40591	 40607	 40613
	 40630	 40636	 40653	 40659	 40678	 40684	 40701	 40707	 40726	 40732	 40751	 40757	 40763	 40784
	 40790	 40796	 40815	 40821	 40827	 40849	 40855	 40861	 40878	 40884	 40890	 40908	 40914	 40920
	 40937	 40943	 40949	 40967	 40973	 40979	 40998	 41004	 41010	 41031	 41037	 41043	 41062	 41068
	 41074	 41095	 41101	 41107	 41124	 41140	 41154	 41170	 41185	 41202	 41218	 41237	 41252	 41273
	 41295	 41314	 41330	 41344	 41348	 41363	 41382	 41395	 41398	 41409	 41413	 41434	 41449	 41467
	 41483	 41498	 41514	 41531	 41549	 41566	 41584	 41590	 41606	 41622	 41641	 41657	 41673	 41690
	 41706	 41719	 41730	 41731	 41733	 41746	 41747	 41751	 41768	 41785	 41801	 41808	 41821	 41828
	 41840	 41841	 41844	 41859	 41879	 41895	 41913	 41926	 41927	 41929	 41933	 41953	 41959	 41976
	 41982	 41999	 42005	 42023	 42029	 42046	 42052	 42070	 42076	 42092	 42098	 42115	 42121	 42138
	 42144	 42162	 42168	 42185	 42191	 42209	 42215	 42230	 42236	 42253	 42259	 42275	 42281	 42298
	 42304	 42320	 42326	 42343	 42349	 42364	 42370	 42387	 42393	 42409	 42415	 42432	 42438	 42454
	 42460	 42477	 42483	 42500	 42506	 42524	 42530	 42547	 42553	 42571	 42577	 42594	 42600	 42618
	 42624	 42641	 42647	 42665	 42671	 42688	 42694	 42712	 42718	 42735	 42741	 42759	 42765	 42782
	 42788	 42806	 42812	 42829	 42835	 42853	 42859	 42876	 42882	 42900	 42906	 43290	 43297	 43304
	 43311	 43318	 43324	 43334	 43342	 43352	 43359	 43370	 43378	 43391	 43398	 43411	 43421	 43429
	 43440	 43450	 43461	 43469	 43477	 43485	 43493	 43501	 43508	 43515	 43522	 43531	 43538	 43546
	 43554	 43561	 43569	 43584	 43591	 43602	 43610	 43620	 43628	 43639	 43646	 43658	 43666	 43680
	 43686	 43694	 43707	 43713	 43723	 43731	 43739	 43760	 43768	 43775	 43783	 43789	 43797	 43804
	 43812	 43819	 43827	 43834	 43842	 43849	 43857	 43890	 43896	 43918	 43924	 43946	 43952	 43974
	 43980	 44002	 44008	 44030	 44036	 44058	 44064	 44105	 44111	 44137	 44143	 44169	 44175	 44201
	 44207	 44233	 44239	 44265	 44271	 44297	 44303	 44355	 44361	 44397	 44403	 44439	 44445	 44481
	 44487	 44523	 44529	 44565	 44571	 44607	 44613	 44646	 44653	 44668	 44675	 44690	 44697	 44711
	 44718	 44733	 44739	 44757	 44764	 44779	 44786	 44801	 44808	 44822	 44829	 44844	 44850	 44868
	 44875	 44890	 44897	 44912	 44919	 44933	 44940	 44955	 44961	 44979	 44986	 45001	 45008	 45023
	 45030	 45044	 45051	 45066	 45072	 45090	 45097	 45112	 45119	 45134	 45141	 45155	 45162	 45177
	 45183	 45201	 45208	 45223	 45230	 45245	 45252	 45266	 45273	 45288	 45294	 45312	 45319	 45334
	 45341	 45356	 45363	 45377	 45384	 45399	 45405	 45423	 45430	 45445	 45452	 45467	 45474	 45488
	 45495	 45510	 45516	 45534	 45541	 45556	 45563	 45578	 45585	 45599	 45606	 45621	 45627	 45645
	 45652	 45667	 45674	 45689	 45696	 45710	 45717	 45732	 45738	 45779	 45785	 45810	 45816	 45841
	 45847	 45872	 45878	 45903	 45909	 45934	 45940	 45965	 45971	 46452	 46489	 46526	 46563	 46600
	 46637	 46674	 46711	 46748	 46785	 46822	 46859	 46896	 46933	 46970	 47007	 47044	 47081	 47118
	 47155	 47192	 47232	 47239	 47264	 47271	 47300	 47307	 47332	 47339	 47368	 47375	 47400	 47407
	 47436	 47443	 47468	 47475	 47504	 47511	 47536	 47543	 47572	 47579	 47604	 47611	 47640	 47647
	 47672	 47679	 47717	 47723	 47753	 47759	 47789	 47795	 47825	 47831	 47861	 47867	 47897	 47903
	 47933	 47939	 47972	 48015	 48037	 48059	 48081	 48103	 48125	 48147	 48161	 48172	 48201	 48206
	 48221	 48226	 48241	 48246	 48261	 48266	 48281	 48286	 48301	 48306	 48321	 48326	 48341	 48346
	 48361	 48366	 48381	 48386	 48401	 48406	 48421	 48426	 48441	 48446	 48461	 48466	 48481	 48486     SEQ 1246
	 48501	 48506	 48521	 48526	 48541	 48546	 48573	 48578	 48583	 48613	 48618	 48623	 48653	 48658
	 48663	 48693	 48698	 48703	 48733	 48738	 48743	 48773	 48778	 48783	 48813	 48818	 48823	 48861
	 48865	 48871	 48877	 48902	 48906	 48912	 48918	 48943	 48947	 48953	 48959	 48984	 48988	 48994
	 49000	 49025	 49029	 49035	 49041	 49066	 49070	 49076	 49082	 49107	 49111	 49117	 49123	 49148
	 49152	 49158	 49164	 49189	 49193	 49199	 49205	 49230	 49234	 49240	 49246	 49271	 49275	 49281
	 49287	 49312	 49316	 49322	 49328	 49353	 49357	 49363	 49369	 49394	 49398	 49404	 49410	 49435
	 49439	 49445	 49451	 49476	 49480	 49486	 49492	 49517	 49521	 49527	 49533	 49558	 49562	 49568
	 49574	 49599	 49603	 49609	 49615	 49640	 49644	 49650	 49656	 49681	 49685	 49691	 49697	 49722
	 49726	 49732	 49738	 49763	 49767	 49773	 49779	 49804	 49808	 49814	 49820	 49845	 49849	 49855
	 49861	 49886	 49890	 49896	 49902	 49927	 49931	 49937	 49943	 49968	 49972	 49978	 49984	 50009
	 50013	 50019	 50025	 50050	 50054	 50060	 50066	 50091	 50095	 50101	 50107	 50137	 50142	 50148
	 50166	 50171	 50177	 50195	 50200	 50206	 50224	 50229	 50235	 50253	 50258	 50264	 50282	 50287
	 50293	 50311	 50316	 50322	 50340	 50345	 50351	 50369	 50374	 50380	 50398	 50403	 50409	 50427
	 50432	 50438	 50456	 50461	 50467	 50485	 50490	 50496	 50514	 50519	 50525	 50543	 50548	 50554
	 50572	 50577	 50583	 50601	 50606	 50612	 50630	 50635	 50641	 50659	 50664	 50670	 50687	 50692
	 50698	 50715	 50720	 50726	 50743	 50748	 50754	 50770	 50774	 50786	 50790	 50802	 50806	 50828
	 50833	 50839	 50860	 50865	 50871	 50892	 50897	 50903	 50924	 50929	 50935	 50956	 50961	 50967
	 50988	 50993	 50999	 51020	 51025	 51031	 51052	 51057	 51063	 51097	 51098	 51099	 51100	 51105
	 51109	 51114	 51121	 51140	 51146	 51165	 51171	 51241	 51246	 51251	 51253	 51255	 51257	 51259
	 51261	 51263	 51265	 51272	 51273	 51274	 51275	 51276	 51277	 51278	 51279	 51280	 51282	 51284
	 51285
HALTPI	 42932#	 43753	 44630	 45985	 46010	 46031	 46052	 46073	 46095	 46116	 46145	 46163	 46181	 46199
	 46217	 46235	 46253	 46271	 46288	 46305	 46322	 46339	 46356	 46373	 46390	 46407	 46436	 46473
	 46510	 46547	 46584	 46621	 46658	 46695	 46732	 46769	 46806	 46843	 46880	 46917	 46954	 46991
	 47028	 47065	 47102	 47139	 47176	 47218	 47250	 47286	 47318	 47354	 47386	 47422	 47454	 47490
	 47522	 47558	 47590	 47626	 47658
INDPI	 43250#	 48552	 48592	 48632	 48672	 48712	 48752	 48792
JEN	   165#	 47714	 47750	 47786	 47822	 47858	 47894	 47930	 48586	 48626	 48666	 48706	 48746	 48786
	 48826
JRSTF	   164#	 43701	 46002	 46023	 46044	 46065	 46086	 46108	 46129	 46161	 46179	 46197	 46215	 46233
	 46251	 46269	 46303	 46320	 46337	 46354	 46371	 46388	 46405	 46431	 46468	 46505	 46542	 46579
	 46616	 46653	 46690	 46727	 46764	 46801	 46838	 46875	 46912	 46949	 46986	 47023	 47060	 47097
	 47134	 47171	 51135	 51161	 51245
MAPADR	   299#
MAPCNK	   300#
MAPMEM	   296#
MAPPNT	   302#
MAPSET	   301#
MEMSEG	   298#
MEMZRO	   297#
MODPCP	   309#
MODPCU	   308#
MTROP	   277#
NAME	     9#	    12
PBELL	   252#
PCRL	   246#
PCRL2	   250#
PCRL2F	   251#
PCRLF	   247#
PFORCE	   254#
PGMINT	   171#
PIDIS	 43036#	 47698	 47734	 47770	 47806	 47842	 47878	 47914
PIHCLR	 43006#	 45761	 45792	 45823	 45854	 45885	 45916	 45947                                                     SEQ 1247
PINO	 42979#	 43872	 43900	 43928	 43956	 43984	 44012	 44040
PIONOF	 43019#	 44325	 44367	 44409	 44451	 44493	 44535	 44577
PITEST	 43053#	 44632	 44743	 44854	 44965	 45076	 45187	 45298	 45409	 45520	 45631
PIYES	 42992#	 44086	 44118	 44150	 44182	 44214	 44246	 44278
PJRST	   162#
PMSG	   256#
PMSGF	   259#
PNT1	   212#
PNT11	   226#
PNT11F	   227#
PNT1F	   213#
PNT2	   214#
PNT2F	   215#
PNT3	   216#
PNT3F	   217#
PNT4	   218#
PNT4F	   219#
PNT5	   220#
PNT5F	   221#
PNT6	   222#
PNT6F	   223#
PNT7	   224#
PNT7F	   225#
PNTA	   198#
PNTADF	   229#
PNTADR	   228#
PNTAF	   199#
PNTAL	   200#
PNTALF	   201#
PNTCHF	   211#
PNTCHR	   210#
PNTCI	   208#
PNTCIF	   209#
PNTCW	   244#
PNTCWF	   245#
PNTDCF	   237#
PNTDEC	   236#
PNTDS	   238#
PNTDSF	   239#
PNTHW	   232#
PNTHWF	   233#
PNTMGN	   323#
PNTMSF	   205#
PNTMSG	   204#
PNTNM	   240#
PNTOCF	   235#
PNTOCS	   234#
PNTOCT	   230#
PNTOTF	   231#
PNTSIX	   241#
PNTSXF	   242#
PSIXL	   202#
PSIXLF	   203#                                                                                                            SEQ 1248
PSIXM	   206#
PSIXMF	   207#
PSKPA	 43184#	 47210	 47278	 47346	 47414	 47482	 47550	 47618
PSKPB	 43206#	 47242	 47310	 47378	 47446	 47514	 47582	 47650
PSP	   248#
PSPF	   249#
PUT	   160#
REPTUO	   337#
RTN	   159#	   455
S	    89#	    91	    95	   124	   126	   135	   138	   153	   154	   156	   167	   169	   173	   175
	   180	   184	   329	   331	   365	   370	   376	   403	   405	   423	   425	   443	   445	   474
	   476	   494	   496	   514	   516	   524	   526	   547	   552	   578	   580	   587	   589	   595
	   597	   603	   605	   609	   611	   616	   618	   622	   624	   628	   630	   636	   638	   641
	   643	   647	   649	   653	   655	   659	   661	   665	   667	   672	   677	   681	   683
SBWAIT	 43161#	 46293	 46310	 46327	 46344	 46361	 46378	 46395
SFLAG	    61#	 30385	 30407	 30430	 30451	 30470	 30490	 30507	 30528	 30550	 30648	 30669	 30691	 30712
	 30733	 31149	 31169	 31188	 31193	 31212	 31231	 31236	 32220	 32242	 32263	 32287	 32308	 32331
	 32721	 32726	 32745	 32763	 32784	 32804	 41265	 41284	 41304	 41373	 41424
SIXBTZ	   265#
STOP	    53#	   959	   972	   986	  1003	  1018	  1037	  1051	  1065	  1079	  1093	  1107	  1120	  1134
	  1149	  1163	  1176	  1190	  1204	  1217	  1231	  1245	  1258	  1272	  1286	  1323	  1342	  1361
	  1380	  1399	  1418	  1437	  1456	  1475	  1494	  1513	  1532	  1551	  1570	  1589	  1608	  1627
	  1646	  1665	  1684	  1703	  1722	  1741	  1760	  1779	  1798	  1817	  1836	  1855	  1874	  1893
	  1912	  1931	  1950	  1969	  1988	  2003	  2021	  2036	  2052	  2077	  2095	  2113	  2126	  2140
	  2165	  2212	  2218	  2241	  2247	  2270	  2276	  2299	  2305	  2323	  2342	  2360	  2378	  2394
	  2410	  2425	  2442	  2462	  2499	  2518	  2537	  2556	  2575	  2594	  2613	  2632	  2651	  2670
	  2689	  2708	  2727	  2746	  2765	  2784	  2803	  2822	  2859	  2878	  2897	  2916	  2935	  2954
	  2973	  2992	  3011	  3030	  3049	  3068	  3087	  3106	  3125	  3144	  3163	  3182	  3199	  3215
	  3235	  3253	  3274	  3322	  3328	  3351	  3357	  3380	  3386	  3409	  3415	  3438	  3444	  3467
	  3473	  3496	  3502	  3525	  3531	  3554	  3560	  3583	  3589	  3612	  3618	  3641	  3647	  3670
	  3676	  3699	  3705	  3728	  3734	  3757	  3763	  3786	  3792	  3815	  3821	  3844	  3850	  3873
	  3879	  3902	  3908	  3931	  3937	  3960	  3966	  3989	  3995	  4018	  4024	  4047	  4053	  4076
	  4082	  4105	  4111	  4134	  4140	  4163	  4169	  4192	  4198	  4221	  4227	  4250	  4256	  4279
	  4285	  4308	  4314	  4337	  4343	  4384	  4405	  4426	  4447	  4468	  4489	  4510	  4531	  4552
	  4573	  4594	  4615	  4636	  4657	  4678	  4699	  4720	  4741	  4762	  4783	  4804	  4825	  4846
	  4867	  4888	  4909	  4930	  4951	  4972	  4993	  5014	  5035	  5056	  5077	  5098	  5119	  5137
	  5154	  5174	  5192	  5208	  5247	  5267	  5287	  5307	  5327	  5347	  5367	  5387	  5407	  5427
	  5447	  5467	  5487	  5507	  5527	  5547	  5567	  5587	  5607	  5627	  5647	  5667	  5687	  5707
	  5727	  5747	  5767	  5787	  5807	  5827	  5847	  5867	  5887	  5907	  5927	  5947	  5992	  6017
	  6042	  6067	  6092	  6117	  6142	  6167	  6192	  6217	  6242	  6267	  6292	  6317	  6342	  6367
	  6392	  6417	  6442	  6467	  6492	  6517	  6542	  6567	  6592	  6617	  6642	  6667	  6692	  6717
	  6742	  6767	  6792	  6817	  6842	  6867	  6914	  6935	  6956	  6977	  6998	  7019	  7040	  7061
	  7082	  7103	  7124	  7145	  7166	  7187	  7208	  7229	  7250	  7271	  7292	  7313	  7334	  7355
	  7376	  7397	  7418	  7439	  7460	  7481	  7502	  7523	  7544	  7565	  7586	  7607	  7628	  7649
	  7664	  7682	  7725	  7747	  7769	  7791	  7813	  7835	  7857	  7879	  7901	  7923	  7945	  7967
	  7989	  8011	  8033	  8055	  8077	  8099	  8143	  8165	  8187	  8209	  8231	  8253	  8275	  8297
	  8319	  8341	  8363	  8385	  8407	  8429	  8451	  8473	  8495	  8517	  8537	  8557	  8604	  8628
	  8652	  8676	  8700	  8724	  8748	  8772	  8796	  8820	  8844	  8868	  8892	  8916	  8940	  8964
	  8988	  9012	  9036	  9060	  9084	  9108	  9132	  9156	  9180	  9204	  9228	  9252	  9276	  9300
	  9324	  9348	  9372	  9396	  9420	  9444	  9465	  9488	  9509	  9531	  9548	  9566	  9623	  9653
	  9683	  9713	  9743	  9773	  9803	  9833	  9863	  9893	  9923	  9953	  9983	 10013	 10043	 10073
	 10103	 10133	 10163	 10193	 10223	 10253	 10283	 10313	 10343	 10373	 10403	 10433	 10463	 10493
	 10523	 10553	 10583	 10613	 10643	 10673	 10694	 10751	 10777	 10803	 10829	 10855	 10881	 10907     SEQ 1249
	 10933	 10959	 10985	 11011	 11037	 11063	 11089	 11115	 11141	 11167	 11193	 11219	 11245	 11271
	 11297	 11323	 11349	 11375	 11401	 11427	 11453	 11479	 11505	 11531	 11557	 11583	 11609	 11635
	 11661	 11714	 11739	 11764	 11789	 11814	 11839	 11864	 11889	 11914	 11939	 11964	 11989	 12014
	 12039	 12064	 12089	 12114	 12139	 12164	 12189	 12214	 12239	 12264	 12289	 12314	 12339	 12364
	 12389	 12414	 12439	 12464	 12489	 12514	 12539	 12564	 12617	 12643	 12669	 12695	 12721	 12747
	 12773	 12799	 12825	 12851	 12877	 12903	 12929	 12955	 12981	 13007	 13033	 13059	 13113	 13139
	 13165	 13191	 13217	 13243	 13269	 13295	 13321	 13347	 13373	 13399	 13425	 13451	 13477	 13503
	 13529	 13555	 13574	 13591	 13608	 13624	 13641	 13658	 13674	 13691	 13708	 13724	 13739	 13756
	 13774	 13811	 13829	 13847	 13865	 13883	 13901	 13919	 13937	 13955	 13973	 13991	 14009	 14027
	 14045	 14063	 14081	 14099	 14117	 14135	 14153	 14171	 14189	 14207	 14225	 14243	 14261	 14279
	 14297	 14315	 14333	 14351	 14369	 14387	 14405	 14423	 14441	 14457	 14471	 14493	 14511	 14530
	 14552	 14575	 14598	 14621	 14635	 14657	 14672	 14694	 14709	 14725	 14745	 14766	 14791	 14844
	 14871	 14898	 14925	 14952	 14979	 15006	 15033	 15060	 15087	 15114	 15141	 15168	 15195	 15222
	 15249	 15276	 15303	 15350	 15372	 15394	 15416	 15438	 15460	 15482	 15504	 15526	 15548	 15570
	 15592	 15614	 15636	 15658	 15680	 15702	 15724	 15759	 15777	 15795	 15813	 15831	 15849	 15867
	 15885	 15903	 15921	 15939	 15957	 15975	 15993	 16011	 16029	 16047	 16065	 16083	 16101	 16119
	 16137	 16155	 16173	 16191	 16209	 16227	 16245	 16263	 16281	 16299	 16317	 16335	 16353	 16371
	 16389	 16424	 16442	 16460	 16478	 16496	 16514	 16532	 16550	 16568	 16586	 16604	 16622	 16640
	 16658	 16676	 16694	 16712	 16730	 16748	 16766	 16784	 16802	 16820	 16838	 16856	 16874	 16892
	 16910	 16928	 16946	 16964	 16982	 17000	 17018	 17036	 17054	 17097	 17117	 17137	 17157	 17177
	 17197	 17217	 17237	 17257	 17277	 17297	 17317	 17337	 17357	 17377	 17397	 17417	 17437	 17476
	 17496	 17516	 17536	 17556	 17576	 17596	 17616	 17636	 17656	 17676	 17696	 17716	 17736	 17756
	 17776	 17796	 17816	 17866	 17891	 17916	 17941	 17966	 17991	 18016	 18041	 18066	 18091	 18116
	 18141	 18166	 18191	 18216	 18241	 18266	 18291	 18341	 18366	 18391	 18416	 18441	 18466	 18491
	 18516	 18541	 18566	 18591	 18616	 18641	 18666	 18691	 18716	 18741	 18766	 18785	 18809	 18829
	 18847	 18863	 18878	 18899	 18919	 18941	 18955	 18971	 18993	 19011	 19035	 19058	 19079	 19105
	 19133	 19151	 19167	 19191	 19207	 19224	 19245	 19261	 19284	 19306	 19323	 19339	 19356	 19372
	 19396	 19418	 19434	 19449	 19465	 19481	 19508	 19528	 19544	 19559	 19575	 19591	 19619	 19634
	 19650	 19665	 19681	 19699	 19721	 19744	 19758	 19776	 19796	 19820	 19836	 19856	 19879	 19896
	 19914	 19930	 19956	 19977	 19995	 20011	 20034	 20056	 20080	 20096	 20114	 20129	 20153	 20174
	 20191	 20212	 20226	 20249	 20264	 20281	 20306	 20329	 20350	 20365	 20389	 20405	 20424	 20437
	 20450	 20462	 20478	 20492	 20508	 20528	 20549	 20566	 20600	 20617	 20635	 20652	 20670	 20693
	 20711	 20728	 20747	 20770	 20791	 20808	 20824	 20841	 20856	 20878	 20900	 20917	 20933	 20949
	 20970	 20987	 21003	 21020	 21036	 21053	 21069	 21086	 21101	 21118	 21133	 21149	 21170	 21191
	 21206	 21227	 21247	 21263	 21278	 21299	 21314	 21330	 21345	 21361	 21376	 21397	 21412	 21433
	 21454	 21470	 21485	 21501	 21516	 21532	 21547	 21563	 21578	 21594	 21609	 21633	 21648	 21669
	 21684	 21707	 21728	 21744	 21760	 21781	 21802	 21818	 21834	 21855	 21871	 21887	 21902	 21918
	 21933	 21949	 21964	 21980	 22004	 22029	 22046	 22076	 22091	 22112	 22132	 22153	 22173	 22194
	 22214	 22236	 22257	 22273	 22288	 22304	 22319	 22335	 22350	 22366	 22382	 22399	 22415	 22437
	 22459	 22476	 22492	 22514	 22537	 22554	 22570	 22595	 22610	 22633	 22655	 22672	 22687	 22709
	 22729	 22752	 22768	 22787	 22804	 22827	 22846	 22863	 22878	 22894	 22911	 22937	 22989	 23009
	 23029	 23049	 23069	 23089	 23109	 23129	 23149	 23169	 23189	 23209	 23229	 23249	 23269	 23289
	 23309	 23329	 23368	 23388	 23408	 23428	 23448	 23468	 23488	 23508	 23528	 23548	 23568	 23588
	 23608	 23628	 23648	 23668	 23688	 23708	 23749	 23769	 23789	 23809	 23829	 23849	 23869	 23889
	 23909	 23929	 23949	 23969	 23989	 24009	 24029	 24049	 24069	 24089	 24128	 24148	 24168	 24188
	 24208	 24228	 24248	 24268	 24288	 24308	 24328	 24348	 24368	 24388	 24408	 24428	 24448	 24468
	 24513	 24534	 24555	 24576	 24597	 24618	 24639	 24660	 24681	 24702	 24723	 24744	 24765	 24786
	 24807	 24828	 24849	 24868	 24908	 24929	 24950	 24971	 24992	 25013	 25034	 25055	 25076	 25097
	 25118	 25139	 25160	 25181	 25202	 25223	 25244	 25264	 25308	 25329	 25350	 25371	 25392	 25413
	 25434	 25455	 25476	 25497	 25518	 25539	 25560	 25581	 25602	 25623	 25644	 25664	 25704	 25725
	 25746	 25767	 25788	 25809	 25830	 25851	 25872	 25893	 25914	 25935	 25956	 25977	 25998	 26019
	 26040	 26061	 26085	 26100	 26114	 26129	 26205	 26223	 26241	 26259	 26277	 26295	 26313	 26331
	 26349	 26367	 26385	 26403	 26421	 26439	 26457	 26475	 26569	 26588	 26607	 26626	 26645	 26664     SEQ 1250
	 26683	 26702	 26721	 26740	 26759	 26778	 26797	 26816	 26835	 26871	 26889	 26907	 26925	 26943
	 26961	 26979	 26997	 27015	 27033	 27051	 27069	 27087	 27105	 27123	 27164	 27185	 27206	 27227
	 27248	 27269	 27290	 27311	 27332	 27353	 27374	 27395	 27416	 27437	 27458	 27481	 27528	 27552
	 27576	 27600	 27624	 27648	 27672	 27696	 27720	 27744	 27768	 27792	 27816	 27840	 27864	 27888
	 27912	 27936	 27983	 28007	 28031	 28055	 28079	 28103	 28127	 28151	 28175	 28199	 28223	 28247
	 28271	 28295	 28319	 28343	 28367	 28391	 28410	 28457	 28481	 28505	 28529	 28553	 28577	 28601
	 28625	 28649	 28673	 28697	 28721	 28745	 28769	 28793	 28817	 28841	 28865	 28912	 28936	 28960
	 28984	 29008	 29032	 29056	 29080	 29104	 29128	 29152	 29176	 29200	 29224	 29248	 29272	 29296
	 29320	 29358	 29372	 29386	 29400	 29414	 29428	 29442	 29456	 29470	 29484	 29498	 29512	 29526
	 29540	 29554	 29590	 29604	 29618	 29632	 29646	 29660	 29674	 29688	 29702	 29716	 29730	 29744
	 29758	 29772	 29786	 29806	 29822	 29839	 29845	 29863	 29869	 29893	 29918	 29924	 29941	 29947
	 29964	 29982	 29999	 30017	 30032	 30048	 30065	 30082	 30099	 30117	 30133	 30148	 30164	 30181
	 30197	 30214	 30231	 30248	 30266	 30285	 30303	 30318	 30334	 30354	 30371	 30391	 30414	 30437
	 30457	 30476	 30496	 30514	 30537	 30559	 30579	 30599	 30616	 30633	 30655	 30676	 30698	 30719
	 30740	 30752	 30768	 30786	 30801	 30815	 30829	 30842	 30857	 30872	 30889	 30895	 30902	 30909
	 30926	 30942	 30948	 30955	 30962	 30979	 30985	 30992	 30999	 31017	 31032	 31046	 31061	 31077
	 31083	 31090	 31097	 31114	 31120	 31127	 31134	 31157	 31176	 31200	 31219	 31243	 31260	 31275
	 31289	 31302	 31317	 31332	 31345	 31360	 31378	 31393	 31408	 31422	 31437	 31485	 31501	 31507
	 31514	 31521	 31538	 31544	 31551	 31558	 31576	 31591	 31605	 31620	 31637	 31643	 31658	 31673
	 31689	 31703	 31720	 31736	 31752	 31766	 31782	 31796	 31814	 31834	 31850	 31867	 31882	 31893
	 31916	 31936	 31955	 31976	 31996	 32013	 32029	 32093	 32109	 32124	 32140	 32155	 32171	 32187
	 32204	 32229	 32251	 32273	 32296	 32318	 32341	 32357	 32380	 32399	 32414	 32431	 32445	 32460
	 32475	 32492	 32508	 32526	 32543	 32561	 32577	 32595	 32609	 32623	 32638	 32656	 32672	 32688
	 32705	 32733	 32752	 32772	 32792	 32811	 32836	 32842	 32861	 32867	 32883	 32889	 32905	 32922
	 32928	 32947	 32954	 32975	 32981	 33000	 33007	 33028	 33034	 33049	 33064	 33080	 33086	 33105
	 33111	 33129	 33135	 33153	 33171	 33177	 33195	 33202	 33221	 33227	 33245	 33252	 33274	 33291
	 33307	 33323	 33338	 33355	 33370	 33386	 33401	 33418	 33433	 33449	 33464	 33481	 33496	 33513
	 33529	 33545	 33565	 33581	 33598	 33615	 33630	 33646	 33663	 33677	 33691	 33706	 33719	 33733
	 33752	 33758	 33777	 33783	 33800	 33806	 33825	 33831	 33848	 33854	 33873	 33879	 33896	 33902
	 33920	 33926	 33944	 33950	 33968	 33974	 33991	 33997	 34015	 34021	 34039	 34045	 34063	 34069
	 34086	 34092	 34110	 34116	 34134	 34140	 34158	 34164	 34182	 34188	 34207	 34213	 34230	 34236
	 34260	 34266	 34272	 34294	 34301	 34307	 34331	 34337	 34343	 34364	 34370	 34376	 34398	 34404
	 34410	 34430	 34436	 34442	 34464	 34470	 34476	 34496	 34502	 34508	 34529	 34535	 34541	 34562
	 34568	 34574	 34595	 34601	 34607	 34627	 34633	 34639	 34660	 34666	 34672	 34693	 34699	 34705
	 34726	 34732	 34738	 34758	 34764	 34770	 34791	 34797	 34803	 34824	 34830	 34836	 34857	 34863
	 34869	 34890	 34896	 34902	 34924	 34930	 34936	 34956	 34962	 34968	 34989	 34995	 35013	 35019
	 35037	 35043	 35062	 35068	 35085	 35091	 35110	 35116	 35133	 35139	 35157	 35163	 35181	 35187
	 35205	 35211	 35228	 35234	 35252	 35258	 35276	 35282	 35300	 35306	 35323	 35329	 35347	 35353
	 35371	 35377	 35394	 35400	 35419	 35425	 35443	 35449	 35467	 35473	 35497	 35503	 35509	 35531
	 35537	 35543	 35565	 35572	 35578	 35603	 35609	 35615	 35638	 35644	 35650	 35670	 35676	 35682
	 35705	 35711	 35717	 35737	 35743	 35749	 35770	 35776	 35782	 35803	 35809	 35815	 35836	 35842
	 35848	 35867	 35873	 35879	 35900	 35906	 35912	 35933	 35939	 35945	 35966	 35972	 35978	 35998
	 36004	 36010	 36031	 36037	 36043	 36064	 36070	 36076	 36097	 36103	 36109	 36130	 36136	 36142
	 36164	 36170	 36176	 36196	 36202	 36208	 36227	 36233	 36249	 36255	 36269	 36275	 36290	 36296
	 36310	 36316	 36332	 36349	 36355	 36374	 36381	 36400	 36406	 36424	 36431	 36449	 36468	 36474
	 36491	 36497	 36512	 36527	 36533	 36549	 36555	 36571	 36588	 36594	 36611	 36617	 36634	 36640
	 36654	 36670	 36676	 36691	 36709	 36715	 36730	 36748	 36754	 36771	 36777	 36794	 36811	 36817
	 36835	 36841	 36857	 36874	 36880	 36897	 36903	 36920	 36937	 36943	 36961	 36967	 36983	 37001
	 37007	 37024	 37030	 37047	 37064	 37070	 37088	 37094	 37110	 37128	 37134	 37151	 37157	 37173
	 37190	 37196	 37213	 37219	 37237	 37255	 37261	 37278	 37284	 37304	 37310	 37329	 37335	 37352
	 37358	 37376	 37382	 37403	 37409	 37425	 37431	 37451	 37457	 37476	 37482	 37499	 37505	 37520
	 37526	 37541	 37557	 37563	 37584	 37590	 37609	 37615	 37632	 37638	 37657	 37663	 37683	 37689
	 37705	 37711	 37731	 37737	 37756	 37762	 37779	 37785	 37804	 37810	 37831	 37837	 37855	 37861     SEQ 1251
	 37881	 37887	 37901	 37918	 37924	 37941	 37948	 37969	 37975	 37995	 38001	 38021	 38028	 38046
	 38052	 38072	 38078	 38097	 38103	 38119	 38125	 38139	 38156	 38162	 38181	 38187	 38207	 38213
	 38232	 38238	 38258	 38264	 38283	 38289	 38309	 38315	 38334	 38340	 38357	 38363	 38378	 38384
	 38401	 38407	 38421	 38427	 38442	 38448	 38462	 38468	 38483	 38489	 38503	 38509	 38525	 38531
	 38545	 38551	 38567	 38573	 38590	 38596	 38602	 38621	 38627	 38633	 38649	 38655	 38661	 38678
	 38684	 38701	 38707	 38713	 38732	 38738	 38744	 38760	 38766	 38783	 38789	 38805	 38811	 38828
	 38834	 38851	 38857	 38876	 38882	 38899	 38905	 38924	 38930	 38946	 38952	 38969	 38975	 38991
	 38997	 39014	 39020	 39037	 39043	 39062	 39068	 39085	 39091	 39110	 39116	 39134	 39140	 39146
	 39165	 39171	 39177	 39196	 39202	 39208	 39229	 39235	 39241	 39260	 39266	 39272	 39293	 39299
	 39305	 39323	 39329	 39335	 39341	 39359	 39365	 39371	 39388	 39394	 39400	 39418	 39424	 39430
	 39449	 39455	 39461	 39482	 39488	 39494	 39513	 39519	 39525	 39546	 39552	 39558	 39574	 39580
	 39597	 39603	 39619	 39625	 39642	 39648	 39665	 39671	 39690	 39696	 39713	 39719	 39738	 39744
	 39760	 39766	 39783	 39789	 39805	 39811	 39828	 39834	 39851	 39857	 39876	 39882	 39899	 39905
	 39924	 39930	 39948	 39954	 39960	 39979	 39985	 39991	 40010	 40016	 40022	 40043	 40049	 40055
	 40074	 40080	 40101	 40107	 40113	 40130	 40136	 40142	 40160	 40166	 40172	 40189	 40195	 40201
	 40219	 40225	 40231	 40250	 40256	 40262	 40283	 40289	 40295	 40314	 40320	 40326	 40347	 40353
	 40359	 40375	 40381	 40398	 40404	 40420	 40426	 40443	 40449	 40466	 40472	 40491	 40497	 40514
	 40520	 40539	 40545	 40561	 40567	 40584	 40590	 40606	 40612	 40629	 40635	 40652	 40658	 40677
	 40683	 40700	 40706	 40725	 40731	 40750	 40756	 40762	 40783	 40789	 40795	 40814	 40820	 40826
	 40848	 40854	 40860	 40877	 40883	 40889	 40907	 40913	 40919	 40936	 40942	 40948	 40966	 40972
	 40978	 40997	 41003	 41009	 41030	 41036	 41042	 41061	 41067	 41073	 41094	 41100	 41106	 41123
	 41139	 41153	 41169	 41184	 41201	 41217	 41236	 41251	 41272	 41294	 41313	 41329	 41347	 41362
	 41381	 41397	 41412	 41433	 41448	 41466	 41482	 41497	 41513	 41530	 41548	 41565	 41583	 41589
	 41605	 41621	 41640	 41656	 41672	 41689	 41705	 41718	 41732	 41750	 41767	 41784	 41800	 41807
	 41820	 41827	 41843	 41858	 41878	 41893	 41912	 41932	 41952	 41958	 41975	 41981	 41998	 42004
	 42022	 42028	 42045	 42051	 42069	 42075	 42091	 42097	 42114	 42120	 42137	 42143	 42161	 42167
	 42184	 42190	 42208	 42214	 42229	 42235	 42252	 42258	 42274	 42280	 42297	 42303	 42319	 42325
	 42342	 42348	 42363	 42369	 42386	 42392	 42408	 42414	 42431	 42437	 42453	 42459	 42476	 42482
	 42499	 42505	 42523	 42529	 42546	 42552	 42570	 42576	 42593	 42599	 42617	 42623	 42640	 42646
	 42664	 42670	 42687	 42693	 42711	 42717	 42734	 42740	 42758	 42764	 42781	 42787	 42805	 42811
	 42828	 42834	 42852	 42858	 42875	 42881	 42899	 42905	 43098#	 43289	 43296	 43303	 43310	 43317
	 43323	 43333	 43351	 43369	 43390	 43420	 43439	 43449	 43460	 43468	 43476	 43484	 43492	 43500
	 43507	 43514	 43521	 43530	 43537	 43545	 43553	 43560	 43568	 43583	 43601	 43619	 43638	 43657
	 43665	 43679	 43685	 43706	 43722	 43730	 43738	 43759	 43767	 43774	 43782	 43788	 43796	 43803
	 43811	 43818	 43826	 43833	 43841	 43848	 43856	 43889	 43917	 43945	 43973	 44001	 44029	 44057
	 44104	 44136	 44168	 44200	 44232	 44264	 44296	 44354	 44396	 44438	 44480	 44522	 44564	 44606
	 44645	 44667	 44689	 44710	 44732	 44756	 44778	 44800	 44821	 44843	 44867	 44889	 44911	 44932
	 44954	 44978	 45000	 45022	 45043	 45065	 45089	 45111	 45133	 45154	 45176	 45200	 45222	 45244
	 45265	 45287	 45311	 45333	 45355	 45376	 45398	 45422	 45444	 45466	 45487	 45509	 45533	 45555
	 45577	 45598	 45620	 45644	 45666	 45688	 45709	 45731	 45778	 45809	 45840	 45871	 45902	 45933
	 45964	 47231	 47238	 47263	 47270	 47299	 47306	 47331	 47338	 47367	 47374	 47399	 47406	 47435
	 47442	 47467	 47474	 47503	 47510	 47535	 47542	 47571	 47578	 47603	 47610	 47639	 47646	 47671
	 47678	 47716	 47752	 47788	 47824	 47860	 47896	 47932	 47971	 48014	 48036	 48058	 48080	 48102
	 48124	 48146	 48160	 48171	 48200	 48205	 48220	 48225	 48240	 48245	 48260	 48265	 48280	 48285
	 48300	 48305	 48320	 48325	 48340	 48345	 48360	 48365	 48380	 48385	 48400	 48405	 48420	 48425
	 48440	 48445	 48460	 48465	 48480	 48485	 48500	 48505	 48520	 48525	 48540	 48545	 48582	 48622
	 48662	 48702	 48742	 48782	 48822	 50773	 50789	 50805	 50832	 50864	 50896	 50928	 50960	 50992
	 51024	 51056	 51108	 51113	 51139	 51164
STOP1	 43102#	 48870	 48911	 48952	 48993	 49034	 49075	 49116	 49157	 49198	 49239	 49280	 49321	 49362
	 49403	 49444	 49485	 49526	 49567	 49608	 49649	 49690	 49731	 49772	 49813	 49854	 49895	 49936
	 49977	 50018	 50059	 50100	 50141	 50170	 50199	 50228	 50257	 50286	 50315	 50344	 50373	 50402
	 50431	 50460	 50489	 50518	 50547	 50576	 50605	 50634	 50663	 50691	 50719	 50747
STOP2	 42960#	 43341	 43358	 43377	 43397	 43410	 43428	 43590	 43609	 43627	 43645	 43693	 43712	 43895     SEQ 1252
	 43923	 43951	 43979	 44007	 44035	 44063	 44110	 44142	 44174	 44206	 44238	 44270	 44302	 44360
	 44402	 44444	 44486	 44528	 44570	 44612	 44652	 44674	 44696	 44717	 44738	 44763	 44785	 44807
	 44828	 44849	 44874	 44896	 44918	 44939	 44960	 44985	 45007	 45029	 45050	 45071	 45096	 45118
	 45140	 45161	 45182	 45207	 45229	 45251	 45272	 45293	 45318	 45340	 45362	 45383	 45404	 45429
	 45451	 45473	 45494	 45515	 45540	 45562	 45584	 45605	 45626	 45651	 45673	 45695	 45716	 45737
	 45784	 45815	 45846	 45877	 45908	 45939	 45970	 46451	 46488	 46525	 46562	 46599	 46636	 46673
	 46710	 46747	 46784	 46821	 46858	 46895	 46932	 46969	 47006	 47043	 47080	 47117	 47154	 47191
	 47722	 47758	 47794	 47830	 47866	 47902	 47938	 48577	 48617	 48657	 48697	 48737	 48777	 48817
	 48876	 48917	 48958	 48999	 49040	 49081	 49122	 49163	 49204	 49245	 49286	 49327	 49368	 49409
	 49450	 49491	 49532	 49573	 49614	 49655	 49696	 49737	 49778	 49819	 49860	 49901	 49942	 49983
	 50024	 50065	 50106	 50147	 50176	 50205	 50234	 50263	 50292	 50321	 50350	 50379	 50408	 50437
	 50466	 50495	 50524	 50553	 50582	 50611	 50640	 50669	 50697	 50725	 50753	 50838	 50870	 50902
	 50934	 50966	 50998	 51030	 51062	 51104	 51120	 51145	 51170
STUCK	 43157#	 45994	 46015	 46036	 46057	 46078	 46100	 46121	 46152	 46170	 46188	 46206	 46224	 46242
	 46260	 46295	 46312	 46329	 46346	 46363	 46380	 46397	 46441	 46478	 46515	 46552	 46589	 46626
	 46663	 46700	 46737	 46774	 46811	 46848	 46885	 46922	 46959	 46996	 47033	 47070	 47107	 47144
	 47181
SWITCH	   271#
TBOTH	 42974#	 43337	 43354	 43373	 43393	 43406	 43424	 43586	 43605	 43623	 43641	 43689	 44648	 44670
	 44692	 44713	 44759	 44781	 44803	 44824	 44870	 44892	 44914	 44935	 44981	 45003	 45025	 45046
	 45092	 45114	 45136	 45157	 45203	 45225	 45247	 45268	 45314	 45336	 45358	 45379	 45425	 45447
	 45469	 45490	 45536	 45558	 45580	 45601	 45647	 45669	 45691	 45712	 46447	 46484	 46521	 46558
	 46595	 46632	 46669	 46706	 46743	 46780	 46817	 46854	 46891	 46928	 46965	 47002	 47039	 47076
	 47113	 47150
TGET	 42969#	 43338	 43355	 43374	 43394	 43407	 43425	 43587	 43606	 43624	 43642	 43690	 43709	 43892
	 43920	 43948	 43976	 44004	 44032	 44060	 44107	 44139	 44171	 44203	 44235	 44267	 44299	 44357
	 44399	 44441	 44483	 44525	 44567	 44609	 44649	 44671	 44693	 44714	 44735	 44760	 44782	 44804
	 44825	 44846	 44871	 44893	 44915	 44936	 44957	 44982	 45004	 45026	 45047	 45068	 45093	 45115
	 45137	 45158	 45179	 45204	 45226	 45248	 45269	 45290	 45315	 45337	 45359	 45380	 45401	 45426
	 45448	 45470	 45491	 45512	 45537	 45559	 45581	 45602	 45623	 45648	 45670	 45692	 45713	 45734
	 45781	 45812	 45843	 45874	 45905	 45936	 45967	 46448	 46485	 46522	 46559	 46596	 46633	 46670
	 46707	 46744	 46781	 46818	 46855	 46892	 46929	 46966	 47003	 47040	 47077	 47114	 47151	 47188
	 47719	 47755	 47791	 47827	 47863	 47899	 47935	 48574	 48614	 48654	 48694	 48734	 48774	 48814
	 48873	 48914	 48955	 48996	 49037	 49078	 49119	 49160	 49201	 49242	 49283	 49324	 49365	 49406
	 49447	 49488	 49529	 49570	 49611	 49652	 49693	 49734	 49775	 49816	 49857	 49898	 49939	 49980
	 50021	 50062	 50103	 50144	 50173	 50202	 50231	 50260	 50289	 50318	 50347	 50376	 50405	 50434
	 50463	 50492	 50521	 50550	 50579	 50608	 50637	 50666	 50694	 50722	 50750	 50835	 50867	 50899
	 50931	 50963	 50995	 51027	 51059	 51101	 51117	 51142	 51167
TRAP	 43153#	 46148	 46166	 46184	 46202	 46220	 46238	 46256	 46289	 46306	 46323	 46340	 46357	 46374
	 46391
TRPCHK	 43164#	 45999	 46020	 46041	 46062	 46083	 46105	 46126	 46158	 46176	 46194	 46212	 46230	 46248
	 46266	 46300	 46317	 46334	 46351	 46368	 46385	 46402	 46428	 46465	 46502	 46539	 46576	 46613
	 46650	 46687	 46724	 46761	 46798	 46835	 46872	 46909	 46946	 46983	 47020	 47057	 47094	 47131
	 47168
TRPPI	 42931#	 43868	 44076	 44317	 45752	 47962	 48005	 48027	 48049	 48071	 48093	 48115	 48137
TSET	 42964#	 43327	 43345	 43362	 43381	 43401	 43414	 43432	 43594	 43613	 43631	 43649	 43697	 43877
	 43905	 43933	 43961	 43989	 44017	 44045	 44092	 44124	 44156	 44188	 44220	 44252	 44284	 44340
	 44382	 44424	 44466	 44508	 44550	 44592	 44636	 44656	 44678	 44700	 44721	 44747	 44767	 44789
	 44811	 44832	 44858	 44878	 44900	 44922	 44943	 44969	 44989	 45011	 45033	 45054	 45080	 45100
	 45122	 45144	 45165	 45191	 45211	 45233	 45255	 45276	 45302	 45322	 45344	 45366	 45387	 45413
	 45433	 45455	 45477	 45498	 45524	 45544	 45566	 45588	 45609	 45635	 45655	 45677	 45699	 45720
	 45765	 45796	 45827	 45858	 45889	 45920	 45951	 46418	 46455	 46492	 46529	 46566	 46603	 46640
	 46677	 46714	 46751	 46788	 46825	 46862	 46899	 46936	 46973	 47010	 47047	 47084	 47121	 47158     SEQ 1253
	 47702	 47738	 47774	 47810	 47846	 47882	 47918	 48559	 48599	 48639	 48679	 48719	 48759	 48799
	 48854	 48895	 48936	 48977	 49018	 49059	 49100	 49141	 49182	 49223	 49264	 49305	 49346	 49387
	 49428	 49469	 49510	 49551	 49592	 49633	 49674	 49715	 49756	 49797	 49838	 49879	 49920	 49961
	 50002	 50043	 50084	 50130	 50159	 50188	 50217	 50246	 50275	 50304	 50333	 50362	 50391	 50420
	 50449	 50478	 50507	 50536	 50565	 50594	 50623	 50652	 50680	 50708	 50736	 50819	 50851	 50883
	 50915	 50947	 50979	 51011	 51043	 51071	 51126	 51152
TTALTM	   193#
TTICHR	   186#
TTICNV	   191#
TTIDEC	   190#
TTINO	   188#
TTIOCT	   189#
TTIYES	   187#
TTLOOK	   192#
TTSIXB	   194#
TTYINP	   195#
WATINT	 42956#	 43885	 43913	 43941	 43969	 43997	 44025	 44053	 44100	 44132	 44164	 44196	 44228	 44260
	 44292	 44350	 44392	 44434	 44476	 44518	 44560	 44602	 45773	 45804	 45835	 45866	 45897	 45928
	 45959	 45995	 46016	 46037	 46058	 46079	 46101	 46122	 46153	 46171	 46189	 46207	 46225	 46243
	 46261	 46296	 46313	 46330	 46347	 46364	 46381	 46398	 46442	 46479	 46516	 46553	 46590	 46627
	 46664	 46701	 46738	 46775	 46812	 46849	 46886	 46923	 46960	 46997	 47034	 47071	 47108	 47145
	 47182	 47228	 47260	 47296	 47328	 47364	 47396	 47432	 47464	 47500	 47532	 47568	 47600	 47636
	 47668	 47709	 47745	 47781	 47817	 47853	 47889	 47925	 47967	 48010	 48032	 48054	 48076	 48098
	 48120	 48142
XCHN2	 43169#	 46422	 46459	 46496	 46533	 46570	 46607	 46644	 46681	 46718	 46755	 46792	 46829	 46866
	 46903	 46940	 46977	 47014	 47051	 47088	 47125	 47162
XUUO	 43106#	 48848	 48889	 48930	 48971	 49012	 49053	 49094	 49135	 49176	 49217	 49258	 49299	 49340
	 49381	 49422	 49463	 49504	 49545	 49586	 49627	 49668	 49709	 49750	 49791	 49832	 49873	 49914
	 49955	 49996	 50037	 50078
XUUOA	 43128#	 50125	 50154	 50183	 50212	 50241	 50270	 50299	 50328	 50357	 50386	 50415	 50444	 50473
