TYOUT -- GENERAL TERMINAL OUTPU	MACRO M1113  03-APR-86 22:51  PAGE 1


      1					.IIF NDF	FTLCMN,.NLIST
      2					.TITLE	DEFINE -- LOCAL DEFINITION MODULE 7709.20
      3
      4						.IDENT	"015500"
      5
      6					;
      7					;                             COPYRIGHT (C) 1977, 1984,1985 BY
      8					;                     DIGITAL EQUIPMENT CORPORATION, MAYNARD MASS.
      9					;			ALL RIGHTS RESERVED
     10					;       THIS SOFTWARE IS FURNISHED UNDER A LICENSE AND MAY BE  USED  AND  COPIED
     11					;       ONLY IN ACCORDANCE WITH THE TERMS OF SUCH LICENSE AND WITH THE INCLUSION
     12					;       OF THE ABOVE COPYRIGHT NOTICE.  THIS SOFTWARE OR ANY OTHER COPIES THERE-
     13					;       OF  MAY NOT BE PROVIDED OR OTHERWISE MADE AVAILABLE TO ANY OTHER PERSON.
     14					;       NO TITLE TO OR OWNERSHIP OF THE SOFTWARE IS HEREBY TRANSFERRED.
     15					;
     16					;       THE INFORMATION CONTAINED IN THIS SOFTWARE IS SUBJECT TO CHANGE  WITHOUT
     17					;       NOTICE  AND SHOULD NOT BE CONSTRUED AS A COMMITMENT BY DIGITAL EQUIPMENT
     18					;       CORPORATION.
     19					;
     20					;       DIGITAL ASSUMES NO RESPONSIBILITY FOR THE  USE  OR  RELIABILITY  OF  ITS
     21					;       SOFTWARE ON EQUIPMENT WHICH IS NOT SUPPILED BY DIGITAL.
     22					;
     23					;		MODULE: LOCAL DEFINITIONS
     24					;
     25					;		VERSION: 15-50
     26					;
     27					;		AUTHOR: R. BELANGER
     28					;
     29					;		DATE: 7905.10
     30					;
     31					;	THIS MODULE CONTAINS:
     32					;
     33					;	1) LOCAL MACRO DEFINITIONS
     34					;	2) LOCAL ASSEMBLY SWITCHES
     35					;	3) LOCAL DEFINITIONS
     36					;	4) LOCAL EQUATED SYMBOLS
     37					;
     38					;	MODIFICATIONS:
     39					;
     40					;	NO.	DATE		PROGRAMMER	REASON
     41					;	---	----		----------	------
     42					;	001	11-DEC-77	A. PECKHAM	DELETE LOCAL DEFINITIONS
     43					;						OF PROTOCOL CHANGE AND
     44					;						CONTROL-C EVENT FLAGS
     45					;	002	16-FEB-77	R. BELANGER	REMOVE KLINIK CONDITIONALS
     46					;
     47					; SET VERSION OF THE PARSER HERE
     48					;
     49		000015 			PAR$$V	=	15		; VERSION 15
     50		000050 			PAR$$E	=	50		; EDIT 50
     51					;
     52					; THIS IS BEING EXPERIMENTED
     53					;
     54		000126 			PAR$$K	=	'V		; KEY FOR RELEASE
DEFINE -- LOCAL DEFINITION MODU	MACRO M1113  03-APR-86 22:51  PAGE 2
DEFINE -- COMMAND PARSER ASSEMBLY SWITCHES 7709.20

     56					.SBTTL	DEFINE -- COMMAND PARSER ASSEMBLY SWITCHES 7709.20
     57
     58		000000 			FT1145=0			; ASSEMBLE FOR PDP-11/45 IF .NE. 0
     59		000001 			FT1140=1			; ASSEMBLE FOR PDP-11/40 IF .NE. 0
     60		000000 			FT1135=0			; ASSEMBLE FOR PDP-11/35 IF .NE. 0
     61		000000 			FT1120=0			; ASSEMBLE FOR PDP-11/20 IF .NE. 0
     62		000000 			FT1115=0			; ASSEMBLE FOR PDP-11/15 IF .NE. 0
     63		000000 			FT1110=0			; ASSEMBLE FOR PDP-11/10 IF .NE. 0
     64		000000 			FT1105=0			; ASSEMBLE FOR PDP-11/05 IF .NE. 0
     65		000000 			FTBYTE=0			; ASSEMBLE BYTE SUPPORT IF .NE 0
     66		000000 			FTCRAM=0			; ASSEMBLE CRAM FEATURES IF .NE. 0
     67		000001 			FTDEBUG=1			; ASSEMBLE DEBUG FEATURES IF .NE. 0
     68		000000 			FTDISP=0			; ASSEMBLE DISPATCH TABLE IF .NE 0
     69		000000 			FTDRAM=0			; ASSEMBLE DRAM FEATURES IF .NE. 0
     70		000000 			FTHELP=0			; ASSEMBLE HELP FEATURE IF .NE. 0
     71		000000 			FTKLER=0			; ASSEMBLE "KLERR" SUPPORT IF .NE. 0
     72		000000 			FTLCVT=0			; ASSEMBLE LOWER CASE SUPPORT IF .NE. 0
     73		000001 			FTLIST=1			; ASSEMBLE LPT SUPPORT IF .NE. 0
     74		000001 			FTTRAK=1			; ASSEMBLE TRACK FEATURE IF .NE. 0
     75		000001 			FTTRP4=1			; ASSEMBLE TRAP AT 4 CODE IF .NE. 0
     76		000130 			FTUCVR=130			; MICROCODE FEATURE SWITCH
     77		000001 			FTKLE=1				; KLERR SNAPSHOT SUPPORT FLAG
     78					;DEB880=0			; DEFINED IF DEBUGGING ON RSX-11M SYS880
     79
     80					.IF NE FT1145
     81						FT1140=1
     82					.ENDC		; FT1145
     83
     84					.IF NE FT1140
     85		000001 				FT1135=1
     86					.ENDC		; FT1140
     87
     88					.IF NE FT1135
     89		000001 				FT1120=1
     90					.ENDC		; FT1135
     91
     92					.IF NE FT1120
     93		000001 				FT1115=1
     94					.ENDC		; FT1135
     95
     96					.IF NE FT1115
     97		000001 				FT1110=1
     98					.ENDC		; FT1115
     99
    100					.IF NE FT1110
    101		000001 				FT1105=1
    102					.ENDC		; FT1110
DEFINE -- LOCAL DEFINITION MODU	MACRO M1113  03-APR-86 22:51  PAGE 3
DEFINE -- COMMAND PARSER MACRO CALLS 7709.20

    104					.SBTTL	DEFINE -- COMMAND PARSER MACRO CALLS 7709.20
    105
    106						.LIST	MEB, SYM
    107						.NLIST	CND
    108						.ENABL	AMA
    109
DEFINE -- LOCAL DEFINITION MODU	MACRO M1113  03-APR-86 22:51  PAGE 4
DEFINE -- LOCAL MACRO DEFINITIONS 7709.20

    114					.SBTTL	DEFINE -- LOCAL MACRO DEFINITIONS 7709.20
    115
    116					; SUBROUTINE CALL MACROS
    117
    118					.MACRO	CALL	REG,DEST
    119					.NTYPE	$$,REG
    120					.IF EQ	$$&70
    121						 JSR	REG,DEST
    122					.IFF
    123						 JSR	PC,REG
    124					.ENDC		; IF EQ
    125					.ENDM	CALL
    126
    127					.MACRO	CALLR	DEST
    128						 JMP	DEST
    129					.ENDM	CALLR
    130
    131					; STACK OPERATION MACROS
    132
    133					.MACRO	POP	ARG
    134					.IRP	A,<ARG>
    135						 MOV	(SP)+,A
    136					.ENDR
    137					.ENDM	POP
    138
    139					.MACRO	PUSH	ARG
    140					.IRP	A,<ARG>
    141						 MOV	A,-(SP)
    142					.ENDR
    143					.ENDM	PUSH
    144
    145					; SUBROUTINE RETURN MACRO
    146
    147					.MACRO	RETURN	REG
    148					.IF NB	<REG>
    149						 RTS	REG
    150					.IFF
    151						 RTS	PC
    152					.ENDC		; IF NB
    153					.ENDM	RETURN
DEFINE -- LOCAL DEFINITION MODU	MACRO M1113  03-APR-86 22:51  PAGE 5
DEFINE -- LOCAL MACRO DEFINITIONS 7709.20

    155					; DEFINE THE ERROR TRAP MACRO FOR ".PTTRP"
    156
    157					.MACRO	ERROR$	CODE
    158						 PUSH	#^R'CODE
    159						 TRAP	TC.ERR
    160					.ENDM	ERROR$
    161
    162					; DEFINE THE FATAL TRAP MACRO FOR ".PTTRP"
    163
    164					.MACRO	FATAL$	CODE
    165					FA$'CODE=.
    166						 PUSH	#^R'CODE
    167						 TRAP	TC.RST
    168					.ENDM	FATAL$
    169
    170					; DEFINE THE CONTINUE TRAP MACRO FOR ".PTTRP"
    171
    172					.MACRO	ERCON$	CODE
    173					EC$'CODE=.
    174						 PUSH	#^R'CODE
    175						 TRAP	TC.CON
    176						 TST	(SP)+
    177					.ENDM	ERCON$
    178
    179					; DEFINE THE COMMAND TABLE MACRO
    180
    181					.MACRO	COMND$	COMMAND,LGLBTS,DISPAT,NAM
    182					.PSECT	MESSAG
    183					.IF	NDF,NAM'MSG
    184					$$$'NAM=0
    185					NAM'MSG:: .ASCIZ	%COMMAND%
    186					.ENDC
    187					.IF	DF,$$PASS2
    188					$$$'NAM=$$$'NAM+1
    189					.IF	EQ,$$$'NAM-1
    190					NAM'MSG:: .ASCIZ	%COMMAND%
    191					.ENDC
    192					.ENDC
    193					.PSECT	DATA
    194						 .WORD	NAM'MSG		; POINTER TO "COMMAND" SYMBOL
    195						 .WORD	LGLBTS		; LEGAL BITS
    196						 .WORD	DISPAT		; ROUTINE TO CALL OR DATA
    197					.ENDM	COMND$
DEFINE -- LOCAL DEFINITION MODU	MACRO M1113  03-APR-86 22:51  PAGE 6
DEFINE -- LOCAL MACRO DEFINITIONS 7709.20

    199					; DEFINE THE NORMAL ERROR CODE MACRO
    200
    201					.MACRO	NSERR$	COD,STRING
    202					.PSECT	ERRMSG
    203					COD'ERM:	 .ASCIZ	%COD - STRING%
    204					.PSECT	DATA
    205						 .RAD50	/COD/		; "COD" IN .RAD50
    206						 .WORD	COD'ERM		; POINTER TO MESSAGE
    207					.ENDM	NSERR$
    208
    209					; DEFINE THE SPECIAL ERROR CODE MACRO
    210
    211					.MACRO	SPERR$	COD,STRING
    212					.PSECT	ERRMSG
    213					COD'ERM:
    214						 .ASCIZ	%COD - STRING%
    215					.PSECT	DATA
    216						 .RAD50	/COD/		; "COD" IN .RAD50
    217						 .WORD	.SE'COD		; DISPATCH TO HANDLER
    218						 .WORD	COD'ERM		; POINTER TO MESSAGE
    219					.ENDM	SPERR$
    220
    221					; DEFINE AN "EXCHANGE" MACRO
    222
    223					.MACRO	EXCH$	ARG1,ARG2
    224						 MOV	ARG1,-(SP)
    225						 MOV	ARG2,ARG1
    226						 MOV	(SP)+,ARG2
    227					.ENDM	EXCH$
DEFINE -- LOCAL DEFINITION MODU	MACRO M1113  03-APR-86 22:51  PAGE 7
DEFINE -- SPECIAL KL MACROS AND DEFINITIONS 7709.20

    229					.SBTTL	DEFINE -- SPECIAL KL MACROS AND DEFINITIONS 7709.20
    230
    231					; DEFINE KL I/O OPCODES
    232
    233		000000 			BLKI=0			; BLOCK IN
    234		000001 			DATAI=1			; DATA IN
    235		000002 			BLKO=2			; BLOCK OUT
    236		000003 			DATAO=3			; DATA OUT
    237		000004 			CONO=4			; CONDITIONS OUT
    238		000005 			CONI=5			; CONDITIONS IN
    239		000006 			CONSZ=6			;      "     "  SKIP IF ZERO
    240		000007 			CONSO=7			;      "     "   "   "  ONES
    241
    242					; DEFINE KL INTERNAL I/O DEVICES
    243
    244		000000 			APR=0			; ARITHMETIC PROCESSOR (ALU)
    245		000004 			PI=4			; PRIORITY INTERRUPT SYSTEM
    246		000010 			PAG=10			; PAGING SYSTEM
    247		000014 			CCA=14			; CACHE CONTROL
    248		000574 			KLP=574			; [**]
DEFINE -- LOCAL DEFINITION MODU	MACRO M1113  03-APR-86 22:51  PAGE 8
DEFINE -- SPECIAL KL MACROS AND DEFINITIONS 7709.20

    250					; DEFINE KL INSTRUCTION MACRO
    251
    252					.MACRO	IKL$	OP,DAC,DI,DAD,DXR
    253						ADH=0
    254						ADL=0
    255						.IF NB,DAD
    256							.IRPC AD1,DAD
    257								.IIF GE,<ADL-10000>,ADH=ADL/10000
    258							ADL=10*<ADL&7777>+AD1
    259							.ENDR
    260						.ENDC		; .IF NB
    261						.IIF B,DAC,AC=0
    262						.IIF NB,DAC,AC=DAC
    263						.IIF B,DI,I=0
    264						.IIF NB,DI,I=DI
    265						.IIF B,DXR,XR=0
    266						.IIF NB,DXR,XR=DXR
    267						$$A=<ADL&377>
    268						$$B=<<ADL/400>!<ADH*200&377>>
    269						$$C=<AC&1*200+<I*100+<XR*4>>+<ADH/2>>
    270						$$D=<OP&37*10+<AC/2>>
    271						$$E=<OP/40>
    272						$$F=0
    273						 .BYTE	$$A,$$B
    274						 .BYTE	$$C,$$D
    275						 .BYTE	$$E,$$F
    276					.ENDM	IKL$
    277
    278					; DEFINE KL I/O INSTRUCTION MACRO
    279
    280					.MACRO	IOKL$	OP,DDV,DI,DAD,DXR
    281						.IIF B,DI,I=0
    282						.IIF NB,DI,I=DI
    283						.IIF B,DXR,XR=0
    284						.IIF NB,DXR,XR=DXR
    285						ADH = 0
    286						ADL = 0
    287						.IRPC AD1,DAD
    288							.IIF GE,<ADL-10000>, ADH=ADL/10000
    289							ADL=10*<ADL&7777>+AD1
    290						.ENDR
    291						$$A=<ADL&377>
    292						$$B=<<ADL/400>!<ADH*200&377>>
    293						$$C=<OP&1*200+<I*100+<XR*4>>+<ADH/2>>
    294						$$D=<DDV&374+<OP/2>>
    295						$$E=<DDV/400+16>
    296						$$F=0
    297						 .BYTE	$$A,$$B
    298						 .BYTE	$$C,$$D
    299						 .BYTE	$$E,$$F
    300					.ENDM	IOKL$
DEFINE -- LOCAL DEFINITION MODU	MACRO M1113  03-APR-86 22:51  PAGE 9
DEFINE -- LOCAL DEFINITIONS 7709.20

    302					.SBTTL	DEFINE -- LOCAL DEFINITIONS 7709.20
    303
    304					; LOCAL DEFINITIONS
    305
    306		000001 			BIT00=000001			; DEFINE LOW BITS FOR SYMMETRY
    307		000002 			BIT01=000002
    308		000004 			BIT02=000004
    309		000010 			BIT03=000010
    310		000020 			BIT04=000020
    311		000040 			BIT05=000040
    312		000100 			BIT06=000100
    313		000200 			BIT07=000200
    314		000400 			BIT08=000400
    315		001000 			BIT09=001000
    316		002000 			BIT10=002000
    317		004000 			BIT11=004000
    318		010000 			BIT12=010000
    319		020000 			BIT13=020000
    320		040000 			BIT14=040000
    321		100000 			BIT15=100000
    322
    323					; DEFINE EXAMINE DEPOSIT MODE BYTES
    324
    325		000000 			ED.EPT=0*40			; EXEC PROCESS TABLE (RELATIVE)
    326		000040 			ED.EXV=1*40			; EXEC VIRTUAL SPACE
    327		000100 			ED.UPT=2*40			; USER PROCESS TABLE (RELATIVE)
    328		000140 			ED.USV=3*40			; USER VIRTUAL SPACE
    329		000200 			ED.PHY=4*40			; PHYSICAL ADDRESSES
    330
    331					; DEFINE BITS IN ".PEWRD"
    332
    333		000001 			PE.CES=1			; CLOCK ERROR STOP
    334		000002 			PE.DRM=2			; DRAM PARITY ERROR
    335		000004 			PE.CRM=4			; CRAM PARITY ERROR
    336		000010 			PE.FMP=10			; FAST MEMORY PARITY ERROR
    337		000020 			PE.FSS=20			; FIELD SERVICE STOP
    338		000037 			PE.ALL=PE.CES!PE.DRM!PE.CRM!PE.FMP!PE.FSS
    339
    340					; DEFINE BITS IN ".APRWD"
    341
    342		000001 			AP.PWF=1			; APR POWER FAIL
    343		000002 			AP.SAP=2			; APR SBUS ADDRESS PARITY ERROR
    344		000004 			AP.CDP=4			; APR CACHE DIRECTORY PARITY ERROR
    345		000010 			AP.MPE=10			; APR MB (MEMORY) PARITY ERROR
    346		000020 			AP.IPF=20			; APR I/O PAGE FAIL ERROR
    347		000040 			AP.NXM=40			; APR NON-EX-MEM ERROR
    348		000100 			AP.SBE=100			; APR SBUS ERROR
    349		000177 			AP.ALL=AP.PWF!AP.SAP!AP.CDP!AP.MPE!AP.IPF!AP.NXM!AP.SBE
DEFINE -- LOCAL DEFINITION MODU	MACRO M1113  03-APR-86 22:51  PAGE 10
DEFINE -- LOCAL DEFINITIONS 7709.20

    351					; DEFINE OFFSETS INTO DTE-20 DIAG REGISTERS
    352
    353		000000 			.DIAG1=0			; DTE-20 DIAG1 WORD
    354		000002 			.DIAG2=2			; DTE-20 DIAG2 WORD
    355		000004 			.DTSTW=4			; DTE-20 STATUS WORD
    356		000006 			.DIAG3=6			; DTE-20 DIAG3 WORD
    357
    358					; DEFINE DTE-20 DIAG1 BITS
    359
    360		100000 			D1.DS0=BIT15			; DIAGNOSTIC SELECT CODE 00 [WRITE]
    361		040000 			D1.DS1=BIT14			;     "        "     "   01    "
    362		020000 			D1.DS2=BIT13			;     "	       "     "   02    "
    363		010000 			D1.DS3=BIT12			;     "	       "     "   03    "
    364		004000 			D1.DS4=BIT11			;     "	       "     "   04    "
    365		002000 			D1.DS5=BIT10			;     "        "     "   05    "
    366		001000 			D1.DS6=BIT09			;     "        "     "   06    "
    367		004000 			D1.CES=BIT11			; KL CLOCK ERROR STOP [READ]
    368		002000 			D1.RUN=BIT10			; KL RUN FLAG [READ]
    369		001000 			D1.HLP=BIT09			; KL IS IN HALT LOOP [READ]
    370		000400 			D1.DEX=BIT08			; DTE-20 IS IN DEPOSIT / EXAMINE STATE [READ]
    371		000200 			D1.T10=BIT07			; DTE-20 IS IN TO KL STATE [READ]
    372		000200 			D1.LBK=BIT07			; PUT DTE-20 IN LOOPBACK MODE [WRITE]
    373		000100 			D1.T11=BIT06			; DTE-20 IS IN TO 11 STATE [READ]
    374		000040 			D1.DDT=BIT05			; SET DTE-20 DIAGNOSTIC MODE [WRITE]
    375									; DTE-20 IS IN DIAGNOSTIC MODE [READ]
    376		000020 			D1.V04=BIT04			; VECTOR INTERRUPT ADDRESS BIT 04 [READ]
    377		000020 			D1.PLS=BIT04			; GENERATE A CLOCK CYCLE IF D1.DDT SET [WRITE]
    378		000010 			D1.DFM=BIT03			; CHANGE EX / DEP TO DIAG FUNCTIONS IF PRIVILEGED [WRITE]
    379		000004 			D1.XFR=BIT02			; SEND DATA TO KL IF = 1 [READ]
    380									; RECEIVE DATA FROM KL IF = 0 [READ]
    381
    382					; BIT 01 IS UNUSED [MBZ]
    383
    384		000001 			D1.DCS=BIT00			; DIAG COMMAND IN PROGRESS [READ]
    385									; SET DIAGNOSTIC COMMAND START IF = 1 [WRITE]
    386									; CLEAR DIAGNOSTIC COMMAND START IF = 0 [WRITE]
    387		000442 			D1.MBZ=D1.DEX!D1.DDT!BIT01	; MUST BE ZERO ON WRITE
DEFINE -- LOCAL DEFINITION MODU	MACRO M1113  03-APR-86 22:51  PAGE 11
DEFINE -- LOCAL DEFINITIONS 7709.20

    389					; DEFINE DTE-20 DIAG2 BITS
    390
    391		100000 			D2.RA0=BIT15			; RFM ADDRESS BIT 0 [READ]
    392		040000 			D2.RA1=BIT14			; RFM ADDRESS BIT 1 [READ]
    393		040000 			D2.EBD=BIT14			; SET EBUS DONE IF = 1 [WRITE]
    394									; CLEAR EBUS DONE IF = 0 [WRITE]
    395		020000 			D2.RA2=BIT13			; RFM ADDRESS BIT 2 [READ]
    396
    397					; BITS 11 THRU 7 ARE UNUSED [MBZ]
    398
    399		000100 			D2.RST=BIT06			; RESET THE DTE-20 IF = 1 [WRITE]
    400
    401					; BIT 5 IS UNUSED [MBZ]
    402
    403		000020 			D2.MS8=BIT04			; MINOR STATE COUNTER BIT 8 [WRITE]
    404		000010 			D2.MS4=BIT03			;   "	  "	 "     "  4    "
    405		000004 			D2.MS2=BIT02			;   "	  "	 "     "  2    "
    406		000002 			D2.MS1=BIT01			;   "     "	 "     "  1    "
    407
    408					; BIT 0 IS UNUSED [MBZ]
    409
    410		177641 			D2.MBZ=BIT15!BIT14!BIT13!BIT12!BIT11!BIT10!BIT09!BIT08!BIT07!BIT05!BIT00
    411
    412					; DEFINE DTE-20 DIAG3 BITS
    413
    414		100000 			D3.SSL=BIT15			; SWAP SELECT LEFT [READ]
    415		040000 			D3.PAR=BIT14			; PARITY FLOP [READ]
    416
    417					; BITS 13 THRU 08 ARE UNIBUS PARITY ERROR INFO [READ]
    418
    419					; BITS 07 AND 06 ARE UNUSED [MBZ]
    420
    421		000040 			D3.SCD=BIT05			; SHIFT DATA IN 13-08 FOR NEXT READ [WRITE]
    422		000020 			D3.UPE=BIT04			; DATO UNIBUS PARITY ERROR (DUPE) [READ]
    423		000020 			D3.CDD=BIT04			; CLEAR DUPE AND DURE FLAGS
    424		000010 			D3.WEP=BIT03			; WRITE EVEN UNIBUS PARITY FLOP [READ]
    425									; WRITE EVEN UNIBUS PARITY IF = 1 [WRITE]
    426									; WRITE ODD (GOOD) UNIBUS PARITY IF = 0 [WRITE]
    427		000004 			D3.URE=BIT02			; DATO UNIBUS RECEIVE ERROR FLAG (DURE) [READ]
    428		000002 			D3.NPE=BIT01			; NPR UNIBUS PARITY ERROR FLAG (NUPE) [READ]
    429									; CLEAR NUPE [WRITE]
    430		000001 			D3.TXB=BIT00			; SET TO KL BYTE TRANSFER MODE [WRITE]
    431
    432		177704 			D3.MBZ=BIT15!BIT14!BIT13!BIT12!BIT11!BIT10!BIT09!BIT08!BIT07!BIT06!BIT02
    433
    434		000001 			D3.RST=D3.TXB			; DIAG WORD 3 RESET BIT
DEFINE -- LOCAL DEFINITION MODU	MACRO M1113  03-APR-86 22:51  PAGE 12
DEFINE -- LOCAL DEFINITIONS 7709.20

    436					; DEFINE DTE-20 STATUS BITS
    437
    438		100000 			ST.TXD=BIT15			; TO KL TRANSFER DONE FLAG [READ]
    439									; SET TO KL TRANSFER DONE [WRITE]
    440		040000 			ST.CTD=BIT14			; CLEAR TO KL TRANSFER DONE FLAG [WRITE]
    441		020000 			ST.TXE=BIT13			; TO KL ERROR DONE FLAG [READ]
    442									; SET TO KL ERROR DONE FLAG [WRITE]
    443		010000 			ST.RIZ=BIT12			; DTE-20 RAM LOCATION IS ZEROES [READ]
    444		010000 			ST.CTE=BIT12			; CLEAR TO KL ERROR DONE FLAG [WRITE]
    445		004000 			ST.EDB=BIT11			; 11 DOORBELL FLAG [READ]
    446									; SET THE 11 DOORBELL FLAG [WRITE]
    447		002000 			ST.DW1=BIT10			; YES, THIS BIT IS HERE
    448		001000 			ST.MPE=BIT09			; 11 MEMORY PARITY ERROR DURING TO KL XFER [READ]
    449									; CLEAR ST.MPE [WRITE]
    450		000400 			ST.XDB=BIT08			; KL DOORBELL FLAG [READ]
    451									; RING THE KL DOORBELL [WRITE]
    452		000200 			ST.TED=BIT07			; TO 11 TRANSFER DONE FLAG [READ]
    453									; SET ST.TED [WRITE]
    454		000100 			ST.EBS=BIT06			; E BUFFER SELECT [READ]
    455		000100 			ST.CED=BIT06			; CLEAR ST.TED [WRITE]
    456		000040 			ST.NST=BIT05			; TO 11 XFER STOPPED BECAUSE STOP BIT WAS SET [READ]
    457		000040 			ST.IEN=BIT05			; ENABLE DTE-20 TO GENERATE BR REQUESTS IF = 1
    458		000020 			ST.EPE=BIT04			; EBUS PARITY ERROR FLAG [READ]
    459									; CLEAR EBUS PARITY ERROR FLAG IF = 1 [WRITE]
    460		000010 			ST.MOD=BIT03			; DTE-20 IS PRIVILEGED IF = 0 [READ]
    461									;    "	 "  RESTRICTED "  " 1   "
    462		000010 			ST.IDS=BIT03			; DISABLE DTE-20 BR REQUESTS [WRITE]
    463		000004 			ST.DXD=BIT02			; DEPOSIT / EXAMINE DONE FLAG [READ]
    464		000004 			ST.SEP=BIT02			; SET EBUS PARITY ERROR IF = 1 [WRITE]
    465		000002 			ST.TER=BIT01			; TO 11 BYTE XFER ERROR FLAG [READ]
    466		000002 			ST.STE=BIT01			; SET ST.TER IF = 1 [WRITE]
    467		000001 			ST.ION=BIT00			; 11 CAN GENERATE BR REQUESTS [READ]
    468		000001 			ST.CLE=BIT00			; CLEAR ST.TER IF = 1 [WRITE]
    469
    470		011121 			ST.RST=ST.CTE!ST.MPE!ST.CED!ST.EPE!ST.CLE
    471
    472		000000 			ST.MBZ=0			; BIT MASK FOR WRITE
DEFINE -- LOCAL DEFINITION MODU	MACRO M1113  03-APR-86 22:51  PAGE 13
DEFINE -- LOCAL DEFINITIONS 7709.20

    474					; DEFINE FLAG BITS IN ".KLFLG"
    475
    476		100000 			KF.CLK=BIT15			; KL CLOCK IS RUNNING IF .NE. 0
    477		040000 			KF.RUN=BIT14			; KL RUN FLOP IS ON IF .NE. 0
    478		020000 			KF.MRS=BIT13			; KL MASTER RESET FLOP IS ON IF .NE. 0
    479		010000 			KF.SIM=BIT12			; KL IS IN SINGLE INSTRUCTION MODE IF .NE. 0
    480		004000 			KF.SMC=BIT11			; KL IS IN SINGLE PULSE MBOX MODE IF .NE. 0
    481		002000 			KF.SPM=BIT10			;  "   "  "    "      "   EBOX	"   "   "   "
    482		001000 			KF.BRM=BIT09			; KL IS IN BURST MODE IF .NE. 0
    483		000400 			KF.KLO=BIT08			; KL IS IN KL INSTRUCTION MODE IF .NE. 0
    484		000200 			KF.CON=BIT07			; KL IS CONTINUABLE IF .NE. 0
    485		000100 			KF.CES=BIT06			; KL IS IN CLOCK ERROR STOP STATE IF .NE. 0
    486		000200 			KF.DEF=KF.CON			; DEFAULT FLAGS (SEE ".INKLF")
    487
    488					; DEFINE BITS IN ".TRKWD"
    489
    491		000001 			TR.FXC=BIT00			; TRACK FUNCTION EXECUTES IF .NE. 0
    492		000002 			TR.FRD=BIT01			; TRACK FUNCTION READS IF .NE. 0
    493		000004 			TR.FWR=BIT02			; TRACK FUNCTION EXECUTES IF .NE. 0
    494		000010 			TR.EXM=BIT03			; TRACK MEMORY EXAMINES IF .NE. 0
    495		000020 			TR.DEP=BIT04			; TRACK MEMORY DEPOSITS IF .NE. 0
    496		000040 			TR.DTE=BIT05			; TRACK DTE-20 OPERATIONS IF .NE. 0
    497		000077 			TR.ALL=TR.FXC!TR.FRD!TR.FWR!TR.EXM!TR.DEP!TR.DTE
    499
    500					; DEFINE KL PC FLAGS (FROM "C.MAC" V. 1, EDIT 24 7511.25)
    501
    502		010000 			PC.OVF=BIT12			; KL OVERFLOW FLAG (BIT 00)
    503		004000 			PC.CY0=BIT11			; KL CARRY 0 FLAG (BIT 01)
    504		002000 			PC.CY1=BIT10			; KL CARRY 1 FLAG (BIT 02)
    505		001000 			PC.FOV=BIT09			; KL FLOATING OVERFLOW FLAG (BIT 03)
    506		000400 			PC.BIS=BIT08			; KL BYTE INCREMENT SUPPRESSION FLAG (BIT 04)
    507		000200 			PC.USR=BIT07			; KL USER MODE FLAG (BIT 05)
    508		000100 			PC.UIO=BIT06			; KL USER IOT MODE FLAG (BIT 06)
    509		000040 			PC.LIP=BIT05			; KL LAST INSTRUCTION PUBLIC FLAG (BIT 07)
    510		000020 			PC.AFI=BIT04			; KL ADDRESS FAILURE INHIBIT FLAG (BIT 08)
    511		000010 			PC.AT1=BIT03			; KL APR TRAP 1 FLAG (BIT 09)
    512		000004 			PC.AT0=BIT02			; KL APR TRAP 0 FLAG (BIT 10)
    513		000002 			PC.FUF=BIT01			; KL FLOATING UNDERFLOW FLAG (BIT 11)
    514		000001 			PC.NDV=BIT00			; KL NO DIVIDE FLAG (BIT 12)
DEFINE -- LOCAL DEFINITION MODU	MACRO M1113  03-APR-86 22:51  PAGE 14
DEFINE -- LOCAL DEFINITIONS 7709.20

    516					; DEFINE DIAGNOSTIC FUNCTION EXECUTE CODES
    517
    518		000000 			FX.000=0
    519		000000 				FX.CSP=FX.000		; STOP THE KL CLOCK
    520		000002 			FX.001=1*2
    521		000002 				FX.CST=FX.001		; START THE KL CLOCK
    522		000004 			FX.002=2*2
    523		000004 				FX.MBC=FX.002		; PULSE THE MBOX CLOCK
    524		000006 			FX.003=3*2
    525		000006 				FX.EBC=FX.003		; PULSE THE EBOX CLOCK
    526		000010 			FX.004=4*2
    527		000010 				FX.SYC=FX.004		; SYNCH THE EBOX CLOCK LOW
    528		000012 			FX.005=5*2
    529		000012 				FX.BMC=FX.005		; BURST THE MBOX CLOCK
    530		000014 			FX.006=6*2
    531		000014 				FX.CMR=FX.006		; CLEAR MASTER RESET STATE
    532		000016 			FX.007=7*2
    533		000016 				FX.SMR=FX.007		; SET MASTER RESET STATE
    534
    535		000020 			FX.010=10*2
    536		000020 				FX.CRF=FX.010		; CLEAR THE KL RUN FLOP
    537		000022 			FX.011=11*2
    538		000022 				FX.SRF=FX.011		; SET THE KL RUN FLOP
    539		000024 			FX.012=12*2
    540		000024 				FX.CON=FX.012		; SET THE KL CONTINUE FLOP
    541		000026 			FX.013=13*2
    542		000030 			FX.014=14*2
    543		000030 				FX.UIR=FX.014		; UNLATCH THE IR
    544		000032 			FX.015=15*2
    545		000032 				FX.UDR=FX.015		; UNLATCH THE DRAM REGISTER
    546		000034 			FX.016=16*2
    547		000036 			FX.017=17*2
    548
    549		000040 			FX.020=20*2
    550		000042 			FX.021=21*2
    551		000044 			FX.022=22*2
    552		000046 			FX.023=23*2
    553		000050 			FX.024=24*2
    554		000052 			FX.025=25*2
    555		000054 			FX.026=26*2
    556		000056 			FX.027=27*2
    557
    558		000060 			FX.030=30*2
    559		000062 			FX.031=31*2
    560		000064 			FX.032=32*2
    561		000066 			FX.033=33*2
    562		000070 			FX.034=34*2
    563		000072 			FX.035=35*2
    564		000074 			FX.036=36*2
    565		000076 			FX.037=37*2
DEFINE -- LOCAL DEFINITION MODU	MACRO M1113  03-APR-86 22:51  PAGE 15
DEFINE -- LOCAL DEFINITIONS 7709.20

    567					; DEFINE DIAGNOSTIC FUNCTION WRITE CODES
    568
    569		000100 			FW.040=40*2
    570		000102 			FW.041=41*2
    571		000104 			FW.042=42*2
    572		000104 				FW.LBR=FW.042		; LOAD BURST COUNTER RIGHT 4 BITS
    573		000106 			FW.043=43*2
    574		000106 				FW.LBL=FW.043		; LOAD BURST COUNTER LEFT 4 BITS
    575		000110 			FW.044=44*2
    576		000110 				FW.CSR=FW.044		; LOAD THE KL CLOCK SOURCE AND RATE
    577
    578					; CLOCK SOURCE AND RATE CODES, EBUS 32-33 AND 34-35, RESPECTIVELY,
    579					; IN LOW BYTE OF CLOCK CONTROL WORD (".CLKWD").
    580
    581		000000 				CS.NRM=0&14		; KL NORMAL CLOCK SOURCE (EBUS 32-33)
    582		000004 				CS.CS1=4&14		; KL CLOCK SOURCE 1
    583		000010 				CS.CS2=10&14		; KL CLOCK SOURCE 2
    584		000004 				CS.FST=4&14		; KL FAST CLOCK SOURCE
    585		000004 				CS.MGN=CS.FST		; KL MARGIN CLOCK SOURCE
    586		000010 				CS.EXT=10&14		; KL EXTERNAL CLOCK SOURCE
    587		000014 				CS.UDF=14&14		; UNDEFINED (DEFAULT TO FAST)
    588		000014 				CS.ALL=CS.CS1!CS.CS2	; CLOCK SOURCE BIT MASK
    589
    590		000000 				CR.NRM=0&3		; KL NORMAL CLOCK SOURCE (EBUS 34-35)
    591		000001 				CR.CR1=1&3		; KL CLOCK RATE 1
    592		000002 				CR.CR2=2&3		; KL CLOCK RATE 2
    593		000000 				CR.FUL=0&3		; KL CLOCK FULL SPEED
    594		000001 				CR.HLF=1&3		;  "	 "   HALF   "
    595		000002 				CR.QTR=2&3		;  "	 "   QRTR   "
    596		000003 				CR.SLO=3&3		;  "	 "   SLOW   "
    597		000003 				CR.ALL=CR.CR1!CR.CR2	; CLOCK RATE BIT MASK
    598
    599		000112 			FW.045=45*2
    600		000112 				FW.CDR=FW.045		; LOAD THE KL CLOCK DISTRIBUTION REGISTER
    601
    602					; CLOCK DISTRIBUTION DISABLE CODES, EBUS 33-35 TO THE KL, ALSO IN
    603					; THE HIGH BYTE OF THE CLOCK CONTROL WORD (".CLKWD").
    604
    605		002000 				CD.CRC=<4&7>*400	; DISABLE CONTROL RAM CLOCKS
    606		001000 				CD.DPC=<2&7>*400	; DISABLE DATA PATHS CLOCKS
    607		000400 				CD.CLC=<1&7>*400	; DISABLE CONTROL LOGIC CLOCKS
    608		000000 				CD.NRM=<0&7>*400	; NORMAL CLOCK ENABLES
    609		003400 				CD.ALL=<7&7>*400	; CLOCK DISABLE BIT MASK
    610
    611		000000 			CC.NRM=0			; NORMAL CLOCK CONTROL WORD
    612		003417 			CC.ALL=CS.ALL!CR.ALL!CD.ALL	; CLOCK CONTROL BIT MASK
DEFINE -- LOCAL DEFINITION MODU	MACRO M1113  03-APR-86 22:51  PAGE 16
DEFINE -- LOCAL DEFINITIONS 7709.20

    614		000114 			FW.046=46*2
    615		000114 				FW.IPE=FW.046		; LOAD INTERNAL PARITY ENABLES
    616
    617					; INTERNAL KL PARITY ENABLE CODES, EBUS 32 - 35 TO THE KL,
    618					; ALSO IN LOW BYTE OF THE PARITY STOP CONTROL WORD (".PSCWD").
    619
    620		000010 				IP.FMP=10&17		; FAST MEMORY PARITY STOP ENABLE
    621		000004 				IP.CRP=4&17		; CRAM PARITY STOP ENABLE
    622		000002 				IP.DRP=2&17		; DRAM PARITY STOP ENABLE
    623		000001 				IP.FSS=1&17		; FIELD SERVICE STOP ENABLE
    624		000016 				IP.NRM=IP.FMP!IP.CRP!IP.DRP
    625		000017 				IP.ALL=IP.NRM!IP.FSS
    626
    627		000116 			FW.047=47*2
    628		000116 				FW.APE=FW.047		; LOAD AR/ARX PARITY ENABLES (ET AL.)
    629
    630					; INTERNAL KL PARITY STOP CODES, EBUS 32 - 35 TO KL, "AP.EIP" MUST
    631					; BE SET TO ALLOW "IP.XXX" CONDITIONS TO STOP THE KL CLOCK
    632					; MAINTAINED IN HIGH BYTE OF THE PARITY STOP CONTROL WORD (".PSCWD").
    633
    634		001000 				AP.ARP=<2&17>*400	; ALLOW AR/ARX PARITY TO CAUSE A
    635									; PAGE FAIL TRAP IN THE KL
    636		000400 				AP.EIP=<1&17>*400	; ENABLE INTERNAL PARITY ENABLES TO
    637									; STOP THE KL CLOCK
    638		001400 				AP.NRM=AP.EIP!AP.ARP	; NORMAL PARITY STOP ENABLES
    639
    640		001416 			PS.NRM=AP.NRM!IP.NRM		; NORMAL PARITY STOP CONTROL WORD
    641
    642		000120 			FW.050=50*2
    643		000122 			FW.051=51*2
    644		000122 				FW.CA1=FW.051		; LOAD LOW CRAM ADDRESS
    645		000124 			FW.052=52*2
    646		000124 				FW.CA2=FW.052		; LOAD HIGH CRAM ADDRESS
    647		000126 			FW.053=53*2
    648		000126 				FW.CRD=FW.053		; LOAD CRAM DISPATCH
    649		000130 			FW.054=54*2
    650		000130 				FW.CR4=FW.054		; LOAD CRAM BITS 60 THRU 78
    651		000132 			FW.055=55*2
    652		000132 				FW.CR3=FW.055		; LOAD CRAM BITS 40 THRU 59
    653		000134 			FW.056=56*2
    654		000134 				FW.CR2=FW.056		; LOAD CRAM BITS 20 THRU 39
    655		000136 			FW.057=57*2
    656		000136 				FW.CR1=FW.057		; LOAD CRAM BITS 00 THRU 19
DEFINE -- LOCAL DEFINITION MODU	MACRO M1113  03-APR-86 22:51  PAGE 17
DEFINE -- LOCAL DEFINITIONS 7709.20

    658		000140 			FW.060=60*2
    659		000140 				FW.DR1=FW.060		; LOAD DRAM A AND B EVEN
    660		000142 			FW.061=61*2
    661		000142 				FW.DR2=FW.061		; LOAD DRAM A AND B ODD
    662		000144 			FW.062=62*2
    663		000144 				FW.DR3=FW.062		; LOAD DRAM J COMMON
    664		000146 			FW.063=63*2
    665		000146 				FW.DJE=FW.063		; LOAD DRAM J EVEN
    666		000150 			FW.064=64*2
    667		000150 				FW.DJO=FW.064		; LOAD DRAM J ODD
    668		000152 			FW.065=65*2
    669		000152 				FW.IOJ=FW.065		; DISABLE SPECIAL DECODE OF I/O AND JRST
    670		000154 			FW.066=66*2
    671		000154 				FW.IAC=FW.066		; DISABLE IR AC OUTPUTS
    672		000156 			FW.067=67*2
    673		000156 				FW.KLO=FW.067		; ENABLE KL OPCODES AND ACS
    674
    675		000160 			FW.070=70*2
    676		000160 				FW.CHN=FW.070		; CHANNEL CONTROL FUNCTIONS
    677		000162 			FW.071=71*2
    678		000162 				FW.MBX=FW.071		; MBOX CONTROL FUNCTIONS
    679		000164 			FW.072=72*2
    680		000166 			FW.073=73*2
    681		000170 			FW.074=74*2
    682		000172 			FW.075=75*2
    683		000174 			FW.076=76*2
    684		000174 				FW.EBL=FW.076		; EBUS REGISTER LOAD FUNCTION
    685		000174 				FW.SBR=FW.076		; SBUS RESET FUNCTION
    686		000176 			FW.077=77*2
    687		000176 				FW.LAR=FW.077		; LOAD AR REGISTER
DEFINE -- LOCAL DEFINITION MODU	MACRO M1113  03-APR-86 22:51  PAGE 18
DEFINE -- LOCAL DEFINITIONS 7709.20

    689					; DEFINE DIAGNOSTIC FUNCTION READ CODES
    690
    691		000200 			FR.100=100*2
    692		000200 				FR.PI0=FR.100		; PI BOARD READ 0
    693		000202 			FR.101=101*2
    694		000202 				FR.PI1=FR.101		; PI BOARD READ 1
    695		000204 			FR.102=102*2
    696		000206 			FR.103=103*2
    697		000210 			FR.104=104*2
    698		000212 			FR.105=105*2
    699		000214 			FR.106=106*2
    700		000216 			FR.107=107*2
    701
    702		000220 			FR.110=110*2
    703		000220 				FR.APR=FR.110		; APR STATUS
    704		000222 			FR.111=111*2
    705		000224 			FR.112=112*2
    706		000226 			FR.113=113*2
    707		000230 			FR.114=114*2
    708		000232 			FR.115=115*2
    709		000234 			FR.116=116*2
    710		000236 			FR.117=117*2
    711
    712		000240 			FR.120=120*2
    713		000240 				FR.RAR=FR.120		; ARITHMETIC REGISTER [AR 00 - 35]
    714		000242 			FR.121=121*2
    715		000242 				FR.RBR=FR.121		; BUFFER REGISTER [BR 00 - 35]
    716		000244 			FR.122=122*2
    717		000244 				FR.RMQ=FR.122		; MQ REGISTER [MQ 00 - 35]
    718		000246 			FR.123=123*2
    719		000246 				FR.RFM=FR.123		; FM REGISTER [FM 00 - 35]
    720		000250 			FR.124=124*2
    721		000250 				FR.BRX=FR.124		; BR EXTENSION REGISTER [BRX 00 - 35]
    722		000252 			FR.125=125*2
    723		000252 				FR.ARX=FR.125		; AR EXTENSION REGISTER [ARX 00 - 35]
    724		000254 			FR.126=126*2
    725		000254 				FR.ADX=FR.126		; AD EXTENSION REGISTER [ADX 00 - 35]
    726		000256 			FR.127=127*2
    727		000256 				FR.RAD=FR.127		; ADDER REGISTER [AD 00 - 35]
    728
    729		000260 			FR.130=130*2
    730		000260 				FR.SC2=FR.130		; SHIFT COUNT REGISTER 2
    731		000260 				FR.DA1=FR.130		; DRAM ADDR 1
    732		000262 			FR.131=131*2
    733		000262 				FR.SC1=FR.131		; SHIFT COUNT REGISTER 1
    734		000262 				FR.DA2=FR.131		; DRAM ADDR 2
    735		000264 			FR.132=132*2
    736		000264 				FR.FE2=FR.132		; FLOATING EXPONENT REGISTER 2
    737		000266 			FR.133=133*2
    738		000266 				FR.FE1=FR.133		; FLOATING EXPONENT REGISTER 1
    739		000270 			FR.134=134*2
    740		000272 			FR.135=135*2
    741		000274 			FR.136=136*2
    742		000276 			FR.137=137*2
DEFINE -- LOCAL DEFINITION MODU	MACRO M1113  03-APR-86 22:51  PAGE 19
DEFINE -- LOCAL DEFINITIONS 7709.20

    744		000300 			FR.140=140*2
    745		000302 			FR.141=141*2
    746		000302 				FR.CRD=FR.141		; READ CRAM DISP FIELD
    747		000304 			FR.142=142*2
    748		000304 				FR.SR2=FR.142		; CRAM SBR RET 2
    749		000306 			FR.143=143*2
    750		000306 				FR.SR1=FR.143		; CRAM SBR RET 1
    751		000310 			FR.144=144*2
    752		000310 				FR.CA2=FR.144		; READ CRAM ADDRESS LOW
    753		000310 				FR.CR4=FR.CA2		; CRAM DATA 60 - 78
    754		000312 			FR.145=145*2
    755		000312 				FR.CA1=FR.145		; READ CRAM ADDRESS HIGH
    756		000312 				FR.CR3=FR.CA1		; CRAM DATA 40 - 59
    757		000314 			FR.146=146*2
    758		000314 				FR.CR2=FR.146		; CRAM DATA 20 - 39
    759		000314 				FR.CL2=FR.CR2		; CRAM LOC 05 - 10
    760		000316 			FR.147=147*2
    761		000316 				FR.CR1=FR.147		; CRAM DATA 00 - 19
    762		000316 				FR.CL1=FR.CR1		; CRAM LOC 00 - 04
    763
    764		000320 			FR.150=150*2
    765		000320 				FR.VM0=FR.150		; VMA REGISTER 0
    766		000322 			FR.151=151*2
    767		000322 				FR.VM1=FR.151		; VMA REGISTER 1
    768		000324 			FR.152=152*2
    769		000324 				FR.VM2=FR.152		; VMA REGISTER 2
    770		000326 			FR.153=153*2
    771		000326 				FR.VM3=FR.153		; VMA REGISTER 3
    772		000330 			FR.154=154*2
    773		000330 				FR.VM4=FR.154		; VMA REGISTER 4
    774		000332 			FR.155=155*2
    775		000332 				FR.VM5=FR.155		; VMA REGISTER 5
    776		000334 			FR.156=156*2
    777		000334 				FR.VM6=FR.156		; VMA REGISTER 6
    778		000336 			FR.157=157*2
    779		000336 				FR.VM7=FR.157		; VMA REGISTER 7
DEFINE -- LOCAL DEFINITION MODU	MACRO M1113  03-APR-86 22:51  PAGE 20
DEFINE -- LOCAL DEFINITIONS 7709.20

    781		000340 			FR.160=160*2
    782		000342 			FR.161=161*2
    783		000344 			FR.162=162*2
    784		000346 			FR.163=163*2
    785		000350 			FR.164=164*2
    786		000352 			FR.165=165*2
    787		000354 			FR.166=166*2
    788		000356 			FR.167=167*2
    789		000356 				FR.EBS=FR.167		; [EBUS REG 00 THRU 35]
    790
    791		000360 			FR.170=170*2
    792		000362 			FR.171=171*2
    793		000364 			FR.172=172*2
    794		000366 			FR.173=173*2
    795		000370 			FR.174=174*2
    796		000372 			FR.175=175*2
    797		000374 			FR.176=176*2
    798		000376 			FR.177=177*2
DEFINE -- LOCAL DEFINITION MODU	MACRO M1113  03-APR-86 22:51  PAGE 21
DEFINE -- LOCAL DEFINITIONS 7709.20

    800					; DEFINE EVENT FLAG CODES
    801
    802		000001 			E.FHTO=^D1			; KL HALT TIMEOUT EVENT FLAG
    803		000002 			E.FCID=^D2			; CONSOLE DEVICE INPUT DONE EVENT FLAG
    804		000003 			E.FCOD=^D3			; CONSOLE DEVICE OUTPUT DONE EVENT FLAG
    805		000004 			E.FKLN=^D4			; KLINIK EVENT LOG DONE FLAG
    806		000005 			E.FLOD=^D5			; LIST DEVICE OUTPUT DONE FLAG
    807		000006 			E.FFIL=^D6				; FILE I/O DONE FLAG
    808
    809					; DEFINE LOCAL OFFSETS FOR "QIOW$" DPBS
    810
    811		000014 			Q.IOPL=14			; **TEMPORARY**
    812		000014 			Q.IBUF=Q.IOPL			; INPUT BUFFER ADDRESS
    813		000014 			Q.OBUF=Q.IOPL			; OUTPUT BUFFER ADDRESS
    814		000016 			Q.BYCT=Q.IOPL+2		; BUFFER BYTE COUNT (INPUT AND OUTPUT)
    815		000020 			Q.OVFC=Q.IOPL+4		; OUTPUT CARRIAGE CONTROL CHARACTER
    816
    817					; DEFINE THE LOGICAL UNIT NUMBERS
    818
    819		000001 			CIDLUN=1			; CONSOLE INPUT DEVICE LUN
    820		000002 			CODLUN=2			; CONSOLE OUTPUT DEVICE LUN
    821		000003 			LSTLUN=3			; LIST DEVICE LUN
    822		000004 			LOGLUN=4			; LOG DEVICE LUN
    823		000005 			INDLUN=5			; INDIRECT COMMAND FILE LUN
    824
    825					; DEFINE THE VERTICAL FORMAT CODES FOR "QIOW$"
    826
    827		000000 			VF.INT=000			; <NULL> INTERNAL FORMAT CONTROL
    828		000040 			VF.SSP=040			; <SPACE> SINGLE SPACE ALL LINES
    829		000060 			VF.DSP=060			; "0" DOUBLE SPACE ALL LINES
    830		000061 			VF.FFD=061			; "1" FORM FEED BEFORE OUTPUT
    831		000053 			VF.OVR=053			; "+" OVER PRINT THE LINE
    832		000044 			VF.PRM=044			; "$" PRINT LINE AS A PROMPT
    833
    834					; DEFINE SOME SPECIAL CHARACTERS
    835
    836		000054 			.COMMA=54			; COMMA
    837		000040 			.SPACE=40			; SPACE
    838		000033 			.ATLMD=33			; ALT-MODE
DEFINE -- LOCAL DEFINITION MODU	MACRO M1113  03-APR-86 22:51  PAGE 22
DEFINE -- LOCAL DEFINITIONS 7709.20

    840					; DEFINE THE BITS IN THE CHARACTER PROPERTY TABLE ".CHTAB" (Q.V.)
    841
    842		000000 			CH.NUL=0			; CHARACTER IS NULL
    843		000001 			CH.ALP=BIT00			; CHARACTER IS ALPHABETIC
    844		000002 			CH.NUM=BIT01			; CHARACTER IS NUMERIC
    845		000004 			CH.EOL=BIT02			; CHARACTER MAY END A LINE
    846		000010 			CH.EOC=BIT03			; CHARACTER MAY END A COMMAND
    847		000020 			CH.EOS=BIT04			; CHARACTER MAY END A SYMBOL
    848		000040 			CH.PFX=BIT05			; CHARACTER MAY PREFIX A SYMBOL
    849		000100 			CH.AOP=BIT06			; CHARACTER IS AN ARITHMETIC OPERATOR
    850		000200 			CH.ILL=BIT07			; CHARACTER IS ILLEGAL
    851		000034 			CH.END=CH.EOL!CH.EOC!CH.EOS	; CHARACTER IS AN END CHARACTER
    852		000003 			CH.ANM=CH.ALP!CH.NUM		; CHARACTER IS ALPHANUMERIC
    853
    854					; DEFINE THE LEGAL BITS IN THE COMMAND TABLES (Q.V.)
    855
    856		000000 			LG.NUL=0			; NULL
    857		000001 			LG.OPR=BIT00			; COMMAND IS LEGAL IN OPERATOR MODE
    858		000002 			LG.PRG=BIT01			; COMMAND IS LEGAL IN PROGRAMMER MODE
    859		000004 			LG.MNT=BIT02			; COMMAND IS LEGAL IN MAINTENANACE MODE
    860		000010 			LG.ARG=BIT03			; COMMAND MAY ACCEPT ARGUMENTS
    861		000020 			LG.MAR=BIT04			; COMMAND MAY ACCEPT MULTIPLE ARGUMENTS
    862		000040 			LG.MOD=BIT05			; COMMAND MAY ACCEPT MODIFIERS
    863		000100 			LG.RNG=BIT06			; COMMAND MAY ACCEPT RANGE ARGUMENTS
    864		000200 			LG.STR=BIT07			; COMMAND MAY ACCEPT STRING ARGUMENTS
    865		000400 			LG.RPT=BIT08			; COMMAND MAY BE REPEATED
    866		000003 			LG.PRM=LG.OPR!LG.PRG		; INSURE COMMAND IS LEGAL IN BOTH MODES
    867		000007 			LG.ALL=LG.PRM!LG.MNT		; INSURE COMMAND IS LEGAL IN ALL MODES
    868
    869					; DEFINE THE TRAP STATUS CODES
    870
    871		000002 			TC.CTC=2			; CONTROL-C TRAP, ABORT, RESTART, AND RETURN
    872		000001 			TC.RST=1			; ABORT PROCESS AND RESTART THE KL
    873		000000 			TC.ERR=0			; ABORT PROCESS AND RETURN TO PARSER
    874		000377 			TC.CON=377			; REPORT ERROR AND ATTEMPT RECOVERY
DEFINE -- LOCAL DEFINITION MODU	MACRO M1113  03-APR-86 22:51  PAGE 23
DEFINE -- LOCAL DEFINITIONS 7709.20

    876					; DEFINE KL OPCODES
    877
    878		000270 			ADD=270			; ADD
    879		000273 			ADDB=273		; ADD TO BOTH
    880		000271 			ADDI=271		; ADD IMMEDIATE
    881		000272 			ADDM=272		; ADD TO MEMORY
    882					;
    883		000404 			AND=404			; AND
    884		000407 			ANDB=407		; AND TO BOTH
    885		000410 			ANDCA=410		; AND COMPLEMENT OF AC
    886		000413 			ANDCAB=413		; AND COMPLEMENT OF AC TO BOTH
    887		000411 			ANDCAI=411		; AND COMPLEMENT OF AC IMMEDIATE
    888		000412 			ANDCAM=412		; AND COMPLEMENT OF AC TO MEMORY
    889		000440 			ANDCB=440		; AND COMPLEMENT OF BOTH
    890		000443 			ANDCBB=443		; AND COMPLEMENT OF BOTH TO BOTH
    891		000441 			ANDCBI=441		; AND COMPLEMENT OF BOTH IMMEDIATE
    892		000442 			ANDCBM=442		; AND COMPLEMENT OF BOTH TO MEMORY
    893		000420 			ANDCM=420		; AND COMPLEMENT OF MEMORY
    894		000423 			ANDCMB=423		; AND COMPLEMENT OF MEMORY TO BOTH
    895		000421 			ANDCMI=421		; AND COMPLEMENT OF MEMORY IMMEDIATE
    896		000422 			ANDCMM=422		; AND COMPLEMENT OF MEMORY TO MEMORY
    897		000405 			ANDI=405		; AND IMMEDIATE
    898		000406 			ANDM=406		; AND TO MEMORY
    899					;
    900		000253 			AOBJN=253		; ADD 1 TO BOTH HALVES, JUMP IF NEGATIVE
    901		000252 			AOBJP=252		; ADD 1 TO BOTH HALVES, JUMP IF POSITIVE
    902					;
    903		000340 			AOJ=340			; ADD 1 AND (DON'T) JUMP
    904		000344 			AOJA=344		; ADD 1 AND JUMP ALWAYS
    905		000342 			AOJE=342		; ADD 1 AND JUMP IF .EQ. 0
    906		000347 			AOJG=347		; ADD 1 AND JUMP IF .GT. 0
    907		000345 			AOJGE=345		; ADD 1 AND JUMP IF .GE. 0
    908		000341 			AOJL=341		; ADD 1 AND JUMP IF .LT. 0
    909		000343 			AOJLE=343		; ADD 1 AND JUMP IF .LE. 0
    910		000346 			AOJN=346		; ADD 1 AND JUMP IF .NE. 0
    911					;
    912		000350 			AOS=350			; ADD 1 AND (DON'T) SKIP
    913		000354 			AOSA=354		; ADD 1 AND SKIP ALWAYS
    914		000352 			AOSE=352		; ADD 1 AND SKIP IF .EQ. 0
    915		000357 			AOSG=357		; ADD 1 AND SKIP IF .GT. 0
    916		000355 			AOSGE=355		; ADD 1 AND SKIP IF .GT. 0
    917		000351 			AOSL=351		; ADD 1 AND SKIP IF .LT. 0
    918		000353 			AOSLE=353		; ADD 1 AND SKIP IF .LE. 0
    919		000356 			AOSN=356		; ADD 1 AND SKIP IF .NE. 0
    920					;
    921		000240 			ASH=240			; ARITHMETIC SHIFT
    922		000244 			ASHC=244		; ARITHMETIC SHIFT COMBINED
    923					;
    924		000251 			BLT=251			; BLOCK TRANSFER
DEFINE -- LOCAL DEFINITION MODU	MACRO M1113  03-APR-86 22:51  PAGE 24
DEFINE -- LOCAL DEFINITIONS 7709.20

    926		000300 			CAI=300			; COMPARE AC IMMEDIATE, DON'T SKIP
    927		000304 			CAIA=304		; COMPARE AC IMMEDIATE, SKIP ALWAYS
    928		000302 			CAIE=302		; COMPARE AC IMMEDIATE, SKIP IF .EQ.
    929		000307 			CAIG=307		; COMPARE AC IMMEDIATE, SKIP IF .GT.
    930		000305 			CAIGE=305		; COMPARE AC IMMDEIATE, SKIP IF .GE.
    931		000301 			CAIL=301		; COMAPRE AC IMMEDIATE, SKIP IF .LT.
    932		000303 			CAILE=303		; COMPARE AC IMMEDIATE, SKIP IF .LE.
    933		000306 			CAIN=306		; COMPARE AC IMMEDIATE, SKIP IF .NE.
    934					;
    935		000040 			CALL=040		; "CALL" UUO
    936		000047 			CALLI=047		; "CALLI" UUO
    937					;
    938		000310 			CAM=310			; COMPARE AC TO MEMORY, DON'T SKIP
    939		000314 			CAMA=314		; COMPARE AC TO MEMORY, ALWAYS SKIP
    940		000312 			CAME=312		; COMPARE AC TO MEMORY, SKIP IF .EQ.
    941		000317 			CAMG=317		; COMPARE AC TO MEMORY, SKIP IF .GT.
    942		000315 			CAMGE=315		; COMPARE AC TO MEMORY, SKIP IF .GE.
    943		000311 			CAML=311		; COMPARE AC TO MEMORY, SKIP IF .LT.
    944		000313 			CAMLE=313		; COMPARE AC TO MEMORY, SKIP IF .LE.
    945		000316 			CAMN=316		; COMPARE AC TO MEMORY, SKIP IF .NE.
    946					;
    947		000400 			CLEAR=400		; CLEAR AC
    948		000403 			CLEARB=403		; CLEAR BOTH
    949		000401 			CLEARI=401		; CLEAR IMMEDIATE
    950		000402 			CLEARM=402		; CLEAR MEMORY
    951					;
    952		000070 			CLOSE=070		; "CLOSE" UUO
    953					;
    954		000110 			DFAD=110		; DOUBLE FLOATING ADD
    955		000113 			DFDV=113		; DOUBLE FLOATING DIVIDE
    956		000112 			DFMP=112		; DOUBLE FLOATING MULTIPLY
    957		000131 			DFN=131			; DOUBLE FLOATING NEGATE
    958		000111 			DFSB=111		; DOUBLE FLOATING SUBTRACT
    959					;
    960		000234 			DIV=234			; DIVIDE
    961		000237 			DIVB=237		; DIVIDE BOTH
    962		000235 			DIVI=235		; DIVIDE IMMEDIATE
    963		000236 			DIVM=236		; DIVIDE MEMORY
    964					;
    965		000120 			DMOVE=120		; DOUBLE MOVE
    966		000124 			DMOVEM=124		; DOUBLE MOVE TO MEMORY
    967		000121 			DMOVN=121		; DOUBLE MOVE NEGATED
    968		000125 			DMOVNM=125		; DOUBLE MOVE NEGATED TO MEMORY
    969					;
    970		000137 			DPB=137			; DEPOSIT BYTE
DEFINE -- LOCAL DEFINITION MODU	MACRO M1113  03-APR-86 22:51  PAGE 25
DEFINE -- LOCAL DEFINITIONS 7709.20

    972		000077 			ENTER=077		; "ENTER" UUO
    973					;
    974		000444 			EQV=444			; EQUIVALENCE TO AC
    975		000447 			EQVB=447		; EQUIVALENCE TO BOTH
    976		000445 			EQVI=445		; EQUIVALENCE IMMEDIATE
    977		000446 			EQVM=446		; EQUIVALENCE TO MEMORY
    978					;
    979		000250 			EXCH=250		; EXCHANGE
    980		000123 			EXTEND=123		; EXTEND
    981					;
    982		000140 			FAD=140			; FLOATING ADD
    983		000143 			FADB=143		; FLOATING ADD BOTH
    984		000141 			FADL=141		; FLOATING ADD LONG
    985		000142 			FADM=142		; FLOATING ADD MEMORY
    986					;
    987		000144 			FADR=144		; FLOATING ADD, ROUNDED
    988		000147 			FADRB=147		; FLOATING ADD, ROUNDED TO BOTH
    989		000145 			FADRI=145		; FLOATING ADD, ROUNDED IMMEDIATE
    990		000146 			FADRM=146		; FLOATING ADD, ROUNDED TO MEMORY
    991					;
    992		000170 			FDV=170			; FLOATING DIVIDE
    993		000173 			FDVB=173		; FLOATING DIVIDE TO BOTH
    994		000171 			FDVL=171		; FLOATING DIVIDE LONG
    995		000172 			FDVM=172		; FLOATING DIVIDE TO MEMORY
    996					;
    997		000174 			FDVR=174		; FLOATING DIVIDE, ROUNDED
    998		000177 			FDVRB=177		; FLOATING DIVIDE, ROUNDED TO BOTH
    999		000175 			FDVRI=175		; FLOATING DIVIDE, ROUNDED IMMMEDIATE
   1000		000176 			FDVRM=176		; FLOATING DIVIDE, ROUNDED TO MEMORY
   1001					;
   1002		000122 			FIX=122			; FIX
   1003		000126 			FIXR=126		; FIX AND ROUND
   1004					;
   1005		000127 			FLTR=127		; FLOAT AND ROUND
   1006					;
   1007		000160 			FMP=160			; FLOATING MULTIPLY
   1008		000163 			FMPB=163		; FLOATING MULTIPLY TO BOTH
   1009		000161 			FMPL=161		; FLOATING MULTIPLY LONG
   1010		000162 			FMPM=162		; FLOATING MULTIPLY TO MEMORY
   1011					;
   1012		000164 			FMPR=164		; FLOATING MUTIPLY ROUNDED
   1013		000167 			FMPRB=167		; FLOATING MULTIPLY ROUNDED, TO BOTH
   1014		000165 			FMPRI=165		; FLOATING MULTIPLY ROUNDED, IMMEDIATE
   1015		000166 			FMPRM=166		; FLOATING MULTIPLY ROUNDED, TO MEMORY
   1016					;
   1017		000150 			FSB=150			; FLOATING SUBTRACT
   1018		000153 			FSBB=153		; FLOATING SUBTRACT TO BOTH
   1019		000151 			FSBL=151		; FLOATING SUBTRACT LONG
   1020		000152 			FSBM=152		; FLOATING SUBTRACT TO MEMORY
DEFINE -- LOCAL DEFINITION MODU	MACRO M1113  03-APR-86 22:51  PAGE 26
DEFINE -- LOCAL DEFINITIONS 7709.20

   1022		000154 			FSBR=154		; FLOATING SUBTRACT ROUNDED
   1023		000157 			FSBRB=157		; FLOATING SUBTRACT ROUNDED, TO BOTH
   1024		000155 			FSBRI=155		; FLOATING SUBTRACT ROUNDED, IMMEDIATE
   1025		000156 			FSBRM=156		; FLOATING SUBTRACT ROUNDED, TO MEMORY
   1026					;
   1027		000132 			FSC=132			; FLOATING SCALE
   1028					;
   1029		000062 			GETSTS=062		; "GETSTS" UUO
   1030					;
   1031		000500 			HLL=500			; HALFWORD LEFT TO LEFT
   1032		000530 			HLLE=530		;    "      "   "   "	EXTEND
   1033		000531 			HLLEI=531		;    "      "   "   "     "    IMMEDIATE
   1034		000532 			HLLEM=532		;    "      "   "   "     "    TO MEMORY
   1035		000533 			HLLES=533		;    "      "   "   "     "    TO SELF
   1036					;
   1037		000501 			HLLI=501		; HALFWORD LEFT TO LEFT IMMEDIATE
   1038		000502 			HLLM=502		;    "      "   "   "   TO MEMORY
   1039					;
   1040		000520 			HLLO=520		;    "      "   "   "   ONES
   1041		000521 			HLLOI=521		;    "      "   "   "    "   IMMEDIATE
   1042		000522 			HLLOM=522		;    "	    "	"   "	 "   MEMORY
   1043		000523 			HLLOS=523		;    "	    "	"   "	 "   SELF
   1044					;
   1045		000503 			HLLS=503		; HALFWORD LEFT TO LEFT SELF
   1046					;
   1047		000510 			HLLZ=510		; HALFWORD LEFT TO LEFT ZERO, ET AL.
   1048		000511 			HLLZI=511
   1049		000512 			HLLZM=512
   1050		000513 			HLLZS=513
   1051					;
   1052		000544 			HLR=544			; HALFWORD LEFT TO RIGHT
   1053					;
   1054		000574 			HLRE=574		; HALFWORD LEFT TO RIGHT EXTEND, ET AL.
   1055		000575 			HLREI=575
   1056		000576 			HLREM=576
   1057		000577 			HLRES=577
   1058					;
   1059		000564 			HLRO=564		; HALFWORD LEFT TO RIGHT ONES, ET AL.
   1060		000565 			HLROI=565
   1061		000566 			HLROM=566
   1062		000567 			HLROS=567
   1063					;
   1064		000547 			HLRS=547		; HALFWORD LEFT TO RIGHT SELF
   1065					;
   1066		000554 			HLRZ=554		; HALFWORD LEFT TO RIGHT ZEROS, ET AL.
   1067		000555 			HLRZI=555
   1068		000556 			HLRZM=556
   1069		000557 			HLRZS=557
DEFINE -- LOCAL DEFINITION MODU	MACRO M1113  03-APR-86 22:51  PAGE 27
DEFINE -- LOCAL DEFINITIONS 7709.20

   1071		000504 			HRL=504			; HALFWORD RIGHT TO LEFT
   1072					;
   1073		000534 			HRLE=534		; HALFWORD RIGHT TO LEFT EXTEND, ET AL.
   1074		000535 			HRLEI=535
   1075		000536 			HRLEM=536
   1076		000537 			HRLES=537
   1077					;
   1078		000505 			HRLI=505		; HALFWORD RIGHT TO LEFT IMMEDIATE
   1079		000506 			HRLM=506		;    "	     "	 "   "	 MEMORY
   1080					;
   1081		000564 			HRLO=564		; HALFWORD RIGHT TO LEFT ONES, ET AL.
   1082		000565 			HRLOI=565
   1083		000566 			HRLOM=566
   1084		000567 			HRLOS=567
   1085					;
   1086		000507 			HRLS=507		; HALFWORD RIGHT TO LEFT SELF
   1087					;
   1088		000514 			HRLZ=514		; HALFWORD RIGHT TO LEFT ZERO, ET AL.
   1089		000515 			HRLZI=515
   1090		000516 			HRLZM=516
   1091		000517 			HRLZS=517
   1092					;
   1093		000540 			HRR=540			; HALFWORD RIGHT TO RIGHT
   1094					;
   1095		000570 			HRRE=570		; HALFWORD RIGHT TO RIGHT EXTEND, ET AL.
   1096		000571 			HRREI=571
   1097		000572 			HRREM=572
   1098		000573 			HRRES=573
   1099					;
   1100		000541 			HRRI=541		; HALFWORD RIGHT TO RIGHT IMMEDIATE
   1101		000542 			HRRM=542		;    "	     "	 "    "	  MEMORY
   1102					;
   1103		000560 			HRRO=560		; HALFWORD RIGHT TO RIGHT ONES, ET AL.
   1104		000561 			HRROI=561
   1105		000562 			HRROM=562
   1106		000563 			HRROS=563
   1107					;
   1108		000543 			HRRS=543
   1109					;
   1110		000550 			HRRZ=550		; HALFWORD RIGHT TO RIGHT ZERO, ET AL.
   1111		000551 			HRRZI=551
   1112		000552 			HRRZM=552
   1113		000553 			HRRZS=553
DEFINE -- LOCAL DEFINITION MODU	MACRO M1113  03-APR-86 22:51  PAGE 28
DEFINE -- LOCAL DEFINITIONS 7709.20

   1115		000133 			IBP=133			; INCREMENT BYTE POINTER
   1116					;
   1117		000230 			IDIV=230		; INTEGER DIVIDE
   1118		000233 			IDIVB=233		;    "	    "	 BOTH
   1119		000231 			IDIVI=231		;    "	    "	 IMMEDIATE
   1120		000232 			IDIVM=232		;    "	    "	 MEMORY
   1121					;
   1122		000136 			IDPB=136		; INCREMENT AND DEPOSIT BYTE
   1123					;
   1124		000134 			ILDB=134		; DECREMENT AND LOAD BYTE
   1125					;
   1126		000220 			IMUL=220		; INTEGER MULTIPLY
   1127		000223 			IMULB=223		;    "	     "	   BOTH
   1128		000221 			IMULI=221		;    "	     "	   IMMEDIATE
   1129		000222 			IMULM=222		;    "	     "     MEMORY
   1130					;
   1131		000056 			IN=056			; "IN" UUO
   1132		000064 			INBUF=064		; "INBUF" UUO
   1133		000041 			INIT=041		; "INIT" UUO
   1134		000066 			INPUT=066		; "INPUT" UUO
   1135					;
   1136		000434 			IOR=434			; INCLUSIVE OR, ET AL.
   1137		000437 			IORB=437
   1138		000435 			IORI=435
   1139		000436 			IORM=436
   1140					;
   1141		000255 			JFCL=255		; JUMP ON FLAGS AND CLEAR
   1142					;
   1143		000243 			JFFO=243		; JUMP IF FOUND FIRST 1
   1144					;
   1145		000267 			JRA=267			; JUMP AND RESTORE AC
   1146					;
   1147		000254 			JRST=254		; JUMP AND RESTORE (PC FLAGS)
   1148					;
   1149		000266 			JSA=266			; JUMP AND SAVE AC
   1150					;
   1151		000265 			JSP=265			; JUMP AND SAVE PC
   1152					;
   1153		000264 			JSR=264			; JUMP TO SUBROUTINE
   1154					;
   1155		000104 			JSYS=104		; JSYS CALL
   1156					;
   1157		000320 			JUMP=320		; JUMP (NEVER)
   1158		000324 			JUMPA=324		; JUMP ALWAYS
   1159		000322 			JUMPE=322		; JUMP IF AC .EQ. 0
   1160		000327 			JUMPG=327		; JUMP IF AC .GT. 0
   1161		000325 			JUMPGE=325		; JUMP IF AC .GE. 0
   1162		000321 			JUMPL=321		; JUMP IF AC .LT. 0
   1163		000323 			JUMPLE=323		; JUMP IF AC .LE. 0
   1164		000326 			JUMPN=326		; JUMP IF AC .NE. 0
   1165					;
   1166		000700 			KLIOT=700		; KL I/O INSTRUCTION BASE
DEFINE -- LOCAL DEFINITION MODU	MACRO M1113  03-APR-86 22:51  PAGE 29
DEFINE -- LOCAL DEFINITIONS 7709.20

   1168		000135 			LDB=135			; LOAD BYTE
   1169					;
   1170		000076 			LOOKUP=076		; "LOOKUP" UUO
   1171					;
   1172		000242 			LSH=242			; LOGICAL SHIFT
   1173		000246 			LSHC=246		; LOGICAL SHIFT COMBINED
   1174					;
   1175		000257 			MAP=257			; MAP PAGED ADDRESS
   1176					;
   1177		000200 			MOVE=200		; MOVE
   1178		000201 			MOVEI=201		; MOVE IMMEDIATE
   1179		000202 			MOVEM=202		; MOVE TO MEMORY
   1180		000203 			MOVES=203		; MOVE TO SELF
   1181					;
   1182		000214 			MOVM=214		; MOVE MAGNITUDE, ET AL.
   1183		000215 			MOVMI=215
   1184		000216 			MOVMM=216
   1185		000217 			MOVMS=217
   1186					;
   1187		000210 			MOVN=210		; MOVE NEGATED, ET AL.
   1188		000211 			MOVNI=211
   1189		000212 			MOVNM=212
   1190		000213 			MOVNS=213
   1191					;
   1192		000204 			MOVS=204		; MOVE SWAPPED, ET AL.
   1193		000205 			MOVSI=205
   1194		000206 			MOVSM=206
   1195		000207 			MOVSS=207
   1196					;
   1197		000224 			MUL=224			; MULTIPLY
   1198		000227 			MULB=227		; MULTIPLY BOTH
   1199		000225 			MULI=225		; MULTIPLY IMMEDIATE
   1200		000226 			MULM=226		; MULTIPLY MEMORY
   1201					;
   1202		000050 			OPEN=050		; "OPEN" UUO
   1203					;
   1204		000434 			OR=IOR			; (INCLUSIVE) OR, ET AL.
   1205		000437 			ORB=IORB
   1206					;
   1207		000454 			ORCA=454		; OR WITH COMPLEMENT OF AC
   1208		000457 			ORCAB=457		; "   "	      "	     "	"  BOTH
   1209		000455 			ORCAI=455		; "   "	      "	     "	"  IMMEDIATE
   1210		000456 			ORCAM=456		; "   "       "	     "	"  MEMORY
DEFINE -- LOCAL DEFINITION MODU	MACRO M1113  03-APR-86 22:51  PAGE 30
DEFINE -- LOCAL DEFINITIONS 7709.20

   1212		000470 			ORCB=470		; OR WITH COMPLEMENT OF BOTH, ET AL.
   1213		000473 			ORCBB=473
   1214		000471 			ORCBI=471
   1215		000472 			ORCBM=472
   1216					;
   1217		000464 			ORCM=464		; OR WITH COMPLEMENT OF MEMORY, ET AL.
   1218		000467 			ORCMB=467
   1219		000465 			ORCMI=465
   1220		000466 			ORCMM=466
   1221					;
   1222		000435 			ORI=IORI		; (INCLUSIVE) OR, ET AL.
   1223		000436 			ORM=IORM
   1224					;
   1225		000057 			OUT=057			; "OUT" UUO
   1226		000065 			OUTBUF=065		; "OUTBUF" UUO
   1227		000067 			OUTPUT=067		; "OUTPUT" UUO
   1228					;
   1229		000262 			POP=262			; POP
   1230		000263 			POPJ=263		; POP (RETURN) AND JUMP
   1231					;
   1232		000261 			PUSH=261		; PUSH
   1233		000260 			PUSHJ=260		; PUSH (RETURN) AND JUMP
   1234					;
   1235		000071 			RELEAS=071		; "RELEAS(E)" UUO
   1236		000055 			RENAME=055		; "RENAME" UUO
   1237					;
   1238		000241 			ROT=241			; ROTATE
   1239		000245 			ROTC=245		; ROTATE COMBINED
   1240					;
   1241		000424 			SETA=424		; SET TO AC
   1242		000427 			SETAB=427		;  "  "	 "  BOTH
   1243		000425 			SETAI=425		;  "  "	 "  IMMEDIATE
   1244		000426 			SETAM=426		;  "  "  "  MEMORY
   1245					;
   1246		000450 			SETCA=450		; SET TO COMPLEMENT OF AC, ET AL.
   1247		000453 			SETCAB=453
   1248		000451 			SETCAI=451
   1249		000452 			SETCAM=452
   1250					;
   1251		000460 			SETCM=460		; SET TO COMLEMENT OF MEMORY, ET AL.
   1252		000463 			SETCMB=463
   1253		000461 			SETCMI=461
   1254		000462 			SETCMM=462
DEFINE -- LOCAL DEFINITION MODU	MACRO M1113  03-APR-86 22:51  PAGE 31
DEFINE -- LOCAL DEFINITIONS 7709.20

   1256		000414 			SETM=414		; SET TO MEMORY, ET AL
   1257		000417 			SETMB=417
   1258		000415 			SETMI=415
   1259		000416 			SETMM=416
   1260					;
   1261		000474 			SETO=474		; SET TO ONES, ET AL.
   1262		000477 			SETOB=477
   1263		000475 			SETOI=475
   1264		000476 			SETOM=476
   1265					;
   1266		000060 			SETSTS=060		; "SETSTS" UUO
   1267					;
   1268		000400 			SETZ=400		; SET TO ZEROS, ET AL
   1269		000403 			SETZB=403
   1270		000401 			SETZI=401
   1271		000402 			SETZM=402
   1272					;
   1273		000330 			SKIP=330		; SKIP (NEVER)
   1274		000334 			SKIPA=334		; SKIP ALWAYS
   1275		000332 			SKIPE=332		; SKIP IF MEMORY .EQ. 0
   1276		000337 			SKIPG=337		; SKIP IF MEMORY .GT. 0
   1277		000335 			SKIPGE=335		; SKIP IF MEMORY .GE. 0
   1278		000331 			SKIPL=331		; SKIP IF MEMORY .LT. 0
   1279		000333 			SKIPLE=333		; SKIP OF MEMORY .LE. 0
   1280		000336 			SKIPN=336		; SKIP IF MEMORY .NE. 0
   1281					;
   1282		000360 			SOJ=360			; SUBTRACT 1 AND NEVER JUMP
   1283		000364 			SOJA=364		; SUBTRACT 1 (FROM AC) AND ALWAYS JUMP
   1284		000362 			SOJE=362		; SUBTRACT 1 AND JUMP IF AC .EQ. 0
   1285		000367 			SOJG=367		; SUBTRACT 1 AND JUMP IF AC .GT. 0
   1286		000365 			SOJGE=365		; SUBTRACT 1 AND JUMP IF AC .GE. 0
   1287		000361 			SOJL=361		; SUBTRACT 1 AND JUMP IF AC .LT. 0
   1288		000363 			SOJLE=363		; SUBTRACT 1 AND JUMP IF AC .LE. 0
   1289		000366 			SOJN=366		; SUBTRACT 1 AND JUMP IF AC .NE. 0
   1290					;
   1291		000370 			SOS=370			; SUBTRACT 1 (FROM MEMORY) AND NEVER SKIP
   1292		000374 			SOSA=374		; SUBTRACT 1 AND ALWAYS SKIP
   1293		000372 			SOSE=372		; SUBTRACT 1 AND SKIP IF .EQ. 0
   1294		000377 			SOSG=377		; SUBTRACT 1 AND SKIP IF .GT. 0
   1295		000375 			SOSGE=375		; SUBTRACT 1 AND SKIP IF .GE. 0
   1296		000371 			SOSL=371		; SUBTRACT 1 AND SKIP IF .LT. 0
   1297		000373 			SOSLE=373		; SUBTRACT 1 AND SKIP IF .LE. 0
   1298		000376 			SOSN=376		; SUBTRACT 1 AND SKIP IF .NE. 0
   1299					;
   1300		000061 			STATO=061		; "STATO" UUO
   1301		000062 			STATUS=062		; "STATUS" UUO
   1302		000063 			STATZ=063		; "STATZ" UUO
DEFINE -- LOCAL DEFINITION MODU	MACRO M1113  03-APR-86 22:51  PAGE 32
DEFINE -- LOCAL DEFINITIONS 7709.20

   1304		000274 			SUB=274			; SUBTRACT
   1305		000277 			SUBB=277		; SUBTRACT BOTH
   1306		000275 			SUBI=275		; SUBTRACT IMMEDIATE
   1307		000276 			SUBM=276		; SUBTRACT MEMORY
   1308					;
   1309		000106 			SXCT=106		; SECTION EXECUTE
   1310					;
   1311		000650 			TDC=650			; TEST DIRECT COMPLEMENT NEVER SKIP
   1312		000654 			TDCA=654		;  "	 "	  "	 SKIP ALWAYS
   1313		000652 			TDCE=652		;  "	 "	  "	  "   ON ZERO
   1314		000656 			TDCN=656		;  "     "	  "	  "   ON NON-ZERO
   1315					;
   1316		000610 			TDN=610			; TEST DIRECT NO MODIFICATION, ET AL.
   1317		000614 			TDNA=614
   1318		000612 			TDNE=612
   1319		000616 			TDNN=616
   1320					;
   1321		000670 			TDO=670			; TEST DIRECT ONES, ET AL.
   1322		000674 			TDOA=674
   1323		000672 			TDOE=672
   1324		000676 			TDON=676
   1325					;
   1326		000630 			TDZ=630			; TEST DIRECT ZEROS, ET AL.
   1327		000634 			TDZA=634
   1328		000632 			TDZE=632
   1329		000636 			TDZN=636
   1330					;
   1331		000641 			TLC=641			; TEST LEFT COMPLEMENT, ET AL.
   1332		000645 			TLCA=645
   1333		000643 			TLCE=643
   1334		000647 			TLCN=647
   1335					;
   1336		000601 			TLN=601			; TEST LEFT NO MODIFICATION, ET AL.
   1337		000605 			TLNA=605
   1338		000603 			TLNE=603
   1339		000607 			TLNN=607
   1340					;
   1341		000661 			TLO=661			; TEST LEFT ONES, ET AL.
   1342		000665 			TLOA=665
   1343		000663 			TLOE=663
   1344		000667 			TLON=667
   1345					;
   1346		000621 			TLZ=621			; TEST LEFT ZEROS, ET AL.
   1347		000625 			TLZA=625
   1348		000623 			TLZE=623
   1349		000627 			TLZN=627
   1350					;
   1351		000640 			TRC=640			; TEST RIGHT COMPLEMENT, ET AL.
   1352		000644 			TRCA=644
   1353		000642 			TRCE=642
   1354		000646 			TRCN=646
DEFINE -- LOCAL DEFINITION MODU	MACRO M1113  03-APR-86 22:51  PAGE 33
DEFINE -- LOCAL DEFINITIONS 7709.20

   1356		000600 			TRN=600			; TEST RIGHT NO MODIFICATION, ET AL.
   1357		000604 			TRNA=604
   1358		000602 			TRNE=602
   1359		000606 			TRNN=606
   1360					;
   1361		000660 			TRO=660			; TEST RIGHT ONES, ET AL.
   1362		000664 			TROA=664
   1363		000662 			TROE=662
   1364		000666 			TRON=666
   1365					;
   1366		000620 			TRZ=620			; TEST RIGHT ZEROS, ET AL.
   1367		000624 			TRZA=624
   1368		000622 			TRZE=622
   1369		000626 			TRZN=626
   1370					;
   1371		000651 			TSC=651			; TEST SWAPPED COMLEMENT, ET AL.
   1372		000655 			TSCA=655
   1373		000653 			TSCE=653
   1374		000657 			TSCN=657
   1375					;
   1376		000611 			TSN=611			; TEST SWAPPED NO MODIFICATION, ET AL.
   1377		000615 			TSNA=615
   1378		000613 			TSNE=613
   1379		000617 			TSNN=617
   1380					;
   1381		000671 			TSO=671			; TEST SWAPPED ONES, ET AL.
   1382		000675 			TSOA=675
   1383		000673 			TSOE=673
   1384		000677 			TSON=677
   1385					;
   1386		000631 			TSZ=631			; TEST SWAPPED ZEROS, ET AL.
   1387		000635 			TSZA=635
   1388		000633 			TSZE=633
   1389		000637 			TSZN=637
   1390					;
   1391		000051 			TTCALL=051		; "TTCALL" UUO
   1392					;
   1393		000073 			UGETF=073		; "UGETF" UUO
   1394					;
   1395		000100 			UJEN=100		; "UJEN" CALL
   1396					;
   1397		000074 			USETI=074		; "USETI" UUO
   1398		000075 			USETO=075		; "USETO" UUO
   1399					;
   1400		000256 			XCT=256			; EXECUTE
   1401					;
   1402		000430 			XOR=430			; EXCLUSIVE OR, ET AL.
   1403		000433 			XORB=433
   1404		000431 			XORI=431
   1405		000432 			XORM=432
   1406
   1407					.SBTTL	COPYRIGHT PAGE
   1408
   1410					.TITLE	DATAB  -- COMMAND PARSER DATA BASE 7709.20
   1411
   1412						.IDENT	"007030"
   1413
DATAB  -- COMMAND PARSER DATA B	MACRO M1113  03-APR-86 22:51  PAGE 33-1
COPYRIGHT PAGE

   1414					;
   1415					;                             COPYRIGHT (C) 1975, 1984, 1985 BY
   1416					;                     DIGITAL EQUIPMENT CORPORATION, MAYNARD MASS.
   1417					;			ALL RIGHTS RESERVED.
   1418					;       THIS SOFTWARE IS FURNISHED UNDER A LICENSE AND MAY BE  USED  AND  COPIED
   1419					;       ONLY IN ACCORDANCE WITH THE TERMS OF SUCH LICENSE AND WITH THE INCLUSION
   1420					;       OF THE ABOVE COPYRIGHT NOTICE.  THIS SOFTWARE OR ANY OTHER COPIES THERE-
   1421					;       OF  MAY NOT BE PROVIDED OR OTHERWISE MADE AVAILABLE TO ANY OTHER PERSON.
   1422					;       NO TITLE TO OR OWNERSHIP OF THE SOFTWARE IS HEREBY TRANSFERRED.
   1423					;
   1424					;       THE INFORMATION CONTAINED IN THIS SOFTWARE IS SUBJECT TO CHANGE  WITHOUT
   1425					;       NOTICE  AND SHOULD NOT BE CONSTRUED AS A COMMITMENT BY DIGITAL EQUIPMENT
   1426					;       CORPORATION.
   1427					;
   1428					;       DIGITAL ASSUMES NO RESPONSIBILITY FOR THE  USE  OR  RELIABILITY  OF  ITS
   1429					;       SOFTWARE ON EQUIPMENT WHICH IS NOT SUPPILED BY DIGITAL.
   1430					;
   1431					;		MODULE: COMMAND PARSER DATA BASE
   1432					;
   1433					;		VERSION: 06-13
   1434					;
   1435					;		AUTHOR: R. BELANGER
   1436					;
   1437					;		DATE: 7709.20
   1438					;
   1439					;	THIS MODULE CONTAINS:
   1440					;
   1441					;	1) THE IMPURE DATA BASE FOR THE COMMAND PARSER
   1442					;
   1443					;		EDIT HISTORY
   1444					;
   1445					;20-JUN-83  TCO 6.1675	D. WEAVER
   1446					;	ADD STORAGE FOR SAVE AC-BLOCK COMMAND.
   1447					;
DATAB  -- COMMAND PARSER DATA B	MACRO M1113  03-APR-86 22:51  PAGE 34
COPYRIGHT PAGE

   1449						.MACRO	PARVR$ KEY,FRM,VER,EDT,NUM
   1450						.IF	B,NUM
   1451						.IF	NB,FRM
   1452						PARVR$	\KEY,\FRM,\VER,\EDT,0
   1453						.IFF
   1454						PARVR$	\KEY,200,\VER,\EDT,0
   1455						.ENDC
   1456						.MEXIT
   1457						.IFF
   1458						.IF	GE,VER-10
   1459						.IF	GE,EDT-10
   1460						.ASCIZ	<KEY><FRM>\'VER'-'EDT'\<200>
   1461						.IFF
   1462						.ASCIZ	<KEY><FRM>\'VER'-0'EDT'\<200>
   1463						.ENDC
   1464						.IFF
   1465						.IF	GE,EDT-10
   1466						.ASCIZ	<KEY><FRM>\0'VER'-'EDT'\<200>
   1467						.IFF
   1468						.ASCIZ	<KEY><FRM>\0'VER'-0'EDT'\<200>
   1469						.ENDC
   1470						.ENDC
   1471						.ENDC
   1472						.ENDM	PARVR$
DATAB  -- COMMAND PARSER DATA B	MACRO M1113  03-APR-86 22:51  PAGE 35
DATAB  -- COMMAND PARSER IMPURE DATA BASE 7709.20

   1474					.SBTTL	DATAB  -- COMMAND PARSER IMPURE DATA BASE 7709.20
   1475
   1476					; COMMAND PARSER VARIABLES ARE MAINTAINED IN THIS AREA
   1477
   1478	000000					.PSECT	DATA
   1479
   1480	000000				.ACBLK::
   1481	000000	000000 				.WORD	0		; [6.1675] STORAGE FOR SAVE/RESTORE AC-BLOCK
   1482	000002				.APRWD::
   1483	000002	000000 				.WORD	0		; KL APR ERROR STATUS WORD
   1484	000004				.CCMDN::
   1485	000004	000021'				.WORD	PARNAM		; POINTER TO CURRENT COMMAND NAME
   1486	000006				.CISTS::
   1487	000006	000000 	000000 			.WORD	0,0		; I/O STATUS BLOCK FOR CONSOLE INPUT
   1488	000012				.CLKWD::
   1489	000012	100000 				.WORD	BIT15		; KL CLOCK CONTROL WORD
   1490	000014				.COSTS::
   1491	000014	000000 	000000 			.WORD	0,0		; I/O STATUS BLOCK FOR CONSOLE OUTPUT
   1492	000020				.CRAMA::
   1493	000020	000000 				.WORD	0		; KL CRAM ADDRESSS
   1494	000022				.CRAMR::
   1495	000022	000000 	000000 	000000 		.WORD	0,0,0		; BLOCK FOR KL CRAM READ
   1496	000030	000000 	000000 	000000 		.WORD	0,0,0
   1497	000036	000000 	000000 	000000 		.WORD	0,0,0
   1498	000044				.CRAMW::
   1499	000044	000000 	000000 	000000 		.WORD	0,0,0		; BLOCK FOR CRAM WRITE
   1500	000052	000000 	000000 	000000 		.WORD	0,0,0
   1501	000060	000000 	000000 	000000 		.WORD	0,0,0
   1503	000066				.DBGSW::
   1504	000066	000000 				.WORD	0		; DEBUG SWITCH
   1506	000070				.DPBFR::
   1507	000070	000000 	000000 	000000 		.WORD	0,0,0		; KL DEPOSIT DATA BUFFER
   1508	000076				.DPBFX::
   1509	000076	000000 	000000 	000000 		.WORD	0,0,0		; KL AUXILLIARY DEPOSIT DATA BUFFER
   1518	000104				.EDELA::
   1519	000104	000000 				.WORD	0		; LAST PDP-11 EXAMINE / DEPOSIT ADDRESS
   1520	000106				.EDKLA::
   1521	000106	000000 	000000 	000000 		.WORD	0,0,0		; KL EXAMINE / DEPOSIT ADDRESS BUFFER
   1522	000114				.EDKLX::
   1523	000114	000000 	000000 	000000 		.WORD	0,0,0		; KL AUXILLIARY EXAM / DEPOS ADDRESS BUFFER
   1524	000122				.ELDDW::
   1525	000122	000000 				.WORD	0		; LAST PDP-11 DEPOSIT DATA
   1526	000124				.ELEDW::
   1527	000124	000000 				.WORD	0		; LAST PDP-11 EXAMINE DATA
   1528	000126	000000 	000000 	000000 	Q0::	.WORD	0,0,0		; [**]
   1529	000134	000000 	000000 	000000 	Q1::	.WORD	0,0,0		; [**]
   1530	000142	000000 	000000 	000000 	Q2::	.WORD	0,0,0		; [**]
   1531	000150	000000 	000000 	000000 	Q3::	.WORD	0,0,0		; [**]
   1532	000156				.EXBFR::
   1533	000156	000000 	000000 	000000 		.WORD	0,0,0		; KL EXAMINE DATA BUFFER
   1534	000164				.INCHC::
   1535	000164	000000 				.WORD	0		; INPUT CHARACTER COUNT
   1536	000166				.IRADX::
   1537	000166	000010 				.WORD	^D8		; INPUT RADIX
   1538	000170				.KLINC::
   1539	000170	000001 	000000 	000000 		.WORD	^D1,0,0		; KL EXAMINE DEPOSIT INCREMENT
   1540	000176				.KLEDF::			; [5.1006]KLE DEFAULT COMMAND FLAG
DATAB  -- COMMAND PARSER DATA B	MACRO M1113  03-APR-86 22:51  PAGE 35-1
DATAB  -- COMMAND PARSER IMPURE DATA BASE 7709.20

   1541	000176	000001 				.WORD	1
   1542	000200				.KLEPT::			; [5.1006]DEFAULT COMMAND TABLE POINTER
   1543	000200	000000 				.WORD	0
   1544	000202				.KLEVL::			; [5.1006]POINTER VALID FLAG
   1545	000202	   000 				.BYTE	0
   1546	000203				.KLSNP::			; [5.1006]SNAPSHOT COMMAND IN PROGRESS
   1547	000203	   000 				.BYTE	0
   1548	000204				.PASS::				; [4.1.1049]FM SWEEP PASS FLAG
   1549	000204	000000 				.WORD	0
   1550	000206				.OUTLG::
   1551	000206	   000 				.BYTE	0		; [5.1000]LOG OUTPUT FLAG
   1552	000207				.OUTLP::
   1553	000207	   000 				.BYTE	0		; [5.1000]PRINT OUTPUT FLAG
   1554	000210				.OUTTY::
   1555	000210	   001 				.BYTE	1		; [5.1000]TYPE OUTPUT FLAG
   1556						.EVEN
   1557	000212				.LDSTS::
   1558	000212	000000 	000000 			.WORD	0,0		; I/O STATUS BLOCK FOR LIST DEVICE
   1559	000216				.LGLWD::
   1560	000216	000000 				.WORD	0		; LEGAL BITS OF CURRENT COMMAND
   1561	000220				.LDZFL::
   1562	000220	177777 				.WORD	-^D1		; PRINT LEADING ZEROES FLAG
   1563	000222				.MEMFL::
   1564	000222	000000 				.WORD	0		; EXAMINE DEPOSIT MEMORY OFFSET
   1565	000224				.NOTSW::
   1566	000224	000000 				.WORD	0		; "NOT" SWITCH
   1567	000226				.ORADX::
   1568	000226	000010 				.WORD	^D8		; OUTPUT RADIX
   1569	000230				.PEWRD::
   1570	000230	000000 				.WORD	0		; KL PARITY ERROR FLAGS
   1571	000232				.PITAB::
   1572	000232	000000 	000000 			.WORD	0,0		; EXAMINE PI DATA BLOCK
   1573	000236				.PSCWD::
   1574	000236	100000 				.WORD	BIT15		; KL PARITY STOP CONTROL WORD
   1575	000240				.RDXSV::
   1576	000240	000010 				.WORD	^D8		; SAVED RADIX
   1577	000242				.RELWD::
   1578	000242	000002'				.WORD	.APRWD		; RELOCATION VALUE
   1579	000244				.RPTCT::
   1580	000244	000000 	000000 	000000 		.WORD	0,0,0		; REPEAT COUNT
   1581	000252				.RPTPT::
   1582	000252	000000 				.WORD	0		; POINTER TO STACKED REPEAT COUNT
   1583	000254				.STRTV::
   1584	000254	010354'				.WORD	.START		; START VECTOR
   1585	000256				.SVESP::
   1586	000256	000000 				.WORD	0		; TO REINIT STACK POINTER
   1587	000260				.SVKLF::
   1588	000260	000000 				.WORD	0		; SAVED COPY OF ".KLFLG"
   1589	000262				.SWPIP::			; SWEEP IN PROGRESS FLAG
   1590	000262	000000 				.WORD	0
   1592	000264				.TRKWD::
   1593	000264	000000 				.WORD	0		; "TRACK" FLAGS
   1595	000266				.TRP4V::
   1596	000266	001352'				.WORD	.PTOAT		; TRAP AT 4 VECTOR
   1597	000270				.TRPEC::
   1598	000270	000000 				.WORD	0		; ERROR CODE RETURNED FROM TRAP
   1599	000272				.TRPIP::
DATAB  -- COMMAND PARSER DATA B	MACRO M1113  03-APR-86 22:51  PAGE 35-2
DATAB  -- COMMAND PARSER IMPURE DATA BASE 7709.20

   1600	000272	000002 				.WORD	^D2		; TRAP IN PROGRESS INTERLOCK
   1601	000274				.TRPPC::
   1602	000274	000000 				.WORD	0		; TRAP PC
   1603	000276				.TRPPS::
   1604	000276	000000 				.WORD	0		; TRAP PSW
   1605	000300				.TRPSB::
   1606	000300	000000 				.WORD	0		; TRAP STATUS BYTE
   1607	000302				.TRPTV::
   1608	000302	000000 				.WORD	0		; TRAP TRAP VECTOR
   1609	000304				.TYOBC::
   1610	000304	000204 				.WORD	^D132		; CONSOLE OUTPUT BYTE COUNT
   1611	000306				.TYOBP::
   1612	000306	000576'				.WORD	.COBFR		; CONSOLE OUTPUT BYTE POINTER
   1613	000310				.VFYFL::
   1614	000310	000000 				.WORD	0		; DEPOSIT VERIFY FLAG
   1615	000312				DATABX::
   1616	000312	000137 	000000G			JMP	.INICP		; EXIT TO INIT
DATAB  -- COMMAND PARSER DATA B	MACRO M1113  03-APR-86 22:51  PAGE 36
.SSTTB -- SYNCHRONOUS SYSTEM TRAP VECTOR TABLE 7709.20

   1618					.SBTTL	.SSTTB -- SYNCHRONOUS SYSTEM TRAP VECTOR TABLE 7709.20
   1619
   1620					; +
   1621					; .SSTTB -- SYNCHRONOUS SYSTEM TRAP VECTOR TABLE.
   1622					;
   1623					; THESE ARE THE ENTRY POINTS FOR ALL SYNCHRONOUS TRAPS IN THE KL FRONT
   1624					; END COMMAND PARSER. THE PARSER USES SYNCHRONOUS TRAPS, (SST'S),
   1625					; PRIMARILY TO HANDLE INTERNAL ERRORS VIA THE "TRAP" INSTRUCTION. SST'S
   1626					; MAY ALSO BE USED TO HANDLE ODD ADDRESS TRAPS, BREAKPOINTS, AND OTHER
   1627					; ERROR CONDITIONS, AS WELL AS THE PREVIOUSLY MENTIONED ERROR TRAPS.
   1628					;
   1629					; SYNCHRONOUS TRAPS ARE ENABLED BY THE "SVTK$" DIRECTIVE (Q.V.) AS
   1630					; ALLOWED BY THE ENTRIES IN ".SSTTB", THE SST VECTOR TABLE, BELOW.
   1631					; A NON-ZERO ENTRY IN ".SSTTB" INDICATES THAT CONTROL IS TO BE PASSED
   1632					; TO THE ADDRESS IN THAT ENTRY UPON OCCURANCE OF THE ASSOCIATED
   1633					; CONDITION. A ZERO ENTRY IN THE VECTOR TABLE INDICATES THAT THE
   1634					; SYSTEM IS TO HANDLE THE ASSOCIATED CONDITION.
   1635					;
   1636					; THE FORMAT OF THE SST VECTOR TABLE IS AS FOLLOWS:
   1637					;
   1638					;	!===============================================!
   1639					; 00	!	ODD ADDRESS TRAP HANDLER ADDRESS	!
   1640					;	!-----------------------------------------------!
   1641					; 02	!  MEMORY PROTECTION VIOLATION HANDLER ADDRESS	!
   1642					;	!-----------------------------------------------!
   1643					; 04	!	    T-BIT TRAP HANDLER ADDRESS		!
   1644					;	!-----------------------------------------------!
   1645					; 06	!	     IOT TRAP HANDLER ADDRESS		!
   1646					;	!-----------------------------------------------!
   1647					; 10	!   RESERVED INSTRUCTION TRAP HANDLER ADDRESS	!
   1648					;	!-----------------------------------------------!
   1649					; 12	!	ILLEGAL EMT TRAP HANDLER ADDRESS	!
   1650					;	!-----------------------------------------------!
   1651					; 14	!     TRAP INSTRUCTION TRAP HANDLER ADDRESS	!
   1652					;	!-----------------------------------------------!
   1653					; 16	!	FLOATING POINT TRAP HANDLER ADDRESS	!
   1654					;	!===============================================!
   1655					;-
   1656
   1657	000316				.SSTTB::
   1658	000316	000000 				.WORD	0		; ODD ADDRESS TRAP HANDLER
   1659	000320	000000 				.WORD	0		; MEMORY PROTECTION VIOLATION
   1660	000322	000000 				.WORD	0		; BREAKPOINT TRAP HANDLER
   1661	000324	000000 				.WORD	0		; "IOT" INSTRUCTION TRAP
   1662	000326	000000 				.WORD	0		; RESERVED INSTRUCTION TRAP
   1663	000330	000000 				.WORD	0		; NON-STANDARD EMT TRAP
   1664	000332	001124'				.WORD	.PTTRP		; "TRAP" INSTRUCTION TRAP
   1665	000334	000000 				.WORD	0		; FLOATING POINT TRAP
   1666		000010 			SSTLEN==.-.SSTTB/2		; LENGTH OF THIS TABLE
   1667		000334'			SSTTBE==.-2
DATAB  -- COMMAND PARSER DATA B	MACRO M1113  03-APR-86 22:51  PAGE 37
DATAB  -- DTE-20 OPERATION BUFFERS 7709.20

   1669					.SBTTL	DATAB  -- DTE-20 OPERATION BUFFERS 7709.20
   1670
   1671	000336				.DFBLK::
   1672	000336				.DFWB::
   1673	000336	000000 	000000 	000000 		.WORD	0,0,0		; FUNCTION WRITE BUFFER
   1674	000344				.DFRB::
   1675	000344	000000 	000000 	000000 		.WORD	0,0,0		; FUNCTION READ BUFFER
   1676
   1677	000352				.DREG::
   1678	000352				.DTDI1::
   1679	000352	000000 				.WORD	0		; DTE-20 DIAG WORD 1 BUFFER
   1680	000354				.DTDI2::
   1681	000354	000000 				.WORD	0		; DTE-20 DIAG WORD 2 BUFFER
   1682	000356				.DTSTS::
   1683	000356	000000 				.WORD	0		; DTE-20 STATUS WORD BUFFER
   1684	000360				.DTDI3::
   1685	000360	000000 				.WORD	0		; DTE-20 DIAG WORD 3 BUFFER
   1686		000362'			DFBEND==.
DATAB  -- COMMAND PARSER DATA B	MACRO M1113  03-APR-86 22:51  PAGE 38
DATAB  -- INPUT / OUTPUT BUFFERS 7709.20

   1688					.SBTTL	DATAB  -- INPUT / OUTPUT BUFFERS 7709.20
   1689
   1690					; THESE ARE THE I/O BUFFERS
   1691
   1692	000362				.CIBFR::
   1693	000362					.BLKW	^D70		; CONSOLE DEVICE INPUT BUFFER
   1694		000214 			.CIBFL==.-.CIBFR
   1695
   1696	000576				.COBFR::
   1697	000576					.BLKW	^D70		; CONSOLE DEVICE OUTPUT BUFFER
   1698		000204 			.COBFL==^D132
   1699
   1700	001012				.COMND::
   1701	001012					.BLKW	^D140		; COMMAND BUFFER
   1702		000430 			.CMNDL==.-.COMND
DATAB  -- COMMAND PARSER DATA B	MACRO M1113  03-APR-86 22:51  PAGE 39
DATAB  -- ASCII MESSAGES AND .RAD50 TABLES 7709.20

   1704					.SBTTL	DATAB  -- ASCII MESSAGES AND .RAD50 TABLES 7709.20
   1705
   1706	001442				.R50TB::
   1707	001442	000022 				.WORD	<'0-36>-<50-50>
   1708	001444	   060 	   000 			.ASCIZ	%0%
   1709	001446	177766 				.WORD	<'%-35>-<'0-36>
   1710	001450	   045 	   000 			.ASCIZ	/%/
   1711	001452	000012 				.WORD	<'.-34>-<'%-35>
   1712	001454	   056 	   000 			.ASCIZ	%.%
   1713	001456	177767 				.WORD	<'$-33>-<'.-34>
   1714	001460	   044 	   000 			.ASCIZ	%$%
   1715	001462	000067 				.WORD	<'A-01>-<'$-33>
   1716	001464	   101 	   000 			.ASCIZ	%A%
   1717	001466	177740 				.WORD	<' -00>-<'A-01>
   1718	001470	000040 				.WORD	.SPACE
   1719
   1720	001472				.T50TB::
   1721	001472	003100 				.WORD	50*50
   1722	001474	000050 				.WORD	50
   1723	001476	000001 				.WORD	1
   1724	001500	000000 				.WORD	0
   1725
   1726	000000				.PSECT	MESSAG
   1727
   1728	000000				CPVMSG::
   1729	000000					PARVR$	PAR$$K,,PAR$$V,PAR$$E
	000000	   126 	   200 	   061 		.ASCIZ	<126><200>\15-50\<200>
	000003	   065 	   055 	   065
	000006	   060 	   200 	   000
   1730	000011				PARMSG::
   1731	000011	   120 	   101 	   122 		.ASCIZ	%PAR -- %
	000014	   040 	   055 	   055
	000017	   040 	   000
   1732	000021				PARNAM::
   1733	000021	   120 	   101 	   122 		.ASCIZ	%PARSER%
	000024	   123 	   105 	   122
	000027	   000
   1734	000030				PROMPT::
   1735	000030	   120 	   101 	   122 		.ASCIZ	%PAR%
	000033	   000
   1736	000034				KLEPRM::
   1737	000034	   113 	   114 	   105 		.ASCIZ	%KLE>%
	000037	   076 	   000
   1738	000041				ONMSG::
   1739	000041	   117 	   116 	   000 		.ASCIZ	%ON%
   1740	000044				OFFMSG::
   1741	000044	   117 	   106 	   106 		.ASCIZ	%OFF%
	000047	   000
   1742	000000				.PSECT
DATAB  -- COMMAND PARSER DATA B	MACRO M1113  03-APR-86 22:51  PAGE 40
.CHTAB -- THE CHARACTER PROPERTY TABLE 7601.14

   1744					.SBTTL	.CHTAB -- THE CHARACTER PROPERTY TABLE 7601.14
   1745
   1746					;+
   1747					; .CHTAB -- THE CHARACTER PROPERTY TABLE
   1748					;
   1749					; THIS IS A TABLE OF ASCII CHARACTER PROPERTIES. THERE IS ONE ENTRY
   1750					; FOR EACH CHARACTER IN THE ASCII STANDARD CHARACTER SET. EACH ENTRY
   1751					; IS ONE BYTE LONG, AND CONTAINS BITS ASSOCIATED WITH THE GENERAL
   1752					; PROPETIES OF THE ASCII CHARACTER IT REPRESENTS. ".CHTAB" IS
   1753					; REFERENCED BY USING THE ASCII CHARACTER UNDER TEST AS AN OFFSET
   1754					; INTO THE TABLE. ONE ASCII CHARACTER MAY HAVE MULTIPLE CHARACTERISTICS.
   1755					; THE DEFINITIONS FOR THE CHARACTERISTIC BITS ARE IN "COMMON.MAC",
   1756					; (Q.V.), WHICH ARE:
   1757					;
   1758					;	"CH.ALP" -- (BIT00) -- CHARACTER IS ALPHABETIC,
   1759					;	"CH.NUM" -- (BIT01) -- CHARACTER IS NUMERIC,
   1760					;	"CH.EOL" -- (BIT02) -- CHARACTER MAY END A LINE,
   1761					;	"CH.EOC" -- (BIT03) -- CHARACTER MAY END A COMMAND,
   1762					;	"CH.EOS" -- (BIT04) -- CHARACTER MAY SUFFIX A SYMBOL,
   1763					;	"CH.PFX" -- (BIT05) -- CHARACTER MAY PREFIX A SYMBOL,
   1764					;	"CH.AOP" -- (BIT06) -- CHARACTER MAY PREFIX AN ARITHMETIC OPERATOR,
   1765					;	"CH.ILL" -- (BIT07) -- CHARACTER IS ILLEGAL.
   1766					;
   1767					; TABS, (ASCII 011), AND LOWER CASE ALPHABETICS ARE ILLEGAL CHARACTERS
   1768					; SINCE THE INPUT ROUTINES CONVERT THESE CHARACTERS TO SPACES AND
   1769					; UPPER CASE ALPHABETICS, RESPECTIVELY.
   1770					;-
   1771
   1772	001502					.PSECT	DATA
   1773
   1774	001502				.CHTAB::
   1775	001502	   034 				.BYTE	CH.EOL!CH.EOC!CH.EOS	; <NULL> (000)
   1776	001503	   030 				.BYTE	CH.EOS!CH.EOC			; ^A (001)
   1777	001504	   200 				.BYTE	CH.ILL			; ^B (002)
   1778	001505	   200 				.BYTE	CH.ILL			; ^C (003)
   1779	001506	   200 				.BYTE	CH.ILL			; ^D (004)
   1780	001507	   200 				.BYTE	CH.ILL			; ^E (005)
   1781	001510	   200 				.BYTE	CH.ILL			; ^F (006)
   1782	001511	   200 				.BYTE	CH.ILL			; ^G <BELL> (007)
   1783	001512	   200 				.BYTE	CH.ILL			; ^H (010)
   1784	001513	   200 				.BYTE	CH.ILL			; ^I <HORIZONTAL-TAB> (011)
   1785	001514	   200 				.BYTE	CH.ILL			; ^J <NEW-LINE> (012)
   1786	001515	   200 				.BYTE	CH.ILL			; ^K <VERTICAL-TAB> (013)
   1787	001516	   200 				.BYTE	CH.ILL			; ^L <FORM-FEED> (014)
   1788	001517	   200 				.BYTE	CH.ILL			; ^M <CARRIAGE-RETURN> (015)
   1789	001520	   200 				.BYTE	CH.ILL			; ^N (016)
   1790	001521	   200 				.BYTE	CH.ILL			; ^O (017)
   1791	001522	   200 				.BYTE	CH.ILL			; ^P (020)
   1792	001523	   200 				.BYTE	CH.ILL			; ^Q (021)
   1793	001524	   200 				.BYTE	CH.ILL			; ^R (022)
   1794	001525	   200 				.BYTE	CH.ILL			; ^S (023)
   1795	001526	   200 				.BYTE	CH.ILL			; ^T (024)
   1796	001527	   200 				.BYTE	CH.ILL			; ^U (025)
   1797	001530	   200 				.BYTE	CH.ILL			; ^V (026)
   1798	001531	   200 				.BYTE	CH.ILL			; ^W (027)
DATAB  -- COMMAND PARSER DATA B	MACRO M1113  03-APR-86 22:51  PAGE 41
.CHTAB -- THE CHARACTER PROPERTY TABLE 7601.14

   1800	001532	   200 				.BYTE	CH.ILL			; ^X (030)
   1801	001533	   200 				.BYTE	CH.ILL			; ^Y (031)
   1802	001534	   200 				.BYTE	CH.ILL			; ^Z (032)
   1803	001535	   200 				.BYTE	CH.ILL			; <ALT-MODE> (033)
   1804	001536	   200 				.BYTE	CH.ILL			; ^\ (034)
   1805	001537	   200 				.BYTE	CH.ILL			; ^] (035)
   1806	001540	   200 				.BYTE	CH.ILL			; ^^ (036)
   1807	001541	   200 				.BYTE	CH.ILL			; ^_ (037)
   1808	001542	   020 				.BYTE	CH.EOS			; <SPACE> (040)
   1809	001543	   200 				.BYTE	CH.ILL			; ! (041)
   1810	001544	   020 				.BYTE	CH.EOS			; " (042)
   1811	001545	   200 				.BYTE	CH.ILL			; # (043)
   1812	001546	   200 				.BYTE	CH.ILL			; $ (044)
   1813	001547	   200 				.BYTE	CH.ILL			; % (045)
   1814	001550	   200 				.BYTE	CH.ILL			; & (046)
   1815	001551	   020 				.BYTE	CH.EOS			; ' (047)
   1816	001552	   140 				.BYTE	CH.AOP!CH.PFX		; ( (050)
   1817	001553	   100 				.BYTE	CH.AOP			; ) (051)
   1818	001554	   120 				.BYTE	CH.AOP!CH.EOS		; * (052)
   1819	001555	   160 				.BYTE	CH.AOP!CH.EOS!CH.PFX	; + (053)
   1820	001556	   030 				.BYTE	CH.EOS!CH.EOC		; , (054)
   1821	001557	   160 				.BYTE	CH.AOP!CH.EOS!CH.PFX	; - (055)
   1822	001560	   200 				.BYTE	CH.ILL			; . (056)
   1823	001561	   120 				.BYTE	CH.AOP!CH.EOS		; / (057)
   1824						;
   1825	001562	   002 				.BYTE	CH.NUM			; 0 (060)
   1826	001563	   002 				.BYTE	CH.NUM			; 1 (061)
   1827	001564	   002 				.BYTE	CH.NUM			; 2 (062)
   1828	001565	   002 				.BYTE	CH.NUM			; 3 (063)
   1829	001566	   002 				.BYTE	CH.NUM			; 4 (064)
   1830	001567	   002 				.BYTE	CH.NUM			; 5 (065)
   1831	001570	   002 				.BYTE	CH.NUM			; 6 (066)
   1832	001571	   002 				.BYTE	CH.NUM			; 7 (067)
   1833	001572	   002 				.BYTE	CH.NUM			; 8 (070)
   1834	001573	   002 				.BYTE	CH.NUM			; 9 (071)
   1835						;
   1836	001574	   030 				.BYTE	CH.EOS!CH.EOC		; : (072)
   1837	001575	   030 				.BYTE	CH.EOS!CH.EOC		; ; (073)
   1838	001576	   200 				.BYTE	CH.ILL			; < (074)
   1839	001577	   020 				.BYTE	CH.EOS			; = (075)
   1840	001600	   020 				.BYTE	CH.EOS			; > (076)
   1841	001601	   041 				.BYTE	CH.PFX!CH.ALP		; ? (077)
   1842	001602	   200 				.BYTE	CH.ILL			; @ (100)
DATAB  -- COMMAND PARSER DATA B	MACRO M1113  03-APR-86 22:51  PAGE 42
.CHTAB -- THE CHARACTER PROPERTY TABLE 7601.14

   1844	001603	   001 				.BYTE	CH.ALP			; A (101)
   1845	001604	   101 				.BYTE	CH.ALP!CH.AOP		; B (102)
   1846	001605	   101 				.BYTE	CH.ALP!CH.AOP		; C (103)
   1847	001606	   101 				.BYTE	CH.ALP!CH.AOP		; D (104)
   1848	001607	   001 				.BYTE	CH.ALP			; E (105)
   1849	001610	   001 				.BYTE	CH.ALP			; F (106)
   1850	001611	   001 				.BYTE	CH.ALP			; G (107)
   1851	001612	   001 				.BYTE	CH.ALP			; H (110)
   1852	001613	   001 				.BYTE	CH.ALP			; I (111)
   1853	001614	   001 				.BYTE	CH.ALP			; J (112)
   1854	001615	   001 				.BYTE	CH.ALP			; K (113)
   1855	001616	   001 				.BYTE	CH.ALP			; L (114)
   1856	001617	   001 				.BYTE	CH.ALP			; M (115)
   1857	001620	   001 				.BYTE	CH.ALP			; N (116)
   1858	001621	   101 				.BYTE	CH.ALP!CH.AOP		; O (117)
   1859	001622	   001 				.BYTE	CH.ALP			; P (120)
   1860	001623	   001 				.BYTE	CH.ALP			; Q (121)
   1861	001624	   001 				.BYTE	CH.ALP			; R (122)
   1862	001625	   001 				.BYTE	CH.ALP			; S (123)
   1863	001626	   001 				.BYTE	CH.ALP			; T (124)
   1864	001627	   001 				.BYTE	CH.ALP			; U (125)
   1865	001630	   001 				.BYTE	CH.ALP			; V (126)
   1866	001631	   001 				.BYTE	CH.ALP			; W (127)
   1867	001632	   001 				.BYTE	CH.ALP			; X (130)
   1868	001633	   001 				.BYTE	CH.ALP			; Y (131)
   1869	001634	   001 				.BYTE	CH.ALP			; Z (132)
   1870						;
   1871	001635	   200 				.BYTE	CH.ILL			; [ (133)
   1872	001636	   200 				.BYTE	CH.ILL			; \ (134)
   1873	001637	   200 				.BYTE	CH.ILL			; ] (135)
   1874	001640	   140 				.BYTE	CH.AOP!CH.PFX		; ^ (136)
   1875	001641	   120 				.BYTE	CH.AOP!CH.EOS		; _ (137)
   1876	001642	   200 				.BYTE	CH.ILL			; @ (140)
   1911					.EVEN
   1912	000000					.PSECT
DATAB  -- COMMAND PARSER DATA B	MACRO M1113  03-APR-86 22:51  PAGE 44
.CHTAB -- THE CHARACTER PROPERTY TABLE 7601.14

   1915
   1916					.TITLE	DEB880 -- DEBUG PARSER DATA BASE
   1917
   1918						.IDENT	"006110"
   1919
   1920					;
CHECK -- GENERAL ARGUMENT CHECK	MACRO M1113  03-APR-86 22:51  PAGE 46
.CHTAB -- THE CHARACTER PROPERTY TABLE 7601.14

   2019					.TITLE	CHECK -- GENERAL ARGUMENT CHECK MODULE 7709.21
   2020
   2021						.IDENT	"006020"
   2022
   2023					;
   2024					;                             COPYRIGHT (C) 1975, 1984, 1985 BY
   2025					;                     DIGITAL EQUIPMENT CORPORATION, MAYNARD MASS.
   2026					;			ALL RIGHTS RESERVED.
   2027					;       THIS SOFTWARE IS FURNISHED UNDER A LICENSE AND MAY BE  USED  AND  COPIED
   2028					;       ONLY IN ACCORDANCE WITH THE TERMS OF SUCH LICENSE AND WITH THE INCLUSION
   2029					;       OF THE ABOVE COPYRIGHT NOTICE.  THIS SOFTWARE OR ANY OTHER COPIES THERE-
   2030					;       OF  MAY NOT BE PROVIDED OR OTHERWISE MADE AVAILABLE TO ANY OTHER PERSON.
   2031					;       NO TITLE TO OR OWNERSHIP OF THE SOFTWARE IS HEREBY TRANSFERRED.
   2032					;
   2033					;       THE INFORMATION CONTAINED IN THIS SOFTWARE IS SUBJECT TO CHANGE  WITHOUT
   2034					;       NOTICE  AND SHOULD NOT BE CONSTRUED AS A COMMITMENT BY DIGITAL EQUIPMENT
   2035					;       CORPORATION.
   2036					;
   2037					;       DIGITAL ASSUMES NO RESPONSIBILITY FOR THE  USE  OR  RELIABILITY  OF  ITS
   2038					;       SOFTWARE ON EQUIPMENT WHICH IS NOT SUPPILED BY DIGITAL.
   2039					;
   2040					;		MODULE: ALPANUMERIC ARGUMENT CHECK
   2041					;
   2042					;		VERSION: 06-02
   2043					;
   2044					;		AUTHOR: R. BELANGER
   2045					;
   2046					;		DATE: 709.21
   2047					;
   2048					;	THIS MODULE CONTAINS:
   2049					;
   2050					;	1) ALPHANUMERIC ARGUMENT CHECK CODE
   2051					;	2) TRAILING COLON CHECK CODE
   2052					;	3) END OF COMMAND CHECK CODE
   2053					;	4) END OF SYMBOL CHECK CODE
   2054					;	5) TRAILING OBJECT CHECK CODE
   2055					;	6) TRAILING SYMBOL CHECK CODE
   2056					;
   2057					;	MODIFICATION:
   2058					;
   2059					;	NO.	DATE		PROGRAMMER	REASON
   2060					;	---	----		----------	------
   2061					;   TCO 5.1002	18-SEP-79	K. LEFEBVRE	ADD RETURN TO CES ON SWEEP
   2062
   2063						.MCALL	CLEF$S
CHECK -- GENERAL ARGUMENT CHECK	MACRO M1113  03-APR-86 22:51  PAGE 47
.CESCK -- SUBROUTINE TO CHECK FOR CLOCK ERROR STOP 7607.15

   2065					.SBTTL	.CESCK -- SUBROUTINE TO CHECK FOR CLOCK ERROR STOP 7607.15
   2066
   2067					;+
   2068					; .CESCK -- SUBROUTINE TO CHECK FOR CLOCK ERROR STOP BY READING
   2069					;	    DTE-20 DIAG WORD 1.
   2070					;
   2071					; THIS SUBROUTINE CHECKS FOR THE KL CLOCK ERROR STOP ("D1.CES") FLAG
   2072					; IN THE DTE-20 DIAG1 REGISTER, AND WILL RETURN NORMALLY IF THE BIT IS OFF.
   2073					;
   2074					; SEQUENCE OF OPERATION:
   2075					;
   2076					;	(A) READ DTE-20 DIAG WORD 1,
   2077					;	(B) TEST THE CLOCK ERROR STOP FLAG FROM (A),
   2078					;	(C) IF THE FLAG IS CLEAR, EXIT, ELSE GO TO (D),
   2079					;	(D) RESET THE STATE OF ".KLFLG" AND ".SVKLF" (Q.V.),
   2080					;	(E) FORCE A CONTEXT SWITCH INTO SECONDARY PROTOCOL,
   2081					;	(F) RETURN A .RAD50 "CES" ERROR CODE VIA ERROR TRAP.
   2082					;
   2083					; INPUT ARGUMENTS:
   2084					;
   2085					;	NONE.
   2086					;
   2087					; OUTPUT ARGUMENTS:
   2088					;
   2089					;	R0 CONTAINS A COPY OF DTE-20 DIAG WORD 1.
   2090					;	CC-C IS SET IF CES AND SWEEP IN PROGRESS
   2091					;
   2092					; ERROR CODES RETURNED:
   2093					;
   2094					;	CES -- KL CLOCK ERROR STOP.
   2095					;	DSF -- DTE-20 STATUS FAILURE.
   2096					;-
   2097
   2098	000000				.CESCK::
   2102	000000					CALL	.DTDW1		; READ DIAG WORD 1
	000000	004737 	003530'			 JSR	PC,.DTDW1
   2103	000004	032700 	004000 			BIT	#D1.CES,R0	; IS CLOCK ERROR STOP LIT?
   2104	000010	001002 				BNE	CESCES		; YES -- GIVE "CES" ERROR
   2105	000012	000241 				CLC			; [5.1002]NO -- CLEAR CARRY
   2106	000014					RETURN			; JUST RETURN
	000014	000207 				 RTS	PC
   2107	000016				CESCES:
   2108	000016					CALL	..DTSP		; [5.1002]STOP ALL PROTOCOLS
	000016	004737 	000000G			 JSR	PC,..DTSP
   2109	000022	112737 	000001 	000000G		MOVB	#1,.NOERR	; AND DISABLE ERROR INTERRUPT
   2110	000030	005037 	000260'			CLR	.SVKLF		; DISALLOW RESTARTS
   2111	000034	042737 	140200 	000000G		BIC	#KF.CON!KF.RUN!KF.CLK,.KLFLG
   2112									; CLEAR THE CLOCK AND CONTINUEABLE FLAGS
   2113	000042	052737 	000100 	000000G		BIS	#KF.CES,.KLFLG	; FLAG THE CLOCK ERROR STOP
   2114	000050	005737 	000262'			TST	.SWPIP		; [5.1002]SWEEP IN PROGRESS?
   2115	000054	001402 				BEQ	10$		; [5.1002]NO -- TAKE ERROR TRAP
   2116	000056	000261 				SEC			; [5.1002]YES -- SET CARRY
   2117	000060					RETURN			; [5.1002]EXIT
	000060	000207 				 RTS	PC
   2118	000062				10$:	ERROR$	CES		; ERROR -- CLOCK ERROR STOP
	000062	012746 	011633 			 MOV	#^RCES,-(SP)
	000066	104400 				 TRAP	TC.ERR
CHECK -- GENERAL ARGUMENT CHECK	MACRO M1113  03-APR-86 22:51  PAGE 47-1
.CESCK -- SUBROUTINE TO CHECK FOR CLOCK ERROR STOP 7607.15

   2119						;
CHECK -- GENERAL ARGUMENT CHECK	MACRO M1113  03-APR-86 22:51  PAGE 48
.CKARG -- CHECK FOR ALPHANUMERIC ARGUMENT 7709.21

   2121					.SBTTL	.CKARG -- CHECK FOR ALPHANUMERIC ARGUMENT 7709.21
   2122
   2123					;+
   2124					; .CKARG -- CHECK FOR AN ALPHANUMERIC ARGUMENT
   2125					;
   2126					; THIS ROUTINE WILL CHECK THE FIRST CHARACTER OF THE NEXT SYMBOL
   2127					; IN THE INPUT STREAM TO SEE IF IT IS ALPHABETIC OR NUMERIC.
   2128					;
   2129					; INPUT ARGUMENTS:
   2130					;
   2131					;	R5 POINTS TO THE INPUT STREAM
   2132					;
   2133					; OUTPUT ARGUMENTS:
   2134					;
   2135					;	R5 POINTS TO THE FIRST CHARACTER IN THE SYMBOL
   2136					;	CC-N IS SET IF IT IS NUMERIC
   2137					;	CC-Z IS SET IF IT IS ALPHABETIC
   2138					;
   2139					; ERROR CODES RETURNED:
   2140					;
   2141					;	MRA -- MISSING REQUIRED ARGUMENT
   2142					;-
   2143
   2144	000070				.CKARG::
   2145	000070					CALL	.CKSYM		; GET OVER LEADING BLANKS
	000070	004737 	000374'			 JSR	PC,.CKSYM
   2146	000074	132764 	000001 	001502'		BITB	#CH.ALP,.CHTAB(R4)
   2147	000102	001403 				BEQ	10$		; SEE IF IT IS NUMERIC
   2148	000104	000250 				CLN			; CLEAR CC-N
   2149	000106	000264 				SEZ			; SET CC-Z TO SAY ALPHABETIC
   2150	000110	000406 				BR	20$		; AND EXIT
   2151						;
   2152	000112				10$:
   2153	000112	132764 	000042 	001502'		BITB	#CH.NUM!CH.PFX,.CHTAB(R4)
   2154	000120	001417 				BEQ	CKCMRA		; NOT NUMERIC -- GIVE ERROR
   2155	000122	000244 				CLZ			; CLEAR CC-Z
   2156	000124	000270 				SEN			; SET CC-N TO SAY NUMERIC
   2157	000126				20$:
   2158	000126					RETURN			; TO CALLER
	000126	000207 				 RTS	PC
CHECK -- GENERAL ARGUMENT CHECK	MACRO M1113  03-APR-86 22:51  PAGE 49
.CKCOL -- CHECK FOR A EQUAL 7709.21

   2160					.SBTTL	.CKCOL -- CHECK FOR A EQUAL 7709.21
   2161
   2162					;+
   2163					; .CKCOL -- CHECK FOR A EQUAL
   2164					;
   2165					; THIS ROUTINE CHECKS FOR A EQUAL AFTER A SYMBOL
   2166					;
   2167					; INPUT ARGUMENTS:
   2168					;
   2169					;	R5 POINTS TO THE INPUT STREAM
   2170					;
   2171					; OUTPUT ARGUMENTS:
   2172					;
   2173					;	R5 POINTS TO THE FIRST CHARACTER AFTER THE EQUAL.
   2174					;
   2175					; ERROR CODES RETURNED:
   2176					;
   2177					;	ILS -- ILLEGAL SEPARATOR CHARACTER.
   2178					;	MRA -- MISSING REQUIRED ARGUMENT
   2179					;-
   2180
   2181	000130				.CKCOL::
   2182	000130	112504 				MOVB	(R5)+,R4	; GET THE CHARACTER
   2183	000132	132764 	000010 	001502'		BITB	#CH.EOC,.CHTAB(R4)
   2184	000140	001007 				BNE	CKCMRA		; MISSING ARGUMENT IF E-O-C
   2185	000142	122704 	000075 			CMPB	#'=,R4		; IS IT A EQUAL?
   2186	000146	001001 				BNE	CKCILS		; NO -- GIVE "ILS" ERROR
   2187	000150					RETURN			; YES -- JUST RETURN
	000150	000207 				 RTS	PC
   2188	000152				CKCILS:
   2189	000152					ERROR$	ILS		; ERROR -- ILLEGAL SEPARATOR CHARACTER
	000152	012746 	035063 			 MOV	#^RILS,-(SP)
	000156	104400 				 TRAP	TC.ERR
   2190						;
   2191	000160				CKCMRA:
   2192	000160					ERROR$	MRA		; ERROR -- MISSING REQUIRED ARGUMENT
	000160	012746 	052021 			 MOV	#^RMRA,-(SP)
	000164	104400 				 TRAP	TC.ERR
   2193						;
CHECK -- GENERAL ARGUMENT CHECK	MACRO M1113  03-APR-86 22:51  PAGE 50
.CKCTC -- CHECK FOR CONTROL-C TYPED 7601.28

   2195					.SBTTL	.CKCTC -- CHECK FOR CONTROL-C TYPED 7601.28
   2196
   2197					;+
   2198					; .CKCTC -- CHECK FOR CONTROL-C TYPED
   2199					;
   2200					; THIS SUBROUTINE CHECKS THE CONTROL-C EVENT FLAG, "E.FCTC" AND WILL
   2201					; RETURN TO THE CALLING ROUTINE IF IT IS CLEAR OR TRAP IF IT IS SET.
   2202					;
   2203					; INPUT ARGUMENTS:
   2204					;
   2205					;	NONE.
   2206					;
   2207					; OUTPUT ARGUMENTS:
   2208					;
   2209					;	NONE
   2210					;
   2211					; ERROR CODES RETURNED:
   2212					;
   2213					;	NONE.
   2214					;-
   2215
   2216	000166				.CKCTC::
   2217	000166					CLEF$S	#E.FCTC		; CLEAR THE EVENT FLAG
	000166	012746 	000000G			MOV	#E.FCTC,-(SP)
	000172	012746 				MOV	(PC)+,-(SP)
	000174	   037 	   002 			.BYTE	31.,2
	000176	104375 				EMT	375
   2218	000200	022737 	000000G	000000G		CMP	#IS.SET,$DSW	; WAS IT SET?
   2219	000206	001401 				BEQ	10$		; YES -- TRAP OUT
   2220	000210					RETURN			; NO -- JUST RETURN
	000210	000207 				 RTS	PC
   2221	000212				10$:				; PC OF CALL WILL BE IN ".TRPEC"
   2222	000212	104402 				TRAP	TC.CTC		; .TRAP AND RESTART
   2223						;
CHECK -- GENERAL ARGUMENT CHECK	MACRO M1113  03-APR-86 22:51  PAGE 51
.CKEOC -- CHECK END OF COMMAND 7602.16

   2225					.SBTTL	.CKEOC -- CHECK END OF COMMAND 7602.16
   2226
   2227					;+
   2228					; .CKEOC -- CHECK FOR END OF COMMAND
   2229					;
   2230					; THIS ROUTINE CHECKS FOR AN END OF COMMAND CHARACTER
   2231					;
   2232					; INPUT ARGUMENTS:
   2233					;
   2234					;	R5 POINTS TO THE INPUT STREAM
   2235					;
   2236					; OUTPUT ARGUMENTS:
   2237					;
   2238					;	R5 IS UNCHANGED
   2239					;
   2240					; ERROR CODES RETURNED:
   2241					;
   2242					;	EOC -- END OF COMMAND REQUIRED
   2243					;	ILS -- ILLEGAL SEPARATOR CHARACTER
   2244					;-
   2245
   2246	000214				.CKEOC::
   2247	000214	111504 				MOVB	(R5),R4		; GET THE CHARACTER
   2248	000216	132764 	000010 	001502'		BITB	#CH.EOC,.CHTAB(R4)
   2249	000224	001401 				BEQ	10$		; MAY BE ERROR IF NOT E-O-C
   2250	000226					RETURN			; TO CALLER
	000226	000207 				 RTS	PC
   2251	000230				10$:
   2252	000230					PUSH	R4		; SAVE THE CHARACTER
	000230	010446 				 MOV	R4,-(SP)
   2253	000232					CALL	.CKSYM		; .LOOK FOR A NON-BLANK CHARACTER
	000232	004737 	000374'			 JSR	PC,.CKSYM
   2254	000236	122704 	000077 			CMPB	#'?,R4		; .IS THIS AN INQUIRY?
   2255	000242	001402 				BEQ	CKEEOC		; .YES -- GIVE "EOC" ERROR
   2256	000244					POP	R4		; .NO -- GIVE "ILS" ERROR
	000244	012604 				 MOV	(SP)+,R4
   2257	000246	000741 				BR	CKCILS		; ERROR -- ILLEGAL SEPARATOR CHARACTER
   2258						;
   2259	000250				CKEEOC:
   2260	000250					ERROR$	EOC		; ERROR -- END OF COMMAND
	000250	012746 	020633 			 MOV	#^REOC,-(SP)
	000254	104400 				 TRAP	TC.ERR
   2261						;
CHECK -- GENERAL ARGUMENT CHECK	MACRO M1113  03-APR-86 22:51  PAGE 52
.CKEOS -- CHECK END OF SYMBOL 7709.21

   2263					.SBTTL	.CKEOS -- CHECK END OF SYMBOL 7709.21
   2264
   2265					;+
   2266					; .CKEOS -- CHECK FOR A NON-BLANK END OF SYMBOL
   2267					;
   2268					; THIS ROUTINE CHECKS FOR A NON-BLANK END-OF-SYMBOL CHARACTER
   2269					;
   2270					; INPUT ARGUMENTS:
   2271					;
   2272					;	R5 POINTS TO THE END-OF-SYMBOL CHARACTER
   2273					;
   2274					; OUTPUT ARGUMENTS:
   2275					;
   2276					;	R5 IS UNCHANGED
   2277					;
   2278					; ERROR CODES RETURNED:
   2279					;
   2280					;	ILS -- ILLEGAL SEPARATOR CHRARACTER
   2281					;-
   2282
   2283	000256				.CKEOS::
   2284	000256	111504 				MOVB	(R5),R4		; GET THE CHARACTER INTO R4
   2285	000260	132764 	000020 	001502'		BITB	#CH.EOS,.CHTAB(R4)
   2286	000266	001731 				BEQ	CKCILS		; ILLEGAL IF NOT E-O-S
   2287	000270	122704 	000040 			CMPB	#.SPACE,R4	; IS IS A <SPACE>?
   2288	000274	001726 				BEQ	CKCILS		; YES -- COMPLAIN
   2289	000276					RETURN			; NO -- JUST RETURN
	000276	000207 				 RTS	PC
CHECK -- GENERAL ARGUMENT CHECK	MACRO M1113  03-APR-86 22:51  PAGE 53
.CKOBJ -- CHECK FOR A TRAILING OBJECT 7709.21

   2291					.SBTTL	.CKOBJ -- CHECK FOR A TRAILING OBJECT 7709.21
   2292
   2293					;+
   2294					; .CKOBJ -- CHECK FOR A TRAILING OBJECT.
   2295					;
   2296					; THIS SUBROUTINE CHECKS TO SEE IF AN OBJECT SYMBOL FOLLOWS THE
   2297					; CURRENT SYMBOL.
   2298					;
   2299					; INPUT ARGUMENTS:
   2300					;
   2301					;	NONE.
   2302					;
   2303					; OUTPUT ARGUMENTS:
   2304					;
   2305					;	NONE.
   2306					;
   2307					; ERROR CODES RETURNED:
   2308					;
   2309					;	MRA -- MISSING REQUIRED ARGUMENT.
   2310					;-
   2311
   2312	000300				.CKOBJ::
   2313	000300					CALL	.CKSYM		; GET OVER LEADING BLANKS
	000300	004737 	000374'			 JSR	PC,.CKSYM
   2314	000304	132764 	000010 	001502'		BITB	#CH.EOC,.CHTAB(R4)
   2315	000312	001322 				BNE	CKCMRA		; ILLEGAL IF E-O-C
   2316	000314					RETURN			; NOT E-O-C -- RETURN
	000314	000207 				 RTS	PC
CHECK -- GENERAL ARGUMENT CHECK	MACRO M1113  03-APR-86 22:51  PAGE 54
.CKRUN -- SUBROUTINE TO CHECK IF THE KL IS RUNNING 7601.12

   2318					.SBTTL	.CKRUN -- SUBROUTINE TO CHECK IF THE KL IS RUNNING 7601.12
   2319
   2320					;+
   2321					; .CKRUN -- SUBROUTINE TO CHECK IF THE KL IS RUNNING
   2322					; .CKRNP -- SPECIAL RUN CHECK FOR PROGRAMMER MODE
   2323					;
   2324					; THIS SUBROUTINE WILL CHECK IF THE KL IS RUNNING FROM ".KLFLG"
   2325					; OR IF THE FRONT END IS IN MAINTENANCE MODE.
   2326					;
   2327					; INPUT ARGUMENTS:
   2328					;
   2329					;	NONE.
   2330					;
   2331					; OUTPUT ARGUMENTS:
   2332					;
   2333					;	NONE.
   2334					;
   2335					; ERROR CODES RETURNED:
   2336					;
   2337					;	KLR -- KL IS RUNNING.
   2338					;-
   2339
   2340						.ENABL	LSB
   2341
   2342	000316				.CKRNP::
   2343	000316					PUSH	R0		; SAVE R0
	000316	010046 				 MOV	R0,-(SP)
   2344	000320	012700 	000002 			MOV	#LG.PRG,R0	; .SET PROGRAMMER ALLOWED
   2345	000324	000402 				BR	10$		; .AND CONTINUE TEST
   2346						;
   2347	000326				.CKRUN::
   2348	000326					PUSH	R0		; SAVE R0
	000326	010046 				 MOV	R0,-(SP)
   2349	000330	005000 				CLR	R0		; .CLEAR R0
   2350	000332				10$:
   2351	000332	052700 	000004 			BIS	#LG.MNT,R0	; .SET MAINTENANCE ALLOWED
   2352	000336					PUSH	.KLFLG		; .SAVE ".KLFLG"
	000336	013746 	000000G			 MOV	.KLFLG,-(SP)
   2353	000342	005116 				COM	(SP)		; ..INVERT ".KLFLG"
   2354	000344	032716 	140000 			BIT	#KF.RUN!KF.CLK,(SP)
   2355	000350	001003 				BNE	20$		; ..BRANCH IF THE KL IS NOT RUNNING
   2356	000352	030037 	000000G			BIT	R0,.FEMOD	; ..ARE WE IN ALLOWED MODE?
   2357	000356	001403 				BEQ	CKRKLR		; ..NO -- GIVE "KLR" ERROR
   2358	000360				20$:
   2359	000360	005726 				TST	(SP)+		; ..YES -- RESET THE STACK
   2360	000362					POP	R0		; .RESTORE R0
	000362	012600 				 MOV	(SP)+,R0
   2361	000364					RETURN			; TO CALLER
	000364	000207 				 RTS	PC
   2362
   2363						.DSABL	LSB
   2364
   2365	000366				CKRKLR:
   2366	000366					ERROR$	KLR		; ..ERROR -- KL IS RUNNING
	000366	012746 	043262 			 MOV	#^RKLR,-(SP)
	000372	104400 				 TRAP	TC.ERR
   2367						;
CHECK -- GENERAL ARGUMENT CHECK	MACRO M1113  03-APR-86 22:51  PAGE 55
.CKSYM -- FIND THE FIRST CHARACTER IN A SYMBOL 7709.21

   2369					.SBTTL	.CKSYM -- FIND THE FIRST CHARACTER IN A SYMBOL 7709.21
   2370
   2371					;+
   2372					; .CKSYM -- SUBROUTINE TO FIND THE FIRST CHARACTER IN A SYMBOL.
   2373					;
   2374					; THIS SUBROUTINE WILL FIND THE FIRST NON-BLANK CHARACTER IN AN INPUT
   2375					; SYMBOL POINTED TO BY R5. THE SYMBOL IS THEN CHECKED TO SEE IF IT IS
   2376					; ALPAHBETIC, NUMERIC, OR A LEGAL PREFIX CHARACTER.
   2377					;
   2378					; INPUT ARGUMENTS:
   2379					;
   2380					;	R5 POINTS TO THE INPUT STREAM.
   2381					;
   2382					; OUTPUT ARGUMENTS:
   2383					;
   2384					;	R5 POINTS TO THE FIRST NON-BLANK CHARACTER.
   2385					;
   2386					; ERROR CODES RETURNED:
   2387					;
   2388					;	NONE.
   2389					;-
   2390
   2391	000374				.CKSYM::
   2392	000374	112504 				MOVB	(R5)+,R4	; GET THE CHARACTER
   2393	000376	122704 	000040 			CMPB	#.SPACE,R4	; IS IT A <SPACE>?
   2394	000402	001774 				BEQ	.CKSYM		; YES -- DO NEXT CHARACTER
   2395	000404	105745 				TSTB	-(R5)		; NO -- BACK THE POINTER UP
   2396	000406					RETURN			; TO CALLER
	000406	000207 				 RTS	PC
CHECK -- GENERAL ARGUMENT CHECK	MACRO M1113  03-APR-86 22:51  PAGE 56
.EBPCK -- SUBROUTINE TO CHECK EBUS PARITY ERROR 7512.03

   2398					.SBTTL	.EBPCK -- SUBROUTINE TO CHECK EBUS PARITY ERROR 7512.03
   2399
   2400					;+
   2401					; .EBPCK -- SUBROUTINE TO CHECK FOR EBUS PARITY ERRORS
   2402					;
   2403					; THIS SUBROUTINE WILL CAUSE AN ERROR TRAP IF THE EBUS PARITY ERROR
   2404					; FLAG IS TRUE IN THE DTE-20 STATUS WORD.
   2405					;
   2406					; INPUT ARGUMENTS:
   2407					;
   2408					;	NONE.
   2409					;
   2410					; OUTPUT ARGUMENTS:
   2411					;
   2412					;	R0 CONTAINS A COPY OF THE DTE-20 STATUS WORD
   2413					;
   2414					; ERROR CODES RETURNED:
   2415					;
   2416					;	DSF -- DTE-20 STATUS FAILURE.
   2417					;	EPE -- EBUS PARITY ERROR.
   2418					;-
   2419
   2420	000410				.EBPCK::
   2421	000410					CALL	.DTSTA		; READ DTE-20 STATUS WORD
	000410	004737 	003546'			 JSR	PC,.DTSTA
   2422	000414	032700 	000020 			BIT	#ST.EPE,R0	; EBUS PARITY ERROR?
   2424	000420	001001 				BNE	EBPEPE		; YES -- GIVE "EPE" ERROR
   2426	000422					RETURN			; NO -- JUST RETURN
	000422	000207 				 RTS	PC
   2427	000424				EBPEPE:
   2428	000424					ERROR$	EPE		; ERROR -- EBUS PARITY ERROR
	000424	012746 	020705 			 MOV	#^REPE,-(SP)
	000430	104400 				 TRAP	TC.ERR
   2429						;
   2430
   2431					.TITLE	ERROR -- PARSER ERROR HANDLER MODULE 7609.24
   2432
   2433						.IDENT	"006020"
   2434					;
   2435					;                             COPYRIGHT (C) 1975, 1984, 1985 BY
   2436					;                     DIGITAL EQUIPMENT CORPORATION, MAYNARD MASS.
   2437					;			ALL RIGHTS RESERVED.
   2438					;       THIS SOFTWARE IS FURNISHED UNDER A LICENSE AND MAY BE  USED  AND  COPIED
   2439					;       ONLY IN ACCORDANCE WITH THE TERMS OF SUCH LICENSE AND WITH THE INCLUSION
   2440					;       OF THE ABOVE COPYRIGHT NOTICE.  THIS SOFTWARE OR ANY OTHER COPIES THERE-
   2441					;       OF  MAY NOT BE PROVIDED OR OTHERWISE MADE AVAILABLE TO ANY OTHER PERSON.
   2442					;       NO TITLE TO OR OWNERSHIP OF THE SOFTWARE IS HEREBY TRANSFERRED.
   2443					;
   2444					;       THE INFORMATION CONTAINED IN THIS SOFTWARE IS SUBJECT TO CHANGE  WITHOUT
   2445					;       NOTICE  AND SHOULD NOT BE CONSTRUED AS A COMMITMENT BY DIGITAL EQUIPMENT
   2446					;       CORPORATION.
   2447					;
   2448					;       DIGITAL ASSUMES NO RESPONSIBILITY FOR THE  USE  OR  RELIABILITY  OF  ITS
   2449					;       SOFTWARE ON EQUIPMENT WHICH IS NOT SUPPILED BY DIGITAL.
   2450					;
   2451					;		MODULE: ERROR HANDLER
   2452					;
ERROR -- PARSER ERROR HANDLER M	MACRO M1113  03-APR-86 22:51  PAGE 56-1
.EBPCK -- SUBROUTINE TO CHECK EBUS PARITY ERROR 7512.03

   2453					;		VERSION: 06-02
   2454					;
   2455					;		AUTHOR: R. BELANGER
   2456					;
   2457					;		DATE: 7609.24
   2458					;
   2459					;	THIS MODULE CONTAINS:
   2460					;
   2461					;	1) ERROR DECODER
ERROR -- PARSER ERROR HANDLER M	MACRO M1113  03-APR-86 22:51  PAGE 57
.PARER -- ERROR DECODE AND PRINT ROUTINE 7609.24

   2463					.SBTTL	.PARER -- ERROR DECODE AND PRINT ROUTINE 7609.24
   2464
   2465					;+
   2466					; .PARER -- ERROR DECODE AND PRINT ROUTINE.
   2467					;
   2468					; THIS ROUTINE WILL DECODE THE .RAD50 ERROR CODE PASSED TO IT IN R0
   2469					; AND PRINT AN APPROPRIATE ENGLISH ERROR MESSAGE. THIS ROUTINE IS
   2470					; CALLED FROM THE TRAP HANDLER, ".PTTRP".
   2471					;
   2472					; TWO ERROR CODE TABLES ARE SCANNED, ONE FOR SPECIAL ERRORS AND ONE FOR
   2473					; NORMAL ERRORS, UNTIL A MATCH IS FOUND. IF NO MATCH IS FOUND, ".PARER"
   2474					; WILL ISSUE A "UEC" ERROR CODE.
   2475					;
   2476					; THE SPECIAL ERROR CODES REQUIRE SPECIAL HANDLING BY SEPARATE ROUTINES,
   2477					; THIER ENTRIES LOOK LIKE THIS:
   2478					;
   2479					;	!===============================!
   2480					;	!	.RAD50 ERROR CODE	!
   2481					;	!-------------------------------!
   2482					;	!	DISPATCH ADDRESS	!
   2483					;	!-------------------------------!
   2484					;	!	MESSAGE POINTER		!
   2485					;	!===============================!
   2486					;
   2487					; THE NORMAL ERRORS SIMPLY REQUIRE THAT THE ERROR MESSAGE BE PRINTED
   2488					; AND THE ENTRIES IN THIER TABLE LOOK LIKE THIS:
   2489					;
   2490					;	!===============================!
   2491					;	!	.RAD50 ERROR CODE	!
   2492					;	!-------------------------------!
   2493					;	!	MESSAGE POINTER		!
   2494					;	!===============================!
   2495					;
   2496					; INPUT ARGUMENTS:
   2497					;
   2498					;	R0 HOLDS THE .RAD50 ERROR CODE
   2499					;
   2500					; OUTPUT ARGUMENTS:
   2501					;
   2502					;	NONE.
   2503					;
   2504					; ERROR MESSAGES RETURNED:
   2505					;
   2506					;	IF THE CONSOLE DEVICE CANNOT BE ATTACHED OR DEATCHED,
   2507					;	THE PARSER EXITS.
   2508					;
   2509					;	UEC -- UNMATCHED ERROR CODE.
   2510					;-
ERROR -- PARSER ERROR HANDLER M	MACRO M1113  03-APR-86 22:51  PAGE 58
.PARER -- ERROR DECODE AND PRINT ROUTINE 7609.24

   2512	000432				.PARER::
   2513	000432					PUSH	<R0,R1,R2>	; SAVE CALLER'S REGISTERS
	000432	010046 				 MOV	R0,-(SP)
	000434	010146 				 MOV	R1,-(SP)
	000436	010246 				 MOV	R2,-(SP)
   2514	000440	012701 	006740'			MOV	#.SPETB,R1	; ...SPECIAL ERRORS GET CHECKED FIRST
   2515	000444				10$:
   2516	000444	012102 				MOV	(R1)+,R2	; ...ERROR CODE TO R2
   2517	000446	001405 				BEQ	30$		; ...END-OF-TABLE TRY OTHER ERROR CODES
   2518	000450	020002 				CMP	R0,R2		; ...DO THEY MATCH?
   2519	000452	001402 				BEQ	20$		; ...YES -- DISPATCH TO SPECIAL HANDLER
   2520	000454	022121 				CMP	(R1)+,(R1)+	; ...NO -- GET OVER DISPATCH
   2521	000456	000772 				BR	10$		; ...AND TRY THE NEXT ONE
   2522						;
   2523	000460				20$:
   2524	000460	000131 				JMP	@(R1)+		; ...AWAY TO SPECIAL ROUTINE
   2525						;
   2526	000462				30$:
   2527	000462	012701 	005542'			MOV	#.NSETB,R1	; ...TABLE POINTER TO R1
   2528	000466				40$:
   2529	000466	012102 				MOV	(R1)+,R2	; ...ERROR CODE TO R2
   2530	000470	001521 				BEQ	PARUEC		; ...END-OF-TABLE -- GIVE UEC ERROR
   2531	000472	020002 				CMP	R0,R2		; ...DO THEY MATCH?
   2532	000474	001402 				BEQ	50$		; ...YES -- PRINT THE MESSAGE
   2533	000476	005721 				TST	(R1)+		; ...NO -- GET OVER MESSAGE POINTER
   2534	000500	000772 				BR	40$		; ...AND TRY NEXT CODE
   2535						;
   2536	000502				50$:
   2537	000502					CALL	PARERC		; ...DO COMMON OUTPUT CODE
	000502	004737 	000662'			 JSR	PC,PARERC
   2538	000506				PARERX:
   2539	000506					POP	<R2,R1,R0>	; ...RESTORE THE REGISTERS
	000506	012602 				 MOV	(SP)+,R2
	000510	012601 				 MOV	(SP)+,R1
	000512	012600 				 MOV	(SP)+,R0
   2540	000514					CALLR	.TCRLF		; END THE LINE AND RETURN
	000514	000137 	015552'			 JMP	.TCRLF
   2541						;
ERROR -- PARSER ERROR HANDLER M	MACRO M1113  03-APR-86 22:51  PAGE 59
.PARER -- SPECIAL ERROR ROUTINES 7609.24

   2543					.SBTTL	.PARER -- SPECIAL ERROR ROUTINES 7609.24
   2544
   2545						.ENABL	LSB
   2546
   2547	000520				.SEAMB::
   2548	000520				.SENSK::
   2549	000520					CALL	PARERC		; ...DO COMMON CODE
	000520	004737 	000662'			 JSR	PC,PARERC
   2550	000524				10$:
   2551	000524	112500 				MOVB	(R5)+,R0	; ...LOAD THE OFFENDING SYMBOL
   2552	000526	132760 	000034 	001502'		BITB	#CH.END,.CHTAB(R0)
   2553	000534	001017 				BNE	30$		; ...UNTIL THE END
   2554	000536					CALL	.TYCHR		; ...OUTPUT THE CHARACTER
	000536	004737 	015520'			 JSR	PC,.TYCHR
   2555	000542	000770 				BR	10$		; ...CONTINUE
   2556						;
   2557	000544				.SEILC::
   2558	000544				.SEILS::
   2559	000544				.SEIPC::
   2560	000544					CALL	PARERC		; ...DO COMMON CODE
	000544	004737 	000662'			 JSR	PC,PARERC
   2561	000550	110400 				MOVB	R4,R0		; ...GET THE CHARACTER
   2562	000552	122700 	000040 			CMPB	#.SPACE,R0	; ...IS IT A CONTROL CHARACTER?
   2563	000556	003404 				BLE	20$		; ...NO -- JUST PRINT IT
   2564	000560					CALL	.TYUPA		; ...YES -- TYPE AN <UPARROW>
	000560	004737 	014612'			 JSR	PC,.TYUPA
   2565	000564	052700 	000100 			BIS	#100,R0		; ...MAKE IT A PRINTING CHARACTER
   2566	000570				20$:
   2567	000570					CALL	.TYCHR		; ...PRINT THE CHARACTER
	000570	004737 	015520'			 JSR	PC,.TYCHR
   2568	000574				30$:
   2569	000574	112700 	000042 			MOVB	#'",R0		; ...END QUOTE
   2570	000600					CALL	.TYCHR		; ...PRINT THAT
	000600	004737 	015520'			 JSR	PC,.TYCHR
   2571	000604	000740 				BR	PARERX		; ...AND EXIT
   2572						;
ERROR -- PARSER ERROR HANDLER M	MACRO M1113  03-APR-86 22:51  PAGE 60
.PARER -- SPECIAL ERROR ROUTINES 7609.24

   2574	000606				.SEFRF::
   2575	000606					PUSH	.KLDFR+2	; ...SAVE THE READ CODE
	000606	013746 	000340'			 MOV	.KLDFR+2,-(SP)
   2576	000612	000405 				BR	40$		; ....TO COMMON CODE
   2577						;
   2578	000614				.SEFWF::
   2579	000614					PUSH	.KLDFW+2	; ...SAVE THE WRITE CODE
	000614	013746 	000352'			 MOV	.KLDFW+2,-(SP)
   2580	000620	000402 				BR	40$		; ....TO COMMON CODE
   2581						;
   2582	000622				.SEFXF::
   2583	000622					PUSH	.KLDFX+2	; ...SAVE THE EXECUTE CODE
	000622	013746 	000364'			 MOV	.KLDFX+2,-(SP)
   2584	000626				40$:
   2585	000626					CALL	PARERC		; ....DO COMMON STUFF
	000626	004737 	000662'			 JSR	PC,PARERC
   2586	000632					POP	R0		; ....GET THE CODE
	000632	012600 				 MOV	(SP)+,R0
   2587	000634	000300 				SWAB	R0		; ...SWAP THE BYTES
   2588	000636	042700 	177400 			BIC	#^C377,R0	; ...CLEAR JUNK
   2589	000642	006200 				ASR	R0		; ...DIVIDE BY 2
   2590	000644					CALL	.TYP3D		; ...PRINT CODE
	000644	004737 	015032'			 JSR	PC,.TYP3D
   2591	000650	012700 	000050'			MOV	#FLDMSG,R0	; ...END MESSAGE
   2592	000654					CALL	.TYMSG		; ...PRINT IT
	000654	004737 	015462'			 JSR	PC,.TYMSG
   2593	000660	000712 				BR	PARERX		; ...AND EXIT
   2594						;
   2595
   2596	000050				.PSECT	MESSAG
   2597
   2598	000050				FLDMSG:
   2599	000050	   040 	   106 	   101 		.ASCIZ	% FAILED%
	000053	   111 	   114 	   105
	000056	   104 	   000
   2600	000662				.PSECT
ERROR -- PARSER ERROR HANDLER M	MACRO M1113  03-APR-86 22:51  PAGE 61
.PARER -- SPECIAL ERROR ROUTINES 7609.24

   2602					; THIS IS THE COMMON ERROR CODE ROUTINE
   2603
   2604	000662				PARERC:
   2605	000662	012700 	000011'			MOV	#PARMSG,R0	; ...PREAMBLE
   2606	000666					CALL	.TYMSG		; ...PRINT IT
	000666	004737 	015462'			 JSR	PC,.TYMSG
   2607	000672	012700 	000133 			MOV	#'[,R0		; ...LEFT BRACKET
   2608	000676					CALL	.TYCHR		; ...PRINT IT
	000676	004737 	015520'			 JSR	PC,.TYCHR
   2609	000702	013700 	000004'			MOV	.CCMDN,R0	; ...CURRENT COMMAND NAME
   2610	000706					CALL	.TYMSG		; ...PRINT IT
	000706	004737 	015462'			 JSR	PC,.TYMSG
   2611	000712	012700 	000135 			MOV	#'],R0		; ...RIGHT BRACKET
   2612	000716					CALL	.TYCHR		; ...PRINT IT
	000716	004737 	015520'			 JSR	PC,.TYCHR
   2613	000722					CALL	.TYSPC		; ...<SPACE>
	000722	004737 	014602'			 JSR	PC,.TYSPC
   2614	000726	011100 				MOV	(R1),R0		; ...ERROR MESSAGE
   2615	000730					CALLR	.TYMSG		; ...PRINT IT AND RETURN
	000730	000137 	015462'			 JMP	.TYMSG
   2616						;
   2617	000734				PARUEC:
   2618	000734					PUSH	R0		; ...SAVE THE ERROR CODE
	000734	010046 				 MOV	R0,-(SP)
   2619	000736	012701 	001644'			MOV	#UECMSP,R1	; ...."UEC" MESSAGE POINTER TO R1
   2620	000742					CALL	PARERC		; ....DO COMMON CODE
	000742	004737 	000662'			 JSR	PC,PARERC
   2621	000746					POP	R0		; ....RESTORE THE ERROR CODE
	000746	012600 				 MOV	(SP)+,R0
   2622	000750					CALL	.TYR50		; ...PRINT IT
	000750	004737 	015772'			 JSR	PC,.TYR50
   2623	000754	000707 				BR	30$		; ...AND EXIT
   2624						;
   2625
   2626						.DSABL	LSB
   2627
   2628	001644				.PSECT	DATA
   2629
   2630	001644				UECMSP:
   2631	001644	000060'				.WORD	UECMSG
   2632
   2633	000060				.PSECT	MESSAG
   2634
   2635	000060				UECMSG:
   2636	000060	   125 	   116 	   115 		.ASCIZ	%UNMATCHED ERROR CODE "%
	000063	   101 	   124 	   103
	000066	   110 	   105 	   104
	000071	   040 	   105 	   122
	000074	   122 	   117 	   122
	000077	   040 	   103 	   117
	000102	   104 	   105 	   040
	000105	   042 	   000
   2637
   2638	000756				.PSECT
ERROR -- PARSER ERROR HANDLER M	MACRO M1113  03-APR-86 22:51  PAGE 62
.PARER -- SPECIAL ERROR ROUTINES 7609.24

   2640	000756				.SECES::
   2641	000756					CALL	PARERC		; ...DO COMMON CODE
	000756	004737 	000662'			 JSR	PC,PARERC
   2642	000762					CALL	.RDIPE		; ...READ THE ERROR BITS
	000762	004737 	006704'			 JSR	PC,.RDIPE
   2643	000766					PUSH	R0		; ....SAVE THEM
	000766	010046 				 MOV	R0,-(SP)
   2644	000770	001420 				BEQ	30$		; ....BAD NEWS IF NONE THERE
   2645	000772	012701 	001646'			MOV	#SPCEST,R1	; ....TABLE POINTER TO R1
   2646	000776				10$:
   2647	000776	032716 	000001 			BIT	#BIT00,(SP)	; ....IS THE BIT ON
   2648	001002	001407 				BEQ	20$		; ....NO -- GO ON
   2649	001004	011100 				MOV	(R1),R0		; ....YES -- SAY SO
   2650	001006					CALL	.TYMSG		; ....PRINT IT
	001006	004737 	015462'			 JSR	PC,.TYMSG
   2651	001012					CALL	.TYCOM		; ....PRINT A COMMA
	001012	004737 	014552'			 JSR	PC,.TYCOM
   2652	001016					CALL	.TYSPC		; ....AND A SPACE
	001016	004737 	014602'			 JSR	PC,.TYSPC
   2653	001022				20$:
   2654	001022	005721 				TST	(R1)+		; ....ADVANCE THE POINTER
   2655	001024	006216 				ASR	(SP)		; ....SHIFT THE ERROR BITS
   2656	001026	001363 				BNE	10$		; ....AND KEEP GOING
   2657	001030	000404 				BR	40$		; ....FINISHED -- EXIT
   2658						;
   2659	001032				30$:
   2660	001032	012700 	000122'			MOV	#NEBMSG,R0	; ....NO ERROR BIT ARE SET
   2661	001036					CALL	.TYMSG		; ....SAY SO
	001036	004737 	015462'			 JSR	PC,.TYMSG
   2662	001042				40$:
   2663	001042	005726 				TST	(SP)+		; ....FLUSH THE STACK
   2664	001044	000620 				BR	PARERX		; ...AND EXIT
   2665						;
   2666
   2667	001646				.PSECT	DATA
   2668
   2669	001646				SPCEST:
   2670	001646	000107'				.WORD	ERSMSG
   2671	001650	001573'				.WORD	DRMMSG
   2672	001652	001450'				.WORD	CRMMSG
   2673	001654	001040'				.WORD	FMMSG
   2674	001656	001607'				.WORD	FSSMSG
   2675
   2676	001046				.PSECT
ERROR -- PARSER ERROR HANDLER M	MACRO M1113  03-APR-86 22:51  PAGE 63
.PARER -- SPECIAL ERROR ROUTINES 7609.24

   2678	000107				.PSECT	MESSAG
   2679
   2680	000107				ERSMSG:
   2681	000107	   105 	   122 	   122 		.ASCIZ	%ERROR STOP%
	000112	   117 	   122 	   040
	000115	   123 	   124 	   117
	000120	   120 	   000
   2682	000122				NEBMSG:
   2683	000122	   116 	   117 	   040 		.ASCIZ	%NO ERROR STOP BITS SET%
	000125	   105 	   122 	   122
	000130	   117 	   122 	   040
	000133	   123 	   124 	   117
	000136	   120 	   040 	   102
	000141	   111 	   124 	   123
	000144	   040 	   123 	   105
	000147	   124 	   000
   2684
   2685	001046				.PSECT
ERROR -- PARSER ERROR HANDLER M	MACRO M1113  03-APR-86 22:51  PAGE 64
.PTDIE -- RECURSIVE TRAP HANDLER 7609.24

   2687					.SBTTL	.PTDIE -- RECURSIVE TRAP HANDLER 7609.24
   2688
   2689					;+
   2690					; .PTDIE -- RECURSIVE TRAP HANDLER.
   2691					;
   2692					; THIS ROUTINE HANDLES RECURSIVE TRAPS, WHICH ARE FATAL ERRORS. THE
   2693					; OTHER TRAP HANDLERS IN "PARTRP" ENABLE THIS HANDLER BY PLACING ITS
   2694					; ENTRY POINT IN THE APPROPRIATE PLACE IN THE SST VECTOR TABLE.
   2695					; ".PTDIE" WILL PRINT A MESSAGE WITH THE PC OF THE RECURSIVE TRAP AND
   2696					; EXIT TO THE SYSTEM VIA AN "IOT" TRAP. THIS ROUTINE IS ENTERED WITH
   2697					; THE TRAP PC AND PSW ON THE STACK IN THE NORMAL MANNER.
   2698					;
   2699					; ERROR CODES RETURNED:
   2700					;
   2701					;	NONE.
   2702					;-
   2703
   2704
   2705	001046				.PTDIE::
   2706	001046	005337 	000272'			DEC	.TRPIP		; ..DECREMENT THE INTERLOCK
   2707	001052	001423 				BEQ	20$		; ..KILL NOW IF RECURSIVE
   2708	001054					PUSH	R0		; ..SAVE R0
	001054	010046 				 MOV	R0,-(SP)
   2709	001056	012700 	000316'			MOV	#.SSTTB,R0	; ...TABLE POINTER TO R0
   2710	001062				10$:
   2711	001062	005020 				CLR	(R0)+		; ...CLEAR THIS ENTRY
   2712	001064	020027 	000334'			CMP	R0,#SSTTBE	; ...ARE WE DONE?
   2713	001070	003774 				BLE	10$		; ...NO -- KEEP GOING
   2714	001072					CALL	.TCRLF		; ...START THE LINE
	001072	004737 	015552'			 JSR	PC,.TCRLF
   2715	001076	012700 	000151'			MOV	#PTRTEM,R0	; ...RECURSIVE ERROR MESSAGE
   2716	001102					CALL	.TYLIN		; ...PRINT IT
	001102	004737 	015446'			 JSR	PC,.TYLIN
   2717	001106	016600 	000002 			MOV	2(SP),R0	; ...GET THE TRAP PC
   2718	001112					CALL	.TYELN		; ...TYPE THAT
	001112	004737 	014766'			 JSR	PC,.TYELN
   2719	001116					CALL	.TCRLF		; ...END THE LINE
	001116	004737 	015552'			 JSR	PC,.TCRLF
   2720	001122				20$:
   2721	001122	000004 				IOT			; ...AND GO AWAY
   2722						;
ERROR -- PARSER ERROR HANDLER M	MACRO M1113  03-APR-86 22:51  PAGE 65
.PTTRP -- "TRAP" INSTRUCTION TRAP HANDLER 7609.24

   2724					.SBTTL	.PTTRP -- "TRAP" INSTRUCTION TRAP HANDLER 7609.24
   2725
   2726					;+
   2727					; .PTTRP -- "TRAP" INSTRUCTION TRAP HANDLER.
   2728					;
   2729					; THIS ROUTINE HANDLES TRAPS FROM THE "TRAP" INSTRUCTION, WHICH IS USED
   2730					; BY THE RSX20F COMMAND PARSER TO HANDLE INTERNAL ERRORS. THE ACTION
   2731					; TAKEN BY THIS ROUTINE IS DICTATED BY THE TRAP STATUS BYTE, WHICH IS
   2732					; THE FIRST ITEM ON THE STACK UPON ENTRY. THERE ARE FOUR STATUS CODES
   2733					; WHICH ARE RETURNED IN THE TRAP STATUS BYTE:
   2734					;
   2735					; (A) "TC.CTC" -- CONTROL-C TRAP -- SAME EFFECT AS "TC.RST", EXCEPT THAT NO
   2736					;		  ERROR MESSAGE IS TYPED. THE VALUE OF "TC.CTC" IS +2.
   2737					;
   2738					; (B) "TC.RST" -- ABORT THE CURRENT PROCESS AND ATTEMPT TO RESTORE THE
   2739					;		  STATE OF THE KL. THE "ABORT$" MACRO (Q.V.) GENERATES
   2740					;		  THIS CODE. THE PREVIOUS STATE OF THE KL MAY BE
   2741					;		  RECOVERED FROM THESE ERRORS. THE VALUE OF "TC.RST" IS +1.
   2742					;
   2743					; (C) "TC.ERR" -- SIMPLY ABORT THE CURRENT PROCESS AND RETURN TO THE MAIN
   2744					;		  THE MAIN PARSER. THE "ERROR$" MACRO (Q.V.) GENERATES
   2745					;		  THIS CODE. THESE ERRORS DO NOT USUALLY AFFECT THE STATE
   2746					;		  OF THE KL. THE VALUE OF "TC.ERR" IS 0.
   2747					;
   2748					; (D) "TC.CON" -- SIMPLY REPORT THE ERROR AND CONTINUE THE PROCESS.
   2749					;		  THIS CODE IS GENERATED BY THE "ERCON$" MACRO (Q.V.)
   2750					;		  THESE ERRORS ALLOW ERROR SPECIFIC RECOVERY TO BE
   2751					;		  ATTEMPTED. THE VALUE OF "TC.CON" IS -1.
   2752					;
   2753					; THE DECISION TO RECOVER OR NOT IS MADE BASED ON THE TRAP STATUS BYTE,
   2754					; AFTER WHICH THE ERROR CODE IS PICKED UP, DECODED AND PRINTED BY ".PARER".
   2755					;
   2756					; UPON ENTRY TO THE TRAP INSTRUCTION TRAP HANDLER, THE STACK CONTAINS
   2757					; THE FOLLOWING INFORMATION:
   2758					;
   2759					;		!=======================================!
   2760					; 6(SP)==>	!	    TRAP ERROR CODE		!
   2761					;		!---------------------------------------!
   2762					; 4(SP)==>	!      TRAP PROCESSOR STATUS WORD	!
   2763					;		!---------------------------------------!
   2764					; 2(SP)==>	!	  TRAP PROGRAM COUNTER		!
   2765					;		!---------------------------------------!
   2766					; (SP)==>	!	  TRAP STATUS BYTE * 2		!
   2767					;		!=======================================!
   2768					;
   2769					; EXECUTION MAY BE RESUMED AFTER THE TRAP BY ISSUING AN "RTI" INSTRUCTION.
   2770					;
   2771					; ERROR CODES RETURNED:
   2772					;
   2773					;	RTH -- RECURSION IN TRAP HANDLER.
   2774					;	UEC -- UNMATCHED ERROR CODE.
   2775					;-
ERROR -- PARSER ERROR HANDLER M	MACRO M1113  03-APR-86 22:51  PAGE 66
.PTTRP -- "TRAP" INSTRUCTION TRAP HANDLER 7609.24

   2777	001124				.PTTRP::
   2778	001124	005037 	000262'			CLR	.SWPIP		; [5.1002]CLEAR SWEEP IN PROGRESS FLAG
   2779	001130	005337 	000272'			DEC	.TRPIP		; ....DECREMENT THE TRAP IN PROGRESS FLAG
   2780	001134	002471 				BLT	30$		; ....SECOND RECURSION -- KILL TASK
   2781	001136	011637 	000300'			MOV	(SP),.TRPSB	; ....SAVE THE TRAP STATUS BYTE
   2782	001142	016637 	000002 	000274'		MOV	2(SP),.TRPPC	; ....SAVE THE TRAP PC
   2783	001150	016637 	000004 	000276'		MOV	4(SP),.TRPPS	; ....SAVE THE TRAP PSW
   2784	001156	016637 	000006 	000270'		MOV	6(SP),.TRPEC	; ....SAVE THE TRAP ERROR CODE
   2785	001164					CALL	R5,.REGSV	; ....SAVE TRAP REGISTERS
	001164	004537 	010316'			 JSR	R5,.REGSV
   2786	001170					PUSH	R0		; ....SAVE R0 TOO
	001170	010046 				 MOV	R0,-(SP)
   2787	001172	105737 	000300'			TSTB	.TRPSB		; .....TEST THE TRAP STATUS BYTE
   2788	001176	003405 				BLE	10$		; .....DON'T TRY TO RECOVER THE KL
   2789	001200	005737 	000260'			TST	.SVKLF		; .....DID WE SAVE THE PREVIOUS STATE?
   2790	001204	001402 				BEQ	10$		; .....NO -- FORGET RECOVERY
   2791	001206					CALL	.RSTKL		; .....RESTORE THE KL
	001206	004737 	007220'			 JSR	PC,.RSTKL
   2792	001212				10$:
   2793	001212	013737 	000240'	000166'		MOV	.RDXSV,.IRADX	; .....RESET THE INPUT RADIX
   2794	001220	013737 	000240'	000226'		MOV	.RDXSV,.ORADX	; .....AND OUTPUT RADIX
   2795	001226	122737 	000004 	000300'		CMPB	#TC.CTC*2,.TRPSB; .....WAS THIS A CONTROL-C TRAP?
   2796	001234	001425 				BEQ	20$		; .....YES -- JUST RESTART THE PARSER
   2797	001236	013700 	000302'			MOV	.TRPTV,R0	; .....NO -- IS THIS A NORMAL TRAP??
   2798	001242	001406 				BEQ	15$		; .....YES -- GO ON
   2799	001244	010006 				MOV	R0,SP		; .....NO -- RESET THE STACK
   2800	001246	005237 	000272'			INC	.TRPIP		; .....RESET TRAP IN PROGRESS FLAG
   2801	001252	005037 	000302'			CLR	.TRPTV		; .....RESET THE TRAP TRAP VECTOR
   2802	001256					CALLR	@(SP)+		; .....AND GO AWAY TO OTHER ROUTINE
	001256	000136 				 JMP	@(SP)+
   2803						;
   2804	001260				15$:
   2805	001260					CALL	.TCRLF		; .....GIVE A FREE <CRLF>
	001260	004737 	015552'			 JSR	PC,.TCRLF
   2806	001264	013700 	000270'			MOV	.TRPEC,R0	; .....GET THE ERROR CODE IN R0
   2807	001270					CALL	.PARER		; .....DECODE AND PRINT THE ERROR
	001270	004737 	000432'			 JSR	PC,.PARER
   2808	001274	005737 	000272'			TST	.TRPIP		; .....IS THIS A RECURSIVE TRAP?
   2809	001300	001407 				BEQ	30$		; .....YES -- GIVE UP
   2810	001302	105737 	000300'			TSTB	.TRPSB		; .....TEST THE TRAP STATUS BYTE
   2811	001306	002413 				BLT	40$		; .....RECOVER THE ERROR
   2812	001310				20$:
   2813	001310	005237 	000272'			INC	.TRPIP		; .....RESET TRAP IN PROGRESS FLAG
   2814	001314	000177 	000254'			JMP	@.STRTV		; .....RESTART THE PARSER
   2815						;
   2816
   2817					;	[CONTINUED ON THE FOLLOWING PAGE]
ERROR -- PARSER ERROR HANDLER M	MACRO M1113  03-APR-86 22:51  PAGE 67
.PTTRP -- "TRAP" INSTRUCTION TRAP HANDLER 7609.24

   2819					;	[CONTINUED FROM THE PREVIOUS PAGE]
   2820
   2821	001320				30$:				; .....HERE ON RECURSIVE TRAP
   2822	001320	012700 	000221'			MOV	#PTRTHM,R0	; .....MESSAGE POINTER
   2823	001324					CALL	.TYLIN		; .....PRINT IT
	001324	004737 	015446'			 JSR	PC,.TYLIN
   2824	001330					CALL	.TCRLF		; .....END THE LINE
	001330	004737 	015552'			 JSR	PC,.TCRLF
   2825	001334	000004 				IOT			; .....AND GO "RIBIT"
   2826						;
   2827	001336				40$:				; .....HERE TO RECOVER THE ERROR
   2828	001336	005237 	000272'			INC	.TRPIP		; .....DECREMENT THE INTERLOCK
   2829	001342					POP	R0		; .....RESTORE R0
	001342	012600 				 MOV	(SP)+,R0
   2830	001344					CALL	@(SP)+		; ....AND THE OTHER REGISTERS
	001344	004736 				 JSR	PC,@(SP)+
   2831	001346	005726 				TST	(SP)+		; ....GET OVER THE TRAP STATUS BYTE
   2832	001350	000002 				RTI			; ...TO WHEREVER WE WERE CALLED FROM
   2833						;
   2834
   2835	000151				.PSECT	MESSAG
   2836
   2837	000151				PTRTEM:
   2838	000151	   120 	   101 	   122 		.ASCIZ	%PAR -- *FATAL* RECURSIVE TRAP FROM PC: %
	000154	   040 	   055 	   055
	000157	   040 	   052 	   106
	000162	   101 	   124 	   101
	000165	   114 	   052 	   040
	000170	   122 	   105 	   103
	000173	   125 	   122 	   123
	000176	   111 	   126 	   105
	000201	   040 	   124 	   122
	000204	   101 	   120 	   040
	000207	   106 	   122 	   117
	000212	   115 	   040 	   120
	000215	   103 	   072 	   040
	000220	   000
   2839	000221				PTRTHM:
   2840	000221	   120 	   101 	   122 		.ASCIZ	%PAR -- RTH - RECURSION IN TRAP HANDLER%
	000224	   040 	   055 	   055
	000227	   040 	   122 	   124
	000232	   110 	   040 	   055
	000235	   040 	   122 	   105
	000240	   103 	   125 	   122
	000243	   123 	   111 	   117
	000246	   116 	   040 	   111
	000251	   116 	   040 	   124
	000254	   122 	   101 	   120
	000257	   040 	   110 	   101
	000262	   116 	   104 	   114
	000265	   105 	   122 	   000
   2841
   2842	001352				.PSECT
ERROR -- PARSER ERROR HANDLER M	MACRO M1113  03-APR-86 22:51  PAGE 68
.PTOAT -- TRAP AT 4 TRAP HANDLER 7601.15

   2844					.SBTTL	.PTOAT -- TRAP AT 4 TRAP HANDLER 7601.15
   2845
   2846					;+
   2847					; .PTOAT -- TRAP AT 4 TRAP HANDLER.
   2848					;
   2849					; THIS ROUTINE HANDLES TRAP AT 4 TRAPS FOR THE RSX20F COMMAND PARSER.
   2850					; AN ERROR MESSAGE WITH THE PC OF THE TRAP AT 4 TRAP IS PRINTED ON THE
   2851					; CONSOLE AND THE CURRENT OPERATION IS ABORTED. IF THE TRAP IS RECURSIVE,
   2852					; CONTROL IS PASSED TO ".PTDIE", AS THE TASK IS HOPELESSLY CONFUSED.
   2853					;
   2854					; UPON ENTRY TO THE TRAP AT 4 TRAP HANDLER, THE STACK CONTAINS
   2855					; THE FOLLOWING INFORMATION:
   2856					;
   2857					;		!=======================================!
   2858					; 2(SP)==>	!      TRAP PROCESSOR STATUS WORD	!
   2859					;		!---------------------------------------!
   2860					; (SP)==>	!	  TRAP PROGRAM COUNTER		!
   2861					;		!=======================================!
   2862					;
   2863					; ERROR CODES RETURNED:
   2864					;
   2865					;	NONE.
   2866					;-
   2867
   2868	001352				.PTOAT::
   2869	001352					POP	.TRPPC		; ..SAVE THE TRAP PC
	001352	012637 	000274'			 MOV	(SP)+,.TRPPC
   2870	001356					POP	.TRPPS		; .AND THE TRAP PSW
	001356	012637 	000276'			 MOV	(SP)+,.TRPPS
   2871	001362					CALL	R5,.REGSV	; SAVE THE REGISTERS FROM TRAP
	001362	004537 	010316'			 JSR	R5,.REGSV
   2872	001366					PUSH	R0		; AND R0
	001366	010046 				 MOV	R0,-(SP)
   2873	001370	012737 	001046'	000316'		MOV	#.PTDIE,.SSTTB	; .SET UP TO DIE ON RECURSION
   2874	001376					CALL	.TCRLF		; .GIVE A FREE <CRLF>
	001376	004737 	015552'			 JSR	PC,.TCRLF
   2875	001402	012700 	000270'			MOV	#PTOATM,R0	; .GET THE MESSAGE POINTER
   2876	001406					CALL	.TYMSG		; .TYPE IT
	001406	004737 	015462'			 JSR	PC,.TYMSG
   2877	001412	013700 	000104'			MOV	.EDELA,R0	; .ADDRESS TO R0
   2878	001416					CALL	.TYELN		; .TYPE THAT
	001416	004737 	014766'			 JSR	PC,.TYELN
   2879	001422					CALL	.TCRLF		; .AND A CRLF
	001422	004737 	015552'			 JSR	PC,.TCRLF
   2881	001426	005737 	000066'			TST	.DBGSW		; .IS THE DEBUG SWITCH SET?
   2882	001432	001403 				BEQ	10$		; .NO -- JUST RESTART
   2883	001434					POP	R0		; .RESTORE R0
	001434	012600 				 MOV	(SP)+,R0
   2884	001436					CALL	@(SP)+		; .AND THE REGISTERS
	001436	004736 				 JSR	PC,@(SP)+
   2885	001440	000000 				HALT			; SO WE CAN LOOK
   2886	001442				10$:
   2888	001442	005037 	000316'			CLR	.SSTTB		; RESET THE TRAP VECTOR
   2889	001446	000177 	000254'			JMP	@.STRTV		; .AND START OVER
   2890						;
   2891
   2892	000270				.PSECT	MESSAG
ERROR -- PARSER ERROR HANDLER M	MACRO M1113  03-APR-86 22:51  PAGE 68-1
.PTOAT -- TRAP AT 4 TRAP HANDLER 7601.15

   2893
   2894	000270				PTOATM:
   2895	000270	   120 	   101 	   122 		.ASCIZ	%PAR -- ILLEGAL MEMORY REFERENCE TO: %
	000273	   040 	   055 	   055
	000276	   040 	   111 	   114
	000301	   114 	   105 	   107
	000304	   101 	   114 	   040
	000307	   115 	   105 	   115
	000312	   117 	   122 	   131
	000315	   040 	   122 	   105
	000320	   106 	   105 	   122
	000323	   105 	   116 	   103
	000326	   105 	   040 	   124
	000331	   117 	   072 	   040
	000334	   000
   2896
   2897	001452				.PSECT
   2898
   2899					.TITLE	FILIO -- FILE INTERFACE ROUTINES
   2900
   2901						.IDENT	"006150"
   2902
   2903					;                             COPYRIGHT (C) 1975, 1984, 1985 BY
   2904					;                     DIGITAL EQUIPMENT CORPORATION, MAYNARD MASS.
   2905					;			ALL RIGHTS RESERVED.
   2906					;       THIS SOFTWARE IS FURNISHED UNDER A LICENSE AND MAY BE  USED  AND  COPIED
   2907					;       ONLY IN ACCORDANCE WITH THE TERMS OF SUCH LICENSE AND WITH THE INCLUSION
   2908					;       OF THE ABOVE COPYRIGHT NOTICE.  THIS SOFTWARE OR ANY OTHER COPIES THERE-
   2909					;       OF  MAY NOT BE PROVIDED OR OTHERWISE MADE AVAILABLE TO ANY OTHER PERSON.
   2910					;       NO TITLE TO OR OWNERSHIP OF THE SOFTWARE IS HEREBY TRANSFERRED.
   2911					;
   2912					;       THE INFORMATION CONTAINED IN THIS SOFTWARE IS SUBJECT TO CHANGE  WITHOUT
   2913					;       NOTICE  AND SHOULD NOT BE CONSTRUED AS A COMMITMENT BY DIGITAL EQUIPMENT
   2914					;       CORPORATION.
   2915					;
   2916					;       DIGITAL ASSUMES NO RESPONSIBILITY FOR THE  USE  OR  RELIABILITY  OF  ITS
   2917					;       SOFTWARE ON EQUIPMENT WHICH IS NOT SUPPILED BY DIGITAL.
   2918					;
   2919					;		MODULE: PARSER FILE INTERFACE ROUTINES
   2920					;
   2921					;		VERSION: 06-15
   2922					;
   2923					;		AUTHOR: K. LEFEBVRE
   2924					;
   2925					;		DATE: 29-AUG-79
   2926					;
   2927					;	THIS MODULE CONTAINS:
   2928					;
   2929					;	1) FILE ACCESSING ROUTINES
   2930					;	2) FILE READ ROUTINES
   2931					;	3) FILE WRITE ROUTINES
   2932					;
   2933					;
   2934					;		THESE ROUTINES WERE ADDED FOR TCO 5.1000
   2935
   2936						.MCALL	DIR$,ALUN$,QIOW$,QIOW$S
FILIO -- FILE INTERFACE ROUTINE	MACRO M1113  03-APR-86 22:51  PAGE 69
FILE INTERFACE DATA

   2938					.SBTTL	FILE INTERFACE DATA
   2939
   2940	001660				.PSECT	DATA
   2941
   2943
   2944	001660				.INDFG::			; INDIRECT COMMAND FILE FLAG
   2945	001660	000000 				.WORD	0
   2946
   2948	001662				.FISTS::			; FILE I/O STATUS BLOCK
   2949	001662	000000 	000000 			.WORD	0,0
   2950
   2951		001000 			.BUFSZ==1000			; BUFFER SIZE
   2952
   2954
   2955	001666				.INFN::				; INDIRECT COMMAND FILE NAME
   2956	001666	000000 	000000 	000000 		.WORD	0,0,0			; FILE NAME
   2957	001674	012314 				.RAD50	/CMD/			; EXTENSION
   2958	001676	000000 				.WORD	0			; VERSION
   2959	001700	   005 	   005 			.BYTE	5,5			; OWNER
   2960	001702	054523 				.WORD	"SY			; DEVICE
   2961	001704	000000 				.WORD	0			; UNIT
   2962
   2963	001706				.INVBN::			; CURRENT VIRTUAL BLOCK NO.
   2964	001706	000000 	000000 			.WORD	0,0
   2965	001712				.INBBC::			; INPUT BUFFER BYTE COUNT
   2966	001712	000000 				.WORD	0
   2967	001714				.INPOS::			; INPUT BUFFER CURRENT POSITION
   2968	001714	000000 				.WORD	0
   2969	001716				.INBUF::			; INPUT BUFFER
   2970	001716					.BLKW	.BUFSZ/2
   2971
   2972	002716				.INFNB::			; INPUT FILE NAME BLOCK
   2973	002716	000000 	000000 	000000 		.WORD	0,0,0			; N.FID
   2974	002724	140123 	140123 	000000 		.RAD50	/005005   /		; N.FNAM
   2975	002732	015172 				.RAD50	/DIR/			; N.FTYP
   2976	002734	000000 				.WORD	0			; N.FVER
   2977	002736	000000 				.WORD	0			; N.STAT
   2978	002740	000000 				.WORD	0			; N.NEXT
   2979	002742	177777 	177777 			.WORD	-1,-1			; DIRECTORY FID
   2980	002746	   005 	   005 			.BYTE	5,5			; OWNER
   2981
   2982	002750				.INATT::			; FILE ATTRIBUTES
   2983	002750	   000 				.BYTE	0			; RECORD TYPE
   2984	002751	   000 				.BYTE	0			; RECORD ATTRIBUTES
   2985	002752	000000 				.WORD	0			; LARGEST RECORD SIZE
   2986	002754	000000 	000000 			.WORD	0,0			; HIGHEST ALLOCATED BLOCK
   2987	002760	000000 	000000 			.WORD	0,0			; HIGHEST USED BLOCK
   2988	002764	000000 				.WORD	0			; FIRST FREE BYTE
   2989
   2991
   2992	002766				.OTFN::				; LOG FILE NAME
   2993	002766	062072 	073632 	000000 		.RAD50	/PARSER   /		; FILE NAME
   2994	002774	046537 				.RAD50	/LOG/			; EXTENSION
   2995	002776	000000 				.WORD	0			; VERSION
   2996	003000	   005 	   005 			.BYTE	5,5			; OWNER
   2997	003002	054523 				.WORD	"SY			; DEVICE
   2998	003004	000000 				.WORD	0			; UNIT
FILIO -- FILE INTERFACE ROUTINE	MACRO M1113  03-APR-86 22:51  PAGE 69-1
FILE INTERFACE DATA

   2999
   3000	003006				.OTVBN::			; CURRENT VIRTUAL BLOCK NO.
   3001	003006	000000 	000000 			.WORD	0,0
   3002	003012				.OTBBC::			; OUTPUT BUFFER BYTE COUNT
   3003	003012	000000 				.WORD	0
   3004	003014				.OTPOS::			; OUTPUT BUFFER CURRENT POSITION
   3005	003014	000000 				.WORD	0
   3006	003016				.OTBUF::			; OUTPUT BUFFER
   3007	003016					.BLKW	.BUFSZ/2
   3008
   3009	004016				.OTFNB::			; OUTPUT FILE NAME BLOCK
   3010	004016	000000 	000000 	000000 		.WORD	0,0,0			; N.FID
   3011	004024	140123 	140123 	000000 		.RAD50	/005005   /		; N.FNAM
   3012	004032	015172 				.RAD50	/DIR/			; N.FTYP
   3013	004034	000000 				.WORD	0			; N.FVER
   3014	004036	000000 				.WORD	0			; N.STAT
   3015	004040	000000 				.WORD	0			; N.NEXT
   3016	004042	177777 	177777 			.WORD	-1,-1			; DIRECTORY FID
   3017	004046	   005 	   005 			.BYTE	5,5			; OWNER
   3018
   3019	004050				.OTATT::			; FILE ATTRIBUTES
   3020	004050	   000 				.BYTE	0			; RECORD TYPE
   3021	004051	   000 				.BYTE	0			; RECORD ATTRIBUTES
   3022	004052	000000 				.WORD	0			; LARGEST RECORD SIZE
   3023	004054	000000 	000000 			.WORD	0,0			; HIGHEST ALLOCATED BLOCK
   3024	004060	000000 	000000 			.WORD	0,0			; HIGHEST USED BLOCK
   3025	004064	000000 				.WORD	0			; FIRST FREE BYTE
   3026
   3027	004066				.RECNT::			; CURRENT RECORD SIZE
   3028	004066	000000 				.WORD	0
   3029	004070				.RECPT::			; CURRENT RECORD POSITION POINTER
   3030	004070	004072'				.WORD	.RECRD
   3031	004072				.RECRD::
   3032	004072					.BLKB	80.		; CURRENT RECORD
   3033
   3034	001452				.PSECT
FILIO -- FILE INTERFACE ROUTINE	MACRO M1113  03-APR-86 22:51  PAGE 70
.FNDIR -- ROUTINE TO FIND DIRECTORY FILE ID

   3036					.SBTTL	.FNDIR -- ROUTINE TO FIND DIRECTORY FILE ID
   3037
   3038					;+
   3039					;
   3040					; .FNDIR -- ROUTINE TO FIND THE [5,5] DIRECTORY FILE ID
   3041					;
   3042					; THIS ROUTINE WILL FIND THE FILE ID FOR THE [5,5] DIRECTORY IF
   3043					; IT HAS NOT ALREADY BEEN FOUND. IT WILL ALSO ASSIGN A LUN TO THE
   3044					; SYSTEM DEVICE.
   3045					;
   3046					; INPUT ARGUMENTS:
   3047					;
   3048					;	R1=FILE NAME BLOCK
   3049					;	R2=LUN
   3050					;
   3051					; OUTPUT ARGUMENTS:
   3052					;
   3053					;	NONE
   3054					;
   3055					; ERROR CODES RETURNED:
   3056					;
   3057					;	CAL -- CAN'T ASSIGN LUN
   3058					;	DNF -- DIRECTORY FILE NOT FOUND
   3059					;-
   3060
   3061	001452				.FNDIR::
   3062	001452	026127 	000024 	177777 		CMP	24(R1),#-1	; DIRECTORY FID ALREADY FOUND?
   3063	001460	001032 				BNE	10$		; YES -- EXIT
   3064	001462	010237 	000002'			MOV	R2,FNDALU	; NO -- SET UP LUN
   3065	001466					DIR$	#FNDALN		; ASSIGN LUN
	001466	012746 	000000'			MOV	#FNDALN,-(SP)
	001472	104375 				EMT	375
   3066	001474	103425 				BCS	FNDCAL		; ERROR IF CC-C IS SET
   3067	001476	010237 	000014'			MOV	R2,FNDLUN	; SET LUN
   3068	001502	010137 	000036'			MOV	R1,FNDFNB	; SET FNB
   3069	001506					DIR$	#FNDFNA		; GET FID
	001506	012746 	000010'			MOV	#FNDFNA,-(SP)
	001512	104375 				EMT	375
   3070	001514	103420 				BCS	FNDDNF		; ERROR IF CC-C IS SET
   3071	001516	105737 	001662'			TSTB	.FISTS		; DID WE REALLY SUCCEED?
   3072	001522	002415 				BLT	FNDDNF		; NO -- ERROR
   3073	001524	016161 	000000 	000024 		MOV	0(R1),24(R1)	; SAVE DIRECTORY FID
   3074	001532	016161 	000002 	000026 		MOV	2(R1),26(R1)	; SAVE DIRECTORY FID
   3075	001540	016161 	000004 	000030 		MOV	4(R1),30(R1)	; SAVE DIRECTORY FID
   3076	001546				10$:	RETURN			; DONE
	001546	000207 				 RTS	PC
   3077						;
   3078	001550				FNDCAL:
   3079	001550					ERROR$	CAL		; ERROR -- CAN'T ASSIGN LUN
	001550	012746 	011364 			 MOV	#^RCAL,-(SP)
	001554	104400 				 TRAP	TC.ERR
   3080	001556				FNDDNF:
   3081	001556					ERROR$	DNF		; ERROR -- DIRECTORY FILE NOT FOUND
	001556	012746 	015466 			 MOV	#^RDNF,-(SP)
	001562	104400 				 TRAP	TC.ERR
   3082						;
   3083
FILIO -- FILE INTERFACE ROUTINE	MACRO M1113  03-APR-86 22:51  PAGE 70-1
.FNDIR -- ROUTINE TO FIND DIRECTORY FILE ID

   3084	000000				.PSECT	DPBS
   3085
   3086	000000				FNDALN:				; ASSIGN LUN DIRECTIVE
   3087	000000					ALUN$	0,SY,0
	000000	   007 	   004 			.BYTE	7,4
	000002	000000 				.WORD	0
	000004	   123 				.ASCII	/S/
	000005	   131 				.ASCII	/Y/
	000006	000000 				.WORD	0
   3088
   3089		000002'			FNDALU=FNDALN+A.LULU
   3090
   3091	000010				FNDFNA:				; FIND FID DIRECTIVE
   3092	000010					QIOW$	IO.FNA,,E.FFIL,,.FISTS,,<,,,,,0>
	000010	   003 	   014 			.BYTE	3,$$$ARG
	000012	000000G				.WORD	IO.FNA
	000014	000000 				.WORD
	000016	   006 	   000 			.BYTE	E.FFIL,
	000020	001662'				.WORD	.FISTS
	000022	000000 				.WORD
	000024	000000 				.WORD
	000026	000000 				.WORD
	000030	000000 				.WORD
	000032	000000 				.WORD
	000034	000000 				.WORD
	000036	000000 				.WORD	0
   3093
   3094		000014'			FNDLUN=FNDFNA+Q.IOLU
   3095		000036'			FNDFNB=FNDFNA+Q.IOPL+12
   3096
   3097	001564				.PSECT
FILIO -- FILE INTERFACE ROUTINE	MACRO M1113  03-APR-86 22:51  PAGE 71
.LOKUP -- ROUTINE TO LOOK UP A FILE TO GET ITS FID

   3099					.SBTTL	.LOKUP -- ROUTINE TO LOOK UP A FILE TO GET ITS FID
   3100
   3101					;+
   3102					; .LOKUP -- ROUTINE TO LOOK UP A FILE TO GET ITS FILE ID
   3103					;
   3104					; THIS ROUTINE WILL LOOK UP A FILE TO GET ITS FILE ID SO THAT ALL
   3105					; FUTURE OPERATIONS CAN BE DONE BY FILE ID. IF THE FILE IS NOT
   3106					; FOUND THEN THE CC-C BIT IS SET AND THE ROUTINE RETURNS.
   3107					;
   3108					; INPUT ARGUMENTS:
   3109					;
   3110					;	R0=FILE NAME
   3111					;	R1=FILE NAME BLOCK
   3112					;	R2=LUN
   3113					;
   3114					; OUTPUT ARGUMENTS:
   3115					;
   3116					;	CC-C IS SET IF FILE NOT FOUND
   3117					;
   3118					; ERROR CODES RETURNED:
   3119					;
   3120					;	CAL -- CAN'T ASSIGN LUN
   3121					;	DNF -- DIRECTORY FILE NOT FOUND
   3122					;	FLF -- FILE LOOKUP FAILURE
   3123					;-
   3124
   3125						.ENABL	LSB
   3126
   3127	001564				.REMOV::
   3128	001564	012737 	000000G	000042'		MOV	#IO.RNA,LOKIOF	; REMOVE FROM DIRECTORY
   3129	001572	000403 				BR	3$		; GO ON
   3130	001574				.LOKUP::
   3131	001574	012737 	000000G	000042'		MOV	#IO.FNA,LOKIOF	; FIND DIRECTORY
   3132	001602				3$:	CALL	.FNDIR		; FIND THE DIRECTORY FID
	001602	004737 	001452'			 JSR	PC,.FNDIR
   3133	001606					CALL	.SETFN		; SET THE FILE NAME IN THE FNB
	001606	004737 	002166'			 JSR	PC,.SETFN
   3134	001612	010237 	000044'			MOV	R2,LOKLUN	; SET LUN
   3135	001616	010137 	000066'			MOV	R1,LOKFNB	; SET FNB
   3136	001622					DIR$	#LOKFNA		; GET FID
	001622	012746 	000040'			MOV	#LOKFNA,-(SP)
	001626	104375 				EMT	375
   3137	001630	103412 				BCS	LOKFLF		; ERROR IF CC-C IS SET
   3138	001632	105737 	001662'			TSTB	.FISTS		; DID WE REALLY SUCCEED?
   3139	001636	002401 				BLT	10$		; NO -- SEE WHY
   3140	001640				5$:	RETURN			; YES -- RETURN
	001640	000207 				 RTS	PC
   3141	001642	122737 	000000G	001662'	10$:	CMPB	#IE.NSF,.FISTS	; NO SUCH FILE?
   3142	001650	001002 				BNE	LOKFLF		; NO -- ERROR
   3143	001652	000261 				SEC			; YES -- SET CC-C
   3144	001654					RETURN			; DONE
	001654	000207 				 RTS	PC
   3145
   3146						.DSABL	LSB
   3147						;
   3148	001656				LOKFLF:
   3149	001656					ERROR$	FLF		; ERROR -- FILE LOOKUP FAILURE
FILIO -- FILE INTERFACE ROUTINE	MACRO M1113  03-APR-86 22:51  PAGE 71-1
.LOKUP -- ROUTINE TO LOOK UP A FILE TO GET ITS FID

	001656	012746 	023546 			 MOV	#^RFLF,-(SP)
	001662	104400 				 TRAP	TC.ERR
   3150						;
   3151
   3152	000040				.PSECT	DPBS
   3153
   3154	000040				LOKFNA:				; GET FID DIRECTIVE
   3155	000040					QIOW$	0,,E.FFIL,,.FISTS,,<,,,,,0>
	000040	   003 	   014 			.BYTE	3,$$$ARG
	000042	000000 				.WORD	0
	000044	000000 				.WORD
	000046	   006 	   000 			.BYTE	E.FFIL,
	000050	001662'				.WORD	.FISTS
	000052	000000 				.WORD
	000054	000000 				.WORD
	000056	000000 				.WORD
	000060	000000 				.WORD
	000062	000000 				.WORD
	000064	000000 				.WORD
	000066	000000 				.WORD	0
   3156
   3157		000042'			LOKIOF=LOKFNA+Q.IOFN
   3158		000044'			LOKLUN=LOKFNA+Q.IOLU
   3159		000066'			LOKFNB=LOKFNA+Q.IOPL+12
   3160
   3161	001664				.PSECT
FILIO -- FILE INTERFACE ROUTINE	MACRO M1113  03-APR-86 22:51  PAGE 72
.ENTER -- ROUTINE TO ENTER A FILE

   3163					.SBTTL	.ENTER -- ROUTINE TO ENTER A FILE
   3164
   3165					;+
   3166					; .ENTER -- ROUTINE TO ENTER A FILE INTO A DIRECTORY
   3167					;
   3168					; THIS ROUTINE WILL CREATE A FILE OF A GIVEN NAME AND THEN ENTER IT
   3169					; INTO A DIRECTORY.
   3170					;
   3171					; INPUT ARGUMENTS:
   3172					;
   3173					;	NONE
   3174					;
   3175					; OUTPUT ARGUMENTS:
   3176					;
   3177					;	NONE
   3178					;
   3179					; ERROR CODES RETURNED:
   3180					;
   3181					;	FEN -- FILE ENTER FAILURE
   3182					;-
   3183
   3184	001664				.ENTER::
   3185	001664					DIR$	#ENTCRE		; CREATE THE FILE
	001664	012746 	000070'			MOV	#ENTCRE,-(SP)
	001670	104375 				EMT	375
   3186	001672	103416 				BCS	ENTFEN		; ERROR IF CC-C IS SET
   3187	001674	105737 	001662'			TSTB	.FISTS		; DID WE REALLY SUCCEED?
   3188	001700	002413 				BLT	ENTFEN		; NO -- ERROR
   3189	001702					DIR$	#ENTENA		; YES -- ENTER THE FILE IN A DIRECTORY
	001702	012746 	000114'			MOV	#ENTENA,-(SP)
	001706	104375 				EMT	375
   3190	001710	103404 				BCS	10$		; ERROR IF CC-C IS SET
   3191	001712	105737 	001662'			TSTB	.FISTS		; DID WE REALLY SUCCEED
   3192	001716	002401 				BLT	10$		; NO -- ERROR
   3193	001720					RETURN			; RETURN
	001720	000207 				 RTS	PC
   3194	001722				10$:	DIR$	#ENTDEL		; DELETE NEW FILE
	001722	012746 	000144'			MOV	#ENTDEL,-(SP)
	001726	104375 				EMT	375
   3195						;
   3196	001730				ENTFEN:
   3197	001730					ERROR$	FEN		; ERROR -- FILE ENTER FAILURE
	001730	012746 	023126 			 MOV	#^RFEN,-(SP)
	001734	104400 				 TRAP	TC.ERR
   3198						;
   3199
   3200	000070				.PSECT	DPBS
   3201
   3202	000070				ENTCRE:				; CREATE FILE DIRECTIVE
   3203	000070					QIOW$	IO.CRE,LOGLUN,E.FFIL,,.FISTS,,<.OTFNB,,BIT15,1>
	000070	   003 	   012 			.BYTE	3,$$$ARG
	000072	000000G				.WORD	IO.CRE
	000074	000004 				.WORD	LOGLUN
	000076	   006 	   000 			.BYTE	E.FFIL,
	000100	001662'				.WORD	.FISTS
	000102	000000 				.WORD
	000104	004016'				.WORD	.OTFNB
FILIO -- FILE INTERFACE ROUTINE	MACRO M1113  03-APR-86 22:51  PAGE 72-1
.ENTER -- ROUTINE TO ENTER A FILE

	000106	000000 				.WORD
	000110	100000 				.WORD	BIT15
	000112	000001 				.WORD	1
   3204
   3205	000114				ENTENA:				; ENTER FILE DIRECTIVE
   3206	000114					QIOW$	IO.ENA,LOGLUN,E.FFIL,,.FISTS,,<,,,,,.OTFNB>
	000114	   003 	   014 			.BYTE	3,$$$ARG
	000116	000000G				.WORD	IO.ENA
	000120	000004 				.WORD	LOGLUN
	000122	   006 	   000 			.BYTE	E.FFIL,
	000124	001662'				.WORD	.FISTS
	000126	000000 				.WORD
	000130	000000 				.WORD
	000132	000000 				.WORD
	000134	000000 				.WORD
	000136	000000 				.WORD
	000140	000000 				.WORD
	000142	004016'				.WORD	.OTFNB
   3207
   3208	000144				ENTDEL:				; DELETE FILE DIRECTIVE
   3209	000144					QIOW$	IO.DEL,LOGLUN,E.FFIL
	000144	   003 	   006 			.BYTE	3,$$$ARG
	000146	000000G				.WORD	IO.DEL
	000150	000004 				.WORD	LOGLUN
	000152	   006 	   000 			.BYTE	E.FFIL,
	000154	000000 				.WORD
	000156	000000 				.WORD
   3210
   3211	001736				.PSECT
FILIO -- FILE INTERFACE ROUTINE	MACRO M1113  03-APR-86 22:51  PAGE 73
.OPEN -- ROUTINE TO OPEN A FILE

   3213					.SBTTL	.OPEN -- ROUTINE TO OPEN A FILE
   3214
   3215					;+
   3216					; .OPEN -- ROUTINE TO OPEN A FILE WITH SOME ACCESS FUNCTION
   3217					;
   3218					; THIS ROUTINE WILL OPEN A FILE WITH SOME SPECIFIED ACCESS RIGHTS.
   3219					; IT WILL ALSO READ THE FILE ATTRIBUTES.
   3220					;
   3221					; INPUT ARGUMENTS:
   3222					;
   3223					;	R1=FILE NAME BLOCK (FIRST 2 WORDS ARE FILE ID)
   3224					;	R2=LUN
   3225					;	R4=ACCESS FUNCTION
   3226					;
   3227					; OUTPUT ARGUMENTS:
   3228					;
   3229					;	NONE
   3230					;
   3231					; ERROR CODES RETURNED:
   3232					;
   3233					;	FOF -- FILE OPEN FAILURE
   3234					;-
   3235
   3236	001736				.OPEN::
   3237	001736	010437 	000162'			MOV	R4,OPEFUN	; SET FUNCTION
   3238	001742	010237 	000164'			MOV	R2,OPELUN	; SET LUN
   3239	001746	010137 	000174'			MOV	R1,OPEFID	; SET FID
   3240	001752	010137 	000210'			MOV	R1,OPEATT	; SET FILE ATTRIBUTES
   3241	001756	062737 	000032 	000210'		ADD	#32,OPEATT	; POINT TO CORRECT ADDR
   3242	001764					DIR$	#OPEACC		; OPEN THE FILE WITH SOME ACCESS
	001764	012746 	000160'			MOV	#OPEACC,-(SP)
	001770	104375 				EMT	375
   3243	001772	103401 				BCS	OPEFOF		; ERROR IF CC-C IS SET
   3244	001774					RETURN
	001774	000207 				 RTS	PC
   3245						;
   3246	001776				OPEFOF:
   3247	001776					ERROR$	FOF		; ERROR -- FILE OPEN FAILURE
	001776	012746 	023736 			 MOV	#^RFOF,-(SP)
	002002	104400 				 TRAP	TC.ERR
   3248						;
   3249
   3250	000160				.PSECT	DPBS
   3251
   3252	000160				OPEACC:				; OPEN FILE DIRECTIVE
   3253	000160					QIOW$	0,0,E.FFIL,,.FISTS,,<0,OPERAT,,,BIT15>
	000160	   003 	   013 			.BYTE	3,$$$ARG
	000162	000000 				.WORD	0
	000164	000000 				.WORD	0
	000166	   006 	   000 			.BYTE	E.FFIL,
	000170	001662'				.WORD	.FISTS
	000172	000000 				.WORD
	000174	000000 				.WORD	0
	000176	000206'				.WORD	OPERAT
	000200	000000 				.WORD
	000202	000000 				.WORD
	000204	100000 				.WORD	BIT15
FILIO -- FILE INTERFACE ROUTINE	MACRO M1113  03-APR-86 22:51  PAGE 73-1
.OPEN -- ROUTINE TO OPEN A FILE

   3254
   3255		000162'			OPEFUN=OPEACC+Q.IOFN
   3256		000164'			OPELUN=OPEACC+Q.IOLU
   3257		000174'			OPEFID=OPEACC+Q.IOPL
   3258
   3259	000206				OPERAT:
   3260	000206	   374 	   016 			.BYTE	-4,16
   3261	000210	000000 				.WORD	0
   3262	000212	   000 	   000 			.BYTE	0,0
   3263
   3264		000210'			OPEATT=OPERAT+2
   3265
   3266	002004				.PSECT
FILIO -- FILE INTERFACE ROUTINE	MACRO M1113  03-APR-86 22:51  PAGE 74
.EXTND -- ROUTINE TO EXTEND A FILE

   3268					.SBTTL	.EXTND -- ROUTINE TO EXTEND A FILE
   3269
   3270					;+
   3271					; .EXTND -- ROUTINE TO EXTEND A FILE BY ONE BLOCK
   3272					;
   3273					; THIS ROUTINE WILL EXTEND A CURRENTLY OPEN FILE WITH EXTEND ACCESS
   3274					; BY ONE BLOCK.
   3275					;
   3276					; INPUT ARGUMENTS:
   3277					;
   3278					;	NONE
   3279					;
   3280					; OUTPUT ARGUMENTS:
   3281					;
   3282					;	NONE
   3283					;
   3284					; ERROR CODES RETURNED:
   3285					;
   3286					;	FEF -- FILE EXTEND FAILURE
   3287					;-
   3288
   3289	002004				.EXTND::
   3290	002004					DIR$	#EXTEXT		; EXTEND THE FILE
	002004	012746 	000214'			MOV	#EXTEXT,-(SP)
	002010	104375 				EMT	375
   3291	002012	103411 				BCS	EXTFEF		; ERROR IF CC-C IS SET
   3292	002014	105737 	001662'			TSTB	.FISTS		; DID WE REALLY SUCCEED?
   3293	002020	002406 				BLT	EXTFEF		; NO -- ERROR
   3294	002022	062737 	000001 	004056'		ADD	#1,.OTATT+6	; INCREASE BLOCKS ALLOCATED
   3295	002030	005537 	004054'			ADC	.OTATT+4	; PROPAGATE CARRY
   3296	002034					RETURN			; DONE
	002034	000207 				 RTS	PC
   3297						;
   3298	002036				EXTFEF:
   3299	002036	013737 	003014'	004064'		MOV	.OTPOS,.OTATT+14	; SET NEXT FREE BYTE
   3300	002044	162737 	003016'	004064'		SUB	#.OTBUF,.OTATT+14	; MAKE RELATIVE
   3301	002052	012701 	004050'			MOV	#.OTATT,R1		; SET ATTRIBUTE ADDR
   3302	002056	012702 	000004 			MOV	#LOGLUN,R2		; SET LUN
   3304	002062	105037 	000206'			CLRB	.OUTLG			; INDICATE FILE CLOSED
   3306	002066					CALL	.CLOSE			; CLOSE FILE
	002066	004737 	002114'			 JSR	PC,.CLOSE
   3307	002072					ERROR$	FEF		; ERROR -- FILE EXTEND FAILURE
	002072	012746 	023116 			 MOV	#^RFEF,-(SP)
	002076	104400 				 TRAP	TC.ERR
   3308						;
   3309
   3310	000214				.PSECT	DPBS
   3311
   3312	000214				EXTEXT:				; FILE EXTEND DIRECTIVE
   3313	000214					QIOW$	IO.EXT,LOGLUN,E.FFIL,,.FISTS,,<,,BIT15,1>
	000214	   003 	   012 			.BYTE	3,$$$ARG
	000216	000000G				.WORD	IO.EXT
	000220	000004 				.WORD	LOGLUN
	000222	   006 	   000 			.BYTE	E.FFIL,
	000224	001662'				.WORD	.FISTS
	000226	000000 				.WORD
	000230	000000 				.WORD
FILIO -- FILE INTERFACE ROUTINE	MACRO M1113  03-APR-86 22:51  PAGE 74-1
.EXTND -- ROUTINE TO EXTEND A FILE

	000232	000000 				.WORD
	000234	100000 				.WORD	BIT15
	000236	000001 				.WORD	1
   3314
   3315	002100				.PSECT
FILIO -- FILE INTERFACE ROUTINE	MACRO M1113  03-APR-86 22:51  PAGE 75
.CLOSE -- ROUTINE TO CLOSE A FILE

   3317					.SBTTL	.CLOSE -- ROUTINE TO CLOSE A FILE
   3318
   3319					;+
   3320					; .CLOSE -- ROUTINE TO CLOSE A SPECIFIED FILE
   3321					;
   3322					; THIS ROUTINE WILL CLOSE AND DEACCESS A SPECIFIED FILE.
   3323					; IT WILL ALSO WRITE OUT THE CURRENT ATTRIBUTES.
   3324					;
   3325					; INPUT ARGUMENTS:
   3326					;
   3327					;	R1=ATTRIBUTE BLOCK
   3328					;	R2=LUN
   3329					;
   3330					; OUTPUT ARGUMENTS:
   3331					;
   3332					;	NONE
   3333					;
   3334					; ERROR CODES RETURNED:
   3335					;
   3336					;	FCF -- FILE CLOSE FAILURE
   3337					;-
   3338
   3339						.ENABL	LSB
   3340
   3341	002100				.DELET::
   3342	002100	012737 	000000G	000242'		MOV	#IO.DEL,CLOIOF	; I/O FUNCTION FOR DELETE
   3343	002106	005037 	000256'			CLR	CLOATR		; NO ATTRIBUTES
   3344	002112	000406 				BR	5$		; DO IT
   3345	002114				.CLOSE::
   3346	002114	012737 	000000G	000242'		MOV	#IO.DAC,CLOIOF	; I/O FUNCTION FOR DEACCESS
   3347	002122	012737 	000260'	000256'		MOV	#CLOWAT,CLOATR	; WRITE ATTRIBUTES
   3348	002130	010237 	000244'		5$:	MOV	R2,CLOLUN	; SET LUN
   3349	002134	010137 	000262'			MOV	R1,CLOATT	; SET FILE ATTRIBUTES
   3350	002140					DIR$	#CLODAC		; CLOSE FILE
	002140	012746 	000240'			MOV	#CLODAC,-(SP)
	002144	104375 				EMT	375
   3351	002146	103404 				BCS	CLOFCF		; ERROR IF CC-C IS SET
   3352	002150	105737 	001662'			TSTB	.FISTS		; DID WE REALLY SUCCEED?
   3353	002154	002401 				BLT	CLOFCF		; NO -- ERROR
   3354	002156					RETURN			; YES -- DONE
	002156	000207 				 RTS	PC
   3355						;
   3356
   3357						.DSABL	LSB
   3358
   3359	002160				CLOFCF:
   3360	002160					ERROR$	FCF		; ERROR -- FILE CLOSE FAILURE
	002160	012746 	022776 			 MOV	#^RFCF,-(SP)
	002164	104400 				 TRAP	TC.ERR
   3361						;
   3362
   3363	000240				.PSECT	DPBS
   3364
   3365	000240				CLODAC:				; FILE CLOSE DIRECTIVE
   3366	000240					QIOW$	0,0,E.FFIL,,.FISTS,,<0,0>
	000240	   003 	   010 			.BYTE	3,$$$ARG
	000242	000000 				.WORD	0
FILIO -- FILE INTERFACE ROUTINE	MACRO M1113  03-APR-86 22:51  PAGE 75-1
.CLOSE -- ROUTINE TO CLOSE A FILE

	000244	000000 				.WORD	0
	000246	   006 	   000 			.BYTE	E.FFIL,
	000250	001662'				.WORD	.FISTS
	000252	000000 				.WORD
	000254	000000 				.WORD	0
	000256	000000 				.WORD	0
   3367
   3368		000242'			CLOIOF=CLODAC+Q.IOFN
   3369		000244'			CLOLUN=CLODAC+Q.IOLU
   3370		000256'			CLOATR=CLODAC+Q.IOPL+2
   3371
   3372	000260				CLOWAT:
   3373	000260	   004 	   016 			.BYTE	4,16
   3374	000262	000000 				.WORD	0
   3375	000264	   000 	   000 			.BYTE	0,0
   3376
   3377		000262'			CLOATT=CLOWAT+2
   3378
   3379	002166				.PSECT
FILIO -- FILE INTERFACE ROUTINE	MACRO M1113  03-APR-86 22:51  PAGE 76
.SETFN -- ROUTINE TO SET A FILE NAME IN A FILE NAME BLOCK

   3381					.SBTTL	.SETFN -- ROUTINE TO SET A FILE NAME IN A FILE NAME BLOCK
   3382
   3383					;+
   3384					; .SETFN -- ROUTINE TO SET A FILE NAME IN A FILE NAME BLOCK
   3385					;
   3386					; THIS ROUTINE WILL INITIALIZE A FILE NAME BLOCK WITH A FILE NAME,
   3387					; VERSION NUMBER, AND STATUS VALUES.
   3388					;
   3389					; INPUT ARGUMENTS:
   3390					;
   3391					;	R0=FILE NAME PTR
   3392					;	R1=FILE NAME BLOCK ADDR
   3393					;
   3394					; OUTPUT ARGUMENTS:
   3395					;
   3396					;	NONE
   3397					;
   3398					; ERROR CODES RETURNED:
   3399					;
   3400					;	NONE
   3401					;-
   3402
   3403	002166				.SETFN::
   3404	002166					PUSH	<R1,R0>		; SAVE R0,R1
	002166	010146 				 MOV	R1,-(SP)
	002170	010046 				 MOV	R0,-(SP)
   3405	002172	005021 				CLR	(R1)+		; CLEAR FID
   3406	002174	005021 				CLR	(R1)+		; CLEAR FID
   3407	002176	005021 				CLR	(R1)+		; CLEAR FID
   3408	002200	012021 				MOV	(R0)+,(R1)+	; FILE NAME
   3409	002202	012021 				MOV	(R0)+,(R1)+	; FILE NAME
   3410	002204	012021 				MOV	(R0)+,(R1)+	; FILE NAME
   3411	002206	012021 				MOV	(R0)+,(R1)+	; EXTENSION
   3412	002210	012021 				MOV	(R0)+,(R1)+	; VERSION
   3413	002212	005021 				CLR	(R1)+		; STATUS
   3414	002214	005011 				CLR	(R1)		; NEXT PTR
   3415	002216					POP	<R0,R1>		; RESTORE R0,R1
	002216	012600 				 MOV	(SP)+,R0
	002220	012601 				 MOV	(SP)+,R1
   3416	002222					RETURN			; DONE
	002222	000207 				 RTS	PC
FILIO -- FILE INTERFACE ROUTINE	MACRO M1113  03-APR-86 22:51  PAGE 77
.SETFN -- ROUTINE TO SET A FILE NAME IN A FILE NAME BLOCK

   3419
   3420					.SBTTL	.READR -- ROUTINE TO READ A RECORD
   3421
   3422					;+
   3423					; .READR -- ROUTINE TO READ A RECORD FROM THE INDIRECT COMMAND FILE.
   3424					;
   3425					; THIS ROUTINE WILL GET A RECORD (EQUIVILENT TO A TYPED COMMAND) FROM
   3426					; THE CURRENTLY OPEN INDIRECT COMMAND FILE. IT WILL INVISIBLY READ
   3427					; VIRTUAL BLOCKS INORDER TO BLOCK THE RECORDS. IF AN E-O-F IS
   3428					; ENCOUNTERED THE OPEN FILE IS CLOSED AND INPUT IS REDIRECTED TO CTY.
   3429					;
   3430					; INPUT ARGUMENTS:
   3431					;
   3432					;	R2=OUTPUT BUFFER
   3433					;	R3=STATUS BLOCK
   3434					;
   3435					; OUTPUT ARGUMENTS:
   3436					;	R2 POINTS TO END OF RECORD
   3437					;	2(R3) CONTAINS BYTE COUNT OF RECORD
   3438					;
   3439					; ERROR CODES RETURNED:
   3440					;
   3441					;	FRD -- FILE READ FAILURE
   3442					;-
   3443
   3444	002224				.READR::
   3445	002224					PUSH	<R0,R1>		; SAVE R1 AND R0
	002224	010046 				 MOV	R0,-(SP)
	002226	010146 				 MOV	R1,-(SP)
   3446	002230				10$:	CALL	.READW		; READ RECORD LENGTH FROM FILE
	002230	004737 	002330'			 JSR	PC,.READW
   3447	002234	103415 				BCS	30$		; EOF IF CC-C IS SET
   3448	002236	005700 				TST	R0		; SEE IF A NULL RECORD?
   3449	002240	001773 				BEQ	10$		; YES -- READ NEXT RECORD
   3450	002242	010001 				MOV	R0,R1		; NO -- SAVE BYTE COUNT
   3451	002244	010063 	000002 			MOV	R0,2(R3)	; SET RETURNED BYTE COUNT
   3452	002250				20$:	CALL	.READB		; READ CHARACTER
	002250	004737 	002406'			 JSR	PC,.READB
   3453	002254	103405 				BCS	30$		; EOF IF CC-C IS SET
   3454	002256	110022 				MOVB	R0,(R2)+	; SAVE CHARACTER
   3455	002260	077105 				SOB	R1,20$		; DONE?
   3456	002262				25$:	POP	<R1,R0>		; YES -- RESTORE R1 AND R0
	002262	012601 				 MOV	(SP)+,R1
	002264	012600 				 MOV	(SP)+,R0
   3457	002266					RETURN			; RETURN
	002266	000207 				 RTS	PC
   3458	002270	005037 	001660'		30$:	CLR	.INDFG		; REDIRECT INPUT TO CTY
   3459	002274	012701 	002716'			MOV	#.INFNB,R1	; INPUT FILE NAME BLOCK
   3460	002300	012702 	000005 			MOV	#INDLUN,R2	; FILE LUN
   3461	002304					CALL	.CLOSE		; CLOSE FILE AND DEACCESS
	002304	004737 	002114'			 JSR	PC,.CLOSE
   3462	002310	012700 	000335'			MOV	#EOFMSG,R0	; E-O-F MESSAGE PTR
   3463	002314					CALL	.TYMSG		; OUTPUT MESSAGE
	002314	004737 	015462'			 JSR	PC,.TYMSG
   3464	002320	005063 	000002 		40$:	CLR	2(R3)		; CLEAR BYTE COUNT
   3465	002324	000261 				SEC			; SET CC-C BIT
   3466	002326	000755 				BR	25$		; DONE
FILIO -- FILE INTERFACE ROUTINE	MACRO M1113  03-APR-86 22:51  PAGE 77-1
.READR -- ROUTINE TO READ A RECORD

   3467						;
   3468
   3469	000335				.PSECT	MESSAG
   3470
   3471	000335				EOFMSG:
   3472	000335	   040 	   074 	   105 		.ASCIZ	% <EOF> %
	000340	   117 	   106 	   076
	000343	   040 	   000
   3473
   3474	002330				.PSECT
FILIO -- FILE INTERFACE ROUTINE	MACRO M1113  03-APR-86 22:51  PAGE 78
.READW -- READ A WORD FROM A FILE

   3476					.SBTTL	.READW -- READ A WORD FROM A FILE
   3477
   3478					;+
   3479					; .READW -- ROUTINE TO READ A WORD FROM A FILE
   3480					;
   3481					; THIS ROUTINE WILL READ A WORD FROM THE CURRENTLY OPEN INDIRECT
   3482					; COMMAND FILE. IF THE CURRENT BLOCK IS EMPTY IT WILL READ IN THE
   3483					; NEXT ONE. THE WORD READ MUST BE WORD ALIGNED. IF AN E-O-F IS
   3484					; ENCOUNTERED THE CC-C BIT IS SET AND THE ROUTINE RETURNS.
   3485					;
   3486					; INPUT ARGUMENTS:
   3487					;
   3488					;	NONE
   3489					;
   3490					; OUTPUT ARGUMENTS:
   3491					;
   3492					;	R0 CONTAINS WORD READ
   3493					;
   3494					; ERROR CODES RETURNED:
   3495					;
   3496					;	FRD -- FILE READ FAILURE
   3497					;-
   3498
   3499	002330				.READW::
   3500	002330	032737 	000001 	001714'		BIT	#1,.INPOS	; ARE WE ON A WORD BOUNDRY?
   3501	002336	001404 				BEQ	10$		; YES -- GO ON
   3502	002340	005237 	001714'			INC	.INPOS		; NO -- GET ON A WORD BOUNDRY
   3503	002344	005337 	001712'			DEC	.INBBC		; DECREMENT BYTE COUNT
   3504	002350	005737 	001712'		10$:	TST	.INBBC		; IS CURRENT BUFFER EMPTY?
   3505	002354	003003 				BGT	20$		; NO -- GO ON
   3506	002356					CALL	.READ		; YES -- READ NEXT BLOCK
	002356	004737 	002440'			 JSR	PC,.READ
   3507	002362	103410 				BCS	30$		; EOF IF CC-C IS SET
   3508	002364	017700 	001714'		20$:	MOV	@.INPOS,R0	; GET WORD INTO R0
   3509	002370	062737 	000002 	001714'		ADD	#2,.INPOS	; UPDATE BUFFER POSITION PTR
   3510	002376	162737 	000002 	001712'		SUB	#2,.INBBC	; UPDATE BUFFER BYTE COUNT
   3511	002404				30$:	RETURN			; DONE
	002404	000207 				 RTS	PC
FILIO -- FILE INTERFACE ROUTINE	MACRO M1113  03-APR-86 22:51  PAGE 79
.READB -- READ A BYTE FROM A FILE

   3513					.SBTTL	.READB -- READ A BYTE FROM A FILE
   3514
   3515					;+
   3516					; .READB -- ROUTINE TO READ A BYTE FROM A FILE
   3517					;
   3518					; THIS ROUTINE WILL READ A BYTE FROM THE CURRENTLY OPEN INDIRECT
   3519					; COMMAND FILE. IF THE CURRENT BLOCK IS EMPTY IT WILL READ IN THE
   3520					; NEXT ONE. IF AN E-O-F IS ENCOUNTERED THE CC-C BIT IS SET AND THE
   3521					; ROUTINE RETURNS.
   3522					;
   3523					; INPUT ARGUMENTS:
   3524					;
   3525					;	NONE
   3526					;
   3527					; OUTPUT ARGUMENTS:
   3528					;
   3529					;	R0 CONTAINS BYTE READ
   3530					;
   3531					; ERROR CODES RETURNED:
   3532					;
   3533					;	FRD -- FILE READ FAILURE
   3534					;-
   3535
   3536	002406				.READB::
   3537	002406	005737 	001712'			TST	.INBBC		; IS CURRENT BUFFER EMPTY?
   3538	002412	003003 				BGT	10$		; NO -- GO ON
   3539	002414					CALL	.READ		; YES -- READ NEXT BLOCK
	002414	004737 	002440'			 JSR	PC,.READ
   3540	002420	103406 				BCS	20$		; EOF IF CC-C IS SET
   3541	002422	117700 	001714'		10$:	MOVB	@.INPOS,R0	; GET WORD INTO R0
   3542	002426	005237 	001714'			INC	.INPOS		; UPDATE BUFFER POSITION PTR
   3543	002432	005337 	001712'			DEC	.INBBC		; UPDATE BUFFER BYTE COUNT
   3544	002436				20$:	RETURN			; DONE
	002436	000207 				 RTS	PC
FILIO -- FILE INTERFACE ROUTINE	MACRO M1113  03-APR-86 22:51  PAGE 80
.READ -- ROUTINE TO READ A BLOCK

   3546					.SBTTL	.READ -- ROUTINE TO READ A BLOCK
   3547
   3548					;+
   3549					; .READ -- ROUTINE TO READ A BLOCK FROM INDIRECT COMMAND FILE
   3550					;
   3551					; THIS ROUTINE WILL READ A BLOCK FROM THE CURRENTLY OPEN INDIRECT
   3552					; COMMAND FILE. THE BUFFER COUNTS AND POINTERS WILL THEN BE SET.
   3553					; IF AN E-O-F IS ENCOUNTERED THE CC-C BIT IS SET AND THE ROUTINE
   3554					; RETURNS.
   3555					;
   3556					; INPUT ARGUMENTS:
   3557					;
   3558					;	NONE
   3559					;
   3560					; OUTPUT ARGUMENTS:
   3561					;
   3562					;	NONE
   3563					;
   3564					; ERROR CODES RETURNED:
   3565					;
   3566					;	FRD -- FILE READ FAILURE
   3567					;-
   3568
   3569	002440				.READ::
   3570	002440	062737 	000001 	001710'		ADD	#1,.INVBN+2	; NEXT VIRTUAL BLOCK
   3571	002446	005537 	001706'			ADC	.INVBN		; PROPAGATE CARRY
   3572	002452	023737 	001710'	002762'		CMP	.INVBN+2,.INATT+12	; EOF?
   3573	002460	003041 				BGT	10$		; YES -- EXIT
   3574	002462					QIOW$S	#IO.RVB,#INDLUN,#E.FFIL,,#.FISTS,,<#.INBUF,#.BUFSZ,,.INVBN,.INVBN+2>
	002462	013746 	001710'			MOV	.INVBN+2,-(SP)
	002466	013746 	001706'			MOV	.INVBN,-(SP)
	002472	005046 				CLR	-(SP)
	002474	012746 	001000 			MOV	#.BUFSZ,-(SP)
	002500	012746 	001716'			MOV	#.INBUF,-(SP)
	002504	005046 				CLR	-(SP)
	002506	012746 	001662'			MOV	#.FISTS,-(SP)
	002512	005046 				CLR	-(SP)
	002514	112716 	000006 			MOVB	#E.FFIL,(SP)
	002520	012746 	000005 			MOV	#INDLUN,-(SP)
	002524	012746 	000000G			MOV	#IO.RVB,-(SP)
	002530	012746 				MOV	(PC)+,-(SP)
	002532	   003 	   013 			.BYTE	3,$$$T1
	002534	104375 				EMT	375
   3575	002536	103414 				BCS	REAFRD		; ERROR IF CC-C IS SET
   3576	002540	105737 	001662'			TSTB	.FISTS		; SEE IF WE REALLY SUCCEEDED?
   3577	002544	002411 				BLT	REAFRD		; NO -- CHECK ERROR
   3578	002546	012737 	001716'	001714'		MOV	#.INBUF,.INPOS	; YES -- SET BUFFER POSITION PTR
   3579	002554	013737 	001664'	001712'		MOV	.FISTS+2,.INBBC	; SET BUFFER BYTE COUNT
   3580	002562					RETURN			; DONE
	002562	000207 				 RTS	PC
   3581	002564	000261 			10$:	SEC			; YES -- SET CC-C
   3582	002566					RETURN			; DONE
	002566	000207 				 RTS	PC
   3583						;
   3584	002570				REAFRD:
   3585	002570	012701 	002750'			MOV	#.INATT,R1	; SET ATTRIBUTE ADDR
   3586	002574	012702 	000005 			MOV	#INDLUN,R2	; SET LUN
FILIO -- FILE INTERFACE ROUTINE	MACRO M1113  03-APR-86 22:51  PAGE 80-1
.READ -- ROUTINE TO READ A BLOCK

   3587	002600	005037 	001660'			CLR	.INDFG		; INDICATE FILE CLOSED
   3588	002604					CALL	.CLOSE		; CLOSE FILE
	002604	004737 	002114'			 JSR	PC,.CLOSE
   3589	002610				20$:	ERROR$	FRD		; ERROR -- FILE READ FAILURE
	002610	012746 	024124 			 MOV	#^RFRD,-(SP)
	002614	104400 				 TRAP	TC.ERR
   3590						;
   3591
FILIO -- FILE INTERFACE ROUTINE	MACRO M1113  03-APR-86 22:51  PAGE 81
.WRITR -- ROUTINE TO WRITE A RECORD

   3594					.SBTTL	.WRITR -- ROUTINE TO WRITE A RECORD
   3595
   3596					;+
   3597					; .WRITR -- ROUTINE TO WRITE A RECORD TO THE LOG FILE
   3598					;
   3599					; THIS ROUTINE WILL WRITE A RECORD TO THE FILE PARSER.LOG WHEN
   3600					; OUTPUT IS DIRECTED TO THE LOG FILE.
   3601					;
   3602					; INPUT ARGUMENTS:
   3603					;
   3604					;	R2=RECORD PTR
   3605					;	R1=BYTE COUNT
   3606					;
   3607					; OUTPUT ARGUMENTS:
   3608					;
   3609					;	NONE
   3610					;
   3611					; ERROR CODES RETURNED:
   3612					;
   3613					;	FEF -- FILE EXTEND FAILURE
   3614					;	FWT -- FILE WRITE FAILURE
   3615					;-
   3616
   3617	002616				.WRITR::
   3618	002616					PUSH	R0		; SAVE R0
	002616	010046 				 MOV	R0,-(SP)
   3619	002620	121227 	000012 		5$:	CMPB	(R2),#12	; CHARACTER A <LF>?
   3620	002624	001414 				BEQ	7$		; YES -- WRITE OUT RECORD
   3621	002626	121227 	000015 			CMPB	(R2),#15	; NO -- CHARACTER A <CR>?
   3622	002632	001444 				BEQ	40$		; YES -- PROCESS IT
   3623	002634	112277 	004070'			MOVB	(R2)+,@.RECPT	; NO -- WRITE CHAR TO RECORD
   3624	002640	005237 	004070'			INC	.RECPT		; UPDATE POINTER
   3625	002644	005237 	004066'			INC	.RECNT		; INCREMENT COUNT
   3626	002650	077115 				SOB	R1,5$		; DONE?
   3627	002652				6$:	POP	R0		; YES -- RESTORE R0
	002652	012600 				 MOV	(SP)+,R0
   3628	002654					RETURN			; EXIT
	002654	000207 				 RTS	PC
   3629	002656				7$:	PUSH	<R2,R1>		; SAVE R2,R1
	002656	010246 				 MOV	R2,-(SP)
	002660	010146 				 MOV	R1,-(SP)
   3630	002662	012702 	004072'			MOV	#.RECRD,R2	; R2 POINTS TO RECORD
   3631	002666	013701 	004066'			MOV	.RECNT,R1	; R1 HAS RECORD COUNT
   3632	002672	020137 	004052'			CMP	R1,.OTATT+2	; IS THIS THE BIGGEST RECORD?
   3633	002676	101402 				BLOS	10$		; NO -- GO ON
   3634	002700	010137 	004052'			MOV	R1,.OTATT+2	; YES -- SAVE IT
   3635	002704	010100 			10$:	MOV	R1,R0		; WRITE OUT RECORD BYTE COUNT
   3636	002706					CALL	.WRITW		; WRITE IT
	002706	004737 	002754'			 JSR	PC,.WRITW
   3637	002712	005701 				TST	R1		; IS THIS A NULL RECORD?
   3638	002714	001404 				BEQ	30$		; YES -- DONE
   3639	002716	112200 			20$:	MOVB	(R2)+,R0	; NO -- GET NEXT BYTE OF RECORD
   3640	002720					CALL	.WRITB		; WRITE IT
	002720	004737 	003030'			 JSR	PC,.WRITB
   3641	002724	077104 				SOB	R1,20$		; ALL BYTES WRITTEN?
   3642	002726				30$:	POP	<R1,R2>		; YES -- RESTORE R2,R1
	002726	012601 				 MOV	(SP)+,R1
FILIO -- FILE INTERFACE ROUTINE	MACRO M1113  03-APR-86 22:51  PAGE 81-1
.WRITR -- ROUTINE TO WRITE A RECORD

	002730	012602 				 MOV	(SP)+,R2
   3643	002732	012737 	004072'	004070'		MOV	#.RECRD,.RECPT	; RESET RECORD POINTER
   3644	002740	005037 	004066'			CLR	.RECNT		; CLEAR RECORD COUNT
   3645	002744	105722 			40$:	TSTB	(R2)+		; REMOVE NEW LINE CHARACTER
   3646	002746	005301 				DEC	R1		; REMOVE FROM COUNT
   3647	002750	001323 				BNE	5$		; NO -- GO ON
   3648	002752	000737 				BR	6$		; YES -- EXIT
FILIO -- FILE INTERFACE ROUTINE	MACRO M1113  03-APR-86 22:51  PAGE 82
.WRITW -- WRITE A WORD TO A FILE

   3650					.SBTTL	.WRITW -- WRITE A WORD TO A FILE
   3651
   3652					;+
   3653					; .WRITW -- ROUTINE TO WRITE A WORD TO A FILE
   3654					;
   3655					; THIS ROUTINE WILL WRITE A WORD TO A CURRENTLY OPEN FILE. IF THE
   3656					; CURRENT BLOCK IS FULL THEN THE BLOCK WILL BE WRITTEN TO DISK AND
   3657					; THE WORD WILL BE WRITTEN TO THE NEW BLOCK.
   3658					;
   3659					; INPUT ARGUMENTS:
   3660					;
   3661					;	R0=WORD TO WRITE
   3662					;
   3663					; OUTPUT ARGUMENTS:
   3664					;
   3665					;	NONE
   3666					;
   3667					; ERROR CODES RETURNED:
   3668					;
   3669					;	FEF -- FILE EXTEND FAILURE
   3670					;	FWT -- FILE WRITE FAILURE
   3671					;-
   3672
   3673	002754				.WRITW::
   3674	002754	032737 	000001 	003014'		BIT	#1,.OTPOS	; ARE WE ON A WORD BOUNDRY?
   3675	002762	001404 				BEQ	10$		; YES -- GO ON
   3676	002764	005237 	003014'			INC	.OTPOS		; NO -- POSITION TO WORD BOUNDRY
   3677	002770	005337 	003012'			DEC	.OTBBC		; DECREMENT FREE BYTE COUNT
   3678	002774	005737 	003012'		10$:	TST	.OTBBC		; BLOCK FULL?
   3679	003000	003002 				BGT	20$		; NO -- GO ON
   3680	003002					CALL	.WRITE		; YES -- WRITE OUT BLOCK
	003002	004737 	003160'			 JSR	PC,.WRITE
   3681	003006	010077 	003014'		20$:	MOV	R0,@.OTPOS	; WRITE WORD TO BUFFER
   3682	003012	062737 	000002 	003014'		ADD	#2,.OTPOS	; UPDATE BUFFER POINTER
   3683	003020	162737 	000002 	003012'		SUB	#2,.OTBBC	; UPDATE BYTE COUNT
   3684	003026					RETURN			; DONE
	003026	000207 				 RTS	PC
FILIO -- FILE INTERFACE ROUTINE	MACRO M1113  03-APR-86 22:51  PAGE 83
.WRITB -- WRITE A BYTE TO A FILE

   3686					.SBTTL	.WRITB -- WRITE A BYTE TO A FILE
   3687
   3688					;+
   3689					; .WRITB -- ROUTINE TO WRITE A BYTE TO A FILE
   3690					;
   3691					; THIS ROUTINE WILL WRITE A BYTE TO A BUFFER THAT WILL THEN BE WRITTEN
   3692					; TO DISK WHEN IT IS FULL.
   3693					;
   3694					; INPUT ARGUMENTS:
   3695					;
   3696					;	R0=BYTE TO WRITE
   3697					;
   3698					; OUTPUT ARGUMENTS:
   3699					;
   3700					;	NONE
   3701					;
   3702					; ERROR CODES RETURNED:
   3703					;
   3704					;	FEF -- FILE EXTEND FAILURE
   3705					;	FWT -- FILE WRITE FAILURE
   3706					;-
   3707
   3708	003030				.WRITB::
   3709	003030	005737 	003012'			TST	.OTBBC		; BUFFER FULL?
   3710	003034	003002 				BGT	10$		; NO -- GO ON
   3711	003036					CALL	.WRITE		; YES -- WRITE OUT BLOCK
	003036	004737 	003160'			 JSR	PC,.WRITE
   3712	003042	110077 	003014'		10$:	MOVB	R0,@.OTPOS	; WRITE BYE TO BUFFER
   3713	003046	005237 	003014'			INC	.OTPOS		; UPDATE POSITION
   3714	003052	005337 	003012'			DEC	.OTBBC		; UPDATE BYTE COUNT
   3715	003056					RETURN			; DONE
	003056	000207 				 RTS	PC
FILIO -- FILE INTERFACE ROUTINE	MACRO M1113  03-APR-86 22:51  PAGE 84
.WRITZ -- WRITE OUT CURRENT BLOCK

   3717					.SBTTL	.WRITZ -- WRITE OUT CURRENT BLOCK
   3718
   3719					;+
   3720					; .WRITZ -- ROUTINE TO WRITE OUT CURRENT BUFFER
   3721					;
   3722					; THIS ROUTINE WILL WRITE OUT THE CURRENT BUFFER TO THE DISK FILE.
   3723					; IF THE BUFFER IS NOT FULL THE THE EXCESS SPACE IS ZEROED.
   3724					;
   3725					; INPUT ARGUMENTS:
   3726					;
   3727					;	NONE
   3728					;
   3729					; OUTPUT ARGUMENTS:
   3730					;
   3731					;	NONE
   3732					;
   3733					; ERROR CODES RETURNED:
   3734					;
   3735					;	FEF -- FILE EXTEND FAILURE
   3736					;	FWT -- FILE WRITE FAILURE
   3737					;-
   3738
   3739	003060				.WRITZ::
   3740	003060	013737 	003014'	004064'		MOV	.OTPOS,.OTATT+14	; NEXT FREE BYTE
   3741	003066	162737 	003016'	004064'		SUB	#.OTBUF,.OTATT+14	; MAKE RELATIVE ADDR
   3742	003074	023727 	003012'	000002 		CMP	.OTBBC,#2	; MORE THAN 1 BYTE LEFT?
   3743	003102	002413 				BLT	10$		; NO -- JUST ZERO BUFFER
   3744	003104	013700 	003012'			MOV	.OTBBC,R0	; YES -- WRITE ZERO RECORD
   3745	003110	032737 	000001 	003014'		BIT	#1,.OTPOS	; ON WORD BOUNDRY?
   3746	003116	001401 				BEQ	5$		; YES -- GO ON
   3747	003120	005300 				DEC	R0		; NO -- DECREMENT COUNT
   3748	003122	162700 	000002 		5$:	SUB	#2,R0		; DISCOUNT RECORD COUNT FIELD
   3749	003126					CALL	.WRITW		; WRITE COUNT
	003126	004737 	002754'			 JSR	PC,.WRITW
   3750	003132	005737 	003012'		10$:	TST	.OTBBC		; BUFFER FULL?
   3751	003136	001405 				BEQ	20$		; YES -- DONE
   3752	003140	112700 	000000 			MOVB	#0,R0		; WRITE OUT ZEROS
   3753	003144				12$:	CALL	.WRITB		; NO -- FILL BUFFER
	003144	004737 	003030'			 JSR	PC,.WRITB
   3754	003150	000770 				BR	10$		; NEXT
   3755	003152				20$:	CALL	.WRITE		; WRITE OUT BUFFER
	003152	004737 	003160'			 JSR	PC,.WRITE
   3756	003156					RETURN			; DONE
	003156	000207 				 RTS	PC
FILIO -- FILE INTERFACE ROUTINE	MACRO M1113  03-APR-86 22:51  PAGE 85
.WRITE -- ROUTINE TO WRITE A BLOCK

   3758					.SBTTL	.WRITE -- ROUTINE TO WRITE A BLOCK
   3759
   3760					;+
   3761					; .WRITE -- ROUTINE TO WRITE A BLOCK TO A FILE
   3762					;
   3763					; THIS ROUTINE WILL WRITE A BLOCK TO A CURRENTLY OPEN FILE ON DISK.
   3764					; IF THE FILE SPACE IS FULL THE FILE WILL BE EXTENDED.
   3765					;
   3766					; INPUT ARGUMENTS:
   3767					;
   3768					;	NONE
   3769					;
   3770					; OUTPUT ARGUMENTS:
   3771					;
   3772					;	NONE
   3773					;
   3774					; ERROR CODES RETURNED:
   3775					;
   3776					;	FEF -- FILE EXTEND FAILURE
   3777					;	FWT -- FILE WRITE FAILURE
   3778					;-
   3779
   3780	003160				.WRITE::
   3781	003160	062737 	000001 	003010'		ADD	#1,.OTVBN+2	; NEXT VIRTUAL BLOCK
   3782	003166	005537 	003006'			ADC	.OTVBN		; PROPAGATE CARRY
   3783	003172				10$:	QIOW$S	#IO.WVB,#LOGLUN,#E.FFIL,,#.FISTS,,<#.OTBUF,#.BUFSZ,,.OTVBN,.OTVBN+2>
	003172	013746 	003010'			MOV	.OTVBN+2,-(SP)
	003176	013746 	003006'			MOV	.OTVBN,-(SP)
	003202	005046 				CLR	-(SP)
	003204	012746 	001000 			MOV	#.BUFSZ,-(SP)
	003210	012746 	003016'			MOV	#.OTBUF,-(SP)
	003214	005046 				CLR	-(SP)
	003216	012746 	001662'			MOV	#.FISTS,-(SP)
	003222	005046 				CLR	-(SP)
	003224	112716 	000006 			MOVB	#E.FFIL,(SP)
	003230	012746 	000004 			MOV	#LOGLUN,-(SP)
	003234	012746 	000000G			MOV	#IO.WVB,-(SP)
	003240	012746 				MOV	(PC)+,-(SP)
	003242	   003 	   013 			.BYTE	3,$$$T1
	003244	104375 				EMT	375
   3784	003246	103427 				BCS	WRIFWT		; ERROR IF CC-C IS SET
   3785	003250	105737 	001662'			TSTB	.FISTS		; DID WE REALLY SUCCEED?
   3786	003254	002415 				BLT	20$		; NO -- SEE WHY
   3787	003256	013737 	003010'	004062'		MOV	.OTVBN+2,.OTATT+12	; SET HIGHEST USED BLOCK
   3788	003264	013737 	003006'	004060'		MOV	.OTVBN,.OTATT+10	; SET HIGHEST USED BLOCK
   3789	003272	012737 	003016'	003014'		MOV	#.OTBUF,.OTPOS	; YES -- SET BUFFER POINTER
   3790	003300	012737 	001000 	003012'		MOV	#.BUFSZ,.OTBBC	; SET BYTE COUNT
   3791	003306					RETURN			; DONE
	003306	000207 				 RTS	PC
   3792	003310	122737 	000000G	001662'	20$:	CMPB	#IE.EOF,.FISTS	; E-O-F FOUND?
   3793	003316	001003 				BNE	WRIFWT		; NO -- ERROR
   3794	003320					CALL	.EXTND		; YES -- EXTEND FILE
	003320	004737 	002004'			 JSR	PC,.EXTND
   3795	003324	000722 				BR	10$		; TRY AGAIN
   3796						;
   3797	003326				WRIFWT:
   3798	003326					ERROR$	FWT		; ERROR -- FILE WRITE FAILURE
FILIO -- FILE INTERFACE ROUTINE	MACRO M1113  03-APR-86 22:51  PAGE 85-1
.WRITE -- ROUTINE TO WRITE A BLOCK

	003326	012746 	024454 			 MOV	#^RFWT,-(SP)
	003332	104400 				 TRAP	TC.ERR
   3799						;
FILIO -- FILE INTERFACE ROUTINE	MACRO M1113  03-APR-86 22:51  PAGE 87
.WRITE -- ROUTINE TO WRITE A BLOCK

   3802
   3803					.TITLE	KL10F -- KL10 FUNCTION MODULE  7812.21
   3804
   3805						.IDENT	"007050"
   3806
   3807					;
   3808					;                             COPYRIGHT (C) 1975, 1984 BY
   3809					;                     DIGITAL EQUIPMENT CORPORATION, MAYNARD MASS.
   3810					;
   3811					;       THIS SOFTWARE IS FURNISHED UNDER A LICENSE AND MAY BE  USED  AND  COPIED
   3812					;       ONLY IN ACCORDANCE WITH THE TERMS OF SUCH LICENSE AND WITH THE INCLUSION
   3813					;       OF THE ABOVE COPYRIGHT NOTICE.  THIS SOFTWARE OR ANY OTHER COPIES THERE-
   3814					;       OF  MAY NOT BE PROVIDED OR OTHERWISE MADE AVAILABLE TO ANY OTHER PERSON.
   3815					;       NO TITLE TO OR OWNERSHIP OF THE SOFTWARE IS HEREBY TRANSFERRED.
   3816					;
   3817					;       THE INFORMATION CONTAINED IN THIS SOFTWARE IS SUBJECT TO CHANGE  WITHOUT
   3818					;       NOTICE  AND SHOULD NOT BE CONSTRUED AS A COMMITMENT BY DIGITAL EQUIPMENT
   3819					;       CORPORATION.
   3820					;
   3821					;       DIGITAL ASSUMES NO RESPONSIBILITY FOR THE  USE  OR  RELIABILITY  OF  ITS
   3822					;       SOFTWARE ON EQUIPMENT WHICH IS NOT SUPPILED BY DIGITAL.
   3823					;
   3824					;		MODULE: KL10 FUNCTIONS
   3825					;
   3826					;		VERSION: 07-05
   3827					;
   3828					;		AUTHOR: R. BELANGER
   3829					;
   3830					;		DATE: 7812.21
   3831					;
   3832					;	THIS MODULE CONTAINS:
   3833					;
   3834					;	1) KL MBOX CLOCK BURST CODE
   3835
   3836						.MCALL	$DEF,DIR$,MRKT$,PREX$,PRDP$,KLDR$,KLDW$,KLDX$,WTSE$S
   3837
   3838	003334					$DEF
KL10F -- KL10 FUNCTION MODULE  	MACRO M1113  03-APR-86 22:51  PAGE 88
.BURST -- MBOX CLOCK BURST SUBROUTINE 7601.02

   3840					.SBTTL	.BURST -- MBOX CLOCK BURST SUBROUTINE 7601.02
   3841
   3842					;+
   3843					; .BRMBC -- SUBROUTINE TO STOP THE KL CLOCK AND BURST THE MBOX
   3844					;	    CLOCK AS IN ".BURST".
   3845					; .BURST -- SUBROUTINE TO BURST THE KL MBOX CLOCK
   3846					;	    A MAXIMUM OF 255 DECIMAL TICKS PER CALL.
   3847					;
   3848					; THIS SUBROUTINE LOADS THE KL BURST COUNT REGISTER
   3849					; AND RUNS THE MBOX CLOCK FROM THE BURST COUNT REGISTER. IT WILL
   3850					; FAIL IF A BURST COUNT .GT. 255 DECIMAL IS REQUESTED IN ONE CALL.
   3851					;
   3852					; INPUT ARGUMENTS:
   3853					;
   3854					;	R0 CONTAINS THE BURST COUNT
   3855					;
   3856					; OUTPUT ARGUMENTS:
   3857					;
   3858					;	NONE.
   3859					;
   3860					; ERROR CODES RETURNED:
   3861					;
   3862					;	BAE -- BURST ARGUMENT ERROR.
   3863					;	FWF -- FUNCTION WRITE FAILED.
   3864					;	FXF -- FUNCTION EXECUTE FAILED.
   3865					;-
   3866
   3867	003334				.BRMBC::
   3868	003334					CALL	.STPXC		; STOP THE KL CLOCK
	003334	004737 	007316'			 JSR	PC,.STPXC
   3869	003340				.BURST::
   3870	003340	022700 	000377 			CMP	#^D255,R0	; IS ARGUMENT .GT. 255 DECIMAL?
   3871	003344	103406 				BLO	BCCTER		; YES -- ERROR
   3872	003346					CALL	.LDBRG		; NO -- LOAD THE BURST COUNTER
	003346	004737 	005472'			 JSR	PC,.LDBRG
   3873	003352	012700 	000012 			MOV	#FX.BMC,R0	; SET UP TO BURST THE MBOX CLOCK
   3874	003356					CALLR	.FXCT		; DO IT
	003356	000137 	004566'			 JMP	.FXCT
   3875						;
   3876	003362				BCCTER:
   3877	003362					ERROR$	BAE		; ERROR -- ARGUMENT OUT OF RANGE
	003362	012746 	006255 			 MOV	#^RBAE,-(SP)
	003366	104400 				 TRAP	TC.ERR
   3878						;
KL10F -- KL10 FUNCTION MODULE  	MACRO M1113  03-APR-86 22:51  PAGE 89
.CLDFB -- DTE-20 OPERATION BUFFER CLEAR SUBROUTINE 7508.26

   3880					.SBTTL	.CLDFB -- DTE-20 OPERATION BUFFER CLEAR SUBROUTINE 7508.26
   3881
   3882					;+
   3883					; .CLDFB -- SUBROUTINE TO CLEAR THE DTE-20 TRANSFER BUFFERS
   3884					; .CLDFR -- SUBROUTINE TO CLEAR THE DTE-20 READ BUFFER
   3885					; .CLDFW -- SUBROUTINE TO CLEAR THE DTE-20 WRITE BUFFER
   3886					;
   3887					; THE SUBROUTINES CLEAR THE INDICATED BUFFERS
   3888					;
   3889					; INPUT ARGUMENTS:
   3890					;
   3891					;	NONE.
   3892					;
   3893					; OUTPUT ARGUMENTS:
   3894					;
   3895					;	NONE.
   3896					;
   3897					; ERROR CODES RETURNED:
   3898					;
   3899					;	NONE.
   3900					;-
   3901
   3902						.ENABL	LSB
   3903
   3904	003370				.CLDFB::
   3905	003370					CALL	.CLDFW		; CLEAR THE WRITE HALF OF THE BUFFER
	003370	004737 	003404'			 JSR	PC,.CLDFW
   3906	003374				.CLDFR::
   3907	003374					PUSH	R0		; SAVE R0
	003374	010046 				 MOV	R0,-(SP)
   3908	003376	012700 	000344'			MOV	#.DFRB,R0	; .CLEAR THE FUNCTION READ BUFFER
   3909	003402	000403 				BR	10$		; .
   3910						;
   3911	003404				.CLDFW::
   3912	003404					PUSH	R0		; SAVE R0
	003404	010046 				 MOV	R0,-(SP)
   3913	003406	012700 	000336'			MOV	#.DFWB,R0	; .CLEAR THE FUNCTION WRITE BUFFER
   3914	003412				10$:
   3915	003412					CALL	.TPCLR		; .CLEAR THE BUFFER
	003412	004737 	011372'			 JSR	PC,.TPCLR
   3916	003416	000414 				BR	20$		; .RESTORE R0 AND EXIT
   3917						;
KL10F -- KL10 FUNCTION MODULE  	MACRO M1113  03-APR-86 22:51  PAGE 90
.CLRFF -- CLEAR KL RUN FLOP SUBROUTINE 7609.10

   3919					.SBTTL	.CLRFF -- CLEAR KL RUN FLOP SUBROUTINE 7609.10
   3920
   3921					;+
   3922					; .CLRFF -- SUBROUTINE TO CLEAR THE KL RUN FLOP.
   3923					;
   3924					; THIS SUBROUTINE CLEARS THE KL RUN FLOP AND ISSUES A
   3925					; "MARK TIME" DIRECTIVE FOR THE CLOCK SHUTDOWN IN ".KLHLT".
   3926					;
   3927					; INPUT ARGUMENTS:
   3928					;
   3929					;	NONE.
   3930					;
   3931					; OUTPUT ARGUMENTS:
   3932					;
   3933					;	NONE
   3934					;
   3935					; ERROR CODES RETURNED:
   3936					;
   3937					;	FXF -- FUNCTION EXECUTE FAILED.
   3938					;-
   3939
   3940	003420				.CLRFF::
   3941	003420	000241 				CLC			; CLEAR CC-C
   3943	003422					DIR$	#.MTDPB		; REQUEST MARK TIME (FOR ".KLHLT")
	003422	012746 	000266'			MOV	#.MTDPB,-(SP)
	003426	104375 				EMT	375
   3945	003430					PUSH	R0		; SAVE R0
	003430	010046 				 MOV	R0,-(SP)
   3946	003432	112737 	000001 	000000G		MOVB	#1,.NOHLT	; TELL RSX20F NOT TO WORRY ABOUT THIS
   3947	003440	012700 	000020 			MOV	#FX.CRF,R0	; .SET UP TO CLEAR KL RUN FLOP
   3948	003444					CALL	.FXCT		; .DO IT
	003444	004737 	004566'			 JSR	PC,.FXCT
   3949	003450				20$:
   3950	003450					POP	R0		; .RESTORE R0
	003450	012600 				 MOV	(SP)+,R0
   3951	003452					RETURN			; TO CALLER
	003452	000207 				 RTS	PC
   3952
   3953						.DSABL	LSB
KL10F -- KL10 FUNCTION MODULE  	MACRO M1113  03-APR-86 22:51  PAGE 91
.CLRFF -- CLEAR KL RUN FLOP SUBROUTINE 7609.10

   3955					; DPB FOR MARK TIME DIRECTIVE
   3956
   3957					;	!===============================================!
   3958					; 00	!	DPB SIZE	!	  DIC		!
   3959					;	!-----------------------------------------------!
   3960					; 02	!		  EVENT FLAG			!
   3961					;	!-----------------------------------------------!
   3962					; 04	!	TIME INTERVAL IN CLOCK TICKS		!
   3963					;	!-----------------------------------------------!
   3964					; 06	!	RESCHEDULE INTERVAL IN CLOCK TICKS	!
   3965					;	!-----------------------------------------------!
   3966					; 10	!	     AST HANDLER ENTRY POINT		!
   3967					;	!===============================================!
   3968
   3969	000266				.PSECT	DPBS
   3970
   3971	000266				.MTDPB::
   3972	000266					MRKT$	E.FHTO,30.,0,0
	000266	   027 	   005 			.BYTE	23.,5
	000270	000001 				.WORD	E.FHTO
	000272	000036 				.WORD	30.
	000274	000000 				.WORD	0
	000276	000000 				.WORD	0
   3973
   3974	003454				.PSECT
KL10F -- KL10 FUNCTION MODULE  	MACRO M1113  03-APR-86 22:51  PAGE 92
.DTERW -- DTE-20 REGISTER READ / WRITE SUBROUTINES 7608.05

   3976					.SBTTL	.DTERW -- DTE-20 REGISTER READ / WRITE SUBROUTINES 7608.05
   3977
   3978					;+
   3979					; .DTDW1 -- SUBROUTINE TO READ DTE-20 DIAG WORD 1.
   3980					; .DTDW2 -- SUBROUTINE TO READ DTE-20 DIAG WORD 2.
   3981					; .DTSTA -- SUBROUTINE TO READ DTE-20 STATUS WORD.
   3982					; .DTDW3 -- SUBROUTINE TO READ DTE-20 DIAG WORD 3.
   3983					; .DWDW1 -- SUBROUTINE TO WRITE DTE-20 DIAG WORD 1.
   3984					; .DWDW2 -- SUBROUTINE TO WRITE DTE-20 DIAG WORD 2.
   3985					; .DWSTA -- SUBROUTINE TO WRITE DTE-20 STATUS WORD.
   3986					; .DWDW3 -- SUBROUTINE TO WRITE DTE-20 DIAG WORD 3.
   3987					;
   3988					; THESE SUBROUTINES READ OR WRITE THE CONTENT OF THE SPECIFIED
   3989					; DTE-20 REGISTER.
   3990					;
   3991					; THE CONTENT OF THE REGISTER TO BE WRITTEN IS PASSED IN R0.
   3992					; WHETHER A READ OR WRITE IS SPECIFIED, THE CONTENT OF THE REGISTER
   3993					; AFTER THE READ OR WRITE IS ALWAYS RETURNED IN R0 AND IN ".DREG".
   3994					;
   3995					; INPUT ARGUMENTS:
   3996					;
   3997					;	(READ) NONE.
   3998					;	(WRITE) R0 POINTS TO THE DATA TO BE WRITTEN.
   3999					;
   4000					; OUTPUT ARGUMENTS:
   4001					;
   4002					;	R0 CONTAINS THE DATA FROM THE REGISTER WHICH WAS
   4003					;	READ OR WRITTEN.
   4004					;
   4005					; ERROR CODES RETURNED:
   4006					;
   4007					;	DSF -- DTE-20 STATUS FAILURE.
   4008					;-
KL10F -- KL10 FUNCTION MODULE  	MACRO M1113  03-APR-86 22:51  PAGE 93
.DTERW -- DTE-20 REGISTER READ / WRITE SUBROUTINES 7608.05

   4010						.ENABL	LSB
   4011
   4012	003454				.DWDW1::			; DIAG WORD 1 WRITE ENTRY
   4013	003454	105037 	000303'			CLRB	.REGRW+3	; SET DIAG1 OFFSET
   4014	003460	000413 				BR	10$		; DO COMMON WRITE CODE
   4015						;
   4016	003462				.DWDW2::			; DIAG WORD 2 WRITE ENTRY
   4017	003462	112737 	000002 	000303'		MOVB	#.DIAG2,.REGRW+3; DIAG2 OFFSET
   4018	003470	000407 				BR	10$		; DO COMMON WRITE CODE
   4019						;
   4020	003472				.DWSTA::			; STATUS WRITE ENTRY
   4021	003472	112737 	000004 	000303'		MOVB	#.DTSTW,.REGRW+3; OFFSET FOR STATUS
   4022	003500	000403 				BR	10$		; DO COMMON WRITE CODE
   4023						;
   4024	003502				.DWDW3::			; DIAG WORD 3 WRITE ENTRY
   4025	003502	112737 	000006 	000303'		MOVB	#.DIAG3,.REGRW+3; SET DIAG WORD 3 OFFSET
   4026	003510				10$:				; COMMON WRITE CODE
   4027	003510	010037 	000304'			MOV	R0,.REGRW+4	; SET THE DATA POINTER IN THE DPB
   4028	003514	113700 	000303'			MOVB	.REGRW+3,R0	; GET THE REGISTER OFFSET
   4029	003520	046077 	004212'	000304'		BIC	MBZTAB(R0),@.REGRW+4
   4030									; ZERO THE MBZ BITS
   4031	003526	000420 				BR	30$		; WRITE IT
   4032						;
   4033	003530				.DTDW1::			; DIAG WORD 1 READ ENTRY
   4034	003530	105037 	000303'			CLRB	.REGRW+3	; DIAG WORD 1 OFFSET IS 0
   4035	003534	000413 				BR	20$		; GO READ IT
   4036						;
   4037	003536				.DTDW2::			; DIAG WORD 2 READ ENTRY
   4038	003536	112737 	000002 	000303'		MOVB	#.DIAG2,.REGRW+3; DIAG WORD 2 OFFSET IS 2
   4039	003544	000407 				BR	20$		; GO READ IT
   4040						;
   4041	003546				.DTSTA::			; STATUS WORD READ ENTRY
   4042	003546	112737 	000004 	000303'		MOVB	#.DTSTW,.REGRW+3; SET THE OFFSET FOR THE STATUS WORD
   4043	003554	000403 				BR	20$		; GO READ THE DTE-20 STATUS REGISTER
   4044						;
   4045	003556				.DTDW3::			; DIAG WORD 3 READ ENTRY
   4046	003556	112737 	000006 	000303'		MOVB	#.DIAG3,.REGRW+3; SET THE OFFSET FOR DIAG WORD 3
   4047
   4048					;	[CONTINUED ON THE FOLLOWING PAGE]
KL10F -- KL10 FUNCTION MODULE  	MACRO M1113  03-APR-86 22:51  PAGE 94
.DTERW -- DTE-20 REGISTER READ / WRITE SUBROUTINES 7608.05

   4050					;	[CONTINUED FROM THE PREVIOUS PAGE]
   4051
   4052	003564				20$:
   4053	003564	005037 	000304'			CLR	.REGRW+4	; THIS IS NOT A WRITE
   4054	003570				30$:				; DATA BUFFER ALREADY LOADED FOR WRITE
   4055	003570	005037 	000352'			CLR	.DREG		; CLEAR RETURNED DATA BUFFER
   4059	003574					DIR$	#.REGRW		; READ OR WRITE THE REGISTER
	003574	012746 	000300'			MOV	#.REGRW,-(SP)
	003600	104375 				EMT	375
   4061	003602	103411 				BCS	DTEDSF		; ERROR IF CC-C IS SET
   4062	003604	013700 	000352'			MOV	.DREG,R0	; PUT A COPY IN R0
   4064	003610	032737 	000040 	000264'		BIT	#TR.DTE,.TRKWD	; NO -- ARE WE TRACKING DTE-20 OPS?
   4065	003616	001402 				BEQ	40$		; NO -- JUST RETURN
   4066	003620					CALLR	.DTTRK		; YES -- TRACK IT AND RETURN
	003620	000137 	012332'			 JMP	.DTTRK
   4067						;
   4068	003624				40$:
   4070	003624					RETURN			; GO AWAY
	003624	000207 				 RTS	PC
   4071
   4072						.DSABL	LSB
   4073
   4074	003626				DTEDSF:
   4075	003626					ERROR$	DSF		; ERROR -- DTE-20 REGISTER READ OR WRITE FAILED
	003626	012746 	015776 			 MOV	#^RDSF,-(SP)
	003632	104400 				 TRAP	TC.ERR
   4076						;
   4077
   4078					; TABLE TO CLEAR MBZ BITS ON REGISTER WRITE
   4079
   4080	004212				.PSECT	DATA
   4081
   4082	004212				MBZTAB:
   4083	004212	000442 				.WORD	D1.MBZ
   4084	004214	177641 				.WORD	D2.MBZ
   4085	004216	000000 				.WORD	ST.MBZ
   4086	004220	177704 				.WORD	D3.MBZ
   4087
   4088	003634				.PSECT
KL10F -- KL10 FUNCTION MODULE  	MACRO M1113  03-APR-86 22:51  PAGE 95
.DTERW -- DTE-20 REGISTER READ / WRITE SUBROUTINES 7608.05

   4090					; DPB TO READ OR WRITE THE DTE-20 REGISTERS
   4091
   4092					;	!===============================================!
   4093					; 00	!	DPB SIZE	!	  DIC		!
   4094					;	!-----------------------------------------------!
   4095					; 02	!   REGISTER OFFSET	!    DIRECTIVE CODE	!
   4096					;	!-----------------------------------------------!
   4097					; 04	!	  POINTER TO DATA TO BE WRITTEN		!
   4098					;	!-----------------------------------------------!
   4099					; 06	!	DESTINATION ADDRESS FOR DATA READ	!
   4100					;	!-----------------------------------------------!
   4101					; 10	!		DTE-20 NUMBER			!
   4102					;	!===============================================!
   4103
   4104	000300				.PSECT	DPBS
   4105
   4106	000300				.REGRW::
   4107	000300	002411 				.WORD	2411
   4108	000302	   017 	   000 			.BYTE	17,0
   4109	000304	000000 				.WORD	0
   4110	000306	000352'				.WORD	.DREG
   4111	000310	000000 				.WORD	0
   4112		000310'			RGDTEN==.-2
   4113
   4114	003634				.PSECT
KL10F -- KL10 FUNCTION MODULE  	MACRO M1113  03-APR-86 22:51  PAGE 96
.EBCLK -- SUBROUTINE TO SIMULATE AN EBOX CLOCK 7512.01

   4116					.SBTTL	.EBCLK -- SUBROUTINE TO SIMULATE AN EBOX CLOCK 7512.01
   4117
   4118					;+
   4119					; .EBCLK -- SUBROUTINE TO SIMULATE AN EBOX CLOCK VIA MBOX CLOCKS
   4120					;
   4121					; THIS SUBROUTINE WILL SIMULATE AN EBOX CLOCK WITH MBOX CLOCKS.
   4122					; DOING THIS PREVENTS THE EBOX AND MBOX FROM BECOMING UNSYNCHRONIZED.
   4123					; THE EBOX CLOCK IS SYNCHED LOW ON EXIT.
   4124					;
   4125					; SEQUENCE OF OPERATION:
   4126					;
   4127					;	(A) AN MBOX CLOCK IS ISSUED (FX.002),
   4128					;	(B) THE STATE OF [CLK EBOX SRC H] IS TESTED:
   4129					;		(1) IF FALSE GO TO (A),
   4130					;		(2) IF TRUE GO TO (C),
   4131					;	(C) THE EBOX CLOCK IS SYNCHED LOW.
   4132					;
   4133					; INPUT ARGUMENTS:
   4134					;
   4135					;	NONE.
   4136					;
   4137					; OUTPUT ARGUMENTS:
   4138					;
   4139					;	NONE.
   4140					;
   4141					; ERROR CODES RETURNED:
   4142					;
   4143					;	CES -- CLOCK ERROR STOP.
   4144					;	DSF -- DTE-20 STATUS FAILURE.
   4145					;	ECT -- EBOX CLOCK TIMEOUT.
   4146					;	FRF -- FUNCTION READ FAILED.
   4147					;	FXF -- FUNCTION EXECUTE FAILED.
   4148					;
   4149					; NOTE:
   4150					;
   4151					;	THIS SUBROUTINE ASSUMES THAT THE KL CLOCK IS OFF.
   4152					;-
KL10F -- KL10 FUNCTION MODULE  	MACRO M1113  03-APR-86 22:51  PAGE 97
.EBCLK -- SUBROUTINE TO SIMULATE AN EBOX CLOCK 7512.01

   4154	003634				.EBCLK::
   4155	003634					PUSH	<R2,R1,R0>	; SAVE CALLER'S REGISTERS
	003634	010246 				 MOV	R2,-(SP)
	003636	010146 				 MOV	R1,-(SP)
	003640	010046 				 MOV	R0,-(SP)
   4156	003642					CALL	.CESCK		; ...SEE IF CLOCK ERROR STOP IS UP
	003642	004737 	000000'			 JSR	PC,.CESCK
   4157	003646	012702 	000310 			MOV	#^D200,R2	; ...TIMEOUT COUNT TO R2
   4158	003652				10$:
   4159	003652	005001 				CLR	R1		; ...CLEAR R1
   4160	003654	012700 	000004 			MOV	#FX.MBC,R0	; ...DO ONE MBOX CLOCK
   4161	003660					CALL	.FXCT		; ...DO IT
	003660	004737 	004566'			 JSR	PC,.FXCT
   4162	003664	012700 	000210 			MOV	#FR.104,R0	; ...READ STATE OF [CLK EBX SRC H]
   4163	003670					CALL	.FREAD		; ...DO IT
	003670	004737 	004362'			 JSR	PC,.FREAD
   4164	003674	032710 	000004 			BIT	#BIT02,(R0)	; ...IS IT THERE?
   4168	003700	001001 				BNE	20$		; ...YES -- SYNCH THE CLOCK AND EXIT
   4169	003702	077215 				SOB	R2,10$		; ...NO -- LOOP TILL COUNT EXHAUSTED
   4170	003704				20$:
   4171	003704	005702 				TST	R2		; ...WHAT'S IN R2?
   4172	003706	003405 				BLE	EBCECT		; ...TIMED OUT IF .LE. 0
   4173	003710					POP	<R0,R1,R2>	; ...RESTORE CALLER'S REGISTERS
	003710	012600 				 MOV	(SP)+,R0
	003712	012601 				 MOV	(SP)+,R1
	003714	012602 				 MOV	(SP)+,R2
   4174	003716					CALLR	.SYNXC		; FORCE SYNCH THE CLOCK AND EXIT
	003716	000137 	007470'			 JMP	.SYNXC
   4175						;
   4176	003722				EBCECT:
   4177	003722					ERROR$	ECT		; ERROR -- EBOX CLOCK TIME OUT
	003722	012746 	017714 			 MOV	#^RECT,-(SP)
	003726	104400 				 TRAP	TC.ERR
   4178						;
KL10F -- KL10 FUNCTION MODULE  	MACRO M1113  03-APR-86 22:51  PAGE 98
.EXDPM -- KL MEMORY EXAMINE / DEPOSIT SUBROUTINE 7702.24

   4180					.SBTTL	.EXDPM -- KL MEMORY EXAMINE / DEPOSIT SUBROUTINE 7702.24
   4181
   4182					;+
   4183					; .EXKLM -- SUBROUTINE TO EXAMINE KL MEMORY.
   4184					; .DPKLM -- SUBROUTINE TO DEPOSIT KL MEMORY.
   4185					;
   4186					; THIS SUBROUTINE EXAMINES OR DEPOSITS ONE LOCATION OF KL MEMORY.
   4187					;
   4188					; INPUT ARGUMENTS:
   4189					;
   4190					; R0 MUST CONTAIN ONE OF THE FOLLOWING ADDRESS SPACE CODES:
   4191					;
   4192					;	(A) ED.EPT (000) EXEC PROCESS TABLE (RELATIVE),
   4193					;	(B) ED.EXV (040) EXEC VIRTUAL ADDRESS SPACE,
   4194					;	(C) ED.UPT (100) USER PROCESS TABLE (RELATIVE),
   4195					;	(D) ED.USV (140) USER VIRTUAL ADDRESS SPACE,
   4196					;	(E) ED.PHY (200) PHYSICAL ADDRESS SPACE.
   4197					;
   4198					; R1 MUST CONTAIN A POINTER TO A TWO WORD POINTER BLOCK OF THE FORM:
   4199					;
   4200					;		!===================================!
   4201					;	00	!      POINTER TO KL ADDRESS	    !
   4202					;		!-----------------------------------!
   4203					;	02	!       POINTER TO KL DATA	    !
   4204					;		!===================================!
   4205					;
   4206					; THE KL ADDRESS POINTER MUST POINT TO A TWO WORD BLOCK OF THE FORM:
   4207					;
   4208					;		!===================================!
   4209					;	00	!	  KL ADDRESS 20 - 35	    !
   4210					;		!-----------------------------------!
   4211					;	02	!	  KL ADDRESS 19 - 14	    !
   4212					;		!===================================!
   4213					;
   4214					; THE KL DATA POINTER POINTS TO A TRIPLET IN DEXWORD FORMAT.
   4215					;
   4216					; OUTPUT ARGUMENTS:
   4217					;
   4218					;	SAME AS INPUT ARGUMENTS.
   4219					;
   4220					; ERROR CODES RETURNED:
   4221					;
   4222					;	ESD -- EBOX STOPPED - DEPOSIT.
   4223					;	ESE -- EBOX STOPPED - EXAMINE.
   4224					;	EMF -- EXAMINE KL MEMORY FAILED.
   4225					;	DMF -- DEPOSIT KL MEMORY FAILED.
   4226					;-
KL10F -- KL10 FUNCTION MODULE  	MACRO M1113  03-APR-86 22:51  PAGE 99
.EXDPM -- KL MEMORY EXAMINE / DEPOSIT SUBROUTINE 7702.24

   4228						.ENABL	LSB
   4229
   4230	003730				.EXKLM::
   4231	003730					PUSH	<R2,R3>		; SAVE R2 AND R3 ON THE STACK
	003730	010246 				 MOV	R2,-(SP)
	003732	010346 				 MOV	R3,-(SP)
   4232	003734	012702 	004222'			MOV	#.ETAB,R2	; ..POINTER TO EXAMINE TABLE
   4233	003740					CALL	.EXDPM		; ..GO DO EXAMINE
	003740	004737 	004020'			 JSR	PC,.EXDPM
   4240	003744	032737 	000010 	000264'		BIT	#TR.EXM,.TRKWD	; ..ARE WE TRACKING EXAMINES?
   4241	003752	001417 				BEQ	10$		; ..NO -- GO ON
   4242	003754					CALL	.EXTRK		; ..YES -- TRACK IT
	003754	004737 	012442'			 JSR	PC,.EXTRK
   4244	003760	000414 				BR	10$		; ..AND GO AWAY
   4245						;
   4246	003762				.DPKLM::
   4247	003762					PUSH	<R2,R3>		; SAVE R2 AND R3 ON THE STACK
	003762	010246 				 MOV	R2,-(SP)
	003764	010346 				 MOV	R3,-(SP)
   4248	003766	012702 	004232'			MOV	#.DTAB,R2	; ..POINTER TO DEPOSIT TABLE
   4249	003772					CALL	.EXDPM		; ..DO THE DEPOSIT
	003772	004737 	004020'			 JSR	PC,.EXDPM
   4256	003776	032737 	000020 	000264'		BIT	#TR.DEP,.TRKWD	; ..ARE WE TRACKING DEPOSITS?
   4257	004004	001402 				BEQ	10$		; ..NO -- GO ON
   4258	004006					CALL	.DPTRK		; ..YES -- TRACK THE DEPOSIT
	004006	004737 	012454'			 JSR	PC,.DPTRK
   4260	004012				10$:
   4261	004012					POP	<R3,R2>		; ..RESTORE R2 AND R3
	004012	012603 				 MOV	(SP)+,R3
	004014	012602 				 MOV	(SP)+,R2
   4262	004016					RETURN			; RETURN TO CALLER
	004016	000207 				 RTS	PC
   4263
   4264						.DSABL	LSB
KL10F -- KL10 FUNCTION MODULE  	MACRO M1113  03-APR-86 22:51  PAGE 100
.EXDPM -- KL MEMORY EXAMINE / DEPOSIT SUBROUTINE 7702.24

   4266					; THIS IS THE COMMON DEPOSIT / EXAMINE CODE
   4267
   4268	004020				.EXDPM::
   4269	004020	000241 				CLC			; CLEAR CC-C
   4270	004022	012203 				MOV	(R2)+,R3	; GET THE DPB POINTER INTO R3
   4271	004024	110023 				MOVB	R0,(R3)+	; PUT THE MODE INTO THE DPB
   4272	004026	011123 				MOV	(R1),(R3)+	; PUT THE POINTER TO THE KL ADDRESS IN THE DPB
   4273	004030	016113 	000002 			MOV	2(R1),(R3)	; AND DESTINATION POINTER TOO
   4274	004034	011303 				MOV	(R3),R3		; GET ADDRESS OF CALLER'S DATA BLOCK
   4275	004036	042763 	177760 	000004 		BIC	#177760,4(R3)	; CLEAR EXTRANEOUS BITS
   4279	004044					DIR$	(R2)+		; DO THE EXAMINE OR DEPOSIT
	004044	012246 				MOV	(R2)+,-(SP)
	004046	104375 				EMT	375
   4281	004050	103401 				BCS	10$		; ERROR IF CC-C IS SET
   4282	004052					RETURN			; TO CALLER
	004052	000207 				 RTS	PC
   4283	004054				10$:
   4284	004054	022737 	000000G	000000G		CMP	#IE.EBX,$DSW	; IS THE EBOX STOPPED?
   4285	004062	001401 				BEQ	20$		; YES -- EBOX IS STOPPED
   4286	004064	005722 				TST	(R2)+		; NO -- OTHER ERROR
   4287	004066				20$:
   4288	004066					CALL	.CESCK		; SEE IF CLOCK ERROR STOP IS UP
	004066	004737 	000000'			 JSR	PC,.CESCK
   4289	004072	103001 				BCC	25$		; [5.1002]CES SWEEP RETURN?
   4290	004074					RETURN			; [5.1002]YES -- EXIT
	004074	000207 				 RTS	PC
   4291	004076				25$:	CALL	.RESTD		; RESET THE DTE-20 SINCE IT MAY BE CONFUSED
	004076	004737 	007102'			 JSR	PC,.RESTD
   4292	004102	000132 				JMP	@(R2)+		; GIVE THE EXAMINE ERROR TRAP
   4293						;
KL10F -- KL10 FUNCTION MODULE  	MACRO M1113  03-APR-86 22:51  PAGE 101
.EXDPM -- KL MEMORY EXAMINE / DEPOSIT SUBROUTINE 7702.24

   4295					; TABLES FOR EXAMINE / DEPOSIT KL MEMORY
   4296
   4297	004222				.PSECT	DATA
   4298
   4299	004222				.ETAB:
   4300	004222	000327'				.WORD	.EXDPB+3	; POINTER FOR EXAMINE MODE IN DPB
   4301	004224	000324'				.WORD	.EXDPB		; EXAMINE DPB POINTER
   4302	004226	004120'				.WORD	EXDESE		; EBOX STOPPED - EXAMINE
   4303	004230	004142'				.WORD	EXDEMF		; EXAMINE KL FAILED
   4304
   4305	004232				.DTAB:
   4306	004232	000315'				.WORD	.DPDPB+3	; POINTER FOR DEPOSIT MODE IN DPB
   4307	004234	000312'				.WORD	.DPDPB		; DEPOSIT DPB POINTER
   4308	004236	004104'				.WORD	EXDESD		; EBOX STOPPED - DEPOSIT
   4309	004240	004134'				.WORD	EXDDMF		; DEPOSIT KL FAILED
   4310
   4311	004104				.PSECT
   4312
   4313	004104				EXDESD:
   4314	004104	042737 	100000 	000000G		BIC	#KF.CLK,.KLFLG	; FLAG THE EBOX STOP
   4315	004112					ERROR$	ESD		; ERROR -- EBOX STOPPED - DEPOSIT
	004112	012746 	021074 			 MOV	#^RESD,-(SP)
	004116	104400 				 TRAP	TC.ERR
   4316						;
   4317	004120				EXDESE:
   4318	004120	042737 	100000 	000000G		BIC	#KF.CLK,.KLFLG	; FLAG THE EBOX STOP
   4319	004126					ERROR$	ESE		; ERROR -- EBOX STOPPED - EXAMINE
	004126	012746 	021075 			 MOV	#^RESE,-(SP)
	004132	104400 				 TRAP	TC.ERR
   4320						;
   4321	004134				EXDDMF:
   4322	004134					ERROR$	DMF		; ERROR -- DEPOSIT MEMORY FAILED
	004134	012746 	015416 			 MOV	#^RDMF,-(SP)
	004140	104400 				 TRAP	TC.ERR
   4323						;
   4324	004142				EXDEMF:
   4325	004142					ERROR$	EMF		; ERROR -- EXAMINE MEMORY FAILED
	004142	012746 	020516 			 MOV	#^REMF,-(SP)
	004146	104400 				 TRAP	TC.ERR
   4326						;
KL10F -- KL10 FUNCTION MODULE  	MACRO M1113  03-APR-86 22:51  PAGE 102
.EXDPM -- KL MEMORY EXAMINE / DEPOSIT SUBROUTINE 7702.24

   4328					; DPB FOR PRIVILEGED DEPOSIT
   4329
   4330					;	!===============================================!
   4331					; 00	!	DPB SIZE	!	  DIC		!
   4332					;	!-----------------------------------------------!
   4333					; 02	!    DEPOSIT TYPE	!    DIRECTIVE CODE	!
   4334					;	!-----------------------------------------------!
   4335					; 04	!	  KL DEPOSIT ADDRESS POINTER		!
   4336					;	!-----------------------------------------------!
   4337					; 06	!	   KL DEPOSIT DATA POINTER		!
   4338					;	!-----------------------------------------------!
   4339					; 10	!		DTE-20 NUMBER			!
   4340					;	!===============================================!
   4341
   4342	000312				.PSECT	DPBS
   4343
   4344	000312				.DPDPB::
   4345	000312					PRDP$	0,.EDKLA,.DPBFR,ED.PHY
	000312	   011 	   005 			.BYTE	DR.DTE,5
	000314	   016 	   200 			.BYTE	DF.PDP,ED.PHY
	000316	000106'				.WORD	.EDKLA
	000320	000070'				.WORD	.DPBFR
	000322	000000 				.WORD	0
   4346		000322'			DPDTEN==.-2
   4347
   4348					; DPB FOR PRIVILEGED EXAMINE
   4349
   4350					;	!===============================================!
   4351					; 00	!	DPB SIZE	!	  DIC		!
   4352					;	!-----------------------------------------------!
   4353					; 02	!    EXAMINE TYPE	!    DIRECTIVE CODE	!
   4354					;	!-----------------------------------------------!
   4355					; 04	!	    KL ADDRESS WORD POINTER		!
   4356					;	!-----------------------------------------------!
   4357					; 06	!	     DATA DESTINATION POINTER		!
   4358					;	!-----------------------------------------------!
   4359					; 10	!		DTE-20 NUMBER			!
   4360					;	!===============================================!
   4361
   4362	000324				.EXDPB::
   4363	000324					PREX$	0,.EDKLA,.EXBFR,ED.PHY
	000324	   011 	   005 			.BYTE	DR.DTE,5
	000326	   015 	   200 			.BYTE	DF.PEX,ED.PHY
	000330	000106'				.WORD	.EDKLA
	000332	000156'				.WORD	.EXBFR
	000334	000000 				.WORD	0
   4364		000334'			EXDTEN==.-2
   4365
   4366	004150				.PSECT
KL10F -- KL10 FUNCTION MODULE  	MACRO M1113  03-APR-86 22:51  PAGE 103
.EXCTF -- FAST INTERNAL EXECUTE 7602.17

   4368					.SBTTL	.EXCTF -- FAST INTERNAL EXECUTE 7602.17
   4369
   4370					;+
   4371					; .EXCTF -- FST INTERNAL EXECUTE.
   4372					;
   4373					; THIS SUBROUTINE WILL EXECUTE A KL INSTRUCTION WITHOUT
   4374					; CLOCKING THE KL OUT THE HALT LOOP; THE KL IS SIMPLY
   4375					; CONTINUED
   4376					;
   4377					; INPUT ARGUMENTS:
   4378					;
   4379					;	NONE.
   4380					;
   4381					; OUTPUT ARGUMENTS:
   4382					;
   4383					;	NONE.
   4384					;
   4385					; ERROR CODES RETURNED:
   4386					;
   4387					;	NONE
   4388					;-
   4389
   4390	004150				.EXCTF::
   4391	004150					PUSH	.KLFLG		; SAVE ".KLFLG"
	004150	013746 	000000G			 MOV	.KLFLG,-(SP)
   4392	004154	005116 				COM	(SP)		; .INVERT IT
   4393	004156	032716 	140000 			BIT	#KF.CLK!KF.RUN,(SP)
   4394	004162	001013 				BNE	10$		; .NOT REALLY RUNNING -- DO OTHER XCT
   4395	004164	005116 				COM	(SP)		; .RESET SAVED ".KLFLG"
   4396	004166					PUSH	R0		; .SAVE R0
	004166	010046 				 MOV	R0,-(SP)
   4397	004170					CALL	.STPKL		; ..STOP THE KL
	004170	004737 	007272'			 JSR	PC,.STPKL
   4398	004174					POP	R1		; ..INSTRUCTION POINTER TO R1
	004174	012601 				 MOV	(SP)+,R1
   4399	004176					CALL	.KLXCT		; .EXECUTE THE INSTRUCTION
	004176	004737 	005442'			 JSR	PC,.KLXCT
   4400	004202					POP	.SVKLF		; .SET UP ".SVKLF"
	004202	012637 	000260'			 MOV	(SP)+,.SVKLF
   4401	004206					CALLR	.RSTKL		; RESTART THE KL
	004206	000137 	007220'			 JMP	.RSTKL
   4402						;
   4403	004212				10$:
   4404	004212	005726 				TST	(SP)+		; .FLUSH THE STACK
   4405	004214	022020 				CMP	(R0)+,(R0)+	; ADVANCE THE POINTER
   4406	004216					PUSH	<(R0),-(R0),-(R0)>
	004216	011046 				 MOV	(R0),-(SP)
	004220	014046 				 MOV	-(R0),-(SP)
	004222	014046 				 MOV	-(R0),-(SP)
   4407	004224	010600 				MOV	SP,R0		; ...POINT TO STACKED INSTRUCTION
   4408
   4409					;	[CONTINUED ON THE FOLLOWING PAGE]
KL10F -- KL10 FUNCTION MODULE  	MACRO M1113  03-APR-86 22:51  PAGE 104
.EXCTF -- FAST INTERNAL EXECUTE 7602.17

   4411					;	[CONTINUED FROM THE PREVIOUS PAGE]
   4412
   4413	004226				.EXECT::
   4414	004226	010001 				MOV	R0,R1		; ...POINTER TO R1
   4415	004230					PUSH	.KLFLG		; ...SAVE ".KLFLG"
	004230	013746 	000000G			 MOV	.KLFLG,-(SP)
   4416	004234					CALL	.KLXCT		; ....START THE EXECUTE
	004234	004737 	005442'			 JSR	PC,.KLXCT
   4417	004240				10$:
   4418	004240					CALL	.EBCLK		; ....GIVE ONE EBOX CLOCK
	004240	004737 	003634'			 JSR	PC,.EBCLK
   4419	004244					CALL	.DTDW1		; ....READ DTE-20 DIAG WORD 1
	004244	004737 	003530'			 JSR	PC,.DTDW1
   4420	004250	032700 	001000 			BIT	#D1.HLP,R0	; ....IS THE HALT LOOP UP?
   4422	004254	001371 				BNE	10$		; ....YES -- WAIT TILL IT ISN'T
   4424	004256					CALL	.STCLK		; ....OUT OF HALT LOOP -- START THE CLOCK
	004256	004737 	007246'			 JSR	PC,.STCLK
   4425	004262	012701 	005000 			MOV	#5000,R1	; ....WAIT COUNT TO R1
   4426	004266				20$:
   4427	004266					CALL	.DTDW1		; ....READ DTE-20 DIAG WORD 1
	004266	004737 	003530'			 JSR	PC,.DTDW1
   4428	004272	032700 	001000 			BIT	#D1.HLP,R0	; ....LOOK FOR THE HALT LOOP AGAIN
   4432	004276	001002 				BNE	30$		; ....IN THE HALT LOOP -- FINISH UP
   4433	004300	077106 				SOB	R1,20$		; ....NOT YET -- TRY AGAIN
   4434	004302	000424 				BR	EXECTO		; ....EXECUTE TIMED OUT
   4435						;
   4436	004304				30$:
   4437	004304	005116 				COM	(SP)		; ....INVERT OLD ".KLFLG"
   4438	004306	032716 	140000 			BIT	#KF.CLK!KF.RUN,(SP) ; ....WAS THE KL RUNNING??
   4439	004312	001003 				BNE	40$		; ....NO -- GO ON
   4440	004314					CALL	.KLCON		; ....YES -- CONTINUE THE KL
	004314	004737 	004736'			 JSR	PC,.KLCON
   4441	004320	000412 				BR	60$		; ....AND EXIT
   4442						;
   4443	004322				40$:
   4444	004322	032716 	100000 			BIT	#KF.CLK,(SP)	; ....WAS THE CLOCK ON?
   4445	004326	001402 				BEQ	50$		; ....YES -- GO ON
   4446	004330					CALL	.STPXC		; ....NO -- STOP IT
	004330	004737 	007316'			 JSR	PC,.STPXC
   4447	004334				50$:
   4448	004334	032716 	040000 			BIT	#KF.RUN,(SP)	; ....WAS THE RUN FLOP ON??
   4449	004340	001002 				BNE	60$		; ....NO -- GO ON
   4450	004342					CALL	.STRUN		; ....YES -- SET IT
	004342	004737 	007346'			 JSR	PC,.STRUN
   4451	004346				60$:
   4452	004346	062706 	000010 			ADD	#^D8,SP		; ....RESET THE STACK
   4453	004352					RETURN			; AND EXIT
	004352	000207 				 RTS	PC
   4454	004354				EXECTO:
   4455	004354					ERROR$	XTO		; ERROR -- EXECUTE TIMED OUT
	004354	012746 	114457 			 MOV	#^RXTO,-(SP)
	004360	104400 				 TRAP	TC.ERR
   4456						;
KL10F -- KL10 FUNCTION MODULE  	MACRO M1113  03-APR-86 22:51  PAGE 105
.FREAD -- DIAGNOSTIC FUNCTION READ SUBROUTINE 7609.15

   4458					.SBTTL	.FREAD -- DIAGNOSTIC FUNCTION READ SUBROUTINE 7609.15
   4459
   4460					;+
   4461					; .FREAD -- SUBROUTINE TO EXECUTE A DIAGNOSTIC FUNCTION READ.
   4462					;
   4463					; THESE SUBROUTINES EXECUTE A DIAGNOSTIC FUNCTION READ.
   4464					;
   4465					; SEQUENCE OF OPERATION:
   4466					;
   4467					;	THE DFR IS EXECUTED AND DATA LOADED THRU R1 IF R1 .NE. 0,
   4468					;	IF R1 IS .EQ. 0 THE DATA IS NOT MOVED FROM ".DFRB".
   4469					;
   4470					; INPUT ARGUMENTS:
   4471					;
   4472					;	R0 HOLDS THE FUNCTION READ CODE
   4473					;	R1 POINTS TO A DESTINATION BUFFER
   4474					;
   4475					; OUTPUT ARGUMENTS:
   4476					;
   4477					;	R0 POINTS TO THE SUBROUTINE DATA BLOCK
   4478					;	R1 POINTS TO THE CALLER'S READ BLOCK
   4479					;
   4480					; ERROR CODES RETURNED:
   4481					;
   4482					;	FRF -- FUNCTION READ FAILED.
   4483					;-
KL10F -- KL10 FUNCTION MODULE  	MACRO M1113  03-APR-86 22:51  PAGE 106
.FREAD -- DIAGNOSTIC FUNCTION READ SUBROUTINE 7609.15

   4485	004362				.FREAD::
   4486	004362	110037 	000341'			MOVB	R0,.KLDFR+3	; SET THE DFR# IN THE DPB
   4490	004366					DIR$	#.KLDFR		; CALL THE EXEC TO DO THE READ
	004366	012746 	000336'			MOV	#.KLDFR,-(SP)
	004372	104375 				EMT	375
   4492	004374	103420 				BCS	FRDFRF		; ERROR IF CC-C IS SET
   4493	004376	012700 	000344'			MOV	#.DFRB,R0	; POINT TO TOP OF READ BLOCK
   4494	004402	005701 				TST	R1		; TEST R1
   4495	004404	001405 				BEQ	10$		; EXIT IF R1 .EQ. 0
   4496	004406	012021 				MOV	(R0)+,(R1)+	; LOAD HIS BUFFER FROM OURS
   4497	004410	012021 				MOV	(R0)+,(R1)+
   4498	004412	011011 				MOV	(R0),(R1)
   4499	004414	024040 				CMP	-(R0),-(R0)	; BACK THE POINTERS UP
   4500	004416	024141 				CMP	-(R1),-(R1)
   4501	004420				10$:
   4503	004420	032737 	000002 	000264'		BIT	#TR.FRD,.TRKWD	; ARE WE TRACKING FUNCTION READS?
   4504	004426	001402 				BEQ	20$		; NO -- JUST EXIT
   4505	004430					CALL	.FRTRK		; YES -- DO IT
	004430	004737 	012172'			 JSR	PC,.FRTRK
   4506	004434				20$:
   4508	004434					RETURN			; TO CALLER
	004434	000207 				 RTS	PC
   4509	004436				FRDFRF:
   4510	004436					ERROR$	FRF		; ERROR -- FUNCTION READ FAILED
	004436	012746 	024126 			 MOV	#^RFRF,-(SP)
	004442	104400 				 TRAP	TC.ERR
   4511						;
   4512
   4513					; DPB FOR DIAGNOSTIC FUNCTION READ
   4514
   4515					;	!===============================================!
   4516					; 00	!	DPB SIZE	!	DIC		!
   4517					;	!-----------------------------------------------!
   4518					; 02	!	DFR OPCODE	!	DFR CODE	!
   4519					;	!-----------------------------------------------!
   4520					; 04	!	    TRANSFER BUFFER ADDRESS		!
   4521					;	!-----------------------------------------------!
   4522					; 06	!	DIAGNOSTIC REGISTER BUFFER ADDRESS	!
   4523					;	!-----------------------------------------------!
   4524					; 10	!		DTE-20 NUMBER			!
   4525					;	!===============================================!
   4526
   4527	000336				.PSECT	DPBS
   4528
   4529	000336				.KLDFR::
   4530	000336					KLDR$	.-.,.DFBLK,.DREG,0
	000336	002411 				.WORD	400*5.+DR.DTE
	000340	   012 	   000 			.BYTE	DF.KLR,.-./400
	000342	000336'				.WORD	.DFBLK
	000344	000352'				.WORD	.DREG
	000346	000000 				.WORD	0
   4531		000346'			FRDTEN==.-2
   4532
   4533	004444				.PSECT
KL10F -- KL10 FUNCTION MODULE  	MACRO M1113  03-APR-86 22:51  PAGE 107
.FWRIT -- DIAGNOSTIC FUNCTION WRITE SUBROUTINE 7609.15

   4535					.SBTTL	.FWRIT -- DIAGNOSTIC FUNCTION WRITE SUBROUTINE 7609.15
   4536
   4537					;+
   4538					; .FWRIT -- SUBROUTINE TO EXECUTE A DIAGNOSTIC FUNCTION WRITE.
   4539					;
   4540					; THESE SUBROUTINES EXECUTE A DIAGNOSTIC FUNCTION WRITE.
   4541					;
   4542					; SEQUENCE OF OPERATION:
   4543					;
   4544					; .FWRIT:
   4545					;
   4546					;	(A) THE DATA IS LOADED THRU R1 IF R1 .NE. 0,
   4547					;	    IF R1 IS .EQ. 0 THE DATA IS ASSUMED TO BE IN ".DFWB",
   4548					;	(B) THE FUNCTION WRITE IS EXECUTED.
   4549					;
   4550					; INPUT ARGUMENTS:
   4551					;
   4552					;	R0 HOLDS THE FUNCTION WRITE CODE
   4553					;	R1 POINTS TO A SOURCE BUFFER
   4554					;
   4555					; OUTPUT ARGUMENTS:
   4556					;
   4557					;	R0 POINTS TO THE SUBROUTINE DATA BLOCK
   4558					;	R1 POINTS TO THE CALLER'S WRITE BLOCK
   4559					;
   4560					; ERROR CODES RETURNED:
   4561					;
   4562					;	FWF -- FUNCTION WRITE FAILED.
   4563					;-
   4564
   4565	004444				.FWRIT::
   4566	004444	110037 	000353'			MOVB	R0,.KLDFW+3	; SET THE DFW# IN THE DPB
   4567	004450	012700 	000336'			MOV	#.DFWB,R0	; POINT TO TOP OF WRITE BLOCK
   4568	004454	005701 				TST	R1		; TEST R1
   4569	004456	001405 				BEQ	10$		; ALREADY IN ".DFWB" IF R1 .EQ. 0
   4570	004460	012120 				MOV	(R1)+,(R0)+	; LOAD THE DATA BLOCK
   4571	004462	012120 				MOV	(R1)+,(R0)+
   4572	004464	011110 				MOV	(R1),(R0)
   4573	004466	024040 				CMP	-(R0),-(R0)	; BACK THE POINTERS UP
   4574	004470	024141 				CMP	-(R1),-(R1)
   4575
   4576
   4577					;	[CONTINUED ON THE FOLLOWING PAGE]
KL10F -- KL10 FUNCTION MODULE  	MACRO M1113  03-APR-86 22:51  PAGE 108
.FWRIT -- DIAGNOSTIC FUNCTION WRITE SUBROUTINE 7609.15

   4579					;	[CONTINUED FROM THE PREVIOUS PAGE]
   4580
   4581	004472				10$:
   4582	004472	042760 	177760 	000004 		BIC	#177760,4(R0)	; FLUSH EXTRANEOUS BITS
   4586	004500					DIR$	#.KLDFW		; CALL THE EXEC TO DO THE WRITE
	004500	012746 	000350'			MOV	#.KLDFW,-(SP)
	004504	104375 				EMT	375
   4588	004506	103424 				BCS	FWRFWF		; ERROR IF CC-C IS SET
   4589	004510					PUSH	R0		; SAVE THE BUFFER POINTER
	004510	010046 				 MOV	R0,-(SP)
   4590	004512	113700 	000353'			MOVB	.KLDFW+3,R0	; .GET THE WRITE CODE
   4591	004516	120027 	000110 			CMPB	R0,#FW.044	; .DID WE WRITE THE CLOCK BOARD?
   4592	004522	002406 				BLT	20$		; .NO -- JUST EXIT
   4593	004524	120027 	000116 			CMPB	R0,#FW.047	; .MAYBE -- DID WE REALLY?
   4594	004530	003003 				BGT	20$		; .NO -- JUST EXIT
   4595	004532	042737 	100000 	000000G		BIC	#KF.CLK,.KLFLG	; .YES -- TURN THE CLOCK BIT OFF
   4596	004540				20$:
   4598	004540	032737 	000004 	000264'		BIT	#TR.FWR,.TRKWD	; .ARE WE TRACKING FUNCTION WRITES?
   4599	004546	001402 				BEQ	30$		; .NO -- GO ON
   4600	004550					CALL	.FWTRK		; .YES -- LEAVE TRACKS ON CONSOLE
	004550	004737 	012212'			 JSR	PC,.FWTRK
   4601	004554				30$:
   4603	004554					POP	R0		; .RESTORE THE BUFFER POINTER
	004554	012600 				 MOV	(SP)+,R0
   4604	004556					RETURN			; YES -- RETURN TO CALLER
	004556	000207 				 RTS	PC
   4605
   4606	004560				FWRFWF:
   4607	004560					ERROR$	FWF		; ERROR -- FUNCTION WRITE FAILED
	004560	012746 	024436 			 MOV	#^RFWF,-(SP)
	004564	104400 				 TRAP	TC.ERR
   4608						;
   4609
   4610					; DPB FOR DIAGNOSTIC FUNCTION WRITE
   4611
   4612					;	!===============================================!
   4613					; 00	!	DPB SIZE	!	DIC		!
   4614					;	!-----------------------------------------------!
   4615					; 02	!	DFW OPCODE	!	DFW CODE	!
   4616					;	!-----------------------------------------------!
   4617					; 04	!	   TRANSFER BUFFER ADDRESS		!
   4618					;	!-----------------------------------------------!
   4619					; 06	!	DIAGNOSTIC REGISTER BUFFER ADDRESS	!
   4620					;	!-----------------------------------------------!
   4621					; 10	!		DTE-20 NUMBER			!
   4622					;	!===============================================!
   4623
   4624	000350				.PSECT	DPBS
   4625
   4626	000350				.KLDFW::
   4627	000350					KLDW$	.-.,.DFBLK,.DREG,0
	000350	002411 				.WORD	400*5.+DR.DTE
	000352	   013 	   000 			.BYTE	DF.KLW,.-./400
	000354	000336'				.WORD	.DFBLK
	000356	000352'				.WORD	.DREG
	000360	000000 				.WORD		0
   4628		000360'			FWDTEN==.-2
KL10F -- KL10 FUNCTION MODULE  	MACRO M1113  03-APR-86 22:51  PAGE 108-1
.FWRIT -- DIAGNOSTIC FUNCTION WRITE SUBROUTINE 7609.15

   4629
   4630	004566				.PSECT
KL10F -- KL10 FUNCTION MODULE  	MACRO M1113  03-APR-86 22:51  PAGE 109
.FXCT  -- DIAGNOSTIC FUNCTION EXECUTE SUBROUTINE 7609.15

   4632					.SBTTL	.FXCT  -- DIAGNOSTIC FUNCTION EXECUTE SUBROUTINE 7609.15
   4633					;+
   4634					; .FXCT -- SUBROUTINE TO EXECUTE A DIAGNOSTIC FUNCTION EXECUTE.
   4635					;
   4636					; THESE SUBROUTINES EXECUTE A DIAGNOSTIC FUNCTION EXECUTE AND MAINTAIN
   4637					; THE STATE OF THE KL CLOCK ("KF.CLK") AND RUN FLOP ("KF.RUN") FLAGS
   4638					; IN THE KL STATE FLAG WORD, ".KLFLG".
   4639					;
   4640					; SEQUENCE OF OPERATION:
   4641					;
   4642					;	THE DFX IS SIMPLY EXECUTED.
   4643					;
   4644					; INPUT ARGUMENTS:
   4645					;
   4646					;	R0 CONTAINS THE FUNCTION EXECUTE CODE
   4647					;
   4648					; OUTPUT ARGUMENTS:
   4649					;
   4650					;	NONE.
   4651					;
   4652					; ERROR CODES RETURNED:
   4653					;
   4654					;	FXF -- FUNCTION EXECUTE FAILED.
   4655					;-
KL10F -- KL10 FUNCTION MODULE  	MACRO M1113  03-APR-86 22:51  PAGE 110
.FXCT  -- DIAGNOSTIC FUNCTION EXECUTE SUBROUTINE 7609.15

   4657	004566				.FXCT::
   4658	004566	110037 	000365'			MOVB	R0,.KLDFX+3	; SET THE EXECUTE CODE IN THE DPB
   4662	004572					DIR$	#.KLDFX		; CALL THE EXEC TO DO THE DFX
	004572	012746 	000362'			MOV	#.KLDFX,-(SP)
	004576	104375 				EMT	375
   4664	004600	103453 				BCS	FXCFXF		; ERROR IF CC-C IS SET
   4665	004602	113746 	000365'			MOVB	.KLDFX+3,-(SP)	; PUT THE EXECUTE CODE ON THE STACK
   4666	004606	012700 	100000 			MOV	#KF.CLK,R0	; .FLAG BIT TO R0
   4667	004612	121627 	000002 			CMPB	(SP),#FX.CST	; .IS DFX CODE .EQ. 1?
   4668	004616	001411 				BEQ	10$		; .YES -- DO CLOCK STARTED STUFF
   4669	004620	121627 	000016 			CMPB	(SP),#FX.SMR	; .NO -- IS DFX CODE .GT. 7?
   4670	004624	101014 				BHI	20$		; .YES -- LEAVE NOW
   4671	004626	030037 	000000G			BIT	R0,.KLFLG	; .NO -- IS THE FLAG OFF ALREADY?
   4672	004632	001426 				BEQ	40$		; .YES -- LEAVE NOW
   4673	004634	040037 	000000G			BIC	R0,.KLFLG	; .NO -- TURN IF OFF
   4674	004640	000423 				BR	40$		; .AND GO AWAY
   4675						;
   4676	004642				10$:
   4677	004642	030037 	000000G			BIT	R0,.KLFLG	; .IS THE FLAG ON ALREADY?
   4678	004646	001020 				BNE	40$		; .YES -- LEAVE NOW
   4679	004650	050037 	000000G			BIS	R0,.KLFLG	; .NO -- LIGHT IT UP
   4680	004654	000415 				BR	40$		; .AND EXIT
   4681						;
   4682	004656				20$:
   4683	004656	012700 	040000 			MOV	#KF.RUN,R0	; .DO RUN FLAG STUFF
   4684	004662	121627 	000022 			CMPB	(SP),#FX.SRF	; .SET THE RUN FLOP?
   4685	004666	001003 				BNE	30$		; .NO -- GO ON
   4686	004670	050037 	000000G			BIS	R0,.KLFLG	; .YES -- SET THE FLAG
   4687	004674	000405 				BR	40$		; .AND GO AWAY
   4688						;
   4689	004676				30$:
   4690	004676	121627 	000020 			CMPB	(SP),#FX.CRF	; .CLEAR RUN FLOP?
   4691	004702	001002 				BNE	40$		; .NO  -- JUST GO AWAY
   4692	004704	040037 	000000G			BIC	R0,.KLFLG	; .YES -- CLEAR THE FLAG
   4693
   4694					;	[CONTINUED ON THE FOLLOWING PAGE]
KL10F -- KL10 FUNCTION MODULE  	MACRO M1113  03-APR-86 22:51  PAGE 111
.FXCT  -- DIAGNOSTIC FUNCTION EXECUTE SUBROUTINE 7609.15

   4696					;	[CONTINUED FROM THE PREVIOUS PAGE]
   4697
   4698	004710				40$:
   4700	004710	032737 	000001 	000264'		BIT	#TR.FXC,.TRKWD	; .ARE WE TRACKING FUNCTION EXECUTES?
   4701	004716	001402 				BEQ	50$		; .NO -- JUST EXIT
   4702	004720					CALL	.FXTRK		; .YES -- DO IT
	004720	004737 	012232'			 JSR	PC,.FXTRK
   4703	004724				50$:
   4705	004724					POP	R0		; .RESTORE R0
	004724	012600 				 MOV	(SP)+,R0
   4706	004726					RETURN			; TO CALLER
	004726	000207 				 RTS	PC
   4707	004730				FXCFXF:
   4708	004730					ERROR$	FXF		; FUNCTION EXECUTE FAILED
	004730	012746 	024506 			 MOV	#^RFXF,-(SP)
	004734	104400 				 TRAP	TC.ERR
   4709						;
   4710
   4711					; DIRECTIVE PARAMETER BLOCK DIAGNOSTIC FUNCTION EXECUTE
   4712
   4713					;	!===============================================!
   4714					; 00	!	DPB SIZE	!	DIC		!
   4715					;	!-----------------------------------------------!
   4716					; 02	!	DFX OPCODE	!	DFX CODE	!
   4717					;	!-----------------------------------------------!
   4718					; 04	!	    TRANSFER BUFFER ADDRESS		!
   4719					;	!-----------------------------------------------!
   4720					; 06	!	DIAGNOSTIC REGISTER BUFFER ADDRESS	!
   4721					;	!-----------------------------------------------!
   4722					; 10	!		DTE-20 NUMBER			!
   4723					;	!===============================================!
   4724
   4725
   4726	000362				.PSECT	DPBS
   4727
   4728	000362				.KLDFX::
   4729	000362					KLDX$	.-.,.DFBLK,.DREG,0
	000362	002411 				.WORD	400*5.+DR.DTE
	000364	   014 	   000 			.BYTE	DF.KLX,.-./400
	000366	000336'				.WORD	.DFBLK
	000370	000352'				.WORD	.DREG
	000372	000000 				.WORD	0
   4730		000372'			FXDTEN==.-2
   4731
   4732	004736				.PSECT
KL10F -- KL10 FUNCTION MODULE  	MACRO M1113  03-APR-86 22:51  PAGE 112
.KLCON -- KL CONTINUE SUBROUTINE 7710.11

   4734					.SBTTL	.KLCON -- KL CONTINUE SUBROUTINE 7710.11
   4735
   4736					;+
   4737					; .KLCON -- SUBROUTINE TO CONTINUE THE KL.
   4738					; .KLGO -- SUBROUTINE TO FINISH STARTING THE KL.
   4739					;
   4740					; THIS SUBROUTINE STARTS THE KL CLOCK AND SETS THE KL
   4741					; RUN FLOP ".KLCON" SETS THE CONTINUE FLOP PRIOR TO THIS.
   4742					;
   4743					; SEQUENCE OF OPERATION:
   4744					;
   4745					; .KLCON:
   4746					;
   4747					;	(A) THE KL CONTINUE FLOP IS SET,
   4748					;
   4749					; .KLGO:
   4750					;
   4751					;	(A) THE KL CLOCK IS STARTED IF NOT IN SINGLE PULSE MODE,
   4752					;	(B) THE KL RUN FLOP IS SET IF NOT IN SINGLE INSTRUCTION MODE
   4753					;	    OR SINGLE PULSE MODE.
   4754					;
   4755					; INPUT ARGUMENTS:
   4756					;
   4757					;	NONE.
   4758					;
   4759					; OUTPUT ARGUMENTS:
   4760					;
   4761					;	NONE.
   4762					;
   4763					; ERROR CODES RETURNED:
   4764					;
   4765					;	CFH -- CAN'T FIND KL HALT LOOP.
   4766					;	CSK -- CAN'T START KL.
   4767					;	DSF -- DTE-20 STATUS FAILURE.
   4768					;	FRF -- FUNCTION READ FAILED.
   4769					;	FWF -- FUNCTION WRITE FAILED.
   4770					;	FXF -- FUNCTION EXECUTE FAILED.
   4771					;-
KL10F -- KL10 FUNCTION MODULE  	MACRO M1113  03-APR-86 22:51  PAGE 113
.KLCON -- KL CONTINUE SUBROUTINE 7710.11

   4773	004736				.KLCON::
   4774	004736					PUSH	R1		; SAVE R1 ON THE STACK
	004736	010146 				 MOV	R1,-(SP)
   4775	004740	012701 	000000G			MOV	#.KLFLG,R1	; .FLAG WORD POINTER TO R1
   4776	004744				.KLGO::
   4777	004744	032711 	002000 			BIT	#KF.SPM,(R1)	; .SINGLE PULSE MODE?
   4778	004750	001027 				BNE	30$		; .YES -- JUST EXIT
   4779	004752	032711 	010000 			BIT	#KF.SIM,(R1)	; .NO -- SINGLE INSTRUCTION MODE?
   4780	004756	001002 				BNE	10$		; .YES -- GO ON
   4781	004760					CALL	.STRUN		; .NO -- SET THE KL RUN FLOP
	004760	004737 	007346'			 JSR	PC,.STRUN
   4782	004764				10$:
   4783	004764	012700 	000024 			MOV	#FX.CON,R0	; .SET THE CONTINUE BUTTON
   4784	004770					CALL	.FXCT		; .DO IT
	004770	004737 	004566'			 JSR	PC,.FXCT
   4785	004774	032711 	100000 			BIT	#KF.CLK,(R1)	; .IS THE CLOCK RUNNING?
   4786	005000	001002 				BNE	20$		; .YES -- EXIT
   4787	005002					CALL	.STCLK		; .NO -- START THE KL CLOCK
	005002	004737 	007246'			 JSR	PC,.STCLK
   4788	005006				20$:
   4789	005006	011100 				MOV	(R1),R0		; .GET ".KLFLG" INTO R0
   4790	005010	005100 				COM	R0		; .INVERT IT
   4791	005012	032700 	140000 			BIT	#KF.CLK!KF.RUN,R0 ; .IS THE KL RUNNING??
   4792	005016	001004 				BNE	30$		; .NO -- JUST EXIT
   4793	005020	052711 	000200 			BIS	#KF.CON,(R1)	; .YES -- KL IS NOW CONTINUEABLE
   4794	005024	105037 	000000G			CLRB	.NOHLT		; .LET RSX20F CATCH KL HALTS
   4795	005030				30$:
   4796	005030					POP	R1		; .RESTORE R1
	005030	012601 				 MOV	(SP)+,R1
   4797	005032					RETURN			; EXIT
	005032	000207 				 RTS	PC
KL10F -- KL10 FUNCTION MODULE  	MACRO M1113  03-APR-86 22:51  PAGE 114
.KLHLT -- SUBROUTINE TO STOP THE KL IN THE HALT LOOP 7601.09

   4799					.SBTTL	.KLHLT -- SUBROUTINE TO STOP THE KL IN THE HALT LOOP 7601.09
   4800
   4801					;+
   4802					; .KLHLT -- SUBROUTINE TO STOP THE KL IN THE HALT LOOP
   4803					;	    AND SYNCH THE EBOX CLOCK LOW.
   4804					;
   4805					; THIS SUBROUTINE CLEARS THE KL RUN FLOP, GETS THE KL INTO
   4806					; THE MICROCODE HALT LOOP, AND TURNS THE KL CLOCK OFF.
   4807					;
   4808					; SEQUENCE OF OPERATION:
   4809					;
   4810					;	(A) THE KL RUN FLOP IS TURNED OFF,
   4811					;	(B) THE KL IS MOVED INTO THE UCODE HALT LOOP,
   4812					;	(C) A SMALL WAIT IS TIMED OUT (TO LET KL I/O SETTLE)
   4813					;	(D) THE KL CLOCK IS TURNED OFF,
   4814					;	(E) THE KL CLOCK IS SYNCHED LOW.
   4815					;
   4816					; INPUT ARGUMENTS:
   4817					;
   4818					;	NONE.
   4819					;
   4820					; OUTPUT ARGUMENTS:
   4821					;
   4822					;	NONE.
   4823					;
   4824					; ERROR CODES RETURNED:
   4825					;
   4826					;	CFH -- CAN'T FIND KL HALT LOOP.
   4827					;	DSF -- DTE-20 STATUS FAILURE.
   4828					;	FWF -- FUNCTION WRITE FAILED.
   4829					;	FXF -- FUNCTION EXECUTE FAILED.
   4830					;
   4831					; NOTE: THIS SUBROUTINE EXITS WITH THE KL CLOCK OFF.
   4832					;-
   4833
   4834	005034				.KLHLT::
   4835	005034					PUSH	<R0,R1,R2>	; SAVE CALLER'S REGISTERS
	005034	010046 				 MOV	R0,-(SP)
	005036	010146 				 MOV	R1,-(SP)
	005040	010246 				 MOV	R2,-(SP)
   4836	005042					CALL	.DTDW1		; ...READ DIAG WORD 1
	005042	004737 	003530'			 JSR	PC,.DTDW1
   4837	005046	032700 	004000 			BIT	#D1.CES,R0	; ...IS CLOCK ERROR STOP UP?
   4839	005052	001016 				BNE	40$		; ...YES -- JUST EXIT
   4841	005054					CALL	.CLRFF		; ...NO -- CLEAR THE RUN FLOP
	005054	004737 	003420'			 JSR	PC,.CLRFF
   4842	005060	012701 	000024 			MOV	#^D20,R1	; ...SET UP WAIT COUNT
   4843
   4844					;	[CONTINUED ON THE FOLLOWING PAGE]
KL10F -- KL10 FUNCTION MODULE  	MACRO M1113  03-APR-86 22:51  PAGE 115
.KLHLT -- SUBROUTINE TO STOP THE KL IN THE HALT LOOP 7601.09

   4846					;	[CONTINUED FROM THE PREVIOUS PAGE]
   4847
   4848	005064				10$:
   4849	005064					CALL	.DTDW1		; ...READ THE DTE-20 DIAG WORD 1
	005064	004737 	003530'			 JSR	PC,.DTDW1
   4850	005070	032700 	001000 			BIT	#D1.HLP,R0	; ...IN THE HALT LOOP YET?
   4854	005074	001001 				BNE	20$		; ...YES -- EXIT
   4855	005076	077106 				SOB	R1,10$		; ...NO -- TRY TILL COUNT EXHAUSTED
   4856	005100				20$:
   4857	005100	005701 				TST	R1		; ...IS R1 .GT. 0?
   4858	005102	003407 				BLE	50$		; ...NO -- GO MOVE THE CLOCK MANUALLY
   4859	005104				30$:
   4860	005104					CALL	.STPXC		; ...STOP THE KL CLOCK
	005104	004737 	007316'			 JSR	PC,.STPXC
   4861	005110				40$:
   4862	005110					POP	<R2,R1,R0>	; ...RESTORE CALLER'S REGISTERS
	005110	012602 				 MOV	(SP)+,R2
	005112	012601 				 MOV	(SP)+,R1
	005114	012600 				 MOV	(SP)+,R0
   4863	005116					CALLR	.SYNXC		; SYNCH THE EBOX CLOCK LOW AND EXIT
	005116	000137 	007470'			 JMP	.SYNXC
   4864						;
   4865
   4866					; GET HERE IF WE CAN'T GET INTO HALT LOOP NORMALLY.
   4867					; THIS MEANS THAT:
   4868					;
   4869					;	(A) MICROCODE WASN'T RUNNING, OR
   4870					;	(B) MICROCODE WASN'T LOADED.
   4871
   4872	005122				50$:
   4873	005122					CALL	.STPXC		; ...MAKE SURE THE CLOCK IS OFF
	005122	004737 	007316'			 JSR	PC,.STPXC
   4874	005126	012702 	000012 			MOV	#^D10,R2	; ...ITERATION COUNT TO R2
   4875	005132				60$:
   4876	005132	012700 	000310 			MOV	#^D200,R0	; ...200 (DECIMAL) CLOCKS PER PASS
   4877	005136					CALL	.BURST		; ...BURST THE CLOCK
	005136	004737 	003340'			 JSR	PC,.BURST
   4878	005142					CALL	.DTDW1		; ...READ DTE-20 DIAG WORD 1
	005142	004737 	003530'			 JSR	PC,.DTDW1
   4879	005146	032700 	001000 			BIT	#D1.HLP,R0	; ...ARE WE IN HALT LOOP NOW?
   4883	005152	001354 				BNE	30$		; ...YES -- GO STOP AND SYNCH THE CLOCK
   4884	005154	077212 				SOB	R2,60$		; ...NO -- LOOP TILL COUNT EXHAUSTED
   4885	005156				KLHCFH:
   4886	005156					ERROR$	CFH		; ERROR -- CAN'T FIND HALT LOOP
	005156	012746 	011670 			 MOV	#^RCFH,-(SP)
	005162	104400 				 TRAP	TC.ERR
   4887						;
KL10F -- KL10 FUNCTION MODULE  	MACRO M1113  03-APR-86 22:51  PAGE 116
.KLST  -- SUBROUTINE TO START THE KL 7512.08

   4889					.SBTTL	.KLST  -- SUBROUTINE TO START THE KL 7512.08
   4890
   4891					; .KLST -- SUBROUTINE TO START THE KL.
   4892					;
   4893					; THIS SUBROUTINE STARTS THE KL FROM THE HALT LOOP AT THE ADDRESS
   4894					; POINTED T0 BY R1 IN THE CALL.
   4895					;
   4896					; SEQUENCE OF OPERATION:
   4897					;
   4898					;	(A) THE KL IS STOPPED IN THE HALT LOOP,
   4899					;	(B) THE PC WORD IS LOADED INTO THE AR REGISTER,
   4900					;	(C) THE KL IS ALLOWED TO RUN THRU ".KLCON".
   4901					;
   4902					; INPUT ARGUMENTS:
   4903					;
   4904					;	R1 POINTS TO A 23 BIT KL ADDRESS
   4905					;
   4906					; OUTPUT ARGUMENTS:
   4907					;
   4908					;	NONE.
   4909					;
   4910					; ERROR CODES RETURNED:
   4911					;
   4912					;	CFH -- CAN'T FIND KL HALT LOOP.
   4913					;	CSK -- CAN'T START KL.
   4914					;	DSF -- DTE-20 STATUS FAILURE.
   4915					;	FRF -- FUNCTION READ FAILED.
   4916					;	FWF -- FUNCTION WRITE FAILED.
   4917					;	FXF -- FUNCTION EXECUTE FAILED.
   4918					;
   4919					; NOTE:
   4920					;
   4921					;	THIS SUBROUTINE IS DEPENDENT UPON MICROCODE VERSION 122.
   4922					;-
   4923
   4924	005164				.KLST::
   4925	005164					PUSH	R1		; SAVE POINTER ON THE STACK
	005164	010146 				 MOV	R1,-(SP)
   4926	005166					CALL	.KLHLT		; .HALT THE KL
	005166	004737 	005034'			 JSR	PC,.KLHLT
   4927	005172	011601 				MOV	(SP),R1		; .GET THE POINTER
   4928	005174	012700 	000176 			MOV	#FW.LAR,R0	; .LOAD THE AR REGISTER
   4929	005200					CALL	.FWRIT		; .DO IT
	005200	004737 	004444'			 JSR	PC,.FWRIT
   4930	005204	012701 	000000G			MOV	#.KLFLG,R1	; .POINT TO ".KLFLG"
   4931	005210	000655 				BR	.KLGO		; .AND FINISH THE START
   4932						;
KL10F -- KL10 FUNCTION MODULE  	MACRO M1113  03-APR-86 22:51  PAGE 117
.KLSTP -- SUBROUTINE TO GET THE KL INTO THE HALT LOOP 7512.19

   4934					.SBTTL	.KLSTP -- SUBROUTINE TO GET THE KL INTO THE HALT LOOP 7512.19
   4935
   4936					;+
   4937					; .KLSTP -- SUBROUTINE TO PUT THE KL INTO THE HALT LOOP.
   4938					;
   4939					; THIS SUBROUTINE WILL PUT THE KL INTO THE MICROCODE HALT LOOP
   4940					; AND EXIT WITH THE KL CLOCK RUNNING.
   4941					;
   4942					; INPUT ARGUMENTS:
   4943					;
   4944					;	NONE.
   4945					;
   4946					; OUTPUT ARGUMENTS:
   4947					;
   4948					;	NONE.
   4949					;
   4950					; ERROR CODES RETURNED:
   4951					;
   4952					;	CFH -- CAN'T FIND HALT LOOP.
   4953					;	DSF -- DTE-20 STATUS FAILURE.
   4954					;	FXF -- FUNCTION EXECUTE FAILED.
   4955					;-
   4956
   4957
   4958	005212				.KLSTP::
   4959	005212	032737 	100000 	000000G		BIT	#KF.CLK,.KLFLG	; IS THE CLOCK OFF?
   4960	005220	001001 				BNE	10$		; NO -- GO ON
   4961	005222	000704 				BR	.KLHLT		; YES -- HALT THE KL
   4962						;
   4963	005224				10$:
   4964	005224					PUSH	<R0,R1>		; SAVE R0 AND R1 ON THE STACK
	005224	010046 				 MOV	R0,-(SP)
	005226	010146 				 MOV	R1,-(SP)
   4965	005230	012701 	000144 			MOV	#^D100,R1	; ..SETUP WAIT COUNT
   4966	005234					CALL	.CLRFF		; ..CLEAR THE RUN FLOP
	005234	004737 	003420'			 JSR	PC,.CLRFF
   4967	005240				20$:
   4968	005240					CALL	.DTDW1		; ..READ DIAG WORD 1
	005240	004737 	003530'			 JSR	PC,.DTDW1
   4969	005244	032700 	001000 			BIT	#D1.HLP,R0	; ..ARE WE IN THE HALT LOOP?
   4973	005250	001001 				BNE	30$		; ..YES -- GO ON
   4974	005252	077106 				SOB	R1,20$		; ..NO -- KEEP TRYING
   4975	005254				30$:
   4976	005254	005701 				TST	R1		; ..IS R1 .GT. 0?
   4977	005256	003403 				BLE	KLSCFH		; ..NO -- GIVE "CFH" ERROR
   4978	005260					POP	<R1,R0>		; ..YES -- RESTORE REGISTERS
	005260	012601 				 MOV	(SP)+,R1
	005262	012600 				 MOV	(SP)+,R0
   4979	005264					RETURN			; TO CALLER
	005264	000207 				 RTS	PC
   4980	005266				KLSCFH:
   4981	005266					ERROR$	CFH		; ERROR -- CAN'T FIND KL HALT LOOP
	005266	012746 	011670 			 MOV	#^RCFH,-(SP)
	005272	104400 				 TRAP	TC.ERR
   4982						;
   4983	004242				.PSECT	DATA
   4984	004242				STPCI:
KL10F -- KL10 FUNCTION MODULE  	MACRO M1113  03-APR-86 22:51  PAGE 117-1
.KLSTP -- SUBROUTINE TO GET THE KL INTO THE HALT LOOP 7512.19

   4985	004242					IOKL$	CONO	KLP,,400000
	004242	   000 	   000 			 .BYTE	$$A,$$B
	004244	   002 	   176 			 .BYTE	$$C,$$D
	004246	   017 	   000 			 .BYTE	$$E,$$F
   4986	005274				.PSECT
   4987	005274				KLPSTP::
   4988	005274					PUSH	R0
	005274	010046 				 MOV	R0,-(SP)
   4989	005276	012700 	004242'			MOV	#STPCI,R0
   4990	005302					CALL	.EXCTF
	005302	004737 	004150'			 JSR	PC,.EXCTF
   4991	005306					POP	R0
	005306	012600 				 MOV	(SP)+,R0
KL10F -- KL10 FUNCTION MODULE  	MACRO M1113  03-APR-86 22:51  PAGE 118
.KLRST -- SUBROUTINE TO RESTART THE KL 7512.22

   4993					.SBTTL	.KLRST -- SUBROUTINE TO RESTART THE KL 7512.22
   4994
   4995					;+
   4996					; .KLRST -- SUBROUTINE TO RESTART THE KL.
   4997					;
   4998					; THIS SUBROUTINE WILL RESTART THE KL AS DIRECTED BY ".SVKLF",
   4999					; THE SAVED KL STATE FLAG WORD.
   5000					;
   5001					; INPUT ARGUMENTS:
   5002					;
   5003					;	THE SAVED COPY OF ".KLFLG" IS IN ".SVKLF"
   5004					;
   5005					; OUTPUT ARGUMENTS:
   5006					;
   5007					;	".SVKLF" IS CLEARED.
   5008					;
   5009					; ERROR CODES RETURNED:
   5010					;
   5011					;	CFH -- CAN'T FIND KL HALT LOOP.
   5012					;	DSF -- DTE-20 STATUS FAILURE.
   5013					;	FRF -- FUNCTION READ FAILED.
   5014					;	FWF -- FUNCTION WRITE FAILED.
   5015					;	FXF -- FUNCTION EXECUTE FAILED.
   5016					;-
KL10F -- KL10 FUNCTION MODULE  	MACRO M1113  03-APR-86 22:51  PAGE 119
.KLRST -- SUBROUTINE TO RESTART THE KL 7512.22

   5018	005310				.KLRST::
   5019	005310					PUSH	<R1,R0>		; SAVE R0 AND R1
	005310	010146 				 MOV	R1,-(SP)
	005312	010046 				 MOV	R0,-(SP)
   5020	005314	013701 	000260'			MOV	.SVKLF,R1	; ..GET COPY OF OLD FLAGS
   5021	005320	032701 	013000 			BIT	#KF.SPM!KF.SIM!KF.BRM,R1
   5022	005324	001016 				BNE	20$		; ..BRANCH IF BURST, SINGLE INSTRUCTION OR PULSE MODE
   5023	005326	005101 				COM	R1		; ..INVERT R1
   5024	005330	032701 	140000 			BIT	#KF.RUN!KF.CLK,R1
   5025	005334	001011 				BNE	10$		; ..BRANCH IF NOT RUNNING
   5026	005336					CALL	.STRUN		; ..SET THE RUN FLOP
	005336	004737 	007346'			 JSR	PC,.STRUN
   5027	005342	012700 	000024 			MOV	#FX.CON,R0	; ..NOW DO THE CONTINUE BUTTON
   5028	005346					CALL	.FXCT		; ..SO
	005346	004737 	004566'			 JSR	PC,.FXCT
   5029	005352	013701 	000260'			MOV	.SVKLF,R1	; ..ELSE GET THE WORD AGAIN
   5030	005356	000406 				BR	30$		; ..AND GO AWAY
   5031						;
   5032	005360				10$:
   5033	005360	005101 				COM	R1		; ..STRAIGHTEN R1 OUT
   5034	005362				20$:
   5035	005362	032701 	040000 			BIT	#KF.RUN,R1	; ..WAS RUN FLOP SET?
   5036	005366	001402 				BEQ	30$		; ..NO -- GO ON
   5037	005370					CALL	.STRUN		; ..YES -- SET THE RUN FLOP
	005370	004737 	007346'			 JSR	PC,.STRUN
   5038	005374				30$:
   5039	005374	032701 	100000 			BIT	#KF.CLK,R1	; ..WAS CLOCK RUNNING?
   5040	005400	001413 				BEQ	40$		; ..NO -- JUST EXIT
   5041	005402	032737 	100000 	000000G		BIT	#KF.CLK,.KLFLG	; ..YES -- IS THE CLOCK ALREADY ON?
   5042	005410	001007 				BNE	40$		; ..YES -- JUST EXIT
   5043	005412					CALL	.STCLK		; ..NO -- START THE CLOCK
	005412	004737 	007246'			 JSR	PC,.STCLK
   5044	005416	032701 	040000 			BIT	#KF.RUN,R1	; ..DID WE LET IT RUN ?
   5045	005422	001402 				BEQ	40$		; ..NO -- JUST EXIT
   5046	005424	105037 	000000G			CLRB	.NOHLT		; ..YES -- LET RSX20F CHECK FOR HALTS
   5047	005430				40$:
   5048	005430					POP	<R0,R1>		; ..RESTORE R0 AND R1
	005430	012600 				 MOV	(SP)+,R0
	005432	012601 				 MOV	(SP)+,R1
   5049	005434	005037 	000260'			CLR	.SVKLF		; RESET ".SVKLF"
   5050	005440					RETURN			; AND EXIT
	005440	000207 				 RTS	PC
KL10F -- KL10 FUNCTION MODULE  	MACRO M1113  03-APR-86 22:51  PAGE 120
.KLXCT -- KL INSTRUCTION EXECUTE SUBROUTINE 7509.10

   5052					.SBTTL	.KLXCT -- KL INSTRUCTION EXECUTE SUBROUTINE 7509.10
   5053
   5054					;+
   5055					; .KLXCT -- SUBROUTINE TO EXECUTE A KL INSTRUCTION.
   5056					;
   5057					; THIS SUBROUTINE LOADS A KL INSTRUCTION INTO THE AR REGISTER
   5058					; AND CAUSES THAT INSTRUCTION TO BE EXECUTED.
   5059					;
   5060					; SEQUENCE OF OPERATION:
   5061					;
   5062					;	(A) THE KL IS STOPPED IN THE HALT LOOP WITH THE CLOCK OFF,
   5063					;	(B) INSTRUCTION TO BE EXECUTED IS LOADED INTO THE AR,
   5064					;	(C) THE KL CONTINUE FLOP IS SET.
   5065					;
   5066					; INPUT ARGUMENTS:
   5067					;
   5068					;	R1 POINTS TO A 36 BIT KL INSTRUCTION WORD
   5069					;
   5070					; OUTPUT ARGUMENTS:
   5071					;
   5072					;	NONE.
   5073					;
   5074					; ERROR CODES RETURNED:
   5075					;
   5076					;	CFH -- CAN'T FIND KL HALT LOOP.
   5077					;	DSF -- DTE-20 STATUS FAILURE.
   5078					;	FRF -- FUNCTION READ FAILED.
   5079					;	FWF -- FUNCTION WRITE FAILED.
   5080					;	FXF -- FUNCTION EXECUTE FAILED.
   5081					;-
   5082
   5083	005442				.KLXCT::
   5084	005442					CALL	.KLHLT		; STOP THE KL IN THE HALT LOOP
	005442	004737 	005034'			 JSR	PC,.KLHLT
   5085	005446	012700 	000176 			MOV	#FW.LAR,R0	; LOAD THE AR REGISTER
   5086	005452					CALL	.FWRIT		; DO IT
	005452	004737 	004444'			 JSR	PC,.FWRIT
   5087	005456	012700 	000024 			MOV	#FX.CON,R0	; SET THE "CONTINUE BUTTON"
   5088	005462					CALLR	.FXCT		; DO IT AND RETURN
	005462	000137 	004566'			 JMP	.FXCT
   5089						;
KL10F -- KL10 FUNCTION MODULE  	MACRO M1113  03-APR-86 22:51  PAGE 121
.LDBRG -- MBOX BURST COUNT LOAD SUBROUTINE 7601.02

   5091					.SBTTL	.LDBRG -- MBOX BURST COUNT LOAD SUBROUTINE 7601.02
   5092
   5093					;+
   5094					; .LDBRC -- SUBROUTINE TO STOP THE KL CLOCK AND LOAD THE
   5095					;	    MBOX BURST COUNT REGISTER AS IN ".LDBRG".
   5096					; .LDBRG -- SUBROUTINE TO LOAD THE MBOX CLOCK BURST COUNTER.
   5097					;
   5098					; THIS SUBROUTINE LOADS THE KL MBOX BURST COUNT REGISTER
   5099					; WITH THE COUNT PASSED TO IT IN R0.
   5100					;
   5101					; INPUT ARGUMENTS:
   5102					;
   5103					;	R0 CONTAINS THE CLOCK COUNT
   5104					;
   5105					; OUTPUT ARGUMENTS:
   5106					;
   5107					;	NONE.
   5108					;
   5109					; ERROR CODES RETURNED:
   5110					;
   5111					;	FWF -- FUNCTION WRITE FAILED.
   5112					;	FXF -- FUNCTION EXECUTE FAILED.
   5113					;-
KL10F -- KL10 FUNCTION MODULE  	MACRO M1113  03-APR-86 22:51  PAGE 122
.LDBRG -- MBOX BURST COUNT LOAD SUBROUTINE 7601.02

   5115	005466				.LDBRC::
   5116	005466					CALL	.STPXC		; STOP THE KL CLOCK
	005466	004737 	007316'			 JSR	PC,.STPXC
   5117	005472				.LDBRG::
   5118	005472					PUSH	<R1,R0>		; SAVE R1 AND R0 ON THE STACK
	005472	010146 				 MOV	R1,-(SP)
	005474	010046 				 MOV	R0,-(SP)
   5119	005476					CALL	.CLDFB		; ..CLEAR THE DFW BUFFERS
	005476	004737 	003370'			 JSR	PC,.CLDFB
   5120	005502	011600 				MOV	(SP),R0		; ..GET THE BURST COUNT FROM THE STACK
   5121	005504	042700 	177760 			BIC	#177760,R0	; ..CLEAR UNUSED BITS
   5122	005510	010037 	000336'			MOV	R0,.DFWB	; ..SET RIGHT COUNT IN THE BUFFER
   5123	005514	012700 	000104 			MOV	#FW.LBR,R0	; ..SET UP TO LOAD THE RIGHT HALF
   5124	005520	005001 				CLR	R1		; ..CLEAR R1
   5125	005522					CALL	.FWRIT		; ..DO IT
	005522	004737 	004444'			 JSR	PC,.FWRIT
   5126	005526	011600 				MOV	(SP),R0		; ..GET THE ORIGINAL COUNT FROM THE STACK
   5127	005530	012701 	177774 			MOV	#-^D4,R1	; ..SHIFT COUNT TO R1
   5128	005534					CALL	.SHIFT		; ..SHIFT IT RIGHT 4 PLACES
	005534	004737 	011130'			 JSR	PC,.SHIFT
   5129	005540	042700 	177760 			BIC	#177760,R0	; ..CLEAR UNUSED BITS
   5130	005544	010037 	000336'			MOV	R0,.DFWB	; ..PUT THE HIGH COUNT IN THE WRITE BUFFER
   5131	005550	005001 				CLR	R1		; ..CLEAR R1
   5132	005552	012700 	000106 			MOV	#FW.LBL,R0	; ..SET UP TO LOAD THE LEFT HALF
   5133	005556					CALL	.FWRIT		; ..DO IT
	005556	004737 	004444'			 JSR	PC,.FWRIT
   5134	005562					POP	<R0,R1>		; ..RESTORE R0 AND R1
	005562	012600 				 MOV	(SP)+,R0
	005564	012601 				 MOV	(SP)+,R1
   5135	005566					RETURN			; AND LEAVE
	005566	000207 				 RTS	PC
KL10F -- KL10 FUNCTION MODULE  	MACRO M1113  03-APR-86 22:51  PAGE 123
.LDCPC -- KL CLOCK AND PARITY LOAD SUBROUTINES 7509.30

   5137					.SBTTL	.LDCPC -- KL CLOCK AND PARITY LOAD SUBROUTINES 7509.30
   5138
   5139					;+
   5140					; .LDCLK -- SUBROUTINE TO LOAD THE KL CLOCK CONTROL REGISTERS.
   5141					; .LDPAR -- SUBROUTINE TO LOAD THE KL PARITY CONTROL REGISTERS.
   5142					;
   5143					; THESE SUBROUTINES SET UP THE KL CLOCK SOURCE, RATE, AND
   5144					; DISTRIBUTION REGISTERS OR THE PARITY CONTROL REGISTERS.
   5145					;
   5146					; SEQUENCE OF OPERATION:
   5147					;
   5148					; .LDCLK:
   5149					;
   5150					;	(A) THE KL CLOCK SOURCE, RATE, AND DISTRIBUTION
   5151					;	    PARAMETERS ARE SET IN THE CLOCK CONTROL REGISTERS,
   5152					;	(B) THE PARAMETERS WRITTEN IN (A) ARE SAVED IN THE
   5153					;	    CLOCK STATUS WORD (".CLKWD").
   5154					;
   5155					; .LDPAR:
   5156					;
   5157					;	(A) THE KL INTERNAL PARITY CONTROL BITS ARE WRITTEN INTO THE
   5158					;	    PARITY CONTROL REGISTER,
   5159					;	(B) THE CONTROL BITS WITTEN IN (A) ARE SAVED IN THE PARITY
   5160					;	    CONTROL WORD (".PSCWD").
   5161					;
   5162					; INPUT ARGUMENTS:
   5163					;
   5164					;	R1 POINTS TO A PARAMETER WORD
   5165					;
   5166					; THE CLOCK PARAMETER POINTER POINTS TO A WORD WITH FORMAT:
   5167					;
   5168					;		!========================================!
   5169					;		!   DISTRIBUTION   !   SOURCE AND RATE   !
   5170					;		!========================================!
   5171					;
   5172					; THE PARITY PARAMETER POINTER POINTS TO A WORD WITH FORMAT:
   5173					;
   5174					;		!========================================!
   5175					;		!   CONTROL BITS   !   CLOCK STOP BITS	 !
   5176					;		!========================================!
   5177					;
   5178					; OUTPUT ARGUMENTS:
   5179					;
   5180					;	R0 CONTAINS A COPY OF THE UPDATED PARAMTER WORD
   5181					;
   5182					; ERROR CODES RETURNED:
   5183					;
   5184					;	FWF -- FUNCTION WRITE FAILED.
   5185					;-
KL10F -- KL10 FUNCTION MODULE  	MACRO M1113  03-APR-86 22:51  PAGE 124
.LDCPC -- KL CLOCK AND PARITY LOAD SUBROUTINES 7509.30

   5187						.ENABL	LSB
   5188
   5189	005570				.LDCLK::
   5190	005570					CALL	R5,.REGSV	; SAVE R5 - R1 ON THE STACK
	005570	004537 	010316'			 JSR	R5,.REGSV
   5191	005574	012703 	000012'			MOV	#.CLKWD,R3	; CONTROL WORD POINTER TO R3
   5192	005600	012704 	000110 			MOV	#FW.CSR,R4	; BASE CLOCK WRITE TO R4
   5193	005604	000406 				BR	10$		; DO COMMON CODE
   5194						;
   5195	005606				.LDPAR::
   5196	005606					CALL	R5,.REGSV	; SAVE R5 - R1 ON THE STACK
	005606	004537 	010316'			 JSR	R5,.REGSV
   5197	005612	012703 	000236'			MOV	#.PSCWD,R3	; CONTROL WORD POINTER TO R3
   5198	005616	012704 	000114 			MOV	#FW.IPE,R4	; BASE PARITY WRITE TO R4
   5199									; FALL INTO COMMON CODE
   5200	005622				10$:
   5201	005622	010102 				MOV	R1,R2		; CALLER'S PARAMETER POINTER TO R2
   5202	005624					CALL	.CLDFW		; CLEAR THE WRITE BUFFER
	005624	004737 	003404'			 JSR	PC,.CLDFW
   5203	005630	005001 				CLR	R1		; CLEAR R1
   5204	005632	111237 	000336'			MOVB	(R2),.DFWB	; SET LOW BYTE PARAMETER
   5205	005636	010400 				MOV	R4,R0		; DFW CODE TO R0
   5206	005640					CALL	.FWRIT		; DO IT
	005640	004737 	004444'			 JSR	PC,.FWRIT
   5207	005644	112223 				MOVB	(R2)+,(R3)+	; MARK THE NEW LOW BYTE CODE
   5208	005646	005724 				TST	(R4)+		; NEXT WRITE CODE
   5209	005650	111210 				MOVB	(R2),(R0)	; SET THE HIGH BYTE PARAMETERS
   5210	005652	010400 				MOV	R4,R0		; DFW CODE TO R0
   5211	005654					CALL	.FWRIT		; DO IT
	005654	004737 	004444'			 JSR	PC,.FWRIT
   5212	005660	111223 				MOVB	(R2),(R3)+	; MARK THE NEW HIGH BYTE CODE
   5213	005662	014300 				MOV	-(R3),R0	; PUT A COPY IN R0
   5214	005664					RETURN			; EXIT
	005664	000207 				 RTS	PC
   5215
   5216						.DSABL	LSB
KL10F -- KL10 FUNCTION MODULE  	MACRO M1113  03-APR-86 22:51  PAGE 125
.LDCRA -- LOAD CRAM ADDRESS SUBROUTINE 7511.19

   5218					.SBTTL	.LDCRA -- LOAD CRAM ADDRESS SUBROUTINE 7511.19
   5219
   5220					;+
   5221					; .LDCRA -- SUBROUTINE TO LOAD A 12 BIT ADDRESS INTO THE
   5222					;	    KL CRAM ADDRESS REGISTER.
   5223					;
   5224					; THIS SUBROUTINE LOADS A 12 BIT CRAM ADDRESS INTO THE
   5225					; KL CRAM ADDRESS REGISTER.
   5226					;
   5227					; SEQUENCE OF OPERATION:
   5228					;
   5229					;	(A) THE KL CLOCK IS TURNED OFF (BY (B)),
   5230					;	(B) THE KL CRAM ADDRESS IS CLEARED BY ".RESET",
   5231					;	(C) THE ADDRESS IS LOADED INTO CRAM DIAG ADDR.
   5232					;
   5233					; INPUT ARGUMENTS:
   5234					;
   5235					;	R0 CONTAINS THE CRAM ADDRESS TO BE LOADED
   5236					;
   5237					; OUTPUT ARGUMENTS:
   5238					;
   5239					;	NONE.
   5240					;
   5241					; ERROR CODES RETURNED:
   5242					;
   5243					;	FWF -- FUNCTION WRITE FAILED.
   5244					;-
KL10F -- KL10 FUNCTION MODULE  	MACRO M1113  03-APR-86 22:51  PAGE 126
.LDCRA -- LOAD CRAM ADDRESS SUBROUTINE 7511.19

   5246	005666				.LDCRA::
   5247	005666	042700 	170000 			BIC	#170000,R0	; CLEAR UNUSED BITS
   5248	005672					PUSH	<R1,R0>		; PUT R0 AND R1 ON THE STACK
	005672	010146 				 MOV	R1,-(SP)
	005674	010046 				 MOV	R0,-(SP)
   5249	005676					CALL	.RESTP		; ..CLEAR CRAM DIAG ADDR AND CRAM ADDR
	005676	004737 	007146'			 JSR	PC,.RESTP
   5250									; ..ALSO RETAIN CLOCK AND PARITY CONTROL
   5251	005702					CALL	.CLDFW		; ..CLEAR THE FW BUFFER
	005702	004737 	003404'			 JSR	PC,.CLDFW
   5252	005706	012700 	000336'			MOV	#.DFWB,R0	; ..SET UP THE BUFFER ADDRESS
   5253	005712	011610 				MOV	(SP),(R0)	; ..LOAD THE ADDRESS FROM THE STACK
   5254	005714	001427 				BEQ	10$		; ..LEAVE NOW IF ZERO
   5255	005716	042710 	174077 			BIC	#174077,(R0)	; ..CLEAR UNWANTED BITS
   5256	005722	012701 	000030 			MOV	#^D24,R1	; ..SHIFT COUNT TO R1
   5257	005726					CALL	.TPSHI		; ..SHIFT IT OVER
	005726	004737 	011772'			 JSR	PC,.TPSHI
   5258	005732	005001 				CLR	R1		; ..CLEAR R1
   5259	005734	012700 	000124 			MOV	#FW.CA2,R0	; ..SET UP TO WRITE IT
   5260	005740					CALL	.FWRIT		; ..DO IT
	005740	004737 	004444'			 JSR	PC,.FWRIT
   5261	005744	011610 				MOV	(SP),(R0)	; ..GET ADDRESS FROM THE STACK AGAIN
   5262	005746	042710 	177700 			BIC	#177700,(R0)	; ..CLEAR UNWANTED BITS
   5263	005752	012701 	000036 			MOV	#^D30,R1	; ..SHIFT COUNT TO R1
   5264	005756					CALL	.TPSHI		; ..SHIFT THAT OVER
	005756	004737 	011772'			 JSR	PC,.TPSHI
   5265	005762	005001 				CLR	R1		; ..CLEAR R1
   5266	005764	012700 	000122 			MOV	#FW.CA1,R0	; ..SET UP TO WRITE IT
   5267	005770					CALL	.FWRIT		; ..DO IT
	005770	004737 	004444'			 JSR	PC,.FWRIT
   5268	005774				10$:
   5269	005774					POP	<R0,R1>		; ..RESTORE REGISTERS
	005774	012600 				 MOV	(SP)+,R0
	005776	012601 				 MOV	(SP)+,R1
   5270	006000					RETURN			; EXIT TO CALLER
	006000	000207 				 RTS	PC
KL10F -- KL10 FUNCTION MODULE  	MACRO M1113  03-APR-86 22:51  PAGE 127
.MRCLR -- KL MASTER RESET SUBROUTINE 7607.15

   5272					.SBTTL	.MRCLR -- KL MASTER RESET SUBROUTINE 7607.15
   5273
   5274					;+
   5275					; .MRCLR -- SUBROUTINE TO CLEAR THE KL IN THE MASTER RESET STATE.
   5276					;
   5277					; THIS SUBROUTINE SETS THE KL MASTER RESET FLOP AND ALLOWS THE
   5278					; KL CLOCK TO RUN, CLEARING THE KL.
   5279					;
   5280					; SEQUENCE OF OPERATION:
   5281					;
   5282					;	(A) THE MASTER RESET FLOP IS SET,
   5283					;	(B) THE KL CLOCK IS ALLOWED TO RUN FOR A SHORT TIME,
   5284					;	(C) THE NXM TIMERS ARE RESYNCHRONIZED,
   5285					;	(D) THE KL CLOCK IS STOPPED AND SYNCHED,
   5286					;	(E) THE MASTER RESET FLOP IS CLEARED.
   5287					;
   5288					; INPUT ARGUMENTS:
   5289					;
   5290					;	NONE.
   5291					;
   5292					; OUTPUT ARGUMENTS:
   5293					;
   5294					;	NONE.
   5295					;
   5296					; ERROR CODES RETURNED:
   5297					;
   5298					;	FRF -- FUNCTION READ FAILED.
   5299					;	FWF -- FUNCTION WRITE FAILED.
   5300					;	FXF -- FUNCTION EXECUTE FAILED.
   5301					;-
   5302
   5303	006002				.MRCLR::
   5304	006002					PUSH	<R0,R1,R2>	; SAVE REGISTERS
	006002	010046 				 MOV	R0,-(SP)
	006004	010146 				 MOV	R1,-(SP)
	006006	010246 				 MOV	R2,-(SP)
   5305	006010	012700 	000016 			MOV	#FX.SMR,R0	; ...SET MASTER RESET FLOP
   5306	006014					CALL	.FXCT		; ...DO IT
	006014	004737 	004566'			 JSR	PC,.FXCT
   5307	006020	052737 	020000 	000000G		BIS	#KF.MRS,.KLFLG	; ...SET THE FLAG
   5308	006026					CALL	.STCLF		; ...FORCE START THE KL CLOCK
	006026	004737 	007254'			 JSR	PC,.STCLF
   5309	006032	012701 	000764 			MOV	#^D500,R1	; ...SET UP WAIT COUNT
   5310
   5311					;	[CONTINUED ON THE FOLLOWING PAGE]
KL10F -- KL10 FUNCTION MODULE  	MACRO M1113  03-APR-86 22:51  PAGE 128
.MRCLR -- KL MASTER RESET SUBROUTINE 7607.15

   5313					;	[CONTINUED FROM THE PREVIOUS PAGE]
   5314
   5315	006036				10$:
   5316	006036	077101 				SOB	R1,10$		; ...STALL A WHILE
   5317	006040					CALL	.STPXC		; ...STOP THE KL CLOCK
	006040	004737 	007316'			 JSR	PC,.STPXC
   5318	006044					CALL	.CLDFB		; ...CLEAR THE FUNCTION BUFFERS
	006044	004737 	003370'			 JSR	PC,.CLDFB
   5319	006050	012700 	000160 			MOV	#FW.CHN,R0	; ...CLEAR THE CHANNELS
   5320	006054					CALL	.FWRIT		; ...DO IT
	006054	004737 	004444'			 JSR	PC,.FWRIT
   5321	006060	012702 	000003 			MOV	#^D3,R2		; ...LOOP COUNT TO R2
   5322	006064				20$:				; ...HERE TO RESYNCH THE NXM TIMERS
   5323	006064	005001 				CLR	R1		; ...CLEAR R1
   5324	006066	012700 	000344 			MOV	#FR.162,R0	; ...LOOK FOR [A CHANGE COMING L]
   5325	006072					CALL	.FREAD		; ...DO THE READ
	006072	004737 	004362'			 JSR	PC,.FREAD
   5326	006076	032710 	000010 			BIT	#BIT03,(R0)	; ...IS IT THERE?
   5330	006102	001405 				BEQ	30$		; ...YES -- GO ON
   5331	006104	012700 	000004 			MOV	#FX.MBC,R0	; ...NO -- STEP THE CLOCK
   5332	006110					CALL	.FXCT		; ...DO IT
	006110	004737 	004566'			 JSR	PC,.FXCT
   5333	006114	077215 				SOB	R2,20$		; ...LOOP THREE TIMES MAX
   5334	006116				30$:
   5335	006116					CALL	.SYNXC		; ...SYNCH THE CLOCK
	006116	004737 	007470'			 JSR	PC,.SYNXC
   5336	006122	012700 	000014 			MOV	#FX.CMR,R0	; ...CLEAR MASTER RESET FLOP
   5337	006126					CALL	.FXCT		; ...DO IT
	006126	004737 	004566'			 JSR	PC,.FXCT
   5338	006132	042737 	020300 	000000G		BIC	#KF.MRS!KF.CON!KF.CES,.KLFLG
   5339									; ...CLEAR THE FLAGS
   5340	006140					POP	<R2,R1,R0>	; ...RESTORE REGISTERS
	006140	012602 				 MOV	(SP)+,R2
	006142	012601 				 MOV	(SP)+,R1
	006144	012600 				 MOV	(SP)+,R0
   5341	006146					RETURN			; EXIT TO CALLER
	006146	000207 				 RTS	PC
KL10F -- KL10 FUNCTION MODULE  	MACRO M1113  03-APR-86 22:51  PAGE 129
.RDCPP -- SUBOUTINE TO READ THE KL CLOCK AND PARITY ENABLES 75

   5343					.SBTTL	.RDCPP -- SUBOUTINE TO READ THE KL CLOCK AND PARITY ENABLES 7510.09
   5344
   5345					;+
   5346					; .RDCPP -- SUBROUTINE TO READ THE KL CLOCK AND INTERNAL PARITY
   5347					;	    CHECKING PARAMETERS.
   5348					;
   5349					; THIS SUBROUTINE READS THE KL CLOCK SOURCE, RATE AND DISTRIBUTION
   5350					; ENABLES AS WELL AS THE KL INTERNAL PARITY ENABLES AND MAINTAINS
   5351					; THEM IN ".CLKWD" AND ".PSCWD", RESPECTIVELY.
   5352					;
   5353					; INPUT ARGUMENTS:
   5354					;
   5355					;	NONE.
   5356					;
   5357					; OUTPUT ARGUMENTS:
   5358					;
   5359					;	".CLKWD" AND ".PSCWD" CONTAIN THE UPDATED CLOCK AND
   5360					;	PARITY ENABLES.
   5361					;
   5362					; ERROR CODES RETURNED:
   5363					;
   5364					;	FRF -- FUNCTION READ FAILED.
   5365					;-
   5366
   5367	006150				.RDCPP::
   5368	006150					CALL	R5,.REGSV	; SAVE R5 - R1 ON THE STACK
	006150	004537 	010316'			 JSR	R5,.REGSV
   5369	006154					PUSH	R0		; R0 TOO
	006154	010046 				 MOV	R0,-(SP)
   5370	006156	012704 	000004 			MOV	#^D4,R4		; .USE R4 AS A COUNTER
   5371	006162	012703 	004270'			MOV	#RDCPT1,R3	; .BIT TEST TABLE POINTER TO R3
   5372	006166	012705 	004260'			MOV	#RDCPT3,R5	; .SAVE AREA POINTER TO R5
   5373	006172				10$:
   5374	006172	112300 				MOVB	(R3)+,R0	; .FR CODE TO R0
   5375	006174	005001 				CLR	R1		; .CLEAR R1
   5376	006176					CALL	.FREAD		; .READ A WORD
	006176	004737 	004362'			 JSR	PC,.FREAD
   5377	006202	011025 				MOV	(R0),(R5)+	; .SAVE BITS 20 THRU 35 IN TABLE
   5378	006204	077406 				SOB	R4,10$		; .READ ALL FOUR OF THEM
   5379	006206	005037 	000012'			CLR	.CLKWD		; .CLEAR THE OLD CLOCK PARAMETERS
   5380	006212	005037 	000236'			CLR	.PSCWD		; .AND THE OLD PARITY STOP PARAMETERS
   5381
   5382					;	[CONTINUED ON THE FOLLOWING PAGE]
KL10F -- KL10 FUNCTION MODULE  	MACRO M1113  03-APR-86 22:51  PAGE 130
.RDCPP -- SUBOUTINE TO READ THE KL CLOCK AND PARITY ENABLES 75

   5384					;	[CONTINUED FROM THE PREVIOUS PAGE]
   5385
   5386	006216	012700 	000004 			MOV	#^D4,R0		; .DO OUTER LOOP 4 TIMES
   5387	006222	012705 	004260'			MOV	#RDCPT3,R5	; .KL SAVE AREA POINTER TO R5
   5388	006226				20$:
   5389	006226	012704 	000004 			MOV	#^D4,R4		; .DO INNER LOOP 4 TIMES
   5390	006232	012702 	004250'			MOV	#RDCPT2,R2	; .KL MASK POINTER TO R2
   5391	006236				30$:
   5392	006236	012701 	000012'			MOV	#.CLKWD,R1	; .CLOCK WORD POINTER TO R1
   5393	006242	020427 	000002 			CMP	R4,#^D2		; .IS INNER LOOP COUNT .GT. 2?
   5394	006246	101004 				BHI	50$		; .YES -- CONTINUE
   5395	006250	001001 				BNE	40$		; .NO -- IS IT  .LT. 2?
   5396	006252	005115 				COM	(R5)		; .NO -- INVERT THE WORD SO REST OF CODE WORKS
   5397	006254				40$:
   5398	006254	012701 	000236'			MOV	#.PSCWD,R1	; .DO PARITY WORD
   5399	006260				50$:
   5400	006260	041311 				BIC	(R3),(R1)	; .FLUSH THE BIT IN THE FLAG WORD
   5401	006262	031215 				BIT	(R2),(R5)	; .TEST THE BIT WE READ IN THIS WORD
   5402	006264	001401 				BEQ	60$		; .BRANCH IF BIT IS OFF
   5403	006266	051311 				BIS	(R3),(R1)	; .TURN THE BIT ON IN THE FLAG WORD
   5404	006270				60$:
   5405	006270	022322 				CMP	(R3)+,(R2)+	; .ADVANCE THE MASK POINTERS
   5406	006272	077417 				SOB	R4,30$		; .DO INNER LOOP 4 TIMES
   5407	006274	005125 				COM	(R5)+		; .ADVANCE THE SAVE AREA POINTER
   5408									; .AND STRAIGHTEN THE WORD OUT
   5409	006276	077025 				SOB	R0,20$		; .DO OUTER LOOP 4 TIMES
   5410	006300					POP	R0		; .GIVE R0 BACK
	006300	012600 				 MOV	(SP)+,R0
   5411	006302					RETURN			; AND GO AWAY
	006302	000207 				 RTS	PC
   5412
   5413					; THESE BITS ARE USED TO MASK THE DATA FROM THE FUNCTION READS
   5414
   5415	004250				.PSECT	DATA
   5416
   5417	004250				RDCPT2:
   5418	004250	000010 				.WORD	BIT03		; KL BIT 32
   5419	004252	000004 				.WORD	BIT02		; KL BIT 33
   5420	004254	000002 				.WORD	BIT01		; KL BIT 34
   5421	004256	000001 				.WORD	BIT00		; KL BIT 35
   5422
   5423					; THE DATA FROM THE FUNCTION READS ARE STORED IN THIS TABLE
   5424
   5425	004260				RDCPT3:
   5426	004260	000000 				.WORD	0		; FR.104 BITS 20 - 35
   5427	004262	000000 				.WORD	0		; FR.105 BITS 20 - 35
   5428	004264	000000 				.WORD	0		; FR.106 BITS 20 - 35
   5429	004266	000000 				.WORD	0		; FR.107 BITS 20 - 35
KL10F -- KL10 FUNCTION MODULE  	MACRO M1113  03-APR-86 22:51  PAGE 131
.RDCPP -- SUBOUTINE TO READ THE KL CLOCK AND PARITY ENABLES 75

   5431					; TABLES USED TO READ AND SET CLOCK AND PARITY ENABLES
   5432					; THE FIRST FOUR BYTES IN THIS TABLE ARE THE FUNCTION READ CODES
   5433					; TO BE EXECUTED, THE REMAINING WORDS ARE USED TO SET OR CLEAR
   5434					; THE APPROPRIATE BITS IN ".CLKWD" AND ".PSCWD"
   5435
   5436	004270				RDCPT1:
   5437	004270	   210 				.BYTE	FR.104
   5438	004271	   212 				.BYTE	FR.105
   5439	004272	   214 				.BYTE	FR.106
   5440	004273	   216 				.BYTE	FR.107
   5441	004274	000010 				.WORD	CS.CS2		; CLK SOURCE 2 H [FR.104 - BIT 32]
   5442									; [FW 44 - BIT 32]
   5443	004276	000000 				.WORD	0		; BLANK [FR.104 - BIT 33]
   5444	004300	000010 				.WORD	IP.FMP		; FM PAR EN L [FR.104 - BIT 34]
   5445									; [FW 46 - BIT 32]
   5446	004302	000000 				.WORD	0		; BLANK [FR.104 - BIT 35]
   5447	004304	000004 				.WORD	CS.CS1		; CLK SOURCE 1 H [FR.105 - BIT 32]
   5448									; [FW 44 - BIT 33]
   5449	004306	002000 				.WORD	CD.CRC		; CLK CRAM DIS H [FR.105 - BIT 33]
   5450									; [FW 45 - BIT 33]
   5451	004310	000004 				.WORD	IP.CRP		; CRAM PAR EN L [FR.105 - BIT 34]
   5452									; [FW 46 - BIT 33]
   5453	004312	000000 				.WORD	0		; BLANK [FR.105 BIT - 35]
   5454	004314	000002 				.WORD	CR.CR2		; CLK RATE 2 H [FR.106 - BIT 32]
   5455									; [FW 44 - BIT 34]
   5456	004316	001000 				.WORD	CD.DPC		; CLK EDP DIS H [FR.106 - BIT 33]
   5457									; [FW 45 - BIT 34]
   5458	004320	000002 				.WORD	IP.DRP		; DRAM PAR EN L [FR.106 - BIT 34]
   5459									; [FW 46 - BIT 34]
   5460	004322	001000 				.WORD	AP.ARP		; AR/ARX PAR EN L [FR.106 - BIT 35]
   5461									; [FW 47 - BIT 34]
   5462	004324	000001 				.WORD	CR.CR1		; CLK RATE 1 H [FR.107 - BIT 32]
   5463									; [FW 44 - BIT 35]
   5464	004326	000400 				.WORD	CD.CLC		; CLK CTL DIS H [FR.107 - BIT 33]
   5465									; [FW 45 - BIT 35]
   5466	004330	000001 				.WORD	IP.FSS		; FS STOP EN L [FR.107 -BIT 34]
   5467									; [FW 46 - BIT 35]
   5468	004332	000400 				.WORD	AP.EIP		; CLK ERR STOP EN L [FR.107 - BIT 35]
   5469									; [FW 47 - BIT 35]
   5470
   5471	006304				.PSECT
KL10F -- KL10 FUNCTION MODULE  	MACRO M1113  03-APR-86 22:51  PAGE 132
.RDCRD -- SUBROUTINE TO READ THE KL CRAM DISP FIELD 7511.22

   5473					.SBTTL	.RDCRD -- SUBROUTINE TO READ THE KL CRAM DISP FIELD 7511.22
   5474
   5475					;+
   5476					; .RDCRD -- SUBROUTINE TO READ THE KL CRAM DISP FIELD.
   5477					;
   5478					; THIS SUBROUTINE READS AND RETURNS THE CONTENT OF THE CRAM DISP FIELD
   5479					; IN R0.
   5480					;
   5481					; INPUT ARGUMENTS:
   5482					;
   5483					;	NONE.
   5484					;
   5485					; OUTPUT ARGUMENTS:
   5486					;
   5487					;	R0 CONTAINS THE CURRENT CRAM DISP FIELD
   5488					;
   5489					; ERROR CODES RETURNED:
   5490					;
   5491					;	FRF -- FUNCTION READ FAILED.
   5492					;-
   5493
   5494	006304				.RDCRD::
   5495	006304					PUSH	R1		; SAVE R1 ON THE STACK
	006304	010146 				 MOV	R1,-(SP)
   5496	006306	005001 				CLR	R1		; .CLEAR R1
   5497	006310	012700 	000302 			MOV	#FR.CRD,R0	; .FR CODE TO R0
   5498	006314					CALL	.FREAD		; .READ IT
	006314	004737 	004362'			 JSR	PC,.FREAD
   5499	006320	012701 	177742 			MOV	#-^D30,R1	; .SHIFT COUNT TO R1
   5500	006324					CALL	.TPSHI		; .SHIFT IT
	006324	004737 	011772'			 JSR	PC,.TPSHI
   5501	006330	042710 	177700 			BIC	#^C77,(R0)	; .MASK UNWANTED BITS
   5502	006334	011000 				MOV	(R0),R0		; .COPY TO R0
   5503	006336					POP	R1		; .RESTORE R1
	006336	012601 				 MOV	(SP)+,R1
   5504	006340					RETURN			; AND GO AWAY
	006340	000207 				 RTS	PC
KL10F -- KL10 FUNCTION MODULE  	MACRO M1113  03-APR-86 22:51  PAGE 133
.RDCRM -- KL CONTROL RAM READ SUBROUTINE 7511.19

   5506					.SBTTL	.RDCRM -- KL CONTROL RAM READ SUBROUTINE 7511.19
   5507
   5508					;+
   5509					; .RDCRM -- SUBROUTINE TO READ A LOCATION IN THE KL CONTROL RAM.
   5510					; .RDCRR -- SUBROUTINE TO READ THE OUTPUT OF THE CRAM REGISTER.
   5511					;
   5512					; THIS SUBROUTINE WILL READ ONE LOCATION IN THE KL CONTROL RAM.
   5513					;
   5514					; SEQUENCE OF OPERATION:
   5515					;
   5516					; .RDCRM:
   5517					;
   5518					;	(A) THE KL IS HALTED IN THE HALT LOOP,
   5519					;	(B) THE CONTROL RAM ADDRESS IS LOADED,
   5520					;
   5521					; .RDCRR:
   5522					;
   5523					;	(C) THE CONTENT OF THE CURRENT CRAM ADDRESS IS READ.
   5524					;
   5525					; INPUT ARGUMENTS:
   5526					;
   5527					;	R0 CONTAINS THE CRAM ADDRESS TO BE READ IN THE CALL TO ".RDCRM".
   5528					;
   5529					; OUTPUT ARGUMENTS:
   5530					;
   5531					;	 R0 CONTAINS A POINTER TO THE RAM DATA.
   5532					;
   5533					; THE FOLLOWING IS A PICTURE OF THRE DATA RETURNED BY THIS SUBROUTINE:
   5534					;
   5535					;	WORD		CRAM DATA
   5536					;	----		---------
   5537					;		+==================================+
   5538					;	00	|	CRAM BITS 68 THRU 78	   |
   5539					;		+----------------------------------+
   5540					;	01	|	CRAM BITS 60 THRU 66       |
   5541					;		+----------------------------------+
   5542					;	02	|	CRAM BITS 48 THRU 59	   |
   5543					;		+----------------------------------+
   5544					;	03	|	CRAM BITS 40 THRU 47	   |
   5545					;		+----------------------------------+
   5546					;	04	|	CRAM BITS 28 THRU 39	   |
   5547					;		+----------------------------------+
   5548					;	05	|	CRAM BITS 20 THRU 27	   |
   5549					;		+----------------------------------+
   5550					;	06	|	CRAM BITS 08 THRU 19	   |
   5551					;		+----------------------------------+
   5552					;	07	|	CRAM BITS 00 THRU 07	   |
   5553					;		+----------------------------------+
   5554					;	08	|    CRAM DISP BITS 00 THRU 04	   |
   5555					;		+==================================+
   5556					;
   5557					; ERROR CODES RETURNED:
   5558					;
   5559					;	CAE -- CRAM ADDRESS ERROR.
   5560					;	FRF -- FUNCTION READ FAILED.
   5561					;	FWF -- FUNCTION WRITE FAILED.
   5562					;	FXF -- FUNCTION EXECUTE FAILED.
KL10F -- KL10 FUNCTION MODULE  	MACRO M1113  03-APR-86 22:51  PAGE 133-1
.RDCRM -- KL CONTROL RAM READ SUBROUTINE 7511.19

   5563					;-
KL10F -- KL10 FUNCTION MODULE  	MACRO M1113  03-APR-86 22:51  PAGE 134
.RDCRM -- KL CONTROL RAM READ SUBROUTINE 7511.19

   5565	006342				.RDCRM::
   5566	006342					PUSH	<R1,R2,R3,R4>	; SAVE CALLER'S REGISTERS
	006342	010146 				 MOV	R1,-(SP)
	006344	010246 				 MOV	R2,-(SP)
	006346	010346 				 MOV	R3,-(SP)
	006350	010446 				 MOV	R4,-(SP)
   5567	006352	020027 	003777 			CMP	R0,#3777	; ....[TCO 6.????]IS THE ADDRESS IN RANGE?
   5568	006356	101052 				BHI	RDCRME		; ....NO -- GIVE "CRA" ERROR
   5569	006360					CALL	.LDCRA		; ....YES -- LOAD THE CRAM ADDRESS
	006360	004737 	005666'			 JSR	PC,.LDCRA
   5570	006364	012700 	000006 			MOV	#FX.EBC,R0	; ....NOW CLOCK THE DATA OUT OF THE RAM
   5571	006370					CALL	.FXCT		; ....DO IT
	006370	004737 	004566'			 JSR	PC,.FXCT
   5572	006374				.RDCRR::			; ....HERE TO READ THE CRAM REGISTER
   5573	006374	012702 	000022'			MOV	#.CRAMR,R2	; ....SAVE AREA POINTER TO R2
   5574	006400	012704 	000310 			MOV	#FR.CR4,R4	; ....BASE READ TO R4
   5575	006404	012703 	000004 			MOV	#^D4,R3		; ....USE R3 AS A COUNTER
   5576	006410				10$:
   5577	006410	005001 				CLR	R1		; ....CLEAR R1
   5578	006412	010400 				MOV	R4,R0		; ....PASS THE FREAD CODE
   5579	006414					CALL	.FREAD		; ....DO IT
	006414	004737 	004362'			 JSR	PC,.FREAD
   5580	006420	012022 				MOV	(R0)+,(R2)+	; ....LOAD CALLER'S BUFFER FROM OURS
   5581	006422	012022 				MOV	(R0)+,(R2)+	; ....
   5582	006424	062704 	000002 			ADD	#^D2,R4		; ....INCREMENT THE FREAD CODE
   5583	006430	077311 				SOB	R3,10$		; ....LOOP TILL DONE
   5584	006432					CALL	.RDCRD		; ....READ THE DISPATCH FIELD
	006432	004737 	006304'			 JSR	PC,.RDCRD
   5585	006436	010012 				MOV	R0,(R2)		; ....PUT IT IN THE DATA BLOCK
   5586	006440					CALL	.CLDFW		; ....CLEAR THE FUNCTION WRITE BUFFER
	006440	004737 	003404'			 JSR	PC,.CLDFW
   5587	006444	005001 				CLR	R1		; ....CLEAR R1
   5588	006446	012700 	000122 			MOV	#FW.CA1,R0	; ....CLEAR CRAM DIAG ADDR
   5589	006452					CALL	.FWRIT		; ....SO
	006452	004737 	004444'			 JSR	PC,.FWRIT
   5590	006456	012700 	000124 			MOV	#FW.CA2,R0	; ....NOW THE OTHER HALF
   5591	006462					CALL	.FWRIT		; ....SO
	006462	004737 	004444'			 JSR	PC,.FWRIT
   5592	006466	012700 	000022'			MOV	#.CRAMR,R0	; ....POINT TO SAVE AREA
   5593	006472					POP	<R4,R3,R2,R1>	; ....RESTORE THE REGISTERS
	006472	012604 				 MOV	(SP)+,R4
	006474	012603 				 MOV	(SP)+,R3
	006476	012602 				 MOV	(SP)+,R2
	006500	012601 				 MOV	(SP)+,R1
   5594	006502					RETURN			; TO CALLER
	006502	000207 				 RTS	PC
   5595	006504				RDCRME:
   5596	006504					ERROR$	CAE		; ERROR -- CRAM ADDRESS ERROR
	006504	012746 	011355 			 MOV	#^RCAE,-(SP)
	006510	104400 				 TRAP	TC.ERR
   5597						;
KL10F -- KL10 FUNCTION MODULE  	MACRO M1113  03-APR-86 22:51  PAGE 135
.RDCRO -- SUBROUTINE TO READ THE KL CRAM OUTPUT 7511.05

   5599					.SBTTL	.RDCRO -- SUBROUTINE TO READ THE KL CRAM OUTPUT 7511.05
   5600
   5601					;+
   5602					; .RDCRO -- SUBROUTINE TO READ THE KL CRAM OUTPUT.
   5603					;
   5604					; THIS SUBROUTINE WILL READ THE CURRENT OUTPUT OF THE KL CRAM
   5605					; AND IS USEFUL ON CLOCK ERROR STOPS (Q.V.) WHICH ARE CAUSED BY
   5606					; CRAM PARITY ERRORS.
   5607					;
   5608					; INPUT ARGUMENTS:
   5609					;
   5610					;	NONE.
   5611					;
   5612					; OUTPUT ARGUMENTS:
   5613					;
   5614					;	R0 CONTAINS A POINTER TO A TEN WORD BLOCK WHICH CONTAINS THE
   5615					;	CURRENT CRAM ADDRESS FOLLOWED BY THE CURRENT CRAM CONTENTS
   5616					;
   5617					; ERROR CODES RETURNED:
   5618					;
   5619					;	CAE -- CRAM ADDRESS ERROR.
   5620					;	FRF -- FUNCTION READ FAILED.
   5621					;	FWF -- FUNCTION WRITE FAILED.
   5622					;	FXF -- FUNCTION EXECUTE FAILED.
   5623					;-
   5624
   5625	006512				.RDCRO:
   5626	006512					CALL	.RDCRA		; READ THE CRAM ADDRESS
	006512	004737 	000000G			 JSR	PC,.RDCRA
   5627	006516	010037 	000020'			MOV	R0,.CRAMA	; SAVE THE ADDRESS
   5628	006522					CALL	.RDCRR		; READ THE CRAM DATA
	006522	004737 	006374'			 JSR	PC,.RDCRR
   5629	006526	005740 				TST	-(R0)		; RETURN POINTER
   5630	006530					RETURN			; TO CALLER
	006530	000207 				 RTS	PC
KL10F -- KL10 FUNCTION MODULE  	MACRO M1113  03-APR-86 22:51  PAGE 136
.RDFMA -- SUBROUTINE TO READ THE KL FM ADDRESS 7511.14

   5632					.SBTTL	.RDFMA -- SUBROUTINE TO READ THE KL FM ADDRESS 7511.14
   5633
   5634					;+
   5635					; .RDFMA -- SUBROUTINE TO READ THE KL FAST MEMORY ADDRESS REGISTER.
   5636					;
   5637					; THIS SUBROUTINE WILL READ AND RETURN THE KL FAST MEMORY ADDRESS
   5638					; A LOCATION POINTED TO BY R1 IN THE CALL. IF R1 IS ZERO, THE DATA
   5639					; IS RETURNED ONLY IN R0.
   5640					;
   5641					; INPUT ARGUMENTS:
   5642					;
   5643					;	R1 POINTS TO A BUFFER FOR THE DATA
   5644					;
   5645					; OUTPUT ARGUMENTS:
   5646					;
   5647					;	R0 CONTAINS THE DATA
   5648					;	THE BUFFER POINTED TO BY R1 CONTAINS THE DATA
   5649					;
   5650					; THE FORMAT OF THE DATA RETURNED IS:
   5651					;
   5652					;	!===============================================!
   5653					;	!	FM BLOCK	!      FM ADDRESS	!
   5654					;	!===============================================!
   5655					;
   5656					; ERROR CODES RETURNED:
   5657					;
   5658					;	FRF -- FUNCTION READ FAILED.
   5659					;-
   5660
   5661	006532				.RDFMA::
   5662	006532					PUSH	R1		; SAVE R1 ON THE STACK
	006532	010146 				 MOV	R1,-(SP)
   5663	006534	005001 				CLR	R1		; .CLEAR R1
   5664	006536	012700 	000230 			MOV	#FR.114,R0	; .FR CODE TO READ FM ADDRESS
   5665	006542					CALL	.FREAD		; .READ IT
	006542	004737 	004362'			 JSR	PC,.FREAD
   5666	006546	012701 	177753 			MOV	#-^D21,R1	; .SHIFT COUNT TO R1
   5667	006552					CALL	.TPSHI		; .SHIFT IT
	006552	004737 	011772'			 JSR	PC,.TPSHI
   5668	006556					PUSH	(R0)		; .SAVE THE WORD ON THE STACK
	006556	011046 				 MOV	(R0),-(SP)
   5669	006560	042716 	177760 			BIC	#177760,(SP)	; ..MASK FM ADDRESS
   5670	006564	042710 	176017 			BIC	#176017,(R0)	; ..MASK OUT THE FM BLOCK NUMBER
   5671	006570	012701 	000004 			MOV	#^D4,R1		; ..SHIFT IT INTO THE HIGH BYTE
   5672	006574					CALL	.TPSHI		; ..SO
	006574	004737 	011772'			 JSR	PC,.TPSHI
   5673	006600	052610 				BIS	(SP)+,(R0)	; ..SET IN THE FAST MEMORY ADDRESS
   5674	006602	011000 				MOV	(R0),R0		; .GET IT INTO R0
   5675	006604					POP	R1		; .DO WE HAVE A POINTER?
	006604	012601 				 MOV	(SP)+,R1
   5676	006606	001401 				BEQ	10$		; NO -- JUST EXIT
   5677	006610	010011 				MOV	R0,(R1)		; YES -- PUT IT WHERE HE WANTS IT
   5678	006612				10$:	RETURN			; AND LEAVE
	006612	000207 				 RTS	PC
KL10F -- KL10 FUNCTION MODULE  	MACRO M1113  03-APR-86 22:51  PAGE 137
.RDFMO -- SUBROUTINE TO READ KL FAST MEMORY OUTPUT 7708.30

   5680					.SBTTL	.RDFMO -- SUBROUTINE TO READ KL FAST MEMORY OUTPUT 7708.30
   5681
   5682					;+
   5683					; .RDFMO -- SUBROUTINE TO READ THE KL FAST MEMORY REGISTERS
   5684					;
   5685					; THIS SUBROUTINE WILL READ AND STORE THE FAST MEMORY ADDRESS AND
   5686					; OUTPUT IN A FOUR WORD BLOCK STARTING AT ".FMADR", AND IS USEFUL
   5687					; FOR GATHERING DATA ON FAST MEMORY PARITY ERRORS.
   5688					;
   5689					; INPUT ARGUMENTS:
   5690					;
   5691					;	R0 POINTS TO OUTPUT BUFFER
   5692					;
   5693					; OUTPUT ARGUMENTS:
   5694					;
   5695					;	R0 POINTS TO OUTPUT BUFFER
   5696					;
   5697					; ERROR CODES RETURNED:
   5698					;
   5699					;	FRF -- FUNCTION READ FAILED.
   5700					;-
   5701
   5702	006614				.RDFMO::
   5703	006614					PUSH	<R1,R0>		; SAVE R0,R1 ON THE STACK
	006614	010146 				 MOV	R1,-(SP)
	006616	010046 				 MOV	R0,-(SP)
   5704	006620	005001 				CLR	R1		; ..CLEAR R1
   5705	006622					CALL	.RDFMA		; ..READ THE FAST MEMORY ADDRESS
	006622	004737 	006532'			 JSR	PC,.RDFMA
   5706	006626	011601 				MOV	(SP),R1		; ..SET UP POINTER
   5707	006630	010021 				MOV	R0,(R1)+	; ..SAVE FM ADDRESS
   5708	006632	012700 	000246 			MOV	#FR.RFM,R0	; ..READ FM REGISTER FUNCTION READ
   5709	006636					CALL	.FREAD		; ..READ IT
	006636	004737 	004362'			 JSR	PC,.FREAD
   5710	006642					POP	<R0,R1>		; ..RESTORE R1,R0
	006642	012600 				 MOV	(SP)+,R0
	006644	012601 				 MOV	(SP)+,R1
   5711	006646					RETURN			; TO CALLER
	006646	000207 				 RTS	PC
KL10F -- KL10 FUNCTION MODULE  	MACRO M1113  03-APR-86 22:51  PAGE 138
.RDFMP -- READ FM PARITY ERROR BIT

   5713					.SBTTL	.RDFMP -- READ FM PARITY ERROR BIT
   5714
   5715					;+
   5716					; .RDFMP -- SUBROUTINE TO READ FM PARITY BIT
   5717					;
   5718					; THIS ROUTINE WILL:
   5719					;	1. READ FM BLOCK,ADDR,AND PARITY
   5720					;	2. SHIFT PARITY BIT INTO R0
   5721					;
   5722					; INPUT ARGUMENTS:
   5723					;
   5724					;	NONE
   5725					;
   5726					; OUTPUT ARGUMENTS:
   5727					;
   5728					;	R0-PARITY ERROR BIT VALUE
   5729					;
   5730					; ERROR CODES RETURNED:
   5731					;
   5732					;	FRF -- FUNCTION READ FAILED
   5733					;-
   5734
   5735	006650				.RDFMP::
   5736	006650	005001 				CLR	R1		; NO BUFFER FOR .FREAD OUTPUT
   5737	006652	012700 	000230 			MOV	#FR.114,R0	; FUNCTION READ 114
   5738	006656					CALL	.FREAD		; DO READ
	006656	004737 	004362'			 JSR	PC,.FREAD
   5739	006662	103407 				BCS	10$		; ERROR
   5740	006664	012701 	177756 			MOV	#-^D18,R1	; SHIFT KL BIT 17 TO ELEVEN BIT 0
   5741	006670					CALL	.TPSHI		; SHIFT IT
	006670	004737 	011772'			 JSR	PC,.TPSHI
   5742	006674	011000 				MOV	(R0),R0		; GET VALUE
   5743	006676	042700 	177776 			BIC	#177776,R0	; CLEAR ALL BUT BIT 0
   5744	006702				10$:	RETURN
	006702	000207 				 RTS	PC
KL10F -- KL10 FUNCTION MODULE  	MACRO M1113  03-APR-86 22:51  PAGE 139
.RDIPE -- READ KL INTERNAL PARITY ERROR FLAGS 7511.13

   5746					.SBTTL	.RDIPE -- READ KL INTERNAL PARITY ERROR FLAGS 7511.13
   5747
   5748					;+
   5749					; .RDIPE -- SUBROUTINE TO READ THE KL INTERNAL PARITY ERROR FLAGS.
   5750					;
   5751					; THIS SUBROUTINE READS THE INTERNAL KL PARITY ERROR FLAGS AND
   5752					; STORES THEM IN ".PEWRD" IN THE FOLLOWING FORMAT:
   5753					;
   5754					;	(A) BIT00 ("PE.CES") [CLK ERROR STOP H],
   5755					;	(B) BIT01 ("PE.DRM") [CLK DRAM PAR ERR H],
   5756					;	(C) BIT02 ("PE.CRM") [CLK CRAM PAR ERR H],
   5757					;	(D) BIT03 ("PE.FMP") [CLK FM PAR ERR H],
   5758					;	(E) BIT04 ("PE.FSS") [CLK FS ERROR H].
   5759					;
   5760					; INPUT ARGUMENTS:
   5761					;
   5762					;	NONE.
   5763					;
   5764					; OUTPUT ARGUMENTS:
   5765					;	R0 CONTAINS A COPY OF THE FLAGS IN ".PEWRD".
   5766					;
   5767					; ERROR CODES RETURNED:
   5768					;
   5769					;	FRF -- FUNCTION READ FAILED.
   5770					;-
   5771
   5772	006704				.RDIPE::
   5773	006704					CALL	R5,.REGSV	; SAVE R5 - R1 ON THE STACK
	006704	004537 	010316'			 JSR	R5,.REGSV
   5774	006710	012702 	000204 			MOV	#FR.102,R2	; BASE FUNCTION READ TO R2
   5775	006714	012703 	000040 			MOV	#BIT05,R3	; MASK BIT TO R3
   5776	006720	012704 	000230'			MOV	#.PEWRD,R4	; WORD POINTER TO R4
   5777	006724	005014 				CLR	(R4)		; CLEAR THE WORD
   5778	006726	012705 	000001 			MOV	#BIT00,R5	; BASE WORD MASK TO R5
   5779	006732	005001 				CLR	R1		; CLEAR R1
   5780	006734				10$:
   5781	006734	010200 				MOV	R2,R0		; GET THE FR NUMBER
   5782	006736					CALL	.FREAD		; DO THE READ
	006736	004737 	004362'			 JSR	PC,.FREAD
   5783	006742	030310 				BIT	R3,(R0)		; IS THE BIT ON?
   5784	006744	001401 				BEQ	20$		; NO -- GO ON
   5785	006746	050514 				BIS	R5,(R4)		; YES -- SET THE BIT IN THE WORD
   5786	006750				20$:
   5787	006750	062702 	000002 			ADD	#^D2,R2		; NEXT FUNCTION READ
   5788	006754	006305 				ASL	R5		; SHIFT THE WORD MASK
   5789	006756	020503 				CMP	R5,R3		; ARE WE DONE?
   5790	006760	001365 				BNE	10$		; NO -- KEEP GOING
   5794	006762	011400 				MOV	(R4),R0		; YES -- PUT THE WORD IN R0
   5795	006764					RETURN			; AND GO AWAY
	006764	000207 				 RTS	PC
KL10F -- KL10 FUNCTION MODULE  	MACRO M1113  03-APR-86 22:51  PAGE 140
.RESET -- KL RESET SUBROUTINES 7511.18

   5797					.SBTTL	.RESET -- KL RESET SUBROUTINES 7511.18
   5798
   5799					;+
   5800					; .RESET -- SUBROUTINE TO RESET THE KL.
   5801					;
   5802					; THIS SUBROUTINE PERFORM ALL DIAGNOSTIC FUNCTIONS REQUIRED TO RESET
   5803					; THE KL MICROPROCESSOR AND SET UP CLOCK ENABLES AND PARITY STOPS.
   5804					;
   5805					; SEQUENCE OF OPERATION:
   5806					;
   5807					;	(A) THE DTE-20 IS CLEARED,
   5808					;	(B) THE MASTER RESET SUBROUTINE IS INVOKED,
   5809					;	(C) THE MAJOR KL CONTROL REGISTERS ARE CLEARED
   5810					;	    (THIS IS A FULL KL MASTER RESET).
   5811					;
   5812					; INPUT ARGUMENTS:
   5813					;
   5814					;	NONE.
   5815					;
   5816					; OUTPUT ARGUMENTS:
   5817					;
   5818					;	NONE.
   5819					;
   5820					; ERROR CODES RETURNED:
   5821					;
   5822					;	DSF -- DTE-20 STATUS FAILURE.
   5823					;	FRF -- FUNCTION READ FAILED.
   5824					;	FWF -- FUNCTION WRITE FAILED.
   5825					;	FXF -- FUNCTION EXECUTE FAILED.
   5826					;-
KL10F -- KL10 FUNCTION MODULE  	MACRO M1113  03-APR-86 22:51  PAGE 141
.RESET -- KL RESET SUBROUTINES 7511.18

   5828	006766				.RESET::
   5829	006766					PUSH	<R0,R1,R2>	; SAVE CALLER'S REGISTERS
	006766	010046 				 MOV	R0,-(SP)
	006770	010146 				 MOV	R1,-(SP)
	006772	010246 				 MOV	R2,-(SP)
   5830	006774					CALL	.RESTD		; ...RESET THE DTE-20
	006774	004737 	007102'			 JSR	PC,.RESTD
   5831	007000	012702 	004334'			MOV	#RESETT,R2	; ...FUNCTION TABLE POINTER TO R2
   5832	007004					CALL	.STPXC		; ...STOP THE KL CLOCK
	007004	004737 	007316'			 JSR	PC,.STPXC
   5833	007010	005046 				CLR	-(SP)		; ...CLEAR A TEMP BUFFER
   5834	007012	010601 				MOV	SP,R1		; ....POINT TO TEMP BUFFER
   5835	007014					CALL	.LDCLK		; ....CLEAR THE CLOCKS OUT
	007014	004737 	005570'			 JSR	PC,.LDCLK
   5836	007020					CALL	.LDPAR		; ....RESET THE PARITY REGISTERS
	007020	004737 	005606'			 JSR	PC,.LDPAR
   5837	007024					CALL	.MRCLR		; ....DO MASTER RESET STUFF
	007024	004737 	006002'			 JSR	PC,.MRCLR
   5838	007030					CALL	.CLDFB		; ....CLEAR THE FUNCTION BUFFERS
	007030	004737 	003370'			 JSR	PC,.CLDFB
   5839	007034				10$:
   5840	007034	005001 				CLR	R1		; ....CLEAR R1
   5841	007036	112200 				MOVB	(R2)+,R0	; ....FUNCTION WRITE CODE TO R0
   5842	007040					CALL	.FWRIT		; ....DO THE WRITE
	007040	004737 	004444'			 JSR	PC,.FWRIT
   5843	007044	022702 	004342'			CMP	#RSTEND,R2	; ....ARE WE CLOSE TO END?
   5844	007050	101371 				BHI	10$		; ....NO -- KEEP GOING
   5845	007052	112210 				MOVB	(R2)+,(R0)	; ....YES -- GET THE DATA
   5846	007054	111200 				MOVB	(R2),R0		; ....FOR LAST WRITE
   5847	007056					CALL	.FWRIT		; ....DO IT
	007056	004737 	004444'			 JSR	PC,.FWRIT
   5848	007062	005726 				TST	(SP)+		; ....CLEAR THE STACK
   5849	007064					POP	<R2,R1,R0>	; ...RESTORE REGISTERS
	007064	012602 				 MOV	(SP)+,R2
	007066	012601 				 MOV	(SP)+,R1
	007070	012600 				 MOV	(SP)+,R0
   5850	007072	052737 	000000G	000002G		BIS	#EF.CRI,.COMEF+2 ; DECLARE THE COMM REGION INVALID
   5851	007100					RETURN			; TO CALLER
	007100	000207 				 RTS	PC
   5852
   5853					; TABLE OF FUNCTION WRITE CODES FOR RESET
   5854
   5855	004334				.PSECT	DATA
   5856
   5857	004334				RESETT:
   5858	004334	   104 				.BYTE	FW.LBR		; CLEAR BURST COUNTER - RIGHT
   5859	004335	   106 				.BYTE	FW.LBL		; CLEAR BURST COUNTER - LEFT
   5860	004336	   124 				.BYTE	FW.CA2		; CLEAR CRAM DIAG ADDR - LEFT
   5861	004337	   122 				.BYTE	FW.CA1		; CLEAR CRAM DIAG ADDR - RIGHT
   5862	004340	   156 				.BYTE	FW.KLO		; ENABLE KL OPCODES
   5863	004341	   174 				.BYTE	FW.EBL		; EBUS LOAD
   5864		004342'			RSTEND=.
   5865	004342	   012 				.BYTE	12		; DATA FOR
   5866	004343	   162 				.BYTE	FW.MBX		; MBOX CONTROL
   5867					.EVEN
   5868	007102				.PSECT
KL10F -- KL10 FUNCTION MODULE  	MACRO M1113  03-APR-86 22:51  PAGE 142
.RESTD -- DTE-20 RESET SUBROUTINE 7607.20

   5870					.SBTTL	.RESTD -- DTE-20 RESET SUBROUTINE 7607.20
   5871
   5872					;+
   5873					; .RESTD -- SUBROUTINE TO RESET THE DTE-20.
   5874					;
   5875					; THIS SUBROUTINE RESETS THE DTE-20.
   5876					;
   5877					; SEQUENCE OF OPERATION:
   5878					;
   5879					;	(A) THE DTE-20 IS CLEARED.
   5880					;
   5881					; INPUT ARGUMENTS:
   5882					;
   5883					;	NONE.
   5884					;
   5885					; OUTPUT ARGUMENTS:
   5886					;
   5887					;	NONE.
   5888					;
   5889					; ERROR CODES RETURNED:
   5890					;
   5891					;	DSF -- DTE-20 STATUS FAILURE.
   5892					;	FRF -- FUNCTION READ FAILED.
   5893					;	FWF -- FUNCTION WRITE FAILED.
   5894					;	FXF -- FUNCTION EXECUTE FAILED.
   5895					;-
   5896
   5897	007102				.RESTD::
   5898	007102	012700 	004344'			MOV	#D2RST,R0	; DIAG WORD 2 RESET
   5899	007106					CALL	.DWDW2		; WRITE IT
	007106	004737 	003462'			 JSR	PC,.DWDW2
   5900	007112	012700 	004346'			MOV	#D3RST,R0	; DIAG WORD 3 RESET
   5901	007116					CALLR	.DWDW3		; WRITE IT
	007116	000137 	003502'			 JMP	.DWDW3
   5902						;
   5903
   5904	004344				.PSECT	DATA
   5905
   5906	004344				D2RST:
   5907	004344	000100 				.WORD	D2.RST		; DIAG WORD 2 RESET
   5908	004346				D3RST:
   5909	004346	000001 				.WORD	D3.RST		; DIAG WORD 3 RESET
   5910
   5911	007122				.PSECT
KL10F -- KL10 FUNCTION MODULE  	MACRO M1113  03-APR-86 22:51  PAGE 143
.RESTI -- RESET KL AND ENABLE NORMAL CLOCK AND PARITY 7607.19

   5913					.SBTTL	.RESTI -- RESET KL AND ENABLE NORMAL CLOCK AND PARITY 7607.19
   5914
   5915					;+
   5916					; .RESTI -- SUBROUTINE TO RESET THE KL AND SET UP NORMAL
   5917					;	    KL CLOCK ENABLES AND PARITY STOPS.
   5918					;
   5919					; THIS SUBROUTINE PERFORMS ALL DIAGNOSTIC FUNCTIONS REQUIRED TO RESET
   5920					; THE KL MICROPROCESSOR AND SET UP NORMAL CLOCK ENABLES AND PARITY STOPS
   5921					;
   5922					; SEQUENCE OF OPERATION:
   5923					;
   5924					;	(A) ".RESET" IS INVOKED,
   5925					;	(B) NORMAL KL CLOCKS ARE ENABLED,
   5926					;	(C) NORMAL KL PARITY STOPS ARE ENABLED.
   5927					;
   5928					; INPUT ARGUMENTS:
   5929					;
   5930					;	NONE.
   5931					;
   5932					; OUTPUT ARGUMENTS:
   5933					;
   5934					;	NONE.
   5935					;
   5936					; ERROR CODES RETURNED:
   5937					;
   5938					;	DSF -- DTE-20 STATUS FAILURE.
   5939					;	FRF -- FUNCTION READ FAILED.
   5940					;	FWF -- FUNCTION WRITE FAILED.
   5941					;	FXF -- FUNCTION EXECUTE FAILED.
   5942					;-
   5943
   5944						.ENABL	LSB
   5945
   5946	007122				.RESTI::
   5947	007122					PUSH	R1		; SAVE R1
	007122	010146 				 MOV	R1,-(SP)
   5948	007124	005046 				CLR	-(SP)		; .CLEAR A LOCATION ON THE STACK
   5949	007126					CALL	.RESET		; ..RESET THE KL
	007126	004737 	006766'			 JSR	PC,.RESET
   5950	007132	010601 				MOV	SP,R1		; ..POINT TO SCRATCH BUFFER
   5954	007134					CALL	.LDCLK		; ..SET NORMAL CLOCK ENABLES
	007134	004737 	005570'			 JSR	PC,.LDCLK
   5955	007140	012716 	001416 			MOV	#PS.NRM,(SP)	; ..SET UP NORMAL PARITY ENABLES
   5956	007144	000417 				BR	10$		; ..AND GO SET THEM
   5957						;
KL10F -- KL10 FUNCTION MODULE  	MACRO M1113  03-APR-86 22:51  PAGE 144
.RESTP -- RESET KL AND SAVE CURRENT CLOCK AND PARITY 7511.19

   5959					.SBTTL	.RESTP -- RESET KL AND SAVE CURRENT CLOCK AND PARITY 7511.19
   5960
   5961					;+
   5962					; .RESTP -- SUBROUTINE TO RESET THE KL AND RESTORE THE
   5963					;	    PREVIOUS KL PARITY STOPS.
   5964					;
   5965					; THIS SUBROUTINE PERFORMS ALL DIAGNOSTIC FUNCTIONS REQUIRED TO RESET
   5966					; THE KL MICROPROCESSOR AND SET UP CURRENT CLOCK ENABLES AND PARITY STOPS
   5967					;
   5968					; SEQUENCE OF OPERATION:
   5969					;
   5970					;	(A) ".RESET" IS INVOKED.
   5971					;	(B) THE PREVIOUSLY ENABLED CLOCK AND PARITY CONTROLS ARE
   5972					;	    REENABLED.
   5973					;
   5974					; INPUT ARGUMENTS:
   5975					;
   5976					;	NONE.
   5977					;
   5978					; OUTPUT ARGUMENTS:
   5979					;
   5980					;	NONE.
   5981					;
   5982					; ERROR CODES RETURNED:
   5983					;
   5984					;	DSF -- DTE-20 STATUS FAILURE.
   5985					;	FRF -- FUNCTION READ FAILED.
   5986					;	FWF -- FUNCTION WRITE FAILED.
   5987					;	FXF -- FUNCTION EXECUTE FAILED.
   5988					;-
KL10F -- KL10 FUNCTION MODULE  	MACRO M1113  03-APR-86 22:51  PAGE 145
.RESTP -- RESET KL AND SAVE CURRENT CLOCK AND PARITY 7511.19

   5990	007146				.RESTP::
   5991	007146					PUSH	R1		; SAVE R1
	007146	010146 				 MOV	R1,-(SP)
   5992	007150					CALL	.STPXC		; .STOP THE KL CLOCK
	007150	004737 	007316'			 JSR	PC,.STPXC
   5993	007154					CALL	.RDCPP		; .READ CURRENT CLOCK AND PARITY ENABLES
	007154	004737 	006150'			 JSR	PC,.RDCPP
   5994	007160					PUSH	.PSCWD		; .SAVE THE PARITY CONTROL WORD
	007160	013746 	000236'			 MOV	.PSCWD,-(SP)
   5995	007164					PUSH	.CLKWD		; ..SAVE THE CLOCK CONTROL WORD
	007164	013746 	000012'			 MOV	.CLKWD,-(SP)
   5996	007170					CALL	.RESET		; ...DO A MASTER RESET
	007170	004737 	006766'			 JSR	PC,.RESET
   5997	007174	010601 				MOV	SP,R1		; ...POINT TO THE CLOCK WORD
   5998	007176					CALL	.LDCLK		; ...LOAD THE CLOCKS AGAIN
	007176	004737 	005570'			 JSR	PC,.LDCLK
   5999	007202	005726 				TST	(SP)+		; ...FLUSH SAVED CLOCK WORD
   6000	007204				10$:
   6001	007204	010601 				MOV	SP,R1		; ..POINT TO THE PARITY WORD
   6002	007206					CALL	.LDPAR		; ..LOAD THE PARITY STOPS
	007206	004737 	005606'			 JSR	PC,.LDPAR
   6003	007212	005726 				TST	(SP)+		; ..FLUSH THE PARITY WORD
   6004	007214					POP	R1		; .RESTORE R1
	007214	012601 				 MOV	(SP)+,R1
   6005	007216					RETURN			; AND GO AWAY
	007216	000207 				 RTS	PC
   6006
   6007						.DSABL	LSB
KL10F -- KL10 FUNCTION MODULE  	MACRO M1113  03-APR-86 22:51  PAGE 146
.RSTKL -- SUBROUTINE TO RESTART THE KL 7611.17

   6009					.SBTTL	.RSTKL -- SUBROUTINE TO RESTART THE KL 7611.17
   6010
   6011					;+
   6012					; .RSTKL -- SUBROUTINE TO RESTART THE KL
   6013					;
   6014					; THIS SUBROUTINE WILL RESTART THE KL, IF IT WAS STOPPED BY ".STPKL".
   6015					;
   6016					; INPUT ARGUMENTS:
   6017					;
   6018					;	THE STATE FLAGS IN ".SVKLF" REPRESENT THE STATE TO WHICH
   6019					;	THE KL IS TO BE RESTORED.
   6020					;
   6021					; OUTPUT ARGUMENTS:
   6022					;
   6023					;	".SVKLF" IS CLEARED.
   6024					;
   6025					; ERROR CODES RETURNED:
   6026					;
   6027					;	NONE.
   6028					;-
   6029
   6030	007220				.RSTKL::
   6031	007220	032737 	040000 	000260'		BIT	#KF.RUN,.SVKLF	; DID WE STOP THE KL?
   6032	007226	001404 				BEQ	10$		; NO -- JUST RETURN
   6033	007230					CALL	.KLRST		; YES -- RESTART THE KL
	007230	004737 	005310'			 JSR	PC,.KLRST
   6034	007234	105037 	000000G			CLRB	.NOHLT		; LET RSX20F DETECT HALTS
   6035	007240				10$:
   6036	007240	005037 	000260'			CLR	.SVKLF		; CLEAR SAVED FLAGS
   6037	007244					RETURN			; TO CALLER
	007244	000207 				 RTS	PC
KL10F -- KL10 FUNCTION MODULE  	MACRO M1113  03-APR-86 22:51  PAGE 147
.STCLK -- START KL CLOCK SUBROUTINE 7607.15

   6039					.SBTTL	.STCLK -- START KL CLOCK SUBROUTINE 7607.15
   6040
   6041					;+
   6042					; .STCLK -- SUBROUTINE TO START THE KL CLOCK.
   6043					;
   6044					; THIS SUBROUTINE WILL START THE KL CLOCK.
   6045					;
   6046					; INPUT ARGUMENTS:
   6047					;
   6048					;	NONE.
   6049					;
   6050					; OUTPUT ARGUMENTS:
   6051					;
   6052					;	NONE.
   6053					;
   6054					; ERROR CODES RETURNED:
   6055					;
   6056					;	CES -- CLOCK ERROR STOP.
   6057					;	FXF -- FUNCTION EXECUTE FAILED.
   6058					;-
   6059
   6060	007246				.STCLK::
   6061	007246	000241 				CLC			; CLEAR CC-C
   6062	007250					CALL	.CESCK		; CHECK FOR CLOCK ERROR STOP
	007250	004737 	000000'			 JSR	PC,.CESCK
   6063	007254				.STCLF::			; HERE TO START THE CLOCK ANYWAY
   6064	007254					PUSH	R0		; SAVE R0
	007254	010046 				 MOV	R0,-(SP)
   6065	007256	012700 	000002 			MOV	#FX.CST,R0	; .SET UP TO START THE KL CLOCK
   6066	007262					CALL	.FXCT		; .DO IT
	007262	004737 	004566'			 JSR	PC,.FXCT
   6067	007266					POP	R0		; .RESTORE R0
	007266	012600 				 MOV	(SP)+,R0
   6068	007270					RETURN			; RETURN TO CALLER
	007270	000207 				 RTS	PC
KL10F -- KL10 FUNCTION MODULE  	MACRO M1113  03-APR-86 22:51  PAGE 148
.STPKL -- SUBROUTINE TO STOP THE KL 7602.25

   6070					.SBTTL	.STPKL -- SUBROUTINE TO STOP THE KL 7602.25
   6071
   6072					;+
   6073					; .STPKL -- SUBROUTINE TO STOP THE KL.
   6074					;
   6075					; THIS SUBROUTINE WILL STOP THE KL HALT LOOP IF IT BELIEVES THAT
   6076					; THE KL RUN FLOP IS SET ("KF.RUN" IN ".KLFLG").
   6077					;
   6078					; INPUT ARGUMENTS:
   6079					;
   6080					;	THE STATE OF THE KL IS IN ".KLFLG"
   6081					;
   6082					; OUTPUT ARGUMENTS:
   6083					;
   6084					;	THE CURRENT STATE OF THE KL IS IN ".KLFLG"
   6085					;	THE PREVIOUS STATE OF THE KL IS IN ".SVKLF"
   6086					;
   6087					; ERROR CODES RETURNED:
   6088					;
   6089					;	NONE.
   6090					;-
   6091
   6092	007272				.STPKL::
   6093	007272	032737 	040000 	000000G		BIT	#KF.RUN,.KLFLG	; IS THE KL RUNNING?
   6094	007300	001405 				BEQ	10$		; NO -- JUST EXIT
   6095	007302	013737 	000000G	000260'		MOV	.KLFLG,.SVKLF	; YES -- SAVE CURRENT KL STATE
   6096	007310					CALL	.KLSTP		; STOP THE KL
	007310	004737 	005212'			 JSR	PC,.KLSTP
   6097	007314				10$:
   6098	007314					RETURN			; TO CALLER
	007314	000207 				 RTS	PC
KL10F -- KL10 FUNCTION MODULE  	MACRO M1113  03-APR-86 22:51  PAGE 149
.STPXC -- STOP KL CLOCK SUBROUTINE 7601.09

   6100					.SBTTL	.STPXC -- STOP KL CLOCK SUBROUTINE 7601.09
   6101
   6102					;+
   6103					; .STPXC -- SUBROUTINE TO STOP THE KL CLOCK.
   6104					;
   6105					; THIS SUBROUTINE STOPS THE KL CLOCK.
   6106					;
   6107					; INPUT ARGUMENTS:
   6108					;
   6109					;	NONE.
   6110					;
   6111					; OUTPUT ARGUMENTS:
   6112					;
   6113					;	NONE
   6114					;
   6115					; ERROR CODES RETURNED:
   6116					;
   6117					;	FXF -- FUNCTION EXECUTE FAILED
   6118					;-
   6119
   6120						.ENABL	LSB
   6121
   6122	007316				.STPXC::
   6123	007316	000241 				CLC			; CLEAR CC-C
   6125	007320					WTSE$S	#E.FHTO		; WAIT FOR KL I/O TO SETTLE FROM ".CLRFF"
	007320	012746 	000001 			MOV	#E.FHTO,-(SP)
	007324	012746 				MOV	(PC)+,-(SP)
	007326	   051 	   002 			.BYTE	41.,2
	007330	104375 				EMT	375
   6127	007332					PUSH	R0		; SAVE R0
	007332	010046 				 MOV	R0,-(SP)
   6128	007334	112737 	000001 	000000G		MOVB	#1,.NOERR	; TELL RSX20F NOT TO PANIC ABOUT CLOCK STOP
   6129	007342	005000 				CLR	R0		; .SET UP TO STOP THE KL CLOCK
   6130									; .FUNCTION CODE IS ZERO
   6131	007344	000404 				BR	10$		; .DO IT
   6132						;
KL10F -- KL10 FUNCTION MODULE  	MACRO M1113  03-APR-86 22:51  PAGE 150
.STRUN -- SET KL RUN FLOP SUBROUTINE 7601.09

   6134					.SBTTL	.STRUN -- SET KL RUN FLOP SUBROUTINE 7601.09
   6135
   6136					;+
   6137					; .STRUN -- SUBROUTINE TO SET THE KL RUN FLOP.
   6138					;
   6139					; THIS SUBROUTINE SETS THE KL RUN FLOP.
   6140					;
   6141					;
   6142					; INPUT ARGUMENTS:
   6143					;
   6144					;	NONE.
   6145					;
   6146					; OUTPUT ARGUMENTS:
   6147					;
   6148					;	NONE
   6149					;
   6150					; ERROR CODES RETURNED:
   6151					;
   6152					;	FXF -- FUNCTION EXECUTE FAILED
   6153					;-
   6154
   6155	007346				.STRUN::
   6156	007346	000241 				CLC			; CLEAR CC-C
   6157	007350					PUSH	R0		; SAVE R0
	007350	010046 				 MOV	R0,-(SP)
   6158	007352	012700 	000022 			MOV	#FX.SRF,R0	; .SET UP TO SET KL RUN FLOP
   6159	007356				10$:
   6160	007356					CALL	.FXCT		; .DO IT
	007356	004737 	004566'			 JSR	PC,.FXCT
   6161	007362					POP	R0		; .RESTORE R0
	007362	012600 				 MOV	(SP)+,R0
   6162	007364					RETURN			; TO CALLER
	007364	000207 				 RTS	PC
   6163
   6164						.DSABL	LSB
KL10F -- KL10 FUNCTION MODULE  	MACRO M1113  03-APR-86 22:51  PAGE 151
.STUCD -- START KL MICROCODE SUBROUTINE 7511.22

   6166					.SBTTL	.STUCD -- START KL MICROCODE SUBROUTINE 7511.22
   6167
   6168					;+
   6169					; .STUCD -- SUBROUTINE TO START THE KL MICROCODE AT THE
   6170					;	    ADDRESS SPECIFIED IN R0.
   6171					;
   6172					; SEQUENCE OF OPERATION:
   6173					;
   6174					;	(A) THE KL RUN FLOP IS CLEARED,
   6175					;	(B) THE KL RUN FLOP IS TURNED OFF,
   6176					;	(C) THE KL IS CLEARED,
   6177					;	(D) THE CRAM ADDRESS IS LOADED,
   6178					;	(E) THE KL CLOCK IS RESTARTED.
   6179					;
   6180					; THE SUBROUTINE EXITS WHEN THE KL HAS FOUND THE HALT LOOP.
   6181					; IF THE HALT LOOP IS NOT FOUND, AN ERROR RETURN IS GIVEN.
   6182					;
   6183					; INPUT ARGUMENTS:
   6184					;
   6185					;	R0 CONTAINS THE CRAM ADDRESS
   6186					;
   6187					; OUTPUT ARGUMENTS:
   6188					;
   6189					;	NONE.
   6190					;
   6191					; ERROR CODES RETURNED:
   6192					;
   6193					;	CAE -- CRAM ADDRESS ERROR.
   6194					;	FRF -- FUNCTION READ FAILED.
   6195					;	FWF -- FUNCTION WRITE FAILED.
   6196					;	FXF -- FUNCTION EXECUTE FAILED
   6197					;	UNL -- UCODE NOT LOADED.
   6198					;
   6199					; NOTE:
   6200					;
   6201					;	THE NORMAL CRAM STARTING ADDRESS IS 0. ATTEMPTING TO
   6202					;	START THE CONTROL RAM AT AN ADDRESS OTHER THAN 0 CAN
   6203					;	PRODUCE STRANGE RESULTS. CAVEAT PROGRAMMATOR (OPERATOR).
   6204					;	CONSIDER YOURSELF WARNED.
   6205					;-
KL10F -- KL10 FUNCTION MODULE  	MACRO M1113  03-APR-86 22:51  PAGE 152
.STUCD -- START KL MICROCODE SUBROUTINE 7511.22

   6207	007366				.STUCD::
   6208	007366	020027 	003777 			CMP	R0,#3777	; [TCO 6.????]IS IT IN RANGE?
   6209	007372	101030 				BHI	STUCAE		; NO -- GIVE "CAE" ERROR
   6210	007374					PUSH	<R1,R0>		; YES -- SAVE THE ADDRESS ON THE STACK
	007374	010146 				 MOV	R1,-(SP)
	007376	010046 				 MOV	R0,-(SP)
   6211	007400					CALL	.CLRFF		; ..CLEAR THE KL RUN FLOP
	007400	004737 	003420'			 JSR	PC,.CLRFF
   6212	007404					CALL	.STPXC		; ..STOP THE KL CLOCK
	007404	004737 	007316'			 JSR	PC,.STPXC
   6213	007410	011600 				MOV	(SP),R0		; ..CRAM ADDRESS TO R0
   6214	007412					CALL	.LDCRA		; ..LOAD IT
	007412	004737 	005666'			 JSR	PC,.LDCRA
   6215	007416					CALL	.STCLK		; ..START THE KL CLOCK
	007416	004737 	007246'			 JSR	PC,.STCLK
   6216	007422	012701 	000310 			MOV	#^D200,R1	; ..SETUP WAIT LOOP
   6217	007426				10$:
   6218	007426					CALL	.DTDW1		; ..READ DTE-20 DIAG WORD 1
	007426	004737 	003530'			 JSR	PC,.DTDW1
   6219	007432	032700 	001000 			BIT	#D1.HLP,R0	; ..ARE WE IN THE HALT LOOP?
   6223	007436	001001 				BNE	20$		; ..YES -- EXIT
   6224	007440	077106 				SOB	R1,10$		; ..NO -- TRY TILL COUNT EXHAUSTED
   6225	007442				20$:
   6226	007442	005701 				TST	R1		; ..DID COUNT GET EXHAUSTED?
   6227	007444	003406 				BLE	STUUNL		; ..YES -- WE LOST
   6228	007446					POP	<R0,R1>		; ..NO -- RESTORE R0 AND R1
	007446	012600 				 MOV	(SP)+,R0
	007450	012601 				 MOV	(SP)+,R1
   6229	007452					RETURN			; TO CALLER
	007452	000207 				 RTS	PC
   6230	007454				STUCAE:
   6231	007454					ERROR$	CAE		; ERROR -- CRAM ADDRESSING ERROR
	007454	012746 	011355 			 MOV	#^RCAE,-(SP)
	007460	104400 				 TRAP	TC.ERR
   6232						;
   6233	007462				STUUNL:
   6234	007462					ERROR$	UNL		; ERROR -- UCODE NOT LOADED
	007462	012746 	102574 			 MOV	#^RUNL,-(SP)
	007466	104400 				 TRAP	TC.ERR
   6235						;
KL10F -- KL10 FUNCTION MODULE  	MACRO M1113  03-APR-86 22:51  PAGE 153
.SYNXC -- SYNCH EBOX CLOCK SUBROUTINE 7509.03

   6237					.SBTTL	.SYNXC -- SYNCH EBOX CLOCK SUBROUTINE 7509.03
   6238
   6239					;+
   6240					; .SYNXC -- SUBROUTINE TO SYNCH THE EBOX CLOCK LOW.
   6241					;
   6242					; THIS SUBROUTINE SYNCHS THE KL EBOX CLOCK LOW
   6243					;
   6244					;
   6245					; INPUT ARGUMENTS:
   6246					;
   6247					;	NONE.
   6248					;
   6249					; OUTPUT ARGUMENTS:
   6250					;
   6251					;	NONE
   6252					;
   6253					; ERROR CODES RETURNED:
   6254					;
   6255					;	FXF -- FUNCTION EXECUTE FAILED
   6256					;-
   6257
   6258						.ENABL	LSB
   6259
   6260	007470				.SYNXC::
   6261	007470	000241 				CLC			; CLEAR CC-C
   6262	007472					PUSH	R0		; SAVE R0
	007472	010046 				 MOV	R0,-(SP)
   6263	007474	012700 	000010 			MOV	#FX.SYC,R0	; .SET UP TO SYNCH EBOX CLOCK
   6264	007500					CALL	.FXCT		; .DO IT
	007500	004737 	004566'			 JSR	PC,.FXCT
   6265	007504	000411 				BR	10$		; .RESTORE R0 AND EXIT
   6266						;
KL10F -- KL10 FUNCTION MODULE  	MACRO M1113  03-APR-86 22:51  PAGE 154
.WRTAR -- SUBROUTINE TO WRITE THE KL AR REGISTER 7511.05

   6268					.SBTTL	.WRTAR -- SUBROUTINE TO WRITE THE KL AR REGISTER 7511.05
   6269
   6270					;+
   6271					; .WRTAR -- SUBROUTINE TO WRITE THE KL AR REGISTER.
   6272					; .WRAR1 -- SUBROUTINE TO WRITE THE KL AR REGISTER WITHOUT
   6273					;	    STOPPING THE KL CLOCK.
   6274					;
   6275					; THIS SUBROUTINE WILL WRITE A 36 BIT WORD TO THE KL AR REGISTER.
   6276					;
   6277					; SEQUENCE OF OPERATION:
   6278					;
   6279					; .WRTAR:
   6280					;
   6281					;	(A) THE KL CLOCK IS STOPPED,
   6282					;
   6283					; .WRAR1:
   6284					;
   6285					;	(B) THE EBOX CLOCK IS SYNCHED LOW,
   6286					;	(C) THE DATA IS WRITTEN INTO THE KL AR REGISTER.
   6287					;
   6288					; INPUT ARGUMENTS:
   6289					;
   6290					;	R1 POINTS TO THE DATA TO BE WRITTEN
   6291					;
   6292					; OUTPUT ARGUMENTS:
   6293					;
   6294					;	NONE.
   6295					;
   6296					; ERROR CODES RETURNED:
   6297					;
   6298					;	FWF -- FUNCTION WRITE FAILED.
   6299					;-
   6300
   6301	007506				.WRTAR::
   6302	007506					CALL	.STPXC		; STOP THE KL CLOCK
	007506	004737 	007316'			 JSR	PC,.STPXC
   6303	007512				.WRAR1::
   6304	007512					CALL	.SYNXC		; FORCE THE EBOX CLOCK LOW
	007512	004737 	007470'			 JSR	PC,.SYNXC
   6305	007516					PUSH	R0		; SAVE R0
	007516	010046 				 MOV	R0,-(SP)
   6306	007520	012700 	000176 			MOV	#FW.LAR,R0	; .FUNCTION WRITE CODE TO R0
   6307	007524					CALL	.FWRIT		; .LOAD THE AR
	007524	004737 	004444'			 JSR	PC,.FWRIT
   6308	007530				10$:
   6309	007530					POP	R0		; .RESTORE R0
	007530	012600 				 MOV	(SP)+,R0
   6310	007532					RETURN			; RETURN TO CALLER
	007532	000207 				 RTS	PC
   6311
   6312						.DSABL	LSB
KL10F -- KL10 FUNCTION MODULE  	MACRO M1113  03-APR-86 22:51  PAGE 155
.WRCRM -- WRITE CONTROL RAM SUBROUTINE 7511.03

   6314					.SBTTL	.WRCRM -- WRITE CONTROL RAM SUBROUTINE 7511.03
   6315
   6316					;+
   6317					; .WRCRM -- SUBROUTINE TO WRITE A LOCATION IN THE KL CONTROL RAM.
   6318					;
   6319					; THIS SUBROUTINE WILL WRITE ONE LOCATION IN THE KL CONTROL RAM.
   6320					; THE CRAM ADDRESS TO BE WRITTEN IS SPECIFIED IN R0.
   6321					;
   6322					; SEQUENCE OF OPERATION:
   6323					;
   6324					;	(A) THE KL IS HALTED IN THE HALT LOOP,
   6325					;	(B) THE CONTROL RAM ADDRESS IS LOADED,
   6326					;	(C) THE CONTENT OF THAT CRAM ADDRESS IS WRITTEN.
   6327					;
   6328					; INPUT ARGUMENTS:
   6329					;
   6330					;	R0 CONTAINS THE CRAM ADDRESS TO BE WRITTEN.
   6331					;	R1 POINTS TO A NINE WORD DATA BLOCK TO BE WRITTEN.
   6332					;
   6333					; OUTPUT ARGUMENTS:
   6334					;
   6335					;	NONE.
   6336					;
   6337					; THE FOLLOWING IS A PICTURE OF THE DATA WRITTEN BY THIS SUBROUTINE:
   6338					;
   6339					;	WORD		CRAM DATA
   6340					;	----		---------
   6341					;		+==================================+
   6342					;	00	|	CRAM BITS 68 THRU 78	   |
   6343					;		+----------------------------------+
   6344					;	01	|	CRAM BITS 60 THRU 66       |
   6345					;		+----------------------------------+
   6346					;	02	|	CRAM BITS 48 THRU 59	   |
   6347					;		+----------------------------------+
   6348					;	03	|	CRAM BITS 40 THRU 47	   |
   6349					;		+----------------------------------+
   6350					;	04	|	CRAM BITS 28 THRU 39	   |
   6351					;		+----------------------------------+
   6352					;	05	|	CRAM BITS 20 THRU 27	   |
   6353					;		+----------------------------------+
   6354					;	06	|	CRAM BITS 08 THRU 19	   |
   6355					;		+----------------------------------+
   6356					;	07	|	CRAM BITS 00 THRU 07	   |
   6357					;		+----------------------------------+
   6358					;	08	|    CRAM DISP BITS 00 THRU 04	   |
   6359					;		+==================================+
   6360					;
   6361					; ERROR CODES RETURNED:
   6362					;
   6363					;	CAE -- CRAM ADDRESS ERROR.
   6364					;	FRF -- FUNCTION READ FAILED.
   6365					;	FWF -- FUNCTION WRITE FAILED.
   6366					;	FXF -- FUNCTION EXECUTE FAILED.
   6367					;-
   6368
   6369	007534				.WRCRM::
   6370	007534	020027 	003777 			CMP	R0,#3777	; [TCO 6.????]IS THE ADDRESS IN RANGE?
KL10F -- KL10 FUNCTION MODULE  	MACRO M1113  03-APR-86 22:51  PAGE 155-1
.WRCRM -- WRITE CONTROL RAM SUBROUTINE 7511.03

   6371	007540	101063 				BHI	WRCRME		; NO -- GIVE "CAE" ERROR
   6372	007542					PUSH	<R4,R3,R2,R1,R0>; YES -- SAVE CALLER'S REGISTERS
	007542	010446 				 MOV	R4,-(SP)
	007544	010346 				 MOV	R3,-(SP)
	007546	010246 				 MOV	R2,-(SP)
	007550	010146 				 MOV	R1,-(SP)
	007552	010046 				 MOV	R0,-(SP)
   6373	007554	010102 				MOV	R1,R2		; .....CALLER'S POINTER TO R2
   6374	007556	012704 	000130 			MOV	#FW.CR4,R4	; .....BASE WRITE TO R4
   6375	007562	011600 				MOV	(SP),R0		; .....GET CRAM ADDRESS FROM THE STACK
   6376	007564					CALL	.LDCRA		; .....LOAD IT
	007564	004737 	005666'			 JSR	PC,.LDCRA
   6377	007570	012703 	000004 			MOV	#^D4,R3		; .....USE R3 AS A COUNTER
   6378	007574	012700 	000336'		10$:	MOV	#.DFWB,R0	; .....POINT TO THE WRITE BUFFER
   6379	007600	012220 				MOV	(R2)+,(R0)+	; .....LOAD OUR BUFFER FROM CALLER'S
   6380	007602	012220 				MOV	(R2)+,(R0)+	; .....
   6381	007604	005010 				CLR	(R0)		; .....
   6382	007606	005001 				CLR	R1		; .....CLEAR R1
   6383	007610	010400 				MOV	R4,R0		; .....PASS THE FWRITE CODE
   6384	007612					CALL	.FWRIT		; .....DO IT
	007612	004737 	004444'			 JSR	PC,.FWRIT
   6385	007616	062704 	000002 			ADD	#^D2,R4		; .....INCREMENT THE FWRITE CODE
   6386	007622	077314 				SOB	R3,10$		; .....LOOP TILL DONE
   6387	007624	011210 				MOV	(R2),(R0)	; .....LOAD THE CRAM DISP BITS
   6388	007626	012701 	000036 			MOV	#^D30,R1	; .....SHIFT COUNT
   6389	007632					CALL	.TPSHI		; .....SHIFT IT
	007632	004737 	011772'			 JSR	PC,.TPSHI
   6390	007636	005001 				CLR	R1		; .....CLEAR R1
   6391	007640	012700 	000126 			MOV	#FW.CRD,R0	; .....WRITE CODE
   6392	007644					CALL	.FWRIT		; .....WRITE IT
	007644	004737 	004444'			 JSR	PC,.FWRIT
   6393	007650					CALL	.CLDFW		; .....CLEAR THE FUNCTION WRITE BUFFER
	007650	004737 	003404'			 JSR	PC,.CLDFW
   6394	007654	012700 	000122 			MOV	#FW.CA1,R0	; .....CLEAR CRAM DIAG ADDR
   6395	007660					CALL	.FWRIT		; .....SO
	007660	004737 	004444'			 JSR	PC,.FWRIT
   6396	007664	012700 	000124 			MOV	#FW.CA2,R0	; .....NOW FOR THE OTHER HALF
   6397	007670					CALL	.FWRIT		; .....SO
	007670	004737 	004444'			 JSR	PC,.FWRIT
   6398	007674					POP	<R0,R1,R2,R3,R4>; .....RESTORE REGISTERS
	007674	012600 				 MOV	(SP)+,R0
	007676	012601 				 MOV	(SP)+,R1
	007700	012602 				 MOV	(SP)+,R2
	007702	012603 				 MOV	(SP)+,R3
	007704	012604 				 MOV	(SP)+,R4
   6399	007706					RETURN			; TO CALLER
	007706	000207 				 RTS	PC
   6400	007710				WRCRME:
   6401	007710					ERROR$	CAE		; ERROR -- CRAM ADDRESSING ERROR
	007710	012746 	011355 			 MOV	#^RCAE,-(SP)
	007714	104400 				 TRAP	TC.ERR
   6402						;
   6403					.TITLE	NULLC -- NULL COMMAND MODULE 7603.30
   6404
   6405						.IDENT	"005000"
   6406
   6407					;
NULLC -- NULL COMMAND MODULE 76	MACRO M1113  03-APR-86 22:51  PAGE 155-2
.WRCRM -- WRITE CONTROL RAM SUBROUTINE 7511.03

   6408					;                             COPYRIGHT (C) 1975, 1984, 1985 BY
   6409					;                     DIGITAL EQUIPMENT CORPORATION, MAYNARD MASS.
   6410					;			ALL RIGHTS RESERVED.
   6411					;       THIS SOFTWARE IS FURNISHED UNDER A LICENSE AND MAY BE  USED  AND  COPIED
   6412					;       ONLY IN ACCORDANCE WITH THE TERMS OF SUCH LICENSE AND WITH THE INCLUSION
   6413					;       OF THE ABOVE COPYRIGHT NOTICE.  THIS SOFTWARE OR ANY OTHER COPIES THERE-
   6414					;       OF  MAY NOT BE PROVIDED OR OTHERWISE MADE AVAILABLE TO ANY OTHER PERSON.
   6415					;       NO TITLE TO OR OWNERSHIP OF THE SOFTWARE IS HEREBY TRANSFERRED.
   6416					;
   6417					;       THE INFORMATION CONTAINED IN THIS SOFTWARE IS SUBJECT TO CHANGE  WITHOUT
   6418					;       NOTICE  AND SHOULD NOT BE CONSTRUED AS A COMMITMENT BY DIGITAL EQUIPMENT
   6419					;       CORPORATION.
   6420					;
   6421					;       DIGITAL ASSUMES NO RESPONSIBILITY FOR THE  USE  OR  RELIABILITY  OF  ITS
   6422					;       SOFTWARE ON EQUIPMENT WHICH IS NOT SUPPILED BY DIGITAL.
   6423					;
   6424					;		MODULE: NULL COMMAND
   6425					;
   6426					;		VERSION: 01-01
   6427					;
   6428					;		AUTHOR: R. BELANGER
   6429					;
   6430					;		DATE: 7603.30
   6431					;
   6432					;	THIS MODULE CONTAINS:
   6433					;
   6434					;	1) NULL COMMAND CODE
NULLC -- NULL COMMAND MODULE 76	MACRO M1113  03-APR-86 22:51  PAGE 156
.NULLC -- THE NULL COMMAND 7602.10

   6436					.SBTTL	.NULLC -- THE NULL COMMAND 7602.10
   6437
   6438	007716				.NULLC::
   6439	007716	012737 	000021'	000004'		MOV	#PARNAM,.CCMDN	; RESET THE COMMAND NAME
   6440	007724					CALLR	.CKEOC		; CHECK E-O-C CHARACTER
	007724	000137 	000214'			 JMP	.CKEOC
   6441						;
NULLC -- NULL COMMAND MODULE 76	MACRO M1113  03-APR-86 22:51  PAGE 157
.NULLC -- THE NULL COMMAND 7602.10

   6443
   6444
   6445					.TITLE	PARSE -- TOP-LEVEL COMMAND DECODER MODULE 7603.30
   6446
   6447						.IDENT	"006270"
   6448
   6449					;
   6450					;                             COPYRIGHT (C) 1975, 1984, 1985 BY
   6451					;                     DIGITAL EQUIPMENT CORPORATION, MAYNARD MASS.
   6452					;			ALL RIGHTS RESERVED.
   6453					;       THIS SOFTWARE IS FURNISHED UNDER A LICENSE AND MAY BE  USED  AND  COPIED
   6454					;       ONLY IN ACCORDANCE WITH THE TERMS OF SUCH LICENSE AND WITH THE INCLUSION
   6455					;       OF THE ABOVE COPYRIGHT NOTICE.  THIS SOFTWARE OR ANY OTHER COPIES THERE-
   6456					;       OF  MAY NOT BE PROVIDED OR OTHERWISE MADE AVAILABLE TO ANY OTHER PERSON.
   6457					;       NO TITLE TO OR OWNERSHIP OF THE SOFTWARE IS HEREBY TRANSFERRED.
   6458					;
   6459					;       THE INFORMATION CONTAINED IN THIS SOFTWARE IS SUBJECT TO CHANGE  WITHOUT
   6460					;       NOTICE  AND SHOULD NOT BE CONSTRUED AS A COMMITMENT BY DIGITAL EQUIPMENT
   6461					;       CORPORATION.
   6462					;
   6463					;       DIGITAL ASSUMES NO RESPONSIBILITY FOR THE  USE  OR  RELIABILITY  OF  ITS
   6464					;       SOFTWARE ON EQUIPMENT WHICH IS NOT SUPPILED BY DIGITAL.
   6465					;
   6466					;		MODULE: TOP-LEVEL COMMAND DECODER
   6467					;
   6468					;		VERSION: 06-27
   6469					;
   6470					;		AUTHOR: R. BELANGER
   6471					;
   6472					;		DATE: 7603.30
   6473					;
   6474					;	THIS MODULE CONTAINS:
   6475					;
   6476					;	1) COMMAND DECODER
   6477
   6478						.MCALL	DIR$,EXIT$S,QIOW$S,.ENB6,.INH6
PARSE -- TOP-LEVEL COMMAND DECO	MACRO M1113  03-APR-86 22:51  PAGE 158
.DOCMD -- DECODE A SINGLE COMMAND 7602.03

   6480					.SBTTL	.DOCMD -- DECODE A SINGLE COMMAND 7602.03
   6481
   6482					;+
   6483					; .DOCMD -- DECODE AND DISPATCH FOR A SINGLE COMMAND
   6484					;
   6485					; THIS SUBROUTINE WILL DECODE THE INPUT STREAM FROM THE MAIN COMMAND
   6486					; SYMBOL TABLE, ".CMDTB", SET UP THE LEGAL BITS FOR EACH COMMAND
   6487					; DECODED, AND PERFORM THE DISPATCH FOR THAT COMMAND.
   6488					;
   6489					; INPUT ARGUMENTS:
   6490					;
   6491					;	R0 POINTS TO A REPEAT COUNT
   6492					;	R5 POINTS TO THE INPUT STREAM.
   6493					;
   6494					; OUTPUT ARGUMENTS:
   6495					;
   6496					;	R0 POINTS TO THE COMMAND NAME POINTER IN THE COMMAND TABLE
   6497					;
   6498					; ERROR CODES RETURNED:
   6499					;
   6500					;	CNR -- COMMAND IS NOT REPEATABLE
   6501					;-
   6502
   6503	007730				.DOCMD::
   6504	007730	022020 				CMP	(R0)+,(R0)+	; POINT TO THE END OF THE REPEAT COUNT
   6505	007732					PUSH	<(R0),-(R0),-(R0)>
	007732	011046 				 MOV	(R0),-(SP)
	007734	014046 				 MOV	-(R0),-(SP)
	007736	014046 				 MOV	-(R0),-(SP)
   6506	007740	010600 				MOV	SP,R0		; ...POINT TO THE REPEAT COUNT
   6507	007742					PUSH	R5		; ...SAVE COMMAND LINE POINTER
	007742	010546 				 MOV	R5,-(SP)
   6508	007744					PUSH	R0		; ....SAVE THE REPEAT COUNT POINTER
	007744	010046 				 MOV	R0,-(SP)
   6509	007746	010037 	000252'			MOV	R0,.RPTPT	; .....FOR "CLEAR REPEAT"
   6510	007752				10$:
   6511	007752	012700 	004350'			MOV	#.CMDTB,R0	; .....POINT TO THE COMMAND TABLE
   6512	007756	012737 	000021'	000004'		MOV	#PARNAM,.CCMDN	; ....."PARSER" IS CURRENT COMMAND
   6513	007764					CALL	.TSCAN		; .....SCAN THE TABLE
	007764	004737 	010524'			 JSR	PC,.TSCAN
   6514	007770	011037 	000216'			MOV	(R0),.LGLWD	; .....SET UP THE LEGAL BITS FOR COMMAND
   6515	007774	014037 	000004'			MOV	-(R0),.CCMDN	; .....SET THE POINTER TO THIS NAME
   6516
   6517					;	[CONTINUED ON THE FOLLOWING PAGE]
PARSE -- TOP-LEVEL COMMAND DECO	MACRO M1113  03-APR-86 22:51  PAGE 159
.DOCMD -- DECODE A SINGLE COMMAND 7602.03

   6519					;	[CONTINUED FROM THE PREVIOUS PAGE]
   6520
   6521	010000				20$:
   6522	010000					CALL	@4(R0)		; .....DO THE COMMAND
	010000	004770 	000004 			 JSR	PC,@4(R0)
   6523	010004	011600 				MOV	(SP),R0		; .....POINT TO THE REPEAT COUNT
   6524	010006					CALL	.TPTST		; .....IS THERE REALLY ONE THERE
	010006	004737 	011474'			 JSR	PC,.TPTST
   6525	010012	001404 				BEQ	30$		; .....NO -- JUST GO ON
   6526	010014	032737 	000400 	000216'		BIT	#LG.RPT,.LGLWD	; .....YES -- IS THIS COMMAND REPEATABLE?
   6527	010022	001427 				BEQ	DOCCNR		; .....NO -- GIVE "CNR" ERROR
   6528	010024				30$:
   6529	010024	105725 				TSTB	(R5)+		; .....YES -- IS THIS THE END??
   6530	010026	001010 				BNE	40$		; .....NO -- GO ON SCANNING THIS LINE
   6531	010030	105745 				TSTB	-(R5)		; .....YES -- BACK THE POINTER UP
   6532	010032					CALL	.TPDEC		; .....DECREMENT STACKED REPEAT COUNT
	010032	004737 	011550'			 JSR	PC,.TPDEC
   6533	010036					CALL	.TPTST		; .....SEE WHAT THE COUNT IS
	010036	004737 	011474'			 JSR	PC,.TPTST
   6534	010042	003405 				BLE	50$		; .....DONE IF .LE. 0
   6535	010044	016605 	000002 			MOV	2(SP),R5	; .....RESTORE INPUT STREAM POINTER
   6536	010050				40$:
   6537	010050	005037 	000216'			CLR	.LGLWD		; .....CLEAR THE LEGAL BITS
   6538	010054	000736 				BR	10$		; .....AND REITERATE OR CONTINUE
   6539						;
   6540	010056				50$:
   6541	010056	062706 	000012 			ADD	#^D10,SP	; .....FLUSH THE STACK
   6543	010062	005737 	000000G			TST	.KLERQ		; [5.1006]SNAPSHOT IN PROGRESS?
   6544	010066	001401 				BEQ	55$		; [5.1006]NO -- DO ERROR CHECKS
   6545	010070					RETURN			; [5.1006]YES -- DONE
	010070	000207 				 RTS	PC
   6547	010072				55$:	CALL	.CESCK		; CHECK FOR CLOCK ERROR STOP
	010072	004737 	000000'			 JSR	PC,.CESCK
   6548	010076					CALLR	.EBPCK		; AND EBUS PARITY ERROR
	010076	000137 	000410'			 JMP	.EBPCK
   6549						;
   6550	010102				DOCCNR:
   6551	010102					ERROR$	CNR		; ERROR -- COMMAND IS NOT REPEATABLE
	010102	012746 	012402 			 MOV	#^RCNR,-(SP)
	010106	104400 				 TRAP	TC.ERR
   6552						;
PARSE -- TOP-LEVEL COMMAND DECO	MACRO M1113  03-APR-86 22:51  PAGE 160
.EXITP -- THE COMMAND PARSER EXIT POINT 7605.17

   6554					.SBTTL	.EXITP -- THE COMMAND PARSER EXIT POINT 7605.17
   6555
   6556					;+
   6557					; .EXITP -- THE COMMAND PARSER EXIT POINT.
   6558					;
   6559					; THIS ROUTINE IS THE COMMAND PARSER EXIT POINT
   6560					;
   6561					; INPUT ARGUMENTS:
   6562					;
   6563					;	NONE.
   6564					;
   6565					; OUTPUT ARGUMENTS:
   6566					;
   6567					;	NONE.
   6568					;
   6569					; ERROR CODES RETURNED:
   6570					;
   6571					;	NONE.
   6572					;-
   6573
   6574	010110				.EXITP::
   6576	010110	005737 	000066'			TST	.DBGSW		; LOOK AT THE DEBUG SWITCH
   6577	010114	001401 				BEQ	5$		; CLEAR -- DON'T HALT
   6578	010116	000000 				HALT			; FOR DEBUGGING
   6579	010120				5$:
   6581	010120	005737 	001660'			TST	.INDFG		; [5.1000]INDIRECT FILE OPEN?
   6582	010124	001410 				BEQ	10$		; [5.1000]NO -- GO ON
   6583	010126	012701 	002750'			MOV	#.INATT,R1	; [5.1000]SET ATTRIBUTE ADDR
   6584	010132	012702 	000005 			MOV	#INDLUN,R2	; [5.1000]SET LUN
   6585	010136	005037 	001660'			CLR	.INDFG		; [5.1000]INDICATE FILE CLOSED
   6586	010142					CALL	.CLOSE		; [5.1000]CLOSE FILE
	010142	004737 	002114'			 JSR	PC,.CLOSE
   6587	010146	105737 	000206'		10$:	TSTB	.OUTLG		; [5.1000]LOG FILE OPEN?
   6588	010152	001412 				BEQ	20$		; [5.1000]NO -- GO NO
   6589	010154	105037 	000206'			CLRB	.OUTLG		; [5.1000]INDICATE FILE CLOSED
   6590	010160					CALL	.WRITZ		; [5.1000]WRITE OUT CURRENT BLOCK
	010160	004737 	003060'			 JSR	PC,.WRITZ
   6591	010164	012701 	004050'			MOV	#.OTATT,R1	; [5.1000]YES -- SET ATTRIBUTE ADDR
   6592	010170	012702 	000004 			MOV	#LOGLUN,R2	; [5.1000]SET LUN
   6593	010174					CALL	.CLOSE		; [5.1000]CLOSE FILE
	010174	004737 	002114'			 JSR	PC,.CLOSE
   6594	010200				20$:	QIOW$S	#IO.DET,#CIDLUN,#E.FCID,#0,#0,#0
	010200	005046 				CLR	-(SP)
	010202	005046 				CLR	-(SP)
	010204	112746 	000002 			MOVB	#E.FCID,-(SP)
	010210	112766 	000000 	000001 		MOVB	#0,1(SP)
	010216	012746 	000001 			MOV	#CIDLUN,-(SP)
	010222	012746 	000000G			MOV	#IO.DET,-(SP)
	010226	012746 				MOV	(PC)+,-(SP)
	010230	   003 	   006 			.BYTE	3,$$$T1
	010232	104375 				EMT	375
   6595	010234	005037 	000000G			CLR	.KLERQ		; [5.1006]CLEAR SNAPSHOT FLAG
   6596	010240	142737 	000000G	000000G		BICB	#M.PARQ,.MISC	; CLEAR THE PRIORITY FLAG
   6597	010246					.INH6			; DISALLOW INTERRUPTS
	010246	013746 	177776 			MOV	@#PS,-(SP)
	010252	112737 	000300 	177776 		MOVB	#300,@#PS
   6598	010260	013705 	000000G			MOV	CTYPTR,R5	; POINT TO THE CTY
PARSE -- TOP-LEVEL COMMAND DECO	MACRO M1113  03-APR-86 22:51  PAGE 160-1
.EXITP -- THE COMMAND PARSER EXIT POINT 7605.17

   6599	010264	042765 	000000G	000000G		BIC	#TT.OUT,STSW1(R5) ; CLEAR ANY I/O IN PROGRESS WE MAY HAVE SCREWED
   6600	010272	012703 	000000G			MOV	#D.CDLS,R3	;;; SEND A FREE ACK FOR THE CTY
   6601	010276					CALL	..SACK		;;;
	010276	004737 	000000G			 JSR	PC,..SACK
   6602	010302					.ENB6			; ALLOW INTERRUPTS
	010302	012637 	177776 			MOV	(SP)+,@#PS
   6603	010306					EXIT$S			; EXIT
	010306	012746 				MOV	(PC)+,-(SP)
	010310	   063 	   001 			.BYTE	51.,1
	010312	104375 				EMT	375
   6604	010314	000004 				IOT			; HELP....
   6605						;
PARSE -- TOP-LEVEL COMMAND DECO	MACRO M1113  03-APR-86 22:51  PAGE 161
.START -- COMMAND PARSER MAIN LOOP 7602.02

   6607					.SBTTL	.START -- COMMAND PARSER MAIN LOOP 7602.02
   6608
   6609					;+
   6610					; .START -- COMMAND PARSER MAIN LOOP.
   6611					;
   6612					; THIS IS THE MAIN LOOP AND TOPMOST LEVEL OF THE RSX20F CONSOLE
   6613					; COMMAND PARSER. CONTROL IS PASSED HERE ON STARTUP AND ON ERROR
   6614					; RESTARTS FROM ".PTTRP". THE PROMPT STRING IS OUTPUT TO THE CONSOLE
   6615					; OUTPUT DEVICE AND THE NEXT COMMAND STRING IS SOLICITED FROM
   6616					; THE OPERATOR.
   6617					;
   6618					; INPUT ARGUMENTS:
   6619					;
   6620					;	NONE.
   6621					;
   6622					; OUTPUT ARGUMENTS:
   6623					;
   6624					;	R0 POINTS TO THE REPEAT COUNT
   6625					;	R5 POINTS TO THE INPUT STREAM
   6626					;
   6627					; ERROR CODES RETURNED:
   6628					;
   6629					;	IF THE CONSOLE DEVICE CANNOT BE ATTACHED OR DETACHED, THE
   6630					;	PARSER EXITS.
   6631					;-
PARSE -- TOP-LEVEL COMMAND DECO	MACRO M1113  03-APR-86 22:51  PAGE 162
.RGSAV -- R1 - R5 SAVE AND RESTORE SUBROUTINE 7509.16

   6633					.SBTTL	.RGSAV -- R1 - R5 SAVE AND RESTORE SUBROUTINE 7509.16
   6634
   6635					;+
   6636					; .REGSV -- SUBROUTINE TO SAVE AND RESTORE R5 - R1 ON THE STACK.
   6637					;
   6638					; R1 - R5 ARE SAVED ON THE STACK, AND MAY BE RESTORED BY EITHER:
   6639					;
   6640					;	RETURN			; RETURNS TO HIGHER LEVEL
   6641					;		-OR-
   6642					;	CALL	@(SP)+		; RETURNS TO SAME LEVEL
   6643					;
   6644					; NO REGISTERS ARE DESTROYED BY THIS SUBROUTINE, AND SUBSEQUENT CALLS
   6645					; WILL NEST.
   6646					;
   6647					; CALLING SEQUENCE IS:
   6648					;
   6649					;	CALL	R5,.REGSV
   6650					;	ONLY RETURN
   6651					;-
   6652
   6653	010316				.REGSV::			; DEFINE AS GLOBAL
   6654	010316					PUSH	<R4,R3,R2,R1,R5>
	010316	010446 				 MOV	R4,-(SP)
	010320	010346 				 MOV	R3,-(SP)
	010322	010246 				 MOV	R2,-(SP)
	010324	010146 				 MOV	R1,-(SP)
	010326	010546 				 MOV	R5,-(SP)
   6655	010330	016605 	000012 			MOV	12(SP),R5	; .....RESTORE R5
   6656	010334	000241 				CLC			; .....CLEAR CC-C
   6657	010336					CALL	@(SP)+		; .....RETURN WITH RESTORE ADDRESS ON THE STACK
	010336	004736 				 JSR	PC,@(SP)+
   6658
   6659					; HERE TO RESTORE R1 - R5 AND RETURN
   6660
   6661	010340					POP	<R1,R2,R3,R4,R5>
	010340	012601 				 MOV	(SP)+,R1
	010342	012602 				 MOV	(SP)+,R2
	010344	012603 				 MOV	(SP)+,R3
	010346	012604 				 MOV	(SP)+,R4
	010350	012605 				 MOV	(SP)+,R5
   6662	010352					RETURN			; RETURN
	010352	000207 				 RTS	PC
PARSE -- TOP-LEVEL COMMAND DECO	MACRO M1113  03-APR-86 22:51  PAGE 163
.RGSAV -- R1 - R5 SAVE AND RESTORE SUBROUTINE 7509.16

   6664	010354				.START::
   6665	010354	013706 	000256'			MOV	.SVESP,SP	; INIT THE STACK POINTER
   6666	010360				10$:
   6667	010360	005037 	000260'			CLR	.SVKLF		; RESET ".SVKLF"
   6668	010364	012737 	000021'	000004'		MOV	#PARNAM,.CCMDN	; SET UP PARSER NAME
   6669	010372					CALL	.TYINI		; INIT OUTPUT POINTERS
	010372	004737 	015736'			 JSR	PC,.TYINI
   6670	010376	012701 	000000G			MOV	#.KLFLG,R1	; POINT TO ".KLFLG"
   6672	010402	012700 	000034'			MOV	#KLEPRM,R0	; [5.1006]KLE PROMPT
   6673	010406	005737 	000000G			TST	.KLERQ		; [5.1006]KL CRASH?
   6674	010412	001003 				BNE	12$		; [5.1006]YES -- GET KLE INPUT
   6675	010414	005037 	000176'			CLR	.KLEDF		; [5.1006]NO -- CLEAR DEFAULT FLAG
   6676	010420	000403 				BR	15$		; [5.1006]GO ON
   6677	010422				12$:	CALL	.TYMSF		; [5.1006]YES -- OUTPUT PROMPT
	010422	004737 	015454'			 JSR	PC,.TYMSF
   6678	010426	000423 				BR	35$		; [5.1006]GET COMMANDS
   6680	010430	012700 	000030'		15$:	MOV	#PROMPT,R0	; POINT TO THE PROMPT STRING
   6681	010434					CALL	.TYMSG		; PRINT IT
	010434	004737 	015462'			 JSR	PC,.TYMSG
   6682	010440	012700 	000076 			MOV	#'>,R0		; ASSUME THE KL IS RUNNING
   6683	010444	032711 	100000 			BIT	#KF.CLK,(R1)	; IS THE CLOCK ON?
   6684	010450	001406 				BEQ	20$		; NO -- PRINT "#"
   6685	010452	032711 	040000 			BIT	#KF.RUN,(R1)	; YES -- IS THE RUN FLOP ON?
   6686	010456	001005 				BNE	30$		; YES -- PRINT ">"
   6687	010460	012700 	000045 			MOV	#'%,R0		; NO -- PRINT "%"
   6688	010464	000402 				BR	30$		; GO DO IT
   6689						;
   6690	010466				20$:
   6691	010466	012700 	000043 			MOV	#'#,R0		; KL CLOCK IS OFF
   6692	010472				30$:
   6693	010472					CALL	.TFCHR		; FORCE PRINT THE PROMPT CHARACTER
	010472	004737 	015504'			 JSR	PC,.TFCHR
   6694	010476	012705 	001012'		35$:	MOV	#.COMND,R5	; SET UP COMMAND BUFFER POINTER
   6695	010502					CALL	.GTCMD		; GO READ A COMMAND LINE
	010502	004737 	012610'			 JSR	PC,.GTCMD
   6696	010506	005037 	000216'			CLR	.LGLWD		; FLUSH OLD LEGAL BITS
   6697	010512	012700 	000244'			MOV	#.RPTCT,R0	; GET THE REPEAT COUNT POINTER
   6698	010516					CALL	.DOCMD		; NOW GO EXECUTE A COMMAND
	010516	004737 	007730'			 JSR	PC,.DOCMD
   6699	010522	000716 				BR	10$		; AND START OVER AGAIN
   6700						;
PARSE -- TOP-LEVEL COMMAND DECO	MACRO M1113  03-APR-86 22:51  PAGE 164
.TSCAN -- ROUTINE TO SCAN A SYMBOL TABLE 7703.25

   6702					.SBTTL	.TSCAN -- ROUTINE TO SCAN A SYMBOL TABLE 7703.25
   6703
   6704					;+
   6705					; .TSCAN -- ROUTINE TO SCAN AN ".ASCIZ" SYMBOL TABLE.
   6706					;
   6707					; THIS ROUTINE WILL SCAN A SYMBOL TABLE AND RETURN THE DISPATCH
   6708					; ADDRESS ASSOCIATED WITH THE SYMBOL IN R0.
   6709					;
   6710					; THE ENTRIES IN THE SYMBOL TABLE ARE OF THE FORM:
   6711					;
   6712					;	!=======================================!
   6713					;	!	POINTER TO ".ASCIZ" SYMBOL	!
   6714					;	!---------------------------------------!
   6715					;	!	  LEGAL BITS FOR OBJECT		!
   6716					;	!---------------------------------------!
   6717					;	!	   DISPATCH FOR OBJECT		!
   6718					;	!=======================================!
   6719					;
   6720					; INPUT ARGUMENTS:
   6721					;
   6722					;	R0 POINTS TO THE SYMBOL TABLE
   6723					;
   6724					; OUTPUT ARGUMENTS:
   6725					;
   6726					;	R0 POINTS TO THE "LEGAL" BITS OF THE MATCHED SYMBOL
   6727					;
   6728					; ERROR CODES RETURNED:
   6729					;
   6730					;	AMB -- AMBIGUOUS KEYWORD.
   6731					;	NSK -- NON-EXISTENT KEYWORD.
   6732					;	WRM -- WRONG MODE FOR COMMAND.
   6733					;-
PARSE -- TOP-LEVEL COMMAND DECO	MACRO M1113  03-APR-86 22:51  PAGE 165
.TSCAN -- ROUTINE TO SCAN A SYMBOL TABLE 7703.25

   6735	010524				.TSCAN::
   6736	010524					CALL	.CKCTC		; SEE IF "^C" WAS TYPED
	010524	004737 	000166'			 JSR	PC,.CKCTC
   6737	010530					CALL	.CKSYM		; GET OVER LEADING BLANKS
	010530	004737 	000374'			 JSR	PC,.CKSYM
   6738	010534	122704 	000077 			CMPB	#'?,R4		; IS THIS AN INQUIRY?
   6739	010540	001442 				BEQ	50$		; YES -- DISPLAY THE TABLE
   6740	010542					PUSH	R1		; NO -- SAVE R1 ON THE STACK
	010542	010146 				 MOV	R1,-(SP)
   6741	010544					PUSH	R5		; .SAVE THE INPUT POINTER
	010544	010546 				 MOV	R5,-(SP)
   6742	010546	010001 				MOV	R0,R1		; ..TABLE POINTER TO R1
   6743	010550					PUSH	R5		; ..SAVE THE INPUT POINTER AGAIN
	010550	010546 				 MOV	R5,-(SP)
   6744	010552	005046 				CLR	-(SP)		; ...CLEAR A SCRATCH AREA
   6745	010554				10$:
   6746	010554	012100 				MOV	(R1)+,R0	; ....GET THE ADDRESS OF THE SYMBOL
   6747	010556					CALL	.SSCAN		; ....SCAN IT
	010556	004737 	010774'			 JSR	PC,.SSCAN
   6748	010562	103412 				BCS	30$		; ....NO MATCH -- TRY NEXT ENTRY
   6749	010564	001004 				BNE	20$		; ....MATCH -- SAVE POINTER AND CONTINUE
   6750	010566	010100 				MOV	R1,R0		; ....EXACT MATCH -- PUT THE POINTER IN R0
   6751	010570	010566 	000004 			MOV	R5,4(SP)	; ....FIX THE INPUT POINTER
   6752	010574	000414 				BR	40$		; ....AND SET UP FOR EXIT
   6753						;
   6754	010576				20$:
   6755	010576	005716 				TST	(SP)		; ....HAVE WE ALREADY FOUND A MATCH?
   6756	010600	001062 				BNE	TSCAMB		; ....YES -- GIVE "AMB" ERROR
   6757	010602	010116 				MOV	R1,(SP)		; ....NO -- SAVE POINTER AND GO ON
   6758	010604	010566 	000004 			MOV	R5,4(SP)	; ....SAVE THE BUFFER POINTER
   6759	010610				30$:
   6760	010610	016605 	000002 			MOV	2(SP),R5	; ....RESET THE INPUT POINTER
   6761	010614	022121 				CMP	(R1)+,(R1)+	; ....ADVANCE THE POINTER
   6762	010616	005711 				TST	(R1)		; ....IS THIS THE END OF THE TABLE?
   6763	010620	001355 				BNE	10$		; ....NO -- TRY THIS SYMBOL
   6764	010622	011600 				MOV	(SP),R0		; ....YES -- DID WE FIND A MATCH?
   6765	010624	001455 				BEQ	TSCNSK		; ....NO -- GIVE "NSK" ERROR
   6766	010626				40$:
   6767	010626	033710 	000000G			BIT	.FEMOD,(R0)	; ....YES -- CAN WE DO THIS COMMAND?
   6768	010632	001455 				BEQ	TSCWRM		; ....NO -- GIVE "WRM" ERROR
   6769	010634	022626 				CMP	(SP)+,(SP)+	; ....YES -- CLEAR THE STACK
   6770	010636					POP	R5		; ..RETURN UPDATED LINE POINTER
	010636	012605 				 MOV	(SP)+,R5
   6771	010640	111504 				MOVB	(R5),R4		; .PUT THE DELIMITER IN R4
   6772	010642					POP	R1		; .RESTORE R1
	010642	012601 				 MOV	(SP)+,R1
   6773	010644					RETURN			; WITH POINTER TO LEGAL BITS IN R0
	010644	000207 				 RTS	PC
PARSE -- TOP-LEVEL COMMAND DECO	MACRO M1113  03-APR-86 22:51  PAGE 166
.TSCAN -- ROUTINE TO SCAN A SYMBOL TABLE 7703.25

   6775	010646				50$:
   6776	010646	105725 				TSTB	(R5)+		; GET OVER THE "?"
   6777	010650					CALL	.CKEOC		; CHECK FOR E-O-C
	010650	004737 	000214'			 JSR	PC,.CKEOC
   6778	010654	010001 				MOV	R0,R1		; TABLE POINTER TO R1
   6779	010656					CALL	.TCRLF		; TYPE A <CRLF>
	010656	004737 	015552'			 JSR	PC,.TCRLF
   6780	010662	013700 	000004'			MOV	.CCMDN,R0	; CURRENT COMMAND NAME
   6781	010666					CALL	.TYMSG		; PRINT THAT
	010666	004737 	015462'			 JSR	PC,.TYMSG
   6782	010672	012700 	000345'			MOV	#TDMSG0,R0	; REST OF LINE
   6783	010676					CALL	.TYLIN		; PRINT IT
	010676	004737 	015446'			 JSR	PC,.TYLIN
   6784	010702				60$:
   6785	010702	012100 				MOV	(R1)+,R0	; NAME POINTER TO R0
   6786	010704	001414 				BEQ	80$		; EXIT IF NULL
   6787	010706	031137 	000000G			BIT	(R1),.FEMOD	; COMMAND LEGAL IN THIS MODE?
   6788	010712	001407 				BEQ	70$		; NO -- GO ON
   6789	010714	105760 	000001 			TSTB	1(R0)		; [5.1012]ONE CHAR COMMAND?
   6790	010720	001404 				BEQ	70$		; [5.1012]YES -- SKIP IT
   6791	010722					CALL	.TYSPC		; YES -- SPACE OVER
	010722	004737 	014602'			 JSR	PC,.TYSPC
   6792	010726					CALL	.TYLIN		; PRINT THIS NAME
	010726	004737 	015446'			 JSR	PC,.TYLIN
   6793	010732				70$:
   6794	010732	022121 				CMP	(R1)+,(R1)+	; POINT TO THE NEXT NAME
   6795	010734	000762 				BR	60$		; AND GO ON
   6796						;
   6797	010736				80$:
   6798	010736	013706 	000256'			MOV	.SVESP,SP	; RESET THE STACK
   6799	010742	000177 	000254'			JMP	@.STRTV		; AND START OVER
   6800						;
PARSE -- TOP-LEVEL COMMAND DECO	MACRO M1113  03-APR-86 22:51  PAGE 167
.TSCAN -- ROUTINE TO SCAN A SYMBOL TABLE 7703.25

   6802	010746				TSCAMB:
   6803	010746	016605 	000002 			MOV	2(SP),R5	; RESET INPUT POINTER
   6804	010752					ERROR$	AMB		; .ERROR -- MULTIPLE MATCH
	010752	012746 	004112 			 MOV	#^RAMB,-(SP)
	010756	104400 				 TRAP	TC.ERR
   6805						;
   6806	010760				TSCNSK:
   6807	010760					ERROR$	NSK		; .ERROR -- NON-EXISTENT KEYWORD
	010760	012746 	055203 			 MOV	#^RNSK,-(SP)
	010764	104400 				 TRAP	TC.ERR
   6808						;
   6809	010766				TSCWRM:
   6810	010766					ERROR$	WRM		; .ERROR -- WRONG MODE FOR COMMAND
	010766	012746 	111235 			 MOV	#^RWRM,-(SP)
	010772	104400 				 TRAP	TC.ERR
   6811						;
   6812
   6813	000345				.PSECT	MESSAG
   6814
   6815	000345				TDMSG0:
   6816	000345	   040 	   103 	   117 		.ASCIZ	% COMMANDS ARE:%
	000350	   115 	   115 	   101
	000353	   116 	   104 	   123
	000356	   040 	   101 	   122
	000361	   105 	   072 	   000
   6817	010774				.PSECT
PARSE -- TOP-LEVEL COMMAND DECO	MACRO M1113  03-APR-86 22:51  PAGE 168
.SSCAN -- ROUTINE TO SCAN A SYMBOL 7601.14

   6819					.SBTTL	.SSCAN -- ROUTINE TO SCAN A SYMBOL 7601.14
   6820
   6821					;+
   6822					; .SSCAN -- ROUTINE TO SCAN A SYMBOL IN THE INPUT STREAM FOR A MATCH
   6823					;	    WITH AN ".ASCIZ" SYMBOL IN A TABLE.
   6824					;
   6825					; THIS ROUTINE WILL FIND A MATCH OR NON-MATCH ON A SYMBOL POINTED TO
   6826					; BY R5 WITH THE ".ASCIZ" SYMBOLS IN THE TABLE POINTED TO BY R0.
   6827					;
   6828					; INPUT ARGUMENTS:
   6829					;
   6830					;	R0 POINTS TO AN ".ASCIZ" SYMBOL IN A TABLE DESCRIBED IN
   6831					;	".TSCAN" (Q.V.).
   6832					;	R5 POINTS TO THE INPUT STREAM, OR THE OTHER SYMBOL TO BE
   6833					;	MATCHED.
   6834					;
   6835					; OUTPUT ARGUMENTS:
   6836					;
   6837					;  ON FAILURE, (NO MATCH):
   6838					;	R5 POINTS TO THE BEGINNING OF THE SYMBOL IN THE INPUT STREAM
   6839					;	R4 CONTAINS THE LAST CHARACTER PROCESSED IN THE INPUT STREAM
   6840					;	CC-C IS SET.
   6841					;
   6842					;  ON SUCCESS, (MATCH):
   6843					;	R5 POINTS TO THE DELIMITER AFTER THE SYMBOL
   6844					;	R4 CONTAINS THAT DELIMITER CHARACTER
   6845					;	CC-C IS CLEAR
   6846					;	IF CC-Z IS SET, THE MATCH WAS EXACT.
   6847					;
   6848					; ERROR CODES RETURNED:
   6849					;
   6850					;	ILS -- ILLEGAL SEPARATOR CHARCATER.
   6851					;-
PARSE -- TOP-LEVEL COMMAND DECO	MACRO M1113  03-APR-86 22:51  PAGE 169
.SSCAN -- ROUTINE TO SCAN A SYMBOL 7601.14

   6853	010774				.SSCAN::
   6854	010774	121510 				CMPB	(R5),(R0)	; TEST CHARACTERS FOR MATCH
   6855	010776	001006 				BNE	20$		; NO MATCH -- CHECK DELIMITER
   6856	011000	105720 				TSTB	(R0)+		; ADVANCE THE POINTERS
   6857	011002	001402 				BEQ	10$		; MATCH ON ".ASCIZ" SYMBOLS?
   6858	011004	105725 				TSTB	(R5)+		; NO -- ADVANCE OTHER POINTER
   6859	011006	000772 				BR	.SSCAN		; AND TRY NEXT TWO CHARACTERS
   6860						;
   6861	011010				10$:
   6862	011010	105740 				TSTB	-(R0)		; BACK THE POINTER UP
   6863	011012	000405 				BR	30$		; AND EXIT
   6864						;
   6865	011014				20$:
   6866	011014	111504 				MOVB	(R5),R4		; GET LAST CHARACTER FROM INPUT
   6867	011016	132764 	000034 	001502'		BITB	#CH.END,.CHTAB(R4)
   6868	011024	001402 				BEQ	40$		; NOT LEGAL DELIMITER -- GIVE NO MATCH
   6869	011026				30$:
   6870	011026	105710 				TSTB	(R0)		; LOOK AT THE LAST CHARACTER IN OUR SYMBOL
   6871	011030	000401 				BR	50$		; AND EXIT
   6872						;
   6873	011032				40$:
   6874	011032	000261 				SEC			; SET CC-C TO SAY "NO MATCH"
   6875	011034				50$:
   6876	011034					RETURN			; TO CALLER
	011034	000207 				 RTS	PC
REPTC -- REPEAT COMMAND MODULE 	MACRO M1113  03-APR-86 22:51  PAGE 171
.SSCAN -- ROUTINE TO SCAN A SYMBOL 7601.14

   6879					.TITLE	REPTC -- REPEAT COMMAND MODULE 7703.25
   6880
   6881						.IDENT	"005000"
   6882
   6883					;
   6884					;                             COPYRIGHT (C) 1975, 1984, 1985 BY
   6885					;                     DIGITAL EQUIPMENT CORPORATION, MAYNARD MASS.
   6886					;			ALL RIGHTS RESERVED.
   6887					;       THIS SOFTWARE IS FURNISHED UNDER A LICENSE AND MAY BE  USED  AND  COPIED
   6888					;       ONLY IN ACCORDANCE WITH THE TERMS OF SUCH LICENSE AND WITH THE INCLUSION
   6889					;       OF THE ABOVE COPYRIGHT NOTICE.  THIS SOFTWARE OR ANY OTHER COPIES THERE-
   6890					;       OF  MAY NOT BE PROVIDED OR OTHERWISE MADE AVAILABLE TO ANY OTHER PERSON.
   6891					;       NO TITLE TO OR OWNERSHIP OF THE SOFTWARE IS HEREBY TRANSFERRED.
   6892					;
   6893					;       THE INFORMATION CONTAINED IN THIS SOFTWARE IS SUBJECT TO CHANGE  WITHOUT
   6894					;       NOTICE  AND SHOULD NOT BE CONSTRUED AS A COMMITMENT BY DIGITAL EQUIPMENT
   6895					;       CORPORATION.
   6896					;
   6897					;       DIGITAL ASSUMES NO RESPONSIBILITY FOR THE  USE  OR  RELIABILITY  OF  ITS
   6898					;       SOFTWARE ON EQUIPMENT WHICH IS NOT SUPPILED BY DIGITAL.
   6899					;
   6900					;		MODULE: REPEAT COMMAND
   6901					;
   6902					;		VERSION: 05-00
   6903					;
   6904					;		AUTHOR: R. BELANGER
   6905					;
   6906					;		DATE: 7703.25
   6907					;
   6908					;	THIS MODULE CONTAINS:
   6909					;
   6910					;	1) REPEAT COMMAND CODE
REPTC -- REPEAT COMMAND MODULE 	MACRO M1113  03-APR-86 22:51  PAGE 172
.REPTC -- THE "REPEAT" COMMAND 7703.25

   6912					.SBTTL	.REPTC -- THE "REPEAT" COMMAND 7703.25
   6913
   6914					;+
   6915					; .REPTC -- THE "REPEAT" COMMAND
   6916					;
   6917					; THIS ROUTINE WILL ACCEPT AND CHECK A 36 BIT REPEAT COUNT BEFORE
   6918					; CALLING THE TOP LEVEL OF THE COMMAND PARSER.
   6919					;
   6920					; INPUT ARGUMENTS:
   6921					;
   6922					;	NONE.
   6923					;
   6924					; OUTPUT ARGUMENTS:
   6925					;
   6926					;	R0 POINTS TO A 36 BIT REPEAT COUNT
   6927					;
   6928					; ERROR CODES RETURNED:
   6929					;
   6930					;	IRC -- ILLEGAL REPEAT COUNT
   6931					;-
   6932
   6933	011036				.REPTC::
   6934	011036	013737 	000166'	000240'		MOV	.IRADX,.RDXSV	; SAVE CURRENT INPUT RADIX
   6935	011044	012737 	000012 	000166'		MOV	#^D10,.IRADX	; SET IT TO DECIMAL
   6936	011052	005046 				CLR	-(SP)		; CLEAR A BUFFER ON THE STACK
   6937	011054	005046 				CLR	-(SP)		; .
   6938	011056	005046 				CLR	-(SP)		; ..
   6939	011060	010600 				MOV	SP,R0		; ...POINT TO IT
   6940	011062					CALL	.GTKLN		; ...READ THE NUMBER
	011062	004737 	013302'			 JSR	PC,.GTKLN
   6941	011066	013737 	000240'	000166'		MOV	.RDXSV,.IRADX	; ...RESET INPUT RADIX
   6942	011074					CALL	.TPTST		; ...SEE WHAT WE GOT
	011074	004737 	011474'			 JSR	PC,.TPTST
   6943	011100	003410 				BLE	REPIRC		; ...ILLEGAL IF .LE. 0
   6944	011102					CALL	.CKEOC		; ...CHECK E-O-C
	011102	004737 	000214'			 JSR	PC,.CKEOC
   6945	011106	105725 				TSTB	(R5)+		; ...GET OVER THE E-O-C CHARACTER
   6946	011110					CALL	.DOCMD		; ...CONTINUE PROCESSING THE LINE
	011110	004737 	007730'			 JSR	PC,.DOCMD
   6947	011114	062706 	000006 			ADD	#^D6,SP		; ...FLUSH THE STACK
   6948	011120					RETURN			; TO CALLER
	011120	000207 				 RTS	PC
   6949	011122				REPIRC:
   6950	011122					ERROR$	IRC		; ERROR -- ILLEGAL REPEAT COUNT
	011122	012746 	035423 			 MOV	#^RIRC,-(SP)
	011126	104400 				 TRAP	TC.ERR
   6951						;
REPTC -- REPEAT COMMAND MODULE 	MACRO M1113  03-APR-86 22:51  PAGE 173
.REPTC -- THE "REPEAT" COMMAND 7703.25

   6953
   6954					.TITLE	TABLE -- COMMAND PARSER COMMAND TABLES 7812.20
   6955
   6956						.IDENT	"007030"
   6957
   6958					;
   6959					;                             COPYRIGHT (C) 1975, 1984, 1985 BY
   6960					;                     DIGITAL EQUIPMENT CORPORATION, MAYNARD MASS.
   6961					;			ALL RIGHTS RESERVED.
   6962					;       THIS SOFTWARE IS FURNISHED UNDER A LICENSE AND MAY BE  USED  AND  COPIED
   6963					;       ONLY IN ACCORDANCE WITH THE TERMS OF SUCH LICENSE AND WITH THE INCLUSION
   6964					;       OF THE ABOVE COPYRIGHT NOTICE.  THIS SOFTWARE OR ANY OTHER COPIES THERE-
   6965					;       OF  MAY NOT BE PROVIDED OR OTHERWISE MADE AVAILABLE TO ANY OTHER PERSON.
   6966					;       NO TITLE TO OR OWNERSHIP OF THE SOFTWARE IS HEREBY TRANSFERRED.
   6967					;
   6968					;       THE INFORMATION CONTAINED IN THIS SOFTWARE IS SUBJECT TO CHANGE  WITHOUT
   6969					;       NOTICE  AND SHOULD NOT BE CONSTRUED AS A COMMITMENT BY DIGITAL EQUIPMENT
   6970					;       CORPORATION.
   6971					;
   6972					;       DIGITAL ASSUMES NO RESPONSIBILITY FOR THE  USE  OR  RELIABILITY  OF  ITS
   6973					;       SOFTWARE ON EQUIPMENT WHICH IS NOT SUPPILED BY DIGITAL.
   6974					;
   6975					;		MODULE: MAIN COMMAND PARSER TABLES
   6976					;
   6977					;		VERSION: 07-03
   6978					;
   6979					;		AUTHOR: R. BELANGER
   6980					;
   6981					;		DATE: 7812.20
   6982					;
   6983					;	THIS MODULE CONTAINS:
   6984					;
   6985					;	1) THE MAIN COMMAND TABLES
   6986					;
   6987					;  MODIFICATIONS:
   6988					;
   6989					;	NO.	DATE		PROGRAMMER	REASON
   6990					;	---	----		----------	------
   6991					;	001	28-FEB-77	R. BELANGER	ADD DISCONNECT COMMAND
   6992					;
   6993					;    [5.1000]	24-AUG-79	K. LEFEBVRE	ADD "TAKE" COMMAND
   6994					;						ADD "SET OUTPUT" COMMAND
   6995					;    [5.1002]	14-SEP-79	K. LEFEBVRE	ADD "SET AC-BLOCK" COMMAND
   6996					;						ADD "SWEEP" COMMAND
   6997					;    [5.1010]	17-OCT-79	K.LEFEBVRE	ADD "SHOW" COMMAND
   6998					;    [5.1011]	19-OCT-79	R.BELANGER	ADD "WHAT HARDWARE" COMMAND
   6999					;    [5.1012]	19-OCT-79	R.BELANGER	ADD "MARK-MICROCODE" COMMAND
   7000					;						ADD "UNMARK-MICROCODE" COMMAND
   7001					;	002	05-NOV-80	S. LEAPLINE	ADD "AUTO-TAKE" COMMAND
   7002					;
   7003					;09-JUN-83  TCO 6.1675	D. WEAVER
   7004					;	REMOVE THE "SET/CLEAR/WHAT AUTO-TAKE" COMMANDS.
   7005					;
TABLE -- COMMAND PARSER COMMAND	MACRO M1113  03-APR-86 22:51  PAGE 174
.CMDTB -- THE MAIN COMMAND TABLE 7703.25

   7007					.SBTTL	.CMDTB -- THE MAIN COMMAND TABLE 7703.25
   7008
   7009	004350					.PSECT	DATA
   7010
   7011	004350				.CMDTB::
   7012	004350					COMND$	,<LG.OPR!LG.RPT>,.NULLC,NUL
	000364	   000 			NULMSG:: .ASCIZ	%%
	004350	000364'				 .WORD	NULMSG		; POINTER TO "" SYMBOL
	004352	000401 				 .WORD	LG.OPR!LG.RPT		; LEGAL BITS
	004354	007716'				 .WORD	.NULLC		; ROUTINE TO CALL OR DATA
   7013					;
   7014	004356					COMND$	ABORT,LG.OPR,.ABRTC,ABO
	000365	   101 	   102 	   117 	ABOMSG:: .ASCIZ	%ABORT%
	000370	   122 	   124 	   000
	004356	000365'				 .WORD	ABOMSG		; POINTER TO "ABORT" SYMBOL
	004360	000001 				 .WORD	LG.OPR		; LEGAL BITS
	004362	000000G				 .WORD	.ABRTC		; ROUTINE TO CALL OR DATA
   7015					;
   7016	004364					COMND$	CLEAR,<LG.OPR!LG.RPT>,.CLRCM,CLR
	000373	   103 	   114 	   105 	CLRMSG:: .ASCIZ	%CLEAR%
	000376	   101 	   122 	   000
	004364	000373'				 .WORD	CLRMSG		; POINTER TO "CLEAR" SYMBOL
	004366	000401 				 .WORD	LG.OPR!LG.RPT		; LEGAL BITS
	004370	000000G				 .WORD	.CLRCM		; ROUTINE TO CALL OR DATA
   7017					;
   7018	004372					COMND$	CONTINUE,<LG.PRG!LG.RPT>,.CONTC,CNT
	000401	   103 	   117 	   116 	CNTMSG:: .ASCIZ	%CONTINUE%
	000404	   124 	   111 	   116
	000407	   125 	   105 	   000
	004372	000401'				 .WORD	CNTMSG		; POINTER TO "CONTINUE" SYMBOL
	004374	000402 				 .WORD	LG.PRG!LG.RPT		; LEGAL BITS
	004376	000000G				 .WORD	.CONTC		; ROUTINE TO CALL OR DATA
   7019					;
   7020	004400					COMND$	DEPOSIT,<LG.PRG!LG.RPT>,.DPOSC,DEP
	000412	   104 	   105 	   120 	DEPMSG:: .ASCIZ	%DEPOSIT%
	000415	   117 	   123 	   111
	000420	   124 	   000
	004400	000412'				 .WORD	DEPMSG		; POINTER TO "DEPOSIT" SYMBOL
	004402	000402 				 .WORD	LG.PRG!LG.RPT		; LEGAL BITS
	004404	000000G				 .WORD	.DPOSC		; ROUTINE TO CALL OR DATA
   7021					;
   7022	004406					COMND$	DISCONNECT,LG.ALL,.DISCC,DIS
	000422	   104 	   111 	   123 	DISMSG:: .ASCIZ	%DISCONNECT%
	000425	   103 	   117 	   116
	000430	   116 	   105 	   103
	000433	   124 	   000
	004406	000422'				 .WORD	DISMSG		; POINTER TO "DISCONNECT" SYMBOL
	004410	000007 				 .WORD	LG.ALL		; LEGAL BITS
	004412	000000G				 .WORD	.DISCC		; ROUTINE TO CALL OR DATA
   7023					;
   7024	004414					COMND$	EXAMINE,<LG.OPR!LG.RPT>,.EXAMC,EXA
	000435	   105 	   130 	   101 	EXAMSG:: .ASCIZ	%EXAMINE%
	000440	   115 	   111 	   116
	000443	   105 	   000
	004414	000435'				 .WORD	EXAMSG		; POINTER TO "EXAMINE" SYMBOL
	004416	000401 				 .WORD	LG.OPR!LG.RPT		; LEGAL BITS
	004420	000000G				 .WORD	.EXAMC		; ROUTINE TO CALL OR DATA
TABLE -- COMMAND PARSER COMMAND	MACRO M1113  03-APR-86 22:51  PAGE 174-1
.CMDTB -- THE MAIN COMMAND TABLE 7703.25

   7025					;
   7026	004422					COMND$	FREAD,<LG.MNT!LG.RPT>,.DFRED,FRD
	000445	   106 	   122 	   105 	FRDMSG:: .ASCIZ	%FREAD%
	000450	   101 	   104 	   000
	004422	000445'				 .WORD	FRDMSG		; POINTER TO "FREAD" SYMBOL
	004424	000404 				 .WORD	LG.MNT!LG.RPT		; LEGAL BITS
	004426	000000G				 .WORD	.DFRED		; ROUTINE TO CALL OR DATA
   7027					;
   7028	004430					COMND$	FWRITE,<LG.MNT!LG.RPT>,.DFWRT,FWR
	000453	   106 	   127 	   122 	FWRMSG:: .ASCIZ	%FWRITE%
	000456	   111 	   124 	   105
	000461	   000
	004430	000453'				 .WORD	FWRMSG		; POINTER TO "FWRITE" SYMBOL
	004432	000404 				 .WORD	LG.MNT!LG.RPT		; LEGAL BITS
	004434	000000G				 .WORD	.DFWRT		; ROUTINE TO CALL OR DATA
   7029					;
   7030	004436					COMND$	FXCT,<LG.MNT!LG.RPT>,.DFXCT,FXC
	000462	   106 	   130 	   103 	FXCMSG:: .ASCIZ	%FXCT%
	000465	   124 	   000
	004436	000462'				 .WORD	FXCMSG		; POINTER TO "FXCT" SYMBOL
	004440	000404 				 .WORD	LG.MNT!LG.RPT		; LEGAL BITS
	004442	000000G				 .WORD	.DFXCT		; ROUTINE TO CALL OR DATA
   7031					;
   7032	004444					COMND$	HALT,<LG.PRG!LG.RPT>,.HALTC,HLT
	000467	   110 	   101 	   114 	HLTMSG:: .ASCIZ	%HALT%
	000472	   124 	   000
	004444	000467'				 .WORD	HLTMSG		; POINTER TO "HALT" SYMBOL
	004446	000402 				 .WORD	LG.PRG!LG.RPT		; LEGAL BITS
	004450	000000G				 .WORD	.HALTC		; ROUTINE TO CALL OR DATA
   7033					;
   7038	004452					COMND$	INITIALIZE,<LG.PRG!LG.RPT>,.INITC,INI
	000474	   111 	   116 	   111 	INIMSG:: .ASCIZ	%INITIALIZE%
	000477	   124 	   111 	   101
	000502	   114 	   111 	   132
	000505	   105 	   000
	004452	000474'				 .WORD	INIMSG		; POINTER TO "INITIALIZE" SYMBOL
	004454	000402 				 .WORD	LG.PRG!LG.RPT		; LEGAL BITS
	004456	000000G				 .WORD	.INITC		; ROUTINE TO CALL OR DATA
   7039					;
   7040	004460					COMND$	JUMP,LG.OPR,.JUMPC,JMP
	000507	   112 	   125 	   115 	JMPMSG:: .ASCIZ	%JUMP%
	000512	   120 	   000
	004460	000507'				 .WORD	JMPMSG		; POINTER TO "JUMP" SYMBOL
	004462	000001 				 .WORD	LG.OPR		; LEGAL BITS
	004464	000000G				 .WORD	.JUMPC		; ROUTINE TO CALL OR DATA
   7041					;
   7042	004466					COMND$	M,LG.OPR,.RUNCM,M
	000514	   115 	   000 		MMSG:: .ASCIZ	%M%
	004466	000514'				 .WORD	MMSG		; POINTER TO "M" SYMBOL
	004470	000001 				 .WORD	LG.OPR		; LEGAL BITS
	004472	000000G				 .WORD	.RUNCM		; ROUTINE TO CALL OR DATA
   7043					;
   7044	004474					COMND$	MARK-MICROCODE,LG.MNT,.MARKC,MRK
	000516	   115 	   101 	   122 	MRKMSG:: .ASCIZ	%MARK-MICROCODE%
	000521	   113 	   055 	   115
	000524	   111 	   103 	   122
	000527	   117 	   103 	   117
TABLE -- COMMAND PARSER COMMAND	MACRO M1113  03-APR-86 22:51  PAGE 174-2
.CMDTB -- THE MAIN COMMAND TABLE 7703.25

	000532	   104 	   105 	   000
	004474	000516'				 .WORD	MRKMSG		; POINTER TO "MARK-MICROCODE" SYMBOL
	004476	000004 				 .WORD	LG.MNT		; LEGAL BITS
	004500	000000G				 .WORD	.MARKC		; ROUTINE TO CALL OR DATA
   7045					;
   7046	004502					COMND$	MCR,LG.OPR,.RUNCM,MCR
	000535	   115 	   103 	   122 	MCRMSG:: .ASCIZ	%MCR%
	000540	   000
	004502	000535'				 .WORD	MCRMSG		; POINTER TO "MCR" SYMBOL
	004504	000001 				 .WORD	LG.OPR		; LEGAL BITS
	004506	000000G				 .WORD	.RUNCM		; ROUTINE TO CALL OR DATA
   7047					;
   7048	004510					COMND$	R,LG.OPR,.RUNCM,R
	000541	   122 	   000 		RMSG:: .ASCIZ	%R%
	004510	000541'				 .WORD	RMSG		; POINTER TO "R" SYMBOL
	004512	000001 				 .WORD	LG.OPR		; LEGAL BITS
	004514	000000G				 .WORD	.RUNCM		; ROUTINE TO CALL OR DATA
   7049					;
   7050	004516					COMND$	REPEAT,<LG.OPR!LG.RPT>,.REPTC,RPT
	000543	   122 	   105 	   120 	RPTMSG:: .ASCIZ	%REPEAT%
	000546	   105 	   101 	   124
	000551	   000
	004516	000543'				 .WORD	RPTMSG		; POINTER TO "REPEAT" SYMBOL
	004520	000401 				 .WORD	LG.OPR!LG.RPT		; LEGAL BITS
	004522	011036'				 .WORD	.REPTC		; ROUTINE TO CALL OR DATA
   7051					;
   7052					;
   7053	004524					COMND$	QREST,LG.OPR,.RESQ,QRES
	000552	   121 	   122 	   105 	QRESMSG:: .ASCIZ	%QREST%
	000555	   123 	   124 	   000
	004524	000552'				 .WORD	QRESMSG		; POINTER TO "QREST" SYMBOL
	004526	000001 				 .WORD	LG.OPR		; LEGAL BITS
	004530	000000G				 .WORD	.RESQ		; ROUTINE TO CALL OR DATA
   7054
   7055	004532					COMND$	QSAVE,LG.OPR,.SAVQ,QSAV
	000560	   121 	   123 	   101 	QSAVMSG:: .ASCIZ	%QSAVE%
	000563	   126 	   105 	   000
	004532	000560'				 .WORD	QSAVMSG		; POINTER TO "QSAVE" SYMBOL
	004534	000001 				 .WORD	LG.OPR		; LEGAL BITS
	004536	000000G				 .WORD	.SAVQ		; ROUTINE TO CALL OR DATA
   7056
   7057	004540					COMND$	RESET,<LG.PRG!LG.RPT>,.RESTC,RES
	000566	   122 	   105 	   123 	RESMSG:: .ASCIZ	%RESET%
	000571	   105 	   124 	   000
	004540	000566'				 .WORD	RESMSG		; POINTER TO "RESET" SYMBOL
	004542	000402 				 .WORD	LG.PRG!LG.RPT		; LEGAL BITS
	004544	000000G				 .WORD	.RESTC		; ROUTINE TO CALL OR DATA
   7058					;
   7059	004546					COMND$	RESTORE,LG.MNT,.RSTRC,RST
	000574	   122 	   105 	   123 	RSTMSG:: .ASCIZ	%RESTORE%
	000577	   124 	   117 	   122
	000602	   105 	   000
	004546	000574'				 .WORD	RSTMSG		; POINTER TO "RESTORE" SYMBOL
	004550	000004 				 .WORD	LG.MNT		; LEGAL BITS
	004552	000000G				 .WORD	.RSTRC		; ROUTINE TO CALL OR DATA
   7060					;
   7061	004554					COMND$	RUN,LG.OPR,.RUNCM,RUN
TABLE -- COMMAND PARSER COMMAND	MACRO M1113  03-APR-86 22:51  PAGE 174-3
.CMDTB -- THE MAIN COMMAND TABLE 7703.25

	000604	   122 	   125 	   116 	RUNMSG:: .ASCIZ	%RUN%
	000607	   000
	004554	000604'				 .WORD	RUNMSG		; POINTER TO "RUN" SYMBOL
	004556	000001 				 .WORD	LG.OPR		; LEGAL BITS
	004560	000000G				 .WORD	.RUNCM		; ROUTINE TO CALL OR DATA
   7062					;
   7063	004562					COMND$	SAVE,LG.MNT,.SAVEC,SAV
	000610	   123 	   101 	   126 	SAVMSG:: .ASCIZ	%SAVE%
	000613	   105 	   000
	004562	000610'				 .WORD	SAVMSG		; POINTER TO "SAVE" SYMBOL
	004564	000004 				 .WORD	LG.MNT		; LEGAL BITS
	004566	000000G				 .WORD	.SAVEC		; ROUTINE TO CALL OR DATA
   7064					;
   7065	004570					COMND$	SET,<LG.OPR!LG.RPT>,.SETCM,SET
	000615	   123 	   105 	   124 	SETMSG:: .ASCIZ	%SET%
	000620	   000
	004570	000615'				 .WORD	SETMSG		; POINTER TO "SET" SYMBOL
	004572	000401 				 .WORD	LG.OPR!LG.RPT		; LEGAL BITS
	004574	000000G				 .WORD	.SETCM		; ROUTINE TO CALL OR DATA
   7066					;
   7067	004576					COMND$	SHOW,LG.OPR,.WHATC,SHO
	000621	   123 	   110 	   117 	SHOMSG:: .ASCIZ	%SHOW%
	000624	   127 	   000
	004576	000621'				 .WORD	SHOMSG		; POINTER TO "SHOW" SYMBOL
	004600	000001 				 .WORD	LG.OPR		; LEGAL BITS
	004602	000000G				 .WORD	.WHATC		; ROUTINE TO CALL OR DATA
   7068					;
   7069	004604					COMND$	SHUTDOWN,LG.OPR,.SHUTC,SHU
	000626	   123 	   110 	   125 	SHUMSG:: .ASCIZ	%SHUTDOWN%
	000631	   124 	   104 	   117
	000634	   127 	   116 	   000
	004604	000626'				 .WORD	SHUMSG		; POINTER TO "SHUTDOWN" SYMBOL
	004606	000001 				 .WORD	LG.OPR		; LEGAL BITS
	004610	000000G				 .WORD	.SHUTC		; ROUTINE TO CALL OR DATA
   7070					;
   7071	004612					COMND$	START,<LG.PRG!LG.RPT>,.STRTC,STR
	000637	   123 	   124 	   101 	STRMSG:: .ASCIZ	%START%
	000642	   122 	   124 	   000
	004612	000637'				 .WORD	STRMSG		; POINTER TO "START" SYMBOL
	004614	000402 				 .WORD	LG.PRG!LG.RPT		; LEGAL BITS
	004616	000000G				 .WORD	.STRTC		; ROUTINE TO CALL OR DATA
   7072					;
   7073	004620					COMND$	SWEEP,<LG.MNT!LG.RPT>,.SWPC,SWP
	000645	   123 	   127 	   105 	SWPMSG:: .ASCIZ	%SWEEP%
	000650	   105 	   120 	   000
	004620	000645'				 .WORD	SWPMSG		; POINTER TO "SWEEP" SYMBOL
	004622	000404 				 .WORD	LG.MNT!LG.RPT		; LEGAL BITS
	004624	000000G				 .WORD	.SWPC		; ROUTINE TO CALL OR DATA
   7074					;
   7075	004626					COMND$	TAKE,<LG.OPR>,.TAKEC,TAK
	000653	   124 	   101 	   113 	TAKMSG:: .ASCIZ	%TAKE%
	000656	   105 	   000
	004626	000653'				 .WORD	TAKMSG		; POINTER TO "TAKE" SYMBOL
	004630	000001 				 .WORD	LG.OPR		; LEGAL BITS
	004632	000000G				 .WORD	.TAKEC		; ROUTINE TO CALL OR DATA
   7076					;
   7077	004634					COMND$	UNMARK-MICROCODE,LG.MNT,.UMRKC,UNM
TABLE -- COMMAND PARSER COMMAND	MACRO M1113  03-APR-86 22:51  PAGE 174-4
.CMDTB -- THE MAIN COMMAND TABLE 7703.25

	000660	   125 	   116 	   115 	UNMMSG:: .ASCIZ	%UNMARK-MICROCODE%
	000663	   101 	   122 	   113
	000666	   055 	   115 	   111
	000671	   103 	   122 	   117
	000674	   103 	   117 	   104
	000677	   105 	   000
	004634	000660'				 .WORD	UNMMSG		; POINTER TO "UNMARK-MICROCODE" SYMBOL
	004636	000004 				 .WORD	LG.MNT		; LEGAL BITS
	004640	000000G				 .WORD	.UMRKC		; ROUTINE TO CALL OR DATA
   7078					;
   7079	004642					COMND$	QUIT,LG.OPR,.QUITC,QUT
	000701	   121 	   125 	   111 	QUTMSG:: .ASCIZ	%QUIT%
	000704	   124 	   000
	004642	000701'				 .WORD	QUTMSG		; POINTER TO "QUIT" SYMBOL
	004644	000001 				 .WORD	LG.OPR		; LEGAL BITS
	004646	000000G				 .WORD	.QUITC		; ROUTINE TO CALL OR DATA
   7080					;
   7081	004650					COMND$	WHAT,LG.OPR,.WHATC,WHA
	000706	   127 	   110 	   101 	WHAMSG:: .ASCIZ	%WHAT%
	000711	   124 	   000
	004650	000706'				 .WORD	WHAMSG		; POINTER TO "WHAT" SYMBOL
	004652	000001 				 .WORD	LG.OPR		; LEGAL BITS
	004654	000000G				 .WORD	.WHATC		; ROUTINE TO CALL OR DATA
   7082					;
   7083	004656					COMND$	XCT,<LG.PRG!LG.RPT>,.EXCTC,XCT
	000713	   130 	   103 	   124 	XCTMSG:: .ASCIZ	%XCT%
	000716	   000
	004656	000713'				 .WORD	XCTMSG		; POINTER TO "XCT" SYMBOL
	004660	000402 				 .WORD	LG.PRG!LG.RPT		; LEGAL BITS
	004662	000000G				 .WORD	.EXCTC		; ROUTINE TO CALL OR DATA
   7084					;
   7085	004664					COMND$	ZERO,LG.PRG,.ZEROC,ZER
	000717	   132 	   105 	   122 	ZERMSG:: .ASCIZ	%ZERO%
	000722	   117 	   000
	004664	000717'				 .WORD	ZERMSG		; POINTER TO "ZERO" SYMBOL
	004666	000002 				 .WORD	LG.PRG		; LEGAL BITS
	004670	000000G				 .WORD	.ZEROC		; ROUTINE TO CALL OR DATA
   7086					;
   7087	004672	000000 				.WORD	0		; END OF TABLE MARKER
TABLE -- COMMAND PARSER COMMAND	MACRO M1113  03-APR-86 22:51  PAGE 175
.DPETB -- THE DEPOSIT EXTENSION TABLE 7602.23

   7089					.SBTTL	.DPETB -- THE DEPOSIT EXTENSION TABLE 7602.23
   7090
   7091	004674				.DPETB::
   7092	004674					COMND$	DECREMENT,<LG.RPT!LG.OPR>,.DPOSD,DCR
	000724	   104 	   105 	   103 	DCRMSG:: .ASCIZ	%DECREMENT%
	000727	   122 	   105 	   115
	000732	   105 	   116 	   124
	000735	   000
	004674	000724'				 .WORD	DCRMSG		; POINTER TO "DECREMENT" SYMBOL
	004676	000401 				 .WORD	LG.RPT!LG.OPR		; LEGAL BITS
	004700	000000G				 .WORD	.DPOSD		; ROUTINE TO CALL OR DATA
   7093					;
   7094	004702					COMND$	INCREMENT,<LG.RPT!LG.OPR>,.DPOSI,INC
	000736	   111 	   116 	   103 	INCMSG:: .ASCIZ	%INCREMENT%
	000741	   122 	   105 	   115
	000744	   105 	   116 	   124
	000747	   000
	004702	000736'				 .WORD	INCMSG		; POINTER TO "INCREMENT" SYMBOL
	004704	000401 				 .WORD	LG.RPT!LG.OPR		; LEGAL BITS
	004706	000000G				 .WORD	.DPOSI		; ROUTINE TO CALL OR DATA
   7095					;
   7096	004710					COMND$	NEXT,<LG.RPT!LG.OPR>,.DPOSN,NXT
	000750	   116 	   105 	   130 	NXTMSG:: .ASCIZ	%NEXT%
	000753	   124 	   000
	004710	000750'				 .WORD	NXTMSG		; POINTER TO "NEXT" SYMBOL
	004712	000401 				 .WORD	LG.RPT!LG.OPR		; LEGAL BITS
	004714	000000G				 .WORD	.DPOSN		; ROUTINE TO CALL OR DATA
   7097					;
   7098	004716					COMND$	PREVIOUS,<LG.RPT!LG.OPR>,.DPOSP,PRV
	000755	   120 	   122 	   105 	PRVMSG:: .ASCIZ	%PREVIOUS%
	000760	   126 	   111 	   117
	000763	   125 	   123 	   000
	004716	000755'				 .WORD	PRVMSG		; POINTER TO "PREVIOUS" SYMBOL
	004720	000401 				 .WORD	LG.RPT!LG.OPR		; LEGAL BITS
	004722	000000G				 .WORD	.DPOSP		; ROUTINE TO CALL OR DATA
   7099					;
   7100	004724					COMND$	THIS,<LG.RPT!LG.OPR>,.DPOSZ,THS
	000766	   124 	   110 	   111 	THSMSG:: .ASCIZ	%THIS%
	000771	   123 	   000
	004724	000766'				 .WORD	THSMSG		; POINTER TO "THIS" SYMBOL
	004726	000401 				 .WORD	LG.RPT!LG.OPR		; LEGAL BITS
	004730	000000G				 .WORD	.DPOSZ		; ROUTINE TO CALL OR DATA
   7101					;
   7102	004732	000000 				.WORD	0		; END OF TABLE MARKER
TABLE -- COMMAND PARSER COMMAND	MACRO M1113  03-APR-86 22:51  PAGE 176
.DPOTB -- THE DEPOSIT COMMAND TABLE 7602.23

   7104					.SBTTL	.DPOTB -- THE DEPOSIT COMMAND TABLE 7602.23
   7105
   7106	004734				.DPOTB::
   7107	004734					COMND$	AR,<LG.PRG!LG.RPT>,.DEPAR,AR
	000773	   101 	   122 	   000 	ARMSG:: .ASCIZ	%AR%
	004734	000773'				 .WORD	ARMSG		; POINTER TO "AR" SYMBOL
	004736	000402 				 .WORD	LG.PRG!LG.RPT		; LEGAL BITS
	004740	000000G				 .WORD	.DEPAR		; ROUTINE TO CALL OR DATA
   7108					;
   7109	004742					COMND$	ELEVEN,<LG.PRG!LG.RPT>,.DPOEL,ELE
	000776	   105 	   114 	   105 	ELEMSG:: .ASCIZ	%ELEVEN%
	001001	   126 	   105 	   116
	001004	   000
	004742	000776'				 .WORD	ELEMSG		; POINTER TO "ELEVEN" SYMBOL
	004744	000402 				 .WORD	LG.PRG!LG.RPT		; LEGAL BITS
	004746	000000G				 .WORD	.DPOEL		; ROUTINE TO CALL OR DATA
   7110					;
   7111	004750					COMND$	TEN,<LG.PRG!LG.RPT>,.DPOKL,TEN
	001005	   124 	   105 	   116 	TENMSG:: .ASCIZ	%TEN%
	001010	   000
	004750	001005'				 .WORD	TENMSG		; POINTER TO "TEN" SYMBOL
	004752	000402 				 .WORD	LG.PRG!LG.RPT		; LEGAL BITS
	004754	000000G				 .WORD	.DPOKL		; ROUTINE TO CALL OR DATA
   7112					;
   7113	004756					COMND$	DECREMENT,<LG.RPT!LG.OPR>,.DPOSD,DCR
	004756	000724'				 .WORD	DCRMSG		; POINTER TO "DECREMENT" SYMBOL
	004760	000401 				 .WORD	LG.RPT!LG.OPR		; LEGAL BITS
	004762	000000G				 .WORD	.DPOSD		; ROUTINE TO CALL OR DATA
   7114					;
   7115	004764					COMND$	INCREMENT,<LG.RPT!LG.OPR>,.DPOSI,INC
	004764	000736'				 .WORD	INCMSG		; POINTER TO "INCREMENT" SYMBOL
	004766	000401 				 .WORD	LG.RPT!LG.OPR		; LEGAL BITS
	004770	000000G				 .WORD	.DPOSI		; ROUTINE TO CALL OR DATA
   7116					;
   7117	004772					COMND$	NEXT,<LG.RPT!LG.OPR>,.DPOSN,NXT
	004772	000750'				 .WORD	NXTMSG		; POINTER TO "NEXT" SYMBOL
	004774	000401 				 .WORD	LG.RPT!LG.OPR		; LEGAL BITS
	004776	000000G				 .WORD	.DPOSN		; ROUTINE TO CALL OR DATA
   7118					;
   7119	005000					COMND$	PREVIOUS,<LG.RPT!LG.OPR>,.DPOSP,PRV
	005000	000755'				 .WORD	PRVMSG		; POINTER TO "PREVIOUS" SYMBOL
	005002	000401 				 .WORD	LG.RPT!LG.OPR		; LEGAL BITS
	005004	000000G				 .WORD	.DPOSP		; ROUTINE TO CALL OR DATA
   7120					;
   7121	005006					COMND$	THIS,<LG.RPT!LG.OPR>,.DPOSZ,THS
	005006	000766'				 .WORD	THSMSG		; POINTER TO "THIS" SYMBOL
	005010	000401 				 .WORD	LG.RPT!LG.OPR		; LEGAL BITS
	005012	000000G				 .WORD	.DPOSZ		; ROUTINE TO CALL OR DATA
   7122					;
   7123	005014	000000 				.WORD	0		; END OF TABLE MARKER
TABLE -- COMMAND PARSER COMMAND	MACRO M1113  03-APR-86 22:51  PAGE 177
.EXETB -- THE EXAMINE EXTENSION TABLE 7602.16

   7125					.SBTTL	.EXETB -- THE EXAMINE EXTENSION TABLE 7602.16
   7126
   7127	005016				.EXETB::
   7128	005016					COMND$	DECREMENT,<LG.RPT!LG.OPR>,.EXAMD,DCR
	005016	000724'				 .WORD	DCRMSG		; POINTER TO "DECREMENT" SYMBOL
	005020	000401 				 .WORD	LG.RPT!LG.OPR		; LEGAL BITS
	005022	000000G				 .WORD	.EXAMD		; ROUTINE TO CALL OR DATA
   7129					;
   7130	005024					COMND$	INCREMENT,<LG.RPT!LG.OPR>,.EXAMI,INC
	005024	000736'				 .WORD	INCMSG		; POINTER TO "INCREMENT" SYMBOL
	005026	000401 				 .WORD	LG.RPT!LG.OPR		; LEGAL BITS
	005030	000000G				 .WORD	.EXAMI		; ROUTINE TO CALL OR DATA
   7131					;
   7132	005032					COMND$	NEXT,<LG.RPT!LG.OPR>,.EXAMN,NXT
	005032	000750'				 .WORD	NXTMSG		; POINTER TO "NEXT" SYMBOL
	005034	000401 				 .WORD	LG.RPT!LG.OPR		; LEGAL BITS
	005036	000000G				 .WORD	.EXAMN		; ROUTINE TO CALL OR DATA
   7133					;
   7134	005040					COMND$	PREVIOUS,<LG.RPT!LG.OPR>,.EXAMP,PRV
	005040	000755'				 .WORD	PRVMSG		; POINTER TO "PREVIOUS" SYMBOL
	005042	000401 				 .WORD	LG.RPT!LG.OPR		; LEGAL BITS
	005044	000000G				 .WORD	.EXAMP		; ROUTINE TO CALL OR DATA
   7135					;
   7136	005046					COMND$	THIS,<LG.RPT!LG.OPR>,.EXAMZ,THS
	005046	000766'				 .WORD	THSMSG		; POINTER TO "THIS" SYMBOL
	005050	000401 				 .WORD	LG.RPT!LG.OPR		; LEGAL BITS
	005052	000000G				 .WORD	.EXAMZ		; ROUTINE TO CALL OR DATA
   7137					;
   7138	005054	000000 				.WORD	0		; END OF TABLE MARKER
TABLE -- COMMAND PARSER COMMAND	MACRO M1113  03-APR-86 22:51  PAGE 178
.EXMTB -- THE EXAMINE COMMAND TABLE 7703.25

   7140					.SBTTL	.EXMTB -- THE EXAMINE COMMAND TABLE 7703.25
   7141
   7142	005056				.EXMTB::
   7143	005056					COMND$	AD,<LG.PRG!LG.RPT>,.EXAD,AD
	001011	   101 	   104 	   000 	ADMSG:: .ASCIZ	%AD%
	005056	001011'				 .WORD	ADMSG		; POINTER TO "AD" SYMBOL
	005060	000402 				 .WORD	LG.PRG!LG.RPT		; LEGAL BITS
	005062	000000G				 .WORD	.EXAD		; ROUTINE TO CALL OR DATA
   7144					;
   7145	005064					COMND$	ADX,<LG.PRG!LG.RPT>,.EXADX,ADX
	001014	   101 	   104 	   130 	ADXMSG:: .ASCIZ	%ADX%
	001017	   000
	005064	001014'				 .WORD	ADXMSG		; POINTER TO "ADX" SYMBOL
	005066	000402 				 .WORD	LG.PRG!LG.RPT		; LEGAL BITS
	005070	000000G				 .WORD	.EXADX		; ROUTINE TO CALL OR DATA
   7146					;
   7147	005072					COMND$	AR,<LG.PRG!LG.RPT>,.EXARR,AR
	005072	000773'				 .WORD	ARMSG		; POINTER TO "AR" SYMBOL
	005074	000402 				 .WORD	LG.PRG!LG.RPT		; LEGAL BITS
	005076	000000G				 .WORD	.EXARR		; ROUTINE TO CALL OR DATA
   7148					;
   7149	005100					COMND$	ARX,<LG.PRG!LG.RPT>,.EXARX,ARX
	001020	   101 	   122 	   130 	ARXMSG:: .ASCIZ	%ARX%
	001023	   000
	005100	001020'				 .WORD	ARXMSG		; POINTER TO "ARX" SYMBOL
	005102	000402 				 .WORD	LG.PRG!LG.RPT		; LEGAL BITS
	005104	000000G				 .WORD	.EXARX		; ROUTINE TO CALL OR DATA
   7150					;
   7151	005106					COMND$	BR,<LG.PRG!LG.RPT>,.EXBRR,BR
	001024	   102 	   122 	   000 	BRMSG:: .ASCIZ	%BR%
	005106	001024'				 .WORD	BRMSG		; POINTER TO "BR" SYMBOL
	005110	000402 				 .WORD	LG.PRG!LG.RPT		; LEGAL BITS
	005112	000000G				 .WORD	.EXBRR		; ROUTINE TO CALL OR DATA
   7152					;
   7153	005114					COMND$	BRX,<LG.PRG!LG.RPT>,.EXBRX,BRX
	001027	   102 	   122 	   130 	BRXMSG:: .ASCIZ	%BRX%
	001032	   000
	005114	001027'				 .WORD	BRXMSG		; POINTER TO "BRX" SYMBOL
	005116	000402 				 .WORD	LG.PRG!LG.RPT		; LEGAL BITS
	005120	000000G				 .WORD	.EXBRX		; ROUTINE TO CALL OR DATA
   7154					;
   7155	005122					COMND$	EBUS,<LG.PRG!LG.RPT>,.EXEBS,EBS
	001033	   105 	   102 	   125 	EBSMSG:: .ASCIZ	%EBUS%
	001036	   123 	   000
	005122	001033'				 .WORD	EBSMSG		; POINTER TO "EBUS" SYMBOL
	005124	000402 				 .WORD	LG.PRG!LG.RPT		; LEGAL BITS
	005126	000000G				 .WORD	.EXEBS		; ROUTINE TO CALL OR DATA
   7156					;
   7157					;
   7158	005130					COMND$	FM,<LG.PRG!LG.RPT>,.EXFMR,FM
	001040	   106 	   115 	   000 	FMMSG:: .ASCIZ	%FM%
	005130	001040'				 .WORD	FMMSG		; POINTER TO "FM" SYMBOL
	005132	000402 				 .WORD	LG.PRG!LG.RPT		; LEGAL BITS
	005134	000000G				 .WORD	.EXFMR		; ROUTINE TO CALL OR DATA
   7159					;
   7160	005136					COMND$	MQ,<LG.PRG!LG.RPT>,.EXMQR,MQ
	001043	   115 	   121 	   000 	MQMSG:: .ASCIZ	%MQ%
TABLE -- COMMAND PARSER COMMAND	MACRO M1113  03-APR-86 22:51  PAGE 178-1
.EXMTB -- THE EXAMINE COMMAND TABLE 7703.25

	005136	001043'				 .WORD	MQMSG		; POINTER TO "MQ" SYMBOL
	005140	000402 				 .WORD	LG.PRG!LG.RPT		; LEGAL BITS
	005142	000000G				 .WORD	.EXMQR		; ROUTINE TO CALL OR DATA
   7161					;
   7162	005144					COMND$	PC,<LG.ALL!LG.RPT>,.EXVPC,PC
	001046	   120 	   103 	   000 	PCMSG:: .ASCIZ	%PC%
	005144	001046'				 .WORD	PCMSG		; POINTER TO "PC" SYMBOL
	005146	000407 				 .WORD	LG.ALL!LG.RPT		; LEGAL BITS
	005150	000000G				 .WORD	.EXVPC		; ROUTINE TO CALL OR DATA
   7163					;
   7164					;
   7165		000012 			EXRTBL==<.-.EXMTB>/6
   7166	005152					COMND$	AB,<LG.PRG!LG.RPT>,.EXVAB,AB
	001051	   101 	   102 	   000 	ABMSG:: .ASCIZ	%AB%
	005152	001051'				 .WORD	ABMSG		; POINTER TO "AB" SYMBOL
	005154	000402 				 .WORD	LG.PRG!LG.RPT		; LEGAL BITS
	005156	000000G				 .WORD	.EXVAB		; ROUTINE TO CALL OR DATA
   7167					;
   7168	005160					COMND$	CRADDR,<LG.PRG!LG.RPT>,.EXCRA,CRA
	001054	   103 	   122 	   101 	CRAMSG:: .ASCIZ	%CRADDR%
	001057	   104 	   104 	   122
	001062	   000
	005160	001054'				 .WORD	CRAMSG		; POINTER TO "CRADDR" SYMBOL
	005162	000402 				 .WORD	LG.PRG!LG.RPT		; LEGAL BITS
	005164	000000G				 .WORD	.EXCRA		; ROUTINE TO CALL OR DATA
   7169					;
   7170	005166					COMND$	CRLOC,<LG.PRG!LG.RPT>,.EXCRL,CRL
	001063	   103 	   122 	   114 	CRLMSG:: .ASCIZ	%CRLOC%
	001066	   117 	   103 	   000
	005166	001063'				 .WORD	CRLMSG		; POINTER TO "CRLOC" SYMBOL
	005170	000402 				 .WORD	LG.PRG!LG.RPT		; LEGAL BITS
	005172	000000G				 .WORD	.EXCRL		; ROUTINE TO CALL OR DATA
   7171					;
   7172	005174					COMND$	DRADDR,<LG.PRG!LG.RPT>,.EXDRA,DRA
	001071	   104 	   122 	   101 	DRAMSG:: .ASCIZ	%DRADDR%
	001074	   104 	   104 	   122
	001077	   000
	005174	001071'				 .WORD	DRAMSG		; POINTER TO "DRADDR" SYMBOL
	005176	000402 				 .WORD	LG.PRG!LG.RPT		; LEGAL BITS
	005200	000000G				 .WORD	.EXDRA		; ROUTINE TO CALL OR DATA
   7173					;
   7174	005202					COMND$	DTE-20,<LG.PRG!LG.RPT>,.EXDTE,DTE
	001100	   104 	   124 	   105 	DTEMSG:: .ASCIZ	%DTE-20%
	001103	   055 	   062 	   060
	001106	   000
	005202	001100'				 .WORD	DTEMSG		; POINTER TO "DTE-20" SYMBOL
	005204	000402 				 .WORD	LG.PRG!LG.RPT		; LEGAL BITS
	005206	000000G				 .WORD	.EXDTE		; ROUTINE TO CALL OR DATA
   7175					;
   7176	005210					COMND$	EBR,<LG.PRG!LG.RPT>,.EXEBR,EBR
	001107	   105 	   102 	   122 	EBRMSG:: .ASCIZ	%EBR%
	001112	   000
	005210	001107'				 .WORD	EBRMSG		; POINTER TO "EBR" SYMBOL
	005212	000402 				 .WORD	LG.PRG!LG.RPT		; LEGAL BITS
	005214	000000G				 .WORD	.EXEBR		; ROUTINE TO CALL OR DATA
   7177
   7178	005216					COMND$	ELEVEN,<LG.OPR!LG.RPT>,.EXMEL,ELE
TABLE -- COMMAND PARSER COMMAND	MACRO M1113  03-APR-86 22:51  PAGE 178-2
.EXMTB -- THE EXAMINE COMMAND TABLE 7703.25

	005216	000776'				 .WORD	ELEMSG		; POINTER TO "ELEVEN" SYMBOL
	005220	000401 				 .WORD	LG.OPR!LG.RPT		; LEGAL BITS
	005222	000000G				 .WORD	.EXMEL		; ROUTINE TO CALL OR DATA
   7179					;
   7180	005224					COMND$	FE,<LG.PRG!LG.RPT>,.EXFER,FER
	001113	   106 	   105 	   000 	FERMSG:: .ASCIZ	%FE%
	005224	001113'				 .WORD	FERMSG		; POINTER TO "FE" SYMBOL
	005226	000402 				 .WORD	LG.PRG!LG.RPT		; LEGAL BITS
	005230	000000G				 .WORD	.EXFER		; ROUTINE TO CALL OR DATA
   7181					;
   7182	005232					COMND$	FLAGS,<LG.PRG!LG.RPT>,.EXAMF,FLG
	001116	   106 	   114 	   101 	FLGMSG:: .ASCIZ	%FLAGS%
	001121	   107 	   123 	   000
	005232	001116'				 .WORD	FLGMSG		; POINTER TO "FLAGS" SYMBOL
	005234	000402 				 .WORD	LG.PRG!LG.RPT		; LEGAL BITS
	005236	000000G				 .WORD	.EXAMF		; ROUTINE TO CALL OR DATA
   7183					;
   7184	005240					COMND$	KL,<LG.ALL!LG.RPT>,.EXAMK,KL
	001124	   113 	   114 	   000 	KLMSG:: .ASCIZ	%KL%
	005240	001124'				 .WORD	KLMSG		; POINTER TO "KL" SYMBOL
	005242	000407 				 .WORD	LG.ALL!LG.RPT		; LEGAL BITS
	005244	000000G				 .WORD	.EXAMK		; ROUTINE TO CALL OR DATA
   7185					;
   7186	005246					COMND$	PI,<LG.PRG!LG.RPT>,.EXMPI,PI
	001127	   120 	   111 	   000 	PIMSG:: .ASCIZ	%PI%
	005246	001127'				 .WORD	PIMSG		; POINTER TO "PI" SYMBOL
	005250	000402 				 .WORD	LG.PRG!LG.RPT		; LEGAL BITS
	005252	000000G				 .WORD	.EXMPI		; ROUTINE TO CALL OR DATA
   7187					;
   7188	005254					COMND$	REGISTERS,<LG.PRG!LG.RPT>,.EXREG,REG
	001132	   122 	   105 	   107 	REGMSG:: .ASCIZ	%REGISTERS%
	001135	   111 	   123 	   124
	001140	   105 	   122 	   123
	001143	   000
	005254	001132'				 .WORD	REGMSG		; POINTER TO "REGISTERS" SYMBOL
	005256	000402 				 .WORD	LG.PRG!LG.RPT		; LEGAL BITS
	005260	000000G				 .WORD	.EXREG		; ROUTINE TO CALL OR DATA
   7189					;
   7190	005262					COMND$	TEN,<LG.OPR!LG.RPT>,.EXMKL,TEN
	005262	001005'				 .WORD	TENMSG		; POINTER TO "TEN" SYMBOL
	005264	000401 				 .WORD	LG.OPR!LG.RPT		; LEGAL BITS
	005266	000000G				 .WORD	.EXMKL		; ROUTINE TO CALL OR DATA
   7191					;
   7192	005270					COMND$	UBR,<LG.PRG!LG.RPT>,.EXUBR,UBR
	001144	   125 	   102 	   122 	UBRMSG:: .ASCIZ	%UBR%
	001147	   000
	005270	001144'				 .WORD	UBRMSG		; POINTER TO "UBR" SYMBOL
	005272	000402 				 .WORD	LG.PRG!LG.RPT		; LEGAL BITS
	005274	000000G				 .WORD	.EXUBR		; ROUTINE TO CALL OR DATA
   7193	005276					COMND$	VMA,<LG.PRG!LG.RPT>,.EXVMA,VMA
	001150	   126 	   115 	   101 	VMAMSG:: .ASCIZ	%VMA%
	001153	   000
	005276	001150'				 .WORD	VMAMSG		; POINTER TO "VMA" SYMBOL
	005300	000402 				 .WORD	LG.PRG!LG.RPT		; LEGAL BITS
	005302	000000G				 .WORD	.EXVMA		; ROUTINE TO CALL OR DATA
   7194					;
   7195	005304					COMND$	VMAH,<LG.PRG!LG.RPT>,.EXVMH,VMH
TABLE -- COMMAND PARSER COMMAND	MACRO M1113  03-APR-86 22:51  PAGE 178-3
.EXMTB -- THE EXAMINE COMMAND TABLE 7703.25

	001154	   126 	   115 	   101 	VMHMSG:: .ASCIZ	%VMAH%
	001157	   110 	   000
	005304	001154'				 .WORD	VMHMSG		; POINTER TO "VMAH" SYMBOL
	005306	000402 				 .WORD	LG.PRG!LG.RPT		; LEGAL BITS
	005310	000000G				 .WORD	.EXVMH		; ROUTINE TO CALL OR DATA
   7196					;
   7197	005312					COMND$	SBR,<LG.PRG!LG.RPT>,.EXSBR,SBR
	001161	   123 	   102 	   122 	SBRMSG:: .ASCIZ	%SBR%
	001164	   000
	005312	001161'				 .WORD	SBRMSG		; POINTER TO "SBR" SYMBOL
	005314	000402 				 .WORD	LG.PRG!LG.RPT		; LEGAL BITS
	005316	000000G				 .WORD	.EXSBR		; ROUTINE TO CALL OR DATA
   7198					;
   7199	005320					COMND$	SC,<LG.PRG!LG.RPT>,.EXSCR,SCR
	001165	   123 	   103 	   000 	SCRMSG:: .ASCIZ	%SC%
	005320	001165'				 .WORD	SCRMSG		; POINTER TO "SC" SYMBOL
	005322	000402 				 .WORD	LG.PRG!LG.RPT		; LEGAL BITS
	005324	000000G				 .WORD	.EXSCR		; ROUTINE TO CALL OR DATA
   7200					;
   7201	005326					COMND$	DECREMENT,<LG.RPT!LG.OPR>,.EXAMD,DCR
	005326	000724'				 .WORD	DCRMSG		; POINTER TO "DECREMENT" SYMBOL
	005330	000401 				 .WORD	LG.RPT!LG.OPR		; LEGAL BITS
	005332	000000G				 .WORD	.EXAMD		; ROUTINE TO CALL OR DATA
   7202					;
   7203	005334					COMND$	INCREMENT,<LG.RPT!LG.OPR>,.EXAMI,INC
	005334	000736'				 .WORD	INCMSG		; POINTER TO "INCREMENT" SYMBOL
	005336	000401 				 .WORD	LG.RPT!LG.OPR		; LEGAL BITS
	005340	000000G				 .WORD	.EXAMI		; ROUTINE TO CALL OR DATA
   7204					;
   7205	005342					COMND$	NEXT,<LG.RPT!LG.OPR>,.EXAMN,NXT
	005342	000750'				 .WORD	NXTMSG		; POINTER TO "NEXT" SYMBOL
	005344	000401 				 .WORD	LG.RPT!LG.OPR		; LEGAL BITS
	005346	000000G				 .WORD	.EXAMN		; ROUTINE TO CALL OR DATA
   7206					;
   7207	005350					COMND$	PREVIOUS,<LG.RPT!LG.OPR>,.EXAMP,PRV
	005350	000755'				 .WORD	PRVMSG		; POINTER TO "PREVIOUS" SYMBOL
	005352	000401 				 .WORD	LG.RPT!LG.OPR		; LEGAL BITS
	005354	000000G				 .WORD	.EXAMP		; ROUTINE TO CALL OR DATA
   7208					;
   7209	005356					COMND$	THIS,<LG.RPT!LG.OPR>,.EXAMZ,THS
	005356	000766'				 .WORD	THSMSG		; POINTER TO "THIS" SYMBOL
	005360	000401 				 .WORD	LG.RPT!LG.OPR		; LEGAL BITS
	005362	000000G				 .WORD	.EXAMZ		; ROUTINE TO CALL OR DATA
   7210					;
   7211	005364	000000 				.WORD	0		; END OF TABLE MARKER
TABLE -- COMMAND PARSER COMMAND	MACRO M1113  03-APR-86 22:51  PAGE 179
.KLMTB -- THE KLINIK MODE TABLE 7702.16

   7213					.SBTTL	.KLMTB -- THE KLINIK MODE TABLE 7702.16
   7214
   7215	005366				.KLMTB::
   7216	005366					COMND$	MAINTENANCE,LG.ALL,LG.ALL,MNT
	001170	   115 	   101 	   111 	MNTMSG:: .ASCIZ	%MAINTENANCE%
	001173	   116 	   124 	   105
	001176	   116 	   101 	   116
	001201	   103 	   105 	   000
	005366	001170'				 .WORD	MNTMSG		; POINTER TO "MAINTENANCE" SYMBOL
	005370	000007 				 .WORD	LG.ALL		; LEGAL BITS
	005372	000007 				 .WORD	LG.ALL		; ROUTINE TO CALL OR DATA
   7217					;
   7218	005374					COMND$	OPERATOR,LG.ALL,LG.OPR,OPR
	001204	   117 	   120 	   105 	OPRMSG:: .ASCIZ	%OPERATOR%
	001207	   122 	   101 	   124
	001212	   117 	   122 	   000
	005374	001204'				 .WORD	OPRMSG		; POINTER TO "OPERATOR" SYMBOL
	005376	000007 				 .WORD	LG.ALL		; LEGAL BITS
	005400	000001 				 .WORD	LG.OPR		; ROUTINE TO CALL OR DATA
   7219					;
   7220	005402					COMND$	PROGRAMMER,LG.ALL,LG.PRM,PRG
	001215	   120 	   122 	   117 	PRGMSG:: .ASCIZ	%PROGRAMMER%
	001220	   107 	   122 	   101
	001223	   115 	   115 	   105
	001226	   122 	   000
	005402	001215'				 .WORD	PRGMSG		; POINTER TO "PROGRAMMER" SYMBOL
	005404	000007 				 .WORD	LG.ALL		; LEGAL BITS
	005406	000003 				 .WORD	LG.PRM		; ROUTINE TO CALL OR DATA
   7221					;
   7222	005410	000000 				.WORD	0		; END OF TABLE MARKER
   7223
   7224	005412				.KLMT1::
   7225	005412					COMND$	REMOTE,LG.ALL,1,REM
	001230	   122 	   105 	   115 	REMMSG:: .ASCIZ	%REMOTE%
	001233	   117 	   124 	   105
	001236	   000
	005412	001230'				 .WORD	REMMSG		; POINTER TO "REMOTE" SYMBOL
	005414	000007 				 .WORD	LG.ALL		; LEGAL BITS
	005416	000001 				 .WORD	1		; ROUTINE TO CALL OR DATA
   7226					;
   7227	005420					COMND$	USER,LG.ALL,-1,USR
	001237	   125 	   123 	   105 	USRMSG:: .ASCIZ	%USER%
	001242	   122 	   000
	005420	001237'				 .WORD	USRMSG		; POINTER TO "USER" SYMBOL
	005422	000007 				 .WORD	LG.ALL		; LEGAL BITS
	005424	177777 				 .WORD	-1		; ROUTINE TO CALL OR DATA
   7228					;
   7229	005426	000000 				.WORD	0		; END OF TABLE MARKER
TABLE -- COMMAND PARSER COMMAND	MACRO M1113  03-APR-86 22:51  PAGE 180
.MONTB -- THE MONTH TABLE 7702.16

   7231					.SBTTL	.MONTB -- THE MONTH TABLE 7702.16
   7232
   7233
   7234	005430				.MONTB::
   7235	005430					COMND$	JANUARY,LG.ALL,1.,JAN
	001244	   112 	   101 	   116 	JANMSG:: .ASCIZ	%JANUARY%
	001247	   125 	   101 	   122
	001252	   131 	   000
	005430	001244'				 .WORD	JANMSG		; POINTER TO "JANUARY" SYMBOL
	005432	000007 				 .WORD	LG.ALL		; LEGAL BITS
	005434	000001 				 .WORD	1.		; ROUTINE TO CALL OR DATA
   7236					;
   7237	005436					COMND$	FEBRUARY,LG.ALL,2.,FEB
	001254	   106 	   105 	   102 	FEBMSG:: .ASCIZ	%FEBRUARY%
	001257	   122 	   125 	   101
	001262	   122 	   131 	   000
	005436	001254'				 .WORD	FEBMSG		; POINTER TO "FEBRUARY" SYMBOL
	005440	000007 				 .WORD	LG.ALL		; LEGAL BITS
	005442	000002 				 .WORD	2.		; ROUTINE TO CALL OR DATA
   7238					;
   7239	005444					COMND$	MARCH,LG.ALL,3.,MAR
	001265	   115 	   101 	   122 	MARMSG:: .ASCIZ	%MARCH%
	001270	   103 	   110 	   000
	005444	001265'				 .WORD	MARMSG		; POINTER TO "MARCH" SYMBOL
	005446	000007 				 .WORD	LG.ALL		; LEGAL BITS
	005450	000003 				 .WORD	3.		; ROUTINE TO CALL OR DATA
   7240					;
   7241	005452					COMND$	APRIL,LG.ALL,4.,APR
	001273	   101 	   120 	   122 	APRMSG:: .ASCIZ	%APRIL%
	001276	   111 	   114 	   000
	005452	001273'				 .WORD	APRMSG		; POINTER TO "APRIL" SYMBOL
	005454	000007 				 .WORD	LG.ALL		; LEGAL BITS
	005456	000004 				 .WORD	4.		; ROUTINE TO CALL OR DATA
   7242					;
   7243	005460					COMND$	MAY,LG.ALL,5.,MAY
	001301	   115 	   101 	   131 	MAYMSG:: .ASCIZ	%MAY%
	001304	   000
	005460	001301'				 .WORD	MAYMSG		; POINTER TO "MAY" SYMBOL
	005462	000007 				 .WORD	LG.ALL		; LEGAL BITS
	005464	000005 				 .WORD	5.		; ROUTINE TO CALL OR DATA
   7244					;
   7245	005466					COMND$	JUNE,LG.ALL,6.,JUN
	001305	   112 	   125 	   116 	JUNMSG:: .ASCIZ	%JUNE%
	001310	   105 	   000
	005466	001305'				 .WORD	JUNMSG		; POINTER TO "JUNE" SYMBOL
	005470	000007 				 .WORD	LG.ALL		; LEGAL BITS
	005472	000006 				 .WORD	6.		; ROUTINE TO CALL OR DATA
   7246					;
   7247	005474					COMND$	JULY,LG.ALL,7.,JUL
	001312	   112 	   125 	   114 	JULMSG:: .ASCIZ	%JULY%
	001315	   131 	   000
	005474	001312'				 .WORD	JULMSG		; POINTER TO "JULY" SYMBOL
	005476	000007 				 .WORD	LG.ALL		; LEGAL BITS
	005500	000007 				 .WORD	7.		; ROUTINE TO CALL OR DATA
   7248					;
   7249	005502					COMND$	AUGUST,LG.ALL,8.,AUG
	001317	   101 	   125 	   107 	AUGMSG:: .ASCIZ	%AUGUST%
TABLE -- COMMAND PARSER COMMAND	MACRO M1113  03-APR-86 22:51  PAGE 180-1
.MONTB -- THE MONTH TABLE 7702.16

	001322	   125 	   123 	   124
	001325	   000
	005502	001317'				 .WORD	AUGMSG		; POINTER TO "AUGUST" SYMBOL
	005504	000007 				 .WORD	LG.ALL		; LEGAL BITS
	005506	000010 				 .WORD	8.		; ROUTINE TO CALL OR DATA
   7250					;
   7251	005510					COMND$	SEPTEMBER,LG.ALL,9.,SEP
	001326	   123 	   105 	   120 	SEPMSG:: .ASCIZ	%SEPTEMBER%
	001331	   124 	   105 	   115
	001334	   102 	   105 	   122
	001337	   000
	005510	001326'				 .WORD	SEPMSG		; POINTER TO "SEPTEMBER" SYMBOL
	005512	000007 				 .WORD	LG.ALL		; LEGAL BITS
	005514	000011 				 .WORD	9.		; ROUTINE TO CALL OR DATA
   7252					;
   7253	005516					COMND$	OCTOBER,LG.ALL,10.,OCT
	001340	   117 	   103 	   124 	OCTMSG:: .ASCIZ	%OCTOBER%
	001343	   117 	   102 	   105
	001346	   122 	   000
	005516	001340'				 .WORD	OCTMSG		; POINTER TO "OCTOBER" SYMBOL
	005520	000007 				 .WORD	LG.ALL		; LEGAL BITS
	005522	000012 				 .WORD	10.		; ROUTINE TO CALL OR DATA
   7254					;
   7255	005524					COMND$	NOVEMBER,LG.ALL,11.,NOV
	001350	   116 	   117 	   126 	NOVMSG:: .ASCIZ	%NOVEMBER%
	001353	   105 	   115 	   102
	001356	   105 	   122 	   000
	005524	001350'				 .WORD	NOVMSG		; POINTER TO "NOVEMBER" SYMBOL
	005526	000007 				 .WORD	LG.ALL		; LEGAL BITS
	005530	000013 				 .WORD	11.		; ROUTINE TO CALL OR DATA
   7256					;
   7257	005532					COMND$	DECEMBER,LG.ALL,12.,DEC
	001361	   104 	   105 	   103 	DECMSG:: .ASCIZ	%DECEMBER%
	001364	   105 	   115 	   102
	001367	   105 	   122 	   000
	005532	001361'				 .WORD	DECMSG		; POINTER TO "DECEMBER" SYMBOL
	005534	000007 				 .WORD	LG.ALL		; LEGAL BITS
	005536	000014 				 .WORD	12.		; ROUTINE TO CALL OR DATA
   7258					;
   7259	005540	000000 				.WORD	0		; END OF TABLE MARKER
   7260
TABLE -- COMMAND PARSER COMMAND	MACRO M1113  03-APR-86 22:51  PAGE 181
.NSETB -- NORMAL ERROR CODE TABLE 7710.11

   7262					.SBTTL	.NSETB -- NORMAL ERROR CODE TABLE 7710.11
   7263
   7264	005542				.NSETB::
   7265	005542					NSERR$	APE,<KL APR ERROR>
	000000	   101 	   120 	   105 	APEERM:	 .ASCIZ	%APE - KL APR ERROR%
	000003	   040 	   055 	   040
	000006	   113 	   114 	   040
	000011	   101 	   120 	   122
	000014	   040 	   105 	   122
	000017	   122 	   117 	   122
	000022	   000
	005542	004305 				 .RAD50	/APE/		; "APE" IN .RAD50
	005544	000000'				 .WORD	APEERM		; POINTER TO MESSAGE
   7266						;
   7267	005546					NSERR$	BAE,<BURST ARG  ERROR>
	000023	   102 	   101 	   105 	BAEERM:	 .ASCIZ	%BAE - BURST ARG  ERROR%
	000026	   040 	   055 	   040
	000031	   102 	   125 	   122
	000034	   123 	   124 	   040
	000037	   101 	   122 	   107
	000042	   040 	   040 	   105
	000045	   122 	   122 	   117
	000050	   122 	   000
	005546	006255 				 .RAD50	/BAE/		; "BAE" IN .RAD50
	005550	000023'				 .WORD	BAEERM		; POINTER TO MESSAGE
   7268						;
   7269	005552					NSERR$	CAE,<KL CRAM ADDR. ERROR>
	000052	   103 	   101 	   105 	CAEERM:	 .ASCIZ	%CAE - KL CRAM ADDR. ERROR%
	000055	   040 	   055 	   040
	000060	   113 	   114 	   040
	000063	   103 	   122 	   101
	000066	   115 	   040 	   101
	000071	   104 	   104 	   122
	000074	   056 	   040 	   105
	000077	   122 	   122 	   117
	000102	   122 	   000
	005552	011355 				 .RAD50	/CAE/		; "CAE" IN .RAD50
	005554	000052'				 .WORD	CAEERM		; POINTER TO MESSAGE
   7270	005556					NSERR$	CAL,<CAN'T ASSIGN LUN>
	000104	   103 	   101 	   114 	CALERM:	 .ASCIZ	%CAL - CAN'T ASSIGN LUN%
	000107	   040 	   055 	   040
	000112	   103 	   101 	   116
	000115	   047 	   124 	   040
	000120	   101 	   123 	   123
	000123	   111 	   107 	   116
	000126	   040 	   114 	   125
	000131	   116 	   000
	005556	011364 				 .RAD50	/CAL/		; "CAL" IN .RAD50
	005560	000104'				 .WORD	CALERM		; POINTER TO MESSAGE
   7271	005562					NSERR$	CAP,<CAN'T ATTACH PRINTER>
	000133	   103 	   101 	   120 	CAPERM:	 .ASCIZ	%CAP - CAN'T ATTACH PRINTER%
	000136	   040 	   055 	   040
	000141	   103 	   101 	   116
	000144	   047 	   124 	   040
	000147	   101 	   124 	   124
	000152	   101 	   103 	   110
	000155	   040 	   120 	   122
TABLE -- COMMAND PARSER COMMAND	MACRO M1113  03-APR-86 22:51  PAGE 181-1
.NSETB -- NORMAL ERROR CODE TABLE 7710.11

	000160	   111 	   116 	   124
	000163	   105 	   122 	   000
	005562	011370 				 .RAD50	/CAP/		; "CAP" IN .RAD50
	005564	000133'				 .WORD	CAPERM		; POINTER TO MESSAGE
   7272	005566					NSERR$	CBO,<COMMAND BUFFER OVERFLOW>
	000166	   103 	   102 	   117 	CBOERM:	 .ASCIZ	%CBO - COMMAND BUFFER OVERFLOW%
	000171	   040 	   055 	   040
	000174	   103 	   117 	   115
	000177	   115 	   101 	   116
	000202	   104 	   040 	   102
	000205	   125 	   106 	   106
	000210	   105 	   122 	   040
	000213	   117 	   126 	   105
	000216	   122 	   106 	   114
	000221	   117 	   127 	   000
	005566	011437 				 .RAD50	/CBO/		; "CBO" IN .RAD50
	005570	000166'				 .WORD	CBOERM		; POINTER TO MESSAGE
   7273	005572					NSERR$	CDI,<SET/CLEAR DATE ILLEGAL IN PRIMARY PROTOCOL>
	000224	   103 	   104 	   111 	CDIERM:	 .ASCIZ	%CDI - SET/CLEAR DATE ILLEGAL IN PRIMARY PROTOCOL%
	000227	   040 	   055 	   040
	000232	   123 	   105 	   124
	000235	   057 	   103 	   114
	000240	   105 	   101 	   122
	000243	   040 	   104 	   101
	000246	   124 	   105 	   040
	000251	   111 	   114 	   114
	000254	   105 	   107 	   101
	000257	   114 	   040 	   111
	000262	   116 	   040 	   120
	000265	   122 	   111 	   115
	000270	   101 	   122 	   131
	000273	   040 	   120 	   122
	000276	   117 	   124 	   117
	000301	   103 	   117 	   114
	000304	   000
	005572	011551 				 .RAD50	/CDI/		; "CDI" IN .RAD50
	005574	000224'				 .WORD	CDIERM		; POINTER TO MESSAGE
   7274	005576					NSERR$	CFH,<CAN'T FIND KL HALT LOOP>
	000305	   103 	   106 	   110 	CFHERM:	 .ASCIZ	%CFH - CAN'T FIND KL HALT LOOP%
	000310	   040 	   055 	   040
	000313	   103 	   101 	   116
	000316	   047 	   124 	   040
	000321	   106 	   111 	   116
	000324	   104 	   040 	   113
	000327	   114 	   040 	   110
	000332	   101 	   114 	   124
	000335	   040 	   114 	   117
	000340	   117 	   120 	   000
	005576	011670 				 .RAD50	/CFH/		; "CFH" IN .RAD50
	005600	000305'				 .WORD	CFHERM		; POINTER TO MESSAGE
   7275	005602					NSERR$	CLE,<CONSOLE LIMIT EXCEEDED>
	000343	   103 	   114 	   105 	CLEERM:	 .ASCIZ	%CLE - CONSOLE LIMIT EXCEEDED%
	000346	   040 	   055 	   040
	000351	   103 	   117 	   116
	000354	   123 	   117 	   114
	000357	   105 	   040 	   114
	000362	   111 	   115 	   111
TABLE -- COMMAND PARSER COMMAND	MACRO M1113  03-APR-86 22:51  PAGE 181-2
.NSETB -- NORMAL ERROR CODE TABLE 7710.11

	000365	   124 	   040 	   105
	000370	   130 	   103 	   105
	000373	   105 	   104 	   105
	000376	   104 	   000
	005602	012245 				 .RAD50	/CLE/		; "CLE" IN .RAD50
	005604	000343'				 .WORD	CLEERM		; POINTER TO MESSAGE
   7276	005606					NSERR$	CNR,<COMMAND IS NOT REPEATABLE>
	000400	   103 	   116 	   122 	CNRERM:	 .ASCIZ	%CNR - COMMAND IS NOT REPEATABLE%
	000403	   040 	   055 	   040
	000406	   103 	   117 	   115
	000411	   115 	   101 	   116
	000414	   104 	   040 	   111
	000417	   123 	   040 	   116
	000422	   117 	   124 	   040
	000425	   122 	   105 	   120
	000430	   105 	   101 	   124
	000433	   101 	   102 	   114
	000436	   105 	   000
	005606	012402 				 .RAD50	/CNR/		; "CNR" IN .RAD50
	005610	000400'				 .WORD	CNRERM		; POINTER TO MESSAGE
   7277	005612					NSERR$	CPE,<CAN'T PHASE EBOX>
	000440	   103 	   120 	   105 	CPEERM:	 .ASCIZ	%CPE - CAN'T PHASE EBOX%
	000443	   040 	   055 	   040
	000446	   103 	   101 	   116
	000451	   047 	   124 	   040
	000454	   120 	   110 	   101
	000457	   123 	   105 	   040
	000462	   105 	   102 	   117
	000465	   130 	   000
	005612	012505 				 .RAD50	/CPE/		; "CPE" IN .RAD50
	005614	000440'				 .WORD	CPEERM		; POINTER TO MESSAGE
   7278	005616					NSERR$	CRH,<CAN'T READ HARDWARE OPTIONS>
	000467	   103 	   122 	   110 	CRHERM:	 .ASCIZ	%CRH - CAN'T READ HARDWARE OPTIONS%
	000472	   040 	   055 	   040
	000475	   103 	   101 	   116
	000500	   047 	   124 	   040
	000503	   122 	   105 	   101
	000506	   104 	   040 	   110
	000511	   101 	   122 	   104
	000514	   127 	   101 	   122
	000517	   105 	   040 	   117
	000522	   120 	   124 	   111
	000525	   117 	   116 	   123
	000530	   000
	005616	012630 				 .RAD50	/CRH/		; "CRH" IN .RAD50
	005620	000467'				 .WORD	CRHERM		; POINTER TO MESSAGE
   7279						;
   7283	005622					NSERR$	DAV,<DATE ALREADY VALID>
	000531	   104 	   101 	   126 	DAVERM:	 .ASCIZ	%DAV - DATE ALREADY VALID%
	000534	   040 	   055 	   040
	000537	   104 	   101 	   124
	000542	   105 	   040 	   101
	000545	   114 	   122 	   105
	000550	   101 	   104 	   131
	000553	   040 	   126 	   101
	000556	   114 	   111 	   104
	000561	   000
TABLE -- COMMAND PARSER COMMAND	MACRO M1113  03-APR-86 22:51  PAGE 181-3
.NSETB -- NORMAL ERROR CODE TABLE 7710.11

	005622	014476 				 .RAD50	/DAV/		; "DAV" IN .RAD50
	005624	000531'				 .WORD	DAVERM		; POINTER TO MESSAGE
   7284	005626					NSERR$	DBT,<DATE BEFORE TODAY>
	000562	   104 	   102 	   124 	DBTERM:	 .ASCIZ	%DBT - DATE BEFORE TODAY%
	000565	   040 	   055 	   040
	000570	   104 	   101 	   124
	000573	   105 	   040 	   102
	000576	   105 	   106 	   117
	000601	   122 	   105 	   040
	000604	   124 	   117 	   104
	000607	   101 	   131 	   000
	005626	014544 				 .RAD50	/DBT/		; "DBT" IN .RAD50
	005630	000562'				 .WORD	DBTERM		; POINTER TO MESSAGE
   7285	005632					NSERR$	DCK,<DIVIDE CHECK>
	000612	   104 	   103 	   113 	DCKERM:	 .ASCIZ	%DCK - DIVIDE CHECK%
	000615	   040 	   055 	   040
	000620	   104 	   111 	   126
	000623	   111 	   104 	   105
	000626	   040 	   103 	   110
	000631	   105 	   103 	   113
	000634	   000
	005632	014603 				 .RAD50	/DCK/		; "DCK" IN .RAD50
	005634	000612'				 .WORD	DCKERM		; POINTER TO MESSAGE
   7286	005636					NSERR$	DMF,<DEPOSIT KL MEMORY FAILED>
	000635	   104 	   115 	   106 	DMFERM:	 .ASCIZ	%DMF - DEPOSIT KL MEMORY FAILED%
	000640	   040 	   055 	   040
	000643	   104 	   105 	   120
	000646	   117 	   123 	   111
	000651	   124 	   040 	   113
	000654	   114 	   040 	   115
	000657	   105 	   115 	   117
	000662	   122 	   131 	   040
	000665	   106 	   101 	   111
	000670	   114 	   105 	   104
	000673	   000
	005636	015416 				 .RAD50	/DMF/		; "DMF" IN .RAD50
	005640	000635'				 .WORD	DMFERM		; POINTER TO MESSAGE
   7287	005642					NSERR$	DOR,<DATE OUT OF RANGE>
	000674	   104 	   117 	   122 	DORERM:	 .ASCIZ	%DOR - DATE OUT OF RANGE%
	000677	   040 	   055 	   040
	000702	   104 	   101 	   124
	000705	   105 	   040 	   117
	000710	   125 	   124 	   040
	000713	   117 	   106 	   040
	000716	   122 	   101 	   116
	000721	   107 	   105 	   000
	005642	015552 				 .RAD50	/DOR/		; "DOR" IN .RAD50
	005644	000674'				 .WORD	DORERM		; POINTER TO MESSAGE
   7288	005646					NSERR$	DNF,<DIRECTORY FILE NOT FOUND>
	000724	   104 	   116 	   106 	DNFERM:	 .ASCIZ	%DNF - DIRECTORY FILE NOT FOUND%
	000727	   040 	   055 	   040
	000732	   104 	   111 	   122
	000735	   105 	   103 	   124
	000740	   117 	   122 	   131
	000743	   040 	   106 	   111
	000746	   114 	   105 	   040
	000751	   116 	   117 	   124
TABLE -- COMMAND PARSER COMMAND	MACRO M1113  03-APR-86 22:51  PAGE 181-4
.NSETB -- NORMAL ERROR CODE TABLE 7710.11

	000754	   040 	   106 	   117
	000757	   125 	   116 	   104
	000762	   000
	005646	015466 				 .RAD50	/DNF/		; "DNF" IN .RAD50
	005650	000724'				 .WORD	DNFERM		; POINTER TO MESSAGE
   7289	005652					NSERR$	DNP,<DTE-20 IS NOT PRIVILEGED>
	000763	   104 	   116 	   120 	DNPERM:	 .ASCIZ	%DNP - DTE-20 IS NOT PRIVILEGED%
	000766	   040 	   055 	   040
	000771	   104 	   124 	   105
	000774	   055 	   062 	   060
	000777	   040 	   111 	   123
	001002	   040 	   116 	   117
	001005	   124 	   040 	   120
	001010	   122 	   111 	   126
	001013	   111 	   114 	   105
	001016	   107 	   105 	   104
	001021	   000
	005652	015500 				 .RAD50	/DNP/		; "DNP" IN .RAD50
	005654	000763'				 .WORD	DNPERM		; POINTER TO MESSAGE
   7290	005656					NSERR$	DSF,<DTE-20 STATUS FAILED>
	001022	   104 	   123 	   106 	DSFERM:	 .ASCIZ	%DSF - DTE-20 STATUS FAILED%
	001025	   040 	   055 	   040
	001030	   104 	   124 	   105
	001033	   055 	   062 	   060
	001036	   040 	   123 	   124
	001041	   101 	   124 	   125
	001044	   123 	   040 	   106
	001047	   101 	   111 	   114
	001052	   105 	   104 	   000
	005656	015776 				 .RAD50	/DSF/		; "DSF" IN .RAD50
	005660	001022'				 .WORD	DSFERM		; POINTER TO MESSAGE
   7291	005662					NSERR$	DTC,<DTE-20 CONFUSED - RUN AND HALT LOOP>
	001055	   104 	   124 	   103 	DTCERM:	 .ASCIZ	%DTC - DTE-20 CONFUSED - RUN AND HALT LOOP%
	001060	   040 	   055 	   040
	001063	   104 	   124 	   105
	001066	   055 	   062 	   060
	001071	   040 	   103 	   117
	001074	   116 	   106 	   125
	001077	   123 	   105 	   104
	001102	   040 	   055 	   040
	001105	   122 	   125 	   116
	001110	   040 	   101 	   116
	001113	   104 	   040 	   110
	001116	   101 	   114 	   124
	001121	   040 	   114 	   117
	001124	   117 	   120 	   000
	005662	016043 				 .RAD50	/DTC/		; "DTC" IN .RAD50
	005664	001055'				 .WORD	DTCERM		; POINTER TO MESSAGE
   7292						;
   7293	005666					NSERR$	ECT,<EBOX CLOCK TIMEOUT>
	001127	   105 	   103 	   124 	ECTERM:	 .ASCIZ	%ECT - EBOX CLOCK TIMEOUT%
	001132	   040 	   055 	   040
	001135	   105 	   102 	   117
	001140	   130 	   040 	   103
	001143	   114 	   117 	   103
	001146	   113 	   040 	   124
	001151	   111 	   115 	   105
TABLE -- COMMAND PARSER COMMAND	MACRO M1113  03-APR-86 22:51  PAGE 181-5
.NSETB -- NORMAL ERROR CODE TABLE 7710.11

	001154	   117 	   125 	   124
	001157	   000
	005666	017714 				 .RAD50	/ECT/		; "ECT" IN .RAD50
	005670	001127'				 .WORD	ECTERM		; POINTER TO MESSAGE
   7294	005672					NSERR$	EMF,<EXAMINE KL MEMORY FAILED>
	001160	   105 	   115 	   106 	EMFERM:	 .ASCIZ	%EMF - EXAMINE KL MEMORY FAILED%
	001163	   040 	   055 	   040
	001166	   105 	   130 	   101
	001171	   115 	   111 	   116
	001174	   105 	   040 	   113
	001177	   114 	   040 	   115
	001202	   105 	   115 	   117
	001205	   122 	   131 	   040
	001210	   106 	   101 	   111
	001213	   114 	   105 	   104
	001216	   000
	005672	020516 				 .RAD50	/EMF/		; "EMF" IN .RAD50
	005674	001160'				 .WORD	EMFERM		; POINTER TO MESSAGE
   7295	005676					NSERR$	EOC,<END OF COMMAND REQUIRED>
	001217	   105 	   117 	   103 	EOCERM:	 .ASCIZ	%EOC - END OF COMMAND REQUIRED%
	001222	   040 	   055 	   040
	001225	   105 	   116 	   104
	001230	   040 	   117 	   106
	001233	   040 	   103 	   117
	001236	   115 	   115 	   101
	001241	   116 	   104 	   040
	001244	   122 	   105 	   121
	001247	   125 	   111 	   122
	001252	   105 	   104 	   000
	005676	020633 				 .RAD50	/EOC/		; "EOC" IN .RAD50
	005700	001217'				 .WORD	EOCERM		; POINTER TO MESSAGE
   7296	005702					NSERR$	EPE,<EBUS PARITY ERROR>
	001255	   105 	   120 	   105 	EPEERM:	 .ASCIZ	%EPE - EBUS PARITY ERROR%
	001260	   040 	   055 	   040
	001263	   105 	   102 	   125
	001266	   123 	   040 	   120
	001271	   101 	   122 	   111
	001274	   124 	   131 	   040
	001277	   105 	   122 	   122
	001302	   117 	   122 	   000
	005702	020705 				 .RAD50	/EPE/		; "EPE" IN .RAD50
	005704	001255'				 .WORD	EPEERM		; POINTER TO MESSAGE
   7297	005706					NSERR$	ESD,<EBOX STOPPED - DEPOSIT>
	001305	   105 	   123 	   104 	ESDERM:	 .ASCIZ	%ESD - EBOX STOPPED - DEPOSIT%
	001310	   040 	   055 	   040
	001313	   105 	   102 	   117
	001316	   130 	   040 	   123
	001321	   124 	   117 	   120
	001324	   120 	   105 	   104
	001327	   040 	   055 	   040
	001332	   104 	   105 	   120
	001335	   117 	   123 	   111
	001340	   124 	   000
	005706	021074 				 .RAD50	/ESD/		; "ESD" IN .RAD50
	005710	001305'				 .WORD	ESDERM		; POINTER TO MESSAGE
   7298	005712					NSERR$	ESE,<EBOX STOPPED - EXAMINE>
	001342	   105 	   123 	   105 	ESEERM:	 .ASCIZ	%ESE - EBOX STOPPED - EXAMINE%
TABLE -- COMMAND PARSER COMMAND	MACRO M1113  03-APR-86 22:51  PAGE 181-6
.NSETB -- NORMAL ERROR CODE TABLE 7710.11

	001345	   040 	   055 	   040
	001350	   105 	   102 	   117
	001353	   130 	   040 	   123
	001356	   124 	   117 	   120
	001361	   120 	   105 	   104
	001364	   040 	   055 	   040
	001367	   105 	   130 	   101
	001372	   115 	   111 	   116
	001375	   105 	   000
	005712	021075 				 .RAD50	/ESE/		; "ESE" IN .RAD50
	005714	001342'				 .WORD	ESEERM		; POINTER TO MESSAGE
   7299						;
   7300	005716					NSERR$	FCF,<FILE CLOSE FAILURE>
	001377	   106 	   103 	   106 	FCFERM:	 .ASCIZ	%FCF - FILE CLOSE FAILURE%
	001402	   040 	   055 	   040
	001405	   106 	   111 	   114
	001410	   105 	   040 	   103
	001413	   114 	   117 	   123
	001416	   105 	   040 	   106
	001421	   101 	   111 	   114
	001424	   125 	   122 	   105
	001427	   000
	005716	022776 				 .RAD50	/FCF/		; "FCF" IN .RAD50
	005720	001377'				 .WORD	FCFERM		; POINTER TO MESSAGE
   7301	005722					NSERR$	FEF,<FILE EXTEND FAILURE>
	001430	   106 	   105 	   106 	FEFERM:	 .ASCIZ	%FEF - FILE EXTEND FAILURE%
	001433	   040 	   055 	   040
	001436	   106 	   111 	   114
	001441	   105 	   040 	   105
	001444	   130 	   124 	   105
	001447	   116 	   104 	   040
	001452	   106 	   101 	   111
	001455	   114 	   125 	   122
	001460	   105 	   000
	005722	023116 				 .RAD50	/FEF/		; "FEF" IN .RAD50
	005724	001430'				 .WORD	FEFERM		; POINTER TO MESSAGE
   7302	005726					NSERR$	FEN,<FILE ENTER FAILURE>
	001462	   106 	   105 	   116 	FENERM:	 .ASCIZ	%FEN - FILE ENTER FAILURE%
	001465	   040 	   055 	   040
	001470	   106 	   111 	   114
	001473	   105 	   040 	   105
	001476	   116 	   124 	   105
	001501	   122 	   040 	   106
	001504	   101 	   111 	   114
	001507	   125 	   122 	   105
	001512	   000
	005726	023126 				 .RAD50	/FEN/		; "FEN" IN .RAD50
	005730	001462'				 .WORD	FENERM		; POINTER TO MESSAGE
   7303	005732					NSERR$	FLF,<FILE LOOKUP FAILURE>
	001513	   106 	   114 	   106 	FLFERM:	 .ASCIZ	%FLF - FILE LOOKUP FAILURE%
	001516	   040 	   055 	   040
	001521	   106 	   111 	   114
	001524	   105 	   040 	   114
	001527	   117 	   117 	   113
	001532	   125 	   120 	   040
	001535	   106 	   101 	   111
	001540	   114 	   125 	   122
TABLE -- COMMAND PARSER COMMAND	MACRO M1113  03-APR-86 22:51  PAGE 181-7
.NSETB -- NORMAL ERROR CODE TABLE 7710.11

	001543	   105 	   000
	005732	023546 				 .RAD50	/FLF/		; "FLF" IN .RAD50
	005734	001513'				 .WORD	FLFERM		; POINTER TO MESSAGE
   7304	005736					NSERR$	FOF,<FILE OPEN FAILURE>
	001545	   106 	   117 	   106 	FOFERM:	 .ASCIZ	%FOF - FILE OPEN FAILURE%
	001550	   040 	   055 	   040
	001553	   106 	   111 	   114
	001556	   105 	   040 	   117
	001561	   120 	   105 	   116
	001564	   040 	   106 	   101
	001567	   111 	   114 	   125
	001572	   122 	   105 	   000
	005736	023736 				 .RAD50	/FOF/		; "FOF" IN .RAD50
	005740	001545'				 .WORD	FOFERM		; POINTER TO MESSAGE
   7305	005742					NSERR$	FRD,<FILE READ FAILURE>
	001575	   106 	   122 	   104 	FRDERM:	 .ASCIZ	%FRD - FILE READ FAILURE%
	001600	   040 	   055 	   040
	001603	   106 	   111 	   114
	001606	   105 	   040 	   122
	001611	   105 	   101 	   104
	001614	   040 	   106 	   101
	001617	   111 	   114 	   125
	001622	   122 	   105 	   000
	005742	024124 				 .RAD50	/FRD/		; "FRD" IN .RAD50
	005744	001575'				 .WORD	FRDERM		; POINTER TO MESSAGE
   7306	005746					NSERR$	FSW,<FM SWEEP ERROR>
	001625	   106 	   123 	   127 	FSWERM:	 .ASCIZ	%FSW - FM SWEEP ERROR%
	001630	   040 	   055 	   040
	001633	   106 	   115 	   040
	001636	   123 	   127 	   105
	001641	   105 	   120 	   040
	001644	   105 	   122 	   122
	001647	   117 	   122 	   000
	005746	024217 				 .RAD50	/FSW/		; "FSW" IN .RAD50
	005750	001625'				 .WORD	FSWERM		; POINTER TO MESSAGE
   7307	005752					NSERR$	FWT,<FILE WRITE FAILURE>
	001652	   106 	   127 	   124 	FWTERM:	 .ASCIZ	%FWT - FILE WRITE FAILURE%
	001655	   040 	   055 	   040
	001660	   106 	   111 	   114
	001663	   105 	   040 	   127
	001666	   122 	   111 	   124
	001671	   105 	   040 	   106
	001674	   101 	   111 	   114
	001677	   125 	   122 	   105
	001702	   000
	005752	024454 				 .RAD50	/FWT/		; "FWT" IN .RAD50
	005754	001652'				 .WORD	FWTERM		; POINTER TO MESSAGE
   7308						;
   7309	005756					NSERR$	IDF,<ILLEGAL DATE FORMAT>
	001703	   111 	   104 	   106 	IDFERM:	 .ASCIZ	%IDF - ILLEGAL DATE FORMAT%
	001706	   040 	   055 	   040
	001711	   111 	   114 	   114
	001714	   105 	   107 	   101
	001717	   114 	   040 	   104
	001722	   101 	   124 	   105
	001725	   040 	   106 	   117
	001730	   122 	   115 	   101
TABLE -- COMMAND PARSER COMMAND	MACRO M1113  03-APR-86 22:51  PAGE 181-8
.NSETB -- NORMAL ERROR CODE TABLE 7710.11

	001733	   124 	   000
	005756	034346 				 .RAD50	/IDF/		; "IDF" IN .RAD50
	005760	001703'				 .WORD	IDFERM		; POINTER TO MESSAGE
   7310	005762					NSERR$	IFC,<ILLEGAL FUNCTION CODE>
	001735	   111 	   106 	   103 	IFCERM:	 .ASCIZ	%IFC - ILLEGAL FUNCTION CODE%
	001740	   040 	   055 	   040
	001743	   111 	   114 	   114
	001746	   105 	   107 	   101
	001751	   114 	   040 	   106
	001754	   125 	   116 	   103
	001757	   124 	   111 	   117
	001762	   116 	   040 	   103
	001765	   117 	   104 	   105
	001770	   000
	005762	034463 				 .RAD50	/IFC/		; "IFC" IN .RAD50
	005764	001735'				 .WORD	IFCERM		; POINTER TO MESSAGE
   7311	005766					NSERR$	ILI,<ILLEGAL INSTR>
	001771	   111 	   114 	   111 	ILIERM:	 .ASCIZ	%ILI - ILLEGAL INSTR%
	001774	   040 	   055 	   040
	001777	   111 	   114 	   114
	002002	   105 	   107 	   101
	002005	   114 	   040 	   111
	002010	   116 	   123 	   124
	002013	   122 	   000
	005766	035051 				 .RAD50	/ILI/		; "ILI" IN .RAD50
	005770	001771'				 .WORD	ILIERM		; POINTER TO MESSAGE
   7312	005772					NSERR$	IOC,<ILLEGAL KL OPCODE>
	002015	   111 	   117 	   103 	IOCERM:	 .ASCIZ	%IOC - ILLEGAL KL OPCODE%
	002020	   040 	   055 	   040
	002023	   111 	   114 	   114
	002026	   105 	   107 	   101
	002031	   114 	   040 	   113
	002034	   114 	   040 	   117
	002037	   120 	   103 	   117
	002042	   104 	   105 	   000
	005772	035233 				 .RAD50	/IOC/		; "IOC" IN .RAD50
	005774	002015'				 .WORD	IOCERM		; POINTER TO MESSAGE
   7313	005776					NSERR$	IRC,<ILLEGAL REPEAT COUNT>
	002045	   111 	   122 	   103 	IRCERM:	 .ASCIZ	%IRC - ILLEGAL REPEAT COUNT%
	002050	   040 	   055 	   040
	002053	   111 	   114 	   114
	002056	   105 	   107 	   101
	002061	   114 	   040 	   122
	002064	   105 	   120 	   105
	002067	   101 	   124 	   040
	002072	   103 	   117 	   125
	002075	   116 	   124 	   000
	005776	035423 				 .RAD50	/IRC/		; "IRC" IN .RAD50
	006000	002045'				 .WORD	IRCERM		; POINTER TO MESSAGE
   7314	006002					NSERR$	IRE,<ILLEGAL RECURSION>
	002100	   111 	   122 	   105 	IREERM:	 .ASCIZ	%IRE - ILLEGAL RECURSION%
	002103	   040 	   055 	   040
	002106	   111 	   114 	   114
	002111	   105 	   107 	   101
	002114	   114 	   040 	   122
	002117	   105 	   103 	   125
	002122	   122 	   123 	   111
TABLE -- COMMAND PARSER COMMAND	MACRO M1113  03-APR-86 22:51  PAGE 181-9
.NSETB -- NORMAL ERROR CODE TABLE 7710.11

	002125	   117 	   116 	   000
	006002	035425 				 .RAD50	/IRE/		; "IRE" IN .RAD50
	006004	002100'				 .WORD	IREERM		; POINTER TO MESSAGE
   7315	006006					NSERR$	ITF,<ILLEGAL TIME FORMAT>
	002130	   111 	   124 	   106 	ITFERM:	 .ASCIZ	%ITF - ILLEGAL TIME FORMAT%
	002133	   040 	   055 	   040
	002136	   111 	   114 	   114
	002141	   105 	   107 	   101
	002144	   114 	   040 	   124
	002147	   111 	   115 	   105
	002152	   040 	   106 	   117
	002155	   122 	   115 	   101
	002160	   124 	   000
	006006	035546 				 .RAD50	/ITF/		; "ITF" IN .RAD50
	006010	002130'				 .WORD	ITFERM		; POINTER TO MESSAGE
   7316	006012					NSERR$	ITN,<ILLEGAL TASK NAME>
	002162	   111 	   124 	   116 	ITNERM:	 .ASCIZ	%ITN - ILLEGAL TASK NAME%
	002165	   040 	   055 	   040
	002170	   111 	   114 	   114
	002173	   105 	   107 	   101
	002176	   114 	   040 	   124
	002201	   101 	   123 	   113
	002204	   040 	   116 	   101
	002207	   115 	   105 	   000
	006012	035556 				 .RAD50	/ITN/		; "ITN" IN .RAD50
	006014	002162'				 .WORD	ITNERM		; POINTER TO MESSAGE
   7317						;
   7318	006016					NSERR$	KCN,<KL CLOCK IS OFF>
	002212	   113 	   103 	   116 	KCNERM:	 .ASCIZ	%KCN - KL CLOCK IS OFF%
	002215	   040 	   055 	   040
	002220	   113 	   114 	   040
	002223	   103 	   114 	   117
	002226	   103 	   113 	   040
	002231	   111 	   123 	   040
	002234	   117 	   106 	   106
	002237	   000
	006016	042506 				 .RAD50	/KCN/		; "KCN" IN .RAD50
	006020	002212'				 .WORD	KCNERM		; POINTER TO MESSAGE
   7319	006022					NSERR$	KLA,<KL ADDR. ERROR>
	002240	   113 	   114 	   101 	KLAERM:	 .ASCIZ	%KLA - KL ADDR. ERROR%
	002243	   040 	   055 	   040
	002246	   113 	   114 	   040
	002251	   101 	   104 	   104
	002254	   122 	   056 	   040
	002257	   105 	   122 	   122
	002262	   117 	   122 	   000
	006022	043241 				 .RAD50	/KLA/		; "KLA" IN .RAD50
	006024	002240'				 .WORD	KLAERM		; POINTER TO MESSAGE
   7320	006026					NSERR$	KLR,<ILLEGAL WHILE KL IS RUNNING>
	002265	   113 	   114 	   122 	KLRERM:	 .ASCIZ	%KLR - ILLEGAL WHILE KL IS RUNNING%
	002270	   040 	   055 	   040
	002273	   111 	   114 	   114
	002276	   105 	   107 	   101
	002301	   114 	   040 	   127
	002304	   110 	   111 	   114
	002307	   105 	   040 	   113
	002312	   114 	   040 	   111
TABLE -- COMMAND PARSER COMMAND	MACRO M1113  03-APR-86 22:51  PAGE 181-10
.NSETB -- NORMAL ERROR CODE TABLE 7710.11

	002315	   123 	   040 	   122
	002320	   125 	   116 	   116
	002323	   111 	   116 	   107
	002326	   000
	006026	043262 				 .RAD50	/KLR/		; "KLR" IN .RAD50
	006030	002265'				 .WORD	KLRERM		; POINTER TO MESSAGE
   7321	006032					NSERR$	KNC,<KL IS NOT CONTINUABLE>
	002327	   113 	   116 	   103 	KNCERM:	 .ASCIZ	%KNC - KL IS NOT CONTINUABLE%
	002332	   040 	   055 	   040
	002335	   113 	   114 	   040
	002340	   111 	   123 	   040
	002343	   116 	   117 	   124
	002346	   040 	   103 	   117
	002351	   116 	   124 	   111
	002354	   116 	   125 	   101
	002357	   102 	   114 	   105
	002362	   000
	006032	043363 				 .RAD50	/KNC/		; "KNC" IN .RAD50
	006034	002327'				 .WORD	KNCERM		; POINTER TO MESSAGE
   7322	006036					NSERR$	KWE,<KLINIK WINDOW ERROR>
	002363	   113 	   127 	   105 	KWEERM:	 .ASCIZ	%KWE - KLINIK WINDOW ERROR%
	002366	   040 	   055 	   040
	002371	   113 	   114 	   111
	002374	   116 	   111 	   113
	002377	   040 	   127 	   111
	002402	   116 	   104 	   117
	002405	   127 	   040 	   105
	002410	   122 	   122 	   117
	002413	   122 	   000
	006036	044135 				 .RAD50	/KWE/		; "KWE" IN .RAD50
	006040	002363'				 .WORD	KWEERM		; POINTER TO MESSAGE
   7323						;
   7324	006042					NSERR$	MRA,<MISSING REQUIRED ARGUMENT>
	002415	   115 	   122 	   101 	MRAERM:	 .ASCIZ	%MRA - MISSING REQUIRED ARGUMENT%
	002420	   040 	   055 	   040
	002423	   115 	   111 	   123
	002426	   123 	   111 	   116
	002431	   107 	   040 	   122
	002434	   105 	   121 	   125
	002437	   111 	   122 	   105
	002442	   104 	   040 	   101
	002445	   122 	   107 	   125
	002450	   115 	   105 	   116
	002453	   124 	   000
	006042	052021 				 .RAD50	/MRA/		; "MRA" IN .RAD50
	006044	002415'				 .WORD	MRAERM		; POINTER TO MESSAGE
   7325	006046					NSERR$	MRH,<HARDWARE OPTIONS MUST BE READ>
	002455	   115 	   122 	   110 	MRHERM:	 .ASCIZ	%MRH - HARDWARE OPTIONS MUST BE READ%
	002460	   040 	   055 	   040
	002463	   110 	   101 	   122
	002466	   104 	   127 	   101
	002471	   122 	   105 	   040
	002474	   117 	   120 	   124
	002477	   111 	   117 	   116
	002502	   123 	   040 	   115
	002505	   125 	   123 	   124
	002510	   040 	   102 	   105
TABLE -- COMMAND PARSER COMMAND	MACRO M1113  03-APR-86 22:51  PAGE 181-11
.NSETB -- NORMAL ERROR CODE TABLE 7710.11

	002513	   040 	   122 	   105
	002516	   101 	   104 	   000
	006046	052030 				 .RAD50	/MRH/		; "MRH" IN .RAD50
	006050	002455'				 .WORD	MRHERM		; POINTER TO MESSAGE
   7326						;
   7327	006052					NSERR$	NDI,<NULL DATE ILLEGAL>
	002521	   116 	   104 	   111 	NDIERM:	 .ASCIZ	%NDI - NULL DATE ILLEGAL%
	002524	   040 	   055 	   040
	002527	   116 	   125 	   114
	002532	   114 	   040 	   104
	002535	   101 	   124 	   105
	002540	   040 	   111 	   114
	002543	   114 	   105 	   107
	002546	   101 	   114 	   000
	006052	054051 				 .RAD50	/NDI/		; "NDI" IN .RAD50
	006054	002521'				 .WORD	NDIERM		; POINTER TO MESSAGE
   7328	006056					NSERR$	NER,<NUMERIC EXPRESSION REQUIRED>
	002551	   116 	   105 	   122 	NERERM:	 .ASCIZ	%NER - NUMERIC EXPRESSION REQUIRED%
	002554	   040 	   055 	   040
	002557	   116 	   125 	   115
	002562	   105 	   122 	   111
	002565	   103 	   040 	   105
	002570	   130 	   120 	   122
	002573	   105 	   123 	   123
	002576	   111 	   117 	   116
	002601	   040 	   122 	   105
	002604	   121 	   125 	   111
	002607	   122 	   105 	   104
	002612	   000
	006056	054132 				 .RAD50	/NER/		; "NER" IN .RAD50
	006060	002551'				 .WORD	NERERM		; POINTER TO MESSAGE
   7329	006062					NSERR$	NOR,<INPUT NUMBER OUT OF RANGE>
	002613	   116 	   117 	   122 	NORERM:	 .ASCIZ	%NOR - INPUT NUMBER OUT OF RANGE%
	002616	   040 	   055 	   040
	002621	   111 	   116 	   120
	002624	   125 	   124 	   040
	002627	   116 	   125 	   115
	002632	   102 	   105 	   122
	002635	   040 	   117 	   125
	002640	   124 	   040 	   117
	002643	   106 	   040 	   122
	002646	   101 	   116 	   107
	002651	   105 	   000
	006062	054752 				 .RAD50	/NOR/		; "NOR" IN .RAD50
	006064	002613'				 .WORD	NORERM		; POINTER TO MESSAGE
   7330	006066					NSERR$	NPI,<NULL PASSWORD ILLEGAL>
	002653	   116 	   120 	   111 	NPIERM:	 .ASCIZ	%NPI - NULL PASSWORD ILLEGAL%
	002656	   040 	   055 	   040
	002661	   116 	   125 	   114
	002664	   114 	   040 	   120
	002667	   101 	   123 	   123
	002672	   127 	   117 	   122
	002675	   104 	   040 	   111
	002700	   114 	   114 	   105
	002703	   107 	   101 	   114
	002706	   000
	006066	055011 				 .RAD50	/NPI/		; "NPI" IN .RAD50
TABLE -- COMMAND PARSER COMMAND	MACRO M1113  03-APR-86 22:51  PAGE 181-12
.NSETB -- NORMAL ERROR CODE TABLE 7710.11

	006070	002653'				 .WORD	NPIERM		; POINTER TO MESSAGE
   7331	006072					NSERR$	NSF,<NO SUCH FILE>
	002707	   116 	   123 	   106 	NSFERM:	 .ASCIZ	%NSF - NO SUCH FILE%
	002712	   040 	   055 	   040
	002715	   116 	   117 	   040
	002720	   123 	   125 	   103
	002723	   110 	   040 	   106
	002726	   111 	   114 	   105
	002731	   000
	006072	055176 				 .RAD50	/NSF/		; "NSF" IN .RAD50
	006074	002707'				 .WORD	NSFERM		; POINTER TO MESSAGE
   7332	006076					NSERR$	NST,<NO SUCH TASK>
	002732	   116 	   123 	   124 	NSTERM:	 .ASCIZ	%NST - NO SUCH TASK%
	002735	   040 	   055 	   040
	002740	   116 	   117 	   040
	002743	   123 	   125 	   103
	002746	   110 	   040 	   124
	002751	   101 	   123 	   113
	002754	   000
	006076	055214 				 .RAD50	/NST/		; "NST" IN .RAD50
	006100	002732'				 .WORD	NSTERM		; POINTER TO MESSAGE
   7333	006102					NSERR$	NTI,<NULL TIME ILLEGAL>
	002755	   116 	   124 	   111 	NTIERM:	 .ASCIZ	%NTI - NULL TIME ILLEGAL%
	002760	   040 	   055 	   040
	002763	   116 	   125 	   114
	002766	   114 	   040 	   124
	002771	   111 	   115 	   105
	002774	   040 	   111 	   114
	002777	   114 	   105 	   107
	003002	   101 	   114 	   000
	006102	055251 				 .RAD50	/NTI/		; "NTI" IN .RAD50
	006104	002755'				 .WORD	NTIERM		; POINTER TO MESSAGE
   7334						;
   7335	006106					NSERR$	OAI,<ODD ADDR. ILLEGAL>
	003005	   117 	   101 	   111 	OAIERM:	 .ASCIZ	%OAI - ODD ADDR. ILLEGAL%
	003010	   040 	   055 	   040
	003013	   117 	   104 	   104
	003016	   040 	   101 	   104
	003021	   104 	   122 	   056
	003024	   040 	   111 	   114
	003027	   114 	   105 	   107
	003032	   101 	   114 	   000
	006106	056761 				 .RAD50	/OAI/		; "OAI" IN .RAD50
	006110	003005'				 .WORD	OAIERM		; POINTER TO MESSAGE
   7336	006112					NSERR$	OFC,<ODD FUNCTION CODE>
	003035	   117 	   106 	   103 	OFCERM:	 .ASCIZ	%OFC - ODD FUNCTION CODE%
	003040	   040 	   055 	   040
	003043	   117 	   104 	   104
	003046	   040 	   106 	   125
	003051	   116 	   103 	   124
	003054	   111 	   117 	   116
	003057	   040 	   103 	   117
	003062	   104 	   105 	   000
	006112	057263 				 .RAD50	/OFC/		; "OFC" IN .RAD50
	006114	003035'				 .WORD	OFCERM		; POINTER TO MESSAGE
   7337						;
   7338	006116					NSERR$	PTL,<PASSWORD TOO LONG>
TABLE -- COMMAND PARSER COMMAND	MACRO M1113  03-APR-86 22:51  PAGE 181-13
.NSETB -- NORMAL ERROR CODE TABLE 7710.11

	003065	   120 	   124 	   114 	PTLERM:	 .ASCIZ	%PTL - PASSWORD TOO LONG%
	003070	   040 	   055 	   040
	003073	   120 	   101 	   123
	003076	   123 	   127 	   117
	003101	   122 	   104 	   040
	003104	   124 	   117 	   117
	003107	   040 	   114 	   117
	003112	   116 	   107 	   000
	006116	063454 				 .RAD50	/PTL/		; "PTL" IN .RAD50
	006120	003065'				 .WORD	PTLERM		; POINTER TO MESSAGE
   7339						;
   7340	006122					NSERR$	RPM,<RIGHT PARENTHESES MISSING>
	003115	   122 	   120 	   115 	RPMERM:	 .ASCIZ	%RPM - RIGHT PARENTHESES MISSING%
	003120	   040 	   055 	   040
	003123	   122 	   111 	   107
	003126	   110 	   124 	   040
	003131	   120 	   101 	   122
	003134	   105 	   116 	   124
	003137	   110 	   105 	   123
	003142	   105 	   123 	   040
	003145	   115 	   111 	   123
	003150	   123 	   111 	   116
	003153	   107 	   000
	006122	071415 				 .RAD50	/RPM/		; "RPM" IN .RAD50
	006124	003115'				 .WORD	RPMERM		; POINTER TO MESSAGE
   7341						;
   7342	006126					NSERR$	SCF,<SET CLOCK FAILED>
	003155	   123 	   103 	   106 	SCFERM:	 .ASCIZ	%SCF - SET CLOCK FAILED%
	003160	   040 	   055 	   040
	003163	   123 	   105 	   124
	003166	   040 	   103 	   114
	003171	   117 	   103 	   113
	003174	   040 	   106 	   101
	003177	   111 	   114 	   105
	003202	   104 	   000
	006126	073476 				 .RAD50	/SCF/		; "SCF" IN .RAD50
	006130	003155'				 .WORD	SCFERM		; POINTER TO MESSAGE
   7343	006132					NSERR$	SKI,<SET KLINIK ILLEGAL WHILE KLINIK ACTIVE>
	003204	   123 	   113 	   111 	SKIERM:	 .ASCIZ	%SKI - SET KLINIK ILLEGAL WHILE KLINIK ACTIVE%
	003207	   040 	   055 	   040
	003212	   123 	   105 	   124
	003215	   040 	   113 	   114
	003220	   111 	   116 	   111
	003223	   113 	   040 	   111
	003226	   114 	   114 	   105
	003231	   107 	   101 	   114
	003234	   040 	   127 	   110
	003237	   111 	   114 	   105
	003242	   040 	   113 	   114
	003245	   111 	   116 	   111
	003250	   113 	   040 	   101
	003253	   103 	   124 	   111
	003256	   126 	   105 	   000
	006132	074201 				 .RAD50	/SKI/		; "SKI" IN .RAD50
	006134	003204'				 .WORD	SKIERM		; POINTER TO MESSAGE
   7344	006136					NSERR$	SPF,<SET PARITY FAILED>
	003261	   123 	   120 	   106 	SPFERM:	 .ASCIZ	%SPF - SET PARITY FAILED%
TABLE -- COMMAND PARSER COMMAND	MACRO M1113  03-APR-86 22:51  PAGE 181-14
.NSETB -- NORMAL ERROR CODE TABLE 7710.11

	003264	   040 	   055 	   040
	003267	   123 	   105 	   124
	003272	   040 	   120 	   101
	003275	   122 	   111 	   124
	003300	   131 	   040 	   106
	003303	   101 	   111 	   114
	003306	   105 	   104 	   000
	006136	074506 				 .RAD50	/SPF/		; "SPF" IN .RAD50
	006140	003261'				 .WORD	SPFERM		; POINTER TO MESSAGE
   7345	006142					NSERR$	SZI,<START AT ZERO ILLEGAL>
	003311	   123 	   132 	   111 	SZIERM:	 .ASCIZ	%SZI - START AT ZERO ILLEGAL%
	003314	   040 	   055 	   040
	003317	   123 	   124 	   101
	003322	   122 	   124 	   040
	003325	   101 	   124 	   040
	003330	   132 	   105 	   122
	003333	   117 	   040 	   111
	003336	   114 	   114 	   105
	003341	   107 	   101 	   114
	003344	   000
	006142	075331 				 .RAD50	/SZI/		; "SZI" IN .RAD50
	006144	003311'				 .WORD	SZIERM		; POINTER TO MESSAGE
   7346						;
   7347	006146					NSERR$	TAA,<TASK IS ALREADY ACTIVE>
	003345	   124 	   101 	   101 	TAAERM:	 .ASCIZ	%TAA - TASK IS ALREADY ACTIVE%
	003350	   040 	   055 	   040
	003353	   124 	   101 	   123
	003356	   113 	   040 	   111
	003361	   123 	   040 	   101
	003364	   114 	   122 	   105
	003367	   101 	   104 	   131
	003372	   040 	   101 	   103
	003375	   124 	   111 	   126
	003400	   105 	   000
	006146	076451 				 .RAD50	/TAA/		; "TAA" IN .RAD50
	006150	003345'				 .WORD	TAAERM		; POINTER TO MESSAGE
   7348	006152					NSERR$	TOR,<TIME OUT OF RANGE>
	003402	   124 	   117 	   122 	TORERM:	 .ASCIZ	%TOR - TIME OUT OF RANGE%
	003405	   040 	   055 	   040
	003410	   124 	   111 	   115
	003413	   105 	   040 	   117
	003416	   125 	   124 	   040
	003421	   117 	   106 	   040
	003424	   122 	   101 	   116
	003427	   107 	   105 	   000
	006152	077552 				 .RAD50	/TOR/		; "TOR" IN .RAD50
	006154	003402'				 .WORD	TORERM		; POINTER TO MESSAGE
   7349						;
   7350	006156					NSERR$	UNL,<KL MICROCODE NOT LOADED>
	003432	   125 	   116 	   114 	UNLERM:	 .ASCIZ	%UNL - KL MICROCODE NOT LOADED%
	003435	   040 	   055 	   040
	003440	   113 	   114 	   040
	003443	   115 	   111 	   103
	003446	   122 	   117 	   103
	003451	   117 	   104 	   105
	003454	   040 	   116 	   117
	003457	   124 	   040 	   114
TABLE -- COMMAND PARSER COMMAND	MACRO M1113  03-APR-86 22:51  PAGE 181-15
.NSETB -- NORMAL ERROR CODE TABLE 7710.11

	003462	   117 	   101 	   104
	003465	   105 	   104 	   000
	006156	102574 				 .RAD50	/UNL/		; "UNL" IN .RAD50
	006160	003432'				 .WORD	UNLERM		; POINTER TO MESSAGE
   7351						;
   7352	006162					NSERR$	VFY,<DEPOSIT VERIFY FAILED>
	003470	   126 	   106 	   131 	VFYERM:	 .ASCIZ	%VFY - DEPOSIT VERIFY FAILED%
	003473	   040 	   055 	   040
	003476	   104 	   105 	   120
	003501	   117 	   123 	   111
	003504	   124 	   040 	   126
	003507	   105 	   122 	   111
	003512	   106 	   131 	   040
	003515	   106 	   101 	   111
	003520	   114 	   105 	   104
	003523	   000
	006162	105211 				 .RAD50	/VFY/		; "VFY" IN .RAD50
	006164	003470'				 .WORD	VFYERM		; POINTER TO MESSAGE
   7353						;
   7354	006166					NSERR$	WRM,<COMMAND NOT AVAILABLE IN THIS CONSOLE MODE>
	003524	   127 	   122 	   115 	WRMERM:	 .ASCIZ	%WRM - COMMAND NOT AVAILABLE IN THIS CONSOLE MODE%
	003527	   040 	   055 	   040
	003532	   103 	   117 	   115
	003535	   115 	   101 	   116
	003540	   104 	   040 	   116
	003543	   117 	   124 	   040
	003546	   101 	   126 	   101
	003551	   111 	   114 	   101
	003554	   102 	   114 	   105
	003557	   040 	   111 	   116
	003562	   040 	   124 	   110
	003565	   111 	   123 	   040
	003570	   103 	   117 	   116
	003573	   123 	   117 	   114
	003576	   105 	   040 	   115
	003601	   117 	   104 	   105
	003604	   000
	006166	111235 				 .RAD50	/WRM/		; "WRM" IN .RAD50
	006170	003524'				 .WORD	WRMERM		; POINTER TO MESSAGE
   7355						;
   7356	006172					NSERR$	YOR,<YEAR OUT OF RANGE>
	003605	   131 	   117 	   122 	YORERM:	 .ASCIZ	%YOR - YEAR OUT OF RANGE%
	003610	   040 	   055 	   040
	003613	   131 	   105 	   101
	003616	   122 	   040 	   117
	003621	   125 	   124 	   040
	003624	   117 	   106 	   040
	003627	   122 	   101 	   116
	003632	   107 	   105 	   000
	006172	117252 				 .RAD50	/YOR/		; "YOR" IN .RAD50
	006174	003605'				 .WORD	YORERM		; POINTER TO MESSAGE
   7357						;
   7358	006176					NSERR$	XTO,<KL EXECUTE TIMED OUT>
	003635	   130 	   124 	   117 	XTOERM:	 .ASCIZ	%XTO - KL EXECUTE TIMED OUT%
	003640	   040 	   055 	   040
	003643	   113 	   114 	   040
	003646	   105 	   130 	   105
TABLE -- COMMAND PARSER COMMAND	MACRO M1113  03-APR-86 22:51  PAGE 181-16
.NSETB -- NORMAL ERROR CODE TABLE 7710.11

	003651	   103 	   125 	   124
	003654	   105 	   040 	   124
	003657	   111 	   115 	   105
	003662	   104 	   040 	   117
	003665	   125 	   124 	   000
	006176	114457 				 .RAD50	/XTO/		; "XTO" IN .RAD50
	006200	003635'				 .WORD	XTOERM		; POINTER TO MESSAGE
   7359						;
   7360	006202	000000 				.WORD	0		; END OF TABLE MARKER
TABLE -- COMMAND PARSER COMMAND	MACRO M1113  03-APR-86 22:51  PAGE 182
.RSTTB -- THE RESTORE COMMAND TABLE 8306.09

   7362					.SBTTL	.RSTTB -- THE RESTORE COMMAND TABLE 8306.09
   7363
   7364	006204				.RSTTB::
   7365	006204					COMND$	AC-BLOCK,LG.MNT,.RSACB,ACB
	001372	   101 	   103 	   055 	ACBMSG:: .ASCIZ	%AC-BLOCK%
	001375	   102 	   114 	   117
	001400	   103 	   113 	   000
	006204	001372'				 .WORD	ACBMSG		; POINTER TO "AC-BLOCK" SYMBOL
	006206	000004 				 .WORD	LG.MNT		; LEGAL BITS
	006210	000000G				 .WORD	.RSACB		; ROUTINE TO CALL OR DATA
   7366					;
   7367	006212	000000 				.WORD	0		; END OF TABLE MARKER
TABLE -- COMMAND PARSER COMMAND	MACRO M1113  03-APR-86 22:51  PAGE 183
.SAVTB -- THE SAVE COMMAND TABLE 8306.09

   7369					.SBTTL	.SAVTB -- THE SAVE COMMAND TABLE 8306.09
   7370
   7371	006214				.SAVTB::
   7372	006214					COMND$	PC-FLAGS,LG.MNT,.SVPC,SPC
	001403	   120 	   103 	   055 	SPCMSG:: .ASCIZ	%PC-FLAGS%
	001406	   106 	   114 	   101
	001411	   107 	   123 	   000
	006214	001403'				 .WORD	SPCMSG		; POINTER TO "PC-FLAGS" SYMBOL
	006216	000004 				 .WORD	LG.MNT		; LEGAL BITS
	006220	000000G				 .WORD	.SVPC		; ROUTINE TO CALL OR DATA
   7373					;
   7374	006222					COMND$	AC-BLOCK,LG.MNT,.SVACB,ACB
	006222	001372'				 .WORD	ACBMSG		; POINTER TO "AC-BLOCK" SYMBOL
	006224	000004 				 .WORD	LG.MNT		; LEGAL BITS
	006226	000000G				 .WORD	.SVACB		; ROUTINE TO CALL OR DATA
   7375					;
   7376	006230	000000 				.WORD	0		; END OF TABLE MARKER
TABLE -- COMMAND PARSER COMMAND	MACRO M1113  03-APR-86 22:51  PAGE 184
.RESTB -- THE RESET COMMAND TABLE 7602.18

   7378					.SBTTL	.RESTB -- THE RESET COMMAND TABLE 7602.18
   7379
   7380	006232				.RESTB::
   7381	006232					COMND$	ALL,<LG.PRG!LG.RPT>,.RSALL,ALL
	001414	   101 	   114 	   114 	ALLMSG:: .ASCIZ	%ALL%
	001417	   000
	006232	001414'				 .WORD	ALLMSG		; POINTER TO "ALL" SYMBOL
	006234	000402 				 .WORD	LG.PRG!LG.RPT		; LEGAL BITS
	006236	000000G				 .WORD	.RSALL		; ROUTINE TO CALL OR DATA
   7382					;
   7383	006240					COMND$	APR,<LG.PRG!LG.RPT>,.RSAPR,CPU
	001420	   101 	   120 	   122 	CPUMSG:: .ASCIZ	%APR%
	001423	   000
	006240	001420'				 .WORD	CPUMSG		; POINTER TO "APR" SYMBOL
	006242	000402 				 .WORD	LG.PRG!LG.RPT		; LEGAL BITS
	006244	000000G				 .WORD	.RSAPR		; ROUTINE TO CALL OR DATA
   7384					;
   7385	006246					COMND$	DTE-20,<LG.PRG!LG.RPT>,.RSDTE,DTE
	006246	001100'				 .WORD	DTEMSG		; POINTER TO "DTE-20" SYMBOL
	006250	000402 				 .WORD	LG.PRG!LG.RPT		; LEGAL BITS
	006252	000000G				 .WORD	.RSDTE		; ROUTINE TO CALL OR DATA
   7386					;
   7387	006254					COMND$	ERROR,<LG.RPT!LG.PRG>,.RSERR,ERR
	001424	   105 	   122 	   122 	ERRMSG:: .ASCIZ	%ERROR%
	001427	   117 	   122 	   000
	006254	001424'				 .WORD	ERRMSG		; POINTER TO "ERROR" SYMBOL
	006256	000402 				 .WORD	LG.RPT!LG.PRG		; LEGAL BITS
	006260	000000G				 .WORD	.RSERR		; ROUTINE TO CALL OR DATA
   7388					;
   7389	006262					COMND$	INITIALIZE,<LG.PRG!LG.RPT>,.RSTIN,INI
	006262	000474'				 .WORD	INIMSG		; POINTER TO "INITIALIZE" SYMBOL
	006264	000402 				 .WORD	LG.PRG!LG.RPT		; LEGAL BITS
	006266	000000G				 .WORD	.RSTIN		; ROUTINE TO CALL OR DATA
   7390					;
   7391	006270					COMND$	IO,<LG.PRG!LG.RPT>,.RSTIO,IO
	001432	   111 	   117 	   000 	IOMSG:: .ASCIZ	%IO%
	006270	001432'				 .WORD	IOMSG		; POINTER TO "IO" SYMBOL
	006272	000402 				 .WORD	LG.PRG!LG.RPT		; LEGAL BITS
	006274	000000G				 .WORD	.RSTIO		; ROUTINE TO CALL OR DATA
   7392					;
   7393	006276					COMND$	PAG,<LG.PRG!LG.RPT>,.RSPAG,PAG
	001435	   120 	   101 	   107 	PAGMSG:: .ASCIZ	%PAG%
	001440	   000
	006276	001435'				 .WORD	PAGMSG		; POINTER TO "PAG" SYMBOL
	006300	000402 				 .WORD	LG.PRG!LG.RPT		; LEGAL BITS
	006302	000000G				 .WORD	.RSPAG		; ROUTINE TO CALL OR DATA
   7394					;
   7395	006304					COMND$	PI,<LG.PRG!LG.RPT>,.RSTPI,PI
	006304	001127'				 .WORD	PIMSG		; POINTER TO "PI" SYMBOL
	006306	000402 				 .WORD	LG.PRG!LG.RPT		; LEGAL BITS
	006310	000000G				 .WORD	.RSTPI		; ROUTINE TO CALL OR DATA
   7396					;
   7397	006312	000000 				.WORD	0		; END OF TABLE MARKER
TABLE -- COMMAND PARSER COMMAND	MACRO M1113  03-APR-86 22:51  PAGE 185
.SCCTB -- THE "SET / CLEAR CLOCK" COMMAND TABLE 7603.12

   7399					.SBTTL	.SCCTB -- THE "SET / CLEAR CLOCK" COMMAND TABLE 7603.12
   7400
   7401	006314				.SCCTB::
   7402	006314					COMND$	NORMAL,<LG.MNT!LG.RPT>,.SCCLN,NRM
	001441	   116 	   117 	   122 	NRMMSG:: .ASCIZ	%NORMAL%
	001444	   115 	   101 	   114
	001447	   000
	006314	001441'				 .WORD	NRMMSG		; POINTER TO "NORMAL" SYMBOL
	006316	000404 				 .WORD	LG.MNT!LG.RPT		; LEGAL BITS
	006320	000000G				 .WORD	.SCCLN		; ROUTINE TO CALL OR DATA
   7403					;
   7404	006322					COMND$	CRAM,<LG.MNT!LG.RPT>,.SCCEC,CRM
	001450	   103 	   122 	   101 	CRMMSG:: .ASCIZ	%CRAM%
	001453	   115 	   000
	006322	001450'				 .WORD	CRMMSG		; POINTER TO "CRAM" SYMBOL
	006324	000404 				 .WORD	LG.MNT!LG.RPT		; LEGAL BITS
	006326	000000G				 .WORD	.SCCEC		; ROUTINE TO CALL OR DATA
   7405					;
   7406	006330					COMND$	DATA-PATH,<LG.MNT!LG.RPT>,.SCCED,DPT
	001455	   104 	   101 	   124 	DPTMSG:: .ASCIZ	%DATA-PATH%
	001460	   101 	   055 	   120
	001463	   101 	   124 	   110
	001466	   000
	006330	001455'				 .WORD	DPTMSG		; POINTER TO "DATA-PATH" SYMBOL
	006332	000404 				 .WORD	LG.MNT!LG.RPT		; LEGAL BITS
	006334	000000G				 .WORD	.SCCED		; ROUTINE TO CALL OR DATA
   7407					;
   7408	006336					COMND$	CONTROL,<LG.MNT!LG.RPT>,.SCCEE,CTL
	001467	   103 	   117 	   116 	CTLMSG:: .ASCIZ	%CONTROL%
	001472	   124 	   122 	   117
	001475	   114 	   000
	006336	001467'				 .WORD	CTLMSG		; POINTER TO "CONTROL" SYMBOL
	006340	000404 				 .WORD	LG.MNT!LG.RPT		; LEGAL BITS
	006342	000000G				 .WORD	.SCCEE		; ROUTINE TO CALL OR DATA
   7409					;
   7410	006344					COMND$	EXTERNAL,<LG.MNT!LG.RPT>,.SCCSE,EXT
	001477	   105 	   130 	   124 	EXTMSG:: .ASCIZ	%EXTERNAL%
	001502	   105 	   122 	   116
	001505	   101 	   114 	   000
	006344	001477'				 .WORD	EXTMSG		; POINTER TO "EXTERNAL" SYMBOL
	006346	000404 				 .WORD	LG.MNT!LG.RPT		; LEGAL BITS
	006350	000000G				 .WORD	.SCCSE		; ROUTINE TO CALL OR DATA
   7411					;
   7412	006352					COMND$	INTERNAL,<LG.MNT!LG.RPT>,.SCCSI,INT
	001510	   111 	   116 	   124 	INTMSG:: .ASCIZ	%INTERNAL%
	001513	   105 	   122 	   116
	001516	   101 	   114 	   000
	006352	001510'				 .WORD	INTMSG		; POINTER TO "INTERNAL" SYMBOL
	006354	000404 				 .WORD	LG.MNT!LG.RPT		; LEGAL BITS
	006356	000000G				 .WORD	.SCCSI		; ROUTINE TO CALL OR DATA
   7413					;
   7414	006360					COMND$	MARGIN,<LG.MNT!LG.RPT>,.SCCSM,MGN
	001521	   115 	   101 	   122 	MGNMSG:: .ASCIZ	%MARGIN%
	001524	   107 	   111 	   116
	001527	   000
	006360	001521'				 .WORD	MGNMSG		; POINTER TO "MARGIN" SYMBOL
	006362	000404 				 .WORD	LG.MNT!LG.RPT		; LEGAL BITS
TABLE -- COMMAND PARSER COMMAND	MACRO M1113  03-APR-86 22:51  PAGE 185-1
.SCCTB -- THE "SET / CLEAR CLOCK" COMMAND TABLE 7603.12

	006364	000000G				 .WORD	.SCCSM		; ROUTINE TO CALL OR DATA
   7415					;
   7416	006366					COMND$	FULL,<LG.MNT!LG.RPT>,.SCCRF,FUL
	001530	   106 	   125 	   114 	FULMSG:: .ASCIZ	%FULL%
	001533	   114 	   000
	006366	001530'				 .WORD	FULMSG		; POINTER TO "FULL" SYMBOL
	006370	000404 				 .WORD	LG.MNT!LG.RPT		; LEGAL BITS
	006372	000000G				 .WORD	.SCCRF		; ROUTINE TO CALL OR DATA
   7417					;
   7418	006374					COMND$	HALF,<LG.MNT!LG.RPT>,.SCCRH,HLF
	001535	   110 	   101 	   114 	HLFMSG:: .ASCIZ	%HALF%
	001540	   106 	   000
	006374	001535'				 .WORD	HLFMSG		; POINTER TO "HALF" SYMBOL
	006376	000404 				 .WORD	LG.MNT!LG.RPT		; LEGAL BITS
	006400	000000G				 .WORD	.SCCRH		; ROUTINE TO CALL OR DATA
   7419					;
   7420	006402					COMND$	QUARTER,<LG.MNT!LG.RPT>,.SCCRQ,QTR
	001542	   121 	   125 	   101 	QTRMSG:: .ASCIZ	%QUARTER%
	001545	   122 	   124 	   105
	001550	   122 	   000
	006402	001542'				 .WORD	QTRMSG		; POINTER TO "QUARTER" SYMBOL
	006404	000404 				 .WORD	LG.MNT!LG.RPT		; LEGAL BITS
	006406	000000G				 .WORD	.SCCRQ		; ROUTINE TO CALL OR DATA
   7421					;
   7422	006410					COMND$	SLOW,<LG.MNT!LG.RPT>,.SCCRS,SLO
	001552	   123 	   114 	   117 	SLOMSG:: .ASCIZ	%SLOW%
	001555	   127 	   000
	006410	001552'				 .WORD	SLOMSG		; POINTER TO "SLOW" SYMBOL
	006412	000404 				 .WORD	LG.MNT!LG.RPT		; LEGAL BITS
	006414	000000G				 .WORD	.SCCRS		; ROUTINE TO CALL OR DATA
   7423					;
   7424	006416	000000 				.WORD	0		; END OF TABLE MARKER
TABLE -- COMMAND PARSER COMMAND	MACRO M1113  03-APR-86 22:51  PAGE 186
.SCMTB -- THE "SET / CLEAR MEMORY" COMMAND TABLE 7603.18

   7426					.SBTTL	.SCMTB -- THE "SET / CLEAR MEMORY" COMMAND TABLE 7603.18
   7427
   7428	006420				.SCMTB::
   7429	006420					COMND$	ELEVEN,LG.OPR,.SCMEL,ELE
	006420	000776'				 .WORD	ELEMSG		; POINTER TO "ELEVEN" SYMBOL
	006422	000001 				 .WORD	LG.OPR		; LEGAL BITS
	006424	000000G				 .WORD	.SCMEL		; ROUTINE TO CALL OR DATA
   7430					;
   7431	006426					COMND$	TEN,LG.OPR,.SCMKL,TEN
	006426	001005'				 .WORD	TENMSG		; POINTER TO "TEN" SYMBOL
	006430	000001 				 .WORD	LG.OPR		; LEGAL BITS
	006432	000000G				 .WORD	.SCMKL		; ROUTINE TO CALL OR DATA
   7432					;
   7433	006434	000000 				.WORD	0		; END OF TABLE MARKER
TABLE -- COMMAND PARSER COMMAND	MACRO M1113  03-APR-86 22:51  PAGE 187
.SCCOT -- THE "SET CONSOLE" COMMAND TABLE 7602.12

   7435					.SBTTL	.SCCOT -- THE "SET CONSOLE" COMMAND TABLE 7602.12
   7436
   7437	006436				.SCCOT::
   7438	006436					COMND$	MAINTENANCE,LG.OPR,.SCCOM,MNT
	006436	001170'				 .WORD	MNTMSG		; POINTER TO "MAINTENANCE" SYMBOL
	006440	000001 				 .WORD	LG.OPR		; LEGAL BITS
	006442	000000G				 .WORD	.SCCOM		; ROUTINE TO CALL OR DATA
   7439					;
   7440	006444					COMND$	OPERATOR,LG.OPR,.SCCOO,OPR
	006444	001204'				 .WORD	OPRMSG		; POINTER TO "OPERATOR" SYMBOL
	006446	000001 				 .WORD	LG.OPR		; LEGAL BITS
	006450	000000G				 .WORD	.SCCOO		; ROUTINE TO CALL OR DATA
   7441					;
   7442	006452					COMND$	PROGRAMMER,LG.OPR,.SCCOP,PRG
	006452	001215'				 .WORD	PRGMSG		; POINTER TO "PROGRAMMER" SYMBOL
	006454	000001 				 .WORD	LG.OPR		; LEGAL BITS
	006456	000000G				 .WORD	.SCCOP		; ROUTINE TO CALL OR DATA
   7443					;
   7444	006460					COMND$	USER,LG.OPR,.SCCOU,USR
	006460	001237'				 .WORD	USRMSG		; POINTER TO "USER" SYMBOL
	006462	000001 				 .WORD	LG.OPR		; LEGAL BITS
	006464	000000G				 .WORD	.SCCOU		; ROUTINE TO CALL OR DATA
   7445					;
   7446	006466	000000 				.WORD	0		; END OF TABLE MARKER
TABLE -- COMMAND PARSER COMMAND	MACRO M1113  03-APR-86 22:51  PAGE 188
.SCOTT -- THE "SET OUTPUT" COMMAND TABLE

   7448					.SBTTL	.SCOTT -- THE "SET OUTPUT" COMMAND TABLE
   7449
   7450	006470				.SCOTT::
   7451	006470					COMND$	LOG,LG.OPR,.SCOTL,LOG
	001557	   114 	   117 	   107 	LOGMSG:: .ASCIZ	%LOG%
	001562	   000
	006470	001557'				 .WORD	LOGMSG		; POINTER TO "LOG" SYMBOL
	006472	000001 				 .WORD	LG.OPR		; LEGAL BITS
	006474	000000G				 .WORD	.SCOTL		; ROUTINE TO CALL OR DATA
   7452					;
   7453	006476					COMND$	LPT,LG.OPR,.SCOTP,LPT
	001563	   114 	   120 	   124 	LPTMSG:: .ASCIZ	%LPT%
	001566	   000
	006476	001563'				 .WORD	LPTMSG		; POINTER TO "LPT" SYMBOL
	006500	000001 				 .WORD	LG.OPR		; LEGAL BITS
	006502	000000G				 .WORD	.SCOTP		; ROUTINE TO CALL OR DATA
   7454					;
   7455	006504					COMND$	TTY,LG.OPR,.SCOTY,TTY
	001567	   124 	   124 	   131 	TTYMSG:: .ASCIZ	%TTY%
	001572	   000
	006504	001567'				 .WORD	TTYMSG		; POINTER TO "TTY" SYMBOL
	006506	000001 				 .WORD	LG.OPR		; LEGAL BITS
	006510	000000G				 .WORD	.SCOTY		; ROUTINE TO CALL OR DATA
   7456					;
   7457	006512	000000 				.WORD	0		; END OF TABLE MARKER
TABLE -- COMMAND PARSER COMMAND	MACRO M1113  03-APR-86 22:51  PAGE 189
.SCPTB -- THE SET / CLEAR "PARITY-STOP" TABLE 7603.10

   7459					.SBTTL	.SCPTB -- THE SET / CLEAR "PARITY-STOP" TABLE 7603.10
   7460
   7461	006514				.SCPTB::
   7462	006514					COMND$	ALL,LG.MNT,.SCPAL,ALL
	006514	001414'				 .WORD	ALLMSG		; POINTER TO "ALL" SYMBOL
	006516	000004 				 .WORD	LG.MNT		; LEGAL BITS
	006520	000000G				 .WORD	.SCPAL		; ROUTINE TO CALL OR DATA
   7463					;
   7464	006522					COMND$	AR,LG.MNT,.SCPAR,AR
	006522	000773'				 .WORD	ARMSG		; POINTER TO "AR" SYMBOL
	006524	000004 				 .WORD	LG.MNT		; LEGAL BITS
	006526	000000G				 .WORD	.SCPAR		; ROUTINE TO CALL OR DATA
   7465					;
   7466	006530					COMND$	CRAM,LG.MNT,.SCPCR,CRM
	006530	001450'				 .WORD	CRMMSG		; POINTER TO "CRAM" SYMBOL
	006532	000004 				 .WORD	LG.MNT		; LEGAL BITS
	006534	000000G				 .WORD	.SCPCR		; ROUTINE TO CALL OR DATA
   7467					;
   7468	006536					COMND$	DRAM,LG.MNT,.SCPDR,DRM
	001573	   104 	   122 	   101 	DRMMSG:: .ASCIZ	%DRAM%
	001576	   115 	   000
	006536	001573'				 .WORD	DRMMSG		; POINTER TO "DRAM" SYMBOL
	006540	000004 				 .WORD	LG.MNT		; LEGAL BITS
	006542	000000G				 .WORD	.SCPDR		; ROUTINE TO CALL OR DATA
   7469					;
   7470	006544					COMND$	ENABLE,LG.MNT,.SCPEN,ENB
	001600	   105 	   116 	   101 	ENBMSG:: .ASCIZ	%ENABLE%
	001603	   102 	   114 	   105
	001606	   000
	006544	001600'				 .WORD	ENBMSG		; POINTER TO "ENABLE" SYMBOL
	006546	000004 				 .WORD	LG.MNT		; LEGAL BITS
	006550	000000G				 .WORD	.SCPEN		; ROUTINE TO CALL OR DATA
   7471					;
   7472	006552					COMND$	FM,LG.MNT,.SCPFM,FM
	006552	001040'				 .WORD	FMMSG		; POINTER TO "FM" SYMBOL
	006554	000004 				 .WORD	LG.MNT		; LEGAL BITS
	006556	000000G				 .WORD	.SCPFM		; ROUTINE TO CALL OR DATA
   7473					;
   7474	006560					COMND$	FS-STOP,LG.MNT,.SCPFS,FSS
	001607	   106 	   123 	   055 	FSSMSG:: .ASCIZ	%FS-STOP%
	001612	   123 	   124 	   117
	001615	   120 	   000
	006560	001607'				 .WORD	FSSMSG		; POINTER TO "FS-STOP" SYMBOL
	006562	000004 				 .WORD	LG.MNT		; LEGAL BITS
	006564	000000G				 .WORD	.SCPFS		; ROUTINE TO CALL OR DATA
   7475					;
   7476	006566	000000 				.WORD	0		; END OF TABLE MARKER
TABLE -- COMMAND PARSER COMMAND	MACRO M1113  03-APR-86 22:51  PAGE 190
.SETTB -- THE SET / CLEAR COMMAND TABLE 7703.25

   7478					.SBTTL	.SETTB -- THE SET / CLEAR COMMAND TABLE 7703.25
   7479
   7480	006570				.SETTB::
   7481	006570					COMND$	AC-BLOCK,<LG.MNT>,.SCACB,ACB
	006570	001372'				 .WORD	ACBMSG		; POINTER TO "AC-BLOCK" SYMBOL
	006572	000004 				 .WORD	LG.MNT		; LEGAL BITS
	006574	000000G				 .WORD	.SCACB		; ROUTINE TO CALL OR DATA
   7482					;
   7483	006576					COMND$	CLOCK,<LG.MNT!LG.RPT>,.SCCLK,CLK
	001617	   103 	   114 	   117 	CLKMSG:: .ASCIZ	%CLOCK%
	001622	   103 	   113 	   000
	006576	001617'				 .WORD	CLKMSG		; POINTER TO "CLOCK" SYMBOL
	006600	000404 				 .WORD	LG.MNT!LG.RPT		; LEGAL BITS
	006602	000000G				 .WORD	.SCCLK		; ROUTINE TO CALL OR DATA
   7484					;
   7485	006604					COMND$	CONSOLE,LG.OPR,.SCCON,CON
	001625	   103 	   117 	   116 	CONMSG:: .ASCIZ	%CONSOLE%
	001630	   123 	   117 	   114
	001633	   105 	   000
	006604	001625'				 .WORD	CONMSG		; POINTER TO "CONSOLE" SYMBOL
	006606	000001 				 .WORD	LG.OPR		; LEGAL BITS
	006610	000000G				 .WORD	.SCCON		; ROUTINE TO CALL OR DATA
   7486					;
   7487	006612					COMND$	DATE,LG.PRG,.SCDAT,DAT
	001635	   104 	   101 	   124 	DATMSG:: .ASCIZ	%DATE%
	001640	   105 	   000
	006612	001635'				 .WORD	DATMSG		; POINTER TO "DATE" SYMBOL
	006614	000002 				 .WORD	LG.PRG		; LEGAL BITS
	006616	000000G				 .WORD	.SCDAT		; ROUTINE TO CALL OR DATA
   7488					;
   7489	006620					COMND$	FAULT-CONTINUE,LG.PRG,.SFREC,FLT
	001642	   106 	   101 	   125 	FLTMSG:: .ASCIZ	%FAULT-CONTINUE%
	001645	   114 	   124 	   055
	001650	   103 	   117 	   116
	001653	   124 	   111 	   116
	001656	   125 	   105 	   000
	006620	001642'				 .WORD	FLTMSG		; POINTER TO "FAULT-CONTINUE" SYMBOL
	006622	000002 				 .WORD	LG.PRG		; LEGAL BITS
	006624	000000G				 .WORD	.SFREC		; ROUTINE TO CALL OR DATA
   7490					;
   7491	006626					COMND$	FS-STOP,<LG.MNT!LG.RPT>,.SCFSS,FSS
	006626	001607'				 .WORD	FSSMSG		; POINTER TO "FS-STOP" SYMBOL
	006630	000404 				 .WORD	LG.MNT!LG.RPT		; LEGAL BITS
	006632	000000G				 .WORD	.SCFSS		; ROUTINE TO CALL OR DATA
   7492					;
   7493	006634					COMND$	INCREMENT,LG.OPR,.SCINC,INC
	006634	000736'				 .WORD	INCMSG		; POINTER TO "INCREMENT" SYMBOL
	006636	000001 				 .WORD	LG.OPR		; LEGAL BITS
	006640	000000G				 .WORD	.SCINC		; ROUTINE TO CALL OR DATA
   7494					;
   7495	006642					COMND$	KLINIK,LG.ALL,.SCKLN,KLI
	001661	   113 	   114 	   111 	KLIMSG:: .ASCIZ	%KLINIK%
	001664	   116 	   111 	   113
	001667	   000
	006642	001661'				 .WORD	KLIMSG		; POINTER TO "KLINIK" SYMBOL
	006644	000007 				 .WORD	LG.ALL		; LEGAL BITS
	006646	000000G				 .WORD	.SCKLN		; ROUTINE TO CALL OR DATA
TABLE -- COMMAND PARSER COMMAND	MACRO M1113  03-APR-86 22:51  PAGE 190-1
.SETTB -- THE SET / CLEAR COMMAND TABLE 7703.25

   7496					;
   7497	006650					COMND$	MEMORY,LG.OPR,.SCMEM,MEM
	001670	   115 	   105 	   115 	MEMMSG:: .ASCIZ	%MEMORY%
	001673	   117 	   122 	   131
	001676	   000
	006650	001670'				 .WORD	MEMMSG		; POINTER TO "MEMORY" SYMBOL
	006652	000001 				 .WORD	LG.OPR		; LEGAL BITS
	006654	000000G				 .WORD	.SCMEM		; ROUTINE TO CALL OR DATA
   7498					;
   7499	006656					COMND$	NOT,<LG.OPR!LG.RPT>,.SCNOT,NOT
	001677	   116 	   117 	   124 	NOTMSG:: .ASCIZ	%NOT%
	001702	   000
	006656	001677'				 .WORD	NOTMSG		; POINTER TO "NOT" SYMBOL
	006660	000401 				 .WORD	LG.OPR!LG.RPT		; LEGAL BITS
	006662	000000G				 .WORD	.SCNOT		; ROUTINE TO CALL OR DATA
   7500					;
   7501	006664					COMND$	OFFSET,LG.PRG,.SCOFS,OFS
	001703	   117 	   106 	   106 	OFSMSG:: .ASCIZ	%OFFSET%
	001706	   123 	   105 	   124
	001711	   000
	006664	001703'				 .WORD	OFSMSG		; POINTER TO "OFFSET" SYMBOL
	006666	000002 				 .WORD	LG.PRG		; LEGAL BITS
	006670	000000G				 .WORD	.SCOFS		; ROUTINE TO CALL OR DATA
   7502					;
   7503	006672					COMND$	OUTPUT,LG.OPR,.SCOUT,OUT
	001712	   117 	   125 	   124 	OUTMSG:: .ASCIZ	%OUTPUT%
	001715	   120 	   125 	   124
	001720	   000
	006672	001712'				 .WORD	OUTMSG		; POINTER TO "OUTPUT" SYMBOL
	006674	000001 				 .WORD	LG.OPR		; LEGAL BITS
	006676	000000G				 .WORD	.SCOUT		; ROUTINE TO CALL OR DATA
   7504					;
   7505	006700					COMND$	PARITY-STOP,<LG.MNT!LG.RPT>,.SCPST,PST
	001721	   120 	   101 	   122 	PSTMSG:: .ASCIZ	%PARITY-STOP%
	001724	   111 	   124 	   131
	001727	   055 	   123 	   124
	001732	   117 	   120 	   000
	006700	001721'				 .WORD	PSTMSG		; POINTER TO "PARITY-STOP" SYMBOL
	006702	000404 				 .WORD	LG.MNT!LG.RPT		; LEGAL BITS
	006704	000000G				 .WORD	.SCPST		; ROUTINE TO CALL OR DATA
   7506					;
   7507	006706					COMND$	RELOAD,LG.PRG,.SCRLD,RLD
	001735	   122 	   105 	   114 	RLDMSG:: .ASCIZ	%RELOAD%
	001740	   117 	   101 	   104
	001743	   000
	006706	001735'				 .WORD	RLDMSG		; POINTER TO "RELOAD" SYMBOL
	006710	000002 				 .WORD	LG.PRG		; LEGAL BITS
	006712	000000G				 .WORD	.SCRLD		; ROUTINE TO CALL OR DATA
   7508					;
   7509	006714					COMND$	REPEAT,LG.OPR,.SCRPT,RPT
	006714	000543'				 .WORD	RPTMSG		; POINTER TO "REPEAT" SYMBOL
	006716	000001 				 .WORD	LG.OPR		; LEGAL BITS
	006720	000000G				 .WORD	.SCRPT		; ROUTINE TO CALL OR DATA
   7510					;
   7511	006722					COMND$	RETRY,<LG.PRG!LG.MNT>,.SCRTY,RTY
	001744	   122 	   105 	   124 	RTYMSG:: .ASCIZ	%RETRY%
	001747	   122 	   131 	   000
TABLE -- COMMAND PARSER COMMAND	MACRO M1113  03-APR-86 22:51  PAGE 190-2
.SETTB -- THE SET / CLEAR COMMAND TABLE 7703.25

	006722	001744'				 .WORD	RTYMSG		; POINTER TO "RETRY" SYMBOL
	006724	000006 				 .WORD	LG.PRG!LG.MNT		; LEGAL BITS
	006726	000000G				 .WORD	.SCRTY		; ROUTINE TO CALL OR DATA
   7512					;
   7514	006730					COMND$	TRACKS,LG.PRG,.SCTRK,TRK
	001752	   124 	   122 	   101 	TRKMSG:: .ASCIZ	%TRACKS%
	001755	   103 	   113 	   123
	001760	   000
	006730	001752'				 .WORD	TRKMSG		; POINTER TO "TRACKS" SYMBOL
	006732	000002 				 .WORD	LG.PRG		; LEGAL BITS
	006734	000000G				 .WORD	.SCTRK		; ROUTINE TO CALL OR DATA
   7515					;
   7517	006736	000000 				.WORD	0		; END OF TABLE MARKER
TABLE -- COMMAND PARSER COMMAND	MACRO M1113  03-APR-86 22:51  PAGE 191
.SPETB -- SPECIAL ERROR CODE TABLE 7702.16

   7519					.SBTTL	.SPETB -- SPECIAL ERROR CODE TABLE 7702.16
   7520
   7521	006740				.SPETB::
   7522	006740					SPERR$	AMB,<AMBIGUOUS KEYWORD ">
	003670	   101 	   115 	   102 		 .ASCIZ	%AMB - AMBIGUOUS KEYWORD "%
	003673	   040 	   055 	   040
	003676	   101 	   115 	   102
	003701	   111 	   107 	   125
	003704	   117 	   125 	   123
	003707	   040 	   113 	   105
	003712	   131 	   127 	   117
	003715	   122 	   104 	   040
	003720	   042 	   000
	006740	004112 				 .RAD50	/AMB/		; "AMB" IN .RAD50
	006742	000520'				 .WORD	.SEAMB		; DISPATCH TO HANDLER
	006744	003670'				 .WORD	AMBERM		; POINTER TO MESSAGE
   7523						;
   7524	006746					SPERR$	CES,<CLOCK ERROR STOP - >
	003722	   103 	   105 	   123 		 .ASCIZ	%CES - CLOCK ERROR STOP - %
	003725	   040 	   055 	   040
	003730	   103 	   114 	   117
	003733	   103 	   113 	   040
	003736	   105 	   122 	   122
	003741	   117 	   122 	   040
	003744	   123 	   124 	   117
	003747	   120 	   040 	   055
	003752	   040 	   000
	006746	011633 				 .RAD50	/CES/		; "CES" IN .RAD50
	006750	000756'				 .WORD	.SECES		; DISPATCH TO HANDLER
	006752	003722'				 .WORD	CESERM		; POINTER TO MESSAGE
   7525						;
   7526	006754					SPERR$	FRF,<FUNCTION READ >
	003754	   106 	   122 	   106 		 .ASCIZ	%FRF - FUNCTION READ %
	003757	   040 	   055 	   040
	003762	   106 	   125 	   116
	003765	   103 	   124 	   111
	003770	   117 	   116 	   040
	003773	   122 	   105 	   101
	003776	   104 	   040 	   000
	006754	024126 				 .RAD50	/FRF/		; "FRF" IN .RAD50
	006756	000606'				 .WORD	.SEFRF		; DISPATCH TO HANDLER
	006760	003754'				 .WORD	FRFERM		; POINTER TO MESSAGE
   7527	006762					SPERR$	FWF,<FUNCTION WRITE >
	004001	   106 	   127 	   106 		 .ASCIZ	%FWF - FUNCTION WRITE %
	004004	   040 	   055 	   040
	004007	   106 	   125 	   116
	004012	   103 	   124 	   111
	004015	   117 	   116 	   040
	004020	   127 	   122 	   111
	004023	   124 	   105 	   040
	004026	   000
	006762	024436 				 .RAD50	/FWF/		; "FWF" IN .RAD50
	006764	000614'				 .WORD	.SEFWF		; DISPATCH TO HANDLER
	006766	004001'				 .WORD	FWFERM		; POINTER TO MESSAGE
   7528	006770					SPERR$	FXF,<FUNCTION EXECUTE >
	004027	   106 	   130 	   106 		 .ASCIZ	%FXF - FUNCTION EXECUTE %
	004032	   040 	   055 	   040
TABLE -- COMMAND PARSER COMMAND	MACRO M1113  03-APR-86 22:51  PAGE 191-1
.SPETB -- SPECIAL ERROR CODE TABLE 7702.16

	004035	   106 	   125 	   116
	004040	   103 	   124 	   111
	004043	   117 	   116 	   040
	004046	   105 	   130 	   105
	004051	   103 	   125 	   124
	004054	   105 	   040 	   000
	006770	024506 				 .RAD50	/FXF/		; "FXF" IN .RAD50
	006772	000622'				 .WORD	.SEFXF		; DISPATCH TO HANDLER
	006774	004027'				 .WORD	FXFERM		; POINTER TO MESSAGE
   7529						;
   7530	006776					SPERR$	ILC,<ILLEGAL CHARACTER ">
	004057	   111 	   114 	   103 		 .ASCIZ	%ILC - ILLEGAL CHARACTER "%
	004062	   040 	   055 	   040
	004065	   111 	   114 	   114
	004070	   105 	   107 	   101
	004073	   114 	   040 	   103
	004076	   110 	   101 	   122
	004101	   101 	   103 	   124
	004104	   105 	   122 	   040
	004107	   042 	   000
	006776	035043 				 .RAD50	/ILC/		; "ILC" IN .RAD50
	007000	000544'				 .WORD	.SEILC		; DISPATCH TO HANDLER
	007002	004057'				 .WORD	ILCERM		; POINTER TO MESSAGE
   7531	007004					SPERR$	ILS,<ILLEGAL SEPARATOR CHARACTER ">
	004111	   111 	   114 	   123 		 .ASCIZ	%ILS - ILLEGAL SEPARATOR CHARACTER "%
	004114	   040 	   055 	   040
	004117	   111 	   114 	   114
	004122	   105 	   107 	   101
	004125	   114 	   040 	   123
	004130	   105 	   120 	   101
	004133	   122 	   101 	   124
	004136	   117 	   122 	   040
	004141	   103 	   110 	   101
	004144	   122 	   101 	   103
	004147	   124 	   105 	   122
	004152	   040 	   042 	   000
	007004	035063 				 .RAD50	/ILS/		; "ILS" IN .RAD50
	007006	000544'				 .WORD	.SEILS		; DISPATCH TO HANDLER
	007010	004111'				 .WORD	ILSERM		; POINTER TO MESSAGE
   7532	007012					SPERR$	IPC,<ILLEGAL PASSWORD CHARACTER ">
	004155	   111 	   120 	   103 		 .ASCIZ	%IPC - ILLEGAL PASSWORD CHARACTER "%
	004160	   040 	   055 	   040
	004163	   111 	   114 	   114
	004166	   105 	   107 	   101
	004171	   114 	   040 	   120
	004174	   101 	   123 	   123
	004177	   127 	   117 	   122
	004202	   104 	   040 	   103
	004205	   110 	   101 	   122
	004210	   101 	   103 	   124
	004213	   105 	   122 	   040
	004216	   042 	   000
	007012	035303 				 .RAD50	/IPC/		; "IPC" IN .RAD50
	007014	000544'				 .WORD	.SEIPC		; DISPATCH TO HANDLER
	007016	004155'				 .WORD	IPCERM		; POINTER TO MESSAGE
   7533						;
   7534	007020					SPERR$	NSK,<NO SUCH KEYWORD ">
TABLE -- COMMAND PARSER COMMAND	MACRO M1113  03-APR-86 22:51  PAGE 191-2
.SPETB -- SPECIAL ERROR CODE TABLE 7702.16

	004220	   116 	   123 	   113 		 .ASCIZ	%NSK - NO SUCH KEYWORD "%
	004223	   040 	   055 	   040
	004226	   116 	   117 	   040
	004231	   123 	   125 	   103
	004234	   110 	   040 	   113
	004237	   105 	   131 	   127
	004242	   117 	   122 	   104
	004245	   040 	   042 	   000
	007020	055203 				 .RAD50	/NSK/		; "NSK" IN .RAD50
	007022	000520'				 .WORD	.SENSK		; DISPATCH TO HANDLER
	007024	004220'				 .WORD	NSKERM		; POINTER TO MESSAGE
   7535						;
   7536	007026	000000 				.WORD	0		; END OF TABLE MARKER
TABLE -- COMMAND PARSER COMMAND	MACRO M1113  03-APR-86 22:51  PAGE 192
.STRTB -- THE START COMMAND TABLE 7602.26

   7538					.SBTTL	.STRTB -- THE START COMMAND TABLE 7602.26
   7539
   7540	007030				.STRTB::
   7541	007030					COMND$	TEN,<LG.PRG!LG.RPT>,.STRTT,TEN
	007030	001005'				 .WORD	TENMSG		; POINTER TO "TEN" SYMBOL
	007032	000402 				 .WORD	LG.PRG!LG.RPT		; LEGAL BITS
	007034	000000G				 .WORD	.STRTT		; ROUTINE TO CALL OR DATA
   7542					;
   7543	007036					COMND$	MICROCODE,<LG.PRG!LG.RPT>,.STRTU,UCD
	001761	   115 	   111 	   103 	UCDMSG:: .ASCIZ	%MICROCODE%
	001764	   122 	   117 	   103
	001767	   117 	   104 	   105
	001772	   000
	007036	001761'				 .WORD	UCDMSG		; POINTER TO "MICROCODE" SYMBOL
	007040	000402 				 .WORD	LG.PRG!LG.RPT		; LEGAL BITS
	007042	000000G				 .WORD	.STRTU		; ROUTINE TO CALL OR DATA
   7544					;
   7545	007044	000000 				.WORD	0		; END OF TABLE MARKER
TABLE -- COMMAND PARSER COMMAND	MACRO M1113  03-APR-86 22:51  PAGE 193
.WHATB -- THE WHAT COMMAND TABLE 7703.25

   7547					.SBTTL	.WHATB -- THE WHAT COMMAND TABLE 7703.25
   7548
   7549	007046				.WHATB::
   7550	007046					COMND$	AC-BLOCK,<LG.MNT>,.WHACB,ACB
	007046	001372'				 .WORD	ACBMSG		; POINTER TO "AC-BLOCK" SYMBOL
	007050	000004 				 .WORD	LG.MNT		; LEGAL BITS
	007052	000000G				 .WORD	.WHACB		; ROUTINE TO CALL OR DATA
   7551					;
   7552	007054					COMND$	CLOCK,<LG.PRG!LG.RPT>,.WHTCL,CLK
	007054	001617'				 .WORD	CLKMSG		; POINTER TO "CLOCK" SYMBOL
	007056	000402 				 .WORD	LG.PRG!LG.RPT		; LEGAL BITS
	007060	000000G				 .WORD	.WHTCL		; ROUTINE TO CALL OR DATA
   7553					;
   7554	007062					COMND$	CONSOLE,LG.OPR,.WHCON,CON
	007062	001625'				 .WORD	CONMSG		; POINTER TO "CONSOLE" SYMBOL
	007064	000001 				 .WORD	LG.OPR		; LEGAL BITS
	007066	000000G				 .WORD	.WHCON		; ROUTINE TO CALL OR DATA
   7555					;
   7556	007070					COMND$	DATE,<LG.ALL!LG.RPT>,.WHDAT,DAT
	007070	001635'				 .WORD	DATMSG		; POINTER TO "DATE" SYMBOL
	007072	000407 				 .WORD	LG.ALL!LG.RPT		; LEGAL BITS
	007074	000000G				 .WORD	.WHDAT		; ROUTINE TO CALL OR DATA
   7557					;
   7558	007076					COMND$	FAULT-CONTINUE,LG.ALL,.WHREC,FLT
	007076	001642'				 .WORD	FLTMSG		; POINTER TO "FAULT-CONTINUE" SYMBOL
	007100	000007 				 .WORD	LG.ALL		; LEGAL BITS
	007102	000000G				 .WORD	.WHREC		; ROUTINE TO CALL OR DATA
   7559					;
   7560	007104					COMND$	HARDWARE,LG.OPR,.WHRDW,HAR
	001773	   110 	   101 	   122 	HARMSG:: .ASCIZ	%HARDWARE%
	001776	   104 	   127 	   101
	002001	   122 	   105 	   000
	007104	001773'				 .WORD	HARMSG		; POINTER TO "HARDWARE" SYMBOL
	007106	000001 				 .WORD	LG.OPR		; LEGAL BITS
	007110	000000G				 .WORD	.WHRDW		; ROUTINE TO CALL OR DATA
   7561					;
   7562	007112					COMND$	INCREMENT,LG.OPR,.WHINC,INC
	007112	000736'				 .WORD	INCMSG		; POINTER TO "INCREMENT" SYMBOL
	007114	000001 				 .WORD	LG.OPR		; LEGAL BITS
	007116	000000G				 .WORD	.WHINC		; ROUTINE TO CALL OR DATA
   7563					;
   7564	007120					COMND$	KLINIK,LG.ALL,.WHKLN,KLI
	007120	001661'				 .WORD	KLIMSG		; POINTER TO "KLINIK" SYMBOL
	007122	000007 				 .WORD	LG.ALL		; LEGAL BITS
	007124	000000G				 .WORD	.WHKLN		; ROUTINE TO CALL OR DATA
   7565					;
   7566	007126					COMND$	MEMORY,LG.OPR,.WHMEM,MEM
	007126	001670'				 .WORD	MEMMSG		; POINTER TO "MEMORY" SYMBOL
	007130	000001 				 .WORD	LG.OPR		; LEGAL BITS
	007132	000000G				 .WORD	.WHMEM		; ROUTINE TO CALL OR DATA
   7567					;
   7568	007134					COMND$	OFFSET,LG.PRG,.WHOFS,OFS
	007134	001703'				 .WORD	OFSMSG		; POINTER TO "OFFSET" SYMBOL
	007136	000002 				 .WORD	LG.PRG		; LEGAL BITS
	007140	000000G				 .WORD	.WHOFS		; ROUTINE TO CALL OR DATA
   7569					;
   7570	007142					COMND$	OUTPUT,LG.OPR,.WHOUT,OUT
TABLE -- COMMAND PARSER COMMAND	MACRO M1113  03-APR-86 22:51  PAGE 193-1
.WHATB -- THE WHAT COMMAND TABLE 7703.25

	007142	001712'				 .WORD	OUTMSG		; POINTER TO "OUTPUT" SYMBOL
	007144	000001 				 .WORD	LG.OPR		; LEGAL BITS
	007146	000000G				 .WORD	.WHOUT		; ROUTINE TO CALL OR DATA
   7571					;
   7572	007150					COMND$	PARITY-STOP,<LG.PRG!LG.RPT>,.WHTPS,PST
	007150	001721'				 .WORD	PSTMSG		; POINTER TO "PARITY-STOP" SYMBOL
	007152	000402 				 .WORD	LG.PRG!LG.RPT		; LEGAL BITS
	007154	000000G				 .WORD	.WHTPS		; ROUTINE TO CALL OR DATA
   7573					;
   7574	007156					COMND$	RELOAD,LG.PRG,.WHRLD,RLD
	007156	001735'				 .WORD	RLDMSG		; POINTER TO "RELOAD" SYMBOL
	007160	000002 				 .WORD	LG.PRG		; LEGAL BITS
	007162	000000G				 .WORD	.WHRLD		; ROUTINE TO CALL OR DATA
   7575					;
   7576	007164					COMND$	REPEAT,LG.OPR,.WHRPT,RPT
	007164	000543'				 .WORD	RPTMSG		; POINTER TO "REPEAT" SYMBOL
	007166	000001 				 .WORD	LG.OPR		; LEGAL BITS
	007170	000000G				 .WORD	.WHRPT		; ROUTINE TO CALL OR DATA
   7577					;
   7578	007172					COMND$	RETRY,<LG.PRG!LG.MNT>,.WHRTY,RTY
	007172	001744'				 .WORD	RTYMSG		; POINTER TO "RETRY" SYMBOL
	007174	000006 				 .WORD	LG.PRG!LG.MNT		; LEGAL BITS
	007176	000000G				 .WORD	.WHRTY		; ROUTINE TO CALL OR DATA
   7579					;
   7581	007200					COMND$	TRACKS,LG.PRG,.WHTRK,TRK
	007200	001752'				 .WORD	TRKMSG		; POINTER TO "TRACKS" SYMBOL
	007202	000002 				 .WORD	LG.PRG		; LEGAL BITS
	007204	000000G				 .WORD	.WHTRK		; ROUTINE TO CALL OR DATA
   7582					;
   7584	007206					COMND$	VERSION,LG.OPR,.WHATV,VER
	002004	   126 	   105 	   122 	VERMSG:: .ASCIZ	%VERSION%
	002007	   123 	   111 	   117
	002012	   116 	   000
	007206	002004'				 .WORD	VERMSG		; POINTER TO "VERSION" SYMBOL
	007210	000001 				 .WORD	LG.OPR		; LEGAL BITS
	007212	000000G				 .WORD	.WHATV		; ROUTINE TO CALL OR DATA
   7585					;
   7586	007214	000000 				.WORD	0		; END OF TABLE MARKER
   7587	011130				.PSECT
   7588
   7589		000000 				$$PASS2=0
TABLE -- COMMAND PARSER COMMAND	MACRO M1113  03-APR-86 22:51  PAGE 195
.WHATB -- THE WHAT COMMAND TABLE 7703.25

   7592
   7593					.TITLE	TPSIM -- TRIPLE PRECISION ARITHMETIC SIMULATOR MODULE 7603.30
   7594
   7595						.IDENT	"005000"
   7596
   7597					;
   7598					;                             COPYRIGHT (C) 1975, 1984, 1985 BY
   7599					;                     DIGITAL EQUIPMENT CORPORATION, MAYNARD MASS.
   7600					;			ALL RIGHTS RESERVED.
   7601					;       THIS SOFTWARE IS FURNISHED UNDER A LICENSE AND MAY BE  USED  AND  COPIED
   7602					;       ONLY IN ACCORDANCE WITH THE TERMS OF SUCH LICENSE AND WITH THE INCLUSION
   7603					;       OF THE ABOVE COPYRIGHT NOTICE.  THIS SOFTWARE OR ANY OTHER COPIES THERE-
   7604					;       OF  MAY NOT BE PROVIDED OR OTHERWISE MADE AVAILABLE TO ANY OTHER PERSON.
   7605					;       NO TITLE TO OR OWNERSHIP OF THE SOFTWARE IS HEREBY TRANSFERRED.
   7606					;
   7607					;       THE INFORMATION CONTAINED IN THIS SOFTWARE IS SUBJECT TO CHANGE  WITHOUT
   7608					;       NOTICE  AND SHOULD NOT BE CONSTRUED AS A COMMITMENT BY DIGITAL EQUIPMENT
   7609					;       CORPORATION.
   7610					;
   7611					;       DIGITAL ASSUMES NO RESPONSIBILITY FOR THE  USE  OR  RELIABILITY  OF  ITS
   7612					;       SOFTWARE ON EQUIPMENT WHICH IS NOT SUPPILED BY DIGITAL.
   7613					;
   7614					;		MODULE: TRIPLE PRECISION ARITHMETIC SIMULATOR
   7615					;
   7616					;		VERSION: 05-00
   7617					;
   7618					;		AUTHOR: R. BELANGER
   7619					;
   7620					;		DATE: 7603.30
   7621					;
   7622					;	THIS MODULE CONTAINS:
   7623					;
   7624					;	1) TRIPLE PRECISION ARITHMETIC SIMULATOR
TPSIM -- TRIPLE PRECISION ARITH	MACRO M1113  03-APR-86 22:51  PAGE 196
.SHIFT -- 16 BIT BY 16 BIT SHIFT OPERATIONS 7603.30

   7626					.SBTTL	.SHIFT -- 16 BIT BY 16 BIT SHIFT OPERATIONS 7603.30
   7627
   7628					;+
   7629					; .SHIFT -- 16 BIT BY 16 BIT SHIFT OPERATIONS
   7630					;
   7631					; THIS SUBROUTINE SHIFTS THE NUMBER IN R0 AS SPECIFIED BY THE SHIFT
   7632					; COUNT IN R1.
   7633					;
   7634					; INPUT ARGUMENTS:
   7635					;
   7636					;	R0 HOLDS THE NUMBER TO BE SHIFTED
   7637					;	R1 HOLDS A 16 BIT SHIFT COUNT
   7638					;
   7639					; OUTPUT ARGUMENTS:
   7640					;
   7641					;	R0 HOLDS THE SHIFTED NUMBER
   7642					;	R1 HOLDS THE SHIFT COUNT
   7643					;
   7644					; ERROR CODES RETURNED:
   7645					;
   7646					;	NONE
   7647					;-
   7648
   7649	011130				.SHIFT::
   7650	011130					PUSH	R1		; SAVE R1 ON THE STACK
	011130	010146 				 MOV	R1,-(SP)
   7651	011132	001407 				BEQ	30$		; .EXIT IF .EQ. 0
   7652	011134	002403 				BLT	20$		; .SHIFT RIGHT IF NEGATIVE
   7653	011136				10$:
   7654	011136	006300 				ASL	R0		; .SHIFT IT LEFT
   7655	011140	077102 				SOB	R1,10$		; .TILL COUNT IS EXHAUSTED
   7656	011142	000403 				BR	30$		; .EXIT
   7657						;
   7658	011144				20$:
   7659	011144	006200 				ASR	R0		; .SHIFT IT RIGHT
   7660	011146	005201 				INC	R1		; .COUNT THE SHIFT
   7661	011150	001375 				BNE	20$		; .TILL COUNT EXHAUSTED
   7662	011152				30$:
   7663	011152					POP	R1		; .RESTORE R1 FROM THE STACK
	011152	012601 				 MOV	(SP)+,R1
   7664	011154	000241 				CLC			; CLEAR CC-C
   7665	011156					RETURN			; RETURN
	011156	000207 				 RTS	PC
TPSIM -- TRIPLE PRECISION ARITH	MACRO M1113  03-APR-86 22:51  PAGE 197
.TPDIV -- 48 BIT INTEGER DIVIDE SUBROUTINE 7601.19

   7667					.SBTTL	.TPDIV -- 48 BIT INTEGER DIVIDE SUBROUTINE 7601.19
   7668
   7669					;+
   7670					; .TPDIV -- 48 BIT INTEGER DIVIDE SUBROUTINE.
   7671					;
   7672					; THIS SUBROUTINE WILL DIVIDE THE 48 BIT DIVIDEND POINTED TO BY R0
   7673					; BY THE 48 BIT DIVISOR POINTED TO BY R1 IN THE CALL. ON RETURN,
   7674					; R0 POINTS TO A 48 BIT QUOTIENT, AND R2 POINTS TO A 48 BIT REMAINDER.
   7675					;
   7676					; INPUT ARGUMENTS:
   7677					;
   7678					;	R0 POINTS TO THE DIVIDEND
   7679					;	R1 POINTS TO THE DIVISOR
   7680					;
   7681					; OUTPUT ARGUMENTS:
   7682					;
   7683					;	R0 POINTS TO THE QUOTIENT
   7684					;	R1 POINTS TO THE REMAINDER
   7685					;	THE DIVISOR AND DIVIDEND ARE DESTROYED
   7686					;
   7687					; ERROR CODES RETURNED:
   7688					;
   7689					;	DCK -- DIVIDE CHECK.
   7690					;-
   7691
   7692	007216				.PSECT	DATA
   7693
   7694	007216				TPDRMN:
   7695	007216	000000 	000000 	000000 		.WORD	0,0,0	; SPACE FOR  REMAINDER
   7696	007224				TPDDVS:
   7697	007224	000000 	000000 	000000 		.WORD	0,0,0	; SPACE FOR DIVISOR
   7698	007232				TPDDVD:
   7699	007232	000000 	000000 	000000 		.WORD	0,0,0	; SPACE FOR DIVIDEND / QUOTIENT
   7700
   7701	011160				.PSECT
TPSIM -- TRIPLE PRECISION ARITH	MACRO M1113  03-APR-86 22:51  PAGE 198
.TPDIV -- 48 BIT INTEGER DIVIDE SUBROUTINE 7601.19

   7703						.ENABL	LSB
   7704
   7705	011160				.TPDIV::
   7706	011160					PUSH	<R3,R2,R1,R0>	; SAVE CALLER'S REGISTERS
	011160	010346 				 MOV	R3,-(SP)
	011162	010246 				 MOV	R2,-(SP)
	011164	010146 				 MOV	R1,-(SP)
	011166	010046 				 MOV	R0,-(SP)
   7707	011170					CALL	.TPXTN		; ....SIGN EXTEND THE DIVIDEND
	011170	004737 	011420'			 JSR	PC,.TPXTN
   7708	011174	010100 				MOV	R1,R0		; ....POINT TO THE DIVISOR
   7709	011176					CALL	.TPXTN		; ....AND SIGN EXTEND IT
	011176	004737 	011420'			 JSR	PC,.TPXTN
   7710	011202					CALL	.TPTST		; ....SEE IF IT IS ZERO OR NEGATIVE
	011202	004737 	011474'			 JSR	PC,.TPTST
   7711	011206	003466 				BLE	TPDDCK		; ....YES -- GIVE "DCK" ERROR
   7712	011210	011600 				MOV	(SP),R0		; ....NO -- RESTORE DIVIDEND POINTER
   7713	011212	012703 	000060 			MOV	#^D48,R3	; ....ITERATION COUNT TO R3
   7714	011216	012702 	007216'			MOV	#TPDRMN,R2	; ....DATA BLOCK POINTER TO R2
   7715	011222	005022 				CLR	(R2)+		; ....CLEAR THE REMAINDER
   7716	011224	005022 				CLR	(R2)+		; ....
   7717	011226	005022 				CLR	(R2)+		; ....
   7718	011230	012122 				MOV	(R1)+,(R2)+	; ....LOAD THE DIVISOR
   7719	011232	012122 				MOV	(R1)+,(R2)+	; ....
   7720	011234	012122 				MOV	(R1)+,(R2)+	; ....
   7721	011236	012022 				MOV	(R0)+,(R2)+	; ....LOAD THE DIVIDEND
   7722	011240	012022 				MOV	(R0)+,(R2)+	; ....
   7723	011242	012022 				MOV	(R0)+,(R2)+	; ....
   7724	011244	012700 	007216'			MOV	#TPDRMN,R0	; ....REMAINDER POINTER TO R0
   7725	011250	012701 	007224'			MOV	#TPDDVS,R1	; ....DIVISOR POINTER TO R1
   7726	011254	012702 	007232'			MOV	#TPDDVD,R2	; ....DIVIDEND POINTER TO R2
   7727
   7728					;	[CONTINUED ON THE FOLLOWING PAGE]
TPSIM -- TRIPLE PRECISION ARITH	MACRO M1113  03-APR-86 22:51  PAGE 199
.TPDIV -- 48 BIT INTEGER DIVIDE SUBROUTINE 7601.19

   7730					;	[CONTINUED FROM THE PREVIOUS PAGE]
   7731
   7732	011260				10$:
   7733	011260	006312 				ASL	(R2)		; ....SHIFT THE DIVIDEND LEFT
   7734	011262	006162 	000002 			ROL	2(R2)		; ....
   7735	011266	006162 	000004 			ROL	4(R2)		; ....
   7736	011272	006110 				ROL	(R0)		; ....INTO THE REMAINDER
   7737	011274	006160 	000002 			ROL	2(R0)		; ....
   7738	011300	006160 	000004 			ROL	4(R0)		; ....
   7739	011304					CALL	.TPCMP		; ....SEE IF REMAINDER IS .GE. DIVISOR
	011304	004737 	011440'			 JSR	PC,.TPCMP
   7740	011310	103407 				BLO	20$		; ....NO -- JUST KEEP GOING
   7741	011312					CALL	.TPSUB		; ....YES -- SUBTRACT DIVISOR FROM REMAINDER
	011312	004737 	011562'			 JSR	PC,.TPSUB
   7742	011316					PUSH	R0		; ....SAVE REMAINDER POINTER
	011316	010046 				 MOV	R0,-(SP)
   7743	011320	010200 				MOV	R2,R0		; .....QUOTIENT POINTER TO R0
   7744	011322					CALL	.TPINC		; .....INCREMENT THE QUOTIENT
	011322	004737 	011536'			 JSR	PC,.TPINC
   7745	011326					POP	R0		; .....RESTORE REMAINDER POINTER
	011326	012600 				 MOV	(SP)+,R0
   7746	011330				20$:
   7747	011330	077325 				SOB	R3,10$		; ....LOOP TILL COUNT IS EXHAUSTED
   7748	011332					POP	<R0,R1>		; ....GET R0 AND R1 FROM THE STACK
	011332	012600 				 MOV	(SP)+,R0
	011334	012601 				 MOV	(SP)+,R1
   7749	011336	012220 				MOV	(R2)+,(R0)+	; ..UNLOAD THE QUOTIENT
   7750	011340	012220 				MOV	(R2)+,(R0)+	; ..
   7751	011342	011210 				MOV	(R2),(R0)	; ..
   7752	011344	012702 	007216'			MOV	#TPDRMN,R2	; ..POINT TO THE REMAINDER
   7753	011350	012221 				MOV	(R2)+,(R1)+	; ..UNLOAD THE REMAINDER
   7754	011352	012221 				MOV	(R2)+,(R1)+	; ..
   7755	011354	011211 				MOV	(R2),(R1)	; ..
   7756	011356					POP	<R2,R3>		; ..RESTORE OTHER REGISTERS
	011356	012602 				 MOV	(SP)+,R2
	011360	012603 				 MOV	(SP)+,R3
   7757	011362	000506 				BR	50$		; AND GO AWAY
   7758						;
   7759	011364				TPDDCK:
   7760	011364					ERROR$	DCK		; ERROR -- DIVIDE CHECK
	011364	012746 	014603 			 MOV	#^RDCK,-(SP)
	011370	104400 				 TRAP	TC.ERR
   7761						;
TPSIM -- TRIPLE PRECISION ARITH	MACRO M1113  03-APR-86 22:51  PAGE 200
.TPCLR -- SUBROUTINE TO CLEAR A 48 BIT NUMBER 7601.19

   7763					.SBTTL	.TPCLR -- SUBROUTINE TO CLEAR A 48 BIT NUMBER 7601.19
   7764
   7765					;+
   7766					; .TPCLR -- SUBROUTINE TO CLEAR A 48 BIT NUMBER
   7767					; .TPCOM -- SUBROUTINE TO COMPLEMENT A 48 BIT NUMBER.
   7768					; .TPNEG -- SUBROUTINE TO NEGATE A 48 BIT NUMBER.
   7769					; .TPXTN -- SUBROUTINE TO SIGN EXTEND A 36 BIT NUMBER INTO A 48 BIT NUMBER
   7770					;
   7771					; THESE SUBROUTINE PERFORM THE FUNCTIONS INDICATED. ALL SUBROUTINES
   7772					; ACCEPT A DESTINATION POINTER IN R0. ALL SUBROUTINES
   7773					; RETURN THE POINTER UNALTERED. NO OTHER REGISTERS ARE ALTERED
   7774					; BY THESE ROUTINES.
   7775					;
   7776					; INPUT ARGUMENTS:
   7777					;
   7778					;	R0 POINTS TO THE DESTINATION OPERAND
   7779					;
   7780					; OUTPUT ARGUMENTS:
   7781					;
   7782					;	R0 POINTS TO THE DESINATION OPERAND
   7783					;
   7784					; ERROR CODES RETURNED:
   7785					;
   7786					;	NONE.
   7787					;-
   7788
   7789	011372				.TPCLR::			; CLEAR A 48 BIT WORD
   7790	011372	005020 				CLR	(R0)+		; SO
   7791	011374	005020 				CLR	(R0)+
   7792	011376	005010 				CLR	(R0)
   7793	011400	000500 				BR	60$		; RESET R0 AND RETURN
   7794						;
   7795
   7796	011402				.TPCOM::			; COMPLEMENT A 48 BIT NUMBER
   7797	011402	005120 				COM	(R0)+		; COMPLEMENT
   7798	011404	005120 				COM	(R0)+		; EACH WORD
   7799	011406	005110 				COM	(R0)		; IN THE TRIPLET
   7800	011410	000474 				BR	60$		; RESET R0 AND RETURN
   7801						;
   7802
   7803	011412				.TPNEG::			; NEGATE A 48 BIT NUMBER
   7804	011412					CALL	.TPCOM		; FIRST COMPLEMENT THE NUMBER
	011412	004737 	011402'			 JSR	PC,.TPCOM
   7805	011416	000447 				BR	.TPINC		; -0 + NOT(0)+1 AND RETURN
   7806						;
   7807
   7808	011420				.TPXTN::
   7809	011420	032760 	000010 	000004 		BIT	#10,4(R0)	; TEST THE SIGN BIT
   7810	011426	001466 				BEQ	70$		; EXIT IF POSITIVE
   7811	011430	052760 	177760 	000004 		BIS	#^C17,4(R0)	; SIGN EXTEND IF NEGATIVE
   7812	011436	000462 				BR	70$		; EXIT
   7813						;
TPSIM -- TRIPLE PRECISION ARITH	MACRO M1113  03-APR-86 22:51  PAGE 201
.TPCMP -- SUBROUTINE TO COMPARE TWO 48 BIT NUMBERS 7610.19

   7815					.SBTTL	.TPCMP -- SUBROUTINE TO COMPARE TWO 48 BIT NUMBERS 7610.19
   7816
   7817					;+
   7818					; .TPCMP -- SUBROUTINE TO COMPARE TWO 48 BIT NUMBERS.
   7819					;
   7820					; THIS SUBROUTINE WILL COMPARE THE 48 BIT NUMBER POINTED TO BY
   7821					; R0 AND THE 48 BIT NUMBER POINTED TO BY R1 IN THE CALL.
   7822					;
   7823					; INPUT ARGUMENTS:
   7824					;
   7825					;	R0 POINTS TO THE FIRST NUMBER
   7826					;	R1 POINTS TO THE SECOND NUMBER
   7827					;
   7828					; OUTPUT ARGUMENTS:
   7829					;
   7830					;	R0 POINTS TO THE FIRST NUMBER
   7831					;	R1 POINTS TO THE SECOND NUMBER
   7832					;	CC-N IS SET IF (R0) .LT. (R1)
   7833					;	CC-Z IS SET IF (R0) .EQ. (R1)
   7834					;	CC-Z IS CLEAR IF (R0) .GT. (R1)
   7835					;
   7836					; ERROR CODES RETURNED:
   7837					;
   7838					;	NONE.
   7839					;-
   7840
   7841	011440				.TPCMP::			; COMPARE TWO 48 BIT NUMBERS
   7842	011440	026061 	000004 	000004 		CMP	4(R0),4(R1)	; COMPARE THE HIGH WORDS
   7843	011446	001056 				BNE	70$		; NOT EQUAL -- EXIT
   7844	011450	026061 	000002 	000002 		CMP	2(R0),2(R1)	; COMPARE THE MIDDLE WORDS
   7845	011456	001001 				BNE	30$		; NOT EQUAL -- EXIT
   7846	011460	021011 				CMP	(R0),(R1)	; COMPARE THE LOW WORDS
   7847	011462				30$:
   7848	011462	000250 				CLN			; CLEAR CC-N
   7849	011464	000242 				CLV			; CLEAR CC-V
   7850	011466	103046 				BCC	70$		; BRANCH IF NON-NEGATIVE
   7851	011470	000270 				SEN			; NEGATIVE -- SET CC-N
   7852	011472	000444 				BR	70$		; EXIT
   7853						;
TPSIM -- TRIPLE PRECISION ARITH	MACRO M1113  03-APR-86 22:51  PAGE 202
.TPTST -- TEST A 48 BIT NUMBER FOR ZERO 7601.19

   7855					.SBTTL	.TPTST -- TEST A 48 BIT NUMBER FOR ZERO 7601.19
   7856
   7857					;+
   7858					; .TPTST -- TEST A 48 BIT NUMBER FOR ZERO.
   7859					;
   7860					; THIS SUBROUTINE WILL TEST THE 48 BIT NUMBER POINTED TO BY R0 TO
   7861					; SEE IF IT ZERO OR NON-ZERO. IF THE NUMBER IS ZERO, CC-Z IS SET
   7862					; ON RETURN, IF NON-ZERO, CC-Z IS CLEAR SET ON RETURN.
   7863					; NO REGISTERS ARE ALTERED BY THIS SUBROUTINE.
   7864					;
   7865					; INPUT ARGUMENTS:
   7866					;
   7867					;	R0 POINTS TO THE NUMBER TO BE TESTED
   7868					;
   7869					; OUTPUT ARGUMENTS:
   7870					;
   7871					;	R0 POINTS TO THE TESTED NUMBER
   7872					;	CC-Z IS SET IF THE NUMBER IS ZERO
   7873					;	CC-Z IS CLEAR IF THE NUMBER IS NON-ZERO
   7874					;
   7875					; ERROR CODES RETURNED:
   7876					;
   7877					;	NONE.
   7878					;-
   7879
   7880	011474				.TPTST::			; TEST A TRIPLE PRECISION NUMBER FOR ZERO
   7881	011474	005760 	000004 			TST	4(R0)		; TEST THE HIGH WORD
   7882	011500	001041 				BNE	70$		; NON ZERO?
   7883	011502	005760 	000002 			TST	2(R0)		; TEST THE MIDDLE WORD
   7884	011506	001001 				BNE	40$		; NON ZERO?
   7885	011510	005710 				TST	(R0)		; TEST THE LOW WORD
   7886	011512				40$:
   7887	011512	000250 				CLN			; CLEAR CC-N
   7888	011514	000433 				BR	70$		; EXIT
   7889						;
TPSIM -- TRIPLE PRECISION ARITH	MACRO M1113  03-APR-86 22:51  PAGE 203
.TPADD -- SUBROUTINE TO ADD TWO 48 BIT NUMBERS 7601.15

   7891					.SBTTL	.TPADD -- SUBROUTINE TO ADD TWO 48 BIT NUMBERS 7601.15
   7892
   7893					;+
   7894					; .TPADD -- SUBROUTINE TO ADD TWO 48 BIT NUMBERS.
   7895					;
   7896					; THIS SUBROUTINE ADDS TWO 48 BIT ADDENDS WHICH ARE POINTED TO BY
   7897					; R0 AND R1 IN THE CALL, AND RETURNS A POINTER TO THE SUM IN R0.
   7898					; THE ADDEND POINTED TO BY R1 IS ADDED TO THAT POINTED TO BY R0.
   7899					;
   7900					; INPUT ARGUMENTS:
   7901					;
   7902					;	R0 POINTS TO THE FIRST ADDEND
   7903					;	R1 POINTS TO THE SECOND ADDEND
   7904					;
   7905					; OUTPUT ARGUMENTS:
   7906					;
   7907					;	R0 POINTS TO THE SUM
   7908					;	R1 POINTS TO THE SECOND ADDEND
   7909					;
   7910					; ERROR CODES RETURNED:
   7911					;
   7912					;	NONE.
   7913					;-
   7914
   7915	011516				.TPADD::
   7916	011516	062120 				ADD	(R1)+,(R0)+	; ADD LOW ORDER PARTS
   7917	011520	005510 				ADC	(R0)		; CARRY ANY OVERFLOW
   7918	011522	005560 	000002 			ADC	2(R0)		; AND ANY OVER FLOW FROM THAT
   7919	011526	062120 				ADD	(R1)+,(R0)+	; ADD MIDDLE WORD
   7920	011530	005510 				ADC	(R0)		; FIX CARRIES
   7921	011532	061110 				ADD	(R1),(R0)	; ADD HIGH ORDER PARTS
   7922	011534	000421 				BR	50$		; RESET REGISTERS ANS EXIT
   7923						;
TPSIM -- TRIPLE PRECISION ARITH	MACRO M1113  03-APR-86 22:51  PAGE 204
.TPINC -- SUBROUTINE TO INCREMENT A 48 BIT NUMBER 7601.19

   7925					.SBTTL	.TPINC -- SUBROUTINE TO INCREMENT A 48 BIT NUMBER 7601.19
   7926
   7927					;+
   7928					; .TPINC -- SUBROUTINE TO INCREMENT A 48 BIT NUMBER.
   7929					; .TPDEC -- SUBROUTINE TO DECREMENT A 48 BIT NUMBER.
   7930					;
   7931					; THESE SUBROUTINES WILL INCREMENT OR DECREMENT A 48 BIT NUMBER
   7932					; POINTED TO BY R0 IN THE CALL. ON RETURN, THE POINTER IN R0 IS
   7933					; UNCHANGED. NO OTHER REGISTERS ARE ALTERED BY THESE SUBROUTINES.
   7934					;
   7935					; INPUT ARGUMENTS:
   7936					;
   7937					;	R0 POINTS TO THE OPERAND
   7938					;
   7939					; OUTPUT ARGUMENTS:
   7940					;
   7941					;	R0 POINTS TO THE OPERAND
   7942					;
   7943					; ERROR CODES RETURNED:
   7944					;
   7945					;	NONE.
   7946					;-
   7947
   7948	011536				.TPINC::			; INCREMENT A 48 BIT NUMBER
   7949	011536	062720 	000001 			ADD	#1,(R0)+	; DO THE INCREMENT
   7950	011542	005520 				ADC	(R0)+		; AND CARRY THE CARRIES
   7951	011544	005510 				ADC	(R0)
   7952	011546	000415 				BR	60$		; AND EXIT
   7953						;
   7954
   7955	011550				.TPDEC::			; DECREMENT A 48 BIT NUMBER
   7956	011550	162720 	000001 			SUB	#1,(R0)+	; DO THE DECREMENT
   7957	011554	005620 				SBC	(R0)+		; AND STRAIGHTEN OUT THE CARRIES
   7958	011556	005610 				SBC	(R0)
   7959	011560	000410 				BR	60$		; ADJUST R0 AND RETURN
   7960						;
TPSIM -- TRIPLE PRECISION ARITH	MACRO M1113  03-APR-86 22:51  PAGE 205
.TPSUB -- SUBROUTINE TO SUBTRACT TWO 48 BIT NUMBERS 7601.15

   7962					.SBTTL	.TPSUB -- SUBROUTINE TO SUBTRACT TWO 48 BIT NUMBERS 7601.15
   7963
   7964					;+
   7965					; .TPSUB -- SUBROUTINE TO SUBTRACT TWO 48 BIT NUMBERS.
   7966					;
   7967					; THIS SUBROUTINE WILL SUBTRACT TWO 48 BIT NUMBERS POINTED TO BY R0,
   7968					; (MINUEND), AND R1 (SUBTRAHEND) IN THE CALL, AND WILL RETURN A
   7969					; POINTER TO THE DIFFERENCE IN R0.
   7970					;
   7971					; INPUT ARGUMENTS:
   7972					;
   7973					;	R0 POINTS TO THE MINUEND
   7974					;	R1 POINTS TO THE SUBTRAHEND
   7975					;
   7976					; OUTPUT ARGUMENTS:
   7977					;
   7978					;	R0 POINTS TO THE DIFFERENCE
   7979					;	R1 POINTS TO THE SUBTRAHEND
   7980					;
   7981					; ERROR CODES RETURNED:
   7982					;
   7983					;	NONE.
   7984					;-
   7985
   7986	011562				.TPSUB::
   7987	011562	162120 				SUB	(R1)+,(R0)+	; SUBTRACT LOW ORDER PARTS
   7988	011564	005610 				SBC	(R0)		; CARRY ANY OVERFLOW
   7989	011566	005660 	000002 			SBC	2(R0)		; AND ANY OVERFLOWS FROM THAT
   7990	011572	162120 				SUB	(R1)+,(R0)+
   7991	011574	005610 				SBC	(R0)		; FIX CARRIES
   7992	011576	161110 				SUB	(R1),(R0)	; SUBTRACT HIGH ORDER PARTS
   7993	011600				50$:
   7994	011600	024141 				CMP	-(R1),-(R1)	; RESET R1
   7995	011602				60$:
   7996	011602	024040 				CMP	-(R0),-(R0)	; RESET R0
   7997	011604				70$:
   7998	011604					RETURN			; AND EXIT
	011604	000207 				 RTS	PC
   7999
   8000						.DSABL	LSB
TPSIM -- TRIPLE PRECISION ARITH	MACRO M1113  03-APR-86 22:51  PAGE 206
.TPMUL -- 48 BIT INTEGER MULTPLY SUBROUTINE 7601.19

   8002					.SBTTL	.TPMUL -- 48 BIT INTEGER MULTPLY SUBROUTINE 7601.19
   8003
   8004					;+
   8005					; .TPMUL -- 48 BIT INTEGER MULTPLY SUBROUTINE.
   8006					;
   8007					; THIS SUBROUTINE WILL MULTIPLY THE 48 BIT MULTIPLICAND POINTED
   8008					; TO BY R0 BY THE 48 BIT MULTIPLIER POINTER IN R1, AND RETURN A
   8009					; POINTER TO THE 48 BIT PRODUCT IN R0. THE MULTIPLIER IS UNCHANGED,
   8010					; AND NO OTHER REGISTERS ARE ALTERED BY THIS SUBROUTINE.
   8011					;
   8012					; INPUT ARGUMENTS:
   8013					;
   8014					;	R0 POINTS TO THE MULTIPLICAND
   8015					;	R1 POINTS TO THE MULTIPLIER
   8016					;
   8017					; OUTPUT ARGUMENTS:
   8018					;
   8019					;	R0 POINTS TO THE PRODUCT
   8020					;	R1 POINTS TO THE MULTIPLIER
   8021					;
   8022					; ERROR CODES RETURNED:
   8023					;
   8024					;	NONE.
   8025					;-
TPSIM -- TRIPLE PRECISION ARITH	MACRO M1113  03-APR-86 22:51  PAGE 207
.TPMUL -- 48 BIT INTEGER MULTPLY SUBROUTINE 7601.19

   8027	011606				.TPMUL::
   8028	011606					PUSH	<R2,R1,R0>	; SAVE CALLER'S REGISTERS
	011606	010246 				 MOV	R2,-(SP)
	011610	010146 				 MOV	R1,-(SP)
	011612	010046 				 MOV	R0,-(SP)
   8029	011614					CALL	.TPTST		; ...SEE IF MULTIPLICAND .EQ. 0
	011614	004737 	011474'			 JSR	PC,.TPTST
   8030	011620	001460 				BEQ	50$		; ...YES -- QUIT NOW
   8031	011622	010100 				MOV	R1,R0		; ...NO -- POINT TO MULTIPLIER
   8032	011624					CALL	.TPTST		; ...SEE IF IT IS .EQ. 0
	011624	004737 	011474'			 JSR	PC,.TPTST
   8033	011630	001004 				BNE	10$		; ...NO -- ALL OK
   8034	011632	011600 				MOV	(SP),R0		; ...YES -- GET MULTIPLICAND POINTER
   8035	011634					CALL	.TPCLR		; ...AND MAKE IT .EQ. 0
	011634	004737 	011372'			 JSR	PC,.TPCLR
   8036	011640	000450 				BR	50$		; ...RETURN TO CALLER
   8037						;
   8038	011642				10$:
   8039	011642	011600 				MOV	(SP),R0		; ...R0 POINTS TO MULTIPLCAND
   8040	011644					PUSH	<(R1)+,(R1)+,(R1),R1>
	011644	012146 				 MOV	(R1)+,-(SP)
	011646	012146 				 MOV	(R1)+,-(SP)
	011650	011146 				 MOV	(R1),-(SP)
	011652	010146 				 MOV	R1,-(SP)
   8041	011654	024141 				CMP	-(R1),-(R1)	; .......CALLER'S MULTIPLIER SAVED
   8042	011656	010102 				MOV	R1,R2		; .......R2 POINTS TO THE MULTIPLIER
   8043	011660	010001 				MOV	R0,R1		; .......R1 POINTS TO THE MULTIPLICAND
   8044	011662	005046 				CLR	-(SP)		; .......CLEAR A BUFFER ON THE STACK
   8045	011664	005046 				CLR	-(SP)		; ........
   8046	011666	005046 				CLR	-(SP)		; .........
   8047	011670	010600 				MOV	SP,R0		; ..........R0 POINTS TO TEMPORARY RESULT
   8048	011672				20$:
   8049	011672	006062 	000004 			ROR	4(R2)		; ..........SHIFT THE MULTIPLIER RIGHT
   8050	011676	006062 	000002 			ROR	2(R2)		; ..........
   8051	011702	006012 				ROR	(R2)		; ..........
   8052	011704	103002 				BCC	30$		; ..........DID WE GET A CARRY?
   8053	011706					CALL	.TPADD		; ..........YES -- ADD THE MULTIPLICAND
	011706	004737 	011516'			 JSR	PC,.TPADD
   8054	011712				30$:
   8055	011712	006311 				ASL	(R1)		; ..........DOUBLE MULTIPLICAND IN ANY CASE
   8056	011714	006161 	000002 			ROL	2(R1)		; ..........
   8057	011720	006161 	000004 			ROL	4(R1)		; ..........
   8058	011724					PUSH	R0		; ..........SAVE RESULT POINTER
	011724	010046 				 MOV	R0,-(SP)
   8059	011726	010200 				MOV	R2,R0		; ...........POINT TO MULTIPLIER
   8060	011730					CALL	.TPTST		; ...........IS IT .EQ. 0?
	011730	004737 	011474'			 JSR	PC,.TPTST
   8061	011734	001402 				BEQ	40$		; ...........YES -- SET UP FOR RETURN
   8062	011736					POP	R0		; ...........NO -- RESTORE R0
	011736	012600 				 MOV	(SP)+,R0
   8063	011740	000754 				BR	20$		; ..........AND CONTINUE
   8064						;
   8065
   8066					;	[CONTINUED ON THE FOLLOWING PAGE]
TPSIM -- TRIPLE PRECISION ARITH	MACRO M1113  03-APR-86 22:51  PAGE 208
.TPMUL -- 48 BIT INTEGER MULTPLY SUBROUTINE 7601.19

   8068					;	[CONTINUED FROM THE PREVIOUS PAGE]
   8069
   8070					; HERE TO RETURN PRODUCT AND EXIT
   8071
   8072	011742				40$:
   8073	011742					POP	R0		; ...........GET RID OF MULTIPLIER POINTER
	011742	012600 				 MOV	(SP)+,R0
   8074	011744					POP	<(R1)+,(R1)+,(R1)>
	011744	012621 				 MOV	(SP)+,(R1)+
	011746	012621 				 MOV	(SP)+,(R1)+
	011750	012611 				 MOV	(SP)+,(R1)
   8075	011752					POP	<R1,(R1),-(R1),-(R1)>
	011752	012601 				 MOV	(SP)+,R1
	011754	012611 				 MOV	(SP)+,(R1)
	011756	012641 				 MOV	(SP)+,-(R1)
	011760	012641 				 MOV	(SP)+,-(R1)
   8076	011762				50$:
   8077	011762					POP	<R0,R1,R2>	; ...RESTORE REGISTERS
	011762	012600 				 MOV	(SP)+,R0
	011764	012601 				 MOV	(SP)+,R1
	011766	012602 				 MOV	(SP)+,R2
   8078	011770					RETURN			; TO CALLER
	011770	000207 				 RTS	PC
TPSIM -- TRIPLE PRECISION ARITH	MACRO M1113  03-APR-86 22:51  PAGE 209
.TPSHI -- SHIFT A 48 BIT NUMBER BY A 16 BIT NUMBER 7601.19

   8080					.SBTTL	.TPSHI -- SHIFT A 48 BIT NUMBER BY A 16 BIT NUMBER 7601.19
   8081
   8082					;+
   8083					; .TPSHI -- SUBROUTINE TO SHIFT A 48 BIT NUMBER BY A 16 BIT NUMBER.
   8084					;
   8085					; THIS SUBROUTINE SHIFTS THE 48 BIT NUMBER POINTED TO BY R0 BY THE
   8086					; 16 BIT NUMBER IN R1 IN THE CALL. ON RETURN R0 POINTS TO THE SHIFTED
   8087					; 48 BIT NUMBER. THE DIRECTION OF THE SHIFT IS DETERMINED BY THE SIGN
   8088					; OF THE 16 BIT NUMBER IN R1. NO REGISTERS ARE ALTERED BY THIS ROUTINE.
   8089					;
   8090					; INPUT ARGUMENTS:
   8091					;
   8092					;	R0 POINTS TO THE NUMBER TO BE SHIFTED
   8093					;	R1 HOLDS THE 16 BIT SHIFT COUNT
   8094					;
   8095					; OUTPUT ARGUMENTS:
   8096					;
   8097					;	R0 POINTS TO THE SHIFTED NUMBER
   8098					;	R0 HOLDS THE 16 BIT SHIFT COUNT
   8099					;
   8100					; ERROR CODES RETURNED:
   8101					;
   8102					;	NONE.
   8103					;-
   8104
   8105	011772				.TPSHI::
   8106	011772					PUSH	R1		; SAVE R1 FROM DESTRUCTION
	011772	010146 				 MOV	R1,-(SP)
   8107	011774	001416 				BEQ	30$		; .ON ZERO DO NOTHING
   8108	011776	003002 				BGT	10$		; .REALLY MEANS LEFT
   8109	012000	005401 				NEG	R1		; .MEANS RIGHT, SO NEGATE
   8110	012002	000406 				BR	20$		; .AND GO RIGHT
   8111						;
   8112	012004				10$:
   8113	012004	006320 				ASL	(R0)+		; .CLEAR CC-C AND SHIFT
   8114	012006	006120 				ROL	(R0)+		; .USE CC-C AND SHIFT
   8115	012010	006110 				ROL	(R0)		; .
   8116	012012	024040 				CMP	-(R0),-(R0)	; .POINT BACK TO BEGINNING
   8117	012014	077105 				SOB	R1,10$		; .AND LOOP 'TILL DONE
   8118	012016	000405 				BR	30$		; .DONE -- EXIT
   8119						;
   8120	012020				20$:				; .HERE TO SHIFT RIGHT
   8121	012020	022020 				CMP	(R0)+,(R0)+	; .FIX POINTER TO POINT TO HIGH PART
   8122	012022	006210 				ASR	(R0)		; .SHIFT HIGH PART
   8123	012024	006040 				ROR	-(R0)		; .THEN MIDDLE PART
   8124	012026	006040 				ROR	-(R0)		; .THEN LOW PART
   8125	012030	077105 				SOB	R1,20$		; .UNTIL DONE
   8126	012032				30$:
   8127	012032					POP	R1		; .RESTORE R1
	012032	012601 				 MOV	(SP)+,R1
   8128	012034					RETURN			; AND RETURN TO CALLER
	012034	000207 				 RTS	PC
TPSIM -- TRIPLE PRECISION ARITH	MACRO M1113  03-APR-86 22:51  PAGE 210
.TPSHL -- SHIFT A 48 BIT NUMBER BY A 48 BIT NUMBER 7601.19

   8130					.SBTTL	.TPSHL -- SHIFT A 48 BIT NUMBER BY A 48 BIT NUMBER 7601.19
   8131
   8132					;+
   8133					; .TPSHL -- SUBROUTINE TO SHIFT A 48 BIT NUMBER BY A 48 BIT NUMBER.
   8134					;
   8135					; THIS SUBROUTINE WILL SHIFT THE 48 BIT NUMBER POINTED TO BY R0 BY
   8136					; THE 48 BIT NUMBER POINTED TO BY R1 IN THE CALL. BOTH POINTERS ARE
   8137					; RETURNED UNALTERED, AND NO OTHER REGISTERS ARE ALTERED BY THE
   8138					; SUBROUTINE. THE DIRECTION OF THE SHIFT IS DETERMINED BY THE SIGN
   8139					; OF THE 48 BIT NUMBER POINTED TO BY R1.
   8140					;
   8141					; INPUT ARGUMENTS:
   8142					;
   8143					;	R0 POINTS TO THE NUMBER TO BE SHIFTED
   8144					;	R1 POINTS TO THE SHIFT COUNT
   8145					;
   8146					; OUTPUT ARGUMENTS:
   8147					;
   8148					;	R0 POINTS TO THE SHIFTED NUMBER
   8149					;	R1 POINTS TO THE SHIFT COUNT
   8150					;
   8151					; ERROR CODES RETURNED:
   8152					;
   8153					;	NONE.
   8154					;-
   8155
   8156	012036				.TPSHL::
   8157	012036					PUSH	<(R1)+,(R1)+,(R1),R1>
	012036	012146 				 MOV	(R1)+,-(SP)
	012040	012146 				 MOV	(R1)+,-(SP)
	012042	011146 				 MOV	(R1),-(SP)
	012044	010146 				 MOV	R1,-(SP)
   8158	012046	024141 				CMP	-(R1),-(R1)	; ....BACK THE POINTER UP
   8159	012050					PUSH	<R2,R0>		; ....SAVE R2 AND R0
	012050	010246 				 MOV	R2,-(SP)
	012052	010046 				 MOV	R0,-(SP)
   8160	012054	010100 				MOV	R1,R0		; ......POINT TO THE SHIFT COUNT
   8161	012056					CALL	.TPXTN		; ......DO THE SIGN EXTENSION
	012056	004737 	011420'			 JSR	PC,.TPXTN
   8162	012062					CALL	.TPTST		; ......SEE WHAT IT IS
	012062	004737 	011474'			 JSR	PC,.TPTST
   8163	012066	001432 				BEQ	30$		; ......EXIT IF .EQ. ZERO
   8164	012070	002415 				BLT	20$		; ......SHIFT RIGHT IF .LT. ZERO
   8165
   8166					;	[CONTINUED ON THE FOLLOWING PAGE]
TPSIM -- TRIPLE PRECISION ARITH	MACRO M1113  03-APR-86 22:51  PAGE 211
.TPSHL -- SHIFT A 48 BIT NUMBER BY A 48 BIT NUMBER 7601.19

   8168					;	[CONTINUED FROM THE PREVIOUS PAGE]
   8169
   8170	012072				10$:				; ......HERE TO SHIFT LEFT
   8171	012072	010002 				MOV	R0,R2		; ......SHIFT COUNT POINTER TO R2
   8172	012074	011600 				MOV	(SP),R0		; ......POINT TO THE NUMBER
   8173	012076	012701 	000001 			MOV	#^D1,R1		; ......SUBSTITUTE SHIFT COUNT
   8174	012102					CALL	.TPSHI		; ......SHIFT IT ONCE
	012102	004737 	011772'			 JSR	PC,.TPSHI
   8175	012106	010200 				MOV	R2,R0		; ......REAL SHIFT COUNT POINTER TO R0
   8176	012110					CALL	.TPDEC		; ......DECREMENT IT
	012110	004737 	011550'			 JSR	PC,.TPDEC
   8177	012114					CALL	.TPTST		; ......ARE WE DONE?
	012114	004737 	011474'			 JSR	PC,.TPTST
   8178	012120	001364 				BNE	10$		; ......NO -- KEEP GOING
   8179	012122	000414 				BR	30$		; ......YES -- EXIT
   8180						;
   8181	012124				20$:				; ......HERE TO SHIFT RIGHT
   8182	012124	010002 				MOV	R0,R2		; ......SHIFT COUNT TO R2
   8183	012126	011600 				MOV	(SP),R0		; ......POINT TO THE NUMBER
   8184	012130	012701 	177777 			MOV	#-^D1,R1	; ......SUBSTITUTE SHIFT COUNT
   8185	012134					CALL	.TPSHI		; ......SHIFT IT
	012134	004737 	011772'			 JSR	PC,.TPSHI
   8186	012140	010200 				MOV	R2,R0		; ......REAL SHIFT COUNT POINTER TO R0
   8187	012142					CALL	.TPINC		; ......INCREMENT IT
	012142	004737 	011536'			 JSR	PC,.TPINC
   8188	012146					CALL	.TPTST		; ......ARE WE DONE?
	012146	004737 	011474'			 JSR	PC,.TPTST
   8189	012152	001364 				BNE	20$		; ......NO -- KEEP GOING
   8190	012154				30$:
   8191	012154					POP	<R0,R2>		; ......RESTORE R0 AND R2
	012154	012600 				 MOV	(SP)+,R0
	012156	012602 				 MOV	(SP)+,R2
   8192	012160					POP	<R1,(R1),-(R1),-(R1)>
	012160	012601 				 MOV	(SP)+,R1
	012162	012611 				 MOV	(SP)+,(R1)
	012164	012641 				 MOV	(SP)+,-(R1)
	012166	012641 				 MOV	(SP)+,-(R1)
   8193	012170					RETURN			; RETURN TO CALLER
	012170	000207 				 RTS	PC
TPSIM -- TRIPLE PRECISION ARITH	MACRO M1113  03-APR-86 22:51  PAGE 212
.TPSHL -- SHIFT A 48 BIT NUMBER BY A 48 BIT NUMBER 7601.19

   8195
   8196					.TITLE	TRACK -- DIAGNOSTIC FUNCTION TRACK MODULE 7603.30
   8197
   8198						.IDENT	"005000"
   8199
   8200					;
   8201					;                             COPYRIGHT (C) 1975, 1984, 1985 BY
   8202					;                     DIGITAL EQUIPMENT CORPORATION, MAYNARD MASS.
   8203					;			ALL RIGHTS RESERVED.
   8204					;       THIS SOFTWARE IS FURNISHED UNDER A LICENSE AND MAY BE  USED  AND  COPIED
   8205					;       ONLY IN ACCORDANCE WITH THE TERMS OF SUCH LICENSE AND WITH THE INCLUSION
   8206					;       OF THE ABOVE COPYRIGHT NOTICE.  THIS SOFTWARE OR ANY OTHER COPIES THERE-
   8207					;       OF  MAY NOT BE PROVIDED OR OTHERWISE MADE AVAILABLE TO ANY OTHER PERSON.
   8208					;       NO TITLE TO OR OWNERSHIP OF THE SOFTWARE IS HEREBY TRANSFERRED.
   8209					;
   8210					;       THE INFORMATION CONTAINED IN THIS SOFTWARE IS SUBJECT TO CHANGE  WITHOUT
   8211					;       NOTICE  AND SHOULD NOT BE CONSTRUED AS A COMMITMENT BY DIGITAL EQUIPMENT
   8212					;       CORPORATION.
   8213					;
   8214					;       DIGITAL ASSUMES NO RESPONSIBILITY FOR THE  USE  OR  RELIABILITY  OF  ITS
   8215					;       SOFTWARE ON EQUIPMENT WHICH IS NOT SUPPILED BY DIGITAL.
   8216					;
   8217					;		MODULE: DAIGNOSTIC FUNCTION TRACK
   8218					;
   8219					;		VERSION: 05-00
   8220					;
   8221					;		AUTHOR: R. BELANGER
   8222					;
   8223					;		DATE: 7603.30
   8224					;
   8225					;	THIS MODULE CONTAINS:
   8226					;
   8227					;	1) DIAGNOSTIC FUNCTION TRACK CODE
TRACK -- DIAGNOSTIC FUNCTION TR	MACRO M1113  03-APR-86 22:51  PAGE 213
.TRACK -- DIAGNOSTIC FUNCTION TRACK SUBROUTINE 7512.09

   8229					.SBTTL	.TRACK -- DIAGNOSTIC FUNCTION TRACK SUBROUTINE 7512.09
   8230
   8231					;+
   8232					; .FRTRK -- SUBROUTINE TO TRACK A FUNCTION READ.
   8233					; .FWTRK -- SUBROUTINE TO TRACK A FUNCTION WRITE.
   8234					; .FXTRK -- SUBROUTINE TO TRACK A FUNCTION EXECUTE.
   8235					;
   8236					; THESE SUBROUTINES TRACK A FUNCTION READ, WRITE, OR EXECUTE
   8237					; BY DISPLAYING THE FUNCTION CODE AND THE CONTENT OF THE BUFFER
   8238					; ON THE FRONT END OUTPUT DEVICE.
   8239					;
   8240					; THESE SUBROUTINES ARE CALLED INTERNALLY AND ARE DEPENDENT UPON THE
   8241					; STATE OF THE SWITCHES IN ".TRKWD". THE ".TRKWD" SWITCHES ARE TURNED
   8242					; ON OR OFF BY THE "SET" AND "CLEAR TRACK" COMMANDS, RESPECTIVELY.
   8243					;
   8244					; ERROR CODES RETURNED:
   8245					;
   8246					;	NONE.
   8247					;-
   8248
   8250
   8251						.ENABL	LSB
   8252
   8253	012172				.FRTRK::
   8254	012172					PUSH	R0		; SAVE R0 ON THE STACK
	012172	010046 				 MOV	R0,-(SP)
   8255	012174					PUSH	.KLDFR+2	; .SAVE THE FR CODE TOO
	012174	013746 	000340'			 MOV	.KLDFR+2,-(SP)
   8256	012200					PUSH	#.DFRB		; ..AND THE BUFFER ADDRESS
	012200	012746 	000344'			 MOV	#.DFRB,-(SP)
   8257	012204	012700 	002014'			MOV	#TFRMSG,R0	; ...MESSAGE POINTER TO R0
   8258	012210	000416 				BR	10$		; ...DO THE TRACKING
   8259						;
   8260	012212				.FWTRK::
   8261	012212					PUSH	R0		; SAVE R0 ON THE STACK
	012212	010046 				 MOV	R0,-(SP)
   8262	012214					PUSH	.KLDFW+2	; .SAVE THE FW CODE
	012214	013746 	000352'			 MOV	.KLDFW+2,-(SP)
   8263	012220					PUSH	#.DFWB		; ..AND THE BUFFER ADDRESS
	012220	012746 	000336'			 MOV	#.DFWB,-(SP)
   8264	012224	012700 	002031'			MOV	#TFWMSG,R0	; ...MESSAGE POINTER TO R0
   8265	012230	000406 				BR	10$		; ...GO TRACK IT
   8266						;
   8267	012232				.FXTRK::
   8268	012232					PUSH	R0		; SAVE R0 ON THE STACK
	012232	010046 				 MOV	R0,-(SP)
   8269	012234					PUSH	.KLDFX+2	; .SAVE THE FX CODE
	012234	013746 	000364'			 MOV	.KLDFX+2,-(SP)
   8270	012240	005046 				CLR	-(SP)		; ..NO BUFFER ADDRESS
   8271	012242	012700 	002046'			MOV	#TFXMSG,R0	; ...MESSAGE POINTER TO R0
   8272					;	BR	10$		; ...AND FALL INTO COMMON CODE
   8273						;
   8274
   8275					;	[CONTINUED ON THE FOLLOWING PAGE]
TRACK -- DIAGNOSTIC FUNCTION TR	MACRO M1113  03-APR-86 22:51  PAGE 214
.TRACK -- DIAGNOSTIC FUNCTION TRACK SUBROUTINE 7512.09

   8277					;	[CONTINUED FROM THE PREVIOUS PAGE]
   8278
   8279	012246				10$:
   8280	012246	012737 	177777 	000220'		MOV	#-^D1,.LDZFL	; ...PRINT LEADING ZEROES
   8281	012254					CALL	.TYMSG		; ...PRINT THE MESSAGE
	012254	004737 	015462'			 JSR	PC,.TYMSG
   8282	012260	016600 	000002 			MOV	2(SP),R0	; ...GET THE FUNCTION CODE
   8283	012264	000300 				SWAB	R0		; ...SWAP THE BYTES
   8284	012266	042700 	177400 			BIC	#177400,R0	; ...FLUSH JUNK FROM HIGH BYTE
   8285	012272	006200 				ASR	R0		; ...DIVIDE IT BY 2
   8286	012274					CALL	.TYP3D		; ...TYPE THAT
	012274	004737 	015032'			 JSR	PC,.TYP3D
   8287	012300	011600 				MOV	(SP),R0		; ...BUFFER ADDRESS?
   8288	012302	001406 				BEQ	20$		; ...NO -- JUST EXIT
   8289	012304					CALL	.TYSLS		; ...YES --  TYPE A SLASH AND
	012304	004737 	014572'			 JSR	PC,.TYSLS
   8290	012310					CALL	.TYSPC		; ...TYPE A <SPACE> AND
	012310	004737 	014602'			 JSR	PC,.TYSPC
   8291	012314					CALL	.TYKLN		; ...TYPE ITS CONTENT
	012314	004737 	015156'			 JSR	PC,.TYKLN
   8292	012320				20$:
   8293	012320					CALL	.TCRLF		; ...NOW A <CRLF>
	012320	004737 	015552'			 JSR	PC,.TCRLF
   8294	012324	022626 				CMP	(SP)+,(SP)+	; ...GET RID OF BUFFER POINTER AND CODE
   8295	012326					POP	R0		; .RESTORE R0
	012326	012600 				 MOV	(SP)+,R0
   8296	012330					RETURN			; AND GO AWAY
	012330	000207 				 RTS	PC
   8297
   8298						.DSABL	LSB
   8299
   8300	002014				.PSECT	MESSAG
   8301
   8302	002014				TFRMSG:
   8303	002014	   011 	   124 	   122 		.ASCIZ	%	TRACK > FR %
	002017	   101 	   103 	   113
	002022	   040 	   076 	   040
	002025	   106 	   122 	   040
	002030	   000
   8304	002031				TFWMSG:
   8305	002031	   011 	   124 	   122 		.ASCIZ	%	TRACK > FW %
	002034	   101 	   103 	   113
	002037	   040 	   076 	   040
	002042	   106 	   127 	   040
	002045	   000
   8306	002046				TFXMSG:
   8307	002046	   011 	   124 	   122 		.ASCIZ	%	TRACK > FX %
	002051	   101 	   103 	   113
	002054	   040 	   076 	   040
	002057	   106 	   130 	   040
	002062	   000
   8308	012332				.PSECT
   8309
TRACK -- DIAGNOSTIC FUNCTION TR	MACRO M1113  03-APR-86 22:51  PAGE 215
.DTTRK -- SUBROUTINE TO TRACK DTE-20 OPERATIONS 7512.11

   8312					.SBTTL	.DTTRK -- SUBROUTINE TO TRACK DTE-20 OPERATIONS 7512.11
   8313
   8314					;+
   8315					; .DTTRK -- SUBROUTINE TO TRACK DTE-20 OPERATIONS
   8316					;
   8317					; THIS SUBROUTINE WILL TRACK DTE-20 OPERATIONS AND PRINT ALL DTE-20
   8318					; REFERENCES BY THE COMMAND PARSER ON THE CONSOLE OUTPUT DEVICE.
   8319					; THIS SUBROUTINE IS CALLED INTERNALLY, DEPENDENT UPON THE STATE OF
   8320					; THE DTE-20 TRACK FLAG ("TR.DTE") IN THE TRACK CONTROL WORD, ".TRKWD."
   8321					;
   8322					; CALLING SEQUENCE IS:
   8323					;
   8324					;	CALL	.DTTRK		; TRACK THE DTE-20
   8325					;				; ONLY RETURN
   8326					;
   8327					; THE DTE-20 REGISTER OPERATED UPON IS IDENTIFIED BY ONE OF THE FOLLOWING:
   8328					;
   8329					;	(A) DIAG 1 - DIAG WORD 1,
   8330					;	(B) DIAG 2 - DIAG WORD 2,
   8331					;	(C) STATUS - STATUS WORD,
   8332					;	(D) DIAG 3 - DIAG WORD 3.
   8333					;
   8334					; A READ OPERATION IS IDENTIFIED BY "RD", AND A WRITE OPERATION BY "WR".
   8335					;
   8336					; NO REGISTERS ARE ALTERED BY THIS SUBROUTINE.
   8337					;
   8338					; ERROR CODES RETURNED:
   8339					;
   8340					;	NONE.
   8341					;-
   8342
TRACK -- DIAGNOSTIC FUNCTION TR	MACRO M1113  03-APR-86 22:51  PAGE 216
.DTTRK -- SUBROUTINE TO TRACK DTE-20 OPERATIONS 7512.11

   8345	012332				.DTTRK::
   8346	012332	012737 	177777 	000220'		MOV	#-^D1,.LDZFL	; PRINT LEADING ZEROES
   8347	012340					PUSH	R0		; SAVE R0
	012340	010046 				 MOV	R0,-(SP)
   8348	012342	012700 	002063'			MOV	#DTRMSG,R0	; .MESSAGE POINTER TO R0
   8349	012346					CALL	.TYMSG		; .PRINT IT
	012346	004737 	015462'			 JSR	PC,.TYMSG
   8350	012352	113700 	000303'			MOVB	.REGRW+3,R0	; .GET THE REGISTER OFFSET
   8351	012356	016000 	007240'			MOV	REGTAB(R0),R0	; .REGISTER MESSAGE POINTER TO R0
   8352	012362					CALL	.TYMSG		; .TYPE IT
	012362	004737 	015462'			 JSR	PC,.TYMSG
   8353	012366					CALL	.TYSPC		; .NOW A <SPACE>
	012366	004737 	014602'			 JSR	PC,.TYSPC
   8354	012372	005737 	000304'			TST	.REGRW+4	; .IS THIS A WRITE?
   8355	012376	001002 				BNE	10$		; .YES -- GO ON
   8356	012400	011600 				MOV	(SP),R0		; .NO -- DATA TO R0
   8357	012402	000402 				BR	20$		; .GO PRINT IT
   8358						;
   8359	012404				10$:
   8360	012404	017700 	000304'			MOV	@.REGRW+4,R0	; .GET WRITTEN DATA
   8361	012410				20$:
   8362	012410					CALL	.TYELN		; .PRINT THE DATA
	012410	004737 	014766'			 JSR	PC,.TYELN
   8363	012414	012700 	002144'			MOV	#DRDMSG,R0	; .READ MESSAGE POINTER TO R0
   8364	012420	005737 	000304'			TST	.REGRW+4	; .WAS IT A WRITE?
   8365	012424	001402 				BEQ	30$		; .YES -- GO ON
   8366	012426	012700 	002150'			MOV	#DWRMSG,R0	; .NO -- WRITE MESSAGE POINTER TO R0
   8367	012432				30$:
   8368	012432					CALL	.TYLIN		; .PRINT IT AND A <CRLF>
	012432	004737 	015446'			 JSR	PC,.TYLIN
   8369	012436					POP	R0		; .RESTORE R0
	012436	012600 				 MOV	(SP)+,R0
   8370	012440					RETURN			; TO CALLER
	012440	000207 				 RTS	PC
TRACK -- DIAGNOSTIC FUNCTION TR	MACRO M1113  03-APR-86 22:51  PAGE 217
.DTTRK -- SUBROUTINE TO TRACK DTE-20 OPERATIONS 7512.11

   8372	007240				.PSECT	DATA
   8373
   8374	007240				REGTAB:
   8375	007240	002104'				.WORD	DW1MSG		; MESSAGE POINTERS
   8376	007242	002114'				.WORD	DW2MSG
   8377	007244	002124'				.WORD	STAMSG
   8378	007246	002134'				.WORD	DW3MSG
   8379
   8380	002063				.PSECT	MESSAG
   8381	002063				DTRMSG:
   8382	002063	   011 	   124 	   122 		.ASCIZ	%	TRACK > DTE-20 %
	002066	   101 	   103 	   113
	002071	   040 	   076 	   040
	002074	   104 	   124 	   105
	002077	   055 	   062 	   060
	002102	   040 	   000
   8383
   8384	002104				DW1MSG:
   8385	002104	   104 	   111 	   101 		.ASCIZ	%DIAG 1/%
	002107	   107 	   040 	   061
	002112	   057 	   000
   8386	002114				DW2MSG:
   8387	002114	   104 	   111 	   101 		.ASCIZ	%DIAG 2/%
	002117	   107 	   040 	   062
	002122	   057 	   000
   8388	002124				STAMSG:
   8389	002124	   123 	   124 	   101 		.ASCIZ	%STATUS/%
	002127	   124 	   125 	   123
	002132	   057 	   000
   8390	002134				DW3MSG:
   8391	002134	   104 	   111 	   101 		.ASCIZ	%DIAG 3/%
	002137	   107 	   040 	   063
	002142	   057 	   000
   8392
   8393	002144				DRDMSG:
   8394	002144	   040 	   122 	   104 		.ASCIZ	% RD%
	002147	   000
   8395	002150				DWRMSG:
   8396	002150	   040 	   127 	   122 		.ASCIZ	% WR%
	002153	   000
   8397	012442				.PSECT
   8398
TRACK -- DIAGNOSTIC FUNCTION TR	MACRO M1113  03-APR-86 22:51  PAGE 218
.EDTRK -- EXAMINE / DEPOSIT TRACK SUBROUTINE 7512.09

   8401					.SBTTL	.EDTRK -- EXAMINE / DEPOSIT TRACK SUBROUTINE 7512.09
   8402
   8403					;+
   8404					; .EXTRK -- SUBROUTINE TO TRACK A KL EXAMINE.
   8405					; .DPTRK -- SUBROUTINE TO TRACK A KL DEPOSIT.
   8406					;
   8407					; THESE SUBROUTINES WILL TRACK A KL EXAMINE OR DEPOSIT BY
   8408					; DISPLAYING THE ADDRESS, DATA, AND REFERENCE TYPE OF THE EXAMINE
   8409					; OR DEPOSIT ON THE CONSOLE DEVICE AS IT IS EXECUTED.
   8410					;
   8411					; THESE SUBROUTINES ARE CALLED INTERNALLY DEPENDENT ON THE STATE OF
   8412					; THE TRACK CONTROL WORD ".TRKWD".
   8413					;
   8414					; THE SWITCHES IN ".TRKWD" ARE TURNED ON OR OFF BY THE "SET" AND
   8415					; "CLEAR TRACK" COMMANDS, RESPECTIVELY.
   8416					;
   8417					; NO REGISTERS ARE ALTERED BY THESE SUBROUTINES.
   8418					;
   8419					; ERROR CODES RETURNED:
   8420					;
   8421					;	NONE.
   8422					;-
   8423
   8425
   8426						.ENABL	LSB
   8427
   8428	012442				.EXTRK::
   8429	012442					CALL	R5,.REGSV	; SAVE R5 - R1 ON THE STACK
	012442	004537 	010316'			 JSR	R5,.REGSV
   8430	012446	012705 	002200'			MOV	#ETRMSG,R5	; PREAMBLE TO TYPE
   8431	012452	000404 				BR	10$		; DO COMMON CODE
   8432						;
   8433	012454				.DPTRK::
   8434	012454					CALL	R5,.REGSV	; SAVE R5 - R1 ON THE STACK
	012454	004537 	010316'			 JSR	R5,.REGSV
   8435	012460	012705 	002215'			MOV	#DTKMSG,R5	; PREAMBLE TO TYPE
   8436									; AND FALL INTO COMMON CODE
   8437
   8438					;	[CONTINUED ON THE FOLLOWING PAGE]
TRACK -- DIAGNOSTIC FUNCTION TR	MACRO M1113  03-APR-86 22:51  PAGE 219
.EDTRK -- EXAMINE / DEPOSIT TRACK SUBROUTINE 7512.09

   8440					;	[CONTINUED FROM THE PREVIOUS PAGE]
   8441
   8442	012464				10$:
   8443	012464					PUSH	R0		; SAVE R0 ON THE STACK
	012464	010046 				 MOV	R0,-(SP)
   8444	012466	011100 				MOV	(R1),R0		; .GET ADDRESS POINTER
   8445	012470	012702 	007250'			MOV	#TRADDR,R2	; .POINT TO OUR BLOCK
   8446	012474	012022 				MOV	(R0)+,(R2)+	; .AND LOAD IT
   8447	012476	012022 				MOV	(R0)+,(R2)+	; .
   8448	012500	005012 				CLR	(R2)		; .ZERO THE LAST WORD
   8449	012502	016100 	000002 			MOV	2(R1),R0	; .GET DATA POINTER
   8450	012506	012702 	007256'			MOV	#TRDATA,R2	; .POINT TO OUR BLOCK
   8451	012512	012022 				MOV	(R0)+,(R2)+	; .AND LOAD IT
   8452	012514	012022 				MOV	(R0)+,(R2)+	; .
   8453	012516	011012 				MOV	(R0),(R2)	; .
   8454	012520	010500 				MOV	R5,R0		; .PREAMBLE POINTER TO R0
   8455	012522					CALL	.TYMSG		; .PRINT IT
	012522	004737 	015462'			 JSR	PC,.TYMSG
   8456	012526	012700 	007250'			MOV	#TRADDR,R0	; .POINT TO ADDRESS
   8457	012532					CALL	.TYKLA		; .PRINT IT
	012532	004737 	015106'			 JSR	PC,.TYKLA
   8458	012536					CALL	.TYSLS		; .TYPE A SLASH
	012536	004737 	014572'			 JSR	PC,.TYSLS
   8459	012542					CALL	.TYSPC		; .AND A <SPACE>
	012542	004737 	014602'			 JSR	PC,.TYSPC
   8460	012546	012700 	007256'			MOV	#TRDATA,R0	; .POINT TO DATA
   8461	012552					CALL	.TYKLN		; .PRINT IT
	012552	004737 	015156'			 JSR	PC,.TYKLN
   8462	012556					CALL	.TYSPC		; .AND A <SPACE>
	012556	004737 	014602'			 JSR	PC,.TYSPC
   8463	012562	011600 				MOV	(SP),R0		; .GET TYPE
   8464	012564	006200 				ASR	R0		; .DIVIDE BY 16
   8465	012566	006200 				ASR	R0		; .
   8466	012570	006200 				ASR	R0		; .
   8467	012572	006200 				ASR	R0		; .
   8468	012574	016000 	007264'			MOV	EDTYTB(R0),R0	; .GET TYPE POINTER
   8469	012600					CALL	.TYLIN		; .PRINT IT AND A <CRLF>
	012600	004737 	015446'			 JSR	PC,.TYLIN
   8470	012604					POP	R0		; .AND R0
	012604	012600 				 MOV	(SP)+,R0
   8471	012606					RETURN			; TO CALLER
	012606	000207 				 RTS	PC
   8472
   8473						.DSABL	LSB
TRACK -- DIAGNOSTIC FUNCTION TR	MACRO M1113  03-APR-86 22:51  PAGE 220
.EDTRK -- EXAMINE / DEPOSIT TRACK SUBROUTINE 7512.09

   8475	007250				.PSECT	DATA
   8476
   8477	007250				TRADDR:
   8478	007250	000000 	000000 	000000 		.WORD	0,0,0		; SPACE FOR ADDRESS
   8479	007256				TRDATA:
   8480	007256	000000 	000000 	000000 		.WORD	0,0,0		; SPACE FOR DATA
   8481	007264				EDTYTB:				; POINTERS FOR TYPE MESSAGES
   8482	007264	002154'				.WORD	EDEPT		; EPT SPACE
   8483	007266	002160'				.WORD	EDEXV		; EXEC VIRTUAL SPACE
   8484	007270	002164'				.WORD	EDUPT		; UPT SPACE
   8485	007272	002170'				.WORD	EDUSV		; USER VIRTUAL
   8486	007274	002174'				.WORD	EDPHY		; PHYSICAL SPACE
   8487
   8488	002154				.PSECT	MESSAG
   8489	002154				EDEPT:
   8490	002154	   105 	   120 	   124 		.ASCIZ	%EPT%
	002157	   000
   8491	002160				EDEXV:
   8492	002160	   105 	   126 	   123 		.ASCIZ	%EVS%
	002163	   000
   8493	002164				EDUPT:
   8494	002164	   125 	   120 	   124 		.ASCIZ	%UPT%
	002167	   000
   8495	002170				EDUSV:
   8496	002170	   125 	   126 	   123 		.ASCIZ	%UVS%
	002173	   000
   8497	002174				EDPHY:
   8498	002174	   120 	   110 	   131 		.ASCIZ	%PHY%
	002177	   000
   8499	002200				ETRMSG:
   8500	002200	   011 	   124 	   122 		.ASCIZ	%	TRACK > EX %
	002203	   101 	   103 	   113
	002206	   040 	   076 	   040
	002211	   105 	   130 	   040
	002214	   000
   8501	002215				DTKMSG:
   8502	002215	   011 	   124 	   122 		.ASCIZ	%	TRACK > DP %
	002220	   101 	   103 	   113
	002223	   040 	   076 	   040
	002226	   104 	   120 	   040
	002231	   000
   8503	012610				.PSECT
   8504
TRACK -- DIAGNOSTIC FUNCTION TR	MACRO M1113  03-APR-86 22:51  PAGE 221
.EDTRK -- EXAMINE / DEPOSIT TRACK SUBROUTINE 7512.09

   8507
   8508
   8509					.TITLE	TYINP -- COMMAND PARSER COMMAND INPUT MODULE 7603.30
   8510
   8511						.IDENT	"006110"
   8512
   8513					;
   8514					;                             COPYRIGHT (C) 1975, 1984, 1985 BY
   8515					;                     DIGITAL EQUIPMENT CORPORATION, MAYNARD MASS.
   8516					;			ALL RIGHTS RESERVED.
   8517					;       THIS SOFTWARE IS FURNISHED UNDER A LICENSE AND MAY BE  USED  AND  COPIED
   8518					;       ONLY IN ACCORDANCE WITH THE TERMS OF SUCH LICENSE AND WITH THE INCLUSION
   8519					;       OF THE ABOVE COPYRIGHT NOTICE.  THIS SOFTWARE OR ANY OTHER COPIES THERE-
   8520					;       OF  MAY NOT BE PROVIDED OR OTHERWISE MADE AVAILABLE TO ANY OTHER PERSON.
   8521					;       NO TITLE TO OR OWNERSHIP OF THE SOFTWARE IS HEREBY TRANSFERRED.
   8522					;
   8523					;       THE INFORMATION CONTAINED IN THIS SOFTWARE IS SUBJECT TO CHANGE  WITHOUT
   8524					;       NOTICE  AND SHOULD NOT BE CONSTRUED AS A COMMITMENT BY DIGITAL EQUIPMENT
   8525					;       CORPORATION.
   8526					;
   8527					;       DIGITAL ASSUMES NO RESPONSIBILITY FOR THE  USE  OR  RELIABILITY  OF  ITS
   8528					;       SOFTWARE ON EQUIPMENT WHICH IS NOT SUPPILED BY DIGITAL.
   8529					;
   8530					;		MODULE: COMMAND PARSER COMMAND INPUT
   8531					;
   8532					;		VERSION: 06-11
   8533					;
   8534					;		AUTHOR: R. BELANGER
   8535					;
   8536					;		DATE: 7603.30
   8537					;
   8538					;	THIS MODULE CONTAINS:
   8539					;
   8540					;	1) COMMAND LINE INPUT CODE
TYINP -- COMMAND PARSER COMMAND	MACRO M1113  03-APR-86 22:51  PAGE 222
.GTCMD -- SUBROUTINE TO GET A COMMAND LINE 7601.22

   8542					.SBTTL	.GTCMD -- SUBROUTINE TO GET A COMMAND LINE 7601.22
   8543
   8544					;+
   8545					; .GTCMD -- SUBROUTINE TO GET A COMMAND LINE FROM THE CONSOLE INPUT
   8546					;	    BUFFER.
   8547					;
   8548					; THIS SUBROUTINE WILL GET A COMMAND LINE FROM THE CONSOLE INPUT DEVICE
   8549					; BUFFER AND PLACE IT INTO THE COMMAND BUFFER.
   8550					;
   8551					; INPUT ARGUMENTS:
   8552					;
   8553					;	R5 POINTS TO THE DESTINATION BUFFER.
   8554					;
   8555					; OUTPUT ARGUMENTS:
   8556					;
   8557					;	R5 POINTS TO THE BEGINNING OF THE COMMAND BUFFER
   8558					;	".INCHC" HAS THE COUNT OF THE CHARACTERS IN THE COMMAND BUFFER
   8559					;	THE LAST CHARACTER IN THE COMMAND BUFFER IS A "<NULL>".
   8560					;
   8561					; ERROR CODES RETURNED:
   8562					;
   8563					;	IF THE CONSOLE INPUT FAILS, THE PARSER WILL EXIT.
   8564					;
   8565					;	CBO -- COMMAND BUFFER OVERFLOW.
   8566					;	ILC -- ILLEGAL CHARACTER.
   8567					;-
   8568
   8569	012610				.GTCMD::
   8570	012610	010501 				MOV	R5,R1		; COMMAND BUFFER POINTER TO R1
   8571	012612				10$:
   8572	012612					PUSH	R1		; SAVE R1 ON THE STACK
	012612	010146 				 MOV	R1,-(SP)
   8573	012614					CALL	.GTLIN		; .GO GET THE COMMAND LINE
	012614	004737 	012644'			 JSR	PC,.GTLIN
   8574	012620	022601 				CMP	(SP)+,R1	; .DID THE POINTER CHANGE?
   8575	012622	001407 				BEQ	20$		; NO -- JUST EXIT
   8576	012624	122741 	000055 			CMPB	#'-,-(R1)	; YES -- WAS LAST CHARACTER LINE CONTINUATION?
   8577	012630	001004 				BNE	20$		; NO -- EXIT
   8578	012632	111100 				MOVB	(R1),R0		; YES -- PROMPT FOR CONTINUATION
   8579	012634					CALL	.TFCHR		; FORCE PRINT THE PROMPT
	012634	004737 	015504'			 JSR	PC,.TFCHR
   8580	012640	000764 				BR	10$		; AND GO GET THE REST OF THE LINE
   8581						;
   8582	012642				20$:
   8583	012642					RETURN			; TO CALLER
	012642	000207 				 RTS	PC
TYINP -- COMMAND PARSER COMMAND	MACRO M1113  03-APR-86 22:51  PAGE 223
.GTLIN -- SUBROUTINE TO INPUT A LINE FROM THE CONSOLE 7601.22

   8585					.SBTTL	.GTLIN -- SUBROUTINE TO INPUT A LINE FROM THE CONSOLE 7601.22
   8586
   8587					;+
   8588					; .GTLIN -- SUBROUTINE TO GET AN INPUT LINE FROM THE CONSOLE
   8589					;
   8590					; THIS SUBROUTINE WILL GET A LINE OF INPUT FROM THE CONSOLE DEVICE
   8591					; AND PERFORM THE FOLLOWING CHARACTER CONVERSIONS:
   8592					;
   8593					;	(A) LOWER CASE CHARACTERS ARE CONVERTED TO UPPER CASE
   8594					;	(B) "<TAB>" IS CONVERTED TO "<SPACE>"
   8595					;
   8596					; INPUT ARGUMENTS:
   8597					;
   8598					;	R1 POINTS TO THE BEGINNING OF THE DESTINATION BUFFER
   8599					;
   8600					; OUTPUT ARGUMENTS:
   8601					;
   8602					;	R1 POINTS TO THE END OF THE DESTINATION BUFFER
   8603					;
   8604					; ERROR CODES RETURNED:
   8605					;
   8606					;	IF THE CONSOLE INPUT FAILS, THE PARSER WILL EXIT.
   8607					;
   8608					;	CBO -- COMMAND BUFFER OVERFLOW.
   8609					;	FRD -- FILE READ FAILURE
   8610					;	ILC -- ILLEGAL CHARACTER.
   8611					;-
   8612
   8613						.MCALL	DIR$, QIOW$
   8614
   8615	012644				.GTLIN::
   8616	012644					PUSH	<R0,R2,R3,R4>	; SAVE SOME REGISTERS
	012644	010046 				 MOV	R0,-(SP)
	012646	010246 				 MOV	R2,-(SP)
	012650	010346 				 MOV	R3,-(SP)
	012652	010446 				 MOV	R4,-(SP)
   8617	012654	012700 	000362'			MOV	#.CIBFR,R0	; ...INPUT BUFFER POINTER TO R0
   8618	012660	005037 	000164'			CLR	.INCHC		; ...CLEAR THE CHARACTER COUNTER
   8619	012664	005737 	001660'			TST	.INDFG		; [5.1000]IS INPUT REDIRECTED TO FILE?
   8621	012670	001011 				BNE	10$		; [5.1000]YES -- GET INPUT FROM FILE
   8622	012672	005737 	000176'			TST	.KLEDF		; [5.1006]NO -- GET DEFAULT COMMANDS?
   8623	012676	001427 				BEQ	12$		; [5.1006]NO -- GET INPUT FROM CTY
   8624	012700					CALL	.KLE		; [5.1006]YES -- GET COMMANDS
	012700	004737 	000000G			 JSR	PC,.KLE
   8625	012704	005737 	000010'			TST	.CISTS+2	; [5.1006]ANY COMMAND?
   8626	012710	001442 				BEQ	15$		; [5.1006]NO -- DONE
   8627	012712	000407 				BR	11$		; [5.1006]YES -- ECHO COMMANDS
   8631	012714	012702 	000362'		10$:	MOV	#.CIBFR,R2	; [5.1000]YES -- SET UP INPUT BUFFER
   8632	012720	012703 	000006'			MOV	#.CISTS,R3	; [5.1000]STATUS PTR
   8633	012724					CALL	.READR		; [5.1000]GET THE COMMAND
	012724	004737 	002224'			 JSR	PC,.READR
   8634	012730	103432 				BCS	15$		; [5.1000]EOF ENCOUNTERED
   8635	012732	012737 	000362'	000430'	11$:	MOV	#.CIBFR,.CDOBP	; [5.1000]SET ECHO BUFFER
   8636	012740	013737 	000010'	000432'		MOV	.CISTS+2,.CDOBC	; [5.1000]SET BYTE COUNT
   8637	012746	001423 				BEQ	15$		; [5.1000]NULL COMMAND?
   8638	012750					CALL	.TYOUT		; [5.1000]NO -- ECHO IT
	012750	004737 	015600'			 JSR	PC,.TYOUT
TYINP -- COMMAND PARSER COMMAND	MACRO M1113  03-APR-86 22:51  PAGE 223-1
.GTLIN -- SUBROUTINE TO INPUT A LINE FROM THE CONSOLE 7601.22

   8639	012754	000420 				BR	15$		; [5.1000]PROCESS COMMAND
   8640	012756				12$:	DIR$	#.CDINP		; ...READ THE LINE INTO INPUT BUFFER
	012756	012746 	000374'			MOV	#.CDINP,-(SP)
	012762	104375 				EMT	375
   8641	012764	103457 				BCS	70$		; ...GIVE CONSOLE INPUT FAILED ERROR
   8642	012766	105737 	000006'			TSTB	.CISTS		; ...TEST THE STATUS BYTE
   8643	012772	002454 				BLT	70$		; ...GIVE CONSOLE INPUT FAILED ERROR
   8644	012774	012737 	000362'	000452'		MOV	#.CIBFR,.LDOBP	; [5.1000]NO -- SET LOG,LPT OUTPUT BUFFER
   8645	013002	013737 	000010'	000454'		MOV	.CISTS+2,.LDOBC	; [5.1000]SET BYTE COUNT
   8646	013010	001402 				BEQ	15$		; [5.1000]NULL COMMAND?
   8647	013012					CALL	.TYOU1		; [5.1000]NO -- ECHO COMMAND TO LPT,LOG
	013012	004737 	015660'			 JSR	PC,.TYOU1
   8648	013016				15$:	CALL	.TCRLF		; ...ACKNOWLEDGE THE LINE
	013016	004737 	015552'			 JSR	PC,.TCRLF
   8649	013022	013703 	000010'			MOV	.CISTS+2,R3	; ...INPUT BYTE COUNT TO R3
   8650	013026	001415 				BEQ	40$		; ...NULL LINE IF .EQ. 0
   8651	013030				20$:
   8652	013030	112004 				MOVB	(R0)+,R4	; ...GET THE CHARACTER INTO R4
   8653	013032	001441 				BEQ	GTLILC		; ...ILLEGAL IF <NULL>
   8654	013034	105764 	001502'			TSTB	.CHTAB(R4)	; ...SEE IF IT IS A LEGAL CHARACTER
   8655	013040	002420 				BLT	50$		; ...NO -- SEE IF IT IS REALLY ILLEGAL
   8656
   8657					;	[CONTINUED ON THE FOLLOWING PAGE]
TYINP -- COMMAND PARSER COMMAND	MACRO M1113  03-APR-86 22:51  PAGE 224
.GTLIN -- SUBROUTINE TO INPUT A LINE FROM THE CONSOLE 7601.22

   8659					;	[CONTINUED FROM THE PREVIOUS PAGE]
   8660
   8661	013042				30$:
   8662	013042	110421 				MOVB	R4,(R1)+	; ...PUT IT INTO THE OUTPUT BUFFER
   8663	013044	005237 	000164'			INC	.INCHC		; ...INCREMENT THE CHARACTER COUNT
   8664	013050	023727 	000164'	000430 		CMP	.INCHC,#.CMNDL	; ...HAVE WE OVERFLOWED?
   8665	013056	003024 				BGT	GTLCBO		; ...YES -- GIVE ERROR
   8666	013060	077315 				SOB	R3,20$		; ...NO -- LOOP TILL DONE THIS LINE
   8667	013062				40$:
   8668	013062	105011 				CLRB	(R1)		; ...MARK THE END OF LINE
   8669	013064					POP	<R4,R3,R2,R0>	; ...RESTORE THE REGISTERS
	013064	012604 				 MOV	(SP)+,R4
	013066	012603 				 MOV	(SP)+,R3
	013070	012602 				 MOV	(SP)+,R2
	013072	012600 				 MOV	(SP)+,R0
   8670	013074	005737 	000164'			TST	.INCHC		; TEST THE INPUT BYTE COUNT
   8671	013100					RETURN			; TO CALLER
	013100	000207 				 RTS	PC
   8672	013102				50$:				; ...HERE TO CHECK ILLEGAL CHARACTERS
   8673	013102	122704 	000041 			CMPB	#'!,R4		; ...WAS IT A COMMENT?
   8674	013106	001765 				BEQ	40$		; ...YES -- JUST EXIT
   8675	013110	122704 	000011 			CMPB	#11,R4		; ...NO -- WAS IT A <TAB>?
   8679	013114	001010 				BNE	GTLILC		; ...NO -- GIVE "ILC" ERROR
   8681	013116	112704 	000040 			MOVB	#.SPACE,R4	; ...YES -- MAKE IT A <SPACE>
   8682	013122	000747 				BR	30$		; ...AND PUT IT IN THE BUFFER
   8683						;
   8694	013124				70$:
   8695	013124					CALLR	.EXITP		; EXIT GRACEFULLY
	013124	000137 	010110'			 JMP	.EXITP
   8696						;
   8697	013130				GTLCBO:
   8698	013130					ERROR$	CBO		; ERROR -- COMMAND BUFFER OVERFLOW
	013130	012746 	011437 			 MOV	#^RCBO,-(SP)
	013134	104400 				 TRAP	TC.ERR
   8699						;
   8700	013136				GTLILC:
   8701	013136					ERROR$	ILC		; ERROR -- ILLEGAL CHARACTER
	013136	012746 	035043 			 MOV	#^RILC,-(SP)
	013142	104400 				 TRAP	TC.ERR
   8702						;
   8703					; THIS IS THE CONSOLE INPUT DPB
   8704
   8705	000374				.PSECT	DPBS
   8706
   8707	000374				.CDINP::
   8708	000374					QIOW$	IO.RLB,CIDLUN,E.FCID,0,.CISTS,0,<.CIBFR,.CIBFL>
	000374	   003 	   010 			.BYTE	3,$$$ARG
	000376	000000G				.WORD	IO.RLB
	000400	000001 				.WORD	CIDLUN
	000402	   002 	   000 			.BYTE	E.FCID,0
	000404	000006'				.WORD	.CISTS
	000406	000000 				.WORD	0
	000410	000362'				.WORD	.CIBFR
	000412	000214 				.WORD	.CIBFL
   8709
   8710		000410'			.CDIBP=.CDINP+Q.IOPL		; CONSOLE INPUT BYTE POINTER
   8711		000412'			.CDIBC=.CDINP+Q.BYCT		; CONSOLE INPUT BYTE COUNT
TYINP -- COMMAND PARSER COMMAND	MACRO M1113  03-APR-86 22:51  PAGE 224-1
.GTLIN -- SUBROUTINE TO INPUT A LINE FROM THE CONSOLE 7601.22

   8712
   8713	013144				.PSECT
TYINP -- COMMAND PARSER COMMAND	MACRO M1113  03-APR-86 22:51  PAGE 225
.ELNCK -- TEST FOR A LEGAL PDP-11 NUMBER 7611.01

   8715					.SBTTL	.ELNCK -- TEST FOR A LEGAL PDP-11 NUMBER 7611.01
   8716
   8717					;+
   8718					; .ELNCK -- SUBROUTINE TO TEST FOR A LEGAL PDP-11 NUMBER
   8719					;
   8720					; THIS SUBROUTINE WILL TEST A NUMBER TO SEE IF IT IS A LEGAL PDP-11
   8721					; NUMBER. THIS IS REQUIRED BECAUSE THE NUMERIC INPUT ROUTINES HANDLE
   8722					; ONLY 36 BIT NUMBERS.
   8723					;
   8724					; INPUT ARGUMENTS:
   8725					;
   8726					;	R0 POINTS TO THE PDP-11 NUMBER TO BE TESTED
   8727					;
   8728					; OUTPUT ARGUMENTS:
   8729					;
   8730					;	R0 POINTS TO THE PDP-11 NUMBER
   8731					;
   8732					; ERROR CODES RETURNED:
   8733					;
   8734					;	NOR -- INPUT NUMBER OUT OF RANGE.
   8735					;-
   8736
   8737	013144				.ELNCK::
   8738	013144	032760 	000010 	000004 		BIT	#10,4(R0)	; IS THIS A NEGATIVE NUMBER?
   8739	013152	001411 				BEQ	10$		; NO -- POSITIVE
   8740	013154	022760 	177777 	000004 		CMP	#-^D1,4(R0)	; YES -- ARE ALL THE BITS ON?
   8741	013162	001014 				BNE	ELNNOR		; NO -- GIVE "NOR" ERROR
   8742	013164	022760 	177777 	000002 		CMP	#-^D1,2(R0)	; YES -- HOW ABOUT THE SECOND WORD?
   8743	013172	001010 				BNE	ELNNOR		; NO -- GIVE "NOR" ERROR
   8744	013174	000406 				BR	20$		; YES -- ALL OK, EXIT
   8745						;
   8746	013176				10$:
   8747	013176	005760 	000004 			TST	4(R0)		; SEE IF HIGH WORD IS .EQ. ZERO
   8748	013202	001004 				BNE	ELNNOR		; NO -- GIVE "NOR" ERROR
   8749	013204	005760 	000002 			TST	2(R0)		; IS SECOND WORD .EQ. ZERO?
   8750	013210	001001 				BNE	ELNNOR		; NO -- GIVE "NOR" ERROR
   8751	013212				20$:
   8752	013212					RETURN			; TO CALLER
	013212	000207 				 RTS	PC
   8753	013214				ELNNOR:
   8754	013214	000137 	014534'			JMP	GTNNOR		; GIVE "NOR" ERROR
   8755						;
TYINP -- COMMAND PARSER COMMAND	MACRO M1113  03-APR-86 22:51  PAGE 226
.GTELN -- SUBROUTINE TO GET A PDP-11 NUMBER 7602.05

   8757					.SBTTL	.GTELN -- SUBROUTINE TO GET A PDP-11 NUMBER 7602.05
   8758
   8759					;+
   8760					; .GTELN -- SUBROUTINE TO GET A PDP-11 NUMBER
   8761					;
   8762					; THIS SUBROUTINE WILL RETURN A PDP-11 NUMBER IN R0.
   8763					;
   8764					; INPUT ARGUMENTS:
   8765					;
   8766					;	NONE.
   8767					;
   8768					; OUTPUT ARGUMENTS:
   8769					;
   8770					;	R0 HOLDS THE PDP-11 NUMBER.
   8771					;
   8772					; ERROR CODES RETURNED:
   8773					;
   8774					;	NOR -- INPUT NUMBER OUT OF RANGE.
   8775					;-
   8776
   8777	013220				.GTELN::
   8778	013220	005046 				CLR	-(SP)		; CLEAR A BUFFER ON THE STACK
   8779	013222	005046 				CLR	-(SP)		; .
   8780	013224	005046 				CLR	-(SP)		; ..
   8781	013226	010600 				MOV	SP,R0		; ...
   8782	013230					CALL	.GTNUM		; ...GET A NUMBER
	013230	004737 	013302'			 JSR	PC,.GTNUM
   8783	013234					CALL	.ELNCK		; ...SEE IF IS REALLY A PDP-11 NUMBER
	013234	004737 	013144'			 JSR	PC,.ELNCK
   8784	013240	011000 				MOV	(R0),R0		; ...PUT THE NUMBER IN R0
   8785	013242	062706 	000006 			ADD	#^D6,SP		; ...RESET THE STACK
   8786	013246					RETURN			; TO CALLER
	013246	000207 				 RTS	PC
TYINP -- COMMAND PARSER COMMAND	MACRO M1113  03-APR-86 22:51  PAGE 227
.GTKLA -- SUBROUTINE TO GET A 22 BIT KL ADDRESS 7602.05

   8788					.SBTTL	.GTKLA -- SUBROUTINE TO GET A 22 BIT KL ADDRESS 7602.05
   8789
   8790					;+
   8791					; .GTKLA -- SUBROUTINE TO GET A 22 BIT KL ADDRESS.
   8792					;
   8793					; THIS SUBROUTINE WILL READ AND RETURN A 36 BIT NUMBER AS A 22 BIT
   8794					; ADDRESS IN THE BUFFER POINTED TO BY R0 IN THE CALL.
   8795					;
   8796					; INPUT ARGUMENTS:
   8797					;
   8798					;	R0 POINTS TO A THREE WORD BUFFER
   8799					;
   8800					; OUTPUT ARGUMENTS:
   8801					;
   8802					;	R0 POINTS TO THE 22 BIT KL ADDRESS
   8803					;
   8804					; ERROR CODES RETURNED:
   8805					;
   8806					;	KLA -- KL ADDRESS ERROR.
   8807					;	NOR -- NUMBER OUT OF RANGE
   8808					;-
   8809
   8810	013250				.GTKLA::
   8811	013250					CALL	.GTNUM		; GET A NUMBER
	013250	004737 	013302'			 JSR	PC,.GTNUM
   8812	013254	005760 	000004 			TST	4(R0)		; CHECK FOR A LEGAL ADDRESS
   8813	013260	001005 				BNE	GTKKLA		; BAD NEWS -- OUT OF RANGE
   8814	013262	032760 	177600 	000002 		BIT	#^C177,2(R0)	; LOOK AT SECOND WORD
   8815	013270	001001 				BNE	GTKKLA		; SAME HERE -- OUT OF RANGE
   8816	013272					RETURN			; TO CALLER
	013272	000207 				 RTS	PC
   8817	013274				GTKKLA:
   8818	013274					ERROR$	KLA		; ERROR -- KL ADDRESS ERROR
	013274	012746 	043241 			 MOV	#^RKLA,-(SP)
	013300	104400 				 TRAP	TC.ERR
   8819						;
TYINP -- COMMAND PARSER COMMAND	MACRO M1113  03-APR-86 22:51  PAGE 228
.GTNUM -- SUBROUTINE TO EVALUATE A NUMERIC EXPRESSION 7608.09

   8821					.SBTTL	.GTNUM -- SUBROUTINE TO EVALUATE A NUMERIC EXPRESSION 7608.09
   8822
   8823					;+
   8824					; .GTNUM -- SUBROUTINE TO EVALUATE A NUMERIC EXPRESSION
   8825					; .GTKLN -- ".GTNUM" BY ANOTHER NAME
   8826					;
   8827					; THIS SUBROUTINE WILL READ AND CONVERT A NUMERIC EXPRESSION FROM
   8828					; THE INPUT STREAM AND RETURN A POINTER TO THE NUMBER IN R0
   8829					;
   8830					; INPUT ARGUMENTS:
   8831					;
   8832					;	R0 POINTS TO THE DESTINATION OF THE NUMBER
   8833					;	R5 POINTS TO THE INPUT STREAM
   8834					;
   8835					; OUTPUT ARGUMENTS:
   8836					;
   8837					;	R0 POINTS TO THE NUMBER
   8838					;	R5 POINTS TO THE FIRST CHARACTER AFTER THE NUMBER
   8839					;
   8840					; ERROR CODES RETURNED:
   8841					;
   8842					;	ILC -- ILLEGAL CHARACTER.
   8843					;	NOR -- NUMBER OUT OF RANGE.
   8844					;-
   8845
   8846	013302				.GTNUM::
   8847	013302				.GTKLN::
   8848	013302					PUSH	R1		; SAVE R1
	013302	010146 				 MOV	R1,-(SP)
   8849	013304					CALL	.CKSYM		; .GET OVER LEADING BLANKS
	013304	004737 	000374'			 JSR	PC,.CKSYM
   8850	013310	122715 	000077 			CMPB	#'?,(R5)	; .IS THIS AN INQUIRY?
   8851	013314	001474 				BEQ	GTNNER		; .YES -- SAY SO
   8852	013316					CALL	.TPCLR		; .NO -- CLEAR CALLER'S NUMBER
	013316	004737 	011372'			 JSR	PC,.TPCLR
   8853	013322					CALL	.CKARG		; [5.1018]IS ARGUMENT NUMERIC?
	013322	004737 	000070'			 JSR	PC,.CKARG
   8854	013326	100403 				BMI	5$		; [5.1018]YES -- GET IT
   8855	013330					CALL	.GTOPC		; <*>NO -- DECODE OPCODE
	013330	004737 	013514'			 JSR	PC,.GTOPC
   8856	013334	000405 				BR	7$		; [5.1018]GET RIGHT HALF
   8857	013336				5$:	CALL	.GTEXP		; .READ THIS EXPRESSION
	013336	004737 	013706'			 JSR	PC,.GTEXP
   8858	013342	122715 	000040 			CMPB	#.SPACE,(R5)	; .IS THE TERMINATOR A <SPACE>?
   8859	013346	001053 				BNE	30$		; .NO -- JUST EXIT
   8860	013350				7$:	CALL	.CKARG		; .YES -- SEE IF NUMERIC ARGUMENT FOLLOWS
	013350	004737 	000070'			 JSR	PC,.CKARG
   8861	013354	001454 				BEQ	GTNNER		; .NOT NUMERIC -- GIVE "NER" ERROR
   8862	013356					CALL	.TPTST		; .NUMERIC -- SEE IF PREVIOUS IS NEGATIVE
	013356	004737 	011474'			 JSR	PC,.TPTST
   8863	013362	002407 				BLT	10$		; .NEGATIVE -- DON'T DO RANGE CHECK
   8864	013364	032760 	177774 	000002 		BIT	#^C3,2(R0)	; .IS THE NUMBER IN RANGE?
   8865	013372	001043 				BNE	GTNORE		; .NO -- GIVE "NOR" ERROR
   8866	013374	005760 	000004 			TST	4(R0)		; .IS IT REALLY IN RANGE?
   8867	013400	001040 				BNE	GTNORE		; .NO -- GIVE "NOR" ERROR
   8868
   8869					;	[CONTINUED ON THE FOLLOWING PAGE]
TYINP -- COMMAND PARSER COMMAND	MACRO M1113  03-APR-86 22:51  PAGE 229
.GTNUM -- SUBROUTINE TO EVALUATE A NUMERIC EXPRESSION 7608.09

   8871					;	[CONTINUED FROM THE PREVIOUS PAGE]
   8872
   8873	013402				10$:
   8874	013402	012701 	000022 			MOV	#^D18,R1	; .SHIFT COUNT TO R1
   8875	013406					CALL	.TPSHI		; .SHIFT IT
	013406	004737 	011772'			 JSR	PC,.TPSHI
   8876	013412	010001 				MOV	R0,R1		; .SAVE THE POINTER TO THE CURRENT NUMBER
   8877	013414	005046 				CLR	-(SP)		; .CLEAR A NEW BUFFER
   8878	013416	005046 				CLR	-(SP)		; ..
   8879	013420	005046 				CLR	-(SP)		; ...
   8880	013422	010600 				MOV	SP,R0		; ....POINT TO THE BUFFER
   8881	013424					PUSH	R1		; ....SAVE THE OLD POINTER
	013424	010146 				 MOV	R1,-(SP)
   8882	013426					CALL	.GTEXP		; .....READ THE NEW EXPRESSION
	013426	004737 	013706'			 JSR	PC,.GTEXP
   8883	013432					CALL	.CKEOS		; .....MUST HAVE E-O-S AT THIS POINT
	013432	004737 	000256'			 JSR	PC,.CKEOS
   8884	013436					CALL	.TPTST		; .....SEE IF THIS NUMBER IS NEGATIVE
	013436	004737 	011474'			 JSR	PC,.TPTST
   8885	013442	003005 				BGT	20$		; .....YES -- GO ON
   8886	013444	005060 	000004 			CLR	4(R0)		; .....YES -- FIX IT UP
   8887	013450	042760 	177774 	000002 		BIC	#^C3,2(R0)	; .....SO
   8888	013456				20$:
   8889	013456					POP	R1		; .....GET THE POINTER TO THE FIRST PART
	013456	012601 				 MOV	(SP)+,R1
   8890	013460	052021 				BIS	(R0)+,(R1)+	; ....ASSEMBLE THE NEW NUMBER
   8891	013462	052021 				BIS	(R0)+,(R1)+	; ....FROM BOTH HALVES
   8892	013464	051011 				BIS	(R0),(R1)	; ....SO
   8893	013466	062706 	000006 			ADD	#^D6,SP		; ....RESET THE STACK
   8894	013472	024141 				CMP	-(R1),-(R1)	; .BACK THE POINTER UP
   8895	013474	010100 				MOV	R1,R0		; .PUT IT IN R0
   8896	013476				30$:
   8897	013476					POP	R1		; .RESTORE R1
	013476	012601 				 MOV	(SP)+,R1
   8898	013500					RETURN			; TO CALLER
	013500	000207 				 RTS	PC
   8899	013502				GTNORE:
   8900	013502	000137 	014534'			JMP	GTNNOR		; GIVE "NOR" ERROR
   8901						;
   8902	013506				GTNNER:
   8903	013506					ERROR$	NER		; ERROR -- NUMERIC EXPRESSION REQUIRED
	013506	012746 	054132 			 MOV	#^RNER,-(SP)
	013512	104400 				 TRAP	TC.ERR
   8904						;
TYINP -- COMMAND PARSER COMMAND	MACRO M1113  03-APR-86 22:51  PAGE 230
.GTOPC -- KL I/O OPCODE DECODER FOR ".GTNUM"

   8906					.SBTTL	.GTOPC -- KL I/O OPCODE DECODER FOR ".GTNUM"
   8907
   8908					;+
   8909					; .GTOPC -- KL I/O OPCODE DECODER ROUTINE
   8910					;
   8911					; THIS ROUTINE WILL DECODE AN ARGUMENT OF THE FORM "FUNC DEV" WHERE
   8912					; FUNC IS ONE OF THE FOLLOWING "CONO,CONI,DATAO,DATAI,BLKO,BLKI,CONSO,
   8913					; CONSZ" AND DEV IS A DEVICE CODE. THE ROUTINE WILL RETURN IN THE THREE
   8914					; WORD BLOCK POINTED TO BY R0 THE LEFT HALF OF THE 36 BIT KL INSTRUCTION
   8915					; IN THE FIRST 18 BITS.
   8916
   8917					;	THIS ROUTINE ADDED FOR TCO 5.1018
   8918					;
   8919					; INPUT ARGUMENTS:
   8920					;
   8921					;	R0 POINTS TO THE 3 WORD DESTINATION BLOCK
   8922					;	R5 POINTS TO INPUT STREAM
   8923					;
   8924					; OUTPUT ARGUMENTS:
   8925					;
   8926					;	R0 POINTS TO NUMBER WITH LEFT HALF FILLED IN
   8927					;	R5 POINTS TO FIRST CHARACTER AFTER "FUNC DEV"
   8928					;
   8929					; ERROR CODES RETURNED:
   8930					;
   8931					;	ILI -- ILLEGAL INSTRUCTION
   8932					;	NER -- NUMERIC EXPRESSION REQUIRED
   8933					;	NOR -- NUMBER OUT OF RANGE
   8934					;-
   8935
   8936	013514				.GTOPC::
   8937	013514					PUSH	<R0,R1,R5>	; SAVE REGISTERS
	013514	010046 				 MOV	R0,-(SP)
	013516	010146 				 MOV	R1,-(SP)
	013520	010546 				 MOV	R5,-(SP)
   8938	013522	005010 				CLR	(R0)		; CLEAR BITS 20-35
   8939	013524	052710 	100000 			BIS	#100000,(R0)	; SET BIT 20 FOR I/O OPCODE
   8940	013530	052760 	000003 	000002 		BIS	#3,2(R0)	; SET BITS 18-19 FOR I/O OPCODE
   8941	013536	012701 	007276'			MOV	#IOTAB,R1	; TABLE PTR TO R1
   8942	013542	012100 			10$:	MOV	(R1)+,R0	; TEXT PTR TO R0
   8943	013544	001455 				BEQ	GTNILI		; TABLE DONE?
   8944	013546	011605 				MOV	(SP),R5		; RESTORE R5 (CHANGED ON PARTIAL MATCH)
   8945	013550					CALL	.SSCAN		; NO -- CHECK FOR MATCH
	013550	004737 	010774'			 JSR	PC,.SSCAN
   8946	013554	103772 				BCS	10$		; NO MATCH
   8947	013556	001371 				BNE	10$		; NOT EXACT MATCH
   8948	013560	005726 				TST	(SP)+		; R5 NO LONGER NEEDED
   8949	013562	162701 	007300'			SUB	#IOTAB+2,R1	; GET TABLE OFFSET
   8950	013566	006301 				ASL	R1		; PUT INSTR CODE IN POSITION
   8951	013570	006301 				ASL	R1
   8952	013572	006301 				ASL	R1
   8953	013574	006301 				ASL	R1
   8954	013576	016600 	000002 			MOV	2(SP),R0	; RESTORE R0
   8955	013602	050110 				BIS	R1,(R0)		; SET INSTR CODE
   8956	013604	122715 	000040 			CMPB	#' ,(R5)	; NEXT CHAR A SPACE?
   8957	013610	001033 				BNE	GTNILI		; NO -- ERROR
   8958	013612					CALL	.CKARG		; YES -- NEXT ARGUMENT NUMERIC?
TYINP -- COMMAND PARSER COMMAND	MACRO M1113  03-APR-86 22:51  PAGE 230-1
.GTOPC -- KL I/O OPCODE DECODER FOR ".GTNUM"

	013612	004737 	000070'			 JSR	PC,.CKARG
   8959	013616	100333 				BPL	GTNNER		; NO -- ERROR
   8960	013620					CALL	.GTELN		; YES -- GET DEVICE CODE
	013620	004737 	013220'			 JSR	PC,.GTELN
   8961	013624	020027 	000774 			CMP	R0,#774		; IN RANGE?
   8962	013630	101324 				BHI	GTNORE		; NO -- TOO LARGE ERROR
   8963	013632	032700 	000003 			BIT	#3,R0		; YES -- ILLEGAL BITS ON?
   8964	013636	001321 				BNE	GTNORE		; YES -- ERROR
   8965	013640	006300 				ASL	R0		; NO -- PUT DEVICE CODE IN POSITION
   8966	013642	006300 				ASL	R0
   8967	013644	006300 				ASL	R0
   8968	013646	006300 				ASL	R0
   8969	013650	006300 				ASL	R0
   8970	013652	006300 				ASL	R0
   8971	013654	010001 				MOV	R0,R1		; STORE VALUE IN R1
   8972	013656	016600 	000002 			MOV	2(SP),R0	; RESTORE R0
   8973	013662	050110 				BIS	R1,(R0)		; SET DEVICE CODE
   8974	013664	122725 	000054 			CMPB	#',,(R5)+	; NEXT CHAR A COMMA?
   8975	013670	001003 				BNE	GTNILI		; NO -- ERROR
   8976	013672					POP	<R1,R0>		; YES -- RESTORE REGISTERS
	013672	012601 				 MOV	(SP)+,R1
	013674	012600 				 MOV	(SP)+,R0
   8977	013676					RETURN
	013676	000207 				 RTS	PC
   8978						;
   8979	013700				GTNILI:
   8980	013700					ERROR$	ILI		; ERROR -- ILLEGAL INSTRUCTION
	013700	012746 	035051 			 MOV	#^RILI,-(SP)
	013704	104400 				 TRAP	TC.ERR
   8981						;
   8982
   8983	007276				.PSECT	DATA
   8984
   8985	007276				IOTAB:
   8986	007276	002232'				.WORD	BLKIS
   8987	007300	002237'				.WORD	DATAIS
   8988	007302	002245'				.WORD	BLKOS
   8989	007304	002252'				.WORD	DATAOS
   8990	007306	002260'				.WORD	CONOS
   8991	007310	002265'				.WORD	CONIS
   8992	007312	002272'				.WORD	CONSZS
   8993	007314	002300'				.WORD	CONSOS
   8994	007316	000000 				.WORD	0
   8995
   8996	002232				.PSECT	MESSAG
   8997
   8998	002232	   102 	   114 	   113 	BLKIS:	.ASCIZ	/BLKI/
	002235	   111 	   000
   8999	002237	   104 	   101 	   124 	DATAIS:	.ASCIZ	/DATAI/
	002242	   101 	   111 	   000
   9000	002245	   102 	   114 	   113 	BLKOS:	.ASCIZ	/BLKO/
	002250	   117 	   000
   9001	002252	   104 	   101 	   124 	DATAOS:	.ASCIZ	/DATAO/
	002255	   101 	   117 	   000
   9002	002260	   103 	   117 	   116 	CONOS:	.ASCIZ	/CONO/
	002263	   117 	   000
   9003	002265	   103 	   117 	   116 	CONIS:	.ASCIZ	/CONI/
TYINP -- COMMAND PARSER COMMAND	MACRO M1113  03-APR-86 22:51  PAGE 230-2
.GTOPC -- KL I/O OPCODE DECODER FOR ".GTNUM"

	002270	   111 	   000
   9004	002272	   103 	   117 	   116 	CONSZS:	.ASCIZ	/CONSZ/
	002275	   123 	   132 	   000
   9005	002300	   103 	   117 	   116 	CONSOS:	.ASCIZ	/CONSO/
	002303	   123 	   117 	   000
   9006
   9007	013706				.PSECT
TYINP -- COMMAND PARSER COMMAND	MACRO M1113  03-APR-86 22:51  PAGE 231
.GTEXP -- EXPRESSION EVALUATOR FOR ".GTNUM" 7603.03

   9009					.SBTTL	.GTEXP -- EXPRESSION EVALUATOR FOR ".GTNUM" 7603.03
   9010
   9011					;+
   9012					; .GTEXP -- EXPRESSION EVALUATOR FOR ".GTNUM"
   9013					;
   9014					; THIS ROUTINE EVALUATES NUMERIC EXPRESSIONS FOR ".GTNUM".
   9015					;
   9016					; DEFINITION OF AN EXPRESSION:
   9017					;
   9018					; EXP=TERM+TERM!TERM-TERM!TERM+TERM+....!TERM-TERM-....!TERM
   9019					;
   9020					; INPUT ARGUMENTS:
   9021					;
   9022					;	R0 POINTS TO A THREE WORD BUFFER
   9023					;
   9024					; OUTPUT ARGUMENTS:
   9025					;
   9026					;	R0 POINTS TO THE EVALUATED EXPRESSION
   9027					;
   9028					; ERROR CODES RETURNED:
   9029					;
   9030					;	NONE.
   9031					;-
   9032
   9033	013706				.GTEXP::
   9034	013706					CALL	.GTTRM		; GET THE NEXT TERM
	013706	004737 	014002'			 JSR	PC,.GTTRM
   9035	013712				10$:
   9036	013712	122715 	000053 			CMPB	#'+,(R5)	; DID HE SAY ADD?
   9037	013716	001404 				BEQ	20$		; YES -- GO DO THE ADDITION
   9038	013720	122715 	000055 			CMPB	#'-,(R5)	; NO -- DID HE SAY SUBTRACT?
   9039	013724	001404 				BEQ	30$		; YES -- GO DO THE SUBTRACTION
   9040	013726					RETURN			; NO -- JUST RETURN
	013726	000207 				 RTS	PC
   9041
   9042					;	[CONTINUED ON THE FOLLOWING PAGE]
TYINP -- COMMAND PARSER COMMAND	MACRO M1113  03-APR-86 22:51  PAGE 232
.GTEXP -- EXPRESSION EVALUATOR FOR ".GTNUM" 7603.03

   9044					;	[CONTINUED FROM THE PREVIOUS PAGE]
   9045
   9046	013730				20$:
   9047	013730	012702 	011516'			MOV	#.TPADD,R2	; DISPATCH ADDRESS TO R2
   9048	013734	000402 				BR	40$		; TO COMMON ROUTINE
   9049						;
   9050	013736				30$:
   9051	013736	012702 	011562'			MOV	#.TPSUB,R2	; DISPATCH ADDRESS TO R2
   9052	013742				40$:
   9053	013742	112504 				MOVB	(R5)+,R4	; GET OVER THE OPERATOR CHARACTER
   9054	013744	005046 				CLR	-(SP)		; CLEAR A BUFFER ON THE STACK
   9055	013746	005046 				CLR	-(SP)		; .
   9056	013750	005046 				CLR	-(SP)		; ..
   9057	013752	010601 				MOV	SP,R1		; ...SCRATCH POINTER TO R1
   9058	013754					PUSH	R2		; ...SAVE THE DISPATCH ADDRESS
	013754	010246 				 MOV	R2,-(SP)
   9059	013756					PUSH	R0		; ....AND PREVIOUS POINTER
	013756	010046 				 MOV	R0,-(SP)
   9060	013760	010100 				MOV	R1,R0		; .....CURRENT POINTER TO R0
   9061	013762					CALL	.GTTRM		; .....GET THE NEXT TERM
	013762	004737 	014002'			 JSR	PC,.GTTRM
   9062	013766	010001 				MOV	R0,R1		; .....CURRENT POINTER TO R1
   9063	013770					POP	R0		; .....RESTORE PREVIOUS POINTER
	013770	012600 				 MOV	(SP)+,R0
   9064	013772					CALL	@(SP)+		; ....DO THE ADDITION OR SUBTRACTION
	013772	004736 				 JSR	PC,@(SP)+
   9065	013774	062706 	000006 			ADD	#^D6,SP		; ...RESET THE STACK
   9066	014000	000744 				BR	10$		; AND SEE IF THERE IS MORE
   9067						;
TYINP -- COMMAND PARSER COMMAND	MACRO M1113  03-APR-86 22:51  PAGE 233
.GTTRM -- TERM EVALUATOR FOR ".GTNUM" 7603.03

   9069					.SBTTL	.GTTRM -- TERM EVALUATOR FOR ".GTNUM" 7603.03
   9070
   9071					;+
   9072					; .GTTRM -- TERM EVALUATOR FOR ".GTNUM"
   9073					;
   9074					; THIS ROUTINE EVALUATES NUMERIC TERMS FOR ".GTNUM".
   9075					;
   9076					; DEFINITION OF A TERM:
   9077					;
   9078					; TERM=FACTOR*FACTOR!FACTOR/FACTOR!FACTOR*FACTOR*....!FACTOR/FACTOR/....!FACTOR
   9079					;
   9080					; INPUT ARGUMENTS:
   9081					;
   9082					;	R0 POINTS TO A THREE WORD BUFFER
   9083					;
   9084					; OUTPUT ARGUMENTS:
   9085					;
   9086					;	R0 POINTS TO THE EVALUATED TERM
   9087					;
   9088					; ERROR CODES RETURNED:
   9089					;
   9090					;	NONE.
   9091					;-
   9092
   9093	014002				.GTTRM::
   9094	014002					CALL	.GTFCT		; GET THE NEXT FACTOR
	014002	004737 	014114'			 JSR	PC,.GTFCT
   9095	014006	001411 				BEQ	20$		; EXIT IF NULL ARGUMENT
   9096	014010				10$:
   9097	014010	122715 	000137 			CMPB	#'_,(R5)	; DID HE SAY SHIFT?
   9098	014014	001407 				BEQ	30$		; YES -- GO DO THE SHIFT
   9099	014016	122715 	000052 			CMPB	#'*,(R5)	; NO -- DID HE SAY MULTIPLY?
   9100	014022	001412 				BEQ	50$		; YES -- GO DO THE MULTIPLICATION
   9101	014024	122715 	000057 			CMPB	#'/,(R5)	; NO -- DID HE SAY DIVIDE?
   9102	014030	001404 				BEQ	40$		; YES -- GO DO THE DIVISION
   9103	014032				20$:
   9104	014032					RETURN			; NO -- JUST RETURN
	014032	000207 				 RTS	PC
   9105
   9106					;	[CONTINUED ON THE FOLLOWING PAGE]
TYINP -- COMMAND PARSER COMMAND	MACRO M1113  03-APR-86 22:51  PAGE 234
.GTTRM -- TERM EVALUATOR FOR ".GTNUM" 7603.03

   9108					;	[CONTINUED FROM THE PREVIOUS PAGE]
   9109
   9110	014034				30$:
   9111	014034	012702 	012036'			MOV	#.TPSHL,R2	; DISPATCH TO R2
   9112	014040	000405 				BR	60$		; TO COMMON CODE
   9113						;
   9114	014042				40$:
   9115	014042	012702 	011160'			MOV	#.TPDIV,R2	; DISPATCH TO R2
   9116	014046	000402 				BR	60$		; TO COMMON ROUTINE
   9117						;
   9118	014050				50$:
   9119	014050	012702 	011606'			MOV	#.TPMUL,R2	; DISPATCH TO R2
   9120	014054				60$:
   9121	014054	112504 				MOVB	(R5)+,R4	; GET OVER THE OPERATOR CHARACTER
   9122	014056	005046 				CLR	-(SP)		; CREATE A SCRATCH BUFFER ON THE STACK
   9123	014060	005046 				CLR	-(SP)		; .
   9124	014062	005046 				CLR	-(SP)		; ..
   9125	014064	010601 				MOV	SP,R1		; ...SCRATCH POINTER TO R1
   9126	014066					PUSH	R2		; ...SAVE THE DISPATCH POINTER
	014066	010246 				 MOV	R2,-(SP)
   9127	014070					PUSH	R0		; ....SAVE PREVIOUS NUMBER POINTER
	014070	010046 				 MOV	R0,-(SP)
   9128	014072	010100 				MOV	R1,R0		; .....CURRENT POINTER TO R0
   9129	014074					CALL	.GTFCT		; .....GET THE NEXT FACTOR
	014074	004737 	014114'			 JSR	PC,.GTFCT
   9130	014100	010001 				MOV	R0,R1		; .....POINTER TO R1
   9131	014102					POP	R0		; .....PREVIOUS POINTER TO R0
	014102	012600 				 MOV	(SP)+,R0
   9132	014104					CALL	@(SP)+		; ....DO DIVISION OR MULTIPLICATION
	014104	004736 				 JSR	PC,@(SP)+
   9133	014106	062706 	000006 			ADD	#^D6,SP		; ...CLEAR THE STACK
   9134	014112	000736 				BR	10$		; AND SEE IF THERE IS MORE
   9135						;
TYINP -- COMMAND PARSER COMMAND	MACRO M1113  03-APR-86 22:51  PAGE 235
.GTFCT -- FACTOR EVALUATOR FOR ".GTNUM" 7603.03

   9137					.SBTTL	.GTFCT -- FACTOR EVALUATOR FOR ".GTNUM" 7603.03
   9138
   9139					;+
   9140					; .GTFCT -- FACTOR EVALUATOR FOR ".GTNUM"
   9141					;
   9142					; THIS ROUTINE EVALUATES NUMERIC FACTORS FOR ".GTNUM".
   9143					;
   9144					; DEFINITION OF AN FACTOR:
   9145					;
   9146					; FACTOR=(EXP)!+FACTOR!-FACTOR!NUMBER
   9147					;
   9148					; INPUT ARGUMENTS:
   9149					;
   9150					;	R0 POINTS TO A THREE WORD BUFFER
   9151					;
   9152					; OUTPUT ARGUMENTS:
   9153					;
   9154					;	R0 POINTS TO THE EVALUATED FACTOR
   9155					;
   9156					; ERROR CODES RETURNED:
   9157					;
   9158					;	NONE.
   9159					;-
   9160
   9161						.ENABL	LSB
   9162
   9163	014114				.GTFCT::
   9164	014114	122715 	000136 			CMPB	#'^,(R5)	; SPECIAL RADIX?
   9165	014120	001435 				BEQ	30$		; YES -- GO HANDLE IT
   9166	014122	122715 	000050 			CMPB	#'(,(R5)	; NO -- DOES THE FIRST CHARACTER OPEN EXPRESSION?
   9167	014126	001517 				BEQ	65$		; YES -- GO HANDLE IT
   9168	014130	122715 	000053 			CMPB	#'+,(R5)	; NO -- IS IT A <PLUS>?
   9169	014134	001503 				BEQ	60$		; YES -- GO HANDLE <PLUS>
   9170	014136	122715 	000055 			CMPB	#'-,(R5)	; NO -- IS IT A <MINUS>?
   9171	014142	001500 				BEQ	60$		; YES -- GO HANDLE <MINUS>
   9172	014144					CALL	.GTNBR		; NO -- GO GET A NUMBER
	014144	004737 	014410'			 JSR	PC,.GTNBR
   9173	014150				10$:
   9174	014150	122715 	000047 			CMPB	#'',(R5)	; RELOCATE?
   9175	014154	001404 				BEQ	20$		; YES -- DO IT
   9176	014156	122715 	000042 			CMPB	#'",(R5)	; NO -- UNRELOCATE?
   9177	014162	001401 				BEQ	20$		; YES -- DO IT
   9178	014164				15$:
   9179	014164					RETURN			; TO CALLER
	014164	000207 				 RTS	PC
   9180
   9181					;	[CONTINUED ON THE FOLLOWING PAGE]
TYINP -- COMMAND PARSER COMMAND	MACRO M1113  03-APR-86 22:51  PAGE 236
.GTFCT -- FACTOR EVALUATOR FOR ".GTNUM" 7603.03

   9183					;	[CONTINUED FROM THE PREVIOUS PAGE]
   9184
   9185	014166				20$:
   9186	014166					PUSH	R1		; SAVE R1
	014166	010146 				 MOV	R1,-(SP)
   9187	014170	013701 	000242'			MOV	.RELWD,R1	; .RELOCATION TO R1
   9188	014174	122715 	000042 			CMPB	#'",(R5)	; .UNRELOCATE?
   9189	014200	001001 				BNE	25$		; .NO -- GO ON
   9190	014202	005401 				NEG	R1		; .YES -- NEGATE IT
   9191	014204				25$:
   9192	014204	060110 				ADD	R1,(R0)		; .COMPUTE THE FACTOR
   9193	014206	105725 				TSTB	(R5)+		; .GET OVER THE SYMBOL
   9194	014210					POP	R1		; .RESTORE R1
	014210	012601 				 MOV	(SP)+,R1
   9195	014212	000764 				BR	15$		; AND EXIT
   9196						;
   9197	014214				30$:
   9198	014214	105725 				TSTB	(R5)+		; GET OVER THE UP-ARROW
   9199	014216	112546 				MOVB	(R5)+,-(SP)	; SAVE THE NEXT CHARACTER
   9200	014220					CALL	.CKARG		; .LOOK FOR A TRAILING ARGUMENT
	014220	004737 	000070'			 JSR	PC,.CKARG
   9201	014224	001417 				BEQ	GTFILC		; .ERROR IF CC-Z IS SET
   9202	014226					POP	R4		; .RESTORE THE CHARACTER
	014226	012604 				 MOV	(SP)+,R4
   9203	014230	122704 	000103 			CMPB	#'C,R4		; .COMPLEMENT?
   9204	014234	001436 				BEQ	55$		; .YES -- PROCESS COMPLEMENT
   9205	014236					PUSH	.IRADX		; .NO -- SAVE THE CURRENT RADIX
	014236	013746 	000166'			 MOV	.IRADX,-(SP)
   9206	014242	122704 	000104 			CMPB	#'D,R4		; .DECIMAL?
   9207	014246	001415 				BEQ	40$		; .YES -- PROCESS DECIMAL
   9208	014250	122704 	000102 			CMPB	#'B,R4		; .NO -- BINARY?
   9209	014254	001406 				BEQ	35$		; .YES -- PROCESS BINARY
   9210	014256	122704 	000117 			CMPB	#'O,R4		; .NO -- OCTAL?
   9211	014262	001413 				BEQ	45$		; .YES -- PROCESS OCTAL
   9212	014264				GTFILC:
   9213	014264					ERROR$	ILC		; .NO -- GIVE "ILC" ERROR
	014264	012746 	035043 			 MOV	#^RILC,-(SP)
	014270	104400 				 TRAP	TC.ERR
   9214						;
   9215
   9216					;	[CONTINUED ON THE FOLLOWING PAGE]
TYINP -- COMMAND PARSER COMMAND	MACRO M1113  03-APR-86 22:51  PAGE 237
.GTFCT -- FACTOR EVALUATOR FOR ".GTNUM" 7603.03

   9218					;	[CONTINUED FROM THE PREVIOUS PAGE]
   9219
   9220	014272				35$:
   9221	014272	012737 	000002 	000166'		MOV	#^D2,.IRADX	; .SET THE RADIX TO BINARY
   9222	014300	000407 				BR	50$		; .TO COMMON CODE
   9223						;
   9224	014302				40$:
   9225	014302	012737 	000012 	000166'		MOV	#^D10,.IRADX	; .SET THE RADIX TO DECIMAL
   9226	014310	000403 				BR	50$		; .TO COMMON CODE
   9227						;
   9228	014312				45$:
   9229	014312	012737 	000010 	000166'		MOV	#^D8,.IRADX	; .SET THE RADIX TO OCTAL
   9230	014320				50$:
   9231	014320					CALL	.GTFCT		; .GET THE FACTOR
	014320	004737 	014114'			 JSR	PC,.GTFCT
   9232	014324					POP	.IRADX		; .RESTORE THE ORIGINAL RADIX
	014324	012637 	000166'			 MOV	(SP)+,.IRADX
   9233	014330	000707 				BR	10$		; AND EXIT
   9234						;
   9235	014332				55$:
   9236	014332					CALL	.GTFCT		; GET THE FACTOR
	014332	004737 	014114'			 JSR	PC,.GTFCT
   9237	014336					CALL	.TPCOM		; AND INVERT IT
	014336	004737 	011402'			 JSR	PC,.TPCOM
   9238	014342	000702 				BR	10$		; EXIT
   9239						;
   9240	014344				60$:
   9241	014344	112546 				MOVB	(R5)+,-(SP)	; SAVE THE NEXT CHARACTER
   9242	014346					CALL	.GTFCT		; .GO LOOK FOR MORE
	014346	004737 	014114'			 JSR	PC,.GTFCT
   9243	014352	122726 	000055 			CMPB	#'-,(SP)+	; .WAS THE PREFIX A <MINUS>?
   9244	014356	001274 				BNE	10$		; NO -- JUST EXIT
   9245	014360					CALL	.TPNEG		; YES -- NEGATE IT
	014360	004737 	011412'			 JSR	PC,.TPNEG
   9246	014364	000671 				BR	10$		; AND EXIT
   9247						;
   9248	014366				65$:
   9249	014366	112504 				MOVB	(R5)+,R4	; GET OVER THE PAREN
   9250	014370					CALL	.GTEXP		; READ THIS EXPRESSION
	014370	004737 	013706'			 JSR	PC,.GTEXP
   9251	014374	122725 	000051 			CMPB	#'),(R5)+	; DID WE END IT PROPERLY?
   9252	014400	001663 				BEQ	10$		; YES -- JUST EXIT
   9253	014402					ERROR$	RPM		; NO -- ERROR -- RIGHT PARENTHESES MISSING
	014402	012746 	071415 			 MOV	#^RRPM,-(SP)
	014406	104400 				 TRAP	TC.ERR
   9254						;
   9255
   9256						.DSABL	LSB
TYINP -- COMMAND PARSER COMMAND	MACRO M1113  03-APR-86 22:51  PAGE 238
.GTNBR -- NUMBER EVALUATOR FOR ".GTNUM" 7603.03

   9258					.SBTTL	.GTNBR -- NUMBER EVALUATOR FOR ".GTNUM" 7603.03
   9259
   9260					;+
   9261					; .GTNBR -- NUMBER EVALUATOR FOR ".GTNUM"
   9262					;
   9263					; THIS ROUTINE EVALUATES NUMBERS FOR ".GTNUM".
   9264					;
   9265					; INPUT ARGUMENTS:
   9266					;
   9267					;	R0 POINTS TO A THREE WORD BUFFER
   9268					;
   9269					; OUTPUT ARGUMENTS:
   9270					;
   9271					;	R0 POINTS TO THE EVALUATED NUMBER
   9272					;
   9273					; ERROR CODES RETURNED:
   9274					;
   9275					;	NONE.
   9276					;-
   9277
   9278	014410				.GTNBR::
   9279	014410	005037 	000164'			CLR	.INCHC		; CLEAR THE CHARACTER COUNT
   9280	014414					PUSH	R1		; SAVE R1
	014414	010146 				 MOV	R1,-(SP)
   9281	014416	005046 				CLR	-(SP)		; .SET UP THE INPUT RADIX
   9282	014420	005046 				CLR	-(SP)		; ..
   9283	014422					PUSH	.IRADX		; ...SO
	014422	013746 	000166'			 MOV	.IRADX,-(SP)
   9284	014426	010601 				MOV	SP,R1		; ....POINT TO THE INPUT RADIX
   9285	014430				10$:
   9286	014430	112504 				MOVB	(R5)+,R4	; ....GET THE CHARACTER INTO R4
   9287	014432	132764 	000002 	001502'		BITB	#CH.NUM,.CHTAB(R4)
   9288	014440	001422 				BEQ	20$		; ....EXIT IF NON-NUMERIC
   9289	014442	005237 	000164'			INC	.INCHC		; ....INCREMENT THE CHARACTER COUNT
   9290	014446	142704 	177760 			BICB	#^C17,R4	; ....FLUSH ASCII
   9291	014452	120411 				CMPB	R4,(R1)		; ....DID WE EXCEED THE INPUT RADIX?
   9292	014454	002027 				BGE	GTNNOR		; ....YES -- GIVE "NOR" ERROR
   9293	014456					CALL	.TPMUL		; ....NO -- MAKE ROOM FOR THIS DIGIT
	014456	004737 	011606'			 JSR	PC,.TPMUL
   9294	014462					PUSH	(R1)		; ....SAVE THE RADIX
	014462	011146 				 MOV	(R1),-(SP)
   9295	014464	010411 				MOV	R4,(R1)		; .....SET UP TO ADD THIS DIGIT
   9296	014466					CALL	.TPADD		; .....TO THE CUMULATIVE RESULT
	014466	004737 	011516'			 JSR	PC,.TPADD
   9297	014472	032760 	177760 	000004 		BIT	#^C17,4(R0)	; .....HAVE WE OVERFLOWED THE NUMBER?
   9298	014500	001015 				BNE	GTNNOR		; .....YES -- GIVE "NOR" ERROR
   9299	014502					POP	(R1)		; .....NO -- RESTORE THE RADIX
	014502	012611 				 MOV	(SP)+,(R1)
   9300	014504	000751 				BR	10$		; ....AND CONTINUE
   9301						;
   9302
   9303					;	[CONTINUED ON THE FOLLOWING PAGE]
TYINP -- COMMAND PARSER COMMAND	MACRO M1113  03-APR-86 22:51  PAGE 239
.GTNBR -- NUMBER EVALUATOR FOR ".GTNUM" 7603.03

   9305					;	[CONTINUED FROM THE PREVIOUS PAGE]
   9306
   9307	014506				20$:
   9308	014506	062706 	000006 			ADD	#^D6,SP		; ....FLUSH THE STACK
   9309	014512					POP	R1		; .RESTORE R1
	014512	012601 				 MOV	(SP)+,R1
   9310	014514	105745 				TSTB	-(R5)		; BACK THE INPUT POINTER UP
   9311	014516	005737 	000164'			TST	.INCHC		; LOOK AT THE CHARACTER COUNT
   9312	014522	001401 				BEQ	GTNMRA		; GIVE "MRA" ERROR IF NONE THERE
   9313	014524					RETURN			; TO CALLER
	014524	000207 				 RTS	PC
   9314	014526				GTNMRA:
   9315	014526					ERROR$	MRA		; ERROR -- MISSING REQUIRED ARGUMENT
	014526	012746 	052021 			 MOV	#^RMRA,-(SP)
	014532	104400 				 TRAP	TC.ERR
   9316						;
   9317	014534				GTNNOR:
   9318	014534					ERROR$	NOR		; ERROR -- NUMBER OUT OF RANGE
	014534	012746 	054752 			 MOV	#^RNOR,-(SP)
	014540	104400 				 TRAP	TC.ERR
   9319						;
TYOUT -- GENERAL TERMINAL OUTPU	MACRO M1113  03-APR-86 22:51  PAGE 241
.GTNBR -- NUMBER EVALUATOR FOR ".GTNUM" 7603.03

   9322					.TITLE	TYOUT -- GENERAL TERMINAL OUTPUT MODULE 7603.30
   9323
   9324						.IDENT	"006110"
   9325
   9326					;
   9327					;                             COPYRIGHT (C) 1975, 1984, 1985 BY
   9328					;                     DIGITAL EQUIPMENT CORPORATION, MAYNARD MASS.
   9329					;			ALL RIGHTS RESERVED.
   9330					;       THIS SOFTWARE IS FURNISHED UNDER A LICENSE AND MAY BE  USED  AND  COPIED
   9331					;       ONLY IN ACCORDANCE WITH THE TERMS OF SUCH LICENSE AND WITH THE INCLUSION
   9332					;       OF THE ABOVE COPYRIGHT NOTICE.  THIS SOFTWARE OR ANY OTHER COPIES THERE-
   9333					;       OF  MAY NOT BE PROVIDED OR OTHERWISE MADE AVAILABLE TO ANY OTHER PERSON.
   9334					;       NO TITLE TO OR OWNERSHIP OF THE SOFTWARE IS HEREBY TRANSFERRED.
   9335					;
   9336					;       THE INFORMATION CONTAINED IN THIS SOFTWARE IS SUBJECT TO CHANGE  WITHOUT
   9337					;       NOTICE  AND SHOULD NOT BE CONSTRUED AS A COMMITMENT BY DIGITAL EQUIPMENT
   9338					;       CORPORATION.
   9339					;
   9340					;       DIGITAL ASSUMES NO RESPONSIBILITY FOR THE  USE  OR  RELIABILITY  OF  ITS
   9341					;       SOFTWARE ON EQUIPMENT WHICH IS NOT SUPPILED BY DIGITAL.
   9342					;
   9343					;		MODULE: GENERAL TERMINAL OUTPUT
   9344					;
   9345					;		VERSION: 06-11
   9346					;
   9347					;		AUTHOR: R. BELANGER
   9348					;
   9349					;		DATE: 7603.30
   9350					;
   9351					;	THIS MODULE CONTAINS:
   9352					;
   9353					;	1) GENERAL TERMINAL OUTPUT CODE
   9354					;
   9355					;  MODIFICATIONS:
   9356					;
   9357					;	NO.	DATE		PROGRAMMER	REASON
   9358					;	---	----		----------	------
   9359					;    [5.1000]	24-AUG-79	K. LEFEBVRE	ADD LINE PRINTER SUPPORT
TYOUT -- GENERAL TERMINAL OUTPU	MACRO M1113  03-APR-86 22:51  PAGE 242
.TYAST -- SPECIAL CHARACTER OUTPUT SUBROUTINES 7601.23

   9361					.SBTTL	.TYAST -- SPECIAL CHARACTER OUTPUT SUBROUTINES 7601.23
   9362
   9363					;+
   9364					; .TYAST -- SUBROUTINE TO TYPE AN <ASTERISK> ON THE CONSOLE OUTPUT DEVICE.
   9365					; .TYCOL -- SUBROUTINE TO TYPE A <COLON> ON THE CONSOLE OUTPUT DEVICE.
   9366					; .TYCOM -- SUBROUTINE TO TYPE A <COMMA> ON THE CONSOLE OUTPUT DEVICE.
   9367					; .TYMIN -- SUBROUTINE TO TYPE A <MINUS> ON THE CONSOLE OUTPUT DEVICE.
   9368					; .TYSLS -- SUBROUTINE TO TYPE A <SLASH> ON THE CONSOLE OUTPUT DEVICE.
   9369					; .TYSPC -- SUBROUTINE TO TYPE A <SPACE> ON THE CONSOLE OUTPUT DEVICE.
   9370					; .TYUPA -- SUBROUTINE TO TYPE AN <UP-ARROW> ON THE CONSOLE OUTPUT DEVICE.
   9371					;
   9372					; THESE SUBROUTINES TYPE THE INDICATED CHARACTER(S) ON THE CONSOLE
   9373					; OUTPUT DEVICE.
   9374					;
   9375					; INPUT ARGUMENTS:
   9376					;
   9377					;	NONE.
   9378					;
   9379					; OUTPUT ARGUMENTS:
   9380					;
   9381					;	NONE.
   9382					;
   9383					; ERROR CODES RETURNED:
   9384					;
   9385					;	IF THE CONSOLE OUTPUT FAILS, THE PARSER EXITS.
   9386					;-
TYOUT -- GENERAL TERMINAL OUTPU	MACRO M1113  03-APR-86 22:51  PAGE 243
.TYAST -- SPECIAL CHARACTER OUTPUT SUBROUTINES 7601.23

   9388						.ENABL	LSB
   9389
   9390	014542				.TYCOL::
   9391	014542					PUSH	R0		; SAVE R0
	014542	010046 				 MOV	R0,-(SP)
   9392	014544	012700 	000072 			MOV	#':,R0		; .<COLON> TO R0
   9393	014550	000423 				BR	10$		; .DO OUTPUT
   9394						;
   9395	014552				.TYCOM::
   9396	014552					PUSH	R0		; SAVE R0
	014552	010046 				 MOV	R0,-(SP)
   9397	014554	012700 	000054 			MOV	#',,R0		; .<COMMA> TO R0
   9398	014560	000417 				BR	10$		; .OUTPUT IT
   9399						;
   9400	014562				.TYMIN::
   9401	014562					PUSH	R0		; SAVE R0
	014562	010046 				 MOV	R0,-(SP)
   9402	014564	012700 	000055 			MOV	#'-,R0		; <HYPHEN> TO R0
   9403	014570	000413 				BR	10$		; .DO OUTPUT
   9404						;
   9405	014572				.TYSLS::
   9406	014572					PUSH	R0		; SAVE R0
	014572	010046 				 MOV	R0,-(SP)
   9407	014574	012700 	000057 			MOV	#'/,R0		; .<SLASH> TO R0
   9408	014600	000407 				BR	10$		; .OUTPUT IT
   9409						;
   9410	014602				.TYSPC::
   9411	014602					PUSH	R0		; SAVE R0
	014602	010046 				 MOV	R0,-(SP)
   9412	014604	012700 	000040 			MOV	#.SPACE,R0	; .<SPACE> TO R0
   9413	014610	000403 				BR	10$		; .OUTPUT IT
   9414						;
   9415	014612				.TYUPA::
   9416	014612					PUSH	R0		; SAVE R0
	014612	010046 				 MOV	R0,-(SP)
   9417	014614	012700 	000136 			MOV	#'^,R0		; .<UP-ARROW> TO R0
   9418	014620				10$:
   9419	014620					CALL	.TYCHR		; .OUTPUT IT
	014620	004737 	015520'			 JSR	PC,.TYCHR
   9420	014624					POP	R0		; .RESTORE R0
	014624	012600 				 MOV	(SP)+,R0
   9421	014626					RETURN			; TO CALLER
	014626	000207 				 RTS	PC
   9422
   9423						.DSABL	LSB
TYOUT -- GENERAL TERMINAL OUTPU	MACRO M1113  03-APR-86 22:51  PAGE 244
.TYACE -- TYPE AC ADDR AND CONTENTS

   9425					.SBTTL	.TYACE -- TYPE AC ADDR AND CONTENTS
   9426
   9427					;+
   9428					; .TYACE -- SUBROUTINE TO TYPE AC ADDR AND CONTENTS
   9429					;
   9430					; THIS ROUTINE WILL TYPE:
   9431					;	N:AAAAAA/ DDDDDD DDDDDD
   9432					;	   N-AC BLOCK NUMBER
   9433					;	   A-AC ADDR
   9434					;	   D-AC DATA
   9435					;
   9436					; INPUT ARGUMENTS:
   9437					;
   9438					;		+---------------+
   9439					;	R0=>	! BLOCK ! ADDR  !
   9440					;		+---------------+
   9441					;		! KL BITS 20-35 !
   9442					;		+---------------+
   9443					;		! KL BITS 4-19  !
   9444					;		+---------------+
   9445					;		! KL BITS 0-3   !
   9446					;		+---------------+
   9447					;
   9448					; OUTPUT ARGUMENTS:
   9449					;
   9450					;	NONE
   9451					;
   9452					; ERROR CODES RETURNED:
   9453					;
   9454					;	NONE
   9455					;-
   9456
   9457	014630				.TYACE::
   9458	014630					PUSH	R0		; SAVE R0
	014630	010046 				 MOV	R0,-(SP)
   9459	014632	113700 	000204'			MOVB	.PASS,R0	; PASS NO.
   9460	014636	005200 				INC	R0		; MAKE 1 OR 2
   9461	014640	062700 	000060 			ADD	#'0,R0		; MAKE ASCII
   9462	014644	110037 	002323'			MOVB	R0,PRMFM+13.	; PUT IN MESSAGE
   9463	014650	012700 	002306'			MOV	#PRMFM,R0	; FM SWEEP PROMPT
   9464	014654					CALL	.TYMSG		; TYPE IT
	014654	004737 	015462'			 JSR	PC,.TYMSG
   9465	014660					POP	R0		; RESTORE R0
	014660	012600 				 MOV	(SP)+,R0
   9466	014662				.TYAC1::PUSH	R2		; ALT. ENTRY PT., SAVE R2
	014662	010246 				 MOV	R2,-(SP)
   9467	014664	010002 				MOV	R0,R2		; SAVE R0
   9468	014666	011000 				MOV	(R0),R0		; GET FIRST WORD OF DATA
   9469	014670	000300 				SWAB	R0		; GET BLOCK NO. IN LOW BYTE
   9470	014672	042700 	177600 			BIC	#177600,R0	; CLEAR ADDR
   9471	014676	062700 	000060 			ADD	#'0,R0		; CONVERT TO ASCII
   9472	014702					CALL	.TYCHR		; TYPE IT
	014702	004737 	015520'			 JSR	PC,.TYCHR
   9473	014706					CALL	.TYCOL		; TYPE COLON
	014706	004737 	014542'			 JSR	PC,.TYCOL
   9474	014712	012237 	007320'			MOV	(R2)+,ADRTMP	; GET FIRST DATA VALUE
   9475	014716	042737 	177600 	007320'		BIC	#177600,ADRTMP	; CLEAR BLOCK NO.
TYOUT -- GENERAL TERMINAL OUTPU	MACRO M1113  03-APR-86 22:51  PAGE 244-1
.TYACE -- TYPE AC ADDR AND CONTENTS

   9476	014724	012700 	007320'			MOV	#ADRTMP,R0	; PTR TO AC ADDR
   9477	014730					CALL	.TYKLA		; TYPE KL ADDR
	014730	004737 	015106'			 JSR	PC,.TYKLA
   9478	014734					CALL	.TYSLS		; TYPE SLASH
	014734	004737 	014572'			 JSR	PC,.TYSLS
   9479	014740					CALL	.TYSPC		; TYPE SPACE
	014740	004737 	014602'			 JSR	PC,.TYSPC
   9480	014744	010200 				MOV	R2,R0		; PTR TO AC DATA
   9481	014746					CALL	.TYKLN		; TYPE KL DATA
	014746	004737 	015156'			 JSR	PC,.TYKLN
   9482	014752					CALL	.TCRLF		; TYPE CR-LF
	014752	004737 	015552'			 JSR	PC,.TCRLF
   9483	014756					POP	R2		; RESTORE R2
	014756	012602 				 MOV	(SP)+,R2
   9484	014760					RETURN
	014760	000207 				 RTS	PC
   9485
   9486	007320				.PSECT	DATA
   9487
   9488	007320	000000 			ADRTMP:	.WORD	0		; TEMPORARY ADDR LOCATION
   9489	007322	000000 				.WORD	0
   9490	007324	000000 				.WORD	0
   9491
   9492	002306				.PSECT	MESSAG
   9493
   9494	002306	   040 	   040 	   040 	PRMFM:	.ASCIZ	/    FM SWEEP X> /
	002311	   040 	   106 	   115
	002314	   040 	   123 	   127
	002317	   105 	   105 	   120
	002322	   040 	   130 	   076
	002325	   040 	   000
   9495
   9496	014762				.PSECT
TYOUT -- GENERAL TERMINAL OUTPU	MACRO M1113  03-APR-86 22:51  PAGE 245
.TYELA -- SUBROUTINE TO TYPE A PDP-11 ADDRESS 7601.23

   9498					.SBTTL	.TYELA -- SUBROUTINE TO TYPE A PDP-11 ADDRESS 7601.23
   9499
   9500					;+
   9501					; .TYELA -- SUBROUTINE TO TYPE A PDP-11 ADDRESS
   9502					; .TYELN -- SUBROUTINE TO TYPE A PDP-11 NUMBER
   9503					;
   9504					; THIS SUBROUTINE WILL TYPE AND FORMAT A PDP-11 NUMBER ACCORDING TO THE
   9505					; CURRENT OUTPUT RADIX IN ".ORADX". STANDARD FORMATS ARE:
   9506					;
   9507					;	(A) BINARY:	3 DIGITS AND A SPACE -- XXX<SP>XXX<SP>.....
   9508					;	(B) OCTAL:	6 DIGITS -- XXXXXX
   9509					;	(C) DECIMAL:	NO FORMATTING
   9510					;
   9511					; INPUT ARGUMENTS:
   9512					;
   9513					;	R0 HOLDS THE NUMBER TO BE PRINTED
   9514					;
   9515					; OUTPUT ARGUMENTS (TO ".TYNCM"):
   9516					;
   9517					;	R0 POINTS TO THE NUMBER TO BE PRINTED (ON THE STACK)
   9518					;	R3 POINTS TO A FORMAT TABLE
   9519					;
   9520					; ERROR CODES RETURNED:
   9521					;
   9522					;	IF THE CONSOLE OUTPUT FAILS, THE PARSER EXITS.
   9523					;-
   9524						.ENABL	LSB
   9525
   9526
   9527	014762				.TYELA::
   9528	014762	005037 	000220'			CLR	.LDZFL		; NO LEADING ZEROES
   9529	014766				.TYELN::
   9530	014766					PUSH	<R3,R2,R1,R0>	; SAVE CALLER'S REGISTERS
	014766	010346 				 MOV	R3,-(SP)
	014770	010246 				 MOV	R2,-(SP)
	014772	010146 				 MOV	R1,-(SP)
	014774	010046 				 MOV	R0,-(SP)
   9531	014776	005003 				CLR	R3		; ....ASSUME UNFORMATTED RADIX
   9532	015000	022737 	000002 	000226'		CMP	#^D2,.ORADX	; ....BINARY?
   9533	015006	001002 				BNE	10$		; ....NO
   9534	015010	012703 	007342'			MOV	#ELNBIN,R3	; ....BINARY FORMAT TABLE TO R3
   9535	015014				10$:
   9536	015014	022737 	000012 	000226'		CMP	#^D10,.ORADX	; ....DECIMAL?
   9537	015022	001424 				BEQ	30$		; ....YES
   9538	015024	012703 	007360'			MOV	#ELNOCT,R3	; ....OCTAL FORMAT TABLE TO R3
   9539	015030	000421 				BR	30$		; ....SET UP POINTERS AND EXIT
   9540						;
TYOUT -- GENERAL TERMINAL OUTPU	MACRO M1113  03-APR-86 22:51  PAGE 246
.TYP3D -- SUBROUTINE TO TYPE A THREE DIGIT NUMBER 7601.23

   9542					.SBTTL	.TYP3D -- SUBROUTINE TO TYPE A THREE DIGIT NUMBER 7601.23
   9543
   9544					;+
   9545					; .TYP3D -- SUBROUTINE TO TYPE A THREE DIGIT NUMBER
   9546					;
   9547					; THIS SUBROUTINE WILL TYPE AND FORMAT A PDP-11 NUMBER ACCORDING TO THE
   9548					; CURRENT OUTPUT RADIX IN ".ORADX". STANDARD FORMATS ARE:
   9549					;
   9550					;	(A) BINARY:	3 DIGITS AND A SPACE -- XXX<SP>XXX<SP>.....
   9551					;	(B) OCTAL:	3 DIGITS -- XXX
   9552					;	(C) DECIMAL:	NO FORMATTING
   9553					;
   9554					; INPUT ARGUMENTS:
   9555					;
   9556					;	R0 HOLDS THE NUMBER TO BE PRINTED
   9557					;
   9558					; OUTPUT ARGUMENTS (TO ".TYNCM"):
   9559					;
   9560					;	R0 POINTS TO THE BYTE TO BE PRINTED (ON THE STACK)
   9561					;	R3 POINTS TO A FORMAT TABLE
   9562					;
   9563					; ERROR CODES RETURNED:
   9564					;
   9565					;	IF THE CONSOLE OUTPUT FAILS, THE PARSER EXITS.
   9566					;-
   9567
   9568	015032				.TYP3D::
   9569	015032					PUSH	<R3,R2,R1,R0>	; SAVE CALLER'S REGISTERS
	015032	010346 				 MOV	R3,-(SP)
	015034	010246 				 MOV	R2,-(SP)
	015036	010146 				 MOV	R1,-(SP)
	015040	010046 				 MOV	R0,-(SP)
   9570	015042	005003 				CLR	R3		; ....ASSUME UNFORMATTED RADIX
   9571	015044	022737 	000002 	000226'		CMP	#^D2,.ORADX	; ....BINARY?
   9572	015052	001002 				BNE	20$		; ....NO
   9573	015054	012703 	007350'			MOV	#ELBBIN,R3	; ....BINARY FORMAT TABLE TO R3
   9574	015060				20$:
   9575	015060	022737 	000012 	000226'		CMP	#^D10,.ORADX	; ....DECIMAL?
   9576	015066	001402 				BEQ	30$		; ....YES
   9577	015070	012703 	007354'			MOV	#ELBOCT,R3	; ....OCTAL FORMAT TABLE TO R3
   9578	015074				30$:
   9579	015074	005046 				CLR	-(SP)		; ....SET UP BUFFERS ON THE STACK
   9580	015076	005046 				CLR	-(SP)		; .....
   9581	015100					PUSH	R0		; ......NUMBER TO BE TYPED
	015100	010046 				 MOV	R0,-(SP)
   9582	015102	010600 				MOV	SP,R0		; .......POINT TO IT
   9583	015104	000455 				BR	.TYNCM		; .......AND GO TO COMMON ROUTINE
   9584						;
   9585
   9586						.DSABL	LSB
TYOUT -- GENERAL TERMINAL OUTPU	MACRO M1113  03-APR-86 22:51  PAGE 247
.TYKLA -- SUBROUTINE TO TYPE A KL ADDRESS 7608.02

   9588					.SBTTL	.TYKLA -- SUBROUTINE TO TYPE A KL ADDRESS 7608.02
   9589
   9590					;+
   9591					; .TYKLA -- SUBROUTINE TO TYPE A KL ADDRESS
   9592					;
   9593					; THIS SUBROUTINE WILL TYPE AND FORMAT A KL ADDRESS ACCORDING TO THE
   9594					; CURRENT OUTPUT RADIX IN ".ORADX". STANDARD FORMATS ARE:
   9595					;
   9596					;	(A) BINARY:	3 DIGITS AND A SPACE -- XXX<SP>XXX<SP>.....
   9597					;	(B) OCTAL:	HALFWORD FORMAT -- XX<SP>XXXXXX
   9598					;	(C) DECIMAL:	NO FORMATTING
   9599					;
   9600					; INPUT ARGUMENTS:
   9601					;
   9602					;	R0 POINTS TO THE KL ADDRESS TO BE PRINTED
   9603					;
   9604					; OUTPUT ARGUMENTS (TO ".TYNCM"):
   9605					;
   9606					;	R0 POINTS TO THE ADDRESS TO BE PRINTED (ON THE STACK)
   9607					;	R3 POINTS TO A FORMAT TABLE
   9608					;
   9609					; ERROR CODES RETURNED:
   9610					;
   9611					;	IF THE CONSOLE OUTPUT FAILS, THE PARSER EXITS.
   9612					;-
   9613
   9614						.ENABL	LSB
   9615
   9616	015106				.TYKLA::
   9617	015106	005037 	000220'			CLR	.LDZFL		; NO LEADING ZEROES
   9618	015112					PUSH	<R3,R2,R1,R0>	; SAVE CALLER'S REGISTERS
	015112	010346 				 MOV	R3,-(SP)
	015114	010246 				 MOV	R2,-(SP)
	015116	010146 				 MOV	R1,-(SP)
	015120	010046 				 MOV	R0,-(SP)
   9619	015122	005003 				CLR	R3		; ....ASSUME UNFORMATTED RADIX
   9620	015124	022737 	000002 	000226'		CMP	#^D2,.ORADX	; ....BINARY?
   9621	015132	001002 				BNE	10$		; ....NO
   9622	015134	012703 	007336'			MOV	#KLABIN,R3	; ....BINARY FORMAT TABLE TO R3
   9623	015140				10$:
   9624	015140	022737 	000012 	000226'		CMP	#^D10,.ORADX	; ....DECIMAL?
   9625	015146	001424 				BEQ	30$		; ....YES
   9626	015150	012703 	007362'			MOV	#KLAOCT,R3	; ....OCTAL FORMAT TABLE TO R3
   9627	015154	000421 				BR	30$		; ....GO DO COMMON CODE
   9628						;
TYOUT -- GENERAL TERMINAL OUTPU	MACRO M1113  03-APR-86 22:51  PAGE 248
.TYKLN -- SUBROUTINE TO TYPE A KL NUMBER 7608.02

   9630					.SBTTL	.TYKLN -- SUBROUTINE TO TYPE A KL NUMBER 7608.02
   9631
   9632					;+
   9633					; .TYKLN -- SUBROUTINE TO TYPE A KL NUMBER
   9634					;
   9635					; THIS SUBROUTINE WILL TYPE AND FORMAT A KL NUMBER ACCORDING TO THE
   9636					; CURRENT OUTPUT RADIX IN ".ORADX". STANDARD FORMATS ARE:
   9637					;
   9638					;	(A) BINARY:	3 DIGITS AND A SPACE -- XXX<SP>XXX<SP>.....
   9639					;	(B) OCTAL:	6 DIGITS AND A SPACE -- XXXXXX<SP>XXXXXX
   9640					;	(C) DECIMAL:	NO FORMATTING
   9641					;
   9642					; INPUT ARGUMENTS:
   9643					;
   9644					;	R0 POINTS TO THE NUMBER TO BE PRINTED
   9645					;
   9646					; OUTPUT ARGUMENTS (TO ".TYNCM"):
   9647					;
   9648					;	R0 POINTS TO THE NUMBER TO BE PRINTED (ON THE STACK)
   9649					;	R3 POINTS TO A FORMAT TABLE
   9650					;
   9651					; ERROR CODES RETURNED:
   9652					;
   9653					;	IF THE CONSOLE OUTPUT FAILS, THE PARSER EXITS.
   9654					;-
   9655
   9656	015156				.TYKLN::
   9657	015156					PUSH	<R3,R2,R1,R0>	; SAVE CALLER'S REGISTERS
	015156	010346 				 MOV	R3,-(SP)
	015160	010246 				 MOV	R2,-(SP)
	015162	010146 				 MOV	R1,-(SP)
	015164	010046 				 MOV	R0,-(SP)
   9658	015166	005003 				CLR	R3		; ....ASSUME UNFORMATTED RADIX
   9659	015170	022737 	000002 	000226'		CMP	#^D2,.ORADX	; ....BINARY?
   9660	015176	001002 				BNE	20$		; ....NO
   9661	015200	012703 	007326'			MOV	#KLNBIN,R3	; ....BINARY FORMAT TABLE TO R3
   9662	015204				20$:
   9663	015204	022737 	000012 	000226'		CMP	#^D10,.ORADX	; ....DECIMAL?
   9664	015212	001402 				BEQ	30$		; ....YES
   9665	015214	012703 	007356'			MOV	#KLNOCT,R3	; ....OCTAL FORMAT TABLE TO R3
   9666	015220				30$:
   9667	015220	062700 	000006 			ADD	#^D6,R0		; ....POINT TO THE END OF THE NUMBER
   9668	015224					PUSH	-(R0)		; ....SET IT ON THE STACK
	015224	014046 				 MOV	-(R0),-(SP)
   9669	015226	042710 	177760 			BIC	#^C17,(R0)	; .....TRUNCATE TO 36 BITS
   9670	015232					PUSH	<-(R0),-(R0)>	; .....PUT THE REST ON THE STACK
	015232	014046 				 MOV	-(R0),-(SP)
	015234	014046 				 MOV	-(R0),-(SP)
   9671	015236	010600 				MOV	SP,R0		; .......POINT TO THE STACKED NUMBER
   9672					;	BR	.TYNCM		; .......AND GO TO COMMON ROUTINE
   9673						;
   9674
   9675						.DSABL	LSB
TYOUT -- GENERAL TERMINAL OUTPU	MACRO M1113  03-APR-86 22:51  PAGE 249
.TYNCM -- COMMON ENTRY POINT FOR ".TYNUM" 7601.23

   9677					.SBTTL	.TYNCM -- COMMON ENTRY POINT FOR ".TYNUM" 7601.23
   9678
   9679					;+
   9680					; .TYNCM -- COMMON ENTRY POINT FOR ".TYNUM".
   9681					;
   9682					; THIS SUBROUTINE SETS UP THE REMAINDER OF THE ARGUMENTS REQUIRED
   9683					; BY ".TYNUM" FROM ".TYELN" AND ".TYKLN".
   9684					;
   9685					; INPUT ARGUMENTS:
   9686					;
   9687					;	R1, R2, AND R3 ARE ON THE STACK
   9688					;	R0 POINTS TO THE NUMBER TO BE PRINTED (ON THE STACK)
   9689					;	R3 POINTS TO A FORMAT TABLE
   9690					;
   9691					; OUTPUT ARGUMENTS:
   9692					;
   9693					;	R0 POINTS TO THE ORIGINAL NUMBER
   9694					;
   9695					; ERROR CODES RETURNED:
   9696					;
   9697					;	IF THE CONSOLE OUTPUT FAILS, THE PARSER EXITS.
   9698					;-
   9699
   9700	015240				.TYNCM::
   9701	015240	005046 				CLR	-(SP)		; .......SPACE FOR DIVISOR
   9702	015242	005046 				CLR	-(SP)		; ........
   9703	015244	005046 				CLR	-(SP)		; .........
   9704	015246	010601 				MOV	SP,R1		; ..........POINT TO IT
   9705	015250	005002 				CLR	R2		; ..........CLEAR R2
   9706	015252	005737 	000220'			TST	.LDZFL		; ..........ARE WE PRINTING LEADING ZEROS/
   9707	015256	001006 				BNE	10$		; ..........YES -- GO ON
   9708	015260					CALL	.TPTST		; ..........NO -- IS THIS NUMBER .EQ. 0?
	015260	004737 	011474'			 JSR	PC,.TPTST
   9709	015264	001003 				BNE	10$		; ..........NO -- JUST PRINT IT
   9710	015266	005003 				CLR	R3		; ..........YES -- CALL IT UNFORMATTED
   9711	015270	005337 	000220'			DEC	.LDZFL		; ..........AND SAY WE PRINT ZEROES
   9712	015274				10$:
   9713	015274					CALL	.TYNUM		; ..........FORMAT AND PRINT THE NUMBER
	015274	004737 	015316'			 JSR	PC,.TYNUM
   9714	015300	062706 	000014 			ADD	#^D12,SP	; ..........FLUSH THE STACK
   9715	015304					POP	<R0,R1,R2,R3>	; ....RESTORE THE REGISTERS
	015304	012600 				 MOV	(SP)+,R0
	015306	012601 				 MOV	(SP)+,R1
	015310	012602 				 MOV	(SP)+,R2
	015312	012603 				 MOV	(SP)+,R3
   9716	015314					RETURN			; TO CALLER
	015314	000207 				 RTS	PC
TYOUT -- GENERAL TERMINAL OUTPU	MACRO M1113  03-APR-86 22:51  PAGE 250
.TYNCM -- COMMON ENTRY POINT FOR ".TYNUM" 7601.23

   9718					; THESE ARE THE FORMAT TABLES
   9719
   9720	007326				.PSECT	DATA
   9721
   9722	007326				KLNBIN::		 	; KL BINARY TABLE
   9723	007326	   003 	   040 			.BYTE	3,.SPACE	; 3 DIGITS AND A SPACE
   9724	007330	   003 	   040 			.BYTE	3,.SPACE
   9725	007332	   003 	   040 			.BYTE	3,.SPACE
   9726	007334	   003 	   040 			.BYTE	3,.SPACE
   9727	007336				KLABIN::			; KL ADDRESS BINARY
   9728	007336	   003 	   040 			.BYTE	3,.SPACE
   9729	007340	   003 	   040 			.BYTE	3,.SPACE
   9730	007342				ELNBIN::			; ELEVEN BINARY TABLE
   9731	007342	   003 	   040 			.BYTE	3,.SPACE
   9732	007344	   003 	   040 			.BYTE	3,.SPACE
   9733	007346	   003 	   040 			.BYTE	3,.SPACE
   9734	007350				ELBBIN::			; PDP-11 BYTE BINARY TABLE
   9735	007350	   003 	   040 			.BYTE	3,.SPACE
   9736	007352	   003 	   040 			.BYTE	3,.SPACE
   9737	007354				ELBOCT::			; PDP-11 BYTE OCTAL TABLE
   9738	007354	   003 	   000 			.BYTE	3,0		; END OF TABLE
   9739
   9740	007356				KLNOCT::			; KL OCTAL TABLE
   9741	007356	   006 	   040 			.BYTE	6,.SPACE	; 6 DIGITS AND A SPACE
   9742	007360				ELNOCT::			; PDP-11 OCTAL TABLE
   9743	007360	   006 	   000 			.BYTE	6,0		; END OF TABLE
   9744	007362				KLAOCT::			; KL ADDRESS OCTAL
   9745	007362	   006 	   040 			.BYTE	6,.SPACE
   9746	007364	   002 	   000 			.BYTE	2,0
   9747					.EVEN
   9748	015316				.PSECT
TYOUT -- GENERAL TERMINAL OUTPU	MACRO M1113  03-APR-86 22:51  PAGE 251
.TYNUM -- GENERAL SUBROUTINE TO TYPE A FORMATTED NUMBER 7601.2

   9750					.SBTTL	.TYNUM -- GENERAL SUBROUTINE TO TYPE A FORMATTED NUMBER 7601.23
   9751
   9752					;+
   9753					; .TYNUM -- GENERAL SUBROUTINE TO TYPE A FORMATTED NUMBER ON THE
   9754					;	    CONSOLE OUTPUT DEVICE.
   9755					;
   9756					; THIS SUBROUTINE WILL TYPE A FORMATTED NUMBER IN THE RADIX SPECIFIED
   9757					; IN ".ORADX" ON THE CONSOLE OUTPUT DEVICE.
   9758					;
   9759					; INPUT ARGUMENTS:
   9760					;
   9761					;	R0 POINTS TO THE 36 BIT NUMBER TO BE TYPED
   9762					;	R1 POINTS TO A TRIPLET TO BE USED AS A DIVISOR / REMAINDER BUFFER
   9763					;	R2 IS CLEAR
   9764					;	R3 POINTS TO A FORMAT CONTROL TABLE
   9765					;
   9766					; OUTPUT ARGUMENTS:
   9767					;
   9768					;	R0, R1, R2, AND R3 ARE CLOBBERED
   9769					;	THE NUMBER POINTED TO BY R0 IS CLOBBERED
   9770					;	THE FORMATTED NUMBER IS PLACED IN THE OUTPUT BUFFER
   9771					;
   9772					; ERROR CODES RETURNED:
   9773					;
   9774					;	IF THE CONSOLE OUTPUT FAILS, THE PARSER EXITS.
   9775					;-
   9776
   9777	015316				.TYNUM::
   9778	015316	005703 				TST	R3		; CHECK THE FORMAT POINTER
   9779	015320	001422 				BEQ	50$		; UNFORMATTED IF .EQ. 0
   9780	015322	112302 				MOVB	(R3)+,R2	; ITERATION COUNT TO R2
   9781	015324	001410 				BEQ	40$		; JUST A FORMAT CHARACTER IF .EQ. 0
   9782	015326				10$:
   9783	015326	000417 				BR	50$		; CONVERT ONE DIGIT
   9784						;
   9785	015330				20$:
   9786	015330	005702 				TST	R2		; TEST ITERATION COUNT
   9787	015332	001004 				BNE	30$		; FORMATTED NUMBER -- DO ITERATION COUNT
   9788	015334					CALL	.TPTST		; HAS THE QUOTIENT GONE TO ZERO?
	015334	004737 	011474'			 JSR	PC,.TPTST
   9789	015340	001441 				BEQ	80$		; YES -- PRINT THE NUMBER
   9790	015342	000411 				BR	50$		; NO -- KEEP GOING UNTIL IT DOES
   9791						;
   9792	015344				30$:
   9793	015344	077210 				SOB	R2,10$		; LOOP THRU THIS SET OF ITERATIONS
   9794
   9795					;	[CONTINUED ON THE FOLLOWING PAGE]
TYOUT -- GENERAL TERMINAL OUTPU	MACRO M1113  03-APR-86 22:51  PAGE 252
.TYNUM -- GENERAL SUBROUTINE TO TYPE A FORMATTED NUMBER 7601.2

   9797					;	[CONTINUED FROM THE PREVIOUS PAGE]
   9798
   9799	015346				40$:
   9800	015346	112302 				MOVB	(R3)+,R2	; FORMAT CONTROL CHARACTER TO R2
   9801	015350	001435 				BEQ	80$		; DONE IF .EQ. 0
   9802	015352	162702 	000060 			SUB	#60,R2		; SINCE OUTPUT ROUTINE WILL ADD 60
   9803	015356					PUSH	R2		; <PUSH>PUT THE FORMAT CHARACTER IN THE STACK
	015356	010246 				 MOV	R2,-(SP)
   9804	015360					PUSH	#60$		; <PUSH>FAKE THE PRINT ROUTINE OUT
	015360	012746 	015416'			 MOV	#60$,-(SP)
   9805	015364	000754 				BR	.TYNUM		; AND DO THE NEXT PART
   9806						;
   9807	015366				50$:				; HERE TO CONVERT ONE DIGIT
   9808	015366					PUSH	R0		; SAVE R0
	015366	010046 				 MOV	R0,-(SP)
   9809	015370	010100 				MOV	R1,R0		; MOVE R1 TO R0
   9810	015372					CALL	.TPCLR		; .CLEAR REMAINDER OUT
	015372	004737 	011372'			 JSR	PC,.TPCLR
   9811	015376					POP	R0		; .RESTORE R0
	015376	012600 				 MOV	(SP)+,R0
   9812	015400	013711 	000226'			MOV	.ORADX,(R1)	; OUTPUT RADIX AS DIVISOR
   9813	015404					CALL	.TPDIV		; DO THE DIVISION
	015404	004737 	011160'			 JSR	PC,.TPDIV
   9814	015410					PUSH	(R1)		; <PUSH> SAVE THE DIGIT
	015410	011146 				 MOV	(R1),-(SP)
   9815	015412					CALL	20$		; AND GO GET MORE
	015412	004737 	015330'			 JSR	PC,20$
   9816						;
   9817	015416				60$:				; HERE TO UNSTACK THE NUMBER
   9818	015416					POP	R0		; <POP>GET THE NUMBER OFF THE STACK
	015416	012600 				 MOV	(SP)+,R0
   9819	015420	005737 	000220'			TST	.LDZFL		; PRINT LEADING ZEROES?
   9820	015424	001004 				BNE	70$		; YES -- DO IT
   9821	015426	005700 				TST	R0		; NO -- SEE IF .EQ. 0 OR FORMAT
   9822	015430	003405 				BLE	80$		; YES -- DON'T PRINT IT
   9823	015432	005337 	000220'			DEC	.LDZFL		; NO -- SET THE FLAG AND PRINT
   9824	015436				70$:
   9825	015436	062700 	000060 			ADD	#60,R0		; ASCIIZE IT
   9826	015442	000426 				BR	.TYCHR		; PRINT IT
   9827						;
   9828	015444				80$:
   9829	015444					RETURN			; FOR NEXT NUMBER OR TO CALLER
	015444	000207 				 RTS	PC
TYOUT -- GENERAL TERMINAL OUTPU	MACRO M1113  03-APR-86 22:51  PAGE 253
.TYLIN -- SUBROUTINE TO OUTPUT AN .ASCIZ MESSAGE AND A <CRLF>

   9831					.SBTTL	.TYLIN -- SUBROUTINE TO OUTPUT AN .ASCIZ MESSAGE AND A <CRLF> 7601.23
   9832
   9833					;+
   9834					; .TYLIN -- SUBROUTINE TO OUTPUT AN ".ASCIZ" MESSAGE APPENDED BY A <CRLF>
   9835					; .TYMSG -- SUBROUTINE TO OUTPUT AN ".ASCIZ" MESSAGE TO THE CONSOLE
   9836					;	    OUTPUT DEVICE.
   9837					;
   9838					; THESE SUBROUTINES WILL OUTPUT AN ".ASCIZ" MESSAGE TO THE CONSOLE
   9839					; OUTPUT DEVICE. ".TYLIN" WILL APPEND A <CRLF> SEQUENCE TO THE
   9840					; MESSAGE (FORCING THE BUFFER TO BE OUTPUT).
   9841					;
   9842					; INPUT ARGUMENTS:
   9843					;
   9844					;	R0 POINTS TO THE .ASCIZ MESSAGE
   9845					;
   9846					; OUTPUT ARGUMENTS:
   9847					;
   9848					;	NONE.
   9849					;
   9850					; ERROR CODES RETURNED:
   9851					;
   9852					;	IF THE CONSOLE OUTPUT FAILS, THE PARSER EXITS.
   9853					;-
   9854
   9855						.ENABL	LSB
   9856
   9857	015446				.TYLIN::
   9858	015446					CALL	.TYMSG		; OUTPUT THE MESSAGE
	015446	004737 	015462'			 JSR	PC,.TYMSG
   9859	015452	000437 				BR	.TCRLF		; OUTPUT A <CRLF> AND EXIT
   9860						;
   9861	015454				.TYMSF::
   9862	015454					CALL	.TYMSG		; PRINT THE MESSAGE
	015454	004737 	015462'			 JSR	PC,.TYMSG
   9863	015460	000413 				BR	30$		; FORCE IT AND EXIT
   9864						;
   9865	015462				.TYMSG::
   9866	015462					PUSH	R1		; SAVE R1
	015462	010146 				 MOV	R1,-(SP)
   9867	015464	010001 				MOV	R0,R1		; .MESSAGE POINTER TO R1
   9868	015466				10$:
   9869	015466	112100 				MOVB	(R1)+,R0	; .GET THE CHARACTER INTO R0
   9870	015470	001403 				BEQ	20$		; .EXIT IF <NULL>
   9871	015472					CALL	.TYCHR		; .OUTPUT THE CHARACTER
	015472	004737 	015520'			 JSR	PC,.TYCHR
   9872	015476	000773 				BR	10$		; .AND GO GET THE NEXT CHARACTER
   9873						;
   9874	015500				20$:
   9875	015500					POP	R1		; .RESTORE R1
	015500	012601 				 MOV	(SP)+,R1
   9876	015502					RETURN			; TO CALLER
	015502	000207 				 RTS	PC
TYOUT -- GENERAL TERMINAL OUTPU	MACRO M1113  03-APR-86 22:51  PAGE 254
.TFCHR -- SUBROUTINE TO FORCE A CHARACTER TO THE CONSOLE DEVIC

   9878					.SBTTL	.TFCHR -- SUBROUTINE TO FORCE A CHARACTER TO THE CONSOLE DEVICE 7601.23
   9879
   9880					;+
   9881					; .TFCHR -- FORCED CHARACTER OUTPUT SUBROUTINE
   9882					;
   9883					; THIS SUBROUTINE WILL FORCE PRINT ONE CHARACTER TO THE CONSOLE
   9884					; OUTPUT DEVICE.
   9885					;
   9886					; INPUT ARGUMENTS:
   9887					;
   9888					;	R0 CONTAINS THE CHARACTER TO BE FORCED TO THE OUTPUT DEVICE
   9889					;
   9890					; OUTPUT ARGUMENTS:
   9891					;
   9892					;	THE OUTPUT BYTE COUNTERS AND BYTE POINTER ARE UPDATED.
   9893					;
   9894					; ERROR CODES RETURNED:
   9895					;
   9896					;	IF THE CONSOLE OUTPUT FAILS, THE PARSER EXITS.
   9897					;-
   9898
   9899	015504				.TFCHR::
   9900	015504					CALL	.TYCHR		; LOAD THE CHARACTER INTO THE BUFFER
	015504	004737 	015520'			 JSR	PC,.TYCHR
   9901	015510				30$:
   9902	015510	005737 	000432'			TST	.CDOBC		; WAS THE BUFFER DUMPED?
   9903	015514	001430 				BEQ	40$		; YES -- JUST EXIT
   9904	015516	000430 				BR	.TYOUT		; NO -- FORCE THE BUFFER OUT
   9905						;
TYOUT -- GENERAL TERMINAL OUTPU	MACRO M1113  03-APR-86 22:51  PAGE 255
.TYCHR -- CONSOLE DEVICE OUTPUT SUBROUTINE 7601.23

   9907					.SBTTL	.TYCHR -- CONSOLE DEVICE OUTPUT SUBROUTINE 7601.23
   9908
   9909					;+
   9910					; .TYCHR -- CONSOLE DEVICE OUTPUT SUBROUTINE
   9911					; .TCRLF -- OUTPUT A <CRLF>
   9912					;
   9913					; THIS SUBROUTINE WILL LOAD ON ASCII CHARACTER INTO THE CONSOLE
   9914					; DEVICE OUTPUT BUFFER AND WILL DUMP THE BUFFER TO THE CONSOLE
   9915					; OUTPUT DEVICE ON:
   9916					;
   9917					;	(A) APPEARANCE OF A <NEW-LINE> CHARACTER IN THE INPUT STREAM
   9918					;
   9919					;	(B) OUTPUT BUFFER OVERFLOW
   9920					;
   9921					; INPUT ARGUMENTS:
   9922					;
   9923					;	R0 CONTAINS THE CHARACTER TO BE OUTPUT.
   9924					;
   9925					; OUTPUT ARGUMENTS:
   9926					;
   9927					;	THE OUTPUT BYTE POINTER AND BYTE COUNTERS ARE UPDATED
   9928					;	OR REINITIALIZED IF THE BUFFER WAS DUMPED.
   9929					;
   9930					; ERROR CODES RETURNED:
   9931					;
   9932					;	IF THE CONSOLE OUTPUT FAILS, THE PARSER EXITS.
   9933					;-
   9934
   9935	015520				.TYCHR::
   9936	015520	110077 	000306'			MOVB	R0,@.TYOBP	; PUT THE CHARACTER IN THE BUFFER
   9937	015524	005237 	000306'			INC	.TYOBP		; POINT TO THE NEXT BYTE
   9938	015530	005237 	000432'			INC	.CDOBC		; INCREMENT THE OUTPUT BYTE COUNT
   9939	015534	005337 	000304'			DEC	.TYOBC		; DECREMENT THE LINE CONTROL COUNTER
   9940	015540	001404 				BEQ	.TCRLF		; END-OF-LINE -- FORCE OUTPUT
   9941	015542	122700 	000012 			CMPB	#12,R0		; WAS IT A "<NEW-LINE>"?
   9942	015546	001013 				BNE	40$		; NO -- JUST EXIT
   9943	015550	000413 				BR	.TYOUT		; YES -- OUTPUT THE LINE AND RETURN
   9944						;
   9945
   9946					;	[CONTINUED ON THE FOLLOWING PAGE]
TYOUT -- GENERAL TERMINAL OUTPU	MACRO M1113  03-APR-86 22:51  PAGE 256
.TYCHR -- CONSOLE DEVICE OUTPUT SUBROUTINE 7601.23

   9948					;	[CONTINUED FROM THE PREVIOUS PAGE]
   9949
   9950	015552				.TCRLF::			; HERE ON OUTPUT BUFFER END
   9951	015552					PUSH	R0		; SAVE R0
	015552	010046 				 MOV	R0,-(SP)
   9952	015554	012700 	000015 			MOV	#15,R0		; .<CARRIAGE-RETURN>
   9953	015560					CALL	.TYCHR		; .TO BUFFER
	015560	004737 	015520'			 JSR	PC,.TYCHR
   9954	015564	012700 	000012 			MOV	#12,R0		; .<NEW-LINE>
   9955	015570					CALL	.TYCHR		; .TO BUFFER
	015570	004737 	015520'			 JSR	PC,.TYCHR
   9956	015574					POP	R0		; .RESTORE R0
	015574	012600 				 MOV	(SP)+,R0
   9957	015576				40$:
   9958	015576					RETURN			; AND EXIT
	015576	000207 				 RTS	PC
   9959
   9960						.DSABL	LSB
TYOUT -- GENERAL TERMINAL OUTPU	MACRO M1113  03-APR-86 22:51  PAGE 257
.TYOUT -- CONSOLE OUTPUT SUBROUTINE 7601.23

   9962					.SBTTL	.TYOUT -- CONSOLE OUTPUT SUBROUTINE 7601.23
   9963
   9964					;+
   9965					; .TYINI -- CONSOLE DEVICE INITIALIZATION
   9966					; .TYOUT -- CONSOLE OUTPUT SUBROUTINE
   9967					;
   9968					; THESE SUBROUTINES WILL OUTPUT THE BUFFER TO THE CONSOLE OUTPUT DEVICE.
   9969					;
   9970					; INPUT ARGUMENTS:
   9971					;
   9972					;	NONE.
   9973					;
   9974					; OUTPUT ARGUMENTS:
   9975					;
   9976					;	THE OUTPUT BUFFER POINTER AND BYTE COUNTS ARE RESET
   9977					;
   9978					; ERROR CODES RETURNED:
   9979					;
   9980					;	IF THE OUTPUT FAILS THE PARSER EXITS.
   9981					;-
   9982
   9983
   9984						.MCALL	DIR$, QIOW$
   9985
   9986						.ENABL	LSB
   9987
   9988	015600				.TYOUT::
   9989	015600	105737 	000210'			TSTB	.OUTTY		; [5.1000]TYPE OUTPUT?
   9990	015604	001417 				BEQ	10$		; [5.1000]NO -- NEXT DEVICE
   9991	015606					DIR$	#.ATCID		; YES -- ATTACH THE CONSOLE DEVICE
	015606	012746 	000460'			MOV	#.ATCID,-(SP)
	015612	104375 				EMT	375
   9992	015614	103464 				BCS	TYODIE		; ERROR IF CC-C IS SET
   9993	015616					DIR$	#.CDOUT		; OUTPUT THE BUFFER TO CONSOLE
	015616	012746 	000414'			MOV	#.CDOUT,-(SP)
	015622	104375 				EMT	375
   9994	015624	103460 				BCS	TYODIE		; ERROR IF CC-C IS SET
   9995	015626	105737 	000014'			TSTB	.COSTS		; DID WE REALLY SUCCEED?
   9996	015632	002455 				BLT	TYODIE		; NO -- COMPLAIN BITTERLY
   9997	015634					DIR$	#.DTCID		; DETACH CONSOLE
	015634	012746 	000474'			MOV	#.DTCID,-(SP)
	015640	104375 				EMT	375
   9998	015642	103451 				BCS	TYODIE		; ERROR IF CC-C IS SET
   9999	015644	013737 	000430'	000452'	10$:	MOV	.CDOBP,.LDOBP	; [5.1000]SET BUFFER POINTER
  10000	015652	013737 	000432'	000454'		MOV	.CDOBC,.LDOBC	; [5.1000]SET BYTE COUNT
  10001	015660				.TYOU1::			; [5.1000]ALT ENTRY POINT FOR CMD ECHO
  10002	015660	105737 	000207'			TSTB	.OUTLP		; [5.1000]PRINT OUTPUT?
  10003	015664	001407 				BEQ	20$		; [5.1000]NO -- NEXT DEVICE
  10004	015666					DIR$	#.LDOUT		; [5.1000]YES -- OUTPUT BUFFER
	015666	012746 	000436'			MOV	#.LDOUT,-(SP)
	015672	104375 				EMT	375
  10005	015674	103434 				BCS	TYODIE		; [5.1000]ERROR IF CC-C IS SET
  10006	015676	105737 	000212'			TSTB	.LDSTS		; [5.1000]DID WE REALLY SUCCEED
  10007	015702	002431 				BLT	TYODIE		; [5.1000]NO -- COMPLAIN BITTERLY
  10008	015704	105737 	000206'		20$:	TSTB	.OUTLG		; [5.1000]LOG OUTPUT?
  10009	015710	001412 				BEQ	30$		; [5.1000]NO -- DONE OUTPUTTING
  10010	015712					PUSH	<R1,R2>		; [5.1000]YES -- SAVE REGISTERS
TYOUT -- GENERAL TERMINAL OUTPU	MACRO M1113  03-APR-86 22:51  PAGE 257-1
.TYOUT -- CONSOLE OUTPUT SUBROUTINE 7601.23

	015712	010146 				 MOV	R1,-(SP)
	015714	010246 				 MOV	R2,-(SP)
  10011	015716	013702 	000452'			MOV	.LDOBP,R2	; [5.1000]SET BUFFER POINTER
  10012	015722	013701 	000454'			MOV	.LDOBC,R1	; [5.1000]SET BYTE COUNTER
  10013	015726					CALL	.WRITR		; [5.1000]LOG IT
	015726	004737 	002616'			 JSR	PC,.WRITR
  10014	015732					POP	<R2,R1>		; [5.1000]RESTORE REGISTERS
	015732	012602 				 MOV	(SP)+,R2
	015734	012601 				 MOV	(SP)+,R1
  10015	015736				30$:
  10016
  10017					;	[CONTINUED ON THE FOLLOWING PAGE]
TYOUT -- GENERAL TERMINAL OUTPU	MACRO M1113  03-APR-86 22:51  PAGE 258
.TYOUT -- CONSOLE OUTPUT SUBROUTINE 7601.23

  10019					;	[CONTINUED FROM THE PREVIOUS PAGE]
  10020
  10021	015736				.TYINI::			; HERE TO INIT OUTPUT POINTERS
  10022	015736	005037 	000432'			CLR	.CDOBC		; RESET BUFFER BYTE COUNT
  10023	015742	012737 	000576'	000430'		MOV	#.COBFR,.CDOBP	; [5.1000]RESET BUFFER PTR
  10024	015750	012737 	000204 	000304'		MOV	#.COBFL,.TYOBC	; RESET OUTPUT LINE CONTROL
  10025	015756	012737 	000576'	000306'		MOV	#.COBFR,.TYOBP	; RESET OUTPUT BYTE POINTER
  10026	015764					RETURN			; AND EXIT
	015764	000207 				 RTS	PC
  10027	015766				TYODIE:
  10028	015766					CALLR	.EXITP		; EXIT GRACEFULLY
	015766	000137 	010110'			 JMP	.EXITP
  10029						;
  10030						.DSABL	LSB
TYOUT -- GENERAL TERMINAL OUTPU	MACRO M1113  03-APR-86 22:51  PAGE 259
.TYR50 -- TYPE A .RAD50 SYMBOL 7602.18

  10032					.SBTTL	.TYR50 -- TYPE A .RAD50 SYMBOL 7602.18
  10033
  10034					;+
  10035					; .TYR50 -- TYPE A .RAD50 SYMBOL
  10036					;
  10037					; THIS ROUTINE WILL CONVERT THE .RAD50 SYMBOL IN R0 TO ASCII
  10038					; AND PRINT IT ON THE CONSOLE DEVICE.
  10039					;
  10040					; INPUT ARGUMENTS:
  10041					;
  10042					;	R0 HOLDS THE .RAD50 SYMBOL TO BE PRINTED.
  10043					;
  10044					; OUTPUT ARGUMENTS:
  10045					;
  10046					;	NONE.
  10047					;
  10048					; ERROR CODES RETURNED:
  10049					;
  10050					;	NONE.
  10051					;-
  10052
  10053	015772				.TYR50::
  10054	015772					PUSH	<R1,R2>		; SAVE REGISTERS
	015772	010146 				 MOV	R1,-(SP)
	015774	010246 				 MOV	R2,-(SP)
  10055	015776	012702 	001472'			MOV	#.T50TB,R2	; ..TABLE OF DIVISORS TO R2
  10056	016002				10$:
  10057	016002	012201 				MOV	(R2)+,R1	; ..CURRENT DIVISOR TO R1
  10058	016004	001414 				BEQ	30$		; ..DONE IF .EQ. 0
  10059	016006					CALL	$DIV		; ..DO THE DIVISION
	016006	004737 	000000G			 JSR	PC,$DIV
  10060	016012					PUSH	R1		; ..SAVE THE REMAINDER
	016012	010146 				 MOV	R1,-(SP)
  10061	016014	012701 	001442'			MOV	#.R50TB,R1	; ...CONVERSION TABLE POINTER TO R1
  10062	016020				20$:
  10063	016020	062100 				ADD	(R1)+,R0	; ...CONVERT THIS CHARACTER
  10064	016022	020021 				CMP	R0,(R1)+	; ...FOUND IT YET?
  10065	016024	103775 				BLO	20$		; ...NO -- KEEP TRYING
  10066	016026					CALL	.TYCHR		; ...YES -- PUT IT IN THE BUFFER
	016026	004737 	015520'			 JSR	PC,.TYCHR
  10067	016032					POP	R0		; ...LAST REMAINDER IS NEW DIVIDEND
	016032	012600 				 MOV	(SP)+,R0
  10068	016034	000762 				BR	10$		; ..DO THE NEXT CHARACTER
  10069						;
  10070	016036				30$:
  10071	016036					POP	<R2,R1>		; ..RESTORE REGISTERS
	016036	012602 				 MOV	(SP)+,R2
	016040	012601 				 MOV	(SP)+,R1
  10072	016042					RETURN			; TO CALLER
	016042	000207 				 RTS	PC
TYOUT -- GENERAL TERMINAL OUTPU	MACRO M1113  03-APR-86 22:51  PAGE 260
.TYR50 -- TYPE A .RAD50 SYMBOL 7602.18

  10074					; THIS IS A PICTURE OF THE "QIOW$" DPB, NOT ALL OF THE ARGUMENTS
  10075					; IN THE DPB ARE USED BY SOME FORMS OF THE "QIOW$" DIRECTIVE.
  10076					;
  10077					;	!===============================================!
  10078					; 00	!	DPB SIZE	!	    DIC		!
  10079					;	!-----------------------------------------------!
  10080					; 02	!	  INPUT / OUTPUT FUNCTION CODE		!
  10081					;	!-----------------------------------------------!
  10082					; 04	!	       LOGICAL UNIT NUMBER		!
  10083					;	!-----------------------------------------------!
  10084					; 06	!	PRIORITY	!   EVENT FLAG NUMBER	!
  10085					;	!-----------------------------------------------!
  10086					; 10	!	     I/O STATUS BLOCK ADDRESS		!
  10087					;	!-----------------------------------------------!
  10088					; 12	!	  AST ROUTINE ADDRESS (NOT USED)	!
  10089					;	!-----------------------------------------------!
  10090					; 14	!	      DATA BUFFER ADDRESS		!
  10091					;	!-----------------------------------------------!
  10092					; 16	!		  BYTE COUNT			!
  10093					;	!-----------------------------------------------!
  10094					; 20	!	OUTPUT FORMAT CONTROL CHARACTER		!
  10095					;	!===============================================!
  10096
  10097					; THIS IS THE CONSOLE OUTPUT DPB
  10098
  10099	000414				.PSECT	DPBS
  10100
  10101	000414				.CDOUT::
  10102	000414					QIOW$	IO.WLB,CODLUN,E.FCOD,0,.COSTS,0,<.COBFR,0,VF.INT>
	000414	   003 	   011 			.BYTE	3,$$$ARG
	000416	000000G				.WORD	IO.WLB
	000420	000002 				.WORD	CODLUN
	000422	   003 	   000 			.BYTE	E.FCOD,0
	000424	000014'				.WORD	.COSTS
	000426	000000 				.WORD	0
	000430	000576'				.WORD	.COBFR
	000432	000000 				.WORD	0
	000434	000000 				.WORD	VF.INT
  10103
  10104		000430'			.CDOBP==.CDOUT+Q.IOPL		; CONSOLE OUTPUT BYTE POINTER
  10105		000432'			.CDOBC==.CDOUT+Q.BYCT		; CONSOLE OUTPUT BYTE COUNT
  10106		000434'			.CDOFC==.CDOUT+Q.OVFC		; CONSOLE OUTPUT FORMAT CHARACTER
  10107
  10108					; THIS IS THE LIST DEVICE OUTPUT DPB
  10109
  10110	000436				.LDOUT::
  10111	000436					QIOW$	IO.WLB,LSTLUN,E.FLOD,0,.LDSTS,0,<.COBFR,0,VF.INT>
	000436	   003 	   011 			.BYTE	3,$$$ARG
	000440	000000G				.WORD	IO.WLB
	000442	000003 				.WORD	LSTLUN
	000444	   005 	   000 			.BYTE	E.FLOD,0
	000446	000212'				.WORD	.LDSTS
	000450	000000 				.WORD	0
	000452	000576'				.WORD	.COBFR
	000454	000000 				.WORD	0
	000456	000000 				.WORD	VF.INT
  10112
TYOUT -- GENERAL TERMINAL OUTPU	MACRO M1113  03-APR-86 22:51  PAGE 260-1
.TYR50 -- TYPE A .RAD50 SYMBOL 7602.18

  10113		000452'			.LDOBP==.LDOUT+Q.IOPL		; LIST DEVICE BYTE POINTER
  10114		000454'			.LDOBC==.LDOUT+Q.BYCT		; LIST DEVICE BYTE COUNT
  10115		000456'			.LDOFC=.LDOUT+Q.OVFC		; LIST DEVICE FORMAT CHARACTER
  10116
  10117					; ATTACH CONSOLE INPUT DEVICE EXCLUSIVELY TO PARSER TASK
  10118
  10119	000460				.ATCID::
  10120	000460					QIOW$	IO.ATT,CIDLUN,E.FCID,0,0,0
	000460	   003 	   006 			.BYTE	3,$$$ARG
	000462	000000G				.WORD	IO.ATT
	000464	000001 				.WORD	CIDLUN
	000466	   002 	   000 			.BYTE	E.FCID,0
	000470	000000 				.WORD	0
	000472	000000 				.WORD	0
  10121
  10122					; DETACH THE CONSOLE INPUT DEVICE FROM THE PARSER TASK
  10123
  10124	000474				.DTCID::
  10125	000474					QIOW$	IO.DET,CIDLUN,E.FCOD,0,0,0
	000474	   003 	   006 			.BYTE	3,$$$ARG
	000476	000000G				.WORD	IO.DET
	000500	000001 				.WORD	CIDLUN
	000502	   003 	   000 			.BYTE	E.FCOD,0
	000504	000000 				.WORD	0
	000506	000000 				.WORD	0
  10126
  10127	016044				.PSECT
TYOUT -- GENERAL TERMINAL OUTPU	MACRO M1113  03-APR-86 22:51  PAGE 262
.TYR50 -- TYPE A .RAD50 SYMBOL 7602.18

  10130
  10131		000001 			FTLCMN==1
  10132
  10133		000312'			.END	DATABX
TYOUT -- GENERAL TERMINAL OUTPU	MACRO M1113  03-APR-86 22:51  PAGE 262-1
SYMBOL TABLE

ABMSG   001051RG    003	AP.NRM= 001400   	CAIN  = 000306   	CLOWAT  000260R     004	DEXDON= 000004
ABOMSG  000365RG    003	AP.NXM= 000040   	CALERM  000104R     005	CLRMSG  000373RG    003	DEXWD1= 174406
ACBMSG  001372RG    003	AP.PWF= 000001   	CALL  = 000040   	CNRERM  000400R     005	DEXWD2= 174404
ADD   = 000270   	AP.SAP= 000002   	CALLI = 000047   	CNTMSG  000401RG    003	DEXWD3= 174402
ADDB  = 000273   	AP.SBE= 000100   	CAM   = 000310   	CNUPE = 000002   	DFAD  = 000110
ADDI  = 000271   	ARMSG   000773RG    003	CAMA  = 000314   	CODLUN= 000002   	DFBEND= 000362RG    002
ADDM  = 000272   	ARXMSG  001020RG    003	CAME  = 000312   	CONI  = 000005   	DFDV  = 000113
ADH   = 000004   	ASH   = 000240   	CAMG  = 000317   	CONIS   002265R     003	DFMP  = 000112
ADL   = 000000   	ASHC  = 000244   	CAMGE = 000315   	CONMSG  001625RG    003	DFN   = 000131
ADMSG   001011RG    003	AUGMSG  001317RG    003	CAML  = 000311   	CONO  = 000004   	DFSB  = 000111
ADRTMP  007320R     002	A.LULU= 000002   	CAMLE = 000313   	CONOS   002260R     003	DFUNC = 000200
ADXMSG  001014RG    003	A.LUNA= 000004   	CAMN  = 000316   	CONSO = 000007   	DF.DMG= 000004
ALLMSG  001414RG    003	A.LUNU= 000006   	CAPERM  000133R     005	CONSOS  002300R     003	DF.DMN= 000007
AMBERM  003670R     005	BAEERM  000023R     005	CBOERM  000166R     005	CONSZ = 000006   	DF.DOR= 000001
AND   = 000404   	BCCTER  003362R  	CCA   = 000014   	CONSZS  002272R     003	DF.EHG= 000010
ANDB  = 000407   	BIT0  = 000001   	CC.ALL= 003417   	CPEERM  000440R     005	DF.EHM= 000011
ANDCA = 000410   	BIT00 = 000001   	CC.NRM= 000000   	CPUMSG  001420RG    003	DF.EMG= 000005
ANDCAB= 000413   	BIT01 = 000002   	CDD   = 000020   	CPUNUM= 000002   	DF.EMN= 000006
ANDCAI= 000411   	BIT02 = 000004   	CDIERM  000224R     005	CPVMSG  000000RG    003	DF.KLR= 000012
ANDCAM= 000412   	BIT03 = 000010   	CD.ALL= 003400   	CRAMSG  001054RG    003	DF.KLW= 000013
ANDCB = 000440   	BIT04 = 000020   	CD.CLC= 000400   	CRHERM  000467R     005	DF.KLX= 000014
ANDCBB= 000443   	BIT05 = 000040   	CD.CRC= 002000   	CRLMSG  001063RG    003	DF.OFF= 000002
ANDCBI= 000441   	BIT06 = 000100   	CD.DPC= 001000   	CRMMSG  001450RG    003	DF.ON = 000003
ANDCBM= 000442   	BIT07 = 000200   	CD.NRM= 000000   	CR.ALL= 000003   	DF.PDP= 000016
ANDCM = 000420   	BIT08 = 000400   	CESCES  000016R  	CR.CR1= 000001   	DF.PEX= 000015
ANDCMB= 000423   	BIT09 = 001000   	CESERM  003722R     005	CR.CR2= 000002   	DIAG1 = 174430
ANDCMI= 000421   	BIT1  = 000002   	CFHERM  000305R     005	CR.FUL= 000000   	DIAG2 = 174432
ANDCMM= 000422   	BIT10 = 002000   	CHNPNT= 000001   	CR.HLF= 000001   	DIAG3 = 174436
ANDI  = 000405   	BIT11 = 004000   	CH.ALP= 000001   	CR.NRM= 000000   	DIKL10= 000010
ANDM  = 000406   	BIT12 = 010000   	CH.ANM= 000003   	CR.QTR= 000002   	DISMSG  000422RG    003
AOBJN = 000253   	BIT13 = 020000   	CH.AOP= 000100   	CR.SLO= 000003   	DIV   = 000234
AOBJP = 000252   	BIT14 = 040000   	CH.END= 000034   	CS.ALL= 000014   	DIVB  = 000237
AOJ   = 000340   	BIT15 = 100000   	CH.EOC= 000010   	CS.CS1= 000004   	DIVI  = 000235
AOJA  = 000344   	BIT2  = 000004   	CH.EOL= 000004   	CS.CS2= 000010   	DIVM  = 000236
AOJE  = 000342   	BIT3  = 000010   	CH.EOS= 000020   	CS.EXP= 177670   	DLYCNT= 174400
AOJG  = 000347   	BIT4  = 000020   	CH.ILL= 000200   	CS.EXT= 000010   	DMFERM  000635R     005
AOJGE = 000345   	BIT5  = 000040   	CH.NUL= 000000   	CS.FST= 000004   	DMOVE = 000120
AOJL  = 000341   	BIT6  = 000100   	CH.NUM= 000002   	CS.MGN= 000004   	DMOVEM= 000124
AOJLE = 000343   	BIT7  = 000200   	CH.PFX= 000040   	CS.NRM= 000000   	DMOVN = 000121
AOJN  = 000346   	BIT8  = 000400   	CIDLUN= 000001   	CS.UDF= 000014   	DMOVNM= 000125
AOS   = 000350   	BIT9  = 001000   	CKCILS  000152R  	CTLMSG  001467RG    003	DNFERM  000724R     005
AOSA  = 000354   	BLKI  = 000000   	CKCMRA  000160R  	CTYPTR= ****** GX	DNPERM  000763R     005
AOSE  = 000352   	BLKIS   002232R     003	CKEEOC  000250R  	DATABX  000312RG    002	DOCCNR  010102R
AOSG  = 000357   	BLKO  = 000002   	CKRKLR  000366R  	DATAI = 000001   	DON10C= 040000
AOSGE = 000355   	BLKOS   002245R     003	CLEAR = 000400   	DATAIS  002237R     003	DON10S= 100000
AOSL  = 000351   	BLT   = 000251   	CLEARB= 000403   	DATAO = 000003   	DON11C= 000100
AOSLE = 000353   	BPARER= 000020   	CLEARI= 000401   	DATAOS  002252R     003	DON11S= 000200
AOSN  = 000356   	BRMSG   001024RG    003	CLEARM= 000402   	DATMSG  001635RG    003	DORERM  000674R     005
APEERM  000000R     005	BRXMSG  001027RG    003	CLEERM  000343R     005	DAVERM  000531R     005	DPB   = 000137
APR   = 000000   	CAEERM  000052R     005	CLKMSG  001617RG    003	DBTERM  000562R     005	DPDTEN= 000322RG    004
APRMSG  001273RG    003	CAI   = 000300   	CLOATR= 000256R     004	DCKERM  000612R     005	DPS4  = 040000
AP.ALL= 000177   	CAIA  = 000304   	CLOATT= 000262R     004	DCOMST= 000001   	DPTMSG  001455RG    003
AP.ARP= 001000   	CAIE  = 000302   	CLODAC  000240R     004	DCRMSG  000724RG    003	DRAMSG  001071RG    003
AP.CDP= 000004   	CAIG  = 000307   	CLOFCF  002160R  	DECMSG  001361RG    003	DRDMSG  002144R     003
AP.EIP= 000400   	CAIGE = 000305   	CLOIOF= 000242R     004	DEP   = 010000   	DRESET= 000100
AP.IPF= 000020   	CAIL  = 000301   	CLOLUN= 000244R     004	DEPMSG  000412RG    003	DRMMSG  001573RG    003
AP.MPE= 000010   	CAILE = 000303   	CLOSE = 000070   	DEX   = 000400   	DR.DTE= 000011
TYOUT -- GENERAL TERMINAL OUTPU	MACRO M1113  03-APR-86 22:51  PAGE 262-2
SYMBOL TABLE

DSEND = 000004   	D3.CDD= 000020   	ERR11S= 000002   	FMPM  = 000162   	FR.101= 000202
DSFERM  001022R     005	D3.MBZ= 177704   	ERSMSG  000107R     003	FMPR  = 000164   	FR.102= 000204
DS04  = 004000   	D3.NPE= 000002   	ESDERM  001305R     005	FMPRB = 000167   	FR.103= 000206
DS05  = 002000   	D3.PAR= 040000   	ESEERM  001342R     005	FMPRI = 000165   	FR.104= 000210
DS06  = 001000   	D3.RST= 000001   	ETRMSG  002200R     003	FMPRM = 000166   	FR.105= 000212
DTCERM  001055R     005	D3.SCD= 000040   	EXAMSG  000435RG    003	FNDALN  000000R     004	FR.106= 000214
DTECMD= 000451   	D3.SSL= 100000   	EXCH  = 000250   	FNDALU= 000002R     004	FR.107= 000216
DTEDSF  003626R  	D3.TXB= 000001   	EXDDMF  004134R  	FNDCAL  001550R  	FR.110= 000220
DTEFLG= 000444   	D3.UPE= 000020   	EXDEMF  004142R  	FNDDNF  001556R  	FR.111= 000222
DTEF11= 000450   	D3.URE= 000004   	EXDESD  004104R  	FNDFNA  000010R     004	FR.112= 000224
DTEMSG  001100RG    003	D3.WEP= 000010   	EXDESE  004120R  	FNDFNB= 000036R     004	FR.113= 000226
DTEMTD= 000455   	EBCECT  003722R  	EXDTEN= 000334RG    004	FNDLUN= 000014R     004	FR.114= 000230
DTEMTI= 000456   	EBPEPE  000424R  	EXECTO  004354R  	FOFERM  001545R     005	FR.115= 000232
DTKMSG  002215R     003	EBRMSG  001107RG    003	EXRTBL= 000012 G 	FORPRO= 000020   	FR.116= 000234
DTRMSG  002063R     003	EBSEL = 000100   	EXTEND= 000123   	FRDERM  001575R     005	FR.117= 000236
DUPE  = 000020   	EBSMSG  001033RG    003	EXTEXT  000214R     004	FRDFRF  004436R  	FR.120= 000240
DURE  = 000004   	EBUSPC= 000020   	EXTFEF  002036R  	FRDMSG  000445RG    003	FR.121= 000242
DWRMSG  002150R     003	EBUSPS= 000004   	EXTMSG  001477RG    003	FRDTEN= 000346RG    004	FR.122= 000244
DW1MSG  002104R     003	ECTERM  001127R     005	E.FCID= 000002   	FRFERM  003754R     005	FR.123= 000246
DW2MSG  002114R     003	EDEPT   002154R     003	E.FCOD= 000003   	FR.ADX= 000254   	FR.124= 000250
DW3MSG  002134R     003	EDEXV   002160R     003	E.FCTC= ****** GX	FR.APR= 000220   	FR.125= 000252
DXWRD1= 002000   	EDONES= 040000   	E.FFIL= 000006   	FR.ARX= 000252   	FR.126= 000254
D.CDLS= ****** GX	EDPHY   002174R     003	E.FHTO= 000001   	FR.BRX= 000250   	FR.127= 000256
D1.CES= 004000   	EDTYTB  007264R     002	E.FKLN= 000004   	FR.CA1= 000312   	FR.130= 000260
D1.DCS= 000001   	EDUPT   002164R     003	E.FLOD= 000005   	FR.CA2= 000310   	FR.131= 000262
D1.DDT= 000040   	EDUSV   002170R     003	FAD   = 000140   	FR.CL1= 000316   	FR.132= 000264
D1.DEX= 000400   	ED.EPT= 000000   	FADB  = 000143   	FR.CL2= 000314   	FR.133= 000266
D1.DFM= 000010   	ED.EXV= 000040   	FADL  = 000141   	FR.CRD= 000302   	FR.134= 000270
D1.DS0= 100000   	ED.PHY= 000200   	FADM  = 000142   	FR.CR1= 000316   	FR.135= 000272
D1.DS1= 040000   	ED.UPT= 000100   	FADR  = 000144   	FR.CR2= 000314   	FR.136= 000274
D1.DS2= 020000   	ED.USV= 000140   	FADRB = 000147   	FR.CR3= 000312   	FR.137= 000276
D1.DS3= 010000   	EF.CRI= ****** GX	FADRI = 000145   	FR.CR4= 000310   	FR.140= 000300
D1.DS4= 004000   	ELBBIN  007350RG    002	FADRM = 000146   	FR.DA1= 000260   	FR.141= 000302
D1.DS5= 002000   	ELBOCT  007354RG    002	FCFERM  001377R     005	FR.DA2= 000262   	FR.142= 000304
D1.DS6= 001000   	ELEMSG  000776RG    003	FDV   = 000170   	FR.EBS= 000356   	FR.143= 000306
D1.HLP= 001000   	ELNBIN  007342RG    002	FDVB  = 000173   	FR.FE1= 000266   	FR.144= 000310
D1.LBK= 000200   	ELNNOR  013214R  	FDVL  = 000171   	FR.FE2= 000264   	FR.145= 000312
D1.MBZ= 000442   	ELNOCT  007360RG    002	FDVM  = 000172   	FR.PI0= 000200   	FR.146= 000314
D1.PLS= 000020   	EMFERM  001160R     005	FDVR  = 000174   	FR.PI1= 000202   	FR.147= 000316
D1.RUN= 002000   	ENBMSG  001600RG    003	FDVRB = 000177   	FR.RAD= 000256   	FR.150= 000320
D1.T10= 000200   	ENTCRE  000070R     004	FDVRI = 000175   	FR.RAR= 000240   	FR.151= 000322
D1.T11= 000100   	ENTDEL  000144R     004	FDVRM = 000176   	FR.RBR= 000242   	FR.152= 000324
D1.V04= 000020   	ENTENA  000114R     004	FEBMSG  001254RG    003	FR.RFM= 000246   	FR.153= 000326
D1.XFR= 000004   	ENTER = 000077   	FEFERM  001430R     005	FR.RMQ= 000244   	FR.154= 000330
D1011 = 000040   	ENTFEN  001730R  	FENERM  001462R     005	FR.SC1= 000262   	FR.155= 000332
D2RST   004344R     002	EOCERM  001217R     005	FERMSG  001113RG    003	FR.SC2= 000260   	FR.156= 000334
D2.EBD= 040000   	EOFMSG  000335R     003	FIX   = 000122   	FR.SR1= 000306   	FR.157= 000336
D2.MBZ= 177641   	EPEERM  001255R     005	FIXR  = 000126   	FR.SR2= 000304   	FR.160= 000340
D2.MS1= 000002   	EPTR  = 000000   	FLDMSG  000050R     003	FR.VM0= 000320   	FR.161= 000342
D2.MS2= 000004   	EQV   = 000444   	FLFERM  001513R     005	FR.VM1= 000322   	FR.162= 000344
D2.MS4= 000010   	EQVB  = 000447   	FLGMSG  001116RG    003	FR.VM2= 000324   	FR.163= 000346
D2.MS8= 000020   	EQVI  = 000445   	FLTMSG  001642RG    003	FR.VM3= 000326   	FR.164= 000350
D2.RA0= 100000   	EQVM  = 000446   	FLTR  = 000127   	FR.VM4= 000330   	FR.165= 000352
D2.RA1= 040000   	ERRMSG  001424RG    003	FMMSG   001040RG    003	FR.VM5= 000332   	FR.166= 000354
D2.RA2= 020000   	ERR10C= 010000   	FMP   = 000160   	FR.VM6= 000334   	FR.167= 000356
D2.RST= 000100   	ERR10S= 020000   	FMPB  = 000163   	FR.VM7= 000336   	FR.170= 000360
D3RST   004346R     002	ERR11C= 000001   	FMPL  = 000161   	FR.100= 000200   	FR.171= 000362
TYOUT -- GENERAL TERMINAL OUTPU	MACRO M1113  03-APR-86 22:51  PAGE 262-3
SYMBOL TABLE

FR.172= 000364   	FW.DR1= 000140   	FX.SMR= 000016   	HLLO  = 000520   	IBP   = 000133
FR.173= 000366   	FW.DR2= 000142   	FX.SRF= 000022   	HLLOI = 000521   	IDFERM  001703R     005
FR.174= 000370   	FW.DR3= 000144   	FX.SYC= 000010   	HLLOM = 000522   	IDIV  = 000230
FR.175= 000372   	FW.EBL= 000174   	FX.UDR= 000032   	HLLOS = 000523   	IDIVB = 000233
FR.176= 000374   	FW.IAC= 000154   	FX.UIR= 000030   	HLLS  = 000503   	IDIVI = 000231
FR.177= 000376   	FW.IOJ= 000152   	FX.000= 000000   	HLLZ  = 000510   	IDIVM = 000232
FSB   = 000150   	FW.IPE= 000114   	FX.001= 000002   	HLLZI = 000511   	IDPB  = 000136
FSBB  = 000153   	FW.KLO= 000156   	FX.002= 000004   	HLLZM = 000512   	IE.EBX= ****** GX
FSBL  = 000151   	FW.LAR= 000176   	FX.003= 000006   	HLLZS = 000513   	IE.EOF= ****** GX
FSBM  = 000152   	FW.LBL= 000106   	FX.004= 000010   	HLR   = 000544   	IE.NSF= ****** GX
FSBR  = 000154   	FW.LBR= 000104   	FX.005= 000012   	HLRE  = 000574   	IFCERM  001735R     005
FSBRB = 000157   	FW.MBX= 000162   	FX.006= 000014   	HLREI = 000575   	IFLOP = 100000
FSBRI = 000155   	FW.SBR= 000174   	FX.007= 000016   	HLREM = 000576   	ILCERM  004057R     005
FSBRM = 000156   	FW.040= 000100   	FX.010= 000020   	HLRES = 000577   	ILDB  = 000134
FSC   = 000132   	FW.041= 000102   	FX.011= 000022   	HLRO  = 000564   	ILIERM  001771R     005
FSSMSG  001607RG    003	FW.042= 000104   	FX.012= 000024   	HLROI = 000565   	ILSERM  004111R     005
FSWERM  001625R     005	FW.043= 000106   	FX.013= 000026   	HLROM = 000566   	IMUL  = 000220
FTBYTE= 000000   	FW.044= 000110   	FX.014= 000030   	HLROS = 000567   	IMULB = 000223
FTCRAM= 000000   	FW.045= 000112   	FX.015= 000032   	HLRS  = 000547   	IMULI = 000221
FTDEBU= 000001   	FW.046= 000114   	FX.016= 000034   	HLRZ  = 000554   	IMULM = 000222
FTDISP= 000000   	FW.047= 000116   	FX.017= 000036   	HLRZI = 000555   	IN    = 000056
FTDRAM= 000000   	FW.050= 000120   	FX.020= 000040   	HLRZM = 000556   	INBUF = 000064
FTHELP= 000000   	FW.051= 000122   	FX.021= 000042   	HLRZS = 000557   	INCMSG  000736RG    003
FTKLE = 000001   	FW.052= 000124   	FX.022= 000044   	HLTMSG  000467RG    003	INDLUN= 000005
FTKLER= 000000   	FW.053= 000126   	FX.023= 000046   	HRL   = 000504   	INIMSG  000474RG    003
FTLCMN= 000001 G 	FW.054= 000130   	FX.024= 000050   	HRLE  = 000534   	INIT  = 000041
FTLCVT= 000000   	FW.055= 000132   	FX.025= 000052   	HRLEI = 000535   	INPUT = 000066
FTLIST= 000001   	FW.056= 000134   	FX.026= 000054   	HRLEM = 000536   	INTMSG  001510RG    003
FTTRAK= 000001   	FW.057= 000136   	FX.027= 000056   	HRLES = 000537   	INTROF= 000010
FTTRP4= 000001   	FW.060= 000140   	FX.030= 000060   	HRLI  = 000505   	INTRON= 000040
FTUCVR= 000130   	FW.061= 000142   	FX.031= 000062   	HRLM  = 000506   	INTSON= 000001
FT1105= 000001   	FW.062= 000144   	FX.032= 000064   	HRLO  = 000564   	INT10S= 000400
FT1110= 000001   	FW.063= 000146   	FX.033= 000066   	HRLOI = 000565   	INT11C= 002000
FT1115= 000001   	FW.064= 000150   	FX.034= 000070   	HRLOM = 000566   	INT11S= 004000
FT1120= 000001   	FW.065= 000152   	FX.035= 000072   	HRLOS = 000567   	IOCERM  002015R     005
FT1135= 000001   	FW.066= 000154   	FX.036= 000074   	HRLS  = 000507   	IOMSG   001432RG    003
FT1140= 000001   	FW.067= 000156   	FX.037= 000076   	HRLZ  = 000514   	IOR   = 000434
FT1145= 000000   	FW.070= 000160   	GETSTS= 000062   	HRLZI = 000515   	IORB  = 000437
FULMSG  001530RG    003	FW.071= 000162   	GTFILC  014264R  	HRLZM = 000516   	IORI  = 000435
FWDTEN= 000360RG    004	FW.072= 000164   	GTKKLA  013274R  	HRLZS = 000517   	IORM  = 000436
FWFERM  004001R     005	FW.073= 000166   	GTLCBO  013130R  	HRR   = 000540   	IOTAB   007276R     002
FWRFWF  004560R  	FW.074= 000170   	GTLILC  013136R  	HRRE  = 000570   	IO.ATT= ****** GX
FWRMSG  000453RG    003	FW.075= 000172   	GTNILI  013700R  	HRREI = 000571   	IO.CRE= ****** GX
FWTERM  001652R     005	FW.076= 000174   	GTNMRA  014526R  	HRREM = 000572   	IO.DAC= ****** GX
FW.APE= 000116   	FW.077= 000176   	GTNNER  013506R  	HRRES = 000573   	IO.DEL= ****** GX
FW.CA1= 000122   	FXCFXF  004730R  	GTNNOR  014534R  	HRRI  = 000541   	IO.DET= ****** GX
FW.CA2= 000124   	FXCMSG  000462RG    003	GTNORE  013502R  	HRRM  = 000542   	IO.ENA= ****** GX
FW.CDR= 000112   	FXDTEN= 000372RG    004	HARMSG  001773RG    003	HRRO  = 000560   	IO.EXT= ****** GX
FW.CHN= 000160   	FXFERM  004027R     005	HIBYTE= 177400   	HRROI = 000561   	IO.FNA= ****** GX
FW.CRD= 000126   	FX.BMC= 000012   	HLFMSG  001535RG    003	HRROM = 000562   	IO.RLB= ****** GX
FW.CR1= 000136   	FX.CMR= 000014   	HLL   = 000500   	HRROS = 000563   	IO.RNA= ****** GX
FW.CR2= 000134   	FX.CON= 000024   	HLLE  = 000530   	HRRS  = 000543   	IO.RVB= ****** GX
FW.CR3= 000132   	FX.CRF= 000020   	HLLEI = 000531   	HRRZ  = 000550   	IO.WLB= ****** GX
FW.CR4= 000130   	FX.CSP= 000000   	HLLEM = 000532   	HRRZI = 000551   	IO.WVB= ****** GX
FW.CSR= 000110   	FX.CST= 000002   	HLLES = 000533   	HRRZM = 000552   	IPCERM  004155R     005
FW.DJE= 000146   	FX.EBC= 000006   	HLLI  = 000501   	HRRZS = 000553   	IP.ALL= 000017
FW.DJO= 000150   	FX.MBC= 000004   	HLLM  = 000502   	I     = 000000   	IP.CRP= 000004
TYOUT -- GENERAL TERMINAL OUTPU	MACRO M1113  03-APR-86 22:51  PAGE 262-4
SYMBOL TABLE

IP.DRP= 000002   	KWEERM  002363R     005	MUL   = 000224   	OUTBUF= 000065   	PSWW1 = 000005
IP.FMP= 000010   	LDB   = 000135   	MULB  = 000227   	OUTMSG  001712RG    003	PSWW10= 000014
IP.FSS= 000001   	LG.ALL= 000007   	MULI  = 000225   	OUTPUT= 000067   	PSWW11= 000015
IP.NRM= 000016   	LG.ARG= 000010   	MULM  = 000226   	PAG   = 000010   	PSWW12= 000016
IRCERM  002045R     005	LG.MAR= 000020   	M.KTAE= 000010   	PAGMSG  001435RG    003	PSWW13= 000017
IREERM  002100R     005	LG.MNT= 000004   	M.KTEF= 000002   	PARERC  000662R  	PSWW2 = 000006
IS.SET= ****** GX	LG.MOD= 000040   	M.KTMG= 000004   	PARERX  000506R  	PSWW3 = 000007
ITFERM  002130R     005	LG.NUL= 000000   	M.KTUN= 000006   	PARMSG  000011RG    003	PSWW4 = 000010
ITNERM  002162R     005	LG.OPR= 000001   	M.PARQ= ****** GX	PARNAM  000021RG    003	PSWW5 = 000011
JANMSG  001244RG    003	LG.PRG= 000002   	NDIERM  002521R     005	PARUEC  000734R  	PSWW6 = 000012
JFCL  = 000255   	LG.PRM= 000003   	NEBMSG  000122R     003	PAR$$E= 000050   	PSWW7 = 000013
JFFO  = 000243   	LG.RNG= 000100   	NERERM  002551R     005	PAR$$K= 000126   	PS.NRM= 001416
JMPMSG  000507RG    003	LG.RPT= 000400   	NORERM  002613R     005	PAR$$V= 000015   	PTLERM  003065R     005
JRA   = 000267   	LG.STR= 000200   	NOTMSG  001677RG    003	PCMSG   001046RG    003	PTOATM  000270R     003
JRST  = 000254   	LOAD11= 000004   	NOVMSG  001350RG    003	PC.AFI= 000020   	PTRTEM  000151R     003
JSA   = 000266   	LOGLUN= 000004   	NPIERM  002653R     005	PC.AT0= 000004   	PTRTHM  000221R     003
JSP   = 000265   	LOGMSG  001557RG    003	NRMMSG  001441RG    003	PC.AT1= 000010   	PULSE = 000020
JSR   = 000264   	LOKFLF  001656R  	NSFERM  002707R     005	PC.BIS= 000400   	PUSH  = 000261
JSYS  = 000104   	LOKFNA  000040R     004	NSKERM  004220R     005	PC.CY0= 004000   	PUSHJ = 000260
JULMSG  001312RG    003	LOKFNB= 000066R     004	NSTERM  002732R     005	PC.CY1= 002000   	QRESMS  000552RG    003
JUMP  = 000320   	LOKIOF= 000042R     004	NTIERM  002755R     005	PC.FOV= 001000   	QSAVMS  000560RG    003
JUMPA = 000324   	LOKLUN= 000044R     004	NULMSG  000364RG    003	PC.FUF= 000002   	QSIZE = 000023
JUMPE = 000322   	LOOKUP= 000076   	NULSTP= 000040   	PC.LIP= 000040   	QTRMSG  001542RG    003
JUMPG = 000327   	LPTMSG  001563RG    003	NUPE  = 000002   	PC.NDV= 000001   	QUTMSG  000701RG    003
JUMPGE= 000325   	LSH   = 000242   	NXTMSG  000750RG    003	PC.OVF= 010000   	Q.BYCT= 000016
JUMPL = 000321   	LSHC  = 000246   	OAIERM  003005R     005	PC.UIO= 000100   	Q.IBUF= 000014
JUMPLE= 000323   	LSTLUN= 000003   	OCTMSG  001340RG    003	PC.USR= 000200   	Q.IOAE= 000012
JUMPN = 000326   	MAP   = 000257   	OFCERM  003035R     005	PERCLR= 001000   	Q.IOEF= 000006
JUNMSG  001305RG    003	MARMSG  001265RG    003	OFFMSG  000044RG    003	PE.ALL= 000037   	Q.IOFN= 000002
KCNERM  002212R     005	MAYMSG  001301RG    003	OFSMSG  001703RG    003	PE.CES= 000001   	Q.IOLU= 000004
KF.BRM= 001000   	MBZTAB  004212R     002	ONMSG   000041RG    003	PE.CRM= 000004   	Q.IOPL= 000014
KF.CES= 000100   	MCRMSG  000535RG    003	OPEACC  000160R     004	PE.DRM= 000002   	Q.IOPR= 000007
KF.CLK= 100000   	MEMMSG  001670RG    003	OPEATT= 000210R     004	PE.FMP= 000010   	Q.IOSB= 000010
KF.CON= 000200   	MGNMSG  001521RG    003	OPEFID= 000174R     004	PE.FSS= 000020   	Q.OBUF= 000014
KF.DEF= 000200   	MMSG    000514RG    003	OPEFOF  001776R  	PHYS  = 100000   	Q.OVFC= 000020
KF.KLO= 000400   	MNTMSG  001170RG    003	OPEFUN= 000162R     004	PI    = 000004   	Q0      000126RG    002
KF.MRS= 020000   	MOVE  = 000200   	OPELUN= 000164R     004	PIDENT= 000000   	Q1      000134RG    002
KF.RUN= 040000   	MOVEI = 000201   	OPEN  = 000050   	PIMSG   001127RG    003	Q2      000142RG    002
KF.SIM= 010000   	MOVEM = 000202   	OPERAT  000206R     004	POP   = 000262   	Q3      000150RG    002
KF.SMC= 004000   	MOVES = 000203   	OPRMSG  001204RG    003	POPJ  = 000263   	RAMIS0= 010000
KF.SPM= 002000   	MOVM  = 000214   	OR    = 000434   	PRGMSG  001215RG    003	RDCPT1  004270R     002
KLABIN  007336RG    002	MOVMI = 000215   	ORB   = 000437   	PRI7  = 000340   	RDCPT2  004250R     002
KLAERM  002240R     005	MOVMM = 000216   	ORCA  = 000454   	PRMFM   002306R     003	RDCPT3  004260R     002
KLAOCT  007362RG    002	MOVMS = 000217   	ORCAB = 000457   	PROMPT  000030RG    003	RDCRME  006504R
KLEPRM  000034RG    003	MOVN  = 000210   	ORCAI = 000455   	PROPNT= 000021   	REAFRD  002570R
KLHCFH  005156R  	MOVNI = 000211   	ORCAM = 000456   	PRTOFF= 004000   	REGMSG  001132RG    003
KLIMSG  001661RG    003	MOVNM = 000212   	ORCB  = 000470   	PRVMSG  000755RG    003	REGTAB  007240R     002
KLIOT = 000700   	MOVNS = 000213   	ORCBB = 000473   	PR0   = 000000   	RELEAS= 000071
KLMSG   001124RG    003	MOVS  = 000204   	ORCBI = 000471   	PR1   = 000040   	REMMSG  001230RG    003
KLNBIN  007326RG    002	MOVSI = 000205   	ORCBM = 000472   	PR2   = 000100   	RENAME= 000055
KLNOCT  007356RG    002	MOVSM = 000206   	ORCM  = 000464   	PR3   = 000140   	REPIRC  011122R
KLP   = 000574   	MOVSS = 000207   	ORCMB = 000467   	PR4   = 000200   	RESETT  004334R     002
KLPSTP  005274RG 	MPE11 = 001000   	ORCMI = 000465   	PR5   = 000240   	RESMSG  000566RG    003
KLPWRF= 000010   	MQMSG   001043RG    003	ORCMM = 000466   	PR6   = 000300   	RFMAD0= 100000
KLRERM  002265R     005	MRAERM  002415R     005	ORI   = 000435   	PR7   = 000340   	RFMAD1= 040000
KLSCFH  005266R  	MRHERM  002455R     005	ORM   = 000436   	PS    = 177776   	RFMAD2= 020000
KNCERM  002327R     005	MRKMSG  000516RG    003	OUT   = 000057   	PSTMSG  001721RG    003	RFMAD3= 010000
TYOUT -- GENERAL TERMINAL OUTPU	MACRO M1113  03-APR-86 22:51  PAGE 262-5
SYMBOL TABLE

RGDTEN= 000310RG    004	SOJA  = 000364   	SUBI  = 000275   	TO10  = 000200   	TSO   = 000671
RLDMSG  001735RG    003	SOJE  = 000362   	SUBM  = 000276   	TO10AD= 174420   	TSOA  = 000675
RM    = 000010   	SOJG  = 000367   	SWPMSG  000645RG    003	TO10BC= 174414   	TSOE  = 000673
RMSG    000541RG    003	SOJGE = 000365   	SWR   = 177570   	TO10BM= 000001   	TSON  = 000677
ROT   = 000241   	SOJL  = 000361   	SWSLLT= 100000   	TO10DB= 000400   	TSZ   = 000631
ROTC  = 000245   	SOJLE = 000363   	SXCT  = 000106   	TO10DN= 100000   	TSZA  = 000635
RPMERM  003115R     005	SOJN  = 000366   	SZIERM  003311R     005	TO10DT= 174424   	TSZE  = 000633
RPTMSG  000543RG    003	SOS   = 000370   	TAAERM  003345R     005	TO10ER= 020000   	TSZN  = 000637
RSTEND= 004342R     002	SOSA  = 000374   	TAKMSG  000653RG    003	TO11  = 000100   	TTCALL= 000051
RSTMSG  000574RG    003	SOSE  = 000372   	TC.CON= 000377   	TO11AD= 174422   	TTYMSG  001567RG    003
RTYMSG  001744RG    003	SOSG  = 000377   	TC.CTC= 000002   	TO11BC= 174416   	TT.OUT= ****** GX
RUNMSG  000604RG    003	SOSGE = 000375   	TC.ERR= 000000   	TO11BM= 020000   	TYODIE  015766R
SAVMSG  000610RG    003	SOSL  = 000371   	TC.RST= 000001   	TO11DB= 004000   	UBRMSG  001144RG    003
SBRMSG  001161RG    003	SOSLE = 000373   	TDC   = 000650   	TO11DN= 000200   	UCDMSG  001761RG    003
SCD   = 000040   	SOSN  = 000376   	TDCA  = 000654   	TO11DT= 174426   	UECMSG  000060R     003
SCFERM  003155R     005	SPCEST  001646R     002	TDCE  = 000652   	TO11ER= 000002   	UECMSP  001644R     002
SCRMSG  001165RG    003	SPCMSG  001403RG    003	TDCN  = 000656   	TPDDCK  011364R  	UGETF = 000073
SEPMSG  001326RG    003	SPFERM  003261R     005	TDMSG0  000345R     003	TPDDVD  007232R     002	UJEN  = 000100
SETA  = 000424   	SSTLEN= 000010 G 	TDN   = 000610   	TPDDVS  007224R     002	UNASG1= 000032
SETAB = 000427   	SSTTBE= 000334RG    002	TDNA  = 000614   	TPDRMN  007216R     002	UNASG2= 000033
SETAI = 000425   	STAMSG  002124R     003	TDNE  = 000612   	TRADDR  007250R     002	UNASG3= 000034
SETAM = 000426   	STAT  = 174434   	TDNN  = 000616   	TRC   = 000640   	UNASG4= 000035
SETCA = 000450   	STATO = 000061   	TDO   = 000670   	TRCA  = 000644   	UNASG5= 000036
SETCAB= 000453   	STATUS= 000022   	TDOA  = 000674   	TRCE  = 000642   	UNASG6= 000037
SETCAI= 000451   	STATZ = 000063   	TDOE  = 000672   	TRCN  = 000646   	UNLERM  003432R     005
SETCAM= 000452   	STPCI   004242R     002	TDON  = 000676   	TRDATA  007256R     002	UNMMSG  000660RG    003
SETCM = 000460   	STRMSG  000637RG    003	TDZ   = 000630   	TRKMSG  001752RG    003	USETI = 000074
SETCMB= 000463   	STSW1 = ****** GX	TDZA  = 000634   	TRN   = 000600   	USETO = 000075
SETCMI= 000461   	STUCAE  007454R  	TDZE  = 000632   	TRNA  = 000604   	USRMSG  001237RG    003
SETCMM= 000462   	STUUNL  007462R  	TDZN  = 000636   	TRNE  = 000602   	VERMSG  002004RG    003
SETM  = 000414   	ST.CED= 000100   	TENAD1= 174410   	TRNN  = 000606   	VFYERM  003470R     005
SETMB = 000417   	ST.CLE= 000001   	TENAD2= 174412   	TRO   = 000660   	VF.DSP= 000060
SETMI = 000415   	ST.CTD= 040000   	TENMSG  001005RG    003	TROA  = 000664   	VF.FFD= 000061
SETMM = 000416   	ST.CTE= 010000   	TFRMSG  002014R     003	TROE  = 000662   	VF.INT= 000000
SETMSG  000615RG    003	ST.DW1= 002000   	TFWMSG  002031R     003	TRON  = 000666   	VF.OVR= 000053
SETO  = 000474   	ST.DXD= 000004   	TFXMSG  002046R     003	TRZ   = 000620   	VF.PRM= 000044
SETOB = 000477   	ST.EBS= 000100   	THSMSG  000766RG    003	TRZA  = 000624   	VF.SSP= 000040
SETOI = 000475   	ST.EDB= 004000   	TLC   = 000641   	TRZE  = 000622   	VMAMSG  001150RG    003
SETOM = 000476   	ST.EPE= 000020   	TLCA  = 000645   	TRZN  = 000626   	VMHMSG  001154RG    003
SETSTS= 000060   	ST.IDS= 000010   	TLCE  = 000643   	TR.ALL= 000077   	WEP   = 000010
SETZ  = 000400   	ST.IEN= 000040   	TLCN  = 000647   	TR.DEP= 000020   	WHAMSG  000706RG    003
SETZB = 000403   	ST.ION= 000001   	TLN   = 000601   	TR.DTE= 000040   	WRCRME  007710R
SETZI = 000401   	ST.MBZ= 000000   	TLNA  = 000605   	TR.EXM= 000010   	WRIFWT  003326R
SETZM = 000402   	ST.MOD= 000010   	TLNE  = 000603   	TR.FRD= 000002   	WRMERM  003524R     005
SHOMSG  000621RG    003	ST.MPE= 001000   	TLNN  = 000607   	TR.FWR= 000004   	XCT   = 000256
SHUMSG  000626RG    003	ST.NST= 000040   	TLO   = 000661   	TR.FXC= 000001   	XCTMSG  000713RG    003
SKIERM  003204R     005	ST.RIZ= 010000   	TLOA  = 000665   	TSC   = 000651   	XOR   = 000430
SKIP  = 000330   	ST.RST= 011121   	TLOE  = 000663   	TSCA  = 000655   	XORB  = 000433
SKIPA = 000334   	ST.SEP= 000004   	TLON  = 000667   	TSCAMB  010746R  	XORI  = 000431
SKIPE = 000332   	ST.STE= 000002   	TLZ   = 000621   	TSCE  = 000653   	XORM  = 000432
SKIPG = 000337   	ST.TED= 000200   	TLZA  = 000625   	TSCN  = 000657   	XR    = 000000
SKIPGE= 000335   	ST.TER= 000002   	TLZE  = 000623   	TSCNSK  010760R  	XTOERM  003635R     005
SKIPL = 000331   	ST.TXD= 100000   	TLZN  = 000627   	TSCWRM  010766R  	YORERM  003605R     005
SKIPLE= 000333   	ST.TXE= 020000   	TOBM  = 000004   	TSN   = 000611   	ZERMSG  000717RG    003
SKIPN = 000336   	ST.XDB= 000400   	TOIP  = 000002   	TSNA  = 000615   	ZSTOP = 040000
SLOMSG  001552RG    003	SUB   = 000274   	TOIT  = 000001   	TSNE  = 000613   	$DIV  = ****** GX
SOJ   = 000360   	SUBB  = 000277   	TORERM  003402R     005	TSNN  = 000617   	$DSW  = ****** GX
TYOUT -- GENERAL TERMINAL OUTPU	MACRO M1113  03-APR-86 22:51  PAGE 262-6
SYMBOL TABLE

$$    = 000037   	$$$HLF= 000001   	$$$SHO= 000001   	.CLKWD  000012RG    002	.DTDI3  000360RG    002
$$A   = 000000   	$$$HLT= 000001   	$$$SHU= 000001   	.CLOSE  002114RG 	.DTDW1  003530RG
$$B   = 000000   	$$$INC= 000006   	$$$SLO= 000001   	.CLRCM= ****** GX	.DTDW2  003536RG
$$C   = 000002   	$$$INI= 000002   	$$$SPC= 000001   	.CLRFF  003420RG 	.DTDW3  003556RG
$$D   = 000176   	$$$INT= 000001   	$$$STR= 000001   	.CLRMR= 006000   	.DTSTA  003546RG
$$E   = 000017   	$$$IO = 000001   	$$$SWP= 000001   	.CLRUN= 010000   	.DTSTS  000356RG    002
$$F   = 000000   	$$$JAN= 000001   	$$$TAK= 000001   	.CMDTB  004350RG    002	.DTSTW= 000004
$$PASS= 000000   	$$$JMP= 000001   	$$$TEN= 000004   	.CMNDL= 000430 G 	.DTTRK  012332RG
$$$AB = 000001   	$$$JUL= 000001   	$$$THS= 000004   	.COBFL= 000204 G 	.DWDW1  003454RG
$$$ABO= 000001   	$$$JUN= 000001   	$$$TRK= 000002   	.COBFR  000576RG    002	.DWDW2  003462RG
$$$ACB= 000004   	$$$KL = 000001   	$$$TTY= 000001   	.COMEF= ****** GX	.DWDW3  003502RG
$$$AD = 000001   	$$$KLI= 000002   	$$$T1 = 000006   	.COMMA= 000054   	.DWSTA  003472RG
$$$ADX= 000001   	$$$LOG= 000001   	$$$UBR= 000001   	.COMND  001012RG    002	.EBCLK  003634RG
$$$ALL= 000002   	$$$LPT= 000001   	$$$UCD= 000001   	.CONBT= 012000   	.EBPCK  000410RG
$$$APR= 000001   	$$$M  = 000001   	$$$UNM= 000001   	.CONTC= ****** GX	.EDELA  000104RG    002
$$$AR = 000003   	$$$MAR= 000001   	$$$USR= 000002   	.COSTS  000014RG    002	.EDKLA  000106RG    002
$$$ARG= 000006   	$$$MAY= 000001   	$$$VER= 000001   	.CRAMA  000020RG    002	.EDKLX  000114RG    002
$$$ARX= 000001   	$$$MCR= 000001   	$$$VMA= 000001   	.CRAMR  000022RG    002	.EIOJA= 067000
$$$AUG= 000001   	$$$MEM= 000002   	$$$VMH= 000001   	.CRAMW  000044RG    002	.ELDDW  000122RG    002
$$$BR = 000001   	$$$MGN= 000001   	$$$WHA= 000001   	.CSHRG= 164000   	.ELEDW  000124RG    002
$$$BRX= 000001   	$$$MNT= 000002   	$$$XCT= 000001   	.DBGSW  000066RG    002	.ELNCK  013144RG
$$$CLK= 000002   	$$$MQ = 000001   	$$$ZER= 000001   	.DELET  002100RG 	.ENTER  001664RG
$$$CLR= 000001   	$$$MRK= 000001   	.ABRTC= ****** GX	.DEPAR= ****** GX	.ETAB   004222R     002
$$$CNT= 000001   	$$$NOT= 000001   	.ACBLK  000000RG    002	.DFBLK  000336RG    002	.EXAD = ****** GX
$$$CON= 000002   	$$$NOV= 000001   	.APRWD  000002RG    002	.DFRB   000344RG    002	.EXADX= ****** GX
$$$CPU= 000001   	$$$NRM= 000001   	.ATCID  000460RG    004	.DFRED= ****** GX	.EXAMC= ****** GX
$$$CRA= 000001   	$$$NUL= 000001   	.ATLMD= 000033   	.DFWB   000336RG    002	.EXAMD= ****** GX
$$$CRL= 000001   	$$$NXT= 000004   	.BRCLK= 005000   	.DFWRT= ****** GX	.EXAMF= ****** GX
$$$CRM= 000002   	$$$OCT= 000001   	.BRMBC  003334RG 	.DFXCT= ****** GX	.EXAMI= ****** GX
$$$CTL= 000001   	$$$OFS= 000002   	.BUFSZ= 001000 G 	.DIAG1= 000000   	.EXAMK= ****** GX
$$$DAT= 000002   	$$$OPR= 000002   	.BURST  003340RG 	.DIAG2= 000002   	.EXAMN= ****** GX
$$$DCR= 000004   	$$$OST= 000014   	.CCMDN  000004RG    002	.DIAG3= 000006   	.EXAMP= ****** GX
$$$DEC= 000001   	$$$OUT= 000002   	.CDIBC= 000412R     004	.DISCC= ****** GX	.EXAMZ= ****** GX
$$$DEP= 000001   	$$$PAG= 000001   	.CDIBP= 000410R     004	.DOCMD  007730RG 	.EXARR= ****** GX
$$$DIS= 000001   	$$$PC = 000001   	.CDINP  000374RG    004	.DPBFR  000070RG    002	.EXARX= ****** GX
$$$DPT= 000001   	$$$PI = 000002   	.CDOBC= 000432RG    004	.DPBFX  000076RG    002	.EXBFR  000156RG    002
$$$DRA= 000001   	$$$PRG= 000002   	.CDOBP= 000430RG    004	.DPDPB  000312RG    004	.EXBRR= ****** GX
$$$DRM= 000001   	$$$PRV= 000004   	.CDOFC= 000434RG    004	.DPETB  004674RG    002	.EXBRX= ****** GX
$$$DTE= 000002   	$$$PST= 000002   	.CDOUT  000414RG    004	.DPKLM  003762RG 	.EXCRA= ****** GX
$$$EBR= 000001   	$$$QRE= 000001   	.CECLK= 004000   	.DPOEL= ****** GX	.EXCRL= ****** GX
$$$EBS= 000001   	$$$QSA= 000001   	.CESCK  000000RG 	.DPOKL= ****** GX	.EXCTC= ****** GX
$$$ELE= 000003   	$$$QTR= 000001   	.CHTAB  001502RG    002	.DPOSC= ****** GX	.EXCTF  004150RG
$$$ENB= 000001   	$$$QUT= 000001   	.CIBFL= 000214 G 	.DPOSD= ****** GX	.EXDPB  000324RG    004
$$$ERR= 000001   	$$$R  = 000001   	.CIBFR  000362RG    002	.DPOSI= ****** GX	.EXDPM  004020RG
$$$EXA= 000001   	$$$REG= 000001   	.CISTS  000006RG    002	.DPOSN= ****** GX	.EXDRA= ****** GX
$$$EXT= 000001   	$$$REM= 000001   	.CKARG  000070RG 	.DPOSP= ****** GX	.EXDTE= ****** GX
$$$FEB= 000001   	$$$RES= 000001   	.CKCOL  000130RG 	.DPOSZ= ****** GX	.EXEBR= ****** GX
$$$FER= 000001   	$$$RLD= 000002   	.CKCTC  000166RG 	.DPOTB  004734RG    002	.EXEBS= ****** GX
$$$FLG= 000001   	$$$RPT= 000003   	.CKEOC  000214RG 	.DPTRK  012454RG 	.EXECT  004226RG
$$$FLT= 000002   	$$$RST= 000001   	.CKEOS  000256RG 	.DREG   000352RG    002	.EXETB  005016RG    002
$$$FM = 000002   	$$$RTY= 000002   	.CKOBJ  000300RG 	.DRLTC= 015000   	.EXFER= ****** GX
$$$FRD= 000001   	$$$RUN= 000001   	.CKRNP  000316RG 	.DSACF= 066000   	.EXFMR= ****** GX
$$$FSS= 000002   	$$$SAV= 000001   	.CKRUN  000326RG 	.DSIOJ= 065000   	.EXITP  010110RG
$$$FUL= 000001   	$$$SBR= 000001   	.CKSYM  000374RG 	.DTAB   004232R     002	.EXKLM  003730RG
$$$FWR= 000001   	$$$SCR= 000001   	.CLDFB  003370RG 	.DTCID  000474RG    004	.EXMEL= ****** GX
$$$FXC= 000001   	$$$SEP= 000001   	.CLDFR  003374RG 	.DTDI1  000352RG    002	.EXMKL= ****** GX
$$$HAR= 000001   	$$$SET= 000001   	.CLDFW  003404RG 	.DTDI2  000354RG    002	.EXMPI= ****** GX
TYOUT -- GENERAL TERMINAL OUTPU	MACRO M1113  03-APR-86 22:51  PAGE 262-7
SYMBOL TABLE

.EXMQR= ****** GX	.KLEVL  000202RG    002	.ORADX  000226RG    002	.RESTB  006232RG    002	.SCOTY= ****** GX
.EXMTB  005056RG    002	.KLFLG= ****** GX	.OTATT  004050RG    002	.RESTC= ****** GX	.SCOUT= ****** GX
.EXREG= ****** GX	.KLGO   004744RG 	.OTBBC  003012RG    002	.RESTD  007102RG 	.SCPAL= ****** GX
.EXSBR= ****** GX	.KLHLT  005034RG 	.OTBUF  003016RG    002	.RESTI  007122RG 	.SCPAR= ****** GX
.EXSCR= ****** GX	.KLINC  000170RG    002	.OTFN   002766RG    002	.RESTP  007146RG 	.SCPCR= ****** GX
.EXTND  002004RG 	.KLMTB  005366RG    002	.OTFNB  004016RG    002	.RPTCT  000244RG    002	.SCPDR= ****** GX
.EXTRK  012442RG 	.KLMT1  005412RG    002	.OTPOS  003014RG    002	.RPTPT  000252RG    002	.SCPEN= ****** GX
.EXUBR= ****** GX	.KLRST  005310RG 	.OTVBN  003006RG    002	.RSACB= ****** GX	.SCPFM= ****** GX
.EXVAB= ****** GX	.KLSNP  000203RG    002	.OUTLG  000206RG    002	.RSALL= ****** GX	.SCPFS= ****** GX
.EXVMA= ****** GX	.KLST   005164RG 	.OUTLP  000207RG    002	.RSAPR= ****** GX	.SCPST= ****** GX
.EXVMH= ****** GX	.KLSTP  005212RG 	.OUTTY  000210RG    002	.RSDTE= ****** GX	.SCPTB  006514RG    002
.EXVPC= ****** GX	.KLXCT  005442RG 	.PARER  000432RG 	.RSERR= ****** GX	.SCRLD= ****** GX
.FEMOD= ****** GX	.LCRDL= 052000   	.PASS   000204RG    002	.RSPAG= ****** GX	.SCRPT= ****** GX
.FISTS  001662RG    002	.LCRDR= 051000   	.PCAB1= 150000   	.RSTIN= ****** GX	.SCRTY= ****** GX
.FNDIR  001452RG 	.LCRM1= 057000   	.PCAB2= 151000   	.RSTIO= ****** GX	.SCTRK= ****** GX
.FREAD  004362RG 	.LCRM2= 056000   	.PCAB3= 152000   	.RSTKL  007220RG 	.SEAMB  000520RG
.FRTRK  012172RG 	.LCRM3= 055000   	.PCAB4= 153000   	.RSTPI= ****** GX	.SECES  000756RG
.FWRIT  004444RG 	.LCRM4= 054000   	.PEWRD  000230RG    002	.RSTRC= ****** GX	.SECLK= 003000
.FWTRK  012212RG 	.LCRM5= 053000   	.PITAB  000232RG    002	.RSTTB  006204RG    002	.SEFRF  000606RG
.FXCT   004566RG 	.LDAR = 077000   	.PSCWD  000236RG    002	.RUNCM= ****** GX	.SEFWF  000614RG
.FXTRK  012232RG 	.LDBRC  005466RG 	.PTDIE  001046RG 	.R50TB  001442RG    002	.SEFXF  000622RG
.GFNR = 102000   	.LDBRG  005472RG 	.PTOAT  001352RG 	.SAVEC= ****** GX	.SEILC  000544RG
.GTCMD  012610RG 	.LDBRL= 043000   	.PTTRP  001124RG 	.SAVQ = ****** GX	.SEILS  000544RG
.GTELN  013220RG 	.LDBRR= 042000   	.QUITC= ****** GX	.SAVTB  006214RG    002	.SEIPC  000544RG
.GTEXP  013706RG 	.LDCK1= 046000   	.RCRM1= 147000   	.SCACB= ****** GX	.SENSK  000520RG
.GTFCT  014114RG 	.LDCK2= 047000   	.RCRM2= 146000   	.SCCEC= ****** GX	.SETCM= ****** GX
.GTKLA  013250RG 	.LDCLK  005570RG 	.RCRM3= 145000   	.SCCED= ****** GX	.SETFN  002166RG
.GTKLN  013302RG 	.LDCRA  005666RG 	.RCRM4= 144000   	.SCCEE= ****** GX	.SETMR= 007000
.GTLIN  012644RG 	.LDDIS= 045000   	.RCSPF= 141000   	.SCCLK= ****** GX	.SETRN= 011000
.GTNBR  014410RG 	.LDOBC= 000454RG    004	.RDCPP  006150RG 	.SCCLN= ****** GX	.SETTB  006570RG    002
.GTNUM  013302RG 	.LDOBP= 000452RG    004	.RDCRA= ****** GX	.SCCOM= ****** GX	.SFREC= ****** GX
.GTOPC  013514RG 	.LDOFC= 000456R     004	.RDCRD  006304RG 	.SCCON= ****** GX	.SHIFT  011130RG
.GTTRM  014002RG 	.LDOUT  000436RG    004	.RDCRM  006342RG 	.SCCOO= ****** GX	.SHUTC= ****** GX
.HALTC= ****** GX	.LDPAR  005606RG 	.RDCRO  006512R  	.SCCOP= ****** GX	.SPACE= 000040
.INATT  002750RG    002	.LDRJD= 064000   	.RDCRR  006374RG 	.SCCOT  006436RG    002	.SPETB  006740RG    002
.INBBC  001712RG    002	.LDRJV= 063000   	.RDFMA  006532RG 	.SCCOU= ****** GX	.SSCAN  010774RG
.INBUF  001716RG    002	.LDRM1= 060000   	.RDFMO  006614RG 	.SCCRF= ****** GX	.SSCLK= 002000
.INCHC  000164RG    002	.LDRM2= 061000   	.RDFMP  006650RG 	.SCCRH= ****** GX	.SSTTB  000316RG    002
.INDFG  001660RG    002	.LDRM3= 062000   	.RDIPE  006704RG 	.SCCRQ= ****** GX	.START  010354RG
.INFN   001666RG    002	.LDSEL= 044000   	.RDJ14= 134000   	.SCCRS= ****** GX	.STCLF  007254RG
.INFNB  002716RG    002	.LDSTS  000212RG    002	.RDJ71= 135000   	.SCCSE= ****** GX	.STCLK  007246RG
.INICL= 070000   	.LDZFL  000220RG    002	.RDMAB= 133000   	.SCCSI= ****** GX	.STPCL= 000000
.INICP= ****** GX	.LGLWD  000216RG    002	.RDXSV  000240RG    002	.SCCSM= ****** GX	.STPKL  007272RG
.INITC= ****** GX	.LOKUP  001574RG 	.READ   002440RG 	.SCCTB  006314RG    002	.STPXC  007316RG
.INPOS  001714RG    002	.MARKC= ****** GX	.READB  002406RG 	.SCDAT= ****** GX	.STRCL= 001000
.INVBN  001706RG    002	.MEMFL  000222RG    002	.READR  002224RG 	.SCFSS= ****** GX	.STRTB  007030RG    002
.IRADX  000166RG    002	.MEMRS= 076000   	.READW  002330RG 	.SCINC= ****** GX	.STRTC= ****** GX
.IRLTC= 014000   	.MISC = ****** GX	.RECNT  004066RG    002	.SCKLN= ****** GX	.STRTT= ****** GX
.JUMPC= ****** GX	.MONTB  005430RG    002	.RECPT  004070RG    002	.SCMEL= ****** GX	.STRTU= ****** GX
.KLCON  004736RG 	.MRCLR  006002RG 	.RECRD  004072RG    002	.SCMEM= ****** GX	.STRTV  000254RG    002
.KLDFR  000336RG    004	.MTDPB  000266RG    004	.REGRW  000300RG    004	.SCMKL= ****** GX	.STRUN  007346RG
.KLDFW  000350RG    004	.NOERR= ****** GX	.REGSV  010316RG 	.SCMTB  006420RG    002	.STUCD  007366RG
.KLDFX  000362RG    004	.NOHLT= ****** GX	.RELWD  000242RG    002	.SCNOT= ****** GX	.SVACB= ****** GX
.KLE  = ****** GX	.NOTSW  000224RG    002	.REMOV  001564RG 	.SCOFS= ****** GX	.SVESP  000256RG    002
.KLEDF  000176RG    002	.NSETB  005542RG    002	.REPTC  011036RG 	.SCOTL= ****** GX	.SVKLF  000260RG    002
.KLEPT  000200RG    002	.NULLC  007716RG 	.RESET  006766RG 	.SCOTP= ****** GX	.SVPC = ****** GX
.KLERQ= ****** GX	.OPEN   001736RG 	.RESQ = ****** GX	.SCOTT  006470RG    002	.SWPC = ****** GX
TYOUT -- GENERAL TERMINAL OUTPU	MACRO M1113  03-APR-86 22:51  PAGE 262-8
SYMBOL TABLE

.SWPIP  000262RG    002	.TPXTN  011420RG 	.TYKLA  015106RG 	.T50TB  001472RG    002	.WHRPT= ****** GX
.SYNXC  007470RG 	.TRKWD  000264RG    002	.TYKLN  015156RG 	.UMRKC= ****** GX	.WHRTY= ****** GX
.TAKEC= ****** GX	.TRPEC  000270RG    002	.TYLIN  015446RG 	.VFYFL  000310RG    002	.WHTCL= ****** GX
.TCRLF  015552RG 	.TRPIP  000272RG    002	.TYMIN  014562RG 	.WHACB= ****** GX	.WHTPS= ****** GX
.TFCHR  015504RG 	.TRPPC  000274RG    002	.TYMSF  015454RG 	.WHATB  007046RG    002	.WHTRK= ****** GX
.TPADD  011516RG 	.TRPPS  000276RG    002	.TYMSG  015462RG 	.WHATC= ****** GX	.WRAR1  007512RG
.TPCLR  011372RG 	.TRPSB  000300RG    002	.TYNCM  015240RG 	.WHATV= ****** GX	.WRCRM  007534RG
.TPCMP  011440RG 	.TRPTV  000302RG    002	.TYNUM  015316RG 	.WHCON= ****** GX	.WRITB  003030RG
.TPCOM  011402RG 	.TRP4V  000266RG    002	.TYOBC  000304RG    002	.WHDAT= ****** GX	.WRITE  003160RG
.TPDEC  011550RG 	.TSCAN  010524RG 	.TYOBP  000306RG    002	.WHINC= ****** GX	.WRITR  002616RG
.TPDIV  011160RG 	.TYACE  014630RG 	.TYOUT  015600RG 	.WHKLN= ****** GX	.WRITW  002754RG
.TPINC  011536RG 	.TYAC1  014662RG 	.TYOU1  015660RG 	.WHMEM= ****** GX	.WRITZ  003060RG
.TPMUL  011606RG 	.TYCHR  015520RG 	.TYP3D  015032RG 	.WHOFS= ****** GX	.WRMBX= 071000
.TPNEG  011412RG 	.TYCOL  014542RG 	.TYR50  015772RG 	.WHOUT= ****** GX	.WRTAR  007506RG
.TPSHI  011772RG 	.TYCOM  014552RG 	.TYSLS  014572RG 	.WHRDW= ****** GX	.ZEROC= ****** GX
.TPSHL  012036RG 	.TYELA  014762RG 	.TYSPC  014602RG 	.WHREC= ****** GX	..DTSP= ****** GX
.TPSUB  011562RG 	.TYELN  014766RG 	.TYUPA  014612RG 	.WHRLD= ****** GX	..SACK= ****** GX
.TPTST  011474RG 	.TYINI  015736RG

. ABS.	000000	   000
      	016044	   001
DATA  	007366	   002
MESSAG	002327	   003
DPBS  	000510	   004
ERRMSG	004250	   005
ERRORS DETECTED:  0

VIRTUAL MEMORY USED:  17193 WORDS  ( 68 PAGES)
DYNAMIC MEMORY:  18662 WORDS  ( 71 PAGES)
ELAPSED TIME:  00:04:46
,[51,20]PAROOT/CR/-SP=[51,30]PAROOT.TMP
