PATREE     CREATED BY  MACRO  ON 3-APR-86 AT 22:59	PAGE 1

SYMBOL CROSS REFERENCE                                  CREF

SYMBOL	VALUE		REFERENCES

ABTAB 	  000530 R	 110-4362  #111-4420
ACADR 	  001026 RG	*165-6624  *165-6625   165-6653   165-6655  #165-6657
ACDAT 	  000766 R	*162-6428   162-6445  #162-6448
ADD   	= 000270	#23-878
ADDB  	= 000273	#23-879
ADDI  	= 000271	#23-880
ADDM  	= 000272	#23-881
ADH   	= 000000	#76-3115    76-3115    76-3115   #76-3116    76-3116    76-3116   #139-5632  #139-5632   139-5632
                         139-5632  #139-5634   139-5634   139-5634  #139-5636  #139-5636   139-5636   139-5636  #139-5638
                         139-5638   139-5638  #141-5679   141-5679   141-5679  #141-5681   141-5681   141-5681  #153-6077
                         153-6077   153-6077  #162-6452   162-6452   162-6452
ADL   	= 000100	#76-3115    76-3115    76-3115   #76-3115    76-3115    76-3115   #76-3115    76-3115    76-3115
                        #76-3115    76-3115    76-3115   #76-3116    76-3116    76-3116   #76-3116    76-3116    76-3116
                        #76-3116    76-3116    76-3116   #76-3116    76-3116    76-3116   #139-5632   139-5632   139-5632
                        #139-5632   139-5632   139-5632  #139-5632   139-5632   139-5632  #139-5632   139-5632   139-5632
                        #139-5632   139-5632   139-5632  #139-5632   139-5632   139-5632   139-5632  #139-5632   139-5632
                         139-5632  #139-5634   139-5634   139-5634  #139-5634   139-5634   139-5634  #139-5634   139-5634
                         139-5634  #139-5634   139-5634   139-5634  #139-5634   139-5634   139-5634  #139-5634   139-5634
                         139-5634  #139-5636   139-5636   139-5636  #139-5636   139-5636   139-5636  #139-5636   139-5636
                         139-5636  #139-5636   139-5636   139-5636  #139-5636   139-5636   139-5636  #139-5636   139-5636
                         139-5636   139-5636  #139-5636   139-5636   139-5636  #139-5638   139-5638   139-5638  #139-5638
                         139-5638   139-5638  #139-5638   139-5638   139-5638  #139-5638   139-5638   139-5638  #139-5638
                         139-5638   139-5638  #139-5638   139-5638   139-5638  #141-5679   141-5679   141-5679  #141-5679
                         141-5679   141-5679  #141-5681   141-5681   141-5681  #141-5681   141-5681   141-5681  #141-5681
                         141-5681   141-5681  #141-5681   141-5681   141-5681  #153-6077   153-6077   153-6077  #153-6077
                         153-6077   153-6077  #153-6077   153-6077   153-6077  #153-6077   153-6077   153-6077  #162-6452
                         162-6452   162-6452  #162-6452   162-6452   162-6452  #162-6452   162-6452   162-6452  #162-6452
                         162-6452   162-6452
AND   	= 000404	#23-883
ANDB  	= 000407	#23-884
ANDCA 	= 000410	#23-885
ANDCAB	= 000413	#23-886
ANDCAI	= 000411	#23-887
ANDCAM	= 000412	#23-888
ANDCB 	= 000440	#23-889
ANDCBB	= 000443	#23-890
ANDCBI	= 000441	#23-891
ANDCBM	= 000442	#23-892
ANDCM 	= 000420	#23-893
ANDCMB	= 000423	#23-894
ANDCMI	= 000421	#23-895
ANDCMM	= 000422	#23-896
ANDI  	= 000405	#23-897
ANDM  	= 000406	#23-898
AOBJN 	= 000253	#23-900
AOBJP 	= 000252	#23-901
AOJ   	= 000340	#23-903
AOJA  	= 000344	#23-904
AOJE  	= 000342	#23-905
AOJG  	= 000347	#23-906
AOJGE 	= 000345	#23-907
AOJL  	= 000341	#23-908
PATREE     CREATED BY  MACRO  ON 3-APR-86 AT 22:59	PAGE 2

SYMBOL CROSS REFERENCE                                  CREF

SYMBOL	VALUE		REFERENCES

AOJLE 	= 000343	#23-909
AOJN  	= 000346	#23-910
AOS   	= 000350	#23-912
AOSA  	= 000354	#23-913
AOSE  	= 000352	#23-914
AOSG  	= 000357	#23-915
AOSGE 	= 000355	#23-916
AOSL  	= 000351	#23-917
AOSLE 	= 000353	#23-918
AOSN  	= 000356	#23-919
APR   	= 000000	#7-244      139-5632   139-5632   139-5634   139-5634   139-5636   139-5636
APRMSG	= ******  GX	 115-4785
AP.ALL	= 000177	#9-349
AP.ARP	= 001000	#16-634     16-638     213-8216   218-8391
AP.CDP	= 000004	#9-344      9-349
AP.EIP	= 000400	#16-636     16-638     213-8228   213-8243   217-8352   217-8359
AP.IPF	= 000020	#9-346      9-349
AP.MPE	= 000010	#9-345      9-349
AP.NRM	= 001400	#16-638     16-640
AP.NXM	= 000040	#9-347      9-349
AP.PWF	= 000001	#9-342      9-349
AP.SAP	= 000002	#9-343      9-349
AP.SBE	= 000100	#9-348      9-349
ARMSG 	= ******  GX	 218-8390
ASH   	= 000240	#23-921
ASHC  	= 000244	#23-922
AUGMSG	= ******  GX	 115-4789
A.LULU	= 000002	#127-5197  #127-5206  #127-5212
A.LUNA	= 000004	#127-5197  #127-5206  #127-5212
A.LUNU	= 000006	#127-5197  #127-5206  #127-5212
BC.HDS	= ******  GX	 230-9033
BC.SKP	= ******  GX	 230-9014
BIT0  	= 000001	#185-7375  #235-9225
BIT00 	= 000001	#9-306      10-384     11-410     11-430     12-467     12-468     13-491     13-514     22-843
                         22-857     53-2290    57-2444    58-2458    61-2560    104-4126   158-6230
BIT01 	= 000002	#9-307      10-387     11-406     11-428     12-465     12-466     13-492     13-513     22-844
                         22-858
BIT02 	= 000004	#9-308      10-379     11-405     11-427     11-432     12-463     12-464     13-493     13-512
                         22-845     22-859
BIT03 	= 000010	#9-309      10-378     11-404     11-424     12-460     12-462     13-494     13-511     22-846
                         22-860
BIT04 	= 000020	#9-310      10-376     10-377     11-403     11-422     11-423     12-458     13-495     13-510
                         22-847     22-861
BIT05 	= 000040	#9-311      10-374     11-410     11-421     12-456     12-457     13-496     13-509     22-848
                         22-862
BIT06 	= 000100	#9-312      10-373     11-399     11-432     12-454     12-455     13-485     13-508     22-849
                         22-863
BIT07 	= 000200	#9-313      10-371     10-372     11-410     11-432     12-452     13-484     13-507     22-850
                         22-864
BIT08 	= 000400	#9-314      10-370     11-410     11-432     12-450     13-483     13-506     22-865
BIT09 	= 001000	#9-315      10-366     10-369     11-410     11-432     12-448     13-482     13-505
BIT1  	= 000002	#185-7375  #235-9225
PATREE     CREATED BY  MACRO  ON 3-APR-86 AT 22:59	PAGE 3

SYMBOL CROSS REFERENCE                                  CREF

SYMBOL	VALUE		REFERENCES

BIT10 	= 002000	#9-316      10-365     10-368     11-410     11-432     12-447     13-481     13-504    #185-7375
                        #235-9225
BIT11 	= 004000	#9-317      10-364     10-367     11-410     11-432     12-445     13-480     13-503    #185-7375
                        #235-9225
BIT12 	= 010000	#9-318      10-363     11-410     11-432     12-443     12-444     13-479     13-502     92-3786
                         92-3791   #185-7375  #235-9225
BIT13 	= 020000	#9-319      10-362     11-395     11-410     11-432     12-441     13-478    #185-7375  #235-9225
BIT14 	= 040000	#9-320      10-361     11-392     11-393     11-410     11-415     11-432     12-440     13-477
                        #185-7375  #235-9225
BIT15 	= 100000	#9-321      10-360     11-391     11-410     11-414     11-432     12-438     13-476     106-4189
                        #185-7375  #235-9225
BIT2  	= 000004	#185-7375  #235-9225
BIT3  	= 000010	#185-7375  #235-9225
BIT4  	= 000020	#185-7375  #235-9225
BIT5  	= 000040	#185-7375  #235-9225
BIT6  	= 000100	#185-7375  #235-9225
BIT7  	= 000200	#185-7375  #235-9225
BIT8  	= 000400	#185-7375  #235-9225
BIT9  	= 001000	#185-7375  #235-9225
BLKI  	= 000000	#7-233
BLKO  	= 000002	#7-235
BLT   	= 000251	#23-924
BPARER	= 000020	#185-7375  #235-9225
CAI   	= 000300	#24-926
CAIA  	= 000304	#24-927
CAIE  	= 000302	#24-928
CAIG  	= 000307	#24-929
CAIGE 	= 000305	#24-930
CAIL  	= 000301	#24-931
CAILE 	= 000303	#24-932
CAIN  	= 000306	#24-933
CALL  	= 000040	#24-935
CALLI 	= 000047	#24-936
CAM   	= 000310	#24-938
CAMA  	= 000314	#24-939
CAME  	= 000312	#24-940
CAMG  	= 000317	#24-941
CAMGE 	= 000315	#24-942
CAML  	= 000311	#24-943
CAMLE 	= 000313	#24-944
CAMN  	= 000316	#24-945
CCA   	= 000014	#7-247
CCEMSG	  003317 R	 211-8143  #212-8201
CC.ALL	= 003417	#15-612
CC.NRM	= 000000	#15-611
CDD   	= 000020	#185-7375  #235-9225
CDMTB 	  001214 R	 223-8571  #224-8634
CD.ALL	= 003400	#15-609     15-612     214-8264
CD.CLC	= 000400	#15-607     212-8185   215-8310
CD.CRC	= 002000	#15-605     212-8177   215-8306
CD.DPC	= 001000	#15-606     212-8181   215-8308
CD.NRM	= 000000	#15-608
PATREE     CREATED BY  MACRO  ON 3-APR-86 AT 22:59	PAGE 4

SYMBOL CROSS REFERENCE                                  CREF

SYMBOL	VALUE		REFERENCES

CHNPNT	= 000001	#185-7375  #235-9225
CH.ALP	= 000001	#22-843     22-852
CH.ANM	= 000003	#22-852
CH.AOP	= 000100	#22-849
CH.END	= 000034	#22-851
CH.EOC	= 000010	#22-846     22-851     112-4543   114-4659   137-5562   164-6529   169-6782   187-7436   189-7501
                         209-8051
CH.EOL	= 000004	#22-845     22-851
CH.EOS	= 000020	#22-847     22-851
CH.ILL	= 000200	#22-850
CH.NUL	= 000000	#22-842
CH.NUM	= 000002	#22-844     22-852
CH.PFX	= 000040	#22-848
CIDLUN	= 000001	#21-819     127-5197
CLDSTB	  001124 R	 214-8261  #215-8304
CLEAR 	= 000400	#24-947
CLEARB	= 000403	#24-948
CLEARI	= 000401	#24-949
CLEARM	= 000402	#24-950
CLOSE 	= 000070	#24-952
CLRTTB	  001150 R	 215-8298  #215-8316
CLSRTB	  001140 R	 215-8291  #215-8311
CMDK1 	  002231 R	 130-5355  #130-5355
CMDK10	  002366 R	 130-5364  #130-5364
CMDK2 	  002244 R	 130-5356  #130-5356
CMDK3 	  002256 R	 130-5357  #130-5357
CMDK4 	  002267 R	 130-5358  #130-5358
CMDK5 	  002302 R	 130-5359  #130-5359
CMDK6 	  002315 R	 130-5360  #130-5360
CMDK7 	  002330 R	 130-5361  #130-5361
CMDK8 	  002342 R	 130-5362  #130-5362
CMDK9 	  002354 R	 130-5363  #130-5363
CNUPE 	= 000002	#185-7375  #235-9225
CODLUN	= 000002	#21-820     127-5206
CONI  	= 000005	#7-238      76-3115    76-3115
CONKNC	  000156 R	 38-1585   #38-1606
CONO  	= 000004	#7-237      139-5632   139-5632   139-5634   139-5634   139-5636   139-5636   139-5638   139-5638
                         141-5679   141-5679
CONSO 	= 000007	#7-240
CONSZ 	= 000006	#7-239
CPUNUM	= 000002	#185-7375  #235-9225
CPVMSG	= ******  GX	 204-7809
CRATAB	  000412 R	 107-4228  #109-4281
CRLTAB	  000426 R	 107-4232  #109-4289
CRMMSG	= ******  GX	 215-8305   218-8392
CR.ALL	= 000003	#15-597     15-612     211-8139   215-8296
CR.CR1	= 000001	#15-591     15-597
CR.CR2	= 000002	#15-592     15-597
CR.FUL	= 000000	#15-593
CR.HLF	= 000001	#15-594     211-8129
CR.NRM	= 000000	#15-590
CR.QTR	= 000002	#15-595     211-8133
PATREE     CREATED BY  MACRO  ON 3-APR-86 AT 22:59	PAGE 5

SYMBOL CROSS REFERENCE                                  CREF

SYMBOL	VALUE		REFERENCES

CR.SLO	= 000003	#15-596     211-8137
CS.ALL	= 000014	#15-588     15-612     211-8160   215-8289
CS.CS1	= 000004	#15-582     15-588
CS.CS2	= 000010	#15-583     15-588
CS.EXP	= 177670	#185-7375  #235-9225
CS.EXT	= 000010	#15-586     211-8147
CS.FST	= 000004	#15-584     15-585
CS.MGN	= 000004	#15-585     211-8158
CS.NRM	= 000000	#15-581
CS.UDF	= 000014	#15-587
CTLMSG	= ******  GX	 215-8309
DATAI 	= 000001	#7-234      76-3116    76-3116
DATAO 	= 000003	#7-236      141-5681   141-5681   153-6077   153-6077   162-6452   162-6452
DATBUF	  001262 R	 225-8676  #225-8721
DCOMST	= 000001	#185-7375  #235-9225
DEB880	= ******	 56-2363    81-3325    81-3330    111-4399   123-5059   123-5077   124-5091   127-5194   127-5203
                         159-6285   163-6466   223-8591   223-8604   230-8968   230-8988   230-8997   230-9003   230-9007
                         230-9037   238-9305
DECMSG	= ******  GX	 115-4793
DEP   	= 010000	#185-7375  #235-9225
DEPBLK	  000756 R	 162-6429  #162-6444
DEPOS 	  001343 R	 84-3511   #84-3561
DEX   	= 000400	#185-7375  #235-9225
DEXDON	= 000004	#185-7375  #235-9225
DEXWD1	= 174406	#185-7375  #235-9225
DEXWD2	= 174404	#185-7375  #235-9225
DEXWD3	= 174402	#185-7375  #235-9225
DFAD  	= 000110	#24-954
DFBEND	= ******  GX	 121-5009
DFCIFC	  000656 R	 49-2060    49-2062    49-2064   #49-2078
DFDV  	= 000113	#24-955
DFMP  	= 000112	#24-956
DFN   	= 000131	#24-957
DFRMSG	  000000 R	 50-2116   #50-2160
DFSB  	= 000111	#24-958
DFUNC 	= 000200	#185-7375  #235-9225
DF.DMG	= 000004	#185-7375  #235-9225
DF.DMN	= 000007	#185-7375  #235-9225
DF.DOR	= 000001	#185-7375  #235-9225
DF.EHG	= 000010	#185-7375  #235-9225
DF.EHM	= 000011	#185-7375  #235-9225
DF.EMG	= 000005	#185-7375  #235-9225
DF.EMN	= 000006	#185-7375  #235-9225
DF.KLR	= 000012	#185-7375  #235-9225
DF.KLW	= 000013	#185-7375  #235-9225
DF.KLX	= 000014	#185-7375  #235-9225
DF.OFF	= 000002	#185-7375  #235-9225
DF.ON 	= 000003	#185-7375  #235-9225
DF.PDP	= 000016	#185-7375  #235-9225   238-9334
DF.PEX	= 000015	#185-7375  #235-9225
DG1B10	  001424 R	 85-3593   #85-3603
DG1B11	  001373 R	 85-3592   #85-3602
PATREE     CREATED BY  MACRO  ON 3-APR-86 AT 22:59	PAGE 6

SYMBOL CROSS REFERENCE                                  CREF

SYMBOL	VALUE		REFERENCES

DG1B5 	  001647 R	 85-3598   #85-3608
DG1B6 	  001604 R	 85-3597   #85-3607
DG1B7 	  001541 R	 85-3596   #85-3606
DG1B8 	  001475 R	 85-3595   #85-3605
DG1B9 	  001450 R	 85-3594   #85-3604
DG3B1 	  001711 R	 86-3620   #86-3626
DIAG1 	= 174430	#185-7375  #235-9225
DIAG2 	= 174432	#185-7375  #235-9225
DIAG3 	= 174436	#185-7375  #235-9225
DIATAB	  000356 R	 85-3578   #85-3591
DIKL10	= 000010	#185-7375  #235-9225
DIV   	= 000234	#24-960
DIVB  	= 000237	#24-961
DIVI  	= 000235	#24-962
DIVM  	= 000236	#24-963
DLYCNT	= 174400	#185-7375  #235-9225
DMOVE 	= 000120	#24-965
DMOVEM	= 000124	#24-966
DMOVN 	= 000121	#24-967
DMOVNM	= 000125	#24-968
DON10C	= 040000	#185-7375  #235-9225
DON10S	= 100000	#185-7375  #235-9225
DON11C	= 000100	#185-7375  #235-9225
DON11S	= 000200	#185-7375  #235-9225
DOWMTB	  001244 R	 225-8690  #225-8712
DOWTAB	  001204 R	 223-8594  #224-8627
DPB   	= 000137	#24-970
DPOAPE	  002542 R	 68-2817   #68-2821
DPOATB	  000000 R	 40-1674   #40-1679
DPODTB	  000004 R	 41-1689   #41-1694
DPOITB	  000010 R	 41-1701   #41-1706
DPOKCN	  002550 R	 67-2768   #68-2824
DPONTB	  000014 R	 41-1713   #41-1718
DPOOAI	  001546 R	 57-2445    58-2459   #58-2478
DPOPTB	  000020 R	 41-1725   #41-1730
DPOVFE	  002556 R	 68-2812   #68-2827
DPOZTB	  000024 R	 41-1737   #41-1742
DPS4  	= 040000	#185-7375  #235-9225
DPTMSG	= ******  GX	 215-8307
DRATAB	  000442 R	 107-4236  #109-4297
DRESET	= 000100	#185-7375  #235-9225
DRMMSG	= ******  GX	 218-8394
DR.DTE	= 000011	#185-7375  #235-9225   238-9334
DSEND 	= 000004	#185-7375  #235-9225
DS04  	= 004000	#185-7375  #235-9225
DS05  	= 002000	#185-7375  #235-9225
DS06  	= 001000	#185-7375  #235-9225
DTEBUF	  000140 R	 81-3323    81-3336   #81-3346    82-3412    83-3472    83-3475    84-3497    84-3510    84-3532
                         85-3573    86-3617
DTECMD	= 000451	#185-7375  #235-9225
DTEFLG	= 000444	#185-7375  #235-9225
DTEF11	= 000450	#185-7375  #235-9225
PATREE     CREATED BY  MACRO  ON 3-APR-86 AT 22:59	PAGE 7

SYMBOL CROSS REFERENCE                                  CREF

SYMBOL	VALUE		REFERENCES

DTEMTD	= 000455	#185-7375  #235-9225
DTEMTI	= 000456	#185-7375  #235-9225
DTEREG	  000200 R	 81-3334   #81-3348
DUPE  	= 000020	#185-7375  #235-9225
DURE  	= 000004	#185-7375  #235-9225
DV.LOG	= ******  GX	 231-9050
DXWRD1	= 002000	#185-7375  #235-9225
DX1MS1	  001025 R	 83-3470   #83-3485
DX1MS2	  001045 R	 83-3479   #83-3486
D.CCPU	= ******  GX	 230-9016
D.CKLN	= ******  GX	 230-9035
D1.CES	= 004000	#10-367     165-6632
D1.DCS	= 000001	#10-384
D1.DDT	= 000040	#10-374     10-387
D1.DEX	= 000400	#10-370     10-387
D1.DFM	= 000010	#10-378
D1.DS0	= 100000	#10-360
D1.DS1	= 040000	#10-361
D1.DS2	= 020000	#10-362
D1.DS3	= 010000	#10-363
D1.DS4	= 004000	#10-364
D1.DS5	= 002000	#10-365
D1.DS6	= 001000	#10-366
D1.HLP	= 001000	#10-369     124-5090
D1.LBK	= 000200	#10-372
D1.MBZ	= 000442	#10-387
D1.PLS	= 000020	#10-377
D1.RUN	= 002000	#10-368     123-5076
D1.T10	= 000200	#10-371
D1.T11	= 000100	#10-373
D1.V04	= 000020	#10-376
D1.XFR	= 000004	#10-379
D1011 	= 000040	#185-7375  #235-9225
D2.EBD	= 040000	#11-393
D2.MBZ	= 177641	#11-410
D2.MS1	= 000002	#11-406
D2.MS2	= 000004	#11-405
D2.MS4	= 000010	#11-404
D2.MS8	= 000020	#11-403
D2.RA0	= 100000	#11-391
D2.RA1	= 040000	#11-392
D2.RA2	= 020000	#11-395
D2.RST	= 000100	#11-399
D3.CDD	= 000020	#11-423
D3.MBZ	= 177704	#11-432
D3.NPE	= 000002	#11-428
D3.PAR	= 040000	#11-415
D3.RST	= 000001	#11-434
D3.SCD	= 000040	#11-421
D3.SSL	= 100000	#11-414
D3.TXB	= 000001	#11-430     11-434
D3.UPE	= 000020	#11-422
PATREE     CREATED BY  MACRO  ON 3-APR-86 AT 22:59	PAGE 8

SYMBOL CROSS REFERENCE                                  CREF

SYMBOL	VALUE		REFERENCES

D3.URE	= 000004	#11-427
D3.WEP	= 000010	#11-424
EBSEL 	= 000100	#185-7375  #235-9225
EBUSPC	= 000020	#185-7375  #235-9225
EBUSPS	= 000004	#185-7375  #235-9225
EDNKLA	  000540 R	 47-1967    47-1969   #47-1984
EDONES	= 040000	#185-7375  #235-9225
ED.EPT	= 000000	#9-325
ED.EXV	= 000040	#9-326      140-5660   182-7277
ED.PHY	= 000200	#9-329      67-2787    68-2802    68-2807    71-2926    76-3139    123-5068   153-6060   162-6430
                         165-6628   165-6643   238-9334   244-9419
ED.UPT	= 000100	#9-327
ED.USV	= 000140	#9-328
EF.CRI	= ******  GX	 36-1520    186-7402
EF.PR1	= ******  GX	 223-8541   230-9008
ELEMSG	= ******  GX	 194-7656
ENTER 	= 000077	#25-972
EOSMSG	  002205 R	 130-5331  #130-5345
EPMSG0	  002112 R	 98-3935   #99-3968
EPMSG1	  002126 R	 99-3949   #99-3970
EPMSG2	  002140 R	 99-3954   #99-3972
EPMSG3	  002154 R	 99-3959   #99-3974
EPTR  	= 000000	#185-7375  #235-9225
EPTUPT	  000114 R	#76-3113   *76-3121   *76-3123    76-3128
EQV   	= 000444	#25-974
EQVB  	= 000447	#25-975
EQVI  	= 000445	#25-976
EQVM  	= 000446	#25-977
ERRCES	= ******  GX	 130-5296
ERRCPE	= ******  GX	 130-5309
ERRDPE	= ******  GX	 130-5303
ERRFME	= ******  GX	 130-5315
ERR10C	= 010000	#185-7375  #235-9225
ERR10S	= 020000	#185-7375  #235-9225
ERR11C	= 000001	#185-7375  #235-9225
ERR11S	= 000002	#185-7375  #235-9225
EXADTB	  000034 R	 43-1792   #43-1797
EXAITB	  000040 R	 43-1804   #43-1809
EXAM  	  001353 R	 84-3514   #84-3562
EXANTB	  000044 R	 43-1816   #43-1821
EXAOAI	  002110 R	 61-2561   #61-2602
EXAPTB	  000050 R	 43-1828   #43-1833
EXAZTB	  000054 R	 43-1840   #43-1845
EXBLK 	  001022 R	 165-6627  #165-6655
EXCH  	= 000250	#25-979
EXCIOC	  003574 R	 78-3225   #78-3230
EXDAT 	  001032 RG	 165-6656  #165-6659
EXDEPF	  001334 R	#244-9394  *244-9404  *244-9407   244-9420
EXFMSG	  002011 R	 92-3782   #93-3810
EXMDTB	  000030 R	 42-1777   #42-1782
EXRTBL	= ******  GX	 100-3984
EXTEND	= 000123	#25-980
PATREE     CREATED BY  MACRO  ON 3-APR-86 AT 22:59	PAGE 9

SYMBOL CROSS REFERENCE                                  CREF

SYMBOL	VALUE		REFERENCES

EXTKCN	  003230 R	 71-2916   #71-2977
EXTMSG	= ******  GX	 215-8314
E.FCID	= 000002	#21-803     126-5176
E.FCOD	= 000003	#21-804     126-5177
E.FCTC	= ******  GX	 126-5174
E.FFIL	= 000006	#21-807
E.FHTO	= 000001	#21-802     123-5050   126-5175   166-6702
E.FKLN	= 000004	#21-805     230-9010   230-9034   230-9038
E.FLOD	= 000005	#21-806     126-5179   175-7084   175-7087
FAD   	= 000140	#25-982
FADB  	= 000143	#25-983
FADL  	= 000141	#25-984
FADM  	= 000142	#25-985
FADR  	= 000144	#25-987
FADRB 	= 000147	#25-988
FADRI 	= 000145	#25-989
FADRM 	= 000146	#25-990
FDV   	= 000170	#25-992
FDVB  	= 000173	#25-993
FDVL  	= 000171	#25-994
FDVM  	= 000172	#25-995
FDVR  	= 000174	#25-997
FDVRB 	= 000177	#25-998
FDVRI 	= 000175	#25-999
FDVRM 	= 000176	#25-1000
FEBMSG	= ******  GX	 115-4783
FERTAB	  000456 R	 107-4240  #109-4305
FIX   	= 000122	#25-1002
FIXR  	= 000126	#25-1003
FLTR  	= 000127	#25-1005
FMABO 	  002462 R	 164-6550  #164-6572
FMBUF 	  001004 R	 164-6523  #164-6565   165-6638   165-6654
FMERR 	  001002 R	*164-6508   164-6543  *164-6548  #164-6564  *165-6637
FMHED 	  002416 R	 164-6521  #164-6571
FMMSG 	= ******  GX	 218-8396
FMP   	= 000160	#25-1007
FMPB  	= 000163	#25-1008
FMPL  	= 000161	#25-1009
FMPM  	= 000162	#25-1010
FMPR  	= 000164	#25-1012
FMPRB 	= 000167	#25-1013
FMPRI 	= 000165	#25-1014
FMPRM 	= 000166	#25-1015
FNCIFC	  001332 R	 53-2274    53-2276    53-2281    53-2283    53-2288   #53-2293
FNCOFC	  001340 R	 53-2291   #53-2296
FOFMSG	  002003 R	 92-3788   #93-3808
FONMSG	  001775 R	 92-3785   #93-3806
FORPRO	= 000020	#185-7375  #235-9225
FRDBUF	  000626 RG	 130-5298  #130-5350
FRIMSG	  003724 R	 225-8717  #226-8741
FR.ADX	= 000254	#18-725     102-4031
FR.APR	= 000220	#18-703     73-3051
PATREE     CREATED BY  MACRO  ON 3-APR-86 AT 22:59	PAGE 10

SYMBOL CROSS REFERENCE                                  CREF

SYMBOL	VALUE		REFERENCES

FR.ARX	= 000252	#18-723     102-4039
FR.BRX	= 000250	#18-721     102-4047
FR.CA1	= 000312	#19-755     19-756     109-4282
FR.CA2	= 000310	#19-752     19-753     109-4285
FR.CL1	= 000316	#19-762     109-4290
FR.CL2	= 000314	#19-759     109-4293
FR.CRD	= 000302	#19-746
FR.CR1	= 000316	#19-761     19-762
FR.CR2	= 000314	#19-758     19-759
FR.CR3	= 000312	#19-756
FR.CR4	= 000310	#19-753
FR.DA1	= 000260	#18-731     109-4298
FR.DA2	= 000262	#18-734     109-4301
FR.EBS	= 000356	#20-789     102-4051
FR.FE1	= 000266	#18-738     109-4306
FR.FE2	= 000264	#18-736     109-4309
FR.PI0	= 000200	#18-692     106-4187
FR.PI1	= 000202	#18-694     106-4190
FR.RAD	= 000256	#18-727     102-4027
FR.RAR	= 000240	#18-713     102-4035
FR.RBR	= 000242	#18-715     102-4043
FR.RFM	= 000246	#18-719     102-4055
FR.RMQ	= 000244	#18-717     102-4059
FR.SC1	= 000262	#18-733     109-4322
FR.SC2	= 000260	#18-730     109-4325
FR.SR1	= 000306	#19-750     109-4314
FR.SR2	= 000304	#19-748     109-4317
FR.VM0	= 000320	#19-765
FR.VM1	= 000322	#19-767
FR.VM2	= 000324	#19-769
FR.VM3	= 000326	#19-771
FR.VM4	= 000330	#19-773
FR.VM5	= 000332	#19-775
FR.VM6	= 000334	#19-777
FR.VM7	= 000336	#19-779
FR.100	= 000200	#18-691     18-692     53-2273    104-4117   158-6221
FR.101	= 000202	#18-693     18-694     104-4110   158-6214
FR.102	= 000204	#18-695
FR.103	= 000206	#18-696     130-5299
FR.104	= 000210	#18-697     130-5305
FR.105	= 000212	#18-698     130-5311
FR.106	= 000214	#18-699
FR.107	= 000216	#18-700
FR.110	= 000220	#18-702     18-703
FR.111	= 000222	#18-704     155-6129
FR.112	= 000224	#18-705
FR.113	= 000226	#18-706
FR.114	= 000230	#18-707
FR.115	= 000232	#18-708
FR.116	= 000234	#18-709
FR.117	= 000236	#18-710
FR.120	= 000240	#18-712     18-713
PATREE     CREATED BY  MACRO  ON 3-APR-86 AT 22:59	PAGE 11

SYMBOL CROSS REFERENCE                                  CREF

SYMBOL	VALUE		REFERENCES

FR.121	= 000242	#18-714     18-715
FR.122	= 000244	#18-716     18-717
FR.123	= 000246	#18-718     18-719
FR.124	= 000250	#18-720     18-721
FR.125	= 000252	#18-722     18-723
FR.126	= 000254	#18-724     18-725
FR.127	= 000256	#18-726     18-727
FR.130	= 000260	#18-729     18-730     18-731
FR.131	= 000262	#18-732     18-733     18-734
FR.132	= 000264	#18-735     18-736     104-4124   158-6228
FR.133	= 000266	#18-737     18-738
FR.134	= 000270	#18-739
FR.135	= 000272	#18-740
FR.136	= 000274	#18-741
FR.137	= 000276	#18-742
FR.140	= 000300	#19-744
FR.141	= 000302	#19-745     19-746
FR.142	= 000304	#19-747     19-748
FR.143	= 000306	#19-749     19-750
FR.144	= 000310	#19-751     19-752
FR.145	= 000312	#19-754     19-755
FR.146	= 000314	#19-757     19-758
FR.147	= 000316	#19-760     19-761
FR.150	= 000320	#19-764     19-765     111-4417   111-4421   159-6302
FR.151	= 000322	#19-766     19-767
FR.152	= 000324	#19-768     19-769
FR.153	= 000326	#19-770     19-771
FR.154	= 000330	#19-772     19-773     111-4425   111-4429
FR.155	= 000332	#19-774     19-775
FR.156	= 000334	#19-776     19-777
FR.157	= 000336	#19-778     19-779
FR.160	= 000340	#20-781
FR.161	= 000342	#20-782
FR.162	= 000344	#20-783
FR.163	= 000346	#20-784
FR.164	= 000350	#20-785
FR.165	= 000352	#20-786
FR.166	= 000354	#20-787
FR.167	= 000356	#20-788     20-789
FR.170	= 000360	#20-791
FR.171	= 000362	#20-792
FR.172	= 000364	#20-793
FR.173	= 000366	#20-794
FR.174	= 000370	#20-795
FR.175	= 000372	#20-796
FR.176	= 000374	#20-797
FR.177	= 000376	#20-798     53-2275
FSB   	= 000150	#25-1017
FSBB  	= 000153	#25-1018
FSBL  	= 000151	#25-1019
FSBM  	= 000152	#25-1020
FSBR  	= 000154	#26-1022
PATREE     CREATED BY  MACRO  ON 3-APR-86 AT 22:59	PAGE 12

SYMBOL CROSS REFERENCE                                  CREF

SYMBOL	VALUE		REFERENCES

FSBRB 	= 000157	#26-1023
FSBRI 	= 000155	#26-1024
FSBRM 	= 000156	#26-1025
FSC   	= 000132	#26-1027
FSSMSG	= ******  GX	 218-8398
FTBYTE	= 000000	#2-65
FTCRAM	= 000000	#2-66
FTDEBU	= 000001	#2-67
FTDISP	= 000000	#2-68
FTDRAM	= 000000	#2-69
FTHELP	= 000000	#2-70
FTKLE 	= 000001	#2-77       123-5052   130-5291   131-5391
FTKLER	= 000000	#2-71
FTLCMN	= ******	 1-1        33-1409
FTLCVT	= 000000	#2-72
FTLIST	= 000001	#2-73       126-5178
FTTRAK	= 000001	#2-74       13-490
FTTRP4	= 000001	#2-75
FTUCVR	= 000130	#2-76
FT1105	= 000001	#2-64      #2-101
FT1110	= 000001	#2-63      #2-97       2-100
FT1115	= 000001	#2-62      #2-93       2-96
FT1120	= 000001	#2-61      #2-89       2-92
FT1135	= 000001	#2-60      #2-85       2-88
FT1140	= 000001	#2-59       2-84       3-110
FT1145	= 000000	#2-58       2-80
FULMSG	= ******  GX	 215-8317
FW.APE	= 000116	#16-628
FW.CA1	= 000122	#16-644
FW.CA2	= 000124	#16-646
FW.CDR	= 000112	#15-600
FW.CHN	= 000160	#17-676
FW.CRD	= 000126	#16-648
FW.CR1	= 000136	#16-656
FW.CR2	= 000134	#16-654
FW.CR3	= 000132	#16-652
FW.CR4	= 000130	#16-650
FW.CSR	= 000110	#15-576
FW.DJE	= 000146	#17-665
FW.DJO	= 000150	#17-667
FW.DR1	= 000140	#17-659
FW.DR2	= 000142	#17-661
FW.DR3	= 000144	#17-663
FW.EBL	= 000174	#17-684
FW.IAC	= 000154	#17-671
FW.IOJ	= 000152	#17-669
FW.IPE	= 000114	#16-615
FW.KLO	= 000156	#17-673
FW.LAR	= 000176	#17-687     53-2282
FW.LBL	= 000106	#15-574
FW.LBR	= 000104	#15-572
FW.MBX	= 000162	#17-678
PATREE     CREATED BY  MACRO  ON 3-APR-86 AT 22:59	PAGE 13

SYMBOL CROSS REFERENCE                                  CREF

SYMBOL	VALUE		REFERENCES

FW.SBR	= 000174	#17-685
FW.040	= 000100	#15-569     53-2280
FW.041	= 000102	#15-570
FW.042	= 000104	#15-571     15-572
FW.043	= 000106	#15-573     15-574
FW.044	= 000110	#15-575     15-576
FW.045	= 000112	#15-599     15-600
FW.046	= 000114	#16-614     16-615
FW.047	= 000116	#16-627     16-628
FW.050	= 000120	#16-642
FW.051	= 000122	#16-643     16-644
FW.052	= 000124	#16-645     16-646
FW.053	= 000126	#16-647     16-648
FW.054	= 000130	#16-649     16-650
FW.055	= 000132	#16-651     16-652
FW.056	= 000134	#16-653     16-654
FW.057	= 000136	#16-655     16-656
FW.060	= 000140	#17-658     17-659
FW.061	= 000142	#17-660     17-661
FW.062	= 000144	#17-662     17-663
FW.063	= 000146	#17-664     17-665
FW.064	= 000150	#17-666     17-667
FW.065	= 000152	#17-668     17-669
FW.066	= 000154	#17-670     17-671
FW.067	= 000156	#17-672     17-673
FW.070	= 000160	#17-675     17-676
FW.071	= 000162	#17-677     17-678
FW.072	= 000164	#17-679
FW.073	= 000166	#17-680
FW.074	= 000170	#17-681
FW.075	= 000172	#17-682
FW.076	= 000174	#17-683     17-684     17-685
FW.077	= 000176	#17-686     17-687
FX.BMC	= 000012	#14-529
FX.CMR	= 000014	#14-531
FX.CON	= 000024	#14-540     38-1592
FX.CRF	= 000020	#14-536
FX.CSP	= 000000	#14-519
FX.CST	= 000002	#14-521
FX.EBC	= 000006	#14-525
FX.MBC	= 000004	#14-523
FX.SMR	= 000016	#14-533
FX.SRF	= 000022	#14-538
FX.SYC	= 000010	#14-527
FX.UDR	= 000032	#14-545
FX.UIR	= 000030	#14-543
FX.000	= 000000	#14-518     14-519
FX.001	= 000002	#14-520     14-521
FX.002	= 000004	#14-522     14-523
FX.003	= 000006	#14-524     14-525
FX.004	= 000010	#14-526     14-527
FX.005	= 000012	#14-528     14-529
PATREE     CREATED BY  MACRO  ON 3-APR-86 AT 22:59	PAGE 14

SYMBOL CROSS REFERENCE                                  CREF

SYMBOL	VALUE		REFERENCES

FX.006	= 000014	#14-530     14-531
FX.007	= 000016	#14-532     14-533
FX.010	= 000020	#14-535     14-536
FX.011	= 000022	#14-537     14-538
FX.012	= 000024	#14-539     14-540
FX.013	= 000026	#14-541
FX.014	= 000030	#14-542     14-543
FX.015	= 000032	#14-544     14-545
FX.016	= 000034	#14-546
FX.017	= 000036	#14-547
FX.020	= 000040	#14-549
FX.021	= 000042	#14-550
FX.022	= 000044	#14-551
FX.023	= 000046	#14-552
FX.024	= 000050	#14-553
FX.025	= 000052	#14-554
FX.026	= 000054	#14-555
FX.027	= 000056	#14-556
FX.030	= 000060	#14-558
FX.031	= 000062	#14-559
FX.032	= 000064	#14-560
FX.033	= 000066	#14-561
FX.034	= 000070	#14-562
FX.035	= 000072	#14-563
FX.036	= 000074	#14-564
FX.037	= 000076	#14-565     53-2287
GETEBR	  000124 RG	#76-3115    76-3130
GETSTS	= 000062	#26-1029
GETUBR	  000132 RG	#76-3116    76-3127
GOOBLK	  001016 R	 165-6642  #165-6653
GTDDBT	  006442 R	 112-4582   112-4586   112-4590  #113-4597
GTDDOR	  006450 R	 112-4565   112-4571   112-4575   112-4578  #113-4600
GTDIDF	  006456 R	 112-4515   112-4537   112-4547  #113-4603
GTDMS0	  002167 R	 112-4510  #113-4617
GTDYOR	  006464 R	 112-4552  #113-4606
GTTITF	  007024 R	 114-4662  #114-4719
GTTMS0	  002176 R	 114-4652  #114-4728
GTTTOR	  007032 R	 114-4677   114-4680   114-4696   114-4705  #114-4722
G.TICP	= 000016	#112-4501  #170-6879  #225-8677
G.TICT	= 000014	#112-4501  #170-6879  #225-8677
G.TIDA	= 000004	#112-4501  #170-6879  #225-8677
G.TIHR	= 000006	#112-4501  #170-6879  #225-8677
G.TIMI	= 000010	#112-4501  #170-6879  #225-8677
G.TIMO	= 000002	#112-4501  #170-6879  #225-8677
G.TISC	= 000012	#112-4501  #170-6879  #225-8677
G.TIYR	= 000000	#112-4501  #170-6879  #225-8677
HDDAG1	  000176 R	 81-3361   #81-3400
HDDAG2	  000211 R	 81-3362   #81-3401
HDDAG3	  000237 R	 81-3364   #81-3403
HDDEX1	  000043 R	 81-3352   #81-3391
HDDEX2	  000030 R	 81-3351   #81-3390
HDDEX3	  000015 R	 81-3350   #81-3389
PATREE     CREATED BY  MACRO  ON 3-APR-86 AT 22:59	PAGE 15

SYMBOL CROSS REFERENCE                                  CREF

SYMBOL	VALUE		REFERENCES

HDDLY 	  000004 R	 81-3349   #81-3388
HDSTAT	  000224 R	 81-3363   #81-3402
HDTAD1	  000056 R	 81-3353   #81-3392
HDTAD2	  000071 R	 81-3354   #81-3393
HDT10A	  000126 R	 81-3357   #81-3396
HDT10B	  000102 R	 81-3355   #81-3394
HDT10D	  000152 R	 81-3359   #81-3398
HDT11A	  000141 R	 81-3358   #81-3397
HDT11B	  000115 R	 81-3356   #81-3395
HDT11D	  000165 R	 81-3360   #81-3399
HIBYTE	= 177400	#185-7375  #235-9225
HLFMSG	= ******  GX	 215-8318
HLL   	= 000500	#26-1031
HLLE  	= 000530	#26-1032
HLLEI 	= 000531	#26-1033
HLLEM 	= 000532	#26-1034
HLLES 	= 000533	#26-1035
HLLI  	= 000501	#26-1037
HLLM  	= 000502	#26-1038
HLLO  	= 000520	#26-1040
HLLOI 	= 000521	#26-1041
HLLOM 	= 000522	#26-1042
HLLOS 	= 000523	#26-1043
HLLS  	= 000503	#26-1045
HLLZ  	= 000510	#26-1047
HLLZI 	= 000511	#26-1048
HLLZM 	= 000512	#26-1049
HLLZS 	= 000513	#26-1050
HLR   	= 000544	#26-1052
HLRE  	= 000574	#26-1054
HLREI 	= 000575	#26-1055
HLREM 	= 000576	#26-1056
HLRES 	= 000577	#26-1057
HLRO  	= 000564	#26-1059
HLROI 	= 000565	#26-1060
HLROM 	= 000566	#26-1061
HLROS 	= 000567	#26-1062
HLRS  	= 000547	#26-1064
HLRZ  	= 000554	#26-1066
HLRZI 	= 000555	#26-1067
HLRZM 	= 000556	#26-1068
HLRZS 	= 000557	#26-1069
HRL   	= 000504	#27-1071
HRLE  	= 000534	#27-1073
HRLEI 	= 000535	#27-1074
HRLEM 	= 000536	#27-1075
HRLES 	= 000537	#27-1076
HRLI  	= 000505	#27-1078
HRLM  	= 000506	#27-1079
HRLO  	= 000564	#27-1081
HRLOI 	= 000565	#27-1082
HRLOM 	= 000566	#27-1083
PATREE     CREATED BY  MACRO  ON 3-APR-86 AT 22:59	PAGE 16

SYMBOL CROSS REFERENCE                                  CREF

SYMBOL	VALUE		REFERENCES

HRLOS 	= 000567	#27-1084
HRLS  	= 000507	#27-1086
HRLZ  	= 000514	#27-1088
HRLZI 	= 000515	#27-1089
HRLZM 	= 000516	#27-1090
HRLZS 	= 000517	#27-1091
HRR   	= 000540	#27-1093
HRRE  	= 000570	#27-1095
HRREI 	= 000571	#27-1096
HRREM 	= 000572	#27-1097
HRRES 	= 000573	#27-1098
HRRI  	= 000541	#27-1100
HRRM  	= 000542	#27-1101
HRRO  	= 000560	#27-1103
HRROI 	= 000561	#27-1104
HRROM 	= 000562	#27-1105
HRROS 	= 000563	#27-1106
HRRS  	= 000543	#27-1108
HRRZ  	= 000550	#27-1110
HRRZI 	= 000551	#27-1111
HRRZM 	= 000552	#27-1112
HRRZS 	= 000553	#27-1113
H.KCAC	= ******  GX	 205-7908
H.KCHN	= ******  GX	 205-7907
H.KEXT	= ******  GX	 205-7868   205-7906
H.KMOS	= ******  GX	 205-7905
H.KPWR	= ******  GX	 205-7876
I     	= 000000	#76-3115    76-3115   #76-3116    76-3116   #139-5632   139-5632  #139-5634   139-5634  #139-5636
                         139-5636  #139-5638   139-5638  #141-5679   141-5679  #141-5681   141-5681  #153-6077   153-6077
                        #162-6452   162-6452
IBP   	= 000133	#28-1115
IDIV  	= 000230	#28-1117
IDIVB 	= 000233	#28-1118
IDIVI 	= 000231	#28-1119
IDIVM 	= 000232	#28-1120
IDPB  	= 000136	#28-1122
IE.ACT	= ******  GX	 144-5773
IE.EBX	= ******  GX	 238-9323
IE.INS	= ******  GX	 144-5771
IFLOP 	= 100000	#185-7375  #235-9225
ILDB  	= 000134	#28-1124
IMUL  	= 000220	#28-1126
IMULB 	= 000223	#28-1127
IMULI 	= 000221	#28-1128
IMULM 	= 000222	#28-1129
IN    	= 000056	#28-1131
INBUF 	= 000064	#28-1132
INCEX 	  000074 R	 61-2580   *61-2593   *61-2596   #61-2610
INCFR 	  000064 R	 50-2132   *50-2148   *50-2151   #50-2166
INCTX 	  000104 R	 71-2941   *71-2955   *71-2956   *71-2957    71-2962   #71-2984
INDLUN	= 000005	#21-823     146-5855
INIDNP	  007546 R	 123-5060  #124-5114
PATREE     CREATED BY  MACRO  ON 3-APR-86 AT 22:59	PAGE 17

SYMBOL CROSS REFERENCE                                  CREF

SYMBOL	VALUE		REFERENCES

INIDTC	  007554 R	 124-5092  #124-5117
INIT  	= 000041	#28-1133
INPUT 	= 000066	#28-1134
INTMSG	= ******  GX	 215-8312
INTROF	= 000010	#185-7375  #235-9225
INTRON	= 000040	#185-7375  #235-9225
INTSON	= 000001	#185-7375  #235-9225
INT10S	= 000400	#185-7375  #235-9225
INT11C	= 002000	#185-7375  #235-9225
INT11S	= 004000	#185-7375  #235-9225
IOR   	= 000434	#28-1136    29-1204
IORB  	= 000437	#28-1137    29-1205
IORI  	= 000435	#28-1138    30-1222
IORM  	= 000436	#28-1139    30-1223
IO.ACE	= ******  GX	 170-6850
IO.ACR	= ******  GX	 146-5858
IO.ATT	= ******  GX	 175-7084
IO.DET	= ******  GX	 175-7087
IP.ALL	= 000017	#16-625
IP.CRP	= 000004	#16-621     16-624     213-8220   218-8393
IP.DRP	= 000002	#16-622     16-624     213-8224   218-8395
IP.FMP	= 000010	#16-620     16-624     213-8232   218-8397
IP.FSS	= 000001	#16-623     16-625     213-8236   218-8399
IP.NRM	= 000016	#16-624     16-625     16-640
JANMSG	= ******  GX	 115-4782
JFCL  	= 000255	#28-1141
JFFO  	= 000243	#28-1143
JRA   	= 000267	#28-1145
JRST  	= 000254	#28-1147
JSA   	= 000266	#28-1149
JSP   	= 000265	#28-1151
JSR   	= 000264	#28-1153
JSYS  	= 000104	#28-1155
JULMSG	= ******  GX	 115-4788
JUMP  	= 000320	#28-1157
JUMPA 	= 000324	#28-1158
JUMPE 	= 000322	#28-1159
JUMPG 	= 000327	#28-1160
JUMPGE	= 000325	#28-1161
JUMPL 	= 000321	#28-1162
JUMPLE	= 000323	#28-1163
JUMPN 	= 000326	#28-1164
JUNMSG	= ******  GX	 115-4787
KF.BRM	= 001000	#13-482
KF.CES	= 000100	#13-485
KF.CLK	= 100000	#13-476     38-1588    65-2706    67-2767    71-2915    123-5064   123-5071   138-5583   140-5646
                         187-7441   237-9278
KF.CON	= 000200	#13-484     13-486     38-1584    123-5071
KF.DEF	= 000200	#13-486     121-5011
KF.KLO	= 000400	#13-483     123-5071
KF.MRS	= 020000	#13-478
KF.RUN	= 040000	#13-477     38-1598    49-2069    123-5064   124-5094
PATREE     CREATED BY  MACRO  ON 3-APR-86 AT 22:59	PAGE 18

SYMBOL CROSS REFERENCE                                  CREF

SYMBOL	VALUE		REFERENCES

KF.SIM	= 010000	#13-479     38-1586
KF.SMC	= 004000	#13-480
KF.SPM	= 002000	#13-481
KLETAB	  000634 RG	 130-5317   130-5321  #130-5354
KLIOT 	= 000700	#28-1166
KLNLGE	= 001326 R	 230-9020  #231-9055
KLNLGL	= ******  GX	 230-9018
KLNLOG	  001302 R	#231-9048
KLNPLN	= ******  GX	 230-9013
KLNPWD	  001326 R	 230-8848   230-8983  #231-9057
KLP   	= 000574	#7-248
KLPSTP	= ******  GX	 36-1524    36-1524    118-4907
KLPWRF	= 000010	#185-7375  #235-9225
KL.ABO	= ******  GX	 164-6554
KL.REQ	= ******  GX	 130-5338   164-6552
K.LSCK	= ******  GX	 231-9051
LDB   	= 000135	#29-1168
LGFMSG	  002610 R	 170-6832  #170-6907
LGSMSG	  002543 R	 170-6866  #170-6903
LGVMSG	  002576 R	 170-6869  #170-6905
LG.ALL	= 000007	#22-867     189-7520   232-9141
LG.ARG	= 000010	#22-860
LG.MAR	= 000020	#22-861
LG.MNT	= 000004	#22-859     22-867     190-7546
LG.MOD	= 000040	#22-862
LG.NUL	= 000000	#22-856
LG.OPR	= 000001	#22-857     22-866     189-7512
LG.PRG	= 000002	#22-858     22-866     186-7394   190-7549
LG.PRM	= 000003	#22-866     22-867     189-7516   232-9144
LG.RNG	= 000100	#22-863
LG.RPT	= 000400	#22-865
LG.STR	= 000200	#22-864
LOAD11	= 000004	#185-7375  #235-9225
LOGBUF	  001040 R	 170-6878  #170-6899
LOGLUN	= 000004	#21-822     170-6840   170-6849
LOGMSG	= ******  GX	 174-7055
LOOKUP	= 000076	#29-1170
LPTMSG	= ******  GX	 174-7047
LSH   	= 000242	#29-1172
LSHC  	= 000246	#29-1173
LSTLUN	= 000003	#21-821     127-5212   175-7084   175-7087
MAP   	= 000257	#29-1175
MARMSG	= ******  GX	 115-4784
MAYMSG	= ******  GX	 115-4786
MGNMSG	= ******  GX	 215-8313   215-8315
MNTMSG	= ******  GX	 190-7545   232-9140
MONMSG	  003656 R	 225-8713  #226-8733
MOVE  	= 000200	#29-1177
MOVEI 	= 000201	#29-1178
MOVEM 	= 000202	#29-1179
MOVES 	= 000203	#29-1180
MOVM  	= 000214	#29-1182
PATREE     CREATED BY  MACRO  ON 3-APR-86 AT 22:59	PAGE 19

SYMBOL CROSS REFERENCE                                  CREF

SYMBOL	VALUE		REFERENCES

MOVMI 	= 000215	#29-1183
MOVMM 	= 000216	#29-1184
MOVMS 	= 000217	#29-1185
MOVN  	= 000210	#29-1187
MOVNI 	= 000211	#29-1188
MOVNM 	= 000212	#29-1189
MOVNS 	= 000213	#29-1190
MOVS  	= 000204	#29-1192
MOVSI 	= 000205	#29-1193
MOVSM 	= 000206	#29-1194
MOVSS 	= 000207	#29-1195
MPE11 	= 001000	#185-7375  #235-9225
MUL   	= 000224	#29-1197
MULB  	= 000227	#29-1198
MULI  	= 000225	#29-1199
MULM  	= 000226	#29-1200
NOFMSG	  001746 R	 92-3796   #93-3804
NOMSG 	  003601 R	 220-8450  #221-8473
NONMSG	  003451 R	 214-8266  #216-8334   217-8361
NOOP  	  000300 R	 81-3367    81-3368    81-3369    81-3371    81-3373    81-3374    81-3375    81-3376    81-3377
                         81-3378    81-3380   #81-3384
NOVMSG	= ******  GX	 115-4792
NULSTP	= 000040	#185-7375  #235-9225
NUPE  	= 000002	#185-7375  #235-9225
OCTMSG	= ******  GX	 115-4791
OFFMSG	= ******  GX	 98-3941    199-7724   200-7735   203-7799   207-7949   217-8354   225-8704
OFFSET	  000116 RG	#76-3114    76-3125    76-3146
ONMSG 	= ******  GX	 98-3937    200-7739   203-7796   207-7946   217-8351   225-8701
OPEN  	= 000050	#29-1202
OPRMSG	= ******  GX	 190-7551   232-9146
OR    	= 000434	#29-1204
ORB   	= 000437	#29-1205
ORCA  	= 000454	#29-1207
ORCAB 	= 000457	#29-1208
ORCAI 	= 000455	#29-1209
ORCAM 	= 000456	#29-1210
ORCB  	= 000470	#30-1212
ORCBB 	= 000473	#30-1213
ORCBI 	= 000471	#30-1214
ORCBM 	= 000472	#30-1215
ORCM  	= 000464	#30-1217
ORCMB 	= 000467	#30-1218
ORCMI 	= 000465	#30-1219
ORCMM 	= 000466	#30-1220
ORI   	= 000435	#30-1222
ORM   	= 000436	#30-1223
OUT   	= 000057	#30-1225
OUTBUF	= 000065	#30-1226
OUTPUT	= 000067	#30-1227
PAG   	= 000010	#7-246      76-3115    76-3115    76-3116    76-3116    141-5679   141-5679   141-5681   141-5681
                         153-6077   153-6077   162-6452   162-6452
PAR$$E	= 000050	#1-50
PATREE     CREATED BY  MACRO  ON 3-APR-86 AT 22:59	PAGE 20

SYMBOL CROSS REFERENCE                                  CREF

SYMBOL	VALUE		REFERENCES

PAR$$K	= 000126	#1-54
PAR$$V	= 000015	#1-49
PCMSG 	= ******  GX	 94-3845
PCTAB 	  000522 R	 110-4358  #111-4416
PC.AFI	= 000020	#13-510
PC.AT0	= 000004	#13-512
PC.AT1	= 000010	#13-511
PC.BIS	= 000400	#13-506
PC.CY0	= 004000	#13-503
PC.CY1	= 002000	#13-504
PC.FOV	= 001000	#13-505
PC.FUF	= 000002	#13-513
PC.LIP	= 000040	#13-509
PC.NDV	= 000001	#13-514
PC.OVF	= 010000	#13-502     104-4128   158-6232
PC.UIO	= 000100	#13-508
PC.USR	= 000200	#13-507
PERCLR	= 001000	#185-7375  #235-9225
PE.ALL	= 000037	#9-338
PE.CES	= 000001	#9-333      9-338
PE.CRM	= 000004	#9-335      9-338
PE.DRM	= 000002	#9-334      9-338
PE.FMP	= 000010	#9-336      9-338
PE.FSS	= 000020	#9-337      9-338
PHYS  	= 100000	#185-7375  #235-9225
PI    	= 000004	#7-245      139-5638   139-5638
PIDENT	= 000000	#185-7375  #235-9225
POP   	= 000262	#30-1229
POPJ  	= 000263	#30-1230
PRGMSG	= ******  GX	 190-7548   232-9143
PRI7  	= 000340	#185-7375  #235-9225
PROFF 	  001367 R	 84-3521   #84-3564
PRON  	  001363 R	 84-3518   #84-3563
PROPNT	= 000021	#185-7375  #235-9225
PRTOFF	= 004000	#185-7375  #235-9225
PR0   	= 000000	#185-7375  #235-9225
PR1   	= 000040	#185-7375  #235-9225
PR2   	= 000100	#185-7375  #235-9225
PR3   	= 000140	#185-7375  #235-9225
PR4   	= 000200	#185-7375  #235-9225
PR5   	= 000240	#185-7375  #235-9225
PR6   	= 000300	#185-7375  #235-9225
PR7   	= 000340	#185-7375  #235-9225
PS    	= 177776	 81-3326   *81-3326   *81-3331   #185-7375   223-8592  *223-8592  *223-8605   230-8969  *230-8969
                        *230-8989   230-8998  *230-8998  *230-9004  #235-9225
PSENTB	  001160 R	 218-8371  #218-8389
PSWW1 	= 000005	#185-7375  #235-9225
PSWW10	= 000014	#185-7375  #235-9225
PSWW11	= 000015	#185-7375  #235-9225
PSWW12	= 000016	#185-7375  #235-9225
PSWW13	= 000017	#185-7375  #235-9225
PSWW2 	= 000006	#185-7375  #235-9225
PATREE     CREATED BY  MACRO  ON 3-APR-86 AT 22:59	PAGE 21

SYMBOL CROSS REFERENCE                                  CREF

SYMBOL	VALUE		REFERENCES

PSWW3 	= 000007	#185-7375  #235-9225
PSWW4 	= 000010	#185-7375  #235-9225
PSWW5 	= 000011	#185-7375  #235-9225
PSWW6 	= 000012	#185-7375  #235-9225
PSWW7 	= 000013	#185-7375  #235-9225
PS.NRM	= 001416	#16-640     213-8212
PULSE 	= 000020	#185-7375  #235-9225
PUSH  	= 000261	#30-1232
PUSHJ 	= 000260	#30-1233
QSIZE 	= 000023	#185-7375  #235-9225
QTAB  	  001336 R	#244-9395   244-9412
QTRMSG	= ******  GX	 215-8319
Q.BYCT	= 000016	#21-814
Q.IBUF	= 000014	#21-812
Q.IOAE	= 000012	#175-7084  #175-7087
Q.IOEF	= 000006	#175-7084  #175-7087
Q.IOFN	= 000002	#175-7084  #175-7087
Q.IOLU	= 000004	#175-7084  #175-7087
Q.IOPL	= 000014	#21-811     21-812     21-813     21-814     21-815    #175-7084  #175-7087
Q.IOPR	= 000007	#175-7084  #175-7087
Q.IOSB	= 000010	#175-7084  #175-7087
Q.OBUF	= 000014	#21-813
Q.OVFC	= 000020	#21-815
Q0    	= ******  GX	 244-9395
Q1    	= ******  GX	 244-9396
Q2    	= ******  GX	 244-9397
Q3    	= ******  GX	 244-9398
RACADR	  000730 R	 153-6069  #153-6071
RACBLK	  000724 R	 153-6059  #153-6069
RACDAT	  000734 R	*153-6058   153-6070  #153-6073
RAMIS0	= 010000	#185-7375  #235-9225
RDPITB	  000374 R	 106-4168  #106-4186
RDPITE	= 000410 R	 106-4178  #106-4193
RELEAS	= 000071	#30-1235
REMMSG	= ******  GX	 232-9136
RENAME	= 000055	#30-1236
REQKLD	  000114 R	 232-9151  #232-9160
RFMAD0	= 100000	#185-7375  #235-9225
RFMAD1	= 040000	#185-7375  #235-9225
RFMAD2	= 020000	#185-7375  #235-9225
RFMAD3	= 010000	#185-7375  #235-9225
RM    	= 000010	#185-7375  #235-9225
RNGEX 	  000072 R	 61-2576   *61-2582   *61-2592   #61-2609
RNGFR 	  000062 R	 50-2128   *50-2134   *50-2147   #50-2165
RNGTX 	  000112 R	 71-2936   *71-2944   *71-2954   #71-2985
ROT   	= 000241	#30-1238
ROTC  	= 000245	#30-1239
RQSKLD	  000000 R	 56-2364   #56-2371
RSAKCN	  010532 R	 138-5584  #138-5601
RSAPRI	  000660 R	 139-5610  #139-5631
RSERRI	  000666 R	 139-5614  #139-5633
RSPGI0	  000710 R	 140-5663  #141-5678
PATREE     CREATED BY  MACRO  ON 3-APR-86 AT 22:59	PAGE 22

SYMBOL CROSS REFERENCE                                  CREF

SYMBOL	VALUE		REFERENCES

RSPGI1	  000716 R	 140-5665  #141-5680
RSPKCN	  010710 R	 140-5647  #141-5672
RSTIOI	  000674 R	 139-5618  #139-5635
RSTPII	  000702 R	 139-5622  #139-5637
RUNITN	  011002 R	 143-5755  #144-5775
RUNNST	  011010 R	 144-5772  #144-5778
RUNTAA	  011016 R	 144-5774  #144-5781
R.QSGC	= 000015	#56-2372   #145-5806  #232-9161
R.QSPC	= 000014	#56-2372   #145-5806  #232-9161
R.QSPN	= 000006	#56-2372   #145-5806  #232-9161
R.QSPR	= 000012	#56-2372   #145-5806  #232-9161
R.QSTN	= 000002	#56-2372   #145-5806  #232-9161
SATMSG	  003734 R	 225-8718  #226-8743
SAVBLK	  001014 R	*164-6516   164-6524   164-6555  #164-6567
SBRTAB	  000472 R	 107-4244  #109-4313
SCAILI	  012032 R	 161-6371  #161-6380
SCANOR	  012040 R	 161-6375  #161-6382   164-6533
SCCCLE	  014352 R	 189-7525  #189-7533
SCCLKT	  001100 R	 208-8025  #210-8103
SCD   	= 000040	#185-7375  #235-9225
SCDCDI	  017236 R	 223-8542  #224-8612
SCDDAV	  017244 R	 223-8549  #224-8615
SCDNDI	  017252 R	 223-8555  #224-8618
SCDNTI	  017260 R	 223-8559  #224-8621
SCKIPC	  017626 R	#230-8864   230-8871   230-8875   230-8877
SCKKWE	  020172 R	 230-8941   230-8944   230-8947  #230-8951
SCKMS0	  003756 R	 230-8839  #231-9061
SCKMS1	  003771 R	 230-8882   230-8888  #231-9063
SCKMS2	  004015 R	 230-8896   230-8932  #231-9065
SCKMS3	  004042 R	 230-8957  #231-9067
SCKMS4	  004071 R	 230-8830  #231-9069
SCKNPI	  017604 R	 230-8843  #230-8855
SCKPTL	  017612 R	 230-8846  #230-8858
SCKSKI	  017620 R	 230-8828  #230-8861
SCOCAP	  013434 R	 171-6939   171-6946  #171-6950
SCPART	  001112 R	 208-8030   208-8037  #210-8109
SCPILS	  015766 R	 209-8054  #210-8091
SCPSCF	  015774 R	#210-8094   210-8107
SCPSPF	  016002 R	#210-8097   210-8113
SCRTAB	  000506 R	 107-4248  #109-4321
SEPMSG	= ******  GX	 115-4790
SETA  	= 000424	#30-1241
SETAB 	= 000427	#30-1242
SETACB	  000742 R	 153-6063  #153-6077
SETACI	  000774 R	 162-6434  #162-6452
SETAI 	= 000425	#30-1243
SETAM 	= 000426	#30-1244
SETCA 	= 000450	#30-1246
SETCAB	= 000453	#30-1247
SETCAI	= 000451	#30-1248
SETCAM	= 000452	#30-1249
SETCM 	= 000460	#30-1251
PATREE     CREATED BY  MACRO  ON 3-APR-86 AT 22:59	PAGE 23

SYMBOL CROSS REFERENCE                                  CREF

SYMBOL	VALUE		REFERENCES

SETCMB	= 000463	#30-1252
SETCMI	= 000461	#30-1253
SETCMM	= 000462	#30-1254
SETM  	= 000414	#31-1256
SETMB 	= 000417	#31-1257
SETMI 	= 000415	#31-1258
SETMM 	= 000416	#31-1259
SETO  	= 000474	#31-1261
SETOB 	= 000477	#31-1262
SETOI 	= 000475	#31-1263
SETOM 	= 000476	#31-1264
SETSTS	= 000060	#31-1266
SETZ  	= 000400	#31-1268
SETZB 	= 000403	#31-1269
SETZI 	= 000401	#31-1270
SETZM 	= 000402	#31-1271
SKIP  	= 000330	#31-1273
SKIPA 	= 000334	#31-1274
SKIPE 	= 000332	#31-1275
SKIPG 	= 000337	#31-1276
SKIPGE	= 000335	#31-1277
SKIPL 	= 000331	#31-1278
SKIPLE	= 000333	#31-1279
SKIPN 	= 000336	#31-1280
SLOMSG	= ******  GX	 215-8320
SOJ   	= 000360	#31-1282
SOJA  	= 000364	#31-1283
SOJE  	= 000362	#31-1284
SOJG  	= 000367	#31-1285
SOJGE 	= 000365	#31-1286
SOJL  	= 000361	#31-1287
SOJLE 	= 000363	#31-1288
SOJN  	= 000366	#31-1289
SOS   	= 000370	#31-1291
SOSA  	= 000374	#31-1292
SOSE  	= 000372	#31-1293
SOSG  	= 000377	#31-1294
SOSGE 	= 000375	#31-1295
SOSL  	= 000371	#31-1296
SOSLE 	= 000373	#31-1297
SOSN  	= 000376	#31-1298
SPCTAB	  000342 R	 84-3506   #84-3540
SPC1  	  001257 R	 84-3541   #84-3555
SPC2  	  001263 R	 84-3542   #84-3556
SPC3  	  001300 R	 84-3543   #84-3557
SPC4  	  001304 R	 84-3544   #84-3558
SPC5  	  001321 R	 84-3545   #84-3559
SPC6  	  001332 R	 84-3546   #84-3560
SSTLEN	= ******  GX	 125-5162
STASZI	  014160 R	 186-7392  #186-7405
STAT  	= 174434	#185-7375  #235-9225
STATAB	  000302 R	 82-3413   #82-3426
PATREE     CREATED BY  MACRO  ON 3-APR-86 AT 22:59	PAGE 24

SYMBOL CROSS REFERENCE                                  CREF

SYMBOL	VALUE		REFERENCES

STATO 	= 000061	#31-1300
STATUS	= 000022	#31-1301   #185-7375  #235-9225
STATYP	  003710 R	 81-3381   #82-3411
STATZ 	= 000063	#31-1302
STA0  	  001004 R	 82-3442   #82-3461
STA1  	  000744 R	 82-3441   #82-3460
STA10 	  000432 R	 82-3432   #82-3451
STA11 	  000402 R	 82-3431   #82-3450
STA12 	  000362 R	 82-3430   #82-3449
STA13 	  000327 R	 82-3429   #82-3448
STA14 	  000306 R	 82-3428   #82-3447
STA15 	  000252 R	 82-3427   #82-3446
STA2  	  000714 R	 82-3440   #82-3459
STA3  	  000671 R	 82-3439   #82-3458
STA4  	  000643 R	 82-3438   #82-3457
STA5  	  000604 R	 82-3437   #82-3456
STA6  	  000561 R	 82-3436   #82-3455
STA7  	  000532 R	 82-3435   #82-3454
STA8  	  000502 R	 82-3434   #82-3453
STA9  	  000450 R	 82-3433   #82-3452
STOPEX	  000070 R	*61-2558    61-2578    61-2594    61-2597   *61-2598   #61-2608
STOPFR	  000060 R	*50-2107    50-2130    50-2149    50-2152   *50-2153   #50-2164
STOPTX	  000076 R	*71-2911   *71-2912   *71-2913    71-2938    71-2958    71-2965    71-2966    71-2967   *71-2968
                        *71-2969   *71-2970   #71-2983
STPKL 	  000066 R	 49-2067   *50-2105   *50-2143   #50-2167   *51-2193   *52-2234
ST.CED	= 000100	#12-455     12-470
ST.CLE	= 000001	#12-468     12-470
ST.CTD	= 040000	#12-440
ST.CTE	= 010000	#12-444     12-470
ST.DW1	= 002000	#12-447
ST.DXD	= 000004	#12-463
ST.EBS	= 000100	#12-454
ST.EDB	= 004000	#12-445
ST.EPE	= 000020	#12-458     12-470
ST.IDS	= 000010	#12-462
ST.IEN	= 000040	#12-457
ST.ION	= 000001	#12-467
ST.MBZ	= 000000	#12-472
ST.MOD	= 000010	#12-460     123-5058
ST.MPE	= 001000	#12-448     12-470
ST.NST	= 000040	#12-456
ST.RIZ	= 010000	#12-443
ST.RST	= 011121	#12-470
ST.SEP	= 000004	#12-464
ST.STE	= 000002	#12-466
ST.TED	= 000200	#12-452
ST.TER	= 000002	#12-465
ST.TXD	= 100000	#12-438
ST.TXE	= 020000	#12-441
ST.XDB	= 000400	#12-450
SUB   	= 000274	#32-1304
SUBB  	= 000277	#32-1305
PATREE     CREATED BY  MACRO  ON 3-APR-86 AT 22:59	PAGE 25

SYMBOL CROSS REFERENCE                                  CREF

SYMBOL	VALUE		REFERENCES

SUBI  	= 000275	#32-1306
SUBM  	= 000276	#32-1307
SUNMSG	  003746 R	 225-8719  #226-8745
SVPCTB	  000750 R	 159-6262  #159-6301
SWPFSW	  012644 R	 165-6633   165-6636  #165-6648
SWR   	= 177570	#185-7375  #235-9225
SWSLLT	= 100000	#185-7375  #235-9225
SXCT  	= 000106	#32-1309
SYMTAB	  000240 R	 81-3338    81-3338   #81-3366
TAKIRE	  011160 R	 146-5851  #146-5867
TAKNSF	  011166 R	 146-5857  #146-5869
TA2MS1	  001104 R	 84-3495   #84-3550
TA2MS2	  001126 R	 84-3508   #84-3551
TA2MS3	  001144 R	 84-3516   #84-3552
TA2MS4	  001201 R	 84-3525   #84-3553
TA2MS5	  001236 R	 84-3527   #84-3554
TC.CON	= 000377	#22-874
TC.CTC	= 000002	#22-871
TC.ERR	= 000000	#22-873     38-1607    47-1985    49-2079    53-2294    53-2297    58-2479    61-2603    68-2822
                         68-2825    68-2828    71-2978    78-3231    113-4598   113-4601   113-4604   113-4607   114-4720
                         114-4723   124-5115   124-5118   138-5602   141-5673   144-5776   144-5779   144-5782   146-5868
                         146-5870   161-6381   161-6383   165-6649   171-6951   186-7406   189-7534   205-7896   205-7899
                         210-8092   210-8095   210-8098   224-8613   224-8616   224-8619   224-8622   230-8856   230-8859
                         230-8862   230-8866   230-8952   238-9325   238-9328
TC.RST	= 000001	#22-872
TDC   	= 000650	#32-1311
TDCA  	= 000654	#32-1312
TDCE  	= 000652	#32-1313
TDCN  	= 000656	#32-1314
TDN   	= 000610	#32-1316
TDNA  	= 000614	#32-1317
TDNE  	= 000612	#32-1318
TDNN  	= 000616	#32-1319
TDO   	= 000670	#32-1321
TDOA  	= 000674	#32-1322
TDOE  	= 000672	#32-1323
TDON  	= 000676	#32-1324
TDZ   	= 000630	#32-1326
TDZA  	= 000634	#32-1327
TDZE  	= 000632	#32-1328
TDZN  	= 000636	#32-1329
TEMADR	  000762 R	 162-6444  #162-6446
TENAD1	= 174410	#185-7375  #235-9225
TENAD2	= 174412	#185-7375  #235-9225
TENMSG	= ******  GX	 194-7653
THUMSG	  003712 R	 225-8716  #226-8739
TLC   	= 000641	#32-1331
TLCA  	= 000645	#32-1332
TLCE  	= 000643	#32-1333
TLCN  	= 000647	#32-1334
TLN   	= 000601	#32-1336
TLNA  	= 000605	#32-1337
PATREE     CREATED BY  MACRO  ON 3-APR-86 AT 22:59	PAGE 26

SYMBOL CROSS REFERENCE                                  CREF

SYMBOL	VALUE		REFERENCES

TLNE  	= 000603	#32-1338
TLNN  	= 000607	#32-1339
TLO   	= 000661	#32-1341
TLOA  	= 000665	#32-1342
TLOE  	= 000663	#32-1343
TLON  	= 000667	#32-1344
TLZ   	= 000621	#32-1346
TLZA  	= 000625	#32-1347
TLZE  	= 000623	#32-1348
TLZN  	= 000627	#32-1349
TOBM  	= 000004	#185-7375  #235-9225
TOIP  	= 000002	#185-7375  #235-9225
TOIT  	= 000001	#185-7375  #235-9225
TO10  	= 000200	#185-7375  #235-9225
TO10AD	= 174420	#185-7375  #235-9225
TO10BC	= 174414	#185-7375  #235-9225
TO10BM	= 000001	#185-7375  #235-9225
TO10DB	= 000400	#185-7375  #235-9225
TO10DN	= 100000	#185-7375  #235-9225
TO10DT	= 174424	#185-7375  #235-9225
TO10ER	= 020000	#185-7375  #235-9225
TO11  	= 000100	#185-7375  #235-9225
TO11AD	= 174422	#185-7375  #235-9225
TO11BC	= 174416	#185-7375  #235-9225
TO11BM	= 020000	#185-7375  #235-9225
TO11DB	= 004000	#185-7375  #235-9225
TO11DN	= 000200	#185-7375  #235-9225
TO11DT	= 174426	#185-7375  #235-9225
TO11ER	= 000002	#185-7375  #235-9225
TRC   	= 000640	#32-1351
TRCA  	= 000644	#32-1352
TRCE  	= 000642	#32-1353
TRCN  	= 000646	#32-1354
TRN   	= 000600	#33-1356
TRNA  	= 000604	#33-1357
TRNE  	= 000602	#33-1358
TRNN  	= 000606	#33-1359
TRO   	= 000660	#33-1361
TROA  	= 000664	#33-1362
TROE  	= 000662	#33-1363
TRON  	= 000666	#33-1364
TRZ   	= 000620	#33-1366
TRZA  	= 000624	#33-1367
TRZE  	= 000622	#33-1368
TRZN  	= 000626	#33-1369
TR.ALL	= 000077	#13-497
TR.DEP	= 000020	#13-495     13-497
TR.DTE	= 000040	#13-496     13-497
TR.EXM	= 000010	#13-494     13-497
TR.FRD	= 000002	#13-492     13-497
TR.FWR	= 000004	#13-493     13-497
TR.FXC	= 000001	#13-491     13-497
PATREE     CREATED BY  MACRO  ON 3-APR-86 AT 22:59	PAGE 27

SYMBOL CROSS REFERENCE                                  CREF

SYMBOL	VALUE		REFERENCES

TSC   	= 000651	#33-1371
TSCA  	= 000655	#33-1372
TSCE  	= 000653	#33-1373
TSCN  	= 000657	#33-1374
TSN   	= 000611	#33-1376
TSNA  	= 000615	#33-1377
TSNE  	= 000613	#33-1378
TSNN  	= 000617	#33-1379
TSO   	= 000671	#33-1381
TSOA  	= 000675	#33-1382
TSOE  	= 000673	#33-1383
TSON  	= 000677	#33-1384
TSZ   	= 000631	#33-1386
TSZA  	= 000635	#33-1387
TSZE  	= 000633	#33-1388
TSZN  	= 000637	#33-1389
TTCALL	= 000051	#33-1391
TTYMSG	= ******  GX	 174-7039
TUEMSG	  003666 R	 225-8714  #226-8735
TYDMTB	  000572 R	 115-4765  #115-4781
TYLGMS	  013272 R	 170-6834   170-6834   170-6868   170-6868  #170-6877
TYPAD2	  004016 R	 81-3372   #84-3494
TYPDG1	  004240 R	 81-3379   #85-3572
TYPDG3	  004312 R	 81-3382   #86-3616
TYPDTE	  003612 R	 80-3296   #81-3321
TYPDX1	  003746 R	 81-3370   #83-3469
UGETF 	= 000073	#33-1393
UJEN  	= 000100	#33-1395
UNASG1	= 000032	#185-7375  #235-9225
UNASG2	= 000033	#185-7375  #235-9225
UNASG3	= 000034	#185-7375  #235-9225
UNASG4	= 000035	#185-7375  #235-9225
UNASG5	= 000036	#185-7375  #235-9225
UNASG6	= 000037	#185-7375  #235-9225
USETI 	= 000074	#33-1397
USETO 	= 000075	#33-1398
USRMSG	= ******  GX	 232-9133
VF.DSP	= 000060	#21-829
VF.FFD	= 000061	#21-830
VF.INT	= 000000	#21-827
VF.OVR	= 000053	#21-831
VF.PRM	= 000044	#21-832
VF.SSP	= 000040	#21-828
VMAMSG	= ******  GX	 94-3847
VMATB 	  000536 R	 110-4366  #111-4424
VMHTB 	  000544 R	 110-4370  #111-4428
WACMSG	  002402 R	 163-6460  #163-6482
WCMMSG	  002666 R	 190-7542  #190-7558
WCMSG0	  003367 R	 214-8257  #216-8326
WCMSG1	  003413 R	 214-8259  #216-8328
WCMSG2	  003427 R	 215-8286  #216-8330
WCMSG3	  003441 R	 215-8293  #216-8332
PATREE     CREATED BY  MACRO  ON 3-APR-86 AT 22:59	PAGE 28

SYMBOL CROSS REFERENCE                                  CREF

SYMBOL	VALUE		REFERENCES

WEDMSG	  003677 R	 225-8715  #226-8737
WEP   	= 000010	#185-7375  #235-9225
WHDMS0	  003604 R	 225-8686  #226-8728
WHDMS1	  003632 R	 225-8699  #226-8730
WHHMS0	  003126 R	 205-7859  #205-7912
WHHMS1	  003142 R	 205-7865  #205-7914
WHHMS2	  003154 R	 205-7882  #205-7916
WHHMS3	  003164 R	 205-7905  #205-7918
WHHMS4	  003213 R	 205-7906  #205-7920
WHHMS5	  003240 R	 205-7907  #205-7922
WHHMS6	  003263 R	 205-7908  #205-7924
WHIMSG	  002706 R	 192-7593  #192-7615
WHKMRB	  004246 R	 232-9110  #233-9179
WHKMSA	  004237 R	 232-9103  #233-9177
WHKMSI	  004271 R	 232-9106  #233-9181
WHKMSK	  004302 R	 232-9131  #233-9183
WHKMS0	  004107 R	 232-9098  #233-9167
WHKMS1	  004120 R	 232-9100  #233-9169
WHKMS2	  004131 R	 232-9116  #233-9171
WHKMS3	  004157 R	 232-9123  #233-9173
WHKMS4	  004207 R	 232-9138  #233-9175
WHMMSG	  002746 R	 194-7651  #194-7663
WHOMSG	  002760 R	 196-7684  #196-7693
WHOTMS	  002644 R	 174-7034  #174-7063
WHRCRH	  015506 R	 205-7858  #205-7898
WHRECM	  003272 R	 207-7944  #207-7956
WHRMRH	  015500 R	 205-7857  #205-7895
WHRMSG	  002726 R	 192-7600  #192-7617
WHTMSG	  003042 R	 203-7794  #204-7820
WHWTAB	  001060 R	 205-7885  #205-7904
WPMSG0	  003456 R	 217-8347  #219-8405
WPMSG1	  003510 R	 217-8349  #219-8407
WPMSG2	  003536 R	 217-8357  #219-8409
WRLMSG	  003001 R	 199-7722  #200-7748
WRTMSG	  003022 R	 200-7733  #200-7750
WVMSG1	  003062 R	 204-7807  #204-7822
WVMSG2	  003104 R	 204-7811  #204-7824
XCT   	= 000256	#33-1400
XOR   	= 000430	#33-1402
XORB  	= 000433	#33-1403
XORI  	= 000431	#33-1404
XORM  	= 000432	#33-1405
XR    	= 000000	#76-3115    76-3115   #76-3116    76-3116   #139-5632   139-5632  #139-5634   139-5634  #139-5636
                         139-5636  #139-5638   139-5638  #141-5679   141-5679  #141-5681   141-5681  #153-6077   153-6077
                        #162-6452   162-6452
YESMSG	  003575 R	 220-8446  #221-8471
YONMSG	  003556 R	 220-8439  #221-8469
ZERDPB	  000132 R	*237-9295  *237-9296   238-9308  #238-9333
ZERESD	  021344 R	 238-9324  #238-9327
ZSTOP 	= 040000	#185-7375  #235-9225
$DIV  	= ******  GX	 116-4825   116-4825   116-4829   116-4829   223-8588   223-8588
$DSW  	= ******  GX	 144-5770   238-9323
PATREE     CREATED BY  MACRO  ON 3-APR-86 AT 22:59	PAGE 29

SYMBOL CROSS REFERENCE                                  CREF

SYMBOL	VALUE		REFERENCES

$MUL  	= ******  GX	 114-4683   114-4683   114-4687   114-4687   114-4698   114-4698   114-4708   114-4708   148-5915
                         148-5915   223-8565   223-8565
$$    	= 000037	#34-1463    34-1463   #36-1512    36-1512   #36-1519    36-1519   #36-1521    36-1521   #36-1524
                         36-1524   #38-1582    38-1582   #38-1590    38-1590   #38-1593    38-1593   #38-1597    38-1597
                        #40-1671    40-1671   #42-1773    42-1773   #44-1875    44-1875   #45-1912    45-1912   #47-1946
                         47-1946   #47-1947    47-1947   #47-1951    47-1951   #47-1952    47-1952   #47-1956    47-1956
                        #47-1958    47-1958   #47-1962    47-1962   #47-1964    47-1964   #49-2053    49-2053   #49-2058
                         49-2058   #49-2072    49-2072   #50-2106    50-2106   #50-2108    50-2108   #50-2109    50-2109
                        #50-2115    50-2115   #50-2117    50-2117   #50-2120    50-2120   #50-2121    50-2121   #50-2122
                         50-2122   #50-2124    50-2124   #50-2125    50-2125   #50-2144    50-2144   #50-2146    50-2146
                        #51-2194    51-2194   #51-2195    51-2195   #51-2196    51-2196   #51-2203    51-2203   #51-2204
                         51-2204   #51-2207    51-2207   #52-2235    52-2235   #52-2236    52-2236   #52-2237    52-2237
                        #52-2238    52-2238   #56-2361    56-2361   #57-2435    57-2435   #57-2438    57-2438   #57-2442
                         57-2442   #57-2447    57-2447   #57-2448    57-2448   #58-2457    58-2457   #58-2466    58-2466
                        #58-2468    58-2468   #58-2469    58-2469   #58-2471    58-2471   #59-2491    59-2491   #59-2495
                         59-2495   #59-2499    59-2499   #59-2503    59-2503   #59-2513    59-2513   #60-2544    60-2544
                        #60-2547    60-2547   #60-2551    60-2551   #61-2559    61-2559   #61-2568    61-2568   #61-2570
                         61-2570   #61-2571    61-2571   #61-2573    61-2573   #61-2574    61-2574   #61-2590    61-2590
                        #61-2591    61-2591   #62-2623    62-2623   #62-2627    62-2627   #62-2631    62-2631   #62-2635
                         62-2635   #65-2697    65-2697   #65-2698    65-2698   #65-2703    65-2703   #65-2704    65-2704
                        #65-2708    65-2708   #65-2711    65-2711   #66-2747    66-2747   #66-2750    66-2750   #66-2755
                         66-2755   #66-2756    66-2756   #66-2759    66-2759   #67-2766    67-2766   #67-2788    67-2788
                        #67-2790    67-2790   #67-2791    67-2791   #67-2792    67-2792   #67-2794    67-2794   #67-2795
                         67-2795   #68-2803    68-2803   #68-2808    68-2808   #68-2811    68-2811   #68-2813    68-2813
                        #68-2814    68-2814   #68-2815    68-2815   #69-2840    69-2840   #69-2844    69-2844   #69-2848
                         69-2848   #69-2852    69-2852   #69-2863    69-2863   #70-2895    70-2895   #70-2898    70-2898
                        #70-2903    70-2903   #71-2910    71-2910   #71-2927    71-2927   #71-2929    71-2929   #71-2930
                         71-2930   #71-2931    71-2931   #71-2933    71-2933   #71-2934    71-2934   #71-2939    71-2939
                        #71-2942    71-2942   #71-2952    71-2952   #71-2953    71-2953   #71-2959    71-2959   #71-2963
                         71-2963   #72-2998    72-2998   #72-3002    72-3002   #72-3006    72-3006   #72-3010    72-3010
                        #73-3052    73-3052   #73-3054    73-3054   #76-3126    76-3126   #76-3131    76-3131   #76-3140
                         76-3140   #76-3145    76-3145   #76-3147    76-3147   #76-3153    76-3153   #78-3220    78-3220
                        #78-3221    78-3221   #80-3295    80-3295   #81-3335    81-3335   #81-3337    81-3337   #81-3338
                         81-3338   #82-3419    82-3419   #83-3471    83-3471   #83-3474    83-3474   #83-3480    83-3480
                        #84-3496    84-3496   #84-3507    84-3507   #84-3509    84-3509   #84-3515    84-3515   #84-3517
                         84-3517   #84-3522    84-3522   #84-3526    84-3526   #84-3528    84-3528   #84-3534    84-3534
                        #85-3584    85-3584   #86-3621    86-3621   #91-3733    91-3733   #91-3739    91-3739   #91-3740
                         91-3740   #91-3741    91-3741   #91-3743    91-3743   #91-3744    91-3744   #91-3745    91-3745
                        #91-3747    91-3747   #92-3776    92-3776   #92-3777    92-3777   #92-3778    92-3778   #92-3779
                         92-3779   #92-3783    92-3783   #92-3790    92-3790   #92-3797    92-3797   #94-3842    94-3842
                        #94-3844    94-3844   #94-3846    94-3846   #94-3848    94-3848   #94-3849    94-3849   #94-3850
                         94-3850   #96-3889    96-3889   #96-3891    96-3891   #96-3892    96-3892   #96-3894    96-3894
                        #96-3896    96-3896   #96-3897    96-3897   #96-3898    96-3898   #96-3900    96-3900   #98-3929
                         98-3929   #98-3931    98-3931   #98-3932    98-3932   #98-3933    98-3933   #98-3936    98-3936
                        #99-3948    99-3948   #99-3950    99-3950   #99-3953    99-3953   #99-3955    99-3955   #99-3958
                         99-3958   #99-3960    99-3960   #99-3963    99-3963   #100-3981   100-3981  #100-3982   100-3982
                        #100-3988   100-3988  #104-4111   104-4111  #104-4113   104-4113  #104-4118   104-4118  #104-4120
                         104-4120  #104-4125   104-4125  #106-4173   106-4173  #106-4175   106-4175  #108-4260   108-4260
                        #108-4262   108-4262  #108-4267   108-4267  #108-4269   108-4269  #110-4372   110-4372  #110-4380
                         110-4380  #111-4390   111-4390  #111-4395   111-4395  #112-4511   112-4511  #112-4512   112-4512
                        #112-4514   112-4514  #112-4533   112-4533  #112-4536   112-4536  #112-4539   112-4539  #112-4545
                         112-4545  #112-4546   112-4546  #112-4548   112-4548  #112-4555   112-4555  #114-4653   114-4653
PATREE     CREATED BY  MACRO  ON 3-APR-86 AT 22:59	PAGE 30

SYMBOL CROSS REFERENCE                                  CREF

SYMBOL	VALUE		REFERENCES

                        #114-4656   114-4656  #114-4658   114-4658  #114-4661   114-4661  #114-4667   114-4667  #114-4670
                         114-4670  #114-4675   114-4675  #114-4683   114-4683  #114-4687   114-4687  #114-4698   114-4698
                        #114-4701   114-4701  #114-4702   114-4702  #114-4708   114-4708  #115-4761   115-4761  #115-4762
                         115-4762  #115-4766   115-4766  #115-4767   115-4767  #115-4771   115-4771  #115-4774   115-4774
                        #116-4825   116-4825  #116-4829   116-4829  #116-4834   116-4834  #116-4837   116-4837  #116-4838
                         116-4838  #116-4842   116-4842  #116-4845   116-4845  #118-4905   118-4905  #118-4906   118-4906
                        #120-4969   120-4969  #123-5057   123-5057  #123-5062   123-5062  #123-5070   123-5070  #123-5075
                         123-5075  #126-5181   126-5181  #126-5182   126-5182  #130-5300   130-5300  #130-5306   130-5306
                        #130-5312   130-5312  #130-5332   130-5332  #130-5340   130-5340  #131-5393   131-5393  #134-5478
                         134-5478  #134-5479   134-5479  #134-5481   134-5481  #134-5493   134-5493  #137-5564   137-5564
                        #137-5566   137-5566  #137-5570   137-5570  #137-5574   137-5574  #137-5575   137-5575  #138-5585
                         138-5585  #138-5586   138-5586  #138-5587   138-5587  #138-5588   138-5588  #138-5589   138-5589
                        #138-5597   138-5597  #138-5598   138-5598  #140-5648   140-5648  #140-5661   140-5661  #140-5664
                         140-5664  #140-5666   140-5666  #143-5753   143-5753  #143-5754   143-5754  #143-5757   143-5757
                        #143-5758   143-5758  #146-5843   146-5843  #146-5844   146-5844  #146-5847   146-5847  #146-5849
                         146-5849  #146-5856   146-5856  #146-5859   146-5859  #148-5915   148-5915  #149-5949   149-5949
                        #152-6011   152-6011  #152-6012   152-6012  #152-6013   152-6013  #153-6061   153-6061  #153-6064
                         153-6064  #154-6104   154-6104  #154-6105   154-6105  #154-6106   154-6106  #155-6130   155-6130
                        #155-6132   155-6132  #156-6159   156-6159  #156-6166   156-6166  #158-6215   158-6215  #158-6217
                         158-6217  #158-6222   158-6222  #158-6224   158-6224  #158-6229   158-6229  #159-6263   159-6263
                        #159-6271   159-6271  #159-6276   159-6276  #159-6281   159-6281  #161-6372   161-6372  #161-6373
                         161-6373  #161-6376   161-6376  #162-6432   162-6432  #162-6435   162-6435  #162-6439   162-6439
                        #163-6461   163-6461  #163-6463   163-6463  #163-6474   163-6474  #163-6476   163-6476  #164-6513
                         164-6513  #164-6517   164-6517  #164-6522   164-6522  #164-6525   164-6525  #164-6526   164-6526
                        #164-6527   164-6527  #164-6531   164-6531  #164-6535   164-6535  #164-6540   164-6540  #164-6551
                         164-6551  #164-6557   164-6557  #165-6623   165-6623  #165-6629   165-6629  #165-6631   165-6631
                        #165-6634   165-6634  #165-6639   165-6639  #165-6640   165-6640  #165-6641   165-6641  #165-6644
                         165-6644  #166-6703   166-6703  #166-6704   166-6704  #166-6706   166-6706  #169-6786   169-6786
                        #169-6787   169-6787  #169-6789   169-6789  #169-6791   169-6791  #169-6793   169-6793  #169-6794
                         169-6794  #169-6795   169-6795  #170-6833   170-6833  #170-6834   170-6834  #170-6835   170-6835
                        #170-6836   170-6836  #170-6837   170-6837  #170-6841   170-6841  #170-6851   170-6851  #170-6853
                         170-6853  #170-6854   170-6854  #170-6858   170-6858  #170-6867   170-6867  #170-6868   170-6868
                        #170-6870   170-6870  #170-6872   170-6872  #170-6873   170-6873  #170-6874   170-6874  #170-6889
                         170-6889  #170-6891   170-6891  #174-7035   174-7035  #174-7040   174-7040  #174-7046   174-7046
                        #174-7048   174-7048  #174-7054   174-7054  #174-7056   174-7056  #178-7151   178-7151  #178-7158
                         178-7158  #178-7163   178-7163  #179-7195   179-7195  #179-7196   179-7196  #179-7197   179-7197
                        #180-7204   180-7204  #182-7265   182-7265  #182-7278   182-7278  #182-7280   182-7280  #184-7341
                         184-7341  #184-7344   184-7344  #186-7380   186-7380  #186-7384   186-7384  #186-7390   186-7390
                        #186-7391   186-7391  #186-7393   186-7393  #186-7396   186-7396  #186-7399   186-7399  #187-7433
                         187-7433  #187-7438   187-7438  #187-7439   187-7439  #187-7443   187-7443  #189-7503   189-7503
                        #189-7505   189-7505  #189-7506   189-7506  #189-7510   189-7510  #190-7543   190-7543  #191-7572
                         191-7572  #191-7573   191-7573  #191-7581   191-7581  #191-7583   191-7583  #192-7603   192-7603
                        #192-7606   192-7606  #193-7628   193-7628  #193-7630   193-7630  #193-7631   193-7631  #193-7638
                         193-7638  #194-7652   194-7652  #195-7674   195-7674  #195-7676   195-7676  #196-7685   196-7685
                        #196-7687   196-7687  #197-7700   197-7700  #198-7708   198-7708  #199-7723   199-7723  #200-7734
                         200-7734  #201-7765   201-7765  #201-7767   201-7767  #201-7771   201-7771  #202-7779   202-7779
                        #203-7795   203-7795  #204-7808   204-7808  #204-7810   204-7810  #204-7812   204-7812  #205-7860
                         205-7860  #205-7864   205-7864  #205-7866   205-7866  #205-7872   205-7872  #205-7873   205-7873
                        #205-7874   205-7874  #205-7880   205-7880  #205-7883   205-7883  #205-7890   205-7890  #206-7934
                         206-7934  #207-7942   207-7942  #207-7945   207-7945  #208-8024   208-8024  #208-8029   208-8029
                        #208-8031   208-8031  #208-8032   208-8032  #208-8036   208-8036  #209-8046   209-8046  #209-8048
                         209-8048  #209-8049   209-8049  #209-8063   209-8063  #209-8064   209-8064  #209-8066   209-8066
PATREE     CREATED BY  MACRO  ON 3-APR-86 AT 22:59	PAGE 31

SYMBOL CROSS REFERENCE                                  CREF

SYMBOL	VALUE		REFERENCES

                        #209-8073   209-8073  #210-8082   210-8082  #210-8083   210-8083  #210-8084   210-8084  #211-8144
                         211-8144  #211-8145   211-8145  #214-8252   214-8252  #214-8253   214-8253  #214-8254   214-8254
                        #214-8258   214-8258  #214-8260   214-8260  #214-8267   214-8267  #214-8274   214-8274  #214-8275
                         214-8275  #214-8276   214-8276  #214-8279   214-8279  #215-8287   215-8287  #215-8292   215-8292
                        #215-8294   215-8294  #217-8342   217-8342  #217-8343   217-8343  #217-8344   217-8344  #217-8348
                         217-8348  #217-8350   217-8350  #217-8356   217-8356  #217-8358   217-8358  #217-8362   217-8362
                        #218-8377   218-8377  #218-8378   218-8378  #218-8379   218-8379  #220-8440   220-8440  #220-8441
                         220-8441  #220-8443   220-8443  #220-8447   220-8447  #220-8451   220-8451  #220-8453   220-8453
                        #223-8550   223-8550  #223-8554   223-8554  #223-8558   223-8558  #223-8565   223-8565  #223-8588
                         223-8588  #225-8675   225-8675  #225-8687   225-8687  #225-8691   225-8691  #225-8692   225-8692
                        #225-8694   225-8694  #225-8695   225-8695  #225-8697   225-8697  #225-8698   225-8698  #225-8700
                         225-8700  #230-8821   230-8821  #230-8831   230-8831  #230-8834   230-8834  #230-8836   230-8836
                        #230-8840   230-8840  #230-8842   230-8842  #230-8883   230-8883  #230-8887   230-8887  #230-8889
                         230-8889  #230-8892   230-8892  #230-8897   230-8897  #230-8901   230-8901  #230-8933   230-8933
                        #230-8936   230-8936  #230-8958   230-8958  #230-8961   230-8961  #230-8962   230-8962  #230-8964
                         230-8964  #230-8966   230-8966  #230-9017   230-9017  #230-9036   230-9036  #232-9097   232-9097
                        #232-9099   232-9099  #232-9111   232-9111  #232-9115   232-9115  #232-9117   232-9117  #232-9119
                         232-9119  #232-9121   232-9121  #232-9122   232-9122  #232-9124   232-9124  #232-9126   232-9126
                        #232-9128   232-9128  #232-9129   232-9129  #232-9132   232-9132  #232-9137   232-9137  #232-9139
                         232-9139  #232-9150   232-9150  #236-9250   236-9250  #236-9255   236-9255  #237-9273   237-9273
                        #237-9275   237-9275  #237-9277   237-9277  #237-9280   237-9280  #237-9284   237-9284  #238-9311
                         238-9311  #238-9313   238-9313  #238-9315   238-9315  #244-9410   244-9410  #244-9413   244-9413
                        #244-9415   244-9415  #244-9422   244-9422  #244-9425   244-9425
$$A   	= 000100	#76-3115    76-3115   #76-3116    76-3116   #139-5632   139-5632  #139-5634   139-5634  #139-5636
                         139-5636  #139-5638   139-5638  #141-5679   141-5679  #141-5681   141-5681  #153-6077   153-6077
                        #162-6452   162-6452
$$B   	= 000000	#76-3115    76-3115   #76-3116    76-3116   #139-5632   139-5632  #139-5634   139-5634  #139-5636
                         139-5636  #139-5638   139-5638  #141-5679   141-5679  #141-5681   141-5681  #153-6077   153-6077
                        #162-6452   162-6452
$$C   	= 000200	#76-3115    76-3115   #76-3116    76-3116   #139-5632   139-5632  #139-5634   139-5634  #139-5636
                         139-5636  #139-5638   139-5638  #141-5679   141-5679  #141-5681   141-5681  #153-6077   153-6077
                        #162-6452   162-6452
$$D   	= 000011	#76-3115    76-3115   #76-3116    76-3116   #139-5632   139-5632  #139-5634   139-5634  #139-5636
                         139-5636  #139-5638   139-5638  #141-5679   141-5679  #141-5681   141-5681  #153-6077   153-6077
                        #162-6452   162-6452
$$E   	= 000016	#76-3115    76-3115   #76-3116    76-3116   #139-5632   139-5632  #139-5634   139-5634  #139-5636
                         139-5636  #139-5638   139-5638  #141-5679   141-5679  #141-5681   141-5681  #153-6077   153-6077
                        #162-6452   162-6452
$$F   	= 000000	#76-3115    76-3115   #76-3116    76-3116   #139-5632   139-5632  #139-5634   139-5634  #139-5636
                         139-5636  #139-5638   139-5638  #141-5679   141-5679  #141-5681   141-5681  #153-6077   153-6077
                        #162-6452   162-6452
$$$ARG	= 000006	#127-5197   127-5197  #127-5197   127-5197  #127-5197   127-5197  #127-5206   127-5206  #127-5206
                         127-5206  #127-5206   127-5206  #127-5212   127-5212  #127-5212   127-5212  #127-5212   127-5212
                        #175-7084   175-7084  #175-7087   175-7087
$$$GLB	= ******	 56-2372    56-2372    56-2372    56-2372    56-2372    56-2372    112-4501   112-4501   112-4501
                         112-4501   112-4501   112-4501   112-4501   112-4501   127-5197   127-5197   127-5197   127-5197
                         127-5206   127-5206   127-5206   127-5206   127-5212   127-5212   127-5212   127-5212   145-5806
                         145-5806   145-5806   145-5806   145-5806   145-5806   170-6879   170-6879   170-6879   170-6879
                         170-6879   170-6879   170-6879   170-6879   175-7084   175-7084   175-7084   175-7084   175-7084
                         175-7084   175-7084   175-7084   175-7087   175-7087   175-7087   175-7087   175-7087   175-7087
                         175-7087   175-7087   225-8677   225-8677   225-8677   225-8677   225-8677   225-8677   225-8677
                         225-8677   232-9161   232-9161   232-9161   232-9161   232-9161   232-9161
PATREE     CREATED BY  MACRO  ON 3-APR-86 AT 22:59	PAGE 32

SYMBOL CROSS REFERENCE                                  CREF

SYMBOL	VALUE		REFERENCES

$$$OST	= 000016	#56-2372    56-2372    56-2372   #56-2372    56-2372    56-2372   #56-2372    56-2372    56-2372
                        #56-2372    56-2372    56-2372   #56-2372    56-2372    56-2372   #56-2372   #112-4501   112-4501
                         112-4501  #112-4501   112-4501   112-4501  #112-4501   112-4501   112-4501  #112-4501   112-4501
                         112-4501  #112-4501   112-4501   112-4501  #112-4501   112-4501   112-4501  #112-4501   112-4501
                         112-4501  #112-4501   112-4501   112-4501  #112-4501  #127-5197   127-5197   127-5197  #127-5197
                         127-5197   127-5197  #127-5197   127-5197   127-5197  #127-5197  #127-5206   127-5206   127-5206
                        #127-5206   127-5206   127-5206  #127-5206   127-5206   127-5206  #127-5206  #127-5212   127-5212
                         127-5212  #127-5212   127-5212   127-5212  #127-5212   127-5212   127-5212  #127-5212  #145-5806
                         145-5806   145-5806  #145-5806   145-5806   145-5806  #145-5806   145-5806   145-5806  #145-5806
                         145-5806   145-5806  #145-5806   145-5806   145-5806  #145-5806  #170-6879   170-6879   170-6879
                        #170-6879   170-6879   170-6879  #170-6879   170-6879   170-6879  #170-6879   170-6879   170-6879
                        #170-6879   170-6879   170-6879  #170-6879   170-6879   170-6879  #170-6879   170-6879   170-6879
                        #170-6879   170-6879   170-6879  #170-6879  #175-7084   175-7084   175-7084  #175-7084   175-7084
                         175-7084  #175-7084   175-7084   175-7084  #175-7084   175-7084   175-7084  #175-7084   175-7084
                         175-7084  #175-7084   175-7084   175-7084  #175-7084   175-7084  #175-7087   175-7087   175-7087
                        #175-7087   175-7087   175-7087  #175-7087   175-7087   175-7087  #175-7087   175-7087   175-7087
                        #175-7087   175-7087   175-7087  #175-7087   175-7087   175-7087  #175-7087   175-7087  #225-8677
                         225-8677   225-8677  #225-8677   225-8677   225-8677  #225-8677   225-8677   225-8677  #225-8677
                         225-8677   225-8677  #225-8677   225-8677   225-8677  #225-8677   225-8677   225-8677  #225-8677
                         225-8677   225-8677  #225-8677   225-8677   225-8677  #225-8677  #232-9161   232-9161   232-9161
                        #232-9161   232-9161   232-9161  #232-9161   232-9161   232-9161  #232-9161   232-9161   232-9161
                        #232-9161   232-9161   232-9161  #232-9161
$$$T1 	= 000000	#56-2372    56-2372    56-2372    56-2372   #56-2372    56-2372   #127-5197   127-5197   127-5197
                        #127-5197   127-5197   127-5197  #127-5197   127-5197   127-5197  #127-5206   127-5206   127-5206
                        #127-5206   127-5206   127-5206  #127-5206   127-5206   127-5206  #127-5212   127-5212   127-5212
                        #127-5212   127-5212   127-5212  #127-5212   127-5212   127-5212  #145-5806   145-5806   145-5806
                         145-5806  #145-5806   145-5806  #232-9161   232-9161   232-9161   232-9161  #232-9161   232-9161
.ABORT	  000004 RG	#36-1508    186-7396   186-7396
.ABRTC	  000000 RG	#34-1462
.ABRT0	  000032 RG	 36-1510   #36-1517
.ACBLK	= ******  GX	 153-6054   155-6134
.APRWD	= ******  GX	*73-3056    195-7671
.ASCID	  000016 RG	 125-5166  #127-5193
.ASCOD	  000026 RG	 125-5164  #127-5202
.ASLST	  000036 RG	 125-5168  #127-5211
.ATLMD	= 000033	#21-838
.ATLST	  000064 R	 171-6945  #175-7083
.BRCLK	= 005000	#185-7375  #235-9225
.BUFSZ	= ******  GX	 170-6859
.CECLK	= 004000	#185-7375  #235-9225
.CESCK	= ******  GX	 123-5062   123-5062
.CHTAB	= ******  GX	 112-4543   114-4659   137-5562   164-6529   169-6782   187-7436   189-7501   209-8051
.CIBFR	= ******  GX	 112-4508   114-4654   130-5316   130-5326   220-8442   230-8832   230-8841   230-8959
.CISTS	= ******  GX	*130-5327  *130-5333
.CKARG	= ******  GX	 40-1671    40-1671    42-1773    42-1773    57-2435    57-2435    60-2544    60-2544    66-2747
                         66-2747    70-2895    70-2895    112-4514   112-4514   112-4536   112-4536   112-4546   112-4546
                         114-4661   114-4661   137-5564   137-5564   161-6372   161-6372   184-7341   184-7341   208-8024
                         208-8024   208-8036   208-8036
.CKCOL	= ******  GX	 51-2195    51-2195    57-2447    57-2447    65-2698    65-2698    66-2756    66-2756    244-9413
                         244-9413
.CKCTC	= ******  GX	 238-9315   238-9315
.CKEOC	= ******  GX	 34-1463    34-1463    38-1582    38-1582    56-2361    56-2361    58-2457    58-2457    61-2559
PATREE     CREATED BY  MACRO  ON 3-APR-86 AT 22:59	PAGE 33

SYMBOL CROSS REFERENCE                                  CREF

SYMBOL	VALUE		REFERENCES

                         61-2559    61-2591    61-2591    65-2704    65-2704    67-2766    67-2766    71-2910    71-2910
                         71-2953    71-2953    78-3221    78-3221    80-3295    80-3295    91-3733    91-3733    92-3776
                         92-3776    94-3842    94-3842    96-3889    96-3889    98-3929    98-3929    100-3981   100-3981
                         112-4555   112-4555   114-4670   114-4670   118-4905   118-4905   120-4969   120-4969   131-5393
                         131-5393   137-5570   137-5570   143-5758   143-5758   146-5849   146-5849   149-5949   149-5949
                         152-6013   152-6013   154-6106   154-6106   169-6794   169-6794   179-7197   179-7197   182-7265
                         182-7265   186-7393   186-7393   187-7439   187-7439   189-7506   189-7506   189-7510   189-7510
                         191-7573   191-7573   191-7581   191-7581   193-7631   193-7631   193-7638   193-7638   195-7676
                         195-7676   197-7700   197-7700   198-7708   198-7708   201-7767   201-7767   202-7779   202-7779
                         206-7934   206-7934   207-7942   207-7942   208-8029   208-8029   223-8550   223-8550   225-8675
                         225-8675   230-8821   230-8821   230-8966   230-8966   232-9097   232-9097   237-9275   237-9275
.CKEOS	= ******  GX	 50-2108    50-2108    50-2146    50-2146    51-2204    51-2204    52-2236    52-2236
.CKOBJ	= ******  GX	 152-6011   152-6011   154-6104   154-6104   169-6791   169-6791   178-7151   178-7151   178-7158
                         178-7158   179-7195   179-7195   180-7204   180-7204   189-7503   189-7503   193-7628   193-7628
                         230-8962   230-8962
.CKRNP	= ******  GX	 137-5574   137-5574   186-7384   186-7384
.CKRUN	= ******  GX	 49-2053    49-2053    65-2697    65-2697    134-5478   134-5478   138-5597   138-5597   161-6376
                         161-6376   187-7433   187-7433   210-8082   210-8082   236-9250   236-9250
.CKSYM	= ******  GX	 114-4658   114-4658   143-5753   143-5753   146-5843   146-5843
.CLKWD	= ******  GX	 210-8106   214-8256
.CLOSE	= ******  GX	 170-6841   170-6841
.CLRCM	  013626 RG	#178-7150
.CLRMR	= 006000	#185-7375  #235-9225
.CLRUN	= 010000	#185-7375  #235-9225
.COMEF	= ******  GX	*36-1520   *186-7402   223-8541   230-9008
.COMMA	= 000054	#21-836     209-8053
.CONBT	= 012000	#185-7375  #235-9225
.CONTC	  000062 RG	#38-1581
.CPUSN	= ******  GX	 205-7856   205-7861
.CSHRG	= 164000	#185-7375  #235-9225
.DATE3	= ******  GX	*223-8545   223-8548  *223-8603   225-8702
.DAY  	= ******  GX	*223-8602
.DEPAR	  002154 RG	#65-2696
.DFBLK	= ******  GX	 121-5006
.DFCOM	  000546 RG	#49-2052    50-2106    50-2106    50-2144    50-2144    51-2194    51-2194    52-2235    52-2235
.DFRED	  000664 RG	#50-2104    50-2138
.DFWRT	  001130 RG	#51-2192
.DFXCT	  001216 RG	#52-2233    52-2242
.DIAG1	= 000000	#10-353
.DIAG2	= 000002	#10-354
.DIAG3	= 000006	#10-356
.DISCC	  001346 RG	#56-2360
.DOW  	= ******  GX	*223-8594   225-8688
.DPBFR	= ******  GX	 67-2775    68-2809
.DPBFX	= ******  GX	 66-2758    69-2857    69-2862
.DPETB	= ******  GX	 57-2437    66-2749
.DPEWD	  001562 RG	 41-1696   #59-2490
.DPEWI	  001570 RG	 41-1708   #59-2494
.DPEWN	  001576 RG	 41-1720   #59-2498
.DPEWP	  001604 RG	 41-1732   #59-2502
.DPEWT	  001554 RG	 41-1744   #59-2486
.DPKLD	  002572 RG	 41-1695   #69-2839
PATREE     CREATED BY  MACRO  ON 3-APR-86 AT 22:59	PAGE 34

SYMBOL CROSS REFERENCE                                  CREF

SYMBOL	VALUE		REFERENCES

.DPKLI	  002600 RG	 41-1707   #69-2843
.DPKLM	= ******  GX	 68-2803    68-2803    140-5661   140-5661   153-6061   153-6061   162-6432   162-6432   165-6644
                         165-6644   182-7278   182-7278   244-9422   244-9422
.DPKLN	  002606 RG	 41-1719   #69-2847
.DPKLP	  002614 RG	 41-1731   #69-2851
.DPKLT	  002564 RG	 41-1743   #69-2835
.DPOBJ	  000270 RG	 40-1672   #44-1873
.DPOEL	  000320 RG	#44-1885
.DPOKL	  000312 RG	#44-1881
.DPOSA	  000176 RG	#40-1673
.DPOSC	  000164 RG	#40-1669
.DPOSD	  000202 RG	#41-1688
.DPOSE	  001372 RG	 40-1681    44-1887   #57-2434
.DPOSI	  000206 RG	#41-1700
.DPOSN	  000212 RG	#41-1712
.DPOSP	  000216 RG	#41-1724
.DPOST	  002244 RG	 40-1680    44-1883   #66-2746
.DPOSZ	  000222 RG	#41-1736
.DPOTB	= ******  GX	 44-1874
.DPSEE	  001444 RG	#58-2456    59-2508    59-2516
.DPSTE	  002314 RG	#67-2765    69-2858    69-2864
.DRLTC	= 015000	#185-7375  #235-9225
.DSACF	= 066000	#185-7375  #235-9225
.DSIOJ	= 065000	#185-7375  #235-9225
.DTBUF	  000552 RG	 112-4500   112-4580  #113-4612
.DTDW1	= ******  GX	 123-5075   123-5075   165-6631   165-6631
.DTLST	  000100 R	 171-6938  #175-7086
.DTSTA	= ******  GX	 123-5057   123-5057
.DTSTW	= 000004	#10-355
.EDELA	= ******  GX	 46-1932    46-1937   *58-2462    59-2487   *61-2563    62-2619
.EDEWD	  000374 RG	#46-1930    59-2491    59-2491    62-2623    62-2623
.EDEWI	  000406 RG	#46-1935    59-2495    59-2495    62-2627    62-2627
.EDEWN	  000406 RG	#46-1936    59-2499    59-2499    62-2631    62-2631
.EDEWP	  000374 RG	#46-1931    59-2503    59-2503    62-2635    62-2635
.EDKLA	= ******  GX	 47-1974    67-2769    71-2919    72-2994
.EDKLC	  000516 RG	 47-1946    47-1946    47-1951    47-1951    47-1956    47-1956    47-1962    47-1962   #47-1972
.EDKLD	  000444 RG	#47-1955    69-2840    69-2840    72-2998    72-2998
.EDKLI	  000462 RG	#47-1961    69-2844    69-2844    72-3002    72-3002
.EDKLN	  000432 RG	#47-1950    69-2848    69-2848    72-3006    72-3006
.EDKLP	  000420 RG	#47-1945    69-2852    69-2852    72-3010    72-3010
.EDKLX	= ******  GX	 47-1973    66-2754    69-2836    70-2902   *76-3133   *76-3134   *76-3135    76-3137    76-3149
                        *123-5066  *123-5067   124-5124   244-9414   244-9417
.EIOJA	= 067000	#185-7375  #235-9225
.ELDDW	= ******  GX	*58-2463    59-2507
.ELEDW	= ******  GX	*61-2567
.ENTER	= ******  GX	 170-6853   170-6853
.ERRCD	= ******  GX	 130-5296  *130-5303  *130-5309  *130-5315   130-5319   156-6160  *156-6161  *156-6162  *156-6163
                         156-6164  *156-6167
.ERRPC	= ******  GX	 156-6168
.EXAD 	  004340 RG	#89-3672
.EXADX	  004346 RG	#89-3676
.EXAMA	  000240 RG	#42-1776
PATREE     CREATED BY  MACRO  ON 3-APR-86 AT 22:59	PAGE 35

SYMBOL CROSS REFERENCE                                  CREF

SYMBOL	VALUE		REFERENCES

.EXAMC	  000226 RG	#42-1771
.EXAMD	  000244 RG	#43-1791
.EXAME	  001642 RG	 42-1784    45-1921   #60-2543    61-2586
.EXAMF	  004544 RG	#92-3775    94-3850    94-3850
.EXAMI	  000250 RG	#43-1803
.EXAMK	  004650 RG	#94-3841
.EXAMN	  000254 RG	#43-1815
.EXAMP	  000260 RG	#43-1827
.EXAMT	  002652 RG	 42-1783    45-1925   #70-2894    71-2948
.EXAMZ	  000264 RG	#43-1839
.EXARR	  004354 RG	#89-3680
.EXARX	  004362 RG	#89-3684
.EXBFR	= ******  GX	 67-2784    68-2806    68-2810    71-2918    76-3136    76-3143    76-3148    124-5125
.EXBRR	  004370 RG	#89-3688
.EXBRX	  004376 RG	#89-3692
.EXCRA	  004724 RG	#95-3859
.EXCRL	  004732 RG	#95-3863
.EXCTC	  003526 RG	#78-3215
.EXCTF	= ******  GX	 76-3131    76-3131    139-5624   140-5664   140-5664   140-5666   140-5666   153-6064   153-6064
                         162-6435   162-6435
.EXDRA	  004740 RG	#95-3867
.EXDTE	  003602 RG	#80-3294
.EXEBR	  003336 RG	#76-3121
.EXEBS	  004404 RG	#89-3696
.EXECT	= ******  GX	 78-3228
.EXETB	= ******  GX	 60-2546    70-2897
.EXEWD	  002124 RG	 43-1799   #62-2622
.EXEWI	  002132 RG	 43-1811   #62-2626
.EXEWN	  002140 RG	 43-1823   #62-2630
.EXEWP	  002146 RG	 43-1835   #62-2634
.EXEWT	  002116 RG	 43-1847   #62-2618
.EXFER	  004746 RG	#95-3871
.EXFMR	  004412 RG	#89-3700
.EXITP	= ******  GX	 38-1603    56-2366    124-5112   126-5186   130-5341   143-5762   149-5950   182-7281   186-7381
                         189-7531   232-9152
.EXKLD	  003244 RG	 43-1798   #72-2997
.EXKLI	  003252 RG	 43-1810   #72-3001
.EXKLM	= ******  GX	 67-2788    67-2788    68-2808    68-2808    71-2927    71-2927    76-3140    76-3140    123-5070
                         123-5070   165-6629   165-6629   244-9425   244-9425
.EXKLN	  003260 RG	 43-1822   #72-3005
.EXKLP	  003266 RG	 43-1834   #72-3009
.EXKLT	  003236 RG	 43-1846   #72-2993
.EXMEE	  001670 RG	#61-2557    62-2620    62-2624    62-2628    62-2632    62-2636
.EXMEL	  000356 RG	#45-1919
.EXMKL	  000366 RG	#45-1923
.EXMPI	  005040 RG	 94-3849    94-3849   #98-3928
.EXMQR	  004420 RG	#89-3704
.EXMTB	= ******  GX	 45-1911    100-3983
.EXMTE	  002704 RG	#71-2909    72-2995    72-2999    72-3003    72-3007    72-3011    76-3153    76-3153
.EXOBJ	  000330 RG	 42-1774   #45-1910
.EXREG	  005212 RG	#100-3980
.EXSBR	  004754 RG	#95-3875
PATREE     CREATED BY  MACRO  ON 3-APR-86 AT 22:59	PAGE 36

SYMBOL CROSS REFERENCE                                  CREF

SYMBOL	VALUE		REFERENCES

.EXSCR	  004762 RG	#95-3879
.EXUBR	  003344 RG	#76-3123
.EXVAB	  004426 RG	#90-3711
.EXVMA	  004434 RG	#90-3715    94-3848    94-3848
.EXVMH	  004442 RG	#90-3719
.EXVPC	  004450 RG	#90-3723    94-3846    94-3846
.FEMOD	= ******  GX	 186-7394  *189-7527   190-7544
.FREAD	= ******  GX	 50-2115    50-2115    73-3052    73-3052    102-4062   104-4111   104-4111   104-4118   104-4118
                         104-4125   104-4125   106-4173   106-4173   108-4260   108-4260   108-4267   108-4267   111-4390
                         111-4390   130-5300   130-5300   130-5306   130-5306   130-5312   130-5312   155-6130   155-6130
                         158-6215   158-6215   158-6222   158-6222   158-6229   158-6229   159-6276   159-6276
.FWRIT	= ******  GX	 51-2207    51-2207
.FXCT 	= ******  GX	 38-1593    38-1593    52-2238    52-2238
.GFNR 	= 102000	#185-7375  #235-9225
.GTDAT	  006026 RG	#112-4496   223-8554   223-8554   230-8887   230-8887   230-8901   230-8901
.GTELN	= ******  GX	 57-2442    57-2442    57-2448    57-2448    59-2513    59-2513    60-2551    60-2551    61-2590
                         61-2590    134-5479   134-5479   161-6373   161-6373   164-6531   164-6531   187-7438   187-7438
                         195-7674   195-7674   244-9410   244-9410
.GTKLA	= ******  GX	 66-2755    66-2755    70-2903    70-2903    71-2952    71-2952    76-3126    76-3126    186-7390
                         186-7390   236-9255   236-9255   237-9273   237-9273   244-9415   244-9415
.GTKLN	= ******  GX	 49-2058    49-2058    51-2203    51-2203    66-2759    66-2759    69-2863    69-2863    78-3220
                         78-3220    201-7765   201-7765
.GTLIN	= ******  GX	 112-4512   112-4512   114-4656   114-4656   220-8443   220-8443   230-8834   230-8834   230-8842
                         230-8842   230-8961   230-8961
.GTNBR	= ******  GX	 112-4533   112-4533   112-4548   112-4548   114-4667   114-4667   114-4702   114-4702
.GTNUM	= ******  GX	 65-2703    65-2703    191-7572   191-7572
.GTR50	  011174 RG	 143-5754   143-5754   143-5757   143-5757   146-5844   146-5844   146-5847   146-5847  #148-5895
.GTTIM	  006472 RG	#114-4647   223-8558   223-8558   230-8892   230-8892   230-8936   230-8936
.HALTC	  007312 RG	#118-4904
.HRDWR	= ******  GX	 205-7868   205-7876   205-7888
.INBBC	= ******  GX	*146-5860
.INCHC	= ******  GX	 112-4594   114-4717   230-8844
.INDFG	= ******  GX	 146-5850  *146-5864
.INEXT	  000622 R	 123-5069  #124-5123
.INFN 	= ******  GX	*146-5841  *146-5842  *146-5846  *146-5848   146-5853
.INFNB	= ******  GX	 146-5854
.INICL	= 070000	#185-7375  #235-9225
.INICP	  007562 RG	#125-5154
.INIC0	  007332 RG	#120-4970   126-5182   126-5182
.INIT 	  007334 RG	#121-5003
.INITC	  007326 RG	#120-4968
.INKLF	  007364 RG	 120-4971  #123-5049
.INPOS	= ******  GX	*146-5861
.INVBN	= ******  GX	*146-5862  *146-5863
.IRADX	= ******  GX	 112-4497  *112-4498  *112-4593   114-4648  *114-4649  *114-4716   201-7757  *201-7758  *201-7772
.IRLTC	= 014000	#185-7375  #235-9225
.JUMPC	  014052 RG	#186-7379
.KACFL	= ******  GX	*198-7713   200-7736
.KLCON	= ******  GX	 38-1597    38-1597
.KLE  	  007752 RG	#130-5292
.KLEDF	= ******  GX	*130-5330  *131-5395
.KLEPT	= ******  GX	*130-5317
PATREE     CREATED BY  MACRO  ON 3-APR-86 AT 22:59	PAGE 37

SYMBOL CROSS REFERENCE                                  CREF

SYMBOL	VALUE		REFERENCES

.KLERQ	= ******  GX	 123-5053  *130-5336  *131-5394
.KLEVL	= ******  GX	 130-5294  *130-5318  *131-5396
.KLFCF	= ******  GX	*206-7935   207-7947
.KLFLG	= ******  GX	 38-1583    49-2069    49-2071    65-2705    67-2767    71-2915    94-3843   *121-5011   123-5063
                         138-5582   140-5645   187-7441   209-8062   237-9278
.KLHLT	= ******  GX	 49-2072    49-2072    65-2708    65-2708    187-7443   187-7443   209-8063   209-8063
.KLINC	= ******  GX	 47-1957    47-1963    191-7574   191-7582   192-7594
.KLIWD	= ******  GX	 130-5338   164-6552  *164-6554
.KLMTB	= ******  GX	 230-8963
.KLMT1	= ******  GX	 230-8835
.KLNFD	= ******  GX	*230-8977  *230-8978   232-9108   232-9118
.KLNFT	= ******  GX	*230-8976   232-9120
.KLNMD	= ******  GX	 189-7524  *230-8972  *230-8979   230-8995  *230-9000   232-9101   232-9134   232-9141   232-9144
.KLNPB	= ******  GX	 230-9012
.KLNPE	= ******  GX	 230-9019
.KLNPW	= ******  GX	 230-8982  *230-9001
.KLNSW	= ******  GX	*56-2362    189-7522   230-8827  *230-9002   232-9104   232-9148
.KLNTD	= ******  GX	*230-8974  *230-8975   232-9125
.KLNTT	= ******  GX	*230-8973   232-9127
.KLRLD	= ******  GX	*197-7701   199-7725
.KLRST	= ******  GX	 65-2714    209-8073   209-8073
.KLSNP	= ******  GX	 130-5334  *130-5337  *131-5397
.KLST 	= ******  GX	 186-7399   186-7399
.KLSTP	= ******  GX	 36-1512    36-1512    118-4906   118-4906
.LCRDL	= 052000	#185-7375  #235-9225
.LCRDR	= 051000	#185-7375  #235-9225
.LCRM1	= 057000	#185-7375  #235-9225
.LCRM2	= 056000	#185-7375  #235-9225
.LCRM3	= 055000	#185-7375  #235-9225
.LCRM4	= 054000	#185-7375  #235-9225
.LCRM5	= 053000	#185-7375  #235-9225
.LDAR 	= 077000	#185-7375  #235-9225
.LDBRL	= 043000	#185-7375  #235-9225
.LDBRR	= 042000	#185-7375  #235-9225
.LDCK1	= 046000	#185-7375  #235-9225
.LDCK2	= 047000	#185-7375  #235-9225
.LDCLK	= ******  GX	 210-8105
.LDDIS	= 045000	#185-7375  #235-9225
.LDPAR	= ******  GX	 210-8111
.LDRJD	= 064000	#185-7375  #235-9225
.LDRJV	= 063000	#185-7375  #235-9225
.LDRM1	= 060000	#185-7375  #235-9225
.LDRM2	= 061000	#185-7375  #235-9225
.LDRM3	= 062000	#185-7375  #235-9225
.LDSEL	= 044000	#185-7375  #235-9225
.LDZFL	= ******  GX	*91-3731   *163-6473  *192-7604
.LGLWD	= ******  GX	*44-1878   *45-1915   *137-5569  *178-7166
.LOKUP	= ******  GX	 146-5856   146-5856   170-6851   170-6851
.MARKC	  010266 RG	#134-5475   134-5498
.MEMFL	= ******  GX	 40-1670    42-1772   *193-7642   194-7654
.MEMRS	= 076000	#185-7375  #235-9225
.MON  	= ******  GX	*223-8600
PATREE     CREATED BY  MACRO  ON 3-APR-86 AT 22:59	PAGE 38

SYMBOL CROSS REFERENCE                                  CREF

SYMBOL	VALUE		REFERENCES

.MONTB	= ******  GX	 112-4538
.NOERR	= ******  GX	*38-1600    164-6509  *164-6510  *164-6559  *186-7401
.NOHLT	= ******  GX	*182-7266
.NOTSW	= ******  GX	 161-6370   169-6784   170-6828   171-6934   172-6975   178-7152  *178-7154  *178-7159  *180-7205
                         189-7499   191-7566   193-7626   195-7672   197-7701   198-7710   201-7763   202-7781   206-7935
                         211-8162   212-8187   213-8238   223-8543   230-8822   230-9025
.OPEN 	= ******  GX	 146-5859   146-5859   170-6854   170-6854   170-6858   170-6858
.ORADX	= ******  GX	 115-4756  *115-4757  *115-4775   116-4821  *116-4822  *116-4846   192-7598  *192-7599  *192-7607
                         205-7862  *205-7863  *205-7881
.OTATT	= ******  GX	 170-6839  *170-6855  *170-6856   170-6861   170-6862
.OTBBC	= ******  GX	*170-6859
.OTBUF	= ******  GX	 170-6860
.OTFN 	= ******  GX	 170-6838   170-6847
.OTFNB	= ******  GX	 170-6848
.OTPOS	= ******  GX	*170-6860
.OTVBN	= ******  GX	*170-6861  *170-6862
.OUTLG	= ******  GX	 170-6830  *170-6842   170-6845  *170-6865   173-7005   174-7050
.OUTLP	= ******  GX	 171-6936  *171-6940   171-6943  *171-6947   173-7007   174-7042
.OUTTY	= ******  GX	*172-6977  *172-6979  *173-7009   174-7037
.PASS 	= ******  GX	*164-6507   164-6545  *164-6547
.PCAB1	= 150000	#185-7375  #235-9225
.PCAB2	= 151000	#185-7375  #235-9225
.PCAB3	= 152000	#185-7375  #235-9225
.PCAB4	= 153000	#185-7375  #235-9225
.PITAB	= ******  GX	 106-4169   106-4194
.PRDTE	= ******  GX	 81-3322
.PSCWD	= ******  GX	 210-8112   217-8346
.QUITC	  011302 RG	#149-5948
.RCRM1	= 147000	#185-7375  #235-9225
.RCRM2	= 146000	#185-7375  #235-9225
.RCRM3	= 145000	#185-7375  #235-9225
.RCRM4	= 144000	#185-7375  #235-9225
.RCSPF	= 141000	#185-7375  #235-9225
.RDADR	  005254 RG	 89-3673   #102-4026
.RDADX	  005262 RG	 89-3677   #102-4030
.RDAPR	  003274 RG	 68-2814    68-2814   #73-3048
.RDARR	  005270 RG	 89-3681   #102-4034
.RDARX	  005276 RG	 89-3685   #102-4038
.RDBRR	  005304 RG	 89-3689   #102-4042
.RDBRX	  005312 RG	 89-3693   #102-4046
.RDCPP	= ******  GX	 209-8066   209-8066   210-8084   210-8084   214-8253   214-8253   217-8343   217-8343
.RDCRA	  005550 RG	 95-3860   #107-4227
.RDCRL	  005556 RG	 95-3864   #107-4231
.RDCRM	= ******  GX	 134-5481   134-5481
.RDDRA	  005564 RG	 95-3868   #107-4235
.RDEBS	  005320 RG	 89-3697   #102-4050
.RDFER	  005572 RG	 95-3872   #107-4239
.RDFLG	  005344 RG	 92-3778    92-3778   #104-4106
.RDFMA	= ******  GX	 163-6463   163-6463   164-6513   164-6513
.RDFMO	= ******  GX	 164-6525   164-6525   165-6639   165-6639
.RDFMP	= ******  GX	 165-6634   165-6634
.RDFMR	  005326 RG	 89-3701   #102-4054
PATREE     CREATED BY  MACRO  ON 3-APR-86 AT 22:59	PAGE 39

SYMBOL CROSS REFERENCE                                  CREF

SYMBOL	VALUE		REFERENCES

.RDIPE	= ******  GX	 164-6517   164-6517
.RDJ14	= 134000	#185-7375  #235-9225
.RDJ71	= 135000	#185-7375  #235-9225
.RDMAB	= 133000	#185-7375  #235-9225
.RDMQR	  005334 RG	 89-3705   #102-4058
.RDPI 	  005470 RG	 98-3932    98-3932   #106-4166
.RDSBR	  005600 RG	 95-3876   #107-4243
.RDSCR	  005606 RG	 95-3880   #107-4247
.RDVAB	  005704 RG	 90-3712   #110-4361
.RDVMA	  005712 RG	 90-3716   #110-4365
.RDVMH	  005720 RG	 90-3720   #110-4369
.RDVPC	  005676 RG	 90-3724   #110-4357
.RDXSV	= ******  GX	*112-4497   112-4593  *114-4648   114-4716  *192-7598   192-7607  *201-7757   201-7772
.RECNT	= ******  GX	*170-6864
.RECPT	= ******  GX	*170-6863
.RECRD	= ******  GX	 170-6863
.REGSV	= ******  GX	 110-4372   159-6263
.RELWD	= ******  GX	*195-7677   196-7686
.RESQ 	  021360 RG	#244-9406
.RESTB	= ******  GX	 137-5565
.RESTC	  010364 RG	#137-5560
.RESTD	= ******  GX	 138-5586   138-5586   138-5594
.RESTI	= ******  GX	 138-5599
.RESTP	= ******  GX	 137-5576   166-6703   166-6703
.RNDPB	  000046 RG	*143-5759   143-5760  #145-5805
.RPTCT	= ******  GX	 192-7601   201-7768
.RPTPT	= ******  GX	 201-7770
.RSACB	  011336 RG	#153-6053
.RSALL	  010444 RG	#138-5581
.RSAPR	  010540 RG	 138-5587   138-5587  #139-5609
.RSDTE	  010512 RG	#138-5593
.RSERR	  010546 RG	#139-5613
.RSPAG	  010572 RG	 138-5588   138-5588  #140-5644
.RSSWP	  012652 RG	 164-6527   164-6527   165-6641   165-6641  #166-6701
.RSTIN	  010516 RG	#138-5596
.RSTIO	  010554 RG	#139-5617
.RSTKL	= ******  GX	 51-2209    68-2815    68-2815    91-3741    91-3741    92-3779    92-3779    94-3852    96-3894
                         96-3894    98-3933    98-3933    100-3992   138-5591   140-5669   210-8086   214-8254   214-8254
                         217-8344   217-8344
.RSTPI	  010562 RG	 138-5589   138-5589  #139-5621
.RSTRC	  011312 RG	#152-6009
.RSTTB	= ******  GX	 152-6010
.RUNCM	  010716 RG	#143-5752
.SACBK	  012046 RG	 161-6378  #162-6421
.SACB1	  012050 RG	#162-6423   164-6557   164-6557   165-6623   165-6623   166-6706   166-6706
.SAVEC	  011404 RG	#154-6102
.SAVFL	  011542 R	 156-6159   156-6159  #158-6210
.SAVPC	  011666 R	 156-6169  #159-6261
.SAVQ 	  021352 RG	#244-9403
.SAVTB	= ******  GX	 154-6103
.SCACB	  011774 RG	#161-6369
.SCCEC	  016126 RG	#212-8176
PATREE     CREATED BY  MACRO  ON 3-APR-86 AT 22:59	PAGE 40

SYMBOL CROSS REFERENCE                                  CREF

SYMBOL	VALUE		REFERENCES

.SCCED	  016134 RG	#212-8180
.SCCEE	  016142 RG	#212-8184
.SCCLK	  015566 RG	#208-8023
.SCCLN	  016010 RG	#211-8122
.SCCOM	  014320 RG	#189-7519
.SCCON	  014236 RG	#189-7498
.SCCOO	  014304 RG	#189-7511
.SCCOP	  014312 RG	 189-7502  #189-7515
.SCCOT	= ******  GX	 189-7504
.SCCOU	  014346 RG	#189-7530
.SCCRF	  016012 RG	#211-8124
.SCCRH	  016016 RG	#211-8128
.SCCRQ	  016024 RG	#211-8132
.SCCRS	  016032 RG	#211-8136
.SCCSE	  016044 RG	#211-8142
.SCCSI	  016074 RG	#211-8153
.SCCSM	  016100 RG	#211-8157
.SCCTB	= ******  GX	 210-8104
.SCDAT	  016740 RG	#223-8540
.SCFSS	  015600 RG	#208-8028
.SCINC	  014430 RG	#191-7565
.SCKLN	  017442 RG	#230-8820
.SCMEL	  014626 RG	#193-7634
.SCMEM	  014574 RG	#193-7625
.SCMKL	  014640 RG	#193-7639
.SCMTB	= ******  GX	 193-7629
.SCNOT	  013726 RG	#180-7203
.SCOFS	  014700 RG	#195-7670
.SCOTC	  013466 RG	 170-6843   171-6941   172-6978  #173-7004
.SCOTL	  012774 RG	 169-6786   169-6786  #170-6827
.SCOTP	  013354 RG	 169-6787   169-6787  #171-6933
.SCOTT	= ******  GX	 169-6792
.SCOTY	  013442 RG	 169-6789   169-6789  #172-6974
.SCOUT	  012706 RG	#169-6781
.SCPAL	  016164 RG	#213-8211
.SCPAR	  016172 RG	#213-8215
.SCPCR	  016200 RG	#213-8219
.SCPDR	  016206 RG	#213-8223
.SCPEN	  016214 RG	#213-8227
.SCPFM	  016222 RG	#213-8231
.SCPFS	  016230 RG	 208-8032   208-8032  #213-8235
.SCPST	  015622 RG	#208-8035
.SCPTB	= ******  GX	 210-8110
.SCRLD	  014752 RG	#197-7699
.SCRPT	  015072 RG	#201-7756
.SCRTY	  014766 RG	#198-7707
.SCTRK	  015170 RG	#202-7778
.SECLK	= 003000	#185-7375  #235-9225
.SETCM	  013646 RG	#178-7157
.SETC0	  013656 RG	#178-7160   180-7206
.SETMR	= 007000	#185-7375  #235-9225
.SETRN	= 011000	#185-7375  #235-9225
PATREE     CREATED BY  MACRO  ON 3-APR-86 AT 22:59	PAGE 41

SYMBOL CROSS REFERENCE                                  CREF

SYMBOL	VALUE		REFERENCES

.SETTB	= ******  GX	 178-7162
.SFREC	  015514 RG	#206-7933
.SHUTC	  013740 RG	#182-7264
.SNAP 	  010234 RG	#131-5392
.SPACE	= 000040	#21-837     112-4522
.SSCAN	= ******  GX	 220-8447   220-8447   220-8451   220-8451
.SSCLK	= 002000	#185-7375  #235-9225
.SSM  	= ******  GX	 170-6890  *223-8595   225-8696   230-8894
.SSTTB	= ******  GX	*58-2464   *58-2475   *61-2562   *61-2566    125-5162
.STCLK	= ******  GX	 38-1590    38-1590    166-6704   166-6704   237-9280   237-9280
.STPCL	= 000000	#185-7375  #235-9225
.STPKL	= ******  GX	 68-2813    68-2813    91-3739    91-3739    92-3777    92-3777    94-3844    94-3844    96-3891
                         96-3891    98-3931    98-3931    100-3982   100-3982   137-5575   137-5575   138-5585   138-5585
                         138-5598   138-5598   140-5648   140-5648   210-8083   210-8083   214-8252   214-8252   217-8342
                         217-8342   237-9277   237-9277
.STRCL	= 001000	#185-7375  #235-9225
.STRTB	= ******  GX	 184-7343
.STRTC	  014030 RG	#184-7340
.STRTT	  014062 RG	 184-7342  #186-7383
.STRTU	  014166 RG	#187-7432
.STRTV	= ******  GX	 126-5183   211-8151
.STUCD	= ******  GX	 36-1519    36-1519    187-7445
.SVACB	  011430 RG	#155-6127
.SVESP	= ******  GX	*125-5155
.SVKLF	= ******  GX	*49-2071   *65-2712   *94-3851   *138-5590  *140-5668  *209-8065  *238-9320
.SVPC 	  011466 RG	#156-6158
.SWPAC	  012514 RG	 164-6535   164-6535   164-6540   164-6540  #165-6621
.SWPC 	  012214 RG	#164-6506
.SWPIP	= ******  GX	*164-6511  *164-6558
.TAKEC	  011024 RG	#146-5840
.TAKE1	  011100 RG	#146-5852
.TCRLF	= ******  GX	 50-2125    50-2125    58-2476    61-2574    61-2574    67-2795    67-2795    71-2934    71-2934
                         86-3622    91-3749    92-3799    96-3901    99-3964    126-5181   126-5181   130-5340   130-5340
                         163-6476   163-6476   170-6835   170-6835   170-6836   170-6836   170-6873   170-6873   170-6874
                         170-6874   174-7058   192-7608   196-7688   205-7893   214-8279   214-8279   218-8384   220-8453
                         220-8453   225-8698   225-8698   232-9122   232-9122   232-9129   232-9129
.TPADD	= ******  GX	 47-1964    47-1964    71-2942    71-2942    76-3147    76-3147
.TPCLR	= ******  GX	 110-4380   110-4380   112-4545   112-4545   114-4701   114-4701   159-6271   159-6271   191-7583
                         191-7583   201-7771   201-7771
.TPCMP	= ******  GX	 68-2811    68-2811    71-2939    71-2939    71-2959    71-2959    237-9284   237-9284   238-9311
                         238-9311
.TPDEC	= ******  GX	 47-1947    47-1947    237-9283
.TPDIV	= ******  GX	 114-4675   114-4675
.TPINC	= ******  GX	 47-1952    47-1952    237-9286
.TPNEG	= ******  GX	 71-2963    71-2963
.TPSHI	= ******  GX	 73-3054    73-3054    76-3145    76-3145    104-4113   104-4113   104-4120   104-4120   106-4175
                         106-4175   108-4262   108-4262   108-4269   108-4269   111-4395   111-4395   155-6132   155-6132
                         156-6166   156-6166   158-6217   158-6217   158-6224   158-6224   159-6281   159-6281
.TPSUB	= ******  GX	 47-1958    47-1958
.TPTST	= ******  GX	 186-7391   186-7391
.TRKWD	= ******  GX	*202-7785   203-7797
.TRPTV	= ******  GX	*36-1511   *36-1514
PATREE     CREATED BY  MACRO  ON 3-APR-86 AT 22:59	PAGE 42

SYMBOL CROSS REFERENCE                                  CREF

SYMBOL	VALUE		REFERENCES

.TRP4V	= ******  GX	 58-2464    61-2562
.TSCAN	= ******  GX	 44-1875    44-1875    45-1912    45-1912    57-2438    57-2438    60-2547    60-2547    66-2750
                         66-2750    70-2898    70-2898    112-4539   112-4539   137-5566   137-5566   152-6012   152-6012
                         154-6105   154-6105   169-6793   169-6793   178-7163   178-7163   179-7196   179-7196   184-7344
                         184-7344   189-7505   189-7505   193-7630   193-7630   209-8048   209-8048   230-8836   230-8836
                         230-8964   230-8964
.TYACE	= ******  GX	 165-6640   165-6640
.TYAC1	= ******  GX	 164-6526   164-6526
.TYCHR	= ******  GX	 58-2468    58-2468    61-2570    61-2570    115-4771   115-4771   116-4834   116-4834   116-4842
                         116-4842   205-7872   205-7872
.TYCOL	= ******  GX	 116-4838   116-4838
.TYCOM	= ******  GX	 174-7046   174-7046   174-7054   174-7054   205-7873   205-7873   214-8275   214-8275   218-8378
                         218-8378
.TYDAT	  007040 RG	#115-4755   170-6889   170-6889   225-8694   225-8694   232-9119   232-9119   232-9126   232-9126
.TYELA	= ******  GX	 58-2466    58-2466    61-2568    61-2568    115-4761   115-4761   115-4774   115-4774   116-4837
                         116-4837   116-4845   116-4845   196-7687   196-7687
.TYELN	= ******  GX	 58-2471    58-2471    61-2573    61-2573    81-3337    81-3337    96-3900    96-3900    205-7864
                         205-7864   205-7880   205-7880
.TYKLA	= ******  GX	 67-2790    67-2790    71-2929    71-2929    84-3534    84-3534
.TYKLN	= ******  GX	 50-2124    50-2124    67-2794    67-2794    71-2933    71-2933    83-3474    83-3474    91-3747
                         91-3747    163-6474   163-6474   192-7606   192-7606
.TYLIN	= ******  GX	 92-3783    92-3783    164-6551   164-6551   190-7553   194-7658   200-7741   204-7810   204-7810
                         204-7815   205-7883   205-7883   205-7890   205-7890   207-7951   214-8258   214-8258   214-8267
                         214-8267   215-8292   215-8292   215-8299   217-8348   217-8348   217-8356   217-8356   225-8687
                         225-8687   225-8707   232-9111   232-9111   232-9115   232-9115   232-9137   232-9137   232-9150
                         232-9150   232-9155
.TYMIN	= ******  GX	 115-4762   115-4762   115-4767   115-4767
.TYMSF	= ******  GX	 112-4511   112-4511   114-4653   114-4653   230-8831   230-8831   230-8840   230-8840   230-8958
                         230-8958
.TYMSG	= ******  GX	 50-2117    50-2117    81-3335    81-3335    82-3419    82-3419    83-3471    83-3471    83-3480
                         83-3480    84-3496    84-3496    84-3507    84-3507    84-3509    84-3509    84-3515    84-3515
                         84-3517    84-3517    84-3522    84-3522    84-3526    84-3526    84-3528    84-3528    85-3584
                         85-3584    86-3621    86-3621    91-3743    91-3743    92-3790    92-3790    92-3797    92-3797
                         96-3896    96-3896    98-3936    98-3936    99-3948    99-3948    99-3950    99-3950    99-3955
                         99-3955    99-3960    99-3960    115-4766   115-4766   130-5332   130-5332   163-6461   163-6461
                         164-6522   164-6522   170-6833   170-6833   170-6867   170-6867   170-6870   170-6870   170-6872
                         170-6872   174-7035   174-7035   174-7040   174-7040   174-7048   174-7048   174-7056   174-7056
                         190-7543   190-7543   192-7603   192-7603   194-7652   194-7652   196-7685   196-7685   199-7723
                         199-7723   200-7734   200-7734   203-7795   203-7795   204-7808   204-7808   204-7812   204-7812
                         205-7860   205-7860   205-7866   205-7866   207-7945   207-7945   211-8144   211-8144   214-8260
                         214-8260   214-8274   214-8274   215-8287   215-8287   215-8294   215-8294   217-8350   217-8350
                         217-8358   217-8358   217-8362   217-8362   218-8377   218-8377   220-8440   220-8440   225-8691
                         225-8691   225-8700   225-8700   230-8883   230-8883   230-8889   230-8889   230-8897   230-8897
                         230-8933   230-8933   232-9099   232-9099   232-9117   232-9117   232-9124   232-9124   232-9132
                         232-9132   232-9139   232-9139
.TYOUT	= ******  GX	 220-8441   220-8441
.TYP3D	= ******  GX	 50-2120    50-2120    99-3953    99-3953    99-3958    99-3958    99-3963    99-3963
.TYSLS	= ******  GX	 50-2121    50-2121    67-2791    67-2791    71-2930    71-2930    91-3744    91-3744    96-3897
                         96-3897
.TYSPC	= ******  GX	 50-2122    50-2122    58-2469    58-2469    61-2571    61-2571    67-2792    67-2792    71-2931
                         71-2931    91-3745    91-3745    96-3898    96-3898    115-4776   116-4847   205-7874   205-7874
                         214-8276   214-8276   218-8379   218-8379   225-8692   225-8692   225-8695   225-8695
PATREE     CREATED BY  MACRO  ON 3-APR-86 AT 22:59	PAGE 43

SYMBOL CROSS REFERENCE                                  CREF

SYMBOL	VALUE		REFERENCES

.TYTIM	  007154 RG	#116-4820   170-6891   170-6891   225-8697   225-8697   232-9121   232-9121   232-9128   232-9128
.T50TB	= ******  GX	 148-5898
.UMRKC	  010262 RG	#134-5471   134-5499
.VERNO	= ******  GX	 170-6871   204-7813
.VFYFL	= ******  GX	 68-2804
.WHACB	  012132 RG	 162-6439   162-6439  #163-6458
.WHATB	= ******  GX	 179-7194
.WHATC	  013702 RG	#179-7193
.WHATV	  015242 RG	#204-7806
.WHCON	  014360 RG	 189-7528  #190-7541
.WHDAT	  017266 RG	 223-8609  #225-8674
.WHINC	  014506 RG	#192-7592
.WHKLN	  020576 RG	#232-9096
.WHMEM	  014646 RG	#194-7650
.WHOFS	  014726 RG	#196-7683
.WHOUT	  013510 RG	 169-6788  #174-7033
.WHRDW	  015302 RG	#205-7855
.WHREC	  015530 RG	#207-7941
.WHRLD	  015014 RG	 197-7702  #199-7721
.WHRPT	  014520 RG	#192-7597   201-7773
.WHRTY	  015040 RG	 198-7714  #200-7732
.WHTCA	  016272 RG	 210-8108  #214-8255
.WHTCL	  016256 RG	#214-8251
.WHTPA	  016474 RG	 210-8114  #217-8345
.WHTPS	  016460 RG	#217-8341
.WHTRK	  015212 RG	#203-7793
.WRCRM	= ******  GX	 134-5493   134-5493
.WRITZ	= ******  GX	 170-6837   170-6837
.WRMBX	= 071000	#185-7375  #235-9225
.WRTAR	= ******  GX	 65-2711    65-2711
.XFRCK	  001260 RG	 50-2109    50-2109   #53-2272
.XFWCK	  001276 RG	 51-2196    51-2196   #53-2279
.XFXCK	  001314 RG	 52-2237    52-2237   #53-2286
.YEAR 	= ******  GX	*223-8546  *223-8598
.YESNO	  016634 RG	 211-8145   211-8145  #220-8436
.ZEROC	  021104 RG	#236-9249
..DTP2	= ******  GX	 36-1521    36-1521    182-7280   182-7280   186-7403
..STIN	= ******  GX	 230-9017   230-9017   230-9036   230-9036
PATREE     CREATED BY  MACRO  ON 3-APR-86 AT 22:59	PAGE 44

MACRO CROSS REFERENCE                                   CREF

MACRO NAME	REFERENCES

ALUN$ 		#119-4946   127-5197   127-5206   127-5212  #168-6746
CALL  		#4-118     #34-1463   #36-1512   #36-1519   #36-1521   #36-1524   #38-1582   #38-1590   #38-1593   #38-1597
                #40-1671   #42-1773   #44-1875   #45-1912   #47-1946   #47-1947   #47-1951   #47-1952   #47-1956   #47-1958
                #47-1962   #47-1964   #49-2053   #49-2058   #49-2072   #50-2106   #50-2108   #50-2109   #50-2115   #50-2117
                #50-2120   #50-2121   #50-2122   #50-2124   #50-2125   #50-2144   #50-2146   #51-2194   #51-2195   #51-2196
                #51-2203   #51-2204   #51-2207   #52-2235   #52-2236   #52-2237   #52-2238   #56-2361   #57-2435   #57-2438
                #57-2442   #57-2447   #57-2448   #58-2457   #58-2466   #58-2468   #58-2469   #58-2471   #59-2491   #59-2495
                #59-2499   #59-2503   #59-2513   #60-2544   #60-2547   #60-2551   #61-2559   #61-2568   #61-2570   #61-2571
                #61-2573   #61-2574   #61-2590   #61-2591   #62-2623   #62-2627   #62-2631   #62-2635   #65-2697   #65-2698
                #65-2703   #65-2704   #65-2708   #65-2711   #66-2747   #66-2750   #66-2755   #66-2756   #66-2759   #67-2766
                #67-2788   #67-2790   #67-2791   #67-2792   #67-2794   #67-2795   #68-2803   #68-2808   #68-2811   #68-2813
                #68-2814   #68-2815   #69-2840   #69-2844   #69-2848   #69-2852   #69-2863   #70-2895   #70-2898   #70-2903
                #71-2910   #71-2927   #71-2929   #71-2930   #71-2931   #71-2933   #71-2934   #71-2939   #71-2942   #71-2952
                #71-2953   #71-2959   #71-2963   #72-2998   #72-3002   #72-3006   #72-3010   #73-3052   #73-3054   #76-3126
                #76-3131   #76-3140   #76-3145   #76-3147   #76-3153   #78-3220   #78-3221   #80-3295   #81-3335   #81-3337
                #81-3338   #82-3419   #83-3471   #83-3474   #83-3480   #84-3496   #84-3507   #84-3509   #84-3515   #84-3517
                #84-3522   #84-3526   #84-3528   #84-3534   #85-3584   #86-3621   #91-3733   #91-3739   #91-3740   #91-3741
                #91-3743   #91-3744   #91-3745   #91-3747   #92-3776   #92-3777   #92-3778   #92-3779   #92-3783   #92-3790
                #92-3797   #94-3842   #94-3844   #94-3846   #94-3848   #94-3849   #94-3850   #96-3889   #96-3891   #96-3892
                #96-3894   #96-3896   #96-3897   #96-3898   #96-3900   #98-3929   #98-3931   #98-3932   #98-3933   #98-3936
                #99-3948   #99-3950   #99-3953   #99-3955   #99-3958   #99-3960   #99-3963   #100-3981  #100-3982  #100-3988
                #104-4111  #104-4113  #104-4118  #104-4120  #104-4125  #106-4173  #106-4175  #108-4260  #108-4262  #108-4267
                #108-4269  #110-4372  #110-4380  #111-4390  #111-4395  #112-4511  #112-4512  #112-4514  #112-4533  #112-4536
                #112-4539  #112-4545  #112-4546  #112-4548  #112-4555  #114-4653  #114-4656  #114-4658  #114-4661  #114-4667
                #114-4670  #114-4675  #114-4683  #114-4687  #114-4698  #114-4701  #114-4702  #114-4708  #115-4761  #115-4762
                #115-4766  #115-4767  #115-4771  #115-4774  #116-4825  #116-4829  #116-4834  #116-4837  #116-4838  #116-4842
                #116-4845  #118-4905  #118-4906  #120-4969  #123-5057  #123-5062  #123-5070  #123-5075  #126-5181  #126-5182
                #130-5300  #130-5306  #130-5312  #130-5332  #130-5340  #131-5393  #134-5478  #134-5479  #134-5481  #134-5493
                #137-5564  #137-5566  #137-5570  #137-5574  #137-5575  #138-5585  #138-5586  #138-5587  #138-5588  #138-5589
                #138-5597  #138-5598  #140-5648  #140-5661  #140-5664  #140-5666  #143-5753  #143-5754  #143-5757  #143-5758
                #146-5843  #146-5844  #146-5847  #146-5849  #146-5856  #146-5859  #148-5915  #149-5949  #152-6011  #152-6012
                #152-6013  #153-6061  #153-6064  #154-6104  #154-6105  #154-6106  #155-6130  #155-6132  #156-6159  #156-6166
                #158-6215  #158-6217  #158-6222  #158-6224  #158-6229  #159-6263  #159-6271  #159-6276  #159-6281  #161-6372
                #161-6373  #161-6376  #162-6432  #162-6435  #162-6439  #163-6461  #163-6463  #163-6474  #163-6476  #164-6513
                #164-6517  #164-6522  #164-6525  #164-6526  #164-6527  #164-6531  #164-6535  #164-6540  #164-6551  #164-6557
                #165-6623  #165-6629  #165-6631  #165-6634  #165-6639  #165-6640  #165-6641  #165-6644  #166-6703  #166-6704
                #166-6706  #169-6786  #169-6787  #169-6789  #169-6791  #169-6793  #169-6794  #169-6795  #170-6833  #170-6834
                #170-6835  #170-6836  #170-6837  #170-6841  #170-6851  #170-6853  #170-6854  #170-6858  #170-6867  #170-6868
                #170-6870  #170-6872  #170-6873  #170-6874  #170-6889  #170-6891  #174-7035  #174-7040  #174-7046  #174-7048
                #174-7054  #174-7056  #178-7151  #178-7158  #178-7163  #179-7195  #179-7196  #179-7197  #180-7204  #182-7265
                #182-7278  #182-7280  #184-7341  #184-7344  #186-7380  #186-7384  #186-7390  #186-7391  #186-7393  #186-7396
                #186-7399  #187-7433  #187-7438  #187-7439  #187-7443  #189-7503  #189-7505  #189-7506  #189-7510  #190-7543
                #191-7572  #191-7573  #191-7581  #191-7583  #192-7603  #192-7606  #193-7628  #193-7630  #193-7631  #193-7638
                #194-7652  #195-7674  #195-7676  #196-7685  #196-7687  #197-7700  #198-7708  #199-7723  #200-7734  #201-7765
                #201-7767  #201-7771  #202-7779  #203-7795  #204-7808  #204-7810  #204-7812  #205-7860  #205-7864  #205-7866
                #205-7872  #205-7873  #205-7874  #205-7880  #205-7883  #205-7890  #206-7934  #207-7942  #207-7945  #208-8024
                #208-8029  #208-8031  #208-8032  #208-8036  #209-8046  #209-8048  #209-8049  #209-8063  #209-8064  #209-8066
                #209-8073  #210-8082  #210-8083  #210-8084  #211-8144  #211-8145  #214-8252  #214-8253  #214-8254  #214-8258
                #214-8260  #214-8267  #214-8274  #214-8275  #214-8276  #214-8279  #215-8287  #215-8292  #215-8294  #217-8342
                #217-8343  #217-8344  #217-8348  #217-8350  #217-8356  #217-8358  #217-8362  #218-8377  #218-8378  #218-8379
                #220-8440  #220-8441  #220-8443  #220-8447  #220-8451  #220-8453  #223-8550  #223-8554  #223-8558  #223-8565
                #223-8588  #225-8675  #225-8687  #225-8691  #225-8692  #225-8694  #225-8695  #225-8697  #225-8698  #225-8700
PATREE     CREATED BY  MACRO  ON 3-APR-86 AT 22:59	PAGE 45

MACRO CROSS REFERENCE                                   CREF

MACRO NAME	REFERENCES

                #230-8821  #230-8831  #230-8834  #230-8836  #230-8840  #230-8842  #230-8883  #230-8887  #230-8889  #230-8892
                #230-8897  #230-8901  #230-8933  #230-8936  #230-8958  #230-8961  #230-8962  #230-8964  #230-8966  #230-9017
                #230-9036  #232-9097  #232-9099  #232-9111  #232-9115  #232-9117  #232-9119  #232-9121  #232-9122  #232-9124
                #232-9126  #232-9128  #232-9129  #232-9132  #232-9137  #232-9139  #232-9150  #236-9250  #236-9255  #237-9273
                #237-9275  #237-9277  #237-9280  #237-9284  #238-9311  #238-9313  #238-9315  #244-9410  #244-9413  #244-9415
                #244-9422  #244-9425
CALLR 		#4-127     #38-1603   #40-1674   #41-1689   #41-1701   #41-1713   #41-1725   #41-1737   #42-1777   #43-1792
                #43-1804   #43-1816   #43-1828   #43-1840   #44-1879   #44-1883   #44-1887   #45-1917   #45-1921   #45-1925
                #51-2209   #56-2366   #57-2439   #58-2476   #60-2548   #65-2714   #66-2751   #70-2899   #78-3228   #80-3296
                #86-3622   #91-3749   #92-3799   #94-3852   #96-3901   #99-3964   #100-3992  #102-4062  #115-4776  #116-4847
                #118-4907  #126-5186  #130-5341  #137-5571  #137-5576  #138-5591  #138-5594  #138-5599  #139-5624  #140-5669
                #143-5762  #149-5950  #152-6014  #154-6107  #156-6169  #161-6378  #169-6788  #170-6843  #171-6941  #172-6978
                #174-7058  #178-7167  #179-7198  #182-7281  #184-7345  #186-7403  #187-7445  #189-7507  #189-7531  #190-7553
                #192-7608  #193-7632  #194-7658  #196-7688  #200-7741  #201-7773  #204-7815  #205-7893  #207-7951  #209-8069
                #209-8074  #210-8086  #215-8299  #218-8384  #225-8707  #232-9152  #232-9155
CLEF$S		#119-4946  #126-5174  #126-5175  #126-5176  #229-8816  #230-9010
COMND$		#5-181
DEFCMD		#129-5254   130-5355   130-5356   130-5357   130-5358   130-5359   130-5360   130-5361   130-5362   130-5363
                 130-5364
DIR$  		#55-2335    56-2364   #112-4494  #112-4501   112-4501  #119-4946  #123-5050   123-5050  #125-5162   125-5162
                 125-5164   125-5166   125-5168  #126-5174   126-5174  #126-5175   126-5175  #126-5176   126-5176  #126-5177
                 126-5177  #126-5179   126-5179  #142-5727   143-5760  #166-6702   166-6702  #168-6746  #170-6879   170-6879
                 171-6938   171-6945  #225-8677   225-8677  #230-9010   230-9010  #230-9038   230-9038  #232-9094   232-9151
                #235-9223   238-9308
ERCON$		#5-172
ERROR$		#5-157      38-1607    47-1985    49-2079    53-2294    53-2297    58-2479    61-2603    68-2822    68-2825
                 68-2828    71-2978    78-3231    113-4598   113-4601   113-4604   113-4607   114-4720   114-4723   124-5115
                 124-5118   138-5602   141-5673   144-5776   144-5779   144-5782   146-5868   146-5870   161-6381   161-6383
                 165-6649   171-6951   186-7406   189-7534   205-7896   205-7899   210-8092   210-8095   210-8098   224-8613
                 224-8616   224-8619   224-8622   230-8856   230-8859   230-8862   230-8866   230-8952   238-9325   238-9328
ERR$  		#56-2364   #112-4501  #123-5050  #125-5162  #125-5164  #125-5166  #125-5168  #126-5174  #126-5175  #126-5176
                #126-5177  #126-5179  #143-5760  #166-6702  #170-6879  #171-6938  #171-6945  #225-8677  #230-9010  #230-9038
                #232-9151  #238-9308
EXCH$ 		#6-223
FATAL$		#5-164
GTIM$S		#112-4494   112-4501  #168-6746   170-6879  #223-8538   225-8677
IKL$  		#8-252
IOKL$ 		#8-280     #76-3115   #76-3116   #139-5632  #139-5634  #139-5636  #139-5638  #141-5679  #141-5681  #153-6077
                #162-6452
MOV$  		#112-4501   112-4501  #123-5050   123-5050  #125-5162   125-5162   125-5162  #126-5174   126-5174  #126-5175
                 126-5175  #126-5176   126-5176  #126-5177   126-5177  #126-5179   126-5179  #166-6702   166-6702  #170-6879
                 170-6879  #225-8677   225-8677  #230-9010   230-9010  #230-9038   230-9038
NBL$  		#127-5197   127-5197  #127-5206   127-5206  #127-5212   127-5212
NSERR$		#6-201
OFF$  		#56-2372    56-2372    56-2372    56-2372    56-2372    56-2372    56-2372   #112-4501   112-4501   112-4501
                 112-4501   112-4501   112-4501   112-4501   112-4501   112-4501  #127-5197   127-5197   127-5197   127-5197
                 127-5197  #127-5206   127-5206   127-5206   127-5206   127-5206  #127-5212   127-5212   127-5212   127-5212
                 127-5212  #145-5806   145-5806   145-5806   145-5806   145-5806   145-5806   145-5806  #170-6879   170-6879
                 170-6879   170-6879   170-6879   170-6879   170-6879   170-6879   170-6879  #175-7084   175-7084   175-7084
                 175-7084   175-7084   175-7084   175-7084   175-7084   175-7084  #175-7087   175-7087   175-7087   175-7087
                 175-7087   175-7087   175-7087   175-7087   175-7087  #225-8677   225-8677   225-8677   225-8677   225-8677
                 225-8677   225-8677   225-8677   225-8677  #232-9161   232-9161   232-9161   232-9161   232-9161   232-9161
PATREE     CREATED BY  MACRO  ON 3-APR-86 AT 22:59	PAGE 46

MACRO CROSS REFERENCE                                   CREF

MACRO NAME	REFERENCES

                 232-9161
POP   		#4-133     #36-1523   #49-2074   #50-2126   #50-2145   #50-2154   #51-2206   #57-2450   #58-2472   #58-2473
                #59-2515   #61-2575   #65-2712   #67-2789   #67-2793   #68-2801   #71-2928   #71-2932   #71-2935   #71-2964
                #71-2971   #71-2972   #71-2973   #73-3058   #76-3154   #94-3851   #96-3899   #100-3989  #104-4131  #106-4181
                #108-4274  #112-4528  #112-4541  #112-4592  #114-4713  #114-4715  #115-4775  #116-4836  #116-4846  #121-5012
                #124-5109  #130-5328  #138-5590  #140-5667  #140-5668  #143-5759  #148-5923  #148-5924  #156-6167  #158-6235
                #162-6436  #163-6477  #164-6528  #164-6559  #170-6893  #191-7575  #191-7576  #191-7577  #201-7769  #205-7881
                #209-8065  #215-8295  #221-8464  #230-8970  #230-8973  #230-8974  #230-8975  #230-8976  #230-8977  #230-8978
                #230-8991  #237-9282  #244-9429
PRDP$ 		#235-9223  #238-9334
PUSH  		#4-139      36-1509    36-1510    38-1583    38-1607    47-1985    49-2079    50-2114    50-2142    50-2152
                 51-2201    53-2294    53-2297    57-2446    58-2460    58-2461    58-2479    59-2512    61-2565    61-2597
                 61-2603    65-2705    67-2780    67-2781    67-2783    67-2784    67-2785    68-2822    68-2825    68-2828
                 71-2917    71-2918    71-2924    71-2961    71-2965    71-2966    71-2967    71-2978    73-3049    76-3124
                 76-3136    76-3137    78-3231    91-3738    94-3843    96-3890    96-3893    100-3987   104-4107   106-4167
                 108-4256   108-4264   110-4377   112-4499   112-4516   112-4535   113-4598   113-4601   113-4604   113-4607
                 114-4650   114-4673   114-4678   114-4720   114-4723   115-4756   116-4821   116-4826   121-5004   123-5056
                 124-5115   124-5118   130-5293   138-5582   138-5602   140-5645   140-5649   140-5650   140-5655   140-5657
                 140-5658   141-5673   143-5756   144-5776   144-5779   144-5782   146-5868   146-5870   148-5896   156-6160
                 158-6211   159-6268   161-6381   161-6383   162-6424   163-6459   164-6509   164-6518   165-6649   170-6877
                 171-6951   182-7268   182-7270   182-7271   182-7272   182-7274   182-7275   186-7406   189-7534   205-7862
                 205-7896   205-7899   209-8060   209-8062   210-8092   210-8095   210-8098   214-8256   217-8346   220-8437
                 224-8613   224-8616   224-8619   224-8622   230-8829   230-8856   230-8859   230-8862   230-8866   230-8952
                 237-9276   238-9325   238-9328   244-9409   244-9416   244-9417
QDPB$ 		#175-7084  #175-7084  #175-7087  #175-7087
QIOW$ 		#168-6746   175-7084   175-7087
QIOW$S		#168-6746
RETURN		#4-147      36-1525    46-1934    46-1939    47-1980    49-2077    50-2156    52-2243    53-2292    61-2600
                 68-2820    71-2975    73-3059    76-3155    81-3342    81-3384    82-3422    83-3481    84-3536    85-3587
                 104-4132   106-4182   108-4275   111-4408   112-4595   114-4718   124-5110   130-5329   131-5398   134-5501
                 146-5865   148-5926   153-6065   155-6136   158-6236   159-6294   162-6440   163-6478   164-6560   165-6646
                 166-6707   170-6875   170-6894   171-6948   172-6980   173-7010   211-8170   212-8195   213-8241   213-8245
                 221-8465   238-9321   244-9430
RQST$ 		#55-2335    56-2372   #142-5727   145-5806  #232-9094   232-9161
R50$  		#56-2372   #56-2372   #56-2372   #145-5806  #145-5806  #145-5806  #232-9161  #232-9161  #232-9161
SETF$S		#119-4946  #123-5050  #126-5177  #126-5179  #160-6344  #166-6702
SPERR$		#6-211
SVTK$S		#119-4946  #125-5162
WTSE$S		#229-8816  #230-9038
$DEF  		#185-7373  #185-7375  #235-9223  #235-9225
.ENB6 		#79-3268    81-3331   #223-8538   223-8605  #229-8816   230-9004
.INH6 		#79-3268    81-3326   #223-8538   223-8592  #229-8816   230-8969   230-8998
