PAROOT     CREATED BY  MACRO  ON 3-APR-86 AT 22:53	PAGE 1

SYMBOL CROSS REFERENCE                                  CREF

SYMBOL	VALUE		REFERENCES

ABMSG 	  001051 RG	 178-7166  #178-7166   178-7166
ABOMSG	  000365 RG	 174-7014  #174-7014   174-7014
ACBMSG	  001372 RG	 182-7365  #182-7365   182-7365   183-7374   183-7374   190-7481   190-7481   193-7550   193-7550
ADD   	= 000270	#23-878
ADDB  	= 000273	#23-879
ADDI  	= 000271	#23-880
ADDM  	= 000272	#23-881
ADH   	= 000004	#117-4985  #117-4985   117-4985   117-4985
ADL   	= 000000	#117-4985   117-4985   117-4985  #117-4985   117-4985   117-4985  #117-4985   117-4985   117-4985
                        #117-4985   117-4985   117-4985  #117-4985   117-4985   117-4985  #117-4985   117-4985   117-4985
                         117-4985  #117-4985   117-4985   117-4985
ADMSG 	  001011 RG	 178-7143  #178-7143   178-7143
ADRTMP	  007320 R	*244-9474  *244-9475   244-9476  #244-9488
ADXMSG	  001014 RG	 178-7145  #178-7145   178-7145
ALLMSG	  001414 RG	 184-7381  #184-7381   184-7381   189-7462   189-7462
AMBERM	  003670 R	#191-7522   191-7522
AND   	= 000404	#23-883
ANDB  	= 000407	#23-884
ANDCA 	= 000410	#23-885
ANDCAB	= 000413	#23-886
ANDCAI	= 000411	#23-887
ANDCAM	= 000412	#23-888
ANDCB 	= 000440	#23-889
ANDCBB	= 000443	#23-890
ANDCBI	= 000441	#23-891
ANDCBM	= 000442	#23-892
ANDCM 	= 000420	#23-893
ANDCMB	= 000423	#23-894
ANDCMI	= 000421	#23-895
ANDCMM	= 000422	#23-896
ANDI  	= 000405	#23-897
ANDM  	= 000406	#23-898
AOBJN 	= 000253	#23-900
AOBJP 	= 000252	#23-901
AOJ   	= 000340	#23-903
AOJA  	= 000344	#23-904
AOJE  	= 000342	#23-905
AOJG  	= 000347	#23-906
AOJGE 	= 000345	#23-907
AOJL  	= 000341	#23-908
AOJLE 	= 000343	#23-909
AOJN  	= 000346	#23-910
AOS   	= 000350	#23-912
AOSA  	= 000354	#23-913
AOSE  	= 000352	#23-914
AOSG  	= 000357	#23-915
AOSGE 	= 000355	#23-916
AOSL  	= 000351	#23-917
AOSLE 	= 000353	#23-918
AOSN  	= 000356	#23-919
APEERM	  000000 R	#181-7265   181-7265
APR   	= 000000	#7-244
PAROOT     CREATED BY  MACRO  ON 3-APR-86 AT 22:53	PAGE 2

SYMBOL CROSS REFERENCE                                  CREF

SYMBOL	VALUE		REFERENCES

APRMSG	  001273 RG	 180-7241  #180-7241   180-7241
AP.ALL	= 000177	#9-349
AP.ARP	= 001000	#16-634     16-638     131-5460
AP.CDP	= 000004	#9-344      9-349
AP.EIP	= 000400	#16-636     16-638     131-5468
AP.IPF	= 000020	#9-346      9-349
AP.MPE	= 000010	#9-345      9-349
AP.NRM	= 001400	#16-638     16-640
AP.NXM	= 000040	#9-347      9-349
AP.PWF	= 000001	#9-342      9-349
AP.SAP	= 000002	#9-343      9-349
AP.SBE	= 000100	#9-348      9-349
ARMSG 	  000773 RG	 176-7107  #176-7107   176-7107   178-7147   178-7147   189-7464   189-7464
ARXMSG	  001020 RG	 178-7149  #178-7149   178-7149
ASH   	= 000240	#23-921
ASHC  	= 000244	#23-922
AUGMSG	  001317 RG	 180-7249  #180-7249   180-7249
A.LULU	= 000002	#70-3087    70-3089
A.LUNA	= 000004	#70-3087
A.LUNU	= 000006	#70-3087
BAEERM	  000023 R	#181-7267   181-7267
BCCTER	  003362 R	 88-3871   #88-3876
BIT0  	= 000001	#87-3838
BIT00 	= 000001	#9-306      10-384     11-410     11-430     12-467     12-468     13-491     13-514     22-843
                         22-857     62-2647    130-5421   139-5778
BIT01 	= 000002	#9-307      10-387     11-406     11-428     12-465     12-466     13-492     13-513     22-844
                         22-858     130-5420
BIT02 	= 000004	#9-308      10-379     11-405     11-427     11-432     12-463     12-464     13-493     13-512
                         22-845     22-859     97-4164    130-5419
BIT03 	= 000010	#9-309      10-378     11-404     11-424     12-460     12-462     13-494     13-511     22-846
                         22-860     128-5326   130-5418
BIT04 	= 000020	#9-310      10-376     10-377     11-403     11-422     11-423     12-458     13-495     13-510
                         22-847     22-861
BIT05 	= 000040	#9-311      10-374     11-410     11-421     12-456     12-457     13-496     13-509     22-848
                         22-862     139-5775
BIT06 	= 000100	#9-312      10-373     11-399     11-432     12-454     12-455     13-485     13-508     22-849
                         22-863
BIT07 	= 000200	#9-313      10-371     10-372     11-410     11-432     12-452     13-484     13-507     22-850
                         22-864
BIT08 	= 000400	#9-314      10-370     11-410     11-432     12-450     13-483     13-506     22-865
BIT09 	= 001000	#9-315      10-366     10-369     11-410     11-432     12-448     13-482     13-505
BIT1  	= 000002	#87-3838
BIT10 	= 002000	#9-316      10-365     10-368     11-410     11-432     12-447     13-481     13-504    #87-3838
BIT11 	= 004000	#9-317      10-364     10-367     11-410     11-432     12-445     13-480     13-503    #87-3838
BIT12 	= 010000	#9-318      10-363     11-410     11-432     12-443     12-444     13-479     13-502    #87-3838
BIT13 	= 020000	#9-319      10-362     11-395     11-410     11-432     12-441     13-478    #87-3838
BIT14 	= 040000	#9-320      10-361     11-392     11-393     11-410     11-415     11-432     12-440     13-477
                        #87-3838
BIT15 	= 100000	#9-321      10-360     11-391     11-410     11-414     11-432     12-438     13-476     35-1489
                         35-1574    72-3203    73-3253    74-3313   #87-3838
BIT2  	= 000004	#87-3838
BIT3  	= 000010	#87-3838
PAROOT     CREATED BY  MACRO  ON 3-APR-86 AT 22:53	PAGE 3

SYMBOL CROSS REFERENCE                                  CREF

SYMBOL	VALUE		REFERENCES

BIT4  	= 000020	#87-3838
BIT5  	= 000040	#87-3838
BIT6  	= 000100	#87-3838
BIT7  	= 000200	#87-3838
BIT8  	= 000400	#87-3838
BIT9  	= 001000	#87-3838
BLKI  	= 000000	#7-233
BLKIS 	  002232 R	 230-8986  #230-8998
BLKO  	= 000002	#7-235
BLKOS 	  002245 R	 230-8988  #230-9000
BLT   	= 000251	#23-924
BPARER	= 000020	#87-3838
BRMSG 	  001024 RG	 178-7151  #178-7151   178-7151
BRXMSG	  001027 RG	 178-7153  #178-7153   178-7153
CAEERM	  000052 R	#181-7269   181-7269
CAI   	= 000300	#24-926
CAIA  	= 000304	#24-927
CAIE  	= 000302	#24-928
CAIG  	= 000307	#24-929
CAIGE 	= 000305	#24-930
CAIL  	= 000301	#24-931
CAILE 	= 000303	#24-932
CAIN  	= 000306	#24-933
CALERM	  000104 R	#181-7270   181-7270
CALL  	= 000040	#24-935
CALLI 	= 000047	#24-936
CAM   	= 000310	#24-938
CAMA  	= 000314	#24-939
CAME  	= 000312	#24-940
CAMG  	= 000317	#24-941
CAMGE 	= 000315	#24-942
CAML  	= 000311	#24-943
CAMLE 	= 000313	#24-944
CAMN  	= 000316	#24-945
CAPERM	  000133 R	#181-7271   181-7271
CBOERM	  000166 R	#181-7272   181-7272
CCA   	= 000014	#7-247
CC.ALL	= 003417	#15-612
CC.NRM	= 000000	#15-611     143-5951
CDD   	= 000020	#87-3838
CDIERM	  000224 R	#181-7273   181-7273
CD.ALL	= 003400	#15-609     15-612
CD.CLC	= 000400	#15-607     131-5464
CD.CRC	= 002000	#15-605     131-5449
CD.DPC	= 001000	#15-606     131-5456
CD.NRM	= 000000	#15-608
CESCES	  000016 R	 47-2104   #47-2107
CESERM	  003722 R	#191-7524   191-7524
CFHERM	  000305 R	#181-7274   181-7274
CHNPNT	= 000001	#87-3838
CH.ALP	= 000001	#22-843     22-852     41-1841    42-1844    42-1845    42-1846    42-1847    42-1848    42-1849
                         42-1850    42-1851    42-1852    42-1853    42-1854    42-1855    42-1856    42-1857    42-1858
PAROOT     CREATED BY  MACRO  ON 3-APR-86 AT 22:53	PAGE 4

SYMBOL CROSS REFERENCE                                  CREF

SYMBOL	VALUE		REFERENCES

                         42-1859    42-1860    42-1861    42-1862    42-1863    42-1864    42-1865    42-1866    42-1867
                         42-1868    42-1869    48-2146
CH.ANM	= 000003	#22-852
CH.AOP	= 000100	#22-849     41-1816    41-1817    41-1818    41-1819    41-1821    41-1823    42-1845    42-1846
                         42-1847    42-1858    42-1874    42-1875
CH.END	= 000034	#22-851     59-2552    169-6867
CH.EOC	= 000010	#22-846     22-851     40-1775    40-1776    41-1820    41-1836    41-1837    49-2183    51-2248
                         53-2314
CH.EOL	= 000004	#22-845     22-851     40-1775
CH.EOS	= 000020	#22-847     22-851     40-1775    40-1776    41-1808    41-1810    41-1815    41-1818    41-1819
                         41-1820    41-1821    41-1823    41-1836    41-1837    41-1839    41-1840    42-1875    52-2285
CH.ILL	= 000200	#22-850     40-1777    40-1778    40-1779    40-1780    40-1781    40-1782    40-1783    40-1784
                         40-1785    40-1786    40-1787    40-1788    40-1789    40-1790    40-1791    40-1792    40-1793
                         40-1794    40-1795    40-1796    40-1797    40-1798    41-1800    41-1801    41-1802    41-1803
                         41-1804    41-1805    41-1806    41-1807    41-1809    41-1811    41-1812    41-1813    41-1814
                         41-1822    41-1838    41-1842    42-1871    42-1872    42-1873    42-1876
CH.NUL	= 000000	#22-842
CH.NUM	= 000002	#22-844     22-852     41-1825    41-1826    41-1827    41-1828    41-1829    41-1830    41-1831
                         41-1832    41-1833    41-1834    48-2153    238-9287
CH.PFX	= 000040	#22-848     41-1816    41-1819    41-1821    41-1841    42-1874    48-2153
CIDLUN	= 000001	#21-819     160-6594   224-8708   260-10120  260-10125
CKCILS	  000152 R	 49-2186   #49-2188    51-2257    52-2286    52-2288
CKCMRA	  000160 R	 48-2154    49-2184   #49-2191    53-2315
CKEEOC	  000250 R	 51-2255   #51-2259
CKRKLR	  000366 R	 54-2357   #54-2365
CLEAR 	= 000400	#24-947
CLEARB	= 000403	#24-948
CLEARI	= 000401	#24-949
CLEARM	= 000402	#24-950
CLEERM	  000343 R	#181-7275   181-7275
CLKMSG	  001617 RG	 190-7483  #190-7483   190-7483   193-7552   193-7552
CLOATR	= 000256 R	*75-3343   *75-3347   #75-3370
CLOATT	= 000262 R	*75-3349   #75-3377
CLODAC	  000240 R	 75-3350   #75-3365    75-3368    75-3369    75-3370
CLOFCF	  002160 R	 75-3351    75-3353   #75-3359
CLOIOF	= 000242 R	*75-3342   *75-3346   #75-3368
CLOLUN	= 000244 R	*75-3348   #75-3369
CLOSE 	= 000070	#24-952
CLOWAT	  000260 R	 75-3347   #75-3372    75-3377
CLRMSG	  000373 RG	 174-7016  #174-7016   174-7016
CNRERM	  000400 R	#181-7276   181-7276
CNTMSG	  000401 RG	 174-7018  #174-7018   174-7018
CNUPE 	= 000002	#87-3838
CODLUN	= 000002	#21-820     260-10102
CONI  	= 000005	#7-238
CONIS 	  002265 R	 230-8991  #230-9003
CONMSG	  001625 RG	 190-7485  #190-7485   190-7485   193-7554   193-7554
CONO  	= 000004	#7-237      117-4985   117-4985
CONOS 	  002260 R	 230-8990  #230-9002
CONSO 	= 000007	#7-240
CONSOS	  002300 R	 230-8993  #230-9005
CONSZ 	= 000006	#7-239
PAROOT     CREATED BY  MACRO  ON 3-APR-86 AT 22:53	PAGE 5

SYMBOL CROSS REFERENCE                                  CREF

SYMBOL	VALUE		REFERENCES

CONSZS	  002272 R	 230-8992  #230-9004
CPEERM	  000440 R	#181-7277   181-7277
CPUMSG	  001420 RG	 184-7383  #184-7383   184-7383
CPUNUM	= 000002	#87-3838
CPVMSG	  000000 RG	#39-1728
CRAMSG	  001054 RG	 178-7168  #178-7168   178-7168
CRHERM	  000467 R	#181-7278   181-7278
CRLMSG	  001063 RG	 178-7170  #178-7170   178-7170
CRMMSG	  001450 RG	 62-2672    185-7404  #185-7404   185-7404   189-7466   189-7466
CR.ALL	= 000003	#15-597     15-612
CR.CR1	= 000001	#15-591     15-597     131-5462
CR.CR2	= 000002	#15-592     15-597     131-5454
CR.FUL	= 000000	#15-593
CR.HLF	= 000001	#15-594
CR.NRM	= 000000	#15-590
CR.QTR	= 000002	#15-595
CR.SLO	= 000003	#15-596
CS.ALL	= 000014	#15-588     15-612
CS.CS1	= 000004	#15-582     15-588     131-5447
CS.CS2	= 000010	#15-583     15-588     131-5441
CS.EXP	= 177670	#87-3838
CS.EXT	= 000010	#15-586
CS.FST	= 000004	#15-584     15-585
CS.MGN	= 000004	#15-585
CS.NRM	= 000000	#15-581
CS.UDF	= 000014	#15-587
CTLMSG	  001467 RG	 185-7408  #185-7408   185-7408
CTYPTR	= ******  GX	 160-6598
DATABX	  000312 RG	#35-1615    262-10133
DATAI 	= 000001	#7-234
DATAIS	  002237 R	 230-8987  #230-8999
DATAO 	= 000003	#7-236
DATAOS	  002252 R	 230-8989  #230-9001
DATMSG	  001635 RG	 190-7487  #190-7487   190-7487   193-7556   193-7556
DAVERM	  000531 R	#181-7283   181-7283
DBTERM	  000562 R	#181-7284   181-7284
DCKERM	  000612 R	#181-7285   181-7285
DCOMST	= 000001	#87-3838
DCRMSG	  000724 RG	 175-7092  #175-7092   175-7092   176-7113   176-7113   177-7128   177-7128   178-7201   178-7201
DEB880	= ******	 44-1921    47-2099    56-2423    90-3942    94-4056    97-4165    99-4234    99-4250    100-4276
                         104-4421   104-4429   106-4487   108-4583   110-4659   114-4838   115-4851   115-4880   117-4970
                         128-5327   139-5791   149-6124   152-6220
DECMSG	  001361 RG	 180-7257  #180-7257   180-7257
DEP   	= 010000	#87-3838
DEPMSG	  000412 RG	 174-7020  #174-7020   174-7020
DEX   	= 000400	#87-3838
DEXDON	= 000004	#87-3838
DEXWD1	= 174406	#87-3838
DEXWD2	= 174404	#87-3838
DEXWD3	= 174402	#87-3838
DFAD  	= 000110	#24-954
DFBEND	= 000362 RG	#37-1686
PAROOT     CREATED BY  MACRO  ON 3-APR-86 AT 22:53	PAGE 6

SYMBOL CROSS REFERENCE                                  CREF

SYMBOL	VALUE		REFERENCES

DFDV  	= 000113	#24-955
DFMP  	= 000112	#24-956
DFN   	= 000131	#24-957
DFSB  	= 000111	#24-958
DFUNC 	= 000200	#87-3838
DF.DMG	= 000004	#87-3838
DF.DMN	= 000007	#87-3838
DF.DOR	= 000001	#87-3838
DF.EHG	= 000010	#87-3838
DF.EHM	= 000011	#87-3838
DF.EMG	= 000005	#87-3838
DF.EMN	= 000006	#87-3838
DF.KLR	= 000012	#87-3838    106-4530
DF.KLW	= 000013	#87-3838    108-4627
DF.KLX	= 000014	#87-3838    111-4729
DF.OFF	= 000002	#87-3838
DF.ON 	= 000003	#87-3838
DF.PDP	= 000016	#87-3838    102-4345
DF.PEX	= 000015	#87-3838    102-4363
DIAG1 	= 174430	#87-3838
DIAG2 	= 174432	#87-3838
DIAG3 	= 174436	#87-3838
DIKL10	= 000010	#87-3838
DISMSG	  000422 RG	 174-7022  #174-7022   174-7022
DIV   	= 000234	#24-960
DIVB  	= 000237	#24-961
DIVI  	= 000235	#24-962
DIVM  	= 000236	#24-963
DLYCNT	= 174400	#87-3838
DMFERM	  000635 R	#181-7286   181-7286
DMOVE 	= 000120	#24-965
DMOVEM	= 000124	#24-966
DMOVN 	= 000121	#24-967
DMOVNM	= 000125	#24-968
DNFERM	  000724 R	#181-7288   181-7288
DNPERM	  000763 R	#181-7289   181-7289
DOCCNR	  010102 R	 159-6527  #159-6550
DON10C	= 040000	#87-3838
DON10S	= 100000	#87-3838
DON11C	= 000100	#87-3838
DON11S	= 000200	#87-3838
DORERM	  000674 R	#181-7287   181-7287
DPB   	= 000137	#24-970
DPDTEN	= 000322 RG	#102-4346
DPS4  	= 040000	#87-3838
DPTMSG	  001455 RG	 185-7406  #185-7406   185-7406
DRAMSG	  001071 RG	 178-7172  #178-7172   178-7172
DRDMSG	  002144 R	 216-8363  #217-8393
DRESET	= 000100	#87-3838
DRMMSG	  001573 RG	 62-2671    189-7468  #189-7468   189-7468
DR.DTE	= 000011	#87-3838    102-4345   102-4363   106-4530   108-4627   111-4729
DSEND 	= 000004	#87-3838
PAROOT     CREATED BY  MACRO  ON 3-APR-86 AT 22:53	PAGE 7

SYMBOL CROSS REFERENCE                                  CREF

SYMBOL	VALUE		REFERENCES

DSFERM	  001022 R	#181-7290   181-7290
DS04  	= 004000	#87-3838
DS05  	= 002000	#87-3838
DS06  	= 001000	#87-3838
DTCERM	  001055 R	#181-7291   181-7291
DTECMD	= 000451	#87-3838
DTEDSF	  003626 R	 94-4061   #94-4074
DTEFLG	= 000444	#87-3838
DTEF11	= 000450	#87-3838
DTEMSG	  001100 RG	 178-7174  #178-7174   178-7174   184-7385   184-7385
DTEMTD	= 000455	#87-3838
DTEMTI	= 000456	#87-3838
DTKMSG	  002215 R	 218-8435  #220-8501
DTRMSG	  002063 R	 216-8348  #217-8381
DUPE  	= 000020	#87-3838
DURE  	= 000004	#87-3838
DWRMSG	  002150 R	 216-8366  #217-8395
DW1MSG	  002104 R	 217-8375  #217-8384
DW2MSG	  002114 R	 217-8376  #217-8386
DW3MSG	  002134 R	 217-8378  #217-8390
DXWRD1	= 002000	#87-3838
D.CDLS	= ******  GX	 160-6600
D1.CES	= 004000	#10-367     47-2103    114-4837
D1.DCS	= 000001	#10-384
D1.DDT	= 000040	#10-374     10-387
D1.DEX	= 000400	#10-370     10-387
D1.DFM	= 000010	#10-378
D1.DS0	= 100000	#10-360
D1.DS1	= 040000	#10-361
D1.DS2	= 020000	#10-362
D1.DS3	= 010000	#10-363
D1.DS4	= 004000	#10-364
D1.DS5	= 002000	#10-365
D1.DS6	= 001000	#10-366
D1.HLP	= 001000	#10-369     104-4420   104-4428   115-4850   115-4879   117-4969   152-6219
D1.LBK	= 000200	#10-372
D1.MBZ	= 000442	#10-387     94-4083
D1.PLS	= 000020	#10-377
D1.RUN	= 002000	#10-368
D1.T10	= 000200	#10-371
D1.T11	= 000100	#10-373
D1.V04	= 000020	#10-376
D1.XFR	= 000004	#10-379
D1011 	= 000040	#87-3838
D2RST 	  004344 R	 142-5898  #142-5906
D2.EBD	= 040000	#11-393
D2.MBZ	= 177641	#11-410     94-4084
D2.MS1	= 000002	#11-406
D2.MS2	= 000004	#11-405
D2.MS4	= 000010	#11-404
D2.MS8	= 000020	#11-403
D2.RA0	= 100000	#11-391
PAROOT     CREATED BY  MACRO  ON 3-APR-86 AT 22:53	PAGE 8

SYMBOL CROSS REFERENCE                                  CREF

SYMBOL	VALUE		REFERENCES

D2.RA1	= 040000	#11-392
D2.RA2	= 020000	#11-395
D2.RST	= 000100	#11-399     142-5907
D3RST 	  004346 R	 142-5900  #142-5908
D3.CDD	= 000020	#11-423
D3.MBZ	= 177704	#11-432     94-4086
D3.NPE	= 000002	#11-428
D3.PAR	= 040000	#11-415
D3.RST	= 000001	#11-434     142-5909
D3.SCD	= 000040	#11-421
D3.SSL	= 100000	#11-414
D3.TXB	= 000001	#11-430     11-434
D3.UPE	= 000020	#11-422
D3.URE	= 000004	#11-427
D3.WEP	= 000010	#11-424
EBCECT	  003722 R	 97-4172   #97-4176
EBPEPE	  000424 R	 56-2424   #56-2427
EBRMSG	  001107 RG	 178-7176  #178-7176   178-7176
EBSEL 	= 000100	#87-3838
EBSMSG	  001033 RG	 178-7155  #178-7155   178-7155
EBUSPC	= 000020	#87-3838
EBUSPS	= 000004	#87-3838
ECTERM	  001127 R	#181-7293   181-7293
EDEPT 	  002154 R	 220-8482  #220-8489
EDEXV 	  002160 R	 220-8483  #220-8491
EDONES	= 040000	#87-3838
EDPHY 	  002174 R	 220-8486  #220-8497
EDTYTB	  007264 R	 219-8468  #220-8481
EDUPT 	  002164 R	 220-8484  #220-8493
EDUSV 	  002170 R	 220-8485  #220-8495
ED.EPT	= 000000	#9-325
ED.EXV	= 000040	#9-326
ED.PHY	= 000200	#9-329      102-4345   102-4363
ED.UPT	= 000100	#9-327
ED.USV	= 000140	#9-328
EF.CRI	= ******  GX	 141-5850
ELBBIN	  007350 RG	 246-9573  #250-9734
ELBOCT	  007354 RG	 246-9577  #250-9737
ELEMSG	  000776 RG	 176-7109  #176-7109   176-7109   178-7178   178-7178   186-7429   186-7429
ELNBIN	  007342 RG	 245-9534  #250-9730
ELNNOR	  013214 R	 225-8741   225-8743   225-8748   225-8750  #225-8753
ELNOCT	  007360 RG	 245-9538  #250-9742
EMFERM	  001160 R	#181-7294   181-7294
ENBMSG	  001600 RG	 189-7470  #189-7470   189-7470
ENTCRE	  000070 R	 72-3185   #72-3202
ENTDEL	  000144 R	 72-3194   #72-3208
ENTENA	  000114 R	 72-3189   #72-3205
ENTER 	= 000077	#25-972
ENTFEN	  001730 R	 72-3186    72-3188   #72-3196
EOCERM	  001217 R	#181-7295   181-7295
EOFMSG	  000335 R	 77-3462   #77-3471
EPEERM	  001255 R	#181-7296   181-7296
PAROOT     CREATED BY  MACRO  ON 3-APR-86 AT 22:53	PAGE 9

SYMBOL CROSS REFERENCE                                  CREF

SYMBOL	VALUE		REFERENCES

EPTR  	= 000000	#87-3838
EQV   	= 000444	#25-974
EQVB  	= 000447	#25-975
EQVI  	= 000445	#25-976
EQVM  	= 000446	#25-977
ERRMSG	  001424 RG	 184-7387  #184-7387   184-7387
ERR10C	= 010000	#87-3838
ERR10S	= 020000	#87-3838
ERR11C	= 000001	#87-3838
ERR11S	= 000002	#87-3838
ERSMSG	  000107 R	 62-2670   #63-2680
ESDERM	  001305 R	#181-7297   181-7297
ESEERM	  001342 R	#181-7298   181-7298
ETRMSG	  002200 R	 218-8430  #220-8499
EXAMSG	  000435 RG	 174-7024  #174-7024   174-7024
EXCH  	= 000250	#25-979
EXDDMF	  004134 R	 101-4309  #101-4321
EXDEMF	  004142 R	 101-4303  #101-4324
EXDESD	  004104 R	 101-4308  #101-4313
EXDESE	  004120 R	 101-4302  #101-4317
EXDTEN	= 000334 RG	#102-4364
EXECTO	  004354 R	 104-4434  #104-4454
EXRTBL	= 000012  G	#178-7165
EXTEND	= 000123	#25-980
EXTEXT	  000214 R	 74-3290   #74-3312
EXTFEF	  002036 R	 74-3291    74-3293   #74-3298
EXTMSG	  001477 RG	 185-7410  #185-7410   185-7410
E.FCID	= 000002	#21-803     160-6594   224-8708   260-10120
E.FCOD	= 000003	#21-804     260-10102  260-10125
E.FCTC	= ******  GX	 50-2217
E.FFIL	= 000006	#21-807     70-3092    71-3155    72-3203    72-3206    72-3209    73-3253    74-3313    75-3366
                         80-3574    85-3783
E.FHTO	= 000001	#21-802     91-3972    149-6125
E.FKLN	= 000004	#21-805
E.FLOD	= 000005	#21-806     260-10111
FAD   	= 000140	#25-982
FADB  	= 000143	#25-983
FADL  	= 000141	#25-984
FADM  	= 000142	#25-985
FADR  	= 000144	#25-987
FADRB 	= 000147	#25-988
FADRI 	= 000145	#25-989
FADRM 	= 000146	#25-990
FCFERM	  001377 R	#181-7300   181-7300
FDV   	= 000170	#25-992
FDVB  	= 000173	#25-993
FDVL  	= 000171	#25-994
FDVM  	= 000172	#25-995
FDVR  	= 000174	#25-997
FDVRB 	= 000177	#25-998
FDVRI 	= 000175	#25-999
FDVRM 	= 000176	#25-1000
PAROOT     CREATED BY  MACRO  ON 3-APR-86 AT 22:53	PAGE 10

SYMBOL CROSS REFERENCE                                  CREF

SYMBOL	VALUE		REFERENCES

FEBMSG	  001254 RG	 180-7237  #180-7237   180-7237
FEFERM	  001430 R	#181-7301   181-7301
FENERM	  001462 R	#181-7302   181-7302
FERMSG	  001113 RG	 178-7180  #178-7180   178-7180
FIX   	= 000122	#25-1002
FIXR  	= 000126	#25-1003
FLDMSG	  000050 R	 60-2591   #60-2598
FLFERM	  001513 R	#181-7303   181-7303
FLGMSG	  001116 RG	 178-7182  #178-7182   178-7182
FLTMSG	  001642 RG	 190-7489  #190-7489   190-7489   193-7558   193-7558
FLTR  	= 000127	#25-1005
FMMSG 	  001040 RG	 62-2673    178-7158  #178-7158   178-7158   189-7472   189-7472
FMP   	= 000160	#25-1007
FMPB  	= 000163	#25-1008
FMPL  	= 000161	#25-1009
FMPM  	= 000162	#25-1010
FMPR  	= 000164	#25-1012
FMPRB 	= 000167	#25-1013
FMPRI 	= 000165	#25-1014
FMPRM 	= 000166	#25-1015
FNDALN	  000000 R	 70-3065   #70-3086    70-3089
FNDALU	= 000002 R	*70-3064   #70-3089
FNDCAL	  001550 R	 70-3066   #70-3078
FNDDNF	  001556 R	 70-3070    70-3072   #70-3080
FNDFNA	  000010 R	 70-3069   #70-3091    70-3094    70-3095
FNDFNB	= 000036 R	*70-3068   #70-3095
FNDLUN	= 000014 R	*70-3067   #70-3094
FOFERM	  001545 R	#181-7304   181-7304
FORPRO	= 000020	#87-3838
FRDERM	  001575 R	#181-7305   181-7305
FRDFRF	  004436 R	 106-4492  #106-4509
FRDMSG	  000445 RG	 174-7026  #174-7026   174-7026
FRDTEN	= 000346 RG	#106-4531
FRFERM	  003754 R	#191-7526   191-7526
FR.ADX	= 000254	#18-725
FR.APR	= 000220	#18-703
FR.ARX	= 000252	#18-723
FR.BRX	= 000250	#18-721
FR.CA1	= 000312	#19-755     19-756
FR.CA2	= 000310	#19-752     19-753
FR.CL1	= 000316	#19-762
FR.CL2	= 000314	#19-759
FR.CRD	= 000302	#19-746     132-5497
FR.CR1	= 000316	#19-761     19-762
FR.CR2	= 000314	#19-758     19-759
FR.CR3	= 000312	#19-756
FR.CR4	= 000310	#19-753     134-5574
FR.DA1	= 000260	#18-731
FR.DA2	= 000262	#18-734
FR.EBS	= 000356	#20-789
FR.FE1	= 000266	#18-738
FR.FE2	= 000264	#18-736
PAROOT     CREATED BY  MACRO  ON 3-APR-86 AT 22:53	PAGE 11

SYMBOL CROSS REFERENCE                                  CREF

SYMBOL	VALUE		REFERENCES

FR.PI0	= 000200	#18-692
FR.PI1	= 000202	#18-694
FR.RAD	= 000256	#18-727
FR.RAR	= 000240	#18-713
FR.RBR	= 000242	#18-715
FR.RFM	= 000246	#18-719     137-5708
FR.RMQ	= 000244	#18-717
FR.SC1	= 000262	#18-733
FR.SC2	= 000260	#18-730
FR.SR1	= 000306	#19-750
FR.SR2	= 000304	#19-748
FR.VM0	= 000320	#19-765
FR.VM1	= 000322	#19-767
FR.VM2	= 000324	#19-769
FR.VM3	= 000326	#19-771
FR.VM4	= 000330	#19-773
FR.VM5	= 000332	#19-775
FR.VM6	= 000334	#19-777
FR.VM7	= 000336	#19-779
FR.100	= 000200	#18-691     18-692
FR.101	= 000202	#18-693     18-694
FR.102	= 000204	#18-695     139-5774
FR.103	= 000206	#18-696
FR.104	= 000210	#18-697     97-4162    131-5437
FR.105	= 000212	#18-698     131-5438
FR.106	= 000214	#18-699     131-5439
FR.107	= 000216	#18-700     131-5440
FR.110	= 000220	#18-702     18-703
FR.111	= 000222	#18-704
FR.112	= 000224	#18-705
FR.113	= 000226	#18-706
FR.114	= 000230	#18-707     136-5664   138-5737
FR.115	= 000232	#18-708
FR.116	= 000234	#18-709
FR.117	= 000236	#18-710
FR.120	= 000240	#18-712     18-713
FR.121	= 000242	#18-714     18-715
FR.122	= 000244	#18-716     18-717
FR.123	= 000246	#18-718     18-719
FR.124	= 000250	#18-720     18-721
FR.125	= 000252	#18-722     18-723
FR.126	= 000254	#18-724     18-725
FR.127	= 000256	#18-726     18-727
FR.130	= 000260	#18-729     18-730     18-731
FR.131	= 000262	#18-732     18-733     18-734
FR.132	= 000264	#18-735     18-736
FR.133	= 000266	#18-737     18-738
FR.134	= 000270	#18-739
FR.135	= 000272	#18-740
FR.136	= 000274	#18-741
FR.137	= 000276	#18-742
FR.140	= 000300	#19-744
PAROOT     CREATED BY  MACRO  ON 3-APR-86 AT 22:53	PAGE 12

SYMBOL CROSS REFERENCE                                  CREF

SYMBOL	VALUE		REFERENCES

FR.141	= 000302	#19-745     19-746
FR.142	= 000304	#19-747     19-748
FR.143	= 000306	#19-749     19-750
FR.144	= 000310	#19-751     19-752
FR.145	= 000312	#19-754     19-755
FR.146	= 000314	#19-757     19-758
FR.147	= 000316	#19-760     19-761
FR.150	= 000320	#19-764     19-765
FR.151	= 000322	#19-766     19-767
FR.152	= 000324	#19-768     19-769
FR.153	= 000326	#19-770     19-771
FR.154	= 000330	#19-772     19-773
FR.155	= 000332	#19-774     19-775
FR.156	= 000334	#19-776     19-777
FR.157	= 000336	#19-778     19-779
FR.160	= 000340	#20-781
FR.161	= 000342	#20-782
FR.162	= 000344	#20-783     128-5324
FR.163	= 000346	#20-784
FR.164	= 000350	#20-785
FR.165	= 000352	#20-786
FR.166	= 000354	#20-787
FR.167	= 000356	#20-788     20-789
FR.170	= 000360	#20-791
FR.171	= 000362	#20-792
FR.172	= 000364	#20-793
FR.173	= 000366	#20-794
FR.174	= 000370	#20-795
FR.175	= 000372	#20-796
FR.176	= 000374	#20-797
FR.177	= 000376	#20-798
FSB   	= 000150	#25-1017
FSBB  	= 000153	#25-1018
FSBL  	= 000151	#25-1019
FSBM  	= 000152	#25-1020
FSBR  	= 000154	#26-1022
FSBRB 	= 000157	#26-1023
FSBRI 	= 000155	#26-1024
FSBRM 	= 000156	#26-1025
FSC   	= 000132	#26-1027
FSSMSG	  001607 RG	 62-2674    189-7474  #189-7474   189-7474   190-7491   190-7491
FSWERM	  001625 R	#181-7306   181-7306
FTBYTE	= 000000	#2-65
FTCRAM	= 000000	#2-66
FTDEBU	= 000001	#2-67       35-1502    68-2880    160-6575
FTDISP	= 000000	#2-68
FTDRAM	= 000000	#2-69       35-1510    181-7280
FTHELP	= 000000	#2-70       174-7034
FTKLE 	= 000001	#2-77       159-6542   163-6671   223-8620
FTKLER	= 000000	#2-71
FTKLI 	= ******	 69-2942    69-2953    74-3303    77-3418
FTLCMN	= 000001  G	 1-1        33-1409   #262-10131
PAROOT     CREATED BY  MACRO  ON 3-APR-86 AT 22:53	PAGE 13

SYMBOL CROSS REFERENCE                                  CREF

SYMBOL	VALUE		REFERENCES

FTLCVT	= 000000	#2-72       42-1877    224-8676
FTLIST	= 000001	#2-73
FTTRAK	= 000001	#2-74       13-490     35-1591    94-4063    99-4239    106-4502   108-4597   111-4699   190-7513
                         193-7580   213-8249   215-8343   218-8424
FTTRP4	= 000001	#2-75
FTUCVR	= 000130	#2-76
FT1105	= 000001	#2-64      #2-101
FT1110	= 000001	#2-63      #2-97       2-100
FT1115	= 000001	#2-62      #2-93       2-96
FT1120	= 000001	#2-61      #2-89       2-92
FT1135	= 000001	#2-60      #2-85       2-88
FT1140	= 000001	#2-59       2-84       3-110
FT1145	= 000000	#2-58       2-80
FULMSG	  001530 RG	 185-7416  #185-7416   185-7416
FWDTEN	= 000360 RG	#108-4628
FWFERM	  004001 R	#191-7527   191-7527
FWRFWF	  004560 R	 108-4588  #108-4606
FWRMSG	  000453 RG	 174-7028  #174-7028   174-7028
FWTERM	  001652 R	#181-7307   181-7307
FW.APE	= 000116	#16-628
FW.CA1	= 000122	#16-644     126-5266   134-5588   141-5861   155-6394
FW.CA2	= 000124	#16-646     126-5259   134-5590   141-5860   155-6396
FW.CDR	= 000112	#15-600
FW.CHN	= 000160	#17-676     128-5319
FW.CRD	= 000126	#16-648     155-6391
FW.CR1	= 000136	#16-656
FW.CR2	= 000134	#16-654
FW.CR3	= 000132	#16-652
FW.CR4	= 000130	#16-650     155-6374
FW.CSR	= 000110	#15-576     124-5192
FW.DJE	= 000146	#17-665
FW.DJO	= 000150	#17-667
FW.DR1	= 000140	#17-659
FW.DR2	= 000142	#17-661
FW.DR3	= 000144	#17-663
FW.EBL	= 000174	#17-684     141-5863
FW.IAC	= 000154	#17-671
FW.IOJ	= 000152	#17-669
FW.IPE	= 000114	#16-615     124-5198
FW.KLO	= 000156	#17-673     141-5862
FW.LAR	= 000176	#17-687     116-4928   120-5085   154-6306
FW.LBL	= 000106	#15-574     122-5132   141-5859
FW.LBR	= 000104	#15-572     122-5123   141-5858
FW.MBX	= 000162	#17-678     141-5866
FW.SBR	= 000174	#17-685
FW.040	= 000100	#15-569
FW.041	= 000102	#15-570
FW.042	= 000104	#15-571     15-572
FW.043	= 000106	#15-573     15-574
FW.044	= 000110	#15-575     15-576     108-4591
FW.045	= 000112	#15-599     15-600
FW.046	= 000114	#16-614     16-615
PAROOT     CREATED BY  MACRO  ON 3-APR-86 AT 22:53	PAGE 14

SYMBOL CROSS REFERENCE                                  CREF

SYMBOL	VALUE		REFERENCES

FW.047	= 000116	#16-627     16-628     108-4593
FW.050	= 000120	#16-642
FW.051	= 000122	#16-643     16-644
FW.052	= 000124	#16-645     16-646
FW.053	= 000126	#16-647     16-648
FW.054	= 000130	#16-649     16-650
FW.055	= 000132	#16-651     16-652
FW.056	= 000134	#16-653     16-654
FW.057	= 000136	#16-655     16-656
FW.060	= 000140	#17-658     17-659
FW.061	= 000142	#17-660     17-661
FW.062	= 000144	#17-662     17-663
FW.063	= 000146	#17-664     17-665
FW.064	= 000150	#17-666     17-667
FW.065	= 000152	#17-668     17-669
FW.066	= 000154	#17-670     17-671
FW.067	= 000156	#17-672     17-673
FW.070	= 000160	#17-675     17-676
FW.071	= 000162	#17-677     17-678
FW.072	= 000164	#17-679
FW.073	= 000166	#17-680
FW.074	= 000170	#17-681
FW.075	= 000172	#17-682
FW.076	= 000174	#17-683     17-684     17-685
FW.077	= 000176	#17-686     17-687
FXCFXF	  004730 R	 110-4664  #111-4707
FXCMSG	  000462 RG	 174-7030  #174-7030   174-7030
FXDTEN	= 000372 RG	#111-4730
FXFERM	  004027 R	#191-7528   191-7528
FX.BMC	= 000012	#14-529     88-3873
FX.CMR	= 000014	#14-531     128-5336
FX.CON	= 000024	#14-540     113-4783   119-5027   120-5087
FX.CRF	= 000020	#14-536     90-3947    110-4690
FX.CSP	= 000000	#14-519
FX.CST	= 000002	#14-521     110-4667   147-6065
FX.EBC	= 000006	#14-525     134-5570
FX.MBC	= 000004	#14-523     97-4160    128-5331
FX.SMR	= 000016	#14-533     110-4669   127-5305
FX.SRF	= 000022	#14-538     110-4684   150-6158
FX.SYC	= 000010	#14-527     153-6263
FX.UDR	= 000032	#14-545
FX.UIR	= 000030	#14-543
FX.000	= 000000	#14-518     14-519
FX.001	= 000002	#14-520     14-521
FX.002	= 000004	#14-522     14-523
FX.003	= 000006	#14-524     14-525
FX.004	= 000010	#14-526     14-527
FX.005	= 000012	#14-528     14-529
FX.006	= 000014	#14-530     14-531
FX.007	= 000016	#14-532     14-533
FX.010	= 000020	#14-535     14-536
FX.011	= 000022	#14-537     14-538
PAROOT     CREATED BY  MACRO  ON 3-APR-86 AT 22:53	PAGE 15

SYMBOL CROSS REFERENCE                                  CREF

SYMBOL	VALUE		REFERENCES

FX.012	= 000024	#14-539     14-540
FX.013	= 000026	#14-541
FX.014	= 000030	#14-542     14-543
FX.015	= 000032	#14-544     14-545
FX.016	= 000034	#14-546
FX.017	= 000036	#14-547
FX.020	= 000040	#14-549
FX.021	= 000042	#14-550
FX.022	= 000044	#14-551
FX.023	= 000046	#14-552
FX.024	= 000050	#14-553
FX.025	= 000052	#14-554
FX.026	= 000054	#14-555
FX.027	= 000056	#14-556
FX.030	= 000060	#14-558
FX.031	= 000062	#14-559
FX.032	= 000064	#14-560
FX.033	= 000066	#14-561
FX.034	= 000070	#14-562
FX.035	= 000072	#14-563
FX.036	= 000074	#14-564
FX.037	= 000076	#14-565
GETSTS	= 000062	#26-1029
GTFILC	  014264 R	 236-9201  #236-9212
GTKKLA	  013274 R	 227-8813   227-8815  #227-8817
GTLCBO	  013130 R	 224-8665  #224-8697
GTLILC	  013136 R	 223-8653   224-8679  #224-8700
GTNILI	  013700 R	 230-8943   230-8957   230-8975  #230-8979
GTNMRA	  014526 R	 239-9312  #239-9314
GTNNER	  013506 R	 228-8851   228-8861  #229-8902   230-8959
GTNNOR	  014534 R	 225-8754   229-8900   238-9292   238-9298  #239-9317
GTNORE	  013502 R	 228-8865   228-8867  #229-8899   230-8962   230-8964
HARMSG	  001773 RG	 193-7560  #193-7560   193-7560
HIBYTE	= 177400	#87-3838
HLFMSG	  001535 RG	 185-7418  #185-7418   185-7418
HLL   	= 000500	#26-1031
HLLE  	= 000530	#26-1032
HLLEI 	= 000531	#26-1033
HLLEM 	= 000532	#26-1034
HLLES 	= 000533	#26-1035
HLLI  	= 000501	#26-1037
HLLM  	= 000502	#26-1038
HLLO  	= 000520	#26-1040
HLLOI 	= 000521	#26-1041
HLLOM 	= 000522	#26-1042
HLLOS 	= 000523	#26-1043
HLLS  	= 000503	#26-1045
HLLZ  	= 000510	#26-1047
HLLZI 	= 000511	#26-1048
HLLZM 	= 000512	#26-1049
HLLZS 	= 000513	#26-1050
HLR   	= 000544	#26-1052
PAROOT     CREATED BY  MACRO  ON 3-APR-86 AT 22:53	PAGE 16

SYMBOL CROSS REFERENCE                                  CREF

SYMBOL	VALUE		REFERENCES

HLRE  	= 000574	#26-1054
HLREI 	= 000575	#26-1055
HLREM 	= 000576	#26-1056
HLRES 	= 000577	#26-1057
HLRO  	= 000564	#26-1059
HLROI 	= 000565	#26-1060
HLROM 	= 000566	#26-1061
HLROS 	= 000567	#26-1062
HLRS  	= 000547	#26-1064
HLRZ  	= 000554	#26-1066
HLRZI 	= 000555	#26-1067
HLRZM 	= 000556	#26-1068
HLRZS 	= 000557	#26-1069
HLTMSG	  000467 RG	 174-7032  #174-7032   174-7032
HRL   	= 000504	#27-1071
HRLE  	= 000534	#27-1073
HRLEI 	= 000535	#27-1074
HRLEM 	= 000536	#27-1075
HRLES 	= 000537	#27-1076
HRLI  	= 000505	#27-1078
HRLM  	= 000506	#27-1079
HRLO  	= 000564	#27-1081
HRLOI 	= 000565	#27-1082
HRLOM 	= 000566	#27-1083
HRLOS 	= 000567	#27-1084
HRLS  	= 000507	#27-1086
HRLZ  	= 000514	#27-1088
HRLZI 	= 000515	#27-1089
HRLZM 	= 000516	#27-1090
HRLZS 	= 000517	#27-1091
HRR   	= 000540	#27-1093
HRRE  	= 000570	#27-1095
HRREI 	= 000571	#27-1096
HRREM 	= 000572	#27-1097
HRRES 	= 000573	#27-1098
HRRI  	= 000541	#27-1100
HRRM  	= 000542	#27-1101
HRRO  	= 000560	#27-1103
HRROI 	= 000561	#27-1104
HRROM 	= 000562	#27-1105
HRROS 	= 000563	#27-1106
HRRS  	= 000543	#27-1108
HRRZ  	= 000550	#27-1110
HRRZI 	= 000551	#27-1111
HRRZM 	= 000552	#27-1112
HRRZS 	= 000553	#27-1113
I     	= 000000	#117-4985   117-4985
IBP   	= 000133	#28-1115
IDFERM	  001703 R	#181-7309   181-7309
IDIV  	= 000230	#28-1117
IDIVB 	= 000233	#28-1118
IDIVI 	= 000231	#28-1119
PAROOT     CREATED BY  MACRO  ON 3-APR-86 AT 22:53	PAGE 17

SYMBOL CROSS REFERENCE                                  CREF

SYMBOL	VALUE		REFERENCES

IDIVM 	= 000232	#28-1120
IDPB  	= 000136	#28-1122
IE.EBX	= ******  GX	 100-4284
IE.EOF	= ******  GX	 85-3792
IE.NSF	= ******  GX	 71-3141
IFCERM	  001735 R	#181-7310   181-7310
IFLOP 	= 100000	#87-3838
ILCERM	  004057 R	#191-7530   191-7530
ILDB  	= 000134	#28-1124
ILIERM	  001771 R	#181-7311   181-7311
ILSERM	  004111 R	#191-7531   191-7531
IMUL  	= 000220	#28-1126
IMULB 	= 000223	#28-1127
IMULI 	= 000221	#28-1128
IMULM 	= 000222	#28-1129
IN    	= 000056	#28-1131
INBUF 	= 000064	#28-1132
INCMSG	  000736 RG	 175-7094  #175-7094   175-7094   176-7115   176-7115   177-7130   177-7130   178-7203   178-7203
                         190-7493   190-7493   193-7562   193-7562
INDLUN	= 000005	#21-823     77-3460    80-3574    80-3586    160-6584
INIMSG	  000474 RG	 174-7038  #174-7038   174-7038   184-7389   184-7389
INIT  	= 000041	#28-1133
INPUT 	= 000066	#28-1134
INTMSG	  001510 RG	 185-7412  #185-7412   185-7412
INTROF	= 000010	#87-3838
INTRON	= 000040	#87-3838
INTSON	= 000001	#87-3838
INT10S	= 000400	#87-3838
INT11C	= 002000	#87-3838
INT11S	= 004000	#87-3838
IOCERM	  002015 R	#181-7312   181-7312
IOMSG 	  001432 RG	 184-7391  #184-7391   184-7391
IOR   	= 000434	#28-1136    29-1204
IORB  	= 000437	#28-1137    29-1205
IORI  	= 000435	#28-1138    30-1222
IORM  	= 000436	#28-1139    30-1223
IOTAB 	  007276 R	 230-8941   230-8949  #230-8985
IO.ATT	= ******  GX	 260-10120
IO.CRE	= ******  GX	 72-3203
IO.DAC	= ******  GX	 75-3346
IO.DEL	= ******  GX	 72-3209    75-3342
IO.DET	= ******  GX	 160-6594   260-10125
IO.ENA	= ******  GX	 72-3206
IO.EXT	= ******  GX	 74-3313
IO.FNA	= ******  GX	 70-3092    71-3131
IO.RLB	= ******  GX	 224-8708
IO.RNA	= ******  GX	 71-3128
IO.RVB	= ******  GX	 80-3574
IO.WLB	= ******  GX	 260-10102  260-10111
IO.WVB	= ******  GX	 85-3783
IPCERM	  004155 R	#191-7532   191-7532
IP.ALL	= 000017	#16-625
PAROOT     CREATED BY  MACRO  ON 3-APR-86 AT 22:53	PAGE 18

SYMBOL CROSS REFERENCE                                  CREF

SYMBOL	VALUE		REFERENCES

IP.CRP	= 000004	#16-621     16-624     131-5451
IP.DRP	= 000002	#16-622     16-624     131-5458
IP.FMP	= 000010	#16-620     16-624     131-5444
IP.FSS	= 000001	#16-623     16-625     131-5466
IP.NRM	= 000016	#16-624     16-625     16-640
IRCERM	  002045 R	#181-7313   181-7313
IREERM	  002100 R	#181-7314   181-7314
IS.SET	= ******  GX	 50-2218
ITFERM	  002130 R	#181-7315   181-7315
ITNERM	  002162 R	#181-7316   181-7316
JANMSG	  001244 RG	 180-7235  #180-7235   180-7235
JFCL  	= 000255	#28-1141
JFFO  	= 000243	#28-1143
JMPMSG	  000507 RG	 174-7040  #174-7040   174-7040
JRA   	= 000267	#28-1145
JRST  	= 000254	#28-1147
JSA   	= 000266	#28-1149
JSP   	= 000265	#28-1151
JSR   	= 000264	#28-1153
JSYS  	= 000104	#28-1155
JULMSG	  001312 RG	 180-7247  #180-7247   180-7247
JUMP  	= 000320	#28-1157
JUMPA 	= 000324	#28-1158
JUMPE 	= 000322	#28-1159
JUMPG 	= 000327	#28-1160
JUMPGE	= 000325	#28-1161
JUMPL 	= 000321	#28-1162
JUMPLE	= 000323	#28-1163
JUMPN 	= 000326	#28-1164
JUNMSG	  001305 RG	 180-7245  #180-7245   180-7245
KCNERM	  002212 R	#181-7318   181-7318
KF.BRM	= 001000	#13-482     119-5021
KF.CES	= 000100	#13-485     47-2113    128-5338
KF.CLK	= 100000	#13-476     47-2111    54-2354    101-4314   101-4318   103-4393   104-4438   104-4444   108-4595
                         110-4666   113-4785   113-4791   117-4959   119-5024   119-5039   119-5041   163-6683
KF.CON	= 000200	#13-484     13-486     47-2111    113-4793   128-5338
KF.DEF	= 000200	#13-486
KF.KLO	= 000400	#13-483
KF.MRS	= 020000	#13-478     127-5307   128-5338
KF.RUN	= 040000	#13-477     47-2111    54-2354    103-4393   104-4438   104-4448   110-4683   113-4791   119-5024
                         119-5035   119-5044   146-6031   148-6093   163-6685
KF.SIM	= 010000	#13-479     113-4779   119-5021
KF.SMC	= 004000	#13-480
KF.SPM	= 002000	#13-481     113-4777   119-5021
KLABIN	  007336 RG	 247-9622  #250-9727
KLAERM	  002240 R	#181-7319   181-7319
KLAOCT	  007362 RG	 247-9626  #250-9744
KLEPRM	  000034 RG	#39-1736    163-6672
KLHCFH	  005156 R	#115-4885
KLIMSG	  001661 RG	 190-7495  #190-7495   190-7495   193-7564   193-7564
KLIOT 	= 000700	#28-1166
KLMSG 	  001124 RG	 178-7184  #178-7184   178-7184
PAROOT     CREATED BY  MACRO  ON 3-APR-86 AT 22:53	PAGE 19

SYMBOL CROSS REFERENCE                                  CREF

SYMBOL	VALUE		REFERENCES

KLNBIN	  007326 RG	 248-9661  #250-9722
KLNOCT	  007356 RG	 248-9665  #250-9740
KLP   	= 000574	#7-248      117-4985   117-4985
KLPSTP	  005274 RG	#117-4987
KLPWRF	= 000010	#87-3838
KLRERM	  002265 R	#181-7320   181-7320
KLSCFH	  005266 R	 117-4977  #117-4980
KNCERM	  002327 R	#181-7321   181-7321
KWEERM	  002363 R	#181-7322   181-7322
LDB   	= 000135	#29-1168
LG.ALL	= 000007	#22-867     174-7022   178-7162   178-7184   179-7216   179-7216   179-7218   179-7220   179-7225
                         179-7227   180-7235   180-7237   180-7239   180-7241   180-7243   180-7245   180-7247   180-7249
                         180-7251   180-7253   180-7255   180-7257   190-7495   193-7556   193-7558   193-7564
LG.ARG	= 000010	#22-860
LG.MAR	= 000020	#22-861
LG.MNT	= 000004	#22-859     22-867     54-2351    174-7026   174-7028   174-7030   174-7044   174-7059   174-7063
                         174-7073   174-7077   182-7365   183-7372   183-7374   185-7402   185-7404   185-7406   185-7408
                         185-7410   185-7412   185-7414   185-7416   185-7418   185-7420   185-7422   189-7462   189-7464
                         189-7466   189-7468   189-7470   189-7472   189-7474   190-7481   190-7483   190-7491   190-7505
                         190-7511   193-7550   193-7578
LG.MOD	= 000040	#22-862
LG.NUL	= 000000	#22-856
LG.OPR	= 000001	#22-857     22-866     174-7012   174-7014   174-7016   174-7024   174-7040   174-7042   174-7046
                         174-7048   174-7050   174-7053   174-7055   174-7061   174-7065   174-7067   174-7069   174-7075
                         174-7079   174-7081   175-7092   175-7094   175-7096   175-7098   175-7100   176-7113   176-7115
                         176-7117   176-7119   176-7121   177-7128   177-7130   177-7132   177-7134   177-7136   178-7178
                         178-7190   178-7201   178-7203   178-7205   178-7207   178-7209   179-7218   186-7429   186-7431
                         187-7438   187-7440   187-7442   187-7444   188-7451   188-7453   188-7455   190-7485   190-7493
                         190-7497   190-7499   190-7503   190-7509   193-7554   193-7560   193-7562   193-7566   193-7570
                         193-7576   193-7584
LG.PRG	= 000002	#22-858     22-866     54-2344    174-7018   174-7020   174-7032   174-7038   174-7057   174-7071
                         174-7083   174-7085   176-7107   176-7109   176-7111   178-7143   178-7145   178-7147   178-7149
                         178-7151   178-7153   178-7155   178-7158   178-7160   178-7166   178-7168   178-7170   178-7172
                         178-7174   178-7176   178-7180   178-7182   178-7186   178-7188   178-7192   178-7193   178-7195
                         178-7197   178-7199   184-7381   184-7383   184-7385   184-7387   184-7389   184-7391   184-7393
                         184-7395   190-7487   190-7489   190-7501   190-7507   190-7511   190-7514   192-7541   192-7543
                         193-7552   193-7568   193-7572   193-7574   193-7578   193-7581
LG.PRM	= 000003	#22-866     22-867     179-7220
LG.RNG	= 000100	#22-863
LG.RPT	= 000400	#22-865     159-6526   174-7012   174-7016   174-7018   174-7020   174-7024   174-7026   174-7028
                         174-7030   174-7032   174-7038   174-7050   174-7057   174-7065   174-7071   174-7073   174-7083
                         175-7092   175-7094   175-7096   175-7098   175-7100   176-7107   176-7109   176-7111   176-7113
                         176-7115   176-7117   176-7119   176-7121   177-7128   177-7130   177-7132   177-7134   177-7136
                         178-7143   178-7145   178-7147   178-7149   178-7151   178-7153   178-7155   178-7158   178-7160
                         178-7162   178-7166   178-7168   178-7170   178-7172   178-7174   178-7176   178-7178   178-7180
                         178-7182   178-7184   178-7186   178-7188   178-7190   178-7192   178-7193   178-7195   178-7197
                         178-7199   178-7201   178-7203   178-7205   178-7207   178-7209   184-7381   184-7383   184-7385
                         184-7387   184-7389   184-7391   184-7393   184-7395   185-7402   185-7404   185-7406   185-7408
                         185-7410   185-7412   185-7414   185-7416   185-7418   185-7420   185-7422   190-7483   190-7491
                         190-7499   190-7505   192-7541   192-7543   193-7552   193-7556   193-7572
LG.STR	= 000200	#22-864
LOAD11	= 000004	#87-3838
PAROOT     CREATED BY  MACRO  ON 3-APR-86 AT 22:53	PAGE 20

SYMBOL CROSS REFERENCE                                  CREF

SYMBOL	VALUE		REFERENCES

LOGLUN	= 000004	#21-822     72-3203    72-3206    72-3209    74-3302    74-3313    85-3783    160-6592
LOGMSG	  001557 RG	 188-7451  #188-7451   188-7451
LOKFLF	  001656 R	 71-3137    71-3142   #71-3148
LOKFNA	  000040 R	 71-3136   #71-3154    71-3157    71-3158    71-3159
LOKFNB	= 000066 R	*71-3135   #71-3159
LOKIOF	= 000042 R	*71-3128   *71-3131   #71-3157
LOKLUN	= 000044 R	*71-3134   #71-3158
LOOKUP	= 000076	#29-1170
LPTMSG	  001563 RG	 188-7453  #188-7453   188-7453
LSH   	= 000242	#29-1172
LSHC  	= 000246	#29-1173
LSTLUN	= 000003	#21-821     260-10111
MAP   	= 000257	#29-1175
MARMSG	  001265 RG	 180-7239  #180-7239   180-7239
MAYMSG	  001301 RG	 180-7243  #180-7243   180-7243
MBZTAB	  004212 R	 93-4029   #94-4082
MCRMSG	  000535 RG	 174-7046  #174-7046   174-7046
MEMMSG	  001670 RG	 190-7497  #190-7497   190-7497   193-7566   193-7566
MGNMSG	  001521 RG	 185-7414  #185-7414   185-7414
MMSG  	  000514 RG	 174-7042  #174-7042   174-7042
MNTMSG	  001170 RG	 179-7216  #179-7216   179-7216   187-7438   187-7438
MOVE  	= 000200	#29-1177
MOVEI 	= 000201	#29-1178
MOVEM 	= 000202	#29-1179
MOVES 	= 000203	#29-1180
MOVM  	= 000214	#29-1182
MOVMI 	= 000215	#29-1183
MOVMM 	= 000216	#29-1184
MOVMS 	= 000217	#29-1185
MOVN  	= 000210	#29-1187
MOVNI 	= 000211	#29-1188
MOVNM 	= 000212	#29-1189
MOVNS 	= 000213	#29-1190
MOVS  	= 000204	#29-1192
MOVSI 	= 000205	#29-1193
MOVSM 	= 000206	#29-1194
MOVSS 	= 000207	#29-1195
MPE11 	= 001000	#87-3838
MQMSG 	  001043 RG	 178-7160  #178-7160   178-7160
MRAERM	  002415 R	#181-7324   181-7324
MRHERM	  002455 R	#181-7325   181-7325
MRKMSG	  000516 RG	 174-7044  #174-7044   174-7044
MUL   	= 000224	#29-1197
MULB  	= 000227	#29-1198
MULI  	= 000225	#29-1199
MULM  	= 000226	#29-1200
M.KTAE	= 000010	#91-3972
M.KTEF	= 000002	#91-3972
M.KTMG	= 000004	#91-3972
M.KTUN	= 000006	#91-3972
M.PARQ	= ******  GX	 160-6596
NDIERM	  002521 R	#181-7327   181-7327
PAROOT     CREATED BY  MACRO  ON 3-APR-86 AT 22:53	PAGE 21

SYMBOL CROSS REFERENCE                                  CREF

SYMBOL	VALUE		REFERENCES

NEBMSG	  000122 R	 62-2660   #63-2682
NERERM	  002551 R	#181-7328   181-7328
NORERM	  002613 R	#181-7329   181-7329
NOTMSG	  001677 RG	 190-7499  #190-7499   190-7499
NOVMSG	  001350 RG	 180-7255  #180-7255   180-7255
NPIERM	  002653 R	#181-7330   181-7330
NRMMSG	  001441 RG	 185-7402  #185-7402   185-7402
NSFERM	  002707 R	#181-7331   181-7331
NSKERM	  004220 R	#191-7534   191-7534
NSTERM	  002732 R	#181-7332   181-7332
NTIERM	  002755 R	#181-7333   181-7333
NULMSG	  000364 RG	 174-7012  #174-7012   174-7012
NULSTP	= 000040	#87-3838
NUPE  	= 000002	#87-3838
NXTMSG	  000750 RG	 175-7096  #175-7096   175-7096   176-7117   176-7117   177-7132   177-7132   178-7205   178-7205
OAIERM	  003005 R	#181-7335   181-7335
OCTMSG	  001340 RG	 180-7253  #180-7253   180-7253
OFCERM	  003035 R	#181-7336   181-7336
OFFMSG	  000044 RG	#39-1740
OFSMSG	  001703 RG	 190-7501  #190-7501   190-7501   193-7568   193-7568
ONMSG 	  000041 RG	#39-1738
OPEACC	  000160 R	 73-3242   #73-3252    73-3255    73-3256    73-3257
OPEATT	= 000210 R	*73-3240   *73-3241   #73-3264
OPEFID	= 000174 R	*73-3239   #73-3257
OPEFOF	  001776 R	 73-3243   #73-3246
OPEFUN	= 000162 R	*73-3237   #73-3255
OPELUN	= 000164 R	*73-3238   #73-3256
OPEN  	= 000050	#29-1202
OPERAT	  000206 R	 73-3253   #73-3259    73-3264
OPRMSG	  001204 RG	 179-7218  #179-7218   179-7218   187-7440   187-7440
OR    	= 000434	#29-1204
ORB   	= 000437	#29-1205
ORCA  	= 000454	#29-1207
ORCAB 	= 000457	#29-1208
ORCAI 	= 000455	#29-1209
ORCAM 	= 000456	#29-1210
ORCB  	= 000470	#30-1212
ORCBB 	= 000473	#30-1213
ORCBI 	= 000471	#30-1214
ORCBM 	= 000472	#30-1215
ORCM  	= 000464	#30-1217
ORCMB 	= 000467	#30-1218
ORCMI 	= 000465	#30-1219
ORCMM 	= 000466	#30-1220
ORI   	= 000435	#30-1222
ORM   	= 000436	#30-1223
OUT   	= 000057	#30-1225
OUTBUF	= 000065	#30-1226
OUTMSG	  001712 RG	 190-7503  #190-7503   190-7503   193-7570   193-7570
OUTPUT	= 000067	#30-1227
PAG   	= 000010	#7-246
PAGMSG	  001435 RG	 184-7393  #184-7393   184-7393
PAROOT     CREATED BY  MACRO  ON 3-APR-86 AT 22:53	PAGE 22

SYMBOL CROSS REFERENCE                                  CREF

SYMBOL	VALUE		REFERENCES

PARERC	  000662 R	 58-2537    58-2537    59-2549    59-2549    59-2560    59-2560    60-2585    60-2585   #61-2604
                         61-2620    61-2620    62-2641    62-2641
PARERX	  000506 R	#58-2538    59-2571    60-2593    62-2664
PARMSG	  000011 RG	#39-1730    61-2605
PARNAM	  000021 RG	 35-1485   #39-1732    156-6439   158-6512   163-6668
PARUEC	  000734 R	 58-2530   #61-2617
PAR$$E	= 000050	#1-50       39-1729
PAR$$K	= 000126	#1-54       39-1729
PAR$$V	= 000015	#1-49       39-1729
PCMSG 	  001046 RG	 178-7162  #178-7162   178-7162
PC.AFI	= 000020	#13-510
PC.AT0	= 000004	#13-512
PC.AT1	= 000010	#13-511
PC.BIS	= 000400	#13-506
PC.CY0	= 004000	#13-503
PC.CY1	= 002000	#13-504
PC.FOV	= 001000	#13-505
PC.FUF	= 000002	#13-513
PC.LIP	= 000040	#13-509
PC.NDV	= 000001	#13-514
PC.OVF	= 010000	#13-502
PC.UIO	= 000100	#13-508
PC.USR	= 000200	#13-507
PERCLR	= 001000	#87-3838
PE.ALL	= 000037	#9-338
PE.CES	= 000001	#9-333      9-338
PE.CRM	= 000004	#9-335      9-338
PE.DRM	= 000002	#9-334      9-338
PE.FMP	= 000010	#9-336      9-338
PE.FSS	= 000020	#9-337      9-338
PHYS  	= 100000	#87-3838
PI    	= 000004	#7-245
PIDENT	= 000000	#87-3838
PIMSG 	  001127 RG	 178-7186  #178-7186   178-7186   184-7395   184-7395
POP   	= 000262	#30-1229
POPJ  	= 000263	#30-1230
PRGMSG	  001215 RG	 179-7220  #179-7220   179-7220   187-7442   187-7442
PRI7  	= 000340	#87-3838
PRMFM 	  002306 R	*244-9462   244-9463  #244-9494
PROMPT	  000030 RG	#39-1734    163-6680
PROPNT	= 000021	#87-3838
PRTOFF	= 004000	#87-3838
PRVMSG	  000755 RG	 175-7098  #175-7098   175-7098   176-7119   176-7119   177-7134   177-7134   178-7207   178-7207
PR0   	= 000000	#87-3838
PR1   	= 000040	#87-3838
PR2   	= 000100	#87-3838
PR3   	= 000140	#87-3838
PR4   	= 000200	#87-3838
PR5   	= 000240	#87-3838
PR6   	= 000300	#87-3838
PR7   	= 000340	#87-3838
PS    	= 177776	#87-3838    160-6597  *160-6597  *160-6602
PAROOT     CREATED BY  MACRO  ON 3-APR-86 AT 22:53	PAGE 23

SYMBOL CROSS REFERENCE                                  CREF

SYMBOL	VALUE		REFERENCES

PSTMSG	  001721 RG	 190-7505  #190-7505   190-7505   193-7572   193-7572
PSWW1 	= 000005	#87-3838
PSWW10	= 000014	#87-3838
PSWW11	= 000015	#87-3838
PSWW12	= 000016	#87-3838
PSWW13	= 000017	#87-3838
PSWW2 	= 000006	#87-3838
PSWW3 	= 000007	#87-3838
PSWW4 	= 000010	#87-3838
PSWW5 	= 000011	#87-3838
PSWW6 	= 000012	#87-3838
PSWW7 	= 000013	#87-3838
PS.NRM	= 001416	#16-640     143-5955
PTLERM	  003065 R	#181-7338   181-7338
PTOATM	  000270 R	 68-2875   #68-2894
PTRTEM	  000151 R	 64-2715   #67-2837
PTRTHM	  000221 R	 67-2822   #67-2839
PULSE 	= 000020	#87-3838
PUSH  	= 000261	#30-1232
PUSHJ 	= 000260	#30-1233
QRESMS	  000552 RG	 174-7053  #174-7053   174-7053
QSAVMS	  000560 RG	 174-7055  #174-7055   174-7055
QSIZE 	= 000023	#87-3838
QTRMSG	  001542 RG	 185-7420  #185-7420   185-7420
QUTMSG	  000701 RG	 174-7079  #174-7079   174-7079
Q.BYCT	= 000016	#21-814     224-8711   260-10105  260-10114
Q.IBUF	= 000014	#21-812
Q.IOAE	= 000012	#70-3092   #71-3155   #72-3203   #72-3206   #72-3209   #73-3253   #74-3313   #75-3366   #224-8708
                        #260-10102 #260-10111 #260-10120 #260-10125
Q.IOEF	= 000006	#70-3092   #71-3155   #72-3203   #72-3206   #72-3209   #73-3253   #74-3313   #75-3366   #224-8708
                        #260-10102 #260-10111 #260-10120 #260-10125
Q.IOFN	= 000002	#70-3092   #71-3155    71-3157   #72-3203   #72-3206   #72-3209   #73-3253    73-3255   #74-3313
                        #75-3366    75-3368   #224-8708  #260-10102 #260-10111 #260-10120 #260-10125
Q.IOLU	= 000004	#70-3092    70-3094   #71-3155    71-3158   #72-3203   #72-3206   #72-3209   #73-3253    73-3256
                        #74-3313   #75-3366    75-3369   #224-8708  #260-10102 #260-10111 #260-10120 #260-10125
Q.IOPL	= 000014	#21-811     21-812     21-813     21-814     21-815    #70-3092    70-3095   #71-3155    71-3159
                        #72-3203   #72-3206   #72-3209   #73-3253    73-3257   #74-3313   #75-3366    75-3370   #224-8708
                         224-8710  #260-10102  260-10104 #260-10111  260-10113 #260-10120 #260-10125
Q.IOPR	= 000007	#70-3092   #71-3155   #72-3203   #72-3206   #72-3209   #73-3253   #74-3313   #75-3366   #224-8708
                        #260-10102 #260-10111 #260-10120 #260-10125
Q.IOSB	= 000010	#70-3092   #71-3155   #72-3203   #72-3206   #72-3209   #73-3253   #74-3313   #75-3366   #224-8708
                        #260-10102 #260-10111 #260-10120 #260-10125
Q.OBUF	= 000014	#21-813
Q.OVFC	= 000020	#21-815     260-10106  260-10115
Q0    	  000126 RG	#35-1528
Q1    	  000134 RG	#35-1529
Q2    	  000142 RG	#35-1530
Q3    	  000150 RG	#35-1531
RAMIS0	= 010000	#87-3838
RDCPT1	  004270 R	 129-5371  #131-5436
RDCPT2	  004250 R	 130-5390  #130-5417
RDCPT3	  004260 R	 129-5372   130-5387  #130-5425
PAROOT     CREATED BY  MACRO  ON 3-APR-86 AT 22:53	PAGE 24

SYMBOL CROSS REFERENCE                                  CREF

SYMBOL	VALUE		REFERENCES

RDCRME	  006504 R	 134-5568  #134-5595
REAFRD	  002570 R	 80-3575    80-3577   #80-3584
REGMSG	  001132 RG	 178-7188  #178-7188   178-7188
REGTAB	  007240 R	 216-8351  #217-8374
RELEAS	= 000071	#30-1235
REMMSG	  001230 RG	 179-7225  #179-7225   179-7225
RENAME	= 000055	#30-1236
REPIRC	  011122 R	 172-6943  #172-6949
RESETT	  004334 R	 141-5831  #141-5857
RESMSG	  000566 RG	 174-7057  #174-7057   174-7057
RFMAD0	= 100000	#87-3838
RFMAD1	= 040000	#87-3838
RFMAD2	= 020000	#87-3838
RFMAD3	= 010000	#87-3838
RGDTEN	= 000310 RG	#95-4112
RLDMSG	  001735 RG	 190-7507  #190-7507   190-7507   193-7574   193-7574
RM    	= 000010	#87-3838
RMSG  	  000541 RG	 174-7048  #174-7048   174-7048
ROT   	= 000241	#30-1238
ROTC  	= 000245	#30-1239
RPMERM	  003115 R	#181-7340   181-7340
RPTMSG	  000543 RG	 174-7050  #174-7050   174-7050   190-7509   190-7509   193-7576   193-7576
RSTEND	= 004342 R	 141-5843  #141-5864
RSTMSG	  000574 RG	 174-7059  #174-7059   174-7059
RTYMSG	  001744 RG	 190-7511  #190-7511   190-7511   193-7578   193-7578
RUNMSG	  000604 RG	 174-7061  #174-7061   174-7061
SAVMSG	  000610 RG	 174-7063  #174-7063   174-7063
SBRMSG	  001161 RG	 178-7197  #178-7197   178-7197
SCD   	= 000040	#87-3838
SCFERM	  003155 R	#181-7342   181-7342
SCRMSG	  001165 RG	 178-7199  #178-7199   178-7199
SEPMSG	  001326 RG	 180-7251  #180-7251   180-7251
SETA  	= 000424	#30-1241
SETAB 	= 000427	#30-1242
SETAI 	= 000425	#30-1243
SETAM 	= 000426	#30-1244
SETCA 	= 000450	#30-1246
SETCAB	= 000453	#30-1247
SETCAI	= 000451	#30-1248
SETCAM	= 000452	#30-1249
SETCM 	= 000460	#30-1251
SETCMB	= 000463	#30-1252
SETCMI	= 000461	#30-1253
SETCMM	= 000462	#30-1254
SETM  	= 000414	#31-1256
SETMB 	= 000417	#31-1257
SETMI 	= 000415	#31-1258
SETMM 	= 000416	#31-1259
SETMSG	  000615 RG	 174-7065  #174-7065   174-7065
SETO  	= 000474	#31-1261
SETOB 	= 000477	#31-1262
SETOI 	= 000475	#31-1263
PAROOT     CREATED BY  MACRO  ON 3-APR-86 AT 22:53	PAGE 25

SYMBOL CROSS REFERENCE                                  CREF

SYMBOL	VALUE		REFERENCES

SETOM 	= 000476	#31-1264
SETSTS	= 000060	#31-1266
SETZ  	= 000400	#31-1268
SETZB 	= 000403	#31-1269
SETZI 	= 000401	#31-1270
SETZM 	= 000402	#31-1271
SHOMSG	  000621 RG	 174-7067  #174-7067   174-7067
SHUMSG	  000626 RG	 174-7069  #174-7069   174-7069
SKIERM	  003204 R	#181-7343   181-7343
SKIP  	= 000330	#31-1273
SKIPA 	= 000334	#31-1274
SKIPE 	= 000332	#31-1275
SKIPG 	= 000337	#31-1276
SKIPGE	= 000335	#31-1277
SKIPL 	= 000331	#31-1278
SKIPLE	= 000333	#31-1279
SKIPN 	= 000336	#31-1280
SLOMSG	  001552 RG	 185-7422  #185-7422   185-7422
SOJ   	= 000360	#31-1282
SOJA  	= 000364	#31-1283
SOJE  	= 000362	#31-1284
SOJG  	= 000367	#31-1285
SOJGE 	= 000365	#31-1286
SOJL  	= 000361	#31-1287
SOJLE 	= 000363	#31-1288
SOJN  	= 000366	#31-1289
SOS   	= 000370	#31-1291
SOSA  	= 000374	#31-1292
SOSE  	= 000372	#31-1293
SOSG  	= 000377	#31-1294
SOSGE 	= 000375	#31-1295
SOSL  	= 000371	#31-1296
SOSLE 	= 000373	#31-1297
SOSN  	= 000376	#31-1298
SPCEST	  001646 R	 62-2645   #62-2669
SPCMSG	  001403 RG	 183-7372  #183-7372   183-7372
SPFERM	  003261 R	#181-7344   181-7344
SSTLEN	= 000010  G	#36-1666
SSTTBE	= 000334 RG	#36-1667    64-2712
STAMSG	  002124 R	 217-8377  #217-8388
STAT  	= 174434	#87-3838
STATO 	= 000061	#31-1300
STATUS	= 000022	#31-1301   #87-3838
STATZ 	= 000063	#31-1302
STPCI 	  004242 R	#117-4984   117-4989
STRMSG	  000637 RG	 174-7071  #174-7071   174-7071
STSW1 	= ******  GX	*160-6599
STUCAE	  007454 R	 152-6209  #152-6230
STUUNL	  007462 R	 152-6227  #152-6233
ST.CED	= 000100	#12-455     12-470
ST.CLE	= 000001	#12-468     12-470
ST.CTD	= 040000	#12-440
PAROOT     CREATED BY  MACRO  ON 3-APR-86 AT 22:53	PAGE 26

SYMBOL CROSS REFERENCE                                  CREF

SYMBOL	VALUE		REFERENCES

ST.CTE	= 010000	#12-444     12-470
ST.DW1	= 002000	#12-447
ST.DXD	= 000004	#12-463
ST.EBS	= 000100	#12-454
ST.EDB	= 004000	#12-445
ST.EPE	= 000020	#12-458     12-470     56-2422
ST.IDS	= 000010	#12-462
ST.IEN	= 000040	#12-457
ST.ION	= 000001	#12-467
ST.MBZ	= 000000	#12-472     94-4085
ST.MOD	= 000010	#12-460
ST.MPE	= 001000	#12-448     12-470
ST.NST	= 000040	#12-456
ST.RIZ	= 010000	#12-443
ST.RST	= 011121	#12-470
ST.SEP	= 000004	#12-464
ST.STE	= 000002	#12-466
ST.TED	= 000200	#12-452
ST.TER	= 000002	#12-465
ST.TXD	= 100000	#12-438
ST.TXE	= 020000	#12-441
ST.XDB	= 000400	#12-450
SUB   	= 000274	#32-1304
SUBB  	= 000277	#32-1305
SUBI  	= 000275	#32-1306
SUBM  	= 000276	#32-1307
SWPMSG	  000645 RG	 174-7073  #174-7073   174-7073
SWR   	= 177570	#87-3838
SWSLLT	= 100000	#87-3838
SXCT  	= 000106	#32-1309
SZIERM	  003311 R	#181-7345   181-7345
TAAERM	  003345 R	#181-7347   181-7347
TAKMSG	  000653 RG	 174-7075  #174-7075   174-7075
TC.CON	= 000377	#22-874
TC.CTC	= 000002	#22-871     50-2222    66-2795
TC.ERR	= 000000	#22-873     47-2118    49-2189    49-2192    51-2260    54-2366    56-2428    70-3079    70-3081
                         71-3149    72-3197    73-3247    74-3307    75-3360    80-3589    85-3798    88-3877    94-4075
                         97-4177    101-4315   101-4319   101-4322   101-4325   104-4455   106-4510   108-4607   111-4708
                         115-4886   117-4981   134-5596   152-6231   152-6234   155-6401   159-6551   167-6804   167-6807
                         167-6810   172-6950   199-7760   224-8698   224-8701   227-8818   229-8903   230-8980   236-9213
                         237-9253   239-9315   239-9318
TC.RST	= 000001	#22-872
TDC   	= 000650	#32-1311
TDCA  	= 000654	#32-1312
TDCE  	= 000652	#32-1313
TDCN  	= 000656	#32-1314
TDMSG0	  000345 R	 166-6782  #167-6815
TDN   	= 000610	#32-1316
TDNA  	= 000614	#32-1317
TDNE  	= 000612	#32-1318
TDNN  	= 000616	#32-1319
TDO   	= 000670	#32-1321
PAROOT     CREATED BY  MACRO  ON 3-APR-86 AT 22:53	PAGE 27

SYMBOL CROSS REFERENCE                                  CREF

SYMBOL	VALUE		REFERENCES

TDOA  	= 000674	#32-1322
TDOE  	= 000672	#32-1323
TDON  	= 000676	#32-1324
TDZ   	= 000630	#32-1326
TDZA  	= 000634	#32-1327
TDZE  	= 000632	#32-1328
TDZN  	= 000636	#32-1329
TENAD1	= 174410	#87-3838
TENAD2	= 174412	#87-3838
TENMSG	  001005 RG	 176-7111  #176-7111   176-7111   178-7190   178-7190   186-7431   186-7431   192-7541   192-7541
TFRMSG	  002014 R	 213-8257  #214-8302
TFWMSG	  002031 R	 213-8264  #214-8304
TFXMSG	  002046 R	 213-8271  #214-8306
THSMSG	  000766 RG	 175-7100  #175-7100   175-7100   176-7121   176-7121   177-7136   177-7136   178-7209   178-7209
TLC   	= 000641	#32-1331
TLCA  	= 000645	#32-1332
TLCE  	= 000643	#32-1333
TLCN  	= 000647	#32-1334
TLN   	= 000601	#32-1336
TLNA  	= 000605	#32-1337
TLNE  	= 000603	#32-1338
TLNN  	= 000607	#32-1339
TLO   	= 000661	#32-1341
TLOA  	= 000665	#32-1342
TLOE  	= 000663	#32-1343
TLON  	= 000667	#32-1344
TLZ   	= 000621	#32-1346
TLZA  	= 000625	#32-1347
TLZE  	= 000623	#32-1348
TLZN  	= 000627	#32-1349
TOBM  	= 000004	#87-3838
TOIP  	= 000002	#87-3838
TOIT  	= 000001	#87-3838
TORERM	  003402 R	#181-7348   181-7348
TO10  	= 000200	#87-3838
TO10AD	= 174420	#87-3838
TO10BC	= 174414	#87-3838
TO10BM	= 000001	#87-3838
TO10DB	= 000400	#87-3838
TO10DN	= 100000	#87-3838
TO10DT	= 174424	#87-3838
TO10ER	= 020000	#87-3838
TO11  	= 000100	#87-3838
TO11AD	= 174422	#87-3838
TO11BC	= 174416	#87-3838
TO11BM	= 020000	#87-3838
TO11DB	= 004000	#87-3838
TO11DN	= 000200	#87-3838
TO11DT	= 174426	#87-3838
TO11ER	= 000002	#87-3838
TPDDCK	  011364 R	 198-7711  #199-7759
TPDDVD	  007232 R	#197-7698   198-7726
PAROOT     CREATED BY  MACRO  ON 3-APR-86 AT 22:53	PAGE 28

SYMBOL CROSS REFERENCE                                  CREF

SYMBOL	VALUE		REFERENCES

TPDDVS	  007224 R	#197-7696   198-7725
TPDRMN	  007216 R	#197-7694   198-7714   198-7724   199-7752
TRADDR	  007250 R	 219-8445   219-8456  #220-8477
TRC   	= 000640	#32-1351
TRCA  	= 000644	#32-1352
TRCE  	= 000642	#32-1353
TRCN  	= 000646	#32-1354
TRDATA	  007256 R	 219-8450   219-8460  #220-8479
TRKMSG	  001752 RG	 190-7514  #190-7514   190-7514   193-7581   193-7581
TRN   	= 000600	#33-1356
TRNA  	= 000604	#33-1357
TRNE  	= 000602	#33-1358
TRNN  	= 000606	#33-1359
TRO   	= 000660	#33-1361
TROA  	= 000664	#33-1362
TROE  	= 000662	#33-1363
TRON  	= 000666	#33-1364
TRZ   	= 000620	#33-1366
TRZA  	= 000624	#33-1367
TRZE  	= 000622	#33-1368
TRZN  	= 000626	#33-1369
TR.ALL	= 000077	#13-497
TR.DEP	= 000020	#13-495     13-497     99-4256
TR.DTE	= 000040	#13-496     13-497     94-4064
TR.EXM	= 000010	#13-494     13-497     99-4240
TR.FRD	= 000002	#13-492     13-497     106-4503
TR.FWR	= 000004	#13-493     13-497     108-4598
TR.FXC	= 000001	#13-491     13-497     111-4700
TSC   	= 000651	#33-1371
TSCA  	= 000655	#33-1372
TSCAMB	  010746 R	 165-6756  #167-6802
TSCE  	= 000653	#33-1373
TSCN  	= 000657	#33-1374
TSCNSK	  010760 R	 165-6765  #167-6806
TSCWRM	  010766 R	 165-6768  #167-6809
TSN   	= 000611	#33-1376
TSNA  	= 000615	#33-1377
TSNE  	= 000613	#33-1378
TSNN  	= 000617	#33-1379
TSO   	= 000671	#33-1381
TSOA  	= 000675	#33-1382
TSOE  	= 000673	#33-1383
TSON  	= 000677	#33-1384
TSZ   	= 000631	#33-1386
TSZA  	= 000635	#33-1387
TSZE  	= 000633	#33-1388
TSZN  	= 000637	#33-1389
TTCALL	= 000051	#33-1391
TTYMSG	  001567 RG	 188-7455  #188-7455   188-7455
TT.OUT	= ******  GX	 160-6599
TYODIE	  015766 R	 257-9992   257-9994   257-9996   257-9998   257-10005  257-10007 #258-10027
UBRMSG	  001144 RG	 178-7192  #178-7192   178-7192
PAROOT     CREATED BY  MACRO  ON 3-APR-86 AT 22:53	PAGE 29

SYMBOL CROSS REFERENCE                                  CREF

SYMBOL	VALUE		REFERENCES

UCDMSG	  001761 RG	 192-7543  #192-7543   192-7543
UECMSG	  000060 R	 61-2631   #61-2635
UECMSP	  001644 R	 61-2619   #61-2630
UGETF 	= 000073	#33-1393
UJEN  	= 000100	#33-1395
UNASG1	= 000032	#87-3838
UNASG2	= 000033	#87-3838
UNASG3	= 000034	#87-3838
UNASG4	= 000035	#87-3838
UNASG5	= 000036	#87-3838
UNASG6	= 000037	#87-3838
UNLERM	  003432 R	#181-7350   181-7350
UNMMSG	  000660 RG	 174-7077  #174-7077   174-7077
USETI 	= 000074	#33-1397
USETO 	= 000075	#33-1398
USRMSG	  001237 RG	 179-7227  #179-7227   179-7227   187-7444   187-7444
VERMSG	  002004 RG	 193-7584  #193-7584   193-7584
VFYERM	  003470 R	#181-7352   181-7352
VF.DSP	= 000060	#21-829
VF.FFD	= 000061	#21-830
VF.INT	= 000000	#21-827     260-10102  260-10111
VF.OVR	= 000053	#21-831
VF.PRM	= 000044	#21-832
VF.SSP	= 000040	#21-828
VMAMSG	  001150 RG	 178-7193  #178-7193   178-7193
VMHMSG	  001154 RG	 178-7195  #178-7195   178-7195
WEP   	= 000010	#87-3838
WHAMSG	  000706 RG	 174-7081  #174-7081   174-7081
WRCRME	  007710 R	 155-6371  #155-6400
WRIFWT	  003326 R	 85-3784    85-3793   #85-3797
WRMERM	  003524 R	#181-7354   181-7354
XCT   	= 000256	#33-1400
XCTMSG	  000713 RG	 174-7083  #174-7083   174-7083
XOR   	= 000430	#33-1402
XORB  	= 000433	#33-1403
XORI  	= 000431	#33-1404
XORM  	= 000432	#33-1405
XR    	= 000000	#117-4985   117-4985
XTOERM	  003635 R	#181-7358   181-7358
YORERM	  003605 R	#181-7356   181-7356
ZERMSG	  000717 RG	 174-7085  #174-7085   174-7085
ZSTOP 	= 040000	#87-3838
$DIV  	= ******  GX	 259-10059  259-10059
$DSW  	= ******  GX	 50-2218    100-4284
$$    	= 000037	#47-2102    47-2102   #47-2108    47-2108   #48-2145    48-2145   #51-2253    51-2253   #53-2313
                         53-2313   #56-2421    56-2421   #58-2537    58-2537   #59-2549    59-2549   #59-2554    59-2554
                        #59-2560    59-2560   #59-2564    59-2564   #59-2567    59-2567   #59-2570    59-2570   #60-2585
                         60-2585   #60-2590    60-2590   #60-2592    60-2592   #61-2606    61-2606   #61-2608    61-2608
                        #61-2610    61-2610   #61-2612    61-2612   #61-2613    61-2613   #61-2620    61-2620   #61-2622
                         61-2622   #62-2641    62-2641   #62-2642    62-2642   #62-2650    62-2650   #62-2651    62-2651
                        #62-2652    62-2652   #62-2661    62-2661   #64-2714    64-2714   #64-2716    64-2716   #64-2718
                         64-2718   #64-2719    64-2719   #66-2785    66-2785   #66-2791    66-2791   #66-2805    66-2805
PAROOT     CREATED BY  MACRO  ON 3-APR-86 AT 22:53	PAGE 30

SYMBOL CROSS REFERENCE                                  CREF

SYMBOL	VALUE		REFERENCES

                        #66-2807    66-2807   #67-2823    67-2823   #67-2824    67-2824   #67-2830    67-2830   #68-2871
                         68-2871   #68-2874    68-2874   #68-2876    68-2876   #68-2878    68-2878   #68-2879    68-2879
                        #68-2884    68-2884   #71-3132    71-3132   #71-3133    71-3133   #74-3306    74-3306   #77-3446
                         77-3446   #77-3452    77-3452   #77-3461    77-3461   #77-3463    77-3463   #78-3506    78-3506
                        #79-3539    79-3539   #80-3588    80-3588   #81-3636    81-3636   #81-3640    81-3640   #82-3680
                         82-3680   #83-3711    83-3711   #84-3749    84-3749   #84-3753    84-3753   #84-3755    84-3755
                        #85-3794    85-3794   #88-3868    88-3868   #88-3872    88-3872   #89-3905    89-3905   #89-3915
                         89-3915   #90-3948    90-3948   #97-4156    97-4156   #97-4161    97-4161   #97-4163    97-4163
                        #99-4233    99-4233   #99-4242    99-4242   #99-4249    99-4249   #99-4258    99-4258   #100-4288
                         100-4288  #100-4291   100-4291  #103-4397   103-4397  #103-4399   103-4399  #104-4416   104-4416
                        #104-4418   104-4418  #104-4419   104-4419  #104-4424   104-4424  #104-4427   104-4427  #104-4440
                         104-4440  #104-4446   104-4446  #104-4450   104-4450  #106-4505   106-4505  #108-4600   108-4600
                        #111-4702   111-4702  #113-4781   113-4781  #113-4784   113-4784  #113-4787   113-4787  #114-4836
                         114-4836  #114-4841   114-4841  #115-4849   115-4849  #115-4860   115-4860  #115-4873   115-4873
                        #115-4877   115-4877  #115-4878   115-4878  #116-4926   116-4926  #116-4929   116-4929  #117-4966
                         117-4966  #117-4968   117-4968  #117-4990   117-4990  #119-5026   119-5026  #119-5028   119-5028
                        #119-5037   119-5037  #119-5043   119-5043  #120-5084   120-5084  #120-5086   120-5086  #122-5116
                         122-5116  #122-5119   122-5119  #122-5125   122-5125  #122-5128   122-5128  #122-5133   122-5133
                        #124-5190   124-5190  #124-5196   124-5196  #124-5202   124-5202  #124-5206   124-5206  #124-5211
                         124-5211  #126-5249   126-5249  #126-5251   126-5251  #126-5257   126-5257  #126-5260   126-5260
                        #126-5264   126-5264  #126-5267   126-5267  #127-5306   127-5306  #127-5308   127-5308  #128-5317
                         128-5317  #128-5318   128-5318  #128-5320   128-5320  #128-5325   128-5325  #128-5332   128-5332
                        #128-5335   128-5335  #128-5337   128-5337  #129-5368   129-5368  #129-5376   129-5376  #132-5498
                         132-5498  #132-5500   132-5500  #134-5569   134-5569  #134-5571   134-5571  #134-5579   134-5579
                        #134-5584   134-5584  #134-5586   134-5586  #134-5589   134-5589  #134-5591   134-5591  #135-5626
                         135-5626  #135-5628   135-5628  #136-5665   136-5665  #136-5667   136-5667  #136-5672   136-5672
                        #137-5705   137-5705  #137-5709   137-5709  #138-5738   138-5738  #138-5741   138-5741  #139-5773
                         139-5773  #139-5782   139-5782  #141-5830   141-5830  #141-5832   141-5832  #141-5835   141-5835
                        #141-5836   141-5836  #141-5837   141-5837  #141-5838   141-5838  #141-5842   141-5842  #141-5847
                         141-5847  #142-5899   142-5899  #143-5949   143-5949  #143-5954   143-5954  #145-5992   145-5992
                        #145-5993   145-5993  #145-5996   145-5996  #145-5998   145-5998  #145-6002   145-6002  #146-6033
                         146-6033  #147-6062   147-6062  #147-6066   147-6066  #148-6096   148-6096  #150-6160   150-6160
                        #152-6211   152-6211  #152-6212   152-6212  #152-6214   152-6214  #152-6215   152-6215  #152-6218
                         152-6218  #153-6264   153-6264  #154-6302   154-6302  #154-6304   154-6304  #154-6307   154-6307
                        #155-6376   155-6376  #155-6384   155-6384  #155-6389   155-6389  #155-6392   155-6392  #155-6393
                         155-6393  #155-6395   155-6395  #155-6397   155-6397  #158-6513   158-6513  #159-6522   159-6522
                        #159-6524   159-6524  #159-6532   159-6532  #159-6533   159-6533  #159-6547   159-6547  #160-6586
                         160-6586  #160-6590   160-6590  #160-6593   160-6593  #160-6601   160-6601  #162-6657   162-6657
                        #163-6669   163-6669  #163-6677   163-6677  #163-6681   163-6681  #163-6693   163-6693  #163-6695
                         163-6695  #163-6698   163-6698  #165-6736   165-6736  #165-6737   165-6737  #165-6747   165-6747
                        #166-6777   166-6777  #166-6779   166-6779  #166-6781   166-6781  #166-6783   166-6783  #166-6791
                         166-6791  #166-6792   166-6792  #172-6940   172-6940  #172-6942   172-6942  #172-6944   172-6944
                        #172-6946   172-6946  #198-7707   198-7707  #198-7709   198-7709  #198-7710   198-7710  #199-7739
                         199-7739  #199-7741   199-7741  #199-7744   199-7744  #200-7804   200-7804  #207-8029   207-8029
                        #207-8032   207-8032  #207-8035   207-8035  #207-8053   207-8053  #207-8060   207-8060  #210-8161
                         210-8161  #210-8162   210-8162  #211-8174   211-8174  #211-8176   211-8176  #211-8177   211-8177
                        #211-8185   211-8185  #211-8187   211-8187  #211-8188   211-8188  #214-8281   214-8281  #214-8286
                         214-8286  #214-8289   214-8289  #214-8290   214-8290  #214-8291   214-8291  #214-8293   214-8293
                        #216-8349   216-8349  #216-8352   216-8352  #216-8353   216-8353  #216-8362   216-8362  #216-8368
                         216-8368  #218-8429   218-8429  #218-8434   218-8434  #219-8455   219-8455  #219-8457   219-8457
                        #219-8458   219-8458  #219-8459   219-8459  #219-8461   219-8461  #219-8462   219-8462  #219-8469
                         219-8469  #222-8573   222-8573  #222-8579   222-8579  #223-8624   223-8624  #223-8633   223-8633
PAROOT     CREATED BY  MACRO  ON 3-APR-86 AT 22:53	PAGE 31

SYMBOL CROSS REFERENCE                                  CREF

SYMBOL	VALUE		REFERENCES

                        #223-8638   223-8638  #223-8647   223-8647  #223-8648   223-8648  #226-8782   226-8782  #226-8783
                         226-8783  #227-8811   227-8811  #228-8849   228-8849  #228-8852   228-8852  #228-8853   228-8853
                        #228-8855   228-8855  #228-8857   228-8857  #228-8860   228-8860  #228-8862   228-8862  #229-8875
                         229-8875  #229-8882   229-8882  #229-8883   229-8883  #229-8884   229-8884  #230-8945   230-8945
                        #230-8958   230-8958  #230-8960   230-8960  #231-9034   231-9034  #232-9061   232-9061  #232-9064
                         232-9064  #233-9094   233-9094  #234-9129   234-9129  #234-9132   234-9132  #235-9172   235-9172
                        #236-9200   236-9200  #237-9231   237-9231  #237-9236   237-9236  #237-9237   237-9237  #237-9242
                         237-9242  #237-9245   237-9245  #237-9250   237-9250  #238-9293   238-9293  #238-9296   238-9296
                        #243-9419   243-9419  #244-9464   244-9464  #244-9472   244-9472  #244-9473   244-9473  #244-9477
                         244-9477  #244-9478   244-9478  #244-9479   244-9479  #244-9481   244-9481  #244-9482   244-9482
                        #249-9708   249-9708  #249-9713   249-9713  #251-9788   251-9788  #252-9810   252-9810  #252-9813
                         252-9813  #252-9815   252-9815  #253-9858   253-9858  #253-9862   253-9862  #253-9871   253-9871
                        #254-9900   254-9900  #256-9953   256-9953  #256-9955   256-9955  #257-10013  257-10013 #259-10059
                         259-10059 #259-10066  259-10066
$$A   	= 000000	#117-4985   117-4985
$$B   	= 000000	#117-4985   117-4985
$$C   	= 000002	#117-4985   117-4985
$$D   	= 000176	#117-4985   117-4985
$$E   	= 000017	#117-4985   117-4985
$$F   	= 000000	#117-4985   117-4985
$$PASS	= 000000	 174-7012   174-7014   174-7016   174-7018   174-7020   174-7022   174-7024   174-7026   174-7028
                         174-7030   174-7032   174-7038   174-7040   174-7042   174-7044   174-7046   174-7048   174-7050
                         174-7053   174-7055   174-7057   174-7059   174-7061   174-7063   174-7065   174-7067   174-7069
                         174-7071   174-7073   174-7075   174-7077   174-7079   174-7081   174-7083   174-7085   175-7092
                         175-7094   175-7096   175-7098   175-7100   176-7107   176-7109   176-7111   176-7113   176-7115
                         176-7117   176-7119   176-7121   177-7128   177-7130   177-7132   177-7134   177-7136   178-7143
                         178-7145   178-7147   178-7149   178-7151   178-7153   178-7155   178-7158   178-7160   178-7162
                         178-7166   178-7168   178-7170   178-7172   178-7174   178-7176   178-7178   178-7180   178-7182
                         178-7184   178-7186   178-7188   178-7190   178-7192   178-7193   178-7195   178-7197   178-7199
                         178-7201   178-7203   178-7205   178-7207   178-7209   179-7216   179-7218   179-7220   179-7225
                         179-7227   180-7235   180-7237   180-7239   180-7241   180-7243   180-7245   180-7247   180-7249
                         180-7251   180-7253   180-7255   180-7257   182-7365   183-7372   183-7374   184-7381   184-7383
                         184-7385   184-7387   184-7389   184-7391   184-7393   184-7395   185-7402   185-7404   185-7406
                         185-7408   185-7410   185-7412   185-7414   185-7416   185-7418   185-7420   185-7422   186-7429
                         186-7431   187-7438   187-7440   187-7442   187-7444   188-7451   188-7453   188-7455   189-7462
                         189-7464   189-7466   189-7468   189-7470   189-7472   189-7474   190-7481   190-7483   190-7485
                         190-7487   190-7489   190-7491   190-7493   190-7495   190-7497   190-7499   190-7501   190-7503
                         190-7505   190-7507   190-7509   190-7511   190-7514   192-7541   192-7543   193-7550   193-7552
                         193-7554   193-7556   193-7558   193-7560   193-7562   193-7564   193-7566   193-7568   193-7570
                         193-7572   193-7574   193-7576   193-7578   193-7581   193-7584  #193-7589
$$$AB 	= 000001	 178-7166  #178-7166   178-7166
$$$ABO	= 000001	 174-7014  #174-7014   174-7014
$$$ACB	= 000004	 182-7365  #182-7365   182-7365   183-7374  #183-7374   183-7374   190-7481  #190-7481   190-7481
                         193-7550  #193-7550   193-7550
$$$AD 	= 000001	 178-7143  #178-7143   178-7143
$$$ADX	= 000001	 178-7145  #178-7145   178-7145
$$$ALL	= 000002	 184-7381  #184-7381   184-7381   189-7462  #189-7462   189-7462
$$$APR	= 000001	 180-7241  #180-7241   180-7241
$$$AR 	= 000003	 176-7107  #176-7107   176-7107   178-7147  #178-7147   178-7147   189-7464  #189-7464   189-7464
$$$ARG	= 000006	#70-3087    70-3087   #70-3087    70-3087   #70-3087    70-3087   #70-3092    70-3092   #70-3092
                         70-3092   #70-3092    70-3092   #70-3092    70-3092   #70-3092    70-3092   #70-3092    70-3092
                        #70-3092    70-3092   #71-3155    71-3155   #71-3155    71-3155   #71-3155    71-3155   #71-3155
PAROOT     CREATED BY  MACRO  ON 3-APR-86 AT 22:53	PAGE 32

SYMBOL CROSS REFERENCE                                  CREF

SYMBOL	VALUE		REFERENCES

                         71-3155   #71-3155    71-3155   #71-3155    71-3155   #71-3155    71-3155   #72-3203    72-3203
                        #72-3203    72-3203   #72-3203    72-3203   #72-3203    72-3203   #72-3203    72-3203   #72-3206
                         72-3206   #72-3206    72-3206   #72-3206    72-3206   #72-3206    72-3206   #72-3206    72-3206
                        #72-3206    72-3206   #72-3206    72-3206   #72-3209    72-3209   #73-3253    73-3253   #73-3253
                         73-3253   #73-3253    73-3253   #73-3253    73-3253   #73-3253    73-3253   #73-3253    73-3253
                        #74-3313    74-3313   #74-3313    74-3313   #74-3313    74-3313   #74-3313    74-3313   #74-3313
                         74-3313   #75-3366    75-3366   #75-3366    75-3366   #75-3366    75-3366   #80-3574    80-3574
                         80-3574    80-3574    80-3574    80-3574    80-3574    80-3574    80-3574    80-3574    80-3574
                         80-3574   #85-3783    85-3783    85-3783    85-3783    85-3783    85-3783    85-3783    85-3783
                         85-3783    85-3783    85-3783    85-3783   #160-6594   160-6594   160-6594   160-6594   160-6594
                         160-6594   160-6594   160-6594   160-6594   160-6594   160-6594   160-6594  #224-8708   224-8708
                        #224-8708   224-8708  #224-8708   224-8708  #260-10102  260-10102 #260-10102  260-10102 #260-10102
                         260-10102 #260-10102  260-10102 #260-10111  260-10111 #260-10111  260-10111 #260-10111  260-10111
                        #260-10111  260-10111 #260-10120  260-10120 #260-10125  260-10125
$$$ARX	= 000001	 178-7149  #178-7149   178-7149
$$$AUG	= 000001	 180-7249  #180-7249   180-7249
$$$BR 	= 000001	 178-7151  #178-7151   178-7151
$$$BRX	= 000001	 178-7153  #178-7153   178-7153
$$$CLK	= 000002	 190-7483  #190-7483   190-7483   193-7552  #193-7552   193-7552
$$$CLR	= 000001	 174-7016  #174-7016   174-7016
$$$CNT	= 000001	 174-7018  #174-7018   174-7018
$$$CON	= 000002	 190-7485  #190-7485   190-7485   193-7554  #193-7554   193-7554
$$$CPU	= 000001	 184-7383  #184-7383   184-7383
$$$CRA	= 000001	 178-7168  #178-7168   178-7168
$$$CRL	= 000001	 178-7170  #178-7170   178-7170
$$$CRM	= 000002	 185-7404  #185-7404   185-7404   189-7466  #189-7466   189-7466
$$$CTL	= 000001	 185-7408  #185-7408   185-7408
$$$DAT	= 000002	 190-7487  #190-7487   190-7487   193-7556  #193-7556   193-7556
$$$DCR	= 000004	 175-7092  #175-7092   175-7092   176-7113  #176-7113   176-7113   177-7128  #177-7128   177-7128
                         178-7201  #178-7201   178-7201
$$$DEC	= 000001	 180-7257  #180-7257   180-7257
$$$DEP	= 000001	 174-7020  #174-7020   174-7020
$$$DIS	= 000001	 174-7022  #174-7022   174-7022
$$$DPT	= 000001	 185-7406  #185-7406   185-7406
$$$DRA	= 000001	 178-7172  #178-7172   178-7172
$$$DRM	= 000001	 189-7468  #189-7468   189-7468
$$$DTE	= 000002	 178-7174  #178-7174   178-7174   184-7385  #184-7385   184-7385
$$$EBR	= 000001	 178-7176  #178-7176   178-7176
$$$EBS	= 000001	 178-7155  #178-7155   178-7155
$$$ELE	= 000003	 176-7109  #176-7109   176-7109   178-7178  #178-7178   178-7178   186-7429  #186-7429   186-7429
$$$ENB	= 000001	 189-7470  #189-7470   189-7470
$$$ERR	= 000001	 184-7387  #184-7387   184-7387
$$$EXA	= 000001	 174-7024  #174-7024   174-7024
$$$EXT	= 000001	 185-7410  #185-7410   185-7410
$$$FEB	= 000001	 180-7237  #180-7237   180-7237
$$$FER	= 000001	 178-7180  #178-7180   178-7180
$$$FLG	= 000001	 178-7182  #178-7182   178-7182
$$$FLT	= 000002	 190-7489  #190-7489   190-7489   193-7558  #193-7558   193-7558
$$$FM 	= 000002	 178-7158  #178-7158   178-7158   189-7472  #189-7472   189-7472
$$$FRD	= 000001	 174-7026  #174-7026   174-7026
$$$FSS	= 000002	 189-7474  #189-7474   189-7474   190-7491  #190-7491   190-7491
$$$FUL	= 000001	 185-7416  #185-7416   185-7416
PAROOT     CREATED BY  MACRO  ON 3-APR-86 AT 22:53	PAGE 33

SYMBOL CROSS REFERENCE                                  CREF

SYMBOL	VALUE		REFERENCES

$$$FWR	= 000001	 174-7028  #174-7028   174-7028
$$$FXC	= 000001	 174-7030  #174-7030   174-7030
$$$GLB	= ******	 70-3087    70-3087    70-3087    70-3087    70-3092    70-3092    70-3092    70-3092    70-3092
                         70-3092    70-3092    70-3092    71-3155    71-3155    71-3155    71-3155    71-3155    71-3155
                         71-3155    71-3155    72-3203    72-3203    72-3203    72-3203    72-3203    72-3203    72-3203
                         72-3203    72-3206    72-3206    72-3206    72-3206    72-3206    72-3206    72-3206    72-3206
                         72-3209    72-3209    72-3209    72-3209    72-3209    72-3209    72-3209    72-3209    73-3253
                         73-3253    73-3253    73-3253    73-3253    73-3253    73-3253    73-3253    74-3313    74-3313
                         74-3313    74-3313    74-3313    74-3313    74-3313    74-3313    75-3366    75-3366    75-3366
                         75-3366    75-3366    75-3366    75-3366    75-3366    91-3972    91-3972    91-3972    91-3972
                         91-3972    224-8708   224-8708   224-8708   224-8708   224-8708   224-8708   224-8708   224-8708
                         260-10102  260-10102  260-10102  260-10102  260-10102  260-10102  260-10102  260-10102  260-10111
                         260-10111  260-10111  260-10111  260-10111  260-10111  260-10111  260-10111  260-10120  260-10120
                         260-10120  260-10120  260-10120  260-10120  260-10120  260-10120  260-10125  260-10125  260-10125
                         260-10125  260-10125  260-10125  260-10125  260-10125
$$$HAR	= 000001	 193-7560  #193-7560   193-7560
$$$HLF	= 000001	 185-7418  #185-7418   185-7418
$$$HLT	= 000001	 174-7032  #174-7032   174-7032
$$$INC	= 000006	 175-7094  #175-7094   175-7094   176-7115  #176-7115   176-7115   177-7130  #177-7130   177-7130
                         178-7203  #178-7203   178-7203   190-7493  #190-7493   190-7493   193-7562  #193-7562   193-7562
$$$INI	= 000002	 174-7038  #174-7038   174-7038   184-7389  #184-7389   184-7389
$$$INT	= 000001	 185-7412  #185-7412   185-7412
$$$IO 	= 000001	 184-7391  #184-7391   184-7391
$$$JAN	= 000001	 180-7235  #180-7235   180-7235
$$$JMP	= 000001	 174-7040  #174-7040   174-7040
$$$JUL	= 000001	 180-7247  #180-7247   180-7247
$$$JUN	= 000001	 180-7245  #180-7245   180-7245
$$$KL 	= 000001	 178-7184  #178-7184   178-7184
$$$KLI	= 000002	 190-7495  #190-7495   190-7495   193-7564  #193-7564   193-7564
$$$LOG	= 000001	 188-7451  #188-7451   188-7451
$$$LPT	= 000001	 188-7453  #188-7453   188-7453
$$$M  	= 000001	 174-7042  #174-7042   174-7042
$$$MAR	= 000001	 180-7239  #180-7239   180-7239
$$$MAY	= 000001	 180-7243  #180-7243   180-7243
$$$MCR	= 000001	 174-7046  #174-7046   174-7046
$$$MEM	= 000002	 190-7497  #190-7497   190-7497   193-7566  #193-7566   193-7566
$$$MGN	= 000001	 185-7414  #185-7414   185-7414
$$$MNT	= 000002	 179-7216  #179-7216   179-7216   187-7438  #187-7438   187-7438
$$$MQ 	= 000001	 178-7160  #178-7160   178-7160
$$$MRK	= 000001	 174-7044  #174-7044   174-7044
$$$NOT	= 000001	 190-7499  #190-7499   190-7499
$$$NOV	= 000001	 180-7255  #180-7255   180-7255
$$$NRM	= 000001	 185-7402  #185-7402   185-7402
$$$NUL	= 000001	 174-7012  #174-7012   174-7012
$$$NXT	= 000004	 175-7096  #175-7096   175-7096   176-7117  #176-7117   176-7117   177-7132  #177-7132   177-7132
                         178-7205  #178-7205   178-7205
$$$OCT	= 000001	 180-7253  #180-7253   180-7253
$$$OFS	= 000002	 190-7501  #190-7501   190-7501   193-7568  #193-7568   193-7568
$$$OPR	= 000002	 179-7218  #179-7218   179-7218   187-7440  #187-7440   187-7440
$$$OST	= 000014	#70-3087    70-3087    70-3087   #70-3087    70-3087    70-3087   #70-3087    70-3087    70-3087
                        #70-3087   #70-3092    70-3092    70-3092   #70-3092    70-3092    70-3092   #70-3092    70-3092
                         70-3092   #70-3092    70-3092    70-3092   #70-3092    70-3092    70-3092   #70-3092    70-3092
PAROOT     CREATED BY  MACRO  ON 3-APR-86 AT 22:53	PAGE 34

SYMBOL CROSS REFERENCE                                  CREF

SYMBOL	VALUE		REFERENCES

                         70-3092   #70-3092    70-3092   #71-3155    71-3155    71-3155   #71-3155    71-3155    71-3155
                        #71-3155    71-3155    71-3155   #71-3155    71-3155    71-3155   #71-3155    71-3155    71-3155
                        #71-3155    71-3155    71-3155   #71-3155    71-3155   #72-3203    72-3203    72-3203   #72-3203
                         72-3203    72-3203   #72-3203    72-3203    72-3203   #72-3203    72-3203    72-3203   #72-3203
                         72-3203    72-3203   #72-3203    72-3203    72-3203   #72-3203    72-3203   #72-3206    72-3206
                         72-3206   #72-3206    72-3206    72-3206   #72-3206    72-3206    72-3206   #72-3206    72-3206
                         72-3206   #72-3206    72-3206    72-3206   #72-3206    72-3206    72-3206   #72-3206    72-3206
                        #72-3209    72-3209    72-3209   #72-3209    72-3209    72-3209   #72-3209    72-3209    72-3209
                        #72-3209    72-3209    72-3209   #72-3209    72-3209    72-3209   #72-3209    72-3209    72-3209
                        #72-3209    72-3209   #73-3253    73-3253    73-3253   #73-3253    73-3253    73-3253   #73-3253
                         73-3253    73-3253   #73-3253    73-3253    73-3253   #73-3253    73-3253    73-3253   #73-3253
                         73-3253    73-3253   #73-3253    73-3253   #74-3313    74-3313    74-3313   #74-3313    74-3313
                         74-3313   #74-3313    74-3313    74-3313   #74-3313    74-3313    74-3313   #74-3313    74-3313
                         74-3313   #74-3313    74-3313    74-3313   #74-3313    74-3313   #75-3366    75-3366    75-3366
                        #75-3366    75-3366    75-3366   #75-3366    75-3366    75-3366   #75-3366    75-3366    75-3366
                        #75-3366    75-3366    75-3366   #75-3366    75-3366    75-3366   #75-3366    75-3366   #91-3972
                         91-3972    91-3972   #91-3972    91-3972    91-3972   #91-3972    91-3972    91-3972   #91-3972
                         91-3972    91-3972   #91-3972   #224-8708   224-8708   224-8708  #224-8708   224-8708   224-8708
                        #224-8708   224-8708   224-8708  #224-8708   224-8708   224-8708  #224-8708   224-8708   224-8708
                        #224-8708   224-8708   224-8708  #224-8708   224-8708  #260-10102  260-10102  260-10102 #260-10102
                         260-10102  260-10102 #260-10102  260-10102  260-10102 #260-10102  260-10102  260-10102 #260-10102
                         260-10102  260-10102 #260-10102  260-10102  260-10102 #260-10102  260-10102 #260-10111  260-10111
                         260-10111 #260-10111  260-10111  260-10111 #260-10111  260-10111  260-10111 #260-10111  260-10111
                         260-10111 #260-10111  260-10111  260-10111 #260-10111  260-10111  260-10111 #260-10111  260-10111
                        #260-10120  260-10120  260-10120 #260-10120  260-10120  260-10120 #260-10120  260-10120  260-10120
                        #260-10120  260-10120  260-10120 #260-10120  260-10120  260-10120 #260-10120  260-10120  260-10120
                        #260-10120  260-10120 #260-10125  260-10125  260-10125 #260-10125  260-10125  260-10125 #260-10125
                         260-10125  260-10125 #260-10125  260-10125  260-10125 #260-10125  260-10125  260-10125 #260-10125
                         260-10125  260-10125 #260-10125  260-10125
$$$OUT	= 000002	 190-7503  #190-7503   190-7503   193-7570  #193-7570   193-7570
$$$PAG	= 000001	 184-7393  #184-7393   184-7393
$$$PC 	= 000001	 178-7162  #178-7162   178-7162
$$$PI 	= 000002	 178-7186  #178-7186   178-7186   184-7395  #184-7395   184-7395
$$$PRG	= 000002	 179-7220  #179-7220   179-7220   187-7442  #187-7442   187-7442
$$$PRV	= 000004	 175-7098  #175-7098   175-7098   176-7119  #176-7119   176-7119   177-7134  #177-7134   177-7134
                         178-7207  #178-7207   178-7207
$$$PST	= 000002	 190-7505  #190-7505   190-7505   193-7572  #193-7572   193-7572
$$$QRE	= 000001	 174-7053  #174-7053   174-7053
$$$QSA	= 000001	 174-7055  #174-7055   174-7055
$$$QTR	= 000001	 185-7420  #185-7420   185-7420
$$$QUT	= 000001	 174-7079  #174-7079   174-7079
$$$R  	= 000001	 174-7048  #174-7048   174-7048
$$$REG	= 000001	 178-7188  #178-7188   178-7188
$$$REM	= 000001	 179-7225  #179-7225   179-7225
$$$RES	= 000001	 174-7057  #174-7057   174-7057
$$$RLD	= 000002	 190-7507  #190-7507   190-7507   193-7574  #193-7574   193-7574
$$$RPT	= 000003	 174-7050  #174-7050   174-7050   190-7509  #190-7509   190-7509   193-7576  #193-7576   193-7576
$$$RST	= 000001	 174-7059  #174-7059   174-7059
$$$RTY	= 000002	 190-7511  #190-7511   190-7511   193-7578  #193-7578   193-7578
$$$RUN	= 000001	 174-7061  #174-7061   174-7061
$$$SAV	= 000001	 174-7063  #174-7063   174-7063
$$$SBR	= 000001	 178-7197  #178-7197   178-7197
PAROOT     CREATED BY  MACRO  ON 3-APR-86 AT 22:53	PAGE 35

SYMBOL CROSS REFERENCE                                  CREF

SYMBOL	VALUE		REFERENCES

$$$SCR	= 000001	 178-7199  #178-7199   178-7199
$$$SEP	= 000001	 180-7251  #180-7251   180-7251
$$$SET	= 000001	 174-7065  #174-7065   174-7065
$$$SHO	= 000001	 174-7067  #174-7067   174-7067
$$$SHU	= 000001	 174-7069  #174-7069   174-7069
$$$SLO	= 000001	 185-7422  #185-7422   185-7422
$$$SPC	= 000001	 183-7372  #183-7372   183-7372
$$$STR	= 000001	 174-7071  #174-7071   174-7071
$$$SWP	= 000001	 174-7073  #174-7073   174-7073
$$$TAK	= 000001	 174-7075  #174-7075   174-7075
$$$TEN	= 000004	 176-7111  #176-7111   176-7111   178-7190  #178-7190   178-7190   186-7431  #186-7431   186-7431
                         192-7541  #192-7541   192-7541
$$$THS	= 000004	 175-7100  #175-7100   175-7100   176-7121  #176-7121   176-7121   177-7136  #177-7136   177-7136
                         178-7209  #178-7209   178-7209
$$$TRK	= 000002	 190-7514  #190-7514   190-7514   193-7581  #193-7581   193-7581
$$$TTY	= 000001	 188-7455  #188-7455   188-7455
$$$T1 	= 000006	#70-3087    70-3087    70-3087   #70-3087    70-3087    70-3087   #70-3087    70-3087    70-3087
                        #80-3574    80-3574   #85-3783    85-3783   #160-6594   160-6594
$$$UBR	= 000001	 178-7192  #178-7192   178-7192
$$$UCD	= 000001	 192-7543  #192-7543   192-7543
$$$UNM	= 000001	 174-7077  #174-7077   174-7077
$$$USR	= 000002	 179-7227  #179-7227   179-7227   187-7444  #187-7444   187-7444
$$$VER	= 000001	 193-7584  #193-7584   193-7584
$$$VMA	= 000001	 178-7193  #178-7193   178-7193
$$$VMH	= 000001	 178-7195  #178-7195   178-7195
$$$WHA	= 000001	 174-7081  #174-7081   174-7081
$$$XCT	= 000001	 174-7083  #174-7083   174-7083
$$$ZER	= 000001	 174-7085  #174-7085   174-7085
.ABRTC	= ******  GX	 174-7014
.ACBLK	  000000 RG	#35-1480
.APRWD	  000002 RG	#35-1482    35-1578
.ATCID	  000460 RG	 257-9991  #260-10119
.ATLMD	= 000033	#21-838
.BRCLK	= 005000	#87-3838
.BRMBC	  003334 RG	#88-3867
.BUFSZ	= 001000  G	#69-2951    69-2970    69-3007    80-3574    85-3783    85-3790
.BURST	  003340 RG	#88-3869    115-4877   115-4877
.CCMDN	  000004 RG	#35-1484    61-2609   *156-6439  *158-6512  *158-6515  *163-6668   166-6780
.CDIBC	= 000412 R	#224-8711
.CDIBP	= 000410 R	#224-8710
.CDINP	  000374 RG	 223-8640  #224-8707   224-8710   224-8711
.CDOBC	= 000432 RG	*223-8636   254-9902  *255-9938   257-10000 *258-10022 #260-10105
.CDOBP	= 000430 RG	*223-8635   257-9999  *258-10023 #260-10104
.CDOFC	= 000434 RG	#260-10106
.CDOUT	  000414 RG	 257-9993  #260-10101  260-10104  260-10105  260-10106
.CECLK	= 004000	#87-3838
.CESCK	  000000 RG	#47-2098    97-4156    97-4156    100-4288   100-4288   147-6062   147-6062   159-6547   159-6547
.CHTAB	  001502 RG	#40-1774    48-2146    48-2153    49-2183    51-2248    52-2285    53-2314    59-2552    169-6867
                         223-8654   238-9287
.CIBFL	= 000214  G	#38-1694    224-8708
.CIBFR	  000362 RG	#38-1692    38-1694    223-8617   223-8631   223-8635   223-8644   224-8708
.CISTS	  000006 RG	#35-1486    223-8625   223-8632   223-8636   223-8642   223-8645   223-8649   224-8708
PAROOT     CREATED BY  MACRO  ON 3-APR-86 AT 22:53	PAGE 36

SYMBOL CROSS REFERENCE                                  CREF

SYMBOL	VALUE		REFERENCES

.CKARG	  000070 RG	#48-2144    228-8853   228-8853   228-8860   228-8860   230-8958   230-8958   236-9200   236-9200
.CKCOL	  000130 RG	#49-2181
.CKCTC	  000166 RG	#50-2216    165-6736   165-6736
.CKEOC	  000214 RG	#51-2246    156-6440   166-6777   166-6777   172-6944   172-6944
.CKEOS	  000256 RG	#52-2283    229-8883   229-8883
.CKOBJ	  000300 RG	#53-2312
.CKRNP	  000316 RG	#54-2342
.CKRUN	  000326 RG	#54-2347
.CKSYM	  000374 RG	 48-2145    48-2145    51-2253    51-2253    53-2313    53-2313   #55-2391    55-2394    165-6737
                         165-6737   228-8849   228-8849
.CLDFB	  003370 RG	#89-3904    122-5119   122-5119   128-5318   128-5318   141-5838   141-5838
.CLDFR	  003374 RG	#89-3906
.CLDFW	  003404 RG	 89-3905    89-3905   #89-3911    124-5202   124-5202   126-5251   126-5251   134-5586   134-5586
                         155-6393   155-6393
.CLKWD	  000012 RG	#35-1488    124-5191  *129-5379   130-5392   145-5995
.CLOSE	  002114 RG	 74-3306    74-3306   #75-3345    77-3461    77-3461    80-3588    80-3588    160-6586   160-6586
                         160-6593   160-6593
.CLRCM	= ******  GX	 174-7016
.CLRFF	  003420 RG	#90-3940    114-4841   114-4841   117-4966   117-4966   152-6211   152-6211
.CLRMR	= 006000	#87-3838
.CLRUN	= 010000	#87-3838
.CMDTB	  004350 RG	 158-6511  #174-7011
.CMNDL	= 000430  G	#38-1702    224-8664
.COBFL	= 000204  G	#38-1698    258-10024
.COBFR	  000576 RG	 35-1612   #38-1696    258-10023  258-10025  260-10102  260-10111
.COMEF	= ******  GX	*141-5850
.COMMA	= 000054	#21-836
.COMND	  001012 RG	#38-1700    38-1702    163-6694
.CONBT	= 012000	#87-3838
.CONTC	= ******  GX	 174-7018
.COSTS	  000014 RG	#35-1490    257-9995   260-10102
.CRAMA	  000020 RG	#35-1492   *135-5627
.CRAMR	  000022 RG	#35-1494    134-5573   134-5592
.CRAMW	  000044 RG	#35-1498
.CSHRG	= 164000	#87-3838
.DBGSW	  000066 RG	#35-1503    68-2881    160-6576
.DELET	  002100 RG	#75-3341
.DEPAR	= ******  GX	 176-7107
.DFBLK	  000336 RG	#37-1671    106-4530   108-4627   111-4729
.DFRB 	  000344 RG	#37-1674    89-3908    106-4493   213-8256
.DFRED	= ******  GX	 174-7026
.DFWB 	  000336 RG	#37-1672    89-3913    107-4567  *122-5122  *122-5130  *124-5204   126-5252   155-6378   213-8263
.DFWRT	= ******  GX	 174-7028
.DFXCT	= ******  GX	 174-7030
.DIAG1	= 000000	#10-353
.DIAG2	= 000002	#10-354     93-4017    93-4038
.DIAG3	= 000006	#10-356     93-4025    93-4046
.DISCC	= ******  GX	 174-7022
.DOCMD	  007730 RG	#158-6503   163-6698   163-6698   172-6946   172-6946
.DPBFR	  000070 RG	#35-1506    102-4345
.DPBFX	  000076 RG	#35-1508
.DPDPB	  000312 RG	 101-4306   101-4307  #102-4344
PAROOT     CREATED BY  MACRO  ON 3-APR-86 AT 22:53	PAGE 37

SYMBOL CROSS REFERENCE                                  CREF

SYMBOL	VALUE		REFERENCES

.DPETB	  004674 RG	#175-7091
.DPKLM	  003762 RG	#99-4246
.DPOEL	= ******  GX	 176-7109
.DPOKL	= ******  GX	 176-7111
.DPOSC	= ******  GX	 174-7020
.DPOSD	= ******  GX	 175-7092   176-7113
.DPOSI	= ******  GX	 175-7094   176-7115
.DPOSN	= ******  GX	 175-7096   176-7117
.DPOSP	= ******  GX	 175-7098   176-7119
.DPOSZ	= ******  GX	 175-7100   176-7121
.DPOTB	  004734 RG	#176-7106
.DPTRK	  012454 RG	 99-4258    99-4258   #218-8433
.DREG 	  000352 RG	#37-1677   *94-4055    94-4062    95-4110    106-4530   108-4627   111-4729
.DRLTC	= 015000	#87-3838
.DSACF	= 066000	#87-3838
.DSIOJ	= 065000	#87-3838
.DTAB 	  004232 R	 99-4248   #101-4305
.DTCID	  000474 RG	 257-9997  #260-10124
.DTDI1	  000352 RG	#37-1678
.DTDI2	  000354 RG	#37-1680
.DTDI3	  000360 RG	#37-1684
.DTDW1	  003530 RG	 47-2102    47-2102   #93-4033    104-4419   104-4419   104-4427   104-4427   114-4836   114-4836
                         115-4849   115-4849   115-4878   115-4878   117-4968   117-4968   152-6218   152-6218
.DTDW2	  003536 RG	#93-4037
.DTDW3	  003556 RG	#93-4045
.DTSTA	  003546 RG	 56-2421    56-2421   #93-4041
.DTSTS	  000356 RG	#37-1682
.DTSTW	= 000004	#10-355     93-4021    93-4042
.DTTRK	  012332 RG	 94-4066   #216-8345
.DWDW1	  003454 RG	#93-4012
.DWDW2	  003462 RG	#93-4016    142-5899   142-5899
.DWDW3	  003502 RG	#93-4024    142-5901
.DWSTA	  003472 RG	#93-4020
.EBCLK	  003634 RG	#97-4154    104-4418   104-4418
.EBPCK	  000410 RG	#56-2420    159-6548
.EDELA	  000104 RG	#35-1518    68-2877
.EDKLA	  000106 RG	#35-1520    102-4345   102-4363
.EDKLX	  000114 RG	#35-1522
.EIOJA	= 067000	#87-3838
.ELDDW	  000122 RG	#35-1524
.ELEDW	  000124 RG	#35-1526
.ELNCK	  013144 RG	#225-8737   226-8783   226-8783
.ENTER	  001664 RG	#72-3184
.ETAB 	  004222 R	 99-4232   #101-4299
.EXAD 	= ******  GX	 178-7143
.EXADX	= ******  GX	 178-7145
.EXAMC	= ******  GX	 174-7024
.EXAMD	= ******  GX	 177-7128   178-7201
.EXAMF	= ******  GX	 178-7182
.EXAMI	= ******  GX	 177-7130   178-7203
.EXAMK	= ******  GX	 178-7184
.EXAMN	= ******  GX	 177-7132   178-7205
PAROOT     CREATED BY  MACRO  ON 3-APR-86 AT 22:53	PAGE 38

SYMBOL CROSS REFERENCE                                  CREF

SYMBOL	VALUE		REFERENCES

.EXAMP	= ******  GX	 177-7134   178-7207
.EXAMZ	= ******  GX	 177-7136   178-7209
.EXARR	= ******  GX	 178-7147
.EXARX	= ******  GX	 178-7149
.EXBFR	  000156 RG	#35-1532    102-4363
.EXBRR	= ******  GX	 178-7151
.EXBRX	= ******  GX	 178-7153
.EXCRA	= ******  GX	 178-7168
.EXCRL	= ******  GX	 178-7170
.EXCTC	= ******  GX	 174-7083
.EXCTF	  004150 RG	#103-4390   117-4990   117-4990
.EXDPB	  000324 RG	 101-4300   101-4301  #102-4362
.EXDPM	  004020 RG	 99-4233    99-4233    99-4249    99-4249   #100-4268
.EXDRA	= ******  GX	 178-7172
.EXDTE	= ******  GX	 178-7174
.EXEBR	= ******  GX	 178-7176
.EXEBS	= ******  GX	 178-7155
.EXECT	  004226 RG	#104-4413
.EXETB	  005016 RG	#177-7127
.EXFER	= ******  GX	 178-7180
.EXFMR	= ******  GX	 178-7158
.EXITP	  010110 RG	#160-6574   224-8695   258-10028
.EXKLM	  003730 RG	#99-4230
.EXMEL	= ******  GX	 178-7178
.EXMKL	= ******  GX	 178-7190
.EXMPI	= ******  GX	 178-7186
.EXMQR	= ******  GX	 178-7160
.EXMTB	  005056 RG	#178-7142   178-7165
.EXREG	= ******  GX	 178-7188
.EXSBR	= ******  GX	 178-7197
.EXSCR	= ******  GX	 178-7199
.EXTND	  002004 RG	#74-3289    85-3794    85-3794
.EXTRK	  012442 RG	 99-4242    99-4242   #218-8428
.EXUBR	= ******  GX	 178-7192
.EXVAB	= ******  GX	 178-7166
.EXVMA	= ******  GX	 178-7193
.EXVMH	= ******  GX	 178-7195
.EXVPC	= ******  GX	 178-7162
.FEMOD	= ******  GX	 54-2356    165-6767   166-6787
.FISTS	  001662 RG	#69-2948    70-3071    70-3092    71-3138    71-3141    71-3155    72-3187    72-3191    72-3203
                         72-3206    73-3253    74-3292    74-3313    75-3352    75-3366    80-3574    80-3576    80-3579
                         85-3783    85-3785    85-3792
.FNDIR	  001452 RG	#70-3061    71-3132    71-3132
.FREAD	  004362 RG	 97-4163    97-4163   #106-4485   128-5325   128-5325   129-5376   129-5376   132-5498   132-5498
                         134-5579   134-5579   136-5665   136-5665   137-5709   137-5709   138-5738   138-5738   139-5782
                         139-5782
.FRTRK	  012172 RG	 106-4505   106-4505  #213-8253
.FWRIT	  004444 RG	#107-4565   116-4929   116-4929   120-5086   120-5086   122-5125   122-5125   122-5133   122-5133
                         124-5206   124-5206   124-5211   124-5211   126-5260   126-5260   126-5267   126-5267   128-5320
                         128-5320   134-5589   134-5589   134-5591   134-5591   141-5842   141-5842   141-5847   141-5847
                         154-6307   154-6307   155-6384   155-6384   155-6392   155-6392   155-6395   155-6395   155-6397
                         155-6397
PAROOT     CREATED BY  MACRO  ON 3-APR-86 AT 22:53	PAGE 39

SYMBOL CROSS REFERENCE                                  CREF

SYMBOL	VALUE		REFERENCES

.FWTRK	  012212 RG	 108-4600   108-4600  #213-8260
.FXCT 	  004566 RG	 88-3874    90-3948    90-3948    97-4161    97-4161   #110-4657   113-4784   113-4784   119-5028
                         119-5028   120-5088   127-5306   127-5306   128-5332   128-5332   128-5337   128-5337   134-5571
                         134-5571   147-6066   147-6066   150-6160   150-6160   153-6264   153-6264
.FXTRK	  012232 RG	 111-4702   111-4702  #213-8267
.GFNR 	= 102000	#87-3838
.GTCMD	  012610 RG	 163-6695   163-6695  #222-8569
.GTELN	  013220 RG	#226-8777   230-8960   230-8960
.GTEXP	  013706 RG	 228-8857   228-8857   229-8882   229-8882  #231-9033   237-9250   237-9250
.GTFCT	  014114 RG	 233-9094   233-9094   234-9129   234-9129  #235-9163   237-9231   237-9231   237-9236   237-9236
                         237-9242   237-9242
.GTKLA	  013250 RG	#227-8810
.GTKLN	  013302 RG	 172-6940   172-6940  #228-8847
.GTLIN	  012644 RG	 222-8573   222-8573  #223-8615
.GTNBR	  014410 RG	 235-9172   235-9172  #238-9278
.GTNUM	  013302 RG	 226-8782   226-8782   227-8811   227-8811  #228-8846
.GTOPC	  013514 RG	 228-8855   228-8855  #230-8936
.GTTRM	  014002 RG	 231-9034   231-9034   232-9061   232-9061  #233-9093
.HALTC	= ******  GX	 174-7032
.INATT	  002750 RG	#69-2982    80-3572    80-3585    160-6583
.INBBC	  001712 RG	#69-2965   *78-3503    78-3504   *78-3510    79-3537   *79-3543   *80-3579
.INBUF	  001716 RG	#69-2969    80-3574    80-3578
.INCHC	  000164 RG	#35-1534   *223-8618  *224-8663   224-8664   224-8670  *238-9279  *238-9289   239-9311
.INDFG	  001660 RG	#69-2944   *77-3458   *80-3587    160-6581  *160-6585   223-8619
.INFN 	  001666 RG	#69-2955
.INFNB	  002716 RG	#69-2972    77-3459
.INICL	= 070000	#87-3838
.INICP	= ******  GX	 35-1616
.INITC	= ******  GX	 174-7038
.INPOS	  001714 RG	#69-2967    78-3500   *78-3502    78-3508   *78-3509    79-3541   *79-3542   *80-3578
.INVBN	  001706 RG	#69-2963   *80-3570   *80-3571    80-3572    80-3574    80-3574
.IRADX	  000166 RG	#35-1536   *66-2793    172-6934  *172-6935  *172-6941   236-9205  *237-9221  *237-9225  *237-9229
                        *237-9232   238-9283
.IRLTC	= 014000	#87-3838
.JUMPC	= ******  GX	 174-7040
.KLCON	  004736 RG	 104-4440   104-4440  #113-4773
.KLDFR	  000336 RG	 60-2575   *106-4486   106-4490  #106-4529   213-8255
.KLDFW	  000350 RG	 60-2579   *107-4566   108-4586   108-4590  #108-4626   213-8262
.KLDFX	  000362 RG	 60-2583   *110-4658   110-4662   110-4665  #111-4728   213-8269
.KLE  	= ******  GX	 223-8624   223-8624
.KLEDF	  000176 RG	#35-1540   *163-6675   223-8622
.KLEPT	  000200 RG	#35-1542
.KLERQ	= ******  GX	 159-6543  *160-6595   163-6673
.KLEVL	  000202 RG	#35-1544
.KLFLG	= ******  GX	*47-2111   *47-2113    54-2352   *101-4314  *101-4318   103-4391   104-4415  *108-4595   110-4671
                        *110-4673   110-4677  *110-4679  *110-4686  *110-4692   113-4775   116-4930   117-4959   119-5041
                        *127-5307  *128-5338   148-6093   148-6095   163-6670
.KLGO 	  004744 RG	#113-4776   116-4931
.KLHLT	  005034 RG	#114-4834   116-4926   116-4926   117-4961   120-5084   120-5084
.KLINC	  000170 RG	#35-1538
.KLMTB	  005366 RG	#179-7215
.KLMT1	  005412 RG	#179-7224
PAROOT     CREATED BY  MACRO  ON 3-APR-86 AT 22:53	PAGE 40

SYMBOL CROSS REFERENCE                                  CREF

SYMBOL	VALUE		REFERENCES

.KLRST	  005310 RG	#119-5018   146-6033   146-6033
.KLSNP	  000203 RG	#35-1546
.KLST 	  005164 RG	#116-4924
.KLSTP	  005212 RG	#117-4958   148-6096   148-6096
.KLXCT	  005442 RG	 103-4399   103-4399   104-4416   104-4416  #120-5083
.LCRDL	= 052000	#87-3838
.LCRDR	= 051000	#87-3838
.LCRM1	= 057000	#87-3838
.LCRM2	= 056000	#87-3838
.LCRM3	= 055000	#87-3838
.LCRM4	= 054000	#87-3838
.LCRM5	= 053000	#87-3838
.LDAR 	= 077000	#87-3838
.LDBRC	  005466 RG	#122-5115
.LDBRG	  005472 RG	 88-3872    88-3872   #122-5117
.LDBRL	= 043000	#87-3838
.LDBRR	= 042000	#87-3838
.LDCK1	= 046000	#87-3838
.LDCK2	= 047000	#87-3838
.LDCLK	  005570 RG	#124-5189   141-5835   141-5835   143-5954   143-5954   145-5998   145-5998
.LDCRA	  005666 RG	#126-5246   134-5569   134-5569   152-6214   152-6214   155-6376   155-6376
.LDDIS	= 045000	#87-3838
.LDOBC	= 000454 RG	*223-8645  *257-10000  257-10012 #260-10114
.LDOBP	= 000452 RG	*223-8644  *257-9999   257-10011 #260-10113
.LDOFC	= 000456 R	#260-10115
.LDOUT	  000436 RG	 257-10004 #260-10110  260-10113  260-10114  260-10115
.LDPAR	  005606 RG	#124-5195   141-5836   141-5836   145-6002   145-6002
.LDRJD	= 064000	#87-3838
.LDRJV	= 063000	#87-3838
.LDRM1	= 060000	#87-3838
.LDRM2	= 061000	#87-3838
.LDRM3	= 062000	#87-3838
.LDSEL	= 044000	#87-3838
.LDSTS	  000212 RG	#35-1557    257-10006  260-10111
.LDZFL	  000220 RG	#35-1561   *214-8280  *216-8346  *245-9528  *247-9617   249-9706  *249-9711   252-9819  *252-9823
.LGLWD	  000216 RG	#35-1559   *158-6514   159-6526  *159-6537  *163-6696
.LOKUP	  001574 RG	#71-3130
.MARKC	= ******  GX	 174-7044
.MEMFL	  000222 RG	#35-1563
.MEMRS	= 076000	#87-3838
.MISC 	= ******  GX	*160-6596
.MONTB	  005430 RG	#180-7234
.MRCLR	  006002 RG	#127-5303   141-5837   141-5837
.MTDPB	  000266 RG	 90-3943   #91-3971
.NOERR	= ******  GX	*47-2109   *149-6128
.NOHLT	= ******  GX	*90-3946   *113-4794  *119-5046  *146-6034
.NOTSW	  000224 RG	#35-1565
.NSETB	  005542 RG	 58-2527   #181-7264
.NULLC	  007716 RG	#156-6438   174-7012
.OPEN 	  001736 RG	#73-3236
.ORADX	  000226 RG	#35-1567   *66-2794    245-9532   245-9536   246-9571   246-9575   247-9620   247-9624   248-9659
                         248-9663   252-9812
PAROOT     CREATED BY  MACRO  ON 3-APR-86 AT 22:53	PAGE 41

SYMBOL CROSS REFERENCE                                  CREF

SYMBOL	VALUE		REFERENCES

.OTATT	  004050 RG	#69-3019   *74-3294   *74-3295   *74-3299   *74-3300    74-3301    81-3632   *81-3634   *84-3740
                        *84-3741   *85-3787   *85-3788    160-6591
.OTBBC	  003012 RG	#69-3002   *82-3677    82-3678   *82-3683    83-3709   *83-3714    84-3742    84-3744    84-3750
                        *85-3790
.OTBUF	  003016 RG	#69-3006    74-3300    84-3741    85-3783    85-3789
.OTFN 	  002766 RG	#69-2992
.OTFNB	  004016 RG	#69-3009    72-3203    72-3206
.OTPOS	  003014 RG	#69-3004    74-3299    82-3674   *82-3676    82-3681   *82-3682    83-3712   *83-3713    84-3740
                         84-3745   *85-3789
.OTVBN	  003006 RG	#69-3000   *85-3781   *85-3782    85-3783    85-3783    85-3787    85-3788
.OUTLG	  000206 RG	#35-1550   *74-3304    160-6587  *160-6589   257-10008
.OUTLP	  000207 RG	#35-1552    257-10002
.OUTTY	  000210 RG	#35-1554    257-9989
.PARER	  000432 RG	#58-2512    66-2807    66-2807
.PASS 	  000204 RG	#35-1548    244-9459
.PCAB1	= 150000	#87-3838
.PCAB2	= 151000	#87-3838
.PCAB3	= 152000	#87-3838
.PCAB4	= 153000	#87-3838
.PEWRD	  000230 RG	#35-1569    139-5776
.PITAB	  000232 RG	#35-1571
.PSCWD	  000236 RG	#35-1573    124-5197  *129-5380   130-5398   145-5994
.PTDIE	  001046 RG	#64-2705    68-2873
.PTOAT	  001352 RG	 35-1596   #68-2868
.PTTRP	  001124 RG	 36-1664   #66-2777
.QUITC	= ******  GX	 174-7079
.RCRM1	= 147000	#87-3838
.RCRM2	= 146000	#87-3838
.RCRM3	= 145000	#87-3838
.RCRM4	= 144000	#87-3838
.RCSPF	= 141000	#87-3838
.RDCPP	  006150 RG	#129-5367   145-5993   145-5993
.RDCRA	= ******  GX	 135-5626   135-5626
.RDCRD	  006304 RG	#132-5494   134-5584   134-5584
.RDCRM	  006342 RG	#134-5565
.RDCRO	  006512 R	#135-5625
.RDCRR	  006374 RG	#134-5572   135-5628   135-5628
.RDFMA	  006532 RG	#136-5661   137-5705   137-5705
.RDFMO	  006614 RG	#137-5702
.RDFMP	  006650 RG	#138-5735
.RDIPE	  006704 RG	 62-2642    62-2642   #139-5772
.RDJ14	= 134000	#87-3838
.RDJ71	= 135000	#87-3838
.RDMAB	= 133000	#87-3838
.RDXSV	  000240 RG	#35-1575    66-2793    66-2794   *172-6934   172-6941
.READ 	  002440 RG	 78-3506    78-3506    79-3539    79-3539   #80-3569
.READB	  002406 RG	 77-3452    77-3452   #79-3536
.READR	  002224 RG	#77-3444    223-8633   223-8633
.READW	  002330 RG	 77-3446    77-3446   #78-3499
.RECNT	  004066 RG	#69-3027   *81-3625    81-3631   *81-3644
.RECPT	  004070 RG	#69-3029    81-3623   *81-3624   *81-3643
.RECRD	  004072 RG	 69-3030   #69-3031    81-3630    81-3643
PAROOT     CREATED BY  MACRO  ON 3-APR-86 AT 22:53	PAGE 42

SYMBOL CROSS REFERENCE                                  CREF

SYMBOL	VALUE		REFERENCES

.REGRW	  000300 RG	*93-4013   *93-4017   *93-4021   *93-4025   *93-4027    93-4028    93-4029   *93-4034   *93-4038
                        *93-4042   *93-4046   *94-4053    94-4059   #95-4106    216-8350   216-8354   216-8360   216-8364
.REGSV	  010316 RG	 66-2785    68-2871    124-5190   124-5196   129-5368   139-5773  #162-6653   218-8429   218-8434
.RELWD	  000242 RG	#35-1577    236-9187
.REMOV	  001564 RG	#71-3127
.REPTC	  011036 RG	#172-6933   174-7050
.RESET	  006766 RG	#141-5828   143-5949   143-5949   145-5996   145-5996
.RESQ 	= ******  GX	 174-7053
.RESTB	  006232 RG	#184-7380
.RESTC	= ******  GX	 174-7057
.RESTD	  007102 RG	 100-4291   100-4291   141-5830   141-5830  #142-5897
.RESTI	  007122 RG	#143-5946
.RESTP	  007146 RG	 126-5249   126-5249  #145-5990
.RPTCT	  000244 RG	#35-1579    163-6697
.RPTPT	  000252 RG	#35-1581   *158-6509
.RSACB	= ******  GX	 182-7365
.RSALL	= ******  GX	 184-7381
.RSAPR	= ******  GX	 184-7383
.RSDTE	= ******  GX	 184-7385
.RSERR	= ******  GX	 184-7387
.RSPAG	= ******  GX	 184-7393
.RSTIN	= ******  GX	 184-7389
.RSTIO	= ******  GX	 184-7391
.RSTKL	  007220 RG	 66-2791    66-2791    103-4401  #146-6030
.RSTPI	= ******  GX	 184-7395
.RSTRC	= ******  GX	 174-7059
.RSTTB	  006204 RG	#182-7364
.RUNCM	= ******  GX	 174-7042   174-7046   174-7048   174-7061
.R50TB	  001442 RG	#39-1706    259-10061
.SAVEC	= ******  GX	 174-7063
.SAVQ 	= ******  GX	 174-7055
.SAVTB	  006214 RG	#183-7371
.SCACB	= ******  GX	 190-7481
.SCCEC	= ******  GX	 185-7404
.SCCED	= ******  GX	 185-7406
.SCCEE	= ******  GX	 185-7408
.SCCLK	= ******  GX	 190-7483
.SCCLN	= ******  GX	 185-7402
.SCCOM	= ******  GX	 187-7438
.SCCON	= ******  GX	 190-7485
.SCCOO	= ******  GX	 187-7440
.SCCOP	= ******  GX	 187-7442
.SCCOT	  006436 RG	#187-7437
.SCCOU	= ******  GX	 187-7444
.SCCRF	= ******  GX	 185-7416
.SCCRH	= ******  GX	 185-7418
.SCCRQ	= ******  GX	 185-7420
.SCCRS	= ******  GX	 185-7422
.SCCSE	= ******  GX	 185-7410
.SCCSI	= ******  GX	 185-7412
.SCCSM	= ******  GX	 185-7414
.SCCTB	  006314 RG	#185-7401
PAROOT     CREATED BY  MACRO  ON 3-APR-86 AT 22:53	PAGE 43

SYMBOL CROSS REFERENCE                                  CREF

SYMBOL	VALUE		REFERENCES

.SCDAT	= ******  GX	 190-7487
.SCFSS	= ******  GX	 190-7491
.SCINC	= ******  GX	 190-7493
.SCKLN	= ******  GX	 190-7495
.SCMEL	= ******  GX	 186-7429
.SCMEM	= ******  GX	 190-7497
.SCMKL	= ******  GX	 186-7431
.SCMTB	  006420 RG	#186-7428
.SCNOT	= ******  GX	 190-7499
.SCOFS	= ******  GX	 190-7501
.SCOTL	= ******  GX	 188-7451
.SCOTP	= ******  GX	 188-7453
.SCOTT	  006470 RG	#188-7450
.SCOTY	= ******  GX	 188-7455
.SCOUT	= ******  GX	 190-7503
.SCPAL	= ******  GX	 189-7462
.SCPAR	= ******  GX	 189-7464
.SCPCR	= ******  GX	 189-7466
.SCPDR	= ******  GX	 189-7468
.SCPEN	= ******  GX	 189-7470
.SCPFM	= ******  GX	 189-7472
.SCPFS	= ******  GX	 189-7474
.SCPST	= ******  GX	 190-7505
.SCPTB	  006514 RG	#189-7461
.SCRLD	= ******  GX	 190-7507
.SCRPT	= ******  GX	 190-7509
.SCRTY	= ******  GX	 190-7511
.SCTRK	= ******  GX	 190-7514
.SEAMB	  000520 RG	#59-2547    191-7522
.SECES	  000756 RG	#62-2640    191-7524
.SECLK	= 003000	#87-3838
.SEFRF	  000606 RG	#60-2574    191-7526
.SEFWF	  000614 RG	#60-2578    191-7527
.SEFXF	  000622 RG	#60-2582    191-7528
.SEILC	  000544 RG	#59-2557    191-7530
.SEILS	  000544 RG	#59-2558    191-7531
.SEIPC	  000544 RG	#59-2559    191-7532
.SENSK	  000520 RG	#59-2548    191-7534
.SETCM	= ******  GX	 174-7065
.SETFN	  002166 RG	 71-3133    71-3133   #76-3403
.SETMR	= 007000	#87-3838
.SETRN	= 011000	#87-3838
.SETTB	  006570 RG	#190-7480
.SFREC	= ******  GX	 190-7489
.SHIFT	  011130 RG	 122-5128   122-5128  #196-7649
.SHUTC	= ******  GX	 174-7069
.SPACE	= 000040	#21-837     39-1718    52-2287    55-2393    59-2562    224-8681   228-8858   243-9412   250-9723
                         250-9724   250-9725   250-9726   250-9728   250-9729   250-9731   250-9732   250-9733   250-9735
                         250-9736   250-9741   250-9745
.SPETB	  006740 RG	 58-2514   #191-7521
.SSCAN	  010774 RG	 165-6747   165-6747  #169-6853   169-6859   230-8945   230-8945
.SSCLK	= 002000	#87-3838
PAROOT     CREATED BY  MACRO  ON 3-APR-86 AT 22:53	PAGE 44

SYMBOL CROSS REFERENCE                                  CREF

SYMBOL	VALUE		REFERENCES

.SSTTB	  000316 RG	#36-1657    36-1666    64-2709   *68-2873   *68-2888
.START	  010354 RG	 35-1584   #163-6664
.STCLF	  007254 RG	 127-5308   127-5308  #147-6063
.STCLK	  007246 RG	 104-4424   104-4424   113-4787   113-4787   119-5043   119-5043  #147-6060   152-6215   152-6215
.STPCL	= 000000	#87-3838
.STPKL	  007272 RG	 103-4397   103-4397  #148-6092
.STPXC	  007316 RG	 88-3868    88-3868    104-4446   104-4446   115-4860   115-4860   115-4873   115-4873   122-5116
                         122-5116   128-5317   128-5317   141-5832   141-5832   145-5992   145-5992  #149-6122   152-6212
                         152-6212   154-6302   154-6302
.STRCL	= 001000	#87-3838
.STRTB	  007030 RG	#192-7540
.STRTC	= ******  GX	 174-7071
.STRTT	= ******  GX	 192-7541
.STRTU	= ******  GX	 192-7543
.STRTV	  000254 RG	#35-1583    66-2814    68-2889    166-6799
.STRUN	  007346 RG	 104-4450   104-4450   113-4781   113-4781   119-5026   119-5026   119-5037   119-5037  #150-6155
.STUCD	  007366 RG	#152-6207
.SVACB	= ******  GX	 183-7374
.SVESP	  000256 RG	#35-1585    163-6665   166-6798
.SVKLF	  000260 RG	#35-1587   *47-2110    66-2789   *103-4400   119-5020   119-5029  *119-5049   146-6031  *146-6036
                        *148-6095  *163-6667
.SVPC 	= ******  GX	 183-7372
.SWPC 	= ******  GX	 174-7073
.SWPIP	  000262 RG	#35-1589    47-2114   *66-2778
.SYNXC	  007470 RG	 97-4174    115-4863   128-5335   128-5335  #153-6260   154-6304   154-6304
.TAKEC	= ******  GX	 174-7075
.TCRLF	  015552 RG	 58-2540    64-2714    64-2714    64-2719    64-2719    66-2805    66-2805    67-2824    67-2824
                         68-2874    68-2874    68-2879    68-2879    166-6779   166-6779   214-8293   214-8293   223-8648
                         223-8648   244-9482   244-9482   253-9859   255-9940  #256-9950
.TFCHR	  015504 RG	 163-6693   163-6693   222-8579   222-8579  #254-9899
.TPADD	  011516 RG	#203-7915   207-8053   207-8053   232-9047   238-9296   238-9296
.TPCLR	  011372 RG	 89-3915    89-3915   #200-7789   207-8035   207-8035   228-8852   228-8852   252-9810   252-9810
.TPCMP	  011440 RG	 199-7739   199-7739  #201-7841
.TPCOM	  011402 RG	#200-7796   200-7804   200-7804   237-9237   237-9237
.TPDEC	  011550 RG	 159-6532   159-6532  #204-7955   211-8176   211-8176
.TPDIV	  011160 RG	#198-7705   234-9115   252-9813   252-9813
.TPINC	  011536 RG	 199-7744   199-7744   200-7805  #204-7948   211-8187   211-8187
.TPMUL	  011606 RG	#207-8027   234-9119   238-9293   238-9293
.TPNEG	  011412 RG	#200-7803   237-9245   237-9245
.TPSHI	  011772 RG	 126-5257   126-5257   126-5264   126-5264   132-5500   132-5500   136-5667   136-5667   136-5672
                         136-5672   138-5741   138-5741   155-6389   155-6389  #209-8105   211-8174   211-8174   211-8185
                         211-8185   229-8875   229-8875
.TPSHL	  012036 RG	#210-8156   234-9111
.TPSUB	  011562 RG	 199-7741   199-7741  #205-7986   232-9051
.TPTST	  011474 RG	 159-6524   159-6524   159-6533   159-6533   172-6942   172-6942   198-7710   198-7710  #202-7880
                         207-8029   207-8029   207-8032   207-8032   207-8060   207-8060   210-8162   210-8162   211-8177
                         211-8177   211-8188   211-8188   228-8862   228-8862   229-8884   229-8884   249-9708   249-9708
                         251-9788   251-9788
.TPXTN	  011420 RG	 198-7707   198-7707   198-7709   198-7709  #200-7808   210-8161   210-8161
.TRKWD	  000264 RG	#35-1592    94-4064    99-4240    99-4256    106-4503   108-4598   111-4700
.TRPEC	  000270 RG	#35-1597   *66-2784    66-2806
.TRPIP	  000272 RG	#35-1599   *64-2706   *66-2779   *66-2800    66-2808   *66-2813   *67-2828
PAROOT     CREATED BY  MACRO  ON 3-APR-86 AT 22:53	PAGE 45

SYMBOL CROSS REFERENCE                                  CREF

SYMBOL	VALUE		REFERENCES

.TRPPC	  000274 RG	#35-1601   *66-2782   *68-2869
.TRPPS	  000276 RG	#35-1603   *66-2783   *68-2870
.TRPSB	  000300 RG	#35-1605   *66-2781    66-2787    66-2795    66-2810
.TRPTV	  000302 RG	#35-1607    66-2797   *66-2801
.TRP4V	  000266 RG	#35-1595
.TSCAN	  010524 RG	 158-6513   158-6513  #165-6735
.TYACE	  014630 RG	#244-9457
.TYAC1	  014662 RG	#244-9466
.TYCHR	  015520 RG	 59-2554    59-2554    59-2567    59-2567    59-2570    59-2570    61-2608    61-2608    61-2612
                         61-2612    243-9419   243-9419   244-9472   244-9472   252-9826   253-9871   253-9871   254-9900
                         254-9900  #255-9935   256-9953   256-9953   256-9955   256-9955   259-10066  259-10066
.TYCOL	  014542 RG	#243-9390   244-9473   244-9473
.TYCOM	  014552 RG	 62-2651    62-2651   #243-9395
.TYELA	  014762 RG	#245-9527
.TYELN	  014766 RG	 64-2718    64-2718    68-2878    68-2878    216-8362   216-8362  #245-9529
.TYINI	  015736 RG	 163-6669   163-6669  #258-10021
.TYKLA	  015106 RG	 219-8457   219-8457   244-9477   244-9477  #247-9616
.TYKLN	  015156 RG	 214-8291   214-8291   219-8461   219-8461   244-9481   244-9481  #248-9656
.TYLIN	  015446 RG	 64-2716    64-2716    67-2823    67-2823    166-6783   166-6783   166-6792   166-6792   216-8368
                         216-8368   219-8469   219-8469  #253-9857
.TYMIN	  014562 RG	#243-9400
.TYMSF	  015454 RG	 163-6677   163-6677  #253-9861
.TYMSG	  015462 RG	 60-2592    60-2592    61-2606    61-2606    61-2610    61-2610    61-2615    62-2650    62-2650
                         62-2661    62-2661    68-2876    68-2876    77-3463    77-3463    163-6681   163-6681   166-6781
                         166-6781   214-8281   214-8281   216-8349   216-8349   216-8352   216-8352   219-8455   219-8455
                         244-9464   244-9464   253-9858   253-9858   253-9862   253-9862  #253-9865
.TYNCM	  015240 RG	 246-9583  #249-9700
.TYNUM	  015316 RG	 249-9713   249-9713  #251-9777   252-9805
.TYOBC	  000304 RG	#35-1609   *255-9939  *258-10024
.TYOBP	  000306 RG	#35-1611    255-9936  *255-9937  *258-10025
.TYOUT	  015600 RG	 223-8638   223-8638   254-9904   255-9943  #257-9988
.TYOU1	  015660 RG	 223-8647   223-8647  #257-10001
.TYP3D	  015032 RG	 60-2590    60-2590    214-8286   214-8286  #246-9568
.TYR50	  015772 RG	 61-2622    61-2622   #259-10053
.TYSLS	  014572 RG	 214-8289   214-8289   219-8458   219-8458  #243-9405   244-9478   244-9478
.TYSPC	  014602 RG	 61-2613    61-2613    62-2652    62-2652    166-6791   166-6791   214-8290   214-8290   216-8353
                         216-8353   219-8459   219-8459   219-8462   219-8462  #243-9410   244-9479   244-9479
.TYUPA	  014612 RG	 59-2564    59-2564   #243-9415
.T50TB	  001472 RG	#39-1720    259-10055
.UMRKC	= ******  GX	 174-7077
.VFYFL	  000310 RG	#35-1613
.WHACB	= ******  GX	 193-7550
.WHATB	  007046 RG	#193-7549
.WHATC	= ******  GX	 174-7067   174-7081
.WHATV	= ******  GX	 193-7584
.WHCON	= ******  GX	 193-7554
.WHDAT	= ******  GX	 193-7556
.WHINC	= ******  GX	 193-7562
.WHKLN	= ******  GX	 193-7564
.WHMEM	= ******  GX	 193-7566
.WHOFS	= ******  GX	 193-7568
.WHOUT	= ******  GX	 193-7570
PAROOT     CREATED BY  MACRO  ON 3-APR-86 AT 22:53	PAGE 46

SYMBOL CROSS REFERENCE                                  CREF

SYMBOL	VALUE		REFERENCES

.WHRDW	= ******  GX	 193-7560
.WHREC	= ******  GX	 193-7558
.WHRLD	= ******  GX	 193-7574
.WHRPT	= ******  GX	 193-7576
.WHRTY	= ******  GX	 193-7578
.WHTCL	= ******  GX	 193-7552
.WHTPS	= ******  GX	 193-7572
.WHTRK	= ******  GX	 193-7581
.WRAR1	  007512 RG	#154-6303
.WRCRM	  007534 RG	#155-6369
.WRITB	  003030 RG	 81-3640    81-3640   #83-3708    84-3753    84-3753
.WRITE	  003160 RG	 82-3680    82-3680    83-3711    83-3711    84-3755    84-3755   #85-3780
.WRITR	  002616 RG	#81-3617    257-10013  257-10013
.WRITW	  002754 RG	 81-3636    81-3636   #82-3673    84-3749    84-3749
.WRITZ	  003060 RG	#84-3739    160-6590   160-6590
.WRMBX	= 071000	#87-3838
.WRTAR	  007506 RG	#154-6301
.ZEROC	= ******  GX	 174-7085
..DTSP	= ******  GX	 47-2108    47-2108
..SACK	= ******  GX	 160-6601   160-6601
PAROOT     CREATED BY  MACRO  ON 3-APR-86 AT 22:53	PAGE 47

MACRO CROSS REFERENCE                                   CREF

MACRO NAME	REFERENCES

ALUN$ 		#68-2936   #70-3087
CALL  		#4-118     #47-2102   #47-2108   #48-2145   #51-2253   #53-2313   #56-2421   #58-2537   #59-2549   #59-2554
                #59-2560   #59-2564   #59-2567   #59-2570   #60-2585   #60-2590   #60-2592   #61-2606   #61-2608   #61-2610
                #61-2612   #61-2613   #61-2620   #61-2622   #62-2641   #62-2642   #62-2650   #62-2651   #62-2652   #62-2661
                #64-2714   #64-2716   #64-2718   #64-2719   #66-2785   #66-2791   #66-2805   #66-2807   #67-2823   #67-2824
                #67-2830   #68-2871   #68-2874   #68-2876   #68-2878   #68-2879   #68-2884   #71-3132   #71-3133   #74-3306
                #77-3446   #77-3452   #77-3461   #77-3463   #78-3506   #79-3539   #80-3588   #81-3636   #81-3640   #82-3680
                #83-3711   #84-3749   #84-3753   #84-3755   #85-3794   #88-3868   #88-3872   #89-3905   #89-3915   #90-3948
                #97-4156   #97-4161   #97-4163   #99-4233   #99-4242   #99-4249   #99-4258   #100-4288  #100-4291  #103-4397
                #103-4399  #104-4416  #104-4418  #104-4419  #104-4424  #104-4427  #104-4440  #104-4446  #104-4450  #106-4505
                #108-4600  #111-4702  #113-4781  #113-4784  #113-4787  #114-4836  #114-4841  #115-4849  #115-4860  #115-4873
                #115-4877  #115-4878  #116-4926  #116-4929  #117-4966  #117-4968  #117-4990  #119-5026  #119-5028  #119-5037
                #119-5043  #120-5084  #120-5086  #122-5116  #122-5119  #122-5125  #122-5128  #122-5133  #124-5190  #124-5196
                #124-5202  #124-5206  #124-5211  #126-5249  #126-5251  #126-5257  #126-5260  #126-5264  #126-5267  #127-5306
                #127-5308  #128-5317  #128-5318  #128-5320  #128-5325  #128-5332  #128-5335  #128-5337  #129-5368  #129-5376
                #132-5498  #132-5500  #134-5569  #134-5571  #134-5579  #134-5584  #134-5586  #134-5589  #134-5591  #135-5626
                #135-5628  #136-5665  #136-5667  #136-5672  #137-5705  #137-5709  #138-5738  #138-5741  #139-5773  #139-5782
                #141-5830  #141-5832  #141-5835  #141-5836  #141-5837  #141-5838  #141-5842  #141-5847  #142-5899  #143-5949
                #143-5954  #145-5992  #145-5993  #145-5996  #145-5998  #145-6002  #146-6033  #147-6062  #147-6066  #148-6096
                #150-6160  #152-6211  #152-6212  #152-6214  #152-6215  #152-6218  #153-6264  #154-6302  #154-6304  #154-6307
                #155-6376  #155-6384  #155-6389  #155-6392  #155-6393  #155-6395  #155-6397  #158-6513  #159-6522  #159-6524
                #159-6532  #159-6533  #159-6547  #160-6586  #160-6590  #160-6593  #160-6601  #162-6657  #163-6669  #163-6677
                #163-6681  #163-6693  #163-6695  #163-6698  #165-6736  #165-6737  #165-6747  #166-6777  #166-6779  #166-6781
                #166-6783  #166-6791  #166-6792  #172-6940  #172-6942  #172-6944  #172-6946  #198-7707  #198-7709  #198-7710
                #199-7739  #199-7741  #199-7744  #200-7804  #207-8029  #207-8032  #207-8035  #207-8053  #207-8060  #210-8161
                #210-8162  #211-8174  #211-8176  #211-8177  #211-8185  #211-8187  #211-8188  #214-8281  #214-8286  #214-8289
                #214-8290  #214-8291  #214-8293  #216-8349  #216-8352  #216-8353  #216-8362  #216-8368  #218-8429  #218-8434
                #219-8455  #219-8457  #219-8458  #219-8459  #219-8461  #219-8462  #219-8469  #222-8573  #222-8579  #223-8624
                #223-8633  #223-8638  #223-8647  #223-8648  #226-8782  #226-8783  #227-8811  #228-8849  #228-8852  #228-8853
                #228-8855  #228-8857  #228-8860  #228-8862  #229-8875  #229-8882  #229-8883  #229-8884  #230-8945  #230-8958
                #230-8960  #231-9034  #232-9061  #232-9064  #233-9094  #234-9129  #234-9132  #235-9172  #236-9200  #237-9231
                #237-9236  #237-9237  #237-9242  #237-9245  #237-9250  #238-9293  #238-9296  #243-9419  #244-9464  #244-9472
                #244-9473  #244-9477  #244-9478  #244-9479  #244-9481  #244-9482  #249-9708  #249-9713  #251-9788  #252-9810
                #252-9813  #252-9815  #253-9858  #253-9862  #253-9871  #254-9900  #256-9953  #256-9955  #257-10013 #259-10059
                #259-10066
CALLR 		#4-127     #58-2540   #61-2615   #66-2802   #88-3874   #94-4066   #97-4174   #103-4401  #115-4863  #120-5088
                #142-5901  #156-6440  #159-6548  #224-8695  #258-10028
CLEF$S		#46-2063   #50-2217
COMND$		#5-181     #174-7012  #174-7014  #174-7016  #174-7018  #174-7020  #174-7022  #174-7024  #174-7026  #174-7028
                #174-7030  #174-7032  #174-7038  #174-7040  #174-7042  #174-7044  #174-7046  #174-7048  #174-7050  #174-7053
                #174-7055  #174-7057  #174-7059  #174-7061  #174-7063  #174-7065  #174-7067  #174-7069  #174-7071  #174-7073
                #174-7075  #174-7077  #174-7079  #174-7081  #174-7083  #174-7085  #175-7092  #175-7094  #175-7096  #175-7098
                #175-7100  #176-7107  #176-7109  #176-7111  #176-7113  #176-7115  #176-7117  #176-7119  #176-7121  #177-7128
                #177-7130  #177-7132  #177-7134  #177-7136  #178-7143  #178-7145  #178-7147  #178-7149  #178-7151  #178-7153
                #178-7155  #178-7158  #178-7160  #178-7162  #178-7166  #178-7168  #178-7170  #178-7172  #178-7174  #178-7176
                #178-7178  #178-7180  #178-7182  #178-7184  #178-7186  #178-7188  #178-7190  #178-7192  #178-7193  #178-7195
                #178-7197  #178-7199  #178-7201  #178-7203  #178-7205  #178-7207  #178-7209  #179-7216  #179-7218  #179-7220
                #179-7225  #179-7227  #180-7235  #180-7237  #180-7239  #180-7241  #180-7243  #180-7245  #180-7247  #180-7249
                #180-7251  #180-7253  #180-7255  #180-7257  #182-7365  #183-7372  #183-7374  #184-7381  #184-7383  #184-7385
                #184-7387  #184-7389  #184-7391  #184-7393  #184-7395  #185-7402  #185-7404  #185-7406  #185-7408  #185-7410
                #185-7412  #185-7414  #185-7416  #185-7418  #185-7420  #185-7422  #186-7429  #186-7431  #187-7438  #187-7440
                #187-7442  #187-7444  #188-7451  #188-7453  #188-7455  #189-7462  #189-7464  #189-7466  #189-7468  #189-7470
PAROOT     CREATED BY  MACRO  ON 3-APR-86 AT 22:53	PAGE 48

MACRO CROSS REFERENCE                                   CREF

MACRO NAME	REFERENCES

                #189-7472  #189-7474  #190-7481  #190-7483  #190-7485  #190-7487  #190-7489  #190-7491  #190-7493  #190-7495
                #190-7497  #190-7499  #190-7501  #190-7503  #190-7505  #190-7507  #190-7509  #190-7511  #190-7514  #192-7541
                #192-7543  #193-7550  #193-7552  #193-7554  #193-7556  #193-7558  #193-7560  #193-7562  #193-7564  #193-7566
                #193-7568  #193-7570  #193-7572  #193-7574  #193-7576  #193-7578  #193-7581  #193-7584
DIR$  		#50-2217    50-2217   #68-2936    70-3065    70-3069    71-3136    72-3185    72-3189    72-3194    73-3242
                 74-3290    75-3350   #80-3574    80-3574   #85-3783    85-3783   #87-3836    90-3943    94-4059    100-4279
                 106-4490   108-4586   110-4662  #149-6125   149-6125  #157-6478  #160-6594   160-6594  #160-6603   160-6603
                #223-8613   223-8640  #257-9984   257-9991   257-9993   257-9997   257-10004
ERCON$		#5-172
ERROR$		#5-157      47-2118    49-2189    49-2192    51-2260    54-2366    56-2428    70-3079    70-3081    71-3149
                 72-3197    73-3247    74-3307    75-3360    80-3589    85-3798    88-3877    94-4075    97-4177    101-4315
                 101-4319   101-4322   101-4325   104-4455   106-4510   108-4607   111-4708   115-4886   117-4981   134-5596
                 152-6231   152-6234   155-6401   159-6551   167-6804   167-6807   167-6810   172-6950   199-7760   224-8698
                 224-8701   227-8818   229-8903   230-8980   236-9213   237-9253   239-9315   239-9318
ERR$  		#50-2217   #70-3065   #70-3069   #71-3136   #72-3185   #72-3189   #72-3194   #73-3242   #74-3290   #75-3350
                #80-3574   #85-3783   #90-3943   #94-4059   #100-4279  #106-4490  #108-4586  #110-4662  #149-6125  #160-6594
                #160-6603  #223-8640  #257-9991  #257-9993  #257-9997  #257-10004
EXCH$ 		#6-223
EXIT$S		#157-6478  #160-6603
FATAL$		#5-164
IKL$  		#8-252
IOKL$ 		#8-280     #117-4985
KLDR$ 		#87-3836    106-4530
KLDW$ 		#87-3836    108-4627
KLDX$ 		#87-3836    111-4729
MOV$  		#50-2217   #50-2217   #80-3574   #80-3574   #80-3574   #80-3574   #80-3574   #80-3574   #80-3574   #80-3574
                #80-3574   #80-3574   #80-3574   #85-3783   #85-3783   #85-3783   #85-3783   #85-3783   #85-3783   #85-3783
                #85-3783   #85-3783   #85-3783   #85-3783   #149-6125  #149-6125  #160-6594  #160-6594  #160-6594  #160-6594
                #160-6594  #160-6594
MRKT$ 		#87-3836    91-3972
MVB$  		#80-3574    80-3574   #85-3783    85-3783   #160-6594   160-6594
NBL$  		#70-3087    70-3087
NSERR$		#6-201      181-7265   181-7267   181-7269   181-7270   181-7271   181-7272   181-7273   181-7274   181-7275
                 181-7276   181-7277   181-7278   181-7283   181-7284   181-7285   181-7286   181-7287   181-7288   181-7289
                 181-7290   181-7291   181-7293   181-7294   181-7295   181-7296   181-7297   181-7298   181-7300   181-7301
                 181-7302   181-7303   181-7304   181-7305   181-7306   181-7307   181-7309   181-7310   181-7311   181-7312
                 181-7313   181-7314   181-7315   181-7316   181-7318   181-7319   181-7320   181-7321   181-7322   181-7324
                 181-7325   181-7327   181-7328   181-7329   181-7330   181-7331   181-7332   181-7333   181-7335   181-7336
                 181-7338   181-7340   181-7342   181-7343   181-7344   181-7345   181-7347   181-7348   181-7350   181-7352
                 181-7354   181-7356   181-7358
OFF$  		#70-3087   #70-3087   #70-3087   #70-3087   #70-3087   #70-3092   #70-3092   #70-3092   #70-3092   #70-3092
                #70-3092   #70-3092   #70-3092   #70-3092   #71-3155   #71-3155   #71-3155   #71-3155   #71-3155   #71-3155
                #71-3155   #71-3155   #71-3155   #72-3203   #72-3203   #72-3203   #72-3203   #72-3203   #72-3203   #72-3203
                #72-3203   #72-3203   #72-3206   #72-3206   #72-3206   #72-3206   #72-3206   #72-3206   #72-3206   #72-3206
                #72-3206   #72-3209   #72-3209   #72-3209   #72-3209   #72-3209   #72-3209   #72-3209   #72-3209   #72-3209
                #73-3253   #73-3253   #73-3253   #73-3253   #73-3253   #73-3253   #73-3253   #73-3253   #73-3253   #74-3313
                #74-3313   #74-3313   #74-3313   #74-3313   #74-3313   #74-3313   #74-3313   #74-3313   #75-3366   #75-3366
                #75-3366   #75-3366   #75-3366   #75-3366   #75-3366   #75-3366   #75-3366   #91-3972   #91-3972   #91-3972
                #91-3972   #91-3972   #91-3972   #224-8708  #224-8708  #224-8708  #224-8708  #224-8708  #224-8708  #224-8708
                #224-8708  #224-8708  #260-10102 #260-10102 #260-10102 #260-10102 #260-10102 #260-10102 #260-10102 #260-10102
                #260-10102 #260-10111 #260-10111 #260-10111 #260-10111 #260-10111 #260-10111 #260-10111 #260-10111 #260-10111
                #260-10120 #260-10120 #260-10120 #260-10120 #260-10120 #260-10120 #260-10120 #260-10120 #260-10120 #260-10125
PAROOT     CREATED BY  MACRO  ON 3-APR-86 AT 22:53	PAGE 49

MACRO CROSS REFERENCE                                   CREF

MACRO NAME	REFERENCES

                #260-10125 #260-10125 #260-10125 #260-10125 #260-10125 #260-10125 #260-10125 #260-10125
PARVR$		#34-1449    39-1729    39-1729
POP   		#4-133     #51-2256   #54-2360   #58-2539   #60-2586   #61-2621   #67-2829   #68-2869   #68-2870   #68-2883
                #76-3415   #77-3456   #81-3627   #81-3642   #90-3950   #97-4173   #99-4261   #103-4398  #103-4400  #108-4603
                #111-4705  #113-4796  #115-4862  #117-4978  #117-4991  #119-5048  #122-5134  #126-5269  #128-5340  #130-5410
                #132-5503  #134-5593  #136-5675  #137-5710  #141-5849  #145-6004  #147-6067  #150-6161  #152-6228  #154-6309
                #155-6398  #162-6661  #165-6770  #165-6772  #196-7663  #199-7745  #199-7748  #199-7756  #207-8062  #208-8073
                #208-8074  #208-8075  #208-8077  #209-8127  #211-8191  #211-8192  #214-8295  #216-8369  #219-8470  #224-8669
                #229-8889  #229-8897  #230-8976  #232-9063  #234-9131  #236-9194  #236-9202  #237-9232  #238-9299  #239-9309
                #243-9420  #244-9465  #244-9483  #249-9715  #252-9811  #252-9818  #253-9875  #256-9956  #257-10014 #259-10067
                #259-10071
PRDP$ 		#87-3836   #102-4345
PREX$ 		#87-3836   #102-4363
PUSH  		#4-139      47-2118    49-2189    49-2192    51-2252    51-2260    54-2343    54-2348    54-2352    54-2366
                 56-2428    58-2513    60-2575    60-2579    60-2583    61-2618    62-2643    64-2708    66-2786    68-2872
                 70-3079    70-3081    71-3149    72-3197    73-3247    74-3307    75-3360    76-3404    77-3445    80-3589
                 81-3618    81-3629    85-3798    88-3877    89-3907    89-3912    90-3945    94-4075    97-4155    97-4177
                 99-4231    99-4247    101-4315   101-4319   101-4322   101-4325   103-4391   103-4396   103-4406   104-4415
                 104-4455   106-4510   108-4589   108-4607   111-4708   113-4774   114-4835   115-4886   116-4925   117-4964
                 117-4981   117-4988   119-5019   122-5118   126-5248   127-5304   129-5369   132-5495   134-5566   134-5596
                 136-5662   136-5668   137-5703   141-5829   143-5947   145-5991   145-5994   145-5995   147-6064   149-6127
                 150-6157   152-6210   152-6231   152-6234   153-6262   154-6305   155-6372   155-6401   158-6505   158-6507
                 158-6508   159-6551   162-6654   165-6740   165-6741   165-6743   167-6804   167-6807   167-6810   172-6950
                 196-7650   198-7706   199-7742   199-7760   207-8028   207-8040   207-8058   209-8106   210-8157   210-8159
                 213-8254   213-8255   213-8256   213-8261   213-8262   213-8263   213-8268   213-8269   216-8347   219-8443
                 222-8572   223-8616   224-8698   224-8701   227-8818   228-8848   229-8881   229-8903   230-8937   230-8980
                 232-9058   232-9059   234-9126   234-9127   236-9186   236-9205   236-9213   237-9253   238-9280   238-9283
                 238-9294   239-9315   239-9318   243-9391   243-9396   243-9401   243-9406   243-9411   243-9416   244-9458
                 244-9466   245-9530   246-9569   246-9581   247-9618   248-9657   248-9668   248-9670   252-9803   252-9804
                 252-9808   252-9814   253-9866   256-9951   257-10010  259-10054  259-10060
QDPB$ 		#70-3092   #70-3092   #71-3155   #71-3155   #72-3203   #72-3203   #72-3206   #72-3206   #72-3209   #72-3209
                #73-3253   #73-3253   #74-3313   #74-3313   #75-3366   #75-3366   #224-8708  #224-8708  #260-10102 #260-10102
                #260-10111 #260-10111 #260-10120 #260-10120 #260-10125 #260-10125
QDPB$S		#80-3574    80-3574   #85-3783    85-3783   #160-6594   160-6594
QIOW$ 		#68-2936    70-3092    71-3155    72-3203    72-3206    72-3209    73-3253    74-3313    75-3366   #223-8613
                 224-8708  #257-9984   260-10102  260-10111  260-10120  260-10125
QIOW$S		#68-2936    80-3574    85-3783   #157-6478   160-6594
RETURN		#4-147      47-2106    47-2117    48-2158    49-2187    50-2220    51-2250    52-2289    53-2316    54-2361
                 55-2396    56-2426    70-3076    71-3140    71-3144    72-3193    73-3244    74-3296    75-3354    76-3416
                 77-3457    78-3511    79-3544    80-3580    80-3582    81-3628    82-3684    83-3715    84-3756    85-3791
                 90-3951    94-4070    99-4262    100-4282   100-4290   104-4453   106-4508   108-4604   111-4706   113-4797
                 117-4979   119-5050   122-5135   124-5214   126-5270   128-5341   130-5411   132-5504   134-5594   135-5630
                 136-5678   137-5711   138-5744   139-5795   141-5851   145-6005   146-6037   147-6068   148-6098   150-6162
                 152-6229   154-6310   155-6399   159-6545   162-6662   165-6773   169-6876   172-6948   196-7665   205-7998
                 208-8078   209-8128   211-8193   214-8296   216-8370   219-8471   222-8583   224-8671   225-8752   226-8786
                 227-8816   229-8898   230-8977   231-9040   233-9104   235-9179   239-9313   243-9421   244-9484   249-9716
                 252-9829   253-9876   256-9958   258-10026  259-10072
RVP$  		#80-3574    80-3574   #85-3783    85-3783   #160-6594   160-6594
SPERR$		#6-211     #191-7522  #191-7524  #191-7526  #191-7527  #191-7528  #191-7530  #191-7531  #191-7532  #191-7534
WTSE$S		#87-3836    149-6125
$DEF  		#87-3836    87-3838
.ENB6 		#157-6478  #160-6602
PAROOT     CREATED BY  MACRO  ON 3-APR-86 AT 22:53	PAGE 50

MACRO CROSS REFERENCE                                   CREF

MACRO NAME	REFERENCES

.INH6 		#157-6478  #160-6597
ABRTC -- ABORT COMMAND MODULE 7	MACRO M1113  03-APR-86 22:56
TABLE OF CONTENTS

    34- 1442	.ABRTC -- THE "ABORT" COMMAND 7602.23
    35- 1466	.ABORT -- ABORT CURRENT OPERATION SUBROUTINE 7707.12
    38- 1561	.CONTC -- THE "CONTINUE" COMMAND 7611.17
    40- 1648	.DPOSC -- THE "DEPOSIT" COMMAND DISPATCH 7602.23
    41- 1686	.DPOSD -- THE "DEPOSIT <NUMERICAL OBJECT>" COMMAND DISPATCH 7602.29
    42- 1749	.EXAMC -- THE "EXAMINE" COMMAND DISPATCH 7602.16
    43- 1789	.EXAMD -- THE "EXAMINE <NUMERICAL OBJECT>" COMMAND DISPATCH 7602.29
    44- 1852	.DPOBJ -- THE "DEPOSIT <OBJECT>" COMMAND DISPATCH 7602.29
    45- 1890	.EXOBJ -- THE "EXAMINE <OBJECT>" COMMAND DISPATCH 7602.16
    46- 1928	.EDEWD -- THE EXAMINE / DEPOSIT "<ELEVEN> <NUMERICAL OBJECT>" COMMAND 7602.29
    47- 1941	.EDKLD -- THE EXAMINE / DEPOSIT "<TEN> <NUMERICAL OBJECT>" COMMAND 7609.10
    49- 2029	.DFCOM -- COMMON DIAGNOSTIC FUNCTION ROUTINE 7603.30
    50- 2082	.DFRED -- DIAGNOSTIC FUNCTION READ 7602.15
    51- 2171	.DFWRT -- DIAGNOSTIC FUNCTION WRITE 7608.20
    52- 2212	.DFXCT -- DIAGNOSTIC FUNCTION EXECUTE 7602.15
    53- 2246	.XFXCK -- SUBROUTINES TO RANGE CHECK DIAG FUNCTIONS 7509.26
    56- 2337	.DISCC -- THE "DISCONNECT" COMMAND 7702.28
    57- 2412	.DPOSE -- THE "DEPOSIT <ELEVEN>" COMMAND 7602.29
    59- 2482	.DPEWD -- THE "DEPOSIT <ELEVEN> <NUMERICAL OBJECT>" COMMAND 7602.29
    60- 2521	.EXAME -- THE "EXAMINE <ELEVEN>" COMMAND 7602.29
    62- 2614	.EXEWD -- THE "EXAMINE <ELEVEN> <NUMERICAL OBJECT>" COMMAND 7602.29
    65- 2676	.DEPAR -- THE "DEPOSIT AR" COMMAND 7603.21
    66- 2717	.DPOST -- THE "DEPOSIT <TEN>" COMMAND 7602.15
    69- 2831	.DPKLD -- THE "DEPOSIT <TEN> <NUMERICAL OBJECT>" COMMAND 7602.29
    70- 2869	.EXAMT -- THE "EXAMINE <TEN>" COMMAND 7602.05
    72- 2989	.EXKLD -- THE "DEPOSIT <TEN> <NUMERICAL OBJECT>" COMMAND 7609.10
    73- 3016	.RDAPR -- SUBROUTINE TO READ THE STATE OF THE KL APR 7509.24
    78- 3193	.EXCTC -- THE "XCT" (EXECUTE) COMMAND 7602.17
    80- 3270	.EXDTE -- THE "EXAMINE DTE-20" COMMAND 7603.20
    81- 3298	TYPDTE -- TYPE OUT DTE REGISTERS SYMBOLICALLY
    82- 3407	STATYP -- SYMBOLIC STATUS REGISTER TYPE OUT
    83- 3465	TYPDX1 -- SYMBOLIC DEXWD1-DEXWD3 TYPE OUT
    84- 3490	TYPAD2 -- SYMBOLIC TENAD1-TENAD2 TYPE OUT
    85- 3568	TYPDG1 -- SYMBOLIC DIAG1 TYPE OUT
    86- 3612	TYPDG3 -- SYMBOLIC DIAG3 TYPE OUT
    89- 3668	.EXAD  -- KL DATA PATH BOARD EXAMINES 7602.16
    90- 3709	.EXVAB -- KL PC BOARD AND SMALL REGISTER EXAMINES 7602.16
    92- 3754	.EXAMF -- THE "EXAMINE FLAGS" COMMAND 7602.23
    94- 3815	.EXAMK -- THE "EXAMINE KL" COMMAND 7602.23
    95- 3855	.EXCRA -- SMALL REGISTER EXAMINES 7609.10
    98- 3907	.EXMPI -- THE "EXAMINE PI" COMMAND 7602.23
   100- 3978	.EXREG -- THE "EXAMINE REGISTERS" COMMAND 7602.16
   101- 3995	.RDDPB -- SUBROUTINES TO READ THE KL DATA PATH BOARDS 7509.23
   103- 4067	.RDFLG -- SUBROUTINE TO READ THE KL PC FLAGS 7511.24
   105- 4134	.RDPI  -- SUBROUTINE TO READ THE PI BOARDS 7510.16
   107- 4198	.RDSMR -- SUBROUTINE TO READ SMALL KL REGISTERS 7511.05
   110- 4331	.RDVXX -- KL VMA BOARD READ SUBROUTINES 7510.21
   112- 4468	.GTDAT -- SUBROUTINE TO INPUT THE CURRENT DATE 7702.15
   114- 4623	.GTTIM -- SUBROUTINE TO INPUT A TIME VALUE 7702.15
   115- 4734	.TYDAT -- SUBROUTINE TO TYPE A DATE 7702.16
   116- 4797	.TYTIM -- TIME OUTPUT SUBROUTINE 7702.16
   118- 4883	.HALTC -- THE "HALT" COMMAND 7710.11
   120- 4948	.INITC -- THE "INITIALIZE" COMMAND 7602.16
   121- 4974	.INIT  -- INITIALIZATION SUBROUTINE 7509.26
   122- 5016	.INKLF -- SUBROUTINE TO SET UP KL STATE WORD 7601.09
   125- 5129	.INICP -- INITIALIZE THE COMMAND PARSER 7601.21
   130- 5266	.KLE -- ROUTINE TO RETURN DEFAULT KLERR COMMANDS
KLEDEF -- KLERR SNAPSHOT DEFAUL	MACRO M1113  03-APR-86 22:56
TABLE OF CONTENTS

   131- 5368	.SNAP -- ROUTINE TO MANUALLY PERFORM A SNAPSHOT
   134- 5439	.MARKC -- THE "MARK/UNMARK-MICROCODE" COMMAND 7910.19
   137- 5539	.RESTC -- THE "RESET" COMMAND DISPATCH 7710.11
   138- 5579	.RSALL -- THE "RESET ALL" COMMAND 7602.18
   139- 5605	.RSTPI -- THE "RESET PI" COMMAND 7607.21
   140- 5642	.RSPAG -- THE "RESET PAG" COMMAND 7607.21
   143- 5729	.RUNCM -- THE "RUN" AND "MCR" COMMANDS 7607.14
   146- 5810	.TAKEC -- THE "TAKE" COMMAND
   147- 5873	.GTR50 -- GET A .RAD50 WORD 7602.18
   149- 5928	.QUITC -- THE "QUIT" COMMAND 7602.16
   152- 5988	.RSTRC -- THE "RESTORE" COMMAND DISPATCH 8306.09
   153- 6017	.RSACB-- THE "RESTORE AC-BLOCK" COMMAND 8306.09
   154- 6081	.SAVEC -- THE "SAVE" COMMAND DISPATCH 8306.09
   155- 6110	.SVACB-- THE "SAVE AC-BLOCK" COMMAND 8306.09
   156- 6139	.SVPC -- THE "SAVE PC" COMMAND 8306.09
   157- 6171	.SAVFL -- SUBROUTINE TO READ THE KL PC FLAGS
   159- 6238	.SAVPC -- PC READ SUBROUTINE 8306.17
   161- 6346	.SCACB -- SET AC-BLOCK COMMAND
   162- 6385	.SACBK -- SET AC BLOCK ROUTINE
   163- 6456	.WHACB -- WHAT AC BLOCK COMMAND
   164- 6486	.SWPC -- SWEEP AC BLOCK COMMAND
   165- 6576	.SWPAC -- SWEEP ALL AC BLOCKS FOR FM PARITY ERROR
   166- 6665	.RSSWP -- RESET PARITY STOPS FOR FM SWEEP
   169- 6748	.SCOUT -- SET/CLEAR OUTPUT COMMAND
   170- 6799	.SCOTL -- SET/CLEAR OUTPUT LOG COMMAND
   171- 6912	.SCOTP -- SET/CLEAR OUTPUT LPT COMMAND
   172- 6953	.SCOTY -- SET/CLEAR OUTPUT TTY COMMAND
   173- 6983	.SCOTC -- SET/CLEAR OUTPUT CHECK ROUTINE
   174- 7013	.WHOUT -- WHAT OUTPUT COMMAND
   178- 7125	.SETCM -- THE "SET" AND "CLEAR" COMMAND DISPATCHES 7602.19
   179- 7172	.WHATC -- THE "WHAT" COMMAND DISPATCH 7607.14
   180- 7201	.SCNOT -- THE "SET / CLEAR NOT" COMMAND 7602.19
   182- 7243	.SHUTC -- THE "SHUTDOWN" COMMAND 7707.12
   184- 7319	.STRTC -- THE "START" COMMAND 7602.26
   185- 7348	.STRTT -- THE "START <TEN>" COMMAND 7710.11
   187- 7411	.STRTU -- THE "START MICROCODE" COMMAND 7602.26
   189- 7494	.SCCON -- THE " SET / CLEAR CONSOLE" COMMAND 7702.16
   190- 7539	.WHCON -- THE "WHAT CONSOLE" COMMAND 7607.14
   191- 7563	.SCINC -- THE "SET / CLEAR INCREMENT" COMMAND 7606.20
   192- 7588	.WHINC -- THE "WHAT INCREMENT" COMMAND 7703.25
   193- 7621	.SCMEM -- THE "SET / CLEAR MEMORY" COMMAND 7607.08
   194- 7648	.WHMEM -- THE "WHAT MEMORY" COMMAND 7603.21
   195- 7668	.SCOFS -- THE "SET / CLEAR OFFSET" COMMAND 7602.19
   196- 7681	.WHOFS -- THE "WHAT OFFSET" COMMAND 7603.20
   197- 7697	.SCRLD -- THE "SET / CLEAR RELOAD" COMMAND 7602.19
   198- 7705	.SCRTY -- THE "SET / CLEAR RETRY" COMMAND 7-DEC-78
   199- 7717	.WHRLD -- THE "WHAT RELOAD" COMMAND 7603.21
   200- 7730	.WHRTY -- THE "WHAT RETRY" COMMAND 7-DEC-78
   201- 7754	.SCRPT -- THE "SET / CLEAR REPEAT" COMMAND 7703.25
   202- 7776	.SCTRK -- THE "SET / CLEAR TRACK" COMMAND 7602.19
   203- 7789	.WHTRK -- THE "WHAT TRACKS" COMMAND 7603.20
   204- 7804	.WHATV -- THE "WHAT VERSION" COMMAND 7607.21
   205- 7831	.WHRDW -- DISPLAY KL10 HARDWARE ENVIRONMENT 7910.18
   206- 7929	.SFREC -- SET/CLEAR FAULT COMMAND
   207- 7939	WHAT FAULT CONTINUATION COMMAND
   208- 7996	.SCCLK -- THE "SET / CLEAR CLOCK" COMMAND DISPATCH 7608.19
   211- 8118	.SCCRF -- SET / CLEAR "CLOCK <OBJECT>" 7603.09
SWCPC -- SET / CLEAR CLOCK AND 	MACRO M1113  03-APR-86 22:56
TABLE OF CONTENTS

   213- 8207	.SCPAR -- SET / CLEAR PARITY-STOP "<OBJECT>" 7603.08
   214- 8249	.WHTCL -- THE "WHAT CLOCK" COMMAND 7608.17
   217- 8339	.WHTPS -- THE "WHAT PARITY-STOP" COMMAND 7608.19
   220- 8413	.YESNO -- SUBROUTINE TO ASK "YES OR NO" 7603.22
   223- 8514	.SCDAT -- "SET DATE" COMMAND 7703.04
   225- 8650	.WHDAT -- THE "WHAT" DATE COMMAND 7703.03
   229- 8786	.SCKLN -- THE "SET / CLEAR KLINIK" COMMAND 7709.20
   232- 9073	.WHKLN -- THE "WHAT KLINIK" COMMAND 7702.16
   236- 9227	.ZEROC -- THE "ZERO" COMMAND 7609.15
ABRTC -- ABORT COMMAND MODULE 7	MACRO M1113  03-APR-86 22:56  PAGE 33
COPYRIGHT PAGE

   1410					.TITLE	ABRTC -- ABORT COMMAND MODULE 7602.23
   1411
   1412						.IDENT	"005000"
   1413					;
   1414					;                             COPYRIGHT (C) 1975, 1984 BY
   1415					;                     DIGITAL EQUIPMENT CORPORATION, MAYNARD MASS.
   1416					;
   1417					;       THIS SOFTWARE IS FURNISHED UNDER A LICENSE AND MAY BE  USED  AND  COPIED
   1418					;       ONLY IN ACCORDANCE WITH THE TERMS OF SUCH LICENSE AND WITH THE INCLUSION
   1419					;       OF THE ABOVE COPYRIGHT NOTICE.  THIS SOFTWARE OR ANY OTHER COPIES THERE-
   1420					;       OF  MAY NOT BE PROVIDED OR OTHERWISE MADE AVAILABLE TO ANY OTHER PERSON.
   1421					;       NO TITLE TO OR OWNERSHIP OF THE SOFTWARE IS HEREBY TRANSFERRED.
   1422					;
   1423					;       THE INFORMATION CONTAINED IN THIS SOFTWARE IS SUBJECT TO CHANGE  WITHOUT
   1424					;       NOTICE  AND SHOULD NOT BE CONSTRUED AS A COMMITMENT BY DIGITAL EQUIPMENT
   1425					;       CORPORATION.
   1426					;
   1427					;       DIGITAL ASSUMES NO RESPONSIBILITY FOR THE  USE  OR  RELIABILITY  OF  ITS
   1428					;       SOFTWARE ON EQUIPMENT WHICH IS NOT SUPPILED BY DIGITAL.
   1429					;
   1430					;		MODULE: ABORT COMMAND
   1431					;
   1432					;		VERSION: 05-00
   1433					;
   1434					;		AUTHOR: R. BELANGER
   1435					;
   1436					;		DATE: 7602.23
   1437					;
   1438					;	THIS MODULE CONTAINS:
   1439					;
   1440					;	1) ABORT COMMAND CODE
ABRTC -- ABORT COMMAND MODULE 7	MACRO M1113  03-APR-86 22:56  PAGE 34
.ABRTC -- THE "ABORT" COMMAND 7602.23

   1442					.SBTTL	.ABRTC -- THE "ABORT" COMMAND 7602.23
   1443
   1444					;+
   1445					; .ABRTC -- THE "ABORT" COMMAND
   1446					;
   1447					; THIS ROUTINE CALLS THE ABORT SUBROUTINE ".ABORT", Q.V.
   1448					;
   1449					; INPUT ARGUMENTS:
   1450					;
   1451					;	NONE.
   1452					;
   1453					; OUTPUT ARGUMENTS:
   1454					;
   1455					;	NONE.
   1456					;
   1457					; ERROR CODES RETURNED:
   1458					;
   1459					;	NONE.
   1460					;-
   1461
   1462	000000				.ABRTC::
   1463	000000					CALL	.CKEOC		; MUST HAVE E-O-C
	000000	004737 	000000G			 JSR	PC,.CKEOC
   1464					;	CALLR	.ABORT		; ABORT CURRENT KL OPERATION AND EXIT
ABRTC -- ABORT COMMAND MODULE 7	MACRO M1113  03-APR-86 22:56  PAGE 35
.ABORT -- ABORT CURRENT OPERATION SUBROUTINE 7707.12

   1466					.SBTTL	.ABORT -- ABORT CURRENT OPERATION SUBROUTINE 7707.12
   1467
   1468					;+
   1469					; .ABORT -- SUBROUTINE TO ABORT THE CURRENT KL PROCESS
   1470					;
   1471					; THIS SUBROUTINE ABORTS THE CURRENT KL PROCESS AND RETURNS WITH
   1472					; THE KL CLOCK RUNNING IN THE HALT LOOP. IF THE "HALT" FAILS, THE
   1473					; KL MICROCODE IS RESTARTED. THE CONTINUEABILITY OF THE KL IS
   1474					; INDICATED BY THE STATE OF THE "KF.CON" FLAG BIT (Q.V.) IN ".KLFLG".
   1475					;
   1476					; SEQUENCE OF OPERATION:
   1477					;
   1478					;	(A) THE KL IS HALTED,
   1479					;	(B) IF THE HALT WINS GO TO (E), OTHERWISE GO TO (C),
   1480					;	(C) THE MICRO CODE IS RESTARTED AT CRAM ADDRESS 0000,
   1481					;	(D) SECONDARY PROTOCOL IS STARTED
   1482					;	(E) EXIT.
   1483					;
   1484					; INPUT ARGUMENTS:
   1485					;
   1486					;	NONE.
   1487					;
   1488					; OUTPUT ARGUMENTS:
   1489					;
   1490					;	NONE.
   1491					;
   1492					; ERROR CODES RETURNED:
   1493					;
   1494					;	CFH -- CAN'T FIND KL HALT LOOP.
   1495					;	FRF -- FUNCTION READ FAILED.
   1496					;	FWF -- FUNCTION WRITE FAILED.
   1497					;	FXF -- FUNCTION EXECUTE FAILED.
   1498					;	UNL -- UCODE NOT LOADED.
   1499					;
   1500					; NOTE:
   1501					;
   1502					;	THE CONTINUEABILITY OF THE KL IS NOT GUARANTEED BY THIS
   1503					;	SUBROUTINE.
   1504					;-
ABRTC -- ABORT COMMAND MODULE 7	MACRO M1113  03-APR-86 22:56  PAGE 36
.ABORT -- ABORT CURRENT OPERATION SUBROUTINE 7707.12

   1506						.ENABL	LSB
   1507
   1508	000004				.ABORT::
   1509	000004					PUSH	R0		; SAVE R0 ON THE STACK
	000004	010046 				 MOV	R0,-(SP)
   1510	000006					PUSH	#.ABRT0		; .IN CASE ".KLSTP" TRAPS
	000006	012746 	000032'			 MOV	#.ABRT0,-(SP)
   1511	000012	010637 	000000G			MOV	SP,.TRPTV	; ..STACK POINTER FOR RETURN
   1512	000016					CALL	.KLSTP		; ..HALT THE KL
	000016	004737 	000000G			 JSR	PC,.KLSTP
   1513	000022	005726 				TST	(SP)+		; ..CLEAR RETURN
   1514	000024	005037 	000000G			CLR	.TRPTV		; .AND TRAP VECTOR
   1515	000030	000410 				BR	10$		; .AND EXIT
   1516						;
   1517	000032				.ABRT0::			; .GET HERE IF ".KLSTP" TRAPPED
   1518	000032	005000 				CLR	R0		; .CLEAR R0 (STACK POPPED BY ".PTTRP")
   1519	000034					CALL	.STUCD		; .(RE)START THE UCODE
	000034	004737 	000000G			 JSR	PC,.STUCD
   1520	000040	052737 	000000G	000002G		BIS	#EF.CRI,.COMEF+2 ; .DECLARE THE COMM REGION INVALID
   1521	000046					CALL	..DTP2		; .START SECONDARY PROTOCOL
	000046	004737 	000000G			 JSR	PC,..DTP2
   1522	000052				10$:
   1523	000052					POP	R0		; .RESTORE R0
	000052	012600 				 MOV	(SP)+,R0
   1524	000054					CALL	KLPSTP		; [**]
	000054	004737 	000000G			 JSR	PC,KLPSTP
   1525	000060					RETURN			; TO CALLER
	000060	000207 				 RTS	PC
   1526
   1527						.DSABL	LSB
ABRTC -- ABORT COMMAND MODULE 7	MACRO M1113  03-APR-86 22:56  PAGE 37
.ABORT -- ABORT CURRENT OPERATION SUBROUTINE 7707.12

   1529
   1530					.TITLE	CONTC -- CONTINUE COMMAND MODULE 7611.17
   1531
   1532						.IDENT	"005000"
   1533
   1534					;
   1535					;                             COPYRIGHT (C) 1975, 1984, 1985 BY
   1536					;                     DIGITAL EQUIPMENT CORPORATION, MAYNARD MASS.
   1537					;			AL RIGHTS RESERVED.
   1538					;       THIS SOFTWARE IS FURNISHED UNDER A LICENSE AND MAY BE  USED  AND  COPIED
   1539					;       ONLY IN ACCORDANCE WITH THE TERMS OF SUCH LICENSE AND WITH THE INCLUSION
   1540					;       OF THE ABOVE COPYRIGHT NOTICE.  THIS SOFTWARE OR ANY OTHER COPIES THERE-
   1541					;       OF  MAY NOT BE PROVIDED OR OTHERWISE MADE AVAILABLE TO ANY OTHER PERSON.
   1542					;       NO TITLE TO OR OWNERSHIP OF THE SOFTWARE IS HEREBY TRANSFERRED.
   1543					;
   1544					;       THE INFORMATION CONTAINED IN THIS SOFTWARE IS SUBJECT TO CHANGE  WITHOUT
   1545					;       NOTICE  AND SHOULD NOT BE CONSTRUED AS A COMMITMENT BY DIGITAL EQUIPMENT
   1546					;       CORPORATION.
   1547					;
   1548					;       DIGITAL ASSUMES NO RESPONSIBILITY FOR THE  USE  OR  RELIABILITY  OF  ITS
   1549					;       SOFTWARE ON EQUIPMENT WHICH IS NOT SUPPILED BY DIGITAL.
   1550					;
   1551					;		VERSION: 05-00
   1552					;
   1553					;		AUTHOR: R. BELANGER
   1554					;
   1555					;		DATE: 7611.17
   1556					;
   1557					;	THIS MODULE CONTAINS:
   1558					;
   1559					;	1) CONTINUE COMMAND CODE
CONTC -- CONTINUE COMMAND MODUL	MACRO M1113  03-APR-86 22:56  PAGE 38
.CONTC -- THE "CONTINUE" COMMAND 7611.17

   1561					.SBTTL	.CONTC -- THE "CONTINUE" COMMAND 7611.17
   1562
   1563					;+
   1564					; .CONTC -- THE "CONTINUE" COMMAND
   1565					;
   1566					; THIS ROUTINE EXECUTES THE "CONTINUE" CONSOLE FUNCTION
   1567					;
   1568					; INPUT ARGUMENTS:
   1569					;
   1570					;	NONE.
   1571					;
   1572					; OUTPUT ARGUMENTS:
   1573					;
   1574					;	NONE.
   1575					;
   1576					; ERROR CORES RETURNED:
   1577					;
   1578					;	KNC -- KL IS NOT CONTINUABLE
   1579					;-
   1580
   1581	000062				.CONTC::
   1582	000062					CALL	.CKEOC		; CHECK E-O-C
	000062	004737 	000000G			 JSR	PC,.CKEOC
   1583	000066					PUSH	.KLFLG		; SAVE ".KLFLG" ON THE STACK
	000066	013746 	000000G			 MOV	.KLFLG,-(SP)
   1584	000072	032716 	000200 			BIT	#KF.CON,(SP)	; .CAN WE CONTINUE THE KL?
   1585	000076	001427 				BEQ	CONKNC		; .NO -- GIVE "KNC" ERROR
   1586	000100	032716 	010000 			BIT	#KF.SIM,(SP)	; .YES -- ARE WE IN SINGLE INSTRUCTION MODE?
   1587	000104	001412 				BEQ	20$		; .NO -- JUST CONTINUE THE KL
   1588	000106	032716 	100000 			BIT	#KF.CLK,(SP)	; .YES -- IS THE CLOCK RUNNING?
   1589	000112	001002 				BNE	10$		; .YES -- DON'T START IT AGAIN
   1590	000114					CALL	.STCLK		; .NO -- START IT
	000114	004737 	000000G			 JSR	PC,.STCLK
   1591	000120				10$:
   1592	000120	012700 	000024 			MOV	#FX.CON,R0	; .SET THE "CONTINUE" BUTTON
   1593	000124					CALL	.FXCT		; .VIA FUNCTION EXECUTE
	000124	004737 	000000G			 JSR	PC,.FXCT
   1594	000130	000407 				BR	30$		; .AND EXIT
   1595						;
   1596	000132				20$:
   1597	000132					CALL	.KLCON		; .DO THE CONTINUE
	000132	004737 	000000G			 JSR	PC,.KLCON
   1598	000136	032716 	040000 			BIT	#KF.RUN,(SP)	; .WAS THE KL RUNNING BEFORE?
   1599	000142	001002 				BNE	30$		; .YES -- JUST EXIT
   1600	000144	005037 	000000G			CLR	.NOERR		; RE-ENABLE ERROR DETECTION
   1601	000150				30$:
   1602	000150	005726 				TST	(SP)+		; .CLEAR THE STACK
   1603	000152					CALLR	.EXITP
	000152	000137 	000000G			 JMP	.EXITP
   1604						;
   1605
   1606	000156				CONKNC:
   1607	000156					ERROR$	KNC		; ERROR -- KL NOT CONTINUEABLE
	000156	012746 	043363 			 MOV	#^RKNC,-(SP)
	000162	104400 				 TRAP	TC.ERR
   1608						;
CONTC -- CONTINUE COMMAND MODUL	MACRO M1113  03-APR-86 22:56  PAGE 39
.CONTC -- THE "CONTINUE" COMMAND 7611.17

   1610
   1611
   1612					.TITLE	DECMD -- DEPOSIT / EXAMINE COMMAND DISPATCH MODULE 7603.30
   1613
   1614						.IDENT	"005000"
   1615
   1616					;
   1617					;                             COPYRIGHT (C) 1975, 1984, 1985 BY
   1618					;                     DIGITAL EQUIPMENT CORPORATION, MAYNARD MASS.
   1619					;			ALL RIGHTS RESERVED.
   1620					;       THIS SOFTWARE IS FURNISHED UNDER A LICENSE AND MAY BE  USED  AND  COPIED
   1621					;       ONLY IN ACCORDANCE WITH THE TERMS OF SUCH LICENSE AND WITH THE INCLUSION
   1622					;       OF THE ABOVE COPYRIGHT NOTICE.  THIS SOFTWARE OR ANY OTHER COPIES THERE-
   1623					;       OF  MAY NOT BE PROVIDED OR OTHERWISE MADE AVAILABLE TO ANY OTHER PERSON.
   1624					;       NO TITLE TO OR OWNERSHIP OF THE SOFTWARE IS HEREBY TRANSFERRED.
   1625					;
   1626					;       THE INFORMATION CONTAINED IN THIS SOFTWARE IS SUBJECT TO CHANGE  WITHOUT
   1627					;       NOTICE  AND SHOULD NOT BE CONSTRUED AS A COMMITMENT BY DIGITAL EQUIPMENT
   1628					;       CORPORATION.
   1629					;
   1630					;       DIGITAL ASSUMES NO RESPONSIBILITY FOR THE  USE  OR  RELIABILITY  OF  ITS
   1631					;       SOFTWARE ON EQUIPMENT WHICH IS NOT SUPPILED BY DIGITAL.
   1632					;
   1633					;		MODULE: DEPOSIT / EXAMINE COMMAND DISPATCH
   1634					;
   1635					;		VERSION: 05-00
   1636					;
   1637					;		AUTHOR: R. BELANGER
   1638					;
   1639					;		DATE: 7603.30
   1640					;
   1641					;	THIS MODULE CONTAINS:
   1642					;
   1643					;	1) DEPOSIT COMMAND DISPATCH CODE
   1644					;	2) DEPOSIT COMMAND DISPATCH TABLES
   1645					;	3) EXAMINE COMMAND DISPATCH CODE
   1646					;	4) EXAMINE COMMAND DISPATCH TABLES
DECMD -- DEPOSIT / EXAMINE COMM	MACRO M1113  03-APR-86 22:56  PAGE 40
.DPOSC -- THE "DEPOSIT" COMMAND DISPATCH 7602.23

   1648					.SBTTL	.DPOSC -- THE "DEPOSIT" COMMAND DISPATCH 7602.23
   1649
   1650					;+
   1651					; .DPOSC -- THE "DEPOSIT" COMMAND.
   1652					;
   1653					; THIS IS THE TOP LEVEL DEPOSIT ROUTINE WHICH DISPATCHES TO THE
   1654					; PROPER ROUTINE FOR THE OBJECT TO BE DEPOSITED.
   1655					;
   1656					; INPUT ARGUMENTS:
   1657					;
   1658					;	NONE.
   1659					;
   1660					; OUTPUT ARGUMENTS:
   1661					;
   1662					;	NONE.
   1663					;
   1664					; ERROR CODES RETURNED:
   1665					;
   1666					;	NSK -- NO SUCH KEYWORD
   1667					;-
   1668
   1669	000164				.DPOSC::
   1670	000164	013703 	000000G			MOV	.MEMFL,R3	; OFFSET FLAG TO R3
   1671	000170					CALL	.CKARG		; LOOK FOR THE ARGUMENT
	000170	004737 	000000G			 JSR	PC,.CKARG
   1672	000174	001435 				BEQ	.DPOBJ		; DISPATCH FOR OBJECT
   1673	000176				.DPOSA::			; HERE TO DISPATCH FOR MEMORY
   1674	000176					CALLR	@DPOATB(R3)	; DISPATCH
	000176	000173 	000000'			 JMP	@DPOATB(R3)
   1675						;
   1676
   1677	000000					.PSECT	DATA
   1678
   1679	000000				DPOATB:
   1680	000000	002244'				.WORD	.DPOST		; DEPOSIT TEN
   1681	000002	001372'				.WORD	.DPOSE		; DEPOSIT ELEVEN WORD
   1682
   1683	000202					.PSECT
   1684
DECMD -- DEPOSIT / EXAMINE COMM	MACRO M1113  03-APR-86 22:56  PAGE 41
.DPOSD -- THE "DEPOSIT <NUMERICAL OBJECT>" COMMAND DISPATCH 76

   1686					.SBTTL	.DPOSD -- THE "DEPOSIT <NUMERICAL OBJECT>" COMMAND DISPATCH 7602.29
   1687
   1688	000202				.DPOSD::			; DEPOSIT DECREMENT
   1689	000202					CALLR	@DPODTB(R3)	; DISPATCH ON MEMORY TYPE FLAG
	000202	000173 	000004'			 JMP	@DPODTB(R3)
   1690						;
   1691
   1692	000004					.PSECT	DATA
   1693
   1694	000004				DPODTB:
   1695	000004	002572'				.WORD	.DPKLD		; KL WORD
   1696	000006	001562'				.WORD	.DPEWD		; PDP-11 WORD
   1697
   1698	000206					.PSECT
   1699
   1700	000206				.DPOSI::			; DEPOSIT INCREMENT
   1701	000206					CALLR	@DPOITB(R3)	; DISPATCH ON MEMORY TYPE FLAG
	000206	000173 	000010'			 JMP	@DPOITB(R3)
   1702						;
   1703
   1704	000010					.PSECT	DATA
   1705
   1706	000010				DPOITB:
   1707	000010	002600'				.WORD	.DPKLI		; KL WORD
   1708	000012	001570'				.WORD	.DPEWI		; PDP-11 WORD
   1709
   1710	000212					.PSECT
   1711
   1712	000212				.DPOSN::			; DEPOSIT NEXT
   1713	000212					CALLR	@DPONTB(R3)	; DISPATCH ON MEMORY TYPE FLAG
	000212	000173 	000014'			 JMP	@DPONTB(R3)
   1714						;
   1715
   1716	000014					.PSECT	DATA
   1717
   1718	000014				DPONTB:
   1719	000014	002606'				.WORD	.DPKLN		; KL WORD
   1720	000016	001576'				.WORD	.DPEWN		; PDP-11 WORD
   1721
   1722	000216					.PSECT
   1723
   1724	000216				.DPOSP::			; DEPOSIT PREVIOUS
   1725	000216					CALLR	@DPOPTB(R3)	; DISPATCH ON MEMORY TYPE FLAG
	000216	000173 	000020'			 JMP	@DPOPTB(R3)
   1726						;
   1727
   1728	000020					.PSECT	DATA
   1729
   1730	000020				DPOPTB:
   1731	000020	002614'				.WORD	.DPKLP		; KL WORD
   1732	000022	001604'				.WORD	.DPEWP		; PDP-11 WORD
   1733
   1734	000222					.PSECT
   1735
   1736	000222				.DPOSZ::			; DEPOSIT THIS
   1737	000222					CALLR	@DPOZTB(R3)	; DISPATCH ON MEMORY TYPE FLAG
	000222	000173 	000024'			 JMP	@DPOZTB(R3)
DECMD -- DEPOSIT / EXAMINE COMM	MACRO M1113  03-APR-86 22:56  PAGE 41-1
.DPOSD -- THE "DEPOSIT <NUMERICAL OBJECT>" COMMAND DISPATCH 76

   1738						;
   1739
   1740	000024					.PSECT	DATA
   1741
   1742	000024				DPOZTB:
   1743	000024	002564'				.WORD	.DPKLT		; KL WORD
   1744	000026	001554'				.WORD	.DPEWT		; PDP-11 WORD
   1745
   1746	000226					.PSECT
   1747
DECMD -- DEPOSIT / EXAMINE COMM	MACRO M1113  03-APR-86 22:56  PAGE 42
.EXAMC -- THE "EXAMINE" COMMAND DISPATCH 7602.16

   1749					.SBTTL	.EXAMC -- THE "EXAMINE" COMMAND DISPATCH 7602.16
   1750
   1751					;+
   1752					; .EXAMC -- THE "EXAMINE" COMMAND DISPATCH.
   1753					;
   1754					; THIS IS THE TOP LEVEL EXAMINE ROUTINE WHICH DETERMINES WHICH
   1755					; OBJECT IS TO BE EXAMINED.
   1756					;
   1757					; INPUT ARGUMENTS:
   1758					;
   1759					;	NONE.
   1760					;
   1761					; OUTPUT ARGUMENTS:
   1762					;
   1763					;	NONE, THIS ROUTINE DISPATCHES TO THE PROPER ROUTINE
   1764					;	FOR THE OBJECT SPECIFIED.
   1765					;
   1766					; ERROR CODES RETURNED:
   1767					;
   1768					;	NONE.
   1769					;-
   1770
   1771	000226				.EXAMC::
   1772	000226	013703 	000000G			MOV	.MEMFL,R3	; MEMORY FLAG TO R3
   1773	000232					CALL	.CKARG		; CHECK THE ARGUMENT
	000232	004737 	000000G			 JSR	PC,.CKARG
   1774	000236	001434 				BEQ	.EXOBJ		; EXAMINE THE OBJECT
   1775						;
   1776	000240				.EXAMA::			; HERE TO DISPATCH FOR MEMORY
   1777	000240					CALLR	@EXMDTB(R3)	; DISPATCH
	000240	000173 	000030'			 JMP	@EXMDTB(R3)
   1778						;
   1779
   1780	000030					.PSECT	DATA
   1781
   1782	000030				EXMDTB:
   1783	000030	002652'				.WORD	.EXAMT		; EXAMINE TEN
   1784	000032	001642'				.WORD	.EXAME		; EXAMINE ELEVEN WORD
   1785
   1786	000244					.PSECT
   1787
DECMD -- DEPOSIT / EXAMINE COMM	MACRO M1113  03-APR-86 22:56  PAGE 43
.EXAMD -- THE "EXAMINE <NUMERICAL OBJECT>" COMMAND DISPATCH 76

   1789					.SBTTL	.EXAMD -- THE "EXAMINE <NUMERICAL OBJECT>" COMMAND DISPATCH 7602.29
   1790
   1791	000244				.EXAMD::			; EXAMINE DECREMENT
   1792	000244					CALLR	@EXADTB(R3)	; DISPATCH ON MEMORY TYPE FLAG
	000244	000173 	000034'			 JMP	@EXADTB(R3)
   1793						;
   1794
   1795	000034					.PSECT	DATA
   1796
   1797	000034				EXADTB:
   1798	000034	003244'				.WORD	.EXKLD		; KL WORD
   1799	000036	002124'				.WORD	.EXEWD		; PDP-11 WORD
   1800
   1801	000250					.PSECT
   1802
   1803	000250				.EXAMI::			; EXAMINE INCREMENT
   1804	000250					CALLR	@EXAITB(R3)	; DISPATCH ON MEMORY TYPE FLAG
	000250	000173 	000040'			 JMP	@EXAITB(R3)
   1805						;
   1806
   1807	000040					.PSECT	DATA
   1808
   1809	000040				EXAITB:
   1810	000040	003252'				.WORD	.EXKLI		; KL WORD
   1811	000042	002132'				.WORD	.EXEWI		; PDP-11 WORD
   1812
   1813	000254					.PSECT
   1814
   1815	000254				.EXAMN::			; EXAMINE NEXT
   1816	000254					CALLR	@EXANTB(R3)	; DISPATCH ON MEMORY TYPE FLAG
	000254	000173 	000044'			 JMP	@EXANTB(R3)
   1817						;
   1818
   1819	000044					.PSECT	DATA
   1820
   1821	000044				EXANTB:
   1822	000044	003260'				.WORD	.EXKLN		; KL WORD
   1823	000046	002140'				.WORD	.EXEWN		; PDP-11 WORD
   1824
   1825	000260					.PSECT
   1826
   1827	000260				.EXAMP::			; EXAMINE PREVIOUS
   1828	000260					CALLR	@EXAPTB(R3)	; DISPATCH ON MEMORY TYPE FLAG
	000260	000173 	000050'			 JMP	@EXAPTB(R3)
   1829						;
   1830
   1831	000050					.PSECT	DATA
   1832
   1833	000050				EXAPTB:
   1834	000050	003266'				.WORD	.EXKLP		; KL WORD
   1835	000052	002146'				.WORD	.EXEWP		; PDP-11 WORD
   1836
   1837	000264					.PSECT
   1838
   1839	000264				.EXAMZ::			; EXAMINE THIS
   1840	000264					CALLR	@EXAZTB(R3)	; DISPATCH ON MEMORY TYPE FLAG
	000264	000173 	000054'			 JMP	@EXAZTB(R3)
DECMD -- DEPOSIT / EXAMINE COMM	MACRO M1113  03-APR-86 22:56  PAGE 43-1
.EXAMD -- THE "EXAMINE <NUMERICAL OBJECT>" COMMAND DISPATCH 76

   1841						;
   1842
   1843	000054					.PSECT	DATA
   1844
   1845	000054				EXAZTB:
   1846	000054	003236'				.WORD	.EXKLT		; KL WORD
   1847	000056	002116'				.WORD	.EXEWT		; PDP-11 WORD
   1848
   1849	000270					.PSECT
   1850
DECMD -- DEPOSIT / EXAMINE COMM	MACRO M1113  03-APR-86 22:56  PAGE 44
.DPOBJ -- THE "DEPOSIT <OBJECT>" COMMAND DISPATCH 7602.29

   1852					.SBTTL	.DPOBJ -- THE "DEPOSIT <OBJECT>" COMMAND DISPATCH 7602.29
   1853
   1854					;+
   1855					; .DPOBJ -- DEPOSIT "OBJECT" COMMAND DISPATCH
   1856					;
   1857					; THIS SUBROUTINE PERFORMS THE DISPATCH FOR THE SPECIFIED DEPOSIT OBJECT
   1858					;
   1859					; INPUT ARGUMENTS:
   1860					;
   1861					;	R3 CONTAINS THE OLD MEMORY TYPE OFFSET
   1862					;
   1863					; OUTPUT ARGUMENTS:
   1864					;
   1865					;	R3 CONTAINS THE CURRENT MEMORY TYPE OFFSET
   1866					;
   1867					; ERROR CODES RETURNED:
   1868					;
   1869					;	NONE.
   1870					;-
   1871
   1872
   1873	000270				.DPOBJ::
   1874	000270	012700 	000000G			MOV	#.DPOTB,R0	; TABLE POINTER TO R0
   1875	000274					CALL	.TSCAN		; SCAN THE TABLE FOR OBJECT
	000274	004737 	000000G			 JSR	PC,.TSCAN
   1876	000300	012001 				MOV	(R0)+,R1	; LEGAL BITS TO R1
   1877	000302	005101 				COM	R1		; INVERT THEM
   1878	000304	040137 	000000G			BIC	R1,.LGLWD	; SET UP NEW LEGAL WORD
   1879	000310					CALLR	@(R0)+		; DISPATCH FOR OBJECT
	000310	000130 				 JMP	@(R0)+
   1880						;
   1881	000312				.DPOKL::
   1882	000312	005003 				CLR	R3		; TEN MEMORY OFFSET TO R3
   1883	000314					CALLR	.DPOST		; GO DO IT
	000314	000137 	002244'			 JMP	.DPOST
   1884						;
   1885	000320				.DPOEL::
   1886	000320	012703 	000002 			MOV	#^D2,R3		; PDP-11 WORD OFFSET TO R3
   1887	000324					CALLR	.DPOSE		; GO DO IT
	000324	000137 	001372'			 JMP	.DPOSE
   1888						;
DECMD -- DEPOSIT / EXAMINE COMM	MACRO M1113  03-APR-86 22:56  PAGE 45
.EXOBJ -- THE "EXAMINE <OBJECT>" COMMAND DISPATCH 7602.16

   1890					.SBTTL	.EXOBJ -- THE "EXAMINE <OBJECT>" COMMAND DISPATCH 7602.16
   1891
   1892					;+
   1893					; .EXOBJ -- THE "EXAMINE <OBJECT>" COMMAND DISPATCH.
   1894					;
   1895					; THIS ROUTINE IS THE DISPATCH FOR ALL OF THE "EXAMINE <OBJECT>" COMMANDS.
   1896					;
   1897					; INPUT ARGUMENTS:
   1898					;
   1899					;	NONE.
   1900					;
   1901					; OUTPUT ARGUMENTS:
   1902					;
   1903					;	NONE.
   1904					;
   1905					; ERROR CODES RETURNED:
   1906					;
   1907					;	NSC -- NO SUCH COMMAND.
   1908					;-
   1909
   1910	000330				.EXOBJ::
   1911	000330	012700 	000000G			MOV	#.EXMTB,R0	; EXAMINE TABLE POINTER TO R0
   1912	000334					CALL	.TSCAN		; SCAN THE TABLE
	000334	004737 	000000G			 JSR	PC,.TSCAN
   1913	000340	011001 				MOV	(R0),R1		; LEGAL BITS TO R1
   1914	000342	005101 				COM	R1		; INVERT THEM
   1915	000344	040137 	000000G			BIC	R1,.LGLWD	; SET UP NEW LEGAL WORD
   1916	000350	014002 				MOV	-(R0),R2	; NAME POINTER TO R2
   1917	000352					CALLR	@4(R0)		; READ AND PRINT THE REGISTER
	000352	000170 	000004 			 JMP	@4(R0)
   1918						;
   1919	000356				.EXMEL::
   1920	000356	012703 	000002 			MOV	#^D2,R3		; PDP-11 OFFSET TO R3
   1921	000362					CALLR	.EXAME		; DO THE EXAMINE
	000362	000137 	001642'			 JMP	.EXAME
   1922						;
   1923	000366				.EXMKL::
   1924	000366	005003 				CLR	R3		; KL MEMORY OFFSET TO R3
   1925	000370					CALLR	.EXAMT		; DO THE EXAMINE
	000370	000137 	002652'			 JMP	.EXAMT
   1926						;
DECMD -- DEPOSIT / EXAMINE COMM	MACRO M1113  03-APR-86 22:56  PAGE 46
.EDEWD -- THE EXAMINE / DEPOSIT "<ELEVEN> <NUMERICAL OBJECT>"

   1928					.SBTTL	.EDEWD -- THE EXAMINE / DEPOSIT "<ELEVEN> <NUMERICAL OBJECT>" COMMAND 7602.29
   1929
   1930	000374				.EDEWD::
   1931	000374				.EDEWP::
   1932	000374	013700 	000000G			MOV	.EDELA,R0	; ADDRESS TO R0
   1933	000400	162700 	000002 			SUB	#^D2,R0		; PREVIOUS WORD ADDRESS
   1934	000404					RETURN			; TO CALLER
	000404	000207 				 RTS	PC
   1935	000406				.EDEWI::
   1936	000406				.EDEWN::
   1937	000406	013700 	000000G			MOV	.EDELA,R0	; ADDRESS TO R0
   1938	000412	062700 	000002 			ADD	#^D2,R0		; NEXT WORD ADDRESS
   1939	000416					RETURN			; TO CALLER
	000416	000207 				 RTS	PC
DECMD -- DEPOSIT / EXAMINE COMM	MACRO M1113  03-APR-86 22:56  PAGE 47
.EDKLD -- THE EXAMINE / DEPOSIT "<TEN> <NUMERICAL OBJECT>" COM

   1941					.SBTTL	.EDKLD -- THE EXAMINE / DEPOSIT "<TEN> <NUMERICAL OBJECT>" COMMAND 7609.10
   1942
   1943						.ENABL	LSB
   1944
   1945	000420				.EDKLP::
   1946	000420					CALL	.EDKLC		; DO COMMON CODE
	000420	004737 	000516'			 JSR	PC,.EDKLC
   1947	000424					CALL	.TPDEC		; DECREMENT ONCE
	000424	004737 	000000G			 JSR	PC,.TPDEC
   1948	000430	000422 				BR	10$		; EXIT THRU COMMON CODE
   1949						;
   1950	000432				.EDKLN::
   1951	000432					CALL	.EDKLC		; DO COMMON CODE
	000432	004737 	000516'			 JSR	PC,.EDKLC
   1952	000436					CALL	.TPINC		; INCREMENT ONCE
	000436	004737 	000000G			 JSR	PC,.TPINC
   1953	000442	000415 				BR	10$		; EXIT THRU COMMON CODE
   1954						;
   1955	000444				.EDKLD::
   1956	000444					CALL	.EDKLC		; DO COMMON CODE
	000444	004737 	000516'			 JSR	PC,.EDKLC
   1957	000450	012701 	000000G			MOV	#.KLINC,R1	; POINT TO THE INCREMENT
   1958	000454					CALL	.TPSUB		; DO THE SUBTRACTION
	000454	004737 	000000G			 JSR	PC,.TPSUB
   1959	000460	000406 				BR	10$		; EXIT THRU COMMON CODE
   1960						;
   1961	000462				.EDKLI::
   1962	000462					CALL	.EDKLC		; DO COMMON CODE
	000462	004737 	000516'			 JSR	PC,.EDKLC
   1963	000466	012701 	000000G			MOV	#.KLINC,R1	; POINT TO THE INCREMENT
   1964	000472					CALL	.TPADD		; DO THE ADDITION
	000472	004737 	000000G			 JSR	PC,.TPADD
   1965	000476				10$:
   1966	000476	032760 	177600 	000002 		BIT	#^C177,2(R0)	; CHECK THE RESULT
   1967	000504	001015 				BNE	EDNKLA		; ERROR IF TOO LARGE
   1968	000506	005760 	000004 			TST	4(R0)		; HOW ABOUT HIGH BITS?
   1969	000512	001012 				BNE	EDNKLA		; TOO LARGE
   1970	000514	000410 				BR	20$		; ALL OK -- RETURN
   1971						;
   1972	000516				.EDKLC::
   1973	000516	012700 	000000G			MOV	#.EDKLX,R0	; AUX ADDRESS POINTER TO R0
   1974	000522	012701 	000000G			MOV	#.EDKLA,R1	; EXAM / DEPOS ADDRESS TO R1
   1975	000526	012120 				MOV	(R1)+,(R0)+	; LOAD CURRENT ADDRESS
   1976	000530	012120 				MOV	(R1)+,(R0)+	; INTO AUXILLIARY ADDRESS BUFFER
   1977	000532	011110 				MOV	(R1),(R0)	; SO
   1978	000534	024040 				CMP	-(R0),-(R0)	; BACK THE POINTER UP
   1979	000536				20$:
   1980	000536					RETURN			; AND GO ON
	000536	000207 				 RTS	PC
   1981
   1982						.DSABL	LSB
   1983
   1984	000540				EDNKLA:
   1985	000540					ERROR$	KLA		; ERROR -- KL ADDRESS ERROR
	000540	012746 	043241 			 MOV	#^RKLA,-(SP)
	000544	104400 				 TRAP	TC.ERR
   1986						;
DECMD -- DEPOSIT / EXAMINE COMM	MACRO M1113  03-APR-86 22:56  PAGE 48
.EDKLD -- THE EXAMINE / DEPOSIT "<TEN> <NUMERICAL OBJECT>" COM

   1988
   1989					.TITLE	DFUNC -- KL10 DIAGNOSTIC FUNCTION MODULE 7603.30
   1990
   1991						.IDENT	"007030"
   1992					;
   1993					;                             COPYRIGHT (C) 1975, 1984, 1985 BY
   1994					;                     DIGITAL EQUIPMENT CORPORATION, MAYNARD MASS.
   1995					;			ALL RIGHTS RESERVED.
   1996					;       THIS SOFTWARE IS FURNISHED UNDER A LICENSE AND MAY BE  USED  AND  COPIED
   1997					;       ONLY IN ACCORDANCE WITH THE TERMS OF SUCH LICENSE AND WITH THE INCLUSION
   1998					;       OF THE ABOVE COPYRIGHT NOTICE.  THIS SOFTWARE OR ANY OTHER COPIES THERE-
   1999					;       OF  MAY NOT BE PROVIDED OR OTHERWISE MADE AVAILABLE TO ANY OTHER PERSON.
   2000					;       NO TITLE TO OR OWNERSHIP OF THE SOFTWARE IS HEREBY TRANSFERRED.
   2001					;
   2002					;       THE INFORMATION CONTAINED IN THIS SOFTWARE IS SUBJECT TO CHANGE  WITHOUT
   2003					;       NOTICE  AND SHOULD NOT BE CONSTRUED AS A COMMITMENT BY DIGITAL EQUIPMENT
   2004					;       CORPORATION.
   2005					;
   2006					;       DIGITAL ASSUMES NO RESPONSIBILITY FOR THE  USE  OR  RELIABILITY  OF  ITS
   2007					;       SOFTWARE ON EQUIPMENT WHICH IS NOT SUPPILED BY DIGITAL.
   2008					;
   2009					;		MODULE: KL10 DIAGNOSTIC FUNCTION
   2010					;
   2011					;		VERSION: 06-13
   2012					;
   2013					;		AUTHOR: R. BELANGER
   2014					;
   2015					;		DATE: 7603.30
   2016					;
   2017					;	THIS MODULE CONTAINS:
   2018					;
   2019					;	1) KL10 DIAGNOSTIC FUNCTION CODE
   2020					;
   2021					;	EDIT HISTORY
   2022					;
   2023					;23-JUN-83  TCO 6.1675	D. WEAVER
   2024					;	DON'T HALT/RESTART KL WHEN DOING FUNCTION READS.
   2025					;
   2026
   2027
DFUNC -- KL10 DIAGNOSTIC FUNCTI	MACRO M1113  03-APR-86 22:56  PAGE 49
.DFCOM -- COMMON DIAGNOSTIC FUNCTION ROUTINE 7603.30

   2029					.SBTTL	.DFCOM -- COMMON DIAGNOSTIC FUNCTION ROUTINE 7603.30
   2030
   2031					;+
   2032					; .DFCOM -- COMMON DIAGNOSTIC FUNCTION ROUTINE
   2033					;
   2034					; THIS ROUTINE WILL INPUT A DIAGNOSTIC FUNCTION READ, WRITE, OR
   2035					; EXECUTE CODE AND RETURN IT IN R0, AFTER CHECKING THAT THE KL
   2036					; IS NOT RUNNING, AND SEEING THAT THE FUNCTION CODE IS IN RANGE.
   2037					;
   2038					; INPUT ARGUMENTS:
   2039					;
   2040					;	NONE.
   2041					;
   2042					; OUTPUT ARGUMENTS:
   2043					;
   2044					;	R0 HOLDS THE FUNCTION CODE.
   2045					;
   2046					; ERROR CODES RETURNED:
   2047					;
   2048					;	IFC -- ILLEGAL FUNCTION CODE
   2049					;	MRA -- MISSING REQUIRED ARGUMENT.
   2050					;-
   2051
   2052	000546				.DFCOM::
   2053	000546					CALL	.CKRUN		; SEE IF THE KL IS RUNNING
	000546	004737 	000000G			 JSR	PC,.CKRUN
   2054	000552	005046 				CLR	-(SP)		; CLEAR A BUFFER ON THE STACK
   2055	000554	005046 				CLR	-(SP)		; .
   2056	000556	005046 				CLR	-(SP)		; ..
   2057	000560	010600 				MOV	SP,R0		; ...POINT TO IT
   2058	000562					CALL	.GTKLN		; ...READ THE FUNCTION CODE
	000562	004737 	000000G			 JSR	PC,.GTKLN
   2059	000566	005760 	000004 			TST	4(R0)		; ...SEE IF WE HAVE A LEGAL CODE
   2060	000572	001031 				BNE	DFCIFC		; ...NO -- COMPLAIN
   2061	000574	005760 	000002 			TST	2(R0)		; ...
   2062	000600	001026 				BNE	DFCIFC		; ...
   2063	000602	105760 	000001 			TSTB	1(R0)		; ...
   2064	000606	001023 				BNE	DFCIFC		; ...
   2065	000610	132710 	177740 			BITB	#^C37,(R0)	; ...IS THIS AN EXECUTE?
   2066	000614	001414 				BEQ	10$		; ...NO -- CONTINUE
   2067	000616	005737 	000066'			TST	STPKL		; ...WANT TO STOP KL?
   2068	000622	001411 				BEQ	10$		; ...NO -- MOVE ON
   2069	000624	032737 	040000 	000000G		BIT	#KF.RUN,.KLFLG	; ...IS THE KL RUNNING?
   2070	000632	001405 				BEQ	10$		; ...NO -- JUST KEEP GOING
   2071	000634	013737 	000000G	000000G		MOV	.KLFLG,.SVKLF	; ...SAVE THE CURRENT FLAGS
   2072	000642					CALL	.KLHLT		; ...HALT THE KL
	000642	004737 	000000G			 JSR	PC,.KLHLT
   2073	000646				10$:
   2074	000646					POP	R0		; ...GET THE CODE INTO R0
	000646	012600 				 MOV	(SP)+,R0
   2075	000650	006300 				ASL	R0		; ..TIMES 2
   2076	000652	022626 				CMP	(SP)+,(SP)+	; ..CLEAR THE STACK
   2077	000654					RETURN			; TO CALLER
	000654	000207 				 RTS	PC
   2078	000656				DFCIFC:
   2079	000656					ERROR$	IFC		; ERROR -- ILLEGAL FUNCTION CODE
	000656	012746 	034463 			 MOV	#^RIFC,-(SP)
DFUNC -- KL10 DIAGNOSTIC FUNCTI	MACRO M1113  03-APR-86 22:56  PAGE 49-1
.DFCOM -- COMMON DIAGNOSTIC FUNCTION ROUTINE 7603.30

	000662	104400 				 TRAP	TC.ERR
   2080						;
DFUNC -- KL10 DIAGNOSTIC FUNCTI	MACRO M1113  03-APR-86 22:56  PAGE 50
.DFRED -- DIAGNOSTIC FUNCTION READ 7602.15

   2082					.SBTTL	.DFRED -- DIAGNOSTIC FUNCTION READ 7602.15
   2083
   2084					;+
   2085					; .DFRED -- DIAGNOSTIC FUNCTION READ
   2086					;
   2087					; THIS ROUTINE WILL EXECUTE A DIAGNOSTIC FUNCTION READ AND DISPLAY
   2088					; THE RESULT ON THE CONSOLE DEVICE.
   2089					;
   2090					; INPUT ARGUMENTS:
   2091					;
   2092					;	NONE.
   2093					;
   2094					; OUTPUT ARGUMENTS:
   2095					;
   2096					;	NONE.
   2097					;
   2098					; ERROR CODES RETURNED:
   2099					;
   2100					;	IFC -- ILLEGAL FUNCTION CODE.
   2101					;	FRF -- FUNCTION READ FAILED.
   2102					;-
   2103
   2104	000664				.DFRED::
   2105	000664	005037 	000066'			CLR	STPKL		; [6,1675]FLAG NOT TO STOP KL
   2106	000670					CALL	.DFCOM		; DO COMMON CODE
	000670	004737 	000546'			 JSR	PC,.DFCOM
   2107	000674	010037 	000060'			MOV	R0,STOPFR	; [5.1014]SAVE START FUNCTION CODE
   2108	000700					CALL	.CKEOS		; CHECK END OF SYMBOL
	000700	004737 	000000G			 JSR	PC,.CKEOS
   2109	000704				1$:	CALL	.XFRCK		; SEE THAT WE HAVE A LEGAL READ CODE
	000704	004737 	001260'			 JSR	PC,.XFRCK
   2110	000710	005046 				CLR	-(SP)		; CLEAR A BUFFER ON THE STACK
   2111	000712	005046 				CLR	-(SP)		; .
   2112	000714	005046 				CLR	-(SP)		; ..
   2113	000716	010601 				MOV	SP,R1		; ...POINT TO THE BUFFER
   2114	000720					PUSH	R0		; ...SAVE THE READ CODE
	000720	010046 				 MOV	R0,-(SP)
   2115	000722					CALL	.FREAD		; ....DO THE READ
	000722	004737 	000000G			 JSR	PC,.FREAD
   2116	000726	012700 	000000'			MOV	#DFRMSG,R0	; ....MESSAGE POINTER TO R0
   2117	000732					CALL	.TYMSG		; ....TYPE IT
	000732	004737 	000000G			 JSR	PC,.TYMSG
   2118	000736	011600 				MOV	(SP),R0		; ....READ CODE TO R0
   2119	000740	006200 				ASR	R0		; ....DIVIDED BY 2
   2120	000742					CALL	.TYP3D		; ....PRINT IT
	000742	004737 	000000G			 JSR	PC,.TYP3D
   2121	000746					CALL	.TYSLS		; ....AND A SLASH
	000746	004737 	000000G			 JSR	PC,.TYSLS
   2122	000752					CALL	.TYSPC		; ....AND A SPACE
	000752	004737 	000000G			 JSR	PC,.TYSPC
   2123	000756	010100 				MOV	R1,R0		; ....POINT TO THE DATA
   2124	000760					CALL	.TYKLN		; ....PRINT IT
	000760	004737 	000000G			 JSR	PC,.TYKLN
   2125	000764					CALL	.TCRLF		; ....END THE LINE
	000764	004737 	000000G			 JSR	PC,.TCRLF
   2126	000770					POP	R0		; ....READ CODE INTO R0
	000770	012600 				 MOV	(SP)+,R0
DFUNC -- KL10 DIAGNOSTIC FUNCTI	MACRO M1113  03-APR-86 22:56  PAGE 50-1
.DFRED -- DIAGNOSTIC FUNCTION READ 7602.15

   2127	000772	062706 	000006 			ADD	#^D6,SP		; ...CLEAR THE STACK
   2128	000776	005737 	000062'		5$:	TST	RNGFR		; [5.1014]IS THIS A RANGE IN PROGRESS?
   2129	001002	001406 				BEQ	7$		; [5.1014]NO -- GO ON
   2130	001004	020037 	000060'			CMP	R0,STOPFR	; [5.1014]YES -- ARE WE DONE?
   2131	001010	001403 				BEQ	7$		; [5.1014]YES -- GO NO
   2132	001012	063700 	000064'			ADD	INCFR,R0	; [5.1014]NO -- NEXT READ
   2133	001016	000732 				BR	1$		; [5.1014]DO NEXT READ
   2134	001020	005037 	000062'		7$:	CLR	RNGFR		; [5.1014]RANGE DONE
   2135	001024	122715 	000054 			CMPB	#',,(R5)	; [5.1014]IS THIS A LIST?
   2136	001030	001002 				BNE	10$		; [5.1014]NO -- GO ON
   2137	001032	105725 				TSTB	(R5)+		; [5.1014]YES -- REMOVE COMMA
   2138	001034	000713 				BR	.DFRED		; [5.1014]DO NEXT
   2139	001036	122715 	000072 		10$:	CMPB	#':,(R5)	; [5.1014]IS THIS A LIST?
   2140	001042	001031 				BNE	30$		; [5.1014]NO -- GO ON
   2141	001044	105725 				TSTB	(R5)+		; [5.1014]YES -- REMOVE COMMA
   2142	001046					PUSH	R1		; [6,1675]SAVE R1
	001046	010146 				 MOV	R1,-(SP)
   2143	001050	005037 	000066'			CLR	STPKL		; [6,1675]DON'T STOP KL
   2144	001054					CALL	.DFCOM		; [5.1014]DO COMMON CODE
	001054	004737 	000546'			 JSR	PC,.DFCOM
   2145	001060					POP	R1		; [6,1675]RESTORE R1
	001060	012601 				 MOV	(SP)+,R1
   2146	001062					CALL	.CKEOS		; [5.1014]CHECK END OF SYMBOL
	001062	004737 	000000G			 JSR	PC,.CKEOS
   2147	001066	005237 	000062'			INC	RNGFR		; [5.1014]SET RANGE ON PROGRESS FLAG
   2148	001072	012737 	000002 	000064'		MOV	#2,INCFR	; [5.1014]SET FORWARD RANGE DEFAULT
   2149	001100	020037 	000060'			CMP	R0,STOPFR	; [5.1014]FORWARD RANGE
   2150	001104	003002 				BGT	20$		; [5.1014]YES -- GO ON
   2151	001106	005437 	000064'			NEG	INCFR		; [5.1014]NO -- NEGATE INCREMENT
   2152	001112				20$:	PUSH	STOPFR		; [5.1014]SAVE INITIAL FUNCTION READ
	001112	013746 	000060'			 MOV	STOPFR,-(SP)
   2153	001116	010037 	000060'			MOV	R0,STOPFR	; [5.1014]SET STOPFR CODE
   2154	001122					POP	R0		; [5.1014]SET R0 TO INITIAL READ
	001122	012600 				 MOV	(SP)+,R0
   2155	001124	000724 				BR	5$		; [5.1014]DO RANGE INCREMENT
   2156	001126				30$:	RETURN			; [5.1014]EXIT
	001126	000207 				 RTS	PC
   2157						;
   2158
   2159	000000				.PSECT	MESSAG
   2160	000000				DFRMSG:
   2161	000000	   106 	   122 	   040 		.ASCIZ	%FR %
	000003	   000
   2162	000060				.PSECT	DATA
   2163
   2164	000060	000000 			STOPFR:	.WORD	0		; [5.1014]FINAL/FIRST FUNCTION READ CODE
   2165	000062	000000 			RNGFR:	.WORD	0		; [5.1014]RANGE IN PROGRESS FLAG
   2166	000064	000000 			INCFR:	.WORD	0		; [5.1014]INCREMENT VALUE
   2167	000066	000000 			STPKL:	.WORD	0		; [6,1675]STOP KL FLAG
   2168
   2169	001130				.PSECT
DFUNC -- KL10 DIAGNOSTIC FUNCTI	MACRO M1113  03-APR-86 22:56  PAGE 51
.DFWRT -- DIAGNOSTIC FUNCTION WRITE 7608.20

   2171					.SBTTL	.DFWRT -- DIAGNOSTIC FUNCTION WRITE 7608.20
   2172
   2173					;+
   2174					; .DFWRT -- DIAGNOSTIC FUNCTION WRITE
   2175					;
   2176					; THIS ROUTINE WILL EXECUTE A DIAGNOSTIC FUNCTION WRITE
   2177					;
   2178					; INPUT ARGUMENTS:
   2179					;
   2180					;	NONE.
   2181					;
   2182					; OUTPUT ARGUMENTS:
   2183					;
   2184					;	NONE.
   2185					;
   2186					; ERROR CODES RETURNED:
   2187					;
   2188					;	IFC -- ILLEGAL FUNCTION CODE.
   2189					;	FWF -- FUNCTION WRITE FAILED.
   2190					;-
   2191
   2192	001130				.DFWRT::
   2193	001130	012737 	000001 	000066'		MOV	#1,STPKL	; [6.1675]STOP KL IF RUNNING
   2194	001136					CALL	.DFCOM		; DO COMMON CODE
	001136	004737 	000546'			 JSR	PC,.DFCOM
   2195	001142					CALL	.CKCOL		; CHECK END-OF-SYMBOL
	001142	004737 	000000G			 JSR	PC,.CKCOL
   2196	001146					CALL	.XFWCK		; SEE IF WE HAVE A GOOD WRITE CODE
	001146	004737 	001276'			 JSR	PC,.XFWCK
   2197	001152	005046 				CLR	-(SP)		; CLEAR A BUFFER ON THE STACK
   2198	001154	005046 				CLR	-(SP)		; .
   2199	001156	005046 				CLR	-(SP)		; ..
   2200	001160	010601 				MOV	SP,R1		; ...SAVE THE BUFFER POINTER
   2201	001162					PUSH 	R0		; ...SAVE THE WRITE CODE
	001162	010046 				 MOV	R0,-(SP)
   2202	001164	010100 				MOV	R1,R0		; ....POINT TO THE BUFFER
   2203	001166					CALL	.GTKLN		; ....READ THE DATA
	001166	004737 	000000G			 JSR	PC,.GTKLN
   2204	001172					CALL	.CKEOS		; ....CHECK SYMBOL END
	001172	004737 	000000G			 JSR	PC,.CKEOS
   2205	001176	010001 				MOV	R0,R1		; ....DATA POINTER TO R1
   2206	001200					POP	R0		; ....GET THE WRITE CODE
	001200	012600 				 MOV	(SP)+,R0
   2207	001202					CALL	.FWRIT		; ...DO THE WRITE
	001202	004737 	000000G			 JSR	PC,.FWRIT
   2208	001206	062706 	000006 			ADD	#^D6,SP		; ...RESET THE STACK
   2209	001212					CALLR	.RSTKL		; RESTORE THE KL AND EXIT
	001212	000137 	000000G			 JMP	.RSTKL
   2210						;
DFUNC -- KL10 DIAGNOSTIC FUNCTI	MACRO M1113  03-APR-86 22:56  PAGE 52
.DFXCT -- DIAGNOSTIC FUNCTION EXECUTE 7602.15

   2212					.SBTTL	.DFXCT -- DIAGNOSTIC FUNCTION EXECUTE 7602.15
   2213
   2214					;+
   2215					; .DFXCT -- DIAGNOSTIC FUNCTION EXECUTE
   2216					;
   2217					; THIS SUBROUTINE WILL EXECUTE A DIAGNOSTIC FUNCTION EXECUTE.
   2218					;
   2219					; INPUT ARGUMENTS:
   2220					;
   2221					;	NONE.
   2222					;
   2223					; OUTPUT ARGUMENTS:
   2224					;
   2225					;	NONE.
   2226					;
   2227					; ERROR CODES RETURNED:
   2228					;
   2229					;	IFC -- ILLEGAL FUNCTION CODE.
   2230					;	FXF -- FUNCTION EXECUTE FAILED.
   2231					;-
   2232
   2233	001216				.DFXCT::
   2234	001216	012737 	000001 	000066'		MOV	#1,STPKL	; [6.1675]STOP KL IF RUNNING
   2235	001224					CALL	.DFCOM		; DO COMMON CODE
	001224	004737 	000546'			 JSR	PC,.DFCOM
   2236	001230					CALL	.CKEOS		; CHECK SYMBOL END
	001230	004737 	000000G			 JSR	PC,.CKEOS
   2237	001234					CALL	.XFXCK		; CHECK THE FXCT CODE OUT
	001234	004737 	001314'			 JSR	PC,.XFXCK
   2238	001240					CALL	.FXCT		; DO THE FUNCTION EXECUTE
	001240	004737 	000000G			 JSR	PC,.FXCT
   2239	001244	122715 	000054 			CMPB	#',,(R5)	; [5.1014]IS THIS A LIST
   2240	001250	001002 				BNE	10$		; [5.1014]NO -- GO ON
   2241	001252	105725 				TSTB	(R5)+		; [5.1014]YES -- REMOVE COMMA
   2242	001254	000760 				BR	.DFXCT		; [5.1014]DO NEXT
   2243	001256				10$:	RETURN			; [5.1014]EXIT
	001256	000207 				 RTS	PC
   2244						;
DFUNC -- KL10 DIAGNOSTIC FUNCTI	MACRO M1113  03-APR-86 22:56  PAGE 53
.XFXCK -- SUBROUTINES TO RANGE CHECK DIAG FUNCTIONS 7509.26

   2246					.SBTTL	.XFXCK -- SUBROUTINES TO RANGE CHECK DIAG FUNCTIONS 7509.26
   2247
   2248					;+
   2249					; .XFRCK -- SUBROUTINE TO RANGE CHECK FUNCTION READ CODES.
   2250					; .XFWCK -- SUBROUTINE TO RANGE CHECK FUNCTION WRITE CODES.
   2251					; .XFXCK -- SUBROUTINE TO RANGE CHECK FUNCTION EXECUTE CODES.
   2252					;
   2253					; THESE SUBROUTINES RANGE CHECK THE ARGUMENT CODES FOR THE FUNCTION
   2254					; READ, WRITE AND EXECUTE SUBROUTINES.
   2255					;
   2256					; INPUT ARGUMENTS:
   2257					;
   2258					;	R0 HOLDS THE FUNCTION CODE TO BE CHECKED
   2259					;
   2260					; OUTPUT ARGUMENTS:
   2261					;
   2262					;	NONE.
   2263					;
   2264					; ERROR CODES RETURNED:
   2265					;
   2266					;	IFC -- ILLEGAL FUNCTION CODE.
   2267					;	OFC -- ODD FUNCTION CODE.
   2268					;-
   2269
   2270						.ENABL	LSB
   2271
   2272	001260				.XFRCK::			; HERE TO CHECK FUNCTION READ CODE
   2273	001260	020027 	000200 			CMP	R0,#FR.100	; IS IT .LT. FR.100?
   2274	001264	103422 				BLO	FNCIFC		; NO -- ERROR
   2275	001266	020027 	000376 			CMP	R0,#FR.177	; YES -- IS IT .GT. FR.177?
   2276	001272	101017 				BHI	FNCIFC		; YES -- ERROR
   2277	001274	000412 				BR	10$		; NO -- SEE IF IT'S ODD
   2278						;
   2279	001276				.XFWCK::			; HERE TO CHECK FUNCTION WRITE CODE
   2280	001276	020027 	000100 			CMP	R0,#FW.040	; IS IT .LT. FW.040?
   2281	001302	103413 				BLO	FNCIFC		; NO -- ERROR
   2282	001304	020027 	000176 			CMP	R0,#FW.LAR	; YES -- IS IT .GT. FW.077?
   2283	001310	101010 				BHI	FNCIFC		; YES -- ERROR
   2284	001312	000403 				BR	10$		; NO -- SEE IF IT'S ODD
   2285						;
   2286	001314				.XFXCK::			; HERE TO CHECK FUNCTION EXECUTE CODE
   2287	001314	020027 	000076 			CMP	R0,#FX.037	; IS IT .GT. FX.037?
   2288	001320	101004 				BHI	FNCIFC		; YES -- ERROR
   2289	001322				10$:
   2290	001322	032700 	000001 			BIT	#BIT00,R0	; NO -- IS IT ODD?
   2291	001326	001004 				BNE	FNCOFC		; YES -- ERROR
   2292	001330					RETURN			; NO -- ALL OK, RETURN TO CALLER
	001330	000207 				 RTS	PC
   2293	001332				FNCIFC:
   2294	001332					ERROR$	IFC		; ERROR -- ILLEGAL FUNCTION CODE
	001332	012746 	034463 			 MOV	#^RIFC,-(SP)
	001336	104400 				 TRAP	TC.ERR
   2295						;
   2296	001340				FNCOFC:
   2297	001340					ERROR$	OFC		; ERROR -- ODD FUNCTION CODE
	001340	012746 	057263 			 MOV	#^ROFC,-(SP)
	001344	104400 				 TRAP	TC.ERR
DFUNC -- KL10 DIAGNOSTIC FUNCTI	MACRO M1113  03-APR-86 22:56  PAGE 53-1
.XFXCK -- SUBROUTINES TO RANGE CHECK DIAG FUNCTIONS 7509.26

   2298						;
   2299
   2300						.DSABL	LSB
DISCC -- DISCONNECT COMMAND MOD	MACRO M1113  03-APR-86 22:56  PAGE 55
.XFXCK -- SUBROUTINES TO RANGE CHECK DIAG FUNCTIONS 7509.26

   2303					.TITLE	DISCC -- DISCONNECT COMMAND MODULE 7702.28
   2304
   2305						.IDENT	"005000"
   2306					;
   2307					;                             COPYRIGHT (C) 1975, 1984, 1985 BY
   2308					;                     DIGITAL EQUIPMENT CORPORATION, MAYNARD MASS.
   2309					;			ALL RIGHTS RESERVED.
   2310					;       THIS SOFTWARE IS FURNISHED UNDER A LICENSE AND MAY BE  USED  AND  COPIED
   2311					;       ONLY IN ACCORDANCE WITH THE TERMS OF SUCH LICENSE AND WITH THE INCLUSION
   2312					;       OF THE ABOVE COPYRIGHT NOTICE.  THIS SOFTWARE OR ANY OTHER COPIES THERE-
   2313					;       OF  MAY NOT BE PROVIDED OR OTHERWISE MADE AVAILABLE TO ANY OTHER PERSON.
   2314					;       NO TITLE TO OR OWNERSHIP OF THE SOFTWARE IS HEREBY TRANSFERRED.
   2315					;
   2316					;       THE INFORMATION CONTAINED IN THIS SOFTWARE IS SUBJECT TO CHANGE  WITHOUT
   2317					;       NOTICE  AND SHOULD NOT BE CONSTRUED AS A COMMITMENT BY DIGITAL EQUIPMENT
   2318					;       CORPORATION.
   2319					;
   2320					;       DIGITAL ASSUMES NO RESPONSIBILITY FOR THE  USE  OR  RELIABILITY  OF  ITS
   2321					;       SOFTWARE ON EQUIPMENT WHICH IS NOT SUPPILED BY DIGITAL.
   2322					;
   2323					;		MODULE: DISCONNECT COMMAND
   2324					;
   2325					;		VERSION: 05-00
   2326					;
   2327					;		AUTHOR: R. BELANGER
   2328					;
   2329					;		DATE: 7702.28
   2330					;
   2331					;	THIS MODULE CONTAINS:
   2332					;
   2333					;	1) DISCONNECT COMMAND CODE
   2334
   2335						.MCALL	DIR$,RQST$
DISCC -- DISCONNECT COMMAND MOD	MACRO M1113  03-APR-86 22:56  PAGE 56
.DISCC -- THE "DISCONNECT" COMMAND 7702.28

   2337					.SBTTL	.DISCC -- THE "DISCONNECT" COMMAND 7702.28
   2338
   2339					;+
   2340					;  .DISCC --  THE "DISCONNECT" COMMAND
   2341					;
   2342					; THIS SUBROUTINE CHECKS THE SYNTAX OF THE "DISCONNECT" COMMAND
   2343					; AND REQUESTS THE KLINIK DISCONNECT TASK, "KLDISC". THE KLINIK DISCONNECT
   2344					; TASK WILL THEN DISCONNECT THE KLINIK LINE, LOG THE DISCONNECT AND
   2345					; RETURN THE THE RSX20F COMMAND PARSER.
   2346					;
   2347					; INPUT ARGUMENTS:
   2348					;
   2349					;	NONE.
   2350					;
   2351					; OUTPUT ARGUMENTS:
   2352					;
   2353					;	NONE.
   2354					;
   2355					; ERROR CODES RETURNED:
   2356					;
   2357					;	NONE.
   2358					;-
   2359
   2360	001346				.DISCC::
   2361	001346					CALL	.CKEOC		; MUST HAVE E-O-C
	001346	004737 	000000G			 JSR	PC,.CKEOC
   2362	001352	112737 	000003 	000001G		MOVB	#3,.KLNSW+1	; FLAG DISCONNECT
   2364	001360					DIR$	#RQSKLD		; REQUEST DISCONNECT TASK
	001360	012746 	000000'			MOV	#RQSKLD,-(SP)
	001364	104375 				EMT	375
   2366	001366					CALLR	.EXITP		; GO AWAY FOR NOW
	001366	000137 	000000G			 JMP	.EXITP
   2367						;
   2368
   2369	000000					.PSECT	DPBS
   2370
   2371	000000				RQSKLD:
   2372	000000					RQST$	KLDISC,,10
	000000	   013 	   007 			.BYTE	11.,7
	000002	043244 	035473 			.RAD50	/KLDISC/
	000006	000000 	000000 			.WORD	0,0
	000012	000010 				.WORD	10
	000014	   000 	   000 			.BYTE	,
   2373
   2374	001372					.PSECT
   2375					.TITLE	EDELE -- DEPOSIT / EXAMINE ELEVEN COMMAND MODULE 7603.30
   2376
   2377						.IDENT	"006130"
   2378
   2379					;
   2380					;                             COPYRIGHT (C) 1975, 1984, 1985 BY
   2381					;                     DIGITAL EQUIPMENT CORPORATION, MAYNARD MASS.
   2382					;			ALL RIGHTS RESERVED.
   2383					;       THIS SOFTWARE IS FURNISHED UNDER A LICENSE AND MAY BE  USED  AND  COPIED
   2384					;       ONLY IN ACCORDANCE WITH THE TERMS OF SUCH LICENSE AND WITH THE INCLUSION
   2385					;       OF THE ABOVE COPYRIGHT NOTICE.  THIS SOFTWARE OR ANY OTHER COPIES THERE-
   2386					;       OF  MAY NOT BE PROVIDED OR OTHERWISE MADE AVAILABLE TO ANY OTHER PERSON.
EDELE -- DEPOSIT / EXAMINE ELEV	MACRO M1113  03-APR-86 22:56  PAGE 56-1
.DISCC -- THE "DISCONNECT" COMMAND 7702.28

   2387					;       NO TITLE TO OR OWNERSHIP OF THE SOFTWARE IS HEREBY TRANSFERRED.
   2388					;
   2389					;       THE INFORMATION CONTAINED IN THIS SOFTWARE IS SUBJECT TO CHANGE  WITHOUT
   2390					;       NOTICE  AND SHOULD NOT BE CONSTRUED AS A COMMITMENT BY DIGITAL EQUIPMENT
   2391					;       CORPORATION.
   2392					;
   2393					;       DIGITAL ASSUMES NO RESPONSIBILITY FOR THE  USE  OR  RELIABILITY  OF  ITS
   2394					;       SOFTWARE ON EQUIPMENT WHICH IS NOT SUPPILED BY DIGITAL.
   2395					;
   2396					;		MODULE: DEPOSIT / EXAMINE ELEVEN COMMAND
   2397					;
   2398					;		VERSION: 06-13
   2399					;
   2400					;		AUTHOR: R. BELANGER
   2401					;
   2402					;		DATE: 7603.30
   2403					;
   2404					;	THIS MODULE CONTAINS:
   2405					;
   2406					;	1) DEPOSIT / EXAMINE ELEVEN COMMAND CODE
   2407					;
   2408					;29-APR-83  TCO 6.1599	DAVID WEAVER
   2409					;	EXAMINE ELEVEN ADDR1:ADDR2 CAN LOOP OVER MEMORY IF ADDR2 IS ODD OR
   2410					;	THE RANGE CROSSES 100000.
EDELE -- DEPOSIT / EXAMINE ELEV	MACRO M1113  03-APR-86 22:56  PAGE 57
.DPOSE -- THE "DEPOSIT <ELEVEN>" COMMAND 7602.29

   2412					.SBTTL	.DPOSE -- THE "DEPOSIT <ELEVEN>" COMMAND 7602.29
   2413
   2414					;+
   2415					; .DPOSE -- THE "DEPOSIT <ELEVEN>" COMMAND.
   2416					;
   2417					; THIS SUBROUTINE WILL DEPOSIT THE DATA SPECIFIED INTO THE PDP-11
   2418					; ADDRESS SPECIFIED.
   2419					;
   2420					; INPUT ARGUMENTS:
   2421					;
   2422					;	NONE.
   2423					;
   2424					; OUTPUT ARGUMENTS:
   2425					;
   2426					;	THE PDP-11 ADDRESS DEPOSITED IS IN ".EDELA"
   2427					;	THE DATA DEPOSITED IS IN ".ELDDW".
   2428					;
   2429					; ERROR CODES RETURNED:
   2430					;
   2431					;	NONE.
   2432					;-
   2433
   2434	001372				.DPOSE::
   2435	001372					CALL	.CKARG		; SEE IF WE HAVE AN ARGUMENT
	001372	004737 	000000G			 JSR	PC,.CKARG
   2436	001376	002406 				BLT	10$		; NUMERIC -- GO AROUND TABLE SCAN
   2437	001400	012700 	000000G			MOV	#.DPETB,R0	; DEPOSIT EXTENSION TABLE POINTER TO R0
   2438	001404					CALL	.TSCAN		; SCAN IT
	001404	004737 	000000G			 JSR	PC,.TSCAN
   2439	001410					CALLR	@2(R0)		; DISPATCH FOR IT
	001410	000170 	000002 			 JMP	@2(R0)
   2440						;
   2441	001414				10$:
   2442	001414					CALL	.GTELN		; READ THE ADDRESS
	001414	004737 	000000G			 JSR	PC,.GTELN
   2443
   2444	001420	032700 	000001 			BIT	#BIT00,R0	; IS IT ODD?
   2445	001424	001050 				BNE	DPOOAI		; YES -- GIVE "OAI" ERROR
   2446	001426					PUSH	R0		; NO -- SAVE IT
	001426	010046 				 MOV	R0,-(SP)
   2447	001430					CALL	.CKCOL		; .CHECK SEPARATOR
	001430	004737 	000000G			 JSR	PC,.CKCOL
   2448	001434					CALL	.GTELN		; .READ THE DATA
	001434	004737 	000000G			 JSR	PC,.GTELN
   2449	001440	010001 				MOV	R0,R1		; .DATA TO R1
   2450	001442					POP	R0		; .ADDRESS TO R0
	001442	012600 				 MOV	(SP)+,R0
   2451
   2452					;	[CONTINUED ON THE FOLLOWING PAGE]
EDELE -- DEPOSIT / EXAMINE ELEV	MACRO M1113  03-APR-86 22:56  PAGE 58
.DPOSE -- THE "DEPOSIT <ELEVEN>" COMMAND 7602.29

   2454					;	[CONTINUED FROM THE PREVIOUS PAGE]
   2455
   2456	001444				.DPSEE::			; EXTENDED DEPOSIT ENTRY POINT
   2457	001444					CALL	.CKEOC		; CHECK FOR E-O-C
	001444	004737 	000000G			 JSR	PC,.CKEOC
   2458	001450	032700 	000001 			BIT	#BIT00,R0	; IS THE ADDRESS ODD?
   2459	001454	001034 				BNE	DPOOAI		; YES -- GIVE "OAI" ERROR
   2460	001456					PUSH	R0		; NO -- SAVE THE ADDRESS
	001456	010046 				 MOV	R0,-(SP)
   2461	001460					PUSH	R1		; .AND THE DEPOSIT DATA
	001460	010146 				 MOV	R1,-(SP)
   2462	001462	010037 	000000G			MOV	R0,.EDELA	; ..LEAVE TRACKS
   2463	001466	010137 	000000G			MOV	R1,.ELDDW	; ..MORE TRACKS
   2464	001472	013737 	000000G	000000G		MOV	.TRP4V,.SSTTB	; ..SET UP TRAP AT 4 TRAP
   2465	001500	011001 				MOV	(R0),R1		; ..READ ORIGINAL CONTENTS
   2466	001502					CALL	.TYELA		; ..PRINT THE ADDRESS
	001502	004737 	000000G			 JSR	PC,.TYELA
   2467	001506	112700 	000134 			MOVB	#'\,R0		; ..BACK SLASH
   2468	001512					CALL	.TYCHR		; ..PRINT IT
	001512	004737 	000000G			 JSR	PC,.TYCHR
   2469	001516					CALL	.TYSPC		; ..AND A SPACE
	001516	004737 	000000G			 JSR	PC,.TYSPC
   2470	001522	010100 				MOV	R1,R0		; ..DATA TO R0
   2471	001524					CALL	.TYELN		; ..PRINT THAT
	001524	004737 	000000G			 JSR	PC,.TYELN
   2472	001530					POP	R1		; ..RESTORE DATA
	001530	012601 				 MOV	(SP)+,R1
   2473	001532					POP	R0		; .AND ADDRESS
	001532	012600 				 MOV	(SP)+,R0
   2474	001534	010110 				MOV	R1,(R0)		; DO THE DEPOSIT
   2475	001536	005037 	000000G			CLR	.SSTTB		; RESET TRAP AT 4 TRAP
   2476	001542					CALLR	.TCRLF		; TO CALLER
	001542	000137 	000000G			 JMP	.TCRLF
   2477						;
   2478	001546				DPOOAI:
   2479	001546					ERROR$	OAI		; ERROR -- ODD ADDRESS ILLEGAL
	001546	012746 	056761 			 MOV	#^ROAI,-(SP)
	001552	104400 				 TRAP	TC.ERR
   2480						;
EDELE -- DEPOSIT / EXAMINE ELEV	MACRO M1113  03-APR-86 22:56  PAGE 59
.DPEWD -- THE "DEPOSIT <ELEVEN> <NUMERICAL OBJECT>" COMMAND 76

   2482					.SBTTL	.DPEWD -- THE "DEPOSIT <ELEVEN> <NUMERICAL OBJECT>" COMMAND 7602.29
   2483
   2484						.ENABL	LSB
   2485
   2486	001554				.DPEWT::			; DEPOSIT <ELEVEN> THIS
   2487	001554	013700 	000000G			MOV	.EDELA,R0	; ADDRESS TO R0
   2488	001560	000413 				BR	10$		; CHECK FOR ARGUMENTS
   2489						;
   2490	001562				.DPEWD::			; DEPOSIT <ELEVEN> DECREMENT
   2491	001562					CALL	.EDEWD		; DECREMENT THE ADDRESS
	001562	004737 	000374'			 JSR	PC,.EDEWD
   2492	001566	000410 				BR	10$		; EXIT THRU COMMON CODE
   2493						;
   2494	001570				.DPEWI::			; DEPOSIT <ELEVEN> INCREMENT
   2495	001570					CALL	.EDEWI		; INCREMENT THE ADDRESS
	001570	004737 	000406'			 JSR	PC,.EDEWI
   2496	001574	000405 				BR	10$		; EXIT THRU COMMON CODE
   2497						;
   2498	001576				.DPEWN::			; DEPOSIT <ELEVEN> NEXT
   2499	001576					CALL	.EDEWN		; GET THE NEXT ADDRESS
	001576	004737 	000406'			 JSR	PC,.EDEWN
   2500	001602	000402 				BR	10$		; EXIT THRU COMMON CODE
   2501						;
   2502	001604				.DPEWP::			; DEPOSIT <ELEVEN> PREVIOUS
   2503	001604					CALL	.EDEWP		; GET THE PREVIOUS ADDRESS
	001604	004737 	000374'			 JSR	PC,.EDEWP
   2504	001610				10$:
   2505	001610	122715 	000075 			CMPB	#'=,(R5)	; DOES AN ARGUMENT FOLLOW?
   2506	001614	001403 				BEQ	20$		; YES -- GO GET IT
   2507	001616	013701 	000000G			MOV	.ELDDW,R1	; NO -- USE OLD DATA
   2508	001622	000710 				BR	.DPSEE		; AND DO THE DEPOSIT
   2509						;
   2510	001624				20$:
   2511	001624	105725 				TSTB	(R5)+		; GET OVER THE COLON
   2512	001626					PUSH	R0		; SAVE THE ADDRESS
	001626	010046 				 MOV	R0,-(SP)
   2513	001630					CALL	.GTELN		; .READ THE DATA
	001630	004737 	000000G			 JSR	PC,.GTELN
   2514	001634	010001 				MOV	R0,R1		; .DATA TO R1
   2515	001636					POP	R0		; .ADDRESS TO R0
	001636	012600 				 MOV	(SP)+,R0
   2516	001640	000701 				BR	.DPSEE		; DO THE DEPOSIT
   2517						;
   2518
   2519						.DSABL	LSB
EDELE -- DEPOSIT / EXAMINE ELEV	MACRO M1113  03-APR-86 22:56  PAGE 60
.EXAME -- THE "EXAMINE <ELEVEN>" COMMAND 7602.29

   2521					.SBTTL	.EXAME -- THE "EXAMINE <ELEVEN>" COMMAND 7602.29
   2522
   2523					;+
   2524					; .EXAME -- THE "EXAMINE <ELEVEN> COMMAND.
   2525					;
   2526					; THIS ROUTINE WILL EXAMINE AND DISPLAY THE CONTEN OF ONE PDP-11
   2527					; ELEVEN MEMORY LOCATION ON THE CONSOLE DEVICE.
   2528					;
   2529					; INPUT ARGUMENTS:
   2530					;
   2531					;	NONE.
   2532					;
   2533					; OUTPUT ARGUMENTS:
   2534					;
   2535					;	THE ADDRESS EXAMINED IS IN ".EDELA"
   2536					;	THE EXAMINED DATA IS IN ".ELEDW"
   2537					;
   2538					; ERROR CODES RETURNED:
   2539					;
   2540					;	NONE.
   2541					;-
   2542
   2543	001642				.EXAME::
   2544	001642					CALL	.CKARG		; SEE IF WE HAVE AN ARGUMENT
	001642	004737 	000000G			 JSR	PC,.CKARG
   2545	001646	002406 				BLT	10$		; NUMERIC -- GO AROUND TABLE SCAN
   2546	001650	012700 	000000G			MOV	#.EXETB,R0	; EXTENSION TABLE POINTER TO R0
   2547	001654					CALL	.TSCAN		; SCAN IT
	001654	004737 	000000G			 JSR	PC,.TSCAN
   2548	001660					CALLR	@2(R0)		; DO WHAT IS SAYS TO
	001660	000170 	000002 			 JMP	@2(R0)
   2549						;
   2550	001664				10$:
   2551	001664					CALL	.GTELN		; READ THE ADDRESS
	001664	004737 	000000G			 JSR	PC,.GTELN
   2552
   2553					;	[CONTINUED ON THE FOLLOWING PAGE]
EDELE -- DEPOSIT / EXAMINE ELEV	MACRO M1113  03-APR-86 22:56  PAGE 61
.EXAME -- THE "EXAMINE <ELEVEN>" COMMAND 7602.29

   2555					;	[CONTINUED FROM THE PREVIOUS PAGE]
   2556
   2557	001670				.EXMEE::			; EXTENDED EXAMINE ENTRY POINT
   2558	001670	010037 	000070'			MOV	R0,STOPEX	; [5.1014]SAVE INITIAL ADDRESS
   2559	001674					CALL	.CKEOC		; CHECK FOR E-O-C
	001674	004737 	000000G			 JSR	PC,.CKEOC
   2560	001700	032700 	000001 		1$:	BIT	#BIT00,R0	; IS IT ODD?
   2561	001704	001101 				BNE	EXAOAI		; YES -- GIVE "OAI" ERROR
   2562	001706	013737 	000000G	000000G		MOV	.TRP4V,.SSTTB	; SET UP TRAP AT 4 TRAP
   2563	001714	010037 	000000G			MOV	R0,.EDELA	; .LEAVE SOME TRACKS
   2564	001720	011001 				MOV	(R0),R1		; DO THE EXAMINE
   2565	001722					PUSH	R0		; [5.1014]SAVE CURRENT ADDRESS
	001722	010046 				 MOV	R0,-(SP)
   2566	001724	005037 	000000G			CLR	.SSTTB		; RESET TRAP AT 4 TRAP
   2567	001730	010137 	000000G			MOV	R1,.ELEDW	; MORE TRACKS
   2568	001734					CALL	.TYELA		; TYPE THE ADDRESS
	001734	004737 	000000G			 JSR	PC,.TYELA
   2569	001740	112700 	000134 			MOVB	#'\,R0		; BACKSLASH
   2570	001744					CALL	.TYCHR		; TYPE IT
	001744	004737 	000000G			 JSR	PC,.TYCHR
   2571	001750					CALL	.TYSPC		; AND A SPACE
	001750	004737 	000000G			 JSR	PC,.TYSPC
   2572	001754	010100 				MOV	R1,R0		; DATA TO R0
   2573	001756					CALL	.TYELN		; TYPE THAT
	001756	004737 	000000G			 JSR	PC,.TYELN
   2574	001762					CALL	.TCRLF		; END THE LINE
	001762	004737 	000000G			 JSR	PC,.TCRLF
   2575	001766				5$:	POP	R0		; [5.1014]RESTORE ADDRESS
	001766	012600 				 MOV	(SP)+,R0
   2576	001770	005737 	000072'			TST	RNGEX		; [5.1014]RANGE IN PROGRESS?
   2577	001774	001406 				BEQ	7$		; [5.1014]NO -- GO ON
   2578	001776	020037 	000070'			CMP	R0,STOPEX	; [5.1014]YES -- DONE?
   2579	002002	103003 				BHIS	7$		; [6.1599]YES -- GO ON
   2580	002004	063700 	000074'			ADD	INCEX,R0	; [5.1014]NO -- NEXT ADDRESS
   2581	002010	000733 				BR	1$		; [5.1014]DO EXAMINE
   2582	002012	005037 	000072'		7$:	CLR	RNGEX		; [5.1014]CLEAR RANGE IN PROGRESS
   2583	002016	122715 	000054 			CMPB	#',,(R5)	; [5.1014]IS THIS A LIST?
   2584	002022	001002 				BNE	20$		; [5.1014]NO -- GO NO
   2585	002024	105725 				TSTB	(R5)+		; [5.1014]YES -- REMOVE COMMA
   2586	002026	000705 				BR	.EXAME		; [5.1014]DO NEXT
   2587	002030	122715 	000072 		20$:	CMPB	#':,(R5)	; [5.1014]IS THIS A RANGE?
   2588	002034	001024 				BNE	40$		; [5.1014]NO -- EXIT
   2589	002036	105725 				TSTB	(R5)+		; [5.1014]YES -- REMOVE COLON
   2590	002040					CALL	.GTELN		; [5.1014]GET FINAL ADDRESS
	002040	004737 	000000G			 JSR	PC,.GTELN
   2591	002044					CALL	.CKEOC		; [5.1014]CHECK END OF COMMAND
	002044	004737 	000000G			 JSR	PC,.CKEOC
   2592	002050	005237 	000072'			INC	RNGEX		; [5.1014]SET RANGE IN PROGRESS
   2593	002054	012737 	000002 	000074'		MOV	#2,INCEX	; [5.1014]SET FORWARD INCREMENT
   2594	002062	020037 	000070'			CMP	R0,STOPEX	; [5.1014]FORWARD INCREMENT?
   2595	002066	101002 				BHI	30$		; [6.1599]YES -- GO ON
   2596	002070	005437 	000074'			NEG	INCEX		; [5.1014]NO -- NEGATE INCREMENT
   2597	002074				30$:	PUSH	STOPEX		; [5.1014]SAVE INITIAL ADDRESS
	002074	013746 	000070'			 MOV	STOPEX,-(SP)
   2598	002100	010037 	000070'			MOV	R0,STOPEX	; [5.1014]SET FINAL VALUE
   2599	002104	000730 				BR	5$		; [5.1014]DO RANGE INCREMENT
   2600	002106				40$:	RETURN			; [5.1014]DONE
EDELE -- DEPOSIT / EXAMINE ELEV	MACRO M1113  03-APR-86 22:56  PAGE 61-1
.EXAME -- THE "EXAMINE <ELEVEN>" COMMAND 7602.29

	002106	000207 				 RTS	PC
   2601						;
   2602	002110				EXAOAI:
   2603	002110					ERROR$	OAI		; ERROR -- ODD ADDRESS ILLEGAL
	002110	012746 	056761 			 MOV	#^ROAI,-(SP)
	002114	104400 				 TRAP	TC.ERR
   2604						;
   2605
   2606	000070				.PSECT	DATA
   2607
   2608	000070	000000 			STOPEX:	.WORD	0		; [5.1014]FINAL/FIRST EXAMINE ADDRESS
   2609	000072	000000 			RNGEX:	.WORD	0		; [5.1014]RANGE IN PROGRESS FLAG
   2610	000074	000000 			INCEX:	.WORD	0		; [5.1014]INCREMENT VALUE
   2611
   2612	002116				.PSECT
EDELE -- DEPOSIT / EXAMINE ELEV	MACRO M1113  03-APR-86 22:56  PAGE 62
.EXEWD -- THE "EXAMINE <ELEVEN> <NUMERICAL OBJECT>" COMMAND 76

   2614					.SBTTL	.EXEWD -- THE "EXAMINE <ELEVEN> <NUMERICAL OBJECT>" COMMAND 7602.29
   2615
   2616						.ENABL	LSB
   2617
   2618	002116				.EXEWT::			; EXAMINE <ELEVEN> THIS
   2619	002116	013700 	000000G			MOV	.EDELA,R0	; ADDRESS TO R0
   2620	002122	000662 				BR	.EXMEE		; DO THE EXAMINE
   2621						;
   2622	002124				.EXEWD::			; EXAMINE <ELEVEN> DECREMENT
   2623	002124					CALL	.EDEWD		; DECREMENT IT
	002124	004737 	000374'			 JSR	PC,.EDEWD
   2624	002130	000657 				BR	.EXMEE		; DO THE EXAMINE
   2625						;
   2626	002132				.EXEWI::			; EXAMINE <ELEVEN> INCREMENT
   2627	002132					CALL	.EDEWI		; INCREMENT IT
	002132	004737 	000406'			 JSR	PC,.EDEWI
   2628	002136	000654 				BR	.EXMEE		; DO THE EXAMINE
   2629						;
   2630	002140				.EXEWN::			; EXAMINE <ELEVEN> NEXT
   2631	002140					CALL	.EDEWN		; GET THE NEXT ADDRESS
	002140	004737 	000406'			 JSR	PC,.EDEWN
   2632	002144	000651 				BR	.EXMEE		; DO THE EXAMINE
   2633						;
   2634	002146				.EXEWP::			; EXAMINE <ELEVEN> PREVIOUS
   2635	002146					CALL	.EDEWP		; GET THE PREVIOUS ADDRESS
	002146	004737 	000374'			 JSR	PC,.EDEWP
   2636	002152	000646 				BR	.EXMEE		; DO THE EXAMINE
   2637						;
   2638
   2639						.DSABL	LSB
EDELE -- DEPOSIT / EXAMINE ELEV	MACRO M1113  03-APR-86 22:56  PAGE 64
.EXEWD -- THE "EXAMINE <ELEVEN> <NUMERICAL OBJECT>" COMMAND 76

   2642
   2643					.TITLE	EDTEN -- DEPOSIT / EXAMINE TEN COMMAND MODULE 7603.21
   2644
   2645						.IDENT	"006130"
   2646
   2647					;
   2648					;                             COPYRIGHT (C) 1975, 1984, 1985 BY
   2649					;                     DIGITAL EQUIPMENT CORPORATION, MAYNARD MASS.
   2650					;			ALL RIGHTS RESERVED.
   2651					;       THIS SOFTWARE IS FURNISHED UNDER A LICENSE AND MAY BE  USED  AND  COPIED
   2652					;       ONLY IN ACCORDANCE WITH THE TERMS OF SUCH LICENSE AND WITH THE INCLUSION
   2653					;       OF THE ABOVE COPYRIGHT NOTICE.  THIS SOFTWARE OR ANY OTHER COPIES THERE-
   2654					;       OF  MAY NOT BE PROVIDED OR OTHERWISE MADE AVAILABLE TO ANY OTHER PERSON.
   2655					;       NO TITLE TO OR OWNERSHIP OF THE SOFTWARE IS HEREBY TRANSFERRED.
   2656					;
   2657					;       THE INFORMATION CONTAINED IN THIS SOFTWARE IS SUBJECT TO CHANGE  WITHOUT
   2658					;       NOTICE  AND SHOULD NOT BE CONSTRUED AS A COMMITMENT BY DIGITAL EQUIPMENT
   2659					;       CORPORATION.
   2660					;
   2661					;       DIGITAL ASSUMES NO RESPONSIBILITY FOR THE  USE  OR  RELIABILITY  OF  ITS
   2662					;       SOFTWARE ON EQUIPMENT WHICH IS NOT SUPPILED BY DIGITAL.
   2663					;
   2664					;		MODULE: DEPOSIT / EXAMINE TEN COMMAND
   2665					;
   2666					;		VERSION: 06-13
   2667					;
   2668					;		AUTHOR: R. BELANGER
   2669					;
   2670					;		DATE: 7603.21
   2671					;
   2672					;	THIS MODULE CONTAINS:
   2673					;
   2674					;	1) DEPOSIT / EXAMINE TEN COMMAND CODE
EDTEN -- DEPOSIT / EXAMINE TEN 	MACRO M1113  03-APR-86 22:56  PAGE 65
.DEPAR -- THE "DEPOSIT AR" COMMAND 7603.21

   2676					.SBTTL	.DEPAR -- THE "DEPOSIT AR" COMMAND 7603.21
   2677
   2678					;+
   2679					; .DEPAR -- THE "DEPOSIT AR" COMMAND.
   2680					;
   2681					; THIS ROUTINE WILL DEPOSIT THE DATA SPECIFIED INTO THE KL AR REGISTER.
   2682					;
   2683					; INPUT ARGUMENTS:
   2684					;
   2685					;	NONE.
   2686					;
   2687					; OUTPUT ARGUMENTS:
   2688					;
   2689					;	NONE.
   2690					;
   2691					; ERROR CODES RETURNED:
   2692					;
   2693					;	NONE.
   2694					;-
   2695
   2696	002154				.DEPAR::
   2697	002154					CALL	.CKRUN		; SEE IF THE KL IS RUNNING
	002154	004737 	000000G			 JSR	PC,.CKRUN
   2698	002160					CALL	.CKCOL		; CHECK FOR A COLON
	002160	004737 	000000G			 JSR	PC,.CKCOL
   2699	002164	005046 				CLR	-(SP)		; CLEAR A BUFFER ON THE STACK
   2700	002166	005046 				CLR	-(SP)		; .
   2701	002170	005046 				CLR	-(SP)		; ..
   2702	002172	010600 				MOV	SP,R0		; ...POINT TO IT
   2703	002174					CALL	.GTNUM		; ...READ A NUMBER
	002174	004737 	000000G			 JSR	PC,.GTNUM
   2704	002200					CALL	.CKEOC		; ...CHECK FOR E-O-C
	002200	004737 	000000G			 JSR	PC,.CKEOC
   2705	002204					PUSH	.KLFLG		; ...SAVE ".KLFLG"
	002204	013746 	000000G			 MOV	.KLFLG,-(SP)
   2706	002210	032716 	100000 			BIT	#KF.CLK,(SP)	; ....IS THE CLOCK RUNNING?
   2707	002214	001402 				BEQ	10$		; ....NO -- GO ON
   2708	002216					CALL	.KLHLT		; ....STOP THE KL - DEAD
	002216	004737 	000000G			 JSR	PC,.KLHLT
   2709	002222				10$:
   2710	002222	010001 				MOV	R0,R1		; ....DATA POINTER TO R1
   2711	002224					CALL	.WRTAR		; ....WRITE THE AR
	002224	004737 	000000G			 JSR	PC,.WRTAR
   2712	002230					POP	.SVKLF		; ....SET UP ".SVKLF"
	002230	012637 	000000G			 MOV	(SP)+,.SVKLF
   2713	002234	062706 	000006 			ADD	#^D6,SP		; ...RESET THE STACK
   2714	002240					CALLR	.KLRST		; RESTART THE KL AND EXIT
	002240	000137 	000000G			 JMP	.KLRST
   2715						;
EDTEN -- DEPOSIT / EXAMINE TEN 	MACRO M1113  03-APR-86 22:56  PAGE 66
.DPOST -- THE "DEPOSIT <TEN>" COMMAND 7602.15

   2717					.SBTTL	.DPOST -- THE "DEPOSIT <TEN>" COMMAND 7602.15
   2718
   2719					;+
   2720					; .DPOST -- THE "DEPOSIT <TEN>" COMMAND.
   2721					;
   2722					; THIS SUBROUTINE WILL DEPOSIT THE DATA SPECIFIED INTO THE DESIRED
   2723					; KL MEMORY LOCATION.
   2724					;
   2725					; INPUT ARGUMENTS:
   2726					;
   2727					;	NONE.
   2728					;
   2729					; OUTPUT ARGUMENTS:
   2730					;
   2731					;	THE ADDRESS DEPOSITED IS IN ".EDKLA"
   2732					;	THE DATA DEPOSITED IS IN ".DPBFR"
   2733					;
   2734					; ERROR CODES RETURNED:
   2735					;
   2736					;	APE -- KL APR ERROR
   2737					;	DMF -- DEPOSIT KL MEMORY FAILED
   2738					;	ESD -- EBOX STOPPED - DEPOSIT
   2739					;	KLA -- KL ADDRESS ERROR
   2740					;	KCN -- KL CLOCK NOT RUNNING
   2741					;	MRA -- MISSING REQUIRED ARGUMENT
   2742					;	NOR -- NUMBER OUT OF RANGE.
   2743					;	VFY -- VERIFY FAILED
   2744					;-
   2745
   2746	002244				.DPOST::
   2747	002244					CALL	.CKARG		; SEE IF AN ARGUMENT FOLLOWS
	002244	004737 	000000G			 JSR	PC,.CKARG
   2748	002250	002406 				BLT	10$		; NUMERIC -- GO AROUND TABLE SCAN
   2749	002252	012700 	000000G			MOV	#.DPETB,R0	; EXTENSION TABLE POINTER TO R0
   2750	002256					CALL	.TSCAN		; SCAN IT
	002256	004737 	000000G			 JSR	PC,.TSCAN
   2751	002262					CALLR	@2(R0)		; DO WHAT IT SAYS TO
	002262	000170 	000002 			 JMP	@2(R0)
   2752						;
   2753	002266				10$:
   2754	002266	012700 	000000G			MOV	#.EDKLX,R0	; ADDRESS POINTER TO R0
   2755	002272					CALL	.GTKLA		; READ THE ADDRESS
	002272	004737 	000000G			 JSR	PC,.GTKLA
   2756	002276					CALL	.CKCOL		; CHECK FOR A COLON
	002276	004737 	000000G			 JSR	PC,.CKCOL
   2757	002302	010001 				MOV	R0,R1		; GOT IT, SAVE THE POINTER
   2758	002304	012700 	000000G			MOV	#.DPBFX,R0	; DATA POINTER TO R0
   2759	002310					CALL	.GTKLN		; READ THE DATA
	002310	004737 	000000G			 JSR	PC,.GTKLN
   2760
   2761					;	[CONTINUED ON THE FOLLOWING PAGE]
EDTEN -- DEPOSIT / EXAMINE TEN 	MACRO M1113  03-APR-86 22:56  PAGE 67
.DPOST -- THE "DEPOSIT <TEN>" COMMAND 7602.15

   2763					;	[CONTINUED FROM THE PREVIOUS PAGE]
   2764
   2765	002314				.DPSTE::			; EXTENDED DEPOSIT ENTRY POINT
   2766	002314					CALL	.CKEOC		; CHECK E-O-C CHARACTER
	002314	004737 	000000G			 JSR	PC,.CKEOC
   2767	002320	032737 	100000 	000000G		BIT	#KF.CLK,.KLFLG	; IS THE CLOCK RUNNING?
   2768	002326	001510 				BEQ	DPOKCN		; NO -- GIVE "KCN" ERROR
   2769	002330	012702 	000000G			MOV	#.EDKLA,R2	; ADDRESS BUFFER POINTER TO R2
   2770	002334	012122 				MOV	(R1)+,(R2)+	; LOAD THE NEW ADDRESS
   2771	002336	012122 				MOV	(R1)+,(R2)+	; INTO THE ADDRESS BUFFER
   2772	002340	011112 				MOV	(R1),(R2)	; SO
   2773	002342	024242 				CMP	-(R2),-(R2)	; BACK THE POINTER UP
   2774	002344	010201 				MOV	R2,R1		; PUT IT IN R1
   2775	002346	012702 	000000G			MOV	#.DPBFR,R2	; DEPOSIT DATA POINTER TO R2
   2776	002352	012022 				MOV	(R0)+,(R2)+	; LOAD THE NEW DATA
   2777	002354	012022 				MOV	(R0)+,(R2)+	; INTO THE DEPOSIT DATA BUFFER
   2778	002356	011012 				MOV	(R0),(R2)	; SO
   2779	002360	024242 				CMP	-(R2),-(R2)	; BACK THE POINTER UP
   2780	002362					PUSH	R2		; SAVE THE DATA POINTER
	002362	010246 				 MOV	R2,-(SP)
   2781	002364					PUSH	R1		; .AND THE ADDRESS POINTER
	002364	010146 				 MOV	R1,-(SP)
   2782	002366	010600 				MOV	SP,R0		; ..SAVE THE POINTER TO THE BLOCK
   2783	002370					PUSH	R0		; ..SO
	002370	010046 				 MOV	R0,-(SP)
   2784	002372					PUSH	#.EXBFR		; ...POINT TO EXAMINE BUFFER
	002372	012746 	000000G			 MOV	#.EXBFR,-(SP)
   2785	002376					PUSH	R1		; ....FOR THIS ADDRESS
	002376	010146 				 MOV	R1,-(SP)
   2786	002400	010601 				MOV	SP,R1		; .....POINT TO THE BLOCK
   2787	002402	012700 	000200 			MOV	#ED.PHY,R0	; .....PHYSICAL REFERENCE
   2788	002406					CALL	.EXKLM		; .....EXAMINE IT FIRST
	002406	004737 	000000G			 JSR	PC,.EXKLM
   2789	002412					POP	R0		; .....GET THE ADDRESS POINTER
	002412	012600 				 MOV	(SP)+,R0
   2790	002414					CALL	.TYKLA		; ....PRINT IT
	002414	004737 	000000G			 JSR	PC,.TYKLA
   2791	002420					CALL	.TYSLS		; ....AND A <SLASH>
	002420	004737 	000000G			 JSR	PC,.TYSLS
   2792	002424					CALL	.TYSPC		; ....NOW A <SPACE>
	002424	004737 	000000G			 JSR	PC,.TYSPC
   2793	002430					POP	R0		; ....GET THE DATA POINTER
	002430	012600 				 MOV	(SP)+,R0
   2794	002432					CALL	.TYKLN		; ...TYPE THE DATA
	002432	004737 	000000G			 JSR	PC,.TYKLN
   2795	002436					CALL	.TCRLF		; ...AND A <CRLF>
	002436	004737 	000000G			 JSR	PC,.TCRLF
   2796
   2797					;	[CONTINUED ON THE FOLLOWING PAGE]
EDTEN -- DEPOSIT / EXAMINE TEN 	MACRO M1113  03-APR-86 22:56  PAGE 68
.DPOST -- THE "DEPOSIT <TEN>" COMMAND 7602.15

   2799					;	[CONTINUED FROM THE PREVIOUS PAGE]
   2800
   2801	002442					POP	R1		; ...POINT TO THE DEPOSIT BLOCK
	002442	012601 				 MOV	(SP)+,R1
   2802	002444	012700 	000200 			MOV	#ED.PHY,R0	; ..PHYSICAL REFERENCE
   2803	002450					CALL	.DPKLM		; ..DO THE DEPOSIT
	002450	004737 	000000G			 JSR	PC,.DPKLM
   2804	002454	005737 	000000G			TST	.VFYFL		; ..VERIFY THE DEPOSIT?
   2805	002460	001426 				BEQ	20$		; ..NO -- JUST EXIT
   2806	002462	012766 	000000G	000002 		MOV	#.EXBFR,2(SP)	; ..YES -- CHANGE THE BUFFER POINTER
   2807	002470	012700 	000200 			MOV	#ED.PHY,R0	; ..PHYSICAL REFERENCE
   2808	002474					CALL	.EXKLM		; ..EXAMINE IT
	002474	004737 	000000G			 JSR	PC,.EXKLM
   2809	002500	012700 	000000G			MOV	#.DPBFR,R0	; ..DEPOSITED DATA
   2810	002504	012701 	000000G			MOV	#.EXBFR,R1	; ..EXAMINED DATA
   2811	002510					CALL	.TPCMP		; ..SEE IF THEY COMPARE
	002510	004737 	000000G			 JSR	PC,.TPCMP
   2812	002514	001020 				BNE	DPOVFE		; ..NO -- COMPLAIN
   2813	002516					CALL	.STPKL		; ..STOP THE KL
	002516	004737 	000000G			 JSR	PC,.STPKL
   2814	002522					CALL	.RDAPR		; ..SEE IF THERE ARE ANY APR ERRORS
	002522	004737 	003274'			 JSR	PC,.RDAPR
   2815	002526					CALL	.RSTKL		; ..RESTART THE KL
	002526	004737 	000000G			 JSR	PC,.RSTKL
   2816	002532	005700 				TST	R0		; ..ARE THERE ANY ERRORS?
   2817	002534	001002 				BNE	DPOAPE		; ..YES -- COMPLAIN
   2818	002536				20$:
   2819	002536	022626 				CMP	(SP)+,(SP)+	; ..CLEAR THE STACK
   2820	002540					RETURN			; TO CALLER
	002540	000207 				 RTS	PC
   2821	002542				DPOAPE:
   2822	002542					ERROR$	APE		; ERROR -- KL APR ERROR
	002542	012746 	004305 			 MOV	#^RAPE,-(SP)
	002546	104400 				 TRAP	TC.ERR
   2823						;
   2824	002550				DPOKCN:
   2825	002550					ERROR$	KCN		; ERROR -- KL CLOCK NOT RUNNING
	002550	012746 	042506 			 MOV	#^RKCN,-(SP)
	002554	104400 				 TRAP	TC.ERR
   2826						;
   2827	002556				DPOVFE:
   2828	002556					ERROR$	VFY		; ERROR -- VERIFY FAILED
	002556	012746 	105211 			 MOV	#^RVFY,-(SP)
	002562	104400 				 TRAP	TC.ERR
   2829						;
EDTEN -- DEPOSIT / EXAMINE TEN 	MACRO M1113  03-APR-86 22:56  PAGE 69
.DPKLD -- THE "DEPOSIT <TEN> <NUMERICAL OBJECT>" COMMAND 7602.

   2831					.SBTTL	.DPKLD -- THE "DEPOSIT <TEN> <NUMERICAL OBJECT>" COMMAND 7602.29
   2832
   2833						.ENABL	LSB
   2834
   2835	002564				.DPKLT::			; DEPOSIT <TEN> THIS
   2836	002564	012700 	000000G			MOV	#.EDKLX,R0	; ADDRESS POINTER TO R0
   2837	002570	000413 				BR	10$		; CHECK FOR ARGUMENTS
   2838						;
   2839	002572				.DPKLD::			; DEPOSIT <TEN> DECREMENT
   2840	002572					CALL	.EDKLD		; DO THE DECREMENT
	002572	004737 	000444'			 JSR	PC,.EDKLD
   2841	002576	000410 				BR	10$		; EXIT THRU COMMON CODE
   2842						;
   2843	002600				.DPKLI::			; DEPOSIT <TEN> INCREMENT
   2844	002600					CALL	.EDKLI		; DO THE INCREMENT
	002600	004737 	000462'			 JSR	PC,.EDKLI
   2845	002604	000405 				BR	10$		; EXIT THRU COMMON CODE
   2846						;
   2847	002606				.DPKLN::			; DEPOSIT <TEN> NEXT
   2848	002606					CALL	.EDKLN		; GO GET NEXT ADDRESS
	002606	004737 	000432'			 JSR	PC,.EDKLN
   2849	002612	000402 				BR	10$		; EXIT THRU COMMON CODE
   2850						;
   2851	002614				.DPKLP::			; DEPOSIT <TEN> PREVIOUS
   2852	002614					CALL	.EDKLP		; GO GET PREVIOUS ADDRESS
	002614	004737 	000420'			 JSR	PC,.EDKLP
   2853	002620				10$:
   2854	002620	010001 				MOV	R0,R1		; ADDRESS POINTER TO R1
   2855	002622	122715 	000075 			CMPB	#'=,(R5)	; IS THERE AN ARGUMENT FOLLOWING?
   2856	002626	001403 				BEQ	20$		; YES -- GO GET IT
   2857	002630	012700 	000000G			MOV	#.DPBFX,R0	; NO -- USE OLD DATA
   2858	002634	000627 				BR	.DPSTE		; AND DO THE DEPOSIT
   2859						;
   2860	002636				20$:
   2861	002636	105725 				TSTB	(R5)+		; GET OVER THE COLON
   2862	002640	012700 	000000G			MOV	#.DPBFX,R0	; POINT TO THE DATA BUFFER
   2863	002644					CALL	.GTKLN		; GET A NUMBER
	002644	004737 	000000G			 JSR	PC,.GTKLN
   2864	002650	000621 				BR	.DPSTE		; DO THE DEPOSIT
   2865						;
   2866
   2867						.DSABL	LSB
EDTEN -- DEPOSIT / EXAMINE TEN 	MACRO M1113  03-APR-86 22:56  PAGE 70
.EXAMT -- THE "EXAMINE <TEN>" COMMAND 7602.05

   2869					.SBTTL	.EXAMT -- THE "EXAMINE <TEN>" COMMAND 7602.05
   2870
   2871					;+
   2872					; .EXAMT -- THE "EXAMINE <TEN>" COMMAND.
   2873					;
   2874					; THIS SUBROUTINE READS A KL ADDRESS, EXAMINES THAT ADDRESS,
   2875					; AND PRINTS THE CONTENT OF THAT ADDRESS.
   2876					;
   2877					; INPUT ARGUMENTS:
   2878					;
   2879					;	NONE.
   2880					;
   2881					; OUTPUT ARGUMENTS:
   2882					;
   2883					;	NONE.
   2884					;
   2885					; ERROR CODES RETURNED:
   2886					;
   2887					;	EMF -- EXAMINE MEMORY FAILED.
   2888					;	ESE -- EBOX STOPPED - EXAMINE
   2889					;	KLA -- KL ADDRESS ERROR
   2890					;	KCN -- KL CLOCK NOT RUNNING
   2891					;	MRA -- MISSING REQUIRED ARGUMENT
   2892					;-
   2893
   2894	002652				.EXAMT::
   2895	002652					CALL	.CKARG		; SEE IF WE HAVE AN ARGUMENT
	002652	004737 	000000G			 JSR	PC,.CKARG
   2896	002656	002406 				BLT	10$		; NUMERIC -- GO AROUND TABLE SCAN
   2897	002660	012700 	000000G			MOV	#.EXETB,R0	; EXTENSION TABLE POINTER TO R0
   2898	002664					CALL	.TSCAN		; SCAN THE TABLE
	002664	004737 	000000G			 JSR	PC,.TSCAN
   2899	002670					CALLR	@2(R0)		; DO WHAT IT SAYS TO
	002670	000170 	000002 			 JMP	@2(R0)
   2900						;
   2901	002674				10$:
   2902	002674	012700 	000000G			MOV	#.EDKLX,R0	; POINT TO ADDRESS BUFFER
   2903	002700					CALL	.GTKLA		; GO GET THE ADDRESS
	002700	004737 	000000G			 JSR	PC,.GTKLA
   2904
   2905					;	[CONTINUED ON THE FOLLOWING PAGE]
EDTEN -- DEPOSIT / EXAMINE TEN 	MACRO M1113  03-APR-86 22:56  PAGE 71
.EXAMT -- THE "EXAMINE <TEN>" COMMAND 7602.05

   2907					;	[CONTINUED FROM THE PREVIOUS PAGE]
   2908
   2909	002704				.EXMTE::			; EXTENDED EXAMINE ENTRY POINT
   2910	002704					CALL	.CKEOC		; CHECK E-O-C CHARACTER
	002704	004737 	000000G			 JSR	PC,.CKEOC
   2911	002710	012037 	000076'			MOV	(R0)+,STOPTX	; [5.1014]SAVE INITIAL ADDRESS
   2912	002714	012037 	000100'			MOV	(R0)+,STOPTX+2	; [5.1014]SAVE INITIAL ADDRESS
   2913	002720	011037 	000102'			MOV	(R0),STOPTX+4	; [5.1014]SAVE INITIAL ADDRESS
   2914	002724	024040 				CMP	-(R0),-(R0)	; [5.1014]RESTORE POINTER
   2915	002726	032737 	100000 	000000G	1$:	BIT	#KF.CLK,.KLFLG	; IS THE KL CLOCK ON?
   2916	002734	001535 				BEQ	EXTKCN		; NO -- GIVE "KCN" ERROR
   2917	002736					PUSH	R0		; [5.1014]YES -- SAVE ADDRESS POINTER
	002736	010046 				 MOV	R0,-(SP)
   2918	002740					PUSH	#.EXBFR		; SAVE THE DATA POINTER
	002740	012746 	000000G			 MOV	#.EXBFR,-(SP)
   2919	002744	012702 	000000G			MOV	#.EDKLA,R2	; .ADDRESS BUFFER POINTER TO R2
   2920	002750	012022 				MOV	(R0)+,(R2)+	; .LOAD THE NEW ADDRESS
   2921	002752	012022 				MOV	(R0)+,(R2)+	; .INTO THE ADDRESS BUFFER
   2922	002754	011012 				MOV	(R0),(R2)	; .SO
   2923	002756	024242 				CMP	-(R2),-(R2)	; .BACK THE POINTER UP
   2924	002760					PUSH	R2		; .ADDRESS POINTER
	002760	010246 				 MOV	R2,-(SP)
   2925	002762	010601 				MOV	SP,R1		; ..POINT TO THE DATA BLOCK
   2926	002764	012700 	000200 			MOV	#ED.PHY,R0	; ..PHYSICAL REFERENCE
   2927	002770					CALL	.EXKLM		; ..DO THE EXAMINE
	002770	004737 	000000G			 JSR	PC,.EXKLM
   2928	002774					POP	R0		; ..POINT TO THE ADDRESS
	002774	012600 				 MOV	(SP)+,R0
   2929	002776					CALL	.TYKLA		; .PRINT THE ADDRESS
	002776	004737 	000000G			 JSR	PC,.TYKLA
   2930	003002					CALL	.TYSLS		; .TYPE A SLASH
	003002	004737 	000000G			 JSR	PC,.TYSLS
   2931	003006					CALL	.TYSPC		; .AND A SPACE
	003006	004737 	000000G			 JSR	PC,.TYSPC
   2932	003012					POP	R0		; .POINT TO THE DATA
	003012	012600 				 MOV	(SP)+,R0
   2933	003014					CALL	.TYKLN		; PRINT THE DATA
	003014	004737 	000000G			 JSR	PC,.TYKLN
   2934	003020					CALL	.TCRLF		; AND END THE LINE
	003020	004737 	000000G			 JSR	PC,.TCRLF
   2935	003024					POP	R0		; [5.1014]RESTORE ADDRESS POINTER
	003024	012600 				 MOV	(SP)+,R0
   2936	003026	005737 	000112'		5$:	TST	RNGTX		; [5.1014]RANGE IN PROGRESS?
   2937	003032	001412 				BEQ	7$		; [5.1014]NO -- GO ON
   2938	003034	012701 	000076'			MOV	#STOPTX,R1	; [5.1014]YES -- FINAL ADDRESS
   2939	003040					CALL	.TPCMP		; [5.1014]DONE?
	003040	004737 	000000G			 JSR	PC,.TPCMP
   2940	003044	001405 				BEQ	7$		; [5.1014]YES -- GO ON
   2941	003046	012701 	000104'			MOV	#INCTX,R1	; [5.1014]NO -- POINT TO INCREMENT
   2942	003052					CALL	.TPADD		; [5.1014]INCREMENT ADDRESS
	003052	004737 	000000G			 JSR	PC,.TPADD
   2943	003056	000723 				BR	1$		; [5.1014]EXAMINE NEXT ADDRESS
   2944	003060	005037 	000112'		7$:	CLR	RNGTX		; [5.1014]CLEAR RANGE IN PROGRESS FLAG
   2945	003064	122715 	000054 			CMPB	#',,(R5)	; [5.1014]IS THIS A LIST?
   2946	003070	001002 				BNE	20$		; [5.1014]NO -- GO NO
   2947	003072	105725 				TSTB	(R5)+		; [5.1014]YES -- REMOVE COMMA
   2948	003074	000666 				BR	.EXAMT		; [5.1014]DO NEXT
EDTEN -- DEPOSIT / EXAMINE TEN 	MACRO M1113  03-APR-86 22:56  PAGE 71-1
.EXAMT -- THE "EXAMINE <TEN>" COMMAND 7602.05

   2949	003076	122715 	000072 		20$:	CMPB	#':,(R5)	; [5.1014]IS THIS A RANGE?
   2950	003102	001051 				BNE	40$		; [5.1014]NO -- GO ON
   2951	003104	105725 				TSTB	(R5)+		; [5.1014]YES -- REMOVE COLON
   2952	003106					CALL	.GTKLA		; [5.1014]GET FINAL ADDRESS
	003106	004737 	000000G			 JSR	PC,.GTKLA
   2953	003112					CALL	.CKEOC		; [5.1014]CHECK FOR END OF COMMAND
	003112	004737 	000000G			 JSR	PC,.CKEOC
   2954	003116	005237 	000112'			INC	RNGTX		; [5.1014]SET RANGE IN PROGRESS
   2955	003122	012737 	000001 	000104'		MOV	#1,INCTX	; [5.1014]SET FORWARD RANGE
   2956	003130	005037 	000106'			CLR	INCTX+2		; [5.1014]CLEAR INCREMENT
   2957	003134	005037 	000110'			CLR	INCTX+4		; [5.1014]CLEAR INCREMENT
   2958	003140	012701 	000076'			MOV	#STOPTX,R1	; [5.1014]INITIAL ADDRESS POINTER
   2959	003144					CALL	.TPCMP		; [5.1014]FORWARD RANGE?
	003144	004737 	000000G			 JSR	PC,.TPCMP
   2960	003150	003006 				BGT	30$		; [5.1014]YES -- GO ON
   2961	003152					PUSH	R0		; [5.1014]NO -- SAVE FINAL ADDRESS
	003152	010046 				 MOV	R0,-(SP)
   2962	003154	012700 	000104'			MOV	#INCTX,R0	; [5.1014]RANGE INCREMENT
   2963	003160					CALL	.TPNEG		; [5.1014]NEGATE IT
	003160	004737 	000000G			 JSR	PC,.TPNEG
   2964	003164					POP	R0		; [5.1014]RESTORE ADDRESS
	003164	012600 				 MOV	(SP)+,R0
   2965	003166				30$:	PUSH	STOPTX		; [5.1014]SAVE INITIAL ADDRESS
	003166	013746 	000076'			 MOV	STOPTX,-(SP)
   2966	003172					PUSH	STOPTX+2	; [5.1014]SAVE INITIAL ADDRESS
	003172	013746 	000100'			 MOV	STOPTX+2,-(SP)
   2967	003176					PUSH	STOPTX+4	; [5.1014]SAVE INITIAL ADDRESS
	003176	013746 	000102'			 MOV	STOPTX+4,-(SP)
   2968	003202	012037 	000076'			MOV	(R0)+,STOPTX	; [5.1014]SET FINAL ADDRESS
   2969	003206	012037 	000100'			MOV	(R0)+,STOPTX+2	; [5.1014]SET FINAL ADDRESS
   2970	003212	012037 	000102'			MOV	(R0)+,STOPTX+4	; [5.1014]SET FINAL ADDRESS
   2971	003216					POP	-(R0)		; [5.1014]SET INITIAL ADDRESS
	003216	012640 				 MOV	(SP)+,-(R0)
   2972	003220					POP	-(R0)		; [5.1014]SET INITIAL ADDRESS
	003220	012640 				 MOV	(SP)+,-(R0)
   2973	003222					POP	-(R0)		; [5.1014]SET INITIAL ADDRESS
	003222	012640 				 MOV	(SP)+,-(R0)
   2974	003224	000700 				BR	5$		; [5.1014]DO INCREMENT
   2975	003226				40$:	RETURN			; [5.1014]EXIT
	003226	000207 				 RTS	PC
   2976						;
   2977	003230				EXTKCN:
   2978	003230					ERROR$	KCN		; ERROR -- KL CLOCK NOT RUNNING
	003230	012746 	042506 			 MOV	#^RKCN,-(SP)
	003234	104400 				 TRAP	TC.ERR
   2979						;
   2980
   2981	000076				.PSECT	DATA
   2982
   2983	000076	000000 	000000 	000000 	STOPTX:	.WORD	0,0,0		; [5.1014]FINAL/FIRST ADDRESS
   2984	000104	000000 	000000 	000000 	INCTX:	.WORD	0,0,0		; [5.1014]RANGE INCREMENT
   2985	000112	000000 			RNGTX:	.WORD	0		; [5.1014]RANGE IN PROGRESS FLAG
   2986
   2987	003236				.PSECT
EDTEN -- DEPOSIT / EXAMINE TEN 	MACRO M1113  03-APR-86 22:56  PAGE 72
.EXKLD -- THE "DEPOSIT <TEN> <NUMERICAL OBJECT>" COMMAND 7609.

   2989					.SBTTL	.EXKLD -- THE "DEPOSIT <TEN> <NUMERICAL OBJECT>" COMMAND 7609.10
   2990
   2991						.ENABL	LSB
   2992
   2993	003236				.EXKLT::			; EXAMINE <TEN> THIS
   2994	003236	012700 	000000G			MOV	#.EDKLA,R0	; ADDRESS POINTER TO R0
   2995	003242	000620 				BR	.EXMTE		; DO THE EXAMINE
   2996						;
   2997	003244				.EXKLD::			; EXAMINE <TEN> DECREMENT
   2998	003244					CALL	.EDKLD		; DECREMENT IT
	003244	004737 	000444'			 JSR	PC,.EDKLD
   2999	003250	000615 				BR	.EXMTE		; DO THE EXAMINE
   3000						;
   3001	003252				.EXKLI::			; EXAMINE <TEN> INCREMENT
   3002	003252					CALL	.EDKLI		; INCREMENT IT
	003252	004737 	000462'			 JSR	PC,.EDKLI
   3003	003256	000612 				BR	.EXMTE		; DO THE EXAMINE
   3004						;
   3005	003260				.EXKLN::			; EXAMINE <TEN> NEXT
   3006	003260					CALL	.EDKLN		; GET NEXT ADDRESS
	003260	004737 	000432'			 JSR	PC,.EDKLN
   3007	003264	000607 				BR	.EXMTE		; DO THE EXAMINE
   3008						;
   3009	003266				.EXKLP::			; EXAMINE <TEN> PREVIOUS
   3010	003266					CALL	.EDKLP		; GET THE PREVIOUS ADDDRESS
	003266	004737 	000420'			 JSR	PC,.EDKLP
   3011	003272	000604 				BR	.EXMTE		; DO THE EXAMINE
   3012						;
   3013
   3014						.DSABL	LSB
EDTEN -- DEPOSIT / EXAMINE TEN 	MACRO M1113  03-APR-86 22:56  PAGE 73
.RDAPR -- SUBROUTINE TO READ THE STATE OF THE KL APR 7509.24

   3016					.SBTTL	.RDAPR -- SUBROUTINE TO READ THE STATE OF THE KL APR 7509.24
   3017
   3018					;+
   3019					; .RDAPR -- SUBROUTINE TO READ THE STATE OF THE KL APR.
   3020					;
   3021					; THIS SUBROUTINE READS THE ERROR STATE OF THE KL APR AND RETURNS
   3022					; THAT ERROR STATE IN R0 AND ".APRWD".
   3023					;
   3024					; THE FORMAT OF THE DATA RETURNED IS:
   3025					;
   3026					;	AP.PWF -- BIT00 -- [APR PWR FAIL IN H] -- POWER FAIL
   3027					;	AP.SAP -- BIT01 -- [APR S ADR P ERR IN H] -- SBUS ADR PARITY ERROR
   3028					;	AP.CDP -- BIT02 -- [APR C DIR P ERR IN H] -- CACHE DIR PARITY ERROR
   3029					;	AP.MPE -- BIT03 -- [APR MB PAR ERR IN H] -- MB PARITY ERROR
   3030					;	AP.IPF -- BIT04 -- [APR I/O PF ERR IN H] -- I/O PAGE FAIL ERROR
   3031					;	AP.NXM -- BIT05 -- [APR NXM ERR IN H] -- NON-EX-MEMORY ERROR
   3032					;	AP.SBE -- BIT06 -- [APR SBUS ERR IN H] -- SBUS ERROR
   3033					;
   3034					; INPUT ARGUMENTS:
   3035					;
   3036					;	NONE.
   3037					;
   3038					; OUTPUT ARGUMENTS:
   3039					;
   3040					;	R0 CONTAINS A COPY OF THE KL APR ERROR FLAGS
   3041					;	".APRWD" CONTAINS A COPY OF THE KL APR ERROR FLAGS
   3042					;
   3043					; ERROR CODES RETURNED:
   3044					;
   3045					;	FRF -- FUNCTION READ FAILED.
   3046					;-
   3047
   3048	003274				.RDAPR::
   3049	003274					PUSH	R1		; SAVE R1 ON THE STACK
	003274	010146 				 MOV	R1,-(SP)
   3050	003276	005001 				CLR	R1		; .CLEAR R1
   3051	003300	012700 	000220 			MOV	#FR.APR,R0	; .FR TO READ APR ERRORS
   3052	003304					CALL	.FREAD		; .READ APR ERRORS
	003304	004737 	000000G			 JSR	PC,.FREAD
   3053	003310	012701 	177751 			MOV	#-^D23,R1	; .SHIFT COUNT TO R1
   3054	003314					CALL	.TPSHI		; .SHIFT ERROR BITS INTO POSITION
	003314	004737 	000000G			 JSR	PC,.TPSHI
   3055	003320	042710 	177600 			BIC	#177600,(R0)	; .FLUSH UNWANTED BITS
   3056	003324	011037 	000000G			MOV	(R0),.APRWD	; .SAVE THE WORD
   3057	003330	011000 				MOV	(R0),R0		; .PUT A COPY IN R0
   3058	003332					POP	R1		; .RESTORE R1
	003332	012601 				 MOV	(SP)+,R1
   3059	003334					RETURN			; AND GO AWAY
	003334	000207 				 RTS	PC
   3060						;
EDTEN -- DEPOSIT / EXAMINE TEN 	MACRO M1113  03-APR-86 22:56  PAGE 75
.RDAPR -- SUBROUTINE TO READ THE STATE OF THE KL APR 7509.24

   3063
   3064
   3065					;
   3066					;                             COPYRIGHT (C)  1985 BY
   3067					;                     DIGITAL EQUIPMENT CORPORATION, MAYNARD MASS.
   3068					;			ALL RIGHTS RESERVED.
   3069					;       THIS SOFTWARE IS FURNISHED UNDER A LICENSE AND MAY BE  USED  AND  COPIED
   3070					;       ONLY IN ACCORDANCE WITH THE TERMS OF SUCH LICENSE AND WITH THE INCLUSION
   3071					;       OF THE ABOVE COPYRIGHT NOTICE.  THIS SOFTWARE OR ANY OTHER COPIES THERE-
   3072					;       OF  MAY NOT BE PROVIDED OR OTHERWISE MADE AVAILABLE TO ANY OTHER PERSON.
   3073					;       NO TITLE TO OR OWNERSHIP OF THE SOFTWARE IS HEREBY TRANSFERRED.
   3074					;
   3075					;       THE INFORMATION CONTAINED IN THIS SOFTWARE IS SUBJECT TO CHANGE  WITHOUT
   3076					;       NOTICE  AND SHOULD NOT BE CONSTRUED AS A COMMITMENT BY DIGITAL EQUIPMENT
   3077					;       CORPORATION.
   3078					;
   3079					;       DIGITAL ASSUMES NO RESPONSIBILITY FOR THE  USE  OR  RELIABILITY  OF  ITS
   3080					;       SOFTWARE ON EQUIPMENT WHICH IS NOT SUPPILED BY DIGITAL.
   3081					;
   3082					;		MODULE: EXAMINE EBR/UBR
   3083					;
   3084					;		VERSION: 01-00
   3085					;
   3086					;		AUTHOR: M. RUDENKO
   3087					;
   3088					;		DATE: 8504.02
   3089					;
   3090					;
EDTEN -- DEPOSIT / EXAMINE TEN 	MACRO M1113  03-APR-86 22:56  PAGE 76
.RDAPR -- SUBROUTINE TO READ THE STATE OF THE KL APR 7509.24

   3092					; .EBRUBR -- EXAMINE EBR/UBR COMMAND
   3093
   3094					;+
   3095					; EBRUBR -- THE EXAMINE EBR/ EXAMINE UBR COMMAND
   3096					;
   3097					;
   3098					; INPUT ARGUMENTS:
   3099					;
   3100					; 	R0 POINTS TO THE KL INSTRUCTION TO BE EXECUTED.
   3101					;
   3102					; OUTPUT ARGUMENTS:
   3103					;
   3104					;	NONE.
   3105					;
   3106					; ERROR CODES RETURNED:
   3107					;
   3108					;	IOC -- ILLEGAL KL OPCODE.
   3109					;	MRA -- MISSING REQUIRED ARGUMENT.
   3110					;	XTO -- KL EXECUTE TIMED OUT.
   3111					;-
   3112	000114					.PSECT	DATA
   3113	000114	000000 			EPTUPT:	.WORD	0		; CONTROL FLAG
   3114	000116	000000 	000000 	000000 	OFFSET::	.WORD	0,0,0		; OFFSET INTO PAGE TABLE
   3115	000124				GETEBR::	IOKL$	CONI,PAG,,100
	000124	   100 	   000 			 .BYTE	$$A,$$B
	000126	   200 	   012 			 .BYTE	$$C,$$D
	000130	   016 	   000 			 .BYTE	$$E,$$F
   3116	000132				GETUBR::	IOKL$	DATAI,PAG,,100
	000132	   100 	   000 			 .BYTE	$$A,$$B
	000134	   200 	   010 			 .BYTE	$$C,$$D
	000136	   016 	   000 			 .BYTE	$$E,$$F
   3117
   3118	003336					.PSECT
   3119						.ENABL	LSB
   3120
   3121	003336	005237 	000114'		.EXEBR::	INC	EPTUPT
   3122	003342	000402 				BR	5$
   3123	003344	005037 	000114'		.EXUBR::	CLR	EPTUPT
   3124	003350				5$:		PUSH <R0,R1>
	003350	010046 				 MOV	R0,-(SP)
	003352	010146 				 MOV	R1,-(SP)
   3125	003354	012700 	000116'			MOV	#OFFSET,R0
   3126	003360					CALL	.GTKLA
	003360	004737 	000000G			 JSR	PC,.GTKLA
   3127	003364	012700 	000132'			MOV	#GETUBR,R0
   3128	003370	005737 	000114'			TST	EPTUPT
   3129	003374	001402 				BEQ	20$
   3130	003376	012700 	000124'			MOV	#GETEBR,R0
   3131	003402				20$:	CALL	.EXCTF
	003402	004737 	000000G			 JSR	PC,.EXCTF
   3132
   3133	003406	012737 	000100 	000000G		MOV	#100,.EDKLX
   3134	003414	005037 	000002G			CLR	.EDKLX+2
   3135	003420	005037 	000004G			CLR	.EDKLX+4
   3136	003424					PUSH	#.EXBFR
	003424	012746 	000000G			 MOV	#.EXBFR,-(SP)
   3137	003430					PUSH	#.EDKLX
EDTEN -- DEPOSIT / EXAMINE TEN 	MACRO M1113  03-APR-86 22:56  PAGE 76-1
.RDAPR -- SUBROUTINE TO READ THE STATE OF THE KL APR 7509.24

	003430	012746 	000000G			 MOV	#.EDKLX,-(SP)
   3138	003434	010601 				MOV	SP,R1
   3139	003436	012700 	000200 			MOV	#ED.PHY,R0
   3140	003442					CALL	.EXKLM
	003442	004737 	000000G			 JSR	PC,.EXKLM
   3141	003446	005726 				TST	(SP)+
   3142	003450	005726 				TST	(SP)+
   3143	003452	012700 	000000G			MOV	#.EXBFR,R0
   3144	003456	012701 	000011 			MOV	#11,R1
   3145	003462					CALL	.TPSHI
	003462	004737 	000000G			 JSR	PC,.TPSHI
   3146	003466	012701 	000116'			MOV	#OFFSET,R1
   3147	003472					CALL	.TPADD
	003472	004737 	000000G			 JSR	PC,.TPADD
   3148	003476	012701 	000006G			MOV	#.EXBFR+6,R1
   3149	003502	012700 	000006G			MOV	#.EDKLX+6,R0
   3150	003506	014140 				MOV	-(R1),-(R0)
   3151	003510	014140 				MOV	-(R1),-(R0)
   3152	003512	014140 				MOV	-(R1),-(R0)
   3153	003514					CALL	.EXMTE
	003514	004737 	002704'			 JSR	PC,.EXMTE
   3154	003520					POP	<R1,R0>
	003520	012601 				 MOV	(SP)+,R1
	003522	012600 				 MOV	(SP)+,R0
   3155	003524					RETURN
	003524	000207 				 RTS	PC
   3156						.DSABL	LSB
   3157
EDTEN -- DEPOSIT / EXAMINE TEN 	MACRO M1113  03-APR-86 22:56  PAGE 77
.RDAPR -- SUBROUTINE TO READ THE STATE OF THE KL APR 7509.24

   3159
   3160
   3161					.TITLE	EXCTC -- EXECUTE (XCT) COMMAND MODULE 7603.30
   3162
   3163						.IDENT	"005000"
   3164					;
   3165					;                             COPYRIGHT (C) 1975, 1984, 1985 BY
   3166					;                     DIGITAL EQUIPMENT CORPORATION, MAYNARD MASS.
   3167					;			ALL RIGHTS RESERVED.
   3168					;       THIS SOFTWARE IS FURNISHED UNDER A LICENSE AND MAY BE  USED  AND  COPIED
   3169					;       ONLY IN ACCORDANCE WITH THE TERMS OF SUCH LICENSE AND WITH THE INCLUSION
   3170					;       OF THE ABOVE COPYRIGHT NOTICE.  THIS SOFTWARE OR ANY OTHER COPIES THERE-
   3171					;       OF  MAY NOT BE PROVIDED OR OTHERWISE MADE AVAILABLE TO ANY OTHER PERSON.
   3172					;       NO TITLE TO OR OWNERSHIP OF THE SOFTWARE IS HEREBY TRANSFERRED.
   3173					;
   3174					;       THE INFORMATION CONTAINED IN THIS SOFTWARE IS SUBJECT TO CHANGE  WITHOUT
   3175					;       NOTICE  AND SHOULD NOT BE CONSTRUED AS A COMMITMENT BY DIGITAL EQUIPMENT
   3176					;       CORPORATION.
   3177					;
   3178					;       DIGITAL ASSUMES NO RESPONSIBILITY FOR THE  USE  OR  RELIABILITY  OF  ITS
   3179					;       SOFTWARE ON EQUIPMENT WHICH IS NOT SUPPILED BY DIGITAL.
   3180					;
   3181					;		MODULE: EXECUTE COMMAND
   3182					;
   3183					;		VERSION: 05-00
   3184					;
   3185					;		AUTHOR: R. BELANGER
   3186					;
   3187					;		DATE: 7603.30
   3188					;
   3189					;	THIS MODULE CONTAINS:
   3190					;
   3191					;	1) EXECUTE COMMAND CODE
EXCTC -- EXECUTE (XCT) COMMAND 	MACRO M1113  03-APR-86 22:56  PAGE 78
.EXCTC -- THE "XCT" (EXECUTE) COMMAND 7602.17

   3193					.SBTTL	.EXCTC -- THE "XCT" (EXECUTE) COMMAND 7602.17
   3194
   3195					;+
   3196					; .EXCTC -- THE "XCT" (EXECUTE) COMMAND
   3197					;
   3198					; THIS ROUTINE SIMULATES THE "XCT" SWITCH OF THE KL CONSOLE.
   3199					;
   3200					; INPUT ARGUMENTS:
   3201					;
   3202					; 	R0 POINTS TO THE KL INSTRUCTION TO BE EXECUTED.
   3203					;
   3204					; OUTPUT ARGUMENTS:
   3205					;
   3206					;	NONE.
   3207					;
   3208					; ERROR CODES RETURNED:
   3209					;
   3210					;	IOC -- ILLEGAL KL OPCODE.
   3211					;	MRA -- MISSING REQUIRED ARGUMENT.
   3212					;	XTO -- KL EXECUTE TIMED OUT.
   3213					;-
   3214
   3215	003526				.EXCTC::			; HERE FROM PARSER
   3216	003526	005046 				CLR	-(SP)		; CLEAR A BUFFER ON THE STACK
   3217	003530	005046 				CLR	-(SP)		; .
   3218	003532	005046 				CLR	-(SP)		; ..
   3219	003534	010600 				MOV	SP,R0		; ...POINT TO IT
   3220	003536					CALL	.GTKLN		; ...READ THE INSTRUCTION
	003536	004737 	000000G			 JSR	PC,.GTKLN
   3221	003542					CALL	.CKEOC		; ...CHECK E-O-C CHARACTER
	003542	004737 	000000G			 JSR	PC,.CKEOC
   3222	003546	032760 	000017 	000004 		BIT	#17,4(R0)	; ...CHECK HIGH PART OF OPCODE
   3223	003554	001005 				BNE	10$		; ...OK -- GO ON
   3224	003556	032760 	174000 	000002 		BIT	#^C3777,2(R0)	; ...CHECK LOW PART OF OPCODE
   3225	003564	001403 				BEQ	EXCIOC		; ...NONE THERE -- GIVE "IOC" ERROR
   3226	003566	010600 				MOV	SP,R0		; ...POINT TO THE INSTRUCTION
   3227	003570				10$:
   3228	003570					CALLR	.EXECT		; ...ALL OK -- GO DO IT
	003570	000137 	000000G			 JMP	.EXECT
   3229						;
   3230	003574				EXCIOC:
   3231	003574					ERROR$	IOC		; ERROR -- ILLEGAL OPCODE
	003574	012746 	035233 			 MOV	#^RIOC,-(SP)
	003600	104400 				 TRAP	TC.ERR
   3232						;
EXCTC -- EXECUTE (XCT) COMMAND 	MACRO M1113  03-APR-86 22:56  PAGE 79
.EXCTC -- THE "XCT" (EXECUTE) COMMAND 7602.17

   3234
   3235
   3236					.TITLE	EXDTE -- EXAMINE DTE-20 REGISTERS COMMAND
   3237
   3238						.IDENT	"006110"
   3239					;
   3240					;                             COPYRIGHT (C) 1975, 1984, 1985 BY
   3241					;                     DIGITAL EQUIPMENT CORPORATION, MAYNARD MASS.
   3242					;			ALL RIGHTS RESERVED.
   3243					;       THIS SOFTWARE IS FURNISHED UNDER A LICENSE AND MAY BE  USED  AND  COPIED
   3244					;       ONLY IN ACCORDANCE WITH THE TERMS OF SUCH LICENSE AND WITH THE INCLUSION
   3245					;       OF THE ABOVE COPYRIGHT NOTICE.  THIS SOFTWARE OR ANY OTHER COPIES THERE-
   3246					;       OF  MAY NOT BE PROVIDED OR OTHERWISE MADE AVAILABLE TO ANY OTHER PERSON.
   3247					;       NO TITLE TO OR OWNERSHIP OF THE SOFTWARE IS HEREBY TRANSFERRED.
   3248					;
   3249					;       THE INFORMATION CONTAINED IN THIS SOFTWARE IS SUBJECT TO CHANGE  WITHOUT
   3250					;       NOTICE  AND SHOULD NOT BE CONSTRUED AS A COMMITMENT BY DIGITAL EQUIPMENT
   3251					;       CORPORATION.
   3252					;
   3253					;       DIGITAL ASSUMES NO RESPONSIBILITY FOR THE  USE  OR  RELIABILITY  OF  ITS
   3254					;       SOFTWARE ON EQUIPMENT WHICH IS NOT SUPPILED BY DIGITAL.
   3255					;
   3256					;		MODULE: EXAMINE DTE-20 COMMAND
   3257					;
   3258					;		VERSION: 06-11
   3259					;
   3260					;		AUTHOR: K. LEFEBVRE
   3261					;
   3262					;		DATE: 24-SEP-79
   3263					;
   3264					;	THIS MODULE CONTAINS:
   3265					;
   3266					;	1) EXAMINE DTE-20 REGISTERS COMMAND
   3267
   3268						.MCALL	.INH6,.ENB6
EXDTE -- EXAMINE DTE-20 REGISTE	MACRO M1113  03-APR-86 22:56  PAGE 80
.EXDTE -- THE "EXAMINE DTE-20" COMMAND 7603.20

   3270					.SBTTL	.EXDTE -- THE "EXAMINE DTE-20" COMMAND 7603.20
   3271
   3272					;+
   3273					; .EXDTE -- THE "EXAMINE DTE-20" COMMAND.
   3274					;
   3275					; THIS ROUTINE WILL READ AND DISPLAY THE CONTENTS OF ALL THE DTE-20
   3276					; REGISTERS ON THE CONSOLE DEVICE.
   3277					;
   3278					;	THIS ROUTINE TYPES OUT ALL THE REGISTERS IN THE NEW FORMAT
   3279					;	AS WAS REQUIRED FOR TCO 5.1001
   3280					;
   3281					; INPUT ARGUMENTS:
   3282					;
   3283					;	NONE.
   3284					;
   3285					; OUTPUT ARGUMENTS:
   3286					;
   3287					;	NONE.
   3288					;
   3289					; ERROR CODES RETURNED:
   3290					;
   3291					;	NONE.
   3292					;-
   3293
   3294	003602				.EXDTE::
   3295	003602					CALL	.CKEOC		; CHECK E-O-C
	003602	004737 	000000G			 JSR	PC,.CKEOC
   3296	003606					CALLR	TYPDTE		; TYPE OUT DTE REGISTERS
	003606	000137 	003612'			 JMP	TYPDTE
EXDTE -- EXAMINE DTE-20 REGISTE	MACRO M1113  03-APR-86 22:56  PAGE 81
TYPDTE -- TYPE OUT DTE REGISTERS SYMBOLICALLY

   3298					.SBTTL	TYPDTE -- TYPE OUT DTE REGISTERS SYMBOLICALLY
   3299
   3300					;+
   3301					; TYPDTE -- TYPE OUT DTE-20 REGISTERS SYMBOLLICALLY
   3302					;
   3303					; THIS ROUTINE WILL TYPE OUT THE CONTENTS OF ALL THE DTE-20 REGISTERS
   3304					; IN OCTAL AND WILL ALSO DECODE SOME OF THEM.
   3305					;
   3306					;	THIS ROUTINE WAS ADDED FOR TCO 5.1001
   3307					;
   3308					; INPUT ARGUMENTS:
   3309					;
   3310					;	NONE
   3311					;
   3312					; OUTPUT ARGUMENTS:
   3313					;
   3314					;	NONE
   3315					;
   3316					; ERROR CODES RETURNED:
   3317					;
   3318					;	NONE
   3319					;-
   3320
   3321	003612				TYPDTE:
   3322	003612	013700 	000000G			MOV	.PRDTE,R0	; DTE BASE REGISTER ADDRESS
   3323	003616	012701 	000140'			MOV	#DTEBUF,R1	; DTE REGISTER SAVE BUFFER
   3324	003622	012702 	000020 			MOV	#16.,R2		; REGISTER COUNT
   3326	003626					.INH6			; INHIBIT INTERRUPTS
	003626	013746 	177776 			MOV	@#PS,-(SP)
	003632	112737 	000300 	177776 		MOVB	#300,@#PS
   3328	003640	012021 			10$:	MOV	(R0)+,(R1)+	; SAVE DTE REGISTERS
   3329	003642	077202 				SOB	R2,10$		; DONE?
   3331	003644					.ENB6			; ENABLE INTERRUPTS
	003644	012637 	177776 			MOV	(SP)+,@#PS
   3333	003650	005002 				CLR	R2		; REGISTER COUNT
   3334	003652	016200 	000200'		20$:	MOV	DTEREG(R2),R0	; HEADER ADDRESS
   3335	003656					CALL	.TYMSG		; TYPE HEADER
	003656	004737 	000000G			 JSR	PC,.TYMSG
   3336	003662	016200 	000140'			MOV	DTEBUF(R2),R0	; REGISTER CONTENTS
   3337	003666					CALL	.TYELN		; TYPE VALUE
	003666	004737 	000000G			 JSR	PC,.TYELN
   3338	003672					CALL	@SYMTAB(R2)	; TYPE  CONTENTS SYMBOLLICALLY
	003672	004772 	000240'			 JSR	PC,@SYMTAB(R2)
   3339	003676	005722 				TST	(R2)+		; NEXT REGISTER
   3340	003700	020227 	000036 			CMP	R2,#30.		; DONE?
   3341	003704	003762 				BLE	20$		; NO
   3342	003706					RETURN			; YES
	003706	000207 				 RTS	PC
   3343
   3344	000140				.PSECT	DATA
   3345
   3346	000140				DTEBUF:	.BLKW	16.		; REGISTER BUFFER
   3347
   3348	000200				DTEREG:				; HEADER TEXT POINTERS
   3349	000200	000004'				.WORD	HDDLY
   3350	000202	000015'				.WORD	HDDEX3
   3351	000204	000030'				.WORD	HDDEX2
EXDTE -- EXAMINE DTE-20 REGISTE	MACRO M1113  03-APR-86 22:56  PAGE 81-1
TYPDTE -- TYPE OUT DTE REGISTERS SYMBOLICALLY

   3352	000206	000043'				.WORD	HDDEX1
   3353	000210	000056'				.WORD	HDTAD1
   3354	000212	000071'				.WORD	HDTAD2
   3355	000214	000102'				.WORD	HDT10B
   3356	000216	000115'				.WORD	HDT11B
   3357	000220	000126'				.WORD	HDT10A
   3358	000222	000141'				.WORD	HDT11A
   3359	000224	000152'				.WORD	HDT10D
   3360	000226	000165'				.WORD	HDT11D
   3361	000230	000176'				.WORD	HDDAG1
   3362	000232	000211'				.WORD	HDDAG2
   3363	000234	000224'				.WORD	HDSTAT
   3364	000236	000237'				.WORD	HDDAG3
   3365
   3366	000240				SYMTAB:				; SYMBOLIC TYPE ROUTINES
   3367	000240	000300'				.WORD	NOOP			; DLYCNT
   3368	000242	000300'				.WORD	NOOP			; DEXWD3
   3369	000244	000300'				.WORD	NOOP			; DEXWD2
   3370	000246	003746'				.WORD	TYPDX1			; DEXWD1
   3371	000250	000300'				.WORD	NOOP			; TENAD1
   3372	000252	004016'				.WORD	TYPAD2			; TENAD2
   3373	000254	000300'				.WORD	NOOP			; TO10BC
   3374	000256	000300'				.WORD	NOOP			; TO11BC
   3375	000260	000300'				.WORD	NOOP			; TO10AD
   3376	000262	000300'				.WORD	NOOP			; TO11AD
   3377	000264	000300'				.WORD	NOOP			; TO10DT
   3378	000266	000300'				.WORD	NOOP			; TO11DT
   3379	000270	004240'				.WORD	TYPDG1			; DIAG1
   3380	000272	000300'				.WORD	NOOP			; DIAG2
   3381	000274	003710'				.WORD	STATYP			; STATUS
   3382	000276	004312'				.WORD	TYPDG3			; DIAG3
   3383
   3384	000300				NOOP:	RETURN			; NO SYMBOLIC TYPE OUT
	000300	000207 				 RTS	PC
   3385
   3386	000004				.PSECT	MESSAG
   3387
   3388	000004	   104 	   114 	   131 	HDDLY:	.ASCIZ/DLYCNT: /
	000007	   103 	   116 	   124
	000012	   072 	   040 	   000
   3389	000015	   015 	   012 	   104 	HDDEX3:	.ASCIZ<15><12>/DEXWD3: /
	000020	   105 	   130 	   127
	000023	   104 	   063 	   072
	000026	   040 	   000
   3390	000030	   015 	   012 	   104 	HDDEX2:	.ASCIZ<15><12>/DEXWD2: /
	000033	   105 	   130 	   127
	000036	   104 	   062 	   072
	000041	   040 	   000
   3391	000043	   015 	   012 	   104 	HDDEX1:	.ASCIZ<15><12>/DEXWD1: /
	000046	   105 	   130 	   127
	000051	   104 	   061 	   072
	000054	   040 	   000
   3392	000056	   015 	   012 	   124 	HDTAD1:	.ASCIZ<15><12>/TENAD1: /
	000061	   105 	   116 	   101
	000064	   104 	   061 	   072
	000067	   040 	   000
   3393	000071	   124 	   105 	   116 	HDTAD2:	.ASCIZ/TENAD2: /
EXDTE -- EXAMINE DTE-20 REGISTE	MACRO M1113  03-APR-86 22:56  PAGE 81-2
TYPDTE -- TYPE OUT DTE REGISTERS SYMBOLICALLY

	000074	   101 	   104 	   062
	000077	   072 	   040 	   000
   3394	000102	   015 	   012 	   124 	HDT10B:	.ASCIZ<15><12>/TO10BC: /
	000105	   117 	   061 	   060
	000110	   102 	   103 	   072
	000113	   040 	   000
   3395	000115	   124 	   117 	   061 	HDT11B:	.ASCIZ/TO11BC: /
	000120	   061 	   102 	   103
	000123	   072 	   040 	   000
   3396	000126	   015 	   012 	   124 	HDT10A:	.ASCIZ<15><12>/TO10AD: /
	000131	   117 	   061 	   060
	000134	   101 	   104 	   072
	000137	   040 	   000
   3397	000141	   124 	   117 	   061 	HDT11A:	.ASCIZ/TO11AD: /
	000144	   061 	   101 	   104
	000147	   072 	   040 	   000
   3398	000152	   015 	   012 	   124 	HDT10D:	.ASCIZ<15><12>/TO10DT: /
	000155	   117 	   061 	   060
	000160	   104 	   124 	   072
	000163	   040 	   000
   3399	000165	   124 	   117 	   061 	HDT11D:	.ASCIZ/TO11DT: /
	000170	   061 	   104 	   124
	000173	   072 	   040 	   000
   3400	000176	   015 	   012 	   104 	HDDAG1:	.ASCIZ<15><12>/DIAG1 : /
	000201	   111 	   101 	   107
	000204	   061 	   040 	   072
	000207	   040 	   000
   3401	000211	   015 	   012 	   104 	HDDAG2:	.ASCIZ<15><12>/DIAG2 : /
	000214	   111 	   101 	   107
	000217	   062 	   040 	   072
	000222	   040 	   000
   3402	000224	   015 	   012 	   123 	HDSTAT:	.ASCIZ<15><12>/STATUS: /
	000227	   124 	   101 	   124
	000232	   125 	   123 	   072
	000235	   040 	   000
   3403	000237	   015 	   012 	   104 	HDDAG3:	.ASCIZ<15><12>/DIAG3 : /
	000242	   111 	   101 	   107
	000245	   063 	   040 	   072
	000250	   040 	   000
   3404
   3405	003710				.PSECT
EXDTE -- EXAMINE DTE-20 REGISTE	MACRO M1113  03-APR-86 22:56  PAGE 82
STATYP -- SYMBOLIC STATUS REGISTER TYPE OUT

   3407					.SBTTL	STATYP -- SYMBOLIC STATUS REGISTER TYPE OUT
   3408
   3409					;	THIS ROUTINE WAS ADDED FOR TCO 5.1001
   3410
   3411	003710				STATYP:
   3412	003710	016203 	000140'			MOV	DTEBUF(R2),R3	; DTE REGISTER CONTENTS
   3413	003714	012701 	000302'			MOV	#STATAB,R1	; FIRST MESSAGE PTR
   3414	003720	005703 			10$:	TST	R3		; REGISTER=0
   3415	003722	001410 				BEQ	30$		; YES-DONE
   3416	003724	006303 				ASL	R3		; SHIFT HIGH BIT TO CARRY
   3417	003726	103003 				BCC	20$		; BIT CLEAR?
   3418	003730	011100 				MOV	@R1,R0		; POINT TO MESSAGE
   3419	003732					CALL	.TYMSG		; NO-TYPE MESSAGE
	003732	004737 	000000G			 JSR	PC,.TYMSG
   3420	003736	062701 	000002 		20$:	ADD	#2,R1		; ADDRESS NEXT MESSAGE
   3421	003742	000766 				BR	10$		; CHECK NEXT BIT
   3422	003744				30$:	RETURN			; EXIT
	003744	000207 				 RTS	PC
   3423
   3424	000302				.PSECT	DATA
   3425
   3426	000302				STATAB:				; STATUS MESSAGE TABLE
   3427	000302	000252'				.WORD	STA15
   3428	000304	000306'				.WORD	STA14
   3429	000306	000327'				.WORD	STA13
   3430	000310	000362'				.WORD	STA12
   3431	000312	000402'				.WORD	STA11
   3432	000314	000432'				.WORD	STA10
   3433	000316	000450'				.WORD	STA9
   3434	000320	000502'				.WORD	STA8
   3435	000322	000532'				.WORD	STA7
   3436	000324	000561'				.WORD	STA6
   3437	000326	000604'				.WORD	STA5
   3438	000330	000643'				.WORD	STA4
   3439	000332	000671'				.WORD	STA3
   3440	000334	000714'				.WORD	STA2
   3441	000336	000744'				.WORD	STA1
   3442	000340	001004'				.WORD	STA0
   3443
   3444	000252				.PSECT	MESSAG
   3445
   3446	000252	   015 	   012 	   040 	STA15:	.ASCIZ<15><12>/ TO 10 NORMAL TERMINATION/
	000255	   124 	   117 	   040
	000260	   061 	   060 	   040
	000263	   116 	   117 	   122
	000266	   115 	   101 	   114
	000271	   040 	   124 	   105
	000274	   122 	   115 	   111
	000277	   116 	   101 	   124
	000302	   111 	   117 	   116
	000305	   000
   3447	000306	   015 	   012 	   040 	STA14:	.ASCIZ<15><12>/ BIT 14 UNUSED/
	000311	   102 	   111 	   124
	000314	   040 	   061 	   064
	000317	   040 	   125 	   116
	000322	   125 	   123 	   105
	000325	   104 	   000
EXDTE -- EXAMINE DTE-20 REGISTE	MACRO M1113  03-APR-86 22:56  PAGE 82-1
STATYP -- SYMBOLIC STATUS REGISTER TYPE OUT

   3448	000327	   015 	   012 	   040 	STA13:	.ASCIZ<15><12>/ TO 10 ERROR TERMINATION/
	000332	   124 	   117 	   040
	000335	   061 	   060 	   040
	000340	   105 	   122 	   122
	000343	   117 	   122 	   040
	000346	   124 	   105 	   122
	000351	   115 	   111 	   116
	000354	   101 	   124 	   111
	000357	   117 	   116 	   000
   3449	000362	   015 	   012 	   040 	STA12:	.ASCIZ<15><12>/ RAM IS ZEROS/
	000365	   122 	   101 	   115
	000370	   040 	   111 	   123
	000373	   040 	   132 	   105
	000376	   122 	   117 	   123
	000401	   000
   3450	000402	   015 	   012 	   040 	STA11:	.ASCIZ<15><12>/ 10 REQUESTED 11 INTR/
	000405	   061 	   060 	   040
	000410	   122 	   105 	   121
	000413	   125 	   105 	   123
	000416	   124 	   105 	   104
	000421	   040 	   061 	   061
	000424	   040 	   111 	   116
	000427	   124 	   122 	   000
   3451	000432	   015 	   012 	   040 	STA10:	.ASCIZ<15><12>/ DEX WORD 1/
	000435	   104 	   105 	   130
	000440	   040 	   127 	   117
	000443	   122 	   104 	   040
	000446	   061 	   000
   3452	000450	   015 	   012 	   040 	STA9:	.ASCIZ<15><12>/ 11 MEMORY PARITY ERROR/
	000453	   061 	   061 	   040
	000456	   115 	   105 	   115
	000461	   117 	   122 	   131
	000464	   040 	   120 	   101
	000467	   122 	   111 	   124
	000472	   131 	   040 	   105
	000475	   122 	   122 	   117
	000500	   122 	   000
   3453	000502	   015 	   012 	   040 	STA8:	.ASCIZ<15><12>/ 11 REQUESTED 10 INTR/
	000505	   061 	   061 	   040
	000510	   122 	   105 	   121
	000513	   125 	   105 	   123
	000516	   124 	   105 	   104
	000521	   040 	   061 	   060
	000524	   040 	   111 	   116
	000527	   124 	   122 	   000
   3454	000532	   015 	   012 	   040 	STA7:	.ASCIZ<15><12>/ TO 11 TRANSFER DONE/
	000535	   124 	   117 	   040
	000540	   061 	   061 	   040
	000543	   124 	   122 	   101
	000546	   116 	   123 	   106
	000551	   105 	   122 	   040
	000554	   104 	   117 	   116
	000557	   105 	   000
   3455	000561	   015 	   012 	   040 	STA6:	.ASCIZ<15><12>/ E BUFFER SELECT/
	000564	   105 	   040 	   102
	000567	   125 	   106 	   106
	000572	   105 	   122 	   040
EXDTE -- EXAMINE DTE-20 REGISTE	MACRO M1113  03-APR-86 22:56  PAGE 82-2
STATYP -- SYMBOLIC STATUS REGISTER TYPE OUT

	000575	   123 	   105 	   114
	000600	   105 	   103 	   124
	000603	   000
   3456	000604	   015 	   012 	   040 	STA5:	.ASCIZ<15><12>/ TO 11 TRANSFER STOP BY NULL/
	000607	   124 	   117 	   040
	000612	   061 	   061 	   040
	000615	   124 	   122 	   101
	000620	   116 	   123 	   106
	000623	   105 	   122 	   040
	000626	   123 	   124 	   117
	000631	   120 	   040 	   102
	000634	   131 	   040 	   116
	000637	   125 	   114 	   114
	000642	   000
   3457	000643	   015 	   012 	   040 	STA4:	.ASCIZ<15><12>/ E BUS PARITY ERROR/
	000646	   105 	   040 	   102
	000651	   125 	   123 	   040
	000654	   120 	   101 	   122
	000657	   111 	   124 	   131
	000662	   040 	   105 	   122
	000665	   122 	   117 	   122
	000670	   000
   3458	000671	   015 	   012 	   040 	STA3:	.ASCIZ<15><12>/ RESTRICTED MODE/
	000674	   122 	   105 	   123
	000677	   124 	   122 	   111
	000702	   103 	   124 	   105
	000705	   104 	   040 	   115
	000710	   117 	   104 	   105
	000713	   000
   3459	000714	   015 	   012 	   040 	STA2:	.ASCIZ<15><12>/ DEPOSIT-EXAMINE DONE/
	000717	   104 	   105 	   120
	000722	   117 	   123 	   111
	000725	   124 	   055 	   105
	000730	   130 	   101 	   115
	000733	   111 	   116 	   105
	000736	   040 	   104 	   117
	000741	   116 	   105 	   000
   3460	000744	   015 	   012 	   040 	STA1:	.ASCIZ<15><12>/ TO 11 BYTE ERROR TERMINATION/
	000747	   124 	   117 	   040
	000752	   061 	   061 	   040
	000755	   102 	   131 	   124
	000760	   105 	   040 	   105
	000763	   122 	   122 	   117
	000766	   122 	   040 	   124
	000771	   105 	   122 	   115
	000774	   111 	   116 	   101
	000777	   124 	   111 	   117
	001002	   116 	   000
   3461	001004	   015 	   012 	   040 	STA0:	.ASCIZ<15><12>/ INTERRUPTS ON/
	001007	   111 	   116 	   124
	001012	   105 	   122 	   122
	001015	   125 	   120 	   124
	001020	   123 	   040 	   117
	001023	   116 	   000
   3462
   3463	003746				.PSECT
EXDTE -- EXAMINE DTE-20 REGISTE	MACRO M1113  03-APR-86 22:56  PAGE 83
TYPDX1 -- SYMBOLIC DEXWD1-DEXWD3 TYPE OUT

   3465					.SBTTL	TYPDX1 -- SYMBOLIC DEXWD1-DEXWD3 TYPE OUT
   3466
   3467					;	THIS ROUTINE WAS ADDED FOR TCO 5.1001
   3468
   3469	003746				TYPDX1:
   3470	003746	012700 	001025'			MOV	#DX1MS1,R0	; DATA MESSAGE
   3471	003752					CALL	.TYMSG		; TYPE IT
	003752	004737 	000000G			 JSR	PC,.TYMSG
   3472	003756	012700 	000134'			MOV	#DTEBUF-4,R0	; ADDR OF REGISTERS
   3473	003762	060200 				ADD	R2,R0		; POINT TO DEX WORD 1
   3474	003764					CALL	.TYKLN		; TYPE IT
	003764	004737 	000000G			 JSR	PC,.TYKLN
   3475	003770	016203 	000140'			MOV	DTEBUF(R2),R3	; DEXWD1 VALUE
   3476	003774	042703 	000017 			BIC	#17,R3		; DEXWD1 BITS 4-15
   3477	004000	005703 				TST	R3		; BITS 4-15 MBZ
   3478	004002	001404 				BEQ	10$		; ARE THEY ZERO
   3479	004004	012700 	001045'			MOV	#DX1MS2,R0	; NO- MESSAGE
   3480	004010					CALL	.TYMSG		; TYPE IT
	004010	004737 	000000G			 JSR	PC,.TYMSG
   3481	004014				10$:	RETURN			; EXIT
	004014	000207 				 RTS	PC
   3482
   3483	001025				.PSECT	MESSAG
   3484
   3485	001025	   015 	   012 	   040 	DX1MS1:	.ASCIZ<15><12>/   KL10 DATA=/
	001030	   040 	   040 	   113
	001033	   114 	   061 	   060
	001036	   040 	   104 	   101
	001041	   124 	   101 	   075
	001044	   000
   3486	001045	   015 	   012 	   040 	DX1MS2:	.ASCIZ<15><12>/   DEXWD1 BITS 4-15 NON-ZERO/
	001050	   040 	   040 	   104
	001053	   105 	   130 	   127
	001056	   104 	   061 	   040
	001061	   102 	   111 	   124
	001064	   123 	   040 	   064
	001067	   055 	   061 	   065
	001072	   040 	   116 	   117
	001075	   116 	   055 	   132
	001100	   105 	   122 	   117
	001103	   000
   3487
   3488	004016				.PSECT
EXDTE -- EXAMINE DTE-20 REGISTE	MACRO M1113  03-APR-86 22:56  PAGE 84
TYPAD2 -- SYMBOLIC TENAD1-TENAD2 TYPE OUT

   3490					.SBTTL	TYPAD2 -- SYMBOLIC TENAD1-TENAD2 TYPE OUT
   3491
   3492					;	THIS ROUTINE WAS ADDED FOR TCO 5.1001
   3493
   3494	004016				TYPAD2:
   3495	004016	012700 	001104'			MOV	#TA2MS1,R0	; ADDRESS SPACE MESSAGE
   3496	004022					CALL	.TYMSG		; TYPE IT
	004022	004737 	000000G			 JSR	PC,.TYMSG
   3497	004026	016203 	000136'			MOV	DTEBUF-2(R2),R3	; REGISTER CONTENTS
   3498	004032	000303 				SWAB	R3		; GET SPACE BITS
   3499		000004 				.REPT	4
   3500						ASR	R3
   3501						.ENDR
	004034	006203 				ASR	R3
	004036	006203 				ASR	R3
	004040	006203 				ASR	R3
	004042	006203 				ASR	R3
   3502	004044	042703 	177761 			BIC	#177761,R3	; SPACE BITS
   3503	004050	020327 	000012 			CMP	R3,#12		; RESERVED?
   3504	004054	003402 				BLE	10$		; NO
   3505	004056	012703 	000012 			MOV	#12,R3		; YES
   3506	004062	016300 	000342'		10$:	MOV	SPCTAB(R3),R0	; MESSAGE ADDR
   3507	004066					CALL	.TYMSG		; TYPE SPACE
	004066	004737 	000000G			 JSR	PC,.TYMSG
   3508	004072	012700 	001126'			MOV	#TA2MS2,R0	; OPERATION MESSAGE
   3509	004076					CALL	.TYMSG		; TYPE IT
	004076	004737 	000000G			 JSR	PC,.TYMSG
   3510	004102	016203 	000136'			MOV	DTEBUF-2(R2),R3	; REGISTER CONTENTS
   3511	004106	012700 	001343'			MOV	#DEPOS,R0	; DEPOSIT MESSAGE
   3512	004112	032703 	010000 			BIT	#10000,R3	; IS TI A DEPOSIT?
   3513	004116	001002 				BNE	40$		; YES
   3514	004120	012700 	001353'			MOV	#EXAM,R0	; NO-EXAMINE
   3515	004124				40$:	CALL	.TYMSG		; TYPE IT
	004124	004737 	000000G			 JSR	PC,.TYMSG
   3516	004130	012700 	001144'			MOV	#TA2MS3,R0	; PRO/REL MESSAGE
   3517	004134					CALL	.TYMSG		; TYPE IT
	004134	004737 	000000G			 JSR	PC,.TYMSG
   3518	004140	012700 	001363'			MOV	#PRON,R0	; PRO ON MESSAGE
   3519	004144	032703 	004000 			BIT	#4000,R3	; IS IT ON?
   3520	004150	001402 				BEQ	50$		; YES
   3521	004152	012700 	001367'			MOV	#PROFF,R0	; NO-OFF
   3522	004156				50$:	CALL	.TYMSG		; TYPE IT
	004156	004737 	000000G			 JSR	PC,.TYMSG
   3523	004162	032703 	003600 			BIT	#3600,R3	; CHECK MBZ BITS, ARE THEY?
   3524	004166	001404 				BEQ	60$		; YES
   3525	004170	012700 	001201'			MOV	#TA2MS4,R0	; NO-ERROR MESSAGE
   3526	004174					CALL	.TYMSG		; TYPE IT
	004174	004737 	000000G			 JSR	PC,.TYMSG
   3527	004200	012700 	001236'		60$:	MOV	#TA2MS5,R0	; ADDRESS MESSAGE
   3528	004204					CALL	.TYMSG		; TYPE IT
	004204	004737 	000000G			 JSR	PC,.TYMSG
   3529	004210	005046 				CLR	-(SP)		; ADDR BUFFER
   3530	004212	042703 	177600 			BIC	#177600,R3	; CLEAR EXTRA BITS
   3531	004216	010346 				MOV	R3,-(SP)	; ADDR BUFFER
   3532	004220	016246 	000140'			MOV	DTEBUF(R2),-(SP); ADDR BUFFER
   3533	004224	010600 				MOV	SP,R0		; BUFFER ADDRESS
   3534	004226					CALL	.TYKLA		; TYPE KL ADDR
EXDTE -- EXAMINE DTE-20 REGISTE	MACRO M1113  03-APR-86 22:56  PAGE 84-1
TYPAD2 -- SYMBOLIC TENAD1-TENAD2 TYPE OUT

	004226	004737 	000000G			 JSR	PC,.TYKLA
   3535	004232	062706 	000006 			ADD	#6,SP		; POP OFF ADDR BUFFER
   3536	004236				80$:	RETURN			; EXIT
	004236	000207 				 RTS	PC
   3537
   3538	000342				.PSECT	DATA
   3539
   3540	000342				SPCTAB:
   3541	000342	001257'				.WORD	SPC1
   3542	000344	001263'				.WORD	SPC2
   3543	000346	001300'				.WORD	SPC3
   3544	000350	001304'				.WORD	SPC4
   3545	000352	001321'				.WORD	SPC5
   3546	000354	001332'				.WORD	SPC6
   3547
   3548	001104				.PSECT	MESSAG
   3549
   3550	001104	   015 	   012 	   040 	TA2MS1:	.ASCIZ<15><12>/ ADDRESS SPACE=/
	001107	   101 	   104 	   104
	001112	   122 	   105 	   123
	001115	   123 	   040 	   123
	001120	   120 	   101 	   103
	001123	   105 	   075 	   000
   3551	001126	   015 	   012 	   040 	TA2MS2:	.ASCIZ<15><12>/ OPERATION=/
	001131	   117 	   120 	   105
	001134	   122 	   101 	   124
	001137	   111 	   117 	   116
	001142	   075 	   000
   3552	001144	   015 	   012 	   040 	TA2MS3:	.ASCIZ<15><12>/ PROTECTION-RELOCATION IS /
	001147	   120 	   122 	   117
	001152	   124 	   105 	   103
	001155	   124 	   111 	   117
	001160	   116 	   055 	   122
	001163	   105 	   114 	   117
	001166	   103 	   101 	   124
	001171	   111 	   117 	   116
	001174	   040 	   111 	   123
	001177	   040 	   000
   3553	001201	   015 	   012 	   040 	TA2MS4:	.ASCIZ<15><12>/ TENAD1 BITS 7-10 NON-ZERO/
	001204	   124 	   105 	   116
	001207	   101 	   104 	   061
	001212	   040 	   102 	   111
	001215	   124 	   123 	   040
	001220	   067 	   055 	   061
	001223	   060 	   040 	   116
	001226	   117 	   116 	   055
	001231	   132 	   105 	   122
	001234	   117 	   000
   3554	001236	   015 	   012 	   040 	TA2MS5:	.ASCIZ<15><12>/ KL10 ADDRESS=/
	001241	   113 	   114 	   061
	001244	   060 	   040 	   101
	001247	   104 	   104 	   122
	001252	   105 	   123 	   123
	001255	   075 	   000
   3555	001257	   105 	   120 	   124 	SPC1:	.ASCIZ/EPT/
	001262	   000
   3556	001263	   105 	   130 	   105 	SPC2:	.ASCIZ/EXEC VIRTUAL/
EXDTE -- EXAMINE DTE-20 REGISTE	MACRO M1113  03-APR-86 22:56  PAGE 84-2
TYPAD2 -- SYMBOLIC TENAD1-TENAD2 TYPE OUT

	001266	   103 	   040 	   126
	001271	   111 	   122 	   124
	001274	   125 	   101 	   114
	001277	   000
   3557	001300	   125 	   120 	   124 	SPC3:	.ASCIZ/UPT/
	001303	   000
   3558	001304	   125 	   123 	   105 	SPC4:	.ASCIZ/USER VIRTUAL/
	001307	   122 	   040 	   126
	001312	   111 	   122 	   124
	001315	   125 	   101 	   114
	001320	   000
   3559	001321	   120 	   110 	   131 	SPC5:	.ASCIZ/PHYSICAL/
	001324	   123 	   111 	   103
	001327	   101 	   114 	   000
   3560	001332	   122 	   105 	   123 	SPC6:	.ASCIZ/RESERVED/
	001335	   105 	   122 	   126
	001340	   105 	   104 	   000
   3561	001343	   104 	   105 	   120 	DEPOS:	.ASCIZ/DEPOSIT/
	001346	   117 	   123 	   111
	001351	   124 	   000
   3562	001353	   105 	   130 	   101 	EXAM:	.ASCIZ/EXAMINE/
	001356	   115 	   111 	   116
	001361	   105 	   000
   3563	001363	   117 	   116 	   040 	PRON:	.ASCIZ/ON /
	001366	   000
   3564	001367	   117 	   106 	   106 	PROFF:	.ASCIZ/OFF/
	001372	   000
   3565
   3566	004240				.PSECT
EXDTE -- EXAMINE DTE-20 REGISTE	MACRO M1113  03-APR-86 22:56  PAGE 85
TYPDG1 -- SYMBOLIC DIAG1 TYPE OUT

   3568					.SBTTL	TYPDG1 -- SYMBOLIC DIAG1 TYPE OUT
   3569
   3570					;	THIS ROUTINE WAS ADDED FOR TCO 5.1001
   3571
   3572	004240				TYPDG1:
   3573	004240	016203 	000140'			MOV	DTEBUF(R2),R3	; DIAG1
   3574	004244	042703 	170037 			BIC	#170037,R3	; GET STATUS BITS
   3575		000004 				.REPT	4		; LEFT JUSTIFY
   3576						ASL	R3
   3577						.ENDR
	004250	006303 				ASL	R3
	004252	006303 				ASL	R3
	004254	006303 				ASL	R3
	004256	006303 				ASL	R3
   3578	004260	012701 	000356'			MOV	#DIATAB,R1	; FIRST MESSAGE PTR
   3579	004264	005703 			10$:	TST	R3		; DONE?
   3580	004266	001410 				BEQ	30$		; YES-EXIT
   3581	004270	006303 				ASL	R3		; BIT SET?
   3582	004272	103003 				BCC	20$		; NO
   3583	004274	011100 				MOV	@R1,R0		; MESSAGE ADDR
   3584	004276					CALL	.TYMSG		; YES-TYPE MESSAGE
	004276	004737 	000000G			 JSR	PC,.TYMSG
   3585	004302	062701 	000002 		20$:	ADD	#2,R1		; NEXT MESSAGE
   3586	004306	000766 				BR	10$		; NEXT
   3587	004310				30$:	RETURN			; EXIT
	004310	000207 				 RTS	PC
   3588
   3589	000356				.PSECT	DATA
   3590
   3591	000356				DIATAB:
   3592	000356	001373'				.WORD	DG1B11
   3593	000360	001424'				.WORD	DG1B10
   3594	000362	001450'				.WORD	DG1B9
   3595	000364	001475'				.WORD	DG1B8
   3596	000366	001541'				.WORD	DG1B7
   3597	000370	001604'				.WORD	DG1B6
   3598	000372	001647'				.WORD	DG1B5
   3599
   3600	001373				.PSECT	MESSAG
   3601
   3602	001373	   015 	   012 	   040 	DG1B11:	.ASCIZ<15><12>/   KL CLOCK ERROR STOP/
	001376	   040 	   040 	   113
	001401	   114 	   040 	   103
	001404	   114 	   117 	   103
	001407	   113 	   040 	   105
	001412	   122 	   122 	   117
	001415	   122 	   040 	   123
	001420	   124 	   117 	   120
	001423	   000
   3603	001424	   015 	   012 	   040 	DG1B10:	.ASCIZ<15><12>/   KL IN RUN MODE/
	001427	   040 	   040 	   113
	001432	   114 	   040 	   111
	001435	   116 	   040 	   122
	001440	   125 	   116 	   040
	001443	   115 	   117 	   104
	001446	   105 	   000
   3604	001450	   015 	   012 	   040 	DG1B9:	.ASCIZ<15><12>/   KL IN HALT LOOP/
EXDTE -- EXAMINE DTE-20 REGISTE	MACRO M1113  03-APR-86 22:56  PAGE 85-1
TYPDG1 -- SYMBOLIC DIAG1 TYPE OUT

	001453	   040 	   040 	   113
	001456	   114 	   040 	   111
	001461	   116 	   040 	   110
	001464	   101 	   114 	   124
	001467	   040 	   114 	   117
	001472	   117 	   120 	   000
   3605	001475	   015 	   012 	   040 	DG1B8:	.ASCIZ<15><12>/   MAJOR STATE IS DEPOSIT-EXAMINE/
	001500	   040 	   040 	   115
	001503	   101 	   112 	   117
	001506	   122 	   040 	   123
	001511	   124 	   101 	   124
	001514	   105 	   040 	   111
	001517	   123 	   040 	   104
	001522	   105 	   120 	   117
	001525	   123 	   111 	   124
	001530	   055 	   105 	   130
	001533	   101 	   115 	   111
	001536	   116 	   105 	   000
   3606	001541	   015 	   012 	   040 	DG1B7:	.ASCIZ<15><12>/   MAJOR STATE IS TO-10 TRANSFER/
	001544	   040 	   040 	   115
	001547	   101 	   112 	   117
	001552	   122 	   040 	   123
	001555	   124 	   101 	   124
	001560	   105 	   040 	   111
	001563	   123 	   040 	   124
	001566	   117 	   055 	   061
	001571	   060 	   040 	   124
	001574	   122 	   101 	   116
	001577	   123 	   106 	   105
	001602	   122 	   000
   3607	001604	   015 	   012 	   040 	DG1B6:	.ASCIZ<15><12>/   MAJOR STATE IS TO-11 TRANSFER/
	001607	   040 	   040 	   115
	001612	   101 	   112 	   117
	001615	   122 	   040 	   123
	001620	   124 	   101 	   124
	001623	   105 	   040 	   111
	001626	   123 	   040 	   124
	001631	   117 	   055 	   061
	001634	   061 	   040 	   124
	001637	   122 	   101 	   116
	001642	   123 	   106 	   105
	001645	   122 	   000
   3608	001647	   015 	   012 	   040 	DG1B5:	.ASCIZ<15><12>/   DTE IN 10-11 DIAGNOSTIC MODE/
	001652	   040 	   040 	   104
	001655	   124 	   105 	   040
	001660	   111 	   116 	   040
	001663	   061 	   060 	   055
	001666	   061 	   061 	   040
	001671	   104 	   111 	   101
	001674	   107 	   116 	   117
	001677	   123 	   124 	   111
	001702	   103 	   040 	   115
	001705	   117 	   104 	   105
	001710	   000
   3609
   3610	004312				.PSECT
EXDTE -- EXAMINE DTE-20 REGISTE	MACRO M1113  03-APR-86 22:56  PAGE 86
TYPDG3 -- SYMBOLIC DIAG3 TYPE OUT

   3612					.SBTTL	TYPDG3 -- SYMBOLIC DIAG3 TYPE OUT
   3613
   3614					;	THIS ROUTINE WAS ADDED FOR TCO 5.1001
   3615
   3616	004312				TYPDG3:
   3617	004312	016203 	000140'			MOV	DTEBUF(R2),R3	; DIAG3
   3618	004316	032703 	000002 			BIT	#2,R3		; NPR ERROR?
   3619	004322	001404 				BEQ	10$		; NO-EXIT
   3620	004324	012700 	001711'			MOV	#DG3B1,R0	; YES-MESSAGE
   3621	004330					CALL	.TYMSG		; TYPE IT
	004330	004737 	000000G			 JSR	PC,.TYMSG
   3622	004334				10$:	CALLR	.TCRLF		; EXIT
	004334	000137 	000000G			 JMP	.TCRLF
   3623
   3624	001711				.PSECT	MESSAG
   3625
   3626	001711	   015 	   012 	   040 	DG3B1:	.ASCIZ<15><12>/   NPR UNIBUS PARITY ERROR/
	001714	   040 	   040 	   116
	001717	   120 	   122 	   040
	001722	   125 	   116 	   111
	001725	   102 	   125 	   123
	001730	   040 	   120 	   101
	001733	   122 	   111 	   124
	001736	   131 	   040 	   105
	001741	   122 	   122 	   117
	001744	   122 	   000
   3627
   3628	004340				.PSECT
EXREG -- EXAMINE 22 AND 36 BIT 	MACRO M1113  03-APR-86 22:56  PAGE 88
TYPDG3 -- SYMBOLIC DIAG3 TYPE OUT

   3631					.TITLE	EXREG -- EXAMINE 22 AND 36 BIT REGISTER COMMAND MODULE 7603.30
   3632
   3633						.IDENT	"007010"
   3634					;
   3635					;                             COPYRIGHT (C) 1979, 1984, 1985 BY
   3636					;                     DIGITAL EQUIPMENT CORPORATION, MAYNARD MASS.
   3637					;			ALL RIGHTS RESERVED.
   3638					;       THIS SOFTWARE IS FURNISHED UNDER A LICENSE AND MAY BE  USED  AND  COPIED
   3639					;       ONLY IN ACCORDANCE WITH THE TERMS OF SUCH LICENSE AND WITH THE INCLUSION
   3640					;       OF THE ABOVE COPYRIGHT NOTICE.  THIS SOFTWARE OR ANY OTHER COPIES THERE-
   3641					;       OF  MAY NOT BE PROVIDED OR OTHERWISE MADE AVAILABLE TO ANY OTHER PERSON.
   3642					;       NO TITLE TO OR OWNERSHIP OF THE SOFTWARE IS HEREBY TRANSFERRED.
   3643					;
   3644					;       THE INFORMATION CONTAINED IN THIS SOFTWARE IS SUBJECT TO CHANGE  WITHOUT
   3645					;       NOTICE  AND SHOULD NOT BE CONSTRUED AS A COMMITMENT BY DIGITAL EQUIPMENT
   3646					;       CORPORATION.
   3647					;
   3648					;       DIGITAL ASSUMES NO RESPONSIBILITY FOR THE  USE  OR  RELIABILITY  OF  ITS
   3649					;       SOFTWARE ON EQUIPMENT WHICH IS NOT SUPPILED BY DIGITAL.
   3650					;
   3651					;		MODULE: EXAMINE 22 AND 36 BIT REGISTER COMMAND
   3652					;
   3653					;		VERSION: 06-01
   3654					;
   3655					;		AUTHOR: R. BELANGER
   3656					;
   3657					;		DATE: 7603.30
   3658					;
   3659					;	THIS MODULE CONTAINS:
   3660					;
   3661					;	1) EXAMINE 22 AND 36 BIT REGISTER COMMAND CODE
   3662					;
   3663					;09-NOV-82  TCO 6.1364	D. WEAVER
   3664					;	FIX DISPLAY FOR EXAMINE PI CODE, CHANGE BIS TO MOVB.
   3665					;	ROUTINE: .EXMPI
   3666					;
EXREG -- EXAMINE 22 AND 36 BIT 	MACRO M1113  03-APR-86 22:56  PAGE 89
.EXAD  -- KL DATA PATH BOARD EXAMINES 7602.16

   3668					.SBTTL	.EXAD  -- KL DATA PATH BOARD EXAMINES 7602.16
   3669
   3670						.ENABL	LSB
   3671
   3672	004340				.EXAD::				; ADDER REGISTER
   3673	004340	012700 	005254'			MOV	#.RDADR,R0	; DISPATCH POINTER TO R0
   3674	004344	000445 				BR	20$		; DO COMMON CODE
   3675						;
   3676	004346				.EXADX::			; ADDRER EXTENSION
   3677	004346	012700 	005262'			MOV	#.RDADX,R0	; DISPATCH POINTER TO R0
   3678	004352	000442 				BR	20$		; DO COMMON CODE
   3679						;
   3680	004354				.EXARR::			; ARITHMETIC REGISTER
   3681	004354	012700 	005270'			MOV	#.RDARR,R0	; DISPATCH POINTER TO R0
   3682	004360	000437 				BR	20$		; DO COMMON CODE
   3683						;
   3684	004362				.EXARX::			; AR EXTENSION
   3685	004362	012700 	005276'			MOV	#.RDARX,R0	; DISPATCH POINTER TO R0
   3686	004366	000434 				BR	20$		; DO COMMON CODE
   3687						;
   3688	004370				.EXBRR::			; BUFFER REGISTER
   3689	004370	012700 	005304'			MOV	#.RDBRR,R0	; DISPATCH POINTER TO R0
   3690	004374	000431 				BR	20$		; DO COMMON CODE
   3691						;
   3692	004376				.EXBRX::			; BR EXTENSION
   3693	004376	012700 	005312'			MOV	#.RDBRX,R0	; DISPATCH POINTER TO R0
   3694	004402	000426 				BR	20$		; DO COMMON CODE
   3695						;
   3696	004404				.EXEBS::			; EBUS REGISTER
   3697	004404	012700 	005320'			MOV	#.RDEBS,R0	; DISPATCH POINTER TO R0
   3698	004410	000423 				BR	20$		; DO COMMON CODE
   3699						;
   3700	004412				.EXFMR::			; FAST MEMORY REGISTER
   3701	004412	012700 	005326'			MOV	#.RDFMR,R0	; DISPATCH POINTER TO R0
   3702	004416	000420 				BR	20$		; DO COMMON CODE
   3703						;
   3704	004420				.EXMQR::			; MQ REGSITER
   3705	004420	012700 	005334'			MOV	#.RDMQR,R0	; DISPATCH POINTER TO R0
   3706	004424	000415 				BR	20$		; DO COMMON CODE
   3707						;
EXREG -- EXAMINE 22 AND 36 BIT 	MACRO M1113  03-APR-86 22:56  PAGE 90
.EXVAB -- KL PC BOARD AND SMALL REGISTER EXAMINES 7602.16

   3709					.SBTTL	.EXVAB -- KL PC BOARD AND SMALL REGISTER EXAMINES 7602.16
   3710
   3711	004426				.EXVAB::			; ADDRESS BREAK REGISTER
   3712	004426	012700 	005704'			MOV	#.RDVAB,R0	; DISPATCH POINTER TO R0
   3713	004432	000410 				BR	10$		; DO COMMON CODE
   3714						;
   3715	004434				.EXVMA::			; VMA REGISTER
   3716	004434	012700 	005712'			MOV	#.RDVMA,R0	; DISPATCH POINTER TO R0
   3717	004440	000405 				BR	10$		; DO COMMON CODE
   3718						;
   3719	004442				.EXVMH::			; VMA HELD REGISTER
   3720	004442	012700 	005720'			MOV	#.RDVMH,R0	; DISPATCH POINTER TO R0
   3721	004446	000402 				BR	10$		; DO COMMON CODE
   3722						;
   3723	004450				.EXVPC::			; PROGRAM COUNTER
   3724	004450	012700 	005676'			MOV	#.RDVPC,R0	; DISPATCH POINTER TO R0
   3725					;	BR	10$		; DO COMMON CODE
   3726						;
EXREG -- EXAMINE 22 AND 36 BIT 	MACRO M1113  03-APR-86 22:56  PAGE 91
.EXVAB -- KL PC BOARD AND SMALL REGISTER EXAMINES 7602.16

   3728					;	[CONTINUED FROM THE PREVIOUS PAGE]
   3729
   3730	004454				10$:				; HERE FOR VMA BOARD EXAMINES
   3731	004454	005037 	000000G			CLR	.LDZFL		; DON'T PRINT LEADING ZEROES
   3732	004460				20$:				; HERE FOR DATA PATH BOARD EXAMINES
   3733	004460					CALL	.CKEOC		; CHECK E-O-C
	004460	004737 	000000G			 JSR	PC,.CKEOC
   3734	004464	005046 				CLR	-(SP)		; CLEAR A BUFFER ON THE STACK
   3735	004466	005046 				CLR	-(SP)		; .
   3736	004470	005046 				CLR	-(SP)		; ..
   3737	004472	010601 				MOV	SP,R1		; ...POINT TO THE BUFFER
   3738	004474					PUSH	R0		; ...SAVE THE DISPATCH ADDRESS
	004474	010046 				 MOV	R0,-(SP)
   3739	004476					CALL	.STPKL		; ....STOP THE KL
	004476	004737 	000000G			 JSR	PC,.STPKL
   3740	004502					CALL	@(SP)+		; ....READ THE REGISTER
	004502	004736 				 JSR	PC,@(SP)+
   3741	004504					CALL	.RSTKL		; ...YES -- RESTART THE KL
	004504	004737 	000000G			 JSR	PC,.RSTKL
   3742	004510	010200 				MOV	R2,R0		; ...MESSAGE POINTER TO R0
   3743	004512					CALL	.TYMSG		; ...PRINT IT
	004512	004737 	000000G			 JSR	PC,.TYMSG
   3744	004516					CALL	.TYSLS		; ...NOW A SLASH
	004516	004737 	000000G			 JSR	PC,.TYSLS
   3745	004522					CALL	.TYSPC		; ...AND A SPACE
	004522	004737 	000000G			 JSR	PC,.TYSPC
   3746	004526	010100 				MOV	R1,R0		; ...POINT TO THE DATA
   3747	004530					CALL	.TYKLN		; ...PRINT THAT
	004530	004737 	000000G			 JSR	PC,.TYKLN
   3748	004534	062706 	000006 			ADD	#^D6,SP		; ...CLEAR THE STACK
   3749	004540					CALLR	.TCRLF		; ...END THE LINE AND EXIT
	004540	000137 	000000G			 JMP	.TCRLF
   3750						;
   3751
   3752						.DSABL	LSB
EXREG -- EXAMINE 22 AND 36 BIT 	MACRO M1113  03-APR-86 22:56  PAGE 92
.EXAMF -- THE "EXAMINE FLAGS" COMMAND 7602.23

   3754					.SBTTL	.EXAMF -- THE "EXAMINE FLAGS" COMMAND 7602.23
   3755
   3756					;+
   3757					; .EXAMF -- THE "EXAMINE FLAGS" COMMAND.
   3758					;
   3759					; THIS ROUTINE WILL READ AND DISPLAY THE KL PC FLAGS ON THE
   3760					; CONSOLE DEVICE.
   3761					;
   3762					; INPUT ARGUMENTS:
   3763					;
   3764					;	NONE.
   3765					;
   3766					; OUTPUT ARGUMENTS:
   3767					;
   3768					;	NONE.
   3769					;
   3770					; ERROR CODES RETURNED:
   3771					;
   3772					;	NONE.
   3773					;-
   3774
   3775	004544				.EXAMF::
   3776	004544					CALL	.CKEOC		; CHECK E-O-C
	004544	004737 	000000G			 JSR	PC,.CKEOC
   3777	004550					CALL	.STPKL		; STOP THE KL
	004550	004737 	000000G			 JSR	PC,.STPKL
   3778	004554					CALL	.RDFLG		; READ THE FLAGS
	004554	004737 	005344'			 JSR	PC,.RDFLG
   3779	004560					CALL	.RSTKL		; RESTART THE KL
	004560	004737 	000000G			 JSR	PC,.RSTKL
   3780	004564	010001 				MOV	R0,R1		; FLAGS TO R1
   3781	004566	001422 				BEQ	30$		; NONE ON -- SAY SO
   3782	004570	012700 	002011'			MOV	#EXFMSG,R0	; HEADER
   3783	004574					CALL	.TYLIN		; PRINT IT
	004574	004737 	000000G			 JSR	PC,.TYLIN
   3784	004600				10$:
   3785	004600	012700 	001775'			MOV	#FONMSG,R0	; ASSUME IT IS ON
   3786	004604	032701 	010000 			BIT	#BIT12,R1	; IS THE FLAG ON?
   3787	004610	001002 				BNE	20$		; YES -- GO ON
   3788	004612	012700 	002003'			MOV	#FOFMSG,R0	; NO -- SAY SO
   3789	004616				20$:
   3790	004616					CALL	.TYMSG		; PRINT THE STATE OF THE BIT
	004616	004737 	000000G			 JSR	PC,.TYMSG
   3791	004622	042701 	010000 			BIC	#BIT12,R1	; CLEAR THIS BIT OUT
   3792	004626	006301 				ASL	R1		; MOVE NEXT BIT IN
   3793	004630	001363 				BNE	10$		; LOOP TILL R1 .EQ. 0
   3794	004632	000404 				BR	40$		; DONE -- EXIT
   3795	004634				30$:
   3796	004634	012700 	001746'			MOV	#NOFMSG,R0	; "NO FLAGS"
   3797	004640					CALL	.TYMSG		; PRINT IT
	004640	004737 	000000G			 JSR	PC,.TYMSG
   3798	004644				40$:
   3799	004644					CALLR	.TCRLF		; END LINE AND RETURN
	004644	000137 	000000G			 JMP	.TCRLF
   3800						;
EXREG -- EXAMINE 22 AND 36 BIT 	MACRO M1113  03-APR-86 22:56  PAGE 93
.EXAMF -- THE "EXAMINE FLAGS" COMMAND 7602.23

   3802	001746				.PSECT	MESSAG
   3803
   3804	001746				NOFMSG:
   3805	001746	   116 	   117 	   040 		.ASCIZ	%NO KL PC FLAGS ARE SET%
	001751	   113 	   114 	   040
	001754	   120 	   103 	   040
	001757	   106 	   114 	   101
	001762	   107 	   123 	   040
	001765	   101 	   122 	   105
	001770	   040 	   123 	   105
	001773	   124 	   000
   3806	001775				FONMSG:
   3807	001775	   040 	   040 	   130 		.ASCIZ	%  X  %
	002000	   040 	   040 	   000
   3808	002003				FOFMSG:
   3809	002003	   040 	   040 	   040 		.ASCIZ	%     %
	002006	   040 	   040 	   000
   3810	002011				EXFMSG:
   3811	002011	   040 	   117 	   126 		.ASCIZ	% OVF  CY0  CY1  FOV  BIS  USR  UIO  LIP  AFI  AT1  AT0  FUF  NDV%
	002014	   106 	   040 	   040
	002017	   103 	   131 	   060
	002022	   040 	   040 	   103
	002025	   131 	   061 	   040
	002030	   040 	   106 	   117
	002033	   126 	   040 	   040
	002036	   102 	   111 	   123
	002041	   040 	   040 	   125
	002044	   123 	   122 	   040
	002047	   040 	   125 	   111
	002052	   117 	   040 	   040
	002055	   114 	   111 	   120
	002060	   040 	   040 	   101
	002063	   106 	   111 	   040
	002066	   040 	   101 	   124
	002071	   061 	   040 	   040
	002074	   101 	   124 	   060
	002077	   040 	   040 	   106
	002102	   125 	   106 	   040
	002105	   040 	   116 	   104
	002110	   126 	   000
   3812
   3813	004650				.PSECT
EXREG -- EXAMINE 22 AND 36 BIT 	MACRO M1113  03-APR-86 22:56  PAGE 94
.EXAMK -- THE "EXAMINE KL" COMMAND 7602.23

   3815					.SBTTL	.EXAMK -- THE "EXAMINE KL" COMMAND 7602.23
   3816
   3817					;+
   3818					; .EXAMK -- THE "EXAMINE KL" COMMAND
   3819					;
   3820					; THIS ROUTINE WILL EXAMINE AND DISPLAY THE FOLLOWING ITEMS ON THE
   3821					; CONSOLE DEVICE:
   3822					;
   3823					;	(A) KL PROGRAM COUNTER
   3824					;	(B) KL VMA REGISTER
   3825					;	(C) KL PI SYSTEM STATE
   3826					;	(D) KL PC FLAGS
   3827					;
   3828					; INPUT ARGUMENTS:
   3829					;
   3830					;	NONE.
   3831					;
   3832					; OUTPUT ARGUMENTS:
   3833					;
   3834					;	NONE.
   3835					;
   3836					; ERROR CODES RETURNED:
   3837					;
   3838					;	NONE.
   3839					;-
   3840
   3841	004650				.EXAMK::
   3842	004650					CALL	.CKEOC		; CHECK E-O-C
	004650	004737 	000000G			 JSR	PC,.CKEOC
   3843	004654					PUSH	.KLFLG		; SAVE ".KLFLG"
	004654	013746 	000000G			 MOV	.KLFLG,-(SP)
   3844	004660					CALL	.STPKL		; .STOP THE KL
	004660	004737 	000000G			 JSR	PC,.STPKL
   3845	004664	012702 	000000G			MOV	#PCMSG,R2	; .MESSAGE POINTER TO R2
   3846	004670					CALL	.EXVPC		; .READ AND PRINT THE KL PC
	004670	004737 	004450'			 JSR	PC,.EXVPC
   3847	004674	012702 	000000G			MOV	#VMAMSG,R2	; .MESSAGE POINTER TO R2
   3848	004700					CALL	.EXVMA		; .READ AND PRINT THE KL VMA
	004700	004737 	004434'			 JSR	PC,.EXVMA
   3849	004704					CALL	.EXMPI		; .DISPLAY THE PI SYSTEM
	004704	004737 	005040'			 JSR	PC,.EXMPI
   3850	004710					CALL	.EXAMF		; .DISPLAY THE KL PC FLAGS
	004710	004737 	004544'			 JSR	PC,.EXAMF
   3851	004714					POP	.SVKLF		; .SET UP ".SVKLF"
	004714	012637 	000000G			 MOV	(SP)+,.SVKLF
   3852	004720					CALLR	.RSTKL		; RESTART THE KL
	004720	000137 	000000G			 JMP	.RSTKL
   3853						;
EXREG -- EXAMINE 22 AND 36 BIT 	MACRO M1113  03-APR-86 22:56  PAGE 95
.EXCRA -- SMALL REGISTER EXAMINES 7609.10

   3855					.SBTTL	.EXCRA -- SMALL REGISTER EXAMINES 7609.10
   3856
   3857						.ENABL	LSB
   3858
   3859	004724				.EXCRA::			; CRAM ADDRESS REGISTER
   3860	004724	012700 	005550'			MOV	#.RDCRA,R0	; DISPATCH POINTER TO R0
   3861	004730	000416 				BR	10$		; DO COMMON CODE
   3862						;
   3863	004732				.EXCRL::			; CRAM LOC REGISTER
   3864	004732	012700 	005556'			MOV	#.RDCRL,R0	; DISPATCH POINTER TO R0
   3865	004736	000413 				BR	10$		; DO COMMON CODE
   3866						;
   3867	004740				.EXDRA::			; DRAM ADDRESS REGISTER
   3868	004740	012700 	005564'			MOV	#.RDDRA,R0	; DISPATCH POINTER TO R0
   3869	004744	000410 				BR	10$		; DO COMMON CODE
   3870						;
   3871	004746				.EXFER::			; FLOATING EXPONENT REGISTER
   3872	004746	012700 	005572'			MOV	#.RDFER,R0	; DISPATCH POINTER TO R0
   3873	004752	000405 				BR	10$		; DO COMMON CODE
   3874						;
   3875	004754				.EXSBR::			; CRAM SBR RET REGISTER
   3876	004754	012700 	005600'			MOV	#.RDSBR,R0	; DISPATCH POINTER TO R0
   3877	004760	000402 				BR	10$		; DO COMMON CODE
   3878						;
   3879	004762				.EXSCR::
   3880	004762	012700 	005606'			MOV	#.RDSCR,R0	; DISPATCH POINTER TO R0
   3881					;	BR	10$		; DO COMMON CODE
   3882						;
   3883
   3884					;	[CONTINUED ON THE FOLLOWING PAGE]
EXREG -- EXAMINE 22 AND 36 BIT 	MACRO M1113  03-APR-86 22:56  PAGE 96
.EXCRA -- SMALL REGISTER EXAMINES 7609.10

   3886					;	[CONTINUED FROM THE PREVIOUS PAGE]
   3887
   3888	004766				10$:				; HERE FOR SMALL REGISTER READS
   3889	004766					CALL	.CKEOC		; CHECK E-O-C
	004766	004737 	000000G			 JSR	PC,.CKEOC
   3890	004772					PUSH	R0		; SAVE DISPATCH ADDRESS
	004772	010046 				 MOV	R0,-(SP)
   3891	004774					CALL	.STPKL		; .STOP THE KL
	004774	004737 	000000G			 JSR	PC,.STPKL
   3892	005000					CALL	@(SP)+		; .READ THE REGISTER
	005000	004736 				 JSR	PC,@(SP)+
   3893	005002					PUSH	R0		; SAVE THE REGISTER DATA
	005002	010046 				 MOV	R0,-(SP)
   3894	005004					CALL	.RSTKL		; .YES -- RESTART THE KL
	005004	004737 	000000G			 JSR	PC,.RSTKL
   3895	005010	010200 				MOV	R2,R0		; .MESSAGE POINTER TO R0
   3896	005012					CALL	.TYMSG		; .PRINT IT
	005012	004737 	000000G			 JSR	PC,.TYMSG
   3897	005016					CALL	.TYSLS		; .AND A SLASH
	005016	004737 	000000G			 JSR	PC,.TYSLS
   3898	005022					CALL	.TYSPC		; .AND A SPACE
	005022	004737 	000000G			 JSR	PC,.TYSPC
   3899	005026					POP	R0		; .GET THE DATA
	005026	012600 				 MOV	(SP)+,R0
   3900	005030					CALL	.TYELN		; PRINT IT
	005030	004737 	000000G			 JSR	PC,.TYELN
   3901	005034					CALLR	.TCRLF		; END THE LINE AND EXIT
	005034	000137 	000000G			 JMP	.TCRLF
   3902						;
   3903
   3904						.DSABL	LSB
EXREG -- EXAMINE 22 AND 36 BIT 	MACRO M1113  03-APR-86 22:56  PAGE 98
.EXMPI -- THE "EXAMINE PI" COMMAND 7602.23

   3907					.SBTTL	.EXMPI -- THE "EXAMINE PI" COMMAND 7602.23
   3908
   3909					;+
   3910					; .EXMPI -- THE "EXAMINE PI" COMMAND
   3911					;
   3912					; THIS ROUTINE READS THE STATE OF THE KL PI SYSTEM AND DISPLAYS IT
   3913					; ON THE CONSOLE DEVICE.
   3914					;
   3915					; INPUT ARGUMENTS:
   3916					;
   3917					;	NONE.
   3918					;
   3919					; OUTPUT ARGUMENTS:
   3920					;
   3921					;	NONE.
   3922					;
   3923					; ERROR CODES RETURNED:
   3924					;
   3925					;	NONE.
   3926					;-
   3927
   3928	005040				.EXMPI::
   3929	005040					CALL	.CKEOC		; CHECK THE E-O-C CHARACTER
	005040	004737 	000000G			 JSR	PC,.CKEOC
   3930	005044	005002 				CLR	R2		; CLEAR R2
   3931	005046					CALL	.STPKL		; STOP THE KL
	005046	004737 	000000G			 JSR	PC,.STPKL
   3932	005052					CALL	.RDPI		; READ THE PI SYSTEM STATE
	005052	004737 	005470'			 JSR	PC,.RDPI
   3933	005056					CALL	.RSTKL		; RESTART THE KL
	005056	004737 	000000G			 JSR	PC,.RSTKL
   3934	005062	010001 				MOV	R0,R1		; DATA POINTER TO R1
   3935	005064	012700 	002112'			MOV	#EPMSG0,R0	; MESSAGE POINTER TO R0
   3936	005070					CALL	.TYMSG		; PRINT IT
	005070	004737 	000000G			 JSR	PC,.TYMSG
   3937	005074	012700 	000000G			MOV	#ONMSG,R0	; "ON"
   3938	005100	112102 				MOVB	(R1)+,R2	; [6.1364] PI ACTIVE + PI ON TO R2
   3939	005102	032702 	000200 			BIT	#200,R2		; IS IT ON?
   3940	005106	001002 				BNE	10$		; YES -- GO ON
   3941	005110	012700 	000000G			MOV	#OFFMSG,R0	; NO -- SO SAY "OFF"
   3942
   3943					;	[CONTINUED ON THE FOLLOWING PAGE]
EXREG -- EXAMINE 22 AND 36 BIT 	MACRO M1113  03-APR-86 22:56  PAGE 99
.EXMPI -- THE "EXAMINE PI" COMMAND 7602.23

   3945					;	[CONTINUED FROM THE PREVIOUS PAGE]
   3946
   3947	005114				10$:
   3948	005114					CALL	.TYMSG		; PRINT IT
	005114	004737 	000000G			 JSR	PC,.TYMSG
   3949	005120	012700 	002126'			MOV	#EPMSG1,R0	; "PI ON"
   3950	005124					CALL	.TYMSG		; PRINT IT
	005124	004737 	000000G			 JSR	PC,.TYMSG
   3951	005130	010200 				MOV	R2,R0		; GET ACTIVE BITS
   3952	005132	042700 	177600 			BIC	#^C177,R0	; FLUSH JUNK
   3953	005136					CALL	.TYP3D		; PRINT THEM
	005136	004737 	000000G			 JSR	PC,.TYP3D
   3954	005142	012700 	002140'			MOV	#EPMSG2,R0	; "PI HOLD"
   3955	005146					CALL	.TYMSG		; PRINT IT
	005146	004737 	000000G			 JSR	PC,.TYMSG
   3956	005152	112100 				MOVB	(R1)+,R0	; GET THE PI HOLD BITS
   3957	005154	042700 	177600 			BIC	#^C177,R0	; FLUSH JUNK
   3958	005160					CALL	.TYP3D		; PRINT THEM
	005160	004737 	000000G			 JSR	PC,.TYP3D
   3959	005164	012700 	002154'			MOV	#EPMSG3,R0	; "PI GEN"
   3960	005170					CALL	.TYMSG		; PRINT IT
	005170	004737 	000000G			 JSR	PC,.TYMSG
   3961	005174	112100 				MOVB	(R1)+,R0	; GET THE GEN BITS
   3962	005176	042700 	177600 			BIC	#^C177,R0	; FLUSH JUNK
   3963	005202					CALL	.TYP3D		; PRINT THEM
	005202	004737 	000000G			 JSR	PC,.TYP3D
   3964	005206					CALLR	.TCRLF		; END THE LINE AND RETURN
	005206	000137 	000000G			 JMP	.TCRLF
   3965						;
   3966	002112				.PSECT	MESSAG
   3967
   3968	002112				EPMSG0:
   3969	002112	   120 	   111 	   040 		.ASCIZ	%PI ACTIVE: %
	002115	   101 	   103 	   124
	002120	   111 	   126 	   105
	002123	   072 	   040 	   000
   3970	002126				EPMSG1:
   3971	002126	   054 	   040 	   120 		.ASCIZ	%, PI ON: %
	002131	   111 	   040 	   117
	002134	   116 	   072 	   040
	002137	   000
   3972	002140				EPMSG2:
   3973	002140	   054 	   040 	   120 		.ASCIZ	%, PI HOLD: %
	002143	   111 	   040 	   110
	002146	   117 	   114 	   104
	002151	   072 	   040 	   000
   3974	002154				EPMSG3:
   3975	002154	   054 	   040 	   120 		.ASCIZ	%, PI GEN: %
	002157	   111 	   040 	   107
	002162	   105 	   116 	   072
	002165	   040 	   000
   3976	005212				.PSECT
EXREG -- EXAMINE 22 AND 36 BIT 	MACRO M1113  03-APR-86 22:56  PAGE 100
.EXREG -- THE "EXAMINE REGISTERS" COMMAND 7602.16

   3978					.SBTTL	.EXREG -- THE "EXAMINE REGISTERS" COMMAND 7602.16
   3979
   3980	005212				.EXREG::
   3981	005212					CALL	.CKEOC		; CHECK E-O-C
	005212	004737 	000000G			 JSR	PC,.CKEOC
   3982	005216					CALL	.STPKL		; STOP THE KL
	005216	004737 	000000G			 JSR	PC,.STPKL
   3983	005222	012701 	000000G			MOV	#.EXMTB,R1	; TABLE POINTER TO R1
   3984	005226	012703 	000000G			MOV	#EXRTBL,R3	; COUNT TO R3
   3985	005232				10$:
   3986	005232	012102 				MOV	(R1)+,R2	; MESSAGE ADDRESS TO R2
   3987	005234					PUSH	R1		; SAVE R1
	005234	010146 				 MOV	R1,-(SP)
   3988	005236					CALL	@2(R1)		; .READ AND PRINT THE REGISTER
	005236	004771 	000002 			 JSR	PC,@2(R1)
   3989	005242					POP	R1		; .RESTORE R1
	005242	012601 				 MOV	(SP)+,R1
   3990	005244	022121 				CMP	(R1)+,(R1)+	; ADVANCE THE POINTER
   3991	005246	077307 				SOB	R3,10$		; LOOP TILL COUNT EXHAUSTED
   3992	005250					CALLR	.RSTKL		; RESTART THE KL
	005250	000137 	000000G			 JMP	.RSTKL
   3993						;
EXREG -- EXAMINE 22 AND 36 BIT 	MACRO M1113  03-APR-86 22:56  PAGE 101
.RDDPB -- SUBROUTINES TO READ THE KL DATA PATH BOARDS 7509.23

   3995					.SBTTL	.RDDPB -- SUBROUTINES TO READ THE KL DATA PATH BOARDS 7509.23
   3996
   3997					;+
   3998					; .RDADR -- SUBROUTINE TO READ THE KL ADDER REGISTER.
   3999					; .RDADX -- SUBROUTINE TO READ THE KL ADDER EXTENSION REGISTER.
   4000					; .RDARR -- SUBROUTINE TO READ THE KL ARITHMETIC REGISTER.
   4001					; .RDARX -- SUBROUTINE TO READ THE KL ARITHMETIC REGISTER EXTENSION.
   4002					; .RDBRR -- SUBROUTINE TO READ THE KL BUFFER REGISTER.
   4003					; .RDBRX -- SUBROUTINE TO READ THE KL BUFFER REGISTER EXTENSION.
   4004					; .RDEBS -- SUBROUTINE TO READ THE KL EBUS REGISTER.
   4005					; .RDFMR -- SUBROUTINE TO READ THE KL FAST MEMORY REGISTER.
   4006					; .RDMQR -- SUBROUTINE TO READ THE KL MULTIPLIER QUOTIENT REGISTER.
   4007					;
   4008					; THESE SUBROUTINES READ AND RETURN THE CONTENT OF THE SPECIFIED KL
   4009					; DATA PATH REGISTER IN A TRIPLET POINTED TO BY R1 IN THE CALL.
   4010					;
   4011					; INPUT ARGUMENTS:
   4012					;
   4013					;	R1 CONTAINS A POINTER TO A 3 WORD DATA BUFFER
   4014					;
   4015					; OUTPUT ARGUMENTS:
   4016					;
   4017					;	R0 CONTAINS A POINTER TO THE DATA.
   4018					;
   4019					; ERROR CODES RETURNED:
   4020					;
   4021					;	FRF -- FUNCTION READ FAILED.
   4022					;-
EXREG -- EXAMINE 22 AND 36 BIT 	MACRO M1113  03-APR-86 22:56  PAGE 102
.RDDPB -- SUBROUTINES TO READ THE KL DATA PATH BOARDS 7509.23

   4024						.ENABL	LSB
   4025
   4026	005254				.RDADR::
   4027	005254	012700 	000256 			MOV	#FR.RAD,R0	; READ THE KL ADDER
   4028	005260	000427 				BR	10$		; COMMON CODE
   4029						;
   4030	005262				.RDADX::
   4031	005262	012700 	000254 			MOV	#FR.ADX,R0	; READ THE KL ADDER EXTENSION
   4032	005266	000424 				BR	10$		; COMMON CODE
   4033						;
   4034	005270				.RDARR::
   4035	005270	012700 	000240 			MOV	#FR.RAR,R0	; READ THE KL ARITHMETIC REGISTER
   4036	005274	000421 				BR	10$		; COMMON CODE
   4037						;
   4038	005276				.RDARX::
   4039	005276	012700 	000252 			MOV	#FR.ARX,R0	; READ THE KL AR EXTENSION REGISTER
   4040	005302	000416 				BR	10$		; COMMON CODE
   4041						;
   4042	005304				.RDBRR::
   4043	005304	012700 	000242 			MOV	#FR.RBR,R0	; READ THE KL BUFFER REGISTER
   4044	005310	000413 				BR	10$		; COMMON CODE
   4045						;
   4046	005312				.RDBRX::
   4047	005312	012700 	000250 			MOV	#FR.BRX,R0	; READ THE KL BR EXTENSION REGISTER
   4048	005316	000410 				BR	10$		; COMMON CODE
   4049						;
   4050	005320				.RDEBS::
   4051	005320	012700 	000356 			MOV	#FR.EBS,R0	; READ THE KL EBUS REGISTER
   4052	005324	000405 				BR	10$		; COMMON CODE
   4053						;
   4054	005326				.RDFMR::
   4055	005326	012700 	000246 			MOV	#FR.RFM,R0	; READ THE KL FAST MEMORY REGISTER
   4056	005332	000402 				BR	10$		; COMMON CODE
   4057						;
   4058	005334				.RDMQR::
   4059	005334	012700 	000244 			MOV	#FR.RMQ,R0	; READ THE KL MULTIPLIER QUOTIENT REGISTER
   4060									; FALL INTO COMMON CODE
   4061	005340				10$:
   4062	005340					CALLR	.FREAD		; READ IT AND EXIT
	005340	000137 	000000G			 JMP	.FREAD
   4063						;
   4064
   4065						.DSABL	LSB
EXREG -- EXAMINE 22 AND 36 BIT 	MACRO M1113  03-APR-86 22:56  PAGE 103
.RDFLG -- SUBROUTINE TO READ THE KL PC FLAGS 7511.24

   4067					.SBTTL	.RDFLG -- SUBROUTINE TO READ THE KL PC FLAGS 7511.24
   4068
   4069					;+
   4070					; .RDFLG -- SUBROUTINE TO READ THE KL PC FLAGS.
   4071					;
   4072					; THIS SUBROUTINE READS AND RETURNS THE STATE OF THE KL PC FLAGS IN R0.
   4073					;
   4074					; INPUT ARGUMENTS:
   4075					;
   4076					;	NONE.
   4077					;
   4078					; OUTPUT ARGUMENTS:
   4079					;
   4080					;	R0 CONTAINS THE KL PC FLAGS
   4081					;
   4082					; THE FOLLOWING IS A LIST OF THE KL FLAGS RETURNED IN R0:
   4083					;
   4084					;	BIT #	PC FLAG BIT AND MEANING		KL BIT
   4085					;	-----	----------------------------	--------
   4086					;
   4087					;	12	PC.OVF -- KL OVERFLOW FLAG -- 00
   4088					;	11	PC.CY0 -- KL CARRY 0 FLAG -- 01
   4089					;	10	PC.CY1 -- KL CARRY 1 FLAG -- 02
   4090					;	09	PC.FOV -- KL FLOATING OVERFLOW FLAG -- 03
   4091					;	08	PC.BIS -- KL BYTE INCREMENT SUPPRESSION FLAG -- 04
   4092					;	07	PC.USR -- KL USER MODE FLAG -- 05
   4093					;	06	PC.UIO -- KL USER IOT MODE FLAG -- 06
   4094					;	05	PC.LIP -- KL LAST INSTRUCTION PUBLIC FLAG -- 07
   4095					;	04	PC.AFI -- KL ADDRESS FAILURE INHIBIT FLAG -- 08
   4096					;	03	PC.AT1 -- KL APR TRAP 1 FLAG -- 09
   4097					;	02	PC.AT0 -- KL APR TRAP 0 FLAG -- 10
   4098					;	01	PC.FUF -- KL FLOATING UNDERFLOW FLAG -- 11
   4099					;	00	PC.NDV -- KL NO DIVIDE FLAG -- 12
   4100					;
   4101					; ERROR CODES RETURNED:
   4102					;
   4103					;	FRF -- FUNCTION READ FAILED.
   4104					;-
EXREG -- EXAMINE 22 AND 36 BIT 	MACRO M1113  03-APR-86 22:56  PAGE 104
.RDFLG -- SUBROUTINE TO READ THE KL PC FLAGS 7511.24

   4106	005344				.RDFLG::
   4107	005344					PUSH	<R1,R2>		; SAVE R1 AND R2 ON THE STACK
	005344	010146 				 MOV	R1,-(SP)
	005346	010246 				 MOV	R2,-(SP)
   4108	005350	005001 				CLR	R1		; ..CLEAR R1
   4109	005352	005002 				CLR	R2		; ..AND R2
   4110	005354	012700 	000202 			MOV	#FR.101,R0	; ..FR CODE FOR LOW FLAGS
   4111	005360					CALL	.FREAD		; ..READ THEM
	005360	004737 	000000G			 JSR	PC,.FREAD
   4112	005364	012701 	177764 			MOV	#-^D12,R1	; ..SHIFT COUNT TO R1
   4113	005370					CALL	.TPSHI		; ..SHIFT OUR WORD
	005370	004737 	000000G			 JSR	PC,.TPSHI
   4114	005374	042710 	177700 			BIC	#177700,(R0)	; ..MASK OUT FLAG BITS
   4115	005400	051002 				BIS	(R0),R2		; ..PUT THE LOW FLAGS IN R2
   4116	005402	005001 				CLR	R1		; ..AGAIN
   4117	005404	012700 	000200 			MOV	#FR.100,R0	; ..FR CODE FOR MOST OF THE FLAGS
   4118	005410					CALL	.FREAD		; ..READ THEM
	005410	004737 	000000G			 JSR	PC,.FREAD
   4119	005414	012701 	177772 			MOV	#-^D6,R1	; ..SHIFT COUNT TO R1
   4120	005420					CALL	.TPSHI		; ..SHIFT THE DATA
	005420	004737 	000000G			 JSR	PC,.TPSHI
   4121	005424	042710 	170077 			BIC	#170077,(R0)	; ..JUST THE BITS WE WANT
   4122	005430	051002 				BIS	(R0),R2		; ..SAVE THE HIGH FLAGS IN R2
   4123	005432	005001 				CLR	R1		; ..CLEAR R1 AGAIN
   4124	005434	012700 	000264 			MOV	#FR.132,R0	; ..FR CODE FOR LAST FLAG BIT
   4125	005440					CALL	.FREAD		; ..READ IT
	005440	004737 	000000G			 JSR	PC,.FREAD
   4126	005444	032760 	000001 	000004 		BIT	#BIT00,4(R0)	; ..IS IT ON?
   4127	005452	001402 				BEQ	10$		; ..NO -- JUST EXIT
   4128	005454	052702 	010000 			BIS	#PC.OVF,R2	; ..YES -- SET IT IN OUR WORD
   4129	005460				10$:
   4130	005460	010200 				MOV	R2,R0		; ..PUT A COPY IN R0
   4131	005462					POP	<R2,R1>		; ..RESTORE REGISTERS
	005462	012602 				 MOV	(SP)+,R2
	005464	012601 				 MOV	(SP)+,R1
   4132	005466					RETURN			; TO CALLER
	005466	000207 				 RTS	PC
EXREG -- EXAMINE 22 AND 36 BIT 	MACRO M1113  03-APR-86 22:56  PAGE 105
.RDPI  -- SUBROUTINE TO READ THE PI BOARDS 7510.16

   4134					.SBTTL	.RDPI  -- SUBROUTINE TO READ THE PI BOARDS 7510.16
   4135
   4136					;+
   4137					; .RDPI -- SUBROUTINE TO READ THE KL PI BOARDS.
   4138					;
   4139					; THIS SUBROUTINE READS THE KL PI BOARDS AND STORES THE STATUS IN
   4140					; A TWO WORD TABLE, ".PITAB", WHICH IS POINTED TO BY R0 ON SUCCESSFUL
   4141					; RETURN.
   4142					;
   4143					; WORD 0 OF ".PITAB" CONTAINS:
   4144					;
   4145					;	(A) PIH 1 THRU PIH 7 (BITS 14 THRU 08),
   4146					;	(B) PI ACTIVE (BIT 07),
   4147					;	(C) PI ON 1 THRU PI ON 7 (BITS 06 THRU 00).
   4148					;
   4149					; WORD 2 OF ".PITAB" CONTAINS:
   4150					;
   4151					;	(A) PI GEN 1 THRU PI GEN 7 (BITS 06 THRU 00).
   4152					;
   4153					; INPUT ARGUMENTS:
   4154					;
   4155					;	NONE.
   4156					;
   4157					; OUTPUT ARGUMENTS:
   4158					;
   4159					;	R0 POINTS TO ".PITAB".
   4160					;
   4161					; ERROR CODES RETURNED:
   4162					;
   4163					;	FRF -- FUNCTION READ FAILED.
   4164					;-
EXREG -- EXAMINE 22 AND 36 BIT 	MACRO M1113  03-APR-86 22:56  PAGE 106
.RDPI  -- SUBROUTINE TO READ THE PI BOARDS 7510.16

   4166	005470				.RDPI::
   4167	005470					PUSH	<R1,R2,R3>	; SAVE REGISTERS
	005470	010146 				 MOV	R1,-(SP)
	005472	010246 				 MOV	R2,-(SP)
	005474	010346 				 MOV	R3,-(SP)
   4168	005476	012703 	000374'			MOV	#RDPITB,R3	; ...TABLE POINTER TO R3
   4169	005502	012702 	000000G			MOV	#.PITAB,R2	; ...SAVE AREA POINTER TO R2
   4170	005506				10$:
   4171	005506	005001 				CLR	R1		; ...CLEAR R1
   4172	005510	012300 				MOV	(R3)+,R0	; ...FR CODE TO R0
   4173	005512					CALL	.FREAD		; ...READ IT
	005512	004737 	000000G			 JSR	PC,.FREAD
   4174	005516	012301 				MOV	(R3)+,R1	; ...SHIFT COUNT TO R1
   4175	005520					CALL	.TPSHI		; ...SHIFT IT
	005520	004737 	000000G			 JSR	PC,.TPSHI
   4176	005524	042310 				BIC	(R3)+,(R0)	; ...CLEAR UNWANTED BIT(S)
   4177	005526	011022 				MOV	(R0),(R2)+	; ...PUT IT IN SAVE AREA
   4178	005530	022703 	000410'			CMP	#RDPITE,R3	; ...ARE WE AT END OF TABLE?
   4179	005534	001364 				BNE	10$		; ...NO -- KEEP GOING
   4180	005536	011300 				MOV	(R3),R0		; ...YES -- POINT TO SAVE AREA
   4181	005540					POP	<R3,R2,R1>	; ...RESTORE REGISTERS
	005540	012603 				 MOV	(SP)+,R3
	005542	012602 				 MOV	(SP)+,R2
	005544	012601 				 MOV	(SP)+,R1
   4182	005546					RETURN			; TO CALLER
	005546	000207 				 RTS	PC
   4183
   4184	000374				.PSECT	DATA
   4185
   4186	000374				RDPITB:
   4187	000374	000200 				.WORD	FR.PI0		; FIRST READ CODE
   4188	000376	177756 				.WORD	-^D18		; SHIFT COUNT
   4189	000400	100000 				.WORD	BIT15		; MASK
   4190	000402	000202 				.WORD	FR.PI1		; SECOND READ CODE
   4191	000404	177756 				.WORD	-^D18		; SHIFT COUNT
   4192	000406	177600 				.WORD	177600		; MASK
   4193		000410'			RDPITE=.
   4194	000410	000000G				.WORD	.PITAB		; POINTER TO SAVE AREA
   4195
   4196	005550				.PSECT
EXREG -- EXAMINE 22 AND 36 BIT 	MACRO M1113  03-APR-86 22:56  PAGE 107
.RDSMR -- SUBROUTINE TO READ SMALL KL REGISTERS 7511.05

   4198					.SBTTL	.RDSMR -- SUBROUTINE TO READ SMALL KL REGISTERS 7511.05
   4199
   4200					;+
   4201					; .RDCRA -- SUBROUTINE TO READ THE KL CRAM ADDR REGISTER.
   4202					; .RDCRL -- SUBROUTINE TO READ THE KL CRAM LOC REGISTER.
   4203					; .RDDRA -- SUBROUTINE TO READ THE KL DRAM ADDR REGISTER.
   4204					; .RDFER -- SUBROUTINE TO READ THE KL FLOATING EXPONENT REGISTER.
   4205					; .RDSCR -- SUBROUTINE TO READ THE KL SHIFT COUNT REGISTER.
   4206					; .RDSBR -- SUBROUTINE TO READ THE KL CRAM SUBROUTINE RETURN REGISTER.
   4207					;
   4208					; THESE SUBROUTINES READ THE CONTENT OF THE SPECIFIED REGISTER
   4209					; AND RETURN IT IN R0. NOTE THAT THE CONTENT OF EACH REGISTER IS LESS
   4210					; THAN 16 BITS AND MUST BE READ USING TWO FUNCTION READS.
   4211					;
   4212					; INPUT ARGUMENTS:
   4213					;
   4214					;	NONE.
   4215					;
   4216					; OUTPUT ARGUMENTS:
   4217					;
   4218					;	R0 HOLDS THE CONTENT OF THE SPECIFIED REGISTER
   4219					;
   4220					; ERROR CODES RETURNED:
   4221					;
   4222					;	FRF -- FUNCTION READ FAILED.
   4223					;-
   4224
   4225						.ENABL	LSB
   4226
   4227	005550				.RDCRA::
   4228	005550	012700 	000412'			MOV	#CRATAB,R0	; POINT TO CRAM ADDRESS TABLE
   4229	005554	000416 				BR	10$		; DO COMMON CODE
   4230						;
   4231	005556				.RDCRL::
   4232	005556	012700 	000426'			MOV	#CRLTAB,R0	; POINT TO CR LOC TABLE
   4233	005562	000413 				BR	10$		; DO COMMON CODE
   4234						;
   4235	005564				.RDDRA::
   4236	005564	012700 	000442'			MOV	#DRATAB,R0	; POINT TO DRAM ADDR TABLE
   4237	005570	000410 				BR	10$		; DO COMMON CODE
   4238						;
   4239	005572				.RDFER::
   4240	005572	012700 	000456'			MOV	#FERTAB,R0	; POINT TO FE TABLE
   4241	005576	000405 				BR	10$		; DO COMMON CODE
   4242						;
   4243	005600				.RDSBR::
   4244	005600	012700 	000472'			MOV	#SBRTAB,R0	; POINT TO CRAM SBR RET TABLE
   4245	005604	000402 				BR	10$		; DO COMMON CODE
   4246						;
   4247	005606				.RDSCR::
   4248	005606	012700 	000506'			MOV	#SCRTAB,R0	; POINT TO SHIFT COUNT TABLE
   4249					;	BR	10$		; FALL INTO COMMON CODE
   4250
   4251					;	[CONTINUED ON THE FOLLOWING PAGE]
EXREG -- EXAMINE 22 AND 36 BIT 	MACRO M1113  03-APR-86 22:56  PAGE 108
.RDSMR -- SUBROUTINE TO READ SMALL KL REGISTERS 7511.05

   4253					;	[CONTINUED FROM THE PREVIOUS PAGE]
   4254
   4255	005612				10$:				; HERE FROM PREVIOUS PAGE
   4256	005612					PUSH	<R1,R2>		; SAVE CALLER'S REGISTERS
	005612	010146 				 MOV	R1,-(SP)
	005614	010246 				 MOV	R2,-(SP)
   4257	005616	010002 				MOV	R0,R2		; ..POINTER TO R2
   4258	005620	005001 				CLR	R1		; ..CLEAR R1
   4259	005622	012200 				MOV	(R2)+,R0	; ..READ THE HIGH ORDER BITS
   4260	005624					CALL	.FREAD		; ..DO IT
	005624	004737 	000000G			 JSR	PC,.FREAD
   4261	005630	012201 				MOV	(R2)+,R1	; ..SHIFT COUNT TO R1
   4262	005632					CALL	.TPSHI		; ..SHIFT IT
	005632	004737 	000000G			 JSR	PC,.TPSHI
   4263	005636	042210 				BIC	(R2)+,(R0)	; ..MASK OUT UNWANTED BITS
   4264	005640					PUSH	(R0)		; ..SAVE THE BITS
	005640	011046 				 MOV	(R0),-(SP)
   4265	005642	012200 				MOV	(R2)+,R0	; ...READ THE LOW ORDER BITS
   4266	005644	005001 				CLR	R1		; ...CLEAR R1
   4267	005646					CALL	.FREAD		; ...DO IT
	005646	004737 	000000G			 JSR	PC,.FREAD
   4268	005652	012201 				MOV	(R2)+,R1	; ...SHIFT COUNT TO R1
   4269	005654					CALL	.TPSHI		; ...SHIFT IT
	005654	004737 	000000G			 JSR	PC,.TPSHI
   4270	005660	042210 				BIC	(R2)+,(R0)	; ...MASK OUT UNWANTED BITS
   4271	005662	051610 				BIS	(SP),(R0)	; ...SET IN THE HIGH ORDER BITS
   4272	005664	011000 				MOV	(R0),R0		; ...PUT IT IN R0
   4273	005666	005726 				TST	(SP)+		; ...CLEAR THE STACK
   4274	005670					POP	<R2,R1>		; ..RESTORE REGISTERS
	005670	012602 				 MOV	(SP)+,R2
	005672	012601 				 MOV	(SP)+,R1
   4275	005674					RETURN			; TO CALLER
	005674	000207 				 RTS	PC
EXREG -- EXAMINE 22 AND 36 BIT 	MACRO M1113  03-APR-86 22:56  PAGE 109
.RDSMR -- SUBROUTINE TO READ SMALL KL REGISTERS 7511.05

   4277					; TABLES FOR SMALL REGISTER READS
   4278
   4279	000412				.PSECT	DATA
   4280
   4281	000412				CRATAB:
   4282	000412	000312 				.WORD	FR.CA1		; FR FOR CRAM ADDR HIGH BITS
   4283	000414	177750 				.WORD	-^D24		; SHIFT COUNT FOR SAME
   4284	000416	174077 				.WORD	174077		; BIT MASK FOR SAME
   4285	000420	000310 				.WORD	FR.CA2		; FR FOR CRAM ADDR LOW BITS
   4286	000422	177742 				.WORD	-^D30		; SHIFT COUNT FOR SAME
   4287	000424	177700 				.WORD	177700		; BIT MASK FOR SAME
   4288
   4289	000426				CRLTAB:
   4290	000426	000316 				.WORD	FR.CL1		; FR FOR CRAM LOC HIGH BITS
   4291	000430	177750 				.WORD	-^D24		; SHIFT COUNT FOR SAME
   4292	000432	174077 				.WORD	174077		; BIT MASK FOR SAME
   4293	000434	000314 				.WORD	FR.CL2		; FR FOR CRAM LOC LOW BITS
   4294	000436	177742 				.WORD	-^D30		; SHIFT COUNT FOR SAME
   4295	000440	177700 				.WORD	177700		; BIT MASK FOR SAME
   4296
   4297	000442				DRATAB:
   4298	000442	000260 				.WORD	FR.DA1		; FR FOR DRAM ADDR HIGH BITS
   4299	000444	177764 				.WORD	-^D12		; SHIFT COUNT FOR SAME
   4300	000446	177077 				.WORD	177077		; BIT MASK FOR SAME
   4301	000450	000262 				.WORD	FR.DA2		; FR FOR DRAM ADDR LOW BITS
   4302	000452	177756 				.WORD	-^D18		; SHIFT COUNT FOR SAME
   4303	000454	177700 				.WORD	177700		; BIT MASK FOR SAME
   4304
   4305	000456				FERTAB:
   4306	000456	000266 				.WORD	FR.FE1		; FR FOR FE HIGH BITS
   4307	000460	177755 				.WORD	-^D19		; SHIFT COUNT FOR SAME
   4308	000462	176037 				.WORD	176037		; BIT MASK FOR SAME
   4309	000464	000264 				.WORD	FR.FE2		; FR FOR FE LOW BITS
   4310	000466	177750 				.WORD	-^D24		; SHIFT COUNT FOR SAME
   4311	000470	177740 				.WORD	177740		; BIT MASK FOR SAME
   4312
   4313	000472				SBRTAB:
   4314	000472	000306 				.WORD	FR.SR1		; FR FOR SBR RET HIGH BITS
   4315	000474	177750 				.WORD	-^D24		; SHIFT COUNT FOR SAME
   4316	000476	174077 				.WORD	174077		; BIT MASK FOR SAME
   4317	000500	000304 				.WORD	FR.SR2		; FR FOR SBR RET LOW BITS
   4318	000502	177742 				.WORD	-^D30		; SHIFT COUNT FOR SAME
   4319	000504	177700 				.WORD	177700		; BIT MASK FOR SAME
   4320
   4321	000506				SCRTAB:
   4322	000506	000262 				.WORD	FR.SC1		; FR FOR SHIFT COUNT HIGH BITS
   4323	000510	177755 				.WORD	-^D19		; SHIFT COUNT FOR SAME
   4324	000512	177417 				.WORD	177417		; BIT MASK FOR SAME
   4325	000514	000260 				.WORD	FR.SC2		; FR FOR SHIFT COUNT LOW BITS
   4326	000516	177750 				.WORD	-^D24		; SHIFT COUNT FOR SAME
   4327	000520	177760 				.WORD	177760		; BIT MASK FOR SAME
   4328
   4329	005676				.PSECT
EXREG -- EXAMINE 22 AND 36 BIT 	MACRO M1113  03-APR-86 22:56  PAGE 110
.RDVXX -- KL VMA BOARD READ SUBROUTINES 7510.21

   4331					.SBTTL	.RDVXX -- KL VMA BOARD READ SUBROUTINES 7510.21
   4332
   4333					;+
   4334					; .RDVPC -- SUBROUTINE TO READ THE KL PROGRAM COUNTER REGISTER
   4335					; .RDVAB -- SUBROUTINE TO READ THE KL ADDRESS BREAK REGISTER.
   4336					; .RDVMA -- SUBROUTINE TO READ THE KL VMA REGISTER.
   4337					; .RDVMH -- SUBROUTINE TO READ THE KL VMAH REGISTER.
   4338					;
   4339					; THESE SUBROUTINES READ AND ASSEMBLE THE DESIRED VMA BOARD REGISTER
   4340					; INTO A THREE WORD BLOCK POINTED TO BY R1 IN THE CALL.
   4341					;
   4342					; INPUT ARGUMENTS:
   4343					;
   4344					;	R1 POINTS TO A TWO WORD BUFFER FOR THE SPECIFIED REGISTER
   4345					;
   4346					; OUTPUT ARGUMENTS:
   4347					;
   4348					;	R1 POINTS TO A TWO WORD BUFFER FOR THE SPECIFIED REGISTER
   4349					;
   4350					; ERROR CODES RETURNED:
   4351					;
   4352					;	FRF -- FUNCTION READ FAILED.
   4353					;-
   4354
   4355						.ENABL	LSB
   4356
   4357	005676				.RDVPC::
   4358	005676	012700 	000522'			MOV	#PCTAB,R0	; POINTER TO PC TABLE
   4359	005702	000410 				BR	10$
   4360						;
   4361	005704				.RDVAB::
   4362	005704	012700 	000530'			MOV	#ABTAB,R0	; POINTER TO ADDRESS BREAK TABLE
   4363	005710	000405 				BR	10$
   4364						;
   4365	005712				.RDVMA::
   4366	005712	012700 	000536'			MOV	#VMATB,R0	; POINTER TO VMA TABLE
   4367	005716	000402 				BR	10$
   4368						;
   4369	005720				.RDVMH::
   4370	005720	012700 	000544'			MOV	#VMHTB,R0	; POINTER TO VMAH TABLE
   4371	005724				10$:
   4372	005724					CALL	R5,.REGSV	; SAVE R5 - R1 ON THE STACK
	005724	004537 	000000G			 JSR	R5,.REGSV
   4373	005730	010005 				MOV	R0,R5		; TABLE POINTER TO R5
   4374	005732	012704 	000004 			MOV	#^D4,R4		; ITERATION COUNT TO R4
   4375	005736	010103 				MOV	R1,R3		; USER BUFFER ADDRESS TO R3
   4376	005740	012502 				MOV	(R5)+,R2	; FUNCTION READ BASE TO R2
   4377	005742					PUSH	(R5)+		; MASK WORD TO TOP OF THE STACK
	005742	012546 				 MOV	(R5)+,-(SP)
   4378	005744	011505 				MOV	(R5),R5		; .SHIFT BASE TO R5
   4379	005746	010100 				MOV	R1,R0		; .CLEAR CALLER'S AREA
   4380	005750					CALL	.TPCLR		; .SO
	005750	004737 	000000G			 JSR	PC,.TPCLR
   4381
   4382					;	[CONTINUED ON THE FOLLOWING PAGE]
EXREG -- EXAMINE 22 AND 36 BIT 	MACRO M1113  03-APR-86 22:56  PAGE 111
.RDVXX -- KL VMA BOARD READ SUBROUTINES 7510.21

   4384					;	[CONTINUED FROM THE PREVIOUS PAGE]
   4385
   4386	005754				20$:				; .GET HERE FROM .RDVXX, ABOVE
   4387	005754	010200 				MOV	R2,R0		; .SET THE FUNCTION READ NUMBER
   4388	005756	006300 				ASL	R0		; .TIMES 2
   4389	005760	005001 				CLR	R1		; .CLEAR R1
   4390	005762					CALL	.FREAD		; .READ IT
	005762	004737 	000000G			 JSR	PC,.FREAD
   4391	005766	041620 				BIC	(SP),(R0)+	; .SP POINTS TO BIT MASK
   4392	005770	041610 				BIC	(SP),(R0)	; .R0 POINTS TO READ BLOCK
   4393	005772	005740 				TST	-(R0)		; .NOW BACK THE POINTER UP
   4394	005774	010501 				MOV	R5,R1		; .GET THE SHIFT COUNT INTO R1
   4395	005776					CALL	.TPSHI		; .AND SHIFT IT
	005776	004737 	000000G			 JSR	PC,.TPSHI
   4396	006002	052023 				BIS	(R0)+,(R3)+	; .SET THE BITS IN THE USER BUFFER
   4397	006004	051013 				BIS	(R0),(R3)	; .SO
   4398	006006	005743 				TST	-(R3)		; .BACK CALLER'S POINTER UP
   4403	006010	122225 				CMPB	(R2)+,(R5)+	; .INCREMENT READ NUMBER AND SHIFT COUNT
   4405	006012	077420 				SOB	R4,20$		; .DO THIS FOUR TIMES
   4406	006014	042763 	177600 	000002 		BIC	#177600,2(R3)	; .GET RID OF BITS HIGHER THAN 13
   4407	006022	005726 				TST	(SP)+		; CLEAR THE STACK
   4408	006024					RETURN			; RETURN TO CALLER
	006024	000207 				 RTS	PC
   4409
   4410						.DSABL	LSB
   4411
   4412					; TABLES FOR VMA BOARD READS
   4413
   4414	000522				.PSECT	DATA
   4415
   4416	000522				PCTAB:
   4417	000522	000150 				.WORD	FR.150/2	; BASE READ FOR PC REGISTER
   4418	000524	135673 				.WORD	135673		; BIT MASK   "  "     "
   4419	000526	177776 				.WORD	-^D2		; SHIFT CNT  "  "     "
   4420	000530				ABTAB:
   4421	000530	000150 				.WORD	FR.150/2	; BASE READ FOR ADDRESS BREAK REGISTER
   4422	000532	167356 				.WORD	167356		; BIT MASK   "	   "	  "	 "
   4423	000534	000000 				.WORD	0		; SHIFT CNT  "	   "	  "	 "
   4424	000536				VMATB:
   4425	000536	000154 				.WORD	FR.154/2	; BASE READ FOR VMA REGISTER
   4426	000540	135673 				.WORD	135673		; BIT MASK   "	 "     "
   4427	000542	177776 				.WORD	-^D2		; SHIFT CNT  "	 "     "
   4428	000544				VMHTB:
   4429	000544	000154 				.WORD	FR.154/2	; BASE READ FOR VMAH REGISTER
   4430	000546	167356 				.WORD	167356		; BIT MASK   "	 "	"
   4431	000550	000000 				.WORD	0		; SHIFT CNT  "	 "	"
   4432
   4433	006026				.PSECT
   4434					.TITLE	GTTIM -- INPUT AND DISPLAY DATE AND TIME MODULE 7703.04
   4435
   4436						.IDENT	"006060"
   4437
   4438					;
   4439					;                             COPYRIGHT (C) 1975, 1984, 1985 BY
   4440					;                     DIGITAL EQUIPMENT CORPORATION, MAYNARD MASS.
   4441					;			ALL RIGHTS RESERVED.
   4442					;       THIS SOFTWARE IS FURNISHED UNDER A LICENSE AND MAY BE  USED  AND  COPIED
GTTIM -- INPUT AND DISPLAY DATE	MACRO M1113  03-APR-86 22:56  PAGE 111-1
.RDVXX -- KL VMA BOARD READ SUBROUTINES 7510.21

   4443					;       ONLY IN ACCORDANCE WITH THE TERMS OF SUCH LICENSE AND WITH THE INCLUSION
   4444					;       OF THE ABOVE COPYRIGHT NOTICE.  THIS SOFTWARE OR ANY OTHER COPIES THERE-
   4445					;       OF  MAY NOT BE PROVIDED OR OTHERWISE MADE AVAILABLE TO ANY OTHER PERSON.
   4446					;       NO TITLE TO OR OWNERSHIP OF THE SOFTWARE IS HEREBY TRANSFERRED.
   4447					;
   4448					;       THE INFORMATION CONTAINED IN THIS SOFTWARE IS SUBJECT TO CHANGE  WITHOUT
   4449					;       NOTICE  AND SHOULD NOT BE CONSTRUED AS A COMMITMENT BY DIGITAL EQUIPMENT
   4450					;       CORPORATION.
   4451					;
   4452					;       DIGITAL ASSUMES NO RESPONSIBILITY FOR THE  USE  OR  RELIABILITY  OF  ITS
   4453					;       SOFTWARE ON EQUIPMENT WHICH IS NOT SUPPILED BY DIGITAL.
   4454					;
   4455					;		MODULE: INPUT AND DISPLAY DATE AND TIME
   4456					;
   4457					;		VERSION: 06-06
   4458					;
   4459					;		AUTHOR: R. BELANGER
   4460					;
   4461					;		DATE: 7703.04
   4462					;
   4463					;	THIS MODULE CONTAINS:
   4464					;
   4465					;	1) INPUT DATE AND TIME CODE
   4466					;	2) DISPLAY DATE AND TIME CODE
GTTIM -- INPUT AND DISPLAY DATE	MACRO M1113  03-APR-86 22:56  PAGE 112
.GTDAT -- SUBROUTINE TO INPUT THE CURRENT DATE 7702.15

   4468					.SBTTL	.GTDAT -- SUBROUTINE TO INPUT THE CURRENT DATE 7702.15
   4469
   4470					;+
   4471					; .GTDAT -- SUBROUTINE TO INPUT THE CURRENT DATE
   4472					;
   4473					; THIS SUBROUTINE WILL EVALUATE A PREVIOUSLY INPUT ASCII STRING OF THE
   4474					; FORM "DD-MMM-YYYY" AND RETURN THE VALUE OF THE YEAR, MONTH AND DAY
   4475					; IN A THREE BYTE BLOCK.
   4476					;
   4477					; INPUT ARGUMENTS:
   4478					;
   4479					;	R0 POINTS TO A THREE BYTE DATA BLOCK
   4480					;	R5 POINTS TO THE INPUT STREAM
   4481					;
   4482					; OUTPUT ARGUMENTS:
   4483					;
   4484					;	R0 POINTS TO THE THREE BYTE DATA BLOCK
   4485					;
   4486					; ERROR CODES RETURNED:
   4487					;
   4488					;	DBT -- DATE BEFORE TODAY
   4489					;	DOR -- DATE OUT OF RANGE
   4490					;	IDF -- ILLEGAL DATE FORMAT
   4491					;	YOR -- YEAR OUT OF RANGE
   4492					;-
   4493
   4494						.MCALL	DIR$, GTIM$S
   4495
   4496	006026				.GTDAT::
   4497	006026	013737 	000000G	000000G		MOV	.IRADX,.RDXSV	; SAVE THE CURRENT RADIX
   4498	006034	012737 	000012 	000000G		MOV	#^D10,.IRADX	; SET THE RADIX TO DECIMAL
   4499	006042					PUSH	<R5,R2,R1,R0>	; SAVE CALLER'S POINTER
	006042	010546 				 MOV	R5,-(SP)
	006044	010246 				 MOV	R2,-(SP)
	006046	010146 				 MOV	R1,-(SP)
	006050	010046 				 MOV	R0,-(SP)
   4500	006052	012701 	000552'			MOV	#.DTBUF,R1	; ....TIME BUFFER POINTER TO R1
   4501	006056					GTIM$S	R1		; ....READ CURRENT DATE AND TIME
	006056	010146 				MOV	R1,-(SP)
	006060	012746 				MOV	(PC)+,-(SP)
	006062	   073 	   002 			.BYTE	59.,2
	006064	104375 				EMT	375
   4502	006066	112120 				MOVB	(R1)+,(R0)+	; ....SET DEFAULT YEAR
   4503	006070	105721 				TSTB	(R1)+		; ....ADVANCE POINTER
   4504	006072	112120 				MOVB	(R1)+,(R0)+	; ....SET DEFAULT MONTH
   4505	006074	105721 				TSTB	(R1)+		; ....ADVANCE POINTER
   4506	006076	111120 				MOVB	(R1),(R0)+	; ....SET DEFAULT DAY
   4507	006100	010002 				MOV	R0,R2		; ....SAVE POINTER TO CALLER'S BUFFER
   4508	006102	012701 	000000G			MOV	#.CIBFR,R1	; ....BUFFER POINTER TO R1
   4509	006106	010105 				MOV	R1,R5		; ....AND R5
   4510	006110	012700 	002167'			MOV	#GTDMS0,R0	; ....PROMPT FOR DATE
   4511	006114					CALL	.TYMSF		; ....FORCE IT OUT
	006114	004737 	000000G			 JSR	PC,.TYMSF
   4512	006120					CALL	.GTLIN		; ....READ THE RESPONSE
	006120	004737 	000000G			 JSR	PC,.GTLIN
   4513	006124	001467 				BEQ	35$		; ....DEFAULT IF NULL
   4514	006126					CALL	.CKARG		; ....SEE WHAT KIND OF ARGUMENT FOLLOWS
GTTIM -- INPUT AND DISPLAY DATE	MACRO M1113  03-APR-86 22:56  PAGE 112-1
.GTDAT -- SUBROUTINE TO INPUT THE CURRENT DATE 7702.15

	006126	004737 	000000G			 JSR	PC,.CKARG
   4515	006132	001551 				BEQ	GTDIDF		; ....ILLEGAL IF ALPHABETIC
   4516	006134					PUSH	R5		; ....SAVE THE BUFFER POINTER
	006134	010546 				 MOV	R5,-(SP)
   4517	006136				10$:
   4518	006136	111504 				MOVB	(R5),R4		; .....LOOK AT ONE CHARACTER
   4519	006140	001407 				BEQ	20$		; .....DONE IF NULL
   4520	006142	122704 	000055 			CMPB	#'-,R4		; .....IS IT A <HYPHEN>?
   4521	006146	001002 				BNE	15$		; .....NO -- GO ON
   4522	006150	112715 	000040 			MOVB	#.SPACE,(R5)	; .....YES -- MAKE IT A <SPACE>
   4523	006154				15$:
   4524	006154	105725 				TSTB	(R5)+		; .....ADVANCE THE POINTER
   4525	006156	000767 				BR	10$		; .....AND LOOK FOR MORE
   4526						;
   4527	006160				20$:
   4528	006160					POP	R5		; .....RESTORE THE POINTER
	006160	012605 				 MOV	(SP)+,R5
   4529	006162	005046 				CLR	-(SP)		; ....CLEAR A BUFFER ON THE STACK
   4530	006164	005046 				CLR	-(SP)		; .....
   4531	006166	005046 				CLR	-(SP)		; ......
   4532	006170	010600 				MOV	SP,R0		; .......POINT TO THE BUFFER
   4533	006172					CALL	.GTNBR		; .......READ THE DAY
	006172	004737 	000000G			 JSR	PC,.GTNBR
   4534	006176	111042 				MOVB	(R0),-(R2)	; .......AND SET IT
   4535	006200					PUSH	R0		; .......SAVE THE POINTER
	006200	010046 				 MOV	R0,-(SP)
   4536	006202					CALL	.CKARG		; .......SEE IF ALPHABETIC FOLLOWS
	006202	004737 	000000G			 JSR	PC,.CKARG
   4537	006206	002523 				BLT	GTDIDF		; .......NUMERIC -- GIVE "IDF" ERROR
   4538	006210	012700 	000000G			MOV	#.MONTB,R0	; ........MONTH TABLE POINTER TO R0
   4539	006214					CALL	.TSCAN		; ........SCAN FOR THE MONTH
	006214	004737 	000000G			 JSR	PC,.TSCAN
   4540	006220	116042 	000002 			MOVB	2(R0),-(R2)	; ........STASH THE MONTH AWAY
   4541	006224					POP	R0		; ........RESTORE THE BUFFER POINTER
	006224	012600 				 MOV	(SP)+,R0
   4542	006226	112504 				MOVB	(R5)+,R4	; .......GET THE LAST CHARACTER
   4543	006230	132764 	000010 	000000G		BITB	#CH.EOC,.CHTAB(R4)
   4544	006236	001020 				BNE	30$		; .......EXIT IF E-O-C
   4545	006240					CALL	.TPCLR		; .......RESET THE BUFFER
	006240	004737 	000000G			 JSR	PC,.TPCLR
   4546	006244					CALL	.CKARG		; .......SEE IF NUMERIC FOLLOWS
	006244	004737 	000000G			 JSR	PC,.CKARG
   4547	006250	001502 				BEQ	GTDIDF		; .......GIVE "IDF" ERROR IF NOT
   4548	006252					CALL	.GTNBR		; .......READ THE YEAR
	006252	004737 	000000G			 JSR	PC,.GTNBR
   4549	006256	022710 	003554 			CMP	#^D1900,(R0)	; .......DID HE SAY 19XX?
   4550	006262	003003 				BGT	25$		; .......NO -- GO ON
   4551	006264	162710 	003554 			SUB	#^D1900,(R0)	; .......YES -- FIX IT UP
   4552	006270	002475 				BLT	GTDYOR		; .......ERROR -- YOR
   4553	006272				25$:
   4554	006272	111042 				MOVB	(R0),-(R2)	; .......SET THE YEAR - 1900
   4555	006274					CALL	.CKEOC		; .......MUST HAVE E-O-C
	006274	004737 	000000G			 JSR	PC,.CKEOC
   4556	006300				30$:
   4557	006300	062706 	000006 			ADD	#^D6,SP		; .......RESET THE STACK
   4558	006304				35$:
   4559	006304	011600 				MOV	(SP),R0		; ....RESTORE CALLER'S POINTER
GTTIM -- INPUT AND DISPLAY DATE	MACRO M1113  03-APR-86 22:56  PAGE 112-2
.GTDAT -- SUBROUTINE TO INPUT THE CURRENT DATE 7702.15

   4560	006306	116002 	000001 			MOVB	1(R0),R2	; ....MONTH TO R2
   4561	006312	012701 	172452 			MOV	#^C5325,R1	; ....BIT MASK TO R1
   4562	006316	122702 	000002 			CMPB	#^D2,R2		; ....IS THIS FEBRUARY?
   4563	006322	001411 				BEQ	45$		; ....YES -- DO SPECIAL CKECKS
   4564	006324	126027 	000002 	000037 		CMPB	2(R0),#^D31	; ....NO -- HOW MANY DAYS?
   4565	006332	003046 				BGT	GTDDOR		; ....GIVE "DOR" ERROR IF .GT. ^D31
   4566	006334	002414 				BLT	50$		; ....ALL OK IF .LT. ^D31
   4567	006336				40$:
   4568	006336	006201 				ASR	R1		; ....SHIFT THE BIT MASK
   4569	006340	077202 				SOB	R2,40$		; ....BY THE MONTH
   4570	006342	103011 				BCC	50$		; ....ALL OK IF CC-C IS CLEAR
   4571	006344	000441 				BR	GTDDOR		; ....OTHERWISE GIVE "DOR" ERROR
   4572						;
   4573	006346				45$:
   4574	006346	126027 	000002 	000035 		CMPB	2(R0),#^D29	; ....HATH FEBRUARY 29 DAYS?
   4575	006354	003035 				BGT	GTDDOR		; ....NEVER MORE -- GIVE "DOR" ERROR
   4576	006356	002403 				BLT	50$		; ....ALWAYS LESS -- EXIT
   4577	006360	132710 	000003 			BITB	#3,(R0)		; ....IS THIS A LEAP YEAR?
   4578	006364	001031 				BNE	GTDDOR		; ....NO -- GIVE "DOR" ERROR
   4579	006366				50$:
   4580	006366	012701 	000552'			MOV	#.DTBUF,R1	; ....POINT TO THE DATE BUFFER
   4581	006372	122021 				CMPB	(R0)+,(R1)+	; ....SEE IF YEAR IS OK
   4582	006374	002422 				BLT	GTDDBT		; ....NO -- GIVE "DBT" ERROR
   4583	006376	003007 				BGT	55$		; ....YES -- BEYOND THIS YEAR??
   4584	006400	105721 				TSTB	(R1)+		; ....NO -- ADVANCE THE POINTER
   4585	006402	122021 				CMPB	(R0)+,(R1)+	; ....IS THE MONTH OK?
   4586	006404	002416 				BLT	GTDDBT		; ....NO -- GIVE "DBT" ERROR
   4587	006406	003003 				BGT	55$		; ....YES -- BEYOND THIS YEAR??
   4588	006410	105721 				TSTB	(R1)+		; ....NO -- ADVANCE THE POINTER
   4589	006412	121011 				CMPB	(R0),(R1)	; ....IS THE DAY OK?
   4590	006414	002412 				BLT	GTDDBT		; ....NO -- GIVE "DBT" ERROR
   4591	006416				55$:
   4592	006416					POP	<R0,R1,R2,R5>	; ....YES -- RESTORE REGISTERS
	006416	012600 				 MOV	(SP)+,R0
	006420	012601 				 MOV	(SP)+,R1
	006422	012602 				 MOV	(SP)+,R2
	006424	012605 				 MOV	(SP)+,R5
   4593	006426	013737 	000000G	000000G		MOV	.RDXSV,.IRADX	; RESET THE RADIX
   4594	006434	005737 	000000G			TST	.INCHC		; LOOK AT THE CHARACTER COUNT
   4595	006440					RETURN			; EXIT
	006440	000207 				 RTS	PC
GTTIM -- INPUT AND DISPLAY DATE	MACRO M1113  03-APR-86 22:56  PAGE 113
.GTDAT -- SUBROUTINE TO INPUT THE CURRENT DATE 7702.15

   4597	006442				GTDDBT:				; +++001
   4598	006442					ERROR$	DBT		; ERROR -- DATE BEFORE TODAY
	006442	012746 	014544 			 MOV	#^RDBT,-(SP)
	006446	104400 				 TRAP	TC.ERR
   4599						;
   4600	006450				GTDDOR:				;  +++001
   4601	006450					ERROR$	DOR		; ERROR -- DATE OUT OF RANGE
	006450	012746 	015552 			 MOV	#^RDOR,-(SP)
	006454	104400 				 TRAP	TC.ERR
   4602						;
   4603	006456				GTDIDF:
   4604	006456					ERROR$	IDF		; ERROR -- ILLEGAL DATE FORMAT
	006456	012746 	034346 			 MOV	#^RIDF,-(SP)
	006462	104400 				 TRAP	TC.ERR
   4605						;
   4606	006464				GTDYOR:				;  +++001
   4607	006464					ERROR$	YOR		; ERROR -- YEAR OUT OF RANGE
	006464	012746 	117252 			 MOV	#^RYOR,-(SP)
	006470	104400 				 TRAP	TC.ERR
   4608						;
   4609
   4610	000552				.PSECT	DATA
   4611
   4612	000552				.DTBUF::
   4613	000552	000000 	000000 	000000 		.WORD	0,0,0,0,0,0,0,0
	000560	000000 	000000 	000000
	000566	000000 	000000
   4614
   4615	002167				.PSECT	MESSAG
   4616
   4617	002167				GTDMS0:
   4618	002167	   104 	   101 	   124 		.ASCIZ	%DATE: %
	002172	   105 	   072 	   040
	002175	   000
   4619
   4620	006472				.PSECT
   4621
GTTIM -- INPUT AND DISPLAY DATE	MACRO M1113  03-APR-86 22:56  PAGE 114
.GTTIM -- SUBROUTINE TO INPUT A TIME VALUE 7702.15

   4623					.SBTTL	.GTTIM -- SUBROUTINE TO INPUT A TIME VALUE 7702.15
   4624
   4625					;+
   4626					; .GTTIM -- SUBROUTINE TO INPUT A TIME VALUE
   4627					;
   4628					; THIS SUBROUTINE WILL ACCEPT A TIME VALUE FROM THE CONSOLE INPUT
   4629					; DEVICE OF THE FORMAT "HH:MM" OR "HHMM", AND RETURN IT EXPRESSED
   4630					; AS SECONDS-SINCE-MIDNIGHT / 2 (SSM).
   4631					;
   4632					; INPUT ARGUMENTS:
   4633					;
   4634					;	R0 POINTS TO THE DESTINATION FOR THE VALUE
   4635					;
   4636					; OUTPUT ARGUMENTS:
   4637					;
   4638					;	R0 POINTS TO THE TIME VALUE
   4639					;	CC-Z WILL BE SET TO INDICATE NO TIME WAS SPECIFIED (DEFAULT)
   4640					;
   4641					; ERROR CODES RETURNED:
   4642					;
   4643					;	ITF -- ILLEGAL TIME FORMAT
   4644					;	TOR -- TIME OUT OF RANGE
   4645					;-
   4646
   4647	006472				.GTTIM::
   4648	006472	013737 	000000G	000000G		MOV	.IRADX,.RDXSV	; SAVE THE CURRENT RADIX
   4649	006500	012737 	000012 	000000G		MOV	#^D10,.IRADX	; SET THE INPUT RADIX TO DECIMAL
   4650	006506					PUSH	<R5,R2,R1,R0>	; SAVE CALLER'S REGISTERS
	006506	010546 				 MOV	R5,-(SP)
	006510	010246 				 MOV	R2,-(SP)
	006512	010146 				 MOV	R1,-(SP)
	006514	010046 				 MOV	R0,-(SP)
   4651	006516	012702 	177777 			MOV	#-^D1,R2	; ....SET DEFAULT ARGUMENT
   4652	006522	012700 	002176'			MOV	#GTTMS0,R0	; ....PROMPT FOR TIME
   4653	006526					CALL	.TYMSF		; ....FORCE IT OUT
	006526	004737 	000000G			 JSR	PC,.TYMSF
   4654	006532	012701 	000000G			MOV	#.CIBFR,R1	; ....BUFFER POINTER TO R1
   4655	006536	010105 				MOV	R1,R5		; ....SET UP THE BUFFER POINTER
   4656	006540					CALL	.GTLIN		; ....READ THE INPUT
	006540	004737 	000000G			 JSR	PC,.GTLIN
   4657	006544	001514 				BEQ	30$		; ....EXIT IF NULL (DEFAULT)
   4658	006546					CALL	.CKSYM		; ....GET OVER LEADING BLANKS
	006546	004737 	000000G			 JSR	PC,.CKSYM
   4659	006552	132764 	000010 	000000G		BITB	#CH.EOC,.CHTAB(R4)
   4660	006560	001106 				BNE	30$		; ....EXIT IF E-O-C
   4661	006562					CALL	.CKARG		; ....SEE WHAT FOLLOWS
	006562	004737 	000000G			 JSR	PC,.CKARG
   4662	006566	001516 				BEQ	GTTITF		; ....ERROR IF NON-NUMERIC
   4663	006570	005046 				CLR	-(SP)		; ....CLEAR A BUFFER ON THE STACK
   4664	006572	005046 				CLR	-(SP)		; .....
   4665	006574	005046 				CLR	-(SP)		; ......
   4666	006576	010600 				MOV	SP,R0		; .......POINT TO THE BUFFER
   4667	006600					CALL	.GTNBR		; .......READ HOURS
	006600	004737 	000000G			 JSR	PC,.GTNBR
   4668	006604	122704 	000072 			CMPB	#':,R4		; .......IS NEXT CHARACTER A COLON?
   4669	006610	001437 				BEQ	10$		; .......YES -- GO READ MINUTE
   4670	006612					CALL	.CKEOC		; .......NO -- MUST HAVE E-O-C
GTTIM -- INPUT AND DISPLAY DATE	MACRO M1113  03-APR-86 22:56  PAGE 114-1
.GTTIM -- SUBROUTINE TO INPUT A TIME VALUE 7702.15

	006612	004737 	000000G			 JSR	PC,.CKEOC
   4671	006616	005046 				CLR	-(SP)		; .......SET UP A DIVISOR ON THE STACK
   4672	006620	005046 				CLR	-(SP)		; ........
   4673	006622					PUSH	#^D100		; .........SO
	006622	012746 	000144 			 MOV	#^D100,-(SP)
   4674	006626	010601 				MOV	SP,R1		; ..........POINT TO THE DIVISOR
   4675	006630					CALL	.TPDIV		; ..........DO THE DIVISION
	006630	004737 	000000G			 JSR	PC,.TPDIV
   4676	006634	022711 	000073 			CMP	#^D59,(R1)	; ..........IS THE REMAINDER .LT. ^D59?
   4677	006640	002474 				BLT	GTTTOR		; .......... +++001 NO -- GIVE "TOR" ERROR
   4678	006642					PUSH	(R1)		; ..........YES -- SAVE THE REMAINDER
	006642	011146 				 MOV	(R1),-(SP)
   4679	006644	022710 	000027 			CMP	#^D23,(R0)	; ...........IS THE HOUR OK?
   4680	006650	002470 				BLT	GTTTOR		; ........... +++001 NO -- GIVE "TOR" ERROR
   4681	006652	011000 				MOV	(R0),R0		; ...........YES -- GET IT
   4682	006654	012701 	000074 			MOV	#^D60,R1	; ...........MULTIPLIER TO R1
   4683	006660					CALL	$MUL		; ...........DO THE MULTIPLICATION
	006660	004737 	000000G			 JSR	PC,$MUL
   4684	006664	010100 				MOV	R1,R0		; ...........PRODUCT TO R0
   4685	006666	062600 				ADD	(SP)+,R0	; ...........COMPUTE SECONDS SINCE MIDNIGHT
   4686	006670	012701 	000036 			MOV	#^D30,R1	; ..........MULTIPLIER
   4687	006674					CALL	$MUL		; ..........DO IT
	006674	004737 	000000G			 JSR	PC,$MUL
   4688	006700	010102 				MOV	R1,R2		; ..........SAVE IT IN R2
   4689	006702	062706 	000006 			ADD	#^D6,SP		; ..........RESET THE STACK
   4690	006706	000431 				BR	20$		; .......AND EXIT
   4691						;
   4692	006710				10$:
   4693	006710	105725 				TSTB	(R5)+		; .......GET OVER THE COLON
   4694	006712	011000 				MOV	(R0),R0		; .......GET THE HOUR
   4695	006714	022700 	000027 			CMP	#^D23,R0	; .......IS THE HOUR OK?
   4696	006720	002444 				BLT	GTTTOR		; ....... +++001 NO -- GIVE "TOR" ERROR
   4697	006722	012701 	000074 			MOV	#^D60,R1	; .......CONVERT TO MINUTES
   4698	006726					CALL	$MUL		; .......SO
	006726	004737 	000000G			 JSR	PC,$MUL
   4699	006732	010102 				MOV	R1,R2		; .......STASH IT AWAY
   4700	006734	010600 				MOV	SP,R0		; .......RESET POINTER
   4701	006736					CALL	.TPCLR		; .......FLUSH THE BUFFER
	006736	004737 	000000G			 JSR	PC,.TPCLR
   4702	006742					CALL	.GTNBR		; .......READ THE NEXT NUMBER
	006742	004737 	000000G			 JSR	PC,.GTNBR
   4703	006746	011000 				MOV	(R0),R0		; .......GET THE MINUTES
   4704	006750	022700 	000073 			CMP	#^D59,R0	; .......IS THE MINUTE OK?
   4705	006754	002426 				BLT	GTTTOR		; ....... +++001 NO -- GIVE "TOR" ERROR
   4706	006756	060200 				ADD	R2,R0		; .......ADD THE HOUR
   4707	006760	012701 	000036 			MOV	#^D30,R1	; .......CONVERT TO SECONDS
   4708	006764					CALL	$MUL		; .......SO
	006764	004737 	000000G			 JSR	PC,$MUL
   4709	006770	010102 				MOV	R1,R2		; .......SAVE IT IN R2
   4710	006772				20$:
   4711	006772	062706 	000006 			ADD	#^D6,SP		; .......RESET THE STACK
   4712	006776				30$:
   4713	006776					POP	R0		; ....RESTORE R0
	006776	012600 				 MOV	(SP)+,R0
   4714	007000	010210 				MOV	R2,(R0)		; ...SET THE TIME
   4715	007002					POP	<R1,R2,R5>	; ...RESTORE REGISTERS
	007002	012601 				 MOV	(SP)+,R1
GTTIM -- INPUT AND DISPLAY DATE	MACRO M1113  03-APR-86 22:56  PAGE 114-2
.GTTIM -- SUBROUTINE TO INPUT A TIME VALUE 7702.15

	007004	012602 				 MOV	(SP)+,R2
	007006	012605 				 MOV	(SP)+,R5
   4716	007010	013737 	000000G	000000G		MOV	.RDXSV,.IRADX	; RESET THE RADIX
   4717	007016	005737 	000000G			TST	.INCHC		; LOOK AT THE CHARACTER COUNT
   4718	007022					RETURN			; AND EXIT
	007022	000207 				 RTS	PC
   4719	007024				GTTITF:
   4720	007024					ERROR$	ITF		; ERROR -- ILLEGAL TIME FORMAT
	007024	012746 	035546 			 MOV	#^RITF,-(SP)
	007030	104400 				 TRAP	TC.ERR
   4721						;
   4722	007032				GTTTOR:				;  +++001
   4723	007032					ERROR$	TOR		; +++001 ERROR -- TIME OUT OF RANGE
	007032	012746 	077552 			 MOV	#^RTOR,-(SP)
	007036	104400 				 TRAP	TC.ERR
   4724						;
   4725
   4726	002176				.PSECT	MESSAG
   4727
   4728	002176				GTTMS0:
   4729	002176	   124 	   111 	   115 		.ASCIZ	%TIME: %
	002201	   105 	   072 	   040
	002204	   000
   4730
   4731	007040				.PSECT
   4732
GTTIM -- INPUT AND DISPLAY DATE	MACRO M1113  03-APR-86 22:56  PAGE 115
.TYDAT -- SUBROUTINE TO TYPE A DATE 7702.16

   4734					.SBTTL	.TYDAT -- SUBROUTINE TO TYPE A DATE 7702.16
   4735
   4736					;+
   4737					; .TYDAT -- SUBROUTINE TO TYPE A DATE
   4738					;
   4739					; THIS SUBROUTINE WILL OUTPUT A DATE ON THE CONSOLE DEVICE IN THE
   4740					; FOLLOWING FORMAT: "DD-MMM-YY".
   4741					;
   4742					; INPUT ARGUMENTS:
   4743					;
   4744					;	R0 POINTS TO A THREE BYTE BLOCK CONTAINING THE DATE
   4745					;
   4746					; OUTPUT ARGUMENTS:
   4747					;
   4748					;	NONE.
   4749					; ERROR CODES RETURNED:
   4750					;
   4751					;	NONE.
   4752					;-
   4753
   4754
   4755	007040				.TYDAT::
   4756	007040					PUSH	<.ORADX,R0,R2>	; SAVE CALLER'S REGISTERS
	007040	013746 	000000G			 MOV	.ORADX,-(SP)
	007044	010046 				 MOV	R0,-(SP)
	007046	010246 				 MOV	R2,-(SP)
   4757	007050	012737 	000012 	000000G		MOV	#^D10,.ORADX	; ...SET THE RADIX TO DECIMAL
   4758	007056	010002 				MOV	R0,R2		; ...CALLER'S POINTER TO R2
   4759	007060	122222 				CMPB	(R2)+,(R2)+	; ...ADVANCE THE POINTER
   4760	007062	111200 				MOVB	(R2),R0		; ...GET THE DAY
   4761	007064					CALL	.TYELA		; ...PRINT IT
	007064	004737 	000000G			 JSR	PC,.TYELA
   4762	007070					CALL	.TYMIN		; ...AND A <DASH>
	007070	004737 	000000G			 JSR	PC,.TYMIN
   4763	007074	114200 				MOVB	-(R2),R0	; ...GET THE MONTH
   4764	007076	006300 				ASL	R0		; ...MAKE IT AN EVEN INDEX
   4765	007100	016000 	000570'			MOV	TYDMTB-2(R0),R0	; ...POINT TO THE STRING
   4766	007104					CALL	.TYMSG		; ...PRINT IT
	007104	004737 	000000G			 JSR	PC,.TYMSG
   4767	007110					CALL	.TYMIN		; ...AND A <DASH>
	007110	004737 	000000G			 JSR	PC,.TYMIN
   4768	007114	122742 	000011 			CMPB	#^D9,-(R2)	; ...'09 OR EARLIER?
   4769	007120	002404 				BLT	10$		; ...NO -- GO ON
   4770	007122	012700 	000060 			MOV	#'0,R0		; ...YES -- FORCE THE LEADING ZERO
   4771	007126					CALL	.TYCHR		; ...SO
	007126	004737 	000000G			 JSR	PC,.TYCHR
   4772	007132				10$:
   4773	007132	111200 				MOVB	(R2),R0		; ...GET THE YEAR
   4774	007134					CALL	.TYELA		; ...PRINT IT
	007134	004737 	000000G			 JSR	PC,.TYELA
   4775	007140					POP	<R2,R0,.ORADX>	; ...RESTORE THE REGISTERS
	007140	012602 				 MOV	(SP)+,R2
	007142	012600 				 MOV	(SP)+,R0
	007144	012637 	000000G			 MOV	(SP)+,.ORADX
   4776	007150					CALLR	.TYSPC		; PRINT A <SPACE> AND EXIT
	007150	000137 	000000G			 JMP	.TYSPC
   4777						;
GTTIM -- INPUT AND DISPLAY DATE	MACRO M1113  03-APR-86 22:56  PAGE 115-1
.TYDAT -- SUBROUTINE TO TYPE A DATE 7702.16

   4778
   4779	000572				.PSECT	DATA
   4780
   4781	000572				TYDMTB:
   4782	000572	000000G				.WORD	JANMSG
   4783	000574	000000G				.WORD	FEBMSG
   4784	000576	000000G				.WORD	MARMSG
   4785	000600	000000G				.WORD	APRMSG
   4786	000602	000000G				.WORD	MAYMSG
   4787	000604	000000G				.WORD	JUNMSG
   4788	000606	000000G				.WORD	JULMSG
   4789	000610	000000G				.WORD	AUGMSG
   4790	000612	000000G				.WORD	SEPMSG
   4791	000614	000000G				.WORD	OCTMSG
   4792	000616	000000G				.WORD	NOVMSG
   4793	000620	000000G				.WORD	DECMSG
   4794
   4795	007154				.PSECT
GTTIM -- INPUT AND DISPLAY DATE	MACRO M1113  03-APR-86 22:56  PAGE 116
.TYTIM -- TIME OUTPUT SUBROUTINE 7702.16

   4797					.SBTTL	.TYTIM -- TIME OUTPUT SUBROUTINE 7702.16
   4798
   4799					;+
   4800					; .TYTIM -- TIME OUTPUT SUBROUTINE
   4801					;
   4802					; THIS SUBROUTINE WILL PRINT THE TIME ON THE CONSOLE OUTPUT DEVICE
   4803					; IN THE FOLLOWING FORMAT: "HH:MM"
   4804					;
   4805					; INPUT ARGUMENTS:
   4806					;
   4807					;	R0 POINTS TO THE TIME VALUE TO BE PRINTED
   4808					;	   IN SECONDS-SINCE-MIDNIGHT FORMAT (SSM).
   4809					;
   4810					; OUTPUT ARGUMENTS:
   4811					;
   4812					;	NONE.
   4813					;
   4814					; ERROR CODES RETURNED:
   4815					;
   4816					;	NONE.
   4817					;-
   4818
   4819
   4820	007154				.TYTIM::
   4821	007154					PUSH	<.ORADX,R0,R1>	; SAVE CALLER'S REGISTERS
	007154	013746 	000000G			 MOV	.ORADX,-(SP)
	007160	010046 				 MOV	R0,-(SP)
	007162	010146 				 MOV	R1,-(SP)
   4822	007164	012737 	000012 	000000G		MOV	#^D10,.ORADX	; ...SET OUTPUT RADIX TO DECIMAL
   4823	007172	011000 				MOV	(R0),R0		; ...GET THE TIME IN SSM/2
   4824	007174	012701 	003410 			MOV	#^D1800,R1	; ...DIVISOR FOR HOURS
   4825	007200					CALL	$DIV		; ...COMPUTE THE HOURS
	007200	004737 	000000G			 JSR	PC,$DIV
   4826	007204					PUSH	R0		; ...SAVE THEM
	007204	010046 				 MOV	R0,-(SP)
   4827	007206	010100 				MOV	R1,R0		; ....REMAINDER TO R0
   4828	007210	012701 	000036 			MOV	#^D30,R1	; ....DIVISOR FOR MINUTES
   4829	007214					CALL	$DIV		; ....COMPUTE THE MINUTES
	007214	004737 	000000G			 JSR	PC,$DIV
   4830	007220	010001 				MOV	R0,R1		; ....SAVE THEM IN R1
   4831	007222	022716 	000011 			CMP	#^D9,(SP)	; ....0900 OR EARLIER?
   4832	007226	002404 				BLT	10$		; ....NO -- GO ON
   4833	007230	012700 	000060 			MOV	#'0,R0		; ....YES -- FORCE THE LEADING ZERO
   4834	007234					CALL	.TYCHR		; ....SO
	007234	004737 	000000G			 JSR	PC,.TYCHR
   4835	007240				10$:
   4836	007240					POP	R0		; ....GET THE HOUR
	007240	012600 				 MOV	(SP)+,R0
   4837	007242					CALL	.TYELA		; ...PRINT IT
	007242	004737 	000000G			 JSR	PC,.TYELA
   4838	007246					CALL	.TYCOL		; ...TYPE A <COLON>
	007246	004737 	000000G			 JSR	PC,.TYCOL
   4839	007252	022701 	000011 			CMP	#^D9,R1		; ...9 MINUTES OR EARLIER?
   4840	007256	002404 				BLT	20$		; ...NO -- GO ON
   4841	007260	012700 	000060 			MOV	#'0,R0		; ...YES -- FORCE THE LEADING ZERO
   4842	007264					CALL	.TYCHR		; ...SO
	007264	004737 	000000G			 JSR	PC,.TYCHR
GTTIM -- INPUT AND DISPLAY DATE	MACRO M1113  03-APR-86 22:56  PAGE 116-1
.TYTIM -- TIME OUTPUT SUBROUTINE 7702.16

   4843	007270				20$:
   4844	007270	010100 				MOV	R1,R0		; ...GET THE MINUTE
   4845	007272					CALL	.TYELA		; ...PRINT IT
	007272	004737 	000000G			 JSR	PC,.TYELA
   4846	007276					POP	<R1,R0,.ORADX>	; ...RESTORE THE REGISTERS
	007276	012601 				 MOV	(SP)+,R1
	007300	012600 				 MOV	(SP)+,R0
	007302	012637 	000000G			 MOV	(SP)+,.ORADX
   4847	007306					CALLR	.TYSPC		; TYPE A <SPACE> AND EXIT
	007306	000137 	000000G			 JMP	.TYSPC
   4848						;
GTTIM -- INPUT AND DISPLAY DATE	MACRO M1113  03-APR-86 22:56  PAGE 117
.TYTIM -- TIME OUTPUT SUBROUTINE 7702.16

   4850
   4851					.TITLE	HALTC -- HALT FUNCTION MODULE 7707.12
   4852
   4853						.IDENT	"005000"
   4854					;
   4855					;                             COPYRIGHT (C) 1975, 1984 BY
   4856					;                     DIGITAL EQUIPMENT CORPORATION, MAYNARD MASS.
   4857					;
   4858					;       THIS SOFTWARE IS FURNISHED UNDER A LICENSE AND MAY BE  USED  AND  COPIED
   4859					;       ONLY IN ACCORDANCE WITH THE TERMS OF SUCH LICENSE AND WITH THE INCLUSION
   4860					;       OF THE ABOVE COPYRIGHT NOTICE.  THIS SOFTWARE OR ANY OTHER COPIES THERE-
   4861					;       OF  MAY NOT BE PROVIDED OR OTHERWISE MADE AVAILABLE TO ANY OTHER PERSON.
   4862					;       NO TITLE TO OR OWNERSHIP OF THE SOFTWARE IS HEREBY TRANSFERRED.
   4863					;
   4864					;       THE INFORMATION CONTAINED IN THIS SOFTWARE IS SUBJECT TO CHANGE  WITHOUT
   4865					;       NOTICE  AND SHOULD NOT BE CONSTRUED AS A COMMITMENT BY DIGITAL EQUIPMENT
   4866					;       CORPORATION.
   4867					;
   4868					;       DIGITAL ASSUMES NO RESPONSIBILITY FOR THE  USE  OR  RELIABILITY  OF  ITS
   4869					;       SOFTWARE ON EQUIPMENT WHICH IS NOT SUPPILED BY DIGITAL.
   4870					;
   4871					;		MODULE: HALT FUNCTION
   4872					;
   4873					;		VERSION: 03-06
   4874					;
   4875					;		AUTHOR: R. BELANGER
   4876					;
   4877					;		DATE: 7707.12
   4878					;
   4879					;	THIS MODULE CONTAINS:
   4880					;
   4881					;	1) HALT FUNCTION CODE
HALTC -- HALT FUNCTION MODULE 7	MACRO M1113  03-APR-86 22:56  PAGE 118
.HALTC -- THE "HALT" COMMAND 7710.11

   4883					.SBTTL	.HALTC -- THE "HALT" COMMAND 7710.11
   4884
   4885					;+
   4886					; .HALTC -- THE "HALT" COMMAND
   4887					;
   4888					; THIS ROUTINE HALTS THE KL WITH THE CLOCK RUNNING. (EXAMINE
   4889					; AND DEPOSIT ARE STILL SUPPORTED).
   4890					;
   4891					; INPUT ARGUMENTS:
   4892					;
   4893					;	NONE.
   4894					;
   4895					; OUTPUT ARGUMENTS:
   4896					;
   4897					;	NONE.
   4898					;
   4899					; ERROR CODES RETURNED:
   4900					;
   4901					;	ILS -- ILLEGAL SEPARATOR CHARACTER.
   4902					;-
   4903
   4904	007312				.HALTC::
   4905	007312					CALL	.CKEOC		; CHECK E-O-C
	007312	004737 	000000G			 JSR	PC,.CKEOC
   4906	007316					CALL	.KLSTP		; HALT THE KL AND RETURN
	007316	004737 	000000G			 JSR	PC,.KLSTP
   4907	007322					CALLR	KLPSTP		; [**]
	007322	000137 	000000G			 JMP	KLPSTP
   4908						;
HALTC -- HALT FUNCTION MODULE 7	MACRO M1113  03-APR-86 22:56  PAGE 119
.HALTC -- THE "HALT" COMMAND 7710.11

   4910
   4911					.TITLE	INITC -- INITIALIZE COMMAND MODULE 7602.16
   4912
   4913						.IDENT	"006110"
   4914
   4915					;
   4916					;                             COPYRIGHT (C) 1975, 1984, 1985 BY
   4917					;                     DIGITAL EQUIPMENT CORPORATION, MAYNARD MASS.
   4918					;			ALL RIGHTS RESERVED.
   4919					;       THIS SOFTWARE IS FURNISHED UNDER A LICENSE AND MAY BE  USED  AND  COPIED
   4920					;       ONLY IN ACCORDANCE WITH THE TERMS OF SUCH LICENSE AND WITH THE INCLUSION
   4921					;       OF THE ABOVE COPYRIGHT NOTICE.  THIS SOFTWARE OR ANY OTHER COPIES THERE-
   4922					;       OF  MAY NOT BE PROVIDED OR OTHERWISE MADE AVAILABLE TO ANY OTHER PERSON.
   4923					;       NO TITLE TO OR OWNERSHIP OF THE SOFTWARE IS HEREBY TRANSFERRED.
   4924					;
   4925					;       THE INFORMATION CONTAINED IN THIS SOFTWARE IS SUBJECT TO CHANGE  WITHOUT
   4926					;       NOTICE  AND SHOULD NOT BE CONSTRUED AS A COMMITMENT BY DIGITAL EQUIPMENT
   4927					;       CORPORATION.
   4928					;
   4929					;       DIGITAL ASSUMES NO RESPONSIBILITY FOR THE  USE  OR  RELIABILITY  OF  ITS
   4930					;       SOFTWARE ON EQUIPMENT WHICH IS NOT SUPPILED BY DIGITAL.
   4931					;
   4932					;		MODULE: INITIALIZE COMMAND
   4933					;
   4934					;		VERSION: 06-11
   4935					;
   4936					;		AUTHOR: R. BELANGER
   4937					;
   4938					;		DATE: 7602.16
   4939					;
   4940					;	THIS MODULE CONTAINS:
   4941					;
   4942					;	1) INITIALIZE COMMAND CODE
   4943					;
   4944					;	MODIFIED BY A. PECKHAM 7612.10 TO DELETE REFERENCES TO .SECFL
   4945
   4946						.MCALL	ALUN$,CLEF$S,DIR$,SETF$S,SVTK$S
INITC -- INITIALIZE COMMAND MOD	MACRO M1113  03-APR-86 22:56  PAGE 120
.INITC -- THE "INITIALIZE" COMMAND 7602.16

   4948					.SBTTL	.INITC -- THE "INITIALIZE" COMMAND 7602.16
   4949
   4950					;+
   4951					; .INITC -- THE "INITIALIZE" COMMAND
   4952					;
   4953					; THIS ROUTINE (RE)INITIALIZES THE COMMAND PARSER
   4954					;
   4955					; INPUT ARGUMENTS:
   4956					;
   4957					;	NONE.
   4958					;
   4959					; OUTPUT ARGUMENTS:
   4960					;
   4961					;	".KLFLG" IS SET UP
   4962					;
   4963					; ERROR CODES RETURNED:
   4964					;
   4965					;	NONE.
   4966					;-
   4967
   4968	007326				.INITC::
   4969	007326					CALL	.CKEOC		; CHECK FOR E-O-C
	007326	004737 	000000G			 JSR	PC,.CKEOC
   4970	007332				.INIC0::
   4971	007332	000414 				BR	.INKLF		; INIT THE PARSER AND RETURN
   4972						;
INITC -- INITIALIZE COMMAND MOD	MACRO M1113  03-APR-86 22:56  PAGE 121
.INIT  -- INITIALIZATION SUBROUTINE 7509.26

   4974					.SBTTL	.INIT  -- INITIALIZATION SUBROUTINE 7509.26
   4975
   4976					;+
   4977					; .INIT -- SUBROUTINE TO INITIALIZE THE COMMAND PARSER.
   4978					;
   4979					; THIS SUBROUTINE CLEARS INTERNAL BUFFERS AND INITIALIZES
   4980					; THE FOLLOWING REGISTERS:
   4981					;
   4982					;	(A) ".KLFLG" -- THE KL STATUS FLAG WORD,
   4983					;	(B) ".CLKWD" -- THE KL CLOCK STATUS WORD,
   4984					;	(C) ".PSCWD" -- THE KL PARITY CONTROL WORD.
   4985					;
   4986					; INPUT ARGUMENTS:
   4987					;
   4988					;	NONE.
   4989					;
   4990					; OUTPUT ARGUMENTS:
   4991					;
   4992					;	".KLFLG" IS SET UP
   4993					;
   4994					; ERROR CODES RETURNED:
   4995					;
   4996					;	CES -- KL CLOCK ERROR STOP.
   4997					;	CFH -- CAN'T FIND KL HALT LOOP.
   4998					;	DSF -- DTE-20 STATUS FAILURE.
   4999					;	FRF -- FUNCTION READ FAILED.
   5000					;	FWF -- FUNCTION WRITE FAILED.
   5001					;-
   5002
   5003	007334				.INIT::
   5004	007334					PUSH	R0		; SAVE R0
	007334	010046 				 MOV	R0,-(SP)
   5005	007336	000257 				CCC			; .CLEAR N, Z, V, C BITS
   5006	007340	012700 	000000G			MOV	#.DFBLK,R0	; .CLEAR THE DF BUFFERS
   5007	007344				10$:
   5008	007344	005020 				CLR	(R0)+		; .CLEAR A WORD
   5009	007346	020027 	000000G			CMP	R0,#DFBEND	; .ARE WE DONE?
   5010	007352	103774 				BLO	10$		; .NO -- KEEP GOING
   5011	007354	012737 	000200 	000000G		MOV	#KF.DEF,.KLFLG	; .YES -- INIT ".KLFLG"
   5012	007362					POP	R0		; .RESTORE R0
	007362	012600 				 MOV	(SP)+,R0
   5013
   5014					;	[CONTINUED ON THE FOLLOWING PAGE]
INITC -- INITIALIZE COMMAND MOD	MACRO M1113  03-APR-86 22:56  PAGE 122
.INKLF -- SUBROUTINE TO SET UP KL STATE WORD 7601.09

   5016					.SBTTL	.INKLF -- SUBROUTINE TO SET UP KL STATE WORD 7601.09
   5017
   5018					;+
   5019					; .INKLF -- SUBROUTINE TO SET UP THE KL STATE FLAG WORD, ".KLFLG".
   5020					;
   5021					; THIS SUBROUTINE SETS UP THE STATE OF THE FOLLOWING
   5022					; FLAG BITS IN THE KL STATE FLAG WORD, ".KLFLG":
   5023					;
   5024					;	(A) "KF.CLK" -- KL CLOCK RUNNING FLAG,
   5025					;	(B) "KF.RUN" -- KL RUN FLOP SET FLAG,
   5026					;	(C) "KF.KLO" -- KL OPCODE ENABLED FLAG.
   5027					;
   5028					; .INKLF MAY BE CALLED DIRECTLY AS DESCRIBED IN THE CALLING SEQUENCE,
   5029					; OR BY ".INIT" WHICH FALLS INTO ".INKLF".
   5030					;
   5031					; INPUT ARGUMENTS:
   5032					;
   5033					;	NONE.
   5034					;
   5035					; OUTPUT ARGUMENTS:
   5036					;
   5037					;	".KLFLG" IS SET UP.
   5038					;
   5039					; ERROR CODES RETURNED:
   5040					;
   5041					;	CES -- KL CLOCK ERROR STOP.
   5042					;	CFH -- CAN'T FIND KL HALT LOOP.
   5043					;	DSF -- DTE-20 STATUS FAILURE.
   5044					;	DTC -- DTE-20 CONFUSED.
   5045					;	FRF -- FUNCTION READ FAILED.
   5046					;	FWF -- FUNCTION WRITE FAILED.
   5047					;-
INITC -- INITIALIZE COMMAND MOD	MACRO M1113  03-APR-86 22:56  PAGE 123
.INKLF -- SUBROUTINE TO SET UP KL STATE WORD 7601.09

   5049	007364				.INKLF::
   5050	007364					SETF$S	#E.FHTO		; SET THE HALT TIMEOUT EVENT FLAG
	007364	012746 	000001 			MOV	#E.FHTO,-(SP)
	007370	012746 				MOV	(PC)+,-(SP)
	007372	   041 	   002 			.BYTE	33.,2
	007374	104375 				EMT	375
   5051	007376	103461 				BCS	60$		; ERROR IF CC-C IS SET
   5053	007400	005737 	000000G			TST	.KLERQ		; [5.1006]KL CRASH?
   5054	007404	001055 				BNE	50$		; [5.1006]YES -- EXIT
   5056	007406					PUSH	<R0,R1,R2,R3>	; NO -- SAVE CALLER'S REGISTERS
	007406	010046 				 MOV	R0,-(SP)
	007410	010146 				 MOV	R1,-(SP)
	007412	010246 				 MOV	R2,-(SP)
	007414	010346 				 MOV	R3,-(SP)
   5057	007416					CALL	.DTSTA		; ....READ THE DTE-20 STATUS REGISTER
	007416	004737 	000000G			 JSR	PC,.DTSTA
   5058	007422	032700 	000010 			BIT	#ST.MOD,R0	; ....IS THE DTE-20 PRIVILEGED?
   5060	007426	001047 				BNE	INIDNP		; ....UGH, BLETCH -- NO
   5062	007430					CALL	.CESCK		; ....YES -- SEE IF CLOCK ERROR STOP IS UP
	007430	004737 	000000G			 JSR	PC,.CESCK
   5063	007434	012702 	000000G			MOV	#.KLFLG,R2	; ....FLAG POINTER TO R2
   5064	007440	042712 	140000 			BIC	#KF.CLK!KF.RUN,(R2)
   5065									; ....CLEAR THE CLOCK AND RUNNING FLAGS
   5066	007444	005037 	000000G			CLR	.EDKLX		; ....RESET THE ADDRESS TO ZERO
   5067	007450	005037 	000002G			CLR	.EDKLX+2	; ....
   5068	007454	012700 	000200 			MOV	#ED.PHY,R0	; ....PHYSICAL REFERENCE
   5069	007460	012701 	000622'			MOV	#.INEXT,R1	; ....POINT TO DATA BLOCK
   5070	007464					CALL	.EXKLM		; ....EXAMINE KL MEMORY
	007464	004737 	000000G			 JSR	PC,.EXKLM
   5071	007470	052712 	100600 			BIS	#KF.CON!KF.KLO!KF.CLK,(R2) ;*
   5072									; ....SET THE CLOCK RUNNING FLAG
   5073	007474	012703 	000144 			MOV	#^D100,R3	; ....LOOP COUNT TO R3
   5074	007500				10$:
   5075	007500					CALL	.DTDW1		; ....READ DIAG WORD 1
	007500	004737 	000000G			 JSR	PC,.DTDW1
   5076	007504	032700 	002000 			BIT	#D1.RUN,R0	; ....IS RUN ON?
   5080	007510	001002 				BNE	20$		; ....YES -- GO ON
   5081	007512	077306 				SOB	R3,10$		; ....NO -- LOOP TILL COUNT EXHAUSTED
   5082	007514	000405 				BR	30$		; ....CAN'T FIND IT, GIVE UP
   5083						;
   5084
   5085					;	[CONTINUED ON THE FOLLOWING PAGE]
INITC -- INITIALIZE COMMAND MOD	MACRO M1113  03-APR-86 22:56  PAGE 124
.INKLF -- SUBROUTINE TO SET UP KL STATE WORD 7601.09

   5087					;	[CONTINUED FROM THE PREVIOUS PAGE]
   5088
   5089	007516				20$:
   5090	007516	032700 	001000 			BIT	#D1.HLP,R0	; ....IS THE HALT LOOP THERE TOO?
   5092	007522	001014 				BNE	INIDTC		; ....YES -- GIVE "DTC" ERROR
   5094	007524	052712 	040000 			BIS	#KF.RUN,(R2)	; ....NO -- FOUND IT OK, SET THE FLAG
   5095	007530				30$:
   5109	007530					POP	<R3,R2,R1,R0>	; ....RESTORE CALLER'S REGISTERS
	007530	012603 				 MOV	(SP)+,R3
	007532	012602 				 MOV	(SP)+,R2
	007534	012601 				 MOV	(SP)+,R1
	007536	012600 				 MOV	(SP)+,R0
   5110	007540				50$:	RETURN			; TO CALLER
	007540	000207 				 RTS	PC
   5111	007542				60$:
   5112	007542	000137 	000000G			JMP	.EXITP		; ERROR EXIT
   5113						;
   5114	007546				INIDNP:
   5115	007546					ERROR$	DNP		; ERROR -- DTE-20 NOT PRIVILEGED
	007546	012746 	015500 			 MOV	#^RDNP,-(SP)
	007552	104400 				 TRAP	TC.ERR
   5116						;
   5117	007554				INIDTC:
   5118	007554					ERROR$	DTC		; ERROR --DTE-20 CONFUSED
	007554	012746 	016043 			 MOV	#^RDTC,-(SP)
	007560	104400 				 TRAP	TC.ERR
   5119						;
   5120
   5121	000622				.PSECT	DATA
   5122
   5123	000622				.INEXT:
   5124	000622	000000G				.WORD	.EDKLX		; ADDRESS 0
   5125	000624	000000G				.WORD	.EXBFR		; PLACE FOR DATA
   5126
   5127	007562				.PSECT
INITC -- INITIALIZE COMMAND MOD	MACRO M1113  03-APR-86 22:56  PAGE 125
.INICP -- INITIALIZE THE COMMAND PARSER 7601.21

   5129					.SBTTL	.INICP -- INITIALIZE THE COMMAND PARSER 7601.21
   5130
   5131					;+
   5132					; .INICP -- ROUTINE TO INTIALIZE THE COMMAND PARSER.
   5133					;
   5134					; THIS SUBROUTINE WILL INITIALIZE THE RSX20F INTERFACE TO THE COMMAND
   5135					; PARSER. THE CONSOLE INPUT AND OUTPUT DEVICES ARE ASSIGNED AND ATTACHED,
   5136					; THE SST TRAPS ARE ENABLED, AND THE EVENT FLAGS ARE CLEARED.
   5137					;
   5138					; INPUT ARGUMENTS:
   5139					;
   5140					;	NONE.
   5141					;
   5142					; OUTPUT ARGUMENTS:
   5143					;
   5144					;	NONE.
   5145					;
   5146					; ERROR CODES RETURNED:
   5147					;
   5148					;	IF THE SST VECTORS CANNOT BE INITIALIZED THE PARSER EXITS.
   5149					;	IF THE CONSOLE OUTPUT DEVICE CANNOT BE ASSIGNED, THE PARSER EXITS.
   5150					;	IF THE CONSOLE OUTPUT DEVICE CANNOT BE ASSIGNED, THE PARSER EXITS.
   5151					;	IF THE CONSOLE DEVICE CANNOT BE ATTACHED, THE PARSER EXITS.
   5152					;-
   5153
   5154	007562				.INICP::
   5155	007562	010637 	000000G			MOV	SP,.SVESP	; INIT THE STACK POINTER
   5156	007566	005005 				CLR	R5		; CLEAR THE GPR'S
   5157	007570	005004 				CLR	R4
   5158	007572	005003 				CLR	R3
   5159	007574	005002 				CLR	R2
   5160	007576	005001 				CLR	R1
   5161	007600	005000 				CLR	R0
   5162	007602					SVTK$S	#.SSTTB,#SSTLEN	; INIT SST'S
	007602	012746 	000000G			MOV	#SSTLEN,-(SP)
	007606	012746 	000000G			MOV	#.SSTTB,-(SP)
	007612	012746 				MOV	(PC)+,-(SP)
	007614	   071 	   003 			.BYTE	57.,3
	007616	104375 				EMT	375
   5163	007620	103452 				BCS	10$		; DIE IF WE CAN'T DO THAT MUCH
   5164	007622					DIR$	#.ASCOD		; ASSIGN THE CONSOLE OUTPUT DEVICE
	007622	012746 	000026'			MOV	#.ASCOD,-(SP)
	007626	104375 				EMT	375
   5165	007630	103446 				BCS	10$		; DIE IF WE CAN'T DO THAT, EITHER
   5166	007632					DIR$	#.ASCID		; ASSIGN THE CONSOLE INPUT DEVICE
	007632	012746 	000016'			MOV	#.ASCID,-(SP)
	007636	104375 				EMT	375
   5167	007640	103442 				BCS	10$		; GIVE ERROR TRAP IF CC-C IS SET
   5168	007642					DIR$	#.ASLST		; [5.1000]ASSIGN LP DEVICE
	007642	012746 	000036'			MOV	#.ASLST,-(SP)
	007646	104375 				EMT	375
   5169
   5170					;	[CONTINUED ON THE FOLLOWING PAGE]
INITC -- INITIALIZE COMMAND MOD	MACRO M1113  03-APR-86 22:56  PAGE 126
.INICP -- INITIALIZE THE COMMAND PARSER 7601.21

   5172					; 	[CONTINUED FROM THE PREVIOUS PAGE]
   5173
   5174	007650					CLEF$S	#E.FCTC		; CLEAR CONTROL-C EVENT FLAG
	007650	012746 	000000G			MOV	#E.FCTC,-(SP)
	007654	012746 				MOV	(PC)+,-(SP)
	007656	   037 	   002 			.BYTE	31.,2
	007660	104375 				EMT	375
   5175	007662					CLEF$S	#E.FHTO		; CLEAR HALT TIMEOUT EVENT FLAG
	007662	012746 	000001 			MOV	#E.FHTO,-(SP)
	007666	012746 				MOV	(PC)+,-(SP)
	007670	   037 	   002 			.BYTE	31.,2
	007672	104375 				EMT	375
   5176	007674					CLEF$S	#E.FCID		; CLEAR CONSOLE INPUT DONE EVENT FLAG
	007674	012746 	000002 			MOV	#E.FCID,-(SP)
	007700	012746 				MOV	(PC)+,-(SP)
	007702	   037 	   002 			.BYTE	31.,2
	007704	104375 				EMT	375
   5177	007706					SETF$S	#E.FCOD		; SET CONSOLE OUTPUT DONE EVENT FLAG
	007706	012746 	000003 			MOV	#E.FCOD,-(SP)
	007712	012746 				MOV	(PC)+,-(SP)
	007714	   041 	   002 			.BYTE	33.,2
	007716	104375 				EMT	375
   5179	007720					SETF$S	#E.FLOD		; SET LIST DEVICE OUTPUT DONE EVENT FLAG
	007720	012746 	000005 			MOV	#E.FLOD,-(SP)
	007724	012746 				MOV	(PC)+,-(SP)
	007726	   041 	   002 			.BYTE	33.,2
	007730	104375 				EMT	375
   5181	007732					CALL	.TCRLF		; INIT CONSOLE
	007732	004737 	000000G			 JSR	PC,.TCRLF
   5182	007736					CALL	.INIC0		; INIT ".KLFLG"
	007736	004737 	007332'			 JSR	PC,.INIC0
   5183	007742	000177 	000000G			JMP	@.STRTV		; START THE PARSER
   5184						;
   5185	007746				10$:
   5186	007746					CALLR	.EXITP		; EXIT GRACEFULLY
	007746	000137 	000000G			 JMP	.EXITP
   5187						;
INITC -- INITIALIZE COMMAND MOD	MACRO M1113  03-APR-86 22:56  PAGE 127
.INICP -- INITIALIZE THE COMMAND PARSER 7601.21

   5189					; ASSIGN CONSOLE INPUT DEVICE
   5190
   5191	000016				.PSECT	DPBS
   5192
   5193	000016				.ASCID::
   5197	000016					ALUN$	CIDLUN,TT,0
	000016	   007 	   004 			.BYTE	7,4
	000020	000001 				.WORD	CIDLUN
	000022	   124 				.ASCII	/T/
	000023	   124 				.ASCII	/T/
	000024	000000 				.WORD	0
   5199
   5200					; ASSIGN CONSOLE OUTPUT DEVICE
   5201
   5202	000026				.ASCOD::
   5206	000026					ALUN$	CODLUN,TT,0
	000026	   007 	   004 			.BYTE	7,4
	000030	000002 				.WORD	CODLUN
	000032	   124 				.ASCII	/T/
	000033	   124 				.ASCII	/T/
	000034	000000 				.WORD	0
   5208
   5209					; ASSIGN LINEPRINTER DEVICE
   5210
   5211	000036				.ASLST::
   5212	000036					ALUN$	LSTLUN,LP,0
	000036	   007 	   004 			.BYTE	7,4
	000040	000003 				.WORD	LSTLUN
	000042	   114 				.ASCII	/L/
	000043	   120 				.ASCII	/P/
	000044	000000 				.WORD	0
   5213
   5214	007752				.PSECT
INITC -- INITIALIZE COMMAND MOD	MACRO M1113  03-APR-86 22:56  PAGE 129
.INICP -- INITIALIZE THE COMMAND PARSER 7601.21

   5217
   5218					.TITLE	KLEDEF -- KLERR SNAPSHOT DEFAULT COMMANDS
   5219
   5220						.IDENT	"007030"
   5221
   5222					;
   5223					;                             COPYRIGHT (C) 1979, 1984, 1985 BY
   5224					;                     DIGITAL EQUIPMENT CORPORATION, MAYNARD MASS.
   5225					;			ALL RIGHTS RESERVED.
   5226					;       THIS SOFTWARE IS FURNISHED UNDER A LICENSE AND MAY BE  USED  AND  COPIED
   5227					;       ONLY IN ACCORDANCE WITH THE TERMS OF SUCH LICENSE AND WITH THE INCLUSION
   5228					;       OF THE ABOVE COPYRIGHT NOTICE.  THIS SOFTWARE OR ANY OTHER COPIES THERE-
   5229					;       OF  MAY NOT BE PROVIDED OR OTHERWISE MADE AVAILABLE TO ANY OTHER PERSON.
   5230					;       NO TITLE TO OR OWNERSHIP OF THE SOFTWARE IS HEREBY TRANSFERRED.
   5231					;
   5232					;       THE INFORMATION CONTAINED IN THIS SOFTWARE IS SUBJECT TO CHANGE  WITHOUT
   5233					;       NOTICE  AND SHOULD NOT BE CONSTRUED AS A COMMITMENT BY DIGITAL EQUIPMENT
   5234					;       CORPORATION.
   5235					;
   5236					;       DIGITAL ASSUMES NO RESPONSIBILITY FOR THE  USE  OR  RELIABILITY  OF  ITS
   5237					;       SOFTWARE ON EQUIPMENT WHICH IS NOT SUPPILED BY DIGITAL.
   5238					;
   5239					;		MODULE: KLERR DEFAULT COMMANDS
   5240					;
   5241					;		VERSION: 07-03
   5242					;
   5243					;		AUTHOR: K. LEFEBVRE
   5244					;
   5245					;		DATE: 12-DEC-79
   5246					;
   5247					;		EDIT HISTORY
   5248					;
   5249					; SL9160  16-SEP-80	S. LEAPLINE	DON'T DO TAKE IF KL HALTED
   5250					;
   5251					;09-JUN-83  TCO 6.1675	D. WEAVER
   5252					;	TAKE .CMD FILES BASED ON KL ERROR CODE.
   5253					;
   5254					.MACRO	DEFCMD	NUM,COMMAND
   5255
   5256					.PSECT	DATA
   5257						.WORD	CMD'NUM
   5258
   5259					.PSECT	MESSAG
   5260					CMD'NUM:.ASCIZ	%COMMAND%
   5261
   5262					.PSECT	DATA
   5263
   5264					.ENDM	DEFCMD
KLEDEF -- KLERR SNAPSHOT DEFAUL	MACRO M1113  03-APR-86 22:56  PAGE 130
.KLE -- ROUTINE TO RETURN DEFAULT KLERR COMMANDS

   5266					.SBTTL	.KLE -- ROUTINE TO RETURN DEFAULT KLERR COMMANDS
   5267
   5268					;+
   5269					; .KLE -- ROUTINE TO RETURN DEFAULT KLERR SNAPSHOT COMMANDS
   5270					;
   5271					; THIS ROUTINE CONTAINS BUILT INTO IT THE DEFAULT KLERR SNAPSHOT
   5272					; COMMANDS THAT ARE EXECUTED ANYTIME THE KL CRASHES. THEY ARE
   5273					; ASSEMBLED IN TO MAKE IT DIFFICULT FOR SITES TO MODIFY THEM AND
   5274					; CORRUPT THE SNAPSHOT.
   5275					;
   5276					;		THIS ROUTINE ADDED FOR TCO 4.1.1049
   5277					;
   5278					; INPUT ARGUMENTS:
   5279					;
   5280					;	NONE
   5281					;
   5282					; OUTPUT ARGUMENTS:
   5283					;
   5284					;	NONE
   5285					;
   5286					; ERROR CODES RETURNED:
   5287					;
   5288					;	NONE
   5289					;-
   5290
   5292	007752				.KLE::
   5293	007752					PUSH	<R1,R0>		; SAVE REGISTERS
	007752	010146 				 MOV	R1,-(SP)
	007754	010046 				 MOV	R0,-(SP)
   5294	007756	105737 	000000G			TSTB	.KLEVL		; POINTER VALID FLAG (FOR OVERLAY)
   5295	007762	001075 				BNE	30$		; YES -- WE MUST BE DONE
   5296	007764	122737 	000000G	000000G		CMPB	#ERRCES,.ERRCD	; CLOCK ERROR STOP?
   5297	007772	001042 				BNE	6$		; NO, KEEP GOING
   5298	007774	012701 	000626'			MOV	#FRDBUF,R1	; SET UP BUFFER FOR FUNCTION READS
   5299	010000	012700 	000206 			MOV	#FR.103,R0	; CHECK FOR DRAM PARITY ERROR
   5300	010004					CALL	.FREAD		; EXECUTE FUNCTION READ
	010004	004737 	000000G			 JSR	PC,.FREAD
   5301	010010	032711 	000040 			BIT	#40,(R1)	; SET?
   5302	010014	001404 				BEQ	2$		; NO, CHECK CRAM
   5303	010016	012737 	000000G	000000G		MOV	#ERRDPE,.ERRCD	; YES, SAY DRAM ERROR
   5304	010024	000425 				BR	6$		; GO EXECUTE CMD FILE
   5305	010026	012700 	000210 		2$:	MOV	#FR.104,R0	; CHECK FOR CRAM PARITY ERROR
   5306	010032					CALL	.FREAD		; EXECUTE FUNCTION READ
	010032	004737 	000000G			 JSR	PC,.FREAD
   5307	010036	032711 	000040 			BIT	#40,(R1)	; SET?
   5308	010042	001404 				BEQ	4$		; NO, CHECK FOR FAST MEMORY PARITY
   5309	010044	012737 	000000G	000000G		MOV	#ERRCPE,.ERRCD	; YES, SAY CRAM ERROR
   5310	010052	001412 			    	BEQ	6$		; GO EXECUTE CMD FILE
   5311	010054	012700 	000212 		4$:	MOV	#FR.105,R0	; CHECK FOR FM PARITY ERROR
   5312	010060					CALL	.FREAD		; EXECUTE FUNCTION READ
	010060	004737 	000000G			 JSR	PC,.FREAD
   5313	010064	032711 	000040 			BIT	#40,(R1)	; SET?
   5314	010070	001403 				BEQ	6$		; NO, MUST BE F-S PROBE
   5315	010072	012737 	000000G	000000G		MOV	#ERRFME,.ERRCD	; YES, SET THE ERROR CODE
   5316	010100	012701 	000000G		6$:	MOV	#.CIBFR,R1	; INPUT BUFFER POINTER
   5317	010104	012737 	000634'	000000G	 	MOV	#KLETAB,.KLEPT	; SET POINTER
   5318	010112	105237 	000000G			INCB	.KLEVL		; SET POINTER VALID
KLEDEF -- KLERR SNAPSHOT DEFAUL	MACRO M1113  03-APR-86 22:56  PAGE 130-1
.KLE -- ROUTINE TO RETURN DEFAULT KLERR COMMANDS

   5319	010116	013700 	000000G			MOV	.ERRCD,R0	; GET ERROR CODE
   5320	010122	006300 				ASL	R0		; SHIFT IT ONE POSITION
   5321	010124	062700 	000632'			ADD	#KLETAB-2,R0	; POINT TO APPROPRIATE "TAKE" COMMAND
   5322	010130	011000 				MOV	(R0),R0		; GET COMMAND ADDRESS
   5323	010132	112021 			10$:	MOVB	(R0)+,(R1)+	; MOVE COMMAND TO INPUT BUFFER
   5324	010134	001376 				BNE	10$		; DONE?
   5325	010136	005301 				DEC	R1		; YES -- REMOVE LAST NULL
   5326	010140	162701 	000000G			SUB	#.CIBFR,R1	; GET COMMAND LENGTH
   5327	010144	010137 	000002G			MOV	R1,.CISTS+2	; SAVE LENGTH
   5328	010150				20$:	POP	<R0,R1>		; RESTORE REGISTERS
	010150	012600 				 MOV	(SP)+,R0
	010152	012601 				 MOV	(SP)+,R1
   5329	010154					RETURN			; EXIT
	010154	000207 				 RTS	PC
   5330	010156	005037 	000000G		30$:	CLR	.KLEDF		; CLEAR DEFAULT COMMAND FLAG
   5331	010162	012700 	002205'			MOV	#EOSMSG,R0	; END-OF-SNAPSHOT MESSAGE PTR
   5332	010166					CALL	.TYMSG		; TYPE IT
	010166	004737 	000000G			 JSR	PC,.TYMSG
   5333	010172	005037 	000002G			CLR	.CISTS+2	; CLEAR COMMAND LENGTH
   5334	010176	105737 	000000G			TSTB	.KLSNP		; SNAPSHOT COMMAND IN PROGRESS?
   5335	010202	001404 				BEQ	40$		; NO -- GO ON
   5336	010204	005037 	000000G			CLR	.KLERQ		; YES -- CLEAR SNAPSHOT FLAG
   5337	010210	105037 	000000G			CLRB	.KLSNP		; SAY SNAPSHOT COMMAND DONE
   5338	010214	032737 	000000G	000000G	40$:	BIT	#KL.REQ,.KLIWD	; KLI REQUESTED
   5339	010222	001752 				BEQ	20$		; NO -- GET INPUT FROM CTY
   5340	010224					CALL	.TCRLF		; YES -- OUTPUT EOS
	010224	004737 	000000G			 JSR	PC,.TCRLF
   5341	010230					CALLR	.EXITP		; EXIT TO KLI
	010230	000137 	000000G			 JMP	.EXITP
   5342
   5343	002205				.PSECT	MESSAG
   5344
   5345	002205				EOSMSG:
   5346	002205	   040 	   074 	   105 		.ASCIZ	% <END OF SNAPSHOT> %
	002210	   116 	   104 	   040
	002213	   117 	   106 	   040
	002216	   123 	   116 	   101
	002221	   120 	   123 	   110
	002224	   117 	   124 	   076
	002227	   040 	   000
   5347
   5348	000626				.PSECT	DATA
   5349
   5350	000626				FRDBUF::
   5351	000626	000000 	000000 	000000 		.WORD	0,0,0			;BUFFER FOR FUNCTION READS
   5352
   5353					;TABLE FOR .CMD FILES TO EXECUTE BASED ON ERROR CONDITION
   5354	000634				KLETAB::
   5355	000634					DEFCMD	K1,<TAKE CLOCK>
	000634	002231'				.WORD	CMDK1
	002231	   124 	   101 	   113 	CMDK1:.ASCIZ	%TAKE CLOCK%
	002234	   105 	   040 	   103
	002237	   114 	   117 	   103
	002242	   113 	   000
   5356	000636					DEFCMD	K2,<TAKE EBUS>
	000636	002244'				.WORD	CMDK2
	002244	   124 	   101 	   113 	CMDK2:.ASCIZ	%TAKE EBUS%
KLEDEF -- KLERR SNAPSHOT DEFAUL	MACRO M1113  03-APR-86 22:56  PAGE 130-2
.KLE -- ROUTINE TO RETURN DEFAULT KLERR COMMANDS

	002247	   105 	   040 	   105
	002252	   102 	   125 	   123
	002255	   000
   5357	000640					DEFCMD	K3,<TAKE DEX>
	000640	002256'				.WORD	CMDK3
	002256	   124 	   101 	   113 	CMDK3:.ASCIZ	%TAKE DEX%
	002261	   105 	   040 	   104
	002264	   105 	   130 	   000
   5358	000642					DEFCMD	K4,<TAKE KPALV>
	000642	002267'				.WORD	CMDK4
	002267	   124 	   101 	   113 	CMDK4:.ASCIZ	%TAKE KPALV%
	002272	   105 	   040 	   113
	002275	   120 	   101 	   114
	002300	   126 	   000
   5359	000644				  	DEFCMD	K5,<TAKE TIMEO>
	000644	002302'				.WORD	CMDK5
	002302	   124 	   101 	   113 	CMDK5:.ASCIZ	%TAKE TIMEO%
	002305	   105 	   040 	   124
	002310	   111 	   115 	   105
	002313	   117 	   000
   5360	000646					DEFCMD	K6,<TAKE FMPAR>
	000646	002315'				.WORD	CMDK6
	002315	   124 	   101 	   113 	CMDK6:.ASCIZ	%TAKE FMPAR%
	002320	   105 	   040 	   106
	002323	   115 	   120 	   101
	002326	   122 	   000
   5361	000650					DEFCMD	K7,<TAKE CRAM>
	000650	002330'				.WORD	CMDK7
	002330	   124 	   101 	   113 	CMDK7:.ASCIZ	%TAKE CRAM%
	002333	   105 	   040 	   103
	002336	   122 	   101 	   115
	002341	   000
   5362	000652					DEFCMD	K8,<TAKE DRAM>
	000652	002342'				.WORD	CMDK8
	002342	   124 	   101 	   113 	CMDK8:.ASCIZ	%TAKE DRAM%
	002345	   105 	   040 	   104
	002350	   122 	   101 	   115
	002353	   000
   5363	000654					DEFCMD	K9,<TAKE HALT>
	000654	002354'				.WORD	CMDK9
	002354	   124 	   101 	   113 	CMDK9:.ASCIZ	%TAKE HALT%
	002357	   105 	   040 	   110
	002362	   101 	   114 	   124
	002365	   000
   5364	000656					DEFCMD	K10,<TAKE RELOAD>
	000656	002366'				.WORD	CMDK10
	002366	   124 	   101 	   113 	CMDK10:.ASCIZ	%TAKE RELOAD%
	002371	   105 	   040 	   122
	002374	   105 	   114 	   117
	002377	   101 	   104 	   000
   5365	010234				.PSECT
KLEDEF -- KLERR SNAPSHOT DEFAUL	MACRO M1113  03-APR-86 22:56  PAGE 131
.SNAP -- ROUTINE TO MANUALLY PERFORM A SNAPSHOT

   5368					.SBTTL	.SNAP -- ROUTINE TO MANUALLY PERFORM A SNAPSHOT
   5369
   5370					;+
   5371					; .SNAP -- ROUTINE TO MANUALLY TAKE A KL SNAPSHOT
   5372					;
   5373					; THIS ROUTINE WILL SET UP THE CONTROL FLAGS THAT WILL CAUSE THE PARSER
   5374					; TO AT IN THE KLERR FUNCTION OF TAKING A SNAPSHOT.
   5375					;
   5376					;		THIS ROUTINE ADDED FOR TCO 4.1.1049
   5377					;
   5378					; INPUT ARGUMENTS:
   5379					;
   5380					;	NONE
   5381					;
   5382					; OUTPUT ARGUMENTS:
   5383					;
   5384					;	NONE
   5385					;
   5386					; ERROR CODES RETURNED:
   5387					;
   5388					;	NONE
   5389					;-
   5390
   5392	010234				.SNAP::
   5393	010234					CALL	.CKEOC		; MUST HAVE E-O-C
	010234	004737 	000000G			 JSR	PC,.CKEOC
   5394	010240	005237 	000000G			INC	.KLERQ		; SET FLAG THAT SAYS SNAPSHOT REQUIRED
   5395	010244	005237 	000000G			INC	.KLEDF		; SET FLAG THAT CAUSES DEFAULT COMMANDS
   5396	010250	105037 	000000G			CLRB	.KLEVL		; CLEAR DEFAULT COMMAND VALID FLAG
   5397	010254	105237 	000000G			INCB	.KLSNP		; SAY SNAPSHOT COMMAND IN PROGRESS
   5398	010260					RETURN			; DONE
	010260	000207 				 RTS	PC
   5399
KLEDEF -- KLERR SNAPSHOT DEFAUL	MACRO M1113  03-APR-86 22:56  PAGE 133
.SNAP -- ROUTINE TO MANUALLY PERFORM A SNAPSHOT

   5403
   5404					.TITLE	MARKC -- KL MARK/UNMARK-MICROCODE COMMAND MODULE 7910.19
   5405
   5406						.IDENT	"006130"
   5407
   5408					;
   5409					;                             COPYRIGHT (C) 1975, 1984, 1985 BY
   5410					;                     DIGITAL EQUIPMENT CORPORATION, MAYNARD MASS.
   5411					;			ALL RIGHTS RESERVED.
   5412					;       THIS SOFTWARE IS FURNISHED UNDER A LICENSE AND MAY BE  USED  AND  COPIED
   5413					;       ONLY IN ACCORDANCE WITH THE TERMS OF SUCH LICENSE AND WITH THE INCLUSION
   5414					;       OF THE ABOVE COPYRIGHT NOTICE.  THIS SOFTWARE OR ANY OTHER COPIES THERE-
   5415					;       OF  MAY NOT BE PROVIDED OR OTHERWISE MADE AVAILABLE TO ANY OTHER PERSON.
   5416					;       NO TITLE TO OR OWNERSHIP OF THE SOFTWARE IS HEREBY TRANSFERRED.
   5417					;
   5418					;       THE INFORMATION CONTAINED IN THIS SOFTWARE IS SUBJECT TO CHANGE  WITHOUT
   5419					;       NOTICE  AND SHOULD NOT BE CONSTRUED AS A COMMITMENT BY DIGITAL EQUIPMENT
   5420					;       CORPORATION.
   5421					;
   5422					;       DIGITAL ASSUMES NO RESPONSIBILITY FOR THE  USE  OR  RELIABILITY  OF  ITS
   5423					;       SOFTWARE ON EQUIPMENT WHICH IS NOT SUPPILED BY DIGITAL.
   5424					;
   5425					;
   5426					;		MODULE: KL CRAM DISPATCH FIELD READ
   5427					;
   5428					;		VERSION: 06-13
   5429					;
   5430					;		AUTHOR: R. BELANGER
   5431					;
   5432					;		DATE: 7910.19
   5433					;
   5434					;	THIS MODULE CONTAINS:
   5435					;
   5436					;	1) MARK MICROCODE COMMAND
   5437					;	2) UNMARK MICROCODE COMMAND
MARKC -- KL MARK/UNMARK-MICROCO	MACRO M1113  03-APR-86 22:56  PAGE 134
.MARKC -- THE "MARK/UNMARK-MICROCODE" COMMAND 7910.19

   5439					.SBTTL	.MARKC -- THE "MARK/UNMARK-MICROCODE" COMMAND 7910.19
   5440
   5441					;+
   5442					; .MARKC -- THE "MARK-MICROCODE" COMMAND
   5443					; .UMRKC -- THE "UNMARK-MICROCODE" COMMAND
   5444					;
   5445					; THESE SUBROUTINES WILL EITHER MARK OR UNMARK A SINGLE LOCATION IN THE
   5446					; KL CRAM.  NO CHECK IS MADE TO SEE WHETHER OR NOT THE LOCATION IS ALREADY
   5447					; IN THE DESIRED STATE; THE COMMAND IS SIMPLY EXECUTED
   5448					;
   5449					; INPUT ARGUMENTS:
   5450					;
   5451					;	NONE.
   5452					;
   5453					; OUTPUT ARGUMENTS:
   5454					;
   5455					;	NONE.
   5456					;	R0, R1, R2 -- ALTERED.
   5457					;
   5458					; ERROR CODES RETURNED:
   5459					;
   5460					;	NONE.
   5461					;
   5462					; NOTE:
   5463					;
   5464					;	NO ATTEMPT IS MADE TO RESTORE THE STATE OF THE KL CLOCK OR THE
   5465					;	KL RUN FLOP.  THIS ROUTINE ESSENTIALLY CLOBBERS ANY HARDWARE
   5466					;	CONTEXT THAT EXISTS WHEN IT IS CALLED AND EXITS WITH THE KL
   5467					;	CLOCK OFF.
   5468					;-
   5469						.ENABL	LSB
   5470
   5471	010262				.UMRKC::
   5472	010262	005046 				CLR	-(SP)		; SET THE "UNMARK" FLAG
   5473	010264	000402 				BR	10$		; .AND ENTER COMMON CODE
   5474						;
   5475	010266				.MARKC::
   5476	010266	012746 	000001 			MOV	#1,-(SP)	; SET THE "MARK" FLAG
   5477	010272				10$:
   5478	010272					CALL	.CKRUN		; .BETTER NOT BE RUNNING...
	010272	004737 	000000G			 JSR	PC,.CKRUN
   5479	010276					CALL	.GTELN		; .READ THE CRAM ADDRESS
	010276	004737 	000000G			 JSR	PC,.GTELN
   5480	010302	010002 				MOV	R0,R2		; .COPY ADDRESS TO R2
   5481	010304					CALL	.RDCRM		; .READ THE CRAM LOCATION SPECIFIED
	010304	004737 	000000G			 JSR	PC,.RDCRM
   5482	010310	012701 	000400 			MOV	#400,R1		; .MARK BIT TO R1
   5483	010314	005716 				TST	(SP)		; .TEST "MARK" FLAG
   5484	010316	001003 				BNE	20$		; .MARK -- GO DO IT
   5485	010320	040160 	000006 			BIC	R1,6(R0)	; .UNMARK -- DO IT NOW
   5486	010324	000402 				BR	30$		; .AND EXIT IN COMMON CODE
   5487						;
   5488	010326				20$:
   5489	010326	050160 	000006 			BIS	R1,6(R0)	; .MARK THE MICROCODE
   5490	010332				30$:
   5491	010332	010001 				MOV	R0,R1		; .COPY BUFFER POINTER TO R1
   5492	010334	010200 				MOV	R2,R0		; .COPY ADDRESS TO R0
MARKC -- KL MARK/UNMARK-MICROCO	MACRO M1113  03-APR-86 22:56  PAGE 134-1
.MARKC -- THE "MARK/UNMARK-MICROCODE" COMMAND 7910.19

   5493	010336					CALL	.WRCRM		; .REWRITE THE CRAM
	010336	004737 	000000G			 JSR	PC,.WRCRM
   5494	010342	122715 	000054 			CMPB	#',,(R5)	; [5.1014]IS THIS A LIST?
   5495	010346	001004 				BNE	40$		; [5.1014]NO -- GO ON
   5496	010350	105725 				TSTB	(R5)+		; [5.1014]YES -- REMOVE COMMA
   5497	010352	005726 				TST	(SP)+		; [5.1014]REMOVE AND TEST "MARK" FLAG
   5498	010354	001344 				BNE	.MARKC		; [5.1014]MARK COMMAND
   5499	010356	000741 				BR	.UMRKC		; [5.1014]UNMARK COMMAND
   5500	010360	005726 			40$:	TST	(SP)+		; [5.1014]POP STACK
   5501	010362					RETURN			; [5.1014]EXIT
	010362	000207 				 RTS	PC
   5502						;
   5503
   5504						.DSABLE	LSB
RESTC -- RESET COMMAND DISPATCH	MACRO M1113  03-APR-86 22:56  PAGE 136
.MARKC -- THE "MARK/UNMARK-MICROCODE" COMMAND 7910.19

   5507					.TITLE	RESTC -- RESET COMMAND DISPATCH 7707.12
   5508
   5509						.IDENT	"005000"
   5510					;
   5511					;                             COPYRIGHT (C) 1975, 1984, 1985 BY
   5512					;                     DIGITAL EQUIPMENT CORPORATION, MAYNARD MASS.
   5513					;			ALL RIGHTS RESERVED.
   5514					;       THIS SOFTWARE IS FURNISHED UNDER A LICENSE AND MAY BE  USED  AND  COPIED
   5515					;       ONLY IN ACCORDANCE WITH THE TERMS OF SUCH LICENSE AND WITH THE INCLUSION
   5516					;       OF THE ABOVE COPYRIGHT NOTICE.  THIS SOFTWARE OR ANY OTHER COPIES THERE-
   5517					;       OF  MAY NOT BE PROVIDED OR OTHERWISE MADE AVAILABLE TO ANY OTHER PERSON.
   5518					;       NO TITLE TO OR OWNERSHIP OF THE SOFTWARE IS HEREBY TRANSFERRED.
   5519					;
   5520					;       THE INFORMATION CONTAINED IN THIS SOFTWARE IS SUBJECT TO CHANGE  WITHOUT
   5521					;       NOTICE  AND SHOULD NOT BE CONSTRUED AS A COMMITMENT BY DIGITAL EQUIPMENT
   5522					;       CORPORATION.
   5523					;
   5524					;       DIGITAL ASSUMES NO RESPONSIBILITY FOR THE  USE  OR  RELIABILITY  OF  ITS
   5525					;       SOFTWARE ON EQUIPMENT WHICH IS NOT SUPPILED BY DIGITAL.
   5526					;
   5527					;		MODULE: RESET COMMAND DISPATCH
   5528					;
   5529					;		VERSION: 05-00
   5530					;
   5531					;		AUTHOR: R. BELANGER
   5532					;
   5533					;		DATE: 7707.12
   5534					;
   5535					;	THIS MODULE CONTAINS:
   5536					;
   5537					;	1) RESET COMMAND DISPATCH
RESTC -- RESET COMMAND DISPATCH	MACRO M1113  03-APR-86 22:56  PAGE 137
.RESTC -- THE "RESET" COMMAND DISPATCH 7710.11

   5539					.SBTTL	.RESTC -- THE "RESET" COMMAND DISPATCH 7710.11
   5540
   5541					;+
   5542					; .RESTC -- THE "RESET" COMMAND DISPATCH
   5543					;
   5544					; THIS ROUTINE IS THE TOP LEVEL OF THE RESET COMMAND. ".RESTC" CHECKS
   5545					; ARGUMENTS FOR RESET AND DISPATCHES TO THE PROPER ROUTINE
   5546					;
   5547					; INPUT ARGUMENTS:
   5548					;
   5549					;	NONE.
   5550					;
   5551					; OUTPUT ARGUMENTS:
   5552					;
   5553					;	R0 POINTS TO THE LEGAL BITS FOR THE RESET OBJECT.
   5554					;
   5555					; ERROR CODES RETURNED:
   5556					;
   5557					;	KLR -- ILLEGAL WHILE KL IS RUNNING.
   5558					;-
   5559
   5560	010364				.RESTC::
   5561	010364	111504 				MOVB	(R5),R4		; LOOK AT THIS CHARACTER
   5562	010366	132764 	000010 	000000G		BITB	#CH.EOC,.CHTAB(R4)
   5563	010374	001015 				BNE	10$		; DEFAULT RESET ON E-O-C
   5564	010376					CALL	.CKARG		; GET OVER LEADING BLANKS
	010376	004737 	000000G			 JSR	PC,.CKARG
   5565	010402	012700 	000000G			MOV	#.RESTB,R0	; TABLE POINTER TO R0
   5566	010406					CALL	.TSCAN		; SCAN THE TABLE
	010406	004737 	000000G			 JSR	PC,.TSCAN
   5567	010412	012001 				MOV	(R0)+,R1	; LEGAL BITS TO R1
   5568	010414	005101 				COM	R1		; INVERT THEM
   5569	010416	040137 	000000G			BIC	R1,.LGLWD	; SET UP NEW LEGAL WORD
   5570	010422					CALL	.CKEOC		; CHECK FOR E-O-C
	010422	004737 	000000G			 JSR	PC,.CKEOC
   5571	010426					CALLR	@(R0)+		; DO THE RESET
	010426	000130 				 JMP	@(R0)+
   5572						;
   5573	010430				10$:
   5574	010430					CALL	.CKRNP		; SEE IF THE KL IS RUNNING
	010430	004737 	000000G			 JSR	PC,.CKRNP
   5575	010434					CALL	.STPKL		; STOP THE KL
	010434	004737 	000000G			 JSR	PC,.STPKL
   5576	010440					CALLR	.RESTP		; RESET THE KL AND EXIT
	010440	000137 	000000G			 JMP	.RESTP
   5577						;
RESTC -- RESET COMMAND DISPATCH	MACRO M1113  03-APR-86 22:56  PAGE 138
.RSALL -- THE "RESET ALL" COMMAND 7602.18

   5579					.SBTTL	.RSALL -- THE "RESET ALL" COMMAND 7602.18
   5580
   5581	010444				.RSALL::
   5582	010444					PUSH	.KLFLG		; SAVE ".KLFLG"
	010444	013746 	000000G			 MOV	.KLFLG,-(SP)
   5583	010450	032716 	100000 			BIT	#KF.CLK,(SP)	; .IS THE CLOCK ON?
   5584	010454	001426 				BEQ	RSAKCN		; .NO -- GIVE "KCN" ERROR
   5585	010456					CALL	.STPKL		; .STOP THE KL
	010456	004737 	000000G			 JSR	PC,.STPKL
   5586	010462					CALL	.RESTD		; .RESET THE DTE-20
	010462	004737 	000000G			 JSR	PC,.RESTD
   5587	010466					CALL	.RSAPR		; .RESET APR
	010466	004737 	010540'			 JSR	PC,.RSAPR
   5588	010472					CALL	.RSPAG		; .RESET PAG
	010472	004737 	010572'			 JSR	PC,.RSPAG
   5589	010476					CALL	.RSTPI		; .RESET PI
	010476	004737 	010562'			 JSR	PC,.RSTPI
   5590	010502					POP	.SVKLF		; .SET UP ".SVKLF"
	010502	012637 	000000G			 MOV	(SP)+,.SVKLF
   5591	010506					CALLR	.RSTKL		; RESTART THE KL
	010506	000137 	000000G			 JMP	.RSTKL
   5592						;
   5593	010512				.RSDTE::
   5594	010512					CALLR	.RESTD		; RESET THE DTE-20
	010512	000137 	000000G			 JMP	.RESTD
   5595						;
   5596	010516				.RSTIN::
   5597	010516					CALL	.CKRUN		; SEE IF THE KL IS RUNNING
	010516	004737 	000000G			 JSR	PC,.CKRUN
   5598	010522					CALL	.STPKL		; STOP THE KL
	010522	004737 	000000G			 JSR	PC,.STPKL
   5599	010526					CALLR	.RESTI		; RESET TO DEFAULTS AND EXIT
	010526	000137 	000000G			 JMP	.RESTI
   5600						;
   5601	010532				RSAKCN:
   5602	010532					ERROR$	KCN		; ERROR -- KL CLOCK NOT RUNNING
	010532	012746 	042506 			 MOV	#^RKCN,-(SP)
	010536	104400 				 TRAP	TC.ERR
   5603						;
RESTC -- RESET COMMAND DISPATCH	MACRO M1113  03-APR-86 22:56  PAGE 139
.RSTPI -- THE "RESET PI" COMMAND 7607.21

   5605					 .SBTTL	.RSTPI -- THE "RESET PI" COMMAND 7607.21
   5606
   5607						.ENABL	LSB
   5608
   5609	010540				.RSAPR::			; RESET APR
   5610	010540	012700 	000660'			MOV	#RSAPRI,R0	; INSTRUCTION POINTER TO R0
   5611	010544	000410 				BR	10$		; DO COMMON CODE
   5612						;
   5613	010546				.RSERR::			; RESET ERROR
   5614	010546	012700 	000666'			MOV	#RSERRI,R0	; INSTRUCTION POINTER TO R0
   5615	010552	000405 				BR	10$		; DO COMMON CODE
   5616						;
   5617	010554				.RSTIO::			; RESET IO
   5618	010554	012700 	000674'			MOV	#RSTIOI,R0	; INSTRUCTION POINTER TO R0
   5619	010560	000402 				BR	10$		; DO COMMON CODE
   5620						;
   5621	010562				.RSTPI::			; RESET PI
   5622	010562	012700 	000702'			MOV	#RSTPII,R0	; INSTRUCTION POINTER TO R0
   5623	010566				10$:
   5624	010566					CALLR	.EXCTF		; EXECUTE IT
	010566	000137 	000000G			 JMP	.EXCTF
   5625						;
   5626
   5627						.DSABL	LSB
   5628
   5629	000660				.PSECT	DATA
   5630
   5631	000660				RSAPRI:
   5632	000660					IOKL$	CONO	APR,,267760
	000660	   360 	   157 			 .BYTE	$$A,$$B
	000662	   001 	   002 			 .BYTE	$$C,$$D
	000664	   016 	   000 			 .BYTE	$$E,$$F
   5633	000666				RSERRI:
   5634	000666					IOKL$	CONO	APR,,27760
	000666	   360 	   057 			 .BYTE	$$A,$$B
	000670	   000 	   002 			 .BYTE	$$C,$$D
	000672	   016 	   000 			 .BYTE	$$E,$$F
   5635	000674				RSTIOI:
   5636	000674					IOKL$	CONO	APR,,200000
	000674	   000 	   000 			 .BYTE	$$A,$$B
	000676	   001 	   002 			 .BYTE	$$C,$$D
	000700	   016 	   000 			 .BYTE	$$E,$$F
   5637	000702				RSTPII:
   5638	000702					IOKL$	CONO	PI,,10000
	000702	   000 	   020 			 .BYTE	$$A,$$B
	000704	   000 	   006 			 .BYTE	$$C,$$D
	000706	   016 	   000 			 .BYTE	$$E,$$F
   5639
   5640	010572				.PSECT
RESTC -- RESET COMMAND DISPATCH	MACRO M1113  03-APR-86 22:56  PAGE 140
.RSPAG -- THE "RESET PAG" COMMAND 7607.21

   5642					.SBTTL	.RSPAG -- THE "RESET PAG" COMMAND 7607.21
   5643
   5644	010572				.RSPAG::
   5645	010572					PUSH	.KLFLG		; SAVE ".KLFLG"
	010572	013746 	000000G			 MOV	.KLFLG,-(SP)
   5646	010576	032716 	100000 			BIT	#KF.CLK,(SP)	; .IS THE CLOCK ON?
   5647	010602	001442 				BEQ	RSPKCN		; .NO -- GIVE "KCN" ERROR
   5648	010604					CALL	.STPKL		; .STOP THE KL
	010604	004737 	000000G			 JSR	PC,.STPKL
   5649	010610					PUSH	R1		; .SAVE R1
	010610	010146 				 MOV	R1,-(SP)
   5650	010612					PUSH	#16		; ..BUILD A CLEAR WORD ON THE STACK
	010612	012746 	000016 			 MOV	#16,-(SP)
   5651	010616	005046 				CLR	-(SP)		; ...
   5652	010620	005046 				CLR	-(SP)		; ....
   5653	010622	010601 				MOV	SP,R1		; .....GET THE POINTER
   5654	010624	005046 				CLR	-(SP)		; .....NOW SET UP
   5655	010626					PUSH	#100		; ......SCRATCH ADDRESS
	010626	012746 	000100 			 MOV	#100,-(SP)
   5656	010632	010600 				MOV	SP,R0		; .......GET THE POINTER
   5657	010634					PUSH	R1		; .......DATA POINTER TO STACK
	010634	010146 				 MOV	R1,-(SP)
   5658	010636					PUSH	R0		; ........ADDRESS POINTER TO STACK
	010636	010046 				 MOV	R0,-(SP)
   5659	010640	010601 				MOV	SP,R1		; .........BLOCK POINTER TO R1
   5660	010642	012700 	000040 			MOV	#ED.EXV,R0	; .........EXEC VIRTUAL SPACE
   5661	010646					CALL	.DPKLM		; .........DO THE DEPOSIT
	010646	004737 	000000G			 JSR	PC,.DPKLM
   5662	010652	062706 	000016 			ADD	#^D14,SP	; .........RESET THE STACK
   5663	010656	012700 	000710'			MOV	#RSPGI0,R0	; ..INSTRUCTION POINTER TO R0
   5664	010662					CALL	.EXCTF		; ..EXECUTE IT
	010662	004737 	000000G			 JSR	PC,.EXCTF
   5665	010666	012700 	000716'			MOV	#RSPGI1,R0	; ..NEXT INSTRUCTION
   5666	010672					CALL	.EXCTF		; ..EXECUTE IT
	010672	004737 	000000G			 JSR	PC,.EXCTF
   5667	010676					POP	R1		; ..RESTORE R1
	010676	012601 				 MOV	(SP)+,R1
   5668	010700					POP	.SVKLF		; .SET UP ".SVKLF"
	010700	012637 	000000G			 MOV	(SP)+,.SVKLF
   5669	010704					CALLR	.RSTKL		; RESART THE KL AND EXIT
	010704	000137 	000000G			 JMP	.RSTKL
   5670						;
RESTC -- RESET COMMAND DISPATCH	MACRO M1113  03-APR-86 22:56  PAGE 141
.RSPAG -- THE "RESET PAG" COMMAND 7607.21

   5672	010710				RSPKCN:
   5673	010710					ERROR$	KCN		; ERROR -- KL CLOCK NOT RUNNING
	010710	012746 	042506 			 MOV	#^RKCN,-(SP)
	010714	104400 				 TRAP	TC.ERR
   5674						;
   5675
   5676	000710				.PSECT	DATA
   5677
   5678	000710				RSPGI0:
   5679	000710					IOKL$	CONO	PAG,,0
	000710	   000 	   000 			 .BYTE	$$A,$$B
	000712	   000 	   012 			 .BYTE	$$C,$$D
	000714	   016 	   000 			 .BYTE	$$E,$$F
   5680	000716				RSPGI1:
   5681	000716					IOKL$	DATAO	PAG,,100
	000716	   100 	   000 			 .BYTE	$$A,$$B
	000720	   200 	   011 			 .BYTE	$$C,$$D
	000722	   016 	   000 			 .BYTE	$$E,$$F
   5682
   5683	010716				.PSECT
RESTC -- RESET COMMAND DISPATCH	MACRO M1113  03-APR-86 22:56  PAGE 142
.RSPAG -- THE "RESET PAG" COMMAND 7607.21

   5685
   5686
   5687					.TITLE	RUNCM -- RUN/TAKE COMMAND MODULE 7607.14
   5688
   5689						.IDENT	"006110"
   5690
   5691					;
   5692					;                             COPYRIGHT (C) 1975, 1984, 1985 BY
   5693					;                     DIGITAL EQUIPMENT CORPORATION, MAYNARD MASS.
   5694					;			ALL RIGHTS RESERVED.
   5695					;       THIS SOFTWARE IS FURNISHED UNDER A LICENSE AND MAY BE  USED  AND  COPIED
   5696					;       ONLY IN ACCORDANCE WITH THE TERMS OF SUCH LICENSE AND WITH THE INCLUSION
   5697					;       OF THE ABOVE COPYRIGHT NOTICE.  THIS SOFTWARE OR ANY OTHER COPIES THERE-
   5698					;       OF  MAY NOT BE PROVIDED OR OTHERWISE MADE AVAILABLE TO ANY OTHER PERSON.
   5699					;       NO TITLE TO OR OWNERSHIP OF THE SOFTWARE IS HEREBY TRANSFERRED.
   5700					;
   5701					;       THE INFORMATION CONTAINED IN THIS SOFTWARE IS SUBJECT TO CHANGE  WITHOUT
   5702					;       NOTICE  AND SHOULD NOT BE CONSTRUED AS A COMMITMENT BY DIGITAL EQUIPMENT
   5703					;       CORPORATION.
   5704					;
   5705					;       DIGITAL ASSUMES NO RESPONSIBILITY FOR THE  USE  OR  RELIABILITY  OF  ITS
   5706					;       SOFTWARE ON EQUIPMENT WHICH IS NOT SUPPILED BY DIGITAL.
   5707					;
   5708					;		MODULE: RUN COMMAND
   5709					;
   5710					;		VERSION: 06-11
   5711					;
   5712					;		AUTHOR: R. BELANGER
   5713					;
   5714					;		DATE: 7607.14
   5715					;
   5716					;	THIS MODULE CONTAINS:
   5717					;
   5718					;	1) RUN COMMAND CODE
   5719					;	2) REQUEST DIRECTIVE PARAMETER BLOCK
   5720					;
   5721					;  MODIFICATIONS:
   5722					;
   5723					;	NO.	DATE		PROGRAMMER	REASON
   5724					;	---	----		----------	------
   5725					;    [5.1000]	24-AUG-79	K. LEFEBVRE	ADD "TAKE" COMMAND
   5726
   5727						.MCALL	DIR$, RQST$
RUNCM -- RUN/TAKE COMMAND MODUL	MACRO M1113  03-APR-86 22:56  PAGE 143
.RUNCM -- THE "RUN" AND "MCR" COMMANDS 7607.14

   5729					.SBTTL	.RUNCM -- THE "RUN" AND "MCR" COMMANDS 7607.14
   5730
   5731					;+
   5732					; .RUNCM -- THE "RUN" AND "MCR" COMMANDS
   5733					;
   5734					; THIS ROUTINE REQUESTS THE TASK SPECIFIED IN THE COMMAND TO BE RUN
   5735					; AND EXITS THE COMMAND PARSER
   5736					;
   5737					; INPUT ARGUMENTS:
   5738					;
   5739					;	NONE.
   5740					;
   5741					; OUTPUT ARGUMENTS:
   5742					;
   5743					;	NONE.
   5744					;
   5745					; ERROR CODES RETURNED:
   5746					;
   5747					;	ITN -- ILLEGAL TASK NAME
   5748					;	NST -- NO SUCH TASK
   5749					;	TAA -- TASK IS ALREADY ACTIVE
   5750					;-
   5751
   5752	010716				.RUNCM::
   5753	010716					CALL	.CKSYM		; GET OVER LEADING BLANKS
	010716	004737 	000000G			 JSR	PC,.CKSYM
   5754	010722					CALL	.GTR50		; GET THE .RAD50 TASK NAME
	010722	004737 	011174'			 JSR	PC,.GTR50
   5755	010726	001425 				BEQ	RUNITN		; BAD NEWS IF NONE THERE
   5756	010730					PUSH	R0		; SAVE THE TASK NAME
	010730	010046 				 MOV	R0,-(SP)
   5757	010732					CALL	.GTR50		; .READ THE SECOND HALF
	010732	004737 	011174'			 JSR	PC,.GTR50
   5758	010736					CALL	.CKEOC		; .MUST HAVE E-O-C
	010736	004737 	000000G			 JSR	PC,.CKEOC
   5759	010742					POP	.RNDPB+4	; .SET THE TASK NAME IN THE DPB
	010742	012637 	000052'			 MOV	(SP)+,.RNDPB+4
   5760	010746					DIR$	#.RNDPB		; REQUEST THE TASK
	010746	012746 	000046'			MOV	#.RNDPB,-(SP)
	010752	104375 				EMT	375
   5761	010754	103402 				BCS	10$		; ERROR IF CC-C IS SET
   5762	010756					CALLR	.EXITP		; EXIT
	010756	000137 	000000G			 JMP	.EXITP
   5763						;
   5764
   5765					;	[CONTINUED ON THE FOLLOWING PAGE]
RUNCM -- RUN/TAKE COMMAND MODUL	MACRO M1113  03-APR-86 22:56  PAGE 144
.RUNCM -- THE "RUN" AND "MCR" COMMANDS 7607.14

   5767					;	[CONTINUED FROM THE PREVIOUS PAGE]
   5768
   5769	010762				10$:
   5770	010762	013700 	000000G			MOV	$DSW,R0		; LOOK AT THE DIRECTIVE STATUS
   5771	010766	022700 	000000G			CMP	#IE.INS,R0	; IS THERE SUCH A TASK?
   5772	010772	001406 				BEQ	RUNNST		; NO -- GIVE "NST" ERROR
   5773	010774	022700 	000000G			CMP	#IE.ACT,R0	; YES -- IS IT ALREADY ACTIVE?
   5774	011000	001406 				BEQ	RUNTAA		; YES -- GIVE "TAA" ERROR
   5775	011002				RUNITN:
   5776	011002					ERROR$	ITN		; ERROR -- ILLEGAL TASK NAME
	011002	012746 	035556 			 MOV	#^RITN,-(SP)
	011006	104400 				 TRAP	TC.ERR
   5777						;
   5778	011010				RUNNST:
   5779	011010					ERROR$	NST		; ERROR -- NO SUCH TASK
	011010	012746 	055214 			 MOV	#^RNST,-(SP)
	011014	104400 				 TRAP	TC.ERR
   5780						;
   5781	011016				RUNTAA:
   5782	011016					ERROR$	TAA		; ERROR -- TASK ALREADY ACTIVE
	011016	012746 	076451 			 MOV	#^RTAA,-(SP)
	011022	104400 				 TRAP	TC.ERR
   5783						;
RUNCM -- RUN/TAKE COMMAND MODUL	MACRO M1113  03-APR-86 22:56  PAGE 145
.RUNCM -- THE "RUN" AND "MCR" COMMANDS 7607.14

   5785					; DPB FOR REQUEST DIRECTIVE
   5786
   5787					;	!===============================================!
   5788					; 00	!	DPB SIZE	!	  DIC		!
   5789					;	!-----------------------------------------------!
   5790					; 02	!	    TASK NAME IN .RAD50 (HIGH)		!
   5791					;	!-----------------------------------------------!
   5792					; 04	!	    TASK NAME IN .RAD50 (LOW)		!
   5793					;	!-----------------------------------------------!
   5794					; 06	!	     PARTITION NAME (IGNORED)		!
   5795					;	!-----------------------------------------------!
   5796					; 10	!	     PARTITION NAME (IGNORED)		!
   5797					;	!-----------------------------------------------!
   5798					; 12	!		TASK PRIORITY			!
   5799					;	!-----------------------------------------------!
   5800					; 14	!		UIC (IGNORED)			!
   5801					;	!===============================================!
   5802
   5803	000046				.PSECT	DPBS
   5804
   5805	000046				.RNDPB::
   5806	000046					RQST$	...TSK,,,,
	000046	   013 	   007 			.BYTE	11.,7
	000050	131574 	100003 			.RAD50	/...TSK/
	000054	000000 	000000 			.WORD	0,0
	000060	000000 				.WORD
	000062	   000 	   000 			.BYTE	,
   5807
   5808	011024				.PSECT
RUNCM -- RUN/TAKE COMMAND MODUL	MACRO M1113  03-APR-86 22:56  PAGE 146
.TAKEC -- THE "TAKE" COMMAND

   5810					.SBTTL	.TAKEC -- THE "TAKE" COMMAND
   5811
   5812					;+
   5813					; .TAKEC -- THE "TAKE" COMMAND
   5814					;
   5815					; THIS ROUTINE REQUESTS AN INDIRECT COMMAND FILE, OPENS IT WITH
   5816					; READ ACCESS, AND INDICATES THAT FURTHER COMMAND INPUT SHOULD
   5817					; COME FROM THIS FILE.
   5818					;	THIS COMMAND WAS ADDED FOR TCO 5.1000
   5819					;
   5820					; INPUT ARGUMENTS:
   5821					;
   5822					;	NONE
   5823					;
   5824					; OUTPUT ARGUMENTS:
   5825					;
   5826					;	NONE
   5827					;
   5828					; ERROR CODES RETURNED:
   5829					;
   5830					;	CAL -- CAN'T ASSIGN LUN
   5831					;	DNF -- DIRECTORY FILE NOT FOUND
   5832					;	FLF -- FILE LOOKUP FAILURE
   5833					;	FOF -- FILE OPEN FAILURE
   5834					;	FRD -- FILE READ FAILURE
   5835					;	IFN -- ILLEGAL FILE NAME
   5836					;	IRE -- ILLEGAL RECURSION
   5837					;	NSF -- NO SUCH FILE
   5838					;-
   5839
   5840	011024				.TAKEC::
   5841	011024	012737 	062072 	000000G		MOV	#^RPAR,.INFN	; DEFAULT COMMAND FILE NAME
   5842	011032	012737 	073632 	000002G		MOV	#^RSER,.INFN+2	; PARSER.CMD
   5843	011040					CALL	.CKSYM		; GET OVER LEADING BLANKS
	011040	004737 	000000G			 JSR	PC,.CKSYM
   5844	011044					CALL	.GTR50		; GET THE RAD50 FILE NAME
	011044	004737 	011174'			 JSR	PC,.GTR50
   5845	011050	001406 				BEQ	10$		; DEFAULT NAME IF NONE GIVEN
   5846	011052	010037 	000000G			MOV	R0,.INFN	; SAVE 1ST HALF FILE NAME
   5847	011056					CALL	.GTR50		; GET 2ND HALF FILE NAME
	011056	004737 	011174'			 JSR	PC,.GTR50
   5848	011062	010037 	000002G			MOV	R0,.INFN+2	; SAVE 2ND HALF FILE NAME
   5849	011066				10$:	CALL	.CKEOC		; MUST HAVE E-O-C
	011066	004737 	000000G			 JSR	PC,.CKEOC
   5850	011072	005737 	000000G			TST	.INDFG		; ALREADY DOING INDIRECT FILE?
   5851	011076	001030 				BNE	TAKIRE		; YES -- ERROR
   5852	011100				.TAKE1::			; [5.1006]ALTERNATE ENTRY POINT FOR KLE
   5853	011100	012700 	000000G			MOV	#.INFN,R0	; NO -- INPUT FILE NAME PTR
   5854	011104	012701 	000000G			MOV	#.INFNB,R1	; INPUT FILE NAME BLOCK PTR
   5855	011110	012702 	000005 			MOV	#INDLUN,R2	; INPUT FILE LUN
   5856	011114					CALL	.LOKUP		; LOOK UP INPUT FILE
	011114	004737 	000000G			 JSR	PC,.LOKUP
   5857	011120	103422 				BCS	TAKNSF		; NO SUCH FILE IF CC-C IS SET
   5858	011122	012704 	000000G			MOV	#IO.ACR,R4	; READ ACCESS
   5859	011126					CALL	.OPEN		; OPEN FILE FOR READ
	011126	004737 	000000G			 JSR	PC,.OPEN
   5860	011132	005037 	000000G			CLR	.INBBC		; NOTHING READ IN YET
RUNCM -- RUN/TAKE COMMAND MODUL	MACRO M1113  03-APR-86 22:56  PAGE 146-1
.TAKEC -- THE "TAKE" COMMAND

   5861	011136	005037 	000000G			CLR	.INPOS		; NO BUFFER YET
   5862	011142	005037 	000000G			CLR	.INVBN		; READ FIRST BLOCK
   5863	011146	005037 	000002G			CLR	.INVBN+2	; READ FIRST BLOCK
   5864	011152	005237 	000000G			INC	.INDFG		; REDIRECT INPUT TO FILE
   5865	011156					RETURN			; RETURN
	011156	000207 				 RTS	PC
   5866						;
   5867	011160				TAKIRE:
   5868	011160					ERROR$	IRE		; ERROR -- ILLEGAL RECURSION
	011160	012746 	035425 			 MOV	#^RIRE,-(SP)
	011164	104400 				 TRAP	TC.ERR
   5869	011166				TAKNSF:
   5870	011166				20$:	ERROR$	NSF		; ERROR -- NO SUCH FILE
	011166	012746 	055176 			 MOV	#^RNSF,-(SP)
	011172	104400 				 TRAP	TC.ERR
   5871						;
RUNCM -- RUN/TAKE COMMAND MODUL	MACRO M1113  03-APR-86 22:56  PAGE 147
.GTR50 -- GET A .RAD50 WORD 7602.18

   5873					.SBTTL	.GTR50 -- GET A .RAD50 WORD 7602.18
   5874
   5875					;+
   5876					; .GTR50 -- GET A .RAD50 WORD
   5877					;
   5878					; THIS ROUTINE WILL CONVERT THE NEXT THREE ASCII CHARACTERS IN THE
   5879					; INPUT STREAM TO .RAD50 FORMAT.
   5880					;
   5881					; INPUT ARGUMENTS:
   5882					;
   5883					;	R5 POINTS TO THE INPUT STREAM.
   5884					;
   5885					; OUTPUT ARGUMENTS:
   5886					;
   5887					;	R0 HOLDS THE .RAD50 SYMBOL.
   5888					;
   5889					; ERROR CODES RETURNED:
   5890					;
   5891					;	NONE.
   5892					;	IF THE ROUTINE CANNOT CONVERT THE FIRST CHARACTER, CC-Z IS SET.
   5893					;-
RUNCM -- RUN/TAKE COMMAND MODUL	MACRO M1113  03-APR-86 22:56  PAGE 148
.GTR50 -- GET A .RAD50 WORD 7602.18

   5895	011174				.GTR50::
   5896	011174					PUSH	<R1,R2>		; SAVE REGISTERS
	011174	010146 				 MOV	R1,-(SP)
	011176	010246 				 MOV	R2,-(SP)
   5897	011200	005046 				CLR	-(SP)		; ..SAVE A BUFFER
   5898	011202	012702 	000000G			MOV	#.T50TB,R2	; ...FACTOR TABLE POINTER TO R2
   5899	011206				10$:
   5900	011206	012201 				MOV	(R2)+,R1	; ...GET CURRENT MULTIPLIER
   5901	011210	001427 				BEQ	50$		; ...DONE IF .EQ. 0
   5902	011212	112500 				MOVB	(R5)+,R0	; ...GET THE CHARACTER INTO R0
   5903	011214	120027 	000101 			CMPB	R0,#'A		; ...IS IT ALPHABETIC?
   5904	011220	103403 				BLO	20$		; ...NO -- TRY NUMERIC
   5905	011222	120027 	000132 			CMPB	R0,#'Z		; ...IS IT REALLY ALPHABETIC?
   5906	011226	101410 				BLOS	30$		; ...YES -- ADD IT TO RESULT
   5907	011230				20$:
   5908	011230	120027 	000060 			CMPB	R0,#'0		; ...NO -- IS IT NUMERIC?
   5909	011234	103413 				BLO	40$		; ...NO -- EXIT
   5910	011236	120027 	000071 			CMPB	R0,#'9		; ...YES -- IS IT REALLY NUMERIC?
   5911	011242	101010 				BHI	40$		; ...NO -- EXIT
   5912	011244	162700 	177722 			SUB	#<<'0-36>-<'A-1>>,R0
   5913	011250				30$:
   5914	011250	162700 	000100 			SUB	#<'A-1>,R0	; ...CONVERT ALPHABETIC
   5915	011254					CALL	$MUL		; ...COMPUTE CHARACTER VALUE
	011254	004737 	000000G			 JSR	PC,$MUL
   5916	011260	060116 				ADD	R1,(SP)		; ...ACCUMULATE RESULT
   5917	011262	000751 				BR	10$		; ...AND GET NEXT CHARACTER
   5918						;
   5919	011264				40$:
   5920	011264	105745 				TSTB	-(R5)		; ...BACK UP THE BYTE POINTER
   5921	011266	010004 				MOV	R0,R4		; ...PUT THE CHARACTER IN R4
   5922	011270				50$:
   5923	011270					POP	R0		; ...RETURN THE RESULT
	011270	012600 				 MOV	(SP)+,R0
   5924	011272					POP	<R2,R1>		; ..RESTORE REGISTERS
	011272	012602 				 MOV	(SP)+,R2
	011274	012601 				 MOV	(SP)+,R1
   5925	011276	005700 				TST	R0		; LOOK AT R0
   5926	011300					RETURN			; TO CALLER
	011300	000207 				 RTS	PC
RUNCM -- RUN/TAKE COMMAND MODUL	MACRO M1113  03-APR-86 22:56  PAGE 149
.QUITC -- THE "QUIT" COMMAND 7602.16

   5928					.SBTTL	.QUITC -- THE "QUIT" COMMAND 7602.16
   5929
   5930					;+
   5931					; .QUITC -- THE "QUIT" COMMAND.
   5932					;
   5933					; THIS ROUTINE EXECUTES THE "QUIT" (EXIT) FUNCTION.
   5934					;
   5935					; INPUT ARGUMENTS:
   5936					;
   5937					;	NONE.
   5938					;
   5939					; OUTPUT ARGUMENTS:
   5940					;
   5941					;	NONE.
   5942					;
   5943					; ERROR CODES RETURNED:
   5944					;
   5945					;	NONE.
   5946					;-
   5947
   5948	011302				.QUITC::
   5949	011302					CALL	.CKEOC		; MUST HAVE E-O-C
	011302	004737 	000000G			 JSR	PC,.CKEOC
   5950	011306					CALLR	.EXITP		; EXIT THE PARSER
	011306	000137 	000000G			 JMP	.EXITP
   5951						;
RUNCM -- RUN/TAKE COMMAND MODUL	MACRO M1113  03-APR-86 22:56  PAGE 151
.QUITC -- THE "QUIT" COMMAND 7602.16

   5954
   5955					.TITLE	SAVEC -- SAVE/RESTORE COMMAND DISPATCH 8306.09
   5956
   5957						.IDENT	"007030"
   5958					;
   5959					;                             COPYRIGHT (C) 1983, 1984, 1985 BY
   5960					;                     DIGITAL EQUIPMENT CORPORATION, MAYNARD MASS.
   5961					;			ALL RIGHTS RESERVED.
   5962					;       THIS SOFTWARE IS FURNISHED UNDER A LICENSE AND MAY BE  USED  AND  COPIED
   5963					;       ONLY IN ACCORDANCE WITH THE TERMS OF SUCH LICENSE AND WITH THE INCLUSION
   5964					;       OF THE ABOVE COPYRIGHT NOTICE.  THIS SOFTWARE OR ANY OTHER COPIES THERE-
   5965					;       OF  MAY NOT BE PROVIDED OR OTHERWISE MADE AVAILABLE TO ANY OTHER PERSON.
   5966					;       NO TITLE TO OR OWNERSHIP OF THE SOFTWARE IS HEREBY TRANSFERRED.
   5967					;
   5968					;       THE INFORMATION CONTAINED IN THIS SOFTWARE IS SUBJECT TO CHANGE  WITHOUT
   5969					;       NOTICE  AND SHOULD NOT BE CONSTRUED AS A COMMITMENT BY DIGITAL EQUIPMENT
   5970					;       CORPORATION.
   5971					;
   5972					;       DIGITAL ASSUMES NO RESPONSIBILITY FOR THE  USE  OR  RELIABILITY  OF  ITS
   5973					;       SOFTWARE ON EQUIPMENT WHICH IS NOT SUPPILED BY DIGITAL.
   5974					;
   5975					;		MODULE: SAVEC COMMAND DISPATCH
   5976					;
   5977					;		VERSION: 07-03
   5978					;
   5979					;		AUTHOR: D. WEAVER
   5980					;
   5981					;		DATE: 8306.09
   5982					;
   5983					;	THIS MODULE CONTAINS:
   5984					;
   5985					;	1) RESTORE COMMAND DISPATCH
   5986					;	2) SAVE COMMAND DISPATCH
SAVEC -- SAVE/RESTORE COMMAND D	MACRO M1113  03-APR-86 22:56  PAGE 152
.RSTRC -- THE "RESTORE" COMMAND DISPATCH 8306.09

   5988					.SBTTL	.RSTRC -- THE "RESTORE" COMMAND DISPATCH 8306.09
   5989
   5990					;+
   5991					; .RSTRC -- THE "SAVE" COMMAND DISPATCH
   5992					;
   5993					; THIS ROUTINE IS THE TOP LEVEL OF THE RESTORE COMMAND. ".RSTRC" CHECKS
   5994					; ARGUMENTS FOR RESTORE AND DISPATCHES TO THE PROPER ROUTINE
   5995					;
   5996					; INPUT ARGUMENTS:
   5997					;
   5998					;	NONE.
   5999					;
   6000					; OUTPUT ARGUMENTS:
   6001					;
   6002					;	NONE.
   6003					;
   6004					; ERROR CODES RETURNED:
   6005					;
   6006					;	ILC -- ILLEGAL COMMAND.
   6007					;-
   6008
   6009	011312				.RSTRC::
   6010	011312	012700 	000000G			MOV	#.RSTTB,R0	; TABLE POINTER TO R0
   6011	011316					CALL	.CKOBJ		; GET OVER LEADING BLANKS
	011316	004737 	000000G			 JSR	PC,.CKOBJ
   6012	011322					CALL	.TSCAN		; SCAN THE TABLE
	011322	004737 	000000G			 JSR	PC,.TSCAN
   6013	011326					CALL	.CKEOC		; MUST HAVE E-O-C
	011326	004737 	000000G			 JSR	PC,.CKEOC
   6014	011332					CALLR	@2(R0)		; DO THE COMMAND
	011332	000170 	000002 			 JMP	@2(R0)
   6015						;
SAVEC -- SAVE/RESTORE COMMAND D	MACRO M1113  03-APR-86 22:56  PAGE 153
.RSACB-- THE "RESTORE AC-BLOCK" COMMAND 8306.09

   6017					.SBTTL	.RSACB-- THE "RESTORE AC-BLOCK" COMMAND 8306.09
   6018					;+
   6019					; .RSACB  SUBROUTINE TO RESTORE THE FM ADDRESS REGISTER (AC BLOCK)
   6020					;
   6021					; THIS ROUTINE WILL:
   6022					;
   6023					;	1. INSERT INSTR OBJECT INTO KL LOC 100
   6024					;	2. EXECUTE DATAO PAG,,100 TO SET AC BLOCK
   6025					;
   6026					; INPUT ARGUMENTS:
   6027					;
   6028					;	.ACBLK CONTAINING THE FM ADDRESS REGISTER
   6029					;
   6030					; OUTPUT ARGUMENTS:
   6031					;
   6032					;	NONE.
   6033					;
   6034					; ERROR CODES RETURNED:
   6035					;
   6036					;	CCC -- CAN'T CLEAR KL10 CLOCK
   6037					;	CCR -- CAN'T CLEAR KL10 RUN FLOP
   6038					;	CCS -- KL10 CLOCK CAN'T START
   6039					;	CES -- CLOCK ERROR STOP
   6040					;	CFH -- CAN'T FIND KL10 HALT LOOP
   6041					;	CSC -- CAN'T SYNC KL10 CLOCK
   6042					;	DMF -- DEPOSIT KL10 MEMORY FAILED
   6043					;	DSF -- DTE20 STATUS FAILURE
   6044					;	ECT -- EBOX CLOCK TIME OUT
   6045					;	ESD -- EBOX STOPPED - DEPOSIT
   6046					;	FRF -- FUNCTION READ FAILED
   6047					;	FWF -- FUNCTION WRITE FAILED
   6048					;	FXF -- FUNCTION EXECUTE FAILED
   6049					;	MAE -- MODE ARGUMENT ERROR
   6050					;	XTO -- EXECUTE TIMED OUT
   6051					;-
   6052
   6053	011336				.RSACB::
   6054	011336	113702 	000001G			MOVB	.ACBLK+1,R2	; BUFFER FOR DATA
   6055	011342	006302 				ASL	R2		; POSITION AC BLOCK NO.
   6056	011344	006302 				ASL	R2		; POSITION AC BLOCK NO.
   6057	011346	006302 				ASL	R2		; POSITION AC BLOCK NO.
   6058	011350	110237 	000737'			MOVB	R2,RACDAT+3	; PUT BLOCK NO. INTO INSTR
   6059	011354	012701 	000724'			MOV	#RACBLK,R1	; SET UP DEPOSIT DATA BLOCK
   6060	011360	012700 	000200 			MOV	#ED.PHY,R0	; PUT IN PHYSICAL SPACE
   6061	011364					CALL	.DPKLM		; DEPOSIT INSTR OBJECT IN MEMORY
	011364	004737 	000000G			 JSR	PC,.DPKLM
   6062	011370	103404 				BCS	10$		; ERROR
   6063	011372	012700 	000742'			MOV	#SETACB,R0	; INSTR PTR
   6064	011376					CALL	.EXCTF		; EXECUTE INSTR
	011376	004737 	000000G			 JSR	PC,.EXCTF
   6065	011402				10$:	RETURN			; EXIT
	011402	000207 				 RTS	PC
   6066
   6067	000724				.PSECT	DATA
   6068
   6069	000724	000730'			RACBLK:	.WORD	RACADR		; OBJECT ADDR PTR
   6070	000726	000734'				.WORD	RACDAT		; DEPOSIT DATA PTR
SAVEC -- SAVE/RESTORE COMMAND D	MACRO M1113  03-APR-86 22:56  PAGE 153-1
.RSACB-- THE "RESTORE AC-BLOCK" COMMAND 8306.09

   6071	000730	000100 			RACADR:	.WORD	100		; ADDR BITS 20-35
   6072	000732	000000 				.WORD	0		; ADDR BITS 14-19
   6073	000734	000000 			RACDAT:	.WORD	0		; DATA BITS 20-35
   6074	000736	000000 				.WORD	0		; DATA BITS 4-19
   6075	000740	000010 				.WORD	10		; DATA BITS 0-3
   6076
   6077	000742				SETACB:	IOKL$	DATAO	PAG,,100	; SET AC BLOCK INSTR
	000742	   100 	   000 			 .BYTE	$$A,$$B
	000744	   200 	   011 			 .BYTE	$$C,$$D
	000746	   016 	   000 			 .BYTE	$$E,$$F
   6078
   6079	011404				.PSECT
SAVEC -- SAVE/RESTORE COMMAND D	MACRO M1113  03-APR-86 22:56  PAGE 154
.SAVEC -- THE "SAVE" COMMAND DISPATCH 8306.09

   6081					.SBTTL	.SAVEC -- THE "SAVE" COMMAND DISPATCH 8306.09
   6082
   6083					;+
   6084					; .SAVEC -- THE "SAVE" COMMAND DISPATCH
   6085					;
   6086					; THIS ROUTINE IS THE TOP LEVEL OF THE SAVE COMMAND. ".SAVEC" CHECKS
   6087					; ARGUMENTS FOR SAVE AND DISPATCHES TO THE PROPER ROUTINE
   6088					;
   6089					; INPUT ARGUMENTS:
   6090					;
   6091					;	NONE.
   6092					;
   6093					; OUTPUT ARGUMENTS:
   6094					;
   6095					;	NONE.
   6096					;
   6097					; ERROR CODES RETURNED:
   6098					;
   6099					;	ILC -- ILLEGAL COMMAND.
   6100					;-
   6101
   6102	011404				.SAVEC::
   6103	011404	012700 	000000G			MOV	#.SAVTB,R0	; TABLE POINTER TO R0
   6104	011410					CALL	.CKOBJ		; GET OVER LEADING BLANKS
	011410	004737 	000000G			 JSR	PC,.CKOBJ
   6105	011414					CALL	.TSCAN		; SCAN THE TABLE
	011414	004737 	000000G			 JSR	PC,.TSCAN
   6106	011420					CALL	.CKEOC		; MUST HAVE E-O-C
	011420	004737 	000000G			 JSR	PC,.CKEOC
   6107	011424					CALLR	@2(R0)		; DO THE COMMAND
	011424	000170 	000002 			 JMP	@2(R0)
   6108						;
SAVEC -- SAVE/RESTORE COMMAND D	MACRO M1113  03-APR-86 22:56  PAGE 155
.SVACB-- THE "SAVE AC-BLOCK" COMMAND 8306.09

   6110					.SBTTL	.SVACB-- THE "SAVE AC-BLOCK" COMMAND 8306.09
   6111					;+
   6112					; .SVACB  SUBROUTINE TO SAVE THE FM ADDRESS REGISTER (AC BLOCK)
   6113					;
   6114					; INPUT ARGUMENTS:
   6115					;
   6116					;	NONE.
   6117					;
   6118					; OUTPUT ARGUMENTS:
   6119					;
   6120					;	.ACBLK WILL CONTAIN THE FM ADDRESS REGISTER
   6121					;
   6122					; ERROR CODES RETURNED:
   6123					;
   6124					;	FRF -- FUNCTION READ FAILED.
   6125					;-
   6126
   6127	011430				.SVACB::
   6128	011430	005001 				CLR	R1
   6129	011432	012700 	000222 			MOV	#FR.111,R0
   6130	011436					CALL	.FREAD
	011436	004737 	000000G			 JSR	PC,.FREAD
   6131	011442	012701 	000033 			MOV	#^D27,R1
   6132	011446					CALL	.TPSHI
	011446	004737 	000000G			 JSR	PC,.TPSHI
   6133	011452	042710 	177770 			BIC	#177770,(R0)
   6134	011456	012701 	000000G			MOV	#.ACBLK,R1		; BUFFER FOR DATA
   6135	011462	011011 				MOV	(R0),(R1)
   6136	011464					RETURN
	011464	000207 				 RTS	PC
   6137					;	CALLR	.RDFMA			; RESTORE AC BLOCK AND RETURN
SAVEC -- SAVE/RESTORE COMMAND D	MACRO M1113  03-APR-86 22:56  PAGE 156
.SVPC -- THE "SAVE PC" COMMAND 8306.09

   6139					.SBTTL	.SVPC -- THE "SAVE PC" COMMAND 8306.09
   6140					;+
   6141					; .SVPC   SUBROUTINE TO SAVE THE KL PC REGISTER
   6142					;
   6143					; INPUT ARGUMENTS:
   6144					;
   6145					;	NONE.
   6146					;
   6147					; OUTPUT ARGUMENTS:
   6148					;
   6149					;	.ERRPC WILL CONTAIN THE 23 BIT PC FROM THE KL
   6150					;	.ERRCD WILL CONTAIN <FLAGS,,ERRCOD> FROM THE KL'S PERSPECTIVE
   6151					;	NOTE THAT ERRCOD IS SUPPLIED BY TKTN
   6152					;
   6153					; ERROR CODES RETURNED:
   6154					;
   6155					;	FRF -- FUNCTION READ FAILED.
   6156					;-
   6157
   6158	011466				.SVPC::
   6159	011466					CALL	.SAVFL			; GET THE FLAGS IN R0
	011466	004737 	011542'			 JSR	PC,.SAVFL
   6160	011472					PUSH	.ERRCD			; SAVE THE ERROR CODE
	011472	013746 	000000G			 MOV	.ERRCD,-(SP)
   6161	011476	005037 	000000G			CLR	.ERRCD			; AND CLEAR IT (TEMPORARILY)
   6162	011502	010037 	000002G			MOV	R0,.ERRCD+2		; MOVE THEM INTO DEX WORD FOR FLAGS
   6163	011506	005037 	000004G			CLR	.ERRCD+4		; AND CLEAR ANY LEFT OVER
   6164	011512	012700 	000000G			MOV	#.ERRCD,R0		; ADDRESS OF DATA
   6165	011516	012701 	000007 			MOV	#^D7,R1			; SHIFT COUNT
   6166	011522					CALL	.TPSHI			; SHIFT BITS INTO POSITION
	011522	004737 	000000G			 JSR	PC,.TPSHI
   6167	011526					POP	.ERRCD			; RESTORE ERROR CODE
	011526	012637 	000000G			 MOV	(SP)+,.ERRCD
   6168	011532	012701 	000000G			MOV	#.ERRPC,R1		; WHERE TO STORE THE PC
   6169	011536					CALLR	.SAVPC			; GET THE PC
	011536	000137 	011666'			 JMP	.SAVPC
SAVEC -- SAVE/RESTORE COMMAND D	MACRO M1113  03-APR-86 22:56  PAGE 157
.SAVFL -- SUBROUTINE TO READ THE KL PC FLAGS

   6171					.SBTTL	.SAVFL -- SUBROUTINE TO READ THE KL PC FLAGS
   6172
   6173					;+
   6174					; .SAVFL -- SUBROUTINE TO READ THE KL PC FLAGS.
   6175					;
   6176					; THIS SUBROUTINE READS AND RETURNS THE STATE OF THE KL PC FLAGS IN R0.
   6177					;
   6178					; INPUT ARGUMENTS:
   6179					;
   6180					;	NONE.
   6181					;
   6182					; OUTPUT ARGUMENTS:
   6183					;
   6184					;	R0 CONTAINS THE KL PC FLAGS
   6185					;
   6186					; THE FOLLOWING IS A LIST OF THE KL FLAGS RETURNED IN R0:
   6187					;
   6188					;	BIT #	KL PC FLAG BIT AND MEANING	KL BIT
   6189					;	-----	----------------------------	--------
   6190					;
   6191					;	12	PC.OVF -- OVERFLOW FLAG		-- 00
   6192					;	11	PC.CY0 -- CARRY 0 FLAG		-- 01
   6193					;	10	PC.CY1 -- CARRY 1 FLAG		-- 02
   6194					;	09	PC.FOV -- FLOATING OVERFLOW	-- 03
   6195					;	08	PC.BIS -- BYTE INCR SUPPRESSION	-- 04
   6196					;	07	PC.USR -- USER MODE		-- 05
   6197					;	06	PC.UIO -- USER IOT MODE		-- 06
   6198					;	05	PC.LIP -- LAST INS PUBLIC	-- 07
   6199					;	04	PC.AFI -- ADDR FAILURE INHIBIT	-- 08
   6200					;	03	PC.AT1 -- APR TRAP 1 FLAG	-- 09
   6201					;	02	PC.AT0 -- APR TRAP 0 FLAG	-- 10
   6202					;	01	PC.FUF -- FLOATING UNDERFLOW	-- 11
   6203					;	00	PC.NDV -- NO DIVIDE FLAG	-- 12
   6204					;
   6205					; ERROR CODES RETURNED:
   6206					;
   6207					;	FRF -- FUNCTION READ FAILED.
   6208					;-
SAVEC -- SAVE/RESTORE COMMAND D	MACRO M1113  03-APR-86 22:56  PAGE 158
.SAVFL -- SUBROUTINE TO READ THE KL PC FLAGS

   6210	011542				.SAVFL:
   6211	011542					PUSH	<R1,R2>		; SAVE R1 AND R2 ON THE STACK
	011542	010146 				 MOV	R1,-(SP)
	011544	010246 				 MOV	R2,-(SP)
   6212	011546	005001 				CLR	R1		; ..CLEAR R1
   6213	011550	005002 				CLR	R2		; ..AND R2
   6214	011552	012700 	000202 			MOV	#FR.101,R0	; ..FR CODE FOR LOW FLAGS
   6215	011556					CALL	.FREAD		; ..READ THEM
	011556	004737 	000000G			 JSR	PC,.FREAD
   6216	011562	012701 	177764 			MOV	#-^D12,R1	; ..SHIFT COUNT TO R1
   6217	011566					CALL	.TPSHI		; ..SHIFT OUR WORD
	011566	004737 	000000G			 JSR	PC,.TPSHI
   6218	011572	042710 	177700 			BIC	#177700,(R0)	; ..MASK OUT FLAG BITS
   6219	011576	051002 				BIS	(R0),R2		; ..PUT THE LOW FLAGS IN R2
   6220	011600	005001 				CLR	R1		; ..AGAIN
   6221	011602	012700 	000200 			MOV	#FR.100,R0	; ..FR CODE FOR MOST OF THE FLAGS
   6222	011606					CALL	.FREAD		; ..READ THEM
	011606	004737 	000000G			 JSR	PC,.FREAD
   6223	011612	012701 	177772 			MOV	#-^D6,R1	; ..SHIFT COUNT TO R1
   6224	011616					CALL	.TPSHI		; ..SHIFT THE DATA
	011616	004737 	000000G			 JSR	PC,.TPSHI
   6225	011622	042710 	170077 			BIC	#170077,(R0)	; ..JUST THE BITS WE WANT
   6226	011626	051002 				BIS	(R0),R2		; ..SAVE THE HIGH FLAGS IN R2
   6227	011630	005001 				CLR	R1		; ..CLEAR R1 AGAIN
   6228	011632	012700 	000264 			MOV	#FR.132,R0	; ..FR CODE FOR LAST FLAG BIT
   6229	011636					CALL	.FREAD		; ..READ IT
	011636	004737 	000000G			 JSR	PC,.FREAD
   6230	011642	032760 	000001 	000004 		BIT	#BIT00,4(R0)	; ..IS IT ON?
   6231	011650	001402 				BEQ	10$		; ..NO -- JUST EXIT
   6232	011652	052702 	010000 			BIS	#PC.OVF,R2	; ..YES -- SET IT IN OUR WORD
   6233	011656				10$:
   6234	011656	010200 				MOV	R2,R0		; ..PUT A COPY IN R0
   6235	011660					POP	<R2,R1>		; ..RESTORE REGISTERS
	011660	012602 				 MOV	(SP)+,R2
	011662	012601 				 MOV	(SP)+,R1
   6236	011664					RETURN			; TO CALLER
	011664	000207 				 RTS	PC
SAVEC -- SAVE/RESTORE COMMAND D	MACRO M1113  03-APR-86 22:56  PAGE 159
.SAVPC -- PC READ SUBROUTINE 8306.17

   6238					.SBTTL	.SAVPC -- PC READ SUBROUTINE 8306.17
   6239
   6240					;+
   6241					; .SAVPC -- SUBROUTINE TO READ THE KL PROGRAM COUNTER REGISTER
   6242					;
   6243					; THESE SUBROUTINES READ AND ASSEMBLE THE VMA PC BOARD REGISTER
   6244					; INTO A THREE WORD BLOCK POINTED TO BY R1 IN THE CALL.
   6245					;
   6246					; INPUT ARGUMENTS:
   6247					;
   6248					;	R1 POINTS TO A TWO WORD BUFFER FOR THE SPECIFIED REGISTER
   6249					;
   6250					; OUTPUT ARGUMENTS:
   6251					;
   6252					;	R1 POINTS TO A TWO WORD BUFFER FOR THE SPECIFIED REGISTER
   6253					;
   6254					; ERROR CODES RETURNED:
   6255					;
   6256					;	FRF -- FUNCTION READ FAILED.
   6257					;-
   6258
   6259						.ENABL	LSB
   6260
   6261	011666				.SAVPC:
   6262	011666	012700 	000750'			MOV	#SVPCTB,R0	; POINTER TO PC TABLE
   6263	011672					CALL	R5,.REGSV	; SAVE R5 - R1 ON THE STACK
	011672	004537 	000000G			 JSR	R5,.REGSV
   6264	011676	010005 				MOV	R0,R5		; TABLE POINTER TO R5
   6265	011700	012704 	000004 			MOV	#^D4,R4		; ITERATION COUNT TO R4
   6266	011704	010103 				MOV	R1,R3		; USER BUFFER ADDRESS TO R3
   6267	011706	012502 				MOV	(R5)+,R2	; FUNCTION READ BASE TO R2
   6268	011710					PUSH	(R5)+		; MASK WORD TO TOP OF THE STACK
	011710	012546 				 MOV	(R5)+,-(SP)
   6269	011712	011505 				MOV	(R5),R5		; .SHIFT BASE TO R5
   6270	011714	010100 				MOV	R1,R0		; .CLEAR CALLER'S AREA
   6271	011716					CALL	.TPCLR		; .SO
	011716	004737 	000000G			 JSR	PC,.TPCLR
   6272	011722				20$:
   6273	011722	010200 				MOV	R2,R0		; .SET THE FUNCTION READ NUMBER
   6274	011724	006300 				ASL	R0		; .TIMES 2
   6275	011726	005001 				CLR	R1		; .CLEAR R1
   6276	011730					CALL	.FREAD		; .READ IT
	011730	004737 	000000G			 JSR	PC,.FREAD
   6277	011734	041620 				BIC	(SP),(R0)+	; .SP POINTS TO BIT MASK
   6278	011736	041610 				BIC	(SP),(R0)	; .R0 POINTS TO READ BLOCK
   6279	011740	005740 				TST	-(R0)		; .NOW BACK THE POINTER UP
   6280	011742	010501 				MOV	R5,R1		; .GET THE SHIFT COUNT INTO R1
   6281	011744					CALL	.TPSHI		; .AND SHIFT IT
	011744	004737 	000000G			 JSR	PC,.TPSHI
   6282	011750	052023 				BIS	(R0)+,(R3)+	; .SET THE BITS IN THE USER BUFFER
   6283	011752	051013 				BIS	(R0),(R3)	; .SO
   6284	011754	005743 				TST	-(R3)		; .BACK CALLER'S POINTER UP
   6289	011756	122225 				CMPB	(R2)+,(R5)+	; .INCREMENT READ NUMBER AND SHIFT COUNT
   6291	011760	077420 				SOB	R4,20$		; .DO THIS FOUR TIMES
   6292	011762	042763 	177600 	000002 		BIC	#177600,2(R3)	; .GET RID OF BITS HIGHER THAN 13
   6293	011770	005726 				TST	(SP)+		; CLEAR THE STACK
   6294	011772					RETURN			; RETURN TO CALLER
SAVEC -- SAVE/RESTORE COMMAND D	MACRO M1113  03-APR-86 22:56  PAGE 159-1
.SAVPC -- PC READ SUBROUTINE 8306.17

	011772	000207 				 RTS	PC
   6295
   6296						.DSABL	LSB
   6297
   6298					; TABLE FOR VMA PC BOARD READS
   6299
   6300	000750				.PSECT	DATA
   6301	000750				SVPCTB:
   6302	000750	000150 				.WORD	FR.150/2	; BASE READ FOR PC REGISTER
   6303	000752	135673 				.WORD	135673		; BIT MASK   "  "     "
   6304	000754	177776 				.WORD	-^D2		; SHIFT CNT  "  "     "
   6305	011774				.PSECT
SAVEC -- SAVE/RESTORE COMMAND D	MACRO M1113  03-APR-86 22:56  PAGE 160
.SAVPC -- PC READ SUBROUTINE 8306.17

   6307
   6308
   6309					.TITLE	SCACB -- SET AC-BLOCK COMMAND MODULE
   6310
   6311						.IDENT	"006110"
   6312
   6313					;                             COPYRIGHT (C) 1979, 1984, 1985 BY
   6314					;                     DIGITAL EQUIPMENT CORPORATION, MAYNARD MASS.
   6315					;			ALL RIGHTS RESERVED.
   6316					;       THIS SOFTWARE IS FURNISHED UNDER A LICENSE AND MAY BE  USED  AND  COPIED
   6317					;       ONLY IN ACCORDANCE WITH THE TERMS OF SUCH LICENSE AND WITH THE INCLUSION
   6318					;       OF THE ABOVE COPYRIGHT NOTICE.  THIS SOFTWARE OR ANY OTHER COPIES THERE-
   6319					;       OF  MAY NOT BE PROVIDED OR OTHERWISE MADE AVAILABLE TO ANY OTHER PERSON.
   6320					;       NO TITLE TO OR OWNERSHIP OF THE SOFTWARE IS HEREBY TRANSFERRED.
   6321					;
   6322					;       THE INFORMATION CONTAINED IN THIS SOFTWARE IS SUBJECT TO CHANGE  WITHOUT
   6323					;       NOTICE  AND SHOULD NOT BE CONSTRUED AS A COMMITMENT BY DIGITAL EQUIPMENT
   6324					;       CORPORATION.
   6325					;
   6326					;       DIGITAL ASSUMES NO RESPONSIBILITY FOR THE  USE  OR  RELIABILITY  OF  ITS
   6327					;       SOFTWARE ON EQUIPMENT WHICH IS NOT SUPPILED BY DIGITAL.
   6328					;
   6329					;		MODULE: SET AC-BLOCK
   6330					;
   6331					;		VERSION: 06-11
   6332					;
   6333					;		AUTHOR: K.LEFEBVRE
   6334					;
   6335					;		DATE: 12-SEP-79
   6336					;
   6337					;	THIS MODULE CONTAINS:
   6338					;
   6339					;		1) SET AC-BLOCK N COMMAND
   6340					;		2) SWEEP N COMMAND
   6341					;
   6342					;	THESE COMMANDS WERE ADDED FOR TCO 5.1002
   6343
   6344						.MCALL	SETF$S
SCACB -- SET AC-BLOCK COMMAND M	MACRO M1113  03-APR-86 22:56  PAGE 161
.SCACB -- SET AC-BLOCK COMMAND

   6346					.SBTTL	.SCACB -- SET AC-BLOCK COMMAND
   6347
   6348					;+
   6349					; .SCACB -- SET AC-BLOCK COMMAND
   6350					;
   6351					; THIS ROUTINE WILL CAUSE THE SPECIFIED BLOCK TO BE THE CURRENT
   6352					; AC BLOCK REFERENCED BY THE KL.
   6353					;
   6354					; INPUT ARGUMENTS:
   6355					;
   6356					;	NONE
   6357					;
   6358					; OUTPUT ARGUMENTS:
   6359					;
   6360					;	NONE
   6361					;
   6362					; ERROR CODES RETURNED:
   6363					;
   6364					;	ILI -- ILLEGAL UNSTRUCTION
   6365					;	MRA -- MISSING REQUIRED ARGUMENT
   6366					;	NOR -- INPUT ARGUMENT NUMBER OUT OF RANGE
   6367					;-
   6368
   6369	011774				.SCACB::
   6370	011774	005737 	000000G			TST	.NOTSW		; IS THIS A CLEAR?
   6371	012000	001014 				BNE	SCAILI		; YES -- NOT ALLOWED
   6372	012002					CALL	.CKARG		; NO -- CHECK FOR AN ARGUMENT
	012002	004737 	000000G			 JSR	PC,.CKARG
   6373	012006					CALL	.GTELN		; GET THE ARGUMENT
	012006	004737 	000000G			 JSR	PC,.GTELN
   6374	012012	020027 	000007 			CMP	R0,#7		; IS THE ARGUMENT IN RANGE?
   6375	012016	101010 				BHI	SCANOR		; NO -- ERROR
   6376	012020					CALL	.CKRUN		; MAKE SURE KL NOT RUNNING
	012020	004737 	000000G			 JSR	PC,.CKRUN
   6377	012024	010002 				MOV	R0,R2		; SET BLOCK NO.
   6378	012026					CALLR	.SACBK		; YES -- SET AC BLOCK
	012026	000137 	012046'			 JMP	.SACBK
   6379
   6380	012032				SCAILI:
   6381	012032					ERROR$	ILI		; ERROR -- ILLEGAL INSTRUCTION
	012032	012746 	035051 			 MOV	#^RILI,-(SP)
	012036	104400 				 TRAP	TC.ERR
   6382	012040				SCANOR:
   6383	012040					ERROR$	NOR		; ERROR -- INPUT NUMBER OUT OF RANGE
	012040	012746 	054752 			 MOV	#^RNOR,-(SP)
	012044	104400 				 TRAP	TC.ERR
SCACB -- SET AC-BLOCK COMMAND M	MACRO M1113  03-APR-86 22:56  PAGE 162
.SACBK -- SET AC BLOCK ROUTINE

   6385					.SBTTL	.SACBK -- SET AC BLOCK ROUTINE
   6386
   6387					;+
   6388					; .SACBK -- SUBROUTINE TO SET KL AC BLOCK
   6389					;
   6390					; THIS ROUTINE WILL:
   6391					;	1. INSERT INSTR OBJECT INTO KL LOC 100
   6392					;	2. EXECUTE DATAO PAG,,100 TO SET AC BLOCK
   6393					;
   6394					; INPUT ARGUMENTS:
   6395					;
   6396					;	R2=AC BLOCK NO. TO SET
   6397					;
   6398					; OUTPUT ARGUMENTS:
   6399					;
   6400					;	NONE
   6401					;
   6402					; ERROR CODES RETURNED:
   6403					;
   6404					;	CCC -- CAN'T CLEAR KL10 CLOCK
   6405					;	CCR -- CAN'T CLEAR KL10 RUN FLOP
   6406					;	CCS -- KL10 CLOCK CAN'T START
   6407					;	CES -- CLOCK ERROR STOP
   6408					;	CFH -- CAN'T FIND KL10 HALT LOOP
   6409					;	CSC -- CAN'T SYNC KL10 CLOCK
   6410					;	DMF -- DEPOSIT KL10 MEMORY FAILED
   6411					;	DSF -- DTE20 STATUS FAILURE
   6412					;	ECT -- EBOX CLOCK TIME OUT
   6413					;	ESD -- EBOX STOPPED - DEPOSIT
   6414					;	FRF -- FUNCTION READ FAILED
   6415					;	FWF -- FUNCTION WRITE FAILED
   6416					;	FXF -- FUNCTION EXECUTE FAILED
   6417					;	MAE -- MODE ARGUMENT ERROR
   6418					;	XTO -- EXECUTE TIMED OUT
   6419					;-
   6420
   6421	012046				.SACBK::
   6422	012046	005000 				CLR	R0		; CALL .WHACB ON EXIT FLAG
   6423	012050				.SACB1::			; ALTERNATE ENTRY POINT
   6424	012050					PUSH	<R0,R2>		; SAVE NEW AC BLOCK NO.
	012050	010046 				 MOV	R0,-(SP)
	012052	010246 				 MOV	R2,-(SP)
   6425	012054	006302 				ASL	R2		; POSITION AC BLOCK NO.
   6426	012056	006302 				ASL	R2		; POSITION AC BLOCK NO.
   6427	012060	006302 				ASL	R2		; POSITION AC BLOCK NO.
   6428	012062	110237 	000771'			MOVB	R2,ACDAT+3	; PUT BLOCK NO. INTO INSTR
   6429	012066	012701 	000756'			MOV	#DEPBLK,R1	; SET UP DEPOSIT DATA BLOCK
   6430	012072	012700 	000200 			MOV	#ED.PHY,R0	; PUT IN PHYSICAL SPACE
   6431					;	MOV	#ED.EXV,R0	; PUT IN EXEC VIRTUAL SPACE
   6432	012076					CALL	.DPKLM		; DEPOSIT INSTR OBJECT IN MEMORY
	012076	004737 	000000G			 JSR	PC,.DPKLM
   6433	012102	103404 				BCS	10$		; ERROR
   6434	012104	012700 	000774'			MOV	#SETACI,R0	; INSTR PTR
   6435	012110					CALL	.EXCTF		; EXECUTE INSTR
	012110	004737 	000000G			 JSR	PC,.EXCTF
   6436	012114				10$:	POP	<R2,R0>		; RESTORE R2
	012114	012602 				 MOV	(SP)+,R2
SCACB -- SET AC-BLOCK COMMAND M	MACRO M1113  03-APR-86 22:56  PAGE 162-1
.SACBK -- SET AC BLOCK ROUTINE

	012116	012600 				 MOV	(SP)+,R0
   6437	012120	005700 				TST	R0		; PRINT AC BLOCK?
   6438	012122	001002 				BNE	20$		; NO -- EXIT
   6439	012124					CALL	.WHACB		; YES -- OUTPUT CURRENT AC BLOCK NO.
	012124	004737 	012132'			 JSR	PC,.WHACB
   6440	012130				20$:	RETURN			; EXIT
	012130	000207 				 RTS	PC
   6441
   6442	000756				.PSECT	DATA
   6443
   6444	000756	000762'			DEPBLK:	.WORD	TEMADR		; OBJECT ADDR PTR
   6445	000760	000766'				.WORD	ACDAT		; DEPOSIT DATA PTR
   6446	000762	000100 			TEMADR:	.WORD	100		; ADDR BITS 20-35
   6447	000764	000000 				.WORD	0		; ADDR BITS 14-19
   6448	000766	000000 			ACDAT:	.WORD	0		; DATA BITS 20-35
   6449	000770	000000 				.WORD	0		; DATA BITS 4-19
   6450	000772	000010 				.WORD	10		; DATA BITS 0-3
   6451
   6452	000774				SETACI:	IOKL$	DATAO	PAG,,100	; SET AC INSTR
	000774	   100 	   000 			 .BYTE	$$A,$$B
	000776	   200 	   011 			 .BYTE	$$C,$$D
	001000	   016 	   000 			 .BYTE	$$E,$$F
   6453
   6454	012132				.PSECT
SCACB -- SET AC-BLOCK COMMAND M	MACRO M1113  03-APR-86 22:56  PAGE 163
.WHACB -- WHAT AC BLOCK COMMAND

   6456					.SBTTL	.WHACB -- WHAT AC BLOCK COMMAND
   6457
   6458	012132				.WHACB::
   6459	012132					PUSH	R1		; SAVE R1
	012132	010146 				 MOV	R1,-(SP)
   6460	012134	012700 	002402'			MOV	#WACMSG,R0	; WHAT AC BLOCK MESSAGE
   6461	012140					CALL	.TYMSG		; PRINT IT
	012140	004737 	000000G			 JSR	PC,.TYMSG
   6462	012144	005001 				CLR	R1		; NO FM ADDR BUFFER
   6463	012146					CALL	.RDFMA		; GET CURRENT AC BUFFER
	012146	004737 	000000G			 JSR	PC,.RDFMA
   6464	012152	000300 				SWAB	R0		; BLOCK NO. IN LOW BYTE NOW
   6465	012154	042700 	177600 			BIC	#177600,R0	; GET RID OF EXCESS BITS
   6469	012160	005046 				CLR	-(SP)		; NO. BUFFER ON STACK
   6470	012162	005046 				CLR	-(SP)		; BUFFER
   6471	012164	010046 				MOV	R0,-(SP)	; BUFFER
   6472	012166	010600 				MOV	SP,R0		; BUFFER PTR
   6473	012170	005037 	000000G			CLR	.LDZFL		; NO LEADING ZEROS
   6474	012174					CALL	.TYKLN		; OUTPUT VALUE
	012174	004737 	000000G			 JSR	PC,.TYKLN
   6475	012200	062706 	000006 			ADD	#6,SP		; POP OFF BUFFER
   6476	012204					CALL	.TCRLF		; TYPE CR-LF
	012204	004737 	000000G			 JSR	PC,.TCRLF
   6477	012210					POP	R1		; RESTORE R1
	012210	012601 				 MOV	(SP)+,R1
   6478	012212					RETURN			; DONE
	012212	000207 				 RTS	PC
   6479
   6480	002402				.PSECT	MESSAG
   6481
   6482	002402	   040 	   101 	   103 	WACMSG:	.ASCIZ	% AC-BLOCK: %
	002405	   055 	   102 	   114
	002410	   117 	   103 	   113
	002413	   072 	   040 	   000
   6483
   6484	012214				.PSECT
SCACB -- SET AC-BLOCK COMMAND M	MACRO M1113  03-APR-86 22:56  PAGE 164
.SWPC -- SWEEP AC BLOCK COMMAND

   6486					.SBTTL	.SWPC -- SWEEP AC BLOCK COMMAND
   6487
   6488					;+
   6489					; .SWPC -- SWEEP AC BLOCK COMMAND ROUTINE
   6490					;
   6491					; THIS ROUTINE
   6492					;
   6493					; INPUT ARGUMENTS:
   6494					;
   6495					;	NONE
   6496					;
   6497					; OUTPUT ARGUMENTS:
   6498					;
   6499					;	NONE
   6500					;
   6501					; ERROR CODES RETURNED:
   6502					;
   6503					;	XXX
   6504					;-
   6505
   6506	012214				.SWPC::
   6507	012214	005037 	000000G			CLR	.PASS		; [4.1.1049]CLEAR PASS FLAG
   6508	012220	005037 	001002'			CLR	FMERR		; [4.1.1049]CLEAR ERROR COUNT
   6509	012224					PUSH	.NOERR		; SAVE ERROR,HALT STATUS
	012224	013746 	000000G			 MOV	.NOERR,-(SP)
   6510	012230	012737 	000401 	000000G		MOV	#401,.NOERR	; IGNORE KL ERRORS
   6511	012236	012737 	000001 	000000G		MOV	#1,.SWPIP	; SET SWEEP IN PROGRESS
   6512	012244	005001 				CLR	R1		; NO DATA BUFFER
   6513	012246					CALL	.RDFMA		; READ CURRENT BLOCK NO.
	012246	004737 	000000G			 JSR	PC,.RDFMA
   6514	012252	000300 				SWAB	R0		; GET BLOCK IN LOW BYTE
   6515	012254	042700 	177600 			BIC	#177600,R0	; CLEAR EXTRA BITS
   6516	012260	010037 	001014'			MOV	R0,SAVBLK	; SAVE BLOCK NO.
   6517	012264					CALL	.RDIPE		; READ PARITY FLAGS
	012264	004737 	000000G			 JSR	PC,.RDIPE
   6518	012270					PUSH	R0		; [4.1.1049]SAVE PARITY FLAG
	012270	010046 				 MOV	R0,-(SP)
   6519	012272	032700 	000010 			BIT	#10,R0		; FM ERROR?
   6520	012276	001416 				BEQ	10$		; NO -- GO ON
   6521	012300	012700 	002416'			MOV	#FMHED,R0	; YES -- FM ERROR MESSAGE HEADER
   6522	012304					CALL	.TYMSG		; TYPE IT
	012304	004737 	000000G			 JSR	PC,.TYMSG
   6523	012310	012700 	001004'			MOV	#FMBUF,R0	; DATA BUFFER
   6524	012314	013702 	001014'			MOV	SAVBLK,R2	; CURRENT BLOCK NO.
   6525	012320					CALL	.RDFMO		; READ CURRENT FM DATA
	012320	004737 	000000G			 JSR	PC,.RDFMO
   6526	012324					CALL	.TYAC1		; TYPE FM DATA
	012324	004737 	000000G			 JSR	PC,.TYAC1
   6527	012330					CALL	.RSSWP		; RESET KL
	012330	004737 	012652'			 JSR	PC,.RSSWP
   6528	012334				10$:	POP	R0		; [4.1.1049]RESTORE PARITY FLAG
	012334	012600 				 MOV	(SP)+,R0
   6529	012336	132764 	000010 	000000G		BITB	#CH.EOC,.CHTAB(R4)	; IS THERE AN ARGUMENT?
   6530	012344	001011 				BNE	15$		; NO -- SWEEP ALL BLOCKS
   6531	012346					CALL	.GTELN		; YES -- GET IT
	012346	004737 	000000G			 JSR	PC,.GTELN
   6532	012352	020027 	000007 			CMP	R0,#7		; IS ARGUMENT IN RANGE?
SCACB -- SET AC-BLOCK COMMAND M	MACRO M1113  03-APR-86 22:56  PAGE 164-1
.SWPC -- SWEEP AC BLOCK COMMAND

   6533	012356	101230 				BHI	SCANOR		; NO -- ERROR
   6534	012360	010002 				MOV	R0,R2		; YES -- SET ARGUMENT
   6535	012362					CALL	.SWPAC		; SWEEP BLOCK
	012362	004737 	012514'			 JSR	PC,.SWPAC
   6536	012366	000437 				BR	30$		; DONE
   6537	012370	032700 	000010 		15$:	BIT	#10,R0		; [4.1.1049]FM ERROR?
   6538	012374	001442 				BEQ	40$		; [4.1.1049]NO -- DONE
   6539	012376	012702 	000007 		17$:	MOV	#7,R2		; YES -- START WITH LAST BLOCK
   6540	012402				20$:	CALL	.SWPAC		; SWEEP IT
	012402	004737 	012514'			 JSR	PC,.SWPAC
   6541	012406	005302 				DEC	R2		; NEXT AC BLOCK
   6542	012410	002374 				BGE	20$		; DONE?
   6543	012412	005737 	001002'			TST	FMERR		; [4.1.1049]ANY ERRORS?
   6544	012416	001423 				BEQ	30$		; [4.1.1049]NO -- GO ON
   6545	012420	005737 	000000G			TST	.PASS		; [4.1.1049]YES -- PASS 2?
   6546	012424	001005 				BNE	25$		; [4.1.1049]YES -- ABORT RELOAD
   6547	012426	005237 	000000G			INC	.PASS		; [4.1.1049]NO -- SET SECOND PASS
   6548	012432	005037 	001002'			CLR	FMERR		; [4.1.1049]CLEAR ERROR COUNT
   6549	012436	000757 				BR	17$		; [4.1.1049]RESWEEP
   6550	012440	012700 	002462'		25$:	MOV	#FMABO,R0	; [4.1.1049]ABORT MESSAGE
   6551	012444					CALL	.TYLIN		; [4.1.1049]TYPE IT
	012444	004737 	000000G			 JSR	PC,.TYLIN
   6552	012450	032737 	000000G	000000G		BIT	#KL.REQ,.KLIWD	; [4.1.1049]KLI REQUESTED
   6553	012456	001403 				BEQ	30$		; [4.1.1049]NO -- DONE
   6554	012460	052737 	000000G	000000G		BIS	#KL.ABO,.KLIWD	; [4.1.1049]YES -- ABORT RELOAD
   6555	012466	013702 	001014'		30$:	MOV	SAVBLK,R2	; YES -- RESTORE ORIGINAL AC BLOCK
   6556	012472	012700 	000001 			MOV	#1,R0		; SET NO WHAT AC FLAG
   6557	012476					CALL	.SACB1		; SET AC BLOCK
	012476	004737 	012050'			 JSR	PC,.SACB1
   6558	012502	005037 	000000G		40$:	CLR	.SWPIP		; CLEAR SWEEP IN PROGRESS
   6559	012506					POP	.NOERR		; RESTORE ERROR,HALT STATUS
	012506	012637 	000000G			 MOV	(SP)+,.NOERR
   6560	012512					RETURN			; EXIT
	012512	000207 				 RTS	PC
   6561
   6562	001002				.PSECT	DATA
   6563
   6564	001002	000000 			FMERR:	.WORD	0		; [4.1.1049]ERROR COUNT
   6565	001004	000000 	000000 	000000 	FMBUF:	.WORD	0,0,0,0
	001012	000000
   6566
   6567	001014	000000 			SAVBLK:	.WORD	0		; ORIGINAL AC BLOCK NO.
   6568
   6569	002416				.PSECT	MESSAG
   6570
   6571	002416	   040 	   106 	   115 	FMHED:	.ASCIZ	% FM PARITY ERROR-(BLOCK:ADDR/DATA) %
	002421	   040 	   120 	   101
	002424	   122 	   111 	   124
	002427	   131 	   040 	   105
	002432	   122 	   122 	   117
	002435	   122 	   055 	   050
	002440	   102 	   114 	   117
	002443	   103 	   113 	   072
	002446	   101 	   104 	   104
	002451	   122 	   057 	   104
	002454	   101 	   124 	   101
	002457	   051 	   040 	   000
SCACB -- SET AC-BLOCK COMMAND M	MACRO M1113  03-APR-86 22:56  PAGE 164-2
.SWPC -- SWEEP AC BLOCK COMMAND

   6572	002462	   040 	   125 	   116 	FMABO:	.ASCIZ	% UNRECOVERABLE FM PARITY ERROR - RELOAD CANCELED%
	002465	   122 	   105 	   103
	002470	   117 	   126 	   105
	002473	   122 	   101 	   102
	002476	   114 	   105 	   040
	002501	   106 	   115 	   040
	002504	   120 	   101 	   122
	002507	   111 	   124 	   131
	002512	   040 	   105 	   122
	002515	   122 	   117 	   122
	002520	   040 	   055 	   040
	002523	   122 	   105 	   114
	002526	   117 	   101 	   104
	002531	   040 	   103 	   101
	002534	   116 	   103 	   105
	002537	   114 	   105 	   104
	002542	   000
   6573
   6574	012514				.PSECT
SCACB -- SET AC-BLOCK COMMAND M	MACRO M1113  03-APR-86 22:56  PAGE 165
.SWPAC -- SWEEP ALL AC BLOCKS FOR FM PARITY ERROR

   6576					.SBTTL	.SWPAC -- SWEEP ALL AC BLOCKS FOR FM PARITY ERROR
   6577
   6578					;+
   6579					; .SWPAC -- SUBROUTINE TO READ ALL AC'S TO LOCATE FM PARITY ERRORS
   6580					;
   6581					; THIS ROUTINE WILL:
   6582					;	0. TYPE CURRENT LOCKED UP FM ADDR AND DATA
   6583					;	1. DISABLE PARITY ERROR STOPS AND CLEAR CLOCK ERROR STOP
   6584					;	2. PUT KL IN HALT LOOP
   6585					;	3. START KL CLOCK
   6586					;	4. SET AC BLOCK
   6587					;	5. READ AC'S
   6588					;	6. IF FM PARITY ERROR SET TYPE ERROR
   6589					;	7. REPEAT 4-6 FOR EACH BLOCK
   6590					;	8. RESTORE ORIGINAL AC BLOCK
   6591					;
   6592					; INPUT ARGUMENTS:
   6593					;
   6594					;	R2=AC BLOCK TO SWEEP
   6595					;
   6596					; OUTPUT ARGUMENTS:
   6597					;
   6598					;	NONE
   6599					;
   6600					; ERROR CODES RETURNED:
   6601					;
   6602					;	CCC -- CAN'T CLEAR KL10 CLOCK
   6603					;	CCR -- CAN'T CLEAR KL10 RUN FLOP
   6604					;	CCS -- KL10 CLOCK CAN'T START
   6605					;	CES -- CLOCK ERROR STOP
   6606					;	CFH -- CAN'T FIND KL10 HALT LOOP
   6607					;	CSC -- CAN'T SYNC KL10 CLOCK
   6608					;	DMF -- DEPOSIT KL10 MEMORY FAILED
   6609					;	DSF -- DTE20 STATUS FAILURE
   6610					;	ECT -- EBOX CLOCK TIME OUT
   6611					;	ESD -- EBOX STOPPED - DEPOSIT
   6612					;	EMF -- EXAMINE KL10 MEMORY FAILED
   6613					;	ESE -- EBOX STOPPED - EXAMINE
   6614					;	FRF -- FUNCTION READ FAILED
   6615					;	FSW -- FM SWEEP ERROR
   6616					;	FWF -- FUNCTION WRITE FAILED
   6617					;	FXF -- FUNCTION EXECUTE FAILED
   6618					;	XTO -- EXECUTE TIMED OUT
   6619					;-
   6620
   6621	012514				.SWPAC::
   6622	012514	012700 	000001 			MOV	#1,R0		; SET NO WHAT AC FLAG
   6623	012520					CALL	.SACB1		; SET AC BLOCK
	012520	004737 	012050'			 JSR	PC,.SACB1
   6624	012524	012737 	000020 	001026'		MOV	#20,ACADR	; SET UP FOR 16 AC'S
   6625	012532	005337 	001026'		10$:	DEC	ACADR		; DONE ALL AC'S
   6626	012536	002441 				BLT	20$		; YES -- EXIT
   6627	012540	012701 	001022'			MOV	#EXBLK,R1	; NO- SET EXAMINE DATA BLOCK
   6628	012544	012700 	000200 			MOV	#ED.PHY,R0	; EXAMINE PHYSICAL MEMORY
   6629	012550					CALL	.EXKLM		; EXAMINE AC
	012550	004737 	000000G			 JSR	PC,.EXKLM
   6630	012554	103366 				BCC	10$		; NO ERROR, NEXT AC
SCACB -- SET AC-BLOCK COMMAND M	MACRO M1113  03-APR-86 22:56  PAGE 165-1
.SWPAC -- SWEEP ALL AC BLOCKS FOR FM PARITY ERROR

   6631	012556					CALL	.DTDW1		; GET DTE STATUS WORD 1
	012556	004737 	000000G			 JSR	PC,.DTDW1
   6632	012562	032700 	004000 			BIT	#D1.CES,R0	; CLOCK ERROR STOP?
   6633	012566	001426 				BEQ	SWPFSW		; NO -- OTHER ERROR
   6634	012570					CALL	.RDFMP		; YES -- CHECK	FOR FM PARITY ERROR
	012570	004737 	000000G			 JSR	PC,.RDFMP
   6635	012574	005700 				TST	R0		; PARITY ERROR? 0=ERROR, 1=OK
   6636	012576	001022 				BNE	SWPFSW		; NO -- ERROR
   6637	012600	005237 	001002'			INC	FMERR		; [4.1.1049]YES -- COUNT IT
   6638	012604	012700 	001004'			MOV	#FMBUF,R0	; FM REGISTER BUFFER
   6639	012610					CALL	.RDFMO		; READ FM INFO
	012610	004737 	000000G			 JSR	PC,.RDFMO
   6640	012614					CALL	.TYACE		; TYPE AC INFO
	012614	004737 	000000G			 JSR	PC,.TYACE
   6641	012620					CALL	.RSSWP		; RESET SWEEP PARITY STOPS
	012620	004737 	012652'			 JSR	PC,.RSSWP
   6642	012624	012701 	001016'			MOV	#GOOBLK,R1	; [4.1.1049]GOOD DATA BLOCK
   6643	012630	012700 	000200 			MOV	#ED.PHY,R0	; [4.1.1049]PHYSICAL SPACE
   6644	012634					CALL	.DPKLM		; [4.1.1049]WRITE BACK GOOD DATA
	012634	004737 	000000G			 JSR	PC,.DPKLM
   6645	012640	000734 				BR	10$		; NEXT AC
   6646	012642				20$:	RETURN			; EXIT
	012642	000207 				 RTS	PC
   6647						;
   6648	012644				SWPFSW:
   6649	012644					ERROR$	FSW		; ERROR -- FM SWEEP ERROR
	012644	012746 	024217 			 MOV	#^RFSW,-(SP)
	012650	104400 				 TRAP	TC.ERR
   6650
   6651	001016				.PSECT	DATA
   6652
   6653	001016	001026'			GOOBLK:	.WORD	ACADR
   6654	001020	001006'				.WORD	FMBUF+2
   6655	001022	001026'			EXBLK:	.WORD	ACADR		; AC ADDR PTR
   6656	001024	001032'				.WORD	EXDAT		; EXAMINE DATA BUFFER PTR
   6657	001026	000000 			ACADR::	.WORD	0		; AC ADDR BITS 20-35
   6658	001030	000000 				.WORD	0		; AC ADDR BITS 14-19
   6659	001032	000000 			EXDAT::	.WORD	0		; AC DATA BITS 20-35
   6660	001034	000000 				.WORD	0		; AC DATA BITS 4-19
   6661	001036	000000 				.WORD	0		; AC DATA BITS 0-3
   6662
   6663	012652				.PSECT
SCACB -- SET AC-BLOCK COMMAND M	MACRO M1113  03-APR-86 22:56  PAGE 166
.RSSWP -- RESET PARITY STOPS FOR FM SWEEP

   6665					.SBTTL	.RSSWP -- RESET PARITY STOPS FOR FM SWEEP
   6666
   6667					;+
   6668					; .RSSWP -- SUBROUTINE TO CLEAR CES, SET FM STOP, AND RESET AC BLOCK
   6669					;
   6670					; THIS ROUTINE WILL:
   6671					;	1. RESET KL
   6672					;	2. START CLOCK
   6673					;	3. RESET AC BLOCK
   6674					;
   6675					; INPUT ARGUMENTS:
   6676					;
   6677					;	R2- AC BLOCK NO. TO SET
   6678					;
   6679					; OUTPUT ARGUMENTS:
   6680					;
   6681					;	NONE
   6682					;
   6683					; ERROR CODES RETURNED:
   6684					;
   6685					;	CCC -- CAN'T CLEAR KL10 CLOCK
   6686					;	CCR -- CAN'T CLEAR KL10 RUN FLOP
   6687					;	CCS -- KL10 CLOCK CAN'T START
   6688					;	CES -- CLOCK ERROR STOP
   6689					;	CFH -- CAN'T FIND KL10 HALT LOOP
   6690					;	CSC -- CAN'T SYNC KL10 CLOCK
   6691					;	DMF -- DEPOSIT KL10 MEMORY FAILED
   6692					;	DSF -- DTE20 STATUS FAILURE
   6693					;	ECT -- EBOX CLOCK TIME OUT
   6694					;	ESD -- EBOX STOPPED - DEPOSIT
   6695					;	FRF -- FUNCTION READ FAILED
   6696					;	FWF -- FUNCTION WRITE FAILED
   6697					;	FXF -- FUNCTION EXECUTE FAILED
   6698					;	MAE -- MODE ARGUMENT ERROR
   6699					;	XTO -- EXECUTE TIMED OUT
   6700					;-
   6701	012652				.RSSWP::
   6702	012652					SETF$S	#E.FHTO		; SET HALT TIME-OUT FLAG
	012652	012746 	000001 			MOV	#E.FHTO,-(SP)
	012656	012746 				MOV	(PC)+,-(SP)
	012660	   041 	   002 			.BYTE	33.,2
	012662	104375 				EMT	375
   6703	012664					CALL	.RESTP		; RESET KL AND PARITY STOPS
	012664	004737 	000000G			 JSR	PC,.RESTP
   6704	012670					CALL	.STCLK		; START CLOCK
	012670	004737 	000000G			 JSR	PC,.STCLK
   6705	012674	012700 	000001 			MOV	#1,R0		; SET NO WHAT AC FLAG
   6706	012700					CALL	.SACB1		; SET AC BLOCK
	012700	004737 	012050'			 JSR	PC,.SACB1
   6707	012704				10$:	RETURN
	012704	000207 				 RTS	PC
   6708						;
SCACB -- SET AC-BLOCK COMMAND M	MACRO M1113  03-APR-86 22:56  PAGE 168
.RSSWP -- RESET PARITY STOPS FOR FM SWEEP

   6711
   6712					.TITLE	SCOUTC -- SET/CLEAR OUTPUT COMMAND MODULE
   6713
   6714						.IDENT	"006120"
   6715
   6716					;                             COPYRIGHT (C) 1979, 1984, 1985 BY
   6717					;                     DIGITAL EQUIPMENT CORPORATION, MAYNARD MASS.
   6718					;			ALL RIGHTS RESERVED.
   6719					;       THIS SOFTWARE IS FURNISHED UNDER A LICENSE AND MAY BE  USED  AND  COPIED
   6720					;       ONLY IN ACCORDANCE WITH THE TERMS OF SUCH LICENSE AND WITH THE INCLUSION
   6721					;       OF THE ABOVE COPYRIGHT NOTICE.  THIS SOFTWARE OR ANY OTHER COPIES THERE-
   6722					;       OF  MAY NOT BE PROVIDED OR OTHERWISE MADE AVAILABLE TO ANY OTHER PERSON.
   6723					;       NO TITLE TO OR OWNERSHIP OF THE SOFTWARE IS HEREBY TRANSFERRED.
   6724					;
   6725					;       THE INFORMATION CONTAINED IN THIS SOFTWARE IS SUBJECT TO CHANGE  WITHOUT
   6726					;       NOTICE  AND SHOULD NOT BE CONSTRUED AS A COMMITMENT BY DIGITAL EQUIPMENT
   6727					;       CORPORATION.
   6728					;
   6729					;       DIGITAL ASSUMES NO RESPONSIBILITY FOR THE  USE  OR  RELIABILITY  OF  ITS
   6730					;       SOFTWARE ON EQUIPMENT WHICH IS NOT SUPPILED BY DIGITAL.
   6731					;
   6732					;		MODULE: SET / CLEAR OUTPUT COMMAND
   6733					;
   6734					;		VERSION: 06-00
   6735					;
   6736					;		AUTHOR: K.LEFEBVRE
   6737					;
   6738					;		DATE: 6-SEP-79
   6739					;
   6740					;	THIS MODULE CONTAINS:
   6741					;
   6742					;	1) SET / CLEAR OUTPUT COMMAND CODE
   6743					;
   6744					;		THESE ROUTINES WERE ADDED FOR TCO 5.1000
   6745
   6746						.MCALL	DIR$,ALUN$,QIOW$,GTIM$S,QIOW$S
SCOUTC -- SET/CLEAR OUTPUT COMM	MACRO M1113  03-APR-86 22:56  PAGE 169
.SCOUT -- SET/CLEAR OUTPUT COMMAND

   6748					.SBTTL	.SCOUT -- SET/CLEAR OUTPUT COMMAND
   6749
   6750					;+
   6751					; .SCOUT -- SET/CLEAR OUTPUT COMMAND ROUTINE
   6752					;
   6753					; THIS ROUTINE WILL EXECUTE THE SET/CLEAR OUTPUT COMMAND. IF
   6754					; THE COMMAND "SET OUTPUT" IS GIVEN WITHOUT ANY OBJECT THEN THE
   6755					; TTY IS TURNED ON. IF THE COMMAND "CLEAR OUTPUT" IS GIVEN
   6756					; WITHOUT ANY OBJECT THEN THE LPT AND LOG ARE TURNED OFF AND THE
   6757					; TTY IS TURNED ON. WHENEVER A CLEAR OUTPUT IS GIVEN WITH OR
   6758					; WITHOUT AN OBJECT A CHECK IS MADE TO MAKE SURE SOME DEVICE IS
   6759					; OUTPUTTING. IF NO DEVICES ARE THEN THE TTY IS TURNED ON.
   6760					;
   6761					; INPUT ARGUMENTS:
   6762					;
   6763					;	NONE
   6764					;
   6765					; OUTPUT ARGUMENTS:
   6766					;
   6767					;	NONE
   6768					;
   6769					; ERROR CODES RETURNED:
   6770					;
   6771					;	CAL -- CAN'T ASSIGN LUN
   6772					;	DNF -- DIRECTORY FILE NOT FOUND
   6773					;	FCF -- FILE CLOSE FAILURE
   6774					;	FEF -- FILE EXTEND FAILURE
   6775					;	FEN -- FILE ENTER FAILURE
   6776					;	FLF -- FILE LOOKUP FAILURE
   6777					;	FOF -- FILE OPEN FAILURE
   6778					;	FWT -- FILE WRITE FAILURE
   6779					;-
   6780
   6781	012706				.SCOUT::
   6782	012706	132764 	000010 	000000G		BITB	#CH.EOC,.CHTAB(R4)	; IS THERE AN OBJECT?
   6783	012714	001414 				BEQ	20$		; NO -- GET OBJECT
   6784	012716	005737 	000000G			TST	.NOTSW		; YES -- IS THIS A CLEAR?
   6785	012722	001406 				BEQ	10$		; NO -- SET CONSOLE OUTPUT
   6786	012724					CALL	.SCOTL		; YES -- CLEAR LOG OUTPUT
	012724	004737 	012774'			 JSR	PC,.SCOTL
   6787	012730					CALL	.SCOTP		; CLEAR PRINTER OUTPUT
	012730	004737 	013354'			 JSR	PC,.SCOTP
   6788	012734				5$:	CALLR	.WHOUT		; OUTPUT STATUS
	012734	000137 	013510'			 JMP	.WHOUT
   6789	012740				10$:	CALL	.SCOTY		; SET CONSOLE OUTPUT
	012740	004737 	013442'			 JSR	PC,.SCOTY
   6790	012744	000773 				BR	5$		; OUTPUT STATUS
   6791	012746				20$:	CALL	.CKOBJ		; MUST HAVE AN OBJECT
	012746	004737 	000000G			 JSR	PC,.CKOBJ
   6792	012752	012700 	000000G			MOV	#.SCOTT,R0	; TABLE POINTER TO R0
   6793	012756					CALL	.TSCAN		; SCAN THE TABLE
	012756	004737 	000000G			 JSR	PC,.TSCAN
   6794	012762					CALL	.CKEOC		; MUST HAVE E-O-C
	012762	004737 	000000G			 JSR	PC,.CKEOC
   6795	012766					CALL	@2(R0)		; EXECUTE THE COMMAND
	012766	004770 	000002 			 JSR	PC,@2(R0)
   6796	012772	000760 				BR	5$		; OUTPUT STATUS
SCOUTC -- SET/CLEAR OUTPUT COMM	MACRO M1113  03-APR-86 22:56  PAGE 169-1
.SCOUT -- SET/CLEAR OUTPUT COMMAND

   6797						;
SCOUTC -- SET/CLEAR OUTPUT COMM	MACRO M1113  03-APR-86 22:56  PAGE 170
.SCOTL -- SET/CLEAR OUTPUT LOG COMMAND

   6799					.SBTTL	.SCOTL -- SET/CLEAR OUTPUT LOG COMMAND
   6800
   6801					;+
   6802					; .SCOTL -- SET/CLEAR OUTPUT LOG COMMAND ROUTINE
   6803					;
   6804					; THIS ROUTINE WILL OPEN OR CLOSE A LOG FILE AND DIRECT OUTPUT
   6805					; TO THIS FILE.
   6806					;
   6807					; INPUT ARGUMENTS:
   6808					;
   6809					;	NONE
   6810					;
   6811					; OUTPUT ARGUMENTS:
   6812					;
   6813					;	NONE
   6814					;
   6815					; ERROR CODES RETURNED:
   6816					;
   6817					;	CAL -- CAN'T ASSIGN LUN
   6818					;	DNF -- DIRECTORY FILE NOT FOUND
   6819					;	FCF -- FILE CLOSE FAILURE
   6820					;	FEF -- FILE EXTEND FAILURE
   6821					;	FEN -- FILE ENTER FAILURE
   6822					;	FLF -- FILE LOOKUP FAILURE
   6823					;	FOF -- FILE OPEN FAILURE
   6824					;	FWT -- FILE WRITE FAILURE
   6825					;-
   6826
   6827	012774				.SCOTL::
   6828	012774	005737 	000000G			TST	.NOTSW		; IS THIS A CLEAR?
   6829	013000	001433 				BEQ	25$		; NO -- TURN LOGGING ON
   6830	013002	105737 	000000G			TSTB	.OUTLG		; LOGGING ALREADY OFF?
   6831	013006	001530 				BEQ	30$		; YES -- EXIT
   6832	013010	012700 	002610'			MOV	#LGFMSG,R0	; NO -- FINISH LOG MESSAGE
   6833	013014					CALL	.TYMSG		; TYPE IT
	013014	004737 	000000G			 JSR	PC,.TYMSG
   6834	013020					CALL	TYLGMS		; LOG TIME AND DATE
	013020	004737 	013272'			 JSR	PC,TYLGMS
   6835	013024					CALL	.TCRLF		; OUTPUT CR-LF
	013024	004737 	000000G			 JSR	PC,.TCRLF
   6836	013030					CALL	.TCRLF		; OUTPUT CR-LF
	013030	004737 	000000G			 JSR	PC,.TCRLF
   6837	013034					CALL	.WRITZ		; OUTPUT FINAL BLOCK
	013034	004737 	000000G			 JSR	PC,.WRITZ
   6838	013040	012700 	000000G			MOV	#.OTFN,R0	; FILE NAME
   6839	013044	012701 	000000G			MOV	#.OTATT,R1	; ATTRIBUTE BLOCK
   6840	013050	012702 	000004 			MOV	#LOGLUN,R2	; LUN
   6841	013054					CALL	.CLOSE		; CLOSE FILE
	013054	004737 	000000G			 JSR	PC,.CLOSE
   6842	013060	105037 	000000G			CLRB	.OUTLG		; YES -- CLEAR LOG FLAG
   6843	013064					CALLR	.SCOTC		; MAKE SURE SOME OUTPUT DEVICE IS ON
	013064	000137 	013466'			 JMP	.SCOTC
   6844						;
   6845	013070	105737 	000000G		25$:	TSTB	.OUTLG		; LOGGING ALREADY ON?
   6846	013074	001075 				BNE	30$		; YES -- EXIT
   6847	013076	012700 	000000G			MOV	#.OTFN,R0	; NO -- FILE NAME
   6848	013102	012701 	000000G			MOV	#.OTFNB,R1	; FILE NAME BLOCK
SCOUTC -- SET/CLEAR OUTPUT COMM	MACRO M1113  03-APR-86 22:56  PAGE 170-1
.SCOTL -- SET/CLEAR OUTPUT LOG COMMAND

   6849	013106	012702 	000004 			MOV	#LOGLUN,R2	; LUN
   6850	013112	012704 	000000G			MOV	#IO.ACE,R4	; OPEN ACCESS RIGHTS
   6851	013116					CALL	.LOKUP		; LOOK UP FILE
	013116	004737 	000000G			 JSR	PC,.LOKUP
   6852	013122	103013 				BCC	27$		; FILE FOUND IF CC-C IS CLEAR
   6853	013124					CALL	.ENTER		; CREATE AND ENTER THE FILE
	013124	004737 	000000G			 JSR	PC,.ENTER
   6854	013130					CALL	.OPEN		; OPEN THE NEW FILE
	013130	004737 	000000G			 JSR	PC,.OPEN
   6855	013134	012737 	001002 	000000G		MOV	#1002,.OTATT	; SET FILE TYPE/ATTRIBUTES
   6856	013142	012737 	000001 	000006G		MOV	#1,.OTATT+6	; SET HIGHEST ALLOCATED BLOCK
   6857	013150	000402 				BR	29$		; GO ON
   6858	013152				27$:	CALL	.OPEN		; OPEN FILE
	013152	004737 	000000G			 JSR	PC,.OPEN
   6859	013156	012737 	000000G	000000G	29$:	MOV	#.BUFSZ,.OTBBC	; EMPTY BUFFER
   6860	013164	012737 	000000G	000000G		MOV	#.OTBUF,.OTPOS	; BUFFER ADDR
   6861	013172	013737 	000010G	000000G		MOV	.OTATT+10,.OTVBN	; HIGHEST USED BLOCK
   6862	013200	013737 	000012G	000002G		MOV	.OTATT+12,.OTVBN+2	; HIGHEST USED BLOCK
   6863	013206	012737 	000000G	000000G		MOV	#.RECRD,.RECPT	; RESET RECORD POINTER
   6864	013214	005037 	000000G			CLR	.RECNT		; CLEAR RECORD COUNT
   6865	013220	105237 	000000G			INCB	.OUTLG		; SET LOG FLAG
   6866	013224	012700 	002543'			MOV	#LGSMSG,R0	; START UP LOG MESSAGE
   6867	013230					CALL	.TYMSG		; TYPE IT
	013230	004737 	000000G			 JSR	PC,.TYMSG
   6868	013234					CALL	TYLGMS		; LOG TIME AND DATE
	013234	004737 	013272'			 JSR	PC,TYLGMS
   6869	013240	012700 	002576'			MOV	#LGVMSG,R0	; VERSION MESSAGE
   6870	013244					CALL	.TYMSG		; TYPE IT
	013244	004737 	000000G			 JSR	PC,.TYMSG
   6871	013250	012700 	000000G			MOV	#.VERNO,R0	; VERSION
   6872	013254					CALL	.TYMSG		;TYPE IT
	013254	004737 	000000G			 JSR	PC,.TYMSG
   6873	013260					CALL	.TCRLF		; OUTPUT CR-LF
	013260	004737 	000000G			 JSR	PC,.TCRLF
   6874	013264					CALL	.TCRLF		; OUTPUT CR-LF
	013264	004737 	000000G			 JSR	PC,.TCRLF
   6875	013270				30$:	RETURN			; RETURN
	013270	000207 				 RTS	PC
   6876						;
   6877	013272				TYLGMS:	PUSH	R1		; SAVE R1,R0
	013272	010146 				 MOV	R1,-(SP)
   6878	013274	012701 	001040'			MOV	#LOGBUF,R1	; DATE BUFFER
   6879	013300					GTIM$S	R1		; GET DATE
	013300	010146 				MOV	R1,-(SP)
	013302	012746 				MOV	(PC)+,-(SP)
	013304	   073 	   002 			.BYTE	59.,2
	013306	104375 				EMT	375
   6880	013310	005046 				CLR	-(SP)		; CLEAR SPACE ON STACK
   6881	013312	005046 				CLR	-(SP)		; CLEAR SPACE ON STACK
   6882	013314	010600 				MOV	SP,R0		; POINT R0 TO BUFFER
   6883	013316	112120 				MOVB	(R1)+,(R0)+	; SET YEAR
   6884	013320	105721 				TSTB	(R1)+		; SKIP BYTE
   6885	013322	112120 				MOVB	(R1)+,(R0)+	; SET MONTH
   6886	013324	105721 				TSTB	(R1)+		; SKIP BYTE
   6887	013326	112120 				MOVB	(R1)+,(R0)+	; SET DAY
   6888	013330	010600 				MOV	SP,R0		; RESET PTR
   6889	013332					CALL	.TYDAT		; TYPE DATE
SCOUTC -- SET/CLEAR OUTPUT COMM	MACRO M1113  03-APR-86 22:56  PAGE 170-2
.SCOTL -- SET/CLEAR OUTPUT LOG COMMAND

	013332	004737 	007040'			 JSR	PC,.TYDAT
   6890	013336	012700 	000000G			MOV	#.SSM,R0	; SET SECONDS
   6891	013342					CALL	.TYTIM		; TYPE TIME
	013342	004737 	007154'			 JSR	PC,.TYTIM
   6892	013346	022626 				CMP	(SP)+,(SP)+	; CLEAR STACK
   6893	013350					POP	R1		; RESTORE R1
	013350	012601 				 MOV	(SP)+,R1
   6894	013352					RETURN			; EXIT
	013352	000207 				 RTS	PC
   6895						;
   6896
   6897	001040				.PSECT	DATA
   6898
   6899	001040				LOGBUF:	.BLKW	10
   6900
   6901	002543				.PSECT	MESSAG
   6902
   6903	002543				LGSMSG:
   6904	002543	   012 	   052 	   052 		.ASCIZ	<12>%******* LOGGING STARTED  %
	002546	   052 	   052 	   052
	002551	   052 	   052 	   040
	002554	   114 	   117 	   107
	002557	   107 	   111 	   116
	002562	   107 	   040 	   123
	002565	   124 	   101 	   122
	002570	   124 	   105 	   104
	002573	   040 	   040 	   000
   6905	002576				LGVMSG:
   6906	002576	   054 	   122 	   123 		.ASCIZ	%,RSX-20F %
	002601	   130 	   055 	   062
	002604	   060 	   106 	   040
	002607	   000
   6907	002610				LGFMSG:
   6908	002610	   012 	   052 	   052 		.ASCIZ	<12>%******* LOGGING FINISHED  %
	002613	   052 	   052 	   052
	002616	   052 	   052 	   040
	002621	   114 	   117 	   107
	002624	   107 	   111 	   116
	002627	   107 	   040 	   106
	002632	   111 	   116 	   111
	002635	   123 	   110 	   105
	002640	   104 	   040 	   040
	002643	   000
   6909
   6910	013354				.PSECT
SCOUTC -- SET/CLEAR OUTPUT COMM	MACRO M1113  03-APR-86 22:56  PAGE 171
.SCOTP -- SET/CLEAR OUTPUT LPT COMMAND

   6912					.SBTTL	.SCOTP -- SET/CLEAR OUTPUT LPT COMMAND
   6913
   6914					;+
   6915					; .SCOTP -- SET/CLEAR OUTPUT LPT COMMAND ROUTINE
   6916					;
   6917					; THIS ROUTINE WILL ATTACH OR DETATCH THE LINE PRINTER AND
   6918					; SET A FLAG TO DIRECT OUTPUT TO IT.
   6919					;
   6920					; INPUT ARGUMENTS:
   6921					;
   6922					;	NONE
   6923					;
   6924					; OUTPUT ARGUMENTS:
   6925					;
   6926					;	NONE
   6927					;
   6928					; ERROR CODES RETURNED:
   6929					;
   6930					;	CAP -- CAN'T ATTACH LINEPRINTER
   6931					;-
   6932
   6933	013354				.SCOTP::
   6934	013354	005737 	000000G			TST	.NOTSW		; IS THIS A CLEAR PRINTER?
   6935	013360	001413 				BEQ	30$		; NO -- TURN ON PRINTER
   6936	013362	105737 	000000G			TSTB	.OUTLP		; YES -- IS LINE PRINTER ON?
   6937	013366	001421 				BEQ	40$		; NO -- DON'T TURN OFF
   6938	013370					DIR$	#.DTLST		; YES -- DETACH THE PRINTER
	013370	012746 	000100'			MOV	#.DTLST,-(SP)
	013374	104375 				EMT	375
   6939	013376	103416 				BCS	SCOCAP		; ERROR IF CC-C IS SET
   6940	013400	105037 	000000G			CLRB	.OUTLP		; CLEAR PRINT FLAG
   6941	013404					CALLR	.SCOTC		; MAKE SURE SOME OUTPUT DEVICE IS ON
	013404	000137 	013466'			 JMP	.SCOTC
   6942						;
   6943	013410	105737 	000000G		30$:	TSTB	.OUTLP		; IS LINE PRINTER ALREADY ON?
   6944	013414	001006 				BNE	40$		; YES -- DON'T TURN ON
   6945	013416					DIR$	#.ATLST		; NO -- ATTACH THE PRINTER
	013416	012746 	000064'			MOV	#.ATLST,-(SP)
	013422	104375 				EMT	375
   6946	013424	103403 				BCS	SCOCAP		; ERROR IF CC-C IS SET
   6947	013426	105237 	000000G			INCB	.OUTLP		; SET THE PRINT FLAG
   6948	013432				40$:	RETURN			; RETURN
	013432	000207 				 RTS	PC
   6949						;
   6950	013434				SCOCAP:
   6951	013434					ERROR$	CAP		; ERROR -- CAN'T ATTACH LINEPRINTER
	013434	012746 	011370 			 MOV	#^RCAP,-(SP)
	013440	104400 				 TRAP	TC.ERR
SCOUTC -- SET/CLEAR OUTPUT COMM	MACRO M1113  03-APR-86 22:56  PAGE 172
.SCOTY -- SET/CLEAR OUTPUT TTY COMMAND

   6953					.SBTTL	.SCOTY -- SET/CLEAR OUTPUT TTY COMMAND
   6954
   6955					;+
   6956					; .SCOTY -- SET/CLEAR OUTPUT TTY COMMAND ROUTINE
   6957					;
   6958					; THIS ROUTINE WILL SET OR CLEAR A FLAG THAT DIRECTS OUTPUT TO THE
   6959					; TTY.
   6960					;
   6961					; INPUT ARGUMENTS:
   6962					;
   6963					;	NONE
   6964					;
   6965					; OUTPUT ARGUMENTS:
   6966					;
   6967					;	NONE
   6968					;
   6969					; ERROR CODES RETURNED:
   6970					;
   6971					;	NONE
   6972					;-
   6973
   6974	013442				.SCOTY::
   6975	013442	005737 	000000G			TST	.NOTSW		; IS THIS A CLEAR
   6976	013446	001404 				BEQ	50$		; NO -- SET TYPE OUTPUT
   6977	013450	105037 	000000G			CLRB	.OUTTY		; CLEAR TYPE FLAG
   6978	013454					CALLR	.SCOTC		; MAKE SURE SOME OUTPUT DEVICE IS ON
	013454	000137 	013466'			 JMP	.SCOTC
   6979	013460	105237 	000000G		50$:	INCB	.OUTTY		; SET TYPE FLAG
   6980	013464				60$:	RETURN			; EXIT
	013464	000207 				 RTS	PC
   6981						;
SCOUTC -- SET/CLEAR OUTPUT COMM	MACRO M1113  03-APR-86 22:56  PAGE 173
.SCOTC -- SET/CLEAR OUTPUT CHECK ROUTINE

   6983					.SBTTL	.SCOTC -- SET/CLEAR OUTPUT CHECK ROUTINE
   6984
   6985					;+
   6986					; .SCOTL -- SET/CLEAR OUTPUT CHECK ROUTINE
   6987					;
   6988					; THIS ROUTINE WILL CHECK TO SEE THAT OUTPUT IS DIRECTED TO SOME
   6989					; DEVICE. IF THERE IS NO OUTPUT DEVICE THEN THE TTY IS TURNED ON.
   6990					;
   6991					; INPUT ARGUMENTS:
   6992					;
   6993					;	NONE
   6994					;
   6995					; OUTPUT ARGUMENTS:
   6996					;
   6997					;	NONE
   6998					;
   6999					; ERROR CODES RETURNED:
   7000					;
   7001					;	NONE
   7002					;-
   7003
   7004	013466				.SCOTC::
   7005	013466	105737 	000000G			TSTB	.OUTLG		; LOG ON?
   7006	013472	001005 				BNE	70$		; YES -- EXIT
   7007	013474	105737 	000000G			TSTB	.OUTLP		; NO -- PRINT ON?
   7008	013500	001002 				BNE	70$		; YES -- EXIT
   7009	013502	105237 	000000G			INCB	.OUTTY		; NO -- TURN ON TYPE
   7010	013506				70$:	RETURN			; EXIT
	013506	000207 				 RTS	PC
   7011						;
SCOUTC -- SET/CLEAR OUTPUT COMM	MACRO M1113  03-APR-86 22:56  PAGE 174
.WHOUT -- WHAT OUTPUT COMMAND

   7013					.SBTTL	.WHOUT -- WHAT OUTPUT COMMAND
   7014
   7015					;+
   7016					; .WHOUT -- WHAT OUTPUT COMMAND ROUTINE
   7017					;
   7018					; THIS ROUTINE WILL OUPUT THE STATUS OF THE CURRENT OUTPUT DEVICES.
   7019					;
   7020					; INPUT ARGUMENTS:
   7021					;
   7022					;	NONE
   7023					;
   7024					; OUTPUT ARGUMENTS:
   7025					;
   7026					;	NONE
   7027					;
   7028					; ERROR CODES RETURNED:
   7029					;
   7030					;	NONE
   7031					;-
   7032
   7033	013510				.WHOUT::
   7034	013510	012700 	002644'			MOV	#WHOTMS,R0	; MESSAGE POINTER TO R0
   7035	013514					CALL	.TYMSG		; PRINT IT
	013514	004737 	000000G			 JSR	PC,.TYMSG
   7036	013520	005046 				CLR	-(SP)		; CLEAR COMMA FLAG
   7037	013522	105737 	000000G			TSTB	.OUTTY		; TTY ACTIVE?
   7038	013526	001405 				BEQ	10$		; NO -- NEXT DEVICE
   7039	013530	012700 	000000G			MOV	#TTYMSG,R0	; YES -- TTY MESSAGE POINTER TO R0
   7040	013534					CALL	.TYMSG		; PRINT IT
	013534	004737 	000000G			 JSR	PC,.TYMSG
   7041	013540	005216 				INC	(SP)		; SET COMMA FLAG
   7042	013542	105737 	000000G		10$:	TSTB	.OUTLP		; LPT ACTIVE?
   7043	013546	001411 				BEQ	20$		; NO -- NEXT DEVICE
   7044	013550	005716 				TST	(SP)		; YES -- TYPE COMMA?
   7045	013552	001402 				BEQ	15$		; NO -- TYPE DEVICE
   7046	013554					CALL	.TYCOM		; YES -- TYPE COMMA
	013554	004737 	000000G			 JSR	PC,.TYCOM
   7047	013560	012700 	000000G		15$:	MOV	#LPTMSG,R0	; LPT MESSAGE POINTER TO R0
   7048	013564					CALL	.TYMSG		; PRINT IT
	013564	004737 	000000G			 JSR	PC,.TYMSG
   7049	013570	005216 				INC	(SP)		; SET COMMA FLAG
   7050	013572	105737 	000000G		20$:	TSTB	.OUTLG		; LOG ACTIVE?
   7051	013576	001410 				BEQ	30$		; NO -- EXIT
   7052	013600	005716 				TST	(SP)		; YES -- TYPE COMMA?
   7053	013602	001402 				BEQ	25$		; NO -- TYPE DEVICE
   7054	013604					CALL	.TYCOM		; YES -- TYPE COMMA
	013604	004737 	000000G			 JSR	PC,.TYCOM
   7055	013610	012700 	000000G		25$:	MOV	#LOGMSG,R0	; LOG MESSAGE POINTER TO R0
   7056	013614					CALL	.TYMSG		; PRINT IT
	013614	004737 	000000G			 JSR	PC,.TYMSG
   7057	013620	005726 			30$:	TST	(SP)+		; REMOVE COMMA FLAG
   7058	013622					CALLR	.TCRLF		; TYPE MESSAGE AND EXIT
	013622	000137 	000000G			 JMP	.TCRLF
   7059						;
   7060
   7061	002644				.PSECT	MESSAG
   7062
SCOUTC -- SET/CLEAR OUTPUT COMM	MACRO M1113  03-APR-86 22:56  PAGE 174-1
.WHOUT -- WHAT OUTPUT COMMAND

   7063	002644				WHOTMS:
   7064	002644	   040 	   117 	   125 		.ASCIZ	% OUTPUT DEVICES: %
	002647	   124 	   120 	   125
	002652	   124 	   040 	   104
	002655	   105 	   126 	   111
	002660	   103 	   105 	   123
	002663	   072 	   040 	   000
   7065
   7066	013626				.PSECT
SCOUTC -- SET/CLEAR OUTPUT COMM	MACRO M1113  03-APR-86 22:56  PAGE 175
.WHOUT -- WHAT OUTPUT COMMAND

   7068					; THESE DPBS ARE USED TO ASSIGN THE LINE PRINTER TO THE PARSER TASK BY
   7069					; LOGICAL UNIT NUMBER (LUN), AND ARE OF THE FORM:
   7070					;
   7071					;	!===============================================!
   7072					; 00	!	DPB SIZE	!	    DIC		!
   7073					;	!-----------------------------------------------!
   7074					; 02	!	      LOGICAL UNIT NUMBER		!
   7075					;	!-----------------------------------------------!
   7076					; 04	!	       ASCII DEVICE NAME		!
   7077					;	!-----------------------------------------------!
   7078					; 06	!	      DEVICE UNIT NUMBER		!
   7079					;	!===============================================!
   7080
   7081	000064				.PSECT	DPBS
   7082
   7083	000064				.ATLST:				; ATTACH LPT DIRECTIVE
   7084	000064					QIOW$	IO.ATT,LSTLUN,E.FLOD,0,0,0
	000064	   003 	   006 			.BYTE	3,$$$ARG
	000066	000000G				.WORD	IO.ATT
	000070	000003 				.WORD	LSTLUN
	000072	   005 	   000 			.BYTE	E.FLOD,0
	000074	000000 				.WORD	0
	000076	000000 				.WORD	0
   7085
   7086	000100				.DTLST:			; DETATCH LPT DIRECTIVE
   7087	000100					QIOW$	IO.DET,LSTLUN,E.FLOD,0,0,0
	000100	   003 	   006 			.BYTE	3,$$$ARG
	000102	000000G				.WORD	IO.DET
	000104	000003 				.WORD	LSTLUN
	000106	   005 	   000 			.BYTE	E.FLOD,0
	000110	000000 				.WORD	0
	000112	000000 				.WORD	0
   7088
   7089	013626				.PSECT
SCOUTC -- SET/CLEAR OUTPUT COMM	MACRO M1113  03-APR-86 22:56  PAGE 177
.WHOUT -- WHAT OUTPUT COMMAND

   7092
   7093					.TITLE	SETCM -- SET / CLEAR COMMAND DISPATCH MODULE 7603.30
   7094
   7095						.IDENT	"005000"
   7096					;
   7097					;                             COPYRIGHT (C) 1975, 1984, 1985 BY
   7098					;                     DIGITAL EQUIPMENT CORPORATION, MAYNARD MASS.
   7099					;			ALL RIGHTS RESERVED.
   7100					;       THIS SOFTWARE IS FURNISHED UNDER A LICENSE AND MAY BE  USED  AND  COPIED
   7101					;       ONLY IN ACCORDANCE WITH THE TERMS OF SUCH LICENSE AND WITH THE INCLUSION
   7102					;       OF THE ABOVE COPYRIGHT NOTICE.  THIS SOFTWARE OR ANY OTHER COPIES THERE-
   7103					;       OF  MAY NOT BE PROVIDED OR OTHERWISE MADE AVAILABLE TO ANY OTHER PERSON.
   7104					;       NO TITLE TO OR OWNERSHIP OF THE SOFTWARE IS HEREBY TRANSFERRED.
   7105					;
   7106					;       THE INFORMATION CONTAINED IN THIS SOFTWARE IS SUBJECT TO CHANGE  WITHOUT
   7107					;       NOTICE  AND SHOULD NOT BE CONSTRUED AS A COMMITMENT BY DIGITAL EQUIPMENT
   7108					;       CORPORATION.
   7109					;
   7110					;       DIGITAL ASSUMES NO RESPONSIBILITY FOR THE  USE  OR  RELIABILITY  OF  ITS
   7111					;       SOFTWARE ON EQUIPMENT WHICH IS NOT SUPPILED BY DIGITAL.
   7112					;
   7113					;		MODULE: SET / CLEAR COMMAND DISPATCH
   7114					;
   7115					;		VERSION: 05-00
   7116					;
   7117					;		AUTHOR: R. BELANGER
   7118					;
   7119					;		DATE: 7603.30
   7120					;
   7121					;	THIS MODULE CONTAINS:
   7122					;
   7123					;	1) SET / CLEAR COMMAND DISPATCH CODE
SETCM -- SET / CLEAR COMMAND DI	MACRO M1113  03-APR-86 22:56  PAGE 178
.SETCM -- THE "SET" AND "CLEAR" COMMAND DISPATCHES 7602.19

   7125					.SBTTL	.SETCM -- THE "SET" AND "CLEAR" COMMAND DISPATCHES 7602.19
   7126
   7127					;+
   7128					; .CLRCM -- THE "CLEAR" COMMAND
   7129					; .SETCM -- THE "SET" COMMAND
   7130					;
   7131					; THESE ROUTINES ARE THE TOP LEVEL FOR THE SET AND CLEAR COMMANDS.
   7132					; ARGUMENTS ARE CHECKED AND A DISPATCH IS MADE FOR THE OBJECT
   7133					; SPECIFIED IN THE COMMAND LINE
   7134					;
   7135					; INPUT ARGUMENTS:
   7136					;
   7137					;	NONE.
   7138					;
   7139					; OUTPUT ARGUMENTS:
   7140					;
   7141					;	NONE.
   7142					;
   7143					; ERROR CODES RETURNED:
   7144					;
   7145					;	ILC -- ILLEGAL COMMAND.
   7146					;-
   7147
   7148						.ENABL	LSB
   7149
   7150	013626				.CLRCM::
   7151	013626					CALL	.CKOBJ		; SEE IF OBJECT FOLLOWS
	013626	004737 	000000G			 JSR	PC,.CKOBJ
   7152	013632	005737 	000000G			TST	.NOTSW		; LOOK AT THE "NOT" SWITCH
   7153	013636	001007 				BNE	10$		; ALREADY SAYS CLEAR -- GO ON
   7154	013640	005137 	000000G			COM	.NOTSW		; INVERT THE "NOT" SWITCH
   7155	013644	000404 				BR	10$		; AND TREAT AS A "SET" COMMAND
   7156						;
   7157	013646				.SETCM::
   7158	013646					CALL	.CKOBJ		; LOOK FOR AN OBJECT
	013646	004737 	000000G			 JSR	PC,.CKOBJ
   7159	013652	005037 	000000G			CLR	.NOTSW		; CLEAR THE "NOT" SWITCH
   7160	013656				.SETC0::			; "SET NOT" ENTRY POINT
   7161	013656				10$:
   7162	013656	012700 	000000G			MOV	#.SETTB,R0	; TABLE POINTER TO R0
   7163	013662					CALL	.TSCAN		; SCAN IT
	013662	004737 	000000G			 JSR	PC,.TSCAN
   7164	013666	011001 				MOV	(R0),R1		; LEGAL BITS TO R1
   7165	013670	005101 				COM	R1		; INVERT THEM
   7166	013672	040137 	000000G			BIC	R1,.LGLWD	; SET UP NEW LEGAL WORD
   7167	013676					CALLR	@2(R0)		; DO WHAT IT SAYS TO
	013676	000170 	000002 			 JMP	@2(R0)
   7168						;
   7169
   7170						.DSABL	LSB
SETCM -- SET / CLEAR COMMAND DI	MACRO M1113  03-APR-86 22:56  PAGE 179
.WHATC -- THE "WHAT" COMMAND DISPATCH 7607.14

   7172					.SBTTL	.WHATC -- THE "WHAT" COMMAND DISPATCH 7607.14
   7173
   7174					;+
   7175					; .WHATC -- THE "WHAT" COMMAND DISPATCH
   7176					;
   7177					; THIS ROUTINE IS THE TOPMOST LEVEL OF THE "WHAT COMMAND WHICH
   7178					; PERFORMS THE DISPATCH FOR THE SPECIFIED OBJECT.
   7179					;
   7180					; INPUT ARGUMENTS:
   7181					;
   7182					;	NONE.
   7183					;
   7184					; OUTPUT ARGUMENTS:
   7185					;
   7186					;	NONE.
   7187					;
   7188					; ERROR CODES RETURNED:
   7189					;
   7190					;	NONE.
   7191					;-
   7192
   7193	013702				.WHATC::
   7194	013702	012700 	000000G			MOV	#.WHATB,R0	; TABLE POINTER TO R0
   7195	013706					CALL	.CKOBJ		; MUST HAVE AN OBJECT
	013706	004737 	000000G			 JSR	PC,.CKOBJ
   7196	013712					CALL	.TSCAN		; SCAN IT
	013712	004737 	000000G			 JSR	PC,.TSCAN
   7197	013716					CALL	.CKEOC		; MUST HAVE E-O-C
	013716	004737 	000000G			 JSR	PC,.CKEOC
   7198	013722					CALLR	@2(R0)		; DO WHAT IT SAYS
	013722	000170 	000002 			 JMP	@2(R0)
   7199						;
SETCM -- SET / CLEAR COMMAND DI	MACRO M1113  03-APR-86 22:56  PAGE 180
.SCNOT -- THE "SET / CLEAR NOT" COMMAND 7602.19

   7201					.SBTTL	.SCNOT -- THE "SET / CLEAR NOT" COMMAND 7602.19
   7202
   7203	013726				.SCNOT::			; SET/CLEAR "NO"
   7204	013726					CALL	.CKOBJ		; MUST HAVE AN OBJECT
	013726	004737 	000000G			 JSR	PC,.CKOBJ
   7205	013732	005137 	000000G			COM	.NOTSW		; INVERT THE "NOT" SWITCH
   7206	013736	000747 				BR	.SETC0		; AND GET NEXT OBJECT
   7207						;
SETCM -- SET / CLEAR COMMAND DI	MACRO M1113  03-APR-86 22:56  PAGE 181
.SCNOT -- THE "SET / CLEAR NOT" COMMAND 7602.19

   7209
   7210
   7211					.TITLE	SHUTC -- SHUTDOWN COMMAND MODULE 7707.12
   7212
   7213						.IDENT	"005000"
   7214					;
   7215					;                             COPYRIGHT (C) 1975, 1984, 1985 BY
   7216					;                     DIGITAL EQUIPMENT CORPORATION, MAYNARD MASS.
   7217					;			ALL RIGHTS RESERVED.
   7218					;       THIS SOFTWARE IS FURNISHED UNDER A LICENSE AND MAY BE  USED  AND  COPIED
   7219					;       ONLY IN ACCORDANCE WITH THE TERMS OF SUCH LICENSE AND WITH THE INCLUSION
   7220					;       OF THE ABOVE COPYRIGHT NOTICE.  THIS SOFTWARE OR ANY OTHER COPIES THERE-
   7221					;       OF  MAY NOT BE PROVIDED OR OTHERWISE MADE AVAILABLE TO ANY OTHER PERSON.
   7222					;       NO TITLE TO OR OWNERSHIP OF THE SOFTWARE IS HEREBY TRANSFERRED.
   7223					;
   7224					;       THE INFORMATION CONTAINED IN THIS SOFTWARE IS SUBJECT TO CHANGE  WITHOUT
   7225					;       NOTICE  AND SHOULD NOT BE CONSTRUED AS A COMMITMENT BY DIGITAL EQUIPMENT
   7226					;       CORPORATION.
   7227					;
   7228					;       DIGITAL ASSUMES NO RESPONSIBILITY FOR THE  USE  OR  RELIABILITY  OF  ITS
   7229					;       SOFTWARE ON EQUIPMENT WHICH IS NOT SUPPILED BY DIGITAL.
   7230					;
   7231					;		MODULE: SHUTDOWN COMMAND
   7232					;
   7233					;		VERSION: 03-06
   7234					;
   7235					;		AUTHOR: R. BELANGER
   7236					;
   7237					;		DATE: 7707.12
   7238					;
   7239					;	THIS MODULE CONTAINS:
   7240					;
   7241					;	1) SHUTDOWN COMMAND CODE
SHUTC -- SHUTDOWN COMMAND MODUL	MACRO M1113  03-APR-86 22:56  PAGE 182
.SHUTC -- THE "SHUTDOWN" COMMAND 7707.12

   7243					.SBTTL	.SHUTC -- THE "SHUTDOWN" COMMAND 7707.12
   7244
   7245					;+
   7246					; .SHUTC -- THE SHUTDOWN COMMAND
   7247					;
   7248					; THIS ROUTINE WILL DEPOSIT A -1 INTO KL LOCATION 30 (EXEC VIRTUAL)
   7249					; TO SHUTDOWN TIMESHARING.
   7250					;
   7251					; INPUT ARGUMENTS:
   7252					;
   7253					;	NONE.
   7254					;
   7255					; OUTPUT ARGUMENTS:
   7256					;
   7257					;	NONE.
   7258					;
   7259					; ERROR CODES RETURNED:
   7260					;
   7261					;	NONE
   7262					;-
   7263
   7264	013740				.SHUTC::
   7265	013740					CALL	.CKEOC		; CHECK E-O-C
	013740	004737 	000000G			 JSR	PC,.CKEOC
   7266	013744	112737 	000001 	000000G		MOVB	#1,.NOHLT	; TELL RSX20F NOT TO PANIC OVER HALTED KL
   7267	013752	005046 				CLR	-(SP)		; CLEAR ADDRESS BUFFER
   7268	013754					PUSH	#30		; .SET THE ADDRESS UP
	013754	012746 	000030 			 MOV	#30,-(SP)
   7269	013760	010600 				MOV	SP,R0		; ..GET ADDRESS POINTER
   7270	013762					PUSH	#17		; ..SET UP DEPOSIT WORD
	013762	012746 	000017 			 MOV	#17,-(SP)
   7271	013766					PUSH	#-^D1		; ...
	013766	012746 	177777 			 MOV	#-^D1,-(SP)
   7272	013772					PUSH	(SP)		; ....
	013772	011646 				 MOV	(SP),-(SP)
   7273	013774	010601 				MOV	SP,R1		; .....SAVE THE POINTER
   7274	013776					PUSH	R1		; .....SET UP THE DATA BLOCK
	013776	010146 				 MOV	R1,-(SP)
   7275	014000					PUSH	R0		; ......
	014000	010046 				 MOV	R0,-(SP)
   7276	014002	010601 				MOV	SP,R1		; .......POINT TO THE BLOCK
   7277	014004	012700 	000040 			MOV	#ED.EXV,R0	; .......EXEC VIRTUAL REFERENCE
   7278	014010					CALL	.DPKLM		; .......DO THE DEPOSIT
	014010	004737 	000000G			 JSR	PC,.DPKLM
   7279	014014	062706 	000016 			ADD	#^D14,SP	; .......CLEAR THE STACK
   7280	014020					CALL	..DTP2		; START SECONDARY PROTOCOL
	014020	004737 	000000G			 JSR	PC,..DTP2
   7281	014024					CALLR	.EXITP		; EXIT THE PARSER
	014024	000137 	000000G			 JMP	.EXITP
   7282						;
SHUTC -- SHUTDOWN COMMAND MODUL	MACRO M1113  03-APR-86 22:56  PAGE 183
.SHUTC -- THE "SHUTDOWN" COMMAND 7707.12

   7284
   7285
   7286					.TITLE	STRTC -- START COMMAND DISPATCH MODULE 7603.30
   7287
   7288						.IDENT	"005000"
   7289
   7290					;
   7291					;                             COPYRIGHT (C) 1975, 1984, 1985 BY
   7292					;                     DIGITAL EQUIPMENT CORPORATION, MAYNARD MASS.
   7293					;			ALL RIGHTS RESERVED.
   7294					;       THIS SOFTWARE IS FURNISHED UNDER A LICENSE AND MAY BE  USED  AND  COPIED
   7295					;       ONLY IN ACCORDANCE WITH THE TERMS OF SUCH LICENSE AND WITH THE INCLUSION
   7296					;       OF THE ABOVE COPYRIGHT NOTICE.  THIS SOFTWARE OR ANY OTHER COPIES THERE-
   7297					;       OF  MAY NOT BE PROVIDED OR OTHERWISE MADE AVAILABLE TO ANY OTHER PERSON.
   7298					;       NO TITLE TO OR OWNERSHIP OF THE SOFTWARE IS HEREBY TRANSFERRED.
   7299					;
   7300					;       THE INFORMATION CONTAINED IN THIS SOFTWARE IS SUBJECT TO CHANGE  WITHOUT
   7301					;       NOTICE  AND SHOULD NOT BE CONSTRUED AS A COMMITMENT BY DIGITAL EQUIPMENT
   7302					;       CORPORATION.
   7303					;
   7304					;       DIGITAL ASSUMES NO RESPONSIBILITY FOR THE  USE  OR  RELIABILITY  OF  ITS
   7305					;       SOFTWARE ON EQUIPMENT WHICH IS NOT SUPPILED BY DIGITAL.
   7306					;
   7307					;		MODULE: START COMMAND DISPATCH
   7308					;
   7309					;		VERSION: 05-00
   7310					;
   7311					;		AUTHOR: R. BELANGER
   7312					;
   7313					;		DATE: 7603.30
   7314					;
   7315					;	THIS MODULE CONTAINS:
   7316					;
   7317					;	1) START COMMAND DISPATCH CODE
STRTC -- START COMMAND DISPATCH	MACRO M1113  03-APR-86 22:56  PAGE 184
.STRTC -- THE "START" COMMAND 7602.26

   7319					.SBTTL	.STRTC -- THE "START" COMMAND 7602.26
   7320
   7321					;+
   7322					; .STRTC -- THE "START" COMMAND.
   7323					;
   7324					; THIS IS THE TOP LEVEL OF THE "START" COMMAND, WHICH CHECKS FOR
   7325					; ARGUMENTS AND DISPATCHES TO THE PROPER LOWER LEVEL ROUTINE.
   7326					;
   7327					; INPUT ARGUMENTS:
   7328					;
   7329					;	NONE.
   7330					;
   7331					; OUTPUT ARGUMENTS:
   7332					;
   7333					;	NONE.
   7334					;
   7335					; ERROR CODES RETURNED:
   7336					;
   7337					;	NONE.
   7338					;-
   7339
   7340	014030				.STRTC::
   7341	014030					CALL	.CKARG		; LOOK FOR AN ARGUMENT
	014030	004737 	000000G			 JSR	PC,.CKARG
   7342	014034	001012 				BNE	.STRTT		; START THE TEN IF NUMERIC
   7343	014036	012700 	000000G			MOV	#.STRTB,R0	; TABLE POINTER TO R0
   7344	014042					CALL	.TSCAN		; SCAN THE TABLE
	014042	004737 	000000G			 JSR	PC,.TSCAN
   7345	014046					CALLR	@2(R0)		; DISPATCH FOR THE OBJECT
	014046	000170 	000002 			 JMP	@2(R0)
   7346						;
STRTC -- START COMMAND DISPATCH	MACRO M1113  03-APR-86 22:56  PAGE 185
.STRTT -- THE "START <TEN>" COMMAND 7710.11

   7348					.SBTTL	.STRTT -- THE "START <TEN>" COMMAND 7710.11
   7349
   7350					;+
   7351					; .STRTT -- THE "START <TEN>" COMMAND.
   7352					; .JUMPC -- THE "JUMP" COMMAND.
   7353					;
   7354					; THESE ROUTINES WILL START THE KL IN EXEC (KERNEL) MODE AT THE
   7355					; ADDRESS SPECIFIED IN THE INPUT STREAM.
   7356					;
   7357					; INPUT ARGUMENTS:
   7358					;
   7359					;	NONE.
   7360					;
   7361					; OUTPUT ARGUMENTS:
   7362					;
   7363					;	NONE.
   7364					;
   7365					; ERROR CODES RETURNED:
   7366					;
   7367					;	ILS -- ILLEGAL SEPARATOR CHARACTER
   7368					;	KLA -- KL ADDRESS ERROR
   7369					;	MRA -- MISSING REQUIRED ARGUMENT
   7370					;	SZI -- START AT ZERO ILLEGAL
   7371					;-
   7372
   7373						.MCALL	$DEF
   7374
   7375	014052					$DEF
STRTC -- START COMMAND DISPATCH	MACRO M1113  03-APR-86 22:56  PAGE 186
.STRTT -- THE "START <TEN>" COMMAND 7710.11

   7377						.ENABL	LSB
   7378
   7379	014052				.JUMPC::
   7380	014052					CALL	10$		; START THE KL
	014052	004737 	014066'			 JSR	PC,10$
   7381	014056	000137 	000000G			JMP	.EXITP		; AND EXIT FROM THE PARSER
   7382						;
   7383	014062				.STRTT::
   7384	014062					CALL	.CKRNP		; SEE IF THE KL IS RUNNING
	014062	004737 	000000G			 JSR	PC,.CKRNP
   7385	014066				10$:
   7386	014066	005046 				CLR	-(SP)		; CLEAR ADDRESS BUFFER
   7387	014070	005046 				CLR	-(SP)		; .
   7388	014072	005046 				CLR	-(SP)		; ..
   7389	014074	010600 				MOV	SP,R0		; ...POINTER TO R0
   7390	014076					CALL	.GTKLA		; ...GET THE START ADDRESS
	014076	004737 	000000G			 JSR	PC,.GTKLA
   7391	014102					CALL	.TPTST		; ...SEE IF IT IS NON ZERO
	014102	004737 	000000G			 JSR	PC,.TPTST
   7392	014106	001424 				BEQ	STASZI		; ...CAN'T START KL AT 0
   7393	014110					CALL	.CKEOC		; ...CHECK FOR E-O-C
	014110	004737 	000000G			 JSR	PC,.CKEOC
   7394	014114	032737 	000002 	000000G		BIT	#LG.PRG,.FEMOD	; ...ARE WE AT LEAST IN PROGRAMMER MODE??
   7395	014122	001402 				BEQ	20$		; ...NO -- JUST GO ON
   7396	014124					CALL	.ABORT		; ...YES -- START THE KL BY ANY MEANS
	014124	004737 	000004'			 JSR	PC,.ABORT
   7397	014130				20$:
   7398	014130	010001 				MOV	R0,R1		; ...POINTER FOR THE CALL
   7399	014132					CALL	.KLST		; ...START THE KL
	014132	004737 	000000G			 JSR	PC,.KLST
   7400	014136	062706 	000006 			ADD	#^D6,SP		; ...CLEAR THE STACK
   7401	014142	005037 	000000G			CLR	.NOERR		; LET RSX20F RECOGNIZE KL ERRORS
   7402	014146	052737 	000000G	000002G		BIS	#EF.CRI,.COMEF+2 ; DECLARE THE COMM REGION INVALID
   7403	014154					CALLR	..DTP2		; START UP SECONDARY PROTOCOL AND EXIT.
	014154	000137 	000000G			 JMP	..DTP2
   7404						;
   7405	014160				STASZI:
   7406	014160					ERROR$	SZI		; ERROR -- START AT ZERO ILLEGAL
	014160	012746 	075331 			 MOV	#^RSZI,-(SP)
	014164	104400 				 TRAP	TC.ERR
   7407						;
   7408
   7409						.DSABL	LSB
STRTC -- START COMMAND DISPATCH	MACRO M1113  03-APR-86 22:56  PAGE 187
.STRTU -- THE "START MICROCODE" COMMAND 7602.26

   7411					.SBTTL	.STRTU -- THE "START MICROCODE" COMMAND 7602.26
   7412
   7413					;+
   7414					; .STRTU -- THE "START MICROCODE" COMMAND.
   7415					;
   7416					; THIS ROUTINE STARTS THE KL MICROCODE AT THE ADDRESS SPECIFIED.
   7417					; IF NO ADDRESS IS SPECIFIED, 0000 IS ASSUMED.
   7418					;
   7419					; INPUT ARGUMENTS:
   7420					;
   7421					;	NONE.
   7422					;
   7423					; OUTPUT ARGUMENTS:
   7424					;
   7425					;	NONE.
   7426					;
   7427					; ERROR CODES RETURNED:
   7428					;
   7429					;	NONE.
   7430					;-
   7431
   7432	014166				.STRTU::
   7433	014166					CALL	.CKRUN		; SEE IF THE KL IS RUNNING
	014166	004737 	000000G			 JSR	PC,.CKRUN
   7434	014172	005000 				CLR	R0		; CLEAR R0 (FOR DEFAULT)
   7435	014174	111504 				MOVB	(R5),R4		; LOOK AT THE CURRENT CHARACTER
   7436	014176	132764 	000010 	000000G		BITB	#CH.EOC,.CHTAB(R4)
   7437	014204	001004 				BNE	10$		; DO DEFAULT START IF E-O-C
   7438	014206					CALL	.GTELN		; GO READ THE ADDRESS
	014206	004737 	000000G			 JSR	PC,.GTELN
   7439	014212					CALL	.CKEOC		; MUST HAVE E-O-C
	014212	004737 	000000G			 JSR	PC,.CKEOC
   7440	014216				10$:
   7441	014216	032737 	100000 	000000G		BIT	#KF.CLK,.KLFLG	; IS THE KL CLOCK ON?
   7442	014224	001402 				BEQ	20$		; NO -- JUST START THE MICROCODE
   7443	014226					CALL	.KLHLT		; YES -- STOP THE KL
	014226	004737 	000000G			 JSR	PC,.KLHLT
   7444	014232				20$:
   7445	014232					CALLR	.STUCD		; START THE KL MICROCODE AND RETURN
	014232	000137 	000000G			 JMP	.STUCD
   7446						;
STRTC -- START COMMAND DISPATCH	MACRO M1113  03-APR-86 22:56  PAGE 188
.STRTU -- THE "START MICROCODE" COMMAND 7602.26

   7448
   7449					.TITLE	SWCMD -- SET / CLEAR / WHAT COMMAND MODULE 7702.16
   7450
   7451						.IDENT	"007030"
   7452
   7453					;                             COPYRIGHT (C) 1975, 1984, 1985 BY
   7454					;                     DIGITAL EQUIPMENT CORPORATION, MAYNARD MASS.
   7455					;			ALL RIGHTS RESERVED.
   7456					;       THIS SOFTWARE IS FURNISHED UNDER A LICENSE AND MAY BE  USED  AND  COPIED
   7457					;       ONLY IN ACCORDANCE WITH THE TERMS OF SUCH LICENSE AND WITH THE INCLUSION
   7458					;       OF THE ABOVE COPYRIGHT NOTICE.  THIS SOFTWARE OR ANY OTHER COPIES THERE-
   7459					;       OF  MAY NOT BE PROVIDED OR OTHERWISE MADE AVAILABLE TO ANY OTHER PERSON.
   7460					;       NO TITLE TO OR OWNERSHIP OF THE SOFTWARE IS HEREBY TRANSFERRED.
   7461					;
   7462					;       THE INFORMATION CONTAINED IN THIS SOFTWARE IS SUBJECT TO CHANGE  WITHOUT
   7463					;       NOTICE  AND SHOULD NOT BE CONSTRUED AS A COMMITMENT BY DIGITAL EQUIPMENT
   7464					;       CORPORATION.
   7465					;
   7466					;       DIGITAL ASSUMES NO RESPONSIBILITY FOR THE  USE  OR  RELIABILITY  OF  ITS
   7467					;       SOFTWARE ON EQUIPMENT WHICH IS NOT SUPPILED BY DIGITAL.
   7468					;
   7469					;		MODULE: SET / CLEAR COMMAND
   7470					;
   7471					;		VERSION: 06-25
   7472					;
   7473					;		AUTHOR: R. BELANGER
   7474					;
   7475					;		DATE: 7702.16
   7476					;
   7477					;	THIS MODULE CONTAINS:
   7478					;
   7479					;	1) SET / CLEAR CONSOLE COMMAND CODE
   7480					;
   7481					;	MODIFICATIONS:
   7482					;
   7483					;	NO.	DATE		PROGRAMMER	REASON
   7484					;	---	----		----------	------
   7485					;	001	28-FEB-77	R. BELANGER	CHANGE "ECL" ERROR TO "CLE"
   7486					;    [5.1011]	19-OCT-79	R. BELANGER	ADD "WHAT HARDWARE" COMMAND
   7487					;	002	11-MAR-80	S. LEAPLINE	ADD "SET/CLEAR/WHAT FAULT"
   7488					;	003	05-NOV-80	S. LEAPLINE	ADD "SET/CLEAR/WHAT AUTO-TAKE"
   7489					;
   7490					;09-JUN-83  TCO 6.1675	D. WEAVER
   7491					;	REMOVE THE "SET/CLEAR/WHAT AUTO-TAKE".
   7492					;
SWCMD -- SET / CLEAR / WHAT COM	MACRO M1113  03-APR-86 22:56  PAGE 189
.SCCON -- THE " SET / CLEAR CONSOLE" COMMAND 7702.16

   7494					.SBTTL	.SCCON -- THE " SET / CLEAR CONSOLE" COMMAND 7702.16
   7495
   7496						.ENABL	LSB
   7497
   7498	014236				.SCCON::
   7499	014236	005737 	000000G			TST	.NOTSW		; IS THIS A CLEAR?
   7500	014242	001016 				BNE	10$		; YES -- SET OPERATOR
   7501	014244	132764 	000010 	000000G		BITB	#CH.EOC,.CHTAB(R4)
   7502	014252	001017 				BNE	.SCCOP		; E-O-C -- SET PROGRAMMER
   7503	014254					CALL	.CKOBJ		; MUST HAVE AN OBJECT
	014254	004737 	000000G			 JSR	PC,.CKOBJ
   7504	014260	012700 	000000G			MOV	#.SCCOT,R0	; TABLE POINTER TO R0
   7505	014264					CALL	.TSCAN		; SCAN THE TABLE
	014264	004737 	000000G			 JSR	PC,.TSCAN
   7506	014270					CALL	.CKEOC		; MUST HAVE E-O-C
	014270	004737 	000000G			 JSR	PC,.CKEOC
   7507	014274					CALLR	@2(R0)		; EXECUTE THE COMMAND
	014274	000170 	000002 			 JMP	@2(R0)
   7508						;
   7509	014300				10$:
   7510	014300					CALL	.CKEOC		; MUST HAVE E-O-C IF CLEAR
	014300	004737 	000000G			 JSR	PC,.CKEOC
   7511	014304				.SCCOO::
   7512	014304	012701 	000001 			MOV	#LG.OPR,R1	; OPERATOR CONSULE
   7513	014310	000405 				BR	20$		; EXIT
   7514						;
   7515	014312				.SCCOP::
   7516	014312	012701 	000003 			MOV	#LG.PRM,R1	; PROGRAMMER CONSOLE
   7517	014316	000402 				BR	20$		; EXIT
   7518						;
   7519	014320				.SCCOM::
   7520	014320	012701 	000007 			MOV	#LG.ALL,R1	; MAINTENANCE CONSOLE
   7521	014324				20$:
   7522	014324	105737 	000000G			TSTB	.KLNSW+0	; +++001 IS REMOTE KLINIK MODE ENABLED?
   7523	014330	003403 				BLE	30$		; +++001 NO -- GO ON
   7524	014332	120137 	000001G			CMPB	R1,.KLNMD+1	; +++001 YES -- CAN WE DO THIS?
   7525	014336	003005 				BGT	SCCCLE		; NO -- GIVE "CLE" ERROR
   7526	014340				30$:
   7527	014340	010137 	000000G			MOV	R1,.FEMOD	; YES -- SET THE CONSOLE MODE
   7528	014344	000405 				BR	.WHCON		; PRINT CONSOLE MODE AND EXIT
   7529						;
   7530	014346				.SCCOU::
   7531	014346					CALLR	.EXITP		; EXIT TO USER CONSOLE
	014346	000137 	000000G			 JMP	.EXITP
   7532						;
   7533	014352				SCCCLE:
   7534	014352					ERROR$	CLE		; ERROR -- CONSOLE LIMIT EXCEEDED
	014352	012746 	012245 			 MOV	#^RCLE,-(SP)
	014356	104400 				 TRAP	TC.ERR
   7535						;
   7536
   7537						.DSABL	LSB
SWCMD -- SET / CLEAR / WHAT COM	MACRO M1113  03-APR-86 22:56  PAGE 190
.WHCON -- THE "WHAT CONSOLE" COMMAND 7607.14

   7539					.SBTTL	.WHCON -- THE "WHAT CONSOLE" COMMAND 7607.14
   7540
   7541	014360				.WHCON::
   7542	014360	012700 	002666'			MOV	#WCMMSG,R0	; MESSAGE POINTER TO R0
   7543	014364					CALL	.TYMSG		; PRINT IT
	014364	004737 	000000G			 JSR	PC,.TYMSG
   7544	014370	013701 	000000G			MOV	.FEMOD,R1	; MODE WORD TO R1
   7545	014374	012700 	000000G			MOV	#MNTMSG,R0	; MAINTENANCE
   7546	014400	032701 	000004 			BIT	#LG.MNT,R1	; IS IT ON?
   7547	014404	001007 				BNE	10$		; YES -- SAY SO
   7548	014406	012700 	000000G			MOV	#PRGMSG,R0	; NO -- PROGRAMMER?
   7549	014412	032701 	000002 			BIT	#LG.PRG,R1	; IS IT ON?
   7550	014416	001002 				BNE	10$		; YES -- SAY SO
   7551	014420	012700 	000000G			MOV	#OPRMSG,R0	; NO -- MUST BE OPERATOR
   7552	014424				10$:
   7553	014424					CALLR	.TYLIN		; YES -- PRINT AND EXIT
	014424	000137 	000000G			 JMP	.TYLIN
   7554						;
   7555
   7556	002666				.PSECT	MESSAG
   7557
   7558	002666				WCMMSG:
   7559	002666	   040 	   103 	   117 		.ASCIZ	% CONSOLE MODE: %
	002671	   116 	   123 	   117
	002674	   114 	   105 	   040
	002677	   115 	   117 	   104
	002702	   105 	   072 	   040
	002705	   000
   7560
   7561	014430				.PSECT
SWCMD -- SET / CLEAR / WHAT COM	MACRO M1113  03-APR-86 22:56  PAGE 191
.SCINC -- THE "SET / CLEAR INCREMENT" COMMAND 7606.20

   7563					.SBTTL	.SCINC -- THE "SET / CLEAR INCREMENT" COMMAND 7606.20
   7564
   7565	014430				.SCINC::			; SET/CLEAR "INCREMENT"
   7566	014430	005737 	000000G			TST	.NOTSW		; IS THIS A CLEAR?
   7567	014434	001016 				BNE	10$		; YES -- JUST CLEAR IT
   7568	014436	005046 				CLR	-(SP)		; NO -- CLEAR A BUFFER ON THE STACK
   7569	014440	005046 				CLR	-(SP)		; .
   7570	014442	005046 				CLR	-(SP)		; ..
   7571	014444	010600 				MOV	SP,R0		; ...POINT TO THE BUFFER
   7572	014446					CALL	.GTNUM		; ...READ THE NUMBER
	014446	004737 	000000G			 JSR	PC,.GTNUM
   7573	014452					CALL	.CKEOC		; ...MUST HAVE E-O-C
	014452	004737 	000000G			 JSR	PC,.CKEOC
   7574	014456	012701 	000000G			MOV	#.KLINC,R1	; ...POINT TO THE INCREMENT
   7575	014462					POP	(R1)+		; ...LOAD THE NEW INCREMENT
	014462	012621 				 MOV	(SP)+,(R1)+
   7576	014464					POP	(R1)+		; ..
	014464	012621 				 MOV	(SP)+,(R1)+
   7577	014466					POP	(R1)		; .
	014466	012611 				 MOV	(SP)+,(R1)
   7578	014470	000406 				BR	20$		; AND EXIT
   7579						;
   7580	014472				10$:
   7581	014472					CALL	.CKEOC		; MUST HAVE E-O-C
	014472	004737 	000000G			 JSR	PC,.CKEOC
   7582	014476	012700 	000000G			MOV	#.KLINC,R0	; POINT TO THE  INCREMENT
   7583	014502					CALL	.TPCLR		; CLEAR IT
	014502	004737 	000000G			 JSR	PC,.TPCLR
   7584	014506				20$:
   7585					;	BR	.WHINC		; PRINT INCREMENT AND EXIT
   7586						;
SWCMD -- SET / CLEAR / WHAT COM	MACRO M1113  03-APR-86 22:56  PAGE 192
.WHINC -- THE "WHAT INCREMENT" COMMAND 7703.25

   7588					.SBTTL	.WHINC -- THE "WHAT INCREMENT" COMMAND 7703.25
   7589
   7590						.ENABL	LSB
   7591
   7592	014506				.WHINC::
   7593	014506	012700 	002706'			MOV	#WHIMSG,R0	; MESSAGE POINTER TO R0
   7594	014512	012701 	000000G			MOV	#.KLINC,R1	; INREMENT POINTER
   7595	014516	000412 				BR	10$		; DO COMMON CODE
   7596						;
   7597	014520				.WHRPT::
   7598	014520	013737 	000000G	000000G		MOV	.ORADX,.RDXSV	; SAVE CURRENT OUTPUT RADIX
   7599	014526	012737 	000012 	000000G		MOV	#^D10,.ORADX	; SET IT TO DECIMAL
   7600	014534	012700 	002726'			MOV	#WHRMSG,R0	; MESSAGE POINTER TO R0
   7601	014540	012701 	000000G			MOV	#.RPTCT,R1	; REPEAT POINTER
   7602	014544				10$:
   7603	014544					CALL	.TYMSG		; PRINT THE MESSAGE
	014544	004737 	000000G			 JSR	PC,.TYMSG
   7604	014550	005037 	000000G			CLR	.LDZFL		; NO LEADING ZEROES
   7605	014554	010100 				MOV	R1,R0		; POINTER TO R0
   7606	014556					CALL	.TYKLN		; PRINT THE NUMBER
	014556	004737 	000000G			 JSR	PC,.TYKLN
   7607	014562	013737 	000000G	000000G		MOV	.RDXSV,.ORADX	; RESET THE OUTPUT RADIX
   7608	014570					CALLR	.TCRLF		; END THE LINE AND EXIT
	014570	000137 	000000G			 JMP	.TCRLF
   7609						;
   7610
   7611						.DSABL	LSB
   7612
   7613	002706				.PSECT	MESSAG
   7614
   7615	002706				WHIMSG:
   7616	002706	   040 	   113 	   114 		.ASCIZ	% KL INCREMENT: %
	002711	   040 	   111 	   116
	002714	   103 	   122 	   105
	002717	   115 	   105 	   116
	002722	   124 	   072 	   040
	002725	   000
   7617	002726				WHRMSG:
   7618	002726	   040 	   122 	   105 		.ASCIZ	% REPEAT COUNT: %
	002731	   120 	   105 	   101
	002734	   124 	   040 	   103
	002737	   117 	   125 	   116
	002742	   124 	   072 	   040
	002745	   000
   7619	014574				.PSECT
SWCMD -- SET / CLEAR / WHAT COM	MACRO M1113  03-APR-86 22:56  PAGE 193
.SCMEM -- THE "SET / CLEAR MEMORY" COMMAND 7607.08

   7621					.SBTTL	.SCMEM -- THE "SET / CLEAR MEMORY" COMMAND 7607.08
   7622
   7623						.ENABL	LSB
   7624
   7625	014574				.SCMEM::			; SET / CLEAR "MEMORY"
   7626	014574	005737 	000000G			TST	.NOTSW		; IS THIS A CLEAR?
   7627	014600	001015 				BNE	10$		; YES -- GO DO THE CLEAR
   7628	014602					CALL	.CKOBJ		; NO -- MUST HAVE AN OBJECT
	014602	004737 	000000G			 JSR	PC,.CKOBJ
   7629	014606	012700 	000000G			MOV	#.SCMTB,R0	; TABLE POINTER TO R0
   7630	014612					CALL	.TSCAN		; SCAN IT
	014612	004737 	000000G			 JSR	PC,.TSCAN
   7631	014616					CALL	.CKEOC		; MUST BE E-O-C
	014616	004737 	000000G			 JSR	PC,.CKEOC
   7632	014622					CALLR	@2(R0)		; DISPATCH FOR OBJECT
	014622	000170 	000002 			 JMP	@2(R0)
   7633						;
   7634	014626				.SCMEL::			; SET MEMORY ELEVEN
   7635	014626	012700 	000002 			MOV	#^D2,R0		; ELEVEN OFFSET IS 2
   7636	014632	000403 				BR	20$		; DO COMMON STUFF
   7637	014634				10$:
   7638	014634					CALL	.CKEOC		; MUST HAVE E-O-C TO CLEAR
	014634	004737 	000000G			 JSR	PC,.CKEOC
   7639	014640				.SCMKL::
   7640	014640	005000 				CLR	R0		; TEN OFFSET IS 0
   7641	014642				20$:
   7642	014642	010037 	000000G			MOV	R0,.MEMFL	; SET THE FLAG
   7643					;	BR	.WHMEM		; AND EXIT
   7644						;
   7645
   7646						.DSABL	LSB
SWCMD -- SET / CLEAR / WHAT COM	MACRO M1113  03-APR-86 22:56  PAGE 194
.WHMEM -- THE "WHAT MEMORY" COMMAND 7603.21

   7648					.SBTTL	.WHMEM -- THE "WHAT MEMORY" COMMAND 7603.21
   7649
   7650	014646				.WHMEM::
   7651	014646	012700 	002746'			MOV	#WHMMSG,R0	; MESSAGE POINTER TO R0
   7652	014652					CALL	.TYMSG		; TYPE IT
	014652	004737 	000000G			 JSR	PC,.TYMSG
   7653	014656	012700 	000000G			MOV	#TENMSG,R0	; ASSUME TEN
   7654	014662	005737 	000000G			TST	.MEMFL		; IS IT "TEN"
   7655	014666	001402 				BEQ	10$		; YES -- SAY SO
   7656	014670	012700 	000000G			MOV	#ELEMSG,R0	; NO -- SAY "ELEVEN"
   7657	014674				10$:
   7658	014674					CALLR	.TYLIN		; PRINT AND EXIT
	014674	000137 	000000G			 JMP	.TYLIN
   7659						;
   7660
   7661	002746				.PSECT	MESSAG
   7662
   7663	002746				WHMMSG:
   7664	002746	   040 	   115 	   105 		.ASCIZ	% MEMORY: %
	002751	   115 	   117 	   122
	002754	   131 	   072 	   040
	002757	   000
   7665
   7666	014700				.PSECT
SWCMD -- SET / CLEAR / WHAT COM	MACRO M1113  03-APR-86 22:56  PAGE 195
.SCOFS -- THE "SET / CLEAR OFFSET" COMMAND 7602.19

   7668					.SBTTL	.SCOFS -- THE "SET / CLEAR OFFSET" COMMAND 7602.19
   7669
   7670	014700				.SCOFS::			; SET/CLEAR "OFFSET"
   7671	014700	012700 	000000G			MOV	#.APRWD,R0	; DEFAULT OFFSET
   7672	014704	005737 	000000G			TST	.NOTSW		; IS THIS A CLEAR?
   7673	014710	001002 				BNE	10$		; YES -- JUST EXIT
   7674	014712					CALL	.GTELN		; NO -- READ NEW OFFSET
	014712	004737 	000000G			 JSR	PC,.GTELN
   7675	014716				10$:
   7676	014716					CALL	.CKEOC		; MUST HAVE E-O-C
	014716	004737 	000000G			 JSR	PC,.CKEOC
   7677	014722	010037 	000000G			MOV	R0,.RELWD	; SET IT
   7678					;	BR	.WHOFS		; PRINT IT AND RETURN
   7679						;
SWCMD -- SET / CLEAR / WHAT COM	MACRO M1113  03-APR-86 22:56  PAGE 196
.WHOFS -- THE "WHAT OFFSET" COMMAND 7603.20

   7681					.SBTTL	.WHOFS -- THE "WHAT OFFSET" COMMAND 7603.20
   7682
   7683	014726				.WHOFS::
   7684	014726	012700 	002760'			MOV	#WHOMSG,R0	; MESSAGE POINTER TO R0
   7685	014732					CALL	.TYMSG		; PRINT IT
	014732	004737 	000000G			 JSR	PC,.TYMSG
   7686	014736	013700 	000000G			MOV	.RELWD,R0	; OFFSET TO R0
   7687	014742					CALL	.TYELA		; PRINT IT
	014742	004737 	000000G			 JSR	PC,.TYELA
   7688	014746					CALLR	.TCRLF		; END THE LINE AND EXIT
	014746	000137 	000000G			 JMP	.TCRLF
   7689						;
   7690
   7691	002760				.PSECT	MESSAG
   7692
   7693	002760				WHOMSG:
   7694	002760	   040 	   120 	   104 		.ASCIZ	% PDP-11 OFFSET: %
	002763	   120 	   055 	   061
	002766	   061 	   040 	   117
	002771	   106 	   106 	   123
	002774	   105 	   124 	   072
	002777	   040 	   000
   7695	014752				.PSECT
SWCMD -- SET / CLEAR / WHAT COM	MACRO M1113  03-APR-86 22:56  PAGE 197
.SCRLD -- THE "SET / CLEAR RELOAD" COMMAND 7602.19

   7697					.SBTTL	.SCRLD -- THE "SET / CLEAR RELOAD" COMMAND 7602.19
   7698
   7699	014752				.SCRLD::			; SET/CLEAR "RELOAD"
   7700	014752					CALL	.CKEOC		; MUST HAVE E-O-C
	014752	004737 	000000G			 JSR	PC,.CKEOC
   7701	014756	113737 	000000G	000000G		MOVB	.NOTSW,.KLRLD	; SET/CLEAR THE SWITCH
   7702	014764	000413 				BR	.WHRLD		; PRINT THE STATE AND EXIT
   7703						;
SWCMD -- SET / CLEAR / WHAT COM	MACRO M1113  03-APR-86 22:56  PAGE 198
.SCRTY -- THE "SET / CLEAR RETRY" COMMAND 7-DEC-78

   7705					.SBTTL	.SCRTY -- THE "SET / CLEAR RETRY" COMMAND 7-DEC-78
   7706
   7707	014766				.SCRTY::			;[TCO 4.2107] SET/CLEAR "RETRY"
   7708	014766					CALL	.CKEOC		;[TCO 4.2107] MUST HAVE E-O-C
	014766	004737 	000000G			 JSR	PC,.CKEOC
   7709	014772	012701 	000001 			MOV	#1,R1		;[TCO 4.2107] DEFAULT IS SET
   7710	014776	005737 	000000G			TST	.NOTSW		;[TCO 4.2107] IS THIS A CLEAR
   7711	015002	001401 				BEQ	10$		;[TCO 4.2107] NO -- GO ON
   7712	015004	005001 				CLR	R1		;[TCO 4.2107] YES -- CLEAR FLAG
   7713	015006	010137 	000000G		10$:	MOV	R1,.KACFL	;[TCO 4.2107] SET/CLEAR FLAG
   7714	015012	000412 				BR	.WHRTY		;[TCO 4.2107] PRINT STATE AND EXIT
   7715						;
SWCMD -- SET / CLEAR / WHAT COM	MACRO M1113  03-APR-86 22:56  PAGE 199
.WHRLD -- THE "WHAT RELOAD" COMMAND 7603.21

   7717					.SBTTL	.WHRLD -- THE "WHAT RELOAD" COMMAND 7603.21
   7718
   7719						.ENABL	LSB
   7720
   7721	015014				.WHRLD::
   7722	015014	012700 	003001'			MOV	#WRLMSG,R0	; MESSAGE POINTER TO R0
   7723	015020					CALL	.TYMSG		; PRINT IT
	015020	004737 	000000G			 JSR	PC,.TYMSG
   7724	015024	012700 	000000G			MOV	#OFFMSG,R0	; ASSUME "OFF"
   7725	015030	105737 	000000G			TSTB	.KLRLD		; IS IT OFF?
   7726	015034	001014 				BNE	20$		; YES -- GO ON
   7727	015036	000411 				BR	10$		; NO -- SAY SO
   7728						;
SWCMD -- SET / CLEAR / WHAT COM	MACRO M1113  03-APR-86 22:56  PAGE 200
.WHRTY -- THE "WHAT RETRY" COMMAND 7-DEC-78

   7730					.SBTTL	.WHRTY -- THE "WHAT RETRY" COMMAND 7-DEC-78
   7731
   7732	015040				.WHRTY::			; [TCO 4.2107] WHAT RETRY COMMAND ENTRY
   7733	015040	012700 	003022'			MOV	#WRTMSG,R0	; [TCO 4.2107] MESSAGE POINTER
   7734	015044					CALL	.TYMSG		; [TCO 4.2107] PRINT IT
	015044	004737 	000000G			 JSR	PC,.TYMSG
   7735	015050	012700 	000000G			MOV	#OFFMSG,R0	; [TCO 4.2107] ASSUME OFF
   7736	015054	005737 	000000G			TST	.KACFL		; [TCO 4.2107] IS IT SET?
   7737	015060	001402 				BEQ	20$		; [TCO 4.2107] NO -- GO ON
   7738	015062				10$:
   7739	015062	012700 	000000G			MOV	#ONMSG,R0	; [TCO 4.2107] YES -- CHANGE MESSAGE
   7740	015066				20$:
   7741	015066					CALLR	.TYLIN		; [TCO 4.2107] PRINT AND EXIT
	015066	000137 	000000G			 JMP	.TYLIN
   7742						;
   7743
   7744						.DSABL	LSB
   7745
   7746	003001				.PSECT	MESSAG
   7747
   7748	003001				WRLMSG:
   7749	003001	   040 	   122 	   105 		.ASCIZ	% RELOAD ENABLE: %
	003004	   114 	   117 	   101
	003007	   104 	   040 	   105
	003012	   116 	   101 	   102
	003015	   114 	   105 	   072
	003020	   040 	   000
   7750	003022				WRTMSG:
   7751	003022	   040 	   122 	   105 		.ASCIZ	% RETRY ENABLE: %
	003025	   124 	   122 	   131
	003030	   040 	   105 	   116
	003033	   101 	   102 	   114
	003036	   105 	   072 	   040
	003041	   000
   7752	015072				.PSECT
SWCMD -- SET / CLEAR / WHAT COM	MACRO M1113  03-APR-86 22:56  PAGE 201
.SCRPT -- THE "SET / CLEAR REPEAT" COMMAND 7703.25

   7754					.SBTTL	.SCRPT -- THE "SET / CLEAR REPEAT" COMMAND 7703.25
   7755
   7756	015072				.SCRPT::
   7757	015072	013737 	000000G	000000G		MOV	.IRADX,.RDXSV	; SAVE CURRENT INPUT RADIX
   7758	015100	012737 	000012 	000000G		MOV	#^D10,.IRADX	; SET IT TO DECIMAL
   7759	015106	005046 				CLR	-(SP)		; CLEAR A BUFFER ON THE STACK
   7760	015110	005046 				CLR	-(SP)		; .
   7761	015112	005046 				CLR	-(SP)		; ..
   7762	015114	010600 				MOV	SP,R0		; ...POINT TO THE BUFFER
   7763	015116	005737 	000000G			TST	.NOTSW		; ...IS THIS A CLEAR?
   7764	015122	001002 				BNE	10$		; ...YES -- DO THE CLEAR
   7765	015124					CALL	.GTKLN		; ...NO -- READ THE NEW REPEAT COUNT
	015124	004737 	000000G			 JSR	PC,.GTKLN
   7766	015130				10$:
   7767	015130					CALL	.CKEOC		; ...MUST HAVE E-O-C
	015130	004737 	000000G			 JSR	PC,.CKEOC
   7768	015134	012701 	000000G			MOV	#.RPTCT,R1	; ...POINT TO THE CURRENT REPEAT COUNT
   7769	015140					POP	<(R1)+,(R1)+,(R1)>
	015140	012621 				 MOV	(SP)+,(R1)+
	015142	012621 				 MOV	(SP)+,(R1)+
	015144	012611 				 MOV	(SP)+,(R1)
   7770	015146	013700 	000000G			MOV	.RPTPT,R0	; POINT TO THE STACKED REPEAT COUNT
   7771	015152					CALL	.TPCLR		; CLEAR IT OUT
	015152	004737 	000000G			 JSR	PC,.TPCLR
   7772	015156	013737 	000000G	000000G		MOV	.RDXSV,.IRADX	; RESET INPUT RADIX
   7773	015164					CALLR	.WHRPT		; PRINT THE NEW REPEAT COUNT AND EXIT
	015164	000137 	014520'			 JMP	.WHRPT
   7774						;
SWCMD -- SET / CLEAR / WHAT COM	MACRO M1113  03-APR-86 22:56  PAGE 202
.SCTRK -- THE "SET / CLEAR TRACK" COMMAND 7602.19

   7776					.SBTTL	.SCTRK -- THE "SET / CLEAR TRACK" COMMAND 7602.19
   7777
   7778	015170				.SCTRK::			; SET/CLEAR "TRACK"
   7779	015170					CALL	.CKEOC		; MUST HAVE E-O-C
	015170	004737 	000000G			 JSR	PC,.CKEOC
   7780	015174	005001 				CLR	R1		; CLEAR R1
   7781	015176	005737 	000000G			TST	.NOTSW		; IS THIS A CLEAR?
   7782	015202	001001 				BNE	10$		; YES -- GO ON
   7783	015204	005101 				COM	R1		; NO -- INVERT THE SWITCH
   7784	015206				10$:
   7785	015206	010137 	000000G			MOV	R1,.TRKWD	; SET/CLEAR THE SWITCH
   7786					;	BR	.WHTRK		; PRINT STATE AND RETURN
   7787						;
SWCMD -- SET / CLEAR / WHAT COM	MACRO M1113  03-APR-86 22:56  PAGE 203
.WHTRK -- THE "WHAT TRACKS" COMMAND 7603.20

   7789					.SBTTL	.WHTRK -- THE "WHAT TRACKS" COMMAND 7603.20
   7790
   7791						.ENABL	LSB
   7792
   7793	015212				.WHTRK::
   7794	015212	012700 	003042'			MOV	#WHTMSG,R0	; MESSAGE POINTER TO R0
   7795	015216					CALL	.TYMSG		; PRINT IT
	015216	004737 	000000G			 JSR	PC,.TYMSG
   7796	015222	012700 	000000G			MOV	#ONMSG,R0	; ASSUME "ON"
   7797	015226	005737 	000000G			TST	.TRKWD		; IS IT ON?
   7798	015232	001021 				BNE	10$		; YES -- GO ON
   7799	015234	012700 	000000G			MOV	#OFFMSG,R0	; NO -- SAY SO
   7800	015240	000416 				BR	10$		; PRINT AND EXIT
   7801						;
   7802
SWCMD -- SET / CLEAR / WHAT COM	MACRO M1113  03-APR-86 22:56  PAGE 204
.WHATV -- THE "WHAT VERSION" COMMAND 7607.21

   7804					.SBTTL	.WHATV -- THE "WHAT VERSION" COMMAND 7607.21
   7805
   7806	015242				.WHATV::
   7807	015242	012700 	003062'			MOV	#WVMSG1,R0	; MESSAGE POINTER TO R0
   7808	015246					CALL	.TYMSG		; PRINT THAT
	015246	004737 	000000G			 JSR	PC,.TYMSG
   7809	015252	012700 	000000G			MOV	#CPVMSG,R0	; PARSER VERSION NUMBER
   7810	015256					CALL	.TYLIN		; PRINT IT
	015256	004737 	000000G			 JSR	PC,.TYLIN
   7811	015262	012700 	003104'			MOV	#WVMSG2,R0	; MESSAGE POINTER TO R0
   7812	015266					CALL	.TYMSG		; PRINT IT
	015266	004737 	000000G			 JSR	PC,.TYMSG
   7813	015272	012700 	000000G			MOV	#.VERNO,R0	; POINTER TO RSX20F ASCIZ VERSION NUMBER
   7814	015276				10$:
   7815	015276					CALLR	.TYLIN		; PRINT IT AND EXIT
	015276	000137 	000000G			 JMP	.TYLIN
   7816						;
   7817
   7818	003042				.PSECT	MESSAG
   7819
   7820	003042				WHTMSG:
   7821	003042	   040 	   124 	   122 		.ASCIZ	% TRACK ENABLE: %
	003045	   101 	   103 	   113
	003050	   040 	   105 	   116
	003053	   101 	   102 	   114
	003056	   105 	   072 	   040
	003061	   000
   7822	003062				WVMSG1:
   7823	003062	   040 	   120 	   101 		.ASCIZ	% PARSER VERSION: %
	003065	   122 	   123 	   105
	003070	   122 	   040 	   126
	003073	   105 	   122 	   123
	003076	   111 	   117 	   116
	003101	   072 	   040 	   000
   7824	003104				WVMSG2:
   7825	003104	   040 	   122 	   123 		.ASCIZ	% RSX20F VERSION: %
	003107	   130 	   062 	   060
	003112	   106 	   040 	   126
	003115	   105 	   122 	   123
	003120	   111 	   117 	   116
	003123	   072 	   040 	   000
   7826
   7827	015302				.PSECT
   7828
   7829						.DSABL	LSB
SWCMD -- SET / CLEAR / WHAT COM	MACRO M1113  03-APR-86 22:56  PAGE 205
.WHRDW -- DISPLAY KL10 HARDWARE ENVIRONMENT 7910.18

   7831					.SBTTL	.WHRDW -- DISPLAY KL10 HARDWARE ENVIRONMENT 7910.18
   7832
   7833					;+
   7834					; .WHRDW -- DISPLAY KL10 HARDWARE ENVIRONMENT
   7835					;
   7836					; THIS SUBROUTINE WILL DISPLAY THE KL10 HARDWARE ENVIRONMENT DETERMINED
   7837					; FROM THE CONTENT OF ".CPUSN" AND ".HRDWR" IN THE FRONT-END STATUS BLOCK.
   7838					;
   7839					;	THIS ROUTINE WAS ADDED FOR TCO 5.1011
   7840					;
   7841					; INPUT ARGUMENTS:
   7842					;
   7843					;	NONE.
   7844					;
   7845					; OUTPUT ARGUMENTS:
   7846					;
   7847					;	NONE.
   7848					;
   7849					; ERROR CODES RETURNED:
   7850					;
   7851					;	CRH -- CAN'T READ HARDWARE OPTIONS
   7852					;	MRH -- HARDWARE OPTIONS MUST YET BE READ
   7853					;-
   7854
   7855	015302				.WHRDW::
   7856	015302	005737 	000000G			TST	.CPUSN		; DO WE HAVE THE HARDWARE OPTIONS??
   7857	015306	001474 				BEQ	WHRMRH		; NO -- MUST BE READ BY KLINIT
   7858	015310	002476 				BLT	WHRCRH		; NO -- CAN'T BE READ
   7859	015312	012700 	003126'			MOV	#WHHMS0,R0	; YES -- SET UP PREAMBLE
   7860	015316					CALL	.TYMSG		; PRINT IT
	015316	004737 	000000G			 JSR	PC,.TYMSG
   7861	015322	013700 	000000G			MOV	.CPUSN,R0	; GET THE SERIAL NUMBER
   7862	015326					PUSH	.ORADX		; SAVE CURRENT RADIX
	015326	013746 	000000G			 MOV	.ORADX,-(SP)
   7863	015332	012737 	000012 	000000G		MOV	#^D10,.ORADX	; .SET RADIX TO DECIMAL
   7864	015340					CALL	.TYELN		; .PRINT IT
	015340	004737 	000000G			 JSR	PC,.TYELN
   7865	015344	012700 	003142'			MOV	#WHHMS1,R0	; .MODEL PREAMBLE TO R0
   7866	015350					CALL	.TYMSG		; .PRINT IT
	015350	004737 	000000G			 JSR	PC,.TYMSG
   7867	015354	012700 	000101 			MOV	#'A,R0		; .ASSUME A MODEL "A"
   7868	015360	032737 	000000G	000000G		BIT	#H.KEXT,.HRDWR	; .IS IT A MODEL "A"??
   7869	015366	001401 				BEQ	10$		; .YES -- GO ON
   7870	015370	005200 				INC	R0		; .NO -- SET IT TO "B"
   7871	015372				10$:
   7872	015372					CALL	.TYCHR		; .AND PRINT IT
	015372	004737 	000000G			 JSR	PC,.TYCHR
   7873	015376					CALL	.TYCOM		; .PRINT COMMA
	015376	004737 	000000G			 JSR	PC,.TYCOM
   7874	015402					CALL	.TYSPC		; .AND A SPACE
	015402	004737 	000000G			 JSR	PC,.TYSPC
   7875	015406	012700 	000074 			MOV	#^D60,R0	; .ASSUME 60 HERTZ
   7876	015412	032737 	000000G	000000G		BIT	#H.KPWR,.HRDWR	; .IS IT 60 HERTZ??
   7877	015420	001402 				BEQ	20$		; .YES -- GO ON
   7878	015422	162700 	000012 			SUB	#^D10,R0	; .NO -- MAKE IT 50
   7879	015426				20$:
   7880	015426					CALL	.TYELN		; .PRINT POWER FREQUENCY
SWCMD -- SET / CLEAR / WHAT COM	MACRO M1113  03-APR-86 22:56  PAGE 205-1
.WHRDW -- DISPLAY KL10 HARDWARE ENVIRONMENT 7910.18

	015426	004737 	000000G			 JSR	PC,.TYELN
   7881	015432					POP	.ORADX		; RESTORE RADIX
	015432	012637 	000000G			 MOV	(SP)+,.ORADX
   7882	015436	012700 	003154'			MOV	#WHHMS2,R0	; END OF LINE
   7883	015442					CALL	.TYLIN		; PRINT THE LINE
	015442	004737 	000000G			 JSR	PC,.TYLIN
   7884	015446	012702 	000004 			MOV	#4,R2		; ITERATION COUNT TO R2
   7885	015452	012703 	001060'			MOV	#WHWTAB,R3	; TABLE POINTER TO R3
   7886	015456				30$:
   7887	015456	012300 				MOV	(R3)+,R0	; MESSAGE POINTER TO R0
   7888	015460	032337 	000000G			BIT	(R3)+,.HRDWR	; IS THE OPTION PRESENT??
   7889	015464	001402 				BEQ	40$		; NO -- GO ON
   7890	015466					CALL	.TYLIN		; YES -- SAY SO
	015466	004737 	000000G			 JSR	PC,.TYLIN
   7891	015472				40$:
   7892	015472	077207 				SOB	R2,30$		; LOOP THROUGH ALL OPTIONS
   7893	015474					CALLR	.TCRLF		; END THE LINE AND EXIT
	015474	000137 	000000G			 JMP	.TCRLF
   7894						;
   7895	015500				WHRMRH:
   7896	015500					ERROR$	MRH		; MUST READ HARDWARE
	015500	012746 	052030 			 MOV	#^RMRH,-(SP)
	015504	104400 				 TRAP	TC.ERR
   7897						;
   7898	015506				WHRCRH:
   7899	015506					ERROR$	CRH		; CAN'T READ HARDWARE
	015506	012746 	012630 			 MOV	#^RCRH,-(SP)
	015512	104400 				 TRAP	TC.ERR
   7900						;
   7901
   7902	001060					.PSECT	DATA
   7903
   7904	001060				WHWTAB:
   7905	001060	003164'	000000G			.WORD	WHHMS3,H.KMOS
   7906	001064	003213'	000000G			.WORD	WHHMS4,H.KEXT
   7907	001070	003240'	000000G			.WORD	WHHMS5,H.KCHN
   7908	001074	003263'	000000G			.WORD	WHHMS6,H.KCAC
   7909
   7910	003126					.PSECT	MESSAG
   7911
   7912	003126				WHHMS0:
   7913	003126	   040 	   113 	   114 		.ASCIZ	% KL10 S/N: %
	003131	   061 	   060 	   040
	003134	   123 	   057 	   116
	003137	   072 	   040 	   000
   7914	003142				WHHMS1:
   7915	003142	   056 	   054 	   040 		.ASCIZ	%., MODEL %
	003145	   115 	   117 	   104
	003150	   105 	   114 	   040
	003153	   000
   7916	003154				WHHMS2:
   7917	003154	   056 	   040 	   110 		.ASCIZ	%. HERTZ%
	003157	   105 	   122 	   124
	003162	   132 	   000
   7918	003164				WHHMS3:
   7919	003164	   011 	   115 	   117 		.ASCIZ	%	MOS MASTER OSCILLATOR%
	003167	   123 	   040 	   115
SWCMD -- SET / CLEAR / WHAT COM	MACRO M1113  03-APR-86 22:56  PAGE 205-2
.WHRDW -- DISPLAY KL10 HARDWARE ENVIRONMENT 7910.18

	003172	   101 	   123 	   124
	003175	   105 	   122 	   040
	003200	   117 	   123 	   103
	003203	   111 	   114 	   114
	003206	   101 	   124 	   117
	003211	   122 	   000
   7920	003213				WHHMS4:
   7921	003213	   011 	   105 	   130 		.ASCIZ	%	EXTENDED ADDRESSING%
	003216	   124 	   105 	   116
	003221	   104 	   105 	   104
	003224	   040 	   101 	   104
	003227	   104 	   122 	   105
	003232	   123 	   123 	   111
	003235	   116 	   107 	   000
   7922	003240				WHHMS5:
   7923	003240	   011 	   111 	   116 		.ASCIZ	%	INTERNAL CHANNELS%
	003243	   124 	   105 	   122
	003246	   116 	   101 	   114
	003251	   040 	   103 	   110
	003254	   101 	   116 	   116
	003257	   105 	   114 	   123
	003262	   000
   7924	003263				WHHMS6:
   7925	003263	   011 	   103 	   101 		.ASCIZ	%	CACHE%
	003266	   103 	   110 	   105
	003271	   000
   7926
   7927	015514					.PSECT
SWCMD -- SET / CLEAR / WHAT COM	MACRO M1113  03-APR-86 22:56  PAGE 206
.SFREC -- SET/CLEAR FAULT COMMAND

   7929						.SBTTL	.SFREC -- SET/CLEAR FAULT COMMAND
   7930
   7931						.ENABL	LSB
   7932
   7933	015514				.SFREC::
   7934	015514					CALL	.CKEOC			;MUST HAVE E-O-C
	015514	004737 	000000G			 JSR	PC,.CKEOC
   7935	015520	113737 	000000G	000000G		MOVB	.NOTSW,.KLFCF		;SET/CLEAR THE FLAG
   7936	015526	000402 				BR	20$
   7937						;
SWCMD -- SET / CLEAR / WHAT COM	MACRO M1113  03-APR-86 22:56  PAGE 207
WHAT FAULT CONTINUATION COMMAND

   7939						.SBTTL	WHAT FAULT CONTINUATION COMMAND
   7940
   7941	015530				.WHREC::
   7942	015530					CALL	.CKEOC			;MUST HAVE E-O-C
	015530	004737 	000000G			 JSR	PC,.CKEOC
   7943	015534				20$:
   7944	015534	012700 	003272'			MOV	#WHRECM,R0		;FAULT-CONTINUATION MESSAGE
   7945	015540					CALL	.TYMSG			;TYPE IT
	015540	004737 	000000G			 JSR	PC,.TYMSG
   7946	015544	012700 	000000G			MOV	#ONMSG,R0		;ASSUME IT'S ON
   7947	015550	105737 	000000G			TSTB	.KLFCF			;.KLCON = 0 = ON
   7948	015554	001402 				BEQ	10$			;BIT IS OFF, F-C IS ON
   7949	015556	012700 	000000G			MOV	#OFFMSG,R0		;BIT IS ON, F-C IS OFF
   7950	015562				10$:
   7951	015562					CALLR	.TYLIN			;TYPE IT AND EXIT
	015562	000137 	000000G			 JMP	.TYLIN
   7952						;
   7953						.DSABL	LSB
   7954	003272					.PSECT	MESSAG
   7955
   7956	003272				WHRECM:
   7957	003272	   106 	   101 	   125 		.ASCIZ	%FAULT-CONTINUATION: %
	003275	   114 	   124 	   055
	003300	   103 	   117 	   116
	003303	   124 	   111 	   116
	003306	   125 	   101 	   124
	003311	   111 	   117 	   116
	003314	   072 	   040 	   000
   7958
   7959	015566					.PSECT
   7960
   7961					.TITLE	SWCPC -- SET / CLEAR CLOCK AND PARITY MODULE 7608.19
   7962
   7963						.IDENT	"005000"
   7964
   7965					;
   7966					;                             COPYRIGHT (C) 1975, 1984, 1985 BY
   7967					;                     DIGITAL EQUIPMENT CORPORATION, MAYNARD MASS.
   7968					;			ALL RIGHTS RESERVED.
   7969					;       THIS SOFTWARE IS FURNISHED UNDER A LICENSE AND MAY BE  USED  AND  COPIED
   7970					;       ONLY IN ACCORDANCE WITH THE TERMS OF SUCH LICENSE AND WITH THE INCLUSION
   7971					;       OF THE ABOVE COPYRIGHT NOTICE.  THIS SOFTWARE OR ANY OTHER COPIES THERE-
   7972					;       OF  MAY NOT BE PROVIDED OR OTHERWISE MADE AVAILABLE TO ANY OTHER PERSON.
   7973					;       NO TITLE TO OR OWNERSHIP OF THE SOFTWARE IS HEREBY TRANSFERRED.
   7974					;
   7975					;       THE INFORMATION CONTAINED IN THIS SOFTWARE IS SUBJECT TO CHANGE  WITHOUT
   7976					;       NOTICE  AND SHOULD NOT BE CONSTRUED AS A COMMITMENT BY DIGITAL EQUIPMENT
   7977					;       CORPORATION.
   7978					;
   7979					;       DIGITAL ASSUMES NO RESPONSIBILITY FOR THE  USE  OR  RELIABILITY  OF  ITS
   7980					;       SOFTWARE ON EQUIPMENT WHICH IS NOT SUPPILED BY DIGITAL.
   7981					;
   7982					;		MODULE: SET / CLEAR CLOCK AND PARITY
   7983					;
   7984					;		VERSION: 05-00
   7985					;
   7986					;		AUTHOR: R. BELANGER
SWCPC -- SET / CLEAR CLOCK AND 	MACRO M1113  03-APR-86 22:56  PAGE 207-1
WHAT FAULT CONTINUATION COMMAND

   7987					;
   7988					;		DATE: 7608.19
   7989					;
   7990					;	THIS MODULE CONTAINS:
   7991					;
   7992					;	1) SET / CLEAR CLOCK DISPATCH CODE
   7993					;
   7994					;	MODIFIED BY A. PECKHAM 7612.10 TO DELETE REFERENCES TO .SECFL
SWCPC -- SET / CLEAR CLOCK AND 	MACRO M1113  03-APR-86 22:56  PAGE 208
.SCCLK -- THE "SET / CLEAR CLOCK" COMMAND DISPATCH 7608.19

   7996					.SBTTL	.SCCLK -- THE "SET / CLEAR CLOCK" COMMAND DISPATCH 7608.19
   7997
   7998					;+
   7999					; .SCCLK -- THE "SET / CLEAR CLOCK" COMMAND DISPATCH.
   8000					; .SCFSS -- THE "SET / CLEAR FS-STOP" COMMAND DISPATCH.
   8001					; .SCPAR -- THE "SET / CLEAR PARITY-STOP" COMMAND DISPATCH.
   8002					;
   8003					; THESE SUBROUTINES WILL SET OR CLEAR THE SPECIFIED KL INTERNAL
   8004					; PARITY STOP ENABLE AS DIRECTED BY THE INPUT STREAM.
   8005					;
   8006					; INPUT ARGUMENTS:
   8007					;
   8008					;	THE CURRENT PARITY STOP ENABLES ARE IN ".PSCWD"
   8009					;	THE CURRENT CLOCK PARAMETERS ARE IN ".CLKWD"
   8010					;
   8011					; OUTPUT ARGUMENTS:
   8012					;
   8013					;	THE NEW PARITY STOP ENABLES ARE IN ".PSCWD".
   8014					;	THE NEW CLOCK PARAMETERS ARE IN ".CLKWD"
   8015					;
   8016					; ERROR CODES RETURNED:
   8017					;
   8018					;	ILS -- ILLEGAL SEPARATOR CHARACTER.
   8019					;-
   8020
   8021						.ENABL	LSB
   8022
   8023	015566				.SCCLK::			; SET / CLEAR "CLOCK"
   8024	015566					CALL	.CKARG		; MUST HAVE AN ARGUMENT
	015566	004737 	000000G			 JSR	PC,.CKARG
   8025	015572	012703 	001100'			MOV	#SCCLKT,R3	; TABLE POINTER TO R3
   8026	015576	000415 				BR	10$		; DO COMMON CODE
   8027						;
   8028	015600				.SCFSS::			; SET / CLEAR "FS-STOP"
   8029	015600					CALL	.CKEOC		; MUST BE E-O-C
	015600	004737 	000000G			 JSR	PC,.CKEOC
   8030	015604	012703 	001112'			MOV	#SCPART,R3	; TABLE POINTER TO R3
   8031	015610					CALL	40$		; READ THE CURRENT PARAMETERS
	015610	004737 	015742'			 JSR	PC,40$
   8032	015614					CALL	.SCPFS		; SET THE CONTROL WORD UP
	015614	004737 	016230'			 JSR	PC,.SCPFS
   8033	015620	000425 				BR	20$		; AND GO SET IT
   8034						;
   8035	015622				.SCPST::			; SET / CLEAR "PARITY-STOP"
   8036	015622					CALL	.CKARG		; MUST HAVE AN ARGUMENT
	015622	004737 	000000G			 JSR	PC,.CKARG
   8037	015626	012703 	001112'			MOV	#SCPART,R3	; TABLE POINTER TO R3
   8038					;	BR	10$		; DO COMMON CODE
   8039						;
   8040
   8041					;	[CONTINUED ON THE FOLLOWING PAGE]
SWCPC -- SET / CLEAR CLOCK AND 	MACRO M1113  03-APR-86 22:56  PAGE 209
.SCCLK -- THE "SET / CLEAR CLOCK" COMMAND DISPATCH 7608.19

   8043					;	[CONTINUED FROM THE PREVIOUS PAGE]
   8044
   8045	015632				10$:
   8046	015632					CALL	40$		; READ THE CURRENT PARAMETERS
	015632	004737 	015742'			 JSR	PC,40$
   8047	015636	011300 				MOV	(R3),R0		; TABLE POINTER TO R0
   8048	015640					CALL	.TSCAN		; SCAN THE TABLE
	015640	004737 	000000G			 JSR	PC,.TSCAN
   8049	015644					CALL	@2(R0)		; DO WHAT IT SAYS TO
	015644	004770 	000002 			 JSR	PC,@2(R0)
   8050	015650	111504 				MOVB	(R5),R4		; GET THE LAST CHARACTER INTO R4
   8051	015652	132764 	000010 	000000G		BITB	#CH.EOC,.CHTAB(R4)
   8052	015660	001005 				BNE	20$		; E-O-C -- GO SET PARITY STOPS
   8053	015662	122704 	000054 			CMPB	#.COMMA,R4	; NOT E-O-C -- IS IT A <COMMA>?
   8054	015666	001037 				BNE	SCPILS		; NO -- GIVE "ILS" ERROR
   8055	015670	105725 				TSTB	(R5)+		; YES -- GET OVER THE COMMA
   8056	015672	000757 				BR	10$		; AND GO ON
   8057						;
   8058	015674				20$:
   8059	015674	005723 				TST	(R3)+		; ADVANCE THE POINTER
   8060	015676					PUSH	R1		; SAVE NEW CONTROL WORD
	015676	010146 				 MOV	R1,-(SP)
   8061	015700	010601 				MOV	SP,R1		; .POINT TO THE ENABLE WORD
   8062	015702					PUSH	.KLFLG		; .SAVE ".KLFLG"
	015702	013746 	000000G			 MOV	.KLFLG,-(SP)
   8063	015706					CALL	.KLHLT		; ..STOP THE KL
	015706	004737 	000000G			 JSR	PC,.KLHLT
   8064	015712					CALL	@(R3)+		; ..LOAD THE PARAMETERS
	015712	004733 				 JSR	PC,@(R3)+
   8065	015714					POP	.SVKLF		; ..SET UP ".SVKLF"
	015714	012637 	000000G			 MOV	(SP)+,.SVKLF
   8066	015720					CALL	.RDCPP		; .READ BACK WHAT WE WROTE
	015720	004737 	000000G			 JSR	PC,.RDCPP
   8067	015724	023326 				CMP	@(R3)+,(SP)+	; .DID WE READ WHAT WE WROTE
   8068	015726	001401 				BEQ	30$		; YES -- GO ON
   8069	015730					CALLR	@(R3)+		; NO -- GIVE THE PROPER ERROR
	015730	000133 				 JMP	@(R3)+
   8070						;
   8071	015732				30$:
   8072	015732	005723 				TST	(R3)+		; GET OVER THE ERROR POINTER
   8073	015734					CALL	.KLRST		; RESTART THE KL
	015734	004737 	000000G			 JSR	PC,.KLRST
   8074	015740					CALLR	@(R3)+		; DISPLAY CURRENT PARAMETERS AND EXIT
	015740	000133 				 JMP	@(R3)+
   8075						;
   8076
   8077					;	[CONTINUED ON THE FOLLOWING PAGE]
SWCPC -- SET / CLEAR CLOCK AND 	MACRO M1113  03-APR-86 22:56  PAGE 210
.SCCLK -- THE "SET / CLEAR CLOCK" COMMAND DISPATCH 7608.19

   8079					;	[CONTINUED FROM THE PREVIOUS PAGE]
   8080
   8081	015742				40$:
   8082	015742					CALL	.CKRUN		; INSURE WE CAN DO THIS
	015742	004737 	000000G			 JSR	PC,.CKRUN
   8083	015746					CALL	.STPKL		; STOP THE KL10
	015746	004737 	000000G			 JSR	PC,.STPKL
   8084	015752					CALL	.RDCPP		; READ CLOCK AND PARITY
	015752	004737 	000000G			 JSR	PC,.RDCPP
   8085	015756	017301 	000004 			MOV	@4(R3),R1	; DESIRED CONTROL WORD TO R1
   8086	015762					CALLR	.RSTKL		; RESTART THE KL AND EXIT
	015762	000137 	000000G			 JMP	.RSTKL
   8087						;
   8088
   8089						.DSABL	LSB
   8090
   8091	015766				SCPILS:
   8092	015766					ERROR$	ILS		; ERROR -- ILLEGAL SEPARATOR CHARACTER
	015766	012746 	035063 			 MOV	#^RILS,-(SP)
	015772	104400 				 TRAP	TC.ERR
   8093						;
   8094	015774				SCPSCF:
   8095	015774					ERROR$	SCF		; ERROR -- SET CLOCK FAILED
	015774	012746 	073476 			 MOV	#^RSCF,-(SP)
	016000	104400 				 TRAP	TC.ERR
   8096						;
   8097	016002				SCPSPF:
   8098	016002					ERROR$	SPF		; ERROR -- SET PARITY FAILED
	016002	012746 	074506 			 MOV	#^RSPF,-(SP)
	016006	104400 				 TRAP	TC.ERR
   8099						;
   8100
   8101	001100				.PSECT	DATA
   8102
   8103	001100				SCCLKT:
   8104	001100	000000G				.WORD	.SCCTB		; TABLE TO SCAN
   8105	001102	000000G				.WORD	.LDCLK		; LOAD ROUTINE
   8106	001104	000000G				.WORD	.CLKWD		; PARAMETER WORD
   8107	001106	015774'				.WORD	SCPSCF		; ERROR ROUTINE
   8108	001110	016272'				.WORD	.WHTCA		; DISPLAY ROUTINE
   8109	001112				SCPART:
   8110	001112	000000G				.WORD	.SCPTB		; TABLE TO SCAN
   8111	001114	000000G				.WORD	.LDPAR		; LOAD ROUTINE
   8112	001116	000000G				.WORD	.PSCWD		; PARAMETER WORD
   8113	001120	016002'				.WORD	SCPSPF		; ERROR ROUTINE
   8114	001122	016474'				.WORD	.WHTPA		; DISPLAY ROUTINE
   8115
   8116	016010				.PSECT
SWCPC -- SET / CLEAR CLOCK AND 	MACRO M1113  03-APR-86 22:56  PAGE 211
.SCCRF -- SET / CLEAR "CLOCK <OBJECT>" 7603.09

   8118					.SBTTL	.SCCRF -- SET / CLEAR "CLOCK <OBJECT>" 7603.09
   8119
   8120						.ENABL	LSB
   8121
   8122	016010				.SCCLN::			; SET / CLEAR CLOCK "NORMAL"
   8123	016010	005001 				CLR	R1		; CLEAR THE PARAMETER WORD
   8124	016012				.SCCRF::			; SET / CLEAR CLOCK "FULL"
   8125	016012	005002 				CLR	R2		; "FULL" CLOCK RATE
   8126	016014	000410 				BR	10$		; DO COMMON CODE
   8127						;
   8128	016016				.SCCRH::			; SET / CLEAR CLOCK "HALF"
   8129	016016	012702 	000001 			MOV	#CR.HLF,R2	; "HALF" CLOCK RATE
   8130	016022	000405 				BR	10$		; DO COMMON CODE
   8131						;
   8132	016024				.SCCRQ::			; SET / CLEAR CLOCK "QUARTER"
   8133	016024	012702 	000002 			MOV	#CR.QTR,R2	; "QUARTER" CLOCK RATE
   8134	016030	000402 				BR	10$		; DO COMMON CODE
   8135						;
   8136	016032				.SCCRS::			; SET / CLEAR CLOCK "SLOW"
   8137	016032	012702 	000003 			MOV	#CR.SLO,R2	; "SLOW" CLOCK RATE
   8138	016036				10$:
   8139	016036	042701 	000003 			BIC	#CR.ALL,R1	; CLEAR OUT THE OLD CLOCK RATE
   8140	016042	000422 				BR	40$		; AND GO DO CLEAR CHECK
   8141						;
   8142	016044				.SCCSE::			; SET / CLEAR CLOCK "EXTERNAL"
   8143	016044	012700 	003317'			MOV	#CCEMSG,R0	; ASK "ARE YOU SURE"
   8144	016050					CALL	.TYMSG		; PRINT IT
	016050	004737 	000000G			 JSR	PC,.TYMSG
   8145	016054					CALL	.YESNO		; ASK "YES OR NO"
	016054	004737 	016634'			 JSR	PC,.YESNO
   8146	016060	103403 				BCS	20$		; SAID "NO" IF CC-C IS SET
   8147	016062	012702 	000010 			MOV	#CS.EXT,R2	; "EXTERNAL" CLOCK SOURCE
   8148	016066	000406 				BR	30$		; DO COMMNON CODE
   8149						;
   8150	016070				20$:
   8151	016070	000177 	000000G			JMP	@.STRTV		; RESTART THE PARSER
   8152						;
   8153	016074				.SCCSI::			; SET / CLEAR CLOCK "INTERNAL"
   8154	016074	005002 				CLR	R2		; "INTERNAL" CLOCK SOURCE
   8155	016076	000402 				BR	30$		; DO COMMON CODE
   8156						;
   8157	016100				.SCCSM::			; SET / CLEAR CLOCK "MARGIN"
   8158	016100	012702 	000004 			MOV	#CS.MGN,R2	; "MARGIN" CLOCK SOURCE
   8159	016104				30$:
   8160	016104	042701 	000014 			BIC	#CS.ALL,R1	; CLEAR OUT THE OLD CLOCK SOURCE
   8161	016110				40$:
   8162	016110	005737 	000000G			TST	.NOTSW		; IS THIS A CLEAR?
   8163	016114	001002 				BNE	50$		; YES -- JUST EXIT
   8164	016116	050201 				BIS	R2,R1		; NO -- SET THE NEW CLOCK PARAMETERS
   8165	016120	000401 				BR	60$		; AND EXIT
   8166						;
   8167	016122				50$:
   8168	016122	040201 				BIC	R2,R1		; CLEAR THE NEW CLOCK PARAMETERS
   8169	016124				60$:
   8170	016124					RETURN			; EXIT
	016124	000207 				 RTS	PC
   8171
SWCPC -- SET / CLEAR CLOCK AND 	MACRO M1113  03-APR-86 22:56  PAGE 211-1
.SCCRF -- SET / CLEAR "CLOCK <OBJECT>" 7603.09

   8172						.DSABL	LSB
SWCPC -- SET / CLEAR CLOCK AND 	MACRO M1113  03-APR-86 22:56  PAGE 212
.SCCRF -- SET / CLEAR "CLOCK <OBJECT>" 7603.09

   8174						.ENABL	LSB
   8175
   8176	016126				.SCCEC::			; SET / CLEAR CLOCK "CRAM"
   8177	016126	012702 	002000 			MOV	#CD.CRC,R2	; "CRAM" CLOCK ENABLE
   8178	016132	000405 				BR	10$		; DO COMMON CODE
   8179						;
   8180	016134				.SCCED::			; SET / CLEAR CLOCK "DATA-PATH"
   8181	016134	012702 	001000 			MOV	#CD.DPC,R2	; "DATA-PATH" CLOCK ENABLE
   8182	016140	000402 				BR	10$		; DO COMMON CODE
   8183						;
   8184	016142				.SCCEE::			; SET / CLEAR CLOCK "CONTROL"
   8185	016142	012702 	000400 			MOV	#CD.CLC,R2	; "CONTROL" CLOCK ENABLE
   8186	016146				10$:
   8187	016146	005737 	000000G			TST	.NOTSW		; IS THIS A CLEAR?
   8188	016152	001402 				BEQ	20$		; NO -- SET THE NEW CLOCK ENABLE
   8189	016154	050201 				BIS	R2,R1		; YES -- SET THE DISABLE
   8190	016156	000401 				BR	30$		; AND EXIT
   8191						;
   8192	016160				20$:
   8193	016160	040201 				BIC	R2,R1		; CLEAR THE DISABLE
   8194	016162				30$:
   8195	016162					RETURN			; AND EXIT
	016162	000207 				 RTS	PC
   8196
   8197						.DSABL	LSB
   8198
   8199	003317				.PSECT	MESSAG
   8200
   8201	003317				CCEMSG:
   8202	003317	   007 	   177 	   177 		.ASCII	<007><177><177><007><177><177><007><177><177>
	003322	   007 	   177 	   177
	003325	   007 	   177 	   177
   8203	003330	   040 	   103 	   117 		.ASCIZ	% CONFIRM EXTERNAL CLOCK SOURCE%
	003333	   116 	   106 	   111
	003336	   122 	   115 	   040
	003341	   105 	   130 	   124
	003344	   105 	   122 	   116
	003347	   101 	   114 	   040
	003352	   103 	   114 	   117
	003355	   103 	   113 	   040
	003360	   123 	   117 	   125
	003363	   122 	   103 	   105
	003366	   000
   8204
   8205	016164				.PSECT
SWCPC -- SET / CLEAR CLOCK AND 	MACRO M1113  03-APR-86 22:56  PAGE 213
.SCPAR -- SET / CLEAR PARITY-STOP "<OBJECT>" 7603.08

   8207					.SBTTL	.SCPAR -- SET / CLEAR PARITY-STOP "<OBJECT>" 7603.08
   8208
   8209						.ENABL	LSB
   8210
   8211	016164				.SCPAL::			; SET CLEAR PARITY-STOP "ALL"
   8212	016164	012702 	001416 			MOV	#PS.NRM,R2	; NORMAL PARITY STOPS
   8213	016170	000421 				BR	10$		; DO COMMON CODE
   8214						;
   8215	016172				.SCPAR::			; SET / CLEAR PARITY-STOP "AR"
   8216	016172	012702 	001000 			MOV	#AP.ARP,R2	; AR / ARX PARITY STOP
   8217	016176	000416 				BR	10$		; DO COMMON CODE
   8218						;
   8219	016200				.SCPCR::			; SET / CLEAR PARITY-STOP "CRAM"
   8220	016200	012702 	000004 			MOV	#IP.CRP,R2	; CRAM PARITY STOP
   8221	016204	000413 				BR	10$		; DO COMMON CODE
   8222						;
   8223	016206				.SCPDR::			; SET / CLEAR PARITY-STOP "DRAM"
   8224	016206	012702 	000002 			MOV	#IP.DRP,R2	; DRAM PARITY STOP
   8225	016212	000410 				BR	10$		; DO COMMON CODE
   8226						;
   8227	016214				.SCPEN::			; SET / CLEAR PARITY-STOP "ENABLE"
   8228	016214	012702 	000400 			MOV	#AP.EIP,R2	; PARITY STOP ENABLE
   8229	016220	000405 				BR	10$		; DO COMMON CODE
   8230						;
   8231	016222				.SCPFM::			; SET / CLEAR PARITY-STOP "FM"
   8232	016222	012702 	000010 			MOV	#IP.FMP,R2	; FAST MEMORY PARITY STOP
   8233	016226	000402 				BR	10$		; DO COMMON CODE
   8234						;
   8235	016230				.SCPFS::			; SET / CLEAR PARITY-STOP "FS-STOP"
   8236	016230	012702 	000001 			MOV	#IP.FSS,R2	; FS STOP
   8237	016234				10$:
   8238	016234	005737 	000000G			TST	.NOTSW		; IS THIS A CLEAR?
   8239	016240	001402 				BEQ	20$		; NO -- GO ON
   8240	016242	040201 				BIC	R2,R1		; YES -- CLEAR THE ENABLE
   8241	016244					RETURN			; EXIT
	016244	000207 				 RTS	PC
   8242	016246				20$:
   8243	016246	052701 	000400 			BIS	#AP.EIP,R1	; ENABLE THE ERROR STOPS
   8244	016252	050201 				BIS	R2,R1		; SET THE ENABLES
   8245	016254					RETURN			; TO CALLER
	016254	000207 				 RTS	PC
   8246
   8247						.DSABL	LSB
SWCPC -- SET / CLEAR CLOCK AND 	MACRO M1113  03-APR-86 22:56  PAGE 214
.WHTCL -- THE "WHAT CLOCK" COMMAND 7608.17

   8249					.SBTTL	.WHTCL -- THE "WHAT CLOCK" COMMAND 7608.17
   8250
   8251	016256				.WHTCL::
   8252	016256					CALL	.STPKL		; STOP THE KL
	016256	004737 	000000G			 JSR	PC,.STPKL
   8253	016262					CALL	.RDCPP		; READ THE CLOCK BOARD
	016262	004737 	000000G			 JSR	PC,.RDCPP
   8254	016266					CALL	.RSTKL		; RESTART THE KL
	016266	004737 	000000G			 JSR	PC,.RSTKL
   8255	016272				.WHTCA::
   8256	016272					PUSH	.CLKWD		; SAVE THE WORD ON THE STACK
	016272	013746 	000000G			 MOV	.CLKWD,-(SP)
   8257	016276	012700 	003367'			MOV	#WCMSG0,R0	; .HEADER MESSAGE
   8258	016302					CALL	.TYLIN		; .TYPE IT
	016302	004737 	000000G			 JSR	PC,.TYLIN
   8259	016306	012700 	003413'			MOV	#WCMSG1,R0	; .ENABLES
   8260	016312					CALL	.TYMSG		; .TYPE IT
	016312	004737 	000000G			 JSR	PC,.TYMSG
   8261	016316	012701 	001124'			MOV	#CLDSTB,R1	; .TABLE POINTER TO R1
   8262	016322	012702 	000003 			MOV	#^D3,R2		; .ITERATION COUNT TO R2
   8263	016326	011603 				MOV	(SP),R3		; .CLOCK WORD TO R3
   8264	016330	042703 	174377 			BIC	#^C<CD.ALL>,R3	; .MASK OUT THE DISABLES
   8265	016334	001005 				BNE	10$		; .GO PRINT DISABLES
   8266	016336	012700 	003451'			MOV	#NONMSG,R0	; .NO DISABLES SET -- SAY SO
   8267	016342					CALL	.TYLIN		; .TYPE IT
	016342	004737 	000000G			 JSR	PC,.TYLIN
   8268	016346	000414 				BR	30$		; .AND GO ON
   8269						;
   8270	016350				10$:
   8271	016350	012100 				MOV	(R1)+,R0	; .MESSAGE POINTER TO R0
   8272	016352	032103 				BIT	(R1)+,R3	; .IS THE DISABLE ON??
   8273	016354	001406 				BEQ	20$		; .NO -- FORGET IT
   8274	016356					CALL	.TYMSG		; .YES -- SAY SO
	016356	004737 	000000G			 JSR	PC,.TYMSG
   8275	016362					CALL	.TYCOM		; .TYPE A COMMA
	016362	004737 	000000G			 JSR	PC,.TYCOM
   8276	016366					CALL	.TYSPC		; .TYPE A <SPACE>
	016366	004737 	000000G			 JSR	PC,.TYSPC
   8277	016372				20$:
   8278	016372	077212 				SOB	R2,10$		; .LOOP TILL DONE
   8279	016374					CALL	.TCRLF		; .END THE LINE
	016374	004737 	000000G			 JSR	PC,.TCRLF
   8280
   8281					;	[CONTINUED ON THE FOLLOWING PAGE]
SWCPC -- SET / CLEAR CLOCK AND 	MACRO M1113  03-APR-86 22:56  PAGE 215
.WHTCL -- THE "WHAT CLOCK" COMMAND 7608.17

   8283					;	[CONTINUED FROM THE PREVIOUS PAGE]
   8284
   8285	016400				30$:
   8286	016400	012700 	003427'			MOV	#WCMSG2,R0	; .SOURCE MESSAGE
   8287	016404					CALL	.TYMSG		; .PRINT IT
	016404	004737 	000000G			 JSR	PC,.TYMSG
   8288	016410	011601 				MOV	(SP),R1		; .CLOCK CONTROL WORD TO R1
   8289	016412	042701 	177763 			BIC	#^C<CS.ALL>,R1	; .FLUSH JUNK
   8290	016416	006201 				ASR	R1		; .MAKE AN INDEX OF IT
   8291	016420	016100 	001140'			MOV	CLSRTB(R1),R0	; .SOURCE NAME TO R0
   8292	016424					CALL	.TYLIN		; .PRINT IT
	016424	004737 	000000G			 JSR	PC,.TYLIN
   8293	016430	012700 	003441'			MOV	#WCMSG3,R0	; .RATE MESSAGE
   8294	016434					CALL	.TYMSG		; .PRINT IT
	016434	004737 	000000G			 JSR	PC,.TYMSG
   8295	016440					POP	R1		; .CLOCK CONTROL WORD TO R1
	016440	012601 				 MOV	(SP)+,R1
   8296	016442	042701 	177774 			BIC	#^C<CR.ALL>,R1	; FLUSH JUNK
   8297	016446	006301 				ASL	R1		; MAKE AN INDEX FROM IT
   8298	016450	016100 	001150'			MOV	CLRTTB(R1),R0	; RATE NAME TO R0
   8299	016454					CALLR	.TYLIN		; PRINT IT AND EXIT
	016454	000137 	000000G			 JMP	.TYLIN
   8300						;
   8301
   8302	001124				.PSECT	DATA
   8303
   8304	001124				CLDSTB:
   8305	001124	000000G				.WORD	CRMMSG
   8306	001126	002000 				.WORD	CD.CRC
   8307	001130	000000G				.WORD	DPTMSG
   8308	001132	001000 				.WORD	CD.DPC
   8309	001134	000000G				.WORD	CTLMSG
   8310	001136	000400 				.WORD	CD.CLC
   8311	001140				CLSRTB:
   8312	001140	000000G				.WORD	INTMSG
   8313	001142	000000G				.WORD	MGNMSG
   8314	001144	000000G				.WORD	EXTMSG
   8315	001146	000000G				.WORD	MGNMSG
   8316	001150				CLRTTB:
   8317	001150	000000G				.WORD	FULMSG
   8318	001152	000000G				.WORD	HLFMSG
   8319	001154	000000G				.WORD	QTRMSG
   8320	001156	000000G				.WORD	SLOMSG
   8321
   8322	016460				.PSECT
SWCPC -- SET / CLEAR CLOCK AND 	MACRO M1113  03-APR-86 22:56  PAGE 216
.WHTCL -- THE "WHAT CLOCK" COMMAND 7608.17

   8324	003367				.PSECT	MESSAG
   8325
   8326	003367				WCMSG0:
   8327	003367	   113 	   114 	   040 		.ASCIZ	%KL CLOCK PARAMETERS%
	003372	   103 	   114 	   117
	003375	   103 	   113 	   040
	003400	   120 	   101 	   122
	003403	   101 	   115 	   105
	003406	   124 	   105 	   122
	003411	   123 	   000
   8328	003413				WCMSG1:
   8329	003413	   040 	   104 	   111 		.ASCIZ	% DISABLED: %
	003416	   123 	   101 	   102
	003421	   114 	   105 	   104
	003424	   072 	   040 	   000
   8330	003427				WCMSG2:
   8331	003427	   040 	   123 	   117 		.ASCIZ	% SOURCE: %
	003432	   125 	   122 	   103
	003435	   105 	   072 	   040
	003440	   000
   8332	003441				WCMSG3:
   8333	003441	   040 	   122 	   101 		.ASCIZ	% RATE: %
	003444	   124 	   105 	   072
	003447	   040 	   000
   8334	003451				NONMSG:
   8335	003451	   116 	   117 	   116 		.ASCIZ	%NONE%
	003454	   105 	   000
   8336
   8337	016460				.PSECT
SWCPC -- SET / CLEAR CLOCK AND 	MACRO M1113  03-APR-86 22:56  PAGE 217
.WHTPS -- THE "WHAT PARITY-STOP" COMMAND 7608.19

   8339					.SBTTL	.WHTPS -- THE "WHAT PARITY-STOP" COMMAND 7608.19
   8340
   8341	016460				.WHTPS::
   8342	016460					CALL	.STPKL		; STOP THE KL
	016460	004737 	000000G			 JSR	PC,.STPKL
   8343	016464					CALL	.RDCPP		; READ THE CLOCK BOARD
	016464	004737 	000000G			 JSR	PC,.RDCPP
   8344	016470					CALL	.RSTKL		; RESTART THE KL
	016470	004737 	000000G			 JSR	PC,.RSTKL
   8345	016474				.WHTPA::
   8346	016474					PUSH	.PSCWD		; SAVE THE WORD ON THE STACK
	016474	013746 	000000G			 MOV	.PSCWD,-(SP)
   8347	016500	012700 	003456'			MOV	#WPMSG0,R0	; .HEADER MESSAGE
   8348	016504					CALL	.TYLIN		; .TYPE IT
	016504	004737 	000000G			 JSR	PC,.TYLIN
   8349	016510	012700 	003510'			MOV	#WPMSG1,R0	; .ENABLE MESSAGE
   8350	016514					CALL	.TYMSG		; .TYPE IT
	016514	004737 	000000G			 JSR	PC,.TYMSG
   8351	016520	012700 	000000G			MOV	#ONMSG,R0	; .ASSUME THAT IT IS ON
   8352	016524	032716 	000400 			BIT	#AP.EIP,(SP)	; .IS THE ENABLE BIT ON?
   8353	016530	001002 				BNE	10$		; .YES -- SAY SO
   8354	016532	012700 	000000G			MOV	#OFFMSG,R0	; .NO -- CHANGE MESSAGE
   8355	016536				10$:
   8356	016536					CALL	.TYLIN		; .TYPE IT
	016536	004737 	000000G			 JSR	PC,.TYLIN
   8357	016542	012700 	003536'			MOV	#WPMSG2,R0	; .PARITY STOPS
   8358	016546					CALL	.TYMSG		; .TYPE IT
	016546	004737 	000000G			 JSR	PC,.TYMSG
   8359	016552	042716 	000400 			BIC	#AP.EIP,(SP)	; .CLEAR THE ENABLE BIT
   8360	016556	001005 				BNE	20$		; .GO ON IF BITS ARE THERE
   8361	016560	012700 	003451'			MOV	#NONMSG,R0	; .NONE THERE -- SAY SO
   8362	016564					CALL	.TYMSG		; .TYPE IT
	016564	004737 	000000G			 JSR	PC,.TYMSG
   8363	016570	000416 				BR	50$		; .AND EXIT
   8364						;
   8365
   8366					;	[CONTINUED ON THE FOLLOWING PAGE]
SWCPC -- SET / CLEAR CLOCK AND 	MACRO M1113  03-APR-86 22:56  PAGE 218
.WHTPS -- THE "WHAT PARITY-STOP" COMMAND 7608.19

   8368					;	[CONTINUED FROM THE PREVIOUS PAGE]
   8369
   8370	016572				20$:
   8371	016572	012701 	001160'			MOV	#PSENTB,R1	; .TABLE POINTER TO R1
   8372	016576	012702 	000005 			MOV	#^D5,R2		; .ITERATION COUNT TO R2
   8373	016602				30$:
   8374	016602	012100 				MOV	(R1)+,R0	; .MESSAGE POINTER TO R0
   8375	016604	032116 				BIT	(R1)+,(SP)	; .IS THE BIT ON?
   8376	016606	001406 				BEQ	40$		; .NO -- GO ON
   8377	016610					CALL	.TYMSG		; .YES -- SAY SO
	016610	004737 	000000G			 JSR	PC,.TYMSG
   8378	016614					CALL	.TYCOM		; .TYPE A COMMA
	016614	004737 	000000G			 JSR	PC,.TYCOM
   8379	016620					CALL	.TYSPC		; .PRINT A <SPACE>
	016620	004737 	000000G			 JSR	PC,.TYSPC
   8380	016624				40$:
   8381	016624	077212 				SOB	R2,30$		; .LOOP TILL DONE
   8382	016626				50$:
   8383	016626	005726 				TST	(SP)+		; .CLEAR THE STACK
   8384	016630					CALLR	.TCRLF		; END THE LINE AND EXIT
	016630	000137 	000000G			 JMP	.TCRLF
   8385						;
   8386
   8387	001160				.PSECT	DATA
   8388
   8389	001160				PSENTB:
   8390	001160	000000G				.WORD	ARMSG
   8391	001162	001000 				.WORD	AP.ARP
   8392	001164	000000G				.WORD	CRMMSG
   8393	001166	000004 				.WORD	IP.CRP
   8394	001170	000000G				.WORD	DRMMSG
   8395	001172	000002 				.WORD	IP.DRP
   8396	001174	000000G				.WORD	FMMSG
   8397	001176	000010 				.WORD	IP.FMP
   8398	001200	000000G				.WORD	FSSMSG
   8399	001202	000001 				.WORD	IP.FSS
   8400
   8401	016634				.PSECT
SWCPC -- SET / CLEAR CLOCK AND 	MACRO M1113  03-APR-86 22:56  PAGE 219
.WHTPS -- THE "WHAT PARITY-STOP" COMMAND 7608.19

   8403	003456				.PSECT	MESSAG
   8404
   8405	003456				WPMSG0:
   8406	003456	   113 	   114 	   040 		.ASCIZ	%KL PARITY STOP PARAMETERS%
	003461	   120 	   101 	   122
	003464	   111 	   124 	   131
	003467	   040 	   123 	   124
	003472	   117 	   120 	   040
	003475	   120 	   101 	   122
	003500	   101 	   115 	   105
	003503	   124 	   105 	   122
	003506	   123 	   000
   8407	003510				WPMSG1:
   8408	003510	   040 	   120 	   101 		.ASCIZ	% PARITY STOP ENABLE: %
	003513	   122 	   111 	   124
	003516	   131 	   040 	   123
	003521	   124 	   117 	   120
	003524	   040 	   105 	   116
	003527	   101 	   102 	   114
	003532	   105 	   072 	   040
	003535	   000
   8409	003536				WPMSG2:
   8410	003536	   040 	   120 	   101 		.ASCIZ	% PARITY STOPS: %
	003541	   122 	   111 	   124
	003544	   131 	   040 	   123
	003547	   124 	   117 	   120
	003552	   123 	   072 	   040
	003555	   000
   8411	016634				.PSECT
SWCPC -- SET / CLEAR CLOCK AND 	MACRO M1113  03-APR-86 22:56  PAGE 220
.YESNO -- SUBROUTINE TO ASK "YES OR NO" 7603.22

   8413					.SBTTL	.YESNO -- SUBROUTINE TO ASK "YES OR NO" 7603.22
   8414
   8415					;+
   8416					; .YESNO -- SUBROUTINE TO ASK "YES OR NO".
   8417					;
   8418					; THIS SUBROUTINE WILL ASK FOR A CONFIMATION TO A QUESTION, AND RETURN
   8419					; THE STATE OF THE RESPONSE IN CC-C ON RETURN. IF THE RESPONSE IS OTHER
   8420					; THAN A "YES" OR A "NO", THE QUESTION IS REITERATED.
   8421					;
   8422					; INPUT ARGUMENTS:
   8423					;
   8424					;	NONE.
   8425					;
   8426					; OUTPUT ARGUMENTS:
   8427					;
   8428					;	IF THE RESPONSE WAS "YES" CC-C IS CLEAR.
   8429					;	IF THE RESPONSE WAS "NO" CC-C IS SET.
   8430					;
   8431					; ERROR CODES RETURNED:
   8432					;
   8433					;	NONE.
   8434					;-
   8435
   8436	016634				.YESNO::
   8437	016634					PUSH	<R0,R1,R5>	; SAVE CALLERS REGISTERS
	016634	010046 				 MOV	R0,-(SP)
	016636	010146 				 MOV	R1,-(SP)
	016640	010546 				 MOV	R5,-(SP)
   8438	016642				10$:
   8439	016642	012700 	003556'			MOV	#YONMSG,R0	; ...MESSAGE POINTER TO R0
   8440	016646					CALL	.TYMSG		; ...PRINT IT
	016646	004737 	000000G			 JSR	PC,.TYMSG
   8441	016652					CALL	.TYOUT		; ...FORCE IT OUT
	016652	004737 	000000G			 JSR	PC,.TYOUT
   8442	016656	012701 	000000G			MOV	#.CIBFR,R1	; ...POINT TO THE INPUT BUFFER
   8443	016662					CALL	.GTLIN		; ...READ THE RESPONSE
	016662	004737 	000000G			 JSR	PC,.GTLIN
   8444	016666	001765 				BEQ	10$		; ...TRY AGAIN IF NO REAL RESPONSE
   8445	016670	010105 				MOV	R1,R5		; ...BUFFER POINTER TO R5
   8446	016672	012700 	003575'			MOV	#YESMSG,R0	; ...EXPECT "YES"
   8447	016676					CALL	.SSCAN		; ...SCAN FOR IT
	016676	004737 	000000G			 JSR	PC,.SSCAN
   8448	016702	103012 				BCC	30$		; ...WE GOT IT -- EXIT
   8449	016704	010105 				MOV	R1,R5		; ...SET UP BUFFER POINTER
   8450	016706	012700 	003601'			MOV	#NOMSG,R0	; ...TRY FOR "NO"
   8451	016712					CALL	.SSCAN		; ...SCAN THE SYMBOL
	016712	004737 	000000G			 JSR	PC,.SSCAN
   8452	016716	103003 				BCC	20$		; ...WE GOT IT
   8453	016720					CALL	.TCRLF		; ...DID'NT GET EITHER
	016720	004737 	000000G			 JSR	PC,.TCRLF
   8454	016724	000746 				BR	10$		; ...SO TRY AGAIN
   8455						;
   8456
   8457					;	[CONTINUED ON THE FOLLOWING PAGE]
SWCPC -- SET / CLEAR CLOCK AND 	MACRO M1113  03-APR-86 22:56  PAGE 221
.YESNO -- SUBROUTINE TO ASK "YES OR NO" 7603.22

   8459					;	[CONTINUED FROM THE PREVIOUS PAGE]
   8460
   8461	016726				20$:
   8462	016726	000261 				SEC			; ...SET CC-C TO SAY "NO"
   8463	016730				30$:
   8464	016730					POP	<R5,R1,R0>	; ...RESTORE REGISTERS
	016730	012605 				 MOV	(SP)+,R5
	016732	012601 				 MOV	(SP)+,R1
	016734	012600 				 MOV	(SP)+,R0
   8465	016736					RETURN			; ...TO CALLER
	016736	000207 				 RTS	PC
   8466
   8467	003556				.PSECT	MESSAG
   8468
   8469	003556				YONMSG:
   8470	003556	   040 	   050 	   131 		.ASCIZ	% (YES OR NO)? %
	003561	   105 	   123 	   040
	003564	   117 	   122 	   040
	003567	   116 	   117 	   051
	003572	   077 	   040 	   000
   8471	003575				YESMSG:
   8472	003575	   131 	   105 	   123 		.ASCIZ	%YES%
	003600	   000
   8473	003601				NOMSG:
   8474	003601	   116 	   117 	   000 		.ASCIZ	%NO%
   8475
   8476	016740				.PSECT
SWCPC -- SET / CLEAR CLOCK AND 	MACRO M1113  03-APR-86 22:56  PAGE 222
.YESNO -- SUBROUTINE TO ASK "YES OR NO" 7603.22

   8478
   8479
   8480					.TITLE	SWDAT -- SET/CLEAR/WHAT "DATE" COMMAND MODULE 7703.04
   8481
   8482						.IDENT	"006060"
   8483
   8484					;
   8485					;                             COPYRIGHT (C) 1975, 1984, 1985 BY
   8486					;                     DIGITAL EQUIPMENT CORPORATION, MAYNARD MASS.
   8487					;			ALL RIGHTS RESERVED.
   8488					;       THIS SOFTWARE IS FURNISHED UNDER A LICENSE AND MAY BE  USED  AND  COPIED
   8489					;       ONLY IN ACCORDANCE WITH THE TERMS OF SUCH LICENSE AND WITH THE INCLUSION
   8490					;       OF THE ABOVE COPYRIGHT NOTICE.  THIS SOFTWARE OR ANY OTHER COPIES THERE-
   8491					;       OF  MAY NOT BE PROVIDED OR OTHERWISE MADE AVAILABLE TO ANY OTHER PERSON.
   8492					;       NO TITLE TO OR OWNERSHIP OF THE SOFTWARE IS HEREBY TRANSFERRED.
   8493					;
   8494					;       THE INFORMATION CONTAINED IN THIS SOFTWARE IS SUBJECT TO CHANGE  WITHOUT
   8495					;       NOTICE  AND SHOULD NOT BE CONSTRUED AS A COMMITMENT BY DIGITAL EQUIPMENT
   8496					;       CORPORATION.
   8497					;
   8498					;       DIGITAL ASSUMES NO RESPONSIBILITY FOR THE  USE  OR  RELIABILITY  OF  ITS
   8499					;       SOFTWARE ON EQUIPMENT WHICH IS NOT SUPPILED BY DIGITAL.
   8500					;
   8501					;		MODULE: "DATE" SUPPORT
   8502					;
   8503					;		VERSION: 06-06
   8504					;
   8505					;		AUTHOR: R. BELANGER
   8506					;
   8507					;		DATE: 7703.04
   8508					;
   8509					;	THIS MODULE CONTAINS:
   8510					;
   8511					;	1) SET CLEAR DATE CODE
   8512					;	2) WHAT DATE CODE
SWDAT -- SET/CLEAR/WHAT "DATE" 	MACRO M1113  03-APR-86 22:56  PAGE 223
.SCDAT -- "SET DATE" COMMAND 7703.04

   8514					.SBTTL	.SCDAT -- "SET DATE" COMMAND 7703.04
   8515
   8516					;+
   8517					; .SCDAT -- THE "SET DATE" COMMAND
   8518					;
   8519					; THIS SUBROUTINE WILL ACCEPT A DATE AND TIME AS THE SYSTEM DATE AND TIME
   8520					; IF AND ONLY IF THE SYSTEM DATE VALID FLAG IS OFF.
   8521					;
   8522					; INPUT ARGUMENTS:
   8523					;
   8524					;	NONE.
   8525					;
   8526					; OUTPUT ARGUMENTS:
   8527					;
   8528					;	THE SYSTEM DATE IS SET AS SPECIFIED
   8529					;
   8530					; ERROR CODES RETURNED:
   8531					;
   8532					;	CDI -- CLEAR DATE ILLEGAL
   8533					;	DAV -- DATE ALREADY VALID
   8534					;	NDI -- NULL DATE ILLEGAL
   8535					;	NTI -- NULL TIME ILLEGAL
   8536					;-
   8537
   8538						.MCALL	GTIM$S,.INH6,.ENB6
   8539
   8540	016740				.SCDAT::
   8541	016740	032737 	000000G	000002G		BIT	#EF.PR1,.COMEF+2 ; IS PRIMARY PROTOCOL RUNNING??
   8542	016746	001133 				BNE	SCDCDI		; YES -- GIVE "CDI" ERROR
   8543	016750	005737 	000000G			TST	.NOTSW		; NO -- IS THIS A "CLEAR"??
   8544	016754	001404 				BEQ	10$		; NO -- GO ON
   8545	016756	005037 	000000G			CLR	.DATE3		; YES -- SET DATE INVALID
   8546	016762	005037 	000000G			CLR	.YEAR		; AND ALLOW "FUNNY" DATES
   8547	016766				10$:
   8548	016766	005737 	000000G			TST	.DATE3		; IS TIME ALREADY VALID?
   8549	016772	001124 				BNE	SCDDAV		; YES -- GIVE "DAV" ERROR
   8550	016774					CALL	.CKEOC		; NO -- MUST HAVE E-O-C
	016774	004737 	000000G			 JSR	PC,.CKEOC
   8551	017000	005046 				CLR	-(SP)		; CLEAR BUFFER ON STACK
   8552	017002	005046 				CLR	-(SP)		; .SO
   8553	017004	010600 				MOV	SP,R0		; ..POINT TO IT
   8554	017006					CALL	.GTDAT		; ..READ THE DATE
	017006	004737 	006026'			 JSR	PC,.GTDAT
   8555	017012	001517 				BEQ	SCDNDI		; ..ERROR IF NULL
   8556	017014	005046 				CLR	-(SP)		; ..SPACE FOR TIME
   8557	017016	010600 				MOV	SP,R0		; ...POINT TO IT
   8558	017020					CALL	.GTTIM		; ...READ THE TIME
	017020	004737 	006472'			 JSR	PC,.GTTIM
   8559	017024	001515 				BEQ	SCDNTI		; ...ERROR IF NULL
   8560	017026	116600 	000002 			MOVB	2(SP),R0	; ...YEAR TO R0
   8561	017032	162700 	000114 			SUB	#^D76,R0	; ...MINUS 1976
   8562	017036	010002 				MOV	R0,R2		; ...SAVE RESULT IN R2
   8563	017040	001406 				BEQ	20$		; ...GO ON IF .EQ. 0
   8564	017042	012701 	000555 			MOV	#^D365,R1	; ...CONVERT TO DAYS
   8565	017046					CALL	$MUL		; ...SO
	017046	004737 	000000G			 JSR	PC,$MUL
   8566	017052	010100 				MOV	R1,R0		; ...RESULT TO R0
SWDAT -- SET/CLEAR/WHAT "DATE" 	MACRO M1113  03-APR-86 22:56  PAGE 223-1
.SCDAT -- "SET DATE" COMMAND 7703.04

   8567	017054	005200 				INC	R0		; ...PLUS 1 FOR 1976
   8568	017056				20$:
   8569	017056	116601 	000003 			MOVB	3(SP),R1	; ...MONTH TO R1
   8570	017062	006301 				ASL	R1		; ...MAKE A WORD INDEX
   8571	017064	066100 	001212'			ADD	CDMTB-2(R1),R0	; ...ADD DAYS TO THIS MONTH
   8572	017070	005702 				TST	R2		; ...IS THIS 1976?
   8573	017072	001412 				BEQ	40$		; ...YES -- GO ON
   8574	017074	132702 	000003 			BITB	#3,R2		; ...NO -- IS THIS A LEAP YEAR?
   8575	017100	001004 				BNE	30$		; ...NO -- GO ON
   8576	017102	022701 	000002 			CMP	#2,R1		; ...YES -- BEYOND FEBRUARY?
   8577	017106	002401 				BLT	30$		; ...YES -- GO ON
   8578	017110	005302 				DEC	R2		; ...NO -- SUBTRACT ONE FOR THIS YEAR
   8579	017112				30$:
   8580	017112	006202 				ASR	R2		; ...DIVIDE DIFFERENCE BY 4
   8581	017114	006202 				ASR	R2		; ...SO
   8582	017116	060200 				ADD	R2,R0		; ...ADD OFFSET FOR LEAP YEARS
   8583	017120				40$:
   8584	017120	116601 	000004 			MOVB	4(SP),R1	; ...DATE TO R1
   8585	017124	005301 				DEC	R1		; ...MINUS 1
   8586	017126	060100 				ADD	R1,R0		; ...ADD IT IN
   8587	017130	012701 	000007 			MOV	#^D7,R1		; ...DIVIDE BY DAYS PER WEEK
   8588	017134					CALL	$DIV		; ...SO
	017134	004737 	000000G			 JSR	PC,$DIV
   8589	017140	010100 				MOV	R1,R0		; ...DAY OF WEEK OFFSET TO R0
   8590	017142	010601 				MOV	SP,R1		; ...STACK POINTER TO R1
   8592	017144					.INH6			; ...DISALLOW INTERRUPTS
	017144	013746 	177776 			MOV	@#PS,-(SP)
	017150	112737 	000300 	177776 		MOVB	#300,@#PS
   8594	017156	116037 	001204'	000000G		MOVB	DOWTAB(R0),.DOW	;;; ...SET DAY OF WEEK FROM TABLE
   8595	017164	012137 	000000G			MOV	(R1)+,.SSM	;;; ...SET THE TIME
   8596	017170	112100 				MOVB	(R1)+,R0	;;; ...GET THE YEAR
   8597	017172	062700 	003554 			ADD	#^D1900,R0	;;; ...PLUS 1900
   8598	017176	010037 	000000G			MOV	R0,.YEAR	;;; ...SET IT
   8599	017202	105311 				DECB	(R1)		;;; [**] ...COMPUTE TRUE MONTH
   8600	017204	112137 	000000G			MOVB	(R1)+,.MON	;;; ...SET IT
   8601	017210	105311 				DECB	(R1)		;;; [**] ...COMPUTE TRUE DAY
   8602	017212	111137 	000000G			MOVB	(R1),.DAY	;;; ...SET IT
   8603	017216	012737 	000001 	000000G		MOV	#1,.DATE3	;;; ...SET THE VALID FLAG
   8605	017224					.ENB6			;;; ...ALLOW INTERRUPTS
	017224	012637 	177776 			MOV	(SP)+,@#PS
   8607	017230	062706 	000006 			ADD	#^D6,SP		; ...RESET STACK
   8608	017234				50$:
   8609	017234	000414 				BR	.WHDAT		; DISPLAY TIME AND EXIT
   8610						;
SWDAT -- SET/CLEAR/WHAT "DATE" 	MACRO M1113  03-APR-86 22:56  PAGE 224
.SCDAT -- "SET DATE" COMMAND 7703.04

   8612	017236				SCDCDI:
   8613	017236					ERROR$	CDI		; ERROR -- CLEAR DATE ILLEGAL
	017236	012746 	011551 			 MOV	#^RCDI,-(SP)
	017242	104400 				 TRAP	TC.ERR
   8614						;
   8615	017244				SCDDAV:
   8616	017244					ERROR$	DAV		; ERROR -- DATE ALREADY VALID
	017244	012746 	014476 			 MOV	#^RDAV,-(SP)
	017250	104400 				 TRAP	TC.ERR
   8617						;
   8618	017252				SCDNDI:
   8619	017252					ERROR$	NDI		; ERROR -- NULL DATE ILLEGAL
	017252	012746 	054051 			 MOV	#^RNDI,-(SP)
	017256	104400 				 TRAP	TC.ERR
   8620						;
   8621	017260				SCDNTI:
   8622	017260					ERROR$	NTI		; ERROR -- NULL TIME ILLEGAL
	017260	012746 	055251 			 MOV	#^RNTI,-(SP)
	017264	104400 				 TRAP	TC.ERR
   8623						;
   8624
   8625	001204				.PSECT	DATA
   8626
   8627	001204				DOWTAB:
   8628	001204	   003 	   004 			.BYTE	3,4
   8629	001206	   005 	   006 			.BYTE	5,6
   8630	001210	   000 	   001 			.BYTE	0,1
   8631	001212	   002 				.BYTE	2
   8632						.EVEN
   8633
   8634	001214				CDMTB:
   8635	001214	000000 				.WORD	0
   8636	001216	000037 				.WORD	^D31
   8637	001220	000073 				.WORD	^D59
   8638	001222	000132 				.WORD	^D90
   8639	001224	000170 				.WORD	^D120
   8640	001226	000227 				.WORD	^D151
   8641	001230	000265 				.WORD	^D181
   8642	001232	000324 				.WORD	^D212
   8643	001234	000363 				.WORD	^D243
   8644	001236	000421 				.WORD	^D273
   8645	001240	000460 				.WORD	^D304
   8646	001242	000516 				.WORD	^D334
   8647
   8648	017266				.PSECT
SWDAT -- SET/CLEAR/WHAT "DATE" 	MACRO M1113  03-APR-86 22:56  PAGE 225
.WHDAT -- THE "WHAT" DATE COMMAND 7703.03

   8650					.SBTTL	.WHDAT -- THE "WHAT" DATE COMMAND 7703.03
   8651
   8652					;+
   8653					; .WHDAT -- THE "WHAT DATE" COMMAND
   8654					;
   8655					; THIS SUBROUTINE WILL DISPLAY THE THE CURRENT SYSTEM TIME OF DAY
   8656					; ON THE CONSOLE DEVICE. IF THE TIME HAS NOT BEEN SET BY EITHER A
   8657					; "SET DATE" COMMAND OR BY THE KL10 EXECUTIVE THE VALID FLAG WILL BE OFF
   8658					; OTHERWISE IT WILL BE ON.
   8659					;
   8660					; INPUT ARGUMENTS:
   8661					;
   8662					;	NONE.
   8663					;
   8664					; OUTPUT ARGUMENTS:
   8665					;
   8666					;	NONE.
   8667					;
   8668					; ERROR CODES RETUNED:
   8669					;
   8670					;	NONE.
   8671					;-
   8672
   8673
   8674	017266				.WHDAT::
   8675	017266					CALL	.CKEOC		; MUST HAVE E-O-C
	017266	004737 	000000G			 JSR	PC,.CKEOC
   8676	017272	012701 	001262'			MOV	#DATBUF,R1	; BUFFER POINTER TO R1
   8677	017276					GTIM$S	R1		; REAAD THE DATE AND TIME
	017276	010146 				MOV	R1,-(SP)
	017300	012746 				MOV	(PC)+,-(SP)
	017302	   073 	   002 			.BYTE	59.,2
	017304	104375 				EMT	375
   8678	017306	005046 				CLR	-(SP)		; CLEAR A BUFFER ON STACK
   8679	017310	005046 				CLR	-(SP)		; .SO
   8680	017312	010600 				MOV	SP,R0		; ..POINTER TO R0
   8681	017314	112120 				MOVB	(R1)+,(R0)+	; ..SET YEAR
   8682	017316	105721 				TSTB	(R1)+		; ..ADVANCE POINTER
   8683	017320	112120 				MOVB	(R1)+,(R0)+	; ..SET MONTH
   8684	017322	105721 				TSTB	(R1)+		; ..ADVANCE POINTER
   8685	017324	112120 				MOVB	(R1)+,(R0)+	; ..SET DAY
   8686	017326	012700 	003604'			MOV	#WHDMS0,R0	; ..MESSAGE POINTER TO R0
   8687	017332					CALL	.TYLIN		; ..PRINT IT
	017332	004737 	000000G			 JSR	PC,.TYLIN
   8688	017336	113700 	000000G			MOVB	.DOW,R0		; ..DAY OF WEEK INDEX TO R0
   8689	017342	006300 				ASL	R0		; ..TIMES 2
   8690	017344	016000 	001244'			MOV	DOWMTB(R0),R0	; ..MESSAGE POINTER TO R0
   8691	017350					CALL	.TYMSG		; ..PRINT IT
	017350	004737 	000000G			 JSR	PC,.TYMSG
   8692	017354					CALL	.TYSPC		; ..AND A <SPACE>
	017354	004737 	000000G			 JSR	PC,.TYSPC
   8693	017360	010600 				MOV	SP,R0		; ..POINT TO DATE
   8694	017362					CALL	.TYDAT		; ..TYPE THE DATE
	017362	004737 	007040'			 JSR	PC,.TYDAT
   8695	017366					CALL	.TYSPC		; ..AND A <SPACE>
	017366	004737 	000000G			 JSR	PC,.TYSPC
   8696	017372	012700 	000000G			MOV	#.SSM,R0	; ..POINT TO THE TIME
SWDAT -- SET/CLEAR/WHAT "DATE" 	MACRO M1113  03-APR-86 22:56  PAGE 225-1
.WHDAT -- THE "WHAT" DATE COMMAND 7703.03

   8697	017376					CALL	.TYTIM		; ..TYPE IT
	017376	004737 	007154'			 JSR	PC,.TYTIM
   8698	017402					CALL	.TCRLF		; ..END THE LINE
	017402	004737 	000000G			 JSR	PC,.TCRLF
   8699	017406	012700 	003632'			MOV	#WHDMS1,R0	; ..MESSAGE POINTER TO R0
   8700	017412					CALL	.TYMSG		; ..PRINT IT
	017412	004737 	000000G			 JSR	PC,.TYMSG
   8701	017416	012700 	000000G			MOV	#ONMSG,R0	; ..ASSUME VALID
   8702	017422	005737 	000000G			TST	.DATE3		; ..IS IT??
   8703	017426	001002 				BNE	10$		; ..YES -- GO ON
   8704	017430	012700 	000000G			MOV	#OFFMSG,R0	; ..NO -- SAY SO
   8705	017434				10$:
   8706	017434	022626 				CMP	(SP)+,(SP)+	; ..CLEAR STACK
   8707	017436					CALLR	.TYLIN		; PRINT AND EXIT
	017436	000137 	000000G			 JMP	.TYLIN
   8708						;
   8709
   8710	001244				.PSECT	DATA
   8711
   8712	001244				DOWMTB:
   8713	001244	003656'				.WORD	MONMSG
   8714	001246	003666'				.WORD	TUEMSG
   8715	001250	003677'				.WORD	WEDMSG
   8716	001252	003712'				.WORD	THUMSG
   8717	001254	003724'				.WORD	FRIMSG
   8718	001256	003734'				.WORD	SATMSG
   8719	001260	003746'				.WORD	SUNMSG
   8720
   8721	001262				DATBUF:
   8722	001262	000000 	000000 	000000 		.WORD	0,0,0,0,0,0,0,0
	001270	000000 	000000 	000000
	001276	000000 	000000
   8723
   8724	017442				.PSECT
SWDAT -- SET/CLEAR/WHAT "DATE" 	MACRO M1113  03-APR-86 22:56  PAGE 226
.WHDAT -- THE "WHAT" DATE COMMAND 7703.03

   8726	003604				.PSECT	MESSAG
   8727
   8728	003604				WHDMS0:
   8729	003604	   103 	   125 	   122 		.ASCIZ	%CURRENT SYSTEM DATE: %
	003607	   122 	   105 	   116
	003612	   124 	   040 	   123
	003615	   131 	   123 	   124
	003620	   105 	   115 	   040
	003623	   104 	   101 	   124
	003626	   105 	   072 	   040
	003631	   000
   8730	003632				WHDMS1:
   8731	003632	   040 	   126 	   101 		.ASCIZ	% VALIDITY FLAG IS: %
	003635	   114 	   111 	   104
	003640	   111 	   124 	   131
	003643	   040 	   106 	   114
	003646	   101 	   107 	   040
	003651	   111 	   123 	   072
	003654	   040 	   000
   8732
   8733	003656				MONMSG:
   8734	003656	   115 	   117 	   116 		.ASCIZ	%MONDAY,%
	003661	   104 	   101 	   131
	003664	   054 	   000
   8735	003666				TUEMSG:
   8736	003666	   124 	   125 	   105 		.ASCIZ	%TUESDAY,%
	003671	   123 	   104 	   101
	003674	   131 	   054 	   000
   8737	003677				WEDMSG:
   8738	003677	   127 	   105 	   104 		.ASCIZ	%WEDNESDAY,%
	003702	   116 	   105 	   123
	003705	   104 	   101 	   131
	003710	   054 	   000
   8739	003712				THUMSG:
   8740	003712	   124 	   110 	   125 		.ASCIZ	%THURSDAY,%
	003715	   122 	   123 	   104
	003720	   101 	   131 	   054
	003723	   000
   8741	003724				FRIMSG:
   8742	003724	   106 	   122 	   111 		.ASCIZ	%FRIDAY,%
	003727	   104 	   101 	   131
	003732	   054 	   000
   8743	003734				SATMSG:
   8744	003734	   123 	   101 	   124 		.ASCIZ	%SATURDAY,%
	003737	   125 	   122 	   104
	003742	   101 	   131 	   054
	003745	   000
   8745	003746				SUNMSG:
   8746	003746	   123 	   125 	   116 		.ASCIZ	%SUNDAY,%
	003751	   104 	   101 	   131
	003754	   054 	   000
   8747
   8748	017442				.PSECT
SWDAT -- SET/CLEAR/WHAT "DATE" 	MACRO M1113  03-APR-86 22:56  PAGE 228
.WHDAT -- THE "WHAT" DATE COMMAND 7703.03

   8751
   8752					.TITLE	SWKLN -- SET/CLEAR/WHAT "KLINIK" COMMAND MODULE 7703.04
   8753
   8754						.IDENT	"006060"
   8755
   8756					;
   8757					;                             COPYRIGHT (C) 1975, 1984, 1985 BY
   8758					;                     DIGITAL EQUIPMENT CORPORATION, MAYNARD MASS.
   8759					;			ALL RIGHTS RESERVED.
   8760					;       THIS SOFTWARE IS FURNISHED UNDER A LICENSE AND MAY BE  USED  AND  COPIED
   8761					;       ONLY IN ACCORDANCE WITH THE TERMS OF SUCH LICENSE AND WITH THE INCLUSION
   8762					;       OF THE ABOVE COPYRIGHT NOTICE.  THIS SOFTWARE OR ANY OTHER COPIES THERE-
   8763					;       OF  MAY NOT BE PROVIDED OR OTHERWISE MADE AVAILABLE TO ANY OTHER PERSON.
   8764					;       NO TITLE TO OR OWNERSHIP OF THE SOFTWARE IS HEREBY TRANSFERRED.
   8765					;
   8766					;       THE INFORMATION CONTAINED IN THIS SOFTWARE IS SUBJECT TO CHANGE  WITHOUT
   8767					;       NOTICE  AND SHOULD NOT BE CONSTRUED AS A COMMITMENT BY DIGITAL EQUIPMENT
   8768					;       CORPORATION.
   8769					;
   8770					;       DIGITAL ASSUMES NO RESPONSIBILITY FOR THE  USE  OR  RELIABILITY  OF  ITS
   8771					;       SOFTWARE ON EQUIPMENT WHICH IS NOT SUPPILED BY DIGITAL.
   8772					;
   8773					;		MODULE: "KLINIK" SUPPORT
   8774					;
   8775					;		VERSION: 06-06
   8776					;
   8777					;		AUTHOR: R. BELANGER
   8778					;
   8779					;		DATE: 7703.04
   8780					;
   8781					;	THIS MODULE CONTAINS:
   8782					;
   8783					;	1) SET CLEAR KLINIK CODE
   8784					;	2) WHAT KLINIK CODE
SWKLN -- SET/CLEAR/WHAT "KLINIK	MACRO M1113  03-APR-86 22:56  PAGE 229
.SCKLN -- THE "SET / CLEAR KLINIK" COMMAND 7709.20

   8786					.SBTTL	.SCKLN -- THE "SET / CLEAR KLINIK" COMMAND 7709.20
   8787
   8788					;+
   8789					; .SCKLN -- THE SET / CLEAR KLINIK COMMAND
   8790					;
   8791					; THIS SUBROUTINE WILL SET OR CLEAR THE KLINIK PARAMETERS FOR THE
   8792					; RSX20F FRONT END. THE CLEAR COMMAND SIMPLY CLEARS THE KLINIK
   8793					; THE KLINIK ENABLE FLAG AND REQUESTS THE KLINIK TERMINATION TASK
   8794					; "KLD" IN ORDER THAT THE OPERATOR BE NOTIFIED.
   8795					;
   8796					; THE "SET KLINIK" COMMAND WILL PROMPT THE OPERATOR FOR THE REQUIRED
   8797					; KLINIK PARAMETERS, VALIDATE THEM AND PASS THEM TO THE RSX20F EXECUTIVE.
   8798					;
   8799					; INPUT ARGUMENTS:
   8800					;
   8801					;	NONE.
   8802					;
   8803					; OUTPUT ARGUMENTS:
   8804					;
   8805					;	NONE.
   8806					;
   8807					; ERROR CODES RETURNED:
   8808					;
   8809					;	IPC -- ILLEGAL PASSWORD CHARACTER.
   8810					;	KWE -- KLINIK WINDOW ERROR.
   8811					;	NPI -- NULL PASSWORD ILLEGAL.
   8812					;	PTL -- PASSWORD TOO LONG.
   8813					;	SKI -- SET KLINIK ILLEGAL WHILE ACTIVE.
   8814					;-
   8815
   8816						.MCALL	.ENB6,.INH6,WTSE$S,CLEF$S
SWKLN -- SET/CLEAR/WHAT "KLINIK	MACRO M1113  03-APR-86 22:56  PAGE 230
.SCKLN -- THE "SET / CLEAR KLINIK" COMMAND 7709.20

   8818						.ENABL	LSB
   8819
   8820	017442				.SCKLN::
   8821	017442					CALL	.CKEOC		; MUST HAVE E-O-C
	017442	004737 	000000G			 JSR	PC,.CKEOC
   8822	017446	005737 	000000G			TST	.NOTSW		; IS THIS A CLEAR?
   8823	017452	001402 				BEQ	10$		; NO -- GO ON
   8824	017454	000137 	020364'			JMP	80$		; YES -- DO IT
   8825						;
   8826	017460				10$:
   8827	017460	105737 	000000G			TSTB	.KLNSW+0	; IS KLINIK ALREADY ACTIVE??
   8828	017464	001055 				BNE	SCKSKI		; YES -- COMPLAIN
   8829	017466					PUSH	R5		; SET UP TO GET KLINIK PARAMETERS
	017466	010546 				 MOV	R5,-(SP)
   8830	017470	012700 	004071'			MOV	#SCKMS4,R0	; .MESSAGE POINTER TO R0
   8831	017474					CALL	.TYMSF		; .FORCE IT OUT
	017474	004737 	000000G			 JSR	PC,.TYMSF
   8832	017500	012701 	000000G			MOV	#.CIBFR,R1	; .BUFFER POINTER TO R1
   8833	017504	010105 				MOV	R1,R5		; .AND R5
   8834	017506					CALL	.GTLIN		; .READ KLINIK MODE
	017506	004737 	000000G			 JSR	PC,.GTLIN
   8835	017512	012700 	000000G			MOV	#.KLMT1,R0	; .KLINIK MODE TABLE POINTER TO R0
   8836	017516					CALL	.TSCAN		; .SCAN THE TABLE
	017516	004737 	000000G			 JSR	PC,.TSCAN
   8837	017522	116046 	000002 			MOVB	2(R0),-(SP)	; .KLINIK MODE FLAG TO STACK
   8838	017526	100462 				BMI	25$		; READ WINDOW DATA IF USER
   8839	017530	012700 	003756'			MOV	#SCKMS0,R0	; ..MESSAGE POINTER TO R0
   8840	017534					CALL	.TYMSF		; ..FORCE THE MESSAGE
	017534	004737 	000000G			 JSR	PC,.TYMSF
   8841	017540	012701 	000000G			MOV	#.CIBFR,R1	; ..USE THE INPUT DEVICE BUFFER
   8842	017544					CALL	.GTLIN		; ..READ THE LINE
	017544	004737 	000000G			 JSR	PC,.GTLIN
   8843	017550	001415 				BEQ	SCKNPI		; ..GIVE "NPI" ERROR IF NULL PASSWORD
   8844	017552	013700 	000000G			MOV	.INCHC,R0	; ..CHARACTER COUNT TO R0
   8845	017556	022700 	000006 			CMP	#^D6,R0		; ..IS THE PASSWORD TOO LONG?
   8846	017562	002413 				BLT	SCKPTL		; ..YES -- GIVE "PTL" ERROR
   8847	017564	160001 				SUB	R0,R1		; ..NO -- ADJUST THE STRING POINTER
   8848	017566	012702 	001326'			MOV	#KLNPWD,R2	; ..POINT TO THE PASSWORD
   8849	017572	005022 				CLR	(R2)+		; ..CLEAR IT
   8850	017574	005022 				CLR	(R2)+		; ..
   8851	017576	005012 				CLR	(R2)		; ..SO
   8852	017600	024242 				CMP	-(R2),-(R2)	; ..RESET THE POINTER
   8853	017602	000415 				BR	15$		; ..AND GO ON
   8854						;
   8855	017604				SCKNPI:
   8856	017604					ERROR$	NPI		; ERROR -- NULL PASSWORD ILLEGAL
	017604	012746 	055011 			 MOV	#^RNPI,-(SP)
	017610	104400 				 TRAP	TC.ERR
   8857						;
   8858	017612				SCKPTL:
   8859	017612					ERROR$	PTL		; ERROR -- PASSWORD TOO LONG
	017612	012746 	063454 			 MOV	#^RPTL,-(SP)
	017616	104400 				 TRAP	TC.ERR
   8860						;
   8861	017620				SCKSKI:
   8862	017620					ERROR$	SKI		; ERROR -- ILLEGAL WHILE KLINIK ACTIVE
	017620	012746 	074201 			 MOV	#^RSKI,-(SP)
SWKLN -- SET/CLEAR/WHAT "KLINIK	MACRO M1113  03-APR-86 22:56  PAGE 230-1
.SCKLN -- THE "SET / CLEAR KLINIK" COMMAND 7709.20

	017624	104400 				 TRAP	TC.ERR
   8863						;
   8864	017626				SCKIPC:
   8865	017626	011204 				MOV	(R2),R4		; OFFENDING CHARACTER TO R4
   8866	017630					ERROR$	IPC		; ERROR -- ILLEGAL PASSWORD CHARACTER
	017630	012746 	035303 			 MOV	#^RIPC,-(SP)
	017634	104400 				 TRAP	TC.ERR
   8867						;
   8868	017636				15$:
   8869	017636	112112 				MOVB	(R1)+,(R2)	; ..LOAD THE PASSWORD
   8870	017640	122712 	000060 			CMPB	#'0,(R2)	; ..SEE IF NUMERIC
   8871	017644	003370 				BGT	SCKIPC		; ..TOO SMALL -- GIVE "IPC" ERROR
   8872	017646	122712 	000071 			CMPB	#'9,(R2)	; ..IN RANGE?
   8873	017652	002006 				BGE	20$		; ..YES -- GO ON
   8874	017654	122712 	000101 			CMPB	#'A,(R2)	; ..NO -- IS THE CHARACTER ALPHABETIC?
   8875	017660	003362 				BGT	SCKIPC		; ..TOO SMALL -- GIVE "IPC" ERROR
   8876	017662	122712 	000132 			CMPB	#'Z,(R2)	; ..[TCO 4.2084] IS IT REALLY IN RANGE?
   8877	017666	002757 				BLT	SCKIPC		; ..TOO BIG  -- GIVE "IPC" ERROR
   8878	017670				20$:
   8879	017670	105722 				TSTB	(R2)+		; ..[TCO 4.2084] ADVANCE BYTE POINTER
   8880	017672	077017 				SOB	R0,15$		; ..LOOP UNTIL DONE
   8881	017674				25$:
   8882	017674	012700 	003771'			MOV	#SCKMS1,R0	; .."FROM" MESSAGE POINTER
   8883	017700					CALL	.TYMSG		; ..PRINT IT
	017700	004737 	000000G			 JSR	PC,.TYMSG
   8884	017704	005046 				CLR	-(SP)		; ..CLEAR A BUFFER FOR THE START DATE
   8885	017706	005046 				CLR	-(SP)		; ...
   8886	017710	010600 				MOV	SP,R0		; ....POINT TO IT
   8887	017712					CALL	.GTDAT		; ....GET WINDOW OPEN DATE
	017712	004737 	006026'			 JSR	PC,.GTDAT
   8888	017716	012700 	003771'			MOV	#SCKMS1,R0	; ....SAME MESSAGE
   8889	017722					CALL	.TYMSG		; ....PRINT IT
	017722	004737 	000000G			 JSR	PC,.TYMSG
   8890	017726	005046 				CLR	-(SP)		; ....CLEAR A SPACE FOR THE START TIME
   8891	017730	010600 				MOV	SP,R0		; .....POINT TO IT
   8892	017732					CALL	.GTTIM		; .....GET WINDOW OPEN TIME
	017732	004737 	006472'			 JSR	PC,.GTTIM
   8893	017736	001002 				BNE	30$		; .....GO ON IF NOT DEFAULT
   8894	017740	013716 	000000G			MOV	.SSM,(SP)	; .....ELSE SET DEFAULT FROM THE SYSTEM
   8895	017744				30$:
   8896	017744	012700 	004015'			MOV	#SCKMS2,R0	; ....."TO" MESSAGE POINTER
   8897	017750					CALL	.TYMSG		; .....OUTPUT THAT
	017750	004737 	000000G			 JSR	PC,.TYMSG
   8898	017754	005046 				CLR	-(SP)		; .....CLEAR A BUFFER FOR THE END DATE
   8899	017756	005046 				CLR	-(SP)		; ......
   8900	017760	010600 				MOV	SP,R0		; .......POINT TO IT
   8901	017762					CALL	.GTDAT		; .......GET THE END DATE
	017762	004737 	006026'			 JSR	PC,.GTDAT
   8902	017766	001044 				BNE	50$		; .......GO ON IF NOT DEFAULT
   8903	017770	016616 	000006 			MOV	6(SP),(SP)	; .......DEFAULT -- GET OPEN DATE
   8904	017774	016666 	000010 	000002 		MOV	10(SP),2(SP)	; .......LOAD IT INTO CLOSE DATE
   8905	020002	105720 				TSTB	(R0)+		; .......GET OVER THE YEAR
   8906	020004	112002 				MOVB	(R0)+,R2	; .......MONTH TO R2
   8907	020006	105210 				INCB	(R0)		; .......INCREMENT THE DATE
   8908	020010	122702 	000002 			CMPB	#^D2,R2		; .......IS THIS FEBRUARY?
   8909	020014	001422 				BEQ	45$		; .......YES -- HANDLE SPECIAL CASE
   8910	020016	122710 	000036 			CMPB	#^D30,(R0)	; .......NO -- HOW MANY DAYS?
SWKLN -- SET/CLEAR/WHAT "KLINIK	MACRO M1113  03-APR-86 22:56  PAGE 230-2
.SCKLN -- THE "SET / CLEAR KLINIK" COMMAND 7709.20

   8911	020022	002026 				BGE	50$		; .......ALL OK IF .LE. 30.
   8912	020024	012701 	172452 			MOV	#^C5325,R1	; .......BIT MASK TO R1
   8913	020030				35$:
   8914	020030	006201 				ASR	R1		; .......SHIFT IT RIGHT
   8915	020032	077202 				SOB	R2,35$		; .......TILL DONE
   8916	020034	103021 				BCC	50$		; .......ALL OK IF CC-C IS CLEAR
   8917	020036				40$:
   8918	020036	112710 	000001 			MOVB	#^D1,(R0)	; .......SET THE DAY TO 1
   8919	020042	105240 				INCB	-(R0)		; .......INCREMENT THE MONTH
   8920	020044	122710 	000014 			CMPB	#^D12,(R0)	; .......DECEMBER?
   8921	020050	002013 				BGE	50$		; .......YES -- GO ON
   8922	020052	012710 	000001 			MOV	#^D1,(R0)	; .......NO -- SET THE MONTH TO JANUARY
   8923	020056	105240 				INCB	-(R0)		; .......AND INCREMENT THE YEAR
   8924	020060	000407 				BR	50$		; .......EXIT
   8925						;
   8926	020062				45$:
   8927	020062	122710 	000034 			CMPB	#^D28,(R0)	; .......28 DAYS?
   8928	020066	002004 				BGE	50$		; .......YES -- GO ON
   8929	020070	132760 	000003 	177776 		BITB	#3,-2(R0)	; .......NO -- LEAP YEAR?
   8930	020076	001357 				BNE	40$		; .......NO -- SET TO MARCH 1
   8931	020100				50$:
   8932	020100	012700 	004015'			MOV	#SCKMS2,R0	; .......SAME MESSAGE FOR END TIME
   8933	020104					CALL	.TYMSG		; .......PRINT IT
	020104	004737 	000000G			 JSR	PC,.TYMSG
   8934	020110	005046 				CLR	-(SP)		; .......CLEAR A SPACE FOR THE END TIME
   8935	020112	010600 				MOV	SP,R0		; ........POINT TO IT
   8936	020114					CALL	.GTTIM		; ........GET THE END TIME
	020114	004737 	006472'			 JSR	PC,.GTTIM
   8937	020120	001002 				BNE	55$		; ........GO ON IF NOT DEFAULT
   8938	020122	016616 	000006 			MOV	6(SP),(SP)	; ........ELSE SET DEFAULT
   8939	020126				55$:
   8940	020126	126666 	000002 	000010 		CMPB	2(SP),10(SP)	; ........ARE THE YEARS IN RANGE?
   8941	020134	002416 				BLT	SCKKWE		; ........NO -- GIVE "KWE" ERROR
   8942	020136	003020 				BGT	60$		; ........YES -- SAME YEAR?
   8943	020140	126666 	000003 	000011 		CMPB	3(SP),11(SP)	; ........YES -- ARE THE MONTHS OK?
   8944	020146	002411 				BLT	SCKKWE		; ........NO -- GIVE "KWE" ERROR
   8945	020150	003013 				BGT	60$		; ........YES -- SAME MONTH?
   8946	020152	126666 	000004 	000012 		CMPB	4(SP),12(SP)	; ........YES -- ARE THE DATES OK?
   8947	020160	002404 				BLT	SCKKWE		; ........NO -- GIVE "KWE" ERROR
   8948	020162	003006 				BGT	60$		; ........YES -- SAME DATE?
   8949	020164	021666 	000006 			CMP	(SP),6(SP)	; ........YES -- ARE THE TIMES OK?
   8950	020170	101003 				BHI	60$		; ........YES -- GO ON
   8951	020172				SCKKWE:
   8952	020172					ERROR$	KWE		; ERROR -- KLINIK WINDOW ERROR
	020172	012746 	044135 			 MOV	#^RKWE,-(SP)
	020176	104400 				 TRAP	TC.ERR
   8953	020200				60$:
   8954	020200	005000 				CLR	R0		; ........CLEAR R0
   8955	020202	105766 	000014 			TSTB	14(SP)		; ........LOOK AT THE KLINIK MODE
   8956	020206	002423 				BLT	65$		; ........GO ON IF USER
   8957	020210	012700 	004042'			MOV	#SCKMS3,R0	; ........ASK FOR HIGHEST CONSOLE MODE
   8958	020214					CALL	.TYMSF		; ........FORCE IT
	020214	004737 	000000G			 JSR	PC,.TYMSF
   8959	020220	012701 	000000G			MOV	#.CIBFR,R1	; ........POINT TO THE INPUT BUFFER
   8960	020224	010105 				MOV	R1,R5		; ........AND R5 TOO
   8961	020226					CALL	.GTLIN		; ........READ THE RESPONSE
	020226	004737 	000000G			 JSR	PC,.GTLIN
SWKLN -- SET/CLEAR/WHAT "KLINIK	MACRO M1113  03-APR-86 22:56  PAGE 230-3
.SCKLN -- THE "SET / CLEAR KLINIK" COMMAND 7709.20

   8962	020232					CALL	.CKOBJ		; ........MUST HAVE AN OBJECT
	020232	004737 	000000G			 JSR	PC,.CKOBJ
   8963	020236	012700 	000000G			MOV	#.KLMTB,R0	; ........TABLE POINTER TO R0
   8964	020242					CALL	.TSCAN		; ........SCAN THE TABLE
	020242	004737 	000000G			 JSR	PC,.TSCAN
   8965	020246	116000 	000002 			MOVB	2(R0),R0	; ........SAVE THE CONSOLE MODE
   8966	020252					CALL	.CKEOC		; ........MUST HAVE E-O-C
	020252	004737 	000000G			 JSR	PC,.CKEOC
   8967	020256				65$:
   8969	020256					.INH6			; ........DISALLOW INTERRUPTS
	020256	013746 	177776 			MOV	@#PS,-(SP)
	020262	112737 	000300 	177776 		MOVB	#300,@#PS
   8970	020270					POP	R3		;;; .........SAVED PSW TO R3
	020270	012603 				 MOV	(SP)+,R3
   8972	020272	110037 	000001G			MOVB	R0,.KLNMD+1	;;; ........SET THE CONSOLE MODE
   8973	020276					POP	.KLNTT		;;; ........SET THE END TIME
	020276	012637 	000000G			 MOV	(SP)+,.KLNTT
   8974	020302					POP	.KLNTD		;;; .......GET THE END DATE
	020302	012637 	000000G			 MOV	(SP)+,.KLNTD
   8975	020306					POP	.KLNTD+2	;;; ......BOTH HALVES
	020306	012637 	000002G			 MOV	(SP)+,.KLNTD+2
   8976	020312					POP	.KLNFT		;;; .....SET THE START TIME
	020312	012637 	000000G			 MOV	(SP)+,.KLNFT
   8977	020316					POP	.KLNFD		;;; ....POINT TO THE START DATE
	020316	012637 	000000G			 MOV	(SP)+,.KLNFD
   8978	020322					POP	.KLNFD+2	;;; ...BOTH HALVES
	020322	012637 	000002G			 MOV	(SP)+,.KLNFD+2
   8979	020326	112637 	000000G			MOVB	(SP)+,.KLNMD+0	;;; ..SET THE KLINIK MODE
   8980	020332	002410 				BLT	75$		;;; .GO ON IF USER
   8981	020334	012702 	000006 			MOV	#^D6,R2		;;; .CHARACTER COUNT TO R2
   8982	020340	012701 	000000G			MOV	#.KLNPW,R1	;;; .POINT TO THE PASSWORD
   8983	020344	012700 	001326'			MOV	#KLNPWD,R0	;;; .POINT TO OURS
   8984	020350				70$:
   8985	020350	112021 				MOVB	(R0)+,(R1)+	;;; .LOAD THE PASSWORD
   8986	020352	077202 				SOB	R2,70$		;;; .LOOP TILL DONE
   8987	020354				75$:
   8989	020354	010337 	177776 			MOV	R3,@#PS		;;; ENABLE INTERRUPTS
   8991	020360					POP	R5		; .RESTORE R5
	020360	012605 				 MOV	(SP)+,R5
   8992	020362	000421 				BR	85$		; AND EXIT
   8993						;
   8994	020364				80$:
   8995	020364	105737 	000000G			TSTB	.KLNMD+0	; ANYTHING TO CLEAR??
   8996	020370	001502 				BEQ	100$		; NO -- JUST TELL OPERATOR ITS ALREADY CLEAR
   8998	020372					.INH6			; DISALLOW INTERRUPTS
	020372	013746 	177776 			MOV	@#PS,-(SP)
	020376	112737 	000300 	177776 		MOVB	#300,@#PS
   9000	020404	105037 	000000G			CLRB	.KLNMD+0	;;; CLEAR KLINIK
   9001	020410	105037 	000000G			CLRB	.KLNPW+0	;;; CLEAR THE KLINIK PASSWORD
   9002	020414	112737 	000001 	000001G		MOVB	#1,.KLNSW+1	;;; MARK THAT WE WANT A CLEAR
   9004	020422					.ENB6			;;; ENABLE INTERRUPTS
	020422	012637 	177776 			MOV	(SP)+,@#PS
   9006	020426				85$:
   9008	020426	032737 	000000G	000002G		BIT	#EF.PR1,.COMEF+2 ; ANY THING THERE TO GET THIS?
   9009	020434	001460 				BEQ	100$		; NO -- GO ON
   9010	020436					CLEF$S	#E.FKLN		; RESET THE FLAG
	020436	012746 	000004 			MOV	#E.FKLN,-(SP)
SWKLN -- SET/CLEAR/WHAT "KLINIK	MACRO M1113  03-APR-86 22:56  PAGE 230-4
.SCKLN -- THE "SET / CLEAR KLINIK" COMMAND 7709.20

	020442	012746 				MOV	(PC)+,-(SP)
	020444	   037 	   002 			.BYTE	31.,2
	020446	104375 				EMT	375
   9012	020450	012700 	000000G			MOV	#.KLNPB,R0	; BUFFER POINTER TO R0
   9013	020454	012710 	000000G			MOV	#KLNPLN,(R0)	; BUFFER SIZE TO HEADER
   9014	020460	012701 	100000G			MOV	#BC.SKP+100000,R1 ; FUNCTION CODE TO R1
   9015	020464	005002 				CLR	R2		; NO EVENT FLAG
   9016	020466	012703 	000000G			MOV	#D.CCPU,R3	; DEVICE CODE TO R3
   9017	020472					CALL	..STIN		; SEND THE NEW PARAMETERS
	020472	004737 	000000G			 JSR	PC,..STIN
   9018	020476	012702 	000000C			MOV	#KLNLGL/2,R2	; ARGUMENT COUNT TO R2
   9019	020502	012701 	000000G			MOV	#.KLNPE,R1	; INPUT BLOCK POINTER
   9020	020506	012700 	001326'			MOV	#KLNLGE,R0	; OUTPUT BLOCK POINTER
   9021	020512				90$:
   9022	020512	014140 				MOV	-(R1),-(R0)	; LOAD THE PARAMETERS
   9023	020514	077202 				SOB	R2,90$		; LOOP TILL DONE
   9024	020516	012702 	000001 			MOV	#1,R2		; ASSUME "SET"
   9025	020522	005737 	000000G			TST	.NOTSW		; IS IT??
   9026	020526	001401 				BEQ	95$		; YES -- GO ON
   9027	020530	005402 				NEG	R2		; NO -- INVERT IT
   9028	020532				95$:
   9029	020532	105740 				TSTB	-(R0)		; GET OVER THE LOG CODE
   9030	020534	110240 				MOVB	R2,-(R0)	; SET THE EVENT CODE
   9031	020536	005740 				TST	-(R0)		; BACK OVER THE LOG FLAG
   9032	020540	012740 	000022 			MOV	#22,-(R0)	; SET THE PACKET SIZE
   9033	020544	012701 	100000G			MOV	#BC.HDS+100000,R1 ; FUNCTION CODE TO R1
   9034	020550	012702 	000004 			MOV	#E.FKLN,R2	; EVENT FLAG TO R2
   9035	020554	012703 	000000G			MOV	#D.CKLN,R3	; DEVICE CODE TO R3
   9036	020560					CALL	..STIN		; LOG IT
	020560	004737 	000000G			 JSR	PC,..STIN
   9038	020564					WTSE$S	#E.FKLN		; WAIT FOR IT
	020564	012746 	000004 			MOV	#E.FKLN,-(SP)
	020570	012746 				MOV	(PC)+,-(SP)
	020572	   051 	   002 			.BYTE	41.,2
	020574	104375 				EMT	375
   9040	020576				100$:
   9041					;	BR	.WHKLN		; TELL THE STATE AND EXIT
   9042						;
   9043
   9044						.DSABL	LSB
SWKLN -- SET/CLEAR/WHAT "KLINIK	MACRO M1113  03-APR-86 22:56  PAGE 231
.SCKLN -- THE "SET / CLEAR KLINIK" COMMAND 7709.20

   9046	001302				.PSECT	DATA
   9047
   9048	001302				KLNLOG:
   9049	001302	000000 				.WORD	0
   9050	001304	000000G				.WORD	DV.LOG
   9051	001306	000000G				.WORD	K.LSCK
   9052	001310	000000 	000000 	000000 		.WORD	0,0,0
   9053	001316	000000 	000000 	000000 		.WORD	0,0,0
   9054	001324	000000 				.WORD	0
   9055		001326'			KLNLGE=.
   9056
   9057	001326				KLNPWD:
   9058	001326	000000 	000000 	000000 		.WORD	0,0,0		; TEMP PASSWORD STORAGE
   9059	003756				.PSECT	MESSAG
   9060
   9061	003756				SCKMS0:
   9062	003756	   120 	   101 	   123 		.ASCIZ	%PASSWORD: %
	003761	   123 	   127 	   117
	003764	   122 	   104 	   072
	003767	   040 	   000
   9063	003771				SCKMS1:
   9064	003771	   101 	   103 	   103 		.ASCIZ	%ACCESS WINDOW OPEN %
	003774	   105 	   123 	   123
	003777	   040 	   127 	   111
	004002	   116 	   104 	   117
	004005	   127 	   040 	   117
	004010	   120 	   105 	   116
	004013	   040 	   000
   9065	004015				SCKMS2:
   9066	004015	   101 	   103 	   103 		.ASCIZ	%ACCESS WINDOW CLOSE %
	004020	   105 	   123 	   123
	004023	   040 	   127 	   111
	004026	   116 	   104 	   117
	004031	   127 	   040 	   103
	004034	   114 	   117 	   123
	004037	   105 	   040 	   000
   9067	004042				SCKMS3:
   9068	004042	   110 	   111 	   107 		.ASCIZ	%HIGHEST CONSOLE MODE: %
	004045	   110 	   105 	   123
	004050	   124 	   040 	   103
	004053	   117 	   116 	   123
	004056	   117 	   114 	   105
	004061	   040 	   115 	   117
	004064	   104 	   105 	   072
	004067	   040 	   000
   9069	004071				SCKMS4:
   9070	004071	   113 	   114 	   111 		.ASCIZ	%KLINIK MODE: %
	004074	   116 	   111 	   113
	004077	   040 	   115 	   117
	004102	   104 	   105 	   072
	004105	   040 	   000
   9071	020576				.PSECT
SWKLN -- SET/CLEAR/WHAT "KLINIK	MACRO M1113  03-APR-86 22:56  PAGE 232
.WHKLN -- THE "WHAT KLINIK" COMMAND 7702.16

   9073					.SBTTL	.WHKLN -- THE "WHAT KLINIK" COMMAND 7702.16
   9074
   9075					;+
   9076					; .WHKLN -- THE "WHAT KLINIK" COMMAND
   9077					;
   9078					; THIS SUBROUTINE WILL REPORT THE STATE OF THE KLINIK PARAMETERS
   9079					; ON THE CONSOLE DEVICE.
   9080					;
   9081					; INPUT ARGUMENTS:
   9082					;
   9083					;	NONE.
   9084					;
   9085					; OUTPUT ARGUMENTS:
   9086					;
   9087					;	NONE.
   9088					;
   9089					; ERROR CODES RETURNED:
   9090					;
   9091					;	NONE.
   9092					;-
   9093
   9094						.MCALL	DIR$,RQST$
   9095
   9096	020576				.WHKLN::
   9097	020576					CALL	.CKEOC		; MUST HAVE E-O-C
	020576	004737 	000000G			 JSR	PC,.CKEOC
   9098	020602	012700 	004107'			MOV	#WHKMS0,R0	; MESSAGE POINTER TO R0
   9099	020606					CALL	.TYMSG		; PRINT IT
	020606	004737 	000000G			 JSR	PC,.TYMSG
   9100	020612	012700 	004120'			MOV	#WHKMS1,R0	; ASSUME KLINIK IS DISABLED
   9101	020616	105737 	000000G			TSTB	.KLNMD+0	; IS IT?
   9102	020622	001514 				BEQ	40$		; YES -- SAY SO
   9103	020624	012700 	004237'			MOV	#WHKMSA,R0	; NO -- ASSUME ACTIVE
   9104	020630	105737 	000000G			TSTB	.KLNSW+0	; IS IT??
   9105	020634	001002 				BNE	10$		; YES -- GO ON
   9106	020636	012700 	004271'			MOV	#WHKMSI,R0	; NO -- SAY INACTIVE
   9107	020642				10$:
   9108	020642	005737 	000000G			TST	.KLNFD		; IS THERE A DATE??
   9109	020646	001005 				BNE	20$		; YES -- KLINIK REALLY ALIVE
   9110	020650	012700 	004246'			MOV	#WHKMRB,R0	; NO -- ALIVE FROM REBOOT
   9111	020654					CALL	.TYLIN
	020654	004737 	000000G			 JSR	PC,.TYLIN
   9112	020660	000436 				BR	30$		; TYPE MODE AND EXIT
   9113						;
   9114	020662				20$:
   9115	020662					CALL	.TYLIN		; TYPE STATE
	020662	004737 	000000G			 JSR	PC,.TYLIN
   9116	020666	012700 	004131'			MOV	#WHKMS2,R0	; GET OPEN MESSAGE
   9117	020672					CALL	.TYMSG		; PRINT IT
	020672	004737 	000000G			 JSR	PC,.TYMSG
   9118	020676	012700 	000000G			MOV	#.KLNFD,R0	; POINT TO THE FROM DATE
   9119	020702					CALL	.TYDAT		; PRINT IT
	020702	004737 	007040'			 JSR	PC,.TYDAT
   9120	020706	012700 	000000G			MOV	#.KLNFT,R0	; POINT TO THE FROM TIME
   9121	020712					CALL	.TYTIM		; PRINT IT
	020712	004737 	007154'			 JSR	PC,.TYTIM
   9122	020716					CALL	.TCRLF		; END THE LINE
SWKLN -- SET/CLEAR/WHAT "KLINIK	MACRO M1113  03-APR-86 22:56  PAGE 232-1
.WHKLN -- THE "WHAT KLINIK" COMMAND 7702.16

	020716	004737 	000000G			 JSR	PC,.TCRLF
   9123	020722	012700 	004157'			MOV	#WHKMS3,R0	; CLOSE MESSAGE POINTER
   9124	020726					CALL	.TYMSG		; PRINT IT
	020726	004737 	000000G			 JSR	PC,.TYMSG
   9125	020732	012700 	000000G			MOV	#.KLNTD,R0	; POINT TO THE TO DATE
   9126	020736					CALL	.TYDAT		; PRINT IT
	020736	004737 	007040'			 JSR	PC,.TYDAT
   9127	020742	012700 	000000G			MOV	#.KLNTT,R0	; POINT TO THE TO TIME
   9128	020746					CALL	.TYTIM		; PRINT IT
	020746	004737 	007154'			 JSR	PC,.TYTIM
   9129	020752					CALL	.TCRLF		; END THE LINE
	020752	004737 	000000G			 JSR	PC,.TCRLF
   9130	020756				30$:
   9131	020756	012700 	004302'			MOV	#WHKMSK,R0	; KLINIK MODE
   9132	020762					CALL	.TYMSG		; PRINT IT
	020762	004737 	000000G			 JSR	PC,.TYMSG
   9133	020766	012700 	000000G			MOV	#USRMSG,R0	; ASSUME USER
   9134	020772	105737 	000000G			TSTB	.KLNMD+0	; IS IT??
   9135	020776	100426 				BMI	40$		; YES -- PRINT AND EXIT
   9136	021000	012700 	000000G			MOV	#REMMSG,R0	; NO -- SAY REMOTE
   9137	021004					CALL	.TYLIN		; PRINT IT
	021004	004737 	000000G			 JSR	PC,.TYLIN
   9138	021010	012700 	004207'			MOV	#WHKMS4,R0	; CONSOLE MODE MESSAGE
   9139	021014					CALL	.TYMSG		; PRINT IT
	021014	004737 	000000G			 JSR	PC,.TYMSG
   9140	021020	012700 	000000G			MOV	#MNTMSG,R0	; MAINTENANCE MODE
   9141	021024	122737 	000007 	000001G		CMPB	#LG.ALL,.KLNMD+1
   9142	021032	001410 				BEQ	40$		; YES -- SAY SO
   9143	021034	012700 	000000G			MOV	#PRGMSG,R0	; NO -- PROGRAMMER MAYBE
   9144	021040	122737 	000003 	000001G		CMPB	#LG.PRM,.KLNMD+1
   9145	021046	001402 				BEQ	40$		; YES -- SAY SO
   9146	021050	012700 	000000G			MOV	#OPRMSG,R0	; NO -- MUST BE OPERATOR
   9147	021054				40$:
   9148	021054	105737 	000001G			TSTB	.KLNSW+1	; IS THIS A CLEAR COMMAND??
   9149	021060	001407 				BEQ	50$		; NO -- JUST GO AWAY
   9150	021062					CALL	.TYLIN		; YES -- PRINT THE LINE
	021062	004737 	000000G			 JSR	PC,.TYLIN
   9151	021066					DIR$	#REQKLD		; REQUEST KLD
	021066	012746 	000114'			MOV	#REQKLD,-(SP)
	021072	104375 				EMT	375
   9152	021074					CALLR	.EXITP		; AND EXIT
	021074	000137 	000000G			 JMP	.EXITP
   9153						;
   9154	021100				50$:
   9155	021100					CALLR	.TYLIN		; PRINT AND EXIT
	021100	000137 	000000G			 JMP	.TYLIN
   9156						;
   9157
   9158	000114				.PSECT	DPBS
   9159
   9160	000114				REQKLD:
   9161	000114					RQST$	KLDISC,,10
	000114	   013 	   007 			.BYTE	11.,7
	000116	043244 	035473 			.RAD50	/KLDISC/
	000122	000000 	000000 			.WORD	0,0
	000126	000010 				.WORD	10
	000130	   000 	   000 			.BYTE	,
SWKLN -- SET/CLEAR/WHAT "KLINIK	MACRO M1113  03-APR-86 22:56  PAGE 232-2
.WHKLN -- THE "WHAT KLINIK" COMMAND 7702.16

   9162
   9163	021104				.PSECT
SWKLN -- SET/CLEAR/WHAT "KLINIK	MACRO M1113  03-APR-86 22:56  PAGE 233
.WHKLN -- THE "WHAT KLINIK" COMMAND 7702.16

   9165	004107				.PSECT	MESSAG
   9166
   9167	004107				WHKMS0:
   9168	004107	   040 	   113 	   114 		.ASCIZ	% KLINIK %
	004112	   111 	   116 	   111
	004115	   113 	   040 	   000
   9169	004120				WHKMS1:
   9170	004120	   104 	   111 	   123 		.ASCIZ	%DISABLED%
	004123	   101 	   102 	   114
	004126	   105 	   104 	   000
   9171	004131				WHKMS2:
   9172	004131	   040 	   101 	   103 		.ASCIZ	% ACCESS WINDOW OPEN: %
	004134	   103 	   105 	   123
	004137	   123 	   040 	   127
	004142	   111 	   116 	   104
	004145	   117 	   127 	   040
	004150	   117 	   120 	   105
	004153	   116 	   072 	   040
	004156	   000
   9173	004157				WHKMS3:
   9174	004157	   040 	   101 	   103 		.ASCIZ	% ACCESS WINDOW CLOSED: %
	004162	   103 	   105 	   123
	004165	   123 	   040 	   127
	004170	   111 	   116 	   104
	004173	   117 	   127 	   040
	004176	   103 	   114 	   117
	004201	   123 	   105 	   104
	004204	   072 	   040 	   000
   9175	004207				WHKMS4:
   9176	004207	   040 	   110 	   111 		.ASCIZ	% HIGHEST CONSOLE MODE: %
	004212	   107 	   110 	   105
	004215	   123 	   124 	   040
	004220	   103 	   117 	   116
	004223	   123 	   117 	   114
	004226	   105 	   040 	   115
	004231	   117 	   104 	   105
	004234	   072 	   040 	   000
   9177	004237				WHKMSA:
   9178	004237	   101 	   103 	   124 		.ASCIZ	%ACTIVE%
	004242	   111 	   126 	   105
	004245	   000
   9179	004246				WHKMRB:
   9180	004246	   101 	   103 	   124 		.ASCIZ	%ACTIVE FROM REBOOT%
	004251	   111 	   126 	   105
	004254	   040 	   106 	   122
	004257	   117 	   115 	   040
	004262	   122 	   105 	   102
	004265	   117 	   117 	   124
	004270	   000
   9181	004271				WHKMSI:
   9182	004271	   111 	   116 	   101 		.ASCIZ	%INACTIVE%
	004274	   103 	   124 	   111
	004277	   126 	   105 	   000
   9183	004302				WHKMSK:
   9184	004302	   040 	   113 	   114 		.ASCIZ	% KLINIK MODE: %
	004305	   111 	   116 	   111
	004310	   113 	   040 	   115
SWKLN -- SET/CLEAR/WHAT "KLINIK	MACRO M1113  03-APR-86 22:56  PAGE 233-1
.WHKLN -- THE "WHAT KLINIK" COMMAND 7702.16

	004313	   117 	   104 	   105
	004316	   072 	   040 	   000
   9185	021104				.PSECT
SWKLN -- SET/CLEAR/WHAT "KLINIK	MACRO M1113  03-APR-86 22:56  PAGE 235
.WHKLN -- THE "WHAT KLINIK" COMMAND 7702.16

   9188
   9189					.TITLE	ZEROC -- ZERO COMMAND MODULE 7609.15
   9190
   9191						.IDENT	"006130"
   9192
   9193					;
   9194					;                             COPYRIGHT (C) 1975, 1984, 1985 BY
   9195					;                     DIGITAL EQUIPMENT CORPORATION, MAYNARD MASS.
   9196					;			ALL RIGHTS RESERVED.
   9197					;       THIS SOFTWARE IS FURNISHED UNDER A LICENSE AND MAY BE  USED  AND  COPIED
   9198					;       ONLY IN ACCORDANCE WITH THE TERMS OF SUCH LICENSE AND WITH THE INCLUSION
   9199					;       OF THE ABOVE COPYRIGHT NOTICE.  THIS SOFTWARE OR ANY OTHER COPIES THERE-
   9200					;       OF  MAY NOT BE PROVIDED OR OTHERWISE MADE AVAILABLE TO ANY OTHER PERSON.
   9201					;       NO TITLE TO OR OWNERSHIP OF THE SOFTWARE IS HEREBY TRANSFERRED.
   9202					;
   9203					;       THE INFORMATION CONTAINED IN THIS SOFTWARE IS SUBJECT TO CHANGE  WITHOUT
   9204					;       NOTICE  AND SHOULD NOT BE CONSTRUED AS A COMMITMENT BY DIGITAL EQUIPMENT
   9205					;       CORPORATION.
   9206					;
   9207					;       DIGITAL ASSUMES NO RESPONSIBILITY FOR THE  USE  OR  RELIABILITY  OF  ITS
   9208					;       SOFTWARE ON EQUIPMENT WHICH IS NOT SUPPILED BY DIGITAL.
   9209					;
   9210					;		MODULE: ZERO COMMAND
   9211					;
   9212					;		VERSION: 06-13
   9213					;
   9214					;		AUTHOR: R. BELANGER
   9215					;
   9216					;		DATE: 7609.15
   9217					;
   9218					;	THIS MODULE CONTAINS:
   9219					;
   9220					;	1) ZERO COMMAND CODE
   9221					;
   9222
   9223						.MCALL	$DEF, DIR$, PRDP$
   9224
   9225	021104					$DEF
ZEROC -- ZERO COMMAND MODULE 76	MACRO M1113  03-APR-86 22:56  PAGE 236
.ZEROC -- THE "ZERO" COMMAND 7609.15

   9227					.SBTTL	.ZEROC -- THE "ZERO" COMMAND 7609.15
   9228
   9229					;+
   9230					; .ZEROC -- THE "ZERO" COMMAND.
   9231					;
   9232					; THIS ROUTINE WILL SET UP AND EXECUTE A KL "BLT" INSTRUCTION THAT
   9233					; WILL ZERO THE LOWER 256K OF KL MEMORY. KL AC 0 IS USED AS THE
   9234					; BLT POINTER, AND THUS IS NOT ZEROED.
   9235					;
   9236					; INPUT ARGUMENTS:
   9237					;
   9238					;	NONE.
   9239					;
   9240					; OUTPUT ARGUMENTS:
   9241					;
   9242					;	NONE
   9243					;
   9244					; ERROR CODES RETURNED:
   9245					;
   9246					;	NONE.
   9247					;-
   9248
   9249	021104				.ZEROC::
   9250	021104					CALL	.CKRUN		; SEE IF THE KL IS RUNNING
	021104	004737 	000000G			 JSR	PC,.CKRUN
   9251	021110	005046 				CLR	-(SP)		; CLEAR A BUFFER ON THE STACK
   9252	021112	005046 				CLR	-(SP)		; .
   9253	021114	005046 				CLR	-(SP)		; ..
   9254	021116	010600 				MOV	SP,R0		; ...POINT TO THE BUFFER
   9255	021120					CALL	.GTKLA		; ...READ THE FIRST ADDRESS
	021120	004737 	000000G			 JSR	PC,.GTKLA
   9256	021124	010001 				MOV	R0,R1		; ...SAVE POINTER TO FIRST ADDRESS
   9257	021126	122704 	000072 			CMPB	#':,R4		; ...IS LAST CHARACTER A BRACKET?
   9258	021132	001403 				BEQ	10$		; ...YES -- GO ON
   9259	021134	162706 	000006 			SUB	#^D6,SP		; ...NO -- FUDGE THE STACK POINTER
   9260	021140	000407 				BR	20$		; ......AND ASSUME IT IS E-O-C
   9261						;
   9262
   9263					;	[CONTINUED ON THE FOLLOWING PAGE]
ZEROC -- ZERO COMMAND MODULE 76	MACRO M1113  03-APR-86 22:56  PAGE 237
.ZEROC -- THE "ZERO" COMMAND 7609.15

   9265					;	[CONTINUED FROM THE PREVIOUS PAGE]
   9266
   9267	021142				10$:
   9268	021142	105725 				TSTB	(R5)+		; ...GET OVER THE SEPARATOR
   9269	021144	005046 				CLR	-(SP)		; ...CLEAR ANOTHER BUFFER
   9270	021146	005046 				CLR	-(SP)		; ....
   9271	021150	005046 				CLR	-(SP)		; .....
   9272	021152	010600 				MOV	SP,R0		; ......GET SECOND BUFFER POINTER
   9273	021154					CALL	.GTKLA		; ......READ THE SECOND ADDRESS
	021154	004737 	000000G			 JSR	PC,.GTKLA
   9274	021160				20$:
   9275	021160					CALL	.CKEOC		; ......MUST BE E-O-C
	021160	004737 	000000G			 JSR	PC,.CKEOC
   9276	021164					PUSH	<R0,R1>		; ......SAVE THE POINTERS
	021164	010046 				 MOV	R0,-(SP)
	021166	010146 				 MOV	R1,-(SP)
   9277	021170					CALL	.STPKL		; ........STOP THE KL
	021170	004737 	000000G			 JSR	PC,.STPKL
   9278	021174	032737 	100000 	000000G		BIT	#KF.CLK,.KLFLG	; ........IS THE CLOCK RUNNING?
   9279	021202	001002 				BNE	30$		; ........YES -- GO ON
   9280	021204					CALL	.STCLK		; ........NO -- START IT
	021204	004737 	000000G			 JSR	PC,.STCLK
   9281	021210				30$:
   9282	021210					POP	<R1,R0>		; ........RESTORE THE POINTERS
	021210	012601 				 MOV	(SP)+,R1
	021212	012600 				 MOV	(SP)+,R0
   9283	021214	012702 	000000G			MOV	#.TPDEC,R2	; ......DISPATCH FOR DECREMENT
   9284	021220					CALL	.TPCMP		; ......COMPARE ADDRESSES
	021220	004737 	000000G			 JSR	PC,.TPCMP
   9285	021224	002402 				BLT	40$		; ......ALL OK IF (R1) .GT. (R0)
   9286	021226	012702 	000000G			MOV	#.TPINC,R2	; ......SET UP FOR FORWARD
   9287	021232				40$:
   9288	021232	010003 				MOV	R0,R3		; ......END ADDRESS TO R3
   9289	021234	010100 				MOV	R1,R0		; ......BEGINNING ADDESSS TO R0
   9290	021236	010301 				MOV	R3,R1		; ......END ADDRESS TO R1
   9291	021240	005046 				CLR	-(SP)		; ......CLEAR A DATA BUFFER
   9292	021242	005046 				CLR	-(SP)		; .......
   9293	021244	005046 				CLR	-(SP)		; ........
   9294	021246	010603 				MOV	SP,R3		; .........POINT TO IT
   9295	021250	010337 	000140'			MOV	R3,ZERDPB+6	; .........SET UP THE DEPOSIT DPB
   9296	021254	010037 	000136'			MOV	R0,ZERDPB+4	; .........SO
   9297
   9298					;	[CONTINUED ON THE FOLLOWING PAGE]
ZEROC -- ZERO COMMAND MODULE 76	MACRO M1113  03-APR-86 22:56  PAGE 238
.ZEROC -- THE "ZERO" COMMAND 7609.15

   9300					;	[CONTINUED FROM THE PREVIOUS PAGE]
   9301
   9302	021260				50$:
   9303	021260	012703 	000144 			MOV	#^D100,R3	; .........LOOP COUNT TO R4
   9304	021264				60$:
   9308	021264					DIR$	#ZERDPB		; .........DO THE DEPOSIT
	021264	012746 	000132'			MOV	#ZERDPB,-(SP)
	021270	104375 				EMT	375
   9310	021272	103415 				BCS	80$		; .........ERROR IF CC-C IS SET
   9311	021274					CALL	.TPCMP		; .........ARE WE DONE?
	021274	004737 	000000G			 JSR	PC,.TPCMP
   9312	021300	001405 				BEQ	70$		; .........YES -- EXIT
   9313	021302					CALL	(R2)		; .........NO -- COMPUTE NEXT ADDRESS
	021302	004712 				 JSR	PC,(R2)
   9314	021304	077311 				SOB	R3,60$		; .........LOOP THRU THIS SET
   9315	021306					CALL	.CKCTC		; .........LOOK FOR CONTROL-C
	021306	004737 	000000G			 JSR	PC,.CKCTC
   9316	021312	000762 				BR	50$		; .........AND GO ON
   9317						;
   9318	021314				70$:
   9319	021314	062706 	000022 			ADD	#^D18,SP	; .........CLEAR THE STACK
   9320	021320	005037 	000000G			CLR	.SVKLF		; CLEAR ".SVKLF"
   9321	021324					RETURN			; TO CALLER
	021324	000207 				 RTS	PC
   9322	021326				80$:
   9323	021326	022737 	000000G	000000G		CMP	#IE.EBX,$DSW	; IS THE EBOX STOPPED?
   9324	021334	001403 				BEQ	ZERESD		; YES -- SAY SO
   9325	021336					ERROR$	DMF		; NO -- ERROR -- DEPOSIT MEMORY FAILED
	021336	012746 	015416 			 MOV	#^RDMF,-(SP)
	021342	104400 				 TRAP	TC.ERR
   9326						;
   9327	021344				ZERESD:
   9328	021344					ERROR$	ESD		; ERROR -- EBOX STOPPED - DEPOSIT
	021344	012746 	021074 			 MOV	#^RESD,-(SP)
	021350	104400 				 TRAP	TC.ERR
   9329						;
   9330
   9331	000132				.PSECT	DPBS
   9332
   9333	000132				ZERDPB:
   9334	000132					PRDP$	0,0,0,ED.PHY
	000132	   011 	   005 			.BYTE	DR.DTE,5
	000134	   016 	   200 			.BYTE	DF.PDP,ED.PHY
	000136	000000 				.WORD	0
	000140	000000 				.WORD	0
	000142	000000 				.WORD	0
   9335
   9336	021352				.PSECT
ZEROC -- ZERO COMMAND MODULE 76	MACRO M1113  03-APR-86 22:56  PAGE 240
.ZEROC -- THE "ZERO" COMMAND 7609.15

   9339
   9340
   9341
   9342					;
   9343					;                             COPYRIGHT (C) 1975, 1984, 1985 BY
   9344					;                     DIGITAL EQUIPMENT CORPORATION, MAYNARD MASS.
   9345					;			ALL RIGHTS RESERVED.
   9346					;       THIS SOFTWARE IS FURNISHED UNDER A LICENSE AND MAY BE  USED  AND  COPIED
   9347					;       ONLY IN ACCORDANCE WITH THE TERMS OF SUCH LICENSE AND WITH THE INCLUSION
   9348					;       OF THE ABOVE COPYRIGHT NOTICE.  THIS SOFTWARE OR ANY OTHER COPIES THERE-
   9349					;       OF  MAY NOT BE PROVIDED OR OTHERWISE MADE AVAILABLE TO ANY OTHER PERSON.
   9350					;       NO TITLE TO OR OWNERSHIP OF THE SOFTWARE IS HEREBY TRANSFERRED.
   9351					;
   9352					;       THE INFORMATION CONTAINED IN THIS SOFTWARE IS SUBJECT TO CHANGE  WITHOUT
   9353					;       NOTICE  AND SHOULD NOT BE CONSTRUED AS A COMMITMENT BY DIGITAL EQUIPMENT
   9354					;       CORPORATION.
   9355					;
   9356					;       DIGITAL ASSUMES NO RESPONSIBILITY FOR THE  USE  OR  RELIABILITY  OF  ITS
   9357					;       SOFTWARE ON EQUIPMENT WHICH IS NOT SUPPILED BY DIGITAL.
   9358					;
   9359					;
   9360					;		VERSION: 06-13
   9361					;
   9362					;
   9363					;
   9364					;	THIS MODULE CONTAINS:
   9365					;
   9366					;
   9367
   9368
ZEROC -- ZERO COMMAND MODULE 76	MACRO M1113  03-APR-86 22:56  PAGE 241
.ZEROC -- THE "ZERO" COMMAND 7609.15

   9370
   9371					;+
   9372					;
   9373					; THIS ROUTINE WILL SET UP AND EXECUTE A KL "BLT" INSTRUCTION THAT
   9374					; WILL ZERO THE LOWER 256K OF KL MEMORY. KL AC 0 IS USED AS THE
   9375					; BLT POINTER, AND THUS IS NOT ZEROED.
   9376					;
   9377					; INPUT ARGUMENTS:
   9378					;
   9379					;	NONE.
   9380					;
   9381					; OUTPUT ARGUMENTS:
   9382					;
   9383					;	NONE
   9384					;
   9385					; ERROR CODES RETURNED:
   9386					;
   9387					;	NONE.
   9388					;-
   9389
ZEROC -- ZERO COMMAND MODULE 76	MACRO M1113  03-APR-86 22:56  PAGE 244
.ZEROC -- THE "ZERO" COMMAND 7609.15

   9393	001334				.PSECT	DATA
   9394	001334	000000 			EXDEPF:	.WORD 0
   9395	001336	000000G			QTAB:	.WORD Q0
   9396	001340	000000G				.WORD Q1
   9397	001342	000000G				.WORD Q2
   9398	001344	000000G				.WORD Q3
   9399
   9400	021352				.PSECT
   9401						.ENABL	LSB
   9402
   9403	021352				.SAVQ::
   9404	021352	005037 	001334'			CLR	EXDEPF
   9405	021356	000403 				BR	10$
   9406	021360				.RESQ::
   9407	021360	012737 	000001 	001334'		MOV	#1,EXDEPF
   9408	021366				10$:
   9409	021366					PUSH	<R0,R1,R2,R3>
	021366	010046 				 MOV	R0,-(SP)
	021370	010146 				 MOV	R1,-(SP)
	021372	010246 				 MOV	R2,-(SP)
	021374	010346 				 MOV	R3,-(SP)
   9410	021376					CALL	.GTELN
	021376	004737 	000000G			 JSR	PC,.GTELN
   9411	021402	006300 				ASL	R0
   9412	021404	016003 	001336'			MOV	QTAB(R0),R3
   9413	021410					CALL	.CKCOL
	021410	004737 	000000G			 JSR	PC,.CKCOL
   9414	021414	012700 	000000G			MOV	#.EDKLX,R0
   9415	021420					CALL	.GTKLA
	021420	004737 	000000G			 JSR	PC,.GTKLA
   9416	021424					PUSH	R3
	021424	010346 				 MOV	R3,-(SP)
   9417	021426					PUSH	#.EDKLX
	021426	012746 	000000G			 MOV	#.EDKLX,-(SP)
   9418	021432	010601 				MOV	SP,R1
   9419	021434	012700 	000200 			MOV	#ED.PHY,R0
   9420	021440	005737 	001334'			TST	EXDEPF
   9421	021444	001403 				BEQ	20$
   9422	021446					CALL	.DPKLM
	021446	004737 	000000G			 JSR	PC,.DPKLM
   9423	021452	000402 				BR	30$
   9424	021454				20$:
   9425	021454					CALL	.EXKLM
	021454	004737 	000000G			 JSR	PC,.EXKLM
   9426	021460				30$:
   9427	021460	005726 				TST	(SP)+
   9428	021462	005726 				TST	(SP)+
   9429	021464					POP	<R3,R2,R1,R0>
	021464	012603 				 MOV	(SP)+,R3
	021466	012602 				 MOV	(SP)+,R2
	021470	012601 				 MOV	(SP)+,R1
	021472	012600 				 MOV	(SP)+,R0
   9430	021474					RETURN
	021474	000207 				 RTS	PC
   9431						.DSABL	LSB
   9432
   9433						.EVEN
ZEROC -- ZERO COMMAND MODULE 76	MACRO M1113  03-APR-86 22:56  PAGE 244-1
.ZEROC -- THE "ZERO" COMMAND 7609.15

   9434		000001 				.END
ZEROC -- ZERO COMMAND MODULE 76	MACRO M1113  03-APR-86 22:56  PAGE 244-2
SYMBOL TABLE

ABTAB   000530R     002	ASH   = 000240   	CCEMSG  003317R     003	CR.HLF= 000001   	DG3B1   001711R     003
ACADR   001026RG    002	ASHC  = 000244   	CC.ALL= 003417   	CR.NRM= 000000   	DIAG1 = 174430
ACDAT   000766R     002	AUGMSG= ****** GX	CC.NRM= 000000   	CR.QTR= 000002   	DIAG2 = 174432
ADD   = 000270   	A.LULU= 000002   	CDD   = 000020   	CR.SLO= 000003   	DIAG3 = 174436
ADDB  = 000273   	A.LUNA= 000004   	CDMTB   001214R     002	CS.ALL= 000014   	DIATAB  000356R     002
ADDI  = 000271   	A.LUNU= 000006   	CD.ALL= 003400   	CS.CS1= 000004   	DIKL10= 000010
ADDM  = 000272   	BC.HDS= ****** GX	CD.CLC= 000400   	CS.CS2= 000010   	DIV   = 000234
ADH   = 000000   	BC.SKP= ****** GX	CD.CRC= 002000   	CS.EXP= 177670   	DIVB  = 000237
ADL   = 000100   	BIT0  = 000001   	CD.DPC= 001000   	CS.EXT= 000010   	DIVI  = 000235
AND   = 000404   	BIT00 = 000001   	CD.NRM= 000000   	CS.FST= 000004   	DIVM  = 000236
ANDB  = 000407   	BIT01 = 000002   	CHNPNT= 000001   	CS.MGN= 000004   	DLYCNT= 174400
ANDCA = 000410   	BIT02 = 000004   	CH.ALP= 000001   	CS.NRM= 000000   	DMOVE = 000120
ANDCAB= 000413   	BIT03 = 000010   	CH.ANM= 000003   	CS.UDF= 000014   	DMOVEM= 000124
ANDCAI= 000411   	BIT04 = 000020   	CH.AOP= 000100   	CTLMSG= ****** GX	DMOVN = 000121
ANDCAM= 000412   	BIT05 = 000040   	CH.END= 000034   	DATAI = 000001   	DMOVNM= 000125
ANDCB = 000440   	BIT06 = 000100   	CH.EOC= 000010   	DATAO = 000003   	DON10C= 040000
ANDCBB= 000443   	BIT07 = 000200   	CH.EOL= 000004   	DATBUF  001262R     002	DON10S= 100000
ANDCBI= 000441   	BIT08 = 000400   	CH.EOS= 000020   	DCOMST= 000001   	DON11C= 000100
ANDCBM= 000442   	BIT09 = 001000   	CH.ILL= 000200   	DECMSG= ****** GX	DON11S= 000200
ANDCM = 000420   	BIT1  = 000002   	CH.NUL= 000000   	DEP   = 010000   	DOWMTB  001244R     002
ANDCMB= 000423   	BIT10 = 002000   	CH.NUM= 000002   	DEPBLK  000756R     002	DOWTAB  001204R     002
ANDCMI= 000421   	BIT11 = 004000   	CH.PFX= 000040   	DEPOS   001343R     003	DPB   = 000137
ANDCMM= 000422   	BIT12 = 010000   	CIDLUN= 000001   	DEX   = 000400   	DPOAPE  002542R
ANDI  = 000405   	BIT13 = 020000   	CLDSTB  001124R     002	DEXDON= 000004   	DPOATB  000000R     002
ANDM  = 000406   	BIT14 = 040000   	CLEAR = 000400   	DEXWD1= 174406   	DPODTB  000004R     002
AOBJN = 000253   	BIT15 = 100000   	CLEARB= 000403   	DEXWD2= 174404   	DPOITB  000010R     002
AOBJP = 000252   	BIT2  = 000004   	CLEARI= 000401   	DEXWD3= 174402   	DPOKCN  002550R
AOJ   = 000340   	BIT3  = 000010   	CLEARM= 000402   	DFAD  = 000110   	DPONTB  000014R     002
AOJA  = 000344   	BIT4  = 000020   	CLOSE = 000070   	DFBEND= ****** GX	DPOOAI  001546R
AOJE  = 000342   	BIT5  = 000040   	CLRTTB  001150R     002	DFCIFC  000656R  	DPOPTB  000020R     002
AOJG  = 000347   	BIT6  = 000100   	CLSRTB  001140R     002	DFDV  = 000113   	DPOVFE  002556R
AOJGE = 000345   	BIT7  = 000200   	CMDK1   002231R     003	DFMP  = 000112   	DPOZTB  000024R     002
AOJL  = 000341   	BIT8  = 000400   	CMDK10  002366R     003	DFN   = 000131   	DPS4  = 040000
AOJLE = 000343   	BIT9  = 001000   	CMDK2   002244R     003	DFRMSG  000000R     003	DPTMSG= ****** GX
AOJN  = 000346   	BLKI  = 000000   	CMDK3   002256R     003	DFSB  = 000111   	DRATAB  000442R     002
AOS   = 000350   	BLKO  = 000002   	CMDK4   002267R     003	DFUNC = 000200   	DRESET= 000100
AOSA  = 000354   	BLT   = 000251   	CMDK5   002302R     003	DF.DMG= 000004   	DRMMSG= ****** GX
AOSE  = 000352   	BPARER= 000020   	CMDK6   002315R     003	DF.DMN= 000007   	DR.DTE= 000011
AOSG  = 000357   	CAI   = 000300   	CMDK7   002330R     003	DF.DOR= 000001   	DSEND = 000004
AOSGE = 000355   	CAIA  = 000304   	CMDK8   002342R     003	DF.EHG= 000010   	DS04  = 004000
AOSL  = 000351   	CAIE  = 000302   	CMDK9   002354R     003	DF.EHM= 000011   	DS05  = 002000
AOSLE = 000353   	CAIG  = 000307   	CNUPE = 000002   	DF.EMG= 000005   	DS06  = 001000
AOSN  = 000356   	CAIGE = 000305   	CODLUN= 000002   	DF.EMN= 000006   	DTEBUF  000140R     002
APR   = 000000   	CAIL  = 000301   	CONI  = 000005   	DF.KLR= 000012   	DTECMD= 000451
APRMSG= ****** GX	CAILE = 000303   	CONKNC  000156R  	DF.KLW= 000013   	DTEFLG= 000444
AP.ALL= 000177   	CAIN  = 000306   	CONO  = 000004   	DF.KLX= 000014   	DTEF11= 000450
AP.ARP= 001000   	CALL  = 000040   	CONSO = 000007   	DF.OFF= 000002   	DTEMTD= 000455
AP.CDP= 000004   	CALLI = 000047   	CONSZ = 000006   	DF.ON = 000003   	DTEMTI= 000456
AP.EIP= 000400   	CAM   = 000310   	CPUNUM= 000002   	DF.PDP= 000016   	DTEREG  000200R     002
AP.IPF= 000020   	CAMA  = 000314   	CPVMSG= ****** GX	DF.PEX= 000015   	DUPE  = 000020
AP.MPE= 000010   	CAME  = 000312   	CRATAB  000412R     002	DG1B10  001424R     003	DURE  = 000004
AP.NRM= 001400   	CAMG  = 000317   	CRLTAB  000426R     002	DG1B11  001373R     003	DV.LOG= ****** GX
AP.NXM= 000040   	CAMGE = 000315   	CRMMSG= ****** GX	DG1B5   001647R     003	DXWRD1= 002000
AP.PWF= 000001   	CAML  = 000311   	CR.ALL= 000003   	DG1B6   001604R     003	DX1MS1  001025R     003
AP.SAP= 000002   	CAMLE = 000313   	CR.CR1= 000001   	DG1B7   001541R     003	DX1MS2  001045R     003
AP.SBE= 000100   	CAMN  = 000316   	CR.CR2= 000002   	DG1B8   001475R     003	D.CCPU= ****** GX
ARMSG = ****** GX	CCA   = 000014   	CR.FUL= 000000   	DG1B9   001450R     003	D.CKLN= ****** GX
ZEROC -- ZERO COMMAND MODULE 76	MACRO M1113  03-APR-86 22:56  PAGE 244-3
SYMBOL TABLE

D1.CES= 004000   	EOSMSG  002205R     003	FDVRB = 000177   	FR.VM0= 000320   	FR.161= 000342
D1.DCS= 000001   	EPMSG0  002112R     003	FDVRI = 000175   	FR.VM1= 000322   	FR.162= 000344
D1.DDT= 000040   	EPMSG1  002126R     003	FDVRM = 000176   	FR.VM2= 000324   	FR.163= 000346
D1.DEX= 000400   	EPMSG2  002140R     003	FEBMSG= ****** GX	FR.VM3= 000326   	FR.164= 000350
D1.DFM= 000010   	EPMSG3  002154R     003	FERTAB  000456R     002	FR.VM4= 000330   	FR.165= 000352
D1.DS0= 100000   	EPTR  = 000000   	FIX   = 000122   	FR.VM5= 000332   	FR.166= 000354
D1.DS1= 040000   	EPTUPT  000114R     002	FIXR  = 000126   	FR.VM6= 000334   	FR.167= 000356
D1.DS2= 020000   	EQV   = 000444   	FLTR  = 000127   	FR.VM7= 000336   	FR.170= 000360
D1.DS3= 010000   	EQVB  = 000447   	FMABO   002462R     003	FR.100= 000200   	FR.171= 000362
D1.DS4= 004000   	EQVI  = 000445   	FMBUF   001004R     002	FR.101= 000202   	FR.172= 000364
D1.DS5= 002000   	EQVM  = 000446   	FMERR   001002R     002	FR.102= 000204   	FR.173= 000366
D1.DS6= 001000   	ERRCES= ****** GX	FMHED   002416R     003	FR.103= 000206   	FR.174= 000370
D1.HLP= 001000   	ERRCPE= ****** GX	FMMSG = ****** GX	FR.104= 000210   	FR.175= 000372
D1.LBK= 000200   	ERRDPE= ****** GX	FMP   = 000160   	FR.105= 000212   	FR.176= 000374
D1.MBZ= 000442   	ERRFME= ****** GX	FMPB  = 000163   	FR.106= 000214   	FR.177= 000376
D1.PLS= 000020   	ERR10C= 010000   	FMPL  = 000161   	FR.107= 000216   	FSB   = 000150
D1.RUN= 002000   	ERR10S= 020000   	FMPM  = 000162   	FR.110= 000220   	FSBB  = 000153
D1.T10= 000200   	ERR11C= 000001   	FMPR  = 000164   	FR.111= 000222   	FSBL  = 000151
D1.T11= 000100   	ERR11S= 000002   	FMPRB = 000167   	FR.112= 000224   	FSBM  = 000152
D1.V04= 000020   	EXADTB  000034R     002	FMPRI = 000165   	FR.113= 000226   	FSBR  = 000154
D1.XFR= 000004   	EXAITB  000040R     002	FMPRM = 000166   	FR.114= 000230   	FSBRB = 000157
D1011 = 000040   	EXAM    001353R     003	FNCIFC  001332R  	FR.115= 000232   	FSBRI = 000155
D2.EBD= 040000   	EXANTB  000044R     002	FNCOFC  001340R  	FR.116= 000234   	FSBRM = 000156
D2.MBZ= 177641   	EXAOAI  002110R  	FOFMSG  002003R     003	FR.117= 000236   	FSC   = 000132
D2.MS1= 000002   	EXAPTB  000050R     002	FONMSG  001775R     003	FR.120= 000240   	FSSMSG= ****** GX
D2.MS2= 000004   	EXAZTB  000054R     002	FORPRO= 000020   	FR.121= 000242   	FTBYTE= 000000
D2.MS4= 000010   	EXBLK   001022R     002	FRDBUF  000626RG    002	FR.122= 000244   	FTCRAM= 000000
D2.MS8= 000020   	EXCH  = 000250   	FRIMSG  003724R     003	FR.123= 000246   	FTDEBU= 000001
D2.RA0= 100000   	EXCIOC  003574R  	FR.ADX= 000254   	FR.124= 000250   	FTDISP= 000000
D2.RA1= 040000   	EXDAT   001032RG    002	FR.APR= 000220   	FR.125= 000252   	FTDRAM= 000000
D2.RA2= 020000   	EXDEPF  001334R     002	FR.ARX= 000252   	FR.126= 000254   	FTHELP= 000000
D2.RST= 000100   	EXFMSG  002011R     003	FR.BRX= 000250   	FR.127= 000256   	FTKLE = 000001
D3.CDD= 000020   	EXMDTB  000030R     002	FR.CA1= 000312   	FR.130= 000260   	FTKLER= 000000
D3.MBZ= 177704   	EXRTBL= ****** GX	FR.CA2= 000310   	FR.131= 000262   	FTLCVT= 000000
D3.NPE= 000002   	EXTEND= 000123   	FR.CL1= 000316   	FR.132= 000264   	FTLIST= 000001
D3.PAR= 040000   	EXTKCN  003230R  	FR.CL2= 000314   	FR.133= 000266   	FTTRAK= 000001
D3.RST= 000001   	EXTMSG= ****** GX	FR.CRD= 000302   	FR.134= 000270   	FTTRP4= 000001
D3.SCD= 000040   	E.FCID= 000002   	FR.CR1= 000316   	FR.135= 000272   	FTUCVR= 000130
D3.SSL= 100000   	E.FCOD= 000003   	FR.CR2= 000314   	FR.136= 000274   	FT1105= 000001
D3.TXB= 000001   	E.FCTC= ****** GX	FR.CR3= 000312   	FR.137= 000276   	FT1110= 000001
D3.UPE= 000020   	E.FFIL= 000006   	FR.CR4= 000310   	FR.140= 000300   	FT1115= 000001
D3.URE= 000004   	E.FHTO= 000001   	FR.DA1= 000260   	FR.141= 000302   	FT1120= 000001
D3.WEP= 000010   	E.FKLN= 000004   	FR.DA2= 000262   	FR.142= 000304   	FT1135= 000001
EBSEL = 000100   	E.FLOD= 000005   	FR.EBS= 000356   	FR.143= 000306   	FT1140= 000001
EBUSPC= 000020   	FAD   = 000140   	FR.FE1= 000266   	FR.144= 000310   	FT1145= 000000
EBUSPS= 000004   	FADB  = 000143   	FR.FE2= 000264   	FR.145= 000312   	FULMSG= ****** GX
EDNKLA  000540R  	FADL  = 000141   	FR.PI0= 000200   	FR.146= 000314   	FW.APE= 000116
EDONES= 040000   	FADM  = 000142   	FR.PI1= 000202   	FR.147= 000316   	FW.CA1= 000122
ED.EPT= 000000   	FADR  = 000144   	FR.RAD= 000256   	FR.150= 000320   	FW.CA2= 000124
ED.EXV= 000040   	FADRB = 000147   	FR.RAR= 000240   	FR.151= 000322   	FW.CDR= 000112
ED.PHY= 000200   	FADRI = 000145   	FR.RBR= 000242   	FR.152= 000324   	FW.CHN= 000160
ED.UPT= 000100   	FADRM = 000146   	FR.RFM= 000246   	FR.153= 000326   	FW.CRD= 000126
ED.USV= 000140   	FDV   = 000170   	FR.RMQ= 000244   	FR.154= 000330   	FW.CR1= 000136
EF.CRI= ****** GX	FDVB  = 000173   	FR.SC1= 000262   	FR.155= 000332   	FW.CR2= 000134
EF.PR1= ****** GX	FDVL  = 000171   	FR.SC2= 000260   	FR.156= 000334   	FW.CR3= 000132
ELEMSG= ****** GX	FDVM  = 000172   	FR.SR1= 000306   	FR.157= 000336   	FW.CR4= 000130
ENTER = 000077   	FDVR  = 000174   	FR.SR2= 000304   	FR.160= 000340   	FW.CSR= 000110
ZEROC -- ZERO COMMAND MODULE 76	MACRO M1113  03-APR-86 22:56  PAGE 244-4
SYMBOL TABLE

FW.DJE= 000146   	FX.SYC= 000010   	HDDAG3  000237R     003	HRLS  = 000507   	INT11C= 002000
FW.DJO= 000150   	FX.UDR= 000032   	HDDEX1  000043R     003	HRLZ  = 000514   	INT11S= 004000
FW.DR1= 000140   	FX.UIR= 000030   	HDDEX2  000030R     003	HRLZI = 000515   	IOR   = 000434
FW.DR2= 000142   	FX.000= 000000   	HDDEX3  000015R     003	HRLZM = 000516   	IORB  = 000437
FW.DR3= 000144   	FX.001= 000002   	HDDLY   000004R     003	HRLZS = 000517   	IORI  = 000435
FW.EBL= 000174   	FX.002= 000004   	HDSTAT  000224R     003	HRR   = 000540   	IORM  = 000436
FW.IAC= 000154   	FX.003= 000006   	HDTAD1  000056R     003	HRRE  = 000570   	IO.ACE= ****** GX
FW.IOJ= 000152   	FX.004= 000010   	HDTAD2  000071R     003	HRREI = 000571   	IO.ACR= ****** GX
FW.IPE= 000114   	FX.005= 000012   	HDT10A  000126R     003	HRREM = 000572   	IO.ATT= ****** GX
FW.KLO= 000156   	FX.006= 000014   	HDT10B  000102R     003	HRRES = 000573   	IO.DET= ****** GX
FW.LAR= 000176   	FX.007= 000016   	HDT10D  000152R     003	HRRI  = 000541   	IP.ALL= 000017
FW.LBL= 000106   	FX.010= 000020   	HDT11A  000141R     003	HRRM  = 000542   	IP.CRP= 000004
FW.LBR= 000104   	FX.011= 000022   	HDT11B  000115R     003	HRRO  = 000560   	IP.DRP= 000002
FW.MBX= 000162   	FX.012= 000024   	HDT11D  000165R     003	HRROI = 000561   	IP.FMP= 000010
FW.SBR= 000174   	FX.013= 000026   	HIBYTE= 177400   	HRROM = 000562   	IP.FSS= 000001
FW.040= 000100   	FX.014= 000030   	HLFMSG= ****** GX	HRROS = 000563   	IP.NRM= 000016
FW.041= 000102   	FX.015= 000032   	HLL   = 000500   	HRRS  = 000543   	JANMSG= ****** GX
FW.042= 000104   	FX.016= 000034   	HLLE  = 000530   	HRRZ  = 000550   	JFCL  = 000255
FW.043= 000106   	FX.017= 000036   	HLLEI = 000531   	HRRZI = 000551   	JFFO  = 000243
FW.044= 000110   	FX.020= 000040   	HLLEM = 000532   	HRRZM = 000552   	JRA   = 000267
FW.045= 000112   	FX.021= 000042   	HLLES = 000533   	HRRZS = 000553   	JRST  = 000254
FW.046= 000114   	FX.022= 000044   	HLLI  = 000501   	H.KCAC= ****** GX	JSA   = 000266
FW.047= 000116   	FX.023= 000046   	HLLM  = 000502   	H.KCHN= ****** GX	JSP   = 000265
FW.050= 000120   	FX.024= 000050   	HLLO  = 000520   	H.KEXT= ****** GX	JSR   = 000264
FW.051= 000122   	FX.025= 000052   	HLLOI = 000521   	H.KMOS= ****** GX	JSYS  = 000104
FW.052= 000124   	FX.026= 000054   	HLLOM = 000522   	H.KPWR= ****** GX	JULMSG= ****** GX
FW.053= 000126   	FX.027= 000056   	HLLOS = 000523   	I     = 000000   	JUMP  = 000320
FW.054= 000130   	FX.030= 000060   	HLLS  = 000503   	IBP   = 000133   	JUMPA = 000324
FW.055= 000132   	FX.031= 000062   	HLLZ  = 000510   	IDIV  = 000230   	JUMPE = 000322
FW.056= 000134   	FX.032= 000064   	HLLZI = 000511   	IDIVB = 000233   	JUMPG = 000327
FW.057= 000136   	FX.033= 000066   	HLLZM = 000512   	IDIVI = 000231   	JUMPGE= 000325
FW.060= 000140   	FX.034= 000070   	HLLZS = 000513   	IDIVM = 000232   	JUMPL = 000321
FW.061= 000142   	FX.035= 000072   	HLR   = 000544   	IDPB  = 000136   	JUMPLE= 000323
FW.062= 000144   	FX.036= 000074   	HLRE  = 000574   	IE.ACT= ****** GX	JUMPN = 000326
FW.063= 000146   	FX.037= 000076   	HLREI = 000575   	IE.EBX= ****** GX	JUNMSG= ****** GX
FW.064= 000150   	GETEBR  000124RG    002	HLREM = 000576   	IE.INS= ****** GX	KF.BRM= 001000
FW.065= 000152   	GETSTS= 000062   	HLRES = 000577   	IFLOP = 100000   	KF.CES= 000100
FW.066= 000154   	GETUBR  000132RG    002	HLRO  = 000564   	ILDB  = 000134   	KF.CLK= 100000
FW.067= 000156   	GOOBLK  001016R     002	HLROI = 000565   	IMUL  = 000220   	KF.CON= 000200
FW.070= 000160   	GTDDBT  006442R  	HLROM = 000566   	IMULB = 000223   	KF.DEF= 000200
FW.071= 000162   	GTDDOR  006450R  	HLROS = 000567   	IMULI = 000221   	KF.KLO= 000400
FW.072= 000164   	GTDIDF  006456R  	HLRS  = 000547   	IMULM = 000222   	KF.MRS= 020000
FW.073= 000166   	GTDMS0  002167R     003	HLRZ  = 000554   	IN    = 000056   	KF.RUN= 040000
FW.074= 000170   	GTDYOR  006464R  	HLRZI = 000555   	INBUF = 000064   	KF.SIM= 010000
FW.075= 000172   	GTTITF  007024R  	HLRZM = 000556   	INCEX   000074R     002	KF.SMC= 004000
FW.076= 000174   	GTTMS0  002176R     003	HLRZS = 000557   	INCFR   000064R     002	KF.SPM= 002000
FW.077= 000176   	GTTTOR  007032R  	HRL   = 000504   	INCTX   000104R     002	KLETAB  000634RG    002
FX.BMC= 000012   	G.TICP= 000016   	HRLE  = 000534   	INDLUN= 000005   	KLIOT = 000700
FX.CMR= 000014   	G.TICT= 000014   	HRLEI = 000535   	INIDNP  007546R  	KLNLGE= 001326R     002
FX.CON= 000024   	G.TIDA= 000004   	HRLEM = 000536   	INIDTC  007554R  	KLNLGL= ****** GX
FX.CRF= 000020   	G.TIHR= 000006   	HRLES = 000537   	INIT  = 000041   	KLNLOG  001302R     002
FX.CSP= 000000   	G.TIMI= 000010   	HRLI  = 000505   	INPUT = 000066   	KLNPLN= ****** GX
FX.CST= 000002   	G.TIMO= 000002   	HRLM  = 000506   	INTMSG= ****** GX	KLNPWD  001326R     002
FX.EBC= 000006   	G.TISC= 000012   	HRLO  = 000564   	INTROF= 000010   	KLP   = 000574
FX.MBC= 000004   	G.TIYR= 000000   	HRLOI = 000565   	INTRON= 000040   	KLPSTP= ****** GX
FX.SMR= 000016   	HDDAG1  000176R     003	HRLOM = 000566   	INTSON= 000001   	KLPWRF= 000010
FX.SRF= 000022   	HDDAG2  000211R     003	HRLOS = 000567   	INT10S= 000400   	KL.ABO= ****** GX
ZEROC -- ZERO COMMAND MODULE 76	MACRO M1113  03-APR-86 22:56  PAGE 244-5
SYMBOL TABLE

KL.REQ= ****** GX	NOOP    000300R     002	PIDENT= 000000   	RDPITE= 000410R     002	SCPSCF  015774R
K.LSCK= ****** GX	NOVMSG= ****** GX	POP   = 000262   	RELEAS= 000071   	SCPSPF  016002R
LDB   = 000135   	NULSTP= 000040   	POPJ  = 000263   	REMMSG= ****** GX	SCRTAB  000506R     002
LGFMSG  002610R     003	NUPE  = 000002   	PRGMSG= ****** GX	RENAME= 000055   	SEPMSG= ****** GX
LGSMSG  002543R     003	OCTMSG= ****** GX	PRI7  = 000340   	REQKLD  000114R     004	SETA  = 000424
LGVMSG  002576R     003	OFFMSG= ****** GX	PROFF   001367R     003	RFMAD0= 100000   	SETAB = 000427
LG.ALL= 000007   	OFFSET  000116RG    002	PRON    001363R     003	RFMAD1= 040000   	SETACB  000742R     002
LG.ARG= 000010   	ONMSG = ****** GX	PROPNT= 000021   	RFMAD2= 020000   	SETACI  000774R     002
LG.MAR= 000020   	OPEN  = 000050   	PRTOFF= 004000   	RFMAD3= 010000   	SETAI = 000425
LG.MNT= 000004   	OPRMSG= ****** GX	PR0   = 000000   	RM    = 000010   	SETAM = 000426
LG.MOD= 000040   	OR    = 000434   	PR1   = 000040   	RNGEX   000072R     002	SETCA = 000450
LG.NUL= 000000   	ORB   = 000437   	PR2   = 000100   	RNGFR   000062R     002	SETCAB= 000453
LG.OPR= 000001   	ORCA  = 000454   	PR3   = 000140   	RNGTX   000112R     002	SETCAI= 000451
LG.PRG= 000002   	ORCAB = 000457   	PR4   = 000200   	ROT   = 000241   	SETCAM= 000452
LG.PRM= 000003   	ORCAI = 000455   	PR5   = 000240   	ROTC  = 000245   	SETCM = 000460
LG.RNG= 000100   	ORCAM = 000456   	PR6   = 000300   	RQSKLD  000000R     004	SETCMB= 000463
LG.RPT= 000400   	ORCB  = 000470   	PR7   = 000340   	RSAKCN  010532R  	SETCMI= 000461
LG.STR= 000200   	ORCBB = 000473   	PS    = 177776   	RSAPRI  000660R     002	SETCMM= 000462
LOAD11= 000004   	ORCBI = 000471   	PSENTB  001160R     002	RSERRI  000666R     002	SETM  = 000414
LOGBUF  001040R     002	ORCBM = 000472   	PSWW1 = 000005   	RSPGI0  000710R     002	SETMB = 000417
LOGLUN= 000004   	ORCM  = 000464   	PSWW10= 000014   	RSPGI1  000716R     002	SETMI = 000415
LOGMSG= ****** GX	ORCMB = 000467   	PSWW11= 000015   	RSPKCN  010710R  	SETMM = 000416
LOOKUP= 000076   	ORCMI = 000465   	PSWW12= 000016   	RSTIOI  000674R     002	SETO  = 000474
LPTMSG= ****** GX	ORCMM = 000466   	PSWW13= 000017   	RSTPII  000702R     002	SETOB = 000477
LSH   = 000242   	ORI   = 000435   	PSWW2 = 000006   	RUNITN  011002R  	SETOI = 000475
LSHC  = 000246   	ORM   = 000436   	PSWW3 = 000007   	RUNNST  011010R  	SETOM = 000476
LSTLUN= 000003   	OUT   = 000057   	PSWW4 = 000010   	RUNTAA  011016R  	SETSTS= 000060
MAP   = 000257   	OUTBUF= 000065   	PSWW5 = 000011   	R.QSGC= 000015   	SETZ  = 000400
MARMSG= ****** GX	OUTPUT= 000067   	PSWW6 = 000012   	R.QSPC= 000014   	SETZB = 000403
MAYMSG= ****** GX	PAG   = 000010   	PSWW7 = 000013   	R.QSPN= 000006   	SETZI = 000401
MGNMSG= ****** GX	PAR$$E= 000050   	PS.NRM= 001416   	R.QSPR= 000012   	SETZM = 000402
MNTMSG= ****** GX	PAR$$K= 000126   	PULSE = 000020   	R.QSTN= 000002   	SKIP  = 000330
MONMSG  003656R     003	PAR$$V= 000015   	PUSH  = 000261   	SATMSG  003734R     003	SKIPA = 000334
MOVE  = 000200   	PCMSG = ****** GX	PUSHJ = 000260   	SAVBLK  001014R     002	SKIPE = 000332
MOVEI = 000201   	PCTAB   000522R     002	QSIZE = 000023   	SBRTAB  000472R     002	SKIPG = 000337
MOVEM = 000202   	PC.AFI= 000020   	QTAB    001336R     002	SCAILI  012032R  	SKIPGE= 000335
MOVES = 000203   	PC.AT0= 000004   	QTRMSG= ****** GX	SCANOR  012040R  	SKIPL = 000331
MOVM  = 000214   	PC.AT1= 000010   	Q.BYCT= 000016   	SCCCLE  014352R  	SKIPLE= 000333
MOVMI = 000215   	PC.BIS= 000400   	Q.IBUF= 000014   	SCCLKT  001100R     002	SKIPN = 000336
MOVMM = 000216   	PC.CY0= 004000   	Q.IOAE= 000012   	SCD   = 000040   	SLOMSG= ****** GX
MOVMS = 000217   	PC.CY1= 002000   	Q.IOEF= 000006   	SCDCDI  017236R  	SOJ   = 000360
MOVN  = 000210   	PC.FOV= 001000   	Q.IOFN= 000002   	SCDDAV  017244R  	SOJA  = 000364
MOVNI = 000211   	PC.FUF= 000002   	Q.IOLU= 000004   	SCDNDI  017252R  	SOJE  = 000362
MOVNM = 000212   	PC.LIP= 000040   	Q.IOPL= 000014   	SCDNTI  017260R  	SOJG  = 000367
MOVNS = 000213   	PC.NDV= 000001   	Q.IOPR= 000007   	SCKIPC  017626R  	SOJGE = 000365
MOVS  = 000204   	PC.OVF= 010000   	Q.IOSB= 000010   	SCKKWE  020172R  	SOJL  = 000361
MOVSI = 000205   	PC.UIO= 000100   	Q.OBUF= 000014   	SCKMS0  003756R     003	SOJLE = 000363
MOVSM = 000206   	PC.USR= 000200   	Q.OVFC= 000020   	SCKMS1  003771R     003	SOJN  = 000366
MOVSS = 000207   	PERCLR= 001000   	Q0    = ****** GX	SCKMS2  004015R     003	SOS   = 000370
MPE11 = 001000   	PE.ALL= 000037   	Q1    = ****** GX	SCKMS3  004042R     003	SOSA  = 000374
MUL   = 000224   	PE.CES= 000001   	Q2    = ****** GX	SCKMS4  004071R     003	SOSE  = 000372
MULB  = 000227   	PE.CRM= 000004   	Q3    = ****** GX	SCKNPI  017604R  	SOSG  = 000377
MULI  = 000225   	PE.DRM= 000002   	RACADR  000730R     002	SCKPTL  017612R  	SOSGE = 000375
MULM  = 000226   	PE.FMP= 000010   	RACBLK  000724R     002	SCKSKI  017620R  	SOSL  = 000371
NOFMSG  001746R     003	PE.FSS= 000020   	RACDAT  000734R     002	SCOCAP  013434R  	SOSLE = 000373
NOMSG   003601R     003	PHYS  = 100000   	RAMIS0= 010000   	SCPART  001112R     002	SOSN  = 000376
NONMSG  003451R     003	PI    = 000004   	RDPITB  000374R     002	SCPILS  015766R  	SPCTAB  000342R     002
ZEROC -- ZERO COMMAND MODULE 76	MACRO M1113  03-APR-86 22:56  PAGE 244-6
SYMBOL TABLE

SPC1    001257R     003	ST.TXE= 020000   	TLZ   = 000621   	TSON  = 000677   	WHKMS0  004107R     003
SPC2    001263R     003	ST.XDB= 000400   	TLZA  = 000625   	TSZ   = 000631   	WHKMS1  004120R     003
SPC3    001300R     003	SUB   = 000274   	TLZE  = 000623   	TSZA  = 000635   	WHKMS2  004131R     003
SPC4    001304R     003	SUBB  = 000277   	TLZN  = 000627   	TSZE  = 000633   	WHKMS3  004157R     003
SPC5    001321R     003	SUBI  = 000275   	TOBM  = 000004   	TSZN  = 000637   	WHKMS4  004207R     003
SPC6    001332R     003	SUBM  = 000276   	TOIP  = 000002   	TTCALL= 000051   	WHMMSG  002746R     003
SSTLEN= ****** GX	SUNMSG  003746R     003	TOIT  = 000001   	TTYMSG= ****** GX	WHOMSG  002760R     003
STASZI  014160R  	SVPCTB  000750R     002	TO10  = 000200   	TUEMSG  003666R     003	WHOTMS  002644R     003
STAT  = 174434   	SWPFSW  012644R  	TO10AD= 174420   	TYDMTB  000572R     002	WHRCRH  015506R
STATAB  000302R     002	SWR   = 177570   	TO10BC= 174414   	TYLGMS  013272R  	WHRECM  003272R     003
STATO = 000061   	SWSLLT= 100000   	TO10BM= 000001   	TYPAD2  004016R  	WHRMRH  015500R
STATUS= 000022   	SXCT  = 000106   	TO10DB= 000400   	TYPDG1  004240R  	WHRMSG  002726R     003
STATYP  003710R  	SYMTAB  000240R     002	TO10DN= 100000   	TYPDG3  004312R  	WHTMSG  003042R     003
STATZ = 000063   	TAKIRE  011160R  	TO10DT= 174424   	TYPDTE  003612R  	WHWTAB  001060R     002
STA0    001004R     003	TAKNSF  011166R  	TO10ER= 020000   	TYPDX1  003746R  	WPMSG0  003456R     003
STA1    000744R     003	TA2MS1  001104R     003	TO11  = 000100   	UGETF = 000073   	WPMSG1  003510R     003
STA10   000432R     003	TA2MS2  001126R     003	TO11AD= 174422   	UJEN  = 000100   	WPMSG2  003536R     003
STA11   000402R     003	TA2MS3  001144R     003	TO11BC= 174416   	UNASG1= 000032   	WRLMSG  003001R     003
STA12   000362R     003	TA2MS4  001201R     003	TO11BM= 020000   	UNASG2= 000033   	WRTMSG  003022R     003
STA13   000327R     003	TA2MS5  001236R     003	TO11DB= 004000   	UNASG3= 000034   	WVMSG1  003062R     003
STA14   000306R     003	TC.CON= 000377   	TO11DN= 000200   	UNASG4= 000035   	WVMSG2  003104R     003
STA15   000252R     003	TC.CTC= 000002   	TO11DT= 174426   	UNASG5= 000036   	XCT   = 000256
STA2    000714R     003	TC.ERR= 000000   	TO11ER= 000002   	UNASG6= 000037   	XOR   = 000430
STA3    000671R     003	TC.RST= 000001   	TRC   = 000640   	USETI = 000074   	XORB  = 000433
STA4    000643R     003	TDC   = 000650   	TRCA  = 000644   	USETO = 000075   	XORI  = 000431
STA5    000604R     003	TDCA  = 000654   	TRCE  = 000642   	USRMSG= ****** GX	XORM  = 000432
STA6    000561R     003	TDCE  = 000652   	TRCN  = 000646   	VF.DSP= 000060   	XR    = 000000
STA7    000532R     003	TDCN  = 000656   	TRN   = 000600   	VF.FFD= 000061   	YESMSG  003575R     003
STA8    000502R     003	TDN   = 000610   	TRNA  = 000604   	VF.INT= 000000   	YONMSG  003556R     003
STA9    000450R     003	TDNA  = 000614   	TRNE  = 000602   	VF.OVR= 000053   	ZERDPB  000132R     004
STOPEX  000070R     002	TDNE  = 000612   	TRNN  = 000606   	VF.PRM= 000044   	ZERESD  021344R
STOPFR  000060R     002	TDNN  = 000616   	TRO   = 000660   	VF.SSP= 000040   	ZSTOP = 040000
STOPTX  000076R     002	TDO   = 000670   	TROA  = 000664   	VMAMSG= ****** GX	$DIV  = ****** GX
STPKL   000066R     002	TDOA  = 000674   	TROE  = 000662   	VMATB   000536R     002	$DSW  = ****** GX
ST.CED= 000100   	TDOE  = 000672   	TRON  = 000666   	VMHTB   000544R     002	$MUL  = ****** GX
ST.CLE= 000001   	TDON  = 000676   	TRZ   = 000620   	WACMSG  002402R     003	$$    = 000037
ST.CTD= 040000   	TDZ   = 000630   	TRZA  = 000624   	WCMMSG  002666R     003	$$A   = 000100
ST.CTE= 010000   	TDZA  = 000634   	TRZE  = 000622   	WCMSG0  003367R     003	$$B   = 000000
ST.DW1= 002000   	TDZE  = 000632   	TRZN  = 000626   	WCMSG1  003413R     003	$$C   = 000200
ST.DXD= 000004   	TDZN  = 000636   	TR.ALL= 000077   	WCMSG2  003427R     003	$$D   = 000011
ST.EBS= 000100   	TEMADR  000762R     002	TR.DEP= 000020   	WCMSG3  003441R     003	$$E   = 000016
ST.EDB= 004000   	TENAD1= 174410   	TR.DTE= 000040   	WEDMSG  003677R     003	$$F   = 000000
ST.EPE= 000020   	TENAD2= 174412   	TR.EXM= 000010   	WEP   = 000010   	$$$ARG= 000006
ST.IDS= 000010   	TENMSG= ****** GX	TR.FRD= 000002   	WHDMS0  003604R     003	$$$OST= 000016
ST.IEN= 000040   	THUMSG  003712R     003	TR.FWR= 000004   	WHDMS1  003632R     003	$$$T1 = 000000
ST.ION= 000001   	TLC   = 000641   	TR.FXC= 000001   	WHHMS0  003126R     003	.ABORT  000004RG
ST.MBZ= 000000   	TLCA  = 000645   	TSC   = 000651   	WHHMS1  003142R     003	.ABRTC  000000RG
ST.MOD= 000010   	TLCE  = 000643   	TSCA  = 000655   	WHHMS2  003154R     003	.ABRT0  000032RG
ST.MPE= 001000   	TLCN  = 000647   	TSCE  = 000653   	WHHMS3  003164R     003	.ACBLK= ****** GX
ST.NST= 000040   	TLN   = 000601   	TSCN  = 000657   	WHHMS4  003213R     003	.APRWD= ****** GX
ST.RIZ= 010000   	TLNA  = 000605   	TSN   = 000611   	WHHMS5  003240R     003	.ASCID  000016RG    004
ST.RST= 011121   	TLNE  = 000603   	TSNA  = 000615   	WHHMS6  003263R     003	.ASCOD  000026RG    004
ST.SEP= 000004   	TLNN  = 000607   	TSNE  = 000613   	WHIMSG  002706R     003	.ASLST  000036RG    004
ST.STE= 000002   	TLO   = 000661   	TSNN  = 000617   	WHKMRB  004246R     003	.ATLMD= 000033
ST.TED= 000200   	TLOA  = 000665   	TSO   = 000671   	WHKMSA  004237R     003	.ATLST  000064R     004
ST.TER= 000002   	TLOE  = 000663   	TSOA  = 000675   	WHKMSI  004271R     003	.BRCLK= 005000
ST.TXD= 100000   	TLON  = 000667   	TSOE  = 000673   	WHKMSK  004302R     003	.BUFSZ= ****** GX
ZEROC -- ZERO COMMAND MODULE 76	MACRO M1113  03-APR-86 22:56  PAGE 244-7
SYMBOL TABLE

.CECLK= 004000   	.DPOSD  000202RG 	.EXCTF= ****** GX	.INFN = ****** GX	.LDRJV= 063000
.CESCK= ****** GX	.DPOSE  001372RG 	.EXDRA  004740RG 	.INFNB= ****** GX	.LDRM1= 060000
.CHTAB= ****** GX	.DPOSI  000206RG 	.EXDTE  003602RG 	.INICL= 070000   	.LDRM2= 061000
.CIBFR= ****** GX	.DPOSN  000212RG 	.EXEBR  003336RG 	.INICP  007562RG 	.LDRM3= 062000
.CISTS= ****** GX	.DPOSP  000216RG 	.EXEBS  004404RG 	.INIC0  007332RG 	.LDSEL= 044000
.CKARG= ****** GX	.DPOST  002244RG 	.EXECT= ****** GX	.INIT   007334RG 	.LDZFL= ****** GX
.CKCOL= ****** GX	.DPOSZ  000222RG 	.EXETB= ****** GX	.INITC  007326RG 	.LGLWD= ****** GX
.CKCTC= ****** GX	.DPOTB= ****** GX	.EXEWD  002124RG 	.INKLF  007364RG 	.LOKUP= ****** GX
.CKEOC= ****** GX	.DPSEE  001444RG 	.EXEWI  002132RG 	.INPOS= ****** GX	.MARKC  010266RG
.CKEOS= ****** GX	.DPSTE  002314RG 	.EXEWN  002140RG 	.INVBN= ****** GX	.MEMFL= ****** GX
.CKOBJ= ****** GX	.DRLTC= 015000   	.EXEWP  002146RG 	.IRADX= ****** GX	.MEMRS= 076000
.CKRNP= ****** GX	.DSACF= 066000   	.EXEWT  002116RG 	.IRLTC= 014000   	.MON  = ****** GX
.CKRUN= ****** GX	.DSIOJ= 065000   	.EXFER  004746RG 	.JUMPC  014052RG 	.MONTB= ****** GX
.CKSYM= ****** GX	.DTBUF  000552RG    002	.EXFMR  004412RG 	.KACFL= ****** GX	.NOERR= ****** GX
.CLKWD= ****** GX	.DTDW1= ****** GX	.EXITP= ****** GX	.KLCON= ****** GX	.NOHLT= ****** GX
.CLOSE= ****** GX	.DTLST  000100R     004	.EXKLD  003244RG 	.KLE    007752RG 	.NOTSW= ****** GX
.CLRCM  013626RG 	.DTSTA= ****** GX	.EXKLI  003252RG 	.KLEDF= ****** GX	.OPEN = ****** GX
.CLRMR= 006000   	.DTSTW= 000004   	.EXKLM= ****** GX	.KLEPT= ****** GX	.ORADX= ****** GX
.CLRUN= 010000   	.EDELA= ****** GX	.EXKLN  003260RG 	.KLERQ= ****** GX	.OTATT= ****** GX
.COMEF= ****** GX	.EDEWD  000374RG 	.EXKLP  003266RG 	.KLEVL= ****** GX	.OTBBC= ****** GX
.COMMA= 000054   	.EDEWI  000406RG 	.EXKLT  003236RG 	.KLFCF= ****** GX	.OTBUF= ****** GX
.CONBT= 012000   	.EDEWN  000406RG 	.EXMEE  001670RG 	.KLFLG= ****** GX	.OTFN = ****** GX
.CONTC  000062RG 	.EDEWP  000374RG 	.EXMEL  000356RG 	.KLHLT= ****** GX	.OTFNB= ****** GX
.CPUSN= ****** GX	.EDKLA= ****** GX	.EXMKL  000366RG 	.KLINC= ****** GX	.OTPOS= ****** GX
.CSHRG= 164000   	.EDKLC  000516RG 	.EXMPI  005040RG 	.KLIWD= ****** GX	.OTVBN= ****** GX
.DATE3= ****** GX	.EDKLD  000444RG 	.EXMQR  004420RG 	.KLMTB= ****** GX	.OUTLG= ****** GX
.DAY  = ****** GX	.EDKLI  000462RG 	.EXMTB= ****** GX	.KLMT1= ****** GX	.OUTLP= ****** GX
.DEPAR  002154RG 	.EDKLN  000432RG 	.EXMTE  002704RG 	.KLNFD= ****** GX	.OUTTY= ****** GX
.DFBLK= ****** GX	.EDKLP  000420RG 	.EXOBJ  000330RG 	.KLNFT= ****** GX	.PASS = ****** GX
.DFCOM  000546RG 	.EDKLX= ****** GX	.EXREG  005212RG 	.KLNMD= ****** GX	.PCAB1= 150000
.DFRED  000664RG 	.EIOJA= 067000   	.EXSBR  004754RG 	.KLNPB= ****** GX	.PCAB2= 151000
.DFWRT  001130RG 	.ELDDW= ****** GX	.EXSCR  004762RG 	.KLNPE= ****** GX	.PCAB3= 152000
.DFXCT  001216RG 	.ELEDW= ****** GX	.EXUBR  003344RG 	.KLNPW= ****** GX	.PCAB4= 153000
.DIAG1= 000000   	.ENTER= ****** GX	.EXVAB  004426RG 	.KLNSW= ****** GX	.PITAB= ****** GX
.DIAG2= 000002   	.ERRCD= ****** GX	.EXVMA  004434RG 	.KLNTD= ****** GX	.PRDTE= ****** GX
.DIAG3= 000006   	.ERRPC= ****** GX	.EXVMH  004442RG 	.KLNTT= ****** GX	.PSCWD= ****** GX
.DISCC  001346RG 	.EXAD   004340RG 	.EXVPC  004450RG 	.KLRLD= ****** GX	.QUITC  011302RG
.DOW  = ****** GX	.EXADX  004346RG 	.FEMOD= ****** GX	.KLRST= ****** GX	.RCRM1= 147000
.DPBFR= ****** GX	.EXAMA  000240RG 	.FREAD= ****** GX	.KLSNP= ****** GX	.RCRM2= 146000
.DPBFX= ****** GX	.EXAMC  000226RG 	.FWRIT= ****** GX	.KLST = ****** GX	.RCRM3= 145000
.DPETB= ****** GX	.EXAMD  000244RG 	.FXCT = ****** GX	.KLSTP= ****** GX	.RCRM4= 144000
.DPEWD  001562RG 	.EXAME  001642RG 	.GFNR = 102000   	.LCRDL= 052000   	.RCSPF= 141000
.DPEWI  001570RG 	.EXAMF  004544RG 	.GTDAT  006026RG 	.LCRDR= 051000   	.RDADR  005254RG
.DPEWN  001576RG 	.EXAMI  000250RG 	.GTELN= ****** GX	.LCRM1= 057000   	.RDADX  005262RG
.DPEWP  001604RG 	.EXAMK  004650RG 	.GTKLA= ****** GX	.LCRM2= 056000   	.RDAPR  003274RG
.DPEWT  001554RG 	.EXAMN  000254RG 	.GTKLN= ****** GX	.LCRM3= 055000   	.RDARR  005270RG
.DPKLD  002572RG 	.EXAMP  000260RG 	.GTLIN= ****** GX	.LCRM4= 054000   	.RDARX  005276RG
.DPKLI  002600RG 	.EXAMT  002652RG 	.GTNBR= ****** GX	.LCRM5= 053000   	.RDBRR  005304RG
.DPKLM= ****** GX	.EXAMZ  000264RG 	.GTNUM= ****** GX	.LDAR = 077000   	.RDBRX  005312RG
.DPKLN  002606RG 	.EXARR  004354RG 	.GTR50  011174RG 	.LDBRL= 043000   	.RDCPP= ****** GX
.DPKLP  002614RG 	.EXARX  004362RG 	.GTTIM  006472RG 	.LDBRR= 042000   	.RDCRA  005550RG
.DPKLT  002564RG 	.EXBFR= ****** GX	.HALTC  007312RG 	.LDCK1= 046000   	.RDCRL  005556RG
.DPOBJ  000270RG 	.EXBRR  004370RG 	.HRDWR= ****** GX	.LDCK2= 047000   	.RDCRM= ****** GX
.DPOEL  000320RG 	.EXBRX  004376RG 	.INBBC= ****** GX	.LDCLK= ****** GX	.RDDRA  005564RG
.DPOKL  000312RG 	.EXCRA  004724RG 	.INCHC= ****** GX	.LDDIS= 045000   	.RDEBS  005320RG
.DPOSA  000176RG 	.EXCRL  004732RG 	.INDFG= ****** GX	.LDPAR= ****** GX	.RDFER  005572RG
.DPOSC  000164RG 	.EXCTC  003526RG 	.INEXT  000622R     002	.LDRJD= 064000   	.RDFLG  005344RG
ZEROC -- ZERO COMMAND MODULE 76	MACRO M1113  03-APR-86 22:56  PAGE 244-8
SYMBOL TABLE

.RDFMA= ****** GX	.RSTPI  010562RG 	.SCOTC  013466RG 	.STRTV= ****** GX	.TYP3D= ****** GX
.RDFMO= ****** GX	.RSTRC  011312RG 	.SCOTL  012774RG 	.STUCD= ****** GX	.TYSLS= ****** GX
.RDFMP= ****** GX	.RSTTB= ****** GX	.SCOTP  013354RG 	.SVACB  011430RG 	.TYSPC= ****** GX
.RDFMR  005326RG 	.RUNCM  010716RG 	.SCOTT= ****** GX	.SVESP= ****** GX	.TYTIM  007154RG
.RDIPE= ****** GX	.SACBK  012046RG 	.SCOTY  013442RG 	.SVKLF= ****** GX	.T50TB= ****** GX
.RDJ14= 134000   	.SACB1  012050RG 	.SCOUT  012706RG 	.SVPC   011466RG 	.UMRKC  010262RG
.RDJ71= 135000   	.SAVEC  011404RG 	.SCPAL  016164RG 	.SWPAC  012514RG 	.VERNO= ****** GX
.RDMAB= 133000   	.SAVFL  011542R  	.SCPAR  016172RG 	.SWPC   012214RG 	.VFYFL= ****** GX
.RDMQR  005334RG 	.SAVPC  011666R  	.SCPCR  016200RG 	.SWPIP= ****** GX	.WHACB  012132RG
.RDPI   005470RG 	.SAVQ   021352RG 	.SCPDR  016206RG 	.TAKEC  011024RG 	.WHATB= ****** GX
.RDSBR  005600RG 	.SAVTB= ****** GX	.SCPEN  016214RG 	.TAKE1  011100RG 	.WHATC  013702RG
.RDSCR  005606RG 	.SCACB  011774RG 	.SCPFM  016222RG 	.TCRLF= ****** GX	.WHATV  015242RG
.RDVAB  005704RG 	.SCCEC  016126RG 	.SCPFS  016230RG 	.TPADD= ****** GX	.WHCON  014360RG
.RDVMA  005712RG 	.SCCED  016134RG 	.SCPST  015622RG 	.TPCLR= ****** GX	.WHDAT  017266RG
.RDVMH  005720RG 	.SCCEE  016142RG 	.SCPTB= ****** GX	.TPCMP= ****** GX	.WHINC  014506RG
.RDVPC  005676RG 	.SCCLK  015566RG 	.SCRLD  014752RG 	.TPDEC= ****** GX	.WHKLN  020576RG
.RDXSV= ****** GX	.SCCLN  016010RG 	.SCRPT  015072RG 	.TPDIV= ****** GX	.WHMEM  014646RG
.RECNT= ****** GX	.SCCOM  014320RG 	.SCRTY  014766RG 	.TPINC= ****** GX	.WHOFS  014726RG
.RECPT= ****** GX	.SCCON  014236RG 	.SCTRK  015170RG 	.TPNEG= ****** GX	.WHOUT  013510RG
.RECRD= ****** GX	.SCCOO  014304RG 	.SECLK= 003000   	.TPSHI= ****** GX	.WHRDW  015302RG
.REGSV= ****** GX	.SCCOP  014312RG 	.SETCM  013646RG 	.TPSUB= ****** GX	.WHREC  015530RG
.RELWD= ****** GX	.SCCOT= ****** GX	.SETC0  013656RG 	.TPTST= ****** GX	.WHRLD  015014RG
.RESQ   021360RG 	.SCCOU  014346RG 	.SETMR= 007000   	.TRKWD= ****** GX	.WHRPT  014520RG
.RESTB= ****** GX	.SCCRF  016012RG 	.SETRN= 011000   	.TRPTV= ****** GX	.WHRTY  015040RG
.RESTC  010364RG 	.SCCRH  016016RG 	.SETTB= ****** GX	.TRP4V= ****** GX	.WHTCA  016272RG
.RESTD= ****** GX	.SCCRQ  016024RG 	.SFREC  015514RG 	.TSCAN= ****** GX	.WHTCL  016256RG
.RESTI= ****** GX	.SCCRS  016032RG 	.SHUTC  013740RG 	.TYACE= ****** GX	.WHTPA  016474RG
.RESTP= ****** GX	.SCCSE  016044RG 	.SNAP   010234RG 	.TYAC1= ****** GX	.WHTPS  016460RG
.RNDPB  000046RG    004	.SCCSI  016074RG 	.SPACE= 000040   	.TYCHR= ****** GX	.WHTRK  015212RG
.RPTCT= ****** GX	.SCCSM  016100RG 	.SSCAN= ****** GX	.TYCOL= ****** GX	.WRCRM= ****** GX
.RPTPT= ****** GX	.SCCTB= ****** GX	.SSCLK= 002000   	.TYCOM= ****** GX	.WRITZ= ****** GX
.RSACB  011336RG 	.SCDAT  016740RG 	.SSM  = ****** GX	.TYDAT  007040RG 	.WRMBX= 071000
.RSALL  010444RG 	.SCFSS  015600RG 	.SSTTB= ****** GX	.TYELA= ****** GX	.WRTAR= ****** GX
.RSAPR  010540RG 	.SCINC  014430RG 	.STCLK= ****** GX	.TYELN= ****** GX	.XFRCK  001260RG
.RSDTE  010512RG 	.SCKLN  017442RG 	.STPCL= 000000   	.TYKLA= ****** GX	.XFWCK  001276RG
.RSERR  010546RG 	.SCMEL  014626RG 	.STPKL= ****** GX	.TYKLN= ****** GX	.XFXCK  001314RG
.RSPAG  010572RG 	.SCMEM  014574RG 	.STRCL= 001000   	.TYLIN= ****** GX	.YEAR = ****** GX
.RSSWP  012652RG 	.SCMKL  014640RG 	.STRTB= ****** GX	.TYMIN= ****** GX	.YESNO  016634RG
.RSTIN  010516RG 	.SCMTB= ****** GX	.STRTC  014030RG 	.TYMSF= ****** GX	.ZEROC  021104RG
.RSTIO  010554RG 	.SCNOT  013726RG 	.STRTT  014062RG 	.TYMSG= ****** GX	..DTP2= ****** GX
.RSTKL= ****** GX	.SCOFS  014700RG 	.STRTU  014166RG 	.TYOUT= ****** GX	..STIN= ****** GX

. ABS.	000000	   000
      	021476	   001
DATA  	001346	   002
MESSAG	004321	   003
DPBS  	000144	   004
ERRORS DETECTED:  0

VIRTUAL MEMORY USED:  15844 WORDS  ( 62 PAGES)
DYNAMIC MEMORY:  17606 WORDS  ( 67 PAGES)
ELAPSED TIME:  00:05:35
,[51,20]PATREE/CR/-SP=[51,30]PATREE.TMP
